0091071500999991928010406004+48950+002433FM-12+004699999V0202501N00461000151CN0000501N9+00111+99999102901ADDAY111999GF108991999061000251001001KA1999N+99999MW1601EQDQ01+000072SCOTLCQ02 +04002ATMN  
0075071500999991928010506004+48950+002433FM-12+004699999V0202501N00461002401CN0100001N9+00721+99999102071ADDAA199004091AY161999GF108991061051002501999999KA1999N+00001MD1210061+9999
0057071500999991928010606004+48950+002433FM-12+004699999V0202301N01901002401CN0020001N9+00391+99999101931ADDAY161999GF108991081061002501999999MD1810461+9999MW1631
0050071500999991928010706004+48950+002433FM-12+004699999V0202701N001019999999N0020001N9+00501+99999102511ADDAY111999GF107991999999999999999999KA1999N+00391
0075071500999991928010806004+48950+002433FM-12+004699999V0202301N00931002401CN0040001N9+00781+99999101631ADDAA199000691AY111999GF108991061051002501999999KA1999N+00001MD1510061+9999
0089071500999991928010906004+48950+002433FM-12+004699999V0202301N00101000151CN0005001N9+00721+99999101721ADDAY141999GF108991081051000251999999KA1999N+99999MD1610061+9999MW1451EQDQ01 +02002ATMN  
0085071500999991928011006004+48950+002433FM-12+004699999V0202301N00261007801CN0020001N9+00891+99999101931ADDAY111999GF108991081051008001999999KA1999N+00781EQDQ01+000032APCTENQ02+000002APC3  
0081071500999991928011106004+48950+002433FM-12+004699999V0202701N00101002401CN0010001N9+00781+99999101771ADDAA199002091AY161999GF108991081061002501999999KA1999N+00781MD1210061+9999MW1601
0075071500999991928011206004+48950+002433FM-12+004699999V0202701N00261220001CN0020001N9+00221+99999102371ADDAA199004091AY111999GF102991001001999999001021KA1999N-03001MD1410001+9999
0081071500999991928011306004+48950+002433FM-12+004699999V0202301N00461002401CN0010001N9+00781+99999101301ADDAA199000391AY111999GF108991061061002501999999KA1999N+00221MD1610061+9999MW1601
0085071500999991928011406004+48950+002433FM-12+004699999V0202501N00671220001CN0040001N9+00391+99999101711ADDAY121999GF104991001001999999031021KA1999N+00001EQDQ01+000032APCTENQ02+000002APC3  
0075071500999991928011506004+48950+002433FM-12+004699999V0202301N002619999999N0020001N9+00781+99999100771ADDAA199001091AY141999GF106991999999012501999999KA1999N+00781MD1110061+9999
0075071500999991928012406004+48950+002433FM-12+004699999V0201801N01231002401CN0040001N9+00501+99999102101ADDAA199001091AY111999GF108991081051002501999999KA1999N+00001MD1610141+9999
0064071500999991928012506004+48950+002433FM-12+004699999V0202701N00261220001CN0040001N9+00391+99999103181ADDAY111999GF100991001001999999001001KA1999N+00391MD1310141+9999
0064071500999991928012606004+48950+002433FM-12+004699999V0202301N009319999999N0100001N9+00391+99999102701ADDAY121999GF107991999999004501999999KA1999N+00001MD1610261+9999
0075071500999991928012706004+48950+002433FM-12+004699999V0202701N001019999999N0010001N9+00391+99999101601ADDAA199004091AY161999GF108991999999012501999999KA1999N+00391MD1310141+9999
0085071500999991928013006004+48950+002433FM-12+004699999V0202301N001019999999N0020001N9+00501+99999100501ADDAY121999GF108991999999017501999999KA1999N+00281EQDQ01+000042APCTENQ02+000142APC3  
0081071500999991928020106004+48950+002433FM-12+004699999V0202301N00261002401CN0020001N9+00891+99999101141ADDAA199002091AY161999GF108991071061002501999999KA1999N+00391MD1610061+9999MW1601
0061071500999991928020206004+48950+002433FM-12+004699999V0202701N00101220001CN0020001N9+00281+99999101981ADDAA199000591AY121999GF104991999999999999999999KA1999N+00281
0096071500999991928020306004+48950+002433FM-12+004699999V0203201N002619999999N0010001N9+00281+99999101031ADDAA199008091AY161999GF108991999999004501999999KA1999N+00111EQDQ01+000042APCTENQ02+000342APC3  
0081071500999991928020506004+48950+002433FM-12+004699999V0202301N00101002401CN0010001N9+00611+99999102711ADDAA199000691AY161999GF108991061061002501999999KA1999N+00611MD1810141+9999MW1601
0075071500999991928020606004+48950+002433FM-12+004699999V0202701N00261220001CN0020001N9+00281+99999102871ADDAA199005091AY111999GF100991001001999999001001KA1999N+00281MD1310201+9999
0064071500999991928020706004+48950+002433FM-12+004699999V0202901N00671220001CN0020001N9+00221+99999103991ADDAY121999GF104991001001999999001021KA1999N+00001MD1310141+9999
0081071500999991928020806004+48950+002433FM-12+004699999V0202701N00261004501CN0010001N9+00611+99999103981ADDAA199000691AY161999GF108991071061004501999999KA1999N+00501MD1990061+9999MW1601
0064071500999991928020906004+48950+002433FM-12+004699999V0202501N00461220001CN0040001N9+00501+99999103311ADDAY111999GF104991001001999999031021KA1999N+00391MD1710061+9999
0081071500999991928021006004+48950+002433FM-12+004699999V0202301N00261002401CN0005001N9+01111+99999101841ADDAA199005091AY161999GF108991061061002501999999KA1999N+01001MD1810141+9999MW1601
0100071500999991928021106004+48950+002433FM-12+004699999V0202701N019019999999N0040001N9+00501+99999100331ADDAA199001091AY121999GF107991999061004501001001KA1999N+00001MD1510001+9999MW1601EQDQ01+000042SCOTLC
0075071500999991928021206004+48950+002433FM-12+004699999V0203201N00261090001CN0040001N9+00611+99999100551ADDAA199000691AY161999GF107991041091004501001081KA1999N+00501MD1310261+9999
0100071500999991928021306004+48950+002433FM-12+004699999V0203601N00101004501CN0010001N9+00781+99999100611ADDAA199003091AY161999GF108991081061004501999999KA1999N+00391MD1310602+9999MW1601EQDQ01+000602APC3  
0064071500999991928021406004+48950+002433FM-12+004699999V0202701N006719999999N0100001N9+01001+99999101331ADDAY121999GF108991999999004501999999KA1999N+00001MD1310141+9999
0081071500999991928021506004+48950+002433FM-12+004699999V0202301N00461004501CN0020001N9+01281+99999102171ADDAA199000591AY161999GF108991061051004501999999KA1999N+01281MD1310261+9999MW1511
0101071500999991928021606004+48950+002433FM-12+004699999V0202301N00261012301CN0040001N9+01111+99999102561ADDAY111999GF107991999051012501999999KA1999N+01111EQDQ01+000082SCOTLCQ02+000072APCTENQ03+000002APC3  
0075071500999991928021706004+48950+002433FM-12+004699999V0202901N01231220001CN0040001N9+00721+99999102231ADDAA199000691AY111999GF104991999999008001999999KA1999N+00001MD1110141+9999
0069071500999991928021806004+48950+002433FM-12+004699999V0202701N00101220001CN0020001N9+00391+99999103151ADDAY111999GF100991001001999999001001KA1999N+00391EQDQ01+000602PRSWM1
0101071500999991928021906004+48950+002433FM-12+004699999V0209991C00001220001CN0010001N9+00281+99999103131ADDAY111999GF101991001001999999001021KA1999N+99999EQDQ01+000032APCTENQ02+000002APC3  Q03 +01002ATMN  
0075071500999991928022006004+48950+002433FM-12+004699999V0209991C00001024001CN0005001N9+00281+99999103511ADDAY111999GF108991999061999999001001KA1999N+00281MW1601EQDQ01+000072SCOTLC
0051071500999991928022106004+48950+002433FM-12+004699999V0201401N00461220001CN0010001N9+00281+99999103321ADDAY121999GF104991001001999999031021MD1610061+9999
0037071500999991928022206004+48950+002433FM-12+004699999V0200701N00101220001CN0005001N9-01001+99999999999ADDAY111999GF100991001001999999001001
0064071500999991928022306004+48950+002433FM-12+004699999V0209991C00001220001CN0010001N9+00221+99999103071ADDAY111999GF100991001001999999001001KA1999N+00221MD1810141+9999
0064071500999991928022406004+48950+002433FM-12+004699999V0200501N00461220001CN0002001N9-00111+99999102271ADDAY111999GF100991001001999999001001KA1999N-00111MD1310061+9999
0085071500999991928022606004+48950+002433FM-12+004699999V0201601N00931220001CN0100001N9+00281+99999102921ADDAY111999GF100991001001999999001001KA1999N+00001EQDQ01+000012APCTENQ02+000002APC3  
