0075102240999991929080106004+53083+008783FM-12+000499999V0202301N00461220001CN0200001N9+01721+99999099411ADDAA199001091AY101999GF104991041071004501999999KA1999N+01281MD1810061+9999
0081102240999991929080118004+53083+008783FM-12+000499999V0202301N00671002401CN0100001N9+01501+99999099531ADDAA199004091AY181999GF108991061061002501011999KA1999M+01781MD1310061+9999MW1801
0081102240999991929080206004+53083+008783FM-12+000499999V0202701N00931002401CN0040001N9+01391+99999100391ADDAA199003091AY181999GF108991061061002501011999KA1999N+01281MD1310261+9999MW1811
0075102240999991929080218004+53083+008783FM-12+000499999V0202701N00461220001CN0200001N9+01611+99999101371ADDAA199003091AY111999GF102991021011008001001031KA1999M+01721MD1210201+9999
0064102240999991929080306004+53083+008783FM-12+000499999V0202501N00261220001CN0200001N9+01221+99999101941ADDAY101999GF102991001001999999001071KA1999N+00721MD1310141+9999
0064102240999991929080318004+53083+008783FM-12+000499999V0201401N002619999999N0100001N9+02001+99999101541ADDAY111999GF106991011051017501011999KA1999M+02111MD1810141+9999
0080102240999991929080406004+53083+008783FM-12+000499999V0201401N002619999999N0040001N9+01501+99999101381ADDAA199000691AY161999GF108991041061008001011999KA1999N+01391EQDQ01+000002APC3  
0064102240999991929080418004+53083+008783FM-12+000499999V0201401N00261220001CN0200001N9+02501+99999100711ADDAY101999GF102991011051012501011999KA1999M+02611MD1810141+9999
0064102240999991929080506004+53083+008783FM-12+000499999V0202501N004619999999N0100001N9+01721+99999100631ADDAY121999GF108991041051017501011999KA1999N+01501MD1010141+9999
0064102240999991929080518004+53083+008783FM-12+000499999V0202901N00461220001CN0200001N9+01721+99999101381ADDAY101999GF102991011051008001001011KA1999M+02281MD1310261+9999
0085102240999991929080606004+53083+008783FM-12+000499999V0201601N00261220001CN0100001N9+01391+99999101751ADDAY101999GF102991011011012501001081KA1999N+01001EQDQ01+000032APCTENQ02+000002APC3  
0064102240999991929080618004+53083+008783FM-12+000499999V0201401N00261220001CN0200001N9+02281+99999101221ADDAY111999GF106991001001999999071999KA1999M+02391MD1810141+9999
0085102240999991929080706004+53083+008783FM-12+000499999V0201801N00461220001CN0200001N9+01781+99999100971ADDAY111999GF106991001001999999031071KA1999N+01391EQDQ01+000072APCTENQ02+000002APC3  
0096102240999991929080718004+53083+008783FM-12+000499999V0203601N002619999999N0100001N9+02221+99999101071ADDAA199000691AY111999GF106991021011008001001071KA1999M+02721EQDQ01+000032APCTENQ02+000002APC3  
0081102240999991929080806004+53083+008783FM-12+000499999V0203401N00261001501CN0040001N9+01501+99999101211ADDAA199005091AY161999GF108991061061001501011999KA1999N+01391MD1210141+9999MW1521
0085102240999991929080818004+53083+008783FM-12+000499999V0203401N00101007801CN0040001N9+01611+99999101411ADDAY111999GF109991061051008001011999KA1999M+01781EQDQ01+000032APCTENQ02+000002APC3  
0085102240999991929080906004+53083+008783FM-12+000499999V0201801N00101220001CN0100001N9+01501+99999101591ADDAY111999GF102991011011002501031999KA1999N+01111EQDQ01+000032APCTENQ02+000002APC3  
0085102240999991929080918004+53083+008783FM-12+000499999V0203601N00261220001CN0100001N9+01781+99999101681ADDAY111999GF106991001001999999011071KA1999M+02111EQDQ01+000032APCTENQ02+000002APC3  
0083102240999991929081006004+53083+008783FM-12+000499999V0202001N00101220001CN0100001N9+01501+99999101781ADDAY111999GF101991999001999999031001KA1999N+01221MD1010061+9999EQDQ01+000002SCOTLC
0064102240999991929081018004+53083+008783FM-12+000499999V0203201N002619999999N0040001N9+01781+99999101951ADDAY111999GF107991041051012501011999KA1999M+02221MD1210061+9999
0085102240999991929081106004+53083+008783FM-12+000499999V0202301N00101220001CN0040001N9+01611+99999102041ADDAY101999GF100991001001999999001001KA1999N+01221EQDQ01+000032APCTENQ02+000002APC3  
0083102240999991929081118004+53083+008783FM-12+000499999V0202701N00261220001CN0200001N9+02221+99999101661ADDAY101999GF102991999001999999031001KA1999M+02501MD1810061+9999EQDQ01+000002SCOTLC
0081102240999991929081206004+53083+008783FM-12+000499999V0202701N00101001501CN0040001N9+01611+99999101751ADDAA199005091AY161999GF108991081061001501999999KA1999N+01501MD1310061+9999MW1621
0064102240999991929081218004+53083+008783FM-12+000499999V0203201N00261220001CN0100001N9+01781+99999102041ADDAY111999GF104991021051012501011999KA1999M+02111MD1210141+9999
0064102240999991929081306004+53083+008783FM-12+000499999V0202501N00101220001CN0100001N9+01391+99999102401ADDAY101999GF100991001001999999001001KA1999N+01001MD1310061+9999
0064102240999991929081318004+53083+008783FM-12+000499999V0203601N00101220001CN0100001N9+01891+99999102311ADDAY101999GF102991001001999999011081KA1999M+02111MD1810061+9999
0075102240999991929081418004+53083+008783FM-12+000499999V0202701N004619999999N0200001N9+01891+99999101801ADDAA199000691AY181999GF106991041051008001011999KA1999M+02001MD1310061+9999
0064102240999991929081506004+53083+008783FM-12+000499999V0202501N00101220001CN0040001N9+01281+99999101991ADDAY101999GF104991001001999999001071KA1999N+01001MD1310061+9999
0064102240999991929081518004+53083+008783FM-12+000499999V0200501N00261220001CN0200001N9+02001+99999101861ADDAY101999GF101991001001999999001071KA1999M+02111MD1810061+9999
0085102240999991929081606004+53083+008783FM-12+000499999V0201101N001019999999N0100001N9+01391+99999101801ADDAY111999GF106991021011017501001071KA1999N+01001EQDQ01+000032APCTENQ02+000002APC3  
0064102240999991929081618004+53083+008783FM-12+000499999V0200701N00261220001CN0100001N9+02281+99999101371ADDAY111999GF106991001001999999011071KA1999M+02391MD1610141+9999
0037102240999991929081706004+53083+008783FM-12+000499999V0202701N004619999999N0100001N9+02221+99999101201ADDAY111999GF107991041031012501001031
0075102240999991929081718004+53083+008783FM-12+000499999V0202701N002619999999N0100001N9+02111+99999101341ADDAA199003091AY111999GF106991021061008001999999KA1999M+02281MD1310061+9999
0064102240999991929081806004+53083+008783FM-12+000499999V0202301N002619999999N0100001N9+01611+99999101331ADDAY121999GF108991041061004501011999KA1999N+01221MD1310061+9999
0064102240999991929081906004+53083+008783FM-12+000499999V0202901N00261220001CN0100001N9+01281+99999102121ADDAY101999GF102991011051012501011999KA1999N+01111MD1310141+9999
0085102240999991929081918004+53083+008783FM-12+000499999V0203401N00261220001CN0200001N9+01611+99999102281ADDAY101999GF102991001001999999001071KA1999M+01721EQDQ01+000032APCTENQ02+000002APC3  
0064102240999991929082006004+53083+008783FM-12+000499999V0201801N00101220001CN0100001N9+01221+99999102441ADDAY101999GF104991001001999999011071KA1999N+00721MD1210061+9999
0064102240999991929082018004+53083+008783FM-12+000499999V0200501N00101220001CN0100001N9+01781+99999102181ADDAY101999GF104991021011008001001071KA1999M+01891MD1810061+9999
0064102240999991929082106004+53083+008783FM-12+000499999V0201401N001019999999N0040001N9+01281+99999102231ADDAY121999GF108991041051022501011999KA1999N+01111MD1110061+9999
0085102240999991929082118004+53083+008783FM-12+000499999V0201801N00101012301CN0040001N9+01891+99999102111ADDAY111999GF107991061051012501011999KA1999M+02111EQDQ01+000032APCTENQ02+000002APC3  
0083102240999991929082206004+53083+008783FM-12+000499999V0201401N00261220001CN0040001N9+01221+99999101871ADDAY121999GF108991999051999999011999KA1999N+01001MD1810061+9999EQDQ01+000002SCOTLC
0102102240999991929082218004+53083+008783FM-12+000499999V0201801N00461001501CN0020001N9+01501+99999101711ADDAA199002091AY161999GF108991081061001501999999KA1999M+01781MW1521EQDQ01+000032APCTENQ02+000002APC3  
0075102240999991929082306004+53083+008783FM-12+000499999V0202301N002619999999N0040001N9+01501+99999101921ADDAA199000591AY121999GF108991041061001501999999KA1999N+01391MD1010141+9999
0096102240999991929082318004+53083+008783FM-12+000499999V0202001N00461007801CN0040001N9+01721+99999101871ADDAA199000691AY161999GF108991061061008001999999KA1999M+02111EQDQ01+000032APCTENQ02+000002APC3  
0075102240999991929082406004+53083+008783FM-12+000499999V0202301N00461001501CN0040001N9+01721+99999101751ADDAA199000691AY121999GF108991081051001501999999KA1999N+01611MD1210061+9999
0096102240999991929082418004+53083+008783FM-12+000499999V0202301N004619999999N0040001N9+02001+99999101641ADDAA199000691AY161999GF108991041061002501011999KA1999M+02111EQDQ01+000082APCTENQ02+000002APC3  
0075102240999991929082506004+53083+008783FM-12+000499999V0202701N002619999999N0100001N9+01611+99999101941ADDAA199001091AY111999GF106991041051004501001071KA1999N+01501MD1310141+9999
0064102240999991929082518004+53083+008783FM-12+000499999V0203201N00461220001CN0200001N9+01721+99999102121ADDAY101999GF102991001001999999001071KA1999M+02001MD1310061+9999
0064102240999991929082606004+53083+008783FM-12+000499999V0202701N00101220001CN0200001N9+01281+99999102421ADDAY101999GF104991021051012501001011KA1999N+01001MD1210141+9999
0064102240999991929082618004+53083+008783FM-12+000499999V0203601N00261220001CN0200001N9+01721+99999102431ADDAY101999GF100991001001999999001001KA1999M+01891MD1810061+9999
0064102240999991929082706004+53083+008783FM-12+000499999V0201401N00261220001CN0040001N9+01281+99999102201ADDAY101999GF100991001001999999001001KA1999N+00891MD1810061+9999
0064102240999991929082718004+53083+008783FM-12+000499999V0201101N00261220001CN0200001N9+02501+99999101421ADDAY101999GF100991001001999999001001KA1999M+02611MD1810201+9999
0085102240999991929082806004+53083+008783FM-12+000499999V0201401N00261220001CN0100001N9+01501+99999101181ADDAY101999GF100991001001999999001001KA1999N+01281EQDQ01+000032APCTENQ02+000002APC3  
0064102240999991929082818004+53083+008783FM-12+000499999V0202701N00671220001CN0040001N9+02611+99999101311ADDAY111999GF104991021011012501011999KA1999M+03001MD1310141+9999
0083102240999991929082906004+53083+008783FM-12+000499999V0202501N00461220001CN0200001N9+01721+99999101861ADDAY101999GF101991999001999999011001KA1999N+01281MD1310141+9999EQDQ01+000002SCOTLC
0085102240999991929082918004+53083+008783FM-12+000499999V0202901N00261220001CN0200001N9+02111+99999101911ADDAY101999GF102991001001999999031071KA1999M+02391EQDQ01+000032APCTENQ02+000002APC3  
0064102240999991929083006004+53083+008783FM-12+000499999V0201601N00101220001CN0040001N9+01501+99999102031ADDAY111999GF106991001001999999031081KA1999N+01281MD1310061+9999
0064102240999991929083018004+53083+008783FM-12+000499999V0200701N00101220001CN0100001N9+02281+99999101761ADDAY101999GF101991001001999999001071KA1999M+02501MD1810141+9999
0085102240999991929083106004+53083+008783FM-12+000499999V0201401N00261220001CN0040001N9+01611+99999101601ADDAY101999GF101991001001999999001081KA1999N+01501EQDQ01+000032APCTENQ02+000002APC3  
0064102240999991929083118004+53083+008783FM-12+000499999V0202701N00101220001CN0100001N9+02781+99999101341ADDAY101999GF100991001001999999001001KA1999M+02891MD1610061+9999
0085102240999991929090106004+53083+008783FM-12+000499999V0201601N00101220001CN0200001N9+02111+99999101381ADDAY101999GF101991001001999999001071KA1999N+01221EQDQ01+000042APCTENQ02+000062APC3  
0085102240999991929090118004+53083+008783FM-12+000499999V0203201N00101220001CN0100001N9+02391+99999101661ADDAY101999GF101991001001999999001081KA1999M+02891EQDQ01+000042APCTENQ02+000142APC3  
0064102240999991929090206004+53083+008783FM-12+000499999V0202701N00261220001CN0100001N9+01611+99999101991ADDAY101999GF102991001001999999001081KA1999N+01501MD1310061+9999
0064102240999991929090218004+53083+008783FM-12+000499999V0203401N00261220001CN0100001N9+02001+99999102061ADDAY101999GF101991001001999999001081KA1999M+02391MD1310141+9999
0064102240999991929090306004+53083+008783FM-12+000499999V0203601N00101220001CN0040001N9+01391+99999102271ADDAY101999GF100991001001999999001001KA1999N+01111MD1110061+9999
0064102240999991929090318004+53083+008783FM-12+000499999V0200501N00261220001CN0100001N9+02111+99999101841ADDAY101999GF102991001001999999011081KA1999M+02221MD1810141+9999
0075102240999991929090406004+53083+008783FM-12+000499999V0201101N002619999999N0040001N9+01391+99999101551ADDAA199001091AY161999GF107991041001022501011081KA1999N+01221MD1710261+9999
0075102240999991929090418004+53083+008783FM-12+000499999V0200501N00261220001CN0100001N9+02501+99999101301ADDAA199000391AY101999GF102991021031017501001081KA1999M+02891MD1610061+9999
0075102240999991929090506004+53083+008783FM-12+000499999V0201801N00261220001CN0040001N9+01891+99999101411ADDAA199000391AY101999GF102991001001999999011081KA1999N+01721MD1210061+9999
0064102240999991929090518004+53083+008783FM-12+000499999V0202901N00101220001CN0040001N9+02501+99999101351ADDAY101999GF104991001001999999011011KA1999M+02721MD1510061+9999
0064102240999991929090606004+53083+008783FM-12+000499999V0202901N00261002401CN0040001N9+01721+99999101621ADDAY121999GF108991081051002501999999KA1999N+01611MD1210141+9999
0081102240999991929090618004+53083+008783FM-12+000499999V0203201N006719999999N0100001N9+01501+99999101981ADDAA199000591AY111999GF106991021061004501999999KA1999M+02001MD1110061+9999MW1801
0064102240999991929090706004+53083+008783FM-12+000499999V0202901N004619999999N0200001N9+01281+99999102401ADDAY111999GF107991021071008001999999KA1999N+01001MD1210141+9999
0085102240999991929090718004+53083+008783FM-12+000499999V0203201N00261220001CN0100001N9+01611+99999102501ADDAY111999GF104991021051004501001081KA1999M+01721EQDQ01+000032APCTENQ02+000002APC3  
0081102240999991929090806004+53083+008783FM-12+000499999V0202701N00101002401CN0020001N9+01281+99999102351ADDAA199000691AY161999GF108991081051002501999999KA1999N+01001MD1710061+9999MW1511
0064102240999991929090818004+53083+008783FM-12+000499999V0202701N00101220001CN0100001N9+02111+99999102071ADDAY101999GF102991011011012501001081KA1999M+02221MD1810141+9999
0056102240999991929090906004+53083+008783FM-12+000499999V0202501N00461220001CN0040001N9+01721+99999101501ADDGF100991001001999999001001KA1999N+01501MD1810141+9999
0085102240999991929090918004+53083+008783FM-12+000499999V0202901N00261220001CN0040001N9+02111+99999101311ADDAY111999GF106991001001999999031081KA1999M+02501EQDQ01+000032APCTENQ02+000002APC3  
0064102240999991929091006004+53083+008783FM-12+000499999V0202901N002619999999N0200001N9+01391+99999101911ADDAY111999GF107991021051012501999999KA1999N+01221MD1310201+9999
0064102240999991929091018004+53083+008783FM-12+000499999V0203601N00261007801CN0100001N9+01611+99999102301ADDAY111999GF107991071051008001001001KA1999M+01781MD1310061+9999
0064102240999991929091106004+53083+008783FM-12+000499999V0201801N00101012301CN0040001N9+01391+99999102661ADDAY111999GF107991071051012501001001KA1999N+01391MD1310141+9999
0064102240999991929091118004+53083+008783FM-12+000499999V0200701N00261220001CN0100001N9+01781+99999102401ADDAY101999GF101991001001999999001081KA1999M+01891MD1710141+9999
0069102240999991929091206004+53083+008783FM-12+000499999V0200701N00261220001CN0040001N9+01221+99999102241ADDAY101999GF100991001001999999001001KA1999N+00781EQDQ01+000002APC3  
0064102240999991929091218004+53083+008783FM-12+000499999V0201401N00261220001CN0040001N9+02501+99999101781ADDAY111999GF106991001001999999031011KA1999M+02721MD1610141+9999
0075102240999991929091306004+53083+008783FM-12+000499999V0201101N00101021001CN0040001N9+01721+99999101641ADDAA199000691AY191999GF108991061011022501011999KA1999N+01611MD1210061+9999
0075102240999991929091318004+53083+008783FM-12+000499999V0202701N00101220001CN0040001N9+02221+99999101551ADDAA199000591AY101999GF102991001001999999071999KA1999M+02281MD1510061+9999
0070102240999991929091406004+53083+008783FM-12+000499999V0202701N00101220001CN0000501N9+01391+99999101601ADDAY141999GF109991001999999999999999KA1999N+01281MD1310061+9999MW1441
0064102240999991929091418004+53083+008783FM-12+000499999V0203601N00261002401CN0040001N9+01781+99999101781ADDAY121999GF108991081051002501999999KA1999M+02001MD1310061+9999
0062102240999991929091506004+53083+008783FM-12+000499999V0209991C00001220001CN0005001N9+01391+99999101961ADDGF109991001999999999999999KA1999N+01391MD1310141+9999MW1421
0085102240999991929091518004+53083+008783FM-12+000499999V0200901N00101220001CN0040001N9+01781+99999102261ADDAY101999GF100991001001999999001001KA1999M+02001EQDQ01+000032APCTENQ02+000002APC3  
0085102240999991929091606004+53083+008783FM-12+000499999V0200901N00261002401CN0020001N9+01501+99999102421ADDAY121999GF107991071051002501001001KA1999N+01221EQDQ01+000032APCTENQ02+000002APC3  
0064102240999991929091618004+53083+008783FM-12+000499999V0200701N00261220001CN0040001N9+02001+99999102261ADDAY101999GF102991001001999999011011KA1999M+02281MD1510001+9999
0085102240999991929091706004+53083+008783FM-12+000499999V0200701N00261220001CN0040001N9+01221+99999102201ADDAY111999GF104991001001999999001091KA1999N+01111EQDQ01+000072APCTENQ02+000002APC3  
0064102240999991929091718004+53083+008783FM-12+000499999V0200901N00261220001CN0040001N9+02111+99999101801ADDAY101999GF104991001001999999011081KA1999M+02281MD1610061+9999
0064102240999991929091806004+53083+008783FM-12+000499999V0201101N00261220001CN0040001N9+01281+99999101411ADDAY111999GF106991001001999999011081KA1999N+01111MD1810061+9999
0064102240999991929091818004+53083+008783FM-12+000499999V0201401N00101220001CN0040001N9+02221+99999100931ADDAY101999GF102991001001999999011081KA1999M+02501MD1610061+9999
0064102240999991929091906004+53083+008783FM-12+000499999V0202001N002619999999N0040001N9+01391+99999100781ADDAY111999GF106991021051012501011999KA1999N+01281MD1310061+9999
0075102240999991929091918004+53083+008783FM-12+000499999V0202301N00261220001CN0040001N9+01781+99999100901ADDAA199003091AY111999GF102991021051012501001001KA1999M+02111MD1310061+9999
0081102240999991929092006004+53083+008783FM-12+000499999V0202301N006719999999N0040001N9+01391+99999100111ADDAA199000391AY181999GF108991041061004501011999KA1999N+01111MD1810201+9999MW1601
0075102240999991929092018004+53083+008783FM-12+000499999V0202701N00461220001CN0100001N9+01111+99999099671ADDAA199014091AY111999GF102991021011008001999081KA1999M+01391MD1210061+9999
0075102240999991929092106004+53083+008783FM-12+000499999V0202501N00461220001CN0200001N9+01001+99999100711ADDAA199000591AY111999GF104991021051008001011999KA1999N+00781MD1210141+9999
0075102240999991929092118004+53083+008783FM-12+000499999V0202301N00671002401CN0040001N9+01111+99999100151ADDAA199002091AY161999GF108991081061002501999999KA1999M+01391MD1810341+9999
0075102240999991929092206004+53083+008783FM-12+000499999V0202901N00671220001CN0200001N9+01111+99999101051ADDAA199000591AY101999GF104991021071008001999001KA1999N+00391MD1310261+9999
0075102240999991929092218004+53083+008783FM-12+000499999V0202701N00101004501CN0200001N9+01221+99999101721ADDAA199000591AY181999GF107991071061004501001001KA1999M+01501MD1310201+9999
0064102240999991929092306004+53083+008783FM-12+000499999V0202701N00101004501CN0040001N9+01221+99999102231ADDAY121999GF107991071051004501001001KA1999N+01001MD1210201+9999
0075102240999991929092318004+53083+008783FM-12+000499999V0209991C000019999999N0040001N9+01501+99999102561ADDAA199000691AY161999GF108991041051004501999999KA1999M+01611MD1310061+9999
0075102240999991929092406004+53083+008783FM-12+000499999V0201401N00101012301CN0020001N9+01281+99999102941ADDAA199004091AY111999GF107991071051012501001001KA1999N+01221MD1310141+9999
0064102240999991929092418004+53083+008783FM-12+000499999V0200701N00261220001CN0100001N9+01501+99999103121ADDAY101999GF101991001001999999001081KA1999M+01781MD1310061+9999
0064102240999991929092506004+53083+008783FM-12+000499999V0201401N00101220001CN0040001N9+00891+99999103601ADDAY101999GF100991001001999999001001KA1999N+00391MD1310141+9999
0085102240999991929092518004+53083+008783FM-12+000499999V0201401N00101220001CN0100001N9+01501+99999103641ADDAY101999GF100991001001999999001001KA1999M+01611EQDQ01+000032APCTENQ02+000002APC3  
0064102240999991929092606004+53083+008783FM-12+000499999V0201401N00261220001CN0020001N9+00721+99999103561ADDAY101999GF100991001001999999001001KA1999N+00501MD1110061+9999
0064102240999991929092618004+53083+008783FM-12+000499999V0209991C00001220001CN0040001N9+01611+99999103161ADDAY101999GF102991001001999999001081KA1999M+01781MD1810061+9999
0064102240999991929092706004+53083+008783FM-12+000499999V0201801N00101220001CN0020001N9+00721+99999102761ADDAY101999GF101991001001999999001081KA1999N+00611MD1710061+9999
0064102240999991929092718004+53083+008783FM-12+000499999V0201801N00261220001CN0040001N9+01891+99999102471ADDAY101999GF101991001001999999001081KA1999M+02221MD1610061+9999
0085102240999991929092806004+53083+008783FM-12+000499999V0201801N00261220001CN0020001N9+00891+99999102361ADDAY101999GF104991001001999999001081KA1999N+00781EQDQ01+000012APCTENQ02+000002APC3  
0064102240999991929092818004+53083+008783FM-12+000499999V0201801N00261220001CN0040001N9+02001+99999102101ADDAY101999GF101991001001999999001081KA1999M+02281MD1610061+9999
0085102240999991929092906004+53083+008783FM-12+000499999V0201801N00101220001CN0040001N9+01111+99999101871ADDAY101999GF101991001001999999001011KA1999N+01001EQDQ01+000032APCTENQ02+000002APC3  
0085102240999991929092918004+53083+008783FM-12+000499999V0202301N002619999999N0100001N9+01781+99999101831ADDAY111999GF106991021011008001001081KA1999M+02001EQDQ01+000032APCTENQ02+000002APC3  
0102102240999991929093006004+53083+008783FM-12+000499999V0202001N00461007801CN0020001N9+01391+99999101751ADDAA199000391AY161999GF108991081061008001999999KA1999N+01221MW1631EQDQ01+000022APCTENQ02+000002APC3  
0096102240999991929093018004+53083+008783FM-12+000499999V0202001N00461220001CN0100001N9+01611+99999101581ADDAA199009091AY111999GF104991041051004501011999KA1999M+01721EQDQ01+000032APCTENQ02+000002APC3  
0075102240999991929100106004+53083+008783FM-12+000499999V0202301N006719999999N0100001N9+01501+99999100751ADDAA199005091AY181999GF108991041061004501011999KA1999N+01281MD1710061+9999
0094102240999991929100118004+53083+008783FM-12+000499999V0203201N00101220001CN0100001N9+01221+99999101411ADDAA199000391AY101999GF101991999001999999011001KA1999M+01721MD1310201+9999EQDQ01+000002SCOTLC
0081102240999991929100206004+53083+008783FM-12+000499999V0201801N006719999999N0100001N9+01221+99999100211ADDAA199001091AY161999GF108991041061002501999999KA1999N+00781MD1710401+9999MW1601
0075102240999991929100218004+53083+008783FM-12+000499999V0202301N002619999999N0100001N9+01281+99999100371ADDAA199004091AY111999GF107991041051008001011999KA1999M+01721MD1210201+9999
0102102240999991929100306004+53083+008783FM-12+000499999V0202001N006719999999N0100001N9+01221+99999100311ADDAA199000691AY161999GF108991021061012501999999KA1999N+01221MW1601EQDQ01+000022APCTENQ02+000002APC3  
0075102240999991929100318004+53083+008783FM-12+000499999V0202001N004619999999N0100001N9+01221+99999100331ADDAA199007091AY161999GF108991041061004501999999KA1999M+01781MD1710141+9999
0081102240999991929100406004+53083+008783FM-12+000499999V0202001N004619999999N0040001N9+01111+99999100891ADDAA199000691AY161999GF108991011061001501011999KA1999N+01111MD1210141+9999MW1501
0081102240999991929100418004+53083+008783FM-12+000499999V0201801N00101004501CN0040001N9+01281+99999100891ADDAA199001091AY161999GF108991081061004501999999KA1999M+01501MD1990061+9999MW1521
0075102240999991929100506004+53083+008783FM-12+000499999V0209991C000019999999N0040001N9+00891+99999100831ADDAA199020091AY191999GF108991041051004501011999KA1999N+00781MD1210061+9999
0096102240999991929100518004+53083+008783FM-12+000499999V0202001N00101220001CN0100001N9+01221+99999101021ADDAA199000691AY111999GF104991011051012501011999KA1999M+01501EQDQ01+000032APCTENQ02+000002APC3  
0081102240999991929100606004+53083+008783FM-12+000499999V0201401N00461002401CN0040001N9+01111+99999100271ADDAA199000691AY161999GF108991081061002501999999KA1999N+01001MD1710201+9999MW1531
0096102240999991929100618004+53083+008783FM-12+000499999V0201401N009319999999N0100001N9+01611+99999099811ADDAA199001091AY161999GF108991041061002501999999KA1999M+01721EQDQ01+000022APCTENQ02+000002APC3  
0064102240999991929100706004+53083+008783FM-12+000499999V0202001N00931220001CN0200001N9+01781+99999100791ADDAY101999GF100991001001999999001001KA1999N+01001MD1310261+9999
0064102240999991929100718004+53083+008783FM-12+000499999V0201801N00461220001CN0040001N9+01221+99999101411ADDAY101999GF100991001001999999001001KA1999M+01501MD1310141+9999
0064102240999991929100806004+53083+008783FM-12+000499999V0201401N00671220001CN0040001N9+00611+99999101021ADDAY101999GF104991001001999999031011KA1999N+00611MD1810201+9999
0064102240999991929100818004+53083+008783FM-12+000499999V0201601N002619999999N0040001N9+01391+99999100191ADDAY121999GF108991041051008001999999KA1999M+01501MD1610141+9999
0096102240999991929100906004+53083+008783FM-12+000499999V0201401N009319999999N0100001N9+01221+99999099791ADDAA199001091AY161999GF107991041061002501999999KA1999N+01221EQDQ01+000072APCTENQ02+000002APC3  
0081102240999991929100918004+53083+008783FM-12+000499999V0202501N00931002401CN0040001N9+00891+99999100541ADDAA199007091AY161999GF108991081061002501999999KA1999M+01391MD1210201+9999MW1611
0075102240999991929101006004+53083+008783FM-12+000499999V0202701N009319999999N0200001N9+00891+99999101431ADDAA199005091AY111999GF106991021061004501999999KA1999N+00781MD1310341+9999
0075102240999991929101018004+53083+008783FM-12+000499999V0202701N006719999999N0040001N9+01221+99999101801ADDAA199000591AY111999GF107991041051004501999999KA1999M+01611MD1310061+9999
0081102240999991929101106004+53083+008783FM-12+000499999V0202501N00931002401CN0040001N9+01221+99999101411ADDAA199001091AY161999GF108991081061002501999999KA1999N+01111MD1710141+9999MW1511
0075102240999991929101118004+53083+008783FM-12+000499999V0202701N00671220001CN0100001N9+01221+99999101521ADDAA199000391AY181999GF102991011051008001011999KA1999M+01611MD1210141+9999
0075102240999991929101206004+53083+008783FM-12+000499999V0202701N00671007801CN0100001N9+01001+99999101961ADDAA199000691AY111999GF106991061051008001999999KA1999N+00891MD1310141+9999
0064102240999991929101218004+53083+008783FM-12+000499999V0202701N00461220001CN0100001N9+01111+99999102391ADDAY101999GF102991011051008001011999KA1999M+01391MD1210141+9999
0085102240999991929101306004+53083+008783FM-12+000499999V0202301N00261015001CN0100001N9+01221+99999102501ADDAY111999GF106991061051017501999999KA1999N+01001EQDQ01+000042APCTENQ02+000062APC3  
0085102240999991929101318004+53083+008783FM-12+000499999V0202301N00261007801CN0100001N9+01391+99999102721ADDAY111999GF107991071051008001999999KA1999M+01611EQDQ01+000032APCTENQ02+000002APC3  
0085102240999991929101406004+53083+008783FM-12+000499999V0201801N002619999999N0040001N9+01001+99999102741ADDAY111999GF107991041051012501031999KA1999N+00721EQDQ01+000072APCTENQ02+000002APC3  
0085102240999991929101418004+53083+008783FM-12+000499999V0202501N00461004501CN0100001N9+01391+99999102661ADDAY111999GF108991081051004501999999KA1999M+01611EQDQ01+000072APCTENQ02+000002APC3  
0070102240999991929101506004+53083+008783FM-12+000499999V0203201N00261004501CN0040001N9+01281+99999102841ADDAY121999GF107991061051004501999999KA1999N+01111MD1310201+9999MW1501
0064102240999991929101518004+53083+008783FM-12+000499999V0203601N00101220001CN0100001N9+01111+99999102821ADDAY111999GF100991001001999999001001KA1999M+01501MD1710061+9999
0064102240999991929101606004+53083+008783FM-12+000499999V0201401N00461220001CN0040001N9+00781+99999102341ADDAY111999GF102991001001999999001091KA1999N+00721MD1510141+9999
0064102240999991929101618004+53083+008783FM-12+000499999V0201401N00261220001CN0100001N9+01281+99999101511ADDAY111999GF106991001001999999031999KA1999M+01611MD1610141+9999
0064102240999991929101706004+53083+008783FM-12+000499999V0202501N00461012301CN0100001N9+01221+99999101341ADDAY111999GF107991071051012501999999KA1999N+01111MD1310061+9999
0064102240999991929101718004+53083+008783FM-12+000499999V0202301N004619999999N0100001N9+01281+99999101411ADDAY111999GF107991021051017501031999KA1999M+01501MD1110061+9999
0064102240999991929101806004+53083+008783FM-12+000499999V0202001N00461002401CN0040001N9+01111+99999101091ADDAY121999GF108991081051002501999999KA1999N+01001MD1610061+9999
0064102240999991929101818004+53083+008783FM-12+000499999V0201801N00261012301CN0040001N9+01281+99999100741ADDAY111999GF108991081051012501999999KA1999M+01501MD1810061+9999
0064102240999991929101906004+53083+008783FM-12+000499999V0202701N00101220001CN0040001N9+00891+99999100421ADDAY111999GF107991001001999999071999KA1999N+00781MD1210061+9999
0064102240999991929101918004+53083+008783FM-12+000499999V0203601N00101220001CN0100001N9+01111+99999100471ADDAY111999GF108991001001999999001081KA1999M+01281MD1310061+9999
0064102240999991929102006004+53083+008783FM-12+000499999V0202701N001019999999N0040001N9+00391+99999100421ADDAY111999GF106991021051012501031999KA1999N+00281MD1810061+9999
0064102240999991929102018004+53083+008783FM-12+000499999V0201801N00261220001CN0200001N9+00891+99999100331ADDAY101999GF100991001001999999001001KA1999M+01221MD1310061+9999
0056102240999991929102106004+53083+008783FM-12+000499999V0200901N00101220001CN0010001N9+00221+99999100991ADDGF106991001001999999001081KA1999N+00221MD1310141+9999
0085102240999991929102118004+53083+008783FM-12+000499999V0201401N00261220001CN0020001N9+00891+99999101211ADDAY101999GF100991001001999999001001KA1999M+01111EQDQ01+000032APCTENQ02+000002APC3  
0062102240999991929102206004+53083+008783FM-12+000499999V0201801N00261220001CN0005001N9+00221+99999101021ADDGF104991001001999999031091KA1999N+00221MD1610061+9999MW1441
0085102240999991929102218004+53083+008783FM-12+000499999V0201801N00261220001CN0040001N9+00891+99999100811ADDAY101999GF102991001001999999011999KA1999M+01111EQDQ01+000062APCTENQ02+000002APC3  
0096102240999991929102306004+53083+008783FM-12+000499999V0202501N00261015001CN0020001N9+00721+99999100581ADDAA199000691AY161999GF107991071051017501999999KA1999N+00501EQDQ01+000072APCTENQ02+000002APC3  
0085102240999991929102318004+53083+008783FM-12+000499999V0201801N00461012301CN0040001N9+00891+99999100581ADDAY111999GF107991061051012501011999KA1999M+01111EQDQ01+000062APCTENQ02+000002APC3  
0064102240999991929102406004+53083+008783FM-12+000499999V0201801N00931012301CN0040001N9+00891+99999100311ADDAY121999GF108991081051012501999999KA1999N+00611MD1610061+9999
0064102240999991929102418004+53083+008783FM-12+000499999V0201601N00671220001CN0040001N9+01111+99999099911ADDAY101999GF101991001001999999011999KA1999M+01391MD1810061+9999
0075102240999991929102506004+53083+008783FM-12+000499999V0201801N01231012301CN0100001N9+01111+99999099331ADDAA199000691AY161999GF108991081001012501011999KA1999N+00781MD1310061+9999
0064102240999991929102518004+53083+008783FM-12+000499999V0201801N00261220001CN0100001N9+00891+99999100051ADDAY101999GF102991001001999999011999KA1999M+01221MD1210141+9999
0064102240999991929102606004+53083+008783FM-12+000499999V0201601N001019999999N0020001N9+00611+99999099891ADDAY121999GF108991011051008001011999KA1999N+00501MD1410001+9999
0064102240999991929102618004+53083+008783FM-12+000499999V0202701N00261220001CN0100001N9+00781+99999099991ADDAY101999GF101991001001999999011999KA1999M+01001MD1310141+9999
0064102240999991929102706004+53083+008783FM-12+000499999V0202501N004619999999N0100001N9+00501+99999100221ADDAY111999GF106991011051012501011999KA1999N+00281MD1310141+9999
0081102240999991929102718004+53083+008783FM-12+000499999V0201801N015419999999N0040001N9+00611+99999100071ADDAA199000391AY161999GF108991041061002501999999KA1999M+00891MD1710061+9999MW1611
0081102240999991929102806004+53083+008783FM-12+000499999V0202701N002619999999N0100001N9+00501+99999101051ADDAA199004091AY181999GF106991021061008001999999KA1999N+00501MD1310261+9999MW1161
0075102240999991929102818004+53083+008783FM-12+000499999V0201801N00931220001CN0100001N9+00721+99999100831ADDAA199000391AY111999GF108991001001999999011999KA1999M+01001MD1810201+9999
0075102240999991929102906004+53083+008783FM-12+000499999V0201801N00671002401CN0040001N9+00721+99999099391ADDAA199005091AY161999GF108991081051002501999999KA1999N+00501MD1810261+9999
0075102240999991929102918004+53083+008783FM-12+000499999V0202301N00931004501CN0100001N9+01001+99999099141ADDAA199008091AY111999GF107991071051004501999999KA1999M+01001MD1310201+9999
0081102240999991929103006004+53083+008783FM-12+000499999V0202501N00461002401CN0040001N9+00721+99999099691ADDAA199000591AY161999GF108991081061002501999999KA1999N+00501MD1310201+9999MW1611
0075102240999991929103018004+53083+008783FM-12+000499999V0203601N004619999999N0100001N9+00781+99999100811ADDAA199001091AY121999GF108991041051004501011999KA1999M+01001MD1310401+9999
0064102240999991929103106004+53083+008783FM-12+000499999V0203601N00461220001CN0100001N9+00611+99999102111ADDAY101999GF102991021051008001999999KA1999N+00611MD1310341+9999
0064102240999991929103118004+53083+008783FM-12+000499999V0200201N00461012301CN0100001N9+00721+99999102701ADDAY111999GF106991061051012501999999KA1999M+00891MD1310201+9999
0064102240999991929110106004+53083+008783FM-12+000499999V0200201N00261012301CN0040001N9+00391+99999102951ADDAY111999GF107991071051012501001001KA1999N+00391MD1310141+9999
0064102240999991929110118004+53083+008783FM-12+000499999V0200201N00261220001CN0040001N9+00501+99999102951ADDAY111999GF100991001001999999001001KA1999M+00781MD1110061+9999
0085102240999991929110206004+53083+008783FM-12+000499999V0200501N00261220001CN0040001N9+00111+99999102901ADDAY111999GF106991001001999999071999KA1999N+00111EQDQ01+000022APCTENQ02+000002APC3  
0064102240999991929110218004+53083+008783FM-12+000499999V0201101N00101220001CN0040001N9+00501+99999102601ADDAY111999GF100991001001999999001001KA1999M+00721MD1610061+9999
0064102240999991929110306004+53083+008783FM-12+000499999V0201801N00671001501CN0020001N9+00281+99999102061ADDAY121999GF108991081051001501999999KA1999N+00221MD1610061+9999
0075102240999991929110318004+53083+008783FM-12+000499999V0202701N00461004501CN0100001N9+00721+99999102101ADDAA199001091AY161999GF106991061051004501001001KA1999M+00721MD1310141+9999
0075102240999991929110406004+53083+008783FM-12+000499999V0202701N00261220001CN0100001N9+00281+99999102721ADDAA199000691AY161999GF102991011051017501001011KA1999N+00221MD1310141+9999
0085102240999991929110418004+53083+008783FM-12+000499999V0202001N00261220001CN0100001N9+00721+99999102791ADDAY101999GF102991001001999999011999KA1999M+01001EQDQ01+000032APCTENQ02+000002APC3  
0064102240999991929110506004+53083+008783FM-12+000499999V0201801N00931004501CN0020001N9+00501+99999102391ADDAY121999GF108991081051004501999999KA1999N+00391MD1810061+9999
0064102240999991929110518004+53083+008783FM-12+000499999V0201801N00461220001CN0100001N9+00721+99999101911ADDAY101999GF100991001001999999001001KA1999M+01001MD1810141+9999
0064102240999991929110606004+53083+008783FM-12+000499999V0201401N00461220001CN0040001N9+00111+99999101261ADDAY101999GF100991001001999999001001KA1999N+00001MD1810061+9999
0085102240999991929110618004+53083+008783FM-12+000499999V0201401N00461220001CN0040001N9+00501+99999100931ADDAY101999GF100991001001999999001001KA1999M+00781EQDQ01+000062APCTENQ02+000002APC3  
0064102240999991929110706004+53083+008783FM-12+000499999V0201801N00261004501CN0010001N9+00281+99999100911ADDAY121999GF108991081051004501999999KA1999N+00111MD1310061+9999
0075102240999991929110718004+53083+008783FM-12+000499999V0202701N002619999999N0040001N9+00721+99999101431ADDAA199000691AY111999GF106991021051012501011999KA1999M+00781MD1310201+9999
0064102240999991929110806004+53083+008783FM-12+000499999V0201601N00671220001CN0020001N9+00391+99999101251ADDAY111999GF104991001001999999011011KA1999N+00221MD1810201+9999
0081102240999991929110818004+53083+008783FM-12+000499999V0201801N00671004501CN0040001N9+00781+99999100531ADDAA199002091AY161999GF108991061061004501021001KA1999M+00891MD1610141+9999MW1511
0094102240999991929110906004+53083+008783FM-12+000499999V0202701N00261220001CN0040001N9+00611+99999101151ADDAA199001091AY111999GF104991999001022501031001KA1999N+00501MD1310261+9999EQDQ01+000002SCOTLC
0064102240999991929110918004+53083+008783FM-12+000499999V0202301N00671220001CN0100001N9+00611+99999101701ADDAY101999GF102991011011012501011999KA1999M+01001MD1310201+9999
0085102240999991929111006004+53083+008783FM-12+000499999V0201601N00671220001CN0040001N9+00281+99999101631ADDAY111999GF102991001001999999001081KA1999N+00221EQDQ01+000022APCTENQ02+000002APC3  
0085102240999991929111018004+53083+008783FM-12+000499999V0201801N006719999999N0100001N9+00721+99999101011ADDAY111999GF106991041071004501999999KA1999M+00781EQDQ01+000082APCTENQ02+000002APC3  
0064102240999991929111106004+53083+008783FM-12+000499999V0201801N00671220001CN0100001N9+00281+99999101791ADDAY101999GF100991001001999999001001KA1999N+00281MD1310141+9999
0064102240999991929111118004+53083+008783FM-12+000499999V0201801N01541220001CN0200001N9+00721+99999101071ADDAY111999GF108991001001999999011999KA1999M+00781MD1810061+9999
0081102240999991929111206004+53083+008783FM-12+000499999V0201801N02261007801CN0100001N9+00891+99999098872ADDAA199002091AY161999GF108991061061008001999999KA1999N+00721MD1810401+9999MW1631
0075102240999991929111218004+53083+008783FM-12+000499999V0202001N00671220001CN0200001N9+00611+99999099701ADDAA199001091AY101999GF101991011051008001001001KA1999M+01111MD1110261+9999
0085102240999991929111306004+53083+008783FM-12+000499999V0201801N00671002401CN0040001N9+00281+99999100071ADDAY111999GF107991071051002501999999KA1999N+00221EQDQ01+000032APCTENQ02+000002APC3  
0064102240999991929111318004+53083+008783FM-12+000499999V0201101N00461220001CN0100001N9+00501+99999099991ADDAY101999GF102991001001999999001081KA1999M+00781MD1110061+9999
0093102240999991929111406004+53083+008783FM-12+000499999V0200901N00461220001CN0020001N9+00221+99999099751ADDGF106991999001999999011001KA1999N+00221EQDQ01+000002SCOTLCQ02+000082APCTENQ03+000002APC3  
0085102240999991929111418004+53083+008783FM-12+000499999V0209991C00001002401CN0040001N9+00391+99999099671ADDAY121999GF108991081051002501999999KA1999M+00391EQDQ01+000062APCTENQ02+000002APC3  
0081102240999991929111506004+53083+008783FM-12+000499999V0202701N00101000601CN0005001N9+00281+99999099661ADDAA199000691AY181999GF108991081051000751999999KA1999N+00221MD1310061+9999MW1511
0075102240999991929111518004+53083+008783FM-12+000499999V0202301N00261004501CN0040001N9+00391+99999100051ADDAA199001091AY121999GF106991061051004501001001KA1999M+00501MD1310141+9999
0064102240999991929111606004+53083+008783FM-12+000499999V0201401N00261220001CN0005001N9+00111+99999100101ADDAY101999GF100991001001999999001001KA1999N+00001MD1810061+9999
0064102240999991929111618004+53083+008783FM-12+000499999V0200901N00671220001CN0040001N9+00391+99999099511ADDAY111999GF108991001001999999031999KA1999M+00391MD1710061+9999
0075102240999991929111706004+53083+008783FM-12+000499999V0200501N00261001501CN0010001N9+00281+99999099671ADDAA199001091AY121999GF108991081061001501999999KA1999N+00221MD1310201+9999
0075102240999991929111718004+53083+008783FM-12+000499999V0209991C00001002401CN0020001N9+00281+99999100411ADDAA199000691AY121999GF108991081061002501999999KA1999M+01281MD1310261+9999
0081102240999991929111806004+53083+008783FM-12+000499999V0203601N00261004501CN0020001N9+00391+99999101101ADDAA199000591AY161999GF108991071061004501999999KA1999N+00281MD1310261+9999MW1511
0073102240999991929111818004+53083+008783FM-12+000499999V0203401N00101220001CN0010001N9+00281+99999101861ADDAA199000691GF100991001001999999001001KA1999M+00611MD1210141+9999MW1461
0064102240999991929111906004+53083+008783FM-12+000499999V0201801N00461220001CN0005001N9+00111+99999101981ADDAY111999GF106991001001999999071999KA1999N-00111MD1510061+9999
0064102240999991929111918004+53083+008783FM-12+000499999V0201601N00671004501CN0040001N9+00501+99999101511ADDAY121999GF108991081051004501999999KA1999M+00501MD1710141+9999
0064102240999991929112006004+53083+008783FM-12+000499999V0201401N00101220001CN0040001N9+00281+99999101501ADDAY101999GF101991001001999999031999KA1999N+00221MD1310061+9999
0064102240999991929112018004+53083+008783FM-12+000499999V0201401N00671220001CN0200001N9+00501+99999101421ADDAY101999GF100991001001999999001001KA1999M+01001MD1810061+9999
0085102240999991929112106004+53083+008783FM-12+000499999V0201401N00261220001CN0020001N9+00111+99999101331ADDAY101999GF100991001001999999001001KA1999N+00001EQDQ01+000032APCTENQ02+000002APC3  
0085102240999991929112118004+53083+008783FM-12+000499999V0201401N00261220001CN0040001N9+00501+99999101301ADDAY101999GF100991001001999999001001KA1999M+00611EQDQ01+000032APCTENQ02+000002APC3  
0085102240999991929112206004+53083+008783FM-12+000499999V0201401N00261220001CN0020001N9+00111+99999101381ADDAY101999GF100991001001999999001001KA1999N+00111EQDQ01+000032APCTENQ02+000002APC3  
0064102240999991929112218004+53083+008783FM-12+000499999V0201401N00461220001CN0040001N9+00721+99999101191ADDAY101999GF100991001001999999001001KA1999M+00781MD1990061+9999
0085102240999991929112306004+53083+008783FM-12+000499999V0201601N004619999999N0040001N9+00391+99999100981ADDAY111999GF106991041051017501031999KA1999N+00221EQDQ01+000032APCTENQ02+000002APC3  
0101102240999991929112318004+53083+008783FM-12+000499999V0201401N00461220001CN0040001N9+00781+99999101091ADDAY101999GF102991999001999999011001KA1999M+01111EQDQ01+000002SCOTLCQ02+000032APCTENQ03+000002APC3  
0096102240999991929112406004+53083+008783FM-12+000499999V0201401N00261004501CN0040001N9+00781+99999101031ADDAA199002091AY161999GF108991061061004501011999KA1999N+00721EQDQ01+000032APCTENQ02+000002APC3  
0075102240999991929112418004+53083+008783FM-12+000499999V0201801N00461004501CN0100001N9+00891+99999101061ADDAA199001091AY121999GF108991081051004501999999KA1999M+01001MD1310141+9999
0064102240999991929112506004+53083+008783FM-12+000499999V0201801N00261220001CN0020001N9+00501+99999101551ADDAY101999GF102991001001999999001081KA1999N+00391MD1810061+9999
0075102240999991929112518004+53083+008783FM-12+000499999V0201401N006719999999N0100001N9+00891+99999100831ADDAA199000691AY121999GF108991041061008001999999KA1999M+01001MD1810141+9999
0075102240999991929112606004+53083+008783FM-12+000499999V0202001N006719999999N0040001N9+00891+99999100871ADDAA199001091AY181999GF106991041051012501011999KA1999N+00781MD1310141+9999
0069102240999991929112618004+53083+008783FM-12+000499999V0201801N00461220001CN0040001N9+01001+99999101071ADDAY111999GF104991021071008001999999KA1999M+01111EQDQ01+000002APC3  
0081102240999991929112706004+53083+008783FM-12+000499999V0202301N00671002401CN0040001N9+00721+99999101171ADDAA199001091AY161999GF108991071061002501999999KA1999N+00721MD1310061+9999MW1601
0075102240999991929112718004+53083+008783FM-12+000499999V0202301N00461220001CN0100001N9+00611+99999101461ADDAA199000391AY111999GF106991001001999999071011KA1999M+01001MD1310061+9999
0070102240999991929112806004+53083+008783FM-12+000499999V0201801N00261000151CN0000501N9+00221+99999101461ADDAY141999GF109991091999000251999999KA1999N+00111MD1810141+9999MW1461
0081102240999991929112818004+53083+008783FM-12+000499999V0201401N00931002401CN0040001N9+00611+99999100471ADDAA199001091AY161999GF108991081061002501999999KA1999M+00611MD1810341+9999MW1631
0102102240999991929112906004+53083+008783FM-12+000499999V0202301N01231001501CN0100001N9+01111+99999099901ADDAA199006091AY161999GF107991071061001501001001KA1999N+00721MW1601EQDQ01+000032APCTENQ02+000002APC3  
0096102240999991929112918004+53083+008783FM-12+000499999V0202301N004619999999N0100001N9+01111+99999100191ADDAA199000591AY121999GF108991041061012501011999KA1999M+01221EQDQ01+000032APCTENQ02+000002APC3  
0075102240999991929113006004+53083+008783FM-12+000499999V0201801N00261012301CN0040001N9+01001+99999100071ADDAA199001091AY181999GF107991061051012501011999KA1999N+01001MD1610061+9999
0064102240999991929113018004+53083+008783FM-12+000499999V0201601N004619999999N0100001N9+01111+99999099691ADDAY181999GF108991041051022501011999KA1999M+01281MD1710141+9999
0075102240999991929120106004+53083+008783FM-12+000499999V0202301N006719999999N0100001N9+01501+99999100751ADDAA199005091AY181999GF108991041061004501011999KA1999N+00781MD1710061+9999
0075102240999991929120118004+53083+008783FM-12+000499999V0201801N00261004501CN0100001N9+01001+99999099671ADDAA199002091AY121999GF108991081051004501999999KA1999M+01111MD1310061+9999
0067102240999991929120206004+53083+008783FM-12+000499999V0202701N00461000601CN0020001N9+00891+99999100421ADDAA199001091GF108991081051000751999999KA1999N+00781MD1310261+9999
0064102240999991929120218004+53083+008783FM-12+000499999V0201601N00671220001CN0100001N9+00721+99999100301ADDAY111999GF100991001001999999001001KA1999M+01001MD1810141+9999
0075102240999991929120306004+53083+008783FM-12+000499999V0202001N00461220001CN0020001N9+00781+99999100581ADDAA199005091AY161999GF104991021051004501011999KA1999N+00721MD1310401+9999
0075102240999991929120318004+53083+008783FM-12+000499999V0201401N004619999999N0040001N9+00781+99999101061ADDAA199000691AY121999GF108991041051004501999999KA1999M+00891MD1210061+9999
0096102240999991929120406004+53083+008783FM-12+000499999V0201401N004619999999N0020001N9+00781+99999100981ADDAA199001091AY181999GF108991041061004501011999KA1999N+00721EQDQ01+000032APCTENQ02+000002APC3  
0096102240999991929120418004+53083+008783FM-12+000499999V0201801N006719999999N0040001N9+01221+99999100751ADDAA199004091AY161999GF108991041061001501999999KA1999M+01221EQDQ01+000072APCTENQ02+000002APC3  
0075102240999991929120506004+53083+008783FM-12+000499999V0201801N00461220001CN0040001N9+00781+99999100951ADDAA199004091AY181999GF100991001001999999001001KA1999N+00781MD1710141+9999
0064102240999991929120518004+53083+008783FM-12+000499999V0201401N00931220001CN0100001N9+01111+99999099711ADDAY111999GF107991001001999999001081KA1999M+01221MD1810261+9999
0083102240999991929120606004+53083+008783FM-12+000499999V0201801N00461220001CN0000501N9+00891+99999099911ADDAY111999GF107991999001999999011001KA1999N+00781MD1310261+9999EQDQ01+000002SCOTLC
0069102240999991929120618004+53083+008783FM-12+000499999V0201801N004619999999N0040001N9+00891+99999100171ADDAY111999GF199999041061999999999999KA1999M+01111EQDQ01+000002APC3  
0064102240999991929120706004+53083+008783FM-12+000499999V0201801N01541007801CN0100001N9+00781+99999099011ADDAY111999GF106991061051008001031999KA1999N+00611MD1810201+9999
0070102240999991929120718004+53083+008783FM-12+000499999V0202001N019019999999N0100001N9+01001+99999099251ADDAY111999GF108991041061008001999999KA1999M+01001MD1310261+9999MW1501
0080102240999991929120806004+53083+008783FM-12+000499999V0201801N012319999999N0100001N9+00501+99999100701ADDAA199000391AY111999GF107991021051008001011999KA1999N+00501EQDQ01+000002APC3  
0075102240999991929120818004+53083+008783FM-12+000499999V0201801N01541007801CN0100001N9+00891+99999099821ADDAA199000391AY121999GF108991081051008001999999KA1999M+00891MD1810201+9999
0075102240999991929120906004+53083+008783FM-12+000499999V0202301N01231220001CN0200001N9+00611+99999100381ADDAA199001091AY111999GF107991001001999999011081KA1999N+00501MD1310261+9999
0081102240999991929120918004+53083+008783FM-12+000499999V0201801N026819999999N0200001N9+00611+99999099331ADDAA199002091AY161999GF108991041061004501999999KA1999M+00611MD1810061+9999MW1631
0075102240999991929121006004+53083+008783FM-12+000499999V0202501N01231220001CN0000501N9+00501+99999099511ADDAA199002091AY111999GF104991041051004501001001KA1999N+00501MD1310261+9999
0075102240999991929121018004+53083+008783FM-12+000499999V0202501N00931220001CN0200001N9+00611+99999100461ADDAA199001091AY111999GF102991021051008001001001KA1999M+00611MD1310261+9999
0100102240999991929121106004+53083+008783FM-12+000499999V0201601N00931002401CN0040001N9+00391+99999099991ADDAA199001091AY161999GF108991081061002501999999KA1999N+00281MD1810542+9999MW1611EQDQ01+000542APC3  
0081102240999991929121206004+53083+008783FM-12+000499999V0202701N012319999999N0200001N9+00611+99999099971ADDAA199007091AY191999GF107991011081012501999999KA1999N+00391MD1510141+9999MW1611
0081102240999991929121218004+53083+008783FM-12+000499999V0202701N02681004501CN0100001N9+00721+99999099831ADDAA199001091AY161999GF108991081061004501999999KA1999M+01001MD1710141+9999MW1631
0075102240999991929121306004+53083+008783FM-12+000499999V0202501N00461220001CN0100001N9+00721+99999101861ADDAA199008091AY111999GF104991021051008001999999KA1999N+00611MD1310261+9999
0081102240999991929121318004+53083+008783FM-12+000499999V0202701N00461002401CN0100001N9+00891+99999102241ADDAA199000391AY161999GF108991081061002501999999KA1999M+00891MD1210061+9999MW1511
0081102240999991929121406004+53083+008783FM-12+000499999V0202501N00931002401CN0040001N9+01001+99999102001ADDAA199000691AY161999GF108991061061002501999999KA1999N+00781MD1210061+9999MW1501
0081102240999991929121418004+53083+008783FM-12+000499999V0202701N00461001501CN0100001N9+01221+99999101761ADDAA199002091AY161999GF108991081061001501999999KA1999M+01221MD1710061+9999MW1511
0075102240999991929121506004+53083+008783FM-12+000499999V0202701N004619999999N0040001N9+00781+99999102071ADDAA199006091AY111999GF106991041051004501031999KA1999N+00781MD1310141+9999
0064102240999991929121518004+53083+008783FM-12+000499999V0202701N00461220001CN0100001N9+00721+99999102311ADDAY111999GF104991041011008001001001KA1999M+01221MD1310061+9999
0096102240999991929121606004+53083+008783FM-12+000499999V0202701N00101220001CN0100001N9+00281+99999102641ADDAA199000691AY161999GF102991011031012501011001KA1999N+00281EQDQ01+000032APCTENQ02+000002APC3  
0075102240999991929121618004+53083+008783FM-12+000499999V0202701N00671220001CN0100001N9+00501+99999102821ADDAA199000591AY111999GF104991021051008001001081KA1999M+00611MD1210061+9999
0081102240999991929121706004+53083+008783FM-12+000499999V0203201N004619999999N0040001N9+00391+99999102661ADDAA199006091AY181999GF106991041081002501999999KA1999N+00281MD1610061+9999MW1621
0075102240999991929121718004+53083+008783FM-12+000499999V0203401N00461220001CN0040001N9+00281+99999999999ADDAA199003091AY101999GF100991001001999999001001KA1999M+00501MD1310261+9999
0062102240999991929121806004+53083+008783FM-12+000499999V0209991C00001220001CN0010001N9-00111+99999103871ADDGF100991001001999999001001KA1999N-00221MD1310141+9999MW1281
0085102240999991929121818004+53083+008783FM-12+000499999V0201801N00261220001CN0040001N9+00001+99999104021ADDAY101999GF100991001001999999001001KA1999M+00221EQDQ01+000032APCTENQ02+000002APC3  
0064102240999991929121906004+53083+008783FM-12+000499999V0202301N00261220001CN0040001N9-00281+99999103861ADDAY101999GF100991001001999999001001KA1999N-00391MD1810061+9999
0064102240999991929121918004+53083+008783FM-12+000499999V0201801N00101220001CN0040001N9-00111+99999103461ADDAY101999GF100991001001999999001001KA1999M+00001MD1810201+9999
0062102240999991929122006004+53083+008783FM-12+000499999V0201401N00671004501CN0010001N9-00391+99999102721ADDGF108991081051004501999999KA1999N-00501MD1810141+9999MW1281
0064102240999991929122018004+53083+008783FM-12+000499999V0201101N00671220001CN0040001N9-00281+99999102161ADDAY101999GF100991001001999999001001KA1999M-00221MD1710061+9999
0064102240999991929122106004+53083+008783FM-12+000499999V0201401N00671002401CN0040001N9-00501+99999101471ADDAY111999GF107991071051002501001001KA1999N-00611MD1810141+9999
0064102240999991929122118004+53083+008783FM-12+000499999V0201401N01231220001CN0040001N9-00221+99999100871ADDAY101999GF100991001001999999001001KA1999M-00221MD1710141+9999
0064102240999991929122206004+53083+008783FM-12+000499999V0201401N00261220001CN0100001N9-00281+99999100661ADDAY101999GF100991001001999999001001KA1999N-00281MD1310061+9999
0064102240999991929122218004+53083+008783FM-12+000499999V0201101N00931220001CN0100001N9-00111+99999100451ADDAY101999GF100991001001999999001001KA1999M+00001MD1210061+9999
0081102240999991929122306004+53083+008783FM-12+000499999V0201401N006719999999N0040001N9-00111+99999100621ADDAA199000691AY121999GF108991041061004501011999KA1999N-00221MD1310061+9999MW1701
0064102240999991929122318004+53083+008783FM-12+000499999V0201101N01231220001CN0040001N9+00001+99999100661ADDAY111999GF100991001001999999001001KA1999M+00001MD1990061+9999
0064102240999991929122406004+53083+008783FM-12+000499999V0200901N012319999999N0040001N9-00501+99999099911ADDAY121999GF108991041051008001011999KA1999N-00501MD1810201+9999
0081102240999991929122418004+53083+008783FM-12+000499999V0200901N00931002401CN0040001N9-00721+99999100231ADDAA199000591AY171999GF108991081061002501999999KA1999M-00501MD1210261+9999MW1711
0064102240999991929122506004+53083+008783FM-12+000499999V0200901N00671007801CN0040001N9-00501+99999100261ADDAY121999GF108991081051008001999999KA1999N-00721MD1710401+9999
0075102240999991929122518004+53083+008783FM-12+000499999V0201801N006719999999N0100001N9+00611+99999100131ADDAA199001091AY181999GF108991041061004501999999KA1999M+00721MD1210201+9999
0064102240999991929122606004+53083+008783FM-12+000499999V0202001N006719999999N0040001N9+00721+99999100711ADDAY161999GF108991041061004501999999KA1999N+00501MD1210141+9999
0064102240999991929122618004+53083+008783FM-12+000499999V0201801N00461220001CN0100001N9+00391+99999101231ADDAY111999GF102991021011008001001001KA1999M+00721MD1310141+9999
0064102240999991929122706004+53083+008783FM-12+000499999V0201801N00671220001CN0010001N9+00221+99999101511ADDAY101999GF100991001001999999001001KA1999N+00111MD1610061+9999
0081102240999991929122718004+53083+008783FM-12+000499999V0201601N00671002401CN0040001N9+00391+99999100871ADDAA199000691AY121999GF108991081061002501999999KA1999M+00501MD1810201+9999MW1611
0081102240999991929122806004+53083+008783FM-12+000499999V0202301N00261002401CN0020001N9+00391+99999100541ADDAA199001091AY161999GF108991081061002501999999KA1999N+00391MD1510001+9999MW1501
0075102240999991929122818004+53083+008783FM-12+000499999V0202501N002619999999N0040001N9+00281+99999101031ADDAA199001091AY121999GF106991021051008001011999KA1999M+00391MD1010061+9999
0081102240999991929122906004+53083+008783FM-12+000499999V0201801N01231001501CN0040001N9+00611+99999099661ADDAA199003091AY161999GF108991081061001501999999KA1999N+00281MD1810341+9999MW1611
0096102240999991929122918004+53083+008783FM-12+000499999V0202501N01541220001CN0200001N9+00721+99999100101ADDAA199001091AY181999GF102991021051008001001001KA1999M+01001EQDQ01+000082APCTENQ02+000002APC3  
0064102240999991929123006004+53083+008783FM-12+000499999V0202301N009319999999N0100001N9+00611+99999100851ADDAY121999GF108991021061004501999999KA1999N+00611MD1310141+9999
0081102240999991929123018004+53083+008783FM-12+000499999V0201801N01231004501CN0040001N9+00721+99999100421ADDAA199001091AY161999GF108991081061004501999999KA1999M+00781MD1810261+9999MW1611
0102102240999991929123106004+53083+008783FM-12+000499999V0203201N01231002401CN0100001N9+00611+99999100101ADDAA199003091AY161999GF108991061031002501011999KA1999N+00501MW1811EQDQ01+000042APCTENQ02+000202APC3  
0064102240999991929123118004+53083+008783FM-12+000499999V0202501N004619999999N0100001N9+00391+99999101221ADDAY111999GF199999041051008001011051KA1999M+00721MD1310261+9999
