0064103380999991928010106004+52417+009750FM-12+001699999V0209999900261220001CN0040001N9-00611-00781103371ADDAY111999GF104991021051004501021001KA1999N-00721MD1310141+9999
0064103380999991928010206004+52417+009750FM-12+001699999V0209999900261220001CN0010001N9-01001-01331102921ADDAY101999GF100991001001999999001001KA1999N-01111MD1810201+9999
0064103380999991928010306004+52417+009750FM-12+001699999V0209999900461220001CN0040001N9-00721-00891101601ADDAY101999GF100991001001999999001001KA1999N-00781MD1610061+9999
0094103380999991928010406004+52417+009750FM-12+001699999V02099999002619999999N0010001N9-00111-00171101991ADDAY171999GF108991999061004501001001MW1711EQDQ01+000042SCOTLCQ02+000032APCTENQ03+000002APC3  
0102103380999991928010506004+52417+009750FM-12+001699999V0209999900671002401CN0020001N9+00501+00281100571ADDAA199006091AY161999GF108991081061002501999999KA1999N+00281MW1601EQDQ01+000032APCTENQ02+000002APC3  
0081103380999991928010606004+52417+009750FM-12+001699999V0209999900931030001CN0010001N9+00281+00061101061ADDAA199000691AY161999GF107991041061002501021001KA1999N+00281MD1810261+9999MW1611
0051103380999991928010706004+52417+009750FM-12+001699999V0209999900671220001CN0040001N9+00221+00001101701ADDAY101999GF104991021011004501021001MD1310401+9999
0100103380999991928010806004+52417+009750FM-12+001699999V0209999900671002401CN0040001N9+00781+00721100381ADDAA199010091AY161999GF108991999061002501001001KA1999N+00221MD1810141+9999MW1631EQDQ01+000062SCOTLC
0096103380999991928010906004+52417+009750FM-12+001699999V0209999900461030001CN0020001N9+00281+00221101191ADDAA199001091AY121999GF106991021051017501021001KA1999N+00221EQDQ01+000032APCTENQ02+000002APC3  
0075103380999991928011006004+52417+009750FM-12+001699999V0209999900461220001CN0040001N9+00281+00061101411ADDAA199000391AY101999GF102991001001999999021081KA1999N+00281MD1310201+9999
0075103380999991928011106004+52417+009750FM-12+001699999V0209999900461030001CN0100001N9+00611+00391101131ADDAA199002091AY111999GF106991021051012501031001KA1999N+00501MD1310061+9999
0064103380999991928011206004+52417+009750FM-12+001699999V0209999900261220001CN0020001N9+00111+00061101761ADDAY101999GF100991001001999999001001KA1999N+00111MD1310141+9999
0081103380999991928011306004+52417+009750FM-12+001699999V0209999900931002401CN0040001N9+00391+00171100421ADDAA199001091AY161999GF108991061061002501021001KA1999N+00221MD1610141+9999MW1631
0102103380999991928011406004+52417+009750FM-12+001699999V0209999900931004501CN0040001N9+00501+00441100391ADDAA199003091AY181999GF108991081061004501999999KA1999N+00391MW1811EQDQ01+000042APCTENQ02+000062APC3  
0081103380999991928011506004+52417+009750FM-12+001699999V0209999900461004501CN0040001N9+00611+00561100101ADDAA199002091AY161999GF108991061061004501021001KA1999N+00391MD1610141+9999MW1601
0096103380999991928011606004+52417+009750FM-12+001699999V0209999900461220001CN0040001N9+00281+00061100461ADDAA199003091AY101999GF104991001001999999021081KA1999N+00221EQDQ01+000032APCTENQ02+000002APC3  
0094103380999991928011806004+52417+009750FM-12+001699999V0200501N004619999999N0040001N9+00111+00061102021ADDAA199005091AY111999GF107991999061008001001001KA1999N+00111MD1310261+9999EQDQ01+000042SCOTLC
0083103380999991928011906004+52417+009750FM-12+001699999V0209999900261220001CN0040001N9-00111-00171101701ADDAY111999GF106991999001999999021001KA1999N-00111MD1810261+9999EQDQ01+000002SCOTLC
0075103380999991928012006004+52417+009750FM-12+001699999V0209999900261004501CN0010001N9-00221-00391102801ADDAA199001091AY141999GF108991081051004501999999KA1999N-00281MD1310061+9999
0075103380999991928012106004+52417+009750FM-12+001699999V0209999900261002401CN0010001N9+00111-00111102831ADDAA199000691AY121999GF108991081051002501999999KA1999N-00221MD1410001+9999
0081103380999991928012206004+52417+009750FM-12+001699999V0209999900461002401CN0020001N9+00281+00221101471ADDAA199003091AY161999GF108991081061002501999999KA1999N+00281MD1810201+9999MW1631
0081103380999991928012306004+52417+009750FM-12+001699999V0209999900461004501CN0010001N9-00111-00171101661ADDAA199005091AY171999GF108991081061004501999999KA1999N-00221MD1310201+9999MW1511
0075103380999991928012406004+52417+009750FM-12+001699999V0209999900671030001CN0040001N9+00391+00171101911ADDAA199000391AY111999GF106991041051012501021001KA1999N+00111MD1810061+9999
0075103380999991928012506004+52417+009750FM-12+001699999V0209999900931004501CN0040001N9+00391+00001101931ADDAA199001091AY111999GF108991061051004501021001KA1999N+00391MD1310341+9999
0064103380999991928012606004+52417+009750FM-12+001699999V0209999900671030001CN0100001N9+00501+00111102241ADDAY111999GF106991021011012501021001KA1999N+00221MD1610141+9999
0064103380999991928012706004+52417+009750FM-12+001699999V0209999900671220001CN0100001N9+00281+99999101301ADDAY101999GF102991001001999999021081KA1999N+00111MD1610061+9999
0085103380999991928012806004+52417+009750FM-12+001699999V0209999900261220001CN0020001N9+00111+00061102271ADDAY111999GF104991041051008001001001KA1999N+00001EQDQ01+000032APCTENQ02+000002APC3  
0064103380999991928012906004+52417+009750FM-12+001699999V0209999900671030001CN0100001N9+00221-00171101391ADDAY111999GF108991041051004501021001KA1999N-00111MD1610141+9999
0064103380999991928013006004+52417+009750FM-12+001699999V0209999900261220001CN0040001N9-00111-00281100881ADDAY111999GF102991001001999999021081KA1999N-00221MD1510001+9999
0064103380999991928013106004+52417+009750FM-12+001699999V0209999900261004501CN0020001N9+00221+00001100831ADDAY141999GF108991061051004501021001KA1999N-00391MD1210061+9999
0070103380999991928020106004+52417+009750FM-12+001699999V0209999900671004501CN0040001N9+00281-00111100751ADDAY121999GF108991061061004501021001KA1999N+00111MD1310201+9999MW1501
0083103380999991928020206004+52417+009750FM-12+001699999V0209999900101220001CN0040001N9+00221+00171101031ADDAY111999GF102991999001999999021001KA1999N+00111MD1310201+9999EQDQ01+000002SCOTLC
0064103380999991928020306004+52417+009750FM-12+001699999V0209999900671220001CN0100001N9+00111-00221101191ADDAY111999GF104991001001999999021081KA1999N+00001MD1610061+9999
0070103380999991928020406004+52417+009750FM-12+001699999V0209999900101004501CN0010001N9+00111+00061102571ADDAY141999GF108991081051004501999999KA1999N-00281MD1310141+9999MW1101
0081103380999991928020506004+52417+009750FM-12+001699999V0209999900671030001CN0040001N9+00221-00171102511ADDAA199000691AY161999GF108991021061008001021001KA1999N-00111MD1810141+9999MW1601
0094103380999991928020606004+52417+009750FM-12+001699999V02099999002619999999N0040001N9+00221+00171102131ADDAA199002091AY111999GF106991999051004501001001KA1999N+00111MD1310201+9999EQDQ01+000042SCOTLC
0064103380999991928020706004+52417+009750FM-12+001699999V0209999900261220001CN0020001N9+00221+00171103111ADDAY111999GF104991001001999999021081KA1999N+00221MD1310061+9999
0102103380999991928020806004+52417+009750FM-12+001699999V0209999900931002401CN0040001N9+00721+00671102711ADDAA199000591AY161999GF108991061061002501021001KA1999N+00611MW1501EQDQ01+000032APCTENQ02+000002APC3  
0064103380999991928020906004+52417+009750FM-12+001699999V0209999901231002401CN0040001N9+00721+00501101991ADDAY121999GF108991081051002501999999KA1999N+00611MD1610141+9999
0083103380999991928021006004+52417+009750FM-12+001699999V02099999004619999999N0020001N9+00391+00171101441ADDAY111999GF108991999001022501021001KA1999N+00281MD1810061+9999EQDQ01+000002SCOTLC
0100103380999991928021106004+52417+009750FM-12+001699999V02099999015419999999N0100001N9+00501+00111098731ADDAA199007091AY181999GF108991999061002501001001KA1999N+00281MD1610341+9999MW1601EQDQ01+000042SCOTLC
0100103380999991928021206004+52417+009750FM-12+001699999V02099999002619999999N0040001N9+00111+00061098971ADDAA199007091AY171999GF108991999061002501001001KA1999N+00001MD1310401+9999MW1231EQDQ01+000042SCOTLC
0067103380999991928021306004+52417+009750FM-12+001699999V0209999900461002401CN0020001N9+00221+00171100151ADDAA199004091AY161999GF108991081061002501999999KA1999N+00111MW1681
0102103380999991928021406004+52417+009750FM-12+001699999V0209999900261001501CN0020001N9+00281+00221100261ADDAA199004091AY161999GF108991081051001501999999KA1999N+00281MW1211EQDQ01+000032APCTENQ02+000002APC3  
0075103380999991928021506004+52417+009750FM-12+001699999V0209999900261004501CN0020001N9+00391+00331101371ADDAA199001091AY121999GF108991061051004501021001KA1999N+00391MD1310261+9999
0094103380999991928021606004+52417+009750FM-12+001699999V02099999006719999999N0040001N9+01001+00781101331ADDAA199001091AY111999GF107991999051002501001001KA1999N+00891MD1110061+9999EQDQ01+000042SCOTLC
0081103380999991928021706004+52417+009750FM-12+001699999V0209999900931030001CN0100001N9+00611+00391100471ADDAA199002091AY181999GF106991041061002501021001KA1999N+00611MD1990141+9999MW1811
0094103380999991928021806004+52417+009750FM-12+001699999V0202701N009319999999N0100001N9+00281+00061101911ADDAA199000391AY111999GF106991999051008001001001KA1999N+00111MD1310061+9999EQDQ01+000042SCOTLC
0102103380999991928021906004+52417+009750FM-12+001699999V0209999900671002401CN0040001N9+00501+00441102261ADDAA199000591AY161999GF108991061051002501021001KA1999N+00391MW1211EQDQ01+000032APCTENQ02+000002APC3  
0094103380999991928022006004+52417+009750FM-12+001699999V0209999900101004501CN0040001N9+00391+00331103141ADDAA199001091AY121999GF107991999051004501001001KA1999N+00391MD1310201+9999EQDQ01+000062SCOTLC
0064103380999991928022106004+52417+009750FM-12+001699999V0209999900261220001CN0100001N9-00221-00281103971ADDAY111999GF104991021051012501021001KA1999N-00221MD1310061+9999
0085103380999991928022206004+52417+009750FM-12+001699999V0209999900101075001CN0020001N9-00501-00561103371ADDAY141999GF107991041051002501001081KA1999N-00611EQDQ01+000042APCTENQ02+000062APC3  
0085103380999991928022306004+52417+009750FM-12+001699999V0209999900101220001CN0020001N9-00721-00781103531ADDAY101999GF102991001001999999001021KA1999N-00721EQDQ01+000062APCTENQ02+000002APC3  
0064103380999991928022406004+52417+009750FM-12+001699999V0209999900461220001CN0040001N9-00391-00561103201ADDAY101999GF100991001001999999001001KA1999N-00391MD1310061+9999
0064103380999991928022506004+52417+009750FM-12+001699999V0209999900461220001CN0040001N9-00391-00441103841ADDAY101999GF100991001001999999001001KA1999N-00391MD1310141+9999
0085103380999991928022606004+52417+009750FM-12+001699999V0209999900101220001CN0040001N9-00501-00671103591ADDAY101999GF100991001001999999001001KA1999N-00611EQDQ01+000032APCTENQ02+000002APC3  
0085103380999991928022706004+52417+009750FM-12+001699999V0209999900101220001CN0010001N9-00501-00561103331ADDAY101999GF104991001001999999021081KA1999N-00611EQDQ01+000032APCTENQ02+000002APC3  
0085103380999991928022806004+52417+009750FM-12+001699999V0209999900671004501CN0020001N9-00221-00281103101ADDAY111999GF106991061051004501001001KA1999N-00281EQDQ01+000032APCTENQ02+000002APC3  
0064103380999991928022906004+52417+009750FM-12+001699999V0209999900931220001CN0040001N9-00281-00611102591ADDAY101999GF104991001001999999001021KA1999N-00391MD1310061+9999
0064103380999991928030106004+52417+009750FM-12+001699999V0209999900671220001CN0040001N9-00281-00441102661ADDAY101999GF102991001001999999021081KA1999N-00281MD1310141+9999
0064103380999991928030206004+52417+009750FM-12+001699999V0209999900671220001CN0040001N9-00281-00441102711ADDAY101999GF101991001001999999001021KA1999N-00391MD1310061+9999
0085103380999991928030306004+52417+009750FM-12+001699999V0209999900261220001CN0040001N9-00391-00561102631ADDAY101999GF101991001001999999001081KA1999N-00611EQDQ01+000032APCTENQ02+000002APC3  
0085103380999991928030406004+52417+009750FM-12+001699999V0209999900261220001CN0040001N9-00281-00331102501ADDAY101999GF100991001001999999001001KA1999N-00501EQDQ01+000032APCTENQ02+000002APC3  
0085103380999991928030506004+52417+009750FM-12+001699999V0209999900101220001CN0020001N9-00281-00331102301ADDAY101999GF100991001001999999001001KA1999N-00391EQDQ01+000082APCTENQ02+000002APC3  
0085103380999991928030606004+52417+009750FM-12+001699999V0209999900261220001CN0020001N9+00221+00001101591ADDAY141999GF101991001001999999031081KA1999N-00221EQDQ01+000032APCTENQ02+000002APC3  
0070103380999991928030706004+52417+009750FM-12+001699999V0209999900101012301CN0010001N9+00281+00221101321ADDAY141999GF108991061051012501021001KA1999N+00001MD1510001+9999MW1101
0112103380999991928030806004+52417+009750FM-12+001699999V02099999002619999999N0040001N9+00221+00171101191ADDAA199001091AY121999GF108991999011004501001001KA1999N+00221EQDQ01+000012SCOTLCQ02+000032APCTENQ03+000002APC3  
0064103380999991928030906004+52417+009750FM-12+001699999V0209999900261012301CN0100001N9-00221-00391101721ADDAY111999GF106991061051012501001001KA1999N-00281MD1310061+9999
0102103380999991928031006004+52417+009750FM-12+001699999V0209999900671002401CN0040001N9-00391-00561101671ADDAA199000691AY171999GF108991081061002501999999KA1999N-00391MW1711EQDQ01+000032APCTENQ02+000002APC3  
0081103380999991928031106004+52417+009750FM-12+001699999V0209999901231002401CN0020001N9-00611-00781102041ADDAA199000691AY171999GF107991061061002501021001KA1999N-00611MD1310061+9999MW1731
0096103380999991928031206004+52417+009750FM-12+001699999V0209999900671004501CN0100001N9-00611-00781101991ADDAA199000391AY121999GF108991061051004501021001KA1999N-00721EQDQ01+000032APCTENQ02+000002APC3  
0085103380999991928031306004+52417+009750FM-12+001699999V0209999900671030001CN0100001N9-00281-00441101801ADDAY171999GF107991041051012501021001KA1999N-00391EQDQ01+000032APCTENQ02+000002APC3  
0064103380999991928031406004+52417+009750FM-12+001699999V0209999900671220001CN0040001N9-00391-00721102511ADDAY101999GF102991001001999999021081KA1999N-00611MD1310201+9999
0064103380999991928031506004+52417+009750FM-12+001699999V0209999900261220001CN0100001N9-00391-00561102921ADDAY101999GF100991001001999999001001KA1999N-00781MD1310141+9999
0064103380999991928031606004+52417+009750FM-12+001699999V0209999900261220001CN0040001N9-00611-00781103631ADDAY101999GF100991001001999999001001KA1999N-00891MD1310201+9999
0085103380999991928031706004+52417+009750FM-12+001699999V0209999900261220001CN0020001N9-00501-00561103491ADDAY141999GF100991001001999999001001KA1999N-01001EQDQ01+000072APCTENQ02+000002APC3  
0085103380999991928031806004+52417+009750FM-12+001699999V0209999900261220001CN0040001N9-00281-00441102951ADDAY141999GF100991001001999999001001KA1999N-00721EQDQ01+000072APCTENQ02+000002APC3  
0085103380999991928031906004+52417+009750FM-12+001699999V0209999900261220001CN0040001N9-00111-00441102381ADDAY101999GF102991001001999999001021KA1999N-00501EQDQ01+000032APCTENQ02+000002APC3  
0064103380999991928032006004+52417+009750FM-12+001699999V0209999900931220001CN0100001N9-00111-00611102521ADDAY101999GF100991001001999999001001KA1999N-00281MD1310061+9999
0064103380999991928032106004+52417+009750FM-12+001699999V0209999901231220001CN0100001N9-00221+99999101601ADDAY101999GF100991001001999999001001KA1999N-00391MD1810201+9999
0102103380999991928032206004+52417+009750FM-12+001699999V0209999900261012301CN0040001N9+00221-00171100521ADDAA199000691AY111999GF107991061051012501021001KA1999N+00001MW1161EQDQ01+000032APCTENQ02+000002APC3  
0096103380999991928032306004+52417+009750FM-12+001699999V0209999900261220001CN0020001N9+00281+00221100551ADDAA199000391AY111999GF106991001001999999021081KA1999N+00111EQDQ01+000032APCTENQ02+000002APC3  
0064103380999991928032406004+52417+009750FM-12+001699999V0209999900261220001CN0020001N9+00391+00171100521ADDAY141999GF104991021051012501021001KA1999N+00001MD1310061+9999
0100103380999991928032506004+52417+009750FM-12+001699999V02099999002619999999N0040001N9+00781+00721099791ADDAA199003091AY161999GF106991999061002501001001KA1999N+00721MD1810061+9999MW1211EQDQ01+000042SCOTLC
0116103380999991928032606004+52417+009750FM-12+001699999V0209991C00001220001CN0000501N9+00221+00171100561ADDAA199000691AY141999GF102991999001999999031001KA1999N+00111MD1310201+9999MW1441EQDQ01+009992WODIR Q02+000002SCOTLC
0070103380999991928032706004+52417+009750FM-12+001699999V0209999900261000601CN0010001N9+00391+00331101241ADDAY141999GF108991081051000751999999KA1999N+00281MD1310141+9999MW1101
0081103380999991928032806004+52417+009750FM-12+001699999V0209999900461000151CN0005001N9+00501+00441100341ADDAA199000691AY141999GF108991081051000251999999KA1999N+00001MD1810141+9999MW1451
0094103380999991928032906004+52417+009750FM-12+001699999V02099999002619999999N0040001N9+00391+00331100201ADDAA199007091AY111999GF106991999011008001001001KA1999N+00221MD1310141+9999EQDQ01+000022SCOTLC
0081103380999991928033006004+52417+009750FM-12+001699999V0209999900931030001CN0100001N9+00721+00501099371ADDAA199003091AY161999GF108991041051008001021001KA1999N+00221MD1610061+9999MW1211
0102103380999991928033106004+52417+009750FM-12+001699999V0209999900261004501CN0020001N9+00611+00561099441ADDAA199001091AY161999GF108991061061004501021001KA1999N+00391MW1611EQDQ01+000032APCTENQ02+000002APC3  
0100103380999991928040106004+52417+009750FM-12+001699999V0209991C00001000601CN0010001N9+00501+00441099911ADDAA199000391AY141999GF108991081051000751999999KA1999N+00391MD1310141+9999MW1101EQDQ01+009992WODIR 
0094103380999991928040206004+52417+009750FM-12+001699999V0209999900261004501CN0040001N9+00391+00331100771ADDAA199002091AY121999GF108991999051004501001001KA1999N+00281MD1310141+9999EQDQ01+000062SCOTLC
0075103380999991928040306004+52417+009750FM-12+001699999V0209999900101001501CN0020001N9+00391+00331101461ADDAA199001091AY121999GF108991081051001501999999KA1999N+00391MD1310141+9999
0081103380999991928040406004+52417+009750FM-12+001699999V0209999900931030001CN0020001N9+00721+00501100671ADDAA199003091AY161999GF107991041061001501021001KA1999N+00721MD1990061+9999MW1211
0100103380999991928040506004+52417+009750FM-12+001699999V0209999900671000601CN0100001N9+00281+00221100641ADDAA199011091AY161999GF108991999061000751001001KA1999N+00221MD1310261+9999MW1611EQDQ01+000062SCOTLC
0118103380999991928040606004+52417+009750FM-12+001699999V0209991C00001004501CN0100001N9+00391+00331101101ADDAA199006091AY161999GF108991081051004501999999KA1999N+00221MW1211EQDQ01+009992WODIR Q02+000032APCTENQ03+000002APC3  
0080103380999991928040706004+52417+009750FM-12+001699999V0209991C00001220001CN0010001N9+00221+00171102041ADDAA199000691AY141999GF102991021051002501021001KA1999N-00281EQDQ01+009992WODIR 
0085103380999991928040806004+52417+009750FM-12+001699999V0209999900671220001CN0100001N9+00501+00111101351ADDAY111999GF104991001001999999001021KA1999N+00111EQDQ01+000032APCTENQ02+000002APC3  
0085103380999991928040906004+52417+009750FM-12+001699999V0209999900261220001CN0200001N9+00501+00111101411ADDAY101999GF104991001001999999001081KA1999N+00001EQDQ01+000032APCTENQ02+000002APC3  
0064103380999991928041006004+52417+009750FM-12+001699999V0209999900101220001CN0040001N9+01001+00611100971ADDAY111999GF106991001001999999031081KA1999N+00501MD1810061+9999
0064103380999991928041106004+52417+009750FM-12+001699999V0209999900101220001CN0040001N9+01391+00941100101ADDAY111999GF104991021011008001021001KA1999N+00891MD1110061+9999
0101103380999991928041206004+52417+009750FM-12+001699999V02099999001019999999N0020001N9+00891+00831100151ADDAY141999GF108991999051004501001001KA1999N+00611EQDQ01+000042SCOTLCQ02+000032APCTENQ03+000002APC3  
0100103380999991928041306004+52417+009750FM-12+001699999V0209999900671002401CN0100001N9+00281+00221101231ADDAA199003091AY161999GF108991999061002501001001KA1999N+00221MD1310201+9999MW1611EQDQ01+000062SCOTLC
0107103380999991928041406004+52417+009750FM-12+001699999V02099999009319999999N0100001N9-00111-00171101721ADDAY171999GF107991999061004501001001KA1999N-00111MW1731EQDQ01+000042SCOTLCQ02+000032APCTENQ03+000002APC3  
0081103380999991928041506004+52417+009750FM-12+001699999V0209999901231001501CN0010001N9-00111-00171100751ADDAA199000591AY171999GF108991081061001501999999KA1999N-00221MD1610141+9999MW1731
0085103380999991928041606004+52417+009750FM-12+001699999V0209999900931002401CN0040001N9+00111-00111100501ADDAY121999GF108991081051002501999999KA1999N-00111EQDQ01+000032APCTENQ02+000002APC3  
0075103380999991928041706004+52417+009750FM-12+001699999V0209999900101030001CN0040001N9+00111+00061100571ADDAA199001091AY121999GF108991041051004501021001KA1999N+00001MD1310141+9999
0075103380999991928041806004+52417+009750FM-12+001699999V0209999900671220001CN0200001N9+00221-00171101131ADDAA199000691AY101999GF104991041011004501001001KA1999N+00001MD1310061+9999
0075103380999991928041906004+52417+009750FM-12+001699999V0209999900461030001CN0040001N9+00221+00001100521ADDAA199000691AY121999GF106991021051012501021001KA1999N-00221MD1610141+9999
0075103380999991928042006004+52417+009750FM-12+001699999V0209999900461220001CN0040001N9+00221+00001100791ADDAA199003091AY111999GF104991041011008001001021KA1999N+00111MD1310201+9999
0112103380999991928042106004+52417+009750FM-12+001699999V02099999004619999999N0040001N9+00391+00171100791ADDAA199000391AY111999GF108991999051008001001001KA1999N+00221EQDQ01+000042SCOTLCQ02+000032APCTENQ03+000002APC3  
0094103380999991928042206004+52417+009750FM-12+001699999V02099999002619999999N0040001N9+00391+00171101271ADDAA199000591AY111999GF107991999051008001001001KA1999N+00221MD1310061+9999EQDQ01+000042SCOTLC
0081103380999991928042306004+52417+009750FM-12+001699999V0209999900261000151CN0000501N9+00221+00171102511ADDAA199001091AY141999GF108991081051000251999999KA1999N+00001MD1310261+9999MW1471
0064103380999991928042406004+52417+009750FM-12+001699999V0209999900261220001CN0020001N9+00611+00221103141ADDAY141999GF100991001001999999001001KA1999N-00111MD1610061+9999
0085103380999991928042506004+52417+009750FM-12+001699999V0209999900261220001CN0020001N9+00891+00441102631ADDAY141999GF100991001001999999001001KA1999N+00281EQDQ01+000032APCTENQ02+000002APC3  
0064103380999991928042606004+52417+009750FM-12+001699999V0209999900671220001CN0100001N9+01221+00611101971ADDAY101999GF100991001001999999001001KA1999N+00391MD1810061+9999
0085103380999991928042706004+52417+009750FM-12+001699999V0209999900931220001CN0100001N9+01111+00671101531ADDAY101999GF102991011011012501001081KA1999N+00391EQDQ01+000032APCTENQ02+000002APC3  
0064103380999991928042806004+52417+009750FM-12+001699999V0209999900461220001CN0040001N9+01221+00781101431ADDAY101999GF104991021011004501001021KA1999N+00391MD1310061+9999
0064103380999991928042906004+52417+009750FM-12+001699999V0209999900261220001CN0040001N9+01111+00891100971ADDAY111999GF107991001001999999021081KA1999N+00501MD1810061+9999
0064103380999991928043006004+52417+009750FM-12+001699999V0209999900671220001CN0200001N9+01611+00941100701ADDAY101999GF101991011051012501001001KA1999N+01111MD1310141+9999
0072103380999991928050112004+52417+009750FM-12+001699999V0201101N00461030001CN0200001N9+02111+01171101141ADDAY111999GF107991011051017501021001EQDQ01+000032APCTENQ02+000002APC3  
0051103380999991928050212004+52417+009750FM-12+001699999V0201101N00931075001CN0200001N9+02391+01111101141ADDAY111999GF106991041011012501001021MD1810141+9999
0051103380999991928050312004+52417+009750FM-12+001699999V0201101N01231220001CN0200001N9+01891+00671101221ADDAY101999GF102991001001999999001021MD1810141+9999
0072103380999991928050412004+52417+009750FM-12+001699999V0200901N01231220001CN0200001N9+01721-00281101281ADDAY101999GF100991001001999999001001EQDQ01+000082APCTENQ02+000002APC3  
0051103380999991928050512004+52417+009750FM-12+001699999V0201101N01231220001CN0200001N9+01721-00281101621ADDAY101999GF100991001001999999001001MD1810141+9999
0051103380999991928050712004+52417+009750FM-12+001699999V0201401N00101075001CN0200001N9+02001-00061100301ADDAY111999GF106991041011012501001021MD1810141+9999
0051103380999991928050812004+52417+009750FM-12+001699999V0203201N00461004501CN0200001N9+00781+00171100431ADDAY121999GF108991061051004501021001MD1810061+9999
0000103380999991928050912004+52417+009750FM-12+001699999V0202901N004619999999N9999999N9+99999+99999100471
0088103380999991928051112004+52417+009750FM-12+001699999V0202501N004619999999N0200001N9+00891-00221101791ADDAY111999GF107991999011012501001001EQDQ01+000022SCOTLCQ02+000082APCTENQ03+000002APC3  
0094103380999991928051212004+52417+009750FM-12+001699999V0203201N002619999999N0200001N9+01111+00671101461ADDAY161999GF107991999061004501001001MW1811EQDQ01+000042SCOTLCQ02+000032APCTENQ03+000002APC3  
0051103380999991928051412004+52417+009750FM-12+001699999V0202901N00461030001CN0100001N9+01111+00501101601ADDAY121999GF108991021091012501021001MD1810141+9999
0070103380999991928051512004+52417+009750FM-12+001699999V0202701N002619999999N0200001N9+01221+00061100951ADDAY111999GF107991999011012501001001MD1810141+9999EQDQ01+000022SCOTLC
0057103380999991928051612004+52417+009750FM-12+001699999V0201801N00461004501CN0040001N9+00611+00391099641ADDAY161999GF108991081061004501999999MD1410001+9999MW1631
0051103380999991928051712004+52417+009750FM-12+001699999V0202301N00671075001CN0100001N9+01221+00331099831ADDAY181999GF106991041011012501001081MD1310061+9999
0037103380999991928051812004+52417+009750FM-12+001699999V0201401N009319999999N0100001N9+01281+99999100311ADDAY111999GF106991999999012501999999
0070103380999991928051912004+52417+009750FM-12+001699999V0202501N004619999999N0200001N9+01281+00391100781ADDAY111999GF106991999091012501001001MD1310141+9999EQDQ01+000042SCOTLC
0078103380999991928052112004+52417+009750FM-12+001699999V0203601N00261001501CN0040001N9+00891+00831101261ADDAY161999GF108991081061001501999999MW1631EQDQ01+000062APCTENQ02+000002APC3  
0051103380999991928052212004+52417+009750FM-12+001699999V0202501N00671007801CN0200001N9+01281+00611101071ADDAY111999GF106991061011008001001001MD1310061+9999
0051103380999991928052312004+52417+009750FM-12+001699999V0202001N00461030001CN0200001N9+01281+00611101271ADDAY121999GF108991041051008001021001MD1990061+9999
0057103380999991928052412004+52417+009750FM-12+001699999V0202701N00671004501CN0200001N9+00891+00831101491ADDAY161999GF108991061061004501021001MD1310061+9999MW1611
0094103380999991928052512004+52417+009750FM-12+001699999V0202901N004619999999N0040001N9+01111+01061101971ADDAY161999GF108991999061002501001001MW1601EQDQ01+000042SCOTLCQ02+000032APCTENQ03+000002APC3  
0072103380999991928052612004+52417+009750FM-12+001699999V0203201N00671007801CN0200001N9+01281+00611102421ADDAY111999GF106991061051008001001001EQDQ01+000082APCTENQ02+000002APC3  
0051103380999991928052812004+52417+009750FM-12+001699999V0202901N00461220001CN0100001N9+01781+01111101711ADDAY101999GF102991001001999999021021MD1810061+9999
0070103380999991928052912004+52417+009750FM-12+001699999V0200901N00101220001CN0200001N9+01891+00671102031ADDAY111999GF107991999001999999021001MD1810061+9999EQDQ01+000002SCOTLC
0056103380999991928053012004+52417+009750FM-12+001699999V0200501N00101012301CN0200001N9+02221+01001101981ADDAY111999GF106991061011012501001001EQDQ01+000002APC3  
0070103380999991928053112004+52417+009750FM-12+001699999V0200701N00101220001CN0100001N9+01721+01061101621ADDAY111999GF104991999091008001001001MD1810141+9999EQDQ01+000012SCOTLC
0051103380999991928060112004+52417+009750FM-12+001699999V0200901N00671220001CN0200001N9+01501-00061102241ADDAY111999GF104991041011017501001001MD1990061+9999
0051103380999991928060212004+52417+009750FM-12+001699999V0202701N00261220001CN0200001N9+01501+00331102531ADDAY101999GF101991011011017501001001MD1810061+9999
0051103380999991928060412004+52417+009750FM-12+001699999V0202901N00261220001CN0200001N9+02111+00501101061ADDAY111999GF106991001001999999001081MD1810261+9999
0051103380999991928060512004+52417+009750FM-12+001699999V0202901N00261075001CN0200001N9+01501-00061101221ADDAY111999GF106991021011012501001081MD1810061+9999
0051103380999991928060612004+52417+009750FM-12+001699999V0203201N00261075001CN0200001N9+01611+00721101331ADDAY111999GF106991021011012501001081MD1810061+9999
0057103380999991928060712004+52417+009750FM-12+001699999V0201401N00671004501CN0040001N9+01721+01281100561ADDAY161999GF108991081061004501999999MD1810141+9999MW1631
0076103380999991928060812004+52417+009750FM-12+001699999V0201801N00101004501CN0100001N9+01501+01281100241ADDAY161999GF107991999061004501001001MD1810061+9999MW1641EQDQ01+000062SCOTLC
0057103380999991928060912004+52417+009750FM-12+001699999V0201401N00461030001CN0200001N9+02001+01561100341ADDAY121999GF108991041061008001021001MD1810141+9999MW1601
0057103380999991928061212004+52417+009750FM-12+001699999V0202901N00461030001CN0100001N9+01501+01061102531ADDAY181999GF106991021051017501021001MD1310141+9999MW1811
0051103380999991928061312004+52417+009750FM-12+001699999V0201801N00461220001CN0200001N9+02111+00891102171ADDAY101999GF104991021011012501001021MD1810141+9999
0051103380999991928061412004+52417+009750FM-12+001699999V0202501N01541015001CN0200001N9+02281+01061100701ADDAY111999GF106991061011017501001001MD1310201+9999
0070103380999991928061512004+52417+009750FM-12+001699999V0202901N00931220001CN0200001N9+01501+01061101631ADDAY111999GF104991999011012501001001MD1310141+9999EQDQ01+000022SCOTLC
0076103380999991928061612004+52417+009750FM-12+001699999V0202901N006719999999N0200001N9+00891+00671101441ADDAY181999GF106991999061008001001001MD1310061+9999MW1811EQDQ01+000042SCOTLC
0076103380999991928061812004+52417+009750FM-12+001699999V0202701N004619999999N0200001N9+01001+00781101101ADDAY181999GF107991999091008001001001MD1410001+9999MW1801EQDQ01+000042SCOTLC
0051103380999991928061912004+52417+009750FM-12+001699999V0202501N00101030001CN0200001N9+01611+00441100831ADDAY111999GF108991041011012501021001MD1810141+9999
0072103380999991928062012004+52417+009750FM-12+001699999V0203201N00261030001CN0100001N9+01891+00941100861ADDAY111999GF106991041011008001021001EQDQ01+000082APCTENQ02+000002APC3  
0051103380999991928062112004+52417+009750FM-12+001699999V0202901N00931012301CN0200001N9+01721+00831101971ADDAY111999GF106991061011012501001001MD1110201+9999
0051103380999991928062212004+52417+009750FM-12+001699999V0202501N00461030001CN0040001N9+02001+01331101981ADDAY121999GF108991041051008001021001MD1810061+9999
0051103380999991928062312004+52417+009750FM-12+001699999V0202701N00671220001CN0200001N9+02111+00891101701ADDAY111999GF104991041011012501001081MD1310061+9999
0051103380999991928062512004+52417+009750FM-12+001699999V0202501N00101220001CN0200001N9+02001+00391101841ADDAY111999GF104991021011012501031001MD1810141+9999
0076103380999991928062612004+52417+009750FM-12+001699999V0202001N006719999999N0100001N9+02391+01441100401ADDAY181999GF108991999091004501001001MD1810061+9999MW1811EQDQ01+000042SCOTLC
0076103380999991928062712004+52417+009750FM-12+001699999V0202501N006719999999N0500001N9+01611+00941101551ADDAY181999GF106991999061004501001001MD1310261+9999MW1161EQDQ01+000042SCOTLC
0094103380999991928062812004+52417+009750FM-12+001699999V0202501N006719999999N0100001N9+01721+01061102341ADDAY181999GF108991999061008001001001MW1801EQDQ01+000042SCOTLCQ02+000032APCTENQ03+000002APC3  
0051103380999991928062912004+52417+009750FM-12+001699999V0202301N00671220001CN0200001N9+02281+00671102001ADDAY111999GF104991011011017501001091MD1810141+9999
0051103380999991928070212004+52417+009750FM-12+001699999V0202501N00461220001CN0200001N9+02391+00781101971ADDAY101999GF101991011011012501001001MD1810141+9999
0092103380999991928070412004+52417+009750FM-12+001699999V0202901N006719999999N0200001N9+01221+01171101541ADDAY161999GF108991999061001501001001MD1210602+9999MW1601EQDQ01+000042SCOTLCQ02+000602APC3  
0051103380999991928070512004+52417+009750FM-12+001699999V0202001N00931030001CN0100001N9+02221+01281101581ADDAY111999GF107991041051017501021001MD1810201+9999
0078103380999991928070612004+52417+009750FM-12+001699999V0202301N00671004501CN0040001N9+01721+01501100861ADDAY161999GF108991081061004501999999MW1631EQDQ01+000032APCTENQ02+000002APC3  
0076103380999991928070712004+52417+009750FM-12+001699999V0202501N004619999999N0040001N9+01501+01281101721ADDAY181999GF107991999091004501001001MD1210141+9999MW1161EQDQ01+000042SCOTLC
0051103380999991928070912004+52417+009750FM-12+001699999V0202301N00461220001CN0100001N9+02281+01061101901ADDAY101999GF104991041011017501001001MD1810141+9999
0051103380999991928071012004+52417+009750FM-12+001699999V0202901N00461220001CN0200001N9+02221+01001102431ADDAY111999GF104991041011012501001081MD1310061+9999
0072103380999991928071112004+52417+009750FM-12+001699999V0202501N00671030001CN0100001N9+02391+01111102461ADDAY111999GF107991041051022501031001EQDQ01+000082APCTENQ02+000002APC3  
0051103380999991928071212004+52417+009750FM-12+001699999V0202301N00101220001CN0100001N9+02891+01221102471ADDAY101999GF100991001001999999001001MD1990141+9999
0072103380999991928071312004+52417+009750FM-12+001699999V0202701N00101220001CN0100001N9+03221+01891102121ADDAY101999GF100991001001999999001001EQDQ01+000032APCTENQ02+000002APC3  
0072103380999991928071412004+52417+009750FM-12+001699999V0209991C00001220001CN0100001N9+02891+01221102601ADDAY101999GF100991001001999999001001EQDQ01+000082APCTENQ02+000002APC3  
0051103380999991928071712004+52417+009750FM-12+001699999V0203601N00461220001CN0500001N9+02281+01061102781ADDAY101999GF101991011011022501001001MD1810061+9999
0051103380999991928071812004+52417+009750FM-12+001699999V0202501N00261220001CN0200001N9+02391+00781102201ADDAY101999GF104991011011017501001081MD1810201+9999
0051103380999991928071912004+52417+009750FM-12+001699999V0202901N00461030001CN0200001N9+01891+00941102001ADDAY111999GF107991041011008001031001MD1310061+9999
0072103380999991928072012004+52417+009750FM-12+001699999V0202501N00461012301CN0200001N9+01891+00671101901ADDAY111999GF107991071051012501001001EQDQ01+000082APCTENQ02+000002APC3  
0051103380999991928072112004+52417+009750FM-12+001699999V0202701N00671220001CN0100001N9+02221+01281101831ADDAY111999GF104991021011012501021001MD1810061+9999
0051103380999991928072312004+52417+009750FM-12+001699999V0202901N00261030001CN0040001N9+02221+01561101891ADDAY111999GF106991021051008001021001MD1310061+9999
0094103380999991928072412004+52417+009750FM-12+001699999V0202501N002619999999N0020001N9+01891+01441101531ADDAY111999GF108991999061004501001001MW1801EQDQ01+000042SCOTLCQ02+000062APCTENQ03+000002APC3  
0051103380999991928072512004+52417+009750FM-12+001699999V0202701N00261012301CN0100001N9+02111+01441101461ADDAY111999GF107991061051012501021001MD1110061+9999
0072103380999991928072612004+52417+009750FM-12+001699999V0202701N00931015001CN0200001N9+02281+01061101541ADDAY111999GF106991061011017501001001EQDQ01+000032APCTENQ02+000002APC3  
0094103380999991928072812004+52417+009750FM-12+001699999V0202701N009319999999N0200001N9+01781+01561100171ADDAY181999GF107991999061012501001001MW1801EQDQ01+000042SCOTLCQ02+000072APCTENQ03+000002APC3  
0072103380999991928073012004+52417+009750FM-12+001699999V0202501N00671030001CN0200001N9+02001+00781101411ADDAY111999GF107991041091008001021001EQDQ01+000032APCTENQ02+000002APC3  
0078103380999991928073112004+52417+009750FM-12+001699999V0202701N00671007801CN0040001N9+01891+01221101231ADDAY181999GF108991081061008001999999MW1801EQDQ01+000042APCTENQ02+000142APC3  
0078103380999991928080112004+52417+009750FM-12+001699999V0200901N00101030001CN0040001N9+01501+01441101731ADDAY161999GF108991041061012501021001MW1601EQDQ01+000082APCTENQ02+000002APC3  
0051103380999991928080312004+52417+009750FM-12+001699999V0200701N00101220001CN0200001N9+01721+00501102101ADDAY101999GF102991011011017501001081MD1810201+9999
0051103380999991928080412004+52417+009750FM-12+001699999V0200901N00461030001CN0040001N9+01781+01111101311ADDAY111999GF107991041051012501021001MD1710061+9999
0070103380999991928080712004+52417+009750FM-12+001699999V0202501N00261220001CN0100001N9+02221+01001102291ADDAY111999GF107991999001999999021001MD1810061+9999EQDQ01+000002SCOTLC
0072103380999991928080912004+52417+009750FM-12+001699999V0202501N00931220001CN0200001N9+02111+00891101831ADDAY111999GF104991041011012501001001EQDQ01+000082APCTENQ02+000002APC3  
0051103380999991928081112004+52417+009750FM-12+001699999V0202501N00101220001CN0200001N9+02111+00891101791ADDAY101999GF104991041011012501001001MD1810061+9999
0072103380999991928081312004+52417+009750FM-12+001699999V0202301N00261075001CN0200001N9+02001+01331101241ADDAY121999GF108991021051012501001081EQDQ01+000062APCTENQ02+000002APC3  
0051103380999991928081412004+52417+009750FM-12+001699999V0202001N00461030001CN0200001N9+02221+01281101351ADDAY111999GF108991041091008001021001MD1810061+9999
0051103380999991928081512004+52417+009750FM-12+001699999V0201801N00261220001CN0200001N9+02391+01111101261ADDAY101999GF104991021011012501001081MD1810061+9999
0072103380999991928081612004+52417+009750FM-12+001699999V0202301N00101030001CN0200001N9+01501+01061101411ADDAY191999GF106991041051012501021001EQDQ01+000032APCTENQ02+000002APC3  
0088103380999991928081712004+52417+009750FM-12+001699999V0202501N002619999999N0100001N9+01721+01281101511ADDAY111999GF106991999091008001001001EQDQ01+000042SCOTLCQ02+000082APCTENQ03+000002APC3  
0076103380999991928081812004+52417+009750FM-12+001699999V0202501N006719999999N0200001N9+02001+01061101731ADDAY111999GF106991999091008001001001MD1810061+9999MW1161EQDQ01+000042SCOTLC
0051103380999991928082012004+52417+009750FM-12+001699999V0202001N02261012301CN0100001N9+02281+01331100961ADDAY111999GF107991061051012501031001MD1310141+9999
0057103380999991928082112004+52417+009750FM-12+001699999V0202001N00101007801CN0040001N9+02001+01331101031ADDAY161999GF108991061061008001021001MD1510061+9999MW1611
0094103380999991928082212004+52417+009750FM-12+001699999V0202301N00261004501CN0040001N9+01391+01331101061ADDAY161999GF108991999061004501001001MW1631EQDQ01+000062SCOTLCQ02+000032APCTENQ03+000002APC3  
0051103380999991928082412004+52417+009750FM-12+001699999V0201601N00461220001CN0200001N9+02391+01721101241ADDAY111999GF106991001001999999001021MD1810201+9999
0051103380999991928082512004+52417+009750FM-12+001699999V0202501N00461030001CN0200001N9+02111+01671101261ADDAY111999GF106991041011008001021001MD1110141+9999
0051103380999991928082712004+52417+009750FM-12+001699999V0202501N00931220001CN0200001N9+02111+01171100801ADDAY111999GF104991041011012501001081MD1310141+9999
0051103380999991928082812004+52417+009750FM-12+001699999V0202501N00671012301CN0100001N9+02221+01561101261ADDAY111999GF106991061011012501001091MD1310141+9999
0070103380999991928082912004+52417+009750FM-12+001699999V0202301N00101220001CN0200001N9+02221+01281101571ADDAY111999GF104991999011012501001001MD1810141+9999EQDQ01+000022SCOTLC
0085103380999991928090106004+52417+009750FM-12+001699999V0209999900101030001CN0100001N9+01111+00891102331ADDAY111999GF106991021051012501031001KA1999N+00721EQDQ01+000082APCTENQ02+000002APC3  
0083103380999991928090206004+52417+009750FM-12+001699999V0209991C00001220001CN0040001N9+00891+00831102611ADDAY141999GF100991001001999999001001KA1999N+00221MD1310061+9999EQDQ01+009992WODIR 
0083103380999991928090306004+52417+009750FM-12+001699999V0209991C00001220001CN0040001N9+00891+00671102601ADDAY141999GF102991011051017501021001KA1999N+00221MD1310061+9999EQDQ01+009992WODIR 
0085103380999991928090406004+52417+009750FM-12+001699999V0209999900101220001CN0040001N9+01111+00891102331ADDAY111999GF104991001001999999021021KA1999N+00611EQDQ01+000032APCTENQ02+000002APC3  
0085103380999991928090506004+52417+009750FM-12+001699999V0209999900261220001CN0040001N9+01611+00941102191ADDAY101999GF100991001001999999001001KA1999N+01001EQDQ01+000032APCTENQ02+000002APC3  
0085103380999991928090606004+52417+009750FM-12+001699999V0209999900261220001CN0040001N9+01721+01281101511ADDAY111999GF104991001001999999021081KA1999N+01111EQDQ01+000032APCTENQ02+000002APC3  
0064103380999991928090706004+52417+009750FM-12+001699999V0209999900101220001CN0040001N9+01391+00941102791ADDAY101999GF101991001001999999001021KA1999N+00721MD1110261+9999
0085103380999991928090806004+52417+009750FM-12+001699999V0209999900101030001CN0040001N9+01281+01061102351ADDAY111999GF107991041051022501021001KA1999N+01001EQDQ01+000032APCTENQ02+000002APC3  
0085103380999991928090906004+52417+009750FM-12+001699999V0209999900101220001CN0040001N9+01781+01561102201ADDAY141999GF102991021011022501001001KA1999N+01221EQDQ01+000032APCTENQ02+000002APC3  
0075103380999991928091006004+52417+009750FM-12+001699999V0209999900261030001CN0040001N9+01721+01671102101ADDAA199005091AY111999GF108991021051017501021001KA1999N+01501MD1310201+9999
0101103380999991928091106004+52417+009750FM-12+001699999V0209991C00001220001CN0020001N9+01391+01171102421ADDAY141999GF101991001001999999001021KA1999N+00891EQDQ01+009992WODIR Q02+000032APCTENQ03+000002APC3  
0064103380999991928091206004+52417+009750FM-12+001699999V0209999900101220001CN0040001N9+01111+00891102531ADDAY101999GF102991011051017501021001KA1999N+00781MD1310061+9999
0064103380999991928091306004+52417+009750FM-12+001699999V0209999900101012301CN0040001N9+00891+00831102751ADDAY111999GF107991071051012501001001KA1999N+00221MD1310061+9999
0089103380999991928091406004+52417+009750FM-12+001699999V0209991C00001000151CN0000001N9+00781+00721102791ADDAY141999GF108991081051000251999999KA1999N+00281MD1310061+9999MW1471EQDQ01+009992WODIR 
0091103380999991928091506004+52417+009750FM-12+001699999V0209999900101000151CN0002001N9+00781+00721102691ADDAY141999GF108991081051000251999999KA1999N+00611MW1451EQDQ01+000042APCTENQ02+000062APC3  
0089103380999991928091606004+52417+009750FM-12+001699999V0209991C00001000151CN0000501N9+00891+00831102691ADDAY141999GF108991081051000251999999KA1999N+00781MD1310061+9999MW1451EQDQ01+009992WODIR 
0089103380999991928091706004+52417+009750FM-12+001699999V0209991C00001220001CN0002001N9+00721+00671102781ADDAY141999GF100991001001999999001001KA1999N+00281MD1310061+9999MW1421EQDQ01+009992WODIR 
0085103380999991928091806004+52417+009750FM-12+001699999V0209999900101220001CN0040001N9+00891+00671102561ADDAY101999GF101991011011012501021001KA1999N+00611EQDQ01+000022APCTENQ02+000002APC3  
0117103380999991928091906004+52417+009750FM-12+001699999V0209991C00001220001CN0020001N9+00891+00831102131ADDAY141999GF102991999001999999021001KA1999N+00391EQDQ01+009992WODIR Q02+000002SCOTLCQ03+000042APCTENQ04+000062APC3  
0064103380999991928092006004+52417+009750FM-12+001699999V0209999900101220001CN0040001N9+01111+01061102201ADDAY101999GF101991001001999999001081KA1999N+00891MD1310141+9999
0085103380999991928092106004+52417+009750FM-12+001699999V0209999900101220001CN0040001N9+00781+00561102271ADDAY101999GF100991001001999999001001KA1999N+00501EQDQ01+000032APCTENQ02+000002APC3  
0085103380999991928092206004+52417+009750FM-12+001699999V0209999900101015001CN0040001N9+00501+00441102061ADDAY111999GF107991061051017501021001KA1999N+00281EQDQ01+000032APCTENQ02+000002APC3  
0096103380999991928092306004+52417+009750FM-12+001699999V0209999900101004501CN0020001N9+00501+00441101871ADDAA199000591AY111999GF108991081051004501999999KA1999N+00221EQDQ01+000032APCTENQ02+000002APC3  
0112103380999991928092406004+52417+009750FM-12+001699999V02099999001019999999N0040001N9+00611+00561101061ADDAA199006091AY161999GF107991999051008001001001KA1999N+00391EQDQ01+000022SCOTLCQ02+000082APCTENQ03+000002APC3  
0100103380999991928092506004+52417+009750FM-12+001699999V0209991C00001000151CN0000001N9+00221+00171101151ADDAA199000591AY141999GF108991081051000251999999KA1999N+00111MD1310201+9999MW1471EQDQ01+009992WODIR 
0051103380999991928092606004+52417+009750FM-12+001699999V0209999900101030001CN0020001N9+00501+00441101861ADDAY111999GF107991041051017501021001MD1310201+9999
0101103380999991928092706004+52417+009750FM-12+001699999V0209999900101220001CN0020001N9+00501+00441101721ADDAY141999GF101991999001999999021001KA1999N+00221EQDQ01+000002SCOTLCQ02+000082APCTENQ03+000002APC3  
0083103380999991928092806004+52417+009750FM-12+001699999V0209991C00001220001CN0020001N9+00221+00171100861ADDAY141999GF107991001001999999001021KA1999N-00111MD1810141+9999EQDQ01+009992WODIR 
0083103380999991928092906004+52417+009750FM-12+001699999V0209991C00001002401CN0020001N9+00891+00831101141ADDAY141999GF108991081051002501999999KA1999N+00611MD1310141+9999EQDQ01+009992WODIR 
0075103380999991928093006004+52417+009750FM-12+001699999V0209999900101030001CN0100001N9+00501+00441100821ADDAA199000691AY111999GF106991021051017501021001KA1999N+00391MD1610061+9999
0081103380999991928100106004+52417+009750FM-12+001699999V0209999900931001501CN0040001N9+00501+00441100791ADDAA199002091AY161999GF108991061061001501021001KA1999N+00391MD1610061+9999MW1631
0100103380999991928100206004+52417+009750FM-12+001699999V0209999901231004501CN0040001N9+00781+00391101241ADDAA199000391AY161999GF108991999061004501001001KA1999N+00611MD1610201+9999MW1611EQDQ01+000062SCOTLC
0075103380999991928100306004+52417+009750FM-12+001699999V0209999900101220001CN0020001N9+00501+00441102671ADDAA199000691AY101999GF100991001001999999001001KA1999N+00221MD1310201+9999
0089103380999991928100406004+52417+009750FM-12+001699999V0209991C00001220001CN0002001N9-00111-00171102831ADDAY141999GF100991001001999999001001KA1999N-00221MD1310061+9999MW1441EQDQ01+009992WODIR 
0064103380999991928100506004+52417+009750FM-12+001699999V0209999900101220001CN0010001N9+00111+00061102661ADDAY141999GF100991001001999999001001KA1999N-00111MD1310061+9999
0064103380999991928100606004+52417+009750FM-12+001699999V0209999900261220001CN0020001N9+00721+00501102301ADDAY141999GF107991001001999999021021KA1999N+00111MD1310061+9999
0096103380999991928100706004+52417+009750FM-12+001699999V0209999900101030001CN0040001N9+01001+00781102511ADDAA199000691AY111999GF106991041051012501031001KA1999N+00891EQDQ01+000042APCTENQ02+000062APC3  
0064103380999991928100806004+52417+009750FM-12+001699999V0209999900101030001CN0020001N9+01221+01001102201ADDAY141999GF106991041051022501031001KA1999N+01001MD1610061+9999
0064103380999991928100906004+52417+009750FM-12+001699999V0209999900101030001CN0040001N9+01111+00891100961ADDAY111999GF106991021051017501021001KA1999N+00781MD1810061+9999
0096103380999991928101006004+52417+009750FM-12+001699999V0209999900261030001CN0040001N9+01221+01171100191ADDAA199008091AY161999GF107991041051008001021001KA1999N+01221EQDQ01+000042APCTENQ02+000062APC3  
0094103380999991928101106004+52417+009750FM-12+001699999V0209999900101220001CN0040001N9+00391+00331101391ADDAA199000391AY111999GF106991999001999999021001KA1999N+00221MD1310141+9999EQDQ01+000002SCOTLC
0100103380999991928101206004+52417+009750FM-12+001699999V0209999900261001501CN0040001N9+00391+00331100921ADDAA199019091AY161999GF108991999061001501001001KA1999N+00221MD1310401+9999MW1611EQDQ01+000062SCOTLC
0085103380999991928101306004+52417+009750FM-12+001699999V0209999900101030001CN0040001N9+00111-00111101511ADDAY111999GF106991041051012501031001KA1999N-00221EQDQ01+000032APCTENQ02+000002APC3  
0094103380999991928101406004+52417+009750FM-12+001699999V0209991C00001220001CN0100001N9+00001-00061102351ADDAA199000391AY101999GF102991021051017501001001KA1999N-00221MD1310201+9999EQDQ01+009992WODIR 
0069103380999991928101506004+52417+009750FM-12+001699999V0209999900101012301CN0040001N9+00111+00061102421ADDAY111999GF107991061051012501021001KA1999N-00111EQDQ01+000002APC3  
0064103380999991928101606004+52417+009750FM-12+001699999V0209999900101220001CN0020001N9-00111-00171102791ADDAY141999GF100991001001999999001001KA1999N-00391MD1310141+9999
0081103380999991928101706004+52417+009750FM-12+001699999V0209999900461012301CN0020001N9+00721+00331102161ADDAA199000691AY121999GF108991061061012501021001KA1999N+00111MD1610061+9999MW1611
0075103380999991928101806004+52417+009750FM-12+001699999V0209999900261002401CN0100001N9+01001+00941101811ADDAA199000391AY121999GF108991071051002501001081KA1999N+00891MD1310201+9999
0075103380999991928101906004+52417+009750FM-12+001699999V0209999900461030001CN0100001N9+01221+01001100801ADDAA199012091AY161999GF107991041051002501021001KA1999N+01001MD1410001+9999
0075103380999991928102006004+52417+009750FM-12+001699999V0209999901231220001CN0100001N9+01111+00891101101ADDAA199000691AY111999GF104991021051012501031001KA1999N+00781MD1610061+9999
0102103380999991928102106004+52417+009750FM-12+001699999V0209999900461030001CN0200001N9+01221+01001101011ADDAA199003091AY161999GF108991041061004501021001KA1999N+01111MW1211EQDQ01+000042APCTENQ02+000062APC3  
0096103380999991928102206004+52417+009750FM-12+001699999V0209999900261030001CN0040001N9+00891+00831100991ADDAA199001091AY121999GF108991041051012501021001KA1999N+00781EQDQ01+000042APCTENQ02+000062APC3  
0096103380999991928102306004+52417+009750FM-12+001699999V0209999900671220001CN0040001N9+00891+00671100751ADDAA199000391AY111999GF106991001001999999021021KA1999N+00781EQDQ01+000042APCTENQ02+000062APC3  
0064103380999991928102406004+52417+009750FM-12+001699999V0209999900671012301CN0100001N9+00891+00441101231ADDAY111999GF107991061051012501031001KA1999N+00721MD1310061+9999
0064103380999991928102506004+52417+009750FM-12+001699999V0209999900261030001CN0020001N9+01221+01171101571ADDAY111999GF107991041051017501021001KA1999N+01221MD1310141+9999
0081103380999991928102606004+52417+009750FM-12+001699999V0209999900101004501CN0010001N9+01111+01061101001ADDAA199000391AY141999GF108991061051004501021001KA1999N+01001MD1610061+9999MW1101
0094103380999991928102706004+52417+009750FM-12+001699999V02099999001019999999N0040001N9+01001+00941099771ADDAA199000391AY111999GF107991999001022501021001KA1999N+00781MD1410001+9999EQDQ01+000002SCOTLC
0102103380999991928102806004+52417+009750FM-12+001699999V0209999900101000151CN0002001N9+00781+00721099601ADDAA199000691AY141999GF108991081051000251999999KA1999N+00721MW1451EQDQ01+000032APCTENQ02+000002APC3  
0094103380999991928102906004+52417+009750FM-12+001699999V0209999900461220001CN0040001N9+00781+00721100961ADDAA199003091AY111999GF104991999011004501001001KA1999N+00721MD1310261+9999EQDQ01+000022SCOTLC
0101103380999991928103006004+52417+009750FM-12+001699999V02099999006719999999N0040001N9+00891+00671101241ADDAY111999GF106991999001022501021001KA1999N+00281EQDQ01+000002SCOTLCQ02+000032APCTENQ03+000002APC3  
0075103380999991928103106004+52417+009750FM-12+001699999V0209999900261220001CN0040001N9+00891+00831101191ADDAA199001091AY111999GF104991021051012501031001KA1999N+00891MD1210061+9999
0064103380999991928110106004+52417+009750FM-12+001699999V0209999900261007801CN0040001N9+00781+00561100571ADDAY121999GF108991081051008001999999KA1999N+00721MD1810141+9999
0096103380999991928110206004+52417+009750FM-12+001699999V0209999900261002401CN0020001N9+01001+00781100401ADDAA199000591AY121999GF108991061051002501021001KA1999N+00781EQDQ01+000032APCTENQ02+000002APC3  
0075103380999991928110306004+52417+009750FM-12+001699999V0209999900461007801CN0020001N9+00891+00671100921ADDAA199000691AY111999GF107991061051008001021001KA1999N+00501MD1310061+9999
0070103380999991928110406004+52417+009750FM-12+001699999V0209999900101000151CN0002001N9+00221+00171101011ADDAY141999GF108991081051000251999999KA1999N+00001MD1810061+9999MW1451
0118103380999991928110506004+52417+009750FM-12+001699999V0209999900461002401CN0020001N9+00721+00671100511ADDAA199008091AY161999GF108991999061002501001001KA1999N+00001MW1211EQDQ01+000062SCOTLCQ02+000032APCTENQ03+000002APC3  
0081103380999991928110606004+52417+009750FM-12+001699999V0209999900461030001CN0020001N9+00721+00501100901ADDAA199001091AY161999GF108991041061004501021001KA1999N+00611MD1310061+9999MW1611
0102103380999991928110706004+52417+009750FM-12+001699999V0209999900101004501CN0020001N9+00501+00441101031ADDAA199000391AY161999GF108991081051004501999999KA1999N+00501MW1501EQDQ01+000032APCTENQ02+000002APC3  
0072103380999991928110806004+52417+009750FM-12+001699999V0209999900261002401CN0020001N9+00391+00331100921ADDAY141999GF108991081051002501999999EQDQ01+000042APCTENQ02+000062APC3  
0083103380999991928110906004+52417+009750FM-12+001699999V02099999004619999999N0100001N9+00611+00391101191ADDAY121999GF108991999051004501001001KA1999N+00391MD1310141+9999EQDQ01+000042SCOTLC
0064103380999991928111006004+52417+009750FM-12+001699999V0209999900101220001CN0020001N9-00391-00441102081ADDAY101999GF102991001001999999001021KA1999N-00501MD1310141+9999
0100103380999991928111106004+52417+009750FM-12+001699999V0209999900671002401CN0040001N9+00281+00061101361ADDAA199000691AY161999GF108991999061002501001001KA1999N-00611MD1810141+9999MW1211EQDQ01+000062SCOTLC
0080103380999991928111206004+52417+009750FM-12+001699999V0209999900461004501CN0040001N9+00721+00671101371ADDAA199002091AY161999GF108991081051004501999999KA1999N+00281EQDQ01+000002APC3  
0094103380999991928111306004+52417+009750FM-12+001699999V0209999900261002401CN0040001N9+01281+01061101641ADDAA199000691AY121999GF108991999051002501001001KA1999N+01111MD1310061+9999EQDQ01+000062SCOTLC
0085103380999991928111406004+52417+009750FM-12+001699999V0209999900261002401CN0020001N9+01001+00781101461ADDAY141999GF108991071051002501021001KA1999N+00891EQDQ01+000032APCTENQ02+000002APC3  
0094103380999991928111506004+52417+009750FM-12+001699999V0209999900101220001CN0020001N9+00391+00331100931ADDAA199000691AY111999GF106991999001999999021001KA1999N+00221MD1810201+9999EQDQ01+000002SCOTLC
0100103380999991928111606004+52417+009750FM-12+001699999V0209999900261002401CN0020001N9+01001+00941099331ADDAA199002091AY161999GF108991999061002501001001KA1999N+00781MD1610061+9999MW1601EQDQ01+000062SCOTLC
0075103380999991928111706004+52417+009750FM-12+001699999V0209999900931030001CN0200001N9+00781+00391098641ADDAA199002091AY111999GF106991041051004501021001KA1999N+00781MD1310261+9999
0100103380999991928111806004+52417+009750FM-12+001699999V02099999012319999999N0100001N9+00781+00391099801ADDAA199000691AY181999GF106991999011008001001001KA1999N+00721MD1310261+9999MW1211EQDQ01+000022SCOTLC
0081103380999991928111906004+52417+009750FM-12+001699999V0209999900261004501CN0020001N9+00781+00721101431ADDAA199002091AY161999GF108991061061004501021001KA1999N+00611MD1110061+9999MW1511
0100103380999991928112006004+52417+009750FM-12+001699999V02099999004619999999N0040001N9+01001+00781101641ADDAA199002091AY161999GF108991999061001501001001KA1999N+00781MD1310141+9999MW1601EQDQ01+000042SCOTLC
0083103380999991928112106004+52417+009750FM-12+001699999V0209999900101220001CN0040001N9+00391+00331102821ADDAY111999GF106991999001999999021001KA1999N+00391MD1310061+9999EQDQ01+000002SCOTLC
0081103380999991928112206004+52417+009750FM-12+001699999V0209999900261030001CN0020001N9+00781+00561101621ADDAA199001091AY161999GF108991041051008001021001KA1999N+00781MD1510141+9999MW1521
0118103380999991928112306004+52417+009750FM-12+001699999V0209999900461220001CN0100001N9+00781+00561100351ADDAA199004091AY161999GF104991999051012501001001KA1999N+00781MW1211EQDQ01+000022SCOTLCQ02+000032APCTENQ03+000002APC3  
0118103380999991928112406004+52417+009750FM-12+001699999V0209999901541002401CN0100001N9+00721+00331098571ADDAA199002091AY181999GF108991999061002501001001KA1999N+00611MW1811EQDQ01+000062SCOTLCQ02+000032APCTENQ03+000002APC3  
0094103380999991928112506004+52417+009750FM-12+001699999V02099999006719999999N0100001N9+00721+00501099321ADDAA199002091AY161999GF107991999051004501001001KA1999N+00501MD1990141+9999EQDQ01+000042SCOTLC
0118103380999991928112606004+52417+009750FM-12+001699999V0209999901231002401CN0040001N9+00501+00441097471ADDAA199012091AY161999GF108991999061002501001001KA1999N+00281MW1621EQDQ01+000072SCOTLCQ02+000042APCTENQ03+000262APC3  
0096103380999991928112706004+52417+009750FM-12+001699999V0209999900671220001CN0040001N9+00391+00171099271ADDAA199003091AY111999GF104991021051012501021001KA1999N+00281EQDQ01+000032APCTENQ02+000002APC3  
0100103380999991928112806004+52417+009750FM-12+001699999V0209999900261002401CN0020001N9+00391+00331100371ADDAA199001091AY161999GF108991999061002501001001KA1999N+00281MD1310201+9999MW1631EQDQ01+000062SCOTLC
0064103380999991928112906004+52417+009750FM-12+001699999V0209999900101220001CN0040001N9+00001-00061101801ADDAY101999GF104991001001999999031091KA1999N+00001MD1310201+9999
0081103380999991928113006004+52417+009750FM-12+001699999V0209999900671004501CN0020001N9+00281+00061101571ADDAA199002091AY161999GF108991081061004501999999KA1999N+00221MD1810201+9999MW1631
0096103380999991928120106004+52417+009750FM-12+001699999V0209999900261007801CN0040001N9+00611+00391101501ADDAA199000691AY121999GF108991061051008001021001KA1999N+00501EQDQ01+000032APCTENQ02+000002APC3  
0112103380999991928120206004+52417+009750FM-12+001699999V02099999004619999999N0040001N9+00611+00391101461ADDAA199002091AY111999GF106991999051008001001001KA1999N+00611EQDQ01+000042SCOTLCQ02+000012APCTENQ03+000002APC3  
0075103380999991928120306004+52417+009750FM-12+001699999V0209999900101030001CN0040001N9+00221+00171102241ADDAA199000691AY111999GF107991041051008001021001KA1999N+00001MD1310061+9999
0070103380999991928120406004+52417+009750FM-12+001699999V0209999900261001501CN0010001N9+00391+00331102961ADDAY121999GF108991081051001501999999KA1999N+00001MD1310141+9999MW1101
0064103380999991928120506004+52417+009750FM-12+001699999V0209999900261001501CN0010001N9+00501+00281102741ADDAY141999GF108991081051001501999999KA1999N+00391MD1990061+9999
0085103380999991928120606004+52417+009750FM-12+001699999V0209999900261002401CN0020001N9+00501+00441102341ADDAY141999GF107991061051002501021001KA1999N+00391EQDQ01+000032APCTENQ02+000002APC3  
0112103380999991928120706004+52417+009750FM-12+001699999V02099999006719999999N0040001N9+00611+00391101171ADDAA199000591AY161999GF108991999051004501001001KA1999N+00501EQDQ01+000042SCOTLCQ02+000032APCTENQ03+000002APC3  
0085103380999991928120806004+52417+009750FM-12+001699999V0209999900461220001CN0010001N9+00221+00001101531ADDAY141999GF104991011051022501021001KA1999N+00111EQDQ01+000032APCTENQ02+000002APC3  
0101103380999991928120906004+52417+009750FM-12+001699999V0209999900461220001CN0040001N9+00001-00221101441ADDAY101999GF102991999001999999021001KA1999N-00111EQDQ01+000002SCOTLCQ02+000032APCTENQ03+000002APC3  
0101103380999991928121006004+52417+009750FM-12+001699999V0209999900261220001CN0010001N9-00281-00331101241ADDAY141999GF102991999001999999021001KA1999N-00391EQDQ01+000002SCOTLCQ02+000032APCTENQ03+000002APC3  
0064103380999991928121106004+52417+009750FM-12+001699999V0209999900931007801CN0040001N9-00111-00171099991ADDAY121999GF108991081051008001999999KA1999N-00501MD1610141+9999
0096103380999991928121206004+52417+009750FM-12+001699999V0209999900671002401CN0020001N9-00221-00281100021ADDAA199000691AY121999GF108991081051002501999999KA1999N-00221EQDQ01+000042APCTENQ02+000142APC3  
0075103380999991928121306004+52417+009750FM-12+001699999V0209999900101030001CN0100001N9+00001+99999100661ADDAA124999999AY171999GF107991041051008001021001KA1999N-00111MD1310141+9999
0100103380999991928121406004+52417+009750FM-12+001699999V02099999001019999999N0020001N9-00111-00171100791ADDAA199003091AY171999GF108991999061002501001001KA1999N-00111MD1710141+9999MW1701EQDQ01+000042SCOTLC
0064103380999991928121506004+52417+009750FM-12+001699999V0209999900101001501CN0020001N9-00281-00331101571ADDAY121999GF108991081051001501999999KA1999N-00611MD1310261+9999
0081103380999991928121606004+52417+009750FM-12+001699999V0209999900101000601CN0010001N9-00111-00171103181ADDAA199000691AY171999GF108991081051000751999999KA1999N-00221MD1310201+9999MW1101
0075103380999991928121706004+52417+009750FM-12+001699999V0209999900261030001CN0020001N9-00281-00611102131ADDAA199000691AY111999GF108991041051017501021001KA1999N-00501MD1810201+9999
0081103380999991928121806004+52417+009750FM-12+001699999V0209999900461004501CN0040001N9-00221-00281102641ADDAA199001091AY171999GF108991081051004501999999KA1999N-00281MD1310341+9999MW1231
0085103380999991928121906004+52417+009750FM-12+001699999V0209999900461004501CN0040001N9-00611-00941103431ADDAY121999GF108991081051004501999999KA1999N-00611EQDQ01+000012APCTENQ02+000002APC3  
0083103380999991928122006004+52417+009750FM-12+001699999V0209999900671004501CN0020001N9-00221-00391102711ADDAY121999GF108991999051004501001001KA1999N-00391MD1810141+9999EQDQ01+000062SCOTLC
0101103380999991928122106004+52417+009750FM-12+001699999V02099999004619999999N0010001N9-00611-00781102471ADDAY141999GF106991999001022501021081KA1999N-00721EQDQ01+000002SCOTLCQ02+000042APCTENQ03+000062APC3  
0083103380999991928122206004+52417+009750FM-12+001699999V0201801N00261002401CN0005001N9-00391+99999102731ADDGF108991081051002501999999KA1999N-00611MW1471EQDQ01+000042APCTENQ02+000262APC3  
0064103380999991928122306004+52417+009750FM-12+001699999V0209999901231220001CN0020001N9-00391-00561102561ADDAY101999GF102991001001999999001021KA1999N-00391MD1310061+9999
0085103380999991928122406004+52417+009750FM-12+001699999V0209999900671004501CN0020001N9+00111-00111102881ADDAY121999GF108991081051004501999999KA1999N-00391EQDQ01+000032APCTENQ02+000002APC3  
0070103380999991928122506004+52417+009750FM-12+001699999V0209999900931030001CN0020001N9+00281+00061101731ADDAY141999GF108991041061004501021001KA1999N-00391MD1610201+9999MW1501
0100103380999991928122606004+52417+009750FM-12+001699999V0209999901231004501CN0040001N9+00391+00171101221ADDAA199006091AY161999GF108991999061004501001001KA1999N+00111MD1810461+9999MW1811EQDQ01+000062SCOTLC
0094103380999991928122706004+52417+009750FM-12+001699999V02099999006719999999N0040001N9+00391+00171101271ADDAA199014091AY111999GF107991999051008001001001KA1999N+00281MD1210061+9999EQDQ01+000022SCOTLC
0085103380999991928122806004+52417+009750FM-12+001699999V0209999900101030001CN0020001N9+00111+00061101331ADDAY111999GF107991021051008001021001KA1999N+00111EQDQ01+000072APCTENQ02+000002APC3  
0091103380999991928122906004+52417+009750FM-12+001699999V0209999900101000151CN0000501N9-00391-00441101131ADDAY141999GF108991081051000251999999KA1999N-00501MW1451EQDQ01+000032APCTENQ02+000002APC3  
0100103380999991928123006004+52417+009750FM-12+001699999V02099999002619999999N0020001N9+00221+00171100031ADDAA199000591AY161999GF106991999051008001001001KA1999N+00001MD1810201+9999MW1211EQDQ01+000042SCOTLC
0100103380999991928123106004+52417+009750FM-12+001699999V02099999004619999999N0020001N9+00111+00061099991ADDAA199000391AY171999GF108991999061002501001001KA1999N+00001MD1310201+9999MW1681EQDQ01+000042SCOTLC
