0029103380999991926010106004+52417+009750FM-12+001699999V02099999002619999999N0020001N9+99999+99999101461ADDGF199999999999004501999999
0100103380999991926010206004+52417+009750FM-12+001699999V0209999900461004501CN0020001N9+00221+00171100461ADDAA199011091AY161999GF108991999061004501001001KA1999N+00221MD1810401+9999MW1631EQDQ01+000062SCOTLC
0029103380999991926010306004+52417+009750FM-12+001699999V02099999004619999999N0010001N9+99999+99999100301ADDGF199999999999004501999999
0051103380999991926010406004+52417+009750FM-12+001699999V0209999900261030001CN0040001N9+00721+00501100291ADDAY111999GF108991041051004501031001MD1310261+9999
0057103380999991926010506004+52417+009750FM-12+001699999V0209999900461004501CN0020001N9+00501+00441101131ADDAY161999GF107991061051004501021001MD1310201+9999MW1621
0075103380999991926010606004+52417+009750FM-12+001699999V0209999900101004501CN0020001N9+00391+00331102021ADDAA199000391AY111999GF107991061051004501021001KA1999N+00391MD1310201+9999
0075103380999991926010706004+52417+009750FM-12+001699999V0209999900261002401CN0020001N9+00611+00561101711ADDAA199003091AY111999GF108991061051002501021001KA1999N+00611MD1310061+9999
0081103380999991926010806004+52417+009750FM-12+001699999V0209999900931004501CN0020001N9+00391+00171101191ADDAA199006091AY161999GF108991081061004501999999KA1999N+00281MD1810061+9999MW1631
0081103380999991926010906004+52417+009750FM-12+001699999V0209999900101002401CN0005001N9+00281-01001102441ADDAA199000591AY141999GF108991061051002501021001KA1999N+00111MD1310061+9999MW1471
0029103380999991926011006004+52417+009750FM-12+001699999V02099999001019999999N0002001N9+99999+99999102641ADDGF199999999999004501999999
0051103380999991926011106004+52417+009750FM-12+001699999V0209999900461220001CN0010001N9-00221-00391103091ADDAY141999GF102991001001999999001081MD1310201+9999
0051103380999991926011206004+52417+009750FM-12+001699999V0209999900671220001CN0040001N9-00611-00781103571ADDAY101999GF104991001001999999001081MD1310141+9999
0064103380999991926011306004+52417+009750FM-12+001699999V0209999900671220001CN0040001N9-00891-01061103331ADDAY101999GF102991001001999999021081KA1999N-01001MD1810141+9999
0070103380999991926011406004+52417+009750FM-12+001699999V0209999900931004501CN0020001N9-01001-01061102431ADDAY111999GF108991081051004501999999KA1999N-01001MD1810201+9999MW1231
0051103380999991926011506004+52417+009750FM-12+001699999V0209999900261002401CN0010001N9-00281-00331101061ADDAY111999GF108991081051002501999999MD1810141+9999
0102103380999991926011606004+52417+009750FM-12+001699999V0209999900261001501CN0002001N9-00611-00671100831ADDAA199002091AY171999GF108991081061001501999999KA1999N-00721MW1731EQDQ01+000032APCTENQ02+000002APC3  
0029103380999991926011706004+52417+009750FM-12+001699999V02099999002619999999N0005001N9+99999+99999100501ADDGF199999999999004501999999
0070103380999991926011806004+52417+009750FM-12+001699999V0209999900261000151CN0000001N9-00501-00561100771ADDAY171999GF108991081061000251999999KA1999N-00611MD1310141+9999MW1711
0051103380999991926011906004+52417+009750FM-12+001699999V0209999900101001501CN0005001N9-00721-00891101471ADDAY111999GF108991081051001501999999MD1810061+9999
0064103380999991926012006004+52417+009750FM-12+001699999V0209999900461000601CN0005001N9-00781-00831101541ADDAY141999GF108991081051000751999999KA1999N-01001MD1310061+9999
0070103380999991926012106004+52417+009750FM-12+001699999V0209999900461004501CN0005001N9-00611-00671101141ADDAY171999GF108991081051004501999999KA1999N-00721MD1990061+9999MW1701
0089103380999991926012206004+52417+009750FM-12+001699999V02099999001019999999N0002001N9-01001-01171102191ADDAY141999GF108991999051004501001001KA1999N-01111MD1310341+9999MW1441EQDQ01+000042SCOTLC
0116103380999991926012306004+52417+009750FM-12+001699999V0209999901231001501CN0010001N9+00111-00111100771ADDAA199004091AY161999GF108991081061001501999999KA1999N+99999MD1810542+9999MW1631EQDQ01+000542APC3  Q02 +00222ATMN  
0029103380999991926012406004+52417+009750FM-12+001699999V02099999012319999999N0020001N9+99999+99999100701ADDGF199999999999004501999999
0064103380999991926012506004+52417+009750FM-12+001699999V0209999900671030001CN0040001N9+00611+00221101791ADDAY111999GF107991041051004501021001KA1999N+00391MD1810061+9999
0116103380999991926012606004+52417+009750FM-12+001699999V0200901N01231004501CN0020001N9+00721+00671101941ADDAA199002091AY181999GF108991999051004501001001KA1999N+00721MD1310742+9999MW1231EQDQ01+000062SCOTLCQ02+000742APC3  
0051103380999991926012706004+52417+009750FM-12+001699999V0209999900261220001CN0010001N9+00221+00171102431ADDAY141999GF104991001001999999001081MD1810141+9999
0070103380999991926012806004+52417+009750FM-12+001699999V0209999900461012301CN0040001N9+00721+00501101901ADDAY111999GF106991061011012501021001KA1999N+00391MD1310201+9999MW1461
0070103380999991926012906004+52417+009750FM-12+001699999V02099999006719999999N0020001N9+00221+00171101171ADDAY111999GF106991999001012501021001MD1810201+9999EQDQ01+000002SCOTLC
0075103380999991926013006004+52417+009750FM-12+001699999V0209999900461007801CN0020001N9+00501+00281101151ADDAA199001091AY181999GF107991061051008001021001KA1999N+00391MD1310201+9999
0000103380999991926013106004+52417+009750FM-12+001699999V02099999004619999999N0020001N9+99999+99999100911
0088103380999991926020106004+52417+009750FM-12+001699999V0209999900261220001CN0020001N9+00391+00171100671ADDAY141999GF104991001001999999001081EQDQ01+000982SCOLCBQ02+000032APCTENQ03+000002APC3  
0075103380999991926020206004+52417+009750FM-12+001699999V0209999900461075001CN0020001N9+00501+00441100071ADDAA199003091AY111999GF106991041051017501001081KA1999N+00281MD1810201+9999
0081103380999991926020306004+52417+009750FM-12+001699999V0209999900101007801CN0010001N9+00891+00671099511ADDAA199005091AY111999GF108991061051008001021001KA1999N+00721MD1310141+9999MW1211
0057103380999991926020406004+52417+009750FM-12+001699999V0209999900671030001CN0005001N9+00501+00441099671ADDAY141999GF107991041051012501021001MD1310201+9999MW1471
0075103380999991926020506004+52417+009750FM-12+001699999V0209999900261012301CN0020001N9+00501+00281101191ADDAA199000691AY141999GF106991061051012501021001KA1999N+00501MD1310261+9999
0091103380999991926020606004+52417+009750FM-12+001699999V0209999900931004501CN0010001N9+00391+00331101461ADDAY121999GF108991081051004501999999KA1999N+00391MW1101EQDQ01+000032APCTENQ02+000002APC3  
0029103380999991926020706004+52417+009750FM-12+001699999V02099999009319999999N0040001N9+99999+99999101131ADDGF199999999999004501999999
0096103380999991926020806004+52417+009750FM-12+001699999V0209999900671004501CN0020001N9-00281-00331101531ADDAA199077091AY171999GF108991081051004501999999KA1999N-00281EQDQ01+000032APCTENQ02+000002APC3  
0057103380999991926020906004+52417+009750FM-12+001699999V0209999900671007801CN0020001N9-00391-00561101111ADDAY171999GF108991061051008001021001MD1810141+9999MW1701
0057103380999991926021006004+52417+009750FM-12+001699999V0209999900461002401CN0002001N9-00281-00331100701ADDAY171999GF108991081061002501999999MD1810061+9999MW1731
0057103380999991926021106004+52417+009750FM-12+001699999V0209999900101000151CN0002001N9-00111-00171101171ADDAY171999GF108991081051000251999999MD1310141+9999MW1471
0081103380999991926021206004+52417+009750FM-12+001699999V0209999900101000151CN0002001N9+00001-00061101091ADDAA199000391AY141999GF108991081051000251999999KA1999N+00001MD1810061+9999MW1471
0081103380999991926021306004+52417+009750FM-12+001699999V0209999900101001501CN0005001N9+00111+00061101261ADDAA199004091AY141999GF108991081051001501999999KA1999N+00111MD1310201+9999MW1431
0029103380999991926021406004+52417+009750FM-12+001699999V02099999001019999999N0002001N9+99999+99999102661ADDGF199999999999002501999999
0056103380999991926021506004+52417+009750FM-12+001699999V0209999900461220001CN9999999N9+00281+99999102481ADDGF104991001001999999001081KA1999N+00111MD1010141+9999
0081103380999991926021606004+52417+009750FM-12+001699999V0209999900461001501CN0010001N9+00611+00561101191ADDAA199009091AY141999GF108991081061001501999999KA1999N+00611MD1810201+9999MW1631
0064103380999991926021706004+52417+009750FM-12+001699999V0209999900461007801CN0020001N9+00721+00331100741ADDAY111999GF108991061051008001021001KA1999N+00611MD1810261+9999
0057103380999991926021806004+52417+009750FM-12+001699999V0209999900261004501CN0020001N9+00721+00671099261ADDAY181999GF108991081051004501999999MD1810261+9999MW1211
0051103380999991926021906004+52417+009750FM-12+001699999V0209999900101007801CN0010001N9+00281+00221101191ADDAY141999GF107991061051008001031001MD1310061+9999
0051103380999991926022006004+52417+009750FM-12+001699999V0209999900261004501CN0040001N9+00501+00441101541ADDAY111999GF108991081051004501999999MD1310141+9999
0029103380999991926022106004+52417+009750FM-12+001699999V02099999002619999999N0010001N9+99999+99999101991ADDGF199999999999004501999999
0064103380999991926022206004+52417+009750FM-12+001699999V0209999900101030001CN0010001N9+00781+00561101391ADDAY141999GF108991041051008001021001KA1999N+00001MD1610141+9999
0083103380999991926022306004+52417+009750FM-12+001699999V0209999900101220001CN0020001N9+00391+00331102331ADDAY141999GF104991001001999999001081KA1999N+00391MD1310141+9999EQDQ01+000982SCOLCB
0081103380999991926022506004+52417+009750FM-12+001699999V0209999900101000151CN0000501N9+00781+00721102831ADDAA199005091AY141999GF108991081051000251999999KA1999N+00721MD1310141+9999MW1471
0064103380999991926022606004+52417+009750FM-12+001699999V0209999900261002401CN0020001N9+00721+00671103371ADDAY141999GF108991081051002501999999KA1999N+00611MD1310141+9999
0085103380999991926022706004+52417+009750FM-12+001699999V0209999900261220001CN0010001N9+00111+00061103311ADDAY141999GF102991001001999999021091KA1999N+00111EQDQ01+000032APCTENQ02+000002APC3  
0029103380999991926022806004+52417+009750FM-12+001699999V02099999002619999999N0010001N9+99999+99999102151ADDGF199999999999004501999999
0094103380999991926030106004+52417+009750FM-12+001699999V02099999002619999999N0040001N9+00281+00221103111ADDAA199000691AY111999GF106991999001008001021001KA1999N+00281MD1310201+9999EQDQ01+000002SCOTLC
0057103380999991926030206004+52417+009750FM-12+001699999V0209999900671001501CN0010001N9+00611+00561102301ADDAY181999GF108991081061001501999999MD1810141+9999MW1501
0070103380999991926030306004+52417+009750FM-12+001699999V02099999004619999999N0020001N9+00781+00561101831ADDAY111999GF107991999001008001021001MD1810141+9999EQDQ01+000002SCOTLC
0075103380999991926030406004+52417+009750FM-12+001699999V0209999900931220001CN0100001N9+00391+00001100441ADDAA199000591AY101999GF104991041011017501001001KA1999N+00221MD1810061+9999
0051103380999991926030506004+52417+009750FM-12+001699999V0209999900461075001CN0020001N9+00001-00061099991ADDAY171999GF106991041011004501001081MD1310261+9999
0116103380999991926030606004+52417+009750FM-12+001699999V0209999900671004501CN0005001N9+00111+00061100561ADDAA199002091AY121999GF108991081061004501999999KA1999N+99999MD1810542+9999MW1731EQDQ01+000542APC3  Q02 +00392ATMN  
0000103380999991926030706004+52417+009750FM-12+001699999V02099999006719999999N9999999N9+99999+99999100861
0075103380999991926030806004+52417+009750FM-12+001699999V0209999900261002401CN0020001N9+00891+00831101751ADDAA199002091AY181999GF108991081051002501999999KA1999N+00391MD1310201+9999
0064103380999991926030906004+52417+009750FM-12+001699999V0209999900671004501CN0020001N9+00891+00671101801ADDAY111999GF108991081051004501999999KA1999N+00891MD1810141+9999
0055103380999991926031006004+52417+009750FM-12+001699999V02099999009319999999N9999999N9+00221+99999100961ADDAA199006091AY191999KA1999N+00221MD1810141+9999MW1751
0075103380999991926031106004+52417+009750FM-12+001699999V0209999900461220001CN0040001N9+00221+00171102871ADDAA199000591AY111999GF104991041011008001001001KA1999N+00111MD1310341+9999
0081103380999991926031206004+52417+009750FM-12+001699999V0209999900931001501CN0010001N9+00781+00721101911ADDAA199005091AY161999GF108991081061001501999999KA1999N+00501MD1310061+9999MW1501
0064103380999991926031306004+52417+009750FM-12+001699999V0209999900931030001CN0040001N9+00781+00561102101ADDAY111999GF108991041051001501021001KA1999N+00781MD1810061+9999
0000103380999991926031406004+52417+009750FM-12+001699999V02099999009319999999N9999999N9+99999+99999102671
0081103380999991926031506004+52417+009750FM-12+001699999V0209999900101004501CN0010001N9+00611+00561101541ADDAA199004091AY161999GF108991081061004501999999KA1999N+00391MD1810061+9999MW1501
0000103380999991926031606004+52417+009750FM-12+001699999V02099999001019999999N9999999N9+99999+99999102481
0083103380999991926031706004+52417+009750FM-12+001699999V02099999001019999999N0010001N9+00111+00061102171ADDAY141999GF106991999001012501021001KA1999N+00001MD1810061+9999EQDQ01+000002SCOTLC
0102103380999991926031806004+52417+009750FM-12+001699999V0209999900101007801CN0040001N9+00221+00171101591ADDAA199003091AY181999GF107991061051008001021001KA1999N+00111MW1211EQDQ01+000032APCTENQ02+000002APC3  
0064103380999991926031906004+52417+009750FM-12+001699999V0209999900261015001CN0040001N9+00111+00061101931ADDAY111999GF107991071051017501001001KA1999N+00001MD1310141+9999
0083103380999991926032006004+52417+009750FM-12+001699999V0209999900101220001CN0200001N9-00111-00281102401ADDAY111999GF104991001001999999031081KA1999N+99999MD1310201+9999EQDQ01 +00502ATMN  
0000103380999991926032106004+52417+009750FM-12+001699999V02099999001019999999N9999999N9+99999+99999102441
0094103380999991926032206004+52417+009750FM-12+001699999V0209999900461220001CN0200001N9-00281-00441102391ADDAA199040091AY101999GF101991001001999999001081KA1999N+99999MD1310261+9999EQDQ01 +02002ATMN  
0083103380999991926032306004+52417+009750FM-12+001699999V02099999004619999999N0200001N9-00111-00281102381ADDAY111999GF106991999011017501001001KA1999N-00221MD1310061+9999EQDQ01+000022SCOTLC
0085103380999991926032406004+52417+009750FM-12+001699999V0209999900461220001CN0100001N9-00281-00441102071ADDAY101999GF101991001001999999001081KA1999N-00501EQDQ01+000032APCTENQ02+000002APC3  
0064103380999991926032506004+52417+009750FM-12+001699999V0209999900101000151CN0100001N9-00111-00441101391ADDAY101999GF108991081051000251999999KA1999N-00391MD1810061+9999
0064103380999991926032606004+52417+009750FM-12+001699999V0209999900101220001CN0100001N9+00001-00221101461ADDAY101999GF101991001001999999001081KA1999N-00221MD1310061+9999
0000103380999991926032706004+52417+009750FM-12+001699999V02099999001019999999N9999999N9+99999+99999100771
0000103380999991926032806004+52417+009750FM-12+001699999V02099999001019999999N9999999N9+99999+99999099831
0070103380999991926032906004+52417+009750FM-12+001699999V0209999900101220001CN0005001N9+00501+00441100201ADDAY111999GF102991001001999999001081KA1999N+00111MD1310141+9999MW1471
0081103380999991926033006004+52417+009750FM-12+001699999V0209999900261007801CN0020001N9+00891+00831099891ADDAA199001091AY161999GF108991061051008001021001KA1999N+00611MD1310141+9999MW1211
0064103380999991926033106004+52417+009750FM-12+001699999V0209999900261220001CN0100001N9+00391+00001101701ADDAY101999GF102991001001999999001021KA1999N+00111MD1310341+9999
0083103380999991926040106004+52417+009750FM-12+001699999V0209999900101220001CN0010001N9+00721+00331102231ADDAY101999GF102991999001999999031001KA1999N+00221MD1310061+9999EQDQ01+000002SCOTLC
0000103380999991926040206004+52417+009750FM-12+001699999V02099999001019999999N9999999N9+99999+99999102631
0083103380999991926040306004+52417+009750FM-12+001699999V0209999900671220001CN0100001N9+00501+00111103131ADDAY101999GF102991001001999999001021KA1999N+99999MD1310141+9999EQDQ01 +03002ATMN  
0000103380999991926040406004+52417+009750FM-12+001699999V02099999006719999999N9999999N9+99999+99999102741
0000103380999991926040506004+52417+009750FM-12+001699999V02099999006719999999N9999999N9+99999+99999102391
0057103380999991926040606004+52417+009750FM-12+001699999V0209999900101000151CN0002001N9+00781+00721102311ADDAY141999GF108991081051000251999999MD1810061+9999MW1471
0051103380999991926040706004+52417+009750FM-12+001699999V0209999900101075001CN0020001N9+01111+00671101511ADDAY141999GF106991041051017501001021MD1810201+9999
0134103380999991926040806004+52417+009750FM-12+001699999V0209999900461220001CN0020001N9+01001+00781100971ADDAA199002091AY161999GF102991999001000251031001KA1999N+99999MW1211EQDQ01+000002SCOTLCQ02+000032APCTENQ03+000002APC3  Q04 +03002ATMN  
0094103380999991926040906004+52417+009750FM-12+001699999V02099999004619999999N0100001N9+00721+99999100771ADDAA199000691AY161999GF108991999051008001001001KA1999N+00501MD1310061+9999EQDQ01+000042SCOTLC
0081103380999991926041006004+52417+009750FM-12+001699999V0209999900461004501CN0040001N9+00611+00391100631ADDAA199001091AY161999GF108991061051004501021001KA1999N+00281MD1810201+9999MW1211
0000103380999991926041106004+52417+009750FM-12+001699999V02099999004619999999N9999999N9+99999+99999101791
0057103380999991926041206004+52417+009750FM-12+001699999V0209999900101000151CN0000501N9-00111-00171102021ADDAY141999GF108991081051000251999999MD1310061+9999MW1471
0051103380999991926041306004+52417+009750FM-12+001699999V0209999900261220001CN0020001N9+00281-00111102001ADDAY141999GF100991001001999999001001MD1310061+9999
0075103380999991926041406004+52417+009750FM-12+001699999V0209999900101220001CN0100001N9+00721+00671102441ADDAA199090091AY101999GF104991999999002501999999KA1999N+00001MD1310141+9999
0064103380999991926041506004+52417+009750FM-12+001699999V0209999900101220001CN0020001N9+00891+00441101911ADDAY141999GF100991001001999999001001KA1999N+00391MD1810061+9999
0064103380999991926041606004+52417+009750FM-12+001699999V0209999900261030001CN0100001N9+01281+00611100971ADDAY111999GF106991021051012501031001KA1999N+00781MD1010061+9999
0075103380999991926041706004+52417+009750FM-12+001699999V0209999900461030001CN0200001N9+00781+00171100481ADDAA199002091AY121999GF108991021051017501021001KA1999N+00281MD1110061+9999
0000103380999991926041806004+52417+009750FM-12+001699999V02099999004619999999N9999999N9+99999+99999100381
0070103380999991926041906004+52417+009750FM-12+001699999V0209999900261030001CN0040001N9+00721+00331099581ADDAY121999GF108991041061008001021001KA1999N+00221MD1810261+9999MW1501
0072103380999991926042006004+52417+009750FM-12+001699999V0209999900461030001CN0040001N9+00721+00331100031ADDAY111999GF106991021051017501031001EQDQ01+000032APCTENQ02+000002APC3  
0081103380999991926042106004+52417+009750FM-12+001699999V0209999900461030001CN0200001N9+00781+00561099221ADDAA199001091AY161999GF108991041061002501021001KA1999N+00501MD1810061+9999MW1631
0100103380999991926042206004+52417+009750FM-12+001699999V02099999002619999999N0040001N9+00721+00501099841ADDAA199002091AY161999GF108991999061004501001001KA1999N+00611MD1310201+9999MW1501EQDQ01+000042SCOTLC
0064103380999991926042306004+52417+009750FM-12+001699999V0209999900101220001CN0020001N9+00781+00391100991ADDAY141999GF100991001001999999001001KA1999N+00111MD1310201+9999
0067103380999991926042406004+52417+009750FM-12+001699999V0209991C00001002401CN0005001N9+00111+00061101901ADDGF108991081051002501999999KA1999N-00111MW1451EQDQ01+009992WODIR 
0019103380999991926042506004+52417+009750FM-12+001699999V0209991C000019999999N9999999N9+99999+99999100831EQDQ01+009992WODIR 
0064103380999991926042606004+52417+009750FM-12+001699999V0209999900261220001CN0100001N9+01501+00611100331ADDAY101999GF101991001001999999001081KA1999N+01111MD1310141+9999
0081103380999991926042706004+52417+009750FM-12+001699999V0209999900461002401CN0040001N9+00891+00831101221ADDAA199002091AY161999GF108991081061002501999999KA1999N+00891MD1310201+9999MW1511
0083103380999991926042806004+52417+009750FM-12+001699999V0209991C00001220001CN0020001N9+01001+00781101671ADDAY141999GF100991001001999999001001KA1999N+00281MD1310061+9999EQDQ01+009992WODIR 
0070103380999991926042906004+52417+009750FM-12+001699999V02099999006719999999N0020001N9+00891+00831101311ADDAY141999GF107991999051004501001001MD1810061+9999EQDQ01+000042SCOTLC
0085103380999991926043006004+52417+009750FM-12+001699999V0209999900101030001CN0020001N9+01111+01061101311ADDAY121999GF107991041051012501031001KA1999N+00891EQDQ01+000032APCTENQ02+000002APC3  
0000103380999991926050206004+52417+009750FM-12+001699999V02099999001019999999N9999999N9+99999+99999101031
0070103380999991926050312004+52417+009750FM-12+001699999V0200501N004619999999N0200001N9+01281+00111102121ADDAY111999GF107991999011012501001001MD1810061+9999EQDQ01+000042SCOTLC
0070103380999991926050412004+52417+009750FM-12+001699999V0200501N006719999999N0200001N9+01281-00221101311ADDAY111999GF106991999011012501001001MD1610061+9999EQDQ01+000042SCOTLC
0086103380999991926050512004+52417+009750FM-12+001699999V0209991C000019999999N0200001N9+01111-00331100991ADDAY111999GF106991999011012501001001MD1810061+9999EQDQ01+001102WODIR Q02+000042SCOTLC
0076103380999991926050812004+52417+009750FM-12+001699999V0201801N004619999999N0040001N9+00721+00501100861ADDAY181999GF107991999061004501001001MD1510141+9999MW1641EQDQ01+000042SCOTLC
0000103380999991926050906004+52417+009750FM-12+001699999V02099999004619999999N9999999N9+99999+99999100991
0051103380999991926051012004+52417+009750FM-12+001699999V0202501N00671030001CN0040001N9+01221+00061100861ADDAY111999GF106991041051012501031001MD1610061+9999
0088103380999991926051112004+52417+009750FM-12+001699999V0202301N002619999999N0040001N9+01281+00391100731ADDAY181999GF108991999091008001001001EQDQ01+000042SCOTLCQ02+000032APCTENQ03+000002APC3  
0072103380999991926051212004+52417+009750FM-12+001699999V0202301N00931220001CN0100001N9+01781+00221100841ADDAY111999GF104991041011022501001001EQDQ01+000032APCTENQ02+000002APC3  
0057103380999991926051312004+52417+009750FM-12+001699999V0202501N00671004501CN0100001N9+01111+00671101031ADDAY181999GF108991081051004501999999MD1410001+9999MW1631
0072103380999991926051412004+52417+009750FM-12+001699999V0202301N00671220001CN0100001N9+01721+00171101151ADDAY101999GF102991021011017501001081EQDQ01+000082APCTENQ02+000002APC3  
0076103380999991926051512004+52417+009750FM-12+001699999V0200501N00461002401CN0040001N9+00891+00831100431ADDAY161999GF108991999061002501001001MD1810201+9999MW1631EQDQ01+000062SCOTLC
0000103380999991926051606004+52417+009750FM-12+001699999V02099999004619999999N9999999N9+99999+99999100551
0057103380999991926051712004+52417+009750FM-12+001699999V0203201N00461001501CN0020001N9+00781+00721100591ADDAY161999GF108991081061001501999999MD1310201+9999MW1511
0070103380999991926051812004+52417+009750FM-12+001699999V0202301N001019999999N0100001N9+01111+00221101321ADDAY111999GF106991999011012501001001MD1310061+9999EQDQ01+000042SCOTLC
0051103380999991926051912004+52417+009750FM-12+001699999V0201601N00461220001CN0100001N9+01281+00111101641ADDAY111999GF104991041011022501001001MD1810061+9999
0051103380999991926052112004+52417+009750FM-12+001699999V0200901N00671220001CN0200001N9+02001+00781101791ADDAY111999GF104991041011022501001001MD1810061+9999
0000103380999991926052306004+52417+009750FM-12+001699999V02099999006719999999N9999999N9+99999+99999101311
0057103380999991926052512004+52417+009750FM-12+001699999V0202701N00461002401CN0040001N9+01221+01171102101ADDAY161999GF108991081061002501999999MD1310061+9999MW1501
0051103380999991926052612004+52417+009750FM-12+001699999V0200901N00101220001CN0200001N9+01781+00891102001ADDAY101999GF104991041011012501001001MD1810141+9999
0051103380999991926052812004+52417+009750FM-12+001699999V0202501N00101030001CN0100001N9+01891+00671101281ADDAY161999GF108991041051012501021001MD1810061+9999
0078103380999991926052912004+52417+009750FM-12+001699999V0202001N00461004501CN0040001N9+01611+01171100701ADDAY161999GF108991081051004501999999MW1211EQDQ01+000082APCTENQ02+000002APC3  
0000103380999991926053006004+52417+009750FM-12+001699999V02099999004619999999N9999999N9+99999+99999101001
0088103380999991926053112004+52417+009750FM-12+001699999V0201801N00931004501CN0200001N9+01891+01441100471ADDAY111999GF107991999091004501001001EQDQ01+000062SCOTLCQ02+000082APCTENQ03+000002APC3  
0051103380999991926060212004+52417+009750FM-12+001699999V0201401N01541220001CN0200001N9+02001+01061100801ADDAY111999GF104991041011022501001021MD1810201+9999
0088103380999991926060312004+52417+009750FM-12+001699999V0200501N004619999999N0200001N9+01501+01061100731ADDAY111999GF107991999011017501001001EQDQ01+000012SCOTLCQ02+000032APCTENQ03+000002APC3  
0051103380999991926060412004+52417+009750FM-12+001699999V0202701N00101007801CN0100001N9+01391+01171100861ADDAY121999GF108991061051008001021001MD1210061+9999
0051103380999991926060512004+52417+009750FM-12+001699999V0202901N00261030001CN0100001N9+01781+00891100821ADDAY111999GF108991041051012501021001MD1810061+9999
0000103380999991926060606004+52417+009750FM-12+001699999V02099999002619999999N9999999N9+99999+99999100831
0072103380999991926060812004+52417+009750FM-12+001699999V0202701N00671030001CN0100001N9+01891+01441100881ADDAY111999GF106991021011008001021001EQDQ01+000032APCTENQ02+000002APC3  
0051103380999991926060912004+52417+009750FM-12+001699999V0202001N004619999999N0040001N9+01781+01111101201ADDAY111999GF106991999999008001999999MD1810061+9999
0070103380999991926061112004+52417+009750FM-12+001699999V0202501N001019999999N0100001N9+01391+00941100691ADDAY111999GF106991999091008001001001MD1610061+9999EQDQ01+000042SCOTLC
0051103380999991926061212004+52417+009750FM-12+001699999V0201801N00461030001CN0100001N9+01611+00721100671ADDAY111999GF106991041011017501031001MD1810061+9999
0072103380999991926061412004+52417+009750FM-12+001699999V0202001N00101220001CN0200001N9+02001+01061100571ADDAY111999GF104991021011017501001091EQDQ01+000032APCTENQ02+000002APC3  
0072103380999991926061512004+52417+009750FM-12+001699999V0202901N00671030001CN0100001N9+01781+01111100801ADDAY121999GF108991041051004501021001EQDQ01+000032APCTENQ02+000002APC3  
0072103380999991926061612004+52417+009750FM-12+001699999V0202701N00261007801CN0040001N9+01721+01281101471ADDAY121999GF108991061051008001021001EQDQ01+000032APCTENQ02+000002APC3  
0037103380999991926061712004+52417+009750FM-12+001699999V0203201N002619999999N0100001N9+02001+99999100951ADDAY111999GF106991999999012501999999
0037103380999991926061812004+52417+009750FM-12+001699999V0201101N001019999999N0100001N9+01721+99999100301ADDAY111999GF106991999999012501999999
0000103380999991926062006004+52417+009750FM-12+001699999V02099999001019999999N9999999N9+99999+99999101861
0051103380999991926062112004+52417+009750FM-12+001699999V0202501N00261030001CN0040001N9+02001+01721101721ADDAY111999GF108991041051008001021001MD1810061+9999
0078103380999991926062212004+52417+009750FM-12+001699999V0202701N00461002401CN0020001N9+01611+01561101031ADDAY111999GF108991081061002501999999MW1611EQDQ01+000042APCTENQ02+000062APC3  
0070103380999991926062412004+52417+009750FM-12+001699999V0202901N00261220001CN0200001N9+01781+00561101471ADDAY101999GF104991041011999999001001MD1810141+9999EQDQ01+000992SCOLCB
0070103380999991926062512004+52417+009750FM-12+001699999V0202701N00101220001CN0200001N9+01501+00831101911ADDAY111999GF104991999011012501001001MD1010061+9999EQDQ01+000022SCOTLC
0037103380999991926062612004+52417+009750FM-12+001699999V0202701N002619999999N0200001N9+01501+99999102161ADDAY181999GF106991999999012501999999
0000103380999991926062706004+52417+009750FM-12+001699999V02099999002619999999N9999999N9+99999+99999102431
0072103380999991926062812004+52417+009750FM-12+001699999V0203401N00101220001CN0200001N9+01891+00671102741ADDAY111999GF104991041011022501031001EQDQ01+000032APCTENQ02+000002APC3  
0051103380999991926062912004+52417+009750FM-12+001699999V0203601N00101220001CN0200001N9+02001+00781102831ADDAY111999GF104991041011017501001001MD1810141+9999
0037103380999991926063012004+52417+009750FM-12+001699999V0200201N001019999999N0200001N9+02001+99999102571ADDAY101999GF106991021051004501999999
0051103380999991926070212004+52417+009750FM-12+001699999V0200501N00461075001CN0200001N9+02391+01111102101ADDAY111999GF106991041011022501001021MD1810141+9999
0070103380999991926070312004+52417+009750FM-12+001699999V0200501N00101220001CN0200001N9+02391+01721101801ADDAY111999GF102991999051012501021001MD1810061+9999EQDQ01+000062SCOTLC
0000103380999991926070406004+52417+009750FM-12+001699999V02099999001019999999N9999999N9+99999+99999101501
0051103380999991926070512004+52417+009750FM-12+001699999V0200501N00461004501CN0040001N9+01891+01611100871ADDAY111999GF108991061051004501021001MD1810201+9999
0051103380999991926070712004+52417+009750FM-12+001699999V0200201N00261220001CN0100001N9+02391+01721101181ADDAY111999GF104991041011012501001021MD1810061+9999
0051103380999991926070812004+52417+009750FM-12+001699999V0200201N00261012301CN0200001N9+02721+01721101181ADDAY111999GF106991061011012501001021MD1810141+9999
0051103380999991926070912004+52417+009750FM-12+001699999V0209991C00001012301CN0200001N9+02501+01561101361ADDAY111999GF106991061011012501001001MD1810201+9999
0019103380999991926071106004+52417+009750FM-12+001699999V0209991C000019999999N9999999N9+99999+99999101501EQDQ01+009992WODIR 
0057103380999991926072012004+52417+009750FM-12+001699999V0202301N00461030001CN0020001N9+02111+01671100471ADDAY181999GF106991041091008001021001MD1810061+9999MW1211
0072103380999991926072112004+52417+009750FM-12+001699999V0202701N01231004501CN0040001N9+01891+01221100951ADDAY111999GF107991061051004501021001EQDQ01+000032APCTENQ02+000002APC3  
0051103380999991926072212004+52417+009750FM-12+001699999V0203201N01231220001CN0100001N9+02001+01061101101ADDAY111999GF104991041011012501001001MD1310201+9999
0051103380999991926072312004+52417+009750FM-12+001699999V0202501N00261007801CN0040001N9+02221+01561101571ADDAY111999GF107991061051008001021001MD1810061+9999
0051103380999991926072412004+52417+009750FM-12+001699999V0201601N00461220001CN0200001N9+02611+01611101141ADDAY101999GF102991011011017501001021MD1810261+9999
0000103380999991926072506004+52417+009750FM-12+001699999V02099999004619999999N9999999N9+99999+99999101811
0051103380999991926072612004+52417+009750FM-12+001699999V0202701N00671012301CN0200001N9+01781+00891101201ADDAY111999GF106991061011012501001001MD1310061+9999
0037103380999991926072712004+52417+009750FM-12+001699999V0202901N006719999999N0500001N9+02001+99999101621ADDAY111999GF106991999999012501999999
0076103380999991926072812004+52417+009750FM-12+001699999V0202901N00671002401CN0040001N9+01391+00941101411ADDAY181999GF108991999061002501001001MD1810141+9999MW1501EQDQ01+000062SCOTLC
0057103380999991926072912004+52417+009750FM-12+001699999V0202901N00461004501CN0040001N9+01391+01331101231ADDAY161999GF108991081061004501999999MD1310061+9999MW1621
0088103380999991926073012004+52417+009750FM-12+001699999V0202701N00671002401CN0100001N9+01501+01281101551ADDAY161999GF108991999061002501001001EQDQ01+000062SCOTLCQ02+000032APCTENQ03+000002APC3  
0051103380999991926073112004+52417+009750FM-12+001699999V0202901N00461002401CN0040001N9+01781+01331102071ADDAY111999GF108991061051002501021001MD1310061+9999
0000103380999991926080106004+52417+009750FM-12+001699999V02099999004619999999N9999999N9+99999+99999102211
0088103380999991926080206004+52417+009750FM-12+001699999V02099999001019999999N0040001N9+01391+01331102191ADDAY141999GF107991999051004501001001EQDQ01+000022SCOTLCQ02+000042APCTENQ03+000142APC3  
0070103380999991926080406004+52417+009750FM-12+001699999V02099999001019999999N0040001N9+01611+01331102121ADDAY111999GF106991999011004501001001MD1110141+9999EQDQ01+000022SCOTLC
0072103380999991926080506004+52417+009750FM-12+001699999V0209999900261012301CN0100001N9+01391+00941102371ADDAY111999GF107991071051012501001001EQDQ01+000012APCTENQ02+000002APC3  
0078103380999991926080606004+52417+009750FM-12+001699999V0209999900101001501CN0010001N9+01391+01331102331ADDAY141999GF108991081051001501999999MW1101EQDQ01+000032APCTENQ02+000002APC3  
0051103380999991926080706004+52417+009750FM-12+001699999V0209999900101030001CN0020001N9+01611+01331101551ADDAY141999GF108991041061002501021001MD1810141+9999
0000103380999991926080806004+52417+009750FM-12+001699999V02099999001019999999N9999999N9+99999+99999101681
0000103380999991926081506004+52417+009750FM-12+001699999V02099999001019999999N9999999N9+99999+99999101671
0000103380999991926082206004+52417+009750FM-12+001699999V02099999001019999999N9999999N9+99999+99999100881
0000103380999991926082906004+52417+009750FM-12+001699999V02099999001019999999N9999999N9+99999+99999102801
0064103380999991926090106004+52417+009750FM-12+001699999V0209999900101220001CN0020001N9+01891+01441101891ADDAY101999GF102991001001999999001021KA1999N+01221MD1310061+9999
0064103380999991926090206004+52417+009750FM-12+001699999V0209999900101220001CN0020001N9+01891+01611101661ADDAY141999GF104991001001999999001021KA1999N+01281MD1510001+9999
0101103380999991926090306004+52417+009750FM-12+001699999V0209999900261002401CN0020001N9+01781+01721101471ADDAY141999GF108991999051002501001001KA1999N+01501EQDQ01+000062SCOTLCQ02+000032APCTENQ03+000002APC3  
0081103380999991926090406004+52417+009750FM-12+001699999V0209999900101000601CN0002001N9+01611+01561101891ADDAA199000691AY141999GF108991081051000751999999KA1999N+01281MD1310141+9999MW1431
0000103380999991926090506004+52417+009750FM-12+001699999V02099999001019999999N9999999N9+99999+99999102241
0083103380999991926090606004+52417+009750FM-12+001699999V0209999900261002401CN0020001N9+01781+01561102101ADDAY141999GF107991999051002501001001KA1999N+01611MD1810061+9999EQDQ01+000062SCOTLC
0081103380999991926090706004+52417+009750FM-12+001699999V0209999900101000601CN0005001N9+01501+01441101711ADDAA199010091AY161999GF108991081061000751999999KA1999N+01391MD1610061+9999MW1531
0094103380999991926090806004+52417+009750FM-12+001699999V02099999004619999999N0100001N9+01501+01281101811ADDAA199011091AY111999GF106991999011004501001001KA1999N+01111MD1310201+9999EQDQ01+000022SCOTLC
0085103380999991926090906004+52417+009750FM-12+001699999V0209999900261012301CN0040001N9+01221+01171102391ADDAY141999GF107991061051012501021001KA1999N+00781EQDQ01+000032APCTENQ02+000002APC3  
0075103380999991926091006004+52417+009750FM-12+001699999V0209999900261030001CN0040001N9+01781+01561101721ADDAA199001091AY141999GF106991021011022501031001KA1999N+01391MD1610141+9999
0064103380999991926091106004+52417+009750FM-12+001699999V0209999900261220001CN0040001N9+01891+01221101321ADDAY111999GF104991001001999999031021KA1999N+01501MD1610061+9999
0000103380999991926091206004+52417+009750FM-12+001699999V02099999002619999999N9999999N9+99999+99999100901
0075103380999991926091306004+52417+009750FM-12+001699999V0209999900671030001CN0040001N9+01391+01331101091ADDAA199003091AY111999GF106991041011008001031001KA1999N+01221MD1310141+9999
0064103380999991926091406004+52417+009750FM-12+001699999V0209999900931030001CN0040001N9+01281+01061101801ADDAY111999GF106991041051008001031001KA1999N+01221MD1210061+9999
0051103380999991926091506004+52417+009750FM-12+001699999V0209999900461030001CN0040001N9+01281+01061102101ADDAY121999GF108991041051004501021001MD1810141+9999
0075103380999991926091606004+52417+009750FM-12+001699999V0209999900461220001CN0100001N9+01221+01001101841ADDAA199011091AY161999GF104991041011008001031001KA1999N+01111MD1310141+9999
0075103380999991926091706004+52417+009750FM-12+001699999V0209999900101030001CN0020001N9+01001+00941102531ADDAA199000691AY111999GF107991041051008001031001KA1999N+00501MD1310061+9999
0064103380999991926091806004+52417+009750FM-12+001699999V0209999900101220001CN0020001N9+01281+01061102511ADDAY141999GF100991001001999999001001KA1999N+00781MD1410001+9999
0000103380999991926091906004+52417+009750FM-12+001699999V02099999001019999999N9999999N9+99999+99999102471
0091103380999991926092006004+52417+009750FM-12+001699999V0209999900461000151CN0000501N9+01281+01221102291ADDAY141999GF108991081051000251999999KA1999N+01221MW1451EQDQ01+000032APCTENQ02+000002APC3  
0083103380999991926092106004+52417+009750FM-12+001699999V0209991C00001220001CN0040001N9+01221+01171102171ADDAY111999GF104991021051012501031001KA1999N+01001MD1210061+9999EQDQ01+009992WODIR 
0091103380999991926092206004+52417+009750FM-12+001699999V0209999900101000151CN0000501N9+01111+01061102311ADDAY141999GF108991081051000251999999KA1999N+00611MW1451EQDQ01+000042APCTENQ02+000062APC3  
0089103380999991926092306004+52417+009750FM-12+001699999V02099999006719999999N0200001N9+01111+00891102231ADDAY111999GF106991999061004501001001KA1999N+00781MD1410001+9999MW1501EQDQ01+000042SCOTLC
0096103380999991926092406004+52417+009750FM-12+001699999V0209999900101075001CN0040001N9+00891+00671101931ADDAA199000691AY111999GF106991021051017501001081KA1999N+00721EQDQ01+000032APCTENQ02+000002APC3  
0064103380999991926092506004+52417+009750FM-12+001699999V0209999900671030001CN0040001N9+00781+00561100791ADDAY111999GF106991041051008001031001KA1999N+00611MD1810201+9999
0000103380999991926092606004+52417+009750FM-12+001699999V02099999006719999999N9999999N9+99999+99999100821
0102103380999991926092706004+52417+009750FM-12+001699999V0209999900261220001CN0040001N9+00891+00831100791ADDAA199000591AY161999GF104991041061004501021001KA1999N+00781MW1611EQDQ01+000032APCTENQ02+000002APC3  
0081103380999991926092806004+52417+009750FM-12+001699999V0209999900461004501CN0040001N9+00781+00561101131ADDAA199002091AY161999GF108991061061004501021001KA1999N+00721MD1710061+9999MW1621
0075103380999991926092906004+52417+009750FM-12+001699999V0209999900461220001CN0040001N9+00781+00721102111ADDAA199000691AY111999GF106991001001999999031081KA1999N+00611MD1310141+9999
0075103380999991926093006004+52417+009750FM-12+001699999V0209999900261007801CN0100001N9+00781+00721102791ADDAA199001091AY141999GF107991071051008001001001KA1999N+00611MD1310201+9999
0085103380999991926100106004+52417+009750FM-12+001699999V0209999900101030001CN0020001N9+00781+00721102901ADDAY141999GF107991041051004501021001KA1999N+00501EQDQ01+000032APCTENQ02+000002APC3  
0107103380999991926100206004+52417+009750FM-12+001699999V0209991C00001000151CN0000501N9+01111+01061102901ADDAY141999GF108991081051000251999999KA1999N+01001MW1451EQDQ01+009992WODIR Q02+000032APCTENQ03+000002APC3  
0019103380999991926100306004+52417+009750FM-12+001699999V0209991C000019999999N9999999N9+99999+99999103031EQDQ01+009992WODIR 
0070103380999991926100406004+52417+009750FM-12+001699999V0209999900101000151CN0000501N9+01221+01171103181ADDAY141999GF108991081051000251999999KA1999N+01001MD1310061+9999MW1451
0101103380999991926100506004+52417+009750FM-12+001699999V02099999001019999999N0040001N9+01111+01061103371ADDAY111999GF106991999011008001001001KA1999N+01001EQDQ01+000042SCOTLCQ02+000032APCTENQ03+000002APC3  
0070103380999991926100606004+52417+009750FM-12+001699999V0209999900101000151CN0000001N9+00501+00441102751ADDAY141999GF108991081051000251999999KA1999N+00391MD1810061+9999MW1451
0064103380999991926100706004+52417+009750FM-12+001699999V0209999900261220001CN0020001N9+01111+01061101791ADDAY141999GF104991041051002501001001KA1999N+00001MD1810141+9999
0096103380999991926100806004+52417+009750FM-12+001699999V0209999900101030001CN0020001N9+01281+01221101431ADDAA199001091AY141999GF106991041051002501021001KA1999N+01221EQDQ01+000032APCTENQ02+000002APC3  
0075103380999991926100906004+52417+009750FM-12+001699999V0209999900461004501CN0100001N9+01391+01331100171ADDAA199002091AY161999GF107991071051004501021001KA1999N+01221MD1810201+9999
0000103380999991926101006004+52417+009750FM-12+001699999V02099999004619999999N9999999N9+99999+99999099301
0064103380999991926101106004+52417+009750FM-12+001699999V0209999900461220001CN0100001N9+00611+00391101241ADDAY101999GF104991001001999999001021KA1999N+00611MD1310201+9999
0096103380999991926101206004+52417+009750FM-12+001699999V0209999901541220001CN0100001N9+01001+00941099941ADDAA199006091AY111999GF104991041051004501031001KA1999N+00891EQDQ01+000042APCTENQ02+000062APC3  
0100103380999991926101306004+52417+009750FM-12+001699999V02099999009319999999N0040001N9+01501+01441099681ADDAA199012091AY161999GF106991999061002501001001KA1999N+00501MD1810141+9999MW1631EQDQ01+000042SCOTLC
0100103380999991926101406004+52417+009750FM-12+001699999V02099999004619999999N0040001N9+01281+01061100521ADDAA199002091AY161999GF108991999061002501001001KA1999N+01111MD1710061+9999MW1611EQDQ01+000042SCOTLC
0081103380999991926101506004+52417+009750FM-12+001699999V0209999900261002401CN0040001N9+00891+00831100671ADDAA199015091AY161999GF108991081061002501999999KA1999N+00781MD1310141+9999MW1631
0075103380999991926101606004+52417+009750FM-12+001699999V0209999900461004501CN0040001N9+00721+00671101221ADDAA199025091AY161999GF108991061051004501021001KA1999N+00611MD1310261+9999
0000103380999991926101706004+52417+009750FM-12+001699999V02099999004619999999N9999999N9+99999+99999101641
0075103380999991926101806004+52417+009750FM-12+001699999V0209999900461220001CN0100001N9+00281+00221102021ADDAA199000591AY101999GF104991041011008001031001KA1999N+00221MD1310141+9999
0075103380999991926101906004+52417+009750FM-12+001699999V0209999900671220001CN0100001N9+00391+00171102111ADDAA199000691AY101999GF104991021051012501031001KA1999N+00221MD1610061+9999
0075103380999991926102006004+52417+009750FM-12+001699999V0209999900261220001CN0100001N9+00281+00221101871ADDAA199001091AY111999GF104991021051008001001021KA1999N+00221MD1810061+9999
0081103380999991926102106004+52417+009750FM-12+001699999V0209999900101000151CN0000501N9+00111+00061100931ADDAA199000691AY141999GF108991081051000251999999KA1999N-00111MD1810141+9999MW1451
0100103380999991926102206004+52417+009750FM-12+001699999V0209999900461002401CN0040001N9+00221+00171099711ADDAA199004091AY161999GF108991999061002501001001KA1999N+00221MD1810061+9999MW1611EQDQ01+000062SCOTLC
0085103380999991926102306004+52417+009750FM-12+001699999V0209999900261220001CN0100001N9-00111-00171100331ADDAY111999GF102991011051012501001021KA1999N-00221EQDQ01+000032APCTENQ02+000002APC3  
0000103380999991926102406004+52417+009750FM-12+001699999V02099999002619999999N9999999N9+99999+99999100371
0064103380999991926102506004+52417+009750FM-12+001699999V0209999900671007801CN0100001N9+00391+00001100791ADDAY111999GF108991061051008001021001KA1999N-00221MD1810261+9999
0094103380999991926102606004+52417+009750FM-12+001699999V02099999004619999999N0100001N9+00501+00281099621ADDAA199005091AY161999GF106991999061004501001001KA1999N+00391MD1310141+9999EQDQ01+000022SCOTLC
0075103380999991926102706004+52417+009750FM-12+001699999V0209999900261220001CN0100001N9+00221+00001101671ADDAA199002091AY111999GF104991041051004501001021KA1999N+00221MD1310261+9999
0089103380999991926102806004+52417+009750FM-12+001699999V02099999002619999999N0010001N9-00111-00171101411ADDAY141999GF106991999001022501021021KA1999N-00111MD1810141+9999MW1101EQDQ01+000002SCOTLC
0112103380999991926102906004+52417+009750FM-12+001699999V02099999002619999999N0020001N9+00781+00721099221ADDAA199001091AY141999GF108991999051002501001001KA1999N+00391EQDQ01+000042SCOTLCQ02+000032APCTENQ03+000002APC3  
0100103380999991926103006004+52417+009750FM-12+001699999V02099999002619999999N0020001N9+00501+00441100021ADDAA199002091AY161999GF108991999061001501001001KA1999N+00391MD1310341+9999MW1501EQDQ01+000042SCOTLC
0000103380999991926103106004+52417+009750FM-12+001699999V02099999002619999999N9999999N9+99999+99999100821
0081103380999991926110106004+52417+009750FM-12+001699999V0209999900261000601CN0002001N9+00111+00061101041ADDAA199000691AY171999GF108991081061000751999999KA1999N+00001MD1310141+9999MW1731
0083103380999991926110206004+52417+009750FM-12+001699999V0209999900671004501CN0040001N9+00111-00111102351ADDAY121999GF107991999051004501001001KA1999N-00391MD1810201+9999EQDQ01+000062SCOTLC
0102103380999991926110306004+52417+009750FM-12+001699999V0209999900101002401CN0005001N9+00221+00171101281ADDAA199002091AY141999GF108991081051002501999999KA1999N+00111MW1431EQDQ01+000032APCTENQ02+000002APC3  
0075103380999991926110406004+52417+009750FM-12+001699999V0209999900261004501CN0020001N9+00221+00171101541ADDAA199000391AY141999GF106991061051004501001001KA1999N+00111MD1310061+9999
0081103380999991926110506004+52417+009750FM-12+001699999V0209999900101000151CN0000001N9+00281+00221101181ADDAA199000391AY141999GF108991081051000251999999KA1999N+00281MD1610061+9999MW1451
0075103380999991926110606004+52417+009750FM-12+001699999V0209999900261220001CN0020001N9+00781+00561100931ADDAA199002091AY111999GF104991011051008001001021KA1999N+00721MD1310201+9999
0075103380999991926110706004+52417+009750FM-12+001699999V0209999900461007801CN0200001N9+00891+00671099811ADDAA199010091AY161999GF106991061051008001001081KA1999N+00721MD1310201+9999
0075103380999991926110806004+52417+009750FM-12+001699999V0209999900261220001CN0040001N9+00501+00441100531ADDAA199012091AY111999GF104991021051008001001021KA1999N+00501MD1310261+9999
0075103380999991926110906004+52417+009750FM-12+001699999V0209999900461007801CN0040001N9+00891+00671099491ADDAA199000691AY111999GF107991061051008001031001KA1999N+00611MD1410001+9999
0064103380999991926111006004+52417+009750FM-12+001699999V0209999900461220001CN0040001N9+00721+00501101261ADDAY111999GF101991011051017501001001KA1999N+00611MD1310201+9999
0083103380999991926111106004+52417+009750FM-12+001699999V02099999002619999999N0040001N9+00391+00331101751ADDAY101999GF106991999001022501031081KA1999N+00281MD1310141+9999EQDQ01+000002SCOTLC
0107103380999991926111206004+52417+009750FM-12+001699999V0209999900101220001CN0005001N9+00221+00171101491ADDAY141999GF102991999001022501021021KA1999N+00111MW1441EQDQ01+000002SCOTLCQ02+000032APCTENQ03+000002APC3  
0064103380999991926111306004+52417+009750FM-12+001699999V0209999900461007801CN0020001N9+00721+00501101221ADDAY111999GF106991061051008001001001KA1999N+00221MD1310061+9999
0000103380999991926111406004+52417+009750FM-12+001699999V02099999004619999999N9999999N9+99999+99999100231
0100103380999991926111506004+52417+009750FM-12+001699999V0209999900931220001CN0040001N9+00891+00441102021ADDAA199000591AY181999GF101991999061004501001001KA1999N+00781MD1310341+9999MW1801EQDQ01+000022SCOTLC
0081103380999991926111606004+52417+009750FM-12+001699999V0209999900101002401CN0020001N9+01111+01061102241ADDAA199000391AY161999GF108991081061002501999999KA1999N+00891MD1310141+9999MW1511
0089103380999991926111706004+52417+009750FM-12+001699999V0209999900101220001CN0005001N9+00781+00721101941ADDAY141999GF106991999001999999031001KA1999N+00721MD1810141+9999MW1461EQDQ01+000002SCOTLC
0075103380999991926111806004+52417+009750FM-12+001699999V0209999900261012301CN0020001N9+01001+00941100431ADDAA199000691AY161999GF106991061051012501031001KA1999N+01001MD1810141+9999
0083103380999991926111906004+52417+009750FM-12+001699999V02099999001019999999N0010001N9+00781+00721099001ADDAY111999GF106991999001017501031021KA1999N+00721MD1810261+9999EQDQ01+000002SCOTLC
0083103380999991926112006004+52417+009750FM-12+001699999V0209999900261220001CN0040001N9+00721+00501099111ADDAY111999GF106991999001999999021001KA1999N+00611MD1310201+9999EQDQ01+000002SCOTLC
0000103380999991926112106004+52417+009750FM-12+001699999V02099999002619999999N9999999N9+99999+99999098631
0070103380999991926112206004+52417+009750FM-12+001699999V0209999900261220001CN0040001N9+00611+00391100291ADDAY101999GF102991999001022501021081MD1310141+9999EQDQ01+000002SCOTLC
0064103380999991926112306004+52417+009750FM-12+001699999V0209999900261030001CN0020001N9+00721+00331100661ADDAY111999GF106991041051012501021001KA1999N+00281MD1310141+9999
0064103380999991926112406004+52417+009750FM-12+001699999V0209999900461030001CN0040001N9+00721+00501101751ADDAY111999GF107991041051008001021001KA1999N+00391MD1310141+9999
0064103380999991926112506004+52417+009750FM-12+001699999V0209999900101030001CN0020001N9+00221+00171102461ADDAY111999GF107991041051012501021001KA1999N+00221MD1310141+9999
0091103380999991926112606004+52417+009750FM-12+001699999V0209999900101001501CN0002001N9+00221+00171102301ADDAY141999GF108991081051001501999999KA1999N+00221MW1471EQDQ01+000062APCTENQ02+000002APC3  
0096103380999991926112706004+52417+009750FM-12+001699999V0209999900101001501CN0020001N9+00281+00221101751ADDAA199001091AY121999GF108991081051001501999999KA1999N+00221EQDQ01+000082APCTENQ02+000002APC3  
0000103380999991926112806004+52417+009750FM-12+001699999V02099999001019999999N9999999N9+99999+99999101411
0107103380999991926112906004+52417+009750FM-12+001699999V02099999002619999999N0002001N9-00221-00281101511ADDAY141999GF106991999051000751001001KA1999N-00221MW1461EQDQ01+000042SCOTLCQ02+000042APCTENQ03+000062APC3  
0083103380999991926113006004+52417+009750FM-12+001699999V02099999004619999999N0020001N9+00001-00061101531ADDAY121999GF108991999051004501001001KA1999N-00111MD1610061+9999EQDQ01+000042SCOTLC
0064103380999991926120106004+52417+009750FM-12+001699999V0209999900261001501CN0010001N9+00111+00061101681ADDAY121999GF108991081051001501999999KA1999N+00001MD1310061+9999
0064103380999991926120206004+52417+009750FM-12+001699999V0209999900261004501CN0020001N9-00111-00171102021ADDAY121999GF108991081051004501999999KA1999N-00501MD1310141+9999
0083103380999991926120306004+52417+009750FM-12+001699999V02099999002619999999N0020001N9+00111-00111101091ADDAY141999GF108991999051004501001001KA1999N+00001MD1810141+9999EQDQ01+000042SCOTLC
0100103380999991926120406004+52417+009750FM-12+001699999V02099999002619999999N0010001N9+00221+00171099981ADDAA199004091AY161999GF108991999061001501001001KA1999N+00111MD1810061+9999MW1511EQDQ01+000042SCOTLC
0029103380999991926120506004+52417+009750FM-12+001699999V02099999002619999999N0000501N9+99999+99999101321ADDGF199999999999001501999999
0070103380999991926120606004+52417+009750FM-12+001699999V0209999900261220001CN0010001N9-00281-00331102881ADDAY141999GF102991001001999999001021KA1999N-00391MD1310341+9999MW1101
0107103380999991926120706004+52417+009750FM-12+001699999V02099999002619999999N0010001N9+00001-00061103261ADDAY121999GF108991999051002501001001KA1999N-00391MW1101EQDQ01+000042SCOTLCQ02+000042APCTENQ03+000062APC3  
0070103380999991926120806004+52417+009750FM-12+001699999V0209999900261001501CN0005001N9+00281+00221102671ADDAY161999GF108991081061001501999999KA1999N-00391MD1410001+9999MW1601
0051103380999991926120906004+52417+009750FM-12+001699999V0209999900261002401CN0020001N9+00611+00561103311ADDAY121999GF108991081051002501999999MD1310201+9999
0094103380999991926121006004+52417+009750FM-12+001699999V0209999900461001501CN0020001N9+00721+00671103231ADDAA199000591AY161999GF108991999051001501001001KA1999N+00611MD1310141+9999EQDQ01+000062SCOTLC
0134103380999991926121106004+52417+009750FM-12+001699999V02099999004619999999N0020001N9+00611+00561103531ADDAA199000391AY161999GF108991999061002501001001KA1999N+99999MW1211EQDQ01+000042SCOTLCQ02+000042APCTENQ03+000142APC3  Q04 +00722ATMN  
0029103380999991926121206004+52417+009750FM-12+001699999V02099999004619999999N0020001N9+99999+99999103331ADDGF199999999999002501999999
0089103380999991926121306004+52417+009750FM-12+001699999V0209999900101001501CN0010001N9+00391+00331102561ADDAY141999GF108991081051001501999999KA1999N+99999MD1810141+9999MW1101EQDQ01 +00502ATMN  
0083103380999991926121406004+52417+009750FM-12+001699999V02099999004619999999N0020001N9+00281+00221101631ADDAY161999GF108991999061001501001001KA1999N+00111MD1810201+9999EQDQ01+000022SCOTLC
0075103380999991926121506004+52417+009750FM-12+001699999V0209999900261220001CN0100001N9-00221-00281102081ADDAA199000391AY101999GF102991021051017501001001KA1999N-00221MD1310201+9999
0057103380999991926121606004+52417+009750FM-12+001699999V0209999900671002401CN0040001N9+00391+00171101771ADDAY161999GF108991081061002501999999MD1310141+9999MW1611
0118103380999991926121706004+52417+009750FM-12+001699999V02099999004619999999N0010001N9+00501+00441101281ADDAA199001091AY161999GF108991999061001501001001KA1999N+00391MW1501EQDQ01+000042SCOTLCQ02+000032APCTENQ03+000002APC3  
0094103380999991926121806004+52417+009750FM-12+001699999V0209999900671220001CN0040001N9+00391+00171099831ADDAA199006091AY111999GF101991999051017501031001KA1999N+00391MD1510061+9999EQDQ01+000062SCOTLC
0029103380999991926121906004+52417+009750FM-12+001699999V02099999006719999999N0020001N9+99999+99999101301ADDGF199999999999008001999999
0075103380999991926122006004+52417+009750FM-12+001699999V0209999900461030001CN0020001N9+00391+00171100991ADDAA199002091AY121999GF108991041051004501021001KA1999N+00221MD1810061+9999
0075103380999991926122106004+52417+009750FM-12+001699999V0209999900461004501CN0100001N9+00111-00441100781ADDAA199002091AY111999GF107991071051004501001001KA1999N+00111MD1310201+9999
0070103380999991926122206004+52417+009750FM-12+001699999V0209999900101001501CN0020001N9+00111+00061102001ADDAY171999GF108991081061001501999999KA1999N+00111MD1310201+9999MW1681
0064103380999991926122306004+52417+009750FM-12+001699999V0209999900261012301CN0040001N9-00391-00561104041ADDAY111999GF107991071051012501001001KA1999N-00501MD1310261+9999
0085103380999991926122406004+52417+009750FM-12+001699999V0209999900671220001CN0100001N9-00281-00441103831ADDAY101999GF100991001001999999001001KA1999N-00281EQDQ01+000032APCTENQ02+000002APC3  
0029103380999991926122506004+52417+009750FM-12+001699999V02099999006719999999N0020001N9+99999+99999103721ADDGF199999999999008001999999
0029103380999991926122606004+52417+009750FM-12+001699999V02099999006719999999N0010001N9+99999+99999103841ADDGF199999999999004501999999
0099103380999991926122706004+52417+009750FM-12+001699999V0209991C00001000601CN0020001N9-00391-00441103271ADDAY121999GF108991081051000751999999KA1999N+99999MD1810261+9999EQDQ01+009992WODIR Q02 -00282ATMN  
0035103380999991926122806004+52417+009750FM-12+001699999V0202701N006719999999N0002001N9+00111+99999101621ADDGF199999999999001501999999MW1631
0075103380999991926122906004+52417+009750FM-12+001699999V0209999900931002401CN0020001N9+00501+00441100161ADDAA199004091AY111999GF106991061051002501001001KA1999N+00221MD1810061+9999
0100103380999991926123006004+52417+009750FM-12+001699999V02099999009319999999N0020001N9+00391+00331101281ADDAA199000391AY181999GF108991999061002501001001KA1999N+00111MD1810061+9999MW1521EQDQ01+000042SCOTLC
0081103380999991926123106004+52417+009750FM-12+001699999V0209999900931002401CN0010001N9+00501+00441101431ADDAA199001091AY161999GF108991081061002501999999KA1999N+00501MD1310061+9999MW1531
