0029103380999991927010106004+52417+009750FM-12+001699999V02099999009319999999N0020001N9+99999+99999101791ADDGF199999999999004501999999
0029103380999991927010206004+52417+009750FM-12+001699999V02099999009319999999N0020001N9+99999+99999101931ADDGF199999999999004501999999
0051103380999991927010306004+52417+009750FM-12+001699999V0209999900261004501CN0040001N9+00501+00441101891ADDAY121999GF108991081051004501999999MD1810141+9999
0057103380999991927010406004+52417+009750FM-12+001699999V0209999900261001501CN0020001N9+00221+00171100521ADDAY161999GF108991081061001501999999MD1610061+9999MW1601
0075103380999991927010506004+52417+009750FM-12+001699999V0209999900671220001CN0100001N9+00001-00221101491ADDAA199001091AY111999GF102991021051008001001001KA1999N+00001MD1310141+9999
0057103380999991927010606004+52417+009750FM-12+001699999V0209999900101001501CN0010001N9+00001-00061101621ADDAY121999GF108991081051001501999999MD1510061+9999MW1101
0094103380999991927010706004+52417+009750FM-12+001699999V02099999002619999999N0020001N9+00501+00281100671ADDAA199002091AY121999GF108991999051002501001001KA1999N+00221MD1810141+9999EQDQ01+000042SCOTLC
0081103380999991927010806004+52417+009750FM-12+001699999V0209991C00001000601CN0005001N9+00281+00221101641ADDAA199001091AY161999GF108991081061000751999999KA1999N+00221MD1310261+9999MW1611
0048103380999991927010906004+52417+009750FM-12+001699999V0209991C000019999999N0010001N9+99999+99999101661ADDGF199999999999004501999999EQDQ01+009992WODIR 
0081103380999991927011006004+52417+009750FM-12+001699999V0209999900671001501CN0010001N9+00781+00721101911ADDAA199001091AY161999GF108991081061001501999999KA1999N+00611MD1610061+9999MW1611
0100103380999991927011106004+52417+009750FM-12+001699999V02099999004619999999N0020001N9+00721+00671102371ADDAA199000391AY121999GF108991999061002501001001KA1999N+00501MD1310061+9999MW1501EQDQ01+000042SCOTLC
0081103380999991927011206004+52417+009750FM-12+001699999V0209999900931001501CN0010001N9+00721+00671101241ADDAA199000591AY161999GF108991081061001501999999KA1999N+00611MD1810201+9999MW1611
0075103380999991927011306004+52417+009750FM-12+001699999V0209999900101002401CN0020001N9+00611+00561099901ADDAA199001091AY121999GF108991081051002501999999KA1999N+00281MD1810401+9999
0075103380999991927011406004+52417+009750FM-12+001699999V0209999900931220001CN0100001N9+00281-00111099681ADDAA199000691AY111999GF104991041051004501031001KA1999N+00221MD1810141+9999
0085103380999991927011506004+52417+009750FM-12+001699999V0209999900261030001CN0020001N9+00501+00111099311ADDAY111999GF108991041051004501021001KA1999N+00391EQDQ01+000032APCTENQ02+000002APC3  
0029103380999991927011606004+52417+009750FM-12+001699999V02099999002619999999N0020001N9+99999+99999100061ADDGF199999999999012501999999
0100103380999991927011706004+52417+009750FM-12+001699999V0209991C00001001501CN0010001N9+00221+00171100131ADDAA199000691AY161999GF108991081061001501999999KA1999N+00001MD1610061+9999MW1611EQDQ01+009992WODIR 
0075103380999991927011806004+52417+009750FM-12+001699999V0209999900101030001CN0010001N9+00111-02061100241ADDAA199000391AY111999GF106991041051004501021001KA1999N+00111MD1310061+9999
0081103380999991927011906004+52417+009750FM-12+001699999V0209999900101000601CN0002001N9+00001-00061101171ADDAA199000691AY141999GF108991081061000751999999KA1999N-00111MD1310141+9999MW1711
0101103380999991927012006004+52417+009750FM-12+001699999V0200901N001019999999N0010001N9+00111+00061101601ADDAY121999GF108991999051002501001001KA1999N-00111EQDQ01+000042SCOTLCQ02+000082APCTENQ03+000002APC3  
0081103380999991927012106004+52417+009750FM-12+001699999V0209999900101000601CN0010001N9+00001-00061100871ADDAA199002091AY171999GF108991081061000751999999KA1999N+00001MD1610141+9999MW1711
0070103380999991927012206004+52417+009750FM-12+001699999V0209999900461000601CN0010001N9-00111+99999100121ADDAY171999GF108991081061000751999999KA1999N-00111MD1410001+9999MW1711
0029103380999991927012306004+52417+009750FM-12+001699999V02099999004619999999N0020001N9+99999+99999100791ADDGF199999999999004501999999
0070103380999991927012406004+52417+009750FM-12+001699999V0209999900101001501CN0005001N9+99999+99999101871ADDAY141999GF108991081061001501999999KA1999N-00891MD1310201+9999MW1441
0083103380999991927012506004+52417+009750FM-12+001699999V0209999900671220001CN0020001N9+00111-00111102401ADDAY101999GF104991999001999999021001KA1999N-00221MD1310061+9999EQDQ01+000002SCOTLC
0085103380999991927012606004+52417+009750FM-12+001699999V0209999900671220001CN0020001N9+00001-00221102501ADDAY101999GF104991021051012501031001KA1999N+00001EQDQ01+000042APCTENQ02+000142APC3  
0083103380999991927012706004+52417+009750FM-12+001699999V0209999900101220001CN0010001N9+00221+00001102131ADDAY101999GF104991999001017501021001KA1999N-00111MD1310201+9999EQDQ01+000002SCOTLC
0083103380999991927012806004+52417+009750FM-12+001699999V0209999900461220001CN0040001N9+00391+00001102241ADDAY101999GF102991999001022501031021KA1999N+00111MD1210201+9999EQDQ01+000002SCOTLC
0083103380999991927012906004+52417+009750FM-12+001699999V02099999006719999999N0100001N9+00391-00171100901ADDAY111999GF106991999051012501001001KA1999N+00281MD1810401+9999EQDQ01+000042SCOTLC
0029103380999991927013006004+52417+009750FM-12+001699999V02099999006719999999N0040001N9+99999+99999100261ADDGF199999999999008001999999
0094103380999991927013106004+52417+009750FM-12+001699999V0209999900671004501CN0040001N9+00501+00111099911ADDAA199000691AY121999GF108991999051004501001001KA1999N+00391MD1310141+9999EQDQ01+000062SCOTLC
0094103380999991927020106004+52417+009750FM-12+001699999V0209999900261002401CN0010001N9+00281+00061100201ADDAA199001091AY111999GF107991071051002501001001KA1999N+99999MD1310141+9999EQDQ01 +00392ATMN  
0064103380999991927020206004+52417+009750FM-12+001699999V0209999900261030001CN0020001N9+00281+00061100951ADDAY121999GF108991041051004501021001KA1999N+00221MD1310061+9999
0064103380999991927020306004+52417+009750FM-12+001699999V0209999900461075001CN0040001N9+00111+00061102711ADDAY101999GF106991041051004501001021KA1999N+00001MD1310461+9999
0081103380999991927020406004+52417+009750FM-12+001699999V0209999900261002401CN0020001N9+00391-00171102741ADDAA199000691AY161999GF108991081051002501999999KA1999N+00281MD1710141+9999MW1211
0064103380999991927020506004+52417+009750FM-12+001699999V0209999900671030001CN0020001N9+00281+00221102641ADDAY121999GF108991041051002501021001KA1999N+00221MD1310061+9999
0029103380999991927020606004+52417+009750FM-12+001699999V02099999006719999999N0010001N9+99999+99999102121ADDGF199999999999004501999999
0085103380999991927020706004+52417+009750FM-12+001699999V0209999900101004501CN0100001N9+00001-00331103301ADDAY111999GF107991071051004501001001KA1999N-00281EQDQ01+000042APCTENQ02+000202APC3  
0064103380999991927020806004+52417+009750FM-12+001699999V0209999900461007801CN0100001N9-00111-00611103621ADDAY111999GF108991081051008001999999KA1999N-00281MD1310061+9999
0083103380999991927020906004+52417+009750FM-12+001699999V0209999900261220001CN0040001N9-00501-00561103701ADDAY101999GF104991999001008001021001KA1999N-00721MD1310141+9999EQDQ01+000002SCOTLC
0085103380999991927021006004+52417+009750FM-12+001699999V0209999900101220001CN0020001N9-00611-00671103771ADDAY101999GF102991001001999999021021KA1999N-00611EQDQ01+000032APCTENQ02+000002APC3  
0070103380999991927021106004+52417+009750FM-12+001699999V0209999900461001501CN0002001N9-00281-00331103531ADDAY141999GF108991081051001501999999KA1999N-00391MD1410001+9999MW1451
0091103380999991927021206004+52417+009750FM-12+001699999V0209999900671000151CN0005001N9-00391-00441103511ADDAY141999GF108991081051000251999999KA1999N-00391MW1451EQDQ01+000082APCTENQ02+000002APC3  
0029103380999991927021306004+52417+009750FM-12+001699999V02099999006719999999N0010001N9+99999+99999103261ADDGF199999999999002501999999
0094103380999991927021406004+52417+009750FM-12+001699999V0209999900461220001CN0010001N9-00611-00781103401ADDAY141999GF104991999001022501021081MW1101EQDQ01+000002SCOTLCQ02+000032APCTENQ03+000002APC3  
0100103380999991927021506004+52417+009750FM-12+001699999V0209991C00001000151CN0000001N9+00221+00171103281ADDAA199001091AY141999GF108991081051000251999999KA1999N+00111MD1310141+9999MW1471EQDQ01+009992WODIR 
0081103380999991927021606004+52417+009750FM-12+001699999V0209999900101000151CN0000501N9+00111+00061102931ADDAA199001091AY141999GF108991081051000251999999KA1999N+00111MD1510061+9999MW1451
0100103380999991927021706004+52417+009750FM-12+001699999V02099999002619999999N0040001N9+00391+00331101901ADDAA199003091AY161999GF108991999061002501001001KA1999N+00281MD1510001+9999MW1501EQDQ01+000042SCOTLC
0064103380999991927021806004+52417+009750FM-12+001699999V0209999900101030001CN0040001N9-00221-00391102111ADDAY111999GF106991021011017501021001KA1999N-00391MD1310141+9999
0064103380999991927021906004+52417+009750FM-12+001699999V0209999900101004501CN0040001N9-00281-00611102671ADDAY121999GF107991071051004501001001KA1999N-00501MD1310201+9999
0029103380999991927022006004+52417+009750FM-12+001699999V02099999001019999999N0010001N9+99999+99999102331ADDGF199999999999012501999999
0064103380999991927022106004+52417+009750FM-12+001699999V0209999900461220001CN0020001N9-00221-00561100771ADDAY121999GF104991041051008001001001KA1999N-00281MD1810201+9999
0064103380999991927022206004+52417+009750FM-12+001699999V0209999900671220001CN0040001N9+00001-00221100611ADDAY111999GF104991021051012501031001KA1999N-00221MD1510061+9999
0064103380999991927022306004+52417+009750FM-12+001699999V0209999900461030001CN0040001N9+00391+00171100261ADDAY111999GF106991041051004501021001KA1999N+00111MD1610061+9999
0064103380999991927022406004+52417+009750FM-12+001699999V0209999900101220001CN0040001N9+00111-00111100901ADDAY101999GF101991001001999999001081KA1999N+00111MD1310061+9999
0083103380999991927022506004+52417+009750FM-12+001699999V0209999900261220001CN0040001N9+00391+00171100641ADDAY111999GF104991999001017501021001KA1999N+00281MD1310141+9999EQDQ01+000002SCOTLC
0075103380999991927022606004+52417+009750FM-12+001699999V0209999900261030001CN0040001N9+00891+00441100241ADDAA199003091AY111999GF107991041051004501021001KA1999N+00611MD1310201+9999
0029103380999991927022706004+52417+009750FM-12+001699999V02099999002619999999N0040001N9+99999+99999099991ADDGF199999999999008001999999
0075103380999991927022806004+52417+009750FM-12+001699999V0209999900671002401CN0040001N9+00781+00561100561ADDAA199003091AY161999GF108991081051002501999999KA1999N+00721MD1310141+9999
0064103380999991927030106004+52417+009750FM-12+001699999V0209999900261220001CN0020001N9+00721+00501100671ADDAY111999GF104991021051004501031001KA1999N+00611MD1310061+9999
0075103380999991927030206004+52417+009750FM-12+001699999V0209999900261004501CN0040001N9+00721+00501100781ADDAA199000591AY111999GF106991061051004501001021KA1999N+00611MD1310061+9999
0102103380999991927030306004+52417+009750FM-12+001699999V0209999900671001501CN0200001N9+00721+00501100201ADDAA199000391AY161999GF107991061061001501031001KA1999N+00721MW1211EQDQ01+000042APCTENQ02+000062APC3  
0075103380999991927030406004+52417+009750FM-12+001699999V0209999900261220001CN0040001N9+00391+00171101171ADDAA199003091AY101999GF102991011051017501031001KA1999N+00391MD1310141+9999
0064103380999991927030506004+52417+009750FM-12+001699999V0209999900461075001CN0100001N9+00611+00391100301ADDAY111999GF106991041051017501001081KA1999N+00001MD1610061+9999
0000103380999991927030606004+52417+009750FM-12+001699999V02099999004619999999N9999999N9+99999+99999099461
0112103380999991927030706004+52417+009750FM-12+001699999V02099999002619999999N0040001N9+00501+00281099901ADDAA199001091AY121999GF107991999051004501001001KA1999N+00281EQDQ01+000042SCOTLCQ02+000032APCTENQ03+000002APC3  
0081103380999991927030806004+52417+009750FM-12+001699999V0209999900461001501CN0020001N9+00501+00441099241ADDAA199000591AY161999GF108991081061001501999999KA1999N+00501MD1410001+9999MW1631
0094103380999991927030906004+52417+009750FM-12+001699999V02099999004619999999N0100001N9+00501+00281099551ADDAA199002091AY161999GF106991999051004501001001KA1999N+00221MD1310061+9999EQDQ01+000042SCOTLC
0089103380999991927031006004+52417+009750FM-12+001699999V0209991C00001220001CN0005001N9+00001-00061100351ADDAY141999GF104991041051008001001001KA1999N+00001MD1310141+9999MW1461EQDQ01+009992WODIR 
0075103380999991927031106004+52417+009750FM-12+001699999V0209999900261030001CN0020001N9+00281+00061101111ADDAA199000391AY121999GF106991041051004501021001KA1999N+00001MD1310141+9999
0110103380999991927031206004+52417+009750FM-12+001699999V0209991C000019999999N0020001N9+00221+00171101831ADDAA199000391AY121999GF106991999051004501001001KA1999N+00111MD1310201+9999EQDQ01+009992WODIR Q02+000042SCOTLC
0019103380999991927031306004+52417+009750FM-12+001699999V0209991C000019999999N9999999N9+99999+99999101991EQDQ01+009992WODIR 
0064103380999991927031406004+52417+009750FM-12+001699999V0209999900931075001CN0040001N9+00221+00001101641ADDAY111999GF106991041051002501001081KA1999N+00111MD1310061+9999
0064103380999991927031506004+52417+009750FM-12+001699999V0209999900101220001CN0040001N9-00281-00331102691ADDAY101999GF100991001001999999001001KA1999N-00391MD1310201+9999
0105103380999991927031606004+52417+009750FM-12+001699999V0209991C00001220001CN0005001N9+00001-00061103431ADDAY141999GF101991999001022501021001KA1999N-00281MD1310201+9999MW1421EQDQ01+009992WODIR Q02+000002SCOTLC
0085103380999991927031706004+52417+009750FM-12+001699999V0209999900101000151CN0010001N9-00111-00171102861ADDAY141999GF108991081051000251999999KA1999N-00281EQDQ01+000032APCTENQ02+000002APC3  
0070103380999991927031806004+52417+009750FM-12+001699999V0209999900101220001CN0010001N9+00281+00061102781ADDAY141999GF100991001001999999001001KA1999N+00111MD1310141+9999MW1101
0064103380999991927031906004+52417+009750FM-12+001699999V0209999900261220001CN0010001N9+00781+00721103071ADDAY111999GF101991001001999999001081KA1999N+00721MD1310141+9999
0000103380999991927032006004+52417+009750FM-12+001699999V02099999002619999999N9999999N9+99999+99999102861
0070103380999991927032106004+52417+009750FM-12+001699999V0209999900101220001CN0010001N9+00721+00501102531ADDAY101999GF100991001001999999001001KA1999N+00501MD1810141+9999MW1101
0064103380999991927032206004+52417+009750FM-12+001699999V0209999900101220001CN0020001N9+00781+00391101681ADDAY101999GF101991001001999999001021KA1999N+00501MD1810141+9999
0064103380999991927032306004+52417+009750FM-12+001699999V0209999900261030001CN0040001N9+01111+00891101181ADDAY121999GF107991021061008001021001KA1999N+00721MD1810141+9999
0102103380999991927032406004+52417+009750FM-12+001699999V0209999900261002401CN0040001N9+00721+00671099901ADDAA199002091AY161999GF108991081061002501999999KA1999N+00721MW1631EQDQ01+000042APCTENQ02+000142APC3  
0092103380999991927032506004+52417+009750FM-12+001699999V0209991C000019999999N0005001N9+00221+00171099661ADDAY141999GF106991999001022501031091MD1810141+9999MW1421EQDQ01+009992WODIR Q02+000002SCOTLC
0100103380999991927032606004+52417+009750FM-12+001699999V02099999004619999999N0100001N9+00611+00391099111ADDAA199002091AY181999GF107991999061002501001001KA1999N+00391MD1310141+9999MW1601EQDQ01+000042SCOTLC
0075103380999991927032806004+52417+009750FM-12+001699999V0209999900101220001CN0010001N9+00111+00061100731ADDAA199000391AY111999GF104991001001999999001021KA1999N-00221MD1310141+9999
0101103380999991927032906004+52417+009750FM-12+001699999V0209991C00001004501CN0010001N9+00501+00441100691ADDAY111999GF106991061051004501001001KA1999N+00111EQDQ01+009992WODIR Q02+000032APCTENQ03+000002APC3  
0096103380999991927033006004+52417+009750FM-12+001699999V0209999900261220001CN0040001N9+00501+00441100961ADDAA199000591AY111999GF104991021051017501031001KA1999N+00221EQDQ01+000032APCTENQ02+000002APC3  
0116103380999991927033106004+52417+009750FM-12+001699999V02099999002619999999N0040001N9+00721+00671100831ADDAA199005091AY161999GF108991999061002501001001KA1999N+99999MD1310261+9999MW1501EQDQ01+000042SCOTLCQ02 +01002ATMN  
0075103380999991927040106004+52417+009750FM-12+001699999V0209999900101075001CN0020001N9+00281+00221100661ADDAA199000391AY141999GF106991021011008001001081KA1999N+00001MD1610141+9999
0057103380999991927040206004+52417+009750FM-12+001699999V0209999900101000601CN0010001N9+00391+00331101671ADDAY141999GF108991081051000751999999MD1310261+9999MW1101
0000103380999991927040306004+52417+009750FM-12+001699999V02099999001019999999N9999999N9+99999+99999101391
0081103380999991927040406004+52417+009750FM-12+001699999V0209999900101001501CN0020001N9+00391+00331101591ADDAA199001091AY161999GF108991081061001501999999KA1999N+00281MD1310201+9999MW1601
0100103380999991927040506004+52417+009750FM-12+001699999V02099999004619999999N0020001N9+00501+00281101031ADDAA199000691AY161999GF108991999061002501001001KA1999N+00111MD1810141+9999MW1501EQDQ01+000042SCOTLC
0075103380999991927040606004+52417+009750FM-12+001699999V0209999900461002401CN0040001N9+00781+00561100131ADDAA199000691AY121999GF108991081051002501999999KA1999N+00391MD1810261+9999
0096103380999991927040706004+52417+009750FM-12+001699999V0209999900261220001CN0020001N9+00611+00391100671ADDAA199002091AY111999GF104991001001999999001081KA1999N+00391EQDQ01+000062APCTENQ02+000002APC3  
0075103380999991927040806004+52417+009750FM-12+001699999V0209999900931220001CN0040001N9+00611+00391099721ADDAA199004091AY181999GF104991041051004501001001KA1999N+00501MD1310261+9999
0064103380999991927040906004+52417+009750FM-12+001699999V0209999900101220001CN0040001N9+00611+00391100661ADDAY101999GF106991001001999999001021KA1999N+00111MD1310141+9999
0000103380999991927041006004+52417+009750FM-12+001699999V02099999001019999999N9999999N9+99999+99999100521
0085103380999991927041106004+52417+009750FM-12+001699999V0209999900101030001CN0040001N9+00721+00671101011ADDAY111999GF106991041051017501031001KA1999N+00501EQDQ01+000032APCTENQ02+000002APC3  
0075103380999991927041206004+52417+009750FM-12+001699999V0209999900671075001CN0200001N9+00391+00171101431ADDAA199001091AY111999GF106991041051004501001081KA1999N+00281MD1310201+9999
0075103380999991927041306004+52417+009750FM-12+001699999V0209999900261012301CN0100001N9+00501+00281102241ADDAA199001091AY111999GF107991061051012501031001KA1999N+00501MD1310201+9999
0081103380999991927041406004+52417+009750FM-12+001699999V0209999900671002401CN0020001N9+00891+00671100831ADDAA199002091AY161999GF108991081061002501999999KA1999N+00611MD1810341+9999MW1631
0070103380999991927041506004+52417+009750FM-12+001699999V0209999900261001501CN0040001N9+00891+00831099771ADDAY111999GF108991999051001501001001MD1810061+9999EQDQ01+000062SCOTLC
0100103380999991927041606004+52417+009750FM-12+001699999V02099999004619999999N0100001N9+00501+00281101371ADDAA199000391AY161999GF107991999061004501001001KA1999N+00281MD1310261+9999MW1511EQDQ01+000042SCOTLC
0000103380999991927041706004+52417+009750FM-12+001699999V02099999004619999999N9999999N9+99999+99999102061
0064103380999991927041806004+52417+009750FM-12+001699999V0209999900261012301CN0100001N9+00891+00441102381ADDAY111999GF108991081051012501999999KA1999N+00281MD1310061+9999
0064103380999991927041906004+52417+009750FM-12+001699999V0209999900261007801CN0040001N9+01001+00781102551ADDAY111999GF107991071051008001001001KA1999N+00721MD1010061+9999
0064103380999991927042006004+52417+009750FM-12+001699999V0209999900261220001CN0040001N9+01281+00831102111ADDAY141999GF106991001001999999001081KA1999N+00721MD1610061+9999
0070103380999991927042106004+52417+009750FM-12+001699999V0209999900931007801CN0040001N9+01001+00611101411ADDAY121999GF108991061061008001021001KA1999N+01001MD1710061+9999MW1611
0083103380999991927042206004+52417+009750FM-12+001699999V0209999900261220001CN0040001N9+01221+00781101551ADDAY101999GF104991001001999999001081KA1999N+00721MD1810141+9999EQDQ01+000902SCOLCB
0089103380999991927042306004+52417+009750FM-12+001699999V02099999012319999999N0100001N9+01001+00611100211ADDAY111999GF108991999061004501001001KA1999N+00891MD1810201+9999MW1611EQDQ01+000042SCOTLC
0000103380999991927042406004+52417+009750FM-12+001699999V02099999012319999999N9999999N9+99999+99999100121
0100103380999991927042506004+52417+009750FM-12+001699999V02099999006719999999N0100001N9+00281+00221099581ADDAA199005091AY161999GF108991999061000751001001KA1999N+00111MD1810341+9999MW1211EQDQ01+000042SCOTLC
0094103380999991927042606004+52417+009750FM-12+001699999V02099999009319999999N0200001N9+00611+00221099681ADDAA199005091AY161999GF106991999051008001001001KA1999N+00391MD1310201+9999EQDQ01+000042SCOTLC
0075103380999991927042706004+52417+009750FM-12+001699999V0209999900461220001CN0100001N9+00501+00111101591ADDAA199000591AY101999GF102991021011012501001001KA1999N+00221MD1310201+9999
0085103380999991927042806004+52417+009750FM-12+001699999V0209999900461220001CN0100001N9+00611+00001101891ADDAY111999GF104991021011012501031001KA1999N+00221EQDQ01+000032APCTENQ02+000002APC3  
0094103380999991927042906004+52417+009750FM-12+001699999V0209999900671012301CN0040001N9+00721+00331101661ADDAA199000691AY111999GF107991999051012501001001KA1999N+00111MD1990141+9999EQDQ01+000062SCOTLC
0112103380999991927043006004+52417+009750FM-12+001699999V02099999001019999999N0100001N9+00501+00281101941ADDAA199000391AY111999GF107991999051008001001001KA1999N+00281EQDQ01+000022SCOTLCQ02+000032APCTENQ03+000002APC3  
0000103380999991927050106004+52417+009750FM-12+001699999V02099999001019999999N9999999N9+99999+99999101991
0051103380999991927050212004+52417+009750FM-12+001699999V0200901N01231220001CN0100001N9+01501+00331102111ADDAY111999GF104991011011012501021001MD1810141+9999
0051103380999991927050312004+52417+009750FM-12+001699999V0201101N00261220001CN0100001N9+01891+00941101641ADDAY101999GF102991011091012501021001MD1810061+9999
0051103380999991927050412004+52417+009750FM-12+001699999V0200901N00671220001CN0100001N9+02001+01061101361ADDAY101999GF101991001001999999001021MD1810141+9999
0072103380999991927050612004+52417+009750FM-12+001699999V0203601N00101075001CN0100001N9+02281+01331102241ADDAY111999GF106991041011017501001081EQDQ01+000032APCTENQ02+000002APC3  
0051103380999991927050712004+52417+009750FM-12+001699999V0200901N00671220001CN0200001N9+02111+01171102671ADDAY101999GF104991041011012501001001MD1810061+9999
0000103380999991927050806004+52417+009750FM-12+001699999V02099999006719999999N9999999N9+99999+99999102391
0051103380999991927050912004+52417+009750FM-12+001699999V0200501N00101220001CN0200001N9+02281+00671101631ADDAY101999GF100991001001999999001001MD1810141+9999
0088103380999991927051012004+52417+009750FM-12+001699999V0203201N002619999999N0200001N9+01221+00061101751ADDAY111999GF106991999011012501001001EQDQ01+000022SCOTLCQ02+000082APCTENQ03+000002APC3  
0076103380999991927051112004+52417+009750FM-12+001699999V0202701N002619999999N0200001N9+01111-00331102511ADDAY111999GF106991999091008001001001MD1810061+9999MW1161EQDQ01+000042SCOTLC
0057103380999991927051212004+52417+009750FM-12+001699999V0202501N00931004501CN0010001N9+00721+00501101181ADDAY161999GF108991061061004501021001MD1810261+9999MW1211
0088103380999991927051312004+52417+009750FM-12+001699999V0202901N00461220001CN0200001N9+00781+00171101621ADDAY181999GF104991999091008001001001EQDQ01+000022SCOTLCQ02+000022APCTENQ03+000002APC3  
0076103380999991927051412004+52417+009750FM-12+001699999V0202501N006719999999N0200001N9+01001+00111101771ADDAY181999GF106991999091012501001001MD1810141+9999MW1161EQDQ01+000022SCOTLC
0088103380999991927051612004+52417+009750FM-12+001699999V0202501N006719999999N0100001N9+01781+00891101491ADDAY121999GF107991999011008001001001EQDQ01+000022SCOTLCQ02+000082APCTENQ03+000002APC3  
0072103380999991927051812004+52417+009750FM-12+001699999V0202901N00461220001CN0200001N9+01611+00441101331ADDAY101999GF102991021011017501001001EQDQ01+000032APCTENQ02+000002APC3  
0051103380999991927051912004+52417+009750FM-12+001699999V0203601N00101220001CN0100001N9+01611+00441102061ADDAY101999GF102991011011017501001081MD1810201+9999
0051103380999991927052012004+52417+009750FM-12+001699999V0203601N00101007801CN0200001N9+01501+00331102151ADDAY111999GF106991061011008001001001MD1810061+9999
0051103380999991927052112004+52417+009750FM-12+001699999V0201801N00671030001CN0100001N9+01781+00561100801ADDAY111999GF106991041051012501021001MD1810261+9999
0070103380999991927052312004+52417+009750FM-12+001699999V0202701N006719999999N0100001N9+00891+00441101981ADDAY121999GF108991999051004501001001MD1310141+9999EQDQ01+000042SCOTLC
0057103380999991927052412004+52417+009750FM-12+001699999V0202501N00461001501CN0020001N9+01111+01061101731ADDAY161999GF108991081061001501999999MD1710141+9999MW1611
0051103380999991927052512004+52417+009750FM-12+001699999V0202901N00261007801CN0200001N9+01111+00501101401ADDAY121999GF108991081051008001999999MD1810061+9999
0076103380999991927052612004+52417+009750FM-12+001699999V0202901N006719999999N0100001N9+01391+00721101071ADDAY181999GF106991999091008001001001MD1510001+9999MW1801EQDQ01+000022SCOTLC
0051103380999991927052712004+52417+009750FM-12+001699999V0202901N00671007801CN0200001N9+01001+00611101301ADDAY121999GF106991061051008001001001MD1810061+9999
0070103380999991927052812004+52417+009750FM-12+001699999V0202701N004619999999N0100001N9+01111+00501101011ADDAY111999GF106991999011008001001001MD1510061+9999EQDQ01+000022SCOTLC
0072103380999991927053012004+52417+009750FM-12+001699999V0201101N001019999999N0100001N9+01391+00721101331ADDAY161999GF106991041061999999031001EQDQ01+000992SCOLCBQ02+000002APC3  
0037103380999991927053112004+52417+009750FM-12+001699999V0203401N001019999999N0040001N9+02391+99999100571ADDAY111999GF106991999999012501999999
0051103380999991927060212004+52417+009750FM-12+001699999V0202701N00101030001CN0040001N9+02001+01331101351ADDAY111999GF107991021011008001031001MD1110061+9999
0051103380999991927060312004+52417+009750FM-12+001699999V0202901N00101002401CN0020001N9+01721+01501101631ADDAY181999GF108991081051002501999999MD1210061+9999
0076103380999991927060612004+52417+009750FM-12+001699999V0201801N009319999999N0100001N9+01501+01061100061ADDAY161999GF106991999091004501001001MD1810141+9999MW1161EQDQ01+000042SCOTLC
0057103380999991927060812004+52417+009750FM-12+001699999V0202701N00461002401CN0100001N9+01111+00891100921ADDAY161999GF108991071061002501021001MD1310141+9999MW1601
0076103380999991927060912004+52417+009750FM-12+001699999V0202501N002619999999N0100001N9+01111+00891101511ADDAY191999GF106991999091012501001001MD1710141+9999MW1291EQDQ01+000042SCOTLC
0072103380999991927061112004+52417+009750FM-12+001699999V0200501N00101075001CN0100001N9+01781+00891101511ADDAY111999GF108991011011012501001081EQDQ01+000082APCTENQ02+000002APC3  
0070103380999991927061312004+52417+009750FM-12+001699999V0201401N004619999999N0200001N9+01781+01111101841ADDAY111999GF107991999011008001001001MD1810061+9999EQDQ01+000022SCOTLC
0070103380999991927061412004+52417+009750FM-12+001699999V0202901N001019999999N0040001N9+02221+01561101621ADDAY111999GF106991999091008001001001MD1810061+9999EQDQ01+000042SCOTLC
0057103380999991927061512004+52417+009750FM-12+001699999V0203401N00101001501CN0010001N9+01281+01061102311ADDAY161999GF108991081051001501999999MD1210141+9999MW1101
0051103380999991927061612004+52417+009750FM-12+001699999V0201401N00671220001CN0100001N9+02001+00391102351ADDAY101999GF104991001001999999001021MD1810201+9999
0051103380999991927061712004+52417+009750FM-12+001699999V0201401N00671220001CN0040001N9+02781+01781101001ADDAY101999GF100991001001999999001001MD1810261+9999
0072103380999991927061812004+52417+009750FM-12+001699999V0202501N00461075001CN0020001N9+02001+01061101241ADDAY181999GF106991041091008001001081EQDQ01+000082APCTENQ02+000002APC3  
0070103380999991927062012004+52417+009750FM-12+001699999V0202501N009319999999N0200001N9+01611+00721101471ADDAY111999GF106991999011002501001001MD1310341+9999EQDQ01+000042SCOTLC
0051103380999991927062112004+52417+009750FM-12+001699999V0202501N00461220001CN0200001N9+02221+01001102041ADDAY101999GF102991001001999999001081MD1710141+9999
0070103380999991927062212004+52417+009750FM-12+001699999V0202501N01231220001CN0200001N9+01721+00501101901ADDAY111999GF104991999051008001001001MD1310141+9999EQDQ01+000022SCOTLC
0037103380999991927062312004+52417+009750FM-12+001699999V0202301N006719999999N0200001N9+01891+99999101511ADDAY111999GF106991999999012501999999
0057103380999991927062412004+52417+009750FM-12+001699999V0202301N00671004501CN0040001N9+01391+00721101151ADDAY181999GF108991061091004501021001MD1810141+9999MW1801
0051103380999991927062712004+52417+009750FM-12+001699999V0201801N00261030001CN0200001N9+01501+00831101241ADDAY111999GF108991041091008001021001MD1310061+9999
0072103380999991927062812004+52417+009750FM-12+001699999V0202301N00671220001CN0200001N9+01721+00831101261ADDAY191999GF104991021091008001021001EQDQ01+000032APCTENQ02+000002APC3  
0088103380999991927062912004+52417+009750FM-12+001699999V0202301N006719999999N0200001N9+01781+00891101511ADDAY111999GF106991999091008001001001EQDQ01+000042SCOTLCQ02+000032APCTENQ03+000002APC3  
0051103380999991927063012004+52417+009750FM-12+001699999V0200901N00261220001CN0200001N9+02391+01111100971ADDAY101999GF104991011011012501001081MD1810141+9999
0051103380999991927070112004+52417+009750FM-12+001699999V0202501N00931030001CN0040001N9+02501+01781100031ADDAY111999GF108991041091017501021001MD1610061+9999
0057103380999991927070212004+52417+009750FM-12+001699999V0202301N00671030001CN0020001N9+01611+01171100191ADDAY181999GF108991041061008001021001MD1810061+9999MW1211
0072103380999991927070412004+52417+009750FM-12+001699999V0202501N00101030001CN0200001N9+02281+01331101491ADDAY111999GF106991041011012501021001EQDQ01+000082APCTENQ02+000002APC3  
0051103380999991927070512004+52417+009750FM-12+001699999V0201401N00671012301CN0200001N9+02501+01561101551ADDAY111999GF106991061011012501001001MD1810061+9999
0072103380999991927070612004+52417+009750FM-12+001699999V0203201N001019999999N0100001N9+02501+01781101541ADDAY111999GF107991999091008001001001EQDQ01+000042SCOTLCQ02+000002APC3  
0070103380999991927070712004+52417+009750FM-12+001699999V0202501N00261220001CN0100001N9+02391+01721101151ADDAY111999GF107991999001999999021001MD1310061+9999EQDQ01+000002SCOTLC
0051103380999991927070812004+52417+009750FM-12+001699999V0201401N00101220001CN0100001N9+02721+01721100861ADDAY111999GF104991021091012501031001MD1810061+9999
0051103380999991927070912004+52417+009750FM-12+001699999V0200701N00671030001CN0100001N9+02001+01721099901ADDAY181999GF107991041011012501021001MD1710141+9999
0072103380999991927071312004+52417+009750FM-12+001699999V0203201N00101007801CN0100001N9+02001+01561101681ADDAY121999GF108991061051008001021001EQDQ01+000032APCTENQ02+000002APC3  
0078103380999991927071412004+52417+009750FM-12+001699999V0202501N00101001501CN0020001N9+02001+01721101841ADDAY161999GF108991081061001501999999MW1611EQDQ01+000032APCTENQ02+000002APC3  
0070103380999991927071512004+52417+009750FM-12+001699999V0203601N00101220001CN0040001N9+02281+01611101871ADDAY111999GF104991999051012501001001MD1810141+9999EQDQ01+000022SCOTLC
0094103380999991927071812004+52417+009750FM-12+001699999V0202701N002619999999N0040001N9+01781+01331101541ADDAY111999GF107991999011008001001001MW1161EQDQ01+000022SCOTLCQ02+000032APCTENQ03+000002APC3  
0051103380999991927072212004+52417+009750FM-12+001699999V0202701N001019999999N0100001N9+02001+01941100781ADDAY111999GF107991041051004501999999MD1810061+9999
0088103380999991927072312004+52417+009750FM-12+001699999V0202501N006719999999N0100001N9+01891+01221100571ADDAY111999GF106991999091008001001001EQDQ01+000022SCOTLCQ02+000022APCTENQ03+000002APC3  
0078103380999991927072512004+52417+009750FM-12+001699999V0202501N00671030001CN0100001N9+02111+01441101811ADDAY111999GF106991041011012501021001MW1211EQDQ01+000082APCTENQ02+000002APC3  
0070103380999991927072612004+52417+009750FM-12+001699999V0202001N00461220001CN0200001N9+02501+01221101891ADDAY111999GF104991999091008001001001MD1810141+9999EQDQ01+000022SCOTLC
0072103380999991927072812004+52417+009750FM-12+001699999V0202501N00461220001CN0200001N9+02221+01001100901ADDAY111999GF104991041011008001001021EQDQ01+000062APCTENQ02+000002APC3  
0072103380999991927072912004+52417+009750FM-12+001699999V0202001N00261030001CN0200001N9+02221+01001101401ADDAY111999GF107991021011012501021001EQDQ01+000032APCTENQ02+000002APC3  
0072103380999991927073012004+52417+009750FM-12+001699999V0201101N00101220001CN0200001N9+02611+01331101831ADDAY111999GF104991041011012501001001EQDQ01+000082APCTENQ02+000002APC3  
0051103380999991927080412004+52417+009750FM-12+001699999V0200901N00261220001CN0200001N9+02281+01061102471ADDAY111999GF104991041011017501001001MD1810201+9999
0051103380999991927080512004+52417+009750FM-12+001699999V0200901N00461220001CN0100001N9+02501+01221101831ADDAY101999GF104991041011008001001001MD1810141+9999
0070103380999991927080612004+52417+009750FM-12+001699999V0201101N00671220001CN0040001N9+02611+01611101151ADDAY111999GF106991999001999999021001MD1810061+9999EQDQ01+000002SCOTLC
0051103380999991927080812004+52417+009750FM-12+001699999V0201101N00261220001CN0200001N9+02891+01891101101ADDAY101999GF104991011011012501001081MD1810141+9999
0051103380999991927080912004+52417+009750FM-12+001699999V0202501N00101075001CN0100001N9+02391+01441101271ADDAY111999GF106991041011012501001081MD1310061+9999
0051103380999991927081012004+52417+009750FM-12+001699999V0202501N00931075001CN0200001N9+02391+99999101321ADDAY111999GF106991021011012501001081MD1810061+9999
0070103380999991927081112004+52417+009750FM-12+001699999V0202501N002619999999N0040001N9+02221+01561101241ADDAY111999GF106991999011012501001001MD1810061+9999EQDQ01+000022SCOTLC
0072103380999991927081212004+52417+009750FM-12+001699999V0202501N00931220001CN0200001N9+02221+01941101311ADDAY111999GF104991041011012501001001EQDQ01+000032APCTENQ02+000002APC3  
0051103380999991927081512004+52417+009750FM-12+001699999V0202501N00671030001CN0100001N9+01891+01441100101ADDAY111999GF107991041051008001021001MD1310261+9999
0088103380999991927081612004+52417+009750FM-12+001699999V0202501N00931004501CN0040001N9+01721+01281999999ADDAY121999GF108991061051004501021001EQDQ01+000001APOSP Q02+000032APCTENQ03+000002APC3  
0076103380999991927081812004+52417+009750FM-12+001699999V0200901N00461007801CN0040001N9+01611+01331101011ADDAY161999GF108991999061008001001001MD1810261+9999MW1601EQDQ01+000062SCOTLC
0051103380999991927081912004+52417+009750FM-12+001699999V0201801N00461030001CN0200001N9+02001+01061100631ADDAY111999GF106991041051008001031001MD1990201+9999
0094103380999991927082212004+52417+009750FM-12+001699999V0202301N009319999999N0200001N9+02111+01171100711ADDAY111999GF106991999091012501001001MW1161EQDQ01+000022SCOTLCQ02+000082APCTENQ03+000002APC3  
0051103380999991927082312004+52417+009750FM-12+001699999V0202501N00461007801CN0100001N9+01781+01111100961ADDAY111999GF108991061051008001031001MD1210061+9999
0051103380999991927082412004+52417+009750FM-12+001699999V0202301N00261030001CN0100001N9+01891+01221101441ADDAY111999GF107991041051008001021001MD1810061+9999
0072103380999991927082712004+52417+009750FM-12+001699999V0202501N00461004501CN0040001N9+01781+01111101941ADDAY111999GF107991061051004501031001EQDQ01+000082APCTENQ02+000002APC3  
0037103380999991927082912004+52417+009750FM-12+001699999V0201801N00461220001CN0200001N9+02501+01221102261ADDAY101999GF100991001001999999001001
0051103380999991927083012004+52417+009750FM-12+001699999V0200701N00101220001CN0100001N9+02501+01561102591ADDAY101999GF104991041011012501001001MD1610061+9999
0051103380999991927083112004+52417+009750FM-12+001699999V0201101N00461220001CN0100001N9+02501+01561102701ADDAY101999GF104991041011012501001081MD1810141+9999
0085103380999991927090106004+52417+009750FM-12+001699999V0209999900261220001CN0020001N9+01611+01561102601ADDAY141999GF102991001001999999001021KA1999N+01111EQDQ01+000032APCTENQ02+000002APC3  
0064103380999991927090206004+52417+009750FM-12+001699999V0209999900101220001CN0020001N9+01501+01281102291ADDAY101999GF100991001001999999001001KA1999N+01001MD1310061+9999
0064103380999991927090306004+52417+009750FM-12+001699999V0209999900101220001CN0040001N9+01281+01221102431ADDAY111999GF106991001001999999021081KA1999N+01221MD1310141+9999
0085103380999991927090406004+52417+009750FM-12+001699999V0209999900461220001CN0040001N9+01501+01061102131ADDAY101999GF104991001001999999001081KA1999N+01111EQDQ01+000032APCTENQ02+000002APC3  
0085103380999991927090506004+52417+009750FM-12+001699999V0209999900461220001CN0040001N9+01501+01281101791ADDAY101999GF102991001001999999001021KA1999N+01001EQDQ01+000032APCTENQ02+000002APC3  
0101103380999991927090606004+52417+009750FM-12+001699999V02099999001019999999N0020001N9+01501+01441101871ADDAY141999GF107991999001012501021001KA1999N+01221EQDQ01+000002SCOTLCQ02+000032APCTENQ03+000002APC3  
0101103380999991927090706004+52417+009750FM-12+001699999V0209999900101220001CN0020001N9+01781+01561101721ADDAY141999GF104991999001999999021001KA1999N+01221EQDQ01+000002SCOTLCQ02+000032APCTENQ03+000002APC3  
0081103380999991927090806004+52417+009750FM-12+001699999V0209999900261002401CN0020001N9+01501+01441101721ADDAA199018091AY161999GF108991081051002501999999KA1999N+01391MD1310141+9999MW1211
0064103380999991927090906004+52417+009750FM-12+001699999V0209999900671030001CN0040001N9+01391+00941101001ADDAY111999GF108991021051017501021001KA1999N+01221MD1810061+9999
0085103380999991927091006004+52417+009750FM-12+001699999V0209999900461007801CN0040001N9+01501+01281100781ADDAY111999GF107991061051008001031001KA1999N+01391EQDQ01+000032APCTENQ02+000002APC3  
0081103380999991927091106004+52417+009750FM-12+001699999V0209999900461004501CN0040001N9+01281+01221100331ADDAA199002091AY181999GF107991071061004501001001KA1999N+01221MD1310061+9999MW1211
0100103380999991927091206004+52417+009750FM-12+001699999V02099999002619999999N0020001N9+01221+01171100501ADDAA199009091AY161999GF108991999061001501001001KA1999N+01001MD1410001+9999MW1521EQDQ01+000042SCOTLC
0075103380999991927091306004+52417+009750FM-12+001699999V0209999900461075001CN0100001N9+01111+00891101411ADDAA199000691AY111999GF106991041051008001001091KA1999N+01001MD1310141+9999
0081103380999991927091406004+52417+009750FM-12+001699999V0209999900461002401CN0040001N9+01001+00941101191ADDAA199002091AY161999GF108991081061002501999999KA1999N+01001MD1810141+9999MW1631
0091103380999991927091506004+52417+009750FM-12+001699999V0209999900261000601CN0010001N9+00781+00721101551ADDAY141999GF108991081051000751999999KA1999N+00611MW1101EQDQ01+000032APCTENQ02+000002APC3  
0075103380999991927091606004+52417+009750FM-12+001699999V0209999900261030001CN0040001N9+01281+01061100641ADDAA199000591AY111999GF106991041051008001021001KA1999N+01111MD1510061+9999
0096103380999991927091706004+52417+009750FM-12+001699999V0209999900261220001CN0020001N9+01281+01061100171ADDAA199001091AY111999GF104991041051012501021001KA1999N+01221EQDQ01+000062APCTENQ02+000002APC3  
0102103380999991927091806004+52417+009750FM-12+001699999V0209999900671004501CN0040001N9+01111+00891100301ADDAA199001091AY161999GF108991061061004501021001KA1999N+01001MW1801EQDQ01+000032APCTENQ02+000002APC3  
0094103380999991927091906004+52417+009750FM-12+001699999V0209999900101220001CN0040001N9+01001+00781100711ADDAA199002091AY111999GF106991999001999999021001KA1999N+00781MD1310141+9999EQDQ01+000002SCOTLC
0075103380999991927092006004+52417+009750FM-12+001699999V0209999900671030001CN0040001N9+01391+01171100481ADDAA199002091AY111999GF106991041051004501031001KA1999N+01221MD1310201+9999
0085103380999991927092106004+52417+009750FM-12+001699999V0209999900461004501CN0040001N9+01721+01501100801ADDAY121999GF108991081051004501999999KA1999N+01221EQDQ01+000082APCTENQ02+000002APC3  
0064103380999991927092206004+52417+009750FM-12+001699999V0209999900461007801CN0040001N9+01781+01561100271ADDAY111999GF107991061051008001021001KA1999N+01501MD1410001+9999
0075103380999991927092306004+52417+009750FM-12+001699999V0209999900671030001CN0200001N9+01281+01061100111ADDAA199001091AY111999GF107991041051008001021001KA1999N+01221MD1310141+9999
0075103380999991927092406004+52417+009750FM-12+001699999V0209999900931030001CN0200001N9+01281+01061098861ADDAA199002091AY181999GF106991021051004501021001KA1999N+00781MD1810141+9999
0064103380999991927092506004+52417+009750FM-12+001699999V0209999900461007801CN0100001N9+01001+00781099541ADDAY111999GF107991071051008001001001KA1999N+00781MD1310141+9999
0100103380999991927092606004+52417+009750FM-12+001699999V0209999900931002401CN0100001N9+01111+00671100301ADDAA199000691AY111999GF107991999061002501001001KA1999N+00891MD1310061+9999MW1801EQDQ01+000062SCOTLC
0083103380999991927092706004+52417+009750FM-12+001699999V0209999900461220001CN0040001N9+00891+00671101401ADDAY101999GF101991999051017501021001KA1999N+00611MD1310061+9999EQDQ01+000022SCOTLC
0083103380999991927092806004+52417+009750FM-12+001699999V0209999900261220001CN0040001N9+00891+00831102391ADDAY101999GF102991999001999999021001KA1999N+00611MD1310261+9999EQDQ01+000002SCOTLC
0064103380999991927092906004+52417+009750FM-12+001699999V0209999900101220001CN0040001N9+00721+00671102381ADDAY101999GF100991001001999999001001KA1999N+00281MD1810061+9999
0064103380999991927093006004+52417+009750FM-12+001699999V0209999900101030001CN0040001N9+01111+00891101141ADDAY121999GF108991041051012501021001KA1999N+00891MD1310061+9999
0101103380999991927100106004+52417+009750FM-12+001699999V0209999900671220001CN0040001N9+00891+00671101891ADDAY111999GF104991999001999999031001KA1999N+00611EQDQ01+000002SCOTLCQ02+000042APCTENQ03+000142APC3  
0085103380999991927100206004+52417+009750FM-12+001699999V0209999900461004501CN0200001N9+01281+01061101441ADDAY121999GF108991081051004501999999KA1999N+01221EQDQ01+000032APCTENQ02+000002APC3  
0075103380999991927100306004+52417+009750FM-12+001699999V0209999900461220001CN0200001N9+00891+00441101681ADDAA199000691AY101999GF102991011011012501021001KA1999N+00781MD1310201+9999
0064103380999991927100406004+52417+009750FM-12+001699999V0209999900671220001CN0200001N9+00721+00501102481ADDAY101999GF104991001001999999031091KA1999N+00501MD1510061+9999
0081103380999991927100506004+52417+009750FM-12+001699999V0209999900461007801CN0100001N9+00721+00671102431ADDAA199023091AY181999GF107991071051008001001001KA1999N+00611MD1110141+9999MW1211
0096103380999991927100606004+52417+009750FM-12+001699999V0209999900261004501CN0040001N9+00781+00561102671ADDAA124999999AY121999GF107991071051004501001001KA1999N+00721EQDQ01+000032APCTENQ02+000002APC3  
0102103380999991927100706004+52417+009750FM-12+001699999V0209999900461002401CN0020001N9+01221+01171102431ADDAA199005091AY161999GF108991081061002501999999KA1999N+00891MW1501EQDQ01+000032APCTENQ02+000002APC3  
0070103380999991927100806004+52417+009750FM-12+001699999V0209999900101220001CN0000501N9+00281+00221103061ADDAY141999GF100991001001999999001001KA1999N+00221MD1310201+9999MW1441
0100103380999991927100906004+52417+009750FM-12+001699999V0209999900101220001CN0020001N9+00221+00171103641ADDAA199000391AY141999GF101991999001999999021001KA1999N+00001MD1110141+9999MW1421EQDQ01+000002SCOTLC
0091103380999991927101006004+52417+009750FM-12+001699999V0209999900101220001CN0000501N9+00001-00061103391ADDAY141999GF100991001001999999001001KA1999N-00111MW1441EQDQ01+000032APCTENQ02+000002APC3  
0107103380999991927101106004+52417+009750FM-12+001699999V0209991C00001000151CN0000001N9+00111+00061102691ADDAY141999GF108991081051000251999999KA1999N+00111MW1451EQDQ01+009992WODIR Q02+000032APCTENQ03+000002APC3  
0083103380999991927101206004+52417+009750FM-12+001699999V0209991C00001004501CN0020001N9+00781+00721102741ADDAY121999GF108991081051004501999999KA1999N+00781MD1310061+9999EQDQ01+009992WODIR 
0091103380999991927101306004+52417+009750FM-12+001699999V0209999900261220001CN0010001N9+00281+00221102511ADDAY141999GF106991001001999999021021KA1999N+00111MW1101EQDQ01+000032APCTENQ02+000002APC3  
0051103380999991927101406004+52417+009750FM-12+001699999V0209999900101002401CN0010001N9+00721+00671101221ADDAY141999GF108991081051002501999999MD1810141+9999
0075103380999991927101506004+52417+009750FM-12+001699999V0209999900461004501CN0040001N9+00781+00721101831ADDAA199000391AY111999GF107991071051004501001001KA1999N+00721MD1310141+9999
0101103380999991927101606004+52417+009750FM-12+001699999V0209991C00001007801CN0020001N9+00221+00171101511ADDAY111999GF106991061051008001001001KA1999N+00001EQDQ01+009992WODIR Q02+000062APCTENQ03+000002APC3  
0081103380999991927101706004+52417+009750FM-12+001699999V0209999900671004501CN0020001N9+00891+00831100511ADDAA199001091AY161999GF108991081061004501999999KA1999N+00221MD1810201+9999MW1601
0075103380999991927101806004+52417+009750FM-12+001699999V0209999900461220001CN0200001N9+00781+00561100551ADDAA199006091AY111999GF102991011051012501031001KA1999N+00781MD1310261+9999
0091103380999991927101906004+52417+009750FM-12+001699999V0209999900261220001CN0010001N9+00501+00441101281ADDAY141999GF100991001001999999001001KA1999N+00281MW1101EQDQ01+000012APCTENQ02+000002APC3  
0051103380999991927102006004+52417+009750FM-12+001699999V0209999900461030001CN0002001N9+00891+00671101261ADDAY111999GF106991041051017501031001MD1310141+9999
0099103380999991927102106004+52417+009750FM-12+001699999V0209991C00001220001CN0020001N9+00221+00171102171ADDAY141999GF104991999051008001001001KA1999N+00001MD1310201+9999EQDQ01+009992WODIR Q02+000022SCOTLC
0081103380999991927102206004+52417+009750FM-12+001699999V0209999900101000151CN0000501N9+00281+00221101551ADDAA199000691AY141999GF108991081051000251999999KA1999N+00001MD1810141+9999MW1451
0075103380999991927102306004+52417+009750FM-12+001699999V0209999900101030001CN0100001N9+00891+00671099661ADDAA199002091AY111999GF106991021051008001021001KA1999N+00721MD1210061+9999
0081103380999991927102406004+52417+009750FM-12+001699999V0209999900461002401CN0010001N9+00721+00671100121ADDAA199008091AY161999GF108991081061002501999999KA1999N+00721MD1310141+9999MW1631
0072103380999991927102506004+52417+009750FM-12+001699999V0209999900461030001CN0020001N9+00781+00561101681ADDAY181999GF106991041051008001021001EQDQ01+000032APCTENQ02+000002APC3  
0080103380999991927102606004+52417+009750FM-12+001699999V0209999900931030001CN0040001N9+01501+01281101391ADDAA199000691AY121999GF108991041051008001021001KA1999N+01281EQDQ01+000002APC3  
0064103380999991927102706004+52417+009750FM-12+001699999V0209999900671007801CN0200001N9+01611+01171101431ADDAY121999GF108991061051008001021001KA1999N+01501MD1310061+9999
0081103380999991927102806004+52417+009750FM-12+001699999V0209999900261001501CN0040001N9+01391+01331101571ADDAA199001091AY121999GF108991081061001501999999KA1999N+01281MD1310061+9999MW1501
0064103380999991927102906004+52417+009750FM-12+001699999V0209999901541075001CN0100001N9+01501+00831101061ADDAY111999GF106991041051004501001091KA1999N+01281MD1410001+9999
0064103380999991927103006004+52417+009750FM-12+001699999V0209999900101220001CN0020001N9+00391+00331102291ADDAY141999GF104991001001999999021021KA1999N+00391MD1310061+9999
0064103380999991927103106004+52417+009750FM-12+001699999V0209999900261220001CN0040001N9+00781+00721101541ADDAY111999GF106991001001999999021021KA1999N+00391MD1610061+9999
0075103380999991927110106004+52417+009750FM-12+001699999V0209999900461220001CN0040001N9+00891+00831102511ADDAA199001091AY101999GF104991021051000751021001KA1999N+00781MD1310341+9999
0085103380999991927110206004+52417+009750FM-12+001699999V0209999900461007801CN0040001N9+01221+00781102311ADDAY121999GF108991081051008001999999KA1999N+00721EQDQ01+000082APCTENQ02+000002APC3  
0089103380999991927110406004+52417+009750FM-12+001699999V02099999004619999999N0040001N9+01281+00831101751ADDAY161999GF108991999051002501001001KA1999N+01221MD1510001+9999MW1501EQDQ01+000042SCOTLC
0096103380999991927110506004+52417+009750FM-12+001699999V0209999900261030001CN0040001N9+01001+00941101231ADDAA199000691AY121999GF106991041051004501031001KA1999N+00891EQDQ01+000062APCTENQ02+000002APC3  
0110103380999991927110606004+52417+009750FM-12+001699999V0209999900671220001CN0040001N9+00781+00721099661ADDAA199070091AY161999GF100991001001999999001001KA1999N-02001MD1810341+9999EQDQ01+000012SCOTCVQ02+000532PRSWM1
0118103380999991927110706004+52417+009750FM-12+001699999V02099999002619999999N0040001N9+00721+00501099261ADDAA199008091AY121999GF108991999061004501001001KA1999N+00501MW1601EQDQ01+000042SCOTLCQ02+000032APCTENQ03+000002APC3  
0089103380999991927110806004+52417+009750FM-12+001699999V0209999900261002401CN0020001N9+00611+00391100231ADDAY121999GF108991999061002501001001KA1999N+00611MD1310201+9999MW1501EQDQ01+000062SCOTLC
0081103380999991927110906004+52417+009750FM-12+001699999V0209999900261002401CN0010001N9+00391+00331099971ADDAA199001091AY161999GF108991081061002501999999KA1999N+00281MD1810141+9999MW1611
0064103380999991927111006004+52417+009750FM-12+001699999V0209999900261220001CN0040001N9+00221+00171099321ADDAY101999GF104991001001999999021021KA1999N+00111MD1310141+9999
0089103380999991927111106004+52417+009750FM-12+001699999V02099999004619999999N0040001N9+00281+00061099911ADDAY121999GF108991999061004501001001KA1999N+00111MD1310141+9999MW1161EQDQ01+000042SCOTLC
0094103380999991927111206004+52417+009750FM-12+001699999V02099999002619999999N0040001N9+00001-00061100991ADDAA199001091AY111999GF106991999051008001001001KA1999N-00281MD1310141+9999EQDQ01+000042SCOTLC
0075103380999991927111306004+52417+009750FM-12+001699999V0209999900101030001CN0040001N9+00001-00061102301ADDAA199001091AY111999GF107991041051008001021001KA1999N-00111MD1310201+9999
0085103380999991927111406004+52417+009750FM-12+001699999V0209999900101220001CN0020001N9-00111-00171102211ADDAY111999GF106991001001999999021081KA1999N-00221EQDQ01+000032APCTENQ02+000002APC3  
0112103380999991927111506004+52417+009750FM-12+001699999V02099999002619999999N0020001N9+00221+00171102031ADDAA199000391AY121999GF108991999051004501001001KA1999N+00111EQDQ01+000042SCOTLCQ02+000032APCTENQ03+000002APC3  
0102103380999991927111606004+52417+009750FM-12+001699999V0209999900101000601CN0005001N9+00111+00061102191ADDAA199002091AY161999GF108991081051000751999999KA1999N-00221MW1511EQDQ01+000032APCTENQ02+000002APC3  
0064103380999991927111706004+52417+009750FM-12+001699999V0209999900101004501CN0020001N9-00281-00331102441ADDAY121999GF108991081051004501999999KA1999N-00281MD1310061+9999
0083103380999991927111806004+52417+009750FM-12+001699999V0209999900261220001CN0040001N9-00501-00561102121ADDAY101999GF101991999001999999021001KA1999N-00721MD1410001+9999EQDQ01+000002SCOTLC
0085103380999991927111906004+52417+009750FM-12+001699999V0209999900671220001CN0040001N9-00391-00441101841ADDAY101999GF101991001001999999001021KA1999N-00501EQDQ01+000032APCTENQ02+000002APC3  
0101103380999991927112006004+52417+009750FM-12+001699999V02099999009319999999N0100001N9-00391-00721101931ADDAY111999GF106991999051012501001001KA1999N-00391EQDQ01+000042SCOTLCQ02+000032APCTENQ03+000002APC3  
0070103380999991927112106004+52417+009750FM-12+001699999V0209999901541007801CN0040001N9-00391-00721101621ADDAY121999GF108991061061008001021001KA1999N-00391MD1310061+9999MW1701
0085103380999991927112206004+52417+009750FM-12+001699999V0209999901231220001CN0040001N9-00721-00891102351ADDAY121999GF104991021051008001021001KA1999N-00781EQDQ01+000082APCTENQ02+000002APC3  
0064103380999991927112306004+52417+009750FM-12+001699999V0209999900461004501CN0020001N9-00611-00671101131ADDAY121999GF108991081051004501999999KA1999N-00611MD1810141+9999
0075103380999991927112406004+52417+009750FM-12+001699999V0209999900461001501CN0020001N9+00001-00221101911ADDAA199000691AY171999GF108991081051001501999999KA1999N-00501MD1310061+9999
0081103380999991927112506004+52417+009750FM-12+001699999V0209999900461000601CN0010001N9+00391+00331102271ADDAA199004091AY161999GF108991081061000751999999KA1999N+00221MD1310201+9999MW1531
0081103380999991927112606004+52417+009750FM-12+001699999V0209999900261001501CN0010001N9+00391+00331103701ADDAA199000691AY141999GF107991071051001501001001KA1999N+00281MD1310061+9999MW1101
0070103380999991927112706004+52417+009750FM-12+001699999V0209999900101000151CN0000501N9-00281-00331102911ADDAY141999GF108991081051000251999999KA1999N-00391MD1610141+9999MW1451
0081103380999991927112806004+52417+009750FM-12+001699999V0209999900101001501CN0010001N9+00221+00171102611ADDAA199000691AY121999GF108991081051001501999999KA1999N-00281MD1310141+9999MW1101
0075103380999991927112906004+52417+009750FM-12+001699999V0209999900261001501CN0010001N9+00281+00221102521ADDAY141999GF108991081051001501999999KA1999N+00111MW1101EQDQ01+000002APC3  
0091103380999991927113006004+52417+009750FM-12+001699999V0209999900101002401CN0010001N9+00001-00061102991ADDAY141999GF108991081051002501999999KA1999N-00281MW1101EQDQ01+000032APCTENQ02+000002APC3  
0064103380999991927120106004+52417+009750FM-12+001699999V0209999900671002401CN0040001N9+00111-00111102791ADDAY111999GF108991061051002501021001KA1999N-00221MD1610061+9999
0085103380999991927120206004+52417+009750FM-12+001699999V0209999900671004501CN0020001N9+00001-00221102711ADDAY111999GF107991061051004501021001KA1999N+00001EQDQ01+000032APCTENQ02+000002APC3  
0091103380999991927120306004+52417+009750FM-12+001699999V0209999900261000601CN0002001N9-00501-00561102431ADDAY141999GF108991081051000751999999KA1999N-00501MW1451EQDQ01+000062APCTENQ02+000002APC3  
0057103380999991927120406004+52417+009750FM-12+001699999V0209999900461220001CN0020001N9-00501-00561101941ADDAY101999GF100991001001999999001001MD1810061+9999MW1461
0075103380999991927120506004+52417+009750FM-12+001699999V0209999900461007801CN0020001N9-00221-00281101591ADDAA199000691AY181999GF108991071051008001021001KA1999N-00281MD1310061+9999
0091103380999991927120606004+52417+009750FM-12+001699999V0209999900101030001CN0010001N9-00111-00171101581ADDAY111999GF106991021051017501021001KA1999N-00221MW1101EQDQ01+000082APCTENQ02+000002APC3  
0096103380999991927120706004+52417+009750FM-12+001699999V0209999900671002401CN0020001N9+00001-00061101491ADDAA199000391AY121999GF108991081051002501999999KA1999N-00111EQDQ01+000032APCTENQ02+000002APC3  
0069103380999991927120806004+52417+009750FM-12+001699999V0209999900461004501CN0040001N9-00221-00281101461ADDAY121999GF108991081051004501999999KA1999N-00221EQDQ01+000002APC3  
0064103380999991927120906004+52417+009750FM-12+001699999V0209999900261030001CN0040001N9-00281-00441101591ADDAY121999GF108991041051002501021001KA1999N-00391MD1310141+9999
0064103380999991927121006004+52417+009750FM-12+001699999V0209999900101004501CN0020001N9-00111-00171102071ADDAY121999GF108991081051004501999999KA1999N-00221MD1310141+9999
0096103380999991927121106004+52417+009750FM-12+001699999V0209999900101002401CN0040001N9-00111-00171102201ADDAA124999999AY121999GF108991081051002501999999KA1999N-00221EQDQ01+000032APCTENQ02+000002APC3  
0064103380999991927121206004+52417+009750FM-12+001699999V0209999900261004501CN0040001N9-00221-00281101571ADDAY121999GF108991081051004501999999KA1999N-00221MD1810141+9999
0083103380999991927121306004+52417+009750FM-12+001699999V02099999001019999999N0020001N9-00221-00391100611ADDAY111999GF106991999051004501001001KA1999N-00221MD1810061+9999EQDQ01+000042SCOTLC
0102103380999991927121406004+52417+009750FM-12+001699999V0209999900101000601CN0100001N9+00001-00061100631ADDAA199002091AY171999GF108991081061000751999999KA1999N+00001MW1731EQDQ01+000042APCTENQ02+000202APC3  
0064103380999991927121506004+52417+009750FM-12+001699999V0209999900261220001CN0100001N9-00721-00891101541ADDAY121999GF106991001001999999021081KA1999N-00781MD1310061+9999
0081103380999991927121606004+52417+009750FM-12+001699999V0209999900261002401CN0010001N9-00721-00891102351ADDAA199000391AY171999GF108991081061002501999999KA1999N-01111MD1310061+9999MW1711
0064103380999991927121706004+52417+009750FM-12+001699999V0209999900261220001CN0100001N9-01111-01281102921ADDAY111999GF104991021051017501031001KA1999N-01501MD1110201+9999
0100103380999991927121806004+52417+009750FM-12+001699999V02099999002619999999N0040001N9-00781-00831103101ADDAA199000391AY171999GF107991999051004501001001KA1999N-00891MD1410001+9999MW1701EQDQ01+000042SCOTLC
0081103380999991927121906004+52417+009750FM-12+001699999V0209999900101004501CN0040001N9-00501-00561102921ADDAA199000591AY171999GF108991081061004501999999KA1999N-00891MD1610061+9999MW1711
0096103380999991927122006004+52417+009750FM-12+001699999V0209999900101220001CN0010001N9-01781+99999102781ADDAA199000691AY111999GF102991021051004501001001KA1999N-01891EQDQ01+000032APCTENQ02+000002APC3  
0064103380999991927122106004+52417+009750FM-12+001699999V0209999900261220001CN0020001N9-02001-02281101911ADDAY101999GF104991001001999999021021KA1999N-02221MD1610141+9999
0085103380999991927122206004+52417+009750FM-12+001699999V0209999900461002401CN0020001N9+00111-00111100211ADDAY121999GF108991081051002501999999KA1999N-00721EQDQ01+000082APCTENQ02+000002APC3  
0081103380999991927122306004+52417+009750FM-12+001699999V0209999900671004501CN0040001N9+00891+00671098161ADDAA199003091AY161999GF107991061061004501021001KA1999N+00281MD1610201+9999MW1611
0075103380999991927122406004+52417+009750FM-12+001699999V0209999900461004501CN0040001N9+00281+00221098971ADDAA199003091AY121999GF108991071061004501021001KA1999N+00281MD1310261+9999
0100103380999991927122606004+52417+009750FM-12+001699999V0209999900101002401CN0020001N9+00221+00171099311ADDAA199005091AY161999GF108991081061002501999999KA1999N+99999MD1410001+9999MW1211EQDQ01 +00282ATMN  
0075103380999991927122706004+52417+009750FM-12+001699999V0209999900461220001CN0100001N9-00221-00391101771ADDAA199003091AY111999GF101991011051008001001001KA1999N-00221MD1310401+9999
0064103380999991927122806004+52417+009750FM-12+001699999V0209999900461220001CN0100001N9-00501-00671103721ADDAY101999GF100991001001999999001001KA1999N-00721MD1310201+9999
0064103380999991927122906004+52417+009750FM-12+001699999V0209999900931220001CN0040001N9-00611-00671103711ADDAY101999GF100991001001999999001001KA1999N-00611MD1810061+9999
0051103380999991927123006004+52417+009750FM-12+001699999V0209999900461220001CN0100001N9-00781-01111103181ADDAY101999GF104991001001999999021021MD1510001+9999
0075103380999991927123106004+52417+009750FM-12+001699999V0209999900671004501CN0040001N9-00281-00441102831ADDAA199000691AY121999GF108991081051004501999999KA1999N-00781MD1410001+9999
