0075103380999991929010106004+52417+009750FM-12+001699999V0209999900261004501CN0040001N9-00391-00441101601ADDAA199001091AY121999GF108991061051004501021001KA1999N-00611MD1310201+9999
0081103380999991929010206004+52417+009750FM-12+001699999V0209999900461030001CN0100001N9-00111-00281102121ADDAA199001091AY121999GF107991041061004501021001KA1999N-00391MD1310141+9999MW1701
0083103380999991929010306004+52417+009750FM-12+001699999V0209999900671004501CN0100001N9-00111-00281102801ADDAY121999GF108991999051004501001001KA1999N-00281MD1310061+9999EQDQ01+000062SCOTLC
0101103380999991929010406004+52417+009750FM-12+001699999V02099999006719999999N0100001N9-00281-00441102861ADDAY111999GF106991999051008001001001KA1999N-00391EQDQ01+000042SCOTLCQ02+000032APCTENQ03+000002APC3  
0102103380999991929010506004+52417+009750FM-12+001699999V0209999900461002401CN0040001N9-00501-00561102821ADDAA199000691AY171999GF108991081061002501999999KA1999N-00501MW1701EQDQ01+000032APCTENQ02+000002APC3  
0064103380999991929010606004+52417+009750FM-12+001699999V0209999900671004501CN0040001N9-00611-00781102841ADDAY121999GF108991061051004501021001KA1999N-00721MD1310141+9999
0085103380999991929010706004+52417+009750FM-12+001699999V0209999900461004501CN0040001N9-00281-00441102821ADDAY121999GF108991061051004501021001KA1999N-00721EQDQ01+000032APCTENQ02+000002APC3  
0064103380999991929010806004+52417+009750FM-12+001699999V0209999900101220001CN0020001N9-00781-00831103791ADDAY101999GF102991001001999999001021KA1999N-00891MD1310201+9999
0091103380999991929010906004+52417+009750FM-12+001699999V0209999900261220001CN0010001N9-01001-01171104391ADDAY141999GF100991001001999999001001KA1999N-01221MW1101EQDQ01+000032APCTENQ02+000002APC3  
0091103380999991929011006004+52417+009750FM-12+001699999V0209999900101220001CN0005001N9-01221-01391103831ADDAY141999GF104991001001999999021021KA1999N-01391MW1441EQDQ01+000032APCTENQ02+000002APC3  
0070103380999991929011106004+52417+009750FM-12+001699999V0209999900101000601CN0002001N9-01001-01171103711ADDAY141999GF108991081051000751999999KA1999N-01111MD1310061+9999MW1451
0091103380999991929011206004+52417+009750FM-12+001699999V0209999900101000151CN0002001N9-01111-01281103771ADDAY141999GF108991081051000251999999KA1999N-01611MW1451EQDQ01+000042APCTENQ02+000062APC3  
0081103380999991929011306004+52417+009750FM-12+001699999V0209999900671001501CN0020001N9-00111-00171102751ADDAA199000391AY171999GF108991081051001501999999KA1999N-00781MD1810201+9999MW1231
0112103380999991929011406004+52417+009750FM-12+001699999V0209999900261002401CN0040001N9-00111-00171101841ADDAA199000391AY121999GF108991999061002501001001KA1999N-00111EQDQ01+000062SCOTLCQ02+000072APCTENQ03+000002APC3  
0083103380999991929011506004+52417+009750FM-12+001699999V0209999900671030001CN0020001N9-00221-00391100751ADDAY121999GF108991041051008001021001KA1999N-00501MD1810542+9999EQDQ01+000542APC3  
0094103380999991929011606004+52417+009750FM-12+001699999V0209999900261220001CN0100001N9-01221-01281099911ADDAA199002091AY101999GF102991999001022501021001KA1999N-01611MD1310341+9999EQDQ01+000002SCOTLC
0081103380999991929011706004+52417+009750FM-12+001699999V0201401N00101001501CN0010001N9-00721-00781100551ADDAA199006091AY171999GF108991081061001501999999KA1999N-01111MD1310061+9999MW1731
0064103380999991929011806004+52417+009750FM-12+001699999V0209999900101220001CN0010001N9-01781-02111102201ADDAY141999GF104991021051000751021001KA1999N-02221MD1310201+9999
0070103380999991929011906004+52417+009750FM-12+001699999V0209999900671000151CN0002001N9+00221+00171102041ADDAY141999GF108991081051000251999999KA1999N-00111MD1310141+9999MW1471
0081103380999991929012006004+52417+009750FM-12+001699999V0209999900101015001CN0010001N9+00281+00221102921ADDAA199002091AY161999GF108991081061017501999999KA1999N+00221MD1310201+9999MW1511
0102103380999991929012106004+52417+009750FM-12+001699999V0209999900461000151CN0000001N9-00111-00171103041ADDAA199001091AY141999GF108991081051000251999999KA1999N-00221MW1451EQDQ01+000032APCTENQ02+000002APC3  
0101103380999991929012206004+52417+009750FM-12+001699999V0209999900261220001CN0040001N9+00001-00061102521ADDAY101999GF104991999001999999021001KA1999N-00111EQDQ01+000002SCOTLCQ02+000032APCTENQ03+000002APC3  
0081103380999991929012306004+52417+009750FM-12+001699999V0209999900101000151CN0000501N9+00111+00061102061ADDAA199000591AY141999GF108991081051000251999999KA1999N-00221MD1610061+9999MW1681
0118103380999991929012406004+52417+009750FM-12+001699999V02099999001019999999N0020001N9-00111-00171101971ADDAA199000591AY171999GF108991999061002501001001KA1999N-00111MW1231EQDQ01+000042SCOTLCQ02+000082APCTENQ03+000002APC3  
0112103380999991929012506004+52417+009750FM-12+001699999V0209999900101220001CN0020001N9-00611-00671101751ADDAA199000591AY111999GF102991999001999999021001KA1999N-00721EQDQ01+000002SCOTLCQ02+000062APCTENQ03+000002APC3  
0101103380999991929012606004+52417+009750FM-12+001699999V0209991C00001004501CN0020001N9-00721-00781101681ADDAY111999GF108991081051004501999999KA1999N-01221EQDQ01+009992WODIR Q02+000032APCTENQ03+000002APC3  
0102103380999991929012706004+52417+009750FM-12+001699999V0209991C00001002401CN0020001N9-00721-00781101571ADDAA199002091AY171999GF108991081061002501999999KA1999N-00721MW1711EQDQ01+000032APCTENQ02+000002APC3  
0081103380999991929012806004+52417+009750FM-12+001699999V0209999900461004501CN0010001N9-00281-00331101711ADDAA199003091AY171999GF108991081061004501999999KA1999N-00721MD1310061+9999MW1711
0064103380999991929012906004+52417+009750FM-12+001699999V0209999901231220001CN0020001N9-00611-00781103061ADDAY141999GF101991001001999999001081KA1999N-01221MD1310261+9999
0085103380999991929013006004+52417+009750FM-12+001699999V0209999900671220001CN0020001N9-01001-01061103241ADDAY141999GF104991001001999999001081KA1999N-01221EQDQ01+000032APCTENQ02+000002APC3  
0085103380999991929013106004+52417+009750FM-12+001699999V0209999900931220001CN0020001N9-00721-00891103131ADDAY101999GF101991001001999999001081KA1999N-00721EQDQ01+000032APCTENQ02+000002APC3  
0064103380999991929020106004+52417+009750FM-12+001699999V0209999900671220001CN0020001N9-01221-01391102861ADDAY141999GF101991001001999999001081KA1999N-01391MD1990061+9999
0085103380999991929020206004+52417+009750FM-12+001699999V0209999900671220001CN0040001N9-01501-01561102931ADDAY101999GF101991001001999999001081KA1999N-01611EQDQ01+000032APCTENQ02+000002APC3  
0064103380999991929020306004+52417+009750FM-12+001699999V0209999900671220001CN0040001N9-01781-01941102901ADDAY101999GF101991001001999999001081KA1999N-01891MD1990141+9999
0085103380999991929020406004+52417+009750FM-12+001699999V0209999900261220001CN0020001N9-01611-01671102441ADDAY101999GF101991001001999999001081KA1999N-01781EQDQ01+000032APCTENQ02+000002APC3  
0101103380999991929020506004+52417+009750FM-12+001699999V02099999001019999999N0010001N9-01111-01281102211ADDAY111999GF106991999001022501021001KA1999N-01391EQDQ01+000002SCOTLCQ02+000032APCTENQ03+000002APC3  
0081103380999991929020606004+52417+009750FM-12+001699999V0209999900261001501CN0010001N9-00391-00441102301ADDAA199005091AY141999GF108991081051001501999999KA1999N-00391MD1310201+9999MW1101
0081103380999991929020706004+52417+009750FM-12+001699999V0209999900671030001CN0010001N9-01221-01281103401ADDAA199000691AY141999GF107991041051002501021001KA1999N-01281MD1310201+9999MW1711
0064103380999991929020806004+52417+009750FM-12+001699999V0209999900101220001CN0010001N9-01111-01281102961ADDAY141999GF106991001001999999001081KA1999N-01611MD1810141+9999
0085103380999991929020906004+52417+009750FM-12+001699999V0209999900261220001CN0010001N9-01611-01671102571ADDAY141999GF102991001001999999021081KA1999N-01611EQDQ01+000032APCTENQ02+000002APC3  
0085103380999991929021006004+52417+009750FM-12+001699999V0209999901541030001CN0040001N9-01611-02061102241ADDAY111999GF107991041051017501031001KA1999N-01721EQDQ01+000032APCTENQ02+000002APC3  
0051103380999991929021106004+52417+009750FM-12+001699999V0209999900461220001CN0040001N9-02501-02781103031ADDAY101999GF100991001001999999001001MD1310141+9999
0064103380999991929021206004+52417+009750FM-12+001699999V0209999900101220001CN0040001N9-02281-02441102441ADDAY101999GF100991001001999999001001KA1999N-02391MD1510001+9999
0081103380999991929021306004+52417+009750FM-12+001699999V0209999900101002401CN0010001N9-01611-01781101791ADDAA199000691AY171999GF108991081061002501999999KA1999N-02111MD1810201+9999MW1711
0064103380999991929021406004+52417+009750FM-12+001699999V0209999900261007801CN0020001N9-01611-01781101591ADDAY141999GF108991081051008001999999KA1999N-01721MD1110141+9999
0094103380999991929021506004+52417+009750FM-12+001699999V0209999900461220001CN0020001N9-02501-02671101731ADDAA199000591AY171999GF104991999001999999021001KA1999N-02501MD1310141+9999EQDQ01+000002SCOTLC
0081103380999991929021606004+52417+009750FM-12+001699999V0209999900101002401CN0010001N9-01221-01391101371ADDAA199001091AY171999GF108991081061002501999999KA1999N-01281MD1310061+9999MW1711
0081103380999991929021706004+52417+009750FM-12+001699999V0209999900101004501CN0020001N9-00781-00831101671ADDAA199002091AY171999GF108991081051004501999999KA1999N-00891MD1310141+9999MW1711
0075103380999991929021806004+52417+009750FM-12+001699999V0209999900461007801CN0020001N9-00781-00831102901ADDAA199000391AY121999GF108991081051008001999999KA1999N-00891MD1310141+9999
0118103380999991929021906004+52417+009750FM-12+001699999V02099999001019999999N0040001N9-00721-00781103011ADDAA199000591AY171999GF106991999051012501001001KA1999N-00721MW1231EQDQ01+000042SCOTLCQ02+000032APCTENQ03+000002APC3  
0064103380999991929022006004+52417+009750FM-12+001699999V0209999900101220001CN0040001N9-02001-02171103631ADDAY101999GF104991001001999999001021KA1999N-02221MD1310201+9999
0085103380999991929022106004+52417+009750FM-12+001699999V0209999900461220001CN0020001N9-02111-02281103971ADDAY141999GF102991001001999999001081KA1999N-02221EQDQ01+000032APCTENQ02+000002APC3  
0057103380999991929022206004+52417+009750FM-12+001699999V0209999900261030001CN0010001N9-00501-00561102641ADDAY141999GF107991041051012501021001MD1810201+9999MW1101
0083103380999991929022306004+52417+009750FM-12+001699999V0209991C00001220001CN0020001N9+00001-00331101181ADDAY121999GF107991001001999999031021KA1999N-00391MD1510001+9999EQDQ01+009992WODIR 
0081103380999991929022406004+52417+009750FM-12+001699999V0209999900931004501CN0010001N9-00221-00281100631ADDAA199003091AY171999GF108991081061004501999999KA1999N-00281MD1410001+9999MW1731
0081103380999991929022506004+52417+009750FM-12+001699999V0209999900931002401CN0010001N9-00721-00891101151ADDAA199000391AY171999GF108991081061002501999999KA1999N-00781MD1310141+9999MW1711
0075103380999991929022606004+52417+009750FM-12+001699999V0209999900101220001CN0040001N9-01111-01171101751ADDAA199000691AY111999GF106991001001999999031081KA1999N-01221MD1310141+9999
0096103380999991929022706004+52417+009750FM-12+001699999V0209999900101220001CN0040001N9-01501-01671102101ADDAA199000691AY171999GF104991021051008001021001KA1999N-01721EQDQ01+000032APCTENQ02+000002APC3  
0070103380999991929022806004+52417+009750FM-12+001699999V0209999900261000151CN0002001N9-01611-01781103301ADDAY141999GF107991071051000251001001KA1999N-02001MD1310261+9999MW1461
0089103380999991929030106004+52417+009750FM-12+001699999V0209991C00001000601CN0005001N9-01611-01891104421ADDAY141999GF107991071051000751001001KA1999N-01891MD1310261+9999MW1421EQDQ01+009992WODIR 
0091103380999991929030206004+52417+009750FM-12+001699999V0209999900101000151CN0000001N9-01781-01941104211ADDAY141999GF106991061051000251001001KA1999N-02001MW1441EQDQ01+000082APCTENQ02+000002APC3  
0083103380999991929030306004+52417+009750FM-12+001699999V02099999001019999999N0020001N9-00611-00941102771ADDAY121999GF107991999001022501021001KA1999N-01281MD1810141+9999EQDQ01+000002SCOTLC
0094103380999991929030406004+52417+009750FM-12+001699999V0209999900261220001CN0100001N9+00001-00221101581ADDAA199002091AY111999GF104991999051004501001001KA1999N-00611MD1310141+9999EQDQ01+000022SCOTLC
0075103380999991929030506004+52417+009750FM-12+001699999V0209999900261012301CN0020001N9-00281-00441101631ADDAA199000691AY121999GF108991081051012501999999KA1999N-00611MD1810061+9999
0075103380999991929030606004+52417+009750FM-12+001699999V0209999900461004501CN0100001N9+00001-00061101261ADDAA199000391AY121999GF108991081051004501999999KA1999N-00111MD1310061+9999
0100103380999991929030706004+52417+009750FM-12+001699999V02099999002619999999N0040001N9+00111+00061102521ADDAA199000691AY171999GF107991999061002501001001KA1999N+00001MD1310261+9999MW1851EQDQ01+000042SCOTLC
0081103380999991929030806004+52417+009750FM-12+001699999V0209999900671001501CN0010001N9+00111+00061102431ADDAA199000691AY141999GF108991081051001501999999KA1999N+00001MD1810061+9999MW1101
0064103380999991929030906004+52417+009750FM-12+001699999V0209999900461002401CN0020001N9+00221+00171102271ADDAY141999GF108991081051002501999999KA1999N+00111MD1310141+9999
0091103380999991929031006004+52417+009750FM-12+001699999V0209999900101000151CN0000501N9+00111+00061102301ADDAY141999GF108991081051000251999999KA1999N-00111MW1451EQDQ01+000042APCTENQ02+000062APC3  
0102103380999991929031106004+52417+009750FM-12+001699999V0209999900461002401CN0020001N9-00111-00171101901ADDAA199001091AY161999GF108991081061002501999999KA1999N-00111MW1771EQDQ01+000032APCTENQ02+000002APC3  
0081103380999991929031206004+52417+009750FM-12+001699999V0209999900101001501CN0010001N9+00221+00171102701ADDAA199000391AY141999GF108991081051001501999999KA1999N+00111MD1310201+9999MW1101
0102103380999991929031306004+52417+009750FM-12+001699999V0209999900461000151CN0010001N9+00221+00171102841ADDAA199000691AY141999GF108991081051000251999999KA1999N+00111MW1101EQDQ01+000032APCTENQ02+000002APC3  
0096103380999991929031406004+52417+009750FM-12+001699999V0209999900461001501CN0020001N9+00001-00061102931ADDAA199000691AY141999GF108991081051001501999999KA1999N+00001EQDQ01+000032APCTENQ02+000002APC3  
0102103380999991929031506004+52417+009750FM-12+001699999V0209999900671000151CN0010001N9+00221+00171102611ADDAA199000391AY161999GF108991081061000251999999KA1999N+00111MW1511EQDQ01+000032APCTENQ02+000002APC3  
0051103380999991929031606004+52417+009750FM-12+001699999V0209999900261220001CN0040001N9-00111-00171103331ADDAY101999GF100991001001999999001001MD1110061+9999
0085103380999991929031706004+52417+009750FM-12+001699999V0209999900101220001CN0040001N9+00111-00221103001ADDAY101999GF101991001001999999001081KA1999N-00391EQDQ01+000032APCTENQ02+000002APC3  
0085103380999991929031806004+52417+009750FM-12+001699999V0209999900101220001CN0010001N9+00281-00281102711ADDAY141999GF104991001001999999021081KA1999N-00221EQDQ01+000032APCTENQ02+000002APC3  
0085103380999991929031906004+52417+009750FM-12+001699999V0209999900101220001CN0020001N9+00111-00111102431ADDAY101999GF104991001001999999031081KA1999N-00221EQDQ01+000032APCTENQ02+000002APC3  
0091103380999991929032006004+52417+009750FM-12+001699999V0209999900461000151CN0000001N9+00001-00061102241ADDAY141999GF107991071051000251001001KA1999N-00111MW1441EQDQ01+000042APCTENQ02+000062APC3  
0091103380999991929032106004+52417+009750FM-12+001699999V0209999900101000151CN0000001N9-00281-00331102441ADDAY141999GF108991081051000251999999KA1999N-00281MW1451EQDQ01+000032APCTENQ02+000002APC3  
0091103380999991929032206004+52417+009750FM-12+001699999V0209999900101220001CN0010001N9+00111-00111102131ADDAY141999GF102991001001999999001081KA1999N-00111MW1101EQDQ01+000032APCTENQ02+000002APC3  
0112103380999991929032306004+52417+009750FM-12+001699999V02099999004619999999N0040001N9+00891+00441101771ADDAA199000691AY181999GF107991999051017501001001KA1999N+00611EQDQ01+000042SCOTLCQ02+000032APCTENQ03+000002APC3  
0064103380999991929032406004+52417+009750FM-12+001699999V0209999900101002401CN0020001N9+00391+00331102631ADDAY141999GF108991081051002501999999KA1999N+00221MD1310201+9999
0085103380999991929032506004+52417+009750FM-12+001699999V0209999900101030001CN0010001N9+00281+00061102561ADDAY111999GF107991041051017501031001KA1999N+00001EQDQ01+000032APCTENQ02+000002APC3  
0081103380999991929032606004+52417+009750FM-12+001699999V0209999900461000151CN0005001N9+00721+00671102781ADDAA199000391AY141999GF108991081051000251999999KA1999N+00611MD1310061+9999MW1471
0085103380999991929032706004+52417+009750FM-12+001699999V0209999900261030001CN0020001N9+00391+00331103001ADDAY111999GF107991041051012501021001KA1999N+00221EQDQ01+000032APCTENQ02+000002APC3  
0091103380999991929032806004+52417+009750FM-12+001699999V0209999900101000151CN0002001N9+00391+00331102991ADDAY141999GF108991081051000251999999KA1999N+00221MW1451EQDQ01+000032APCTENQ02+000002APC3  
0091103380999991929032906004+52417+009750FM-12+001699999V0209999900261000151CN0002001N9+00391+00331102971ADDAY141999GF108991081051000251999999KA1999N+00221MW1511EQDQ01+000032APCTENQ02+000002APC3  
0100103380999991929033006004+52417+009750FM-12+001699999V0209999900931001501CN0020001N9+00501+00441102231ADDAA199000691AY161999GF108991999061001501001001KA1999N+00391MD1610141+9999MW1511EQDQ01+000062SCOTLC
0075103380999991929033106004+52417+009750FM-12+001699999V0209999900671001501CN0040001N9+00501+00441101571ADDAA199000691AY121999GF108991081061001501999999KA1999N+00391MD1810341+9999
0081103380999991929040106004+52417+009750FM-12+001699999V0209999900671001501CN0040001N9+00281+00221100791ADDAA124999999AY161999GF108991081061001501999999KA1999N+00221MD1810201+9999MW1631
0081103380999991929040206004+52417+009750FM-12+001699999V0209999900261000151CN0005001N9+00111+00061100101ADDAA199023091AY141999GF108991081051000251999999KA1999N+00001MD1310261+9999MW1451
0081103380999991929040306004+52417+009750FM-12+001699999V0209999900101007801CN0100001N9-00221-00281101061ADDAA199003091AY171999GF107991061051008001021001KA1999N-00501MD1310201+9999MW1231
0085103380999991929040406004+52417+009750FM-12+001699999V0209999900101220001CN0200001N9-00281-00941101551ADDAY101999GF100991001001999999001001KA1999N-00721EQDQ01+000032APCTENQ02+000002APC3  
0081103380999991929040506004+52417+009750FM-12+001699999V0209999900461001501CN0020001N9-00281-00441100631ADDAA199000591AY171999GF108991081061001501999999KA1999N-00391MD1610061+9999MW1711
0064103380999991929040606004+52417+009750FM-12+001699999V0209999900261220001CN0040001N9-00221-00391102151ADDAY101999GF101991001001999999001091KA1999N-00611MD1310201+9999
0081103380999991929040706004+52417+009750FM-12+001699999V0209999900931001501CN0040001N9+00221+00171101671ADDAA199000691AY161999GF108991081061001501999999KA1999N+00111MD1610141+9999MW1511
0094103380999991929040806004+52417+009750FM-12+001699999V02099999004619999999N0040001N9+00501+00441101931ADDAA199000691AY161999GF108991999051002501001001KA1999N+00391MD1310061+9999EQDQ01+000042SCOTLC
0091103380999991929040906004+52417+009750FM-12+001699999V0209999900101030001CN0010001N9+00501+00441101571ADDAY141999GF108991041051012501021001KA1999N+00221MW1101EQDQ01+000062APCTENQ02+000002APC3  
0075103380999991929041006004+52417+009750FM-12+001699999V0209999900461004501CN0100001N9+00391+00171101261ADDAA199001091AY111999GF107991061051004501021001KA1999N+00221MD1310141+9999
0083103380999991929041106004+52417+009750FM-12+001699999V0209999900931007801CN0040001N9+00221+00001101981ADDAY121999GF108991999051008001001001KA1999N+00111MD1310061+9999EQDQ01+000062SCOTLC
0069103380999991929041206004+52417+009750FM-12+001699999V0209999901231004501CN0040001N9+00221-00171102231ADDAY121999GF108991081051004501999999KA1999N+00221EQDQ01+000002APC3  
0118103380999991929041306004+52417+009750FM-12+001699999V0209999900671000601CN0010001N9+00501+00441101601ADDAA199000691AY161999GF108991999061000751001001KA1999N+00391MW1511EQDQ01+000062SCOTLCQ02+000032APCTENQ03+000002APC3  
0081103380999991929041406004+52417+009750FM-12+001699999V0209999900101004501CN0020001N9+00501+00441101471ADDAA199003091AY161999GF108991061061004501021001KA1999N+00391MD1610061+9999MW1621
0102103380999991929041506004+52417+009750FM-12+001699999V0209999900101030001CN0005001N9+00391+00331101221ADDAA199001091AY141999GF106991021051017501031001KA1999N-00111MW1441EQDQ01+000082APCTENQ02+000002APC3  
0064103380999991929041606004+52417+009750FM-12+001699999V0209999900931220001CN0100001N9+00111-00221101891ADDAY101999GF104991041051017501001001KA1999N+00001MD1310141+9999
0064103380999991929041706004+52417+009750FM-12+001699999V0209999900261220001CN0040001N9+00281-00111103071ADDAY101999GF100991001001999999001001KA1999N-01391MD1310201+9999
0085103380999991929041806004+52417+009750FM-12+001699999V0209999900461220001CN0020001N9+00891+00061102731ADDAY101999GF102991001001999999001021KA1999N+00111EQDQ01+000032APCTENQ02+000002APC3  
0064103380999991929041906004+52417+009750FM-12+001699999V0209999900461220001CN0040001N9+01281+00611101951ADDAY111999GF104991001001999999001021KA1999N+01111MD1610061+9999
0101103380999991929042006004+52417+009750FM-12+001699999V02099999006719999999N0200001N9+00611+00391101011ADDAY121999GF108991999061001501001001KA1999N+00501EQDQ01+000042SCOTLCQ02+000042APCTENQ03+000202APC3  
0064103380999991929042106004+52417+009750FM-12+001699999V0209999900671007801CN0200001N9+00281-00111101681ADDAY101999GF106991061011008001001001KA1999N+00001MD1310061+9999
0075103380999991929042206004+52417+009750FM-12+001699999V0209999900101220001CN0100001N9+00111-00221102061ADDAA199002091AY101999GF102991011011012501001081KA1999N-00501MD1110141+9999
0070103380999991929042306004+52417+009750FM-12+001699999V0209999900261030001CN0200001N9+00281-00501100841ADDAY111999GF108991041061012501021001KA1999N+00001MD1310061+9999MW1701
0085103380999991929042406004+52417+009750FM-12+001699999V0209999900461075001CN0040001N9+00281+00061101131ADDAY111999GF106991041011004501001021KA1999N+00001EQDQ01+000032APCTENQ02+000002APC3  
0075103380999991929042506004+52417+009750FM-12+001699999V0209999900671220001CN0200001N9+00221-00171100961ADDAA199006091AY101999GF102991021011008001021001KA1999N-00111MD1310061+9999
0096103380999991929042606004+52417+009750FM-12+001699999V0209999900931220001CN0200001N9+00281-00111101031ADDAA199000691AY101999GF104991021011008001001081KA1999N+00001EQDQ01+000032APCTENQ02+000002APC3  
0081103380999991929042706004+52417+009750FM-12+001699999V0209999900671030001CN0040001N9+00611+00391100331ADDAA199005091AY161999GF108991041051002501021001KA1999N+00221MD1810141+9999MW1211
0075103380999991929042806004+52417+009750FM-12+001699999V0209999900101220001CN0100001N9+00501+00111101091ADDAA199002091AY101999GF104991021011008001001081KA1999N-00111MD1310261+9999
0064103380999991929042906004+52417+009750FM-12+001699999V0209999901231075001CN0200001N9+00391+00001100401ADDAY121999GF108991021051017501001081KA1999N+00221MD1810141+9999
0096103380999991929043006004+52417+009750FM-12+001699999V0209999900671220001CN0200001N9+01281+00611099571ADDAA199002091AY111999GF104991021051012501021001KA1999N+00891EQDQ01+000032APCTENQ02+000002APC3  
0088103380999991929050112004+52417+009750FM-12+001699999V0202701N00671220001CN0200001N9+01001-00111100871ADDAY111999GF104991999011008001001001EQDQ01+000022SCOTLCQ02+000032APCTENQ03+000002APC3  
0051103380999991929050212004+52417+009750FM-12+001699999V0203601N00101220001CN0200001N9+01001-00111101151ADDAY111999GF104991041011017501001081MD1810061+9999
0051103380999991929050312004+52417+009750FM-12+001699999V0200901N00101075001CN0200001N9+01281-00221101261ADDAY111999GF106991041011017501001081MD1990061+9999
0072103380999991929050412004+52417+009750FM-12+001699999V0209991C00001030001CN0010001N9+00891+00671101891ADDAY141999GF108991041051012501021001EQDQ01+000032APCTENQ02+000002APC3  
0051103380999991929050612004+52417+009750FM-12+001699999V0202001N01901220001CN0200001N9+02611+00441100401ADDAY101999GF101991001001999999001021MD1810261+9999
0051103380999991929050712004+52417+009750FM-12+001699999V0202301N00671075001CN0200001N9+01781+00561101071ADDAY111999GF106991041011012501001091MD1310061+9999
0051103380999991929050812004+52417+009750FM-12+001699999V0201601N00671075001CN0200001N9+02111+00891101401ADDAY111999GF106991041011012501001081MD1810141+9999
0070103380999991929050912004+52417+009750FM-12+001699999V0202901N006719999999N0100001N9+01391+00721101411ADDAY111999GF108991999051008001001001MD1310061+9999EQDQ01+000042SCOTLC
0051103380999991929051012004+52417+009750FM-12+001699999V0202901N00261220001CN0100001N9+01221+00781102301ADDAY101999GF102991021011004501001001MD1990061+9999
0051103380999991929051112004+52417+009750FM-12+001699999V0202301N00261220001CN0200001N9+02001+00391102121ADDAY101999GF102991021011012501001001MD1810061+9999
0051103380999991929051412004+52417+009750FM-12+001699999V0202301N00461030001CN0100001N9+01781+00561101361ADDAY111999GF108991041051012501021001MD1610061+9999
0051103380999991929051512004+52417+009750FM-12+001699999V0202701N00461007801CN0200001N9+01781+00221101261ADDAY111999GF106991061011008001001001MD1810141+9999
0072103380999991929051612004+52417+009750FM-12+001699999V0202901N00261220001CN0200001N9+01891+00671101711ADDAY111999GF104991021011012501031001EQDQ01+000082APCTENQ02+000002APC3  
0051103380999991929051712004+52417+009750FM-12+001699999V0203201N00261002401CN0040001N9+01111+00671101981ADDAY121999GF108991071051002501021001MD1810061+9999
0051103380999991929051812004+52417+009750FM-12+001699999V0200501N006719999999N0200001N9+01501+00611101671ADDAY121999GF108991999999022501999999MD1810061+9999
0051103380999991929052112004+52417+009750FM-12+001699999V0200901N00461220001CN0200001N9+02001+00391101801ADDAY101999GF102991001001999999001021MD1810061+9999
0051103380999991929052212004+52417+009750FM-12+001699999V0201101N00461220001CN0200001N9+02281+00671101721ADDAY101999GF100991001001999999001001MD1810061+9999
0051103380999991929052312004+52417+009750FM-12+001699999V0200901N00931075001CN0100001N9+02001+01331101711ADDAY111999GF106991041011012501001081MD1810141+9999
0057103380999991929052412004+52417+009750FM-12+001699999V0201101N00671075001CN0100001N9+02611+01331101321ADDAY111999GF106991041091012501001081MD1810201+9999MW1441
0051103380999991929052512004+52417+009750FM-12+001699999V0209991C00001220001CN0040001N9+02781+01111101671ADDAY101999GF104991041091012501001001MD1990141+9999
0072103380999991929052712004+52417+009750FM-12+001699999V0200701N00261220001CN0200001N9+02391+01111101621ADDAY101999GF102991021011012501001021EQDQ01+000082APCTENQ02+000002APC3  
0051103380999991929052812004+52417+009750FM-12+001699999V0202901N00101220001CN0200001N9+02501+01221101711ADDAY101999GF104991041011012501001001MD1810141+9999
0088103380999991929052912004+52417+009750FM-12+001699999V0202901N002619999999N0100001N9+01611+00941102031ADDAY111999GF107991999051008001001001EQDQ01+000042SCOTLCQ02+000072APCTENQ03+000002APC3  
0051103380999991929053012004+52417+009750FM-12+001699999V0200201N00101220001CN0200001N9+01781+00561102271ADDAY111999GF104991041011012501001001MD1810061+9999
0051103380999991929053112004+52417+009750FM-12+001699999V0203201N00671004501CN0100001N9+01221+00781101761ADDAY121999GF108991081051004501999999MD1810061+9999
0051103380999991929060112004+52417+009750FM-12+001699999V0202501N00461015001CN0200001N9+01721+00171102041ADDAY111999GF106991061011017501001001MD1990061+9999
0076103380999991929060312004+52417+009750FM-12+001699999V0202501N00931002401CN0040001N9+01611+01331100571ADDAY161999GF108991999061002501001001MD1810061+9999MW1211EQDQ01+000062SCOTLC
0070103380999991929060412004+52417+009750FM-12+001699999V0202701N00461007801CN0200001N9+01221+00781100241ADDAY161999GF108991999061008001001001MD1310141+9999EQDQ01+000062SCOTLC
0051103380999991929060512004+52417+009750FM-12+001699999V0202501N00671030001CN0200001N9+01221+00331100641ADDAY111999GF106991021011017501031001MD1810061+9999
0072103380999991929060612004+52417+009750FM-12+001699999V0201401N00461220001CN0100001N9+01501+00331100031ADDAY111999GF104991021011012501001081EQDQ01+000032APCTENQ02+000002APC3  
0070103380999991929060712004+52417+009750FM-12+001699999V0202501N01541007801CN0200001N9+01611+00941100301ADDAY181999GF106991999061008001999999MD1310201+9999EQDQ01+000082SCOTLC
0051103380999991929060812004+52417+009750FM-12+001699999V0201101N00101030001CN0200001N9+01891+00941101471ADDAY111999GF106991021011012501031001MD1810061+9999
0072103380999991929061012004+52417+009750FM-12+001699999V0203401N00101220001CN0100001N9+01781+00891102171ADDAY111999GF104991021011012501001021EQDQ01+000082APCTENQ02+000002APC3  
0051103380999991929061112004+52417+009750FM-12+001699999V0209991C00001220001CN0200001N9+01891+00671102911ADDAY101999GF102991021011012501001001MD1990061+9999
0051103380999991929061212004+52417+009750FM-12+001699999V0200901N00931220001CN0100001N9+02391+00781102081ADDAY111999GF104991001001999999021081MD1810141+9999
0051103380999991929061312004+52417+009750FM-12+001699999V0201801N00671030001CN0200001N9+02281+01611101531ADDAY111999GF107991041051012501021001MD1310061+9999
0072103380999991929061512004+52417+009750FM-12+001699999V0202501N00931220001CN0200001N9+02111+00891101761ADDAY111999GF104991041011017501001001EQDQ01+000032APCTENQ02+000002APC3  
0072103380999991929061712004+52417+009750FM-12+001699999V0202701N00461220001CN0200001N9+02111+01171102431ADDAY111999GF104991041011012501001001EQDQ01+000032APCTENQ02+000002APC3  
0051103380999991929061912004+52417+009750FM-12+001699999V0201401N00461220001CN0100001N9+02721+01061102211ADDAY101999GF104991041011017501001001MD1810141+9999
0051103380999991929062012004+52417+009750FM-12+001699999V0202701N00261220001CN0040001N9+03001+01671101801ADDAY101999GF104991021091017501031001MD1810061+9999
0051103380999991929062112004+52417+009750FM-12+001699999V0203201N00461030001CN0200001N9+01891+00671102301ADDAY111999GF106991041011012501031001MD1810061+9999
0051103380999991929062212004+52417+009750FM-12+001699999V0202501N00671030001CN0200001N9+01501+00331101971ADDAY121999GF108991041051012501021001MD1810201+9999
0070103380999991929062412004+52417+009750FM-12+001699999V0202501N006719999999N0200001N9+01281+00831100391ADDAY181999GF106991999061004501001001MD1810061+9999EQDQ01+000042SCOTLC
0057103380999991929062512004+52417+009750FM-12+001699999V0202701N00461030001CN0200001N9+01501+01061100261ADDAY181999GF106991041091004501021001MD1310201+9999MW1161
0070103380999991929062612004+52417+009750FM-12+001699999V0202701N004619999999N0100001N9+01391+00941101411ADDAY121999GF108991999051004501001001MD1310061+9999EQDQ01+000042SCOTLC
0051103380999991929062812004+52417+009750FM-12+001699999V0202901N00261015001CN0200001N9+02001+00781102021ADDAY111999GF106991061011017501001001MD1710061+9999
0051103380999991929062912004+52417+009750FM-12+001699999V0202701N00461220001CN0200001N9+01891+00671101861ADDAY101999GF104991041011012501001001MD1810141+9999
0072103380999991929070112004+52417+009750FM-12+001699999V0200701N00101030001CN0040001N9+01721+01671100601ADDAY161999GF108991041061012501021001EQDQ01+000032APCTENQ02+000002APC3  
0051103380999991929070212004+52417+009750FM-12+001699999V0202701N00101220001CN0200001N9+03001+02891101431ADDAY161999GF102991999999999999001001MD1010141+9999
0088103380999991929070312004+52417+009750FM-12+001699999V0202301N004619999999N0200001N9+02221+01561100701ADDAY111999GF106991999061008001001001EQDQ01+000022SCOTLCQ02+000042APCTENQ03+000142APC3  
0037103380999991929070412004+52417+009750FM-12+001699999V0202301N006719999999N0100001N9+02391+99999100711ADDAY111999GF106991999999012501999999
0072103380999991929070512004+52417+009750FM-12+001699999V0202501N00461075001CN0100001N9+02221+01001101731ADDAY111999GF107991041091012501001081EQDQ01+000032APCTENQ02+000002APC3  
0051103380999991929070612004+52417+009750FM-12+001699999V0202001N00461075001CN0200001N9+02001+01331100991ADDAY111999GF107991041091008001001081MD1810261+9999
0094103380999991929070812004+52417+009750FM-12+001699999V0202301N004619999999N0040001N9+01391+01171101441ADDAY181999GF106991999051008001001001MW1211EQDQ01+000042SCOTLCQ02+000032APCTENQ03+000002APC3  
0037103380999991929070912004+52417+009750FM-12+001699999V0202501N004619999999N0100001N9+01611+99999102131ADDAY111999GF106991999999012501999999
0070103380999991929071012004+52417+009750FM-12+001699999V0202501N004619999999N0100001N9+02281+01061102561ADDAY111999GF106991999011017501001001MD1990061+9999EQDQ01+000022SCOTLC
0051103380999991929071112004+52417+009750FM-12+001699999V0202301N001019999999N0100001N9+02281+01331102741ADDAY111999GF107991999999022501999999MD1610061+9999
0051103380999991929071212004+52417+009750FM-12+001699999V0202701N00101030001CN0040001N9+02611+01611102241ADDAY111999GF107991021011017501021001MD1810061+9999
0072103380999991929071312004+52417+009750FM-12+001699999V0203401N00261220001CN0200001N9+02281+00671102481ADDAY111999GF104991001001999999001021EQDQ01+000032APCTENQ02+000002APC3  
0070103380999991929071512004+52417+009750FM-12+001699999V0203401N00261220001CN0200001N9+02111+01171102561ADDAY111999GF104991999011017501001001MD1990061+9999EQDQ01+000022SCOTLC
0051103380999991929071612004+52417+009750FM-12+001699999V0200701N00101220001CN0200001N9+02501+01221102171ADDAY101999GF100991001001999999001001MD1810141+9999
0051103380999991929071812004+52417+009750FM-12+001699999V0202701N00261220001CN0100001N9+03001+01671101861ADDAY101999GF102991001001999999001081MD1990141+9999
0051103380999991929072012004+52417+009750FM-12+001699999V0201401N001019999999N0100001N9+02781+01501102021ADDAY111999GF108991999999022501999999MD1810061+9999
0051103380999991929072212004+52417+009750FM-12+001699999V0202501N00461075001CN0100001N9+03001+01671101751ADDAY111999GF106991021091012501001091MD1810061+9999
0051103380999991929072312004+52417+009750FM-12+001699999V0202501N00931075001CN0200001N9+02501+01561101791ADDAY111999GF106991041011012501001091MD1710061+9999
0057103380999991929072412004+52417+009750FM-12+001699999V0202301N00101007801CN0040001N9+01891+01611101101ADDAY161999GF108991061061008001021001MD1810201+9999MW1611
0051103380999991929072512004+52417+009750FM-12+001699999V0202701N00261220001CN0200001N9+02111+00891101351ADDAY111999GF104991041011012501001001MD1610061+9999
0072103380999991929072612004+52417+009750FM-12+001699999V0202701N00101075001CN0200001N9+02001+00391101681ADDAY111999GF106991041011012501001081EQDQ01+000032APCTENQ02+000002APC3  
0051103380999991929072712004+52417+009750FM-12+001699999V0202901N00461030001CN0500001N9+01781+00561102151ADDAY111999GF107991041051012501021001MD1310061+9999
0057103380999991929072912004+52417+009750FM-12+001699999V0201801N00671030001CN0040001N9+01891+01221100771ADDAY161999GF108991041061008001021001MD1810201+9999MW1601
0051103380999991929073012004+52417+009750FM-12+001699999V0202501N00931030001CN0200001N9+02001+01331100771ADDAY111999GF106991041011012501031001MD1310141+9999
0051103380999991929073112004+52417+009750FM-12+001699999V0202301N00671030001CN0040001N9+01781+01111100701ADDAY121999GF108991041051008001021001MD1810061+9999
0075103380999991929080106004+52417+009750FM-12+005199999V0202001N009319999999N0200001N9+01721+99999099651ADDAA199000391AY181999GF106991021051004501999999KA1999N+01501MD1810201+9999
0072103380999991929080112004+52417+009750FM-12+001699999V0202301N01901220001CN0200001N9+02111+00891099671ADDAY111999GF104991041011012501031001EQDQ01+000042APCTENQ02+000062APC3  
0102103380999991929080118004+52417+009750FM-12+005199999V0202301N009319999999N0200001N9+01781+99999099771ADDAA199000691AY181999GF106991041031008001999999KA1999M+02111MW1161EQDQ01+000032APCTENQ02+000002APC3  
0075103380999991929080206004+52417+009750FM-12+005199999V0202501N009319999999N0100001N9+01501+99999100541ADDAA199002091AY111999GF106991041061008001031999KA1999N+01391MD1310261+9999
0051103380999991929080212004+52417+009750FM-12+005199999V0202901N006719999999N0200001N9+01391+99999101051ADDAY181999GF107991041061004501011999MD1310201+9999
0075103380999991929080218004+52417+009750FM-12+005199999V0203201N002619999999N0500001N9+01501+99999101391ADDAA199002091AY111999GF106991021061004501999999KA1999M+01721MD1310201+9999
0064103380999991929080306004+52417+009750FM-12+005199999V0202301N00261220001CN0200001N9+01221+99999101981ADDAY101999GF100991001001999999001001KA1999N+00611MD1310201+9999
0051103380999991929080312004+52417+009750FM-12+001699999V0202301N00261012301CN0200001N9+02001+00781101861ADDAY111999GF106991061011012501001001MD1810141+9999
0064103380999991929080318004+52417+009750FM-12+005199999V0201801N00461220001CN0200001N9+02111+99999101671ADDAY111999GF104991011011017501001071KA1999M+02221MD1810141+9999
0085103380999991929080406004+52417+009750FM-12+005199999V0201601N00261220001CN0200001N9+01611+99999101521ADDAY111999GF106991001001999999011011KA1999N+01001EQDQ01+000032APCTENQ02+000002APC3  
0064103380999991929080506004+52417+009750FM-12+005199999V0202301N00261220001CN0040001N9+02001+99999100861ADDAY111999GF106991001001999999071999KA1999N+01501MD1310061+9999
0051103380999991929080512004+52417+009750FM-12+005199999V0202701N004619999999N0200001N9+02391+99999100901ADDAY111999GF106991021011012501001071MD1310061+9999
0064103380999991929080518004+52417+009750FM-12+005199999V0202901N004619999999N0000001N9+01721+99999101421ADDAY161999GF108991041051008001999999KA1999M+02501MD1310261+9999
0064103380999991929080606004+52417+009750FM-12+005199999V0201801N002619999999N0040001N9+01391+99999101861ADDAY111999GF106991021051017501011999KA1999N+00721MD1310061+9999
0037103380999991929080612004+52417+009750FM-12+001699999V0202301N002619999999N0200001N9+02221+99999101631ADDAY111999GF106991999999012501999999
0064103380999991929080618004+52417+009750FM-12+005199999V0201801N00671220001CN0200001N9+02221+99999101351ADDAY101999GF102991001001999999001071KA1999M+02391MD1610061+9999
0064103380999991929080706004+52417+009750FM-12+005199999V0201801N00931220001CN0200001N9+01891+99999101111ADDAY101999GF104991001001999999001071KA1999N+01281MD1510001+9999
0051103380999991929080712004+52417+009750FM-12+001699999V0201801N00261075001CN0200001N9+02611+00941101011ADDAY111999GF106991021011012501001081MD1810061+9999
0085103380999991929080718004+52417+009750FM-12+005199999V0201801N001019999999N0200001N9+02501+99999100981ADDAY111999GF107991041051017501011999KA1999M+02891EQDQ01+000032APCTENQ02+000002APC3  
0081103380999991929080806004+52417+009750FM-12+005199999V0202901N001019999999N0040001N9+01501+99999101131ADDAA199000691AY161999GF108991021061022501011999KA1999N+01391MD1310061+9999MW1601
0051103380999991929080812004+52417+009750FM-12+005199999V0202701N001019999999N0200001N9+02111+99999101251ADDAY111999GF107991021011012501011999MD1310061+9999
0064103380999991929080818004+52417+009750FM-12+005199999V0202901N00101004501CN0100001N9+01721+99999101351ADDAY121999GF108991061051004501011999KA1999M+02111MD1310061+9999
0081103380999991929080906004+52417+009750FM-12+005199999V0202901N00101000151CN0002001N9+01281+99999101681ADDAA199000591AY141999GF109991091999000251999999KA1999N+01111MD1310141+9999MW1441
0051103380999991929080912004+52417+009750FM-12+005199999V0202901N002619999999N0200001N9+02001+99999101631ADDAY111999GF107991021071012501999999MD1510001+9999
0064103380999991929080918004+52417+009750FM-12+005199999V0203201N002619999999N0200001N9+01501+99999101591ADDAY111999GF106991021051012501011999KA1999M+02281MD1410001+9999
0077103380999991929081006004+52417+009750FM-12+005199999V0209991C000019999999N0020001N9+01611+99999101801ADDGF107991011051022501011999KA1999N+01001EQDQ01+000032APCTENQ02+000002APC3  
0072103380999991929081012004+52417+009750FM-12+005199999V0202301N00261220001CN0100001N9+02391+99999101781ADDAY101999GF102991021011012501001001EQDQ01+000082APCTENQ02+000002APC3  
0085103380999991929081018004+52417+009750FM-12+005199999V0202901N00101220001CN0100001N9+02111+99999101831ADDAY101999GF102991001001999999071999KA1999M+02501EQDQ01+000042APCTENQ02+000062APC3  
0056103380999991929081106004+52417+009750FM-12+005199999V0209991C00001220001CN0040001N9+01721+99999102121ADDGF102991001001999999001071KA1999N+00721MD1310061+9999
0096103380999991929081206004+52417+009750FM-12+005199999V0202701N002619999999N0040001N9+01721+99999101781ADDAA199000691AY161999GF106991041051017501031999KA1999N+01391EQDQ01+000032APCTENQ02+000002APC3  
0056103380999991929081212004+52417+009750FM-12+005199999V0202901N002619999999N0200001N9+02221+99999101881ADDAY181999GF106991041011008001011999EQDQ01+000002APC3  
0075103380999991929081218004+52417+009750FM-12+005199999V0202901N001019999999N0200001N9+02001+99999101921ADDAA199000391AY111999GF107991021051012501031999KA1999M+02391MD1310061+9999
0064103380999991929081306004+52417+009750FM-12+005199999V0202901N00101220001CN0040001N9+01501+99999102471ADDAY101999GF100991001001999999001001KA1999N+01001MD1110061+9999
0051103380999991929081312004+52417+009750FM-12+005199999V0202701N00461220001CN0200001N9+02281+99999102381ADDAY111999GF104991041011012501001001MD1810061+9999
0085103380999991929081318004+52417+009750FM-12+005199999V0209991C00001220001CN0200001N9+02001+99999102301ADDAY101999GF101991011011012501001001KA1999M+02391EQDQ01+000082APCTENQ02+000002APC3  
0064103380999991929081406004+52417+009750FM-12+005199999V0201801N00461220001CN0040001N9+01721+99999101991ADDAY101999GF104991021011012501001081KA1999N+00891MD1810141+9999
0070103380999991929081412004+52417+009750FM-12+001699999V0202301N00461220001CN0200001N9+02721+00561101721ADDAY101999GF102991999001999999031001MD1810201+9999EQDQ01+000002SCOTLC
0085103380999991929081418004+52417+009750FM-12+005199999V0202901N00261220001CN0200001N9+02221+99999101721ADDAY111999GF104991001001999999071999KA1999M+02781EQDQ01+000042APCTENQ02+000062APC3  
0056103380999991929081506004+52417+009750FM-12+005199999V0202901N00101220001CN0040001N9+01501+99999101951ADDGF104991001001999999071999KA1999N+00781MD1310061+9999
0051103380999991929081512004+52417+009750FM-12+005199999V0202701N001019999999N0200001N9+02221+99999101901ADDAY111999GF107991041051012501011999MD1510061+9999
0085103380999991929081518004+52417+009750FM-12+005199999V0203201N00101220001CN0200001N9+01891+99999101791ADDAY101999GF102991001001999999031071KA1999M+02281EQDQ01+000082APCTENQ02+000002APC3  
0096103380999991929081606004+52417+009750FM-12+005199999V0200901N001019999999N0100001N9+01391+99999101761ADDAA199000391AY121999GF107991041051017501011999KA1999N+01001EQDQ01+000032APCTENQ02+000002APC3  
0051103380999991929081612004+52417+009750FM-12+001699999V0200901N00261220001CN0100001N9+02501+01561101501ADDAY101999GF102991011011017501001091MD1810201+9999
0064103380999991929081618004+52417+009750FM-12+005199999V0201401N00101220001CN0040001N9+02501+99999101311ADDAY111999GF106991001001999999001071KA1999M+02721MD1610141+9999
0085103380999991929081706004+52417+009750FM-12+005199999V0201801N002619999999N0040001N9+02111+99999101011ADDAY111999GF108991041061008001011999KA1999N+01611EQDQ01+000042APCTENQ02+000062APC3  
0051103380999991929081712004+52417+009750FM-12+001699999V0202001N00261030001CN0040001N9+02281+01831101281ADDAY121999GF108991021051017501021001MD1310141+9999
0075103380999991929081718004+52417+009750FM-12+005199999V0202301N00261220001CN0100001N9+02111+99999101381ADDAA199000691AY111999GF102991001001999999011011KA1999M+02281MD1310061+9999
0077103380999991929081806004+52417+009750FM-12+005199999V0209991C00001220001CN0040001N9+01721+99999101541ADDGF107991001001999999031071KA1999N+01281EQDQ01+000032APCTENQ02+000002APC3  
0064103380999991929081906004+52417+009750FM-12+005199999V0202501N00101220001CN0040001N9+01281+99999102111ADDAY111999GF106991001001999999031081KA1999N+00891MD1310201+9999
0064103380999991929081918004+52417+009750FM-12+005199999V0203401N00101012301CN0200001N9+01611+99999102231ADDAY111999GF107991071051012501001001KA1999M+02111MD1810061+9999
0064103380999991929082006004+52417+009750FM-12+005199999V0209991C00001220001CN0100001N9+01111+99999102421ADDAY101999GF104991001001999999011071KA1999N+00221MD1310061+9999
0051103380999991929082012004+52417+009750FM-12+005199999V0203401N001019999999N0200001N9+01891+99999102181ADDAY111999GF107991041011017501001071MD1810141+9999
0064103380999991929082018004+52417+009750FM-12+005199999V0200901N001019999999N0200001N9+01721+99999102111ADDAY111999GF107991021051012501011999KA1999M+02111MD1410001+9999
0064103380999991929082106004+52417+009750FM-12+005199999V0201101N002619999999N0040001N9+01221+99999102231ADDAY111999GF106991041001022501071999KA1999N+00501MD1010061+9999
0037103380999991929082112004+52417+009750FM-12+001699999V0201801N002619999999N0200001N9+02001+99999102161ADDAY111999GF106991999999012501999999
0064103380999991929082118004+52417+009750FM-12+005199999V0202001N001019999999N0100001N9+01781+99999102141ADDAY111999GF107991041051017501011999KA1999M+02111MD1410001+9999
0083103380999991929082206004+52417+009750FM-12+005199999V0201801N00261220001CN0040001N9+01391+99999101991ADDAY101999GF101991999001999999031001KA1999N+00891MD1810061+9999EQDQ01+000002SCOTLC
0051103380999991929082212004+52417+009750FM-12+005199999V0202701N00461007801CN0040001N9+02111+99999101751ADDAY121999GF108991061061008001011999MD1810141+9999
0102103380999991929082218004+52417+009750FM-12+005199999V0202501N00261002401CN0040001N9+01501+99999101831ADDAA199000591AY161999GF108991081061002501999999KA1999M+02221MW1611EQDQ01+000032APCTENQ02+000002APC3  
0075103380999991929082306004+52417+009750FM-12+005199999V0202301N00101004501CN0040001N9+01501+99999102021ADDAA199001091AY161999GF108991081051004501999999KA1999N+01221MD1310141+9999
0072103380999991929082312004+52417+009750FM-12+001699999V0202301N00461075001CN0100001N9+02221+01001101981ADDAY111999GF106991041011012501001081EQDQ01+000082APCTENQ02+000002APC3  
0075103380999991929082318004+52417+009750FM-12+005199999V0202301N00461007801CN0100001N9+01891+99999101911ADDAA199000691AY181999GF108991061051008001011999KA1999M+02221MD1990061+9999
0096103380999991929082406004+52417+009750FM-12+005199999V0202501N00461002401CN0040001N9+01781+99999101861ADDAA199000691AY121999GF108991081051002501999999KA1999N+01611EQDQ01+000042APCTENQ02+000062APC3  
0051103380999991929082412004+52417+009750FM-12+001699999V0202301N00671220001CN0040001N9+02391+01441101811ADDAY101999GF104991021011012501001081MD1990141+9999
0064103380999991929082418004+52417+009750FM-12+005199999V0202501N00461220001CN0040001N9+02111+99999101671ADDAY101999GF101991011011004501001001KA1999M+02501MD1410001+9999
0064103380999991929082506004+52417+009750FM-12+005199999V0202501N00261002401CN0040001N9+01721+99999101941ADDAY111999GF108991081051002501999999KA1999N+01611MD1310061+9999
0064103380999991929082606004+52417+009750FM-12+005199999V0202701N00101012301CN0040001N9+01281+99999102421ADDAY111999GF107991071051012501001001KA1999N+01001MD1310061+9999
0051103380999991929082612004+52417+009750FM-12+005199999V0203201N00261220001CN0200001N9+02111+99999102461ADDAY111999GF104991021011008001001011MD1810061+9999
0064103380999991929082618004+52417+009750FM-12+005199999V0200201N00101220001CN0200001N9+01781+99999102351ADDAY101999GF101991001001999999001011KA1999M+02281MD1410001+9999
0064103380999991929082706004+52417+009750FM-12+005199999V0201101N00261220001CN0040001N9+01281+99999102241ADDAY101999GF101991001001999999001071KA1999N+00501MD1510001+9999
0051103380999991929082712004+52417+009750FM-12+001699999V0201401N00461220001CN0200001N9+02611+00441101831ADDAY101999GF100991001001999999001001MD1810261+9999
0064103380999991929082718004+52417+009750FM-12+005199999V0201101N00461220001CN0200001N9+02221+99999101511ADDAY101999GF100991001001999999001001KA1999M+02721MD1810141+9999
0085103380999991929082806004+52417+009750FM-12+005199999V0201601N00261220001CN0040001N9+02001+99999101301ADDAY101999GF102991001001999999001071KA1999N+01001EQDQ01+000072APCTENQ02+000002APC3  
0051103380999991929082812004+52417+009750FM-12+001699999V0202501N00461030001CN0200001N9+03111+01391101151ADDAY101999GF106991021011017501031001MD1610141+9999
0064103380999991929082818004+52417+009750FM-12+005199999V0202501N002619999999N0100001N9+02611+99999101341ADDAY111999GF107991021051022501011999KA1999M+03281MD1310141+9999
0064103380999991929082906004+52417+009750FM-12+005199999V0202301N001019999999N0100001N9+01891+99999101921ADDAY101999GF106991021051017501001071KA1999N+01501MD1310141+9999
0051103380999991929082912004+52417+009750FM-12+001699999V0202501N00461220001CN0200001N9+02501+01221101901ADDAY111999GF104991999999999999001001MD1810061+9999
0085103380999991929082918004+52417+009750FM-12+005199999V0202901N00261220001CN0100001N9+02111+99999101871ADDAY101999GF102991001001999999071999KA1999M+02611EQDQ01+000042APCTENQ02+000062APC3  
0085103380999991929083006004+52417+009750FM-12+005199999V0209991C00001220001CN0100001N9+01781+99999102031ADDAY111999GF102991011051022501001081KA1999N+00891EQDQ01+000032APCTENQ02+000002APC3  
0051103380999991929083012004+52417+009750FM-12+001699999V0201401N00101030001CN0100001N9+02611+01331101901ADDAY111999GF107991021051017501021001MD1810141+9999
0064103380999991929083018004+52417+009750FM-12+005199999V0201101N00101220001CN0100001N9+02221+99999101741ADDAY111999GF104991041051012501001071KA1999M+02721MD1810061+9999
0085103380999991929083106004+52417+009750FM-12+005199999V0201401N00101220001CN0040001N9+01781+99999101711ADDAY101999GF102991021011012501001071KA1999N+01221EQDQ01+000032APCTENQ02+000002APC3  
0051103380999991929083112004+52417+009750FM-12+001699999V0202001N00671220001CN0200001N9+03111+01391101431ADDAY101999GF101991011011017501001001MD1810141+9999
0085103380999991929083118004+52417+009750FM-12+005199999V0209991C00001220001CN0100001N9+02611+99999101371ADDAY101999GF100991001001999999001001KA1999M+03281EQDQ01+000032APCTENQ02+000002APC3  
0085103380999991929090106004+52417+009750FM-12+001699999V0209999900101220001CN0100001N9+02281+01061101491ADDAY101999GF100991001001999999001001KA1999N+01281EQDQ01+000032APCTENQ02+000002APC3  
0101103380999991929090206004+52417+009750FM-12+001699999V0209991C00001075001CN0020001N9+01781+01561101951ADDAY141999GF107991041051012501001081KA1999N+01221EQDQ01+009992WODIR Q02+000032APCTENQ03+000002APC3  
0051103380999991929090212004+52417+009750FM-12+005199999V0202901N00261220001CN0200001N9+02781+99999101901ADDAY101999GF102991011011017501001081MD1810061+9999
0085103380999991929090218004+52417+009750FM-12+005199999V0202901N00101220001CN0200001N9+02281+99999101871ADDAY101999GF102991001001999999001011KA1999M+02781EQDQ01+000032APCTENQ02+000002APC3  
0064103380999991929090306004+52417+009750FM-12+001699999V0209999900101220001CN0100001N9+01281+01061102241ADDAY101999GF102991001001999999001081KA1999N+00501MD1310061+9999
0051103380999991929090312004+52417+009750FM-12+005199999V0200901N00101220001CN0100001N9+02391+99999101991ADDAY101999GF101991001001999999001011MD1810201+9999
0064103380999991929090318004+52417+009750FM-12+005199999V0200901N00101220001CN0100001N9+02221+99999101781ADDAY101999GF104991011051022501001011KA1999M+02611MD1810141+9999
0064103380999991929090406004+52417+009750FM-12+001699999V0209999900101220001CN0100001N9+01281+00831101751ADDAY111999GF106991001001999999021081KA1999N+00891MD1310061+9999
0051103380999991929090412004+52417+009750FM-12+005199999V0201401N00671220001CN0100001N9+03112+99999101421ADDAY101999GF101991001001999999001011MD1810141+9999
0085103380999991929090418004+52417+009750FM-12+005199999V0201101N00101220001CN0040001N9+02611+99999101291ADDAY101999GF100991001001999999001001KA1999M+03221EQDQ01+000032APCTENQ02+000002APC3  
0101103380999991929090506004+52417+009750FM-12+001699999V0209991C00001220001CN0040001N9+01891+01831101441ADDAY141999GF104991041091022501001021KA1999N+01391EQDQ01+009992WODIR Q02+000042APCTENQ03+000062APC3  
0051103380999991929090512004+52417+009750FM-12+005199999V0202501N002619999999N0100001N9+02781+99999101461ADDAY191999GF106991021051022501011999MD1990061+9999
0081103380999991929090518004+52417+009750FM-12+005199999V0202701N001019999999N0100001N9+02501+99999101341ADDAA199005091AY111999GF106991021061017501011999KA1999M+02891MD1410001+9999MW1801
0096103380999991929090606004+52417+009750FM-12+001699999V0209999900461002401CN0040001N9+01721+01501101571ADDAA199000691AY111999GF108991081051002501999999KA1999N+01501EQDQ01+000032APCTENQ02+000002APC3  
0072103380999991929090612004+52417+009750FM-12+005199999V0202901N00461007801CN0100001N9+01781+99999101741ADDAY121999GF108991081051008001999999EQDQ01+000012APCTENQ02+000002APC3  
0075103380999991929090618004+52417+009750FM-12+005199999V0203201N00671220001CN0200001N9+01391+99999101901ADDAA199000691AY111999GF102991011051008001001011KA1999M+01891MD1310141+9999
0064103380999991929090706004+52417+009750FM-12+001699999V0209999900261015001CN0200001N9+01221+00781102391ADDAY111999GF106991061051017501001001KA1999N+00891MD1310141+9999
0051103380999991929090712004+52417+009750FM-12+005199999V0202901N00671220001CN0200001N9+01891+99999102401ADDAY111999GF102991021011012501001001MD1990061+9999
0064103380999991929090718004+52417+009750FM-12+005199999V0203201N00261220001CN0200001N9+01501+99999102441ADDAY101999GF102991011011022501001011KA1999M+02001MD1410001+9999
0100103380999991929090806004+52417+009750FM-12+001699999V02099999001019999999N0040001N9+01281+01061102401ADDAA199000691AY121999GF108991999061004501001001KA1999N+00781MD1410001+9999MW1501EQDQ01+000042SCOTLC
0064103380999991929090906004+52417+009750FM-12+001699999V0209999900261220001CN0040001N9+01781+01331101621ADDAY141999GF100991001001999999001001KA1999N+01501MD1810061+9999
0051103380999991929090912004+52417+009750FM-12+005199999V0202501N00671220001CN0100001N9+02781+99999101251ADDAY101999GF102991011011012501001091MD1810141+9999
0085103380999991929090918004+52417+009750FM-12+005199999V0203201N002619999999N0100001N9+02281+99999101181ADDAY111999GF106991041051022501011999KA1999M+02781EQDQ01+000042APCTENQ02+000062APC3  
0083103380999991929091006004+52417+009750FM-12+001699999V02099999002619999999N0200001N9+01501+00831101951ADDAY111999GF106991999051012501001001KA1999N+01281MD1110201+9999EQDQ01+000042SCOTLC
0072103380999991929091012004+52417+009750FM-12+005199999V0202901N00261012301CN0200001N9+01781+99999102121ADDAY111999GF107991071051012501001001EQDQ01+000042APCTENQ02+000062APC3  
0064103380999991929091018004+52417+009750FM-12+005199999V0203601N001019999999N0200001N9+01391+99999102241ADDAY111999GF106991041051012501001011KA1999M+02001MD1310061+9999
0083103380999991929091106004+52417+009750FM-12+001699999V0209999900101012301CN0040001N9+01281+00831102661ADDAY111999GF107991999051012501001001KA1999N+00721MD1310141+9999EQDQ01+000062SCOTLC
0051103380999991929091112004+52417+009750FM-12+005199999V0201101N00261220001CN0200001N9+01891+99999102541ADDAY101999GF102991001001999999001081MD1810141+9999
0064103380999991929091118004+52417+009750FM-12+005199999V0200901N00101220001CN0200001N9+01501+99999102401ADDAY101999GF101991001001999999001081KA1999M+02001MD1510001+9999
0085103380999991929091206004+52417+009750FM-12+001699999V0209999900261220001CN0040001N9+01001+00781102331ADDAY101999GF101991001001999999001081KA1999N+00281EQDQ01+000082APCTENQ02+000002APC3  
0051103380999991929091212004+52417+009750FM-12+005199999V0201401N00671220001CN0200001N9+02722+99999102021ADDAY101999GF100991001001999999001001MD1810141+9999
0085103380999991929091218004+52417+009750FM-12+005199999V0201401N00461220001CN0040001N9+02221+99999101871ADDAY111999GF107991001001999999071999KA1999M+02781EQDQ01+000062APCTENQ02+000002APC3  
0064103380999991929091306004+52417+009750FM-12+001699999V0209999900261030001CN0040001N9+01891+00941101701ADDAY111999GF107991021051022501021001KA1999N+00281MD1010061+9999
0051103380999991929091312004+52417+009750FM-12+005199999V0202301N00101021001CN0100001N9+02391+99999101671ADDAY111999GF107991061051022501011999MD1810061+9999
0088103380999991929091318004+52417+009750FM-12+005199999V0201401N001019999999N0020001N9+02111+99999101581ADDAA199000391GF107991041051022501011999KA1999M+02501EQDQ01+000032APCTENQ02+000002APC3  
0117103380999991929091406004+52417+009750FM-12+001699999V0209991C000019999999N0020001N9+01721+01671101581ADDAY141999GF107991041051999999021001KA1999N+01501EQDQ01+009992WODIR Q02+000992SCOLCBQ03+000042APCTENQ04+000062APC3  
0072103380999991929091412004+52417+009750FM-12+005199999V0203201N002619999999N0040001N9+02501+99999101601ADDAY111999GF106991021031017501031999EQDQ01+000032APCTENQ02+000002APC3  
0083103380999991929091418004+52417+009750FM-12+005199999V0203201N00261024001CN0040001N9+02001+99999101641ADDAY111999GF107991061051999999031999KA1999M+02611MD1310061+9999EQDQ01+000992SCOLCB
0092103380999991929091506004+52417+009750FM-12+001699999V0209991C00001001501CN0040001N9+01611+01561102081ADDAY121999GF108991999061001501001001MD1110201+9999MW1951EQDQ01+009992WODIR Q02+000062SCOTLC
0102103380999991929091606004+52417+009750FM-12+001699999V0209999900261000601CN0005001N9+01501+01441102371ADDAA199000691AY141999GF108991081051000751999999KA1999N+01391MW1431EQDQ01+000042APCTENQ02+000062APC3  
0051103380999991929091612004+52417+009750FM-12+005199999V0200901N00261220001CN0100001N9+00281+99999102281ADDAY111999GF104991041011004501001001MD1810061+9999
0085103380999991929091618004+52417+009750FM-12+005199999V0200701N00261220001CN0100001N9+01781+99999102221ADDAY101999GF104991001001999999011081KA1999M+02391EQDQ01+000042APCTENQ02+000062APC3  
0085103380999991929091706004+52417+009750FM-12+001699999V0209999900101220001CN0040001N9+01221+01001102201ADDAY141999GF106991001001999999021081KA1999N+00721EQDQ01+000032APCTENQ02+000002APC3  
0051103380999991929091712004+52417+009750FM-12+005199999V0200901N00461220001CN0100001N9+02221+99999101961ADDAY111999GF106991001001999999001091MD1810201+9999
0051103380999991929091718004+52417+009750FM-12+005199999V0201101N00101220001CN0100001N9+01721+99999101801ADDAY111999GF106991001001999999071999MD1810061+9999
0064103380999991929091806004+52417+009750FM-12+001699999V0209999900101220001CN0020001N9+01001+00781101541ADDAY111999GF106991001001999999001021KA1999N+00721MD1410001+9999
0051103380999991929091812004+52417+009750FM-12+005199999V0201601N00261220001CN0200001N9+02391+99999101231ADDAY111999GF106991001001999999001081MD1810141+9999
0056103380999991929091818004+52417+009750FM-12+005199999V0201401N00101220001CN0020001N9+01781+99999101011ADDGF106991001001999999031081KA1999M+02501MD1610061+9999
0107103380999991929091906004+52417+009750FM-12+001699999V02099999002619999999N0020001N9+01781+01111100921ADDAY141999GF107991999061017501001001KA1999N+01111MW1601EQDQ01+000042SCOTLCQ02+000042APCTENQ03+000062APC3  
0072103380999991929091912004+52417+009750FM-12+005199999V0202501N00261007801CN0040001N9+02001+99999100981ADDAY121999GF108991081051008001999999EQDQ01+000082APCTENQ02+000002APC3  
0096103380999991929091918004+52417+009750FM-12+005199999V0202301N004619999999N0040001N9+01891+99999100951ADDAA199000691AY101999GF107991041051008001999999KA1999M+02111EQDQ01+000082APCTENQ02+000002APC3  
0064103380999991929092006004+52417+009750FM-12+001699999V0209999900931007801CN0040001N9+01611+00941100401ADDAY121999GF108991061051008001021001KA1999N+01281MD1710201+9999
0057103380999991929092012004+52417+009750FM-12+005199999V0202301N01231000151CN0040001N9+01391+99999099831ADDAY161999GF108991061061000251999999MD1810341+9999MW1631
0102103380999991929092018004+52417+009750FM-12+005199999V0202501N006719999999N0100001N9+01111+99999099891ADDAA199015091AY161999GF107991041091002501999999KA1999M+01611MW1281EQDQ01+000012APCTENQ02+000002APC3  
0064103380999991929092106004+52417+009750FM-12+001699999V0209999900671220001CN0200001N9+00891+00281100821ADDAY101999GF104991021011012501031001KA1999N+00781MD1110061+9999
0051103380999991929092112004+52417+009750FM-12+005199999V0202501N006719999999N0200001N9+01221+99999100851ADDAY181999GF108991021071012501999999MD1510061+9999
0081103380999991929092118004+52417+009750FM-12+005199999V0202301N00671002401CN0020001N9+01111+99999100461ADDAA199001091AY161999GF108991081061002501999999KA1999M+01391MD1810201+9999MW1611
0075103380999991929092206004+52417+009750FM-12+001699999V0209999900931220001CN0200001N9+01111+00671101071ADDAA199002091AY101999GF101991011051022501031001KA1999N+01001MD1310261+9999
0100103380999991929092306004+52417+009750FM-12+001699999V02099999002619999999N0040001N9+01111+01061102271ADDAA199003091AY111999GF107991999061001501001001KA1999N+00781MD1310141+9999MW1501EQDQ01+000042SCOTLC
0051103380999991929092312004+52417+009750FM-12+005199999V0202701N001019999999N0200001N9+01391+99999102421ADDAY121999GF108991041051004501011999MD1310061+9999
0096103380999991929092318004+52417+009750FM-12+005199999V0209991C000019999999N0040001N9+01281+99999102541ADDAA199000691AY121999GF108991021011012501011999KA1999M+01501EQDQ01+000042APCTENQ02+000062APC3  
0075103380999991929092406004+52417+009750FM-12+001699999V0209999900101012301CN0100001N9+01111+01061102881ADDAA199000591AY111999GF107991061051012501031001KA1999N+01001MD1310141+9999
0051103380999991929092412004+52417+009750FM-12+005199999V0200701N00261220001CN0200001N9+01721+99999102991ADDAY101999GF102991021011012501001011MD1310061+9999
0064103380999991929092418004+52417+009750FM-12+005199999V0200901N00101220001CN0100001N9+01221+99999103111ADDAY101999GF100991001001999999001001KA1999M+01721MD1310061+9999
0083103380999991929092506004+52417+009750FM-12+001699999V0209991C00001002401CN0040001N9+00501+00441103631ADDAY111999GF107991071051002501001001KA1999N+00111MD1310141+9999EQDQ01+009992WODIR 
0056103380999991929092512004+52417+009750FM-12+005199999V0201101N00261220001CN0040001N9+01391+99999103671ADDAY121999GF100991001001999999001001EQDQ01+000002APC3  
0064103380999991929092518004+52417+009750FM-12+005199999V0200901N00101220001CN0040001N9+01221+99999103631ADDAY101999GF100991001001999999001001KA1999M+01611MD1410001+9999
0085103380999991929092606004+52417+009750FM-12+001699999V0209999900101220001CN0020001N9+00501+00441103571ADDAY141999GF100991001001999999001001KA1999N+00001EQDQ01+000032APCTENQ02+000002APC3  
0051103380999991929092612004+52417+009750FM-12+005199999V0202301N00101220001CN0040001N9+01891+99999103361ADDAY101999GF101991001001999999001011MD1810141+9999
0085103380999991929092618004+52417+009750FM-12+005199999V0209991C00001220001CN0020001N9+01281+99999103151ADDAY101999GF102991001001999999001011KA1999M+02001EQDQ01+000062APCTENQ02+000002APC3  
0064103380999991929092706004+52417+009750FM-12+001699999V0209999900101220001CN0020001N9+00891+00831102881ADDAY141999GF101991001001999999001021KA1999N+00281MD1810061+9999
0051103380999991929092712004+52417+009750FM-12+005199999V0209991C00001220001CN0040001N9+02281+99999102671ADDAY101999GF100991001001999999001001MD1810141+9999
0064103380999991929092718004+52417+009750FM-12+005199999V0201801N00101220001CN0020001N9+01501+99999102521ADDAY101999GF100991001001999999001001KA1999M+02391MD1510001+9999
0085103380999991929092806004+52417+009750FM-12+001699999V0209999900261220001CN0040001N9+01221+00781102471ADDAY101999GF104991001001999999001021KA1999N+00611EQDQ01+000032APCTENQ02+000002APC3  
0051103380999991929092812004+52417+009750FM-12+005199999V0201801N00671220001CN0200001N9+02501+99999102311ADDAY101999GF104991001001999999001081MD1810141+9999
0077103380999991929092818004+52417+009750FM-12+005199999V0201801N00261220001CN0020001N9+01781+99999102261ADDGF102991001001999999001081KA1999M+02501EQDQ01+000032APCTENQ02+000002APC3  
0085103380999991929092906004+52417+009750FM-12+001699999V0209999900261220001CN0040001N9+01281+00611102031ADDAY111999GF106991001001999999001021KA1999N+00781EQDQ01+000032APCTENQ02+000002APC3  
0085103380999991929093006004+52417+009750FM-12+001699999V0209999900261030001CN0040001N9+01221+01001101911ADDAY141999GF106991021051017501031001KA1999N+01001EQDQ01+000032APCTENQ02+000002APC3  
0051103380999991929093012004+52417+009750FM-12+005199999V0202301N00671007801CN0100001N9+02111+99999101711ADDAY111999GF107991061011008001031999MD1810141+9999
0096103380999991929093018004+52417+009750FM-12+005199999V0202301N00261220001CN0040001N9+01721+99999101701ADDAA199000691AY111999GF104991021051008001001011KA1999M+02111EQDQ01+000042APCTENQ02+000062APC3  
0100103380999991929100106004+52417+009750FM-12+001699999V02099999004619999999N0040001N9+01501+01441100961ADDAA199004091AY161999GF108991999061002501001001KA1999N+01221MD1810201+9999MW1611EQDQ01+000042SCOTLC
0051103380999991929100112004+52417+009750FM-12+005199999V0202701N006719999999N0100001N9+01611+99999101061ADDAY161999GF108991041051004501011999MD1310061+9999
0075103380999991929100118004+52417+009750FM-12+005199999V0202901N00261220001CN0200001N9+01111+99999101421ADDAA199004091AY101999GF104991041051012501001001KA1999M+01611MD1310201+9999
0100103380999991929100206004+52417+009750FM-12+001699999V02099999012319999999N0040001N9+01221+01171100481ADDAA199000591AY161999GF108991999061008001001001KA1999N+00611MD1810341+9999MW1601EQDQ01+000042SCOTLC
0057103380999991929100212004+52417+009750FM-12+005199999V0202301N00931002401CN0040001N9+01611+99999100221ADDAY161999GF108991061061002501011999MD1810061+9999MW1811
0075103380999991929100218004+52417+009750FM-12+005199999V0202301N00671004501CN0100001N9+01391+99999100511ADDAA199010091AY161999GF108991061051004501011999KA1999M+01611MD1210201+9999
0081103380999991929100306004+52417+009750FM-12+001699999V0209999900461004501CN0040001N9+01221+01001100531ADDAA199002091AY161999GF108991081061004501999999KA1999N+01111MD1990061+9999MW1611
0057103380999991929100312004+52417+009750FM-12+005199999V0202001N00261004501CN0040001N9+01281+99999100311ADDAY161999GF108991081061004501999999MD1810141+9999MW1611
0081103380999991929100318004+52417+009750FM-12+005199999V0202701N00101002401CN0010001N9+01221+99999100491ADDAA199013091AY161999GF108991081061002501999999KA1999M+01281MD1310141+9999MW1611
0100103380999991929100406004+52417+009750FM-12+001699999V02099999001019999999N0040001N9+01111+01061100971ADDAA199002091AY161999GF108991999061012501001001KA1999N+01111MD1210061+9999MW1601EQDQ01+000042SCOTLC
0056103380999991929100412004+52417+009750FM-12+005199999V0201801N00101004501CN0040001N9+01391+99999101051ADDAY181999GF108991061061004501011999EQDQ01+000002APC3  
0081103380999991929100418004+52417+009750FM-12+005199999V0201401N00261002401CN0020001N9+01221+99999100851ADDAA199005091AY161999GF108991061061002501011999KA1999M+01501MD1710141+9999MW1641
0081103380999991929100506004+52417+009750FM-12+001699999V0209999900101000601CN0010001N9+00891+00831100841ADDAA199009091AY141999GF108991081051000751999999KA1999N+00781MD1310141+9999MW1101
0051103380999991929100512004+52417+009750FM-12+005199999V0202901N001019999999N0100001N9+01111+99999101091ADDAY161999GF108991041061002501999999MD1310141+9999
0096103380999991929100518004+52417+009750FM-12+005199999V0209991C00001004501CN0040001N9+01001+99999101111ADDAA199001091AY121999GF108991081051004501999999KA1999M+01221EQDQ01+000032APCTENQ02+000002APC3  
0081103380999991929100606004+52417+009750FM-12+001699999V0209999900461030001CN0040001N9+01111+01061100471ADDAA199002091AY161999GF108991041061008001021001KA1999N+01001MD1610141+9999MW1601
0064103380999991929100706004+52417+009750FM-12+001699999V0209999900671220001CN0200001N9+01111+00671101071ADDAY101999GF102991011011022501021001KA1999N+01001MD1310201+9999
0051103380999991929100712004+52417+009750FM-12+005199999V0202301N00461220001CN0200001N9+01611+99999101381ADDAY111999GF104991021011012501001081MD1310141+9999
0064103380999991929100718004+52417+009750FM-12+005199999V0202001N00101220001CN0040001N9+01001+99999101521ADDAY101999GF101991011051022501001001KA1999M+01611MD1310061+9999
0064103380999991929100806004+52417+009750FM-12+001699999V0209999900261220001CN0040001N9+00611+00561101131ADDAY141999GF102991001001999999021021KA1999N+00281MD1810201+9999
0051103380999991929100812004+52417+009750FM-12+005199999V0201801N009319999999N0100001N9+01611+99999100581ADDAY111999GF107991021011017501011999MD1810261+9999
0081103380999991929100818004+52417+009750FM-12+005199999V0201801N006719999999N0100001N9+01391+99999100391ADDAA199000691AY121999GF108991021061012501011999KA1999M+01611MD1410001+9999MW1601
0072103380999991929100906004+52417+009750FM-12+001699999V0209999900671030001CN0100001N9+01281+01061100021ADDAY161999GF107991041051008001021001EQDQ01+000042APCTENQ02+000062APC3  
0057103380999991929100912004+52417+009750FM-12+005199999V0202301N012319999999N0100001N9+00891+99999100371ADDAY161999GF107991041081008001999999MD1310261+9999MW1801
0081103380999991929100918004+52417+009750FM-12+005199999V0202301N01231002401CN0100001N9+00781+99999100791ADDAA199003091AY161999GF108991061061002501011999KA1999M+01391MD1310141+9999MW1631
0075103380999991929101006004+52417+009750FM-12+001699999V0209999901231030001CN0200001N9+00781+00561101511ADDAA199003091AY111999GF107991041051008001021001KA1999N+00781MD1310261+9999
0081103380999991929101018004+52417+009750FM-12+005199999V0202501N00461004501CN0100001N9+01001+99999101911ADDAA199000591AY181999GF108991081061004501999999KA1999M+01221MD1110061+9999MW1801
0081103380999991929101106004+52417+009750FM-12+001699999V0209999900671002401CN0040001N9+01111+00891101631ADDAA199000591AY161999GF108991081061002501999999KA1999N+00891MD1810061+9999MW1501
0051103380999991929101112004+52417+009750FM-12+005199999V0202501N00931220001CN0100001N9+01391+99999101411ADDAY181999GF104991021061004501999999MD1810141+9999
0075103380999991929101118004+52417+009750FM-12+005199999V0202501N00461220001CN0100001N9+01001+99999101581ADDAA199003091AY101999GF102991011051017501011999KA1999M+01001MD1310061+9999
0064103380999991929101206004+52417+009750FM-12+001699999V0209999900931220001CN0100001N9+00891+00671101951ADDAY101999GF102991011051012501021001KA1999N+00781MD1310141+9999
0051103380999991929101212004+52417+009750FM-12+005199999V0202901N006719999999N0200001N9+01281+99999102231ADDAY181999GF106991021061008001999999MD1310141+9999
0064103380999991929101218004+52417+009750FM-12+005199999V0202701N00261220001CN0100001N9+00891+99999102441ADDAY111999GF102991011011012501031999KA1999M+01501MD1310141+9999
0085103380999991929101306004+52417+009750FM-12+001699999V0209999900461220001CN0040001N9+01111+01061102531ADDAY121999GF106991001001999999031021KA1999N+00781EQDQ01+000042APCTENQ02+000062APC3  
0070103380999991929101406004+52417+009750FM-12+001699999V0209999900101015001CN0010001N9+01111+01061102871ADDAY121999GF108991081051017501999999KA1999N+00891MD1310141+9999MW1101
0051103380999991929101412004+52417+009750FM-12+005199999V0202301N002619999999N0040001N9+01611+99999102821ADDAY111999GF107991041051012501001081MD1810061+9999
0085103380999991929101418004+52417+009750FM-12+005199999V0202301N00261012301CN0040001N9+01391+99999102741ADDAY111999GF107991071051012501001001KA1999M+01611EQDQ01+000072APCTENQ02+000002APC3  
0085103380999991929101506004+52417+009750FM-12+001699999V0209999900261007801CN0040001N9+01221+01171102831ADDAY111999GF108991081051008001999999KA1999N+01221EQDQ01+000032APCTENQ02+000002APC3  
0051103380999991929101512004+52417+009750FM-12+005199999V0202501N002619999999N0040001N9+01611+99999102801ADDAY161999GF107991041051004501031999MD1990061+9999
0096103380999991929101518004+52417+009750FM-12+005199999V0209991C00001220001CN0100001N9+01111+99999102801ADDAA199000391AY111999GF102991011051008001011999KA1999M+01611EQDQ01+000032APCTENQ02+000002APC3  
0081103380999991929101606004+52417+009750FM-12+001699999V0209999900101000151CN0000501N9+00611+00561102431ADDAA199000691AY141999GF108991081051000251999999KA1999N+00281MD1710061+9999MW1451
0051103380999991929101612004+52417+009750FM-12+005199999V0201401N00461220001CN0040001N9+01391+99999102021ADDAY141999GF102991011011012501001011MD1810261+9999
0064103380999991929101618004+52417+009750FM-12+005199999V0201601N00261220001CN0040001N9+01111+99999101631ADDAY111999GF106991001001999999001011KA1999M+01611MD1610061+9999
0118103380999991929101706004+52417+009750FM-12+001699999V02099999004619999999N0040001N9+01281+01061101461ADDAA199000391AY161999GF107991999061004501001001KA1999N+00891MW1601EQDQ01+000042SCOTLCQ02+000032APCTENQ03+000002APC3  
0072103380999991929101712004+52417+009750FM-12+005199999V0202501N00671012301CN0100001N9+01391+99999101581ADDAY111999GF107991061051012501011999EQDQ01+000082APCTENQ02+000002APC3  
0096103380999991929101718004+52417+009750FM-12+005199999V0202301N004619999999N0100001N9+01281+99999101541ADDAA199000691AY111999GF106991041051017501031999KA1999M+01501EQDQ01+000032APCTENQ02+000002APC3  
0083103380999991929101806004+52417+009750FM-12+001699999V0209999900461220001CN0040001N9+01001+00781101261ADDAY111999GF106991999001999999021001KA1999N+00781MD1810061+9999EQDQ01+000002SCOTLC
0051103380999991929101812004+52417+009750FM-12+005199999V0201801N00461015001CN0100001N9+01501+99999101031ADDAY111999GF107991061051017501011999MD1810141+9999
0064103380999991929101818004+52417+009750FM-12+005199999V0202001N00461012301CN0040001N9+01281+99999100871ADDAY111999GF107991071051012501001001KA1999M+01611MD1810141+9999
0118103380999991929101906004+52417+009750FM-12+001699999V0209991C00001004501CN0010001N9+00891+00831100481ADDAA199004091AY161999GF108991081051004501999999KA1999N+00781MW1101EQDQ01+009992WODIR Q02+000042APCTENQ03+000062APC3  
0051103380999991929101912004+52417+009750FM-12+005199999V0202901N002619999999N0200001N9+01281+99999100411ADDAY111999GF108991041011012501011999MD1610061+9999
0064103380999991929101918004+52417+009750FM-12+005199999V0203201N00101220001CN0100001N9+00891+99999100491ADDAY121999GF108991001001999999011999KA1999M+01391MD1310061+9999
0070103380999991929102006004+52417+009750FM-12+001699999V0209999900101000151CN0000501N9+00501+00441100481ADDAY141999GF108991081051000251999999KA1999N+00391MD1310061+9999MW1451
0070103380999991929102106004+52417+009750FM-12+001699999V0209999900101220001CN0005001N9+00111+00061101061ADDAY141999GF102991001001999999021021KA1999N-00111MD1310141+9999MW1441
0043103380999991929102112004+52417+009750FM-12+005199999V0201401N00261220001CN0100001N9+01221+99999101211ADDGF106991001001999999011081MD1310061+9999
0064103380999991929102118004+52417+009750FM-12+005199999V0201401N00261220001CN0020001N9+00721+99999101271ADDAY111999GF104991001001999999011011KA1999M+01281MD1310061+9999
0081103380999991929102206004+52417+009750FM-12+001699999V0209999900261000151CN0000001N9+00281+00221101101ADDAA199000591AY141999GF108991081051000251999999KA1999N-00221MD1990061+9999MW1471
0051103380999991929102212004+52417+009750FM-12+005199999V0201801N00461220001CN0040001N9+01001+99999100991ADDAY141999GF106991001001999999001071MD1990141+9999
0083103380999991929102218004+52417+009750FM-12+005199999V0201601N00461220001CN0010001N9+00611+99999100931ADDGF102991001001999999001081KA1999M+01001MW1441EQDQ01+000032APCTENQ02+000002APC3  
0091103380999991929102306004+52417+009750FM-12+001699999V0209999900101220001CN0010001N9+00501+00441100781ADDAY141999GF102991001001999999031081KA1999N+00001MW1101EQDQ01+000032APCTENQ02+000002APC3  
0051103380999991929102312004+52417+009750FM-12+005199999V0202501N00461015001CN0040001N9+01221+99999100741ADDAY111999GF107991071051017501001001MD1990061+9999
0070103380999991929102318004+52417+009750FM-12+005199999V0202301N00101220001CN0010001N9+00721+99999100791ADDGF100991001001999999001001MW1441EQDQ01+000032APCTENQ02+000002APC3  
0085103380999991929102406004+52417+009750FM-12+001699999V0209999900671030001CN0040001N9+00781+00561100601ADDAY141999GF107991041051012501021001KA1999N+00501EQDQ01+000032APCTENQ02+000002APC3  
0051103380999991929102412004+52417+009750FM-12+005199999V0202001N01231220001CN0200001N9+01391+99999100301ADDAY101999GF102991021011017501001001MD1810261+9999
0069103380999991929102418004+52417+009750FM-12+005199999V0201801N00671220001CN0040001N9+00781+99999100231ADDAY101999GF100991001001999999001001KA1999M+01391EQDQ01+000002APC3  
0064103380999991929102506004+52417+009750FM-12+001699999V0209999900671030001CN0040001N9+01111+00671099621ADDAY111999GF107991041051008001021001KA1999N+00501MD1510061+9999
0051103380999991929102512004+52417+009750FM-12+005199999V0202301N002619999999N0200001N9+01111+99999099981ADDAY121999GF108991041051008001999999MD1310141+9999
0075103380999991929102518004+52417+009750FM-12+005199999V0202001N00101004501CN0020001N9+00891+99999100111ADDAA199000691AY161999GF108991061061004501011999KA1999M+01221MD1110061+9999
0081103380999991929102606004+52417+009750FM-12+001699999V0209999900101220001CN0010001N9+00501+00441099971ADDAA199000691AY141999GF108991001001999999021081KA1999N+00391MD1310141+9999MW1101
0072103380999991929102612004+52417+009750FM-12+005199999V0202701N002619999999N0100001N9+01001+99999099901ADDAY121999GF107991041051017501001071EQDQ01+000082APCTENQ02+000002APC3  
0085103380999991929102618004+52417+009750FM-12+005199999V0202501N00101220001CN0040001N9+00721+99999100051ADDAY101999GF102991021051012501001001KA1999M+01001EQDQ01+000042APCTENQ02+000142APC3  
0051103380999991929102706004+52417+009750FM-12+001699999V0209999900261030001CN0100001N9+00501+00281100371ADDAY111999GF107991021051012501021001MD1310201+9999
0081103380999991929102806004+52417+009750FM-12+001699999V0209999900461030001CN0200001N9+00391+00331101031ADDAA199006091AY161999GF106991041051008001031001KA1999N+00391MD1310261+9999MW1211
0072103380999991929102812004+52417+009750FM-12+005199999V0202701N006719999999N0200001N9+01001+99999101181ADDAY111999GF107991041051012501001011EQDQ01+000032APCTENQ02+000002APC3  
0085103380999991929102818004+52417+009750FM-12+005199999V0202001N00461220001CN0040001N9+00721+99999101111ADDAY111999GF108991001001999999011081KA1999M+01001EQDQ01+000082APCTENQ02+000002APC3  
0081103380999991929102906004+52417+009750FM-12+001699999V0209999900671030001CN0200001N9+00721+00501099711ADDAA199002091AY161999GF108991041061004501021001KA1999N+00501MD1810141+9999MW1211
0057103380999991929102912004+52417+009750FM-12+005199999V0202001N012319999999N0040001N9+00891+99999099071ADDAY161999GF108991041061004501999999MD1810341+9999MW1621
0075103380999991929102918004+52417+009750FM-12+005199999V0202301N00671220001CN0100001N9+01001+99999099351ADDAA199009091AY161999GF104991041051008001001001KA1999M+01001MD1310141+9999
0083103380999991929103006004+52417+009750FM-12+001699999V0209999900461004501CN0040001N9+00891+00671099841ADDAY121999GF108991999061004501001001KA1999N+00891MD1310201+9999EQDQ01+000062SCOTLC
0057103380999991929103012004+52417+009750FM-12+005199999V0202501N004619999999N0040001N9+01001+99999100231ADDAY161999GF108991041061001501999999MD1310141+9999MW1611
0081103380999991929103018004+52417+009750FM-12+005199999V0202901N00261004501CN0040001N9+00781+99999100751ADDAA199002091AY161999GF108991081061004501999999KA1999M+01001MD1310261+9999MW1611
0075103380999991929103106004+52417+009750FM-12+001699999V0209999900261012301CN0040001N9+00721+00671101941ADDAA199002091AY161999GF107991061051012501021001KA1999N+00611MD1310261+9999
0051103380999991929103112004+52417+009750FM-12+005199999V0200501N004619999999N0200001N9+00781+99999102231ADDAY111999GF107991041051008001031999MD1310141+9999
0064103380999991929103118004+52417+009750FM-12+005199999V0200501N00261007801CN0100001N9+01001+99999102561ADDAY171999GF106991061051008001001001KA1999M+01001MD1310201+9999
0064103380999991929110106004+52417+009750FM-12+001699999V0209999900261030001CN0100001N9+00391+00171102791ADDAY121999GF107991041051008001021001KA1999N+00391MD1310141+9999
0051103380999991929110112004+52417+009750FM-12+005199999V0200701N00261004501CN0100001N9+00781+99999102781ADDAY111999GF107991061051004501011999MD1990061+9999
0075103380999991929110118004+52417+009750FM-12+005199999V0200501N001019999999N0100001N9+00611+99999102831ADDAA199000691AY161999GF106991021061004501011999KA1999M+00781MD1110061+9999
0096103380999991929110206004+52417+009750FM-12+001699999V0209999900101012301CN0100001N9+00281+00221102831ADDAA199000391AY121999GF107991061051012501021001KA1999N+00281EQDQ01+000042APCTENQ02+000062APC3  
0051103380999991929110212004+52417+009750FM-12+005199999V0201101N001019999999N0100001N9+00721+99999102711ADDAY111999GF107991021071004501999999MD1990141+9999
0085103380999991929110218004+52417+009750FM-12+005199999V0200901N00101012301CN0040001N9+00501+99999102631ADDAY111999GF106991061051012501001001KA1999M+00721EQDQ01+000032APCTENQ02+000002APC3  
0083103380999991929110306004+52417+009750FM-12+001699999V02099999004619999999N0040001N9+00391+00171102241ADDAY111999GF107991999051008001001001KA1999N+00001MD1610061+9999EQDQ01+000042SCOTLC
0075103380999991929110406004+52417+009750FM-12+001699999V0209999900461220001CN0040001N9+00281+00221102801ADDAA199001091AY101999GF102991011011012501021001KA1999N+00221MD1110141+9999
0072103380999991929110412004+52417+009750FM-12+005199999V0202501N006719999999N0100001N9+00891+99999102871ADDAY111999GF107991011011012501031999EQDQ01+000082APCTENQ02+000002APC3  
0085103380999991929110418004+52417+009750FM-12+005199999V0202301N00261220001CN0040001N9+00611+99999102901ADDAY101999GF102991001001999999001011KA1999M+01001EQDQ01+000032APCTENQ02+000002APC3  
0064103380999991929110506004+52417+009750FM-12+001699999V0209999900461220001CN0020001N9+00501+00281102611ADDAY141999GF106991001001999999021091KA1999N+00391MD1410001+9999
0070103380999991929110512004+52417+009750FM-12+005199999V0202001N004619999999N0100001N9+01001+99999102381ADDAY111999GF107991999001022501071999MD1810141+9999EQDQ01+000002SCOTLC
0083103380999991929110518004+52417+009750FM-12+005199999V0201801N00461220001CN0040001N9+00501+99999102111ADDAY111999GF102991999001999999011001KA1999M+01001MD1810201+9999EQDQ01+000002SCOTLC
0064103380999991929110606004+52417+009750FM-12+001699999V0209999900671220001CN0040001N9+00221+00001101351ADDAY101999GF100991001001999999001001KA1999N+00001MD1810141+9999
0051103380999991929110612004+52417+009750FM-12+005199999V0201801N00671220001CN0040001N9+00721+99999101171ADDAY101999GF101991001001999999001081MD1810141+9999
0085103380999991929110618004+52417+009750FM-12+005199999V0201801N00931220001CN0040001N9+00391+99999101031ADDAY101999GF100991001001999999001001KA1999M+00721EQDQ01+000082APCTENQ02+000002APC3  
0064103380999991929110706004+52417+009750FM-12+001699999V0209999900671012301CN0020001N9+00281+00061101091ADDAY111999GF107991071051012501001001KA1999N+00001MD1410001+9999
0057103380999991929110712004+52417+009750FM-12+005199999V0202001N00461002401CN0020001N9+00781+99999101261ADDAY121999GF108991081051002501999999MD1310061+9999MW1501
0067103380999991929110718004+52417+009750FM-12+005199999V0202301N00261220001CN0020001N9+00721+99999101551ADDAA199000691GF104991041051004501001001KA1999M+00781MD1310141+9999
0096103380999991929110806004+52417+009750FM-12+001699999V0209999900671220001CN0020001N9+00391+00331101531ADDAA199000691AY141999GF102991001001999999001081KA1999N+00221EQDQ01+000042APCTENQ02+000062APC3  
0051103380999991929110812004+52417+009750FM-12+005199999V0201801N01541220001CN0040001N9+00891+99999101011ADDAY101999GF104991001001999999011011MD1810341+9999
0081103380999991929110818004+52417+009750FM-12+005199999V0201801N00671004501CN0040001N9+00721+99999100741ADDAA199001091AY161999GF108991081061004501999999KA1999M+00891MD1610261+9999MW1631
0100103380999991929110906004+52417+009750FM-12+001699999V02099999002619999999N0040001N9+00721+00671101201ADDAA199001091AY161999GF106991999011012501001001KA1999N+00611MD1310261+9999MW1211EQDQ01+000022SCOTLC
0051103380999991929110912004+52417+009750FM-12+005199999V0202501N002619999999N0100001N9+01001+99999101541ADDAY111999GF106991041011008001031999MD1310141+9999
0064103380999991929110918004+52417+009750FM-12+005199999V0202301N00261220001CN0040001N9+00721+99999101831ADDAY101999GF100991001001999999001001KA1999M+01111MD1310261+9999
0085103380999991929111006004+52417+009750FM-12+001699999V0209999900461220001CN0040001N9+00001-00061101901ADDAY101999GF104991001001999999001021KA1999N-00111EQDQ01+000032APCTENQ02+000002APC3  
0094103380999991929111106004+52417+009750FM-12+001699999V0209999900461220001CN0020001N9+00391+00171101941ADDAA199000691AY101999GF102991999001999999021001KA1999N+00391MD1310261+9999EQDQ01+000002SCOTLC
0051103380999991929111112004+52417+009750FM-12+005199999V0202001N00931220001CN0200001N9+00891+99999101901ADDAY101999GF102991021011012501001001MD1990141+9999
0064103380999991929111118004+52417+009750FM-12+005199999V0202001N012319999999N0100001N9+00721+99999101461ADDAY111999GF108991041051008001011999KA1999M+00891MD1810261+9999
0081103380999991929111206004+52417+009750FM-12+001699999V0209999902261030001CN0200001N9+00781+00391099361ADDAA199000691AY161999GF107991041061004501021001KA1999N+00611MD1810401+9999MW1601
0049103380999991929111212004+52417+009750FM-12+005199999V0202001N01541004501CN0040001N9+01001+99999099271ADDGF108991061061004501011999MD1410001+9999MW1611
0075103380999991929111218004+52417+009750FM-12+005199999V0202301N00461220001CN0200001N9+00611+99999099951ADDAA199002091AY111999GF102991001001999999071999KA1999M+01111MD1310261+9999
0075103380999991929111306004+52417+009750FM-12+001699999V0209999900671220001CN0200001N9+00391+00001100271ADDAA199000691AY101999GF104991041051004501001001KA1999N+00111MD1310061+9999
0051103380999991929111312004+52417+009750FM-12+005199999V0201801N00671220001CN0200001N9+00721+99999100141ADDAY111999GF104991041011008001001001MD1810201+9999
0101103380999991929111318004+52417+009750FM-12+005199999V0201401N00461220001CN0100001N9+00111+99999100091ADDAY101999GF104991999001999999011001KA1999M+00721EQDQ01+000002SCOTLCQ02+000032APCTENQ03+000002APC3  
0078103380999991929111406004+52417+009750FM-12+001699999V0209999900461030001CN0010001N9-00111-00171099841ADDAY141999GF106991041051000751031001MW1101EQDQ01+000032APCTENQ02+000002APC3  
0043103380999991929111412004+52417+009750FM-12+005199999V0201401N00261001501CN0020001N9+00281+99999099741ADDGF108991081051001501999999MD1810141+9999
0085103380999991929111418004+52417+009750FM-12+005199999V0201401N00261002401CN0020001N9+00221+99999099711ADDAY141999GF108991081051002501999999KA1999M+00391EQDQ01+000032APCTENQ02+000002APC3  
0100103380999991929111506004+52417+009750FM-12+001699999V0209999900461001501CN0040001N9+00391+00331099731ADDAA199000391AY161999GF108991999061001501001001KA1999N+00111MD1310061+9999MW1601EQDQ01+000062SCOTLC
0051103380999991929111512004+52417+009750FM-12+005199999V0202301N004619999999N0040001N9+00391+99999099951ADDAY121999GF108991041051004501999999MD1310061+9999
0085103380999991929111518004+52417+009750FM-12+005199999V0202301N00261004501CN0040001N9+00391+99999100211ADDAY111999GF107991071051004501001001KA1999M+00501EQDQ01+000042APCTENQ02+000142APC3  
0085103380999991929111606004+52417+009750FM-12+001699999V0209999900461220001CN0040001N9+00001-00221100271ADDAY111999GF104991001001999999021081KA1999N+00001EQDQ01+000032APCTENQ02+000002APC3  
0051103380999991929111612004+52417+009750FM-12+005199999V0201401N00931220001CN0040001N9+00391+99999099791ADDAY111999GF106991001001999999071999MD1810341+9999
0081103380999991929111618004+52417+009750FM-12+005199999V0201401N00931004501CN0100001N9+00281+99999099631ADDAA199000691AY111999GF108991081061004501999999KA1999M+00501MD1810061+9999MW1611
0081103380999991929111706004+52417+009750FM-12+001699999V0209999900101004501CN0040001N9+00501+00441099641ADDAA199003091AY161999GF108991061061004501021001KA1999N+00221MD1310201+9999MW1601
0100103380999991929111806004+52417+009750FM-12+001699999V0209999900101001501CN0020001N9+00281+00221101141ADDAA199004091AY161999GF108991999061001501001001KA1999N+00281MD1310261+9999MW1211EQDQ01+000062SCOTLC
0057103380999991929111812004+52417+009750FM-12+005199999V0202701N00261001501CN0020001N9+00391+99999101501ADDAY141999GF108991081051001501999999MD1310141+9999MW1281
0083103380999991929111818004+52417+009750FM-12+005199999V0209991C00001220001CN0040001N9+00501+99999101881ADDAY111999GF106991999001999999031001KA1999M+00781MD1310141+9999EQDQ01+000002SCOTLC
0083103380999991929111906004+52417+009750FM-12+001699999V0209999900461220001CN0010001N9+00111+00061102121ADDAY111999GF106991999001999999021001KA1999N-00111MD1310061+9999EQDQ01+000002SCOTLC
0051103380999991929111912004+52417+009750FM-12+005199999V0201801N00931220001CN0040001N9+00501+99999101911ADDAY111999GF107991001001999999071999MD1810201+9999
0064103380999991929111918004+52417+009750FM-12+005199999V0201801N01231012301CN0040001N9+00611+99999101721ADDAY121999GF108991081051012501999999KA1999M+00611MD1810201+9999
0064103380999991929112006004+52417+009750FM-12+001699999V0209999900931220001CN0100001N9+00501+00111101661ADDAY101999GF104991001001999999031021KA1999N+00391MD1410001+9999
0051103380999991929112012004+52417+009750FM-12+005199999V0201601N00461220001CN0100001N9+01001+99999101661ADDAY101999GF104991001001999999011011MD1810141+9999
0085103380999991929112018004+52417+009750FM-12+005199999V0201401N00461220001CN0040001N9+00111+99999101631ADDAY101999GF100991001001999999001001KA1999M+01001EQDQ01+000032APCTENQ02+000002APC3  
0101103380999991929112106004+52417+009750FM-12+001699999V0209999900461220001CN0010001N9-00221-00281101501ADDAY141999GF102991999001999999021001KA1999N-00281EQDQ01+000002SCOTLCQ02+000032APCTENQ03+000002APC3  
0051103380999991929112112004+52417+009750FM-12+005199999V0201401N00261220001CN0040001N9+00781+99999101371ADDAY101999GF102991001001999999001011MD1610061+9999
0077103380999991929112118004+52417+009750FM-12+005199999V0201401N00261220001CN0020001N9+00001+99999101391ADDGF100991001001999999001001KA1999M+00891EQDQ01+000032APCTENQ02+000002APC3  
0064103380999991929112206004+52417+009750FM-12+001699999V0209999900261220001CN0020001N9+00281+00061101461ADDAY101999GF100991001001999999001001KA1999N+00001MD1310061+9999
0051103380999991929112212004+52417+009750FM-12+005199999V0201401N00461220001CN0040001N9+01001+99999101351ADDAY101999GF100991001001999999001001MD1990141+9999
0064103380999991929112218004+52417+009750FM-12+005199999V0201601N00261220001CN0020001N9+00221+99999101311ADDAY101999GF100991001001999999001001KA1999M+01001MD1810061+9999
0101103380999991929112306004+52417+009750FM-12+001699999V0209999901231220001CN0040001N9+00721+00331101181ADDAY111999GF107991999001999999021001KA1999N+00001EQDQ01+000002SCOTLCQ02+000082APCTENQ03+000002APC3  
0056103380999991929112312004+52417+009750FM-12+005199999V0201801N01231220001CN0100001N9+01221+99999101291ADDAY111999GF102991001001999999071999EQDQ01+000002APC3  
0085103380999991929112318004+52417+009750FM-12+005199999V0201801N00671220001CN0040001N9+00891+99999101301ADDAY101999GF100991001001999999001001KA1999M+01221EQDQ01+000032APCTENQ02+000002APC3  
0085103380999991929112406004+52417+009750FM-12+001699999V0209999900671030001CN0040001N9+00781+00391101201ADDAY111999GF107991041051017501021001KA1999N+00721EQDQ01+000032APCTENQ02+000002APC3  
0083103380999991929112506004+52417+009750FM-12+001699999V0209999900461220001CN0040001N9+00391+00331101761ADDAY101999GF104991999001999999021001KA1999N+00281MD1110061+9999EQDQ01+000002SCOTLC
0057103380999991929112512004+52417+009750FM-12+005199999V0201801N012319999999N0100001N9+00781+99999101451ADDAY111999GF107991021061022501011999MD1810201+9999MW1601
0081103380999991929112518004+52417+009750FM-12+005199999V0201601N019019999999N0100001N9+01001+99999101051ADDAA199000691AY171999GF108991041061012501011999KA1999M+01001MD1810201+9999MW1601
0096103380999991929112606004+52417+009750FM-12+001699999V0209999900261030001CN0020001N9+01111+00671101041ADDAA199000691AY111999GF107991041051012501031001KA1999N+00781EQDQ01+000042APCTENQ02+000062APC3  
0072103380999991929112612004+52417+009750FM-12+005199999V0202001N006719999999N0100001N9+01221+99999101191ADDAY111999GF106991041051008001999999EQDQ01+000032APCTENQ02+000002APC3  
0096103380999991929112618004+52417+009750FM-12+005199999V0201801N004619999999N0100001N9+01001+99999101221ADDAA199000691AY181999GF106991041061004501999999KA1999M+01221EQDQ01+000032APCTENQ02+000002APC3  
0112103380999991929112706004+52417+009750FM-12+001699999V02099999006719999999N0040001N9+00781+00561101301ADDAA199003091AY161999GF107991999051004501001001KA1999N+00781EQDQ01+000042SCOTLCQ02+000042APCTENQ03+000062APC3  
0051103380999991929112712004+52417+009750FM-12+005199999V0202301N009319999999N0040001N9+00781+99999101501ADDAY111999GF106991041011004501001011MD1310061+9999
0064103380999991929112718004+52417+009750FM-12+005199999V0202301N00461220001CN0040001N9+00611+99999101641ADDAY101999GF100991001001999999001001KA1999M+00891MD1310141+9999
0101103380999991929112806004+52417+009750FM-12+001699999V0209999900461220001CN0020001N9+00001-00061101641ADDAY111999GF106991999001999999021001KA1999N+00001EQDQ01+000002SCOTLCQ02+000032APCTENQ03+000002APC3  
0051103380999991929112812004+52417+009750FM-12+005199999V0201601N00671220001CN0040001N9+00611+99999101261ADDAY111999GF108991001001999999011999MD1810261+9999
0100103380999991929112818004+52417+009750FM-12+005199999V0201601N00931007801CN0040001N9+00611+99999100731ADDAA199001091AY161999GF108991081061008001999999KA1999M+00721MD1810542+9999MW1631EQDQ01+000542APC3  
0112103380999991929112906004+52417+009750FM-12+001699999V02099999012319999999N0200001N9+01221+00781100261ADDAA199003091AY111999GF108991999051004501001001KA1999N+00611EQDQ01+000022SCOTLCQ02+000032APCTENQ03+000002APC3  
0051103380999991929112912004+52417+009750FM-12+005199999V0202301N012319999999N0200001N9+01281+99999100351ADDAY111999GF106991041011008001001081MD1710061+9999
0081103380999991929112918004+52417+009750FM-12+005199999V0202001N002619999999N0100001N9+01111+99999100381ADDAA199001091AY161999GF108991041061004501011999KA1999M+01281MD1510001+9999MW1611
0075103380999991929113006004+52417+009750FM-12+001699999V0209999900461015001CN0040001N9+01001+00781100291ADDAA199000391AY111999GF107991061051017501021001KA1999N+00891MD1710061+9999
0051103380999991929113012004+52417+009750FM-12+005199999V0201801N006719999999N0100001N9+01281+99999100051ADDAY111999GF106991011011022501011999MD1610201+9999
0064103380999991929113018004+52417+009750FM-12+005199999V0201801N00931220001CN0040001N9+01221+99999099831ADDAY111999GF104991041051012501011999KA1999M+01281MD1610061+9999
0118103380999991929120106004+52417+009750FM-12+001699999V02099999004619999999N0040001N9+01001+00941099631ADDAA199003091AY161999GF108991999061004501001001KA1999N+01001MW1611EQDQ01+000042SCOTLCQ02+000032APCTENQ03+000002APC3  
0100103380999991929120206004+52417+009750FM-12+001699999V0209999900461001501CN0020001N9+00891+00831100441ADDAA199011091AY161999GF108991999061001501001001KA1999N+00781MD1310201+9999MW1611EQDQ01+000062SCOTLC
0072103380999991929120212004+52417+009750FM-12+005199999V0202301N00461004501CN0040001N9+01001+99999100631ADDAY101999GF107991061071004501999999EQDQ01+000032APCTENQ02+000002APC3  
0075103380999991929120218004+52417+009750FM-12+005199999V0201801N00671220001CN0040001N9+00721+99999100541ADDAA199001091AY101999GF100991001001999999001001KA1999M+01001MD1990061+9999
0081103380999991929120306004+52417+009750FM-12+001699999V0209999900461004501CN0040001N9+00891+00671100701ADDAA199006091AY161999GF107991061051004501021001KA1999N+00721MD1310261+9999MW1211
0051103380999991929120312004+52417+009750FM-12+005199999V0202301N002619999999N0040001N9+01001+99999101141ADDAY111999GF107991041051004501999999MD1310141+9999
0085103380999991929120318004+52417+009750FM-12+005199999V0201801N004619999999N0040001N9+00721+99999101151ADDAY111999GF108991041051008001011999KA1999M+01001EQDQ01+000032APCTENQ02+000002APC3  
0096103380999991929120406004+52417+009750FM-12+001699999V0209999900461004501CN0020001N9+00611+00561101181ADDAA199005091AY161999GF107991061051004501021001KA1999N+00611EQDQ01+000032APCTENQ02+000002APC3  
0078103380999991929120412004+52417+009750FM-12+005199999V0201401N004619999999N0020001N9+01111+99999101091ADDAY161999GF108991041061004501999999MW1631EQDQ01+000082APCTENQ02+000002APC3  
0081103380999991929120418004+52417+009750FM-12+005199999V0201801N006719999999N0100001N9+01221+99999101011ADDAA199004091AY161999GF108991041061004501011999KA1999M+01221MD1810061+9999MW1601
0075103380999991929120506004+52417+009750FM-12+001699999V0209999900461220001CN0040001N9+00781+00721101201ADDAA199001091AY101999GF102991021011008001001001KA1999N+00611MD1990061+9999
0051103380999991929120512004+52417+009750FM-12+005199999V0201601N00931220001CN0100001N9+01221+99999100541ADDAY101999GF102991001001999999001081MD1810401+9999
0038103380999991929120518004+52417+009750FM-12+005199999V0201401N009319999999N0100001N9+00891+99999099991ADDAY101999KA1999M+01221MD1810201+9999
0064103380999991929120606004+52417+009750FM-12+001699999V0209999900461030001CN0200001N9+01001+00611100121ADDAY111999GF106991021011008001021001KA1999N+00721MD1310141+9999
0051103380999991929120612004+52417+009750FM-12+005199999V0202301N006719999999N0200001N9+01111+99999100301ADDAY111999GF107991021011008001011001MD1210061+9999
0064103380999991929120618004+52417+009750FM-12+005199999V0202001N00261021001CN0040001N9+00781+99999100411ADDAY111999GF106991061001022501011001KA1999M+01111MD1110141+9999
0081103380999991929120706004+52417+009750FM-12+001699999V0209999901901030001CN0040001N9+00721+00331099411ADDAA199000691AY161999GF108991041051012501021001KA1999N+00611MD1610141+9999MW1211
0072103380999991929120712004+52417+009750FM-12+005199999V0202001N01541007801CN0200001N9+01001+99999099351ADDAY111999GF107991061051008001011999EQDQ01+000072APCTENQ02+000002APC3  
0064103380999991929120718004+52417+009750FM-12+005199999V0202301N015419999999N0200001N9+01001+99999099621ADDAY111999GF106991041051008001031999KA1999M+01111MD1310201+9999
0075103380999991929120806004+52417+009750FM-12+001699999V0209999901231220001CN0200001N9+00501+00111101001ADDAA199000391AY101999GF104991001001999999021081KA1999N+00501MD1310061+9999
0081103380999991929120906004+52417+009750FM-12+001699999V0209999901541030001CN0040001N9+00611+00001100711ADDAA199000691AY181999GF107991041011004501021001KA1999N+00501MD1310261+9999MW1161
0078103380999991929120912004+52417+009750FM-12+005199999V0202301N015419999999N0100001N9+00611+99999100851ADDAY111999GF107991041061008001999999MW1801EQDQ01+000072APCTENQ02+000002APC3  
0116103380999991929120918004+52417+009750FM-12+005199999V0201801N02261002401CN0100001N9+00721+99999099862ADDAA199001091AY161999GF108991081061002501999999KA1999M+00781MD1810602+9999MW1631EQDQ01+099863APOSLPQ02+000602APC3  
0118103380999991929121006004+52417+009750FM-12+001699999V02099999012319999999N0040001N9+00721+00111099831ADDAA199001091AY161999GF107991999051008001001001KA1999N+00501MW1211EQDQ01+000022SCOTLCQ02+000042APCTENQ03+000142APC3  
0057103380999991929121012004+52417+009750FM-12+005199999V0202301N009319999999N0100001N9+00611+99999100171ADDAY181999GF107991041061004501999999MD1310141+9999MW1801
0075103380999991929121018004+52417+009750FM-12+005199999V0202501N00671220001CN0200001N9+00391+99999100711ADDAA199001091AY161999GF102991021051004501031999KA1999M+00721MD1310261+9999
0081103380999991929121106004+52417+009750FM-12+001699999V0209999901231030001CN0100001N9+00391+00171100381ADDAA199000391AY161999GF108991041061002501021001KA1999N+00281MD1810261+9999MW1611
0076103380999991929121112004+52417+009750FM-12+005199999V0202001N015419999999N0040001N9+00781+99999099552ADDAY181999GF107991041061004501999999MD1810341+9999MW1161EQDQ01+099553APOSLP
0081103380999991929121118004+52417+009750FM-12+005199999V0202501N012319999999N0040001N9+00891+99999099901ADDAA199003091AY181999GF108991041061004501999999KA1999M+01001MD1310201+9999MW1801
0081103380999991929121206004+52417+009750FM-12+001699999V0209999901541002401CN0020001N9+00891+00671100201ADDAA199002091AY161999GF108991081061002501999999KA1999N+00781MD1810201+9999MW1631
0051103380999991929121212004+52417+009750FM-12+005199999V0202501N015419999999N0200001N9+00781+99999100211ADDAY111999GF107991041051012501011999MD1810141+9999
0096103380999991929121218004+52417+009750FM-12+005199999V0202501N01541004501CN0100001N9+00721+99999100231ADDAA199004091AY191999GF108991061051004501011999KA1999M+00891EQDQ01+000022APCTENQ02+000002APC3  
0075103380999991929121306004+52417+009750FM-12+001699999V0209999900931004501CN0040001N9+00721+00501101971ADDAA199012091AY181999GF107991061051004501021001KA1999N+00611MD1310341+9999
0051103380999991929121312004+52417+009750FM-12+005199999V0202701N00671007801CN0040001N9+00781+99999102261ADDAY111999GF107991061051008001011999MD1310061+9999
0081103380999991929121318004+52417+009750FM-12+005199999V0202501N00461002401CN0020001N9+00781+99999102361ADDAA199002091AY161999GF108991081061002501999999KA1999M+00781MD1310141+9999MW1501
0094103380999991929121406004+52417+009750FM-12+001699999V02099999009319999999N0020001N9+01001+00781102211ADDAA199000591AY161999GF108991999061002501001001KA1999N+00781MD1990141+9999EQDQ01+000042SCOTLC
0057103380999991929121412004+52417+009750FM-12+005199999V0202501N00931002401CN0040001N9+01221+99999101961ADDAY181999GF108991081061002501999999MD1810261+9999MW1601
0075103380999991929121418004+52417+009750FM-12+005199999V0202501N009319999999N0200001N9+01221+99999101951ADDAA199001091AY161999GF108991041061002501999999KA1999M+01221MD1810061+9999
