0081103840999991929080106004+52483+013433FM-12+004899999V0202301N002619999999N0020001N9+01611+99999099981ADDAA199002091AY161999GF107991041061008001011999KA1999N+01501MD1710141+9999MW1511
0051103840999991929080112004+52483+013433FM-12+004899999V0202301N00671220001CN0200001N9+02221+99999099871ADDAY191999GF101991011031008001001001MD1210061+9999
0075103840999991929080118004+52483+013433FM-12+004899999V0202501N00461220001CN0200001N9+02221+99999099941ADDAA199003091AY101999GF102991021031008001001011KA1999M+02391MD1210061+9999
0064103840999991929080206004+52483+013433FM-12+004899999V0202701N00461007801CN0100001N9+01781+99999100541ADDAY111999GF106991061051008001001001KA1999N+01611MD1310201+9999
0057103840999991929080212004+52483+013433FM-12+004899999V0202501N006719999999N0100001N9+02001+99999100911ADDAY111999GF106991021031008001999999MD1310141+9999MW1161
0075103840999991929080218004+52483+013433FM-12+004899999V0202701N00261007801CN0040001N9+01721+99999101231ADDAA199000691AY181999GF107991071051008001001001KA1999M+02111MD1310261+9999
0064103840999991929080306004+52483+013433FM-12+004899999V0202701N00261220001CN0040001N9+01281+99999102001ADDAY101999GF100991001001999999001001KA1999N+01001MD1310201+9999
0051103840999991929080312004+52483+013433FM-12+004899999V0202501N00261220001CN0100001N9+02001+99999102001ADDAY101999GF102991021011012501001001MD1990061+9999
0085103840999991929080318004+52483+013433FM-12+004899999V0209991C00001220001CN0100001N9+02001+99999101941ADDAY101999GF104991001001999999011011KA1999M+02111EQDQ01+000082APCTENQ02+000002APC3  
0085103840999991929080406004+52483+013433FM-12+004899999V0201401N00261220001CN0020001N9+01781+99999101791ADDAY101999GF102991001001999999001011KA1999N+01221EQDQ01+000082APCTENQ02+000002APC3  
0064103840999991929080506004+52483+013433FM-12+004899999V0201601N00101220001CN0020001N9+01891+99999100851ADDAY101999GF104991001001999999001011KA1999N+01611MD1810061+9999
0051103840999991929080512004+52483+013433FM-12+004899999V0202501N002619999999N0040001N9+02721+99999100751ADDAY101999GF106991041011017501001071MD1610061+9999
0064103840999991929080518004+52483+013433FM-12+004899999V0202701N00261015001CN0020001N9+02391+99999101061ADDAY111999GF107991061051017501001071KA1999M+02891MD1310201+9999
0064103840999991929080606004+52483+013433FM-12+004899999V0203201N00101220001CN0040001N9+01611+99999102031ADDAY101999GF102991001001999999001011KA1999N+01281MD1310201+9999
0051103840999991929080612004+52483+013433FM-12+004899999V0202001N00101220001CN0040001N9+02221+99999101901ADDAY101999GF104991041011017501001001MD1810141+9999
0064103840999991929080618004+52483+013433FM-12+004899999V0209991C00001220001CN0100001N9+02221+99999101661ADDAY101999GF102991001001999999001011KA1999M+02281MD1610061+9999
0101103840999991929080706004+52483+013433FM-12+004899999V0201601N00261220001CN0040001N9+01891+99999101501ADDAY101999GF101991999001999999031001KA1999N+01501EQDQ01+000002SCOTLCQ02+000032APCTENQ03+000002APC3  
0051103840999991929080712004+52483+013433FM-12+004899999V0202301N00461220001CN0040001N9+02891+99999101221ADDAY101999GF102991001001999999001011MD1810141+9999
0064103840999991929080718004+52483+013433FM-12+004899999V0201401N00261220001CN0040001N9+02721+99999101131ADDAY101999GF104991001001999999001011KA1999M+02891MD1610061+9999
0085103840999991929080806004+52483+013433FM-12+004899999V0201401N00261220001CN0020001N9+02111+99999101111ADDAY111999GF106991001001999999011071KA1999N+01721EQDQ01+000032APCTENQ02+000002APC3  
0051103840999991929080812004+52483+013433FM-12+004899999V0202301N00261220001CN0040001N9+03111+99999100931ADDAY101999GF104991021011017501001011MD1810061+9999
0064103840999991929080818004+52483+013433FM-12+004899999V0202901N00461220001CN0020001N9+02281+99999101071ADDAY101999GF104991021051017501001011KA1999M+03221MD1210141+9999
0075103840999991929080906004+52483+013433FM-12+004899999V0203401N00101004501CN0040001N9+01501+99999101581ADDAA199004091AY161999GF108991081061004501999999KA1999N+01501MD1210201+9999
0051103840999991929080912004+52483+013433FM-12+004899999V0203401N001019999999N0040001N9+02001+99999101681ADDAY181999GF107991021071008001999999MD1210061+9999
0080103840999991929080918004+52483+013433FM-12+004899999V0209991C000019999999N0020001N9+02001+99999101641ADDAA199000691AY111999GF107991041081012501999999KA1999M+02281EQDQ01+000002APC3  
0064103840999991929081006004+52483+013433FM-12+004899999V0202001N00101007801CN0020001N9+01781+99999101781ADDAY111999GF107991071051008001001001KA1999N+01611MD1110061+9999
0072103840999991929081012004+52483+013433FM-12+004899999V0201601N002619999999N0020001N9+02001+99999101861ADDAY181999GF108991041031012501999999EQDQ01+000022APCTENQ02+000002APC3  
0075103840999991929081018004+52483+013433FM-12+004899999V0201801N004619999999N0020001N9+02001+99999101961ADDAA199000691AY121999GF107991021011012501001071KA1999M+02221MD1210141+9999
0064103840999991929081106004+52483+013433FM-12+004899999V0201801N00101220001CN0020001N9+01781+99999102241ADDAY101999GF101991001001999999001011KA1999N+01391MD1310061+9999
0064103840999991929081118004+52483+013433FM-12+004899999V0201601N00101220001CN0040001N9+02501+99999101841ADDAY101999GF101991011011017501001001KA1999M+02721MD1610141+9999
0085103840999991929081206004+52483+013433FM-12+004899999V0201401N00101220001CN0020001N9+02001+99999101711ADDAY101999GF102991011011012501001011KA1999N+01611EQDQ01+000082APCTENQ02+000002APC3  
0072103840999991929081212004+52483+013433FM-12+004899999V0203201N00461220001CN0020001N9+02391+99999101751ADDAY101999GF104991021011012501001011EQDQ01+000032APCTENQ02+000002APC3  
0091103840999991929081218004+52483+013433FM-12+004899999V0203201N002619999999N0040001N9+01891+99999101871ADDAY111999GF107991041081012501999999KA1999M+02611MW1161EQDQ01+000042APCTENQ02+000142APC3  
0064103840999991929081306004+52483+013433FM-12+004899999V0203201N00261220001CN0040001N9+01721+99999102401ADDAY101999GF101991011011012501001001KA1999N+01501MD1310141+9999
0051103840999991929081312004+52483+013433FM-12+004899999V0203201N00461220001CN0100001N9+02111+99999102431ADDAY101999GF102991021011012501001001MD1510001+9999
0085103840999991929081318004+52483+013433FM-12+004899999V0203201N00101220001CN0100001N9+02001+99999102421ADDAY101999GF100991001001999999001001KA1999M+02221EQDQ01+000032APCTENQ02+000002APC3  
0064103840999991929081406004+52483+013433FM-12+004899999V0201401N00261220001CN0020001N9+01891+99999102261ADDAY101999GF100991001001999999001001KA1999N+01391MD1810061+9999
0051103840999991929081412004+52483+013433FM-12+004899999V0202001N00461220001CN0100001N9+02781+99999101911ADDAY101999GF102991021011017501001001MD1810201+9999
0064103840999991929081418004+52483+013433FM-12+004899999V0209991C000019999999N0020001N9+02611+99999101561ADDAY101999GF106991041011017501001011KA1999M+02891MD1610061+9999
0064103840999991929081506004+52483+013433FM-12+004899999V0203401N00101220001CN0020001N9+01721+99999101921ADDAY101999GF104991001001999999031081KA1999N+01501MD1310061+9999
0051103840999991929081512004+52483+013433FM-12+004899999V0203401N00261220001CN0040001N9+02281+99999101881ADDAY111999GF104991011011017501031999MD1810061+9999
0085103840999991929081518004+52483+013433FM-12+004899999V0209991C000019999999N0020001N9+02111+99999101831ADDAY111999GF106991041051017501001071KA1999M+02281EQDQ01+000032APCTENQ02+000002APC3  
0101103840999991929081606004+52483+013433FM-12+004899999V0200901N00461220001CN0040001N9+01781+99999101911ADDAY101999GF101991999001999999031001KA1999N+01391EQDQ01+000002SCOTLCQ02+000032APCTENQ03+000002APC3  
0051103840999991929081612004+52483+013433FM-12+004899999V0200901N00261220001CN0100001N9+02501+99999101721ADDAY101999GF102991021011017501001001MD1510141+9999
0069103840999991929081618004+52483+013433FM-12+004899999V0200901N00671220001CN0040001N9+02281+99999101631ADDAY101999GF100991001001999999001001KA1999M+02611EQDQ01+000002APC3  
0064103840999991929081706004+52483+013433FM-12+004899999V0201401N00101220001CN0020001N9+02111+99999101381ADDAY101999GF102991001001999999031011KA1999N+01721MD1810061+9999
0051103840999991929081712004+52483+013433FM-12+004899999V0202701N004619999999N0040001N9+03001+99999101211ADDAY101999GF107991041031012501999999MD1610061+9999
0081103840999991929081718004+52483+013433FM-12+004899999V0209991C000019999999N0020001N9+02111+99999101471ADDAA199001091AY191999GF106991041031012501999999KA1999M+03281MD1210201+9999MW1161
0064103840999991929081806004+52483+013433FM-12+004899999V0202301N00101220001CN0020001N9+02111+99999101641ADDAY101999GF101991001001999999001011KA1999N+01781MD1310061+9999
0075103840999991929081818004+52483+013433FM-12+004899999V0202701N00101220001CN0040001N9+02001+99999101591ADDAA199001091AY181999GF104991021011012501011999KA1999M+02721MD1310061+9999
0075103840999991929081906004+52483+013433FM-12+004899999V0202901N00101220001CN0020001N9+01501+99999102001ADDAA199000691AY111999GF104991001001999999031011KA1999N+01391MD1310201+9999
0072103840999991929081912004+52483+013433FM-12+004899999V0203201N004619999999N0200001N9+02001+99999102061ADDAY111999GF107991021071012501999999EQDQ01+000032APCTENQ02+000002APC3  
0064103840999991929081918004+52483+013433FM-12+004899999V0203401N00461220001CN0100001N9+01781+99999102101ADDAY111999GF104991021011012501001011KA1999M+02001MD1410001+9999
0064103840999991929082006004+52483+013433FM-12+004899999V0200501N00101220001CN0040001N9+01501+99999102341ADDAY101999GF102991001001999999001081KA1999N+01221MD1010061+9999
0051103840999991929082012004+52483+013433FM-12+004899999V0200501N006719999999N0100001N9+01781+99999102121ADDAY111999GF107991041011012501001071MD1810141+9999
0069103840999991929082018004+52483+013433FM-12+004899999V0200501N006719999999N0040001N9+01781+99999102151ADDAY111999GF107991041051012501011999KA1999M+01891EQDQ01+000002APC3  
0081103840999991929082106004+52483+013433FM-12+004899999V0202501N00101007801CN0020001N9+01281+99999102301ADDAA199001091AY161999GF108991071061008001011999KA1999N+01221MD1310061+9999MW1601
0078103840999991929082112004+52483+013433FM-12+004899999V0201101N00101012301CN0020001N9+01611+99999102311ADDAY161999GF108991061061012501011999MW1161EQDQ01+000032APCTENQ02+000002APC3  
0096103840999991929082118004+52483+013433FM-12+004899999V0209991C00001012301CN0020001N9+01721+99999102301ADDAA199000391AY121999GF108991071051012501011999KA1999M+01781EQDQ01+000032APCTENQ02+000002APC3  
0101103840999991929082206004+52483+013433FM-12+004899999V0209991C00001220001CN0020001N9+01611+99999102241ADDAY111999GF101991999001999999031001KA1999N+01281EQDQ01+000002SCOTLCQ02+000032APCTENQ03+000002APC3  
0051103840999991929082212004+52483+013433FM-12+004899999V0202301N00261220001CN0040001N9+02281+99999101981ADDAY101999GF104991041011012501001001MD1810141+9999
0069103840999991929082218004+52483+013433FM-12+004899999V0202001N00261220001CN0040001N9+02001+99999101861ADDAY101999GF102991001001999999011011KA1999M+02281EQDQ01+000002APC3  
0064103840999991929082306004+52483+013433FM-12+004899999V0202501N00101007801CN0020001N9+01611+99999102101ADDAY111999GF107991071051008001001001KA1999N+01391MD1310141+9999
0072103840999991929082312004+52483+013433FM-12+004899999V0209991C000019999999N0040001N9+02221+99999102061ADDAY111999GF107991041031012501999999EQDQ01+000082APCTENQ02+000002APC3  
0085103840999991929082318004+52483+013433FM-12+004899999V0202301N00101220001CN0040001N9+02111+99999102021ADDAY111999GF106991001001999999031011KA1999M+02281EQDQ01+000082APCTENQ02+000002APC3  
0096103840999991929082406004+52483+013433FM-12+004899999V0202301N00261004501CN0020001N9+01721+99999101991ADDAA199000691AY161999GF107991061061004501999999KA1999N+01501EQDQ01+000032APCTENQ02+000002APC3  
0051103840999991929082412004+52483+013433FM-12+004899999V0202501N004619999999N0040001N9+02391+99999101841ADDAY111999GF106991041011012501001011MD1810141+9999
0064103840999991929082418004+52483+013433FM-12+004899999V0209991C00001220001CN0020001N9+02501+99999101701ADDAY101999GF101991011051012501001001KA1999M+02611MD1610061+9999
0064103840999991929082506004+52483+013433FM-12+004899999V0202501N00261012301CN0020001N9+01781+99999101871ADDAY111999GF108991081051012501999999KA1999N+01721MD1310061+9999
0069103840999991929082518004+52483+013433FM-12+004899999V0202701N00101220001CN0020001N9+02221+99999101901ADDAY111999GF104991011031012501999999KA1999M+02281EQDQ01+000002APC3  
0064103840999991929082606004+52483+013433FM-12+004899999V0202701N00261007801CN0020001N9+01281+99999102351ADDAY101999GF108991081051008001999999KA1999N+01221MD1310141+9999
0072103840999991929082612004+52483+013433FM-12+004899999V0202901N00461220001CN0100001N9+01891+99999102391ADDAY111999GF104991041011017501001011EQDQ01+000082APCTENQ02+000002APC3  
0085103840999991929082618004+52483+013433FM-12+004899999V0203401N00101220001CN0100001N9+01781+99999102391ADDAY101999GF102991001001999999001011KA1999M+02001EQDQ01+000032APCTENQ02+000002APC3  
0085103840999991929082706004+52483+013433FM-12+004899999V0201101N00101220001CN0020001N9+01611+99999102471ADDAY101999GF100991001001999999001001KA1999N+01221EQDQ01+000032APCTENQ02+000002APC3  
0051103840999991929082712004+52483+013433FM-12+004899999V0201101N00261220001CN0100001N9+02281+99999102161ADDAY101999GF100991001001999999001001MD1810201+9999
0075103840999991929082718004+52483+013433FM-12+004899999V0201401N00101220001CN0100001N9+02281+99999101861ADDAA199002091AY101999GF101991011011017501001001KA1999M+02501MD1810141+9999
0085103840999991929082806004+52483+013433FM-12+004899999V0201401N00261220001CN0020001N9+01721+99999101621ADDAY101999GF100991001001999999001001KA1999N+01281EQDQ01+000082APCTENQ02+000002APC3  
0051103840999991929082812004+52483+013433FM-12+004899999V0201801N00461220001CN0040001N9+03001+99999101371ADDAY101999GF101991001001999999001011MD1810141+9999
0064103840999991929082818004+52483+013433FM-12+004899999V0209991C00001220001CN0020001N9+02891+99999101331ADDAY101999GF101991001001999999001011KA1999M+03111MD1410001+9999
0064103840999991929082906004+52483+013433FM-12+004899999V0203201N00261220001CN0040001N9+01891+99999101961ADDAY101999GF102991021011012501001001KA1999N+01781MD1310201+9999
0051103840999991929082912004+52483+013433FM-12+004899999V0202501N00261220001CN0040001N9+02611+99999101961ADDAY101999GF104991041011012501001011MD1810061+9999
0085103840999991929082918004+52483+013433FM-12+004899999V0209991C00001220001CN0020001N9+02501+99999101871ADDAY101999GF102991021051017501001001KA1999M+02721EQDQ01+000032APCTENQ02+000002APC3  
0064103840999991929083006004+52483+013433FM-12+004899999V0203401N00101220001CN0020001N9+02001+99999102041ADDAY101999GF104991021011012501001081KA1999N+01721MD1310061+9999
0051103840999991929083012004+52483+013433FM-12+004899999V0200701N00101220001CN0040001N9+02611+99999101961ADDAY111999GF101991011011017501001001MD1510061+9999
0064103840999991929083018004+52483+013433FM-12+004899999V0200501N00461220001CN0020001N9+02391+99999101841ADDAY101999GF104991011051017501001071KA1999M+02611MD1990061+9999
0085103840999991929083106004+52483+013433FM-12+004899999V0200901N00261007801CN0020001N9+01891+99999101831ADDAY101999GF106991061051008001001001KA1999N+01781EQDQ01+000032APCTENQ02+000002APC3  
0051103840999991929083112004+52483+013433FM-12+004899999V0201401N00101220001CN0020001N9+02891+99999101641ADDAY101999GF101991011011012501001001MD1810141+9999
0085103840999991929083118004+52483+013433FM-12+004899999V0209991C00001220001CN0020001N9+02891+99999101551ADDAY101999GF100991001001999999001001KA1999M+03001EQDQ01+000062APCTENQ02+000002APC3  
0064103840999991929090106004+52483+013433FM-12+004899999V0201401N00101220001CN0010001N9+02281+99999101671ADDAY101999GF100991001001999999001001KA1999N+01891MD1310061+9999
0085103840999991929090118004+52483+013433FM-12+004899999V0201401N00101220001CN0020001N9+03001+99999101561ADDAY101999GF101991001001999999011999KA1999M+03221EQDQ01+000062APCTENQ02+000002APC3  
0064103840999991929090206004+52483+013433FM-12+004899999V0203601N00101220001CN0040001N9+02221+99999101951ADDAY101999GF104991001001999999001011KA1999N+01781MD1310141+9999
0051103840999991929090212004+52483+013433FM-12+004899999V0202701N00261220001CN0100001N9+02721+99999101901ADDAY101999GF104991021011017501001011MD1810061+9999
0064103840999991929090218004+52483+013433FM-12+004899999V0203601N00101220001CN9999999N9+02501+99999101841ADDAY101999GF106991001001999999001011KA1999M+02781MD1510001+9999
0064103840999991929090306004+52483+013433FM-12+004899999V0203601N00261220001CN0040001N9+01721+99999102201ADDAY101999GF101991001001999999001011KA1999N+01501MD1310061+9999
0051103840999991929090312004+52483+013433FM-12+004899999V0202701N00461220001CN0200001N9+02391+99999102061ADDAY101999GF100991001001999999001001MD1810061+9999
0064103840999991929090318004+52483+013433FM-12+004899999V0200201N00461220001CN0040001N9+02221+99999101911ADDAY101999GF101991001001999999001011KA1999M+02501MD1510061+9999
0085103840999991929090406004+52483+013433FM-12+004899999V0200901N00101220001CN0040001N9+01721+99999101901ADDAY101999GF101991001001999999001011KA1999N+01391EQDQ01+000032APCTENQ02+000002APC3  
0051103840999991929090412004+52483+013433FM-12+004899999V0200901N00261220001CN0040001N9+02781+99999101681ADDAY101999GF101991001001999999001011MD1810141+9999
0064103840999991929090418004+52483+013433FM-12+004899999V0201401N00461220001CN0040001N9+02721+99999101511ADDAY101999GF100991001001999999001001KA1999M+02891MD1610061+9999
0091103840999991929090506004+52483+013433FM-12+004899999V0201101N00101220001CN0010001N9+02111+99999101461ADDAY101999GF104991011011017501001011KA1999N+01781MW1461EQDQ01+000082APCTENQ02+000002APC3  
0051103840999991929090512004+52483+013433FM-12+004899999V0202501N00261220001CN0040001N9+03281+99999101301ADDAY101999GF102991001001999999001011MD1810061+9999
0085103840999991929090518004+52483+013433FM-12+004899999V0203201N00101012301CN0020001N9+02611+99999101251ADDAY101999GF106991061031012501001081KA1999M+03281EQDQ01+000032APCTENQ02+000002APC3  
0085103840999991929090606004+52483+013433FM-12+004899999V0202701N00461220001CN0040001N9+01891+99999101291ADDAY101999GF102991001001999999001011KA1999N+01781EQDQ01+000032APCTENQ02+000002APC3  
0072103840999991929090612004+52483+013433FM-12+004899999V0202901N00671007801CN0040001N9+01891+99999101461ADDAY121999GF108991081051008001999999EQDQ01+000022APCTENQ02+000002APC3  
0075103840999991929090618004+52483+013433FM-12+004899999V0203201N00671220001CN0200001N9+01611+99999101461ADDAA199000691AY111999GF102991021011012501001001KA1999M+02001MD1310061+9999
0064103840999991929090706004+52483+013433FM-12+004899999V0203201N00461220001CN0100001N9+01221+99999101981ADDAY101999GF102991021011008001001001KA1999N+00891MD1310141+9999
0056103840999991929090712004+52483+013433FM-12+004899999V0203401N00671220001CN0200001N9+01891+99999102061ADDAY101999GF104991041011008001001001EQDQ01+000002APC3  
0085103840999991929090718004+52483+013433FM-12+004899999V0202901N00461220001CN0100001N9+01721+99999102111ADDAY101999GF102991011011008001001011KA1999M+01891EQDQ01+000042APCTENQ02+000062APC3  
0069103840999991929090806004+52483+013433FM-12+004899999V0202901N001019999999N0020001N9+01111+99999102281ADDAY111999GF108991041061008001999999KA1999N+00891EQDQ01+000002APC3  
0064103840999991929090818004+52483+013433FM-12+004899999V0202501N00101220001CN0040001N9+01611+99999102041ADDAY111999GF102991011051004501001011KA1999M+02001MD1810061+9999
0064103840999991929090906004+52483+013433FM-12+004899999V0202701N00261220001CN0040001N9+01781+99999101461ADDAY101999GF100991001001999999001001KA1999N+01611MD1810061+9999
0051103840999991929090912004+52483+013433FM-12+004899999V0202701N00671220001CN0040001N9+02611+99999101141ADDAY101999GF104991021011012501001011MD1810201+9999
0064103840999991929090918004+52483+013433FM-12+004899999V0203201N004619999999N0040001N9+02391+99999100951ADDAY101999GF106991041061012501999999KA1999M+02721MD1610061+9999
0075103840999991929091006004+52483+013433FM-12+004899999V0203201N00461220001CN0200001N9+01501+99999101671ADDAA199002091AY161999GF102991021051008001001011KA1999N+01281MD1310021+9999
0051103840999991929091012004+52483+013433FM-12+004899999V0202901N00671220001CN0200001N9+01891+99999101871ADDAY101999GF102991011011017501001011MD1210061+9999
0064103840999991929091018004+52483+013433FM-12+004899999V0202901N00101220001CN0100001N9+01781+99999102031ADDAY101999GF102991001001999999001011KA1999M+01891MD1310141+9999
0064103840999991929091106004+52483+013433FM-12+004899999V0203201N00101012301CN0020001N9+01221+99999102681ADDAY101999GF106991061051012501001001KA1999N+00891MD1310141+9999
0056103840999991929091112004+52483+013433FM-12+004899999V0209991C00001220001CN0040001N9+01891+99999102631ADDAY101999GF104991001001999999001011EQDQ01+000002APC3  
0064103840999991929091118004+52483+013433FM-12+004899999V0209991C00001220001CN0020001N9+01781+99999102601ADDAY101999GF102991001001999999001011KA1999M+02001MD1510001+9999
0085103840999991929091206004+52483+013433FM-12+004899999V0200901N00101220001CN0020001N9+01501+99999102551ADDAY101999GF100991001001999999001001KA1999N+01111EQDQ01+000032APCTENQ02+000002APC3  
0051103840999991929091212004+52483+013433FM-12+004899999V0201401N00261220001CN0100001N9+02501+99999102351ADDAY101999GF100991001001999999001001MD1810141+9999
0064103840999991929091218004+52483+013433FM-12+004899999V0201101N00261220001CN0020001N9+02221+99999102231ADDAY101999GF101991011051022501001001KA1999M+02501MD1610061+9999
0064103840999991929091306004+52483+013433FM-12+004899999V0201401N00101220001CN0020001N9+01501+99999101951ADDAY101999GF102991001001999999001011KA1999N+01281MD1810061+9999
0051103840999991929091312004+52483+013433FM-12+004899999V0201601N00261220001CN0040001N9+02781+99999101721ADDAY101999GF104991001001999999031081MD1810141+9999
0064103840999991929091318004+52483+013433FM-12+004899999V0201401N00101220001CN0020001N9+02391+99999101601ADDAY101999GF102991021051017501001001KA1999M+02781MD1610061+9999
0107103840999991929091406004+52483+013433FM-12+004899999V0200901N00101220001CN0010001N9+01721+99999101591ADDAY101999GF108991001999999999999999KA1999N+01501MW1461EQDQ01+000052SCOLCGQ02+000022APCTENQ03+000002APC3  
0051103840999991929091412004+52483+013433FM-12+004899999V0201401N00101220001CN0020001N9+02611+99999101541ADDAY101999GF100991001001999999001001MD1810061+9999
0101103840999991929091418004+52483+013433FM-12+004899999V0201101N00101220001CN0010001N9+02501+99999101521ADDAY101999GF101991999001999999011001KA1999M+02721EQDQ01+000002SCOTLCQ02+000042APCTENQ03+000062APC3  
0064103840999991929091506004+52483+013433FM-12+004899999V0200901N00101220001CN0020001N9+01721+99999101881ADDAY101999GF100991001001999999001001KA1999N+01721MD1310141+9999
0096103840999991929091518004+52483+013433FM-12+004899999V0200201N006719999999N0040001N9+02001+99999102151ADDAA199000691AY111999GF107991041031012501031999KA1999M+02611EQDQ01+000042APCTENQ02+000142APC3  
0064103840999991929091606004+52483+013433FM-12+004899999V0200901N00101007801CN0040001N9+01611+99999102481ADDAY111999GF107991071061008001001001KA1999N+01611MD1310141+9999
0051103840999991929091612004+52483+013433FM-12+004899999V0201401N00101220001CN0040001N9+02221+99999102421ADDAY111999GF104991021051017501001011MD1810061+9999
0064103840999991929091618004+52483+013433FM-12+004899999V0200901N00261220001CN0040001N9+02111+99999102361ADDAY101999GF104991041051017501001001KA1999M+02281MD1510001+9999
0085103840999991929091706004+52483+013433FM-12+004899999V0200901N00261220001CN0040001N9+01111+99999102311ADDAY101999GF100991001001999999001001KA1999N+01001EQDQ01+000072APCTENQ02+000002APC3  
0051103840999991929091712004+52483+013433FM-12+004899999V0201101N00261220001CN0100001N9+02281+99999102151ADDAY101999GF102991001001999999001011MD1810141+9999
0064103840999991929091718004+52483+013433FM-12+004899999V0200901N00101220001CN0020001N9+02111+99999102021ADDAY101999GF102991001001999999001011KA1999M+02281MD1610061+9999
0064103840999991929091806004+52483+013433FM-12+004899999V0201401N00101220001CN0020001N9+01281+99999101671ADDAY101999GF104991001001999999001011KA1999N+01111MD1810061+9999
0051103840999991929091812004+52483+013433FM-12+004899999V0201401N00461220001CN0040001N9+02281+99999101511ADDAY111999GF106991001001999999001091MD1810201+9999
0064103840999991929091818004+52483+013433FM-12+004899999V0201401N00461220001CN0040001N9+02001+99999101301ADDAY111999GF106991001001999999011011KA1999M+02281MD1810141+9999
0064103840999991929091906004+52483+013433FM-12+004899999V0201601N00261220001CN0040001N9+01391+99999101031ADDAY101999GF104991001001999999001091KA1999N+01281MD1510001+9999
0051103840999991929091912004+52483+013433FM-12+004899999V0202501N004619999999N0040001N9+02281+99999100941ADDAY111999GF106991041061012501031999MD1610061+9999
0064103840999991929091918004+52483+013433FM-12+004899999V0202901N00261220001CN0040001N9+02111+99999100901ADDAY111999GF104991021091012501999999KA1999M+02391MD1510001+9999
0064103840999991929092006004+52483+013433FM-12+004899999V0202301N004619999999N0020001N9+01721+99999100621ADDAY121999GF108991041061004501999999KA1999N+01501MD1710141+9999
0051103840999991929092012004+52483+013433FM-12+004899999V0202501N009319999999N0020001N9+02221+99999099931ADDAY111999GF108991041061008001011999MD1810341+9999
0075103840999991929092018004+52483+013433FM-12+004899999V0202901N00931012301CN0100001N9+01281+99999099781ADDAA199005091AY161999GF108991081061012501999999KA1999M+02221MD1210141+9999
0075103840999991929092106004+52483+013433FM-12+004899999V0202901N00461220001CN0200001N9+01111+99999100691ADDAA199000391AY181999GF102991021051004501001001KA1999N+01001MD1310201+9999
0072103840999991929092112004+52483+013433FM-12+004899999V0202701N00931220001CN0200001N9+01501+99999100701ADDAY111999GF104991041011004501001011EQDQ01+000032APCTENQ02+000002APC3  
0064103840999991929092118004+52483+013433FM-12+004899999V0202501N00461007801CN0040001N9+01281+99999100581ADDAY111999GF108991081051008001999999KA1999M+01611MD1510061+9999
0075103840999991929092206004+52483+013433FM-12+004899999V0202901N01231007801CN0100001N9+01221+99999100431ADDAA199003091AY161999GF107991071051008001001001KA1999N+01001MD1310201+9999
0075103840999991929092218004+52483+013433FM-12+004899999V0202701N00461220001CN0100001N9+01001+99999101261ADDAA199002091AY181999GF104991021031012501999999KA1999M+01391MD1210201+9999
0064103840999991929092306004+52483+013433FM-12+004899999V0203201N00261220001CN0100001N9+01001+99999102061ADDAY111999GF104991001001999999031011KA1999N+00781MD1310201+9999
0051103840999991929092312004+52483+013433FM-12+004899999V0203201N00261220001CN0200001N9+01391+99999102221ADDAY111999GF104991041011012501001011MD1310061+9999
0064103840999991929092318004+52483+013433FM-12+004899999V0203401N00261220001CN0100001N9+01221+99999102461ADDAY101999GF102991011011012501001011KA1999M+01501MD1310141+9999
0064103840999991929092406004+52483+013433FM-12+004899999V0200201N00261220001CN0020001N9+00891+99999102831ADDAY101999GF101991001001999999001011KA1999N+00501MD1210061+9999
0072103840999991929092412004+52483+013433FM-12+004899999V0203601N00261220001CN0200001N9+01611+99999102861ADDAY101999GF101991011011012501001001EQDQ01+000032APCTENQ02+000002APC3  
0064103840999991929092418004+52483+013433FM-12+004899999V0203601N00261012301CN0100001N9+01391+99999103071ADDAY101999GF106991061051012501001001KA1999M+01721MD1310141+9999
0083103840999991929092506004+52483+013433FM-12+004899999V0200501N00261220001CN0020001N9+01001+99999103591ADDAY101999GF102991999001999999031001KA1999N+00781MD1310141+9999EQDQ01+000002SCOTLC
0072103840999991929092512004+52483+013433FM-12+004899999V0200701N00261220001CN0100001N9+01611+99999103661ADDAY101999GF101991001001999999001011EQDQ01+000082APCTENQ02+000002APC3  
0064103840999991929092518004+52483+013433FM-12+004899999V0209991C00001220001CN0040001N9+01501+99999103701ADDAY101999GF101991001001999999001011KA1999M+01611MD1310061+9999
0091103840999991929092606004+52483+013433FM-12+004899999V0209991C00001220001CN0002001N9+01111+99999103641ADDAY101999GF101991001001999999001011KA1999N+00891MW1421EQDQ01+000032APCTENQ02+000002APC3  
0051103840999991929092612004+52483+013433FM-12+004899999V0202701N00101220001CN0040001N9+01781+99999103361ADDAY101999GF106991001001999999001081MD1810141+9999
0064103840999991929092618004+52483+013433FM-12+004899999V0203601N00101220001CN0010001N9+01611+99999103071ADDAY101999GF102991001001999999001081KA1999M+01781MD1610061+9999
0091103840999991929092706004+52483+013433FM-12+004899999V0209991C00001220001CN0005001N9+01221+99999102981ADDAY101999GF102991021051004501001001KA1999N+01001MW1421EQDQ01+000032APCTENQ02+000002APC3  
0051103840999991929092712004+52483+013433FM-12+004899999V0201601N00101220001CN0010001N9+01891+99999102751ADDAY101999GF101991001001999999001011MD1810141+9999
0064103840999991929092718004+52483+013433FM-12+004899999V0209991C00001220001CN0010001N9+01721+99999102701ADDAY101999GF100991001001999999001001KA1999M+02001MD1510001+9999
0085103840999991929092806004+52483+013433FM-12+004899999V0209991C00001220001CN0010001N9+01111+99999102701ADDAY101999GF101991001001999999001011KA1999N+00891EQDQ01+000032APCTENQ02+000002APC3  
0051103840999991929092812004+52483+013433FM-12+004899999V0201601N00461220001CN0020001N9+02221+99999102521ADDAY101999GF101991001001999999001011MD1810141+9999
0085103840999991929092818004+52483+013433FM-12+004899999V0201601N00101220001CN0020001N9+02281+99999102461ADDAY101999GF100991001001999999001001KA1999M+02281EQDQ01+000032APCTENQ02+000002APC3  
0085103840999991929092906004+52483+013433FM-12+004899999V0201601N00261220001CN0020001N9+01221+99999102301ADDAY101999GF100991001001999999001001KA1999N+01001EQDQ01+000032APCTENQ02+000002APC3  
0085103840999991929092918004+52483+013433FM-12+004899999V0209991C00001220001CN0020001N9+01781+99999101961ADDAY101999GF100991001001999999001001KA1999M+02281EQDQ01+000032APCTENQ02+000002APC3  
0085103840999991929093006004+52483+013433FM-12+004899999V0202001N00101220001CN0020001N9+01501+99999101961ADDAY101999GF104991001001999999001081KA1999N+01391EQDQ01+000032APCTENQ02+000002APC3  
0051103840999991929093012004+52483+013433FM-12+004899999V0202501N002619999999N0040001N9+02221+99999101821ADDAY111999GF108991041051012501011999MD1810061+9999
0085103840999991929093018004+52483+013433FM-12+004899999V0209991C000019999999N0020001N9+02001+99999101741ADDAY111999GF106991041051004501011999KA1999M+02221EQDQ01+000082APCTENQ02+000002APC3  
0064103840999991929100106004+52483+013433FM-12+004899999V0202301N002619999999N0020001N9+01611+99999101151ADDAY111999GF106991021061008001031999KA1999N+01391MD1810061+9999
0057103840999991929100112004+52483+013433FM-12+004899999V0202301N00461004501CN0020001N9+01611+99999101021ADDAY161999GF108991081061004501999999MD1510061+9999MW1631
0075103840999991929100118004+52483+013433FM-12+004899999V0202901N002619999999N0020001N9+01391+99999101191ADDAA199009091AY161999GF108991041061008001999999KA1999M+01781MD1310201+9999
0081103840999991929100206004+52483+013433FM-12+004899999V0201601N002619999999N0010001N9+01001+99999100981ADDAA199000691AY161999GF108991041061004501999999KA1999N+00781MD1810261+9999MW1511
0057103840999991929100212004+52483+013433FM-12+004899999V0202301N00671004501CN0040001N9+01781+99999100391ADDAY161999GF107991061061004501999999MD1810261+9999MW1161
0075103840999991929100218004+52483+013433FM-12+004899999V0202501N001019999999N0010001N9+01391+99999100391ADDAA199015091AY161999GF107991041061004501999999KA1999M+01781MD1110061+9999
0102103840999991929100306004+52483+013433FM-12+004899999V0202301N002619999999N0020001N9+01391+99999100711ADDAA199004091AY161999GF108991041061004501999999KA1999N+01281MW1501EQDQ01+000032APCTENQ02+000002APC3  
0057103840999991929100312004+52483+013433FM-12+004899999V0201601N00101001501CN0010001N9+01281+99999100431ADDAY161999GF108991061061001501999999MD1710201+9999MW1611
0102103840999991929100318004+52483+013433FM-12+004899999V0202701N001019999999N0010001N9+01281+99999100471ADDAA199008091AY161999GF108991021061001501999999KA1999M+01391MW1611EQDQ01+000042APCTENQ02+000142APC3  
0075103840999991929100406004+52483+013433FM-12+004899999V0202001N002619999999N0020001N9+01281+99999101131ADDAA199003091AY161999GF108991041051004501999999KA1999N+01281MD1210141+9999
0051103840999991929100412004+52483+013433FM-12+004899999V0202301N00261220001CN0040001N9+02111+99999100991ADDAY161999GF102991011051017501031999MD1810141+9999
0112103840999991929100418004+52483+013433FM-12+004899999V0203601N00101000151CN0005001N9+01721+99999101011ADDAA199000591AY181999GF108991999061000251999999KA1999M+02221EQDQ01+000092SCOTLCQ02+000032APCTENQ03+000002APC3  
0064103840999991929100506004+52483+013433FM-12+004899999V0202301N00261220001CN0020001N9+01721+99999100821ADDAY111999GF104991001001999999001081KA1999N+01501MD1310141+9999
0051103840999991929100512004+52483+013433FM-12+004899999V0202301N00671220001CN0040001N9+02391+99999100751ADDAY101999GF104991011011012501001011MD1710061+9999
0064103840999991929100518004+52483+013433FM-12+004899999V0203201N00461220001CN0100001N9+01221+99999101111ADDAY101999GF104991041011002501001001KA1999M+02391MD1310201+9999
0070103840999991929100606004+52483+013433FM-12+004899999V0209991C00001000151CN0010001N9+01001+99999100781ADDAY141999GF108991081051000251999999KA1999N+01001MD1810141+9999MW1421
0064103840999991929100618004+52483+013433FM-12+004899999V0200901N00461021001CN0010001N9+01781+99999100411ADDAY111999GF106991061051022501001001KA1999M+02001MD1410001+9999
0064103840999991929100706004+52483+013433FM-12+004899999V0202301N00261220001CN0040001N9+01391+99999101231ADDAY111999GF106991001001999999031011KA1999N+01391MD1310261+9999
0051103840999991929100712004+52483+013433FM-12+004899999V0202301N00671220001CN0100001N9+01781+99999101511ADDAY101999GF104991011011012501001011MD1310061+9999
0083103840999991929100718004+52483+013433FM-12+004899999V0202301N00261220001CN0100001N9+01501+99999101671ADDAY111999GF106991999001999999011001KA1999M+01781MD1310061+9999EQDQ01+000002SCOTLC
0064103840999991929100806004+52483+013433FM-12+004899999V0201401N00101007801CN0020001N9+01391+99999101391ADDAY111999GF108991081051008001999999KA1999N+01221MD1810141+9999
0051103840999991929100812004+52483+013433FM-12+004899999V0201401N00261220001CN0040001N9+02001+99999100861ADDAY101999GF104991001001999999031011MD1810341+9999
0064103840999991929100818004+52483+013433FM-12+004899999V0201601N00461015001CN0040001N9+01781+99999100631ADDAY111999GF107991071011017501001001KA1999M+02001MD1810061+9999
0096103840999991929100906004+52483+013433FM-12+004899999V0202301N00261021001CN0020001N9+01391+99999100261ADDAA199001091AY161999GF106991061001022501031999KA1999N+01281EQDQ01+000072APCTENQ02+000002APC3  
0057103840999991929100912004+52483+013433FM-12+004899999V0202501N00671220001CN0040001N9+01611+99999100301ADDAY181999GF104991021031012501999999MD1210061+9999MW1161
0075103840999991929100918004+52483+013433FM-12+004899999V0202501N00671007801CN0040001N9+01001+99999100781ADDAA199001091AY181999GF107991071061008001001001KA1999M+01611MD1310341+9999
0102103840999991929101006004+52483+013433FM-12+004899999V0202701N004619999999N0020001N9+00891+99999100861ADDAA199008091AY161999GF108991041051004501001081KA1999N+00781MW1621EQDQ01+000042APCTENQ02+000142APC3  
0057103840999991929101012004+52483+013433FM-12+004899999V0202901N00931220001CN0200001N9+01221+99999101381ADDAY181999GF104991041071004501999999MD1310201+9999MW1161
0075103840999991929101018004+52483+013433FM-12+004899999V0202901N00671004501CN0100001N9+01001+99999101751ADDAA199002091AY111999GF107991071051004501001001KA1999M+01221MD1310201+9999
0070103840999991929101106004+52483+013433FM-12+004899999V0202501N00461004501CN0020001N9+01111+99999101621ADDAY111999GF107991061061004501031999KA1999N+01001MD1810061+9999MW1161
0057103840999991929101112004+52483+013433FM-12+004899999V0202701N009319999999N0040001N9+01281+99999101251ADDAY161999GF106991041061004501999999MD1810201+9999MW1801
0075103840999991929101118004+52483+013433FM-12+004899999V0202701N00671220001CN0100001N9+01111+99999101251ADDAA199003091AY181999GF100991001001999999001001KA1999M+01391MD1210061+9999
0064103840999991929101206004+52483+013433FM-12+004899999V0202701N00461220001CN0040001N9+00891+99999101501ADDAY111999GF104991041011008001031999KA1999N+00781MD1310061+9999
0051103840999991929101212004+52483+013433FM-12+004899999V0202901N00461007801CN0040001N9+01221+99999101721ADDAY181999GF106991061011008001001001MD1210141+9999
0075103840999991929101218004+52483+013433FM-12+004899999V0203201N00461007801CN0040001N9+01111+99999102081ADDAA199000691AY111999GF106991061011008001001001KA1999M+01221MD1310261+9999
0075103840999991929101306004+52483+013433FM-12+004899999V0202501N00261004501CN0020001N9+01001+99999102401ADDAA199000691AY161999GF108991081051004501999999KA1999N+00891MD1410001+9999
0064103840999991929101318004+52483+013433FM-12+004899999V0202701N00461004501CN0040001N9+01391+99999102671ADDAY121999GF107991071051004501001001KA1999M+01391MD1310141+9999
0064103840999991929101406004+52483+013433FM-12+004899999V0202501N00101220001CN0020001N9+01221+99999102901ADDAY111999GF106991001001999999001011KA1999N+01111MD1310061+9999
0051103840999991929101412004+52483+013433FM-12+004899999V0202501N00261007801CN0020001N9+01501+99999102841ADDAY111999GF107991071051008001001001MD1510061+9999
0064103840999991929101418004+52483+013433FM-12+004899999V0202501N00261007801CN0020001N9+01501+99999102741ADDAY111999GF107991071051008001001001KA1999M+01501MD1610061+9999
0085103840999991929101506004+52483+013433FM-12+004899999V0202901N00101002401CN0020001N9+01281+99999102631ADDAY121999GF108991081051002501999999KA1999N+01221EQDQ01+000042APCTENQ02+000142APC3  
0072103840999991929101512004+52483+013433FM-12+004899999V0203401N00261220001CN0200001N9+01501+99999102641ADDAY111999GF102991011011008001001011EQDQ01+000082APCTENQ02+000002APC3  
0085103840999991929101518004+52483+013433FM-12+004899999V0203401N00101220001CN0200001N9+01111+99999102711ADDAY101999GF100991001001999999001001KA1999M+01611EQDQ01+000022APCTENQ02+000002APC3  
0091103840999991929101606004+52483+013433FM-12+004899999V0209991C00001220001CN0005001N9+00891+99999102591ADDAY101999GF102991001001999999001011KA1999N+00721MW1441EQDQ01+000032APCTENQ02+000002APC3  
0051103840999991929101612004+52483+013433FM-12+004899999V0202501N00261220001CN0020001N9+01391+99999102201ADDAY101999GF104991001001999999001011MD1810201+9999
0064103840999991929101618004+52483+013433FM-12+004899999V0201401N00101220001CN0020001N9+01221+99999101911ADDAY111999GF107991001001999999031081KA1999M+01501MD1710141+9999
0085103840999991929101706004+52483+013433FM-12+004899999V0209991C00001004501CN0020001N9+01111+99999101391ADDAY101999GF106991061051004501001001KA1999N+00781EQDQ01+000022APCTENQ02+000002APC3  
0051103840999991929101712004+52483+013433FM-12+004899999V0202501N00461220001CN0020001N9+01391+99999101501ADDAY181999GF104991041011012501001001MD1010001+9999
0075103840999991929101718004+52483+013433FM-12+004899999V0202501N00461220001CN0040001N9+01281+99999101551ADDAA199000391AY101999GF106991001001999999031081KA1999M+01501MD1310061+9999
0069103840999991929101806004+52483+013433FM-12+004899999V0202301N001019999999N0020001N9+01111+99999101391ADDAY111999GF106991041051008001001011KA1999N+01001EQDQ01+000002APC3  
0051103840999991929101812004+52483+013433FM-12+004899999V0202301N00101015001CN0020001N9+01501+99999101211ADDAY111999GF107991061051017501001011MD1810141+9999
0064103840999991929101818004+52483+013433FM-12+004899999V0202301N00101012301CN0020001N9+01501+99999101031ADDAY111999GF107991071051012501001001KA1999M+01611MD1810141+9999
0081103840999991929101906004+52483+013433FM-12+004899999V0209991C00001007801CN0010001N9+01111+99999100421ADDAA199003091AY161999GF108991061061008001011999KA1999N+00891MD1610061+9999MW1161
0057103840999991929101912004+52483+013433FM-12+004899999V0202301N00101002401CN0020001N9+01221+99999100311ADDAY161999GF108991061061002501011999MD1710061+9999MW1441
0102103840999991929101918004+52483+013433FM-12+004899999V0202901N00101001501CN0010001N9+01111+99999100271ADDAA199002091AY161999GF108991081061001501999999KA1999M+01281MW1611EQDQ01+000022APCTENQ02+000002APC3  
0102103840999991929102006004+52483+013433FM-12+004899999V0202901N00671002401CN0020001N9+01001+99999100101ADDAA199008091AY161999GF108991061061002501011999KA1999N+00891MW1601EQDQ01+000022APCTENQ02+000002APC3  
0075103840999991929102018004+52483+013433FM-12+004899999V0202901N00261007801CN0040001N9+01001+99999100381ADDAA199002091AY161999GF107991071051008001001001KA1999M+01001MD1310141+9999
0075103840999991929102106004+52483+013433FM-12+004899999V0209991C00001220001CN0010001N9+00611+99999101071ADDAA199003091AY121999GF106991001001999999001081KA1999N+00501MD1310201+9999
0051103840999991929102112004+52483+013433FM-12+004899999V0209991C00001007801CN0020001N9+01111+99999101271ADDAY111999GF106991061011008001001001MD1310061+9999
0070103840999991929102118004+52483+013433FM-12+004899999V0201401N001019999999N0005001N9+01001+99999101371ADDAY111999GF106991999999999999999999KA1999M+01221MD1310061+9999MW1461
0085103840999991929102206004+52483+013433FM-12+004899999V0201401N00101220001CN0005001N9+00501+99999101221ADDAY101999GF102991001001999999031999KA1999N+00501EQDQ01+000062APCTENQ02+000002APC3  
0051103840999991929102212004+52483+013433FM-12+004899999V0202001N00261220001CN0020001N9+01221+99999101071ADDAY101999GF101991011051002501001001MD1610141+9999
0091103840999991929102218004+52483+013433FM-12+004899999V0201401N00101220001CN0005001N9+00891+99999100991ADDAY101999GF102991001001999999001011KA1999M+01221MW1461EQDQ01+000032APCTENQ02+000002APC3  
0083103840999991929102306004+52483+013433FM-12+004899999V0209991C00001002401CN0005001N9+00721+99999100771ADDGF106991061051002501001001KA1999N+00501MW1441EQDQ01+000032APCTENQ02+000002APC3  
0051103840999991929102312004+52483+013433FM-12+004899999V0202501N00261220001CN0020001N9+01281+99999100731ADDAY101999GF101991001001999999031999MD1810061+9999
0064103840999991929102318004+52483+013433FM-12+004899999V0202301N00101220001CN0010001N9+01111+99999100831ADDAY101999GF100991001001999999001001KA1999M+01391MD1310061+9999
0091103840999991929102406004+52483+013433FM-12+004899999V0202301N00101220001CN0005001N9+00721+99999100861ADDAY101999GF102991021051002501001001KA1999N+00611MW1441EQDQ01+000042APCTENQ02+000062APC3  
0051103840999991929102412004+52483+013433FM-12+004899999V0202301N00461220001CN0040001N9+01501+99999100631ADDAY101999GF100991001001999999001001MD1810201+9999
0064103840999991929102418004+52483+013433FM-12+004899999V0201601N00261220001CN0010001N9+01221+99999100461ADDAY101999GF100991001001999999001001KA1999M+01501MD1810061+9999
0064103840999991929102506004+52483+013433FM-12+004899999V0201601N00261220001CN0010001N9+00891+99999100011ADDAY101999GF102991021001004501001011KA1999N+00781MD1610061+9999
0051103840999991929102512004+52483+013433FM-12+004899999V0202001N00461007801CN0020001N9+01501+99999100031ADDAY111999GF107991061051008001031999MD1310061+9999
0064103840999991929102518004+52483+013433FM-12+004899999V0202501N00101007801CN0040001N9+01281+99999100151ADDAY111999GF108991081051008001999999KA1999M+01611MD1310061+9999
0081103840999991929102606004+52483+013433FM-12+004899999V0203201N00101004501CN0010001N9+01001+99999099591ADDAA199008091AY161999GF108991081061004501999999KA1999N+01001MD1810141+9999MW1631
0057103840999991929102612004+52483+013433FM-12+004899999V0203201N00461004501CN0020001N9+00721+99999099611ADDAY161999GF108991071061004501011999MD1210061+9999MW1631
0075103840999991929102618004+52483+013433FM-12+004899999V0202501N00261004501CN0020001N9+00781+99999099781ADDAA199011091AY161999GF107991071051004501001001KA1999M+01001MD1210061+9999
0075103840999991929102706004+52483+013433FM-12+004899999V0202701N00261002401CN0020001N9+00611+99999100231ADDAA199000691AY111999GF108991081051002501999999KA1999N+00501MD1310141+9999
0064103840999991929102718004+52483+013433FM-12+004899999V0202501N00261220001CN0100001N9+00781+99999100551ADDAY111999GF100991001001999999001001KA1999M+01001MD1310141+9999
0096103840999991929102806004+52483+013433FM-12+004899999V0203201N00261004501CN0010001N9+00501+99999100621ADDAA199000391AY161999GF108991081061004501999999KA1999N+00281EQDQ01+000042APCTENQ02+000062APC3  
0057103840999991929102812004+52483+013433FM-12+004899999V0202701N00261004501CN0020001N9+00781+99999101051ADDAY161999GF106991061031004501001001MD1310141+9999MW1161
0075103840999991929102818004+52483+013433FM-12+004899999V0202501N001019999999N0020001N9+00611+99999101211ADDAA199000691AY181999GF106991021021004501001011KA1999M+00781MD1110061+9999
0075103840999991929102906004+52483+013433FM-12+004899999V0201801N002619999999N0020001N9+00721+99999100181ADDAA199000591AY161999GF108991041061004501011999KA1999N+00501MD1810261+9999
0057103840999991929102912004+52483+013433FM-12+004899999V0201601N00261004501CN0010001N9+00721+99999099581ADDAY161999GF108991081061004501999999MD1810341+9999MW1611
0075103840999991929102918004+52483+013433FM-12+004899999V0202501N00461004501CN0040001N9+00891+99999099331ADDAA199005091AY161999GF107991061011004501001011KA1999M+00891MD1610061+9999
0081103840999991929103006004+52483+013433FM-12+004899999V0202501N00461004501CN0020001N9+00891+99999099971ADDAA199000391AY161999GF106991061061004501001001KA1999N+00891MD1310141+9999MW1161
0051103840999991929103012004+52483+013433FM-12+004899999V0202501N006719999999N0040001N9+01111+99999100231ADDAY181999GF107991021061008001999999MD1310141+9999
0075103840999991929103018004+52483+013433FM-12+004899999V0202501N00461007801CN0100001N9+01111+99999100591ADDAA199000591AY111999GF107991071051008001001001KA1999M+01111MD1310261+9999
0075103840999991929103106004+52483+013433FM-12+004899999V0203401N001019999999N0010001N9+00721+99999101561ADDAA199000691AY181999GF108991041061004501999999KA1999N+00721MD1310261+9999
0057103840999991929103112004+52483+013433FM-12+004899999V0203401N00261004501CN0010001N9+00781+99999101841ADDAY161999GF108991081061004501999999MD1310061+9999MW1531
0081103840999991929103118004+52483+013433FM-12+004899999V0200201N00461004501CN0020001N9+00781+99999102161ADDAA199002091AY161999GF108991081061004501999999KA1999M+00781MD1310261+9999MW1611
0075103840999991929110106004+52483+013433FM-12+004899999V0200501N00261007801CN0020001N9+00781+99999102541ADDAA199001091AY161999GF106991061061008001031999KA1999N+00781MD1310141+9999
0072103840999991929110112004+52483+013433FM-12+004899999V0200501N001019999999N0020001N9+00001+99999102581ADDAY161999GF107991041061004501999999EQDQ01+000082APCTENQ02+000002APC3  
0075103840999991929110118004+52483+013433FM-12+004899999V0200201N00461004501CN0020001N9+00891+99999102671ADDAA199000691AY161999GF108991061061004501999999KA1999M+01001MD1110061+9999
0064103840999991929110206004+52483+013433FM-12+004899999V0200501N00261220001CN0040001N9+00501+99999102721ADDAY111999GF102991021051008001031999KA1999N+00501MD1410001+9999
0051103840999991929110212004+52483+013433FM-12+004899999V0200501N00101220001CN0100001N9+00721+99999102591ADDAY101999GF101991011011012501999999MD1810141+9999
0085103840999991929110218004+52483+013433FM-12+004899999V0209991C00001220001CN0020001N9+00501+99999102601ADDAY101999GF100991001001999999001001KA1999M+00721EQDQ01+000032APCTENQ02+000002APC3  
0085103840999991929110306004+52483+013433FM-12+004899999V0202001N00101220001CN0020001N9+00111+99999102401ADDAY101999GF100991001001999999001001KA1999N+00111EQDQ01+000062APCTENQ02+000002APC3  
0085103840999991929110318004+52483+013433FM-12+004899999V0202301N00261012301CN0010001N9+00611+99999102001ADDAY111999GF106991061051012501001001KA1999M+00721EQDQ01+000072APCTENQ02+000002APC3  
0075103840999991929110406004+52483+013433FM-12+004899999V0202901N00261004501CN0020001N9+00501+99999102561ADDAA199002091AY161999GF107991071061004501001001KA1999N+00501MD1310341+9999
0051103840999991929110412004+52483+013433FM-12+004899999V0202501N002619999999N0020001N9+01001+99999102741ADDAY101999GF107991021011004501001081MD1310061+9999
0038103840999991929110418004+52483+013433FM-12+004899999V0202301N004619999999N0020001N9+00781+99999102861ADDAY101999KA1999M+01001MD1310061+9999
0085103840999991929110506004+52483+013433FM-12+004899999V0202301N00261220001CN0010001N9+00391+99999102801ADDAY101999GF102991021001022501031001KA1999N+00391EQDQ01+000032APCTENQ02+000002APC3  
0051103840999991929110512004+52483+013433FM-12+004899999V0202501N00671220001CN0020001N9+01001+99999102501ADDAY101999GF100991001001999999001001MD1810201+9999
0064103840999991929110518004+52483+013433FM-12+004899999V0201401N00261220001CN0020001N9+00721+99999102321ADDAY101999GF100991001001999999001001KA1999M+01001MD1810061+9999
0064103840999991929110606004+52483+013433FM-12+004899999V0201601N00101220001CN0010001N9+00281+99999101721ADDAY101999GF100991001001999999001001KA1999N+00221MD1810141+9999
0051103840999991929110612004+52483+013433FM-12+004899999V0201801N00461002401CN0020001N9+00611+99999101451ADDAY101999GF107991071051002501001001MD1810141+9999
0064103840999991929110618004+52483+013433FM-12+004899999V0201401N00101002401CN0020001N9+00611+99999101331ADDAY121999GF108991081051002501999999KA1999M+00721MD1810061+9999
0085103840999991929110706004+52483+013433FM-12+004899999V0202301N00101220001CN0010001N9+00221+99999101311ADDAY101999GF100991001001999999001001KA1999N+00221EQDQ01+000042APCTENQ02+000062APC3  
0072103840999991929110712004+52483+013433FM-12+004899999V0202001N00261220001CN0020001N9+01001+99999101371ADDAY101999GF101991011051012501001001EQDQ01+000022APCTENQ02+000002APC3  
0085103840999991929110806004+52483+013433FM-12+004899999V0202001N00101002401CN0010001N9+00721+99999101701ADDAY111999GF108991081051002501999999KA1999N+00721EQDQ01+000032APCTENQ02+000002APC3  
0051103840999991929110812004+52483+013433FM-12+004899999V0202001N00261220001CN0020001N9+01111+99999101351ADDAY111999GF104991041011012501001001MD1810261+9999
0064103840999991929110818004+52483+013433FM-12+004899999V0201401N00261220001CN0040001N9+00781+99999101151ADDAY101999GF100991001001999999001001KA1999M+01111MD1710141+9999
0102103840999991929110906004+52483+013433FM-12+004899999V0202301N00261002401CN0010001N9+00721+99999100981ADDAA199000391AY161999GF108991081061002501999999KA1999N+00501MW1611EQDQ01+000042APCTENQ02+000142APC3  
0051103840999991929110912004+52483+013433FM-12+004899999V0202901N004619999999N0020001N9+01001+99999101381ADDAY161999GF107991041061008001999999MD1310261+9999
0075103840999991929110918004+52483+013433FM-12+004899999V0202701N00261220001CN0020001N9+00781+99999101781ADDAA199000591AY181999GF100991001001999999001001KA1999M+01001MD1310261+9999
0073103840999991929111006004+52483+013433FM-12+004899999V0201801N00101220001CN0010001N9+00221+99999102201ADDAA199000691GF100991001001999999001001KA1999N+00221MD1410001+9999MW1441
0064103840999991929111018004+52483+013433FM-12+004899999V0201601N00261015001CN0040001N9+00721+99999101551ADDAY101999GF106991061051017501001001KA1999M+01001MD1810141+9999
0064103840999991929111106004+52483+013433FM-12+004899999V0202701N00261220001CN0020001N9+00611+99999101951ADDAY101999GF104991001001999999011011KA1999N+00611MD1310341+9999
0051103840999991929111112004+52483+013433FM-12+004899999V0202701N00461220001CN0020001N9+00891+99999102031ADDAY101999GF104991021011012501001011MD1710061+9999
0064103840999991929111118004+52483+013433FM-12+004899999V0201601N00101220001CN0020001N9+00611+99999101881ADDAY101999GF100991001001999999001001KA1999M+01001MD1990061+9999
0064103840999991929111206004+52483+013433FM-12+004899999V0201601N006719999999N0020001N9+00501+99999100301ADDAY111999GF106991021061008001001011KA1999N+00391MD1810401+9999
0051103840999991929111212004+52483+013433FM-12+004899999V0201801N00671007801CN0020001N9+00891+99999099781ADDAY161999GF108991061061008001011999MD1710201+9999
0081103840999991929111218004+52483+013433FM-12+004899999V0202001N00461007801CN0020001N9+00891+99999099871ADDAA199000391AY161999GF108991081061008001999999KA1999M+01001MD1310141+9999MW1611
0096103840999991929111306004+52483+013433FM-12+004899999V0202501N00261007801CN0020001N9+00501+99999100491ADDAA199000591AY161999GF107991061051008001011999KA1999N+00501EQDQ01+000042APCTENQ02+000062APC3  
0072103840999991929111312004+52483+013433FM-12+004899999V0202301N002619999999N0020001N9+00781+99999100421ADDAY111999GF106991011011008001001011EQDQ01+000042APCTENQ02+000062APC3  
0064103840999991929111318004+52483+013433FM-12+004899999V0201101N00461220001CN0020001N9+00611+99999100351ADDAY101999GF100991001001999999001001KA1999M+00891MD1410001+9999
0064103840999991929111406004+52483+013433FM-12+004899999V0200501N00261001501CN0020001N9+00221+99999099901ADDAY101999GF108991081051001501999999KA1999N+00221MD1710061+9999
0072103840999991929111412004+52483+013433FM-12+004899999V0209991C00001001501CN0010001N9+00391+99999099661ADDAY161999GF108991081051001501999999EQDQ01+000042APCTENQ02+000142APC3  
0096103840999991929111418004+52483+013433FM-12+004899999V0202301N00101001501CN0010001N9+00391+99999099611ADDAA199000691AY121999GF108991081051001501999999KA1999M+00501EQDQ01+000032APCTENQ02+000002APC3  
0085103840999991929111506004+52483+013433FM-12+004899999V0209991C00001002401CN0010001N9+00281+99999099711ADDAY121999GF108991061061002501999999KA1999N+00281EQDQ01+000042APCTENQ02+000142APC3  
0051103840999991929111512004+52483+013433FM-12+004899999V0202301N00261007801CN0100001N9+00611+99999099971ADDAY121999GF108991061061008001999999MD1310061+9999
0064103840999991929111518004+52483+013433FM-12+004899999V0202301N00261007801CN0040001N9+00501+99999100221ADDAY121999GF108991081051008001999999KA1999M+00611MD1310141+9999
0085103840999991929111606004+52483+013433FM-12+004899999V0202301N00261002401CN0010001N9+00501+99999100411ADDAY121999GF106991061051002501001001KA1999N+00391EQDQ01+000032APCTENQ02+000002APC3  
0051103840999991929111612004+52483+013433FM-12+004899999V0201101N00261220001CN0020001N9+00611+99999100261ADDAY111999GF102991001001999999011011MD1810141+9999
0064103840999991929111618004+52483+013433FM-12+004899999V0201101N00461015001CN0040001N9+00391+99999100181ADDAY101999GF106991061051017501999999KA1999M+00611MD1810061+9999
0096103840999991929111706004+52483+013433FM-12+004899999V0201401N00101001501CN0020001N9+00391+99999099941ADDAA199000391AY161999GF108991081061001501999999KA1999N+00281EQDQ01+000042APCTENQ02+000062APC3  
0081103840999991929111718004+52483+013433FM-12+004899999V0209991C000019999999N0010001N9+00721+99999100291ADDAA199000391AY161999GF108991041051002501999999KA1999M+00721MD1310141+9999MW1461
0070103840999991929111806004+52483+013433FM-12+004899999V0209991C00001000601CN0002001N9+00391+99999101011ADDAY121999GF109991091999000751999999KA1999N+00391MD1310201+9999MW1441
0049103840999991929111812004+52483+013433FM-12+004899999V0202301N00101001501CN0010001N9+00501+99999101351ADDGF108991081051001501999999MD1310141+9999MW1441
0081103840999991929111818004+52483+013433FM-12+004899999V0202501N00261001501CN0020001N9+00501+99999101661ADDAA199000591AY161999GF108991081051001501999999KA1999M+00501MD1310201+9999MW1511
0075103840999991929111906004+52483+013433FM-12+004899999V0209991C00001002401CN0010001N9+00391+99999102241ADDAA199000391AY161999GF107991071051002501001001KA1999N+00281MD1210201+9999
0051103840999991929111912004+52483+013433FM-12+004899999V0201601N001019999999N0020001N9+00611+99999102221ADDAY111999GF108991021051008001001081MD1810061+9999
0085103840999991929111918004+52483+013433FM-12+004899999V0201401N00261007801CN0020001N9+00501+99999102191ADDAY111999GF107991071051008001001001KA1999M+00611EQDQ01+000072APCTENQ02+000002APC3  
0085103840999991929112006004+52483+013433FM-12+004899999V0201401N002619999999N0020001N9+00221+99999102041ADDAY101999GF106991011051022501001011KA1999N+00221EQDQ01+000032APCTENQ02+000002APC3  
0085103840999991929112018004+52483+013433FM-12+004899999V0200901N00461220001CN0010001N9+00611+99999101991ADDAY101999GF100991001001999999001001KA1999M+00891EQDQ01+000032APCTENQ02+000002APC3  
0085103840999991929112106004+52483+013433FM-12+004899999V0201101N00261220001CN0010001N9+00281+99999101831ADDAY101999GF104991001001999999001011KA1999N+00281EQDQ01+000032APCTENQ02+000002APC3  
0051103840999991929112112004+52483+013433FM-12+004899999V0200901N00261220001CN0010001N9+01001+99999101661ADDAY101999GF100991001001999999001001MD1810061+9999
0085103840999991929112118004+52483+013433FM-12+004899999V0200901N00461220001CN0000501N9+00721+99999101701ADDAY101999GF100991001001999999001001KA1999M+01001EQDQ01+000032APCTENQ02+000002APC3  
0085103840999991929112206004+52483+013433FM-12+004899999V0201401N00101220001CN0010001N9+00501+99999101741ADDAY101999GF100991001001999999001001KA1999N+00501EQDQ01+000032APCTENQ02+000002APC3  
0051103840999991929112212004+52483+013433FM-12+004899999V0201601N00101220001CN0020001N9+01111+99999101641ADDAY101999GF101991011011012501001001MD1810061+9999
0064103840999991929112218004+52483+013433FM-12+004899999V0201401N00261220001CN0020001N9+00781+99999101581ADDAY101999GF100991001001999999001001KA1999M+01111MD1810061+9999
0085103840999991929112306004+52483+013433FM-12+004899999V0201601N00101220001CN0010001N9+00501+99999101501ADDAY101999GF102991001001999999001011KA1999N+00501EQDQ01+000032APCTENQ02+000002APC3  
0051103840999991929112312004+52483+013433FM-12+004899999V0201801N00101220001CN0020001N9+01221+99999101501ADDAY101999GF104991001001999999001011MD1810061+9999
0064103840999991929112318004+52483+013433FM-12+004899999V0201601N00261220001CN0020001N9+00891+99999101631ADDAY101999GF100991001001999999001001KA1999M+01221MD1110061+9999
0064103840999991929112406004+52483+013433FM-12+004899999V0201601N00101220001CN0010001N9+00391+99999101541ADDAY101999GF102991001001999999011011KA1999N+00391MD1710061+9999
0081103840999991929112418004+52483+013433FM-12+004899999V0201801N00261012301CN0020001N9+00781+99999101491ADDAA199000691AY161999GF107991071061012501001001KA1999M+01001MD1310061+9999MW1601
0064103840999991929112506004+52483+013433FM-12+004899999V0202501N002619999999N0010001N9+00781+99999101981ADDAY121999GF108991041061004501999999KA1999N+00721MD1310141+9999
0051103840999991929112512004+52483+013433FM-12+004899999V0202001N00101220001CN0020001N9+01001+99999101871ADDAY111999GF104991001001999999001011MD1810061+9999
0064103840999991929112518004+52483+013433FM-12+004899999V0201401N00931220001CN0020001N9+00721+99999101681ADDAY101999GF104991001001999999031011KA1999M+01001MD1710141+9999
0075103840999991929112606004+52483+013433FM-12+004899999V0201601N002619999999N0010001N9+00721+99999101251ADDAA199000691AY161999GF106991041051012501999999KA1999N+00501MD1510001+9999
0072103840999991929112612004+52483+013433FM-12+004899999V0202301N00101007801CN0010001N9+00891+99999101341ADDAY161999GF108991071061008001011999EQDQ01+000022APCTENQ02+000002APC3  
0081103840999991929112618004+52483+013433FM-12+004899999V0209991C00001220001CN0000501N9+00781+99999101451ADDAA199000591AY161999GF100991001001999999001001KA1999M+00891MD1310061+9999MW1461
0096103840999991929112706004+52483+013433FM-12+004899999V0202501N004619999999N0010001N9+00781+99999101411ADDAA199001091AY161999GF106991041051008001001011KA1999N+00721EQDQ01+000042APCTENQ02+000062APC3  
0070103840999991929112712004+52483+013433FM-12+004899999V0202501N004619999999N0020001N9+00891+99999101431ADDAY111999GF106991999031012501001001MD1510001+9999EQDQ01+000042SCOTLC
0064103840999991929112718004+52483+013433FM-12+004899999V0202501N00461220001CN0010001N9+00781+99999101621ADDAY111999GF104991041011012501001001KA1999M+01001MD1310141+9999
0064103840999991929112806004+52483+013433FM-12+004899999V0202501N00261220001CN0010001N9+00391+99999101871ADDAY101999GF102991001001999999001011KA1999N+00391MD1310061+9999
0051103840999991929112812004+52483+013433FM-12+004899999V0202001N00261220001CN0010001N9+00611+99999101671ADDAY101999GF104991001001999999011091MD1990141+9999
0064103840999991929112818004+52483+013433FM-12+004899999V0201801N00461012301CN0010001N9+00611+99999101351ADDAY111999GF106991061051012501001001KA1999M+00611MD1810141+9999
0075103840999991929112906004+52483+013433FM-12+004899999V0202301N004619999999N0020001N9+00781+99999100501ADDAA199003091AY161999GF106991041061008001031999KA1999N+00501MD1410001+9999
0051103840999991929112912004+52483+013433FM-12+004899999V0202301N00671220001CN0040001N9+01281+99999100581ADDAY111999GF104991021051017501001081MD1410001+9999
0085103840999991929112918004+52483+013433FM-12+004899999V0202001N00101007801CN0020001N9+01111+99999100551ADDAY111999GF108991081051008001999999KA1999M+01281EQDQ01+000032APCTENQ02+000002APC3  
0064103840999991929113006004+52483+013433FM-12+004899999V0202301N00261007801CN0020001N9+01001+99999100471ADDAY121999GF108991061051008001999999KA1999N+01001MD1510001+9999
0051103840999991929113012004+52483+013433FM-12+004899999V0201601N00101012301CN0020001N9+01221+99999100311ADDAY111999GF107991061051012501011999MD1810141+9999
0064103840999991929113018004+52483+013433FM-12+004899999V0201401N00461220001CN0010001N9+00891+99999100191ADDAY111999GF104991001999999999999999KA1999M+01221MD1610061+9999
0064103840999991929120106004+52483+013433FM-12+004899999V0202301N002619999999N0020001N9+01611+99999101151ADDAY111999GF106991021061008001031999KA1999N+01391MD1810061+9999
0075103840999991929120118004+52483+013433FM-12+004899999V0202301N00101220001CN0010001N9+00891+99999099901ADDAA199000691AY161999GF102991021051012501001001KA1999M+00891MD1310061+9999
0075103840999991929120206004+52483+013433FM-12+004899999V0202301N002619999999N0010001N9+00781+99999100411ADDAA199000691AY121999GF108991041061004501999999KA1999N+00781MD1310141+9999
0057103840999991929120212004+52483+013433FM-12+004899999V0202301N00461004501CN0020001N9+00891+99999100591ADDAY161999GF107991071061004501001001MD1310061+9999MW1601
0075103840999991929120218004+52483+013433FM-12+004899999V0202501N00101220001CN0020001N9+00891+99999100811ADDAA199000691AY121999GF104991041011008001001001KA1999M+00891MD1110141+9999
0096103840999991929120306004+52483+013433FM-12+004899999V0202301N00261002401CN0010001N9+00781+99999100891ADDAA199000691AY161999GF108991081061002501999999KA1999N+00721EQDQ01+000042APCTENQ02+000142APC3  
0051103840999991929120312004+52483+013433FM-12+004899999V0202501N00261002401CN0010001N9+00781+99999101151ADDAY161999GF108991081061002501999999MD1210201+9999
0081103840999991929120318004+52483+013433FM-12+004899999V0202701N00101220001CN0005001N9+00781+99999101371ADDAA199002091AY111999GF104991041051008001001001KA1999M+00781MD1010061+9999MW1461
0081103840999991929120406004+52483+013433FM-12+004899999V0201401N00261001501CN0005001N9+00721+99999101551ADDAA199001091AY161999GF108991081051001501999999KA1999N+00611MD1110141+9999MW1441
0072103840999991929120412004+52483+013433FM-12+004899999V0201401N00461002401CN0010001N9+00781+99999101551ADDAY111999GF108991081051002501999999EQDQ01+000072APCTENQ02+000002APC3  
0081103840999991929120418004+52483+013433FM-12+004899999V0201401N00261002401CN0010001N9+00891+99999101491ADDAA199001091AY161999GF108991081061002501999999KA1999M+00891MD1710061+9999MW1611
0085103840999991929120506004+52483+013433FM-12+004899999V0202301N00261220001CN0020001N9+01111+99999101411ADDAY121999GF104991021061008001031999KA1999N+00891EQDQ01+000032APCTENQ02+000002APC3  
0051103840999991929120512004+52483+013433FM-12+004899999V0201601N00101220001CN0020001N9+01281+99999101011ADDAY101999GF100991001001999999001001MD1810261+9999
0064103840999991929120518004+52483+013433FM-12+004899999V0201101N00261220001CN0010001N9+00891+99999100511ADDAY101999GF100991001001999999001001KA1999M+01281MD1810341+9999
0064103840999991929120606004+52483+013433FM-12+004899999V0202301N00261220001CN0010001N9+00611+99999100261ADDAY101999GF104991001001999999001011KA1999N+00501MD1310061+9999
0070103840999991929120612004+52483+013433FM-12+004899999V0202301N00101220001CN0020001N9+01111+99999100411ADDAY101999GF106991001999999999001081MD1210061+9999EQDQ01+000052SCOLCG
0081103840999991929120618004+52483+013433FM-12+004899999V0202501N001019999999N0010001N9+00891+99999100581ADDAA199000691AY111999GF108991041061008001999999KA1999M+01111MD1310061+9999MW1611
0075103840999991929120706004+52483+013433FM-12+004899999V0201601N00461220001CN0020001N9+00501+99999100061ADDAA199002091AY161999GF104991041001022501031001KA1999N+00501MD1610141+9999
0051103840999991929120712004+52483+013433FM-12+004899999V0202301N006719999999N0040001N9+00891+99999099911ADDAY161999GF106991041051012501031071MD1810061+9999
0075103840999991929120718004+52483+013433FM-12+004899999V0202001N00671220001CN0100001N9+00891+99999100151ADDAA199000391AY111999GF100991001001999999001001KA1999M+01001MD1310141+9999
0064103840999991929120806004+52483+013433FM-12+004899999V0202301N00461220001CN0040001N9+00501+99999101421ADDAY101999GF102991001001999999011011KA1999N+00501MD1310141+9999
0064103840999991929120818004+52483+013433FM-12+004899999V0201601N004619999999N0040001N9+00781+99999100851ADDAY111999GF107991041051012501011999KA1999M+00891MD1810201+9999
0096103840999991929120906004+52483+013433FM-12+004899999V0202501N00461220001CN0020001N9+00721+99999100981ADDAA199000391AY161999GF104991021061012501999999KA1999N+00721EQDQ01+000042APCTENQ02+000142APC3  
0051103840999991929120912004+52483+013433FM-12+004899999V0202301N00671012301CN0100001N9+00781+99999101111ADDAY181999GF106991061011012501001001MD1310061+9999
0075103840999991929120918004+52483+013433FM-12+004899999V0202001N00671220001CN0100001N9+00721+99999100701ADDAA199000691AY111999GF108991001001999999011999KA1999M+00891MD1810341+9999
0075103840999991929121006004+52483+013433FM-12+004899999V0202501N00671220001CN0040001N9+00781+99999099931ADDAA199002091AY161999GF104991021061012501001011KA1999N+00501MD1310141+9999
0051103840999991929121012004+52483+013433FM-12+004899999V0202501N009319999999N0100001N9+00781+99999100231ADDAY111999GF106991041061012501031999MD1310141+9999
0075103840999991929121018004+52483+013433FM-12+004899999V0202501N00671220001CN0100001N9+00501+99999100631ADDAA199002091AY161999GF104991041011004501001001KA1999M+00781MD1310261+9999
0064103840999991929121106004+52483+013433FM-12+004899999V0202301N00461220001CN0020001N9+00281+99999100981ADDAY111999GF102991001001999999011011KA1999N+00221MD1810201+9999
0057103840999991929121112004+52483+013433FM-12+004899999V0202001N00461004501CN0020001N9+00501+99999100071ADDAY161999GF108991081061004501999999MD1810401+9999MW1631
0081103840999991929121118004+52483+013433FM-12+004899999V0202001N00671004501CN0040001N9+00721+99999099821ADDAA199004091AY161999GF107991071061004501001001KA1999M+00721MD1510001+9999MW1611
0075103840999991929121206004+52483+013433FM-12+004899999V0202301N00671220001CN0020001N9+00781+99999100311ADDAA199003091AY161999GF102991021051017501031999KA1999N+00721MD1810061+9999
0051103840999991929121212004+52483+013433FM-12+004899999V0202501N00931220001CN0040001N9+00891+99999100171ADDAY161999GF104991021071012501999999MD1710141+9999
0096103840999991929121218004+52483+013433FM-12+004899999V0202301N00671220001CN0040001N9+00611+99999100141ADDAA199005091AY111999GF104991041011008001001001KA1999M+00891EQDQ01+000032APCTENQ02+000002APC3  
0075103840999991929121306004+52483+013433FM-12+004899999V0202901N006719999999N0040001N9+00721+99999101421ADDAA199006091AY161999GF107991041061004501999999KA1999N+00611MD1310401+9999
0051103840999991929121312004+52483+013433FM-12+004899999V0202901N006719999999N0020001N9+00781+99999101941ADDAY181999GF107991041061004501999999MD1310201+9999
0075103840999991929121318004+52483+013433FM-12+004899999V0202701N00461220001CN0040001N9+00611+99999102271ADDAA199000691AY111999GF100991001001999999001001KA1999M+00781MD1310201+9999
0075103840999991929121406004+52483+013433FM-12+004899999V0202301N004619999999N0020001N9+00891+99999102241ADDAA199001091AY161999GF108991041061004501999999KA1999N+00611MD1610061+9999
0051103840999991929121412004+52483+013433FM-12+004899999V0202701N004619999999N0020001N9+01001+99999101991ADDAY121999GF108991041071004501999999MD1810201+9999
0102103840999991929121418004+52483+013433FM-12+004899999V0202701N00671002401CN0020001N9+01001+99999101861ADDAA199001091AY161999GF108991081061002501999999KA1999M+01111MW1511EQDQ01+000032APCTENQ02+000002APC3  
0081103840999991929121506004+52483+013433FM-12+004899999V0202901N00461004501CN0020001N9+00891+99999101941ADDAA199004091AY161999GF108991081061004501999999KA1999N+00891MD1310141+9999MW1601
0096103840999991929121518004+52483+013433FM-12+004899999V0202901N00671007801CN0100001N9+00721+99999102071ADDAA199000691AY111999GF106991061011008001001001KA1999M+00891EQDQ01+000032APCTENQ02+000002APC3  
0075103840999991929121606004+52483+013433FM-12+004899999V0202901N00261220001CN0020001N9+00391+99999102281ADDAA199003091AY161999GF104991041061008001001011KA1999N+00391MD1610061+9999
0057103840999991929121612004+52483+013433FM-12+004899999V0202701N00461004501CN0020001N9+00501+99999102321ADDAY181999GF108991071061004501011999MD1990061+9999MW1811
0075103840999991929121618004+52483+013433FM-12+004899999V0202701N00931002401CN0100001N9+00391+99999102381ADDAA199002091AY181999GF106991061011002501001001KA1999M+00501MD1210061+9999
0096103840999991929121706004+52483+013433FM-12+004899999V0202901N004619999999N0020001N9+00281+99999102281ADDAA199000691AY161999GF108991041061004501999999KA1999N+00221EQDQ01+000032APCTENQ02+000002APC3  
0051103840999991929121712004+52483+013433FM-12+004899999V0203201N002619999999N0020001N9+00221+99999102111ADDAY171999GF106991021091004501999999MD1810141+9999
0075103840999991929121718004+52483+013433FM-12+004899999V0203401N00461220001CN0040001N9+00111+99999102521ADDAA199000591AY171999GF104991041051004501001001KA1999M+00281MD1310261+9999
0064103840999991929121806004+52483+013433FM-12+004899999V0200201N00101220001CN0020001N9+00001+99999103791ADDAY111999GF104991001001999999001011KA1999N-00111MD1310021+9999
0072103840999991929121812004+52483+013433FM-12+004899999V0203401N00101220001CN0020001N9+00281+99999103861ADDAY101999GF101991011011008001001001EQDQ01+000032APCTENQ02+000002APC3  
0062103840999991929121818004+52483+013433FM-12+004899999V0203401N001019999999N0005001N9+00001+99999104031ADDGF199999999999001501999999KA1999M+00281MD1310061+9999MW1441
0056103840999991929121906004+52483+013433FM-12+004899999V0209991C000019999999N0020001N9-00221+99999104041ADDGF106991041061004501999999KA1999N-00221MD1510001+9999
0049103840999991929121912004+52483+013433FM-12+004899999V0202301N00101002401CN0010001N9-00221+99999103901ADDGF106991061051002501001001MD1810141+9999MW1441
0064103840999991929121918004+52483+013433FM-12+004899999V0202001N00261002401CN0020001N9-00221+99999103711ADDAY111999GF108991081051002501999999KA1999M-00111MD1810141+9999
0064103840999991929122006004+52483+013433FM-12+004899999V0201401N00261220001CN0010001N9-00391+99999103161ADDAY111999GF100991001001999999001001KA1999N-00391MD1810141+9999
0051103840999991929122012004+52483+013433FM-12+004899999V0201101N00671220001CN0040001N9-00111+99999102821ADDAY101999GF100991001001999999001001MD1810261+9999
0064103840999991929122018004+52483+013433FM-12+004899999V0200901N00671007801CN0020001N9-00281+99999102641ADDAY101999GF107991071051008001001001KA1999M-00111MD1810141+9999
0064103840999991929122106004+52483+013433FM-12+004899999V0201101N00261220001CN0020001N9-00391+99999102151ADDAY101999GF100991001001999999001001KA1999N-00501MD1810141+9999
0051103840999991929122112004+52483+013433FM-12+004899999V0201101N00461220001CN0040001N9-00111+99999101831ADDAY101999GF100991001001999999001001MD1610201+9999
0064103840999991929122118004+52483+013433FM-12+004899999V0200901N00671220001CN0020001N9-00281+99999101751ADDAY101999GF100991001001999999001001KA1999M-00111MD1810061+9999
0064103840999991929122206004+52483+013433FM-12+004899999V0201101N00671220001CN0040001N9-00391+99999101431ADDAY101999GF100991001001999999001001KA1999N-00391MD1610061+9999
0064103840999991929122218004+52483+013433FM-12+004899999V0201101N00671220001CN0020001N9-00111+99999101261ADDAY101999GF100991001001999999001001KA1999M+00001MD1210061+9999
0083103840999991929122306004+52483+013433FM-12+004899999V0200901N00461220001CN0010001N9-00391+99999101421ADDAY101999GF102991999001999999011001KA1999N-00391MD1410001+9999EQDQ01+000002SCOTLC
0051103840999991929122312004+52483+013433FM-12+004899999V0200901N00461012301CN0020001N9-00221+99999101371ADDAY111999GF107991071051012501001001MD1610061+9999
0091103840999991929122318004+52483+013433FM-12+004899999V0200901N00931012301CN0040001N9-00281+99999101371ADDAY121999GF108991081051012501001999KA1999M-00221MW1461EQDQ01+000032APCTENQ02+000002APC3  
0064103840999991929122406004+52483+013433FM-12+004899999V0201101N006719999999N0020001N9-00781+99999100781ADDAY111999GF108991041061008001999999KA1999N-00781MD1710141+9999
0057103840999991929122412004+52483+013433FM-12+004899999V0200901N00931012301CN0020001N9-00721+99999100541ADDAY121999GF108991081051012501999999MD1510061+9999MW1701
0075103840999991929122418004+52483+013433FM-12+004899999V0200901N00671012301CN0020001N9-00611+99999100671ADDAA199000691AY121999GF108991081051012501999999KA1999M-00611MD1310141+9999
0096103840999991929122506004+52483+013433FM-12+004899999V0201101N00261007801CN0020001N9-00391+99999101011ADDAA199001091AY171999GF108991081051008001999999KA1999N-00611EQDQ01+000022APCTENQ02+000002APC3  
0075103840999991929122518004+52483+013433FM-12+004899999V0201601N00261004501CN0020001N9+00501+99999100831ADDAA199004091AY161999GF108991081051004501999999KA1999M+00501MD1210141+9999
0102103840999991929122606004+52483+013433FM-12+004899999V0201601N00261004501CN0010001N9+00281+99999101331ADDAA199007091AY161999GF108991081061004501999999KA1999N+00281MW1631EQDQ01+000042APCTENQ02+000062APC3  
0073103840999991929122618004+52483+013433FM-12+004899999V0202001N00101001501CN0005001N9+00391+99999101551ADDAA199000591GF108991081051001501999999KA1999M+00391MD1210141+9999MW1461
0085103840999991929122706004+52483+013433FM-12+004899999V0202301N00261220001CN0005001N9+00281+99999101881ADDAY111999GF102991021051012501001001KA1999N+00281EQDQ01+000042APCTENQ02+000062APC3  
0051103840999991929122712004+52483+013433FM-12+004899999V0202301N00461220001CN0020001N9+00611+99999101921ADDAY101999GF100991001001999999001001MD1810061+9999
0064103840999991929122718004+52483+013433FM-12+004899999V0201401N00261220001CN0010001N9+00221+99999101591ADDAY101999GF100991001001999999001001KA1999M+00611MD1810141+9999
0064103840999991929122806004+52483+013433FM-12+004899999V0201801N002619999999N0010001N9+00281+99999100991ADDAY111999GF108991041061017501011999KA1999N+00111MD1610061+9999
0078103840999991929122812004+52483+013433FM-12+004899999V0202301N00261002401CN0010001N9+00391+99999100991ADDAY121999GF108991081061002501999999MW1611EQDQ01+000032APCTENQ02+000002APC3  
0075103840999991929122818004+52483+013433FM-12+004899999V0202301N00461002401CN0010001N9+00391+99999101191ADDAA199000591AY161999GF108991081051002501999999KA1999M+00391MD1110061+9999
0081103840999991929122906004+52483+013433FM-12+004899999V0201601N00461007801CN0040001N9+00221+99999100791ADDAA199000691AY121999GF107991061061008001011999KA1999N+00111MD1810261+9999MW1601
0081103840999991929122918004+52483+013433FM-12+004899999V0202501N00671004501CN9999999N9+00781+99999100331ADDAA199002091AY161999GF107991071061004501001001KA1999M+01111MD1310401+9999MW1621
0096103840999991929123006004+52483+013433FM-12+004899999V0202701N00671220001CN0020001N9+00611+99999101221ADDAA199000591AY161999GF104991041051012501031999KA1999N+00501EQDQ01+000042APCTENQ02+000142APC3  
0051103840999991929123012004+52483+013433FM-12+004899999V0202301N00671220001CN0040001N9+00781+99999101371ADDAY111999GF104991041011017501001001MD1510001+9999
0064103840999991929123018004+52483+013433FM-12+004899999V0201401N002619999999N0040001N9+00611+99999101221ADDAY111999GF107991021011012501011999KA1999M+00781MD1810201+9999
0075103840999991929123106004+52483+013433FM-12+004899999V0202301N006719999999N0040001N9+00611+99999100421ADDAA199001091AY161999GF107991041061012501999999KA1999N+00611MD1710061+9999
0078103840999991929123112004+52483+013433FM-12+004899999V0202701N009319999999N0020001N9+00611+99999100741ADDAY111999GF108991041061012501999999MW1601EQDQ01+000042APCTENQ02+000202APC3  
0075103840999991929123118004+52483+013433FM-12+004899999V0202701N00671012301CN0040001N9+00501+99999101331ADDAA199000691AY111999GF106991061011012501001001KA1999M+00721MD1310261+9999
