0037104190999991929010206004+51217+007633FM-12+013699999V0209999900461001501CN0005001N9-00501+99999101931ADDAY121061GF108991081051001501999999
0037104190999991929013106004+51217+007633FM-12+013699999V0209999900261220001CN0100001N9-00221+99999102751ADDAY111061GF102991001001999999001081
0037104190999991929020206004+51217+007633FM-12+013699999V0209999901231220001CN0500001N9-00111+99999102351ADDAY101061GF100991001001999999001001
0051104190999991929020306004+51217+007633FM-12+013699999V0209999900261220001CN0500001N9-00891+99999102421ADDAY101061GF100991001001999999001001MD1610061+9999
0037104190999991929020506004+51217+007633FM-12+013699999V0209999900101220001CN0040001N9-00611+99999102441ADDAY101061GF100991001001999999001001
0051104190999991929020906004+51217+007633FM-12+013699999V0209991C00001220001CN0100001N9-00391+99999102531ADDAY101061GF100991001001999999001001MD1810061+9999
0037104190999991929021306004+51217+007633FM-12+013699999V0209999900261220001CN0100001N9-02111+99999102031ADDAY101061GF101991001001999999001081
0037104190999991929021506004+51217+007633FM-12+013699999V0209999900461220001CN0020001N9-01721+99999101331ADDAY141061GF104991999001999999021001
0037104190999991929021606004+51217+007633FM-12+013699999V0209999900261220001CN0020001N9-01611+99999101411ADDAY101061GF100991001001999999001001
0051104190999991929022006004+51217+007633FM-12+013699999V0209999900101220001CN0020001N9-01781+99999103201ADDAY101061GF100991001001999999001001MD1310061+9999
0051104190999991929022206004+51217+007633FM-12+013699999V0209999900261220001CN0100001N9-00281+99999102771ADDAY111061GF102991001001999999001021MD1810201+9999
0051104190999991929022306004+51217+007633FM-12+013699999V0209999900101220001CN0040001N9+00001+99999101391ADDAY111061GF104991999001999999021001MD1810141+9999
0057104190999991929022606004+51217+007633FM-12+013699999V0209999900261000151CN0002001N9-00721+99999101501ADDAY141061GF108991081051000251999999MD1310061+9999MW1451
0057104190999991929022706004+51217+007633FM-12+013699999V0209999900461001501CN0040001N9-01001+99999101681ADDAY121061GF108991081051001501999999MD1810061+9999MW1231
0051104190999991929022806004+51217+007633FM-12+013699999V0209999900101220001CN0100001N9-01501+99999102821ADDAY101061GF100991001001999999001001MD1310261+9999
0037104190999991929030206004+51217+007633FM-12+013699999V0209999900261220001CN0500001N9-00721+99999103931ADDAY101061GF100991001001999999001001
0051104190999991929030306004+51217+007633FM-12+013699999V0209999900101220001CN0200001N9-00611+99999102961ADDAY111061GF106991999001999999021001MD1810061+9999
0057104190999991929030406004+51217+007633FM-12+013699999V0209999900101000151CN0002001N9-00111+99999101671ADDAY141061GF108991081051000251999999MD1410001+9999MW1701
0057104190999991929031506004+51217+007633FM-12+013699999V0209999900261000151CN0000501N9-00221+99999102951ADDAY181061GF108991081051000251999999MD1310061+9999MW1451
0037104190999991929031706004+51217+007633FM-12+013699999V0209999900261220001CN0500001N9+00221+99999102971ADDAY101061GF100991001001999999001001
0037104190999991929031906004+51217+007633FM-12+013699999V0209999900101220001CN0500001N9+00611+99999102461ADDAY101061GF100991001001999999001001
0057104190999991929032406004+51217+007633FM-12+013699999V0209999900101000151CN0000001N9+00111+99999102831ADDAY141061GF108991081051000251999999MD1310201+9999MW1501
0057104190999991929040306004+51217+007633FM-12+013699999V0209999900261004501CN0100001N9-00221+99999101031ADDAY121061GF108991081051004501999999MD1310141+9999MW1231
0057104190999991929040506004+51217+007633FM-12+013699999V0209999900261000151CN0005001N9-00221+99999100481ADDAY141061GF108991081051000251999999MD1810261+9999MW1731
0051104190999991929040606004+51217+007633FM-12+013699999V0209999900261220001CN0040001N9+01611+99999102271ADDAY111061GF106991999001999999021001MD1310201+9999
0051104190999991929040706004+51217+007633FM-12+013699999V0209999900101220001CN0100001N9-00111+99999102261ADDAY101061GF104991001001999999001081MD1810061+9999
0057104190999991929041006004+51217+007633FM-12+013699999V0209999900261004501CN0020001N9+00111+99999101491ADDAY111061GF108991081051004501999999MD1310141+9999MW1501
0051104190999991929041206004+51217+007633FM-12+013699999V0209999900261000601CN0020001N9+00111+99999101791ADDAY121061GF108991081051000751999999MD1010061+9999
0043104190999991929041306004+51217+007633FM-12+013699999V0209999900101000151CN0005001N9+00281+99999101571ADDAY141061GF108991081051000251999999MW1501
0043104190999991929041406004+51217+007633FM-12+013699999V0209999900101002401CN0040001N9+00221+99999101671ADDAY121061GF108991081061002501999999MW1681
0051104190999991929041906004+51217+007633FM-12+013699999V0209999900261220001CN0100001N9+00781+99999102371ADDAY101061GF102991001001999999001021MD1810141+9999
0051104190999991929042006004+51217+007633FM-12+013699999V0209999900101220001CN0040001N9+00781+99999101111ADDAY101061GF104991999001999999031001MD1810061+9999
0037104190999991929042206004+51217+007633FM-12+013699999V0209999900101220001CN0100001N9-00281+99999102061ADDAY101061GF100991001001999999001001
0051104190999991929042306004+51217+007633FM-12+013699999V0209999900101220001CN0200001N9-00111+99999101181ADDAY101061GF102991001001999999001021MD1810061+9999
0037104190999991929042606004+51217+007633FM-12+013699999V0209999900101004501CN0020001N9-00221+99999101571ADDAY111061GF107991071051004501001001
0051104190999991929042706004+51217+007633FM-12+013699999V0209999900461012301CN0040001N9+00281+99999100611ADDAY111061GF107991071051012501001001MD1810201+9999
0051104190999991929042806004+51217+007633FM-12+013699999V0209999900671220001CN0100001N9+00281+99999100231ADDAY111061GF106991999001999999031001MD1310141+9999
0037104190999991929043006004+51217+007633FM-12+013699999V0209999900671220001CN0100001N9+00721+99999099751ADDAY111061GF101991999001999999031001
0051104190999991929050106004+51217+007633FM-12+013699999V0209999900101002401CN0040001N9+00111+99999101221ADDAY111061GF106991061051002501001001MD1310261+9999
0037104190999991929050206004+51217+007633FM-12+013699999V0209999900101220001CN0100001N9+00221+99999101241ADDAY111061GF106991999001999999031001
0051104190999991929050806004+51217+007633FM-12+013699999V0209999900261220001CN0200001N9+00891+99999101571ADDAY101061GF100991001001999999001001MD1310061+9999
0051104190999991929051006004+51217+007633FM-12+013699999V0209999900101220001CN0040001N9+00501+99999102311ADDAY141061GF100991001001999999001001MD1310061+9999
0051104190999991929051306004+51217+007633FM-12+013699999V0209999900101004501CN0040001N9+00781+99999101701ADDAY121061GF108991081051004501999999MD1310061+9999
0037104190999991929051506004+51217+007633FM-12+013699999V0209999900101220001CN0100001N9+00611+99999101601ADDAY111061GF104991999001999999021001
0043104190999991929051706004+51217+007633FM-12+013699999V0209999900101000151CN0002001N9+00391+99999102101ADDAY141061GF108991081051000251999999MW1451
0043104190999991929051806004+51217+007633FM-12+013699999V0209999900461000151CN0002001N9+00721+99999101941ADDAY141061GF108991081061000251999999MW1611
0037104190999991929052606004+51217+007633FM-12+013699999V0209999900101220001CN0100001N9+02111+99999101601ADDAY101061GF100991001001999999001001
0057104190999991929052906004+51217+007633FM-12+013699999V0209999900101000151CN0000501N9+01111+99999101981ADDAY141061GF108991081051000251999999MD1310061+9999MW1451
0051104190999991929053006004+51217+007633FM-12+013699999V0209999900261001501CN0020001N9+01001+99999102341ADDAY121061GF108991081051001501999999MD1310061+9999
0051104190999991929060106004+51217+007633FM-12+013699999V0209999900261004501CN0100001N9+00611+99999102231ADDAY121061GF108991081051004501999999MD1310141+9999
0037104190999991929060206004+51217+007633FM-12+013699999V0209999900261220001CN0100001N9+01001+99999102081ADDAY111061GF106991999001999999021001
0057104190999991929060906004+51217+007633FM-12+013699999V0209999900261002401CN0040001N9+01111+99999101461ADDAY121061GF108991081051002501999999MD1310261+9999MW1211
0051104190999991929061206004+51217+007633FM-12+013699999V0209999900101220001CN0100001N9+01281+99999102161ADDAY101061GF102991001001999999001081MD1810141+9999
0051104190999991929061406004+51217+007633FM-12+013699999V0209999900261220001CN0100001N9+01391+99999101941ADDAY101061GF104991041011004501001021MD1810141+9999
0051104190999991929061506004+51217+007633FM-12+013699999V0209999900461004501CN0200001N9+01221+99999101831ADDAY111061GF106991061051004501001001MD1310141+9999
0037104190999991929061606004+51217+007633FM-12+013699999V0209999900261220001CN0200001N9+01391+99999102101ADDAY111061GF106991001001999999021081
0037104190999991929062006004+51217+007633FM-12+013699999V0209999900101220001CN0040001N9+01891+99999102191ADDAY101061GF100991001001999999001001
0051104190999991929062106004+51217+007633FM-12+013699999V0209999900261220001CN0100001N9+01001+99999102591ADDAY101061GF104991041051004501001001MD1310141+9999
0051104190999991929062406004+51217+007633FM-12+013699999V0209999900261001501CN0020001N9+00721+99999101181ADDAY121061GF108991081051001501999999MD1810201+9999
0043104190999991929062506004+51217+007633FM-12+013699999V0209999901231004501CN0020001N9+00611+99999100831ADDAY121061GF108991081061004501999999MW1621
0043104190999991929062606004+51217+007633FM-12+013699999V0209999900261000601CN0020001N9+00781+99999101571ADDAY121061GF108991081061000751999999MW1431
0037104190999991929062806004+51217+007633FM-12+013699999V0209999900101220001CN0020001N9+01001+99999102101ADDAY111061GF102991001001999999001021
0057104190999991929080206004+51217+007633FM-12+013699999V0209999900461001501CN0100001N9+01111+99999100951ADDAY111061GF107991071061001501001001MD1310201+9999MW1211
0057104190999991929080806004+51217+007633FM-12+013699999V0209999900101000151CN0002001N9+01391+99999101271ADDAY141061GF108991081051000251999999MD1210061+9999MW1511
0057104190999991929080906004+51217+007633FM-12+013699999V0209999900101000151CN0005001N9+01221+99999101731ADDAY141061GF108991081051000251999999MD1310061+9999MW1501
0051104190999991929081006004+51217+007633FM-12+013699999V0209999900101220001CN0040001N9+01281+99999101831ADDAY111061GF104991001001999999001081MD1210061+9999
0037104190999991929081106004+51217+007633FM-12+013699999V0209999900261220001CN0100001N9+01391+99999102161ADDAY101061GF100991001001999999001001
0037104190999991929081406004+51217+007633FM-12+013699999V0209999900461220001CN0100001N9+01611+99999101991ADDAY101061GF101991001001999999001021
0043104190999991929081506004+51217+007633FM-12+013699999V0209999900461000601CN0002001N9+01221+99999101931ADDAY141061GF108991081051000751999999MW1441
0037104190999991929081606004+51217+007633FM-12+013699999V0209999900261220001CN0200001N9+01781+99999101571ADDAY101061GF100991001001999999001001
0051104190999991929081806004+51217+007633FM-12+013699999V0209999900261002401CN0200001N9+01391+99999101661ADDAY111061GF108991081051002501999999MD1310061+9999
0037104190999991929082006004+51217+007633FM-12+013699999V0209991C00001220001CN0200001N9+01111+99999102021ADDAY101061GF104991021011004501001081
0051104190999991929082206004+51217+007633FM-12+013699999V0209999900261012301CN0200001N9+01611+99999102021ADDAY111061GF107991071051012501001001MD1810061+9999
0057104190999991929082606004+51217+007633FM-12+013699999V0209999900461000151CN0000501N9+00891+99999102481ADDAY141061GF108991081051000251999999MD1310061+9999MW1451
0037104190999991929082806004+51217+007633FM-12+013699999V0209999900101220001CN0100001N9+02111+99999101281ADDAY111061GF104991999001999999031001
0051104190999991929082906004+51217+007633FM-12+013699999V0209999900101220001CN0100001N9+01501+99999102081ADDAY101061GF104991001001999999031081MD1310061+9999
0037104190999991929083006004+51217+007633FM-12+013699999V0209991C00001220001CN0100001N9+01611+99999101991ADDAY181061GF102991001001999999001021
0037104190999991929083106004+51217+007633FM-12+013699999V0209999900101220001CN0200001N9+02001+99999101631ADDAY101061GF100991001001999999001001
0037104190999991929090106004+51217+007633FM-12+013699999V0209991C00001220001CN0200001N9+02221+99999101511ADDAY101061GF102991001001999999001021
0037104190999991929090306004+51217+007633FM-12+013699999V0209999900261220001CN0200001N9+01721+99999102041ADDAY101061GF100991001001999999001001
0037104190999991929090406004+51217+007633FM-12+013699999V0209999900261220001CN0100001N9+01781+99999101531ADDAY101061GF102991001001999999001021
0043104190999991929090506004+51217+007633FM-12+013699999V0209999900101220001CN0200001N9+01781+99999101671ADDAY111061GF104991021051008001031001MW1291
0051104190999991929090706004+51217+007633FM-12+013699999V0209999900461004501CN0040001N9+00891+99999102271ADDAY111061GF107991071051004501001001MD1310141+9999
0043104190999991929090806004+51217+007633FM-12+013699999V0209999900461000151CN0000501N9+01221+99999102571ADDAY141061GF108991081051000251999999MW1451
0051104190999991929090906004+51217+007633FM-12+013699999V0209991C00001220001CN0100001N9+01501+99999101771ADDAY101061GF100991001001999999001001MD1810141+9999
0051104190999991929091006004+51217+007633FM-12+013699999V0209999900101004501CN0020001N9+01281+99999101931ADDAY141061GF107991071051004501001001MD1310141+9999
0037104190999991929091206004+51217+007633FM-12+013699999V0209999900461220001CN0500001N9+01501+99999102041ADDAY101061GF101991001001999999001081
0037104190999991929091306004+51217+007633FM-12+013699999V0209999900261007801CN0200001N9+01781+99999101721ADDAY111061GF106991061061008001001001
0057104190999991929091406004+51217+007633FM-12+013699999V0209999900261000151CN0002001N9+01611+99999101681ADDAY141061GF108991081051000251999999MD1310061+9999MW1451
0051104190999991929091506004+51217+007633FM-12+013699999V0209999900461002401CN0020001N9+01501+99999102041ADDAY141061GF108991081051002501999999MD1310061+9999
0043104190999991929091606004+51217+007633FM-12+013699999V0209999900261220001CN0040001N9+01721+99999102131ADDAY141061GF100991001001999999001001MW1441
0051104190999991929091706004+51217+007633FM-12+013699999V0209999900261220001CN0200001N9+01391+99999102001ADDAY101061GF102991001001999999001081MD1510061+9999
0051104190999991929091806004+51217+007633FM-12+013699999V0209999900461220001CN0200001N9+01501+99999101351ADDAY101061GF104991021051008001001081MD1810141+9999
0037104190999991929091906004+51217+007633FM-12+013699999V0209999900261001501CN0040001N9+01501+99999101101ADDAY141061GF108991081051001501999999
0051104190999991929092006004+51217+007633FM-12+013699999V0209999901231007801CN0200001N9+01221+99999100901ADDAY111061GF107991071051008001001001MD1810141+9999
0057104190999991929092106004+51217+007633FM-12+013699999V0209999900461001501CN0020001N9+00611+99999101321ADDAY141061GF108991081051001501999999MD1310141+9999MW1211
0051104190999991929092206004+51217+007633FM-12+013699999V0209999900671220001CN0100001N9+00891+99999101661ADDAY111061GF104991041051004501001091MD1310201+9999
0043104190999991929092306004+51217+007633FM-12+013699999V0209999900101001501CN0010001N9+01111+99999102341ADDAY121061GF108991081061001501999999MW1501
0057104190999991929092406004+51217+007633FM-12+013699999V0209999900461004501CN0005001N9+01111+99999102771ADDAY141061GF106991061051004501001001MD1310061+9999MW1441
0037104190999991929092506004+51217+007633FM-12+013699999V0209999900461220001CN0500001N9+00611+99999103401ADDAY101061GF100991001001999999001001
0051104190999991929092606004+51217+007633FM-12+013699999V0209999900261220001CN0200001N9+00891+99999103551ADDAY101061GF100991001001999999001001MD1410001+9999
0051104190999991929092706004+51217+007633FM-12+013699999V0209999900101220001CN0500001N9+01001+99999102881ADDAY101061GF102991001001999999001081MD1810141+9999
0037104190999991929092806004+51217+007633FM-12+013699999V0209999900261220001CN0200001N9+01281+99999102471ADDAY101061GF101991001001999999001081
0037104190999991929092906004+51217+007633FM-12+013699999V0209999900261220001CN0200001N9+01111+99999102151ADDAY101061GF104991001001999999001081
0057104190999991929100106004+51217+007633FM-12+013699999V0209999900931002401CN0040001N9+01281+99999101231ADDAY161061GF108991081061002501999999MD1810201+9999MW1631
0051104190999991929100206004+51217+007633FM-12+013699999V0209999901231030001CN0200001N9+01221+99999100731ADDAY101061GF106991011051000751021001MD1810141+9999
0057104190999991929100306004+51217+007633FM-12+013699999V0209999900461000601CN0010001N9+01001+99999100701ADDAY161061GF108991081061000751999999MD1810141+9999MW1631
0057104190999991929100406004+51217+007633FM-12+013699999V0209999900671000151CN0005001N9+01001+99999100921ADDAY141061GF108991081061000251999999MD1310061+9999MW1651
0057104190999991929100506004+51217+007633FM-12+013699999V0209999900261000151CN0002001N9+00781+99999100901ADDAY141061GF108991081051000251999999MD1310141+9999MW1501
0057104190999991929100606004+51217+007633FM-12+013699999V0209999901231002401CN0200001N9+01111+99999100231ADDAY121061GF108991081051002501999999MD1810141+9999MW1211
0051104190999991929100706004+51217+007633FM-12+013699999V0209999900461220001CN0100001N9+00611+99999101231ADDAY111061GF104991021051004501001081MD1310201+9999
0051104190999991929100806004+51217+007633FM-12+013699999V0209999900671220001CN0200001N9+00781+99999101001ADDAY181061GF106991001001999999001081MD1810141+9999
0057104190999991929100906004+51217+007633FM-12+013699999V0209999901541001501CN0100001N9+00781+99999100351ADDAY121061GF108991081051001501999999MD1310261+9999MW1211
0057104190999991929101006004+51217+007633FM-12+013699999V0209999900461001501CN0020001N9+00501+99999102131ADDAY141061GF108991081051001501999999MD1310201+9999MW1211
0057104190999991929101106004+51217+007633FM-12+013699999V0209999901231000151CN0002001N9+00781+99999102111ADDAY141061GF108991081051000251999999MD1810061+9999MW1511
0037104190999991929101206004+51217+007633FM-12+013699999V0209999900261004501CN0100001N9+00781+99999102441ADDAY141061GF107991999051004501001001
0037104190999991929101306004+51217+007633FM-12+013699999V0209999900261002401CN0020001N9+00891+99999102821ADDAY141061GF108991081051002501999999
0037104190999991929101406004+51217+007633FM-12+013699999V0209999900261004501CN0040001N9+01001+99999102961ADDAY111061GF107991071051004501001001
0037104190999991929101506004+51217+007633FM-12+013699999V0209999900101001501CN0040001N9+01001+99999102921ADDAY141061GF107991071051001501001001
0051104190999991929101606004+51217+007633FM-12+013699999V0209999900461220001CN0100001N9+00891+99999102291ADDAY101061GF102991001001999999001081MD1810141+9999
0037104190999991929101706004+51217+007633FM-12+013699999V0209999900671001501CN0040001N9+01001+99999101761ADDAY111061GF107991071051001501001001
0051104190999991929101806004+51217+007633FM-12+013699999V0209999900101004501CN0100001N9+01111+99999101461ADDAY121061GF108991081051004501999999MD1810141+9999
0057104190999991929101906004+51217+007633FM-12+013699999V0209999900461000151CN0005001N9+00721+99999100611ADDAY141061GF108991081051000251999999MD1810061+9999MW1451
0043104190999991929102006004+51217+007633FM-12+013699999V0209991C00001000151CN0002001N9+00501+99999100671ADDAY141061GF108991081051000251999999MW1451
0051104190999991929102106004+51217+007633FM-12+013699999V0209999900461220001CN0040001N9+00391+99999100771ADDAY101061GF104991999001999999031001MD1310141+9999
0037104190999991929102206004+51217+007633FM-12+013699999V0209999900261220001CN0200001N9+00281+99999101171ADDAY111061GF104991041051002501031001
0037104190999991929102306004+51217+007633FM-12+013699999V0209999900261220001CN0040001N9+00391+99999100971ADDAY141061GF100991001001999999001001
0051104190999991929102406004+51217+007633FM-12+013699999V0209999900671220001CN0200001N9+00721+99999100701ADDAY111061GF107991999001999999031001MD1810141+9999
0057104190999991929102506004+51217+007633FM-12+013699999V0209999900931000601CN0020001N9+00721+99999099761ADDAY161061GF108991081061000751999999MD1310061+9999MW1511
0051104190999991929102606004+51217+007633FM-12+013699999V0209999900461004501CN0100001N9+00391+99999100311ADDAY111061GF106991061051004501001001MD1310061+9999
0057104190999991929102706004+51217+007633FM-12+013699999V0209999900461000151CN0005001N9+00221+99999100691ADDAY141061GF108991081051000251999999MD1310061+9999MW1471
0057104190999991929102806004+51217+007633FM-12+013699999V0209999900261000151CN0005001N9+00221+99999100801ADDAY141061GF108991081051000251999999MD1310141+9999MW1451
0057104190999991929102906004+51217+007633FM-12+013699999V0209999901231001501CN0002001N9+00391+99999101111ADDAY161061GF108991081061001501999999MD1810401+9999MW1601
0051104190999991929103006004+51217+007633FM-12+013699999V0209999900931001501CN0040001N9+00611+99999100131ADDAY121061GF108991081051001501999999MD1310141+9999
0057104190999991929103106004+51217+007633FM-12+013699999V0209999900671000601CN0020001N9+00501+99999101891ADDAY141061GF108991081061000751999999MD1310261+9999MW1511
0043104190999991929110206004+51217+007633FM-12+013699999V0209999900461000601CN0010001N9+00391+99999102611ADDAY141061GF108991081051000751999999MW1101
0057104190999991929110306004+51217+007633FM-12+013699999V0209999900261000151CN0005001N9+00221+99999102151ADDAY141061GF108991081051000251999999MD1510001+9999MW1451
0057104190999991929110406004+51217+007633FM-12+013699999V0209999900261000151CN0000501N9+02281+99999103031ADDAY141061GF108991081051000251999999MD1310201+9999MW1451
0037104190999991929110506004+51217+007633FM-12+013699999V0209999900261220001CN0100001N9+00001+99999102831ADDAY101061GF104991999001999999021001
0051104190999991929110606004+51217+007633FM-12+013699999V0209999900461220001CN0100001N9+00001+99999101411ADDAY101061GF102991021051002501001001MD1810201+9999
0057104190999991929110706004+51217+007633FM-12+013699999V0209999900461000151CN0005001N9+00281+99999101221ADDAY141061GF108991081051000251999999MD1310061+9999MW1451
0051104190999991929110806004+51217+007633FM-12+013699999V0209999900671000601CN0020001N9+00221+99999101491ADDAY141061GF108991081051000751999999MD1810141+9999
0051104190999991929110906004+51217+007633FM-12+013699999V0209999900261000601CN0020001N9+00611+99999101391ADDAY141061GF108991081051000751999999MD1310201+9999
0051104190999991929111006004+51217+007633FM-12+013699999V0209999900101220001CN0100001N9+00391+99999101721ADDAY101061GF104991999001999999021001MD1810141+9999
0057104190999991929111106004+51217+007633FM-12+013699999V0209999900461220001CN0020001N9+00281+99999102161ADDAY141061GF104991041051000251001001MD1310201+9999MW1421
0057104190999991929111206004+51217+007633FM-12+013699999V0209999902261001501CN0200001N9+00501+99999099571ADDAY121061GF108991081051001501999999MD1610341+9999MW1211
0051104190999991929111306004+51217+007633FM-12+013699999V0209999900461004501CN0100001N9+00001+99999100301ADDAY111061GF106991061051004501001001MD1810061+9999
0037104190999991929111406004+51217+007633FM-12+013699999V0209999900261030001CN0040001N9+00221+99999099801ADDAY111061GF107991021051002501021001
0057104190999991929111506004+51217+007633FM-12+013699999V0209999900461000151CN0000501N9+00001+99999100121ADDAY141061GF108991081051000251999999MD1310061+9999MW1451
0057104190999991929111706004+51217+007633FM-12+013699999V0209999900261000151CN0000501N9+00281+99999099701ADDAY141061GF108991081051000251999999MD1310261+9999MW1451
0057104190999991929111806004+51217+007633FM-12+013699999V0209999900671000151CN0000001N9+00221+99999101301ADDAY171061GF108991081051000251999999MD1310201+9999MW1601
0051104190999991929111906004+51217+007633FM-12+013699999V0209999900671220001CN0000501N9+00001+99999102061ADDAY111061GF106991999001999999031001MD1810061+9999
0037104190999991929112206004+51217+007633FM-12+013699999V0209999900101220001CN0500001N9+00721+99999101491ADDAY101061GF100991001001999999001001
0051104190999991929112306004+51217+007633FM-12+013699999V0209999901231220001CN0200001N9+00721+99999101181ADDAY111061GF106991999001999999021001MD1310061+9999
0043104190999991929112406004+51217+007633FM-12+013699999V0209999901231000601CN0040001N9+00721+99999101101ADDAY161061GF108991081061000751999999MW1631
0057104190999991929112506004+51217+007633FM-12+013699999V0209999900931030001CN0100001N9+00501+99999101621ADDAY121061GF108991021061004501021001MD1810141+9999MW1601
0051104190999991929112706004+51217+007633FM-12+013699999V0209999901231002401CN0100001N9+00391+99999101621ADDAY121061GF108991081051002501999999MD1310141+9999
0051104190999991929112806004+51217+007633FM-12+013699999V0209999900671220001CN0100001N9+00391+99999101471ADDAY111061GF107991001001999999001081MD1810201+9999
0051104190999991929112906004+51217+007633FM-12+013699999V0209999900671001501CN0100001N9+00891+99999100601ADDAY111061GF107991071051001501001001MD1310061+9999
0051104190999991929113006004+51217+007633FM-12+013699999V0209999900671220001CN0100001N9+00781+99999100261ADDAY101061GF104991041051002501001001MD1810141+9999
0043104190999991929120106004+51217+007633FM-12+013699999V0209999900461001501CN0040001N9+00781+99999099661ADDAY121061GF108991081051001501999999MW1211
0057104190999991929120206004+51217+007633FM-12+013699999V0209999900931000601CN0010001N9+00611+99999100771ADDAY141061GF108991081061000751999999MD1310201+9999MW1101
0057104190999991929120306004+51217+007633FM-12+013699999V0209999900461000601CN0010001N9+00611+99999100831ADDAY141061GF108991081051000751999999MD1310201+9999MW1211
0051104190999991929120406004+51217+007633FM-12+013699999V0209999900261002401CN0100001N9+00891+99999100901ADDAY111061GF107991071051002501001001MD1810061+9999
0037104190999991929120506004+51217+007633FM-12+013699999V0209999900671220001CN0200001N9+00611+99999101101ADDAY141061GF102991021051002501001001
0051104190999991929120606004+51217+007633FM-12+013699999V0209999900931220001CN0100001N9+00611+99999100201ADDAY111061GF106991001001999999031081MD1310201+9999
0051104190999991929120706004+51217+007633FM-12+013699999V0209999901901002401CN0100001N9+00391+99999099401ADDAY121061GF108991081051002501999999MD1810061+9999
0037104190999991929120806004+51217+007633FM-12+013699999V0209999901541220001CN0200001N9+00221+99999101241ADDAY101061GF104991001001999999001081
0057104190999991929120906004+51217+007633FM-12+013699999V0209999901541001501CN0100001N9+00221+99999101151ADDAY121061GF108991081061001501999999MD1310261+9999MW1621
0057104190999991929121006004+51217+007633FM-12+013699999V0209999901541002401CN0100001N9+00391+99999100151ADDAY121061GF108991081051002501999999MD1310141+9999MW1211
0057104190999991929121106004+51217+007633FM-12+013699999V0209999900931000601CN0040001N9+00221+99999100471ADDAY121061GF108991081061000751999999MD1810401+9999MW1611
0051104190999991929121206004+51217+007633FM-12+013699999V0209999901901002401CN0100001N9+00721+99999100771ADDAY121061GF108991081051002501999999MD1010201+9999
0051104190999991929121306004+51217+007633FM-12+013699999V0209999900671002401CN0040001N9+00391+99999102441ADDAY121061GF108991081051002501999999MD1310141+9999
0057104190999991929121406004+51217+007633FM-12+013699999V0209999900671000151CN0002001N9+00721+99999102661ADDAY141061GF108991081051000251999999MD1810061+9999MW1511
0043104190999991929121506004+51217+007633FM-12+013699999V0209999900931000151CN0005001N9+00721+99999102431ADDAY141061GF108991081051000251999999MW1621
0043104190999991929121606004+51217+007633FM-12+013699999V0209999900261000151CN0005001N9+00221+99999102971ADDAY141061GF108991081051000251999999MW1451
0043104190999991929121706004+51217+007633FM-12+013699999V0209999900261000601CN0020001N9+00221+99999103241ADDAY141061GF108991081051000751999999MW1451
0051104190999991929121806004+51217+007633FM-12+013699999V0209999900101220001CN0040001N9-00281+99999103891ADDAY111061GF102991001001999999001081MD1310061+9999
0051104190999991929121906004+51217+007633FM-12+013699999V0209999900101220001CN0100001N9-00611+99999104001ADDAY101061GF101991999001999999021001MD1810061+9999
0051104190999991929122006004+51217+007633FM-12+013699999V0209999900461220001CN0100001N9-00721+99999102611ADDAY101061GF100991001001999999001001MD1810141+9999
0051104190999991929122106004+51217+007633FM-12+013699999V0209999901231220001CN0100001N9-00721+99999101271ADDAY101061GF100991001001999999001001MD1810201+9999
0051104190999991929122306004+51217+007633FM-12+013699999V0209999900671220001CN0100001N9-00111+99999100531ADDAY101061GF104991999001999999031001MD1310061+9999
0057104190999991929122406004+51217+007633FM-12+013699999V0209999900261000601CN0010001N9-00281+99999099391ADDAY171061GF108991081061000751999999MD1810201+9999MW1711
0057104190999991929122506004+51217+007633FM-12+013699999V0209999901231000601CN0040001N9+00281+99999100131ADDAY161061GF108991081061000751999999MD1810341+9999MW1531
0043104190999991929122606004+51217+007633FM-12+013699999V0209999900671001501CN0040001N9+00281+99999100951ADDAY121061GF108991081051001501999999MW1211
0037104190999991929122706004+51217+007633FM-12+013699999V0209999900461220001CN0040001N9+00001+99999101771ADDAY101061GF104991041051002501001001
0051104190999991929122806004+51217+007633FM-12+013699999V0209999900461001501CN0100001N9+00221+99999100921ADDAY121061GF108991081051001501999999MD1310061+9999
0057104190999991929122906004+51217+007633FM-12+013699999V0209999900671001501CN0100001N9+00721+99999100131ADDAY121061GF108991081061001501999999MD1810141+9999MW1211
0051104190999991929123006004+51217+007633FM-12+013699999V0209999900931002401CN0100001N9+00281+99999101591ADDAY111061GF107991071051002501001001MD1310141+9999
