0061104190999991927090606004+51217+007633FM-12+013699999V0209991C00001000601CN0010001N9+01391+99999101701ADDAA199007091AY141061GF107991061051000751021001KA1999N+01281
0075104190999991927090806004+51217+007633FM-12+013699999V0209991C00001000151CN0010001N9+01281+99999101811ADDAA199023091AY141061GF108991081051000251999999KA1999N+01111MD1310141+9999
0057104190999991927091406004+51217+007633FM-12+013699999V0209999900461002401CN0040001N9+00781+99999101261ADDAY161061GF108991081061002501999999MD1810201+9999MW1631
0075104190999991927092006004+51217+007633FM-12+013699999V0209999900671000601CN0020001N9+01111+99999100931ADDAA199000691AY121061GF108991081061000751999999KA1999N+00721MD1310141+9999
0057104190999991927092106004+51217+007633FM-12+013699999V0209999900261000151CN0010001N9+01281+99999101141ADDAY141061GF108991081051000251999999MD1810141+9999MW1501
0051104190999991927092306004+51217+007633FM-12+013699999V0209999900461002401CN0100001N9+01001+99999100101ADDAY111061GF108991081061002501999999MD1010061+9999
0081104190999991927092606004+51217+007633FM-12+013699999V0209999900671002401CN0500001N9+00781+99999100341ADDAA199002091AY121061GF108991081061002501999999KA1999N+00721MD1310061+9999MW1211
0075104190999991927092806004+51217+007633FM-12+013699999V0209999900101220001CN0040001N9+00501+99999102431ADDAA199000391AY101061GF100991001001999999001001KA1999N+00391MD1310061+9999
0081104190999991927093006004+51217+007633FM-12+013699999V0209999900261004501CN0040001N9+00781+99999101141ADDAA199000391AY121061GF108991081061004501999999KA1999N+00611MD1610061+9999MW1601
0061104190999991927100106004+51217+007633FM-12+013699999V0209999900261220001CN0100001N9+00501+99999102131ADDAA199003091AY101061GF102991999001999999031001KA1999N+00501
0075104190999991927100306004+51217+007633FM-12+013699999V0209999900261002401CN0040001N9+00721+99999101951ADDAA199008091AY111061GF107991071061002501001001KA1999N+00611MD1310261+9999
0042104190999991927100406004+51217+007633FM-12+013699999V0209999900261220001CN0005001N9+00221+99999102881ADDGF104991001001999999031021KA1999N+00001
0061104190999991927100506004+51217+007633FM-12+013699999V02099999002619999999N0040001N9+00391+99999102751ADDAA199000691AY141061GF106991999001000751021001KA1999N+00281
0067104190999991927100606004+51217+007633FM-12+013699999V0209999900261000151CN0010001N9+00391+99999102931ADDAA199000691AY141061GF108991081061000251999999KA1999N+00221MW1501
0050104190999991927101006004+51217+007633FM-12+013699999V0209999900101220001CN0100001N9+00391+99999103311ADDAY101061GF100991001001999999001001KA1999N+00111
0043104190999991927101506004+51217+007633FM-12+013699999V0209991C00001000151CN0002001N9+00721+99999101581ADDAY141061GF108991081051000251999999MW1451
0043104190999991927101906004+51217+007633FM-12+013699999V0209999900931001501CN0040001N9+00891+99999101061ADDAY121061GF108991081051001501999999MW1211
0081104190999991927102006004+51217+007633FM-12+013699999V0209999900461000151CN0002001N9+00721+99999101411ADDAA199037091AY141061GF108991081051000251999999KA1999N-01721MD1310061+9999MW1451
0067104190999991927102106004+51217+007633FM-12+013699999V0209999900101007801CN0040001N9+00501+99999102061ADDAA199000691AY121061GF108991081061008001999999KA1999N+00391MW1211
0075104190999991927102206004+51217+007633FM-12+013699999V0209991C00001007801CN0040001N9+00501+99999101411ADDAA199002091AY121061GF108991081051008001999999KA1999N+00281MD1810261+9999
0050104190999991927102706004+51217+007633FM-12+013699999V0209999900461012301CN0100001N9+01221+99999101711ADDAY121061GF108991081051012501999999KA1999N+01001
0067104190999991927102806004+51217+007633FM-12+013699999V0209999900461000151CN0005001N9+01111+99999101751ADDAA199000391AY141061GF108991081061000251999999KA1999N+01001MW1511
0037104190999991927103106004+51217+007633FM-12+013699999V0209991C00001220001CN0000001N9+01001+99999101581ADDAY111061GF101991999051002501999999
0081104190999991927110106004+51217+007633FM-12+013699999V0209999900461001501CN0005001N9+00781+99999102711ADDAA199004091AY141061GF106991061061001501001001KA1999N+00611MD1310261+9999MW1441
0075104190999991927110706004+51217+007633FM-12+013699999V0209999900261220001CN0100001N9-01111+99999099751ADDAA199042091AY181061GF104991999051000751999999KA1999N-01221MD1810201+9999
0094104190999991927110806004+51217+007633FM-12+013699999V0209999900261004501CN0040001N9+00391+99999100381ADDAA199000591AY121061GF108991081051004501999999KA1999N+99999MD1210141+9999EQDQ01 +00502ATMN  
0075104190999991927111106004+51217+007633FM-12+013699999V0209999900101000601CN0010001N9-00111+99999100031ADDAA199000691AY141061GF108991081051000751999999KA1999N-00111MD1310061+9999
0081104190999991927112106004+51217+007633FM-12+013699999V0209999900671002401CN0020001N9-00221+99999100961ADDAA199002091AY141061GF108991081061002501999999KA1999N-00221MD1310061+9999MW1681
0075104190999991927112606004+51217+007633FM-12+013699999V0209999900101220001CN0040001N9+00221+99999103861ADDAA199000691AY101061GF100991001001999999001001KA1999N+00221MD1310061+9999
0067104190999991927112806004+51217+007633FM-12+013699999V0209999900101000151CN0000501N9+00111+99999102701ADDAA199000691AY141061GF108991081051000251999999KA1999N-00221MW1471
0100104190999991927112906004+51217+007633FM-12+013699999V0209999900101000601CN0005001N9-00111+99999102691ADDAA199000691AY141061GF108991081051000751999999KA1999N+99999MD1710061+9999MW1431EQDQ01 +00002ATMN  
0075104190999991927113006004+51217+007633FM-12+013699999V0209999900101000601CN0005001N9-00391+99999102921ADDAY141061GF108991081051000751999999KA1999N+99999MW1451EQDQ01 -00222ATMN  
0070104190999991927120306004+51217+007633FM-12+013699999V0209999900101000601CN0005001N9-00221+99999102421ADDAY141061GF108991081051000751999999KA1999N-00281MD1990061+9999MW1431
0081104190999991927120506004+51217+007633FM-12+013699999V0209999900261000151CN0020001N9+00001+99999101461ADDAA199000591AY141061GF108991081051000251999999KA1999N-00391MD1310061+9999MW1231
0037104190999991927120606004+51217+007633FM-12+013699999V0209999900671220001CN0100001N9+00721+99999101281ADDAY101061GF100991001001999999001001
0050104190999991927120706004+51217+007633FM-12+013699999V0209999900461220001CN0100001N9+00391+99999100921ADDAY121061GF108991999001999999021001KA1999N+00221
0067104190999991927120906004+51217+007633FM-12+013699999V0209999900101000151CN0010001N9+00001+99999101361ADDAA199000691AY141061GF108991081051000251999999KA1999N-00221MW1501
0051104190999991927121206004+51217+007633FM-12+013699999V0209999900101220001CN0100001N9-00391+99999100661ADDAY101061GF100991001001999999001001MD1810141+9999
0067104190999991927121306004+51217+007633FM-12+013699999V0209991C00001000151CN0002001N9-00611+99999101011ADDAA199000691AY141061GF108991081051000251999999KA1999N-00891MW1451
0056104190999991927121506004+51217+007633FM-12+013699999V0209999900101220001CN0020001N9-00281+99999100991ADDAY141061GF108991999001999999021001KA1999N-00391MW1701
0051104190999991927123006004+51217+007633FM-12+013699999V0209999900101220001CN0100001N9-00391+99999102441ADDAY101061GF101991001001999999001021MD1810141+9999
