0064104190999991928010206004+51217+007633FM-12+013699999V0209999900461220001CN0100001N9-00721+99999102931ADDAY101061GF100991001001999999001001KA1999N-00781MD1810201+9999
0056104190999991928010406004+51217+007633FM-12+013699999V0209999900261000151CN0000501N9-00221+99999102191ADDAY141061GF108991081051000251999999KA1999N-00501MW1471
0081104190999991928010506004+51217+007633FM-12+013699999V0209999900671001501CN0005001N9+00221+99999100951ADDAA199008091AY141061GF108991081061001501999999KA1999N-00221MD1810141+9999MW1211
0081104190999991928010706004+51217+007633FM-12+013699999V0209999901231000151CN0020001N9+00001+99999101581ADDAA199001091AY171061GF108991081061000251999999KA1999N-00111MD1810201+9999MW1711
0075104190999991928011106004+51217+007633FM-12+013699999V0209999900261001501CN0020001N9+00391+99999101431ADDAA199005091AY121061GF108991081051001501999999KA1999N+00281MD1310061+9999
0081104190999991928011306004+51217+007633FM-12+013699999V0209999900671000601CN0010001N9+00111+99999100971ADDAA199005091AY141061GF108991081051000751999999KA1999N+00001MD1810201+9999MW1611
0081104190999991928011406004+51217+007633FM-12+013699999V0209999900461000601CN0010001N9+00221+99999101001ADDAA199011091AY141061GF108991081051000751999999KA1999N+00221MD1210061+9999MW1101
0075104190999991928012406004+51217+007633FM-12+013699999V0209999900461002401CN0100001N9+00111+99999102131ADDAA199000691AY121061GF108991081051002501999999KA1999N-00111MD1810141+9999
0075104190999991928012606004+51217+007633FM-12+013699999V0209999900671220001CN0100001N9+00111+99999102661ADDAA199000691AY111061GF104991999001999999021001KA1999N-00111MD1810061+9999
0064104190999991928012806004+51217+007633FM-12+013699999V0209999900261220001CN0100001N9+00001+99999102441ADDAY121061GF108991999001999999021001KA1999N-00111MD1310061+9999
0064104190999991928013006004+51217+007633FM-12+013699999V0209999900101220001CN0100001N9+00391+99999100801ADDAY101061GF100991001001999999001001KA1999N+00221MD1810141+9999
0057104190999991928020106004+51217+007633FM-12+013699999V0209999900671001501CN0010001N9+00111+99999101061ADDAY141061GF108991081061001501999999MD1810201+9999MW1681
0064104190999991928020306004+51217+007633FM-12+013699999V0209999900461220001CN0100001N9-00111+99999101191ADDAY111061GF104991999001999999031001KA1999N-00111MD1810261+9999
0070104190999991928020706004+51217+007633FM-12+013699999V0209999900261000151CN0000501N9+00001+99999103511ADDAY141061GF108991081051000251999999KA1999N-00111MD1310141+9999MW1451
0075104190999991928021006004+51217+007633FM-12+013699999V02099999002619999999N0010001N9+00221+99999101951ADDAA199000391AY141061GF108991999999000751001001KA1999N+00111MD1810201+9999
0067104190999991928021606004+51217+007633FM-12+013699999V0209999900931000151CN0010001N9+00391+99999101891ADDAA199005091AY141061GF108991081061000251999999KA1999N+00111MW1531
0051104190999991928021706004+51217+007633FM-12+013699999V0209999901231002401CN0100001N9+00281+99999100991ADDAY121061GF108991081061002501999999MD1810141+9999
0064104190999991928022806004+51217+007633FM-12+013699999V0209999900261220001CN0100001N9+00281+99999102591ADDAY101061GF100991001001999999001001KA1999N+00111MD1810061+9999
0050104190999991928030106004+51217+007633FM-12+013699999V0209999900461002401CN0100001N9+00281+99999102111ADDAY121061GF108991081051002501999999KA1999N-00221
0050104190999991928030206004+51217+007633FM-12+013699999V0209999900261220001CN0200001N9+00281+99999102291ADDAY101061GF104991999001999999031001KA1999N+00111
0050104190999991928030306004+51217+007633FM-12+013699999V0209999900261220001CN0200001N9-00111+99999102371ADDAY101061GF100991001001999999001001KA1999N-00221
0064104190999991928030606004+51217+007633FM-12+013699999V0209999900101220001CN0040001N9+00391+99999101631ADDAY111061GF106991999001999999021001KA1999N+00001MD1810141+9999
0050104190999991928030706004+51217+007633FM-12+013699999V0209991C00001220001CN0020001N9+00391+99999101431ADDAY111061GF107991999001999999021001KA1999N+00281
0062104190999991928030806004+51217+007633FM-12+013699999V0209999900261001501CN0005001N9+00281+99999101401ADDAA199000691AY141061GF108991081051001501999999MD1810061+9999
0064104190999991928031606004+51217+007633FM-12+013699999V0209999900101220001CN0100001N9-00611+99999103351ADDAY181061GF100991001001999999001001KA1999N-00781MD1310201+9999
0037104190999991928031906004+51217+007633FM-12+013699999V0209999900461220001CN0200001N9+00111+99999102351ADDAY111061GF104991001001999999001021
0050104190999991928032006004+51217+007633FM-12+013699999V0209999900261220001CN0200001N9-00281+99999102061ADDAY111061GF102991001001999999001021KA1999N-00391
0064104190999991928032106004+51217+007633FM-12+013699999V0209999900931220001CN0200001N9-00391+99999101101ADDAY101061GF100991001001999999001001KA1999N-00891MD1810261+9999
0081104190999991928032406004+51217+007633FM-12+013699999V0209999900101004501CN0100001N9+00721+99999100551ADDAA199000391AY161061GF108991081061004501999999KA1999N+00611MD1310061+9999MW1511
0081104190999991928032706004+51217+007633FM-12+013699999V0209991C00001000151CN0002001N9+00281+99999101261ADDAA199000691AY141061GF108991081051000251999999KA1999N+00221MD1310061+9999MW1471
0081104190999991928032906004+51217+007633FM-12+013699999V0209999900101000151CN0000001N9+00111+99999100401ADDAA199002091AY141061GF108991081051000251999999KA1999N+00001MD1310141+9999MW1451
0067104190999991928033006004+51217+007633FM-12+013699999V0209999901231001501CN0100001N9+00611+99999099321ADDAA199007091AY161061GF108991081061001501999999KA1999N+00111MW1501
0081104190999991928033106004+51217+007633FM-12+013699999V0209999900261001501CN0100001N9+00391+99999099321ADDAA199005091AY161061GF108991081061001501999999KA1999N+00281MD1010001+9999MW1501
0070104190999991928040306004+51217+007633FM-12+013699999V0209999900101000151CN0000001N9+00221+99999101541ADDAY141061GF108991081051000251999999KA1999N+00111MD1310061+9999MW1451
0075104190999991928040506004+51217+007633FM-12+013699999V0209999900461000601CN0020001N9+00281+99999100871ADDAA199003091AY121061GF108991081051000751999999KA1999N+00221MD1310401+9999
0037104190999991928040706004+51217+007633FM-12+013699999V0209999900261220001CN0500001N9+00221+99999101871ADDAY101061GF100991001001999999001001
0051104190999991928040906004+51217+007633FM-12+013699999V0209991C00001220001CN0500001N9+00781+99999101391ADDAY101061GF100991001001999999001001MD1310141+9999
0081104190999991928041306004+51217+007633FM-12+013699999V0209999900261000151CN0002001N9+00501+99999100841ADDAA199007091AY141061GF108991081051000251999999KA1999N+00281MD1310061+9999MW1451
0081104190999991928041606004+51217+007633FM-12+013699999V0209999900261000151CN0005001N9+00111+99999100061ADDAA199002091AY141061GF108991081061000251999999KA1999N-00111MD1510141+9999MW1631
0081104190999991928041706004+51217+007633FM-12+013699999V0209999900261000151CN0005001N9-00221+99999100521ADDAA199002091AY141061GF108991081051000251999999KA1999N-00221MD1310201+9999MW1711
0070104190999991928041906004+51217+007633FM-12+013699999V0209999900261001501CN0020001N9-00111+99999100731ADDAY141061GF108991081051001501999999KA1999N-00281MD1810201+9999MW1211
0057104190999991928042306004+51217+007633FM-12+013699999V0209991C00001000151CN0500001N9+00001+99999102551ADDAY141061GF108991081051000251999999MD1310261+9999MW1451
0051104190999991928042506004+51217+007633FM-12+013699999V0209999900261220001CN0200001N9+00891+99999102351ADDAY101061GF100991001001999999001001MD1810141+9999
0051104190999991928042806004+51217+007633FM-12+013699999V0209991C00001220001CN0200001N9+01001+99999101241ADDAY111061GF104991999001999999031001MD1310061+9999
0043104190999991928050106004+51217+007633FM-12+013699999V0209999900101220001CN0020001N9+01111+99999101061ADDAY141061GF107991999001999999021001MW1441
0037104190999991928050206004+51217+007633FM-12+013699999V0209999900261220001CN0100001N9+01221+99999101031ADDAY101061GF104991001001999999031091
0037104190999991928050306004+51217+007633FM-12+013699999V0209999900261220001CN0100001N9+01281+99999100871ADDAY101061GF100991001001999999001001
0037104190999991928050406004+51217+007633FM-12+013699999V0209999900931220001CN0000001N9+00891+99999100791ADDAY171061GF100991001001999999001001
0051104190999991928050506004+51217+007633FM-12+013699999V0209999900261220001CN0200001N9+00781+99999101241ADDAY101061GF100991001001999999001001MD1310061+9999
0051104190999991928050706004+51217+007633FM-12+013699999V0209999900101220001CN0200001N9+01221+99999100471ADDAY101061GF101991001001999999001081MD1810061+9999
0051104190999991928051006004+51217+007633FM-12+013699999V0209999900101002401CN0040001N9+00001+99999101411ADDAY111061GF106991061051002501001001MD1310061+9999
0043104190999991928051106004+51217+007633FM-12+013699999V0209999900261220001CN0020001N9-00221+99999101841ADDAY141061GF100991001001999999001001MW1421
0037104190999991928051206004+51217+007633FM-12+013699999V02099999004619999999N0040001N9+00111+99999101931ADDAY111061GF108991999001002501001001
0051104190999991928051506004+51217+007633FM-12+013699999V0209999900261000601CN0020001N9+00391+99999101361ADDAY141061GF108991081051000751999999MD1810061+9999
0043104190999991928051706004+51217+007633FM-12+013699999V0209999900101000601CN0005001N9+00391+99999099831ADDAY161061GF108991081061000751999999MW1531
0037104190999991928051806004+51217+007633FM-12+013699999V02099999001019999999N0200001N9+00391+99999100351ADDAY111061GF106991999001022501021001
0057104190999991928051906004+51217+007633FM-12+013699999V0209999900101000601CN0040001N9+00391+99999100601ADDAY121061GF108991081051000751999999MD1310141+9999MW1211
0037104190999991928052106004+51217+007633FM-12+013699999V0209999900101220001CN0100001N9+00721+99999101241ADDAY101061GF104991001001999999001021
0043104190999991928052206004+51217+007633FM-12+013699999V0209999902261000151CN0000501N9+00611+99999101191ADDAY141061GF108991081061000251999999MW1521
0037104190999991928052306004+51217+007633FM-12+013699999V0209999900101220001CN0100001N9+00891+99999101131ADDAY101061GF101991999001999999031001
0057104190999991928052406004+51217+007633FM-12+013699999V0209999900461030001CN0010001N9+00501+99999101551ADDAY141061GF107991041051000251021001MD1310061+9999MW1101
0043104190999991928052606004+51217+007633FM-12+013699999V0209999900101000601CN0010001N9+00501+99999102691ADDAY141061GF108991081051000751999999MW1101
0037104190999991928052806004+51217+007633FM-12+013699999V0209991C00001220001CN0100001N9+01281+99999101751ADDAY111061GF101991001001999999001081
0037104190999991928052906004+51217+007633FM-12+013699999V0209999900101220001CN0200001N9+01221+99999101861ADDAY111061GF102991001001999999001081
0037104190999991928053006004+51217+007633FM-12+013699999V0209999900101220001CN0200001N9+01391+99999101751ADDAY101061GF104991001001999999001081
0057104190999991928053106004+51217+007633FM-12+013699999V0209991C00001001501CN0005001N9+01001+99999101771ADDAY141061GF108991081061001501999999MD1810061+9999MW1431
0051104190999991928060106004+51217+007633FM-12+013699999V0209999900261002401CN0100001N9+00781+99999101801ADDAY111061GF107991071051002501001001MD1310061+9999
0051104190999991928060206004+51217+007633FM-12+013699999V0209999900101220001CN0100001N9+00611+99999102501ADDAY101061GF101991001001999999001021MD1310141+9999
0051104190999991928061106004+51217+007633FM-12+013699999V0209999900461002401CN0040001N9+00891+99999101301ADDAY121061GF108991081061002501999999MD1310141+9999
0051104190999991928061206004+51217+007633FM-12+013699999V0209999900461220001CN0040001N9+00781+99999102501ADDAY101061GF100991001001999999001001MD1310201+9999
0051104190999991928061306004+51217+007633FM-12+013699999V0209999900261220001CN0100001N9+01281+99999102441ADDAY101061GF102991001001999999001091MD1810061+9999
0051104190999991928061406004+51217+007633FM-12+013699999V0209999900671220001CN0200001N9+01611+99999100661ADDAY111061GF106991999001999999031001MD1810261+9999
0051104190999991928061806004+51217+007633FM-12+013699999V0209999900261000601CN0010001N9+00611+99999101351ADDAY141061GF108991081051000751999999MD1610061+9999
0057104190999991928061906004+51217+007633FM-12+013699999V0209999900101002401CN0100001N9+00781+99999101111ADDAY161061GF108991081061002501999999MD1610061+9999MW1601
0043104190999991928062006004+51217+007633FM-12+013699999V0209999900101001501CN0010001N9+01001+99999100951ADDAY141061GF108991081051001501999999MW1101
0037104190999991928062506004+51217+007633FM-12+013699999V0209999900101220001CN0200001N9+00781+99999102131ADDAY101061GF100991001001999999001001
0057104190999991928062606004+51217+007633FM-12+013699999V0209999900261030001CN0100001N9+01501+99999100901ADDAY111061GF108991021061002501021001MD1810261+9999MW1291
0037104190999991928062906004+51217+007633FM-12+013699999V0209999900101220001CN0200001N9+01281+99999102381ADDAY101061GF101991001001999999001021
0037104190999991928070206004+51217+007633FM-12+013699999V0209999900261220001CN0200001N9+01281+99999102201ADDAY101061GF100991001001999999001001
0057104190999991928070606004+51217+007633FM-12+013699999V0209999900461004501CN0000501N9+01501+99999101191ADDAY121061GF108991081061004501999999MD1610061+9999MW1601
0037104190999991928070906004+51217+007633FM-12+013699999V0209999900101220001CN0200001N9+01281+99999102111ADDAY101061GF100991001001999999001001
0057104190999991928071006004+51217+007633FM-12+013699999V0209999900101220001CN0010001N9+01221+99999102441ADDAY141061GF104991999051002501999999MD1310061+9999MW1101
0051104190999991928071206004+51217+007633FM-12+013699999V0209999900101220001CN0200001N9+01891+99999102561ADDAY101061GF100991001001999999001001MD1510001+9999
0051104190999991928071706004+51217+007633FM-12+013699999V0209999900461001501CN0040001N9+01221+99999102691ADDAY121061GF108991081051001501999999MD1310201+9999
0051104190999991928071806004+51217+007633FM-12+013699999V0209999900101220001CN0100001N9+01281+99999102601ADDAY101061GF101991001001999999001021MD1810141+9999
0037104190999991928072106004+51217+007633FM-12+013699999V0209999900101001501CN0020001N9+01221+99999101861ADDAY141061GF108991081051001501999999
0043104190999991928072406004+51217+007633FM-12+013699999V0209999900101220001CN0000001N9+01501+99999101721ADDAY101061GF102991999001999999031001MW1291
0051104190999991928072506004+51217+007633FM-12+013699999V0209999900101000601CN0020001N9+01391+99999101621ADDAY141061GF108991081051000751999999MD1310061+9999
0043104190999991928072606004+51217+007633FM-12+013699999V0209999900261000151CN0000501N9+01611+99999101761ADDAY141061GF108991081051000251999999MW1501
0057104190999991928072806004+51217+007633FM-12+013699999V0209999900461002401CN0200001N9+01611+99999100431ADDAY121061GF108991081061002501999999MD1810061+9999MW1601
0057104190999991928080206004+51217+007633FM-12+013699999V0209999900101002401CN0000501N9+01001+99999101841ADDAY141061GF108991081051002501999999MD1310141+9999MW1451
0057104190999991928080606004+51217+007633FM-12+013699999V0209999900261001501CN0020001N9+01281+99999102401ADDAY141061GF107991071061001501001001MD1310261+9999MW1461
0057104190999991928080906004+51217+007633FM-12+013699999V0209999900261000151CN0002001N9+01111+99999102201ADDAY141061GF108991081051000251999999MD1310061+9999MW1471
0037104190999991928081006004+51217+007633FM-12+013699999V0209991C00001220001CN0040001N9+01281+99999102211ADDAY111061GF102991999001999999031001
0037104190999991928081106004+51217+007633FM-12+013699999V0209999900101002401CN0100001N9+01281+99999101901ADDAY111061GF108991081051002501999999
0037104190999991928081306004+51217+007633FM-12+013699999V0209999900101004501CN0100001N9+01391+99999101201ADDAY111061GF107991071051004501001001
0037104190999991928082106004+51217+007633FM-12+013699999V02099999002619999999N0200001N9+01221+99999101301ADDAY111061GF106991999011001501001001
0037104190999991928082206004+51217+007633FM-12+013699999V0209999900671002401CN0100001N9+01001+99999101401ADDAY121061GF108991081051002501999999
0037104190999991928082406004+51217+007633FM-12+013699999V0209999900461220001CN0100001N9+01391+99999101531ADDAY111061GF104991001001999999001021
0043104190999991928082506004+51217+007633FM-12+013699999V0209999900101001501CN0040001N9+01611+99999100961ADDAY161061GF108991081061001501999999MW1631
0037104190999991928082706004+51217+007633FM-12+013699999V0209999900461001501CN0100001N9+01501+99999100771ADDAY121061GF108991081051001501999999
0037104190999991928090106004+51217+007633FM-12+013699999V0209999900101220001CN0100001N9+00721+99999102391ADDAY101061GF102991001001999999001081
0037104190999991928090306004+51217+007633FM-12+013699999V0209999900261220001CN0500001N9+00781+99999102441ADDAY111061GF107991999001999999031001
0051104190999991928090406004+51217+007633FM-12+013699999V0209999900261220001CN0200001N9+00891+99999102431ADDAY101061GF102991001001999999001081MD1810061+9999
0051104190999991928090506004+51217+007633FM-12+013699999V0209999900261220001CN0100001N9+01391+99999100831ADDAY101061GF100991001001999999001001MD1810061+9999
0037104190999991928090606004+51217+007633FM-12+013699999V0209999900671220001CN0100001N9+01611+99999101631ADDAY111061GF104991001001999999001081
0051104190999991928091006004+51217+007633FM-12+013699999V0209999900101001501CN0020001N9+01391+99999102501ADDAY141061GF108991081051001501999999MD1310141+9999
0043104190999991928091206004+51217+007633FM-12+013699999V0209999900101000151CN0005001N9+01001+99999102591ADDAY141061GF108991081051000251999999MW1451
0051104190999991928091506004+51217+007633FM-12+013699999V0209999900101220001CN0200001N9+00721+99999102571ADDAY101061GF104991001001999999001021MD1310061+9999
0037104190999991928091806004+51217+007633FM-12+013699999V0209999900101220001CN0200001N9+00891+99999102531ADDAY101061GF101991001001999999001021
0051104190999991928092006004+51217+007633FM-12+013699999V0209999900101001501CN0020001N9+01001+99999102171ADDAY141061GF107991071051001501001001MD1310061+9999
0057104190999991928092406004+51217+007633FM-12+013699999V0209999900101012301CN0000501N9+00221+99999101301ADDAY141061GF108991081051012501999999MD1810141+9999MW1441
0057104190999991928092506004+51217+007633FM-12+013699999V0209999900101000151CN0000501N9+00611+99999100641ADDAY141061GF108991081051000251999999MD1310061+9999MW1451
0037104190999991928093006004+51217+007633FM-12+013699999V0209999900261220001CN0100001N9+01221+99999102021ADDAY111061GF106991999001999999031001
0037104190999991928101106004+51217+007633FM-12+013699999V0209999900101220001CN0000501N9+00501+99999101371ADDAY111061GF104991999051008001999999
0057104190999991928101206004+51217+007633FM-12+013699999V0209999900671000151CN0002001N9+00391+99999100911ADDAY141061GF108991081061000251999999MD1310261+9999MW1531
0051104190999991928101706004+51217+007633FM-12+013699999V0209999900671004501CN0100001N9+00501+99999102391ADDAY121061GF108991081051004501999999MD1990141+9999
0037104190999991928102006004+51217+007633FM-12+013699999V0209999900671220001CN0100001N9+01001+99999101131ADDAY101061GF102991001001999999001081
0080104190999991928102306004+51217+007633FM-12+013699999V0209999900931000151CN0100001N9+00721+99999100751ADDAA199062091AY111061GF106991999091000251999999KA1999N+99999EQDQ01 +04502ATMN  
0037104190999991928102406004+51217+007633FM-12+013699999V0209999900671220001CN0200001N9+00721+99999101181ADDAY111061GF104991021051001501031001
0057104190999991928102506004+51217+007633FM-12+013699999V0209999900261000601CN0010001N9+01281+99999101591ADDAY181061GF108991081061000751999999MD1310061+9999MW1601
0051104190999991928103006004+51217+007633FM-12+013699999V0209999900461001501CN0040001N9+00611+99999101431ADDAY121061GF108991081051001501999999MD1810061+9999
0043104190999991928110306004+51217+007633FM-12+013699999V0209999900261000601CN0100001N9+00611+99999100831ADDAY161061GF108991081061000751999999MW1501
0057104190999991928110806004+51217+007633FM-12+013699999V02099999004619999999N0000501N9+00001+99999100641ADDAY141061GF199999999999000251999999MD1810061+9999MW1451
0057104190999991928110906004+51217+007633FM-12+013699999V0209999900261000151CN0000001N9+00281+99999101131ADDAY141061GF108991081051000251999999MD1310141+9999MW1451
0057104190999991928111006004+51217+007633FM-12+013699999V0209999900101000151CN0000001N9-00391+99999102201ADDAY141061GF108991081051000251999999MD1310141+9999MW1451
0037104190999991928111306004+51217+007633FM-12+013699999V0209999900101001501CN0005001N9+00891+99999101941ADDAY141061GF108991081061001501999999
0057104190999991928111606004+51217+007633FM-12+013699999V0209999900671000601CN0040001N9+00721+99999099631ADDAY121061GF108991081061000751999999MD1810061+9999MW1211
0057104190999991928111706004+51217+007633FM-12+013699999V0209999901901001501CN0100001N9+00721+99999099131ADDAY161061GF108991081061001501999999MD1310141+9999MW1631
0057104190999991928112006004+51217+007633FM-12+013699999V0209999900461001501CN0040001N9+00721+99999101911ADDAY101061GF108991081061001501999999MD1310141+9999MW1211
0057104190999991928112206004+51217+007633FM-12+013699999V0209999900671000601CN0040001N9+00611+99999101971ADDAY111061GF106991061061000751001001MD1810061+9999MW1211
0057104190999991928112306004+51217+007633FM-12+013699999V0209999900461000601CN0005001N9+00721+99999100961ADDAY161061GF108991081061000751999999MD1610061+9999MW1631
0043104190999991928112406004+51217+007633FM-12+013699999V0209999901541001501CN0020001N9+00611+99999099151ADDAY121061GF108991081061001501999999MW1211
0057104190999991928112806004+51217+007633FM-12+013699999V0209999900261000151CN0000501N9+00221+99999100671ADDAY141061GF108991081061000251999999MD1310141+9999MW1231
0057104190999991928112906004+51217+007633FM-12+013699999V0209999900261000601CN0020001N9+00221+99999101771ADDAY121061GF108991081051000751999999MD1310141+9999MW1211
0057104190999991928113006004+51217+007633FM-12+013699999V0209999900461000151CN0005001N9+00001+99999102061ADDAY141061GF108991081061000251999999MD1810141+9999MW1711
0057104190999991928120406004+51217+007633FM-12+013699999V0209999900101000151CN0005001N9+00221+99999103091ADDAY141061GF108991081051000251999999MD1310141+9999MW1421
0057104190999991928120706004+51217+007633FM-12+013699999V0209999900261000601CN0005001N9+00221+99999101541ADDAY161061GF108991081061000751999999MD1810141+9999MW1621
0037104190999991928120806004+51217+007633FM-12+013699999V0209999900101220001CN0040001N9+00001+99999101761ADDAY111061GF104991041051001501031001
0051104190999991928121006004+51217+007633FM-12+013699999V0209999900101220001CN0040001N9-00501+99999101281ADDAY111061GF104991041051999999001001MD1810141+9999
0051104190999991928121106004+51217+007633FM-12+013699999V0209999900261000151CN0005001N9-00111+99999099531ADDAY121061GF108991081051000251999999MD1810141+9999
0037104190999991928121206004+51217+007633FM-12+013699999V0209999900461001501CN0020001N9-00221+99999099811ADDAY121061GF108991081051001501999999
0051104190999991928121306004+51217+007633FM-12+013699999V0209999900101000601CN0020001N9-00221+99999100611ADDAY121061GF108991081051000751999999MD1310061+9999
0037104190999991928121906004+51217+007633FM-12+013699999V0209999900101000151CN0020001N9-00281+99999103321ADDAY141061GF108991081051000251999999
0057104190999991928122006004+51217+007633FM-12+013699999V0209999900461000601CN0005001N9-00391+99999102771ADDAY141061GF108991081051000751999999MD1810141+9999MW1451
0043104190999991928122106004+51217+007633FM-12+013699999V0209999900261000151CN0005001N9-00611+99999102561ADDAY141061GF108991081051000251999999MW1431
0043104190999991928122406004+51217+007633FM-12+013699999V0209999900101000151CN0000501N9-00111+99999103071ADDAY141061GF108991081051000251999999MW1451
0051104190999991928122706004+51217+007633FM-12+013699999V0209991C00001220001CN0040001N9+00221+99999102001ADDAY111061GF104991041051002501001001MD1310141+9999
0043104190999991928122906004+51217+007633FM-12+013699999V0209999900261000151CN0000001N9+00001+99999101071ADDAY161061GF108991081051000251999999MW1471
