0076104270999991928040106004+51183+008483FM-12+025799999V02099999004619999999N0000001N9+99999+99999999999ADDAY141061GF108991999051000251999999MD1310742+9999MW1451EQDQ01+000742APC3  
0067104270999991928040206004+51183+008483FM-12+025799999V02099999012319999999N0000001N9+99999+99999999999ADDAA199005091AY141061GF108991999051999999999999KA1999N+00001MW1451
0067104270999991928040306004+51183+008483FM-12+025799999V02099999006719999999N0000001N9+99999+99999999999ADDAA199001091AY141061GF108991999051999999999999KA1999N-00111MW1451
0089104270999991928042306004+51183+008483FM-12+025799999V02099999004619999999N0002001N9+99999+99999999999ADDAY141061GF108991999051000251999999KA1999N-00281MD1310662+9999MW1441EQDQ01+000662APC3  
0067104270999991928050106004+51183+008483FM-12+025799999V02099999004619999999N0100001N9+00891+00831999999ADDAA199000691AY161061GF108991999051999999999999KA1999N+00781MW1611
0043104270999991928050112004+51183+008483FM-12+025799999V0200501N00261002401CN0100001N9+01111+01061999999ADDAY161061GF108991081051002501999999MW1211
0085104270999991928050206004+51183+008483FM-12+025799999V0209999900461024001CN0100001N9+01001+99999999999ADDAY101061GF106991999051999999999999KA1999N+99999EQDQ01 -02563ATOD  Q02 +02722ATMN  
0056104270999991928050212004+51183+008483FM-12+025799999V0200901N00931030001CN0100001N9+01501+01062999999ADDAY111061GF107991041011004501031001EQDQ01+028383ATOD  
0050104270999991928050306004+51183+008483FM-12+025799999V0209999900671220001CN0200001N9+01721+01281999999ADDAY101061GF101991999001999999001021KA1999N+01111
0037104270999991928050312004+51183+008483FM-12+025799999V0200901N01231220001CN0500001N9+01501+00331999999ADDAY101061GF104991011011004501001021
0050104270999991928050406004+51183+008483FM-12+025799999V0209999901231220001CN0200001N9+00721+00331999999ADDAY101061GF101991999001999999001021KA1999N+00391
0037104270999991928050412004+51183+008483FM-12+025799999V0200901N01231220001CN0500001N9+01111-00331999999ADDAY101061GF101991001001999999001021
0050104270999991928050506004+51183+008483FM-12+025799999V0209999900931220001CN0200001N9+00721+00331999999ADDAY101061GF100991001001999999001001KA1999N+00281
0037104270999991928050512004+51183+008483FM-12+025799999V0200901N00931220001CN0500001N9+01001-00391999999ADDAY101061GF101991001001999999001021
0050104270999991928050606004+51183+008483FM-12+025799999V0209999900931220001CN0200001N9+99999+99999999999ADDAY101061GF100991001001999999001001KA1999N+00501
0051104270999991928050712004+51183+008483FM-12+025799999V0201801N00261007801CN0500001N9+01281+00111999999ADDAY111061GF106991061051008001001001MD1610061+9999
0069104270999991928050806004+51183+008483FM-12+025799999V02099999012319999999N0100001N9-00891-00941999999ADDAY141061GF108991999051000251999999KA1999N+99999EQDQ01 -00222ATMN  
0051104270999991928050812004+51183+008483FM-12+025799999V0202901N00931004501CN0500001N9+00221-00331999999ADDAY111061GF107991061051004501001021MD1010001+9999
0094104270999991928050906004+51183+008483FM-12+025799999V02099999012319999999N0200001N9+99999+99999999999ADDAA199005091AY121061GF108991999051000251999999KA1999N-00281MD1310662+9999EQDQ01+000662APC3  
0057104270999991928050912004+51183+008483FM-12+025799999V0202901N01231002401CN0100001N9-00111-00281999999ADDAY171061GF106991061091002501001001MD1310061+9999MW1231
0057104270999991928051012004+51183+008483FM-12+025799999V0202901N00931000601CN0020001N9-00221-00281999999ADDAY171061GF108991081061000751999999MD1310061+9999MW1861
0061104270999991928051106004+51183+008483FM-12+025799999V02099999004619999999N0200001N9+00001-03221999999ADDAA199002091AY101061GF106991999051002501001001KA1999N-00391
0056104270999991928051112004+51183+008483FM-12+025799999V0202301N00461004501CN0500001N9+00391-00392999999ADDAY111061GF106991061011004501001001EQDQ01+026933ATOD  
0067104270999991928051206004+51183+008483FM-12+025799999V02099999009319999999N0002001N9+99999+99999999999ADDAA199000391AY121061GF108991999051000251999999KA1999N-00221MW1751
0043104270999991928051212004+51183+008483FM-12+025799999V0202301N00671000151CN0000001N9+00111+00061999999ADDAY171061GF108991081051000251999999MW1611
0061104270999991928051306004+51183+008483FM-12+025799999V0209999900671024001CN0100001N9+00891+00831999999ADDAA199000691AY171061GF108991999061999999999999KA1999N+00111
0050104270999991928051406004+51183+008483FM-12+025799999V02099999001019999999N0500001N9+00611+00001999999ADDAY121061GF108991999001999999021001KA1999N+00111
0051104270999991928051412004+51183+008483FM-12+025799999V0202501N00101007801CN0500001N9+00611-00171999999ADDAY121061GF108991081051008001999999MD1810141+9999
0056104270999991928051506004+51183+008483FM-12+025799999V02099999002619999999N0000001N9+99999+99999999999ADDAY141061GF108991999051999999999999KA1999N+00221MW1451
0051104270999991928051512004+51183+008483FM-12+025799999V0203401N00461004501CN0200001N9+00501+00111999999ADDAY111061GF107991071051004501001001MD1810061+9999
0081104270999991928051606004+51183+008483FM-12+025799999V02099999012319999999N0000001N9+99999+99999999999ADDAA199009091AY171061GF108991999051999999999999KA1999N+00001MD1990231+9999MW1731
0043104270999991928051612004+51183+008483FM-12+025799999V0202301N01541000151CN0000001N9+00221+00171999999ADDAY161061GF108991081051000251999999MW1631
0067104270999991928051706004+51183+008483FM-12+025799999V02099999004619999999N0000001N9+00891+00831999999ADDAA199003091AY141061GF108991999051999999999999KA1999N+00001MW1451
0057104270999991928051812004+51183+008483FM-12+025799999V0202301N01231000151CN0002001N9+00281+00221999999ADDAY161061GF108991081051000251999999MD1810061+9999MW1611
0067104270999991928051906004+51183+008483FM-12+025799999V02099999006719999999N0000001N9+99999+99999999999ADDAA199004091AY161061GF108991999051000251999999KA1999N+00111MW1611
0051104270999991928051912004+51183+008483FM-12+025799999V0202301N00671002401CN0200001N9+00611+00561999999ADDAY181061GF106991061011002501001001MD1310061+9999
0061104270999991928052006004+51183+008483FM-12+025799999V0209999900461220001CN0100001N9+99999+99999999999ADDAA199000391AY111061GF104991999001999999001081KA1999N+00281
0067104270999991928052106004+51183+008483FM-12+025799999V02099999002619999999N0000001N9+99999+99999999999ADDAA199002091AY141061GF108991999051999999999999KA1999N+00391MW1451
0037104270999991928052112004+51183+008483FM-12+025799999V0200901N00461004501CN0200001N9+00781+00561999999ADDAY111061GF108991081051004501999999
0067104270999991928052206004+51183+008483FM-12+025799999V02099999006719999999N0000001N9+99999+99999999999ADDAA199000691AY141061GF108991999051999999999999KA1999N+00281MW1451
0051104270999991928052212004+51183+008483FM-12+025799999V0202501N00261004501CN0200001N9+00721+00331999999ADDAY111061GF106991061051004501001001MD1310061+9999
0050104270999991928052306004+51183+008483FM-12+025799999V02099999004619999999N0200001N9+99999+99999999999ADDAY111061GF106991999001999999001081KA1999N+00281
0057104270999991928052312004+51183+008483FM-12+025799999V0202701N00671004501CN0500001N9+00611+00391999999ADDAY111061GF108991081051004501999999MD1810061+9999MW1611
0067104270999991928052406004+51183+008483FM-12+025799999V02099999004619999999N0005001N9+99999+99999999999ADDAA199000691AY141061GF108991999051000251999999KA1999N+00221MW1451
0057104270999991928052412004+51183+008483FM-12+025799999V0202501N00671001501CN0100001N9+00501+00441999999ADDAY161061GF108991081061001501999999MD1310061+9999MW1211
0067104270999991928052506004+51183+008483FM-12+025799999V02099999009319999999N0000001N9+99999+99999999999ADDAA199001091AY141061GF108991999051999999999999KA1999N+00221MW1451
0057104270999991928052512004+51183+008483FM-12+025799999V0202901N00931000151CN0000001N9+00391+00331999999ADDAY141061GF108991081051000251999999MD1310141+9999MW1451
0056104270999991928052606004+51183+008483FM-12+025799999V02099999006719999999N0000501N9+99999+99999999999ADDAY141061GF108991999051999999999999KA1999N+00111MW1421
0037104270999991928052612004+51183+008483FM-12+025799999V0202901N00931002401CN0200001N9+00391+00171999999ADDAY111061GF107991071051002501001001
0050104270999991928052706004+51183+008483FM-12+025799999V02099999004619999999N0200001N9+99999+99999999999ADDAY111061GF106991999001999999001081KA1999N+00281
0050104270999991928052806004+51183+008483FM-12+025799999V0209991C00001220001CN0100001N9+01721+01281999999ADDAY101061GF101991999001999999001021KA1999N+00891
0037104270999991928052912004+51183+008483FM-12+025799999V0201601N00101220001CN0500001N9+01611+01171999999ADDAY111061GF106991001001999999001081
0050104270999991928053006004+51183+008483FM-12+025799999V0209999900461220001CN0200001N9+01611+00941999999ADDAY101061GF102991999001999999001001KA1999N+01001
0037104270999991928053012004+51183+008483FM-12+025799999V0200901N00461220001CN0500001N9+01721+01061999999ADDAY101061GF102991011011008001001021
0050104270999991928053106004+51183+008483FM-12+025799999V0209999900671220001CN0200001N9+01721+01281999999ADDAY101061GF104991999011017501001091KA1999N+01001
0051104270999991928053112004+51183+008483FM-12+025799999V0203601N00671220001CN0200001N9+01111+00891999999ADDAY111061GF104991041091008001001001MD1810061+9999
0051104270999991928060112004+51183+008483FM-12+025799999V0200701N00931007801CN0500001N9+00781+00391999999ADDAY111061GF106991061011008001001001MD1310061+9999
0050104270999991928060206004+51183+008483FM-12+025799999V0209999900671220001CN0200001N9+99999+99999999999ADDAY101061GF102991999001999999001021KA1999N-00111
0037104270999991928060212004+51183+008483FM-12+025799999V0201101N004619999999N0500001N9+00781+00561999999ADDAY101061GF199999999001999999999999
0050104270999991928060306004+51183+008483FM-12+025799999V0209999900931220001CN0500001N9+00781+00561999999ADDAY101061GF102991999011012501001021KA1999N+00501
0051104270999991928060412004+51183+008483FM-12+025799999V0202301N00931075001CN0200001N9+01891+01611999999ADDAY111061GF107991041011004501001081MD1810201+9999
0050104270999991928060506004+51183+008483FM-12+025799999V02099999002619999999N0200001N9+99999+99999999999ADDAY111061GF107991999001999999021001KA1999N+00281
0037104270999991928060512004+51183+008483FM-12+025799999V0202501N00261030001CN0500001N9+00781+00561999999ADDAY121061GF108991011011004501021001
0050104270999991928060606004+51183+008483FM-12+025799999V02099999001019999999N0200001N9+00781+00561999999ADDAY111061GF106991999001999999031001KA1999N+00501
0037104270999991928060612004+51183+008483FM-12+025799999V0202701N00461007801CN0200001N9+01221+01001999999ADDAY111061GF107991061011008001001021
0037104270999991928060706004+51183+008483FM-12+025799999V02099999009319999999N0200001N9+01891+01831999999ADDAY121061GF108991999051999999999999
0051104270999991928060712004+51183+008483FM-12+025799999V0201101N00931220001CN0040001N9+01391+00721999999ADDAY101061GF104991041051002501021001MD1810141+9999
0051104270999991928060812004+51183+008483FM-12+025799999V0202301N01901075001CN0500001N9+01281+01061999999ADDAY181061GF106991041091004501001021MD1810061+9999
0050104270999991928060906004+51183+008483FM-12+025799999V02099999012319999999N0200001N9+99999+99999999999ADDAY111061GF108991999051999999999999KA1999N+00781
0043104270999991928060912004+51183+008483FM-12+025799999V0201801N00931000151CN0005001N9+01391+01331999999ADDAY181061GF108991081051000251999999MW1431
0061104270999991928061106004+51183+008483FM-12+025799999V0209999900931030001CN0100001N9+99999+99999999999ADDAA199000691AY111061GF106991041011002501021001KA1999N+00721
0037104270999991928061112004+51183+008483FM-12+025799999V0202501N01541004501CN0200001N9+01111+00891999999ADDAY111061GF106991061011004501001001
0051104270999991928061212004+51183+008483FM-12+025799999V0202701N00931007801CN0200001N9+01111+00891999999ADDAY111061GF106991061091008001001001MD1310061+9999
0069104270999991928061306004+51183+008483FM-12+025799999V0209999900461220001CN0200001N9+01001+99999999999ADDAY101061GF102991999001999999001021KA1999N+00721EQDQ01 -02563ATOD  
0070104270999991928061312004+51183+008483FM-12+025799999V0201601N00671220001CN0500001N9+01611+01172999999ADDAY101061GF102991001001999999001021MD1810061+9999EQDQ01+028493ATOD  
0064104270999991928061406004+51183+008483FM-12+025799999V02099999019019999999N0200001N9+99999+99999999999ADDAY111061GF108991999051999999999999KA1999N+01221MD1710061+9999
0051104270999991928061412004+51183+008483FM-12+025799999V0202301N01901007801CN0500001N9+01611+01331999999ADDAY181061GF106991061091008001001001MD1310141+9999
0100104270999991928061506004+51183+008483FM-12+025799999V02099999009319999999N0000001N9+99999+99999999999ADDAA199000691AY141061GF108991999051999999999999KA1999N+00501MD1310662+9999MW1451EQDQ01+000662APC3  
0051104270999991928061512004+51183+008483FM-12+025799999V0202701N01231004501CN0200001N9+00611+00561999999ADDAY121061GF106991061051004501021001MD1310201+9999
0043104270999991928061612004+51183+008483FM-12+025799999V0202701N00671001501CN0200001N9+00391+00331999999ADDAY171061GF108991081061001501999999MW1211
0061104270999991928061706004+51183+008483FM-12+025799999V0209999900931015001CN0100001N9+99999+99999999999ADDAA199000691AY111061GF107991071051017501001001KA1999N+00111
0067104270999991928061806004+51183+008483FM-12+025799999V02099999012319999999N0000001N9+99999+99999999999ADDAA199006091AY141061GF108991999051999999999999KA1999N+00221MW1451
0051104270999991928061812004+51183+008483FM-12+025799999V0202501N00671004501CN0500001N9+00721+00671999999ADDAY181061GF106991061091004501021001MD1410001+9999
0051104270999991928061912004+51183+008483FM-12+025799999V0202501N00461004501CN0200001N9+01001+00781999999ADDAY121061GF108991081051004501999999MD1810061+9999
0061104270999991928062006004+51183+008483FM-12+025799999V02099999002619999999N0040001N9+00781+00561999999ADDAA199001091AY141061GF108991011051001501999999KA1999N+00721
0043104270999991928062012004+51183+008483FM-12+025799999V0202501N00671004501CN0200001N9+01111+00891999999ADDAY181061GF107991061051004501001021MW1211
0067104270999991928062106004+51183+008483FM-12+025799999V02099999009319999999N0000001N9+99999+99999999999ADDAA199003091AY161061GF108991999051999999999999KA1999N+00501MW1511
0051104270999991928062112004+51183+008483FM-12+025799999V0202701N00671004501CN0100001N9+01001+00941999999ADDAY141061GF106991061051004501001001MD1310201+9999
0051104270999991928062212004+51183+008483FM-12+025799999V0202301N00461007801CN0200001N9+01281+01221999999ADDAY121061GF108991081051008001999999MD1310061+9999
0037104270999991928062312004+51183+008483FM-12+025799999V0202501N00671030001CN0200001N9+01611+01331999999ADDAY101061GF106991011011008001021001
0069104270999991928062406004+51183+008483FM-12+025799999V0209999900461220001CN0200001N9+01001+99999999999ADDAY111061GF104991999001999999001021KA1999N+00781EQDQ01 -02563ATOD  
0050104270999991928062506004+51183+008483FM-12+025799999V0209991C00001220001CN0000001N9+01891+01831999999ADDAY101061GF101991999001999999001021KA1999N+00611
0051104270999991928062512004+51183+008483FM-12+025799999V0201401N00671220001CN0500001N9+01391+00941999999ADDAY101061GF102991011011008001001091MD1810061+9999
0067104270999991928062606004+51183+008483FM-12+025799999V02099999012319999999N0000001N9+99999+99999999999ADDAA199003091AY161061GF108991999051999999999999KA1999N+01281MW1451
0057104270999991928062612004+51183+008483FM-12+025799999V0202001N01541002401CN0200001N9+01391+01331999999ADDAY181061GF108991081051002501999999MD1510001+9999MW1211
0100104270999991928062706004+51183+008483FM-12+025799999V02099999015419999999N0000001N9+00891+00831999999ADDAA199007091AY161061GF108991999051999999999999KA1999N+00611MD1310662+9999MW1631EQDQ01+000662APC3  
0051104270999991928062712004+51183+008483FM-12+025799999V0202501N00931002401CN0200001N9+00781+00721999999ADDAY141061GF108991081051002501999999MD1310261+9999
0067104270999991928062806004+51183+008483FM-12+025799999V02099999009319999999N0000001N9+99999+99999999999ADDAA199000691AY111061GF108991999051000251999999KA1999N+00391MW1451
0057104270999991928062812004+51183+008483FM-12+025799999V0202501N00461075001CN0200001N9+01111+00891999999ADDAY181061GF107991041051004501001021MD1310061+9999MW1211
0037104270999991928063012004+51183+008483FM-12+025799999V0202001N00671030001CN0200001N9+01611+01171999999ADDAY111061GF108991041051004501021001
0037104270999991928070206004+51183+008483FM-12+025799999V0209999900461220001CN0200001N9+01721+01281999999ADDAY101061GF101991999001999999001021
0037104270999991928070212004+51183+008483FM-12+025799999V0202501N00671220001CN0500001N9+01781+00891999999ADDAY101061GF101991011011008001001001
0050104270999991928070306004+51183+008483FM-12+025799999V02099999004619999999N0200001N9+99999+99999999999ADDAY111061GF106991999001999999001081KA1999N+01391
0043104270999991928070406004+51183+008483FM-12+025799999V02099999006719999999N0000001N9+99999+99999999999ADDAY191061GF108991999051999999999999MW1611
0070104270999991928070412004+51183+008483FM-12+025799999V0202901N01231001501CN0200001N9+00611+00561999999ADDAY181061GF108991081051001501999999MD1310602+9999EQDQ01+000602APC3  
0069104270999991928070506004+51183+008483FM-12+025799999V0209999900671220001CN0100001N9+01001+99999999999ADDAY111061GF104991999001999999001081KA1999N+00781EQDQ01 -02563ATOD  
0070104270999991928070512004+51183+008483FM-12+025799999V0201801N01231220001CN0200001N9+01611+00722999999ADDAY111061GF106991001001999999001081MD1810141+9999EQDQ01+028043ATOD  
0050104270999991928070606004+51183+008483FM-12+025799999V02099999012319999999N0200001N9+01721+01281999999ADDAY121061GF108991999051999999999999KA1999N+01221
0043104270999991928070612004+51183+008483FM-12+025799999V0202701N01231001501CN0100001N9+01221+01171999999ADDAY191061GF108991081061001501999999MW1291
0067104270999991928070706004+51183+008483FM-12+025799999V02099999009319999999N0000001N9+00891+00831999999ADDAA199000691AY161061GF108991999051999999999999KA1999N+00781MW1211
0051104270999991928070712004+51183+008483FM-12+025799999V0202501N00671002401CN0200001N9+01001+00941999999ADDAY121061GF107991071051002501001001MD1310141+9999
0050104270999991928070906004+51183+008483FM-12+025799999V0209999900461220001CN0200001N9+01721+01281999999ADDAY101061GF100991001001999999001001KA1999N+00781
0037104270999991928070912004+51183+008483FM-12+025799999V0202301N00671220001CN0100001N9+01721+01061999999ADDAY101061GF104991041011004501001021
0037104270999991928071012004+51183+008483FM-12+025799999V0203201N00461004501CN0200001N9+01501+00611999999ADDAY111061GF107991071051004501001001
0050104270999991928071106004+51183+008483FM-12+025799999V02099999004619999999N0200001N9+01721+01281999999ADDAY111061GF106991999001999999001081KA1999N+01221
0037104270999991928071112004+51183+008483FM-12+025799999V0202501N00671220001CN0200001N9+02001+00781999999ADDAY111061GF106991001001999999001021
0050104270999991928071206004+51183+008483FM-12+025799999V0209999900461220001CN0200001N9+99999+99999999999ADDAY101061GF101991999001999999001021KA1999N+01001
0051104270999991928071212004+51183+008483FM-12+025799999V0201401N00461220001CN0200001N9+02281+00671999999ADDAY101061GF100991001001999999001001MD1810061+9999
0050104270999991928071306004+51183+008483FM-12+025799999V0209999900261220001CN0200001N9+02391+01111999999ADDAY101061GF100991001001999999001001KA1999N+01891
0037104270999991928071312004+51183+008483FM-12+025799999V0202901N00261220001CN0200001N9+02501+01221999999ADDAY101061GF104991041011008001001001
0050104270999991928071406004+51183+008483FM-12+025799999V0209999900461220001CN0200001N9+99999+99999999999ADDAY101061GF100991001001999999001001KA1999N+01721
0037104270999991928071412004+51183+008483FM-12+025799999V0202901N00461220001CN0200001N9+02501+00831999999ADDAY101061GF100991001001999999001001
0050104270999991928071506004+51183+008483FM-12+025799999V0209999900261220001CN0200001N9+02721+02221999999ADDAY101061GF100991001001999999001001KA1999N+01891
0050104270999991928071606004+51183+008483FM-12+025799999V0209999900101220001CN0200001N9+02501+01561999999ADDAY101061GF101991999001999999001021KA1999N+02111
0051104270999991928071612004+51183+008483FM-12+025799999V0203201N00931220001CN0100001N9+02391+01441999999ADDAY101061GF104991021091008001021001MD1810061+9999
0056104270999991928071706004+51183+008483FM-12+025799999V02099999009319999999N0005001N9+99999+99999999999ADDAY141061GF108991999051999999999999KA1999N+01001MW1431
0037104270999991928071712004+51183+008483FM-12+025799999V0200501N00461220001CN0500001N9+01611+00061999999ADDAY101061GF102991011011008001021001
0050104270999991928071806004+51183+008483FM-12+025799999V0209999900261220001CN0200001N9+01721+01281999999ADDAY101061GF102991999001999999001021KA1999N+00891
0051104270999991928071812004+51183+008483FM-12+025799999V0202301N00461220001CN0500001N9+01891+00671999999ADDAY111061GF104991021011008001001081MD1810061+9999
0050104270999991928071906004+51183+008483FM-12+025799999V0209999900461012301CN0200001N9+01721+01281999999ADDAY101061GF107991071051012501001001KA1999N+01001
0037104270999991928071912004+51183+008483FM-12+025799999V0202701N00461004501CN0200001N9+01221+00781999999ADDAY111061GF108991081051004501999999
0056104270999991928072006004+51183+008483FM-12+025799999V02099999004619999999N0002001N9+00891+00831999999ADDAY141061GF108991999051000251999999KA1999N+00891MW1431
0037104270999991928072012004+51183+008483FM-12+025799999V0202501N00671004501CN0200001N9+01391+00721999999ADDAY111061GF106991061011004501001001
0050104270999991928072106004+51183+008483FM-12+025799999V02099999004619999999N0040001N9+99999+99999999999ADDAY121061GF108991999051000251999999KA1999N+00891
0037104270999991928072112004+51183+008483FM-12+025799999V0202301N00931002401CN0100001N9+01611+01171999999ADDAY111061GF106991061051002501001001
0050104270999991928072306004+51183+008483FM-12+025799999V02099999004619999999N0100001N9+99999+99999999999ADDAY121061GF107991999001999999021001KA1999N+01221
0037104270999991928072312004+51183+008483FM-12+025799999V0202701N00671004501CN0200001N9+01611+00941999999ADDAY101061GF106991999091004501001001
0050104270999991928072406004+51183+008483FM-12+025799999V0209999900671030001CN0200001N9+01721+01281999999ADDAY111061GF106991041011004501031001KA1999N+01221
0043104270999991928072412004+51183+008483FM-12+025799999V0202701N00671004501CN0200001N9+01611+00941999999ADDAY111061GF107991071051004501001001MW1471
0061104270999991928072506004+51183+008483FM-12+025799999V02099999009319999999N0040001N9+01891+01831999999ADDAA199000591AY141061GF108991011051001501999999KA1999N+01001
0037104270999991928072512004+51183+008483FM-12+025799999V0202501N00671002401CN0100001N9+01391+01331999999ADDAY121061GF108991081051002501999999
0067104270999991928072606004+51183+008483FM-12+025799999V02099999004619999999N0000001N9+99999+99999999999ADDAA199004091AY161061GF108991999051999999999999KA1999N+01221MW1451
0037104270999991928072612004+51183+008483FM-12+025799999V0202701N00931004501CN0200001N9+01611+00941999999ADDAY111061GF106991061051004501001001
0050104270999991928072706004+51183+008483FM-12+025799999V0209999900461220001CN0100001N9+99999+99999999999ADDAY101061GF102991999001999999001021KA1999N+01391
0051104270999991928072712004+51183+008483FM-12+025799999V0202301N00931220001CN0500001N9+02391+00781999999ADDAY101061GF104991011011008001021001MD1810141+9999
0061104270999991928072806004+51183+008483FM-12+025799999V0209999901231024001CN0100001N9+99999+99999999999ADDAA199010091AY141061GF108991999051999999999999KA1999N+01391
0037104270999991928072812004+51183+008483FM-12+025799999V0201801N01541030001CN0500001N9+01721+01281999999ADDAY111061GF107991041051004501021001
0051104270999991928073012004+51183+008483FM-12+025799999V0202501N01231030001CN0500001N9+01281+00611999999ADDAY111061GF106991041011004501021001MD1310061+9999
0050104270999991928073106004+51183+008483FM-12+025799999V02099999006719999999N0200001N9+01501+00611999999ADDAY111061GF107991999001999999001081KA1999N+01221
0037104270999991928073112004+51183+008483FM-12+025799999V0202001N00671030001CN0500001N9+01781+00891999999ADDAY111061GF106991011011008001021001
0050104270999991928080106004+51183+008483FM-12+025799999V02099999002619999999N0200001N9+99999+99999999999ADDAY111061GF106991999001999999021001KA1999N+01111
0037104270999991928080112004+51183+008483FM-12+025799999V0202301N00261220001CN0200001N9+01721+01061999999ADDAY121061GF108991999001999999021001
0067104270999991928080206004+51183+008483FM-12+025799999V02099999006719999999N0000001N9+01891+01831999999ADDAA199000691AY181061GF108991999051999999999999KA1999N+01001MW1451
0051104270999991928080212004+51183+008483FM-12+025799999V0203201N00261004501CN0200001N9+00891+00671999999ADDAY141061GF107991071051004501001001MD1310061+9999
0050104270999991928080306004+51183+008483FM-12+025799999V02099999004619999999N0200001N9+99999+99999999999ADDAY111061GF106991999001999999001081KA1999N+00611
0051104270999991928080312004+51183+008483FM-12+025799999V0200901N00671220001CN0200001N9+01391+00501999999ADDAY111061GF106991001001999999001081MD1810061+9999
0057104270999991928080412004+51183+008483FM-12+025799999V0202001N00931000151CN0010001N9+01501+01441999999ADDAY181061GF108991081051000251999999MD1610061+9999MW1101
0067104270999991928080506004+51183+008483FM-12+025799999V02099999012319999999N0000001N9+99999+99999999999ADDAA199001091AY161061GF108991999051999999999999KA1999N+01001MW1451
0100104270999991928080606004+51183+008483FM-12+025799999V02099999009319999999N0000501N9+00891+00831999999ADDAA199006091AY141061GF108991999051999999999999KA1999N+00721MD1310602+9999MW1431EQDQ01+000602APC3  
0051104270999991928080612004+51183+008483FM-12+025799999V0203201N00461220001CN0200001N9+01221+00781999999ADDAY101061GF104991041011004501001001MD1310061+9999
0050104270999991928080706004+51183+008483FM-12+025799999V02099999001019999999N0100001N9+99999+99999999999ADDAY111061GF107991999001999999001081KA1999N+01001
0037104270999991928080712004+51183+008483FM-12+025799999V0202301N00461030001CN0200001N9+01611+00941999999ADDAY111061GF108991011011008001021001
0050104270999991928080806004+51183+008483FM-12+025799999V0209999900931220001CN0200001N9+01721+01281999999ADDAY101061GF102991999001999999001021KA1999N+01281
0057104270999991928080812004+51183+008483FM-12+025799999V0202301N00671000151CN0000001N9+01501+01441999999ADDAY121061GF108991081051000251999999MD1610061+9999MW1511
0056104270999991928080906004+51183+008483FM-12+025799999V02099999004619999999N0000001N9+00891+00831999999ADDAY141061GF108991999051999999999999KA1999N+00781MW1451
0051104270999991928080912004+51183+008483FM-12+025799999V0202501N00671075001CN0200001N9+01391+00721999999ADDAY111061GF106991041011004501001021MD1310061+9999
0050104270999991928081006004+51183+008483FM-12+025799999V0209999900461015001CN0100001N9+99999+99999999999ADDAY111061GF107991071051017501001001KA1999N+00891
0037104270999991928081012004+51183+008483FM-12+025799999V0202701N00461004501CN0200001N9+01281+00611999999ADDAY111061GF107991071051004501001001
0050104270999991928081106004+51183+008483FM-12+025799999V02099999004619999999N0200001N9+01721+01281999999ADDAY121061GF108991999001999999021001KA1999N+01001
0037104270999991928081112004+51183+008483FM-12+025799999V0202501N00461004501CN0200001N9+01611+00941999999ADDAY111061GF107991071051004501001001
0050104270999991928081206004+51183+008483FM-12+025799999V0209999900671220001CN0200001N9+01611+00941999999ADDAY111061GF104991999001999999001091KA1999N+01281
0061104270999991928081306004+51183+008483FM-12+025799999V0209999900461015001CN0500001N9+01891+01831999999ADDAA199000691AY121061GF108991071011017501021001KA1999N+01111
0037104270999991928081312004+51183+008483FM-12+025799999V0202001N00461004501CN0200001N9+01281+00831999999ADDAY121061GF108991081051004501999999
0037104270999991928081412004+51183+008483FM-12+025799999V0201801N00671004501CN0200001N9+01501+01061999999ADDAY121061GF107991061051004501021001
0050104270999991928081506004+51183+008483FM-12+025799999V0209999900261220001CN0200001N9+01721+01281999999ADDAY101061GF104991999001999999001081KA1999N+01111
0037104270999991928081512004+51183+008483FM-12+025799999V0201801N00261075001CN0200001N9+01721+01061999999ADDAY111061GF106991041011004501001021
0100104270999991928081606004+51183+008483FM-12+025799999V02099999006719999999N0000001N9+00891+00831999999ADDAA199004091AY161061GF108991999051999999999999KA1999N+00781MD1310602+9999MW1451EQDQ01+000602APC3  
0051104270999991928081612004+51183+008483FM-12+025799999V0202301N00461030001CN0200001N9+01111+01061999999ADDAY181061GF106991021091004501021001MD1310061+9999
0081104270999991928081706004+51183+008483FM-12+025799999V0201401N009319999999N0005001N9+99999+99999999999ADDAA199005091AY161061GF108991999051999999999999KA1999N+00721MD1610071+9999MW1211
0051104270999991928081712004+51183+008483FM-12+025799999V0202501N00261002401CN0200001N9+00891+00831999999ADDAY111061GF108991081051002501999999MD1310061+9999
0061104270999991928081806004+51183+008483FM-12+025799999V02099999004619999999N0040001N9+99999+99999999999ADDAA199002091AY141061GF108991999051999999999999KA1999N+00721
0037104270999991928081812004+51183+008483FM-12+025799999V0202701N00461004501CN0200001N9+01111+00671999999ADDAY111061GF106991061051004501001001
0050104270999991928081906004+51183+008483FM-12+025799999V0209999900461220001CN0100001N9+99999+99999999999ADDAY101061GF102991021011002501001021KA1999N+00611
0050104270999991928082006004+51183+008483FM-12+025799999V02099999006719999999N0200001N9+01721+01281999999ADDAY111061GF106991999001999999021001KA1999N+01111
0037104270999991928082012004+51183+008483FM-12+025799999V0202301N00671004501CN0200001N9+01501+01061999999ADDAY111061GF108991081051004501999999
0067104270999991928082206004+51183+008483FM-12+025799999V02099999009319999999N0000001N9+99999+99999999999ADDAA199000391AY141061GF108991999051999999999999KA1999N+00611MW1451
0043104270999991928082212004+51183+008483FM-12+025799999V0202301N01231002401CN0200001N9+01001+00941999999ADDAY121061GF108991081061002501999999MW1631
0067104270999991928082306004+51183+008483FM-12+025799999V02099999002619999999N0000001N9+99999+99999999999ADDAA199000391AY141061GF108991999051999999999999KA1999N+00891MW1451
0057104270999991928082312004+51183+008483FM-12+025799999V0202301N00461000151CN0000001N9+01111+01061999999ADDAY161061GF108991081051000251999999MD1310141+9999MW1511
0050104270999991928082406004+51183+008483FM-12+025799999V0209999900671075001CN0100001N9+99999+99999999999ADDAY141061GF106991021011002501001021KA1999N+01001
0051104270999991928082412004+51183+008483FM-12+025799999V0202001N00671220001CN0200001N9+01891+01221999999ADDAY111061GF104991001001999999001021MD1810141+9999
0067104270999991928082506004+51183+008483FM-12+025799999V02099999009319999999N0010001N9+99999+99999999999ADDAA199000391AY161061GF108991999051999999999999KA1999N+01391MW1631
0051104270999991928082512004+51183+008483FM-12+025799999V0202501N00671004501CN0200001N9+01501+01281999999ADDAY111061GF106991061051004501001001MD1310261+9999
0050104270999991928082606004+51183+008483FM-12+025799999V0209999900461220001CN0200001N9+99999+99999999999ADDAY101061GF101991999001999999001021KA1999N+01221
0051104270999991928082712004+51183+008483FM-12+025799999V0202301N00931004501CN0500001N9+01501+01061999999ADDAY111061GF106991061011004501001001MD1310061+9999
0050104270999991928082806004+51183+008483FM-12+025799999V02099999004619999999N0200001N9+99999+99999999999ADDAY121061GF108991999001999999021001KA1999N+01221
0051104270999991928082812004+51183+008483FM-12+025799999V0202501N01231075001CN0200001N9+01501+01061999999ADDAY121061GF106991041051004501001021MD1310141+9999
0024104270999991928082906004+51183+008483FM-12+025799999V02099999004619999999N0040001N9+99999+99999999999ADDAY141061KA1999N+01221
0051104270999991928082912004+51183+008483FM-12+025799999V0202001N00461030001CN0200001N9+01611+01331999999ADDAY181061GF107991041051004501021001MD1410001+9999
0067104270999991928083006004+51183+008483FM-12+025799999V02099999006719999999N0000001N9+01891+01831999999ADDAA199003091AY141061GF108991999051999999999999KA1999N+01001MW1451
0057104270999991928083012004+51183+008483FM-12+025799999V0202701N01231000151CN0000501N9+01001+00941999999ADDAY181061GF108991081051000251999999MD1310141+9999MW1211
0067104270999991928083106004+51183+008483FM-12+025799999V02099999004619999999N0000001N9+99999+99999999999ADDAA199003091AY141061GF108991999051999999999999KA1999N+00721MW1451
0051104270999991928083112004+51183+008483FM-12+025799999V0202901N00461004501CN0200001N9+01001+00781999999ADDAY111061GF106991061011004501001001MD1310141+9999
0064104270999991928090106004+51183+008483FM-12+025799999V0209999900101220001CN0200001N9+00721+00501999999ADDAY111061GF102991011011002501001021KA1999N+00611MD1410001+9999
0051104270999991928090112004+51183+008483FM-12+025799999V0200201N00461004501CN0500001N9+00891+00061999999ADDAY111061GF106991061011004501001001MD1410001+9999
0050104270999991928090206004+51183+008483FM-12+025799999V0209999900261220001CN0200001N9+00781+00721999999ADDAY101061GF102991021011001501001021KA1999N+00611
0050104270999991928090306004+51183+008483FM-12+025799999V0209999900261220001CN0200001N9+00891+00441999999ADDAY101061GF101991001001999999001021KA1999N+00721
0051104270999991928090312004+51183+008483FM-12+025799999V0200501N00461030001CN0200001N9+01111+00501999999ADDAY111061GF106991041011004501021001MD1310061+9999
0037104270999991928090412004+51183+008483FM-12+025799999V0202001N00461220001CN0200001N9+01721+00831999999ADDAY101061GF100991001001999999001001
0050104270999991928090506004+51183+008483FM-12+025799999V0209999901231220001CN0200001N9+01501+00611999999ADDAY101061GF100991001001999999001001KA1999N+01221
0037104270999991928090512004+51183+008483FM-12+025799999V0201401N01231220001CN0500001N9+01781+00561999999ADDAY101061GF100991001001999999001001
0050104270999991928090606004+51183+008483FM-12+025799999V0209999900931075001CN0200001N9+01391+00941999999ADDAY111061GF106991011011004501001081KA1999N+01391
0051104270999991928090612004+51183+008483FM-12+025799999V0202301N01231030001CN0200001N9+01611+01331999999ADDAY111061GF106991041011004501021001MD1310141+9999
0064104270999991928090706004+51183+008483FM-12+025799999V0209999900261220001CN0200001N9+01001+00781999999ADDAY101061GF102991021011002501001021KA1999N+00781MD1310141+9999
0037104270999991928090712004+51183+008483FM-12+025799999V0201601N00461220001CN0200001N9+01391+00721999999ADDAY111061GF106991001001999999001081
0050104270999991928090806004+51183+008483FM-12+025799999V0209999900101220001CN0100001N9+01611+01331999999ADDAY101061GF101991001001999999001021KA1999N+01281
0051104270999991928090812004+51183+008483FM-12+025799999V0201801N00931220001CN0200001N9+02001+01331999999ADDAY101061GF102991011011004501001021MD1610061+9999
0050104270999991928090906004+51183+008483FM-12+025799999V0209999900931220001CN0100001N9+01781+01331999999ADDAY101061GF100991001001999999001001KA1999N+01501
0061104270999991928091006004+51183+008483FM-12+025799999V0209999900461220001CN0500001N9+01391+01331999999ADDAA199000391AY121061GF108991999001999999021001KA1999N+01281
0051104270999991928091012004+51183+008483FM-12+025799999V0202701N00461004501CN0100001N9+01501+01281999999ADDAY111061GF106991061051004501001021MD1310141+9999
0037104270999991928091112004+51183+008483FM-12+025799999V0202501N00461030001CN0100001N9+01281+01061999999ADDAY111061GF106991041051004501021001
0050104270999991928091206004+51183+008483FM-12+025799999V0209999900461220001CN0100001N9+00781+00721999999ADDAY141061GF106991999001999999021001KA1999N+00781
0037104270999991928091212004+51183+008483FM-12+025799999V0203201N00261004501CN0500001N9+01001+00111999999ADDAY111061GF106991061011004501001001
0050104270999991928091306004+51183+008483FM-12+025799999V0209999900461075001CN0200001N9+00721+00501999999ADDAY101061GF106991021051001501001021KA1999N+00501
0037104270999991928091312004+51183+008483FM-12+025799999V0200501N00461220001CN0500001N9+01111+00221999999ADDAY111061GF102991001001999999001081
0037104270999991928091406004+51183+008483FM-12+025799999V0209999900671000151CN0040001N9+00721+00671999999ADDAY141061GF108991081051000251999999
0037104270999991928091412004+51183+008483FM-12+025799999V0200701N00671075001CN0200001N9+01001+00391999999ADDAY111061GF107991041011004501001081
0050104270999991928091506004+51183+008483FM-12+025799999V0209999900461220001CN0200001N9+00891+00671999999ADDAY111061GF102991001001999999021021KA1999N+00721
0037104270999991928091512004+51183+008483FM-12+025799999V0201101N00461004501CN0200001N9+01111+00501999999ADDAY111061GF108991081051004501999999
0050104270999991928091606004+51183+008483FM-12+025799999V0209999900461220001CN0100001N9+01001+00781999999ADDAY111061GF104991021011002501001021KA1999N+00781
0081104270999991928091706004+51183+008483FM-12+025799999V0209999900461000151CN0000501N9+00391+00331999999ADDAA199001091AY141061GF108991081051000251999999KA1999N+00281MD1310061+9999MW1451
0037104270999991928091712004+51183+008483FM-12+025799999V0200701N00461220001CN0500001N9+01281+00111999999ADDAY101061GF102991021011004501001001
0050104270999991928091806004+51183+008483FM-12+025799999V0209991C00001220001CN0200001N9+01221+00611999999ADDAY101061GF102991001001999999001021KA1999N+00891
0051104270999991928091812004+51183+008483FM-12+025799999V0200501N00261220001CN0200001N9+01501+00611999999ADDAY101061GF102991001001999999001021MD1810061+9999
0050104270999991928091906004+51183+008483FM-12+025799999V0209999900101220001CN0100001N9+01281+00611999999ADDAY101061GF102991001001999999001021KA1999N+01111
0051104270999991928091912004+51183+008483FM-12+025799999V0203601N00101220001CN0200001N9+01611+00441999999ADDAY101061GF102991001001999999001021MD1610061+9999
0050104270999991928092006004+51183+008483FM-12+025799999V0209999900261000601CN0040001N9+00781+00721999999ADDAY141061GF108991081051000751999999KA1999N+00611
0051104270999991928092012004+51183+008483FM-12+025799999V0203201N00101220001CN0200001N9+01111+00001999999ADDAY111061GF104991041011004501001001MD1810061+9999
0051104270999991928092112004+51183+008483FM-12+025799999V0202901N00461075001CN0500001N9+00781-00061999999ADDAY111061GF106991041011004501001081MD1010001+9999
0037104270999991928092212004+51183+008483FM-12+025799999V0203401N00461004501CN0500001N9+00501-00111999999ADDAY111061GF106991061051004501001001
0067104270999991928092306004+51183+008483FM-12+025799999V0209999900461000151CN0000001N9+00221+00171999999ADDAA199000691AY141061GF108991081051000251999999KA1999N+00221MW1451
0057104270999991928092412004+51183+008483FM-12+025799999V0202301N00461001501CN0100001N9+00501+00441999999ADDAY161061GF108991081061001501999999MD1810141+9999MW1511
0081104270999991928092506004+51183+008483FM-12+025799999V0209999900931000151CN0000001N9+00281+00221999999ADDAA199005091AY141061GF108991081051000251999999KA1999N+00281MD1310141+9999MW1451
0051104270999991928092512004+51183+008483FM-12+025799999V0202501N00671002401CN0200001N9+00721+00671999999ADDAY141061GF107991071051002501001001MD1310061+9999
0064104270999991928092606004+51183+008483FM-12+025799999V0209991C00001220001CN0200001N9+00501+00281999999ADDAY101061GF101991001001999999001021KA1999N+00391MD1310061+9999
0051104270999991928092612004+51183+008483FM-12+025799999V0200901N00261004501CN0500001N9+00781+00171999999ADDAY111061GF106991061011004501001001MD1110061+9999
0050104270999991928092706004+51183+008483FM-12+025799999V0209999900261220001CN0200001N9+00721+00331999999ADDAY101061GF100991001001999999001001KA1999N+00501
0051104270999991928092712004+51183+008483FM-12+025799999V0201101N00261220001CN0500001N9+01001+00111999999ADDAY101061GF102991011011004501001021MD1810141+9999
0083104270999991928092806004+51183+008483FM-12+025799999V0209999900931220001CN0200001N9-01781-02111999999ADDAY111061GF107991999001999999021001KA1999N+99999MD1610141+9999EQDQ01 +00722ATMN  
0086104270999991928092812004+51183+008483FM-12+025799999V0201601N00461220001CN0200001N9+01112+00672999999ADDAY111061GF108991999001999999021001MD1810061+9999EQDQ01+028433ATOT  Q02+027993ATOD  
0061104270999991928092906004+51183+008483FM-12+025799999V0209999900101220001CN0100001N9+00781+00561999999ADDAA199001091AY121061GF108991999001999999021001KA1999N+00781
0043104270999991928092912004+51183+008483FM-12+025799999V0209991C00001000151CN0000001N9+00891+00831999999ADDAY161061GF108991081051000251999999MW1451
0043104270999991928093006004+51183+008483FM-12+025799999V0209999900671000151CN0000501N9+00501+00441999999ADDAY161061GF108991081051000251999999MW1631
0067104270999991928100106004+51183+008483FM-12+025799999V0209999901231000151CN0000001N9+00001-00061999999ADDAA199001091AY171061GF108991081051000251999999KA1999N+00001MW1711
0081104270999991928100206004+51183+008483FM-12+025799999V0209999901541000151CN0002001N9+00221+00171999999ADDAA199000591AY141061GF108991081051000251999999KA1999N+00111MD1810201+9999MW1451
0057104270999991928100212004+51183+008483FM-12+025799999V0202301N00931000151CN0000001N9+00391+00331999999ADDAY181061GF108991081051000251999999MD1510001+9999MW1211
0081104270999991928100306004+51183+008483FM-12+025799999V0209999900101000151CN0005001N9+00281+00221999999ADDAA199007091AY141061GF108991081051000251999999KA1999N+00281MD1310261+9999MW1421
0051104270999991928100312004+51183+008483FM-12+025799999V0203601N00101220001CN0500001N9+00721+00111999999ADDAY111061GF102991999011004501001001MD1110061+9999
0050104270999991928100406004+51183+008483FM-12+025799999V0209999900931220001CN0200001N9+00221-00171999999ADDAY101061GF102991001001999999001021KA1999N+00111
0037104270999991928100412004+51183+008483FM-12+025799999V0200901N00461220001CN0200001N9+00721+00331999999ADDAY111061GF106991001001999999001081
0037104270999991928100512004+51183+008483FM-12+025799999V0201101N00461220001CN0200001N9+00891+00281999999ADDAY101061GF100991001001999999001001
0043104270999991928100612004+51183+008483FM-12+025799999V0202301N00461000151CN0000001N9+01001+00941999999ADDAY141061GF108991081051000251999999MW1451
0056104270999991928100706004+51183+008483FM-12+025799999V0209999900461000151CN0000001N9+00611+00561999999ADDAY141061GF108991081051000251999999KA1999N+00611MW1441
0064104270999991928100806004+51183+008483FM-12+025799999V0209999900671220001CN0200001N9+00721+00671999999ADDAY111061GF104991001001999999031021KA1999N+00721MD1810061+9999
0064104270999991928100906004+51183+008483FM-12+025799999V0209999900931220001CN0200001N9+00781+00721999999ADDAY111061GF107991999001999999021001KA1999N+00721MD1810061+9999
0051104270999991928100912004+51183+008483FM-12+025799999V0201401N00931220001CN0200001N9+99999+99999999999ADDAY111061GF104991021011002501001021MD1810201+9999
0081104270999991928101006004+51183+008483FM-12+025799999V0209999901231000151CN0000001N9+00721+00671999999ADDAA199008091AY161061GF108991081051000251999999KA1999N+00721MD1410001+9999MW1611
0043104270999991928101012004+51183+008483FM-12+025799999V0202301N00461000151CN0000001N9+00721+00671999999ADDAY161061GF108991081051000251999999MW1631
0061104270999991928101106004+51183+008483FM-12+025799999V0209999900461220001CN0200001N9+00281+00221999999ADDAA199003091AY111061GF107991999001999999021001KA1999N+00221
0057104270999991928101112004+51183+008483FM-12+025799999V0201401N00671000151CN0000001N9+00611+00561999999ADDAY161061GF108991081051000251999999MD1990341+9999MW1511
0067104270999991928101206004+51183+008483FM-12+025799999V0209999901541000151CN0000001N9+00001-00061999999ADDAA199010091AY161061GF108991081051000251999999KA1999N+00001MW1711
0051104270999991928101212004+51183+008483FM-12+025799999V0203601N00461002401CN0200001N9+00001-00061999999ADDAY141061GF108991081051002501999999MD1110061+9999
0064104270999991928101306004+51183+008483FM-12+025799999V0209999900671220001CN0500001N9-00281-00331999999ADDAY111061GF106991999001999999021001KA1999N-00391MD1310141+9999
0037104270999991928101312004+51183+008483FM-12+025799999V0203201N00461004501CN0500001N9+00221-00171999999ADDAY111061GF107991061051004501021001
0075104270999991928101406004+51183+008483FM-12+025799999V0209999900671000601CN0100001N9-00221-00281999999ADDAA199003091AY111061GF108991071051000751021001KA1999N-00281MD1310141+9999
0064104270999991928101506004+51183+008483FM-12+025799999V0209999900101220001CN0500001N9-00221-00391999999ADDAY101061GF102991001001999999001021KA1999N-00281MD1610061+9999
0051104270999991928101512004+51183+008483FM-12+025799999V0201401N00461220001CN0500001N9+00281-00501999999ADDAY101061GF102991001001999999001021MD1810061+9999
0050104270999991928101606004+51183+008483FM-12+025799999V0209999900671220001CN0200001N9-00111-00281999999ADDAY101061GF100991001001999999001001KA1999N-00221
0037104270999991928101612004+51183+008483FM-12+025799999V0202001N00671220001CN0200001N9+00391-00171999999ADDAY101061GF106991001001999999001021
0081104270999991928101706004+51183+008483FM-12+025799999V0209999900461000601CN0040001N9+00221+00171999999ADDAA199000691AY161061GF108991081061000751999999KA1999N+00001MD1610061+9999MW1511
0057104270999991928101712004+51183+008483FM-12+025799999V0202301N00931000151CN0000001N9+00501+00441999999ADDAY161061GF108991081051000251999999MD1810061+9999MW1511
0081104270999991928101806004+51183+008483FM-12+025799999V0209999900461000151CN0000501N9+00721+00671999999ADDAA199007091AY121061GF108991081051000251999999KA1999N+00721MD1310141+9999MW1471
0051104270999991928101812004+51183+008483FM-12+025799999V0202301N00931075001CN0200001N9+01001+00611999999ADDAY111061GF106991021011004501001081MD1990141+9999
0067104270999991928101906004+51183+008483FM-12+025799999V0209999901541000151CN0000501N9+00611+00561999999ADDAA199017091AY141061GF108991081051000251999999KA1999N+00611MW1451
0043104270999991928101912004+51183+008483FM-12+025799999V0202301N01231004501CN0200001N9+00721+00671999999ADDAY161061GF108991081061004501999999MW1501
0081104270999991928102006004+51183+008483FM-12+025799999V0209999901231000151CN0000001N9+00781+00721999999ADDAA199001091AY141061GF108991081051000251999999KA1999N+00721MD1510141+9999MW1451
0051104270999991928102012004+51183+008483FM-12+025799999V0200901N00931030001CN0200001N9+01111+01061999999ADDAY111061GF106991011011008001021001MD1810141+9999
0081104270999991928102106004+51183+008483FM-12+025799999V0209999900671000151CN0000001N9+00721+00671999999ADDAA199014091AY141061GF108991081051000251999999KA1999N+00721MD1610061+9999MW1451
0070104270999991928102206004+51183+008483FM-12+025799999V0209999900101000151CN0000001N9+00611+00561999999ADDAY141061GF108991081051000251999999KA1999N+00611MD1810061+9999MW1451
0057104270999991928102212004+51183+008483FM-12+025799999V0202001N00261000601CN0100001N9+00721+00671999999ADDAY161061GF108991081061000751999999MD1810141+9999MW1511
0056104270999991928102306004+51183+008483FM-12+025799999V0209999900671000151CN0000001N9+00501+00441999999ADDAY141061GF108991081051000251999999KA1999N+00501MW1451
0057104270999991928102312004+51183+008483FM-12+025799999V0202501N00931000601CN0040001N9+00611+00561999999ADDAY161061GF108991081061000751999999MD1810141+9999MW1631
0070104270999991928102406004+51183+008483FM-12+025799999V0209999900671000151CN0000001N9+00501+00441999999ADDAY141061GF108991081051000251999999KA1999N+00281MD1310141+9999MW1451
0057104270999991928102412004+51183+008483FM-12+025799999V0202301N01231000151CN0000001N9+00781+00721999999ADDAY141061GF108991081051000251999999MD1310061+9999MW1451
0067104270999991928102506004+51183+008483FM-12+025799999V0209999901231000151CN0000001N9+01001+00941999999ADDAA199006091AY161061GF108991081051000251999999KA1999N+00891MW1211
0043104270999991928102512004+51183+008483FM-12+025799999V0202001N00461000151CN0000001N9+00891+00831999999ADDAY161061GF108991081051000251999999MW1621
0081104270999991928102606004+51183+008483FM-12+025799999V0209999900671000151CN0000001N9+00781+00721999999ADDAA199004091AY161061GF108991081051000251999999KA1999N+00781MD1810201+9999MW1511
0064104270999991928102706004+51183+008483FM-12+025799999V0209999900671220001CN0200001N9+00721+00671999999ADDAY111061GF108991999001999999021001KA1999N+00721MD1810261+9999
0069104270999991928102806004+51183+008483FM-12+025799999V0209999900101220001CN0100001N9+00781+00721999999ADDAY111061GF107991999001999999021001KA1999N+99999EQDQ01 +00892ATMN  
0067104270999991928102906004+51183+008483FM-12+025799999V0209999900261000151CN0000001N9+00281+00221999999ADDAA199007091AY141061GF108991081051000251999999KA1999N+00281MW1451
0037104270999991928102912004+51183+008483FM-12+025799999V0202701N00931004501CN0200001N9+00391+00331999999ADDAY111061GF107991071011004501001001
0056104270999991928103006004+51183+008483FM-12+025799999V0209999900931000151CN0000001N9+00281+00221999999ADDAY141061GF108991081051000251999999KA1999N+00221MW1451
0061104270999991928103106004+51183+008483FM-12+025799999V0209999900461220001CN0100001N9+00391+00331999999ADDAA199001091AY111061GF102991999051000251999999KA1999N+00221
0037104270999991928103112004+51183+008483FM-12+025799999V0201801N00261220001CN0100001N9+00721+00111999999ADDAY111061GF108991999001999999021001
0067104270999991928110206004+51183+008483FM-12+025799999V0209999900671000151CN0000001N9+00391+00331999999ADDAA199008091AY141061GF108991081051000251999999KA1999N+00391MW1451
0043104270999991928110212004+51183+008483FM-12+025799999V0202001N00261000151CN0000001N9+00501+00441999999ADDAY141061GF108991081051000251999999MW1451
0070104270999991928110306004+51183+008483FM-12+025799999V0209999900461000151CN0000001N9+00391+00331999999ADDAY141061GF108991081051000251999999KA1999N+00391MD1310061+9999MW1451
0043104270999991928110312004+51183+008483FM-12+025799999V0201801N00461000151CN0000001N9+00391+00331999999ADDAY141061GF108991081051000251999999MW1451
0050104270999991928110406004+51183+008483FM-12+025799999V0209991C00001220001CN0200001N9+00611+00001999999ADDAY111061GF106991999001999999021001KA1999N+00281
0056104270999991928110506004+51183+008483FM-12+025799999V0209999900461000151CN0000001N9+00281+00221999999ADDAY141061GF108991081051000251999999KA1999N+00281MW1451
0057104270999991928110512004+51183+008483FM-12+025799999V0202301N00461000151CN0040001N9+00281+00061999999ADDAY141061GF108991081051000251999999MD1810141+9999MW1421
0067104270999991928110606004+51183+008483FM-12+025799999V0209999900461000151CN0000001N9+00111+00061999999ADDAA199001091AY141061GF108991081051000251999999KA1999N+00111MW1451
0037104270999991928110612004+51183+008483FM-12+025799999V0202301N00671004501CN0100001N9+00221+00171999999ADDAY111061GF106991061091004501001001
0050104270999991928110706004+51183+008483FM-12+025799999V0209999900461220001CN0100001N9+00111+00061999999ADDAY101061GF102991021051000251001001KA1999N+00001
0070104270999991928110806004+51183+008483FM-12+025799999V0209999900931000151CN0002001N9-00221-00281999999ADDAY141061GF108991081051000251999999KA1999N-00221MD1810141+9999MW1451
0043104270999991928110812004+51183+008483FM-12+025799999V0200701N01231000151CN0002001N9+00111+00061999999ADDAY141061GF108991081051000251999999MW1451
0081104270999991928110906004+51183+008483FM-12+025799999V0209999900931000151CN0000001N9+00111+00061999999ADDAA199001091AY141061GF108991081051000251999999KA1999N+00111MD1310061+9999MW1451
0043104270999991928110912004+51183+008483FM-12+025799999V0200201N00931000151CN0000001N9+00001-00061999999ADDAY141061GF108991081051000251999999MW1451
0064104270999991928111006004+51183+008483FM-12+025799999V0209991C00001220001CN0100001N9-00501-00561999999ADDAY101061GF101991999001999999021001KA1999N-00501MD1310141+9999
0051104270999991928111012004+51183+008483FM-12+025799999V0203401N00101220001CN0100001N9+00001-00221999999ADDAY101061GF102991001001999999001081MD1810061+9999
0067104270999991928111206004+51183+008483FM-12+025799999V0209999900261000151CN0000001N9+00281+00221999999ADDAA199007091AY161061GF108991081051000251999999KA1999N+00111MW1451
0043104270999991928111212004+51183+008483FM-12+025799999V0202501N00461000151CN0000001N9+00611+00561999999ADDAY141061GF108991081051000251999999MW1451
0057104270999991928111312004+51183+008483FM-12+025799999V0202301N00261000151CN0000001N9+00721+00671999999ADDAY141061GF108991081051000251999999MD1810061+9999MW1451
0043104270999991928111412004+51183+008483FM-12+025799999V0202701N00261000151CN0000001N9+00501+00441999999ADDAY141061GF108991081051000251999999MW1451
0051104270999991928111512004+51183+008483FM-12+025799999V0202301N01231001501CN0100001N9+00391+00331999999ADDAY121061GF108991081051001501999999MD1810201+9999
0057104270999991928111612004+51183+008483FM-12+025799999V0202301N00931000151CN0000001N9+00501+00441999999ADDAY141061GF108991081051000251999999MD1810201+9999MW1451
0081104270999991928111906004+51183+008483FM-12+025799999V0209999900461000151CN0000001N9+00281+00221999999ADDAA199004091AY141061GF108991081051000251999999KA1999N+00111MD1310141+9999MW1451
0037104270999991928111912004+51183+008483FM-12+025799999V0202301N00671075001CN0100001N9+00391+00331999999ADDAY111061GF106991021011001501001081
0051104270999991928112012004+51183+008483FM-12+025799999V0202501N00461004501CN0200001N9+00501+00441999999ADDAY111061GF106991061011004501001001MD1310201+9999
0050104270999991928112106004+51183+008483FM-12+025799999V0209999900461220001CN0100001N9+00221+00171999999ADDAY111061GF104991999001999999031001KA1999N+00111
0057104270999991928112212004+51183+008483FM-12+025799999V0202301N01231000151CN0000001N9+00611+00561999999ADDAY141061GF108991081051000251999999MD1810141+9999MW1451
0081104270999991928112306004+51183+008483FM-12+025799999V0209999900671000151CN0000001N9+00611+00561999999ADDAA199027091AY161061GF108991081051000251999999KA1999N+00391MD1810141+9999MW1631
0051104270999991928112312004+51183+008483FM-12+025799999V0202501N01231001501CN0500001N9+00501+00441999999ADDAY121061GF108991081061001501999999MD1810261+9999
0067104270999991928112406004+51183+008483FM-12+025799999V0209999901901001501CN0100001N9+00111+00061999999ADDAA199019091AY181061GF108991081061001501999999KA1999N+00111MW1891
0057104270999991928112412004+51183+008483FM-12+025799999V0202301N01541000151CN0000001N9+00001-00061999999ADDAY171061GF108991081051000251999999MD1510001+9999MW1751
0081104270999991928112506004+51183+008483FM-12+025799999V0209999901231000151CN0000001N9+00111+00061999999ADDAA199022091AY161061GF108991081051000251999999KA1999N+00001MD1810061+9999MW1631
0057104270999991928112612004+51183+008483FM-12+025799999V0202701N01541000601CN0005001N9+00001-00061999999ADDAY171061GF108991081061000751999999MD1310341+9999MW1721
0043104270999991928112712004+51183+008483FM-12+025799999V0202701N00261000151CN0000001N9-00111-00171999999ADDAY141061GF108991081051000251999999MW1451
0057104270999991928112812004+51183+008483FM-12+025799999V0203201N00931000151CN0000001N9+00001-00061999999ADDAY141061GF108991081051000251999999MD1310061+9999MW1231
0081104270999991928112906004+51183+008483FM-12+025799999V0209999900931000151CN0000001N9-00111-00171999999ADDAA199007091AY171061GF108991081051000251999999KA1999N-00111MD1310141+9999MW1721
0092104270999991928112912004+51183+008483FM-12+025799999V0203201N00671000151CN0005001N9-00111+99999999999ADDAY141061GF108991081051000251999999MD1310061+9999MW1451EQDQ01+024043ATOD  Q02 -03283ATOD  
0057104270999991928113012004+51183+008483FM-12+025799999V0202501N00671000151CN0000001N9-00111-00171999999ADDAY161061GF108991081051000251999999MD1810201+9999MW1531
0083104270999991928120306004+51183+008483FM-12+025799999V0209999900671000601CN0100001N9-00221-00281999999ADDAY141061GF108991081051000751999999KA1999N+99999MD1310141+9999EQDQ01 +00222ATMN  
0092104270999991928120312004+51183+008483FM-12+025799999V0203201N00101000151CN0005001N9-00111+99999999999ADDAY141061GF108991081051000251999999MD1310061+9999MW1451EQDQ01+024043ATOD  Q02 -03283ATOD  
0037104270999991928120412004+51183+008483FM-12+025799999V0202001N00101007801CN0200001N9+00001-00061999999ADDAY121061GF108991081051008001999999
0064104270999991928120506004+51183+008483FM-12+025799999V0209999900671220001CN0200001N9-00221-00391999999ADDAY101061GF102991021051000251001001KA1999N-00221MD1810061+9999
0051104270999991928120512004+51183+008483FM-12+025799999V0202001N00671220001CN0200001N9+00001-00221999999ADDAY101061GF102991021051000751001001MD1810141+9999
0057104270999991928120612004+51183+008483FM-12+025799999V0202301N00461000151CN0000001N9+00111+00061999999ADDAY141061GF108991081051000251999999MD1810201+9999MW1451
0067104270999991928120706004+51183+008483FM-12+025799999V0209999900931000151CN0000001N9-00111-00171999999ADDAA199016091AY171061GF108991081051000251999999KA1999N-00221MW1731
0037104270999991928120712004+51183+008483FM-12+025799999V0202701N00671004501CN0200001N9-00111-00171999999ADDAY111061GF106991061011004501001001
0037104270999991928120812004+51183+008483FM-12+025799999V0202701N00261004501CN0100001N9-00281-00331999999ADDAY111061GF107991071051004501001001
0070104270999991928121006004+51183+008483FM-12+025799999V0209999900671220001CN0002001N9-00781-00831999999ADDAY141061GF104991041051000251001001KA1999N-00891MD1810201+9999MW1441
0070104270999991928121106004+51183+008483FM-12+025799999V0209999901231000151CN0000001N9-00281-00331999999ADDAY141061GF108991081051000251999999KA1999N-00891MD1610201+9999MW1451
0057104270999991928121112004+51183+008483FM-12+025799999V0201101N00931000151CN0000001N9-00281-00331999999ADDAY141061GF108991081051000251999999MD1810061+9999MW1451
0070104270999991928121206004+51183+008483FM-12+025799999V0209999900461000151CN0000001N9-00501-00561999999ADDAY141061GF108991081051000251999999KA1999N-00501MD1310061+9999MW1451
0057104270999991928121212004+51183+008483FM-12+025799999V0200901N00461000151CN0000001N9-00501-00561999999ADDAY141061GF108991081051000251999999MD1310061+9999MW1451
0070104270999991928121306004+51183+008483FM-12+025799999V0209999900671000151CN0000001N9-00501-00561999999ADDAY141061GF108991081051000251999999KA1999N-00501MD1310141+9999MW1451
0057104270999991928121312004+51183+008483FM-12+025799999V0200701N00931000151CN0000501N9-00501-00561999999ADDAY171061GF108991081051000251999999MD1110061+9999MW1711
0043104270999991928121412004+51183+008483FM-12+025799999V0202701N00261000151CN0002001N9-00501-00561999999ADDAY171061GF108991081051000251999999MW1711
0057104270999991928121512004+51183+008483FM-12+025799999V0209991C00001000151CN0002001N9-00501-00561999999ADDAY141061GF108991081051000251999999MD1310201+9999MW1231
0057104270999991928121712004+51183+008483FM-12+025799999V0202001N00671000151CN0000501N9-00501-00561999999ADDAY171061GF108991081051000251999999MD1810141+9999MW1721
0067104270999991928121806004+51183+008483FM-12+025799999V0209999900101000151CN0000001N9-00281-00331999999ADDAA199001091AY141061GF108991081051000251999999KA1999N-00501MW1451
0057104270999991928121812004+51183+008483FM-12+025799999V0201401N00461000151CN0000501N9-00281-00331999999ADDAY141061GF108991081051000251999999MD1310141+9999MW1451
0043104270999991928121912004+51183+008483FM-12+025799999V0209991C00001000151CN0000501N9-00611-00671999999ADDAY141061GF108991081051000251999999MW1451
0070104270999991928122006004+51183+008483FM-12+025799999V0209999900261000151CN0000501N9-00721-00781999999ADDAY141061GF108991081051000251999999KA1999N-00721MD1810061+9999MW1451
0057104270999991928122012004+51183+008483FM-12+025799999V0201601N00671000151CN0000501N9-00781-00831999999ADDAY141061GF108991081051000251999999MD1810201+9999MW1451
0056104270999991928122106004+51183+008483FM-12+025799999V0209999900461000151CN0000501N9-00891-00941999999ADDAY141061GF108991081051000251999999KA1999N-00891MW1421
0043104270999991928122112004+51183+008483FM-12+025799999V0202001N00261000151CN0000501N9-00611-00671999999ADDAY141061GF106991061051000251001001MW1441
0043104270999991928122212004+51183+008483FM-12+025799999V0202701N00461000151CN0000501N9-00391-00441999999ADDAY141061GF108991081051000251999999MW1451
0043104270999991928122406004+51183+008483FM-12+025799999V0209999900461000151CN0000001N9-00281-00331999999ADDAY141061GF108991081051000251999999MW1451
0057104270999991928122412004+51183+008483FM-12+025799999V0202001N00671000151CN0000001N9-00281-00331999999ADDAY141061GF108991081051000251999999MD1810141+9999MW1451
0057104270999991928122712004+51183+008483FM-12+025799999V0202701N00671000151CN0005001N9-00221-00281999999ADDAY141061GF108991081051000251999999MD1990141+9999MW1441
0057104270999991928122812004+51183+008483FM-12+025799999V0201601N00461000151CN0002001N9-00281-00331999999ADDAY171061GF108991081051000251999999MD1810261+9999MW1731
0067104270999991928122906004+51183+008483FM-12+025799999V0209999900461000151CN0000501N9-00221-00281999999ADDAA199002091AY141061GF108991081051000251999999KA1999N-00281MW1231
0057104270999991928122912004+51183+008483FM-12+025799999V0202501N00461000151CN0000501N9+00001-00061999999ADDAY141061GF108991081051000251999999MD1810141+9999MW1451
0037104270999991928123112004+51183+008483FM-12+025799999V0203201N00461000151CN0100001N9-00221-00281999999ADDAY121061GF108991081051000251999999
