0083104270999991927041706004+51183+008483FM-12+025799999V02099999006719999999N0200001N9+99999+99999999999ADDAY121061GF108991999001999999021001KA1999N-00281MD1310602+9999EQDQ01+000602APC3  
0056104270999991927041906004+51183+008483FM-12+025799999V02099999002619999999N0000001N9+99999+99999999999ADDAY141061GF108991999051999999999999KA1999N+00391MW1451
0064104270999991927042006004+51183+008483FM-12+025799999V0209999900261220001CN0040001N9+00721+00331999999ADDAY101061GF101991999001999999001021KA1999N+00611MD1990151+9999
0037104270999991927050206004+51183+008483FM-12+025799999V0209999900931015001CN0005001N9+00721+00331999999ADDAY111061GF106991999011017501031001
0037104270999991927050212004+51183+008483FM-12+025799999V0201401N01231075001CN0100001N9+00721+00671999999ADDAY111061GF108991041091008001001081
0037104270999991927050306004+51183+008483FM-12+025799999V0209999900261220001CN0100001N9+00891+00831999999ADDAY111061GF102991999001999999001081
0050104270999991927050406004+51183+008483FM-12+025799999V0209999900461220001CN0100001N9+01891+01831999999ADDAY101061GF102991999001999999001021KA1999N+00781
0051104270999991927050412004+51183+008483FM-12+025799999V0200901N00931220001CN0100001N9+01501+00831999999ADDAY101061GF104991021091012501001021MD1810061+9999
0050104270999991927050506004+51183+008483FM-12+025799999V0209991C00001220001CN0100001N9+01611+00941999999ADDAY101061GF100991001001999999001001KA1999N+01111
0050104270999991927050606004+51183+008483FM-12+025799999V0209999900101220001CN0100001N9+01721+01281999999ADDAY101061GF102991999001999999001081KA1999N+01111
0051104270999991927050612004+51183+008483FM-12+025799999V0200201N00461220001CN0200001N9+01781+00891999999ADDAY101061GF102991011011012501001081MD1310141+9999
0050104270999991927050706004+51183+008483FM-12+025799999V0209999900461220001CN0100001N9+99999+99999999999ADDAY101061GF101991999001999999001081KA1999N+01891
0051104270999991927050712004+51183+008483FM-12+025799999V0200901N00931220001CN0200001N9+01611+00941999999ADDAY101061GF104991041011008001001001MD1310061+9999
0050104270999991927050806004+51183+008483FM-12+025799999V0209999900461220001CN0200001N9+00891+00831999999ADDAY101061GF101991999001999999001021KA1999N+00501
0050104270999991927050906004+51183+008483FM-12+025799999V0209999900101220001CN0200001N9+01611+00941999999ADDAY101061GF101991999001999999001021KA1999N+01111
0037104270999991927050912004+51183+008483FM-12+025799999V0200901N00101220001CN0200001N9+01721+00831999999ADDAY101061GF104991021011012501001021
0056104270999991927051006004+51183+008483FM-12+025799999V0209999900671024001CN0040001N9+99999+99999999999ADDAY101061GF108991999051999999999999KA1999N+00221MW1421
0037104270999991927051012004+51183+008483FM-12+025799999V0200201N00931220001CN0200001N9+00501-00111999999ADDAY101061GF104991021011008001031001
0069104270999991927051106004+51183+008483FM-12+025799999V0209999900261220001CN0200001N9-00721-01061999999ADDAY101061GF101991999001999999001021KA1999N+99999EQDQ01 -00282ATMN  
0051104270999991927051112004+51183+008483FM-12+025799999V0203601N00671220001CN0500001N9+00391-00611999999ADDAY101061GF102991021011012501001001MD1110061+9999
0070104270999991927051206004+51183+008483FM-12+025799999V02099999006719999999N0000001N9+99999+99999999999ADDAY111061GF108991999051999999999999KA1999N-00221MD1990151+9999MW1451
0061104270999991927051306004+51183+008483FM-12+025799999V02099999006719999999N0200001N9+00001-03221999999ADDAA199000691AY171061GF108991999061999999999999KA1999N-00221
0076104270999991927051312004+51183+008483FM-12+025799999V0202701N00671000601CN0010001N9+00001-00062999999ADDAY171061GF108991081061000751999999MD1310061+9999MW1721EQDQ01+027263ATOD  
0050104270999991927051406004+51183+008483FM-12+025799999V0209999900461012301CN0100001N9+99999+99999999999ADDAY141061GF107991071061012501001001KA1999N-00281
0043104270999991927051412004+51183+008483FM-12+025799999V0203201N00931002401CN0100001N9+00221+00001999999ADDAY171061GF107991061091002501001081MW1701
0061104270999991927051606004+51183+008483FM-12+025799999V02099999006719999999N0100001N9+99999+99999999999ADDAA199004091AY161061GF108991999061999999999999KA1999N+00391
0037104270999991927051612004+51183+008483FM-12+025799999V0202501N00671007801CN0200001N9+01111+00671999999ADDAY111061GF108991061091008001001091
0050104270999991927051706004+51183+008483FM-12+025799999V0209999900461015001CN0100001N9+01891+01831999999ADDAY111061GF106991999011017501001081KA1999N+00891
0051104270999991927051812004+51183+008483FM-12+025799999V0202501N00261220001CN0200001N9+01111+00221999999ADDAY101061GF104991999011000251001001MD1310201+9999
0050104270999991927051906004+51183+008483FM-12+025799999V0209999900261220001CN0200001N9+00721+00331999999ADDAY101061GF104991999001999999001081KA1999N+00391
0056104270999991927052006004+51183+008483FM-12+025799999V02099999004619999999N0010001N9+99999+99999999999ADDAY101061GF108991999051999999999999KA1999N+00281MW1101
0037104270999991927052012004+51183+008483FM-12+025799999V0200201N00261220001CN0200001N9+00781+00171999999ADDAY101061GF102991011011008001001021
0050104270999991927052106004+51183+008483FM-12+025799999V0209999900461015001CN0100001N9+99999+99999999999ADDAY101061GF106991999011017501021001KA1999N+00501
0051104270999991927052112004+51183+008483FM-12+025799999V0202301N004619999999N0100001N9+01001+00611999999ADDAY111061GF107991021091999999021001MD1810061+9999
0037104270999991927052306004+51183+008483FM-12+025799999V02099999009319999999N0100001N9+99999+99999999999ADDAY161061GF108991999061999999999999
0051104270999991927052312004+51183+008483FM-12+025799999V0202701N00931030001CN0100001N9+00281+00061999999ADDAY171061GF106991041091004501021001MD1310141+9999
0056104270999991927052406004+51183+008483FM-12+025799999V02099999009319999999N0000001N9+99999+99999999999ADDAY141061GF108991999051000251999999KA1999N+00111MW1451
0043104270999991927052412004+51183+008483FM-12+025799999V0202701N00671000151CN0000001N9+00501+00441999999ADDAY161061GF108991081051000251999999MW1451
0061104270999991927052506004+51183+008483FM-12+025799999V0209999900671220001CN0100001N9+99999+99999999999ADDAA199002091AY141061GF104991041011008001001001KA1999N+00111
0037104270999991927052512004+51183+008483FM-12+025799999V0202901N00931220001CN0000001N9+00611+00001999999ADDAY101061GF102991021011008001001001
0050104270999991927052606004+51183+008483FM-12+025799999V02099999006719999999N0100001N9+00891+00831999999ADDAY111061GF108991999061999999999999KA1999N+00001
0061104270999991927052706004+51183+008483FM-12+025799999V02099999006719999999N0040001N9+99999+99999999999ADDAA199001091AY171061GF108991999061999999999999KA1999N+00001
0037104270999991927052712004+51183+008483FM-12+025799999V0202901N00671075001CN0010001N9+00391+00331999999ADDAY161061GF106991041061004501001081
0050104270999991927052806004+51183+008483FM-12+025799999V02099999012319999999N0040001N9+99999+99999999999ADDAY141061GF108991999061002501999999KA1999N+00001
0037104270999991927052812004+51183+008483FM-12+025799999V0202501N00461075001CN0100001N9+00611+00221999999ADDAY161061GF106991041091008001001081
0056104270999991927052906004+51183+008483FM-12+025799999V02099999006719999999N9999999N9+00891+00831999999ADDAY111061GF108991999051999999999999KA1999N+00111MW1431
0037104270999991927053012004+51183+008483FM-12+025799999V0202301N00261030001CN0200001N9+01391+00941999999ADDAY111061GF107991021051004501021001
0061104270999991927053106004+51183+008483FM-12+025799999V0209999900671015001CN0100001N9+99999+99999999999ADDAA199000691AY191061GF106991999011017501001081KA1999N+00611
0057104270999991927053112004+51183+008483FM-12+025799999V0202001N00931004501CN0200001N9+02001+01561999999ADDAY111061GF108991061091004501001081MD1510061+9999MW1951
0037104270999991927060106004+51183+008483FM-12+025799999V0209999900931015001CN0100001N9+99999+99999999999ADDAY191061GF106991999011017501001081
0050104270999991927060206004+51183+008483FM-12+025799999V0209999900101015001CN0200001N9+99999+99999999999ADDAY111061GF108991071011017501021001KA1999N+00781
0057104270999991927060212004+51183+008483FM-12+025799999V0202501N00101030001CN0200001N9+01281+01221999999ADDAY191061GF108991041091004501021001MD1110061+9999MW1951
0050104270999991927060306004+51183+008483FM-12+025799999V0209999900671030001CN9999999N9+99999+99999999999ADDAY111061GF108991041061004501021001KA1999N+01111
0051104270999991927060312004+51183+008483FM-12+025799999V0202301N00671030001CN0100001N9+01221+01171999999ADDAY111061GF108991021091002501021001MD1310061+9999
0050104270999991927060406004+51183+008483FM-12+025799999V0209999900461012301CN0040001N9+99999+99999999999ADDAY141061GF106991999051012501001021KA1999N+00721
0050104270999991927060506004+51183+008483FM-12+025799999V0209999900461220001CN0200001N9+99999+99999999999ADDAY111061GF104991999011017501001021KA1999N+00391
0081104270999991927060606004+51183+008483FM-12+025799999V02099999015419999999N0000001N9+99999+99999999999ADDAA199005091AY161061GF108991999051999999999999KA1999N+00391MD1990211+9999MW1631
0094104270999991927060706004+51183+008483FM-12+025799999V0209999900671012301CN0040001N9+99999+99999999999ADDAA199003091AY141061GF106991999061012501031001KA1999N+00221MD1310602+9999EQDQ01+000602APC3  
0051104270999991927060712004+51183+008483FM-12+025799999V0202501N00461004501CN0200001N9+00781+00721999999ADDAY111061GF106991061051004501001021MD1310061+9999
0067104270999991927060806004+51183+008483FM-12+025799999V02099999009319999999N0000001N9+99999+99999999999ADDAA199004091AY161061GF108991999051999999999999KA1999N+00611MW1451
0043104270999991927060812004+51183+008483FM-12+025799999V0203601N01231001501CN0020001N9+00611+00561999999ADDAY161061GF108991081061001501999999MW1811
0051104270999991927060912004+51183+008483FM-12+025799999V0202701N00461004501CN0200001N9+01001+00781999999ADDAY181061GF106991061051004501001001MD1990061+9999
0061104270999991927061006004+51183+008483FM-12+025799999V0209999900101015001CN0200001N9+00501-00281999999ADDAA199001091AY141061GF106991999051017501021001KA1999N+00221
0051104270999991927061012004+51183+008483FM-12+025799999V0202501N00461007801CN0200001N9+01111+00501999999ADDAY111061GF106991061051008001001001MD1810141+9999
0050104270999991927061106004+51183+008483FM-12+025799999V02099999004619999999N0200001N9+00891+00831999999ADDAY121061GF108991999001999999021001KA1999N+00611
0043104270999991927061112004+51183+008483FM-12+025799999V0201401N00461220001CN0100001N9+01001+00941999999ADDAY161061GF108991999001999999021001MW1611
0056104270999991927061206004+51183+008483FM-12+025799999V02099999006719999999N0000001N9+99999+99999999999ADDAY141061GF108991999051999999999999KA1999N+00281MW1451
0056104270999991927061306004+51183+008483FM-12+025799999V02099999004619999999N0000001N9+99999+99999999999ADDAY141061GF108991999051999999999999KA1999N+00611MW1451
0037104270999991927061312004+51183+008483FM-12+025799999V0201401N00261004501CN0100001N9+01111+01061999999ADDAY141061GF107991071051004501001001
0056104270999991927061406004+51183+008483FM-12+025799999V0209999900101220001CN0005001N9+99999+99999999999ADDAY121061GF104991999051999999001021KA1999N+00781MW1421
0051104270999991927061412004+51183+008483FM-12+025799999V0202301N00101004501CN0200001N9+01611+01331999999ADDAY111061GF107991061051004501001021MD1010001+9999
0067104270999991927061506004+51183+008483FM-12+025799999V02099999002619999999N0000001N9+99999+99999999999ADDAA199003091AY161061GF108991999051999999999999KA1999N+00891MW1451
0051104270999991927061512004+51183+008483FM-12+025799999V0200201N00461004501CN0200001N9+01111+01061999999ADDAY111061GF106991061011004501001001MD1310141+9999
0037104270999991927061606004+51183+008483FM-12+025799999V0209999900461220001CN0100001N9+00891+00831999999ADDAY111061GF104991999011017501001081
0064104270999991927061706004+51183+008483FM-12+025799999V0209999900461220001CN0100001N9+99999+99999999999ADDAY101061GF102991999001999999001081KA1999N+01281MD1990151+9999
0051104270999991927061712004+51183+008483FM-12+025799999V0201601N00931220001CN0200001N9+02281+01831999999ADDAY101061GF102991021011008001999999MD1810061+9999
0067104270999991927061806004+51183+008483FM-12+025799999V02099999012319999999N0100001N9+00891+00831999999ADDAA199000691AY181061GF108991999051999999999999KA1999N+00281MW1211
0051104270999991927061812004+51183+008483FM-12+025799999V0202501N00671030001CN0200001N9+01221+00781999999ADDAY111061GF107991041051008001021001MD1310061+9999
0051104270999991927061906004+51183+008483FM-12+025799999V02099999009319999999N0100001N9+00891+00831999999ADDAY161061GF108991999061999999999999MD1010001+9999
0067104270999991927062006004+51183+008483FM-12+025799999V02099999012319999999N0000001N9+99999+99999999999ADDAA199000691AY141061GF108991999051999999999999KA1999N+00501MW1451
0051104270999991927062012004+51183+008483FM-12+025799999V0202501N01541004501CN0200001N9+01001+00611999999ADDAY111061GF107991071051004501001001MD1310141+9999
0050104270999991927062106004+51183+008483FM-12+025799999V0209999900461220001CN0200001N9+00781+00561999999ADDAY111061GF102991999011012501001081KA1999N+00611
0037104270999991927062112004+51183+008483FM-12+025799999V0202501N00461220001CN0200001N9+01611+01171999999ADDAY101061GF104991041011008001001081
0056104270999991927062206004+51183+008483FM-12+025799999V02099999006719999999N0040001N9+99999+99999999999ADDAY111061GF108991999061999999999999KA1999N+00611MW1461
0051104270999991927062212004+51183+008483FM-12+025799999V0202701N00931220001CN0200001N9+01111+00501999999ADDAY101061GF104991041011008001001081MD1010141+9999
0056104270999991927062406004+51183+008483FM-12+025799999V02099999009319999999N0000001N9+99999+99999999999ADDAY111061GF108991999051999999999999KA1999N+00501MW1451
0051104270999991927062412004+51183+008483FM-12+025799999V0202301N01541004501CN0100001N9+00781+00561999999ADDAY121061GF108991061061004501021001MD1810061+9999
0067104270999991927062506004+51183+008483FM-12+025799999V02099999006719999999N0000001N9+99999+99999999999ADDAA199007091AY161061GF108991999051999999999999KA1999N+00391MW1211
0051104270999991927062512004+51183+008483FM-12+025799999V0202901N00671075001CN0100001N9+00781+00561999999ADDAY111061GF106991041091004501001091MD1310061+9999
0081104270999991927062606004+51183+008483FM-12+025799999V02099999015419999999N0000001N9+99999+99999999999ADDAA199002091AY161061GF108991999051000251999999KA1999N+00611MD1010001+9999MW1451
0051104270999991927062712004+51183+008483FM-12+025799999V0202501N00671030001CN0100001N9+00781+00561999999ADDAY111061GF107991041091004501021001MD1310061+9999
0050104270999991927062806004+51183+008483FM-12+025799999V0209999900261075001CN0200001N9+99999+99999999999ADDAY111061GF107991041091004501001081KA1999N+00391
0037104270999991927062812004+51183+008483FM-12+025799999V0202501N00931030001CN0100001N9+00781+00721999999ADDAY161061GF108991041091008001021001
0050104270999991927062906004+51183+008483FM-12+025799999V0209999900671220001CN0200001N9+00781+00561999999ADDAY141061GF104991999011017501001081KA1999N+00501
0050104270999991927063006004+51183+008483FM-12+025799999V0209999900461220001CN0200001N9+01721+01281999999ADDAY101061GF101991999001999999001021KA1999N+00781
0051104270999991927063012004+51183+008483FM-12+025799999V0201801N00671075001CN0200001N9+01891+01221999999ADDAY101061GF106991021011008001001091MD1810061+9999
0057104270999991927070112004+51183+008483FM-12+025799999V0202301N00931004501CN0100001N9+01221+01171999999ADDAY111061GF108991081061004501999999MD1310061+9999MW1601
0061104270999991927070206004+51183+008483FM-12+025799999V0209999900931030001CN0200001N9+00891+00831999999ADDAA199000691AY141061GF106991041011004501021001KA1999N+00721
0057104270999991927070212004+51183+008483FM-12+025799999V0202301N01231000601CN0000501N9+00781+00721999999ADDAY161061GF108991081051000751999999MD1810061+9999MW1471
0100104270999991927070306004+51183+008483FM-12+025799999V02099999006719999999N0000501N9+00891+00831999999ADDAA199000691AY161061GF108991999051999999999999KA1999N+00781MD1310662+9999MW1451EQDQ01+000662APC3  
0050104270999991927070406004+51183+008483FM-12+025799999V02099999004619999999N0040001N9+99999+99999999999ADDAY141061GF108991999061004501999999KA1999N+00891
0037104270999991927070412004+51183+008483FM-12+025799999V0202701N00461075001CN0200001N9+01501+01061999999ADDAY111061GF106991041011004501001081
0057104270999991927070612004+51183+008483FM-12+025799999V0202301N00101004501CN0100001N9+00891+00061999999ADDAY111061GF108991081061004501999999MD1310061+9999MW1601
0050104270999991927070806004+51183+008483FM-12+025799999V0209999900101007801CN0200001N9+99999+99999999999ADDAY101061GF106991061051008001021001KA1999N+01281
0051104270999991927070812004+51183+008483FM-12+025799999V0200701N00101002401CN0100001N9+01501+01441999999ADDAY111061GF108991071011002501021001MD1810061+9999
0067104270999991927070906004+51183+008483FM-12+025799999V0209999900671000151CN0000001N9+99999+99999999999ADDAA199000691AY191061GF108991081051000251999999KA1999N+01221MW1451
0037104270999991927070912004+51183+008483FM-12+025799999V0202501N00671030001CN0200001N9+01281+01221999999ADDAY121061GF108991021011004501021001
0061104270999991927071006004+51183+008483FM-12+025799999V0209999900461030001CN0100001N9+99999+99999999999ADDAA199017091AY141061GF108991021011002501021001KA1999N-01891
0051104270999991927071212004+51183+008483FM-12+025799999V0201101N00461220001CN0200001N9+01721+01281999999ADDAY101061GF104991021091008001001081MD1310141+9999
0061104270999991927071306004+51183+008483FM-12+025799999V0209999900261220001CN0100001N9+99999+99999999999ADDAA199020091AY101061GF102991999001999999001081KA1999N+01221
0037104270999991927071312004+51183+008483FM-12+025799999V0202901N001019999999N0100001N9+01781+01561999999ADDAY161061GF106991999999004501999999
0067104270999991927071406004+51183+008483FM-12+025799999V0209999900261030001CN0200001N9+99999+99999999999ADDAA199000691AY161061GF108991041011004501021001KA1999N+01221MW1211
0051104270999991927071412004+51183+008483FM-12+025799999V0201801N00101075001CN0100001N9+01611+01561999999ADDAY141061GF106991041091008001001091MD1310061+9999
0061104270999991927071506004+51183+008483FM-12+025799999V0209999900261220001CN0200001N9+99999+99999999999ADDAA199005091AY111061GF102991999001999999001091KA1999N+01221
0043104270999991927071512004+51183+008483FM-12+025799999V0203401N00101075001CN0040001N9+01281+01221999999ADDAY191061GF106991021091004501001081MW1291
0050104270999991927071606004+51183+008483FM-12+025799999V0209991C00001075001CN0040001N9+99999+99999999999ADDAY111061GF106991021011002501001081KA1999N+01221
0056104270999991927071806004+51183+008483FM-12+025799999V02099999004619999999N0020001N9+00891+00831999999ADDAY141061GF108991999051999999999999KA1999N+00781MW1431
0078104270999991927071812004+51183+008483FM-12+025799999V0202701N00461002401CN0040001N9+01111+99999999999ADDAY121061GF108991081061002501999999MW1461EQDQ01+024883ATOD  Q02 -02443ATOD  
0067104270999991927071906004+51183+008483FM-12+025799999V02099999009319999999N0000001N9+00891+00831999999ADDAA199005091AY161061GF108991999051999999999999KA1999N+00721MW1451
0051104270999991927071912004+51183+008483FM-12+025799999V0202701N00671004501CN0100001N9+00781+00721999999ADDAY121061GF106991061051004501001001MD1310061+9999
0050104270999991927072006004+51183+008483FM-12+025799999V02099999004619999999N0100001N9+99999+99999999999ADDAY141061GF108991999061999999999999KA1999N+00611
0037104270999991927072012004+51183+008483FM-12+025799999V0202701N00671220001CN0200001N9+01281+01061999999ADDAY101061GF102991021011012501001001
0067104270999991927072206004+51183+008483FM-12+025799999V02099999009319999999N0000001N9+99999+99999999999ADDAA199000691AY161061GF108991999051999999999999KA1999N+01001MW1451
0043104270999991927072212004+51183+008483FM-12+025799999V0202301N00931004501CN0100001N9+01391+01331999999ADDAY181061GF108991081061004501999999MW1211
0050104270999991927072306004+51183+008483FM-12+025799999V0209999900931030001CN0100001N9+00891+00831999999ADDAY111061GF107991041091004501021001KA1999N+00781
0051104270999991927072312004+51183+008483FM-12+025799999V0202701N00931220001CN0200001N9+01281+00831999999ADDAY111061GF104991041011004501001081MD1110061+9999
0067104270999991927072506004+51183+008483FM-12+025799999V02099999009319999999N0000001N9+00891+00831999999ADDAA199003091AY161061GF108991999051999999999999KA1999N+00891MW1451
0057104270999991927072512004+51183+008483FM-12+025799999V0202701N00671000151CN0000001N9+01111+01061999999ADDAY141061GF108991081051000251999999MD1310061+9999MW1451
0037104270999991927072606004+51183+008483FM-12+025799999V0209999900461220001CN0200001N9+99999+99999999999ADDAY111061GF102991999011008001001001
0037104270999991927072612004+51183+008483FM-12+025799999V0202001N00461220001CN0200001N9+01721+01501999999ADDAY111061GF104991041011008001001001
0050104270999991927072706004+51183+008483FM-12+025799999V0209999900461220001CN0200001N9+01721+01281999999ADDAY101061GF104991999011017501001091KA1999N+01221
0061104270999991927072806004+51183+008483FM-12+025799999V0209999900931075001CN0100001N9+99999+99999999999ADDAA199020091AY111061GF107991041011004501001081KA1999N+01111
0037104270999991927072812004+51183+008483FM-12+025799999V0202701N00931220001CN0200001N9+01391+01171999999ADDAY111061GF104991041011008001001001
0050104270999991927072906004+51183+008483FM-12+025799999V0209999900101007801CN0200001N9+99999+99999999999ADDAY111061GF107991061011008001021001KA1999N+01001
0051104270999991927072912004+51183+008483FM-12+025799999V0202301N00101075001CN0200001N9+01611+01171999999ADDAY111061GF106991041091008001001081MD1310061+9999
0050104270999991927073006004+51183+008483FM-12+025799999V0209999900101220001CN0200001N9+99999+99999999999ADDAY101061GF100991001001999999001001KA1999N+01221
0051104270999991927073012004+51183+008483FM-12+025799999V0209991C00101220001CN0100001N9+01891+01611999999ADDAY111061GF104991041091008001001081MD1110061+9999
0050104270999991927080106004+51183+008483FM-12+025799999V0209999900101220001CN0200001N9+01891+01831999999ADDAY101061GF104991999011012501001081KA1999N+01391
0051104270999991927080112004+51183+008483FM-12+025799999V0201601N00931220001CN0100001N9+02111+01831999999ADDAY111061GF104991021091008001001081MD1810061+9999
0056104270999991927080206004+51183+008483FM-12+025799999V02099999006719999999N0040001N9+99999+99999999999ADDAY111061GF108991999061999999999999KA1999N+01501MW1471
0057104270999991927080212004+51183+008483FM-12+025799999V0202501N00671001501CN0040001N9+01221+01171999999ADDAY161061GF108991081061001501999999MD1310141+9999MW1211
0050104270999991927080306004+51183+008483FM-12+025799999V0209999900671220001CN0100001N9+99999+99999999999ADDAY101061GF104991999001999999001081KA1999N+01001
0051104270999991927080312004+51183+008483FM-12+025799999V0200501N00101075001CN0200001N9+01611+01171999999ADDAY111061GF106991041011008001001021MD1310061+9999
0050104270999991927080406004+51183+008483FM-12+025799999V0209999900671220001CN0100001N9+99999+99999999999ADDAY101061GF100991001001999999001001KA1999N+01001
0051104270999991927080412004+51183+008483FM-12+025799999V0200901N00671030001CN0100001N9+01391+01331999999ADDAY101061GF108991041051008001021001MD1810061+9999
0050104270999991927080506004+51183+008483FM-12+025799999V0209999900671007801CN0100001N9+99999+99999999999ADDAY101061GF108991061051008001001081KA1999N+01001
0050104270999991927080606004+51183+008483FM-12+025799999V0209999900671220001CN0100001N9+99999+99999999999ADDAY101061GF102991999001999999001081KA1999N+01221
0051104270999991927080612004+51183+008483FM-12+025799999V0200901N00671075001CN0100001N9+01781+01561999999ADDAY111061GF106991041011004501001081MD1810061+9999
0067104270999991927080706004+51183+008483FM-12+025799999V02099999002619999999N0002001N9+99999+99999999999ADDAA199000691AY141061GF108991999051000251999999KA1999N+01611MW1451
0050104270999991927080806004+51183+008483FM-12+025799999V0209999900671220001CN0200001N9+99999+99999999999ADDAY101061GF102991999001999999001081KA1999N+01501
0051104270999991927080812004+51183+008483FM-12+025799999V0201401N01231075001CN0200001N9+02001+01721999999ADDAY111061GF106991021011008001001081MD1810061+9999
0067104270999991927080906004+51183+008483FM-12+025799999V02099999004619999999N0000001N9+99999+99999999999ADDAA199000691AY141061GF108991999051999999999999KA1999N+01281MW1451
0043104270999991927080912004+51183+008483FM-12+025799999V0202301N00461004501CN0200001N9+01501+01441999999ADDAY161061GF107991071091004501001001MW1811
0050104270999991927081006004+51183+008483FM-12+025799999V02099999009319999999N0200001N9+99999+99999999999ADDAY111061GF108991999051999999999999KA1999N+01221
0056104270999991927081106004+51183+008483FM-12+025799999V02099999004619999999N0000501N9+99999+99999999999ADDAY141061GF108991999051999999999999KA1999N+01281MW1421
0037104270999991927081112004+51183+008483FM-12+025799999V0202301N00461004501CN0200001N9+01611+01331999999ADDAY111061GF106991061011004501001001
0067104270999991927081206004+51183+008483FM-12+025799999V02099999015419999999N0000001N9+00891+00831999999ADDAA199000691AY141061GF108991999051999999999999KA1999N+00781MW1451
0051104270999991927081212004+51183+008483FM-12+025799999V0202301N00671004501CN0500001N9+01501+01061999999ADDAY111061GF107991071051004501001001MD1310141+9999
0067104270999991927081306004+51183+008483FM-12+025799999V02099999009319999999N0000001N9+99999+99999999999ADDAA199000691AY141061GF108991999051999999999999KA1999N+01001MW1451
0051104270999991927081312004+51183+008483FM-12+025799999V0202501N01231007801CN0500001N9+01281+00831999999ADDAY111061GF106991061051008001001001MD1310061+9999
0081104270999991927081406004+51183+008483FM-12+025799999V02099999006719999999N0000001N9+01891+01831999999ADDAA199000691AY161061GF108991999051999999999999KA1999N+01111MD1990151+9999MW1651
0067104270999991927081506004+51183+008483FM-12+025799999V02099999015419999999N0000001N9+99999+99999999999ADDAA199000691AY141061GF108991999051999999999999KA1999N+01001MW1451
0043104270999991927081512004+51183+008483FM-12+025799999V0202501N01541000151CN0000501N9+01001+00941999999ADDAY161061GF108991081051000251999999MW1631
0061104270999991927081606004+51183+008483FM-12+025799999V02099999019019999999N0100001N9+00891+00831999999ADDAA199000691AY121061GF108991999051999999999999KA1999N+00781
0043104270999991927081612004+51183+008483FM-12+025799999V0202301N01541000151CN0000001N9+00891+00831999999ADDAY141061GF108991081051000251999999MW1511
0057104270999991927081712004+51183+008483FM-12+025799999V0202501N00671030001CN0100001N9+01001+00941999999ADDAY181061GF106991041011002501031001MD1310141+9999MW1211
0051104270999991927081812004+51183+008483FM-12+025799999V0200701N01231000601CN0040001N9+01111+01061999999ADDAY121061GF108991081051000751999999MD1810141+9999
0061104270999991927081906004+51183+008483FM-12+025799999V02099999015419999999N0200001N9+00891+00831999999ADDAA199000591AY121061GF108991999051000251999999KA1999N+00891
0043104270999991927081912004+51183+008483FM-12+025799999V0201801N00931001501CN0100001N9+01001+00941999999ADDAY161061GF108991081061001501999999MW1621
0067104270999991927082006004+51183+008483FM-12+025799999V02099999009319999999N0000001N9+00891+00831999999ADDAA199005091AY161061GF108991999051999999999999KA1999N+00721MW1451
0051104270999991927082012004+51183+008483FM-12+025799999V0209991C01231220001CN0040001N9+01001-00391999999ADDAY181061GF104991041091002501001081MD1710261+9999
0067104270999991927082106004+51183+008483FM-12+025799999V02099999015419999999N0000001N9+01891+01831999999ADDAA199000691AY161061GF108991999051999999999999KA1999N+00891MW1651
0067104270999991927082206004+51183+008483FM-12+025799999V02099999015419999999N0000001N9+99999+99999999999ADDAA199000691AY141061GF108991999051999999999999KA1999N+01001MW1451
0037104270999991927082212004+51183+008483FM-12+025799999V0202301N01231220001CN0500001N9+01391+00941999999ADDAY111061GF104991041011008001001001
0050104270999991927082306004+51183+008483FM-12+025799999V02099999012319999999N0100001N9+00891+00831999999ADDAY111061GF108991999061999999999999KA1999N+00891
0051104270999991927082312004+51183+008483FM-12+025799999V0202501N01231030001CN0200001N9+01111+01061999999ADDAY121061GF108991041061004501021001MD1310061+9999
0056104270999991927082406004+51183+008483FM-12+025799999V02099999004619999999N0000001N9+99999+99999999999ADDAY111061GF108991999051999999999999KA1999N+00891MW1451
0051104270999991927082412004+51183+008483FM-12+025799999V0201801N00461004501CN0200001N9+01391+01171999999ADDAY141061GF108991061011004501001081MD1310061+9999
0051104270999991927082512004+51183+008483FM-12+025799999V0201801N00461030001CN0200001N9+01221+01001999999ADDAY141061GF108991041011004501021001MD1310061+9999
0067104270999991927082606004+51183+008483FM-12+025799999V02099999009319999999N0005001N9+99999+99999999999ADDAA199000691AY161061GF108991999051999999999999KA1999N+00611MW1471
0051104270999991927082612004+51183+008483FM-12+025799999V0203201N00671030001CN0500001N9+00781+00561999999ADDAY181061GF107991041051000751021001MD1310201+9999
0056104270999991927082706004+51183+008483FM-12+025799999V02099999006719999999N0000001N9+00891+00831999999ADDAY141061GF108991999051000251999999KA1999N+00721MW1451
0037104270999991927082712004+51183+008483FM-12+025799999V0202501N00671001501CN0100001N9+01001+00941999999ADDAY141061GF108991081051001501999999
0056104270999991927082806004+51183+008483FM-12+025799999V02099999006719999999N0000001N9+00891+00831999999ADDAY141061GF108991999051999999999999KA1999N+00891MW1471
0050104270999991927082906004+51183+008483FM-12+025799999V0209999900671220001CN0100001N9+99999+99999999999ADDAY101061GF100991001001999999001001KA1999N+01111
0037104270999991927082912004+51183+008483FM-12+025799999V0201401N00671220001CN0200001N9+01721+01061999999ADDAY101061GF100991001001999999001001
0050104270999991927083006004+51183+008483FM-12+025799999V0209999900461220001CN0200001N9+01721+01281999999ADDAY101061GF102991999001999999001021KA1999N+01391
0037104270999991927083012004+51183+008483FM-12+025799999V0201101N00461220001CN0200001N9+01891+01221999999ADDAY101061GF102991011011012501001021
0050104270999991927083106004+51183+008483FM-12+025799999V0209999900671220001CN0100001N9+99999+99999999999ADDAY101061GF102991999001999999001021KA1999N+01281
0050104270999991927090106004+51183+008483FM-12+025799999V0209999900461220001CN0100001N9+01611+01331999999ADDAY101061GF102991001001999999001021KA1999N+01281
0051104270999991927090112004+51183+008483FM-12+025799999V0201401N00461220001CN0200001N9+01891+01441999999ADDAY101061GF102991021011012501001021MD1810061+9999
0050104270999991927090206004+51183+008483FM-12+025799999V0209999900261220001CN0200001N9+01721+01061999999ADDAY101061GF102991001001999999001021KA1999N+01391
0037104270999991927090212004+51183+008483FM-12+025799999V0202301N00461075001CN0200001N9+01891+00941999999ADDAY111061GF106991041011008001001021
0050104270999991927090306004+51183+008483FM-12+025799999V0209999900461220001CN0100001N9+01611+00941999999ADDAY111061GF104991011011012501001021KA1999N+01501
0051104270999991927090312004+51183+008483FM-12+025799999V0201101N00461220001CN0200001N9+01891+00941999999ADDAY111061GF104991011011008001001021MD1810061+9999
0051104270999991927090406004+51183+008483FM-12+025799999V0209999901541220001CN0100001N9+01221+01171999999ADDAY111061GF101991999051000251999999MD1810141+9999
0011104270999991927090506004+51183+008483FM-12+025799999V02099999004619999999N0100001N9+01221+01171999999ADDAY111061
0081104270999991927090606004+51183+008483FM-12+025799999V0209999900461000151CN0000501N9+01281+01221999999ADDAA199000591AY141061GF108991081051000251999999KA1999N+01221MD1310061+9999MW1441
0037104270999991927090612004+51183+008483FM-12+025799999V0201601N00461007801CN0100001N9+01721+01281999999ADDAY111061GF106991061011008001001001
0061104270999991927090706004+51183+008483FM-12+025799999V0209999900261030001CN0100001N9+01611+01561999999ADDAA199000691AY181061GF106991011051002501031001KA1999N+01501
0057104270999991927090712004+51183+008483FM-12+025799999V0201801N00461012301CN0200001N9+01391+01331999999ADDAY191061GF107991071051012501001001MD1810061+9999MW1211
0061104270999991927090806004+51183+008483FM-12+025799999V0209999900671000151CN0040001N9+01001+00941999999ADDAA199008091AY161061GF108991081051000251999999KA1999N+01001
0037104270999991927090812004+51183+008483FM-12+025799999V0202501N00461007801CN0100001N9+01281+01061999999ADDAY111061GF106991061051008001001001
0064104270999991927090906004+51183+008483FM-12+025799999V0209999901541030001CN0100001N9+00781+00721999999ADDAY121061GF108991011051002501021001KA1999N+00721MD1810261+9999
0043104270999991927090912004+51183+008483FM-12+025799999V0202301N01541000151CN0000001N9+01001+00941999999ADDAY141061GF108991081051000251999999MW1451
0081104270999991927091006004+51183+008483FM-12+025799999V0209999901231000151CN0000001N9+00891+00831999999ADDAA199004091AY141061GF108991081051000251999999KA1999N+00891MD1810061+9999MW1451
0037104270999991927091012004+51183+008483FM-12+025799999V0202001N00931004501CN0100001N9+01111+01061999999ADDAY121061GF108991081051004501999999
0075104270999991927091106004+51183+008483FM-12+025799999V0209999901541001501CN0200001N9+00781+00721999999ADDAA199025091AY161061GF107991071061001501001001KA1999N+00721MD1810061+9999
0081104270999991927091206004+51183+008483FM-12+025799999V0209999901541000151CN0000001N9+00611+00561999999ADDAA199004091AY161061GF108991081051000251999999KA1999N+00611MD1310061+9999MW1511
0057104270999991927091212004+51183+008483FM-12+025799999V0202501N01231000151CN0000001N9+00781+00721999999ADDAY161061GF108991081051000251999999MD1110061+9999MW1631
0100104270999991927091306004+51183+008483FM-12+025799999V0209999900931000151CN0002001N9+00501+00441999999ADDAA199026091AY141061GF108991081051000251999999KA1999N+99999MD1310141+9999MW1431EQDQ01 +00612ATMN  
0043104270999991927091312004+51183+008483FM-12+025799999V0202301N01541001501CN0020001N9+00501+00441999999ADDAY161061GF108991081061001501999999MW1511
0081104270999991927091406004+51183+008483FM-12+025799999V0209999901231000151CN0000001N9+00501+00441999999ADDAA199006091AY161061GF108991081051000251999999KA1999N+00501MD1810141+9999MW1631
0057104270999991927091412004+51183+008483FM-12+025799999V0202301N01231000151CN0005001N9+00721+00671999999ADDAY141061GF108991081051000251999999MD1810061+9999MW1441
0081104270999991927091506004+51183+008483FM-12+025799999V0209999900461000151CN0000001N9+00781+00721999999ADDAA199004091AY161061GF108991081051000251999999KA1999N+00721MD1410001+9999MW1611
0051104270999991927091512004+51183+008483FM-12+025799999V0201401N00671001501CN0040001N9+00891+00831999999ADDAY141061GF108991081061001501999999MD1410001+9999
0075104270999991927091606004+51183+008483FM-12+025799999V0209999900931030001CN0100001N9+01111+01061999999ADDAA199000391AY111061GF107991021051001501031001KA1999N+01001MD1810061+9999
0051104270999991927091612004+51183+008483FM-12+025799999V0202001N00671007801CN0200001N9+01221+01171999999ADDAY121061GF108991061011008001021001MD1990061+9999
0081104270999991927091706004+51183+008483FM-12+025799999V0209999900931000151CN0000001N9+00781+00721999999ADDAA199000691AY141061GF108991081051000251999999KA1999N+00781MD1410001+9999MW1451
0057104270999991927091712004+51183+008483FM-12+025799999V0202501N01231000151CN0005001N9+00891+00831999999ADDAY181061GF108991081051000251999999MD1310061+9999MW1811
0075104270999991927091806004+51183+008483FM-12+025799999V0209999900931000601CN0100001N9+00391+00331999999ADDAA199004091AY141061GF108991081051000751999999KA1999N+00391MD1410001+9999
0067104270999991927091906004+51183+008483FM-12+025799999V0209999901231000151CN0000001N9+00501+00441999999ADDAA199000391AY141061GF108991081051000251999999KA1999N+00501MW1451
0081104270999991927092006004+51183+008483FM-12+025799999V0209999901541000151CN0005001N9+00781+00721999999ADDAA199001091AY181061GF108991081051000251999999KA1999N+00781MD1310261+9999MW1211
0057104270999991927092012004+51183+008483FM-12+025799999V0202501N01231002401CN0100001N9+00891+00831999999ADDAY181061GF108991081061002501999999MD1310141+9999MW1211
0067104270999991927092106004+51183+008483FM-12+025799999V0209999901541000151CN0000001N9+01221+01171999999ADDAA199004091AY161061GF108991081051000251999999KA1999N+00001MW1531
0037104270999991927092112004+51183+008483FM-12+025799999V0202301N00931220001CN0500001N9+01501+01441999999ADDAY111061GF104991041011008001001021
0050104270999991927092206004+51183+008483FM-12+025799999V0209999901231220001CN0100001N9+01391+01331999999ADDAY141061GF104991021051000751031001KA1999N+01221
0051104270999991927092212004+51183+008483FM-12+025799999V0201801N01231220001CN0200001N9+01781+01331999999ADDAY111061GF104991021011017501021001MD1810141+9999
0075104270999991927092306004+51183+008483FM-12+025799999V0209999901541007801CN0200001N9+00721+00671999999ADDAA199000591AY111061GF107991061051008001001021KA1999N+00721MD1410001+9999
0051104270999991927092312004+51183+008483FM-12+025799999V0201801N01231007801CN0500001N9+00781+00561999999ADDAY111061GF107991071051008001001001MD1310061+9999
0081104270999991927092406004+51183+008483FM-12+025799999V0209999901541000151CN0000501N9+00781+00721999999ADDAA199006091AY161061GF108991081051000251999999KA1999N+00721MD1810201+9999MW1631
0051104270999991927092412004+51183+008483FM-12+025799999V0202301N00671030001CN0200001N9+00721+00501999999ADDAY111061GF106991021011008001021001MD1310141+9999
0070104270999991927092506004+51183+008483FM-12+025799999V0209999900461000151CN0000001N9+00501+00441999999ADDAY141061GF108991081051000251999999KA1999N+00391MD1310141+9999MW1451
0081104270999991927092606004+51183+008483FM-12+025799999V0209999901541001501CN0100001N9+00501+00441999999ADDAA199003091AY161061GF108991081061001501999999KA1999N+00501MD1310141+9999MW1211
0057104270999991927092612004+51183+008483FM-12+025799999V0202301N00931000151CN0000001N9+00391+00331999999ADDAY181061GF108991081051000251999999MD1310141+9999MW1211
0057104270999991927092706004+51183+008483FM-12+025799999V0209999900671000151CN0000001N9+00391+00331999999ADDAY161061GF108991081051000251999999MD1310061+9999MW1211
0051104270999991927092712004+51183+008483FM-12+025799999V0202001N00671075001CN0200001N9+00781+00391999999ADDAY111061GF106991041051004501001021MD1310061+9999
0064104270999991927092806004+51183+008483FM-12+025799999V0209999900461220001CN0100001N9+00501+00441999999ADDAY101061GF102991001001999999001021KA1999N+00391MD1310141+9999
0037104270999991927092812004+51183+008483FM-12+025799999V0202301N00261220001CN0200001N9+00891+00281999999ADDAY111061GF104991041011008001001001
0051104270999991927092912004+51183+008483FM-12+025799999V0202001N00931075001CN0500001N9+01111+00671999999ADDAY111061GF106991041011008001001021MD1810141+9999
0050104270999991927093006004+51183+008483FM-12+025799999V0209999901231007801CN0100001N9+00611+00561999999ADDAY141061GF108991081051008001999999KA1999N+00611
0051104270999991927093012004+51183+008483FM-12+025799999V0202901N00671004501CN0200001N9+00611+00391999999ADDAY141061GF107991061051004501001021MD1310141+9999
0050104270999991927100106004+51183+008483FM-12+025799999V0209999900931000151CN0040001N9+00391+00331999999ADDAY111061GF108991081051000251999999KA1999N+00281
0051104270999991927100112004+51183+008483FM-12+025799999V0202301N00931007801CN0200001N9+00891+00441999999ADDAY111061GF107991061011008001001021MD1990061+9999
0056104270999991927100206004+51183+008483FM-12+025799999V0209999901231000151CN0000001N9+00721+00671999999ADDAY141061GF108991081051000251999999KA1999N+00611MW1451
0075104270999991927100306004+51183+008483FM-12+025799999V0209999901231004501CN0200001N9+00391+00331999999ADDAA199008091AY121061GF108991081051004501999999KA1999N+00281MD1110261+9999
0051104270999991927100312004+51183+008483FM-12+025799999V0202901N01231220001CN0500001N9+00721+00111999999ADDAY111061GF104991041011008001001001MD1310201+9999
0064104270999991927100406004+51183+008483FM-12+025799999V0209999900931075001CN0200001N9+00221+00171999999ADDAY111061GF106991041051004501001021KA1999N+00111MD1310061+9999
0037104270999991927100412004+51183+008483FM-12+025799999V0202901N00931075001CN0200001N9+00501-00111999999ADDAY111061GF106991041011008001001021
0050104270999991927100506004+51183+008483FM-12+025799999V0209999900931002401CN0200001N9+00111+00061999999ADDAY111061GF108991081051002501999999KA1999N+00001
0037104270999991927100512004+51183+008483FM-12+025799999V0203201N00931220001CN0500001N9+00391+00001999999ADDAY171061GF104991041051008001001001
0081104270999991927100606004+51183+008483FM-12+025799999V0209999900931000151CN0000001N9+00111+00061999999ADDAA199002091AY161061GF108991081051000251999999KA1999N+00111MD1410001+9999MW1521
0037104270999991927100612004+51183+008483FM-12+025799999V0202901N00931004501CN0100001N9+00501+00441999999ADDAY121061GF108991081051004501999999
0067104270999991927100706004+51183+008483FM-12+025799999V0209999900461000151CN0000001N9+00501+00441999999ADDAA199001091AY161061GF108991081051000251999999KA1999N+00281MW1531
0043104270999991927100712004+51183+008483FM-12+025799999V0202901N00931000151CN0000001N9+00721+00671999999ADDAY161061GF108991081051000251999999MW1511
0081104270999991927100806004+51183+008483FM-12+025799999V0209999900461000151CN0000001N9+00501+00441999999ADDAA199002091AY141061GF108991081051000251999999KA1999N+00501MD1310141+9999MW1451
0037104270999991927100812004+51183+008483FM-12+025799999V0200901N00671075001CN0500001N9+00391+00171999999ADDAY111061GF106991041011008001001021
0070104270999991927100906004+51183+008483FM-12+025799999V0209999900671000151CN0000001N9+00221+00171999999ADDAY141061GF106991061051000251001001KA1999N+00221MD1310061+9999MW1461
0037104270999991927101006004+51183+008483FM-12+025799999V0209999900461220001CN0100001N9+00501+00441999999ADDAY101061GF101991001001999999001021
0051104270999991927101012004+51183+008483FM-12+025799999V0201101N00101220001CN0200001N9+01111+00221999999ADDAY101061GF101991001001999999001021MD1810061+9999
0050104270999991927101106004+51183+008483FM-12+025799999V0209999900261220001CN0200001N9+01001-00111999999ADDAY101061GF102991001001999999001021KA1999N+00891
0051104270999991927101112004+51183+008483FM-12+025799999V0203201N00101220001CN0200001N9+01281+00111999999ADDAY101061GF101991001001999999001021MD1990061+9999
0070104270999991927101206004+51183+008483FM-12+025799999V0209999900461000151CN0002001N9+00281+00221999999ADDAY141061GF108991081051000251999999KA1999N+00281MD1310061+9999MW1451
0051104270999991927101212004+51183+008483FM-12+025799999V0200701N00461002401CN0100001N9+00391+00331999999ADDAY121061GF108991081051002501999999MD1010001+9999
0064104270999991927101306004+51183+008483FM-12+025799999V0209999900671220001CN0100001N9+00221+00171999999ADDAY111061GF106991001001999999001081KA1999N+00111MD1610141+9999
0051104270999991927101312004+51183+008483FM-12+025799999V0201401N00671075001CN0100001N9+00611+00221999999ADDAY111061GF106991021011004501001081MD1810141+9999
0070104270999991927101406004+51183+008483FM-12+025799999V0209999900261000151CN0000001N9+00391+00331999999ADDAY141061GF108991081051000251999999KA1999N+00281MD1510001+9999MW1451
0037104270999991927101412004+51183+008483FM-12+025799999V0203201N00261002401CN0040001N9+00611+00391999999ADDAY141061GF108991081051002501999999
0081104270999991927101506004+51183+008483FM-12+025799999V0209999900461000151CN0000001N9+00501+00441999999ADDAA199000691AY141061GF108991081051000251999999KA1999N+00501MD1310061+9999MW1451
0043104270999991927101512004+51183+008483FM-12+025799999V0200901N00101000151CN0000001N9+00611+00561999999ADDAY141061GF108991081051000251999999MW1451
0050104270999991927101606004+51183+008483FM-12+025799999V0209999900101220001CN0100001N9+00391+00171999999ADDAY101061GF102991021011012501001021KA1999N+00221
0081104270999991927101706004+51183+008483FM-12+025799999V0209999901541000151CN0000001N9+00281+00221999999ADDAA199000591AY161061GF108991081051000251999999KA1999N+00221MD1810201+9999MW1611
0057104270999991927101712004+51183+008483FM-12+025799999V0202301N01541000151CN0000001N9+00501+00441999999ADDAY161061GF108991081051000251999999MD1810061+9999MW1631
0081104270999991927101806004+51183+008483FM-12+025799999V0209999901231000151CN0000001N9+00391+00331999999ADDAA199007091AY141061GF108991081051000251999999KA1999N+00391MD1310261+9999MW1471
0051104270999991927101812004+51183+008483FM-12+025799999V0202501N00931004501CN0200001N9+00501+00441999999ADDAY111061GF106991061051004501001001MD1310061+9999
0067104270999991927101906004+51183+008483FM-12+025799999V0209999900931000151CN0000501N9+00221+00171999999ADDAA199000691AY141061GF108991081051000251999999KA1999N+00221MW1421
0051104270999991927101912004+51183+008483FM-12+025799999V0202301N00931004501CN0200001N9+00501+00111999999ADDAY111061GF106991061011004501001001MD1990061+9999
0057104270999991927102006004+51183+008483FM-12+025799999V0209999901231000151CN0000001N9+00501+00441999999ADDAY141061GF108991081051000251999999MD1310141+9999MW1451
0067104270999991927102106004+51183+008483FM-12+025799999V0209999900261000151CN0000001N9+00391+00331999999ADDAA199003091AY161061GF108991081051000251999999KA1999N+00221MW1631
0037104270999991927102112004+51183+008483FM-12+025799999V0202701N00101000151CN0010001N9+00501+00441999999ADDAY161061GF108991081051000251999999
0081104270999991927102206004+51183+008483FM-12+025799999V0209999900461000151CN0000001N9+00391+00331999999ADDAA199000691AY121061GF108991081051000251999999KA1999N+00281MD1810201+9999MW1451
0051104270999991927102212004+51183+008483FM-12+025799999V0201401N00931002401CN0100001N9+00501+00441999999ADDAY121061GF108991081051002501999999MD1810341+9999
0057104270999991927102406004+51183+008483FM-12+025799999V0209999901541000151CN0000001N9+00281+00221999999ADDAY141061GF108991081051000251999999MD1310201+9999MW1451
0057104270999991927102412004+51183+008483FM-12+025799999V0202901N01541002401CN0500001N9+00221+00171999999ADDAY181061GF108991081061002501999999MD1310341+9999MW1801
0043104270999991927102506004+51183+008483FM-12+025799999V0209999901541000151CN0000001N9+00391+00331999999ADDAY141061GF108991081051000251999999MW1611
0057104270999991927102512004+51183+008483FM-12+025799999V0202301N01541000151CN0000001N9+00721+00671999999ADDAY141061GF108991081051000251999999MD1990061+9999MW1451
0061104270999991927102606004+51183+008483FM-12+025799999V0209999901541001501CN0200001N9+00891+00831999999ADDAA199003091AY121061GF108991081061001501999999KA1999N+00891
0051104270999991927102612004+51183+008483FM-12+025799999V0202301N01231030001CN0500001N9+01111+00891999999ADDAY111061GF106991021011004501021001MD1810061+9999
0050104270999991927102706004+51183+008483FM-12+025799999V0209999901901002401CN0200001N9+00891+00831999999ADDAY121061GF108991081051002501999999KA1999N+00891
0037104270999991927102712004+51183+008483FM-12+025799999V0202001N01541007801CN0200001N9+01111+00891999999ADDAY111061GF107991061051008001001021
0081104270999991927102806004+51183+008483FM-12+025799999V0209999901541000151CN0000001N9+00891+00831999999ADDAA199000391AY141061GF108991081051000251999999KA1999N+00891MD1210141+9999MW1511
0051104270999991927102812004+51183+008483FM-12+025799999V0202301N01541002401CN0200001N9+01001+00941999999ADDAY121061GF108991081051002501999999MD1990061+9999
0064104270999991927102906004+51183+008483FM-12+025799999V0209999901901004501CN0200001N9+00781+00721999999ADDAY111061GF107991061011004501001091KA1999N+00781MD1210061+9999
0051104270999991927102912004+51183+008483FM-12+025799999V0202501N01901220001CN0200001N9+00891+00441999999ADDAY101061GF102991011011004501001021MD1310141+9999
0064104270999991927103006004+51183+008483FM-12+025799999V0209999900671220001CN0100001N9+00611+00561999999ADDAY111061GF106991999001999999021001KA1999N+00501MD1410001+9999
0061104270999991927103106004+51183+008483FM-12+025799999V0209999900671220001CN0200001N9+00721+00671999999ADDAA199000391AY111061GF106991001001999999001081KA1999N+00721
0057104270999991927103112004+51183+008483FM-12+025799999V0202301N00461000151CN0000001N9+00891+00831999999ADDAY141061GF108991081051000251999999MD1410001+9999MW1451
0067104270999991927110206004+51183+008483FM-12+025799999V0209999901231000151CN0000001N9+00611+00561999999ADDAA199000691AY121061GF108991081051000251999999KA1999N+00611MW1611
0057104270999991927110212004+51183+008483FM-12+025799999V0202301N01541000151CN0000001N9+00721+00671999999ADDAY161061GF108991081051000251999999MD1410001+9999MW1511
0081104270999991927110306004+51183+008483FM-12+025799999V0209999901541000151CN0000001N9+01001+00941999999ADDAA199003091AY141061GF108991081051000251999999KA1999N+01001MD1510001+9999MW1611
0051104270999991927110312004+51183+008483FM-12+025799999V0202301N00931030001CN0100001N9+01111+01061999999ADDAY141061GF107991021011002501021001MD1710061+9999
0070104270999991927110406004+51183+008483FM-12+025799999V0209999901231000151CN0000001N9+00891+00831999999ADDAY141061GF108991081051000251999999KA1999N+00891MD1810141+9999MW1451
0057104270999991927110412004+51183+008483FM-12+025799999V0202301N01231000151CN0000001N9+00781+00721999999ADDAY161061GF108991081051000251999999MD1990061+9999MW1511
0081104270999991927110506004+51183+008483FM-12+025799999V0209999901231000151CN0000001N9+00501+00441999999ADDAA199000591AY181061GF108991081051000251999999KA1999N+00501MD1810141+9999MW1211
0057104270999991927110512004+51183+008483FM-12+025799999V0202301N01231000151CN0000001N9+00501+00441999999ADDAY161061GF108991081051000251999999MD1810141+9999MW1621
0081104270999991927110606004+51183+008483FM-12+025799999V0209999901541000151CN0000501N9+00221+00171999999ADDAA199000591AY161061GF108991081051000251999999KA1999N+00221MD1810201+9999MW1511
0070104270999991927110706004+51183+008483FM-12+025799999V0209999901231000151CN0000501N9+00221+00171999999ADDAY161061GF108991081051000251999999KA1999N+00111MD1510001+9999MW1611
0051104270999991927110712004+51183+008483FM-12+025799999V0202301N00931001501CN0200001N9+00221+00171999999ADDAY121061GF108991081051001501999999MD1310061+9999
0051104270999991927110812004+51183+008483FM-12+025799999V0202301N00671004501CN0200001N9+00111+00061999999ADDAY121061GF108991081051004501999999MD1110061+9999
0081104270999991927110906004+51183+008483FM-12+025799999V0209999900461000151CN0000001N9-00111-00171999999ADDAA199000691AY171061GF108991081051000251999999KA1999N-00111MD1710141+9999MW1711
0057104270999991927110912004+51183+008483FM-12+025799999V0203401N00101000151CN0000001N9-00111-00171999999ADDAY141061GF108991081051000251999999MD1810141+9999MW1451
0056104270999991927111006004+51183+008483FM-12+025799999V0209999900461000151CN0005001N9-00281-00331999999ADDAY141061GF108991081051000251999999KA1999N-00281MW1451
0051104270999991927111012004+51183+008483FM-12+025799999V0202701N00461000601CN0100001N9-00221-00281999999ADDAY121061GF108991081051000751999999MD1990061+9999
0057104270999991927111112004+51183+008483FM-12+025799999V0202701N00461000151CN0000001N9-00221-00281999999ADDAY171061GF108991081051000251999999MD1310061+9999MW1711
0081104270999991927111206004+51183+008483FM-12+025799999V0209999900261000151CN0002001N9-00281-00331999999ADDAA199001091AY121061GF108991081051000251999999KA1999N-00281MD1310201+9999MW1471
0051104270999991927111212004+51183+008483FM-12+025799999V0209991C00001000601CN0100001N9-00221-00281999999ADDAY121061GF108991081051000751999999MD1310141+9999
0081104270999991927111306004+51183+008483FM-12+025799999V0209999900461000151CN0002001N9-00391-00441999999ADDAA199002091AY141061GF108991081051000251999999KA1999N-00391MD1310141+9999MW1471
0037104270999991927111412004+51183+008483FM-12+025799999V0202501N00671030001CN0040001N9-00281-00331999999ADDAY111061GF107991021011001501031001
0081104270999991927111506004+51183+008483FM-12+025799999V0209999900461000151CN0000001N9-00281-00331999999ADDAA199004091AY141061GF108991081051000251999999KA1999N-00391MD1410001+9999MW1451
0043104270999991927111512004+51183+008483FM-12+025799999V0202701N00461000151CN0000001N9-00221-00281999999ADDAY141061GF108991081051000251999999MW1451
0043104270999991927111606004+51183+008483FM-12+025799999V0209999900461000151CN0000001N9-00111-00171999999ADDAY171061GF108991081051000251999999MW1711
0061104270999991927111706004+51183+008483FM-12+025799999V0209999900461220001CN0200001N9-00221-00391999999ADDAA199000391AY101061GF102991001001999999001021KA1999N-00221
0057104270999991927111812004+51183+008483FM-12+025799999V0202001N00461000151CN0000001N9-00111-00171999999ADDAY141061GF108991081051000251999999MD1810141+9999MW1451
0056104270999991927111906004+51183+008483FM-12+025799999V0209999900931000151CN0000001N9-00391-00441999999ADDAY141061GF108991081051000251999999KA1999N-00391MW1451
0057104270999991927111912004+51183+008483FM-12+025799999V0200901N01231000151CN0000001N9-00391-00441999999ADDAY171061GF108991081051000251999999MD1990061+9999MW1231
0070104270999991927112006004+51183+008483FM-12+025799999V0209999900671000151CN0000001N9-00611-00671999999ADDAY141061GF108991081051000251999999KA1999N-00611MD1410001+9999MW1451
0067104270999991927112106004+51183+008483FM-12+025799999V0209999901231000151CN0000001N9-00611-00671999999ADDAA199003091AY171061GF108991081051000251999999KA1999N-00721MW1771
0057104270999991927112112004+51183+008483FM-12+025799999V0201101N00461000151CN0000001N9-00391-00441999999ADDAY141061GF108991081051000251999999MD1210141+9999MW1451
0070104270999991927112206004+51183+008483FM-12+025799999V0209999900931000151CN0000001N9-00611-00671999999ADDAY141061GF108991081051000251999999KA1999N-00721MD1810261+9999MW1451
0070104270999991927112306004+51183+008483FM-12+025799999V0209999900461000151CN0000001N9-00611-00671999999ADDAY141061GF108991081051000251999999KA1999N-01001MD1510061+9999MW1451
0057104270999991927112312004+51183+008483FM-12+025799999V0202701N00461000151CN0000001N9-00501-00561999999ADDAY141061GF108991081051000251999999MD1310061+9999MW1451
0057104270999991927112506004+51183+008483FM-12+025799999V0209999900461000151CN0000001N9+00001-00061999999ADDAY141061GF108991081051000251999999MD1310201+9999MW1451
0056104270999991927112806004+51183+008483FM-12+025799999V0209999900461000151CN0000001N9-00221-00281999999ADDAY141061GF108991081051000251999999KA1999N-00281MW1451
0057104270999991927112812004+51183+008483FM-12+025799999V0202701N00461000151CN0000001N9-00111-00171999999ADDAY141061GF108991081051000251999999MD1810061+9999MW1441
0057104270999991927112912004+51183+008483FM-12+025799999V0201601N00261000151CN0000001N9-00221-00281999999ADDAY141061GF108991081051000251999999MD1710061+9999MW1451
0070104270999991927113006004+51183+008483FM-12+025799999V0209999900671000151CN0000001N9-00501-00561999999ADDAY141061GF108991081051000251999999KA1999N-00501MD1310061+9999MW1451
0057104270999991927113012004+51183+008483FM-12+025799999V0200501N00671000151CN0000001N9-00391-00441999999ADDAY141061GF108991081051000251999999MD1710061+9999MW1451
0056104270999991927120106004+51183+008483FM-12+025799999V0209999901541000151CN0000001N9-00391-00441999999ADDAY141061GF108991081051000251999999KA1999N-00501MW1451
0057104270999991927120112004+51183+008483FM-12+025799999V0201101N01231000151CN0000001N9-00391-00441999999ADDAY141061GF108991081051000251999999MD1810061+9999MW1451
0056104270999991927120206004+51183+008483FM-12+025799999V0209999901231000151CN0000001N9-00281-00331999999ADDAY141061GF108991081051000251999999KA1999N-00391MW1451
0051104270999991927120212004+51183+008483FM-12+025799999V0201601N00461000601CN0100001N9-00221-00281999999ADDAY121061GF108991081051000751999999MD1990061+9999
0050104270999991927120306004+51183+008483FM-12+025799999V0209999900931220001CN0040001N9-00281-00331999999ADDAY101061GF101991001001999999001021KA1999N-00281
0057104270999991927120312004+51183+008483FM-12+025799999V0201601N00671000151CN0000001N9-00281-00331999999ADDAY141061GF108991081051000251999999MD1810061+9999MW1471
0057104270999991927120406004+51183+008483FM-12+025799999V0209999900931000151CN0000001N9-00501-00561999999ADDAY141061GF108991081051000251999999MD1810141+9999MW1451
0043104270999991927120512004+51183+008483FM-12+025799999V0202001N00671000151CN0000501N9-00221-00281999999ADDAY141061GF108991081051000251999999MW1421
0050104270999991927120606004+51183+008483FM-12+025799999V0209999900931220001CN0200001N9+00221-00171999999ADDAY101061GF102991001001999999001021KA1999N+00001
0051104270999991927120612004+51183+008483FM-12+025799999V0200901N00931220001CN0500001N9+00501-00281999999ADDAY101061GF102991001001999999001021MD1810141+9999
0051104270999991927120812004+51183+008483FM-12+025799999V0201601N00261220001CN0100001N9+00111-00111999999ADDAY111061GF102991001001999999001021MD1010001+9999
0056104270999991927120906004+51183+008483FM-12+025799999V0209991C00001000151CN0000001N9-00221-00281999999ADDAY141061GF108991081051000251999999KA1999N-00221MW1451
0043104270999991927120912004+51183+008483FM-12+025799999V0209991C00001000151CN0000001N9-00111-00171999999ADDAY141061GF108991081051000251999999MW1451
0051104270999991927121012004+51183+008483FM-12+025799999V0201101N00461002401CN0200001N9-00281-00441999999ADDAY111061GF107991071051002501001001MD1990061+9999
0056104270999991927121106004+51183+008483FM-12+025799999V0209999900461000151CN0000001N9-00501-00561999999ADDAY141061GF108991081051000251999999KA1999N-00501MW1451
0051104270999991927121212004+51183+008483FM-12+025799999V0201101N00671001501CN0100001N9-00501-00561999999ADDAY141061GF106991061051001501001001MD1810141+9999
0050104270999991927121306004+51183+008483FM-12+025799999V0209999900261220001CN0200001N9-00391-00721999999ADDAY101061GF101991001001999999001021KA1999N-00501
0078104270999991927121312004+51183+008483FM-12+025799999V0203401N00461000151CN0000501N9-00781+99999999999ADDAY141061GF108991081051000251999999MW1461EQDQ01+023493ATOD  Q02 -03833ATOD  
0043104270999991927121412004+51183+008483FM-12+025799999V0202701N00461000151CN0000001N9-00391-00441999999ADDAY141061GF108991081051000251999999MW1451
0067104270999991927121506004+51183+008483FM-12+025799999V0209999900931000151CN0000501N9-00781-00831999999ADDAA199000691AY171061GF108991081051000251999999KA1999N-00781MW1731
0057104270999991927121512004+51183+008483FM-12+025799999V0201101N00461000151CN0005001N9-00891-00941999999ADDAY171061GF108991081051000251999999MD1310061+9999MW1711
0057104270999991927121612004+51183+008483FM-12+025799999V0200201N00931030001CN0040001N9-01281-01331999999ADDAY171061GF106991041061002501031001MD1310061+9999MW1701
0067104270999991927121706004+51183+008483FM-12+025799999V0209999900671002401CN0100001N9-01501-01671999999ADDAA199000391AY171061GF107991061061002501031001KA1999N-01611MW1231
0037104270999991927121712004+51183+008483FM-12+025799999V0203601N00671220001CN0500001N9-01391-01561999999ADDAY101061GF102991021011004501021001
0061104270999991927121806004+51183+008483FM-12+025799999V0209999900671001501CN0040001N9-01501-01561999999ADDAA199000591AY111061GF107991071051001501001001KA1999N-01501
0081104270999991927121906004+51183+008483FM-12+025799999V0209999900931000151CN0000001N9-01001-01061999999ADDAA199000691AY141061GF108991081051000251999999KA1999N-01501MD1610141+9999MW1451
0037104270999991927121912004+51183+008483FM-12+025799999V0200501N00671002401CN0200001N9-01111-01171999999ADDAY111061GF106991061011002501001001
0037104270999991927122012004+51183+008483FM-12+025799999V0201401N00931220001CN0500001N9-01281-01611999999ADDAY101061GF100991001001999999001001
0057104270999991927122112004+51183+008483FM-12+025799999V0201601N01231000151CN0000001N9-00781-00831999999ADDAY141061GF108991081051000251999999MD1810261+9999MW1451
0057104270999991927122212004+51183+008483FM-12+025799999V0201801N01541000151CN0000001N9+00001-00061999999ADDAY161061GF108991081051000251999999MD1810461+9999MW1631
0081104270999991927122306004+51183+008483FM-12+025799999V0209999901901000151CN0000001N9+00391+00331999999ADDAA199000691AY161061GF108991081051000251999999KA1999N+00391MD1810261+9999MW1611
0100104270999991927122406004+51183+008483FM-12+025799999V0209999901541000151CN0000001N9+00111+00061999999ADDAA199000691AY141061GF108991081051000251999999KA1999N+99999MD1310201+9999MW1451EQDQ01 +00392ATMN  
0086104270999991927122606004+51183+008483FM-12+025799999V0209999901231000151CN0000001N9+00221+00171999999ADDAA199000691AY141061GF108991081051000251999999KA1999N+99999MW1451EQDQ01 +00392ATMN  
0051104270999991927122812004+51183+008483FM-12+025799999V0200901N01901220001CN0200001N9-00781-00831999999ADDAY111061GF102991999001999999031001MD1310201+9999
0037104270999991927122912004+51183+008483FM-12+025799999V0200901N01901220001CN0500001N9-00891-01221999999ADDAY101061GF104991999001999999031001
0037104270999991927123006004+51183+008483FM-12+025799999V0209999901541220001CN0200001N9-01001-01441999999ADDAY101061GF101991001001999999001021
0037104270999991927123012004+51183+008483FM-12+025799999V0200701N01231220001CN0500001N9-00721-01221999999ADDAY101061GF102991001001999999001021
0037104270999991927123112004+51183+008483FM-12+025799999V0201401N00461000601CN0100001N9-00781-00831999999ADDAY141061GF106991061051000751001001
