0100104270999991929040206004+51183+008483FM-12+025799999V02099999012319999999N0000001N9+99999+99999999999ADDAA199000691AY171061GF108991999051999999999999KA1999N-00281MD1310662+9999MW1451EQDQ01+000662APC3  
0061104270999991929040306004+51183+008483FM-12+025799999V02099999004619999999N0200001N9+99999+99999999999ADDAA199008091AY121061GF108991999001999999001001KA1999N+00611
0083104270999991929040606004+51183+008483FM-12+025799999V02099999004619999999N0100001N9-00891-00941999999ADDAY111061GF106991999001999999001001KA1999N-01001MD1310742+9999EQDQ01+000742APC3  
0037104270999991929050112004+51183+008483FM-12+025799999V0202901N00101007801CN0200001N9+00111-00221999999ADDAY121061GF108991081051008001999999
0051104270999991929050212004+51183+008483FM-12+025799999V0200501N00101007801CN0200001N9+00391+00001999999ADDAY111061GF107991071051008001001001MD1810061+9999
0051104270999991929050312004+51183+008483FM-12+025799999V0200701N00671220001CN0100001N9+00501+00111999999ADDAY121061GF108991999001999999021001MD1310141+9999
0037104270999991929050412004+51183+008483FM-12+025799999V0202001N00101007801CN0200001N9+00891+00441999999ADDAY111061GF106991061051008001001001
0051104270999991929050612004+51183+008483FM-12+025799999V0201801N01541220001CN0500001N9+01781+00221999999ADDAY101061GF102991011011008001001081MD1810061+9999
0051104270999991929050712004+51183+008483FM-12+025799999V0202001N00931007801CN0500001N9+01111+00221999999ADDAY111061GF106991061011008001001001MD1310061+9999
0050104270999991929050806004+51183+008483FM-12+025799999V0209999900461220001CN0200001N9+99999+99999999999ADDAY101061GF104991999001999999001021KA1999N+00721
0037104270999991929050812004+51183+008483FM-12+025799999V0202301N00671007801CN0200001N9+01281+00611999999ADDAY111061GF107991071011008001001001
0043104270999991929050906004+51183+008483FM-12+025799999V02099999004619999999N0000001N9+99999+99999999999ADDAY141061GF108991999051999999999999MW1451
0057104270999991929050912004+51183+008483FM-12+025799999V0203201N00671000151CN0000001N9+00391+00331999999ADDAY141061GF108991081051000251999999MD1310141+9999MW1451
0067104270999991929051006004+51183+008483FM-12+025799999V02099999004619999999N0010001N9+99999+99999999999ADDAA199000591AY141061GF108991999051999999999999KA1999N+00281MW1101
0037104270999991929051012004+51183+008483FM-12+025799999V0202901N001019999999N0200001N9+00891+00061999999ADDAY111061GF106991999051008001001001
0050104270999991929051106004+51183+008483FM-12+025799999V0209999900461220001CN0200001N9+99999+99999999999ADDAY101061GF102991999001999999001081KA1999N+00611
0037104270999991929051112004+51183+008483FM-12+025799999V0202001N00261007801CN0200001N9+01221+00061999999ADDAY111061GF106991061051008001001001
0050104270999991929051206004+51183+008483FM-12+025799999V0209999900101012301CN0200001N9+01501+00611999999ADDAY111061GF107991071051012501001001KA1999N+01001
0061104270999991929051306004+51183+008483FM-12+025799999V0209999900671015001CN0200001N9+00781+00561999999ADDAA199000391AY111061GF106991999011017501001081KA1999N+00611
0043104270999991929051312004+51183+008483FM-12+025799999V0202501N00461002401CN0100001N9+00781+00721999999ADDAY161061GF108991081051002501999999MW1211
0050104270999991929051406004+51183+008483FM-12+025799999V02099999006719999999N0100001N9+99999+99999999999ADDAY111061GF107991999001999999031001KA1999N+00611
0051104270999991929051412004+51183+008483FM-12+025799999V0202001N00671030001CN0200001N9+01001+00611999999ADDAY121061GF108991041051012501021001MD1810061+9999
0061104270999991929051506004+51183+008483FM-12+025799999V0209999900461007801CN0200001N9+99999+99999999999ADDAA199000691AY111061GF106991061061008001031001KA1999N+00391
0050104270999991929051606004+51183+008483FM-12+025799999V0209999900461015001CN0100001N9+99999+99999999999ADDAY111061GF107991071051017501001021KA1999N+00501
0043104270999991929051612004+51183+008483FM-12+025799999V0202701N00261007801CN0200001N9+00781+00391999999ADDAY111061GF106991061061008001001001MW1601
0056104270999991929051706004+51183+008483FM-12+025799999V02099999006719999999N0000501N9+99999+99999999999ADDAY141061GF108991999051999999999999KA1999N+00221MW1451
0037104270999991929051712004+51183+008483FM-12+025799999V0203201N00261075001CN0200001N9+00721+00331999999ADDAY111061GF106991041051008001001021
0056104270999991929051806004+51183+008483FM-12+025799999V02099999006719999999N0000001N9+99999+99999999999ADDAY141061GF108991999051999999999999KA1999N+00391MW1451
0057104270999991929051812004+51183+008483FM-12+025799999V0203201N00671000151CN0000001N9+00501+00441999999ADDAY161061GF108991081061000251999999MD1810061+9999MW1631
0061104270999991929051906004+51183+008483FM-12+025799999V0209999900671220001CN0200001N9+99999+99999999999ADDAA199001091AY111061GF104991041051002501001001KA1999N+00001
0050104270999991929052006004+51183+008483FM-12+025799999V0209999900461220001CN0200001N9+00721+00331999999ADDAY101061GF100991001001999999001001KA1999N+00281
0050104270999991929052106004+51183+008483FM-12+025799999V0209999900261220001CN0200001N9+01611+00941999999ADDAY101061GF100991001001999999001001KA1999N+00781
0037104270999991929052112004+51183+008483FM-12+025799999V0201101N00461030001CN0200001N9+01391+00501999999ADDAY101061GF106991021011004501021001
0050104270999991929052206004+51183+008483FM-12+025799999V0209999900261220001CN0200001N9+01501+00611999999ADDAY101061GF100991001001999999001001KA1999N+00611
0037104270999991929052212004+51183+008483FM-12+025799999V0201101N00101220001CN0200001N9+01611+00721999999ADDAY101061GF104991041011008001001001
0050104270999991929052306004+51183+008483FM-12+025799999V0209999900671220001CN0200001N9+99999+99999999999ADDAY101061GF102991999011017501001081KA1999N+01001
0057104270999991929052312004+51183+008483FM-12+025799999V0200701N00931007801CN0200001N9+01281+00831999999ADDAY111061GF106991061011008001001001MD1810061+9999MW1211
0050104270999991929052406004+51183+008483FM-12+025799999V02099999001019999999N0200001N9+99999+99999999999ADDAY111061GF106991999001999999021001KA1999N+01001
0037104270999991929052412004+51183+008483FM-12+025799999V0201401N00671007801CN0200001N9+01891+00941999999ADDAY111061GF106991061011008001001001
0061104270999991929052506004+51183+008483FM-12+025799999V0209991C00001220001CN0200001N9+01721+01281999999ADDAA199007091AY101061GF102991999001999999001081KA1999N+01001
0037104270999991929052512004+51183+008483FM-12+025799999V0203401N00261007801CN0200001N9+01891+00941999999ADDAY111061GF106991061051008001001001
0050104270999991929052606004+51183+008483FM-12+025799999V0209999900261220001CN0200001N9+99999+99999999999ADDAY101061GF102991999001999999001091KA1999N+01611
0050104270999991929052706004+51183+008483FM-12+025799999V0209999900461220001CN0200001N9+01721+01281999999ADDAY101061GF102991999001999999001081KA1999N+01281
0037104270999991929052712004+51183+008483FM-12+025799999V0200501N00461220001CN0200001N9+02001+01061999999ADDAY101061GF102991011011008001001081
0050104270999991929052806004+51183+008483FM-12+025799999V0209999900461220001CN0500001N9+01501+00611999999ADDAY101061GF100991001001999999001001KA1999N+01221
0037104270999991929052812004+51183+008483FM-12+025799999V0200501N00261220001CN0500001N9+01781+00561999999ADDAY111061GF104991041011008001001001
0037104270999991929052912004+51183+008483FM-12+025799999V0203201N00261220001CN0200001N9+01721+00831999999ADDAY111061GF104991041011008001001081
0050104270999991929053106004+51183+008483FM-12+025799999V0209999900101220001CN0200001N9+01721+01281999999ADDAY101061GF101991999001999999001081KA1999N+00781
0051104270999991929053112004+51183+008483FM-12+025799999V0203401N00101220001CN0500001N9+01391+00221999999ADDAY101061GF102991011011008001001021MD1810061+9999
0050104270999991929060106004+51183+008483FM-12+025799999V0209999900101015001CN0200001N9+99999+99999999999ADDAY111061GF107991071051017501001001KA1999N+00221
0037104270999991929060112004+51183+008483FM-12+025799999V0209991C00001007801CN0200001N9+00891+00281999999ADDAY111061GF106991061011008001001001
0037104270999991929060206004+51183+008483FM-12+025799999V02099999004619999999N0200001N9+99999+99999999999ADDAY111061GF106991999001999999031001
0067104270999991929060306004+51183+008483FM-12+025799999V02099999006719999999N0000501N9+00891+00831999999ADDAA199022091AY141061GF108991999051000251999999KA1999N+00891MW1451
0057104270999991929060312004+51183+008483FM-12+025799999V0202301N00931002401CN0100001N9+01111+01061999999ADDAY161061GF108991081061002501999999MD1810061+9999MW1501
0067104270999991929060406004+51183+008483FM-12+025799999V02099999006719999999N0002001N9+99999+99999999999ADDAA199002091AY141061GF108991999051000251999999KA1999N+00611MW1451
0043104270999991929060412004+51183+008483FM-12+025799999V0202301N00671002401CN0100001N9+00501+00441999999ADDAY161061GF108991081061002501999999MW1631
0051104270999991929060512004+51183+008483FM-12+025799999V0202501N00101075001CN0200001N9+00721+00111999999ADDAY111061GF106991041011008001001021MD1810061+9999
0076104270999991929060612004+51183+008483FM-12+025799999V0202701N00101000151CN0005001N9+00501+99999999999ADDAY141061GF108991081051000251999999MD1310061+9999MW1451EQDQ01 -02893ATOD  
0051104270999991929060712004+51183+008483FM-12+025799999V0202301N00671220001CN0200001N9+01111+00501999999ADDAY111061GF104991041011008001001001MD1310261+9999
0050104270999991929060806004+51183+008483FM-12+025799999V02099999001019999999N0200001N9+99999+99999999999ADDAY111061GF107991999001999999021001KA1999N+00721
0037104270999991929060812004+51183+008483FM-12+025799999V0201801N00261007801CN0200001N9+00281+00221999999ADDAY121061GF108991081051008001999999
0056104270999991929060906004+51183+008483FM-12+025799999V02099999006719999999N0000001N9+99999+99999999999ADDAY141061GF108991999051000251999999KA1999N+01001MW1451
0037104270999991929061012004+51183+008483FM-12+025799999V0200201N00101075001CN0200001N9+01281+00391999999ADDAY111061GF106991041011008001001021
0037104270999991929061112004+51183+008483FM-12+025799999V0200501N00261220001CN0200001N9+01391+00221999999ADDAY101061GF100991001001999999001001
0051104270999991929061212004+51183+008483FM-12+025799999V0200701N004619999999N0200001N9+01781+00561999999ADDAY111061GF107991999999999999001001MD1110061+9999
0051104270999991929061312004+51183+008483FM-12+025799999V0201801N00931007801CN0200001N9+01221+01001999999ADDAY111061GF108991081051008001999999MD1310061+9999
0050104270999991929061406004+51183+008483FM-12+025799999V0209999900461007801CN0200001N9+01721+01281999999ADDAY111061GF106991061051008001001001KA1999N+01001
0051104270999991929061412004+51183+008483FM-12+025799999V0201801N00461220001CN0200001N9+01611+00721999999ADDAY111061GF104991041011008001001001MD1810061+9999
0061104270999991929061506004+51183+008483FM-12+025799999V0209999900671007801CN0200001N9+99999+99999999999ADDAA199005091AY161061GF106991061011008001001001KA1999N+00781
0051104270999991929061512004+51183+008483FM-12+025799999V0202001N00671007801CN0200001N9+01281+00391999999ADDAY111061GF106991061011008001001001MD1310061+9999
0050104270999991929061606004+51183+008483FM-12+025799999V0209999900671220001CN0200001N9+02721+02221999999ADDAY111061GF104991999011008001001021KA1999N+00781
0037104270999991929061706004+51183+008483FM-12+025799999V0209999900261007801CN0200001N9+01891+01831999999ADDAY181061GF106991061051008001001001
0051104270999991929061712004+51183+008483FM-12+025799999V0203201N00101007801CN0200001N9+01391+00501999999ADDAY111061GF106991061011008001001001MD1310061+9999
0050104270999991929061806004+51183+008483FM-12+025799999V0209999900101220001CN0200001N9+01721+01281999999ADDAY101061GF102991999001999999001081KA1999N+00891
0050104270999991929061906004+51183+008483FM-12+025799999V0209999900261220001CN0200001N9+01721+01281999999ADDAY101061GF102991999001999999001081KA1999N+01281
0051104270999991929061912004+51183+008483FM-12+025799999V0201401N00101220001CN0200001N9+02001+01061999999ADDAY101061GF102991011011008001001081MD1810061+9999
0050104270999991929062006004+51183+008483FM-12+025799999V0209999900461220001CN0200001N9+99999+99999999999ADDAY111061GF104991999011017501001081KA1999N+01391
0057104270999991929062012004+51183+008483FM-12+025799999V0201801N00461004501CN0100001N9+02281+01331999999ADDAY191061GF106991061091004501001001MD1810061+9999MW1951
0050104270999991929062106004+51183+008483FM-12+025799999V0209999900931220001CN0200001N9+99999+99999999999ADDAY101061GF102991999011017501001001KA1999N+00611
0051104270999991929062112004+51183+008483FM-12+025799999V0202901N00931220001CN0200001N9+01001+00111999999ADDAY111061GF104991041011008001001001MD1310061+9999
0050104270999991929062206004+51183+008483FM-12+025799999V02099999004619999999N0100001N9+99999+99999999999ADDAY111061GF108991999051999999999999KA1999N+00501
0051104270999991929062212004+51183+008483FM-12+025799999V0202501N00461007801CN0200001N9+01001+00781999999ADDAY121061GF108991081051008001999999MD1810201+9999
0081104270999991929062306004+51183+008483FM-12+025799999V02099999012319999999N0000501N9+00891+00831999999ADDAA199002091AY141061GF108991999051999999999999KA1999N+00721MD1990151+9999MW1451
0061104270999991929062406004+51183+008483FM-12+025799999V02099999006719999999N0100001N9+99999+99999999999ADDAA199006091AY161061GF108991999051999999999999KA1999N+00281
0057104270999991929062412004+51183+008483FM-12+025799999V0202501N00671002401CN0100001N9+00391+00331999999ADDAY161061GF108991081061002501999999MD1510001+9999MW1631
0067104270999991929062506004+51183+008483FM-12+025799999V02099999012319999999N0000501N9+99999+99999999999ADDAA199014091AY161061GF108991999061000251999999KA1999N+00221MW1631
0057104270999991929062512004+51183+008483FM-12+025799999V0202501N01231000151CN0000001N9+00721+00671999999ADDAY161061GF108991081061000251999999MD1310141+9999MW1631
0067104270999991929062606004+51183+008483FM-12+025799999V02099999006719999999N0000001N9+99999+99999999999ADDAA199004091AY141061GF108991999051999999999999KA1999N+00611MW1451
0043104270999991929062612004+51183+008483FM-12+025799999V0202901N00931000151CN0000001N9+00721+00671999999ADDAY141061GF108991081051000251999999MW1451
0067104270999991929062706004+51183+008483FM-12+025799999V02099999006719999999N0000001N9+99999+99999999999ADDAA199000591AY141061GF108991999051999999999999KA1999N+00391MW1451
0050104270999991929062806004+51183+008483FM-12+025799999V0209991C00001220001CN0200001N9+99999+99999999999ADDAY111061GF104991999011008001001001KA1999N+00611
0037104270999991929062812004+51183+008483FM-12+025799999V0203201N00101007801CN0200001N9+01221+00331999999ADDAY111061GF106991061011008001001001
0050104270999991929062906004+51183+008483FM-12+025799999V0209991C00001220001CN0200001N9+01721+01281999999ADDAY101061GF100991001001999999001001KA1999N+00781
0051104270999991929062912004+51183+008483FM-12+025799999V0202001N00101220001CN0200001N9+01611+00441999999ADDAY111061GF104991041011008001001001MD1810141+9999
0037104270999991929063006004+51183+008483FM-12+025799999V0209991C000019999999N0200001N9+01611+00941999999ADDAY111061GF106991999001999999021021
0067104270999991929070106004+51183+008483FM-12+025799999V02099999006719999999N0000501N9+01891+01831999999ADDAA124999999AY141061GF108991999051999999999999KA1999N+01111MW1451
0057104270999991929070112004+51183+008483FM-12+025799999V0202501N00461007801CN0200001N9+01281+01221999999ADDAY191061GF108991081051008001999999MD1310061+9999MW1291
0056104270999991929070206004+51183+008483FM-12+025799999V02099999004619999999N0000001N9+99999+99999999999ADDAY141061GF108991999051999999999999KA1999N+00781MW1451
0037104270999991929070212004+51183+008483FM-12+025799999V0201801N00261002401CN0200001N9+01001+00781999999ADDAY121061GF108991081051002501999999
0067104270999991929070306004+51183+008483FM-12+025799999V02099999012319999999N0000001N9+99999+99999999999ADDAA199003091AY141061GF108991999051999999999999KA1999N+01001MW1451
0051104270999991929070312004+51183+008483FM-12+025799999V0202001N00931075001CN0200001N9+01611+01171999999ADDAY111061GF106991041011008001001091MD1310141+9999
0067104270999991929070406004+51183+008483FM-12+025799999V02099999006719999999N0000001N9+99999+99999999999ADDAA199003091AY141061GF108991999051999999999999KA1999N+01221MW1451
0037104270999991929070412004+51183+008483FM-12+025799999V0201801N01231007801CN0200001N9+01721+01501999999ADDAY111061GF106991061011008001001001
0050104270999991929070506004+51183+008483FM-12+025799999V0209999900101007801CN0200001N9+01721+01281999999ADDAY111061GF106991061051008001001001KA1999N+00891
0051104270999991929070512004+51183+008483FM-12+025799999V0202001N00671007801CN0200001N9+01501+00831999999ADDAY111061GF106991061011008001001001MD1810061+9999
0050104270999991929070606004+51183+008483FM-12+025799999V02099999004619999999N0100001N9+99999+99999999999ADDAY121061GF108991999051999999999999KA1999N+00721
0051104270999991929070612004+51183+008483FM-12+025799999V0202001N00461007801CN0200001N9+01281+00611999999ADDAY111061GF106991061011008001001001MD1810141+9999
0067104270999991929070806004+51183+008483FM-12+025799999V02099999006719999999N0000501N9+99999+99999999999ADDAA199005091AY141061GF108991999051000251999999KA1999N+00391MW1451
0051104270999991929070812004+51183+008483FM-12+025799999V0202301N00671220001CN0200001N9+00781+00721999999ADDAY111061GF104991041051008001001001MD1310061+9999
0067104270999991929070906004+51183+008483FM-12+025799999V02099999004619999999N0000001N9+99999+99999999999ADDAA199003091AY141061GF108991999051000251999999KA1999N+00281MW1451
0051104270999991929070912004+51183+008483FM-12+025799999V0202501N00461007801CN0200001N9+00781+00561999999ADDAY121061GF108991081051008001999999MD1310061+9999
0050104270999991929071006004+51183+008483FM-12+025799999V02099999002619999999N0200001N9+99999+99999999999ADDAY111061GF106991999001999999031001KA1999N+00721
0037104270999991929071012004+51183+008483FM-12+025799999V0202001N00101220001CN0200001N9+01501+00611999999ADDAY111061GF104991041011008001001001
0050104270999991929071106004+51183+008483FM-12+025799999V02099999001019999999N0200001N9+01611+00941999999ADDAY111061GF107991999001999999021001KA1999N+01221
0051104270999991929071112004+51183+008483FM-12+025799999V0202001N00101220001CN0200001N9+01891+01221999999ADDAY111061GF106991999001999999031001MD1990061+9999
0050104270999991929071206004+51183+008483FM-12+025799999V0209991C00001220001CN0200001N9+99999+99999999999ADDAY111061GF104991999001999999031001KA1999N+01611
0051104270999991929071212004+51183+008483FM-12+025799999V0203401N00461220001CN0200001N9+01891+01221999999ADDAY121061GF108991999001999999021001MD1810061+9999
0061104270999991929071306004+51183+008483FM-12+025799999V0209991C000019999999N0200001N9+99999+99999999999ADDAA199001091AY111061GF107991999001999999021001KA1999N+01611
0043104270999991929071312004+51183+008483FM-12+025799999V0203601N00461000151CN0000501N9+01391+01331999999ADDAY141061GF108991081051000251999999MW1451
0050104270999991929071406004+51183+008483FM-12+025799999V0209999900671220001CN0200001N9+01721+01281999999ADDAY101061GF101991999001999999001021KA1999N+00721
0050104270999991929071506004+51183+008483FM-12+025799999V0209999900101220001CN0200001N9+01721+01281999999ADDAY101061GF100991001001999999001001KA1999N+00721
0037104270999991929071512004+51183+008483FM-12+025799999V0203401N00461220001CN0200001N9+01721+00831999999ADDAY101061GF100991001001999999001001
0050104270999991929071606004+51183+008483FM-12+025799999V0209999900461220001CN0200001N9+99999+99999999999ADDAY101061GF100991999001999999001001KA1999N+01221
0051104270999991929071612004+51183+008483FM-12+025799999V0200701N00101220001CN0500001N9+01891+00331999999ADDAY101061GF101991001001999999001021MD1810061+9999
0050104270999991929071706004+51183+008483FM-12+025799999V0209991C00001220001CN0200001N9+02501+01561999999ADDAY101061GF100991001001999999001001KA1999N+01501
0037104270999991929071812004+51183+008483FM-12+025799999V0202301N00461220001CN0200001N9+02391+01721999999ADDAY111061GF104991999999001501999999
0050104270999991929071906004+51183+008483FM-12+025799999V0209999900461220001CN0200001N9+99999+99999999999ADDAY101061GF102991999001999999001081KA1999N+01611
0050104270999991929072006004+51183+008483FM-12+025799999V0209991C00001220001CN0200001N9+02611+01891999999ADDAY101061GF101991999001999999001081KA1999N+01891
0043104270999991929072012004+51183+008483FM-12+025799999V0203201N00461007801CN0200001N9+02001+01721999999ADDAY161061GF106991061051008001001001MW1211
0050104270999991929072106004+51183+008483FM-12+025799999V0209999900101220001CN0200001N9+02891+02831999999ADDAY101061GF101991999001999999001021KA1999N+01721
0061104270999991929072206004+51183+008483FM-12+025799999V0209999900101220001CN0200001N9+99999+99999999999ADDAA199003091AY101061GF101991999001999999001081KA1999N+01781
0050104270999991929072306004+51183+008483FM-12+025799999V0209999900461220001CN0200001N9+99999+99999999999ADDAY101061GF101991999001999999001081KA1999N+01611
0037104270999991929072312004+51183+008483FM-12+025799999V0202501N00671220001CN0200001N9+02221+01561999999ADDAY101061GF102991021011008001001001
0050104270999991929072406004+51183+008483FM-12+025799999V02099999001019999999N0100001N9+99999+99999999999ADDAY121061GF108991999001999999021001KA1999N+01391
0051104270999991929072412004+51183+008483FM-12+025799999V0203201N00101002401CN0100001N9+01501+01441999999ADDAY121061GF108991081051002501999999MD1810201+9999
0050104270999991929072506004+51183+008483FM-12+025799999V02099999001019999999N0200001N9+01611+00941999999ADDAY111061GF106991999001999999021001KA1999N+01001
0037104270999991929072512004+51183+008483FM-12+025799999V0202501N00101007801CN0200001N9+01391+00941999999ADDAY111061GF106991061011008001001001
0050104270999991929072606004+51183+008483FM-12+025799999V02099999004619999999N0200001N9+99999+99999999999ADDAY101061GF108991999051999999999999KA1999N+00721
0057104270999991929072612004+51183+008483FM-12+025799999V0203201N00461001501CN0100001N9+00781+00721999999ADDAY161061GF108991081061001501999999MD1310061+9999MW1631
0050104270999991929072706004+51183+008483FM-12+025799999V0209999900671007801CN0200001N9+99999+99999999999ADDAY111061GF106991061051008001001001KA1999N+00611
0051104270999991929072712004+51183+008483FM-12+025799999V0202901N00461220001CN0200001N9+01111+00221999999ADDAY111061GF104991041011008001001001MD1310061+9999
0057104270999991929072912004+51183+008483FM-12+025799999V0201801N00671000151CN0000001N9+01111+01061999999ADDAY161061GF108991081061000251999999MD1810141+9999MW1531
0051104270999991929073012004+51183+008483FM-12+025799999V0202501N00931007801CN0200001N9+01501+01061999999ADDAY111061GF106991061011008001001001MD1310061+9999
0057104270999991929073112004+51183+008483FM-12+025799999V0202301N00931004501CN0200001N9+01111+00891999999ADDAY161061GF108991081061004501999999MD1810061+9999MW1611
0067104270999991929080106004+51183+008483FM-12+025799999V02099999015419999999N0100001N9+99999+99999999999ADDAA199007091AY161061GF108991999061999999999999KA1999N+01001MW1631
0051104270999991929080112004+51183+008483FM-12+025799999V0202001N01541004501CN0500001N9+01281+00611999999ADDAY111061GF106991061011004501001001MD1310061+9999
0094104270999991929080206004+51183+008483FM-12+025799999V0209999900671024001CN0100001N9+00891+00831999999ADDAA199004091AY121061GF108991999051999999999999KA1999N+00781MD1310602+9999EQDQ01+000602APC3  
0051104270999991929080212004+51183+008483FM-12+025799999V0202701N00261004501CN0100001N9+01001+00941999999ADDAY111061GF106991061051004501001001MD1310141+9999
0050104270999991929080306004+51183+008483FM-12+025799999V0209999900101220001CN0200001N9+00891+00831999999ADDAY101061GF101991999001999999001021KA1999N+00611
0051104270999991929080312004+51183+008483FM-12+025799999V0201801N00671004501CN0200001N9+01281+00611999999ADDAY111061GF106991061011004501001001MD1810141+9999
0050104270999991929080406004+51183+008483FM-12+025799999V0209999900671220001CN0200001N9+01721+01281999999ADDAY101061GF102991999001999999001081KA1999N+01001
0050104270999991929080506004+51183+008483FM-12+025799999V0209999900461030001CN0200001N9+99999+99999999999ADDAY111061GF108991041051004501021001KA1999N+01221
0051104270999991929080512004+51183+008483FM-12+025799999V0202301N00671007801CN0100001N9+01501+01281999999ADDAY181061GF106991061011008001001001MD1310061+9999
0050104270999991929080606004+51183+008483FM-12+025799999V0209999900461220001CN0200001N9+99999+99999999999ADDAY111061GF104991999001999999031001KA1999N+00781
0051104270999991929080612004+51183+008483FM-12+025799999V0201801N00461075001CN0200001N9+01501+00611999999ADDAY111061GF106991041011004501001021MD1810141+9999
0050104270999991929080706004+51183+008483FM-12+025799999V0209999900671220001CN0200001N9+01721+01281999999ADDAY101061GF104991999001999999021001KA1999N+01111
0037104270999991929080712004+51183+008483FM-12+025799999V0201801N00931075001CN0200001N9+02001+01061999999ADDAY111061GF106991011011004501001021
0050104270999991929080806004+51183+008483FM-12+025799999V02099999002619999999N0200001N9+99999+99999999999ADDAY121061GF108991999001999999021001KA1999N+01221
0051104270999991929080812004+51183+008483FM-12+025799999V0202001N00261004501CN0100001N9+01391+01331999999ADDAY121061GF108991081051004501999999MD1310061+9999
0056104270999991929080906004+51183+008483FM-12+025799999V02099999002619999999N0000501N9+00891+00831999999ADDAY141061GF108991999051999999999999KA1999N+00891MW1451
0037104270999991929080912004+51183+008483FM-12+025799999V0202701N00101004501CN0100001N9+01281+00831999999ADDAY111061GF106991061011004501001001
0050104270999991929081006004+51183+008483FM-12+025799999V02099999002619999999N0200001N9+99999+99999999999ADDAY121061GF108991999001999999021001KA1999N+00891
0051104270999991929081012004+51183+008483FM-12+025799999V0209991C00001004501CN0200001N9+01391+00721999999ADDAY111061GF106991061011004501001001MD1310061+9999
0050104270999991929081106004+51183+008483FM-12+025799999V0209999900101220001CN0100001N9+01721+01281999999ADDAY101061GF102991999001999999001081KA1999N+01221
0050104270999991929081206004+51183+008483FM-12+025799999V02099999001019999999N0100001N9+99999+99999999999ADDAY121061GF108991999001999999021001KA1999N+01221
0051104270999991929081212004+51183+008483FM-12+025799999V0202901N00261004501CN0100001N9+01501+01281999999ADDAY111061GF106991061011004501001001MD1310061+9999
0050104270999991929081306004+51183+008483FM-12+025799999V0209991C00001220001CN0200001N9+99999+99999999999ADDAY101061GF100991001001999999001001KA1999N+00721
0037104270999991929081312004+51183+008483FM-12+025799999V0203401N00101220001CN0200001N9+01501+00611999999ADDAY101061GF104991041011004501001001
0069104270999991929081406004+51183+008483FM-12+025799999V0209999900671220001CN0200001N9+01721+01281999999ADDAY101061GF101991999001999999001081KA1999N+99999EQDQ01 +02112ATMN  
0051104270999991929081412004+51183+008483FM-12+025799999V0202001N00461220001CN0200001N9+02001+00781999999ADDAY101061GF101991001001999999001021MD1810061+9999
0050104270999991929081506004+51183+008483FM-12+025799999V0209991C000019999999N0200001N9+99999+99999999999ADDAY111061GF106991999001999999031001KA1999N+01111
0037104270999991929081512004+51183+008483FM-12+025799999V0203201N00101004501CN0200001N9+01611+01171999999ADDAY111061GF106991061011004501001001
0050104270999991929081606004+51183+008483FM-12+025799999V0209991C00001220001CN0100001N9+99999+99999999999ADDAY101061GF102991999001999999001081KA1999N+01221
0051104270999991929081612004+51183+008483FM-12+025799999V0201801N00261220001CN0200001N9+02111+01171999999ADDAY101061GF102991021011004501001001MD1810061+9999
0061104270999991929081706004+51183+008483FM-12+025799999V02099999006719999999N0200001N9+99999+99999999999ADDAA199000691AY121061GF108991999051999999999999KA1999N+01611
0057104270999991929081712004+51183+008483FM-12+025799999V0202001N00671000151CN0010001N9+01611+01561999999ADDAY161061GF108991081061000251999999MD1310141+9999MW1651
0037104270999991929081806004+51183+008483FM-12+025799999V0209991C000019999999N0100001N9+99999+99999999999ADDAY111061GF107991999001999999021021
0064104270999991929081906004+51183+008483FM-12+025799999V0200601N00671015001CN0100001N9+00891+00831999999ADDAY111061GF106991999051017501001001KA1999N+00721MD1710061+9999
0051104270999991929081912004+51183+008483FM-12+025799999V0203201N00261004501CN0200001N9+01001+00781999999ADDAY111061GF107991071051004501001001MD1310061+9999
0050104270999991929082006004+51183+008483FM-12+025799999V0209991C000019999999N0200001N9+99999+99999999999ADDAY121061GF108991999001999999031001KA1999N+00721
0051104270999991929082012004+51183+008483FM-12+025799999V0209991C00001075001CN0500001N9+01221+00611999999ADDAY111061GF106991041011004501001021MD1810061+9999
0050104270999991929082106004+51183+008483FM-12+025799999V0209991C000019999999N0200001N9+99999+99999999999ADDAY121061GF108991999051999999999999KA1999N+00891
0037104270999991929082112004+51183+008483FM-12+025799999V0202001N00101004501CN0500001N9+01221+00781999999ADDAY121061GF108991061051004501001021
0050104270999991929082206004+51183+008483FM-12+025799999V0209999900461220001CN0200001N9+01721+01281999999ADDAY111061GF104991999001999999031021KA1999N+01001
0057104270999991929082212004+51183+008483FM-12+025799999V0202001N00261002401CN0100001N9+01221+01171999999ADDAY161061GF108991081061002501999999MD1810061+9999MW1611
0067104270999991929082306004+51183+008483FM-12+025799999V02099999004619999999N0000501N9+99999+99999999999ADDAA199011091AY141061GF108991999051999999999999KA1999N+01001MW1451
0051104270999991929082312004+51183+008483FM-12+025799999V0202001N00671004501CN0200001N9+01281+01061999999ADDAY121061GF108991081051004501999999MD1310061+9999
0067104270999991929082406004+51183+008483FM-12+025799999V02099999006719999999N0000001N9+99999+99999999999ADDAA199003091AY141061GF108991999051999999999999KA1999N+01221MW1451
0051104270999991929082412004+51183+008483FM-12+025799999V0202001N00671220001CN0200001N9+01781+01561999999ADDAY111061GF104991041011004501001001MD1990061+9999
0037104270999991929082612004+51183+008483FM-12+025799999V0200201N00101220001CN0200001N9+01501+00831999999ADDAY101061GF104991011011004501001021
0051104270999991929082712004+51183+008483FM-12+025799999V0201401N00931220001CN0200001N9+01781+01111999999ADDAY101061GF101991001001999999001081MD1810141+9999
0037104270999991929082812004+51183+008483FM-12+025799999V0202001N00671220001CN0200001N9+02281+01611999999ADDAY111061GF104991021011004501001021
0050104270999991929082906004+51183+008483FM-12+025799999V0209991C00001220001CN0100001N9+99999+99999999999ADDAY101061GF104991999001999999021001KA1999N+01281
0037104270999991929082912004+51183+008483FM-12+025799999V0202301N00261000601CN0200001N9+01781+00891999999ADDAY111061GF106991061011000751001001
0050104270999991929083006004+51183+008483FM-12+025799999V02099999001019999999N0200001N9+01721+01281999999ADDAY111061GF106991999001999999021001KA1999N+01391
0051104270999991929083012004+51183+008483FM-12+025799999V0201801N00101220001CN0200001N9+02001+01061999999ADDAY111061GF104991041011004501001021MD1810061+9999
0050104270999991929083106004+51183+008483FM-12+025799999V0209999900461220001CN0200001N9+99999+99999999999ADDAY101061GF102991999011017501001001KA1999N+01721
0051104270999991929083112004+51183+008483FM-12+025799999V0201801N00101220001CN0200001N9+02281+01061999999ADDAY101061GF101991011011008001001001MD1810061+9999
0050104270999991929090106004+51183+008483FM-12+025799999V0209999900461220001CN0200001N9+02001+01061999999ADDAY101061GF101991001001999999001081KA1999N+01891
0050104270999991929090206004+51183+008483FM-12+025799999V0209991C00001075001CN0200001N9+01891+01611999999ADDAY111061GF107991011011004501001021KA1999N+01721
0037104270999991929090212004+51183+008483FM-12+025799999V0202501N00101220001CN0200001N9+02281+01611999999ADDAY101061GF102991021011004501001021
0050104270999991929090306004+51183+008483FM-12+025799999V0209999900101220001CN0200001N9+01721+01281999999ADDAY101061GF101991001001999999001081KA1999N+01501
0051104270999991929090312004+51183+008483FM-12+025799999V0200901N00101220001CN0200001N9+02221+01281999999ADDAY101061GF101991001001999999001021MD1810061+9999
0050104270999991929090406004+51183+008483FM-12+025799999V0209991C00001220001CN0200001N9+02001+01331999999ADDAY101061GF102991999001999999021001KA1999N+01721
0037104270999991929090412004+51183+008483FM-12+025799999V0202001N00101220001CN0200001N9+02391+01441999999ADDAY101061GF102991011011008001001081
0050104270999991929090506004+51183+008483FM-12+025799999V0209999900101030001CN0200001N9+01781+01111999999ADDAY111061GF106991041051004501021001KA1999N+01721
0051104270999991929090512004+51183+008483FM-12+025799999V0202501N00461007801CN0200001N9+02111+01171999999ADDAY121061GF108991081051008001999999MD1310061+9999
0083104270999991929090606004+51183+008483FM-12+025799999V0209999900261220001CN0100001N9+01611+01331999999ADDAY101061GF102991001001999999001081KA1999N+99999MD1410001+9999EQDQ01 +01722ATMN  
0051104270999991929090612004+51183+008483FM-12+025799999V0203201N00461004501CN0100001N9+01391+01331999999ADDAY121061GF108991081051004501999999MD1310061+9999
0064104270999991929090706004+51183+008483FM-12+025799999V0209999900671004501CN0200001N9+00721+00671999999ADDAY111061GF106991061011004501001001KA1999N+00611MD1310141+9999
0051104270999991929090712004+51183+008483FM-12+025799999V0202901N00931220001CN0200001N9+01001+00611999999ADDAY111061GF104991041011004501001001MD1010001+9999
0056104270999991929090806004+51183+008483FM-12+025799999V0209999900671000151CN0000001N9+00891+00831999999ADDAY141061GF108991081051000251999999KA1999N+00721MW1451
0064104270999991929090906004+51183+008483FM-12+025799999V0209999900461220001CN0500001N9+01611+00941999999ADDAY161061GF100991001001999999001001KA1999N+01501MD1810141+9999
0051104270999991929090912004+51183+008483FM-12+025799999V0202701N00101220001CN0200001N9+02111+00891999999ADDAY101061GF102991011011008001001021MD1810061+9999
0064104270999991929091006004+51183+008483FM-12+025799999V0209999900671012301CN0100001N9+01221+01171999999ADDAY121061GF108991081051012501999999KA1999N+01001MD1310141+9999
0051104270999991929091012004+51183+008483FM-12+025799999V0203201N00101220001CN0200001N9+01281+00611999999ADDAY101061GF102991021011008001001001MD1310061+9999
0050104270999991929091106004+51183+008483FM-12+025799999V0209999900671220001CN0100001N9+00891+00671999999ADDAY101061GF101991999001999999021001KA1999N+00611
0037104270999991929091112004+51183+008483FM-12+025799999V0200901N00101220001CN0200001N9+01501+00611999999ADDAY101061GF101991001001999999001021
0050104270999991929091206004+51183+008483FM-12+025799999V0209999900101220001CN0200001N9+01501+00611999999ADDAY101061GF101991001001999999001021KA1999N+01221
0037104270999991929091212004+51183+008483FM-12+025799999V0201601N00461220001CN0200001N9+02001+01061999999ADDAY111061GF104991001001999999031021
0050104270999991929091306004+51183+008483FM-12+025799999V0209999900101220001CN0200001N9+01501+00611999999ADDAY101061GF101991001001999999001021KA1999N+01221
0051104270999991929091312004+51183+008483FM-12+025799999V0202001N00461075001CN0200001N9+00891+00441999999ADDAY111061GF106991041011004501001021MD1810061+9999
0050104270999991929091406004+51183+008483FM-12+025799999V0209999900101220001CN0200001N9+01501+01441999999ADDAY111061GF106991999001999999031001KA1999N+01391
0043104270999991929091412004+51183+008483FM-12+025799999V0202901N00261000151CN0010001N9+01501+01441999999ADDAY191061GF108991081061000251999999MW1961
0067104270999991929091506004+51183+008483FM-12+025799999V0209999900461000151CN0000001N9+01281+01221999999ADDAA199001091AY141061GF108991081051000251999999KA1999N+01281MW1451
0056104270999991929091606004+51183+008483FM-12+025799999V0209999900101000151CN0000001N9+01221+01171999999ADDAY141061GF108991081051000251999999KA1999N+01221MW1451
0037104270999991929091612004+51183+008483FM-12+025799999V0200901N001019999999N0100001N9+01611+01331999999ADDAY111061GF107991999051000751001001
0050104270999991929091706004+51183+008483FM-12+025799999V0209999900101220001CN0100001N9+01611+00941999999ADDAY101061GF102991001001999999001081KA1999N+01281
0051104270999991929091712004+51183+008483FM-12+025799999V0209991C00001220001CN0200001N9+01781+00891999999ADDAY101061GF102991001001999999001081MD1810141+9999
0064104270999991929091806004+51183+008483FM-12+025799999V0209999900261220001CN0200001N9+01281+00391999999ADDAY111061GF106991999001999999031001KA1999N+01221MD1810141+9999
0051104270999991929091812004+51183+008483FM-12+025799999V0201601N00461220001CN0500001N9+01721+00501999999ADDAY111061GF104991001001999999001021MD1810141+9999
0056104270999991929091906004+51183+008483FM-12+025799999V0209999900461000151CN0000001N9+01281+01221999999ADDAY141061GF108991081051000251999999KA1999N+01281MW1451
0037104270999991929091912004+51183+008483FM-12+025799999V0200901N00671002401CN0100001N9+00501+00441999999ADDAY121061GF108991081051002501999999
0075104270999991929092006004+51183+008483FM-12+025799999V0209999900931002401CN0100001N9+00891+00831999999ADDAA199000391AY121061GF108991081051002501999999KA1999N+00891MD1810201+9999
0057104270999991929092012004+51183+008483FM-12+025799999V0202301N01541002401CN0100001N9+00891+00831999999ADDAY161061GF108991081061002501999999MD1810201+9999MW1651
0081104270999991929092106004+51183+008483FM-12+025799999V0209999900671000151CN0000501N9+00391+00331999999ADDAA199009091AY141061GF108991081051000251999999KA1999N+00221MD1310201+9999MW1451
0051104270999991929092112004+51183+008483FM-12+025799999V0202301N009319999999N0200001N9+00611+00561999999ADDAY121061GF108991999051004501001001MD1810061+9999
0075104270999991929092206004+51183+008483FM-12+025799999V0209999900931004501CN0200001N9+00611+00561999999ADDAA199000391AY121061GF108991081051004501999999KA1999N+00611MD1310141+9999
0081104270999991929092306004+51183+008483FM-12+025799999V0209999900671000151CN0000001N9+00781+00721999999ADDAA199002091AY141061GF108991081051000251999999KA1999N+00611MD1310061+9999MW1451
0057104270999991929092312004+51183+008483FM-12+025799999V0202901N00461002401CN0100001N9+00891+00831999999ADDAY161061GF108991081061002501999999MD1310061+9999MW1501
0081104270999991929092406004+51183+008483FM-12+025799999V0209999900461000151CN0000501N9+00781+00721999999ADDAA199000391AY141061GF108991081051000251999999KA1999N+00781MD1310061+9999MW1451
0037104270999991929092412004+51183+008483FM-12+025799999V0203601N00461220001CN0500001N9+01001+00781999999ADDAY111061GF104991041011004501001001
0064104270999991929092506004+51183+008483FM-12+025799999V0209999900461220001CN0200001N9+00721+00111999999ADDAY101061GF100991001001999999001001KA1999N+00501MD1310061+9999
0037104270999991929092512004+51183+008483FM-12+025799999V0200901N00261220001CN0500001N9+01001+00391999999ADDAY101061GF101991001001999999001021
0050104270999991929092606004+51183+008483FM-12+025799999V0209999900461220001CN0200001N9+00781+00391999999ADDAY101061GF101991999001999999021001KA1999N+00611
0051104270999991929092612004+51183+008483FM-12+025799999V0201101N00101220001CN0200001N9+01391+00501999999ADDAY101061GF101991001001999999001021MD1810061+9999
0064104270999991929092706004+51183+008483FM-12+025799999V0209991C00001220001CN0200001N9+01391-00501999999ADDAY101061GF101991001001999999001021KA1999N+01111MD1810061+9999
0051104270999991929092712004+51183+008483FM-12+025799999V0209991C00001220001CN0500001N9+01721-00281999999ADDAY101061GF101991001001999999001021MD1810061+9999
0050104270999991929092806004+51183+008483FM-12+025799999V0209999900461220001CN0200001N9+01281+00111999999ADDAY101061GF101991001001999999001021KA1999N+01111
0051104270999991929092812004+51183+008483FM-12+025799999V0201801N00461220001CN0200001N9+01721+00501999999ADDAY111061GF106991001001999999001021MD1810061+9999
0050104270999991929092906004+51183+008483FM-12+025799999V0209999900461220001CN0200001N9+01221+00611999999ADDAY111061GF106991001001999999001021KA1999N+01001
0061104270999991929093006004+51183+008483FM-12+025799999V02099999006719999999N0200001N9+01111+01061999999ADDAA199009091AY111061GF107991999001004501001001KA1999N+01001
0037104270999991929093012004+51183+008483FM-12+025799999V0202301N00671004501CN0200001N9+01391+01171999999ADDAY111061GF106991061051004501001001
0075104270999991929100106004+51183+008483FM-12+025799999V0209999901541002401CN0100001N9+01001+00941999999ADDAA124999999AY121061GF108991081051002501999999KA1999N+01001MD1810141+9999
0043104270999991929100112004+51183+008483FM-12+025799999V0202501N00931000151CN0000001N9+01001+00941999999ADDAY161061GF108991081051000251999999MW1621
0081104270999991929100206004+51183+008483FM-12+025799999V0209999901901000151CN0000001N9+01001+00941999999ADDAA199000691AY141061GF108991081051000251999999KA1999N+00611MD1810201+9999MW1451
0057104270999991929100212004+51183+008483FM-12+025799999V0202301N01541000151CN0000001N9+01221+01171999999ADDAY161061GF108991081051000251999999MD1810061+9999MW1641
0081104270999991929100306004+51183+008483FM-12+025799999V0209999900461000151CN0000501N9+00781+00721999999ADDAA199002091AY161061GF108991081061000251999999KA1999N+00721MD1810061+9999MW1631
0057104270999991929100312004+51183+008483FM-12+025799999V0202001N01901000151CN0002001N9+01111+01061999999ADDAY161061GF108991081061000251999999MD1810141+9999MW1631
0067104270999991929100406004+51183+008483FM-12+025799999V0209999901541000151CN0000501N9+01221+01171999999ADDAA199006091AY141061GF108991081051000251999999KA1999N+00781MW1451
0037104270999991929100412004+51183+008483FM-12+025799999V0202001N00931004501CN0200001N9+01281+01221999999ADDAY111061GF107991071051004501001001
0067104270999991929100506004+51183+008483FM-12+025799999V0209999900671000151CN0000001N9+00891+00831999999ADDAA199007091AY161061GF108991081061000251999999KA1999N+00891MW1631
0057104270999991929100512004+51183+008483FM-12+025799999V0202301N00261000151CN0040001N9+00781+00721999999ADDAY161061GF108991081061000251999999MD1310061+9999MW1601
0081104270999991929100606004+51183+008483FM-12+025799999V0209999900461002401CN0200001N9+00891+00831999999ADDAA199004091AY161061GF108991081061002501999999KA1999N+00721MD1810141+9999MW1611
0081104270999991929100706004+51183+008483FM-12+025799999V0209999900931000151CN0002001N9+00501+00441999999ADDAA199003091AY141061GF108991081051000251999999KA1999N+00391MD1310141+9999MW1451
0051104270999991929100712004+51183+008483FM-12+025799999V0201801N00931004501CN0200001N9+00891+00441999999ADDAY111061GF106991061011004501001001MD1310061+9999
0070104270999991929100806004+51183+008483FM-12+025799999V0209999900931000151CN0000001N9+00611+00561999999ADDAY141061GF108991081051000251999999KA1999N+00391MD1810201+9999MW1451
0067104270999991929100906004+51183+008483FM-12+025799999V0209999901231000151CN0000001N9+00611+00561999999ADDAA199003091AY141061GF108991081051000251999999KA1999N+00611MW1451
0057104270999991929100912004+51183+008483FM-12+025799999V0202301N01541000151CN0000001N9+00001-00061999999ADDAY171061GF108991081061000251999999MD1310201+9999MW1751
0081104270999991929101006004+51183+008483FM-12+025799999V0209999901231000151CN0000001N9+00221+00171999999ADDAA199016091AY141061GF108991081051000251999999KA1999N+00221MD1310201+9999MW1451
0057104270999991929101012004+51183+008483FM-12+025799999V0202701N00671220001CN0000001N9+00391-00611999999ADDAY141061GF101991011051000251031001MD1210141+9999MW1451
0081104270999991929101106004+51183+008483FM-12+025799999V0209999901231000151CN0000001N9+00501+00441999999ADDAA199002091AY141061GF108991081051000251999999KA1999N+00501MD1810061+9999MW1451
0064104270999991929101206004+51183+008483FM-12+025799999V0209999900931002401CN0200001N9+00501+00441999999ADDAY121061GF108991081051002501999999KA1999N+00391MD1310061+9999
0051104270999991929101212004+51183+008483FM-12+025799999V0202701N00671220001CN0200001N9+00721+00331999999ADDAY111061GF104991041011004501001001MD1310141+9999
0056104270999991929101306004+51183+008483FM-12+025799999V0209999900671000151CN0000001N9+00721+00671999999ADDAY141061GF108991081051000251999999KA1999N+00501MW1451
0050104270999991929101406004+51183+008483FM-12+025799999V0209999900261004501CN0200001N9+00781+00721999999ADDAY121061GF108991081051004501999999KA1999N+00781
0037104270999991929101412004+51183+008483FM-12+025799999V0202701N00101004501CN0200001N9+01001+00611999999ADDAY111061GF107991071051004501001001
0064104270999991929101506004+51183+008483FM-12+025799999V0209991C00001004501CN0200001N9+00721+00671999999ADDAY111061GF107991071051004501001001KA1999N+00721MD1310061+9999
0051104270999991929101512004+51183+008483FM-12+025799999V0202701N00101002401CN0200001N9+00891+00831999999ADDAY121061GF108991081051002501999999MD1810061+9999
0064104270999991929101606004+51183+008483FM-12+025799999V0209999900671220001CN0100001N9+00721+00671999999ADDAY111061GF104991011051000251001021KA1999N+00721MD1810061+9999
0051104270999991929101612004+51183+008483FM-12+025799999V0201601N00461075001CN0200001N9+01001+00781999999ADDAY111061GF106991011011004501001021MD1810141+9999
0056104270999991929101706004+51183+008483FM-12+025799999V0209999900671000151CN0000001N9+00721+00671999999ADDAY141061GF108991081051000251999999KA1999N+00721MW1451
0037104270999991929101712004+51183+008483FM-12+025799999V0202301N00671004501CN0200001N9+00721+00671999999ADDAY111061GF107991071051004501001001
0064104270999991929101806004+51183+008483FM-12+025799999V0209999900461004501CN0200001N9+00611+00561999999ADDAY121061GF108991081051004501999999KA1999N+00611MD1810061+9999
0051104270999991929101812004+51183+008483FM-12+025799999V0201801N00461004501CN0200001N9+00781+00561999999ADDAY121061GF108991081051004501999999MD1810141+9999
0081104270999991929101906004+51183+008483FM-12+025799999V0209999900101000151CN0000001N9+00501+00441999999ADDAA199003091AY141061GF108991081051000251999999KA1999N+00391MD1810061+9999MW1451
0057104270999991929101912004+51183+008483FM-12+025799999V0202901N00461000151CN0000001N9+00501+00441999999ADDAY141061GF108991081051000251999999MD1810061+9999MW1451
0050104270999991929102006004+51183+008483FM-12+025799999V0209999900671002401CN0200001N9+00281+00221999999ADDAY121061GF108991081051002501999999KA1999N+00281
0081104270999991929102106004+51183+008483FM-12+025799999V0209999900931000151CN0000001N9+00281+00221999999ADDAA199003091AY141061GF108991081051000251999999KA1999N+00281MD1310141+9999MW1451
0051104270999991929102112004+51183+008483FM-12+025799999V0201101N00461220001CN0200001N9+00391+00331999999ADDAY101061GF102991021011004501001001MD1310061+9999
0050104270999991929102206004+51183+008483FM-12+025799999V0209999900101220001CN0200001N9+00281+00221999999ADDAY111061GF106991999001999999031001KA1999N+00221
0037104270999991929102212004+51183+008483FM-12+025799999V0202301N00461220001CN0200001N9+00781-00061999999ADDAY111061GF104991001001999999001091
0050104270999991929102306004+51183+008483FM-12+025799999V0209999900261220001CN0200001N9+00391+00171999999ADDAY101061GF101991999001999999021001KA1999N+00281
0037104270999991929102312004+51183+008483FM-12+025799999V0202301N00101220001CN0200001N9+00781+00171999999ADDAY101061GF102991011011004501001081
0064104270999991929102406004+51183+008483FM-12+025799999V0209999900671004501CN0200001N9+00391+00331999999ADDAY121061GF108991081051004501999999KA1999N+00281MD1810061+9999
0051104270999991929102412004+51183+008483FM-12+025799999V0201801N01231220001CN0500001N9+00721+00111999999ADDAY101061GF104991041011004501001001MD1810201+9999
0056104270999991929102506004+51183+008483FM-12+025799999V0209999900931000151CN0000001N9+00501+00441999999ADDAY141061GF108991081051000251999999KA1999N+00391MW1451
0057104270999991929102512004+51183+008483FM-12+025799999V0202001N00101000151CN0000001N9+00501+00441999999ADDAY141061GF108991081051000251999999MD1310061+9999MW1451
0056104270999991929102606004+51183+008483FM-12+025799999V0209999900461000151CN0000001N9+00221+00171999999ADDAY141061GF108991081051000251999999KA1999N+00221MW1451
0037104270999991929102612004+51183+008483FM-12+025799999V0203401N00101004501CN0500001N9+00281+00221999999ADDAY121061GF108991081051004501999999
0056104270999991929102706004+51183+008483FM-12+025799999V0209999900461000151CN0000001N9+00001-00061999999ADDAY141061GF108991081051000251999999KA1999N+00001MW1451
0081104270999991929102806004+51183+008483FM-12+025799999V0209999900671000151CN0000001N9+00001-00061999999ADDAA199006091AY141061GF108991081051000251999999KA1999N+00001MD1310201+9999MW1451
0043104270999991929102812004+51183+008483FM-12+025799999V0202301N00671000151CN0000501N9+01111+01061999999ADDAY141061GF108991081051000251999999MW1451
0081104270999991929102906004+51183+008483FM-12+025799999V0209999900671000151CN0000001N9+00221+00171999999ADDAA199004091AY161061GF108991081061000251999999KA1999N+00001MD1810201+9999MW1631
0057104270999991929102912004+51183+008483FM-12+025799999V0202001N01231001501CN0200001N9+00501+00441999999ADDAY121061GF108991081051001501999999MD1810061+9999MW1211
0081104270999991929103006004+51183+008483FM-12+025799999V0209999900931000151CN0000001N9+00281+00221999999ADDAA199000391AY141061GF108991081051000251999999KA1999N+00281MD1310141+9999MW1451
0051104270999991929103012004+51183+008483FM-12+025799999V0202301N00101002401CN0200001N9+00391+00331999999ADDAY121061GF108991081051002501999999MD1310141+9999
0081104270999991929103106004+51183+008483FM-12+025799999V0209999900931000151CN0000001N9+00221+00171999999ADDAA199001091AY141061GF108991081051000251999999KA1999N+00221MD1310201+9999MW1451
0051104270999991929103112004+51183+008483FM-12+025799999V0203201N00931002401CN0200001N9+00221+00171999999ADDAY121061GF108991081051002501999999MD1310061+9999
0043104270999991929110112004+51183+008483FM-12+025799999V0200501N00461000151CN0000001N9+00111+00061999999ADDAY141061GF108991081051000251999999MW1451
0056104270999991929110206004+51183+008483FM-12+025799999V0209999900931000151CN0000001N9+00111+00061999999ADDAY141061GF108991081051000251999999KA1999N+00111MW1451
0057104270999991929110212004+51183+008483FM-12+025799999V0200701N00461000151CN0000001N9+00111+00061999999ADDAY141061GF108991081051000251999999MD1810061+9999MW1451
0070104270999991929110306004+51183+008483FM-12+025799999V0209999900261000151CN0000001N9+00111+00061999999ADDAY141061GF108991081051000251999999KA1999N+00111MD1810061+9999MW1451
0081104270999991929110406004+51183+008483FM-12+025799999V0209999900461000151CN0000501N9+00111+00061999999ADDAA199003091AY141061GF108991081051000251999999KA1999N+00001MD1310141+9999MW1451
0037104270999991929110412004+51183+008483FM-12+025799999V0202301N00461030001CN0200001N9+00221+00171999999ADDAY111061GF106991041011004501031001
0070104270999991929110506004+51183+008483FM-12+025799999V0209999900671220001CN0000501N9+00001-00061999999ADDAY141061GF104991021051000251021001KA1999N+00001MD1810061+9999MW1441
0051104270999991929110512004+51183+008483FM-12+025799999V0202301N00931220001CN0200001N9+00391+00171999999ADDAY101061GF102991999001999999031001MD1810201+9999
0070104270999991929110606004+51183+008483FM-12+025799999V0209999900671000151CN0000001N9-00221-00281999999ADDAY141061GF108991081051000251999999KA1999N-00221MD1810141+9999MW1451
0037104270999991929110612004+51183+008483FM-12+025799999V0202001N00461220001CN0200001N9+00221+00171999999ADDAY101061GF102991011011002501021001
0070104270999991929110806004+51183+008483FM-12+025799999V0209999901231000151CN0000001N9+00001-00061999999ADDAY141061GF108991081051000251999999KA1999N+00001MD1810141+9999MW1451
0057104270999991929110812004+51183+008483FM-12+025799999V0201801N01541000151CN0000001N9+00221+00171999999ADDAY141061GF108991081051000251999999MD1810201+9999MW1451
0051104270999991929110912004+51183+008483FM-12+025799999V0202701N00101002401CN0200001N9+00281+00221999999ADDAY111061GF106991061051002501001001MD1310141+9999
0070104270999991929111006004+51183+008483FM-12+025799999V0209999901231000151CN0000001N9+00111+00061999999ADDAY141061GF108991081051000251999999KA1999N+00001MD1810061+9999MW1451
0070104270999991929111106004+51183+008483FM-12+025799999V0209999900671000151CN0000001N9-00111-00171999999ADDAY141061GF108991081051000251999999KA1999N-00111MD1310141+9999MW1451
0051104270999991929111112004+51183+008483FM-12+025799999V0202001N01231220001CN0200001N9+00221+00001999999ADDAY111061GF104991041011004501001001MD1810141+9999
0081104270999991929111206004+51183+008483FM-12+025799999V0209999901231000151CN0000001N9+00111+00061999999ADDAA199003091AY161061GF108991081061000251999999KA1999N+00001MD1810401+9999MW1631
0057104270999991929111212004+51183+008483FM-12+025799999V0202001N01541000151CN0000501N9+00391+00331999999ADDAY161061GF108991081061000251999999MD1810061+9999MW1631
0056104270999991929111306004+51183+008483FM-12+025799999V0209999900931000151CN0002001N9-00111-00171999999ADDAY141061GF108991081051000251999999KA1999N-00111MW1451
0037104270999991929111312004+51183+008483FM-12+025799999V0201601N00671002401CN0200001N9+00111+00061999999ADDAY111061GF106991061011002501001001
0067104270999991929111406004+51183+008483FM-12+025799999V0209999900461000151CN0000001N9+00001-00061999999ADDAA199002091AY171061GF108991081061000251999999KA1999N-00111MW1731
0043104270999991929111412004+51183+008483FM-12+025799999V0202001N00261000601CN0000501N9+00001-00061999999ADDAY171061GF108991081061000751999999MW1711
0067104270999991929111506004+51183+008483FM-12+025799999V0209999900671000151CN0000501N9-00221-00281999999ADDAA199011091AY171061GF108991081061000251999999KA1999N-00221MW1731
0057104270999991929111512004+51183+008483FM-12+025799999V0202001N00671000151CN0000501N9-00221-00281999999ADDAY171061GF108991081061000251999999MD1310061+9999MW1701
0081104270999991929111606004+51183+008483FM-12+025799999V0209999900671000151CN0000501N9-00391-00441999999ADDAA199002091AY141061GF108991081051000251999999KA1999N-00391MD1810141+9999MW1451
0057104270999991929111612004+51183+008483FM-12+025799999V0202001N00931000151CN0000501N9-00281-00331999999ADDAY171061GF108991081061000251999999MD1810201+9999MW1731
0100104270999991929111706004+51183+008483FM-12+025799999V0209999900461000151CN0000501N9+00001-00061999999ADDAA199008091AY171061GF108991081061000251999999KA1999N+99999MD1310061+9999MW1711EQDQ01 +01502ATMN  
0057104270999991929111812004+51183+008483FM-12+025799999V0202701N00671000151CN0000501N9+00001-00061999999ADDAY141061GF108991081051000251999999MD1310141+9999MW1451
0057104270999991929111912004+51183+008483FM-12+025799999V0201601N01231000151CN0000501N9-00111-00171999999ADDAY141061GF108991081051000251999999MD1810061+9999MW1451
0050104270999991929112006004+51183+008483FM-12+025799999V0209999900931220001CN0200001N9-00281-00611999999ADDAY101061GF104991999001999999021001KA1999N-00391
0037104270999991929112012004+51183+008483FM-12+025799999V0201601N00671220001CN0200001N9+00391-00391999999ADDAY111061GF106991001001999999001021
0050104270999991929112106004+51183+008483FM-12+025799999V0209999900461220001CN0200001N9+00611-00721999999ADDAY111061GF102991999001999999021001KA1999N+00281
0037104270999991929112112004+51183+008483FM-12+025799999V0202001N00261220001CN0200001N9+00891-00221999999ADDAY101061GF101991999001999999021001
0050104270999991929112206004+51183+008483FM-12+025799999V0209991C00001220001CN0200001N9+01001-00391999999ADDAY101061GF100991001001999999001001KA1999N+00721
0051104270999991929112212004+51183+008483FM-12+025799999V0201401N00461220001CN0200001N9+00781-00611999999ADDAY101061GF101991001001999999001021MD1810061+9999
0050104270999991929112306004+51183+008483FM-12+025799999V0209999900931220001CN0200001N9+00391+00171999999ADDAY111061GF106991999001999999031001KA1999N+00281
0037104270999991929112312004+51183+008483FM-12+025799999V0201801N00931220001CN0200001N9+00501+00281999999ADDAY101061GF102991011011002501021001
0056104270999991929112406004+51183+008483FM-12+025799999V0209999900671000151CN0020001N9+00391+00331999999ADDAY141061GF108991081051000251999999KA1999N+00391MW1471
0061104270999991929112506004+51183+008483FM-12+025799999V0209999900671030001CN0100001N9+00111+00061999999ADDAA199006091AY111061GF106991041051001501021001KA1999N+00111
0051104270999991929112512004+51183+008483FM-12+025799999V0201601N00931004501CN0200001N9+00501+00281999999ADDAY111061GF106991061051004501001001MD1810141+9999
0037104270999991929112612004+51183+008483FM-12+025799999V0201801N00671002401CN0200001N9+00501+00441999999ADDAY121061GF108991081051002501999999
0067104270999991929112706004+51183+008483FM-12+025799999V0209999900931000151CN0000501N9+00221+00171999999ADDAA199003091AY141061GF108991081051000251999999KA1999N+00221MW1451
0043104270999991929112712004+51183+008483FM-12+025799999V0202301N00671000151CN0000501N9+00221+00171999999ADDAY141061GF108991081051000251999999MW1451
0070104270999991929112806004+51183+008483FM-12+025799999V0209999900671000151CN0000001N9+00111+00061999999ADDAY141061GF108991081051000251999999KA1999N+00001MD1810061+9999MW1451
0057104270999991929112812004+51183+008483FM-12+025799999V0201601N00931000151CN0000501N9+00221+00171999999ADDAY161061GF108991081061000251999999MD1810201+9999MW1611
0061104270999991929112906004+51183+008483FM-12+025799999V0209999901231001501CN0200001N9+00501+00441999999ADDAA199002091AY121061GF108991081051001501999999KA1999N+00221
0051104270999991929112912004+51183+008483FM-12+025799999V0202001N00931002401CN0200001N9+00721+00671999999ADDAY121061GF108991081051002501999999MD1810061+9999
0081104270999991929113006004+51183+008483FM-12+025799999V0209999900671000151CN0000001N9+00611+00561999999ADDAA199000691AY141061GF108991081051000251999999KA1999N+00611MD1810061+9999MW1451
0051104270999991929113012004+51183+008483FM-12+025799999V0201801N00671002401CN0200001N9+00721+00671999999ADDAY121061GF108991081051002501999999MD1810141+9999
0051104270999991929120212004+51183+008483FM-12+025799999V0202301N00671000601CN0100001N9+00391+00331999999ADDAY121061GF108991081051000751999999MD1810061+9999
0037104270999991929120312004+51183+008483FM-12+025799999V0202001N00461002401CN0200001N9+00391+00331999999ADDAY121061GF108991081051002501999999
0067104270999991929120406004+51183+008483FM-12+025799999V0209999900461000151CN0000001N9+00721+00671999999ADDAA199014091AY141061GF108991081051000251999999KA1999N+00501MW1451
0043104270999991929120412004+51183+008483FM-12+025799999V0201801N00931000151CN0000501N9+00721+00671999999ADDAY141061GF108991081051000251999999MW1631
0051104270999991929120512004+51183+008483FM-12+025799999V0202001N00931075001CN0200001N9+00611+00561999999ADDAY111061GF106991041011002501001021MD1810401+9999
0064104270999991929120606004+51183+008483FM-12+025799999V0209999900931002401CN0200001N9+00391+00331999999ADDAY121061GF108991081051002501999999KA1999N+00391MD1310061+9999
0037104270999991929120612004+51183+008483FM-12+025799999V0201801N00671004501CN0200001N9+00281+00221999999ADDAY121061GF108991081051004501999999
0057104270999991929120712004+51183+008483FM-12+025799999V0202001N022619999999N0200001N9+00281+00221999999ADDAY171061GF107991999051002501001001MD1310141+9999MW1231
0057104270999991929120912004+51183+008483FM-12+025799999V0202301N01901001501CN0200001N9+00001-00061999999ADDAY171061GF108991081051001501999999MD1810141+9999MW1231
0057104270999991929121012004+51183+008483FM-12+025799999V0202001N00931000151CN0000501N9-00111-00171999999ADDAY171061GF108991081061000251999999MD1310141+9999MW1731
0081104270999991929121106004+51183+008483FM-12+025799999V0209999900931000151CN0000001N9-00111-00171999999ADDAA199008091AY171061GF108991081061000251999999KA1999N-00111MD1810261+9999MW1731
0057104270999991929121112004+51183+008483FM-12+025799999V0202001N01231001501CN0200001N9+00281+00221999999ADDAY161061GF108991081061001501999999MD1810201+9999MW1621
0075104270999991929121206004+51183+008483FM-12+025799999V0209999901231001501CN0200001N9+00281+00221999999ADDAA199007091AY121061GF108991081051001501999999KA1999N-00111MD1810141+9999
0057104270999991929121212004+51183+008483FM-12+025799999V0202501N01231002401CN0200001N9+00221+00001999999ADDAY171061GF108991081061002501999999MD1810061+9999MW1851
0064104270999991929121306004+51183+008483FM-12+025799999V0209999900671000601CN0100001N9+00111+00061999999ADDAY121061GF108991081051000751999999KA1999N+00111MD1310261+9999
0043104270999991929121312004+51183+008483FM-12+025799999V0202701N00671000151CN0000001N9+00611+00561999999ADDAY191061GF108991081061000251999999MW1511
0057104270999991929121412004+51183+008483FM-12+025799999V0202001N01231000151CN0000001N9+00501+00441999999ADDAY141061GF108991081051000251999999MD1810141+9999MW1451
0061104270999991929121606004+51183+008483FM-12+025799999V0209999900461002401CN0100001N9-00111-00171999999ADDAA199016091AY121061GF108991081051002501999999KA1999N-00111
0037104270999991929121612004+51183+008483FM-12+025799999V0202901N00671001501CN0200001N9-00111-00171999999ADDAY121061GF108991081051001501999999
0057104270999991929121712004+51183+008483FM-12+025799999V0202901N01231000151CN0000501N9-00111-00171999999ADDAY171061GF108991081061000251999999MD1810141+9999MW1731
0050104270999991929121806004+51183+008483FM-12+025799999V0209999900461220001CN0100001N9-00501-00561999999ADDAY101061GF104991021051000251021001KA1999N-00611
0037104270999991929121812004+51183+008483FM-12+025799999V0209991C00001220001CN0200001N9-00281-00331999999ADDAY101061GF100991001001999999001001
0051104270999991929122012004+51183+008483FM-12+025799999V0201401N00931220001CN0200001N9-00611-00941999999ADDAY101061GF101991001001999999001021MD1810201+9999
0051104270999991929122112004+51183+008483FM-12+025799999V0201601N00931220001CN0200001N9-00611-00671999999ADDAY101061GF101991011011002501001001MD1810201+9999
0081104270999991929122306004+51183+008483FM-12+025799999V0209999900671000151CN0000001N9-00281-00331999999ADDAA199000691AY141061GF108991081051000251999999KA1999N-00391MD1310061+9999MW1451
0057104270999991929122412004+51183+008483FM-12+025799999V0201801N00931000151CN0000501N9-00111-00171999999ADDAY171061GF108991081061000251999999MD1310061+9999MW1731
0081104270999991929122506004+51183+008483FM-12+025799999V0209999901231000151CN0000001N9+00001-00061999999ADDAA199002091AY141061GF108991081051000251999999KA1999N-00111MD1810141+9999MW1451
0070104270999991929122706004+51183+008483FM-12+025799999V0209999900931000151CN0000501N9-00111-00171999999ADDAY141061GF108991081051000251999999KA1999N-00111MD1810061+9999MW1451
0051104270999991929122712004+51183+008483FM-12+025799999V0202001N00931002401CN0100001N9-00111-00171999999ADDAY121061GF108991081051002501999999MD1810201+9999
0057104270999991929122812004+51183+008483FM-12+025799999V0202001N00671000151CN0000501N9-00111-00171999999ADDAY141061GF108991081051000251999999MD1810061+9999MW1451
0081104270999991929122906004+51183+008483FM-12+025799999V0209999900931000151CN0000501N9+00281+00221999999ADDAA199003091AY141061GF108991081051000251999999KA1999N-00111MD1810261+9999MW1451
0051104270999991929123012004+51183+008483FM-12+025799999V0202301N01231002401CN0200001N9+00111+00061999999ADDAY111061GF107991071051002501001001MD1810141+9999
0067104270999991929123106004+51183+008483FM-12+025799999V0209999900671000151CN0000501N9-00111-00171999999ADDAA199003091AY141061GF108991081051000251999999KA1999N-00111MW1451
0051104270999991929123112004+51183+008483FM-12+025799999V0202301N00461001501CN0100001N9-00111-00171999999ADDAY121061GF108991081051001501999999MD1310141+9999
