0050104270999991926050106004+51183+008483FM-12+025799999V02099999004619999999N0200001N9+01611+00941999999ADDAY121061GF108991999001999999021001KA1999N+01221
0051104270999991926050112004+51183+008483FM-12+025799999V0200901N00461220001CN0100001N9+01611+01171999999ADDAY121061GF108991999001999999021001MD1810061+9999
0043104270999991926050206004+51183+008483FM-12+025799999V02099999015419999999N0000001N9+99999+99999999999ADDAY141061GF108991999051999999999999MW1451
0069104270999991926050306004+51183+008483FM-12+025799999V0209999901541220001CN0200001N9+00001-03221999999ADDAY111061GF104991021011002501001081KA1999N+99999EQDQ01 +00502ATMN  
0050104270999991926050406004+51183+008483FM-12+025799999V0209999900671220001CN0200001N9+99999+99999999999ADDAY111061GF104991021011002501001021KA1999N+00111
0037104270999991926050412004+51183+008483FM-12+025799999V0200701N00461004501CN0200001N9+00611+00221999999ADDAY111061GF108991081051004501999999
0037104270999991926050512004+51183+008483FM-12+025799999V0202901N00261004501CN0500001N9+00721+00111999999ADDAY111061GF108991081051004501999999
0043104270999991926050612004+51183+008483FM-12+025799999V0202501N00461000151CN0020001N9+00391+00331999999ADDAY101061GF108991081051000251999999MW1451
0037104270999991926050712004+51183+008483FM-12+025799999V0202501N00671075001CN0200001N9+00281+00061999999ADDAY171061GF108991041091001501001081
0057104270999991926050812004+51183+008483FM-12+025799999V0201801N00261001501CN0200001N9+00391+00171999999ADDAY171061GF107991071091001501001001MD1810141+9999MW1161
0050104270999991926051006004+51183+008483FM-12+025799999V0209999900461220001CN0500001N9+00891+00831999999ADDAY111061GF102991999001999999001021KA1999N-00221
0037104270999991926051012004+51183+008483FM-12+025799999V0202501N00671030001CN0200001N9+00501+00111999999ADDAY111061GF108991021091004501031001
0043104270999991926051106004+51183+008483FM-12+025799999V02099999006719999999N0200001N9+99999+99999999999ADDAY181061GF108991999061002501999999MW1601
0051104270999991926051112004+51183+008483FM-12+025799999V0202301N01231002401CN0200001N9+00611+00561999999ADDAY121061GF108991081051002501999999MD1510061+9999
0050104270999991926051206004+51183+008483FM-12+025799999V0209999901541220001CN0100001N9+00781+00561999999ADDAY111061GF104991999011012501021001KA1999N+00501
0037104270999991926051212004+51183+008483FM-12+025799999V0202301N01541004501CN0500001N9+00891+00441999999ADDAY111061GF107991071051004501001001
0061104270999991926051306004+51183+008483FM-12+025799999V0209999900931075001CN0200001N9+00891+00831999999ADDAA199000591AY111061GF108991021011002501001081KA1999N+00281
0057104270999991926051312004+51183+008483FM-12+025799999V0202301N00101002401CN0200001N9+99999+99999999999ADDAY181061GF108991061051002501001081MD1410001+9999MW1601
0051104270999991926051412004+51183+008483FM-12+025799999V0202301N00261075001CN0200001N9+00891+99999999999ADDAY181061GF108991041051004501001021MD1810061+9999
0057104270999991926051512004+51183+008483FM-12+025799999V0200201N00261000151CN0000001N9+00501+00441999999ADDAY161061GF108991081051000251999999MD1810061+9999MW1611
0057104270999991926051612004+51183+008483FM-12+025799999V0203601N01541000151CN0000001N9+00281+00221999999ADDAY181061GF108991081051000251999999MD1810141+9999MW1451
0057104270999991926051712004+51183+008483FM-12+025799999V0203601N00671000151CN0000001N9+00221+00171999999ADDAY181061GF108991081051000251999999MD1310201+9999MW1451
0051104270999991926051812004+51183+008483FM-12+025799999V0203201N00261004501CN0200001N9+00281+00061999999ADDAY111061GF107991071051004501001001MD1310061+9999
0057104270999991926051912004+51183+008483FM-12+025799999V0202301N00261004501CN0200001N9+00501+00441999999ADDAY181061GF107991061051004501021001MD1010001+9999MW1161
0050104270999991926052106004+51183+008483FM-12+025799999V0209999900261220001CN0100001N9+01721+01281999999ADDAY111061GF104991999001999999031001KA1999N+00721
0037104270999991926052112004+51183+008483FM-12+025799999V0200901N00261004501CN0200001N9+01221+00611999999ADDAY111061GF107991061051004501021001
0050104270999991926052206004+51183+008483FM-12+025799999V0209999900261220001CN0100001N9+01721+01281999999ADDAY111061GF104991999011012501031001KA1999N+00781
0056104270999991926052306004+51183+008483FM-12+025799999V02099999009319999999N0005001N9+00891+00831999999ADDAY141061GF108991999051000251999999KA1999N+00721MW1431
0057104270999991926052312004+51183+008483FM-12+025799999V0202901N00671000151CN0000001N9+00891+00831999999ADDAY181061GF108991081051000251999999MD1310061+9999MW1211
0043104270999991926052406004+51183+008483FM-12+025799999V02099999006719999999N0005001N9+99999+99999999999ADDAY141061GF108991999051999999999999MW1801
0067104270999991926052506004+51183+008483FM-12+025799999V02099999004619999999N0000001N9+99999+99999999999ADDAA199000391AY141061GF108991999051999999999999KA1999N+00111MW1451
0057104270999991926052512004+51183+008483FM-12+025799999V0202701N00101000151CN0010001N9+00611+00561999999ADDAY121061GF108991081051000251999999MD1310061+9999MW1101
0056104270999991926052606004+51183+008483FM-12+025799999V02099999004619999999N0000001N9+99999+99999999999ADDAY141061GF107991999051999999001001KA1999N+00391MW1441
0050104270999991926052706004+51183+008483FM-12+025799999V0209999900101220001CN0100001N9+01721+01281999999ADDAY111061GF101991999001999999001021KA1999N+00781
0037104270999991926052712004+51183+008483FM-12+025799999V0203601N00101075001CN0200001N9+01501+00831999999ADDAY111061GF106991041011004501001021
0067104270999991926052806004+51183+008483FM-12+025799999V02099999004619999999N0002001N9+99999+99999999999ADDAA199090091AY141061GF108991999051999999999999KA1999N+00001MW1451
0057104270999991926052812004+51183+008483FM-12+025799999V0202301N00931002401CN0100001N9+01111+00891999999ADDAY181061GF108991081061002501999999MD1810061+9999MW1501
0075104270999991926052906004+51183+008483FM-12+025799999V02099999015419999999N0000001N9+00891+00831999999ADDAY181061GF108991999051999999999999KA1999N+99999MW1451EQDQ01 -04002ATMN  
0043104270999991926052912004+51183+008483FM-12+025799999V0202301N00671000151CN0005001N9+01001+00941999999ADDAY181061GF108991081051000251999999MW1801
0056104270999991926053006004+51183+008483FM-12+025799999V02099999006719999999N0010001N9+00891+00831999999ADDAY141061GF108991999051999999999999KA1999N+00721MW1101
0057104270999991926053012004+51183+008483FM-12+025799999V0202001N00931000151CN0000001N9+01111+01061999999ADDAY181061GF108991081051000251999999MD1610061+9999MW1451
0061104270999991926053106004+51183+008483FM-12+025799999V0209999900461024001CN0100001N9+00891+00831999999ADDAA199016091AY111061GF108991999061999999999999KA1999N+00721
0037104270999991926053112004+51183+008483FM-12+025799999V0209991C000019999999N0002001N9+01111+00671999999ADDAY111061GF107991999999004501999999
0043104270999991926060106004+51183+008483FM-12+025799999V02099999004619999999N0000001N9+99999+99999999999ADDAY141061GF108991999051999999999999MW1451
0037104270999991926060206004+51183+008483FM-12+025799999V0209999900461220001CN0100001N9+00891+00831999999ADDAY111061GF104991999001999999001021
0051104270999991926060212004+51183+008483FM-12+025799999V0201401N00671007801CN0500001N9+01281+00611999999ADDAY111061GF107991061011008001001021MD1810141+9999
0050104270999991926060306004+51183+008483FM-12+025799999V0209999900461015001CN0100001N9+99999+99999999999ADDAY121061GF108991071061017501001081KA1999N+00721
0051104270999991926060312004+51183+008483FM-12+025799999V0203601N00461001501CN0040001N9+01111+01061999999ADDAY121061GF108991081061001501999999MD1310061+9999
0067104270999991926060406004+51183+008483FM-12+025799999V02099999004619999999N0000001N9+99999+99999999999ADDAA199000391AY141061GF108991999051000251999999KA1999N+00721MW1451
0037104270999991926060412004+51183+008483FM-12+025799999V0203201N00461002401CN0100001N9+00781+00721999999ADDAY121061GF108991081061002501999999
0050104270999991926060506004+51183+008483FM-12+025799999V0209991C000019999999N0100001N9+00891+00831999999ADDAY121061GF108991999061000251999999KA1999N+00781
0037104270999991926060512004+51183+008483FM-12+025799999V0203201N00461004501CN0100001N9+01221+01001999999ADDAY111061GF107991061051004501031001
0056104270999991926060606004+51183+008483FM-12+025799999V02099999004619999999N0000001N9+99999+99999999999ADDAY141061GF108991999051000251999999KA1999N+04001MW1451
0043104270999991926060612004+51183+008483FM-12+025799999V0202701N00671000151CN0000001N9+00781+00721999999ADDAY181061GF108991081051000251999999MW1211
0067104270999991926060706004+51183+008483FM-12+025799999V02099999006719999999N0002001N9+00891+00831999999ADDAA199000591AY141061GF108991999051999999999999KA1999N+00721MW1431
0043104270999991926060712004+51183+008483FM-12+025799999V0202701N00461220001CN0040001N9+01001+00941999999ADDAY121061GF101991999061000251999999MW1501
0067104270999991926060806004+51183+008483FM-12+025799999V02099999006719999999N0000001N9+00891+00831999999ADDAA199005091AY101061GF108991999051000251999999KA1999N+00781MW1451
0051104270999991926060812004+51183+008483FM-12+025799999V0202701N00671001501CN0040001N9+01111+01061999999ADDAY121061GF107991061091001501031001MD1310061+9999
0056104270999991926060906004+51183+008483FM-12+025799999V02099999004619999999N0000001N9+00891+00831999999ADDAY141061GF108991999051999999999999KA1999N+00781MW1451
0075104270999991926061006004+51183+008483FM-12+025799999V0209999901901024001CN0040001N9+00891+00831999999ADDAY161061GF108991999061999999999999KA1999N+99999MW1631EQDQ01 -04002ATMN  
0051104270999991926061012004+51183+008483FM-12+025799999V0202301N00671004501CN0500001N9+01111+00671999999ADDAY111061GF108991999091004501001001MD1010061+9999
0057104270999991926061112004+51183+008483FM-12+025799999V0202501N00461000601CN0040001N9+00611+00561999999ADDAY181061GF108991081061000751999999MD1610061+9999MW1291
0061104270999991926061206004+51183+008483FM-12+025799999V0209999900461220001CN0200001N9+00891+00831999999ADDAA199001091AY111061GF104991999091017501001021KA1999N+00611
0051104270999991926061212004+51183+008483FM-12+025799999V0201601N00461004501CN0200001N9+01221+01001999999ADDAY111061GF108991071051004501001081MD1810061+9999
0043104270999991926061306004+51183+008483FM-12+025799999V02099999002619999999N0000001N9+01891+01831999999ADDAY141061GF108991999051999999999999MW1431
0061104270999991926061406004+51183+008483FM-12+025799999V02099999006719999999N0040001N9+00891+00831999999ADDAA199001091AY111061GF107991999061999999001021KA1999N+00391
0037104270999991926061412004+51183+008483FM-12+025799999V0202701N00461004501CN0500001N9+01111+00671999999ADDAY111061GF107991999091004501001001
0050104270999991926061506004+51183+008483FM-12+025799999V0209999900461075001CN0040001N9+99999+99999999999ADDAY111061GF107991041011004501001081KA1999N+00721
0037104270999991926061512004+51183+008483FM-12+025799999V0202701N01231004501CN0100001N9+01111+00671999999ADDAY121061GF108991081051004501999999
0067104270999991926061606004+51183+008483FM-12+025799999V0209999900931024001CN0010001N9+99999+99999999999ADDAA199005091AY141061GF108991999051999999999999KA1999N+00611MW1101
0051104270999991926061612004+51183+008483FM-12+025799999V0202701N00461007801CN0200001N9+01221+00781999999ADDAY111061GF107991061091008001001021MD1310061+9999
0051104270999991926061712004+51183+008483FM-12+025799999V0202301N00461004501CN0200001N9+01391+00941999999ADDAY111061GF107991061091004501031001MD1810061+9999
0051104270999991926061912004+51183+008483FM-12+025799999V0202901N00671004501CN0100001N9+01001+00781999999ADDAY111061GF106991061091004501031001MD1110141+9999
0056104270999991926062006004+51183+008483FM-12+025799999V02099999004619999999N0002001N9+00891+00831999999ADDAY141061GF108991999051000251999999KA1999N+00721MW1431
0069104270999991926062106004+51183+008483FM-12+025799999V0209999900461015001CN0100001N9+01001+99999999999ADDAY111061GF106991999051017501031001KA1999N+01001EQDQ01 -02563ATOD  
0070104270999991926062112004+51183+008483FM-12+025799999V0202301N00461220001CN0200001N9+01781+01112999999ADDAY111061GF104991041011008001001021MD1810061+9999EQDQ01+028433ATOD  
0056104270999991926062206004+51183+008483FM-12+025799999V02099999004619999999N0000001N9+99999+99999999999ADDAY161061GF108991999051000251999999KA1999N+01221MW1451
0051104270999991926062212004+51183+008483FM-12+025799999V0202701N00931004501CN0100001N9+01391+01171999999ADDAY111061GF106991061011004501001021MD1810061+9999
0050104270999991926062306004+51183+008483FM-12+025799999V0209999900461030001CN0100001N9+99999+99999999999ADDAY111061GF106991041011004501031001KA1999N+00501
0037104270999991926062312004+51183+008483FM-12+025799999V0203401N00461004501CN0500001N9+01221+00611999999ADDAY111061GF107991061051004501031001
0050104270999991926062406004+51183+008483FM-12+025799999V0209999900461220001CN0040001N9+00721+00331999999ADDAY141061GF101991999061999999999999KA1999N+00501
0037104270999991926062412004+51183+008483FM-12+025799999V0203401N00461004501CN0200001N9+00891+00441999999ADDAY111061GF108991081091004501999999
0050104270999991926062506004+51183+008483FM-12+025799999V0209999900671007801CN0500001N9+00721+00331999999ADDAY111061GF106991061011008001001001KA1999N+00281
0051104270999991926062512004+51183+008483FM-12+025799999V0202901N00461004501CN0200001N9+00781+00391999999ADDAY111061GF106991061051004501001001MD1310061+9999
0051104270999991926062612004+51183+008483FM-12+025799999V0202701N00461030001CN0100001N9+00781+00721999999ADDAY161061GF107991041091008001031001MD1310141+9999
0037104270999991926062812004+51183+008483FM-12+025799999V0202901N00461004501CN0500001N9+01111+00671999999ADDAY111061GF107991071011004501001001
0050104270999991926062906004+51183+008483FM-12+025799999V0209999900261220001CN0100001N9+99999+99999999999ADDAY111061GF104991999011999999001001KA1999N+00611
0050104270999991926063006004+51183+008483FM-12+025799999V0209999900461220001CN0100001N9+01721+01281999999ADDAY101061GF100991001001999999001001KA1999N+00781
0051104270999991926063012004+51183+008483FM-12+025799999V0200901N00461220001CN0200001N9+01391+00501999999ADDAY111061GF104991041051008001001001MD1810061+9999
0050104270999991926070106004+51183+008483FM-12+025799999V0209999900671015001CN0100001N9+01891+01831999999ADDAY111061GF108991071011017501001081KA1999N+00781
0051104270999991926070112004+51183+008483FM-12+025799999V0200901N00461004501CN0200001N9+01221+00781999999ADDAY121061GF108991071051004501021001MD1810061+9999
0080104270999991926070206004+51183+008483FM-12+025799999V02099999006719999999N0500001N9+01721+01281999999ADDAA199005091AY111061GF107991999001999999031081KA1999N+99999EQDQ01 +02002ATMN  
0037104270999991926070212004+51183+008483FM-12+025799999V0200901N006719999999N0200001N9+01611+01171999999ADDAY111061GF199999041999999999999999
0050104270999991926070306004+51183+008483FM-12+025799999V0209999900461220001CN0500001N9+99999+99999999999ADDAY111061GF104991999011012501001091KA1999N+01221
0037104270999991926070312004+51183+008483FM-12+025799999V0200901N00261004501CN0500001N9+01781+01111999999ADDAY111061GF107991061011004501031001
0070104270999991926070406004+51183+008483FM-12+025799999V02099999001019999999N0000501N9+99999+99999999999ADDAY141061GF108991999051999999999999KA1999N+01391MD1010141+9999MW1431
0067104270999991926070506004+51183+008483FM-12+025799999V02099999001019999999N0000001N9+99999+99999999999ADDAA199000591AY141061GF108991999051000251999999KA1999N+01391MW1631
0051104270999991926070512004+51183+008483FM-12+025799999V0202301N00101001501CN0100001N9+01501+01441999999ADDAY141061GF108991081061001501999999MD1810061+9999
0050104270999991926070606004+51183+008483FM-12+025799999V0209999900461015001CN0040001N9+00891+00831999999ADDAY141061GF107991071061017501001021KA1999N+00781
0037104270999991926070612004+51183+008483FM-12+025799999V0202501N00671030001CN0100001N9+01721+01281999999ADDAY111061GF107991041011004501021001
0050104270999991926070706004+51183+008483FM-12+025799999V02099999002619999999N0100001N9+99999+99999999999ADDAY121061GF108991999051999999999999KA1999N+01221
0043104270999991926070712004+51183+008483FM-12+025799999V0203601N00261030001CN0100001N9+01501+01281999999ADDAY161061GF108991021061001501021001MW1601
0067104270999991926070806004+51183+008483FM-12+025799999V02099999004619999999N0000001N9+99999+99999999999ADDAA199002091AY191061GF108991999051999999999999KA1999N+01281MW1291
0017104270999991926070812004+51183+008483FM-12+025799999V0201601N001019999999N0000501N9+01611+01561999999ADDAY141061MW1471
0067104270999991926070906004+51183+008483FM-12+025799999V02099999004619999999N0000001N9+99999+99999999999ADDAA199001091AY141061GF108991999051999999999999KA1999N+01281MW1451
0037104270999991926070912004+51183+008483FM-12+025799999V0203601N00461004501CN0100001N9+01721+01501999999ADDAY111061GF107991061091004501001021
0067104270999991926071006004+51183+008483FM-12+025799999V02099999012319999999N0000001N9+99999+99999999999ADDAA199002091AY141061GF108991999051000251999999KA1999N-04001MW1451
0067104270999991926071106004+51183+008483FM-12+025799999V02099999012319999999N0000501N9+00891+00831999999ADDAA199000391AY141061GF108991999051999999999999KA1999N+00781MW1431
0050104270999991926071206004+51183+008483FM-12+025799999V0209999900461015001CN0200001N9+99999+99999999999ADDAY111061GF107991071011017501001001KA1999N+01001
0037104270999991926071212004+51183+008483FM-12+025799999V0201101N00461004501CN0500001N9+01721+01061999999ADDAY111061GF106991061011004501001001
0037104270999991926071306004+51183+008483FM-12+025799999V0209999900671220001CN0100001N9+99999+99999999999ADDAY101061GF101991999011012501001001
0050104270999991926071406004+51183+008483FM-12+025799999V0209999900461220001CN0100001N9+01891+01831999999ADDAY101061GF100991001001999999001001KA1999N+01501
0050104270999991926071506004+51183+008483FM-12+025799999V0209999900461220001CN0100001N9+02721+02221999999ADDAY101061GF102991999001999999031001KA1999N+01721
0061104270999991926071606004+51183+008483FM-12+025799999V0209999900671220001CN0200001N9+01891+01831999999ADDAA199001091AY141061GF102991021011002501001021KA1999N+00891
0050104270999991926071706004+51183+008483FM-12+025799999V0209999900101220001CN0100001N9+99999+99999999999ADDAY101061GF104991021011002501001021KA1999N+00891
0050104270999991926071806004+51183+008483FM-12+025799999V0209999900261220001CN0100001N9+99999+99999999999ADDAY101061GF100991001001999999001001KA1999N+01721
0037104270999991926071906004+51183+008483FM-12+025799999V0209999900671220001CN0100001N9+99999+99999999999ADDAY111061GF104991999001999999031001
0057104270999991926072012004+51183+008483FM-12+025799999V0202301N01541000151CN0010001N9+01281+01221999999ADDAY181061GF108991081051000251999999MD1990061+9999MW1811
0100104270999991926072106004+51183+008483FM-12+025799999V02099999015419999999N0000501N9+99999+99999999999ADDAA199024091AY141061GF108991999051999999999999KA1999N+01001MD1310602+9999MW1451EQDQ01+000602APC3  
0051104270999991926072112004+51183+008483FM-12+025799999V0202501N01231002401CN0100001N9+01281+01061999999ADDAY111061GF107991061051002501031001MD1010001+9999
0067104270999991926072206004+51183+008483FM-12+025799999V02099999006719999999N0000501N9+99999+99999999999ADDAA199020091AY141061GF108991999051999999999999KA1999N+00891MW1431
0051104270999991926072212004+51183+008483FM-12+025799999V0203201N01231004501CN0500001N9+01111+00891999999ADDAY111061GF106991999051004501001001MD1310201+9999
0067104270999991926072306004+51183+008483FM-12+025799999V02099999006719999999N0000001N9+00891+00831999999ADDAA199000691AY141061GF108991999051000251999999KA1999N+00111MW1901
0051104270999991926072312004+51183+008483FM-12+025799999V0202301N00671002401CN0100001N9+01501+01281999999ADDAY111061GF107991061011002501001021MD1310061+9999
0051104270999991926072412004+51183+008483FM-12+025799999V0202001N00671075001CN0200001N9+02001+01331999999ADDAY111061GF107991011011002501001021MD1810201+9999
0067104270999991926072606004+51183+008483FM-12+025799999V02099999004619999999N0005001N9+00891+00831999999ADDAA199012091AY141061GF108991999051999999999999KA1999N+00781MW1451
0051104270999991926072612004+51183+008483FM-12+025799999V0202501N00461004501CN0200001N9+01111+00671999999ADDAY111061GF107991061051004501001091MD1310061+9999
0037104270999991926072806004+51183+008483FM-12+025799999V0209999901231024001CN0100001N9+99999+99999999999ADDAY121061GF108991999051999999999999
0056104270999991926072906004+51183+008483FM-12+025799999V02099999009319999999N0040001N9+99999+99999999999ADDAY181061GF108991999051999999999999KA1999N+04001MW1211
0043104270999991926072912004+51183+008483FM-12+025799999V0202901N00931000151CN0010001N9+00781+00721999999ADDAY181061GF108991081051000251999999MW1101
0067104270999991926073006004+51183+008483FM-12+025799999V02099999006719999999N0000501N9+00891+00831999999ADDAA199011091AY161061GF108991999051999999999999KA1999N+00721MW1531
0057104270999991926073012004+51183+008483FM-12+025799999V0202901N00931000151CN0000001N9+00891+00831999999ADDAY141061GF108991081051000251999999MD1210061+9999MW1451
0067104270999991926073106004+51183+008483FM-12+025799999V02099999006719999999N0000001N9+00891+00831999999ADDAA199002091AY141061GF108991999051999999999999KA1999N+00781MW1451
0057104270999991926073112004+51183+008483FM-12+025799999V0202901N00671000151CN0000001N9+01001+00941999999ADDAY141061GF108991081051000251999999MD1310061+9999MW1451
0057104270999991926080106004+51183+008483FM-12+025799999V02099999006719999999N0000001N9+00891+00831999999ADDAY141061GF108991999051999999999999MD1010001+9999MW1451
0043104270999991926080206004+51183+008483FM-12+025799999V02099999004619999999N0000001N9+00891+00831999999ADDAY141061GF108991999051999999999999MW1451
0037104270999991926080306004+51183+008483FM-12+025799999V0209999900261220001CN0100001N9+99999+99999999999ADDAY111061GF104991021011002501001021
0037104270999991926080406004+51183+008483FM-12+025799999V0209999900261220001CN0100001N9+99999+99999999999ADDAY101061GF104991999001999999031081
0043104270999991926080506004+51183+008483FM-12+025799999V02099999002619999999N0000001N9+00891+00831999999ADDAY141061GF108991999051999999999999MW1451
0043104270999991926080806004+51183+008483FM-12+025799999V02099999002619999999N0000001N9+99999+99999999999ADDAY141061GF108991999051999999999999MW1451
0043104270999991926081306004+51183+008483FM-12+025799999V02099999004619999999N0002001N9+00891+00831999999ADDAY141061GF108991999051000251999999MW1441
0037104270999991926081406004+51183+008483FM-12+025799999V0209999900671030001CN0100001N9+99999+99999999999ADDAY111061GF106991041051004501031001
0043104270999991926081506004+51183+008483FM-12+025799999V02099999006719999999N0000001N9+99999+99999999999ADDAY141061GF108991999051999999999999MW1451
0043104270999991926081606004+51183+008483FM-12+025799999V02099999009319999999N0000001N9+99999+99999999999ADDAY141061GF108991999051000251999999MW1451
0037104270999991926081706004+51183+008483FM-12+025799999V0209999900101220001CN0200001N9+99999+99999999999ADDAY101061GF104991021011002501001021
0043104270999991926081806004+51183+008483FM-12+025799999V02099999004619999999N0000001N9+99999+99999999999ADDAY141061GF108991999051999999999999MW1431
0037104270999991926082006004+51183+008483FM-12+025799999V0209999900461220001CN0040001N9+99999+99999999999ADDAY111061GF104991999011012501021001
0043104270999991926082106004+51183+008483FM-12+025799999V02099999012319999999N0000001N9+99999+99999999999ADDAY161061GF108991999051999999999999MW1631
0037104270999991926082406004+51183+008483FM-12+025799999V0209999901541220001CN0200001N9+01891+01831999999ADDAY101061GF104991999051017501001001
0043104270999991926082506004+51183+008483FM-12+025799999V02099999004619999999N0000001N9+99999+99999999999ADDAY141061GF108991999051000251999999MW1451
0043104270999991926082606004+51183+008483FM-12+025799999V02099999009319999999N0000001N9+99999+99999999999ADDAY141061GF108991999051999999999999MW1451
0037104270999991926082706004+51183+008483FM-12+025799999V0209999901541220001CN0200001N9+99999+99999999999ADDAY101061GF104991041011004501021001
0037104270999991926082806004+51183+008483FM-12+025799999V02099999004619999999N0040001N9+00891+00831999999ADDAY111061GF107991999051999999001001
0043104270999991926082906004+51183+008483FM-12+025799999V02099999004619999999N0000001N9+99999+99999999999ADDAY141061GF108991999051000251999999MW1431
0037104270999991926083006004+51183+008483FM-12+025799999V0209999901231220001CN0100001N9+99999+99999999999ADDAY101061GF101991999001999999001021
0037104270999991926083106004+51183+008483FM-12+025799999V0209999900671220001CN0200001N9+99999+99999999999ADDAY101061GF104991999001999999001021
0050104270999991926090106004+51183+008483FM-12+025799999V0209999900261220001CN0500001N9+02111+01171999999ADDAY101061GF102991001001999999001021KA1999N+01611
0051104270999991926090112004+51183+008483FM-12+025799999V0200501N00261220001CN0500001N9+02221+01001999999ADDAY101061GF102991001001999999001021MD1810061+9999
0050104270999991926090206004+51183+008483FM-12+025799999V0209999900261220001CN0200001N9+01891+01221999999ADDAY101061GF102991001001999999001021KA1999N+01501
0037104270999991926090212004+51183+008483FM-12+025799999V0202301N00461075001CN0200001N9+02281+01331999999ADDAY111061GF106991041061008001001021
0057104270999991926090306004+51183+008483FM-12+025799999V0209999900461000151CN0000001N9+01501+01441999999ADDAY141061GF108991081051000251999999MD1310061+9999MW1451
0051104270999991926090406004+51183+008483FM-12+025799999V0209991C00001220001CN0100001N9+01721+01281999999ADDAY111061GF104991041011008001001021MD1310061+9999
0081104270999991926090506004+51183+008483FM-12+025799999V0209999900461000151CN0010001N9+01501+01441999999ADDAA199001091AY141061GF107991071051000251001001KA1999N+01281MD1310061+9999MW1101
0057104270999991926090606004+51183+008483FM-12+025799999V0209999900931000151CN0000001N9+01221+01171999999ADDAY141061GF108991081051000251999999MD1810061+9999MW1451
0043104270999991926090612004+51183+008483FM-12+025799999V0202301N00931000151CN0000001N9+01391+01331999999ADDAY141061GF108991081051000251999999MW1451
0081104270999991926090706004+51183+008483FM-12+025799999V0209999901541000151CN0000001N9+01281+01221999999ADDAA199007091AY181061GF108991081051000251999999KA1999N+01281MD1610061+9999MW1211
0043104270999991926090712004+51183+008483FM-12+025799999V0202301N00931000151CN0000001N9+01391+01331999999ADDAY181061GF108991081051000251999999MW1631
0081104270999991926090806004+51183+008483FM-12+025799999V0209999901541000151CN0010001N9+01001+00941999999ADDAA199021091AY181061GF108991081051000251999999KA1999N+01001MD1310261+9999MW1101
0051104270999991926090812004+51183+008483FM-12+025799999V0202901N00261004501CN0200001N9+01221+01001999999ADDAY111061GF107991061011004501001021MD1310061+9999
0070104270999991926090906004+51183+008483FM-12+025799999V0209999900461000151CN0002001N9+01001+00941999999ADDAY141061GF108991081051000251999999KA1999N+00611MD1610061+9999MW1471
0050104270999991926091006004+51183+008483FM-12+025799999V0209999900461220001CN0500001N9+01611+00721999999ADDAY101061GF102991001001999999001021KA1999N+01221
0050104270999991926091106004+51183+008483FM-12+025799999V0209999900461220001CN0500001N9+01781+00891999999ADDAY101061GF104991001001999999031021KA1999N+01501
0051104270999991926091112004+51183+008483FM-12+025799999V0202001N01231220001CN0200001N9+02221+01001999999ADDAY101061GF106991001001999999021021MD1810061+9999
0050104270999991926091206004+51183+008483FM-12+025799999V0209999900671000601CN0040001N9+01501+01281999999ADDAY111061GF108991081051000751999999KA1999N+01391
0057104270999991926091306004+51183+008483FM-12+025799999V0209999900671000151CN0000001N9+00781+00721999999ADDAY141061GF108991081051000251999999MD1310141+9999MW1451
0075104270999991926091406004+51183+008483FM-12+025799999V0209999901231000151CN0000001N9+00391+00331999999ADDAY141061GF108991081051000251999999KA1999N+99999MW1451EQDQ01 +00612ATMN  
0057104270999991926091412004+51183+008483FM-12+025799999V0202501N01541000151CN0000001N9+00891+00831999999ADDAY161061GF108991081051000251999999MD1010001+9999MW1211
0057104270999991926091506004+51183+008483FM-12+025799999V0209999900931000151CN0000001N9+01001+00941999999ADDAY141061GF108991081051000251999999MD1810141+9999MW1451
0075104270999991926091606004+51183+008483FM-12+025799999V0209999900461002401CN0100001N9+00781+00721999999ADDAA199006091AY121061GF108991081051002501999999KA1999N+00781MD1310141+9999
0037104270999991926091612004+51183+008483FM-12+025799999V0202701N00931220001CN0100001N9+01111+00501999999ADDAY111061GF104991041011004501001001
0051104270999991926091706004+51183+008483FM-12+025799999V0209999900461220001CN0100001N9+01001+00941999999ADDAY101061GF102991001001999999021021MD1010061+9999
0037104270999991926091712004+51183+008483FM-12+025799999V0202301N00461220001CN0200001N9+01611+00941999999ADDAY101061GF102991999001999999021001
0064104270999991926091806004+51183+008483FM-12+025799999V0209999900461220001CN0200001N9+01611+00941999999ADDAY101061GF100991001001999999001001KA1999N+01111MD1010001+9999
0050104270999991926091906004+51183+008483FM-12+025799999V0209999900261220001CN0200001N9+01721+01061999999ADDAY101061GF100991001001999999001001KA1999N+01391
0069104270999991926092006004+51183+008483FM-12+025799999V0209999900461220001CN0000001N9+00781+00171999999ADDAY101061GF100991001001999999001001KA1999N+99999EQDQ01 +01502ATMN  
0064104270999991926092106004+51183+008483FM-12+025799999V0209999900461220001CN0500001N9+01391+00941999999ADDAY101061GF102991999001999999031001KA1999N+01281MD1410001+9999
0056104270999991926092206004+51183+008483FM-12+025799999V0209999900461000151CN0000001N9+00891+00831999999ADDAY141061GF108991081051000251999999KA1999N+00891MW1451
0050104270999991926092306004+51183+008483FM-12+025799999V0209999900671002401CN0100001N9+00611+00561999999ADDAY111061GF108991061051002501001021KA1999N+00391
0051104270999991926092312004+51183+008483FM-12+025799999V0202901N00671002401CN0200001N9+00781+00391999999ADDAY121061GF108991081051002501999999MD1810061+9999
0050104270999991926092406004+51183+008483FM-12+025799999V0209999900461030001CN0200001N9+00611+00391999999ADDAY121061GF108991021051008001021001KA1999N+00501
0051104270999991926092412004+51183+008483FM-12+025799999V0201801N00461030001CN0200001N9+00891+00441999999ADDAY111061GF107991021011004501021001MD1810141+9999
0081104270999991926092506004+51183+008483FM-12+025799999V0209999900461000151CN0000001N9+00721+00671999999ADDAA124999999AY141061GF108991081051000251999999KA1999N+00611MD1810201+9999MW1611
0043104270999991926092512004+51183+008483FM-12+025799999V0202701N00461000151CN0010001N9+00781+00721999999ADDAY181061GF108991081051000251999999MW1801
0070104270999991926092606004+51183+008483FM-12+025799999V0209999900931000151CN0000001N9+00281+00221999999ADDAY141061GF108991081051000251999999KA1999N+00221MD1310141+9999MW1451
0067104270999991926092706004+51183+008483FM-12+025799999V0209999900461000151CN0000001N9+00391+00331999999ADDAA199000691AY141061GF108991081051000251999999KA1999N+00281MW1451
0067104270999991926092806004+51183+008483FM-12+025799999V0209999901901000151CN0000001N9+00391+00331999999ADDAA199006091AY141061GF108991081051000251999999KA1999N+00281MW1451
0081104270999991926092906004+51183+008483FM-12+025799999V0209999900461000151CN0000001N9+00391+00331999999ADDAA199000691AY141061GF108991081051000251999999KA1999N+00281MD1310061+9999MW1451
0051104270999991926092912004+51183+008483FM-12+025799999V0202501N00461002401CN0200001N9+00611+00561999999ADDAY111061GF107991071051002501001001MD1310061+9999
0081104270999991926093006004+51183+008483FM-12+025799999V0209999900261000151CN0000001N9+00501+00441999999ADDAA199000691AY141061GF108991081051000251999999KA1999N+00391MD1310141+9999MW1451
0037104270999991926093012004+51183+008483FM-12+025799999V0202901N00461002401CN0500001N9+00721+00501999999ADDAY121061GF108991081051002501999999
0061104270999991926100106004+51183+008483FM-12+025799999V0209999900461002401CN0100001N9+00501+00441999999ADDAA199000691AY121061GF108991081051002501999999KA1999N+00391
0043104270999991926100206004+51183+008483FM-12+025799999V0209999900261000151CN0000001N9+00611+00561999999ADDAY141061GF108991081051000251999999MW1451
0037104270999991926100212004+51183+008483FM-12+025799999V0203601N00261000151CN0040001N9+00891+00831999999ADDAY141061GF108991081051000251999999
0081104270999991926100306004+51183+008483FM-12+025799999V0209999900461000151CN0000501N9+00891+00831999999ADDAA199000391AY141061GF108991081051000251999999KA1999N+00781MD1310061+9999MW1431
0070104270999991926100406004+51183+008483FM-12+025799999V0209999900461000151CN0000501N9+00891+00831999999ADDAY141061GF108991081051000251999999KA1999N+00721MD1310061+9999MW1461
0051104270999991926100412004+51183+008483FM-12+025799999V0203401N00101002401CN0040001N9+01001+00941999999ADDAY121061GF108991081051002501999999MD1010001+9999
0043104270999991926100506004+51183+008483FM-12+025799999V0209999900461000151CN0000001N9+00611+00561999999ADDAY141061GF108991081051000251999999MW1451
0051104270999991926100512004+51183+008483FM-12+025799999V0200901N00461220001CN0100001N9+01001+00611999999ADDAY101061GF102991001001999999001021MD1810141+9999
0050104270999991926100606004+51183+008483FM-12+025799999V0209999900671220001CN0040001N9+99999+99999999999ADDAY101061GF101991011051000251001001KA1999N+00721
0051104270999991926100612004+51183+008483FM-12+025799999V0201401N00261220001CN0200001N9+01221+00781999999ADDAY101061GF102991011011004501001021MD1810061+9999
0050104270999991926100706004+51183+008483FM-12+025799999V0209999900931220001CN0200001N9+01221+00611999999ADDAY101061GF104991999001999999031001KA1999N+01001
0051104270999991926100812004+51183+008483FM-12+025799999V0209991C00001220001CN0200001N9+01221+01001999999ADDAY101061GF104991041011002501001001MD1810061+9999
0067104270999991926100906004+51183+008483FM-12+025799999V0209999901541000151CN0000001N9+01001+00941999999ADDAA199014091AY181061GF108991081051000251999999KA1999N+01001MW1641
0057104270999991926100912004+51183+008483FM-12+025799999V0202301N01901001501CN0040001N9+01611+01561999999ADDAY181061GF108991081061001501999999MD1710261+9999MW1811
0100104270999991926101006004+51183+008483FM-12+025799999V0209999901901000601CN0040001N9-00391-00441999999ADDAA199015091AY161061GF108991081061000751999999KA1999N+99999MD1310341+9999MW1161EQDQ01 +00282ATMN  
0081104270999991926101106004+51183+008483FM-12+025799999V0209999901231000151CN0000001N9+00281+00221999999ADDAA199001091AY141061GF108991081051000251999999KA1999N+00281MD1310141+9999MW1451
0051104270999991926101112004+51183+008483FM-12+025799999V0202301N01231004501CN0500001N9+00391+00171999999ADDAY111061GF108991081051004501999999MD1810061+9999
0035104270999991926101206004+51183+008483FM-12+025799999V02099999015419999999N0002001N9+00611+00391999999ADDAA199087091AY121061KA1999N+00391
0051104270999991926101212004+51183+008483FM-12+025799999V0202501N01541004501CN0500001N9+00611+00391999999ADDAY111061GF108991081051004501999999MD1610141+9999
0057104270999991926101306004+51183+008483FM-12+025799999V0209999901541000151CN0000001N9+01111+01061999999ADDAY161061GF108991081051000251999999MD1710061+9999MW1651
0051104270999991926101312004+51183+008483FM-12+025799999V0202501N01541004501CN0500001N9+01001+00611999999ADDAY111061GF107991061011004501001021MD1210061+9999
0064104270999991926101406004+51183+008483FM-12+025799999V0209999901901030001CN0100001N9+00721+00501999999ADDAY121061GF108991041011002501021001KA1999N+00611MD1210141+9999
0037104270999991926101412004+51183+008483FM-12+025799999V0202501N01541004501CN0200001N9+00891+00671999999ADDAY121061GF108991081051004501999999
0057104270999991926101512004+51183+008483FM-12+025799999V0202301N00261000151CN0000501N9+00721+00671999999ADDAY161061GF108991081051000251999999MD1310141+9999MW1511
0081104270999991926101606004+51183+008483FM-12+025799999V0209999900461000151CN0000001N9+00281+00221999999ADDAA199012091AY161061GF108991081051000251999999KA1999N+00281MD1310261+9999MW1631
0057104270999991926101612004+51183+008483FM-12+025799999V0202901N00461000151CN0010001N9+00281+00221999999ADDAY181061GF108991081051000251999999MD1310141+9999MW1101
0067104270999991926101706004+51183+008483FM-12+025799999V0209999900461000151CN0000001N9+00221+00171999999ADDAA199000691AY141061GF108991081051000251999999KA1999N+00221MW1451
0075104270999991926101806004+51183+008483FM-12+025799999V0209999900461002401CN0100001N9+00001-00061999999ADDAA199000391AY111061GF107991071051002501001001KA1999N+00001MD1310141+9999
0037104270999991926101812004+51183+008483FM-12+025799999V0203201N00461004501CN0200001N9+00221+00001999999ADDAY111061GF106991061051004501001001
0067104270999991926101906004+51183+008483FM-12+025799999V0209999900461000151CN0000001N9-00111-00171999999ADDAA199000391AY141061GF108991081051000251999999KA1999N-00111MW1451
0051104270999991926101912004+51183+008483FM-12+025799999V0202501N00671004501CN0200001N9+00221-00171999999ADDAY111061GF107991071051004501001001MD1710141+9999
0051104270999991926102006004+51183+008483FM-12+025799999V0209999900461220001CN0100001N9-00111-00171999999ADDAY111061GF107991001001999999021081MD1610141+9999
0051104270999991926102012004+51183+008483FM-12+025799999V0202001N00461004501CN0200001N9+00221+00001999999ADDAY121061GF108991081051004501999999MD1810201+9999
0070104270999991926102106004+51183+008483FM-12+025799999V0209999900461000151CN0000001N9-00111-00171999999ADDAY141061GF108991081051000251999999KA1999N-00221MD1810201+9999MW1451
0057104270999991926102112004+51183+008483FM-12+025799999V0200701N00461000151CN0000501N9-00111-00171999999ADDAY141061GF108991081051000251999999MD1710201+9999MW1471
0100104270999991926102206004+51183+008483FM-12+025799999V0203201N00671000151CN0000001N9-00221-00281999999ADDAA199007091AY171061GF108991081051000251999999KA1999N-00281MD1310802+9999MW1231EQDQ01+000802APC3  
0057104270999991926102212004+51183+008483FM-12+025799999V0203601N00461000151CN0000001N9-00221-00281999999ADDAY141061GF108991081051000251999999MD1110061+9999MW1451
0057104270999991926102306004+51183+008483FM-12+025799999V0209999900931000151CN0000001N9-00281-00331999999ADDAY141061GF108991081051000251999999MD1010001+9999MW1451
0081104270999991926102406004+51183+008483FM-12+025799999V0209999901231000151CN0000501N9-00281-00331999999ADDAA199001091AY171061GF108991081051000251999999KA1999N-00281MD1410001+9999MW1711
0100104270999991926102506004+51183+008483FM-12+025799999V0209999900671000151CN0000001N9-01221-01281999999ADDAA199009091AY171061GF108991081051000251999999KA1999N+99999MD1210261+9999MW1731EQDQ01 -00222ATMN  
0057104270999991926102512004+51183+008483FM-12+025799999V0201801N00671000151CN0000001N9-00111-00171999999ADDAY171061GF108991081051000251999999MD1810201+9999MW1711
0067104270999991926102606004+51183+008483FM-12+025799999V0209999901231000151CN0010001N9-00111-00171999999ADDAA199000691AY121061GF108991081051000251999999KA1999N-00111MW1101
0057104270999991926102612004+51183+008483FM-12+025799999V0202301N00931000151CN0000001N9+00001-00061999999ADDAY171061GF108991081051000251999999MD1310201+9999MW1711
0075104270999991926102706004+51183+008483FM-12+025799999V0209999901231000601CN0100001N9-00221-00281999999ADDAA124999999AY141061GF108991081051000751999999KA1999N-00221MD1310261+9999
0051104270999991926102712004+51183+008483FM-12+025799999V0202701N00461002401CN0200001N9+00001-00061999999ADDAY111061GF106991999051002501001001MD1010001+9999
0083104270999991926102806004+51183+008483FM-12+025799999V0209999902261220001CN0000001N9-00781-00831999999ADDAY181061GF102991999051000251999999KA1999N+99999MD1310061+9999EQDQ01 -00222ATMN  
0051104270999991926102812004+51183+008483FM-12+025799999V0201401N00461220001CN0500001N9-00111-00281999999ADDAY121061GF108991999001999999021001MD1710401+9999
0067104270999991926102906004+51183+008483FM-12+025799999V0209999900931000151CN0000001N9+00391+00331999999ADDAA199007091AY141061GF108991081051000251999999KA1999N+00001MW1451
0057104270999991926102912004+51183+008483FM-12+025799999V0201801N00461000151CN0000001N9+00501+00441999999ADDAY141061GF108991081051000251999999MD1810061+9999MW1451
0081104270999991926103006004+51183+008483FM-12+025799999V0209999900671000151CN0000001N9+00611+00561999999ADDAA124999999AY141061GF108991081051000251999999KA1999N+00611MD1310201+9999MW1451
0043104270999991926103012004+51183+008483FM-12+025799999V0201401N00461000151CN0000001N9+00501+00441999999ADDAY161061GF108991081051000251999999MW1531
0081104270999991926103106004+51183+008483FM-12+025799999V0209999901231000151CN0000001N9+00001-00061999999ADDAA199049091AY161061GF108991081051000251999999KA1999N+00001MD1710141+9999MW1471
0076104270999991926103112004+51183+008483FM-12+025799999V0200901N00931000151CN0000001N9+00001-03222999999ADDAY161061GF108991081051000251999999MD1710141+9999MW1461EQDQ01+024103ATOD  
0037104270999991926110412004+51183+008483FM-12+025799999V0202501N00261220001CN0200001N9+00781+00721999999ADDAY111061GF106991001001999999001081
0070104270999991926110506004+51183+008483FM-12+025799999V0209999900261000151CN0005001N9+00221+00171999999ADDAY101061GF108991081051000251999999KA1999N+00221MD1810141+9999MW1461
0057104270999991926110512004+51183+008483FM-12+025799999V0201101N00461000151CN0000001N9+00391+00331999999ADDAY141061GF108991081051000251999999MD1810141+9999MW1451
0067104270999991926110606004+51183+008483FM-12+025799999V0209999900671000151CN0000501N9+00391+00331999999ADDAA199002091AY161061GF108991081051000251999999KA1999N+00111MW1451
0051104270999991926110612004+51183+008483FM-12+025799999V0202301N00931002401CN0100001N9+00391+00331999999ADDAY141061GF108991081061002501999999MD1810141+9999
0051104270999991926110712004+51183+008483FM-12+025799999V0202301N00461004501CN0200001N9+00501+00441999999ADDAY141061GF108991081061004501999999MD1110061+9999
0067104270999991926110806004+51183+008483FM-12+025799999V0209999900461000151CN0000501N9+00001-00061999999ADDAA199006091AY161061GF108991081051000251999999KA1999N+00001MW1471
0051104270999991926110812004+51183+008483FM-12+025799999V0201101N00931075001CN0200001N9+00221-00721999999ADDAY101061GF106991021091002501001091MD1610341+9999
0075104270999991926110906004+51183+008483FM-12+025799999V0209999901231004501CN0100001N9+00391+00331999999ADDAA199005091AY161061GF108991081061004501999999KA1999N+00001MD1510061+9999
0051104270999991926110912004+51183+008483FM-12+025799999V0202501N01231004501CN0100001N9+00391+00331999999ADDAY111061GF106991999061004501001001MD1310201+9999
0050104270999991926111106004+51183+008483FM-12+025799999V0209999900931220001CN0100001N9+00391+00171999999ADDAY101061GF102991001001999999001081KA1999N+00111
0037104270999991926111112004+51183+008483FM-12+025799999V0201601N00461220001CN0100001N9+00721+00501999999ADDAY101061GF104991999051000251999999
0070104270999991926111206004+51183+008483FM-12+025799999V0209999900671000151CN0002001N9+00391+00331999999ADDAY141061GF108991081051000251999999KA1999N+00281MD1610061+9999MW1471
0051104270999991926111306004+51183+008483FM-12+025799999V0209999900101220001CN0100001N9+00501+00441999999ADDAY101061GF106991999001999999021001MD1810141+9999
0076104270999991926111312004+51183+008483FM-12+025799999V0202001N00931000601CN0040001N9+00611+00561999999ADDAY141061GF108991081051000751999999MD1810542+9999MW1441EQDQ01+000542APC3  
0075104270999991926111506004+51183+008483FM-12+025799999V0209999901541004501CN0100001N9+00391+00331999999ADDAA199002091AY161061GF108991081061004501999999KA1999N+00281MD1310261+9999
0051104270999991926111512004+51183+008483FM-12+025799999V0202501N00671075001CN0100001N9+00501+00441999999ADDAY111061GF106991041061004501001091MD1310061+9999
0057104270999991926111612004+51183+008483FM-12+025799999V0202501N00671000151CN0000001N9+00721+00671999999ADDAY141061GF108991081051000251999999MD1310061+9999MW1451
0051104270999991926111712004+51183+008483FM-12+025799999V0201101N00931075001CN0100001N9+00891+00831999999ADDAY161061GF108991041091004501001081MD1810341+9999
0100104270999991926111806004+51183+008483FM-12+025799999V0209999900931000151CN0000001N9+00781+00721999999ADDAA199000391AY121061GF108991081051000251999999KA1999N+99999MD1810261+9999MW1451EQDQ01 +01002ATMN  
0051104270999991926111812004+51183+008483FM-12+025799999V0201801N00931000601CN0020001N9+00891+00831999999ADDAY141061GF108991081061000751999999MD1810141+9999
0064104270999991926111906004+51183+008483FM-12+025799999V0209999900671075001CN0100001N9+00781+00721999999ADDAY111061GF106991041091004501001081KA1999N+00721MD1810341+9999
0051104270999991926111912004+51183+008483FM-12+025799999V0201401N00931075001CN0100001N9+00781+00721999999ADDAY111061GF108991011091008001001081MD1810261+9999
0081104270999991926112006004+51183+008483FM-12+025799999V0209999900671000151CN0000001N9+00221+00171999999ADDAA199001091AY141061GF108991081051000251999999KA1999N+00221MD1310061+9999MW1611
0051104270999991926112012004+51183+008483FM-12+025799999V0201601N00931004501CN0100001N9+00391+00331999999ADDAY111061GF108991081061004501999999MD1010061+9999
0081104270999991926112106004+51183+008483FM-12+025799999V0209999901231000151CN0002001N9+00501+00441999999ADDAA199019091AY161061GF108991081051000251999999KA1999N+00111MD1810061+9999MW1631
0057104270999991926112112004+51183+008483FM-12+025799999V0202001N00931000151CN0002001N9+00501+00441999999ADDAY161061GF108991081051000251999999MD1310141+9999MW1611
0051104270999991926112212004+51183+008483FM-12+025799999V0202001N00931220001CN0200001N9+00391+00331999999ADDAY111061GF104991041091008001001081MD1810061+9999
0070104270999991926112306004+51183+008483FM-12+025799999V0209999901231000151CN0000501N9+00221+00171999999ADDAY101061GF108991081051000251999999KA1999N+00221MD1310061+9999MW1451
0051104270999991926112312004+51183+008483FM-12+025799999V0202301N01231004501CN0040001N9+00221+00171999999ADDAY141061GF108991081061004501999999MD1310141+9999
0067104270999991926112406004+51183+008483FM-12+025799999V0209999901541000151CN0000501N9+00221+00171999999ADDAA124999999AY161061GF108991081051000251999999KA1999N+00221MW1651
0043104270999991926112412004+51183+008483FM-12+025799999V0202301N00671000151CN0002001N9+00111+00061999999ADDAY171061GF108991081051000251999999MW1731
0050104270999991926112506004+51183+008483FM-12+025799999V0209999900101220001CN0100001N9+00001-00061999999ADDAY111061GF104991041091004501001081KA1999N+00001
0037104270999991926112512004+51183+008483FM-12+025799999V0203201N00261030001CN0100001N9+00111+00061999999ADDAY111061GF106991041061004501021001
0070104270999991926112606004+51183+008483FM-12+025799999V0209999900461000151CN0000501N9+00001-00061999999ADDAY141061GF108991081051000251999999KA1999N+00001MD1110061+9999MW1451
0043104270999991926112612004+51183+008483FM-12+025799999V0202901N00461000151CN0005001N9+00111+00061999999ADDAY141061GF108991081051000251999999MW1431
0056104270999991926112706004+51183+008483FM-12+025799999V0209999900461000151CN0002001N9-00221-00281999999ADDAY141061GF108991081051000251999999KA1999N-00781MW1451
0043104270999991926112712004+51183+008483FM-12+025799999V0202701N00461000151CN0000501N9-00111-00171999999ADDAY141061GF108991081051000251999999MW1471
0050104270999991926112806004+51183+008483FM-12+025799999V0209999900461030001CN0040001N9-00281-00331999999ADDAY141061GF108991041061004501021001KA1999N-00281
0037104270999991926112812004+51183+008483FM-12+025799999V0201401N00261004501CN0200001N9+00281+00221999999ADDAY161061GF108991081061004501999999
0043104270999991926112906004+51183+008483FM-12+025799999V0209999900671000151CN0005001N9-00391-00441999999ADDAY101061GF108991081051000251999999MW1441
0037104270999991926112912004+51183+008483FM-12+025799999V0201401N00461030001CN0040001N9-00781-00941999999ADDAY111061GF108991041091004501021001
0064104270999991926113006004+51183+008483FM-12+025799999V0209999900671220001CN0040001N9-00221-00391999999ADDAY101061GF102991001001999999001081KA1999N-00281MD1990061+9999
0043104270999991926113012004+51183+008483FM-12+025799999V0200901N00461075001CN0000001N9-00281-00611999999ADDAY101061GF106991041061004501001081MW1461
0056104270999991926120106004+51183+008483FM-12+025799999V0209999900671000151CN0000001N9-00281-00331999999ADDAY141061GF108991081051000251999999KA1999N-00281MW1451
0043104270999991926120112004+51183+008483FM-12+025799999V0200901N00461000151CN0000501N9-00221-00281999999ADDAY141061GF108991081051000251999999MW1451
0056104270999991926120206004+51183+008483FM-12+025799999V0209999900461000151CN0000501N9-00391-00441999999ADDAY141061GF108991081051000251999999KA1999N-00391MW1451
0043104270999991926120212004+51183+008483FM-12+025799999V0200901N00261000151CN0000001N9-00391-00441999999ADDAY141061GF108991081051000251999999MW1451
0057104270999991926120312004+51183+008483FM-12+025799999V0202301N00671002401CN0040001N9-00221-00281999999ADDAY121061GF108991081061002501999999MD1810261+9999MW1711
0081104270999991926120406004+51183+008483FM-12+025799999V0209999900671000151CN0000501N9-00281-00331999999ADDAA199004091AY171061GF108991081051000251999999KA1999N-00391MD1810201+9999MW1451
0043104270999991926120412004+51183+008483FM-12+025799999V0202901N00671000151CN0000501N9-00281-00331999999ADDAY171061GF108991081051000251999999MW1451
0070104270999991926120506004+51183+008483FM-12+025799999V0209999900461000151CN0000501N9-00391-00441999999ADDAY141061GF108991081051000251999999KA1999N-00391MD1310261+9999MW1451
0051104270999991926120612004+51183+008483FM-12+025799999V0200901N00101220001CN0200001N9-00391-00441999999ADDAY101061GF104991001001999999001081MD1310141+9999
0056104270999991926120706004+51183+008483FM-12+025799999V0209999900261000151CN0002001N9-00391-00441999999ADDAY141061GF108991081051000251999999KA1999N-00721MW1471
0043104270999991926120712004+51183+008483FM-12+025799999V0200701N00101000151CN0000501N9-00221-00281999999ADDAY141061GF108991081051000251999999MW1451
0056104270999991926121006004+51183+008483FM-12+025799999V0209999900671000151CN0000001N9+00221+00171999999ADDAY141061GF108991081051000251999999KA1999N+00001MW1451
0043104270999991926121112004+51183+008483FM-12+025799999V0202901N00461000151CN0000001N9+00001-00061999999ADDAY141061GF108991081051000251999999MW1451
0043104270999991926121206004+51183+008483FM-12+025799999V0209999900461000151CN0000001N9+00111+00061999999ADDAY141061GF108991081051000251999999MW1901
0037104270999991926121212004+51183+008483FM-12+025799999V0202701N00671220001CN0040001N9+00501+00441999999ADDAY101061GF102991001001999999001081
0050104270999991926121306004+51183+008483FM-12+025799999V0209999900461220001CN0100001N9-00111-00171999999ADDAY101061GF100991001001999999001001KA1999N-00111
0051104270999991926121312004+51183+008483FM-12+025799999V0202501N00671220001CN0100001N9+00221+00171999999ADDAY101061GF100991001001999999001001MD1810141+9999
0057104270999991926121412004+51183+008483FM-12+025799999V0202901N00671000151CN0000001N9-00111-00171999999ADDAY141061GF108991081051000251999999MD1810141+9999MW1451
0051104270999991926121512004+51183+008483FM-12+025799999V0203401N00461220001CN0200001N9-00501-00671999999ADDAY101061GF102991021011008001001001MD1310141+9999
0043104270999991926121606004+51183+008483FM-12+025799999V0209999900671000151CN0000001N9-00391-00441999999ADDAY141061GF108991081051000251999999MW1451
0043104270999991926121612004+51183+008483FM-12+025799999V0202701N00931000151CN0000001N9-00221-00281999999ADDAY141061GF108991081051000251999999MW1451
0057104270999991926121812004+51183+008483FM-12+025799999V0202701N00461000151CN0000501N9-00221-00281999999ADDAY171061GF108991081051000251999999MD1810261+9999MW1731
0051104270999991926122112004+51183+008483FM-12+025799999V0203201N00931000601CN0040001N9-00391-00441999999ADDAY171061GF108991081061000751999999MD1310061+9999
0051104270999991926122212004+51183+008483FM-12+025799999V0200201N00931002401CN0100001N9-00391-00441999999ADDAY171061GF108991081061002501999999MD1310061+9999
0037104270999991926122506004+51183+008483FM-12+025799999V0209999900671220001CN0200001N9-01221-01391999999ADDAY101061GF101991001001999999001081
0064104270999991926122606004+51183+008483FM-12+025799999V0209999900671220001CN0100001N9-00781-00941999999ADDAY101061GF104991001001999999001081KA1999N-01221MD1310061+9999
0051104270999991926122612004+51183+008483FM-12+025799999V0200901N00671220001CN0100001N9+00781+00561999999ADDAY101061GF104991001001999999001081MD1310061+9999
0070104270999991926122706004+51183+008483FM-12+025799999V0209999900671000151CN9999999N9-00721-00891999999ADDAY141061GF108991081051000251999999KA1999N-00781MD1810201+9999MW1431
0051104270999991926122812004+51183+008483FM-12+025799999V0202901N00931000151CN0000001N9-00281-00331999999ADDAY141061GF108991081051000251999999MD1810061+9999
