0037104330999991929080906004+51400+008567FM-12+013799999V0209999900261220001CN0100001N9+99999+99999999999ADDAY101061GF100991001001999999001001
0037104330999991929081006004+51400+008567FM-12+013799999V0209999900461220001CN0040001N9+99999+99999999999ADDAY111061GF106991001001999999021999
0037104330999991929081206004+51400+008567FM-12+013799999V0209999900101007801CN0010001N9+99999+99999999999ADDAY121061GF108991081051008001999999
0037104330999991929081306004+51400+008567FM-12+013799999V0209999900261220001CN0100001N9+99999+99999999999ADDAY101061GF100991001001999999001001
0037104330999991929081406004+51400+008567FM-12+013799999V0209999900261220001CN0100001N9+99999+99999999999ADDAY101061GF100991001001999999001001
0037104330999991929081506004+51400+008567FM-12+013799999V0209999900261220001CN0100001N9+99999+99999999999ADDAY101061GF102991001001999999001091
0037104330999991929081606004+51400+008567FM-12+013799999V0209999900461220001CN0100001N9+99999+99999999999ADDAY101061GF102991001001999999001081
0037104330999991929081706004+51400+008567FM-12+013799999V02099999012319999999N0100001N9+99999+99999999999ADDAY121061GF108991041061004501999999
0037104330999991929081906004+51400+008567FM-12+013799999V0209999900261007801CN0040001N9+99999+99999999999ADDAY111061GF108991061051008001999999
0037104330999991929082006004+51400+008567FM-12+013799999V0209999900261220001CN0100001N9+99999+99999999999ADDAY101061GF102991001001999999031999
0037104330999991929082106004+51400+008567FM-12+013799999V02099999002619999999N0100001N9+99999+99999999999ADDAY111061GF107991001001012501999999
0037104330999991929082206004+51400+008567FM-12+013799999V0209999900461220001CN0100001N9+99999+99999999999ADDAY111061GF104991001001999999031999
0037104330999991929082306004+51400+008567FM-12+013799999V02099999004619999999N0040001N9+99999+99999999999ADDAY111061GF106991021051004501999999
0043104330999991929082406004+51400+008567FM-12+013799999V0209999900671002401CN0040001N9+99999+99999999999ADDAY121061GF108991081051002501999999MW1431
0043104330999991929082506004+51400+008567FM-12+013799999V0209999900101000601CN0005001N9+99999+99999999999ADDAY161061GF108991081061000751999999MW1511
0043104330999991929082606004+51400+008567FM-12+013799999V0209999900261220001CN0002001N9+99999+99999999999ADDAY141061GF100991001001999999001001MW1441
0037104330999991929082706004+51400+008567FM-12+013799999V0209999900461220001CN0100001N9+99999+99999999999ADDAY101061GF100991001001999999001001
0037104330999991929082806004+51400+008567FM-12+013799999V0209999900261220001CN0100001N9+99999+99999999999ADDAY101061GF101991001001999999001081
0037104330999991929082906004+51400+008567FM-12+013799999V0209999900261220001CN0040001N9+99999+99999999999ADDAY111061GF102991001001999999001081
0037104330999991929083006004+51400+008567FM-12+013799999V0209999900461220001CN0100001N9+99999+99999999999ADDAY101061GF102991001001999999021999
0037104330999991929083106004+51400+008567FM-12+013799999V0209999900931220001CN0100001N9+99999+99999999999ADDAY101061GF102991001001999999031999
0037104330999991929090306004+51400+008567FM-12+013799999V0209999900101220001CN0200001N9+99999+99999999999ADDAY101061GF101991001001999999001021
0037104330999991929090506004+51400+008567FM-12+013799999V0209999900101220001CN0200001N9+99999+99999999999ADDAY101061GF102991001001999999001081
0037104330999991929090706004+51400+008567FM-12+013799999V0209999900461004501CN0100001N9+99999+99999999999ADDAY111061GF107991061051004501999999
0037104330999991929091006004+51400+008567FM-12+013799999V0209999900101004501CN0040001N9+99999+99999999999ADDAY121061GF108991061051004501999999
0037104330999991929091106004+51400+008567FM-12+013799999V0209999900261220001CN0200001N9+99999+99999999999ADDAY101061GF101991001001999999001021
0037104330999991929091206004+51400+008567FM-12+013799999V0209999900101220001CN0200001N9+99999+99999999999ADDAY101061GF100991001001999999001001
0037104330999991929091306004+51400+008567FM-12+013799999V0209999900261004501CN0100001N9+99999+99999999999ADDAY121061GF108991061051004501999999
0037104330999991929091406004+51400+008567FM-12+013799999V02099999001019999999N0040001N9+99999+99999999999ADDAY111061GF107991041051008001999999
0043104330999991929091606004+51400+008567FM-12+013799999V0209999900101000151CN0010001N9+99999+99999999999ADDAY141061GF108991081051000251999999MW1101
0037104330999991929091706004+51400+008567FM-12+013799999V0209999900101220001CN0100001N9+99999+99999999999ADDAY101061GF102991001001999999001091
0037104330999991929091806004+51400+008567FM-12+013799999V0209999900461220001CN0100001N9+99999+99999999999ADDAY101061GF102991001001999999001091
0037104330999991929091906004+51400+008567FM-12+013799999V0209999900101220001CN0100001N9+99999+99999999999ADDAY101061GF102991001001999999001091
0037104330999991929092106004+51400+008567FM-12+013799999V02099999004619999999N0040001N9+99999+99999999999ADDAY111061GF107991041051002501999999
0037104330999991929092406004+51400+008567FM-12+013799999V0209999900101002401CN0040001N9+99999+99999999999ADDAY121061GF108991081051002501999999
0037104330999991929092606004+51400+008567FM-12+013799999V0209999900101220001CN0100001N9+99999+99999999999ADDAY101061GF101991001001999999001021
0037104330999991929092806004+51400+008567FM-12+013799999V0209999900101220001CN0100001N9+99999+99999999999ADDAY101061GF101991001001999999001081
0037104330999991929093006004+51400+008567FM-12+013799999V0209999900261220001CN0100001N9+99999+99999999999ADDAY101061GF104991041011999999001001
0043104330999991929100106004+51400+008567FM-12+013799999V0209999900261000601CN0010001N9+99999+99999999999ADDAY141061GF108991081061000751999999MW1101
0037104330999991929100206004+51400+008567FM-12+013799999V0209999901231220001CN0040001N9+99999+99999999999ADDAY111061GF104991041061004501999999
0043104330999991929100306004+51400+008567FM-12+013799999V02099999004619999999N0040001N9+99999+99999999999ADDAY161061GF108991041061004501999999MW1611
0043104330999991929100406004+51400+008567FM-12+013799999V0209999900461002401CN0020001N9+99999+99999999999ADDAY121061GF108991081061002501999999MW1601
0043104330999991929100506004+51400+008567FM-12+013799999V02099999004619999999N0020001N9+99999+99999999999ADDAY161061GF108991041051001501999999MW1631
0037104330999991929100706004+51400+008567FM-12+013799999V0209999900461220001CN0040001N9+99999+99999999999ADDAY111061GF104991021011008001999999
0037104330999991929100806004+51400+008567FM-12+013799999V0209999901231220001CN0020001N9+99999+99999999999ADDAY111061GF104991999051004501999999
0037104330999991929100906004+51400+008567FM-12+013799999V0209999900931220001CN0020001N9+99999+99999999999ADDAY111061GF104991041061002501999999
0037104330999991929101006004+51400+008567FM-12+013799999V02099999009319999999N0020001N9+99999+99999999999ADDAY111061GF108991041061002501999999
0043104330999991929101106004+51400+008567FM-12+013799999V0209999900931001501CN0010001N9+99999+99999999999ADDAY161061GF107991061061001501999999MW1511
0037104330999991929101206004+51400+008567FM-12+013799999V0209999901231004501CN0100001N9+99999+99999999999ADDAY111061GF107991061061004501999999
0037104330999991929101406004+51400+008567FM-12+013799999V0209999900261220001CN0020001N9+99999+99999999999ADDAY111061GF104991041051004501999999
0037104330999991929101506004+51400+008567FM-12+013799999V02099999004619999999N0020001N9+99999+99999999999ADDAY111061GF106991021051004501999999
0037104330999991929101606004+51400+008567FM-12+013799999V0209999900261220001CN0040001N9+99999+99999999999ADDAY101061GF104991001001999999001081
0037104330999991929101706004+51400+008567FM-12+013799999V0209999900931220001CN0020001N9+99999+99999999999ADDAY111061GF104991041061004501999999
0037104330999991929101806004+51400+008567FM-12+013799999V02099999004619999999N0020001N9+99999+99999999999ADDAY111061GF106991021061004501999999
0037104330999991929101906004+51400+008567FM-12+013799999V0209999900261002401CN0020001N9+99999+99999999999ADDAY111061GF108991081051002501999999
0037104330999991929102106004+51400+008567FM-12+013799999V0209999900261220001CN0100001N9+99999+99999999999ADDAY101061GF104991001001999999021999
0037104330999991929102206004+51400+008567FM-12+013799999V0209999900261220001CN0100001N9+99999+99999999999ADDAY101061GF102991001001999999999999
0037104330999991929102306004+51400+008567FM-12+013799999V0209999900101220001CN0040001N9+99999+99999999999ADDAY101061GF102991001001999999001021
0037104330999991929102406004+51400+008567FM-12+013799999V02099999002619999999N0040001N9+99999+99999999999ADDAY111061GF106991041051008001999999
0043104330999991929102506004+51400+008567FM-12+013799999V0209999900671002401CN0040001N9+99999+99999999999ADDAY161061GF108991061061002501999999MW1501
0037104330999991929102606004+51400+008567FM-12+013799999V0209999900261220001CN0100001N9+99999+99999999999ADDAY101061GF102991001001999999001081
0037104330999991929102806004+51400+008567FM-12+013799999V02099999002619999999N0100001N9+99999+99999999999ADDAY111061GF106991041051004501999999
0037104330999991929103006004+51400+008567FM-12+013799999V0209999900461220001CN0100001N9+99999+99999999999ADDAY111061GF104991001001999999001081
0043104330999991929103106004+51400+008567FM-12+013799999V0209999900461001501CN0020001N9+99999+99999999999ADDAY161061GF108991081061001501999999MW1611
0043104330999991929110206004+51400+008567FM-12+013799999V02099999006719999999N0002001N9+99999+99999999999ADDAY141061GF108991041051001501999999MW1451
0043104330999991929110406004+51400+008567FM-12+013799999V0209999900261000601CN0010001N9+99999+99999999999ADDAY141061GF108991081051000751999999MW1101
0037104330999991929110506004+51400+008567FM-12+013799999V0209999900261220001CN0040001N9+99999+99999999999ADDAY101061GF104991001001999999001091
0037104330999991929110606004+51400+008567FM-12+013799999V0209999900101220001CN0100001N9+99999+99999999999ADDAY101061GF104991001001999999021999
0037104330999991929110706004+51400+008567FM-12+013799999V0209999900671220001CN0100001N9+99999+99999999999ADDAY111061GF106991001001999999021999
0037104330999991929110806004+51400+008567FM-12+013799999V0209999900931220001CN0100001N9+99999+99999999999ADDAY101061GF102991001001999999999999
0037104330999991929110906004+51400+008567FM-12+013799999V02099999002619999999N0040001N9+99999+99999999999ADDAY111061GF106991041051004501999999
0037104330999991929111106004+51400+008567FM-12+013799999V0209999900261220001CN0040001N9+99999+99999999999ADDAY101061GF104991001001999999021999
0043104330999991929111206004+51400+008567FM-12+013799999V0209999901231220001CN0040001N9+99999+99999999999ADDAY181061GF102991999061002501999999MW1801
0037104330999991929111306004+51400+008567FM-12+013799999V0209999900461220001CN0100001N9+99999+99999999999ADDAY101061GF102991001001999999001091
0043104330999991929111506004+51400+008567FM-12+013799999V0209999900101000601CN0020001N9+99999+99999999999ADDAY171061GF108991081061000751999999MW1711
0043104330999991929111806004+51400+008567FM-12+013799999V0209999900461000601CN0010001N9+99999+99999999999ADDAY141061GF108991081061000751999999MW1101
0037104330999991929111906004+51400+008567FM-12+013799999V0209999900101220001CN0100001N9+99999+99999999999ADDAY101061GF102991001001999999031999
0037104330999991929112106004+51400+008567FM-12+013799999V0209999900261220001CN0040001N9+99999+99999999999ADDAY101061GF104991001001999999001021
0037104330999991929112206004+51400+008567FM-12+013799999V0209999900101220001CN0100001N9+99999+99999999999ADDAY101061GF102991001001999999001021
0037104330999991929112306004+51400+008567FM-12+013799999V0209999900461220001CN0100001N9+99999+99999999999ADDAY111061GF106991001001999999031999
0043104330999991929112406004+51400+008567FM-12+013799999V0209999900101001501CN0040001N9+99999+99999999999ADDAY161061GF108991081061001501999999MW1891
0037104330999991929112506004+51400+008567FM-12+013799999V02099999002619999999N0100001N9+99999+99999999999ADDAY101061GF106991041051008001999999
0037104330999991929112606004+51400+008567FM-12+013799999V0209999900261002401CN0040001N9+99999+99999999999ADDAY121061GF108991061051002501999999
0043104330999991929112706004+51400+008567FM-12+013799999V0209999900261002401CN0040001N9+99999+99999999999ADDAY161061GF108991081061002501999999MW1531
0037104330999991929112806004+51400+008567FM-12+013799999V0209999900261002401CN0040001N9+99999+99999999999ADDAY111061GF108991061051002501999999
0037104330999991929112906004+51400+008567FM-12+013799999V0209999900671220001CN0040001N9+99999+99999999999ADDAY101061GF102991021051002501001001
0037104330999991929113006004+51400+008567FM-12+013799999V0209999900261220001CN0040001N9+99999+99999999999ADDAY111061GF104991021051004501999999
0037104330999991929120306004+51400+008567FM-12+013799999V0209999900261001501CN0020001N9+99999+99999999999ADDAY121061GF108991061061001501999999
0037104330999991929120406004+51400+008567FM-12+013799999V02099999002619999999N0040001N9+99999+99999999999ADDAY121061GF108991021051022501999999
0037104330999991929120506004+51400+008567FM-12+013799999V0209999900461220001CN0100001N9+99999+99999999999ADDAY101061GF101991001001999999001021
0037104330999991929120606004+51400+008567FM-12+013799999V0209999900461220001CN0040001N9+99999+99999999999ADDAY111061GF104991021051004501999999
0043104330999991929120706004+51400+008567FM-12+013799999V0209999900671001501CN0040001N9+99999+99999999999ADDAY121061GF108991061051001501999999MW1211
0037104330999991929120906004+51400+008567FM-12+013799999V02099999015419999999N0100001N9+99999+99999999999ADDAY121061GF106991041051008001999999
0037104330999991929121006004+51400+008567FM-12+013799999V0209999900671002401CN0040001N9+99999+99999999999ADDAY121061GF108991061051002501999999
0043104330999991929121106004+51400+008567FM-12+013799999V0209999900671002401CN0020001N9+99999+99999999999ADDAY161061GF108991061061002501999999MW1511
0043104330999991929121206004+51400+008567FM-12+013799999V0209999900931001501CN0020001N9+99999+99999999999ADDAY181061GF108991061061001501999999MW1801
0037104330999991929121306004+51400+008567FM-12+013799999V0209999900671002401CN0020001N9+99999+99999999999ADDAY121061GF108991061051002501999999
0043104330999991929121406004+51400+008567FM-12+013799999V0209999900671001501CN0020001N9+99999+99999999999ADDAY161061GF108991081061001501999999MW1531
0037104330999991929121606004+51400+008567FM-12+013799999V0209999900261002401CN0020001N9+99999+99999999999ADDAY121061GF108991061051002501999999
0037104330999991929121706004+51400+008567FM-12+013799999V0209999900461002401CN0040001N9+99999+99999999999ADDAY121061GF108991061051002501999999
0037104330999991929121806004+51400+008567FM-12+013799999V0209999900261220001CN0040001N9+99999+99999999999ADDAY101061GF102991001001999999001021
0037104330999991929121906004+51400+008567FM-12+013799999V0209999900261220001CN0040001N9+99999+99999999999ADDAY101061GF104991001001999999001081
0037104330999991929122006004+51400+008567FM-12+013799999V0209999900461220001CN0100001N9+99999+99999999999ADDAY101061GF102991001001999999001021
0037104330999991929122306004+51400+008567FM-12+013799999V02099999004619999999N0040001N9+99999+99999999999ADDAY111061GF106991041051002501999999
0037104330999991929122706004+51400+008567FM-12+013799999V0209999900261220001CN0040001N9+99999+99999999999ADDAY101061GF102991001001999999001091
0037104330999991929122806004+51400+008567FM-12+013799999V0209999900671007801CN0040001N9+99999+99999999999ADDAY111061GF108991061061008001999999
0037104330999991929123006004+51400+008567FM-12+013799999V02099999004619999999N0040001N9+99999+99999999999ADDAY111061GF106991041051002501999999
0043104330999991929123106004+51400+008567FM-12+013799999V0209999900461001501CN0040001N9+99999+99999999999ADDAY181061GF108991061061001501999999MW1801
