0037104400999991928101806004+51200+010033FM-12+004899999V0209991C00001220001CN0100001N9+99999+99999999999ADDAY121061GF108991001001999999021999
0037104400999991928102006004+51200+010033FM-12+004899999V0209999900671220001CN0100001N9+99999+99999999999ADDAY111061GF104991041061002501001001
0043104400999991928102206004+51200+010033FM-12+004899999V0209999900101004501CN0040001N9+99999+99999999999ADDAY161061GF108991081061004501999999MW1511
0037104400999991928102406004+51200+010033FM-12+004899999V0209999900461220001CN0100001N9+99999+99999999999ADDAY111061GF104991041011008001001001
0037104400999991928102606004+51200+010033FM-12+004899999V0209999900461004501CN0040001N9+99999+99999999999ADDAY121061GF108991081061004501999999
0037104400999991928102706004+51200+010033FM-12+004899999V0209999900101220001CN0040001N9+99999+99999999999ADDAY141061GF108991001001999999021999
0043104400999991928102906004+51200+010033FM-12+004899999V0209999900461004501CN0040001N9+99999+99999999999ADDAY161061GF107991071061004501001001MW1211
0037104400999991928103006004+51200+010033FM-12+004899999V0209999900461220001CN0040001N9+99999+99999999999ADDAY141061GF104991999001022501021999
0037104400999991928110206004+51200+010033FM-12+004899999V0209999900261004501CN0040001N9+99999+99999999999ADDAY141061GF108991081051004501999999
0037104400999991928110306004+51200+010033FM-12+004899999V0209999900101220001CN0100001N9+99999+99999999999ADDAY101061GF101991011011012501001001
0037104400999991928110606004+51200+010033FM-12+004899999V0209999900461220001CN0100001N9+99999+99999999999ADDAY111061GF104991041011008001001001
0037104400999991928110806004+51200+010033FM-12+004899999V0209999900101220001CN0040001N9+99999+99999999999ADDAY111061GF104991041051012501001001
0037104400999991928111006004+51200+010033FM-12+004899999V0209999900101002401CN0040001N9+99999+99999999999ADDAY121061GF108991081051002501999999
0043104400999991928111206004+51200+010033FM-12+004899999V0209999900101004501CN0040001N9+99999+99999999999ADDAY161061GF108991081061004501999999MW1211
0037104400999991928111306004+51200+010033FM-12+004899999V0209999900101007801CN0100001N9+99999+99999999999ADDAY121061GF108991081061008001999999
0037104400999991928111406004+51200+010033FM-12+004899999V0209999900101007801CN0040001N9+99999+99999999999ADDAY121061GF108991081051008001999999
0037104400999991928111506004+51200+010033FM-12+004899999V0209999900101007801CN0040001N9+99999+99999999999ADDAY121061GF108991081061008001999999
0037104400999991928111606004+51200+010033FM-12+004899999V0209999900461220001CN0100001N9+99999+99999999999ADDAY121061GF104991041061008001001001
0037104400999991928111706004+51200+010033FM-12+004899999V0209999900461007801CN0100001N9+99999+99999999999ADDAY181061GF108991081061008001999999
0037104400999991928112206004+51200+010033FM-12+004899999V0209999900101012301CN0100001N9+99999+99999999999ADDAY121061GF108991081051012501999999
0043104400999991928112306004+51200+010033FM-12+004899999V0209999900261007801CN0040001N9+99999+99999999999ADDAY121061GF108991081061008001999999MW1611
0043104400999991928112606004+51200+010033FM-12+004899999V0209999902261007801CN0040001N9+99999+99999999999ADDAY161061GF108991081061008001999999MW1211
0037104400999991928112706004+51200+010033FM-12+004899999V0209999900101007801CN0100001N9+99999+99999999999ADDAY121061GF108991081061008001999999
0037104400999991928112806004+51200+010033FM-12+004899999V0209999900101004501CN0100001N9+99999+99999999999ADDAY121061GF108991081061004501999999
0037104400999991928112906004+51200+010033FM-12+004899999V0209999900101220001CN0100001N9+99999+99999999999ADDAY111061GF101991011011008001001001
0043104400999991928113006004+51200+010033FM-12+004899999V0209999900261007801CN0040001N9+99999+99999999999ADDAY161061GF108991081061008001999999MW1511
0037104400999991928120406004+51200+010033FM-12+004899999V0209999900101220001CN0100001N9+99999+99999999999ADDAY141061GF104991041011008001001001
0037104400999991928120706004+51200+010033FM-12+004899999V0209999900101007801CN0040001N9+99999+99999999999ADDAY121061GF108991081061008001999999
0037104400999991928120806004+51200+010033FM-12+004899999V02099999001019999999N0100001N9+99999+99999999999ADDAY121061GF106991001001017501999999
0037104400999991928121006004+51200+010033FM-12+004899999V0209999900101220001CN0100001N9+99999+99999999999ADDAY111061GF104991041051008001001001
0037104400999991928121106004+51200+010033FM-12+004899999V0209999900101007801CN0100001N9+99999+99999999999ADDAY121061GF108991081061008001999999
0037104400999991928121206004+51200+010033FM-12+004899999V0209999900261007801CN0100001N9+99999+99999999999ADDAY121061GF108991081061008001999999
0043104400999991928121306004+51200+010033FM-12+004899999V0209999900101004501CN0020001N9+99999+99999999999ADDAY171061GF108991081061004501999999MW1711
0037104400999991928121506004+51200+010033FM-12+004899999V0209999900101220001CN0200001N9+99999+99999999999ADDAY111061GF104991041011008001001001
0037104400999991928121706004+51200+010033FM-12+004899999V0209999900101007801CN0040001N9+99999+99999999999ADDAY121061GF108991081061008001999999
0037104400999991928121806004+51200+010033FM-12+004899999V0209999900101007801CN0040001N9+99999+99999999999ADDAY141061GF108991081061008001999999
0037104400999991928121906004+51200+010033FM-12+004899999V0209999900261007801CN0040001N9+99999+99999999999ADDAY121061GF108991081061008001999999
0037104400999991928122006004+51200+010033FM-12+004899999V0209999900101007801CN0100001N9+99999+99999999999ADDAY121061GF108991081051008001999999
0037104400999991928122106004+51200+010033FM-12+004899999V0209999900101007801CN0040001N9+99999+99999999999ADDAY121061GF108991081061008001999999
0037104400999991928122206004+51200+010033FM-12+004899999V0209999900101007801CN0040001N9+99999+99999999999ADDAY121061GF108991081061008001999999
0037104400999991928122406004+51200+010033FM-12+004899999V0209999900461007801CN0040001N9+99999+99999999999ADDAY121061GF108991081061008001999999
0037104400999991928122806004+51200+010033FM-12+004899999V0209999900101007801CN0040001N9+99999+99999999999ADDAY141061GF108991081051008001999999
0037104400999991928122906004+51200+010033FM-12+004899999V0209999900101004501CN0040001N9+99999+99999999999ADDAY141061GF108991081061004501999999
0043104400999991928123106004+51200+010033FM-12+004899999V0209999900101004501CN0020001N9+99999+99999999999ADDAY141061GF108991081061004501999999MW1681
