0037104400999991929050206004+51200+010033FM-12+004899999V0209999900101220001CN0100001N9+99999+99999999999ADDAY101061GF100991001001999999001001
0037104400999991929050306004+51200+010033FM-12+004899999V0209999900101220001CN0100001N9+99999+99999999999ADDAY141061GF100991001001999999001001
0037104400999991929050606004+51200+010033FM-12+004899999V0209999900101220001CN0100001N9+99999+99999999999ADDAY141061GF104991001001999999001021
0037104400999991929050806004+51200+010033FM-12+004899999V0209999900101220001CN0040001N9+99999+99999999999ADDAY141061GF102991001001999999001081
0037104400999991929051506004+51200+010033FM-12+004899999V0209999900461220001CN0100001N9+99999+99999999999ADDAY101061GF101991011091008001001001
0037104400999991929052106004+51200+010033FM-12+004899999V0209999900101220001CN0200001N9+99999+99999999999ADDAY101061GF100991001001999999001001
0037104400999991929052206004+51200+010033FM-12+004899999V0209999900261220001CN0200001N9+99999+99999999999ADDAY101061GF100991001001999999001001
0037104400999991929052406004+51200+010033FM-12+004899999V0209999900261220001CN0040001N9+99999+99999999999ADDAY141061GF100991001001999999001001
0037104400999991929052806004+51200+010033FM-12+004899999V0209999900671220001CN0200001N9+99999+99999999999ADDAY101061GF100991001001999999001001
0043104400999991929080106004+51200+010033FM-12+004899999V0209999900931004501CN0040001N9+99999+99999999999ADDAY181061GF108991081061004501999999MW1211
0037104400999991929080806004+51200+010033FM-12+004899999V0209999900101012301CN0100001N9+99999+99999999999ADDAY121061GF108991081051012501999999
0037104400999991929080906004+51200+010033FM-12+004899999V0209999900261220001CN0100001N9+99999+99999999999ADDAY111061GF102991021061008001001001
0037104400999991929081306004+51200+010033FM-12+004899999V0209999900461220001CN0200001N9+99999+99999999999ADDAY101061GF100991001001999999001001
0037104400999991929081406004+51200+010033FM-12+004899999V0209999900261220001CN0200001N9+99999+99999999999ADDAY101061GF100991001001999999001001
0037104400999991929082006004+51200+010033FM-12+004899999V0209999900101012301CN0100001N9+99999+99999999999ADDAY121061GF108991081051012501999999
0037104400999991929082506004+51200+010033FM-12+004899999V0209999900101007801CN0100001N9+99999+99999999999ADDAY111061GF108991081051008001999999
0037104400999991929082606004+51200+010033FM-12+004899999V0209999900101007801CN0100001N9+99999+99999999999ADDAY111061GF107991071051008001001001
0037104400999991929083006004+51200+010033FM-12+004899999V0209999900101220001CN0040001N9+99999+99999999999ADDAY101061GF104991041011012501001001
0037104400999991929090206004+51200+010033FM-12+004899999V0209999900101220001CN0040001N9+99999+99999999999ADDAY141061GF107991001001999999001999
0037104400999991929090606004+51200+010033FM-12+004899999V0209999900101220001CN0040001N9+99999+99999999999ADDAY141061GF100991001001999999001999
0037104400999991929090706004+51200+010033FM-12+004899999V0209999900461007801CN0200001N9+99999+99999999999ADDAY121061GF108991081061008001999999
0037104400999991929090906004+51200+010033FM-12+004899999V0209999900101220001CN0040001N9+99999+99999999999ADDAY101061GF100991001001999999001001
0037104400999991929091706004+51200+010033FM-12+004899999V0209999900101220001CN0100001N9+99999+99999999999ADDAY101061GF101991001001017501999999
0037104400999991929092006004+51200+010033FM-12+004899999V0209999900671012301CN0040001N9+99999+99999999999ADDAY121061GF108991081051012501999999
0037104400999991929092106004+51200+010033FM-12+004899999V0209999900261007801CN0100001N9+99999+99999999999ADDAY111061GF106991061051008001001001
0037104400999991929092406004+51200+010033FM-12+004899999V02099999004619999999N0040001N9+99999+99999999999ADDAY111061GF106991041051008001999999
0043104400999991929092506004+51200+010033FM-12+004899999V0209991C00001000151CN0002001N9+99999+99999999999ADDAY141061GF108991081051000251999999MW1451
0043104400999991929092706004+51200+010033FM-12+004899999V0209999900101000151CN0002001N9+99999+99999999999ADDAY141061GF108991081051000251999999MW1451
0037104400999991929092806004+51200+010033FM-12+004899999V0209999900461220001CN0100001N9+99999+99999999999ADDAY101061GF101991001001999999001999
0037104400999991929093006004+51200+010033FM-12+004899999V0209999900261021001CN0100001N9+99999+99999999999ADDAY111061GF106991061051022501001001
0037104400999991929100106004+51200+010033FM-12+004899999V0209999900461007801CN0200001N9+99999+99999999999ADDAY161061GF108991081061008001999999
0037104400999991929100206004+51200+010033FM-12+004899999V0209999900101007801CN0100001N9+99999+99999999999ADDAY181061GF108991081061008001999999
0043104400999991929100306004+51200+010033FM-12+004899999V0209991C00001000601CN0005001N9+99999+99999999999ADDAY161061GF108991081061000751999999MW1531
0037104400999991929100406004+51200+010033FM-12+004899999V0209999900461012301CN0200001N9+99999+99999999999ADDAY161061GF107991071051012501001001
0037104400999991929100506004+51200+010033FM-12+004899999V0209999900101012301CN0200001N9+99999+99999999999ADDAY121061GF108991081051012501999999
0037104400999991929100706004+51200+010033FM-12+004899999V0209999900101220001CN0100001N9+99999+99999999999ADDAY101061GF104991011011008001999999
0037104400999991929100806004+51200+010033FM-12+004899999V0209999900461220001CN0100001N9+99999+99999999999ADDAY101061GF104991001001999999001021
0037104400999991929100906004+51200+010033FM-12+004899999V0209999900461220001CN0100001N9+99999+99999999999ADDAY181061GF104991021051012501999999
0037104400999991929101006004+51200+010033FM-12+004899999V0209999900931007801CN0100001N9+99999+99999999999ADDAY181061GF108991081061008001999999
0037104400999991929101106004+51200+010033FM-12+004899999V0209999900461012301CN0100001N9+99999+99999999999ADDAY121061GF108991081061012501999999
0037104400999991929101206004+51200+010033FM-12+004899999V0209999900671007801CN0100001N9+99999+99999999999ADDAY111061GF108991081051008001999999
0037104400999991929101406004+51200+010033FM-12+004899999V0209999900101007801CN0040001N9+99999+99999999999ADDAY141061GF108991081051008001999999
0037104400999991929101506004+51200+010033FM-12+004899999V0209999900101220001CN0040001N9+99999+99999999999ADDAY111061GF104991041051012501001001
0037104400999991929101606004+51200+010033FM-12+004899999V0209999900101004501CN0040001N9+99999+99999999999ADDAY141061GF108991081051004501999999
0037104400999991929101706004+51200+010033FM-12+004899999V02099999001019999999N0100001N9+99999+99999999999ADDAY111061GF107991001001008001999999
0037104400999991929101906004+51200+010033FM-12+004899999V0209991C00001004501CN0040001N9+99999+99999999999ADDAY121061GF108991081051004501999999
0043104400999991929102106004+51200+010033FM-12+004899999V0209991C00001000151CN0002001N9+99999+99999999999ADDAY141061GF108991081051000251999999MW1451
0037104400999991929102206004+51200+010033FM-12+004899999V0209991C00001001501CN0040001N9+99999+99999999999ADDAY121061GF108991081051001501999999
0037104400999991929102306004+51200+010033FM-12+004899999V0209999900101007801CN0040001N9+99999+99999999999ADDAY111061GF106991061051008001001001
0037104400999991929102406004+51200+010033FM-12+004899999V0209999900101007801CN0100001N9+99999+99999999999ADDAY111061GF107991071051008001001001
0037104400999991929102506004+51200+010033FM-12+004899999V0209999900101007801CN0200001N9+99999+99999999999ADDAY121061GF108991081061008001999999
0037104400999991929102606004+51200+010033FM-12+004899999V0209991C00001012301CN0040001N9+99999+99999999999ADDAY121061GF108991081051012501999999
0037104400999991929102806004+51200+010033FM-12+004899999V0209999900261012301CN0200001N9+99999+99999999999ADDAY111061GF107991071051012501001001
0037104400999991929102906004+51200+010033FM-12+004899999V0209999901541004501CN0200001N9+99999+99999999999ADDAY121061GF108991061061004501999999
0037104400999991929103006004+51200+010033FM-12+004899999V0209999900261007801CN0100001N9+99999+99999999999ADDAY111061GF106991061061008001001001
0037104400999991929110106004+51200+010033FM-12+004899999V0209999900461007801CN0200001N9+99999+99999999999ADDAY121061GF108991081061008001999999
0037104400999991929110206004+51200+010033FM-12+004899999V0209999900671220001CN0100001N9+99999+99999999999ADDAY111061GF104991041061004501001001
0037104400999991929110406004+51200+010033FM-12+004899999V0209999900101220001CN0100001N9+99999+99999999999ADDAY111061GF104991041061004501001001
0037104400999991929110506004+51200+010033FM-12+004899999V0209999900261220001CN0200001N9+99999+99999999999ADDAY101061GF101991001001999999001021
0037104400999991929110606004+51200+010033FM-12+004899999V0209999900101004501CN0100001N9+99999+99999999999ADDAY121061GF108991081061004501999999
0037104400999991929110706004+51200+010033FM-12+004899999V0209999900101220001CN0100001N9+99999+99999999999ADDAY101061GF102991021011999999001001
0037104400999991929110806004+51200+010033FM-12+004899999V0209999900261007801CN0100001N9+99999+99999999999ADDAY121061GF108991081061008001999999
0043104400999991929110906004+51200+010033FM-12+004899999V0209999900101002401CN0010001N9+99999+99999999999ADDAY121061GF108991081061002501999999MW1611
0037104400999991929111106004+51200+010033FM-12+004899999V0209999900101220001CN0200001N9+99999+99999999999ADDAY101061GF100991001001999999001001
0037104400999991929111206004+51200+010033FM-12+004899999V0209999900461004501CN0200001N9+99999+99999999999ADDAY121061GF108991081061004501999999
0037104400999991929111306004+51200+010033FM-12+004899999V0209999900461007801CN0200001N9+99999+99999999999ADDAY121061GF107991071051008001001001
0037104400999991929111406004+51200+010033FM-12+004899999V0209999900101220001CN0040001N9+99999+99999999999ADDAY101061GF104991021051012501999999
0043104400999991929111506004+51200+010033FM-12+004899999V0209999900261004501CN0100001N9+99999+99999999999ADDAY141061GF108991081061004501999999MW1501
0037104400999991929111606004+51200+010033FM-12+004899999V0209999900931220001CN0100001N9+99999+99999999999ADDAY101061GF104991041051012501999999
0037104400999991929111806004+51200+010033FM-12+004899999V0209999900461004501CN0040001N9+99999+99999999999ADDAY121061GF108991081061004501999999
0037104400999991929111906004+51200+010033FM-12+004899999V0209999900101220001CN0100001N9+99999+99999999999ADDAY101061GF102991021011008001001001
0037104400999991929112206004+51200+010033FM-12+004899999V0209991C00001001501CN0020001N9+99999+99999999999ADDAY141061GF108991081051001501999999
0037104400999991929112306004+51200+010033FM-12+004899999V0209999900261007801CN0100001N9+99999+99999999999ADDAY111061GF107991071051008001001001
0037104400999991929112406004+51200+010033FM-12+004899999V0209999900101220001CN0100001N9+99999+99999999999ADDAY101061GF102991021051012501999999
0043104400999991929112606004+51200+010033FM-12+004899999V0209999900101004501CN0100001N9+99999+99999999999ADDAY161061GF108991081061004501999999MW1531
0037104400999991929112806004+51200+010033FM-12+004899999V0209999900101004501CN0040001N9+99999+99999999999ADDAY121061GF108991081051004501999999
0037104400999991929112906004+51200+010033FM-12+004899999V02099999006719999999N0100001N9+99999+99999999999ADDAY111061GF107991011051008001999999
0037104400999991929113006004+51200+010033FM-12+004899999V0209999900101007801CN0100001N9+99999+99999999999ADDAY121061GF108991081061008001999999
0037104400999991929120306004+51200+010033FM-12+004899999V0209999900101007801CN0100001N9+99999+99999999999ADDAY161061GF108991081061008001999999
0037104400999991929120406004+51200+010033FM-12+004899999V0209999900671004501CN0100001N9+99999+99999999999ADDAY121061GF108991081061004501999999
0037104400999991929120506004+51200+010033FM-12+004899999V0209999900461220001CN0100001N9+99999+99999999999ADDAY101061GF102991021051012501001001
0037104400999991929120706004+51200+010033FM-12+004899999V0209999900931007801CN0200001N9+99999+99999999999ADDAY121061GF108991081061008001999999
0037104400999991929121106004+51200+010033FM-12+004899999V0209999900461004501CN0100001N9+99999+99999999999ADDAY161061GF108991081061004501999999
0037104400999991929121206004+51200+010033FM-12+004899999V0209999900931007801CN0100001N9+99999+99999999999ADDAY121061GF108991081051008001999999
0037104400999991929121406004+51200+010033FM-12+004899999V0209999900101004501CN0040001N9+99999+99999999999ADDAY121061GF108991081051004501999999
0037104400999991929121606004+51200+010033FM-12+004899999V0209999900101007801CN0100001N9+99999+99999999999ADDAY121061GF108991081051008001999999
0037104400999991929121806004+51200+010033FM-12+004899999V0209999900261004501CN0100001N9+99999+99999999999ADDAY111061GF108991081051004501999999
0037104400999991929121906004+51200+010033FM-12+004899999V0209999900101001501CN0020001N9+99999+99999999999ADDAY141061GF108991081051001501999999
0037104400999991929122006004+51200+010033FM-12+004899999V0209999900101220001CN0040001N9+99999+99999999999ADDAY141061GF100991001001999999001001
0037104400999991929122106004+51200+010033FM-12+004899999V0209999900101220001CN0100001N9+99999+99999999999ADDAY141061GF100991001001999999001001
0037104400999991929122306004+51200+010033FM-12+004899999V0209999900101012301CN0200001N9+99999+99999999999ADDAY111061GF107991071051012501001001
0043104400999991929122406004+51200+010033FM-12+004899999V0209999900461000601CN0010001N9+99999+99999999999ADDAY171061GF108991081051000751999999MW1731
0037104400999991929122706004+51200+010033FM-12+004899999V0209999900261007801CN0100001N9+99999+99999999999ADDAY111061GF106991061051008001001001
0037104400999991929122806004+51200+010033FM-12+004899999V0209999900101002401CN0100001N9+99999+99999999999ADDAY161061GF108991081061002501999999
