0064104490999991927051006004+51483+010317FM-12+009099999V0209999900671220001CN0200001N9+00721+00331101541ADDAY101061GF104991021011017501001021KA1999N+00611MD1310141+9999
0064104490999991927051106004+51483+010317FM-12+009099999V0209999900101220001CN0500001N9+00281-00281102481ADDAY101061GF102991021011000251001001KA1999N-00281MD1310201+9999
0075104490999991927051306004+51483+010317FM-12+009099999V0209999900261220001CN0100001N9+00221+00001101511ADDAA199001091AY181061GF104991041011008001001001KA1999N+00001MD1310141+9999
0075104490999991927051406004+51483+010317FM-12+009099999V0209999900461007801CN0200001N9+00221+00001101891ADDAA199000691AY181061GF107991061011008001001021KA1999N-00221MD1310141+9999
0051104490999991927051806004+51483+010317FM-12+009099999V0209999900461220001CN0100001N9+00721+00331102371ADDAY161061GF104991041011008001001001MD1310201+9999
0064104490999991927052006004+51483+010317FM-12+009099999V0209999900101004501CN0040001N9+00611+00561102081ADDAY101061GF108991081051004501999999KA1999N+00391MD1310141+9999
0081104490999991927052306004+51483+010317FM-12+009099999V0209999900461004501CN0040001N9+00501+00441101581ADDAA199003091AY161061GF108991081061004501999999KA1999N+00501MD1310201+9999MW1631
0075104490999991927052506004+51483+010317FM-12+009099999V0209999900671075001CN0200001N9+00611+00391101931ADDAA199000391AY181061GF106991041011008001001021KA1999N+00391MD1110061+9999
0050104490999991927052606004+51483+010317FM-12+009099999V0209999900461004501CN0200001N9+00501+00441101471ADDAY111061GF108991081051004501999999KA1999N+00391
0081104490999991927052706004+51483+010317FM-12+009099999V0209999900671007801CN0100001N9+00501+00281101471ADDAA199000391AY181061GF108991081051008001999999KA1999N+00501MD1810141+9999MW1601
0050104490999991927052806004+51483+010317FM-12+009099999V0209999900671030001CN0200001N9+00611+00391101041ADDAY111061GF106991041011008001031001KA1999N+00391
0051104490999991927060106004+51483+010317FM-12+009099999V0209999900671220001CN0200001N9+01781+01561100591ADDAY181061GF104991041051017501001001MD1810201+9999
0081104490999991927060206004+51483+010317FM-12+009099999V0209999900101220001CN0200001N9+01501+01061101111ADDAA199000691AY181061GF104991999091012501001021KA1999N+01221MD1990141+9999MW1801
0064104490999991927060306004+51483+010317FM-12+009099999V0209999900101220001CN0500001N9+01781+01561101401ADDAY111061GF104991041011012501001001KA1999N+01391MD1310141+9999
0056104490999991927060406004+51483+010317FM-12+009099999V0209999900101000151CN0010001N9+01111+01061101551ADDAY141061GF108991081051000251999999KA1999N+00781MW1101
0050104490999991927060506004+51483+010317FM-12+009099999V0209999900101220001CN0100001N9+01001+00781101461ADDAY111061GF104991041011012501001001KA1999N+00891
0057104490999991927060606004+51483+010317FM-12+009099999V0209999900261007801CN0100001N9+01001+00941100571ADDAY111061GF108991061051008001021001MD1810341+9999MW1801
0075104490999991927060706004+51483+010317FM-12+009099999V0209999900461015001CN0200001N9+00781+00391101541ADDAA199007091AY181061GF107991071051017501001001KA1999N+00611MD1310261+9999
0061104490999991927060806004+51483+010317FM-12+009099999V0209999900931012301CN0200001N9+01111+00891100751ADDAA199005091AY181061GF108991061011012501021001KA1999N+01001
0050104490999991927060906004+51483+010317FM-12+009099999V0209999900261220001CN0100001N9+00891+00671101811ADDAY101061GF104991021091017501999999KA1999N+00501
0075104490999991927061006004+51483+010317FM-12+009099999V0209999900101075001CN0200001N9+00721+00671999999ADDAA199001091AY181061GF106991021011012501001021KA1999N+00721MD1110061+9999
0064104490999991927061106004+51483+010317FM-12+009099999V0209999900101220001CN0100001N9+01221+00781101351ADDAY101061GF104991001001999999001021KA1999N+00721MD1810061+9999
0075104490999991927061206004+51483+010317FM-12+009099999V0209999900461004501CN0040001N9+01001+00781101551ADDAA199004091AY181061GF107991071051004501001001KA1999N+00891MD1310201+9999
0075104490999991927061306004+51483+010317FM-12+009099999V0209999900461007801CN0100001N9+01001+00941101761ADDAA199000391AY111061GF108991081051008001999999KA1999N+01001MD1310141+9999
0050104490999991927061406004+51483+010317FM-12+009099999V0209991C00001007801CN0020001N9+01221+01171101721ADDAY121061GF108991081051008001999999KA1999N+00781
0081104490999991927061506004+51483+010317FM-12+009099999V0209999900461000601CN0010001N9+01501+01441101791ADDAA199003091AY181061GF108991081051000751999999KA1999N+01391MD1310061+9999MW1101
0064104490999991927061606004+51483+010317FM-12+009099999V0209999900261220001CN0100001N9+01221+00611102471ADDAY101061GF108991001001999999001021KA1999N+00891MD1010061+9999
0064104490999991927061706004+51483+010317FM-12+009099999V0209999900101220001CN0040001N9+01721+01501101471ADDAY101061GF104991001001999999001021KA1999N+01111MD1810141+9999
0081104490999991927061806004+51483+010317FM-12+009099999V0209999900261007801CN0020001N9+01391+01331101031ADDAA199017091AY191061GF108991081061008001999999KA1999N+01391MD1310261+9999MW1631
0075104490999991927061906004+51483+010317FM-12+009099999V0209999900671030001CN0200001N9+01281+00831100551ADDAA199000691AY111061GF106991041011012501031001KA1999N+01001MD1810261+9999
0075104490999991927062006004+51483+010317FM-12+009099999V0209999900931007801CN0040001N9+01221+01001101191ADDAA199000591AY181061GF108991081051008001999999KA1999N+00891MD1310261+9999
0064104490999991927062106004+51483+010317FM-12+009099999V0209999900671220001CN0100001N9+01281+00831102341ADDAY101061GF102991001001999999001021KA1999N+01001MD1310061+9999
0064104490999991927062206004+51483+010317FM-12+009099999V0209999900461030001CN0100001N9+01221+01001101811ADDAY111061GF108991041011004501021001KA1999N+01111MD1310141+9999
0064104490999991927062306004+51483+010317FM-12+009099999V0209999900101075001CN0200001N9+01221+01001102001ADDAY101061GF106991021011012501001021KA1999N+00501MD1810141+9999
0075104490999991927062406004+51483+010317FM-12+009099999V0209999900461075001CN0200001N9+01001+00611101601ADDAA199002091AY181061GF106991041011008001001021KA1999N+00721MD1810061+9999
0075104490999991927062506004+51483+010317FM-12+009099999V0209999900931002401CN0200001N9+01111+00891100791ADDAA199001091AY181061GF107991071051002501001001KA1999N+00891MD1310141+9999
0081104490999991927062606004+51483+010317FM-12+009099999V0209999900931004501CN0100001N9+01111+01061100191ADDAA199005091AY161061GF108991081051004501999999KA1999N+00781MD1610141+9999MW1611
0075104490999991927062706004+51483+010317FM-12+009099999V0209999900261075001CN0100001N9+01001+00781101071ADDAA199000691AY181061GF107991041011008001001091KA1999N+00781MD1310201+9999
0064104490999991927062806004+51483+010317FM-12+009099999V0209999900261075001CN0200001N9+01111+01061101401ADDAY111061GF106991041011008001001021KA1999N+00891MD1310141+9999
0064104490999991927062906004+51483+010317FM-12+009099999V0209999900261220001CN0100001N9+01111+01061101621ADDAY101061GF104991001001999999001021KA1999N+00721MD1310061+9999
0064104490999991927063006004+51483+010317FM-12+009099999V0209999900101220001CN0100001N9+01501+01281101241ADDAY101061GF102991001001999999001021KA1999N+00891MD1810141+9999
0064104490999991927070106004+51483+010317FM-12+009099999V0209999900101220001CN0100001N9+02111+01831100101ADDAY111061GF104991021011012501001021KA1999N+01501MD1810201+9999
0061104490999991927070206004+51483+010317FM-12+009099999V0209999900671075001CN0200001N9+01281+01061100371ADDAA199003091AY181061GF106991041011012501001021KA1999N+01001
0094104490999991927070306004+51483+010317FM-12+009099999V0209999901541007801CN0100001N9+01221+01171100751ADDAA199006091AY181061GF107991071051008001001001KA1999N+99999MD1310201+9999EQDQ01 +01782ATMN  
0075104490999991927070406004+51483+010317FM-12+009099999V0209999900671030001CN0100001N9+01501+01061101571ADDAA124999999AY101061GF106991041011012501031001KA1999N+01221MD1710141+9999
0064104490999991927070506004+51483+010317FM-12+009099999V0209999900101220001CN0100001N9+01781+01561101681ADDAY101061GF100991001001999999001001KA1999N+01281MD1310061+9999
0061104490999991927070606004+51483+010317FM-12+009099999V0209999900101220001CN0040001N9+02001+01941101511ADDAA199020091AY101061GF102991001001999999001021KA1999N+01501
0050104490999991927070706004+51483+010317FM-12+009099999V0209999900101030001CN0040001N9+02111+01831100971ADDAY101061GF106991041011012501031001KA1999N+01611
0056104490999991927070806004+51483+010317FM-12+009099999V0209999900101000151CN0002001N9+01611+01561101191ADDAY121061GF108991081051000251999999KA1999N+01501MW1451
0081104490999991927070906004+51483+010317FM-12+009099999V0209999901231004501CN0100001N9+01721+01671099831ADDAA199034091AY191061GF108991081061004501999999KA1999N+01611MD1810261+9999MW1631
0075104490999991927071006004+51483+010317FM-12+009099999V0209999900461007801CN0100001N9+01501+01281099981ADDAA199001091AY181061GF106991061051008001001001KA1999N+01111MD1310061+9999
0081104490999991927071106004+51483+010317FM-12+009099999V0209999900461000151CN0005001N9+01501+01441101261ADDAA199002091AY181061GF108991081051000251999999KA1999N+01501MD1310261+9999MW1451
0056104490999991927071206004+51483+010317FM-12+009099999V0209991C00001000601CN0005001N9+01611+01561101571ADDAY111061GF108991081051000751999999KA1999N+01281MW1431
0070104490999991927071306004+51483+010317FM-12+009099999V0209999900101000151CN0000501N9+01611+01561101391ADDAY111061GF108991081051000251999999KA1999N+01501MD1310141+9999MW1451
0067104490999991927071406004+51483+010317FM-12+009099999V0209999900101000601CN0005001N9+01611+01561101791ADDAA199000691AY161061GF108991081051000751999999KA1999N+01501MW1431
0064104490999991927071506004+51483+010317FM-12+009099999V0209991C00001075001CN0040001N9+01721+01501101991ADDAY111061GF106991021011017501001021KA1999N+01281MD1310061+9999
0056104490999991927071606004+51483+010317FM-12+009099999V0209999900101000601CN0005001N9+01501+01441102031ADDAY111061GF108991081051000751999999KA1999N+01281MW1431
0056104490999991927071706004+51483+010317FM-12+009099999V0209991C00001220001CN0005001N9+01281+01221101641ADDAY111061GF101991999999999999999999KA1999N+01281MW1431
0064104490999991927071806004+51483+010317FM-12+009099999V0209999900261000601CN0040001N9+01281+01221101581ADDAY111061GF108991081051000751999999KA1999N+01221MD1310141+9999
0081104490999991927071906004+51483+010317FM-12+009099999V0209999900671000151CN0040001N9+01221+01171101951ADDAA199000591AY161061GF108991081061000251999999KA1999N+01221MD1310141+9999MW1511
0061104490999991927072006004+51483+010317FM-12+009099999V0209999900261001501CN0100001N9+01111+00891102201ADDAA199002091AY181061GF108991061051001501021001KA1999N+01001
0064104490999991927072106004+51483+010317FM-12+009099999V0209991C00001220001CN0100001N9+01391+01331102001ADDAY101061GF102991999001999999031001KA1999N+00891MD1990061+9999
0075104490999991927072206004+51483+010317FM-12+009099999V0209999900261007801CN0100001N9+01721+01671100991ADDAA199009091AY181061GF108991081051008001999999KA1999N+01611MD1610061+9999
0061104490999991927072306004+51483+010317FM-12+009099999V0209999900671075001CN0100001N9+01501+01281100671ADDAA199006091AY191061GF106991041011008001001021KA1999N+01221
0081104490999991927072406004+51483+010317FM-12+009099999V0209999900931000601CN0020001N9+01281+01221101191ADDAA199002091AY161061GF107991071061000751001001KA1999N+01221MD1310401+9999MW1611
0064104490999991927072506004+51483+010317FM-12+009099999V0209999900671012301CN0040001N9+01281+01061101911ADDAY121061GF108991081051012501999999KA1999N+01221MD1310061+9999
0050104490999991927072606004+51483+010317FM-12+009099999V0209999900101220001CN0100001N9+01721+01501102131ADDAY101061GF100991001001999999001001KA1999N+01111
0061104490999991927072806004+51483+010317FM-12+009099999V0209999900261012301CN0100001N9+01721+01671100911ADDAA199000691AY181061GF107991071051012501001001KA1999N+01501
0064104490999991927072906004+51483+010317FM-12+009099999V0209991C00001015001CN0100001N9+01611+01331101331ADDAY101061GF106991061051017501001001KA1999N+01221MD1310061+9999
0064104490999991927073006004+51483+010317FM-12+009099999V0209991C00001220001CN0200001N9+01781+01721101901ADDAY101061GF101991001001999999999021KA1999N+01111MD1310141+9999
0050104490999991927073106004+51483+010317FM-12+009099999V0209999900101220001CN0100001N9+02001+01561101841ADDAY101061GF104991021011017501001021KA1999N+01281
0075104490999991927080106004+51483+010317FM-12+009099999V0209991C00001220001CN0100001N9+02001+01721101661ADDAA199000691AY191061GF104991021011022501001021KA1999N+01501MD1990141+9999
0064104490999991927080206004+51483+010317FM-12+009099999V0209999900261030001CN0040001N9+02001+01721101601ADDAY101061GF108991041051017501021001KA1999N+01891MD1310201+9999
0064104490999991927080306004+51483+010317FM-12+009099999V0209991C00001220001CN0020001N9+01221+01171102831ADDAY141061GF104991021051004501001021KA1999N+01001MD1310141+9999
0050104490999991927080406004+51483+010317FM-12+009099999V0209999900101220001CN0040001N9+01281+01221102631ADDAY101061GF100991001001999999001001KA1999N+00891
0050104490999991927080506004+51483+010317FM-12+009099999V0209999900101220001CN0040001N9+01611+01331102101ADDAY101061GF102991999001999999031001KA1999N+01281
0070104490999991927080606004+51483+010317FM-12+009099999V0209999900101220001CN0020001N9+01781+01721101221ADDAY101061GF104991001001999999999021KA1999N+01391MD1990061+9999MW1421
0050104490999991927080706004+51483+010317FM-12+009099999V0209991C00001030001CN0040001N9+01891+01611100911ADDAY101061GF108991021011017501031001KA1999N+01611
0056104490999991927080806004+51483+010317FM-12+009099999V0209991C00001220001CN0040001N9+02001+01721101191ADDAY141061GF104991999001999999031001KA1999N+01501MW1421
0081104490999991927080906004+51483+010317FM-12+009099999V0209999900461002401CN0100001N9+01721+01671101151ADDAA199009091AY191061GF108991061061002501021001KA1999N+01611MD1210061+9999MW1291
0064104490999991927081006004+51483+010317FM-12+009099999V0209999900261220001CN0100001N9+01721+01501101501ADDAY101061GF104991021011022501031001KA1999N+01281MD1310061+9999
0061104490999991927081106004+51483+010317FM-12+009099999V0209991C00001220001CN0100001N9+01611+01561101371ADDAA199006091AY181061GF102991021011022501031001KA1999N+01221
0081104490999991927081206004+51483+010317FM-12+009099999V0209999900261030001CN0100001N9+01111+01061101321ADDAA199023091AY191061GF108991041051002501021001KA1999N+01001MD1310141+9999MW1611
0067104490999991927081306004+51483+010317FM-12+009099999V0209999900461007801CN0040001N9+01391+01331101471ADDAA199003091AY181061GF108991081061008001999999KA1999N+01221MW1601
0064104490999991927081406004+51483+010317FM-12+009099999V0209999900671030001CN0100001N9+01391+01331101281ADDAY111061GF106991041051004501021001KA1999N+01281MD1810061+9999
0061104490999991927081506004+51483+010317FM-12+009099999V0209999900931030001CN0100001N9+01391+01331100401ADDAA199032091AY191061GF107991041051008001021001KA1999N+01281
0081104490999991927081606004+51483+010317FM-12+009099999V0209999900931030001CN0040001N9+01611+01331099991ADDAA199002091AY101061GF106991041051004501031001KA1999N+01111MD1610141+9999MW1211
0075104490999991927081706004+51483+010317FM-12+009099999V0209999900931030001CN0100001N9+01221+01001101101ADDAA199000391AY181061GF106991041051008001031001KA1999N+01111MD1310141+9999
0064104490999991927081806004+51483+010317FM-12+009099999V0209999900671220001CN0040001N9+01391+00941101111ADDAY101061GF108991999001999999021001KA1999N+00781MD1810141+9999
0061104490999991927081906004+51483+010317FM-12+009099999V0209999900461075001CN0100001N9+01391+01331100781ADDAA199000591AY181061GF106991041011004501001021KA1999N+01391
0075104490999991927082006004+51483+010317FM-12+009099999V0209999900671004501CN0040001N9+01221+01171101281ADDAA199001091AY181061GF108991081051004501999999KA1999N+01111MD1310201+9999
0061104490999991927082106004+51483+010317FM-12+009099999V0209999900461002401CN0040001N9+01391+01331100871ADDAA199004091AY161061GF108991081051002501999999KA1999N+01111
0075104490999991927082206004+51483+010317FM-12+009099999V0209999900671007801CN0100001N9+01391+01331100821ADDAA199003091AY181061GF106991061011008001001001KA1999N+01221MD1110061+9999
0050104490999991927082306004+51483+010317FM-12+009099999V0209999900461075001CN0040001N9+01501+01281999999ADDAY101061GF106991041011008001001021KA1999N+01281
0050104490999991927082406004+51483+010317FM-12+009099999V0209999900101030001CN0040001N9+01281+01221101441ADDAY101061GF108991041011008001021001KA1999N+01111
0081104490999991927082506004+51483+010317FM-12+009099999V0209999900671001501CN0020001N9+01111+01061101221ADDAA199011091AY161061GF108991081061001501999999KA1999N+01111MD1110061+9999MW1651
0081104490999991927082606004+51483+010317FM-12+009099999V0209999900261030001CN0020001N9+01111+01061101371ADDAA199006091AY161061GF108991041061001501021001KA1999N+01001MD1310061+9999MW1601
0050104490999991927082706004+51483+010317FM-12+009099999V0209999900671075001CN0040001N9+01111+01061101991ADDAY101061GF106991021011012501001021KA1999N+00891
0064104490999991927082806004+51483+010317FM-12+009099999V0209999900101220001CN0040001N9+01281+01221102421ADDAY101061GF104991001001999999001021KA1999N+01111MD1310061+9999
0064104490999991927082906004+51483+010317FM-12+009099999V0209999900101220001CN0040001N9+01611+01331102461ADDAY101061GF100991001001999999001001KA1999N+01221MD1310141+9999
0064104490999991927083006004+51483+010317FM-12+009099999V0209991C00001220001CN0040001N9+01391+01331102661ADDAY141061GF102991001001999999001021KA1999N+01221MD1310141+9999
0064104490999991927083106004+51483+010317FM-12+009099999V0209991C00001220001CN0020001N9+01501+01441102691ADDAY141061GF101991001001999999001021KA1999N+01281MD1310061+9999
0050104490999991927090106004+51483+010317FM-12+009099999V0209999900461220001CN0020001N9+01501+01441102561ADDAY141061GF102991001001999999001021KA1999N+01281
0064104490999991927090206004+51483+010317FM-12+009099999V0209999900101220001CN0100001N9+01501+01441102301ADDAY101061GF101991011011022501999999KA1999N+01111MD1990061+9999
0051104490999991927090306004+51483+010317FM-12+009099999V0209991C00001220001CN0040001N9+01391+01331102271ADDAY101061GF106991999001999999031001MD1310061+9999
0064104490999991927090406004+51483+010317FM-12+009099999V0209999900931220001CN0040001N9+01391+01171102001ADDAY101061GF104991001001999999001021KA1999N+01221MD1810061+9999
0050104490999991927090506004+51483+010317FM-12+009099999V0209999900671220001CN0040001N9+01391+01331101671ADDAY101061GF106991001001999999999021KA1999N+01281
0064104490999991927090606004+51483+010317FM-12+009099999V0209999900101220001CN0020001N9+01611+01171101801ADDAY141061GF107991999001999999031001KA1999N+01501MD1310141+9999
0050104490999991927090706004+51483+010317FM-12+009099999V0209999900101220001CN0040001N9+01501+01441101801ADDAY101061GF104991021011017501001021KA1999N+01391
0067104490999991927090806004+51483+010317FM-12+009099999V0209999900461000601CN0005001N9+01391+01331101731ADDAA199017091AY191061GF108991081051000751999999KA1999N+01281MW1451
0075104490999991927090906004+51483+010317FM-12+009099999V0209999900461030001CN0040001N9+01221+01171101281ADDAA199000391AY181061GF108991041051012501021001KA1999N+01001MD1810141+9999
0081104490999991927091006004+51483+010317FM-12+009099999V0209999900461001501CN0040001N9+01221+01171100821ADDAA199011091AY161061GF108991081091001501999999KA1999N+01001MD1810141+9999MW1211
0081104490999991927091106004+51483+010317FM-12+009099999V0209999900461001501CN0020001N9+01221+01001100331ADDAA199001091AY161061GF108991081061001501999999KA1999N+01221MD1310261+9999MW1211
0067104490999991927091206004+51483+010317FM-12+009099999V0209999900261001501CN0040001N9+01001+00941100571ADDAA199000691AY181061GF108991081061001501999999KA1999N+00891MW1511
0081104490999991927091306004+51483+010317FM-12+009099999V0209999900261001501CN0020001N9+00891+00831101551ADDAA199010091AY121061GF108991081061001501999999KA1999N+00781MD1310261+9999MW1211
0081104490999991927091406004+51483+010317FM-12+009099999V0209999900461001501CN0010001N9+01001+00941101351ADDAA199001091AY181061GF108991081061001501999999KA1999N+00891MD1810141+9999MW1501
0081104490999991927091506004+51483+010317FM-12+009099999V0209999900261000601CN0010001N9+01111+01061101431ADDAA199001091AY161061GF108991081061000751999999KA1999N+00891MD1310141+9999MW1511
0064104490999991927091606004+51483+010317FM-12+009099999V02099999002619999999N0040001N9+01391+01171100781ADDAY181061GF107991999001004501001001KA1999N+01111MD1810261+9999
0081104490999991927091706004+51483+010317FM-12+009099999V0209999900261001501CN0005001N9+01281+01221100201ADDAA199000691AY161061GF108991081061001501999999KA1999N+01221MD1510061+9999MW1531
0067104490999991927091806004+51483+010317FM-12+009099999V0209999900461002401CN0040001N9+00891+00671100431ADDAA199004091AY161061GF108991081061002501999999KA1999N+00781MW1211
0081104490999991927091906004+51483+010317FM-12+009099999V0209999900101220001CN0040001N9+00781+00721100881ADDAA199001091AY101061GF104991999001999999021001KA1999N+00611MD1310061+9999MW1211
0081104490999991927092006004+51483+010317FM-12+009099999V0209999900461220001CN0040001N9+01221+01001100641ADDAA199001091AY161061GF104991999061004501999999KA1999N+01111MD1310401+9999MW1211
0075104490999991927092106004+51483+010317FM-12+009099999V0209999900671001501CN0040001N9+01501+01281101011ADDAA199000391AY121061GF108991081051001501999999KA1999N+01001MD1810141+9999
0064104490999991927092206004+51483+010317FM-12+009099999V0209999900261220001CN0100001N9+01721+01501100381ADDAY101061GF102991999051012501999999KA1999N+01501MD1510001+9999
0075104490999991927092306004+51483+010317FM-12+009099999V0209999900461024001CN0020001N9+01281+00831100101ADDAA199002091AY111061GF107991061011999999001081KA1999N+01111MD1310061+9999
0070104490999991927092406004+51483+010317FM-12+009099999V0209999900461001501CN0020001N9+01111+00891099041ADDAY161061GF108991081061001501999999KA1999N+00891MD1810341+9999MW1611
0064104490999991927092506004+51483+010317FM-12+009099999V0209999900101007801CN0020001N9+01001+00941099491ADDAY101061GF108991081051008001999999KA1999N+00891MD1310141+9999
0075104490999991927092606004+51483+010317FM-12+009099999V0209999900671007801CN0100001N9+01001+00781100531ADDAA199000691AY101061GF107991071051008001001001KA1999N+00891MD1310201+9999
0075104490999991927092706004+51483+010317FM-12+009099999V0209999900261007801CN0100001N9+00781+00561101581ADDAA199000391AY111061GF106991061051008001031001KA1999N+00611MD1310261+9999
0064104490999991927092806004+51483+010317FM-12+009099999V0209999900101220001CN0040001N9+00611+00561102461ADDAY101061GF100991001001999999001001KA1999N+00391MD1310341+9999
0064104490999991927092906004+51483+010317FM-12+009099999V0209991C00001220001CN0040001N9+00611+00561102521ADDAY101061GF100991001001999999001001KA1999N+00391MD1810061+9999
0050104490999991927093006004+51483+010317FM-12+009099999V0209999900101220001CN0040001N9+01001+00781101181ADDAY121061GF104991999051004501999999KA1999N+00781
0064104490999991927100106004+51483+010317FM-12+009099999V0209999900671220001CN0040001N9+00611+00561102111ADDAY101061GF101991999051000251999999KA1999N+00501MD1310061+9999
0051104490999991927100112004+51483+010317FM-12+009099999V0202301N00671220001CN0100001N9+01391+00721102021ADDAY101061GF104991021011012501001081MD1810141+9999
0050104490999991927100206004+51483+010317FM-12+009099999V02099999002619999999N0100001N9+01001+00781101641ADDAY111061GF108991999001022501021001KA1999N+00891
0081104490999991927100306004+51483+010317FM-12+009099999V02099999004619999999N0200001N9+01281+01061101811ADDAA199002091AY181061GF106991999001008001021001KA1999N+00721MD1310401+9999MW1211
0037104490999991927100312004+51483+010317FM-12+009099999V0202701N00461220001CN0500001N9+01111+99999102121ADDAY111061GF104991021011012501999999
0050104490999991927100406004+51483+010317FM-12+009099999V0209999900461220001CN0100001N9+00391+00171102641ADDAY101061GF102991999001022501021001KA1999N+00281
0043104490999991927100412004+51483+010317FM-12+009099999V0202701N00461004501CN0100001N9+01001+00611102521ADDAY161061GF108991081051004501999999MW1501
0067104490999991927100506004+51483+010317FM-12+009099999V0209999900461004501CN0100001N9+00501+00441102341ADDAA199000691AY161061GF108991081051004501999999KA1999N+00391MW1531
0057104490999991927100512004+51483+010317FM-12+009099999V0203401N00671000151CN0100001N9+01221+00781102521ADDAY181061GF106991061051000251001001MD1110061+9999MW1211
0067104490999991927100606004+51483+010317FM-12+009099999V0209999900261000601CN0010001N9+00501+00441102731ADDAA199001091AY161061GF108991081061000751999999KA1999N+00501MW1601
0081104490999991927100706004+51483+010317FM-12+009099999V0209999900261000151CN0000501N9+01001+00941102441ADDAA199005091AY161061GF108991081061000251999999KA1999N+00721MD1810061+9999MW1511
0037104490999991927100712004+51483+010317FM-12+009099999V0202301N00101000601CN0002001N9+01111+01061102031ADDAY181061GF108991081061000751999999
0075104490999991927100806004+51483+010317FM-12+009099999V0209999900101004501CN0040001N9+00391+00331102991ADDAA199000591AY121061GF107991071051004501001001KA1999N+00221MD1310201+9999
0051104490999991927100906004+51483+010317FM-12+009099999V0209999900461220001CN0040001N9+00501+00281103461ADDAY101061GF100991001001999999001001MD1310141+9999
0050104490999991927101006004+51483+010317FM-12+009099999V0209991C00001220001CN0100001N9+00391+00331103391ADDAY101061GF101991001001999999001021KA1999N+00221
0051104490999991927101112004+51483+010317FM-12+009099999V0202901N00261220001CN0020001N9+01281+00831102351ADDAY101061GF100991001001999999001001MD1810141+9999
0064104490999991927101206004+51483+010317FM-12+009099999V0209999900101007801CN0040001N9+00721+00671102701ADDAY141061GF108991081051008001999999KA1999N+00501MD1310061+9999
0064104490999991927101306004+51483+010317FM-12+009099999V0209999900101220001CN0020001N9+00281+00221102561ADDAY101061GF107991999001999999031001KA1999N+00221MD1610141+9999
0064104490999991927101406004+51483+010317FM-12+009099999V0209999900101007801CN0040001N9+00611+00391101201ADDAY101061GF108991081051008001999999KA1999N+00281MD1610061+9999
0043104490999991927101412004+51483+010317FM-12+009099999V0202501N00101002401CN0020001N9+00781+00561101241ADDAY121061GF108991081051002501999999MW1471
0081104490999991927101506004+51483+010317FM-12+009099999V0209999900461007801CN0040001N9+00781+00721101731ADDAA199001091AY161061GF108991081051008001999999KA1999N+00721MD1310141+9999MW1211
0070104490999991927101606004+51483+010317FM-12+009099999V0209999900101004501CN0010001N9+00391+00331101471ADDAY141061GF108991081051004501999999KA1999N+00111MD1810141+9999MW1101
0051104490999991927101706004+51483+010317FM-12+009099999V0209999900671004501CN0020001N9+00611+00391100711ADDAY111061GF108991081051004501999999MD1810061+9999
0075104490999991927101806004+51483+010317FM-12+009099999V0209999900671220001CN0040001N9+00721+00671100751ADDAA199008091AY161061GF104991041051008001001001KA1999N+00721MD1310201+9999
0051104490999991927101812004+51483+010317FM-12+009099999V0202301N00671007801CN0100001N9+00781+00561100971ADDAY181061GF106991061051008001001001MD1210061+9999
0064104490999991927101906004+51483+010317FM-12+009099999V0209999900261220001CN0040001N9+00391+00331101401ADDAY101061GF101991001001999999001021KA1999N+00281MD1310061+9999
0057104490999991927102006004+51483+010317FM-12+009099999V0209999900461030001CN0020001N9+00721+00671101391ADDAY181061GF107991041051004501021001MD1310201+9999MW1601
0064104490999991927102106004+51483+010317FM-12+009099999V0209999900261030001CN0010001N9+00281+00221102201ADDAY101061GF108991041051004501021001KA1999N+00221MD1310141+9999
0070104490999991927102206004+51483+010317FM-12+009099999V0209999900101000151CN0000501N9+00391+00331101551ADDAY141061GF108991081051000251999999KA1999N+00111MD1810201+9999MW1451
0075104490999991927102306004+51483+010317FM-12+009099999V0209999900261030001CN0200001N9+00721+00501099681ADDAA199002091AY181061GF108991021051008001021001KA1999N+00721MD1210201+9999
0081104490999991927102406004+51483+010317FM-12+009099999V0209999900931000601CN0010001N9+00611+00561100211ADDAA199001091AY101061GF108991081061000751999999KA1999N+00281MD1310261+9999MW1831
0051104490999991927102412004+51483+010317FM-12+009099999V0202701N01901030001CN0010001N9+00501+00441100901ADDAY181061GF106991041091000751021001MD1310401+9999
0037104490999991927102506004+51483+010317FM-12+009099999V0209999900461030001CN0020001N9+00721+00671101831ADDAY181061GF108991041011008001021001
0061104490999991927102606004+51483+010317FM-12+009099999V0209999900931007801CN0040001N9+01281+01061101701ADDAA199000591AY181061GF108991081051008001999999KA1999N+01001
0050104490999991927102706004+51483+010317FM-12+009099999V0209999900671012301CN0100001N9+01281+01061101591ADDAY111061GF108991081051012501999999KA1999N+01221
0064104490999991927102806004+51483+010317FM-12+009099999V0209999901231030001CN0040001N9+01281+01061101631ADDAY101061GF108991041051008001021001KA1999N+01281MD1310141+9999
0064104490999991927102906004+51483+010317FM-12+009099999V0209999900671075001CN0100001N9+01221+00781101411ADDAY101061GF106991021011008001001021KA1999N+01111MD1210061+9999
0037104490999991927102912004+51483+010317FM-12+009099999V0202301N01541220001CN0100001N9+01501+00611101621ADDAY101061GF101991001001999999001021
0050104490999991927103006004+51483+010317FM-12+009099999V0209999900101220001CN0100001N9+00781+00721102271ADDAY101061GF106991001001999999021021KA1999N+00391
0064104490999991927103106004+51483+010317FM-12+009099999V0209999900261220001CN0100001N9+00891+00671101701ADDAY101061GF106991001001999999021021KA1999N+00611MD1810061+9999
0057104490999991927110212004+51483+010317FM-12+009099999V0202001N00931002401CN0100001N9+01001+00941102371ADDAY161061GF108991081061002501999999MD1810061+9999MW1611
0057104490999991927110312004+51483+010317FM-12+009099999V0202001N00671002401CN0100001N9+01501+01281102511ADDAY181061GF108991081061002501999999MD1810061+9999MW1601
0057104490999991927110412004+51483+010317FM-12+009099999V0202501N00671001501CN0010001N9+01281+01061101771ADDAY121061GF108991081061001501999999MD1810141+9999MW1611
0051104490999991927110512004+51483+010317FM-12+009099999V0202001N00931030001CN0040001N9+00891+00831101011ADDAY181061GF107991041051008001021001MD1810141+9999
0051104490999991927110612004+51483+010317FM-12+009099999V0201801N01541220001CN0100001N9+01221+00781099511ADDAY141061GF102991999051022501021001MD1810201+9999
0037104490999991927110712004+51483+010317FM-12+009099999V0201801N00671007801CN0100001N9+00721+00501099391ADDAY161061GF107991071051008001001001
0051104490999991927110812004+51483+010317FM-12+009099999V0202001N00671007801CN0100001N9+00611+00221100611ADDAY121061GF108991081051008001999999MD1310141+9999
0081104490999991927110906004+51483+010317FM-12+009099999V0209999900461000601CN0005001N9+00111+00061099801ADDAA199006091AY161061GF108991081061000751999999KA1999N+00001MD1810141+9999MW1731
0057104490999991927110912004+51483+010317FM-12+009099999V0203601N00261000601CN0005001N9+00221+00171099361ADDAY161061GF108991081051000751999999MD1810201+9999MW1451
0037104490999991927111012004+51483+010317FM-12+009099999V0202001N00261007801CN0040001N9+00281+00061099351ADDAY121061GF108991081051008001999999
0051104490999991927111112004+51483+010317FM-12+009099999V0202001N00671030001CN0040001N9+00221-00171100111ADDAY111061GF107991041061008001021001MD1310061+9999
0051104490999991927111212004+51483+010317FM-12+009099999V0200201N00261004501CN0020001N9+00221-00171101271ADDAY111061GF108991081051004501999999MD1310141+9999
0075104490999991927111306004+51483+010317FM-12+009099999V0209999900101220001CN0020001N9-00111-00171102171ADDAA199000391AY171061GF106991999001999999021001KA1999N-00111MD1310061+9999
0050104490999991927111406004+51483+010317FM-12+009099999V0209991C00001220001CN0020001N9-00391-00441102331ADDAY101061GF104991001001999999021021KA1999N-00391
0051104490999991927111412004+51483+010317FM-12+009099999V0202001N00671220001CN0020001N9+00001-00221102201ADDAY111061GF108991999001999999021001MD1810061+9999
0067104490999991927111506004+51483+010317FM-12+009099999V0209999900461220001CN0020001N9+00001-00061102101ADDAA199000591AY171061GF108991999001999999021001KA1999N-00111MW1231
0037104490999991927111512004+51483+010317FM-12+009099999V0202301N00461220001CN0020001N9+00221+00001102131ADDAY181061GF108991999001999999021001
0050104490999991927111706004+51483+010317FM-12+009099999V0209991C00001000601CN0005001N9-00111-00171102381ADDAY141061GF108991081051000751999999KA1999N-00111
0051104490999991927111712004+51483+010317FM-12+009099999V0200701N00261004501CN0020001N9+00111-00221102351ADDAY111061GF107991071051004501001001MD1990141+9999
0051104490999991927111812004+51483+010317FM-12+009099999V0200901N00461075001CN0020001N9-00111-00441101871ADDAY101061GF106991041011008001001021MD1810141+9999
0050104490999991927111906004+51483+010317FM-12+009099999V0209999901231004501CN0010001N9-00281-00331101671ADDAY111061GF107991061051004501031001KA1999N-00281
0064104490999991927112006004+51483+010317FM-12+009099999V0209999900931220001CN0020001N9-00501-00561101771ADDAY111061GF108991999001999999021001KA1999N-00501MD1410001+9999
0067104490999991927112106004+51483+010317FM-12+009099999V0209999901231030001CN0010001N9-00391-00561101321ADDAA199000391AY171061GF108991041061004501021001KA1999N-00501MW1681
0057104490999991927112112004+51483+010317FM-12+009099999V0200701N01541002401CN0010001N9-00391-00441101761ADDAY171061GF108991081051002501999999MD1210061+9999MW1231
0075104490999991927112206004+51483+010317FM-12+009099999V0209999900931220001CN0020001N9-00721-00781102041ADDAA199001091AY121061GF108991999001999999021001KA1999N-00781MD1810201+9999
0064104490999991927112306004+51483+010317FM-12+009099999V0209999900671001501CN0010001N9-00611-00671101001ADDAY121061GF108991081051001501999999KA1999N-00781MD1810141+9999
0043104490999991927112312004+51483+010317FM-12+009099999V0200501N00261001501CN0020001N9-00391-00441100991ADDAY171061GF108991081051001501999999MW1701
0064104490999991927112406004+51483+010317FM-12+009099999V0209999900671001501CN0020001N9-00281-00331102061ADDAY121061GF108991081051001501999999KA1999N-00391MD1310141+9999
0051104490999991927112412004+51483+010317FM-12+009099999V0201801N00461004501CN0040001N9-00111-00281102031ADDAY111061GF106991061011004501001001MD1610061+9999
0081104490999991927112506004+51483+010317FM-12+009099999V0209999900461004501CN0040001N9+00111+00061102431ADDAA199006091AY161061GF108991081061004501999999KA1999N-00111MD1310141+9999MW1611
0057104490999991927112512004+51483+010317FM-12+009099999V0202301N00101001501CN0010001N9+00281+00221102861ADDAY161061GF108991081051001501999999MD1310261+9999MW1451
0057104490999991927112612004+51483+010317FM-12+009099999V0202301N00101000601CN0005001N9+00611+00561103711ADDAY141061GF108991081051000751999999MD1810141+9999MW1451
0064104490999991927112706004+51483+010317FM-12+009099999V0209991C00001220001CN0200001N9-00111-00281102841ADDAY101061GF104991999001999999021001KA1999N-00391MD1810141+9999
0100104490999991927112806004+51483+010317FM-12+009099999V0209999900261000601CN0005001N9+00001-00061102631ADDAA199005091AY141061GF108991081051000751999999KA1999N+99999MD1310201+9999MW1451EQDQ01 +02002ATMN  
0043104490999991927112812004+51483+010317FM-12+009099999V0201801N00261001501CN0010001N9+00111+00061102631ADDAY141061GF108991081051001501999999MW1101
0050104490999991927112906004+51483+010317FM-12+009099999V0209991C00001001501CN0010001N9+00111-00111102571ADDAY121061GF108991081051001501999999KA1999N+00001
0051104490999991927112912004+51483+010317FM-12+009099999V0201601N00101001501CN0010001N9+00111-00111102521ADDAY121061GF108991081051001501999999MD1810141+9999
0064104490999991927113006004+51483+010317FM-12+009099999V0209999900461220001CN0010001N9-00111-00281103041ADDAY121061GF108991999001999999021001KA1999N-00111MD1310141+9999
0057104490999991927113012004+51483+010317FM-12+009099999V0200501N00671000151CN0005001N9+00001-00221102911ADDAY141061GF108991081051000251999999MD1810201+9999MW1471
0064104490999991927120106004+51483+010317FM-12+009099999V0209999900931220001CN0020001N9+00001-00061102671ADDAY121061GF108991999001999999021001KA1999N-00111MD1810061+9999
0037104490999991927120112004+51483+010317FM-12+009099999V0200701N00461002401CN0020001N9+00001-00061102591ADDAY121061GF108991081051002501999999
0056104490999991927120206004+51483+010317FM-12+009099999V0209999900261001501CN0020001N9-00111-00171102631ADDAY121061GF108991081051001501999999KA1999N-00221MW1451
0037104490999991927120212004+51483+010317FM-12+009099999V0200501N00261004501CN0040001N9-00111-00171102551ADDAY111061GF108991081051004501999999
0070104490999991927120306004+51483+010317FM-12+009099999V0209991C00001000151CN0020001N9-00721-00781102431ADDAY101061GF108991081051000251999999KA1999N-00781MD1810061+9999MW1461
0051104490999991927120312004+51483+010317FM-12+009099999V0202001N00101000151CN0040001N9-00281-00441102191ADDAY101061GF108991081051000251999999MD1810141+9999
0057104490999991927120406004+51483+010317FM-12+009099999V0209999900261002401CN0010001N9-00281-00331101771ADDAY141061GF108991081051002501999999MD1810141+9999MW1101
0064104490999991927120506004+51483+010317FM-12+009099999V0209999900261030001CN0010001N9-00221-00281101531ADDAY111061GF108991041051004501021001KA1999N-00391MD1310061+9999
0051104490999991927120512004+51483+010317FM-12+009099999V0201801N00261220001CN0040001N9+00221-00171999999ADDAY111061GF106991999001999999021001MD1110061+9999
0050104490999991927120606004+51483+010317FM-12+009099999V0209991C00001220001CN0020001N9-00221-00281101621ADDAY101061GF104991999001999999021001KA1999N-00221
0051104490999991927120612004+51483+010317FM-12+009099999V0200501N00671220001CN0200001N9+00501-00281101331ADDAY111061GF102991001001999999001021MD1810141+9999
0043104490999991927120706004+51483+010317FM-12+009099999V0209999900931001501CN0010001N9+00001-00061101271ADDAY141061GF108991081051001501999999MW1101
0037104490999991927120712004+51483+010317FM-12+009099999V0200701N00931002401CN0020001N9+00111-00111101271ADDAY111061GF108991061051002501031001
0050104490999991927120806004+51483+010317FM-12+009099999V0209999900671220001CN0020001N9-00111-00171101281ADDAY111061GF108991999001999999021001KA1999N-00221
0037104490999991927120812004+51483+010317FM-12+009099999V0200501N00261002401CN0010001N9-00111-00171101271ADDAY121061GF108991081051002501999999
0037104490999991927120906004+51483+010317FM-12+009099999V0209999900261004501CN0020001N9-00111-00171101321ADDAY121061GF108991081051004501999999
0043104490999991927120912004+51483+010317FM-12+009099999V0200201N00101002401CN0010001N9-00111-00171101591ADDAY121061GF108991081051002501999999MW1101
0057104490999991927121006004+51483+010317FM-12+009099999V0209999900101000601CN0005001N9-00221-00281101981ADDAY121061GF108991081051000751999999MD1310141+9999MW1451
0043104490999991927121012004+51483+010317FM-12+009099999V0203201N00101001501CN0010001N9-00111-00171102001ADDAY171061GF108991081051001501999999MW1701
0056104490999991927121106004+51483+010317FM-12+009099999V0209999900101000601CN0010001N9-00221-00281102101ADDAY141061GF108991081051000751999999KA1999N-00221MW1101
0075104490999991927121206004+51483+010317FM-12+009099999V0209999900671004501CN0020001N9-00281-00441101471ADDAA199060091AY101061GF108991081051004501999999KA1999N-00281MD1810141+9999
0051104490999991927121212004+51483+010317FM-12+009099999V0200501N00461004501CN0020001N9-00221-00391101141ADDAY121061GF108991081051004501999999MD1810261+9999
0050104490999991927121306004+51483+010317FM-12+009099999V0209999900261001501CN0020001N9-00501-00561100691ADDAY121061GF108991081051001501999999KA1999N-00501
0037104490999991927121312004+51483+010317FM-12+009099999V0202001N00461002401CN0020001N9-00391-00441100661ADDAY121061GF108991081051002501999999
0081104490999991927121406004+51483+010317FM-12+009099999V0209999900671002401CN0010001N9-00221-00281100711ADDAA199001091AY171061GF108991081061002501999999KA1999N-00281MD1310061+9999MW1711
0057104490999991927121412004+51483+010317FM-12+009099999V0202301N00261004501CN0020001N9-00221-00281101001ADDAY171061GF108991081061004501999999MD1310061+9999MW1711
0043104490999991927121506004+51483+010317FM-12+009099999V0209999901231220001CN0020001N9-00501-00561101191ADDAY121061GF108991999001999999021001MW1681
0043104490999991927121512004+51483+010317FM-12+009099999V0200201N00671002401CN0020001N9+00001-00061101241ADDAY171061GF108991081061002501999999MW1731
0075104490999991927121606004+51483+010317FM-12+009099999V0209999900461220001CN0040001N9-01001-01171102211ADDAA199000391AY111061GF106991999001999999021001KA1999N-01001MD1310201+9999
0051104490999991927121612004+51483+010317FM-12+009099999V0203201N00671220001CN0200001N9-00781-00941102481ADDAY111061GF104991021011008001001021MD1310061+9999
0064104490999991927121706004+51483+010317FM-12+009099999V0209999900101001501CN0010001N9-01281-01441102841ADDAY101061GF108991081051001501999999KA1999N-01391MD1310061+9999
0081104490999991927121806004+51483+010317FM-12+009099999V0209999900101001501CN0010001N9-01001-01891102961ADDAA199000391AY171061GF108991081051001501999999KA1999N-01111MD1810061+9999MW1711
0061104490999991927121906004+51483+010317FM-12+009099999V0209999900101030001CN0040001N9-00721-00781102871ADDAA199000391AY171061GF107991041051004501031001KA1999N-00781
0051104490999991927121912004+51483+010317FM-12+009099999V0201601N00261220001CN0040001N9-00781-00941102731ADDAY111061GF104991041011004501001001MD1810141+9999
0051104490999991927122006004+51483+010317FM-12+009099999V0209999900671220001CN0040001N9-01221-01391102521ADDAY101061GF102991021051004501001001MD1810061+9999
0051104490999991927122012004+51483+010317FM-12+009099999V0200501N00671000151CN0200001N9-01111-01281102461ADDAY101061GF108991081051000251999999MD1810141+9999
0051104490999991927122106004+51483+010317FM-12+009099999V0209999900261220001CN0200001N9-01721-01891102031ADDAY101061GF102991011051001501001021MD1810201+9999
0051104490999991927122112004+51483+010317FM-12+009099999V0201401N00671007801CN0100001N9-00611-00781101511ADDAY111061GF107991071011008001001001MD1810261+9999
0064104490999991927122206004+51483+010317FM-12+009099999V0209999900671001501CN0010001N9+00001-00061100261ADDAY121061GF108991081051001501999999KA1999N-00611MD1810201+9999
0057104490999991927122212004+51483+010317FM-12+009099999V0202701N00931002401CN0020001N9+00391+00171099631ADDAY121061GF108991081061002501999999MD1810261+9999MW1501
0075104490999991927122306004+51483+010317FM-12+009099999V0209999901901004501CN0100001N9+00781+00561098441ADDAA199004091AY161061GF108991081051004501999999KA1999N+00391MD1810201+9999
0051104490999991927122406004+51483+010317FM-12+009099999V0209999900671007801CN0020001N9+00501+00441099041ADDAY161061GF108991081051008001999999MD1310201+9999
0070104490999991927122506004+51483+010317FM-12+009099999V0209999900101000151CN0002001N9+00001-00061099971ADDAY141061GF108991081051000251999999KA1999N-00111MD1310141+9999MW1451
0064104490999991927122606004+51483+010317FM-12+009099999V0209999900261002401CN0010001N9+00391+00171099431ADDAY121061GF106991061051002501021001KA1999N+00221MD1310141+9999
0075104490999991927122706004+51483+010317FM-12+009099999V0209999901231007801CN0020001N9-00111-00281101431ADDAA199000391AY161061GF108991081051008001999999KA1999N-00111MD1310261+9999
0051104490999991927122712004+51483+010317FM-12+009099999V0200501N01541007801CN0040001N9-00111-00281102101ADDAY121061GF106991061051008001001001MD1310341+9999
0083104490999991927122806004+51483+010317FM-12+009099999V0209999901541030001CN0100001N9-00781-00941103461ADDAY101061GF106991041051008001031001KA1999N+99999MD1310201+9999EQDQ01 -00502ATMN  
0051104490999991927122812004+51483+010317FM-12+009099999V0200501N01231220001CN0100001N9-00391-00561103431ADDAY111061GF104991041011008001001001MD1810061+9999
0050104490999991927122906004+51483+010317FM-12+009099999V0209999902261220001CN0500001N9-00721-00781103281ADDAY101061GF100991001001999999001001KA1999N-00781
0051104490999991927122912004+51483+010317FM-12+009099999V0200701N01901220001CN0500001N9-00781-00831103131ADDAY101061GF102991001001999999001091MD1810141+9999
0051104490999991927123006004+51483+010317FM-12+009099999V0209999900931220001CN0100001N9-00721-01611102871ADDAY101061GF104991999001999999021001MD1410001+9999
0051104490999991927123012004+51483+010317FM-12+009099999V0200701N00931220001CN0500001N9-00391-01561102551ADDAY101061GF101991001001999999001021MD1810141+9999
0061104490999991927123106004+51483+010317FM-12+009099999V0209999900671220001CN0040001N9-00611-00781102671ADDAA199000691AY171061GF108991999001999999021001KA1999N-00781
0037104490999991927123112004+51483+010317FM-12+009099999V0200501N00671220001CN0020001N9-00391-00561102751ADDAY121061GF108991999001999999021001
