0075104490999991929050106004+51483+010317FM-12+009099999V0209999900261004501CN0100001N9+01001+00781100881ADDAA199002091AY181061GF108991081051004501999999KA1999N+00111MD1310141+9999
0064104490999991929050206004+51483+010317FM-12+009099999V0209999900101220001CN0040001N9+00501+00111101241ADDAY111061GF102991999001022501031021KA1999N+00221MD1310061+9999
0075104490999991929051006004+51483+010317FM-12+009099999V0209999900101007801CN0100001N9+00891+00441102161ADDAA199000391AY141061GF108991081051008001999999KA1999N+00721MD1310141+9999
0070104490999991929051706004+51483+010317FM-12+009099999V0209999900461000151CN0005001N9+00611+00561101991ADDAY141061GF108991081051000251999999KA1999N+00501MD1310141+9999MW1471
0081104490999991929051806004+51483+010317FM-12+009099999V0209999900461000151CN0000501N9+00781+00721101641ADDAA199006091AY161061GF108991081051000251999999KA1999N+00721MD1610061+9999MW1611
0064104490999991929053106004+51483+010317FM-12+009099999V0209999900101220001CN0100001N9+01221+00781101751ADDAY101061GF100991001001999999001001KA1999N+00611MD1810141+9999
0064104490999991929060106004+51483+010317FM-12+009099999V02099999006719999999N0100001N9+00891+00441102061ADDAY111061GF107991999051004501001001KA1999N+00721MD1310201+9999
0064104490999991929060206004+51483+010317FM-12+009099999V0209999900461030001CN0100001N9+00891+00441101901ADDAY111061GF107991041051008001021001KA1999N+00611MD1510001+9999
0081104490999991929060306004+51483+010317FM-12+009099999V0209999901231002401CN0040001N9+01391+01331100861ADDAA199009091AY161061GF108991081061002501999999KA1999N+01221MD1990061+9999MW1611
0061104490999991929060406004+51483+010317FM-12+009099999V02099999015419999999N0040001N9+01111+00891100241ADDAA199004091AY181061GF107991999091002501001001KA1999N+01111
0075104490999991929060506004+51483+010317FM-12+009099999V0209999900461004501CN0200001N9+00721+00331100711ADDAA199002091AY181061GF106991061011004501001001KA1999N+00501MD1110141+9999
0059104490999991929060606004+51483+010317FM-12+009099999V0209999900101000151CN9999999N9+00891+99999099951ADDAA199002091GF108991081051000251999999KA1999N+00721MW1451
0075104490999991929060706004+51483+010317FM-12+009099999V02099999012319999999N0200001N9+01221+00781100161ADDAA199002091AY181061GF106991999051004501001001KA1999N+01001MD1310261+9999
0064104490999991929060806004+51483+010317FM-12+009099999V0209999900101220001CN0100001N9+01391+00721101501ADDAY101061GF104991041051012501001021KA1999N+00781MD1310201+9999
0081104490999991929060906004+51483+010317FM-12+009099999V0209999901231004501CN0040001N9+01721+01501101061ADDAA199000691AY191061GF108991081061004501999999KA1999N+01501MD1310061+9999MW1161
0064104490999991929061006004+51483+010317FM-12+009099999V0209999900101012301CN0040001N9+01221+01001102161ADDAY111061GF108991999051012501001001KA1999N+00891MD1310141+9999
0064104490999991929061106004+51483+010317FM-12+009099999V0209999900101000151CN0040001N9+01221+00781102901ADDAY141061GF108991081051000251999999KA1999N+00781MD1310261+9999
0051104490999991929061206004+51483+010317FM-12+009099999V0209999900461220001CN0100001N9+01611+00721102381ADDAY101061GF104991001001999999001021MD1810141+9999
0050104490999991929061306004+51483+010317FM-12+009099999V0209999900671007801CN0100001N9+02001+01331101541ADDAY111061GF107991071051008001001001KA1999N+01391
0050104490999991929061406004+51483+010317FM-12+009099999V0209999900461220001CN0200001N9+01891+01221102001ADDAY111061GF104991041011008001001001KA1999N+01281
0075104490999991929061506004+51483+010317FM-12+009099999V0209999900671075001CN0200001N9+01501+01061101901ADDAA199002091AY191061GF106991041051012501001021KA1999N+01221MD1310141+9999
0064104490999991929061606004+51483+010317FM-12+009099999V0209999900261220001CN0200001N9+01721+00831102191ADDAY101061GF100991001001999999001001KA1999N+01001MD1110061+9999
0051104490999991929061706004+51483+010317FM-12+009099999V0209999900261007801CN0100001N9+01501+01061102331ADDAY181061GF108991081051008001999999MD1310141+9999
0064104490999991929061806004+51483+010317FM-12+009099999V0209999900101220001CN0100001N9+01501+01061102701ADDAY111061GF102991001001999999001021KA1999N+00891MD1310061+9999
0050104490999991929061906004+51483+010317FM-12+009099999V0209999900101220001CN0040001N9+02001+01331102471ADDAY141061GF101991001001999999001021KA1999N+01391
0050104490999991929062006004+51483+010317FM-12+009099999V0209999900101220001CN0100001N9+02281+01331102031ADDAY101061GF102991001001999999001021KA1999N+01391
0075104490999991929062106004+51483+010317FM-12+009099999V0209999900931004501CN0100001N9+01221+01171102291ADDAA199001091AY181061GF107991061051004501001021KA1999N+01111MD1310141+9999
0083104490999991929062206004+51483+010317FM-12+009099999V0209999900261030001CN0500001N9+01111+00671102401ADDAY111061GF106991041051012501031001KA1999N+99999MD1810141+9999EQDQ01 +03502ATMN  
0064104490999991929062306004+51483+010317FM-12+009099999V02099999012319999999N0200001N9+01281+01061100971ADDAY121061GF107991999061004501001001KA1999N+00781MD1810341+9999
0061104490999991929062406004+51483+010317FM-12+009099999V02099999002619999999N0200001N9+00891+00441100831ADDAA199001091AY121061GF108991999061008001001001KA1999N+00721
0081104490999991929062506004+51483+010317FM-12+009099999V0209999900671002401CN0040001N9+00781+00721100261ADDAA199003091AY181061GF108991081061002501999999KA1999N+00611MD1610141+9999MW1631
0075104490999991929062606004+51483+010317FM-12+009099999V0209999900461030001CN0100001N9+01221+01001101201ADDAA199000591AY181061GF106991041011008001031001KA1999N+01001MD1110141+9999
0081104490999991929062706004+51483+010317FM-12+009099999V0209999900461220001CN0100001N9+00891+00831101441ADDAA199000591AY181061GF104991999051002501999999KA1999N+00781MD1410001+9999MW1451
0070104490999991929062806004+51483+010317FM-12+009099999V0209999900101000151CN0002001N9+00781+00721102101ADDAY141061GF108991081051000251999999KA1999N+00611MD1310141+9999MW1451
0050104490999991929062906004+51483+010317FM-12+009099999V0209991C00001220001CN0200001N9+01501+00611102041ADDAY101061GF100991001001999999001001KA1999N+00721
0064104490999991929063006004+51483+010317FM-12+009099999V0209991C00001220001CN0100001N9+01281+00831101231ADDAY101061GF104991001001999999021021KA1999N+00781MD1810061+9999
0061104490999991929070106004+51483+010317FM-12+009099999V0209991C00001220001CN0100001N9+01501+01281100641ADDAA199002091AY161061GF104991999051004501999999KA1999N+01281
0075104490999991929070206004+51483+010317FM-12+009099999V0209999900671220001CN0040001N9+01001+00941101311ADDAA199001091AY191061GF104991999051002501999999KA1999N+01001MD1310201+9999
0081104490999991929070306004+51483+010317FM-12+009099999V0209999900261002401CN0040001N9+01391+01331100831ADDAA199001091AY181061GF107991071051002501001001KA1999N+01221MD1710061+9999MW1211
0075104490999991929070406004+51483+010317FM-12+009099999V0209999900461004501CN0040001N9+01781+01561101041ADDAA199005091AY181061GF107991061051004501001021KA1999N+01281MD1990141+9999
0075104490999991929070506004+51483+010317FM-12+009099999V0209999900931220001CN0200001N9+01721+00831101931ADDAA199000391AY181061GF102991011011017501001021KA1999N+01281MD1310261+9999
0081104490999991929070606004+51483+010317FM-12+009099999V02099999006719999999N0100001N9+01501+01061101401ADDAA199002091AY191061GF108991999061004501001001KA1999N+01111MD1610141+9999MW1801
0061104490999991929070706004+51483+010317FM-12+009099999V0209999900671002401CN0040001N9+01111+00671101041ADDAA199002091AY181061GF108991081051002501999999KA1999N+01001
0064104490999991929070806004+51483+010317FM-12+009099999V0209999901231004501CN0100001N9+01001+00611097531ADDAY111061GF107991071051004501001001KA1999N+00111MD1310141+9999
0075104490999991929070906004+51483+010317FM-12+009099999V0209999900931004501CN0100001N9+00891+00441102241ADDAA199001091AY181061GF108991081051004501999999KA1999N+00721MD1310141+9999
0070104490999991929071006004+51483+010317FM-12+009099999V0209999900101220001CN0040001N9+01391+00721102701ADDAY141061GF104991001001999999021021KA1999N+00721MD1310061+9999MW1451
0064104490999991929071106004+51483+010317FM-12+009099999V0209991C00001030001CN0100001N9+01781+01111102921ADDAY111061GF107991041051017501031001KA1999N+01111MD1310061+9999
0064104490999991929071206004+51483+010317FM-12+009099999V0209991C00001220001CN0040001N9+02001+01331102421ADDAY141061GF104991041051017501001021KA1999N+01391MD1810061+9999
0070104490999991929071306004+51483+010317FM-12+009099999V0209991C00001000151CN0000501N9+01611+01561102371ADDAY141061GF108991081051000251999999KA1999N+01391MD1310141+9999MW1451
0064104490999991929071406004+51483+010317FM-12+009099999V0209999900461220001CN0500001N9+01281+00611102861ADDAY101061GF102991011011022501001021KA1999N+00891MD1110061+9999
0050104490999991929071506004+51483+010317FM-12+009099999V0209991C00001220001CN0200001N9+01391+00941103471ADDAY101061GF100991001001999999001001KA1999N+01001
0056104490999991929071606004+51483+010317FM-12+009099999V0209991C00001000151CN0010001N9+01221+01171102461ADDAY141061GF108991081051000251999999KA1999N+00891MW1101
0050104490999991929071706004+51483+010317FM-12+009099999V0209991C00001220001CN0100001N9+01891+01441101991ADDAY101061GF100991001001999999001001KA1999N+01221
0064104490999991929071806004+51483+010317FM-12+009099999V0209999900461075001CN0100001N9+02111+01441102001ADDAY111061GF106991041051008001001021KA1999N+01611MD1310141+9999
0064104490999991929071906004+51483+010317FM-12+009099999V0209991C00001220001CN0040001N9+02111+01671102121ADDAY111061GF104991011051017501001021KA1999N+00001MD1310061+9999
0050104490999991929072006004+51483+010317FM-12+009099999V0209999900101220001CN0100001N9+02111+01671102121ADDAY101061GF102991001001999999001021KA1999N+01611
0061104490999991929072106004+51483+010317FM-12+009099999V0209999900261000151CN0040001N9+02281+01831101811ADDAA199001091AY191061GF108991081051000251999999KA1999N+01721
0075104490999991929072206004+51483+010317FM-12+009099999V0209999900101220001CN0100001N9+02111+01671101901ADDAA199003091AY191061GF102991021011012501001021KA1999N+01501MD1310061+9999
0061104490999991929072306004+51483+010317FM-12+009099999V0209999900671220001CN0100001N9+02111+01671102021ADDAA199002091AY181061GF104991041051012501031001KA1999N+01781
0064104490999991929072406004+51483+010317FM-12+009099999V0209999900261220001CN0040001N9+02111+01671101511ADDAY111061GF104991999001017501021021KA1999N+01501MD1810141+9999
0064104490999991929072506004+51483+010317FM-12+009099999V0209999900461030001CN0040001N9+01391+01171101411ADDAY111061GF108991041051004501021001KA1999N+01281MD1310061+9999
0064104490999991929072606004+51483+010317FM-12+009099999V0209999900261030001CN0100001N9+01111+00891101571ADDAY111061GF108991041051004501021001KA1999N+00781MD1310061+9999
0064104490999991929072706004+51483+010317FM-12+009099999V0209999900461004501CN0200001N9+01111+00891102101ADDAY111061GF108991081051004501999999KA1999N+00891MD1310141+9999
0050104490999991929072806004+51483+010317FM-12+009099999V0209999900101075001CN0100001N9+01111+00891102161ADDAY111061GF106991041051017501001021KA1999N+00781
0064104490999991929072906004+51483+010317FM-12+009099999V02099999004619999999N0040001N9+01391+00941101141ADDAY111061GF108991999001004501021001KA1999N+00891MD1810201+9999
0075104490999991929073006004+51483+010317FM-12+009099999V0209999901231004501CN0100001N9+01391+01171100741ADDAA199009091AY161061GF108991081051004501999999KA1999N+01281MD1310141+9999
0050104490999991929073106004+51483+010317FM-12+009099999V0209999901231030001CN0100001N9+01501+01061100901ADDAY111061GF107991041051012501031001KA1999N+01281
0061104490999991929080106004+51483+010317FM-12+009099999V02099999009319999999N0100001N9+01501+01441099861ADDAA199001091AY181061GF108991999051004501001001KA1999N+01391
0075104490999991929080206004+51483+010317FM-12+009099999V0209999901231004501CN0200001N9+01391+00941100751ADDAA199000391AY181061GF108991081051004501999999KA1999N+01221MD1310261+9999
0064104490999991929080306004+51483+010317FM-12+009099999V0209999900101220001CN0200001N9+01221+00781102001ADDAY101061GF101991011011017501001001KA1999N+00721MD1310141+9999
0050104490999991929080406004+51483+010317FM-12+009099999V0209999900101220001CN0100001N9+01611+00941101541ADDAY111061GF102991001001999999001021KA1999N+01001
0070104490999991929080506004+51483+010317FM-12+009099999V0209999900461015001CN0100001N9+01781+01111100791ADDAY111061GF106991999061017501999999KA1999N+01501MD1110061+9999MW1461
0075104490999991929080606004+51483+010317FM-12+009099999V0209991C00001220001CN0100001N9+01391+01171101871ADDAA199000391AY181061GF104991999051004501999999KA1999N+01001MD1310141+9999
0050104490999991929080706004+51483+010317FM-12+009099999V0209999900261220001CN0200001N9+01891+01221101261ADDAY101061GF102991001001999999001021KA1999N+01391
0037104490999991929080806004+51483+010317FM-12+009099999V0209999900101015001CN0040001N9+01611+01331101061ADDAY101061GF108991081051017501999999
0051104490999991929080906004+51483+010317FM-12+009099999V0209999900101000601CN0020001N9+01281+01221101591ADDAY161061GF108991081051000751999999MD1310141+9999
0070104490999991929081006004+51483+010317FM-12+009099999V0209991C00001220001CN0010001N9+01391+01331101731ADDAY141061GF101991999001000251001001KA1999N+01281MD1210061+9999MW1101
0064104490999991929081106004+51483+010317FM-12+009099999V0209991C00001220001CN0020001N9+01611+01331102121ADDAY141061GF101991001001999999001021KA1999N+01111MD1010001+9999
0064104490999991929081206004+51483+010317FM-12+009099999V0209991C00001220001CN0040001N9+01721+01281101761ADDAY141061GF101991011011012501001001KA1999N+01111MD1310061+9999
0064104490999991929081306004+51483+010317FM-12+009099999V0209999900101220001CN0040001N9+01281+01061102461ADDAY141061GF102991021011012501001001KA1999N+01111MD1310201+9999
0050104490999991929081406004+51483+010317FM-12+009099999V0209999900261220001CN0040001N9+01721+01061102061ADDAY141061GF100991001001999999001001KA1999N+01111
0050104490999991929081506004+51483+010317FM-12+009099999V0209991C00001220001CN0040001N9+01501+01281101901ADDAY141061GF104991999001012501021001KA1999N+01281
0050104490999991929081606004+51483+010317FM-12+009099999V0209991C00001220001CN0100001N9+01721+01061101641ADDAY101061GF102991001001999999001021KA1999N+01111
0064104490999991929081706004+51483+010317FM-12+009099999V0209999900931007801CN0100001N9+02221+01281101201ADDAY111061GF107991061051008001021001KA1999N+01111MD1510061+9999
0037104490999991929081806004+51483+010317FM-12+009099999V0209991C00001007801CN0100001N9+01721+01671101531ADDAY181061GF108991081051008001999999
0064104490999991929081906004+51483+010317FM-12+009099999V0209999900101075001CN0100001N9+01221+01001102121ADDAY141061GF106991041051012501001021KA1999N+00891MD1310141+9999
0064104490999991929082006004+51483+010317FM-12+009099999V0209991C00001075001CN0040001N9+01001+00781102301ADDAY111061GF106991041051012501001021KA1999N+00721MD1310061+9999
0081104490999991929082106004+51483+010317FM-12+009099999V0209991C00001030001CN0100001N9+01221+01001102231ADDAA199000691AY161061GF108991041051008001021001KA1999N+01001MD1310061+9999MW1601
0050104490999991929082206004+51483+010317FM-12+009099999V0209999900261220001CN0100001N9+01391+00721102101ADDAY101061GF101991001001999999001021KA1999N+00891
0081104490999991929082306004+51483+010317FM-12+009099999V02099999002619999999N0040001N9+01391+01331101621ADDAA199001091AY181061GF108991999061002501001001KA1999N+01111MD1310141+9999MW1471
0061104490999991929082406004+51483+010317FM-12+009099999V0209999900461030001CN0040001N9+01721+01671102031ADDAA199000691AY161061GF108991041051004501021001KA1999N+01501
0064104490999991929082506004+51483+010317FM-12+009099999V0209999900101030001CN0100001N9+01611+01331102061ADDAY141061GF108991041051008001021001KA1999N+01501MD1310141+9999
0064104490999991929082606004+51483+010317FM-12+009099999V0209991C00001007801CN0100001N9+01221+01001102431ADDAY111061GF108991081051008001999999KA1999N+00891MD1310141+9999
0050104490999991929082706004+51483+010317FM-12+009099999V0209999900261220001CN0100001N9+01611+00721102121ADDAY101061GF100991001001999999001001KA1999N+00891
0050104490999991929082806004+51483+010317FM-12+009099999V0209999900101220001CN0100001N9+01891+01221101391ADDAY101061GF102991001001999999001021KA1999N+01501
0064104490999991929082906004+51483+010317FM-12+009099999V0209991C00001220001CN0100001N9+01891+01611102001ADDAY191061GF104991001001999999021021KA1999N+01501MD1310141+9999
0064104490999991929083006004+51483+010317FM-12+009099999V0209991C00001220001CN0040001N9+01721+01281102041ADDAY111061GF102991021011012501001021KA1999N+01281MD1310061+9999
0064104490999991929090106004+51483+010317FM-12+009099999V0209991C00001220001CN0200001N9+02001+01061101571ADDAY101061GF100991001001999999001001KA1999N+01611MD1310061+9999
0064104490999991929090206004+51483+010317FM-12+009099999V0209991C00001075001CN0040001N9+02001+01721101981ADDAY111061GF106991041051008001001021KA1999N+01611MD1310141+9999
0064104490999991929090306004+51483+010317FM-12+009099999V0209991C00001220001CN0040001N9+01501+01281102241ADDAY101061GF101991001001999999001021KA1999N+01221MD1310061+9999
0064104490999991929090406004+51483+010317FM-12+009099999V0209991C00001220001CN0100001N9+01721+01281101671ADDAY101061GF100991001001999999001001KA1999N+01391MD1990061+9999
0070104490999991929090506004+51483+010317FM-12+009099999V0209991C00001004501CN0020001N9+02221+01561101441ADDAY191061GF107991071051004501001001KA1999N+01611MD1210061+9999MW1971
0067104490999991929090606004+51483+010317FM-12+009099999V0209999900261220001CN0040001N9+01781+01331101641ADDAA199001091AY181061GF104991001001999999021021KA1999N+01611MW1441
0064104490999991929090706004+51483+010317FM-12+009099999V0209999900671004501CN0200001N9+01111+00671102481ADDAY111061GF108991081051004501999999KA1999N+01111MD1310201+9999
0056104490999991929090806004+51483+010317FM-12+009099999V0209999900461030001CN0040001N9+01111+00891102521ADDAY111061GF108991041051004501021001KA1999N+00891MW1521
0050104490999991929090906004+51483+010317FM-12+009099999V0209999900261220001CN0040001N9+01611+01331101721ADDAY101061GF100991001001999999001001KA1999N+00891
0064104490999991929091006004+51483+010317FM-12+009099999V0209999900671007801CN0040001N9+01391+01171101861ADDAY111061GF107991061051008001001021KA1999N+00891MD1310201+9999
0064104490999991929091106004+51483+010317FM-12+009099999V0209991C00001220001CN0100001N9+00781+00561102711ADDAY141061GF101991001001999999001021KA1999N+00501MD1310201+9999
0050104490999991929091206004+51483+010317FM-12+009099999V0209991C00001220001CN0040001N9+01221+00611102351ADDAY141061GF100991001001999999001001KA1999N+00891
0050104490999991929091306004+51483+010317FM-12+009099999V0209991C00001220001CN0040001N9+01221+00611102291ADDAY141061GF100991001001999999001001KA1999N+00891
0064104490999991929091406004+51483+010317FM-12+009099999V0209991C00001030001CN0200001N9+01611+01331101641ADDAY111061GF106991041051017501031001KA1999N+01281MD1010061+9999
0070104490999991929091506004+51483+010317FM-12+009099999V0209991C00001000151CN0005001N9+01611+01561102121ADDAY101061GF108991081051000251999999KA1999N+01501MD1310141+9999MW1451
0081104490999991929091606004+51483+010317FM-12+009099999V0209991C00001000151CN0000001N9+01281+01221102351ADDAA199000391AY141061GF108991081051000251999999KA1999N+01111MD1310061+9999MW1451
0050104490999991929091706004+51483+010317FM-12+009099999V0209991C00001220001CN0100001N9+01281+00831102191ADDAY141061GF104991021051017501001021KA1999N+01001
0069104490999991929091806004+51483+010317FM-12+009099999V0209999900101220001CN0100001N9+01391+00721101571ADDAY111061GF104991021051017501001021KA1999N+99999EQDQ01 +01892ATMN  
0081104490999991929091906004+51483+010317FM-12+009099999V0209999900261000151CN0020001N9+01611+01561101101ADDAA199000391AY181061GF108991081061000251999999KA1999N+00891MD1990141+9999MW1631
0070104490999991929092006004+51483+010317FM-12+009099999V0209999901231002401CN0020001N9+01611+01331100711ADDAY141061GF108991081051002501999999KA1999N+01391MD1810141+9999MW1451
0064104490999991929092106004+51483+010317FM-12+009099999V02099999006719999999N0200001N9+00781+00561101071ADDAY111061GF106991999051004501001001KA1999N+00721MD1310141+9999
0075104490999991929092206004+51483+010317FM-12+009099999V0209999901231004501CN0100001N9+01001+00941101231ADDAA199006091AY181061GF106991061051004501001001KA1999N+00891MD1310261+9999
0075104490999991929092306004+51483+010317FM-12+009099999V02099999004619999999N0100001N9+01001+00941102381ADDAA199002091AY181061GF108991999051004501001001KA1999N+00781MD1310141+9999
0075104490999991929092406004+51483+010317FM-12+009099999V0209991C00001220001CN0040001N9+01001+00941102861ADDAA199000591AY161061GF104991041051008001031001KA1999N+00781MD1310141+9999
0064104490999991929092506004+51483+010317FM-12+009099999V0209991C00001030001CN0100001N9+00611+00561103601ADDAY101061GF106991041051008001021001KA1999N+00281MD1310201+9999
0056104490999991929092606004+51483+010317FM-12+009099999V0209991C00001220001CN0020001N9+00721+00671103681ADDAY101061GF100991001001999999001001KA1999N+00391MW1441
0070104490999991929092706004+51483+010317FM-12+009099999V0209991C00001220001CN0020001N9+00781+00721102991ADDAY141061GF102991001001999999021021KA1999N+00611MD1810061+9999MW1441
0050104490999991929092806004+51483+010317FM-12+009099999V0209991C00001220001CN0500001N9+01221+01001102601ADDAY101061GF102991001001999999001021KA1999N+00721
0050104490999991929092906004+51483+010317FM-12+009099999V0209999900671220001CN0100001N9+01281+00611102121ADDAY101061GF106991001001999999021021KA1999N+00891
0050104490999991929093006004+51483+010317FM-12+009099999V0209999900261075001CN0200001N9+01501+01061101941ADDAY111061GF106991021051017501001021KA1999N+01281
0057104490999991929100106004+51483+010317FM-12+009099999V02099999006719999999N0100001N9+01501+01281101201ADDAY101061GF108991999061002501001001MD1810061+9999MW1601
0043104490999991929100112004+51483+010317FM-12+009099999V0202301N00671004501CN0100001N9+01611+01331101141ADDAY181061GF108991999061004501001001MW1801
0075104490999991929100206004+51483+010317FM-12+009099999V02099999009319999999N0100001N9+01221+01171100801ADDAA199000591AY161061GF107991999051008001001001KA1999N+00781MD1710201+9999
0051104490999991929100212004+51483+010317FM-12+009099999V0202301N01541007801CN0100001N9+01781+01561100481ADDAY181061GF106991061051008001001001MD1710201+9999
0043104490999991929100306004+51483+010317FM-12+009099999V0209999900261000151CN0000501N9+01111+01061100641ADDAY181061GF108991081051000251999999MW1471
0051104490999991929100312004+51483+010317FM-12+009099999V0202701N01541004501CN0100001N9+01501+01281100261ADDAY181061GF108991081051004501999999MD1710141+9999
0061104490999991929100406004+51483+010317FM-12+009099999V0209999900671030001CN0200001N9+01391+01331101031ADDAA199012091AY181061GF107991041051008001021001KA1999N+01111
0037104490999991929100412004+51483+010317FM-12+009099999V0202501N012319999999N0200001N9+02001+01941100831ADDAY111061GF107991999051004501001001
0061104490999991929100506004+51483+010317FM-12+009099999V0209999900671004501CN0100001N9+01611+01171100751ADDAA199000691AY181061GF108991081051004501999999KA1999N+01281
0057104490999991929100512004+51483+010317FM-12+009099999V0202901N00261000601CN0040001N9+01281+01221101001ADDAY141061GF108991081051000751999999MD1110141+9999MW1451
0070104490999991929100606004+51483+010317FM-12+009099999V0209999900261000601CN0020001N9+01111+01061100471ADDAY141061GF108991081051000751999999KA1999N+00891MD1810261+9999MW1471
0075104490999991929100706004+51483+010317FM-12+009099999V0209999900461220001CN0200001N9+00891+00671101241ADDAA199000691AY181061GF104991021011008001001021KA1999N+00781MD1210141+9999
0051104490999991929100712004+51483+010317FM-12+009099999V0202301N00461007801CN0200001N9+01391+00721101371ADDAY111061GF106991061011008001001001MD1110061+9999
0064104490999991929100806004+51483+010317FM-12+009099999V0209999900671004501CN0200001N9+01111+00671101151ADDAY101061GF108991081051004501999999KA1999N+00501MD1610261+9999
0051104490999991929100912004+51483+010317FM-12+009099999V0202501N01231030001CN0200001N9+00891+00441100601ADDAY111061GF107991041051004501021001MD1310201+9999
0064104490999991929101006004+51483+010317FM-12+009099999V0209999901231004501CN0100001N9+00721+00501101721ADDAY111061GF108991081051004501999999KA1999N+00611MD1310141+9999
0057104490999991929101012004+51483+010317FM-12+009099999V0203201N00671002401CN0040001N9+00781+00561102031ADDAY181061GF108991081061002501999999MD1110061+9999MW1801
0061104490999991929101106004+51483+010317FM-12+009099999V0209999900671004501CN0100001N9+00891+00831102021ADDAA199004091AY181061GF108991081051004501999999KA1999N+00781
0075104490999991929101206004+51483+010317FM-12+009099999V0209999900671075001CN0040001N9+00781+00721102101ADDAA199002091AY181061GF106991041051004501001021KA1999N+00721MD1310061+9999
0056104490999991929101306004+51483+010317FM-12+009099999V0209999900261030001CN0040001N9+01001+00781102671ADDAY111061GF106991041051004501021001KA1999N+00721MW1471
0037104490999991929101312004+51483+010317FM-12+009099999V0202901N00461004501CN0020001N9+01281+00831102781ADDAY121061GF107991071051004501001001
0056104490999991929101406004+51483+010317FM-12+009099999V0209999900101024001CN0040001N9+01111+00891102951ADDAY141061GF108991081051999999999999KA1999N+01001MW1451
0057104490999991929101412004+51483+010317FM-12+009099999V0202301N00101004501CN0020001N9+01391+00941102821ADDAY121061GF108991081051004501999999MD1810061+9999MW1431
0056104490999991929101506004+51483+010317FM-12+009099999V0209999900261002401CN0020001N9+01111+01061102931ADDAY141061GF108991081051002501999999KA1999N+01001MW1451
0057104490999991929101512004+51483+010317FM-12+009099999V0202301N00261002401CN0040001N9+01391+00941102861ADDAY141061GF108991081051002501999999MD1810061+9999MW1991
0070104490999991929101606004+51483+010317FM-12+009099999V0209991C00001000151CN0000501N9+00781+00721102351ADDAY141061GF108991081051000251999999KA1999N+00781MD1810061+9999MW1451
0056104490999991929101706004+51483+010317FM-12+009099999V0209999900461004501CN0040001N9+01001+00941101701ADDAY141061GF108991081051004501999999KA1999N+00891MW1451
0051104490999991929101712004+51483+010317FM-12+009099999V0202701N00671004501CN0100001N9+01281+00831101591ADDAY141061GF108991081051004501999999MD1010061+9999
0064104490999991929101806004+51483+010317FM-12+009099999V0209999900461004501CN0500001N9+01001+00781101411ADDAY111061GF107991071051004501001001KA1999N+00781MD1610061+9999
0051104490999991929101812004+51483+010317FM-12+009099999V0202501N00461030001CN0200001N9+01221+00781101101ADDAY111061GF108991041051008001021001MD1810141+9999
0067104490999991929101906004+51483+010317FM-12+009099999V02099999001019999999N0040001N9+00891+00831100501ADDAA199007091AY161061GF108991999051001501001001KA1999N+00781MW1451
0057104490999991929101912004+51483+010317FM-12+009099999V0202501N001019999999N0040001N9+01001+00781100371ADDAY181061GF108991999061004501001001MD1810141+9999MW1601
0067104490999991929102006004+51483+010317FM-12+009099999V0209999900101000601CN0000501N9+00611+00561100421ADDAA199002091AY141061GF108991081051000751999999KA1999N+00611MW1451
0070104490999991929102106004+51483+010317FM-12+009099999V0209999900261000151CN0010001N9+00281+00221101041ADDAY101061GF108991081051000251999999KA1999N+00221MD1310141+9999MW1211
0056104490999991929102206004+51483+010317FM-12+009099999V0209991C00001000151CN0000001N9+00221+00171101241ADDAY141061GF108991081051000251999999KA1999N+00111MW1451
0064104490999991929102306004+51483+010317FM-12+009099999V0209991C00001002401CN0020001N9+00721+00501100871ADDAY141061GF108991081051002501999999KA1999N+00501MD1990061+9999
0064104490999991929102406004+51483+010317FM-12+009099999V0209999900461075001CN0040001N9+00721+00501100771ADDAY101061GF106991041051008001001021KA1999N+00611MD1310061+9999
0064104490999991929102506004+51483+010317FM-12+009099999V0209999900931030001CN0100001N9+01001+00781099831ADDAY111061GF107991041051008001021001KA1999N+00781MD1610061+9999
0057104490999991929102512004+51483+010317FM-12+009099999V0202301N006719999999N0040001N9+01111+00891099991ADDAY181061GF108991999061004501001001MD1110061+9999MW1601
0075104490999991929102606004+51483+010317FM-12+009099999V0209999900261030001CN0040001N9+00501+00441099791ADDAA199000391AY181061GF108991041051004501021001KA1999N+00501MD1610061+9999
0064104490999991929102706004+51483+010317FM-12+009099999V0209999900261030001CN0040001N9+00501+00441100521ADDAY111061GF108991041051004501021001KA1999N+00111MD1310141+9999
0051104490999991929102712004+51483+010317FM-12+009099999V0202701N00461004501CN0100001N9+00721+00111100431ADDAY111061GF106991061011004501001001MD1990061+9999
0075104490999991929102806004+51483+010317FM-12+009099999V0209999900671220001CN0100001N9+00391+00171101181ADDAA199001091AY181061GF104991041051008001031001KA1999N+00221MD1310201+9999
0037104490999991929102812004+51483+010317FM-12+009099999V0202701N00461075001CN0100001N9+00721+00111101301ADDAY111061GF106991041051008001001021
0075104490999991929102906004+51483+010317FM-12+009099999V0209999901231004501CN0100001N9+00501+00281099981ADDAA199001091AY181061GF108991081051004501999999KA1999N+00391MD1810261+9999
0051104490999991929102912004+51483+010317FM-12+009099999V0202301N012319999999N0100001N9+00891+00671099331ADDAY181061GF107991999051004501001001MD1810261+9999
0075104490999991929103006004+51483+010317FM-12+009099999V0209999900671075001CN0200001N9+00721+00501100021ADDAA199000691AY181061GF106991041051004501001021KA1999N+00721MD1310141+9999
0051104490999991929103012004+51483+010317FM-12+009099999V0202301N00671004501CN0200001N9+01001+00391100191ADDAY111061GF107991071051004501001001MD1310141+9999
0081104490999991929103106004+51483+010317FM-12+009099999V0209999900101000151CN0002001N9+00611+00561101721ADDAA199002091AY181061GF108991081051000251999999KA1999N+00501MD1310261+9999MW1901
0064104490999991929110106004+51483+010317FM-12+009099999V0209991C000019999999N0200001N9+00281+00221102661ADDAY141061GF107991999051001501001001KA1999N+00281MD1310201+9999
0037104490999991929110112004+51483+010317FM-12+009099999V0200201N00461004501CN0100001N9+00721+00501102611ADDAY121061GF108991081051004501999999
0061104490999991929110206004+51483+010317FM-12+009099999V0209999900671030001CN0100001N9+00501+00441102611ADDAA199000691AY181061GF108991041051004501021001KA1999N+00391
0037104490999991929110212004+51483+010317FM-12+009099999V0200201N00461030001CN0200001N9+00611-00171102711ADDAY111061GF106991041051004501031001
0051104490999991929110312004+51483+010317FM-12+009099999V0202701N006719999999N0100001N9+00781+00391102001ADDAY121061GF106991999051004501001001MD1610061+9999
0075104490999991929110406004+51483+010317FM-12+009099999V0209999900261030001CN0100001N9+00391+00331102911ADDAA199002091AY181061GF108991041051004501021001KA1999N+00391MD1310201+9999
0037104490999991929110412004+51483+010317FM-12+009099999V0202901N00261220001CN0100001N9+00781+00391102991ADDAY111061GF104991041011004501001021
0051104490999991929110512004+51483+010317FM-12+009099999V0202301N00671220001CN0040001N9+00611+00221102521ADDAY111061GF104991041051012501031001MD1810141+9999
0051104490999991929110612004+51483+010317FM-12+009099999V0202701N00461220001CN0100001N9+00391+00001101261ADDAY111061GF104991041011008001001021MD1810141+9999
0051104490999991929110812004+51483+010317FM-12+009099999V0202001N00461220001CN0100001N9+00721+00331100301ADDAY111061GF104991041011008001001021MD1810141+9999
0051104490999991929110912004+51483+010317FM-12+009099999V0202901N00261220001CN0100001N9+00781+00561101551ADDAY181061GF104991041011004501001021MD1310141+9999
0051104490999991929111012004+51483+010317FM-12+009099999V0201401N00461030001CN0100001N9+00721+00331101461ADDAY111061GF106991041051008001021001MD1810201+9999
0064104490999991929111106004+51483+010317FM-12+009099999V0209999900461004501CN0040001N9+00391+00171102151ADDAY111061GF106991061051004501001001KA1999N+00281MD1310201+9999
0051104490999991929111112004+51483+010317FM-12+009099999V0202501N00671220001CN0200001N9+00721+00111102021ADDAY101061GF102991011011017501001021MD1810141+9999
0051104490999991929111212004+51483+010317FM-12+009099999V0202501N01541030001CN0100001N9+00781+00561099531ADDAY181061GF108991041051002501021001MD1810141+9999
0051104490999991929111312004+51483+010317FM-12+009099999V0202001N00261220001CN0200001N9+00721+00331100231ADDAY111061GF104991041011004501001021MD1810061+9999
0050104490999991929111406004+51483+010317FM-12+009099999V0209991C00001004501CN0020001N9+00111+00061099801ADDAY141061GF108991081051004501999999KA1999N+00001
0057104490999991929111412004+51483+010317FM-12+009099999V0209991C00001030001CN0040001N9+00391+00171099641ADDAY141061GF108991041061002501021001MD1810061+9999MW1801
0057104490999991929111512004+51483+010317FM-12+009099999V0202301N00931001501CN0020001N9+00501+00441100031ADDAY171061GF108991081061001501999999MD1310061+9999MW1861
0075104490999991929111606004+51483+010317FM-12+009099999V0209999900101030001CN0040001N9-00221-00281100401ADDAA199001091AY181061GF106991041051002501031001KA1999N-00221MD1810061+9999
0051104490999991929111612004+51483+010317FM-12+009099999V0201101N00461002401CN0040001N9+00221-00171099811ADDAY111061GF108991081051002501999999MD1710141+9999
0075104490999991929111706004+51483+010317FM-12+009099999V0209999900671002401CN0200001N9+00611+00391099731ADDAA199002091AY181061GF108991081051002501999999KA1999N+00111MD1310141+9999
0057104490999991929111712004+51483+010317FM-12+009099999V0202301N00461030001CN0040001N9+00501+00441100101ADDAY161061GF108991041061002501021001MD1310141+9999MW1611
0081104490999991929111806004+51483+010317FM-12+009099999V02099999002619999999N0020001N9+00221+00171101181ADDAA199003091AY161061GF108991999061000751001001KA1999N+00111MD1310201+9999MW1451
0057104490999991929111812004+51483+010317FM-12+009099999V0202701N00261000601CN0000501N9+00281-00721101511ADDAY171061GF108991081051000751999999MD1310141+9999MW1451
0051104490999991929111912004+51483+010317FM-12+009099999V0201801N00671220001CN0200001N9+00501+00281101941ADDAY101061GF104991001001999999021021MD1810141+9999
0050104490999991929112006004+51483+010317FM-12+009099999V0209991C00001220001CN0100001N9+00111-00111101871ADDAY111061GF106991001001999999021021KA1999N+00001
0051104490999991929112012004+51483+010317FM-12+009099999V0209991C00001220001CN0200001N9+00781+00171101641ADDAY111061GF104991001001999999021021MD1810061+9999
0050104490999991929112106004+51483+010317FM-12+009099999V0209991C00001220001CN0040001N9+00221+00001101621ADDAY101061GF104991001001999999021021KA1999N+00001
0051104490999991929112112004+51483+010317FM-12+009099999V0209991C00001220001CN0040001N9+00721+00331101471ADDAY101061GF100991001001999999001001MD1810141+9999
0051104490999991929112212004+51483+010317FM-12+009099999V0201101N00261220001CN0100001N9+00611+00391101411ADDAY141061GF100991001001999999001001MD1810141+9999
0051104490999991929112312004+51483+010317FM-12+009099999V0201401N00671220001CN0200001N9+01221+00611101371ADDAY111061GF104991001001999999021021MD1310071+9999
0064104490999991929112406004+51483+010317FM-12+009099999V0209999900671030001CN0100001N9+00781+00391101351ADDAY101061GF106991041051008001021001KA1999N+00721MD1810061+9999
0051104490999991929112412004+51483+010317FM-12+009099999V0202301N01231012301CN0200001N9+01001+00391101131ADDAY111061GF108991081051012501999999MD1610061+9999
0064104490999991929112506004+51483+010317FM-12+009099999V0209999900461220001CN0200001N9+00391+00171101931ADDAY101061GF104991999001999999031001KA1999N+00281MD1510061+9999
0051104490999991929112512004+51483+010317FM-12+009099999V0201801N00671012301CN0200001N9+00781+00171101671ADDAY111061GF107991061051012501031001MD1810141+9999
0037104490999991929112612004+51483+010317FM-12+009099999V0202501N00461015001CN0200001N9+01001+00611101351ADDAY101061GF106991061051017501001001
0061104490999991929112706004+51483+010317FM-12+009099999V0209999900461004501CN0200001N9+00611+00391101501ADDAA199000691AY181061GF108991081051004501999999KA1999N+00391
0037104490999991929112712004+51483+010317FM-12+009099999V0202301N00671007801CN0500001N9+00721+00331101601ADDAY181061GF107991071051008001001001
0051104490999991929112812004+51483+010317FM-12+009099999V0202301N006719999999N0100001N9+00611+00391101391ADDAY111061GF108991999051017501001001MD1710261+9999
0061104490999991929112906004+51483+010317FM-12+009099999V0209999901541004501CN0200001N9+01001+00611100591ADDAA199002091AY161061GF108991081051004501999999KA1999N+00501
0037104490999991929112912004+51483+010317FM-12+009099999V0202301N00671075001CN0200001N9+01111+00671100661ADDAY111061GF106991021051008001001021
0051104490999991929113012004+51483+010317FM-12+009099999V0201401N00261075001CN0100001N9+01221+00781100171ADDAY111061GF106991041051008001001021MD1810201+9999
0067104490999991929120106004+51483+010317FM-12+009099999V0209999900671001501CN0040001N9+00781+00721099711ADDAA199002091AY181061GF107991071061001501001001KA1999N+00781MW1611
0037104490999991929120112004+51483+010317FM-12+009099999V0202301N004619999999N0100001N9+00891+00831099751ADDAY161061GF107991999051001501001001
0081104490999991929120206004+51483+010317FM-12+009099999V0209999900261030001CN0200001N9+00721+00671100571ADDAA199000591AY181061GF107991041061002501021001KA1999N+00721MD1310201+9999MW1801
0037104490999991929120212004+51483+010317FM-12+009099999V0202001N002619999999N0040001N9+00781+00561100751ADDAY181061GF107991999051002501001001
0081104490999991929120306004+51483+010317FM-12+009099999V02099999004619999999N0100001N9+00611+00561100821ADDAA199002091AY161061GF108991999061002501001001KA1999N+00501MD1110201+9999MW1601
0051104490999991929120312004+51483+010317FM-12+009099999V0202301N00261030001CN0100001N9+00781+00721101131ADDAY181061GF108991041051004501021001MD1110061+9999
0043104490999991929120412004+51483+010317FM-12+009099999V0203401N00261030001CN0100001N9+01111+00891101131ADDAY181061GF108991041051004501021001MW1801
0051104490999991929120512004+51483+010317FM-12+009099999V0201801N00671220001CN0200001N9+01221+00781100661ADDAY101061GF102991021051008001001021MD1810201+9999
0051104490999991929120612004+51483+010317FM-12+009099999V0202301N00461030001CN0200001N9+00891+00441100421ADDAY111061GF107991041051008001021001MD1110061+9999
0037104490999991929120712004+51483+010317FM-12+009099999V0201801N022619999999N0200001N9+00781+00171099731ADDAY181061GF106991999051004501001001
0051104490999991929120812004+51483+010317FM-12+009099999V0202001N01231220001CN0500001N9+00611+00221101031ADDAY111061GF104991999999008001999999MD1710141+9999
0075104490999991929120906004+51483+010317FM-12+009099999V0209999901901004501CN0200001N9+00501+00111101071ADDAA199000591AY181061GF108991061051004501021001KA1999N+00501MD1310201+9999
0053104490999991929121006004+51483+010317FM-12+009099999V0202301N015419999999N0100001N9+00501+99999100081ADDAA199066091GF106991999999017501999999KA1999N+00001
0043104490999991929121012004+51483+010317FM-12+009099999V0202501N012319999999N0200001N9+00501+00111100371ADDAY121061GF108991999061004501001001MW1801
0057104490999991929121112004+51483+010317FM-12+009099999V0202301N015419999999N0100001N9+00611+00391099941ADDAY171061GF108991999061002501001001MD1810341+9999MW1801
0094104490999991929121206004+51483+010317FM-12+009099999V0209999901901030001CN0100001N9+00501+00111100551ADDAA199001091AY181061GF106991041051008001021001KA1999N+99999MD1810141+9999EQDQ01 +00612ATMN  
0051104490999991929121212004+51483+010317FM-12+009099999V0202301N015419999999N0200001N9+00721+00111100661ADDAY171061GF106991999011004501001001MD1990061+9999
0075104490999991929121306004+51483+010317FM-12+009099999V0209999901231004501CN0100001N9+00611+00391102171ADDAA199000391AY181061GF108991081051004501999999KA1999N+00391MD1310261+9999
0057104490999991929121312004+51483+010317FM-12+009099999V0202701N00461000151CN0002001N9+00611+00561102351ADDAY121061GF108991081051000251999999MD1510001+9999MW1471
0075104490999991929121406004+51483+010317FM-12+009099999V0209999900461004501CN0500001N9+00781+99999102551ADDAA199000391AY171061GF108991081051004501999999KA1999N+00611MD1510001+9999
0043104490999991929121412004+51483+010317FM-12+009099999V0202301N00671004501CN0100001N9+01001+99999102331ADDAY111061GF108991999061004501001001MW1601
0067104490999991929121506004+51483+010317FM-12+009099999V0209999900931000151CN0040001N9+01111+01061102131ADDAA199003091AY161061GF108991081061000251999999KA1999N+00891MW1611
0075104490999991929121606004+51483+010317FM-12+009099999V0209999900461030001CN0100001N9+00281+00061102751ADDAA199000691AY181061GF108991041051004501021001KA1999N+00281MD1310061+9999
0051104490999991929121612004+51483+010317FM-12+009099999V0202901N006719999999N0100001N9+00501+00111102771ADDAY111061GF106991999051004501001001MD1610061+9999
0067104490999991929121706004+51483+010317FM-12+009099999V02099999004619999999N0040001N9+00221+00171102801ADDAA199003091AY171061GF108991999061001501001001KA1999N+00001MW1681
0057104490999991929121712004+51483+010317FM-12+009099999V0203401N00931000151CN0000001N9+00001-00061102611ADDAY171061GF108991081051000251999999MD1610141+9999MW1721
0070104490999991929121806004+51483+010317FM-12+009099999V0209999900101000151CN0002001N9-00221-00281103891ADDAY141061GF108991081051000251999999KA1999N-00891MD1310201+9999MW1451
0070104490999991929121812004+51483+010317FM-12+009099999V0203401N00101030001CN0040001N9-00221-00281095312ADDAY141061GF108991041051004501021001MD1310061+9999EQDQ01+095313APOSLP
0050104490999991929121906004+51483+010317FM-12+009099999V0209999900261220001CN0100001N9-00781-00831104041ADDAY101061GF102991999001999999021001KA1999N-01111
0051104490999991929121912004+51483+010317FM-12+009099999V0202301N00101000151CN0500001N9-00281-00441103801ADDAY101061GF108991081051000251999999MD1810141+9999
0064104490999991929122006004+51483+010317FM-12+009099999V0209999900101220001CN0100001N9-00781-00831102911ADDAY101061GF102991021051012501001001KA1999N-00891MD1610061+9999
0051104490999991929122012004+51483+010317FM-12+009099999V0200901N00101220001CN0040001N9-00501-00561102481ADDAY141061GF100991001001999999001001MD1810141+9999
0075104490999991929122106004+51483+010317FM-12+009099999V0209999900261220001CN0100001N9-00721-00891101721ADDAA199006091AY101061GF102991021051012501001001KA1999N-00781MD1810141+9999
0051104490999991929122112004+51483+010317FM-12+009099999V0200701N00261220001CN0040001N9-00281-00331101351ADDAY141061GF104991001001999999021021MD1810261+9999
0064104490999991929122206004+51483+010317FM-12+009099999V0209999900461220001CN0100001N9-00501-00561100871ADDAY101061GF100991001001999999001001KA1999N-00611MD1810061+9999
0051104490999991929122212004+51483+010317FM-12+009099999V0200901N00261220001CN0100001N9-00221-00281100591ADDAY101061GF100991001001999999001001MD1610141+9999
0050104490999991929122306004+51483+010317FM-12+009099999V0209999900261007801CN0200001N9-00221-00281100901ADDAY111061GF108991081051008001999999KA1999N-00501
0051104490999991929122312004+51483+010317FM-12+009099999V0200701N00261220001CN0200001N9-00111-00171100871ADDAY111061GF104991001001999999021021MD1610061+9999
0081104490999991929122406004+51483+010317FM-12+009099999V0209999901541030001CN0040001N9-00611-00671099981ADDAA199000691AY171061GF108991041061002501021001KA1999N-00611MD1810201+9999MW1701
0076104490999991929122412004+51483+010317FM-12+009099999V0201101N00671001501CN0002001N9-00501-00561098822ADDAY171061GF108991081061001501999999MD1310061+9999MW1731EQDQ01+098823APOSLP
0075104490999991929122506004+51483+010317FM-12+009099999V0209999900461030001CN0200001N9+00281+00061100571ADDAA199001091AY171061GF106991041051012501021001KA1999N-00111MD1990061+9999
0051104490999991929122512004+51483+010317FM-12+009099999V0202001N01231030001CN0500001N9+00611+00001100371ADDAY161061GF108991041091012501021001MD1710141+9999
0075104490999991929122606004+51483+010317FM-12+009099999V0209999901231004501CN0100001N9+00501+00281101101ADDAA199001091AY181061GF107991999051004501001001KA1999N+00501MD1110061+9999
0051104490999991929122612004+51483+010317FM-12+009099999V0202301N00461007801CN0100001N9+00501+00281101221ADDAY121061GF107991071051008001001001MD1310061+9999
0051104490999991929122712004+51483+010317FM-12+009099999V0202001N00931220001CN0200001N9+00391+00001101511ADDAY111061GF104991021011012501001021MD1810141+9999
0037104490999991929122812004+51483+010317FM-12+009099999V0202501N00671004501CN0100001N9+00391+00171101221ADDAY181061GF107991071051004501001001
0051104490999991929122912004+51483+010317FM-12+009099999V0202301N02261004501CN0500001N9+01221+00611099841ADDAY111061GF108991081051004501999999MD1810261+9999
0075104490999991929123006004+51483+010317FM-12+009099999V02099999012319999999N0500001N9+00391+00171101541ADDAA199001091AY181061GF106991999011004501001001KA1999N+00281MD1310141+9999
0051104490999991929123012004+51483+010317FM-12+009099999V0202301N01901004501CN0500001N9+00611+00221101491ADDAY111061GF108991081051004501999999MD1810061+9999
0051104490999991929123112004+51483+010317FM-12+009099999V0202901N00461007801CN0100001N9+00501+00281101201ADDAY181061GF107991071051008001001001MD1310141+9999
