0064104490999991928050806004+51483+010317FM-12+009099999V0209999900931220001CN0100001N9+00391+00001100471ADDAY111061GF108991999001999999021001KA1999N+00281MD1310141+9999
0081104490999991928050906004+51483+010317FM-12+009099999V0209999900931220001CN0200001N9+00281-00111100431ADDAA199002091AY181061GF104991999051008001999999KA1999N+00111MD1310261+9999MW1831
0064104490999991928051106004+51483+010317FM-12+009099999V02099999002619999999N0200001N9+00281-00111101801ADDAY111061GF107991999011008001001001KA1999N+00001MD1310141+9999
0064104490999991928051306004+51483+010317FM-12+009099999V02099999002619999999N0100001N9+00391+00331101801ADDAY141061GF108991999001001501021001KA1999N+00281MD1310201+9999
0064104490999991928051506004+51483+010317FM-12+009099999V0209999900101220001CN0010001N9+00611+00391101201ADDAY111061GF108991999001999999021001KA1999N+00501MD1810061+9999
0081104490999991928052506004+51483+010317FM-12+009099999V0209999900261000601CN0000501N9+00781+00721101801ADDAA199010091AY161061GF108991081061000751999999KA1999N+00611MD1310061+9999MW1631
0064104490999991928052606004+51483+010317FM-12+009099999V0209999900671002401CN0040001N9+00611+00391102461ADDAY141061GF108991081051002501999999KA1999N+00501MD1310141+9999
0050104490999991928052706004+51483+010317FM-12+009099999V0209999900101220001CN0100001N9+00781+00561102201ADDAY141061GF104991021051002501021001KA1999N+00391
0056104490999991928053106004+51483+010317FM-12+009099999V0209999900101000151CN0005001N9+01111+01061101631ADDAY111061GF108991081051000251999999KA1999N+00781MW1451
0075104490999991928060106004+51483+010317FM-12+009099999V0209999900671004501CN0100001N9+00721+00501102041ADDAA199000391AY181061GF107991071051004501001001KA1999N+00611MD1310261+9999
0064104490999991928060206004+51483+010317FM-12+009099999V0209999900671220001CN0500001N9+00721-00331102521ADDAY101061GF100991001001999999001001KA1999N+00001MD1310141+9999
0050104490999991928060306004+51483+010317FM-12+009099999V02099999002619999999N0100001N9+00781+00561102121ADDAY111061GF108991999001017501021001KA1999N+00781
0064104490999991928060406004+51483+010317FM-12+009099999V0209999900461220001CN0200001N9+01501+01061101571ADDAY101061GF100991001001999999001001KA1999N+01001MD1810141+9999
0075104490999991928060506004+51483+010317FM-12+009099999V0209999900461075001CN0500001N9+00781+00171101261ADDAA199000691AY191061GF106991021011012501001021KA1999N+00501MD1310141+9999
0064104490999991928060606004+51483+010317FM-12+009099999V02099999002619999999N0100001N9+00891+00441101271ADDAY111061GF108991999001008001021001KA1999N+00611MD1310061+9999
0064104490999991928060706004+51483+010317FM-12+009099999V0209991C00001220001CN0040001N9+01501+00831100871ADDAY101061GF104991999001012501021021KA1999N+00891MD1810141+9999
0061104490999991928060806004+51483+010317FM-12+009099999V02099999009319999999N0040001N9+01391+01171100511ADDAA199000591AY181061GF108991999001004501021001KA1999N+01111
0050104490999991928060906004+51483+010317FM-12+009099999V0209999900671030001CN0100001N9+01611+01171100731ADDAY111061GF106991041011012501021001KA1999N+01001
0064104490999991928061006004+51483+010317FM-12+009099999V0209999900461015001CN0500001N9+02281+01831100351ADDAY111061GF107991061051017501001021KA1999N+01721MD1810141+9999
0081104490999991928061106004+51483+010317FM-12+009099999V02099999004619999999N0100001N9+01281+01221101191ADDAA199000591AY161061GF108991999001004501021001KA1999N+01221MD1310261+9999MW1501
0075104490999991928061206004+51483+010317FM-12+009099999V0209999900461220001CN0100001N9+01111+00671102471ADDAA199000691AY181061GF104991041011012501001021KA1999N+00781MD1310261+9999
0050104490999991928061306004+51483+010317FM-12+009099999V0209999900461220001CN0100001N9+01501+00611102531ADDAY111061GF104991001001999999021021KA1999N+00721
0075104490999991928061406004+51483+010317FM-12+009099999V0209999900461007801CN0200001N9+01781+01111100831ADDAA199000691AY181061GF106991061051008001001001KA1999N+01501MD1710141+9999
0075104490999991928061506004+51483+010317FM-12+009099999V02099999006719999999N0100001N9+01001+00781101441ADDAA199003091AY181061GF108991999001004501021001KA1999N+00891MD1310261+9999
0081104490999991928061606004+51483+010317FM-12+009099999V0209999900931002401CN0040001N9+00891+00441101641ADDAA199000691AY111061GF108991081061002501999999KA1999N+00501MD1810141+9999MW1801
0081104490999991928061706004+51483+010317FM-12+009099999V0209991C000019999999N0040001N9+00281+00221101721ADDAA199002091AY101061GF106991999061004501001001KA1999N+00221MD1990061+9999MW1681
0081104490999991928061806004+51483+010317FM-12+009099999V0209999900461002401CN0040001N9+00721+00671101241ADDAA199000391AY111061GF108991081061002501999999KA1999N+00391MD1610061+9999MW1601
0064104490999991928061906004+51483+010317FM-12+009099999V0209999900101220001CN0040001N9+01111+00671101001ADDAY111061GF104991041011008001021001KA1999N+00501MD1810061+9999
0081104490999991928062006004+51483+010317FM-12+009099999V0209999900101001501CN0010001N9+01221+01171100911ADDAA199005091AY161061GF108991081051001501999999KA1999N+01001MD1310061+9999MW1101
0075104490999991928062106004+51483+010317FM-12+009099999V02099999006719999999N0020001N9+01001+00941101531ADDAA199002091AY181061GF108991999001002501021001KA1999N+00891MD1310201+9999
0050104490999991928062206004+51483+010317FM-12+009099999V02099999001019999999N0040001N9+01391+00941102131ADDAY111061GF108991999001004501021001KA1999N+00891
0081104490999991928062306004+51483+010317FM-12+009099999V02099999006719999999N0010001N9+01501+01441101601ADDAA199000591AY191061GF108991999001002501021001KA1999N+01501MD1210141+9999MW1291
0064104490999991928062406004+51483+010317FM-12+009099999V0209999900101220001CN0100001N9+01391+01171101631ADDAY111061GF104991021011008001001021KA1999N+01001MD1310141+9999
0050104490999991928062506004+51483+010317FM-12+009099999V0209999900101220001CN0200001N9+01221+00781102041ADDAY111061GF102991001001999999021021KA1999N+00721
0081104490999991928062606004+51483+010317FM-12+009099999V0209999900101004501CN0040001N9+01501+01441100771ADDAA199002091AY191061GF108991081051004501999999KA1999N+01221MD1990261+9999MW1291
0064104490999991928062706004+51483+010317FM-12+009099999V0209999901541004501CN0100001N9+01391+00941101181ADDAY111061GF108991081051004501999999KA1999N+01281MD1310201+9999
0061104490999991928062806004+51483+010317FM-12+009099999V02099999006719999999N0020001N9+01111+00891102371ADDAA199000591AY111061GF108991999001002501021001KA1999N+00721
0050104490999991928062906004+51483+010317FM-12+009099999V0209999900931007801CN0100001N9+01391+00941102381ADDAY111061GF108991081051008001999999KA1999N+01221
0050104490999991928063006004+51483+010317FM-12+009099999V0209999900261220001CN0200001N9+01891+01221101511ADDAY111061GF104991021011012501001021KA1999N+01281
0064104490999991928070106004+51483+010317FM-12+009099999V0209999900931220001CN0040001N9+01391+00721102081ADDAY141061GF104991041011008001031001KA1999N+01001MD1210201+9999
0064104490999991928070306004+51483+010317FM-12+009099999V0209999900261220001CN0200001N9+02111+01171101621ADDAY101061GF102991001001999999001021KA1999N+01611MD1810061+9999
0081104490999991928070406004+51483+010317FM-12+009099999V0209999900101000601CN0000501N9+01501+01441100791ADDAA199015091AY191061GF108991081051000751999999KA1999N+01391MD1110141+9999MW1451
0050104490999991928070506004+51483+010317FM-12+009099999V02099999006719999999N0040001N9+01391+00941102041ADDAY111061GF106991999001022501021021KA1999N+00891
0064104490999991928070606004+51483+010317FM-12+009099999V02099999009319999999N0100001N9+01721+01061101091ADDAY111061GF108991999001008001021001KA1999N+01501MD1710061+9999
0075104490999991928070706004+51483+010317FM-12+009099999V02099999009319999999N0100001N9+01281+01061101601ADDAA199000591AY181061GF108991999001004501021001KA1999N+01111MD1310141+9999
0064104490999991928070806004+51483+010317FM-12+009099999V0209999900261004501CN0200001N9+01001+00781102461ADDAY111061GF107991071011004501001001KA1999N+00781MD1310141+9999
0064104490999991928070906004+51483+010317FM-12+009099999V0209999900261220001CN0100001N9+01501+00831102101ADDAY101061GF100991001001999999001001KA1999N+00721MD1810061+9999
0081104490999991928071006004+51483+010317FM-12+009099999V0209999900261002401CN0040001N9+01281+01221102261ADDAA199003091AY181061GF108991081061002501999999KA1999N+01221MD1110201+9999MW1801
0064104490999991928071106004+51483+010317FM-12+009099999V0209999900261075001CN0040001N9+01781+01331102521ADDAY111061GF106991041051012501001021KA1999N+01391MD1310061+9999
0064104490999991928071206004+51483+010317FM-12+009099999V0209999900101220001CN0100001N9+02001+01561102571ADDAY101061GF100991001001999999001001KA1999N+01281MD1310061+9999
0050104490999991928071306004+51483+010317FM-12+009099999V0209999900261220001CN0100001N9+02501+01781102071ADDAY101061GF100991001001999999001001KA1999N+01781
0064104490999991928071406004+51483+010317FM-12+009099999V0209999900101220001CN0100001N9+02111+01671102521ADDAY111061GF104991041011012501001001KA1999N+01721MD1210141+9999
0037104490999991928071506004+51483+010317FM-12+009099999V0209999900101220001CN0040001N9+02391+01721102401ADDAY101061GF100991001001999999001001
0050104490999991928071606004+51483+010317FM-12+009099999V0209991C00001220001CN0100001N9+02501+02001102151ADDAY101061GF100991001001999999001001KA1999N+01781
0075104490999991928071706004+51483+010317FM-12+009099999V0209999900261220001CN0100001N9+01391+01171102611ADDAA199004091AY191061GF104991041011008001001001KA1999N+01391MD1310261+9999
0050104490999991928071806004+51483+010317FM-12+009099999V0209999900101220001CN0100001N9+01611+01331102521ADDAY111061GF101991001001999999001021KA1999N+01001
0083104490999991928071906004+51483+010317FM-12+009099999V02099999009319999999N0100001N9+00001-00331101811ADDAY111061GF107991999011004501001001KA1999N+99999MD1310061+9999EQDQ01 +01392ATMN  
0050104490999991928072006004+51483+010317FM-12+009099999V0209999900101004501CN0100001N9+01391+01171101981ADDAY111061GF108991081051004501999999KA1999N+01221
0083104490999991928072106004+51483+010317FM-12+009099999V0209999900671004501CN0040001N9+01391+00941101971ADDAY111061GF108991081051004501999999KA1999N+99999MD1310141+9999EQDQ01 +01502ATMN  
0064104490999991928072206004+51483+010317FM-12+009099999V02099999004619999999N0100001N9+01281+00831101951ADDAY111061GF108991999001004501021001KA1999N+01281MD1310061+9999
0067104490999991928072306004+51483+010317FM-12+009099999V02099999006719999999N0100001N9+01611+00941101791ADDAA199000691AY161061GF108991999001004501021001KA1999N+01281MW1951
0037104490999991928072406004+51483+010317FM-12+009099999V02099999001019999999N0040001N9+01611+01331101591ADDAY141061GF106991999001012501021021
0075104490999991928072506004+51483+010317FM-12+009099999V02099999002619999999N0040001N9+01611+01331101461ADDAA199001091AY181061GF107991999001004501021001KA1999N+01281MD1310141+9999
0061104490999991928072606004+51483+010317FM-12+009099999V02099999002619999999N0040001N9+01611+01561101711ADDAA199001091AY181061GF108991999001004501021001KA1999N+01611
0064104490999991928072706004+51483+010317FM-12+009099999V0209999900101220001CN0040001N9+02111+01441101181ADDAY141061GF102991001001999999001021KA1999N+01501MD1810141+9999
0061104490999991928072806004+51483+010317FM-12+009099999V02099999012319999999N0100001N9+01891+01611100301ADDAA199007091AY191061GF108991999001004501021001KA1999N+01501
0081104490999991928072906004+51483+010317FM-12+009099999V0209999900671000151CN0002001N9+01281+01221100591ADDAA199018091AY161061GF108991081051000251999999KA1999N+01281MD1310341+9999MW1451
0064104490999991928073006004+51483+010317FM-12+009099999V0209999900931220001CN0200001N9+01391+00941101511ADDAY111061GF102991021051012501001001KA1999N+01001MD1310141+9999
0064104490999991928073106004+51483+010317FM-12+009099999V0209999901231075001CN0200001N9+01781+00891101241ADDAY111061GF108991041091022501001081KA1999N+01281MD1810141+9999
0056104490999991928080106004+51483+010317FM-12+009099999V0209999900101220001CN0010001N9+01501+01441101721ADDAY141061GF104991999051004501001001KA1999N+01111MW1101
0081104490999991928080206004+51483+010317FM-12+009099999V0209999900261000151CN0000501N9+01221+01171101601ADDAA199007091AY181061GF108991081051000251999999KA1999N+01111MD1010341+9999MW1451
0064104490999991928080306004+51483+010317FM-12+009099999V0209999900261220001CN0020001N9+01001+00781102341ADDAY141061GF102991999051008001001021KA1999N+00281MD1010061+9999
0081104490999991928080406004+51483+010317FM-12+009099999V0209991C000019999999N0040001N9+01391+00721101461ADDAA199000691AY181061GF108991999051004501001001KA1999N+01111MD1710141+9999MW1611
0061104490999991928080506004+51483+010317FM-12+009099999V02099999009319999999N0040001N9+01611+01331100841ADDAA199004091AY191061GF108991999001004501021001KA1999N+01501
0075104490999991928080606004+51483+010317FM-12+009099999V0209999900671002401CN0100001N9+01111+01061102241ADDAA199005091AY181061GF108991081051002501999999KA1999N+01001MD1310261+9999
0050104490999991928080706004+51483+010317FM-12+009099999V02099999001019999999N0100001N9+01391+01171102471ADDAY111061GF106991999001017501021021KA1999N+01001
0064104490999991928080806004+51483+010317FM-12+009099999V0209999900931220001CN0100001N9+01781+01111101571ADDAY111061GF104991001001999999021021KA1999N+01501MD1810141+9999
0064104490999991928080906004+51483+010317FM-12+009099999V0209999900931220001CN0040001N9+01391+01171101971ADDAY101061GF102991021011012501001021KA1999N+01111MD1310141+9999
0050104490999991928081006004+51483+010317FM-12+009099999V0209999900261004501CN0100001N9+01391+00941102101ADDAY191061GF106991061051004501001001KA1999N+01111
0050104490999991928081106004+51483+010317FM-12+009099999V0209999900101004501CN0100001N9+01281+01061101981ADDAY111061GF107991071051004501001001KA1999N+01001
0069104490999991928081206004+51483+010317FM-12+009099999V0209999900261220001CN0100001N9+00111-00611101201ADDAY101061GF102991001001999999001021KA1999N+99999EQDQ01 +01282ATMN  
0081104490999991928081306004+51483+010317FM-12+009099999V0209999900101000151CN0010001N9+01721+01671101101ADDAA199004091AY191061GF108991081051000251999999KA1999N+01611MD1310201+9999MW1101
0050104490999991928081406004+51483+010317FM-12+009099999V0209999900461220001CN0040001N9+01501+01281101591ADDAY111061GF106991001001999999021021KA1999N+01001
0050104490999991928081506004+51483+010317FM-12+009099999V0209999900261030001CN0200001N9+01611+01331101491ADDAY111061GF106991041051012501021001KA1999N+01281
0075104490999991928081606004+51483+010317FM-12+009099999V02099999002619999999N0100001N9+01281+01061101371ADDAA199003091AY181061GF108991999001004501021001KA1999N+01221MD1310261+9999
0067104490999991928081706004+51483+010317FM-12+009099999V0209999900461002401CN0020001N9+01111+01061101641ADDAA199000391AY181061GF108991081061002501999999KA1999N+01001MW1611
0081104490999991928081806004+51483+010317FM-12+009099999V0209999900461000151CN0010001N9+01111+00891101951ADDAA199000691AY141061GF108991081051000251999999KA1999N+00891MD1310061+9999MW1101
0057104490999991928081906004+51483+010317FM-12+009099999V0209999900101000151CN0010001N9+01111+00891101641ADDAY141061GF108991081051000251999999MD1110201+9999MW1101
0064104490999991928082006004+51483+010317FM-12+009099999V0209999900101220001CN0040001N9+01611+01171101191ADDAY111061GF104991999001012501021021KA1999N+01111MD1810141+9999
0050104490999991928082106004+51483+010317FM-12+009099999V0209999900261220001CN0040001N9+01501+01441101281ADDAY111061GF104991999001012501021021KA1999N+01221
0050104490999991928082206004+51483+010317FM-12+009099999V02099999006719999999N0040001N9+01281+01061101361ADDAY111061GF106991999001004501021001KA1999N+01001
0075104490999991928082306004+51483+010317FM-12+009099999V02099999004619999999N0040001N9+01281+01061101431ADDAA199005091AY181061GF108991999001004501021001KA1999N+01221MD1310141+9999
0050104490999991928082406004+51483+010317FM-12+009099999V0209999900461220001CN0040001N9+99999+99999101631ADDAY101061GF102991001001999999001021KA1999N+01281
0050104490999991928082506004+51483+010317FM-12+009099999V0209999901231030001CN0100001N9+02001+01721100911ADDAY111061GF106991041051017501031001KA1999N+01891
0075104490999991928082606004+51483+010317FM-12+009099999V0209999900101220001CN0100001N9+01611+01331101571ADDAA199000391AY111061GF102991021091022501001001KA1999N+01001MD1310061+9999
0081104490999991928082706004+51483+010317FM-12+009099999V02099999009319999999N0100001N9+01781+01561100661ADDAA199004091AY161061GF108991999001004501021001KA1999N+01611MD1610141+9999MW1601
0050104490999991928082806004+51483+010317FM-12+009099999V02099999006719999999N0100001N9+01611+01331100931ADDAY111061GF108991999001004501021001KA1999N+01391
0050104490999991928082906004+51483+010317FM-12+009099999V0209999900671220001CN0100001N9+01611+01561101761ADDAY111061GF102991001001999999001021KA1999N+01221
0081104490999991928083006004+51483+010317FM-12+009099999V0209991C00001000601CN0010001N9+01391+01331101001ADDAA199000591AY161061GF108991081051000751999999KA1999N+01281MD1810141+9999MW1101
0081104490999991928083106004+51483+010317FM-12+009099999V0209999900261001501CN0020001N9+01221+01171102061ADDAA199006091AY161061GF108991081051001501999999KA1999N+01001MD1310141+9999MW1441
0064104490999991928090106004+51483+010317FM-12+009099999V02099999001019999999N0040001N9+01001+00941102331ADDAY111061GF106991999001022501021021KA1999N+00721MD1110061+9999
0057104490999991928090206004+51483+010317FM-12+009099999V0209991C00001000151CN0000001N9+00611+00561102501ADDAY111061GF108991081051000251999999MD1310061+9999MW1431
0050104490999991928090306004+51483+010317FM-12+009099999V0209991C00001220001CN0040001N9+00891+00671102441ADDAY141061GF100991001001999999001001KA1999N+00611
0061104490999991928090406004+51483+010317FM-12+009099999V0209991C00001220001CN0010001N9+01111+00891102461ADDAA199000391AY141061GF104991001001999999021021KA1999N+00721
0050104490999991928090506004+51483+010317FM-12+009099999V0209999900261220001CN0100001N9+01501+01281102291ADDAY101061GF100991001001999999001001KA1999N+01111
0064104490999991928090606004+51483+010317FM-12+009099999V0209999900931220001CN0100001N9+01781+01561101671ADDAY101061GF102991001001999999001021KA1999N+01501MD1110061+9999
0064104490999991928090706004+51483+010317FM-12+009099999V0209991C00001220001CN0100001N9+01111+00891102961ADDAY111061GF100991001001999999001001KA1999N+00781MD1310261+9999
0050104490999991928090806004+51483+010317FM-12+009099999V0209991C00001220001CN0020001N9+01501+01281102341ADDAY141061GF104991999001999999031001KA1999N+01221
0069104490999991928090906004+51483+010317FM-12+009099999V0209991C00001220001CN0040001N9+01781+01561102201ADDAY141061GF100991001001999999001001KA1999N+99999EQDQ01 +02002ATMN  
0070104490999991928091006004+51483+010317FM-12+009099999V0209999900101012301CN0020001N9+01891+01611102111ADDAY191061GF108991081051012501999999KA1999N+01501MD1310141+9999MW1421
0043104490999991928091106004+51483+010317FM-12+009099999V0209991C00001000151CN0000001N9+01281+01221102391ADDAY141061GF108991081051000251999999MW1451
0070104490999991928091206004+51483+010317FM-12+009099999V0209991C00001220001CN0010001N9+01001+00941102481ADDAY141061GF102991999051000751001001KA1999N+00891MD1310141+9999MW1101
0070104490999991928091306004+51483+010317FM-12+009099999V0209991C00001220001CN0020001N9+00611+00561102661ADDAY101061GF102991001001999999001021KA1999N+00221MD1310061+9999MW1471
0070104490999991928091406004+51483+010317FM-12+009099999V0209991C00001220001CN0020001N9+00891+00831102671ADDAY111061GF104991041051012501001021KA1999N+00721MD1310061+9999MW1471
0064104490999991928091506004+51483+010317FM-12+009099999V02099999001019999999N0040001N9+01001+00781102601ADDAY141061GF106991999001022501021021KA1999N+00721MD1310141+9999
0064104490999991928091606004+51483+010317FM-12+009099999V0209991C00001220001CN0040001N9+01111+00891102591ADDAY141061GF102991001001999999001021KA1999N+00781MD1310061+9999
0064104490999991928091706004+51483+010317FM-12+009099999V0209991C00001000151CN0040001N9+01001+00781102781ADDAY141061GF108991081051000251999999KA1999N+00501MD1310061+9999
0056104490999991928091806004+51483+010317FM-12+009099999V0209991C00001000151CN0020001N9+00891+00671102531ADDAY101061GF108991081051000251999999KA1999N+00611MW1421
0050104490999991928091906004+51483+010317FM-12+009099999V0209991C000019999999N0040001N9+01391+00941102061ADDAY121061GF108991999001008001021001KA1999N+01281
0070104490999991928092006004+51483+010317FM-12+009099999V0209999900261220001CN0010001N9+01111+01061102211ADDAY141061GF104991021011001501001021KA1999N+01001MD1310141+9999MW1101
0064104490999991928092106004+51483+010317FM-12+009099999V0209991C00001000151CN0100001N9+00781+00561102311ADDAY141061GF108991081051000251999999KA1999N+00611MD1310141+9999
0056104490999991928092206004+51483+010317FM-12+009099999V0209999900261000151CN0020001N9+00611+00561102021ADDAY101061GF108991081051000251999999KA1999N+00391MW1451
0057104490999991928092306004+51483+010317FM-12+009099999V0209999900461000151CN0002001N9+00501+00441101701ADDAY111061GF108991081051000251999999MD1610061+9999MW1451
0064104490999991928092406004+51483+010317FM-12+009099999V02099999002619999999N0040001N9+00611+00561101111ADDAY141061GF108991999001004501021001KA1999N+00221MD1610061+9999
0081104490999991928092506004+51483+010317FM-12+009099999V0209999900261000151CN0010001N9+00721+00671101191ADDAA199011091AY161061GF108991081051000251999999KA1999N+00611MD1310261+9999MW1101
0057104490999991928092606004+51483+010317FM-12+009099999V0209991C00001000151CN0000001N9+00501+00441101791ADDAY141061GF108991081051000251999999MD1310341+9999MW1451
0064104490999991928092706004+51483+010317FM-12+009099999V0209991C00001220001CN0002001N9+00501+00441101751ADDAY101061GF100991001001999999001001KA1999N+00221MD1610061+9999
0070104490999991928092806004+51483+010317FM-12+009099999V0209991C00001220001CN0020001N9+00611+00391100821ADDAY141061GF104991001001999999001021KA1999N+00501MD1810201+9999MW1421
0081104490999991928092906004+51483+010317FM-12+009099999V0209999900101000151CN0000501N9+01001+00941101041ADDAA199000391AY181061GF108991081051000251999999KA1999N+00891MD1310141+9999MW1451
0057104490999991928093006004+51483+010317FM-12+009099999V0209991C00001000151CN0000001N9+00611+00561100641ADDAY161061GF108991081051000251999999MD1610141+9999MW1451
0061104490999991928100106004+51483+010317FM-12+009099999V0209999900931004501CN0020001N9+00501+00281100921ADDAA199000691AY171061GF108991081051004501999999KA1999N+00221
0057104490999991928100112004+51483+010317FM-12+009099999V0203401N00671012301CN0500001N9+00891+00281101201ADDAY191061GF108991081091012501999999MD1810261+9999MW1891
0075104490999991928100206004+51483+010317FM-12+009099999V02099999015419999999N0040001N9+00611+00391101571ADDAA199001091AY181061GF108991999001004501021001KA1999N+00611MD1610141+9999
0064104490999991928100306004+51483+010317FM-12+009099999V0209999900261220001CN0040001N9+00391+00331102641ADDAY121061GF104991041051012501001021KA1999N+00391MD1310201+9999
0037104490999991928100312004+51483+010317FM-12+009099999V0203401N00261220001CN0200001N9+01111+00221102791ADDAY111061GF104991021011017501001021
0050104490999991928100406004+51483+010317FM-12+009099999V0209999900101220001CN0040001N9+00281+00221102771ADDAY101061GF100991001001999999001001KA1999N+00221
0089104490999991928100506004+51483+010317FM-12+009099999V0209991C00001000151CN0020001N9+00391+00331102611ADDAY101061GF108991081051000251999999KA1999N+99999MD1310061+9999MW1441EQDQ01 +01282ATMN  
0050104490999991928100606004+51483+010317FM-12+009099999V02099999004619999999N0040001N9+00891+00671102391ADDAY121061GF106991999001012501021021KA1999N+00391
0037104490999991928100612004+51483+010317FM-12+009099999V0202701N00101220001CN0040001N9+01501+00831102241ADDAY111061GF107991999001999999021001
0057104490999991928100706004+51483+010317FM-12+009099999V0209999900461220001CN0002001N9+00891+00831102551ADDAY161061GF104991041051000751001001MD1310061+9999MW1431
0075104490999991928100806004+51483+010317FM-12+009099999V0209999900261012301CN0040001N9+01001+00781102381ADDAA199000691AY181061GF108991081051012501999999KA1999N+00781MD1810061+9999
0064104490999991928100906004+51483+010317FM-12+009099999V0209999900931220001CN0040001N9+01111+00891101111ADDAY111061GF104991041051012501001021KA1999N+00891MD1810141+9999
0051104490999991928100912004+51483+010317FM-12+009099999V0202301N00931220001CN0100001N9+01721+01061100551ADDAY111061GF104991041011012501001091MD1810261+9999
0075104490999991928101006004+51483+010317FM-12+009099999V0209999900461075001CN0020001N9+01111+01061100311ADDAA199003091AY181061GF106991041051004501001021KA1999N+01001MD1310141+9999
0037104490999991928101012004+51483+010317FM-12+009099999V0202501N00931220001CN0040001N9+01391+00941100371ADDAY111061GF101991999091004501001021
0075104490999991928101106004+51483+010317FM-12+009099999V0209999900261220001CN0100001N9+00501+00281101331ADDAA199002091AY181061GF104991021051012501031001KA1999N+00391MD1310141+9999
0081104490999991928101206004+51483+010317FM-12+009099999V0209999901231001501CN0020001N9+00281+00221100611ADDAA199004091AY161061GF108991081061001501999999KA1999N+00221MD1310401+9999MW1611
0051104490999991928101212004+51483+010317FM-12+009099999V0203201N006719999999N0100001N9+00391+00331101231ADDAY141061GF107991999999001501999999MD1310141+9999
0070104490999991928101306004+51483+010317FM-12+009099999V0209999900101000151CN0000501N9-00111-00171101661ADDAY101061GF108991081051000251999999KA1999N-00221MD1310141+9999MW1451
0070104490999991928101312004+51483+010317FM-12+009099999V0202701N00671004501CN0100001N9+00611+00001102562ADDAY141061GF106991061051004501001001MD1810061+9999EQDQ01+102563APOSLP
0075104490999991928101406004+51483+010317FM-12+009099999V0209999900671004501CN0040001N9+00111+00061102151ADDAA199002091AY161061GF106991061011004501001001KA1999N-00891MD1310201+9999
0037104490999991928101412004+51483+010317FM-12+009099999V0203401N00261004501CN0200001N9+00391-00171102331ADDAY111061GF106991061011004501001001
0037104490999991928101506004+51483+010317FM-12+009099999V0209991C00001220001CN0100001N9-00111-00171102421ADDAY101061GF100991001001999999001001
0064104490999991928101606004+51483+010317FM-12+009099999V0209999900101220001CN0200001N9-00111-00171102841ADDAY101061GF100991001001999999001001KA1999N-00281MD1310141+9999
0064104490999991928101706004+51483+010317FM-12+009099999V02099999012319999999N0040001N9+00501+00111102441ADDAY111061GF108991999001008001021001KA1999N+00221MD1810061+9999
0057104490999991928101712004+51483+010317FM-12+009099999V0202501N01231002401CN0040001N9+00721+00671102201ADDAY161061GF108991081061002501999999MD1610141+9999MW1601
0075104490999991928101806004+51483+010317FM-12+009099999V02099999006719999999N0100001N9+01001+00781101901ADDAA199002091AY181061GF108991999001004501021001KA1999N+00891MD1310141+9999
0075104490999991928101906004+51483+010317FM-12+009099999V02099999006719999999N0200001N9+01001+00781101011ADDAA199014091AY161061GF108991999001004501021001KA1999N+01001MD1510141+9999
0070104490999991928101912004+51483+010317FM-12+009099999V0202501N006719999999N0100001N9+01111-01282101191ADDAY181061GF107991999011004501001001MD1210141+9999EQDQ01+026043ATOD  
0075104490999991928102006004+51483+010317FM-12+009099999V0209999901541007801CN0100001N9+01111+00891101331ADDAA199000391AY181061GF106991061051008001001001KA1999N+00781MD1810061+9999
0081104490999991928102106004+51483+010317FM-12+009099999V0209999900931002401CN0100001N9+01111+01061101011ADDAA199002091AY161061GF108991081061002501999999KA1999N+01001MD1990061+9999MW1611
0081104490999991928102206004+51483+010317FM-12+009099999V0209999900101002401CN0040001N9+01001+00941101101ADDAA199000391AY111061GF108991081061002501999999KA1999N+00891MD1610061+9999MW1601
0061104490999991928102306004+51483+010317FM-12+009099999V02099999012319999999N0100001N9+00891+00671100931ADDAA199001091AY111061GF108991999001012501021001KA1999N+00781
0051104490999991928102312004+51483+010317FM-12+009099999V0202501N00931075001CN0200001N9+01281+00611100751ADDAY111061GF106991041011012501001021MD1810061+9999
0050104490999991928102406004+51483+010317FM-12+009099999V02099999006719999999N0100001N9+00891+00671101491ADDAY111061GF106991999001012501021001KA1999N+00721
0051104490999991928102412004+51483+010317FM-12+009099999V0202301N00931220001CN0100001N9+01501+01061101391ADDAY111061GF104991021011008001001021MD1810061+9999
0067104490999991928102506004+51483+010317FM-12+009099999V02099999006719999999N0200001N9+01281+01221101751ADDAA199006091AY161061GF108991999001004501021001KA1999N+01221MW1601
0037104490999991928102512004+51483+010317FM-12+009099999V0202901N002619999999N0100001N9+01391+01331101641ADDAY161061GF108991999999004501999999
0081104490999991928102606004+51483+010317FM-12+009099999V0209991C00001002401CN0010001N9+01111+01061101061ADDAA199004091AY181061GF108991081061002501999999KA1999N+01001MD1810141+9999MW1631
0051104490999991928102612004+51483+010317FM-12+009099999V0202501N00261004501CN0040001N9+01391+01171100531ADDAY121061GF106991061051004501021001MD1810261+9999
0064104490999991928102706004+51483+010317FM-12+009099999V0209999900931012301CN0200001N9+01001+00611099701ADDAY111061GF106991061051012501021001KA1999N+01001MD1710061+9999
0067104490999991928102806004+51483+010317FM-12+009099999V0209991C00001000151CN0000001N9+00611+00561099631ADDAA199000591AY141061GF108991081051000251999999KA1999N+00501MW1471
0075104490999991928102906004+51483+010317FM-12+009099999V0209999900461220001CN0040001N9+00721+00671101231ADDAA199000691AY111061GF102991999051004501001001KA1999N+00721MD1310401+9999
0051104490999991928102912004+51483+010317FM-12+009099999V0202301N00461220001CN0100001N9+00891+00441101331ADDAY181061GF104991041011008001001001MD1310141+9999
0050104490999991928103006004+51483+010317FM-12+009099999V02099999009319999999N0040001N9+00721+00501101471ADDAY111061GF107991999001999999021001KA1999N+00611
0051104490999991928103112004+51483+010317FM-12+009099999V0202301N002619999999N0100001N9+01281+00391101131ADDAY111061GF106991999999022501999999MD1710061+9999
0031104490999991928110112004+51483+010317FM-12+009099999V0202501N001019999999N0010001N9+01111+00891100421ADDAY141061MD1610061+9999MW1101
0050104490999991928110206004+51483+010317FM-12+009099999V02099999002619999999N0040001N9+00891+00671100601ADDAY141061GF108991999001004501021001KA1999N+00891
0057104490999991928110212004+51483+010317FM-12+009099999V0202001N00261000601CN0020001N9+01111+00891100551ADDAY121061GF107991071051000751001001MD1610061+9999MW1471
0037104490999991928110312004+51483+010317FM-12+009099999V0202001N00461220001CN0200001N9+01221+00611101131ADDAY111061GF104991001001999999031021
0050104490999991928110406004+51483+010317FM-12+009099999V0209991C000019999999N0040001N9+00501+00441101011ADDAY111061GF108991999001004501021001KA1999N+00281
0081104490999991928110506004+51483+010317FM-12+009099999V0209999900461220001CN0020001N9+00611+00561100821ADDAA199007091AY161061GF104991021051012501001021KA1999N+00501MD1210061+9999MW1441
0037104490999991928110512004+51483+010317FM-12+009099999V0202001N009319999999N0040001N9+00781+00391100771ADDAY141061GF106991999011008001001001
0037104490999991928110612004+51483+010317FM-12+009099999V0202501N009319999999N0100001N9+00781+00391999999ADDAY111061GF106991999011012501001001
0051104490999991928110712004+51483+010317FM-12+009099999V0209991C00001220001CN0040001N9+00781+00171101011ADDAY141061GF101991001001999999001021MD1810141+9999
0067104490999991928110806004+51483+010317FM-12+009099999V0209999900671000151CN0020001N9+00281+00221100751ADDAA199000391AY161061GF108991081051000251999999KA1999N+00221MW1451
0051104490999991928110812004+51483+010317FM-12+009099999V0201101N002619999999N0040001N9+00611+00391100571ADDAY141061GF108991999999002501999999MD1810061+9999
0081104490999991928110906004+51483+010317FM-12+009099999V0209991C00001000151CN0020001N9+00501+00441100971ADDAA199000691AY161061GF108991081051000251999999KA1999N+00391MD1310141+9999MW1511
0057104490999991928110912004+51483+010317FM-12+009099999V0200201N00671002401CN0040001N9+00611+00391101111ADDAY161061GF108991081061002501999999MD1310141+9999MW1611
0070104490999991928111006004+51483+010317FM-12+009099999V0209999900261000151CN0000501N9-00221-00281101331ADDAY121061GF108991081051000251999999KA1999N-00221MD1310201+9999MW1451
0070104490999991928111012004+51483+010317FM-12+009099999V0202501N002619999999N0040001N9-00111-00281102212ADDAY141061GF108991999999004501999999MD1110061+9999EQDQ01+102213APOSLP
0057104490999991928111212004+51483+010317FM-12+009099999V0202001N00671001501CN0040001N9+00721+00671101661ADDAY181061GF108991081061001501999999MD1810061+9999MW1501
0075104490999991928111306004+51483+010317FM-12+009099999V0209999900461002401CN0005001N9+01111+01061101871ADDAA199000391AY181061GF108991081051002501999999KA1999N+00891MD1310061+9999
0037104490999991928111312004+51483+010317FM-12+009099999V0202301N006719999999N0040001N9+01111+00891101841ADDAY121061GF108991999999004501999999
0037104490999991928111412004+51483+010317FM-12+009099999V0202501N004619999999N0040001N9+01001+00781101571ADDAY111061GF106991999999012501999999
0051104490999991928111512004+51483+010317FM-12+009099999V0202001N01231004501CN0040001N9+00891+00441100661ADDAY111061GF107991071051004501001001MD1810261+9999
0067104490999991928111606004+51483+010317FM-12+009099999V0209999900671004501CN0040001N9+00781+00721099641ADDAA199004091AY161061GF108991081061004501999999KA1999N+00781MW1601
0051104490999991928111612004+51483+010317FM-12+009099999V0202501N00671004501CN0200001N9+01001+00611099631ADDAY111061GF108991081051004501999999MD1810141+9999
0061104490999991928111706004+51483+010317FM-12+009099999V0209999901901004501CN0100001N9+00781+00391099011ADDAA199017091AY161061GF106991061051004501001001KA1999N+00721
0051104490999991928111812004+51483+010317FM-12+009099999V0202501N01901004501CN0200001N9+00721+00331100631ADDAY111061GF108991081051004501999999MD1110141+9999
0051104490999991928111912004+51483+010317FM-12+009099999V0202301N00461075001CN0100001N9+01001+00781101621ADDAY111061GF106991041051012501001021MD1610061+9999
0051104490999991928112012004+51483+010317FM-12+009099999V0202501N00931220001CN0100001N9+01001+00391102271ADDAY181061GF104991041011008001001081MD1310141+9999
0037104490999991928112112004+51483+010317FM-12+009099999V0202001N00671220001CN0040001N9+00781+00391102781ADDAY101061GF102991001001999999001021
0064104490999991928112206004+51483+010317FM-12+009099999V0209999901541030001CN0100001N9+00611+00221101901ADDAY111061GF107991021051008001021001KA1999N+00501MD1810141+9999
0051104490999991928112212004+51483+010317FM-12+009099999V0202301N01541220001CN0040001N9+00891+00671101531ADDAY111061GF104991041051012501001021MD1810141+9999
0051104490999991928112312004+51483+010317FM-12+009099999V0202001N006719999999N0100001N9+00891+00671100291ADDAY181061GF108991999999008001999999MD1810261+9999
0057104490999991928112412004+51483+010317FM-12+009099999V0202301N02261030001CN0100001N9+00611+00391099071ADDAY181061GF107991041051002501021001MD1990061+9999MW1601
0051104490999991928112506004+51483+010317FM-12+009099999V0209999900931030001CN0100001N9+00501+00111099661ADDAY181061GF108991041051002501021001MD1610061+9999
0092104490999991928112512004+51483+010317FM-12+009099999V0202301N02261001501CN0040001N9+00391+00171098402ADDAY181061GF108991081061001501999999MD1510942+9999MW1601EQDQ01+098403APOSLPQ02+000942APC3  
0081104490999991928112606004+51483+010317FM-12+009099999V0209999900931001501CN0040001N9+00281+00221097841ADDAA199018091AY161061GF108991081061001501999999KA1999N+00221MD1110461+9999MW1631
0051104490999991928112612004+51483+010317FM-12+009099999V0203201N01541030001CN0040001N9+00501+00281098561ADDAY181061GF107991041051002501021001MD1310401+9999
0037104490999991928112712004+51483+010317FM-12+009099999V0202501N00931075001CN0040001N9+00391+00171099631ADDAY181061GF106991041051004501001021
0075104490999991928112806004+51483+010317FM-12+009099999V0209999900461001501CN0040001N9+00281+00221100431ADDAA199002091AY181061GF108991081061001501999999KA1999N+00221MD1310141+9999
0051104490999991928112812004+51483+010317FM-12+009099999V0203201N001019999999N0040001N9+00391+00331100791ADDAY171061GF108991999999004501999999MD1310141+9999
0075104490999991928112906004+51483+010317FM-12+009099999V0209999900461002401CN0040001N9+00221+00171101901ADDAA199003091AY181061GF108991081051002501999999KA1999N+00111MD1310261+9999
0070104490999991928113006004+51483+010317FM-12+009099999V02099999006719999999N0020001N9+00281+00061101891ADDAY141061GF108991999001004501021001KA1999N+00111MD1810261+9999MW1431
0043104490999991928120106004+51483+010317FM-12+009099999V0209999900671001501CN0040001N9+00501+00281101501ADDAY181061GF108991081061001501999999MW1601
0067104490999991928120206004+51483+010317FM-12+009099999V0209999900671000601CN0005001N9+00391+00331101441ADDAA199010091AY161061GF108991081051000751999999KA1999N+00281MW1471
0051104490999991928120212004+51483+010317FM-12+009099999V0203601N00261030001CN0020001N9+00501+00281101471ADDAY141061GF106991041051004501031001MD1810061+9999
0075104490999991928120306004+51483+010317FM-12+009099999V0209999900261220001CN0100001N9+00111-00111102241ADDAA199002091AY181061GF104991041051008001001021KA1999N+00001MD1310141+9999
0057104490999991928120312004+51483+010317FM-12+009099999V0203201N00261075001CN0020001N9+00281+00061102401ADDAY141061GF106991041011004501001021MD1310141+9999MW1451
0043104490999991928120412004+51483+010317FM-12+009099999V0203601N002619999999N0010001N9+00391+00171103061ADDAY141061GF108991999999004501999999MW1451
0083104490999991928120506004+51483+010317FM-12+009099999V0209999900101012301CN0040001N9+00221+00001103011ADDAY111061GF108991081051012501999999KA1999N+99999MD1810061+9999EQDQ01 +01002ATMN  
0051104490999991928120512004+51483+010317FM-12+009099999V0202301N00261220001CN0040001N9+00501-00111102661ADDAY111061GF104991001001999999031021MD1810141+9999
0081104490999991928120706004+51483+010317FM-12+009099999V0209999900671002401CN0020001N9+00281+00221101461ADDAA199002091AY181061GF108991081061002501999999KA1999N+00281MD1610061+9999MW1621
0037104490999991928120712004+51483+010317FM-12+009099999V0202301N00931075001CN0040001N9+00391+00001101501ADDAY181061GF106991041011004501001021
0057104490999991928120812004+51483+010317FM-12+009099999V0202001N00101220001CN0020001N9+00281+00061101591ADDAY141061GF104991001001999999021021MD1810061+9999MW1451
0070104490999991928121006004+51483+010317FM-12+009099999V0209991C00001000151CN0000501N9-00611-00671101351ADDAY141061GF108991081051000251999999KA1999N-00611MD1810141+9999MW1451
0070104490999991928121106004+51483+010317FM-12+009099999V0209999900931000151CN0005001N9-00111-00171099811ADDAY141061GF108991081051000251999999KA1999N-00221MD1610141+9999MW1441
0031104490999991928121112004+51483+010317FM-12+009099999V0200701N012319999999N0000001N9-00111-00171099711ADDAY161061MD1610141+9999MW1451
0075104490999991928121206004+51483+010317FM-12+009099999V0209999900671004501CN0040001N9-00221-00281099871ADDAA199000391AY171061GF108991081051004501999999KA1999N-00281MD1310141+9999
0067104490999991928121306004+51483+010317FM-12+009099999V0209999900101001501CN0020001N9-00221-00281100531ADDAA199000591AY171061GF108991081061001501999999KA1999N-00221MW1711
0057104490999991928121312004+51483+010317FM-12+009099999V0200501N002619999999N0010001N9-00111-00171100771ADDAY171061GF108991999999999999001001MD1310061+9999MW1711
0064104490999991928121406004+51483+010317FM-12+009099999V02099999002619999999N0020001N9-00221-00281100901ADDAY111061GF108991999001004501021001KA1999N-00281MD1810061+9999
0081104490999991928121506004+51483+010317FM-12+009099999V0209999900101001501CN0020001N9-00391-00441101661ADDAA199000391AY171061GF108991081061001501999999KA1999N-00501MD1310261+9999MW1711
0057104490999991928121606004+51483+010317FM-12+009099999V0209991C00001000151CN0005001N9-00281-00331103191ADDAY141061GF108991081051000251999999MD1310141+9999MW1451
0057104490999991928121612004+51483+010317FM-12+009099999V0209991C00001000151CN0020001N9-00221-00391103221ADDAY171061GF108991081051000251999999MD1810061+9999MW1451
0083104490999991928121706004+51483+010317FM-12+009099999V0209999900101004501CN0040001N9-00281-00331102341ADDAY111061GF108991081051004501999999KA1999N+99999MD1810201+9999EQDQ01 -00112ATMN  
0051104490999991928121712004+51483+010317FM-12+009099999V0202001N002619999999N0040001N9-00111-00171102101ADDAY121061GF108991999999004501999999MD1810141+9999
0081104490999991928121806004+51483+010317FM-12+009099999V0209999900261000151CN0005001N9-00281-00331102661ADDAA199001091AY171061GF108991081051000251999999KA1999N-00281MD1310201+9999MW1451
0057104490999991928121812004+51483+010317FM-12+009099999V0200901N00461075001CN0020001N9-00391-00441103041ADDAY141061GF106991041051004501001021MD1110141+9999MW1451
0056104490999991928121906004+51483+010317FM-12+009099999V02099999001019999999N0020001N9-00501-00561103551ADDAY111061GF108991999001004501021001KA1999N-00501MW1451
0043104490999991928121912004+51483+010317FM-12+009099999V0201601N001019999999N0020001N9-00501-00561103461ADDAY141061GF108991999999004501999999MW1451
0070104490999991928122006004+51483+010317FM-12+009099999V02099999002619999999N0020001N9-00611-00671103061ADDAY141061GF108991999001004501021001KA1999N-00721MD1810061+9999MW1451
0057104490999991928122012004+51483+010317FM-12+009099999V0202001N00461220001CN0020001N9-00501-00671102671ADDAY121061GF104991041011008001001021MD1810261+9999MW1451
0050104490999991928122106004+51483+010317FM-12+009099999V0209999900101220001CN0040001N9-01001-01061102671ADDAY101061GF106991999001999999021001KA1999N-01111
0043104490999991928122112004+51483+010317FM-12+009099999V0202301N001019999999N0020001N9-00611-00671102791ADDAY141061GF108991999999004501999999MW1451
0067104490999991928122206004+51483+010317FM-12+009099999V02099999002619999999N0020001N9-00611-00671102871ADDAA199005091AY141061GF108991999001008001021001KA1999N-04001MW1451
0057104490999991928122212004+51483+010317FM-12+009099999V0202001N002619999999N0020001N9-00391-00441102831ADDAY141061GF108991999999004501999999MD1810061+9999MW1451
0081104490999991928122306004+51483+010317FM-12+009099999V0209999900671000151CN0010001N9-00391-00441102901ADDAA199000691AY171061GF108991081051000251999999KA1999N-00501MD1510141+9999MW1101
0051104490999991928122312004+51483+010317FM-12+009099999V0202001N00671220001CN0040001N9-00111-00171999999ADDAY111061GF101991999051008001001021MD1810261+9999
0056104490999991928122406004+51483+010317FM-12+009099999V02099999001019999999N0020001N9-00111-00171999999ADDAY111061GF108991999001004501021001KA1999N-00221MW1451
0051104490999991928122412004+51483+010317FM-12+009099999V0202001N01231220001CN0040001N9-00111-00171103001ADDAY121061GF104991041051004501001001MD1610061+9999
0057104490999991928122512004+51483+010317FM-12+009099999V0202701N015419999999N0040001N9+00221+00001102161ADDAY171061GF108991999999999999001001MD1210141+9999MW1211
0057104490999991928122612004+51483+010317FM-12+009099999V0202501N01231002401CN0020001N9+00611+00561101221ADDAY161061GF108991081061002501999999MD1810261+9999MW1531
0061104490999991928122706004+51483+010317FM-12+009099999V0209999900931004501CN0040001N9+00281+00061101631ADDAA199006091AY161061GF108991081051004501999999KA1999N+00221
0037104490999991928122712004+51483+010317FM-12+009099999V0202701N01541004501CN0100001N9+00281-00111101641ADDAY121061GF108991081051004501999999
0075104490999991928122806004+51483+010317FM-12+009099999V0209999900461007801CN0040001N9+00001-00061101491ADDAA199001091AY171061GF108991081051008001999999KA1999N+00001MD1810141+9999
0057104490999991928122812004+51483+010317FM-12+009099999V0202001N00931002401CN0020001N9+00221+00001101181ADDAY161061GF108991081061002501999999MD1810261+9999MW1631
0067104490999991928122906004+51483+010317FM-12+009099999V0209999900261000151CN0002001N9+00001-00061101141ADDAA199000391AY111061GF108991081051000251999999KA1999N-00221MW1451
0057104490999991928122912004+51483+010317FM-12+009099999V0202001N00461000151CN0005001N9+00111-00111100921ADDAY161061GF108991081051000251999999MD1810201+9999MW1451
0081104490999991928123106004+51483+010317FM-12+009099999V0209991C00001001501CN0002001N9+00001-00061099971ADDAA199006091AY161061GF108991081061001501999999KA1999N+00001MD1310141+9999MW1731
0057104490999991928123112004+51483+010317FM-12+009099999V0200701N00671001501CN0005001N9-00111-00171100161ADDAY171061GF108991081061001501999999MD1310141+9999MW1731
