0081104530999991928080206004+51800+010617FM-12+034899999V0209999900931000151CN0000501N9+00611+00561999999ADDAA199010091AY161061GF108991081051000251999999KA1999N+00501MD1110061+9999MW1631
0056104530999991928090106004+51800+010617FM-12+034899999V0209999900671000151CN0000501N9+00221+00171999999ADDAY111061GF108991081051000251999999KA1999N+00221MW1431
0064104530999991928090206004+51800+010617FM-12+034899999V0209999900261220001CN0200001N9+00391+00331999999ADDAY101061GF101991011011002501001001KA1999N+00281MD1310061+9999
0050104530999991928090306004+51800+010617FM-12+034899999V0209999900461220001CN0200001N9+00721+00331999999ADDAY101061GF104991999011002501001001KA1999N+00501
0064104530999991928090406004+51800+010617FM-12+034899999V0209999900671220001CN0200001N9+00781+00171999999ADDAY101061GF104991011051999999001021KA1999N+00611MD1310061+9999
0037104530999991928090506004+51800+010617FM-12+034899999V0209999900461220001CN0200001N9+01281+00391999999ADDAY101061GF100991001001999999001001
0050104530999991928090606004+51800+010617FM-12+034899999V0209999901231220001CN0200001N9+01391+00721999999ADDAY101061GF102991001001999999001021KA1999N+01221
0051104530999991928090706004+51800+010617FM-12+034899999V0209999900461220001CN0100001N9+00611+00391999999ADDAY101061GF101991011011002501001001MD1310261+9999
0050104530999991928090806004+51800+010617FM-12+034899999V0209999900261220001CN0200001N9+01501+01061999999ADDAY101061GF104991999001999999021001KA1999N+01111
0064104530999991928090906004+51800+010617FM-12+034899999V0209999900261220001CN0200001N9+01721+01061999999ADDAY101061GF102991011011004501001021KA1999N+01501MD1410001+9999
0064104530999991928091006004+51800+010617FM-12+034899999V0209999900671220001CN0200001N9+01281+01221999999ADDAY101061GF106991001001999999021021KA1999N+01281MD1210061+9999
0056104530999991928091106004+51800+010617FM-12+034899999V0209999900461000151CN0000001N9+00891+00831999999ADDAY111061GF108991081051000251999999KA1999N+00891MW1431
0067104530999991928091206004+51800+010617FM-12+034899999V0209999900671000151CN0002001N9+00391+00331999999ADDAA199001091AY161061GF108991081051000251999999KA1999N+00391MW1431
0070104530999991928091306004+51800+010617FM-12+034899999V0209999900461000151CN0002001N9+00221+00171999999ADDAY101061GF108991081051000251999999KA1999N+00221MD1410001+9999MW1431
0081104530999991928091406004+51800+010617FM-12+034899999V0209999901231000151CN0000501N9+00501+00441999999ADDAA199000691AY161061GF108991081051000251999999KA1999N+00501MD1410001+9999MW1431
0070104530999991928091506004+51800+010617FM-12+034899999V0209999900671000151CN0000501N9+00611+00561999999ADDAY101061GF108991081051000251999999KA1999N+00501MD1410001+9999MW1451
0070104530999991928091606004+51800+010617FM-12+034899999V0209999900671000151CN0000501N9+00611+00561999999ADDAY141061GF108991081051000251999999KA1999N+00501MD1310061+9999MW1431
0064104530999991928091706004+51800+010617FM-12+034899999V0209999900461220001CN0200001N9+00781+00171999999ADDAY101061GF101991999001999999021001KA1999N+00611MD1310061+9999
0050104530999991928091806004+51800+010617FM-12+034899999V0209999900931220001CN0200001N9+00721+00501999999ADDAY101061GF102991011011002501001021KA1999N+00611
0050104530999991928091906004+51800+010617FM-12+034899999V0209999900101004501CN0200001N9+01111+00501999999ADDAY111061GF108991081051004501999999KA1999N+01001
0064104530999991928092006004+51800+010617FM-12+034899999V0209999900461220001CN0200001N9+00281-00281999999ADDAY141061GF102991011011002501001021KA1999N+00281MD1110061+9999
0070104530999991928092106004+51800+010617FM-12+034899999V0209999900931000151CN0000501N9+00221+00171999999ADDAY141061GF108991081051000251999999KA1999N+00111MD1410001+9999MW1431
0081104530999991928092206004+51800+010617FM-12+034899999V0209999900671000151CN0000501N9+00001-00061999999ADDAA199001091AY161061GF108991081051000251999999KA1999N+00001MD1510061+9999MW1431
0081104530999991928092306004+51800+010617FM-12+034899999V0209999901231000151CN0000501N9+00001-00061999999ADDAA199001091AY171061GF108991081051000251999999KA1999N-00111MD1810061+9999MW1451
0081104530999991928092406004+51800+010617FM-12+034899999V0209999900461000151CN0000501N9-00111-00171999999ADDAA199001091AY171061GF108991081051000251999999KA1999N-00111MD1610061+9999MW1731
0081104530999991928092506004+51800+010617FM-12+034899999V0209999900461075001CN0005001N9+00111+00061999999ADDAA199012091AY171061GF106991041051004501001021KA1999N-00111MD1310141+9999MW1421
0070104530999991928092606004+51800+010617FM-12+034899999V0209999900671000151CN0000501N9+00111+00061999999ADDAY141061GF108991081051000251999999KA1999N+00111MD1310141+9999MW1451
0064104530999991928092706004+51800+010617FM-12+034899999V0209999900101220001CN0200001N9+00281+00061999999ADDAY101061GF100991001001999999001001KA1999N+00221MD1510001+9999
0064104530999991928092806004+51800+010617FM-12+034899999V0209999900671220001CN0100001N9+00611+00001999999ADDAY111061GF104991041011002501001001KA1999N+00281MD1810201+9999
0064104530999991928092906004+51800+010617FM-12+034899999V0209999900101002401CN0100001N9+00611+00001999999ADDAY111061GF106991061051002501001001KA1999N+00501MD1310141+9999
0081104530999991928093006004+51800+010617FM-12+034899999V0209999900461000151CN0000001N9+00391+00331999999ADDAA199001091AY141061GF108991081051000251999999KA1999N+00281MD1810141+9999MW1451
0081104530999991928100106004+51800+010617FM-12+034899999V0209999900931000151CN0000001N9-00221-00391999999ADDAA199001091AY181061GF108991081051000251999999KA1999N-00221MD1810141+9999MW1451
0081104530999991928100206004+51800+010617FM-12+034899999V0209999902261000151CN0000501N9+00001-00061999999ADDAA199000391AY171061GF108991081051000251999999KA1999N+00001MD1710201+9999MW1431
0075104530999991928100306004+51800+010617FM-12+034899999V0209999901231220001CN0200001N9-00111-00171999999ADDAA199001091AY171061GF100991001001999999001001KA1999N-00221MD1310201+9999
0064104530999991928100406004+51800+010617FM-12+034899999V0209999900671220001CN0200001N9+00001-00221999999ADDAY101061GF101991999001999999021001KA1999N+00001MD1410001+9999
0050104530999991928100506004+51800+010617FM-12+034899999V0209999901541220001CN0200001N9+00111-00111999999ADDAY101061GF101991011011002501001001KA1999N+00001
0070104530999991928100606004+51800+010617FM-12+034899999V0209999900931000151CN0000501N9+00611+00561999999ADDAY101061GF108991081051000251999999KA1999N+00281MD1410001+9999MW1431
0067104530999991928100706004+51800+010617FM-12+034899999V0209999900931000151CN0000501N9+00391+00331999999ADDAA199000691AY161061GF108991081051000251999999KA1999N+00281MW1431
0056104530999991928100806004+51800+010617FM-12+034899999V0209999900931000151CN0000501N9+00501+00441999999ADDAY141061GF108991081051000251999999KA1999N+00391MW1451
0064104530999991928100906004+51800+010617FM-12+034899999V0209999901541030001CN0200001N9+00721+00331999999ADDAY111061GF106991041051004501031001KA1999N+00501MD1610061+9999
0081104530999991928101006004+51800+010617FM-12+034899999V0209999901231000151CN0000501N9+00501+00441999999ADDAA199011091AY161061GF108991081051000251999999KA1999N+00501MD1210061+9999MW1431
0081104530999991928101106004+51800+010617FM-12+034899999V0209999901231000151CN0000501N9-00111-00171999999ADDAA199002091AY161061GF108991081051000251999999KA1999N-00111MD1310141+9999MW1431
0067104530999991928101206004+51800+010617FM-12+034899999V0209999900931000151CN0000001N9-00221-00281999999ADDAA199026091AY161061GF108991081051000251999999KA1999N-00221MW1451
0064104530999991928101306004+51800+010617FM-12+034899999V0209999900671220001CN0500001N9-00501-00561999999ADDAY101061GF106991001001999999021021KA1999N-00501MD1410001+9999
0081104530999991928101406004+51800+010617FM-12+034899999V0209999901231000151CN0000501N9-00501-00561999999ADDAA199002091AY141061GF108991081051000251999999KA1999N-00501MD1310141+9999MW1431
0064104530999991928101506004+51800+010617FM-12+034899999V0209999900101220001CN0200001N9-00501-00561999999ADDAY101061GF100991001001999999001001KA1999N-00611MD1510061+9999
0050104530999991928101606004+51800+010617FM-12+034899999V0209999900261220001CN0200001N9-00391-00561999999ADDAY101061GF100991001001999999001001KA1999N-00501
0064104530999991928101706004+51800+010617FM-12+034899999V0209999901231030001CN0200001N9+00111-00111999999ADDAY101061GF108991021051004501021001KA1999N-00221MD1310061+9999
0081104530999991928101806004+51800+010617FM-12+034899999V0209999901541000151CN0000501N9+00281+00221999999ADDAA199001091AY161061GF108991081051000251999999KA1999N+00281MD1310261+9999MW1431
0081104530999991928101906004+51800+010617FM-12+034899999V0209999902261000151CN0000501N9+00391+00331999999ADDAA199023091AY161061GF108991081051000251999999KA1999N+00391MD1710061+9999MW1451
0067104530999991928102006004+51800+010617FM-12+034899999V0209999901901000151CN0000501N9+00501+00441999999ADDAA199001091AY161061GF108991081051000251999999KA1999N+00391MW1431
0067104530999991928102106004+51800+010617FM-12+034899999V0209999901901000151CN0000501N9+00501+00441999999ADDAA199002091AY161061GF108991081051000251999999KA1999N+00501MW1611
0081104530999991928102206004+51800+010617FM-12+034899999V0209999900461220001CN0200001N9+00501+00441999999ADDAA199000691AY161061GF108991999001999999021001KA1999N+00391MD1510001+9999MW1611
0067104530999991928102306004+51800+010617FM-12+034899999V0209999901231000151CN0000501N9+00281+00221999999ADDAA199000591AY161061GF108991081051000251999999KA1999N+00281MW1451
0070104530999991928102406004+51800+010617FM-12+034899999V0209999902261000151CN0000501N9+00281+00221999999ADDAY141061GF108991081051000251999999KA1999N-00221MD1210061+9999MW1431
0081104530999991928102506004+51800+010617FM-12+034899999V0209999901231000151CN0000501N9+00781+00721999999ADDAA199006091AY161061GF108991081051000251999999KA1999N+00721MD1210061+9999MW1451
0070104530999991928102606004+51800+010617FM-12+034899999V0209999900931000151CN0000501N9+00781+00721999999ADDAY141061GF108991081051000251999999KA1999N+00721MD1610141+9999MW1431
0064104530999991928102706004+51800+010617FM-12+034899999V0209999901901030001CN0200001N9+00781+00391999999ADDAY111061GF106991011011002501021001KA1999N+00611MD1710141+9999
0050104530999991928102806004+51800+010617FM-12+034899999V0209999900671220001CN0200001N9+01281+00391999999ADDAY111061GF106991001001999999021021KA1999N+01281
0081104530999991928102906004+51800+010617FM-12+034899999V0209999900931000151CN0000501N9+00221+00171999999ADDAA199002091AY161061GF108991081051000251999999KA1999N+00221MD1310201+9999MW1611
0056104530999991928103006004+51800+010617FM-12+034899999V0209999901541000151CN0000501N9+00001-00061999999ADDAY141061GF108991081051000251999999KA1999N+00001MW1451
0050104530999991928103106004+51800+010617FM-12+034899999V0209999901231220001CN0200001N9+00391+00001999999ADDAY111061GF104991001001999999021021KA1999N+00221
0070104530999991928110106004+51800+010617FM-12+034899999V0209999900461000151CN0000501N9+01221+01171999999ADDAY111061GF108991081051000251999999KA1999N+01221MD1810201+9999MW1471
0064104530999991928110206004+51800+010617FM-12+034899999V0209999901541220001CN0200001N9+00281+00221999999ADDAY141061GF101991011011002501001001KA1999N+00221MD1210061+9999
0075104530999991928110306004+51800+010617FM-12+034899999V0209999900931220001CN0200001N9+00221+00171999999ADDAA199000391AY161061GF104991041011004501001021KA1999N+00221MD1310061+9999
0070104530999991928110406004+51800+010617FM-12+034899999V0209999900461000151CN0000001N9+00281+00221999999ADDAY141061GF108991081051000251999999KA1999N+00281MD1810061+9999MW1451
0081104530999991928110506004+51800+010617FM-12+034899999V0209999902261000151CN0000501N9+00111+00061999999ADDAA199002091AY161061GF108991081051000251999999KA1999N+00111MD1510061+9999MW1431
0067104530999991928110606004+51800+010617FM-12+034899999V0209999901541000151CN0000001N9-00111-00171999999ADDAA199000691AY171061GF108991081051000251999999KA1999N-00111MW1451
0064104530999991928110706004+51800+010617FM-12+034899999V0209999900461220001CN0200001N9-00111-00171999999ADDAY141061GF101991999001999999021001KA1999N-00111MD1510001+9999
0070104530999991928110806004+51800+010617FM-12+034899999V0209999901541000151CN0000501N9-00111-00171999999ADDAY141061GF108991081051000251999999KA1999N-00221MD1610061+9999MW1451
0081104530999991928110906004+51800+010617FM-12+034899999V0209999901541000151CN0000501N9+00001-00061999999ADDAA199000691AY171061GF108991081051000251999999KA1999N-00111MD1310141+9999MW1451
0050104530999991928111006004+51800+010617FM-12+034899999V0209999900931220001CN0200001N9-00611-01111999999ADDAY141061GF101991011011002501001001KA1999N-00721
0081104530999991928111106004+51800+010617FM-12+034899999V0209999901901000151CN0000501N9-00281-00331999999ADDAA199000691AY171061GF108991081051000251999999KA1999N-00391MD1710061+9999MW1711
0081104530999991928111206004+51800+010617FM-12+034899999V0209999901901000151CN0000501N9+00001-00061999999ADDAA199002091AY161061GF108991081051000251999999KA1999N-00111MD1710061+9999MW1451
0081104530999991928111306004+51800+010617FM-12+034899999V0209999900671000151CN0000001N9+00721+00671999999ADDAA199001091AY141061GF108991081051000251999999KA1999N+00391MD1310141+9999MW1431
0081104530999991928111406004+51800+010617FM-12+034899999V0209999901231000151CN0000501N9+00221+00171999999ADDAA199001091AY161061GF108991081051000251999999KA1999N+00221MD1810141+9999MW1431
0081104530999991928111506004+51800+010617FM-12+034899999V0209999901231000151CN0000501N9+00111+00061999999ADDAA199001091AY161061GF108991081051000251999999KA1999N+00001MD1610201+9999MW1451
0067104530999991928111606004+51800+010617FM-12+034899999V0209999902261000151CN0000501N9+00281+00221999999ADDAA199016091AY161061GF108991081051000251999999KA1999N+00111MW1611
0081104530999991928111706004+51800+010617FM-12+034899999V0209999902261000151CN0000501N9+00111+00061999999ADDAA199025091AY161061GF108991081051000251999999KA1999N+00111MD1210141+9999MW1471
0081104530999991928111806004+51800+010617FM-12+034899999V0209999902261000151CN0000501N9-00111-00171999999ADDAA199003091AY171061GF108991081051000251999999KA1999N-00111MD1210261+9999MW1451
0081104530999991928111906004+51800+010617FM-12+034899999V0209999901901000151CN0000501N9+00001-00061999999ADDAA199002091AY161061GF108991081051000251999999KA1999N-00111MD1210141+9999MW1451
0070104530999991928112006004+51800+010617FM-12+034899999V0209999901541000151CN0000501N9+00221+00171999999ADDAY111061GF108991081051000251999999KA1999N+00111MD1210141+9999MW1611
0064104530999991928112106004+51800+010617FM-12+034899999V0209999900671220001CN0200001N9+00001-00061999999ADDAY141061GF102991999001999999021001KA1999N+00001MD1310141+9999
0064104530999991928112206004+51800+010617FM-12+034899999V0209999901541075001CN0200001N9+00221-00331999999ADDAY111061GF106991021051004501001081KA1999N+00111MD1810061+9999
0081104530999991928112306004+51800+010617FM-12+034899999V0209999901901000151CN0000501N9+00281+00221999999ADDAA199010091AY191061GF108991081051000251999999KA1999N+00221MD1410001+9999MW1451
0067104530999991928112406004+51800+010617FM-12+034899999V0209999902261000151CN0000501N9-00221-00281999999ADDAA199016091AY171061GF108991081051000251999999KA1999N-00221MW1451
0081104530999991928112506004+51800+010617FM-12+034899999V0209999902261000151CN0000501N9-00111-00171999999ADDAA199017091AY171061GF108991081051000251999999KA1999N-00221MD1510201+9999MW1451
0100104530999991928112606004+51800+010617FM-12+034899999V0202701N01541000151CN0000501N9-00221-00281999999ADDAA199014091AY171061GF108991081051000251999999KA1999N-00221MD1310662+9999MW1711EQDQ01+000662APC3  
0081104530999991928112706004+51800+010617FM-12+034899999V0209999901901000151CN0000501N9-00281-00331999999ADDAA199015091AY171061GF108991081051000251999999KA1999N-00281MD1210061+9999MW1451
0081104530999991928112806004+51800+010617FM-12+034899999V0209999900671000151CN0000501N9-00281-00331999999ADDAA199007091AY171061GF108991081051000251999999KA1999N-00281MD1310141+9999MW1441
0081104530999991928112906004+51800+010617FM-12+034899999V0209999900931000151CN0000501N9-00391-00441999999ADDAA199003091AY171061GF108991081051000251999999KA1999N-00391MD1310201+9999MW1451
0081104530999991928113006004+51800+010617FM-12+034899999V0209999900931000151CN0000501N9-00281-00331999999ADDAA199001091AY171061GF108991081051000251999999KA1999N-00281MD1510201+9999MW1711
0081104530999991928120106004+51800+010617FM-12+034899999V0209999901901000151CN0000501N9-00221-00281999999ADDAA199000691AY171061GF108991081051000251999999KA1999N-00221MD1410001+9999MW1451
0081104530999991928120206004+51800+010617FM-12+034899999V0209999901901000151CN0000501N9-00111-00171999999ADDAA199010091AY171061GF108991081051000251999999KA1999N-00111MD1710061+9999MW1451
0081104530999991928120306004+51800+010617FM-12+034899999V0209999900931000151CN0000501N9-00391-00441999999ADDAA199003091AY171061GF108991081051000251999999KA1999N-00391MD1310061+9999MW1711
0081104530999991928120406004+51800+010617FM-12+034899999V0209999900931000151CN0000501N9-00281-00331999999ADDAA199000691AY171061GF108991081051000251999999KA1999N-00501MD1310141+9999MW1431
0038104530999991928120506004+51800+010617FM-12+034899999V02099999009319999999N0100001N9-00281-00331999999ADDAY141061KA1999N-00281MD1710141+9999
0067104530999991928120606004+51800+010617FM-12+034899999V0209999901231000151CN0000501N9-00221-00281999999ADDAA199001091AY171061GF108991081051000251999999KA1999N-00221MW1451
0081104530999991928120706004+51800+010617FM-12+034899999V0209999901541000151CN0000501N9-00221-00281999999ADDAA199012091AY171061GF108991081051000251999999KA1999N-00221MD1510061+9999MW1711
0081104530999991928120806004+51800+010617FM-12+034899999V0209999900671000151CN0000501N9-00501-00561999999ADDAA199000691AY171061GF108991081051000251999999KA1999N-00501MD1410001+9999MW1431
0070104530999991928120906004+51800+010617FM-12+034899999V0209999900931000151CN0000501N9-00721-00781999999ADDAY141061GF108991081051000251999999KA1999N-00721MD1410001+9999MW1431
0064104530999991928121006004+51800+010617FM-12+034899999V0209999900931220001CN0200001N9-00781-00831999999ADDAY171061GF100991001001999999001001KA1999N-00781MD1990141+9999
0081104530999991928121106004+51800+010617FM-12+034899999V0209999901231000151CN0000501N9-00611-00671999999ADDAA199001091AY171061GF108991081051000251999999KA1999N-00721MD1810201+9999MW1451
0081104530999991928121206004+51800+010617FM-12+034899999V0209999901231000151CN0000501N9-00781-00831999999ADDAA199001091AY171061GF108991081051000251999999KA1999N-00781MD1210061+9999MW1711
0081104530999991928121306004+51800+010617FM-12+034899999V0209999901231000151CN0000501N9-00721-00781999999ADDAA199002091AY171061GF108991081051000251999999KA1999N-00721MD1210061+9999MW1731
0075104530999991928121406004+51800+010617FM-12+034899999V0209999900461030001CN0100001N9-00781-00831999999ADDAA199000391AY171061GF106991021051004501031001KA1999N-00781MD1610061+9999
0081104530999991928121506004+51800+010617FM-12+034899999V0209999900101000151CN0000501N9-00781-00831999999ADDAA199001091AY171061GF108991081051000251999999KA1999N-00891MD1310201+9999MW1711
0081104530999991928121606004+51800+010617FM-12+034899999V0209999900931000151CN0000501N9-00721-00781999999ADDAA199000391AY171061GF108991081051000251999999KA1999N-01721MD1310141+9999MW1431
0064104530999991928121706004+51800+010617FM-12+034899999V0209999900931030001CN0200001N9-00781-00831999999ADDAY141061GF107991041051004501021001KA1999N-00781MD1810201+9999
0075104530999991928121806004+51800+010617FM-12+034899999V0209999900461030001CN0100001N9-00611-00671999999ADDAA199001091AY171061GF106991021051004501021001KA1999N-00611MD1310141+9999
0081104530999991928121906004+51800+010617FM-12+034899999V0209999900931000151CN0000501N9-01281-01441999999ADDAA199000391AY171061GF108991081051000251999999KA1999N-01281MD1810061+9999MW1431
0064104530999991928122006004+51800+010617FM-12+034899999V0209999900931220001CN0200001N9-00721-01391999999ADDAY101061GF102991001001999999021021KA1999N-00891MD1610141+9999
0064104530999991928122106004+51800+010617FM-12+034899999V0209999900931220001CN0200001N9-00611-01281999999ADDAY111061GF104991001001999999021021KA1999N-00721MD1510061+9999
0050104530999991928122206004+51800+010617FM-12+034899999V0209999900101220001CN0200001N9-00391-01941999999ADDAY101061GF102991999001999999021001KA1999N-00611
0037104530999991928122306004+51800+010617FM-12+034899999V0209999901231220001CN0200001N9-00721-00781999999ADDAY171061GF101991999001999999021001
0050104530999991928122406004+51800+010617FM-12+034899999V0209999900461220001CN0100001N9-00391-00441999999ADDAY141061GF102991001001999999021021KA1999N-00721
0081104530999991928122506004+51800+010617FM-12+034899999V0209999901541000151CN0000501N9-00391-00441999999ADDAA199002091AY171061GF108991081051000251999999KA1999N-00611MD1810201+9999MW1451
0081104530999991928122606004+51800+010617FM-12+034899999V0209999902261000151CN0000501N9-00281-00331999999ADDAA199001091AY171061GF108991081051000251999999KA1999N-00391MD1810401+9999MW1451
0081104530999991928122706004+51800+010617FM-12+034899999V0209999901901000151CN0000501N9-00391-00441999999ADDAA199013091AY171061GF108991081051000251999999KA1999N-00391MD1210061+9999MW1451
0081104530999991928122806004+51800+010617FM-12+034899999V0209999901231000151CN0000501N9-00611-00671999999ADDAA199000691AY171061GF108991081051000251999999KA1999N-00611MD1810061+9999MW1431
0070104530999991928122906004+51800+010617FM-12+034899999V02099999009319999999N0002001N9-00611-00671999999ADDAY101061GF108991999051000251001001KA1999N-00721MD1510061+9999MW1451
0081104530999991928123006004+51800+010617FM-12+034899999V0209999900931000151CN0000501N9-00281-00331999999ADDAA199008091AY171061GF108991081051000251999999KA1999N-00391MD1510141+9999MW1451
0081104530999991928123106004+51800+010617FM-12+034899999V0209999900931000151CN0000501N9-00501-00561999999ADDAA199002091AY171061GF108991081051000251999999KA1999N-00501MD1310061+9999MW1451
