0081104530999991927081206004+51800+010617FM-12+034899999V0209999901231000151CN0040001N9+00501+00441999999ADDAA199048091AY191061GF108991081051000251999999KA1999N+00391MD1210061+9999MW1631
0081104530999991927082606004+51800+010617FM-12+034899999V0209999900931000151CN0000501N9+00501+00441999999ADDAA199008091AY161061GF108991081051000251999999KA1999N+00391MD1310061+9999MW1431
0050104530999991927090106004+51800+010617FM-12+034899999V0209999900931220001CN0100001N9+01221+01171999999ADDAY101061GF102991001001999999001021KA1999N+01001
0050104530999991927090206004+51800+010617FM-12+034899999V0209999900461220001CN0100001N9+01391+00941999999ADDAY101061GF100991001001999999001001KA1999N+01001
0050104530999991927090306004+51800+010617FM-12+034899999V0209999900461220001CN0100001N9+01281+00391999999ADDAY101061GF106991001001999999031021KA1999N+01221
0064104530999991927090406004+51800+010617FM-12+034899999V0209999901231220001CN0200001N9+01001+00941999999ADDAY101061GF102991001001999999001021KA1999N+00891MD1810061+9999
0070104530999991927090506004+51800+010617FM-12+034899999V0209999901541000151CN0000501N9+01001+00941999999ADDAY101061GF108991081051000251999999KA1999N+00891MD1810061+9999MW1431
0064104530999991927090606004+51800+010617FM-12+034899999V0209999900461030001CN0100001N9+01111+01061999999ADDAY101061GF107991011011002501021001KA1999N+01001MD1310061+9999
0064104530999991927090706004+51800+010617FM-12+034899999V0209999900261220001CN0200001N9+01391+00941999999ADDAY101061GF102991011011002501001021KA1999N+01281MD1610061+9999
0081104530999991927090806004+51800+010617FM-12+034899999V0209999901231000151CN0000501N9+00781+00721999999ADDAA199020091AY191061GF108991081051000251999999KA1999N+00781MD1010001+9999MW1451
0070104530999991927090906004+51800+010617FM-12+034899999V0209999902261000151CN0000501N9+00501+00441999999ADDAY101061GF108991081051000251999999KA1999N+00501MD1810201+9999MW1451
0067104530999991927091006004+51800+010617FM-12+034899999V0209999901231000151CN0000501N9+00721+00671999999ADDAA199003091AY161061GF108991081051000251999999KA1999N+00611MW1431
0081104530999991927091106004+51800+010617FM-12+034899999V0209999901231000151CN0000501N9+00611+00561999999ADDAA199007091AY161061GF108991081051000251999999KA1999N+00611MD1210061+9999MW1431
0081104530999991927091206004+51800+010617FM-12+034899999V0209999901231000151CN0000501N9+00391+00331999999ADDAA199001091AY161061GF108991081051000251999999KA1999N+00281MD1210061+9999MW1611
0081104530999991927091306004+51800+010617FM-12+034899999V0209999900261000151CN0000501N9+00281+00221999999ADDAA199008091AY161061GF108991081051000251999999KA1999N+00281MD1310061+9999MW1651
0081104530999991927091406004+51800+010617FM-12+034899999V0209999901541000151CN0000501N9+00391+00331999999ADDAA199003091AY161061GF108991081051000251999999KA1999N+00281MD1810141+9999MW1451
0075104530999991927091506004+51800+010617FM-12+034899999V0209999900261004501CN0100001N9+00391+00331999999ADDAA199002091AY161061GF108991081051004501999999KA1999N+00281MD1310061+9999
0075104530999991927091606004+51800+010617FM-12+034899999V0209999900931030001CN0200001N9+01111+00891999999ADDAA199000391AY161061GF106991021051004501031001KA1999N+00721MD1610061+9999
0081104530999991927091706004+51800+010617FM-12+034899999V0209999901231000151CN0000501N9+00721+00671999999ADDAA199001091AY161061GF108991081051000251999999KA1999N+00721MD1810061+9999MW1451
0067104530999991927091806004+51800+010617FM-12+034899999V0209999901541000151CN0000501N9+00281+00221999999ADDAA199007091AY161061GF108991081051000251999999KA1999N+00221MW1431
0081104530999991927091906004+51800+010617FM-12+034899999V0209999901231000151CN0000501N9+00281+00221999999ADDAA199000591AY161061GF108991081051000251999999KA1999N+00221MD1310061+9999MW1431
0081104530999991927092006004+51800+010617FM-12+034899999V0209999901901000151CN0000501N9+00611+00561999999ADDAA199014091AY161061GF108991081051000251999999KA1999N+00501MD1210201+9999MW1431
0081104530999991927092106004+51800+010617FM-12+034899999V0209999901231000151CN0000501N9+00611+00561999999ADDAA199003091AY161061GF108991081051000251999999KA1999N+00501MD1510141+9999MW1451
0081104530999991927092206004+51800+010617FM-12+034899999V0209999902261000151CN0000501N9+01111+01061999999ADDAA199000691AY161061GF108991081051000251999999KA1999N+01001MD1810141+9999MW1451
0067104530999991927092306004+51800+010617FM-12+034899999V0209999901901000151CN0000501N9+00501+00441999999ADDAA199009091AY191061GF108991081051000251999999KA1999N+00501MW1451
0081104530999991927092406004+51800+010617FM-12+034899999V0209999901901000151CN0000501N9+00501+00441999999ADDAA199010091AY161061GF108991081051000251999999KA1999N+00281MD1710261+9999MW1611
0061104530999991927092506004+51800+010617FM-12+034899999V0209999901231030001CN0002001N9+00281+00221999999ADDAA199000391AY161061GF108991021011002501021001KA1999N+00221
0067104530999991927092606004+51800+010617FM-12+034899999V0209999902261000151CN0000501N9+00281+00221999999ADDAA199001091AY161061GF108991081051000251999999KA1999N+00281MW1451
0081104530999991927092706004+51800+010617FM-12+034899999V0209999901901000151CN0000501N9+00221+00171999999ADDAA199000591AY161061GF108991081051000251999999KA1999N+00111MD1310061+9999MW1451
0075104530999991927092806004+51800+010617FM-12+034899999V0209999900931000151CN0000501N9+00281+00221999999ADDAA199000391AY161061GF108991081051000251999999KA1999N+00221MD1310141+9999
0075104530999991927092906004+51800+010617FM-12+034899999V0209999900461220001CN0200001N9+00391+00331999999ADDAA199000391AY161061GF102991021011002501001001KA1999N+00221MD1810061+9999
0070104530999991927093006004+51800+010617FM-12+034899999V0209999900931000151CN0000501N9+00501+00441999999ADDAY101061GF108991081051000251999999KA1999N+00391MD1710061+9999MW1451
0081104530999991927100106004+51800+010617FM-12+034899999V0209999901541000151CN0000501N9+00221+00171999999ADDAA199000391AY161061GF108991081051000251999999KA1999N+00111MD1810141+9999MW1451
0100104530999991927100206004+51800+010617FM-12+034899999V0209999901901000151CN0000501N9+00391+00331999999ADDAA199000391AY161061GF108991081051000251999999KA1999N+99999MD1110061+9999MW1431EQDQ01 -04392ATMN  
0067104530999991927100306004+51800+010617FM-12+034899999V0209999902261000151CN0000501N9+00111+00061999999ADDAA199009091AY161061GF108991081051000251999999KA1999N+00111MW1451
0070104530999991927100406004+51800+010617FM-12+034899999V0209999901541000151CN0000501N9-00111-00171999999ADDAY141061GF108991081051000251999999KA1999N-00111MD1510061+9999MW1451
0067104530999991927100506004+51800+010617FM-12+034899999V0209999901231000151CN0000501N9+00001-00061999999ADDAA199001091AY171061GF108991081051000251999999KA1999N-00111MW1451
0067104530999991927100606004+51800+010617FM-12+034899999V0209999900931000151CN0000501N9+00001-00061999999ADDAA199001091AY171061GF108991081051000251999999KA1999N+00001MW1451
0081104530999991927100706004+51800+010617FM-12+034899999V0209999901901000151CN0000501N9+00611+00561999999ADDAA199017091AY161061GF108991081051000251999999KA1999N+00221MD1610061+9999MW1451
0081104530999991927100806004+51800+010617FM-12+034899999V0209999900931000151CN0000501N9+00001-00061999999ADDAA199000391AY161061GF108991081051000251999999KA1999N+00001MD1310061+9999MW1431
0064104530999991927100906004+51800+010617FM-12+034899999V0209999900671220001CN0040001N9+00001-00061999999ADDAY101061GF100991001001999999001001KA1999N+00001MD1310061+9999
0064104530999991927101006004+51800+010617FM-12+034899999V0209999900931220001CN0200001N9+00781-01001999999ADDAY101061GF101991011011002501001001KA1999N+00281MD1510001+9999
0064104530999991927101106004+51800+010617FM-12+034899999V0209999900101220001CN0200001N9+01221-00221999999ADDAY101061GF101991001001999999001021KA1999N+01001MD1810141+9999
0067104530999991927101206004+51800+010617FM-12+034899999V0209999900931000151CN0000501N9+00111+00061999999ADDAA199000691AY161061GF108991081051000251999999KA1999N+00001MW1451
0064104530999991927101306004+51800+010617FM-12+034899999V0209999900931220001CN0500001N9+00111+00061999999ADDAY101061GF106991001001999999021021KA1999N+00001MD1810141+9999
0070104530999991927101406004+51800+010617FM-12+034899999V0209999900461000151CN0000501N9+00111+00061999999ADDAY111061GF108991081051000251999999KA1999N+00001MD1810061+9999MW1431
0044104530999991927101506004+51800+010617FM-12+034899999V02099999006719999999N9999999N9+00221+99999999999ADDAY161061KA1999N+00111MD1310061+9999MW1451
0064104530999991927101606004+51800+010617FM-12+034899999V0209999900461220001CN0020001N9+00001-00061999999ADDAY101061GF104991041011002501001001KA1999N-00221MD1810061+9999
0081104530999991927101706004+51800+010617FM-12+034899999V0209999901541000151CN0000501N9+00111+00061999999ADDAA199000591AY161061GF108991081051000251999999KA1999N+00001MD1810261+9999MW1451
0081104530999991927101806004+51800+010617FM-12+034899999V0209999901901000151CN0000501N9+00111+00061999999ADDAA199022091AY161061GF108991081051000251999999KA1999N+00111MD1310261+9999MW1431
0081104530999991927101906004+51800+010617FM-12+034899999V0209999900931000151CN0000501N9+00001-00061999999ADDAA199000391AY161061GF108991081051000251999999KA1999N-00611MD1310061+9999MW1431
0057104530999991927102006004+51800+010617FM-12+034899999V0209999901541000151CN0000501N9+00221+00171999999ADDAY171061GF108991081051000251999999MD1210201+9999MW1451
0050104530999991927102106004+51800+010617FM-12+034899999V0209999900461220001CN0200001N9+00001-00061999999ADDAY141061GF107991999001999999021001KA1999N+00001
0081104530999991927102206004+51800+010617FM-12+034899999V0209999900461000151CN0000501N9+00221+00171999999ADDAA199000691AY161061GF108991081051000251999999KA1999N+00001MD1810201+9999MW1431
0081104530999991927102306004+51800+010617FM-12+034899999V0209999901541000151CN0000501N9+00221+00171999999ADDAA199013091AY161061GF108991081051000251999999KA1999N+00221MD1210061+9999MW1451
0081104530999991927102406004+51800+010617FM-12+034899999V0209999901231000151CN0000501N9+00001-00061999999ADDAA199000391AY171061GF108991081051000251999999KA1999N+00001MD1310141+9999MW1731
0043104530999991927102506004+51800+010617FM-12+034899999V0209999901541000151CN0005001N9+00111+00061999999ADDAY161061GF108991081051000251999999MW1451
0067104530999991927102606004+51800+010617FM-12+034899999V0209999902261000151CN0000501N9+00721+00671999999ADDAA199002091AY161061GF108991081051000251999999KA1999N+00721MW1451
0081104530999991927102706004+51800+010617FM-12+034899999V0209999901901000151CN0000501N9+00721+00671999999ADDAA199000391AY161061GF108991081051000251999999KA1999N+00721MD1310141+9999MW1451
0070104530999991927102806004+51800+010617FM-12+034899999V0209999901901000151CN0000501N9+00721+00671999999ADDAY141061GF108991081051000251999999KA1999N+00721MD1310061+9999MW1451
0089104530999991927102906004+51800+010617FM-12+034899999V0209999902261000151CN0000501N9+99999+99999999999ADDAY141061GF108991081051000251999999KA1999N+00501MD1710061+9999MW1431EQDQ01 -04613ATOT  
0050104530999991927103006004+51800+010617FM-12+034899999V0209999900671220001CN0200001N9+00721-01001999999ADDAY101061GF106991001001999999021021KA1999N+00221
0064104530999991927103106004+51800+010617FM-12+034899999V0209999901231220001CN0200001N9+00721+00671999999ADDAY101061GF106991001001999999021021KA1999N+00721MD1810141+9999
0070104530999991927110106004+51800+010617FM-12+034899999V0209999901541000151CN0000501N9+00281+00221999999ADDAY141061GF108991081051000251999999KA1999N+00281MD1310261+9999MW1801
0070104530999991927110206004+51800+010617FM-12+034899999V0209999901541000151CN0000501N9+00391+00331999999ADDAY101061GF108991081051000251999999KA1999N+00281MD1610141+9999MW1451
0081104530999991927110306004+51800+010617FM-12+034899999V0209999901231000151CN0000501N9+01001+00941999999ADDAA199005091AY161061GF108991081051000251999999KA1999N+00781MD1410001+9999MW1451
0089104530999991927110406004+51800+010617FM-12+034899999V0209999901901000151CN0000501N9+00721+00671999999ADDAY141061GF108991081051000251999999KA1999N+99999MD1610141+9999MW1431EQDQ01 +00892ATMN  
0081104530999991927110506004+51800+010617FM-12+034899999V0209999900931000151CN0000501N9+00391+00331999999ADDAA199004091AY161061GF108991081051000251999999KA1999N+00281MD1510061+9999MW1631
0081104530999991927110606004+51800+010617FM-12+034899999V0209999902261000151CN0000501N9+00001-00061999999ADDAA199001091AY171061GF108991081051000251999999KA1999N+00001MD1990141+9999MW1461
0081104530999991927110706004+51800+010617FM-12+034899999V0209999901231000151CN0000501N9+00001-00061999999ADDAA199012091AY161061GF108991081051000251999999KA1999N+00001MD1310061+9999MW1731
0081104530999991927110806004+51800+010617FM-12+034899999V0209999901231000151CN0000501N9-00111-00171999999ADDAA199000691AY171061GF108991081051000251999999KA1999N-00221MD1210061+9999MW1451
0081104530999991927110906004+51800+010617FM-12+034899999V0209999900931000151CN0000501N9-00221-00281999999ADDAA199002091AY171061GF108991081051000251999999KA1999N-00281MD1810201+9999MW1731
0070104530999991927111006004+51800+010617FM-12+034899999V0209999900931000151CN0000501N9-00501-00561999999ADDAY141061GF108991081051000251999999KA1999N-00501MD1210061+9999MW1451
0081104530999991927111106004+51800+010617FM-12+034899999V0209999901231000151CN0000501N9-00501-00561999999ADDAA199001091AY171061GF108991081051000251999999KA1999N-00501MD1210061+9999MW1451
0070104530999991927111206004+51800+010617FM-12+034899999V0209999900101000151CN0000501N9-00721-00781999999ADDAY141061GF108991081051000251999999KA1999N-00721MD1310141+9999MW1431
0081104530999991927111306004+51800+010617FM-12+034899999V0209999900461000151CN0000501N9-00721-00781999999ADDAA199001091AY171061GF108991081051000251999999KA1999N-00721MD1310061+9999MW1471
0070104530999991927111406004+51800+010617FM-12+034899999V0209999900931000151CN0000501N9-00781-00831999999ADDAY141061GF108991081051000251999999KA1999N-00781MD1810141+9999MW1431
0081104530999991927111506004+51800+010617FM-12+034899999V0209999900931000151CN0000501N9-00501-00561999999ADDAA199001091AY171061GF108991081051000251999999KA1999N-00611MD1310061+9999MW1451
0067104530999991927111606004+51800+010617FM-12+034899999V0209999900671000151CN0000501N9-00281-00331999999ADDAA199001091AY171061GF108991081051000251999999KA1999N-00501MW1451
0061104530999991927111706004+51800+010617FM-12+034899999V0209999900101220001CN0100001N9-00891-01221999999ADDAA199001091AY101061GF102991001001999999001021KA1999N-00891
0064104530999991927111806004+51800+010617FM-12+034899999V0209999900461220001CN0200001N9-00611-01501999999ADDAY101061GF100991001001999999001001KA1999N-01001MD1510061+9999
0050104530999991927111906004+51800+010617FM-12+034899999V0209999901231220001CN0200001N9-00891-00941999999ADDAY141061GF101991011011002501001001KA1999N-00891
0064104530999991927112006004+51800+010617FM-12+034899999V0209999901231004501CN0200001N9-00721-01891999999ADDAY101061GF107991071051004501001001KA1999N-01001MD1610061+9999
0081104530999991927112106004+51800+010617FM-12+034899999V0209999901901000151CN0000501N9-00781-00831999999ADDAA199001091AY171061GF108991081051000251999999KA1999N-01111MD1510141+9999MW1731
0081104530999991927112206004+51800+010617FM-12+034899999V0209999901541000151CN0000501N9-00721-00781999999ADDAA199001091AY171061GF108991081051000251999999KA1999N-00781MD1810201+9999MW1451
0070104530999991927112306004+51800+010617FM-12+034899999V0209999900461220001CN0000501N9-00111-00171999999ADDAY141061GF107991999001999999021001KA1999N-01001MD1810141+9999MW1461
0075104530999991927112406004+51800+010617FM-12+034899999V0209999900931220001CN0200001N9-00721-00781999999ADDAA199001091AY171061GF101991011011002501001001KA1999N-00781MD1310201+9999
0081104530999991927112506004+51800+010617FM-12+034899999V0209999900931000151CN0000501N9-00111-00171999999ADDAA199000391AY161061GF108991081051000251999999KA1999N-00281MD1310141+9999MW1451
0064104530999991927112606004+51800+010617FM-12+034899999V0209999900931220001CN0200001N9-00221-00281999999ADDAY141061GF102991001001999999021021KA1999N-00281MD1310141+9999
0064104530999991927112706004+51800+010617FM-12+034899999V0209999900931220001CN0500001N9+00501-01221999999ADDAY101061GF102991001001999999001021KA1999N+00281MD1510201+9999
0080104530999991927112806004+51800+010617FM-12+034899999V0209999900461220001CN0100001N9+00111-00611999999ADDAA199030091AY111061GF104991999001999999021001KA1999N+99999EQDQ01 +01002ATMN  
0050104530999991927112906004+51800+010617FM-12+034899999V0209999900671220001CN0200001N9+00391-01281999999ADDAY101061GF101991011011002501001001KA1999N+00281
0070104530999991927113006004+51800+010617FM-12+034899999V0209999901231000151CN0000501N9-00281-00331999999ADDAY101061GF108991081051000251999999KA1999N-00281MD1110061+9999MW1471
0067104530999991927120106004+51800+010617FM-12+034899999V0209999901231000151CN0000001N9-00721-02721999999ADDAA199008091AY171061GF108991081051000251999999KA1999N-00721MW1451
0064104530999991927120206004+51800+010617FM-12+034899999V0209999901231220001CN0200001N9-00501-00561999999ADDAY141061GF101991001001999999001021KA1999N-00611MD1410001+9999
0064104530999991927120306004+51800+010617FM-12+034899999V0209999900931220001CN0200001N9-00221-00391999999ADDAY101061GF101991011011002501001001KA1999N-00221MD1810141+9999
0057104530999991927120406004+51800+010617FM-12+034899999V0209999901231000151CN0000501N9-00501-00561999999ADDAY101061GF108991081051000251999999MD1810141+9999MW1471
0064104530999991927120506004+51800+010617FM-12+034899999V0209999900931004501CN0200001N9+00111-00441999999ADDAY101061GF107991071051004501001001KA1999N-00221MD1810141+9999
0050104530999991927120606004+51800+010617FM-12+034899999V0209999900931030001CN0500001N9+00281-00111999999ADDAY111061GF107991011011002501021001KA1999N+00111
0056104530999991927120706004+51800+010617FM-12+034899999V0209999901541000151CN0000501N9-00221-00281999999ADDAY101061GF108991081051000251999999KA1999N-00221MW1471
0070104530999991927120806004+51800+010617FM-12+034899999V0209999901231000151CN0002001N9-00391-00441999999ADDAY141061GF108991081051000251999999KA1999N-00391MD1510061+9999MW1431
0070104530999991927120906004+51800+010617FM-12+034899999V0209999900931000151CN0000501N9-00611-00671999999ADDAY141061GF108991081051000251999999KA1999N-00611MD1410001+9999MW1451
0070104530999991927121006004+51800+010617FM-12+034899999V0209999900461000151CN0000501N9-00721-00781999999ADDAY141061GF108991081051000251999999KA1999N-00721MD1310061+9999MW1451
0070104530999991927121106004+51800+010617FM-12+034899999V0209999900461000151CN0000501N9-00721-00781999999ADDAY141061GF108991081051000251999999KA1999N-00721MD1610061+9999MW1451
0070104530999991927121206004+51800+010617FM-12+034899999V0209999900671000151CN0100001N9-00781-00831999999ADDAY141061GF108991081051000251999999KA1999N-00891MD1810141+9999MW1431
0064104530999991927121306004+51800+010617FM-12+034899999V0209999900671000151CN0200001N9-00501-01391999999ADDAY101061GF108991081051000251999999KA1999N-00611MD1610061+9999
0081104530999991927121406004+51800+010617FM-12+034899999V0209999900671000151CN0000501N9-00721-00781999999ADDAA199002091AY171061GF108991081051000251999999KA1999N-00721MD1210061+9999MW1451
0070104530999991927121506004+51800+010617FM-12+034899999V0209999900671000151CN0000501N9-01221-01281999999ADDAY141061GF108991081051000251999999KA1999N-01221MD1610061+9999MW1451
0067104530999991927121606004+51800+010617FM-12+034899999V0209999900931000151CN0000501N9-01501-01561999999ADDAA199001091AY171061GF108991081051000251999999KA1999N-01501MW1451
0081104530999991927121706004+51800+010617FM-12+034899999V0209999900931000151CN0000501N9-01721-01781999999ADDAA199002091AY171061GF108991081051000251999999KA1999N-01781MD1310061+9999MW1451
0081104530999991927121806004+51800+010617FM-12+034899999V0209999900931000151CN0000501N9-01391-01441999999ADDAA199002091AY171061GF108991081051000251999999KA1999N-01501MD1510061+9999MW1731
0081104530999991927121906004+51800+010617FM-12+034899999V0209999900931000151CN0000501N9-01281-01331999999ADDAA199001091AY171061GF108991081051000251999999KA1999N-01281MD1610141+9999MW1451
0064104530999991927122006004+51800+010617FM-12+034899999V0209999900931220001CN0500001N9-01721-01781999999ADDAY101061GF100991001001999999001001KA1999N-01721MD1610061+9999
0064104530999991927122106004+51800+010617FM-12+034899999V0209999901231220001CN0200001N9-00891-01561999999ADDAY101061GF101991001001999999001021KA1999N-01391MD1510201+9999
0081104530999991927122206004+51800+010617FM-12+034899999V0209999901541000151CN0000501N9-00111-00171999999ADDAA199001091AY171061GF108991081051000251999999KA1999N-00501MD1810201+9999MW1451
0081104530999991927122306004+51800+010617FM-12+034899999V0209999901901000151CN0000501N9+00221+00171999999ADDAA199035091AY161061GF108991081051000251999999KA1999N+00001MD1710141+9999MW1451
0081104530999991927122406004+51800+010617FM-12+034899999V0209999901901000151CN0000501N9-00111-00171999999ADDAA199007091AY171061GF108991081051000251999999KA1999N-00111MD1310201+9999MW1451
0056104530999991927122506004+51800+010617FM-12+034899999V0209999900931000151CN0000501N9-00281-00331999999ADDAY141061GF108991081051000251999999KA1999N-00391MW1451
0070104530999991927122606004+51800+010617FM-12+034899999V0209999900931000151CN0000501N9+00001-00061999999ADDAY141061GF108991081051000251999999KA1999N-00221MD1410001+9999MW1451
0070104530999991927122706004+51800+010617FM-12+034899999V0209999901231000151CN0000501N9-00721-00781999999ADDAY141061GF108991081051000251999999KA1999N-00721MD1310401+9999MW1451
0081104530999991927122806004+51800+010617FM-12+034899999V0209999901541000151CN0000501N9-01221-01281999999ADDAA199001091AY171061GF108991081051000251999999KA1999N-01221MD1310141+9999MW1451
0064104530999991927122906004+51800+010617FM-12+034899999V0209999901901220001CN0200001N9-01501-01671999999ADDAY101061GF100991001001999999001001KA1999N-01501MD1810141+9999
0051104530999991927123006004+51800+010617FM-12+034899999V0209999901901220001CN0200001N9-01001-02111999999ADDAY101061GF102991021011004501001021MD1610061+9999
0050104530999991927123106004+51800+010617FM-12+034899999V0209999900931000151CN0200001N9-00611-00781999999ADDAY101061GF108991081051000251999999KA1999N-01001
