0081104530999991929080906004+51800+010617FM-12+034899999V0209999900461000151CN0000501N9+00781+00721999999ADDAA199010091AY161061GF108991081051000251999999KA1999N+00781MD1310141+9999MW1451
0056104530999991929082606004+51800+010617FM-12+034899999V02099999009310750019N0040001N9+00391+00331999999ADDAY141061GF106991001001999999001021KA1999N+00391MW1421
0050104530999991929083106004+51800+010617FM-12+034899999V0209999900101220001CN0200001N9+01721+00501999999ADDAY101061GF101991999051008001001021KA1999N+01391
0064104530999991929090106004+51800+010617FM-12+034899999V0209999900671007801CN0200001N9+01781+00561999999ADDAY101061GF108991999051008001001001KA1999N+01781MD1310061+9999
0064104530999991929090206004+51800+010617FM-12+034899999V0209999900261007801CN0200001N9+01611+01171999999ADDAY101061GF107991999051008001999999KA1999N+01501MD1310061+9999
0064104530999991929090306004+51800+010617FM-12+034899999V0209999900261220001CN0200001N9+01611+00721999999ADDAY101061GF101991999051008001001021KA1999N+01281MD1310061+9999
0064104530999991929090406004+51800+010617FM-12+034899999V0209999900101220001CN0200001N9+01781+01111999999ADDAY101061GF102991999051008001999999KA1999N+01391MD1310061+9999
0064104530999991929090506004+51800+010617FM-12+034899999V0209999900101220001CN0100001N9+01891+00671999999ADDAY101061GF102991999001002501001001KA1999N+01781MD1510001+9999
0075104530999991929090606004+51800+010617FM-12+034899999V0209999901231220001CN0100001N9+01221+01001999999ADDAA199000391AY161061GF104991999051008001999999KA1999N+01221MD1610061+9999
0081104530999991929090706004+51800+010617FM-12+034899999V0209999901901000151CN0000501N9+00281+00221999999ADDAA199000591AY161061GF108991081051000251999999KA1999N+00281MD1310141+9999MW1451
0067104530999991929090806004+51800+010617FM-12+034899999V0209999901231000151CN0000501N9+00501+00441999999ADDAA199000691AY161061GF108991081051000251999999KA1999N+00281MW1451
0070104530999991929090906004+51800+010617FM-12+034899999V0209999900931000151CN0005001N9+01221+01171999999ADDAY141061GF108991081051000251999999KA1999N+01001MD1610061+9999MW1431
0081104530999991929091006004+51800+010617FM-12+034899999V0209999900931000151CN0000501N9+00721+00671999999ADDAA199000591AY161061GF108991081051000251999999KA1999N+00611MD1310141+9999MW1451
0064104530999991929091106004+51800+010617FM-12+034899999V0209991C00001001501CN0005001N9+00501+00441999999ADDAY141061GF108991081051001501999999KA1999N+00391MD1310061+9999
0050104530999991929091206004+51800+010617FM-12+034899999V0209999900931220001CN0200001N9+01221+00331999999ADDAY101061GF101991999051008001999999KA1999N+00781
0050104530999991929091306004+51800+010617FM-12+034899999V0209999900931220001CN0200001N9+01221+00331999999ADDAY101061GF101991999051008001999999KA1999N+00781
0064104530999991929091406004+51800+010617FM-12+034899999V02099999004619999999N0200001N9+01391+00941999999ADDAY111061GF106991999001004501031001KA1999N+01391MD1410001+9999
0064104530999991929091506004+51800+010617FM-12+034899999V0209999900261004501CN0100001N9+01391+01171999999ADDAY111061GF107991999051004501999999KA1999N+01281MD1310061+9999
0064104530999991929091606004+51800+010617FM-12+034899999V0209999900461220001CN0100001N9+01281+01221999999ADDAY111061GF102991999051008001999999KA1999N+01221MD1310061+9999
0064104530999991929091706004+51800+010617FM-12+034899999V0209999900461220001CN0200001N9+01221-00221999999ADDAY101061GF102991999051008001999999KA1999N+01111MD1610061+9999
0064104530999991929091806004+51800+010617FM-12+034899999V0209999901231007801CN0200001N9+01001-00111999999ADDAY101061GF106991061051008001001021KA1999N+01001MD1810141+9999
0070104530999991929091906004+51800+010617FM-12+034899999V0209999901231000151CN0000501N9+01001+00941999999ADDAY111061GF108991081051000251999999KA1999N+00891MD1210061+9999MW1431
0081104530999991929092006004+51800+010617FM-12+034899999V0209999902261000151CN0000501N9+00891+00831999999ADDAA199001091AY161061GF108991081051000251999999KA1999N+00891MD1710341+9999MW1431
0081104530999991929092106004+51800+010617FM-12+034899999V0209999901901000151CN0000501N9+00221+00171999999ADDAA199003091AY161061GF108991081051000251999999KA1999N+00111MD1310141+9999MW1451
0081104530999991929092206004+51800+010617FM-12+034899999V0209999902261000151CN0000501N9+00221+00171999999ADDAA199004091AY161061GF108991081051000251999999KA1999N+00221MD1310261+9999MW1451
0081104530999991929092306004+51800+010617FM-12+034899999V0209999901231000151CN0000501N9+00281+00221999999ADDAA199003091AY161061GF108991081051000251999999KA1999N+00281MD1310141+9999MW1451
0081104530999991929092406004+51800+010617FM-12+034899999V0209999900671000151CN0000501N9+00281+00221999999ADDAA199001091AY161061GF108991081051000251999999KA1999N+00221MD1310061+9999MW1451
0064104530999991929092506004+51800+010617FM-12+034899999V0209999901231220001CN0200001N9+00501+00441999999ADDAY101061GF101991999051004501999999KA1999N+00221MD1310141+9999
0050104530999991929092606004+51800+010617FM-12+034899999V0209999900101007801CN0200001N9+01001-00781999999ADDAY101061GF108991081051008001999999KA1999N+00501
0050104530999991929092706004+51800+010617FM-12+034899999V0209999900101220001CN0200001N9+01281-01171999999ADDAY101061GF104991999051008001999999KA1999N+01001
0050104530999991929092806004+51800+010617FM-12+034899999V0209999900671220001CN0500001N9+01221-00221999999ADDAY101061GF104991999051008001999999KA1999N+01111
0064104530999991929092906004+51800+010617FM-12+034899999V0209999901541220001CN0200001N9+01001+00781999999ADDAY101061GF104991999051008001999999KA1999N+00891MD1610061+9999
0064104530999991929093006004+51800+010617FM-12+034899999V0209999901231007801CN0200001N9+00891+00831999999ADDAY111061GF106991999051008001999999KA1999N+00781MD1610061+9999
0081104530999991929100106004+51800+010617FM-12+034899999V0209999902261000151CN0000501N9+00781+00721999999ADDAA199002091AY161061GF108991081051000251999999KA1999N+00781MD1610141+9999MW1431
0081104530999991929100206004+51800+010617FM-12+034899999V0209999901901000151CN0000501N9+00611+00561999999ADDAA199003091AY161061GF108991081051000251999999KA1999N+00391MD1610261+9999MW1451
0081104530999991929100306004+51800+010617FM-12+034899999V0209999901231000151CN0000501N9+00501+00441999999ADDAA199006091AY161061GF108991081051000251999999KA1999N+00501MD1710061+9999MW1611
0067104530999991929100406004+51800+010617FM-12+034899999V0209999901901000151CN0000501N9+00891+00831999999ADDAA199021091AY161061GF108991081051000251999999KA1999N+00611MW1451
0070104530999991929100506004+51800+010617FM-12+034899999V0209999901901000151CN0000501N9+00891+00831999999ADDAY101061GF108991081051000251999999KA1999N+00891MD1310061+9999MW1431
0064104530999991929100606004+51800+010617FM-12+034899999V0209999901231007801CN0200001N9+00781+00561999999ADDAY111061GF107991999051008001999999KA1999N+00611MD1810201+9999
0041104530999991929100706004+51800+010617FM-12+034899999V02099999019019999999N0000501N9+00281-00281999999ADDAA199000691AY141061KA1999N+00221MW1431
0064104530999991929100806004+51800+010617FM-12+034899999V0209999901231220001CN0200001N9+00391+00171999999ADDAY101061GF102991999051001501999999KA1999N+00391MD1810201+9999
0081104530999991929100906004+51800+010617FM-12+034899999V0209999901901000151CN0000001N9+00611+00391999999ADDAA199004091AY161061GF108991081051000251999999KA1999N+00501MD1610141+9999MW1451
0081104530999991929101006004+51800+010617FM-12+034899999V0209999902261000151CN0000501N9+00001-00061999999ADDAA199012091AY171061GF108991081051000251999999KA1999N+00001MD1310141+9999MW1711
0081104530999991929101106004+51800+010617FM-12+034899999V0209999902261000151CN0000501N9+00281+00221999999ADDAA199006091AY161061GF108991081051000251999999KA1999N+00001MD1510141+9999MW1611
0081104530999991929101206004+51800+010617FM-12+034899999V0209999902261000151CN0000501N9+00221+00171999999ADDAA199006091AY161061GF108991081051000251999999KA1999N+00111MD1310061+9999MW1451
0067104530999991929101306004+51800+010617FM-12+034899999V0209999901901000151CN0000501N9+00391+00331999999ADDAA199000391AY161061GF108991081051000251999999KA1999N+00221MW1451
0064104530999991929101406004+51800+010617FM-12+034899999V02099999009319999999N0100001N9+00501+00441999999ADDAY101061GF107991999001004501001001KA1999N+00391MD1210141+9999
0070104530999991929101506004+51800+010617FM-12+034899999V0209999901231000151CN0000501N9+00611+00561999999ADDAY141061GF108991081051000251999999KA1999N+00501MD1310061+9999MW1451
0081104530999991929101606004+51800+010617FM-12+034899999V0209999900461000151CN0000501N9+00391+00331999999ADDAA199000691AY161061GF108991081051000251999999KA1999N+00391MD1710061+9999MW1451
0081104530999991929101706004+51800+010617FM-12+034899999V0209999901541000151CN0000501N9+00501+00441999999ADDAA199000391AY161061GF108991081051000251999999KA1999N+00501MD1410001+9999MW1431
0070104530999991929101806004+51800+010617FM-12+034899999V0209999900931000151CN0000501N9+00281+00221999999ADDAY141061GF108991081051000251999999KA1999N+00281MD1810141+9999MW1431
0081104530999991929101906004+51800+010617FM-12+034899999V0209999900461000151CN0000501N9+00281+00221999999ADDAA199007091AY161061GF108991081051000251999999KA1999N+00281MD1510001+9999MW1451
0067104530999991929102006004+51800+010617FM-12+034899999V0209999901231000151CN0000501N9+00111+00061999999ADDAA199007091AY161061GF108991081051000251999999KA1999N+00111MW1431
0064104530999991929102106004+51800+010617FM-12+034899999V0209999900261220001CN0200001N9+00001-00061999999ADDAY101061GF101991999051008001999999KA1999N+00001MD1310141+9999
0064104530999991929102206004+51800+010617FM-12+034899999V0209999900261220001CN0200001N9+00111-00111999999ADDAY141061GF102991999051008001999999KA1999N+00001MD1810061+9999
0050104530999991929102306004+51800+010617FM-12+034899999V0209999900931220001CN0100001N9+00221+00171999999ADDAY141061GF102991999051002501999999KA1999N+00221
0070104530999991929102406004+51800+010617FM-12+034899999V0209999902261000151CN0000501N9+00111+00061999999ADDAY141061GF108991081051000251999999KA1999N+00111MD1990061+9999MW1431
0081104530999991929102506004+51800+010617FM-12+034899999V0209999902261000151CN0000501N9+00391+00331999999ADDAA199001091AY161061GF108991081051000251999999KA1999N+00391MD1710141+9999MW1451
0061104530999991929102606004+51800+010617FM-12+034899999V0209999900101007801CN0200001N9+00221-00171999999ADDAA199001091AY161061GF107991999051008001001001KA1999N+00111
0081104530999991929102706004+51800+010617FM-12+034899999V0209999900931000151CN0000501N9-00111-00171999999ADDAA199000691AY171061GF108991081051000251999999KA1999N-00111MD1210141+9999MW1451
0081104530999991929102806004+51800+010617FM-12+034899999V0209999901541000151CN0000501N9-00221-00281999999ADDAA199007091AY171061GF108991081051000251999999KA1999N-00281MD1310201+9999MW1731
0081104530999991929102906004+51800+010617FM-12+034899999V0209999902261000151CN0000501N9-00111-00171999999ADDAA199004091AY171061GF108991081051000251999999KA1999N-00281MD1710201+9999MW1451
0081104530999991929103006004+51800+010617FM-12+034899999V0209999901541000151CN0000501N9+00111+00061999999ADDAA199000391AY161061GF108991081051000251999999KA1999N+00111MD1310201+9999MW1611
0081104530999991929103106004+51800+010617FM-12+034899999V0209999901541000151CN0000501N9+00001-00061999999ADDAA199003091AY171061GF108991081051000251999999KA1999N-00111MD1310201+9999MW1451
0081104530999991929110106004+51800+010617FM-12+034899999V0209999900931000151CN0000501N9-00111-00171999999ADDAA199002091AY171061GF108991081051000251999999KA1999N-00221MD1310061+9999MW1451
0081104530999991929110206004+51800+010617FM-12+034899999V0209999900931000151CN0000501N9-00221-00281999999ADDAA199001091AY171061GF108991081051000251999999KA1999N-00221MD1510061+9999MW1451
0064104530999991929110306004+51800+010617FM-12+034899999V02099999012319999999N0100001N9-00221-00281999999ADDAY101061GF106991999001004501001001KA1999N-00281MD1610141+9999
0081104530999991929110406004+51800+010617FM-12+034899999V0209999900931000151CN0000501N9-00111-00171999999ADDAA199004091AY171061GF108991081051000251999999KA1999N-00111MD1310201+9999MW1451
0056104530999991929110506004+51800+010617FM-12+034899999V0209999900931000151CN0000501N9-00221-00281999999ADDAY141061GF108991081051000251999999KA1999N-00221MW1431
0064104530999991929110606004+51800+010617FM-12+034899999V0209999900671004501CN0200001N9+00001-00941999999ADDAY101061GF108991081051004501999999KA1999N-00281MD1610141+9999
0064104530999991929110706004+51800+010617FM-12+034899999V0209999900931220001CN0200001N9+00001-00061999999ADDAY101061GF101991999051002501021001KA1999N-00111MD1310141+9999
0081104530999991929110806004+51800+010617FM-12+034899999V0209999901541000151CN0000501N9+00001-00061999999ADDAA199000591AY161061GF108991081051000251999999KA1999N-00111MD1510061+9999MW1451
0081104530999991929110906004+51800+010617FM-12+034899999V0209999900931000151CN0000501N9+00221+00171999999ADDAA199005091AY161061GF108991081051000251999999KA1999N+00001MD1310141+9999MW1451
0064104530999991929111006004+51800+010617FM-12+034899999V0209999901231220001CN0200001N9-00111-00441999999ADDAY101061GF102991999051008001001001KA1999N-00221MD1810141+9999
0081104530999991929111106004+51800+010617FM-12+034899999V0209999901231000151CN0000501N9-00221-00281999999ADDAA199001091AY161061GF108991081051000251999999KA1999N-00221MD1310201+9999MW1431
0081104530999991929111206004+51800+010617FM-12+034899999V0209999902261000151CN0000501N9-00221-00281999999ADDAA199000691AY171061GF108991081051000251999999KA1999N-01221MD1710261+9999MW1711
0081104530999991929111306004+51800+010617FM-12+034899999V0209999901231000151CN0000501N9-00281-00331999999ADDAA199002091AY171061GF108991081051000251999999KA1999N-00281MD1210141+9999MW1451
0061104530999991929111406004+51800+010617FM-12+034899999V0209999900671007801CN0200001N9-00221-00281999999ADDAA199000691AY171061GF106991999051008001999999KA1999N-00281
0067104530999991929111506004+51800+010617FM-12+034899999V0209999901231000151CN0000501N9-00281-00331999999ADDAA199000391AY171061GF108991081051000251999999KA1999N-00391MW1451
0075104530999991929111606004+51800+010617FM-12+034899999V0209999901231220001CN0200001N9-00721-00891999999ADDAA199000591AY171061GF104991999051001501999999KA1999N-00721MD1610061+9999
0067104530999991929111706004+51800+010617FM-12+034899999V0209999901231000151CN0000501N9+00001-00061999999ADDAA199011091AY171061GF108991081051000251999999KA1999N-00391MW1451
0081104530999991929111806004+51800+010617FM-12+034899999V0209999900931000151CN0000501N9-00281-00331999999ADDAA199001091AY171061GF108991081051000251999999KA1999N-00281MD1310141+9999MW1451
0075104530999991929111906004+51800+010617FM-12+034899999V0209999900671007801CN0200001N9-00501-00561999999ADDAA199000691AY171061GF106991061051008001001021KA1999N-00501MD1410001+9999
0064104530999991929112006004+51800+010617FM-12+034899999V0209999900931220001CN0500001N9+00391-01281999999ADDAY111061GF104991999051008001021001KA1999N-00281MD1310061+9999
0069104530999991929112106004+51800+010617FM-12+034899999V0209999901231220001CN0200001N9+00721-01001999999ADDAY111061GF101991001001999999001021KA1999N+99999EQDQ01 +01002ATMN  
0064104530999991929112206004+51800+010617FM-12+034899999V0209999900461220001CN0200001N9+00721+00501999999ADDAY101061GF101991999051008001031001KA1999N+00611MD1310061+9999
0064104530999991929112306004+51800+010617FM-12+034899999V0209999901541007801CN0200001N9+00611+00221999999ADDAY111061GF106991999051008001999999KA1999N+00281MD1510001+9999
0064104530999991929112406004+51800+010617FM-12+034899999V0209999901541007801CN0200001N9+00391+00171999999ADDAY101061GF106991061051008001021001KA1999N+00281MD1710061+9999
0075104530999991929112506004+51800+010617FM-12+034899999V0209999901231220001CN0100001N9+00001-00061999999ADDAA199001091AY161061GF102991999051001501021001KA1999N-03001MD1310061+9999
0081104530999991929112606004+51800+010617FM-12+034899999V0209999901231000151CN0000501N9+00221+00171999999ADDAA199001091AY161061GF108991081051000251999999KA1999N+00221MD1210061+9999MW1451
0081104530999991929112706004+51800+010617FM-12+034899999V0209999901231000151CN0000501N9+00001-00061999999ADDAA199000591AY171061GF108991081051000251999999KA1999N+00001MD1210061+9999MW1711
0056104530999991929112806004+51800+010617FM-12+034899999V0209999900461000151CN0002001N9-00221-00281999999ADDAY141061GF108991081051000251999999KA1999N-00281MW1431
0067104530999991929112906004+51800+010617FM-12+034899999V0209999902261000151CN0000501N9+00391+00331999999ADDAA199007091AY161061GF108991081051000251999999KA1999N+00001MW1451
0081104530999991929113006004+51800+010617FM-12+034899999V0209999901231000151CN0000501N9+00391+00331999999ADDAA199002091AY161061GF108991081051000251999999KA1999N+00391MD1510061+9999MW1451
0067104530999991929120106004+51800+010617FM-12+034899999V0209999900931000151CN0000501N9+00391+00331999999ADDAA199001091AY161061GF108991081051000251999999KA1999N+00281MW1451
0081104530999991929120206004+51800+010617FM-12+034899999V0209999901231000151CN0000501N9+00221+00171999999ADDAA199002091AY161061GF108991081051000251999999KA1999N+00111MD1310201+9999MW1451
0081104530999991929120306004+51800+010617FM-12+034899999V0209999901231000151CN0000501N9+00111+00061999999ADDAA199001091AY161061GF108991081051000251999999KA1999N+00001MD1010201+9999MW1611
0081104530999991929120406004+51800+010617FM-12+034899999V0209999901231000151CN0000501N9+00391+00331999999ADDAA199012091AY171061GF108991081051000251999999KA1999N+00111MD1310141+9999MW1431
0070104530999991929120506004+51800+010617FM-12+034899999V0209999901901000151CN0000501N9+00281+00221999999ADDAY141061GF108991081051000251999999KA1999N+00281MD1710141+9999MW1431
0070104530999991929120606004+51800+010617FM-12+034899999V0209999901231000151CN0000501N9+00281+00221999999ADDAY101061GF108991081051000251999999KA1999N+00221MD1210201+9999MW1431
0081104530999991929120706004+51800+010617FM-12+034899999V0209999902261000151CN0000501N9-00111-00171999999ADDAA199002091AY171061GF108991081051000251999999KA1999N-00221MD1710401+9999MW1711
0081104530999991929120806004+51800+010617FM-12+034899999V0209999902261000151CN0000501N9-00221-00281999999ADDAA199000391AY171061GF108991081051000251999999KA1999N-00281MD1990061+9999MW1451
0081104530999991929120906004+51800+010617FM-12+034899999V0209999902261000151CN0000501N9-00221-00281999999ADDAA199007091AY171061GF108991081051000251999999KA1999N-00221MD1310261+9999MW1711
0067104530999991929121006004+51800+010617FM-12+034899999V0209999902261000151CN0000501N9-00221-00281999999ADDAA199004091AY171061GF108991081051000251999999KA1999N-00391MW1451
0067104530999991929121106004+51800+010617FM-12+034899999V0209999902261000151CN9999999N9-00281+99999999999ADDAA199003091AY171061GF108991081051000251999999KA1999N-00391MW1711
0081104530999991929121206004+51800+010617FM-12+034899999V0209999902261000151CN0000501N9+00001-00061999999ADDAA199007091AY161061GF108991081051000251999999KA1999N+00001MD1810201+9999MW1711
0100104530999991929121306004+51800+010617FM-12+034899999V0209999902261000151CN0000501N9-00221-00281999999ADDAA199015091AY171061GF108991081051000251999999KA1999N+99999MD1310201+9999MW1451EQDQ01 +02222ATMN  
0081104530999991929121406004+51800+010617FM-12+034899999V0209999901901000151CN0000501N9+00221+00171999999ADDAA199000391AY161061GF108991081051000251999999KA1999N+00001MD1610061+9999MW1451
0067104530999991929121506004+51800+010617FM-12+034899999V0209999901901000151CN0000501N9+00611+00561999999ADDAA199014091AY161061GF108991081051000251999999KA1999N+00391MW1641
0067104530999991929121606004+51800+010617FM-12+034899999V0209999902261000151CN0000501N9-00281-00331999999ADDAA199001091AY171061GF108991081051000251999999KA1999N-00391MW1451
0081104530999991929121706004+51800+010617FM-12+034899999V0209999901541000151CN0000501N9-00391-00441999999ADDAA199010091AY171061GF108991081051000251999999KA1999N-00391MD1610061+9999MW1711
0081104530999991929121806004+51800+010617FM-12+034899999V0209999900671000151CN0000501N9-00721-00781999999ADDAA199000391AY171061GF108991081051000251999999KA1999N-00721MD1310201+9999MW1431
0064104530999991929121906004+51800+010617FM-12+034899999V0209999900461220001CN0500001N9-00501-02061999999ADDAY101061GF101991999001999999021001KA1999N-00721MD1710061+9999
0070104530999991929122006004+51800+010617FM-12+034899999V0209999901231000151CN0005001N9-01221-01281999999ADDAY101061GF108991081051000251999999KA1999N-01221MD1810201+9999MW1471
0064104530999991929122106004+51800+010617FM-12+034899999V0209999901541220001CN0200001N9-00721-01061999999ADDAY101061GF101991999001001501001001KA1999N-00891MD1810201+9999
0070104530999991929122206004+51800+010617FM-12+034899999V0209999901541000151CN0000501N9-00781-00831999999ADDAY141061GF108991081051000251999999KA1999N-00891MD1610061+9999MW1431
0075104530999991929122306004+51800+010617FM-12+034899999V02099999004619999999N0200001N9-00501-00561999999ADDAA199001091AY171061GF106991999001004501001001KA1999N-00781MD1310061+9999
0081104530999991929122406004+51800+010617FM-12+034899999V0209999901541000151CN0000501N9-01111-01171999999ADDAA199001091AY171061GF108991081051000251999999KA1999N-01111MD1810261+9999MW1451
0081104530999991929122506004+51800+010617FM-12+034899999V0209999901901000151CN0000501N9-00221-00281999999ADDAA199002091AY171061GF108991081051000251999999KA1999N-00501MD1990061+9999MW1451
0081104530999991929122606004+51800+010617FM-12+034899999V0209999901541000151CN0000501N9+00001-00061999999ADDAA199001091AY171061GF108991081051000251999999KA1999N+00001MD1210061+9999MW1451
0067104530999991929122706004+51800+010617FM-12+034899999V0209999901231000151CN0000501N9-00281-00331999999ADDAA199000591AY141061GF108991081051000251999999KA1999N-00391MW1451
0081104530999991929122806004+51800+010617FM-12+034899999V0209999900931000151CN0000501N9-00281-00331999999ADDAA199004091AY171061GF108991081051000251999999KA1999N-00391MD1410001+9999MW1711
0081104530999991929122906004+51800+010617FM-12+034899999V0209999902261000151CN0000501N9-00111-00171999999ADDAA199005091AY171061GF108991081051000251999999KA1999N-00391MD1710061+9999MW1511
0081104530999991929123006004+51800+010617FM-12+034899999V0209999902261000151CN0000501N9-00221-00281999999ADDAA199004091AY171061GF108991081051000251999999KA1999N-00221MD1210061+9999MW1451
0081104530999991929123106004+51800+010617FM-12+034899999V0209999902261000151CN0000501N9-00221-00281999999ADDAA199003091AY171061GF108991081051000251999999KA1999N-00221MD1710141+9999MW1711
