0051104530999991926080106004+51800+010617FM-12+034899999V0209999900461220001CN0100001N9+00721+00671999999ADDAY141061GF102991011011002501001021MD1310061+9999
0057104530999991926080206004+51800+010617FM-12+034899999V0209999901231000151CN0000001N9+00611+00561999999ADDAY161061GF108991081051000251999999MD1310061+9999MW1431
0057104530999991926080506004+51800+010617FM-12+034899999V0209999900461000151CN0000001N9+00611+00561999999ADDAY161061GF108991081051000251999999MD1310061+9999MW1451
0057104530999991926082806004+51800+010617FM-12+034899999V0209999900931000151CN0000001N9+00501+00441999999ADDAY161061GF108991081051000251999999MD1310141+9999MW1431
0057104530999991926082906004+51800+010617FM-12+034899999V0209999900671000151CN0000001N9+00501+00441999999ADDAY161061GF108991081051000251999999MD1610061+9999MW1451
0064104530999991926090106004+51800+010617FM-12+034899999V0209999900261220001CN0200001N9+01781+00561999999ADDAY101061GF101991001001999999001021KA1999N+01391MD1310061+9999
0064104530999991926090206004+51800+010617FM-12+034899999V0209999900461220001CN0100001N9+01611+00721999999ADDAY101061GF104991001001999999001021KA1999N+01501MD1510001+9999
0064104530999991926090306004+51800+010617FM-12+034899999V0209999900671002401CN0010001N9+01391+01331999999ADDAY111061GF107991061051002501031001KA1999N+01281MD1410001+9999
0050104530999991926090406004+51800+010617FM-12+034899999V0209999900931220001CN0100001N9+01221+01001999999ADDAY141061GF102991011011004501001091KA1999N+01001
0064104530999991926090506004+51800+010617FM-12+034899999V0209999900461220001CN0040001N9+01281+01221999999ADDAY141061GF101991001001999999001021KA1999N+01221MD1310061+9999
0075104530999991926090606004+51800+010617FM-12+034899999V0209999900931220001CN0000001N9+01001+00941999999ADDAA199000391AY161061GF104991001001999999021021KA1999N+01001MD1710061+9999
0081104530999991926090706004+51800+010617FM-12+034899999V0209999901231000151CN0000501N9+01001+00941999999ADDAA199011091AY161061GF108991081051000251999999KA1999N+00891MD1810141+9999MW1451
0100104530999991926090806004+51800+010617FM-12+034899999V0209999901231000151CN0000501N9+00721+00671999999ADDAA199027091AY161061GF108991081051000251999999KA1999N+99999MD1310141+9999MW1451EQDQ01 +00782ATMN  
0064104530999991926090906004+51800+010617FM-12+034899999V0209999900671030001CN0100001N9+00611+00561999999ADDAY141061GF107991021011002501021001KA1999N+00501MD1510001+9999
0050104530999991926091006004+51800+010617FM-12+034899999V0209999901231220001CN0100001N9+01111+00891999999ADDAY141061GF106991001001999999031021KA1999N+01001
0050104530999991926091106004+51800+010617FM-12+034899999V0209999901541220001CN0100001N9+01501+00831999999ADDAY101061GF104991021011004501001091KA1999N+01281
0064104530999991926091206004+51800+010617FM-12+034899999V0209999901901030001CN0100001N9+01391+00941999999ADDAY111061GF106991021011002501021001KA1999N+01391MD1510201+9999
0081104530999991926091306004+51800+010617FM-12+034899999V0209999901231000151CN0000501N9+00611+00561999999ADDAA199008091AY161061GF108991081051000251999999KA1999N+00501MD1310061+9999MW1451
0067104530999991926091406004+51800+010617FM-12+034899999V0209999901901000151CN0040001N9+00501-01781999999ADDAA199002091AY121061GF108991081051000251999999KA1999N+00391MW1431
0043104530999991926091506004+51800+010617FM-12+034899999V0209999901231000151CN0000001N9+00611+00561999999ADDAY141061GF108991081051000251999999MW1431
0081104530999991926091606004+51800+010617FM-12+034899999V0209999901901000151CN0000501N9+00501+00441999999ADDAA199008091AY161061GF108991081051000251999999KA1999N+00391MD1310141+9999MW1431
0070104530999991926091706004+51800+010617FM-12+034899999V0209999900931000151CN0000501N9+00611+00561999999ADDAY141061GF108991081051000251999999KA1999N+00281MD1310061+9999MW1431
0050104530999991926091806004+51800+010617FM-12+034899999V0209999900671220001CN0500001N9+01281+00611999999ADDAY101061GF100991001001999999001001KA1999N+01111
0064104530999991926091906004+51800+010617FM-12+034899999V0209999900671220001CN0200001N9+01501+00611999999ADDAY101061GF100991001001999999001001KA1999N+01391MD1510001+9999
0064104530999991926092006004+51800+010617FM-12+034899999V0209999900461220001CN0100001N9+01611+00441999999ADDAY101061GF100991001001999999001001KA1999N+01221MD1610061+9999
0064104530999991926092106004+51800+010617FM-12+034899999V0209999900671220001CN0100001N9+01111+00671999999ADDAY101061GF106991001001999999999021KA1999N+00891MD1510001+9999
0064104530999991926092206004+51800+010617FM-12+034899999V0209999900671220001CN0100001N9+00781-00611999999ADDAY141061GF106991001001999999021021KA1999N+00611MD1510001+9999
0081104530999991926092306004+51800+010617FM-12+034899999V0209999901231000151CN0000501N9+00281+00221999999ADDAA199001091AY161061GF108991081051000251999999KA1999N+00221MD1510061+9999MW1451
0081104530999991926092406004+51800+010617FM-12+034899999V0209999900931000151CN0000501N9+00221+00171999999ADDAA199005091AY161061GF108991081051000251999999KA1999N+00111MD1410001+9999MW1431
0064104530999991926092506004+51800+010617FM-12+034899999V0209999901231075001CN0100001N9+00501+00281999999ADDAY111061GF106991041051004501001021KA1999N+00221MD1810201+9999
0080104530999991926092606004+51800+010617FM-12+034899999V02099999009319999999N0040001N9+00501+00281999999ADDAA199002091AY161061GF108991999011002501001001KA1999N+99999EQDQ01 +00612ATMN  
0064104530999991926092706004+51800+010617FM-12+034899999V0209999901541220001CN0100001N9+00281+00221999999ADDAY111061GF104991001001999999021021KA1999N+00221MD1810141+9999
0081104530999991926092806004+51800+010617FM-12+034899999V0209999901541000151CN0000501N9+00111+00061999999ADDAA199001091AY171061GF108991081051000251999999KA1999N+00001MD1810061+9999MW1711
0081104530999991926092906004+51800+010617FM-12+034899999V0209999900261000151CN0000501N9+00221+00171999999ADDAA199000591AY161061GF108991081051000251999999KA1999N+00111MD1310141+9999MW1451
0100104530999991926093006004+51800+010617FM-12+034899999V0209999900461000151CN0005001N9+00391+00331999999ADDAA199000691AY161061GF108991081051000251999999KA1999N+99999MD1310061+9999MW1451EQDQ01 +00612ATMN  
0081104530999991926100106004+51800+010617FM-12+034899999V0209999901231000151CN0000501N9+00221+00171999999ADDAA199000591AY161061GF108991081051000251999999KA1999N+00221MD1510141+9999MW1611
0081104530999991926100206004+51800+010617FM-12+034899999V0209999900671000151CN0000501N9+00611+00561999999ADDAA199000391AY161061GF108991081051000251999999KA1999N+00391MD1310061+9999MW1451
0081104530999991926100306004+51800+010617FM-12+034899999V0209999900671000151CN0000501N9+00611+00561999999ADDAA199000391AY161061GF108991081051000251999999KA1999N+00501MD1110061+9999MW1451
0067104530999991926100406004+51800+010617FM-12+034899999V0209999901231000151CN0000501N9+00721+00671999999ADDAA199000691AY161061GF108991081051000251999999KA1999N+00611MW1451
0067104530999991926100506004+51800+010617FM-12+034899999V0209999900931000151CN0000501N9+00391+00331999999ADDAA199000391AY161061GF108991081051000251999999KA1999N+00281MW1431
0064104530999991926100606004+51800+010617FM-12+034899999V0209999900671220001CN0100001N9+01221-00221999999ADDAY101061GF101991001001999999001021KA1999N+01111MD1610061+9999
0064104530999991926100706004+51800+010617FM-12+034899999V0209999900671220001CN0100001N9+01001+00111999999ADDAY101061GF101991001001999999001021KA1999N+00611MD1710061+9999
0067104530999991926100806004+51800+010617FM-12+034899999V0209999900931000151CN0000501N9+00781+00721999999ADDAA199007091AY161061GF108991081051000251999999KA1999N+00611MW1451
0075104530999991926100906004+51800+010617FM-12+034899999V0209999901231000151CN0000001N9+00721+00671999999ADDAY141061GF108991081051000251999999KA1999N+99999MW1451EQDQ01 +00892ATMN  
0081104530999991926101006004+51800+010617FM-12+034899999V0209999902261000151CN0000501N9+00111+00061999999ADDAA199010091AY161061GF108991081051000251999999KA1999N+00001MD1210261+9999MW1451
0081104530999991926101106004+51800+010617FM-12+034899999V0209999901231000151CN0000501N9+00001-00061999999ADDAA199001091AY171061GF108991081051000251999999KA1999N-00111MD1310261+9999MW1431
0043104530999991926101206004+51800+010617FM-12+034899999V0209999902261000151CN0000001N9+00281+00221999999ADDAY161061GF108991081051000251999999MW1431
0081104530999991926101306004+51800+010617FM-12+034899999V0209999901901000151CN0000501N9+00891+00831999999ADDAA199012091AY161061GF108991081051000251999999KA1999N+00111MD1810201+9999MW1631
0081104530999991926101406004+51800+010617FM-12+034899999V0209999901901000151CN0000501N9+00501+00441999999ADDAA199001091AY161061GF108991081051000251999999KA1999N+00281MD1710061+9999MW1451
0067104530999991926101506004+51800+010617FM-12+034899999V0209999900931000151CN0000501N9+00501+00441999999ADDAA199021091AY161061GF108991081051000251999999KA1999N+00281MW1611
0081104530999991926101606004+51800+010617FM-12+034899999V0209999901901000151CN0000001N9+00111+00061999999ADDAA199024091AY161061GF108991081051000251999999KA1999N+00111MD1310201+9999MW1451
0081104530999991926101706004+51800+010617FM-12+034899999V0209999900671000151CN0000501N9+00001-00061999999ADDAA199000391AY171061GF108991081051000251999999KA1999N-00111MD1610061+9999MW1431
0081104530999991926101806004+51800+010617FM-12+034899999V0209999900671000151CN0000501N9-00221-00281999999ADDAA199001091AY171061GF108991081051000251999999KA1999N-00391MD1310141+9999MW1431
0081104530999991926101906004+51800+010617FM-12+034899999V0209999901901000151CN0000501N9-00281-00331999999ADDAA199000691AY171061GF108991081051000251999999KA1999N-00391MD1510141+9999MW1431
0081104530999991926102006004+51800+010617FM-12+034899999V0209999900931000151CN0000501N9-00281-00331999999ADDAA199002091AY171061GF108991081051000251999999KA1999N-00281MD1810061+9999MW1431
0081104530999991926102106004+51800+010617FM-12+034899999V0209999900261000151CN0000501N9-00391-00441999999ADDAA199000391AY171061GF108991081051000251999999KA1999N-00501MD1810141+9999MW1451
0100104530999991926102206004+51800+010617FM-12+034899999V0209999900931000151CN0000501N9-00281-00331999999ADDAA199001091AY171061GF108991081051000251999999KA1999N+99999MD1710201+9999MW1631EQDQ01 -00222ATMN  
0057104530999991926102306004+51800+010617FM-12+034899999V0209999901231000151CN0000001N9-00501-00561999999ADDAY171061GF108991081051000251999999MD1510061+9999MW1451
0070104530999991926102406004+51800+010617FM-12+034899999V0209999901541000151CN0000501N9-00501-00561999999ADDAY141061GF108991081051000251999999KA1999N-00611MD1510141+9999MW1451
0081104530999991926102506004+51800+010617FM-12+034899999V0209999901541000151CN0000501N9-00501-00561999999ADDAA199002091AY171061GF108991081051000251999999KA1999N-00501MD1810261+9999MW1451
0081104530999991926102606004+51800+010617FM-12+034899999V0209999902261000151CN0000001N9-00221-00281999999ADDAA199006091AY171061GF108991081051000251999999KA1999N-00281MD1710061+9999MW1451
0081104530999991926102706004+51800+010617FM-12+034899999V0209999901901000151CN0000501N9-00391-00441999999ADDAA199009091AY171061GF108991081051000251999999KA1999N-00391MD1310201+9999MW1451
0064104530999991926102806004+51800+010617FM-12+034899999V0209999900931220001CN0500001N9-00391-00441999999ADDAY111061GF106991999001999999021001KA1999N-00501MD1510201+9999
0081104530999991926102906004+51800+010617FM-12+034899999V0209999901231000151CN0000501N9+00221+00171999999ADDAA199003091AY161061GF108991081051000251999999KA1999N+00001MD1510001+9999MW1601
0081104530999991926103006004+51800+010617FM-12+034899999V0209999901231000151CN0000501N9+00391+00331999999ADDAA199007091AY161061GF108991081051000251999999KA1999N+00281MD1310341+9999MW1231
0067104530999991926103106004+51800+010617FM-12+034899999V0209999900931000151CN0000001N9-00281-00331999999ADDAA124999999AY161061GF108991081051000251999999KA1999N-00281MW1631
0067104530999991926110106004+51800+010617FM-12+034899999V0209999900931000151CN0000501N9-00501-00561999999ADDAA199003091AY181061GF108991081051000251999999KA1999N-00501MW1451
0100104530999991926110206004+51800+010617FM-12+034899999V0209999901231000151CN0000001N9-00501-00561999999ADDAA199002091AY171061GF108991081051000251999999KA1999N+99999MD1810261+9999MW1451EQDQ01 +00002ATMN  
0075104530999991926110306004+51800+010617FM-12+034899999V0209999900671220001CN0100001N9+00281+00221999999ADDAA199004091AY161061GF107991999001999999021001KA1999N-00111MD1410001+9999
0064104530999991926110406004+51800+010617FM-12+034899999V0209999900931220001CN0500001N9+00501+00111999999ADDAY101061GF102991001001999999001021KA1999N+00391MD1310061+9999
0064104530999991926110506004+51800+010617FM-12+034899999V0209999900261220001CN0200001N9+00781+00171999999ADDAY141061GF101991001001999999001021KA1999N+00221MD1810141+9999
0081104530999991926110606004+51800+010617FM-12+034899999V0209999901231000151CN0000501N9+00221+00171999999ADDAA199001091AY161061GF108991081051000251999999KA1999N+00001MD1210141+9999MW1451
0067104530999991926110706004+51800+010617FM-12+034899999V0209999901901000151CN0000501N9+00501+00441999999ADDAA199004091AY161061GF108991081051000251999999KA1999N+00281MW1451
0081104530999991926110806004+51800+010617FM-12+034899999V0209999901231000151CN0000501N9-00111-00171999999ADDAA199007091AY161061GF108991081051000251999999KA1999N-00111MD1310261+9999MW1431
0081104530999991926110906004+51800+010617FM-12+034899999V0209999902261000151CN0000501N9+00221+00171999999ADDAA199001091AY161061GF108991081051000251999999KA1999N+00111MD1710061+9999MW1451
0070104530999991926111006004+51800+010617FM-12+034899999V0209999901541000151CN0000501N9+00111+00061999999ADDAY141061GF108991081051000251999999KA1999N+00001MD1310141+9999MW1451
0050104530999991926111106004+51800+010617FM-12+034899999V0209999901231220001CN0500001N9+00281+00061999999ADDAY101061GF101991999001999999021001KA1999N+00111
0064104530999991926111206004+51800+010617FM-12+034899999V0209999900671220001CN0200001N9+00721-01001999999ADDAY101061GF102991001001999999031021KA1999N+00281MD1510061+9999
0083104530999991926111306004+51800+010617FM-12+034899999V0209999900931220001CN0100001N9+00611-00721999999ADDAY101061GF102991001001999999021021KA1999N+99999MD1410001+9999EQDQ01 +00782ATMN  
0067104530999991926111406004+51800+010617FM-12+034899999V0209999902261000151CN0000501N9+00611+00561999999ADDAA199004091AY161061GF108991081051000251999999KA1999N+00391MW1451
0070104530999991926111506004+51800+010617FM-12+034899999V0209999902261000151CN0005001N9+00111+00061999999ADDAY141061GF108991081051000251999999KA1999N+00111MD1310141+9999MW1431
0081104530999991926111606004+51800+010617FM-12+034899999V0209999901541000151CN0000501N9+00391+00331999999ADDAA199001091AY161061GF108991081051000251999999KA1999N+00221MD1310201+9999MW1451
0075104530999991926111706004+51800+010617FM-12+034899999V0209999900931220001CN0200001N9+00391+00331999999ADDAA199001091AY161061GF104991011011002501001021KA1999N+00391MD1810201+9999
0070104530999991926111806004+51800+010617FM-12+034899999V0209999901541000151CN0000501N9+00721+00671999999ADDAY141061GF108991081051000251999999KA1999N+00721MD1810061+9999MW1451
0064104530999991926111906004+51800+010617FM-12+034899999V0209999901231220001CN0000001N9+01111+00001999999ADDAY101061GF104991011091002501001021KA1999N+00721MD1810201+9999
0081104530999991926112006004+51800+010617FM-12+034899999V0209999901231000151CN0000501N9-00111-00171999999ADDAA199000391AY161061GF108991081051000251999999KA1999N-00111MD1210201+9999MW1451
0075104530999991926112106004+51800+010617FM-12+034899999V0209999901901220001CN0200001N9+00281-00281999999ADDAA199006091AY161061GF106991999001999999021001KA1999N+00221MD1810461+9999
0057104530999991926112206004+51800+010617FM-12+034899999V0209999902261000151CN0000001N9+00001-00061999999ADDAY161061GF108991081051000251999999MD1210141+9999MW1451
0081104530999991926112306004+51800+010617FM-12+034899999V0209999901231000151CN0000501N9+00001-00061999999ADDAA199000691AY171061GF108991081051000251999999KA1999N-00111MD1310061+9999MW1451
0081104530999991926112406004+51800+010617FM-12+034899999V0209999900671000151CN0000501N9+00001-00061999999ADDAA199000691AY171061GF108991081051000251999999KA1999N-00111MD1310141+9999MW1451
0050104530999991926112506004+51800+010617FM-12+034899999V0209999900101220001CN0200001N9-00221-00281999999ADDAY141061GF102991001001999999001021KA1999N-00221
0081104530999991926112606004+51800+010617FM-12+034899999V0209999900931000151CN0000001N9-00281-00331999999ADDAA199001091AY171061GF108991081051000251999999KA1999N-00281MD1810141+9999MW1451
0081104530999991926112706004+51800+010617FM-12+034899999V0209999901231000151CN0000001N9-00391-00441999999ADDAA199010091AY171061GF108991081051000251999999KA1999N-00391MD1510061+9999MW1451
0081104530999991926112806004+51800+010617FM-12+034899999V0209999900461000151CN0000501N9-00391-00441999999ADDAA199002091AY171061GF108991081051000251999999KA1999N-00391MD1810061+9999MW1711
0050104530999991926112906004+51800+010617FM-12+034899999V0209999900261030001CN0040001N9-00501-00561999999ADDAY141061GF106991041051004501031001KA1999N-00611
0064104530999991926113006004+51800+010617FM-12+034899999V0209999901231220001CN0100001N9-00221-00941999999ADDAY101061GF102991001001999999021021KA1999N-00501MD1510141+9999
0070104530999991926120106004+51800+010617FM-12+034899999V0209999900931000151CN0000001N9-00391-00441999999ADDAY141061GF108991081051000251999999KA1999N-00501MD1210061+9999MW1451
0089104530999991926120206004+51800+010617FM-12+034899999V0209999900931000151CN0000501N9-00891-00941999999ADDAY101061GF108991081051000251999999KA1999N+99999MD1310061+9999MW1451EQDQ01 -00722ATMN  
0100104530999991926120306004+51800+010617FM-12+034899999V0209999900671000151CN0000001N9-00721-00781999999ADDAA199000691AY171061GF108991081051000251999999KA1999N+99999MD1710061+9999MW1451EQDQ01 -00612ATMN  
0067104530999991926120406004+51800+010617FM-12+034899999V0209999900931000151CN0000001N9-00501-00561999999ADDAA199004091AY171061GF108991081051000251999999KA1999N-00501MW1451
0081104530999991926120506004+51800+010617FM-12+034899999V0209999900671000151CN0000501N9-00501-00561999999ADDAA199004091AY171061GF108991081051000251999999KA1999N-00501MD1310261+9999MW1451
0070104530999991926120606004+51800+010617FM-12+034899999V0209999900931000151CN0000001N9-00721-00781999999ADDAY141061GF108991081051000251999999KA1999N-00721MD1310201+9999MW1451
0056104530999991926120706004+51800+010617FM-12+034899999V0209999900671000151CN0000501N9-00391-00441999999ADDAY141061GF108991081051000251999999KA1999N-00611MW1451
0081104530999991926120806004+51800+010617FM-12+034899999V0209999900931000151CN0000001N9-00221-00281999999ADDAA199000391AY171061GF108991081051000251999999KA1999N-00391MD1510061+9999MW1711
0081104530999991926120906004+51800+010617FM-12+034899999V0209999900931000151CN0000001N9-00221-00281999999ADDAA199004091AY171061GF108991081051000251999999KA1999N-00221MD1310141+9999MW1711
0067104530999991926121006004+51800+010617FM-12+034899999V0209999901901000151CN0000001N9+00001-00061999999ADDAA199001091AY161061GF108991081051000251999999KA1999N+00001MW1451
0067104530999991926121106004+51800+010617FM-12+034899999V0209999901541000151CN0000001N9+00001-00061999999ADDAA199000591AY161061GF108991081051000251999999KA1999N+00001MW1451
0057104530999991926121206004+51800+010617FM-12+034899999V0209999900931000151CN0000001N9+00111+00061999999ADDAY161061GF108991081051000251999999MD1010061+9999MW1431
0064104530999991926121306004+51800+010617FM-12+034899999V0209999901541220001CN0100001N9+00281+00221999999ADDAY141061GF101991011011002501001001KA1999N+00221MD1610141+9999
0070104530999991926121406004+51800+010617FM-12+034899999V0209999901231000151CN0000001N9-00501-00561999999ADDAY141061GF108991081051000251999999KA1999N-00501MD1810201+9999MW1451
0081104530999991926121506004+51800+010617FM-12+034899999V0209999901231000151CN0000001N9-00781-00831999999ADDAA199006091AY171061GF108991081051000251999999KA1999N-00891MD1310141+9999MW1451
0081104530999991926121606004+51800+010617FM-12+034899999V0209999902261000151CN0000001N9-00501-00561999999ADDAA199003091AY171061GF108991081051000251999999KA1999N-00721MD1410001+9999MW1731
0067104530999991926121706004+51800+010617FM-12+034899999V0209999901541000151CN0000001N9-00281-00331999999ADDAA199006091AY171061GF108991081051000251999999KA1999N-00391MW1451
0081104530999991926121806004+51800+010617FM-12+034899999V0209999901901000151CN0000001N9-00281-00331999999ADDAA199018091AY171061GF108991081051000251999999KA1999N-00281MD1810141+9999MW1451
0070104530999991926121906004+51800+010617FM-12+034899999V0209999901541000151CN0000001N9-00611-00671999999ADDAY171061GF108991081051000251999999KA1999N-00611MD1310261+9999MW1451
0081104530999991926122006004+51800+010617FM-12+034899999V0209999901541000151CN0000001N9-00281-00331999999ADDAA199006091AY171061GF108991081051000251999999KA1999N-00391MD1810141+9999MW1451
0081104530999991926122106004+51800+010617FM-12+034899999V0209999901541000151CN0000001N9-00721-00781999999ADDAA199005091AY171061GF108991081051000251999999KA1999N-00721MD1310141+9999MW1451
0081104530999991926122206004+51800+010617FM-12+034899999V0209999900931000151CN0000001N9-00721-00781999999ADDAA199003091AY171061GF108991081051000251999999KA1999N-00891MD1310141+9999MW1731
0081104530999991926122306004+51800+010617FM-12+034899999V0209999901231000151CN0000001N9-01221-01281999999ADDAA199001091AY171061GF108991081051000251999999KA1999N-01221MD1310061+9999MW1451
0061104530999991926122406004+51800+010617FM-12+034899999V0209999901901220001CN0200001N9-01391-01561999999ADDAA199000591AY171061GF101991999001999999021001KA1999N-01391
0051104530999991926122506004+51800+010617FM-12+034899999V0209999901901220001CN0200001N9-01281-01331999999ADDAY101061GF102991011011002501031001MD1810061+9999
0057104530999991926122606004+51800+010617FM-12+034899999V0209999900931000151CN0000001N9-00781-00831999999ADDAY141061GF108991081051000251999999MD1310141+9999MW1451
0064104530999991926122706004+51800+010617FM-12+034899999V0209999900931220001CN0200001N9-00391-00561999999ADDAY101061GF101991999001999999021001KA1999N-00721MD1810201+9999
0070104530999991926122806004+51800+010617FM-12+034899999V0209999901231000151CN0000501N9+00001-00061999999ADDAY101061GF108991081051000251999999KA1999N-00281MD1810201+9999MW1451
0081104530999991926122906004+51800+010617FM-12+034899999V0209999901541000151CN0000001N9-00221-00281999999ADDAA199004091AY171061GF108991081051000251999999KA1999N-00281MD1990141+9999MW1451
0081104530999991926123006004+51800+010617FM-12+034899999V0209999902261000151CN0000001N9-00281-00331999999ADDAA199001091AY171061GF108991081051000251999999KA1999N-00391MD1510141+9999MW1451
0081104530999991926123106004+51800+010617FM-12+034899999V0209999902261000151CN0000001N9-00221-00281999999ADDAA199002091AY171061GF108991081051000251999999KA1999N-00221MD1310141+9999MW1451
