0067104690999991929031106004+51400+012217FM-12+004199999V0209999900101000601CN0005001N9+00111+00061101891ADDAA199000691AY141061GF108991081061000751999999KA1999N-00111MW1611
