0075105010999991929010106004+50783+006100FM-12+006399999V0209999900461220001CN0100001N9-00281-00331101911ADDAA199000691AY171061GF102991021011008001001001KA1999N-00391MD1310201+9999
0051105010999991929010112004+50783+006100FM-12+006399999V0200201N002619999999N0100001N9-00111-00441101911ADDAY111061GF106991999051008001001001MD1990061+9999
0075105010999991929010206004+50783+006100FM-12+006399999V0209999900931004501CN0040001N9-00281-00441102041ADDAA199000391AY171061GF108991081051004501999999KA1999N-00391MD1410001+9999
0057105010999991929010212004+50783+006100FM-12+006399999V0200501N009319999999N0100001N9-00221-00391102071ADDAY171061GF108991999051004501001001MD1510061+9999MW1231
0064105010999991929010306004+50783+006100FM-12+006399999V0209999900931220001CN0100001N9-00391-00721102391ADDAY111061GF104991999051008001001001KA1999N-00391MD1310141+9999
0037105010999991929010312004+50783+006100FM-12+006399999V0200501N01231004501CN0200001N9-00111-00441102431ADDAY111061GF107991061051004501021001
0081105010999991929010406004+50783+006100FM-12+006399999V02099999004619999999N0100001N9-00391-00561102691ADDAA199000691AY171061GF108991999061004501001001KA1999N-00501MD1610061+9999MW1701
0057105010999991929010412004+50783+006100FM-12+006399999V0200201N00671004501CN0020001N9-00281-00441102511ADDAY171061GF108991081061004501999999MD1810201+9999MW1731
0075105010999991929010506004+50783+006100FM-12+006399999V0209999900461004501CN0020001N9-00391-00441102561ADDAA199000691AY171061GF108991081051004501999999KA1999N-00721MD1610061+9999
0051105010999991929010512004+50783+006100FM-12+006399999V0200701N00261004501CN0020001N9-00281-00441102471ADDAY171061GF108991081051004501999999MD1810141+9999
0075105010999991929010606004+50783+006100FM-12+006399999V0209999900261004501CN0040001N9-00281-00441102261ADDAA199000691AY171061GF108991081051004501999999KA1999N-00391MD1410001+9999
0051105010999991929010612004+50783+006100FM-12+006399999V0201101N004619999999N0100001N9-00111-00441102271ADDAY111061GF106991999051008001001001MD1990061+9999
0064105010999991929010706004+50783+006100FM-12+006399999V0209999900261004501CN0040001N9-00221-00391102511ADDAY111061GF108991081051004501999999KA1999N-00721MD1410001+9999
0057105010999991929010712004+50783+006100FM-12+006399999V0200901N00101002401CN0020001N9-00111-00171102741ADDAY171061GF108991081061002501999999MD1010001+9999MW1701
0051105010999991929010806004+50783+006100FM-12+006399999V0209999900101004501CN0020001N9-00111-00171103811ADDAY111061GF108991081051004501999999MD1310141+9999
0057105010999991929010812004+50783+006100FM-12+006399999V0209991C00001007801CN0005001N9+00001-00061104041ADDAY141061GF107991071051008001001001MD1310141+9999MW1441
0056105010999991929010906004+50783+006100FM-12+006399999V0209999900101000151CN0000001N9-00501-00561104311ADDAY141061GF108991081051000251999999KA1999N-00721MW1451
0057105010999991929010912004+50783+006100FM-12+006399999V0209991C00001220001CN0005001N9-00281-00331104261ADDAY141061GF100991001001999999001001MD1810061+9999MW1441
0064105010999991929011006004+50783+006100FM-12+006399999V0209999900101007801CN0020001N9-00611-00671103831ADDAY141061GF108991081051008001999999KA1999N-00721MD1610141+9999
0051105010999991929011012004+50783+006100FM-12+006399999V0201801N00261007801CN0020001N9-00391-00561103641ADDAY141061GF108991081051008001999999MD1810141+9999
0067105010999991929011106004+50783+006100FM-12+006399999V0209999900261004501CN0020001N9-00611-00781103431ADDAA199000691AY171061GF108991999051004501001001KA1999N-00611MW1231
0057105010999991929011112004+50783+006100FM-12+006399999V0200701N002619999999N0020001N9-00501-00671103411ADDAY171061GF108991999051004501001001MD1810061+9999MW1231
0070105010999991929011206004+50783+006100FM-12+006399999V0209999900101220001CN0005001N9-01001-01061103751ADDAY141061GF100991001001999999001001KA1999N-01001MD1110141+9999MW1441
0057105010999991929011212004+50783+006100FM-12+006399999V0203601N00101220001CN0002001N9-00501-00561103721ADDAY141061GF100991001001999999001001MD1810061+9999MW1421
0070105010999991929011306004+50783+006100FM-12+006399999V0209999900101007801CN0010001N9-00501-00561103531ADDAY141061GF107991071051008001001001KA1999N-01001MD1810141+9999MW1101
0057105010999991929011312004+50783+006100FM-12+006399999V0202701N00461004501CN0010001N9-00111-00171103191ADDAY171061GF108991081061004501999999MD1810201+9999MW1231
0081105010999991929011406004+50783+006100FM-12+006399999V02099999002619999999N0010001N9+00001-00061102311ADDAA199002091AY171061GF108991999051004501001001KA1999N-00501MD1810141+9999MW1101
0051105010999991929011412004+50783+006100FM-12+006399999V0203401N002619999999N0040001N9+00221+00171102261ADDAY171061GF106991999061002501001001MD1990061+9999
0081105010999991929011506004+50783+006100FM-12+006399999V0209999900671002401CN0010001N9-00221-00281101491ADDAA199001091AY171061GF108991081061002501999999KA1999N-00281MD1810461+9999MW1701
0092105010999991929011512004+50783+006100FM-12+006399999V0202301N01231002401CN0005001N9-00111-00171100592ADDAY171061GF108991081061002501999999MD1810662+9999MW1731EQDQ01+100593APOSLPQ02+000662APC3  
0075105010999991929011606004+50783+006100FM-12+006399999V0209999900261030001CN0100001N9-00721-00891100471ADDAA199000391AY171061GF106991021091004501021001KA1999N-00721MD1010141+9999
0057105010999991929011612004+50783+006100FM-12+006399999V0203601N00461002401CN0010001N9-00611-00781100801ADDAY171061GF107991999061002501001001MD1310201+9999MW1851
0067105010999991929011706004+50783+006100FM-12+006399999V0202701N00671001501CN0020001N9-00111-00171100921ADDAA199004091AY171061GF108991081061001501999999KA1999N-00891MW1731
0051105010999991929011712004+50783+006100FM-12+006399999V0203201N00261030001CN0040001N9-00111-00281101281ADDAY171061GF106991041051002501021001MD1310141+9999
0075105010999991929011806004+50783+006100FM-12+006399999V0209999900261002401CN0010001N9-00221-00281102291ADDAA199002091AY171061GF108991081051002501999999KA1999N-00281MD1310141+9999
0051105010999991929011812004+50783+006100FM-12+006399999V0202001N006719999999N0200001N9+00111-00111102371ADDAY111061GF107991999061002501001001MD1010001+9999
0081105010999991929011906004+50783+006100FM-12+006399999V0209999900671002401CN0020001N9+00221+00171102791ADDAA199003091AY171061GF108991081061002501999999KA1999N-00221MD1310141+9999MW1611
0037105010999991929011912004+50783+006100FM-12+006399999V0202301N00461220001CN0040001N9+00501+00281102911ADDAY161061GF102991001001999999021081
0050105010999991929012006004+50783+006100FM-12+006399999V0209999900101220001CN0500001N9+00001-00331103101ADDAY101061GF101991001001999999001081KA1999N+00001
0051105010999991929012012004+50783+006100FM-12+006399999V0201601N00261220001CN0500001N9+00891+00061102921ADDAY101061GF100991001001999999001001MD1810141+9999
0075105010999991929012106004+50783+006100FM-12+006399999V02099999001019999999N0500001N9+00221-00171102701ADDAA199000691AY171061GF106991999061012501001001KA1999N+00001MD1810141+9999
0043105010999991929012112004+50783+006100FM-12+006399999V0202301N00931012301CN0100001N9+00391+00171102631ADDAY181061GF107991999061012501001001MW1801
0061105010999991929012206004+50783+006100FM-12+006399999V02099999001019999999N0040001N9+00391+00331102461ADDAA199000691AY161061GF108991999061004501001001KA1999N+00221
0037105010999991929012212004+50783+006100FM-12+006399999V0202301N00101002401CN0020001N9+00501+00441102461ADDAY141061GF108991081051002501999999
0067105010999991929012306004+50783+006100FM-12+006399999V0209991C00001002401CN0005001N9+00281+00221102291ADDAA199001091AY161061GF108991081061002501999999KA1999N+00221MW1611
0057105010999991929012312004+50783+006100FM-12+006399999V0202701N00261000151CN0000501N9+00281+00221102201ADDAY161061GF108991081051000251999999MD1990061+9999MW1451
0081105010999991929012406004+50783+006100FM-12+006399999V02099999002619999999N0020001N9-00111-00171102171ADDAA199001091AY171061GF108991999051002501001001KA1999N-00221MD1810061+9999MW1231
0051105010999991929012412004+50783+006100FM-12+006399999V0203601N00261220001CN0040001N9-00111-00281102081ADDAY171061GF104991999051008001001001MD1990141+9999
0067105010999991929012506004+50783+006100FM-12+006399999V0209991C00001002401CN0005001N9-00281-00331101901ADDAA199001091AY171061GF108991081061002501999999KA1999N-00391MW1731
0057105010999991929012512004+50783+006100FM-12+006399999V0203401N00101220001CN0010001N9-00281-00441101841ADDAY171061GF104991999051002501001001MD1990061+9999MW1101
0061105010999991929012606004+50783+006100FM-12+006399999V0209999900101030001CN0020001N9-00611-00781101661ADDAA199000391AY171061GF107991021051012501021001KA1999N-00611
0051105010999991929012612004+50783+006100FM-12+006399999V0200201N00101007801CN0040001N9-00281-00441101671ADDAY171061GF108991061051008001021001MD1610061+9999
0061105010999991929012706004+50783+006100FM-12+006399999V0203201N00261004501CN0020001N9-00611-00671101991ADDAA199000691AY171061GF108991081051004501999999KA1999N-00721
0051105010999991929012712004+50783+006100FM-12+006399999V0202501N00101220001CN0020001N9-00391-00561101951ADDAY171061GF106991999001999999021001MD1810061+9999
0075105010999991929012806004+50783+006100FM-12+006399999V0209999900261030001CN0040001N9-00611-00781102191ADDAA199001091AY171061GF106991021051012501021001KA1999N-00721MD1310061+9999
0051105010999991929012812004+50783+006100FM-12+006399999V0202001N00671220001CN0040001N9+00001-00331102341ADDAY171061GF102991011051008001021001MD1010061+9999
0050105010999991929012906004+50783+006100FM-12+006399999V0209999900461220001CN0040001N9-00281-00441102771ADDAY111061GF106991001001999999021081KA1999N-00611
0051105010999991929012912004+50783+006100FM-12+006399999V0201601N00461030001CN0100001N9+00221-00721102641ADDAY111061GF106991041051017501021001MD1810141+9999
0064105010999991929013006004+50783+006100FM-12+006399999V0209999900101030001CN0020001N9+00001-00061102771ADDAY111061GF107991041051008001021001KA1999N-00281MD1410001+9999
0057105010999991929013012004+50783+006100FM-12+006399999V0201601N00261030001CN0040001N9+00501+00441102631ADDAY161061GF107991041061012501021001MD1810141+9999MW1611
0070105010999991929013106004+50783+006100FM-12+006399999V0209999900101220001CN0005001N9+00111+00061102471ADDAY141061GF104991021051012501021001KA1999N+00001MD1810061+9999MW1461
0051105010999991929013112004+50783+006100FM-12+006399999V0200901N00261220001CN0040001N9+00611-00171102291ADDAY141061GF102991001001999999021091MD1810141+9999
0064105010999991929020106004+50783+006100FM-12+006399999V0209999900461220001CN0500001N9+00281-01001101911ADDAY111061GF104991041051017501031001KA1999N-00111MD1710061+9999
0051105010999991929020112004+50783+006100FM-12+006399999V0201401N00931030001CN0200001N9+00611-01111101841ADDAY111061GF106991021051022501021001MD1710061+9999
0050105010999991929020206004+50783+006100FM-12+006399999V0209999900461220001CN0500001N9-00281-01831102131ADDAY111061GF100991001001999999001001KA1999N-00281
0037105010999991929020212004+50783+006100FM-12+006399999V0201601N00931220001CN0500001N9+00391-01831102161ADDAY101061GF100991001001999999001001
0064105010999991929020306004+50783+006100FM-12+006399999V0209999900461220001CN0500001N9-00611-01781102121ADDAY101061GF100991001001999999001001KA1999N-01001MD1210061+9999
0037105010999991929020312004+50783+006100FM-12+006399999V0201101N00261220001CN0500001N9+00391-01831102031ADDAY101061GF100991001001999999001001
0070105010999991929020406004+50783+006100FM-12+006399999V0209999900101220001CN0002001N9-00721-00891102371ADDAY141061GF101991999001999999021001KA1999N-00781MD1310061+9999MW1461
0037105010999991929020412004+50783+006100FM-12+006399999V0203601N00261220001CN0040001N9+00221-00721102381ADDAY141061GF100991001001999999001001
0056105010999991929020506004+50783+006100FM-12+006399999V0209999900261220001CN0010001N9-00391-00891102481ADDAY141061GF100991001001999999001001KA1999N-00721MW1101
0043105010999991929020512004+50783+006100FM-12+006399999V0202001N00261004501CN0005001N9+00111-00221102471ADDAY141061GF108991081051004501999999MW1451
0067105010999991929020606004+50783+006100FM-12+006399999V0209999900261000601CN0000001N9+00111+00061102301ADDAA199003091AY161061GF108991081061000751999999KA1999N-00391MW1451
0057105010999991929020612004+50783+006100FM-12+006399999V0203401N00261000151CN0000001N9+00001-00061102421ADDAY161061GF108991081061000251999999MD1010001+9999MW1511
0070105010999991929020706004+50783+006100FM-12+006399999V02099999002619999999N0010001N9+00001-00061102951ADDAY141061GF108991999051001501001001KA1999N-00111MD1310141+9999MW1101
0043105010999991929020712004+50783+006100FM-12+006399999V0200701N00261220001CN0005001N9+00221+00171103041ADDAY141061GF100991001001999999001001MW1441
0064105010999991929020806004+50783+006100FM-12+006399999V0209999900261220001CN0200001N9-00501-00831102931ADDAY141061GF100991001001999999001001KA1999N-00611MD1810061+9999
0051105010999991929020812004+50783+006100FM-12+006399999V0200201N00261220001CN0020001N9+00221-00501102771ADDAY141061GF101991999001999999021001MD1990141+9999
0070105010999991929020906004+50783+006100FM-12+006399999V0209991C00001220001CN0002001N9-00501-00671102461ADDAY141061GF100991001001999999001001KA1999N-00611MD1610061+9999MW1461
0051105010999991929020912004+50783+006100FM-12+006399999V0203401N00101220001CN0020001N9+00281-00281102201ADDAY141061GF100991001001999999001001MD1810141+9999
0064105010999991929021006004+50783+006100FM-12+006399999V0209999900101220001CN0040001N9-00611-00941101301ADDAY101061GF104991001001999999021081KA1999N-00611MD1810201+9999
0051105010999991929021012004+50783+006100FM-12+006399999V0201601N00671220001CN0040001N9+00221-00721100961ADDAY111061GF106991001001999999021081MD1810141+9999
0051105010999991929021112004+50783+006100FM-12+006399999V0201101N00931220001CN0100001N9-01001-01891102161ADDAY101061GF100991001001999999001001MD1990061+9999
0051105010999991929021212004+50783+006100FM-12+006399999V0200201N00671220001CN0040001N9-01001-01441101731ADDAY101061GF100991001001999999001001MD1990141+9999
0056105010999991929021306004+50783+006100FM-12+006399999V0209999900261220001CN0010001N9-01781-01941102041ADDAY141061GF102991999001999999021001KA1999N-01781MW1101
0057105010999991929021312004+50783+006100FM-12+006399999V0203601N00261220001CN0010001N9-01111-01281101601ADDAY171061GF108991999001999999021001MD1810201+9999MW1711
0067105010999991929021406004+50783+006100FM-12+006399999V0209999900261220001CN0010001N9-02001-02061999999ADDAA199000591AY171061GF104991999001999999021001KA1999N-02001MW1101
0057105010999991929021412004+50783+006100FM-12+006399999V0203601N00101220001CN0010001N9-01611-01781101601ADDAY141061GF108991999001999999021001MD1410001+9999MW1431
0081105010999991929021506004+50783+006100FM-12+006399999V0209999900671012301CN0010001N9-01221-01391100961ADDAA199004091AY171061GF108991061061012501021001KA1999N-02001MD1610061+9999MW1711
0037105010999991929021512004+50783+006100FM-12+006399999V0201801N00931220001CN0020001N9-00721-01061100861ADDAY171061GF107991999001999999021001
0050105010999991929021606004+50783+006100FM-12+006399999V0209999900101220001CN0010001N9-01611-01781101191ADDAY101061GF101991999001999999021001KA1999N-01611
0051105010999991929021612004+50783+006100FM-12+006399999V0200201N00261220001CN0020001N9-00721-01221101271ADDAY141061GF102991999001999999021001MD1210061+9999
0081105010999991929021706004+50783+006100FM-12+006399999V0209999900101002401CN0010001N9-01001-01061101841ADDAA199000691AY171061GF108991081061002501999999KA1999N-01611MD1310141+9999MW1701
0057105010999991929021712004+50783+006100FM-12+006399999V0202901N00101004501CN0020001N9-00611-00781102031ADDAY171061GF108991081061004501999999MD1310061+9999MW1711
0081105010999991929021806004+50783+006100FM-12+006399999V0209999900101030001CN0010001N9-00721-00891102691ADDAA199000691AY171061GF108991041051017501021001KA1999N-01001MD1310061+9999MW1101
0037105010999991929021812004+50783+006100FM-12+006399999V0200501N00261220001CN0020001N9-00391-00721102741ADDAY141061GF100991001001999999001001
0081105010999991929021906004+50783+006100FM-12+006399999V0209999900101000151CN0000001N9-01111-01171102951ADDAA199000691AY171061GF108991081051000251999999KA1999N-01221MD1310061+9999MW1451
0043105010999991929021912004+50783+006100FM-12+006399999V0200201N00101220001CN0000501N9-00721-00781102961ADDAY141061GF100991001001999999001001MW1441
0070105010999991929022006004+50783+006100FM-12+006399999V0209999900101000151CN0000001N9-01111-01171103401ADDAY141061GF108991081051000251999999KA1999N-01221MD1310141+9999MW1471
0057105010999991929022012004+50783+006100FM-12+006399999V0200201N00261220001CN0005001N9+00001-00501103401ADDAY141061GF100991001001999999001001MD1810061+9999MW1421
0050105010999991929022106004+50783+006100FM-12+006399999V0209999900101220001CN0200001N9-00281-00781103671ADDAY141061GF101991001001999999001021KA1999N-01221
0051105010999991929022112004+50783+006100FM-12+006399999V0203601N00261220001CN0020001N9+00281-00281103511ADDAY101061GF101991001001999999001021MD1810141+9999
0064105010999991929022206004+50783+006100FM-12+006399999V0209991C00001220001CN0200001N9-00221-01781102601ADDAY101061GF102991001001999999001081KA1999N-00501MD1810141+9999
0051105010999991929022212004+50783+006100FM-12+006399999V0202701N00261220001CN0040001N9+00781-01001102131ADDAY141061GF104991001001999999031081MD1810261+9999
0075105010999991929022306004+50783+006100FM-12+006399999V0209999900461220001CN0040001N9+00281-00281101131ADDAA199090091AY111061GF107991999001999999021001KA1999N-00281MD1810201+9999
0051105010999991929022312004+50783+006100FM-12+006399999V0202001N00461220001CN0040001N9+00891+00281100861ADDAY111061GF107991999001999999021001MD1810141+9999
0081105010999991929022406004+50783+006100FM-12+006399999V0209999900261030001CN0020001N9+00391+00331100441ADDAA199002091AY161061GF108991021061012501021001KA1999N+00221MD1810061+9999MW1611
0067105010999991929022506004+50783+006100FM-12+006399999V0209999900261000151CN0000001N9-00111-00171100611ADDAA199005091AY161061GF108991081051000251999999KA1999N-00111MW1611
0057105010999991929022512004+50783+006100FM-12+006399999V0202701N00261004501CN0010001N9+00501+00441100441ADDAY161061GF108991061061004501021001MD1990061+9999MW1611
0035105010999991929022606004+50783+006100FM-12+006399999V0209999900261000151CN0000501N9+99999+99999999999ADDGF199999081051000251999999MW1431
0043105010999991929022612004+50783+006100FM-12+006399999V0200501N00261002401CN0005001N9-00281-00331101531ADDAY141061GF108991081051002501999999MW1431
0075105010999991929022706004+50783+006100FM-12+006399999V0209999900461004501CN0020001N9-00721-00891101511ADDAA199000691AY171061GF108991081051004501999999KA1999N-00721MD1410001+9999
0051105010999991929022712004+50783+006100FM-12+006399999V0200501N00671220001CN0020001N9-00501-00831101681ADDAY111061GF101991011011008001001001MD1310061+9999
0075105010999991929022806004+50783+006100FM-12+006399999V0209999900101220001CN0020001N9-01221-01281103571ADDAA199000691AY171061GF102991021051004501001001KA1999N-01281MD1310261+9999
0051105010999991929022812004+50783+006100FM-12+006399999V0203601N00461220001CN0100001N9-00501-01171103731ADDAY101061GF101991011051017501001001MD1010061+9999
