0064105010999991928010106004+50783+006100FM-12+006399999V0209999900101004501CN0020001N9-00111-00441102951ADDAY111061GF107991071051004501001001KA1999N-00721MD1310061+9999
0064105010999991928010206004+50783+006100FM-12+006399999V0209999900671220001CN0040001N9-00391-00721102631ADDAY101061GF100991001001999999001001KA1999N-00721MD1810141+9999
0064105010999991928010306004+50783+006100FM-12+006399999V0209999900101220001CN0040001N9-00501-00671101351ADDAY101061GF101991999001999999021001KA1999N-00721MD1810141+9999
0057105010999991928010406004+50783+006100FM-12+006399999V0209999900461002401CN0010001N9+00111+00061102341ADDAY171061GF108991081061002501999999MD1210141+9999MW1231
0051105010999991928010412004+50783+006100FM-12+006399999V0202501N006719999999N0040001N9+00281+00061102201ADDAY161061GF108991999051004501001001MD1710141+9999
0067105010999991928010506004+50783+006100FM-12+006399999V0209999900671002401CN0040001N9+00501+00441101311ADDAA199009091AY161061GF108991081061002501999999KA1999N+00111MW1611
0057105010999991928010512004+50783+006100FM-12+006399999V0202901N00671002401CN0100001N9+00391+00331101731ADDAY161061GF108991081061002501999999MD1210061+9999MW1601
0081105010999991928010606004+50783+006100FM-12+006399999V0209999900671002401CN0020001N9+00221+00171101351ADDAA199001091AY161061GF108991081061002501999999KA1999N+00111MD1810341+9999MW1611
0076105010999991928010612004+50783+006100FM-12+006399999V0202501N01901002401CN0100001N9+00501+00441100172ADDAY161061GF108991081061002501999999MD1710401+9999MW1611EQDQ01+100173APOSLP
0075105010999991928010706004+50783+006100FM-12+006399999V02099999001019999999N0040001N9+00221+00171102261ADDAA199002091AY161061GF106991999051004501001001KA1999N+00111MD1310141+9999
0051105010999991928010712004+50783+006100FM-12+006399999V0202501N00931012301CN0200001N9+00611+00221101891ADDAY121061GF108991081051012501999999MD1710201+9999
0081105010999991928010806004+50783+006100FM-12+006399999V0209999900671002401CN0020001N9+00781+00561100971ADDAA199000391AY161061GF108991081061002501999999KA1999N+00221MD1810141+9999MW1601
0051105010999991928010812004+50783+006100FM-12+006399999V0202701N009319999999N0200001N9+00891+00831999999ADDAY161061GF106991999011002501001001MD1310061+9999
0067105010999991928010906004+50783+006100FM-12+006399999V02099999002619999999N0040001N9+00501+00281101491ADDAA199000691AY161061GF107991999051002501001001KA1999N+00391MW1211
0051105010999991928010912004+50783+006100FM-12+006399999V0202901N004619999999N0200001N9+00721+00501101531ADDAY101061GF107991999051008001001001MD1810061+9999
0075105010999991928011006004+50783+006100FM-12+006399999V02099999004619999999N0040001N9+00501+00441101761ADDAA199000591AY161061GF106991999051004501001001KA1999N+00391MD1310061+9999
0051105010999991928011012004+50783+006100FM-12+006399999V0202501N00931220001CN0200001N9+00891+00441101441ADDAY111061GF104991041011004501001001MD1710141+9999
0075105010999991928011106004+50783+006100FM-12+006399999V0209999900671030001CN0040001N9+00611+00391101501ADDAA199001091AY161061GF107991041051008001031001KA1999N+00391MD1310061+9999
0037105010999991928011112004+50783+006100FM-12+006399999V0202501N00461004501CN0100001N9+00721+00501101591ADDAY111061GF108991081051004501999999
0075105010999991928011206004+50783+006100FM-12+006399999V0209999900101007801CN0040001N9+00111+00061102171ADDAA199001091AY161061GF108991081051008001999999KA1999N+00111MD1310061+9999
0051105010999991928011212004+50783+006100FM-12+006399999V0202701N00671220001CN0200001N9+00501+00111102021ADDAY111061GF106991999001999999021001MD1810061+9999
0081105010999991928011306004+50783+006100FM-12+006399999V0209999901231002401CN0040001N9+00501+00441100741ADDAA199001091AY161061GF108991081061002501999999KA1999N+00001MD1710141+9999MW1611
0037105010999991928011312004+50783+006100FM-12+006399999V0202501N012319999999N0200001N9+00781+00561100701ADDAY161061GF106991999011008001001001
0064105010999991928011406004+50783+006100FM-12+006399999V02099999009319999999N0040001N9+00501+00281101171ADDAY111061GF108991999061004501001001KA1999N+00391MD1310061+9999
0051105010999991928011412004+50783+006100FM-12+006399999V0202701N009319999999N0200001N9+00721+00331101221ADDAY111061GF108991999011008001001001MD1990061+9999
0081105010999991928011506004+50783+006100FM-12+006399999V0209999900931002401CN0020001N9+00781+00721100271ADDAA199008091AY161061GF108991081061002501999999KA1999N+00611MD1510001+9999MW1511
0037105010999991928011512004+50783+006100FM-12+006399999V0202001N006719999999N0100001N9+00781+00561100441ADDAY111061GF108991999051002501001001
0037105010999991928011612004+50783+006100FM-12+006399999V0202301N012319999999N0200001N9+00501+00281100881ADDAY111061GF107991999051002501001001
0081105010999991928011706004+50783+006100FM-12+006399999V0202701N00671002401CN0020001N9+00391+99999100561ADDAA199007091AY161061GF108991081061002501999999KA1999N+00221MD1310141+9999MW1601
0081105010999991928011806004+50783+006100FM-12+006399999V0202701N00101002401CN0010001N9+00281+00221102071ADDAA199000391AY161061GF108991081051002501999999KA1999N+00221MD1310141+9999MW1451
0081105010999991928011906004+50783+006100FM-12+006399999V0209999900931002401CN0040001N9+00281+00221100901ADDAA199005091AY161061GF108991081061002501999999KA1999N+00221MD1810401+9999MW1611
0057105010999991928011912004+50783+006100FM-12+006399999V0202701N00931001501CN0100001N9+00281+00221101181ADDAY161061GF108991081061001501999999MD1210141+9999MW1211
0081105010999991928012006004+50783+006100FM-12+006399999V0209991C00001002401CN0005001N9-00111-00171102911ADDAA199001091AY141061GF108991081051002501999999KA1999N-00111MD1310141+9999MW1451
0051105010999991928012012004+50783+006100FM-12+006399999V0202501N00461007801CN0100001N9+00111+00061102961ADDAY111061GF108991081051008001999999MD1610141+9999
0075105010999991928012106004+50783+006100FM-12+006399999V0209999900671007801CN0040001N9+00501+00281102771ADDAA199000691AY161061GF108991081051008001999999KA1999N-00111MD1510001+9999
0051105010999991928012112004+50783+006100FM-12+006399999V0202501N00671220001CN0200001N9+00891+00441102391ADDAY111061GF104991041051008001001001MD1710141+9999
0064105010999991928012206004+50783+006100FM-12+006399999V0209999900671002401CN0000001N9+00721+00111101011ADDAY111061GF108991081051002501999999KA1999N+00391MD1710201+9999
0067105010999991928012306004+50783+006100FM-12+006399999V02099999006719999999N0040001N9+00391+00331101801ADDAA199001091AY161061GF108991999051002501001001KA1999N+00281MW1211
0051105010999991928012312004+50783+006100FM-12+006399999V0202701N006719999999N0040001N9+00501+00281102131ADDAY161061GF107991999051004501001001MD1310061+9999
0081105010999991928012406004+50783+006100FM-12+006399999V0209999901541002401CN0040001N9+00391+00171101771ADDAA199000391AY161061GF108991081061002501999999KA1999N+00281MD1710201+9999MW1601
0031105010999991928012412004+50783+006100FM-12+006399999V0202301N015419999999N0200001N9+00391+00331101771ADDAY161061MD1810201+9999MW1631
0075105010999991928012506004+50783+006100FM-12+006399999V0209999900931220001CN0040001N9+00281+00061102601ADDAA199000691AY161061GF102991021051012501001001KA1999N+00221MD1310261+9999
0043105010999991928012512004+50783+006100FM-12+006399999V0201801N009319999999N0100001N9+00391+00171102871ADDAY181061GF107991999051004501001001MW1231
0075105010999991928012606004+50783+006100FM-12+006399999V0209999901231220001CN0040001N9+00501+00111102441ADDAA199000391AY161061GF102991021051012501021001KA1999N+00111MD1810061+9999
0051105010999991928012612004+50783+006100FM-12+006399999V0202501N01541075001CN0200001N9+00781-00061102111ADDAY111061GF106991021011008001001021MD1710201+9999
0081105010999991928012706004+50783+006100FM-12+006399999V0209999900671002401CN0040001N9+00281+00221101261ADDAA199001091AY161061GF108991081061002501999999KA1999N+00111MD1310061+9999MW1601
0051105010999991928012712004+50783+006100FM-12+006399999V0202301N004619999999N0200001N9+00611+00001101581ADDAY181061GF106991999051012501001001MD1110061+9999
0064105010999991928012806004+50783+006100FM-12+006399999V0209999900261004501CN0040001N9+00221+00001102481ADDAY101061GF108991081051004501999999KA1999N+00001MD1310061+9999
0051105010999991928012812004+50783+006100FM-12+006399999V0202501N00461220001CN0200001N9+00501-00281102331ADDAY111061GF101991011011012501001001MD1710141+9999
0064105010999991928012906004+50783+006100FM-12+006399999V0209999900671012301CN0040001N9+00281-00111101151ADDAY111061GF107991071051012501001001KA1999N+00001MD1810061+9999
0051105010999991928012912004+50783+006100FM-12+006399999V0202301N00671075001CN0200001N9+00611-00441101101ADDAY111061GF106991041051012501001081MD1990061+9999
0050105010999991928013006004+50783+006100FM-12+006399999V0209999900101220001CN0040001N9+00501-00111100571ADDAY101061GF101991999001999999021001KA1999N+00001
0037105010999991928013012004+50783+006100FM-12+006399999V0202501N00671030001CN0200001N9+00891+00281100601ADDAY111061GF106991041051012501031001
0075105010999991928013106004+50783+006100FM-12+006399999V02099999001019999999N0020001N9+00281+00061101101ADDAA199000691AY161061GF108991999051004501001001KA1999N+00281MD1310201+9999
0037105010999991928013112004+50783+006100FM-12+006399999V0202701N002619999999N0200001N9+00721+00331101331ADDAY111061GF106991999051008001001001
0081105010999991928020106004+50783+006100FM-12+006399999V02099999012319999999N0040001N9+00501+00441100741ADDAA199003091AY161061GF108991999051004501001001KA1999N+00111MD1810061+9999MW1601
0057105010999991928020112004+50783+006100FM-12+006399999V0202501N01231002401CN0100001N9+00721+00671100571ADDAY161061GF108991081061002501999999MD1710061+9999MW1601
0075105010999991928020206004+50783+006100FM-12+006399999V0209999900461220001CN0020001N9+00221+00171101371ADDAA199000391AY121061GF104991041051004501001001KA1999N+00111MD1310261+9999
0051105010999991928020212004+50783+006100FM-12+006399999V0202701N00931220001CN0100001N9+00611+00001101731ADDAY111061GF102991021051008001001001MD1110061+9999
0064105010999991928020306004+50783+006100FM-12+006399999V0209999901231004501CN0100001N9+00391+00001100731ADDAY111061GF108991081051004501999999KA1999N+00001MD1810201+9999
0057105010999991928020312004+50783+006100FM-12+006399999V0202901N00101002401CN0020001N9+00111+00061101141ADDAY171061GF108991081061002501999999MD1210141+9999MW1731
0081105010999991928020406004+50783+006100FM-12+006399999V0209999900101002401CN0010001N9+00221+00171102771ADDAA199000591AY161061GF108991081061002501999999KA1999N+00001MD1310201+9999MW1601
0056105010999991928020412004+50783+006100FM-12+006399999V0202501N00261220001CN0200001N9+00611+00221100382ADDAY111061GF102991021011008001001081EQDQ01+100383APOSLP
0064105010999991928020506004+50783+006100FM-12+006399999V0209999901231030001CN0200001N9+00501+00111102461ADDAY111061GF108991041051012501021001KA1999N+00111MD1810061+9999
0051105010999991928020512004+50783+006100FM-12+006399999V0202001N00931012301CN0200001N9+00611+00221102121ADDAY111061GF108991999051012501001001MD1810141+9999
0075105010999991928020606004+50783+006100FM-12+006399999V02099999001019999999N0020001N9+00281+00221102481ADDAA199009091AY161061GF108991999051004501001001KA1999N+00281MD1310201+9999
0051105010999991928020612004+50783+006100FM-12+006399999V0202701N006719999999N0200001N9+00501+00281102861ADDAY111061GF107991999051004501001001MD1310061+9999
0064105010999991928020706004+50783+006100FM-12+006399999V0209999900671030001CN0040001N9+00111+00061103601ADDAY121061GF108991041051012501021001KA1999N-00111MD1310141+9999
0051105010999991928020712004+50783+006100FM-12+006399999V0202701N009319999999N0100001N9+00611+00391103511ADDAY111061GF106991999051008001001001MD1810061+9999
0067105010999991928020806004+50783+006100FM-12+006399999V0209999900931030001CN0020001N9+00501+00441103361ADDAA199002091AY161061GF106991041051008001021001KA1999N+00111MW1211
0043105010999991928020812004+50783+006100FM-12+006399999V0202501N01231002401CN0020001N9+00611+00561103351ADDAY161061GF108991081061002501999999MW1601
0075105010999991928020906004+50783+006100FM-12+006399999V02099999009319999999N0040001N9+00391+00171102571ADDAA199000691AY161061GF106991999051004501001001KA1999N+00391MD1710141+9999
0043105010999991928020912004+50783+006100FM-12+006399999V0202501N01231002401CN0020001N9+00611+00561102591ADDAY161061GF108991081061002501999999MW1511
0081105010999991928021006004+50783+006100FM-12+006399999V0209999900261004501CN0040001N9+00221+00171101681ADDAA199006091AY161061GF108991081061004501999999KA1999N+00221MD1810201+9999MW1501
0070105010999991928021012004+50783+006100FM-12+006399999V0202501N004619999999N0100001N9+00891+00671100782ADDAY161061GF108991999051002501001001MD1710261+9999EQDQ01+100783APOSLP
0075105010999991928021106004+50783+006100FM-12+006399999V02099999012319999999N0200001N9+00501+00111099311ADDAA199011091AY191061GF106991999051002501001001KA1999N+00001MD1710141+9999
0051105010999991928021112004+50783+006100FM-12+006399999V0202501N012319999999N0200001N9+00501-00111099181ADDAY111061GF106991999051004501001001MD1710061+9999
0081105010999991928021206004+50783+006100FM-12+006399999V02099999006719999999N0200001N9+00111+00061099701ADDAA199009091AY161061GF106991999051002501001001KA1999N+00001MD1310401+9999MW1601
0051105010999991928021212004+50783+006100FM-12+006399999V0202901N006719999999N0100001N9+00391+00331100301ADDAY171061GF107991999051004501001001MD1210141+9999
0061105010999991928021306004+50783+006100FM-12+006399999V02099999006719999999N0100001N9+00221+00171100351ADDAA199001091AY161061GF106991999051004501001001KA1999N+00111
0057105010999991928021312004+50783+006100FM-12+006399999V0202301N00671030001CN0200001N9+00391+00171099971ADDAY161061GF108991041051008001021001MD1710141+9999MW1501
0075105010999991928021406004+50783+006100FM-12+006399999V02099999009319999999N0040001N9+00781+00721100691ADDAA199000591AY161061GF108991999051002501001001KA1999N+00111MD1310141+9999
0051105010999991928021412004+50783+006100FM-12+006399999V0202901N009319999999N0200001N9+00781+00391100931ADDAY111061GF108991999051002501001001MD1210141+9999
0081105010999991928021506004+50783+006100FM-12+006399999V0209999900671002401CN0020001N9+00891+00831101441ADDAA199007091AY161061GF108991081061002501999999KA1999N+00721MD1310201+9999MW1601
0057105010999991928021512004+50783+006100FM-12+006399999V0202701N00931002401CN0040001N9+01001+00941101701ADDAY161061GF108991081061002501999999MD1010001+9999MW1611
0061105010999991928021606004+50783+006100FM-12+006399999V02099999012319999999N0200001N9+01001+00781101901ADDAA199000591AY161061GF106991999051008001001001KA1999N+00891
0051105010999991928021612004+50783+006100FM-12+006399999V0202501N012319999999N0200001N9+01111+00671101711ADDAY121061GF108991999051004501001001MD1610061+9999
0081105010999991928021706004+50783+006100FM-12+006399999V0209999901231004501CN0100001N9+00281+00221101181ADDAA199005091AY161061GF108991081061004501999999KA1999N+00281MD1510061+9999MW1601
0057105010999991928021712004+50783+006100FM-12+006399999V0202901N01541002401CN0200001N9+00501-00111101671ADDAY171061GF108991999061002501001001MD1210201+9999MW1701
0081105010999991928021806004+50783+006100FM-12+006399999V0202901N006719999999N0040001N9+00281+00221102631ADDAA199001091AY171061GF108991999051004501001001KA1999N+00001MD1310141+9999MW1211
0051105010999991928021812004+50783+006100FM-12+006399999V0201401N006719999999N0100001N9+00721+00111102801ADDAY161061GF106991999061002501001001MD1310061+9999
0050105010999991928021906004+50783+006100FM-12+006399999V0209999900461004501CN0020001N9+00391+00331102881ADDAY111061GF108991081051004501999999KA1999N+00281
0081105010999991928022006004+50783+006100FM-12+006399999V0209999900461002401CN0020001N9+00501+00441103321ADDAA199002091AY161061GF108991081061002501999999KA1999N+00281MD1310061+9999MW1511
0050105010999991928022106004+50783+006100FM-12+006399999V0209991C00001220001CN0100001N9+00001-00221103641ADDAY101061GF100991001001999999001001KA1999N+00001
0051105010999991928022112004+50783+006100FM-12+006399999V0201101N00261220001CN0200001N9+00891+00061103281ADDAY101061GF100991001001999999001001MD1710141+9999
0064105010999991928022206004+50783+006100FM-12+006399999V0209991C00001220001CN0040001N9-00221-00391103301ADDAY101061GF101991999001999999021001KA1999N-00221MD1310061+9999
0037105010999991928022212004+50783+006100FM-12+006399999V0203601N00101220001CN0020001N9+00721-00111103331ADDAY101061GF100991001001999999001001
0056105010999991928022306004+50783+006100FM-12+006399999V0209999900101001501CN0002001N9-00281-00331103371ADDAY141061GF108991081051001501999999KA1999N-00391MW1431
0057105010999991928022312004+50783+006100FM-12+006399999V0200701N00101220001CN0010001N9+00221-00171103091ADDAY101061GF100991001001999999001001MD1710061+9999MW1101
0067105010999991928022406004+50783+006100FM-12+006399999V0209991C00001220001CN0005001N9-00281-00331102571ADDAA199000691AY141061GF100991001001999999001001KA1999N-00391MW1421
0037105010999991928022412004+50783+006100FM-12+006399999V0200701N00671220001CN0040001N9+01111+00221102511ADDAY101061GF100991001001999999001001
0050105010999991928022506004+50783+006100FM-12+006399999V0209999900671220001CN0200001N9+00221-00331103131ADDAY101061GF100991001001999999001001KA1999N-00391
0037105010999991928022512004+50783+006100FM-12+006399999V0201601N00461220001CN0200001N9+01221+00061103071ADDAY101061GF100991001001999999001001
0050105010999991928022606004+50783+006100FM-12+006399999V0209999900461220001CN0200001N9+00281-00111103241ADDAY101061GF100991001001999999001001KA1999N+00111
0051105010999991928022612004+50783+006100FM-12+006399999V0200501N00461220001CN0100001N9+01111+00221103101ADDAY101061GF100991001001999999001001MD1810141+9999
0050105010999991928022706004+50783+006100FM-12+006399999V0209999900261220001CN0100001N9+00111-00441103101ADDAY101061GF100991001001999999001001KA1999N+00001
0051105010999991928022712004+50783+006100FM-12+006399999V0200501N00261220001CN0040001N9+01111+00001102821ADDAY101061GF100991001001999999001001MD1710141+9999
0064105010999991928022806004+50783+006100FM-12+006399999V0209999900261220001CN0100001N9+00281-00501102371ADDAY101061GF100991001001999999001001KA1999N+00001MD1810061+9999
0051105010999991928022812004+50783+006100FM-12+006399999V0200901N00671220001CN0100001N9+01111+00001101981ADDAY101061GF101991999001999999021001MD1710141+9999
0067105010999991928022906004+50783+006100FM-12+006399999V02099999001019999999N0010001N9+00281+00221101801ADDAA199000591AY161061GF107991999091004501001001KA1999N+00221MW1211
0051105010999991928022912004+50783+006100FM-12+006399999V0201101N00671030001CN0100001N9+01001+00111101671ADDAY111061GF106991041051012501021001MD1610061+9999
