0037105490999991928070206004+50850+010467FM-12+027999999V0209999900261220001CN0200001N9+01111+00671999999ADDAY101061GF100991001001999999001001
0051105490999991928070306004+50850+010467FM-12+027999999V0209999900261220001CN0100001N9+01611+00441999999ADDAY101061GF100991001001999999001001MD1810061+9999
0037105490999991928070506004+50850+010467FM-12+027999999V0209999900461220001CN0100001N9+00781+00721999999ADDAY141061GF104991041011017501001001
0057105490999991928070706004+50850+010467FM-12+027999999V0209999901231000151CN0000001N9+00721+00671999999ADDAY141061GF108991081051000251999999MD1110141+9999MW1451
0051105490999991928070906004+50850+010467FM-12+027999999V0209999900461220001CN0100001N9+00891+00671999999ADDAY101061GF100991001001999999001001MD1610061+9999
0057105490999991928071006004+50850+010467FM-12+027999999V0209999900101000151CN0000001N9+00891+00831999999ADDAY141061GF108991081051000251999999MD1310061+9999MW1451
0037105490999991928071106004+50850+010467FM-12+027999999V0209999900261220001CN0100001N9+01221+01171999999ADDAY111061GF100991001001999999001001
0037105490999991928071206004+50850+010467FM-12+027999999V0209999900101220001CN0100001N9+01891+00671999999ADDAY101061GF100991001001999999001001
0037105490999991928071306004+50850+010467FM-12+027999999V0209999900101220001CN0100001N9+02001+01061999999ADDAY101061GF100991001001999999001001
0051105490999991928071406004+50850+010467FM-12+027999999V0209999900261220001CN0100001N9+01781+01561999999ADDAY141061GF100991001001999999001001MD1310061+9999
0037105490999991928071606004+50850+010467FM-12+027999999V0209999900261220001CN0100001N9+02391+01941999999ADDAY141061GF100991001001999999001001
0057105490999991928071706004+50850+010467FM-12+027999999V0209999900461000151CN0000001N9+01221+01171999999ADDAY191061GF108991081051000251999999MD1310061+9999MW1291
0051105490999991928071806004+50850+010467FM-12+027999999V0209999900261220001CN0100001N9+01221+01001999999ADDAY101061GF100991001001999999001001MD1010061+9999
0051105490999991928071906004+50850+010467FM-12+027999999V0209999900461012301CN0100001N9+01221+01171999999ADDAY121061GF108991081051012501999999MD1310261+9999
0037105490999991928072006004+50850+010467FM-12+027999999V0209999900261220001CN0200001N9+01001+00941999999ADDAY111061GF104991041051012501001001
0057105490999991928072106004+50850+010467FM-12+027999999V0209999900671000151CN0000501N9+00281+00221999999ADDAY141061GF108991081051000251999999MD1510001+9999MW1421
0037105490999991928072306004+50850+010467FM-12+027999999V0209999900461220001CN0100001N9+01221+00611999999ADDAY141061GF100991001001999999001001
0051105490999991928072406004+50850+010467FM-12+027999999V0209999900261220001CN0100001N9+01281+01221999999ADDAY111061GF100991001001999999001001MD1810061+9999
0043105490999991928072506004+50850+010467FM-12+027999999V0209999900461000151CN0000001N9+01111+01061999999ADDAY161061GF108991081051000251999999MW1211
0043105490999991928072606004+50850+010467FM-12+027999999V0209999900671000151CN0000001N9+01281+01221999999ADDAY161061GF108991081051000251999999MW1211
0051105490999991928072706004+50850+010467FM-12+027999999V0209999900461220001CN0100001N9+01501+01281999999ADDAY101061GF100991001001999999001001MD1810061+9999
0057105490999991928072806004+50850+010467FM-12+027999999V0209999900931000151CN0000001N9+01281+01221999999ADDAY141061GF108991081051000251999999MD1810061+9999MW1471
0051105490999991928073006004+50850+010467FM-12+027999999V0209999900931220001CN0100001N9+00891+00831999999ADDAY141061GF100991001001999999001001MD1610061+9999
0051105490999991928073106004+50850+010467FM-12+027999999V0209999900671220001CN0200001N9+01111+00501999999ADDAY101061GF100991001001999999001001MD1810061+9999
0037105490999991928080106004+50850+010467FM-12+027999999V0209999900261220001CN0100001N9+01501+01061999999ADDAY111061GF100991001001999999001001
0043105490999991928080206004+50850+010467FM-12+027999999V0209999900461000151CN0000001N9+01221+01171999999ADDAY141061GF108991081051000251999999MW1211
0037105490999991928080306004+50850+010467FM-12+027999999V0209999900461220001CN0100001N9+00721+00501999999ADDAY101061GF100991001001999999001001
0051105490999991928080406004+50850+010467FM-12+027999999V0209999900261012301CN0040001N9+01391+00721999999ADDAY121061GF108991081051012501999999MD1810061+9999
0057105490999991928080606004+50850+010467FM-12+027999999V0209999900671000151CN0000001N9+00721+00671999999ADDAY141061GF108991081051000251999999MD1310141+9999MW1211
0037105490999991928080706004+50850+010467FM-12+027999999V0209999900261220001CN0040001N9+01001+00781999999ADDAY101061GF100991001001999999001001
0037105490999991928080806004+50850+010467FM-12+027999999V0209999900671220001CN0100001N9+01221+00781999999ADDAY101061GF100991001001999999001001
0057105490999991928080906004+50850+010467FM-12+027999999V0209999900671000151CN0000501N9+00891+00831999999ADDAY141061GF108991081051000251999999MD1310061+9999MW1431
0037105490999991928081006004+50850+010467FM-12+027999999V0209999900461220001CN0100001N9+01001+00781999999ADDAY101061GF104991041051012501001001
0043105490999991928081106004+50850+010467FM-12+027999999V0209999900101220001CN0000501N9+01221+01001999999ADDAY101061GF104991041011022501001001MW1441
0043105490999991928081306004+50850+010467FM-12+027999999V0209999900931000151CN0000001N9+01281+01221999999ADDAY161061GF108991081061000251999999MW1451
0043105490999991928081406004+50850+010467FM-12+027999999V0209999900931000151CN0000001N9+00891+00831999999ADDAY141061GF108991081051000251999999MW1451
0037105490999991928081506004+50850+010467FM-12+027999999V0209999900261220001CN0100001N9+01221+00781999999ADDAY111061GF106991999001999999021001
0057105490999991928081606004+50850+010467FM-12+027999999V0209999900931000151CN0000001N9+00891+00831999999ADDAY141061GF108991081051000251999999MD1310141+9999MW1451
0043105490999991928081706004+50850+010467FM-12+027999999V0209999900671000151CN0000501N9+00721+00671999999ADDAY181061GF108991081051000251999999MW1801
0043105490999991928081806004+50850+010467FM-12+027999999V0209999900461000151CN0000001N9+00611+00561999999ADDAY141061GF108991081051000251999999MW1451
0051105490999991928082006004+50850+010467FM-12+027999999V0209999900931220001CN0200001N9+01221+00331999999ADDAY101061GF104991999001999999031001MD1810061+9999
0057105490999991928082306004+50850+010467FM-12+027999999V0209999900931000151CN0000001N9+00781+00721999999ADDAY141061GF108991081051000251999999MD1310061+9999MW1451
0043105490999991928082406004+50850+010467FM-12+027999999V0209999901231000151CN0000001N9+01001+00941999999ADDAY141061GF108991081051000251999999MW1471
0037105490999991928082506004+50850+010467FM-12+027999999V0209999900931220001CN0200001N9+01221+01171999999ADDAY111061GF106991999001999999031001
0057105490999991928082706004+50850+010467FM-12+027999999V0209999901231000151CN0000001N9+01281+01221999999ADDAY141061GF108991081051000251999999MD1310061+9999MW1211
0057105490999991928082806004+50850+010467FM-12+027999999V0209999900261000151CN0000001N9+01111+01061999999ADDAY141061GF108991081051000251999999MD1310061+9999MW1461
0037105490999991928082906004+50850+010467FM-12+027999999V0209999900671000151CN0000001N9+01001+00941999999ADDAY141061GF108991081051000251999999
0057105490999991928083006004+50850+010467FM-12+027999999V0209999900461000151CN0000001N9+01221+01171999999ADDAY161061GF108991081051000251999999MD1810141+9999MW1451
0057105490999991928083106004+50850+010467FM-12+027999999V0209999900931000151CN0000001N9+00611+00561999999ADDAY141061GF108991081051000251999999MD1310141+9999MW1451
0037105490999991928090106004+50850+010467FM-12+027999999V0209999900461220001CN0100001N9+00501+00441999999ADDAY101061GF100991001001999999001001
0043105490999991928090306004+50850+010467FM-12+027999999V0209999900461000151CN0100001N9+00721+00501999999ADDAY141061GF108991081051000251999999MW1441
0037105490999991928090406004+50850+010467FM-12+027999999V0209999900261220001CN0200001N9+00891+00281999999ADDAY101061GF100991001001999999001001
0037105490999991928090506004+50850+010467FM-12+027999999V0209999900461220001CN0200001N9+01281+00111999999ADDAY101061GF100991001001999999001001
0051105490999991928090606004+50850+010467FM-12+027999999V0209999900671220001CN0100001N9+01281+01221999999ADDAY101061GF100991001001999999001001MD1310061+9999
0051105490999991928090706004+50850+010467FM-12+027999999V0209999900261220001CN0200001N9+00891+00441999999ADDAY101061GF100991001001999999001001MD1310061+9999
0037105490999991928090806004+50850+010467FM-12+027999999V0209999900261220001CN0100001N9+01501+01281999999ADDAY101061GF100991001001999999001001
0037105490999991928091006004+50850+010467FM-12+027999999V0209999900461220001CN0200001N9+01611+01331999999ADDAY101061GF100991001001999999001001
0037105490999991928091106004+50850+010467FM-12+027999999V0209999900261015001CN0040001N9+01221+01171999999ADDAY111061GF106991061011017501001001
0043105490999991928091206004+50850+010467FM-12+027999999V0209999900461000151CN0000001N9+00891+00831999999ADDAY141061GF108991081051000251999999MW1451
0037105490999991928091306004+50850+010467FM-12+027999999V0209999900931220001CN0200001N9+00501+00441999999ADDAY101061GF100991001001999999001001
0043105490999991928091406004+50850+010467FM-12+027999999V0209999900671000151CN0002001N9+00611+00561999999ADDAY141061GF108991081051000251999999MW1461
0037105490999991928091506004+50850+010467FM-12+027999999V0209999900461220001CN0040001N9+00721+00671999999ADDAY111061GF104991041011012501001001
0037105490999991928091706004+50850+010467FM-12+027999999V0209999900461220001CN0100001N9+00891+00831999999ADDAY101061GF100991001001999999001001
0037105490999991928091806004+50850+010467FM-12+027999999V0209999900461220001CN0100001N9+00891+00281999999ADDAY101061GF100991001001999999001001
0037105490999991928091906004+50850+010467FM-12+027999999V0209999900261015001CN0040001N9+01221+00611999999ADDAY121061GF108991081051017501999999
0043105490999991928092006004+50850+010467FM-12+027999999V0209999900461000151CN0000001N9+00781+00721999999ADDAY141061GF108991081051000251999999MW1451
0037105490999991928092106004+50850+010467FM-12+027999999V0209999900261220001CN0100001N9+00501+00441999999ADDAY101061GF100991001001999999001001
0057105490999991928092206004+50850+010467FM-12+027999999V0209991C00001000151CN0000001N9+00281+00221999999ADDAY141061GF108991081051000251999999MD1410001+9999MW1451
0051105490999991928092406004+50850+010467FM-12+027999999V0209999900461220001CN0200001N9+00111+00061999999ADDAY101061GF100991001001999999001001MD1810061+9999
0057105490999991928092506004+50850+010467FM-12+027999999V0209999900931000151CN0000001N9+00221+00171999999ADDAY161061GF108991081051000251999999MD1310061+9999MW1631
0057105490999991928092606004+50850+010467FM-12+027999999V0209999900261000151CN0000001N9+00281+00221999999ADDAY141061GF108991081051000251999999MD1310061+9999MW1451
0037105490999991928092706004+50850+010467FM-12+027999999V0209999900101220001CN0100001N9+00501-00111999999ADDAY101061GF100991001001999999001001
0057105490999991928092906004+50850+010467FM-12+027999999V0209999900461000151CN0000001N9+00891+00831999999ADDAY161061GF108991081051000251999999MD1310061+9999MW1501
0043105490999991928100106004+50850+010467FM-12+027999999V0209999901231000151CN0000001N9+00001-00061999999ADDAY141061GF108991081051000251999999MW1451
0057105490999991928100206004+50850+010467FM-12+027999999V0209999901231000151CN0000001N9+00611+00561999999ADDAY141061GF108991081051000251999999MD1410001+9999MW1451
0057105490999991928100306004+50850+010467FM-12+027999999V0209999900461000151CN0000001N9+00221+00171999999ADDAY141061GF108991081051000251999999MD1310141+9999MW1451
0037105490999991928100406004+50850+010467FM-12+027999999V0209999900671220001CN0200001N9+00281-00281999999ADDAY141061GF100991001001999999001001
0037105490999991928100506004+50850+010467FM-12+027999999V0209999900671220001CN0100001N9+00281+00221999999ADDAY141061GF100991001001999999001001
0037105490999991928100606004+50850+010467FM-12+027999999V0209999900671220001CN0100001N9+00501+00441999999ADDAY101061GF100991001001999999001001
0057105490999991928100806004+50850+010467FM-12+027999999V0209999900671000151CN0000001N9+01111+01061999999ADDAY121061GF108991081051000251999999MD1410001+9999MW1451
0057105490999991928100906004+50850+010467FM-12+027999999V0209999901231000151CN0000001N9+00501+00441999999ADDAY141061GF108991081051000251999999MD1810141+9999MW1451
0057105490999991928101006004+50850+010467FM-12+027999999V0209999900671000151CN0000001N9+00781+00721999999ADDAY161061GF108991081051000251999999MD1410001+9999MW1211
0051105490999991928101106004+50850+010467FM-12+027999999V0209999900261030001CN0100001N9+00221+00171999999ADDAY111061GF106991041051004501021001MD1310061+9999
0057105490999991928101206004+50850+010467FM-12+027999999V0209999901231000151CN0000001N9+00501+00441999999ADDAY141061GF108991081051000251999999MD1410001+9999MW1211
0037105490999991928101306004+50850+010467FM-12+027999999V0209999900261220001CN0100001N9-00281-00331999999ADDAY101061GF104991999001999999031001
0037105490999991928101506004+50850+010467FM-12+027999999V0209999900461220001CN0200001N9-00281-00331999999ADDAY101061GF100991001001999999001001
0037105490999991928101606004+50850+010467FM-12+027999999V0209999900261220001CN0200001N9-00281-00781999999ADDAY111061GF100991001001999999001001
0043105490999991928101706004+50850+010467FM-12+027999999V0209999900931220001CN0000001N9-00221-00281999999ADDAY171061GF100991001001999999001001MW1461
0043105490999991928101806004+50850+010467FM-12+027999999V0209999900671000151CN0000001N9+00721+00671999999ADDAY161061GF108991081051000251999999MW1211
0043105490999991928101906004+50850+010467FM-12+027999999V0209999901901000151CN0000001N9+00781+00721999999ADDAY161061GF108991081051000251999999MW1631
0057105490999991928102006004+50850+010467FM-12+027999999V0209999900671000151CN0000001N9+00611+00561999999ADDAY141061GF108991081051000251999999MD1410001+9999MW1471
0043105490999991928102206004+50850+010467FM-12+027999999V0209991C00001000151CN0000001N9+00611+00561999999ADDAY141061GF108991081051000251999999MW1801
0043105490999991928102306004+50850+010467FM-12+027999999V0209999901231000151CN0000001N9+00391+00331999999ADDAY141061GF108991081051000251999999MW1471
0043105490999991928102406004+50850+010467FM-12+027999999V0209999900931000151CN0000001N9+99999+99999999999ADDAY141061GF108991081051000251999999MW1451
0037105490999991928102506004+50850+010467FM-12+027999999V0209999900671021001CN0500001N9+99999+99999999999ADDAY121061GF107991071051022501001001
0037105490999991928102606004+50850+010467FM-12+027999999V02099999006719999999N0100001N9+00891+00831999999ADDAY141061GF107991999001022501031001
0037105490999991928102706004+50850+010467FM-12+027999999V0209999900671220001CN0040001N9+01111+00001999999ADDAY101061GF101991001001999999001021
0043105490999991928102906004+50850+010467FM-12+027999999V0209999900461000151CN0000001N9+00281+00221999999ADDAY141061GF108991081051000251999999MW1501
0057105490999991928103006004+50850+010467FM-12+027999999V0209999901901000151CN0000001N9+00001-00061999999ADDAY141061GF108991081051000251999999MD1410001+9999MW1471
0043105490999991928103106004+50850+010467FM-12+027999999V0209999901231000151CN0000001N9+00781-00611999999ADDAY101061GF108991081051000251999999MW1461
0043105490999991928110206004+50850+010467FM-12+027999999V0209999901231000151CN0000001N9+00391+00331999999ADDAY141061GF108991081051000251999999MW1451
0037105490999991928110706004+50850+010467FM-12+027999999V0209991C00001220001CN0200001N9+00111-00221999999ADDAY101061GF100991001001999999001001
0009105490999991928111206004+50850+010467FM-12+027999999V0209991C000019999999N9999999N9-00391+99999999999ADDMW1211
0043105490999991928111406004+50850+010467FM-12+027999999V0209999901231000151CN0000001N9+00001-00061999999ADDAY141061GF108991081051000251999999MW1451
0043105490999991928111506004+50850+010467FM-12+027999999V0209999900461000151CN0000001N9+00281+00221999999ADDAY141061GF108991081051000251999999MW1451
0043105490999991928112106004+50850+010467FM-12+027999999V0209991C00001000151CN0000001N9+99999+99999999999ADDAY141061GF108991081051000251999999MW1451
0043105490999991928112906004+50850+010467FM-12+027999999V0209999900931000151CN0000001N9-00281-00331999999ADDAY141061GF108991081051000251999999MW1451
0037105490999991928113006004+50850+010467FM-12+027999999V0209999901231000151CN0000001N9-00281-00331999999ADDAY141061GF108991081051000251999999
0037105490999991928120106004+50850+010467FM-12+027999999V0209999901231000151CN0000001N9+00001-00061999999ADDAY141061GF108991081051000251999999
0043105490999991928120306004+50850+010467FM-12+027999999V0209999900461000151CN0000001N9-00281-00331999999ADDAY171061GF108991081051000251999999MW1451
0043105490999991928120406004+50850+010467FM-12+027999999V0209999900101000151CN0000001N9+99999+99999999999ADDAY141061GF108991081051000251999999MW1471
0043105490999991928120706004+50850+010467FM-12+027999999V0209999901541000151CN0000001N9-00281-00331999999ADDAY141061GF108991081051000251999999MW1451
0043105490999991928120806004+50850+010467FM-12+027999999V0209999900461000151CN0000001N9-00281-00331999999ADDAY141061GF108991081051000251999999MW1451
0037105490999991928121006004+50850+010467FM-12+027999999V0209999900101220001CN0100001N9+99999+99999999999ADDAY101061GF100991001001999999001001
0043105490999991928121106004+50850+010467FM-12+027999999V0209999901231012301CN0020001N9+99999+99999999999ADDAY141061GF108991071051012501999999MW1471
0043105490999991928121206004+50850+010467FM-12+027999999V0209999900931000151CN0000001N9-00391-00441999999ADDAY141061GF108991081051000251999999MW1451
0043105490999991928121306004+50850+010467FM-12+027999999V0209999900931000151CN0000001N9-00611-00671999999ADDAY171061GF108991081051000251999999MW1711
0043105490999991928121406004+50850+010467FM-12+027999999V0209999900671000151CN0000001N9-00611-00671999999ADDAY141061GF108991081051000251999999MW1451
0043105490999991928121506004+50850+010467FM-12+027999999V0209999900261220001CN0100001N9-00781-00831999999ADDAY101061GF101991999001999999031001MW1231
0043105490999991928121806004+50850+010467FM-12+027999999V0209999900101000151CN0000001N9-00501-00561999999ADDAY141061GF108991081051000251999999MW1451
0043105490999991928121906004+50850+010467FM-12+027999999V0209999900671000151CN0000001N9-00781-00831999999ADDAY141061GF108991081051000251999999MW1451
0043105490999991928122106004+50850+010467FM-12+027999999V0209999900931000151CN0000001N9-01281-01331999999ADDAY141061GF108991081051000251999999MW1451
0043105490999991928122206004+50850+010467FM-12+027999999V0209999900671000151CN0000001N9-01391-01441999999ADDAY141061GF108991081051000251999999MW1451
0043105490999991928122406004+50850+010467FM-12+027999999V0209999900931000151CN0000001N9-00781-00831999999ADDAY141061GF108991081051000251999999MW1451
0051105490999991928122806004+50850+010467FM-12+027999999V0209999900461220001CN0040001N9+00221+00171999999ADDAY121061GF108991999001999999021001MD1810061+9999
