0043105480999991929040406004+50550+010367FM-12+013999999V0209999900101012301CN0020001N9+99999+99999999999ADDAY141061GF108991081061012501999999MW1701
0037105480999991929050406004+50550+010367FM-12+013999999V0209999900101007801CN0100001N9+99999+99999999999ADDAY181061GF107991071051008001001001
