0037105480999991928030506004+50550+010367FM-12+013999999V0209999900461220001CN0020001N9+99999+99999999999ADDAY141061GF100991001001999999001001
0037105480999991928030606004+50550+010367FM-12+013999999V0209999900461220001CN0040001N9+99999+99999999999ADDAY101061GF102991001001012501999999
0037105480999991928031006004+50550+010367FM-12+013999999V0209999900931002401CN0040001N9+99999+99999999999ADDAY121061GF108991081061002501999999
0037105480999991928031206004+50550+010367FM-12+013999999V0209999900671220001CN0040001N9+99999+99999999999ADDAY101061GF100991001001999999001001
0037105480999991928031606004+50550+010367FM-12+013999999V0209999900671220001CN0020001N9+99999+99999999999ADDAY141061GF100991001001999999001001
0037105480999991928031706004+50550+010367FM-12+013999999V0209999900461220001CN0020001N9+99999+99999999999ADDAY141061GF100991001001999999001001
0037105480999991928032006004+50550+010367FM-12+013999999V0209999900671220001CN0040001N9+99999+99999999999ADDAY101061GF100991001001999999001001
0037105480999991928032106004+50550+010367FM-12+013999999V0209999901541220001CN0040001N9+99999+99999999999ADDAY101061GF100991001001999999001001
0037105480999991928032206004+50550+010367FM-12+013999999V0209999900671004501CN0040001N9+99999+99999999999ADDAY121061GF108991081051004501999999
0037105480999991928032306004+50550+010367FM-12+013999999V0209999900671220001CN0020001N9+99999+99999999999ADDAY101061GF100991001001999999001001
0037105480999991928032406004+50550+010367FM-12+013999999V02099999004619999999N0040001N9+99999+99999999999ADDAY111061GF106991001001004501999999
0037105480999991928032606004+50550+010367FM-12+013999999V0209999900261220001CN0040001N9+99999+99999999999ADDAY141061GF104991999001022501031999
0043105480999991928032906004+50550+010367FM-12+013999999V0209999900671004501CN0020001N9+99999+99999999999ADDAY161061GF108991081061004501999999MW1211
0037105480999991928033006004+50550+010367FM-12+013999999V0209999900931004501CN0100001N9+99999+99999999999ADDAY161061GF108991081061004501999999
0043105480999991928040206004+50550+010367FM-12+013999999V0209999900101001501CN0002001N9+99999+99999999999ADDAY161061GF108991081061001501999999MW1611
0043105480999991928040306004+50550+010367FM-12+013999999V0209999900261001501CN0002001N9+99999+99999999999ADDAY141061GF108991081061001501999999MW1451
0043105480999991928040606004+50550+010367FM-12+013999999V0209999900261004501CN0020001N9+99999+99999999999ADDAY161061GF108991081061004501999999MW1511
0043105480999991928040706004+50550+010367FM-12+013999999V0209999900671000151CN0005001N9+99999+99999999999ADDAY101061GF108991081051000251999999MW1451
0037105480999991928040906004+50550+010367FM-12+013999999V0209991C00001220001CN0040001N9+99999+99999999999ADDAY101061GF100991001001999999001001
0037105480999991928041006004+50550+010367FM-12+013999999V0209999900101220001CN0020001N9+99999+99999999999ADDAY141061GF104991001001999999001021
0037105480999991928041106004+50550+010367FM-12+013999999V02099999002619999999N0040001N9+99999+99999999999ADDAY111061GF108991001001012501999999
0043105480999991928041206004+50550+010367FM-12+013999999V0209999900261001501CN0040001N9+99999+99999999999ADDAY161061GF108991081061001501999999MW1631
0043105480999991928041406004+50550+010367FM-12+013999999V0209999900261001501CN0005001N9+99999+99999999999ADDAY171061GF108991081061001501999999MW1731
0043105480999991928041606004+50550+010367FM-12+013999999V0209999900261000601CN0020001N9+99999+99999999999ADDAY141061GF108991081051000751999999MW1451
0037105480999991928041706004+50550+010367FM-12+013999999V0209999900261001501CN0020001N9+99999+99999999999ADDAY171061GF108991081061001501999999
0043105480999991928041806004+50550+010367FM-12+013999999V02099999009319999999N0040001N9+99999+99999999999ADDAY111061GF106991041061002501999999MW1711
0043105480999991928042006004+50550+010367FM-12+013999999V0209999900931001501CN0010001N9+99999+99999999999ADDAY171061GF108991081061001501999999MW1231
0043105480999991928042106004+50550+010367FM-12+013999999V0209999900101001501CN0010001N9+99999+99999999999ADDAY171061GF108991081061001501999999MW1611
0043105480999991928042306004+50550+010367FM-12+013999999V0209999900101000601CN0005001N9+99999+99999999999ADDAY171061GF108991081061000751999999MW1751
0037105480999991928042406004+50550+010367FM-12+013999999V02099999001019999999N0020001N9+99999+99999999999ADDAY111061GF106991001001004501999999
0037105480999991928042606004+50550+010367FM-12+013999999V0209999900101220001CN0100001N9+99999+99999999999ADDAY101061GF108991001001999999021999
0037105480999991928042706004+50550+010367FM-12+013999999V0209999900461220001CN0200001N9+99999+99999999999ADDAY101061GF102991001001999999001081
0037105480999991928042806004+50550+010367FM-12+013999999V0209991C00001220001CN0040001N9+99999+99999999999ADDAY111061GF104991001001999999031999
0037105480999991928043006004+50550+010367FM-12+013999999V0209999900261220001CN0100001N9+99999+99999999999ADDAY101061GF102991021061002501001001
0037105480999991928050206004+50550+010367FM-12+013999999V0209999900101220001CN0100001N9+99999+99999999999ADDAY101061GF104991999001022501031999
0037105480999991928050806004+50550+010367FM-12+013999999V02099999004619999999N0100001N9+99999+99999999999ADDAY111061GF106991041051008001999999
0035105480999991928050906004+50550+010367FM-12+013999999V0209999900931002401CN0100001N9+99999+99999999999ADDGF199999061061002501999999MW1231
0037105480999991928051406004+50550+010367FM-12+013999999V0209999900101007801CN0100001N9+99999+99999999999ADDAY181061GF107991071051008001001001
0037105480999991928051506004+50550+010367FM-12+013999999V0209999900101220001CN0100001N9+99999+99999999999ADDAY101061GF199999081051001501999999
0035105480999991928051606004+50550+010367FM-12+013999999V0209999900461000601CN0005001N9+99999+99999999999ADDGF199999081061000751999999MW1551
0037105480999991928051806004+50550+010367FM-12+013999999V0209999900261220001CN0020001N9+99999+99999999999ADDAY101061GF199999061061001501999999
0037105480999991928051906004+50550+010367FM-12+013999999V0209999900261002401CN0100001N9+99999+99999999999ADDAY161061GF106991061061002501999999
0029105480999991928052106004+50550+010367FM-12+013999999V02099999001019999999N0010001N9+99999+99999999999ADDGF199999001001004501999999
0029105480999991928052206004+50550+010367FM-12+013999999V0209999900461220001CN0040001N9+99999+99999999999ADDGF199999021011000751001001
0043105480999991928052306004+50550+010367FM-12+013999999V0209999900261002401CN0100001N9+99999+99999999999ADDAY121061GF108991061061002501999999MW1511
0029105480999991928052806004+50550+010367FM-12+013999999V0209999900261220001CN0100001N9+99999+99999999999ADDGF102991001001999999001081
0029105480999991928052906004+50550+010367FM-12+013999999V0209999900101220001CN0100001N9+99999+99999999999ADDGF102991001001999999001081
0029105480999991928053006004+50550+010367FM-12+013999999V0209999900101220001CN0200001N9+99999+99999999999ADDGF102991001001999999021999
0037105480999991928060106004+50550+010367FM-12+013999999V0209999900461001501CN0100001N9+99999+99999999999ADDAY181061GF107991061061001501999999
0029105480999991928060206004+50550+010367FM-12+013999999V0209999900261220001CN0200001N9+99999+99999999999ADDGF199999001001999999031999
0037105480999991928060506004+50550+010367FM-12+013999999V0209999900261002401CN0020001N9+99999+99999999999ADDAY121061GF108991061061002501999999
0043105480999991928060806004+50550+010367FM-12+013999999V0209999900931002401CN0100001N9+99999+99999999999ADDAY121061GF108991061061002501999999MW1611
0037105480999991928060906004+50550+010367FM-12+013999999V02099999006719999999N0100001N9+99999+99999999999ADDAY111061GF106991041051004501999999
0043105480999991928061106004+50550+010367FM-12+013999999V02099999004619999999N0040001N9+99999+99999999999ADDAY161061GF108991041061001501999999MW1631
0037105480999991928061206004+50550+010367FM-12+013999999V0209999900261220001CN0100001N9+99999+99999999999ADDAY101061GF104991041011008001001001
0037105480999991928061306004+50550+010367FM-12+013999999V0209999900461220001CN0200001N9+99999+99999999999ADDAY101061GF102991001001999999001091
0037105480999991928061506004+50550+010367FM-12+013999999V0209999900931004501CN0100001N9+99999+99999999999ADDAY181061GF107991061061004501999999
0043105480999991928061606004+50550+010367FM-12+013999999V0209999900461220001CN0010001N9+99999+99999999999ADDAY141061GF104991041051002501001001MW1101
0043105480999991928061806004+50550+010367FM-12+013999999V0209999900461000151CN0005001N9+99999+99999999999ADDAY181061GF108991071061000251999999MW1211
0037105480999991928061906004+50550+010367FM-12+013999999V0209999900261001501CN0040001N9+99999+99999999999ADDAY121061GF108991081061001501999999
0037105480999991928062006004+50550+010367FM-12+013999999V0209999900101002401CN0040001N9+99999+99999999999ADDAY111061GF107991061061002501999999
0037105480999991928062106004+50550+010367FM-12+013999999V02099999004619999999N0100001N9+99999+99999999999ADDAY121061GF107991041061002501999999
0037105480999991928062206004+50550+010367FM-12+013999999V0209999900101007801CN0040001N9+99999+99999999999ADDAY111061GF107991071051008001001001
0037105480999991928062306004+50550+010367FM-12+013999999V0209999900261220001CN0100001N9+99999+99999999999ADDAY101061GF104991001001012501999999
0037105480999991928062506004+50550+010367FM-12+013999999V0209999900101220001CN0200001N9+99999+99999999999ADDAY101061GF102991001001999999001021
0037105480999991928062606004+50550+010367FM-12+013999999V0209999900461007801CN0040001N9+99999+99999999999ADDAY111061GF108991061091008001999999
0037105480999991928062706004+50550+010367FM-12+013999999V0209999900931007801CN0200001N9+99999+99999999999ADDAY111061GF106991061011008001001001
0037105480999991928062906004+50550+010367FM-12+013999999V0209999900261220001CN0100001N9+99999+99999999999ADDAY111061GF104991001001999999031999
0037105480999991928070206004+50550+010367FM-12+013999999V0209999900261220001CN0200001N9+99999+99999999999ADDAY101061GF100991001001999999001001
0037105480999991928070506004+50550+010367FM-12+013999999V0209999900261220001CN0040001N9+99999+99999999999ADDAY111061GF104991041051001501001001
0043105480999991928070606004+50550+010367FM-12+013999999V0209999900671001501CN0100001N9+99999+99999999999ADDAY161061GF108991081061001501999999MW1631
0037105480999991928070906004+50550+010367FM-12+013999999V0209999900101220001CN0200001N9+99999+99999999999ADDAY101061GF100991001001999999001001
0037105480999991928071106004+50550+010367FM-12+013999999V0209999900261220001CN0100001N9+99999+99999999999ADDAY101061GF104991001001999999001081
0043105480999991928071706004+50550+010367FM-12+013999999V0209999900261004501CN0040001N9+99999+99999999999ADDAY121061GF108991081061004501999999MW1211
0037105480999991928071806004+50550+010367FM-12+013999999V0209999900101220001CN0200001N9+99999+99999999999ADDAY101061GF102991001001999999001021
0037105480999991928071906004+50550+010367FM-12+013999999V0209999900461012301CN0100001N9+99999+99999999999ADDAY111061GF106991061051012501001001
0037105480999991928072006004+50550+010367FM-12+013999999V0209999900101012301CN0100001N9+99999+99999999999ADDAY111061GF106991061051012501001001
0037105480999991928072306004+50550+010367FM-12+013999999V0209999900101220001CN0200001N9+99999+99999999999ADDAY111061GF104991001001999999001081
0037105480999991928072506004+50550+010367FM-12+013999999V0209999900461007801CN0100001N9+99999+99999999999ADDAY111061GF106991061061008001001001
0043105480999991928072606004+50550+010367FM-12+013999999V0209999900261000151CN0005001N9+99999+99999999999ADDAY141061GF108991081051000251999999MW1451
0037105480999991928072706004+50550+010367FM-12+013999999V0209999900101220001CN0100001N9+99999+99999999999ADDAY101061GF102991001001999999031999
0037105480999991928073106004+50550+010367FM-12+013999999V0209999900101220001CN0200001N9+99999+99999999999ADDAY111061GF102991001001999999031999
0037105480999991928080106004+50550+010367FM-12+013999999V0209999900101220001CN0100001N9+99999+99999999999ADDAY101061GF104991011011012501999999
0043105480999991928080206004+50550+010367FM-12+013999999V0209999900261004501CN0100001N9+99999+99999999999ADDAY121061GF108991081061004501999999MW1211
0037105480999991928080306004+50550+010367FM-12+013999999V0209999900101220001CN0100001N9+99999+99999999999ADDAY111061GF106991001001999999021999
0043105480999991928080406004+50550+010367FM-12+013999999V0209999900261002401CN0040001N9+99999+99999999999ADDAY121061GF108991061061002501999999MW1631
0037105480999991928080606004+50550+010367FM-12+013999999V0209999900261002401CN0200001N9+99999+99999999999ADDAY111061GF107991071061002501001001
0043105480999991928080706004+50550+010367FM-12+013999999V0209991C000019999999N0010001N9+99999+99999999999ADDAY141061GF107991001001012501999999MW1101
0037105480999991928080906004+50550+010367FM-12+013999999V0209999900261220001CN0100001N9+99999+99999999999ADDAY111061GF104991041051008001001001
0037105480999991928081006004+50550+010367FM-12+013999999V0209991C00001220001CN0200001N9+99999+99999999999ADDAY101061GF102991001001999999021999
0037105480999991928081106004+50550+010367FM-12+013999999V0209999900101021001CN0100001N9+99999+99999999999ADDAY141061GF107991071051022501001001
0043105480999991928081306004+50550+010367FM-12+013999999V0209991C00001001501CN0040001N9+99999+99999999999ADDAY161061GF108991081061001501999999MW1631
0043105480999991928081406004+50550+010367FM-12+013999999V0209999900261220001CN0010001N9+99999+99999999999ADDAY141061GF104991021051001501999999MW1101
0043105480999991928081506004+50550+010367FM-12+013999999V0209999900101000601CN0010001N9+99999+99999999999ADDAY141061GF108991081051000751999999MW1101
0037105480999991928081606004+50550+010367FM-12+013999999V0209999900261002401CN0100001N9+99999+99999999999ADDAY121061GF108991061061002501999999
0037105480999991928081806004+50550+010367FM-12+013999999V02099999002619999999N0100001N9+99999+99999999999ADDAY111061GF106991041051008001999999
0037105480999991928082006004+50550+010367FM-12+013999999V0209999900461220001CN0100001N9+99999+99999999999ADDAY101061GF104991001001017501999999
0037105480999991928082106004+50550+010367FM-12+013999999V0209999900261002401CN0040001N9+99999+99999999999ADDAY111061GF106991061051002501001001
0037105480999991928082206004+50550+010367FM-12+013999999V02099999002619999999N0020001N9+99999+99999999999ADDAY141061GF106991041051000751999999
0037105480999991928082306004+50550+010367FM-12+013999999V0209999900101007801CN0100001N9+99999+99999999999ADDAY111061GF107991071051008001001001
0043105480999991928082406004+50550+010367FM-12+013999999V0209999900101000151CN0000001N9+99999+99999999999ADDAY141061GF108991081051000251999999MW1451
0037105480999991928082506004+50550+010367FM-12+013999999V0209999900461220001CN0100001N9+99999+99999999999ADDAY101061GF104991001001999999031999
0037105480999991928082706004+50550+010367FM-12+013999999V0209999900461007801CN0040001N9+99999+99999999999ADDAY111061GF107991071051008001001001
0043105480999991928082806004+50550+010367FM-12+013999999V0209999900101004501CN0005001N9+99999+99999999999ADDAY141061GF108991061051004501999999MW1431
0043105480999991928082906004+50550+010367FM-12+013999999V0209999900101002401CN0010001N9+99999+99999999999ADDAY141061GF108991081051002501999999MW1101
0043105480999991928083006004+50550+010367FM-12+013999999V0209999900101000151CN0000501N9+99999+99999999999ADDAY141061GF108991081051000251999999MW1631
0037105480999991928083106004+50550+010367FM-12+013999999V02099999004619999999N0100001N9+99999+99999999999ADDAY111061GF106991041051008001999999
0037105480999991928090306004+50550+010367FM-12+013999999V0209999900101220001CN0200001N9+99999+99999999999ADDAY101061GF100991001001999999001001
0037105480999991928090506004+50550+010367FM-12+013999999V0209999900101220001CN0200001N9+99999+99999999999ADDAY101061GF100991001001999999001001
0037105480999991928090606004+50550+010367FM-12+013999999V0209999900101220001CN0100001N9+99999+99999999999ADDAY101061GF101991001001999999001021
0037105480999991928090706004+50550+010367FM-12+013999999V0209999900101220001CN0100001N9+99999+99999999999ADDAY101061GF102991001001999999031999
0037105480999991928090806004+50550+010367FM-12+013999999V0209999900101220001CN0040001N9+99999+99999999999ADDAY141061GF100991001001999999001001
0037105480999991928091006004+50550+010367FM-12+013999999V02099999001019999999N0100001N9+99999+99999999999ADDAY111061GF106991041051012501999999
0043105480999991928091106004+50550+010367FM-12+013999999V02099999001019999999N0010001N9+99999+99999999999ADDAY141061GF106991041051008001999999MW1101
0043105480999991928091206004+50550+010367FM-12+013999999V0209999900101220001CN0000501N9+99999+99999999999ADDAY141061GF100991001001999999001001MW1441
0037105480999991928091306004+50550+010367FM-12+013999999V0209999900101220001CN0200001N9+99999+99999999999ADDAY101061GF102991001001999999001021
0037105480999991928091406004+50550+010367FM-12+013999999V0209991C00001220001CN0100001N9+99999+99999999999ADDAY101061GF104991001001999999001021
0037105480999991928091506004+50550+010367FM-12+013999999V0209999900261220001CN0200001N9+99999+99999999999ADDAY111061GF104991001001999999031999
0037105480999991928091706004+50550+010367FM-12+013999999V0209999900101220001CN0200001N9+99999+99999999999ADDAY101061GF101991001001999999999999
0037105480999991928091806004+50550+010367FM-12+013999999V0209991C00001220001CN0200001N9+99999+99999999999ADDAY101061GF100991001001999999001001
0037105480999991928091906004+50550+010367FM-12+013999999V0209991C00001012301CN0100001N9+99999+99999999999ADDAY111061GF106991061051012501001001
0037105480999991928092006004+50550+010367FM-12+013999999V0209999900101012301CN0010001N9+99999+99999999999ADDAY111061GF107991071051012501001001
0037105480999991928092106004+50550+010367FM-12+013999999V0209999900101220001CN0100001N9+99999+99999999999ADDAY101061GF100991001001999999001001
0037105480999991928092206004+50550+010367FM-12+013999999V02099999001019999999N0100001N9+99999+99999999999ADDAY111061GF106991041051004501999999
0043105480999991928092406004+50550+010367FM-12+013999999V0209999900101001501CN0000501N9+99999+99999999999ADDAY141061GF108991081051001501999999MW1451
0043105480999991928092506004+50550+010367FM-12+013999999V0209999900261000151CN0005001N9+99999+99999999999ADDAY141061GF108991081061000251999999MW1451
0043105480999991928092606004+50550+010367FM-12+013999999V0209999900101000151CN0000001N9+99999+99999999999ADDAY141061GF108991081051000251999999MW1451
0037105480999991928092706004+50550+010367FM-12+013999999V0209999900101220001CN0100001N9+99999+99999999999ADDAY101061GF100991001001999999001001
0037105480999991928092806004+50550+010367FM-12+013999999V0209999900101012301CN0100001N9+99999+99999999999ADDAY111061GF107991071051012501001001
0043105480999991928092906004+50550+010367FM-12+013999999V0209999900101000151CN0000001N9+99999+99999999999ADDAY141061GF108991081051000251999999MW1451
0037105480999991928100106004+50550+010367FM-12+013999999V0209999900261007801CN0100001N9+99999+99999999999ADDAY111061GF107991061051008001999999
0037105480999991928100306004+50550+010367FM-12+013999999V0209999900101004501CN0100001N9+99999+99999999999ADDAY111061GF106991999051004501999999
0037105480999991928100406004+50550+010367FM-12+013999999V0209999900101220001CN0100001N9+99999+99999999999ADDAY101061GF104991041051012501999999
0037105480999991928100506004+50550+010367FM-12+013999999V0209999900101220001CN0100001N9+99999+99999999999ADDAY101061GF100991001001999999001001
0037105480999991928100606004+50550+010367FM-12+013999999V02099999001019999999N0040001N9+99999+99999999999ADDAY141061GF106991999001022501021999
0043105480999991928100806004+50550+010367FM-12+013999999V0209999900261000151CN0000501N9+99999+99999999999ADDAY111061GF107991071051000251001001MW1441
0037105480999991928101106004+50550+010367FM-12+013999999V02099999001019999999N0100001N9+99999+99999999999ADDAY111061GF106991021051008001999999
0037105480999991928101206004+50550+010367FM-12+013999999V0209999900671004501CN0100001N9+99999+99999999999ADDAY111061GF107991061051004501999999
0043105480999991928101306004+50550+010367FM-12+013999999V0209991C00001000151CN0000001N9+99999+99999999999ADDAY141061GF106991061051000251999999MW1441
