0043105490999991929062706004+50850+010467FM-12+027999999V0209999900461000151CN0000001N9+00281+00221999999ADDAY141061GF108991081061000251999999MW1611
0043105490999991929070106004+50850+010467FM-12+027999999V0209999900461000151CN0000001N9+01111+01061999999ADDAY181061GF108991081051000251999999MW1601
0057105490999991929070206004+50850+010467FM-12+027999999V0209999900261000151CN0000001N9+01001+00941999999ADDAY141061GF108991081051000251999999MD1210141+9999MW1451
0037105490999991929070306004+50850+010467FM-12+027999999V0209999901541000601CN0040001N9+01001+00781999999ADDAY121061GF108991081051000751999999
0043105490999991929070406004+50850+010467FM-12+027999999V0209999900461000151CN0000001N9+01501+01441999999ADDAY141061GF108991081051000251999999MW1451
0051105490999991929070506004+50850+010467FM-12+027999999V0209999900671220001CN0200001N9+01221+01001999999ADDAY111061GF104991041091001501031001MD1210201+9999
0051105490999991929070606004+50850+010467FM-12+027999999V0209999900461000601CN0100001N9+00891+00831999999ADDAY121061GF108991081061000751999999MD1810201+9999
0043105490999991929070806004+50850+010467FM-12+027999999V0209999900671000151CN0000001N9+00391+00331999999ADDAY141061GF108991081051000251999999MW1451
0051105490999991929070906004+50850+010467FM-12+027999999V0209999900671075001CN0100001N9+00391+00171999999ADDAY111061GF107991021011001501001021MD1210201+9999
0051105490999991929071106004+50850+010467FM-12+027999999V0209999900101220001CN0100001N9+01501+00831999999ADDAY111061GF104991999001999999031001MD1210141+9999
0051105490999991929071206004+50850+010467FM-12+027999999V0209999900101220001CN0100001N9+01781+00561999999ADDAY111061GF106991999001999999031001MD1810141+9999
0051105490999991929071306004+50850+010467FM-12+027999999V0209999900101220001CN0040001N9+02001+00781999999ADDAY111061GF104991999001999999031001MD1210061+9999
0051105490999991929071506004+50850+010467FM-12+027999999V0209999900101220001CN0100001N9+01281+00611999999ADDAY101061GF100991001001999999001001MD1810141+9999
0037105490999991929071606004+50850+010467FM-12+027999999V0209999900101220001CN0200001N9+01501+00611999999ADDAY101061GF101991011011002501001001
0037105490999991929071706004+50850+010467FM-12+027999999V0209999900101220001CN0200001N9+01391+00721999999ADDAY101061GF104991041011002501001001
0037105490999991929071806004+50850+010467FM-12+027999999V0209999901231012301CN0040001N9+99999+99999999999ADDAY111061GF108991081061012501999999
0037105490999991929071906004+50850+010467FM-12+027999999V0209999900101220001CN0100001N9+02391+01111999999ADDAY101061GF100991001001999999001001
0037105490999991929072006004+50850+010467FM-12+027999999V0209999900101220001CN0100001N9+02611+01611999999ADDAY101061GF102991001001999999001021
0037105490999991929072206004+50850+010467FM-12+027999999V0209999900101220001CN0100001N9+02221+01281999999ADDAY101061GF101991999001999999031001
0051105490999991929072306004+50850+010467FM-12+027999999V0209999900461220001CN0100001N9+01611+01561999999ADDAY111061GF104991041011000751001001MD1210061+9999
0051105490999991929072406004+50850+010467FM-12+027999999V0209999900931075001CN0100001N9+01501+01441999999ADDAY111061GF107991041051000751001021MD1810141+9999
0057105490999991929072506004+50850+010467FM-12+027999999V0209999900101000151CN0000501N9+01281+01221999999ADDAY121061GF108991081061000251999999MD1810061+9999MW1451
0051105490999991929072606004+50850+010467FM-12+027999999V0209999901541000151CN0000001N9+00501+00441999999ADDAY161061GF108991081051000251999999MD1710341+9999
0057105490999991929072906004+50850+010467FM-12+027999999V0209999900931000151CN0000001N9+01001+00941999999ADDAY141061GF108991081051000251999999MD1710201+9999MW1451
0051105490999991929073006004+50850+010467FM-12+027999999V0209999901231000601CN0100001N9+00891+00831999999ADDAY111061GF106991061051000751001001MD1210141+9999
0037105490999991929073106004+50850+010467FM-12+027999999V0209999900931000601CN0040001N9+01001+00941999999ADDAY141061GF108991081051000751999999
0057105490999991929080106004+50850+010467FM-12+027999999V0209999901541000151CN0000001N9+01001+00941999999ADDAY141061GF108991081051000251999999MD1710261+9999MW1451
0051105490999991929080206004+50850+010467FM-12+027999999V0209999901541000601CN0200001N9+00781+00721999999ADDAY121061GF108991081061000751999999MD1810201+9999
0051105490999991929080306004+50850+010467FM-12+027999999V0209999900261220001CN0200001N9+00891+00061999999ADDAY101061GF102991021011008001001001MD1210141+9999
0037105490999991929080506004+50850+010467FM-12+027999999V0209999900461220001CN0200001N9+01391+99999999999ADDAY101061GF104991041011004501001081
0051105490999991929080606004+50850+010467FM-12+027999999V0209999900101075001CN0200001N9+01221+00781999999ADDAY111061GF106991011011002501001021MD1210061+9999
0037105490999991929080706004+50850+010467FM-12+027999999V0209999900931220001CN0100001N9+01281+01061999999ADDAY101061GF104991001001999999001021
0037105490999991929080806004+50850+010467FM-12+027999999V0209999900461220001CN0100001N9+01391+00941999999ADDAY141061GF104991999001008001001001
0057105490999991929080906004+50850+010467FM-12+027999999V0209999900261000151CN0000001N9+01001+00941999999ADDAY141061GF108991081051000251999999MD1210141+9999MW1451
0043105490999991929081006004+50850+010467FM-12+027999999V0209999900461000151CN0000001N9+01111+01061999999ADDAY141061GF108991081051000251999999MW1451
0051105490999991929081206004+50850+010467FM-12+027999999V0209999900461004501CN0100001N9+01501+00831999999ADDAY111061GF106991061011004501001001MD1210061+9999
0051105490999991929081306004+50850+010467FM-12+027999999V0209999900461001501CN0100001N9+01611+01171999999ADDAY111061GF106991061011001501001001MD1210141+9999
0037105490999991929081406004+50850+010467FM-12+027999999V0209999900461220001CN0100001N9+01281+01061999999ADDAY101061GF101991001001999999001021
0051105490999991929081506004+50850+010467FM-12+027999999V0209999900671220001CN0100001N9+01281+01061999999ADDAY101061GF102991999001999999031001MD1310141+9999
0051105490999991929081706004+50850+010467FM-12+027999999V0209999900671075001CN0100001N9+01721+01061999999ADDAY111061GF106991041011008001001021MD1210061+9999
0037105490999991929082006004+50850+010467FM-12+027999999V0209999900671075001CN0100001N9+00891+00441999999ADDAY111061GF106991021011004501001021
0037105490999991929082106004+50850+010467FM-12+027999999V0209999900671012301CN0200001N9+99999+99999999999ADDAY121061GF108991081051012501999999
0037105490999991929082206004+50850+010467FM-12+027999999V0209999900671220001CN0100001N9+00721+00671999999ADDAY101061GF100991001001999999001001
0057105490999991929082306004+50850+010467FM-12+027999999V0209999900461000151CN0000001N9+00891+00831999999ADDAY141061GF108991081051000251999999MD1210061+9999MW1451
0043105490999991929082406004+50850+010467FM-12+027999999V0209999900671000151CN0000001N9+01001+00941999999ADDAY181061GF108991081051000251999999MW1451
0043105490999991929082606004+50850+010467FM-12+027999999V0209999900261000151CN0000001N9+01221+01171999999ADDAY141061GF108991081051000251999999MW1451
0051105490999991929082706004+50850+010467FM-12+027999999V0209999900261220001CN0100001N9+01611+00721999999ADDAY101061GF100991001001999999001001MD1810141+9999
0037105490999991929082806004+50850+010467FM-12+027999999V0209999900931220001CN0100001N9+01501+00611999999ADDAY101061GF101991001001999999001021
0051105490999991929082906004+50850+010467FM-12+027999999V0209999900461220001CN0040001N9+01611+00721999999ADDAY111061GF104991001001999999001021MD1210141+9999
0037105490999991929083006004+50850+010467FM-12+027999999V0209999900101220001CN0040001N9+01611+00721999999ADDAY101061GF100991001001999999001001
0037105490999991929083106004+50850+010467FM-12+027999999V0209999900101220001CN0100001N9+02001+00391999999ADDAY101061GF100991001001999999001001
0037105490999991929090206004+50850+010467FM-12+027999999V0209999900101220001CN0040001N9+02001+00391999999ADDAY101061GF104991001001999999001021
0037105490999991929090306004+50850+010467FM-12+027999999V0209999900461220001CN0040001N9+01721+01061999999ADDAY101061GF102991001001999999001021
0051105490999991929090406004+50850+010467FM-12+027999999V0209999900101220001CN0040001N9+02001+00781999999ADDAY101061GF101991001001999999001021MD1810141+9999
0051105490999991929090506004+50850+010467FM-12+027999999V0209999900461220001CN0040001N9+02001+01061999999ADDAY101061GF104991001001999999001021MD1810061+9999
0037105490999991929090606004+50850+010467FM-12+027999999V0209999900931220001CN0040001N9+01501+01061999999ADDAY101061GF102991011011012501001021
0037105490999991929090706004+50850+010467FM-12+027999999V0209999900931007801CN0200001N9+00611+99999999999ADDAY111061GF106991061051008001001001
0051105490999991929090906004+50850+010467FM-12+027999999V0209999900461220001CN0200001N9+01111+01061999999ADDAY101061GF100991001001999999001001MD1810201+9999
0057105490999991929091006004+50850+010467FM-12+027999999V0209999900671000151CN0000001N9+01001+00941999999ADDAY111061GF108991081051000251999999MD1210141+9999MW1471
0057105490999991929091106004+50850+010467FM-12+027999999V0209999900671220001CN0040001N9+00781+00561999999ADDAY141061GF100991001001999999001001MD1310261+9999MW1451
0051105490999991929091206004+50850+010467FM-12+027999999V0209999900261220001CN0100001N9+00781-00611999999ADDAY101061GF101991999001999999031001MD1210061+9999
0043105490999991929091306004+50850+010467FM-12+027999999V0209999900671220001CN0100001N9+01501+00611999999ADDAY161061GF108991999001999999021001MW1801
0051105490999991929091606004+50850+010467FM-12+027999999V0209999900261220001CN0010001N9+01611+99999999999ADDAY141061GF100991001001999999001001MD1310061+9999
0051105490999991929091706004+50850+010467FM-12+027999999V0209999900261220001CN0100001N9+01391+00501999999ADDAY141061GF100991001001999999001001MD1310061+9999
0037105490999991929091806004+50850+010467FM-12+027999999V0209999900461220001CN0500001N9+01221-00221999999ADDAY111061GF104991001001999999001021
0043105490999991929091906004+50850+010467FM-12+027999999V0209999900671000151CN0000001N9+01111+01061999999ADDAY141061GF108991081051000251999999MW1451
0043105490999991929092006004+50850+010467FM-12+027999999V0209999901901000151CN0000001N9+01111+01061999999ADDAY141061GF108991081051000251999999MW1471
0057105490999991929092106004+50850+010467FM-12+027999999V0209999901231000151CN0000001N9+00281+00221999999ADDAY141061GF108991081051000251999999MD1310061+9999MW1451
0057105490999991929092306004+50850+010467FM-12+027999999V0209999900261000151CN0000001N9+00501+00441999999ADDAY141061GF108991081051000251999999MD1310141+9999MW1431
0043105490999991929092406004+50850+010467FM-12+027999999V0209999900461000151CN0000001N9+00501+00441999999ADDAY141061GF108991081051000251999999MW1451
0057105490999991929092506004+50850+010467FM-12+027999999V0209999900461000151CN0000001N9+00281+00221999999ADDAY141061GF108991081051000251999999MD1310061+9999MW1451
0051105490999991929092606004+50850+010467FM-12+027999999V0209999900461220001CN0100001N9+00781+00171999999ADDAY101061GF100991001001999999001001MD1310201+9999
0037105490999991929092706004+50850+010467FM-12+027999999V0209999900101220001CN0100001N9+01001-00391999999ADDAY141061GF102991001001999999001021
0037105490999991929092806004+50850+010467FM-12+027999999V0209999900261220001CN0500001N9+01501-00441999999ADDAY101061GF100991001001999999001001
0043105490999991929100206004+50850+010467FM-12+027999999V0209999901541000151CN0000001N9+00891+00831999999ADDAY161061GF108991081051000251999999MW1641
0043105490999991929100306004+50850+010467FM-12+027999999V0209999901231000151CN0000001N9+01001+00941999999ADDAY161061GF108991081051000251999999MW1631
0051105490999991929100406004+50850+010467FM-12+027999999V0209999900931220001CN0200001N9+01221+00781999999ADDAY101061GF102991011051002501001091MD1310061+9999
0051105490999991929100506004+50850+010467FM-12+027999999V0209999901231220001CN0200001N9+01111+00501999999ADDAY111061GF104991999001008001031001MD1310141+9999
0057105490999991929100706004+50850+010467FM-12+027999999V0209999901231000151CN0000001N9+00501+00441999999ADDAY141061GF108991081051000251999999MD1310141+9999MW1451
0037105490999991929100806004+50850+010467FM-12+027999999V0209999900461002401CN0100001N9+00501+00441999999ADDAY111061GF106991061051002501001001
0043105490999991929100906004+50850+010467FM-12+027999999V0209999901901000151CN0000001N9+00721+00671999999ADDAY161061GF108991081051000251999999MW1531
0057105490999991929101006004+50850+010467FM-12+027999999V0209999900931000151CN0000001N9+00221+00171999999ADDAY141061GF108991081051000251999999MD1310261+9999MW1461
0043105490999991929101106004+50850+010467FM-12+027999999V0209999901541000151CN0000001N9+00221+00171999999ADDAY161061GF108991081051000251999999MW1611
0057105490999991929101206004+50850+010467FM-12+027999999V0209999901231000151CN0040001N9+00281+00061999999ADDAY111061GF108991081051000251999999MD1310061+9999MW1451
0051105490999991929101406004+50850+010467FM-12+027999999V02099999002619999999N0040001N9+00611+00561999999ADDAY121061GF107991999001012501001001MD1310061+9999
0043105490999991929101506004+50850+010467FM-12+027999999V0209999900261000151CN0005001N9+00611+00561999999ADDAY141061GF108991081051000251999999MW1451
0037105490999991929101606004+50850+010467FM-12+027999999V0209999900101004501CN0100001N9+00721+00501999999ADDAY121061GF108991081051004501999999
0043105490999991929101706004+50850+010467FM-12+027999999V0209999900461000151CN0000001N9+00611+00561999999ADDAY141061GF108991081051000251999999MW1471
0037105490999991929101806004+50850+010467FM-12+027999999V0209999900261220001CN0100001N9+00501+00441999999ADDAY101061GF104991041011008001001001
0043105490999991929101906004+50850+010467FM-12+027999999V0209999900461000151CN0000001N9+00501+00441999999ADDAY161061GF108991081051000251999999MW1651
0057105490999991929102106004+50850+010467FM-12+027999999V0209999900261000151CN0000001N9+00111+00061999999ADDAY141061GF108991081051000251999999MD1310061+9999MW1431
0037105490999991929102206004+50850+010467FM-12+027999999V0209999900261220001CN0100001N9+00391+00171999999ADDAY101061GF102991999001999999031001
0043105490999991929102306004+50850+010467FM-12+027999999V0209999900671000151CN0000001N9+00501+00441999999ADDAY141061GF108991081051000251999999MW1451
0043105490999991929102406004+50850+010467FM-12+027999999V0209999900461000151CN0000001N9+00391+00331999999ADDAY141061GF108991081051000251999999MW1461
0043105490999991929102506004+50850+010467FM-12+027999999V0209999902261000151CN0000001N9+00501+00441999999ADDAY141061GF108991081051000251999999MW1471
0043105490999991929102606004+50850+010467FM-12+027999999V0209999900671000151CN0000001N9+00501+00441999999ADDAY141061GF108991081051000251999999MW1471
0057105490999991929102806004+50850+010467FM-12+027999999V0209999900931000151CN0000001N9-00221-00281999999ADDAY171061GF108991081051000251999999MD1310141+9999MW1701
0043105490999991929102906004+50850+010467FM-12+027999999V0209999901541000151CN0000001N9+00001-00061999999ADDAY141061GF108991081051000251999999MW1451
0057105490999991929103006004+50850+010467FM-12+027999999V0209999901231000151CN0000001N9+00221+00171999999ADDAY161061GF108991081051000251999999MD1310061+9999MW1631
0057105490999991929103106004+50850+010467FM-12+027999999V0209999900671000151CN0000001N9+00281+00221999999ADDAY161061GF108991081051000251999999MD1310061+9999MW1631
0057105490999991929110106004+50850+010467FM-12+027999999V0209999901231000151CN0000001N9+00001-00061999999ADDAY171061GF108991081051000251999999MD1310061+9999MW1471
0057105490999991929110406004+50850+010467FM-12+027999999V0209999900461000151CN0000001N9+00001-00061999999ADDAY141061GF108991081051000251999999MD1310061+9999MW1451
0037105490999991929110506004+50850+010467FM-12+027999999V0209999900461220001CN0040001N9-00111-00171999999ADDAY111061GF104991011011000751031001
0043105490999991929110606004+50850+010467FM-12+027999999V0209999900931000151CN0000001N9-00721-00781999999ADDAY141061GF108991081051000251999999MW1451
0057105490999991929110706004+50850+010467FM-12+027999999V0209999900671000151CN0000001N9-00391-00441999999ADDAY141061GF108991081051000251999999MD1310061+9999MW1451
0043105490999991929110806004+50850+010467FM-12+027999999V0209999900671000151CN0000001N9-00281-00331999999ADDAY141061GF108991081051000251999999MW1451
0043105490999991929110906004+50850+010467FM-12+027999999V0209999900671000151CN0000001N9+00281+00221999999ADDAY141061GF108991081051000251999999MW1451
0057105490999991929111106004+50850+010467FM-12+027999999V0209999900461000151CN0000001N9+00221+00171999999ADDAY141061GF108991081051000251999999MD1310061+9999MW1451
0043105490999991929111206004+50850+010467FM-12+027999999V0209999900671000151CN0000001N9-00111-00171999999ADDAY141061GF108991081051000251999999MW1451
0043105490999991929111406004+50850+010467FM-12+027999999V0209999900461000151CN0000001N9+00111+00061999999ADDAY141061GF108991081051000251999999MW1451
0043105490999991929111506004+50850+010467FM-12+027999999V0209999900671000151CN0000001N9-00281-00331999999ADDAY141061GF108991081051000251999999MW1451
0043105490999991929111606004+50850+010467FM-12+027999999V0209999900931000151CN0000001N9-00501-00561999999ADDAY171061GF108991081051000251999999MW1451
0057105490999991929111806004+50850+010467FM-12+027999999V0209999900671000151CN0000001N9-00281-00331999999ADDAY141061GF108991081051000251999999MD1310061+9999MW1451
0057105490999991929111906004+50850+010467FM-12+027999999V0209999900931000151CN0000001N9-00391-00441999999ADDAY141061GF108991081051000251999999MD1310061+9999MW1451
0037105490999991929112006004+50850+010467FM-12+027999999V0209999901231030001CN0500001N9-00281-00331999999ADDAY111061GF106991021011002501031001
0037105490999991929112106004+50850+010467FM-12+027999999V0209999900931220001CN0100001N9+00221-00331999999ADDAY101061GF101991011051000751001001
0043105490999991929112206004+50850+010467FM-12+027999999V0209999901231000151CN0000001N9+00221+00171999999ADDAY141061GF108991081051000251999999MW1451
0037105490999991929112306004+50850+010467FM-12+027999999V0209999900461220001CN0100001N9+00391+00171999999ADDAY101061GF102991999011002501001001
0043105490999991929112506004+50850+010467FM-12+027999999V0209999900671000151CN0000001N9+00221+00171999999ADDAY141061GF108991081051000251999999MW1451
0057105490999991929112606004+50850+010467FM-12+027999999V0209999900931000151CN0000001N9+00281+00221999999ADDAY161061GF108991081051000251999999MD1310061+9999MW1611
0057105490999991929112706004+50850+010467FM-12+027999999V0209999900671000151CN0000001N9+00111+00061999999ADDAY161061GF108991081051000251999999MD1310061+9999MW1681
0043105490999991929112806004+50850+010467FM-12+027999999V0209999901231000151CN0000001N9+00001-00061999999ADDAY141061GF108991081051000251999999MW1451
0057105490999991929112906004+50850+010467FM-12+027999999V0209999901541000151CN0000001N9+00001-00061999999ADDAY141061GF108991081051000251999999MD1310061+9999MW1451
0043105490999991929113006004+50850+010467FM-12+027999999V0209999900671000151CN0000001N9+00501+00441999999ADDAY141061GF108991081051000251999999MW1451
0057105490999991929120206004+50850+010467FM-12+027999999V0209999900931000151CN0000001N9+00281+00221999999ADDAY161061GF108991081051000251999999MD1310061+9999MW1551
0057105490999991929120306004+50850+010467FM-12+027999999V0209999900931000151CN0000001N9+00221+00171999999ADDAY181061GF108991081051000251999999MD1810061+9999MW1551
0057105490999991929120406004+50850+010467FM-12+027999999V0209999900931000151CN0000001N9+00611+00561999999ADDAY161061GF108991081051000251999999MD1310061+9999MW1551
0043105490999991929120506004+50850+010467FM-12+027999999V0209999901231000151CN0000001N9+00501+00441999999ADDAY141061GF108991081051000251999999MW1451
0057105490999991929120606004+50850+010467FM-12+027999999V0209999901541000151CN0000001N9+00221+00171999999ADDAY141061GF108991081051000251999999MD1310061+9999MW1451
0043105490999991929120706004+50850+010467FM-12+027999999V0209999901541000151CN0000001N9-00111-00171999999ADDAY171061GF108991081051000251999999MW1811
0057105490999991929120906004+50850+010467FM-12+027999999V0209999901541002401CN0000501N9+00001-00061999999ADDAY161061GF106991061011002501001001MD1310061+9999MW1451
0051105490999991929121006004+50850+010467FM-12+027999999V0209999900671002401CN0200001N9+00111+00061999999ADDAY181061GF107991071061002501001001MD1310061+9999
0057105490999991929121106004+50850+010467FM-12+027999999V0209999901901000151CN0000001N9-00281-00331999999ADDAY171061GF108991081051000251999999MD1310061+9999MW1811
0051105490999991929121206004+50850+010467FM-12+027999999V0209999901901030001CN0020001N9+00111+00061999999ADDAY181061GF106991041011001501031001MD1310061+9999
0057105490999991929121306004+50850+010467FM-12+027999999V0209999901901000151CN0000001N9+00001-00061999999ADDAY121061GF108991081051000251999999MD1310061+9999MW1451
0057105490999991929121406004+50850+010467FM-12+027999999V0209999901541000151CN0000001N9+00111+00061999999ADDAY141061GF108991081051000251999999MD1310061+9999MW1451
0057105490999991929121606004+50850+010467FM-12+027999999V0209999900671000151CN0000001N9-00221-00281999999ADDAY171061GF108991081051000251999999MD1310061+9999MW1451
0057105490999991929121706004+50850+010467FM-12+027999999V0209999900461000151CN0000001N9-00501-00561999999ADDAY141061GF108991081051000251999999MD1310061+9999MW1451
0057105490999991929121806004+50850+010467FM-12+027999999V0209999900461000151CN0000001N9-00501-00561999999ADDAY141061GF108991081051000251999999MD1310061+9999MW1451
0037105490999991929121906004+50850+010467FM-12+027999999V0209999900261220001CN0500001N9-01111-01171999999ADDAY101061GF101991001001999999001081
0037105490999991929122106004+50850+010467FM-12+027999999V0209999900671220001CN0100001N9-01111-01171999999ADDAY101061GF100991001001999999001001
0037105490999991929122306004+50850+010467FM-12+027999999V02099999009319999999N0100001N9-00501-00561999999ADDAY111061GF106991999001001501001001
0043105490999991929122406004+50850+010467FM-12+027999999V0209999900931000151CN0000001N9-00611-00671999999ADDAY171061GF108991081051000251999999MW1711
0057105490999991929122706004+50850+010467FM-12+027999999V0209999900931000151CN0000001N9-00221-00281999999ADDAY141061GF108991081051000251999999MD1310061+9999MW1451
0043105490999991929122806004+50850+010467FM-12+027999999V0209999900931000151CN0000001N9-00281-00331999999ADDAY171061GF108991081051000251999999MW1711
0057105490999991929123006004+50850+010467FM-12+027999999V0209999901901002401CN0000001N9+00001-00501999999ADDAY181061GF107991071011002501001001MD1310061+9999MW1681
0057105490999991929123106004+50850+010467FM-12+027999999V0209999901901000151CN0000001N9+00001-00061999999ADDAY141061GF108991081051000251999999MD1310061+9999MW1451
