0064106370999991928010106004+50050+008600FM-12+003499999V0209999900261007801CN0020001N9-00221-00391103231ADDAY121061GF108991081051008001999999KA1999N-00281MD1310141+9999
0037106370999991928010112004+50050+008600FM-12+003499999V0200701N00101220001CN0020001N9+00111-00221103311ADDAY101061GF102991021051008001001001
0056106370999991928010206004+50050+008600FM-12+003499999V0209999900101000151CN0010001N9-00611-00781103201ADDAY111061GF108991081051000251999999KA1999N-00781MW1101
0051106370999991928010212004+50050+008600FM-12+003499999V0201801N00261007801CN0020001N9-00391-00561102671ADDAY121061GF108991081051008001999999MD1810261+9999
0064106370999991928010306004+50050+008600FM-12+003499999V0209999900261007801CN0020001N9-00281-00441101811ADDAY121061GF108991081051008001999999KA1999N-00391MD1610141+9999
0051106370999991928010312004+50050+008600FM-12+003499999V0209991C00001007801CN0020001N9-00111-00281101771ADDAY121061GF108991081051008001999999MD1810061+9999
0081106370999991928010406004+50050+008600FM-12+003499999V0209999900261000151CN0005001N9-00111-00171102431ADDAA199000691AY161061GF108991081051000251999999KA1999N-00221MD1210141+9999MW1511
0051106370999991928010412004+50050+008600FM-12+003499999V0202301N002619999999N0020001N9+00281+00061102431ADDAY171061GF107991999051008001001001MD1510141+9999
0075106370999991928010506004+50050+008600FM-12+003499999V0209999900671007801CN0010001N9+00391+00331101391ADDAA199005091AY161061GF108991081051008001999999KA1999N+00221MD1610061+9999
0051106370999991928010512004+50050+008600FM-12+003499999V0202701N00461007801CN0040001N9+00501+00281101721ADDAY161061GF108991061061008001021001MD1310141+9999
0081106370999991928010606004+50050+008600FM-12+003499999V0209999900671007801CN0020001N9+00281+00221101801ADDAA199000391AY161061GF108991081061008001999999KA1999N+00281MD1810261+9999MW1631
0092106370999991928010612004+50050+008600FM-12+003499999V0202301N00671007801CN0020001N9+00281+00221100752ADDAY161061GF108991081061008001999999MD1710602+9999MW1631EQDQ01+100753APOSLPQ02+000602APC3  
0075106370999991928010706004+50050+008600FM-12+003499999V0209999900461030001CN0020001N9+00281+00061102271ADDAA199001091AY161061GF106991041061008001021001KA1999N+00281MD1210461+9999
0051106370999991928010712004+50050+008600FM-12+003499999V0202301N004619999999N0040001N9+00611+00221102201ADDAY111061GF107991999091008001001001MD1710141+9999
0064106370999991928010806004+50050+008600FM-12+003499999V0209999900461004501CN0040001N9+00781+00561101221ADDAY121061GF108991061061004501021001KA1999N+00501MD1710061+9999
0056106370999991928010812004+50050+008600FM-12+003499999V0202301N00931220001CN0040001N9+00891+00831100072ADDAY161061GF104991041061004501001001EQDQ01+100073APOSLP
0050106370999991928010906004+50050+008600FM-12+003499999V0209999900261007801CN0020001N9+00391+00331101681ADDAY121061GF108991081051008001999999KA1999N+00391
0051106370999991928010912004+50050+008600FM-12+003499999V0202301N00261012301CN0020001N9+00891+00281101641ADDAY101061GF106991061051012501001001MD1810061+9999
0081106370999991928011006004+50050+008600FM-12+003499999V0209999900261000151CN0005001N9+00611+00561101841ADDAA199061091AY161061GF108991081051000251999999KA1999N-01501MD1310141+9999MW1511
0037106370999991928011012004+50050+008600FM-12+003499999V0202301N001019999999N0040001N9+00891+99999101771ADDAY161061GF106991999999012501999999
0061106370999991928011106004+50050+008600FM-12+003499999V0209999900461007801CN0020001N9+00781+00721101571ADDAA199000391AY161061GF107991071051008001001001KA1999N+00721
0051106370999991928011112004+50050+008600FM-12+003499999V0202301N00101030001CN0040001N9+00891+00441101711ADDAY111061GF106991021051012501021001MD1810141+9999
0075106370999991928011206004+50050+008600FM-12+003499999V0209991C00001220001CN0020001N9+00391+00331102131ADDAA199002091AY161061GF104991041051008001001001KA1999N+00281MD1210141+9999
0051106370999991928011212004+50050+008600FM-12+003499999V0202301N00101220001CN0040001N9+00721+00331102121ADDAY111061GF104991021051012501001021MD1710141+9999
0064106370999991928011306004+50050+008600FM-12+003499999V0209999900671007801CN0020001N9+00501+00111101331ADDAY111061GF108991081051008001999999KA1999N+00221MD1810141+9999
0051106370999991928011312004+50050+008600FM-12+003499999V0202301N00931030001CN0020001N9+00611+00391101101ADDAY161061GF108991041061008001021001MD1510141+9999
0075106370999991928011406004+50050+008600FM-12+003499999V0209999900671007801CN0020001N9+00611+00391101231ADDAA199003091AY101061GF106991061051008001001001KA1999N+00391MD1210141+9999
0037106370999991928011412004+50050+008600FM-12+003499999V0202301N00461015001CN0100001N9+00721+00331101371ADDAY111061GF106991061051017501001001
0081106370999991928011506004+50050+008600FM-12+003499999V0209999900101002401CN0020001N9+00611+00561100611ADDAA199000391AY161061GF108991081061002501999999KA1999N+00281MD1810061+9999MW1531
0043106370999991928011512004+50050+008600FM-12+003499999V0209991C00001030001CN0020001N9+00781+00721100521ADDAY181061GF108991041091008001021001MW1211
0064106370999991928011606004+50050+008600FM-12+003499999V0209999900101004501CN0010001N9+00391+00331100791ADDAY141061GF108991081051004501999999KA1999N+00281MD1610061+9999
0051106370999991928011612004+50050+008600FM-12+003499999V0202001N004619999999N0040001N9+00611+00391100661ADDAY111061GF107991999061008001001001MD1610061+9999
0067106370999991928011706004+50050+008600FM-12+003499999V0202001N00461004501CN0010001N9+00501+00281100711ADDAA199001091AY161061GF108991081051004501999999KA1999N+00391MW1211
0057106370999991928011712004+50050+008600FM-12+003499999V0202001N00461007801CN0020001N9+00501+00281100931ADDAY161061GF108991081061008001999999MD1310141+9999MW1611
0064106370999991928011806004+50050+008600FM-12+003499999V0202301N002619999999N0020001N9+00281+00061102041ADDAY121061GF107991999061008001001001KA1999N+00221MD1310201+9999
0051106370999991928011812004+50050+008600FM-12+003499999V0202001N00101007801CN0010001N9+00391+00171102261ADDAY141061GF108991081051008001999999MD1310061+9999
0075106370999991928011906004+50050+008600FM-12+003499999V0209999900261007801CN0020001N9+00281+00061101631ADDAA199001091AY161061GF108991081051008001999999KA1999N+00221MD1810201+9999
0057106370999991928011912004+50050+008600FM-12+003499999V0203201N00101002401CN0005001N9+00001-00061101261ADDAY171061GF108991081061002501999999MD1510141+9999MW1731
0081106370999991928012006004+50050+008600FM-12+003499999V0209999900101012301CN0020001N9+00281+00061102701ADDAA199000691AY161061GF108991081061012501999999KA1999N+00221MD1310261+9999MW1511
0051106370999991928012012004+50050+008600FM-12+003499999V0209991C00001012301CN0020001N9+00221+00001102931ADDAY141061GF108991081051012501999999MD1010001+9999
0056106370999991928012106004+50050+008600FM-12+003499999V0209999900101012301CN0010001N9+00221+00171103151ADDAY141061GF108991081051012501999999KA1999N+00111MW1101
0051106370999991928012112004+50050+008600FM-12+003499999V0202301N00101007801CN0040001N9+00501+00281102871ADDAY161061GF108991081051008001999999MD1710261+9999
0070106370999991928012206004+50050+008600FM-12+003499999V0209991C00001220001CN0020001N9-00111-00171101661ADDAY141061GF104991041051000251001001KA1999N-00111MD1610201+9999MW1441
0051106370999991928012212004+50050+008600FM-12+003499999V0202301N00261012301CN0020001N9+00221+00001101321ADDAY141061GF108991081051012501999999MD1810201+9999
0081106370999991928012306004+50050+008600FM-12+003499999V0209999900261012301CN0020001N9+00501+00281101901ADDAA199000391AY161061GF108991081061012501999999KA1999N+00281MD1310261+9999MW1211
0051106370999991928012312004+50050+008600FM-12+003499999V0202301N00101075001CN0100001N9+00721+00501102261ADDAY111061GF106991041051012501001081MD1110061+9999
0064106370999991928012406004+50050+008600FM-12+003499999V0209999900461012301CN0020001N9+00281+00061102571ADDAY121061GF107991071051012501001001KA1999N+00221MD1610061+9999
0075106370999991928012506004+50050+008600FM-12+003499999V0209999900671220001CN0020001N9+00391+00001102881ADDAA199003091AY161061GF104991021091008001021001KA1999N+00391MD1310341+9999
0051106370999991928012512004+50050+008600FM-12+003499999V0202501N00461007801CN0100001N9+00611+00221103041ADDAY111061GF107991999091008001001001MD1010001+9999
0064106370999991928012606004+50050+008600FM-12+003499999V0209999900461220001CN0020001N9+00281+00221103041ADDAY111061GF104991041051008001021001KA1999N+00001MD1810141+9999
0051106370999991928012612004+50050+008600FM-12+003499999V0202301N00461007801CN0040001N9+00501+00111102671ADDAY111061GF108991061051008001021001MD1810261+9999
0070106370999991928012706004+50050+008600FM-12+003499999V0209991C00001220001CN0010001N9-00221-00281101681ADDAY101061GF102991021051000251001001KA1999N-00221MD1610061+9999MW1101
0043106370999991928012712004+50050+008600FM-12+003499999V0209991C000019999999N0005001N9+00391+00001101711ADDAY141061GF108991999051012501001001MW1451
0070106370999991928012806004+50050+008600FM-12+003499999V0209999900261220001CN0010001N9-00111-00171102611ADDAY141061GF104991021051004501001091KA1999N-00111MD1310201+9999MW1101
0051106370999991928012812004+50050+008600FM-12+003499999V0202001N00261012301CN0010001N9+00391+00171102561ADDAY141061GF107991061051012501021001MD1810141+9999
0064106370999991928012906004+50050+008600FM-12+003499999V0209991C00001220001CN0020001N9-00221-00281101771ADDAY101061GF104991021051017501001021KA1999N-00221MD1610061+9999
0051106370999991928012912004+50050+008600FM-12+003499999V0201601N00101220001CN0040001N9+00721+00501101351ADDAY101061GF102991011051012501001021MD1810261+9999
0050106370999991928013006004+50050+008600FM-12+003499999V0209991C00001220001CN0010001N9-00111-00171101151ADDAY101061GF104991041051012501021001KA1999N-00111
0051106370999991928013012004+50050+008600FM-12+003499999V0200901N00261220001CN0020001N9+00391-00171100831ADDAY101061GF102991021051008001001001MD1810201+9999
0070106370999991928013106004+50050+008600FM-12+003499999V0209991C00001000151CN0005001N9+00001-00061101181ADDAY141061GF108991081051000251999999KA1999N-00111MD1310201+9999MW1451
0057106370999991928013112004+50050+008600FM-12+003499999V0202301N00101000151CN0005001N9+00281+00221101411ADDAY141061GF108991081051000251999999MD1310061+9999MW1451
0081106370999991928020106004+50050+008600FM-12+003499999V0209999900461012301CN0010001N9+00111+00061101441ADDAA199001091AY171061GF108991081061012501999999KA1999N+00001MD1810141+9999MW1681
0051106370999991928020112004+50050+008600FM-12+003499999V0202001N00461012301CN0010001N9+00281+00061101111ADDAY171061GF108991081061012501999999MD1610201+9999
0075106370999991928020206004+50050+008600FM-12+003499999V0209999900461030001CN0010001N9+00281+00221101361ADDAA199005091AY161061GF107991041051008001021001KA1999N+00281MD1310341+9999
0051106370999991928020212004+50050+008600FM-12+003499999V0203201N00461220001CN0100001N9+00721+00331101861ADDAY101061GF102991021011012501001001MD1110141+9999
0064106370999991928020306004+50050+008600FM-12+003499999V0209991C00001220001CN0010001N9-00111-00171101511ADDAY101061GF104991999001017501021081KA1999N-00221MD1810141+9999
0051106370999991928020312004+50050+008600FM-12+003499999V0202001N00261075001CN0020001N9+00391+00001101311ADDAY111061GF106991041051012501001081MD1810141+9999
0081106370999991928020406004+50050+008600FM-12+003499999V0209991C00001030001CN0010001N9+00221+00171102821ADDAA199000391AY171061GF107991041051008001021001KA1999N+00001MD1610261+9999MW1101
0051106370999991928020412004+50050+008600FM-12+003499999V0202701N001019999999N0020001N9+00281+00061103141ADDAY141061GF107991999051012501001001MD1110141+9999
0050106370999991928020506004+50050+008600FM-12+003499999V0209999900261004501CN0020001N9-00111-00171103221ADDAY141061GF108991061051004501021001KA1999N-00111
0051106370999991928020512004+50050+008600FM-12+003499999V0202501N004619999999N0040001N9+00391+00171102741ADDAY121061GF108991999999012501999999MD1810261+9999
0081106370999991928020606004+50050+008600FM-12+003499999V02099999002619999999N0005001N9+00281+00221102421ADDAA199005091AY161061GF107991999051004501001001KA1999N+00221MD1310341+9999MW1461
0051106370999991928020612004+50050+008600FM-12+003499999V0202501N00461220001CN0040001N9+00781+00391102801ADDAY101061GF101991011011012501001001MD1310141+9999
0064106370999991928020706004+50050+008600FM-12+003499999V0209999900261007801CN0020001N9+00111+00061103771ADDAY111061GF106991061051008001001001KA1999N+00111MD1310201+9999
0051106370999991928020712004+50050+008600FM-12+003499999V0202301N00671220001CN0020001N9+00611+00391103721ADDAY111061GF104991999051012501001001MD1990061+9999
0081106370999991928020806004+50050+008600FM-12+003499999V0209999900461012301CN0020001N9+00501+00281103541ADDAA199001091AY161061GF108991081061012501999999KA1999N+00501MD1510001+9999MW1611
0037106370999991928020812004+50050+008600FM-12+003499999V0202501N00671004501CN0040001N9+00721+00671103531ADDAY161061GF108991061051004501021001
0064106370999991928020906004+50050+008600FM-12+003499999V0209999900671075001CN0020001N9+00391+00171102971ADDAY111061GF106991041051012501001021KA1999N+00391MD1610061+9999
0057106370999991928020912004+50050+008600FM-12+003499999V0202301N00101007801CN0020001N9+00611+00391102821ADDAY161061GF108991061061008001021001MD1710141+9999MW1511
0081106370999991928021006004+50050+008600FM-12+003499999V0209999900461007801CN0020001N9+00611+00561101751ADDAA199005091AY161061GF108991081061008001999999KA1999N+00611MD1810261+9999MW1611
0057106370999991928021012004+50050+008600FM-12+003499999V0202301N00261002401CN0020001N9+00781+00721101181ADDAY161061GF108991081061002501999999MD1810341+9999MW1611
0075106370999991928021106004+50050+008600FM-12+003499999V0209999900671030001CN0020001N9+00391+00171099901ADDAA199004091AY191061GF107991041061008001021001KA1999N+00221MD1710141+9999
0057106370999991928021112004+50050+008600FM-12+003499999V0202701N00931220001CN0100001N9+00611+00391099591ADDAY171061GF104991021011012501021001MD1710061+9999MW1451
0081106370999991928021206004+50050+008600FM-12+003499999V0209999900671007801CN0020001N9+00391+00001099431ADDAA199001091AY181061GF108991081091008001999999KA1999N+00391MD1210461+9999MW1211
0070106370999991928021212004+50050+008600FM-12+003499999V0202701N00461007801CN0100001N9+00611+00221100242ADDAY181061GF107991999091008001001001MD1210261+9999EQDQ01+100243APOSLP
0061106370999991928021306004+50050+008600FM-12+003499999V02099999004619999999N0020001N9+00221+00171100571ADDAA199002091AY181061GF108991999061008001001001KA1999N+00221
0051106370999991928021312004+50050+008600FM-12+003499999V0201801N002619999999N0020001N9+00391+00171100401ADDAY161061GF108991999061008001001001MD1810141+9999
0081106370999991928021406004+50050+008600FM-12+003499999V02099999004619999999N0020001N9+00781+00721100731ADDAA199002091AY161061GF108991999061008001001001KA1999N+00611MD1210141+9999MW1211
0051106370999991928021412004+50050+008600FM-12+003499999V0202001N004619999999N0040001N9+01111+00891100961ADDAY161061GF108991999091008001001001MD1210061+9999
0081106370999991928021506004+50050+008600FM-12+003499999V0209999900101007801CN0005001N9+00891+00831101511ADDAA199002091AY161061GF108991081061008001999999KA1999N+00721MD1210261+9999MW1511
0043106370999991928021512004+50050+008600FM-12+003499999V0202301N00461007801CN0020001N9+01221+01001101801ADDAY161061GF108991081061008001999999MW1601
0061106370999991928021606004+50050+008600FM-12+003499999V0209999900931012301CN0020001N9+01001+00781102201ADDAA199001091AY161061GF108991081061012501999999KA1999N+00891
0051106370999991928021612004+50050+008600FM-12+003499999V0202301N00931007801CN0100001N9+01281+01061101941ADDAY121061GF108991999051008001001001MD1710141+9999
0075106370999991928021706004+50050+008600FM-12+003499999V0209999900671220001CN0040001N9+00781+00391101311ADDAA199002091AY181061GF102991021091012501021001KA1999N+00781MD1610061+9999
0057106370999991928021712004+50050+008600FM-12+003499999V0203201N012319999999N0040001N9+00501+00281101671ADDAY171061GF106991999061008001001001MD1710261+9999MW1841
0075106370999991928021806004+50050+008600FM-12+003499999V0202701N006719999999N0020001N9+00281+00221102611ADDAA199005091AY171061GF106991999061008001001001KA1999N+00111MD1310141+9999
0037106370999991928021812004+50050+008600FM-12+003499999V0202901N00671220001CN0100001N9+00781+00171102801ADDAY101061GF102991021051012501001081
0050106370999991928021906004+50050+008600FM-12+003499999V0209999900461030001CN0040001N9+00501+00441102791ADDAY121061GF108991041051008001021001KA1999N+00501
0051106370999991928021912004+50050+008600FM-12+003499999V0202901N00461030001CN0100001N9+00891+00281102821ADDAY121061GF106991041051012501021001MD1110061+9999
0075106370999991928022006004+50050+008600FM-12+003499999V0209999900461007801CN0020001N9+00721+00501103191ADDAA199000391AY181061GF108991061061008001021001KA1999N+00611MD1310141+9999
0051106370999991928022012004+50050+008600FM-12+003499999V0200201N00101012301CN0200001N9+00721+00671103431ADDAY111061GF106991061051012501001001MD1010001+9999
0064106370999991928022106004+50050+008600FM-12+003499999V0209999900461220001CN0020001N9+00221+00001103831ADDAY111061GF100991001001999999001001KA1999N+00001MD1310061+9999
0051106370999991928022112004+50050+008600FM-12+003499999V0200901N00461075001CN0100001N9+00611+00001103471ADDAY101061GF106991011011017501001081MD1610261+9999
0064106370999991928022206004+50050+008600FM-12+003499999V0209999900261220001CN0040001N9-00111-00281103301ADDAY101061GF100991001001999999001001KA1999N-00221MD1310141+9999
0051106370999991928022212004+50050+008600FM-12+003499999V0200501N00101220001CN0040001N9+00781-00061103301ADDAY101061GF100991001001999999001001MD1610061+9999
0050106370999991928022306004+50050+008600FM-12+003499999V0209999900101220001CN0020001N9-00221-00281103441ADDAY101061GF100991001001999999001001KA1999N-00221
0051106370999991928022312004+50050+008600FM-12+003499999V0200701N00101220001CN0020001N9+00721-00111103151ADDAY101061GF100991001001999999001001MD1810201+9999
0064106370999991928022406004+50050+008600FM-12+003499999V0209991C00001220001CN0020001N9-00111-00281102991ADDAY101061GF104991999001999999021001KA1999N-00221MD1310141+9999
0051106370999991928022412004+50050+008600FM-12+003499999V0200901N00671220001CN0040001N9+00781-00061102961ADDAY101061GF100991001001999999001001MD1810061+9999
0064106370999991928022506004+50050+008600FM-12+003499999V0209999900261220001CN0040001N9-00221-00561103661ADDAY101061GF100991001001999999001001KA1999N-00221MD1310201+9999
0051106370999991928022512004+50050+008600FM-12+003499999V0200201N00261220001CN0100001N9+00781-00611103501ADDAY101061GF100991001001999999001001MD1810141+9999
0064106370999991928022606004+50050+008600FM-12+003499999V0209999900261220001CN0200001N9+00221-00171103591ADDAY101061GF100991001001999999001001KA1999N-00221MD1410001+9999
0051106370999991928022612004+50050+008600FM-12+003499999V0203401N00261220001CN0100001N9+00891+00281103571ADDAY101061GF100991001001999999001001MD1810141+9999
0064106370999991928022706004+50050+008600FM-12+003499999V0209999900261220001CN0100001N9-00221-00281103221ADDAY101061GF100991001001999999001001KA1999N-00281MD1310061+9999
0051106370999991928022712004+50050+008600FM-12+003499999V0203601N00101220001CN0100001N9+01221+00061102931ADDAY101061GF100991001001999999001001MD1810201+9999
0064106370999991928022806004+50050+008600FM-12+003499999V0209999900261220001CN0040001N9+00111-00111102631ADDAY101061GF100991001001999999001001KA1999N+00001MD1410001+9999
0051106370999991928022812004+50050+008600FM-12+003499999V0200901N00671220001CN0100001N9+01111-00331102261ADDAY101061GF100991001001999999001001MD1810201+9999
0050106370999991928022906004+50050+008600FM-12+003499999V0209999900461030001CN0020001N9-00111-00281102301ADDAY101061GF106991041051012501021001KA1999N-00221
0051106370999991928022912004+50050+008600FM-12+003499999V0200901N00461030001CN0020001N9+00611+00221102071ADDAY111061GF106991041051012501031001MD1810061+9999
0064106370999991928030106004+50050+008600FM-12+003499999V0209999900461012301CN0020001N9+00221-00331102501ADDAY111061GF107991061051012501021001KA1999N+00221MD1310141+9999
0037106370999991928030112004+50050+008600FM-12+003499999V0201101N00261220001CN0040001N9+00721+00501102471ADDAY111061GF107991999001999999021001
0050106370999991928030206004+50050+008600FM-12+003499999V0209999900261220001CN0040001N9-00111-00281102521ADDAY111061GF104991001001999999021081KA1999N-00111
0051106370999991928030212004+50050+008600FM-12+003499999V0200901N00461220001CN0100001N9+01001+00391102291ADDAY101061GF102991001001999999001081MD1810201+9999
0064106370999991928030306004+50050+008600FM-12+003499999V0209999900261220001CN0100001N9-00111-00281102471ADDAY101061GF100991001001999999001001KA1999N-00221MD1310061+9999
0051106370999991928030312004+50050+008600FM-12+003499999V0201101N00261220001CN0100001N9+01001-00111102261ADDAY101061GF100991001001999999001001MD1810141+9999
0064106370999991928030406004+50050+008600FM-12+003499999V0209999900261220001CN0020001N9+00001-00061102331ADDAY101061GF100991001001999999001001KA1999N-00111MD1310061+9999
0064106370999991928030506004+50050+008600FM-12+003499999V0209999900261220001CN0020001N9+00111-00111102201ADDAY101061GF100991001001999999001001KA1999N+00001MD1310061+9999
0051106370999991928030512004+50050+008600FM-12+003499999V0200901N00261220001CN0040001N9+01391-00111101951ADDAY101061GF100991001001999999001001MD1810201+9999
0064106370999991928030606004+50050+008600FM-12+003499999V0209991C00001220001CN0020001N9+00001-00221101771ADDAY101061GF102991999001999999021001KA1999N+00001MD1410001+9999
0051106370999991928030612004+50050+008600FM-12+003499999V0202501N00101220001CN0020001N9+01281+00391101571ADDAY101061GF101991011011017501001001MD1810141+9999
0081106370999991928030706004+50050+008600FM-12+003499999V0209991C000019999999N0005001N9+00281+00061101401ADDAA199000691AY161061GF108991999061008001001001KA1999N+00221MD1510001+9999MW1601
0068106370999991928030712004+50050+008600FM-12+003499999V0200701N009319999999N0000001N9+99999+02392999999ADDAY101061MW1211EQDQ01+031103ATOT  Q02+029713ATOD  Q03 +03783ATOT  
0075106370999991928030806004+50050+008600FM-12+003499999V0209991C00001012301CN0010001N9+00391+00331101321ADDAA199001091AY161061GF108991081051012501999999KA1999N+00391MD1310061+9999
0051106370999991928030812004+50050+008600FM-12+003499999V0203401N00101030001CN0040001N9+00721+00111101241ADDAY111061GF108991021061017501021001MD1810061+9999
0064106370999991928030906004+50050+008600FM-12+003499999V02099999002619999999N0040001N9+00221+00001101411ADDAY121061GF108991999001017501021001KA1999N+00221MD1310061+9999
0081106370999991928031006004+50050+008600FM-12+003499999V0209999900461012301CN0020001N9+00001-00331101111ADDAA199000691AY171061GF108991081061012501999999KA1999N-00111MD1810141+9999MW1701
0075106370999991928031106004+50050+008600FM-12+003499999V0209999900671007801CN0040001N9-00391-00721101581ADDAA199001091AY171061GF108991081051008001999999KA1999N-00391MD1110141+9999
0064106370999991928031206004+50050+008600FM-12+003499999V0209999900261007801CN0020001N9-00281-00611101831ADDAY121061GF108991081051008001999999KA1999N-00391MD1310141+9999
0081106370999991928031306004+50050+008600FM-12+003499999V0209999900461007801CN0010001N9+00001-00221101401ADDAA199000691AY161061GF108991081051008001999999KA1999N-00111MD1810141+9999MW1511
0051106370999991928031312004+50050+008600FM-12+003499999V0203401N00261007801CN0020001N9+00221-00171101491ADDAY121061GF108991081051008001999999MD1310061+9999
0064106370999991928031406004+50050+008600FM-12+003499999V0209999900461007801CN0020001N9+00111-00111102131ADDAY121061GF108991081051008001999999KA1999N+00111MD1310141+9999
0064106370999991928031506004+50050+008600FM-12+003499999V0209999900261007801CN0020001N9-00111-00281102511ADDAY111061GF107991071051008001001001KA1999N-00111MD1310201+9999
0037106370999991928031512004+50050+008600FM-12+003499999V0200901N00461220001CN0040001N9+00721-00331102511ADDAY111061GF104991999011017501001001
0064106370999991928031606004+50050+008600FM-12+003499999V0209999900261220001CN0020001N9-00281-00441103431ADDAY101061GF100991001001999999001001KA1999N-00391MD1310261+9999
0051106370999991928031612004+50050+008600FM-12+003499999V0200901N00461220001CN0100001N9+00611-00171103331ADDAY101061GF100991001001999999001001MD1810141+9999
0064106370999991928031706004+50050+008600FM-12+003499999V0209999900461220001CN0100001N9-00391-00561103511ADDAY101061GF100991001001999999001001KA1999N-00391MD1310061+9999
0051106370999991928031712004+50050+008600FM-12+003499999V0201401N00261220001CN0100001N9+00781-00611103171ADDAY101061GF100991001001999999001001MD1810201+9999
0050106370999991928031806004+50050+008600FM-12+003499999V0209999900101220001CN0100001N9+00111-00441102901ADDAY101061GF100991001001999999001001KA1999N-00281
0051106370999991928031812004+50050+008600FM-12+003499999V0200901N00461220001CN0100001N9+01001+00111102531ADDAY101061GF100991001001999999001001MD1810201+9999
0064106370999991928031906004+50050+008600FM-12+003499999V0209999900461220001CN0100001N9+00111-00221102461ADDAY101061GF102991001001999999001081KA1999N-00111MD1310061+9999
0064106370999991928032006004+50050+008600FM-12+003499999V0209999900101220001CN0100001N9-00111-00611102261ADDAY101061GF100991001001999999001001KA1999N-00221MD1310061+9999
0051106370999991928032012004+50050+008600FM-12+003499999V0201401N00931220001CN0100001N9+00891-00501101791ADDAY101061GF199999001001999999999999MD1810261+9999
0064106370999991928032106004+50050+008600FM-12+003499999V0209999900461220001CN0100001N9-00111-00831101071ADDAY101061GF100991001001999999001001KA1999N-00221MD1710141+9999
0057106370999991928032112004+50050+008600FM-12+003499999V0201401N00461007801CN0040001N9+00281-00281100701ADDAY171061GF108991081051008001999999MD1710141+9999MW1701
0081106370999991928032206004+50050+008600FM-12+003499999V0209991C00001007801CN0020001N9+00221+00171100711ADDAA199001091AY161061GF108991081061008001999999KA1999N+00111MD1310141+9999MW1631
0051106370999991928032212004+50050+008600FM-12+003499999V0201801N00461030001CN0040001N9+01281+00391100771ADDAY111061GF107991041051012501021001MD1810061+9999
0075106370999991928032306004+50050+008600FM-12+003499999V0209999900101220001CN0020001N9+00281+00221100671ADDAA199000691AY161061GF102991999001999999021001KA1999N+00281MD1310141+9999
0051106370999991928032312004+50050+008600FM-12+003499999V0201601N00101220001CN0100001N9+01781+00561100531ADDAY111061GF104991021011012501021001MD1810141+9999
0064106370999991928032406004+50050+008600FM-12+003499999V0209991C00001220001CN0040001N9+00891+00671100631ADDAY111061GF108991999001999999021001KA1999N+00721MD1310141+9999
0057106370999991928032412004+50050+008600FM-12+003499999V0202301N00261030001CN0040001N9+01221+00611100531ADDAY161061GF108991041061008001021001MD1810141+9999MW1601
0075106370999991928032506004+50050+008600FM-12+003499999V0209999900101007801CN0020001N9+00721+00501099601ADDAA199000691AY161061GF106991061051008001001001KA1999N+00611MD1610061+9999
0075106370999991928032606004+50050+008600FM-12+003499999V0209999900261012301CN0020001N9+00891+00671100261ADDAA199000691AY161061GF107991061051012501031001KA1999N+00891MD1310261+9999
0051106370999991928032612004+50050+008600FM-12+003499999V0203401N00671030001CN0100001N9+01721+00501100441ADDAY111061GF106991041051008001021001MD1310061+9999
0075106370999991928032706004+50050+008600FM-12+003499999V0209991C00001220001CN0040001N9+00781+00171101151ADDAA199000391AY161061GF106991999001999999021001KA1999N+00721MD1310141+9999
0064106370999991928032806004+50050+008600FM-12+003499999V0209991C00001012301CN0020001N9+00891+00671100261ADDAY111061GF106991061051012501001001KA1999N+00781MD1810141+9999
0057106370999991928032812004+50050+008600FM-12+003499999V0202001N00671030001CN0020001N9+01001+00391099991ADDAY181061GF108991041061008001021001MD1810141+9999MW1601
0064106370999991928032906004+50050+008600FM-12+003499999V0209999900461220001CN0020001N9+00501+00441100441ADDAY111061GF106991001001999999001081KA1999N+00281MD1310261+9999
0057106370999991928032912004+50050+008600FM-12+003499999V0202301N002619999999N0040001N9+01111+00501100461ADDAY161061GF106991999051008001001001MD1810061+9999MW1211
0075106370999991928033006004+50050+008600FM-12+003499999V02099999006719999999N0020001N9+00781+00561099771ADDAA199004091AY161061GF106991999091008001001001KA1999N+00501MD1310061+9999
0051106370999991928033012004+50050+008600FM-12+003499999V0202301N01231075001CN0200001N9+01781+00221099511ADDAY111061GF106991041011012501001091MD1990201+9999
0081106370999991928033106004+50050+008600FM-12+003499999V0209999900461007801CN0010001N9+00891+00831099391ADDAA199014091AY161061GF108991081061008001999999KA1999N+00781MD1710141+9999MW1631
0057106370999991928033112004+50050+008600FM-12+003499999V0202301N00101007801CN0010001N9+00891+00831099391ADDAY161061GF108991081061008001999999MD1210141+9999MW1631
0081106370999991928040106004+50050+008600FM-12+003499999V02099999001019999999N0100001N9+00721+00671099641ADDAA199001091AY161061GF108991999001017501021001KA1999N+00721MD1110061+9999MW1601
0057106370999991928040112004+50050+008600FM-12+003499999V0202701N00101015001CN0040001N9+00781+00721099841ADDAY161061GF108991081051017501999999MD1310061+9999MW1631
0081106370999991928040206004+50050+008600FM-12+003499999V0209999900261012301CN0010001N9+00611+00561100481ADDAA199003091AY161061GF108991081061012501999999KA1999N+00611MD1310201+9999MW1631
0064106370999991928040306004+50050+008600FM-12+003499999V02099999001019999999N0020001N9+00611+00391101531ADDAY121061GF108991999001017501021001KA1999N+00501MD1310261+9999
0037106370999991928040312004+50050+008600FM-12+003499999V0202501N001019999999N0040001N9+00781+00391101531ADDAY121061GF108991999051008001001001
0075106370999991928040406004+50050+008600FM-12+003499999V0209999900261012301CN0010001N9+00611+00561100961ADDAA199001091AY161061GF108991081051012501999999KA1999N+00501MD1810141+9999
0057106370999991928040412004+50050+008600FM-12+003499999V0202001N00261004501CN0010001N9+00891+00831100691ADDAY161061GF108991081061004501999999MD1810201+9999MW1631
0075106370999991928040506004+50050+008600FM-12+003499999V02099999004619999999N0020001N9+00721+00331101231ADDAA199004091AY161061GF107991999091008001001001KA1999N+00611MD1310401+9999
0037106370999991928040512004+50050+008600FM-12+003499999V0202301N004619999999N0040001N9+01281+99999101351ADDAY111061GF106991999999012501999999
0081106370999991928040606004+50050+008600FM-12+003499999V02099999006719999999N0040001N9+00611+00561101181ADDAA199002091AY161061GF108991999061008001001001KA1999N+00611MD1310201+9999MW1631
0064106370999991928040706004+50050+008600FM-12+003499999V0209999900101220001CN0020001N9+00391+00171101931ADDAY101061GF100991001001999999001001KA1999N+00001MD1310061+9999
0051106370999991928040712004+50050+008600FM-12+003499999V0200901N00461220001CN0200001N9+01501+00331101491ADDAY101061GF100991001001999999001001MD1810141+9999
0050106370999991928040806004+50050+008600FM-12+003499999V0209999900261220001CN0200001N9+00501+00111101011ADDAY111061GF108991001001999999001081KA1999N+00281
0051106370999991928040812004+50050+008600FM-12+003499999V0201601N00261220001CN0200001N9+01611+00721100881ADDAY111061GF104991021051012501021001MD1810141+9999
0064106370999991928040906004+50050+008600FM-12+003499999V0209999900101220001CN0200001N9+00781+00391101531ADDAY101061GF102991001001999999031081KA1999N+00501MD1310141+9999
0037106370999991928040912004+50050+008600FM-12+003499999V0201101N00101220001CN0100001N9+02111+99999101271ADDAY101061GF104991999999999999999999
0064106370999991928041006004+50050+008600FM-12+003499999V0209999900101220001CN0100001N9+01001+00611100901ADDAY101061GF104991001001999999001081KA1999N+00781MD1610061+9999
0064106370999991928041106004+50050+008600FM-12+003499999V0209999900101220001CN0040001N9+01221+00781100421ADDAY111061GF104991041051012501001081KA1999N+01111MD1210201+9999
0051106370999991928041112004+50050+008600FM-12+003499999V0201801N00461007801CN0100001N9+01721+01061100331ADDAY111061GF107991061091008001021001MD1810141+9999
0075106370999991928041206004+50050+008600FM-12+003499999V02099999002619999999N0020001N9+00891+00831100441ADDAA199001091AY161061GF108991999051008001001001KA1999N+00781MD1310141+9999
0037106370999991928041212004+50050+008600FM-12+003499999V0202301N004619999999N0100001N9+01281+99999100531ADDAY111061GF106991999999012501999999
0064106370999991928041306004+50050+008600FM-12+003499999V0209999900261012301CN0020001N9+00781+00721100871ADDAY121061GF108991081051012501999999KA1999N+00721MD1310201+9999
0067106370999991928041406004+50050+008600FM-12+003499999V0209999900461007801CN0010001N9+00391+00331101131ADDAA199003091AY161061GF108991081051008001999999KA1999N+00391MW1511
0067106370999991928041506004+50050+008600FM-12+003499999V0209999900101007801CN0010001N9+00391+00331100301ADDAA199012091AY161061GF108991081051008001999999KA1999N+00221MW1211
0057106370999991928041512004+50050+008600FM-12+003499999V0202001N002619999999N0040001N9+01221+00611100391ADDAY161061GF106991999051008001001001MD1610061+9999MW1211
0081106370999991928041606004+50050+008600FM-12+003499999V0209999900261012301CN0010001N9+00501+00441100021ADDAA199003091AY161061GF108991081061012501999999KA1999N+00501MD1310141+9999MW1631
0081106370999991928041706004+50050+008600FM-12+003499999V0209999900261012301CN0010001N9+00281+00221100381ADDAA199003091AY161061GF108991081061012501999999KA1999N+00221MD1310341+9999MW1631
0081106370999991928041806004+50050+008600FM-12+003499999V02099999004619999999N0040001N9+00221-00171101641ADDAA199000691AY171061GF106991999091008001001001KA1999N+00111MD1110141+9999MW1231
0043106370999991928041812004+50050+008600FM-12+003499999V0202701N00461007801CN0100001N9+00891+00281101431ADDAY171061GF106991061091008001001001MW1231
0075106370999991928041906004+50050+008600FM-12+003499999V0209999900101007801CN0010001N9+00281+00221100801ADDAA199004091AY171061GF108991081051008001999999KA1999N+00111MD1810061+9999
0051106370999991928041912004+50050+008600FM-12+003499999V0202701N00671220001CN0200001N9+01001-00111100731ADDAY181061GF104991041091012501001001MD1610061+9999
0075106370999991928042006004+50050+008600FM-12+003499999V02099999001019999999N0040001N9+00391+00171101131ADDAA199000391AY181061GF106991999091008001001001KA1999N+00221MD1310201+9999
0051106370999991928042012004+50050+008600FM-12+003499999V0202301N00461220001CN0100001N9+01281+00391101091ADDAY111061GF102991021091012501001081MD1810061+9999
0075106370999991928042106004+50050+008600FM-12+003499999V02099999004619999999N0020001N9+00391+00331101061ADDAA199008091AY181061GF106991999061008001001001KA1999N+00281MD1310061+9999
0037106370999991928042112004+50050+008600FM-12+003499999V0202301N006719999999N0040001N9+00891+00281101041ADDAY181061GF106991999091008001001001
0064106370999991928042206004+50050+008600FM-12+003499999V0209999900101012301CN0020001N9+00281+00061101311ADDAY111061GF108991081051012501999999KA1999N+00111MD1310061+9999
0064106370999991928042306004+50050+008600FM-12+003499999V0209991C00001220001CN0020001N9+00281+00221102511ADDAY111061GF102991999001999999021001KA1999N+00111MD1310261+9999
0064106370999991928042406004+50050+008600FM-12+003499999V0209999900461220001CN0100001N9+00391+00171103111ADDAY101061GF100991001001999999001001KA1999N+00001MD1310061+9999
0051106370999991928042412004+50050+008600FM-12+003499999V0201101N00671220001CN0100001N9+01501+00611102751ADDAY101061GF102991021011017501001001MD1810201+9999
0050106370999991928042506004+50050+008600FM-12+003499999V0209999900261220001CN0020001N9+00891+00671102441ADDAY101061GF100991001001999999001001KA1999N+00611
0051106370999991928042512004+50050+008600FM-12+003499999V0200901N00461220001CN0100001N9+02111+00061101991ADDAY101061GF100991001001999999001001MD1810201+9999
0050106370999991928042606004+50050+008600FM-12+003499999V0209999900101220001CN0100001N9+01001+00611101641ADDAY101061GF100991001001999999001001KA1999N+00611
0051106370999991928042612004+50050+008600FM-12+003499999V0200901N00461220001CN0200001N9+02111+00061101231ADDAY101061GF101991011011017501001001MD1810201+9999
0064106370999991928042706004+50050+008600FM-12+003499999V0209999900461220001CN0100001N9+01001+00611101071ADDAY101061GF102991999001999999021001KA1999N+00721MD1810061+9999
0051106370999991928042712004+50050+008600FM-12+003499999V0201101N00461220001CN0200001N9+02001-00061100701ADDAY101061GF102991001001999999001081MD1710201+9999
0064106370999991928042806004+50050+008600FM-12+003499999V0209999900261220001CN0100001N9+01281+00831101311ADDAY111061GF101991999001999999031001KA1999N+01001MD1310141+9999
0075106370999991928042906004+50050+008600FM-12+003499999V02099999009319999999N0040001N9+01501+01061100191ADDAA199000691AY161061GF106991999001022501021081KA1999N+01281MD1710201+9999
0075106370999991928043006004+50050+008600FM-12+003499999V0209999900261220001CN0040001N9+01281+00831100591ADDAA199000691AY161061GF101991999001999999021001KA1999N+00001MD1310141+9999
0051106370999991928043012004+50050+008600FM-12+003499999V0201401N00671220001CN0500001N9+02281+00671100591ADDAY101061GF102991021011022501001001MD1810061+9999
0064106370999991928050106004+50050+008600FM-12+003499999V0209991C00001012301CN0020001N9+01501+01061100901ADDAY111061GF108991061051012501021001KA1999N+01281MD1310061+9999
0075106370999991928050206004+50050+008600FM-12+003499999V0209991C00001030001CN0020001N9+01501+01441100971ADDAA199000391AY161061GF108991041061008001021001KA1999N+01391MD1310061+9999
0051106370999991928050212004+50050+008600FM-12+003499999V0200901N00261220001CN0040001N9+02111+00891100831ADDAY101061GF101991011011017501001001MD1810061+9999
0064106370999991928050306004+50050+008600FM-12+003499999V0209999900261220001CN0100001N9+01611+01171100741ADDAY101061GF102991001001999999001081KA1999N+01281MD1310061+9999
0064106370999991928050406004+50050+008600FM-12+003499999V0209999900671220001CN0200001N9+01111+00671100821ADDAY101061GF101991001001999999001081KA1999N+00781MD1310141+9999
0051106370999991928050412004+50050+008600FM-12+003499999V0200901N00671220001CN0200001N9+02111+00501100641ADDAY101061GF101991001001999999001081MD1810061+9999
0064106370999991928050506004+50050+008600FM-12+003499999V0209999900461220001CN0100001N9+01111+00501101271ADDAY101061GF100991001001999999001001KA1999N+00721MD1310201+9999
0051106370999991928050512004+50050+008600FM-12+003499999V0200501N00671220001CN0200001N9+01891+00331101071ADDAY101061GF100991001001999999001001MD1810061+9999
0064106370999991928050606004+50050+008600FM-12+003499999V0209999900461220001CN0200001N9+01001+00391101061ADDAY101061GF100991001001999999001001KA1999N+00611MD1990061+9999
0051106370999991928050612004+50050+008600FM-12+003499999V0200901N00671220001CN0500001N9+02001+00391100671ADDAY101061GF100991001001999999001001MD1810201+9999
0050106370999991928050706004+50050+008600FM-12+003499999V0209999900101007801CN0100001N9+01111+00501100481ADDAY111061GF106991061051008001001001KA1999N+00611
0064106370999991928050806004+50050+008600FM-12+003499999V0209999900101220001CN0100001N9+00891+00441100311ADDAY101061GF101991011011017501001001KA1999N+00781MD1210201+9999
0037106370999991928050812004+50050+008600FM-12+003499999V0203401N004619999999N0100001N9+01391+99999100391ADDAY111061GF106991999999012501999999
0064106370999991928050906004+50050+008600FM-12+003499999V0209999900671220001CN0100001N9+00611+00221100861ADDAY111061GF102991021011017501001001KA1999N+00391MD1310261+9999
0051106370999991928050912004+50050+008600FM-12+003499999V0203201N00671030001CN0100001N9+01001+00111100961ADDAY111061GF106991041091012501021001MD1210061+9999
0081106370999991928051006004+50050+008600FM-12+003499999V02099999004619999999N0100001N9+00391+00171101491ADDAA199000691AY171061GF106991999061008001001001KA1999N+00221MD1210141+9999MW1851
0037106370999991928051012004+50050+008600FM-12+003499999V0202901N00461007801CN0100001N9+01001-00391101471ADDAY181061GF106991061091008001021001
0064106370999991928051106004+50050+008600FM-12+003499999V0209999900101220001CN0040001N9+00391+00171101831ADDAY111061GF104991999051008001001001KA1999N+00221MD1310141+9999
0037106370999991928051112004+50050+008600FM-12+003499999V0203201N00101220001CN0100001N9+00891+00061101791ADDAY111061GF104991041011012501001001
0064106370999991928051206004+50050+008600FM-12+003499999V0209999900261007801CN0020001N9+00611+00221101981ADDAY111061GF106991061051008001001001KA1999N+00221MD1310061+9999
0057106370999991928051212004+50050+008600FM-12+003499999V0202701N00261030001CN0100001N9+01111+00671101801ADDAY161061GF108991041061008001021001MD1810061+9999MW1611
0081106370999991928051306004+50050+008600FM-12+003499999V0209991C000019999999N0040001N9+00891+00831101871ADDAA199002091AY161061GF106991999051012501001001KA1999N+00781MD1110061+9999MW1211
0037106370999991928051312004+50050+008600FM-12+003499999V0203401N004619999999N0100001N9+01281+99999101871ADDAY161061GF106991999999012501999999
0050106370999991928051406004+50050+008600FM-12+003499999V0209999900101012301CN0100001N9+00781+00391101711ADDAY111061GF106991061051012501001001KA1999N+00611
0064106370999991928051506004+50050+008600FM-12+003499999V02099999006719999999N0020001N9+00891+00441101001ADDAY111061GF108991999061012501001001KA1999N+00781MD1810141+9999
0081106370999991928051606004+50050+008600FM-12+003499999V0209999900461007801CN0020001N9+00721+00671999999ADDAA199000591AY161061GF108991081061008001999999KA1999N+00721MD1810201+9999MW1631
0057106370999991928051612004+50050+008600FM-12+003499999V0202301N00931004501CN0040001N9+00781+00561099731ADDAY161061GF108991061061004501021001MD1610061+9999MW1611
0067106370999991928051706004+50050+008600FM-12+003499999V02099999002619999999N0040001N9+00721+00501099971ADDAA199000391AY161061GF108991999091008001001001KA1999N+00501MW1611
0043106370999991928051712004+50050+008600FM-12+003499999V0202001N00461004501CN0040001N9+00721+00671100111ADDAY161061GF108991061061004501021001MW1601
0080106370999991928051806004+50050+008600FM-12+003499999V0209999900101012301CN0040001N9+00721+00331100421ADDAA199000391AY181061GF106991061051012501001001KA1999N+99999EQDQ01 +00892ATMN  
0057106370999991928051812004+50050+008600FM-12+003499999V0202001N00461030001CN0100001N9+00781+00721100401ADDAY191061GF107991041061004501021001MD1110061+9999MW1631
0075106370999991928051906004+50050+008600FM-12+003499999V02099999004619999999N0040001N9+00891+00831100801ADDAA199000391AY101061GF107991999061008001001001KA1999N+00611MD1310141+9999
0037106370999991928051912004+50050+008600FM-12+003499999V0202901N004619999999N0100001N9+01221+99999100921ADDAY111061GF106991999999012501999999
0050106370999991928052006004+50050+008600FM-12+003499999V0209991C00001075001CN0040001N9+01111+00891101111ADDAY111061GF106991021051022501001081KA1999N+00611
0081106370999991928052106004+50050+008600FM-12+003499999V0209991C00001000151CN0002001N9+00781+00721101271ADDAA199000691AY141061GF108991081051000251999999KA1999N+00721MD1310061+9999MW1451
0051106370999991928052112004+50050+008600FM-12+003499999V0202301N00461220001CN0100001N9+01221+01001101241ADDAY111061GF104991021051012501001081MD1110061+9999
0064106370999991928052206004+50050+008600FM-12+003499999V0209999900261012301CN0040001N9+00781+00561101331ADDAY111061GF106991061051012501021001KA1999N+00501MD1310061+9999
0057106370999991928052212004+50050+008600FM-12+003499999V0201801N00461012301CN0100001N9+01281+00611101261ADDAY161061GF107991999061012501001001MD1810061+9999MW1611
0064106370999991928052306004+50050+008600FM-12+003499999V0209991C00001007801CN0020001N9+00721+00501101271ADDAY101061GF106991061051008001001001KA1999N+00391MD1310141+9999
0051106370999991928052312004+50050+008600FM-12+003499999V0202301N00461012301CN0040001N9+01501+00831101141ADDAY111061GF106991061091012501001001MD1610061+9999
0075106370999991928052406004+50050+008600FM-12+003499999V0209999900461007801CN0020001N9+00891+00671101631ADDAA199004091AY181061GF106991061051008001001001KA1999N+00721MD1310141+9999
0037106370999991928052412004+50050+008600FM-12+003499999V0202701N004619999999N0040001N9+01281+00611101681ADDAY161061GF108991999051008001001001
0075106370999991928052506004+50050+008600FM-12+003499999V02099999004619999999N0020001N9+01001+00781102021ADDAA199000691AY161061GF107991999061008001001001KA1999N+00721MD1310141+9999
0057106370999991928052512004+50050+008600FM-12+003499999V0202901N00461030001CN0040001N9+01221+00781102131ADDAY161061GF108991041061008001021001MD1310141+9999MW1211
0064106370999991928052606004+50050+008600FM-12+003499999V0209999900261220001CN0100001N9+01111+00501102511ADDAY111061GF102991001001999999021081KA1999N+01001MD1310141+9999
0051106370999991928052612004+50050+008600FM-12+003499999V0202901N00671220001CN0020001N9+02001+00781102331ADDAY101061GF102991001001999999001081MD1810141+9999
0050106370999991928052706004+50050+008600FM-12+003499999V0209999900261220001CN0040001N9+01001+00781102291ADDAY101061GF102991001001999999001081KA1999N+00721
0051106370999991928052712004+50050+008600FM-12+003499999V0203401N00101220001CN0100001N9+02001+01061101991ADDAY101061GF102991001001999999001081MD1810141+9999
0064106370999991928052806004+50050+008600FM-12+003499999V0209991C00001220001CN0040001N9+01221+00781101771ADDAY101061GF100991001001999999001001KA1999N+00721MD1310061+9999
0051106370999991928052812004+50050+008600FM-12+003499999V0202501N00261220001CN0100001N9+02391+00781101401ADDAY101061GF104991001001999999001081MD1810141+9999
0064106370999991928052906004+50050+008600FM-12+003499999V0209999900261220001CN0100001N9+01391+00941101931ADDAY101061GF100991001001999999001001KA1999N+01001MD1310141+9999
0051106370999991928052912004+50050+008600FM-12+003499999V0200701N00671220001CN0500001N9+02501+00831101751ADDAY101061GF102991001001999999001021MD1810061+9999
0064106370999991928053006004+50050+008600FM-12+003499999V0209999900461030001CN0040001N9+01611+01171101811ADDAY111061GF106991041051012501031001KA1999N+01221MD1310061+9999
0051106370999991928053012004+50050+008600FM-12+003499999V0200501N00261220001CN0200001N9+02721+01061101701ADDAY101061GF101991001001999999001081MD1810141+9999
0050106370999991928053106004+50050+008600FM-12+003499999V0209999900261220001CN0040001N9+01611+00941101551ADDAY101061GF101991999001999999021001KA1999N+01221
0051106370999991928053112004+50050+008600FM-12+003499999V0200501N00261220001CN0200001N9+02501+01221101231ADDAY101061GF102991021011017501001001MD1810201+9999
0037106370999991928060112004+50050+008600FM-12+003499999V0200501N004619999999N0100001N9+01721+01061101761ADDAY111061GF106991999011012501001001
0037106370999991928060212004+50050+008600FM-12+003499999V0200501N00261220001CN0200001N9+01781-00221102301ADDAY101061GF100991001001999999001001
0051106370999991928060312004+50050+008600FM-12+003499999V0203601N00101220001CN0200001N9+02391+00781102031ADDAY101061GF101991011011017501001001MD1810141+9999
0051106370999991928060512004+50050+008600FM-12+003499999V0200201N00461012301CN0100001N9+01781+00891101061ADDAY111061GF106991061051012501001001MD1610061+9999
0051106370999991928062512004+50050+008600FM-12+003499999V0200701N00461220001CN0100001N9+02501+00831101621ADDAY101061GF101991011011017501001001MD1810201+9999
0037106370999991928070812004+50050+008600FM-12+003499999V0200501N00261220001CN0200001N9+02281+99999102401ADDAY101061GF104991999999999999999999
0037106370999991928071012004+50050+008600FM-12+003499999V0200701N00101220001CN0100001N9+02391+01111102461ADDAY161061GF104991999051012501001001
0051106370999991928071412004+50050+008600FM-12+003499999V0200201N00461220001CN0100001N9+03281+01561102431ADDAY101061GF100991001001999999001001MD1810061+9999
0051106370999991928071512004+50050+008600FM-12+003499999V0200501N00261220001CN0040001N9+03501+01721102131ADDAY101061GF100991001001999999001001MD1810141+9999
0051106370999991928071712004+50050+008600FM-12+003499999V0200501N00931220001CN0200001N9+02721+01441102471ADDAY111061GF104991021051017501001081MD1810061+9999
0051106370999991928071812004+50050+008600FM-12+003499999V0203601N00101220001CN0200001N9+02781+01111102151ADDAY101061GF104991011011017501001021MD1810201+9999
0051106370999991928072212004+50050+008600FM-12+003499999V0200701N00461220001CN0040001N9+02501+01221102111ADDAY111061GF104991999011012501001001MD1810061+9999
0051106370999991928072312004+50050+008600FM-12+003499999V0203601N00101220001CN0100001N9+02781+01781101871ADDAY101061GF104991011011017501001081MD1810061+9999
0051106370999991928080212004+50050+008600FM-12+003499999V0200201N004619999999N0200001N9+02281+01061101931ADDAY111061GF106991999091012501001001MD1310061+9999
0051106370999991928080312004+50050+008600FM-12+003499999V0200701N00261220001CN0100001N9+02221+00611101761ADDAY111061GF106991001001999999001081MD1810201+9999
0037106370999991928080612004+50050+008600FM-12+003499999V0203601N002619999999N0100001N9+01221-00221102441ADDAY111061GF106991999091012501001001
0051106370999991928080712004+50050+008600FM-12+003499999V0209991C00001030001CN0040001N9+02281+00671102351ADDAY111061GF107991021051022501031001MD1810141+9999
0051106370999991928081212004+50050+008600FM-12+003499999V0209991C00001075001CN0020001N9+02721+01721100901ADDAY121061GF106991041051017501001091MD1510061+9999
0051106370999991928081512004+50050+008600FM-12+003499999V0209991C00001012301CN0040001N9+02391+01721101201ADDAY111061GF106991061051012501001001MD1810201+9999
0037106370999991928081812004+50050+008600FM-12+003499999V0203601N001019999999N0100001N9+01721+00831102071ADDAY111061GF107991999091008001001001
0051106370999991928082412004+50050+008600FM-12+003499999V0209991C00001220001CN0100001N9+02781+01781101191ADDAY111061GF104991001001999999001021MD1810201+9999
0051106370999991928082912004+50050+008600FM-12+003499999V0209991C00001030001CN0040001N9+02221+01281101641ADDAY111061GF108991041091008001021001MD1810061+9999
0081106370999991928090106004+50050+008600FM-12+003499999V0209999900101012301CN0100001N9+01221+01171102301ADDAA199001091AY161061GF108991081061012501999999KA1999N+01111MD1310061+9999MW1611
0051106370999991928090112004+50050+008600FM-12+003499999V0200201N00461220001CN0100001N9+01891+00671102301ADDAY161061GF104991041011012501001001MD1610061+9999
0050106370999991928090206004+50050+008600FM-12+003499999V0209999900261220001CN0200001N9+01001+00781102401ADDAY101061GF100991001001999999001001KA1999N+00721
0064106370999991928090306004+50050+008600FM-12+003499999V0209999900261220001CN0100001N9+01001+00781102371ADDAY101061GF100991001001999999001001KA1999N+00781MD1310141+9999
0064106370999991928090406004+50050+008600FM-12+003499999V0209999900101220001CN0040001N9+00891+00831102531ADDAY101061GF106991001001999999001081KA1999N+00721MD1310061+9999
0051106370999991928090412004+50050+008600FM-12+003499999V0209991C00001220001CN0100001N9+02391+00281102301ADDAY101061GF100991001001999999001001MD1810141+9999
0064106370999991928090506004+50050+008600FM-12+003499999V0209999900101220001CN0100001N9+01111+00891102311ADDAY101061GF100991001001999999001001KA1999N+00891MD1310061+9999
0051106370999991928090512004+50050+008600FM-12+003499999V0201801N00461220001CN0040001N9+02721+01061101811ADDAY101061GF100991001001999999001001MD1810201+9999
0064106370999991928090606004+50050+008600FM-12+003499999V0209999900101220001CN0020001N9+01611+01561101991ADDAY111061GF106991001001999999001081KA1999N+01391MD1310141+9999
0051106370999991928090612004+50050+008600FM-12+003499999V0202301N00931012301CN0100001N9+02391+01441102031ADDAY111061GF107991061011012501001081MD1110061+9999
0064106370999991928090706004+50050+008600FM-12+003499999V0209999900101220001CN0040001N9+01221+01171102861ADDAY101061GF101991001001999999001021KA1999N+01001MD1310141+9999
0064106370999991928090806004+50050+008600FM-12+003499999V0209999900101220001CN0040001N9+01501+01281102341ADDAY111061GF104991001001999999001081KA1999N+01221MD1310141+9999
0051106370999991928090812004+50050+008600FM-12+003499999V0202301N00461220001CN0040001N9+02781+01501102131ADDAY101061GF102991001001999999001021MD1810141+9999
0064106370999991928090906004+50050+008600FM-12+003499999V0209999900101075001CN0040001N9+01721+01281102241ADDAY101061GF106991021051012501001081KA1999N+01391MD1310061+9999
0051106370999991928090912004+50050+008600FM-12+003499999V0203201N00101220001CN0100001N9+03111+01781101901ADDAY101061GF102991001001999999001021MD1810061+9999
0064106370999991928091006004+50050+008600FM-12+003499999V0209999900101007801CN0040001N9+01781+01561102191ADDAY111061GF108991081051008001999999KA1999N+01001MD1210061+9999
0037106370999991928091012004+50050+008600FM-12+003499999V0203201N001019999999N0100001N9+02391+99999102391ADDAY111061GF106991999999012501999999
0064106370999991928091106004+50050+008600FM-12+003499999V0209999900101220001CN0020001N9+01391+01331102521ADDAY101061GF102991011051012501031001KA1999N+01111MD1310061+9999
0051106370999991928091112004+50050+008600FM-12+003499999V0202501N00671220001CN0100001N9+02281+02001102331ADDAY101061GF102991021011012501001081MD1810061+9999
0064106370999991928091206004+50050+008600FM-12+003499999V0209999900261220001CN0040001N9+01221+01001102431ADDAY101061GF100991001001999999001001KA1999N+01001MD1310061+9999
0064106370999991928091306004+50050+008600FM-12+003499999V0209999900461220001CN0100001N9+01001+00611102561ADDAY101061GF100991001001999999001001KA1999N+00891MD1310141+9999
0051106370999991928091312004+50050+008600FM-12+003499999V0203601N00461220001CN0100001N9+02221+00611102341ADDAY101061GF100991001001999999001001MD1810141+9999
0064106370999991928091406004+50050+008600FM-12+003499999V0209999900461220001CN0100001N9+01001+00781102471ADDAY101061GF102991001001999999001021KA1999N+00891MD1310141+9999
0064106370999991928091506004+50050+008600FM-12+003499999V0209999900461220001CN0100001N9+01111+00671102401ADDAY101061GF102991001001999999001091KA1999N+01001MD1310141+9999
0051106370999991928091512004+50050+008600FM-12+003499999V0201401N00461220001CN0200001N9+02281+00671102271ADDAY101061GF104991041011012501001001MD1810061+9999
0064106370999991928091606004+50050+008600FM-12+003499999V0209999900461220001CN0100001N9+01221+01001102551ADDAY111061GF102991999001999999021001KA1999N+01111MD1310141+9999
0064106370999991928091706004+50050+008600FM-12+003499999V0209999900261220001CN0100001N9+01111+00891102641ADDAY101061GF102991001001999999001021KA1999N+01001MD1310141+9999
0051106370999991928091712004+50050+008600FM-12+003499999V0200701N00461220001CN0200001N9+02281+00671102351ADDAY101061GF104991041011017501001021MD1710141+9999
0050106370999991928091806004+50050+008600FM-12+003499999V0209999900261220001CN0100001N9+01111+00671102431ADDAY101061GF100991001001999999001001KA1999N+00891
0051106370999991928091812004+50050+008600FM-12+003499999V0200501N00461220001CN0100001N9+02391+00781102081ADDAY101061GF101991011011017501001001MD1810201+9999
0064106370999991928091906004+50050+008600FM-12+003499999V0209991C00001012301CN0020001N9+01391+01171102121ADDAY111061GF108991081051012501999999KA1999N+01281MD1310061+9999
0051106370999991928091912004+50050+008600FM-12+003499999V0201101N00101220001CN0040001N9+02391+01111101901ADDAY111061GF100991001001999999001001MD1810141+9999
0064106370999991928092006004+50050+008600FM-12+003499999V0209999900101007801CN0020001N9+01111+01061102161ADDAY111061GF106991061051008001001001KA1999N+00891MD1310141+9999
0051106370999991928092012004+50050+008600FM-12+003499999V0200501N00261220001CN0040001N9+02221+01001101991ADDAY101061GF102991021011017501001001MD1810141+9999
0064106370999991928092106004+50050+008600FM-12+003499999V0209999900461220001CN0100001N9+00891+00441102271ADDAY101061GF100991001001999999001001KA1999N+00781MD1310141+9999
0051106370999991928092112004+50050+008600FM-12+003499999V0200501N00461220001CN0200001N9+02001+00391102041ADDAY101061GF101991011011017501001081MD1810141+9999
0050106370999991928092206004+50050+008600FM-12+003499999V0209999900461220001CN0100001N9+00781+00561102001ADDAY101061GF101991011011017501001001KA1999N+00721
0057106370999991928092212004+50050+008600FM-12+003499999V0203601N002619999999N0100001N9+01391+00221101911ADDAY181061GF106991999091012501001001MD1510061+9999MW1211
0064106370999991928092306004+50050+008600FM-12+003499999V0209999900101015001CN0200001N9+00721+00501101771ADDAY111061GF106991061051017501001001KA1999N+00391MD1990061+9999
0057106370999991928092312004+50050+008600FM-12+003499999V0203601N00261007801CN0100001N9+01221+00611101601ADDAY111061GF107991999091008001001001MD1810141+9999MW1801
0081106370999991928092406004+50050+008600FM-12+003499999V0209991C00001220001CN0010001N9+00501+00441101281ADDAA199000691AY181061GF102991021011012501001001KA1999N+00501MD1610061+9999MW1101
0051106370999991928092412004+50050+008600FM-12+003499999V0202301N001019999999N0100001N9+01281+00391101041ADDAY111061GF107991999091008001001001MD1810061+9999
0070106370999991928092506004+50050+008600FM-12+003499999V0209999900461012301CN0010001N9+00721+00671101261ADDAY141061GF106991061051012501001001KA1999N+00611MD1310141+9999MW1101
0051106370999991928092512004+50050+008600FM-12+003499999V0202301N00461012301CN0040001N9+01501+00611101201ADDAY111061GF106991061051012501001081MD1990061+9999
0064106370999991928092606004+50050+008600FM-12+003499999V0209999900461007801CN0020001N9+00891+00671101751ADDAY111061GF108991081051008001999999KA1999N+00721MD1310201+9999
0050106370999991928092706004+50050+008600FM-12+003499999V0209999900101220001CN0020001N9+00501+00441101701ADDAY101061GF100991001001999999001001KA1999N+00281
0051106370999991928092712004+50050+008600FM-12+003499999V0200901N00101220001CN0100001N9+01781+00221101321ADDAY101061GF104991001001999999001021MD1810201+9999
0064106370999991928092806004+50050+008600FM-12+003499999V0209999900101012301CN0040001N9+00781+00561100691ADDAY111061GF108991081051012501999999KA1999N+00611MD1810141+9999
0081106370999991928092906004+50050+008600FM-12+003499999V0209991C00001000151CN0002001N9+01221+01171101001ADDAA199002091AY161061GF108991081051000251999999KA1999N+01001MD1310141+9999MW1451
0100106370999991928093006004+50050+008600FM-12+003499999V0209999900261007801CN0005001N9+01281+01221100471ADDAA199003091AY191061GF108991081061008001999999KA1999N+99999MD1610201+9999MW1631EQDQ01 +01722ATMN  
0057106370999991928093012004+50050+008600FM-12+003499999V0203601N00101012301CN0020001N9+01111+01061100741ADDAY161061GF108991081051012501999999MD1210141+9999MW1511
0064106370999991928100106004+50050+008600FM-12+003499999V0209999900461220001CN0040001N9+00391+00331101511ADDAY101061GF104991041051008001001001KA1999N+00281MD1310141+9999
0051106370999991928100112004+50050+008600FM-12+003499999V0202901N009319999999N0200001N9+01221+00331101761ADDAY111061GF106991999051012501001001MD1310061+9999
0064106370999991928100206004+50050+008600FM-12+003499999V0209999900461220001CN0020001N9+00501+00441102111ADDAY101061GF101991011051008001001001KA1999N+00391MD1810061+9999
0037106370999991928100212004+50050+008600FM-12+003499999V0202701N004619999999N0100001N9+01221+00331101911ADDAY111061GF106991999091008001001001
0070106370999991928100306004+50050+008600FM-12+003499999V0209999900101012301CN0010001N9+00781+00721102711ADDAY141061GF106991061051012501001001KA1999N+00721MD1310201+9999MW1101
0037106370999991928100312004+50050+008600FM-12+003499999V0200201N00101220001CN0200001N9+01281+00611102841ADDAY101061GF104991041011012501001001
0050106370999991928100406004+50050+008600FM-12+003499999V0209999900261030001CN0040001N9+00391+00171102511ADDAY111061GF106991041051012501021001KA1999N+00281
0051106370999991928100412004+50050+008600FM-12+003499999V0200701N00261030001CN0100001N9+01281+00111102331ADDAY111061GF107991021051012501021001MD1990141+9999
0064106370999991928100506004+50050+008600FM-12+003499999V0209999900101220001CN0020001N9+00281+00221102481ADDAY101061GF100991001001999999001001KA1999N+00221MD1310141+9999
0051106370999991928100512004+50050+008600FM-12+003499999V0201401N00261220001CN0040001N9+01611+00441102311ADDAY101061GF100991001001999999001001MD1990141+9999
0070106370999991928100606004+50050+008600FM-12+003499999V0209991C00001000151CN0005001N9+00721+00671102521ADDAY141061GF108991081051000251999999KA1999N+00611MD1310141+9999MW1451
0051106370999991928100612004+50050+008600FM-12+003499999V0202501N00261030001CN0020001N9+01281+01061102471ADDAY161061GF108991041051008001021001MD1810061+9999
0081106370999991928100706004+50050+008600FM-12+003499999V0209991C00001220001CN0010001N9+00781+00721102881ADDAA199000691AY141061GF104991001001999999001021KA1999N+00721MD1110141+9999MW1101
0056106370999991928100806004+50050+008600FM-12+003499999V0209991C00001000151CN0000501N9+00611+00561102511ADDAY141061GF108991081051000251999999KA1999N+00611MW1451
0051106370999991928100812004+50050+008600FM-12+003499999V0202301N00101220001CN0020001N9+01611+00721102071ADDAY141061GF104991001001999999001021MD1810261+9999
0070106370999991928100906004+50050+008600FM-12+003499999V0209991C00001000151CN0002001N9+00781+00721101361ADDAY141061GF108991081051000251999999KA1999N+00721MD1810141+9999MW1451
0051106370999991928100912004+50050+008600FM-12+003499999V0202301N00101015001CN0040001N9+01721+01061100841ADDAY161061GF106991061051017501001001MD1810261+9999
0075106370999991928101006004+50050+008600FM-12+003499999V02099999004619999999N0020001N9+01221+01001100561ADDAA199003091AY161061GF106991999061008001001001KA1999N+01111MD1310201+9999
0043106370999991928101012004+50050+008600FM-12+003499999V0202301N004619999999N0040001N9+01281+01221100591ADDAY161061GF108991999061008001001001MW1211
0081106370999991928101106004+50050+008600FM-12+003499999V0209991C00001012301CN0010001N9+01001+00941101441ADDAA199000391AY161061GF108991081051012501999999KA1999N+00891MD1310061+9999MW1101
0037106370999991928101112004+50050+008600FM-12+003499999V0202001N004619999999N0040001N9+01391+99999101041ADDAY121061GF108991999001999999021999
0075106370999991928101206004+50050+008600FM-12+003499999V0209999900671220001CN0100001N9+01111+00671100921ADDAA199001091AY161061GF104991021061008001021001KA1999N+01111MD1010061+9999
0057106370999991928101212004+50050+008600FM-12+003499999V0200501N00461030001CN0100001N9+00781+00171101171ADDAY161061GF108991041061008001021001MD1110061+9999MW1601
0064106370999991928101306004+50050+008600FM-12+003499999V0209999900261220001CN0020001N9+00111+00061101621ADDAY101061GF102991001001999999001021KA1999N+00111MD1310201+9999
0051106370999991928101312004+50050+008600FM-12+003499999V0209991C00001220001CN0200001N9+01001-00391101661ADDAY101061GF101991011011017501001001MD1610061+9999
0064106370999991928101406004+50050+008600FM-12+003499999V0209999900261220001CN0100001N9+00281+00061102291ADDAY111061GF102991021051017501001001KA1999N+00221MD1310201+9999
0051106370999991928101412004+50050+008600FM-12+003499999V0200501N00461220001CN0500001N9+01001-00391102391ADDAY111061GF104991041011017501001001MD1110061+9999
0064106370999991928101506004+50050+008600FM-12+003499999V0209999900101220001CN0040001N9-00221-00391102431ADDAY101061GF101991999001999999021001KA1999N-00221MD1410001+9999
0051106370999991928101512004+50050+008600FM-12+003499999V0201401N00261220001CN0100001N9+01001-00391102131ADDAY101061GF102991001001999999001021MD1810201+9999
0064106370999991928101606004+50050+008600FM-12+003499999V0209999900101220001CN0020001N9-00221-00281102831ADDAY101061GF100991001001999999001001KA1999N-00221MD1310141+9999
0051106370999991928101612004+50050+008600FM-12+003499999V0201601N00261220001CN0100001N9+01111-00331102731ADDAY101061GF102991001001999999001021MD1710141+9999
0064106370999991928101706004+50050+008600FM-12+003499999V0209999900671007801CN0010001N9+00221+00001102821ADDAY111061GF107991061051008001001091KA1999N+00111MD1410001+9999
0057106370999991928101712004+50050+008600FM-12+003499999V0202001N00261007801CN0010001N9+00781+00721102601ADDAY161061GF108991081051008001999999MD1710141+9999MW1211
0081106370999991928101806004+50050+008600FM-12+003499999V0209999900261004501CN0005001N9+01111+01061102131ADDAA199003091AY161061GF108991999061004501001001KA1999N+01001MD1410001+9999MW1631
0057106370999991928101812004+50050+008600FM-12+003499999V0202001N00461012301CN0010001N9+01281+01221102021ADDAY161061GF108991081061012501999999MD1810141+9999MW1611
0081106370999991928101906004+50050+008600FM-12+003499999V02099999006719999999N0020001N9+01281+01221101281ADDAA199009091AY161061GF108991999061004501001001KA1999N+01111MD1210141+9999MW1211
0051106370999991928101912004+50050+008600FM-12+003499999V0202001N00261030001CN0040001N9+01391+00941101541ADDAY121061GF108991041051012501021001MD1310061+9999
0061106370999991928102006004+50050+008600FM-12+003499999V0209991C00001220001CN0010001N9+00891+00831101431ADDAA199005091AY161061GF101991011051008001001001KA1999N+00891
0051106370999991928102012004+50050+008600FM-12+003499999V0202001N00461220001CN0040001N9+02221+01001101071ADDAY101061GF104991021051017501001081MD1810201+9999
0067106370999991928102106004+50050+008600FM-12+003499999V0209999900261012301CN0020001N9+01221+01171101191ADDAA199005091AY191061GF108991081061012501999999KA1999N+00891MW1611
0037106370999991928102112004+50050+008600FM-12+003499999V0202001N004619999999N0200001N9+01281+01221101241ADDAY161061GF108991999091012501001001
0081106370999991928102206004+50050+008600FM-12+003499999V0209991C00001007801CN0010001N9+01111+01061101101ADDAA199002091AY161061GF108991081061008001999999KA1999N+01001MD1510061+9999MW1631
0057106370999991928102212004+50050+008600FM-12+003499999V0209991C000019999999N0020001N9+01221+01171100881ADDAY161061GF108991999061008001001001MD1810141+9999MW1611
0075106370999991928102306004+50050+008600FM-12+003499999V0209991C00001030001CN0020001N9+00781+00721101011ADDAA199001091AY161061GF106991041051012501031001KA1999N+00781MD1310061+9999
0051106370999991928102312004+50050+008600FM-12+003499999V0202301N00671030001CN0040001N9+01391+99999100921ADDAY111061GF108991041061008001021001MD1610061+9999
0064106370999991928102406004+50050+008600FM-12+003499999V02099999002619999999N0040001N9+01001+00941101601ADDAY111061GF107991999051008001001001KA1999N+00781MD1310201+9999
0051106370999991928102412004+50050+008600FM-12+003499999V0202001N00671030001CN0040001N9+01611+00941101581ADDAY111061GF108991041051012501021001MD1610061+9999
0081106370999991928102506004+50050+008600FM-12+003499999V0209999900101007801CN0010001N9+01221+01171101871ADDAA199022091AY161061GF108991081061008001999999KA1999N+01221MD1310061+9999MW1631
0051106370999991928102512004+50050+008600FM-12+003499999V0202301N001019999999N0020001N9+01501+01441101761ADDAY161061GF106991999051008001001001MD1610061+9999
0081106370999991928102606004+50050+008600FM-12+003499999V0209991C00001000151CN0005001N9+01221+01171101101ADDAA199008091AY161061GF108991081061000251999999KA1999N+01111MD1810141+9999MW1451
0051106370999991928102612004+50050+008600FM-12+003499999V0201801N00461030001CN0040001N9+01281+01221100701ADDAY161061GF108991041061004501021001MD1810141+9999
0075106370999991928102706004+50050+008600FM-12+003499999V02099999001019999999N0020001N9+01001+00781099511ADDAA199000691AY161061GF107991999051012501001001KA1999N+00891MD1510141+9999
0051106370999991928102712004+50050+008600FM-12+003499999V0200901N001019999999N0040001N9+01721+00831099491ADDAY111061GF106991999999022501999999MD1610061+9999
0050106370999991928102806004+50050+008600FM-12+003499999V0209991C00001075001CN0020001N9+01221+01171099551ADDAY111061GF107991041051008001001081KA1999N+01111
0037106370999991928102812004+50050+008600FM-12+003499999V0202501N009319999999N0020001N9+01221+01001099981ADDAY121061GF108991999051022501001001
0075106370999991928102906004+50050+008600FM-12+003499999V0209999900101220001CN0040001N9+00781+00561101541ADDAA199001091AY161061GF102991021051017501031001KA1999N+00781MD1310341+9999
0037106370999991928102912004+50050+008600FM-12+003499999V0202301N00461220001CN0100001N9+01221+00611101671ADDAY101061GF104991041091012501001001
0064106370999991928103006004+50050+008600FM-12+003499999V02099999002619999999N0020001N9+00391+00331101791ADDAY111061GF106991999011012501001001KA1999N+00391MD1510001+9999
0051106370999991928103012004+50050+008600FM-12+003499999V0202001N00261220001CN0100001N9+01281+00611101531ADDAY111061GF102991999999022501999999MD1810201+9999
0050106370999991928103106004+50050+008600FM-12+003499999V0209999900101220001CN0020001N9+00391+00331101371ADDAY101061GF104991001001999999031021KA1999N+00391
0064106370999991928110106004+50050+008600FM-12+003499999V0209999900461030001CN0040001N9+01001+00781100371ADDAY111061GF108991041051017501021001KA1999N+00891MD1710061+9999
0043106370999991928110112004+50050+008600FM-12+003499999V0202301N00461002401CN0005001N9+01001+00941100481ADDAY161061GF108991081051002501999999MW1611
0075106370999991928110206004+50050+008600FM-12+003499999V0209999900261004501CN0020001N9+00891+00831100671ADDAA199000691AY141061GF108991081051004501999999KA1999N+00891MD1210061+9999
0037106370999991928110212004+50050+008600FM-12+003499999V0201801N00101030001CN0020001N9+01221+00781100671ADDAY121061GF107991041051008001021001
0081106370999991928110306004+50050+008600FM-12+003499999V0209991C00001220001CN0010001N9+00501+00441101171ADDAA199000391AY141061GF102991011051017501001091KA1999N+00501MD1310141+9999MW1101
0037106370999991928110312004+50050+008600FM-12+003499999V0202301N001019999999N0010001N9+01001+99999101171ADDAY161061GF106991021051012501999999
0050106370999991928110406004+50050+008600FM-12+003499999V0209991C000019999999N0020001N9+00611+00561101091ADDAY111061GF108991999051012501001001KA1999N+00501
0050106370999991928110506004+50050+008600FM-12+003499999V0209999900261220001CN0020001N9+00501+00441101101ADDAY101061GF104991011011012501001081KA1999N+00501
0057106370999991928110512004+50050+008600FM-12+003499999V0202501N001019999999N0040001N9+01001+00611101091ADDAY111061GF107991999061008001001001MD1610061+9999MW1161
0056106370999991928110606004+50050+008600FM-12+003499999V0209999900101030001CN0005001N9+00391+00331101351ADDAY141061GF106991041051002501031001KA1999N+00281MW1421
0051106370999991928110612004+50050+008600FM-12+003499999V0202501N00261220001CN0020001N9+00891+00671101301ADDAY111061GF104991999999022501999999MD1810141+9999
0064106370999991928110706004+50050+008600FM-12+003499999V0209999900261220001CN0010001N9+00111+00061101091ADDAY101061GF104991001001999999021081KA1999N+00001MD1610061+9999
0051106370999991928110712004+50050+008600FM-12+003499999V0200201N00461030001CN0040001N9+00781+00561100881ADDAY111061GF108991041051004501021001MD1810201+9999
0050106370999991928110806004+50050+008600FM-12+003499999V0209999900931220001CN0020001N9+00221+00171100431ADDAY101061GF102991011051012501021001KA1999N+00221
0051106370999991928110812004+50050+008600FM-12+003499999V0200501N00931220001CN0040001N9+00891+00281100241ADDAY111061GF107991001001999999021081MD1810201+9999
0070106370999991928110906004+50050+008600FM-12+003499999V02099999006719999999N0020001N9+00721+00501100801ADDAY121061GF108991999061008001001001KA1999N+00611MD1310201+9999MW1601
0057106370999991928110912004+50050+008600FM-12+003499999V0200201N006719999999N0010001N9+00721+00501101001ADDAY161061GF108991999061008001001001MD1310061+9999MW1601
0075106370999991928111006004+50050+008600FM-12+003499999V0209999900461220001CN0200001N9+00391+00171102031ADDAA199000691AY111061GF104991999011012501001001KA1999N+00281MD1310201+9999
0037106370999991928111012004+50050+008600FM-12+003499999V0200501N001019999999N0100001N9+00781+99999102161ADDAY111061GF106991999999012501999999
0081106370999991928111106004+50050+008600FM-12+003499999V0209999900261007801CN0020001N9+00221+00171102031ADDAA199001091AY171061GF108991081061008001999999KA1999N+00111MD1810061+9999MW1731
0051106370999991928111112004+50050+008600FM-12+003499999V0202301N00261007801CN0020001N9+00501+00441101871ADDAY171061GF108991081051008001999999MD1810061+9999
0081106370999991928111206004+50050+008600FM-12+003499999V0209999900461004501CN0010001N9+00611+00561102041ADDAA199002091AY161061GF108991081051004501999999KA1999N+00501MD1990061+9999MW1511
0057106370999991928111212004+50050+008600FM-12+003499999V0202301N00261002401CN0005001N9+00781+00721101991ADDAY161061GF108991999061002501001001MD1810141+9999MW1511
0067106370999991928111306004+50050+008600FM-12+003499999V0209999900261004501CN0005001N9+01001+00941102111ADDAA199000691AY141061GF108991081051004501999999KA1999N+00891MW1451
0057106370999991928111312004+50050+008600FM-12+003499999V0202501N001019999999N0020001N9+01111+00891102061ADDAY161061GF108991999061004501001001MD1810061+9999MW1211
0050106370999991928111406004+50050+008600FM-12+003499999V02099999001019999999N0020001N9+00891+00831101771ADDAY121061GF108991999061004501001001KA1999N+00891
0051106370999991928111412004+50050+008600FM-12+003499999V0202301N001019999999N0020001N9+01111+01061101751ADDAY121061GF108991999061002501001001MD1810061+9999
0064106370999991928111506004+50050+008600FM-12+003499999V0209999900461220001CN0020001N9+00891+00831101301ADDAY121061GF104991021051012501031001KA1999N+00781MD1810141+9999
0051106370999991928111512004+50050+008600FM-12+003499999V0201801N00671220001CN0040001N9+01111+00671100751ADDAY111061GF104991021051012501021001MD1810401+9999
0061106370999991928111606004+50050+008600FM-12+003499999V0209999900671220001CN0040001N9+01001+00941099901ADDAA199009091AY161061GF104991041051012501001001KA1999N+00891
0057106370999991928111612004+50050+008600FM-12+003499999V0202301N00461030001CN0040001N9+01001+00611099861ADDAY111061GF108991041061004501021001MD1710141+9999MW1801
0081106370999991928111706004+50050+008600FM-12+003499999V0209999900461004501CN0200001N9+01001+00781099581ADDAA199008091AY161061GF108991061061004501021001KA1999N+00891MD1210061+9999MW1211
0081106370999991928111806004+50050+008600FM-12+003499999V0209999901231220001CN0100001N9+00721+00501100881ADDAA199000391AY101061GF104991041091004501001001KA1999N+00721MD1310261+9999MW1161
0051106370999991928111812004+50050+008600FM-12+003499999V0202701N00931220001CN0500001N9+00891+00281101311ADDAY181061GF104991041091008001001001MD1210201+9999
0064106370999991928111906004+50050+008600FM-12+003499999V0209999900261030001CN0040001N9+00781+00721101991ADDAY121061GF108991021061004501021001KA1999N+00611MD1310061+9999
0051106370999991928111912004+50050+008600FM-12+003499999V0202301N00461012301CN0040001N9+01111+00891101911ADDAY111061GF107991061051012501031001MD1810141+9999
0081106370999991928112006004+50050+008600FM-12+003499999V0209999900461030001CN0010001N9+00781+00721102191ADDAA199000391AY161061GF107991041061008001021001KA1999N+00721MD1310341+9999MW1211
0051106370999991928112012004+50050+008600FM-12+003499999V0202501N00101220001CN0200001N9+01391+00721102641ADDAY101061GF102991021011012501001081MD1310201+9999
0056106370999991928112106004+50050+008600FM-12+003499999V0209991C00001220001CN0002001N9+00221+00171103221ADDAY141061GF100991001001999999001001KA1999N+00111MW1461
0057106370999991928112112004+50050+008600FM-12+003499999V0202301N00101000601CN0000501N9+00391+00331103071ADDAY141061GF108991081051000751999999MD1710141+9999MW1471
0081106370999991928112206004+50050+008600FM-12+003499999V0209999900101002401CN0005001N9+00391+00331102241ADDAA199000691AY161061GF108991999061002501001001KA1999N+00281MD1610061+9999MW1611
0057106370999991928112212004+50050+008600FM-12+003499999V0209991C000019999999N0005001N9+00721+00671102031ADDAY161061GF108991999061001501001001MD1810141+9999MW1451
0081106370999991928112306004+50050+008600FM-12+003499999V0209999900671004501CN0040001N9+01001+00941101031ADDAA199009091AY161061GF108991999061004501001001KA1999N+00891MD1710141+9999MW1211
0057106370999991928112312004+50050+008600FM-12+003499999V0202301N004619999999N0020001N9+01111+01061100591ADDAY161061GF108991999061002501001001MD1810341+9999MW1631
0075106370999991928112406004+50050+008600FM-12+003499999V02099999009319999999N0100001N9+00781+00391099771ADDAA199006091AY161061GF106991999061008001001001KA1999N+00721MD1210201+9999
0051106370999991928112412004+50050+008600FM-12+003499999V0202301N015419999999N0100001N9+00891+00441099771ADDAY121061GF108991999061008001001001MD1610141+9999
0075106370999991928112506004+50050+008600FM-12+003499999V0209999900931030001CN0040001N9+00721+00501100161ADDAA199006091AY181061GF106991021091008001021001KA1999N+00611MD1610141+9999
0092106370999991928112512004+50050+008600FM-12+003499999V0202301N01231002401CN0040001N9+00721+00671098882ADDAY161061GF108991081061002501999999MD1810862+9999MW1631EQDQ01+098883APOSLPQ02+000862APC3  
0081106370999991928112606004+50050+008600FM-12+003499999V0209999901231004501CN0040001N9+00721+00501098861ADDAA199013091AY161061GF108991999061004501001001KA1999N+00501MD1310461+9999MW1631
0057106370999991928112612004+50050+008600FM-12+003499999V0202501N009319999999N0200001N9+00721+00501099431ADDAY181061GF106991999051008001001001MD1310201+9999MW1211
0075106370999991928112706004+50050+008600FM-12+003499999V0209999900461030001CN0020001N9+00391+00171099841ADDAA199000391AY111061GF106991041051017501021001KA1999N+00391MD1710061+9999
0043106370999991928112712004+50050+008600FM-12+003499999V0202301N00461012301CN0100001N9+00721+99999099931ADDAY111061GF108991999061012501001001MW1601
0067106370999991928112806004+50050+008600FM-12+003499999V0209999900101012301CN0100001N9+00501+00281100711ADDAA199000691AY161061GF108991071051012501021001KA1999N+00281MW1211
0057106370999991928112812004+50050+008600FM-12+003499999V0203201N002619999999N0100001N9+00721+00501100961ADDAY111061GF107991999061008001001001MD1310061+9999MW1161
0064106370999991928112906004+50050+008600FM-12+003499999V0209991C00001015001CN0100001N9+00501+00281101991ADDAY121061GF106991061051017501031001KA1999N+00281MD1310261+9999
0072106370999991928112912004+50050+008600FM-12+003499999V0203201N002619999999N0200001N9+02782+02282102151ADDAY111061GF106991999051012501001001EQDQ01+030103ATOT  Q02+029603ATOD  
0064106370999991928113006004+50050+008600FM-12+003499999V0209999900671004501CN0020001N9+00221+00171102241ADDAY121061GF108991081051004501999999KA1999N+00221MD1610061+9999
0057106370999991928113012004+50050+008600FM-12+003499999V0202301N00671001501CN0020001N9+00221+00171101871ADDAY171061GF108991081061001501999999MD1810261+9999MW1711
0075106370999991928120106004+50050+008600FM-12+003499999V02099999006719999999N0040001N9+00501+00281101861ADDAA199000391AY121061GF108991999061008001001001KA1999N+00281MD1610061+9999
0051106370999991928120112004+50050+008600FM-12+003499999V0202901N00261030001CN0100001N9+00781+00721101831ADDAY111061GF107991041051012501031001MD1810061+9999
0075106370999991928120206004+50050+008600FM-12+003499999V02099999001019999999N0040001N9+00721+00501101811ADDAA199002091AY161061GF107991999061012501001001KA1999N+00611MD1410001+9999
0057106370999991928120212004+50050+008600FM-12+003499999V0203401N00261030001CN0100001N9+00781+00391101681ADDAY161061GF106991041051012501031001MD1810061+9999MW1601
0075106370999991928120306004+50050+008600FM-12+003499999V0209999900261012301CN0100001N9+00501+00281102371ADDAA199000691AY111061GF107991071051012501001001KA1999N+00281MD1310141+9999
0051106370999991928120312004+50050+008600FM-12+003499999V0209991C00001012301CN0100001N9+00611+00391102561ADDAY111061GF107991061051012501021001MD1310061+9999
0070106370999991928120406004+50050+008600FM-12+003499999V0209991C00001004501CN0005001N9+00391+00331103141ADDAY141061GF108991081051004501999999KA1999N+00281MD1310201+9999MW1451
0051106370999991928120412004+50050+008600FM-12+003499999V0202301N00101220001CN0020001N9+00611+00391103261ADDAY141061GF104991041051008001031001MD1610061+9999
0070106370999991928120506004+50050+008600FM-12+003499999V0209999900261000151CN0000001N9+00001-00061103181ADDAY141061GF108991081051000251999999KA1999N-00111MD1310061+9999MW1451
0051106370999991928120512004+50050+008600FM-12+003499999V0202301N00261004501CN0020001N9+00221+00171103011ADDAY141061GF108991061051004501021001MD1810141+9999
0086106370999991928120606004+50050+008600FM-12+003499999V0209999900261004501CN0010001N9+00281+00221102801ADDAA199000391AY161061GF108991081051004501999999KA1999N+99999MW1101EQDQ01 +01722ATMN  
0057106370999991928120612004+50050+008600FM-12+003499999V0202001N00671004501CN0010001N9+00391+00171102591ADDAY121061GF108991081051004501999999MD1810201+9999MW1101
0050106370999991928120706004+50050+008600FM-12+003499999V02099999006719999999N0020001N9+00281+00061101901ADDAY121061GF108991999061004501001001KA1999N+00221
0051106370999991928120712004+50050+008600FM-12+003499999V0202001N00671007801CN0040001N9+00391+00171102001ADDAY181061GF108991999051008001001001MD1810061+9999
0081106370999991928120806004+50050+008600FM-12+003499999V0209991C00001004501CN0005001N9+00281+00221101731ADDAA199001091AY161061GF108991999061004501001001KA1999N+00281MD1510061+9999MW1611
0057106370999991928120812004+50050+008600FM-12+003499999V0209991C00001004501CN0020001N9+00391+00331101711ADDAY161061GF108991999061004501001001MD1610061+9999MW1611
0067106370999991928120906004+50050+008600FM-12+003499999V0209999900101220001CN0010001N9-00111-00171101811ADDAA199000391AY111061GF106991001001999999021081KA1999N-00111MW1101
0037106370999991928120912004+50050+008600FM-12+003499999V0202501N00101015001CN0040001N9-00111+99999101811ADDAY121061GF108991081051017501999999
0064106370999991928121006004+50050+008600FM-12+003499999V0209999900671007801CN0020001N9-00221-00391101131ADDAY121061GF108991999051008001001001KA1999N-00281MD1810141+9999
0064106370999991928121106004+50050+008600FM-12+003499999V02099999006719999999N0040001N9+00221+00001099511ADDAY121061GF108991999051008001001001KA1999N+00111MD1810201+9999
0057106370999991928121112004+50050+008600FM-12+003499999V0200201N009319999999N0020001N9+00281+00221099321ADDAY161061GF108991999061008001001001MD1810141+9999MW1211
0075106370999991928121206004+50050+008600FM-12+003499999V0209999900261004501CN0020001N9+00111+00061099641ADDAA199001091AY171061GF108991081051004501999999KA1999N+00001MD1310141+9999
0051106370999991928121212004+50050+008600FM-12+003499999V0203601N00101007801CN0040001N9+00221+00001099871ADDAY121061GF108991081051008001999999MD1310061+9999
0081106370999991928121306004+50050+008600FM-12+003499999V0209999900461007801CN0040001N9+00111+00061100531ADDAA199000691AY171061GF108991081051008001999999KA1999N+00111MD1310201+9999MW1701
0043106370999991928121312004+50050+008600FM-12+003499999V0200201N004619999999N0040001N9+00221+00171100751ADDAY171061GF108991999061004501001001MW1711
0081106370999991928121406004+50050+008600FM-12+003499999V02099999001019999999N0020001N9-00111-00171100961ADDAA199003091AY171061GF108991999051008001001001KA1999N-00111MD1510001+9999MW1231
0043106370999991928121412004+50050+008600FM-12+003499999V0209991C000019999999N0020001N9+00111-00111100991ADDAY171061GF107991999061004501001001MW1231
0081106370999991928121506004+50050+008600FM-12+003499999V0209991C00001004501CN0020001N9-00221-00281101631ADDAA199003091AY171061GF108991999061004501001001KA1999N-00281MD1310201+9999MW1231
0057106370999991928121512004+50050+008600FM-12+003499999V0200201N002619999999N0010001N9-00111-00171102081ADDAY171061GF108991999061004501001001MD1310201+9999MW1711
0064106370999991928121606004+50050+008600FM-12+003499999V0209999900261007801CN0020001N9-00891-00941103491ADDAY111061GF107991071051008001001001KA1999N-01001MD1310141+9999
0057106370999991928121612004+50050+008600FM-12+003499999V0203601N00101004501CN0005001N9-00391-00441103411ADDAY121061GF108991081051004501999999MD1810061+9999MW1471
0064106370999991928121706004+50050+008600FM-12+003499999V0209991C00001004501CN0020001N9-00281-00331102341ADDAY121061GF108991081051004501999999KA1999N-00391MD1810201+9999
0051106370999991928121712004+50050+008600FM-12+003499999V0202001N002619999999N0020001N9-00111-00171102101ADDAY171061GF108991999061004501001001MD1810141+9999
0081106370999991928121806004+50050+008600FM-12+003499999V0209999900101002401CN0005001N9-00111-00171102571ADDAA199001091AY171061GF108991081051002501999999KA1999N-00221MD1310141+9999MW1631
0057106370999991928121812004+50050+008600FM-12+003499999V0209991C00001004501CN0005001N9+00001-00061102871ADDAY171061GF108991081051004501999999MD1310061+9999MW1701
0064106370999991928121906004+50050+008600FM-12+003499999V0209999900261007801CN0020001N9-00221-00281103401ADDAY121061GF108991081051008001999999KA1999N-00221MD1310141+9999
0051106370999991928121912004+50050+008600FM-12+003499999V0200501N00261030001CN0020001N9-00111-00171103411ADDAY121061GF108991041051008001021001MD1810061+9999
0064106370999991928122006004+50050+008600FM-12+003499999V0209999900461007801CN0020001N9-00501-00561103031ADDAY141061GF106991061051008001001001KA1999N-00611MD1810061+9999
0051106370999991928122012004+50050+008600FM-12+003499999V0201401N00461030001CN0040001N9-00281-00331102801ADDAY111061GF106991041051008001021001MD1810141+9999
0064106370999991928122106004+50050+008600FM-12+003499999V02099999004619999999N0020001N9-00391-00441102601ADDAY121061GF108991999061004501001001KA1999N-00501MD1310061+9999
0037106370999991928122112004+50050+008600FM-12+003499999V0209991C00001007801CN0040001N9-00391-00561102751ADDAY121061GF108991081051008001999999
0075106370999991928122206004+50050+008600FM-12+003499999V0209999900101004501CN0020001N9-00501-00561102951ADDAA199000691AY121061GF108991999061004501001001KA1999N-00611MD1110061+9999
0043106370999991928122212004+50050+008600FM-12+003499999V0202001N002619999999N0020001N9-00391-00561103071ADDAY171061GF108991999061002501001001MW1711
0081106370999991928122306004+50050+008600FM-12+003499999V0209999900261004501CN0020001N9-00221-00281103041ADDAA199000691AY171061GF108991081051004501999999KA1999N-00281MD1610061+9999MW1701
0051106370999991928122312004+50050+008600FM-12+003499999V0201801N002619999999N0040001N9+00111+00061102961ADDAY171061GF108991999061004501001001MD1810061+9999
0064106370999991928122406004+50050+008600FM-12+003499999V0209999900101004501CN0020001N9+00001-00221103321ADDAY121061GF108991081051004501999999KA1999N-00111MD1210061+9999
0051106370999991928122412004+50050+008600FM-12+003499999V0202001N00101004501CN0020001N9+00111-00111103271ADDAY121061GF108991081051004501999999MD1610141+9999
0064106370999991928122506004+50050+008600FM-12+003499999V02099999006719999999N0020001N9+00001-00061102611ADDAY121061GF108991999061004501001001KA1999N-00111MD1610061+9999
0081106370999991928122606004+50050+008600FM-12+003499999V0209999900931002401CN0020001N9+00391+00331102231ADDAA199001091AY161061GF108991081061002501999999KA1999N+00221MD1610201+9999MW1601
0057106370999991928122612004+50050+008600FM-12+003499999V0202301N00671004501CN0020001N9+00721+00671101761ADDAY161061GF108991999061004501001001MD1710201+9999MW1211
0075106370999991928122706004+50050+008600FM-12+003499999V0209999900671030001CN0040001N9+00501+00111102101ADDAA199001091AY161061GF106991041051012501031001KA1999N+00391MD1310261+9999
0037106370999991928122712004+50050+008600FM-12+003499999V0202501N006719999999N0040001N9+00611+99999102161ADDAY111061GF106991999999012501999999
0081106370999991928122806004+50050+008600FM-12+003499999V0209991C00001004501CN0005001N9+00221+00171101581ADDAA199002091AY171061GF108991999061004501001001KA1999N+00111MD1810201+9999MW1681
0057106370999991928122812004+50050+008600FM-12+003499999V0200501N00461004501CN0005001N9+00221+00171101031ADDAY161061GF108991081061004501999999MD1810401+9999MW1631
0081106370999991928122906004+50050+008600FM-12+003499999V0209999900261002401CN0005001N9+00281+00221101181ADDAA199004091AY161061GF108991999061002501001001KA1999N+00221MD1310061+9999MW1451
0051106370999991928122912004+50050+008600FM-12+003499999V0202301N002619999999N0040001N9+00721+00671101001ADDAY141061GF108991999061008001001001MD1810061+9999
0081106370999991928123006004+50050+008600FM-12+003499999V0209999900261030001CN0040001N9+00501+00441100191ADDAA199000391AY181061GF108991041061004501021001KA1999N+00391MD1810141+9999MW1601
0051106370999991928123012004+50050+008600FM-12+003499999V0201601N00261030001CN0040001N9+00611+00391099541ADDAY161061GF106991021051008001021001MD1810401+9999
0061106370999991928123106004+50050+008600FM-12+003499999V0209999900101030001CN0020001N9+00111+00061099871ADDAA199001091AY141061GF106991041051008001021001KA1999N+00001
0037106370999991928123112004+50050+008600FM-12+003499999V0200201N00461030001CN0010001N9+00221+00171099981ADDAY141061GF108991041051004501021001
