0050106350999991926050106004+50217+008450FM-12+024499999V0209999900671220001CN0200001N9+01391+00501999999ADDAY121061GF108991001001999999021999KA1999N+01281
0070106350999991926050206004+50217+008450FM-12+024499999V02099999006719999999N0000501N9+00891+00831999999ADDAY141061GF108991081051999999999999KA1999N+00891MD1510001+9999MW1441
0067106350999991926050306004+50217+008450FM-12+024499999V02099999004619999999N0000501N9+00221+00171999999ADDAA199018091AY161061GF108991081051999999999999KA1999N+00221MW1451
0067106350999991926050406004+50217+008450FM-12+024499999V0209999901541220001CN0500001N9+00221+00001999999ADDAA199001091AY181061GF108991001001999999021999KA1999N+00111MW1841
0064106350999991926050506004+50217+008450FM-12+024499999V0209999900101220001CN0200001N9+00611+00001999999ADDAY111061GF106991001001999999031999KA1999N+00281MD1310061+9999
0067106350999991926050606004+50217+008450FM-12+024499999V02099999004619999999N0000001N9+00281+00221999999ADDAA199000391AY161061GF108991081051999999999999KA1999N+00281MW1461
0081106350999991926050706004+50217+008450FM-12+024499999V02099999006719999999N0000501N9-00221-00281999999ADDAA199000691AY141061GF108991081051999999999999KA1999N-00221MD1310141+9999MW1431
0067106350999991926050806004+50217+008450FM-12+024499999V0209991C00001004501CN0002001N9+00111+00061999999ADDAA199001091AY171061GF108991061061004501021999KA1999N+00001MW1851
0050106350999991926051006004+50217+008450FM-12+024499999V0209999900101220001CN0200001N9+00221+00001999999ADDAY101061GF101991011011012501001999KA1999N-00111
0081106350999991926051106004+50217+008450FM-12+024499999V0209999900261015001CN0040001N9+00391+00001999999ADDAA199000691AY121061GF108991061061017501021999KA1999N+00221MD1310141+9999MW1601
0050106350999991926051206004+50217+008450FM-12+024499999V0209999900461021001CN0100001N9+00781+00391999999ADDAY111061GF106991061051022501001999KA1999N+00391
0067106350999991926051306004+50217+008450FM-12+024499999V02099999002619999999N0000501N9+00611+00561999999ADDAA199000391AY141061GF108991081051999999999999KA1999N+00501MW1451
0081106350999991926051406004+50217+008450FM-12+024499999V0209999900101012301CN0200001N9+00611+00561999999ADDAA124999999AY111061GF107991061061012501021999KA1999N+00391MD1310061+9999MW1211
0081106350999991926051506004+50217+008450FM-12+024499999V0209999900261000151CN0002001N9+00501+00441999999ADDAA199005091AY161061GF108991081061000251999999KA1999N+00391MD1610061+9999MW1611
0081106350999991926051606004+50217+008450FM-12+024499999V02099999009319999999N0000501N9+00391+00331999999ADDAA199008091AY161061GF108991081061999999999999KA1999N+00391MD1310401+9999MW1611
0075106350999991926051806004+50217+008450FM-12+024499999V0209999900671007801CN0040001N9+00111+00061999999ADDAA199000591AY141061GF108991071051008001021001KA1999N+00001MD1310061+9999
0075106350999991926051906004+50217+008450FM-12+024499999V0209991C00001030001CN0100001N9+00391+00171999999ADDAA199000691AY111061GF106991041011008001031001KA1999N+00111MD1310061+9999
0037106350999991926052006004+50217+008450FM-12+024499999V0209999900101220001CN0040001N9+00781+00171999999ADDAY101061GF102991021011017501001999
0050106350999991926052106004+50217+008450FM-12+024499999V0209999900261220001CN0040001N9+00781+00561999999ADDAY111061GF104991041051017501001999KA1999N+00721
0037106350999991926052206004+50217+008450FM-12+024499999V0209999900461030001CN0200001N9+01111+00671999999ADDAY111061GF107991041051017501031999
0070106350999991926052306004+50217+008450FM-12+024499999V02099999004619999999N0000501N9+00721+00671999999ADDAY141061GF108991081051999999999999KA1999N+00611MD1310141+9999MW1451
0051106350999991926052406004+50217+008450FM-12+024499999V0209999900671007801CN0100001N9+00281+00221999999ADDAY141061GF106991061051008001001999MD1310141+9999
0037106350999991926052506004+50217+008450FM-12+024499999V0209999900671220001CN0100001N9+00501-00281999999ADDAY101061GF101991001001999999001999
0050106350999991926052606004+50217+008450FM-12+024499999V0209999900101220001CN0040001N9+00891+00671999999ADDAY101061GF101991011051008001001999KA1999N+00501
0050106350999991926052706004+50217+008450FM-12+024499999V0209999900261220001CN0100001N9+01281+00391999999ADDAY101061GF101991001001999999001999KA1999N+00891
0057106350999991926052806004+50217+008450FM-12+024499999V0209999900461000151CN0002001N9+00611+00561999999ADDAY141061GF108991081051000251999999MD1310061+9999MW1471
0056106350999991926053006004+50217+008450FM-12+024499999V02099999002619999999N0000501N9+01001+00941999999ADDAY141061GF108991081051999999999999KA1999N+00891MW1451
0061106350999991926053106004+50217+008450FM-12+024499999V0209999900671012301CN0100001N9+01001-00391999999ADDAA199000591AY141061GF106991061051012501001999KA1999N+00891
0057106350999991926060106004+50217+008450FM-12+024499999V0209999900101007801CN0005001N9+00611+00561999999ADDAY141061GF108991081051008001999999MD1310141+9999MW1431
0051106350999991926060206004+50217+008450FM-12+024499999V0209999900931220001CN0500001N9+01001+00611999999ADDAY101061GF102991001001999999001999MD1810141+9999
0056106350999991926060406004+50217+008450FM-12+024499999V02099999012319999999N0000501N9+00721+00671999999ADDAY141061GF108991081051999999999999KA1999N+00611MW1451
0061106350999991926060506004+50217+008450FM-12+024499999V0209991C00001030001CN0100001N9+01111+01061999999ADDAA199000691AY111061GF107991041011012501031999KA1999N+00721
0050106350999991926060606004+50217+008450FM-12+024499999V0209999900261075001CN0040001N9+00891+00831999999ADDAY111061GF106991041051022501001021KA1999N+00781
0067106350999991926060706004+50217+008450FM-12+024499999V0209999900101007801CN0000501N9+00891+00831999999ADDAA199000691AY121061GF108991081061008001999999KA1999N+00721MW1511
0081106350999991926060806004+50217+008450FM-12+024499999V02099999006719999999N0000501N9+01001+00941999999ADDAA199008091AY141061GF108991081051999999999999KA1999N+00891MD1310061+9999MW1451
0067106350999991926060906004+50217+008450FM-12+024499999V0209999900101007801CN0000501N9+00781+00721999999ADDAA199001091AY141061GF108991081051008001999999KA1999N+00721MW1451
0057106350999991926061006004+50217+008450FM-12+024499999V0209999900461007801CN0000001N9+00891+00831999999ADDAY161061GF108991081051008001999999MD1310061+9999MW1451
0067106350999991926061106004+50217+008450FM-12+024499999V02099999004619999999N0000501N9+00611+00561999999ADDAA199000391AY141061GF108991081051999999999999KA1999N+00501MW1451
0081106350999991926061206004+50217+008450FM-12+024499999V0209999900101007801CN0010001N9+00721+00671999999ADDAA199010091AY141061GF107991071051008001001001KA1999N+00611MD1310141+9999MW1101
0057106350999991926061306004+50217+008450FM-12+024499999V0209999900261007801CN0000001N9+01111+01061999999ADDAY161061GF108991071061008001001999MD1610061+9999MW1631
0037106350999991926061406004+50217+008450FM-12+024499999V0209999900461220001CN0100001N9+00721+00671999999ADDAY111061GF104991021011012501001021
0064106350999991926061506004+50217+008450FM-12+024499999V0209999900461220001CN0040001N9+00781+00561999999ADDAY101061GF104991041051017501001021KA1999N+00721MD1310141+9999
0081106350999991926061606004+50217+008450FM-12+024499999V0209999900461007801CN0005001N9+00781+00721999999ADDAA199002091AY141061GF107991071051008001001001KA1999N+00721MD1310061+9999MW1451
0067106350999991926061706004+50217+008450FM-12+024499999V0209991C00001007801CN0000501N9+01001+00941999999ADDAA199002091AY141061GF108991081051008001999999KA1999N+00891MW1451
0081106350999991926061806004+50217+008450FM-12+024499999V0209999900101007801CN0002001N9+00781+00721999999ADDAA199016091AY161061GF108991081061008001999999KA1999N+00721MD1810061+9999MW1631
0081106350999991926061906004+50217+008450FM-12+024499999V0209999901231007801CN0005001N9+00891+00831999999ADDAA199010091AY141061GF108991081051008001999999KA1999N+00781MD1310261+9999MW1431
0064106350999991926062006004+50217+008450FM-12+024499999V0209999900101220001CN0040001N9+00891+00831999999ADDAY101061GF104991999001999999031001KA1999N+00611MD1310061+9999
0037106350999991926062106004+50217+008450FM-12+024499999V0209999900261220001CN0010001N9+01501+01061999999ADDAY101061GF102991011011017501021001
0064106350999991926062206004+50217+008450FM-12+024499999V0209999900261007801CN0040001N9+01611+01561999999ADDAY111061GF107991071051008001001001KA1999N+01391MD1810061+9999
0050106350999991926062306004+50217+008450FM-12+024499999V0209999900261220001CN0200001N9+01001+00611999999ADDAY101061GF107991999001999999031001KA1999N+00721
0064106350999991926062406004+50217+008450FM-12+024499999V0209999900671007801CN0040001N9+00721+00671999999ADDAY141061GF108991081051008001999999KA1999N+00721MD1610401+9999
0064106350999991926062506004+50217+008450FM-12+024499999V0209999900461220001CN0200001N9+00611+00561999999ADDAY101061GF104991041011012501001999KA1999N+00391MD1310061+9999
0061106350999991926062606004+50217+008450FM-12+024499999V0209999900461220001CN0100001N9+00721+00501999999ADDAA199001091AY111061GF104991041011012501001001KA1999N+00391
0050106350999991926062706004+50217+008450FM-12+024499999V0209991C00001220001CN0100001N9+00891+00671999999ADDAY101061GF104991041011012501001999KA1999N+00611
0064106350999991926062806004+50217+008450FM-12+024499999V0209999900461220001CN0200001N9+00781+00561999999ADDAY111061GF104991021011017501031999KA1999N+00721MD1310061+9999
0050106350999991926062906004+50217+008450FM-12+024499999V0209999900101220001CN0100001N9+01111+00671999999ADDAY101061GF101991011051017501001999KA1999N+00721
0050106350999991926063006004+50217+008450FM-12+024499999V0209999900261220001CN0100001N9+01221+00781999999ADDAY101061GF101991011011017501001999KA1999N+00781
0064106350999991926070106004+50217+008450FM-12+024499999V02099999004619999999N0200001N9+99999+99999999999ADDAY111061GF107991011051022501001999KA1999N+00891MD1810061+9999
0050106350999991926070206004+50217+008450FM-12+024499999V0209999900461021001CN0200001N9+01281+01061999999ADDAY111061GF107991061051022501001999KA1999N+00891
0050106350999991926070306004+50217+008450FM-12+024499999V0209999900461220001CN0200001N9+01721+01061999999ADDAY101061GF102991001001999999001021KA1999N+01281
0064106350999991926070406004+50217+008450FM-12+024499999V0209999900101007801CN0040001N9+01611+01561999999ADDAY121061GF108991081051008001999999KA1999N+01391MD1810061+9999
0050106350999991926070606004+50217+008450FM-12+024499999V02099999002619999999N0040001N9+01391+01171999999ADDAY111061GF106991021011012501001999KA1999N+01221
0081106350999991926070706004+50217+008450FM-12+024499999V0209999900101015001CN0040001N9+01391+01171999999ADDAA199000591AY161061GF108991081061017501999999KA1999N+01281MD1310061+9999MW1611
0081106350999991926070806004+50217+008450FM-12+024499999V0209999900461012301CN0200001N9+01281+01221999999ADDAA199009091AY161061GF108991081061012501999999KA1999N+01281MD1310061+9999MW1611
0057106350999991926070906004+50217+008450FM-12+024499999V0209999900101000151CN0000001N9+01391+01331999999ADDAY141061GF108991081051000251999999MD1310061+9999MW1451
0075106350999991926071006004+50217+008450FM-12+024499999V0209999900461220001CN0100001N9+01111+01061999999ADDAA199000591AY111061GF104991021011012501031999KA1999N+00891MD1310061+9999
0056106350999991926071106004+50217+008450FM-12+024499999V02099999004619999999N0000501N9+00891+00831999999ADDAY161061GF108991081051999999999999KA1999N+00781MW1451
0064106350999991926071206004+50217+008450FM-12+024499999V0209999900461220001CN0100001N9+01221+01171999999ADDAY121061GF104991041051008001001001KA1999N+01111MD1310061+9999
0050106350999991926071306004+50217+008450FM-12+024499999V0209999900461220001CN0040001N9+01501+01281999999ADDAY101061GF100991001001999999001999KA1999N+01281
0037106350999991926071406004+50217+008450FM-12+024499999V0209999900461220001CN0100001N9+01891+01441999999ADDAY101061GF100991001001999999001999
0037106350999991926071506004+50217+008450FM-12+024499999V0209999900101220001CN0100001N9+02221+01561999999ADDAY111061GF104991999001999999031001
0081106350999991926071606004+50217+008450FM-12+024499999V0209999900671007801CN0005001N9+01501+01441999999ADDAA199000391AY141061GF106991061051008001001001KA1999N+01501MD1310061+9999MW1421
0064106350999991926071706004+50217+008450FM-12+024499999V0209999900101220001CN0200001N9+01611+00941999999ADDAY101061GF101991001001999999021999KA1999N+01221MD1310061+9999
0050106350999991926071806004+50217+008450FM-12+024499999V0209999900261220001CN0100001N9+01891+00941999999ADDAY101061GF100991001001999999001999KA1999N+01611
0037106350999991926071906004+50217+008450FM-12+024499999V0209999900461220001CN0100001N9+02001+01561999999ADDAY111061GF104991021051017501001999
0067106350999991926072006004+50217+008450FM-12+024499999V0209999900461007801CN0000501N9+01281+01221999999ADDAA199001091AY141061GF108991081051008001999999KA1999N+01281MW1451
0081106350999991926072106004+50217+008450FM-12+024499999V0209999900671007801CN0000501N9+01001+00941999999ADDAA199007091AY141061GF108991081051008001999999KA1999N+01001MD1310141+9999MW1451
0081106350999991926072206004+50217+008450FM-12+024499999V0209999900931007801CN0000501N9+01001+00941999999ADDAA199007091AY141061GF108991081051008001999999KA1999N+01001MD1310141+9999MW1451
0050106350999991926072306004+50217+008450FM-12+024499999V0209999900461007801CN0100001N9+01001+00941999999ADDAY121061GF108991081051008001999999KA1999N+00781
0064106350999991926072406004+50217+008450FM-12+024499999V0209999900671220001CN0100001N9+01391+01171999999ADDAY101061GF104991001001999999001999KA1999N+01111MD1810061+9999
0043106350999991926072506004+50217+008450FM-12+024499999V0209999900671015001CN0040001N9+01391+01331999999ADDAY121061GF108991081061017501999999MW1611
0081106350999991926072606004+50217+008450FM-12+024499999V0209999900461007801CN0010001N9+00891+00831999999ADDAA199000391AY111061GF108991081051008001999999KA1999N+00781MD1310061+9999MW1101
0051106350999991926072706004+50217+008450FM-12+024499999V0209999900671007801CN0100001N9+00721+00671999999ADDAY141061GF107991071051008001001001MD1310061+9999
0057106350999991926072806004+50217+008450FM-12+024499999V0209999900671004501CN0000001N9+00611+00561999999ADDAY141061GF108991081051004501999999MD1310061+9999MW1451
0067106350999991926072906004+50217+008450FM-12+024499999V02099999006719999999N0000501N9+00721+00671999999ADDAA199006091AY141061GF108991081051999999999999KA1999N+00721MW1451
0081106350999991926073006004+50217+008450FM-12+024499999V02099999012319999999N0000501N9+00781+00721999999ADDAA199001091AY141061GF108991081051999999999999KA1999N+00721MD1310061+9999MW1451
0081106350999991926073106004+50217+008450FM-12+024499999V02099999012319999999N0000501N9+00891+00831999999ADDAA199002091AY161061GF108991081051999999999999KA1999N+00781MD1310061+9999MW1451
0043106350999991926080106004+50217+008450FM-12+024499999V0209999900461000151CN0000001N9+00001-00061999999ADDAY141061GF108991081051000251999999MW1451
0043106350999991926080206004+50217+008450FM-12+024499999V0209999900461000151CN0005001N9+00891+00831999999ADDAY141061GF108991081051000251999999MW1451
0037106350999991926080306004+50217+008450FM-12+024499999V0209999900101030001CN0200001N9+01281+00831999999ADDAY111061GF106991011051017501031999
0051106350999991926080406004+50217+008450FM-12+024499999V0209999900101030001CN0200001N9+01391+00721999999ADDAY111061GF106991021051017501031999MD1310061+9999
0051106350999991926080506004+50217+008450FM-12+024499999V0209999900461220001CN0100001N9+01001+00941999999ADDAY101061GF101991011011012501001999MD1310061+9999
0037106350999991926080606004+50217+008450FM-12+024499999V02099999001019999999N0040001N9+01221+01171999999ADDAY111061GF106991041051022501001999
0043106350999991926080706004+50217+008450FM-12+024499999V0209999900461007801CN0020001N9+01001+00941999999ADDAY121061GF108991081061008001999999MW1601
0051106350999991926080806004+50217+008450FM-12+024499999V0209991C00001012301CN0040001N9+00781+00721999999ADDAY111061GF106991061011012501001999MD1310141+9999
0051106350999991926080906004+50217+008450FM-12+024499999V0209999900101220001CN0040001N9+01281+01061999999ADDAY101061GF102991011011012501001021MD1310061+9999
0037106350999991926081006004+50217+008450FM-12+024499999V0209999900461220001CN0200001N9+01391+00941999999ADDAY101061GF100991001001999999001999
0051106350999991926081106004+50217+008450FM-12+024499999V0209999900461220001CN0100001N9+01391+01171999999ADDAY121061GF108991999001999999021001MD1810061+9999
0037106350999991926081206004+50217+008450FM-12+024499999V0209999900671007801CN0100001N9+00891+00831999999ADDAY141061GF107991071051008001001001
0037106350999991926081306004+50217+008450FM-12+024499999V0209999900101220001CN0100001N9+01001+00781999999ADDAY101061GF101991999001999999021001
0037106350999991926081406004+50217+008450FM-12+024499999V0209999900261220001CN0200001N9+01501+01061999999ADDAY111061GF104991011051022501031001
0051106350999991926081506004+50217+008450FM-12+024499999V0209999900261220001CN0040001N9+01281+01221999999ADDAY141061GF101991011011012501001001MD1310141+9999
0037106350999991926081606004+50217+008450FM-12+024499999V0209999900461220001CN0040001N9+01501+01281999999ADDAY101061GF102991999001999999021001
0037106350999991926081706004+50217+008450FM-12+024499999V0209999900261220001CN0100001N9+01781+01331999999ADDAY101061GF101991001001999999001081
0057106350999991926081806004+50217+008450FM-12+024499999V0209999900261007801CN0002001N9+01281+01221999999ADDAY141061GF108991081051008001999999MD1310061+9999MW1431
0051106350999991926081906004+50217+008450FM-12+024499999V0209999900461220001CN0040001N9+01111+00891999999ADDAY101061GF104991021011012501001021MD1310141+9999
0051106350999991926082006004+50217+008450FM-12+024499999V0209999900261220001CN0100001N9+01281+01061999999ADDAY101061GF102991011011017501001021MD1310061+9999
0057106350999991926082106004+50217+008450FM-12+024499999V0209999900671220001CN0000001N9+01221+01171999999ADDAY161061GF104991041061000251001001MD1810141+9999MW1631
0051106350999991926082206004+50217+008450FM-12+024499999V0209999900671030001CN0200001N9+01111+01061999999ADDAY141061GF107991041051008001031001MD1310141+9999
0043106350999991926082306004+50217+008450FM-12+024499999V0209999900671000151CN0000001N9+00891+00831999999ADDAY141061GF108991081051000251999999MW1461
0051106350999991926082406004+50217+008450FM-12+024499999V0209999900461220001CN0100001N9+01281+01061999999ADDAY101061GF100991001001999999001001MD1810061+9999
0037106350999991926082506004+50217+008450FM-12+024499999V0209999900101220001CN0040001N9+01391+01331999999ADDAY121061GF104991041051012501001001
0037106350999991926082606004+50217+008450FM-12+024499999V0209999900461075001CN0040001N9+01391+01171999999ADDAY111061GF106991041061017501001021
0051106350999991926082706004+50217+008450FM-12+024499999V0209999900671220001CN0100001N9+00721+00671999999ADDAY141061GF104991021011012501001999MD1310201+9999
0051106350999991926082806004+50217+008450FM-12+024499999V0209999900461220001CN0100001N9+00891+00671999999ADDAY101061GF101991011011017501001999MD1110061+9999
0057106350999991926082906004+50217+008450FM-12+024499999V0209999900671220001CN0040001N9+00891+00831999999ADDAY101061GF104991041051008001001999MD1310061+9999MW1461
0051106350999991926083006004+50217+008450FM-12+024499999V0209999901541220001CN0100001N9+01221+00781999999ADDAY101061GF101991001001999999001999MD1810061+9999
0037106350999991926083106004+50217+008450FM-12+024499999V0209999900461220001CN0100001N9+01391+00721999999ADDAY101061GF101991001001999999031999
0050106350999991926090106004+50217+008450FM-12+024499999V0209999900101220001CN0040001N9+02001+01331999999ADDAY101061GF101991001001999999001021KA1999N+01391
0050106350999991926090306004+50217+008450FM-12+024499999V0209999900101220001CN0100001N9+01781+01721999999ADDAY101061GF102991001001999999021081KA1999N+01781
0075106350999991926090406004+50217+008450FM-12+024499999V0209991C00001220001CN0100001N9+01781+01111999999ADDAA199000391AY101061GF102991999001999999031001KA1999N+01501MD1310061+9999
0050106350999991926090506004+50217+008450FM-12+024499999V0209999900261220001CN0040001N9+01611+01561999999ADDAY101061GF100991001001999999001001KA1999N+01501
0050106350999991926090606004+50217+008450FM-12+024499999V0209999900101220001CN0040001N9+01391+01331999999ADDAY101061GF102991001001999999001021KA1999N+01281
0056106350999991926090706004+50217+008450FM-12+024499999V0209999900461007801CN0000501N9+01281+01221999999ADDAY141061GF108991081051008001999999KA1999N+01281MW1451
0081106350999991926090806004+50217+008450FM-12+024499999V02099999009319999999N0000501N9+01221+01171999999ADDAA199002091AY161061GF108991081061999999999999KA1999N+01221MD1310061+9999MW1451
0081106350999991926091306004+50217+008450FM-12+024499999V0209999900461000151CN0005001N9+00721+00671999999ADDAA199002091AY141061GF107991071051000251001001KA1999N+00721MD1310141+9999MW1441
0050106350999991926091406004+50217+008450FM-12+024499999V0209999900461000601CN0040001N9+00721+00671999999ADDAY111061GF107991071051000751001001KA1999N+00611
0043106350999991926091506004+50217+008450FM-12+024499999V0209999900461000151CN0000001N9+00891+00831999999ADDAY141061GF108991081051000251999999MW1451
0064106350999991926091606004+50217+008450FM-12+024499999V0209999900461075001CN0040001N9+01001+00941999999ADDAY111061GF106991041051001501001021KA1999N+00891MD1310141+9999
0050106350999991926092106004+50217+008450FM-12+024499999V0209999900101220001CN0040001N9+01721+01281999999ADDAY101061GF100991001001999999001001KA1999N+01501
0056106350999991926092206004+50217+008450FM-12+024499999V0209999900461000151CN0000501N9+01221+01171999999ADDAY141061GF108991081051000251999999KA1999N+01001MW1451
0056106350999991926092306004+50217+008450FM-12+024499999V0209999900931000151CN0000501N9+00501-00111999999ADDAY141061GF108991081051000251999999KA1999N+00501MW1451
0064106350999991926092406004+50217+008450FM-12+024499999V0209991C00001030001CN0100001N9+00721+00501999999ADDAY121061GF107991041051004501021001KA1999N+00611MD1610061+9999
0075106350999991926092606004+50217+008450FM-12+024499999V0209999900461220001CN0200001N9+00391+00171999999ADDAA199000691AY101061GF102991001001999999001081KA1999N+00281MD1310141+9999
0050106350999991926092706004+50217+008450FM-12+024499999V0209999900461220001CN0040001N9+00501+00441999999ADDAY111061GF104991041051008001001001KA1999N+00391
0051106350999991926093006004+50217+008450FM-12+024499999V0209999900261220001CN0100001N9+00501+00441999999ADDAY111061GF104991999011004501001001MD1310141+9999
0067106350999991926100106004+50217+008450FM-12+024499999V0209999900461000151CN0020001N9+00391+00331999999ADDAA199000391AY161061GF108991081061000251999999KA1999N+00391MW1611
0050106350999991926100206004+50217+008450FM-12+024499999V0209999900461001501CN0040001N9+00721+00671999999ADDAY121061GF108991081051001501999999KA1999N+00391
0064106350999991926100306004+50217+008450FM-12+024499999V0209999900461012301CN0100001N9+00781+00721999999ADDAY111061GF106991061051012501001001KA1999N+00721MD1310141+9999
0080106350999991926100406004+50217+008450FM-12+024499999V0209999900461015001CN0000001N9+00781+00561999999ADDAA199066091AY121061GF106991999051017501999999KA1999N+99999EQDQ01 +02722ATMN  
0075106350999991926100506004+50217+008450FM-12+024499999V0209999900671000151CN0000501N9+00611+00561999999ADDAY141061GF108991081051000251999999KA1999N+99999MW1651EQDQ01 +00722ATMN  
0064106350999991926100606004+50217+008450FM-12+024499999V0209999901231220001CN0040001N9+00721+00671999999ADDAY101061GF102991021051000751001001KA1999N+00721MD1610061+9999
0051106350999991926100706004+50217+008450FM-12+024499999V0209999900461015001CN0100001N9+01281+00111999999ADDAY111061GF106991061051017501001001MD1810061+9999
0067106350999991926100806004+50217+008450FM-12+024499999V0209999900261000151CN0000501N9+00891+00831999999ADDAA199004091AY141061GF108991081051000251999999KA1999N+00891MW1451
0070106350999991926100906004+50217+008450FM-12+024499999V0209999900931000151CN0000501N9+01001+00941999999ADDAY141061GF108991081051000251999999KA1999N+00891MD1810061+9999MW1451
0075106350999991926101006004+50217+008450FM-12+024499999V0209999901231004501CN0200001N9+00391+00171999999ADDAA199007091AY111061GF106991061051004501001001KA1999N+00281MD1310201+9999
0075106350999991926101106004+50217+008450FM-12+024499999V0209999900461220001CN0100001N9+00221+00171999999ADDAA199000591AY101061GF102991021051000251001021KA1999N+00221MD1310141+9999
0081106350999991926101206004+50217+008450FM-12+024499999V0209999901541000151CN0000501N9+00781+00721999999ADDAA199002091AY161061GF108991081051000251999999KA1999N+00281MD1510001+9999MW1451
0081106350999991926101306004+50217+008450FM-12+024499999V0209999901901000151CN0000501N9+01111+01061999999ADDAA199003091AY161061GF108991081051000251999999KA1999N+00721MD1810061+9999MW1451
0056106350999991926101406004+50217+008450FM-12+024499999V0209999900671000151CN0000501N9+00611+00561999999ADDAY141061GF108991081051000251999999KA1999N+00501MW1451
0070106350999991926101506004+50217+008450FM-12+024499999V0209999900671000151CN0002001N9+01001+00941999999ADDAY141061GF108991081051000251999999KA1999N+00891MD1510001+9999MW1451
0050106350999991926101606004+50217+008450FM-12+024499999V0209999900931000151CN0200001N9+01111+01061999999ADDAY121061GF108991081051000251999999KA1999N+00891
0067106350999991926101706004+50217+008450FM-12+024499999V0209999900101000151CN0000501N9+00391+00331999999ADDAA199008091AY161061GF108991081051000251999999KA1999N+00221MW1441
0070106350999991926101806004+50217+008450FM-12+024499999V0209999900461000151CN0000501N9+00001-00061999999ADDAY141061GF108991081051000251999999KA1999N+00001MD1310141+9999MW1451
0100106350999991926101906004+50217+008450FM-12+024499999V0209999900101000151CN0000501N9-00281-00331999999ADDAA199006091AY141061GF106991061051000251001001KA1999N+99999MD1310141+9999MW1451EQDQ01 +02002ATMN  
0064106350999991926102006004+50217+008450FM-12+024499999V0209999900101030001CN0200001N9+00001-00061999999ADDAY121061GF108991021051008001021001KA1999N-00221MD1610141+9999
0064106350999991926102106004+50217+008450FM-12+024499999V0209999900671220001CN0100001N9-00111-00171999999ADDAY121061GF108991999001999999021001KA1999N-00221MD1810141+9999
0056106350999991926102306004+50217+008450FM-12+024499999V0209999900931000151CN0000501N9-00221-00281999999ADDAY141061GF108991081051000251999999KA1999N-01221MW1451
0061106350999991926102406004+50217+008450FM-12+024499999V0209999901541220001CN0020001N9+00781-01561999999ADDAA199070091AY181061GF101991999051000251031001KA1999N-02001
0081106350999991926102506004+50217+008450FM-12+024499999V0209999901541000151CN0000501N9-00221-00281999999ADDAA199002091AY141061GF108991081061000251999999KA1999N-00281MD1810341+9999MW1711
0067106350999991926102606004+50217+008450FM-12+024499999V0209999900461000151CN0000501N9+00111+00061999999ADDAA199006091AY171061GF108991081051000251999999KA1999N-00111MW1451
0081106350999991926102706004+50217+008450FM-12+024499999V0209999900461000151CN0000501N9-00111-00171999999ADDAA199000391AY141061GF108991081051000251999999KA1999N-00111MD1310341+9999MW1451
0064106350999991926102806004+50217+008450FM-12+024499999V0209999902261220001CN0200001N9-00221-00391999999ADDAY111061GF107991999001999999021001KA1999N-00221MD1810261+9999
0081106350999991926102906004+50217+008450FM-12+024499999V0209999900461000151CN0000501N9+00501+00441999999ADDAA199021091AY141061GF108991081051000251999999KA1999N+00221MD1510001+9999MW1451
0081106350999991926103006004+50217+008450FM-12+024499999V0209999900461000151CN0000501N9+00611+00561999999ADDAA199003091AY161061GF108991081061000251999999KA1999N+00501MD1310201+9999MW1631
0081106350999991926103106004+50217+008450FM-12+024499999V0209999900931000151CN0000501N9+00501+00441999999ADDAA199009091AY161061GF108991081051000251999999KA1999N+00501MD1710141+9999MW1451
0081106350999991926110106004+50217+008450FM-12+024499999V0209999900461000151CN0000501N9+99999+99999999999ADDAA199001091AY161061GF108991081061000251999999KA1999N-00111MD1310201+9999MW1611
0057106350999991926110206004+50217+008450FM-12+024499999V0209999901231000151CN0000001N9-00221-00281999999ADDAY141061GF108991081051000251999999MD1810201+9999MW1451
0081106350999991926110306004+50217+008450FM-12+024499999V0209999900101000151CN0000501N9+00111+00061999999ADDAA199001091AY141061GF108991081051000251999999KA1999N+00001MD1310061+9999MW1451
0050106350999991926110406004+50217+008450FM-12+024499999V0209999900461220001CN0500001N9+00721+00501999999ADDAY101061GF102991011051008001001081KA1999N+00501
0056106350999991926110506004+50217+008450FM-12+024499999V0209999900461000151CN0000501N9+00221+00171999999ADDAY141061GF108991081051000251999999KA1999N+00001MW1461
0061106350999991926110606004+50217+008450FM-12+024499999V0209999900261220001CN0100001N9+00391+00331999999ADDAA199006091AY161061GF104991041051008001001081KA1999N+00221
0051106350999991926110706004+50217+008450FM-12+024499999V0209999900461030001CN0100001N9+00501+00441999999ADDAY141061GF107991041051000751021001MD1310261+9999
0061106350999991926110806004+50217+008450FM-12+024499999V0209999900261220001CN0100001N9+00001-00061999999ADDAA199018091AY111061GF104991011051017501021001KA1999N-00111
0081106350999991926110906004+50217+008450FM-12+024499999V0209999901901000601CN0100001N9+00391+00331999999ADDAA199002091AY161061GF108991081051000751999999KA1999N+00391MD1210061+9999MW1211
0070106350999991926111006004+50217+008450FM-12+024499999V0209999900461000151CN0000501N9+00281+00221999999ADDAY141061GF108991081051000251999999KA1999N+00281MD1310141+9999MW1451
0050106350999991926111106004+50217+008450FM-12+024499999V0209999900461220001CN0200001N9+00391+00171999999ADDAY101061GF102991001001999999001081KA1999N+00281
0050106350999991926111206004+50217+008450FM-12+024499999V0209999900261220001CN0200001N9+00501+00281999999ADDAY111061GF106991999001999999021001KA1999N+00281
0050106350999991926111306004+50217+008450FM-12+024499999V0209999900461220001CN0100001N9+00501+00441999999ADDAY111061GF104991021051017501031001KA1999N+00221
0081106350999991926111406004+50217+008450FM-12+024499999V0209999901541002401CN0200001N9+00891+00831999999ADDAA199001091AY161061GF108991081061002501999999KA1999N+00501MD1510001+9999MW1631
0075106350999991926111506004+50217+008450FM-12+024499999V0209999900931220001CN0100001N9+00391+00171999999ADDAA199001091AY111061GF101991011051004501001001KA1999N+00391MD1310261+9999
0070106350999991926111606004+50217+008450FM-12+024499999V0209999900461000151CN0002001N9+00501+00441999999ADDAY141061GF106991061051000251001001KA1999N+00501MD1310061+9999MW1441
0064106350999991926111706004+50217+008450FM-12+024499999V0209999900671015001CN0100001N9+00781+00721999999ADDAY111061GF106991061051017501001001KA1999N+00611MD1810201+9999
0081106350999991926111806004+50217+008450FM-12+024499999V0209999900461000151CN0000501N9+00891+00831999999ADDAA199001091AY161061GF108991081061000251999999KA1999N+00781MD1810141+9999MW1601
0064106350999991926111906004+50217+008450FM-12+024499999V0209999900671220001CN0100001N9+01001+00111999999ADDAY111061GF104991001001999999021081KA1999N+00781MD1810261+9999
0057106350999991926112006004+50217+008450FM-12+024499999V0209999900671000151CN0000001N9+00111+00061999999ADDAY141061GF108991081061000251999999MD1310061+9999MW1601
0081106350999991926112106004+50217+008450FM-12+024499999V0209999900931000151CN0000501N9+00501+00441999999ADDAA199017091AY161061GF108991081061000251999999KA1999N+00221MD1210061+9999MW1631
0057106350999991926112206004+50217+008450FM-12+024499999V0209999900671000151CN0000001N9+00221+00171999999ADDAY141061GF108991081051000251999999MD1310061+9999MW1451
0081106350999991926112306004+50217+008450FM-12+024499999V0209999900461000151CN0000501N9+00221+00171999999ADDAA199000591AY141061GF108991081051000251999999KA1999N+00221MD1310201+9999MW1451
0081106350999991926112406004+50217+008450FM-12+024499999V0209999900461000151CN0000501N9+00221+00171999999ADDAA199001091AY161061GF108991081061000251999999KA1999N+00111MD1310061+9999MW1611
0064106350999991926112506004+50217+008450FM-12+024499999V0209991C00001220001CN0040001N9+00111+00061999999ADDAY121061GF104991041051008001001001KA1999N+00001MD1310061+9999
0067106350999991926112606004+50217+008450FM-12+024499999V0209999900101000151CN0000501N9-00111-00171999999ADDAA199000591AY141061GF108991081051000251999999KA1999N-00111MW1451
0056106350999991926112706004+50217+008450FM-12+024499999V0209999900101000151CN0000501N9-00281-00331999999ADDAY141061GF108991081051000251999999KA1999N-00281MW1451
0064106350999991926112806004+50217+008450FM-12+024499999V0209999900461000601CN0040001N9-00391-00441999999ADDAY121061GF108991081051000751999999KA1999N-00391MD1810141+9999
0069106350999991926112906004+50217+008450FM-12+024499999V0209999900261007801CN0100001N9-00721-00781999999ADDAY111061GF107991071051008001001001KA1999N+99999EQDQ01 -00392ATMN  
0064106350999991926113006004+50217+008450FM-12+024499999V0209999901231220001CN0100001N9-00281-00441999999ADDAY101061GF104991041051008001021001KA1999N-00281MD1810141+9999
0056106350999991926120106004+50217+008450FM-12+024499999V0209999900261000151CN0002001N9-00281-00331999999ADDAY141061GF108991081051000251999999KA1999N-00281MW1451
0070106350999991926120206004+50217+008450FM-12+024499999V0209999900261000151CN0002001N9-00281-00331999999ADDAY141061GF108991081051000251999999KA1999N-00281MD1310061+9999MW1451
0075106350999991926120306004+50217+008450FM-12+024499999V0209999900101000151CN0002001N9-00391-00441999999ADDAY141061GF108991081051000251999999KA1999N+99999MW1451EQDQ01 -00282ATMN  
0081106350999991926120406004+50217+008450FM-12+024499999V0209999900261000151CN0000001N9-00221+99999999999ADDAA199008091AY171061GF108991081061000251999999KA1999N-00391MD1810141+9999MW1731
0056106350999991926120506004+50217+008450FM-12+024499999V0209999900461000151CN0002001N9-00391-00441999999ADDAY141061GF108991081051000251999999KA1999N-00391MW1431
0064106350999991926120606004+50217+008450FM-12+024499999V0209999900101220001CN0200001N9-00611-00671999999ADDAY101061GF102991021051008001001001KA1999N-00611MD1310141+9999
0050106350999991926120706004+50217+008450FM-12+024499999V0209999900461220001CN0200001N9-00391-00561999999ADDAY101061GF102991999001999999021001KA1999N-00611
0056106350999991926120806004+50217+008450FM-12+024499999V0209999900461000151CN0000501N9-00221-00281999999ADDAY141061GF108991081051000251999999KA1999N-00501MW1451
0081106350999991926120906004+50217+008450FM-12+024499999V0209999900671000151CN0000001N9-00111-00171999999ADDAA199000391AY141061GF108991081051000251999999KA1999N-00221MD1310061+9999MW1451
0067106350999991926121006004+50217+008450FM-12+024499999V0209999900931000151CN0000501N9+00111+00061999999ADDAA199002091AY161061GF108991081061000251999999KA1999N-00111MW1511
0067106350999991926121106004+50217+008450FM-12+024499999V0209999900101000151CN0000501N9+00001-00061999999ADDAA199000591AY141061GF108991081051000251999999KA1999N-00391MW1451
0037106350999991926121206004+50217+008450FM-12+024499999V0209991C00001220001CN0000001N9+00391-01831999999ADDAY101061GF102991001001999999021081
0064106350999991926121306004+50217+008450FM-12+024499999V0209999900461220001CN0200001N9+00281+00061999999ADDAY101061GF100991001001999999001001KA1999N+00111MD1810141+9999
0070106350999991926121406004+50217+008450FM-12+024499999V0209999900261000151CN0000501N9-00221-00281999999ADDAY141061GF108991081051000251999999KA1999N-00281MD1810061+9999MW1451
0057106350999991926121506004+50217+008450FM-12+024499999V0209999900461000151CN0000001N9+00001-00061999999ADDAY171061GF108991081061000251999999MD1310061+9999MW1721
0056106350999991926121606004+50217+008450FM-12+024499999V0209999900461000151CN0002001N9-00501-00561999999ADDAY141061GF108991081051000251999999KA1999N-00611MW1451
0067106350999991926121706004+50217+008450FM-12+024499999V0209999900261000151CN0000501N9-00221-00281999999ADDAA199002091AY171061GF108991081051000251999999KA1999N-00501MW1231
0081106350999991926121806004+50217+008450FM-12+024499999V0209999900461000151CN0000501N9-00221-00281999999ADDAA199006091AY171061GF108991081061000251999999KA1999N-00221MD1810261+9999MW1731
0075106350999991926121906004+50217+008450FM-12+024499999V0209999900461002401CN0200001N9-00391-00441999999ADDAA199012091AY121061GF108991081051002501999999KA1999N-00391MD1310261+9999
0067106350999991926122006004+50217+008450FM-12+024499999V0209999900461000151CN0000501N9+00001-00061999999ADDAA199002091AY171061GF108991081051000251999999KA1999N-00281MW1451
0067106350999991926122106004+50217+008450FM-12+024499999V0209999900671024001CN0000501N9-00281-00331999999ADDAA199007091AY171061GF107991999061999999999999KA1999N-00281MW1711
0064106350999991926122206004+50217+008450FM-12+024499999V0209999900261004501CN0100001N9-00721-00781999999ADDAY111061GF107991071051004501001001KA1999N-00721MD1310201+9999
0075106350999991926122306004+50217+008450FM-12+024499999V0209999900461030001CN0100001N9-01001-01061999999ADDAA199002091AY111061GF106991021051000251021001KA1999N-01001MD1310201+9999
0064106350999991926122406004+50217+008450FM-12+024499999V0209999901541015001CN0100001N9-01001-01061999999ADDAY121061GF108991081051017501999999KA1999N-01221MD1810061+9999
0037106350999991926122506004+50217+008450FM-12+024499999V0209999900671220001CN0200001N9-01111-01171999999ADDAY101061GF101991011051999999001001
0064106350999991926122606004+50217+008450FM-12+024499999V0209999900671220001CN0100001N9-01111-01281999999ADDAY101061GF101991999001999999021001KA1999N-01221MD1310141+9999
0064106350999991926122706004+50217+008450FM-12+024499999V0209999900461000151CN0100001N9-00891-01061999999ADDAY101061GF108991081051000251999999KA1999N-01001MD1810201+9999
0050106350999991926122806004+50217+008450FM-12+024499999V0209999900461220001CN0200001N9-00391-00441999999ADDAY111061GF107991999001999999021001KA1999N-00891
0081106350999991926122906004+50217+008450FM-12+024499999V0209999900671000151CN0000001N9-00111-00171999999ADDAA199002091AY161061GF108991081061000251999999KA1999N-00391MD1810061+9999MW1611
0067106350999991926123006004+50217+008450FM-12+024499999V0209999900461000151CN0000501N9-00111-00171999999ADDAA199000391AY141061GF108991081051000251999999KA1999N-00221MW1451
0081106350999991926123106004+50217+008450FM-12+024499999V0209999900461000151CN0002001N9-00111-00171999999ADDAA199000691AY141061GF108991081051000251999999KA1999N-00111MD1310061+9999MW1501
