0075106370999991929010106004+50050+008600FM-12+003499999V02099999004619999999N0200001N9+00111-00111101581ADDAA199000691AY171061GF108991999001017501021001KA1999N-00111MD1310261+9999
0037106370999991929010112004+50050+008600FM-12+003499999V0200501N00461220001CN0500001N9+00001-00501101711ADDAY101061GF101991011051017501001001
0064106370999991929010206004+50050+008600FM-12+003499999V0209999901231220001CN0100001N9-00111-00441101551ADDAY101061GF104991041011012501001001KA1999N-00111MD1610061+9999
0037106370999991929010212004+50050+008600FM-12+003499999V0200501N01541220001CN0100001N9+00001-00061101731ADDAY171061GF104991041011012501001001
0064106370999991929010306004+50050+008600FM-12+003499999V0209999900671030001CN0040001N9-00281-00441102241ADDAY111061GF106991041051004501031001KA1999N-00391MD1210141+9999
0037106370999991929010312004+50050+008600FM-12+003499999V0200201N00931220001CN0100001N9-00221-00561102381ADDAY111061GF104991999011012501001001
0067106370999991929010406004+50050+008600FM-12+003499999V02099999006719999999N0040001N9-00281-00441102471ADDAA124999999AY171061GF108991999061004501001001KA1999N-00391MW1701
0057106370999991929010412004+50050+008600FM-12+003499999V0200501N006719999999N0040001N9-00221-00391102301ADDAY171061GF108991999051001501001001MD1810141+9999MW1701
0081106370999991929010506004+50050+008600FM-12+003499999V02099999004619999999N0040001N9-00281-00331102461ADDAA199000691AY171061GF108991999061002501001001KA1999N-00501MD1410001+9999MW1711
0051106370999991929010512004+50050+008600FM-12+003499999V0200501N00461004501CN0040001N9-00221-00391102461ADDAY171061GF108991081051004501999999MD1810141+9999
0050106370999991929010606004+50050+008600FM-12+003499999V0209999900461004501CN0040001N9-00111-00441102471ADDAY121061GF108991081061004501999999KA1999N-00281
0037106370999991929010612004+50050+008600FM-12+003499999V0201101N002619999999N0040001N9-00111-00441102521ADDAY121061GF108991999051004501001001
0050106370999991929010706004+50050+008600FM-12+003499999V0209999900461004501CN0040001N9-00221-00281102781ADDAY121061GF108991081051004501999999KA1999N-00391
0051106370999991929010712004+50050+008600FM-12+003499999V0200901N00101075001CN0040001N9+00001-00331102991ADDAY111061GF106991021051017501001021MD1110061+9999
0064106370999991929010806004+50050+008600FM-12+003499999V0209999900261220001CN0020001N9-00281-00441103811ADDAY141061GF101991999001999999031001KA1999N-00391MD1310201+9999
0051106370999991929010812004+50050+008600FM-12+003499999V0201101N00101220001CN0020001N9+00001-00331103951ADDAY141061GF101991999999022501999999MD1010001+9999
0050106370999991929010906004+50050+008600FM-12+003499999V0209991C00001220001CN0020001N9-00721-00781104401ADDAY141061GF104991999051008001001001KA1999N-00781
0051106370999991929010912004+50050+008600FM-12+003499999V0200201N00101220001CN0020001N9-00221-00281104301ADDAY101061GF100991001001999999001001MD1610141+9999
0064106370999991929011006004+50050+008600FM-12+003499999V0209991C000019999999N0020001N9-00501-00671103931ADDAY121061GF108991999061004501001001KA1999N-00721MD1810061+9999
0057106370999991929011012004+50050+008600FM-12+003499999V0201801N002619999999N0020001N9-00501-00561103771ADDAY171061GF108991999061004501001001MD1810141+9999MW1701
0061106370999991929011106004+50050+008600FM-12+003499999V02099999002619999999N0020001N9-00721-00891103571ADDAA199000691AY121061GF108991999061004501001001KA1999N-00721
0051106370999991929011112004+50050+008600FM-12+003499999V0200501N00461030001CN0020001N9-00611-00781103541ADDAY141061GF106991021051012501021001MD1810141+9999
0056106370999991929011206004+50050+008600FM-12+003499999V0209999900461220001CN0010001N9-01001-01171103841ADDAY141061GF101991999001999999031001KA1999N-01001MW1101
0031106370999991929011212004+50050+008600FM-12+003499999V0200201N001019999999N0010001N9-00391-00721103841ADDAY141061MD1810141+9999MW1101
0070106370999991929011306004+50050+008600FM-12+003499999V0209991C00001220001CN0010001N9-01001-01061103531ADDAY141061GF100991001001999999001001KA1999N-01001MD1610061+9999MW1101
0043106370999991929011312004+50050+008600FM-12+003499999V0202001N00461030001CN0005001N9-00391-00561103071ADDAY141061GF107991041051004501031001MW1441
0081106370999991929011406004+50050+008600FM-12+003499999V02099999002619999999N0005001N9+00001-00061102041ADDAA124999999AY171061GF108991999061004501001001KA1999N-00221MD1610061+9999MW1451
0051106370999991929011412004+50050+008600FM-12+003499999V0203201N004619999999N0100001N9+00281+00221101911ADDAY141061GF106991999051008001001001MD1810141+9999
0064106370999991929011506004+50050+008600FM-12+003499999V0209999900261012301CN0020001N9-00391-00441101581ADDAY121061GF108991081051012501999999KA1999N-00501MD1710341+9999
0092106370999991929011512004+50050+008600FM-12+003499999V0202301N004619999999N0020001N9-00111-00171100712ADDAY171061GF108991999061004501001001MD1810602+9999MW1711EQDQ01+100713APOSLPQ02+000602APC3  
0067106370999991929011606004+50050+008600FM-12+003499999V0209999900931220001CN0040001N9-00501-00671099951ADDAA199002091AY171061GF102991021051012501001001KA1999N-00611MW1231
0037106370999991929011612004+50050+008600FM-12+003499999V0203201N004619999999N0000501N9-00391-00721100671ADDAY141061GF106991999999022501999999
0081106370999991929011706004+50050+008600FM-12+003499999V0202001N00931004501CN0020001N9-00721-00781101001ADDAA199002091AY171061GF108991081061004501999999KA1999N-01111MD1610201+9999MW1731
0057106370999991929011712004+50050+008600FM-12+003499999V0202901N004619999999N0100001N9-01001-01171101151ADDAY171061GF106991999051012501001001MD1310201+9999MW1231
0075106370999991929011806004+50050+008600FM-12+003499999V0209991C000019999999N0010001N9-00391-00441102271ADDAA199004091AY121061GF108991999061004501001001KA1999N-00501MD1310261+9999
0051106370999991929011812004+50050+008600FM-12+003499999V0202301N004619999999N0020001N9-00111-00171102501ADDAY121061GF108991999051004501001001MD1010001+9999
0081106370999991929011906004+50050+008600FM-12+003499999V02099999002619999999N0020001N9+00111+00061102731ADDAA199000391AY171061GF108991999061004501001001KA1999N-00111MD1310061+9999MW1211
0051106370999991929011912004+50050+008600FM-12+003499999V0202301N004619999999N0020001N9+00221+00171102931ADDAY171061GF108991999061004501001001MD1310061+9999
0070106370999991929012006004+50050+008600FM-12+003499999V0209991C00001001501CN0002001N9-00391-00441103281ADDAY141061GF108991081051001501999999KA1999N-00611MD1110061+9999MW1471
0057106370999991929012012004+50050+008600FM-12+003499999V0203601N00101012301CN0005001N9+00111+00061103201ADDAY141061GF107991071051012501001001MD1610061+9999MW1421
0056106370999991929012106004+50050+008600FM-12+003499999V0209999900261220001CN0005001N9-00501-00561103191ADDAY141061GF104991041051004501001091KA1999N-00611MW1441
0051106370999991929012112004+50050+008600FM-12+003499999V0200501N00261030001CN0020001N9+00111+00061103071ADDAY121061GF108991041051004501031001MD1710061+9999
0081106370999991929012206004+50050+008600FM-12+003499999V02099999001019999999N0005001N9+00001-00061102661ADDAA124999999AY171061GF108991999061004501001001KA1999N-00111MD1610061+9999MW1711
0057106370999991929012212004+50050+008600FM-12+003499999V0202301N00261004501CN0010001N9+00111+00061102531ADDAY171061GF108991081051004501999999MD1810061+9999MW1451
0081106370999991929012306004+50050+008600FM-12+003499999V0209999900101004501CN0005001N9+00111+00061102291ADDAA199000591AY161061GF108991081051004501999999KA1999N+00001MD1610061+9999MW1451
0057106370999991929012312004+50050+008600FM-12+003499999V0209991C00001001501CN0002001N9+00221+00171102131ADDAY161061GF108991081051001501999999MD1810141+9999MW1471
0075106370999991929012406004+50050+008600FM-12+003499999V02099999002619999999N0020001N9+00001-00061101951ADDAA199002091AY171061GF108991999051004501001001KA1999N+00001MD1610061+9999
0061106370999991929012506004+50050+008600FM-12+003499999V02099999004619999999N0020001N9-00281-00331101761ADDAA199000691AY171061GF107991999051004501001001KA1999N-00501
0051106370999991929012512004+50050+008600FM-12+003499999V0203601N00461012301CN0020001N9-00111-00441101661ADDAY111061GF107991071051012501001001MD1810141+9999
0067106370999991929012606004+50050+008600FM-12+003499999V0209999900101220001CN0010001N9-00891-00941101681ADDAA199000691AY171061GF104991021051017501001081KA1999N-00891MW1101
0051106370999991929012612004+50050+008600FM-12+003499999V0209991C000019999999N0020001N9-00391-00721101591ADDAY141061GF106991999999017501999999MD1810141+9999
0067106370999991929012706004+50050+008600FM-12+003499999V0202701N00101004501CN0020001N9-00501-00671101711ADDAA199000591AY171061GF108991081051004501999999KA1999N-00501MW1711
0037106370999991929012712004+50050+008600FM-12+003499999V0209991C000019999999N0040001N9-00111-00611101731ADDAY111061GF107991999051012501001001
0081106370999991929012806004+50050+008600FM-12+003499999V02099999004619999999N0020001N9-00611-00671102311ADDAA199000691AY171061GF107991999001022501021081KA1999N-00611MD1310141+9999MW1231
0051106370999991929012812004+50050+008600FM-12+003499999V0202501N00671220001CN0020001N9-00111-00611102551ADDAY171061GF102991001001999999001081MD1310061+9999
0050106370999991929012906004+50050+008600FM-12+003499999V0209999900101220001CN0010001N9-01281-01331103391ADDAY101061GF102991001001999999001021KA1999N-01281
0051106370999991929012912004+50050+008600FM-12+003499999V0201101N00261220001CN0020001N9-00281-00781103241ADDAY141061GF104991001001999999031081MD1990141+9999
0050106370999991929013006004+50050+008600FM-12+003499999V0209999900101220001CN0020001N9-01001-01061103411ADDAY141061GF104991001001999999001021KA1999N-01111
0051106370999991929013012004+50050+008600FM-12+003499999V0203601N00101220001CN0020001N9-00281-00941103181ADDAY141061GF102991001001999999001081MD1810201+9999
0050106370999991929013106004+50050+008600FM-12+003499999V0209999900461220001CN0020001N9-00611-00941103111ADDAY141061GF104991999001022501031081KA1999N-00611
0051106370999991929013112004+50050+008600FM-12+003499999V0203601N00461220001CN0040001N9-00221-00721102881ADDAY101061GF104991001001999999001021MD1810201+9999
0064106370999991929020106004+50050+008600FM-12+003499999V0209999900261220001CN0020001N9-01111-01171102731ADDAY101061GF100991001001999999001001KA1999N-01111MD1610061+9999
0051106370999991929020112004+50050+008600FM-12+003499999V0201401N00671220001CN0040001N9+00001-01611102671ADDAY101061GF101991001001999999001081MD1990141+9999
0050106370999991929020206004+50050+008600FM-12+003499999V0209999900261220001CN0020001N9-01281-01721103001ADDAY141061GF100991001001999999001001KA1999N-01281
0051106370999991929020212004+50050+008600FM-12+003499999V0201401N00671220001CN0040001N9-00281-00781102791ADDAY101061GF100991001001999999001001MD1810141+9999
0050106370999991929020306004+50050+008600FM-12+003499999V0209999900261220001CN0040001N9-01611-01781102871ADDAY101061GF100991001001999999001001KA1999N-01611
0051106370999991929020312004+50050+008600FM-12+003499999V0200201N00261220001CN0040001N9-00611-01111102571ADDAY101061GF100991001001999999001001MD1810201+9999
0056106370999991929020406004+50050+008600FM-12+003499999V0209999900101220001CN0010001N9-01221-01561102701ADDAY101061GF100991001001999999001001KA1999N-01391MW1101
0051106370999991929020412004+50050+008600FM-12+003499999V0200201N00101220001CN0040001N9-00221-00721102571ADDAY141061GF100991001001999999001001MD1810141+9999
0056106370999991929020506004+50050+008600FM-12+003499999V0209991C000019999999N0005001N9-01281-01441102701ADDAY141061GF106991999001022501031001KA1999N-01391MW1441
0057106370999991929020512004+50050+008600FM-12+003499999V0202301N00101220001CN0005001N9-00221-00561102551ADDAY141061GF100991001001999999001001MD1990141+9999MW1441
0067106370999991929020606004+50050+008600FM-12+003499999V0209999900101002401CN0005001N9-00111-00171102231ADDAA199000391AY171061GF108991081051002501999999KA1999N-00281MW1701
0057106370999991929020612004+50050+008600FM-12+003499999V0209991C00001002401CN0005001N9+00111+00061102351ADDAY171061GF108991081051002501999999MD1110061+9999MW1451
0064106370999991929020706004+50050+008600FM-12+003499999V0209999900461220001CN0020001N9-00721-00891103241ADDAY141061GF100991001001999999001001KA1999N-00721MD1310201+9999
0051106370999991929020712004+50050+008600FM-12+003499999V0200501N00671220001CN0020001N9-00111-00611103231ADDAY141061GF100991001001999999001001MD1610061+9999
0064106370999991929020806004+50050+008600FM-12+003499999V0209999900261220001CN0020001N9-01111-01171103281ADDAY141061GF100991001001999999001001KA1999N-01281MD1990061+9999
0051106370999991929020812004+50050+008600FM-12+003499999V0200201N00101220001CN0020001N9-00281-00781102931ADDAY141061GF104991001001999999001021MD1810201+9999
0050106370999991929020906004+50050+008600FM-12+003499999V0209999900261220001CN0010001N9-01501-01671102781ADDAY141061GF100991001001999999001001KA1999N-01611
0057106370999991929020912004+50050+008600FM-12+003499999V0203601N00261220001CN0010001N9-00281-00781102441ADDAY101061GF100991001001999999001001MD1810201+9999MW1101
0064106370999991929021006004+50050+008600FM-12+003499999V0209999900261220001CN0020001N9-01221-01281101811ADDAY101061GF101991011051017501001001KA1999N-01221MD1810141+9999
0051106370999991929021012004+50050+008600FM-12+003499999V0200901N00461220001CN0040001N9-00281-00781101621ADDAY101061GF104991001001999999001021MD1810201+9999
0064106370999991929021106004+50050+008600FM-12+003499999V0209999900671220001CN0040001N9-02111-02391102381ADDAY101061GF101991001001999999001081KA1999N-02111MD1310141+9999
0051106370999991929021112004+50050+008600FM-12+003499999V0200501N00931220001CN0040001N9-01281-01941102261ADDAY101061GF100991001001999999001001MD1990201+9999
0064106370999991929021206004+50050+008600FM-12+003499999V0209999900671220001CN0020001N9-02111-02281101981ADDAY101061GF102991999001022501021001KA1999N-02221MD1990061+9999
0051106370999991929021212004+50050+008600FM-12+003499999V0200501N00671220001CN0020001N9-01221-01671101661ADDAY101061GF100991001001999999001001MD1810141+9999
0050106370999991929021306004+50050+008600FM-12+003499999V0209999900461220001CN0020001N9-01891-02171101861ADDAY101061GF101991001001999999001081KA1999N-01891
0051106370999991929021312004+50050+008600FM-12+003499999V0200701N00261220001CN0020001N9-01221-01671101501ADDAY171061GF101991001001999999001021MD1810261+9999
0064106370999991929021406004+50050+008600FM-12+003499999V0209999900261007801CN0020001N9-01611-01781101461ADDAY141061GF108991081051008001999999KA1999N-01721MD1110141+9999
0057106370999991929021412004+50050+008600FM-12+003499999V0200701N00101075001CN0020001N9-01391-01561101411ADDAY171061GF108991041051012501001081MD1990141+9999MW1701
0081106370999991929021506004+50050+008600FM-12+003499999V0209999900101030001CN0010001N9-01501-01671101551ADDAA199000691AY171061GF106991041051008001031001KA1999N-01611MD1310061+9999MW1101
0057106370999991929021512004+50050+008600FM-12+003499999V0200701N00101220001CN0020001N9-00891-01391101351ADDAY141061GF100991001001999999001001MD1810141+9999MW1421
0064106370999991929021606004+50050+008600FM-12+003499999V0209999900101220001CN0020001N9-01781-01941101361ADDAY141061GF101991999001022501031001KA1999N-01781MD1210061+9999
0051106370999991929021612004+50050+008600FM-12+003499999V0200201N00261030001CN0020001N9-00781-01111101331ADDAY111061GF106991041051008001021001MD1510061+9999
0070106370999991929021706004+50050+008600FM-12+003499999V0209991C00001220001CN0005001N9-01611-01781101791ADDAY141061GF102991001001999999001021KA1999N-01721MD1310141+9999MW1441
0051106370999991929021712004+50050+008600FM-12+003499999V0202301N00101220001CN0020001N9-00281-00781101971ADDAY141061GF100991001001999999001001MD1110061+9999
0070106370999991929021806004+50050+008600FM-12+003499999V0209999900261220001CN0005001N9-01611-01671102841ADDAY141061GF104991021051017501001021KA1999N-01611MD1310061+9999MW1461
0051106370999991929021812004+50050+008600FM-12+003499999V0200201N00261220001CN0020001N9-00221-00561102731ADDAY141061GF100991001001999999001001MD1990061+9999
0081106370999991929021906004+50050+008600FM-12+003499999V0209999900931002401CN0005001N9-00501-00561102731ADDAA199000391AY171061GF108991081051002501999999KA1999N-00781MD1310061+9999MW1711
0037106370999991929021912004+50050+008600FM-12+003499999V0200501N00261220001CN0020001N9-00111-00441102771ADDAY141061GF104991001001999999001021
0064106370999991929022006004+50050+008600FM-12+003499999V0209999900101220001CN0020001N9-00891-01061103411ADDAY141061GF100991001001999999001001KA1999N-00891MD1310141+9999
0037106370999991929022012004+50050+008600FM-12+003499999V0200501N00261220001CN0020001N9-00221-00391103461ADDAY141061GF100991001001999999001001
0064106370999991929022106004+50050+008600FM-12+003499999V0209999900261220001CN0020001N9-01221-01391104001ADDAY141061GF100991001001999999001001KA1999N-01221MD1210141+9999
0051106370999991929022112004+50050+008600FM-12+003499999V0200501N00461220001CN0020001N9+00001-00501103721ADDAY101061GF100991001001999999001001MD1610201+9999
0064106370999991929022206004+50050+008600FM-12+003499999V0209999900101220001CN0020001N9-01281-01441103031ADDAY101061GF104991001001999999001021KA1999N-01281MD1610141+9999
0051106370999991929022212004+50050+008600FM-12+003499999V0202701N00101220001CN0040001N9+00281-00501102421ADDAY101061GF102991001001999999001021MD1810341+9999
0070106370999991929022306004+50050+008600FM-12+003499999V02099999001019999999N0005001N9-00891-01061101621ADDAY141061GF108991999001022501021081KA1999N-01111MD1610061+9999MW1441
0057106370999991929022312004+50050+008600FM-12+003499999V0202701N00101030001CN0005001N9+00281-00281101241ADDAY141061GF108991041051008001031001MD1810201+9999MW1441
0067106370999991929022406004+50050+008600FM-12+003499999V0209999900101002401CN0002001N9+00221+00171100611ADDAA199005091AY161061GF108991081051002501999999KA1999N+00001MW1611
0057106370999991929022412004+50050+008600FM-12+003499999V0202301N00101002401CN0005001N9+00391+00331100551ADDAY161061GF108991081051002501999999MD1810061+9999MW1631
0067106370999991929022506004+50050+008600FM-12+003499999V0209999900261004501CN0020001N9-00111-00171100671ADDAA199009091AY161061GF108991081061004501999999KA1999N-00111MW1601
0051106370999991929022512004+50050+008600FM-12+003499999V0200501N00261004501CN0020001N9+00001-00221100781ADDAY171061GF108991081051004501999999MD1110061+9999
0064106370999991929022606004+50050+008600FM-12+003499999V0209999900261004501CN0020001N9-00111-00281101371ADDAY121061GF108991081061004501999999KA1999N-00111MD1310141+9999
0037106370999991929022612004+50050+008600FM-12+003499999V0200201N00671004501CN0020001N9-00111-00281101491ADDAY171061GF108991081051004501999999
0081106370999991929022706004+50050+008600FM-12+003499999V0209999900931002401CN0020001N9-00611-00671101391ADDAA199002091AY171061GF108991081051002501999999KA1999N-00611MD1510001+9999MW1711
0037106370999991929022712004+50050+008600FM-12+003499999V0200501N006719999999N0020001N9-00221-00721101401ADDAY171061GF106991999999017501999999
0064106370999991929022806004+50050+008600FM-12+003499999V0209999900931030001CN0200001N9-00891-01061103111ADDAY111061GF106991041051012501021001KA1999N-01001MD1310401+9999
0051106370999991929022812004+50050+008600FM-12+003499999V0200201N00671220001CN0200001N9-00221-01111103441ADDAY101061GF101991011051017501001001MD1310061+9999
0050106370999991929030106004+50050+008600FM-12+003499999V0209999900461220001CN0200001N9-01001-01171104171ADDAY101061GF100991001001999999001001KA1999N-01001
0051106370999991929030112004+50050+008600FM-12+003499999V0200201N00461220001CN0200001N9+00111-00611104081ADDAY101061GF100991001001999999001001MD1990141+9999
0050106370999991929030206004+50050+008600FM-12+003499999V0209999900671220001CN0100001N9-00891-01221103941ADDAY101061GF100991001001999999001001KA1999N-01001
0051106370999991929030212004+50050+008600FM-12+003499999V0200201N00261220001CN0100001N9+00111-00831103551ADDAY101061GF100991001001999999001001MD1810201+9999
0050106370999991929030306004+50050+008600FM-12+003499999V0209999900261220001CN0020001N9-01001-01331103141ADDAY101061GF106991001001999999001021KA1999N-01111
0051106370999991929030312004+50050+008600FM-12+003499999V0202901N00101030001CN0020001N9+00111-00441102661ADDAY111061GF106991021051022501031001MD1810261+9999
0064106370999991929030406004+50050+008600FM-12+003499999V0209999900101007801CN0020001N9+00001-00221101701ADDAY141061GF108991081051008001999999KA1999N-00111MD1410001+9999
0037106370999991929030412004+50050+008600FM-12+003499999V0200201N002619999999N0040001N9+00221-00171101621ADDAY171061GF107991999011008001001001
0050106370999991929030506004+50050+008600FM-12+003499999V0209999900101220001CN0020001N9-00501-00671101871ADDAY111061GF106991001001999999021081KA1999N-00611
0051106370999991929030512004+50050+008600FM-12+003499999V0203601N00101220001CN0040001N9+00221-00331101681ADDAY101061GF102991999999022501999999MD1810141+9999
0050106370999991929030606004+50050+008600FM-12+003499999V0209999900261030001CN0020001N9+00001-00331101761ADDAY141061GF107991021051008001021001KA1999N-00221
0037106370999991929030612004+50050+008600FM-12+003499999V0202701N006719999999N0100001N9+00281-00111101761ADDAY121061GF108991999051004501001001
0064106370999991929030706004+50050+008600FM-12+003499999V02099999001019999999N0020001N9+00221+00001102741ADDAY121061GF107991999051008001001001KA1999N+00221MD1210261+9999
0051106370999991929030712004+50050+008600FM-12+003499999V0202701N002619999999N0100001N9+00391+00001102751ADDAY121061GF107991999011008001001001MD1310061+9999
0070106370999991929030806004+50050+008600FM-12+003499999V0209999900261220001CN0010001N9-00111-00281102971ADDAY141061GF104991001001999999001021KA1999N-00111MD1410001+9999MW1101
0051106370999991929030812004+50050+008600FM-12+003499999V0202301N00101220001CN0040001N9+00781-00061102751ADDAY101061GF102991001001999999001021MD1710201+9999
0050106370999991929030906004+50050+008600FM-12+003499999V0209999900261220001CN0040001N9+00501-00111102601ADDAY141061GF106991001001999999001091KA1999N+00221
0051106370999991929030912004+50050+008600FM-12+003499999V0202501N00261220001CN0040001N9+01501-00061102461ADDAY101061GF104991001001999999001021MD1810061+9999
0056106370999991929031006004+50050+008600FM-12+003499999V0209991C00001030001CN0010001N9+00111+00061102441ADDAY111061GF107991041051012501031001KA1999N+00111MW1101
0051106370999991929031012004+50050+008600FM-12+003499999V0209991C00001030001CN0040001N9+01221+01001102161ADDAY141061GF106991041051022501031001MD1810141+9999
0056106370999991929031106004+50050+008600FM-12+003499999V0209991C00001220001CN0005001N9+00111-00111102061ADDAY141061GF108991001001999999021081KA1999N+00001MW1441
0057106370999991929031112004+50050+008600FM-12+003499999V0202301N00261004501CN0010001N9+00891+00671101941ADDAY141061GF108991081051004501999999MD1810061+9999MW1101
0064106370999991929031206004+50050+008600FM-12+003499999V0209999900461030001CN0020001N9+00281+00061102711ADDAY141061GF107991041051017501021001KA1999N+00221MD1310201+9999
0037106370999991929031212004+50050+008600FM-12+003499999V0200701N00261030001CN0040001N9+00721+00331102821ADDAY121061GF108991041051008001021001
0064106370999991929031306004+50050+008600FM-12+003499999V0209991C00001004501CN0020001N9+00111+00061103061ADDAY141061GF108991081051004501999999KA1999N-00111MD1110141+9999
0051106370999991929031312004+50050+008600FM-12+003499999V0200701N00101004501CN0020001N9+00281+00221103091ADDAY141061GF108991081051004501999999MD1010001+9999
0050106370999991929031406004+50050+008600FM-12+003499999V0209999900261002401CN0020001N9+00221+00171103041ADDAY141061GF108991081051002501999999KA1999N+00221
0051106370999991929031412004+50050+008600FM-12+003499999V0200201N00261075001CN0020001N9+00501+00111102881ADDAY121061GF106991041051012501001081MD1810141+9999
0064106370999991929031506004+50050+008600FM-12+003499999V0209999900101004501CN0020001N9+00111+00061102861ADDAY121061GF108991081051004501999999KA1999N-00111MD1310061+9999
0051106370999991929031512004+50050+008600FM-12+003499999V0200701N00101030001CN0040001N9+00501+00281102901ADDAY121061GF108991041051008001021001MD1990061+9999
0050106370999991929031606004+50050+008600FM-12+003499999V0209999900261220001CN0040001N9+00281-00111103151ADDAY111061GF104991041051017501001001KA1999N+00281
0051106370999991929031612004+50050+008600FM-12+003499999V0201101N00461220001CN0100001N9+01111+00221102971ADDAY101061GF100991001001999999001001MD1810141+9999
0064106370999991929031706004+50050+008600FM-12+003499999V0209999900101220001CN0500001N9-00111-00281103181ADDAY101061GF100991001001999999001001KA1999N-00221MD1310061+9999
0051106370999991929031712004+50050+008600FM-12+003499999V0201101N00261220001CN0500001N9+01111-00331102951ADDAY101061GF100991001001999999001001MD1810201+9999
0050106370999991929031806004+50050+008600FM-12+003499999V0209999900261220001CN0100001N9+00001-00221102921ADDAY101061GF100991001001999999001001KA1999N-00111
0051106370999991929031812004+50050+008600FM-12+003499999V0200901N00101220001CN0200001N9+01501-00061102601ADDAY101061GF100991001001999999001001MD1810201+9999
0050106370999991929031906004+50050+008600FM-12+003499999V0209999900101220001CN0040001N9+00111-00111102591ADDAY101061GF101991001001999999001091KA1999N-00111
0051106370999991929031912004+50050+008600FM-12+003499999V0200501N00101220001CN0020001N9+01501+00331102431ADDAY101061GF100991001001999999001001MD1810141+9999
0070106370999991929032006004+50050+008600FM-12+003499999V0209991C00001220001CN0010001N9+00001-00061102511ADDAY141061GF101991001001999999001081KA1999N+00001MD1310061+9999MW1101
0051106370999991929032012004+50050+008600FM-12+003499999V0202301N00101220001CN0020001N9+01611+00441102341ADDAY141061GF102991001001999999001021MD1810061+9999
0050106370999991929032106004+50050+008600FM-12+003499999V0209999900101220001CN0020001N9+00281+00061102511ADDAY141061GF104991999051017501001001KA1999N+00221
0051106370999991929032112004+50050+008600FM-12+003499999V0202901N00261220001CN0020001N9+01721+00501102271ADDAY141061GF102991001001999999031021MD1810141+9999
0050106370999991929032206004+50050+008600FM-12+003499999V0209999900101030001CN0020001N9+00611+00391102201ADDAY141061GF108991041051017501021001KA1999N+00611
0051106370999991929032212004+50050+008600FM-12+003499999V0203201N001019999999N0020001N9+01501+00611102081ADDAY111061GF108991999999022501999999MD1810141+9999
0067106370999991929032306004+50050+008600FM-12+003499999V0209999900101030001CN0020001N9+00721+00501102031ADDAA199000691AY141061GF108991041051012501021001KA1999N+00721MW1511
0043106370999991929032312004+50050+008600FM-12+003499999V0209991C00001004501CN0005001N9+01001+00941102111ADDAY161061GF108991081051004501999999MW1451
0064106370999991929032406004+50050+008600FM-12+003499999V0209999900101220001CN0020001N9+00391+00331102841ADDAY111061GF104991001001999999001021KA1999N+00281MD1310141+9999
0051106370999991929032412004+50050+008600FM-12+003499999V0200501N00461220001CN0040001N9+01281+00111102791ADDAY111061GF104991021011999999031001MD1010061+9999
0064106370999991929032506004+50050+008600FM-12+003499999V0209991C000019999999N0020001N9+00281+00221102921ADDAY111061GF107991999051012501001001KA1999N+00221MD1310141+9999
0051106370999991929032512004+50050+008600FM-12+003499999V0202501N00101015001CN0040001N9+01281-00221102921ADDAY111061GF106991061051017501001001MD1810141+9999
0070106370999991929032606004+50050+008600FM-12+003499999V0209999900101030001CN0010001N9+00611+00221103031ADDAY111061GF106991041051017501031001KA1999N+00391MD1110061+9999MW1101
0051106370999991929032612004+50050+008600FM-12+003499999V0203601N00101012301CN0040001N9+01501+00611102961ADDAY111061GF107991071051012501001001MD1810141+9999
0050106370999991929032706004+50050+008600FM-12+003499999V0209999900261030001CN0020001N9+00721+00501103111ADDAY121061GF108991041051017501021001KA1999N+00721
0051106370999991929032712004+50050+008600FM-12+003499999V0200201N00461012301CN0100001N9+01221+00331103061ADDAY111061GF106991061051012501001001MD1810061+9999
0064106370999991929032806004+50050+008600FM-12+003499999V0209999900261012301CN0100001N9+00891+00671103001ADDAY111061GF108991081051012501999999KA1999N+00611MD1310061+9999
0051106370999991929032812004+50050+008600FM-12+003499999V0200901N00261220001CN0100001N9+01391+00501102991ADDAY111061GF102991021051012501001001MD1610061+9999
0064106370999991929032906004+50050+008600FM-12+003499999V0209991C00001220001CN0020001N9+00391+00331103071ADDAY141061GF107991001001999999021081KA1999N+00281MD1110061+9999
0051106370999991929032912004+50050+008600FM-12+003499999V0200501N00461220001CN0200001N9+01781+00561102881ADDAY111061GF106991001001999999001081MD1810141+9999
0050106370999991929033006004+50050+008600FM-12+003499999V0209999900261012301CN0020001N9+00721+00671102631ADDAY141061GF107991071051012501001001KA1999N+00501
0037106370999991929033012004+50050+008600FM-12+003499999V0200201N00461220001CN0040001N9+01281+00391102561ADDAY111061GF104991041051012501001001
0064106370999991929033106004+50050+008600FM-12+003499999V0209999900101012301CN0040001N9+00891+00441102151ADDAY121061GF107991071051012501001001KA1999N+00781MD1610141+9999
0051106370999991929033112004+50050+008600FM-12+003499999V0202501N006719999999N0040001N9+01501+00611101391ADDAY111061GF107991999051012501001001MD1710461+9999
0064106370999991929040106004+50050+008600FM-12+003499999V02099999004619999999N0200001N9+00501+00111101401ADDAY111061GF199999041051012501021001KA1999N+00391MD1810141+9999
0037106370999991929040112004+50050+008600FM-12+003499999V0203201N004619999999N0200001N9+01111+00221100861ADDAY181061GF107991999091012501001001
0075106370999991929040206004+50050+008600FM-12+003499999V0209999900931075001CN0200001N9+00391+00171100131ADDAA199001091AY181061GF106991041091012501001081KA1999N+00221MD1210341+9999
0051106370999991929040212004+50050+008600FM-12+003499999V0202901N00671075001CN0200001N9+00781-00061100701ADDAY111061GF106991041091012501001081MD1210201+9999
0061106370999991929040306004+50050+008600FM-12+003499999V02099999002619999999N0040001N9+00281-00111100831ADDAA199000691AY181061GF108991999091008001001001KA1999N+00221
0043106370999991929040312004+50050+008600FM-12+003499999V0203401N00261030001CN0020001N9+00221+00171101101ADDAY171061GF107991041051008001021001MW1851
0064106370999991929040406004+50050+008600FM-12+003499999V0209999900101220001CN0020001N9-00221-00391101461ADDAY141061GF104991041051017501021001KA1999N-00391MD1410001+9999
0057106370999991929040412004+50050+008600FM-12+003499999V0200501N006719999999N0040001N9+00221+00001101331ADDAY171061GF106991999091008001001001MD1710061+9999MW1231
0081106370999991929040506004+50050+008600FM-12+003499999V0209999900461001501CN0010001N9+00001-00061100501ADDAA199003091AY171061GF108991081051001501999999KA1999N-00111MD1810261+9999MW1731
0057106370999991929040512004+50050+008600FM-12+003499999V0203401N00261030001CN0020001N9+00221+00171100301ADDAY171061GF108991041061004501021001MD1610141+9999MW1611
0064106370999991929040606004+50050+008600FM-12+003499999V0209999900931220001CN0100001N9-00281-00611102211ADDAY101061GF102991011011022501021001KA1999N-00391MD1310341+9999
0051106370999991929040612004+50050+008600FM-12+003499999V0203601N00261220001CN0200001N9+00391-00611102481ADDAY101061GF102991021011012501001001MD1310061+9999
0050106370999991929040706004+50050+008600FM-12+003499999V0209999900101030001CN0100001N9+00221-00171102341ADDAY121061GF108991021051012501021001KA1999N+00001
0050106370999991929040806004+50050+008600FM-12+003499999V0209999900461012301CN0020001N9+00721+00501102191ADDAY121061GF107991071051012501001001KA1999N+00611
0051106370999991929040812004+50050+008600FM-12+003499999V0203201N00101030001CN0100001N9+01111+00221102121ADDAY121061GF108991041051008001021001MD1810061+9999
0070106370999991929040906004+50050+008600FM-12+003499999V0209991C00001004501CN0010001N9+00611+00221101711ADDAY121061GF108991081051004501999999KA1999N+00501MD1810061+9999MW1101
0051106370999991929040912004+50050+008600FM-12+003499999V0209991C000019999999N0040001N9+01391-00111101321ADDAY111061GF107991999091012501001001MD1810261+9999
0075106370999991929041006004+50050+008600FM-12+003499999V0209999900261012301CN0100001N9+00611+00221101461ADDAA199002091AY161061GF106991061051012501001001KA1999N+00391MD1110201+9999
0051106370999991929041012004+50050+008600FM-12+003499999V0202701N001019999999N0100001N9+00891-00221101491ADDAY121061GF108991999011008001001001MD1610061+9999
0081106370999991929041106004+50050+008600FM-12+003499999V0209999900101030001CN0020001N9+00501+00441101431ADDAA199001091AY161061GF108991041061004501021001KA1999N+00391MD1110261+9999MW1611
0057106370999991929041112004+50050+008600FM-12+003499999V0200901N00461030001CN0020001N9+00781+00391101581ADDAY121061GF108991041061008001021001MD1310061+9999MW1801
0081106370999991929041206004+50050+008600FM-12+003499999V0209999900671004501CN0020001N9+00391+00331101501ADDAA199000591AY161061GF108991081051004501999999KA1999N+00391MD1710061+9999MW1211
0037106370999991929041212004+50050+008600FM-12+003499999V0200201N00261007801CN0040001N9+01111+00501101461ADDAY121061GF108991061051008001021001
0081106370999991929041306004+50050+008600FM-12+003499999V0209999900101004501CN0020001N9+00611+00561101551ADDAA199001091AY161061GF108991081061004501999999KA1999N+00501MD1210061+9999MW1601
0037106370999991929041312004+50050+008600FM-12+003499999V0201801N002619999999N0040001N9+01111+00221101591ADDAY111061GF107991999091008001001001
0075106370999991929041406004+50050+008600FM-12+003499999V02099999002619999999N0020001N9+00281+00221101681ADDAA199000591AY161061GF106991999051012501001001KA1999N+00221MD1310061+9999
0057106370999991929041412004+50050+008600FM-12+003499999V0203201N00101007801CN0020001N9+00611+00561101621ADDAY181061GF108991081051008001999999MD1310061+9999MW1801
0064106370999991929041506004+50050+008600FM-12+003499999V0209999900461220001CN0020001N9+00221+00171101041ADDAY101061GF100991001001999999001001KA1999N+00001MD1710061+9999
0051106370999991929041512004+50050+008600FM-12+003499999V0201401N00261220001CN0100001N9+01281+00111100911ADDAY101061GF104991041011012501001081MD1610061+9999
0050106370999991929041606004+50050+008600FM-12+003499999V02099999002619999999N0020001N9+00721+00501101331ADDAY111061GF108991999001022501021001KA1999N+00501
0051106370999991929041612004+50050+008600FM-12+003499999V0200701N00671012301CN0100001N9+01281+00391101671ADDAY121061GF106991061051012501001001MD1210141+9999
0064106370999991929041706004+50050+008600FM-12+003499999V0209999900461220001CN0100001N9+00391+00001102961ADDAY101061GF100991001001999999001001KA1999N+00111MD1210261+9999
0037106370999991929041712004+50050+008600FM-12+003499999V0200501N00261220001CN0500001N9+01501-00061102971ADDAY101061GF100991001001999999001001
0070106370999991929041806004+50050+008600FM-12+003499999V0209999900101220001CN0010001N9+00391+00001103201ADDAY101061GF104991001001999999001091KA1999N+00111MD1310061+9999MW1101
0051106370999991929041812004+50050+008600FM-12+003499999V0203201N00101220001CN0100001N9+01891+00331102871ADDAY101061GF102991001001999999001021MD1810201+9999
0050106370999991929041906004+50050+008600FM-12+003499999V0209999900671220001CN0020001N9+00721+00331102481ADDAY141061GF104991001001999999001021KA1999N+00281
0051106370999991929041912004+50050+008600FM-12+003499999V0202301N00931220001CN0100001N9+02281+00671101871ADDAY101061GF102991001001999999001021MD1810341+9999
0064106370999991929042006004+50050+008600FM-12+003499999V02099999004619999999N0100001N9+01281+00111101131ADDAY101061GF106991999001022501021081KA1999N+00891MD1610061+9999
0051106370999991929042012004+50050+008600FM-12+003499999V0203601N00671030001CN0200001N9+00891+00441101471ADDAY121061GF108991041091012501021001MD1210341+9999
0064106370999991929042106004+50050+008600FM-12+003499999V0209999900461220001CN0200001N9+00391-00171101971ADDAY101061GF102991021011017501001001KA1999N+00111MD1110141+9999
0051106370999991929042112004+50050+008600FM-12+003499999V0203401N00261220001CN0200001N9+01001-00111101761ADDAY101061GF104991999091012501001001MD1810141+9999
0050106370999991929042206004+50050+008600FM-12+003499999V0209999900671220001CN0200001N9+00221+00001101861ADDAY141061GF101991011011012501001001KA1999N-00111
0051106370999991929042212004+50050+008600FM-12+003499999V0200701N00931220001CN0500001N9+01111-00331101461ADDAY101061GF100991001001999999001001MD1810201+9999
0064106370999991929042306004+50050+008600FM-12+003499999V0209999900261220001CN0020001N9+00281-00501101101ADDAY101061GF102991001001999999001021KA1999N-00111MD1410001+9999
0051106370999991929042312004+50050+008600FM-12+003499999V0203201N00261075001CN0100001N9+01281+00111100921ADDAY101061GF106991011011017501001081MD1610141+9999
0064106370999991929042406004+50050+008600FM-12+003499999V0209999900261220001CN0040001N9+00501+00111101431ADDAY101061GF104991011011022501001081KA1999N+00111MD1110141+9999
0051106370999991929042412004+50050+008600FM-12+003499999V0202501N00261220001CN0100001N9+01111-00331101221ADDAY111061GF104991041011012501001081MD1810201+9999
0064106370999991929042506004+50050+008600FM-12+003499999V0209999900671220001CN0200001N9+00391+00001101551ADDAY111061GF104991999091012501001001KA1999N+00221MD1310201+9999
0051106370999991929042512004+50050+008600FM-12+003499999V0203201N00671220001CN0200001N9+01001-00111101531ADDAY111061GF104991041011012501001001MD1990061+9999
0050106370999991929042606004+50050+008600FM-12+003499999V02099999001019999999N0040001N9+00281-00111101471ADDAY141061GF108991999051008001001001KA1999N+00111
0051106370999991929042612004+50050+008600FM-12+003499999V0203601N00101075001CN0040001N9+00891+00061101201ADDAY121061GF107991041051012501001081MD1810141+9999
0050106370999991929042706004+50050+008600FM-12+003499999V0209999900461220001CN0040001N9+00781+00561100711ADDAY101061GF102991011011017501001081KA1999N+00721
0051106370999991929042712004+50050+008600FM-12+003499999V0202501N009319999999N0100001N9+01391+00221100481ADDAY111061GF106991999091012501001001MD1810141+9999
0064106370999991929042806004+50050+008600FM-12+003499999V0209999900461220001CN0040001N9+00721+00331100931ADDAY101061GF104991001001999999001021KA1999N+00391MD1110141+9999
0051106370999991929042812004+50050+008600FM-12+003499999V0201401N00461220001CN0200001N9+01721+00501100611ADDAY101061GF104991041011012501001081MD1810201+9999
0064106370999991929042906004+50050+008600FM-12+003499999V0209999900461030001CN0100001N9+00891+00281100031ADDAY101061GF108991041051012501021001KA1999N+00781MD1990201+9999
0051106370999991929042912004+50050+008600FM-12+003499999V0209991C00001075001CN0100001N9+02221+00611099551ADDAY111061GF106991011011022501001081MD1710201+9999
0075106370999991929043006004+50050+008600FM-12+003499999V0209999900671220001CN0040001N9+01221+01001999999ADDAA199001091AY101061GF104991999001022501031081KA1999N+00721MD1010061+9999
0051106370999991929043012004+50050+008600FM-12+003499999V0202001N00931075001CN0100001N9+01611+00941099931ADDAY181061GF107991021051008001001081MD1990061+9999
0075106370999991929050106004+50050+008600FM-12+003499999V0209999900101012301CN0100001N9+00611+00221100991ADDAA199000591AY161061GF108991061051012501021001KA1999N+00611MD1310201+9999
0037106370999991929050112004+50050+008600FM-12+003499999V0200201N00101030001CN0100001N9+01001+00391101011ADDAY161061GF107991041051017501021001
0086106370999991929050206004+50050+008600FM-12+003499999V0209999900101007801CN0020001N9+00501+00281101181ADDAA199000391AY161061GF108991081051008001999999KA1999N+99999MW1611EQDQ01 +00782ATMN  
0037106370999991929050212004+50050+008600FM-12+003499999V0200501N00261007801CN0040001N9+00891+00441101111ADDAY161061GF108991061051008001021001
0081106370999991929050306004+50050+008600FM-12+003499999V0209999900671030001CN0020001N9+00501+00281101001ADDAA199003091AY161061GF108991041061008001021001KA1999N+00501MD1010141+9999MW1631
0051106370999991929050312004+50050+008600FM-12+003499999V0203601N004619999999N0040001N9+01391+00721100911ADDAY121061GF107991999091012501001001MD1810061+9999
0064106370999991929050406004+50050+008600FM-12+003499999V0209999900101030001CN0040001N9+01111+00671101811ADDAY121061GF106991041051012501031001KA1999N+00781MD1310261+9999
0051106370999991929050412004+50050+008600FM-12+003499999V0203201N002619999999N0100001N9+01611+00441101901ADDAY111061GF106991999091017501001001MD1510001+9999
0064106370999991929050506004+50050+008600FM-12+003499999V0209999900101030001CN0040001N9+01001+00611101801ADDAY101061GF106991041051017501021001KA1999N+00721MD1510061+9999
0051106370999991929050512004+50050+008600FM-12+003499999V0202001N00931030001CN0100001N9+02111+00891101371ADDAY111061GF106991041011017501021001MD1610061+9999
0061106370999991929050606004+50050+008600FM-12+003499999V0209999900101220001CN0040001N9+01501+00831101011ADDAA199000691AY111061GF102991001001999999001021KA1999N+01001
0051106370999991929050612004+50050+008600FM-12+003499999V0202501N00671220001CN0100001N9+02721+00561100551ADDAY111061GF101991001001999999001021MD1810261+9999
0075106370999991929050706004+50050+008600FM-12+003499999V02099999006719999999N0040001N9+01221+01001101221ADDAA199000391AY161061GF106991999091004501001001KA1999N+01221MD1310141+9999
0051106370999991929050712004+50050+008600FM-12+003499999V0202501N00671220001CN0100001N9+01891+00671101311ADDAY111061GF104991021011012501021001MD1110061+9999
0064106370999991929050806004+50050+008600FM-12+003499999V0209991C00001220001CN0040001N9+01221+00781101631ADDAY101061GF104991041051012501021001KA1999N+00721MD1010001+9999
0037106370999991929050812004+50050+008600FM-12+003499999V0209991C000019999999N0100001N9+02111+99999101331ADDAY111061GF106991999999012501999999
0075106370999991929050906004+50050+008600FM-12+003499999V0209991C000019999999N0040001N9+01221+01001101271ADDAA199000691AY121061GF107991999051012501001001KA1999N+01111MD1210201+9999
0037106370999991929050912004+50050+008600FM-12+003499999V0203201N00261030001CN0100001N9+01391+00941101571ADDAY161061GF108991041051008001021001
0075106370999991929051006004+50050+008600FM-12+003499999V0209999900101220001CN0100001N9+01111+00891102301ADDAA199001091AY161061GF101991011011012501001001KA1999N+00721MD1310201+9999
0051106370999991929051012004+50050+008600FM-12+003499999V0200501N00101220001CN0100001N9+01721+00171102261ADDAY111061GF104991041011004501021001MD1810061+9999
0064106370999991929051106004+50050+008600FM-12+003499999V0209999900101220001CN0020001N9+01001+00781102401ADDAY101061GF101991011011017501001001KA1999N+00611MD1310061+9999
0051106370999991929051112004+50050+008600FM-12+003499999V0203401N00101220001CN0100001N9+02221+00611102121ADDAY101061GF102991021011017501001001MD1810061+9999
0050106370999991929051206004+50050+008600FM-12+003499999V0209999900261015001CN0040001N9+01221+00781101971ADDAY111061GF108991061051017501021001KA1999N+01001
0051106370999991929051212004+50050+008600FM-12+003499999V0200701N00261030001CN0040001N9+02111+00501101551ADDAY111061GF106991021091017501031001MD1610061+9999
0064106370999991929051306004+50050+008600FM-12+003499999V0209999900101220001CN0100001N9+01391+00721101681ADDAY101061GF102991001001999999021081KA1999N+01111MD1310201+9999
0037106370999991929051312004+50050+008600FM-12+003499999V0202701N00101220001CN0100001N9+01891+00941101761ADDAY111061GF104991999091012501001001
0050106370999991929051406004+50050+008600FM-12+003499999V0209991C00001220001CN0020001N9+01001+00781101801ADDAY141061GF106991001001999999031081KA1999N+00721
0051106370999991929051412004+50050+008600FM-12+003499999V0202501N00101030001CN0100001N9+01891+00671101491ADDAY121061GF107991021051017501021001MD1810141+9999
0050106370999991929051506004+50050+008600FM-12+003499999V0209999900261220001CN0040001N9+01221+01001101701ADDAY101061GF101991001001999999001081KA1999N+00891
0050106370999991929051606004+50050+008600FM-12+003499999V02099999002619999999N0040001N9+01221+00781101811ADDAY111061GF106991999001017501021001KA1999N+00781
0051106370999991929051612004+50050+008600FM-12+003499999V0202701N00261220001CN0100001N9+02111+00891101861ADDAY111061GF104991041011008001001091MD1310061+9999
0064106370999991929051706004+50050+008600FM-12+003499999V0209999900461030001CN0040001N9+01221+00781101891ADDAY111061GF106991011011012501021001KA1999N+00891MD1310061+9999
0051106370999991929051712004+50050+008600FM-12+003499999V0200501N004619999999N0100001N9+01501+00611101831ADDAY111061GF106991999011012501001001MD1810061+9999
0067106370999991929051806004+50050+008600FM-12+003499999V0209999900101030001CN0040001N9+01001+00611101791ADDAA199000391AY161061GF108991041051008001021001KA1999N+00891MW1611
0057106370999991929051812004+50050+008600FM-12+003499999V0203601N00261004501CN0040001N9+01111+01061101601ADDAY161061GF108991999061004501001001MD1810061+9999MW1611
0075106370999991929051906004+50050+008600FM-12+003499999V0209999900261002401CN0040001N9+00781+00561101711ADDAA199003091AY161061GF108991061061002501021001KA1999N+00781MD1310141+9999
0037106370999991929051912004+50050+008600FM-12+003499999V0200901N00461220001CN0200001N9+01611+00441101721ADDAY111061GF104991041011012501001001
0064106370999991929052006004+50050+008600FM-12+003499999V0209999900261220001CN0100001N9+00721+00331102071ADDAY101061GF101991001001999999001021KA1999N+00281MD1110061+9999
0051106370999991929052012004+50050+008600FM-12+003499999V0200701N00461220001CN0200001N9+01891+00331101801ADDAY101061GF101991011051999999001001MD1810061+9999
0064106370999991929052106004+50050+008600FM-12+003499999V0209999900101220001CN0100001N9+01221+00781101871ADDAY101061GF101991999001999999031001KA1999N+00611MD1310141+9999
0051106370999991929052112004+50050+008600FM-12+003499999V0200201N00101220001CN0200001N9+02281+00671101671ADDAY101061GF102991011011022501001021MD1810141+9999
0064106370999991929052206004+50050+008600FM-12+003499999V0209999900101220001CN0040001N9+01391+00941101791ADDAY101061GF100991001001999999001001KA1999N+00891MD1310061+9999
0051106370999991929052212004+50050+008600FM-12+003499999V0200501N00261220001CN0100001N9+02611+00941101641ADDAY101061GF102991021011017501001001MD1810141+9999
0050106370999991929052306004+50050+008600FM-12+003499999V0209999900261220001CN0040001N9+01611+01171101671ADDAY101061GF102991001001999999001021KA1999N+01111
0051106370999991929052312004+50050+008600FM-12+003499999V0202001N002619999999N0040001N9+02281+00671101351ADDAY111061GF106991999091004501001001MD1810141+9999
0064106370999991929052406004+50050+008600FM-12+003499999V0209999900101220001CN0040001N9+01611+01171101331ADDAY101061GF102991001001999999001021KA1999N+01111MD1310141+9999
0051106370999991929052412004+50050+008600FM-12+003499999V0202501N00101030001CN0100001N9+02781+01111101311ADDAY101061GF106991021091012501021001MD1810061+9999
0064106370999991929052506004+50050+008600FM-12+003499999V0209999900101220001CN0020001N9+01611+01331101831ADDAY101061GF100991001001999999001001KA1999N+01221MD1310141+9999
0051106370999991929052512004+50050+008600FM-12+003499999V0203401N00101220001CN0100001N9+03001+00781101681ADDAY101061GF104991021011012501021001MD1810141+9999
0050106370999991929052606004+50050+008600FM-12+003499999V0209999900261220001CN0100001N9+02001+01331101601ADDAY101061GF100991001001999999001001KA1999N+01501
0051106370999991929052612004+50050+008600FM-12+003499999V0200501N00261220001CN0100001N9+03001+01281101321ADDAY101061GF102991021011017501001021MD1810141+9999
0064106370999991929052706004+50050+008600FM-12+003499999V0209999900461220001CN0040001N9+02001+01561101351ADDAY101061GF100991001001999999001001KA1999N+01611MD1310061+9999
0051106370999991929052712004+50050+008600FM-12+003499999V0200701N00671220001CN0100001N9+03111+01391101191ADDAY101061GF102991021011017501001001MD1810061+9999
0064106370999991929052806004+50050+008600FM-12+003499999V0209999900461220001CN0200001N9+01891+01441101701ADDAY101061GF101991999001022501021021KA1999N+01391MD1310141+9999
0051106370999991929052812004+50050+008600FM-12+003499999V0200501N00261220001CN0500001N9+02891+01221101621ADDAY101061GF102991011011017501001081MD1810141+9999
0050106370999991929052906004+50050+008600FM-12+003499999V0209999900261220001CN0100001N9+01781+01111101901ADDAY101061GF102991999001022501021081KA1999N+01391
0051106370999991929052912004+50050+008600FM-12+003499999V0203201N00101075001CN0040001N9+02611+01331101671ADDAY101061GF107991021091017501001081MD1610141+9999
0064106370999991929053006004+50050+008600FM-12+003499999V0209999900671220001CN0040001N9+01501+01061102171ADDAY101061GF100991001001999999001001KA1999N+01111MD1310141+9999
0051106370999991929053012004+50050+008600FM-12+003499999V0200501N00671220001CN0100001N9+02281+01061102061ADDAY101061GF102991021011017501001001MD1810061+9999
0064106370999991929053106004+50050+008600FM-12+003499999V0209999900671220001CN0100001N9+01281+00831101831ADDAY101061GF100991001001999999001001KA1999N+00891MD1810061+9999
0051106370999991929053112004+50050+008600FM-12+003499999V0200701N00101220001CN0200001N9+02501+00831101551ADDAY101061GF100991001001999999001001MD1810141+9999
0051106370999991929060912004+50050+008600FM-12+003499999V0209991C000019999999N0100001N9+02111+01171101701ADDAY161061GF106991999011012501001001MD1210141+9999
0037106370999991929061012004+50050+008600FM-12+003499999V0200501N006719999999N0100001N9+02111+01171102031ADDAY111061GF108991999999022501999999
0051106370999991929061112004+50050+008600FM-12+003499999V0200701N00461220001CN0100001N9+02391+00781102671ADDAY101061GF101991011011012501001001MD1610141+9999
0037106370999991929062112004+50050+008600FM-12+003499999V0203601N00261220001CN0100001N9+02281+00671102391ADDAY101061GF102991021011012501001001
0051106370999991929062612004+50050+008600FM-12+003499999V0209991C00001007801CN0100001N9+01721+01061101541ADDAY111061GF108991061051008001021001MD1110141+9999
0037106370999991929062812004+50050+008600FM-12+003499999V0209991C00001220001CN0200001N9+02221+00611102041ADDAY101061GF104991041011012501001001
0051106370999991929071112004+50050+008600FM-12+003499999V0200701N001019999999N0040001N9+02721+01061102801ADDAY111061GF106991999999022501999999MD1810141+9999
0051106370999991929071512004+50050+008600FM-12+003499999V0200701N00261220001CN0500001N9+02781+00611102381ADDAY101061GF101991011011017501001001MD1810201+9999
0051106370999991929071612004+50050+008600FM-12+003499999V0203601N00101220001CN0100001N9+02891+01221102021ADDAY101061GF100991001001999999001001MD1810201+9999
0051106370999991929072012004+50050+008600FM-12+003499999V0200501N00671220001CN0100001N9+03111+02111101811ADDAY191061GF104991021091017501001081MD1810141+9999
0051106370999991929072512004+50050+008600FM-12+003499999V0200501N004619999999N0040001N9+02281+01611101191ADDAY161061GF106991999999022501999999MD1990061+9999
0051106370999991929072612004+50050+008600FM-12+003499999V0200501N00671030001CN0040001N9+01501+01281101621ADDAY161061GF108991041061008001021001MD1210061+9999
0037106370999991929072712004+50050+008600FM-12+003499999V0200201N004619999999N0100001N9+01781+99999102331ADDAY111061GF107991021051008001999999
0037106370999991929080912004+50050+008600FM-12+003499999V0209991C00001030001CN0040001N9+01891+00941101661ADDAY121061GF107991021051012501021001
0051106370999991929081312004+50050+008600FM-12+003499999V0200501N00261220001CN0100001N9+02501+00831102371ADDAY101061GF101991011011012501001001MD1810141+9999
0037106370999991929081512004+50050+008600FM-12+003499999V0203601N004619999999N0100001N9+02781+99999101631ADDAY111061GF106991999999012501999999
0051106370999991929081912004+50050+008600FM-12+003499999V0200701N00261075001CN0100001N9+02001+01061102111ADDAY111061GF106991041011012501001081MD1310061+9999
0051106370999991929082012004+50050+008600FM-12+003499999V0200501N00261030001CN0100001N9+02111+00891102061ADDAY111061GF107991041051008001021001MD1610141+9999
0037106370999991929082112004+50050+008600FM-12+003499999V0200501N00101075001CN0100001N9+02001+00781102171ADDAY111061GF106991041051012501001081
0064106370999991929090106004+50050+008600FM-12+003499999V0209991C00001220001CN0100001N9+01721+01501101681ADDAY101061GF100991001001999999001001KA1999N+01391MD1110141+9999
0051106370999991929090112004+50050+008600FM-12+003499999V0202501N00101220001CN0040001N9+03281+01561101581ADDAY101061GF101991011011012501001001MD1810061+9999
0064106370999991929090206004+50050+008600FM-12+003499999V0209999900101220001CN0020001N9+02001+01721101991ADDAY101061GF102991001001999999001021KA1999N+01781MD1310061+9999
0051106370999991929090212004+50050+008600FM-12+003499999V0200201N00101220001CN0040001N9+03281+01561101811ADDAY101061GF102991021011012501021001MD1810141+9999
0050106370999991929090306004+50050+008600FM-12+003499999V0209999900461220001CN0100001N9+01891+01441101971ADDAY101061GF101991001001999999001081KA1999N+01891
0051106370999991929090312004+50050+008600FM-12+003499999V0203601N00101220001CN0100001N9+03281+01561101661ADDAY101061GF101991011011012501001001MD1810201+9999
0064106370999991929090406004+50050+008600FM-12+003499999V0209999900261220001CN0020001N9+02001+01561101501ADDAY101061GF100991001001999999001001KA1999N+01721MD1010001+9999
0051106370999991929090412004+50050+008600FM-12+003499999V0203601N00101220001CN0100001N9+03281+01561101321ADDAY101061GF101991011011012501001001MD1810141+9999
0064106370999991929090506004+50050+008600FM-12+003499999V0209991C00001220001CN0020001N9+01781+01561101631ADDAY141061GF102991001001999999031081KA1999N+01611MD1210141+9999
0051106370999991929090512004+50050+008600FM-12+003499999V0202701N00101220001CN0040001N9+03221+01501101461ADDAY101061GF102991021091017501001001MD1710141+9999
0050106370999991929090606004+50050+008600FM-12+003499999V0209991C00001220001CN0020001N9+01611+01331101811ADDAY141061GF104991999001022501021081KA1999N+01501
0037106370999991929090612004+50050+008600FM-12+003499999V0203201N00671075001CN0040001N9+02721+01441101711ADDAY111061GF107991041091012501001081
0064106370999991929090706004+50050+008600FM-12+003499999V0209999900101030001CN0200001N9+01281+00611102741ADDAY101061GF106991041051017501031001KA1999N+01001MD1310201+9999
0051106370999991929090712004+50050+008600FM-12+003499999V0203401N00261220001CN0100001N9+02111+00891102661ADDAY111061GF102991021011012501001001MD1810141+9999
0064106370999991929090806004+50050+008600FM-12+003499999V0209991C00001012301CN0020001N9+01391+00941102671ADDAY121061GF108991061051012501021001KA1999N+01111MD1410001+9999
0051106370999991929090812004+50050+008600FM-12+003499999V0202701N001019999999N0040001N9+02001+01561102391ADDAY111061GF106991999011012501001001MD1010061+9999
0064106370999991929090906004+50050+008600FM-12+003499999V0209999900261220001CN0020001N9+01281+01061101911ADDAY141061GF100991001001999999001001KA1999N+01001MD1710141+9999
0051106370999991929090912004+50050+008600FM-12+003499999V0203201N00261220001CN0100001N9+02781+01111101431ADDAY101061GF100991001001999999001001MD1810201+9999
0064106370999991929091006004+50050+008600FM-12+003499999V0209991C00001220001CN0020001N9+01611+01331101901ADDAY141061GF102991001001999999001021KA1999N+01391MD1310201+9999
0051106370999991929091012004+50050+008600FM-12+003499999V0202501N00101220001CN0040001N9+02611+01331101951ADDAY101061GF104991021051012501001081MD1990061+9999
0064106370999991929091106004+50050+008600FM-12+003499999V0209999900261220001CN0100001N9+01221+00781102501ADDAY101061GF100991001001999999001001KA1999N+01001MD1310141+9999
0051106370999991929091112004+50050+008600FM-12+003499999V0201101N00101220001CN0100001N9+02611+00941102211ADDAY101061GF100991001001999999001001MD1810201+9999
0064106370999991929091206004+50050+008600FM-12+003499999V0209999900101220001CN0040001N9+01391+01171102271ADDAY101061GF102991001001999999001081KA1999N+01221MD1310061+9999
0051106370999991929091212004+50050+008600FM-12+003499999V0209991C00001220001CN0020001N9+02781+01501102021ADDAY101061GF104991999999022501999999MD1710201+9999
0061106370999991929091306004+50050+008600FM-12+003499999V0209999900101030001CN0020001N9+01721+01671101891ADDAA199002091AY121061GF108991021061012501021001KA1999N+01611
0051106370999991929091312004+50050+008600FM-12+003499999V0201101N001019999999N0040001N9+02391+01441101701ADDAY161061GF106991999999022501999999MD1810201+9999
0067106370999991929091406004+50050+008600FM-12+003499999V0209999900101004501CN0010001N9+01781+01721101641ADDAA199006091AY191061GF108991081051004501999999KA1999N+01721MW1101
0037106370999991929091412004+50050+008600FM-12+003499999V0202501N00101075001CN0020001N9+02221+01781101731ADDAY141061GF106991041051012501001081
0070106370999991929091506004+50050+008600FM-12+003499999V0209991C00001004501CN0010001N9+01721+01671101991ADDAY141061GF106991061051004501001001KA1999N+01611MD1310141+9999MW1101
0037106370999991929091512004+50050+008600FM-12+003499999V0203401N00101030001CN0040001N9+02391+01721102001ADDAY141061GF106991021051008001021001
0064106370999991929091606004+50050+008600FM-12+003499999V0209999900101004501CN0020001N9+01611+01561102151ADDAY141061GF106991061051004501001001KA1999N+01501MD1310061+9999
0051106370999991929091612004+50050+008600FM-12+003499999V0200501N00261220001CN0040001N9+02611+01611101971ADDAY101061GF102991001001999999001081MD1810141+9999
0050106370999991929091706004+50050+008600FM-12+003499999V0209999900101220001CN0040001N9+01501+01281101971ADDAY101061GF101991001001999999001021KA1999N+01391
0051106370999991929091712004+50050+008600FM-12+003499999V0200501N00101220001CN0100001N9+02721+00561101671ADDAY101061GF102991001001999999001021MD1810261+9999
0050106370999991929091806004+50050+008600FM-12+003499999V0209999900101220001CN0100001N9+01111+00671101531ADDAY111061GF104991001001999999021081KA1999N+00891
0051106370999991929091812004+50050+008600FM-12+003499999V0201401N001019999999N0100001N9+02391+01111101171ADDAY111061GF106991999999022501999999MD1810201+9999
0061106370999991929091906004+50050+008600FM-12+003499999V0209999900261002401CN0020001N9+01611+01561101271ADDAA199004091AY191061GF106991061051002501001001KA1999N+01501
0051106370999991929091912004+50050+008600FM-12+003499999V0202301N004619999999N0040001N9+02281+01331101201ADDAY111061GF106991999091008001001001MD1810141+9999
0064106370999991929092006004+50050+008600FM-12+003499999V0209999900671007801CN0040001N9+01721+01501101041ADDAY121061GF107991061051008001021001KA1999N+01501MD1710061+9999
0051106370999991929092012004+50050+008600FM-12+003499999V0202501N01231030001CN0020001N9+02001+01061100431ADDAY111061GF107991041051012501021001MD1810341+9999
0075106370999991929092106004+50050+008600FM-12+003499999V0209999900461220001CN0200001N9+01001+00781101471ADDAA199000691AY161061GF104991021051012501021001KA1999N+00891MD1310201+9999
0051106370999991929092112004+50050+008600FM-12+003499999V0202501N00931030001CN0200001N9+01611+00441101361ADDAY111061GF108991041091008001021001MD1810141+9999
0075106370999991929092206004+50050+008600FM-12+003499999V02099999002619999999N0040001N9+01221+00781101711ADDAA199000391AY181061GF106991999061008001001001KA1999N+01111MD1310261+9999
0051106370999991929092212004+50050+008600FM-12+003499999V0203201N006719999999N0100001N9+01721+00501101951ADDAY111061GF106991999091008001001001MD1310061+9999
0050106370999991929092306004+50050+008600FM-12+003499999V0209999900101030001CN0040001N9+01221+01001102431ADDAY121061GF108991041051008001021001KA1999N+01111
0037106370999991929092312004+50050+008600FM-12+003499999V0203201N002619999999N0040001N9+01611+01171102551ADDAY121061GF108991999999017501999999
0050106370999991929092406004+50050+008600FM-12+003499999V0209999900101030001CN0040001N9+01391+01171102741ADDAY121061GF108991041051012501021001KA1999N+01281
0037106370999991929092412004+50050+008600FM-12+003499999V0200501N002619999999N0200001N9+01721+99999102791ADDAY111061GF106991999999012501999999
0064106370999991929092506004+50050+008600FM-12+003499999V0209999900261220001CN0200001N9+00721+00501103411ADDAY101061GF100991001001999999001001KA1999N+00501MD1310201+9999
0051106370999991929092512004+50050+008600FM-12+003499999V0200501N00461220001CN0500001N9+02001+00781103371ADDAY101061GF101991001001999999001021MD1810061+9999
0050106370999991929092606004+50050+008600FM-12+003499999V0209999900461220001CN0020001N9+00721+00501103641ADDAY101061GF100991001001999999001001KA1999N+00611
0051106370999991929092612004+50050+008600FM-12+003499999V0200501N00101220001CN0100001N9+02111+00501103301ADDAY101061GF100991001001999999001001MD1810201+9999
0050106370999991929092706004+50050+008600FM-12+003499999V0209991C00001220001CN0020001N9+00721+00501102971ADDAY141061GF104991001001999999001021KA1999N+00501
0051106370999991929092712004+50050+008600FM-12+003499999V0209991C00001220001CN0040001N9+02221+00611102711ADDAY101061GF101991001001999999001021MD1810201+9999
0050106370999991929092806004+50050+008600FM-12+003499999V0209999900101220001CN0020001N9+00721+00671102671ADDAY141061GF101991001001999999001021KA1999N+00501
0051106370999991929092812004+50050+008600FM-12+003499999V0202001N00101220001CN0040001N9+02391+00781102401ADDAY101061GF102991001001999999031021MD1810201+9999
0070106370999991929092906004+50050+008600FM-12+003499999V0209991C00001220001CN0010001N9+00611+00561102401ADDAY141061GF104991001001999999001021KA1999N+00501MD1110061+9999MW1101
0051106370999991929092912004+50050+008600FM-12+003499999V0202301N00261220001CN0040001N9+02111+00891102201ADDAY101061GF104991011011017501001021MD1810141+9999
0064106370999991929093006004+50050+008600FM-12+003499999V02099999001019999999N0020001N9+01281+01061102211ADDAY141061GF106991999001022501031081KA1999N+01111MD1410001+9999
0051106370999991929093012004+50050+008600FM-12+003499999V0202301N00461220001CN0040001N9+02281+01061102001ADDAY101061GF102991021011012501001021MD1810141+9999
0081106370999991929100106004+50050+008600FM-12+003499999V0209991C00001030001CN0040001N9+01281+01221101601ADDAA199001091AY161061GF108991041061008001021001KA1999N+01281MD1610061+9999MW1611
0057106370999991929100112004+50050+008600FM-12+003499999V0202001N00261030001CN0040001N9+01721+01501101391ADDAY161061GF108991041061008001021001MD1710141+9999MW1611
0075106370999991929100206004+50050+008600FM-12+003499999V0209999900461007801CN0040001N9+01501+01281101151ADDAA199003091AY161061GF107991061051008001021001KA1999N+01111MD1610061+9999
0057106370999991929100212004+50050+008600FM-12+003499999V0202301N01231004501CN0100001N9+01781+01561100911ADDAY161061GF108991061061004501021001MD1710141+9999MW1801
0081106370999991929100306004+50050+008600FM-12+003499999V02099999006719999999N0040001N9+01611+01561100741ADDAA199034091AY161061GF107991999091008001001001KA1999N+01281MD1710201+9999MW1161
0051106370999991929100312004+50050+008600FM-12+003499999V0202001N01541030001CN0100001N9+02221+01281100591ADDAY121061GF107991041051008001021001MD1810141+9999
0061106370999991929100406004+50050+008600FM-12+003499999V0209999900671030001CN0100001N9+01781+01111101151ADDAA199001091AY161061GF106991041051008001031001KA1999N+01721
0051106370999991929100412004+50050+008600FM-12+003499999V0202301N00671220001CN0200001N9+02501+01221100991ADDAY111061GF104991041051012501001001MD1810141+9999
0050106370999991929100506004+50050+008600FM-12+003499999V0209999900671030001CN0100001N9+01891+01221100831ADDAY111061GF106991041051017501031001KA1999N+01501
0051106370999991929100512004+50050+008600FM-12+003499999V0203401N00101030001CN0200001N9+01781+01331100971ADDAY111061GF107991041051008001021001MD1310061+9999
0064106370999991929100606004+50050+008600FM-12+003499999V0209991C000019999999N0100001N9+01221+01171100471ADDAY121061GF108991999001012501021001KA1999N+01111MD1510141+9999
0057106370999991929100612004+50050+008600FM-12+003499999V0203201N00101015001CN0100001N9+01611+01331100171ADDAY161061GF108991081061017501999999MD1810141+9999MW1501
0075106370999991929100706004+50050+008600FM-12+003499999V02099999004619999999N0040001N9+01001+00781101531ADDAA199001091AY111061GF106991999051012501001001KA1999N+00891MD1210261+9999
0051106370999991929100712004+50050+008600FM-12+003499999V0202501N00261075001CN0100001N9+01611+00721101571ADDAY111061GF107991021011012501001081MD1410001+9999
0064106370999991929100806004+50050+008600FM-12+003499999V02099999001019999999N0040001N9+00781+00721101131ADDAY101061GF106991999001022501031081KA1999N+00611MD1510141+9999
0051106370999991929100812004+50050+008600FM-12+003499999V0202301N00101030001CN0040001N9+01501+00831100791ADDAY111061GF108991041051012501021001MD1610201+9999
0081106370999991929100906004+50050+008600FM-12+003499999V0209999900461004501CN0100001N9+01221+01001100611ADDAA199004091AY161061GF106991061061004501001001KA1999N+01221MD1210261+9999MW1601
0057106370999991929100912004+50050+008600FM-12+003499999V0202501N01541220001CN0100001N9+01281+00111101261ADDAY111061GF104991021091008001999999MD1310261+9999MW1161
0081106370999991929101006004+50050+008600FM-12+003499999V02099999002619999999N0040001N9+00781+00561102301ADDAA199000591AY121061GF107991999061008001001001KA1999N+00781MD1310261+9999MW1501
0051106370999991929101012004+50050+008600FM-12+003499999V0202501N00931075001CN0100001N9+01281+00391102421ADDAY161061GF106991041011008001001081MD1610061+9999
0067106370999991929101106004+50050+008600FM-12+003499999V0209999900671030001CN0040001N9+01111+00891102461ADDAA199000691AY161061GF108991041061008001021001KA1999N+01111MW1211
0094106370999991929101206004+50050+008600FM-12+003499999V0209999900261030001CN0040001N9+01221+01001102511ADDAA199001091AY161061GF106991041051008001031001KA1999N+99999MD1210141+9999EQDQ01 +01892ATMN  
0051106370999991929101212004+50050+008600FM-12+003499999V0203201N00461220001CN0100001N9+01611+00721102641ADDAY111061GF104991999011012501001001MD1310061+9999
0064106370999991929101306004+50050+008600FM-12+003499999V0209999900101012301CN0040001N9+01001+00781102951ADDAY111061GF106991061051012501001001KA1999N+01001MD1310061+9999
0051106370999991929101312004+50050+008600FM-12+003499999V0202001N00101220001CN0040001N9+01781+00891102881ADDAY101061GF102991021051022501001081MD1810061+9999
0050106370999991929101406004+50050+008600FM-12+003499999V0209999900101220001CN0020001N9+00781+00721103071ADDAY141061GF101991011011022501001001KA1999N+00721
0051106370999991929101412004+50050+008600FM-12+003499999V0209991C00001220001CN0040001N9+01891+00671102911ADDAY101061GF104991011011017501001081MD1810061+9999
0056106370999991929101506004+50050+008600FM-12+003499999V0209991C00001220001CN0010001N9+00721+00671103181ADDAY141061GF102991001001999999001021KA1999N+00611MW1101
0051106370999991929101512004+50050+008600FM-12+003499999V0200501N00101220001CN0100001N9+01781+00891103041ADDAY101061GF101991011011017501001001MD1010141+9999
0064106370999991929101606004+50050+008600FM-12+003499999V0209999900101220001CN0020001N9+00501+00441102471ADDAY141061GF102991001001999999001021KA1999N+00501MD1510001+9999
0051106370999991929101612004+50050+008600FM-12+003499999V0201801N00101220001CN0040001N9+01721+00831102001ADDAY101061GF102991001001999999001021MD1810261+9999
0064106370999991929101706004+50050+008600FM-12+003499999V0209999900101012301CN0010001N9+00891+00831101991ADDAY141061GF106991061051012501001001KA1999N+00781MD1210061+9999
0051106370999991929101712004+50050+008600FM-12+003499999V0202501N00261012301CN0040001N9+01501+00611101911ADDAY111061GF107991071051012501001001MD1810141+9999
0064106370999991929101806004+50050+008600FM-12+003499999V0209991C00001030001CN0020001N9+01001+00781101461ADDAY141061GF106991041051012501021001KA1999N+01001MD1610141+9999
0051106370999991929101812004+50050+008600FM-12+003499999V0202301N00101220001CN0040001N9+01721+00501101141ADDAY111061GF104991011011017501001081MD1810201+9999
0081106370999991929101906004+50050+008600FM-12+003499999V0209999900101030001CN0040001N9+01001+00781100481ADDAA199006091AY161061GF108991041061017501021001KA1999N+01001MD1710061+9999MW1211
0057106370999991929101912004+50050+008600FM-12+003499999V0203401N001019999999N0020001N9+01111+00891100381ADDAY161061GF108991999061008001001001MD1510061+9999MW1611
0061106370999991929102006004+50050+008600FM-12+003499999V0209991C00001012301CN0020001N9+00781+00721100521ADDAA199000591AY161061GF106991061051012501031001KA1999N+00721
0051106370999991929102012004+50050+008600FM-12+003499999V0209991C00001012301CN0040001N9+01221+00611100471ADDAY111061GF107991061051012501001081MD1810061+9999
0064106370999991929102106004+50050+008600FM-12+003499999V0209991C000019999999N0040001N9+00781+00561100871ADDAY111061GF106991999051008001001001KA1999N+00721MD1310201+9999
0037106370999991929102112004+50050+008600FM-12+003499999V0201401N00261012301CN0100001N9+01111+00501101061ADDAY111061GF106991061051012501001001
0050106370999991929102206004+50050+008600FM-12+003499999V0209999900261220001CN0020001N9+00391+00331101221ADDAY101061GF104991021051017501031001KA1999N+00391
0051106370999991929102212004+50050+008600FM-12+003499999V0201801N00101030001CN0040001N9+01391+00501101061ADDAY101061GF106991021051012501031001MD1810141+9999
0081106370999991929102306004+50050+008600FM-12+003499999V0209991C00001002401CN0010001N9+01001+00941100831ADDAA199000591AY161061GF108991081051002501999999KA1999N+01001MD1510001+9999MW1101
0057106370999991929102312004+50050+008600FM-12+003499999V0201601N00101075001CN0020001N9+01391+00941100801ADDAY141061GF106991041051012501001081MD1710061+9999MW1441
0056106370999991929102406004+50050+008600FM-12+003499999V0209991C00001220001CN0005001N9+00391+00331101041ADDAY141061GF102991001001999999001081KA1999N+00391MW1421
0067106370999991929102506004+50050+008600FM-12+003499999V0209999900461030001CN0020001N9+01001+00941100071ADDAA199000391AY161061GF108991021061008001021001KA1999N+00611MW1211
0043106370999991929102512004+50050+008600FM-12+003499999V0202301N00461004501CN0020001N9+01111+01061100131ADDAY161061GF108991081061004501999999MW1611
0075106370999991929102606004+50050+008600FM-12+003499999V0209999900101220001CN0020001N9+00721+00671100061ADDAA199000691AY141061GF104991041051012501001081KA1999N+00611MD1410001+9999
0051106370999991929102612004+50050+008600FM-12+003499999V0202301N001019999999N0040001N9+01221+00331099941ADDAY111061GF106991999091012501001001MD1810141+9999
0067106370999991929102706004+50050+008600FM-12+003499999V0209999900101030001CN0040001N9+00721+00501100711ADDAA199000391AY161061GF108991041061008001021001KA1999N+00391MW1611
0051106370999991929102712004+50050+008600FM-12+003499999V0202501N00461220001CN0100001N9+01001+00111100711ADDAY161061GF104991999091012501001001MD1810061+9999
0081106370999991929102806004+50050+008600FM-12+003499999V02099999004619999999N0040001N9+00501+00441101631ADDAA199000691AY181061GF106991999091008001001001KA1999N+00391MD1310261+9999MW1161
0081106370999991929102906004+50050+008600FM-12+003499999V0209999900671002401CN0020001N9+00611+00561100241ADDAA199006091AY161061GF108991081061002501999999KA1999N+00501MD1710341+9999MW1631
0057106370999991929102912004+50050+008600FM-12+003499999V0202301N00671030001CN0040001N9+01111+01061099791ADDAY161061GF106991041061008001021001MD1810141+9999MW1601
0061106370999991929103006004+50050+008600FM-12+003499999V0209999900461030001CN0040001N9+00891+00671100271ADDAA199002091AY161061GF106991041051008001021001KA1999N+00781
0057106370999991929103012004+50050+008600FM-12+003499999V0202301N00261007801CN0040001N9+00891+00831100501ADDAY161061GF107991999061008001001001MD1310061+9999MW1621
0064106370999991929103106004+50050+008600FM-12+003499999V0209999900671030001CN0100001N9+00781+00721101711ADDAY141061GF107991041051004501021001KA1999N+00721MD1310341+9999
0051106370999991929103112004+50050+008600FM-12+003499999V0200501N006719999999N0100001N9+01001+00611101931ADDAY161061GF107991999091012501001001MD1310061+9999
0050106370999991929110106004+50050+008600FM-12+003499999V0209999900461030001CN0100001N9+00611+00391102421ADDAY141061GF108991041051012501021001KA1999N+00611
0037106370999991929110112004+50050+008600FM-12+003499999V0200201N00461030001CN0040001N9+00781+00561102481ADDAY121061GF108991041051012501021001
0050106370999991929110206004+50050+008600FM-12+003499999V02099999004619999999N0040001N9+00721+00501102441ADDAY121061GF107991999051012501001001KA1999N+00611
0051106370999991929110212004+50050+008600FM-12+003499999V0200701N00671030001CN0100001N9+01001+00611102461ADDAY111061GF108991041051012501021001MD1610061+9999
0070106370999991929110306004+50050+008600FM-12+003499999V0209991C00001220001CN0020001N9+00501+00441102371ADDAY101061GF101991011051002501001081IA1089KA1999N+00501MD1610061+9999
0051106370999991929110312004+50050+008600FM-12+003499999V0202301N00101220001CN0040001N9+01111+00501102211ADDAY111061GF104991021051012501001021MD1110061+9999
0081106370999991929110406004+50050+008600FM-12+003499999V0209999900101220001CN0010001N9+00391+00331103031ADDAA199000691AY141061GF101991001001999999001021KA1999N+00391MD1310261+9999MW1101
0037106370999991929110412004+50050+008600FM-12+003499999V0200701N002619999999N0100001N9+01001+00611103191ADDAY101061GF106991999091008001001001
0070106370999991929110506004+50050+008600FM-12+003499999V0209999900101001501CN0000501N9+00111+00061103001ADDAY141061GF108991081051001501999999KA1999N+00001MD1510001+9999MW1451
0057106370999991929110512004+50050+008600FM-12+003499999V0202901N00101220001CN0005001N9+00391+00331102611ADDAY141061GF100991001001999999001001MD1810201+9999MW1441
0070106370999991929110606004+50050+008600FM-12+003499999V0209991C00001220001CN0010001N9+00001-00061101551ADDAY141061GF102991001001999999001081KA1999N-00111MD1610141+9999MW1101
0051106370999991929110612004+50050+008600FM-12+003499999V0202001N00101220001CN0040001N9+00891+00441101241ADDAY141061GF100991001001999999001001MD1610141+9999
0070106370999991929110706004+50050+008600FM-12+003499999V0209999900261002401CN0005001N9+00221+00171101501ADDAY141061GF108991081051002501999999KA1999N+00111MD1310141+9999MW1431
0075106370999991929110806004+50050+008600FM-12+003499999V0209999900101002401CN0010001N9+00501+00441101761ADDAA199000391AY161061GF108991081051002501999999KA1999N+00391MD1510061+9999
0051106370999991929110812004+50050+008600FM-12+003499999V0202001N00671220001CN0002001N9+00781+00561101361ADDAY161061GF104991021051008001001081MD1810201+9999
0081106370999991929110906004+50050+008600FM-12+003499999V02099999001019999999N0010001N9+00781+00721101371ADDAA199004091AY161061GF108991999051008001001001KA1999N+00721MD1310261+9999MW1101
0051106370999991929110912004+50050+008600FM-12+003499999V0202701N00101012301CN0100001N9+01111+00671101751ADDAY111061GF107991071051012501001001MD1310061+9999
0064106370999991929111006004+50050+008600FM-12+003499999V0209999900101002401CN0020001N9+00281+00221101931ADDAY141061GF108991081051002501999999KA1999N+00111MD1610061+9999
0051106370999991929111012004+50050+008600FM-12+003499999V0200701N00101007801CN0040001N9+00721+00671101571ADDAY121061GF108991081051008001999999MD1810201+9999
0075106370999991929111106004+50050+008600FM-12+003499999V0209999900101220001CN0020001N9+00501+00441102391ADDAA199000691AY161061GF102991999001999999021001KA1999N+00501MD1310261+9999
0051106370999991929111112004+50050+008600FM-12+003499999V0202501N006719999999N0040001N9+00781+00391102371ADDAY101061GF106991999091012501001001MD1610201+9999
0081106370999991929111206004+50050+008600FM-12+003499999V0209999900931030001CN0100001N9+00611+00391100351ADDAA199000591AY161061GF107991041051012501021001KA1999N+00501MD1610401+9999MW1211
0057106370999991929111212004+50050+008600FM-12+003499999V0202301N00461007801CN0040001N9+00891+00831099871ADDAY161061GF108991061061008001021001MD1810201+9999MW1611
0064106370999991929111306004+50050+008600FM-12+003499999V0209999900261030001CN0040001N9+00501+00441100471ADDAY121061GF107991041051008001021001KA1999N+00281MD1810061+9999
0051106370999991929111312004+50050+008600FM-12+003499999V0201101N00671220001CN0200001N9+01001+00111099981ADDAY111061GF104991021011012501001081MD1810341+9999
0050106370999991929111406004+50050+008600FM-12+003499999V0209999900261030001CN0040001N9+00501+00281099771ADDAY111061GF106991041051012501031001KA1999N+00391
0037106370999991929111412004+50050+008600FM-12+003499999V0202301N00101030001CN0040001N9+00501+00281099801ADDAY121061GF108991041051008001021001
0064106370999991929111506004+50050+008600FM-12+003499999V0209999900461030001CN0020001N9+00221+00001100331ADDAY111061GF106991041051012501021001KA1999N+00221MD1310201+9999
0057106370999991929111512004+50050+008600FM-12+003499999V0202301N00461030001CN0020001N9+00391+00331100501ADDAY171061GF108991041061008001021001MD1310061+9999MW1211
0064106370999991929111606004+50050+008600FM-12+003499999V0209999900261030001CN0020001N9+00001-00221100191ADDAY121061GF107991021051012501021001KA1999N-00111MD1810201+9999
0057106370999991929111612004+50050+008600FM-12+003499999V0201401N00101004501CN0005001N9+00111+00061099771ADDAY171061GF108991081051004501999999MD1810261+9999MW1731
0081106370999991929111706004+50050+008600FM-12+003499999V0209999900461004501CN0040001N9+00611+00561099901ADDAA199005091AY161061GF108991081061004501999999KA1999N+00281MD1310261+9999MW1631
0057106370999991929111712004+50050+008600FM-12+003499999V0202301N00261030001CN0040001N9+00721+00671100421ADDAY161061GF108991041061008001021001MD1810201+9999MW1611
0081106370999991929111806004+50050+008600FM-12+003499999V0209999900101004501CN0010001N9+00501+00441101311ADDAA199000691AY161061GF108991061061004501021001KA1999N+00391MD1310261+9999MW1161
0051106370999991929111812004+50050+008600FM-12+003499999V0202901N002619999999N0020001N9+00611+00391101601ADDAY121061GF108991999051008001001001MD1310141+9999
0070106370999991929111906004+50050+008600FM-12+003499999V0209991C00001000601CN0002001N9+00001-00061102371ADDAY141061GF108991081051000751999999KA1999N+00001MD1210061+9999MW1451
0057106370999991929111912004+50050+008600FM-12+003499999V0203201N00101007801CN0010001N9+00281+00221102121ADDAY141061GF106991061051008001031001MD1810201+9999MW1101
0064106370999991929112006004+50050+008600FM-12+003499999V0209991C00001220001CN0020001N9+00001-00061101861ADDAY101061GF104991001001999999001021KA1999N-00221MD1410001+9999
0051106370999991929112012004+50050+008600FM-12+003499999V0200501N00261220001CN0040001N9+00781+00171101681ADDAY101061GF102991001001999999001021MD1810141+9999
0056106370999991929112106004+50050+008600FM-12+003499999V0209999900101220001CN0005001N9-00111-00171101661ADDAY141061GF102991001001999999021081KA1999N-00221MW1421
0051106370999991929112112004+50050+008600FM-12+003499999V0202701N00101220001CN0010001N9+00501+00281101591ADDAY141061GF100991001001999999001001MD1810061+9999
0056106370999991929112206004+50050+008600FM-12+003499999V0209991C00001000151CN0000501N9-00111-00171101761ADDAY141061GF108991081051000251999999KA1999N-00221MW1451
0051106370999991929112212004+50050+008600FM-12+003499999V0209991C00001004501CN0020001N9+00221+00171101601ADDAY121061GF108991081051004501999999MD1810141+9999
0070106370999991929112306004+50050+008600FM-12+003499999V0209999900101001501CN0005001N9+00111+00061101671ADDAY141061GF108991081051001501999999KA1999N+00001MD1310141+9999MW1431
0057106370999991929112312004+50050+008600FM-12+003499999V0209991C00001220001CN0010001N9+00501+00281101571ADDAY141061GF100991001001999999001001MD1710141+9999MW1101
0067106370999991929112406004+50050+008600FM-12+003499999V0209999900261030001CN0020001N9+00391+00331101411ADDAA199001091AY161061GF108991021061008001021001KA1999N+00111MW1631
0057106370999991929112412004+50050+008600FM-12+003499999V0202301N00101030001CN0010001N9+00721+00671101301ADDAY161061GF106991041051012501021001MD1210061+9999MW1211
0075106370999991929112506004+50050+008600FM-12+003499999V0209991C00001030001CN0020001N9+00281+00221101981ADDAA199001091AY161061GF107991041051012501021001KA1999N+00221MD1810141+9999
0051106370999991929112512004+50050+008600FM-12+003499999V0202301N00101030001CN0040001N9+00891+00671101531ADDAY111061GF106991041051012501031001MD1810341+9999
0081106370999991929112606004+50050+008600FM-12+003499999V0209999900101004501CN0010001N9+00721+00671101411ADDAA199003091AY161061GF108991061061004501021001KA1999N+00611MD1210201+9999MW1211
0051106370999991929112612004+50050+008600FM-12+003499999V0202301N002619999999N0040001N9+01111+00891101681ADDAY161061GF106991999061004501001001MD1210061+9999
0075106370999991929112706004+50050+008600FM-12+003499999V0209999900461220001CN0040001N9+00611+00561101811ADDAA199005091AY161061GF104991041051012501031001KA1999N+00611MD1310141+9999
0037106370999991929112712004+50050+008600FM-12+003499999V0202301N004619999999N0100001N9+00891+99999101871ADDAY111061GF106991999999012501999999
0064106370999991929112806004+50050+008600FM-12+003499999V0209999900261004501CN0020001N9+00501+00441101721ADDAY141061GF108991081051004501999999KA1999N+00391MD1810141+9999
0057106370999991929112812004+50050+008600FM-12+003499999V0209991C000019999999N0020001N9+00721+00671101331ADDAY161061GF108991999061004501001001MD1810201+9999MW1611
0075106370999991929112906004+50050+008600FM-12+003499999V02099999004619999999N0040001N9+01001+00781100951ADDAA199000591AY161061GF106991999091008001001001KA1999N+00721MD1310061+9999
0051106370999991929112912004+50050+008600FM-12+003499999V0202001N00261030001CN0040001N9+01221+00781100831ADDAY111061GF106991041051017501031001MD1810141+9999
0075106370999991929113006004+50050+008600FM-12+003499999V0209991C00001030001CN0020001N9+01001+00941100501ADDAA199000391AY161061GF107991021051012501021001KA1999N+00891MD1810141+9999
0051106370999991929113012004+50050+008600FM-12+003499999V0201801N00261030001CN0040001N9+01281+00831100171ADDAY121061GF108991021051017501021001MD1810201+9999
0067106370999991929120106004+50050+008600FM-12+003499999V0209999900101007801CN0020001N9+01001+00111099831ADDAA199007091AY161061GF108991081051008001999999KA1999N+01001MW1211
0051106370999991929120112004+50050+008600FM-12+003499999V0202301N004619999999N0100001N9+01111+00671099971ADDAY161061GF107991999061008001001001MD1110061+9999
0070106370999991929120206004+50050+008600FM-12+003499999V02099999006719999999N0040001N9+00781+00721100791ADDAY121061GF107991999091008001001001KA1999N+00781MD1310201+9999MW1601
0051106370999991929120212004+50050+008600FM-12+003499999V0202301N00671220001CN0040001N9+01001+00781100951ADDAY111061GF104991999011012501001001MD1810061+9999
0081106370999991929120306004+50050+008600FM-12+003499999V0209999900671004501CN0010001N9+00721+00671101001ADDAA199005091AY161061GF108991081061004501999999KA1999N+00721MD1310201+9999MW1211
0043106370999991929120312004+50050+008600FM-12+003499999V0202301N00261004501CN0020001N9+00891+00831101191ADDAY161061GF108991081061004501999999MW1611
0075106370999991929120406004+50050+008600FM-12+003499999V0209991C000019999999N0020001N9+01001+00941101221ADDAA199004091AY161061GF106991999001017501021001KA1999N+01001MD1810061+9999
0037106370999991929120412004+50050+008600FM-12+003499999V0202001N00101030001CN0020001N9+01221+01171101271ADDAY161061GF108991041051012501021001
0075106370999991929120506004+50050+008600FM-12+003499999V0209999900261220001CN0020001N9+00891+00831101351ADDAA199000591AY161061GF101991011051017501001001KA1999N+00891MD1810201+9999
0051106370999991929120512004+50050+008600FM-12+003499999V0201401N00461220001CN0040001N9+01391+00721100561ADDAY101061GF104991011051017501001081MD1810401+9999
0064106370999991929120606004+50050+008600FM-12+003499999V0209999900671030001CN0040001N9+01001+00781100391ADDAY121061GF106991041051012501021001KA1999N+00781MD1310201+9999
0037106370999991929120612004+50050+008600FM-12+003499999V0202001N00671030001CN0040001N9+01001+00611100591ADDAY161061GF107991021051012501021001
0081106370999991929120706004+50050+008600FM-12+003499999V0209999900671030001CN0040001N9+00721+00501100021ADDAA199000591AY161061GF108991041051008001021001KA1999N+00611MD1810141+9999MW1521
0051106370999991929120712004+50050+008600FM-12+003499999V0202301N01231220001CN0200001N9+01111+00501100111ADDAY161061GF104991021051012501001081MD1210061+9999
0064106370999991929120806004+50050+008600FM-12+003499999V0209999901541220001CN0040001N9+00611+00391101711ADDAY101061GF104991021051012501031001KA1999N+00501MD1310141+9999
0051106370999991929120812004+50050+008600FM-12+003499999V0202301N009319999999N0200001N9+00891+00281101351ADDAY111061GF106991999999022501999999MD1810341+9999
0075106370999991929120906004+50050+008600FM-12+003499999V0209999900931220001CN0100001N9+00611+00221101621ADDAA199000691AY161061GF104991021051012501021001KA1999N+00611MD1310261+9999
0051106370999991929120912004+50050+008600FM-12+003499999V0202001N00931075001CN0100001N9+00781+00391101431ADDAY111061GF107991041051008001001081MD1990341+9999
0075106370999991929121006004+50050+008600FM-12+003499999V0209999900461030001CN0040001N9+00721+00331100481ADDAA199004091AY161061GF108991041051008001021001KA1999N+00721MD1310141+9999
0057106370999991929121012004+50050+008600FM-12+003499999V0202301N006719999999N0040001N9+00781+00391100771ADDAY121061GF107991999091008001001001MD1310141+9999MW1801
0081106370999991929121106004+50050+008600FM-12+003499999V0209999900671002401CN0040001N9+00611+00561101071ADDAA199005091AY161061GF108991061061002501021001KA1999N+00391MD1810201+9999MW1211
0057106370999991929121112004+50050+008600FM-12+003499999V0202301N01231002401CN0020001N9+00611+00561100401ADDAY161061GF108991081061002501999999MD1810341+9999MW1631
0075106370999991929121206004+50050+008600FM-12+003499999V02099999012319999999N0100001N9+01001+00781101231ADDAA199004091AY161061GF107991999091008001001001KA1999N+00891MD1610061+9999
0051106370999991929121212004+50050+008600FM-12+003499999V0202901N01231220001CN0200001N9+01111+00221101191ADDAY161061GF102991999051012501001001MD1710141+9999
0064106370999991929121306004+50050+008600FM-12+003499999V02099999009319999999N0040001N9+00611+00391102691ADDAY121061GF107991999051008001001001KA1999N+00611MD1310261+9999
0043106370999991929121312004+50050+008600FM-12+003499999V0202901N00931030001CN0040001N9+00891+00671102711ADDAY161061GF108991041061008001021001MW1211
0067106370999991929121406004+50050+008600FM-12+003499999V0209999900461004501CN0040001N9+00721+00671102991ADDAA199000391AY161061GF108991061061004501021001KA1999N+00721MW1611
0051106370999991929121412004+50050+008600FM-12+003499999V0202301N00671030001CN0040001N9+00891+00671102841ADDAY161061GF108991041061008001021001MD1710141+9999
0050106370999991929121506004+50050+008600FM-12+003499999V0209999900931030001CN0040001N9+01221+01171102701ADDAY121061GF107991041051008001021001KA1999N+01001
0057106370999991929121512004+50050+008600FM-12+003499999V0202301N00461030001CN0040001N9+01281+01221102521ADDAY161061GF108991041061004501021001MD1810201+9999MW1211
0061106370999991929121606004+50050+008600FM-12+003499999V0209999900261030001CN0040001N9+00611+00391102911ADDAA199001091AY121061GF108991021051017501021001KA1999N+00611
0037106370999991929121612004+50050+008600FM-12+003499999V0203401N00261220001CN0100001N9+00721+00111103101ADDAY111061GF104991999091012501001001
0061106370999991929121706004+50050+008600FM-12+003499999V0209999900261220001CN0040001N9+00391+00331103181ADDAA199000391AY181061GF104991999091008001001001KA1999N+00281
0057106370999991929121712004+50050+008600FM-12+003499999V0203201N002619999999N0040001N9+00501+00281103041ADDAY111061GF106991999061008001001001MD1610141+9999MW1801
0064106370999991929121806004+50050+008600FM-12+003499999V0209999900261220001CN0100001N9-00111-00171103901ADDAY101061GF102991021051012501001001KA1999N-00221MD1310261+9999
0051106370999991929121812004+50050+008600FM-12+003499999V0200201N00101220001CN0100001N9+00221-00171104001ADDAY101061GF102991011011017501001081MD1610061+9999
0050106370999991929121906004+50050+008600FM-12+003499999V0209999900101220001CN0020001N9-00391-00441103981ADDAY101061GF102991001001999999021081KA1999N-00501
0051106370999991929121912004+50050+008600FM-12+003499999V0200201N00261220001CN0100001N9+00001-00221103751ADDAY101061GF101991001001999999001021MD1810261+9999
0064106370999991929122006004+50050+008600FM-12+003499999V0209999900101220001CN0020001N9-00611-00781102601ADDAY101061GF101991999001999999021001KA1999N-00611MD1810141+9999
0051106370999991929122012004+50050+008600FM-12+003499999V0200201N00261220001CN0040001N9-00221-00561102241ADDAY101061GF102991021011017501001081MD1810261+9999
0064106370999991929122106004+50050+008600FM-12+003499999V0209999900261220001CN0020001N9-00501-00561101541ADDAY101061GF102991999001022501021001KA1999N-00721MD1810141+9999
0051106370999991929122112004+50050+008600FM-12+003499999V0201401N00261220001CN0040001N9-00221-00561101181ADDAY101061GF102991021011012501001001MD1810201+9999
0064106370999991929122206004+50050+008600FM-12+003499999V0209999900261220001CN0020001N9-00501-00561100591ADDAY101061GF100991001001999999001001KA1999N-00611MD1610061+9999
0051106370999991929122212004+50050+008600FM-12+003499999V0201601N001019999999N0040001N9+00221-00331100371ADDAY101061GF106991999999022501999999MD1610141+9999
0067106370999991929122306004+50050+008600FM-12+003499999V0209999900461007801CN0020001N9+00001-00061100781ADDAA199001091AY171061GF108991081051008001999999KA1999N-00111MW1711
0051106370999991929122312004+50050+008600FM-12+003499999V0200501N00101012301CN0010001N9+00111+00061100781ADDAY171061GF108991061051012501021001MD1810061+9999
0081106370999991929122406004+50050+008600FM-12+003499999V0209999900261004501CN0010001N9-00111-00171099841ADDAA199005091AY171061GF108991081061004501999999KA1999N-00221MD1810201+9999MW1711
0051106370999991929122412004+50050+008600FM-12+003499999V0202301N004619999999N0040001N9+00501+00281099931ADDAY161061GF107991999061004501001001MD1310141+9999
0070106370999991929122506004+50050+008600FM-12+003499999V0209999900261002401CN0020001N9+00281+00221100631ADDAY121061GF108991061061002501021001KA1999N+00111MD1710141+9999MW1601
0037106370999991929122512004+50050+008600FM-12+003499999V0209991C00001007801CN0020001N9+00501+00281100611ADDAY121061GF108991061051008001021001
0081106370999991929122606004+50050+008600FM-12+003499999V0209999900261004501CN0020001N9+00501+00441101321ADDAA199006091AY161061GF108991061061004501021001KA1999N+00281MD1010061+9999MW1611
0051106370999991929122612004+50050+008600FM-12+003499999V0202001N00461030001CN0040001N9+00611+00561101541ADDAY161061GF108991041061004501021001MD1310061+9999
0075106370999991929122706004+50050+008600FM-12+003499999V0209999900261004501CN0020001N9+00281+00221102061ADDAA199000691AY161061GF108991061061004501021001KA1999N+00111MD1310061+9999
0051106370999991929122712004+50050+008600FM-12+003499999V0202001N004619999999N0040001N9+00501+00281101721ADDAY111061GF107991999999022501999999MD1810261+9999
0075106370999991929122806004+50050+008600FM-12+003499999V02099999004619999999N0020001N9+00281+00221101111ADDAA199005091AY161061GF107991999091008001001001KA1999N+00281MD1310141+9999
0037106370999991929122812004+50050+008600FM-12+003499999V0202501N00671220001CN0100001N9+00891+00441101351ADDAY111061GF104991021051012501001081
0081106370999991929122906004+50050+008600FM-12+003499999V0209999900461002401CN0040001N9+00781+00721100671ADDAA199004091AY161061GF108991081061002501999999KA1999N+00221MD1810201+9999MW1611
0043106370999991929122912004+50050+008600FM-12+003499999V0202501N01901220001CN0200001N9+01281+00611100631ADDAY181061GF104991999061004501001001MW1801
0070106370999991929123006004+50050+008600FM-12+003499999V02099999012319999999N0040001N9+00721+00501101931ADDAY111061GF106991999091008001001001KA1999N+00611MD1310141+9999MW1161
0051106370999991929123012004+50050+008600FM-12+003499999V0202301N009319999999N0100001N9+00891+00441101791ADDAY111061GF106991999091008001001001MD1810201+9999
0067106370999991929123106004+50050+008600FM-12+003499999V0209999900671075001CN0020001N9+00611+00561101001ADDAA199003091AY161061GF106991021091008001001081KA1999N+00611MW1211
0051106370999991929123112004+50050+008600FM-12+003499999V0202301N00461220001CN0100001N9+00781+00171101631ADDAY111061GF104991021011012501001081MD1310061+9999
