0081106350999991927050106004+50217+008450FM-12+024499999V0209999900461000151CN0000501N9+00111+00061999999ADDAA199000591AY141061GF108991081051000251999999KA1999N+00111MD1210061+9999MW1451
0050106350999991927050206004+50217+008450FM-12+024499999V0209999900931002401CN0100001N9+00221+00001999999ADDAY111061GF107991071051002501001999KA1999N+00111
0064106350999991927050406004+50217+008450FM-12+024499999V0209999900671220001CN0200001N9+01221+00781999999ADDAY101061GF101991001001999999001999KA1999N+01001MD1610061+9999
0064106350999991927050506004+50217+008450FM-12+024499999V0209999900261220001CN0100001N9+01721+01061999999ADDAY101061GF101991001001999999001999KA1999N+01221MD1310061+9999
0083106350999991927050606004+50217+008450FM-12+024499999V0209999900461220001CN0100001N9+01501+00331999999ADDAY111061GF106991001001999999001999KA1999N+99999MD1310061+9999EQDQ01 +01782ATMN  
0050106350999991927050706004+50217+008450FM-12+024499999V0209999900931220001CN0100001N9+01281+00831999999ADDAY111061GF104991021051012501031999KA1999N+01221
0064106350999991927050806004+50217+008450FM-12+024499999V0209999900671220001CN0200001N9+01001+00611999999ADDAY101061GF101991001001999999001999KA1999N+00721MD1510001+9999
0050106350999991927050906004+50217+008450FM-12+024499999V0209991C00001220001CN0100001N9+01721+01281999999ADDAY101061GF101991001001999999001021KA1999N+01001
0050106350999991927051006004+50217+008450FM-12+024499999V0209999900671220001CN0100001N9+00781+00561999999ADDAY111061GF102991011011008001001021KA1999N+00721
0051106350999991927051106004+50217+008450FM-12+024499999V0209999900461220001CN0100001N9+00001-00331999999ADDAY101061GF101991011011008001001999MD1310201+9999
0061106350999991927051206004+50217+008450FM-12+024499999V0209999900461030001CN0100001N9-00221-00281999999ADDAA124999999AY171061GF107991011011004501021001KA1999N-00221
0075106350999991927051306004+50217+008450FM-12+024499999V0209999900671220001CN0100001N9-00221-00281999999ADDAA199000391AY171061GF104991041011004501001999KA1999N-00281MD1310141+9999
0064106350999991927051406004+50217+008450FM-12+024499999V02099999002619999999N0100001N9-00111-00171999999ADDAY111061GF106991041051000751001999KA1999N-00221MD1310061+9999
0050106350999991927051506004+50217+008450FM-12+024499999V0209999900261220001CN0200001N9+00391-00171999999ADDAY111061GF106991001001999999021999KA1999N+00221
0064106350999991927051606004+50217+008450FM-12+024499999V0209999900461012301CN0100001N9+00781+00561999999ADDAY121061GF108991081051012501999999KA1999N+00721MD1310061+9999
0081106350999991927051706004+50217+008450FM-12+024499999V0209999900461000151CN0000501N9+01001+00941999999ADDAA199001091AY161061GF108991081051000251999999KA1999N+00891MD1310061+9999MW1451
0051106350999991927051806004+50217+008450FM-12+024499999V0209999900101220001CN0020001N9+00391+00331999999ADDAY101061GF101991011011004501001001MD1310141+9999
0050106350999991927051906004+50217+008450FM-12+024499999V02099999004619999999N0200001N9+00891+00061999999ADDAY111061GF106991021011008001001999KA1999N+00501
0064106350999991927052006004+50217+008450FM-12+024499999V0209999900101220001CN0040001N9+00781+00171999999ADDAY101061GF104991001001999999001999KA1999N+00501MD1310061+9999
0050106350999991927052106004+50217+008450FM-12+024499999V0209999900261220001CN0100001N9+01001+00391999999ADDAY101061GF102991011051012501001999KA1999N+00721
0067106350999991927052206004+50217+008450FM-12+024499999V0209999900671000151CN0002001N9+00281+00221999999ADDAA199002091AY161061GF108991081051000251999999KA1999N+00281MW1431
0081106350999991927052306004+50217+008450FM-12+024499999V0209999901901000151CN0000501N9+00111+00061999999ADDAA199001091AY161061GF108991081051000251999999KA1999N+00111MD1310141+9999MW1451
0050106350999991927052406004+50217+008450FM-12+024499999V0209999900461004501CN0040001N9+00501+00441999999ADDAY121061GF108991061051004501021999KA1999N+00221
0061106350999991927052506004+50217+008450FM-12+024499999V02099999004619999999N0100001N9+00501+00441999999ADDAA199003091AY161061GF106991041011002501001999KA1999N+00391
0050106350999991927052606004+50217+008450FM-12+024499999V0209999900671220001CN0200001N9+00281+00061999999ADDAY101061GF104991021011008001001999KA1999N-00111
0050106350999991927052706004+50217+008450FM-12+024499999V0209999900461000601CN0040001N9+00221+00171999999ADDAY111061GF108991081051000751999999KA1999N+00001
0061106350999991927052806004+50217+008450FM-12+024499999V0209999900261000601CN0040001N9+00111+00061999999ADDAA199000591AY171061GF108991081051000751999999KA1999N+00111
0064106350999991927052906004+50217+008450FM-12+024499999V0209991C00001220001CN0100001N9+00611+00221999999ADDAY101061GF102991021011004501001001KA1999N+00221MD1310061+9999
0061106350999991927053006004+50217+008450FM-12+024499999V0209999900261030001CN0100001N9+01111+00671999999ADDAA124999999AY111061GF106991041051022501021999KA1999N+00891
0050106350999991927053106004+50217+008450FM-12+024499999V0209999900461012301CN0100001N9+01501+01281999999ADDAY111061GF106991061051012501021999KA1999N+01391
0051106350999991927060106004+50217+008450FM-12+024499999V0209999900461030001CN0100001N9+01611+01331999999ADDAY111061GF108991021011008001021999MD1810061+9999
0067106350999991927060206004+50217+008450FM-12+024499999V0209991C00001007801CN0200001N9+01221+01001999999ADDAA199001091AY161061GF106991061061008001021999KA1999N+00891MW1601
0075106350999991927060406004+50217+008450FM-12+024499999V0209999900461000151CN0000501N9+00501+00441999999ADDAY141061GF108991081051000251999999KA1999N+99999MW1451EQDQ01 +00782ATMN  
0061106350999991927060506004+50217+008450FM-12+024499999V0209999900461220001CN0040001N9+00721+00501999999ADDAA199000391AY101061GF102991011011004501001021KA1999N+00391
0081106350999991927060606004+50217+008450FM-12+024499999V0209999900931000151CN0000501N9+00391+00331999999ADDAA199001091AY161061GF108991081061000251999999KA1999N+00391MD1810261+9999MW1611
0081106350999991927060706004+50217+008450FM-12+024499999V0209999900461000151CN0000501N9+00281+00221999999ADDAA199000391AY141061GF108991081051000251999999KA1999N+00221MD1310061+9999MW1451
0081106350999991927060806004+50217+008450FM-12+024499999V0209999900461000151CN0002001N9+00611+00561999999ADDAA199019091AY161061GF108991081061000251999999KA1999N+00611MD1310061+9999MW1611
0064106350999991927060906004+50217+008450FM-12+024499999V0209999900461220001CN0100001N9+00721+00501999999ADDAY111061GF102991021011008001001001KA1999N+00391MD1310061+9999
0050106350999991927061006004+50217+008450FM-12+024499999V0209999900461220001CN0100001N9+00721-00111999999ADDAY111061GF106991001001999999021999KA1999N+00391
0050106350999991927061106004+50217+008450FM-12+024499999V02099999006719999999N0100001N9+01001+00781999999ADDAY111061GF107991041051008001001999KA1999N+00891
0070106350999991927061206004+50217+008450FM-12+024499999V0209999900101000151CN0000501N9+00891+00831999999ADDAY141061GF108991081051000251999999KA1999N+00781MD1310061+9999MW1451
0081106350999991927061306004+50217+008450FM-12+024499999V0209999900101000151CN0005001N9+00781+00721999999ADDAA199003091AY141061GF108991081051000251999999KA1999N+00781MD1310061+9999MW1431
0050106350999991927061406004+50217+008450FM-12+024499999V02099999001019999999N0040001N9+01281+01221999999ADDAY111061GF107991021011004501001999KA1999N+01111
0081106350999991927061506004+50217+008450FM-12+024499999V0209999900461000151CN0000501N9+01221+01171999999ADDAA199025091AY191061GF108991081051000251999999KA1999N+01111MD1310201+9999MW1471
0051106350999991927061606004+50217+008450FM-12+024499999V0209999900461220001CN0040001N9+01001+00781999999ADDAY101061GF102991001001999999001999MD1010001+9999
0051106350999991927061706004+50217+008450FM-12+024499999V0209999900461220001CN0100001N9+01721+01061999999ADDAY101061GF100991001001999999001999MD1610061+9999
0075106350999991927061806004+50217+008450FM-12+024499999V02099999009319999999N0100001N9+01001+00941999999ADDAA199002091AY161061GF107991999051000751001001KA1999N+00891MD1310061+9999
0057106350999991927061906004+50217+008450FM-12+024499999V0209999901231001501CN0020001N9+00781+00721999999ADDAY161061GF108991081061001501999999MD1810201+9999MW1611
0075106350999991927062006004+50217+008450FM-12+024499999V0209999900671002401CN0200001N9+00721+00671999999ADDAA199001091AY111061GF108991081051002501999999KA1999N+00611MD1310201+9999
0075106350999991927062106004+50217+008450FM-12+024499999V0209999900261220001CN0200001N9+01111+00501999999ADDAA199001091AY101061GF102991011051008001001021KA1999N+00721MD1310061+9999
0067106350999991927062206004+50217+008450FM-12+024499999V0209999900931000601CN0040001N9+00891+00831999999ADDAA199000691AY161061GF108991081061000751999999KA1999N+00891MW1601
0064106350999991927062306004+50217+008450FM-12+024499999V0209999900101220001CN0100001N9+01111+00671999999ADDAY101061GF104991011011008001001999KA1999N+00611MD1810061+9999
0050106350999991927062406004+50217+008450FM-12+024499999V0209999900461075001CN0200001N9+00721+00501999999ADDAY111061GF106991021011004501001081KA1999N+00501
0075106350999991927062506004+50217+008450FM-12+024499999V0209999900671000601CN0100001N9+00721+00671999999ADDAA199003091AY141061GF108991081051000751999999KA1999N+00611MD1310061+9999
0081106350999991927062606004+50217+008450FM-12+024499999V0209999901231000151CN0000501N9+00721+00671999999ADDAA199005091AY161061GF108991081051000251999999KA1999N+00721MD1810141+9999MW1211
0081106350999991927062706004+50217+008450FM-12+024499999V0209999900461000151CN0005001N9+00391+00331999999ADDAA199004091AY141061GF108991081051000251999999KA1999N+00391MD1310261+9999MW1431
0056106350999991927062806004+50217+008450FM-12+024499999V0209999900261000151CN0000501N9+00611+00561999999ADDAY141061GF108991081051000251999999KA1999N+00391MW1451
0050106350999991927062906004+50217+008450FM-12+024499999V0209999900461220001CN0200001N9+00891+00671999999ADDAY101061GF102991999011004501001001KA1999N+00611
0064106350999991927063006004+50217+008450FM-12+024499999V0209999900261220001CN0200001N9+01721+00831999999ADDAY101061GF102991021051012501001999KA1999N+01111MD1810061+9999
0061106350999991927070106004+50217+008450FM-12+024499999V0209999900461220001CN0200001N9+01611+01171999999ADDAA199000591AY111061GF104991001001999999021999KA1999N+01391
0050106350999991927070206004+50217+008450FM-12+024499999V0209999900671000601CN0100001N9+00721+00671999999ADDAY111061GF108991081051000751999999KA1999N+00611
0081106350999991927070306004+50217+008450FM-12+024499999V0209999900931000151CN0000501N9+00891+00831999999ADDAA199004091AY161061GF108991081051000251999999KA1999N+00781MD1310201+9999MW1451
0067106350999991927070406004+50217+008450FM-12+024499999V0209999900261004501CN0100001N9+01001+00941999999ADDAA199000391AY161061GF108991081061004501999999KA1999N+00891MW1601
0050106350999991927070506004+50217+008450FM-12+024499999V0209999900671220001CN0200001N9+01611+01171999999ADDAY101061GF100991001001999999001999KA1999N+01281
0050106350999991927070606004+50217+008450FM-12+024499999V0209999900261220001CN0200001N9+02001+01561999999ADDAY101061GF102991001001999999021999KA1999N+01501
0081106350999991927070706004+50217+008450FM-12+024499999V0209999900671000151CN0000501N9+01281+01221999999ADDAA199003091AY161061GF108991081051000251999999KA1999N+01281MD1510061+9999MW1451
0081106350999991927070806004+50217+008450FM-12+024499999V0209999900461012301CN0100001N9+01281+01221999999ADDAA199001091AY161061GF108991081061012501999999KA1999N+01281MD1710061+9999MW1611
0067106350999991927070906004+50217+008450FM-12+024499999V0209999900461001501CN0100001N9+01001+00941999999ADDAA199006091AY161061GF108991081061001501999999KA1999N+01001MW1211
0056106350999991927071006004+50217+008450FM-12+024499999V0209999900461000151CN0002001N9+01001+00941999999ADDAY141061GF108991081051000251999999KA1999N+01001MW1431
0057106350999991927071106004+50217+008450FM-12+024499999V0209999900671000151CN0000001N9+01391+01331999999ADDAY141061GF108991081051000251999999MD1310201+9999MW1451
0050106350999991927071206004+50217+008450FM-12+024499999V0209999900101002401CN0100001N9+01781+01561999999ADDAY111061GF107991061011002501001021KA1999N+01281
0075106350999991927071306004+50217+008450FM-12+024499999V0209999900101030001CN0040001N9+01501+01441999999ADDAA199010091AY111061GF107991011011002501021001KA1999N+01281MD1310061+9999
0067106350999991927071406004+50217+008450FM-12+024499999V0209999900101012301CN0002001N9+01501+01441999999ADDAA199002091AY141061GF107991071051012501001001KA1999N+01391MW1421
0061106350999991927071506004+50217+008450FM-12+024499999V0209999900101220001CN0040001N9+01501+01441999999ADDAA199000391AY101061GF104991021011002501021999KA1999N+01281
0061106350999991927071606004+50217+008450FM-12+024499999V0209999900101220001CN0040001N9+01501+01281999999ADDAA199011091AY101061GF104991021011004501021001KA1999N+01221
0037106350999991927071706004+50217+008450FM-12+024499999V0209999900461220001CN0020001N9+01391+01171999999ADDAY111061GF104991041011001501031001
0050106350999991927071806004+50217+008450FM-12+024499999V0209999900461220001CN0100001N9+00891+00831999999ADDAY141061GF102991021011002501001999KA1999N+00891
0081106350999991927071906004+50217+008450FM-12+024499999V0209999900461000151CN0000501N9+00721+00671999999ADDAA199001091AY141061GF108991081051000251999999KA1999N+00721MD1310061+9999MW1451
0050106350999991927072006004+50217+008450FM-12+024499999V02099999002619999999N0040001N9+00891+00831999999ADDAY111061GF106991041051002501001999KA1999N+00611
0064106350999991927072106004+50217+008450FM-12+024499999V0209999900461030001CN0040001N9+01391+01171999999ADDAY111061GF106991041051008001031999KA1999N+01221MD1610061+9999
0067106350999991927072206004+50217+008450FM-12+024499999V0209999900461000151CN0000501N9+01391+01331999999ADDAA199008091AY161061GF108991081051000251999999KA1999N+01391MW1451
0064106350999991927072306004+50217+008450FM-12+024499999V0209999900461030001CN0100001N9+01111+01061999999ADDAY141061GF106991041051000751031999KA1999N+01001MD1510001+9999
0081106350999991927072406004+50217+008450FM-12+024499999V0209999900671000151CN0000501N9+00781+00721999999ADDAA199002091AY141061GF108991081051000251999999KA1999N+00721MD1310061+9999MW1451
0070106350999991927072506004+50217+008450FM-12+024499999V0209999900461000151CN0000501N9+00891+00831999999ADDAY141061GF108991081051000251999999KA1999N+00781MD1310061+9999MW1451
0050106350999991927072606004+50217+008450FM-12+024499999V0209999900461220001CN0100001N9+01391+01171999999ADDAY101061GF101991011011004501001999KA1999N+01221
0064106350999991927072706004+50217+008450FM-12+024499999V02099999002619999999N0200001N9+01721+01501999999ADDAY111061GF107991011011012501001999KA1999N+01611MD1810061+9999
0050106350999991927072806004+50217+008450FM-12+024499999V0209999900461000601CN0040001N9+01111+01061999999ADDAY141061GF108991081051000751999999KA1999N+01111
0064106350999991927072906004+50217+008450FM-12+024499999V0209991C00001220001CN0200001N9+01281+00831999999ADDAY111061GF106991001001999999021081KA1999N+01221MD1310061+9999
0064106350999991927073006004+50217+008450FM-12+024499999V0209999900261220001CN0100001N9+01611+01171999999ADDAY101061GF101991001001999999001999KA1999N+01281MD1310061+9999
0050106350999991927073106004+50217+008450FM-12+024499999V02099999001019999999N0100001N9+01721+01281999999ADDAY111061GF106991041011008001001999KA1999N+01501
0051106350999991927080106004+50217+008450FM-12+024499999V0209999900461024001CN0100001N9+01891+01441999999ADDAY111061GF107991061091999999031999MD1810061+9999
0081106350999991927080206004+50217+008450FM-12+024499999V0209999900931000151CN0002001N9+01501+01441999999ADDAA199001091AY161061GF108991081051000251999999KA1999N+01501MD1310141+9999MW1431
0064106350999991927080306004+50217+008450FM-12+024499999V0209999900931012301CN0100001N9+01111+00891999999ADDAY111061GF107991061051012501021999KA1999N+01111MD1310061+9999
0050106350999991927080406004+50217+008450FM-12+024499999V0209999900671007801CN0100001N9+01221+00781999999ADDAY101061GF106991061051008001001999KA1999N+01111
0064106350999991927080506004+50217+008450FM-12+024499999V0209999900461220001CN0040001N9+01391+01331999999ADDAY101061GF102991021051002501001999KA1999N+01281MD1810061+9999
0064106350999991927080606004+50217+008450FM-12+024499999V0209999900671030001CN0040001N9+01611+01561999999ADDAY111061GF107991041051022501021999KA1999N+01501MD1710061+9999
0081106350999991927080706004+50217+008450FM-12+024499999V0209999900261000151CN0000501N9+01501+01441999999ADDAA199010091AY161061GF108991081061000251999999KA1999N+01501MD1310061+9999MW1611
0050106350999991927080806004+50217+008450FM-12+024499999V0209999901231220001CN0200001N9+01781+01561999999ADDAY101061GF102991011011004501021999KA1999N+01501
0081106350999991927080906004+50217+008450FM-12+024499999V0209999900261000151CN0000501N9+01391+01331999999ADDAA199004091AY141061GF108991081051000251999999KA1999N+01281MD1310061+9999MW1451
0075106350999991927081006004+50217+008450FM-12+024499999V0209999900461030001CN0100001N9+01391+01171999999ADDAA199006091AY161061GF106991021011008001031001KA1999N+01111MD1310061+9999
0050106350999991927081106004+50217+008450FM-12+024499999V02099999001019999999N0040001N9+01391+01331999999ADDAY141061GF106991999051001501001001KA1999N+01221
0075106350999991927081206004+50217+008450FM-12+024499999V0209999900671000601CN0040001N9+01001+00941999999ADDAA199003091AY111061GF107991061051000751031001KA1999N+00891MD1310201+9999
0070106350999991927081306004+50217+008450FM-12+024499999V0209999900461000151CN0005001N9+01001+00941999999ADDAY141061GF108991081051000251999999KA1999N+00891MD1310061+9999MW1431
0081106350999991927081406004+50217+008450FM-12+024499999V0209999900461000151CN0000501N9+01001+00941999999ADDAA199006091AY161061GF108991081061000251999999KA1999N+01001MD1810141+9999MW1611
0043106350999991927081506004+50217+008450FM-12+024499999V0209999900461000151CN0000001N9+01111+01061999999ADDAY141061GF108991081051000251999999MW1451
0067106350999991927081606004+50217+008450FM-12+024499999V0209999900671000151CN0002001N9+00891+00831999999ADDAA199000591AY141061GF108991081051000251999999KA1999N+00781MW1431
0081106350999991927081706004+50217+008450FM-12+024499999V0209999900461000151CN0000501N9+00891+00831999999ADDAA199001091AY161061GF108991081051000251999999KA1999N+00721MD1310141+9999MW1451
0059106350999991927081806004+50217+008450FM-12+024499999V02099999012319999999N9999999N9+01001+99999999999ADDAA199000691GF108991081061999999999999KA1999N+00891MW1601
0067106350999991927081906004+50217+008450FM-12+024499999V0209999900671000151CN0000501N9+00891+00831999999ADDAA199002091AY141061GF108991081061000251999999KA1999N+00891MW1601
0081106350999991927082006004+50217+008450FM-12+024499999V0209999900671000151CN0000501N9+00781+00721999999ADDAA199001091AY141061GF108991081051000251999999KA1999N+00721MD1310261+9999MW1451
0067106350999991927082106004+50217+008450FM-12+024499999V0209999900931000151CN0000501N9+01001+00941999999ADDAA199012091AY161061GF108991081061000251999999KA1999N+00781MW1631
0067106350999991927082206004+50217+008450FM-12+024499999V0209999900461000151CN0000501N9+01001+00941999999ADDAA199002091AY141061GF108991081051000251999999KA1999N+00891MW1451
0067106350999991927082306004+50217+008450FM-12+024499999V0209999900461000151CN0000501N9+01001+00941999999ADDAA199002091AY141061GF108991081051000251999999KA1999N+00891MW1451
0070106350999991927082406004+50217+008450FM-12+024499999V0209999900261000151CN0000501N9+01001+00941999999ADDAY141061GF108991081051000251999999KA1999N+00891MD1610061+9999MW1451
0081106350999991927082506004+50217+008450FM-12+024499999V0209999900671000151CN0000501N9+00721+00671999999ADDAA199004091AY141061GF108991081051000251999999KA1999N+00721MD1310061+9999MW1451
0081106350999991927082606004+50217+008450FM-12+024499999V0209999901541000151CN0000501N9+00611+00561999999ADDAA199007091AY161061GF108991081051000251999999KA1999N+00611MD1310141+9999MW1451
0050106350999991927082706004+50217+008450FM-12+024499999V0209999900461030001CN0100001N9+00781+00721999999ADDAY111061GF107991041051002501031001KA1999N+00721
0050106350999991927082806004+50217+008450FM-12+024499999V0209999900261220001CN0100001N9+01111+01061999999ADDAY101061GF102991021011001501001021KA1999N+00781
0051106350999991927082906004+50217+008450FM-12+024499999V0209999900931220001CN0040001N9+01281+00831999999ADDAY101061GF100991001001999999001999MD1310061+9999
0064106350999991927083006004+50217+008450FM-12+024499999V0209999900461220001CN0100001N9+01721+01061999999ADDAY101061GF100991001001999999001999KA1999N+01501MD1310061+9999
0050106350999991927083106004+50217+008450FM-12+024499999V0209999900461220001CN0100001N9+01501+01281999999ADDAY101061GF100991001001999999001999KA1999N+01281
0050106350999991927090206004+50217+008450FM-12+024499999V0209991C00001220001CN0200001N9+01781+01111999999ADDAY101061GF101991001001999999001081KA1999N+01501
0050106350999991927090306004+50217+008450FM-12+024499999V0209999900461220001CN0100001N9+01501+01061999999ADDAY101061GF102991001001999999001021KA1999N+01391
0064106350999991927090406004+50217+008450FM-12+024499999V0209999900931220001CN0040001N9+01111+01061999999ADDAY111061GF106991001001999999001081KA1999N+00891MD1810141+9999
0064106350999991927090706004+50217+008450FM-12+024499999V02099999001019999999N0040001N9+01611+01561999999ADDAY111061GF106991999051000751001001KA1999N+01501MD1610061+9999
0081106350999991927090806004+50217+008450FM-12+024499999V0209999900261000151CN0000001N9+01001+00941999999ADDAA199014091AY161061GF108991081051000251999999KA1999N+01001MD1310061+9999MW1451
0081106350999991927091206004+50217+008450FM-12+024499999V0209999901901000151CN0000001N9+00611+00561999999ADDAA199002091AY161061GF108991081051000251999999KA1999N+00611MD1310061+9999MW1451
0081106350999991927091306004+50217+008450FM-12+024499999V0209999901231000151CN0000001N9+00501+00441999999ADDAA199003091AY141061GF108991081061000251999999KA1999N+00501MD1310141+9999MW1451
0081106350999991927091706004+50217+008450FM-12+024499999V0209999900671000151CN0000001N9+00781+00721999999ADDAA199001091AY141061GF108991081051000251999999KA1999N+00781MD1310141+9999MW1451
0067106350999991927091806004+50217+008450FM-12+024499999V0209999900671000151CN0000001N9+00501+00441999999ADDAA199000591AY141061GF108991081051000251999999KA1999N+00001MW1451
0081106350999991927091906004+50217+008450FM-12+024499999V0209999900931000151CN0000501N9+00721+00671999999ADDAA199002091AY141061GF108991081051000251999999KA1999N+00611MD1310061+9999MW1451
0075106350999991927092006004+50217+008450FM-12+024499999V0209999900931000601CN0100001N9+00781+00721999999ADDAA199000391AY141061GF108991081051000751999999KA1999N+00721MD1310141+9999
0081106350999991927092106004+50217+008450FM-12+024499999V0209999900461000151CN0000501N9+01221+01171999999ADDAA199000691AY141061GF108991081051000251999999KA1999N+01111MD1610061+9999MW1451
0064106350999991927092806004+50217+008450FM-12+024499999V0209999900101220001CN0200001N9+00721+00501999999ADDAY101061GF101991011051012501001001KA1999N+00391MD1310201+9999
0050106350999991927092906004+50217+008450FM-12+024499999V0209999900261220001CN0100001N9+00781+00561999999ADDAY101061GF102991011051008001001021KA1999N+00501
0070106350999991927100206004+50217+008450FM-12+024499999V0209999900671000151CN0000501N9+00611+00561999999ADDAY141061GF108991081051000251999999KA1999N+00501MD1610061+9999MW1451
0081106350999991927100306004+50217+008450FM-12+024499999V0209999901541000151CN0002001N9+00391+00331999999ADDAA199002091AY161061GF108991081051000251999999KA1999N+00391MD1310201+9999MW1431
0050106350999991927100406004+50217+008450FM-12+024499999V0209999900261220001CN0200001N9+00221+00171999999ADDAY101061GF102991001001999999001081KA1999N+00111
0050106350999991927100506004+50217+008450FM-12+024499999V0209999900931220001CN0100001N9+00221+00001999999ADDAY111061GF104991041051008001001001KA1999N+00111
0050106350999991927100606004+50217+008450FM-12+024499999V0209999900671007801CN0200001N9+00221+00171999999ADDAY111061GF107991071051008001001001KA1999N+00001
0081106350999991927100706004+50217+008450FM-12+024499999V0209999900461000151CN0002001N9+00281+00221999999ADDAA124999999AY161061GF108991081061000251999999KA1999N+00281MD1810061+9999MW1511
0081106350999991927100806004+50217+008450FM-12+024499999V0209999900461000151CN0000501N9+00501+00441999999ADDAA199001091AY141061GF108991081051000251999999KA1999N+00501MD1310061+9999MW1451
0064106350999991927100906004+50217+008450FM-12+024499999V0209999900931220001CN0040001N9+00221+00171999999ADDAY141061GF102991021051000751001001KA1999N+00111MD1310061+9999
0050106350999991927101006004+50217+008450FM-12+024499999V0209999900461220001CN0100001N9+00391+00171999999ADDAY101061GF100991001001999999001001KA1999N+00281
0050106350999991927101106004+50217+008450FM-12+024499999V0209991C00001220001CN0100001N9+01111+00001999999ADDAY101061GF101991001001999999001081KA1999N+00781
0050106350999991927101206004+50217+008450FM-12+024499999V0209999900461000601CN0040001N9+00281+00221999999ADDAY141061GF108991081051000751999999KA1999N+00221
0070106350999991927101306004+50217+008450FM-12+024499999V0209999900671000151CN0000501N9+00221+00171999999ADDAY141061GF108991081051000251999999KA1999N+00111MD1810141+9999MW1451
0070106350999991927101406004+50217+008450FM-12+024499999V0209999900101000151CN0000501N9+00281+00221999999ADDAY141061GF108991081051000251999999KA1999N+00281MD1510001+9999MW1451
0070106350999991927101506004+50217+008450FM-12+024499999V0209999900461000151CN0000501N9+00391+00331999999ADDAY141061GF108991081051000251999999KA1999N+00391MD1310061+9999MW1451
0075106350999991927101606004+50217+008450FM-12+024499999V0209999900461220001CN0040001N9+00281+00221999999ADDAA199003091AY101061GF100991001001999999001001KA1999N+00221MD1610061+9999
0064106350999991927101706004+50217+008450FM-12+024499999V0209999900461220001CN0100001N9+00281+00221999999ADDAY111061GF107991999001999999021001KA1999N+00281MD1610061+9999
0081106350999991927101806004+50217+008450FM-12+024499999V0209999900671000151CN0000501N9+00391+00331999999ADDAA199002091AY141061GF108991081051000251999999KA1999N+00391MD1310201+9999MW1451
0051106350999991927101906004+50217+008450FM-12+024499999V0209999900101012301CN0040001N9+00281+00221999999ADDAY121061GF108991081051012501999999MD1310061+9999
0057106350999991927102006004+50217+008450FM-12+024499999V0209999900461000151CN0000001N9+00391+00001999999ADDAY161061GF108991081061000251999999MD1310141+9999MW1511
0043106350999991927102106004+50217+008450FM-12+024499999V0209999900261000151CN0000001N9+00501+00441999999ADDAY141061GF108991081051000251999999MW1451
0064106350999991927102206004+50217+008450FM-12+024499999V02099999006719999999N0100001N9+00391+00331999999ADDAY121061GF108991999001022501021001KA1999N+00391MD1810261+9999
0081106350999991927102306004+50217+008450FM-12+024499999V0209999900931000151CN0000501N9+00391+00331999999ADDAA199016091AY161061GF108991081051000251999999KA1999N+00391MD1810061+9999MW1451
0081106350999991927102406004+50217+008450FM-12+024499999V0209999900671000151CN0000501N9+00281+00221999999ADDAA199009091AY161061GF108991081061000251999999KA1999N+00221MD1310261+9999MW1611
0043106350999991927102506004+50217+008450FM-12+024499999V0209999900461000151CN0000001N9+00281+00221999999ADDAY141061GF108991081051000251999999MW1451
0067106350999991927102606004+50217+008450FM-12+024499999V0209999900671000151CN0000501N9+00891+00831999999ADDAA199001091AY141061GF108991081051000251999999KA1999N+00781MW1451
0070106350999991927102706004+50217+008450FM-12+024499999V0209999900461000151CN0000501N9+00781+00721999999ADDAY141061GF108991081051000251999999KA1999N+00721MD1310061+9999MW1451
0056106350999991927102806004+50217+008450FM-12+024499999V0209999900671000151CN0000501N9+00721+00671999999ADDAY141061GF107991071051000251001001KA1999N+00721MW1441
0064106350999991927102906004+50217+008450FM-12+024499999V0209999900671001501CN0040001N9+00781+00721999999ADDAY121061GF107991071051001501001001KA1999N+00611MD1310061+9999
0064106350999991927103006004+50217+008450FM-12+024499999V0209999900671220001CN0100001N9+00611+00561999999ADDAY141061GF104991001001999999021081KA1999N+00501MD1610061+9999
0064106350999991927103106004+50217+008450FM-12+024499999V0209999900671220001CN0200001N9+00721+00671999999ADDAY101061GF102991011011002501001081KA1999N-01001MD1610061+9999
0070106350999991927110106004+50217+008450FM-12+024499999V0209999900461000601CN0002001N9+00721+00671999999ADDAY181061GF108991081051000751999999KA1999N-01001MD1310061+9999MW1451
0070106350999991927110206004+50217+008450FM-12+024499999V0209999900671030001CN0010001N9+00611+00561999999ADDAY121061GF108991041051000251021001KA1999N+00611MD1610061+9999MW1101
0043106350999991927110306004+50217+008450FM-12+024499999V0209999900261000151CN0000501N9+01221+01171999999ADDAY141061GF108991081051000251999999MW1451
0070106350999991927110406004+50217+008450FM-12+024499999V0209999900461000151CN0002001N9+01001+00941999999ADDAY141061GF108991081051000251999999KA1999N+01001MD1610061+9999MW1431
0081106350999991927110506004+50217+008450FM-12+024499999V0209999900461000151CN0005001N9+00391+00331999999ADDAA199000591AY141061GF108991081051000251999999KA1999N+00391MD1810061+9999MW1431
0083106350999991927110606004+50217+008450FM-12+024499999V0209999901541004501CN0500001N9+00221+00001999999ADDAY121061GF108991081061004501999999KA1999N+99999MD1810201+9999EQDQ01 +02002ATMN  
0081106350999991927110706004+50217+008450FM-12+024499999V0209999900671000151CN0002001N9+00281+00221999999ADDAA199005091AY161061GF108991081061000251999999KA1999N+00281MD1610061+9999MW1631
0081106350999991927110806004+50217+008450FM-12+024499999V0209999900461000151CN0000501N9+00111+00061999999ADDAA199006091AY141061GF108991081051000251999999KA1999N+00111MD1310141+9999MW1451
0081106350999991927110906004+50217+008450FM-12+024499999V0209999900671000151CN0000501N9+00221+00171999999ADDAA199015091AY171061GF108991081061000251999999KA1999N-00111MD1610141+9999MW1611
0081106350999991927111006004+50217+008450FM-12+024499999V0209999900671000151CN0002001N9-00221-00281999999ADDAA199003091AY141061GF108991081051000251999999KA1999N-00221MD1310061+9999MW1451
0070106350999991927111106004+50217+008450FM-12+024499999V0209999900261000151CN0000501N9-00391-00441999999ADDAY141061GF108991081051000251999999KA1999N-00391MD1310061+9999MW1451
0081106350999991927111206004+50217+008450FM-12+024499999V0209999900101000151CN0000501N9-00391-00441999999ADDAA199000391AY141061GF108991081051000251999999KA1999N-00391MD1310061+9999MW1451
0064106350999991927111306004+50217+008450FM-12+024499999V0209999900101220001CN0040001N9-00391-00441999999ADDAY141061GF104991021051008001031001KA1999N-00501MD1310141+9999
0050106350999991927111406004+50217+008450FM-12+024499999V0209999900101007801CN0040001N9-00501-00561999999ADDAY121061GF107991071051008001001001KA1999N-00501
0081106350999991927111506004+50217+008450FM-12+024499999V0209999900101000151CN0000501N9-00391-00441999999ADDAA199001091AY141061GF108991081051000251999999KA1999N-00501MD1310061+9999MW1451
0067106350999991927111606004+50217+008450FM-12+024499999V0209999900261000151CN0000501N9-00111-00171999999ADDAA199002091AY171061GF108991081051000251999999KA1999N-00281MW1451
0067106350999991927111706004+50217+008450FM-12+024499999V0209999900101000151CN0002001N9+00001-00061999999ADDAA199008091AY141061GF106991061051000251001001KA1999N+00001MW1421
0070106350999991927111806004+50217+008450FM-12+024499999V0209999900461000151CN0000501N9+00001-00061999999ADDAY141061GF108991081051000251999999KA1999N+00001MD1810061+9999MW1451
0056106350999991927111906004+50217+008450FM-12+024499999V0209999900671000151CN0002001N9-00221-00281999999ADDAY141061GF108991081051000251999999KA1999N-00221MW1451
0070106350999991927112006004+50217+008450FM-12+024499999V0209999901231000151CN0002001N9-00501-00561999999ADDAY141061GF106991061051000251001001KA1999N-00501MD1810061+9999MW1421
0081106350999991927112106004+50217+008450FM-12+024499999V0209999900671000151CN0000501N9-00221-00281999999ADDAA199003091AY171061GF108991081051000251999999KA1999N-00281MD1110141+9999MW1451
0051106350999991927112206004+50217+008450FM-12+024499999V02099999006719999999N0020001N9-00281-00331999999ADDAY111061GF107991999051001501001001MD1810141+9999
0070106350999991927112306004+50217+008450FM-12+024499999V0209991C00001000151CN0002001N9-00501-00561999999ADDAY141061GF108991081051000251999999KA1999N-00781MD1510141+9999MW1431
0070106350999991927112406004+50217+008450FM-12+024499999V0209999900261000151CN0000501N9-00501-00561999999ADDAY141061GF108991081051000251999999KA1999N-00611MD1310141+9999MW1451
0081106350999991927112506004+50217+008450FM-12+024499999V0209999900461000151CN0000501N9+00001-00061999999ADDAA199006091AY161061GF108991081061000251999999KA1999N-00391MD1310141+9999MW1611
0050106350999991927112606004+50217+008450FM-12+024499999V0209999900461220001CN0500001N9-00111-00281999999ADDAY101061GF101991001001999999001081KA1999N-00221
0051106350999991927112706004+50217+008450FM-12+024499999V0209999901901220001CN0200001N9+00221-00721999999ADDAY111061GF106991001001999999021081MD1810141+9999
0070106350999991927112806004+50217+008450FM-12+024499999V0209999900261000151CN0000501N9-00281-00331999999ADDAY141061GF108991081051000251999999KA1999N-00391MD1310061+9999MW1451
0075106350999991927112906004+50217+008450FM-12+024499999V0209991C00001000151CN0000501N9-00391-00441999999ADDAY141061GF108991081051000251999999KA1999N+99999MW1451EQDQ01 -00222ATMN  
0070106350999991927113006004+50217+008450FM-12+024499999V0209999900261000151CN0000501N9-00391-00441999999ADDAY141061GF108991081051000251999999KA1999N-00391MD1310061+9999MW1451
0056106350999991927120106004+50217+008450FM-12+024499999V0209999900461000151CN0002001N9-00501-00561999999ADDAY141061GF108991081051000251999999KA1999N-00501MW1451
0056106350999991927120206004+50217+008450FM-12+024499999V0209999900461000151CN0002001N9-00281-00331999999ADDAY141061GF108991081051000251999999KA1999N-00391MW1431
0056106350999991927120306004+50217+008450FM-12+024499999V0209999900101000151CN0002001N9-00501-00561999999ADDAY141061GF108991081051000251999999KA1999N-00501MW1431
0057106350999991927120406004+50217+008450FM-12+024499999V0209999900461000151CN0000001N9-00501-00561999999ADDAY141061GF108991081051000251999999MD1810061+9999MW1451
0064106350999991927120506004+50217+008450FM-12+024499999V0209999900101007801CN0100001N9-00111-00171999999ADDAY111061GF106991061051008001001001KA1999N-00391MD1310061+9999
0064106350999991927120606004+50217+008450FM-12+024499999V0209999900671220001CN0500001N9+00221-00331999999ADDAY101061GF101991001001999999001081KA1999N+00111MD1610061+9999
0050106350999991927120706004+50217+008450FM-12+024499999V0209999901231220001CN0200001N9+00111+00061999999ADDAY111061GF106991001001999999021081KA1999N-00221
0050106350999991927120806004+50217+008450FM-12+024499999V0209999900931220001CN0040001N9-00111-00171999999ADDAY141061GF104991041051000751001001KA1999N-00221
0056106350999991927120906004+50217+008450FM-12+024499999V0209991C00001000151CN0000501N9-00221-00281999999ADDAY141061GF108991081051000251999999KA1999N-00221MW1451
0064106350999991927121006004+50217+008450FM-12+024499999V0209999900261001501CN0040001N9-00281-00331999999ADDAY121061GF108991081051001501999999KA1999N-00281MD1310061+9999
0043106350999991927121106004+50217+008450FM-12+024499999V0209999900461000151CN0000501N9-00611-00671999999ADDAY141061GF108991081051000251999999MW1451
0070106350999991927121206004+50217+008450FM-12+024499999V0209999900461000151CN0002001N9-00721-00781999999ADDAY141061GF108991081051000251999999KA1999N-00721MD1810141+9999MW1451
0050106350999991927121306004+50217+008450FM-12+024499999V0209999900101220001CN0200001N9-00721-00781999999ADDAY101061GF100991001001999999001001KA1999N-00781
0056106350999991927121406004+50217+008450FM-12+024499999V0209999900261000151CN0002001N9-00721-00781999999ADDAY141061GF108991081051000251999999KA1999N-00781MW1451
0081106350999991927121506004+50217+008450FM-12+024499999V0209999900261000151CN0000501N9-00721-00781999999ADDAA199004091AY171061GF108991081051000251999999KA1999N-00721MD1610061+9999MW1451
0064106350999991927121606004+50217+008450FM-12+024499999V0209999900461001501CN0040001N9-01111-01171999999ADDAY121061GF108991081051001501999999KA1999N-01221MD1310141+9999
0050106350999991927121706004+50217+008450FM-12+024499999V0209999900461220001CN0200001N9-01721-01781999999ADDAY101061GF102991021051002501001001KA1999N-01721
0050106350999991927121806004+50217+008450FM-12+024499999V0209999900461220001CN0100001N9-01501-01561999999ADDAY101061GF101991011051008001001001KA1999N-01501
0081106350999991927121906004+50217+008450FM-12+024499999V0209999900261000151CN0002001N9-01001-01061999999ADDAA199000591AY171061GF108991081051000251999999KA1999N-01221MD1810141+9999MW1471
0064106350999991927122006004+50217+008450FM-12+024499999V0209999900931220001CN0100001N9-01721-01781999999ADDAY101061GF100991001001999999001001KA1999N-01721MD1810061+9999
0064106350999991927122106004+50217+008450FM-12+024499999V0209999900461004501CN0100001N9-01001-01061999999ADDAY121061GF108991081051004501999999KA1999N-01611MD1610061+9999
0081106350999991927122206004+50217+008450FM-12+024499999V0209999900461000151CN0000501N9-00111-00171999999ADDAA199009091AY161061GF108991081061000251999999KA1999N-00221MD1810201+9999MW1601
0081106350999991927122306004+50217+008450FM-12+024499999V0209999901541000151CN0000501N9+00391+00331999999ADDAA199007091AY161061GF108991081061000251999999KA1999N+00391MD1610141+9999MW1631
0081106350999991927122406004+50217+008450FM-12+024499999V0209999900931000151CN0005001N9+00281+00221999999ADDAA199008091AY161061GF108991081051000251999999KA1999N+00281MD1310141+9999MW1451
0067106350999991927122506004+50217+008450FM-12+024499999V0209999900261000151CN0000501N9+00221+00171999999ADDAA199001091AY141061GF108991081051000251999999KA1999N+00111MW1451
0056106350999991927122606004+50217+008450FM-12+024499999V0209999900461000151CN0000501N9+00111-00441999999ADDAY141061GF108991081051000251999999KA1999N+00111MW1451
0081106350999991927122706004+50217+008450FM-12+024499999V0209999901231000151CN0002001N9-00111-00171999999ADDAA199001091AY171061GF108991081061000251999999KA1999N-00111MD1310201+9999MW1701
0064106350999991927122806004+50217+008450FM-12+024499999V0209999901541220001CN0200001N9-00891-00941999999ADDAY101061GF101991011051008001001001KA1999N-00891MD1310141+9999
0064106350999991927122906004+50217+008450FM-12+024499999V0209999902261007801CN0200001N9-00891-01561999999ADDAY111061GF106991061051008001001001KA1999N-01001MD1610061+9999
0051106350999991927123006004+50217+008450FM-12+024499999V0209999901901220001CN0100001N9-01001-01671999999ADDAY101061GF102991021051012501001001MD1810061+9999
0050106350999991927123106004+50217+008450FM-12+024499999V0209999900671220001CN0040001N9-01111-01171999999ADDAY101061GF104991021051000751021001KA1999N-01111
