0067106350999991928050206004+50217+008450FM-12+024499999V0209999900671000151CN0002001N9+01111+01061999999ADDAA199000391AY141061GF108991081051000251999999KA1999N+01111MW1431
0050106350999991928050306004+50217+008450FM-12+024499999V0209999900671220001CN0100001N9+01221+01001999999ADDAY101061GF102991001001999999001999KA1999N+01001
0050106350999991928050406004+50217+008450FM-12+024499999V0209999901231220001CN0200001N9+00721-00111999999ADDAY101061GF101991001001999999001999KA1999N+00501
0064106350999991928050506004+50217+008450FM-12+024499999V0209999900931220001CN0200001N9+00611+00001999999ADDAY101061GF100991001001999999001999KA1999N+00281MD1310061+9999
0064106350999991928050606004+50217+008450FM-12+024499999V0209999900461220001CN0500001N9+00721-00331999999ADDAY101061GF100991001001999999001999KA1999N+00391MD1810061+9999
0064106350999991928050706004+50217+008450FM-12+024499999V0209999900101030001CN0500001N9+01001+00111999999ADDAY111061GF106991041051017501031999KA1999N+00891MD1810061+9999
0050106350999991928050806004+50217+008450FM-12+024499999V0209999901231220001CN0200001N9+00281+00061999999ADDAY111061GF104991041051017501001999KA1999N+00221
0075106350999991928050906004+50217+008450FM-12+024499999V02099999012319999999N0100001N9-00281-00331999999ADDAA199001091AY111061GF107991041091001501001999KA1999N-00281MD1310201+9999
0081106350999991928051006004+50217+008450FM-12+024499999V0209999900671000151CN0000501N9-00281-00331999999ADDAA199005091AY171061GF108991081051000251999999KA1999N-00391MD1310061+9999MW1431
0064106350999991928051106004+50217+008450FM-12+024499999V0209999900101220001CN0100001N9-00221-00281999999ADDAY101061GF104991021091002501001999KA1999N-00391MD1310061+9999
0050106350999991928051206004+50217+008450FM-12+024499999V02099999006719999999N0200001N9+00001-00221999999ADDAY111061GF106991999001017501021999KA1999N-00221
0081106350999991928051306004+50217+008450FM-12+024499999V0209999900461000151CN0000501N9+00281+00221999999ADDAA199004091AY161061GF108991081061000251999999KA1999N+00281MD1310061+9999MW1521
0051106350999991928051406004+50217+008450FM-12+024499999V0209999900261012301CN0500001N9+00501-00111999999ADDAY111061GF106991061051012501001999MD1810061+9999
0070106350999991928051506004+50217+008450FM-12+024499999V0209999901231030001CN0100001N9+00281+00061999999ADDAY121061GF108991021061001501021999KA1999N+00221MD1810141+9999MW1611
0081106350999991928051606004+50217+008450FM-12+024499999V0209999901231000151CN0000501N9+00001-00061999999ADDAA199001091AY171061GF108991081061000251999999KA1999N+00001MD1810201+9999MW1731
0081106350999991928051706004+50217+008450FM-12+024499999V0209999900461000151CN0000501N9+00001-00061999999ADDAA199006091AY171061GF108991081061000251999999KA1999N+00001MD1310061+9999MW1451
0067106350999991928051806004+50217+008450FM-12+024499999V0209999900671000151CN0000501N9+00111+00061999999ADDAA199001091AY161061GF108991081061000251999999KA1999N+00111MW1451
0070106350999991928051906004+50217+008450FM-12+024499999V0209999900671000151CN0000501N9+00281+00221999999ADDAY141061GF108991081061000251999999KA1999N+00221MD1310061+9999MW1451
0050106350999991928052006004+50217+008450FM-12+024499999V02099999001019999999N0100001N9+00721+00501999999ADDAY111061GF106991011011004501001999KA1999N+00391
0061106350999991928052106004+50217+008450FM-12+024499999V0209991C00001075001CN0040001N9+00501+00441999999ADDAA199002091AY111061GF107991021061001501001081KA1999N+00281
0064106350999991928052206004+50217+008450FM-12+024499999V0209999900671220001CN0200001N9+00611+00561999999ADDAY111061GF102991999011002501031999KA1999N+00281MD1310061+9999
0075106350999991928052306004+50217+008450FM-12+024499999V0209999900101220001CN0200001N9+00721+00111999999ADDAA199000591AY101061GF104991021011004501001999KA1999N+00391MD1310061+9999
0081106350999991928052406004+50217+008450FM-12+024499999V0209999900461000151CN0000501N9+00281+00221999999ADDAA199002091AY141061GF108991081051000251999999KA1999N+00221MD1310061+9999MW1451
0070106350999991928052506004+50217+008450FM-12+024499999V0209999900931000151CN0000501N9+00391+00331999999ADDAY141061GF108991081051000251999999KA1999N+00281MD1310061+9999MW1451
0070106350999991928052606004+50217+008450FM-12+024499999V02099999006719999999N0000501N9+00281+00221999999ADDAY141061GF106991041011000251001999KA1999N+00221MD1310061+9999MW1441
0050106350999991928052706004+50217+008450FM-12+024499999V0209999900671220001CN0200001N9+00891+00281999999ADDAY111061GF107991001001999999031999KA1999N+00391
0050106350999991928052806004+50217+008450FM-12+024499999V0209991C00001220001CN0500001N9+01391+00221999999ADDAY101061GF101991001001999999001081KA1999N+01001
0050106350999991928052906004+50217+008450FM-12+024499999V0209999900671220001CN0100001N9+01221+00611999999ADDAY101061GF102991001001999999031999KA1999N+00891
0050106350999991928053006004+50217+008450FM-12+024499999V0209999900101030001CN0500001N9+01391+00501999999ADDAY111061GF106991041051017501031999KA1999N+01221
0064106350999991928053106004+50217+008450FM-12+024499999V0209999900461220001CN0200001N9+01391+00721999999ADDAY101061GF101991001001999999001999KA1999N+01001MD1810061+9999
0070106350999991928060106004+50217+008450FM-12+024499999V0209999900931000151CN0000501N9+00611+00561999999ADDAY141061GF108991081011000251999999KA1999N+00611MD1310141+9999MW1441
0064106350999991928060206004+50217+008450FM-12+024499999V0209999900671220001CN0200001N9+00391-00171999999ADDAY101061GF101991001001999999001999KA1999N+00111MD1310061+9999
0050106350999991928060306004+50217+008450FM-12+024499999V0209999900461220001CN0500001N9+01001-00111999999ADDAY101061GF101991001001999999001999KA1999N+00501
0064106350999991928060406004+50217+008450FM-12+024499999V0209999900461220001CN0100001N9+01391+00501999999ADDAY111061GF104991001001999999001999KA1999N+01111MD1810141+9999
0067106350999991928060506004+50217+008450FM-12+024499999V0209991C00001030001CN0020001N9+00891+00831999999ADDAA199001091AY121061GF108991041051012501021999KA1999N+00891MW1441
0075106350999991928060606004+50217+008450FM-12+024499999V0209999900261075001CN0040001N9+00891+00831999999ADDAA124999999AY111061GF106991021051012501001081KA1999N+00501MD1310061+9999
0070106350999991928060706004+50217+008450FM-12+024499999V0209999900461000601CN0040001N9+00891+00831999999ADDAY161061GF108991061061000751001999KA1999N+00891MD1810061+9999MW1211
0081106350999991928060806004+50217+008450FM-12+024499999V0209999900931000151CN0000501N9+00781+00721999999ADDAA199003091AY161061GF108991081061000251999999KA1999N+00781MD1810061+9999MW1611
0070106350999991928060906004+50217+008450FM-12+024499999V0209999900671000151CN0000501N9+01001+00941999999ADDAY141061GF108991081061000251999999KA1999N+00891MD1610061+9999MW1451
0081106350999991928061006004+50217+008450FM-12+024499999V02099999009319999999N0200001N9+01391+01331999999ADDAA199004091AY161061GF107991041061008001001999KA1999N+01391MD1610061+9999MW1211
0081106350999991928061106004+50217+008450FM-12+024499999V0209999900671000151CN0002001N9+01001+00941999999ADDAA199000391AY141061GF108991081061000251999999KA1999N+00891MD1310061+9999MW1451
0057106350999991928061206004+50217+008450FM-12+024499999V0209999900461220001CN0200001N9+00721+00671999999ADDAY101061GF104991021011004501001081MD1310141+9999MW1161
0064106350999991928061306004+50217+008450FM-12+024499999V0209999900671220001CN0200001N9+01221+00611999999ADDAY101061GF102991001001999999031999KA1999N+00781MD1810061+9999
0067106350999991928061406004+50217+008450FM-12+024499999V0209999901231001501CN0200001N9+01281+01221999999ADDAA199000391AY161061GF108991999061001501001001KA1999N+01281MW1211
0081106350999991928061506004+50217+008450FM-12+024499999V0209999901231000151CN0000501N9+00781+00721999999ADDAA199006091AY161061GF108991081061000251999999KA1999N+00721MD1310061+9999MW1621
0075106350999991928061606004+50217+008450FM-12+024499999V0209999900461002401CN0040001N9+00501+00441999999ADDAA199000691AY111061GF107991071061002501001001KA1999N+00281MD1610061+9999
0067106350999991928061706004+50217+008450FM-12+024499999V0209999900671000151CN0000501N9+00221+00171999999ADDAA199000691AY181061GF108991081061000251999999KA1999N+00111MW1451
0081106350999991928061806004+50217+008450FM-12+024499999V0209999900671000151CN0000501N9+00391+00331999999ADDAA199000391AY141061GF108991081061000251999999KA1999N+00281MD1510061+9999MW1451
0075106350999991928061906004+50217+008450FM-12+024499999V0209999900261030001CN0040001N9+00721+00671999999ADDAA199001091AY161061GF106991041061004501031999KA1999N+00501MD1810061+9999
0067106350999991928062006004+50217+008450FM-12+024499999V0209999900461000151CN0002001N9+00781+00721999999ADDAA199003091AY161061GF108991081061000251999999KA1999N+00611MW1611
0081106350999991928062106004+50217+008450FM-12+024499999V0209999900461000151CN0000501N9+00391+00331999999ADDAA199001091AY141061GF108991081051000251999999KA1999N+00391MD1310201+9999MW1451
0050106350999991928062206004+50217+008450FM-12+024499999V0209999900261220001CN0040001N9+01221+00781999999ADDAY111061GF104991021051017501001081KA1999N+00891
0050106350999991928062306004+50217+008450FM-12+024499999V02099999006719999999N0200001N9+01281+01221999999ADDAY111061GF106991999011001501001001KA1999N+01221
0050106350999991928062406004+50217+008450FM-12+024499999V0209999900461075001CN0040001N9+01281+01061999999ADDAY111061GF107991041011002501001081KA1999N+00781
0050106350999991928062506004+50217+008450FM-12+024499999V0209991C00001220001CN0200001N9+01111+00671999999ADDAY101061GF100991001001999999001999KA1999N+00721
0067106350999991928062606004+50217+008450FM-12+024499999V0209999900671000151CN0000501N9+01281+01221999999ADDAA199002091AY161061GF108991081061000251999999KA1999N+01221MW1631
0064106350999991928062706004+50217+008450FM-12+024499999V0209999901231001501CN0100001N9+00781+00721999999ADDAY141061GF108991081061001501999999KA1999N+00781MD1310201+9999
0050106350999991928062806004+50217+008450FM-12+024499999V0209999900461220001CN0100001N9+00781+00561999999ADDAY101061GF104991041051017501001001KA1999N+00391
0050106350999991928062906004+50217+008450FM-12+024499999V0209999900261220001CN0100001N9+01221+00781999999ADDAY111061GF104991001001999999031081KA1999N+00891
0050106350999991928063006004+50217+008450FM-12+024499999V0209999900261220001CN0200001N9+01721+01061999999ADDAY111061GF106991001001999999031081KA1999N+01391
0075106350999991928070106004+50217+008450FM-12+024499999V02099999006719999999N0500001N9+00891+00441999999ADDAA199000391AY111061GF106991021051012501001999KA1999N+00721MD1310061+9999
0061106350999991928070206004+50217+008450FM-12+024499999V0209999900261220001CN0500001N9+01391+00941999999ADDAA199020091AY101061GF100991001001999999001999KA1999N+01001
0050106350999991928070306004+50217+008450FM-12+024499999V0209999900101220001CN0200001N9+02001+00781999999ADDAY101061GF101991001001999999001999KA1999N+01611
0081106350999991928070406004+50217+008450FM-12+024499999V0209999900671004501CN0200001N9+01281+01221999999ADDAA199013091AY191061GF107991061061004501021999KA1999N+01281MD1990141+9999MW1291
0050106350999991928070506004+50217+008450FM-12+024499999V0209999900461220001CN0040001N9+01111+00671999999ADDAY111061GF106991001001999999001999KA1999N+00611
0075106350999991928070606004+50217+008450FM-12+024499999V0209999900671007801CN0200001N9+01391+01331999999ADDAA199001091AY161061GF107991061061008001021999KA1999N+01221MD1510061+9999
0070106350999991928070706004+50217+008450FM-12+024499999V0209999900461000151CN0000501N9+00721+00671999999ADDAY141061GF108991081061000251999999KA1999N+00721MD1310061+9999MW1451
0050106350999991928070806004+50217+008450FM-12+024499999V0209999900261220001CN0100001N9+00781+00561999999ADDAY101061GF102991021011004501001999KA1999N+00611
0037106350999991928070906004+50217+008450FM-12+024499999V0209999900101220001CN0500001N9+01391+00501999999ADDAY101061GF100991001001999999001999
0081106350999991928071006004+50217+008450FM-12+024499999V0209999900931000151CN0002001N9+01221+01171999999ADDAA199002091AY161061GF108991081061000251999999KA1999N+01221MD1310061+9999MW1211
0064106350999991928071106004+50217+008450FM-12+024499999V0209991C00001220001CN0100001N9+01611+00941999999ADDAY111061GF106991001001999999001021KA1999N+01221MD1310061+9999
0050106350999991928071206004+50217+008450FM-12+024499999V0209999900671220001CN0100001N9+02001+01331999999ADDAY101061GF100991001001999999001999KA1999N+01721
0050106350999991928071306004+50217+008450FM-12+024499999V0209999900101220001CN0100001N9+02281+01331999999ADDAY101061GF100991001001999999001999KA1999N+02111
0064106350999991928071406004+50217+008450FM-12+024499999V0209999900671220001CN0100001N9+02111+01171999999ADDAY101061GF100991001001999999001999KA1999N+01721MD1310061+9999
0037106350999991928071506004+50217+008450FM-12+024499999V0209999900261220001CN0040001N9+02281+01331999999ADDAY101061GF101991001001999999001081
0075106350999991928071706004+50217+008450FM-12+024499999V0209999901541220001CN0100001N9+01391+01171999999ADDAA199001091AY111061GF101991999011008001021001KA1999N+01281MD1310061+9999
0050106350999991928071806004+50217+008450FM-12+024499999V0209999900261220001CN0200001N9+01611+00941999999ADDAY101061GF101991001001999999001999KA1999N+01221
0050106350999991928071906004+50217+008450FM-12+024499999V0209999900671220001CN0040001N9+01281+01061999999ADDAY111061GF104991041051008001001999KA1999N+01111
0056106350999991928072006004+50217+008450FM-12+024499999V0209999900101000151CN0002001N9+01111+01061999999ADDAY141061GF106991061051000251001999KA1999N+00891MW1461
0056106350999991928072106004+50217+008450FM-12+024499999V0209999900671000151CN0005001N9+01001+00941999999ADDAY141061GF107991071011000251001999KA1999N+00891MW1421
0056106350999991928072206004+50217+008450FM-12+024499999V0209999900931000151CN0005001N9+00781+00721999999ADDAY141061GF107991071051000251001999KA1999N+00781MW1421
0050106350999991928072306004+50217+008450FM-12+024499999V0209999900261220001CN0100001N9+01611+00941999999ADDAY111061GF106991001001999999021999KA1999N+01221
0050106350999991928072406004+50217+008450FM-12+024499999V0209999900261030001CN0100001N9+01391+01171999999ADDAY121061GF106991041011008001031999KA1999N+01281
0081106350999991928072506004+50217+008450FM-12+024499999V0209999900671000151CN0000501N9+01281+01221999999ADDAA124999999AY141061GF108991081051000251999999KA1999N+01221MD1310061+9999MW1451
0067106350999991928072606004+50217+008450FM-12+024499999V0209999900261000151CN0000501N9+01391+01331999999ADDAA199002091AY161061GF108991081051000251999999KA1999N+01281MW1451
0064106350999991928072706004+50217+008450FM-12+024499999V0209999900461220001CN0200001N9+02001+01331999999ADDAY101061GF102991001001999999001999KA1999N+01721MD1810061+9999
0064106350999991928072806004+50217+008450FM-12+024499999V0209999900671002401CN0100001N9+01391+01331999999ADDAY111061GF106991061061002501021999KA1999N+01281MD1810061+9999
0081106350999991928072906004+50217+008450FM-12+024499999V0209999900931000151CN0000501N9+01001+00941999999ADDAA199003091AY141061GF108991071061000251001999KA1999N+00891MD1310261+9999MW1441
0064106350999991928073006004+50217+008450FM-12+024499999V02099999002619999999N0500001N9+00891+00671999999ADDAY111061GF106991011011008001001999KA1999N+00721MD1310061+9999
0050106350999991928073106004+50217+008450FM-12+024499999V0209999900671220001CN0500001N9+01501+00831999999ADDAY101061GF106991001001999999021999KA1999N+01221
0050106350999991928080106004+50217+008450FM-12+024499999V0209999900101075001CN0100001N9+01781+01331999999ADDAY111061GF106991011011008001001081KA1999N+01391
0081106350999991928080206004+50217+008450FM-12+024499999V0209999900671000151CN0000501N9+01221+01171999999ADDAA199003091AY161061GF108991081061000251999999KA1999N+01221MD1310061+9999MW1451
0050106350999991928080306004+50217+008450FM-12+024499999V0209999900461015001CN0200001N9+00891+00671999999ADDAY111061GF106991061051017501001999KA1999N+00721
0081106350999991928080406004+50217+008450FM-12+024499999V0209999900261030001CN0000001N9+01611+01561999999ADDAA199005091AY161061GF108991041061008001021001KA1999N+01281MD1010001+9999MW1631
0070106350999991928080506004+50217+008450FM-12+024499999V0209999900671000151CN0000501N9+01001+00941999999ADDAY141061GF108991081061000251999999KA1999N+01001MD1310061+9999MW1451
0081106350999991928080606004+50217+008450FM-12+024499999V0209999900671000151CN0000501N9+00781+00721999999ADDAA199000391AY141061GF108991081051000251999999KA1999N+00721MD1310141+9999MW1451
0050106350999991928080706004+50217+008450FM-12+024499999V0209991C00001220001CN0040001N9+01391+00721999999ADDAY111061GF107991001001999999031999KA1999N+01001
0064106350999991928080806004+50217+008450FM-12+024499999V0209999900671220001CN0100001N9+01611+00721999999ADDAY101061GF104991001001999999021081KA1999N+01281MD1810061+9999
0075106350999991928080906004+50217+008450FM-12+024499999V0209999900261000601CN0040001N9+01001+00941999999ADDAA199001091AY101061GF108991081061000751999999KA1999N+00781MD1310061+9999
0050106350999991928081006004+50217+008450FM-12+024499999V0209999900101220001CN0100001N9+01391+00721999999ADDAY111061GF104991001001999999031091KA1999N+01001
0050106350999991928081106004+50217+008450FM-12+024499999V02099999001019999999N0100001N9+01391+00941999999ADDAY121061GF107991001001999999001999KA1999N+01221
0064106350999991928081206004+50217+008450FM-12+024499999V0209999900461220001CN0200001N9+01781+01111999999ADDAY111061GF106991001001999999001999KA1999N+01501MD1810061+9999
0081106350999991928081306004+50217+008450FM-12+024499999V0209999900461000151CN0000501N9+01391+01331999999ADDAA199002091AY161061GF108991081061000251999999KA1999N+01391MD1310061+9999MW1611
0050106350999991928081406004+50217+008450FM-12+024499999V0209999900261220001CN0100001N9+01221+00781999999ADDAY111061GF104991999001017501001001KA1999N+00891
0050106350999991928081506004+50217+008450FM-12+024499999V02099999001019999999N0100001N9+01281+01061999999ADDAY111061GF107991999061008001001001KA1999N+01221
0081106350999991928081606004+50217+008450FM-12+024499999V0209999900461000151CN0000501N9+01001+00941999999ADDAA199002091AY181061GF108991081061000251999999KA1999N+00891MD1310141+9999MW1431
0067106350999991928081706004+50217+008450FM-12+024499999V0209999900461000151CN0005001N9+00781+00721999999ADDAA199000691AY141061GF108991081061000251999999KA1999N+00721MW1431
0056106350999991928081806004+50217+008450FM-12+024499999V0209999900461000151CN0002001N9+00721+00671999999ADDAY141061GF108991081061000251999999KA1999N+00611MW1431
0064106350999991928081906004+50217+008450FM-12+024499999V0209991C00001220001CN0100001N9+01001+00611999999ADDAY101061GF102991011051017501021999KA1999N+00781MD1810061+9999
0051106350999991928082006004+50217+008450FM-12+024499999V0209999900671030001CN0100001N9+01391+00941999999ADDAY111061GF106991041051012501031001MD1810061+9999
0056106350999991928082106004+50217+008450FM-12+024499999V0209999900461220001CN0010001N9+01281+01221999999ADDAY101061GF104991001001999999031021KA1999N+01001MW1101
0056106350999991928082206004+50217+008450FM-12+024499999V0209999900671000151CN0002001N9+00781+00721999999ADDAY141061GF106991061061000251001001KA1999N+00781MW1421
0081106350999991928082306004+50217+008450FM-12+024499999V0209999900671000151CN0000001N9+01001+00941999999ADDAA199009091AY141061GF108991081061000251999999KA1999N+00781MD1310061+9999MW1451
0064106350999991928082406004+50217+008450FM-12+024499999V0209999900931220001CN0100001N9+01391+01171999999ADDAY111061GF106991001001999999001021KA1999N+01221MD1810061+9999
0081106350999991928082506004+50217+008450FM-12+024499999V0209999900461000151CN0000001N9+01391+01331999999ADDAA199004091AY161061GF108991081061000251999999KA1999N+01391MD1310141+9999MW1631
0050106350999991928082606004+50217+008450FM-12+024499999V0209999900101220001CN0200001N9+01611+00941999999ADDAY101061GF102991011051008001001081KA1999N+01281
0050106350999991928082806004+50217+008450FM-12+024499999V0209999900261030001CN0100001N9+01281+01221999999ADDAY121061GF108991041051008001021001KA1999N+01221
0050106350999991928082906004+50217+008450FM-12+024499999V0209999900261075001CN0200001N9+01281+01221999999ADDAY111061GF106991041051017501001021KA1999N+01001
0081106350999991928083006004+50217+008450FM-12+024499999V0209999900931000151CN0000001N9+01001+00941999999ADDAA199002091AY161061GF108991081061000251999999KA1999N+01001MD1310061+9999MW1611
0081106350999991928083106004+50217+008450FM-12+024499999V0209999900461000151CN0000501N9+00721+00671999999ADDAA199002091AY141061GF108991081051000251999999KA1999N+00721MD1310141+9999MW1451
0067106350999991928090106004+50217+008450FM-12+024499999V0209999900101030001CN0200001N9+00721+00671999999ADDAA199002091AY101061GF108991041061008001021001KA1999N+00611MW1211
0064106350999991928090306004+50217+008450FM-12+024499999V0209999900461220001CN0100001N9+00781+00391999999ADDAY101061GF100991001001999999001001KA1999N+00611MD1310061+9999
0050106350999991928090406004+50217+008450FM-12+024499999V0209991C00001220001CN0200001N9+01221+00611999999ADDAY101061GF104991001001999999001081KA1999N+01001
0064106350999991928090706004+50217+008450FM-12+024499999V0209999900101220001CN0100001N9+01221+00331999999ADDAY101061GF101991001001999999001081KA1999N+00781MD1310061+9999
0070106350999991928091006004+50217+008450FM-12+024499999V0209999900461030001CN0200001N9+01501+01061999999ADDAY121061GF108991041091017501021001KA1999N+01281MD1310061+9999MW1161
0050106350999991928091106004+50217+008450FM-12+024499999V0209999900261220001CN0100001N9+01221+00781999999ADDAY101061GF101991001001999999001081KA1999N+01001
0050106350999991928091206004+50217+008450FM-12+024499999V0209999900671220001CN0100001N9+01001+00781999999ADDAY101061GF104991021051008001021001KA1999N+00891
0064106350999991928091306004+50217+008450FM-12+024499999V0209999900461220001CN0200001N9+00891+00441999999ADDAY101061GF101991001001999999001081KA1999N+00721MD1310061+9999
0050106350999991928091406004+50217+008450FM-12+024499999V0209999900671220001CN0200001N9+00781+00561999999ADDAY101061GF104991001001999999001081KA1999N+00721
0064106350999991928091506004+50217+008450FM-12+024499999V0209999900461220001CN0200001N9+00891+00671999999ADDAY111061GF104991001001999999021021KA1999N+00721MD1310061+9999
0064106350999991928091606004+50217+008450FM-12+024499999V0209999900261220001CN0100001N9+00891+00831999999ADDAY111061GF104991011011008001001091KA1999N+00721MD1310061+9999
0050106350999991928091706004+50217+008450FM-12+024499999V0209999900261220001CN0200001N9+01001+00611999999ADDAY101061GF102991001001999999001081KA1999N+00781
0050106350999991928091806004+50217+008450FM-12+024499999V0209999900461220001CN0200001N9+01111+00671999999ADDAY101061GF101991001001999999001081KA1999N+00781
0050106350999991928091906004+50217+008450FM-12+024499999V0209991C000019999999N0200001N9+01391+00721999999ADDAY111061GF106991999001017501031001KA1999N+01111
0064106350999991928092006004+50217+008450FM-12+024499999V0209991C00001220001CN0020001N9+01001+00941999999ADDAY101061GF102991999001999999031001KA1999N+00891MD1310061+9999
0050106350999991928092106004+50217+008450FM-12+024499999V0209999900931220001CN0200001N9+00501+00281999999ADDAY101061GF102991001001999999001021KA1999N+00501
0056106350999991928092206004+50217+008450FM-12+024499999V0209999900461000151CN9999999N9+00281+00221999999ADDAY141061GF108991081051000251999999KA1999N+00281MW1451
0050106350999991928092306004+50217+008450FM-12+024499999V02099999002619999999N0200001N9+00221+00171999999ADDAY141061GF107991999001000751001001KA1999N+00111
0061106350999991928092406004+50217+008450FM-12+024499999V0209999900261220001CN0200001N9+00221+00171999999ADDAA199004091AY141061GF102991011011000751001081KA1999N+00111
0070106350999991928092506004+50217+008450FM-12+024499999V0209999900101000151CN0002001N9+00281+00221999999ADDAY141061GF108991081051000251999999KA1999N+00221MD1310141+9999MW1451
0075106350999991928092606004+50217+008450FM-12+024499999V0209999900101030001CN0100001N9+00501+00441999999ADDAA199001091AY111061GF106991021061000751031001KA1999N+00391MD1310061+9999
0057106350999991928092906004+50217+008450FM-12+024499999V02099999002619999999N0000001N9+01001+00941999999ADDAY171061GF107991999051002501001001MD1510001+9999MW1451
0070106350999991928100106004+50217+008450FM-12+024499999V0209999900931000151CN0000501N9+00111+00061999999ADDAY141061GF108991081051000251999999KA1999N+00001MD1310061+9999MW1441
0070106350999991928100206004+50217+008450FM-12+024499999V0209999901231000151CN0002001N9+00111+00061999999ADDAY141061GF107991061051000251031001KA1999N+00111MD1810061+9999MW1441
0070106350999991928100306004+50217+008450FM-12+024499999V0209999900101000151CN0000501N9+00281+00221999999ADDAY141061GF107991071061000251001001KA1999N+00281MD1310061+9999MW1421
0056106350999991928100406004+50217+008450FM-12+024499999V0209999900931075001CN0005001N9+00111+00061999999ADDAY141061GF106991041051000251001081KA1999N+00001MW1441
0050106350999991928100506004+50217+008450FM-12+024499999V0209999900931220001CN0040001N9+00501+00441999999ADDAY101061GF102991021011000751001001KA1999N+00281
0050106350999991928100606004+50217+008450FM-12+024499999V02099999002619999999N0100001N9+01001+00941999999ADDAY111061GF107991999001022501021081KA1999N+00781
0070106350999991928100706004+50217+008450FM-12+024499999V0209999900461000151CN0000501N9+00611+00561999999ADDAY141061GF108991081051000251999999KA1999N+00501MD1310061+9999MW1451
0064106350999991928100806004+50217+008450FM-12+024499999V0209999900671220001CN0200001N9+00721+00671999999ADDAY101061GF104991999001017501021081KA1999N+00111MD1810061+9999
0070106350999991928100906004+50217+008450FM-12+024499999V0209999900931030001CN0100001N9+00891+00831999999ADDAY111061GF107991021061004501021001KA1999N+00781MD1610061+9999MW1601
0081106350999991928101006004+50217+008450FM-12+024499999V0209999900671000151CN0002001N9+00721+00671999999ADDAA199007091AY161061GF108991081061000251999999KA1999N+00721MD1310141+9999MW1431
0064106350999991928101106004+50217+008450FM-12+024499999V0209999900261000151CN0040001N9+00391+00331999999ADDAY141061GF108991081061000251999999KA1999N+00391MD1310061+9999
0081106350999991928101206004+50217+008450FM-12+024499999V0209999901231000151CN0040001N9+00611+00561999999ADDAA199000391AY141061GF107991061051000251021001KA1999N+00611MD1310061+9999MW1451
0064106350999991928101306004+50217+008450FM-12+024499999V0209999900461220001CN0200001N9-00221-00281999999ADDAY141061GF104991021051012501001081KA1999N-00281MD1310141+9999
0057106350999991928101406004+50217+008450FM-12+024499999V0209999900671000151CN9999999N9-00221-00281999999ADDAY141061GF107991071051000251001001MD1310061+9999MW1441
0050106350999991928101506004+50217+008450FM-12+024499999V0209999900671220001CN0500001N9-00221-00561999999ADDAY101061GF102991001001999999001081KA1999N-00391
0056106350999991928101706004+50217+008450FM-12+024499999V0209999900931000151CN0000501N9+00001-00061999999ADDAY141061GF108991081051000251999999KA1999N+00001MW1451
0067106350999991928101806004+50217+008450FM-12+024499999V0209999900671000151CN0000501N9+00781+00721999999ADDAA199008091AY161061GF108991081061000251999999KA1999N+00611MW1451
0067106350999991928101906004+50217+008450FM-12+024499999V0209999900671000151CN0000501N9+00611+00561999999ADDAA199011091AY161061GF108991081061000251999999KA1999N+00611MW1451
0067106350999991928102006004+50217+008450FM-12+024499999V0209999901231000151CN0000501N9+00891+00831999999ADDAA199001091AY141061GF108991081051000251999999KA1999N+00721MW1451
0067106350999991928102106004+50217+008450FM-12+024499999V0209999900671000151CN0000501N9+00721+00671999999ADDAA199009091AY161061GF108991081061000251999999KA1999N+00721MW1631
0067106350999991928102206004+50217+008450FM-12+024499999V0209999900101000151CN0020001N9+00721+00671999999ADDAA199001091AY141061GF108991081061000251999999KA1999N+00721MW1611
0081106350999991928102306004+50217+008450FM-12+024499999V0209999900671000151CN0000501N9+00391+00331999999ADDAA199000591AY141061GF108991081061000251999999KA1999N+00391MD1010001+9999MW1451
0081106350999991928102406004+50217+008450FM-12+024499999V0209999901231000151CN0000501N9+00721+00671999999ADDAA199000691AY141061GF108991081051000251999999KA1999N+00391MD1310141+9999MW1451
0067106350999991928102506004+50217+008450FM-12+024499999V0209999900461000151CN0000501N9+01001+00941999999ADDAA199025091AY161061GF108991081061000251999999KA1999N+00891MW1611
0081106350999991928102606004+50217+008450FM-12+024499999V0209999900261000151CN0000501N9+00891+00831999999ADDAA199004091AY161061GF108991081061000251999999KA1999N+00891MD1810141+9999MW1631
0081106350999991928102706004+50217+008450FM-12+024499999V02099999012319999999N0005001N9+00611+00561999999ADDAA199000391AY141061GF108991999051000251001001KA1999N+00501MD1810061+9999MW1441
0050106350999991928102806004+50217+008450FM-12+024499999V0209999900101030001CN0100001N9+01001+00781999999ADDAY111061GF106991021051012501021001KA1999N+00781
0081106350999991928102906004+50217+008450FM-12+024499999V0209999900461000151CN0000501N9+00281+00221999999ADDAA199002091AY141061GF108991081061000251999999KA1999N+00281MD1310261+9999MW1451
0050106350999991928103006004+50217+008450FM-12+024499999V02099999006719999999N0100001N9+00221+00171999999ADDAY121061GF106991999001017501021001KA1999N+00221
0050106350999991928103106004+50217+008450FM-12+024499999V0209999900671220001CN0500001N9+00501-00111999999ADDAY101061GF104991021051012501001021KA1999N+00391
0064106350999991928110106004+50217+008450FM-12+024499999V0209999900671030001CN0040001N9+00611+00561999999ADDAY111061GF107991041061000751021001KA1999N+00501MD1810141+9999
0056106350999991928110206004+50217+008450FM-12+024499999V0209999900461000151CN0000501N9+00391+00331999999ADDAY141061GF108991081061000251999999KA1999N+00391MW1451
0070106350999991928110306004+50217+008450FM-12+024499999V0209999900671000151CN0000501N9+00221+00171999999ADDAY141061GF107991071051000251001001KA1999N+00221MD1310061+9999MW1421
0056106350999991928110406004+50217+008450FM-12+024499999V0209999900101000151CN0002001N9+00391+00331999999ADDAY141061GF108991081061000251999999KA1999N+00391MW1451
0050106350999991928110506004+50217+008450FM-12+024499999V0209999900461220001CN0100001N9+00111-00111999999ADDAY101061GF102991011051012501001081KA1999N+00111
0064106350999991928110606004+50217+008450FM-12+024499999V0209999900461030001CN0100001N9+00221+00171999999ADDAY141061GF106991021051000751021001KA1999N+00001MD1310061+9999
0064106350999991928110706004+50217+008450FM-12+024499999V02099999006719999999N0500001N9+00221+00171999999ADDAY101061GF106991999001022501021081KA1999N+00221MD1810061+9999
0050106350999991928110806004+50217+008450FM-12+024499999V0209999901901030001CN0040001N9+00001-00061999999ADDAY111061GF106991021051000751021001KA1999N-00111
0081106350999991928110906004+50217+008450FM-12+024499999V0209999901541000151CN0000501N9+00111+00061999999ADDAA199001091AY141061GF108991081061000251999999KA1999N+00111MD1310141+9999MW1451
0064106350999991928111006004+50217+008450FM-12+024499999V0209999900461220001CN0200001N9-00221-00281999999ADDAY141061GF104991041061000251001001KA1999N-00281MD1310141+9999
0081106350999991928111106004+50217+008450FM-12+024499999V0209999900671000151CN0000501N9-00221-00281999999ADDAA199003091AY171061GF108991081061000251999999KA1999N-00281MD1810061+9999MW1731
0067106350999991928111206004+50217+008450FM-12+024499999V0209999900671000151CN0000501N9+00221+00171999999ADDAA199004091AY161061GF108991081061000251999999KA1999N+00001MW1451
0067106350999991928111306004+50217+008450FM-12+024499999V0209999900461000151CN0000501N9+00611+00561999999ADDAA199006091AY141061GF108991081051000251999999KA1999N+00611MW1431
0070106350999991928111406004+50217+008450FM-12+024499999V0209999900671000151CN0000501N9+00391+00331999999ADDAY141061GF108991081061000251999999KA1999N+00391MD1810061+9999MW1451
0081106350999991928111506004+50217+008450FM-12+024499999V0209999900461000151CN0000501N9+00391+00331999999ADDAA199001091AY141061GF108991081061000251999999KA1999N+00281MD1810141+9999MW1451
0067106350999991928111606004+50217+008450FM-12+024499999V0209999900931000151CN0000501N9+00501+00441999999ADDAA199013091AY161061GF108991081061000251999999KA1999N+00391MW1451
0081106350999991928111706004+50217+008450FM-12+024499999V02099999012319999999N0100001N9+00391+00331999999ADDAA199004091AY161061GF108991999061002501001001KA1999N+00221MD1310061+9999MW1211
0064106350999991928111806004+50217+008450FM-12+024499999V02099999012319999999N0200001N9+00111+00061999999ADDAY111061GF106991999061004501001001KA1999N+00111MD1310141+9999
0056106350999991928111906004+50217+008450FM-12+024499999V0209999900461000151CN0000501N9+00281+00221999999ADDAY141061GF108991081051000251999999KA1999N+00221MW1451
0081106350999991928112006004+50217+008450FM-12+024499999V0209999900671000151CN0000501N9+00391+00331999999ADDAA199002091AY161061GF108991081061000251999999KA1999N+00391MD1310141+9999MW1451
0050106350999991928112106004+50217+008450FM-12+024499999V0209999900461220001CN0100001N9+00221+00171999999ADDAY101061GF102991001001999999021021KA1999N+00221
0075106350999991928112206004+50217+008450FM-12+024499999V0209999900931000601CN0002001N9+00281+00221999999ADDAA199000691AY161061GF108991081061000751999999KA1999N+00221MD1610061+9999
0081106350999991928112306004+50217+008450FM-12+024499999V0209999900931000151CN0000501N9+00501+00441999999ADDAA199010091AY161061GF108991081051000251999999KA1999N+00501MD1610061+9999MW1451
0075106350999991928112406004+50217+008450FM-12+024499999V0209999901231220001CN0200001N9+00111-00111999999ADDAA199023091AY111061GF104991041061002501001081KA1999N+00111MD1310061+9999
0067106350999991928112506004+50217+008450FM-12+024499999V0209999900461000151CN0000501N9+00111+00061999999ADDAA199003091AY141061GF108991081051000251999999KA1999N+00111MW1451
0081106350999991928112706004+50217+008450FM-12+024499999V0209999900461000151CN0000501N9-00111-00171999999ADDAA199000391AY141061GF108991081051000251999999KA1999N-00111MD1810061+9999MW1451
0081106350999991928112806004+50217+008450FM-12+024499999V0209999900671000151CN0000501N9-00111-00171999999ADDAA199002091AY171061GF108991081051000251999999KA1999N-00111MD1310061+9999MW1451
0081106350999991928112906004+50217+008450FM-12+024499999V0209999900671000151CN0000501N9-00111-00171999999ADDAA199001091AY171061GF108991081061000251999999KA1999N-00221MD1310141+9999MW1451
0070106350999991928113006004+50217+008450FM-12+024499999V0209999900261000151CN0000501N9-00221-00281999999ADDAY141061GF108991081051000251999999KA1999N-00221MD1810061+9999MW1451
0056106350999991928120106004+50217+008450FM-12+024499999V0209999901231000151CN0000501N9+00111+00061999999ADDAY141061GF108991081051000251999999KA1999N+00111MW1451
0067106350999991928120206004+50217+008450FM-12+024499999V0209999901541000151CN0005001N9+00111+00061999999ADDAA199000391AY121061GF108991081061000251999999KA1999N+00001MW1851
0064106350999991928120306004+50217+008450FM-12+024499999V02099999009319999999N0200001N9-00221-00281999999ADDAY121061GF107991999051000751001001KA1999N-00221MD1310061+9999
0081106350999991928120406004+50217+008450FM-12+024499999V0209991C00001004501CN0100001N9-00111-00171999999ADDAA124999999AY121061GF108991081061004501999999KA1999N-00221MD1310061+9999MW1501
0050106350999991928120506004+50217+008450FM-12+024499999V0209999900461220001CN0100001N9-00221-00281999999ADDAY101061GF104991999001017501031081KA1999N-00221
0067106350999991928120606004+50217+008450FM-12+024499999V0209999900261000151CN0000501N9+00001-00061999999ADDAA199001091AY141061GF108991081061000251999999KA1999N-00111MW1451
0056106350999991928120706004+50217+008450FM-12+024499999V0209999900671000151CN0000501N9-00221-00281999999ADDAY141061GF108991081051000251999999KA1999N-00221MW1451
0067106350999991928120806004+50217+008450FM-12+024499999V0209991C00001000151CN0000501N9-00111-00171999999ADDAA199001091AY171061GF108991081061000251999999KA1999N-00221MW1711
0050106350999991928120906004+50217+008450FM-12+024499999V02099999002619999999N0040001N9-00501-00561999999ADDAY111061GF106991999001017501021081KA1999N-00611
0064106350999991928121006004+50217+008450FM-12+024499999V0209999900461220001CN0200001N9-00611-00781999999ADDAY101061GF100991001001999999001001KA1999N-00781MD1810141+9999
0070106350999991928121106004+50217+008450FM-12+024499999V0209999900671000151CN0000501N9-00281-00331999999ADDAY141061GF108991081051000251999999KA1999N-00501MD1810141+9999MW1451
0067106350999991928121206004+50217+008450FM-12+024499999V0209999900101000151CN0000501N9-00281-00331999999ADDAA199001091AY141061GF108991081051000251999999KA1999N-00391MW1451
0070106350999991928121306004+50217+008450FM-12+024499999V0209999900101000151CN0002001N9-00391-00441999999ADDAY141061GF108991081051000251999999KA1999N-00391MD1310141+9999MW1451
0067106350999991928121406004+50217+008450FM-12+024499999V0209999900261000151CN0005001N9-00721-00781999999ADDAA199002091AY141061GF108991081061000251999999KA1999N-00721MW1451
0064106350999991928121606004+50217+008450FM-12+024499999V0209991C00001220001CN0200001N9-00781-00831999999ADDAY101061GF102991001001999999001081KA1999N-00891MD1310061+9999
0064106350999991928121706004+50217+008450FM-12+024499999V02099999006719999999N0200001N9-00721-00781999999ADDAY121061GF108991999001022501021001KA1999N-00781MD1810141+9999
0056106350999991928121906004+50217+008450FM-12+024499999V0209999900101000151CN0000501N9-00611-00671999999ADDAY141061GF108991081051000251999999KA1999N-00611MW1451
0070106350999991928122006004+50217+008450FM-12+024499999V0209999900261000151CN0002001N9-00891-00941999999ADDAY141061GF108991081051000251999999KA1999N-00891MD1810061+9999MW1451
0056106350999991928122106004+50217+008450FM-12+024499999V0209999900261000151CN0000501N9-01001-01061999999ADDAY141061GF108991081051000251999999KA1999N-01001MW1451
0070106350999991928122206004+50217+008450FM-12+024499999V0209999900261000151CN0000501N9-00611-00671999999ADDAY141061GF108991081051000251999999KA1999N-01111MD1310061+9999MW1451
0056106350999991928122306004+50217+008450FM-12+024499999V0209999900261000151CN0000501N9-00721-00781999999ADDAY141061GF108991081051000251999999KA1999N-00721MW1451
0056106350999991928122406004+50217+008450FM-12+024499999V0209999900261000151CN0000501N9-00391-00441999999ADDAY141061GF108991081051000251999999KA1999N-00391MW1451
0070106350999991928122506004+50217+008450FM-12+024499999V0209999900671000151CN0000501N9-00391-00441999999ADDAY141061GF108991081051000251999999KA1999N-00391MD1810141+9999MW1451
0075106350999991928122706004+50217+008450FM-12+024499999V0209999901231000601CN0200001N9-00221-00281999999ADDAA199004091AY111061GF107991061051000751021001KA1999N-00221MD1310201+9999
0081106350999991928122806004+50217+008450FM-12+024499999V0209999900261000151CN0002001N9-00221-00281999999ADDAA199003091AY171061GF108991081061000251999999KA1999N-00221MD1810141+9999MW1711
0067106350999991928122906004+50217+008450FM-12+024499999V0209999900461000151CN0000501N9+00001-00061999999ADDAA199004091AY141061GF108991081051000251999999KA1999N+00001MW1451
0070106350999991928123006004+50217+008450FM-12+024499999V0209999900671000151CN0000501N9-00111-00171999999ADDAY141061GF108991081051000251999999KA1999N-00111MD1810201+9999MW1451
0075106350999991928123106004+50217+008450FM-12+024499999V0209999900101220001CN0200001N9-00281-00331999999ADDAA199007091AY111061GF104991041051004501001081KA1999N-00391MD1310141+9999
