0075106350999991929050106004+50217+008450FM-12+024499999V0209999900261001501CN0100001N9-00111-00171999999ADDAA199003091AY141061GF108991081051001501999999KA1999N-00111MD1310201+9999
0056106350999991929050206004+50217+008450FM-12+024499999V02099999004619999999N0040001N9+00111-00111999999ADDAY121061GF108991001001999999001999KA1999N+00001MW1701
0081106350999991929050306004+50217+008450FM-12+024499999V02099999004619999999N0040001N9+00281+00221999999ADDAA199000391AY161061GF108991001001999999001999KA1999N+00221MD1310061+9999MW1601
0075106350999991929050406004+50217+008450FM-12+024499999V02099999009319999999N0100001N9+00221+00171999999ADDAA199003091AY141061GF106991001001999999001999KA1999N+00111MD1310201+9999
0064106350999991929050506004+50217+008450FM-12+024499999V0209999900671220001CN0040001N9+00721+00331999999ADDAY111061GF104991001001999999001999KA1999N+00501MD1810141+9999
0050106350999991929050606004+50217+008450FM-12+024499999V0209999900671220001CN0200001N9+01281+00391999999ADDAY101061GF102991001001999999001999KA1999N+01001
0081106350999991929050706004+50217+008450FM-12+024499999V0209999900461000151CN0000501N9+00611+00561999999ADDAA199001091AY161061GF108991081061000251999999KA1999N+00611MD1310141+9999MW1451
0050106350999991929050806004+50217+008450FM-12+024499999V0209999900101220001CN0040001N9+01001+00611999999ADDAY101061GF104991001001999999001999KA1999N+00611
0081106350999991929050906004+50217+008450FM-12+024499999V0209999900461000151CN0000501N9+00611+00561999999ADDAA199009091AY141061GF108991081051000251999999KA1999N+00611MD1310141+9999MW1451
0075106350999991929051006004+50217+008450FM-12+024499999V0209999900261220001CN0100001N9+00611+00561999999ADDAA199001091AY101061GF102991001001999999001999KA1999N+00281MD1310141+9999
0064106350999991929051106004+50217+008450FM-12+024499999V0209991C00001220001CN0100001N9+01001+00111999999ADDAY101061GF101991999001008001001001KA1999N+00721MD1310061+9999
0050106350999991929051206004+50217+008450FM-12+024499999V02099999002619999999N0040001N9+01001+00781999999ADDAY111061GF107991001001999999001999KA1999N+00891
0050106350999991929051306004+50217+008450FM-12+024499999V0209999900931220001CN0100001N9+00721+00501999999ADDAY101061GF104991001001999999001999KA1999N+00501
0050106350999991929051406004+50217+008450FM-12+024499999V0209999900261220001CN0040001N9+01001+00611999999ADDAY101061GF104991999001022501021999KA1999N+00611
0061106350999991929051506004+50217+008450FM-12+024499999V0209999900101220001CN0100001N9+00781+00391999999ADDAA199000591AY101061GF102991001001999999001999KA1999N+00501
0064106350999991929051606004+50217+008450FM-12+024499999V02099999004619999999N0100001N9+00721+00671999999ADDAY141061GF106991001001999999001999KA1999N+00391MD1310141+9999
0056106350999991929051706004+50217+008450FM-12+024499999V0209999900461000151CN0000501N9+00501+00441999999ADDAY141061GF108991081051000251999999KA1999N+00391MW1451
0067106350999991929051806004+50217+008450FM-12+024499999V0209999900671000151CN0000501N9+00391+00331999999ADDAA199000691AY161061GF108991081061000251999999KA1999N+00391MW1611
0081106350999991929051906004+50217+008450FM-12+024499999V0209999900931000151CN0000501N9+00221+00171999999ADDAA199009091AY161061GF108991081051000251999999KA1999N+00221MD1310061+9999MW1451
0050106350999991929052006004+50217+008450FM-12+024499999V0209999900461220001CN0200001N9+00391-00171999999ADDAY101061GF101991001001999999021999KA1999N+00001
0050106350999991929052106004+50217+008450FM-12+024499999V0209991C00001220001CN0100001N9+01281+00611999999ADDAY101061GF101991999001008001001001KA1999N+00781
0050106350999991929052206004+50217+008450FM-12+024499999V0209991C00001220001CN0100001N9+01501+00611999999ADDAY101061GF100991001001999999001001KA1999N+01001
0050106350999991929052306004+50217+008450FM-12+024499999V0209999900461220001CN0040001N9+01221+01001999999ADDAY101061GF102991001001999999001999KA1999N+01001
0050106350999991929052406004+50217+008450FM-12+024499999V0209999900461220001CN0100001N9+01501+00831999999ADDAY101061GF101991001001999999001999KA1999N+01111
0064106350999991929052506004+50217+008450FM-12+024499999V0209991C00001220001CN0100001N9+02001+00781999999ADDAY101061GF100991001001999999001001KA1999N+01721MD1310061+9999
0050106350999991929052606004+50217+008450FM-12+024499999V0209999900261220001CN0100001N9+01781+01111999999ADDAY101061GF108991001001999999001999KA1999N+01501
0050106350999991929052706004+50217+008450FM-12+024499999V0209999900461220001CN0100001N9+01781+01111999999ADDAY101061GF101991001001999999001999KA1999N+01501
0064106350999991929052806004+50217+008450FM-12+024499999V0209999900671220001CN0100001N9+01721+01061999999ADDAY101061GF102991001001999999001999KA1999N+01281MD1310061+9999
0050106350999991929052906004+50217+008450FM-12+024499999V0209999900101220001CN0100001N9+01891+01221999999ADDAY111061GF104991001001999999001999KA1999N+01391
0064106350999991929053106004+50217+008450FM-12+024499999V0209999900261220001CN0100001N9+01111+00671999999ADDAY101061GF101991001001999999001999KA1999N+00721MD1810061+9999
0064106350999991929060106004+50217+008450FM-12+024499999V0209999900671030001CN0100001N9+00891+00441999999ADDAY111061GF107991041011004501021999KA1999N+00721MD1310201+9999
0050106350999991929060206004+50217+008450FM-12+024499999V0209999900261220001CN0100001N9+00781+00391999999ADDAY101061GF104991001001999999001021KA1999N+00391
0050106350999991929060306004+50217+008450FM-12+024499999V02099999012319999999N0100001N9+01001+00941999999ADDAY121061GF108991999001001501001001KA1999N+01001
0081106350999991929060406004+50217+008450FM-12+024499999V0209999900671000151CN0000501N9+00721+00671999999ADDAA199005091AY141061GF108991081051000251999999KA1999N+00721MD1310141+9999MW1451
0081106350999991929060506004+50217+008450FM-12+024499999V0209999900461000151CN0000501N9+00501-00111999999ADDAA199003091AY141061GF108991081051000251999999KA1999N+00391MD1610141+9999MW1451
0075106350999991929060706004+50217+008450FM-12+024499999V0209999901541220001CN0200001N9+00721+00501999999ADDAA199004091AY111061GF104991999001004501001001KA1999N+00611MD1310261+9999
0081106350999991929060806004+50217+008450FM-12+024499999V0209999900101000151CN0000501N9+01001+00941999999ADDAA199001091AY141061GF108991081061000251999999KA1999N+00891MD1310141+9999MW1451
0057106350999991929060906004+50217+008450FM-12+024499999V0209999900461220001CN0000501N9+01221+01171999999ADDAY161061GF101991001001999999001021MD1310141+9999MW1611
0050106350999991929061006004+50217+008450FM-12+024499999V0209999900461220001CN0040001N9+01221+00781999999ADDAY111061GF104991001001999999001999KA1999N+01001
0064106350999991929061106004+50217+008450FM-12+024499999V0209999900101220001CN0100001N9+01281+00831999999ADDAY101061GF101991001001999999001999KA1999N+00781MD1310141+9999
0064106350999991929061206004+50217+008450FM-12+024499999V0209999901541220001CN0040001N9+01221+01001999999ADDAY111061GF102991001001999999021999KA1999N+00781MD1810061+9999
0081106350999991929061306004+50217+008450FM-12+024499999V0209999900931000151CN0000501N9+01221+01171999999ADDAA199005091AY141061GF108991081051000251999999KA1999N+01111MD1310061+9999MW1451
0050106350999991929061406004+50217+008450FM-12+024499999V02099999004619999999N0200001N9+01221+01001999999ADDAY101061GF108991999051002501001001KA1999N+00891
0081106350999991929061506004+50217+008450FM-12+024499999V0209999900461000151CN0000501N9+00891+00831999999ADDAA199008091AY141061GF108991081051000251999999KA1999N+00891MD1310141+9999MW1451
0050106350999991929061606004+50217+008450FM-12+024499999V0209999900261220001CN0200001N9+01221+00781999999ADDAY101061GF102991999001004501001001KA1999N+00891
0057106350999991929061706004+50217+008450FM-12+024499999V0209999900261000151CN0000501N9+01111+01061999999ADDAY141061GF108991081051000251999999MD1310141+9999MW1451
0050106350999991929061806004+50217+008450FM-12+024499999V0209999900261220001CN0100001N9+01391+00941999999ADDAY101061GF108991001001999999001999KA1999N+00891
0050106350999991929061906004+50217+008450FM-12+024499999V0209999900261220001CN0040001N9+01721+01061999999ADDAY101061GF102991999001017501021999KA1999N+01281
0050106350999991929062006004+50217+008450FM-12+024499999V0209991C00001220001CN0100001N9+02001+01061999999ADDAY101061GF102991001001999999001999KA1999N+01721
0050106350999991929062106004+50217+008450FM-12+024499999V02099999006719999999N0100001N9+00781+00391999999ADDAY101061GF106991999011012501001001KA1999N+00721
0050106350999991929062206004+50217+008450FM-12+024499999V0209999900101220001CN0200001N9+00781+00391999999ADDAY111061GF104991999001008001001001KA1999N+00391
0081106350999991929062306004+50217+008450FM-12+024499999V0209999900931000151CN0000501N9+00891+00831999999ADDAA199002091AY141061GF108991081051000251999999KA1999N+00781MD1810061+9999MW1451
0061106350999991929062406004+50217+008450FM-12+024499999V02099999004619999999N0200001N9+00611+00391999999ADDAA199001091AY111061GF106991999001004501001001KA1999N+00281
0061106350999991929062506004+50217+008450FM-12+024499999V02099999009319999999N0200001N9+00281+00221999999ADDAA199002091AY141061GF108991999001000751001001KA1999N+00111
0081106350999991929062606004+50217+008450FM-12+024499999V0209999900461000151CN0000501N9+00611+00561999999ADDAA199005091AY141061GF108991081051000251999999KA1999N+00611MD1310061+9999MW1451
0067106350999991929062706004+50217+008450FM-12+024499999V0209999900461000151CN0000501N9+00501+00441999999ADDAA199001091AY161061GF108991081061000251999999KA1999N+00391MW1511
0051106350999991929062806004+50217+008450FM-12+024499999V0209999900101000601CN0040001N9+00721+00671999999ADDAY111061GF107991071051000751001999MD1310141+9999
0050106350999991929062906004+50217+008450FM-12+024499999V0209999900101220001CN0200001N9+01221+00611999999ADDAY101061GF102991999001004501001001KA1999N+01001
0064106350999991929063006004+50217+008450FM-12+024499999V02099999004619999999N0100001N9+01221+00611999999ADDAY121061GF108991999001017501021999KA1999N+01221MD1810061+9999
0067106350999991929070106004+50217+008450FM-12+024499999V0209999900671000151CN0002001N9+01111+01061999999ADDAA199005091AY141061GF108991081051000251999999KA1999N+01001MW1431
0081106350999991929070206004+50217+008450FM-12+024499999V0209999900261000151CN0000501N9+00891+00831999999ADDAA199002091AY141061GF108991081061000251999999KA1999N+00891MD1310141+9999MW1511
0081106350999991929070306004+50217+008450FM-12+024499999V0209999900931000151CN0000501N9+01281+01221999999ADDAA199003091AY141061GF108991081051000251999999KA1999N+01221MD1310061+9999MW1451
0067106350999991929070406004+50217+008450FM-12+024499999V0209999900931000151CN0000501N9+01391+01331999999ADDAA199002091AY111061GF108991081051000251999999KA1999N+01391MW1451
0075106350999991929070506004+50217+008450FM-12+024499999V0209999900461220001CN0100001N9+01281+01221999999ADDAA199006091AY111061GF104991001001999999001999KA1999N+01111MD1310141+9999
0070106350999991929070706004+50217+008450FM-12+024499999V0209999900931000151CN0000501N9+00721+00671999999ADDAY141061GF108991081061000251999999KA1999N+00611MD1410001+9999MW1451
0064106350999991929070806004+50217+008450FM-12+024499999V02099999009319999999N0040001N9+00501+00441999999ADDAY141061GF107991001001999999001999KA1999N+00391MD1310061+9999
0081106350999991929070906004+50217+008450FM-12+024499999V0209999900461000151CN0002001N9+00391+00331999999ADDAA199000691AY141061GF108991081051000251999999KA1999N+00281MD1310141+9999MW1451
0064106350999991929071006004+50217+008450FM-12+024499999V0209999900101220001CN0040001N9+01111+00501999999ADDAY101061GF102991001001999999001081KA1999N+00781MD1310061+9999
0064106350999991929071206004+50217+008450FM-12+024499999V0209999900101220001CN0100001N9+02001+01061999999ADDAY111061GF104991999001022501031999KA1999N+01611MD1810061+9999
0050106350999991929071306004+50217+008450FM-12+024499999V02099999001019999999N0100001N9+01721+01281999999ADDAY101061GF107991001001999999001999KA1999N+01611
0064106350999991929071406004+50217+008450FM-12+024499999V0209999900671220001CN0500001N9+01281+00391999999ADDAY101061GF101991001001999999001081KA1999N+01001MD1310061+9999
0050106350999991929071506004+50217+008450FM-12+024499999V0209999900101220001CN0500001N9+01611+00941999999ADDAY101061GF101991001001999999001999KA1999N+01221
0050106350999991929071606004+50217+008450FM-12+024499999V0209999900261220001CN0100001N9+01611+01171999999ADDAY101061GF108991001001999999001999KA1999N+01221
0050106350999991929071706004+50217+008450FM-12+024499999V0209999900101220001CN0200001N9+02001+01061999999ADDAY101061GF108991001001999999001999KA1999N+01611
0061106350999991929071806004+50217+008450FM-12+024499999V02099999006719999999N0200001N9+01891+00941999999ADDAA199004091AY191061GF107991999001008001001001KA1999N+01391
0064106350999991929071906004+50217+008450FM-12+024499999V0209999900261220001CN0040001N9+02001+01721999999ADDAY101061GF101991001001999999001081KA1999N+01781MD1310061+9999
0050106350999991929072006004+50217+008450FM-12+024499999V02099999004619999999N0100001N9+02001+01561999999ADDAY111061GF107991001001999999001999KA1999N+01891
0050106350999991929072106004+50217+008450FM-12+024499999V0209999900261220001CN0040001N9+02111+01831999999ADDAY101061GF101991001001999999001999KA1999N+02001
0050106350999991929072206004+50217+008450FM-12+024499999V0209999900461220001CN0100001N9+01891+01441999999ADDAY101061GF108991001001999999001999KA1999N+01721
0050106350999991929072306004+50217+008450FM-12+024499999V0209999900671220001CN0100001N9+02111+01671999999ADDAY111061GF108991001001999999001999KA1999N+01781
0064106350999991929072406004+50217+008450FM-12+024499999V02099999004619999999N0500001N9+01611+01331999999ADDAY111061GF108991001001999999001999KA1999N+01501MD1810141+9999
0061106350999991929072506004+50217+008450FM-12+024499999V02099999001019999999N0040001N9+01391+01331999999ADDAA199002091AY161061GF108991001001999999001999KA1999N+01281
0081106350999991929072606004+50217+008450FM-12+024499999V02099999004619999999N0020001N9+01001+00941999999ADDAA199010091AY161061GF108991001001999999001999KA1999N+01001MD1310061+9999MW1631
0050106350999991929072706004+50217+008450FM-12+024499999V0209999901231220001CN0040001N9+00781+00721999999ADDAY141061GF104991001001999999001999KA1999N+00611
0050106350999991929072806004+50217+008450FM-12+024499999V02099999002619999999N0040001N9+00891+00831999999ADDAY121061GF108991001001999999001999KA1999N+00781
0057106350999991929072906004+50217+008450FM-12+024499999V0209999900261000151CN0000001N9+01001+00941999999ADDAY141061GF108991081061000251999999MD1810141+9999MW1631
0081106350999991929073006004+50217+008450FM-12+024499999V0209999900671000151CN0000501N9+01221+01171999999ADDAA199012091AY141061GF108991081051000251999999KA1999N+01111MD1310141+9999MW1451
0056106350999991929073106004+50217+008450FM-12+024499999V0209999900461000151CN0000501N9+01001+00941999999ADDAY121061GF108991081051000251999999KA1999N+01001MW1451
0081106350999991929080106004+50217+008450FM-12+024499999V0209999901231000151CN0000501N9+01221+01171999999ADDAA199006091AY161061GF108991081061000251999999KA1999N+01001MD1810061+9999MW1611
0075106350999991929080206004+50217+008450FM-12+024499999V02099999004619999999N0040001N9+00891+00831999999ADDAA199000391AY141061GF108991999001000751001001KA1999N+00781MD1310141+9999
0064106350999991929080306004+50217+008450FM-12+024499999V0209991C00001220001CN0100001N9+01221+00781999999ADDAY101061GF108991001001999999001999KA1999N+00721MD1310141+9999
0064106350999991929080406004+50217+008450FM-12+024499999V0209999900461220001CN0100001N9+01391+00941999999ADDAY101061GF101991001001999999001999KA1999N+01221MD1810061+9999
0061106350999991929080506004+50217+008450FM-12+024499999V02099999004619999999N0100001N9+01281+01221999999ADDAA199001091AY111061GF107991999051000751001001KA1999N+01221
0050106350999991929080606004+50217+008450FM-12+024499999V0209999900261220001CN0100001N9+01111+00891999999ADDAY111061GF104991999001008001001001KA1999N+00781
0075106350999991929080806004+50217+008450FM-12+024499999V02099999002619999999N0100001N9+01281+01221999999ADDAA199003091AY111061GF107991999001000751001001KA1999N+01281MD1310061+9999
0081106350999991929080906004+50217+008450FM-12+024499999V0209999900461000151CN0000501N9+01001+00941999999ADDAA199001091AY141061GF108991081051000251999999KA1999N+00891MD1310061+9999MW1451
0050106350999991929081006004+50217+008450FM-12+024499999V0209999900461220001CN0100001N9+01221+01001999999ADDAY111061GF104991001001999999001999KA1999N+01111
0050106350999991929081106004+50217+008450FM-12+024499999V0209991C00001220001CN0040001N9+01611+01171999999ADDAY101061GF102991001001999999001999KA1999N+01221
0050106350999991929081206004+50217+008450FM-12+024499999V02099999001019999999N0100001N9+01501+01281999999ADDAY101061GF107991999001008001001001KA1999N+01281
0064106350999991929081306004+50217+008450FM-12+024499999V0209999900461220001CN0200001N9+01111+00671999999ADDAY101061GF102991001001999999001999KA1999N+00891MD1310061+9999
0050106350999991929081406004+50217+008450FM-12+024499999V0209999900261220001CN0100001N9+01611+00941999999ADDAY101061GF101991999001999999021001KA1999N+01391
0050106350999991929081506004+50217+008450FM-12+024499999V0209999900101220001CN0100001N9+01611+00941999999ADDAY111061GF104991001001999999001999KA1999N+01391
0050106350999991929081606004+50217+008450FM-12+024499999V0209999900261220001CN0040001N9+01781+00891999999ADDAY101061GF102991001001999999001081KA1999N+01501
0050106350999991929081706004+50217+008450FM-12+024499999V02099999006719999999N0040001N9+01781+01331999999ADDAY111061GF107991999001012501001001KA1999N+01501
0037106350999991929081806004+50217+008450FM-12+024499999V0209999900261007801CN0040001N9+01501+01281999999ADDAY121061GF108991081011008001999999
0050106350999991929081906004+50217+008450FM-12+024499999V0209999900671220001CN0100001N9+00781+00561999999ADDAY101061GF102991999001017501021001KA1999N+00781
0050106350999991929082006004+50217+008450FM-12+024499999V02099999002619999999N0200001N9+01001+00391999999ADDAY111061GF106991001001999999001999KA1999N+00781
0050106350999991929082106004+50217+008450FM-12+024499999V02099999001019999999N0100001N9+00891+00671999999ADDAY111061GF107991001001999999001999KA1999N+00781
0050106350999991929082206004+50217+008450FM-12+024499999V0209999900261220001CN0040001N9+01221+00611999999ADDAY101061GF101991001001999999001021KA1999N+01001
0081106350999991929082306004+50217+008450FM-12+024499999V0209999900461000151CN0002001N9+01001+00941999999ADDAA199001091AY141061GF108991081051000251999999KA1999N+00891MD1310061+9999MW1431
0067106350999991929082406004+50217+008450FM-12+024499999V0209999900261000151CN0000501N9+01221+01171999999ADDAA199006091AY141061GF108991081051000251999999KA1999N+01221MW1451
0056106350999991929082506004+50217+008450FM-12+024499999V0209999900101000151CN0002001N9+01221+01171999999ADDAY141061GF108991081051000251999999KA1999N+01001MW1451
0050106350999991929082606004+50217+008450FM-12+024499999V0209999900261220001CN0100001N9+01221+01001999999ADDAY101061GF104991021051002501001999KA1999N+01111
0050106350999991929082706004+50217+008450FM-12+024499999V0209999900931220001CN0040001N9+01281+00831999999ADDAY101061GF108991001001999999001999KA1999N+01111
0064106350999991929082906004+50217+008450FM-12+024499999V0209991C00001220001CN0040001N9+01721+01061999999ADDAY101061GF102991001001999999001999KA1999N+01501MD1110061+9999
0050106350999991929083006004+50217+008450FM-12+024499999V0209999900101220001CN0100001N9+01721+01061999999ADDAY101061GF102991001001999999001021KA1999N+01611
0064106350999991929083106004+50217+008450FM-12+024499999V0209999900461220001CN0100001N9+02001+01331999999ADDAY101061GF104991999001999999031001KA1999N+01781MD1510001+9999
0050106350999991929090206004+50217+008450FM-12+024499999V0209991C00001220001CN0040001N9+02281+01331999999ADDAY101061GF102991001001999999001021KA1999N+02001
0050106350999991929090306004+50217+008450FM-12+024499999V0209991C00001220001CN0040001N9+02281+01331999999ADDAY101061GF101991001001999999001081KA1999N+01891
0050106350999991929090406004+50217+008450FM-12+024499999V0209991C00001220001CN0040001N9+02221+01281999999ADDAY101061GF100991001001999999001001KA1999N+01891
0064106350999991929090506004+50217+008450FM-12+024499999V0209999900461220001CN0040001N9+02001+01061999999ADDAY101061GF101991999001008001001001KA1999N+01891MD1310061+9999
0050106350999991929090606004+50217+008450FM-12+024499999V0209999900261220001CN0040001N9+01781+01331999999ADDAY101061GF102991001001999999001081KA1999N+01611
0064106350999991929090706004+50217+008450FM-12+024499999V02099999006719999999N0500001N9+00611+00391999999ADDAY101061GF107991999001008001001001KA1999N+00391MD1310201+9999
0067106350999991929090806004+50217+008450FM-12+024499999V0209999900101000151CN0002001N9+01001+00941999999ADDAA199000691AY121061GF108991081061000251999999KA1999N+00781MW1511
0064106350999991929091006004+50217+008450FM-12+024499999V0209999900671220001CN0040001N9+01391+00941999999ADDAY101061GF102991001001999999001081KA1999N+01221MD1310061+9999
0064106350999991929091106004+50217+008450FM-12+024499999V0209999900461220001CN0100001N9+01111+00671999999ADDAY101061GF100991001001999999001001KA1999N+00781MD1310061+9999
0075106350999991929091406004+50217+008450FM-12+024499999V0209991C00001004501CN0040001N9+01611+01561999999ADDAA199002091AY111061GF106991999011004501999999KA1999N+01391MD1310061+9999
0070106350999991929091506004+50217+008450FM-12+024499999V0209999900671000151CN0002001N9+01391+01331999999ADDAY141061GF108991081051000251999999KA1999N+01391MD1310061+9999MW1431
0050106350999991929091606004+50217+008450FM-12+024499999V0209999900261220001CN0020001N9+01391+01331999999ADDAY101061GF100991001001999999001001KA1999N+01391
0050106350999991929091706004+50217+008450FM-12+024499999V0209999900461220001CN0040001N9+01391+00721999999ADDAY101061GF102991001001999999001021KA1999N+01111
0067106350999991929091906004+50217+008450FM-12+024499999V0209999900461220001CN0010001N9+01221+01171999999ADDAA199000591AY141061GF100991001001999999001001KA1999N+01221MW1101
0070106350999991929092106004+50217+008450FM-12+024499999V0209999900931000151CN0000501N9+00391+00331999999ADDAY141061GF108991081051000251999999KA1999N+00391MD1310141+9999MW1451
0081106350999991929092206004+50217+008450FM-12+024499999V0209999900931000151CN0000501N9+00611+00561999999ADDAA199002091AY141061GF108991081051000251999999KA1999N+00611MD1310201+9999MW1451
0081106350999991929092306004+50217+008450FM-12+024499999V0209999900931000151CN0000501N9+00781+00721999999ADDAA199003091AY161061GF108991081051000251999999KA1999N+00501MD1310061+9999MW1451
0056106350999991929092406004+50217+008450FM-12+024499999V0209999900461000151CN0002001N9+00891+00831999999ADDAY141061GF108991081051000251999999KA1999N+00891MW1431
0064106350999991929092506004+50217+008450FM-12+024499999V0209999900671220001CN0500001N9+00501+00111999999ADDAY101061GF100991001001999999001001KA1999N+00391MD1310141+9999
0050106350999991929092906004+50217+008450FM-12+024499999V0209999900261220001CN0040001N9+01221+00781999999ADDAY101061GF102991001001999999001021KA1999N+01001
0081106350999991929100106004+50217+008450FM-12+024499999V02099999012319999999N0040001N9+01001+00941999999ADDAA199000391AY161061GF108991999001002501001001KA1999N+01001MD1810061+9999MW1631
0067106350999991929100206004+50217+008450FM-12+024499999V0209999901231000151CN0000501N9+01001+00941999999ADDAA199002091AY141061GF108991081051000251999999KA1999N+00721MW1451
0081106350999991929100306004+50217+008450FM-12+024499999V0209999901541000151CN0000501N9+01221+01171999999ADDAA199030091AY161061GF108991081061000251999999KA1999N+00781MD1810061+9999MW1631
0075106350999991929100406004+50217+008450FM-12+024499999V02099999015419999999N0500001N9+01221+00781999999ADDAA199005091AY111061GF106991999001012501001001KA1999N+01111MD1310141+9999
0050106350999991929100506004+50217+008450FM-12+024499999V02099999012319999999N0500001N9+01221+00781999999ADDAY111061GF106991999001012501001001KA1999N+01221
0081106350999991929100706004+50217+008450FM-12+024499999V0209999900671000151CN0000501N9+00391+00331999999ADDAA199000391AY141061GF108991081051000251999999KA1999N+00391MD1310141+9999MW1451
0081106350999991929100906004+50217+008450FM-12+024499999V0209999900671000151CN0000501N9+00611+00561999999ADDAA199015091AY141061GF108991081051000251999999KA1999N+00611MD1310201+9999MW1451
0081106350999991929101006004+50217+008450FM-12+024499999V0209999900931000151CN0000501N9+00221+00171999999ADDAA199001091AY141061GF108991081051000251999999KA1999N+00221MD1310141+9999MW1451
0067106350999991929101106004+50217+008450FM-12+024499999V0209999900931000151CN0000501N9+00611+00561999999ADDAA199000391AY161061GF108991081051000251999999KA1999N+00501MW1451
0081106350999991929101206004+50217+008450FM-12+024499999V0209999900931000151CN0000501N9+00611+00561999999ADDAA199002091AY141061GF108991081051000251999999KA1999N+00611MD1110061+9999MW1451
0050106350999991929101306004+50217+008450FM-12+024499999V02099999002619999999N0100001N9+00721+00501999999ADDAY111061GF106991999001012501001001KA1999N+00501
0064106350999991929101506004+50217+008450FM-12+024499999V0209999900261002401CN0020001N9+00721+00671999999ADDAY121061GF108991999051002501001001KA1999N+00721MD1310061+9999
0056106350999991929101706004+50217+008450FM-12+024499999V0209999900261000151CN0005001N9+00721+00671999999ADDAY141061GF108991081051000251999999KA1999N+00611MW1451
0064106350999991929101806004+50217+008450FM-12+024499999V02099999002619999999N0040001N9+00611+00391999999ADDAY141061GF108991999001008001001001KA1999N+00611MD1810261+9999
0075106350999991929101906004+50217+008450FM-12+024499999V0209999900461002401CN0100001N9+00391+00331999999ADDAA199003091AY161061GF107991999051002501001001KA1999N+00391MD1610061+9999
0067106350999991929102006004+50217+008450FM-12+024499999V0209999900261000151CN0000501N9+00281+00221999999ADDAA199002091AY141061GF108991081051000251999999KA1999N+00281MW1451
0081106350999991929102106004+50217+008450FM-12+024499999V0209999900671000151CN0000501N9+00281+00221999999ADDAA199000391AY141061GF108991081051000251999999KA1999N+00281MD1310141+9999MW1451
0050106350999991929102206004+50217+008450FM-12+024499999V0209999900261220001CN0100001N9+00391+00171999999ADDAY101061GF102991999001017501031001KA1999N+00111
0061106350999991929102306004+50217+008450FM-12+024499999V0209991C00001001501CN0040001N9+00611+00561999999ADDAA199001091AY111061GF107991999051001501001001KA1999N+00611
0050106350999991929102406004+50217+008450FM-12+024499999V0209999900461220001CN0040001N9+00281+00221999999ADDAY101061GF104991999001008001001001KA1999N+00281
0067106350999991929102506004+50217+008450FM-12+024499999V0209999900671000151CN0000501N9+00501+00441999999ADDAA199000391AY161061GF108991081051000251999999KA1999N+00501MW1451
0064106350999991929102606004+50217+008450FM-12+024499999V0209999900461220001CN0100001N9+00111+00061999999ADDAY101061GF102991999051001501001001KA1999N+00111MD1610061+9999
0070106350999991929102706004+50217+008450FM-12+024499999V0209999900261000151CN0000501N9+00111+00061999999ADDAY141061GF108991081051000251999999KA1999N+00001MD1310061+9999MW1451
0081106350999991929102806004+50217+008450FM-12+024499999V0209999900671000151CN0000501N9+00001-00061999999ADDAA199002091AY141061GF108991081051000251999999KA1999N-00111MD1310201+9999MW1451
0081106350999991929102906004+50217+008450FM-12+024499999V0209999901541000151CN0000501N9+00111+00061999999ADDAA199007091AY161061GF108991081061000251999999KA1999N-00111MD1810261+9999MW1631
0081106350999991929103006004+50217+008450FM-12+024499999V0209999900461000151CN0000501N9+00391+00331999999ADDAA199001091AY141061GF108991081051000251999999KA1999N+00281MD1310061+9999MW1451
0081106350999991929103106004+50217+008450FM-12+024499999V0209999901231000151CN0000501N9+00221+00171999999ADDAA199000591AY141061GF108991081051000251999999KA1999N+00221MD1310261+9999MW1451
0070106350999991929110106004+50217+008450FM-12+024499999V0209999901231000151CN0000501N9+00001-00061999999ADDAY141061GF108991081051000251999999KA1999N-00111MD1310061+9999MW1451
0056106350999991929110206004+50217+008450FM-12+024499999V0209999900671000151CN0000501N9+00221+00171999999ADDAY141061GF108991081051000251999999KA1999N+00111MW1451
0064106350999991929110306004+50217+008450FM-12+024499999V02099999001019999999N0040001N9+00221+00171999999ADDAY141061GF106991999001008001001001KA1999N+00221MD1810061+9999
0070106350999991929110406004+50217+008450FM-12+024499999V0209999900261000151CN0000501N9+00111+00061999999ADDAY141061GF108991081051000251999999KA1999N+00111MD1310201+9999MW1451
0064106350999991929110506004+50217+008450FM-12+024499999V0209999900261220001CN0100001N9+00001-00221999999ADDAY101061GF101991999051004501021001KA1999N+00001MD1610061+9999
0070106350999991929110606004+50217+008450FM-12+024499999V0209999900461000151CN0000501N9-00221-00281999999ADDAY141061GF108991081051000251999999KA1999N-00221MD1810261+9999MW1451
0081106350999991929110706004+50217+008450FM-12+024499999V02099999004619999999N0100001N9+00221+00171999999ADDAA199000691AY111061GF107991999051002501001001KA1999N+00001MD1310061+9999MW1601
0081106350999991929110806004+50217+008450FM-12+024499999V0209999900671000151CN0000501N9+00111+00061999999ADDAA199000391AY141061GF108991081051000251999999KA1999N-00111MD1810061+9999MW1451
0081106350999991929110906004+50217+008450FM-12+024499999V0209999900931000151CN0000501N9+00391+00331999999ADDAA199007091AY141061GF108991081051000251999999KA1999N+00281MD1310141+9999MW1451
0070106350999991929111006004+50217+008450FM-12+024499999V0209999900671000151CN0000501N9+00111+00061999999ADDAY141061GF108991081051000251999999KA1999N+00001MD1810061+9999MW1451
0081106350999991929111106004+50217+008450FM-12+024499999V0209999900461000151CN0002001N9+00001-00061999999ADDAA199000391AY141061GF108991081051000251999999KA1999N+00001MD1310201+9999MW1431
0070106350999991929111206004+50217+008450FM-12+024499999V0209999901541000151CN0000501N9-00111-00171999999ADDAY141061GF108991081051000251999999KA1999N-00111MD1810341+9999MW1451
0070106350999991929111306004+50217+008450FM-12+024499999V0209999900671000151CN0000501N9-00111-00171999999ADDAY141061GF108991081051000251999999KA1999N-00111MD1610061+9999MW1451
0067106350999991929111406004+50217+008450FM-12+024499999V0209999900461000151CN0000501N9-00111-00171999999ADDAA199000591AY141061GF108991081051000251999999KA1999N-00111MW1451
0081106350999991929111506004+50217+008450FM-12+024499999V0209999900461000151CN0000501N9-00281-00331999999ADDAA199001091AY171061GF108991081061000251999999KA1999N-00281MD1310061+9999MW1711
0064106350999991929111606004+50217+008450FM-12+024499999V02099999006719999999N0040001N9-00501-00561999999ADDAY121061GF108991999051002501001001KA1999N-00501MD1810141+9999
0081106350999991929111706004+50217+008450FM-12+024499999V0209999900671000151CN0000501N9+00001-00061999999ADDAA199006091AY161061GF108991081061000251999999KA1999N+00001MD1310061+9999MW1681
0081106350999991929111806004+50217+008450FM-12+024499999V0209999900461000151CN0000501N9+00001-00061999999ADDAA199000591AY141061GF108991081051000251999999KA1999N-00111MD1310201+9999MW1451
0050106350999991929111906004+50217+008450FM-12+024499999V0209999900461220001CN0040001N9-00221-00281999999ADDAY101061GF101991999051000751001081KA1999N-00281
0050106350999991929112006004+50217+008450FM-12+024499999V0209999901231220001CN0100001N9+00391-00611999999ADDAY101061GF102991001001999999001081KA1999N-00111
0050106350999991929112106004+50217+008450FM-12+024499999V0209999900261220001CN0100001N9+00781-00281999999ADDAY101061GF101991999001999999021001KA1999N+00781
0050106350999991929112206004+50217+008450FM-12+024499999V0209991C000019999999N0100001N9+00781-00281999999ADDAY101061GF108991999051002501001001KA1999N+00611
0050106350999991929112306004+50217+008450FM-12+024499999V0209999900671002401CN0200001N9+00391+00331999999ADDAY111061GF107991999051002501001001KA1999N+00391
0067106350999991929112406004+50217+008450FM-12+024499999V02099999006719999999N0020001N9+00391+00331999999ADDAA199000591AY161061GF108991999001000751001001KA1999N+00391MW1611
0075106350999991929112506004+50217+008450FM-12+024499999V0209999900931220001CN0100001N9+00221+00171999999ADDAA199000391AY111061GF107991999001999999021001KA1999N+00111MD1810061+9999
0081106350999991929112606004+50217+008450FM-12+024499999V0209999900461000151CN0000501N9+00501+00441999999ADDAA199002091AY161061GF108991081061000251999999KA1999N+00501MD1110061+9999MW1611
0067106350999991929112706004+50217+008450FM-12+024499999V0209999900671000151CN0005001N9+00221+00171999999ADDAA199008091AY161061GF108991081051000251999999KA1999N+00001MW1431
0070106350999991929112806004+50217+008450FM-12+024499999V0209999900461000151CN0000501N9+00221+00171999999ADDAY141061GF108991081051000251999999KA1999N+00111MD1810061+9999MW1451
0056106350999991929112906004+50217+008450FM-12+024499999V0209999900671000151CN0000501N9+00501+00441999999ADDAY141061GF108991081051000251999999KA1999N+00281MW1451
0070106350999991929113006004+50217+008450FM-12+024499999V0209999900671000151CN0000501N9+00611+00561999999ADDAY141061GF108991081051000251999999KA1999N+00611MD1810061+9999MW1451
0081106350999991929120106004+50217+008450FM-12+024499999V0209999900261000151CN0000501N9+00611+00561999999ADDAA199014091AY161061GF108991081051000251999999KA1999N+00611MD1410001+9999MW1451
0067106350999991929120206004+50217+008450FM-12+024499999V0209999900461000151CN0000501N9+00391+00331999999ADDAA199001091AY141061GF108991081051000251999999KA1999N+00281MW1451
0081106350999991929120306004+50217+008450FM-12+024499999V0209999900261000151CN0000501N9+00281+00221999999ADDAA199012091AY161061GF108991081051000251999999KA1999N+00221MD1310061+9999MW1451
0061106350999991929120406004+50217+008450FM-12+024499999V02099999004619999999N0040001N9+00721+00671999999ADDAA199007091AY141061GF107991999051000251001001KA1999N+00501
0081106350999991929120506004+50217+008450FM-12+024499999V0209999900671000151CN0000501N9+00501+00441999999ADDAA199001091AY141061GF108991081051000251999999KA1999N+00501MD1810141+9999MW1451
0050106350999991929120606004+50217+008450FM-12+024499999V02099999004619999999N0200001N9+00281+00221999999ADDAY121061GF108991999001000751001001KA1999N+00281
0081106350999991929120706004+50217+008450FM-12+024499999V0209999901231000151CN0000501N9+00001-00061999999ADDAA199000591AY171061GF108991081061000251999999KA1999N+00001MD1810061+9999MW1711
0070106350999991929120806004+50217+008450FM-12+024499999V0209999900931000151CN0000501N9-00111-00171999999ADDAY141061GF108991081051000251999999KA1999N-00111MD1310061+9999MW1451
0075106350999991929120906004+50217+008450FM-12+024499999V02099999009319999999N0200001N9+00001-00061999999ADDAA199003091AY121061GF107991999001004501001001KA1999N+00001MD1310141+9999
0061106350999991929121006004+50217+008450FM-12+024499999V0202901N006719999999N0100001N9+00001-00061999999ADDAA199004091AY121061GF108991999001001501001001KA1999N+00001
0081106350999991929121106004+50217+008450FM-12+024499999V0209999901231000151CN0000501N9+00001-00061999999ADDAA199005091AY171061GF108991081051000251999999KA1999N-00221MD1810201+9999MW1451
0061106350999991929121206004+50217+008450FM-12+024499999V02099999012319999999N0200001N9+00391+00171999999ADDAA199000591AY121061GF108991999001002501001001KA1999N+00281
0075106350999991929121306004+50217+008450FM-12+024499999V02099999006719999999N0100001N9+00111+00061999999ADDAA199000391AY121061GF107991999001001501001001KA1999N+00111MD1310141+9999
0067106350999991929121406004+50217+008450FM-12+024499999V0209999900671000151CN0000501N9+00281+00221999999ADDAA199001091AY161061GF108991081061000251999999KA1999N+00221MW1801
0067106350999991929121506004+50217+008450FM-12+024499999V0209999900671000151CN0000501N9+00781+00721999999ADDAA199000391AY141061GF108991081051000251999999KA1999N+00611MW1451
0056106350999991929121606004+50217+008450FM-12+024499999V0209999900931000151CN0000501N9+00001-00061999999ADDAY141061GF108991081051000251999999KA1999N+00001MW1451
0064106350999991929121806004+50217+008450FM-12+024499999V0209999900461220001CN0200001N9-00611-00671999999ADDAY101061GF102991999001001501001001KA1999N-00611MD1310141+9999
0064106350999991929121906004+50217+008450FM-12+024499999V0209999900261220001CN0100001N9-00781-00941999999ADDAY101061GF101991001001999999001021KA1999N-00781MD1610141+9999
0064106350999991929122006004+50217+008450FM-12+024499999V0209999900671220001CN0200001N9-01001-01061999999ADDAY101061GF101991001001999999001021KA1999N-01001MD1810141+9999
0070106350999991929122106004+50217+008450FM-12+024499999V0209999900931000151CN0005001N9-01001-01061999999ADDAY141061GF108991081051000251999999KA1999N-01001MD1810141+9999MW1451
0064106350999991929122206004+50217+008450FM-12+024499999V0209999900671220001CN0200001N9-00721-00781999999ADDAY101061GF100991001001999999001001KA1999N-00781MD1810141+9999
0067106350999991929122306004+50217+008450FM-12+024499999V0209999900261000151CN0000501N9-00391-00441999999ADDAA199002091AY171061GF108991081061000251999999KA1999N-00501MW1711
0081106350999991929122406004+50217+008450FM-12+024499999V0209999900671000151CN0000501N9-00391-00441999999ADDAA199004091AY171061GF108991081061000251999999KA1999N-00611MD1610141+9999MW1711
0070106350999991929122506004+50217+008450FM-12+024499999V0209999900931220001CN0000501N9+00111+00061999999ADDAY141061GF101991999051000251031001KA1999N+00001MD1610141+9999MW1451
0081106350999991929122606004+50217+008450FM-12+024499999V0209999900671000151CN0002001N9+00221+00171999999ADDAA199002091AY161061GF108991081061000251999999KA1999N+00221MD1310061+9999MW1611
0056106350999991929122706004+50217+008450FM-12+024499999V0209999900261000151CN0000501N9-00111-00171999999ADDAY141061GF108991081051000251999999KA1999N-00111MW1451
0067106350999991929122806004+50217+008450FM-12+024499999V0209999900261000151CN0000501N9+00001-00061999999ADDAA199005091AY171061GF108991081051000251999999KA1999N-00111MW1451
0081106350999991929122906004+50217+008450FM-12+024499999V0209999900931000151CN0000501N9+00281+00221999999ADDAA199005091AY161061GF108991081061000251999999KA1999N-00111MD1810141+9999MW1611
0075106350999991929123006004+50217+008450FM-12+024499999V02099999012319999999N0200001N9+00111+00061999999ADDAA199000391AY121061GF107991999001002501001001KA1999N+00001MD1310141+9999
0064106350999991929123106004+50217+008450FM-12+024499999V02099999006719999999N0040001N9+00111+00061999999ADDAY141061GF106991999001001501001001KA1999N+00001MD1310141+9999
