0081106370999991926010106004+50050+008600FM-12+003499999V0209999900931030001CN0500001N9+00721+00331101721ADDAA199002091AY161061GF106991021091004501021001KA1999N+00611MD1210201+9999MW1211
0081106370999991926010206004+50050+008600FM-12+003499999V0209991C00001004501CN0005001N9+00611+00391100961ADDAA199002091AY161061GF108991081051004501999999KA1999N+00391MD1810401+9999MW1211
0081106370999991926010306004+50050+008600FM-12+003499999V02099999002619999999N0200001N9+00891+00671100791ADDAA199002091AY161061GF107991999061004501001001KA1999N+00781MD1310141+9999MW1211
0075106370999991926010406004+50050+008600FM-12+003499999V0209999900261007801CN0040001N9+00501+00281100831ADDAA199007091AY161061GF106991061051008001031001KA1999N+00501MD1310261+9999
0075106370999991926010506004+50050+008600FM-12+003499999V0209999900101030001CN0010001N9+00501+00281101591ADDAA199002091AY161061GF107991041051008001021001KA1999N+00501MD1310141+9999
0070106370999991926010606004+50050+008600FM-12+003499999V0209999900101007801CN0005001N9+00221+00171102301ADDAY141061GF107991071051008001001001KA1999N+00111MD1310141+9999MW1421
0061106370999991926010706004+50050+008600FM-12+003499999V0209999900101220001CN0010001N9+00611+00391102151ADDAA199008091AY161061GF102991021051012501001001KA1999N+00501
0061106370999991926010806004+50050+008600FM-12+003499999V0209999900461004501CN0040001N9+00391+00171102161ADDAA199001091AY161061GF107991061061004501021001KA1999N+00391
0056106370999991926010906004+50050+008600FM-12+003499999V0209999900261030001CN0010001N9+00221+00001102731ADDAY161061GF108991041061008001021001KA1999N+00221MW1211
0064106370999991926011006004+50050+008600FM-12+003499999V0209999900261220001CN0040001N9+00001-00221102831ADDAY101061GF101991001001999999001021KA1999N+00001MD1510001+9999
0064106370999991926011106004+50050+008600FM-12+003499999V0209999900101220001CN0200001N9-00111-00281103001ADDAY101061GF102991011051012501001021KA1999N-00111MD1310061+9999
0050106370999991926011206004+50050+008600FM-12+003499999V0209999900461220001CN0200001N9-00391-01281103181ADDAY101061GF101991011051017501001001KA1999N-00391
0064106370999991926011306004+50050+008600FM-12+003499999V0209999900461220001CN0040001N9-00891-01391102711ADDAY101061GF102991021051012501001001KA1999N-00891MD1810141+9999
0064106370999991926011406004+50050+008600FM-12+003499999V0209999900461220001CN0020001N9-00891-01061101281ADDAY101061GF102991011051012501001021KA1999N-00891MD1710141+9999
0056106370999991926011506004+50050+008600FM-12+003499999V0209991C00001000151CN0010001N9-00501-00561100921ADDAY171061GF108991081051000251999999KA1999N-00501MW1101
0081106370999991926011606004+50050+008600FM-12+003499999V0209999900101002401CN0010001N9-00611-02671101031ADDAA199003091AY171061GF108991081051002501999999KA1999N-00611MD1810061+9999MW1231
0067106370999991926011706004+50050+008600FM-12+003499999V0209999900261002401CN0005001N9-00611-00671100911ADDAA199001091AY121061GF108991081051002501999999KA1999N-00611MW1701
0081106370999991926011806004+50050+008600FM-12+003499999V0209999900101002401CN0005001N9-00391-00561100961ADDAA199000391AY171061GF108991081051002501999999KA1999N-00391MD1310201+9999MW1711
0070106370999991926011906004+50050+008600FM-12+003499999V0209991C00001004501CN0010001N9-00501-00831101471ADDAY141061GF107991999051004501001001KA1999N-00721MD1810061+9999MW1101
0081106370999991926012006004+50050+008600FM-12+003499999V0209991C00001002401CN0005001N9-00281-00331101321ADDAA199003091AY181061GF108991081051002501999999KA1999N-00281MD1310061+9999MW1681
0081106370999991926012106004+50050+008600FM-12+003499999V0209999900261220001CN0010001N9-00221-00281101221ADDAA199000691AY171061GF104991001001999999021081KA1999N-00221MD1810061+9999MW1101
0070106370999991926012206004+50050+008600FM-12+003499999V0209991C00001004501CN0002001N9-00281-00441102081ADDAY141061GF108991081051004501999999KA1999N-00501MD1310261+9999MW1461
0070106370999991926012306004+50050+008600FM-12+003499999V0209999900671220001CN0200001N9+00001-00061101761ADDAY111061GF106991999001999999021001KA1999N-00111MD1810141+9999MW1681
0081106370999991926012406004+50050+008600FM-12+003499999V0209999900261004501CN0010001N9+00221+00001101371ADDAA199000591AY161061GF108991081061004501999999KA1999N+00221MD1010141+9999MW1211
0050106370999991926012506004+50050+008600FM-12+003499999V0209999900671220001CN0040001N9+00281+00061102641ADDAY111061GF104991041051008001001091KA1999N+00281
0061106370999991926012606004+50050+008600FM-12+003499999V0209999900101030001CN0010001N9+00501+00441102631ADDAA199002091AY161061GF108991041061008001021001KA1999N+00501
0070106370999991926012706004+50050+008600FM-12+003499999V02099999001019999999N0010001N9+00281+00221102611ADDAY141061GF108991999061004501001001KA1999N+00281MD1710061+9999MW1101
0070106370999991926012806004+50050+008600FM-12+003499999V0209999900461220001CN0010001N9+00281+00221102371ADDAY141061GF106991001001999999001081KA1999N+00221MD1310061+9999MW1101
0064106370999991926012906004+50050+008600FM-12+003499999V02099999002619999999N0010001N9+00391+00171100991ADDAY121061GF108991999001022501021081KA1999N+00281MD1810201+9999
0075106370999991926013006004+50050+008600FM-12+003499999V0209999900461030001CN0020001N9+00501+00281101511ADDAA199000391AY161061GF108991021061002501021001KA1999N+00501MD1310061+9999
0067106370999991926013106004+50050+008600FM-12+003499999V0209999900101030001CN0020001N9+00391+00171100881ADDAA199000391AY161061GF108991041051008001021001KA1999N+00281MW1211
0067106370999991926020106004+50050+008600FM-12+003499999V0209999900101220001CN0010001N9+00391+00331100791ADDAA199000691AY141061GF104991021051012501021001KA1999N+00391MW1101
0070106370999991926020206004+50050+008600FM-12+003499999V0209991C00001220001CN0005001N9+00611+00561100261ADDAY141061GF104991041051008001021001KA1999N+00001MD1810061+9999MW1441
0081106370999991926020306004+50050+008600FM-12+003499999V0209991C000019999999N0005001N9+00721+00671099731ADDAA199000391AY141061GF107991999061008001001001KA1999N+00611MD1710141+9999MW1441
0081106370999991926020406004+50050+008600FM-12+003499999V0209999900461007801CN0020001N9+00721+00671099811ADDAA199003091AY181061GF108991081061008001999999KA1999N+00501MD1310061+9999MW1211
0081106370999991926020506004+50050+008600FM-12+003499999V0209991C00001004501CN0010001N9+00721+00671101311ADDAA199000691AY161061GF108991081051004501999999KA1999N+00611MD1310141+9999MW1511
0094106370999991926020606004+50050+008600FM-12+003499999V0209999900101007801CN0010001N9+00781+00721101231ADDAA199000691AY121061GF108991081051008001999999KA1999N+99999MD1310061+9999EQDQ01 +00892ATMN  
0081106370999991926020706004+50050+008600FM-12+003499999V0209999900101007801CN0010001N9+00391+00001100691ADDAA199000391AY161061GF108991061051008001021001KA1999N+00391MD1110061+9999MW1211
0067106370999991926020806004+50050+008600FM-12+003499999V0209991C00001002401CN0000501N9+00611+00561101151ADDAA199004091AY161061GF108991081051002501999999KA1999N+00611MW1451
0070106370999991926020906004+50050+008600FM-12+003499999V0209999900101002401CN0010001N9+00391+00331100611ADDAY141061GF108991081051002501999999KA1999N+00281MD1810061+9999MW1101
0081106370999991926021006004+50050+008600FM-12+003499999V0209999900101004501CN0005001N9+00611+00561100391ADDAA199008091AY161061GF108991081051004501999999KA1999N+00501MD1310061+9999MW1531
0081106370999991926021106004+50050+008600FM-12+003499999V0209999900101004501CN0020001N9+00611+00391100931ADDAA199001091AY181061GF108991081051004501999999KA1999N+00501MD1310061+9999MW1451
0067106370999991926021206004+50050+008600FM-12+003499999V0209999900101002401CN0005001N9+00391+00331100901ADDAA199000591AY141061GF108991081051002501999999KA1999N+00391MW1611
0081106370999991926021306004+50050+008600FM-12+003499999V0209999900101004501CN0010001N9+00501+00441101441ADDAA199000691AY141061GF107991061051004501021001KA1999N+00501MD1310141+9999MW1101
0070106370999991926021406004+50050+008600FM-12+003499999V0209999900101004501CN0010001N9+00501+00281102431ADDAY121061GF108991081051004501999999KA1999N+00391MD1310201+9999MW1101
0043106370999991926021506004+50050+008600FM-12+003499999V0209991C00001000151CN0000001N9+00111+00061102751ADDAY141061GF108991081051000251999999MW1471
0081106370999991926021606004+50050+008600FM-12+003499999V02099999004619999999N0020001N9+00501+00281101601ADDAA199002091AY161061GF108991999061002501001001KA1999N+00501MD1610061+9999MW1631
0064106370999991926021706004+50050+008600FM-12+003499999V02099999006719999999N0100001N9+00501+00281101321ADDAY111061GF107991999061008001001001KA1999N+00391MD1810261+9999
0067106370999991926021806004+50050+008600FM-12+003499999V0209999900671002401CN0100001N9+00781+00561099911ADDAA199013091AY161061GF108991061061002501021001KA1999N+00501MW1211
0064106370999991926021906004+50050+008600FM-12+003499999V0209999900101030001CN0020001N9+00281+00061101441ADDAY111061GF108991021051012501021001KA1999N+00281MD1810141+9999
0062106370999991926022006004+50050+008600FM-12+003499999V0209999900461030001CN0100001N9+01001+00781101911ADDAA199000591AY161061GF106991041051012501021001MD1310141+9999
0050106370999991926022106004+50050+008600FM-12+003499999V0209999900261220001CN0500001N9+00391+99999102371ADDAY141061GF104991999001999999021001KA1999N+00391
0081106370999991926022206004+50050+008600FM-12+003499999V0209999900261004501CN0005001N9+00721+00671101901ADDAA199002091AY161061GF108991081051004501999999KA1999N+00611MD1710061+9999MW1631
0070106370999991926022306004+50050+008600FM-12+003499999V0209999900101030001CN0010001N9+00281+00221102741ADDAY111061GF106991041051004501021001KA1999N+00281MD1310201+9999MW1101
0081106370999991926022406004+50050+008600FM-12+003499999V02099999001019999999N0010001N9+00611+00561102731ADDAA199000391AY111061GF107991999001017501021001KA1999N+00611MD1310061+9999MW1101
0070106370999991926022506004+50050+008600FM-12+003499999V0209991C00001004501CN0005001N9+00721+00671102991ADDAY141061GF108991081051004501999999KA1999N+00501MD1310061+9999MW1441
0070106370999991926022606004+50050+008600FM-12+003499999V0209999900101007801CN0010001N9+00781+00721103201ADDAY141061GF107991071051008001001001KA1999N+00721MD1310141+9999MW1101
0070106370999991926022706004+50050+008600FM-12+003499999V0209999900101220001CN0010001N9+00281+00221103511ADDAY101061GF102991999001999999031001KA1999N+00221MD1310141+9999MW1101
0050106370999991926022806004+50050+008600FM-12+003499999V02099999001019999999N0020001N9+00611+00391102511ADDAY111061GF108991999001017501021001KA1999N+00611
0064106370999991926030106004+50050+008600FM-12+003499999V0209999900261007801CN0020001N9+00611+00221103201ADDAY141061GF108991061061008001031001KA1999N+00501MD1310061+9999
0070106370999991926030206004+50050+008600FM-12+003499999V0209999900261002401CN0010001N9+00221+00001103041ADDAY141061GF108991081051002501999999KA1999N+00111MD1710061+9999MW1611
0064106370999991926030306004+50050+008600FM-12+003499999V0209999900461007801CN0020001N9+00721+00501102381ADDAY141061GF108991081051008001999999KA1999N+00721MD1810061+9999
0064106370999991926030406004+50050+008600FM-12+003499999V02099999006719999999N0200001N9+00721+00111101401ADDAY111061GF106991999091004501001001KA1999N+00721MD1610141+9999
0081106370999991926030506004+50050+008600FM-12+003499999V02099999006719999999N0100001N9+00111-00111100511ADDAA199001091AY171061GF107991999091008001001001KA1999N+00111MD1210341+9999MW1231
0081106370999991926030606004+50050+008600FM-12+003499999V0209999900931002401CN0020001N9+00001-00061101491ADDAA199000691AY111061GF108991081051002501999999KA1999N+00001MD1710401+9999MW1731
0081106370999991926030706004+50050+008600FM-12+003499999V02099999002619999999N0040001N9+00781+00391101321ADDAA199001091AY161061GF106991999061004501001001KA1999N+00611MD1310141+9999MW1801
0075106370999991926030806004+50050+008600FM-12+003499999V02099999001019999999N0020001N9+01001+00941102261ADDAA199002091AY161061GF108991999061008001001001KA1999N+00501MD1210141+9999
0075106370999991926030906004+50050+008600FM-12+003499999V0209999900461007801CN0040001N9+00891+00281102591ADDAA124999999AY161061GF108991061051008001021001KA1999N+00891MD1610061+9999
0075106370999991926031006004+50050+008600FM-12+003499999V0209999900931220001CN0100001N9+00221-00331101951ADDAA199000591AY181061GF100991001001999999001001KA1999N+00221MD1810061+9999
0075106370999991926031106004+50050+008600FM-12+003499999V0209999900101220001CN0200001N9+00281-00281103331ADDAA199000391AY181061GF104991041051008001001091KA1999N+00221MD1310201+9999
0061106370999991926031206004+50050+008600FM-12+003499999V0209999900461030001CN0040001N9+00781+00561102691ADDAA199000691AY161061GF108991041061008001021001KA1999N+00501
0037106370999991926031306004+50050+008600FM-12+003499999V0209999900461007801CN0020001N9+00891+00441102801ADDAY121061GF108991999061008001001001
0064106370999991926031506004+50050+008600FM-12+003499999V0209999900671030001CN0020001N9+00611+00221101981ADDAY121061GF108991041061008001021001KA1999N+00611MD1210061+9999
0064106370999991926031606004+50050+008600FM-12+003499999V0209999900101030001CN0040001N9+00501+00281102171ADDAY111061GF108991041051008001021001KA1999N+00391MD1310061+9999
0062106370999991926031706004+50050+008600FM-12+003499999V0209999900101220001CN0040001N9+00001-00331102241ADDAA199010091AY101061GF101991001001999999001021MD1990061+9999
0050106370999991926031806004+50050+008600FM-12+003499999V0209999900101015001CN0020001N9+00281+00061101431ADDAY101061GF107991061051017501031001KA1999N+00221
0075106370999991926031906004+50050+008600FM-12+003499999V0209999900101220001CN0010001N9+00111-00221101801ADDAA199020091AY111061GF102991021051022501031001KA1999N+00001MD1310141+9999
0064106370999991926032006004+50050+008600FM-12+003499999V0209999900261220001CN0020001N9+00111-00221102031ADDAY111061GF100991001001999999001001KA1999N+00111MD1310061+9999
0050106370999991926032106004+50050+008600FM-12+003499999V0209999900261220001CN0500001N9-00281-00611102061ADDAY101061GF100991001001999999001001KA1999N-00281
0064106370999991926032206004+50050+008600FM-12+003499999V0209999900461030001CN0100001N9+00001-00501101831ADDAY111061GF106991041051017501021001KA1999N-00111MD1610061+9999
0050106370999991926032306004+50050+008600FM-12+003499999V0209999900101220001CN0040001N9-00111-00441101911ADDAY101061GF101991999001017501021001KA1999N-00221
0050106370999991926032406004+50050+008600FM-12+003499999V0209999900101220001CN0040001N9+00001-00331101721ADDAY101061GF100991001001999999001001KA1999N-00111
0070106370999991926032506004+50050+008600FM-12+003499999V0209999900101220001CN0010001N9+00221+00001101301ADDAY141061GF102991999001017501021081KA1999N+00001MD1310061+9999MW1101
0064106370999991926032606004+50050+008600FM-12+003499999V0209999900101220001CN0020001N9+00391+00171101281ADDAY101061GF100991001001999999001001KA1999N+00221MD1310061+9999
0056106370999991926032706004+50050+008600FM-12+003499999V0209991C00001220001CN0010001N9+00501+00441100751ADDAY141061GF100991001001999999001001KA1999N+00391MW1101
0061106370999991926032806004+50050+008600FM-12+003499999V0209999900101075001CN0040001N9+00501+00281100041ADDAA199001091AY161061GF106991041051012501001081KA1999N+00391
0064106370999991926032906004+50050+008600FM-12+003499999V0209991C00001004501CN0020001N9+00611+00561100301ADDAY141061GF108991081051004501999999KA1999N+00501MD1210061+9999
0081106370999991926033006004+50050+008600FM-12+003499999V0209999900261007801CN0020001N9+01111+01061100151ADDAA199002091AY161061GF108991081061008001999999KA1999N+01111MD1310061+9999MW1611
0070106370999991926033106004+50050+008600FM-12+003499999V0209999900101012301CN0020001N9+00611+00391101791ADDAY101061GF107991071051012501001001KA1999N+00611MD1310061+9999MW1441
0064106370999991926040106004+50050+008600FM-12+003499999V0209999900101220001CN0020001N9+00501+00111102341ADDAY101061GF100991001001999999001001KA1999N+00281MD1210141+9999
0064106370999991926040206004+50050+008600FM-12+003499999V0209999900101220001CN0200001N9+00781+00391102661ADDAY101061GF102991001001999999001021KA1999N+00391MD1310141+9999
0064106370999991926040306004+50050+008600FM-12+003499999V0209999900101220001CN0040001N9+01001+00391102861ADDAY101061GF104991001001999999031091KA1999N+00781MD1310061+9999
0064106370999991926040406004+50050+008600FM-12+003499999V0209999900101220001CN0040001N9+00891+00281102521ADDAY101061GF102991001001999999001091KA1999N+00611MD1310141+9999
0064106370999991926040506004+50050+008600FM-12+003499999V02099999001019999999N0100001N9+01221+00781102711ADDAY111061GF106991999001022501031001KA1999N+00781MD1310061+9999
0050106370999991926040606004+50050+008600FM-12+003499999V0209999900101220001CN0020001N9+00781+00561102461ADDAY101061GF101991001001999999001081KA1999N+00611
0050106370999991926040706004+50050+008600FM-12+003499999V0209991C00001220001CN0020001N9+00891+00671101761ADDAY101061GF104991999001999999021001KA1999N+00721
0050106370999991926040806004+50050+008600FM-12+003499999V0209999900261030001CN0100001N9+01221+00781101491ADDAY111061GF106991041051012501021001KA1999N+01221
0075106370999991926040906004+50050+008600FM-12+003499999V0209999900261220001CN0100001N9+00781+00391101261ADDAA199000391AY161061GF104991041051008001001001KA1999N+00721MD1310061+9999
0064106370999991926041006004+50050+008600FM-12+003499999V0209999900261220001CN0020001N9+00781+00561101321ADDAY121061GF104991041051017501031001KA1999N+00611MD1810061+9999
0075106370999991926041106004+50050+008600FM-12+003499999V0209991C00001012301CN0100001N9+00721+00331101901ADDAA199000691AY181061GF107991061051012501001081KA1999N+00391MD1310141+9999
0064106370999991926041206004+50050+008600FM-12+003499999V0209999900101220001CN0100001N9+00501+00111101971ADDAY101061GF100991001001999999001001KA1999N+00221MD1310061+9999
0064106370999991926041306004+50050+008600FM-12+003499999V0209991C00001220001CN0200001N9+00721+00331102171ADDAY101061GF101991001001999999001081KA1999N+00281MD1310061+9999
0064106370999991926041406004+50050+008600FM-12+003499999V0209991C00001220001CN0200001N9+00611+00221102521ADDAY101061GF100991001001999999001001KA1999N+00221MD1310141+9999
0056106370999991926041506004+50050+008600FM-12+003499999V0209991C00001220001CN0010001N9+00611+00221102191ADDAY141061GF100991001001999999001001KA1999N+00281MW1101
0070106370999991926041606004+50050+008600FM-12+003499999V0209999900101030001CN0040001N9+01001+00611101441ADDAY111061GF108991041061012501021001KA1999N+00611MD1110201+9999MW1611
0064106370999991926041706004+50050+008600FM-12+003499999V0209999900461220001CN0200001N9+00891+00281100861ADDAY111061GF104991021011012501001081KA1999N+00611MD1210201+9999
0067106370999991926041806004+50050+008600FM-12+003499999V0209999900261007801CN0010001N9+00501+00281100591ADDAA199002091AY181061GF106991061061008001001001KA1999N+00501MW1211
0081106370999991926041906004+50050+008600FM-12+003499999V0209999900101007801CN0040001N9+00891+00671099511ADDAA199003091AY161061GF108991081061008001999999KA1999N+00611MD1710141+9999MW1621
0064106370999991926042006004+50050+008600FM-12+003499999V0209999900461030001CN0100001N9+00721+00331100421ADDAY111061GF106991041051008001021001KA1999N+00501MD1310061+9999
0061106370999991926042106004+50050+008600FM-12+003499999V0209999900261007801CN0040001N9+00721+00501099401ADDAA199004091AY121061GF107991061051008001021001KA1999N+00611
0081106370999991926042206004+50050+008600FM-12+003499999V0209999900101007801CN0040001N9+00611+00391100121ADDAA199001091AY161061GF108991081061008001999999KA1999N+00501MD1310141+9999MW1601
0070106370999991926042306004+50050+008600FM-12+003499999V0209999900101001501CN0002001N9+00391+00171101241ADDAY141061GF108991081051001501999999KA1999N+00281MD1310201+9999MW1451
0050106370999991926042406004+50050+008600FM-12+003499999V02099999002619999999N0040001N9+00781+00561101601ADDAY121061GF108991999001017501021001KA1999N+00611
0064106370999991926042506004+50050+008600FM-12+003499999V02099999006719999999N0100001N9+01281+01061099701ADDAY121061GF108991999001017501021001KA1999N+01111MD1810401+9999
0081106370999991926042606004+50050+008600FM-12+003499999V0209999900461002401CN0005001N9+00891+00831100511ADDAA199002091AY191061GF108991081061002501999999KA1999N+00891MD1310341+9999MW1991
0064106370999991926042706004+50050+008600FM-12+003499999V0209999900101007801CN0040001N9+00781+00721101671ADDAY121061GF108991081051008001999999KA1999N+00721MD1310141+9999
0050106370999991926042806004+50050+008600FM-12+003499999V0209999900101220001CN0100001N9+00781+00721101751ADDAY111061GF104991999001999999021001KA1999N+00721
0050106370999991926042906004+50050+008600FM-12+003499999V0209999900101030001CN0040001N9+01001+00941101321ADDAY121061GF107991041051008001031001KA1999N+00611
0050106370999991926043006004+50050+008600FM-12+003499999V0209999900101220001CN0100001N9+01221+01171101311ADDAY101061GF102991001001999999001081KA1999N+00891
0050106370999991926050106004+50050+008600FM-12+003499999V0209999900101012301CN0100001N9+01501+01441100611ADDAY121061GF108991081051012501999999KA1999N+01391
0064106370999991926050206004+50050+008600FM-12+003499999V0209999900261004501CN0500001N9+01391+01171100341ADDAY111061GF108991081051004501999999KA1999N+01281MD1310141+9999
0081106370999991926050306004+50050+008600FM-12+003499999V0209999900101007801CN0020001N9+00721+00671101061ADDAA199010091AY161061GF108991081061008001999999KA1999N+00721MD1310141+9999MW1211
0064106370999991926050406004+50050+008600FM-12+003499999V0209999900101012301CN0100001N9+00781+00721101071ADDAY121061GF108991081051012501999999KA1999N+00721MD1310061+9999
0050106370999991926050506004+50050+008600FM-12+003499999V02099999001019999999N0100001N9+01001+00611100961ADDAY111061GF106991999001017501031001KA1999N+00721
0067106370999991926050606004+50050+008600FM-12+003499999V0209999900101004501CN0020001N9+00891+00831100661ADDAA199000691AY141061GF108991081051004501999999KA1999N+00721MW1441
0064106370999991926050706004+50050+008600FM-12+003499999V02099999002619999999N0100001N9+00611+00561101511ADDAY111061GF106991999001008001001001KA1999N+00281MD1310141+9999
0081106370999991926050806004+50050+008600FM-12+003499999V0209999900101007801CN0010001N9+00501+00441101141ADDAA199000691AY161061GF108991081061008001999999KA1999N+00281MD1310061+9999MW1511
0075106370999991926050906004+50050+008600FM-12+003499999V02099999004619999999N0100001N9+00501+00281101201ADDAA199002091AY181061GF106991999091008001001001KA1999N+00391MD1310141+9999
0061106370999991926051006004+50050+008600FM-12+003499999V0209999900101220001CN0020001N9+00281+00221101331ADDAA199001091AY111061GF101991999001999999031001KA1999N+00111
0050106370999991926051106004+50050+008600FM-12+003499999V0209991C000019999999N0020001N9+00611+00561101061ADDAY111061GF108991999001017501021001KA1999N+00391
0064106370999991926051206004+50050+008600FM-12+003499999V0209999900261030001CN0040001N9+01111+00671101201ADDAY121061GF106991041051012501031001KA1999N+00781MD1310141+9999
0064106370999991926051306004+50050+008600FM-12+003499999V0209999900101220001CN0040001N9+01221+01171101351ADDAY111061GF104991021051017501001081KA1999N+01001MD1110061+9999
0067106370999991926051406004+50050+008600FM-12+003499999V0209999900101030001CN0040001N9+01111+00891101411ADDAA199000691AY111061GF108991041061008001021001KA1999N+00781MW1611
0081106370999991926051506004+50050+008600FM-12+003499999V0209999900101007801CN0020001N9+01001+00941100601ADDAA199003091AY161061GF108991081061008001999999KA1999N+00781MD1810061+9999MW1631
0081106370999991926051606004+50050+008600FM-12+003499999V0209999900101004501CN0020001N9+01001+00941099901ADDAA199003091AY161061GF108991081061004501999999KA1999N+00781MD1710061+9999MW1611
0081106370999991926051706004+50050+008600FM-12+003499999V0209999900101004501CN0010001N9+00891+00831100161ADDAA199003091AY161061GF108991081061004501999999KA1999N+00891MD1310261+9999MW1531
0075106370999991926051806004+50050+008600FM-12+003499999V02099999001019999999N0100001N9+00721+00671101371ADDAA199004091AY121061GF108991999001017501021001KA1999N+00721MD1310261+9999
0075106370999991926051906004+50050+008600FM-12+003499999V0209991C000019999999N0020001N9+00721+00671101671ADDAA199000691AY141061GF108991999051008001001001KA1999N+00611MD1310141+9999
0064106370999991926052006004+50050+008600FM-12+003499999V0209991C00001220001CN0040001N9+00891+00831101831ADDAY111061GF104991041051004501001001KA1999N+00001MD1310061+9999
0064106370999991926052106004+50050+008600FM-12+003499999V0209999900101030001CN0020001N9+01221+01001101701ADDAY111061GF106991021011017501031001KA1999N+01001MD1310061+9999
0064106370999991926052206004+50050+008600FM-12+003499999V0209999900101030001CN0100001N9+01391+00941101631ADDAY111061GF106991041051017501031001KA1999N+01001MD1310061+9999
0064106370999991926052306004+50050+008600FM-12+003499999V0209999900101030001CN0040001N9+01501+01281101461ADDAY101061GF108991041051008001021001KA1999N+01001MD1310141+9999
0064106370999991926052406004+50050+008600FM-12+003499999V0209999900101220001CN0040001N9+01001+00611102021ADDAY111061GF102991999001017501031081KA1999N+00721MD1310061+9999
0064106370999991926052506004+50050+008600FM-12+003499999V0209999900101220001CN0020001N9+01001+00391102211ADDAY101061GF102991011051017501001091KA1999N+00611MD1310141+9999
0064106370999991926052606004+50050+008600FM-12+003499999V02099999001019999999N0040001N9+01111+01061102211ADDAY101061GF106991999011008001001001KA1999N+00721MD1310061+9999
0064106370999991926052706004+50050+008600FM-12+003499999V0209999900101220001CN0040001N9+01391+01331101641ADDAY101061GF100991001001999999001001KA1999N+00891MD1310061+9999
0070106370999991926052806004+50050+008600FM-12+003499999V0209999900101030001CN0020001N9+01611+01561101641ADDAY111061GF108991041061008001021001KA1999N+01221MD1310061+9999MW1601
0081106370999991926052906004+50050+008600FM-12+003499999V0209999900101030001CN0100001N9+01391+01331100991ADDAA199016091AY161061GF108991041061004501021001KA1999N+01281MD1310141+9999MW1611
0061106370999991926053006004+50050+008600FM-12+003499999V0209999900101007801CN0020001N9+01391+01331101271ADDAA199000391AY161061GF108991081061008001999999KA1999N+01111
0064106370999991926053106004+50050+008600FM-12+003499999V02099999006719999999N0100001N9+01721+01501100801ADDAY111061GF106991999091008001001001KA1999N+01391MD1210061+9999
0064106370999991926090106004+50050+008600FM-12+003499999V0209999900101220001CN0040001N9+01501+00831101991ADDAY101061GF100991001001999999001001KA1999N+01281MD1110061+9999
0064106370999991926090206004+50050+008600FM-12+003499999V0209991C00001220001CN0020001N9+01611+00941101731ADDAY101061GF100991001001999999001001KA1999N+01111MD1310061+9999
0064106370999991926090306004+50050+008600FM-12+003499999V0209999900101220001CN0020001N9+01721+01281101731ADDAY101061GF102991011051012501001021KA1999N+01501MD1310061+9999
0064106370999991926090406004+50050+008600FM-12+003499999V0209991C00001220001CN0040001N9+01721+01501101871ADDAY101061GF102991011051002501001091KA1999N+01501MD1110141+9999
0064106370999991926090506004+50050+008600FM-12+003499999V0209991C00001220001CN0020001N9+01721+01671102311ADDAY141061GF100991001001999999001001KA1999N+01611MD1310061+9999
0064106370999991926090606004+50050+008600FM-12+003499999V0209991C00001220001CN0020001N9+01501+00831102391ADDAY101061GF104991001001999999001021KA1999N+01281MD1210061+9999
0050106370999991926090706004+50050+008600FM-12+003499999V0209999900261030001CN0040001N9+01781+01561102111ADDAY111061GF108991041051008001021001KA1999N+01501
0075106370999991926090806004+50050+008600FM-12+003499999V0209999900261030001CN0100001N9+01721+01501102241ADDAA199000391AY161061GF107991041051008001021001KA1999N+01721MD1310141+9999
0070106370999991926090906004+50050+008600FM-12+003499999V0209991C00001002401CN0005001N9+01501+01281102591ADDAY141061GF108991081051002501999999KA1999N+01281MD1410001+9999MW1451
0050106370999991926091006004+50050+008600FM-12+003499999V0209991C00001220001CN0020001N9+01221+01171102131ADDAY101061GF104991011051017501031001KA1999N+01001
0064106370999991926091106004+50050+008600FM-12+003499999V0209999900101220001CN0020001N9+01501+01061101801ADDAY111061GF104991021051012501001081KA1999N+01391MD1210061+9999
0050106370999991926091206004+50050+008600FM-12+003499999V0209999900101220001CN0040001N9+01611+01331101181ADDAY101061GF104991021051012501001021KA1999N+01501
0075106370999991926091306004+50050+008600FM-12+003499999V0209999900261220001CN0040001N9+01281+01061101641ADDAA199001091AY111061GF102991999001012501001001KA1999N+01221MD1310201+9999
0064106370999991926091406004+50050+008600FM-12+003499999V0209999900261220001CN0040001N9+01111+00891102521ADDAY101061GF104991999001999999021001KA1999N+01001MD1310141+9999
0050106370999991926091506004+50050+008600FM-12+003499999V0209999900261220001CN0020001N9+01281+01061102601ADDAY101061GF102991011051008001001021KA1999N+01221
0050106370999991926091606004+50050+008600FM-12+003499999V0209999900261075001CN0100001N9+01721+01501102301ADDAY111061GF107991021051012501001081KA1999N+01501
0089106370999991926091706004+50050+008600FM-12+003499999V0209999900101220001CN0010001N9+01001+00781102771ADDAY141061GF102991001001999999001081KA1999N+99999MD1310061+9999MW1101EQDQ01 +01502ATMN  
0050106370999991926091806004+50050+008600FM-12+003499999V0209999900101220001CN0040001N9+01221+01171102671ADDAY101061GF100991001001999999001001KA1999N+00891
0064106370999991926091906004+50050+008600FM-12+003499999V0209999900101220001CN0100001N9+01221+01171102521ADDAY101061GF100991001001999999001001KA1999N+01001MD1310061+9999
0050106370999991926092006004+50050+008600FM-12+003499999V0209999900101220001CN0100001N9+01281+01221102241ADDAY101061GF100991001001999999001001KA1999N+01221
0050106370999991926092106004+50050+008600FM-12+003499999V0209999900101220001CN0020001N9+01501+01281102101ADDAY141061GF100991001001999999001001KA1999N+01221
0070106370999991926092206004+50050+008600FM-12+003499999V0209999900101030001CN0010001N9+01221+01171102371ADDAY141061GF106991021051012501031001KA1999N+01221MD1110061+9999MW1101
0064106370999991926092306004+50050+008600FM-12+003499999V0209991C00001075001CN0020001N9+01111+01061102611ADDAY101061GF106991021051012501001081KA1999N+01001MD1310141+9999
0064106370999991926092406004+50050+008600FM-12+003499999V0209999900101220001CN0010001N9+00891+00831102031ADDAY141061GF108991999001999999021001KA1999N+00891MD1610061+9999
0081106370999991926092506004+50050+008600FM-12+003499999V0209991C00001002401CN0020001N9+01001+00941101011ADDAA199000591AY161061GF108991081051002501999999KA1999N+00891MD1810141+9999MW1211
0081106370999991926092606004+50050+008600FM-12+003499999V0209999900101220001CN0040001N9+00781+00561101191ADDAA199001091AY161061GF102991001001999999001081KA1999N+00611MD1310141+9999MW1211
0064106370999991926092706004+50050+008600FM-12+003499999V0209999900101030001CN0010001N9+00781+00721101011ADDAY141061GF106991041051017501031001KA1999N+00721MD1810141+9999
0064106370999991926092806004+50050+008600FM-12+003499999V0209999900461030001CN0020001N9+00721+00671101751ADDAY111061GF106991041051012501021001KA1999N+00611MD1310061+9999
0070106370999991926092906004+50050+008600FM-12+003499999V0209999900101012301CN0010001N9+00721+00671102461ADDAY141061GF108991081051012501999999KA1999N+00501MD1310141+9999MW1101
0070106370999991926093006004+50050+008600FM-12+003499999V0209991C00001220001CN0010001N9+00781+00721102971ADDAY141061GF102991999001999999021001KA1999N+00721MD1310141+9999MW1101
0081106370999991926100106004+50050+008600FM-12+003499999V0209999900261007801CN0020001N9+00781+00721102881ADDAA199000391AY161061GF108991081061008001999999KA1999N+00721MD1310061+9999MW1611
0050106370999991926100206004+50050+008600FM-12+003499999V0209999900261007801CN0020001N9+01001+00941102751ADDAY121061GF108991081051008001999999KA1999N+00721
0064106370999991926100306004+50050+008600FM-12+003499999V0209999900261012301CN0020001N9+01281+01221102931ADDAY111061GF106991061051012501001001KA1999N+01221MD1110061+9999
0064106370999991926100406004+50050+008600FM-12+003499999V0209991C00001075001CN0010001N9+01111+01061103261ADDAY101061GF106991041051017501001081KA1999N+00781MD1310061+9999
0064106370999991926100506004+50050+008600FM-12+003499999V0209999900261007801CN0020001N9+01111+01061103241ADDAY111061GF106991061051008001001001KA1999N+01001MD1310061+9999
0050106370999991926100606004+50050+008600FM-12+003499999V0209999900101220001CN0020001N9+00781+00721102751ADDAY101061GF100991001001999999001001KA1999N+00721
0070106370999991926100706004+50050+008600FM-12+003499999V0209991C00001007801CN0005001N9+00891+00831101941ADDAY141061GF107991071051008001001001KA1999N+00611MD1710061+9999MW1441
0081106370999991926100806004+50050+008600FM-12+003499999V02099999001019999999N0005001N9+01111+01061101731ADDAA199000391AY141061GF106991999051008001001001KA1999N+01001MD1410001+9999MW1441
0075106370999991926100906004+50050+008600FM-12+003499999V0209999900101030001CN0020001N9+01111+01061100791ADDAA199000391AY111061GF106991041051012501031001KA1999N+01111MD1810061+9999
0075106370999991926101006004+50050+008600FM-12+003499999V02099999006719999999N0200001N9+01111+00671100481ADDAA199004091AY161061GF106991999091004501001001KA1999N+00891MD1310261+9999
0064106370999991926101106004+50050+008600FM-12+003499999V0209999900101220001CN0020001N9+00501+00441101751ADDAY101061GF102991001001999999001081KA1999N+00501MD1310201+9999
0061106370999991926101206004+50050+008600FM-12+003499999V0209999900261007801CN0200001N9+01391+00941100781ADDAA199001091AY161061GF108991081061008001999999KA1999N+01001
0094106370999991926101306004+50050+008600FM-12+003499999V02099999009319999999N0100001N9+01111+00891100531ADDAA199000591AY161061GF108991999061002501001001KA1999N+99999MD1510061+9999EQDQ01 +01282ATMN  
0050106370999991926101406004+50050+008600FM-12+003499999V0209999900101075001CN0040001N9+01001+00611101351ADDAY111061GF107991021061017501001081KA1999N+01001
0051106370999991926101506004+50050+008600FM-12+003499999V0209999901231007801CN0100001N9+01611+01331101131ADDAY121061GF108991081051008001999999MD1310061+9999
0064106370999991926101606004+50050+008600FM-12+003499999V0209999900261030001CN0040001N9+01721+01281101271ADDAY141061GF106991041051008001021001KA1999N+01611MD1510001+9999
0081106370999991926101706004+50050+008600FM-12+003499999V0209999900101007801CN0020001N9+00781+00721101751ADDAA199005091AY161061GF108991081061008001999999KA1999N+00721MD1710061+9999MW1511
0064106370999991926101806004+50050+008600FM-12+003499999V0209991C00001220001CN0040001N9+00391+00001102421ADDAY101061GF100991001001999999001001KA1999N+00281MD1310201+9999
0064106370999991926101906004+50050+008600FM-12+003499999V0209999900101220001CN0040001N9+00281+00221102781ADDAY101061GF102991011051012501031001KA1999N+00111MD1310141+9999
0070106370999991926102006004+50050+008600FM-12+003499999V0209991C00001220001CN0005001N9+00111+00061102131ADDAY141061GF104991041051022501001001KA1999N+00001MD1510061+9999MW1431
0064106370999991926102106004+50050+008600FM-12+003499999V0209999900101004501CN0020001N9+00391+00331100701ADDAY121061GF108991081051004501999999KA1999N+00111MD1810141+9999
0061106370999991926102206004+50050+008600FM-12+003499999V0209999900101030001CN0040001N9+00391+00331099511ADDAA199001091AY161061GF108991021011008001021001KA1999N+00221
0075106370999991926102306004+50050+008600FM-12+003499999V0209999900261030001CN0100001N9+00501+00441100031ADDAA199000391AY121061GF108991021061008001021001KA1999N+00281MD1210141+9999
0067106370999991926102406004+50050+008600FM-12+003499999V0209999900261002401CN0020001N9+00501+00441099831ADDAA199002091AY171061GF108991081061002501999999KA1999N+00281MW1631
0081106370999991926102506004+50050+008600FM-12+003499999V0209999900261004501CN0020001N9+00391+00331100791ADDAA199002091AY161061GF108991081061004501999999KA1999N+00221MD1810261+9999MW1601
0075106370999991926102606004+50050+008600FM-12+003499999V0209999900261220001CN0040001N9+00391+00331099911ADDAA199004091AY161061GF104991041051008001001081KA1999N+00281MD1310061+9999
0064106370999991926102706004+50050+008600FM-12+003499999V0209999900261220001CN0020001N9+00391+00171102151ADDAY111061GF102991011051008001021001KA1999N+00281MD1310201+9999
0064106370999991926102806004+50050+008600FM-12+003499999V0209999900261007801CN0100001N9+00111+00061101241ADDAY111061GF108991061051008001021001KA1999N-00111MD1710201+9999
0067106370999991926102906004+50050+008600FM-12+003499999V0209991C00001001501CN0002001N9+00721+00671099321ADDAA199010091AY141061GF108991081051001501999999KA1999N+00391MW1451
0081106370999991926103006004+50050+008600FM-12+003499999V0209991C00001002401CN0005001N9+00781+00721100031ADDAA199001091AY161061GF108991081061002501999999KA1999N+00781MD1310141+9999MW1651
0081106370999991926103106004+50050+008600FM-12+003499999V0209999900671007801CN0020001N9+00611+00561100131ADDAA199003091AY161061GF108991081061008001999999KA1999N+00501MD1710141+9999MW1211
0081106370999991926110106004+50050+008600FM-12+003499999V0209999900101002401CN0020001N9+00391+00331100741ADDAA199009091AY161061GF108991081061002501999999KA1999N+00391MD1310401+9999MW1611
0064106370999991926110206004+50050+008600FM-12+003499999V0209991C00001007801CN0020001N9+00391+00331101861ADDAY111061GF108991081051008001999999KA1999N+00221MD1810141+9999
0061106370999991926110306004+50050+008600FM-12+003499999V0209999900101002401CN0010001N9+00501+00441101241ADDAA199000591AY141061GF108991081051002501999999KA1999N+00391
0070106370999991926110406004+50050+008600FM-12+003499999V0209999900101220001CN0010001N9+00391+00331101411ADDAY111061GF104991021051017501001081KA1999N+00281MD1210061+9999MW1101
0056106370999991926110506004+50050+008600FM-12+003499999V0209999900101001501CN0002001N9+00781+00721101391ADDAY141061GF108991081051001501999999KA1999N+00611MW1501
0081106370999991926110606004+50050+008600FM-12+003499999V0209991C00001000151CN0005001N9+00781+00721101221ADDAA199004091AY161061GF108991081051000251999999KA1999N+00721MD1310061+9999MW1451
0075106370999991926110706004+50050+008600FM-12+003499999V0209999900261075001CN0100001N9+01111+01061099991ADDAA199002091AY161061GF106991041051008001001081KA1999N+00891MD1210141+9999
0075106370999991926110806004+50050+008600FM-12+003499999V0209999900101075001CN0010001N9+00391+00331100691ADDAA199003091AY161061GF106991041051012501001081KA1999N+00391MD1010001+9999
0075106370999991926110906004+50050+008600FM-12+003499999V0209999900931220001CN0040001N9+00891+00671099911ADDAA199002091AY161061GF102991021061004501001001KA1999N+00721MD1210141+9999
0064106370999991926111006004+50050+008600FM-12+003499999V0209999900101012301CN0040001N9+00721+00671101661ADDAY111061GF106991061051012501001001KA1999N+00611MD1310201+9999
0064106370999991926111106004+50050+008600FM-12+003499999V0209999900101220001CN0020001N9+00111+00061101791ADDAY101061GF102991001001999999001021KA1999N+00111MD1310061+9999
0064106370999991926111206004+50050+008600FM-12+003499999V0209999900101004501CN0020001N9+00501+00441101501ADDAY121061GF108991081051004501999999KA1999N+00221MD1210061+9999
0070106370999991926111306004+50050+008600FM-12+003499999V0209991C00001001501CN0002001N9+00391+00331101551ADDAY141061GF108991081051001501999999KA1999N+00391MD1210061+9999MW1451
0067106370999991926111406004+50050+008600FM-12+003499999V0209999900671030001CN0100001N9+01611+01331100861ADDAA199000391AY121061GF108991041051012501021001KA1999N+00391MW1211
0075106370999991926111506004+50050+008600FM-12+003499999V0209999900261220001CN0040001N9+00891+00671102751ADDAA199000691AY161061GF101991011011012501001001KA1999N+00891MD1310261+9999
0070106370999991926111606004+50050+008600FM-12+003499999V02099999002619999999N0010001N9+00611+00561102821ADDAY101061GF106991999001022501021081KA1999N+00501MD1410001+9999MW1101
0064106370999991926111706004+50050+008600FM-12+003499999V0209991C00001012301CN0020001N9+00501+00441102081ADDAY111061GF107991071051012501001001KA1999N+00391MD1810201+9999
0081106370999991926111806004+50050+008600FM-12+003499999V0209991C00001004501CN0005001N9+01001+00941100691ADDAA199002091AY141061GF108991081051004501999999KA1999N+00721MD1710141+9999MW1511
0075106370999991926111906004+50050+008600FM-12+003499999V0209999900261220001CN0020001N9+00721+00671098731ADDAA199000391AY161061GF104991999001017501021081KA1999N+00611MD1810261+9999
0064106370999991926112006004+50050+008600FM-12+003499999V0209999900461220001CN0040001N9+00781+00721099281ADDAY111061GF104991041051012501001001KA1999N+00721MD1310141+9999
0081106370999991926112106004+50050+008600FM-12+003499999V0209991C00001030001CN0020001N9+00891+00831098821ADDAA199012091AY161061GF108991041061008001021001KA1999N+00781MD1210141+9999MW1611
0064106370999991926112206004+50050+008600FM-12+003499999V0209991C00001007801CN0020001N9+00721+00671100511ADDAY111061GF107991071051008001001001KA1999N+00501MD1110141+9999
0075106370999991926112306004+50050+008600FM-12+003499999V0209999900261007801CN0020001N9+00721+00501101031ADDAA199000391AY161061GF108991081051008001999999KA1999N+00611MD1310341+9999
0075106370999991926112406004+50050+008600FM-12+003499999V0209999900461030001CN0020001N9+00721+00501101841ADDAA199000691AY111061GF108991041051012501021001KA1999N+00611MD1310141+9999
0070106370999991926112506004+50050+008600FM-12+003499999V0209999900101220001CN0005001N9+00281+00221102501ADDAY141061GF104991041051012501031001KA1999N+00111MD1310141+9999MW1461
0089106370999991926112606004+50050+008600FM-12+003499999V0209999900101002401CN0005001N9+00221+00171102381ADDAY141061GF108991081051002501999999KA1999N+99999MD1410001+9999MW1451EQDQ01 +00282ATMN  
0064106370999991926112706004+50050+008600FM-12+003499999V0209999900101007801CN0020001N9+00221+00171102071ADDAY111061GF107991071051008001001001KA1999N+00221MD1310061+9999
0064106370999991926112806004+50050+008600FM-12+003499999V0209999900261007801CN0020001N9+00221+00001101551ADDAY121061GF108991081051008001999999KA1999N+00221MD1610061+9999
0050106370999991926112906004+50050+008600FM-12+003499999V0209999900261012301CN0020001N9+00221+00001101321ADDAY141061GF108991081061012501999999KA1999N+00111
0064106370999991926113006004+50050+008600FM-12+003499999V0209999900261012301CN0020001N9+00001-00061101031ADDAY111061GF106991061051012501001001KA1999N+00001MD1510001+9999
0050106370999991926120106004+50050+008600FM-12+003499999V0209999900261007801CN0020001N9+00221+00171101281ADDAY121061GF108991081051008001999999KA1999N+00111
0064106370999991926120206004+50050+008600FM-12+003499999V0209999900101007801CN0020001N9+00221+00171101661ADDAY121061GF108991081051008001999999KA1999N+00221MD1310141+9999
0056106370999991926120306004+50050+008600FM-12+003499999V0209999900101004501CN0010001N9+00221+00171101431ADDAY141061GF108991081051004501999999KA1999N+00221MW1101
0081106370999991926120406004+50050+008600FM-12+003499999V0209999900261007801CN0020001N9+00221+00171100151ADDAA199002091AY161061GF108991081051008001999999KA1999N+00111MD1610061+9999MW1681
0075106370999991926120506004+50050+008600FM-12+003499999V02099999002619999999N0040001N9+00001-00061101361ADDAA199000691AY181061GF107991999061008001001001KA1999N-00221MD1310201+9999
0064106370999991926120606004+50050+008600FM-12+003499999V0209999900101012301CN0020001N9-00111-00171102781ADDAY111061GF107991071051012501001001KA1999N-00221MD1310201+9999
0064106370999991926120706004+50050+008600FM-12+003499999V0209999900101075001CN0020001N9-00221-00281103301ADDAY111061GF106991021051017501001081KA1999N-00281MD1410001+9999
0081106370999991926120806004+50050+008600FM-12+003499999V0209999900261004501CN0010001N9-00111-00171103221ADDAA199003091AY161061GF108991081051004501999999KA1999N-00281MD1710061+9999MW1101
0070106370999991926120906004+50050+008600FM-12+003499999V02099999002619999999N0005001N9+00221+00171103751ADDAY141061GF108991999051008001001001KA1999N+00111MD1310141+9999MW1441
0067106370999991926121006004+50050+008600FM-12+003499999V0209999900461001501CN0005001N9+00391+00331103731ADDAA199001091AY161061GF108991081051001501999999KA1999N+00281MW1511
0067106370999991926121106004+50050+008600FM-12+003499999V0209999900101002401CN0010001N9+00501+00441103831ADDAA199000691AY141061GF108991081051002501999999KA1999N+00391MW1101
0056106370999991926121206004+50050+008600FM-12+003499999V0209991C00001004501CN0005001N9+00221+00171103771ADDAY141061GF108991081051004501999999KA1999N+00111MW1451
0081106370999991926121306004+50050+008600FM-12+003499999V0209999900101004501CN0005001N9+00281+00221102881ADDAA199000691AY141061GF108991081051004501999999KA1999N+00221MD1810141+9999MW1501
0070106370999991926121406004+50050+008600FM-12+003499999V0209999900101004501CN0010001N9+00281+00221102061ADDAY141061GF108991081051004501999999KA1999N+00221MD1810141+9999MW1101
0081106370999991926121506004+50050+008600FM-12+003499999V0209999900261002401CN0010001N9+00391+00331101911ADDAA199003091AY161061GF108991081061002501999999KA1999N+00281MD1310141+9999MW1611
0056106370999991926121606004+50050+008600FM-12+003499999V0209999900461007801CN0010001N9-00111-00171102671ADDAY141061GF108991081051008001999999KA1999N-00281MW1101
0081106370999991926121706004+50050+008600FM-12+003499999V0209999900261004501CN0010001N9+00221+00171102001ADDAA199000391AY171061GF108991081061004501999999KA1999N+00111MD1610061+9999MW1511
0081106370999991926121806004+50050+008600FM-12+003499999V0209999900461004501CN0010001N9+00221+00171100461ADDAA199003091AY161061GF108991081061004501999999KA1999N+00221MD1710141+9999MW1611
0075106370999991926121906004+50050+008600FM-12+003499999V0209999900101007801CN0020001N9+00281+00061101551ADDAA199000391AY161061GF108991081051008001999999KA1999N+00221MD1310341+9999
0075106370999991926122006004+50050+008600FM-12+003499999V0209999900261030001CN0020001N9+00391+00331101641ADDAA199000391AY161061GF106991041051008001021001KA1999N+00281MD1710061+9999
0061106370999991926122106004+50050+008600FM-12+003499999V0209999900261007801CN0020001N9+00221+00171101131ADDAA199000391AY181061GF107991071051008001001001KA1999N+00221
0064106370999991926122206004+50050+008600FM-12+003499999V0209999900261220001CN0100001N9-00111-00281102021ADDAY101061GF102991021051008001021001KA1999N-00111MD1310201+9999
0064106370999991926122306004+50050+008600FM-12+003499999V0209999900461030001CN0040001N9-00391-00561103501ADDAY101061GF106991041051008001021001KA1999N-00391MD1310201+9999
0064106370999991926122406004+50050+008600FM-12+003499999V02099999006719999999N0100001N9-00281-00611103221ADDAY121061GF108991999001017501021001KA1999N-00501MD1810061+9999
0064106370999991926122506004+50050+008600FM-12+003499999V0209999900671220001CN0040001N9-00721-00891103201ADDAY101061GF102991001001999999021081KA1999N-00781MD1310061+9999
0064106370999991926122606004+50050+008600FM-12+003499999V0209999900261220001CN0100001N9-00891-01061103801ADDAY101061GF100991001001999999001001KA1999N-00891MD1210201+9999
0064106370999991926122706004+50050+008600FM-12+003499999V0209999900461220001CN0100001N9-00721-00891102971ADDAY101061GF100991001001999999001001KA1999N-00721MD1810141+9999
0070106370999991926122806004+50050+008600FM-12+003499999V0209999900101007801CN0010001N9-00501-00561102191ADDAY141061GF106991061051008001001001KA1999N-00721MD1710141+9999MW1101
0081106370999991926122906004+50050+008600FM-12+003499999V0209999900461007801CN0020001N9+00281+00221100931ADDAA199000591AY161061GF108991081061008001999999KA1999N-00111MD1810061+9999MW1511
0075106370999991926123006004+50050+008600FM-12+003499999V0209999900261004501CN0010001N9+00391+00331102191ADDAA199000691AY121061GF108991081061004501999999KA1999N+00281MD1210061+9999
0081106370999991926123106004+50050+008600FM-12+003499999V0209999900261007801CN0010001N9+00391+00331102291ADDAA199000691AY161061GF108991081061008001999999KA1999N+00281MD1310061+9999MW1501
