0081106370999991927010106004+50050+008600FM-12+003499999V0209999900101007801CN0010001N9+00391+00331102301ADDAA199000691AY161061GF108991081061008001999999KA1999N+00221MD1110061+9999MW1501
0064106370999991927010206004+50050+008600FM-12+003499999V0209999900261007801CN0020001N9+00391+00331102561ADDAY121061GF106991061051008001001081KA1999N+00221MD1510001+9999
0064106370999991927010306004+50050+008600FM-12+003499999V0209999900101007801CN0010001N9+00281+00221102171ADDAY121061GF108991081051008001999999KA1999N+00221MD1810141+9999
0081106370999991927010406004+50050+008600FM-12+003499999V0209999900261007801CN0010001N9+00111+00061100881ADDAA199000591AY161061GF108991081061008001999999KA1999N+00111MD1810141+9999MW1611
0075106370999991927010506004+50050+008600FM-12+003499999V02099999004619999999N0020001N9+00221+00171101971ADDAA199000391AY171061GF106991999051008001001001KA1999N+00001MD1310201+9999
0061106370999991927010606004+50050+008600FM-12+003499999V0209999900261007801CN0010001N9+00111+00061101681ADDAA199004091AY171061GF108991081051008001999999KA1999N+00001
0081106370999991927010706004+50050+008600FM-12+003499999V0209999900261004501CN0010001N9+00501+00441100901ADDAA199003091AY161061GF108991081061004501999999KA1999N+00391MD1810201+9999MW1511
0075106370999991927010806004+50050+008600FM-12+003499999V0209991C00001007801CN0020001N9+00281+00221101831ADDAA199000591AY161061GF108991081051008001999999KA1999N+00221MD1310341+9999
0081106370999991927010906004+50050+008600FM-12+003499999V0209999900461004501CN0010001N9+00111+00061102391ADDAA199001091AY171061GF108991081061004501999999KA1999N+00111MD1810141+9999MW1731
0067106370999991927011006004+50050+008600FM-12+003499999V0209999900461004501CN0010001N9+00781+00721102111ADDAA199000391AY161061GF108991081061004501999999KA1999N+00391MW1611
0075106370999991927011106004+50050+008600FM-12+003499999V0209999900101004501CN0010001N9+00781+00561102921ADDAA199000691AY121061GF108991081051004501999999KA1999N+00501MD1310061+9999
0083106370999991927011206004+50050+008600FM-12+003499999V0209999900671007801CN0010001N9+00001-00061101981ADDAY121061GF108991081051008001999999KA1999N+99999MD1710201+9999EQDQ01 +00502ATMN  
0075106370999991927011306004+50050+008600FM-12+003499999V0209999900101007801CN0010001N9+00611+00561100241ADDAA199000591AY161061GF108991081051008001999999KA1999N+00501MD1810201+9999
0075106370999991927011406004+50050+008600FM-12+003499999V0209999900261030001CN0020001N9+00391+00331099901ADDAA199000391AY161061GF106991041061012501031001KA1999N+00391MD1810141+9999
0067106370999991927011506004+50050+008600FM-12+003499999V0209999900461004501CN0010001N9+00501+00441099661ADDAA199003091AY161061GF108991081061004501999999KA1999N+00281MW1631
0067106370999991927011606004+50050+008600FM-12+003499999V0209991C00001030001CN0020001N9+00281+00221100351ADDAA199084091AY161061GF108991041061004501021001KA1999N+00221MW1611
0081106370999991927011706004+50050+008600FM-12+003499999V0209991C00001004501CN0010001N9+00221+00171100121ADDAA199000691AY181061GF108991081061004501999999KA1999N+00111MD1810061+9999MW1501
0064106370999991927011806004+50050+008600FM-12+003499999V0209999900101007801CN0010001N9+00111+00061100241ADDAY121061GF108991081051008001999999KA1999N-00111MD1310061+9999
0081106370999991927011906004+50050+008600FM-12+003499999V0209991C00001004501CN0010001N9+00221+00171101201ADDAA199002091AY161061GF108991081051004501999999KA1999N+00001MD1310141+9999MW1101
0064106370999991927012006004+50050+008600FM-12+003499999V0209991C00001007801CN0020001N9+00111+00061101551ADDAY121061GF108991081051008001999999KA1999N+00001MD1810061+9999
0064106370999991927012106004+50050+008600FM-12+003499999V0209999900101007801CN0010001N9+00111+00061100671ADDAY121061GF108991081051008001999999KA1999N+00111MD1810141+9999
0067106370999991927012206004+50050+008600FM-12+003499999V0209999900261220001CN0010001N9-00111-00171100501ADDAA199000691AY171061GF104991041051004501001001KA1999N-00111MW1101
0050106370999991927012306004+50050+008600FM-12+003499999V0209991C00001007801CN0020001N9+00001-00061100931ADDAY121061GF108991081051008001999999KA1999N-00111
0100106370999991927012406004+50050+008600FM-12+003499999V0209991C00001000151CN0005001N9+00001+99999102021ADDAA199000391AY141061GF108991081051000251999999KA1999N+00001MD1310141+9999MW1451EQDQ01 -03223ATOD  
0064106370999991927012506004+50050+008600FM-12+003499999V0209999900261012301CN0020001N9+00281+00221102591ADDAY121061GF108991081051012501999999KA1999N+00221MD1310061+9999
0064106370999991927012606004+50050+008600FM-12+003499999V0209999900261012301CN0020001N9+00001-00061102871ADDAY121061GF108991081051012501999999KA1999N+00001MD1410001+9999
0081106370999991927012706004+50050+008600FM-12+003499999V0209999900261000151CN0010001N9+00001-00061102611ADDAA199000691AY171061GF108991081051000251999999KA1999N-00221MD1310141+9999MW1101
0067106370999991927012806004+50050+008600FM-12+003499999V0209999900261220001CN0010001N9+00111+00061102931ADDAA199041091AY141061GF102991021051004501001001KA1999N+00111MW1101
0070106370999991927012906004+50050+008600FM-12+003499999V0209991C00001220001CN0010001N9-00111-00171101571ADDAY141061GF104991021051004501021001KA1999N-00221MD1810201+9999MW1101
0064106370999991927013006004+50050+008600FM-12+003499999V0209999900461030001CN0020001N9+00391+00331100921ADDAY121061GF106991021051008001031001KA1999N+00391MD1310201+9999
0081106370999991927013106004+50050+008600FM-12+003499999V0209999900461007801CN0020001N9+00391+00331100381ADDAA199002091AY161061GF108991081061008001999999KA1999N+00221MD1410001+9999MW1631
0081106370999991927020106004+50050+008600FM-12+003499999V0209999900261007801CN0020001N9+00281+00221100611ADDAA199000591AY161061GF108991081061008001999999KA1999N+00281MD1310061+9999MW1501
0081106370999991927020206004+50050+008600FM-12+003499999V0209999900461004501CN0020001N9+00391+00331101201ADDAA199002091AY161061GF108991081061004501999999KA1999N+00281MD1810141+9999MW1631
0064106370999991927020306004+50050+008600FM-12+003499999V0209999900101220001CN0020001N9+00111+00061103001ADDAY101061GF101991999001999999021001KA1999N+00111MD1310341+9999
0050106370999991927020406004+50050+008600FM-12+003499999V0209999900461012301CN0020001N9+00221+00171103351ADDAY121061GF108991081051012501999999KA1999N+00111
0064106370999991927020506004+50050+008600FM-12+003499999V0209999900261004501CN0040001N9+00221+00171103271ADDAY121061GF108991061061004501021001KA1999N+00221MD1310061+9999
0081106370999991927020606004+50050+008600FM-12+003499999V0209999900261002401CN0005001N9+00111+00061102311ADDAA199001091AY171061GF108991081051002501999999KA1999N+00001MD1810141+9999MW1731
0064106370999991927020706004+50050+008600FM-12+003499999V0209999900261030001CN0020001N9-00111-00171103221ADDAY111061GF106991041051008001021001KA1999N-00221MD1310141+9999
0050106370999991927020806004+50050+008600FM-12+003499999V0209999900261012301CN0100001N9-00221-00281103191ADDAY101061GF106991061051012501021001KA1999N-00281
0064106370999991927020906004+50050+008600FM-12+003499999V0209999900461220001CN0040001N9-00391-00561103241ADDAY101061GF100991001001999999001001KA1999N-00391MD1310141+9999
0050106370999991927021006004+50050+008600FM-12+003499999V0209999900261220001CN0100001N9-00111-00171103531ADDAY101061GF101991999001999999021001KA1999N-00281
0050106370999991927021106004+50050+008600FM-12+003499999V0209999900261220001CN0020001N9-00221-00281103331ADDAY101061GF100991001001999999001001KA1999N-00281
0051106370999991927021206004+50050+008600FM-12+003499999V0209999900461220001CN0020001N9-00221-00391103221ADDAY101061GF102991999001999999021001MD1990201+9999
0064106370999991927021306004+50050+008600FM-12+003499999V0209991C00001220001CN0040001N9-00281-00331103221ADDAY101061GF100991001001999999001001KA1999N-00391MD1310061+9999
0070106370999991927021406004+50050+008600FM-12+003499999V0209991C00001000151CN0005001N9-00501-00561103681ADDAY141061GF108991081051000251999999KA1999N-00501MD1310141+9999MW1451
0070106370999991927021506004+50050+008600FM-12+003499999V0209991C00001007801CN0010001N9+00221+00171103301ADDAY141061GF107991071051008001001001KA1999N+00111MD1310061+9999MW1101
0070106370999991927021606004+50050+008600FM-12+003499999V0209991C00001000151CN0010001N9+00221+00171103071ADDAY141061GF108991081051000251999999KA1999N+00111MD1810141+9999MW1101
0081106370999991927021706004+50050+008600FM-12+003499999V0209999900461012301CN0020001N9+00611+00561102161ADDAA199000691AY161061GF108991081061012501999999KA1999N+00391MD1610141+9999MW1501
0081106370999991927021806004+50050+008600FM-12+003499999V0209999900461030001CN0100001N9+00391+00331101801ADDAA199000691AY161061GF108991021051008001021001KA1999N+00391MD1510001+9999MW1211
0064106370999991927021906004+50050+008600FM-12+003499999V0209999900261220001CN0040001N9-00281-00441102431ADDAY101061GF100991001001999999001001KA1999N-00391MD1310201+9999
0064106370999991927022006004+50050+008600FM-12+003499999V0209999900261012301CN0020001N9-00391-00441102531ADDAY111061GF106991061051012501001001KA1999N-00501MD1810061+9999
0081106370999991927022106004+50050+008600FM-12+003499999V0209991C00001012301CN0005001N9-00111-00171100771ADDAA199000691AY171061GF108991081061012501999999KA1999N-00281MD1810201+9999MW1731
0070106370999991927022206004+50050+008600FM-12+003499999V0209999900461000151CN0010001N9+00111+00061100821ADDAY141061GF108991081051000251999999KA1999N+00001MD1810061+9999MW1101
0050106370999991927022306004+50050+008600FM-12+003499999V0209999900101012301CN0020001N9+00281+00221100341ADDAY121061GF108991081051012501999999KA1999N+00111
0064106370999991927022406004+50050+008600FM-12+003499999V0209999900101220001CN0020001N9+00111+00061100841ADDAY101061GF106991001001999999001081KA1999N-00111MD1710061+9999
0061106370999991927022506004+50050+008600FM-12+003499999V0209991C00001012301CN0020001N9+00111+00061100841ADDAA199000391AY111061GF107991071051012501001001KA1999N+00111
0081106370999991927022606004+50050+008600FM-12+003499999V0209999900261012301CN0010001N9+00781+00721100611ADDAA199004091AY161061GF108991081061012501999999KA1999N+00781MD1310201+9999MW1611
0081106370999991927022706004+50050+008600FM-12+003499999V02099999002619999999N0040001N9+00721+00501100351ADDAA199005091AY161061GF106991999061004501001001KA1999N+00611MD1710061+9999MW1601
0061106370999991927022806004+50050+008600FM-12+003499999V0209999900261012301CN0020001N9+00721+00671100961ADDAA199001091AY161061GF108991081051012501999999KA1999N+00721
0067106370999991927030106004+50050+008600FM-12+003499999V0209999900101075001CN0010001N9+00781+00721100701ADDAA199002091AY161061GF106991041051012501001081KA1999N+00721MW1101
0094106370999991927030206004+50050+008600FM-12+003499999V0209999900461012301CN0020001N9+00721+00501101131ADDAA199000691AY121061GF108991081051012501999999KA1999N+99999MD1310141+9999EQDQ01 +00892ATMN  
0075106370999991927030306004+50050+008600FM-12+003499999V0209999900461220001CN0040001N9+00721+00501100781ADDAA199002091AY161061GF104991999051008001001001KA1999N+00611MD1510061+9999
0064106370999991927030406004+50050+008600FM-12+003499999V0209999900261012301CN0020001N9+00391+00171101531ADDAY111061GF108991081051012501999999KA1999N+00391MD1810061+9999
0064106370999991927030506004+50050+008600FM-12+003499999V0209999900101030001CN0020001N9+00281+00221100481ADDAY111061GF107991041051012501021001KA1999N+00281MD1710141+9999
0061106370999991927030606004+50050+008600FM-12+003499999V02099999002619999999N0040001N9+00611+00391099991ADDAA199002091AY161061GF107991999051008001001001KA1999N+00501
0075106370999991927030706004+50050+008600FM-12+003499999V0209999900461012301CN0020001N9+00501+00441100341ADDAA199000691AY121061GF107991061051012501021001KA1999N+00391MD1810061+9999
0075106370999991927030806004+50050+008600FM-12+003499999V0209999900461030001CN0040001N9+00611+00561099791ADDAA199003091AY161061GF106991041051008001021001KA1999N+00501MD1310141+9999
0075106370999991927030906004+50050+008600FM-12+003499999V02099999004619999999N0020001N9+00501+00281100161ADDAA199002091AY161061GF107991999051008001001001KA1999N+00391MD1310201+9999
0081106370999991927031006004+50050+008600FM-12+003499999V0209999900461012301CN0100001N9+00281+00221100271ADDAA199000691AY161061GF108991081051012501999999KA1999N+00111MD1310141+9999MW1701
0081106370999991927031106004+50050+008600FM-12+003499999V0209999900101007801CN0010001N9+00501+00441101231ADDAA199000691AY161061GF108991081051008001999999KA1999N+00281MD1310141+9999MW1211
0070106370999991927031206004+50050+008600FM-12+003499999V0209999900101000151CN0002001N9+00281+00221101431ADDAY141061GF108991081051000251999999KA1999N+00281MD1310141+9999MW1451
0064106370999991927031306004+50050+008600FM-12+003499999V0209999900461220001CN0020001N9+00221+00001101431ADDAY101061GF102991001001999999001081KA1999N+00111MD1710141+9999
0081106370999991927031406004+50050+008600FM-12+003499999V0209999900461012301CN0020001N9+00281+00221101011ADDAA199005091AY161061GF108991081061012501999999KA1999N+00221MD1310141+9999MW1611
0075106370999991927031506004+50050+008600FM-12+003499999V0209999900101220001CN0100001N9+00221+00001102571ADDAA199000691AY101061GF100991001001999999001001KA1999N+00111MD1310261+9999
0064106370999991927031606004+50050+008600FM-12+003499999V0209999900101220001CN0040001N9+00111+00061103441ADDAY111061GF100991001001999999001001KA1999N+00001MD1310201+9999
0064106370999991927031706004+50050+008600FM-12+003499999V0209991C00001220001CN0040001N9+00111+00061102801ADDAY101061GF100991001001999999001001KA1999N+00001MD1310061+9999
0070106370999991927031806004+50050+008600FM-12+003499999V0209999900101220001CN0010001N9+00281+00221103101ADDAY141061GF100991001001999999001001KA1999N+00221MD1310141+9999MW1101
0070106370999991927031906004+50050+008600FM-12+003499999V0209991C00001001501CN0005001N9+00281+00221103401ADDAY141061GF108991081051001501999999KA1999N+00221MD1310061+9999MW1451
0050106370999991927032006004+50050+008600FM-12+003499999V0209999900101007801CN0020001N9+00611+00561103281ADDAY121061GF108991081051008001999999KA1999N+00111
0070106370999991927032106004+50050+008600FM-12+003499999V0209991C00001220001CN0010001N9+00281+00221102831ADDAY141061GF100991001001999999001001KA1999N+00221MD1610061+9999MW1101
0064106370999991927032206004+50050+008600FM-12+003499999V0209999900261220001CN0020001N9+00721+00501102161ADDAY101061GF100991001001999999001001KA1999N+00391MD1310061+9999
0081106370999991927032306004+50050+008600FM-12+003499999V0209999900261012301CN0020001N9+00891+00831101471ADDAA199001091AY161061GF108991081061012501999999KA1999N+00891MD1810141+9999MW1611
0075106370999991927032406004+50050+008600FM-12+003499999V0209999900461030001CN0040001N9+00781+00561100121ADDAA199001091AY161061GF108991041051008001021001KA1999N+00721MD1210141+9999
0064106370999991927032506004+50050+008600FM-12+003499999V0209999900101220001CN0020001N9+00281+00221099791ADDAY101061GF104991041051008001001001KA1999N+00221MD1110061+9999
0081106370999991927032606004+50050+008600FM-12+003499999V0209999900671030001CN0100001N9+00721+00331099581ADDAA199013091AY191061GF106991041091008001021001KA1999N+00501MD1310141+9999MW1211
0075106370999991927032706004+50050+008600FM-12+003499999V0209999900261007801CN0100001N9+00721+00501100611ADDAA199001091AY161061GF106991061051008001021001KA1999N+00611MD1310141+9999
0064106370999991927032806004+50050+008600FM-12+003499999V0209991C00001220001CN0100001N9+00611+00561100641ADDAY111061GF104991999001999999021001KA1999N+00391MD1310061+9999
0070106370999991927032906004+50050+008600FM-12+003499999V0209991C000019999999N0010001N9+00501+00281100831ADDAY141061GF106991999051008001001001KA1999N+00391MD1310141+9999MW1101
0070106370999991927033006004+50050+008600FM-12+003499999V0209999900101007801CN0010001N9+00501+00281101111ADDAY141061GF108991081051008001999999KA1999N+00391MD1310141+9999MW1101
0081106370999991927033106004+50050+008600FM-12+003499999V02099999004619999999N0020001N9+00611+00561101281ADDAA199002091AY161061GF107991999051008001001001KA1999N+00501MD1310201+9999MW1211
0081106370999991927040106004+50050+008600FM-12+003499999V0209999900461012301CN0040001N9+00501+00441100471ADDAA199002091AY161061GF108991081061012501999999KA1999N+00391MD1810141+9999MW1631
0070106370999991927040206004+50050+008600FM-12+003499999V0209991C00001012301CN0010001N9+00611+00561101671ADDAY141061GF108991081051012501999999KA1999N+00391MD1310201+9999MW1101
0067106370999991927040306004+50050+008600FM-12+003499999V0209999900101007801CN0010001N9+00391+00331101571ADDAA199000691AY161061GF108991081061008001999999KA1999N+00281MW1611
0064106370999991927040406004+50050+008600FM-12+003499999V0209999900101007801CN0020001N9+00611+00561101861ADDAY141061GF108991081051008001999999KA1999N+00391MD1310141+9999
0081106370999991927040506004+50050+008600FM-12+003499999V0209999900261012301CN0020001N9+00781+00721101221ADDAA199002091AY161061GF108991081061012501999999KA1999N+00611MD1810141+9999MW1611
0081106370999991927040606004+50050+008600FM-12+003499999V0209999900461007801CN0010001N9+00891+00831100271ADDAA199007091AY161061GF108991081061008001999999KA1999N+00781MD1810341+9999MW1651
0070106370999991927040706004+50050+008600FM-12+003499999V0209999900101000151CN0010001N9+00611+00561100881ADDAY141061GF108991081051000251999999KA1999N+00501MD1810141+9999MW1101
0094106370999991927040806004+50050+008600FM-12+003499999V0209999900461220001CN0020001N9+99999+03441100371ADDAA199001091AY161061GF104991021011012501021001KA1999N+00611MD1210201+9999EQDQ01 +03723ATOT  
0064106370999991927040906004+50050+008600FM-12+003499999V0209999900101220001CN0020001N9+00391+00172100741ADDAY101061GF101991999001999999021001KA1999N+00221MD1310061+9999
0081106370999991927041006004+50050+008600FM-12+003499999V0209999900101030001CN0100001N9+00721+00671100531ADDAA199041091AY161061GF108991041061012501021001KA1999N+00501MD1110061+9999MW1501
0070106370999991927041106004+50050+008600FM-12+003499999V0209999900101000151CN0005001N9+00501+00441101231ADDAY141061GF108991081051000251999999KA1999N+00391MD1310141+9999MW1451
0075106370999991927041206004+50050+008600FM-12+003499999V02099999004619999999N0100001N9+00391+00171101911ADDAA199000391AY181061GF107991999091008001001001KA1999N+00391MD1210341+9999
0064106370999991927041306004+50050+008600FM-12+003499999V0209999900101030001CN0020001N9+00501+00281102611ADDAY111061GF107991021051008001021001KA1999N+00391MD1310141+9999
0064106370999991927041406004+50050+008600FM-12+003499999V0209999900261012301CN0020001N9+00721+00501101671ADDAY121061GF108991081051012501999999KA1999N+00611MD1710141+9999
0086106370999991927041506004+50050+008600FM-12+003499999V0209999900101004501CN0040001N9+00891+00831100081ADDAA199003091AY161061GF108991061061004501021001KA1999N+99999MW1211EQDQ01 +01002ATMN  
0075106370999991927041606004+50050+008600FM-12+003499999V0209999900261220001CN0100001N9+00611+00391101701ADDAA199005091AY181061GF104991021011008001021001KA1999N+00391MD1210141+9999
0064106370999991927041706004+50050+008600FM-12+003499999V0209999900261007801CN0100001N9+00501+00111102381ADDAY111061GF106991061051008001031001KA1999N+00391MD1310201+9999
0064106370999991927041806004+50050+008600FM-12+003499999V0209991C00001007801CN0020001N9+00611+00391102791ADDAY121061GF108991081051008001999999KA1999N+00391MD1210061+9999
0064106370999991927041906004+50050+008600FM-12+003499999V0209991C00001012301CN0040001N9+00891+00671102731ADDAY121061GF108991081051012501999999KA1999N+00781MD1310061+9999
0050106370999991927042006004+50050+008600FM-12+003499999V0209999900261220001CN0020001N9+00891+00831102501ADDAY101061GF102991001001999999001021KA1999N+00721
0050106370999991927042106004+50050+008600FM-12+003499999V0209999900101030001CN0040001N9+01001+00611102131ADDAY111061GF107991041051012501021001KA1999N+00891
0069106370999991927042206004+50050+008600FM-12+003499999V0209999900261220001CN0040001N9+01001+00611102121ADDAY111061GF106991001001999999001081KA1999N+99999EQDQ01 +01112ATMN  
0064106370999991927042306004+50050+008600FM-12+003499999V0209999900671220001CN0020001N9+01391+00721100781ADDAY101061GF100991001001999999001001KA1999N+01001MD1710141+9999
0081106370999991927042406004+50050+008600FM-12+003499999V0209999900261007801CN0100001N9+00721+00501100861ADDAA199000391AY161061GF108991081061008001999999KA1999N+00721MD1710061+9999MW1611
0081106370999991927042506004+50050+008600FM-12+003499999V0209999900461012301CN0040001N9+00721+00501100171ADDAA199003091AY161061GF108991081061012501999999KA1999N+00501MD1610061+9999MW1611
0081106370999991927042606004+50050+008600FM-12+003499999V0209999900461012301CN0100001N9+00781+00391100301ADDAA199004091AY161061GF108991081061012501999999KA1999N+00611MD1210341+9999MW1631
0064106370999991927042706004+50050+008600FM-12+003499999V0209999900101220001CN0040001N9+00281+00061101951ADDAY101061GF102991999001999999021001KA1999N+00001MD1310141+9999
0064106370999991927042806004+50050+008600FM-12+003499999V0209999900261012301CN0020001N9+00721+00501102121ADDAY111061GF107991071051012501001001KA1999N+00501MD1310141+9999
0081106370999991927042906004+50050+008600FM-12+003499999V0209991C00001030001CN0020001N9+00891+00441101791ADDAA199000691AY161061GF107991041051008001021001KA1999N+00501MD1810061+9999MW1601
0067106370999991927043006004+50050+008600FM-12+003499999V0209999900261007801CN0020001N9+01001+00781101601ADDAA199000691AY161061GF108991081061008001999999KA1999N+00891MW1601
0075106370999991927050106004+50050+008600FM-12+003499999V0209999900261007801CN0040001N9+00781+00721101791ADDAA199000691AY161061GF108991081051008001999999KA1999N+00611MD1310061+9999
0064106370999991927050206004+50050+008600FM-12+003499999V0209999900261012301CN0040001N9+00781+00561102041ADDAY101061GF108991081051012501999999KA1999N+00501MD1310061+9999
0050106370999991927050306004+50050+008600FM-12+003499999V0209999900261220001CN0040001N9+01001+00781101711ADDAY101061GF104991999001999999031001KA1999N+00721
0050106370999991927050406004+50050+008600FM-12+003499999V0209999900101220001CN0100001N9+01501+01281101221ADDAY101061GF100991001001999999001001KA1999N+01001
0064106370999991927050506004+50050+008600FM-12+003499999V0209999900261220001CN0020001N9+01501+01061101111ADDAY101061GF100991001001999999001001KA1999N+01221MD1310141+9999
0064106370999991927050606004+50050+008600FM-12+003499999V0209999900261220001CN0100001N9+01611+01171101841ADDAY111061GF104991001001999999001081KA1999N+01281MD1310141+9999
0064106370999991927050706004+50050+008600FM-12+003499999V0209999900671220001CN0100001N9+01721+01061102131ADDAY111061GF104991021051012501001081KA1999N+01501MD1310061+9999
0050106370999991927050806004+50050+008600FM-12+003499999V0209999900261220001CN0100001N9+01221+00781102081ADDAY101061GF101991001001999999001021KA1999N+01001
0050106370999991927050906004+50050+008600FM-12+003499999V0209999900261220001CN0100001N9+01501+01061101671ADDAY101061GF100991001001999999001001KA1999N+01111
0064106370999991927051006004+50050+008600FM-12+003499999V0209999900461220001CN0500001N9+01281+00831101511ADDAY101061GF102991001001999999001021KA1999N+01221MD1310141+9999
0064106370999991927051106004+50050+008600FM-12+003499999V0209999900461220001CN0200001N9+00501-00111102611ADDAY101061GF100991001001999999001001KA1999N+00221MD1310201+9999
0050106370999991927051206004+50050+008600FM-12+003499999V0209999900461030001CN0100001N9+00611+00221102161ADDAY111061GF107991041051012501021001KA1999N+00281
0075106370999991927051306004+50050+008600FM-12+003499999V02099999004619999999N0100001N9+00611+00221101911ADDAA199000691AY161061GF106991999051008001001001KA1999N+00281MD1310141+9999
0064106370999991927051406004+50050+008600FM-12+003499999V02099999001019999999N0020001N9+00611+00221102101ADDAY111061GF106991999051008001001001KA1999N+00221MD1310141+9999
0064106370999991927051506004+50050+008600FM-12+003499999V0209999900261220001CN0020001N9+00611+00391101701ADDAY111061GF104991999001017501021001KA1999N+00391MD1810061+9999
0064106370999991927051606004+50050+008600FM-12+003499999V0209999900261012301CN0020001N9+01221+99999101791ADDAY121061GF108991081051012501999999KA1999N+01111MD1310061+9999
0075106370999991927051706004+50050+008600FM-12+003499999V0209999900261012301CN0020001N9+01501+01281101641ADDAA199004091AY161061GF108991061061012501021001KA1999N+01281MD1210141+9999
0075106370999991927051806004+50050+008600FM-12+003499999V0209999900461220001CN0020001N9+01001+00781102481ADDAA199006091AY191061GF100991001001999999001001KA1999N+00781MD1310201+9999
0050106370999991927051906004+50050+008600FM-12+003499999V0209999900261220001CN0200001N9+01001+00611102101ADDAY111061GF104991021011012501021001KA1999N+00721
0064106370999991927052006004+50050+008600FM-12+003499999V0209999900101075001CN0020001N9+00891+00671102161ADDAY111061GF106991041051012501001081KA1999N+00611MD1310141+9999
0064106370999991927052106004+50050+008600FM-12+003499999V0209999900461220001CN0020001N9+01001+00611101411ADDAY101061GF100991001001999999001001KA1999N+00501MD1810141+9999
0081106370999991927052206004+50050+008600FM-12+003499999V0209999900671075001CN0040001N9+01001+00941101031ADDAA199000591AY161061GF106991041051008001001021KA1999N+00781MD1210061+9999MW1211
0064106370999991927052306004+50050+008600FM-12+003499999V0209999900461007801CN0040001N9+00891+00441102021ADDAY121061GF108991081051008001999999KA1999N+00781MD1310261+9999
0064106370999991927052406004+50050+008600FM-12+003499999V0209999900461012301CN0020001N9+01001+00611102441ADDAY121061GF108991081051012501999999KA1999N+00781MD1810061+9999
0075106370999991927052506004+50050+008600FM-12+003499999V0209999900261220001CN0040001N9+01281+00831102131ADDAA199000591AY111061GF104991041051012501021001KA1999N+01001MD1310061+9999
0050106370999991927052606004+50050+008600FM-12+003499999V02099999004619999999N0200001N9+00891+00281101731ADDAY101061GF106991999011012501001001KA1999N+00611
0050106370999991927052706004+50050+008600FM-12+003499999V0209999900261012301CN0020001N9+00781+00391101761ADDAY121061GF108991081051012501999999KA1999N+00721
0067106370999991927052806004+50050+008600FM-12+003499999V0209999900261012301CN0020001N9+00721+00501101231ADDAA199001091AY161061GF108991081061012501999999KA1999N+00721MW1511
0064106370999991927052906004+50050+008600FM-12+003499999V0209991C00001220001CN0040001N9+01001+00611101391ADDAY111061GF101991011011022501001021KA1999N+00501MD1310141+9999
0064106370999991927053006004+50050+008600FM-12+003499999V02099999001019999999N0040001N9+01391+00941101271ADDAY121061GF108991999001017501021001KA1999N+01001MD1210061+9999
0067106370999991927053106004+50050+008600FM-12+003499999V0209999900261030001CN0020001N9+01721+00831100691ADDAA199000691AY181061GF107991041061012501021001KA1999N+01281MW1211
0051106370999991927060212004+50050+008600FM-12+003499999V0200901N00101220001CN0200001N9+02391+01441101281ADDAY111061GF102991001001999999001081MD1610061+9999
0051106370999991927061012004+50050+008600FM-12+003499999V0200201N00101075001CN0100001N9+01891+01221101441ADDAY111061GF106991011011017501001081MD1810201+9999
0057106370999991927061112004+50050+008600FM-12+003499999V0200201N00261007801CN0020001N9+01391+01331101151ADDAY161061GF108991081061008001999999MD1710061+9999MW1631
0037106370999991927061312004+50050+008600FM-12+003499999V0209991C000019999999N0040001N9+01891+01441101681ADDAY121061GF106991999011012501001001
0051106370999991927061412004+50050+008600FM-12+003499999V0200701N00101220001CN0100001N9+02501+01781101491ADDAY101061GF104991041011012501001081MD1810141+9999
0051106370999991927070412004+50050+008600FM-12+003499999V0209991C000019999999N0100001N9+02221+01561101571ADDAY111061GF107991999011012501001001MD1610061+9999
0057106370999991927070512004+50050+008600FM-12+003499999V0209991C00001220001CN0200001N9+03001+02001101321ADDAY101061GF102991021011017501001001MD1810141+9999MW1161
0051106370999991927070812004+50050+008600FM-12+003499999V0203601N00261030001CN0040001N9+02221+01781100731ADDAY161061GF108991041051012501021001MD1810201+9999
0037106370999991927071112004+50050+008600FM-12+003499999V0203601N001019999999N0100001N9+02501+99999101471ADDAY101061GF106991999999012501999999
0051106370999991927071212004+50050+008600FM-12+003499999V0200501N00261075001CN0100001N9+02721+01721101181ADDAY111061GF106991041011012501001081MD1810201+9999
0037106370999991927071512004+50050+008600FM-12+003499999V0209991C000019999999N0020001N9+01891+01831101971ADDAY191061GF108991999091008001001001
0051106370999991927072012004+50050+008600FM-12+003499999V0203601N00101220001CN0040001N9+02221+01281102111ADDAY111061GF104991041011012501001001MD1810141+9999
0037106370999991927072912004+50050+008600FM-12+003499999V0200501N00101220001CN0100001N9+02221+01561101331ADDAY111061GF104991041051017501031001
0051106370999991927080112004+50050+008600FM-12+003499999V0200701N00101220001CN0040001N9+02891+02171101261ADDAY101061GF104991999001999999021001MD1810201+9999
0051106370999991927080212004+50050+008600FM-12+003499999V0203601N001019999999N0100001N9+02001+01721102111ADDAY161061GF108991999091008001001001MD1310141+9999
0051106370999991927080412004+50050+008600FM-12+003499999V0200501N00461007801CN0100001N9+02221+01561102211ADDAY111061GF108991081051008001999999MD1810141+9999
0057106370999991927080612004+50050+008600FM-12+003499999V0200901N00101220001CN0100001N9+02891+01891100881ADDAY101061GF102991001001999999001081MD1810141+9999MW1471
0037106370999991927081812004+50050+008600FM-12+003499999V0209991C00001030001CN0040001N9+01721+01501100861ADDAY161061GF108991041061012501021001
0051106370999991927083012004+50050+008600FM-12+003499999V0203601N00101220001CN0100001N9+02611+01891102421ADDAY101061GF100991001001999999001001MD1810061+9999
0051106370999991927083112004+50050+008600FM-12+003499999V0200901N00461220001CN0200001N9+02721+01721102351ADDAY101061GF104991001001999999001021MD1810141+9999
0064106370999991927090106004+50050+008600FM-12+003499999V0209999900101220001CN0100001N9+01611+01331102441ADDAY101061GF102991001001999999001081KA1999N+01391MD1310061+9999
0064106370999991927090206004+50050+008600FM-12+003499999V0209999900101220001CN0100001N9+01611+01331102301ADDAY101061GF101991001001999999001081KA1999N+01391MD1310141+9999
0064106370999991927090306004+50050+008600FM-12+003499999V0209999900261220001CN0100001N9+01611+01331102201ADDAY101061GF104991001001999999001081KA1999N+01501MD1310061+9999
0050106370999991927090406004+50050+008600FM-12+003499999V0209999900101075001CN0100001N9+01501+01281101791ADDAY111061GF106991011051022501001081KA1999N+01281
0064106370999991927090506004+50050+008600FM-12+003499999V0209991C00001012301CN0020001N9+01611+01561101591ADDAY141061GF108991081051012501999999KA1999N+01391MD1310141+9999
0064106370999991927090606004+50050+008600FM-12+003499999V0209991C00001220001CN0020001N9+01501+01441101801ADDAY141061GF102991021051008001001001KA1999N+01281MD1310141+9999
0050106370999991927090706004+50050+008600FM-12+003499999V0209991C00001030001CN0020001N9+01721+01671101761ADDAY111061GF106991041051012501031001KA1999N+01611
0075106370999991927090806004+50050+008600FM-12+003499999V0209999900261007801CN0020001N9+01501+01441101951ADDAA199015091AY161061GF108991061051008001021001KA1999N+01391MD1310141+9999
0064106370999991927090906004+50050+008600FM-12+003499999V0209999900261012301CN0020001N9+01221+01171101661ADDAY141061GF108991081051012501999999KA1999N+01001MD1710141+9999
0075106370999991927091006004+50050+008600FM-12+003499999V0209999900261012301CN0040001N9+01501+01281101131ADDAA199000591AY181061GF106991061051012501001001KA1999N+01391MD1310061+9999
0075106370999991927091106004+50050+008600FM-12+003499999V0209999900671007801CN0040001N9+01281+01061100731ADDAA199001091AY161061GF106991061051008001031001KA1999N+01281MD1210201+9999
0075106370999991927091206004+50050+008600FM-12+003499999V0209999900261007801CN0040001N9+01111+00891101001ADDAA199004091AY191061GF107991061051008001021001KA1999N+01001MD1110141+9999
0064106370999991927091306004+50050+008600FM-12+003499999V0209999900261012301CN0100001N9+01111+00891101891ADDAY111061GF106991061051012501001001KA1999N+01001MD1310141+9999
0081106370999991927091406004+50050+008600FM-12+003499999V0209999900261030001CN0040001N9+01001+00781101581ADDAA199000691AY161061GF108991041061012501021001KA1999N+00891MD1810061+9999MW1511
0075106370999991927091506004+50050+008600FM-12+003499999V0209999900101012301CN0020001N9+01221+01171101311ADDAA199000391AY161061GF108991081051012501999999KA1999N+01111MD1610061+9999
0075106370999991927091606004+50050+008600FM-12+003499999V0209991C00001012301CN0040001N9+01391+01331100771ADDAA199001091AY161061GF108991061051012501021001KA1999N+01221MD1810061+9999
0075106370999991927091706004+50050+008600FM-12+003499999V0209999900261030001CN0020001N9+01281+01221100421ADDAA199004091AY161061GF108991041061012501021001KA1999N+01281MD1310141+9999
0061106370999991927091806004+50050+008600FM-12+003499999V0209999900261012301CN0020001N9+01001+00941100711ADDAA199003091AY161061GF108991081051012501999999KA1999N+01001
0081106370999991927091906004+50050+008600FM-12+003499999V0209991C00001007801CN0010001N9+01221+01171101071ADDAA199001091AY181061GF106991061051008001001001KA1999N+01111MD1310061+9999MW1101
0064106370999991927092006004+50050+008600FM-12+003499999V0209999900461030001CN0040001N9+01391+00941101221ADDAY111061GF108991041051012501021001KA1999N+01001MD1210141+9999
0064106370999991927092106004+50050+008600FM-12+003499999V0209999900261012301CN0040001N9+01611+01561101311ADDAY111061GF107991071051012501001001KA1999N+01391MD1610061+9999
0075106370999991927092206004+50050+008600FM-12+003499999V0209999900261220001CN0040001N9+01611+01561100691ADDAA199000591AY181061GF101991011011012501001001KA1999N+01501MD1990061+9999
0064106370999991927092306004+50050+008600FM-12+003499999V0209999900461030001CN0040001N9+01391+01171100401ADDAY121061GF107991041051012501021001KA1999N+01391MD1310141+9999
0067106370999991927092406004+50050+008600FM-12+003499999V0209999900261012301CN0020001N9+01281+01221099231ADDAA199010091AY181061GF108991081061012501999999KA1999N+01111MW1631
0081106370999991927092506004+50050+008600FM-12+003499999V0209991C00001004501CN0020001N9+01111+01061099581ADDAA199001091AY161061GF108991999061004501001001KA1999N+01111MD1210061+9999MW1531
0081106370999991927092606004+50050+008600FM-12+003499999V0209999900261220001CN0020001N9+01111+01061100871ADDAA199000391AY161061GF104991041091999999001001KA1999N+00891MD1310201+9999MW1211
0075106370999991927092706004+50050+008600FM-12+003499999V0209999900101007801CN0020001N9+00891+00831101661ADDAA199001091AY161061GF108991081051008001999999KA1999N+00611MD1310141+9999
0064106370999991927092806004+50050+008600FM-12+003499999V0209991C00001220001CN0040001N9+00781+00721102371ADDAY101061GF101991999001999999021001KA1999N+00721MD1310201+9999
0064106370999991927092906004+50050+008600FM-12+003499999V0209991C00001220001CN0040001N9+00611+00561102501ADDAY101061GF102991021011012501001001KA1999N+00501MD1610061+9999
0081106370999991927093006004+50050+008600FM-12+003499999V0209999900101007801CN0020001N9+01111+01061101321ADDAA199000691AY161061GF108991081061008001999999KA1999N+00891MD1310141+9999MW1511
0070106370999991927100106004+50050+008600FM-12+003499999V0209999900101000151CN0005001N9+00721+00671102441ADDAY141061GF108991081051000251999999KA1999N+00501MD1310141+9999MW1451
0050106370999991927100206004+50050+008600FM-12+003499999V0209999900101004501CN0040001N9+01111+01061101911ADDAY121061GF108991081051004501999999KA1999N+00781
0081106370999991927100306004+50050+008600FM-12+003499999V0209999900261012301CN0100001N9+01111+00891102021ADDAA199000591AY181061GF107991061091012501021001KA1999N+01001MD1310341+9999MW1211
0070106370999991927100406004+50050+008600FM-12+003499999V0209999900101220001CN0010001N9+00221+00171102911ADDAY141061GF102991021051004501001001KA1999N+00221MD1310141+9999MW1101
0064106370999991927100506004+50050+008600FM-12+003499999V0209991C00001012301CN0100001N9+00721+00501102741ADDAY111061GF106991061051012501001001KA1999N+00611MD1110061+9999
0056106370999991927100606004+50050+008600FM-12+003499999V0209999900101012301CN0010001N9+00501+00441102991ADDAY141061GF108991081051012501999999KA1999N+00281MW1101
0056106370999991927100706004+50050+008600FM-12+003499999V0209999900101012301CN0010001N9+00781+00561102791ADDAY141061GF108991081051012501999999KA1999N+00611MW1101
0064106370999991927100806004+50050+008600FM-12+003499999V0209999900101220001CN0040001N9+01001+00941102971ADDAY111061GF104991041051012501021001KA1999N+00891MD1310201+9999
0064106370999991927100906004+50050+008600FM-12+003499999V0209999900101220001CN0040001N9+00501+00281103331ADDAY101061GF102991001001999999001081KA1999N+00391MD1310061+9999
0050106370999991927101006004+50050+008600FM-12+003499999V0209999900101220001CN0040001N9+00391+00331103301ADDAY101061GF100991001001999999001001KA1999N+00391
0050106370999991927101106004+50050+008600FM-12+003499999V0209991C00001220001CN0040001N9+00501+00281102661ADDAY101061GF100991001001999999001001KA1999N+00391
0064106370999991927101206004+50050+008600FM-12+003499999V0209999900101220001CN0040001N9+00781+00561102661ADDAY111061GF102991021051012501001001KA1999N+00781MD1310141+9999
0064106370999991927101306004+50050+008600FM-12+003499999V0209999900101012301CN0040001N9+00391+00331102441ADDAY111061GF106991061051012501001001KA1999N+00281MD1610061+9999
0050106370999991927101406004+50050+008600FM-12+003499999V0209991C00001012301CN0020001N9+00781+00721101321ADDAY121061GF108991081051012501999999KA1999N+00721
0070106370999991927101506004+50050+008600FM-12+003499999V0209999900101220001CN0010001N9+00721+00671101631ADDAY141061GF104991041051012501001001KA1999N+00611MD1310141+9999MW1101
0050106370999991927101606004+50050+008600FM-12+003499999V0209999900261220001CN0020001N9+00281+00221101441ADDAY101061GF100991001001999999001001KA1999N+00281
0070106370999991927101706004+50050+008600FM-12+003499999V0209999900101000151CN0010001N9+00391+00331101201ADDAY141061GF108991081051000251999999KA1999N+00391MD1010061+9999MW1101
0075106370999991927101806004+50050+008600FM-12+003499999V0209999900261220001CN0040001N9+00891+00671101131ADDAA199000391AY181061GF104991041051012501001001KA1999N+00891MD1310201+9999
0064106370999991927101906004+50050+008600FM-12+003499999V0209999900261012301CN0020001N9+00721+00501101571ADDAY121061GF108991081051012501999999KA1999N+00611MD1310141+9999
0057106370999991927102006004+50050+008600FM-12+003499999V0209999900261012301CN0040001N9+00891+00831101721ADDAY181061GF106991061061012501001001MD1310141+9999MW1801
0067106370999991927102106004+50050+008600FM-12+003499999V0209999900101000151CN0010001N9+00891+00671102111ADDAA199000691AY141061GF108991081051000251999999KA1999N+00781MW1101
0070106370999991927102206004+50050+008600FM-12+003499999V0209999900101000151CN0010001N9+00611+00561101391ADDAY141061GF108991081051000251999999KA1999N+00391MD1810261+9999MW1101
0075106370999991927102306004+50050+008600FM-12+003499999V0209999900461030001CN0040001N9+00891+00831099861ADDAA199005091AY161061GF106991021061008001021001KA1999N+00891MD1610061+9999
0081106370999991927102406004+50050+008600FM-12+003499999V0209999900261012301CN0020001N9+00891+00671100671ADDAA199004091AY181061GF108991081061012501999999KA1999N+00721MD1310341+9999MW1611
0057106370999991927102506004+50050+008600FM-12+003499999V0209999900101012301CN0005001N9+00721+00671102211ADDAY141061GF108991081051012501999999MD1310141+9999MW1441
0050106370999991927102606004+50050+008600FM-12+003499999V02099999004619999999N0020001N9+01281+01221102081ADDAY121061GF108991999051012501001001KA1999N+01221
0064106370999991927102706004+50050+008600FM-12+003499999V0209991C00001012301CN0020001N9+01111+01061102131ADDAY121061GF108991081051012501999999KA1999N+01001MD1210141+9999
0070106370999991927102806004+50050+008600FM-12+003499999V0209999900101075001CN0010001N9+01001+00941102161ADDAY141061GF106991021051008001001021KA1999N+00891MD1310141+9999MW1101
0064106370999991927102906004+50050+008600FM-12+003499999V0209999900261007801CN0020001N9+01001+00781101971ADDAY111061GF106991061051008001001001KA1999N+00781MD1210141+9999
0056106370999991927103006004+50050+008600FM-12+003499999V0209991C00001000151CN0010001N9+00721+00671102441ADDAY141061GF108991081051000251999999KA1999N+00501MW1101
0067106370999991927103106004+50050+008600FM-12+003499999V0209999900101004501CN0010001N9+00781+00721101911ADDAA199000691AY141061GF108991081051004501999999KA1999N+00721MW1501
0075106370999991927110106004+50050+008600FM-12+003499999V0209999900101220001CN0020001N9+00891+00831102841ADDAA199000691AY161061GF104991021051004501021001KA1999N+00781MD1310341+9999
0067106370999991927110206004+50050+008600FM-12+003499999V0209999900461000151CN0010001N9+00611+00561102911ADDAA199000691AY141061GF108991081051000251999999KA1999N+00391MW1101
0061106370999991927110306004+50050+008600FM-12+003499999V0209999900101007801CN0020001N9+01281+01221103041ADDAA199000691AY161061GF108991081051008001999999KA1999N+00721
0070106370999991927110406004+50050+008600FM-12+003499999V0209999900101000151CN0002001N9+01111+01061102241ADDAY141061GF108991081051000251999999KA1999N+01001MD1610061+9999MW1451
0064106370999991927110506004+50050+008600FM-12+003499999V02099999001019999999N0020001N9+01001+00781101641ADDAY111061GF108991999051008001001001KA1999N+00891MD1810141+9999
0064106370999991927110606004+50050+008600FM-12+003499999V0209999901231030001CN0200001N9+00891+00281100231ADDAY121061GF108991041051008001021001KA1999N+00891MD1810201+9999
0081106370999991927110706004+50050+008600FM-12+003499999V0209999900261012301CN0020001N9+00781+00721099491ADDAA199005091AY161061GF108991081061012501999999KA1999N+00781MD1510061+9999MW1631
0075106370999991927110806004+50050+008600FM-12+003499999V02099999002619999999N0020001N9+00611+00391100661ADDAA199002091AY161061GF108991999061012501001001KA1999N+00611MD1210201+9999
0081106370999991927110906004+50050+008600FM-12+003499999V0209999900101012301CN0020001N9+00501+00441099661ADDAA199021091AY161061GF108991081061012501999999KA1999N+00391MD1810141+9999MW1611
0075106370999991927111006004+50050+008600FM-12+003499999V02099999002619999999N0020001N9+00281+00061099511ADDAA199004091AY161061GF108991999061008001001001KA1999N+00281MD1210141+9999
0094106370999991927111106004+50050+008600FM-12+003499999V02099999001019999999N0020001N9+00221+00001100231ADDAA199000391AY171061GF106991999061012501001001KA1999N+99999MD1310141+9999EQDQ01 +00502ATMN  
0064106370999991927111206004+50050+008600FM-12+003499999V0209999900101012301CN0020001N9+00111+00061100901ADDAY121061GF108991081051012501999999KA1999N+00111MD1310141+9999
0064106370999991927111306004+50050+008600FM-12+003499999V0209999900101012301CN0020001N9+00111+00061102201ADDAY121061GF108991081051012501999999KA1999N-00111MD1310201+9999
0070106370999991927111406004+50050+008600FM-12+003499999V0209991C00001000151CN0010001N9-00111-00171102531ADDAY141061GF108991081051000251999999KA1999N-00221MD1310141+9999MW1101
0075106370999991927111506004+50050+008600FM-12+003499999V0209999900101012301CN0020001N9+00111+00061102431ADDAA199001091AY171061GF108991081051012501999999KA1999N-00111MD1310061+9999
0061106370999991927111606004+50050+008600FM-12+003499999V0209999900261007801CN0010001N9+00221+00171102471ADDAA199002091AY171061GF108991081051008001999999KA1999N+00111
0081106370999991927111706004+50050+008600FM-12+003499999V0209999900261000151CN0010001N9+00281+00221102391ADDAA199006091AY161061GF108991081051000251999999KA1999N+00281MD1310141+9999MW1101
0064106370999991927111806004+50050+008600FM-12+003499999V0209999900101012301CN0020001N9+00281+00221101831ADDAY121061GF108991081051012501999999KA1999N+00281MD1510061+9999
0064106370999991927111906004+50050+008600FM-12+003499999V0209999900261012301CN0020001N9+00281+00061101221ADDAY121061GF108991081051012501999999KA1999N+00221MD1810141+9999
0050106370999991927112006004+50050+008600FM-12+003499999V0209999900261012301CN0020001N9+00111-00111101411ADDAY121061GF108991081051012501999999KA1999N+00001
0081106370999991927112106004+50050+008600FM-12+003499999V0209999900261012301CN0020001N9+00001-00061101061ADDAA199000691AY171061GF108991081061012501999999KA1999N-00111MD1210141+9999MW1611
0064106370999991927112206004+50050+008600FM-12+003499999V0209999900461030001CN0020001N9-00111-00281101431ADDAY111061GF107991041051012501021001KA1999N-00221MD1710061+9999
0064106370999991927112306004+50050+008600FM-12+003499999V0209999900461012301CN0020001N9-00281-00441100921ADDAY121061GF108991081051012501999999KA1999N-00391MD1210061+9999
0075106370999991927112406004+50050+008600FM-12+003499999V0209999900261007801CN0020001N9+00001-00221102271ADDAA199000391AY161061GF108991081051008001999999KA1999N-00111MD1310141+9999
0067106370999991927112506004+50050+008600FM-12+003499999V0209999900261012301CN0020001N9+00221+00171102741ADDAA199003091AY161061GF108991081061012501999999KA1999N+00111MW1631
0050106370999991927112606004+50050+008600FM-12+003499999V0209999900261012301CN0020001N9+00281+00221103841ADDAY141061GF108991081051012501999999KA1999N+00221
0064106370999991927112706004+50050+008600FM-12+003499999V0209999900101220001CN0100001N9+00001-00221102631ADDAY101061GF104991021051017501001021KA1999N+00001MD1810201+9999
0070106370999991927112806004+50050+008600FM-12+003499999V0209999900101004501CN0010001N9+00221+00171102841ADDAY141061GF108991081051004501999999KA1999N+00111MD1310141+9999MW1101
0064106370999991927112906004+50050+008600FM-12+003499999V0209999900101007801CN0020001N9+00281+00061102701ADDAY121061GF108991081051008001999999KA1999N+00221MD1410001+9999
0081106370999991927113006004+50050+008600FM-12+003499999V0209999900261007801CN0020001N9+00221+00171102871ADDAA199000691AY161061GF108991081051008001999999KA1999N+00111MD1310061+9999MW1511
0050106370999991927120106004+50050+008600FM-12+003499999V0209999900261007801CN0020001N9+00221+00001102481ADDAY121061GF108991081051008001999999KA1999N+00111
0050106370999991927120206004+50050+008600FM-12+003499999V0209999900261007801CN0020001N9+00391+00001102401ADDAY121061GF108991081051008001999999KA1999N+00281
0064106370999991927120306004+50050+008600FM-12+003499999V0209999900261007801CN0020001N9+00001-00221102261ADDAY111061GF108991081051008001999999KA1999N-00221MD1610061+9999
0064106370999991927120406004+50050+008600FM-12+003499999V0209991C00001004501CN0020001N9+00111-00111101671ADDAY121061GF108991081051004501999999KA1999N+00001MD1810061+9999
0064106370999991927120506004+50050+008600FM-12+003499999V0209991C00001012301CN0020001N9+00001-00061101661ADDAY111061GF106991061051012501001001KA1999N-00111MD1210061+9999
0070106370999991927120606004+50050+008600FM-12+003499999V0209991C00001220001CN0010001N9-00111-00171101581ADDAY141061GF100991001001999999001001KA1999N-00221MD1510001+9999MW1101
0064106370999991927120706004+50050+008600FM-12+003499999V0209999900461007801CN0020001N9+00221+00001100921ADDAY111061GF107991071051008001001001KA1999N+00001MD1510001+9999
0050106370999991927120806004+50050+008600FM-12+003499999V0209999900461220001CN0020001N9+00001-00061101151ADDAY111061GF104991999001999999021001KA1999N+00001
0067106370999991927120906004+50050+008600FM-12+003499999V0209991C00001000151CN0005001N9+00221+00171101441ADDAA199000691AY161061GF108991081051000251999999KA1999N+00111MW1511
0075106370999991927121006004+50050+008600FM-12+003499999V0209999900101007801CN0020001N9+00221+00171101941ADDAA199000691AY161061GF108991081051008001999999KA1999N+00221MD1310061+9999
0050106370999991927121106004+50050+008600FM-12+003499999V0209999900261220001CN0020001N9-00281-00331102021ADDAY101061GF100991001001999999001001KA1999N-00281
0064106370999991927121206004+50050+008600FM-12+003499999V0209999900101007801CN0020001N9-00221-00391101301ADDAY121061GF108991081051008001999999KA1999N-00281MD1810141+9999
0050106370999991927121306004+50050+008600FM-12+003499999V0209999900101004501CN0020001N9-00281-00441100781ADDAY121061GF108991081051004501999999KA1999N-00391
0064106370999991927121406004+50050+008600FM-12+003499999V0209999900101007801CN0020001N9-00221-00391101071ADDAY121061GF108991081051008001999999KA1999N-00281MD1410001+9999
0081106370999991927121506004+50050+008600FM-12+003499999V0209999900101007801CN0020001N9-00111-00171100901ADDAA199002091AY171061GF108991081061008001999999KA1999N-00221MD1810141+9999MW1731
0064106370999991927121606004+50050+008600FM-12+003499999V0209999900671007801CN0020001N9-00501-00831102151ADDAY111061GF107991071051008001001001KA1999N-00721MD1310201+9999
0050106370999991927121706004+50050+008600FM-12+003499999V0209999900101220001CN0020001N9-01281-01441103001ADDAY101061GF101991999001999999021001KA1999N-01391
0050106370999991927121806004+50050+008600FM-12+003499999V0209991C00001220001CN0040001N9-01281-01441103261ADDAY101061GF101991999001999999021001KA1999N-01281
0075106370999991927121906004+50050+008600FM-12+003499999V0209991C00001007801CN0020001N9-00781-00941102791ADDAA199000691AY171061GF108991081051008001999999KA1999N-00891MD1810141+9999
0050106370999991927122006004+50050+008600FM-12+003499999V0209999900261220001CN0020001N9-01391-01671102341ADDAY101061GF100991001001999999001001KA1999N-01501
0064106370999991927122106004+50050+008600FM-12+003499999V0209999900261007801CN0020001N9-01111-01441101971ADDAY121061GF108991081051008001999999KA1999N-01501MD1810061+9999
0081106370999991927122206004+50050+008600FM-12+003499999V0209991C00001000151CN0002001N9+00001-00061100431ADDAA199003091AY161061GF108991081051000251999999KA1999N-00391MD1710261+9999MW1611
0075106370999991927122306004+50050+008600FM-12+003499999V0209999900671012301CN0020001N9+01001+00781098861ADDAA199002091AY161061GF108991081061012501999999KA1999N+00281MD1610141+9999
0081106370999991927122406004+50050+008600FM-12+003499999V0209999900461012301CN0020001N9+00721+00671099391ADDAA199007091AY161061GF107991071061012501001001KA1999N+00721MD1310201+9999MW1611
0075106370999991927122506004+50050+008600FM-12+003499999V0209999900261007801CN0020001N9+00501+00441099951ADDAA199002091AY161061GF108991081061008001999999KA1999N+00391MD1110061+9999
0064106370999991927122606004+50050+008600FM-12+003499999V0209991C00001004501CN0020001N9+00391+00331099461ADDAY121061GF108991081051004501999999KA1999N+00001MD1810061+9999
0081106370999991927122706004+50050+008600FM-12+003499999V0209999900461007801CN0020001N9+00281+00221101031ADDAA199062091AY161061GF108991081061008001999999KA1999N+00281MD1310341+9999MW1611
0064106370999991927122806004+50050+008600FM-12+003499999V0209999900671220001CN0020001N9-00281-00611102861ADDAY101061GF101991999001999999021001KA1999N-00281MD1310201+9999
0064106370999991927122906004+50050+008600FM-12+003499999V0209999900461012301CN0020001N9-00391-00891102731ADDAY111061GF106991061051012501021001KA1999N-00391MD1510001+9999
0064106370999991927123006004+50050+008600FM-12+003499999V0209999900461012301CN0040001N9-00781-01111102511ADDAY111061GF106991061051012501999999KA1999N-00781MD1510061+9999
0050106370999991927123106004+50050+008600FM-12+003499999V0209999900461220001CN0020001N9-00781-01111102611ADDAY101061GF101991999001999999021001KA1999N-00781
