0061107270999991929080106004+49017+008383FM-12+011899999V0202301N00671004501CN0500001N9+01781+99999100381ADDAA199000591AY181061GF107991061061004501999999KA1999N+01611
0061107270999991929080118004+49017+008383FM-12+011899999V0202501N004610360019N0500001N9+02001+99999100571ADDAA199001091AY181061GF106991041011004501011999KA1999M+02281
0075107270999991929080206004+49017+008383FM-12+011899999V0202301N00261220001CN0500001N9+01611+99999101181ADDAA199001091AY181061GF104991041031004501001001KA1999N+01391MD1310201+9999
0075107270999991929080218004+49017+008383FM-12+011899999V0200901N001010360019N0200001N9+01721+99999101491ADDAA199001091AY181061GF106991041011004501011999KA1999M+02221MD1310061+9999
0064107270999991929080306004+49017+008383FM-12+011899999V0200501N00101220001CN0040001N9+01221+99999102021ADDAY101061GF100991001001999999001001KA1999N+01001MD1310141+9999
0038107270999991929080318004+49017+008383FM-12+011899999V0203601N001019999999N0200001N9+02281+99999101631ADDAY101061KA1999M+02391MD1610061+9999
0064107270999991929080406004+49017+008383FM-12+011899999V0209991C00001220001CN0200001N9+01501+99999101371ADDAY101061GF102991021011999999001001KA1999N+01281MD1810061+9999
0050107270999991929080418004+49017+008383FM-12+011899999V0202301N00101220001CN0500001N9+02501+99999100891ADDAY101061GF106991999001999999011001KA1999M+02781
0050107270999991929080506004+49017+008383FM-12+011899999V0201601N001019999999N0500001N9+01781+99999101091ADDAY141061GF107991999001002501071001KA1999N+01501
0081107270999991929080518004+49017+008383FM-12+011899999V0202301N002610360019N0500001N9+01891+99999101601ADDAA199001091AY181061GF106991041031008001011999KA1999M+02111MD1310201+9999MW1161
0064107270999991929080606004+49017+008383FM-12+011899999V0209991C00001220001CN0040001N9+01391+99999102001ADDAY101061GF104991001001999999001081KA1999N+01111MD1110061+9999
0064107270999991929080618004+49017+008383FM-12+011899999V0202301N00101220001CN0500001N9+02391+99999101381ADDAY101061GF104991001001999999001081KA1999M+02391MD1810141+9999
0050107270999991929080706004+49017+008383FM-12+011899999V0209991C00001220001CN0200001N9+01501+99999101341ADDAY101061GF104991001001999999011081KA1999N+01111
0064107270999991929080718004+49017+008383FM-12+011899999V0200501N001010900019N0200001N9+02781+99999100871ADDAY101061GF107991011011008001001081KA1999M+02891MD1610061+9999
0064107270999991929080806004+49017+008383FM-12+011899999V0202001N00101007801CN0200001N9+01891+99999101291ADDAY111061GF106991061051008001001001KA1999N+01781MD1310141+9999
0081107270999991929080818004+49017+008383FM-12+011899999V0202301N00101007801CN0040001N9+01781+99999101371ADDAA199000591AY161061GF108991081061008001999999KA1999M+02391MD1110141+9999MW1611
0075107270999991929080906004+49017+008383FM-12+011899999V0209991C000010360019N0020001N9+01611+99999101671ADDAA199009091AY161061GF108991021061008001011999KA1999N+01501MD1110061+9999
0064107270999991929080918004+49017+008383FM-12+011899999V0203401N00101007801CN0040001N9+01721+99999101601ADDAY181061GF108991081051008001999999KA1999M+01891MD1510001+9999
0064107270999991929081006004+49017+008383FM-12+011899999V0209991C00001004501CN0020001N9+01611+99999101721ADDAY121061GF108991081051004501999999KA1999N+01501MD1310061+9999
0050107270999991929081018004+49017+008383FM-12+011899999V0200901N00101220001CN0100001N9+02221+99999101841ADDAY111061GF100991001001999999001001KA1999M+02391
0050107270999991929081106004+49017+008383FM-12+011899999V0200501N00101220001CN0040001N9+01501+99999102201ADDAY101061GF100991001001999999001001KA1999N+01221
0064107270999991929081118004+49017+008383FM-12+011899999V0200901N00101220001CN0200001N9+02501+99999101751ADDAY101061GF100991001001999999001001KA1999M+02611MD1810061+9999
0056107270999991929081206004+49017+008383FM-12+011899999V0201801N00101220001CN0100001N9+01611+99999101921ADDGF101991001001999999001011KA1999N+01391MD1110061+9999
0050107270999991929081218004+49017+008383FM-12+011899999V0203201N001010360019N0200001N9+02391+99999101871ADDAY101061GF106991041051008001011999KA1999M+02611
0056107270999991929081306004+49017+008383FM-12+011899999V0200501N00101220001CN0040001N9+01501+99999102401ADDGF104991021051022501031999KA1999N+01391MD1310141+9999
0064107270999991929081318004+49017+008383FM-12+011899999V0200701N00101220001CN0200001N9+02391+99999102111ADDAY101061GF100991001001999999001001KA1999M+02611MD1610061+9999
0042107270999991929081406004+49017+008383FM-12+011899999V0209991C00001220001CN0040001N9+01501+99999102121ADDGF100991001001999999001001KA1999N+01281
0064107270999991929081418004+49017+008383FM-12+011899999V0202501N00101220001CN0200001N9+02781+99999101721ADDAY101061GF100991001001999999001001KA1999M+02891MD1810061+9999
0042107270999991929081506004+49017+008383FM-12+011899999V0209991C000010360019N0040001N9+01611+99999101751ADDGF106991041051017501031999KA1999N+01501
0064107270999991929081518004+49017+008383FM-12+011899999V0203601N00101220001CN0100001N9+02781+99999101371ADDAY101061GF101991999001999999031001KA1999M+02891MD1810061+9999
0042107270999991929081606004+49017+008383FM-12+011899999V0201801N00101220001CN0040001N9+01721+99999101621ADDGF100991001001999999001001KA1999N+01501
0064107270999991929081618004+49017+008383FM-12+011899999V0200701N00101220001CN0200001N9+02781+99999101151ADDAY101061GF101991999001999999031001KA1999M+03001MD1810141+9999
0070107270999991929081706004+49017+008383FM-12+011899999V0202301N004610360019N0200001N9+02221+99999101371ADDAY161061GF107991041061008001031999KA1999N+01721MD1310141+9999MW1501
0050107270999991929081718004+49017+008383FM-12+011899999V0201801N00101220001CN0500001N9+02391+99999101521ADDAY101061GF102991021011999999031999KA1999M+02721
0075107270999991929081806004+49017+008383FM-12+011899999V0201801N001010360019N0200001N9+01721+99999101671ADDAA199013091AY191061GF108991021061008001011999KA1999N+01611MD1210061+9999
0050107270999991929081818004+49017+008383FM-12+011899999V0202701N001010360019N0200001N9+02281+99999101701ADDAY111061GF108991021051012501011999KA1999M+02611
0075107270999991929081906004+49017+008383FM-12+011899999V0203601N001019999999N0100001N9+01501+99999102071ADDAA199006091AY161061GF108991021061008001999999KA1999N+01391MD1310141+9999
0050107270999991929081918004+49017+008383FM-12+011899999V0209991C000010360019N0200001N9+01891+99999101991ADDAY121061GF107991011011008001011999KA1999M+02001
0081107270999991929082006004+49017+008383FM-12+011899999V0203601N001019999999N0040001N9+01221+99999102111ADDAA199000391AY181061GF108991021061012501999999KA1999N+01221MD1410001+9999MW1601
0050107270999991929082018004+49017+008383FM-12+011899999V0209991C00001007801CN0040001N9+01611+99999102031ADDAY121061GF108991081051008001999999KA1999M+01721
0064107270999991929082106004+49017+008383FM-12+011899999V0200201N00101220001CN0040001N9+01221+99999102201ADDAY111061GF106991001999999999001091KA1999N+01001MD1310141+9999
0050107270999991929082118004+49017+008383FM-12+011899999V0200901N00101220001CN0500001N9+01891+99999102151ADDAY111061GF104991021011017501031999KA1999M+02111
0064107270999991929082206004+49017+008383FM-12+011899999V0201801N00101220001CN0040001N9+01221+99999102301ADDAY111061GF100991001001999999001001KA1999N+01001MD1310061+9999
0067107270999991929082218004+49017+008383FM-12+011899999V0202701N00101007801CN0020001N9+01501+99999102081ADDAA199003091AY161061GF108991081061008001999999KA1999M+02221MW1631
0061107270999991929082306004+49017+008383FM-12+011899999V0202001N00101007801CN0040001N9+01501+99999102271ADDAA199003091AY161061GF107991071051008001001001KA1999N+01391
0050107270999991929082318004+49017+008383FM-12+011899999V0202301N001010360019N0200001N9+01891+99999102311ADDAY111061GF107991041051012501011999KA1999M+02111
0061107270999991929082406004+49017+008383FM-12+011899999V0202001N00101012301CN0200001N9+01721+99999102381ADDAA199000391AY181061GF107991071051012501001001KA1999N+01611
0064107270999991929082418004+49017+008383FM-12+011899999V0201801N00101220001CN0500001N9+02391+99999101961ADDAY101061GF101991011011999999001001KA1999M+02611MD1810061+9999
0064107270999991929082506004+49017+008383FM-12+011899999V0202501N00101220001CN0100001N9+01781+99999102161ADDAY101061GF102991001001999999001081KA1999N+01391MD1310061+9999
0064107270999991929082518004+49017+008383FM-12+011899999V0203601N00101220001CN0500001N9+02501+99999101951ADDAY101061GF101991011011999999001001KA1999M+02611MD1810061+9999
0050107270999991929082606004+49017+008383FM-12+011899999V0203401N001010360019N0040001N9+01781+99999102201ADDAY111061GF107991041051008001031999KA1999N+01611
0064107270999991929082618004+49017+008383FM-12+011899999V0200701N00101220001CN0200001N9+02391+99999101901ADDAY111061GF102991001001999999001081KA1999M+02611MD1810061+9999
0050107270999991929082706004+49017+008383FM-12+011899999V0200701N00101220001CN0100001N9+01611+99999101881ADDAY101061GF100991001001999999001001KA1999N+01391
0064107270999991929082718004+49017+008383FM-12+011899999V0200701N00101220001CN0200001N9+02721+99999101301ADDAY101061GF100991001001999999001001KA1999M+02891MD1810141+9999
0064107270999991929082806004+49017+008383FM-12+011899999V0209991C00001220001CN0200001N9+01721+99999101521ADDAY101061GF101991001001999999001081KA1999N+01501MD1310141+9999
0064107270999991929082818004+49017+008383FM-12+011899999V0202001N00101220001CN0200001N9+02781+99999101521ADDAY101061GF106991001001999999071999KA1999M+03111MD1410001+9999
0075107270999991929082906004+49017+008383FM-12+011899999V0209991C00001007801CN0040001N9+01891+99999102031ADDAA199009091AY191061GF106991061071008001999999KA1999N+01781MD1310061+9999
0064107270999991929082918004+49017+008383FM-12+011899999V0209991C00001220001CN0200001N9+02721+99999101761ADDAY111061GF104991001001999999071999KA1999M+02781MD1610061+9999
0042107270999991929083006004+49017+008383FM-12+011899999V0209991C00001220001CN0020001N9+01781+99999101911ADDGF104991041051008001001001KA1999N+01721
0064107270999991929083018004+49017+008383FM-12+011899999V0209991C00001220001CN0200001N9+02721+99999101591ADDAY101061GF102991001001999999001081KA1999M+02891MD1810061+9999
0050107270999991929083106004+49017+008383FM-12+011899999V0209991C00001220001CN0040001N9+01721+99999101711ADDAY101061GF100991001001999999001001KA1999N+01611
0064107270999991929083118004+49017+008383FM-12+011899999V0209991C00001220001CN0200001N9+02781+99999101381ADDAY101061GF100991001001999999001001KA1999M+03111MD1810061+9999
0064107270999991929090106004+49017+008383FM-12+011899999V0209991C00001220001CN0200001N9+01891+99999101641ADDAY101061GF100991001001999999001001KA1999N+01611MD1310141+9999
0050107270999991929090206004+49017+008383FM-12+011899999V0209991C00001220001CN0040001N9+01891+99999101881ADDAY101061GF100991001001999999001001KA1999N+01721
0064107270999991929090218004+49017+008383FM-12+011899999V0209991C00001220001CN0200001N9+03001+99999101601ADDAY101061GF104991021001022501031081KA1999M+03391MD1810061+9999
0064107270999991929090306004+49017+008383FM-12+011899999V0200501N00101220001CN0200001N9+01781+99999101821ADDAY101061GF100991001001999999001001KA1999N+01721MD1310061+9999
0064107270999991929090318004+49017+008383FM-12+011899999V0200901N00101220001CN0200001N9+03001+99999101431ADDAY101061GF101991011011022501031999KA1999M+03281MD1810061+9999
0050107270999991929090406004+49017+008383FM-12+011899999V0209991C00001220001CN0040001N9+01891+99999101451ADDAY101061GF100991001001999999001001KA1999N+01721
0064107270999991929090418004+49017+008383FM-12+011899999V0209991C00001220001CN0200001N9+02721+99999101231ADDAY101061GF106991001001999999001081KA1999M+03221MD1990061+9999
0064107270999991929090506004+49017+008383FM-12+011899999V0202301N00101220001CN0040001N9+01891+99999101561ADDAY101061GF101991001001999999001081KA1999N+01721MD1310141+9999
0061107270999991929090518004+49017+008383FM-12+011899999V0201401N001010900019N0200001N9+02501+99999101461ADDAA199002091AY191061GF106991021031008001001081KA1999M+03221
0050107270999991929090606004+49017+008383FM-12+011899999V0202301N00101220001CN0200001N9+01721+99999101791ADDAY101061GF102991001001999999001081KA1999N+01501
0037107270999991929090618004+49017+008383FM-12+011899999V0203601N002610360019N0040001N9+02391+99999101781ADDAY111061GF107991041051017501011999
0064107270999991929090706004+49017+008383FM-12+011899999V0200201N00101220001CN0100001N9+01281+99999102671ADDAY101061GF102991001001999999011081KA1999N+01221MD1310261+9999
0064107270999991929090718004+49017+008383FM-12+011899999V0200701N00101220001CN0200001N9+01891+99999102541ADDAY101061GF101991999001999999011001KA1999M+02001MD1610061+9999
0050107270999991929090806004+49017+008383FM-12+011899999V0200701N00101220001CN0200001N9+01001+99999102681ADDAY101061GF101991001001999999001081KA1999N+00891
0064107270999991929090818004+49017+008383FM-12+011899999V0200901N00101220001CN0200001N9+02221+99999102231ADDAY101061GF101991999001999999011001KA1999M+02281MD1610061+9999
0064107270999991929090906004+49017+008383FM-12+011899999V0209991C00001220001CN0040001N9+01281+99999101841ADDAY101061GF100991001001999999001001KA1999N+01111MD1610061+9999
0064107270999991929090918004+49017+008383FM-12+011899999V0202501N00101220001CN0200001N9+02611+99999101301ADDAY101061GF101991999001999999031001KA1999M+02781MD1610061+9999
0062107270999991929091006004+49017+008383FM-12+011899999V0209991C00001220001CN0020001N9+01611+99999101791ADDGF100991001001999999001001KA1999N+01391MD1310201+9999MW1441
0064107270999991929091018004+49017+008383FM-12+011899999V0203601N00101220001CN0040001N9+02391+99999101841ADDAY101061GF102991001001999999001081KA1999M+02781MD1410001+9999
0050107270999991929091106004+49017+008383FM-12+011899999V0200501N00101220001CN0100001N9+01281+99999102271ADDAY101061GF100991001001999999001001KA1999N+01111
0064107270999991929091118004+49017+008383FM-12+011899999V0200701N00101220001CN0200001N9+02501+99999101901ADDAY101061GF102991001001999999011081KA1999M+02781MD1610061+9999
0064107270999991929091206004+49017+008383FM-12+011899999V0209991C00001220001CN0100001N9+01611+99999102151ADDAY101061GF104991999001999999031001KA1999N+01281MD1310061+9999
0050107270999991929091218004+49017+008383FM-12+011899999V0200901N001010360019N0100001N9+02611+99999101801ADDAY101061GF106991011011008001011999KA1999M+02891
0081107270999991929091306004+49017+008383FM-12+011899999V0201801N001010360019N0040001N9+01781+99999101881ADDAA199002091AY161061GF108991041061008001011999KA1999N+01781MD1410001+9999MW1601
0064107270999991929091318004+49017+008383FM-12+011899999V0209991C00001220001CN0200001N9+02611+99999101451ADDAY111061GF104991021031008001011999KA1999M+02891MD1610141+9999
0075107270999991929091406004+49017+008383FM-12+011899999V0202301N00101012301CN0100001N9+01781+99999101591ADDAA199001091AY191061GF108991081051012501999999KA1999N+01721MD1310061+9999
0061107270999991929091418004+49017+008383FM-12+011899999V0200501N00101220001CN0100001N9+02221+99999101561ADDAA199001091AY181061GF106991001001999999071999KA1999M+02501
0062107270999991929091506004+49017+008383FM-12+011899999V0200901N00101007801CN0020001N9+01781+99999101951ADDGF109991091999008001999999KA1999N+01781MD1310141+9999MW1441
0056107270999991929091518004+49017+008383FM-12+011899999V0200701N00101220001CN0040001N9+02221+99999101921ADDAY111061GF100991001001999999001001KA1999M+02391MW1461
0056107270999991929091606004+49017+008383FM-12+011899999V0200701N00101000151CN0002001N9+01611+99999102041ADDAY141061GF109991091999000251999999KA1999N+01501MW1411
0056107270999991929091618004+49017+008383FM-12+011899999V0209991C00001220001CN0040001N9+02391+99999101671ADDGF101991001001999999001091KA1999M+02611MD1610061+9999
0050107270999991929091706004+49017+008383FM-12+011899999V0200501N00101220001CN0040001N9+01611+99999101831ADDAY101061GF101991001999999999999999KA1999N+01391
0064107270999991929091718004+49017+008383FM-12+011899999V0209991C00001220001CN0200001N9+02221+99999101431ADDAY101061GF104991999001999999011001KA1999M+02501MD1810061+9999
0050107270999991929091806004+49017+008383FM-12+011899999V0209991C00001220001CN0020001N9+01221+99999101351ADDAY101061GF106991001001999999001091KA1999N+01111
0056107270999991929091818004+49017+008383FM-12+011899999V0202301N001010360019N0040001N9+02221+99999101061ADDAY101061GF108991041031008001011999KA1999M+02501MW1951
0075107270999991929091906004+49017+008383FM-12+011899999V0209991C000010360019N0040001N9+01721+99999101301ADDAA199000591AY181061GF106991041051012501031999KA1999N+01501MD1310141+9999
0067107270999991929091918004+49017+008383FM-12+011899999V0202001N001010360019N0100001N9+02001+99999101271ADDAA199000391AY181061GF106991011011008001011999KA1999M+02501MW1501
0075107270999991929092006004+49017+008383FM-12+011899999V0202501N00261220001CN0200001N9+01721+99999101211ADDAA199003091AY161061GF104991041051012501011999KA1999N+01611MD1810061+9999
0081107270999991929092018004+49017+008383FM-12+011899999V0202701N00671007801CN0040001N9+01721+99999100411ADDAA199001091AY111061GF108991081061008001999999KA1999M+02281MD1510061+9999MW1611
0075107270999991929092106004+49017+008383FM-12+011899999V0202501N00101007801CN0040001N9+01001+99999101631ADDAA199010091AY161061GF107991071051008001001001KA1999N+00891MD1310261+9999
0064107270999991929092118004+49017+008383FM-12+011899999V0202501N00261007801CN0200001N9+01501+99999101391ADDAY111061GF108991081051008001999999KA1999M+01611MD1610061+9999
0075107270999991929092206004+49017+008383FM-12+011899999V0202301N00261220001CN0200001N9+01281+99999101871ADDAA199000391AY101061GF102991021051012501001001KA1999N+01221MD1310201+9999
0050107270999991929092218004+49017+008383FM-12+011899999V0202501N002610360019N0200001N9+01501+99999102221ADDAY111061GF106991041011012501011999KA1999M+01721
0081107270999991929092306004+49017+008383FM-12+011899999V0202301N002619999999N0040001N9+01001+99999102561ADDAA199001091AY161061GF108991041071012501999999KA1999N+00891MD1310061+9999MW1501
0061107270999991929092318004+49017+008383FM-12+011899999V0209991C00001012301CN0100001N9+01611+99999102621ADDAA199000391AY181061GF108991081051012501999999KA1999M+01721
0050107270999991929092406004+49017+008383FM-12+011899999V0200501N00101012301CN0020001N9+01391+99999102601ADDAY121061GF108991081051012501999999KA1999N+01281
0064107270999991929092418004+49017+008383FM-12+011899999V0201101N00101220001CN0200001N9+01501+99999102741ADDAY111061GF102991011011008001011999KA1999M+01781MD1310061+9999
0064107270999991929092506004+49017+008383FM-12+011899999V0200701N00101220001CN0200001N9+00721+99999103181ADDAY101061GF100991001001999999001001KA1999N+00501MD1310061+9999
0050107270999991929092518004+49017+008383FM-12+011899999V0200701N00101220001CN0200001N9+01501+99999103231ADDAY101061GF101991999001999999011001KA1999M+01891
0064107270999991929092606004+49017+008383FM-12+011899999V0200701N00101220001CN0200001N9+00611+99999103421ADDAY101061GF100991001001999999001001KA1999N+00501MD1310061+9999
0064107270999991929092618004+49017+008383FM-12+011899999V0209991C00001220001CN0200001N9+01781+99999102981ADDAY101061GF100991001001999999001001KA1999M+02001MD1810061+9999
0050107270999991929092706004+49017+008383FM-12+011899999V0209991C00001220001CN0200001N9+00721+99999102901ADDAY101061GF104991001001999999001081KA1999N+00611
0064107270999991929092718004+49017+008383FM-12+011899999V0200901N00101220001CN0100001N9+01781+99999102501ADDAY101061GF100991001001999999001001KA1999M+02281MD1610061+9999
0051107270999991929092806004+49017+008383FM-12+011899999V0209991C00001220001CN0040001N9+00611+99999102631ADDAY101061GF100991001001999999001001MD1310061+9999
0050107270999991929092818004+49017+008383FM-12+011899999V0209991C00001220001CN0040001N9+01781+99999102281ADDAY101061GF100991001001999999001001KA1999M+02391
0064107270999991929092906004+49017+008383FM-12+011899999V0209991C00001220001CN0100001N9+00721+99999102471ADDAY101061GF100991001001999999001001KA1999N+00611MD1310061+9999
0064107270999991929092918004+49017+008383FM-12+011899999V0209991C00001220001CN0100001N9+02001+99999102191ADDAY101061GF102991011011012501011999KA1999M+02391MD1610061+9999
0050107270999991929093006004+49017+008383FM-12+011899999V0209991C00001220001CN0200001N9+01111+99999102281ADDAY101061GF104991001001999999031081KA1999N+00891
0064107270999991929093018004+49017+008383FM-12+011899999V0201801N001010360019N0040001N9+02111+99999101981ADDAY101061GF108991041061008001011999KA1999M+02501MD1610061+9999
0064107270999991929100106004+49017+008383FM-12+011899999V0209991C000010360019N0200001N9+01501+99999101671ADDAY111061GF108991041061012501011999KA1999N+01221MD1610061+9999
0081107270999991929100118004+49017+008383FM-12+011899999V0202501N004610360019N0040001N9+01611+99999101801ADDAA199000691AY181061GF108991041061008001011999KA1999M+02221MD1310061+9999MW1501
0061107270999991929100206004+49017+008383FM-12+011899999V0202301N00261007801CN0200001N9+01611+99999101341ADDAA199004091AY181061GF108991061061008001011999KA1999N+01391
0064107270999991929100218004+49017+008383FM-12+011899999V0202501N004619999999N0200001N9+01891+99999101171ADDAY181061GF106991021061004501999999KA1999M+02221MD1310061+9999
0050107270999991929100306004+49017+008383FM-12+011899999V0202501N00671220001CN0500001N9+01891+99999101011ADDAY111061GF104991041051008001031999KA1999N+01781
0050107270999991929100318004+49017+008383FM-12+011899999V0202301N00671004501CN0040001N9+02391+99999100731ADDAY111061GF106991061011004501011999KA1999M+02721
0064107270999991929100406004+49017+008383FM-12+011899999V0202701N00101220001CN0500001N9+02001+99999101211ADDAY111061GF104991041011008001001001KA1999N+01891MD1310141+9999
0064107270999991929100418004+49017+008383FM-12+011899999V0201801N00101220001CN0200001N9+02281+99999100811ADDAY101061GF101991999001999999011001KA1999M+02781MD1810141+9999
0050107270999991929100506004+49017+008383FM-12+011899999V0209991C000019999999N0200001N9+01611+99999100911ADDAY111061GF106991041001012501031081KA1999N+01501
0050107270999991929100518004+49017+008383FM-12+011899999V0203601N001010360019N0020001N9+01721+99999100861ADDAY111061GF106991041031008001031999KA1999M+02391
0064107270999991929100606004+49017+008383FM-12+011899999V0202301N00101012301CN0040001N9+01221+99999100371ADDAY121061GF108991081051012501999999KA1999N+01111MD1810201+9999
0081107270999991929100618004+49017+008383FM-12+011899999V0202301N00101007801CN0200001N9+01501+99999100711ADDAA199000691AY181061GF108991081061008001999999KA1999M+02221MD1210401+9999MW1801
0075107270999991929100706004+49017+008383FM-12+011899999V0209991C00001220001CN0040001N9+00781+99999101551ADDAA199001091AY181061GF104991001001999999031081KA1999N+00781MD1310141+9999
0050107270999991929100718004+49017+008383FM-12+011899999V0209991C000010360019N0100001N9+01501+99999101551ADDAY111061GF106991011011012501011999KA1999M+01721
0070107270999991929100806004+49017+008383FM-12+011899999V0202001N00101000151CN0000501N9+00611+99999101171ADDAY141061GF108991061051000251011999KA1999N+00501MD1610141+9999MW1441
0081107270999991929100818004+49017+008383FM-12+011899999V0201801N001019999999N0040001N9+01501+99999100661ADDAA199001091AY161061GF108991041061008001999999KA1999M+01721MD1990061+9999MW1601
0075107270999991929100906004+49017+008383FM-12+011899999V0202501N004619999999N0200001N9+01281+99999100901ADDAA199003091AY161061GF108991041061008001999999KA1999N+01221MD1310261+9999
0081107270999991929100918004+49017+008383FM-12+011899999V0202701N004610360019N0040001N9+00891+99999101941ADDAA199000691AY181061GF108991041061008001011999KA1999M+01501MD1310261+9999MW1601
0075107270999991929101006004+49017+008383FM-12+011899999V0202501N002619999999N0100001N9+00781+99999102501ADDAA199000391AY181061GF108991041061008001999999KA1999N+00611MD1310061+9999
0081107270999991929101018004+49017+008383FM-12+011899999V0202501N00261007801CN0040001N9+01001+99999102781ADDAA199000691AY161061GF108991081061008001999999KA1999M+01281MD1310141+9999MW1501
0050107270999991929101106004+49017+008383FM-12+011899999V0202501N00461007801CN0500001N9+01001+99999102711ADDAY111061GF108991061061008001999999KA1999N+00891
0061107270999991929101118004+49017+008383FM-12+011899999V0202501N00671004501CN0040001N9+01111+99999102521ADDAA199001091AY181061GF108991081061004501999999KA1999M+01221
0075107270999991929101206004+49017+008383FM-12+011899999V0202501N00261007801CN0100001N9+01221+99999102591ADDAA199001091AY161061GF108991061061008001999999KA1999N+01001MD1310061+9999
0064107270999991929101218004+49017+008383FM-12+011899999V0203201N001010900019N0020001N9+01391+99999102791ADDAY111061GF106991041011008001001081KA1999M+01721MD1310061+9999
0064107270999991929101306004+49017+008383FM-12+011899999V0209991C00001007801CN0040001N9+00781+99999103031ADDAY101061GF107991071051008001001001KA1999N+00611MD1310061+9999
0050107270999991929101318004+49017+008383FM-12+011899999V0202001N00101220001CN0040001N9+01391+99999102911ADDAY101061GF101991011011008001001091KA1999M+01891
0050107270999991929101406004+49017+008383FM-12+011899999V0200901N00101220001CN0100001N9+00781+99999102801ADDAY101061GF101991999001999999031001KA1999N+00721
0050107270999991929101418004+49017+008383FM-12+011899999V0209991C00001220001CN0020001N9+01611+99999102801ADDAY101061GF104991999001999999011001KA1999M+02001
0062107270999991929101506004+49017+008383FM-12+011899999V0209991C00001000601CN0005001N9+00391+99999103101ADDGF109991091999000751999999KA1999N+00391MD1310061+9999MW1441
0050107270999991929101518004+49017+008383FM-12+011899999V0209991C00001220001CN0020001N9+01501+99999102701ADDAY101061GF100991001001999999001001KA1999M+01781
0048107270999991929101606004+49017+008383FM-12+011899999V0209991C00001000151CN0000501N9+00721+99999102361ADDGF109991091999000251999999KA1999N+00501MW1441
0000107270999991929101618004+49017+008383FM-12+011899999V0209991C000019999999N9999999N9+99999+99999101921
0064107270999991929101706004+49017+008383FM-12+011899999V0202501N00101007801CN0040001N9+01111+99999102061ADDAY111061GF106991061051008001001001KA1999N+00611MD1110061+9999
0064107270999991929101718004+49017+008383FM-12+011899999V0209991C00001220001CN0020001N9+01281+99999101861ADDAY101061GF106991001001999999011081KA1999M+01611MD1610061+9999
0064107270999991929101806004+49017+008383FM-12+011899999V0202001N00101220001CN0040001N9+00891+99999101471ADDAY111061GF107991001001999999071999KA1999N+00781MD1810061+9999
0064107270999991929101818004+49017+008383FM-12+011899999V0201101N00101007801CN0010001N9+01281+99999100851ADDAY111061GF108991081051008001999999KA1999M+01501MD1810201+9999
0075107270999991929101906004+49017+008383FM-12+011899999V0200501N00101000151CN0040001N9+01001+99999100331ADDAA199004091AY191061GF108991081051000251999999KA1999N+01001MD1810141+9999
0081107270999991929101918004+49017+008383FM-12+011899999V0202501N00101000601CN0005001N9+01001+99999100431ADDAA199016091AY161061GF108991081061000751999999KA1999M+01221MD1310061+9999MW1531
0067107270999991929102006004+49017+008383FM-12+011899999V0209991C00001007801CN0010001N9+00891+99999100451ADDAA199002091AY161061GF108991081061008001999999KA1999N+00891MW1611
0067107270999991929102018004+49017+008383FM-12+011899999V0202501N00261000601CN0005001N9+00721+99999100551ADDAA199004091AY161061GF108991081061000751999999KA1999M+01001MW1501
0061107270999991929102106004+49017+008383FM-12+011899999V0200901N00101220001CN0500001N9+00391+99999100711ADDAA199000691AY181061GF102991001001999999031091KA1999N+00281
0064107270999991929102118004+49017+008383FM-12+011899999V0200701N00101220001CN0020001N9+01001+99999100951ADDAY101061GF104991999001999999031001KA1999M+01281MD1310061+9999
0064107270999991929102206004+49017+008383FM-12+011899999V0209991C000010360019N0020001N9+00721+99999101131ADDAY111061GF106991021051008001031999KA1999N+00501MD1110061+9999
0064107270999991929102218004+49017+008383FM-12+011899999V0209991C000010360019N0040001N9+01221+99999100901ADDAY111061GF106991041051012501031999KA1999M+01391MD1310061+9999
0075107270999991929102306004+49017+008383FM-12+011899999V0209991C00001007801CN0010001N9+01001+99999100741ADDAA199002091AY161061GF108991081051008001999999KA1999N+00891MD1810061+9999
0050107270999991929102318004+49017+008383FM-12+011899999V0209991C00001007801CN0010001N9+01281+99999100891ADDAY121061GF108991081051008001999999KA1999M+01391
0061107270999991929102406004+49017+008383FM-12+011899999V0209991C000010360019N0010001N9+00891+99999101031ADDAA199000391AY161061GF106991041051012501031999KA1999N+00891
0064107270999991929102418004+49017+008383FM-12+011899999V0209991C00001220001CN0020001N9+01221+99999100341ADDAY111061GF100991001001999999001001KA1999M+01221MD1810141+9999
0050107270999991929102506004+49017+008383FM-12+011899999V0209991C000010360019N0020001N9+00781+99999100111ADDAY111061GF108991041061008001011999KA1999N+00501
0061107270999991929102518004+49017+008383FM-12+011899999V0202701N00101004501CN0010001N9+01001+99999100311ADDAA199001091AY161061GF108991081061004501999999KA1999M+01221
0075107270999991929102606004+49017+008383FM-12+011899999V0200901N00101220001CN0200001N9+00391+99999099981ADDAA199000391AY181061GF102991021011008001031999KA1999N+00281MD1610061+9999
0064107270999991929102618004+49017+008383FM-12+011899999V0200501N001010360019N0010001N9+00891+99999100031ADDAY111061GF106991041051004501011999KA1999M+01281MD1310201+9999
0064107270999991929102706004+49017+008383FM-12+011899999V0202301N00261004501CN0040001N9+00611+99999100821ADDAY121061GF107991071051004501001001KA1999N+00501MD1310141+9999
0061107270999991929102718004+49017+008383FM-12+011899999V0202701N00101220001CN0020001N9+00611+99999101021ADDAA199001091AY181061GF102991999001999999011001KA1999M+01001
0064107270999991929102806004+49017+008383FM-12+011899999V0202501N002619999999N0040001N9+00391+99999101781ADDAY101061GF108991021061008001999999KA1999N+00281MD1310201+9999
0064107270999991929102818004+49017+008383FM-12+011899999V0202001N00101220001CN0010001N9+00611+99999101681ADDAY111061GF108991001001999999011999KA1999M+00781MD1610061+9999
0081107270999991929102906004+49017+008383FM-12+011899999V0202001N001010360019N0040001N9+00781+99999100271ADDAA199000391AY161061GF108991041061008001011999KA1999N+00611MD1810341+9999MW1611
0075107270999991929102918004+49017+008383FM-12+011899999V0202301N00671007801CN0010001N9+01001+99999100301ADDAA199014091AY191061GF107991071051008001001001KA1999M+01281MD1310201+9999
0067107270999991929103006004+49017+008383FM-12+011899999V0202301N006710360019N0500001N9+00891+99999100371ADDAA199000591AY181061GF106991041061008001011999KA1999N+00781MW1601
0075107270999991929103018004+49017+008383FM-12+011899999V0202701N00101007801CN0010001N9+00891+99999100811ADDAA199001091AY181061GF107991071051008001001001KA1999M+01221MD1310261+9999
0064107270999991929103106004+49017+008383FM-12+011899999V0203601N00101004501CN0010001N9+00781+99999101491ADDAY121061GF108991081051004501999999KA1999N+00721MD1310201+9999
0075107270999991929103118004+49017+008383FM-12+011899999V0200201N00101007801CN0010001N9+00781+99999102021ADDAA199000691AY181061GF108991081051008001999999KA1999M+00781MD1310201+9999
0064107270999991929110106004+49017+008383FM-12+011899999V0203401N001010360019N0020001N9+00611+99999102311ADDAY111061GF107991041051004501011999KA1999N+00501MD1310201+9999
0061107270999991929110118004+49017+008383FM-12+011899999V0200501N00261007801CN0010001N9+00781+99999102191ADDAA199000691AY121061GF108991081051008001999999KA1999M+00891
0064107270999991929110206004+49017+008383FM-12+011899999V0202701N001019999999N0100001N9+00721+99999102181ADDAY121061GF108991021061012501999999KA1999N+00721MD1310141+9999
0064107270999991929110218004+49017+008383FM-12+011899999V0200901N00101007801CN0010001N9+00891+99999102441ADDAY121061GF108991081051008001999999KA1999M+00891MD1310061+9999
0056107270999991929110306004+49017+008383FM-12+011899999V0209991C00001000151CN0005001N9+00721+99999102351ADDAY121061GF108991081051000251999999KA1999N+00611MW1441
0050107270999991929110318004+49017+008383FM-12+011899999V0202501N00101004501CN0010001N9+00781+99999102261ADDAY111061GF108991081051004501999999KA1999M+01001
0075107270999991929110406004+49017+008383FM-12+011899999V0202301N00101220001CN0020001N9+00391+99999103101ADDAA199001091AY161061GF104991999001999999031001KA1999N+00281MD1310261+9999
0064107270999991929110418004+49017+008383FM-12+011899999V0209991C00001220001CN0010001N9+00611+99999103221ADDAY101061GF100991001001999999001001KA1999M+00891MD1310061+9999
0070107270999991929110506004+49017+008383FM-12+011899999V0209991C00001000151CN0000501N9-00221+99999102951ADDAY141061GF109991091999000251999999KA1999N-00221MD1810061+9999MW1461
0070107270999991929110518004+49017+008383FM-12+011899999V0202001N00101000151CN0000001N9+00111+99999102241ADDAY141061GF109991091999000251999999KA1999M+00391MD1810141+9999MW1441
0075107270999991929110606004+49017+008383FM-12+011899999V0209991C00001000151CN0000501N9-00221+99999101521ADDAA199000391AY141061GF108991081051000251999999KA1999N-00221MD1810141+9999
0070107270999991929110618004+49017+008383FM-12+011899999V0200901N00101000151CN0005001N9+00281+99999101171ADDAY141061GF109991091999000251999999KA1999M+00281MD1610061+9999MW1441
0073107270999991929110718004+49017+008383FM-12+011899999V0202501N002619999999N0010001N9+00781+99999101821ADDAA199000691GF108991021061008001999999KA1999M+00781MD1310201+9999MW1501
0075107270999991929110806004+49017+008383FM-12+011899999V0201101N00101220001CN0005001N9+00391+99999101821ADDAA199000391AY161061GF104991041051008001001001KA1999N+00281MD1990061+9999
0081107270999991929110818004+49017+008383FM-12+011899999V0202001N00101007801CN0005001N9+00891+99999101191ADDAA199000691AY111061GF108991081061008001999999KA1999M+01111MD1610061+9999MW1601
0075107270999991929110906004+49017+008383FM-12+011899999V0202501N002619999999N0020001N9+00891+99999101411ADDAA199005091AY161061GF108991041061008001999999KA1999N+00721MD1310201+9999
0064107270999991929110918004+49017+008383FM-12+011899999V0200201N00101007801CN0010001N9+01001+99999102031ADDAY121061GF108991081051008001999999KA1999M+01111MD1310201+9999
0081107270999991929111006004+49017+008383FM-12+011899999V0202301N00101000151CN0000501N9+00111+99999101641ADDAA199000691AY141061GF109991091999000251999999KA1999N+00111MD1610061+9999MW1441
0042107270999991929111018004+49017+008383FM-12+011899999V0202001N00101007801CN0020001N9+00721+99999101641ADDGF108991081051008001999999KA1999M+00721
0075107270999991929111106004+49017+008383FM-12+011899999V0202301N00101220001CN0100001N9+00611+99999102471ADDAA199001091AY181061GF107991001001999999031081KA1999N+00501MD1310341+9999
0064107270999991929111118004+49017+008383FM-12+011899999V0201801N00101220001CN0020001N9+00721+99999102181ADDAY111061GF104991021051008001011999KA1999M+01001MD1990061+9999
0064107270999991929111206004+49017+008383FM-12+011899999V0202501N00261007801CN0500001N9+00781+99999100491ADDAY101061GF107991061051008001011999KA1999N+00111MD1810341+9999
0075107270999991929111218004+49017+008383FM-12+011899999V0202501N004619999999N0010001N9+00781+99999100461ADDAA199002091AY161061GF108991041061008001999999KA1999M+01391MD1310341+9999
0075107270999991929111306004+49017+008383FM-12+011899999V0201401N00101220001CN0500001N9+00281+99999100431ADDAA199002091AY181061GF102991021011004501001001KA1999N+00221MD1810141+9999
0056107270999991929111318004+49017+008383FM-12+011899999V0202701N002619999999N0010001N9+00721+99999099751ADDAY111061GF108991041061004501999999KA1999M+01111MW1161
0081107270999991929111406004+49017+008383FM-12+011899999V0202301N004619999999N0200001N9+00501+99999099811ADDAA199000691AY181061GF108991041061008001999999KA1999N+00391MD1310141+9999MW1501
0081107270999991929111418004+49017+008383FM-12+011899999V0202501N00671007801CN0010001N9+00611+99999100101ADDAA199000591AY181061GF108991081061008001999999KA1999M+00611MD1310141+9999MW1601
0075107270999991929111506004+49017+008383FM-12+011899999V0202501N00461220001CN0040001N9+00111+99999100431ADDAA199000691AY181061GF102991021051008001011999KA1999N+00001MD1310201+9999
0075107270999991929111518004+49017+008383FM-12+011899999V0202501N00261220001CN0010001N9+00221+99999100931ADDAA199001091AY171061GF101991999001999999031001KA1999M+00391MD1310141+9999
0064107270999991929111606004+49017+008383FM-12+011899999V0201601N00101007801CN0200001N9+00001+99999100091ADDAY101061GF108991081051008001999999KA1999N-00221MD1810201+9999
0061107270999991929111618004+49017+008383FM-12+011899999V0202301N00671007801CN0040001N9+00891+99999099511ADDAA199002091AY161061GF107991071061008001001001KA1999M+01001
0081107270999991929111706004+49017+008383FM-12+011899999V0202301N00931007801CN0100001N9+00721+99999100211ADDAA199003091AY161061GF108991081061008001999999KA1999N+00611MD1310261+9999MW1611
0075107270999991929111718004+49017+008383FM-12+011899999V0202001N00101007801CN0010001N9+00611+99999100821ADDAA199000691AY181061GF108991081051008001999999KA1999M+01001MD1310141+9999
0064107270999991929111806004+49017+008383FM-12+011899999V0202301N002619999999N0100001N9+00281+99999101391ADDAY111061GF108991041061008001999999KA1999N+00221MD1310261+9999
0075107270999991929111818004+49017+008383FM-12+011899999V0202301N00101000601CN0005001N9+00391+99999102121ADDAA199000691AY161061GF108991081051000751999999KA1999M+00391MD1310261+9999
0056107270999991929111906004+49017+008383FM-12+011899999V0200501N00101000151CN0000501N9-00111+99999102321ADDAY141061GF109991091999000251999999KA1999N-00111MW1441
0073107270999991929111918004+49017+008383FM-12+011899999V0201601N00101000151CN0000501N9+00111+99999102001ADDAA199000691GF109991091999000251999999KA1999M+00501MD1610061+9999MW1461
0056107270999991929112006004+49017+008383FM-12+011899999V0200901N00101000151CN0000501N9-00111+99999101801ADDAY141061GF109991091999000251999999KA1999N-00221MW1441
0081107270999991929112018004+49017+008383FM-12+011899999V0209991C00001000151CN0000501N9+00001+99999101581ADDAA199000391AY141061GF109991091999000251999999KA1999M+00111MD1610061+9999MW1461
0056107270999991929112106004+49017+008383FM-12+011899999V0201801N00101000151CN0000501N9-00111+99999101621ADDAY141061GF109991091999000251999999KA1999N-00111MW1441
0081107270999991929112118004+49017+008383FM-12+011899999V0202701N00101000151CN0000501N9-00111+99999101681ADDAA199000691AY141061GF109991091999000251999999KA1999M+00111MD1310061+9999MW1461
0056107270999991929112206004+49017+008383FM-12+011899999V0201101N00101000151CN0000501N9-00221+99999101671ADDAY141061GF109991091999000251999999KA1999N-00281MW1441
0070107270999991929112218004+49017+008383FM-12+011899999V0200701N00101000151CN0000501N9-00111+99999101431ADDAY141061GF109991091999000251999999KA1999M-00111MD1810061+9999MW1441
0070107270999991929112306004+49017+008383FM-12+011899999V0201801N00101000151CN0002001N9+00001+99999101741ADDAY141061GF109991091999000251999999KA1999N-00111MD1310141+9999MW1441
0064107270999991929112318004+49017+008383FM-12+011899999V0203601N00101220001CN0010001N9+00501+99999101501ADDAY101061GF100991001001999999001001KA1999M+00781MD1410001+9999
0081107270999991929112406004+49017+008383FM-12+011899999V0209991C00001220001CN0040001N9+00891+99999101421ADDAA199000391AY161061GF107991999001999999011001KA1999N+00111MD1310061+9999MW1611
0075107270999991929112418004+49017+008383FM-12+011899999V0202301N00461007801CN0020001N9+01111+99999101831ADDAA199002091AY181061GF107991071051008001001001KA1999M+01221MD1310261+9999
0051107270999991929112506004+49017+008383FM-12+011899999V0200901N00101015001CN0200001N9+00501+99999101831ADDAY111061GF106991061051017501001001MD1810141+9999
0070107270999991929112518004+49017+008383FM-12+011899999V0209991C00001220001CN0002001N9+00781+99999101231ADDAY111061GF100991001001999999001001KA1999M+01221MD1990141+9999MW1461
0081107270999991929112606004+49017+008383FM-12+011899999V0202301N00261007801CN0020001N9+00891+99999101491ADDAA199004091AY161061GF108991081061008001999999KA1999N+00611MD1210061+9999MW1611
0075107270999991929112618004+49017+008383FM-12+011899999V0202501N00461007801CN0010001N9+01111+99999101761ADDAA199000591AY181061GF106991061051008001001001KA1999M+01111MD1110061+9999
0061107270999991929112706004+49017+008383FM-12+011899999V0202501N00461007801CN0500001N9+00781+99999101951ADDAA199002091AY181061GF108991061061008001011999KA1999N+00721
0075107270999991929112718004+49017+008383FM-12+011899999V0202001N00101007801CN0005001N9+00611+99999102001ADDAA199003091AY181061GF107991071051008001001001KA1999M+00721MD1110141+9999
0064107270999991929112806004+49017+008383FM-12+011899999V0202001N001019999999N0200001N9+00611+99999101621ADDAY121061GF108991041061008001999999KA1999N+00391MD1810201+9999
0081107270999991929112818004+49017+008383FM-12+011899999V0209991C00001000151CN0002001N9+00611+99999100981ADDAA199001091AY181061GF109991091999000251999999KA1999M+00781MD1710141+9999MW1441
0050107270999991929112906004+49017+008383FM-12+011899999V0202701N00101004501CN0200001N9+01001+99999100981ADDAY101061GF108991061051004501011999KA1999N+00611
0064107270999991929112918004+49017+008383FM-12+011899999V0209991C00001007801CN0020001N9+01111+99999100791ADDAY111061GF106991061051008001001001KA1999M+01501MD1610061+9999
0064107270999991929113006004+49017+008383FM-12+011899999V0201801N00101220001CN0200001N9+00781+99999100451ADDAY111061GF108991001001999999071999KA1999N+00721MD1610061+9999
0081107270999991929113018004+49017+008383FM-12+011899999V0202301N00261004501CN0002001N9+01111+99999099981ADDAA199003091AY161061GF108991081061004501999999KA1999M+01221MD1810141+9999MW1511
0067107270999991929120106004+49017+008383FM-12+011899999V0202301N00461007801CN0020001N9+01001+99999099891ADDAA199006091AY161061GF108991061061008001999999KA1999N+00891MW1611
0075107270999991929120118004+49017+008383FM-12+011899999V0202501N00671220001CN0002001N9+01001+99999100311ADDAA199002091AY181061GF104991041011008001001001KA1999M+01221MD1310201+9999
0081107270999991929120206004+49017+008383FM-12+011899999V0202501N00461007801CN0040001N9+00781+99999101051ADDAA199000591AY181061GF108991081061008001999999KA1999N+00781MD1310141+9999MW1501
0075107270999991929120218004+49017+008383FM-12+011899999V0201801N00101220001CN0002001N9+00781+99999100951ADDAA199001091AY181061GF101991999001999999031001KA1999M+01221MD1990061+9999
0075107270999991929120306004+49017+008383FM-12+011899999V0202501N00261007801CN0100001N9+00781+99999101101ADDAA199001091AY181061GF108991081061008001999999KA1999N+00611MD1310201+9999
0075107270999991929120318004+49017+008383FM-12+011899999V0201601N001019999999N0010001N9+01001+99999101051ADDAA199004091AY161061GF108991041061008001999999KA1999M+01111MD1610141+9999
0075107270999991929120406004+49017+008383FM-12+011899999V0201601N00101004501CN0500001N9+01001+99999101151ADDAA199000591AY161061GF108991061061004501011999KA1999N+00891MD1810061+9999
0064107270999991929120418004+49017+008383FM-12+011899999V0202001N00101007801CN0010001N9+01391+99999101461ADDAY111061GF106991061051008001001001KA1999M+01391MD1310141+9999
0075107270999991929120506004+49017+008383FM-12+011899999V0200901N00101220001CN0500001N9+00781+99999101381ADDAA199000591AY181061GF102991999001999999071001KA1999N+00721MD1990201+9999
0064107270999991929120518004+49017+008383FM-12+011899999V0201601N00101220001CN0010001N9+01221+99999100071ADDAY101061GF101991999001999999011001KA1999M+01721MD1610201+9999
0067107270999991929120606004+49017+008383FM-12+011899999V0202001N00101007801CN0200001N9+00891+99999100421ADDAA199000691AY181061GF108991081061008001999999KA1999N+00721MW1601
0075107270999991929120618004+49017+008383FM-12+011899999V0202501N002619999999N0010001N9+00781+99999100861ADDAA199000591AY161061GF108991041061008001999999KA1999M+01111MD1110141+9999
0061107270999991929120706004+49017+008383FM-12+011899999V0201801N001019999999N0200001N9+00501+99999100091ADDAA199001091AY181061GF108991041061008001999999KA1999N+00221
0064107270999991929120718004+49017+008383FM-12+011899999V0202301N01231007801CN0010001N9+01001+99999100581ADDAY111061GF106991061051008001001001KA1999M+01221MD1310201+9999
0064107270999991929120806004+49017+008383FM-12+011899999V0209991C00001220001CN0500001N9+00391+99999101911ADDAY101061GF100991001001999999001001KA1999N+00281MD1310061+9999
0064107270999991929120818004+49017+008383FM-12+011899999V0202001N00101007801CN0020001N9+00721+99999101101ADDAY111061GF108991081051008001999999KA1999M+01111MD1810261+9999
0075107270999991929120906004+49017+008383FM-12+011899999V0202501N012310360019N0200001N9+00721+99999101861ADDAA199001091AY181061GF108991041061004501011999KA1999N+00611MD1310201+9999
0083107270999991929120918004+49017+008383FM-12+011899999V0202501N009319999999N0020001N9+01001+99999101011ADDAY111061GF108991041061004501999999KA1999M+01001MD1810542+9999EQDQ01+000542APC3  
0081107270999991929121006004+49017+008383FM-12+011899999V0202501N006719999999N0040001N9+00721+99999100691ADDAA199009091AY161061GF108991041061004501999999KA1999N+00721MD1210141+9999MW1601
0075107270999991929121018004+49017+008383FM-12+011899999V0202501N00461220001CN0020001N9+00391+99999101701ADDAA199000591AY181061GF104991041051004501001001KA1999M+01221MD1310401+9999
0064107270999991929121106004+49017+008383FM-12+011899999V0202501N012319999999N0200001N9+00721+99999101291ADDAY111061GF107991021061008001999999KA1999N+00391MD1810201+9999
0081107270999991929121118004+49017+008383FM-12+011899999V0202701N00671004501CN0010001N9+01001+99999101051ADDAA199001091AY161061GF108991081061004501999999KA1999M+01221MD1310341+9999MW1631
0075107270999991929121206004+49017+008383FM-12+011899999V0202501N01231007801CN0200001N9+01221+99999101591ADDAA199003091AY181061GF108991061031008001999999KA1999N+01001MD1510061+9999
0061107270999991929121218004+49017+008383FM-12+011899999V0202701N012319999999N0020001N9+00721+99999101821ADDAA199013091AY181061GF106991041051008001999999KA1999M+01221
0081107270999991929121306004+49017+008383FM-12+011899999V0202701N00461007801CN0040001N9+00721+99999102911ADDAA199000691AY161061GF108991061061008001011999KA1999N+00611MD1010061+9999MW1501
0075107270999991929121318004+49017+008383FM-12+011899999V0202701N004610360019N0010001N9+00781+99999103221ADDAA199001091AY181061GF107991041051008001011999KA1999M+00781MD1310061+9999
0050107270999991929121406004+49017+008383FM-12+011899999V0202701N00461007801CN0200001N9+00721+99999103141ADDAY111061GF107991061051008001011999KA1999N+00611
0064107270999991929121418004+49017+008383FM-12+011899999V0202701N004610360019N0010001N9+01111+99999102961ADDAY111061GF108991021051008001011999KA1999M+01221MD1010001+9999
0061107270999991929121506004+49017+008383FM-12+011899999V0202501N00261004501CN0100001N9+01001+99999103101ADDAA199000591AY161061GF108991081061004501999999KA1999N+00781
0061107270999991929121518004+49017+008383FM-12+011899999V0202701N00931007801CN0020001N9+01221+99999102761ADDAA199000691AY181061GF108991081051008001999999KA1999M+01221
0067107270999991929121606004+49017+008383FM-12+011899999V0202301N001019999999N0020001N9+00611+99999102981ADDAA199008091AY161061GF108991041061008001999999KA1999N+00501MW1511
0075107270999991929121618004+49017+008383FM-12+011899999V0202501N00101220001CN0010001N9+00281+99999103361ADDAA199003091AY181061GF102991999001999999031001KA1999M+01111MD1310061+9999
0075107270999991929121706004+49017+008383FM-12+011899999V0202301N00461007801CN0010001N9+00221+99999103391ADDAA199000691AY181061GF107991061061008001999999KA1999N+00001MD1610061+9999
0081107270999991929121718004+49017+008383FM-12+011899999V0202501N00461004501CN0010001N9+00281+99999103141ADDAA199000691AY161061GF108991081061004501999999KA1999M+00391MD1510061+9999MW1511
0075107270999991929121806004+49017+008383FM-12+011899999V0200501N00101220001CN0010001N9-00111+99999103791ADDAA199000391AY161061GF101991011051004501001001KA1999N-00221MD1310201+9999
0064107270999991929121818004+49017+008383FM-12+011899999V0200901N00101220001CN0010001N9+00111+99999104021ADDAY111061GF101991011051008001999999KA1999M+00391MD1310061+9999
0050107270999991929121906004+49017+008383FM-12+011899999V0200501N00101220001CN0040001N9-00501+99999103881ADDAY101061GF100991001001999999001001KA1999N-00501
0064107270999991929121918004+49017+008383FM-12+011899999V0200901N00261220001CN0010001N9-00111+99999103241ADDAY101061GF100991001001999999001001KA1999M+00111MD1810141+9999
0064107270999991929122006004+49017+008383FM-12+011899999V0200901N002610360019N0020001N9-00391+99999102401ADDAY111061GF108991041051008001011999KA1999N-00501MD1810141+9999
0064107270999991929122018004+49017+008383FM-12+011899999V0201101N00101220001CN0010001N9-00281+99999102021ADDAY111061GF100991001001999999001001KA1999M+00111MD1990061+9999
0064107270999991929122106004+49017+008383FM-12+011899999V0201101N00101220001CN0100001N9-00721+99999101411ADDAY101061GF100991001001999999001001KA1999N-00891MD1810141+9999
0064107270999991929122118004+49017+008383FM-12+011899999V0200901N00101220001CN0010001N9-00391+99999100861ADDAY101061GF100991001001999999001001KA1999M+00001MD1810061+9999
0064107270999991929122206004+49017+008383FM-12+011899999V0200501N00101220001CN0020001N9-00501+99999100301ADDAY101061GF100991001001999999001001KA1999N-00891MD1990061+9999
0064107270999991929122218004+49017+008383FM-12+011899999V0202001N00101007801CN0010001N9-00391+99999100411ADDAY111061GF108991081051008001999999KA1999M-00281MD1310061+9999
0081107270999991929122306004+49017+008383FM-12+011899999V0200901N00101004501CN0005001N9-00221+99999100651ADDAA199000591AY171061GF108991081051004501999999KA1999N-00281MD1410001+9999MW1601
0075107270999991929122318004+49017+008383FM-12+011899999V0200901N00101220001CN0010001N9+00221+99999100461ADDAA199000591AY161061GF100991001001999999001001KA1999M+00391MD1990061+9999
0067107270999991929122406004+49017+008383FM-12+011899999V0202701N00671004501CN0010001N9+00501+99999099711ADDAA199006091AY161061GF108991081061004501999999KA1999N+00001MW1631
0075107270999991929122418004+49017+008383FM-12+011899999V0202501N00671220001CN0020001N9+00721+99999100571ADDAA199001091AY181061GF101991011061008001001001KA1999M+00781MD1310341+9999
0064107270999991929122506004+49017+008383FM-12+011899999V0201601N001010360019N0200001N9+00501+99999100541ADDAY111061GF106991041061008001031999KA1999N+00221MD1810201+9999
0075107270999991929122518004+49017+008383FM-12+011899999V0202301N00261007801CN0010001N9+00891+99999101061ADDAA199001091AY181061GF108991081061008001999999KA1999M+01001MD1110201+9999
0067107270999991929122606004+49017+008383FM-12+011899999V0202301N00261007801CN0100001N9+00611+99999101431ADDAA199006091AY161061GF108991081061008001999999KA1999N+00501MW1611
0061107270999991929122618004+49017+008383FM-12+011899999V0202701N00261007801CN0005001N9+00611+99999101871ADDAA199000591AY181061GF107991071051008001001001KA1999M+00781
0070107270999991929122706004+49017+008383FM-12+011899999V0209991C00001000151CN0000501N9+00111+99999102141ADDAY141061GF108991081051000251999999KA1999N+00111MD1410001+9999MW1441
0075107270999991929122718004+49017+008383FM-12+011899999V0201401N00101004501CN0010001N9+00501+99999101471ADDAA199000691AY181061GF108991081051004501999999KA1999M+00611MD1810201+9999
0061107270999991929122806004+49017+008383FM-12+011899999V0202501N00261007801CN0040001N9+00611+99999101191ADDAA199002091AY161061GF108991061061008001011999KA1999N+00281
0075107270999991929122818004+49017+008383FM-12+011899999V0202001N00101220001CN0005001N9+00391+99999101581ADDAA199000691AY181061GF102991021051008001001001KA1999M+00781MD1110061+9999
0075107270999991929122906004+49017+008383FM-12+011899999V0202301N00931007801CN0500001N9+01111+99999100831ADDAA199000391AY121061GF108991081051008001999999KA1999N+00391MD1810141+9999
0075107270999991929122918004+49017+008383FM-12+011899999V0202501N006719999999N0010001N9+00891+99999101631ADDAA199002091AY181061GF106991021051004501999999KA1999M+01501MD1210341+9999
0094107270999991929123006004+49017+008383FM-12+011899999V0202501N00671007801CN0200001N9+00721+99999102191ADDAA199001091AY181061GF108991061051008001999999KA1999N+99999MD1310201+9999EQDQ01 +01612ATMN  
0064107270999991929123018004+49017+008383FM-12+011899999V0202001N00101220001CN0005001N9+00721+99999101681ADDAY111061GF100991001001999999001001KA1999M+01001MD1810261+9999
0067107270999991929123106004+49017+008383FM-12+011899999V0202701N00461004501CN0010001N9+00501+99999101291ADDAA199008091AY161061GF108991081061004501999999KA1999N+00501MW1611
0075107270999991929123118004+49017+008383FM-12+011899999V0202301N00101220001CN0005001N9+00391+99999101991ADDAA199004091AY181061GF100991001001999999001001KA1999M+01001MD1310201+9999
