0037108100999991929052206004+48600+008200FM-12+035599999V0209999900261220001CN0200001N9+99999+99999999999ADDAY141061GF100991001001999999001001
0037108100999991929052306004+48600+008200FM-12+035599999V0209999900261220001CN0100001N9+99999+99999999999ADDAY101061GF100991001001999999001001
0037108100999991929052406004+48600+008200FM-12+035599999V0209999900671220001CN0200001N9+99999+99999999999ADDAY101061GF104991001001999999001021
0037108100999991929052506004+48600+008200FM-12+035599999V0209999900671220001CN0200001N9+99999+99999999999ADDAY141061GF100991001001999999001001
0037108100999991929053006004+48600+008200FM-12+035599999V02099999001019999999N0020001N9+99999+99999999999ADDAY111061GF106991999001022501031999
0037108100999991929060306004+48600+008200FM-12+035599999V02099999006719999999N0100001N9+99999+99999999999ADDAY111061GF106991021061012501999999
0043108100999991929060406004+48600+008200FM-12+035599999V0209999900671000151CN0000001N9+99999+99999999999ADDAY141061GF108991081061000251999999MW1651
0043108100999991929060506004+48600+008200FM-12+035599999V0209999900671000151CN0000001N9+99999+99999999999ADDAY141061GF108991081051000251999999MW1451
0043108100999991929060606004+48600+008200FM-12+035599999V0209999900931000151CN0000001N9+99999+99999999999ADDAY141061GF108991081999000251999999MW1651
0043108100999991929060706004+48600+008200FM-12+035599999V0209999900671000151CN0000001N9+99999+99999999999ADDAY161061GF108991081051000251999999MW1651
0043108100999991929060806004+48600+008200FM-12+035599999V0209999900671000151CN0000001N9+99999+99999999999ADDAY141061GF108991081051000251999999MW1451
0043108100999991929061006004+48600+008200FM-12+035599999V0209991C00001012301CN0005001N9+99999+99999999999ADDAY141061GF108991081061012501999999MW1451
0037108100999991929061106004+48600+008200FM-12+035599999V0209999900931220001CN0100001N9+99999+99999999999ADDAY111061GF106991001001999999001081
0037108100999991929061206004+48600+008200FM-12+035599999V02099999001019999999N0200001N9+99999+99999999999ADDAY141061GF108991041051017501999999
0037108100999991929061306004+48600+008200FM-12+035599999V0209999900671012301CN0200001N9+99999+99999999999ADDAY111061GF108991081061012501999999
0037108100999991929061406004+48600+008200FM-12+035599999V0209999900461220001CN0200001N9+99999+99999999999ADDAY101061GF100991001001999999001001
0037108100999991929061506004+48600+008200FM-12+035599999V0209999900461012301CN0200001N9+99999+99999999999ADDAY111061GF108991061061012501999999
0037108100999991929061806004+48600+008200FM-12+035599999V0209999900671220001CN0200001N9+99999+99999999999ADDAY101061GF102991001001999999001081
0037108100999991929061906004+48600+008200FM-12+035599999V0209999900671220001CN0500001N9+99999+99999999999ADDAY101061GF100991001001999999001001
0037108100999991929062006004+48600+008200FM-12+035599999V0209999900671220001CN0200001N9+99999+99999999999ADDAY101061GF100991001001999999001001
0043108100999991929062106004+48600+008200FM-12+035599999V0209999900461000151CN0010001N9+99999+99999999999ADDAY121061GF108991081051000251999999MW1101
0037108100999991929062206004+48600+008200FM-12+035599999V0209999900461220001CN0200001N9+99999+99999999999ADDAY121061GF108991001001999999021999
0037108100999991929062406004+48600+008200FM-12+035599999V0209999900671024001CN0100001N9+99999+99999999999ADDAY121061GF108991081051999999999999
0037108100999991929062506004+48600+008200FM-12+035599999V0209999900931220001CN0200001N9+99999+99999999999ADDAY101061GF104991999051022501999999
0043108100999991929062606004+48600+008200FM-12+035599999V0209999900671000601CN0000501N9+99999+99999999999ADDAY141061GF108991081051000751999999MW1451
0043108100999991929062706004+48600+008200FM-12+035599999V0209999900671004501CN0010001N9+99999+99999999999ADDAY121061GF108991081051004501999999MW1101
0037108100999991929062806004+48600+008200FM-12+035599999V0209999900461012301CN0100001N9+99999+99999999999ADDAY141061GF108991081051012501999999
0037108100999991929062906004+48600+008200FM-12+035599999V0209999900671220001CN0200001N9+99999+99999999999ADDAY101061GF100991001001999999001001
0043108100999991929070106004+48600+008200FM-12+035599999V0209999900671001501CN0002001N9+99999+99999999999ADDAY141061GF108991081051001501999999MW1451
0037108100999991929070206004+48600+008200FM-12+035599999V0209999900671004501CN0010001N9+99999+99999999999ADDAY121061GF108991081051004501999999
0037108100999991929070306004+48600+008200FM-12+035599999V02099999012319999999N0200001N9+99999+99999999999ADDAY121061GF108991041051001501999999
0037108100999991929070406004+48600+008200FM-12+035599999V02099999002619999999N0200001N9+99999+99999999999ADDAY111061GF106991041091022501999999
0037108100999991929070506004+48600+008200FM-12+035599999V0209999900461220001CN0100001N9+99999+99999999999ADDAY101061GF104991041061017501001001
0043108100999991929070606004+48600+008200FM-12+035599999V0209999900671000151CN0000501N9+99999+99999999999ADDAY161061GF108991081061000251999999MW1631
0043108100999991929070806004+48600+008200FM-12+035599999V0209999900671000151CN0000501N9+99999+99999999999ADDAY161061GF108991081061000251999999MW1651
0043108100999991929070906004+48600+008200FM-12+035599999V0209999900461002401CN0002001N9+99999+99999999999ADDAY141061GF108991081051002501999999MW1451
0037108100999991929071006004+48600+008200FM-12+035599999V0209999900461220001CN0100001N9+99999+99999999999ADDAY101061GF100991001001999999001001
0037108100999991929071106004+48600+008200FM-12+035599999V0209999900261220001CN0100001N9+99999+99999999999ADDAY101061GF100991001001999999001001
0037108100999991929071206004+48600+008200FM-12+035599999V0209999900461220001CN0100001N9+99999+99999999999ADDAY101061GF100991001001999999001001
0037108100999991929071306004+48600+008200FM-12+035599999V0209999900461220001CN0040001N9+99999+99999999999ADDAY141061GF104991001001999999001021
0037108100999991929071506004+48600+008200FM-12+035599999V0209999900671220001CN0200001N9+99999+99999999999ADDAY101061GF100991001001999999001001
0037108100999991929071606004+48600+008200FM-12+035599999V0209999900461220001CN0200001N9+99999+99999999999ADDAY101061GF100991001001999999001001
0037108100999991929071706004+48600+008200FM-12+035599999V0209999900261220001CN0100001N9+99999+99999999999ADDAY101061GF100991001001999999001001
0043108100999991929071806004+48600+008200FM-12+035599999V0209999900101002401CN0040001N9+99999+99999999999ADDAY121061GF108991081061002501999999MW1601
0037108100999991929071906004+48600+008200FM-12+035599999V0209999900261220001CN0100001N9+99999+99999999999ADDAY141061GF100991001001999999001001
0037108100999991929072206004+48600+008200FM-12+035599999V0209999900461220001CN0200001N9+99999+99999999999ADDAY101061GF100991001001999999001001
0037108100999991929072306004+48600+008200FM-12+035599999V0209999900461220001CN0100001N9+99999+99999999999ADDAY101061GF100991001001999999001001
0037108100999991929072506004+48600+008200FM-12+035599999V0209999900461220001CN0200001N9+99999+99999999999ADDAY101061GF104991001001999999001081
0043108100999991929072606004+48600+008200FM-12+035599999V0209991C00001000151CN0000001N9+99999+99999999999ADDAY141061GF108991081051000251999999MW1451
0037108100999991929072706004+48600+008200FM-12+035599999V0209999900931004501CN0100001N9+99999+99999999999ADDAY121061GF108991081051004501999999
0037108100999991929072906004+48600+008200FM-12+035599999V0209999900671012301CN0040001N9+99999+99999999999ADDAY141061GF108991081061012501999999
0043108100999991929073006004+48600+008200FM-12+035599999V0209999900461001501CN0002001N9+99999+99999999999ADDAY141061GF108991081051001501999999MW1431
0037108100999991929073106004+48600+008200FM-12+035599999V0209999901231007801CN0200001N9+99999+99999999999ADDAY121061GF108991081061008001999999
0037108100999991929080106004+48600+008200FM-12+035599999V0209999901901001501CN0200001N9+99999+99999999999ADDAY121061GF108991081051001501999999
0043108100999991929080206004+48600+008200FM-12+035599999V0209999900671000601CN0000501N9+99999+99999999999ADDAY141061GF108991081051000751999999MW1451
0037108100999991929080306004+48600+008200FM-12+035599999V0209991C00001220001CN0040001N9+99999+99999999999ADDAY141061GF100991001001999999001001
0037108100999991929080506004+48600+008200FM-12+035599999V0209999900671000601CN0040001N9+99999+99999999999ADDAY121061GF108991081051000751999999
0037108100999991929080606004+48600+008200FM-12+035599999V0209991C00001220001CN0200001N9+99999+99999999999ADDAY101061GF102991001001999999031999
0037108100999991929080706004+48600+008200FM-12+035599999V0209991C00001220001CN0100001N9+99999+99999999999ADDAY141061GF104991001001999999001081
0043108100999991929080806004+48600+008200FM-12+035599999V0209999900461000151CN0000001N9+99999+99999999999ADDAY141061GF108991081051000251999999MW1451
0037108100999991929080906004+48600+008200FM-12+035599999V0209999900671007801CN0040001N9+99999+99999999999ADDAY121061GF108991081051008001999999
0037108100999991929081006004+48600+008200FM-12+035599999V0209999900671012301CN0040001N9+99999+99999999999ADDAY121061GF108991081061012501999999
0037108100999991929081206004+48600+008200FM-12+035599999V0209999900671220001CN0040001N9+99999+99999999999ADDAY101061GF100991001001999999001001
0037108100999991929081306004+48600+008200FM-12+035599999V0209999900671220001CN0040001N9+99999+99999999999ADDAY101061GF104991041051022501001001
0037108100999991929081406004+48600+008200FM-12+035599999V0209999900261220001CN0100001N9+99999+99999999999ADDAY141061GF100991001001999999001001
0037108100999991929081506004+48600+008200FM-12+035599999V0209991C00001220001CN0040001N9+99999+99999999999ADDAY141061GF104991041011017501001001
0037108100999991929081606004+48600+008200FM-12+035599999V0209991C00001220001CN0020001N9+99999+99999999999ADDAY101061GF100991001001999999001001
0043108100999991929081706004+48600+008200FM-12+035599999V0209999900671007801CN0040001N9+99999+99999999999ADDAY161061GF108991081061008001999999MW1501
0043108100999991929081906004+48600+008200FM-12+035599999V0209999900671000151CN0000501N9+99999+99999999999ADDAY181061GF108991081051000251999999MW1631
0037108100999991929082006004+48600+008200FM-12+035599999V0209991C00001007801CN0040001N9+99999+99999999999ADDAY121061GF108991081061008001999999
0037108100999991929082106004+48600+008200FM-12+035599999V0209999900671015001CN0040001N9+99999+99999999999ADDAY121061GF108991081051017501999999
0037108100999991929082206004+48600+008200FM-12+035599999V0209991C00001220001CN0040001N9+99999+99999999999ADDAY141061GF100991001001999999001001
0043108100999991929082306004+48600+008200FM-12+035599999V0209991C00001000151CN0000001N9+99999+99999999999ADDAY141061GF108991081051000251999999MW1451
0043108100999991929082406004+48600+008200FM-12+035599999V0209999900261000151CN0000001N9+99999+99999999999ADDAY141061GF108991081051000251999999MW1451
0037108100999991929082606004+48600+008200FM-12+035599999V0209999900461220001CN0020001N9+99999+99999999999ADDAY101061GF104991001001017501999999
0037108100999991929082706004+48600+008200FM-12+035599999V0209999901231220001CN0040001N9+99999+99999999999ADDAY101061GF100991001001999999001001
0037108100999991929082806004+48600+008200FM-12+035599999V0209999900671220001CN0200001N9+99999+99999999999ADDAY141061GF102991001001999999001021
0037108100999991929082906004+48600+008200FM-12+035599999V0209999900261220001CN0100001N9+99999+99999999999ADDAY111061GF104991041051017501999999
0037108100999991929083006004+48600+008200FM-12+035599999V0209999900671220001CN0040001N9+99999+99999999999ADDAY111061GF104991001001017501999999
0037108100999991929083106004+48600+008200FM-12+035599999V0209999900261220001CN0100001N9+99999+99999999999ADDAY141061GF100991001001999999001001
0037108100999991929090206004+48600+008200FM-12+035599999V0209991C00001220001CN0100001N9+99999+99999999999ADDAY141061GF100991001001999999001001
0037108100999991929090306004+48600+008200FM-12+035599999V0209999900671220001CN0040001N9+99999+99999999999ADDAY141061GF100991001001999999001001
0037108100999991929090406004+48600+008200FM-12+035599999V0209991C00001220001CN0100001N9+99999+99999999999ADDAY141061GF100991001001999999001001
0037108100999991929090506004+48600+008200FM-12+035599999V0209999900461220001CN0040001N9+99999+99999999999ADDAY141061GF100991001001999999001001
0037108100999991929090606004+48600+008200FM-12+035599999V0209999900461220001CN0200001N9+99999+99999999999ADDAY101061GF100991001001999999001001
0043108100999991929090706004+48600+008200FM-12+035599999V02099999004619999999N0020001N9+99999+99999999999ADDAY101061GF107991011011017501999999MW1441
0037108100999991929090906004+48600+008200FM-12+035599999V0209999900671220001CN0100001N9+99999+99999999999ADDAY101061GF100991001001999999001001
0037108100999991929091006004+48600+008200FM-12+035599999V0209999900261220001CN0020001N9+99999+99999999999ADDAY141061GF101991999011999999999999
0037108100999991929091106004+48600+008200FM-12+035599999V0209999900261220001CN0040001N9+99999+99999999999ADDAY141061GF100991001001999999001001
0037108100999991929091206004+48600+008200FM-12+035599999V0209999900671220001CN0040001N9+99999+99999999999ADDAY141061GF104991041051017501001001
0037108100999991929091306004+48600+008200FM-12+035599999V0209999900261007801CN0100001N9+99999+99999999999ADDAY161061GF108991081051008001999999
0043108100999991929091406004+48600+008200FM-12+035599999V0209999900261000151CN0000501N9+99999+99999999999ADDAY161061GF108991081061000251999999MW1631
0043108100999991929091606004+48600+008200FM-12+035599999V0209999900931000151CN0002001N9+99999+99999999999ADDAY141061GF108991081051000251999999MW1431
0037108100999991929091706004+48600+008200FM-12+035599999V0209999900931220001CN0040001N9+99999+99999999999ADDAY141061GF100991001001999999001001
0037108100999991929091806004+48600+008200FM-12+035599999V0209991C00001220001CN0020001N9+99999+99999999999ADDAY141061GF106991001001999999021999
0043108100999991929092106004+48600+008200FM-12+035599999V0209999900931000151CN0000501N9+99999+99999999999ADDAY141061GF108991081051000251999999MW1451
0043108100999991929092306004+48600+008200FM-12+035599999V0209999900461004501CN0020001N9+99999+99999999999ADDAY161061GF108991081061004501999999MW1611
0043108100999991929092406004+48600+008200FM-12+035599999V0209999900461000601CN0000501N9+99999+99999999999ADDAY141061GF108991081051000751999999MW1451
0037108100999991929092506004+48600+008200FM-12+035599999V0209999901901220001CN0200001N9+99999+99999999999ADDAY101061GF100991001001999999001001
0037108100999991929092606004+48600+008200FM-12+035599999V0209999901901220001CN0200001N9+99999+99999999999ADDAY101061GF100991001001999999001001
0037108100999991929092706004+48600+008200FM-12+035599999V0209999900261220001CN0100001N9+99999+99999999999ADDAY101061GF101991001001999999001021
0037108100999991929092806004+48600+008200FM-12+035599999V0209999900671220001CN0040001N9+99999+99999999999ADDAY141061GF100991001001999999001001
0037108100999991929093006004+48600+008200FM-12+035599999V0209999900671220001CN0200001N9+99999+99999999999ADDAY111061GF104991001001999999021999
0037108100999991929100106004+48600+008200FM-12+035599999V0209999900671007801CN0200001N9+99999+99999999999ADDAY121061GF108991081051008001999999
0043108100999991929100206004+48600+008200FM-12+035599999V0209999900671000151CN0000501N9+99999+99999999999ADDAY141061GF108991081051000251999999MW1451
0037108100999991929100306004+48600+008200FM-12+035599999V0209999900671012301CN0100001N9+99999+99999999999ADDAY121061GF108991081051012501999999
0037108100999991929100406004+48600+008200FM-12+035599999V0209999901231007801CN0200001N9+99999+99999999999ADDAY111061GF106991061051008001001001
0037108100999991929100506004+48600+008200FM-12+035599999V0209999900461007801CN0200001N9+99999+99999999999ADDAY111061GF106991061051008001001001
0037108100999991929100706004+48600+008200FM-12+035599999V0209999900461220001CN0200001N9+99999+99999999999ADDAY101061GF104991041051017501001001
0037108100999991929100806004+48600+008200FM-12+035599999V0209999900671007801CN0100001N9+99999+99999999999ADDAY111061GF106991061051008001001001
0043108100999991929100906004+48600+008200FM-12+035599999V0209999900261000151CN0000501N9+99999+99999999999ADDAY141061GF108991081051000251999999MW1611
0043108100999991929101006004+48600+008200FM-12+035599999V0209999900461000151CN0005001N9+99999+99999999999ADDAY141061GF108991081051000251999999MW1451
0043108100999991929101106004+48600+008200FM-12+035599999V0209999901231000151CN0000501N9+99999+99999999999ADDAY141061GF108991081051000251999999MW1451
0043108100999991929101206004+48600+008200FM-12+035599999V0209999900261000151CN0000501N9+99999+99999999999ADDAY141061GF108991081051000251999999MW1501
0037108100999991929101406004+48600+008200FM-12+035599999V0209999900261220001CN0040001N9+99999+99999999999ADDAY101061GF100991001001999999001001
0037108100999991929101506004+48600+008200FM-12+035599999V0209999900261220001CN0040001N9+99999+99999999999ADDAY101061GF100991001001999999001001
0037108100999991929101606004+48600+008200FM-12+035599999V0209999900101220001CN0040001N9+99999+99999999999ADDAY101061GF100991001001999999001001
0037108100999991929101706004+48600+008200FM-12+035599999V0209999900461007801CN0040001N9+99999+99999999999ADDAY121061GF108991081051008001999999
0037108100999991929101806004+48600+008200FM-12+035599999V0209999900261012301CN0040001N9+99999+99999999999ADDAY121061GF108991081051012501999999
0043108100999991929101906004+48600+008200FM-12+035599999V0209999900671000151CN0000001N9+99999+99999999999ADDAY161061GF108991081051000251999999MW1451
0037108100999991929102106004+48600+008200FM-12+035599999V0209999900671220001CN0040001N9+99999+99999999999ADDAY101061GF100991001001999999001001
0037108100999991929102206004+48600+008200FM-12+035599999V0209999900461220001CN0100001N9+99999+99999999999ADDAY141061GF104991001001999999021999
0043108100999991929102306004+48600+008200FM-12+035599999V0209999900261000151CN0000001N9+99999+99999999999ADDAY141061GF108991081051000251999999MW1451
0037108100999991929102406004+48600+008200FM-12+035599999V0209991C000019999999N0040001N9+99999+99999999999ADDAY141061GF108991001001000251999999
0037108100999991929102506004+48600+008200FM-12+035599999V0209999900261220001CN0040001N9+99999+99999999999ADDAY111061GF106991001001999999021999
0037108100999991929102606004+48600+008200FM-12+035599999V0209999900261220001CN0040001N9+99999+99999999999ADDAY141061GF100991001001999999001001
0043108100999991929102806004+48600+008200FM-12+035599999V0209999900261007801CN0040001N9+99999+99999999999ADDAY141061GF108991081051008001999999MW1851
0043108100999991929102906004+48600+008200FM-12+035599999V0209999900671000601CN0000501N9+99999+99999999999ADDAY141061GF108991081061000751999999MW1631
0043108100999991929103006004+48600+008200FM-12+035599999V0209999900261004501CN0010001N9+99999+99999999999ADDAY161061GF108991081061004501999999MW1631
0043108100999991929103106004+48600+008200FM-12+035599999V0209999900261002401CN0005001N9+99999+99999999999ADDAY141061GF108991081051002501999999MW1451
0043108100999991929110106004+48600+008200FM-12+035599999V0209999900261000151CN0000001N9+99999+99999999999ADDAY141061GF108991081051000251999999MW1451
0043108100999991929122006004+48600+008200FM-12+035599999V0209999901231001501CN0002001N9+99999+99999999999ADDAY141061GF108991081051001501999999MW1451
0037108100999991929122106004+48600+008200FM-12+035599999V0209999900461220001CN0040001N9+99999+99999999999ADDAY101061GF100991001001999999001001
0043108100999991929122406004+48600+008200FM-12+035599999V0209999900461000601CN0000501N9+99999+99999999999ADDAY141061GF108991081061000751999999MW1451
