0057108560999991928111412004+48183+010867FM-12+016899999V0209991C00001000151CN0000501N9-00111-03281102271ADDAY151061GF109991091999000251999999MD1610061+9999MW1451
