0064108650999991929010106004+48183+011550FM-12+015599999V02099999001019999999N0040001N9-00221-00281101401ADDAY121061GF108991999001012501021001KA1999N-00391MD1310201+9999
0051108650999991929010112004+48183+011550FM-12+015599999V0200901N00461007801CN0040001N9-00221-00391101441ADDAY121061GF108991081051008001999999MD1810141+9999
0081108650999991929010206004+48183+011550FM-12+015599999V0209999900101001501CN0005001N9-00501-00561101181ADDAA199001091AY171061GF108991081061001501999999KA1999N-00611MD1810141+9999MW1711
0057108650999991929010212004+48183+011550FM-12+015599999V0200901N00101000601CN0005001N9-00501-00561101061ADDAY171061GF108991081061000751999999MD1990061+9999MW1731
0081108650999991929010306004+48183+011550FM-12+015599999V0209999900461002401CN0040001N9-00501-00561101791ADDAA199000691AY171061GF108991081051002501999999KA1999N-00611MD1310141+9999MW1231
0037108650999991929010312004+48183+011550FM-12+015599999V0200701N00461004501CN0040001N9-00391-00561101981ADDAY121061GF108991081051004501999999
0075108650999991929010406004+48183+011550FM-12+015599999V0209991C00001036001CN0020001N9-01001-01061102341ADDAA199004091AY121061GF107991041051008001021001KA1999N-01111MD1510001+9999
0051108650999991929010412004+48183+011550FM-12+015599999V0200501N00261220001CN0040001N9-00721-01061102061ADDAY111061GF104991999999022501999999MD1810141+9999
0070108650999991929010506004+48183+011550FM-12+015599999V0209991C00001001501CN0005001N9-00501-00561102301ADDAY141061GF108991081051001501999999KA1999N-00781MD1310061+9999MW1471
0051108650999991929010512004+48183+011550FM-12+015599999V0200701N00101004501CN0020001N9-00281-00331102171ADDAY141061GF108991081051004501999999MD1710141+9999
0064108650999991929010606004+48183+011550FM-12+015599999V0209999900671004501CN0020001N9-00501-00561102501ADDAY121061GF108991081051004501999999KA1999N-00611MD1310061+9999
0037108650999991929010612004+48183+011550FM-12+015599999V0200901N00461004501CN0020001N9-00501-00671102471ADDAY121061GF108991081051004501999999
0070108650999991929010706004+48183+011550FM-12+015599999V0209999900261001501CN0005001N9-00781-00831103061ADDAY141061GF108991081051001501999999KA1999N-00891MD1310061+9999MW1471
0057108650999991929010712004+48183+011550FM-12+015599999V0200501N00101000601CN0010001N9-00501-00561103151ADDAY141061GF108991081051000751999999MD1110061+9999MW1101
0070108650999991929010806004+48183+011550FM-12+015599999V0209999900101000151CN0000001N9-00611-00671103861ADDAY141061GF108991081051000251999999KA1999N-00721MD1310201+9999MW1451
0043108650999991929010812004+48183+011550FM-12+015599999V0200501N00101000151CN0002001N9-00611-00671104001ADDAY141061GF108991081051000251999999MW1431
0056108650999991929010906004+48183+011550FM-12+015599999V0209999900101000601CN0005001N9-00891-00941104421ADDAY141061GF108991081051000751999999KA1999N-01001MW1451
0051108650999991929010912004+48183+011550FM-12+015599999V0209991C00001000601CN0010001N9-00781-00831104371ADDAY141061GF108991081051000751999999MD1990061+9999
0056108650999991929011006004+48183+011550FM-12+015599999V0209991C00001000151CN0000501N9-01001-01061104151ADDAY141061GF108991081051000251999999KA1999N-01221MW1451
0031108650999991929011012004+48183+011550FM-12+015599999V0200701N002619999999N0010001N9-00781-00831103911ADDAY141061MD1610141+9999MW1101
0056108650999991929011106004+48183+011550FM-12+015599999V0209991C00001000151CN0000501N9-01721-01891103971ADDAY141061GF108991081051000251999999KA1999N-01891MW1451
0057108650999991929011112004+48183+011550FM-12+015599999V0200501N00101220001CN0005001N9-01221-01281103661ADDAY141061GF102991021051002501001001MD1610061+9999MW1441
0056108650999991929011206004+48183+011550FM-12+015599999V0209991C00001001501CN0002001N9-01611-01781104041ADDAY141061GF106991061051001501001001KA1999N-01891MW1421
0037108650999991929011212004+48183+011550FM-12+015599999V0209991C00001220001CN0010001N9-00781-00831103871ADDAY141061GF102991001001999999001081
0064108650999991929011306004+48183+011550FM-12+015599999V0209999900101220001CN0040001N9-00391-00441103601ADDAY101061GF102991001001999999001081KA1999N-01281MD1610141+9999
0051108650999991929011312004+48183+011550FM-12+015599999V0202501N00261220001CN0500001N9-00221-00561103061ADDAY101061GF101991001001999999001021MD1610141+9999
0050108650999991929011406004+48183+011550FM-12+015599999V02099999004619999999N0040001N9-00501-00671102261ADDAY121061GF108991999061008001001001KA1999N-01001
0057108650999991929011412004+48183+011550FM-12+015599999V0202701N00461002401CN0020001N9-00221-00391101901ADDAY171061GF108991081051002501999999MD1610141+9999MW1681
0075108650999991929011506004+48183+011550FM-12+015599999V0209999900261220001CN0020001N9-00891-00941101911ADDAA199001091AY101061GF104991021051012501031001KA1999N-01001MD1610061+9999
0051108650999991929011512004+48183+011550FM-12+015599999V0202501N00461012301CN0020001N9-00391-00561101271ADDAY111061GF108991081051012501999999MD1810261+9999
0081108650999991929011606004+48183+011550FM-12+015599999V0209999900671001501CN0010001N9-00281-00441099801ADDAA199003091AY171061GF108991081051001501999999KA1999N-00501MD1810341+9999MW1231
0070108650999991929011612004+48183+011550FM-12+015599999V0202701N01231220001CN0020001N9-00891-01391100521ADDAY111061GF104991999051008001001001MD1310602+9999EQDQ01+000602APC3  
0050108650999991929011706004+48183+011550FM-12+015599999V0202301N00461220001CN0040001N9-01391-01671101771ADDAY101061GF102991001001999999001081KA1999N-01891
0057108650999991929011712004+48183+011550FM-12+015599999V0202501N01231001501CN0020001N9-00721-00891101331ADDAY171061GF108991999051001501001001MD1810061+9999MW1231
0081108650999991929011806004+48183+011550FM-12+015599999V0209999900931001501CN0005001N9-00501-00561102311ADDAA199002091AY171061GF108991081061001501999999KA1999N-00721MD1310201+9999MW1751
0072108650999991929011812004+48183+011550FM-12+015599999V0200901N00461220001CN0200001N9+02502+01222102191ADDAY101061GF102991021011012501001001EQDQ01+029823ATOT  Q02+028543ATOD  
0067108650999991929011906004+48183+011550FM-12+015599999V0209999900931001501CN0020001N9-00111-00171102971ADDAA199000691AY171061GF108991081061001501999999KA1999N-01001MW1711
0051108650999991929011912004+48183+011550FM-12+015599999V0202501N00931007801CN0500001N9+00221-00171102991ADDAY111061GF108991061051008001021001MD1010001+9999
0064108650999991929012006004+48183+011550FM-12+015599999V0209999900101220001CN0500001N9-00611-00671103501ADDAY101061GF101991999001999999031001KA1999N-00611MD1810061+9999
0051108650999991929012012004+48183+011550FM-12+015599999V0200501N00101220001CN0100001N9+00391-00391103171ADDAY101061GF100991001001999999001001MD1610061+9999
0070108650999991929012106004+48183+011550FM-12+015599999V0209991C00001000151CN0000501N9-00611-00671103331ADDAY141061GF108991081051000251999999KA1999N-01001MD1310061+9999MW1451
0043108650999991929012112004+48183+011550FM-12+015599999V0200701N00101000151CN0002001N9-00391-00441103321ADDAY141061GF108991081051000251999999MW1451
0081108650999991929012206004+48183+011550FM-12+015599999V0209999900101001501CN0005001N9-00721-00781103011ADDAA199000691AY171061GF108991081051001501999999KA1999N-01111MD1610061+9999MW1711
0057108650999991929012212004+48183+011550FM-12+015599999V0201801N00101001501CN0005001N9+00001-00061102661ADDAY161061GF108991081061001501999999MD1810061+9999MW1681
0081108650999991929012306004+48183+011550FM-12+015599999V0209991C00001001501CN0002001N9+00111+00061102381ADDAA199001091AY141061GF108991081051001501999999KA1999N+00001MD1810061+9999MW1451
0057108650999991929012312004+48183+011550FM-12+015599999V0203401N00261000601CN0005001N9+00221+00171102161ADDAY141061GF108991999051000751001001MD1810141+9999MW1421
0081108650999991929012406004+48183+011550FM-12+015599999V0209991C00001000601CN0002001N9+00001-00061101711ADDAA199003091AY171061GF108991081061000751999999KA1999N-00111MD1810141+9999MW1731
0057108650999991929012412004+48183+011550FM-12+015599999V0209991C00001000601CN0010001N9-00111-01671101601ADDAY171061GF108991081061000751999999MD1810061+9999MW1731
0067108650999991929012506004+48183+011550FM-12+015599999V0209991C00001000151CN0000501N9-00501-00561101501ADDAA199002091AY141061GF108991081051000251999999KA1999N-00611MW1451
0057108650999991929012512004+48183+011550FM-12+015599999V0200501N00101001501CN0010001N9-00611-00781101401ADDAY171061GF108991081061001501999999MD1810061+9999MW1711
0067108650999991929012606004+48183+011550FM-12+015599999V0209999900461001501CN0005001N9-00891-01061101641ADDAA199003091AY171061GF108991081061001501999999KA1999N-01281MW1731
0057108650999991929012612004+48183+011550FM-12+015599999V0202701N00261001501CN0005001N9-00721-00891101411ADDAY171061GF108991081061001501999999MD1990061+9999MW1711
0075108650999991929012706004+48183+011550FM-12+015599999V0202301N00261002401CN0020001N9-01001-01171101771ADDAA199000391AY121061GF108991081051002501999999KA1999N-01501MD1310061+9999
0051108650999991929012712004+48183+011550FM-12+015599999V0202501N00461007801CN0020001N9-00721-01061101791ADDAY121061GF108991081051008001999999MD1310061+9999
0064108650999991929012806004+48183+011550FM-12+015599999V0209999900461004501CN0020001N9-00891-01221102521ADDAY121061GF108991081051004501999999KA1999N-01111MD1310141+9999
0051108650999991929012812004+48183+011550FM-12+015599999V0202501N00461220001CN0040001N9-00611-01111102701ADDAY141061GF104991021011012501031001MD1310201+9999
0056108650999991929012906004+48183+011550FM-12+015599999V0209991C00001220001CN0005001N9-02281-02561103911ADDAY141061GF102991999001022501021001KA1999N-02501MW1471
0037108650999991929012912004+48183+011550FM-12+015599999V0200201N00101220001CN0020001N9-01281-01611103501ADDAY141061GF102991001001999999001081
0070108650999991929013006004+48183+011550FM-12+015599999V0209991C00001220001CN0002001N9-02391-02561104021ADDAY141061GF102991001001999999001081KA1999N-02611MD1410001+9999MW1441
0057108650999991929013012004+48183+011550FM-12+015599999V0209991C00001220001CN0010001N9-01281-01441103531ADDAY141061GF100991001001999999001001MD1510001+9999MW1101
0056108650999991929020106004+48183+011550FM-12+015599999V0209999900101220001CN0005001N9-01501-01561103031ADDAY101061GF100991001001999999001001KA1999N-01721MW1421
0037108650999991929020112004+48183+011550FM-12+015599999V0200701N00261220001CN0040001N9-00391-00891102671ADDAY101061GF100991001001999999001001
0056108650999991929020206004+48183+011550FM-12+015599999V0209999900101220001CN0010001N9-01781-01941103261ADDAY141061GF100991001001999999001001KA1999N-01781MW1101
0037108650999991929020212004+48183+011550FM-12+015599999V0200501N00261220001CN0040001N9-01111+99999102911ADDAY101061GF100991001001999999999999
0064108650999991929020306004+48183+011550FM-12+015599999V0209999900261220001CN0500001N9-02221-02391103011ADDAY101061GF100991001001999999001001KA1999N-02391MD1610061+9999
0037108650999991929020312004+48183+011550FM-12+015599999V0200701N00461220001CN0200001N9-01111-01781102671ADDAY101061GF100991001001999999001001
0056108650999991929020406004+48183+011550FM-12+015599999V0209999900101220001CN0010001N9-02221-02391102971ADDAY141061GF101991001001999999001081KA1999N-02391MW1101
0051108650999991929020412004+48183+011550FM-12+015599999V0202701N00101220001CN0020001N9-01111-01561102691ADDAY101061GF100991001001999999001001MD1310141+9999
0056108650999991929020506004+48183+011550FM-12+015599999V0209991C00001220001CN0005001N9-01611-01671103001ADDAY141061GF102991999001017501021001KA1999N-02111MW1441
0037108650999991929020512004+48183+011550FM-12+015599999V0209991C00001220001CN0010001N9-00281-00941102511ADDAY141061GF106991001001999999001081
0064108650999991929020606004+48183+011550FM-12+015599999V0209999900461012301CN0040001N9-00501-00831102501ADDAY111061GF107991061051012501021001KA1999N-01221MD1990061+9999
0057108650999991929020612004+48183+011550FM-12+015599999V0202501N00461001501CN0010001N9-00221-00281102481ADDAY171061GF108991081061001501999999MD1310061+9999MW1711
0081108650999991929020706004+48183+011550FM-12+015599999V0209999900261001501CN0010001N9-00611-00671102951ADDAA199000691AY141061GF108991081051001501999999KA1999N-00611MD1310141+9999MW1101
0057108650999991929020712004+48183+011550FM-12+015599999V0200701N00261220001CN0010001N9-00391-00891103061ADDAY141061GF100991001001999999001001MD1310201+9999MW1101
0067108650999991929020806004+48183+011550FM-12+015599999V0209999900101000151CN0002001N9-01611-01781103541ADDAA199000691AY171061GF108991081051000251999999KA1999N-02001MW1701
0051108650999991929020812004+48183+011550FM-12+015599999V0200201N00101220001CN0010001N9-01111-01281103151ADDAY141061GF104991999999022501999999MD1810141+9999
0070108650999991929020906004+48183+011550FM-12+015599999V0209999900101000151CN0000501N9-01611-01781102971ADDAY141061GF106991061051000251001001KA1999N-02001MD1610061+9999MW1461
0051108650999991929020912004+48183+011550FM-12+015599999V0202701N00101220001CN0010001N9-00611-01111102551ADDAY141061GF100991001001999999001001MD1810061+9999
0070108650999991929021006004+48183+011550FM-12+015599999V0209991C00001220001CN0002001N9-02111-02281102401ADDAY141061GF102991999001999999031001KA1999N-02221MD1810141+9999MW1441
0070108650999991929021012004+48183+011550FM-12+015599999V0200901N00101220001CN0100001N9-01891-02331101602ADDAY141061GF102991999001999999031001MD1610061+9999EQDQ01+101603APOSLP
0069108650999991929021106004+48183+011550FM-12+015599999V0209999900101220001CN0020001N9-02721-03001102331ADDAY101061GF101991011051012501001001KA1999N+99999EQDQ01 -02612ATMN  
0037108650999991929021112004+48183+011550FM-12+015599999V0200901N00461220001CN0040001N9-01891-02501102071ADDAY101061GF100991001001999999001001
0070108650999991929021206004+48183+011550FM-12+015599999V0209999900101220001CN0010001N9-03001-03281102061ADDAY101061GF101991011051012501001001KA1999N-03111MD1610201+9999MW1101
0051108650999991929021212004+48183+011550FM-12+015599999V0200901N00461220001CN0040001N9-01781-02221101351ADDAY141061GF100991001001999999001001MD1810141+9999
0081108650999991929021306004+48183+011550FM-12+015599999V0209999900101002401CN0020001N9-02221-02501101431ADDAA199003091AY121061GF108991081061002501999999KA1999N-02221MD1010001+9999MW1701
0057108650999991929021312004+48183+011550FM-12+015599999V0202901N00101002401CN0020001N9-01891-02171101461ADDAY171061GF107991999051002501001001MD1010001+9999MW1701
0061108650999991929021406004+48183+011550FM-12+015599999V0209999900261004501CN0020001N9-02111-02281101541ADDAA199002091AY121061GF108991081051004501999999KA1999N-02391
0051108650999991929021412004+48183+011550FM-12+015599999V0202701N00461220001CN0040001N9-01611-02061101501ADDAY141061GF104991001001999999031081MD1310061+9999
0056108650999991929021506004+48183+011550FM-12+015599999V0209999900101036001CN0005001N9-02781-02941102121ADDAY141061GF106991041051001501031001KA1999N-03111MW1471
0051108650999991929021512004+48183+011550FM-12+015599999V0200701N00261004501CN0010001N9-01391-01831101511ADDAY141061GF108991081051004501999999MD1810061+9999
0056108650999991929021606004+48183+011550FM-12+015599999V0209999900101220001CN0002001N9-01781-01831101431ADDAY141061GF101991999001999999031001KA1999N-02221MW1421
0037108650999991929021612004+48183+011550FM-12+015599999V0200701N00101220001CN0040001N9-00781-01281101191ADDAY141061GF101991999001999999021001
0070108650999991929021706004+48183+011550FM-12+015599999V0209991C00001220001CN0002001N9-02001-02171102081ADDAY141061GF102991001001999999001081KA1999N-02221MD1310141+9999MW1421
0051108650999991929021712004+48183+011550FM-12+015599999V0209991C00001220001CN0010001N9-00781-01441101971ADDAY141061GF104991001001999999001081MD1310141+9999
0070108650999991929021806004+48183+011550FM-12+015599999V0209991C00001000601CN0005001N9-01781-01941102901ADDAY141061GF108991999051000751001001KA1999N-02221MD1310061+9999MW1421
0051108650999991929021812004+48183+011550FM-12+015599999V0209991C00001001501CN0010001N9-01001-01171102751ADDAY141061GF108991081051001501999999MD1110061+9999
0064108650999991929021906004+48183+011550FM-12+015599999V0209999900101002401CN0010001N9-00721-00891102661ADDAY141061GF108991081051002501999999KA1999N-01111MD1410001+9999
0037108650999991929021912004+48183+011550FM-12+015599999V0209991C00001004501CN0010001N9-00391-00721102641ADDAY141061GF107991071051004501001001
0081108650999991929022006004+48183+011550FM-12+015599999V0209991C00001000601CN0005001N9-00721-00781103261ADDAA199000691AY141061GF108991081051000751999999KA1999N-00891MD1310061+9999MW1471
0043108650999991929022012004+48183+011550FM-12+015599999V0200701N00101001501CN0010001N9-00501-00671103301ADDAY141061GF108991081051001501999999MW1101
0070108650999991929022106004+48183+011550FM-12+015599999V0209991C00001000151CN0000501N9-01221-01281104031ADDAY141061GF108991081051000251999999KA1999N-01281MD1110141+9999MW1451
0051108650999991929022112004+48183+011550FM-12+015599999V0200701N00261220001CN0020001N9-00781-01111103861ADDAY141061GF100991001001999999001001MD1990061+9999
0070108650999991929022206004+48183+011550FM-12+015599999V0209991C00001220001CN0002001N9-02391-02561103601ADDAY141061GF106991999001999999031001KA1999N-02391MD1810061+9999MW1421
0086108650999991929022212004+48183+011550FM-12+015599999V0203601N00101220001CN0020001N9-00612-01281102792ADDAY141061GF104991001001999999001021MD1990141+9999EQDQ01+026713ATOT  Q02+102793APOSLP
0064108650999991929022306004+48183+011550FM-12+015599999V0209999900101220001CN0010001N9-01001-01331102041ADDAY101061GF104991001001999999031021KA1999N-01501MD1610141+9999
0051108650999991929022312004+48183+011550FM-12+015599999V0202501N00101220001CN0100001N9+00501-00501101391ADDAY101061GF101991999001999999021001MD1810141+9999
0081108650999991929022406004+48183+011550FM-12+015599999V0209999900101036001CN0020001N9+00111-00111100841ADDAA199000691AY171061GF107991021061012501021001KA1999N+00001MD1810061+9999MW1231
0051108650999991929022412004+48183+011550FM-12+015599999V0200501N00101220001CN0040001N9+00891-00221100561ADDAY101061GF106991001001999999031081MD1990141+9999
0081108650999991929022506004+48183+011550FM-12+015599999V0209999900261036001CN0040001N9+00221+00171100771ADDAA199002091AY161061GF108991041061008001021001KA1999N-00221MD1310061+9999MW1211
0051108650999991929022512004+48183+011550FM-12+015599999V0202301N00101036001CN0040001N9+00781+00171100661ADDAY121061GF106991041051012501031001MD1010061+9999
0081108650999991929022606004+48183+011550FM-12+015599999V0209999900261004501CN0020001N9+00281+00221101311ADDAA199001091AY161061GF108991081061004501999999KA1999N+00221MD1310061+9999MW1611
0037108650999991929022612004+48183+011550FM-12+015599999V0202301N00261012301CN0040001N9+00391+00171101301ADDAY161061GF108991061051012501021001
0057108650999991929022712004+48183+011550FM-12+015599999V0209991C00001000601CN0005001N9+00281+00061100641ADDAY141061GF108991999051000751001001MD1710141+9999MW1441
0081108650999991929022806004+48183+011550FM-12+015599999V0209999900261000601CN0020001N9-01221-01391102611ADDAA199008091AY171061GF108991081061000751999999KA1999N-01221MD1310341+9999MW1711
0057108650999991929022812004+48183+011550FM-12+015599999V0203401N00101002401CN0020001N9-00891-01221103091ADDAY171061GF108991081061002501999999MD1310201+9999MW1711
0061108650999991929030106004+48183+011550FM-12+015599999V0209999900261220001CN0040001N9-01611-01781104101ADDAA199000691AY101061GF101991001001999999001081KA1999N-01611
0037108650999991929030112004+48183+011550FM-12+015599999V0200901N00931220001CN0200001N9-00781-01281103901ADDAY101061GF101991011011008001001001
0064108650999991929030206004+48183+011550FM-12+015599999V0209999900461220001CN0020001N9-01391-01561103761ADDAY101061GF100991001001999999001001KA1999N-01391MD1610061+9999
0051108650999991929030212004+48183+011550FM-12+015599999V0200901N00671220001CN0040001N9-00611-01281103391ADDAY101061GF100991001001999999001001MD1610061+9999
0064108650999991929030306004+48183+011550FM-12+015599999V0209999900101220001CN0020001N9-01781-01941103351ADDAY101061GF104991999001999999021001KA1999N-01891MD1510001+9999
0051108650999991929030312004+48183+011550FM-12+015599999V0203401N00101220001CN0040001N9-00611-01111102831ADDAY101061GF100991001001999999001001MD1810141+9999
0081108650999991929030406004+48183+011550FM-12+015599999V0209999900461001501CN0010001N9-00221-00281101761ADDAA199000691AY171061GF108991081061001501999999KA1999N-00891MD1610061+9999MW1711
0057108650999991929030412004+48183+011550FM-12+015599999V0202701N00461004501CN0020001N9-00111-00281101631ADDAY171061GF108991081061004501999999MD1810061+9999MW1701
0081108650999991929030506004+48183+011550FM-12+015599999V0209991C00001000151CN0000501N9-00281-00331101641ADDAA199000691AY141061GF108991081051000251999999KA1999N-00281MD1410001+9999MW1701
0037108650999991929030512004+48183+011550FM-12+015599999V0203601N00101004501CN0020001N9-00111-00441101551ADDAY141061GF107991071051004501001001
0050108650999991929030606004+48183+011550FM-12+015599999V0209999900461220001CN0020001N9-00611-00941101911ADDAY111061GF107991001001999999021081KA1999N-01111
0051108650999991929030612004+48183+011550FM-12+015599999V0202701N00931012301CN0040001N9+00001-00501101811ADDAY121061GF107991071051012501001001MD1010001+9999
0081108650999991929030706004+48183+011550FM-12+015599999V0209999900671002401CN0020001N9+00001-00221102711ADDAA199000691AY121061GF108991081051002501999999KA1999N-00111MD1210141+9999MW1701
0057108650999991929030712004+48183+011550FM-12+015599999V0202701N00461004501CN0020001N9+00111+00061102991ADDAY121061GF108991081061004501999999MD1310141+9999MW1701
0064108650999991929030806004+48183+011550FM-12+015599999V0209999900101220001CN0020001N9-00501-00561103151ADDAY101061GF102991999001999999031001KA1999N-00721MD1510001+9999
0051108650999991929030812004+48183+011550FM-12+015599999V0202901N00461220001CN0100001N9+00391-00171102871ADDAY101061GF104991001001999999001021MD1510061+9999
0064108650999991929030906004+48183+011550FM-12+015599999V0209999900671220001CN0500001N9+00281-00281102671ADDAY111061GF104991001001999999021081KA1999N+00001MD1410001+9999
0037108650999991929030912004+48183+011550FM-12+015599999V0202701N00671220001CN0500001N9+00891-00221102401ADDAY101061GF104991001001999999031091
0064108650999991929031006004+48183+011550FM-12+015599999V0209999900101220001CN0200001N9+00001-00221102471ADDAY101061GF101991001001999999001021KA1999N-00111MD1510001+9999
0051108650999991929031012004+48183+011550FM-12+015599999V0203401N00101220001CN0100001N9+00781-00061102211ADDAY111061GF106991999001999999021001MD1810061+9999
0051108650999991929031112004+48183+011550FM-12+015599999V0203601N00261007801CN0020001N9+00611+00001101971ADDAY121061GF108991061051008001021001MD1410001+9999
0081108650999991929031206004+48183+011550FM-12+015599999V0209999900101000601CN0005001N9+00111+00061102601ADDAA199003091AY141061GF108991081051000751999999KA1999N-00221MD1310141+9999MW1431
0057108650999991929031212004+48183+011550FM-12+015599999V0200901N00101000601CN0005001N9+00111+00061102771ADDAY141061GF108991081051000751999999MD1310061+9999MW1451
0070108650999991929031306004+48183+011550FM-12+015599999V0209991C00001000151CN0002001N9-00111-00171103061ADDAY141061GF108991081051000251999999KA1999N-00221MD1310061+9999MW1431
0056108650999991929031406004+48183+011550FM-12+015599999V0209991C00001000151CN0000501N9-00221-00281103091ADDAY141061GF108991081051000251999999KA1999N-00281MW1451
0057108650999991929031412004+48183+011550FM-12+015599999V0200901N00101001501CN0000501N9+00221+00001102861ADDAY141061GF108991081051001501999999MD1810141+9999MW1431
0056108650999991929031506004+48183+011550FM-12+015599999V0209999900101000151CN0002001N9-00221-00281102831ADDAY141061GF108991081051000251999999KA1999N-00281MW1451
0043108650999991929031512004+48183+011550FM-12+015599999V0200901N00101001501CN0010001N9+00001-00061102841ADDAY141061GF108991081051001501999999MW1101
0050108650999991929031606004+48183+011550FM-12+015599999V02099999001019999999N0020001N9+00001-00221103101ADDAY121061GF106991999051004501001001KA1999N-00111
0051108650999991929031612004+48183+011550FM-12+015599999V0200901N00671220001CN0200001N9+00611-00171102911ADDAY111061GF104991041051012501001001MD1610061+9999
0064108650999991929031706004+48183+011550FM-12+015599999V0209999900101220001CN0200001N9-00391-00721103201ADDAY101061GF100991001001999999001001KA1999N-00501MD1210061+9999
0051108650999991929031712004+48183+011550FM-12+015599999V0200901N00261220001CN0200001N9+00611-00171102881ADDAY101061GF100991001001999999001001MD1990061+9999
0050108650999991929031806004+48183+011550FM-12+015599999V0209999900101220001CN0040001N9-00391-00441103111ADDAY101061GF100991001001999999001001KA1999N-00611
0051108650999991929031812004+48183+011550FM-12+015599999V0200901N00101220001CN0100001N9+01001+00111102641ADDAY101061GF100991001001999999001001MD1810061+9999
0050108650999991929031906004+48183+011550FM-12+015599999V0209991C00001220001CN0010001N9-00281-00331102831ADDAY141061GF100991001001999999001001KA1999N-00611
0037108650999991929031912004+48183+011550FM-12+015599999V0203601N00101220001CN0200001N9+01221+00061102501ADDAY101061GF101991001001999999001021
0064108650999991929032006004+48183+011550FM-12+015599999V0209999900101220001CN0040001N9+00281-00111102691ADDAY111061GF104991999001999999031001KA1999N+00001MD1310061+9999
0051108650999991929032012004+48183+011550FM-12+015599999V0202901N00931220001CN0200001N9+01611+00441102311ADDAY111061GF104991021011017501001081MD1810061+9999
0050108650999991929032106004+48183+011550FM-12+015599999V0209991C00001015001CN0010001N9+00501+00281102611ADDAY111061GF107991071051017501001001KA1999N+00281
0051108650999991929032112004+48183+011550FM-12+015599999V0202701N00261220001CN0200001N9+01501+00331102341ADDAY111061GF104991021091022501001021MD1990141+9999
0064108650999991929032206004+48183+011550FM-12+015599999V0209991C00001036001CN0020001N9+00501+00111102461ADDAY111061GF107991041051017501031001KA1999N+00221MD1610061+9999
0051108650999991929032212004+48183+011550FM-12+015599999V0209991C00001015001CN0100001N9+01391+00221102131ADDAY111061GF107991061051017501031001MD1810061+9999
0050108650999991929032306004+48183+011550FM-12+015599999V0209999900101220001CN0020001N9+00221+00171102371ADDAY101061GF104991041011017501001001KA1999N+00001
0051108650999991929032312004+48183+011550FM-12+015599999V0202701N00101220001CN0100001N9+01501+00331101981ADDAY101061GF104991041011012501001001MD1810061+9999
0081108650999991929032406004+48183+011550FM-12+015599999V0209999900101001501CN0010001N9+00611+00561102631ADDAA199004091AY161061GF108991081061001501999999KA1999N+00611MD1310141+9999MW1511
0037108650999991929032412004+48183+011550FM-12+015599999V0203601N001019999999N0040001N9+00891+00441102661ADDAY121061GF108991999061004501001001
0056108650999991929032506004+48183+011550FM-12+015599999V0209991C00001000151CN0000501N9+00221+00171102911ADDAY141061GF108991081051000251999999KA1999N-00221MW1471
0051108650999991929032512004+48183+011550FM-12+015599999V0200501N00101036001CN0040001N9+00891+00441102791ADDAY111061GF106991041051008001021001MD1110061+9999
0056108650999991929032606004+48183+011550FM-12+015599999V0209991C00001012301CN0005001N9+00001-00061103171ADDAY141061GF107991071051012501001001KA1999N-00221MW1441
0037108650999991929032612004+48183+011550FM-12+015599999V0200501N00261090001CN0040001N9+01111+00221102911ADDAY111061GF106991041011012501001081
0064108650999991929032706004+48183+011550FM-12+015599999V0209999900101036001CN0020001N9+00111-00111103101ADDAY111061GF106991041051017501031001KA1999N-00221MD1410001+9999
0051108650999991929032712004+48183+011550FM-12+015599999V0203601N00261036001CN0100001N9+01221+00331102731ADDAY111061GF107991021091012501031001MD1810141+9999
0037108650999991929032812004+48183+011550FM-12+015599999V0200201N001019999999N0040001N9+00721+00501102821ADDAY121061GF108991999061002501001001
0075108650999991929032906004+48183+011550FM-12+015599999V0209999900101220001CN0040001N9+00001-00061103041ADDAA199000691AY141061GF106991001001999999001021KA1999N-00281MD1610061+9999
0051108650999991929032912004+48183+011550FM-12+015599999V0202901N00461220001CN0100001N9+01111+00501102731ADDAY121061GF104991001001999999001081MD1610141+9999
0064108650999991929033006004+48183+011550FM-12+015599999V0209999900461036001CN0040001N9+00391+00331102631ADDAY111061GF106991021051022501031001KA1999N+00281MD1410001+9999
0051108650999991929033012004+48183+011550FM-12+015599999V0203201N00931004501CN0100001N9+01001+00391102351ADDAY111061GF106991061051004501001001MD1810061+9999
0050108650999991929033106004+48183+011550FM-12+015599999V0209999900671004501CN0040001N9+00611+00221102301ADDAY121061GF108991081051004501999999KA1999N+00501
0051108650999991929033112004+48183+011550FM-12+015599999V0202901N01231036001CN0200001N9+01221+00331101511ADDAY121061GF108991041051008001021001MD1810401+9999
0075108650999991929040106004+48183+011550FM-12+015599999V0209999900931015001CN0200001N9+00281-00111101671ADDAA199001091AY121061GF107991061051017501021001KA1999N+00221MD1610061+9999
0051108650999991929040112004+48183+011550FM-12+015599999V0202701N01541021001CN0200001N9+00781-00061101131ADDAY111061GF107991061051022501031001MD1810201+9999
0061108650999991929040206004+48183+011550FM-12+015599999V0209999901541002401CN0200001N9+00111-00111100191ADDAA199002091AY121061GF108991071061002501021001KA1999N-00111
0057108650999991929040212004+48183+011550FM-12+015599999V0202701N01541000601CN0005001N9+00111+00061100591ADDAY171061GF108991081061000751999999MD1210341+9999MW1861
0081108650999991929040306004+48183+011550FM-12+015599999V0209999901231000601CN0005001N9-00111-00171100931ADDAA199000591AY171061GF108991081061000751999999KA1999N-00111MD1610061+9999MW1731
0043108650999991929040312004+48183+011550FM-12+015599999V0202901N01541001501CN0002001N9+00111-00111100911ADDAY171061GF108991081061001501999999MW1841
0075108650999991929040406004+48183+011550FM-12+015599999V0209999900101007801CN0040001N9-00501-00671101541ADDAA199002091AY111061GF107991071051008001001001KA1999N-00611MD1310141+9999
0051108650999991929040412004+48183+011550FM-12+015599999V0202901N00461090001CN0100001N9-00111-00831101391ADDAY111061GF106991041011004501001021MD1610061+9999
0075108650999991929040506004+48183+011550FM-12+015599999V0209999900931220001CN0040001N9-00111-00611100971ADDAA199000391AY121061GF107991999001999999021001KA1999N-00391MD1810141+9999
0057108650999991929040512004+48183+011550FM-12+015599999V0202301N01541001501CN0020001N9+00111-00221100441ADDAY171061GF108991081061001501999999MD1810261+9999MW1851
0081108650999991929040606004+48183+011550FM-12+015599999V0209999900101090001CN0020001N9-00721-00891101831ADDAA199003091AY171061GF106991041061002501001081KA1999N-00781MD1310461+9999MW1231
0051108650999991929040612004+48183+011550FM-12+015599999V0203601N00461220001CN0100001N9-00221-00941102241ADDAY111061GF104991041011012501001001MD1310201+9999
0064108650999991929040706004+48183+011550FM-12+015599999V0209999900671004501CN0040001N9-00391-00561102671ADDAY121061GF108991081051004501999999KA1999N-01001MD1410001+9999
0051108650999991929040712004+48183+011550FM-12+015599999V0202301N01541004501CN0040001N9+00111-00441102391ADDAY121061GF108991081051004501999999MD1990141+9999
0067108650999991929040806004+48183+011550FM-12+015599999V0209999900671001501CN0020001N9+00111+00061102311ADDAA199001091AY171061GF108991081061001501999999KA1999N+00001MW1681
0051108650999991929040812004+48183+011550FM-12+015599999V0202701N006719999999N0040001N9+00501+00111102231ADDAY121061GF108991999061004501001001MD1010001+9999
0070108650999991929040906004+48183+011550FM-12+015599999V0209991C00001220001CN0010001N9+00111+00061101931ADDAY141061GF104991999001999999031001KA1999N-00221MD1810061+9999MW1101
0051108650999991929040912004+48183+011550FM-12+015599999V0200501N00671220001CN0200001N9+01111+00221101401ADDAY111061GF104991001001999999021021MD1810141+9999
0081108650999991929041006004+48183+011550FM-12+015599999V02099999004619999999N0040001N9+00391+00331101541ADDAA199010091AY181061GF108991999061004501001001KA1999N+00281MD1110201+9999MW1211
0037108650999991929041012004+48183+011550FM-12+015599999V0202301N001019999999N0040001N9+00781+00391101581ADDAY111061GF107991999061004501001001
0067108650999991929041106004+48183+011550FM-12+015599999V0209999900461002401CN0020001N9+00221+00171101571ADDAA199001091AY171061GF108991999061002501001001KA1999N+00001MW1611
0037108650999991929041112004+48183+011550FM-12+015599999V0200501N00101004501CN0040001N9+00721+00111101491ADDAY111061GF107991071051004501001001
0064108650999991929041206004+48183+011550FM-12+015599999V0209999900461036001CN0020001N9+00501+00281101301ADDAY111061GF106991041051004501021001KA1999N+00281MD1610141+9999
0037108650999991929041212004+48183+011550FM-12+015599999V0200701N00461012301CN0500001N9+01721+00501100961ADDAY111061GF106991061051012501031001
0064108650999991929041306004+48183+011550FM-12+015599999V0209999900461004501CN0100001N9+00501+00281101661ADDAY121061GF108991061051004501021001KA1999N+00221MD1310141+9999
0057108650999991929041312004+48183+011550FM-12+015599999V0202901N00461004501CN0040001N9+00781+00171101601ADDAY121061GF108991999061004501001001MD1410001+9999MW1611
0061108650999991929041406004+48183+011550FM-12+015599999V0209999900101220001CN0040001N9+00221+00001101841ADDAA199000391AY101061GF100991001001999999001001KA1999N-00111
0037108650999991929041412004+48183+011550FM-12+015599999V0203401N00101220001CN0200001N9+01111+00001101431ADDAY111061GF104991041011012501031001
0075108650999991929041506004+48183+011550FM-12+015599999V0209999900461002401CN0010001N9+00281+00221100971ADDAA199000591AY121061GF108991061061002501021001KA1999N+00221MD1610061+9999
0057108650999991929041512004+48183+011550FM-12+015599999V0200601N00101001501CN0040001N9+00611+00391101041ADDAY161061GF108991081061001501999999MD1310061+9999MW1631
0075108650999991929041606004+48183+011550FM-12+015599999V0209991C00001001501CN0010001N9+00391+00331101321ADDAA199000591AY121061GF108991081051001501999999KA1999N+00221MD1310061+9999
0057108650999991929041612004+48183+011550FM-12+015599999V0200501N00261004501CN0100001N9+00781+00391101571ADDAY181061GF107991071061004501001001MD1310141+9999MW1801
0075108650999991929041706004+48183+011550FM-12+015599999V0209999900261220001CN0100001N9+00281-00111102801ADDAA199000691AY101061GF100991001001999999001001KA1999N-00221MD1310201+9999
0051108650999991929041712004+48183+011550FM-12+015599999V0200701N00461220001CN0200001N9+01001-00111102881ADDAY101061GF101991011011012501001001MD1310141+9999
0050108650999991929041806004+48183+011550FM-12+015599999V0209991C00001220001CN0040001N9+00221-00171103351ADDAY101061GF100991001001999999001001KA1999N-00391
0051108650999991929041812004+48183+011550FM-12+015599999V0200701N00461220001CN0500001N9+01611+00061102821ADDAY101061GF101991001001999999001081MD1990061+9999
0050108650999991929041906004+48183+011550FM-12+015599999V0209999900261220001CN0020001N9+00781+00171102711ADDAY101061GF100991001001999999001001KA1999N+00111
0051108650999991929041912004+48183+011550FM-12+015599999V0202501N00671220001CN0500001N9+01891+00331102151ADDAY101061GF102991001001999999001081MD1810141+9999
0064108650999991929042006004+48183+011550FM-12+015599999V0209999900671220001CN0500001N9+01221+00331101431ADDAY101061GF104991001001999999001081KA1999N+00391MD1810061+9999
0051108650999991929042012004+48183+011550FM-12+015599999V0202501N01541220001CN0500001N9+01781+00221101331ADDAY111061GF106991001001999999001081MD1810141+9999
0067108650999991929042106004+48183+011550FM-12+015599999V0209999900101001501CN0010001N9+00111+00061101791ADDAA199001091AY171061GF108991081061001501999999KA1999N+00001MW1711
0057108650999991929042112004+48183+011550FM-12+015599999V0209991C000019999999N0040001N9+00391-00171101731ADDAY171061GF106991999091008001001001MD1990061+9999MW1231
0064108650999991929042206004+48183+011550FM-12+015599999V0209999900671220001CN0100001N9+00111-00221101601ADDAY101061GF104991001001999999031081KA1999N-00391MD1410001+9999
0051108650999991929042212004+48183+011550FM-12+015599999V0200701N01541007801CN0100001N9+00721-00111101191ADDAY111061GF107991071051008001001001MD1810141+9999
0050108650999991929042306004+48183+011550FM-12+015599999V0209999900101012301CN0040001N9+00111-00441100911ADDAY121061GF108991081051012501999999KA1999N-00111
0037108650999991929042312004+48183+011550FM-12+015599999V0202701N00461090001CN0100001N9+00721-00111100841ADDAY111061GF106991041011012501001081
0050108650999991929042406004+48183+011550FM-12+015599999V0209999900461220001CN0100001N9+00221-00171101361ADDAY111061GF104991001001999999001081KA1999N-00221
0037108650999991929042412004+48183+011550FM-12+015599999V0202701N006719999999N0100001N9+01001-00111101111ADDAY111061GF106991999051012501001001
0081108650999991929042506004+48183+011550FM-12+015599999V0209999900931036001CN0100001N9+00501-00111101401ADDAA199000691AY111061GF108991041061008001021001KA1999N+00221MD1410001+9999MW1161
0057108650999991929042512004+48183+011550FM-12+015599999V0202501N00461001501CN0005001N9+00111+00061101831ADDAY171061GF108991081061001501999999MD1310141+9999MW1731
0067108650999991929042606004+48183+011550FM-12+015599999V0209999900261036001CN0020001N9+00281+00221101571ADDAA199000691AY161061GF108991041061004501021001KA1999N+00001MW1211
0051108650999991929042612004+48183+011550FM-12+015599999V0202901N00261036001CN0040001N9+00781-00061101191ADDAY111061GF107991041051012501021001MD1810141+9999
0067108650999991929042706004+48183+011550FM-12+015599999V02099999002619999999N0040001N9+00391+00171101101ADDAA199000691AY181061GF108991999061004501001001KA1999N+00221MW1211
0051108650999991929042712004+48183+011550FM-12+015599999V0202701N00461220001CN0500001N9+01221+00331100701ADDAY111061GF104991041091012501021001MD1810061+9999
0064108650999991929042806004+48183+011550FM-12+015599999V0209999900101220001CN0020001N9+00611+00391100911ADDAY101061GF102991999001022501021021KA1999N+00001MD1410001+9999
0051108650999991929042812004+48183+011550FM-12+015599999V0202001N00261220001CN0200001N9+01781+00561999999ADDAY101061GF104991021011012501001021MD1810141+9999
0051108650999991929042912004+48183+011550FM-12+015599999V0201801N00671220001CN0500001N9+02221+00611099511ADDAY101061GF104991041011017501001001MD1810141+9999
0064108650999991929043006004+48183+011550FM-12+015599999V0209999900461220001CN0040001N9+01111+00671100231ADDAY111061GF104991999001017501021001KA1999N+00501MD1810141+9999
0037108650999991929043012004+48183+011550FM-12+015599999V0202701N01541007801CN0500001N9+01501+00331099841ADDAY191061GF108991071091008001021001
0064108650999991929050106004+48183+011550FM-12+015599999V0209999900461220001CN0500001N9+01001+00781100951ADDAY111061GF104991011051012501031001KA1999N+00501MD1310141+9999
0057108650999991929050112004+48183+011550FM-12+015599999V0201101N00261036001CN0040001N9+01111+00671100821ADDAY191061GF107991021091004501021001MD1990141+9999MW1291
0075108650999991929050206004+48183+011550FM-12+015599999V0209999900261220001CN0200001N9+00781+00561101181ADDAA199000691AY181061GF104991999001999999031001KA1999N+00501MD1310061+9999
0051108650999991929050212004+48183+011550FM-12+015599999V0201801N00261012301CN0500001N9+01501+00331100911ADDAY111061GF106991061051012501001001MD1810061+9999
0075108650999991929050306004+48183+011550FM-12+015599999V0209999900261036001CN0040001N9+00781+00721100921ADDAA199000691AY111061GF106991041051008001021001KA1999N+00221MD1310201+9999
0051108650999991929050312004+48183+011550FM-12+015599999V0200901N00261090001CN0200001N9+01721+00501100601ADDAY111061GF106991011011017501001081MD1990141+9999
0081108650999991929050406004+48183+011550FM-12+015599999V0209999900671007801CN0040001N9+00721+00671101661ADDAA199000691AY181061GF108991081061008001999999KA1999N+00611MD1310261+9999MW1601
0057108650999991929050412004+48183+011550FM-12+015599999V0202701N00461002401CN0040001N9+00721+00671102131ADDAY161061GF108991061061002501021001MD1310401+9999MW1601
0051108650999991929050512004+48183+011550FM-12+015599999V0202701N00461220001CN0500001N9+01891+00331101711ADDAY101061GF102991001001999999001081MD1810141+9999
0051108650999991929050612004+48183+011550FM-12+015599999V0201401N00101220001CN0500001N9+02391+00281100701ADDAY101061GF102991001001999999001081MD1810201+9999
0064108650999991929050706004+48183+011550FM-12+015599999V0209999900261012301CN0100001N9+01111+00891101401ADDAY111061GF108991061051012501021001KA1999N+00221MD1110401+9999
0037108650999991929050712004+48183+011550FM-12+015599999V0202901N004619999999N0200001N9+01501+99999101371ADDAY121061GF106991999999012501999999
0075108650999991929050806004+48183+011550FM-12+015599999V0209999900101220001CN0040001N9+01221+01001101791ADDAA199002091AY101061GF100991001001999999001001KA1999N+00721MD1310061+9999
0051108650999991929050812004+48183+011550FM-12+015599999V0200901N00461090001CN0200001N9+02111+01171101221ADDAY111061GF106991041011012501001081MD1810201+9999
0050108650999991929050906004+48183+011550FM-12+015599999V0209999900671220001CN0500001N9+01221+00781101201ADDAY101061GF106991999001999999031001KA1999N+00611
0037108650999991929050912004+48183+011550FM-12+015599999V0202701N006719999999N0200001N9+01721+99999101321ADDAY111061GF106991999999012501999999
0061108650999991929051006004+48183+011550FM-12+015599999V0209999900261004501CN0040001N9+00781+00721102261ADDAA199000691AY161061GF108991081051004501999999KA1999N+00721
0051108650999991929051012004+48183+011550FM-12+015599999V0203601N00101036001CN0100001N9+01111+00501102211ADDAY121061GF108991041051008001021001MD1990061+9999
0075108650999991929051106004+48183+011550FM-12+015599999V0209999900101004501CN0020001N9+00891+00831102241ADDAA199000691AY121061GF108991081051004501999999KA1999N+00721MD1410001+9999
0037108650999991929051112004+48183+011550FM-12+015599999V0203601N00101007801CN0040001N9+01391+00941102131ADDAY121061GF108991081051008001999999
0081108650999991929051206004+48183+011550FM-12+015599999V0209999900101000151CN0005001N9+01111+01061101801ADDAA199000691AY141061GF108991081051000251999999KA1999N+01001MD1610061+9999MW1511
0057108650999991929051212004+48183+011550FM-12+015599999V0209991C00001002401CN0020001N9+01391+01171101571ADDAY121061GF108991999061002501001001MD1610061+9999MW1601
0064108650999991929051306004+48183+011550FM-12+015599999V0209999900261220001CN0200001N9+01221+00781101711ADDAY111061GF104991021051004501031001KA1999N+01111MD1310201+9999
0051108650999991929051312004+48183+011550FM-12+015599999V0202701N00461012301CN0040001N9+01501+00831101841ADDAY121061GF108991061051012501021001MD1110061+9999
0050108650999991929051406004+48183+011550FM-12+015599999V0209999900101220001CN0020001N9+01281+00831101841ADDAY111061GF104991999001022501031001KA1999N+00891
0051108650999991929051412004+48183+011550FM-12+015599999V0200901N00261012301CN0100001N9+02001+00781101401ADDAY111061GF107991061051012501031001MD1810141+9999
0067108650999991929051506004+48183+011550FM-12+015599999V0209999900261036001CN0040001N9+01001+00941101861ADDAA199001091AY161061GF108991041061012501021001KA1999N+00891MW1601
0067108650999991929051606004+48183+011550FM-12+015599999V0209999900261004501CN0020001N9+00781+00721101841ADDAA199006091AY161061GF108991061061004501021001KA1999N+00721MW1631
0043108650999991929051612004+48183+011550FM-12+015599999V0202501N00101004501CN0040001N9+01221+00781101711ADDAY161061GF108991061061004501021001MW1601
0067108650999991929051706004+48183+011550FM-12+015599999V02099999002619999999N0020001N9+00891+00831101721ADDAA199002091AY161061GF108991999061002501001001KA1999N+00721MW1211
0043108650999991929051712004+48183+011550FM-12+015599999V0200901N002619999999N0020001N9+01001+00941101661ADDAY181061GF108991999091002501001001MW1811
0067108650999991929051806004+48183+011550FM-12+015599999V02099999001019999999N0020001N9+00891+00831101661ADDAA199001091AY161061GF108991999061008001001001KA1999N+00781MW1611
0057108650999991929051812004+48183+011550FM-12+015599999V0203601N00101007801CN0100001N9+01111+00671101441ADDAY161061GF108991071061008001021001MD1810061+9999MW1601
0067108650999991929051906004+48183+011550FM-12+015599999V0209991C00001000151CN0000501N9+00611+00561101491ADDAA199000691AY141061GF108991081051000251999999KA1999N+00281MW1451
0037108650999991929051912004+48183+011550FM-12+015599999V0200501N001019999999N0100001N9+01111+00891101401ADDAY121061GF108991999061008001001001
0075108650999991929052006004+48183+011550FM-12+015599999V0209999900461004501CN0040001N9+00721+00501101871ADDAA199000691AY121061GF108991081051004501999999KA1999N+00611MD1310061+9999
0037108650999991929052012004+48183+011550FM-12+015599999V0200701N00261007801CN0100001N9+01111+00671101811ADDAY121061GF108991061061008001021001
0050108650999991929052106004+48183+011550FM-12+015599999V0209991C00001007801CN0020001N9+01001+00941101791ADDAY121061GF107991061051008001021001KA1999N+00611
0037108650999991929052112004+48183+011550FM-12+015599999V0200501N00101036001CN0100001N9+01501+00831101711ADDAY111061GF107991041051012501031001
0056108650999991929052206004+48183+011550FM-12+015599999V0209991C00001220001CN0010001N9+00891+00831101901ADDAY141061GF102991021051000751001001KA1999N+00391MW1101
0051108650999991929052212004+48183+011550FM-12+015599999V0200701N00101220001CN0200001N9+02001+00781101601ADDAY101061GF104991041011012501021001MD1610061+9999
0050108650999991929052306004+48183+011550FM-12+015599999V0209999900101220001CN0010001N9+01001+00941101681ADDAY141061GF104991041051000251999999KA1999N+00001
0051108650999991929052312004+48183+011550FM-12+015599999V0200701N00461220001CN0100001N9+02111+01171101271ADDAY101061GF104991021051017501001081MD1990061+9999
0050108650999991929052406004+48183+011550FM-12+015599999V0209999900101220001CN0100001N9+01611+00941101391ADDAY101061GF100991001001999999001001KA1999N+00721
0037108650999991929052412004+48183+011550FM-12+015599999V0203201N00101220001CN0500001N9+02391+01111101311ADDAY101061GF101991011011017501001001
0064108650999991929052506004+48183+011550FM-12+015599999V0209999900101220001CN0040001N9+01721+01281101801ADDAY101061GF104991001001999999001081KA1999N+00721MD1310141+9999
0051108650999991929052512004+48183+011550FM-12+015599999V0209991C00001220001CN0100001N9+02611+01331101591ADDAY101061GF104991041091004501001001MD1810061+9999
0064108650999991929052606004+48183+011550FM-12+015599999V0209999900101220001CN0040001N9+01721+01281101511ADDAY101061GF100991001001999999001001KA1999N+01001MD1410001+9999
0051108650999991929052612004+48183+011550FM-12+015599999V0200901N00461220001CN0100001N9+02611+01331101141ADDAY101061GF102991001001999999001021MD1810141+9999
0064108650999991929052706004+48183+011550FM-12+015599999V0209991C00001220001CN0020001N9+01611+01331101231ADDAY101061GF102991001001999999001081KA1999N+01111MD1110061+9999
0037108650999991929052712004+48183+011550FM-12+015599999V0200701N00101220001CN0100001N9+02611+01331101011ADDAY101061GF104991021011017501001021
0064108650999991929052806004+48183+011550FM-12+015599999V0209999900261220001CN0100001N9+01721+01281101541ADDAY101061GF102991011011022501021001KA1999N+01001MD1310141+9999
0037108650999991929052812004+48183+011550FM-12+015599999V0202901N00261220001CN0200001N9+02501+01221101361ADDAY101061GF104991041011017501001081
0061108650999991929052906004+48183+011550FM-12+015599999V0209999900101220001CN0040001N9+01501+01441101911ADDAA199005091AY181061GF107991999001999999031001KA1999N+01281
0051108650999991929052912004+48183+011550FM-12+015599999V0203401N00101036001CN0100001N9+02111+01441101731ADDAY111061GF106991041051008001031001MD1810061+9999
0050108650999991929053006004+48183+011550FM-12+015599999V0209999900101036001CN0100001N9+01501+01281101931ADDAY111061GF107991041061008001021001KA1999N+01281
0037108650999991929053012004+48183+011550FM-12+015599999V0200501N00101007801CN0200001N9+02001+01331101801ADDAY111061GF106991061051008001031001
0064108650999991929053106004+48183+011550FM-12+015599999V0209991C00001220001CN0020001N9+01111+00891101761ADDAY101061GF102991021051002501001001KA1999N+00611MD1810141+9999
0070108650999991929053112004+48183+011550FM-12+015599999V0200901N00101220001CN0200001N9+02892+01891101461ADDAY101061GF101991011011017501001001MD1710141+9999EQDQ01+030213ATOT  
0064108650999991929060106004+48183+011550FM-12+015599999V0209999900101220001CN0200001N9+01221+00781101771ADDAY101061GF102991021011017501031001KA1999N+00781MD1310141+9999
0051108650999991929060112004+48183+011550FM-12+015599999V0203201N00261012301CN0100001N9+01721+01061101801ADDAY111061GF106991061011012501001001MD1310061+9999
0064108650999991929060206004+48183+011550FM-12+015599999V0209999900261220001CN0200001N9+01281+00611102151ADDAY101061GF101991001001999999001021KA1999N+00501MD1110061+9999
0051108650999991929060212004+48183+011550FM-12+015599999V0202701N00931090001CN0200001N9+02111+00501101791ADDAY111061GF106991011011017501001021MD1810141+9999
0061108650999991929060306004+48183+011550FM-12+015599999V0209999900671012301CN0100001N9+01611+00941101661ADDAA199000591AY101061GF106991061051012501031001KA1999N+01221
0051108650999991929060312004+48183+011550FM-12+015599999V0202701N00931036001CN0200001N9+02391+01111101241ADDAY111061GF106991021011017501021001MD1810141+9999
0075108650999991929060406004+48183+011550FM-12+015599999V0209999901541036001CN0200001N9+01611+01171100731ADDAA199000691AY111061GF107991041061017501031001KA1999N+01391MD1710061+9999
0043108650999991929060412004+48183+011550FM-12+015599999V0202901N00261004501CN0040001N9+01221+01171100821ADDAY181061GF108991999061004501001001MW1631
0081108650999991929060506004+48183+011550FM-12+015599999V0209999900261002401CN0040001N9+00891+00831100951ADDAA199007091AY161061GF108991081061002501999999KA1999N+00781MD1310141+9999MW1631
0043108650999991929060512004+48183+011550FM-12+015599999V0202901N006719999999N0100001N9+01281+00611100921ADDAY181061GF106991999061012501001001MW1211
0081108650999991929060606004+48183+011550FM-12+015599999V0209999900261001501CN0020001N9+00891+00831100241ADDAA199008091AY161061GF108991999061001501001001KA1999N+00781MD1610141+9999MW1631
0057108650999991929060612004+48183+011550FM-12+015599999V0202501N009319999999N0500001N9+01391+01171100301ADDAY181061GF107991999061002501001001MD1310141+9999MW1161
0075108650999991929060706004+48183+011550FM-12+015599999V0209999900671012301CN0100001N9+01611+01171100661ADDAA199002091AY101061GF108991061061012501021001KA1999N+01221MD1310141+9999
0057108650999991929060712004+48183+011550FM-12+015599999V0202501N009319999999N0100001N9+01721+01501101061ADDAY181061GF108991999061004501001001MD1310201+9999MW1601
0075108650999991929060806004+48183+011550FM-12+015599999V0209999900101036001CN0100001N9+01721+01501101581ADDAA199003091AY111061GF106991041051008001031001KA1999N+01391MD1310201+9999
0051108650999991929060812004+48183+011550FM-12+015599999V0209991C00001220001CN0200001N9+02391+01721101471ADDAY111061GF104991021011022501001021MD1990061+9999
0081108650999991929060906004+48183+011550FM-12+015599999V0209999900461001501CN0020001N9+01891+01831101791ADDAA199007091AY161061GF108991081061001501999999KA1999N+01281MD1310201+9999MW1651
0051108650999991929060912004+48183+011550FM-12+015599999V0202701N00671036001CN0500001N9+02111+01441101701ADDAY111061GF107991041051012501031001MD1310061+9999
0075108650999991929061006004+48183+011550FM-12+015599999V0209991C00001036001CN0040001N9+01721+01671101731ADDAA199000691AY111061GF106991021061012501031001KA1999N+01391MD1610061+9999
0057108650999991929061012004+48183+011550FM-12+015599999V0203601N00261004501CN0100001N9+01891+01441101861ADDAY181061GF107991999061004501001001MD1310061+9999MW1601
0075108650999991929061106004+48183+011550FM-12+015599999V0209999900261004501CN0040001N9+01501+01281102661ADDAA199000591AY121061GF107991061051004501031001KA1999N+01391MD1310201+9999
0051108650999991929061112004+48183+011550FM-12+015599999V0200901N00261220001CN0100001N9+02221+01281102501ADDAY101061GF102991021011008001001001MD1810061+9999
0050108650999991929061206004+48183+011550FM-12+015599999V0209999900261220001CN0040001N9+01611+01171102291ADDAY101061GF101991001001999999001081KA1999N+01001
0051108650999991929061212004+48183+011550FM-12+015599999V0200901N00101220001CN0200001N9+02501+01561101841ADDAY101061GF106991001001999999001021MD1810141+9999
0081108650999991929061306004+48183+011550FM-12+015599999V0209999900101036001CN0100001N9+01611+01561102031ADDAA199001091AY181061GF108991021061012501021001KA1999N+01281MD1110201+9999MW1211
0057108650999991929061312004+48183+011550FM-12+015599999V0202501N00101036001CN0200001N9+02001+01331102071ADDAY111061GF107991041091008001031001MD1810061+9999MW1161
0061108650999991929061406004+48183+011550FM-12+015599999V0209999900101220001CN0100001N9+01721+01281102241ADDAA199004091AY101061GF101991999001999999031001KA1999N+01111
0051108650999991929061412004+48183+011550FM-12+015599999V0200701N00101220001CN0500001N9+02391+01111101731ADDAY101061GF102991021011022501001001MD1710261+9999
0081108650999991929061506004+48183+011550FM-12+015599999V0209999900261002401CN0040001N9+01501+01441102151ADDAA199006091AY161061GF108991071061002501021001KA1999N+01391MD1310141+9999MW1631
0043108650999991929061512004+48183+011550FM-12+015599999V0203201N00101007801CN0040001N9+01611+01171102191ADDAY121061GF108991061061008001021001MW1161
0050108650999991929061606004+48183+011550FM-12+015599999V0209999900101220001CN0100001N9+01721+01061102231ADDAY111061GF106991999001999999031001KA1999N+01281
0051108650999991929061612004+48183+011550FM-12+015599999V0200901N00101220001CN0200001N9+02221+01281101991ADDAY101061GF104991041011012501001001MD1810061+9999
0051108650999991929061706004+48183+011550FM-12+015599999V0209991C00001220001CN0100001N9+01781+01331102341ADDAY111061GF101991999001999999031001MD1310061+9999
0037108650999991929061712004+48183+011550FM-12+015599999V0209991C000019999999N0200001N9+02221+01281102211ADDAY111061GF107991999999022501999999
0050108650999991929061806004+48183+011550FM-12+015599999V0209999900101220001CN0040001N9+01721+01501102391ADDAY101061GF101991011011012501001001KA1999N+01111
0050108650999991929061906004+48183+011550FM-12+015599999V0209991C00001220001CN0040001N9+01611+01171102391ADDAY101061GF100991001001999999001001KA1999N+00891
0051108650999991929061912004+48183+011550FM-12+015599999V0203601N00461220001CN0200001N9+02391+01111102071ADDAY101061GF101991011011017501001001MD1810061+9999
0051108650999991929062012004+48183+011550FM-12+015599999V0202701N00101220001CN0100001N9+02611+00941102001ADDAY101061GF102991999999022501999999MD1810061+9999
0050108650999991929062106004+48183+011550FM-12+015599999V0209999900461220001CN0100001N9+01891+01441101991ADDAY101061GF104991021051022501031001KA1999N+01391
0051108650999991929062112004+48183+011550FM-12+015599999V0202701N004619999999N0040001N9+01781+01561102001ADDAY121061GF108991999091004501001001MD1410001+9999
0050108650999991929062206004+48183+011550FM-12+015599999V0209991C00001220001CN0100001N9+01111+00671102561ADDAY101061GF101991999001999999021001KA1999N+00001
0051108650999991929062212004+48183+011550FM-12+015599999V0203601N00101036001CN0200001N9+01781+00561102151ADDAY111061GF106991041011017501031001MD1810141+9999
0075108650999991929062306004+48183+011550FM-12+015599999V0209999900261007801CN0100001N9+01391+00941101701ADDAA199000691AY181061GF108991061051008001031001KA1999N+01111MD1990061+9999
0051108650999991929062312004+48183+011550FM-12+015599999V0202701N00931012301CN0200001N9+01721+01061101401ADDAY121061GF108991061051012501021001MD1710061+9999
0081108650999991929062406004+48183+011550FM-12+015599999V0209999900261002401CN0040001N9+00781+00721101491ADDAA199010091AY161061GF108991081061002501999999KA1999N+00781MD1110061+9999MW1631
0051108650999991929062412004+48183+011550FM-12+015599999V0202501N00461004501CN0100001N9+01391+01171101071ADDAY121061GF108991061061004501021001MD1810141+9999
0081108650999991929062506004+48183+011550FM-12+015599999V0209999900461002401CN0040001N9+00721+00671101321ADDAA199004091AY161061GF108991081061002501999999KA1999N+00721MD1210061+9999MW1611
0051108650999991929062512004+48183+011550FM-12+015599999V0202501N00931007801CN0200001N9+01501+00611101101ADDAY111061GF106991061051008001001001MD1810061+9999
0075108650999991929062606004+48183+011550FM-12+015599999V02099999001019999999N0040001N9+01001+00941101441ADDAA199000591AY161061GF108991999061008001001001KA1999N+00891MD1410001+9999
0037108650999991929062612004+48183+011550FM-12+015599999V0203401N001019999999N0100001N9+01501+00611101321ADDAY111061GF107991999091008001001001
0056108650999991929062706004+48183+011550FM-12+015599999V0209999900261004501CN0040001N9+01111+00891101471ADDAY111061GF107991999061004501001001KA1999N+00781MW1161
0064108650999991929062806004+48183+011550FM-12+015599999V02099999001019999999N0040001N9+01001+00781102071ADDAY111061GF108991999051004501001001KA1999N+00721MD1310061+9999
0037108650999991929062812004+48183+011550FM-12+015599999V0203601N00461012301CN0200001N9+01611+00441101981ADDAY111061GF108991081051012501999999
0050108650999991929062906004+48183+011550FM-12+015599999V0209999900101220001CN0100001N9+01391+00721102081ADDAY101061GF100991001001999999001001KA1999N+00501
0051108650999991929062912004+48183+011550FM-12+015599999V0200701N00101220001CN0200001N9+02111+00891101721ADDAY101061GF101991001001999999001081MD1810141+9999
0057108650999991929063006004+48183+011550FM-12+015599999V0209999900261004501CN0040001N9+01391+01331101241ADDAY161061GF108991061061004501021001MD1410001+9999MW1631
0051108650999991929063012004+48183+011550FM-12+015599999V0202701N00671036001CN0500001N9+02001+01331100871ADDAY111061GF106991041061004501031001MD1810141+9999
0075108650999991929070106004+48183+011550FM-12+015599999V0209999900461036001CN0500001N9+01611+01171100991ADDAA199000391AY111061GF108991041051012501031001KA1999N+01221MD1610061+9999
0057108650999991929070112004+48183+011550FM-12+015599999V0201801N006719999999N0200001N9+01721+01281101031ADDAY111061GF107991999091004501001001MD1990061+9999MW1161
0064108650999991929070206004+48183+011550FM-12+015599999V0209999900461220001CN0200001N9+01611+01171101411ADDAY101061GF102991021011012501031001KA1999N+01111MD1310061+9999
0051108650999991929070212004+48183+011550FM-12+015599999V0202901N00261220001CN0500001N9+02111+01171101241ADDAY111061GF104991041011012501001001MD1810061+9999
0070108650999991929070306004+48183+011550FM-12+015599999V0209999900101090001CN0100001N9+01781+01331101301ADDAY111061GF107991041061008001001091KA1999N+01221MD1210061+9999MW1161
0051108650999991929070312004+48183+011550FM-12+015599999V0200501N00101220001CN0200001N9+02721+01721101031ADDAY101061GF100991001001999999001001MD1810061+9999
0064108650999991929070406004+48183+011550FM-12+015599999V0209999900261220001CN0200001N9+02111+01671101131ADDAY101061GF100991001001999999001001KA1999N+01391MD1210141+9999
0051108650999991929070412004+48183+011550FM-12+015599999V0203601N00261220001CN0010001N9+02891+02611100821ADDAY101061GF101991011011017501001001MD1810141+9999
0075108650999991929070506004+48183+011550FM-12+015599999V0209999900101021001CN0100001N9+01781+01111102211ADDAA199000591AY111061GF106991061061022501031001KA1999N+01221MD1310141+9999
0051108650999991929070512004+48183+011550FM-12+015599999V0200201N001019999999N0200001N9+02281+01061102071ADDAY111061GF106991041999017501999999MD1810141+9999
0075108650999991929070606004+48183+011550FM-12+015599999V0209999900261036001CN0100001N9+01781+01721101501ADDAA199000391AY111061GF106991041051017501031001KA1999N+01501MD1710201+9999
0051108650999991929070612004+48183+011550FM-12+015599999V0203401N009319999999N0100001N9+01611+01331101221ADDAY111061GF108991999061004501001001MD1510061+9999
0061108650999991929070706004+48183+011550FM-12+015599999V02099999009319999999N0200001N9+01221+00781101601ADDAA199012091AY111061GF107991999061008001001001KA1999N+00891
0075108650999991929070806004+48183+011550FM-12+015599999V0209999900461004501CN0100001N9+01111+00891101901ADDAA199002091AY121061GF108991061051004501021001KA1999N+00891MD1310061+9999
0037108650999991929070812004+48183+011550FM-12+015599999V0202901N004619999999N0100001N9+01501+00611101831ADDAY181061GF106991999061008001001001
0081108650999991929070906004+48183+011550FM-12+015599999V02099999004619999999N0100001N9+01001+00941102501ADDAA199000691AY161061GF107991999061004501001001KA1999N+00781MD1310061+9999MW1211
0051108650999991929070912004+48183+011550FM-12+015599999V0202901N004619999999N0100001N9+01281+00391102521ADDAY111061GF107991999061004501001001MD1310061+9999
0050108650999991929071006004+48183+011550FM-12+015599999V0209999900101220001CN0020001N9+01221+00781102911ADDAY141061GF100991001001999999001001KA1999N+00391
0037108650999991929071012004+48183+011550FM-12+015599999V0200501N00101220001CN0100001N9+01891+00671102671ADDAY111061GF104991041011012501001081
0064108650999991929071106004+48183+011550FM-12+015599999V0209991C00001220001CN0020001N9+01391+00941102991ADDAY141061GF100991001001999999001001KA1999N+00501MD1310061+9999
0051108650999991929071112004+48183+011550FM-12+015599999V0200501N00101220001CN0200001N9+02221+01001102701ADDAY101061GF100991001001999999001001MD1810141+9999
0051108650999991929071212004+48183+011550FM-12+015599999V0203601N00261012301CN0200001N9+02391+01111102071ADDAY111061GF106991061011012501001001MD1810141+9999
0050108650999991929071306004+48183+011550FM-12+015599999V0209999900101012301CN0040001N9+01721+01501102241ADDAY141061GF108991061051012501031001KA1999N+01501
0051108650999991929071312004+48183+011550FM-12+015599999V0203201N00101220001CN0040001N9+02391+01441102071ADDAY111061GF104991041091012501001001MD1810061+9999
0075108650999991929071406004+48183+011550FM-12+015599999V0209991C00001036001CN0100001N9+01501+01061102601ADDAA199003091AY121061GF107991021051012501021001KA1999N+01281MD1310141+9999
0050108650999991929071506004+48183+011550FM-12+015599999V0209999900101220001CN0100001N9+01611+00941102521ADDAY141061GF100991001001999999001001KA1999N+00781
0050108650999991929071606004+48183+011550FM-12+015599999V0209991C00001220001CN0020001N9+01721+01061102211ADDAY141061GF100991001001999999001001KA1999N+00781
0051108650999991929071612004+48183+011550FM-12+015599999V0200901N00261220001CN0200001N9+02501+01221101931ADDAY101061GF100991001001999999001001MD1810061+9999
0050108650999991929071706004+48183+011550FM-12+015599999V0209991C00001220001CN0040001N9+01781+01331102071ADDAY141061GF100991001001999999001001KA1999N+01001
0050108650999991929071806004+48183+011550FM-12+015599999V0209999900101220001CN0100001N9+02221+01561102021ADDAY101061GF102991011011022501001081KA1999N+01501
0051108650999991929071812004+48183+011550FM-12+015599999V0203401N00261220001CN0200001N9+02891+01561101891ADDAY101061GF104991041011012501001001MD1990061+9999
0050108650999991929071906004+48183+011550FM-12+015599999V0209999900101220001CN0040001N9+02111+01831102121ADDAY101061GF102991001001999999001081KA1999N+01501
0050108650999991929072006004+48183+011550FM-12+015599999V0209991C00001220001CN0040001N9+02111+01671102081ADDAY101061GF102991001001999999001081KA1999N+01501
0051108650999991929072012004+48183+011550FM-12+015599999V0200901N00461220001CN0200001N9+03111+01781101811ADDAY101061GF101991011011022501001001MD1990141+9999
0064108650999991929072106004+48183+011550FM-12+015599999V02099999002619999999N0100001N9+02391+01721101991ADDAY111061GF106991999001022501031091KA1999N+01611MD1310141+9999
0064108650999991929072206004+48183+011550FM-12+015599999V0209999900261220001CN0100001N9+02221+01561102211ADDAY101061GF101991011011017501001001KA1999N+01501MD1310061+9999
0037108650999991929072212004+48183+011550FM-12+015599999V0202901N00461220001CN0500001N9+03001+01281102041ADDAY101061GF101991011011017501001001
0050108650999991929072306004+48183+011550FM-12+015599999V0209999900101220001CN0100001N9+02391+01721102391ADDAY101061GF100991001001999999001001KA1999N+01501
0051108650999991929072312004+48183+011550FM-12+015599999V0202301N00261220001CN0200001N9+03221+01501102001ADDAY101061GF101991011011022501001001MD1810141+9999
0081108650999991929072406004+48183+011550FM-12+015599999V0209999900101220001CN0200001N9+02221+01781101701ADDAA199000391AY181061GF104991021011022501031001KA1999N+01611MD1710141+9999MW1211
0057108650999991929072412004+48183+011550FM-12+015599999V0203201N00461220001CN0100001N9+02721+02001101271ADDAY191061GF104991041091012501001081MD1610141+9999MW1171
0075108650999991929072506004+48183+011550FM-12+015599999V02099999004619999999N0200001N9+02001+01561101311ADDAA199011091AY111061GF106991021051999999031001KA1999N+01501MD1010001+9999
0051108650999991929072512004+48183+011550FM-12+015599999V0200701N00101036001CN0100001N9+02611+01611100831ADDAY111061GF107991041051012501031001MD1810141+9999
0064108650999991929072606004+48183+011550FM-12+015599999V0209999900671021001CN0500001N9+01891+01441101671ADDAY111061GF107991061051022501031001KA1999N+01391MD1310061+9999
0057108650999991929072612004+48183+011550FM-12+015599999V0202901N00101007801CN0100001N9+02001+01331101351ADDAY111061GF107991999061008001001001MD1410001+9999MW1801
0075108650999991929072706004+48183+011550FM-12+015599999V0209999900261007801CN0100001N9+01391+01331102021ADDAA199003091AY121061GF108991061051008001021001KA1999N+01281MD1310141+9999
0051108650999991929072712004+48183+011550FM-12+015599999V0203201N002619999999N0040001N9+01501+01061102171ADDAY181061GF108991999061004501001001MD1310141+9999
0050108650999991929072806004+48183+011550FM-12+015599999V0209999900101220001CN0100001N9+01111+00891102391ADDAY111061GF104991001001999999031021KA1999N+00721
0075108650999991929072906004+48183+011550FM-12+015599999V0209999900461036001CN0040001N9+01501+01281101541ADDAA199001091AY111061GF106991041051012501031001KA1999N+01001MD1810061+9999
0057108650999991929072912004+48183+011550FM-12+015599999V0202501N002619999999N0100001N9+01781+01111101301ADDAY181061GF108991999061008001001001MD1810061+9999MW1211
0061108650999991929073006004+48183+011550FM-12+015599999V0209999900671036001CN0500001N9+01721+01281101331ADDAA199002091AY111061GF106991021061008001031001KA1999N+01391
0037108650999991929073012004+48183+011550FM-12+015599999V0202701N00931036001CN0500001N9+02221+01281101231ADDAY111061GF106991041011012501021001
0050108650999991929073106004+48183+011550FM-12+015599999V0209999900261036001CN0100001N9+01721+01281101491ADDAY111061GF108991041051012501021001KA1999N+01281
0051108650999991929073112004+48183+011550FM-12+015599999V0202701N00461036001CN0500001N9+02111+01171101131ADDAY111061GF106991041051012501031001MD1810201+9999
0064108650999991929080106004+48183+011550FM-12+015599999V0209999900671220001CN0200001N9+02001+01331100711ADDAY101061GF102991011051022501031001KA1999N+01281MD1310061+9999
0037108650999991929080112004+48183+011550FM-12+015599999V0202501N00461036001CN0200001N9+02221+01561100631ADDAY121061GF108991041051022501021001
0075108650999991929080206004+48183+011550FM-12+015599999V0209999900461015001CN0100001N9+01501+01281101321ADDAA199005091AY111061GF106991061051017501021001KA1999N+01221MD1310141+9999
0051108650999991929080212004+48183+011550FM-12+015599999V0202301N00461036001CN0200001N9+01721+01281101371ADDAY181061GF107991041051012501021001MD1010001+9999
0075108650999991929080306004+48183+011550FM-12+015599999V0209999900101036001CN0100001N9+01221+01171101981ADDAA199000391AY111061GF106991041051008001021001KA1999N+01111MD1310141+9999
0043108650999991929080312004+48183+011550FM-12+015599999V0201601N001019999999N0100001N9+01611+01331101981ADDAY181061GF106991999061008001001001MW1801
0050108650999991929080406004+48183+011550FM-12+015599999V0209999900261220001CN0100001N9+01781+01561101671ADDAY101061GF102991001001999999001081KA1999N+00781
0050108650999991929080506004+48183+011550FM-12+015599999V0209999900101036001CN0100001N9+01611+01331101191ADDAY111061GF107991041051017501031001KA1999N+01221
0057108650999991929080512004+48183+011550FM-12+015599999V0202701N006719999999N0100001N9+01611+01561101331ADDAY121061GF108991999061008001001001MD1210141+9999MW1631
0075108650999991929080606004+48183+011550FM-12+015599999V0209999900261220001CN0100001N9+01501+01281102121ADDAA199000591AY111061GF102991011051017501031001KA1999N+01111MD1310061+9999
0051108650999991929080612004+48183+011550FM-12+015599999V0200501N00101220001CN0500001N9+01891+00671101911ADDAY101061GF104991041011012501001001MD1810061+9999
0056108650999991929080706004+48183+011550FM-12+015599999V0209991C00001220001CN0010001N9+01281+01061101591ADDAY141061GF100991001001999999001001KA1999N+00611MW1101
0051108650999991929080712004+48183+011550FM-12+015599999V0203601N00101220001CN0200001N9+02501+01221101131ADDAY101061GF104991001001999999001081MD1990201+9999
0064108650999991929080806004+48183+011550FM-12+015599999V0209999900261036001CN0100001N9+01611+01331101311ADDAY111061GF106991041051022501031001KA1999N+01001MD1210141+9999
0051108650999991929080812004+48183+011550FM-12+015599999V0203201N00101220001CN0200001N9+02391+01441101091ADDAY101061GF102991021011017501001001MD1610141+9999
0064108650999991929080906004+48183+011550FM-12+015599999V02099999001019999999N0100001N9+01501+01441101601ADDAY121061GF108991999061004501001001KA1999N+01391MD1310141+9999
0051108650999991929080912004+48183+011550FM-12+015599999V0200501N002619999999N0100001N9+01891+01441101511ADDAY111061GF107991999061008001001001MD1610061+9999
0081108650999991929081006004+48183+011550FM-12+015599999V0209999900101001501CN0020001N9+01501+01441101571ADDAA199010091AY161061GF108991081061001501999999KA1999N+01391MD1210061+9999MW1631
0057108650999991929081012004+48183+011550FM-12+015599999V0203201N00101001501CN0020001N9+01501+01441101771ADDAY161061GF108991999061001501001001MD1210061+9999MW1631
0061108650999991929081106004+48183+011550FM-12+015599999V0209999900101004501CN0040001N9+01501+01441102161ADDAA199001091AY121061GF108991999061004501001001KA1999N+01391
0064108650999991929081206004+48183+011550FM-12+015599999V0209999900101002401CN0020001N9+01781+01721101941ADDAY121061GF107991071051002501001001KA1999N+01611MD1510001+9999
0051108650999991929081212004+48183+011550FM-12+015599999V0202901N00101004501CN0040001N9+01891+01441101911ADDAY121061GF108991999061004501001001MD1410001+9999
0064108650999991929081306004+48183+011550FM-12+015599999V0209991C00001220001CN0020001N9+01611+01561102371ADDAY141061GF102991021051012501001001KA1999N+01391MD1310061+9999
0037108650999991929081312004+48183+011550FM-12+015599999V0200501N00101036001CN0100001N9+02111+01441102211ADDAY111061GF106991041011008001021001
0056108650999991929081406004+48183+011550FM-12+015599999V0209991C00001000601CN0005001N9+01281+01221102301ADDAY141061GF108991081051000751999999KA1999N+01001MW1471
0051108650999991929081412004+48183+011550FM-12+015599999V0200901N00101220001CN0200001N9+02501+01561101891ADDAY101061GF101991011011012501001001MD1810061+9999
0064108650999991929081506004+48183+011550FM-12+015599999V0209991C00001220001CN0040001N9+01721+01501101901ADDAY141061GF101991999001999999031001KA1999N+01281MD1410001+9999
0051108650999991929081512004+48183+011550FM-12+015599999V0200901N00261220001CN0200001N9+02721+01441101551ADDAY101061GF102991001001999999031091MD1810061+9999
0083108650999991929081606004+48183+011550FM-12+015599999V0209999900101220001CN0040001N9+01221+00781101761ADDAY101061GF102991999001999999031001KA1999N+99999MD1310061+9999EQDQ01 +01392ATMN  
0051108650999991929081612004+48183+011550FM-12+015599999V0200701N00101220001CN0200001N9+02721+01441101471ADDAY101061GF102991011011022501031001MD1810061+9999
0050108650999991929081706004+48183+011550FM-12+015599999V0209999900101220001CN0020001N9+01891+01611101461ADDAY141061GF100991001001999999001001KA1999N+01111
0051108650999991929081712004+48183+011550FM-12+015599999V0202901N00461220001CN0200001N9+02611+01331101471ADDAY101061GF101991011011017501001001MD1310061+9999
0075108650999991929081806004+48183+011550FM-12+015599999V0209999900101220001CN0200001N9+01781+01331101701ADDAA199007091AY101061GF101991999001999999031001KA1999N+01281MD1510001+9999
0075108650999991929081906004+48183+011550FM-12+015599999V0209999900101007801CN0100001N9+01501+01441101771ADDAA199007091AY181061GF107991999061008001001001KA1999N+01391MD1410001+9999
0057108650999991929081912004+48183+011550FM-12+015599999V0203601N00671000601CN0010001N9+01391+01331101861ADDAY161061GF108991081061000751999999MD1310061+9999MW1651
0067108650999991929082006004+48183+011550FM-12+015599999V0209999900101000601CN0020001N9+01221+01171101761ADDAA199018091AY161061GF108991081061000751999999KA1999N+01111MW1631
0057108650999991929082012004+48183+011550FM-12+015599999V0203601N00101001501CN0040001N9+01281+01221101891ADDAY161061GF108991999061001501001001MD1310061+9999MW1611
0075108650999991929082106004+48183+011550FM-12+015599999V0209999900101036001CN0040001N9+01111+00891102211ADDAA199000391AY121061GF107991041051008001031001KA1999N+00891MD1310061+9999
0037108650999991929082112004+48183+011550FM-12+015599999V0203601N00261004501CN0100001N9+01391+00721102161ADDAY121061GF108991081051004501999999
0064108650999991929082206004+48183+011550FM-12+015599999V0209991C00001007801CN0020001N9+01111+01061102391ADDAY141061GF108991081051008001999999KA1999N+00891MD1310061+9999
0051108650999991929082212004+48183+011550FM-12+015599999V0202901N001019999999N0100001N9+01611+00941102171ADDAY111061GF106991999011008001001001MD1810061+9999
0050108650999991929082306004+48183+011550FM-12+015599999V0209999900101007801CN0020001N9+01221+01171102311ADDAY121061GF108991061051008001021001KA1999N+01001
0029108650999991929082312004+48183+011550FM-12+015599999V0202901N00261004501CN9999999N9+01611+99999102341ADDGF107991061051004501031001
0064108650999991929082406004+48183+011550FM-12+015599999V02099999002619999999N0020001N9+01391+01171102511ADDAY111061GF108991999051008001001001KA1999N+01001MD1510001+9999
0051108650999991929082412004+48183+011550FM-12+015599999V0202501N00101012301CN0100001N9+02001+01331102291ADDAY111061GF107991061051012501031001MD1810061+9999
0050108650999991929082506004+48183+011550FM-12+015599999V0209999900101220001CN0100001N9+01501+01281102231ADDAY101061GF102991001001999999031021KA1999N+01001
0050108650999991929082606004+48183+011550FM-12+015599999V0209999900101220001CN0040001N9+01611+01561102171ADDAY101061GF104991999011012501001001KA1999N+01221
0051108650999991929082612004+48183+011550FM-12+015599999V0200201N001019999999N0100001N9+02281+01331101971ADDAY111061GF106991999051008001001001MD1810061+9999
0050108650999991929082706004+48183+011550FM-12+015599999V0209999900101220001CN0040001N9+01501+01281102071ADDAY101061GF100991001001999999001001KA1999N+01001
0051108650999991929082712004+48183+011550FM-12+015599999V0200901N00461220001CN0100001N9+02391+01441101711ADDAY101061GF100991001001999999001001MD1810061+9999
0064108650999991929082806004+48183+011550FM-12+015599999V0209991C00001220001CN0020001N9+01721+01671101801ADDAY141061GF100991001001999999001001KA1999N+01111MD1310061+9999
0051108650999991929082812004+48183+011550FM-12+015599999V0202701N00101220001CN0200001N9+02781+01501101571ADDAY101061GF101991011011022501001001MD1810061+9999
0064108650999991929082906004+48183+011550FM-12+015599999V0209999900101220001CN0040001N9+01781+01561102041ADDAY111061GF104991001001999999001021KA1999N+01501MD1310061+9999
0051108650999991929082912004+48183+011550FM-12+015599999V0200901N00101220001CN0100001N9+02781+01781101751ADDAY101061GF102991999001999999031001MD1810061+9999
0050108650999991929083006004+48183+011550FM-12+015599999V0209999900261220001CN0040001N9+01891+01441101941ADDAY101061GF101991001001999999001081KA1999N+01391
0051108650999991929083012004+48183+011550FM-12+015599999V0202901N00101220001CN0100001N9+02721+02001101701ADDAY101061GF104991041011012501001001MD1810061+9999
0064108650999991929083106004+48183+011550FM-12+015599999V0209991C00001220001CN0020001N9+01781+01721101911ADDAY141061GF101991999001999999021001KA1999N+01391MD1310061+9999
0051108650999991929083112004+48183+011550FM-12+015599999V0200901N00261220001CN0200001N9+02781+01781101571ADDAY101061GF102991021011022501001001MD1810141+9999
0064108650999991929090106004+48183+011550FM-12+015599999V0209999900101220001CN0040001N9+01781+01721101861ADDAY101061GF100991001001999999001001KA1999N+01391MD1310141+9999
0051108650999991929090112004+48183+011550FM-12+015599999V0202301N001019999999N9999999N9+02891+99999101631ADDAY111061GF106991999999999999999999MD1810061+9999
0064108650999991929090206004+48183+011550FM-12+015599999V0209991C00001220001CN0040001N9+01721+01671102041ADDAY101061GF102991011051012501001021KA1999N+01501MD1310061+9999
0051108650999991929090212004+48183+011550FM-12+015599999V0200901N00101220001CN0100001N9+03001+01671101701ADDAY101061GF104991041011012501001001MD1810061+9999
0050108650999991929090306004+48183+011550FM-12+015599999V0209991C00001220001CN0020001N9+01611+01561101991ADDAY141061GF101991001001999999001081KA1999N+01221
0051108650999991929090312004+48183+011550FM-12+015599999V0200901N00461220001CN0200001N9+02891+01561101551ADDAY101061GF101991999001999999031001MD1810141+9999
0050108650999991929090406004+48183+011550FM-12+015599999V0209991C00001220001CN0040001N9+01781+01561101631ADDAY141061GF102991001001999999001081KA1999N+01281
0037108650999991929090412004+48183+011550FM-12+015599999V0200701N00101220001CN0100001N9+02891+01561101331ADDAY101061GF102991011011012501001081
0064108650999991929090506004+48183+011550FM-12+015599999V0209999900101220001CN0040001N9+01781+01331101731ADDAY101061GF101991999001999999031001KA1999N+01501MD1310061+9999
0051108650999991929090512004+48183+011550FM-12+015599999V0202701N00261220001CN0200001N9+02781+01501101531ADDAY101061GF101991011011012501001001MD1810061+9999
0075108650999991929090606004+48183+011550FM-12+015599999V0209999900261220001CN0100001N9+01781+01331101871ADDAA199011091AY101061GF104991021051008001001021KA1999N+01721MD1310061+9999
0051108650999991929090612004+48183+011550FM-12+015599999V0202701N00461220001CN0200001N9+02721+01721101671ADDAY111061GF104991021011012501001081MD1990061+9999
0075108650999991929090706004+48183+011550FM-12+015599999V0209999900101004501CN0040001N9+01391+01331102381ADDAA199001091AY121061GF108991081051004501999999KA1999N+01281MD1310201+9999
0051108650999991929090712004+48183+011550FM-12+015599999V0203201N00261220001CN0200001N9+01611+00441102641ADDAY111061GF102991021011012501001001MD1410001+9999
0064108650999991929090806004+48183+011550FM-12+015599999V0209999900101220001CN0100001N9+00891+00831102711ADDAY101061GF100991001001999999001001KA1999N+00281MD1410001+9999
0051108650999991929090812004+48183+011550FM-12+015599999V0203201N00101220001CN0500001N9+02001+00391102381ADDAY101061GF101991001001999999001081MD1810141+9999
0064108650999991929090906004+48183+011550FM-12+015599999V0209999900261220001CN0100001N9+01391+00721101971ADDAY101061GF101991001001999999001081KA1999N+00781MD1710201+9999
0051108650999991929090912004+48183+011550FM-12+015599999V0202701N00101220001CN0100001N9+02611+01331101461ADDAY101061GF100991001001999999001001MD1810141+9999
0064108650999991929091006004+48183+011550FM-12+015599999V0209999900101220001CN0100001N9+01721+01501101791ADDAY101061GF102991999001999999031001KA1999N+01281MD1310141+9999
0037108650999991929091012004+48183+011550FM-12+015599999V0202901N00101220001CN0100001N9+02501+01221101711ADDAY101061GF104991041011017501001081
0064108650999991929091106004+48183+011550FM-12+015599999V0209999900101220001CN0020001N9+01221+01171102421ADDAY141061GF100991001001999999001001KA1999N+00891MD1310061+9999
0051108650999991929091112004+48183+011550FM-12+015599999V0200901N00461220001CN0100001N9+02501+01221102041ADDAY101061GF100991001001999999001001MD1810141+9999
0064108650999991929091206004+48183+011550FM-12+015599999V0209999900101220001CN0040001N9+01391+01171102341ADDAY111061GF104991041051022501001001KA1999N+01001MD1210061+9999
0051108650999991929091212004+48183+011550FM-12+015599999V0203601N00101220001CN0100001N9+02501+01561101981ADDAY101061GF100991001001999999001001MD1810061+9999
0050108650999991929091306004+48183+011550FM-12+015599999V0209999900101007801CN0020001N9+01501+01441101991ADDAY141061GF107991071051008001001001KA1999N+01111
0051108650999991929091312004+48183+011550FM-12+015599999V0202901N00261220001CN0100001N9+02611+01611101631ADDAY111061GF104991021011022501031001MD1990141+9999
0050108650999991929091406004+48183+011550FM-12+015599999V0209999900261220001CN0040001N9+01611+01561101711ADDAY141061GF102991001001999999031081KA1999N+01281
0051108650999991929091412004+48183+011550FM-12+015599999V0203201N00101220001CN0200001N9+02391+01441101491ADDAY101061GF104991021011012501001081MD1810061+9999
0075108650999991929091506004+48183+011550FM-12+015599999V0209999900101036001CN0040001N9+01611+01561101981ADDAA199006091AY181061GF107991041051008001031001KA1999N+01501MD1210141+9999
0057108650999991929091512004+48183+011550FM-12+015599999V0203601N002619999999N0100001N9+02281+01611101871ADDAY191061GF106991999091008001001001MD1710141+9999MW1951
0070108650999991929091606004+48183+011550FM-12+015599999V0209991C00001220001CN0005001N9+01221+01171102191ADDAY141061GF100991001001999999001001KA1999N+01001MD1310341+9999MW1421
0051108650999991929091612004+48183+011550FM-12+015599999V0200901N00461220001CN0100001N9+02391+01721101841ADDAY101061GF104991021011017501001081MD1810141+9999
0064108650999991929091706004+48183+011550FM-12+015599999V0209999900101220001CN0100001N9+01111+00891101981ADDAY141061GF100991001001999999001001KA1999N+00721MD1410001+9999
0051108650999991929091712004+48183+011550FM-12+015599999V0200901N00461220001CN0100001N9+02221+01281101601ADDAY101061GF102991001001999999001081MD1810061+9999
0050108650999991929091806004+48183+011550FM-12+015599999V0209999900101220001CN0040001N9+01001+00781101631ADDAY101061GF100991001001999999001001KA1999N+00611
0051108650999991929091812004+48183+011550FM-12+015599999V0203201N00261220001CN0100001N9+02111+01171101261ADDAY101061GF101991001001999999001021MD1990141+9999
0050108650999991929091906004+48183+011550FM-12+015599999V0209999900261015001CN0100001N9+01611+01561101491ADDAY111061GF107991061051017501021001KA1999N+01281
0057108650999991929091912004+48183+011550FM-12+015599999V0202901N00261220001CN0200001N9+02221+01561101411ADDAY111061GF104991999061012501001001MD1810061+9999MW1801
0061108650999991929092006004+48183+011550FM-12+015599999V0209999900261036001CN0100001N9+01611+01331101461ADDAA199004091AY111061GF106991021051004501031001KA1999N+01281
0081108650999991929092106004+48183+011550FM-12+015599999V0209999900461002401CN0020001N9+00891+00671101501ADDAA199009091AY181061GF107991061061002501031001KA1999N+00781MD1210141+9999MW1811
0051108650999991929092112004+48183+011550FM-12+015599999V0202901N01231220001CN0200001N9+01281+00111101631ADDAY111061GF104991041011012501031001MD1110061+9999
0061108650999991929092206004+48183+011550FM-12+015599999V0209999900671004501CN0200001N9+01221+01001101831ADDAA199000391AY121061GF108991999061004501001001KA1999N+01001
0051108650999991929092212004+48183+011550FM-12+015599999V0203201N006719999999N0200001N9+01501+00611101931ADDAY111061GF107991999061008001001001MD1310061+9999
0070108650999991929092306004+48183+011550FM-12+015599999V0209999900261007801CN0040001N9+01001+00781102561ADDAY121061GF108991081061008001999999KA1999N+00721MD1210061+9999MW1611
0037108650999991929092312004+48183+011550FM-12+015599999V0202901N00461007801CN0040001N9+01221+01001102591ADDAY121061GF108991999061008001001001
0061108650999991929092406004+48183+011550FM-12+015599999V0209991C000019999999N0040001N9+01001+00941102631ADDAA199002091AY141061GF106991999051004501001001KA1999N+00891
0051108650999991929092412004+48183+011550FM-12+015599999V0200901N00261007801CN0200001N9+01391+00501102631ADDAY111061GF106991061011008001001001MD1310061+9999
0064108650999991929092506004+48183+011550FM-12+015599999V0209999900101220001CN0040001N9+00391+00171103361ADDAY101061GF100991001001999999001001KA1999N+00111MD1310141+9999
0051108650999991929092512004+48183+011550FM-12+015599999V0200901N00671220001CN0500001N9+01281+00391103371ADDAY101061GF104991041011017501031001MD1310061+9999
0050108650999991929092606004+48183+011550FM-12+015599999V0209999900101220001CN0100001N9+00391+00331103621ADDAY101061GF100991001001999999001001KA1999N+00001
0051108650999991929092612004+48183+011550FM-12+015599999V0200901N00461220001CN0200001N9+01721+00501103231ADDAY101061GF100991001001999999001001MD1810061+9999
0056108650999991929092706004+48183+011550FM-12+015599999V0209999900101220001CN0010001N9+00391+00331103141ADDAY101061GF104991001001999999031081KA1999N+00111MW1101
0051108650999991929092712004+48183+011550FM-12+015599999V0200901N00101220001CN0200001N9+01781+00561102611ADDAY101061GF102991001001999999001081MD1810061+9999
0056108650999991929092806004+48183+011550FM-12+015599999V0209991C00001220001CN0010001N9+00281+00221102881ADDAY141061GF100991001001999999001001KA1999N+00111MW1101
0070108650999991929092812004+48183+011550FM-12+015599999V0200901N00261220001CN0200001N9+02002+00781102421ADDAY101061GF100991001001999999001001MD1990141+9999EQDQ01+029323ATOT  
0064108650999991929092906004+48183+011550FM-12+015599999V0209999900101220001CN0100001N9+00611+00561102691ADDAY101061GF100991001001999999001001KA1999N+00221MD1410001+9999
0051108650999991929092912004+48183+011550FM-12+015599999V0202701N00461220001CN0200001N9+02001+00781102331ADDAY101061GF102991001001999999031021MD1810061+9999
0051108650999991929093012004+48183+011550FM-12+015599999V0202301N00461015001CN0100001N9+01891+00941102341ADDAY111061GF106991061051017501001001MD1810141+9999
0064108650999991929100106004+48183+011550FM-12+015599999V0209999900461220001CN0100001N9+01281+00831102111ADDAY111061GF107991999001999999021001KA1999N+00781MD1810061+9999
0051108650999991929100112004+48183+011550FM-12+015599999V0202701N00671036001CN0200001N9+02001+00781101841ADDAY111061GF108991041051022501021001MD1810061+9999
0075108650999991929100206004+48183+011550FM-12+015599999V0209999900261036001CN0500001N9+01501+01061101701ADDAA199000691AY111061GF106991041051017501031001KA1999N+01221MD1610061+9999
0051108650999991929100212004+48183+011550FM-12+015599999V0202901N00931090001CN0200001N9+02001+01061101441ADDAY111061GF106991021051012501001081MD1810141+9999
0064108650999991929100306004+48183+011550FM-12+015599999V0209999900261220001CN0100001N9+01611+01171101471ADDAY101061GF104991001001999999021081KA1999N+01391MD1510001+9999
0051108650999991929100312004+48183+011550FM-12+015599999V0202301N00671220001CN0500001N9+02611+00941101151ADDAY101061GF104991001001999999001081MD1810141+9999
0050108650999991929100406004+48183+011550FM-12+015599999V0209999900261220001CN0040001N9+01281+01061101731ADDAY141061GF100991001001999999001001KA1999N+01001
0051108650999991929100412004+48183+011550FM-12+015599999V0203401N00101220001CN0200001N9+02501+01221101361ADDAY101061GF100991001001999999001001MD1810141+9999
0064108650999991929100506004+48183+011550FM-12+015599999V0209999900101220001CN0200001N9+01111+00671101361ADDAY101061GF100991001001999999001001KA1999N+00721MD1810061+9999
0051108650999991929100512004+48183+011550FM-12+015599999V0200901N00461220001CN0500001N9+02501+00831100841ADDAY101061GF101991001001999999001081MD1810141+9999
0064108650999991929100606004+48183+011550FM-12+015599999V0209999900101220001CN0500001N9+00891+00441100771ADDAY101061GF100991001001999999001001KA1999N+00781MD1610141+9999
0070108650999991929100612004+48183+011550FM-12+015599999V0201801N00671220001CN0500001N9+02612+00941100291ADDAY101061GF102991021011022501031001MD1810061+9999EQDQ01+029933ATOT  
0064108650999991929100706004+48183+011550FM-12+015599999V0209999900101015001CN0500001N9+01111+00671101721ADDAY111061GF108991081051017501999999KA1999N+01001MD1310201+9999
0037108650999991929100712004+48183+011550FM-12+015599999V0203601N002619999999N0100001N9+01391+00721101601ADDAY121061GF108991999061008001001001
0075108650999991929100806004+48183+011550FM-12+015599999V0209999900101220001CN0100001N9+01001+00941101391ADDAA199001091AY101061GF102991999001022501031001KA1999N+00781MD1610141+9999
0051108650999991929100812004+48183+011550FM-12+015599999V0203201N00101220001CN0100001N9+01781+00891100991ADDAY101061GF106991999001999999021001MD1710141+9999
0061108650999991929100906004+48183+011550FM-12+015599999V0209999900461036001CN0500001N9+01221+00781101101ADDAA199004091AY111061GF107991041061012501021001KA1999N+00781
0057108650999991929100912004+48183+011550FM-12+015599999V0202901N00931004501CN0500001N9+01111+00891101431ADDAY181061GF107991999061004501001001MD1310201+9999MW1211
0081108650999991929101006004+48183+011550FM-12+015599999V0209999900671004501CN0040001N9+00501+00441102521ADDAA199001091AY181061GF108991999061004501001001KA1999N+00281MD1310261+9999MW1211
0051108650999991929101012004+48183+011550FM-12+015599999V0202701N009319999999N0100001N9+00781+00171102561ADDAY111061GF106991999091008001001001MD1010001+9999
0067108650999991929101106004+48183+011550FM-12+015599999V02099999004619999999N0100001N9+00611+00561102911ADDAA199001091AY161061GF108991999061004501001001KA1999N+00501MW1611
0067108650999991929101206004+48183+011550FM-12+015599999V0209999900671001501CN0020001N9+01001+00941102531ADDAA199004091AY181061GF108991081061001501999999KA1999N+00721MW1631
0075108650999991929101306004+48183+011550FM-12+015599999V0209999900101015001CN0040001N9+00781+00721103141ADDAA199000691AY121061GF107991071051017501001001KA1999N+00721MD1310061+9999
0051108650999991929101312004+48183+011550FM-12+015599999V0203601N00101220001CN0200001N9+01501+00611102911ADDAY101061GF102991021011008001001001MD1810061+9999
0050108650999991929101406004+48183+011550FM-12+015599999V0209991C00001220001CN0010001N9+00281+00221103181ADDAY141061GF102991001001999999001021KA1999N+00111
0051108650999991929101412004+48183+011550FM-12+015599999V0200901N00261220001CN0200001N9+01721+00831102741ADDAY101061GF101991001001999999001021MD1810061+9999
0056108650999991929101506004+48183+011550FM-12+015599999V0209991C00001000151CN0000001N9+00501+00441103201ADDAY141061GF108991081051000251999999KA1999N+00281MW1451
0051108650999991929101512004+48183+011550FM-12+015599999V0200901N00101220001CN0040001N9+01501+00831102821ADDAY101061GF102991001001999999001081MD1810061+9999
0070108650999991929101606004+48183+011550FM-12+015599999V0209999900101001501CN0010001N9+00281+00221102661ADDAY141061GF108991081051001501999999KA1999N-00111MD1510001+9999MW1101
0051108650999991929101612004+48183+011550FM-12+015599999V0202701N00101001501CN0010001N9+01111+00891102261ADDAY141061GF107991071051001501001001MD1810201+9999
0070108650999991929101706004+48183+011550FM-12+015599999V0209991C00001220001CN0005001N9+00281+00221102391ADDAY141061GF101991999001999999031001KA1999N+00001MD1310061+9999MW1441
0051108650999991929101712004+48183+011550FM-12+015599999V0203601N00101220001CN0040001N9+01391+00721102031ADDAY111061GF104991021051008001031001MD1810141+9999
0056108650999991929101806004+48183+011550FM-12+015599999V0209999900101000151CN0000001N9+00501+00441101761ADDAY141061GF108991081051000251999999KA1999N+00111MW1471
0051108650999991929101812004+48183+011550FM-12+015599999V0202301N00101220001CN0040001N9+01611+00941101281ADDAY101061GF104991001001999999031081MD1810141+9999
0070108650999991929101906004+48183+011550FM-12+015599999V0209991C00001000151CN0000501N9+00781+00721100571ADDAY141061GF108991081051000251999999KA1999N+00501MD1810061+9999MW1451
0057108650999991929101912004+48183+011550FM-12+015599999V0209991C00001000151CN0000501N9+00781+00721100241ADDAY141061GF108991081051000251999999MD1810201+9999MW1451
0067108650999991929102006004+48183+011550FM-12+015599999V02099999004619999999N0200001N9+00501+00441100521ADDAA199002091AY161061GF108991999061008001001001KA1999N+00501MW1611
0057108650999991929102012004+48183+011550FM-12+015599999V0202701N00671004501CN0200001N9+00611+00391100711ADDAY181061GF108991999061004501001001MD1990061+9999MW1801
0050108650999991929102106004+48183+011550FM-12+015599999V0209999900101220001CN0040001N9+00111+00061101001ADDAY101061GF104991001001999999031081KA1999N-00111
0051108650999991929102112004+48183+011550FM-12+015599999V0200901N00261220001CN0500001N9+01281+00391100911ADDAY101061GF102991001001999999001021MD1990061+9999
0050108650999991929102206004+48183+011550FM-12+015599999V0209991C00001220001CN0040001N9+00391+00331101411ADDAY141061GF107991999001999999021001KA1999N+00111
0037108650999991929102212004+48183+011550FM-12+015599999V0202501N00101220001CN0500001N9+01721+00501101041ADDAY101061GF102991999001999999031001
0064108650999991929102306004+48183+011550FM-12+015599999V0209999900101220001CN0010001N9+00281+00221101151ADDAY141061GF104991001001999999031081KA1999N+00111MD1810061+9999
0037108650999991929102312004+48183+011550FM-12+015599999V0202901N00101036001CN0500001N9+01501+00831100771ADDAY111061GF106991021011022501031001
0050108650999991929102406004+48183+011550FM-12+015599999V0209991C00001036001CN0020001N9+00891+00831101141ADDAY141061GF107991041051012501031001KA1999N+00391
0056108650999991929102506004+48183+011550FM-12+015599999V0209999900101000151CN0000001N9+00501+00441100521ADDAY141061GF108991081051000251999999KA1999N+00001MW1451
0051108650999991929102512004+48183+011550FM-12+015599999V0203401N00101220001CN0040001N9+01391+00721100261ADDAY141061GF104991011051017501001081MD1810061+9999
0081108650999991929102606004+48183+011550FM-12+015599999V0209991C00001036001CN0020001N9+00501+00441100211ADDAA199017091AY161061GF108991041061008001021001KA1999N+00391MD1810141+9999MW1211
0051108650999991929102612004+48183+011550FM-12+015599999V0202901N001019999999N0100001N9+00891+00441100021ADDAY121061GF107991999061004501001001MD1610061+9999
0081108650999991929102706004+48183+011550FM-12+015599999V02099999002619999999N0040001N9+00391+00331100731ADDAA199001091AY181061GF108991999061004501001001KA1999N+00221MD1310141+9999MW1211
0051108650999991929102712004+48183+011550FM-12+015599999V0203201N004619999999N0100001N9+00611+00221100841ADDAY111061GF107991999061004501001001MD1990061+9999
0075108650999991929102806004+48183+011550FM-12+015599999V0209999900461036001CN0040001N9+00221+00171101841ADDAA199001091AY101061GF108991041061017501021001KA1999N-00111MD1210201+9999
0037108650999991929102812004+48183+011550FM-12+015599999V0202701N004619999999N0040001N9+00611+00221101931ADDAY111061GF107991999061004501001001
0064108650999991929102906004+48183+011550FM-12+015599999V0209999900261036001CN0500001N9+00391-00171101071ADDAY111061GF107991041051012501021001KA1999N+00111MD1710341+9999
0057108650999991929102912004+48183+011550FM-12+015599999V0202001N00461002401CN0020001N9+00891+00831100501ADDAY181061GF108991081061002501999999MD1710141+9999MW1601
0061108650999991929103006004+48183+011550FM-12+015599999V0209999900461012301CN0040001N9+00721+00501100791ADDAA199000391AY121061GF107991061051012501031001KA1999N+00611
0051108650999991929103012004+48183+011550FM-12+015599999V0202701N00461036001CN0100001N9+01111+00501100691ADDAY111061GF107991041051012501021001MD1810061+9999
0081108650999991929103106004+48183+011550FM-12+015599999V0209999900101001501CN0020001N9+00611+00561101441ADDAA199001091AY161061GF108991081061001501999999KA1999N+00501MD1310141+9999MW1511
0057108650999991929103112004+48183+011550FM-12+015599999V0203601N00101002401CN0040001N9+00781+00561101551ADDAY161061GF108991081061002501999999MD1410001+9999MW1211
0081108650999991929110106004+48183+011550FM-12+015599999V0209999900101001501CN0020001N9+00391+00331102211ADDAA199004091AY161061GF108991081061001501999999KA1999N+00391MD1310141+9999MW1611
0037108650999991929110112004+48183+011550FM-12+015599999V0200901N002619999999N0100001N9+00721+00501102111ADDAY121061GF108991999061004501001001
0081108650999991929110206004+48183+011550FM-12+015599999V0209999900101000601CN0010001N9+00611+00561102031ADDAA199004091AY161061GF108991081061000751999999KA1999N+00501MD1310141+9999MW1531
0057108650999991929110212004+48183+011550FM-12+015599999V0200901N00101001501CN0020001N9+00611+00561102311ADDAY161061GF108991081061001501999999MD1310201+9999MW1511
0056108650999991929110306004+48183+011550FM-12+015599999V0209991C00001000151CN0002001N9+00611+00561102431ADDAY141061GF108991081051000251999999KA1999N+00501MW1451
0051108650999991929110312004+48183+011550FM-12+015599999V0203601N00101001501CN0040001N9+00721+00671102121ADDAY121061GF108991081061001501999999MD1990141+9999
0081108650999991929110406004+48183+011550FM-12+015599999V0209999900101001501CN0020001N9+00391+00331103011ADDAA199003091AY161061GF108991081051001501999999KA1999N+00281MD1210261+9999MW1531
0051108650999991929110412004+48183+011550FM-12+015599999V0209991C00001004501CN0020001N9+00611+00391103221ADDAY161061GF107991999061004501001001MD1110061+9999
0081108650999991929110506004+48183+011550FM-12+015599999V0209991C00001007801CN0010001N9+00221+00171103041ADDAA199000391AY141061GF106991061051008001001001KA1999N+00111MD1810141+9999MW1101
0051108650999991929110512004+48183+011550FM-12+015599999V0201101N00101001501CN0020001N9+00281+00221102731ADDAY121061GF108991081051001501999999MD1810201+9999
0064108650999991929110606004+48183+011550FM-12+015599999V0209999900101001501CN0010001N9+00221+00171101751ADDAY141061GF108991081051001501999999KA1999N+00111MD1810141+9999
0051108650999991929110612004+48183+011550FM-12+015599999V0200901N00101220001CN0040001N9+00611+00221101391ADDAY141061GF104991021051004501031001MD1810141+9999
0070108650999991929110706004+48183+011550FM-12+015599999V0209999900101000151CN0000501N9-00111-00171101901ADDAY141061GF108991081051000251999999KA1999N-00221MD1310141+9999MW1471
0056108650999991929110806004+48183+011550FM-12+015599999V0209999900101000151CN0000501N9-00111-00171102121ADDAY141061GF108991081051000251999999KA1999N-00111MW1451
0067108650999991929110906004+48183+011550FM-12+015599999V0209999900261000601CN0010001N9+00721+00671101511ADDAA199002091AY161061GF108991081061000751999999KA1999N+00001MW1511
0043108650999991929110912004+48183+011550FM-12+015599999V0202701N00261004501CN0040001N9+01001+99999101711ADDAY161061GF108991999061004501001001MW1601
0075108650999991929111006004+48183+011550FM-12+015599999V0209999900461002401CN0020001N9+00611+00561101941ADDAA199000691AY121061GF108991999061002501001001KA1999N+00501MD1610141+9999
0051108650999991929111012004+48183+011550FM-12+015599999V0202001N00101007801CN0040001N9+00891+00671101601ADDAY121061GF108991081051008001999999MD1810201+9999
0057108650999991929111112004+48183+011550FM-12+015599999V0202501N00261002401CN0020001N9+00501+00441102601ADDAY161061GF108991999061002501001001MD1990061+9999MW1611
0064108650999991929111206004+48183+011550FM-12+015599999V0209999900261220001CN0010001N9+00001-00061101411ADDAY101061GF104991001001999999001081KA1999N-00281MD1810401+9999
0051108650999991929111212004+48183+011550FM-12+015599999V0201601N00261220001CN0500001N9+00891+00281100631ADDAY111061GF106991001001999999021081MD1810341+9999
0081108650999991929111306004+48183+011550FM-12+015599999V0209999900101002401CN0020001N9+00391+00171100871ADDAA199001091AY161061GF108991061061002501021001KA1999N+00281MD1990061+9999MW1601
0051108650999991929111312004+48183+011550FM-12+015599999V0200901N00461220001CN0500001N9+00721+00111100241ADDAY111061GF104991021051012501021001MD1810261+9999
0061108650999991929111406004+48183+011550FM-12+015599999V0209999900461007801CN0040001N9+00221+00171100061ADDAA199004091AY171061GF108991061051008001021001KA1999N+00001
0037108650999991929111412004+48183+011550FM-12+015599999V0202501N00461007801CN0100001N9+00281-00111100101ADDAY121061GF108991081051008001999999
0064108650999991929111506004+48183+011550FM-12+015599999V0209999900101007801CN0040001N9+00001-00221100531ADDAY121061GF107991061051008001031001KA1999N-00111MD1310141+9999
0051108650999991929111512004+48183+011550FM-12+015599999V0202901N00261007801CN0100001N9+00221-00331100781ADDAY111061GF107991061051008001021001MD1310141+9999
0064108650999991929111606004+48183+011550FM-12+015599999V0209999900461036001CN0040001N9-00221-00561100661ADDAY111061GF107991041051012501021001KA1999N-00611MD1710141+9999
0057108650999991929111612004+48183+011550FM-12+015599999V0201101N00261007801CN0040001N9+00221-00331100331ADDAY121061GF108991061061008001021001MD1810141+9999MW1231
0064108650999991929111706004+48183+011550FM-12+015599999V0209999900461036001CN0500001N9+00501+00111100551ADDAY121061GF107991041051008001021001KA1999N+00111MD1310141+9999
0051108650999991929111712004+48183+011550FM-12+015599999V0202701N009319999999N0500001N9+00721+00111100801ADDAY111061GF107991999061004501001001MD1310061+9999
0064108650999991929111806004+48183+011550FM-12+015599999V0209999900101015001CN0020001N9+00001-00061101501ADDAY111061GF106991061051017501001001KA1999N-00221MD1310201+9999
0051108650999991929111812004+48183+011550FM-12+015599999V0202901N00261007801CN0100001N9+00501-00111101711ADDAY111061GF107991061051008001031001MD1310141+9999
