0081108650999991926010106004+48183+011550FM-12+015599999V0209999900931004501CN0200001N9+00501+00281102241ADDAA199002091AY181061GF108991081061004501999999KA1999N+00281MD1310141+9999MW1811
0050108650999991926010206004+48183+011550FM-12+015599999V0209999900261036001CN0100001N9+00001-00061101751ADDAY111061GF107991041051012501021001KA1999N-00111
0081108650999991926010306004+48183+011550FM-12+015599999V0209999900931004501CN0200001N9+00611+00391101141ADDAA199000691AY121061GF108991081061004501999999KA1999N+00501MD1310141+9999MW1601
0075108650999991926010406004+48183+011550FM-12+015599999V0209999900671007801CN0100001N9+00391+00331101091ADDAA199004091AY121061GF107991071061008001001001KA1999N+00111MD1310261+9999
0051108650999991926010412004+48183+011550FM-12+015599999V0202701N00671007801CN0100001N9+00501+00111101501ADDAY111061GF108991081051008001999999MD1310061+9999
0051108650999991926010506004+48183+011550FM-12+015599999V0209999900671007801CN0100001N9+00221+00171102001ADDAY181061GF108991081061008001999999MD1310061+9999
0043108650999991926010512004+48183+011550FM-12+015599999V0203201N00461007801CN0100001N9+00501+00281102081ADDAY161061GF108991061051008001021001MW1211
0075108650999991926010606004+48183+011550FM-12+015599999V0209999900261012301CN0040001N9+00221+00171102461ADDAA199001091AY111061GF107991071051012501001001KA1999N+00111MD1310061+9999
0075108650999991926010706004+48183+011550FM-12+015599999V0209999900261012301CN0200001N9+00611+00561102261ADDAA199001091AY181061GF108991081061012501999999KA1999N+00221MD1810061+9999
0051108650999991926010712004+48183+011550FM-12+015599999V0202701N00461007801CN0200001N9+00611+00391102471ADDAY111061GF107991071061008001001001MD1210141+9999
0075108650999991926010806004+48183+011550FM-12+015599999V0209999900261220001CN0200001N9+00111-00221102371ADDAA199000391AY111061GF102991021051008001001001KA1999N+00001MD1110141+9999
0061108650999991926010906004+48183+011550FM-12+015599999V0209999900461007801CN0100001N9-00281-00441102791ADDAA199000691AY111061GF107991999051008001001001KA1999N-00891
0050108650999991926011006004+48183+011550FM-12+015599999V0209999900101220001CN0500001N9-00721-00781103091ADDAY101061GF100991001001999999001001KA1999N-00781
0070108650999991926011106004+48183+011550FM-12+015599999V0209991C00001000151CN0010001N9-00221-00281102911ADDAY141061GF108991081051000251999999KA1999N-00281MD1810061+9999MW1101
0050108650999991926011206004+48183+011550FM-12+015599999V0209999900101220001CN0500001N9-01001-01441102911ADDAY101061GF101991011051008001001001KA1999N-01111
0057108650999991926011212004+48183+011550FM-12+015599999V0201101N00261012301CN0040001N9-00781-01281102911ADDAY171061GF106991061051012501001001MD1990141+9999MW1231
0064108650999991926011306004+48183+011550FM-12+015599999V0209999900461007801CN0040001N9-01501-01831102571ADDAY111061GF107991071051008001001001KA1999N-01501MD1710061+9999
0064108650999991926011406004+48183+011550FM-12+015599999V0209999900101220001CN0100001N9-01001-01171101141ADDAY111061GF104991041051008001999999KA1999N-01111MD1310141+9999
0051108650999991926011412004+48183+011550FM-12+015599999V0200901N00261220001CN0100001N9-00501-00831100841ADDAY111061GF107991001001999999001081MD1990061+9999
0056108650999991926011506004+48183+011550FM-12+015599999V0209999900261000151CN0020001N9-00501-00561100731ADDAY121061GF108991081051000251999999KA1999N-00781MW1471
0057108650999991926011512004+48183+011550FM-12+015599999V0202901N00461002401CN0010001N9-00501-00561101091ADDAY141061GF108991081051002501999999MD1110061+9999MW1101
0075108650999991926011606004+48183+011550FM-12+015599999V0209999900101012301CN0010001N9-01221-01281101511ADDAA199000591AY121061GF106991061051012501021001KA1999N-01781MD1810061+9999
0051108650999991926011612004+48183+011550FM-12+015599999V0201801N00101220001CN0040001N9-00221-00941101031ADDAY111061GF104991021051004501021001MD1810141+9999
0094108650999991926011706004+48183+011550FM-12+015599999V0209999900101004501CN0040001N9-00611-00671101101ADDAA199005091AY111061GF108991081051004501999999KA1999N+99999MD1310141+9999EQDQ01 -00282ATMN  
0051108650999991926011712004+48183+011550FM-12+015599999V0200901N00101004501CN0040001N9-00391-00561100931ADDAY111061GF108991081051004501999999MD1810201+9999
0089108650999991926011806004+48183+011550FM-12+015599999V0209999900101001501CN0040001N9-00501-00561100841ADDAY121061GF108991081051001501999999KA1999N+99999MD1310141+9999MW1451EQDQ01 -00282ATMN  
0057108650999991926011812004+48183+011550FM-12+015599999V0202901N00261000601CN0005001N9-00111-00171101431ADDAY171061GF108991081061000751999999MD1110061+9999MW1731
0075108650999991926011906004+48183+011550FM-12+015599999V0209999900101002401CN0100001N9-00221-00281101471ADDAA199002091AY121061GF108991081051002501999999KA1999N-00221MD1810141+9999
0051108650999991926011912004+48183+011550FM-12+015599999V0201801N00101012301CN0020001N9-00221-00281101151ADDAY121061GF106991061051012501001001MD1990341+9999
0081108650999991926012006004+48183+011550FM-12+015599999V0209999900671002401CN0020001N9+00111+00061101241ADDAA199004091AY161061GF108991081061002501999999KA1999N-00281MD1310201+9999MW1681
0051108650999991926012012004+48183+011550FM-12+015599999V0202501N00461007801CN0200001N9+00111-00111101401ADDAY111061GF107991071051008001001001MD1990061+9999
0094108650999991926012106004+48183+011550FM-12+015599999V0209999900101012301CN0040001N9-00221-00281101351ADDAA199015091AY121061GF107991071051012501001001KA1999N+99999MD1810061+9999EQDQ01 -04222ATMN  
0083108650999991926012206004+48183+011550FM-12+015599999V0209991C00001012301CN0040001N9-00391-00441102001ADDAY121061GF108991081051012501999999KA1999N+99999MD1310401+9999EQDQ01 +00502ATMN  
0094108650999991926012306004+48183+011550FM-12+015599999V0209991C00001220001CN0020001N9-01391-01561102711ADDAA199060091AY141061GF102991999001012501021001KA1999N+99999MD1810141+9999EQDQ01 +00722ATMN  
0064108650999991926012406004+48183+011550FM-12+015599999V0209999900101015001CN0500001N9-00781-00941101971ADDAY121061GF107991071051017501001001KA1999N-01281MD1510061+9999
0051108650999991926012412004+48183+011550FM-12+015599999V0202301N00101036001CN0040001N9+00281-00501101941ADDAY121061GF108991021051008001021001MD1110061+9999
0064108650999991926012506004+48183+011550FM-12+015599999V0209999900261220001CN0040001N9-00221-00391103271ADDAY101061GF101991999001022501031001KA1999N-00221MD1210061+9999
0037108650999991926012512004+48183+011550FM-12+015599999V0202501N00261220001CN0200001N9+00501-00281103141ADDAY101061GF101991001001999999001081
0050108650999991926012606004+48183+011550FM-12+015599999V0209999900101012301CN0500001N9+00281-00281102951ADDAY141061GF108991081051012501999999KA1999N-00221
0070108650999991926012706004+48183+011550FM-12+015599999V0209999900261000151CN0000501N9+00001-00061102731ADDAY141061GF108991081051000251999999KA1999N-00281MD1810141+9999MW1471
0057108650999991926012712004+48183+011550FM-12+015599999V0209991C00001000151CN0002001N9+00111+00061102501ADDAY141061GF108991081051000251999999MD1610141+9999MW1471
0051108650999991926012812004+48183+011550FM-12+015599999V0200501N00101220001CN0040001N9+00611+00221102461ADDAY121061GF108991001001999999001081MD1990141+9999
0070108650999991926012906004+48183+011550FM-12+015599999V0209999900101000151CN0005001N9-00111-00171101271ADDAY141061GF108991081051000251999999KA1999N-00221MD1810261+9999MW1471
0051108650999991926012912004+48183+011550FM-12+015599999V0202701N002619999999N0040001N9+00281+00061101231ADDAY141061GF108991999999008001999999MD1310141+9999
0075108650999991926013006004+48183+011550FM-12+015599999V0209999900261036001CN0040001N9+00221+00001101841ADDAA199003091AY121061GF107991041051017501031001KA1999N+00111MD1310061+9999
0085108650999991926013106004+48183+011550FM-12+015599999V0209991C00001220001CN0020001N9+99999+99999101231ADDAY101061GF102991021051008001001081KA1999N-00391EQDQ01 +03393ATOT  Q02 +03283ATOD  
0086108650999991926013112004+48183+011550FM-12+015599999V0202701N00101220001CN0100001N9+00502+00112101001ADDAY111061GF108991001001999999021081MD1810061+9999EQDQ01+027823ATOT  Q02+027433ATOD  
0070108650999991926020106004+48183+011550FM-12+015599999V0209991C00001220001CN0010001N9-00221-00281101351ADDAY101061GF102991001001999999001081KA1999N-00221MD1710061+9999MW1101
0051108650999991926020112004+48183+011550FM-12+015599999V0201401N002619999999N0040001N9+00501+00281999999ADDAY121061GF108991999999000751999999MD1710061+9999
0075108650999991926020206004+48183+011550FM-12+015599999V0209999900101036001CN0500001N9+00111+00061100801ADDAA199005091AY121061GF108991041051017501021001KA1999N+00001MD1810061+9999
0051108650999991926020212004+48183+011550FM-12+015599999V0200901N00101036001CN0100001N9+00501+00281100421ADDAY111061GF107991041051017501031001MD1710141+9999
0064108650999991926020306004+48183+011550FM-12+015599999V0209999900261220001CN0040001N9+00221+00171100201ADDAY101061GF102991001001999999001081KA1999N-00111MD1810201+9999
0051108650999991926020312004+48183+011550FM-12+015599999V0200901N002619999999N0200001N9+00721+00111099551ADDAY111061GF106991011051999999021001MD1810261+9999
0075108650999991926020406004+48183+011550FM-12+015599999V0209999900461220001CN0200001N9+00501+00281100341ADDAA199001091AY111061GF104991999001999999021001KA1999N+00391MD1310261+9999
0051108650999991926020412004+48183+011550FM-12+015599999V0202701N00461220001CN0500001N9+00891+00061100511ADDAY101061GF106991001001999999031081MD1110141+9999
0081108650999991926020506004+48183+011550FM-12+015599999V0209991C00001001501CN0010001N9+00281+00221101891ADDAA199000591AY161061GF108991081061001501999999KA1999N+00001MD1310141+9999MW1521
0057108650999991926020512004+48183+011550FM-12+015599999V0201801N00101001501CN0010001N9+00611+00561101681ADDAY161061GF108991081051001501999999MD1010061+9999MW1501
0070108650999991926020606004+48183+011550FM-12+015599999V0209999900261000151CN0000501N9+00221+00171101511ADDAY141061GF108991081061000251999999KA1999N+00001MD1610061+9999MW1471
0051108650999991926020612004+48183+011550FM-12+015599999V0200901N00261220001CN0100001N9+00721+00671101101ADDAY111061GF104991021051017501001081MD1810201+9999
0070108650999991926020706004+48183+011550FM-12+015599999V0209999900101001501CN0020001N9+00111+00061100821ADDAY141061GF108991081051001501999999KA1999N+00111MD1210201+9999MW1431
0051108650999991926020712004+48183+011550FM-12+015599999V0201601N00101090001CN0000001N9+01001+00611100991ADDAY111061GF106991011051022501001081MD1110061+9999
0061108650999991926020806004+48183+011550FM-12+015599999V0209999900261036001CN0040001N9+00501+00441101241ADDAA199001091AY121061GF108991041051022501021001KA1999N-00111
0057108650999991926020812004+48183+011550FM-12+015599999V0202701N00101007801CN0100001N9+00721+00671101181ADDAY121061GF108991081051008001999999MD1710061+9999MW1211
0056108650999991926020906004+48183+011550FM-12+015599999V0209999900101000151CN0005001N9-00221-00281100841ADDAY141061GF108991081051000251999999KA1999N-00221MW1471
0067108650999991926021006004+48183+011550FM-12+015599999V0209991C00001000151CN0002001N9+00001-00061100791ADDAA199002091AY181061GF108991081051000251999999KA1999N+00001MW1471
0056108650999991926021106004+48183+011550FM-12+015599999V0209991C00001000151CN0002001N9-00221-00281101131ADDAY141061GF108991081051000251999999KA1999N-00281MW1471
0070108650999991926021206004+48183+011550FM-12+015599999V0209991C00001000151CN0000501N9+00111+00061100971ADDAY141061GF108991081051000251999999KA1999N-00281MD1710061+9999MW1471
0064108650999991926021306004+48183+011550FM-12+015599999V0209999900101220001CN0040001N9-00221-00281101791ADDAY101061GF102991021051017501001001KA1999N-00281MD1210061+9999
0057108650999991926021312004+48183+011550FM-12+015599999V0200501N00101220001CN0002001N9+00781+00171101571ADDAY101061GF104991021051999999021001MD1010061+9999MW1161
0070108650999991926021406004+48183+011550FM-12+015599999V0209991C00001000151CN0000501N9-00111-00171102461ADDAY141061GF108991081051000251999999KA1999N-00221MD1310201+9999MW1471
0081108650999991926021506004+48183+011550FM-12+015599999V0209999900101000151CN0000501N9+00111+00061102871ADDAA199000691AY141061GF108991081051000251999999KA1999N+00001MD1110061+9999MW1431
0051108650999991926021512004+48183+011550FM-12+015599999V0200901N00101002401CN0040001N9+00221+00171102741ADDAY121061GF108991081051002501999999MD1810141+9999
0064108650999991926021606004+48183+011550FM-12+015599999V0209991C00001220001CN0500001N9-00111-00171102131ADDAY111061GF106991999001999999031001KA1999N-00221MD1810061+9999
0043108650999991926021612004+48183+011550FM-12+015599999V0202501N00461036001CN0040001N9+00501+00281102001ADDAY161061GF108991041061004501021001MW1611
0075108650999991926021706004+48183+011550FM-12+015599999V0209999900261012301CN0100001N9+00111+00061102021ADDAA199002091AY121061GF108991061051012501021001KA1999N+00001MD1710061+9999
0051108650999991926021712004+48183+011550FM-12+015599999V0202701N00671036001CN0500001N9+00891-00501101621ADDAY111061GF106991021061012501021001MD1990061+9999
0064108650999991926021806004+48183+011550FM-12+015599999V0209999901541036001CN0500001N9+00781-00061100661ADDAY121061GF108991041051008001021001KA1999N+00501MD1610141+9999
0037108650999991926021812004+48183+011550FM-12+015599999V0202901N01541007801CN0500001N9+00781-00061100701ADDAY121061GF108991061051008001021001
0075108650999991926021906004+48183+011550FM-12+015599999V0209999900101036001CN0100001N9+00111-00221101861ADDAA199001091AY121061GF108991041051008001021001KA1999N+00001MD1810061+9999
0081108650999991926022006004+48183+011550FM-12+015599999V0209999900671004501CN0100001N9+00721+00331102121ADDAA199004091AY181061GF108991081061004501999999KA1999N+00501MD1310261+9999MW1521
0050108650999991926022106004+48183+011550FM-12+015599999V0209999900101220001CN0040001N9+00111+00061102591ADDAY101061GF102991001001999999001081KA1999N-00221
0050108650999991926022206004+48183+011550FM-12+015599999V0209991C000019999999N0200001N9+00001-00061102381ADDAY121061GF108991999001022501021001KA1999N-00281
0081108650999991926022306004+48183+011550FM-12+015599999V0209991C00001220001CN0000501N9-00111-00171103001ADDAA199000691AY141061GF104991001001999999001091KA1999N-00221MD1310141+9999MW1451
0051108650999991926022312004+48183+011550FM-12+015599999V0202901N00101220001CN0100001N9+01001-00111102731ADDAY111061GF104991041011012501001081MD1710061+9999
0050108650999991926022406004+48183+011550FM-12+015599999V0209991C00001220001CN0040001N9+00391+00331102821ADDAY121061GF108991001001999999021081KA1999N+00281
0081108650999991926022506004+48183+011550FM-12+015599999V0209991C00001000151CN0005001N9+00001-00061103041ADDAA199000691AY141061GF108991081051000251999999KA1999N-00221MD1210061+9999MW1471
0037108650999991926022512004+48183+011550FM-12+015599999V0203601N002619999999N0200001N9+01001+00391102901ADDAY111061GF106991999051012501001001
0056108650999991926022606004+48183+011550FM-12+015599999V0209999900101000151CN0020001N9+00221+00171103191ADDAY141061GF108991081051000251999999KA1999N+00001MW1431
0051108650999991926022612004+48183+011550FM-12+015599999V0201401N00261036001CN0040001N9+00781+00171103041ADDAY121061GF106991041051017501021001MD1010061+9999
0075108650999991926022706004+48183+011550FM-12+015599999V0209991C00001007801CN0100001N9+00111+00061103641ADDAA199000691AY121061GF108991081051008001999999KA1999N+00001MD1310061+9999
0051108650999991926022712004+48183+011550FM-12+015599999V0201401N00261220001CN0100001N9+00721-00331103151ADDAY101061GF102991999001999999031001MD1810141+9999
0064108650999991926022806004+48183+011550FM-12+015599999V0209999900101002401CN0040001N9+00281+00221102821ADDAY121061GF108991061051002501031001KA1999N+00001MD1810061+9999
0057108650999991926022812004+48183+011550FM-12+015599999V0209991C00001002401CN0020001N9+00611+00561102521ADDAY171061GF108991081061002501999999MD1810141+9999MW1631
0081108650999991926030106004+48183+011550FM-12+015599999V0209999900101015001CN0020001N9+00281+00221102951ADDAA199007091AY161061GF108991081061017501999999KA1999N+00221MD1310141+9999MW1611
0051108650999991926030112004+48183+011550FM-12+015599999V0201801N00261036001CN0020001N9+00391+00171103171ADDAY121061GF108991041061008001021001MD1010061+9999
0061108650999991926030206004+48183+011550FM-12+015599999V0209999900261015001CN0020001N9+00281+00221103231ADDAA199002091AY121061GF108991081051017501999999KA1999N+00221
0011108650999991926030212004+48183+011550FM-12+015599999V0202701N004619999999N0040001N9+00781+99999102971ADDAY171061
0075108650999991926030306004+48183+011550FM-12+015599999V0209999900101220001CN0040001N9+00281+00221102711ADDAA199000691AY111061GF104991999001022501031091KA1999N+00281MD1810061+9999
0050108650999991926030406004+48183+011550FM-12+015599999V0209999900671220001CN0100001N9+00611+00391101771ADDAY111061GF104991001001999999021081KA1999N+00391
0051108650999991926030412004+48183+011550FM-12+015599999V0202501N01541220001CN0200001N9+01001+00111101241ADDAY111061GF104991041051017501001001MD1810201+9999
0067108650999991926030506004+48183+011550FM-12+015599999V0209999900671000601CN0010001N9+00111+00061100431ADDAA199003091AY171061GF108991081061000751999999KA1999N+00001MW1731
0051108650999991926030512004+48183+011550FM-12+015599999V0203201N00671007801CN0200001N9+00111-01501101061ADDAY121061GF108991071051008001021001MD1310201+9999
0064108650999991926030606004+48183+011550FM-12+015599999V0209999900461220001CN0500001N9-00221-00391102341ADDAY111061GF108991001001999999001081KA1999N-00281MD1990061+9999
0067108650999991926030706004+48183+011550FM-12+015599999V0209999900671004501CN0020001N9+00391+00331101431ADDAA199001091AY181061GF108991061061004501021001KA1999N+00111MW1801
0043108650999991926030712004+48183+011550FM-12+015599999V0203401N01541036001CN0005001N9+00391+00171101631ADDAY171061GF108991041061002501021001MW1681
0067108650999991926030806004+48183+011550FM-12+015599999V0209999900671036001CN0040001N9+00391+00331102391ADDAA199001091AY181061GF108991041061004501021001KA1999N+00111MW1801
0051108650999991926030812004+48183+011550FM-12+015599999V0202701N00461012301CN0100001N9+00781+00721102601ADDAY161061GF108991081061012501999999MD1310141+9999
0061108650999991926030906004+48183+011550FM-12+015599999V0209999900461012301CN0100001N9+00721+00501102961ADDAA199000591AY111061GF106991061051012501001001KA1999N+00611
0051108650999991926030912004+48183+011550FM-12+015599999V0202701N00931036001CN0200001N9+01001+00391102441ADDAY121061GF106991041051022501021001MD1810261+9999
0081108650999991926031006004+48183+011550FM-12+015599999V0209999900261036001CN0100001N9+00111+00061102171ADDAA199000591AY171061GF108991021091008001021001KA1999N+00001MD1110141+9999MW1231
0037108650999991926031012004+48183+011550FM-12+015599999V0202701N004619999999N0200001N9+00391+99999102031ADDAY111061GF106991999999012501999999
0075108650999991926031106004+48183+011550FM-12+015599999V0209999900261012301CN0200001N9-00111-00281103351ADDAA199001091AY171061GF107991071051012501001001KA1999N-00281MD1310261+9999
0051108650999991926031112004+48183+011550FM-12+015599999V0202701N00671007801CN0100001N9+00221+00001103491ADDAY121061GF107991061051008001021001MD1110141+9999
0057108650999991926031206004+48183+011550FM-12+015599999V0209999900671007801CN0200001N9+00221+00171102871ADDAY171061GF108991999051008001001001MD1610061+9999MW1601
0061108650999991926031306004+48183+011550FM-12+015599999V0209999900671036001CN0040001N9+00501+00441102971ADDAA199000391AY121061GF108991041051012501021001KA1999N+00391
0043108650999991926031312004+48183+011550FM-12+015599999V0202501N00461012301CN9999999N9+00721+00331102821ADDAY121061GF108991061051012501021001MW1461
0050108650999991926031406004+48183+011550FM-12+015599999V0209999900261012301CN0200001N9+00501+00281102791ADDAY121061GF108991081051012501999999KA1999N-00111
0075108650999991926031506004+48183+011550FM-12+015599999V0209999900101012301CN0100001N9+00391+00171102131ADDAA199000691AY121061GF108991081051012501999999KA1999N+00281MD1810141+9999
0037108650999991926031512004+48183+011550FM-12+015599999V0202701N00461036001CN0200001N9+00611+00221102021ADDAY121061GF108991021051012501021001
0067108650999991926031606004+48183+011550FM-12+015599999V0209999900101000151CN0000501N9+00111+00061102131ADDAA199000691AY141061GF108991081051000251999999KA1999N+00001MW1451
0070108650999991926031706004+48183+011550FM-12+015599999V0209991C00001000151CN0000501N9-00391-00441102261ADDAY141061GF108991081051000251999999KA1999N-00501MD1810141+9999MW1451
0064108650999991926031806004+48183+011550FM-12+015599999V0209999900101012301CN0040001N9-00221-00281101461ADDAY141061GF106991061051012501001001KA1999N-00501MD1610061+9999
0050108650999991926031906004+48183+011550FM-12+015599999V0209991C00001220001CN0100001N9-00391-00441101661ADDAY101061GF100991001001999999001001KA1999N-00611
0037108650999991926031912004+48183+011550FM-12+015599999V0200901N00101220001CN0200001N9+00611-00171101621ADDAY111061GF104991041011008001001001
0050108650999991926032006004+48183+011550FM-12+015599999V0209991C00001021001CN0040001N9+00001-00061101901ADDAY111061GF107991061051022501031001KA1999N-00111
0037108650999991926032012004+48183+011550FM-12+015599999V0200501N00261015001CN0040001N9+00391-00171101711ADDAY111061GF107991071051017501001001
0067108650999991926032106004+48183+011550FM-12+015599999V0209999901541002401CN0005001N9-00391-00441101721ADDAA199003091AY171061GF108991081061002501999999KA1999N-00391MW1711
0067108650999991926032206004+48183+011550FM-12+015599999V0209999900461004501CN0040001N9-00221-00391101491ADDAA199000691AY121061GF108991999061004501001001KA1999N-00281MW1701
0057108650999991926032212004+48183+011550FM-12+015599999V0200701N00671002401CN0040001N9-00111-00441101551ADDAY171061GF108991081061002501999999MD1310061+9999MW1711
0061108650999991926032306004+48183+011550FM-12+015599999V02099999004619999999N0040001N9-00221-00391101701ADDAA199017091AY121061GF108991081061999999999999KA1999N-00281
0037108650999991926032312004+48183+011550FM-12+015599999V0200901N00671015001CN0040001N9+00221-00331101621ADDAY111061GF106991061051017501001001
0050108650999991926032406004+48183+011550FM-12+015599999V0209999900261002401CN0020001N9-00221-00281101581ADDAY121061GF108991081051002501999999KA1999N-00281
0051108650999991926032412004+48183+011550FM-12+015599999V0200701N00261220001CN0100001N9+00501-00111101261ADDAY101061GF101991999001999999031001MD1990141+9999
0070108650999991926032506004+48183+011550FM-12+015599999V0209991C00001220001CN0010001N9-00391-00441101391ADDAY141061GF100991001001999999001001KA1999N-00611MD1310061+9999MW1101
0037108650999991926032512004+48183+011550FM-12+015599999V0209991C00001220001CN0100001N9+00891+00061101141ADDAY111061GF106991001001999999001081
0050108650999991926032606004+48183+011550FM-12+015599999V0209991C00001220001CN0040001N9-00111-00171101331ADDAY101061GF102991001001999999021081KA1999N-00501
0051108650999991926032612004+48183+011550FM-12+015599999V0200901N00461220001CN0200001N9+01221+00331100881ADDAY111061GF104991999999999999001081MD1990141+9999
0064108650999991926032706004+48183+011550FM-12+015599999V0209991C00001220001CN0020001N9+00111+00061101061ADDAY101061GF101991001001999999001081KA1999N+00001MD1810061+9999
0050108650999991926032806004+48183+011550FM-12+015599999V0209991C00001220001CN0500001N9+00281+00221100401ADDAY121061GF108991999001999999021001KA1999N+00001
0051108650999991926032812004+48183+011550FM-12+015599999V0202701N001019999999N0200001N9+01111+00501100191ADDAY121061GF108991999999022501999999MD1990061+9999
0081108650999991926032906004+48183+011550FM-12+015599999V0209999900101220001CN0020001N9+00721+00671100421ADDAA199005091AY181061GF107991001001999999031091KA1999N+00611MD1310061+9999MW1451
0051108650999991926032912004+48183+011550FM-12+015599999V0201401N00101090001CN0200001N9+01721+00831100151ADDAY111061GF106991021011022501001081MD1810141+9999
0064108650999991926033006004+48183+011550FM-12+015599999V0209999900101036001CN0500001N9+00781+00561100441ADDAY111061GF107991021051022501021001KA1999N+00611MD1310141+9999
0051108650999991926033012004+48183+011550FM-12+015599999V0202301N00261012301CN0200001N9+01501+00831100501ADDAY121061GF108991061051012501021001MD1310061+9999
0081108650999991926033106004+48183+011550FM-12+015599999V0209999900101000151CN0000501N9+00781+00721100841ADDAA199000591AY101061GF108991081051000251999999KA1999N+00721MD1310261+9999MW1451
0051108650999991926033112004+48183+011550FM-12+015599999V0203601N004619999999N0200001N9+01221+01171101621ADDAY121061GF107991999999022501999999MD1990061+9999
0056108650999991926040106004+48183+011550FM-12+015599999V0209991C00001000151CN0000501N9+00891+00831102381ADDAY141061GF108991081051000251999999KA1999N+00001MW1451
0037108650999991926040112004+48183+011550FM-12+015599999V0200901N00101220001CN0040001N9+01611+00721102031ADDAY101061GF102991021011999999001001
0064108650999991926040206004+48183+011550FM-12+015599999V0209991C00001220001CN0200001N9+00281+00221102671ADDAY101061GF100991001001999999001001KA1999N-00111MD1310141+9999
0050108650999991926040306004+48183+011550FM-12+015599999V0209991C00001220001CN0100001N9+00391+00331102921ADDAY101061GF102991001001999999001081KA1999N-00111
0051108650999991926040312004+48183+011550FM-12+015599999V0200901N00671220001CN0200001N9+01721+00831102511ADDAY101061GF102991001001999999001021MD1810061+9999
0050108650999991926040406004+48183+011550FM-12+015599999V0209999900261220001CN0500001N9+00111-01501102841ADDAY101061GF100991001001999999001001KA1999N-00221
0070108650999991926040412004+48183+011550FM-12+015599999V0200501N00261220001CN0200001N9+01391+00502102521ADDAY101061GF100991001001999999001001MD1990061+9999EQDQ01+027823ATOD  
0050108650999991926040506004+48183+011550FM-12+015599999V0209991C00001036001CN0200001N9+00891+00831102781ADDAY111061GF107991041051022501021001KA1999N+00391
0051108650999991926040512004+48183+011550FM-12+015599999V0200501N00101220001CN0040001N9+01721+00831102531ADDAY101061GF104991041011001501001081MD1990061+9999
0064108650999991926040606004+48183+011550FM-12+015599999V0209991C00001220001CN0040001N9+00721+00671102481ADDAY141061GF102991999001022501031001KA1999N+00281MD1610061+9999
0051108650999991926040612004+48183+011550FM-12+015599999V0201401N00261220001CN0100001N9+01891+00941102071ADDAY101061GF104991021011012501031001MD1990141+9999
0064108650999991926040706004+48183+011550FM-12+015599999V0209999900101220001CN0040001N9+00781+00721101951ADDAY121061GF102991011011022501001091KA1999N+00501MD1810061+9999
0051108650999991926040712004+48183+011550FM-12+015599999V0203601N00461220001CN0200001N9+02111+00891101471ADDAY101061GF102991021011022501001001MD1810141+9999
0061108650999991926040806004+48183+011550FM-12+015599999V0209999900261004501CN0200001N9+01001+00941101761ADDAA199000691AY111061GF108991081061004501999999KA1999N+00891
0051108650999991926040812004+48183+011550FM-12+015599999V0203201N00461015001CN0500001N9+01721+01061101461ADDAY121061GF106991061051017501021001MD1810201+9999
0075108650999991926040906004+48183+011550FM-12+015599999V0209999900461007801CN0500001N9+00501+00111101231ADDAA199000691AY161061GF108991061051008001021001KA1999N+00111MD1310141+9999
0057108650999991926040912004+48183+011550FM-12+015599999V0203201N00261007801CN0100001N9+00501+00281101301ADDAY121061GF106991061051008001001001MD1610061+9999MW1211
0075108650999991926041006004+48183+011550FM-12+015599999V0209999900461220001CN0100001N9+00391+00331101641ADDAA199001091AY111061GF102991021051008001001021KA1999N+00111MD1310061+9999
0067108650999991926041106004+48183+011550FM-12+015599999V02099999001019999999N0040001N9+00391+00331101711ADDAA199001091AY181061GF106991999061004501001001KA1999N+00391MW1211
0050108650999991926041206004+48183+011550FM-12+015599999V0209999900261220001CN0040001N9+00221+00171101951ADDAY141061GF104991041051017501001001KA1999N-00111
0051108650999991926041212004+48183+011550FM-12+015599999V0200601N02261220001CN0100001N9+01221+00331101581ADDAY101061GF101991011011022501001001MD1810061+9999
0064108650999991926041306004+48183+011550FM-12+015599999V0209991C00001220001CN0500001N9+00221-00171102001ADDAY101061GF100991001001999999001001KA1999N+00221MD1310141+9999
0037108650999991926041312004+48183+011550FM-12+015599999V0200501N00261220001CN0200001N9+01501+00331101861ADDAY101061GF101991999001999999031001
0064108650999991926041406004+48183+011550FM-12+015599999V0209991C00001220001CN0100001N9+00111-00111102601ADDAY101061GF101991999001999999021001KA1999N-00501MD1310141+9999
0051108650999991926041412004+48183+011550FM-12+015599999V0209991C00001220001CN0200001N9+01721+00171102521ADDAY101061GF100991001001999999001001MD1010001+9999
0050108650999991926041506004+48183+011550FM-12+015599999V0209991C00001220001CN0040001N9+00281-00111102381ADDAY101061GF100991001001999999001001KA1999N-00391
0051108650999991926041512004+48183+011550FM-12+015599999V0200201N00261220001CN0100001N9+01891-00111101871ADDAY101061GF100991001001999999001001MD1810201+9999
0064108650999991926041606004+48183+011550FM-12+015599999V0209999900101220001CN0040001N9+00721+00331101531ADDAY101061GF102991999001999999031001KA1999N+00111MD1610061+9999
0051108650999991926041612004+48183+011550FM-12+015599999V0202901N004619999999N0200001N9+01721-00831101261ADDAY111061GF106991999999000751999999MD1990061+9999
0081108650999991926041706004+48183+011550FM-12+015599999V0209999900261012301CN0040001N9+00721+00501100871ADDAA199005091AY181061GF107991061061012501021001KA1999N+00721MD1210061+9999MW1631
0029108650999991926041712004+48183+011550FM-12+015599999V0202701N004619999999N0040001N9+00781+00391100951ADDGF108991999061012501001001
0075108650999991926041806004+48183+011550FM-12+015599999V0209999900101220001CN0040001N9+00391+00171100791ADDAA199003091AY111061GF101991001001999999001081KA1999N+00111MD1810061+9999
0051108650999991926041812004+48183+011550FM-12+015599999V0203201N002619999999N0200001N9+01111+00001100431ADDAY111061GF106991999061017501001001MD1810141+9999
0075108650999991926041906004+48183+011550FM-12+015599999V0209999900461012301CN0200001N9+00721+00501100201ADDAA199002091AY111061GF108991061051012501021001KA1999N+00111MD1610061+9999
0051108650999991926041912004+48183+011550FM-12+015599999V0209991C00001036001CN0500001N9+01391+00501099931ADDAY121061GF107991041051012501021001MD1990141+9999
0075108650999991926042006004+48183+011550FM-12+015599999V0209999900261015001CN0040001N9+00501+00281100701ADDAA199011091AY121061GF108991081051017501999999KA1999N+00281MD1310061+9999
0051108650999991926042012004+48183+011550FM-12+015599999V0202301N00261090001CN0100001N9+01001+00391100571ADDAY111061GF106991041051017501001081MD1990061+9999
0081108650999991926042106004+48183+011550FM-12+015599999V0209999900261004501CN0500001N9+00501+00281099911ADDAA199000691AY161061GF107991061061004501021001KA1999N+00111MD1810061+9999MW1211
0064108650999991926042206004+48183+011550FM-12+015599999V0209999900261220001CN0040001N9+00611+00221100431ADDAY111061GF106991001001999999031081KA1999N+00111MD1310061+9999
0067108650999991926042306004+48183+011550FM-12+015599999V0209991C00001012301CN0020001N9+00501+00441101131ADDAA199000691AY141061GF108991081051012501999999KA1999N+00391MW1451
0051108650999991926042312004+48183+011550FM-12+015599999V0200901N00101021001CN0200001N9+00781+00391101431ADDAY121061GF108991999051022501001001MD1310141+9999
0064108650999991926042506004+48183+011550FM-12+015599999V0209999900931220001CN0500001N9+01611+00941099461ADDAY101061GF104991001001999999021081KA1999N+01111MD1710261+9999
0064108650999991926042606004+48183+011550FM-12+015599999V0209999900101220001CN0500001N9+00891+00441100521ADDAY111061GF106991001001999999031081KA1999N+00611MD1310201+9999
0043108650999991926042612004+48183+011550FM-12+015599999V0203401N00261090001CN0200001N9+99999+99999100711ADDGF106991041051022501001081MD1110061+9999
0075108650999991926042706004+48183+011550FM-12+015599999V0209991C00001007801CN0020001N9+00721+00501101801ADDAA199001091AY121061GF108991081051008001999999KA1999N+00611MD1310061+9999
0051108650999991926042712004+48183+011550FM-12+015599999V0209991C00001007801CN0040001N9+01111+00501101681ADDAY141061GF108991999051008001001001MD1990061+9999
0056108650999991926042806004+48183+011550FM-12+015599999V0209991C00001036001CN0040001N9+00781+00721101721ADDAY141061GF108991041051008001021001KA1999N+00611MW1471
0037108650999991926042812004+48183+011550FM-12+015599999V0203401N001019999999N0100001N9+01281+99999101511ADDAY121061GF106991999999012501999999
0050108650999991926042906004+48183+011550FM-12+015599999V0209991C00001220001CN0020001N9+00781+00721101541ADDAY101061GF102991999001999999031001KA1999N+00001
0050108650999991926043006004+48183+011550FM-12+015599999V0209999900101220001CN0200001N9+01001+00391101401ADDAY101061GF101991001001999999001021KA1999N+00221
0051108650999991926043012004+48183+011550FM-12+015599999V0200701N00101220001CN0200001N9+02391+01111101031ADDAY101061GF100991001001999999001001MD1810141+9999
0050108650999991926050106004+48183+011550FM-12+015599999V0209999900101220001CN0100001N9+01111+00891100861ADDAY121061GF108991999001999999021001KA1999N+00611
0064108650999991926050206004+48183+011550FM-12+015599999V0209999900261021001CN0200001N9+01501+01281100311ADDAY111061GF107991071051022501001001KA1999N+01221MD1210141+9999
0037108650999991926050212004+48183+011550FM-12+015599999V0202701N00461220001CN0500001N9+02281+01061100121ADDAY101061GF104991011061017501001081
0051108650999991926050312004+48183+011550FM-12+015599999V0203601N002619999999N0040001N9+01501+01061100731ADDAY111061GF106991999061012501001001MD1310061+9999
0067108650999991926050406004+48183+011550FM-12+015599999V0209999900101002401CN0040001N9+00781+00721100841ADDAA199000391AY141061GF108991081061002501999999KA1999N+00611MW1441
0043108650999991926050412004+48183+011550FM-12+015599999V0200501N00101000601CN0010001N9+01001+00941100801ADDAY141061GF108991081061000751999999MW1611
0067108650999991926050506004+48183+011550FM-12+015599999V0209991C00001002401CN0010001N9+00781+00721100831ADDAA199000591AY121061GF108991999061002501001001KA1999N+00721MW1101
0043108650999991926050512004+48183+011550FM-12+015599999V0203401N004619999999N0100001N9+01281+00831100701ADDAY121061GF106991999061004501001001MW1161
0081108650999991926050606004+48183+011550FM-12+015599999V0209999900261004501CN0020001N9+00891+00831100781ADDAA199000591AY121061GF108991081061004501999999KA1999N+00721MD1810061+9999MW1161
0037108650999991926050612004+48183+011550FM-12+015599999V0203201N00101007801CN0020001N9+01001+00781100641ADDAY121061GF108991061051008001021001
0075108650999991926050706004+48183+011550FM-12+015599999V02099999004619999999N0100001N9+00391+00171101321ADDAA199006091AY181061GF106991999061004501001001KA1999N+00281MD1310261+9999
0037108650999991926050712004+48183+011550FM-12+015599999V0203201N00261021001CN0100001N9+00721+00111101261ADDAY111061GF106991061051022501021001
0050108650999991926050806004+48183+011550FM-12+015599999V0209991C00001220001CN0100001N9+00221+00171101241ADDAY141061GF106991001001999999001081KA1999N-00221
0051108650999991926050812004+48183+011550FM-12+015599999V0209991C00001015001CN0040001N9+00891+00061101001ADDAY111061GF107991061051017501001081MD1810061+9999
0081108650999991926050906004+48183+011550FM-12+015599999V0209999900101004501CN0020001N9+00501+00441100961ADDAA199000591AY161061GF108991081061004501999999KA1999N+00001MD1810061+9999MW1611
0050108650999991926051106004+48183+011550FM-12+015599999V0209991C00001220001CN0040001N9+00611+00391101031ADDAY111061GF106991999001999999031001KA1999N+00001
0050108650999991926051206004+48183+011550FM-12+015599999V0209999900101220001CN0040001N9+00781+00391101511ADDAY101061GF100991001001999999001001KA1999N-00221
0050108650999991926051306004+48183+011550FM-12+015599999V0209991C00001012301CN0100001N9+01111+00891101601ADDAY111061GF107991061051012501021001KA1999N+00781
0067108650999991926051406004+48183+011550FM-12+015599999V0209999900101004501CN0040001N9+00891+00831101591ADDAA199004091AY161061GF108991081061004501999999KA1999N+00721MW1211
0051108650999991926051412004+48183+011550FM-12+015599999V0200901N00101007801CN0040001N9+01221+00781101331ADDAY121061GF108991061051008001021001MD1810141+9999
0070108650999991926051506004+48183+011550FM-12+015599999V0209991C00001000151CN0005001N9+00891+00831100421ADDAY141061GF108991081051000251999999KA1999N+00781MD1810141+9999MW1451
0051108650999991926051512004+48183+011550FM-12+015599999V0203601N00101007801CN0040001N9+01391+00941100041ADDAY121061GF108991061051008001021001MD1810141+9999
0064108650999991926051606004+48183+011550FM-12+015599999V0209999900461220001CN0500001N9+01391+00941099461ADDAY111061GF102991021051012501001001KA1999N+00721MD1990061+9999
0051108650999991926051612004+48183+011550FM-12+015599999V0201401N00931220001CN0500001N9+02391+01111098781ADDAY111061GF104991041051012501001001MD1990201+9999
0064108650999991926051706004+48183+011550FM-12+015599999V0209999900101220001CN0500001N9+01001+00781999999ADDAY101061GF100991001001999999001001KA1999N+00281MD1310201+9999
0057108650999991926051712004+48183+011550FM-12+015599999V0203601N001019999999N0100001N9+01501+00831100371ADDAY191061GF106991999091008001001001MD1310141+9999MW1171
0075108650999991926051806004+48183+011550FM-12+015599999V0209999900261002401CN0040001N9+00721+00671101261ADDAA199005091AY121061GF108991081061002501999999KA1999N+00501MD1310061+9999
0067108650999991926051906004+48183+011550FM-12+015599999V0209999900261004501CN0040001N9+00611+00561101591ADDAA199000691AY161061GF108991081061004501999999KA1999N+00501MW1511
0037108650999991926051912004+48183+011550FM-12+015599999V0203201N00101007801CN0040001N9+01001+00611101541ADDAY121061GF108991081051008001999999
0050108650999991926052006004+48183+011550FM-12+015599999V0209999900101220001CN0100001N9+01001+00611101771ADDAY111061GF102991001001999999001021KA1999N+00611
0051108650999991926052012004+48183+011550FM-12+015599999V0203401N00101021001CN0040001N9+01501+00611101571ADDAY111061GF106991061051022501001001MD1810061+9999
0070108650999991926052106004+48183+011550FM-12+015599999V0209999900101220001CN0020001N9+00721+00671101671ADDAY141061GF102991021051001501001001KA1999N+00111MD1310061+9999MW1451
0051108650999991926052112004+48183+011550FM-12+015599999V0203601N00261220001CN0100001N9+01781+00561101401ADDAY101061GF102991021011012501001001MD1990061+9999
0056108650999991926052206004+48183+011550FM-12+015599999V0209999900101220001CN0010001N9+00721+00671101591ADDAY141061GF107991999001999999031001KA1999N+00281MW1101
0061108650999991926052306004+48183+011550FM-12+015599999V0209999900101015001CN0200001N9+01111+01061101371ADDAA199014091AY111061GF107991061051017501001081KA1999N+01001
0051108650999991926052312004+48183+011550FM-12+015599999V0202301N00261007801CN0040001N9+01391+01171101431ADDAY191061GF106991061091008001001001MD1110061+9999
0075108650999991926052406004+48183+011550FM-12+015599999V0209999900101002401CN0020001N9+01001+00941101871ADDAA199000591AY141061GF107991071051002501001001KA1999N+00891MD1310061+9999
0050108650999991926052506004+48183+011550FM-12+015599999V0209999900101220001CN0100001N9+00891+00671102241ADDAY111061GF104991021051012501001081KA1999N+00391
0051108650999991926052512004+48183+011550FM-12+015599999V0203401N004619999999N0200001N9+01781+00891101971ADDAY111061GF106991999011012501001001MD1810061+9999
0050108650999991926052606004+48183+011550FM-12+015599999V0209991C00001220001CN0040001N9+00891+00671102351ADDAY101061GF100991001001999999001001KA1999N+00221
0051108650999991926052612004+48183+011550FM-12+015599999V0203401N00101220001CN0100001N9+01781+00891101751ADDAY101061GF104991041011017501001001MD1810141+9999
0064108650999991926052706004+48183+011550FM-12+015599999V0209991C00001220001CN0040001N9+01001+00781101711ADDAY101061GF102991001001999999001081KA1999N+00221MD1310061+9999
0050108650999991926052806004+48183+011550FM-12+015599999V0209999900461007801CN0040001N9+01501+01281101661ADDAY111061GF108991061051008001001081KA1999N+00891
0081108650999991926052906004+48183+011550FM-12+015599999V0209999900461007801CN0100001N9+01281+01221101231ADDAA199004091AY181061GF108991081061008001999999KA1999N+01111MD1810141+9999MW1211
0067108650999991926053006004+48183+011550FM-12+015599999V0209999900261004501CN0040001N9+01111+01061101601ADDAA199002091AY161061GF108991081061004501999999KA1999N+01001MW1611
0081108650999991926053106004+48183+011550FM-12+015599999V0209999900261004501CN0040001N9+01281+01221101231ADDAA199001091AY161061GF108991081061004501999999KA1999N+00781MD1010141+9999MW1631
0051108650999991926053112004+48183+011550FM-12+015599999V0201601N00101090001CN0200001N9+01111+00221101141ADDAY121061GF106991041051017501001081MD1810201+9999
0057108650999991926060106004+48183+011550FM-12+015599999V0209999900261036001CN0200001N9+01001+00781101501ADDAY161061GF107991021061004501021001MD1310141+9999MW1211
0064108650999991926060206004+48183+011550FM-12+015599999V0209999900101220001CN0200001N9+01001+00781101241ADDAY101061GF100991001001999999001001KA1999N+00391MD1810061+9999
0051108650999991926060212004+48183+011550FM-12+015599999V0209991C00261220001CN0500001N9+01891+00941100591ADDAY101061GF101991011011017501001001MD1810201+9999
0081108650999991926060306004+48183+011550FM-12+015599999V0209999900461004501CN0040001N9+00781+00721100731ADDAA199005091AY161061GF108991081061004501999999KA1999N+00781MD1810141+9999MW1631
0043108650999991926060312004+48183+011550FM-12+015599999V0202701N00261004501CN0010001N9+00891+00831100661ADDAY161061GF108991081061004501999999MW1631
0081108650999991926060406004+48183+011550FM-12+015599999V02099999001019999999N0100001N9+00611+00561100701ADDAA199027091AY161061GF108991999061012501001001KA1999N+00501MD1410001+9999MW1611
0057108650999991926060412004+48183+011550FM-12+015599999V0202301N006719999999N0500001N9+01001+00611100831ADDAY121061GF108991999061008001001001MD1310141+9999MW1161
0061108650999991926060506004+48183+011550FM-12+015599999V0209999900101004501CN0100001N9+01111+01061101091ADDAA199001091AY121061GF108991081051004501999999KA1999N+00501
0051108650999991926060512004+48183+011550FM-12+015599999V0202501N00261220001CN0100001N9+01721+01061100311ADDAY101061GF104991021051012501001081MD1810061+9999
0081108650999991926060606004+48183+011550FM-12+015599999V0209999900101036001CN0100001N9+01221+01171101271ADDAA199004091AY181061GF108991041061012501021001KA1999N+01001MD1310141+9999MW1211
0081108650999991926060706004+48183+011550FM-12+015599999V0209999900261001501CN0040001N9+01111+01061101531ADDAA199015091AY161061GF108991081061001501999999KA1999N+01001MD1310061+9999MW1611
0075108650999991926060806004+48183+011550FM-12+015599999V0209999900931004501CN0100001N9+01221+01171101751ADDAA199003091AY121061GF108991061051004501021001KA1999N+01001MD1010061+9999
0061108650999991926060906004+48183+011550FM-12+015599999V0209999900261036001CN0040001N9+01221+01171101751ADDAA199005091AY121061GF108991041051008001021001KA1999N+00891
0050108650999991926061006004+48183+011550FM-12+015599999V0209999900461220001CN0500001N9+01391+01171100881ADDAY111061GF104991001001999999031081KA1999N+00891
0050108650999991926061106004+48183+011550FM-12+015599999V0209999900461021001CN0500001N9+01221+01001101351ADDAY111061GF106991061051022501001001KA1999N+00891
0067108650999991926061206004+48183+011550FM-12+015599999V02099999002619999999N0500001N9+01391+01331101141ADDAA199003091AY161061GF107991999001017501021001KA1999N+01111MW1211
0075108650999991926061306004+48183+011550FM-12+015599999V0209991C00001220001CN0500001N9+01611+01331100561ADDAA199004091AY101061GF101991001001999999001021KA1999N+01001MD1810141+9999
0075108650999991926061406004+48183+011550FM-12+015599999V02099999002619999999N0500001N9+01111+01061100951ADDAA199004091AY121061GF107991041051999999021001KA1999N+01001MD1810141+9999
0061108650999991926061506004+48183+011550FM-12+015599999V0209999900461004501CN0100001N9+01111+01061100881ADDAA199001091AY121061GF108991071061004501021001KA1999N+00781
0081108650999991926061606004+48183+011550FM-12+015599999V0209999900671012301CN0020001N9+01001+00941101831ADDAA199001091AY181061GF108991061061012501021001KA1999N+00891MD1310061+9999MW1611
0067108650999991926061706004+48183+011550FM-12+015599999V0209999900261002401CN0020001N9+01221+01171101631ADDAA199001091AY121061GF108991081061002501999999KA1999N+01001MW1631
0081108650999991926061806004+48183+011550FM-12+015599999V0209999900261220001CN0500001N9+01281+01221100771ADDAA199002091AY161061GF108991999001999999021001KA1999N+01001MD1810201+9999MW1501
0081108650999991926061906004+48183+011550FM-12+015599999V02099999002619999999N0040001N9+01001+00941101061ADDAA199000391AY181061GF108991999061002501001001KA1999N+00891MD1310141+9999MW1601
0075108650999991926062006004+48183+011550FM-12+015599999V0209999900101007801CN0020001N9+01221+01171102261ADDAA199000391AY141061GF107991071051008001001001KA1999N+01001MD1210141+9999
0056108650999991926062106004+48183+011550FM-12+015599999V0209999900101007801CN0010001N9+01391+01331102351ADDAY141061GF108991081051008001999999KA1999N+01001MW1101
0064108650999991926062206004+48183+011550FM-12+015599999V0209991C00001220001CN0100001N9+01501+01441101471ADDAY141061GF101991011051022501001001KA1999N+01001MD1710061+9999
0064108650999991926062306004+48183+011550FM-12+015599999V0209999900101001501CN0020001N9+01391+01331101321ADDAY141061GF108991081051001501999999KA1999N+01281MD1310061+9999
0081108650999991926062406004+48183+011550FM-12+015599999V02099999001019999999N0010001N9+01391+01331101241ADDAA199000391AY181061GF107991999061001501001001KA1999N+01111MD1410001+9999MW1631
0081108650999991926062506004+48183+011550FM-12+015599999V0209999900261004501CN0020001N9+01391+01331101671ADDAA199010091AY161061GF108991999061004501001001KA1999N+00891MD1310061+9999MW1631
0075108650999991926062606004+48183+011550FM-12+015599999V0209999900261007801CN0040001N9+00891+00671102331ADDAA199004091AY121061GF108991081051008001999999KA1999N+00721MD1310141+9999
0064108650999991926062706004+48183+011550FM-12+015599999V0209991C00001220001CN0040001N9+00891+00671102501ADDAY101061GF100991001001999999001001KA1999N+00721MD1310061+9999
0050108650999991926062806004+48183+011550FM-12+015599999V0209991C00001220001CN0200001N9+01111+00671102531ADDAY111061GF104991999001999999031001KA1999N+00391
0050108650999991926062906004+48183+011550FM-12+015599999V0209991C00001220001CN0040001N9+01111+01061102641ADDAY141061GF104991001001999999001091KA1999N+00611
0050108650999991926063006004+48183+011550FM-12+015599999V0209999900101220001CN0040001N9+01111+00891102611ADDAY101061GF100991001001999999001001KA1999N+00611
0064108650999991926070106004+48183+011550FM-12+015599999V0209999900101220001CN0200001N9+01221+00781101951ADDAY111061GF104991021011008001031001KA1999N+00891MD1210061+9999
0051108650999991926070112004+48183+011550FM-12+015599999V0200501N00101036001CN0040001N9+01611+00941101661ADDAY111061GF108991041061012501021001MD1810061+9999
0061108650999991926070206004+48183+011550FM-12+015599999V0209999900101001501CN0020001N9+01501+01441101621ADDAA199001091AY161061GF108991081051001501999999KA1999N+01281
0061108650999991926070306004+48183+011550FM-12+015599999V02099999001019999999N0040001N9+01611+01561101631ADDAA199006091AY111061GF107991999061012501001001KA1999N+00391
0050108650999991926070406004+48183+011550FM-12+015599999V0209991C00001004501CN0020001N9+01501+01441101351ADDAY111061GF108991999051004501001001KA1999N+01221
0061108650999991926070506004+48183+011550FM-12+015599999V0209999900261036001CN0040001N9+01611+01561101201ADDAA199003091AY111061GF108991041051022501021001KA1999N+01391
0061108650999991926070606004+48183+011550FM-12+015599999V0209991C00001220001CN0010001N9+01611+01561101151ADDAA199000691AY141061GF101991001001999999001081KA1999N+01221
0050108650999991926070706004+48183+011550FM-12+015599999V0209991C00001220001CN0010001N9+01611+01561101061ADDAY181061GF106991001001999999001091KA1999N+01221
0051108650999991926070712004+48183+011550FM-12+015599999V0200501N00101012301CN0100001N9+02391+01721100711ADDAY111061GF106991061011012501001001MD1810061+9999
0050108650999991926070806004+48183+011550FM-12+015599999V0209999900461036001CN0040001N9+01611+01561101071ADDAY121061GF108991041061008001021001KA1999N+01391
0081108650999991926070906004+48183+011550FM-12+015599999V0209999900461000601CN0005001N9+01501+01441101401ADDAA199034091AY161061GF108991081061000751999999KA1999N+01501MD1310061+9999MW1631
0057108650999991926070912004+48183+011550FM-12+015599999V0202501N00461000601CN0002001N9+01611+01561101501ADDAY161061GF108991081061000751999999MD1310061+9999MW1631
0081108650999991926071006004+48183+011550FM-12+015599999V0209999900461001501CN0010001N9+01611+01561101601ADDAA199004091AY161061GF108991071061001501021001KA1999N+01501MD1310061+9999MW1211
0061108650999991926071106004+48183+011550FM-12+015599999V0209999900461220001CN0200001N9+01281+01221102271ADDAA199008091AY111061GF104991021061008001001091KA1999N+01001
0061108650999991926071206004+48183+011550FM-12+015599999V0209991C000019999999N0020001N9+01281+01061102211ADDAA199000591AY141061GF108991001001008001999999KA1999N+01111
0050108650999991926071306004+48183+011550FM-12+015599999V0209999900461220001CN0100001N9+01611+01331102071ADDAY101061GF101991001001999999001081KA1999N+01221
0050108650999991926071406004+48183+011550FM-12+015599999V0209999900461220001CN0500001N9+01721+01501101751ADDAY101061GF102991001001999999001021KA1999N+01281
0064108650999991926071506004+48183+011550FM-12+015599999V0209991C00001220001CN0100001N9+01781+01561101351ADDAY111061GF106991999001999999031001KA1999N+01281MD1510001+9999
0067108650999991926071606004+48183+011550FM-12+015599999V02099999002619999999N0040001N9+01611+01561101461ADDAA199001091AY121061GF108991999061022501001001KA1999N+01001MW1501
0064108650999991926071706004+48183+011550FM-12+015599999V0209991C00001220001CN0040001N9+01611+01331101911ADDAY101061GF102991999001999999031001KA1999N+01281MD1310061+9999
0064108650999991926071806004+48183+011550FM-12+015599999V0209991C00001220001CN0020001N9+01611+01331101991ADDAY101061GF100991001001999999001001KA1999N+01111MD1310061+9999
0064108650999991926071906004+48183+011550FM-12+015599999V0209999900101220001CN0100001N9+01781+01561101511ADDAY111061GF104991001001999999021081KA1999N+01281MD1810061+9999
0067108650999991926072006004+48183+011550FM-12+015599999V0209999900101004501CN0020001N9+01391+01331101321ADDAA199022091AY161061GF108991081061004501999999KA1999N+01391MW1631
0051108650999991926072012004+48183+011550FM-12+015599999V0202301N01541220001CN0500001N9+02111+01441101301ADDAY111061GF104991041051017501001081MD1810061+9999
0081108650999991926072106004+48183+011550FM-12+015599999V0209999900931004501CN0020001N9+01781+01721101671ADDAA199015091AY161061GF108991081061004501999999KA1999N+01281MD1310141+9999MW1601
0070108650999991926072206004+48183+011550FM-12+015599999V02099999009319999999N0040001N9+01501+01061101301ADDAY111061GF106991999061008001001001KA1999N+01111MD1810061+9999MW1161
0051108650999991926072212004+48183+011550FM-12+015599999V0202701N012319999999N0100001N9+01721+01061101461ADDAY111061GF106991999011012501001001MD1010141+9999
0064108650999991926072306004+48183+011550FM-12+015599999V0209999900671090001CN0200001N9+01391+01171102191ADDAY121061GF108991011051012501001081KA1999N+01001MD1210141+9999
0050108650999991926072406004+48183+011550FM-12+015599999V0209999900101220001CN0100001N9+01501+01441102001ADDAY101061GF100991001001999999001001KA1999N+01001
0064108650999991926072506004+48183+011550FM-12+015599999V0209999900461220001CN0500001N9+02001+01331100741ADDAY111061GF107991001001999999031081KA1999N+01721MD1710261+9999
0075108650999991926072606004+48183+011550FM-12+015599999V0209999900261007801CN0500001N9+01501+01281101581ADDAA199001091AY111061GF107991071051008001001001KA1999N+01221MD1310061+9999
0067108650999991926072706004+48183+011550FM-12+015599999V0209991C00001021001CN0040001N9+01391+01331101431ADDAA199001091AY181061GF107991061051022501021001KA1999N+01221MW1231
0067108650999991926072806004+48183+011550FM-12+015599999V0209999900261036001CN0020001N9+00891+00831101971ADDAA199003091AY161061GF108991041061004501021001KA1999N+00781MW1501
0067108650999991926072906004+48183+011550FM-12+015599999V0209999900671002401CN0100001N9+01001+00941101831ADDAA199001091AY161061GF108991081061002501999999KA1999N+00781MW1211
0067108650999991926073006004+48183+011550FM-12+015599999V0209999900671036001CN0040001N9+01111+01061101671ADDAA199000691AY181061GF108991041061004501021001KA1999N+00781MW1631
0075108650999991926073106004+48183+011550FM-12+015599999V0209999900461220001CN0020001N9+01221+01171102111ADDAA199009091AY121061GF104991041061002501999999KA1999N+01111MD1310061+9999
0064108650999991926080106004+48183+011550FM-12+015599999V0209999900261002401CN0020001N9+01281+01221102391ADDAY141061GF108991081051002501999999KA1999N+01111MD1310141+9999
0064108650999991926080206004+48183+011550FM-12+015599999V0209999900461002401CN0020001N9+01221+01171102271ADDAY141061GF108991081051002501999999KA1999N+01111MD1310061+9999
0056108650999991926080306004+48183+011550FM-12+015599999V0209991C00001000151CN0000001N9+01001+00941102271ADDAY141061GF108991081051000251999999KA1999N+00611MW1431
0050108650999991926080406004+48183+011550FM-12+015599999V0209999900101220001CN0040001N9+01111+01061101971ADDAY141061GF102991001001999999001081KA1999N+00611
0064108650999991926080506004+48183+011550FM-12+015599999V0209999900461220001CN0200001N9+01391+00941102041ADDAY101061GF102991999001999999031001KA1999N+01001MD1310141+9999
0061108650999991926080606004+48183+011550FM-12+015599999V0209999900101036001CN0040001N9+01391+01331102191ADDAA199004091AY111061GF108991021051012501021001KA1999N+01221
0064108650999991926080706004+48183+011550FM-12+015599999V0209991C00001220001CN0020001N9+01611+01561101931ADDAY141061GF102991999001999999031001KA1999N+00721MD1810061+9999
0075108650999991926080806004+48183+011550FM-12+015599999V0209999900461036001CN0100001N9+01001+00941101671ADDAA199002091AY121061GF108991041051008001021001KA1999N+00891MD1110061+9999
0075108650999991926080906004+48183+011550FM-12+015599999V0209999900461001501CN0020001N9+01111+01061102311ADDAA199006091AY121061GF108991081051001501999999KA1999N+01001MD1310061+9999
0050108650999991926081006004+48183+011550FM-12+015599999V0209999900101220001CN0020001N9+01111+01061102211ADDAY101061GF100991001001999999001001KA1999N+00501
0064108650999991926081106004+48183+011550FM-12+015599999V0209999900101220001CN0040001N9+01611+01171101431ADDAY111061GF104991021051022501001021KA1999N+01001MD1810061+9999
0067108650999991926081206004+48183+011550FM-12+015599999V0209999900671036001CN0100001N9+01391+01331101631ADDAA199004091AY181061GF108991021051017501021001KA1999N+01221MW1211
0061108650999991926081306004+48183+011550FM-12+015599999V0209999900101220001CN0100001N9+01281+01061102191ADDAA199001091AY111061GF101991999001999999031001KA1999N+00721
0050108650999991926081406004+48183+011550FM-12+015599999V0209999900101220001CN0100001N9+01501+01061101901ADDAY101061GF102991999001999999031001KA1999N+00721
0064108650999991926081506004+48183+011550FM-12+015599999V0209999900261220001CN0500001N9+01781+01561101911ADDAY101061GF102991021051022501001001KA1999N+01281MD1310201+9999
0050108650999991926081606004+48183+011550FM-12+015599999V0209991C00001220001CN0040001N9+01611+01561101831ADDAY141061GF101991001001999999001021KA1999N+01111
0050108650999991926081706004+48183+011550FM-12+015599999V0209999900101220001CN0100001N9+01781+01561101571ADDAY101061GF101991001001999999001021KA1999N+00891
0061108650999991926081806004+48183+011550FM-12+015599999V0209999900261090001CN0100001N9+01611+01561101771ADDAA199002091AY111061GF107991041051022501001021KA1999N+01391
0075108650999991926081906004+48183+011550FM-12+015599999V0209999900461220001CN0100001N9+01781+01561101761ADDAA199000391AY111061GF106991001001999999031081KA1999N+01391MD1310061+9999
0050108650999991926082006004+48183+011550FM-12+015599999V0209991C00001220001CN0100001N9+01501+01441102161ADDAY111061GF104991021051022501001091KA1999N+01281
0061108650999991926082106004+48183+011550FM-12+015599999V0209999900261220001CN0100001N9+01721+01501101931ADDAA199000691AY111061GF104991041051017501999999KA1999N+01391
0050108650999991926082206004+48183+011550FM-12+015599999V0209999901231220001CN0200001N9+02111+01671101591ADDAY111061GF104991999001999999031001KA1999N+01891
0075108650999991926082306004+48183+011550FM-12+015599999V0209999900671220001CN0200001N9+01391+01171102521ADDAA199003091AY101061GF101991999001999999031001KA1999N+01001MD1310061+9999
0050108650999991926082406004+48183+011550FM-12+015599999V0209999900261220001CN0100001N9+01221+01001102751ADDAY101061GF100991001001999999001001KA1999N+00721
0064108650999991926082506004+48183+011550FM-12+015599999V0209991C00001220001CN0040001N9+01391+01171102481ADDAY101061GF100991001001999999001001KA1999N+01001MD1990061+9999
0064108650999991926082606004+48183+011550FM-12+015599999V0209999900101220001CN0500001N9+01781+01331101871ADDAY101061GF100991001001999999001001KA1999N+01111MD1810061+9999
0050108650999991926082706004+48183+011550FM-12+015599999V0209999900261220001CN0040001N9+01221+01171102511ADDAY111061GF104991041051012501031001KA1999N+01221
0050108650999991926082806004+48183+011550FM-12+015599999V0209991C00001220001CN0040001N9+00891+00831102801ADDAY101061GF100991001001999999001001KA1999N+00391
0050108650999991926082906004+48183+011550FM-12+015599999V0209999900101220001CN0040001N9+00781+00721102661ADDAY101061GF100991001001999999001001KA1999N+00501
0050108650999991926083006004+48183+011550FM-12+015599999V0209999900101220001CN0040001N9+00891+00831102471ADDAY101061GF100991001001999999001001KA1999N+00611
0050108650999991926083106004+48183+011550FM-12+015599999V0209999900101220001CN0040001N9+01111+00891102211ADDAY101061GF100991001001999999001001KA1999N+00721
0056108650999991926090106004+48183+011550FM-12+015599999V0209991C00001220001CN0010001N9+01111+01061102211ADDAY141061GF101991001001999999001081KA1999N+00781MW1101
0064108650999991926090206004+48183+011550FM-12+015599999V0209999900101220001CN0100001N9+01501+01441101861ADDAY101061GF101991001001999999001021KA1999N+01001MD1210141+9999
0064108650999991926090306004+48183+011550FM-12+015599999V0209991C00001220001CN0020001N9+01721+01671101841ADDAY121061GF108991999001999999021001KA1999N+01391MD1410001+9999
0081108650999991926090406004+48183+011550FM-12+015599999V0209991C00001220001CN0010001N9+01501+01441101991ADDAA199000691AY141061GF104991999001999999031001KA1999N+01281MD1410001+9999MW1101
0064108650999991926090506004+48183+011550FM-12+015599999V0209999900101220001CN0100001N9+01501+01441102371ADDAY141061GF101991001001999999001081KA1999N+01001MD1310141+9999
0050108650999991926090606004+48183+011550FM-12+015599999V0209991C00001220001CN0010001N9+01501+01441102461ADDAY141061GF100991001001999999001001KA1999N+01111
0050108650999991926090706004+48183+011550FM-12+015599999V0209999900671220001CN0100001N9+01721+01501102481ADDAY111061GF106991001001999999031081KA1999N+01501
0064108650999991926090806004+48183+011550FM-12+015599999V0209999900261012301CN0200001N9+01721+01501102401ADDAY111061GF106991061051012501001001KA1999N+01391MD1210141+9999
0064108650999991926090906004+48183+011550FM-12+015599999V0209991C00001015001CN0040001N9+01501+01441102601ADDAY111061GF106991061051017501001001KA1999N+01281MD1410001+9999
0064108650999991926091006004+48183+011550FM-12+015599999V0209991C00001220001CN0020001N9+01111+01061102391ADDAY141061GF101991999001999999031001KA1999N+00501MD1610141+9999
0064108650999991926091106004+48183+011550FM-12+015599999V0209991C00001220001CN0100001N9+01611+01331102071ADDAY101061GF101991001001999999001021KA1999N+01281MD1310061+9999
0050108650999991926091206004+48183+011550FM-12+015599999V0209999900461220001CN0500001N9+01781+01561101511ADDAY101061GF102991999001999999031001KA1999N+01221
0061108650999991926091306004+48183+011550FM-12+015599999V0209999900261036001CN0100001N9+01501+01441101841ADDAA199007091AY181061GF108991041061017501021001KA1999N+01391
0075108650999991926091406004+48183+011550FM-12+015599999V0209999900261015001CN0100001N9+01111+01061102691ADDAA199000691AY111061GF107991061051017501001021KA1999N+00721MD1210061+9999
0051108650999991926091412004+48183+011550FM-12+015599999V0202701N00671220001CN0200001N9+01781+00891102241ADDAY111061GF102991021011012501001001MD1810061+9999
0064108650999991926091506004+48183+011550FM-12+015599999V0209991C00001220001CN0100001N9+00781+00721102881ADDAY141061GF104991001001999999031091KA1999N+00721MD1810061+9999
0050108650999991926091606004+48183+011550FM-12+015599999V0209999900461021001CN0500001N9+01391+00941102421ADDAY111061GF107991061051022501021001KA1999N+00891
0056108650999991926091706004+48183+011550FM-12+015599999V0209991C00001220001CN0020001N9+01281+01221102791ADDAY141061GF101991001001999999001021KA1999N+00781MW1441
0070108650999991926091806004+48183+011550FM-12+015599999V0209991C00001220001CN0010001N9+01221+01001102871ADDAY141061GF100991001001999999001001KA1999N+00391MD1310061+9999MW1101
0056108650999991926091906004+48183+011550FM-12+015599999V0209991C00001220001CN0010001N9+00781+00721102731ADDAY141061GF100991001001999999001001KA1999N+00501MW1101
0056108650999991926092006004+48183+011550FM-12+015599999V0209991C00001220001CN0010001N9+01001+00941102551ADDAY141061GF100991001001999999001001KA1999N+00611MW1101
0070108650999991926092106004+48183+011550FM-12+015599999V0209991C00001000151CN0005001N9+01111+01061102201ADDAY141061GF108991081051000251999999KA1999N+00721MD1310061+9999MW1451
0064108650999991926092206004+48183+011550FM-12+015599999V0209991C00001220001CN0020001N9+01001+00941102331ADDAY141061GF106991999001999999031001KA1999N+00781MD1410001+9999
0050108650999991926092306004+48183+011550FM-12+015599999V0209999900461004501CN0100001N9+01111+00891102431ADDAY121061GF108991061061004501021001KA1999N+01111
0083108650999991926092406004+48183+011550FM-12+015599999V0209999900261036001CN0100001N9+01001+00611102071ADDAY111061GF107991041051022501031001KA1999N+99999MD1410001+9999EQDQ01 +01112ATMN  
0070108650999991926092506004+48183+011550FM-12+015599999V0209991C00001036001CN0020001N9+01111+00891101271ADDAY141061GF106991041051022501031001KA1999N+01111MD1810061+9999MW1171
0067108650999991926092606004+48183+011550FM-12+015599999V0209999900261007801CN0100001N9+01221+01171101171ADDAA199004091AY161061GF108991081061008001999999KA1999N+01111MW1601
0081108650999991926092706004+48183+011550FM-12+015599999V0209999900261036001CN0100001N9+01281+01061101231ADDAA199004091AY181061GF108991041061008001021001KA1999N+01221MD1110141+9999MW1601
0050108650999991926092806004+48183+011550FM-12+015599999V0209999900261220001CN0100001N9+00781+00721101991ADDAY111061GF104991999001999999021001KA1999N+00391
0064108650999991926092906004+48183+011550FM-12+015599999V0209991C00001220001CN0020001N9+00281+00221102561ADDAY101061GF104991999001999999031001KA1999N+00221MD1310141+9999
0075108650999991926093006004+48183+011550FM-12+015599999V0209991C000019999999N0020001N9+00721+00671102881ADDAA199000691AY121061GF108991999051012501001001KA1999N+00611MD1310061+9999
0067108650999991926100106004+48183+011550FM-12+015599999V02099999001019999999N0040001N9+00501+00441102821ADDAA199002091AY181061GF108991999061008001001001KA1999N+00391MW1511
0061108650999991926100206004+48183+011550FM-12+015599999V0209999900261004501CN0040001N9+00611+00561102691ADDAA199000591AY121061GF108991081051004501999999KA1999N+00391
0064108650999991926100306004+48183+011550FM-12+015599999V0209991C00001021001CN0020001N9+01001+00941102741ADDAY121061GF108991081051022501999999KA1999N+00891MD1310141+9999
0050108650999991926100406004+48183+011550FM-12+015599999V0209999900101220001CN0040001N9+00501+00441103221ADDAY141061GF104991041051022501031001KA1999N+00281
0056108650999991926100506004+48183+011550FM-12+015599999V0209991C00001220001CN0002001N9+00281+00221103261ADDAY141061GF104991041051000251001001KA1999N+00221MW1421
0081108650999991926100606004+48183+011550FM-12+015599999V0209991C00001000151CN0000501N9+00611+00561102931ADDAA199000691AY141061GF108991081051000251999999KA1999N+00391MD1810061+9999MW1471
0070108650999991926100706004+48183+011550FM-12+015599999V0209991C00001220001CN0005001N9+00281+00221102311ADDAY141061GF101991001001999999001021KA1999N+00001MD1810141+9999MW1441
0067108650999991926100806004+48183+011550FM-12+015599999V0209991C00001220001CN0005001N9+00891+00831101991ADDAA199000591AY141061GF104991001001999999031021KA1999N+00781MW1421
0064108650999991926101106004+48183+011550FM-12+015599999V02099999002619999999N0100001N9+00781+00561102021ADDAY111061GF106991999001022501031001KA1999N+00611MD1310201+9999
0064108650999991926101206004+48183+011550FM-12+015599999V0209999900931036001CN0500001N9+01391+00501101311ADDAY111061GF106991021051012501031001KA1999N+00611MD1810201+9999
0061108650999991926101306004+48183+011550FM-12+015599999V0209999900931090001CN0500001N9+01501+01061101311ADDAA199000691AY111061GF106991041051022501001081KA1999N+01391
0061108650999991926101406004+48183+011550FM-12+015599999V0209999900101090001CN0040001N9+01391+01331101671ADDAA199003091AY111061GF106991041051012501001081KA1999N+01111
0064108650999991926101506004+48183+011550FM-12+015599999V0209999900461220001CN0500001N9+01501+01061101631ADDAY111061GF104991001001999999001021KA1999N+01001MD1310141+9999
0050108650999991926101606004+48183+011550FM-12+015599999V0209999900101220001CN0500001N9+01111+01061101861ADDAY101061GF101991001001999999001081KA1999N+01001
0075108650999991926101706004+48183+011550FM-12+015599999V0209999900461220001CN0200001N9+01281+01221101601ADDAA199000391AY111061GF104991999001999999021001KA1999N+00721MD1810061+9999
0075108650999991926101806004+48183+011550FM-12+015599999V0209999900101036001CN0020001N9+00391+00331102261ADDAA199014091AY161061GF106991041051004501021001KA1999N+00281MD1310061+9999
0050108650999991926101906004+48183+011550FM-12+015599999V0209999900101220001CN0020001N9-00221-00281102901ADDAY111061GF104991001001999999031021KA1999N-00281
0064108650999991926102006004+48183+011550FM-12+015599999V0209999900101220001CN0040001N9-00281-00331102311ADDAY111061GF106991001001999999001021KA1999N-00281MD1710141+9999
0081108650999991926102106004+48183+011550FM-12+015599999V0209999900101012301CN0020001N9+00111+00061100751ADDAA199000691AY121061GF108991061061012501021001KA1999N-00111MD1810201+9999MW1601
0061108650999991926102206004+48183+011550FM-12+015599999V0209999900461090001CN0020001N9+00891+00671099281ADDAA199006091AY111061GF106991041051012501001021KA1999N+00391
0081108650999991926102306004+48183+011550FM-12+015599999V02099999001019999999N0020001N9+00281+00221099861ADDAA199002091AY161061GF108991999061004501001001KA1999N+00111MD1110141+9999MW1211
0081108650999991926102406004+48183+011550FM-12+015599999V0209991C00001001501CN0005001N9+00501+00441099511ADDAA199014091AY161061GF108991081051001501999999KA1999N+00391MD1810061+9999MW1651
0061108650999991926102506004+48183+011550FM-12+015599999V0209999900261220001CN0010001N9-00111-00281101751ADDAA199000691AY141061GF104991001001999999001021KA1999N-00221
0064108650999991926102606004+48183+011550FM-12+015599999V0209999900461220001CN0500001N9+00391+00001100561ADDAY121061GF106991999001999999021001KA1999N+00281MD1810061+9999
0081108650999991926102706004+48183+011550FM-12+015599999V0209999900671012301CN0020001N9+00221+00171102261ADDAA199000391AY161061GF107991061061012501021001KA1999N+00111MD1310201+9999MW1601
0064108650999991926102806004+48183+011550FM-12+015599999V0209999900101220001CN0100001N9-00391-00441101551ADDAY101061GF104991001001999999001021KA1999N-00391MD1610141+9999
0075108650999991926102906004+48183+011550FM-12+015599999V0209999900101220001CN0200001N9+00281+00221099941ADDAA199000591AY121061GF108991001001999999021081KA1999N+00281MD1210061+9999
0061108650999991926103006004+48183+011550FM-12+015599999V0209999900101220001CN0005001N9+00721+00501100401ADDAA199003091AY111061GF107991001001999999021081KA1999N+00281
0075108650999991926103106004+48183+011550FM-12+015599999V0209999900101036001CN0500001N9+00721+00671100551ADDAA199000691AY111061GF106991041051022501021001KA1999N+00391MD1710061+9999
0050108650999991926110106004+48183+011550FM-12+015599999V0209991C00001220001CN0500001N9+01001+00941100611ADDAY111061GF104991001001999999021081KA1999N+01001
0064108650999991926110206004+48183+011550FM-12+015599999V0209999900461002401CN0020001N9+00391+00331101701ADDAY121061GF108991081051002501999999KA1999N+00111MD1810261+9999
0070108650999991926110306004+48183+011550FM-12+015599999V0209991C00001000151CN0002001N9+00501+00441101231ADDAY121061GF108991081051000251999999KA1999N+00281MD1810061+9999MW1471
0067108650999991926110406004+48183+011550FM-12+015599999V0209999900101000151CN0005001N9+00501+00441101441ADDAA199000691AY141061GF108991081051000251999999KA1999N+00501MW1501
0081108650999991926110506004+48183+011550FM-12+015599999V0209991C00001000151CN0002001N9+00391+00331101581ADDAA199000691AY141061GF108991081051000251999999KA1999N+00281MD1210061+9999MW1511
0070108650999991926110606004+48183+011550FM-12+015599999V0209991C00001000151CN0000001N9+00281+00221101631ADDAY141061GF108991081051000251999999KA1999N+00281MD1210061+9999MW1451
0051108650999991926110612004+48183+011550FM-12+015599999V0200901N00261220001CN0100001N9+01111+00671101191ADDAY141061GF104991001001999999021021MD1990261+9999
0064108650999991926110706004+48183+011550FM-12+015599999V0209991C00001220001CN0100001N9+00391+00331100661ADDAY111061GF102991001001999999001081KA1999N+00111MD1210141+9999
0051108650999991926110712004+48183+011550FM-12+015599999V0202301N00261220001CN0200001N9+01281+00611999999ADDAY121061GF106991999001999999031001MD1810141+9999
0067108650999991926110806004+48183+011550FM-12+015599999V0209999900101220001CN0005001N9+00221+00171101001ADDAA199000691AY111061GF100991001001999999001001KA1999N+00111MW1461
0081108650999991926110906004+48183+011550FM-12+015599999V0209999900931007801CN0040001N9+00721+00671100701ADDAA199001091AY181061GF108991081061008001999999KA1999N+00611MD1310341+9999MW1621
0076108650999991926110912004+48183+011550FM-12+015599999V0203601N00461012301CN0020001N9+01001+00611100971ADDAY161061GF108991061061012501021001MD1210802+9999MW1501EQDQ01+000802APC3  
0075108650999991926111006004+48183+011550FM-12+015599999V0209991C00001090001CN0020001N9+00391+00331101931ADDAA199000391AY141061GF106991021051012501001081KA1999N+00221MD1310141+9999
0037108650999991926111012004+48183+011550FM-12+015599999V0200901N00261220001CN0100001N9+01281+00391101861ADDAY111061GF102991011011022501001021
0056108650999991926111106004+48183+011550FM-12+015599999V0209991C00001220001CN0010001N9-00221-00281102261ADDAY141061GF100991001001999999001001KA1999N-00391MW1101
0081108650999991926111206004+48183+011550FM-12+015599999V0209999900461000151CN0005001N9+00221+00171101601ADDAA199000691AY141061GF108991081051000251999999KA1999N+00001MD1810061+9999MW1471
0051108650999991926111212004+48183+011550FM-12+015599999V0200901N004619999999N0040001N9+00891+00441101271ADDAY121061GF106991999999022501999999MD1710141+9999
0037108650999991926111412004+48183+011550FM-12+015599999V0202501N00261220001CN0500001N9+01501+00831101621ADDAY111061GF108991999001999999031001
0075108650999991926111506004+48183+011550FM-12+015599999V0209999900461036001CN0040001N9+01001+00941102901ADDAA199000591AY111061GF107991041061017501031001KA1999N+00891MD1310261+9999
0037108650999991926111512004+48183+011550FM-12+015599999V0202901N00101220001CN0100001N9+01391+00721102951ADDAY111061GF104991041051022501001081
0070108650999991926111606004+48183+011550FM-12+015599999V0209991C00001220001CN0005001N9+00391+00331103151ADDAY181061GF104991999001999999021001KA1999N+00281MD1310061+9999MW1421
0037108650999991926111612004+48183+011550FM-12+015599999V0209991C00001220001CN0040001N9+01501+00831102971ADDAY101061GF104991001001999999001091
0064108650999991926111706004+48183+011550FM-12+015599999V0209999900101220001CN0020001N9+00611+00561102481ADDAY111061GF106991999001999999021001KA1999N+00281MD1610261+9999
0064108650999991926111806004+48183+011550FM-12+015599999V0209999900101090001CN0500001N9+00721+00671101111ADDAY111061GF106991041051022501001081KA1999N+00611MD1810061+9999
0051108650999991926111812004+48183+011550FM-12+015599999V0200901N00261090001CN0040001N9+01391+00941100501ADDAY101061GF106991021051017501001081MD1810261+9999
0064108650999991926111906004+48183+011550FM-12+015599999V0209999900671220001CN0000001N9+01111+00221099171ADDAY111061GF106991001001999999021081KA1999N+01001MD1810201+9999
0070108650999991926111912004+48183+011550FM-12+015599999V0201101N00461220001CN0500001N9+01281+00611097952ADDAY111061GF106991001001999999021081MD1810261+9999EQDQ01+097953APOSLP
0061108650999991926112006004+48183+011550FM-12+015599999V0209999900101220001CN0010001N9+00501+00441099861ADDAA199002091AY161061GF104991041051017501031001KA1999N+00391
0037108650999991926112012004+48183+011550FM-12+015599999V0201101N00461220001CN0500001N9+01221+00331099671ADDAY101061GF104991001001999999001081
0064108650999991926112106004+48183+011550FM-12+015599999V0209999900261220001CN0500001N9+01281+00391098921ADDAY111061GF104991001001999999031021KA1999N+00721MD1610141+9999
0076108650999991926112112004+48183+011550FM-12+015599999V0202701N012319999999N0040001N9+00721+00671099912ADDAY181061GF108991999051002501001001MD1310341+9999MW1631EQDQ01+099913APOSLP
0061108650999991926112206004+48183+011550FM-12+015599999V0209999900101220001CN0020001N9+00221+00171100931ADDAA199007091AY121061GF106991999001999999021001KA1999N+00221
0064108650999991926112306004+48183+011550FM-12+015599999V0209999900261220001CN0020001N9+00111+00061101411ADDAY101061GF104991001001999999021081KA1999N+00111MD1210261+9999
0043108650999991926112312004+48183+011550FM-12+015599999V0202501N002619999999N0100001N9+00611+00391101551ADDAY121061GF108991999999022501999999MW1801
0056108650999991926112406004+48183+011550FM-12+015599999V0209991C00001220001CN0002001N9-00281-00331102201ADDAY141061GF102991001001999999001081KA1999N-00281MW1421
0070108650999991926112412004+48183+011550FM-12+015599999V0202701N00461220001CN0200001N9+00721+00331100862ADDAY101061GF102991001001999999001081MD1310061+9999EQDQ01+100863APOSLP
0056108650999991926112506004+48183+011550FM-12+015599999V0209991C00001007801CN0010001N9-00111-00171102521ADDAY141061GF108991081051008001999999KA1999N-00391MW1101
0037108650999991926112512004+48183+011550FM-12+015599999V0203201N00101090001CN0010001N9+00281+00221102391ADDAY141061GF107991041051012501001081
0061108650999991926112606004+48183+011550FM-12+015599999V0209999900261004501CN0020001N9+00111+00061102471ADDAA199000691AY121061GF108991081051004501999999KA1999N+00001
0037108650999991926112612004+48183+011550FM-12+015599999V0202701N00461036001CN0040001N9+00391+00001102391ADDAY111061GF106991041051008001031001
0056108650999991926112706004+48183+011550FM-12+015599999V0209991C00001220001CN0005001N9-00501-00561102341ADDAY141061GF102991999001999999031001KA1999N-00611MW1461
0050108650999991926112806004+48183+011550FM-12+015599999V0209999900261007801CN0040001N9-00111-00281101621ADDAY121061GF108991081051008001999999KA1999N-00221
0051108650999991926112812004+48183+011550FM-12+015599999V0201401N00261220001CN0020001N9+00391-00171101441ADDAY141061GF102991999001999999021001MD1710141+9999
0050108650999991926112906004+48183+011550FM-12+015599999V0209999900101220001CN0010001N9+00001-00061101571ADDAY101061GF101991001001999999001081KA1999N-00611
0050108650999991926113006004+48183+011550FM-12+015599999V0209999900261001501CN0010001N9-00221-00281101191ADDAY121061GF108991081051001501999999KA1999N-00281
0051108650999991926113012004+48183+011550FM-12+015599999V0200901N00461036001CN0020001N9+00111-00111100961ADDAY121061GF108991041051012501021001MD1710061+9999
0070108650999991926120106004+48183+011550FM-12+015599999V0209999900261000151CN0000501N9-00221-00281101221ADDAY141061GF108991081051000251999999KA1999N-00391MD1810061+9999MW1451
0067108650999991926120206004+48183+011550FM-12+015599999V0209999900101001501CN0010001N9+00001-00061101511ADDAA199000591AY141061GF108991081051001501999999KA1999N-00281MW1101
0075108650999991926120306004+48183+011550FM-12+015599999V02099999002619999999N0040001N9+00001-00061101571ADDAA199002091AY121061GF108991999051002501001001KA1999N+00001MD1310141+9999
0067108650999991926120406004+48183+011550FM-12+015599999V02099999006719999999N0040001N9+00001-00061100531ADDAA199000591AY171061GF108991999061004501001001KA1999N-00111MW1711
0075108650999991926120506004+48183+011550FM-12+015599999V0209999900101002401CN0020001N9-00111-00171100921ADDAA199000591AY121061GF108991081051002501999999KA1999N-00111MD1310141+9999
0081108650999991926120606004+48183+011550FM-12+015599999V0209999900261007801CN0040001N9-00221-00281102501ADDAA199002091AY171061GF108991081051008001999999KA1999N-00281MD1210141+9999MW1701
0064108650999991926120706004+48183+011550FM-12+015599999V0209991C00001002401CN0010001N9-00111-00171103041ADDAY121061GF108991081051002501999999KA1999N-00111MD1310061+9999
0075108650999991926120806004+48183+011550FM-12+015599999V0209999900461002401CN0020001N9-00111-00171103231ADDAA199000391AY121061GF108991081051002501999999KA1999N-00221MD1210061+9999
0075108650999991926120906004+48183+011550FM-12+015599999V0209999900461002401CN0010001N9+00111+00061103791ADDAA199000391AY121061GF108991999051002501001001KA1999N-00111MD1310141+9999
0067108650999991926121006004+48183+011550FM-12+015599999V0209999900261004501CN0020001N9+00221+00171103791ADDAA199002091AY161061GF108991061051004501021001KA1999N+00001MW1211
0075108650999991926121106004+48183+011550FM-12+015599999V0209999900261004501CN0020001N9+00221+00171103861ADDAA199000591AY121061GF108991081051004501999999KA1999N+00111MD1410001+9999
0050108650999991926121206004+48183+011550FM-12+015599999V0209999900101004501CN0020001N9+00221+00171103841ADDAY121061GF108991081051004501999999KA1999N+00001
0070108650999991926121306004+48183+011550FM-12+015599999V0209991C00001000151CN0002001N9-00221-00281103191ADDAY141061GF108991081051000251999999KA1999N-00281MD1710141+9999MW1451
0070108650999991926121406004+48183+011550FM-12+015599999V0209991C00001220001CN0010001N9-00611-00671102351ADDAY101061GF100991001001999999001001KA1999N-00721MD1810141+9999MW1101
0050108650999991926121506004+48183+011550FM-12+015599999V0209999900261021001CN0040001N9+00001-00061102101ADDAY111061GF108991081051022501999999KA1999N-00281
0075108650999991926121606004+48183+011550FM-12+015599999V0209999900261220001CN0020001N9-00281-00441102881ADDAA199000391AY111061GF102991011051012501001021KA1999N-00281MD1310061+9999
0064108650999991926121706004+48183+011550FM-12+015599999V0209999900931012301CN0020001N9-00111-00441102391ADDAY111061GF107991999061012501001001KA1999N-00281MD1810061+9999
0081108650999991926121806004+48183+011550FM-12+015599999V0209999900671002401CN0020001N9+00111+00061100991ADDAA199000591AY171061GF108991061061002501021001KA1999N+00001MD1810201+9999MW1231
0081108650999991926121906004+48183+011550FM-12+015599999V02099999006719999999N0100001N9+00001-00061101431ADDAA199003091AY171061GF108991999001022501021001KA1999N-00111MD1210341+9999MW1731
0081108650999991926122006004+48183+011550FM-12+015599999V0209999901231002401CN0005001N9+00001-00061101991ADDAA199000691AY171061GF108991081051002501999999KA1999N-00221MD1610201+9999MW1751
0056108650999991926122106004+48183+011550FM-12+015599999V0209999900931000601CN0005001N9-00111-00171101191ADDAY171061GF108991081061000751999999KA1999N-00221MW1851
0081108650999991926122206004+48183+011550FM-12+015599999V02099999002619999999N0040001N9-00281-00331101931ADDAA199003091AY171061GF108991999001022501021001KA1999N-00501MD1210141+9999MW1701
0075108650999991926122306004+48183+011550FM-12+015599999V02099999002619999999N0040001N9-00721-00891102921ADDAA199000691AY111061GF106991999001022501021001KA1999N-01611MD1210141+9999
0081108650999991926122406004+48183+011550FM-12+015599999V0209999900671002401CN0020001N9-00891-01061103031ADDAA199000691AY121061GF108991081051002501999999KA1999N-01391MD1810061+9999MW1711
0064108650999991926122506004+48183+011550FM-12+015599999V0209991C00001036001CN0020001N9-01281-01331103031ADDAY111061GF106991041051012501021001KA1999N-01391MD1310061+9999
0064108650999991926122806004+48183+011550FM-12+015599999V0209999900261002401CN0010001N9-00501-00561102241ADDAY121061GF108991081051002501999999KA1999N-00721MD1710201+9999
0081108650999991926122906004+48183+011550FM-12+015599999V0209999901541012301CN0200001N9+00221+00001101041ADDAA199000591AY161061GF107991061051012501021001KA1999N-00221MD1810201+9999MW1681
0081108650999991926123006004+48183+011550FM-12+015599999V0209999900461004501CN0100001N9+00111+00061102391ADDAA199000391AY121061GF108991081061004501999999KA1999N+00001MD1210061+9999MW1471
0064108650999991926123106004+48183+011550FM-12+015599999V0209999900671220001CN0100001N9-00111-00281102521ADDAY101061GF100991001001999999001001KA1999N-00111MD1810141+9999
