0064108650999991927010106004+48183+011550FM-12+015599999V0209999900261220001CN0200001N9+00001-00061102521ADDAY121061GF106991001001999999021081KA1999N-00111MD1410001+9999
0050108650999991927010206004+48183+011550FM-12+015599999V0209999900261036001CN0100001N9+00001-00061102841ADDAY111061GF107991041051012501021001KA1999N-00111
0070108650999991927010306004+48183+011550FM-12+015599999V0209991C00001000151CN0010001N9-00501-00561102601ADDAY141061GF108991081051000251999999KA1999N-00501MD1610061+9999MW1101
0064108650999991927010406004+48183+011550FM-12+015599999V0209999900101220001CN0100001N9+00001-00221101091ADDAY111061GF104991001001999999021081KA1999N-00111MD1810461+9999
0075108650999991927010506004+48183+011550FM-12+015599999V0209999900461036001CN0020001N9-00221-00281102131ADDAA199001091AY111061GF108991021051008001021001KA1999N-00281MD1310141+9999
0100108650999991927010606004+48183+011550FM-12+015599999V0209999900101001501CN0010001N9-01281-01331101971ADDAA199000591AY171061GF108991081061001501999999KA1999N+99999MD1610061+9999MW1731EQDQ01 -00392ATMN  
0075108650999991927010706004+48183+011550FM-12+015599999V0209999900261036001CN0020001N9+00111+00061101531ADDAA199001091AY121061GF108991041051022501021001KA1999N-00221MD1810261+9999
0075108650999991927010806004+48183+011550FM-12+015599999V0202701N00101036001CN0040001N9+00001-00061101721ADDAA199001091AY121061GF106991041051004501031001KA1999N+00001MD1310261+9999
0050108650999991927010906004+48183+011550FM-12+015599999V0209999900261220001CN0020001N9-00111-00171102871ADDAY111061GF104991021051022501021001KA1999N-00281
0081108650999991927011006004+48183+011550FM-12+015599999V0209999901231004501CN0100001N9+00281+00221102861ADDAA199002091AY161061GF108991081061004501999999KA1999N+00111MD1610061+9999MW1531
0061108650999991927011106004+48183+011550FM-12+015599999V0209999900671004501CN0040001N9+00391+00171103031ADDAA199000591AY121061GF108991061051004501021001KA1999N+00281
0081108650999991927011206004+48183+011550FM-12+015599999V0209999900671002401CN0020001N9+00281+00221102241ADDAA199001091AY161061GF108991081061002501999999KA1999N+00221MD1710201+9999MW1601
0064108650999991927011306004+48183+011550FM-12+015599999V0209999900101220001CN0100001N9+00221+00171100741ADDAY111061GF102991001001999999001091KA1999N+00111MD1710341+9999
0061108650999991927011406004+48183+011550FM-12+015599999V0209999900101004501CN0040001N9+00221+00171100521ADDAA199000391AY121061GF108991081051004501999999KA1999N+00111
0050108650999991927011506004+48183+011550FM-12+015599999V0209991C00001090001CN0010001N9-00281-00331100121ADDAY101061GF106991041051004501001091KA1999N-00501
0070108650999991927011606004+48183+011550FM-12+015599999V0209999900101220001CN0002001N9-00281-00331100591ADDAY141061GF102991001001999999021081KA1999N-00281MD1810061+9999MW1461
0075108650999991927011706004+48183+011550FM-12+015599999V02099999002619999999N0020001N9+00001-00061100071ADDAA124999999AY121061GF108991999051008001001001KA1999N-00111MD1610061+9999
0081108650999991927011806004+48183+011550FM-12+015599999V0209999900101000151CN0002001N9-00111-00171100211ADDAA199000691AY141061GF108991081051000251999999KA1999N-00221MD1990061+9999MW1471
0070108650999991927011906004+48183+011550FM-12+015599999V0209991C00001007801CN0040001N9-00221-00281101301ADDAY111061GF108991081051008001999999KA1999N-00391MD1310141+9999MW1471
0081108650999991927012006004+48183+011550FM-12+015599999V0202701N00461002401CN0010001N9-00221-00281101271ADDAA199002091AY171061GF108991081061002501999999KA1999N-00221MD1810061+9999MW1731
0057108650999991927012012004+48183+011550FM-12+015599999V0202701N00461002401CN0005001N9-00111-00171101201ADDAY171061GF108991081051002501999999MD1810061+9999MW1701
0075108650999991927012106004+48183+011550FM-12+015599999V0209999900101004501CN0010001N9-00221-00281100691ADDAA199001091AY141061GF108991081051004501999999KA1999N-00391MD1810141+9999
0075108650999991927012206004+48183+011550FM-12+015599999V0209999900261220001CN0040001N9-00501-00671100881ADDAA199000591AY171061GF106991001001999999021081KA1999N-00501MD1990061+9999
0050108650999991927012306004+48183+011550FM-12+015599999V0209991C000019999999N0020001N9-00781-00941101271ADDAY111061GF106991999001022501031001KA1999N-00781
0075108650999991927012406004+48183+011550FM-12+015599999V0209999900261012301CN0040001N9+00111+00061102061ADDAA199003091AY121061GF108991081051012501999999KA1999N-00281MD1310141+9999
0067108650999991927012506004+48183+011550FM-12+015599999V0209999900101000601CN0010001N9-00221-00281102781ADDAA199000691AY141061GF108991081051000751999999KA1999N-00501MW1101
0056108650999991927012606004+48183+011550FM-12+015599999V0209999900101002401CN0010001N9-00281-00331103111ADDAY141061GF108991081051002501999999KA1999N-00391MW1101
0056108650999991927012706004+48183+011550FM-12+015599999V0209991C00001220001CN0000001N9-00611-00671102921ADDAY141061GF100991001001999999001001KA1999N-00721MW1461
0061108650999991927012806004+48183+011550FM-12+015599999V0209999900261021001CN0100001N9-00391-00441103241ADDAA199000591AY101061GF106991061051022501001081KA1999N-00501
0070108650999991927012906004+48183+011550FM-12+015599999V0209991C00001220001CN0005001N9-01001-01061102301ADDAY141061GF102991001001999999021081KA1999N-01221MD1810261+9999MW1461
0081108650999991927013006004+48183+011550FM-12+015599999V0209999900931004501CN0040001N9+00111+00061101331ADDAA199001091AY171061GF108991081061004501999999KA1999N-00781MD1310201+9999MW1681
0064108650999991927013106004+48183+011550FM-12+015599999V0209999900261220001CN0200001N9-00391-00721101061ADDAY101061GF100991001001999999001001KA1999N-00611MD1990141+9999
0050108650999991927020106004+48183+011550FM-12+015599999V0209999900461220001CN0500001N9+00001-00331101061ADDAY111061GF104991021051017501021001KA1999N-00281
0061108650999991927020206004+48183+011550FM-12+015599999V0209999900101220001CN0020001N9-00391-00441101871ADDAA199002091AY111061GF102991999001999999031001KA1999N-00391
0075108650999991927020306004+48183+011550FM-12+015599999V0209999900101007801CN0100001N9-00111-00611103041ADDAA199002091AY171061GF106991061051008001001001KA1999N-00221MD1310401+9999
0050108650999991927020406004+48183+011550FM-12+015599999V0209991C00001036001CN0020001N9-00611-00671103601ADDAY141061GF107991041051022501031001KA1999N-01221
0075108650999991927020506004+48183+011550FM-12+015599999V0209999900461036001CN0040001N9-00111-00171103331ADDAA199000691AY171061GF106991041061008001021001KA1999N-00281MD1310141+9999
0064108650999991927020606004+48183+011550FM-12+015599999V0209999900261220001CN0020001N9-00391-00441102511ADDAY121061GF106991999001999999021001KA1999N-00611MD1710261+9999
0075108650999991927020706004+48183+011550FM-12+015599999V0209991C000019999999N0010001N9-00721-00781103131ADDAA199000391AY111061GF106991041051999999031001KA1999N-00891MD1310141+9999
0075108650999991927020806004+48183+011550FM-12+015599999V0209999900261007801CN0040001N9-00721-00781102991ADDAA199000691AY101061GF108991081051008001999999KA1999N-01001MD1810061+9999
0064108650999991927020906004+48183+011550FM-12+015599999V0209999900261220001CN0040001N9-00891-00941103091ADDAY101061GF100991001001999999001001KA1999N-01001MD1310141+9999
0050108650999991927021006004+48183+011550FM-12+015599999V0209999900101220001CN0020001N9-00891-00941103661ADDAY101061GF102991001001999999001021KA1999N-00891
0050108650999991927021106004+48183+011550FM-12+015599999V0209991C00001220001CN0020001N9-01001-01061103571ADDAY141061GF101991999001999999021001KA1999N-01001
0050108650999991927021206004+48183+011550FM-12+015599999V0209999900261220001CN0040001N9-00501-00561103311ADDAY101061GF100991001001999999001001KA1999N-00721
0056108650999991927021306004+48183+011550FM-12+015599999V0209991C00001220001CN0010001N9-01111-01171103641ADDAY141061GF100991001001999999001001KA1999N-01111MW1101
0064108650999991927021406004+48183+011550FM-12+015599999V0209999900101220001CN0010001N9-00721-00781103891ADDAY101061GF100991001001999999001001KA1999N-00781MD1310061+9999
0064108650999991927021506004+48183+011550FM-12+015599999V0209991C000019999999N0020001N9+00001-00331103271ADDAY141061GF108991999001022501021021KA1999N-00221MD1510001+9999
0070108650999991927021606004+48183+011550FM-12+015599999V0209999900261000151CN0002001N9-00281-00331103141ADDAY141061GF108991081051000251999999KA1999N-00501MD1710141+9999MW1451
0081108650999991927021706004+48183+011550FM-12+015599999V0209999901231002401CN0020001N9+00111+00061102241ADDAA199006091AY171061GF108991081061002501999999KA1999N-00111MD1610201+9999MW1681
0075108650999991927021806004+48183+011550FM-12+015599999V02099999004619999999N0040001N9+00221+00171101761ADDAA199001091AY121061GF108991999061008001001001KA1999N+00111MD1610061+9999
0075108650999991927021906004+48183+011550FM-12+015599999V0209999900261090001CN0020001N9-00721-00891102161ADDAA199000591AY111061GF106991041051017501001021KA1999N-00721MD1310061+9999
0061108650999991927022006004+48183+011550FM-12+015599999V0209991C00001220001CN0020001N9-01611-01671102911ADDAA199000591AY101061GF102991001001999999001081KA1999N-01611
0081108650999991927022106004+48183+011550FM-12+015599999V0209999900101007801CN0010001N9-00501-00561101301ADDAA199000591AY171061GF108991081051008001999999KA1999N-00891MD1810261+9999MW1711
0067108650999991927022206004+48183+011550FM-12+015599999V0209999900261000151CN0005001N9-00111-00171101151ADDAA199000591AY141061GF108991081051000251999999KA1999N-00281MW1451
0064108650999991927022306004+48183+011550FM-12+015599999V0209999900261220001CN0020001N9-00721-00781100921ADDAY111061GF107991001001999999021081KA1999N-00891MD1810061+9999
0070108650999991927022406004+48183+011550FM-12+015599999V0209991C00001220001CN0005001N9-00221-00281101181ADDAY141061GF100991001001999999001001KA1999N-00281MD1810141+9999MW1441
0064108650999991927022506004+48183+011550FM-12+015599999V0209999900101220001CN0100001N9-00501-00561101371ADDAY111061GF104991001001999999031021KA1999N-00501MD1710061+9999
0075108650999991927022606004+48183+011550FM-12+015599999V0209999900101220001CN0500001N9+00281-00111100951ADDAA199002091AY111061GF106991999001999999021001KA1999N+00111MD1510141+9999
0075108650999991927022706004+48183+011550FM-12+015599999V0209999900101036001CN0500001N9+00281+00221101001ADDAA199000691AY121061GF106991041051017501021001KA1999N+00001MD1990201+9999
0061108650999991927022806004+48183+011550FM-12+015599999V0209999900261220001CN0500001N9+00501+00111101441ADDAA199000691AY101061GF104991041051999999031001KA1999N+00281
0064108650999991927030106004+48183+011550FM-12+015599999V0209999900101220001CN0500001N9+00281+00061101131ADDAY111061GF107991001001999999021081KA1999N-00111MD1990141+9999
0064108650999991927030206004+48183+011550FM-12+015599999V0209999900461220001CN0200001N9+00391+00331101411ADDAY121061GF108991999001999999021001KA1999N+00391MD1210061+9999
0064108650999991927030306004+48183+011550FM-12+015599999V0209999900261036001CN0010001N9+00221+00171101431ADDAY111061GF108991021051004501021001KA1999N+00001MD1810201+9999
0061108650999991927030406004+48183+011550FM-12+015599999V0209999900461015001CN0100001N9+00281+00061101901ADDAA199000691AY111061GF108991061051017501021001KA1999N+00281
0064108650999991927030506004+48183+011550FM-12+015599999V0209999900101220001CN0500001N9-00111-00171100911ADDAY141061GF104991001001999999021021KA1999N-00221MD1990201+9999
0064108650999991927030606004+48183+011550FM-12+015599999V0209999900101012301CN0040001N9+00221+00171100421ADDAY121061GF108991061051012501021001KA1999N+00221MD1310141+9999
0075108650999991927030706004+48183+011550FM-12+015599999V0209999900461220001CN0500001N9+00221+00001100781ADDAA124999999AY111061GF107991999001999999031001KA1999N+00001MD1810061+9999
0081108650999991927030806004+48183+011550FM-12+015599999V0209999900461036001CN0040001N9+00281+00221100151ADDAA199000691AY161061GF106991041051012501031001KA1999N+00281MD1110061+9999MW1211
0081108650999991927030906004+48183+011550FM-12+015599999V0209999900261002401CN0500001N9+00111+00061100631ADDAA199002091AY171061GF108991081061002501999999KA1999N+00111MD1210401+9999MW1231
0075108650999991927031006004+48183+011550FM-12+015599999V0209999900101036001CN0010001N9+00001-00061100421ADDAA199000391AY141061GF108991041051004501021001KA1999N-00111MD1310201+9999
0061108650999991927031106004+48183+011550FM-12+015599999V0209991C00001220001CN0010001N9-00111-00171101541ADDAA199000591AY101061GF101991001001999999001081KA1999N-00221
0064108650999991927031206004+48183+011550FM-12+015599999V0209991C00001220001CN0040001N9+00001-00061101931ADDAY111061GF101991999001022501031001KA1999N-00221MD1310141+9999
0064108650999991927031306004+48183+011550FM-12+015599999V0209999900461220001CN0200001N9+00221+00001101061ADDAY121061GF108991001001999999021081KA1999N+00111MD1810201+9999
0075108650999991927031406004+48183+011550FM-12+015599999V0209999900461036001CN0040001N9+00281+00221100931ADDAA199000691AY111061GF107991041051012501031001KA1999N+00221MD1310141+9999
0081108650999991927031506004+48183+011550FM-12+015599999V0209999900461001501CN0005001N9+00001-00061102311ADDAA199001091AY171061GF108991081061001501999999KA1999N-00111MD1310261+9999MW1731
0050108650999991927031606004+48183+011550FM-12+015599999V0209999900101002401CN0010001N9+00001-00061103401ADDAY141061GF107991071051002501001001KA1999N-00221
0050108650999991927031706004+48183+011550FM-12+015599999V0209999900101220001CN0200001N9-00281-00331102881ADDAY101061GF100991001001999999001001KA1999N-00501
0064108650999991927031806004+48183+011550FM-12+015599999V0209991C00001220001CN0010001N9+00001-00221103461ADDAY101061GF100991001001999999001001KA1999N-00221MD1310141+9999
0050108650999991927031906004+48183+011550FM-12+015599999V0209991C00001220001CN0100001N9+00001-00061103581ADDAY101061GF102991001001999999001021KA1999N-00111
0050108650999991927032006004+48183+011550FM-12+015599999V0209991C00001220001CN0100001N9+00001-00061103551ADDAY101061GF101991001001999999001021KA1999N-00111
0064108650999991927032106004+48183+011550FM-12+015599999V0209991C00001220001CN0020001N9+00111+00061103111ADDAY101061GF100991001001999999001001KA1999N-00111MD1810061+9999
0061108650999991927032206004+48183+011550FM-12+015599999V0209991C00001220001CN0020001N9+00221+00001102501ADDAA199001091AY101061GF100991999001999999001001KA1999N-00221
0064108650999991927032306004+48183+011550FM-12+015599999V0209999900101220001CN0040001N9+00281+00061101971ADDAY111061GF102991999001999999021001KA1999N+00221MD1610061+9999
0067108650999991927032406004+48183+011550FM-12+015599999V0209999900931002401CN0040001N9+00501+00441100331ADDAA199000391AY181061GF108991061061002501021001KA1999N+00391MW1611
0075108650999991927032506004+48183+011550FM-12+015599999V0209999900261220001CN0040001N9+00281+00221100031ADDAA199000591AY101061GF101991001001999999001081KA1999N+00111MD1310201+9999
0075108650999991927032606004+48183+011550FM-12+015599999V0209999900671220001CN0500001N9+00501+00111100211ADDAA199003091AY101061GF104991001001999999021021KA1999N+00111MD1210061+9999
0064108650999991927032706004+48183+011550FM-12+015599999V0209991C00001220001CN0020001N9+00281+00061101041ADDAY141061GF108991001001999999031081KA1999N+00001MD1310061+9999
0075108650999991927032806004+48183+011550FM-12+015599999V0209999900671036001CN0200001N9+00281+00221100641ADDAA199001091AY121061GF108991041051004501021001KA1999N+00221MD1210261+9999
0075108650999991927032906004+48183+011550FM-12+015599999V0209999900461036001CN0040001N9+00221+00171100921ADDAA199008091AY121061GF107991041051017501021001KA1999N+00221MD1310141+9999
0070108650999991927033006004+48183+011550FM-12+015599999V0209999900101220001CN0010001N9+00001-00061101401ADDAY141061GF100991001001999999001001KA1999N-00221MD1310061+9999MW1101
0081108650999991927033106004+48183+011550FM-12+015599999V0209999901231036001CN0500001N9+00281+00061101391ADDAA199005091AY121061GF108991041061004501021001KA1999N+00221MD1310201+9999MW1501
0075108650999991927040106004+48183+011550FM-12+015599999V0209999900261220001CN0040001N9+00111-00111100861ADDAA199001091AY101061GF104991001001999999021081KA1999N-00111MD1810341+9999
0081108650999991927040306004+48183+011550FM-12+015599999V0209999900261007801CN0040001N9+00281+00221101681ADDAA199001091AY161061GF108991061061008001021001KA1999N+00221MD1410001+9999MW1511
0075108650999991927040406004+48183+011550FM-12+015599999V0209999900261036001CN0040001N9+00281+00061102001ADDAA199001091AY111061GF108991041051012501021001KA1999N+00221MD1310261+9999
0067108650999991927040506004+48183+011550FM-12+015599999V0209999900461002401CN0002001N9+00501+00441101661ADDAA199002091AY161061GF108991081061002501999999KA1999N+00281MW1631
0075108650999991927040606004+48183+011550FM-12+015599999V0209999901231012301CN0500001N9+01111+00891100791ADDAA199011091AY161061GF108991061051012501021001KA1999N+00721MD1610141+9999
0075108650999991927040706004+48183+011550FM-12+015599999V0209999900261220001CN0020001N9+00611+00391101221ADDAA199000591AY161061GF106991999001999999021001KA1999N+00391MD1810141+9999
0057108650999991927040712004+48183+011550FM-12+015599999V0201401N00461002401CN0020001N9+00781+00721100691ADDAY161061GF108991061061002501021001MD1710201+9999MW1611
0067108650999991927040806004+48183+011550FM-12+015599999V0209999900671007801CN0100001N9+00501+00281100531ADDAA199006091AY161061GF108991081061008001999999KA1999N+00501MW1611
0081108650999991927040906004+48183+011550FM-12+015599999V0209999900461004501CN0020001N9+00391+00331100921ADDAA199000391AY161061GF108991081051004501999999KA1999N+00221MD1210061+9999MW1211
0075108650999991927041006004+48183+011550FM-12+015599999V0209999900101090001CN0020001N9+00501+00441100481ADDAA199001091AY141061GF106991041051022501001081KA1999N+00391MD1610141+9999
0075108650999991927041106004+48183+011550FM-12+015599999V0209999900461220001CN0200001N9+00501+00441101271ADDAA199000591AY111061GF106991001001999999031081KA1999N+00391MD1310141+9999
0081108650999991927041206004+48183+011550FM-12+015599999V0209999900671090001CN0040001N9+00391+00331101931ADDAA199007091AY161061GF107991041061004501001081KA1999N+00221MD1210141+9999MW1161
0067108650999991927041306004+48183+011550FM-12+015599999V0209999900461012301CN0040001N9+00221+00001102731ADDAA199000691AY171061GF108991061061012501021001KA1999N+00111MW1701
0064108650999991927041406004+48183+011550FM-12+015599999V0209999900101220001CN0100001N9+00391+00001102121ADDAY101061GF102991001001999999001081KA1999N+00001MD1710141+9999
0081108650999991927041506004+48183+011550FM-12+015599999V0209999900931002401CN0020001N9+00781+00721100381ADDAA199003091AY161061GF108991081061002501999999KA1999N+00721MD1710201+9999MW1531
0081108650999991927041606004+48183+011550FM-12+015599999V0209999900261036001CN0100001N9+00221+00171101591ADDAA199000591AY181061GF106991041061008001021001KA1999N+00111MD1310201+9999MW1611
0075108650999991927041706004+48183+011550FM-12+015599999V0209999900261036001CN0200001N9+00001-00221102161ADDAA199001091AY181061GF106991041011008001031001KA1999N+00001MD1310201+9999
0064108650999991927041806004+48183+011550FM-12+015599999V0209991C000019999999N0040001N9+00111+00061102871ADDAY111061GF106991999001022501021001KA1999N-00281MD1310141+9999
0081108650999991927041906004+48183+011550FM-12+015599999V0209991C00001036001CN0040001N9+00501+00281102791ADDAA199000591AY161061GF106991021061012501021001KA1999N+00391MD1410001+9999MW1211
0051108650999991927041912004+48183+011550FM-12+015599999V0200901N00101036001CN0200001N9+01501+00831102531ADDAY101061GF106991041011012501021001MD1810061+9999
0050108650999991927042006004+48183+011550FM-12+015599999V0209999900101220001CN0100001N9+00781+00561102671ADDAY111061GF106991001001999999031081KA1999N+00501
0064108650999991927042106004+48183+011550FM-12+015599999V0209999900261220001CN0200001N9+01221+00781102301ADDAY111061GF106991001001999999001081KA1999N+00891MD1610061+9999
0050108650999991927042206004+48183+011550FM-12+015599999V0209999900671220001CN0500001N9+01221+00781102341ADDAY111061GF104991001001999999031081KA1999N+01111
0064108650999991927042306004+48183+011550FM-12+015599999V0209999901231220001CN0500001N9+01611+00721101201ADDAY101061GF104991001001999999001021KA1999N+00891MD1710201+9999
0081108650999991927042406004+48183+011550FM-12+015599999V0209999900261004501CN0040001N9+00611+00561101131ADDAA199002091AY161061GF108991081061004501999999KA1999N+00501MD1610061+9999MW1631
0067108650999991927042506004+48183+011550FM-12+015599999V0209999900461004501CN0040001N9+00391+00331100731ADDAA199005091AY161061GF108991081061004501999999KA1999N+00281MW1631
0064108650999991927042606004+48183+011550FM-12+015599999V0209999901541220001CN0500001N9+01001+00391100631ADDAY101061GF104991011011012501031001KA1999N+00781MD1310201+9999
0081108650999991927042706004+48183+011550FM-12+015599999V0209999900461004501CN0020001N9+00281+00221102121ADDAA199006091AY161061GF106991061061004501999999KA1999N+00111MD1310061+9999MW1211
0067108650999991927042806004+48183+011550FM-12+015599999V0209991C00001000601CN0020001N9+00391+00331102261ADDAA199004091AY161061GF108991081061000751999999KA1999N+00281MW1511
0056108650999991927042906004+48183+011550FM-12+015599999V0209991C00001220001CN0020001N9+00721+00671102081ADDAY141061GF106991001001999999001081KA1999N+00001MW1421
0075108650999991927043006004+48183+011550FM-12+015599999V0209991C00001220001CN0040001N9+01281+00831101471ADDAA199001091AY111061GF106991001001999999031081KA1999N+00781MD1710061+9999
0075108650999991927050106004+48183+011550FM-12+015599999V0209999900461015001CN0100001N9+01221+01171101511ADDAA199000691AY111061GF107991071051017501001001KA1999N+00891MD1310061+9999
0067108650999991927050206004+48183+011550FM-12+015599999V0209999900101000151CN0005001N9+00781+00721101941ADDAA199000691AY141061GF108991081051000251999999KA1999N+00721MW1431
0050108650999991927050306004+48183+011550FM-12+015599999V0209999900101220001CN0020001N9+00891+00831101731ADDAY111061GF106991001001999999031081KA1999N+00611
0067108650999991927050406004+48183+011550FM-12+015599999V0209991C00001000151CN0005001N9+01001+00941101191ADDAA199001091AY141061GF108991081051000251999999KA1999N+00891MW1451
0051108650999991927050412004+48183+011550FM-12+015599999V0200701N00101220001CN0100001N9+02281+01331100801ADDAY101061GF102991021091012501001021MD1810141+9999
0064108650999991927050506004+48183+011550FM-12+015599999V0209999900101220001CN0040001N9+01281+01061101031ADDAY111061GF102991001001999999001021KA1999N+00781MD1110141+9999
0064108650999991927050606004+48183+011550FM-12+015599999V0209999900261220001CN0200001N9+01611+01331101721ADDAY111061GF102991011011022501001081KA1999N+01001MD1310141+9999
0050108650999991927050706004+48183+011550FM-12+015599999V0209999900461220001CN0020001N9+01611+01331101901ADDAY141061GF102991021051004501001001KA1999N+01001
0051108650999991927050712004+48183+011550FM-12+015599999V0200901N01231220001CN0200001N9+02281+01061101631ADDAY101061GF101991011011022501001001MD1610061+9999
0050108650999991927050806004+48183+011550FM-12+015599999V0209999900101220001CN0100001N9+01221+01001101971ADDAY101061GF104991001001999999001021KA1999N+00721
0075108650999991927050906004+48183+011550FM-12+015599999V0209999900461220001CN0200001N9+01501+01281101591ADDAA199001091AY101061GF102991001001999999001081KA1999N+01001MD1990061+9999
0067108650999991927051006004+48183+011550FM-12+015599999V0209999900261001501CN0020001N9+01221+01171101241ADDAA199009091AY181061GF108991081061001501999999KA1999N+00891MW1651
0051108650999991927051012004+48183+011550FM-12+015599999V0202901N00261090001CN0200001N9+01891+00941101721ADDAY111061GF106991041061017501001021MD1810061+9999
0075108650999991927051106004+48183+011550FM-12+015599999V0209999900461036001CN0200001N9+00391+00001102241ADDAA199001091AY111061GF107991041051017501031001KA1999N+00391MD1310261+9999
0050108650999991927051206004+48183+011550FM-12+015599999V0209999900101220001CN0200001N9+00501+00281101981ADDAY101061GF101991001001999999001081KA1999N-00221
0081108650999991927051306004+48183+011550FM-12+015599999V0209999900461036001CN0040001N9+00001-00061101871ADDAA199005091AY171061GF108991041061002501021001KA1999N-00111MD1210201+9999MW1231
0061108650999991927051406004+48183+011550FM-12+015599999V0209999900101220001CN0200001N9+00281+00061102071ADDAA199000691AY101061GF104991021011008001001081KA1999N-00111
0064108650999991927051506004+48183+011550FM-12+015599999V0209991C00001220001CN0040001N9+00391+00171101841ADDAY101061GF102991999001999999031001KA1999N-00221MD1810061+9999
0050108650999991927051606004+48183+011550FM-12+015599999V0209991C00001220001CN0020001N9+01221+00781101981ADDAY111061GF104991999001999999031001KA1999N+00501
0051108650999991927051612004+48183+011550FM-12+015599999V0202701N00461220001CN0200001N9+02221+01001101641ADDAY111061GF104991041011017501001001MD1810061+9999
0064108650999991927051706004+48183+011550FM-12+015599999V0209999900261220001CN0200001N9+01501+01061101931ADDAY111061GF104991001001999999001081KA1999N+00891MD1210061+9999
0100108650999991927051806004+48183+011550FM-12+015599999V02099999001019999999N0040001N9+00391+00171102201ADDAA199000691AY161061GF108991999061002501001001KA1999N+99999MD1310061+9999MW1211EQDQ01 +01112ATMN  
0050108650999991927051906004+48183+011550FM-12+015599999V0209991C00001220001CN0200001N9+01001+00611101931ADDAY111061GF104991001001999999999081KA1999N+00781
0075108650999991927052006004+48183+011550FM-12+015599999V0209999900101002401CN0100001N9+01111+01061101991ADDAA199013091AY161061GF108991061051002501021001KA1999N+00891MD1310201+9999
0064108650999991927052106004+48183+011550FM-12+015599999V0209999900261220001CN0100001N9+01221+00781101591ADDAY101061GF100991001001999999001001KA1999N+00611MD1810141+9999
0075108650999991927052206004+48183+011550FM-12+015599999V0209999900671220001CN0200001N9+01111+00671101301ADDAA199002091AY101061GF104991999011017501001001KA1999N+00891MD1210141+9999
0075108650999991927052306004+48183+011550FM-12+015599999V0209999900261004501CN0200001N9+00721+00501101911ADDAA199000591AY121061GF108991081051004501999999KA1999N+00391MD1110141+9999
0061108650999991927052406004+48183+011550FM-12+015599999V0209999900461036001CN0200001N9+00721+00501102751ADDAA199000691AY121061GF107991021051008001031001KA1999N+00281
0051108650999991927052412004+48183+011550FM-12+015599999V0202701N00671036001CN0100001N9+01001+00391102461ADDAY121061GF108991041051008001021001MD1710141+9999
0081108650999991927052506004+48183+011550FM-12+015599999V0209999900261000601CN0010001N9+00781+00721102001ADDAA199009091AY161061GF108991081061000751999999KA1999N+00721MD1410001+9999MW1631
0050108650999991927052606004+48183+011550FM-12+015599999V02099999001019999999N0100001N9+00891+00281101541ADDAY111061GF106991999001012501001001KA1999N+00501
0051108650999991927052612004+48183+011550FM-12+015599999V0203201N00671220001CN0200001N9+01221+00331101531ADDAY111061GF104991041011017501001081MD1210061+9999
0050108650999991927052706004+48183+011550FM-12+015599999V0209999900101220001CN0200001N9+00721+00331101731ADDAY101061GF102991001001999999001091KA1999N+00221
0051108650999991927052712004+48183+011550FM-12+015599999V0202701N00461220001CN0200001N9+01501+00331101301ADDAY101061GF102991011011017501001021MD1810141+9999
0081108650999991927052806004+48183+011550FM-12+015599999V0209999900101036001CN0040001N9+00721+00501101111ADDAA199000691AY161061GF108991041061008001021001KA1999N+00611MD1710061+9999MW1601
0081108650999991927052906004+48183+011550FM-12+015599999V0209999900261004501CN0020001N9+00781+00721101461ADDAA199001091AY161061GF108991061061004501021001KA1999N+00611MD1310141+9999MW1631
0051108650999991927052912004+48183+011550FM-12+015599999V0201101N00101220001CN0200001N9+01611+00721101301ADDAY111061GF104991999051017501999999MD1990061+9999
0075108650999991927053006004+48183+011550FM-12+015599999V0209999900101036001CN0040001N9+01501+01061101431ADDAA199001091AY111061GF106991021061012501031001KA1999N+01001MD1310061+9999
0051108650999991927053012004+48183+011550FM-12+015599999V0202301N00101036001CN0000001N9+02391+01111101111ADDAY111061GF106991021011000251031001MD1810141+9999
0050108650999991927053106004+48183+011550FM-12+015599999V0209999900261220001CN0100001N9+01781+01111100971ADDAY101061GF101991001001999999001081KA1999N+00891
0064108650999991927060106004+48183+011550FM-12+015599999V0209999900101021001CN0010001N9+02111+01441100601ADDAY111061GF108991081051022501999999KA1999N+01221MD1610061+9999
0064108650999991927060206004+48183+011550FM-12+015599999V0209991C00001220001CN0200001N9+01721+01281101101ADDAY111061GF104991999001999999021001KA1999N+01281MD1610061+9999
0075108650999991927060306004+48183+011550FM-12+015599999V0209999900101220001CN0500001N9+01781+01331101711ADDAA199000591AY101061GF104991001001999999001091KA1999N+01111MD1410001+9999
0081108650999991927060406004+48183+011550FM-12+015599999V0209991C00001036001CN0040001N9+01611+01561101261ADDAA199016091AY161061GF108991021061001501021001KA1999N+01391MD1610201+9999MW1211
0081108650999991927060506004+48183+011550FM-12+015599999V0209999900261002401CN0020001N9+01001+00941101631ADDAA199006091AY161061GF108991081061002501999999KA1999N+00891MD1310061+9999MW1631
0064108650999991927060606004+48183+011550FM-12+015599999V0209999900261220001CN0500001N9+01111+00671101301ADDAY101061GF102991001001999999031021KA1999N+00391MD1810201+9999
0064108650999991927060706004+48183+011550FM-12+015599999V02099999006719999999N0200001N9+01001+00781101951ADDAY111061GF107991999061017501001001KA1999N+00611MD1310141+9999
0050108650999991927060806004+48183+011550FM-12+015599999V02099999002619999999N0500001N9+01391+00721101551ADDAY111061GF107991999001022501031081KA1999N+00721
0061108650999991927060906004+48183+011550FM-12+015599999V0209991C00001220001CN0040001N9+01221+00781102121ADDAA199000591AY141061GF104991021011017501021001KA1999N+00721
0064108650999991927061006004+48183+011550FM-12+015599999V0209999900101220001CN0100001N9+01281+01061101721ADDAY101061GF106991001001999999031081KA1999N+00721MD1990061+9999
0064108650999991927061106004+48183+011550FM-12+015599999V0209999900101220001CN0500001N9+01611+01331101191ADDAY111061GF106991001001999999031081KA1999N+01111MD1710141+9999
0075108650999991927061206004+48183+011550FM-12+015599999V0209999900101220001CN0500001N9+01501+01281101401ADDAA199004091AY111061GF104991001001999999021021KA1999N+01001MD1110141+9999
0081108650999991927061306004+48183+011550FM-12+015599999V02099999004619999999N0020001N9+01281+01221101571ADDAA199000591AY161061GF108991999061004501001001KA1999N+01221MD1310141+9999MW1501
0050108650999991927061406004+48183+011550FM-12+015599999V0209999900101220001CN0100001N9+01391+01331101711ADDAY141061GF104991001001999999001021KA1999N+00721
0075108650999991927061506004+48183+011550FM-12+015599999V02099999001019999999N0040001N9+01781+01721101661ADDAA199000391AY111061GF106991999001022501031001KA1999N+01111MD1310061+9999
0081108650999991927061606004+48183+011550FM-12+015599999V0209999900261000601CN0010001N9+01721+01671102101ADDAA199000391AY141061GF108991081051000751999999KA1999N+01281MD1310061+9999MW1101
0050108650999991927061706004+48183+011550FM-12+015599999V0209991C00001220001CN0020001N9+01721+01671101601ADDAY141061GF100991001001999999001001KA1999N+01281
0081108650999991927061806004+48183+011550FM-12+015599999V0209999900461004501CN0020001N9+01611+01561101351ADDAA199005091AY161061GF108991081061004501999999KA1999N+01501MD1310061+9999MW1631
0064108650999991927061906004+48183+011550FM-12+015599999V0209999900261220001CN0500001N9+01501+01061101151ADDAY101061GF104991001001999999021081KA1999N+00891MD1810201+9999
0075108650999991927062006004+48183+011550FM-12+015599999V0209999900461220001CN0100001N9+01281+00831101971ADDAA199000691AY121061GF104991001001999999031081KA1999N+01001MD1310261+9999
0064108650999991927062106004+48183+011550FM-12+015599999V0209999900101220001CN0500001N9+01391+00721102691ADDAY101061GF101991999001022501031001KA1999N+00891MD1310061+9999
0050108650999991927062206004+48183+011550FM-12+015599999V0209999900461036001CN0200001N9+01891+01441101981ADDAY111061GF106991041051012501031001KA1999N+00891
0081108650999991927062306004+48183+011550FM-12+015599999V0209991C00001002401CN0040001N9+01221+01171102031ADDAA199006091AY161061GF108991999061002501001001KA1999N+01001MD1610061+9999MW1631
0075108650999991927062406004+48183+011550FM-12+015599999V0209991C00001021001CN0200001N9+01391+01171102111ADDAA199000691AY111061GF107991061051022501031001KA1999N+01111MD1990061+9999
0061108650999991927062506004+48183+011550FM-12+015599999V0209999900671036001CN0100001N9+01281+01061101391ADDAA199000691AY161061GF108991021061017501021001KA1999N+01111
0075108650999991927062606004+48183+011550FM-12+015599999V0209999900461220001CN0500001N9+01391+00941101141ADDAA199000591AY101061GF102991001001999999001081KA1999N+00721MD1810141+9999
0081108650999991927062706004+48183+011550FM-12+015599999V0209999900461002401CN0100001N9+00891+00831101241ADDAA199009091AY161061GF108991061061002501021001KA1999N+00781MD1210461+9999MW1211
0075108650999991927062806004+48183+011550FM-12+015599999V0209999900461220001CN0500001N9+01111+00891101841ADDAA199005091AY111061GF104991021051012501031001KA1999N+00721MD1310141+9999
0050108650999991927062906004+48183+011550FM-12+015599999V0209999900101220001CN0020001N9+01611+01331101841ADDAY141061GF100991001001999999001001KA1999N+00721
0064108650999991927063006004+48183+011550FM-12+015599999V0209991C00001220001CN0020001N9+01611+01171101231ADDAY101061GF101991001001999999001081KA1999N+00891MD1710061+9999
0064108650999991927070106004+48183+011550FM-12+015599999V0209999900101220001CN0500001N9+02001+01331100421ADDAY111061GF106991001001999999021081KA1999N+01501MD1610141+9999
0075108650999991927070206004+48183+011550FM-12+015599999V0209999900261036001CN0040001N9+01221+01001100931ADDAA199000591AY121061GF108991041051008001021001KA1999N+00891MD1610061+9999
0081108650999991927070306004+48183+011550FM-12+015599999V0209999900931004501CN0100001N9+01281+01061101331ADDAA199000691AY181061GF108991999061004501001001KA1999N+01221MD1310201+9999MW1211
0061108650999991927070406004+48183+011550FM-12+015599999V0209999900101036001CN0040001N9+01501+01281101681ADDAA199001091AY141061GF107991041051022501021001KA1999N+01281
0050108650999991927070506004+48183+011550FM-12+015599999V0209999900101220001CN0040001N9+01721+01281101671ADDAY141061GF100991001001999999001001KA1999N+01001
0064108650999991927070606004+48183+011550FM-12+015599999V0209991C00001220001CN0040001N9+02111+01441101601ADDAY101061GF100991001001999999001001KA1999N+01221MD1110061+9999
0075108650999991927070706004+48183+011550FM-12+015599999V0209999901231220001CN0500001N9+02001+01561101181ADDAA199001091AY101061GF104991999001999999031001KA1999N+01281MD1310141+9999
0064108650999991927070806004+48183+011550FM-12+015599999V0209991C00001220001CN0040001N9+01781+01561100831ADDAY101061GF102991999001022501031001KA1999N+01391MD1610061+9999
0050108650999991927070906004+48183+011550FM-12+015599999V0209999901231036001CN0100001N9+01781+01561099941ADDAY121061GF108991021061012501021001KA1999N+01611
0064108650999991927071006004+48183+011550FM-12+015599999V0209999900461036001CN0500001N9+01391+01171100311ADDAY101061GF106991041011017501031001KA1999N+01001MD1110141+9999
0075108650999991927071106004+48183+011550FM-12+015599999V0209999900671007801CN0100001N9+01721+01501101391ADDAA199001091AY111061GF107991999051008001001001KA1999N+01391MD1210261+9999
0064108650999991927071206004+48183+011550FM-12+015599999V0209999900101220001CN0040001N9+01721+01501101371ADDAY141061GF101991999001999999031001KA1999N+01111MD1810061+9999
0067108650999991927071306004+48183+011550FM-12+015599999V0209999900461002401CN0040001N9+01501+01441101351ADDAA199005091AY161061GF108991081061002501999999KA1999N+01391MW1611
0064108650999991927071406004+48183+011550FM-12+015599999V0209999900261036001CN0040001N9+01611+01561101491ADDAY141061GF106991021051008001031001KA1999N+01391MD1310061+9999
0064108650999991927071506004+48183+011550FM-12+015599999V0209999900101220001CN0100001N9+01781+01331101991ADDAY101061GF104991021051017501031001KA1999N+01281MD1310061+9999
0050108650999991927071606004+48183+011550FM-12+015599999V0209991C00001220001CN0100001N9+01721+01501101941ADDAY101061GF106991999001999999021001KA1999N+01001
0050108650999991927071706004+48183+011550FM-12+015599999V02099999001019999999N0100001N9+01611+01561101431ADDAY121061GF107991999001017501021001KA1999N+01391
0075108650999991927071806004+48183+011550FM-12+015599999V0209999900461220001CN0200001N9+01611+01331101601ADDAA199000691AY101061GF102991011011012501021001KA1999N+01221MD1310141+9999
0075108650999991927071906004+48183+011550FM-12+015599999V0209999900261036001CN0100001N9+01391+01171102151ADDAA199000691AY111061GF106991041051012501031001KA1999N+01221MD1110141+9999
0050108650999991927072006004+48183+011550FM-12+015599999V0209991C00001036001CN0040001N9+01281+01061102261ADDAY111061GF106991041051012501021001KA1999N+00781
0050108650999991927072106004+48183+011550FM-12+015599999V02099999001019999999N0040001N9+01501+01281102071ADDAY141061GF107991999001022501021001KA1999N+01001
0061108650999991927072206004+48183+011550FM-12+015599999V0209999900461220001CN0200001N9+01891+01441101431ADDAA199000691AY101061GF104991001001999999001081KA1999N+01391
0075108650999991927072306004+48183+011550FM-12+015599999V0209999900261002401CN0010001N9+01611+01561101001ADDAA199001091AY191061GF108991081091002501999999KA1999N+01391MD1410001+9999
0064108650999991927072406004+48183+011550FM-12+015599999V0209999900461220001CN0200001N9+01391+01171101871ADDAY101061GF102991011011017501031001KA1999N+00891MD1310141+9999
0064108650999991927072506004+48183+011550FM-12+015599999V0209999900101036001CN0500001N9+01501+01061102351ADDAY111061GF106991041051022501031001KA1999N+01111MD1310061+9999
0050108650999991927072606004+48183+011550FM-12+015599999V0209999900261220001CN0040001N9+01501+01061102241ADDAY141061GF100991001001999999001001KA1999N+01001
0067108650999991927072806004+48183+011550FM-12+015599999V0209999900461036001CN0100001N9+01611+01561101321ADDAA199012091AY161061GF108991041061008001021001KA1999N+01501MW1601
0050108650999991927072906004+48183+011550FM-12+015599999V0209991C000019999999N0040001N9+01391+01331101311ADDAY121061GF108991999001017501021001KA1999N+01221
0075108650999991927073006004+48183+011550FM-12+015599999V0209991C00001220001CN0010001N9+01391+01331102021ADDAA199000691AY141061GF102991021051022501021001KA1999N+00891MD1110141+9999
0050108650999991927073106004+48183+011550FM-12+015599999V0209991C00001220001CN0200001N9+01391+01331102101ADDAY101061GF100991001001999999001001KA1999N+00891
0064108650999991927080106004+48183+011550FM-12+015599999V0209999900101220001CN0040001N9+01611+01331101721ADDAY101061GF102991001001999999001081KA1999N+01111MD1810061+9999
0064108650999991927080206004+48183+011550FM-12+015599999V0209999900101220001CN0200001N9+02111+01671101681ADDAY101061GF102991001001999999001091KA1999N+01501MD1710061+9999
0075108650999991927080306004+48183+011550FM-12+015599999V0209999900261007801CN0040001N9+01611+01561102381ADDAA199012091AY121061GF108991081051008001999999KA1999N+01391MD1210061+9999
0037108650999991927080312004+48183+011550FM-12+015599999V0203601N00101000601CN0040001N9+01891+01611102391ADDAY121061GF108991081051000751999999
0067108650999991927080406004+48183+011550FM-12+015599999V0209999900101007801CN0005001N9+01611+01561102301ADDAA199000391AY161061GF108991081051008001999999KA1999N+01501MW1511
0051108650999991927080412004+48183+011550FM-12+015599999V0200901N00261036001CN0100001N9+02391+01721101901ADDAY141061GF106991041011012501021001MD1810141+9999
0056108650999991927080506004+48183+011550FM-12+015599999V0209991C00001000151CN0020001N9+01721+01671101831ADDAY141061GF108991081051000251999999KA1999N+01391MW1431
0070108650999991927080606004+48183+011550FM-12+015599999V0209999900101000151CN0000501N9+01611+01561101261ADDAY141061GF108991081051000251999999KA1999N+01281MD1810061+9999MW1471
0051108650999991927080612004+48183+011550FM-12+015599999V0200901N00461220001CN0200001N9+02721+01721100911ADDAY101061GF102991011011017501021001MD1810141+9999
0064108650999991927080706004+48183+011550FM-12+015599999V0209999900261004501CN0100001N9+01891+01831101131ADDAY121061GF108991061051004501021001KA1999N+01391MD1310141+9999
0064108650999991927080806004+48183+011550FM-12+015599999V0209999900101220001CN0200001N9+01721+01501101231ADDAY101061GF100991001001999999001001KA1999N+01281MD1810061+9999
0051108650999991927080812004+48183+011550FM-12+015599999V0200901N00461220001CN0500001N9+03001+01671100771ADDAY101061GF102991001001999999001021MD1610141+9999
0061108650999991927080906004+48183+011550FM-12+015599999V02099999001019999999N0500001N9+01721+01671101511ADDAA199001091AY161061GF106991999001022501031001KA1999N+01501
0051108650999991927080912004+48183+011550FM-12+015599999V0203201N002619999999N0200001N9+02281+01331101331ADDAY111061GF107991999091012501001001MD1810061+9999
0061108650999991927081006004+48183+011550FM-12+015599999V0209999900261220001CN0100001N9+01611+01331101841ADDAA199001091AY141061GF100991001001999999001001KA1999N+01111
0037108650999991927081012004+48183+011550FM-12+015599999V0202701N00261220001CN0500001N9+02391+01111101591ADDAY101061GF104991041011012501001001
0081108650999991927081106004+48183+011550FM-12+015599999V0209999900261220001CN0100001N9+01721+01501101581ADDAA199000591AY181061GF102991011091012501031001KA1999N+01281MD1990061+9999MW1211
0037108650999991927081112004+48183+011550FM-12+015599999V0202701N00931036001CN0500001N9+02111+01671101581ADDAY161061GF107991041051012501021001
0075108650999991927081206004+48183+011550FM-12+015599999V02099999006719999999N0100001N9+01501+01281101771ADDAA199010091AY111061GF106991999061008001001001KA1999N+01391MD1210201+9999
0051108650999991927081212004+48183+011550FM-12+015599999V0202901N00101007801CN0020001N9+01781+01561101801ADDAY111061GF107991061061008001021001MD1810061+9999
0061108650999991927081306004+48183+011550FM-12+015599999V0209999900461090001CN0100001N9+01501+01281101791ADDAA199000391AY111061GF106991021051017501001081KA1999N+01221
0050108650999991927081406004+48183+011550FM-12+015599999V0209999900261012301CN0500001N9+01501+01281101831ADDAY111061GF106991061051012501001001KA1999N+01001
0051108650999991927081412004+48183+011550FM-12+015599999V0202901N00671036001CN0500001N9+02611+01891101541ADDAY111061GF107991021091008001021001MD1610141+9999
0061108650999991927081506004+48183+011550FM-12+015599999V0209999900671036001CN0500001N9+01501+01441101151ADDAA199004091AY161061GF108991041061008001021001KA1999N+01391
0051108650999991927081512004+48183+011550FM-12+015599999V0202501N012319999999N0500001N9+01891+01441100901ADDAY161061GF107991999061008001001001MD1710061+9999
0061108650999991927081606004+48183+011550FM-12+015599999V0209999900261036001CN0200001N9+01221+01171100741ADDAA199000591AY181061GF107991041061008001021001KA1999N+01111
0057108650999991927081612004+48183+011550FM-12+015599999V0202501N012319999999N0500001N9+01501+01061100841ADDAY181061GF106991999011008001001001MD1010141+9999MW1801
0075108650999991927081706004+48183+011550FM-12+015599999V0209999900461036001CN0500001N9+01281+01221101571ADDAA199000691AY181061GF108991041051008001021001KA1999N+01111MD1310141+9999
0037108650999991927081712004+48183+011550FM-12+015599999V0202901N00261220001CN0500001N9+01891+00941101391ADDAY111061GF104991041011012501001001
0064108650999991927081806004+48183+011550FM-12+015599999V0209999900261220001CN0100001N9+01221+01171101171ADDAY101061GF102991001001999999031021KA1999N+00891MD1810201+9999
0037108650999991927081812004+48183+011550FM-12+015599999V0203601N004619999999N0500001N9+02391+01441100841ADDAY111061GF106991999999022501999999
0081108650999991927081906004+48183+011550FM-12+015599999V0209999900461002401CN0020001N9+01221+01171101501ADDAA199011091AY161061GF108991081061002501999999KA1999N+01111MD1310141+9999MW1631
0075108650999991927082006004+48183+011550FM-12+015599999V0209999900931220001CN0200001N9+01281+01061101951ADDAA199000691AY111061GF104991011051012501031001KA1999N+01001MD1310141+9999
0051108650999991927082012004+48183+011550FM-12+015599999V0202501N009319999999N0100001N9+01781+01111101941ADDAY111061GF106991999091008001001001MD1310061+9999
0064108650999991927082106004+48183+011550FM-12+015599999V0209999900101220001CN0500001N9+01391+01171101711ADDAY111061GF104991001001999999021021KA1999N+01221MD1610061+9999
0064108650999991927082206004+48183+011550FM-12+015599999V0209991C00001036001CN0100001N9+01721+01671101361ADDAY111061GF108991041051008001021001KA1999N+01611MD1410001+9999
0043108650999991927082212004+48183+011550FM-12+015599999V0203201N00461036001CN0200001N9+01891+01611101371ADDAY121061GF108991041061008001021001MW1161
0075108650999991927082306004+48183+011550FM-12+015599999V0209991C00001220001CN0500001N9+01721+01671101501ADDAA199000691AY111061GF107991999001999999031001KA1999N+01391MD1990061+9999
0051108650999991927082312004+48183+011550FM-12+015599999V0203401N00261012301CN0200001N9+02111+01441101301ADDAY111061GF108991081051012501999999MD1410001+9999
0081108650999991927082406004+48183+011550FM-12+015599999V02099999004619999999N0100001N9+01391+01331101391ADDAA199001091AY161061GF106991999001022501021001KA1999N+01221MD1810201+9999MW1211
0051108650999991927082412004+48183+011550FM-12+015599999V0201101N00101007801CN0100001N9+01891+01611101261ADDAY121061GF108991061051008001021001MD1990061+9999
0081108650999991927082506004+48183+011550FM-12+015599999V02099999006719999999N0100001N9+01111+01061101751ADDAA199025091AY161061GF108991999061004501001001KA1999N+00891MD1110141+9999MW1211
0051108650999991927082512004+48183+011550FM-12+015599999V0202501N00261220001CN0500001N9+01501+01061101621ADDAY181061GF104991041051012501001001MD1990061+9999
0061108650999991927082606004+48183+011550FM-12+015599999V0209999900461036001CN0500001N9+00891+00831101791ADDAA199000691AY121061GF108991021051012501021001KA1999N+00781
0037108650999991927082612004+48183+011550FM-12+015599999V0202701N006719999999N0200001N9+01221+00781101771ADDAY141061GF108991999061008001001001
0081108650999991927082706004+48183+011550FM-12+015599999V02099999004619999999N0020001N9+00781+00721102481ADDAA199003091AY161061GF108991999051002501001001KA1999N+00611MD1310061+9999MW1611
0057108650999991927082712004+48183+011550FM-12+015599999V0202901N00261036001CN0100001N9+01221+01171102471ADDAY161061GF108991021061008001021001MD1310061+9999MW1211
0067108650999991927082806004+48183+011550FM-12+015599999V0209991C00001220001CN0020001N9+01111+01061102731ADDAA199000391AY141061GF100991001001999999001001KA1999N+00721MW1421
0064108650999991927082906004+48183+011550FM-12+015599999V0209999900101220001CN0020001N9+00891+00831102571ADDAY141061GF100991001001999999001001KA1999N+00611MD1310061+9999
0051108650999991927082912004+48183+011550FM-12+015599999V0200901N00461220001CN0000501N9+02391+01111102191ADDAY101061GF100991001001999999001001MD1810061+9999
0064108650999991927083006004+48183+011550FM-12+015599999V0209991C00001220001CN0020001N9+01001+00941102661ADDAY141061GF100991001001999999001001KA1999N+00611MD1310141+9999
0051108650999991927083012004+48183+011550FM-12+015599999V0200701N00101220001CN0200001N9+02281+01061102261ADDAY101061GF101991011011012501001001MD1810061+9999
0050108650999991927083106004+48183+011550FM-12+015599999V0209991C00001220001CN0010001N9+01221+01171102471ADDAY141061GF100991001001999999001001KA1999N+00781
0037108650999991927083112004+48183+011550FM-12+015599999V0200901N00461220001CN0200001N9+02501+01561102201ADDAY101061GF100991001001999999001001
0050108650999991927090106004+48183+011550FM-12+015599999V0209999900101220001CN0020001N9+01391+01331102351ADDAY141061GF100991001001999999001001KA1999N+01001
0051108650999991927090112004+48183+011550FM-12+015599999V0200901N00671220001CN0200001N9+02501+01221102021ADDAY101061GF101991011011017501001001MD1810061+9999
0050108650999991927090206004+48183+011550FM-12+015599999V0209991C00001220001CN0020001N9+01111+01061102371ADDAY141061GF100991001001999999001001KA1999N+00721
0051108650999991927090212004+48183+011550FM-12+015599999V0200901N00461220001CN0200001N9+02391+01111101991ADDAY101061GF101991011011017501001001MD1810061+9999
0050108650999991927090306004+48183+011550FM-12+015599999V0209999900101220001CN0020001N9+00891+00831102291ADDAY141061GF100991001001999999001001KA1999N+00501
0051108650999991927090312004+48183+011550FM-12+015599999V0200701N00671220001CN0200001N9+02221+01001101811ADDAY101061GF102991001001999999001081MD1810141+9999
0056108650999991927090406004+48183+011550FM-12+015599999V0209991C00001000151CN0002001N9+01221+01171101751ADDAY141061GF108991081051000251999999KA1999N+00891MW1451
0050108650999991927090506004+48183+011550FM-12+015599999V0209999900261021001CN0100001N9+01391+01331101631ADDAY121061GF107991061051022501021001KA1999N+01221
0037108650999991927090512004+48183+011550FM-12+015599999V0202701N00101007801CN0100001N9+01891+01441101641ADDAY121061GF108991081051008001999999
0056108650999991927090606004+48183+011550FM-12+015599999V0209991C00001220001CN0005001N9+01111+01061101971ADDAY141061GF100991001001999999001001KA1999N+00891MW1421
0037108650999991927090612004+48183+011550FM-12+015599999V0200501N00101220001CN0200001N9+02391+01441101731ADDAY101061GF102991011011017501001021
0050108650999991927090706004+48183+011550FM-12+015599999V0209991C00001220001CN0020001N9+01221+01171101981ADDAY141061GF102991001001999999001081KA1999N+00891
0051108650999991927090712004+48183+011550FM-12+015599999V0200901N00461220001CN0200001N9+02611+01611101831ADDAY111061GF104991011011017501001081MD1810061+9999
0067108650999991927090806004+48183+011550FM-12+015599999V0209999900461036001CN0100001N9+01281+01221101981ADDAA199015091AY161061GF108991041061008001021001KA1999N+01001MW1601
0057108650999991927090812004+48183+011550FM-12+015599999V0202501N00261007801CN0040001N9+01501+01441101911ADDAY161061GF108991061061008001021001MD1810061+9999MW1611
0061108650999991927090906004+48183+011550FM-12+015599999V0209999900101001501CN0010001N9+01221+01171101871ADDAA199002091AY141061GF108991081051001501999999KA1999N+01111
0051108650999991927090912004+48183+011550FM-12+015599999V0202301N00261090001CN0200001N9+01891+01221101621ADDAY101061GF106991041011008001001081MD1610061+9999
0067108650999991927091006004+48183+011550FM-12+015599999V0209999900261036001CN0100001N9+01391+01331101431ADDAA199000591AY161061GF107991041061022501021001KA1999N+01281MW1211
0037108650999991927091012004+48183+011550FM-12+015599999V0202501N004619999999N0500001N9+02221+99999101091ADDAY111061GF106991999999012501999999
0075108650999991927091106004+48183+011550FM-12+015599999V0209999900261021001CN0500001N9+01501+01441100911ADDAA199003091AY101061GF106991061051022501031001KA1999N+01281MD1310141+9999
0075108650999991927091206004+48183+011550FM-12+015599999V0209999900461036001CN0200001N9+01001+00941101181ADDAA199015091AY121061GF108991021061008001021001KA1999N+00891MD1310141+9999
0057108650999991927091212004+48183+011550FM-12+015599999V0202501N002619999999N0100001N9+01221+01001101351ADDAY181061GF106991999061008001001001MD1310061+9999MW1211
0061108650999991927091306004+48183+011550FM-12+015599999V02099999006719999999N0100001N9+00891+00831102021ADDAA199000391AY111061GF106991999001017501031001KA1999N+00781
0037108650999991927091312004+48183+011550FM-12+015599999V0202701N00461015001CN0100001N9+01221+00611102121ADDAY111061GF107991061051017501031001
0050108650999991927091406004+48183+011550FM-12+015599999V0209999900101220001CN0040001N9+00891+00831101951ADDAY141061GF106991001001999999001021KA1999N+00391
0070108650999991927091412004+48183+011550FM-12+015599999V0202501N00261036001CN0100001N9+01781+00891104232ADDAY111061GF106991021011017501021001MD1810061+9999EQDQ01+104233APOSLP
0050108650999991927091506004+48183+011550FM-12+015599999V0209991C00001220001CN0010001N9+00781+00721101601ADDAY111061GF104991001001999999001081KA1999N+00281
0037108650999991927091512004+48183+011550FM-12+015599999V0200901N00261220001CN0500001N9+02221+01001101181ADDAY111061GF104991001001999999001021
0050108650999991927091606004+48183+011550FM-12+015599999V0209991C00001220001CN0500001N9+00721+00671101011ADDAY141061GF106991001001999999021021KA1999N+00611
0051108650999991927091612004+48183+011550FM-12+015599999V0209991C00001220001CN0200001N9+02001+00781100461ADDAY111061GF107991999001999999021001MD1810061+9999
0081108650999991927091706004+48183+011550FM-12+015599999V0209999900931002401CN0040001N9+01001+00941100611ADDAA199021091AY161061GF108991061061002501021001KA1999N+00891MD1310141+9999MW1631
0061108650999991927091806004+48183+011550FM-12+015599999V0209999900671036001CN0500001N9+01221+01001101001ADDAA199000391AY111061GF108991021051012501021001KA1999N+01001
0057108650999991927091812004+48183+011550FM-12+015599999V0202501N01541007801CN0100001N9+01281+01221100781ADDAY181061GF108991061061008001021001MD1510061+9999MW1811
0067108650999991927091906004+48183+011550FM-12+015599999V0209999900261002401CN0020001N9+01221+01171101301ADDAA199014091AY161061GF108991999061002501001001KA1999N+00891MW1531
0081108650999991927092006004+48183+011550FM-12+015599999V0209999900671001501CN0020001N9+01281+01221101361ADDAA199008091AY161061GF108991081061001501999999KA1999N+01281MD1310261+9999MW1631
0057108650999991927092012004+48183+011550FM-12+015599999V0202901N00461004501CN0200001N9+01721+01501101491ADDAY181061GF108991061061004501021001MD1310061+9999MW1801
0064108650999991927092106004+48183+011550FM-12+015599999V0209999900261220001CN0500001N9+01501+01441101621ADDAY101061GF102991001001999999001081KA1999N+01221MD1810061+9999
0051108650999991927092112004+48183+011550FM-12+015599999V0202701N00671220001CN0500001N9+02611+01331101301ADDAY101061GF100991001001999999001001MD1810141+9999
0064108650999991927092206004+48183+011550FM-12+015599999V0209999900671220001CN0500001N9+01781+01111101031ADDAY101061GF104991001001999999031091KA1999N+01221MD1710201+9999
0051108650999991927092212004+48183+011550FM-12+015599999V0202301N00101220001CN0500001N9+02721+01441100631ADDAY111061GF107991999001999999031001MD1810261+9999
0100108650999991927092306004+48183+011550FM-12+015599999V0209999900461036001CN0040001N9+01281+01221100751ADDAA199015091AY161061GF108991041061004501021001KA1999N+99999MD1410001+9999MW1631EQDQ01 +01392ATMN  
0051108650999991927092312004+48183+011550FM-12+015599999V0202501N006719999999N0100001N9+01391+00941100781ADDAY121061GF107991999999022501999999MD1990061+9999
0061108650999991927092406004+48183+011550FM-12+015599999V0209999900101220001CN0200001N9+01221+01171099771ADDAA199000691AY101061GF104991999001999999031001KA1999N+00721
0051108650999991927092412004+48183+011550FM-12+015599999V0201801N00101220001CN0500001N9+01891+00941099531ADDAY111061GF107991999001999999031001MD1810141+9999
0067108650999991927092506004+48183+011550FM-12+015599999V0209999900261001501CN0100001N9+01001+00941099931ADDAA199006091AY161061GF108991081061001501999999KA1999N+00501MW1631
0043108650999991927092512004+48183+011550FM-12+015599999V0202301N00101001501CN0020001N9+01001+00941099951ADDAY161061GF108991081061001501999999MW1631
0075108650999991927092606004+48183+011550FM-12+015599999V0209999900461036001CN0500001N9+01001+00611101321ADDAA199002091AY111061GF106991041051017501031001KA1999N+00781MD1310201+9999
0037108650999991927092612004+48183+011550FM-12+015599999V0202301N00461090001CN0500001N9+01391+00501101431ADDAY111061GF108991041051017501001081
0064108650999991927092706004+48183+011550FM-12+015599999V0209991C00001015001CN0100001N9+00891+00831101831ADDAY111061GF107991061051017501021001KA1999N+00721MD1310141+9999
0037108650999991927092712004+48183+011550FM-12+015599999V0200901N001019999999N0100001N9+01391+00721101761ADDAY111061GF108991999011017501001001
0056108650999991927092806004+48183+011550FM-12+015599999V0209991C00001220001CN0010001N9+00611+00561102431ADDAY141061GF104991999001999999021001KA1999N+00391MW1101
0037108650999991927092812004+48183+011550FM-12+015599999V0201101N00261220001CN0200001N9+01501+00831102291ADDAY111061GF104991041011012501001001
0056108650999991927092906004+48183+011550FM-12+015599999V0209999900101000151CN0000001N9+00611+00561102521ADDAY141061GF108991081051000251999999KA1999N+00281MW1471
0051108650999991927092912004+48183+011550FM-12+015599999V0200901N00461220001CN0200001N9+01781+00891101911ADDAY101061GF102991011011012501001021MD1810201+9999
0056108650999991927093006004+48183+011550FM-12+015599999V0209999900101220001CN0010001N9+00721+00671101501ADDAY141061GF106991001001999999021081KA1999N+00391MW1101
0051108650999991927093012004+48183+011550FM-12+015599999V0209991C00001012301CN0100001N9+01391+00941101401ADDAY121061GF107991061051012501021001MD1410001+9999
0061108650999991927100106004+48183+011550FM-12+015599999V0209999900101220001CN0020001N9+00501+00441102641ADDAA199002091AY141061GF100991001001999999001001KA1999N+00391
0051108650999991927100112004+48183+011550FM-12+015599999V0203401N00101012301CN0100001N9+01281+00391102371ADDAY111061GF106991061011012501001001MD1610061+9999
0064108650999991927100206004+48183+011550FM-12+015599999V0209999900261220001CN0100001N9+00611+00561102401ADDAY101061GF102991001001999999001021KA1999N+00221MD1310061+9999
0064108650999991927100306004+48183+011550FM-12+015599999V0209999900461007801CN0200001N9+01221+01171101971ADDAY111061GF107991061051008001021001KA1999N+00781MD1310061+9999
0043108650999991927100312004+48183+011550FM-12+015599999V0203601N00671002401CN0020001N9+01001+00941102231ADDAY181061GF108991061061002501021001MW1211
0056108650999991927100406004+48183+011550FM-12+015599999V0209991C00001220001CN0005001N9+00221+00171102911ADDAY141061GF100991001001999999001001KA1999N+00001MW1441
0051108650999991927100412004+48183+011550FM-12+015599999V0203601N00261220001CN0200001N9+01281+00111102381ADDAY101061GF102991021011012501001001MD1810061+9999
0070108650999991927100506004+48183+011550FM-12+015599999V0209991C00001220001CN0020001N9+00001-00061102751ADDAY141061GF100991001001999999001001KA1999N-00111MD1310061+9999MW1461
0037108650999991927100512004+48183+011550FM-12+015599999V0203601N00461220001CN0040001N9+00721+00501102591ADDAY161061GF104991041011008001031001
0050108650999991927100606004+48183+011550FM-12+015599999V0209999900261036001CN0040001N9+00281+00221102951ADDAY141061GF106991021051012501021001KA1999N+00111
0037108650999991927100612004+48183+011550FM-12+015599999V0203201N00461036001CN0100001N9+00721+00331102801ADDAY111061GF107991041051012501021001
0056108650999991927100706004+48183+011550FM-12+015599999V0209999900101220001CN0010001N9+00221+00171102921ADDAY141061GF107991001001999999031081KA1999N+00001MW1101
0057108650999991927100712004+48183+011550FM-12+015599999V0203201N00101007801CN0040001N9+00781+00391102691ADDAY121061GF108991081061008001999999MD1610061+9999MW1501
0067108650999991927100806004+48183+011550FM-12+015599999V0209991C00001000151CN0000501N9+00721+00671102701ADDAA199001091AY141061GF108991081051000251999999KA1999N+00611MW1471
0051108650999991927100812004+48183+011550FM-12+015599999V0201101N00261007801CN0100001N9+01001+00781102641ADDAY111061GF108991061051008001001081MD1990061+9999
0051108650999991927100912004+48183+011550FM-12+015599999V0201101N00671220001CN0100001N9+01111+00501103071ADDAY111061GF104991999051008001001001MD1010001+9999
0051108650999991927101012004+48183+011550FM-12+015599999V0201101N00461220001CN0100001N9+01391+00501102791ADDAY101061GF101991001001999999001081MD1810061+9999
0051108650999991927101112004+48183+011550FM-12+015599999V0203201N00261001501CN0020001N9+00721+00671102481ADDAY141061GF108991081051001501999999MD1810141+9999
0057108650999991927101212004+48183+011550FM-12+015599999V0203601N00101000151CN0002001N9+00611+00561102521ADDAY141061GF108991081051000251999999MD1810061+9999MW1471
0070108650999991927101312004+48183+011550FM-12+015599999V0201401N002619999999N0040001N9+99999+99999102021ADDAY121061GF108991999051004501001001MD1810201+9999EQDQ01 +04893ATOT  
0070108650999991927101406004+48183+011550FM-12+015599999V0209999900261004501CN0020001N9+00721+00671101411ADDAY141061GF108991081051004501999999KA1999N+00611MD1510001+9999MW1471
0051108650999991927101412004+48183+011550FM-12+015599999V0203601N00261004501CN0020001N9+00891+00671101361ADDAY141061GF108991081051004501999999MD1810061+9999
0050108650999991927101506004+48183+011550FM-12+015599999V0209999900101004501CN0020001N9+00611+00561101551ADDAY141061GF108991081051004501999999KA1999N+00501
0037108650999991927101512004+48183+011550FM-12+015599999V0200901N00461007801CN0040001N9+00891+00441101471ADDAY141061GF108991081051008001999999
0050108650999991927101606004+48183+011550FM-12+015599999V0209999900101004501CN0020001N9+00501+00441101231ADDAY141061GF108991081051004501999999KA1999N+00391
0070108650999991927101706004+48183+011550FM-12+015599999V0209999900101002401CN0010001N9+00721+00671101391ADDAY141061GF108991081051002501999999KA1999N+00501MD1010001+9999MW1101
0029108650999991927101712004+48183+011550FM-12+015599999V0202701N01231090001CN9999999N9+01281+99999101151ADDGF106991021011012501001021
0050108650999991927101806004+48183+011550FM-12+015599999V0209999900931007801CN0100001N9+00891+00441101391ADDAY111061GF106991061051008001001001KA1999N+00501
0051108650999991927101812004+48183+011550FM-12+015599999V0202701N00671090001CN0200001N9+01221+00611101231ADDAY111061GF106991041011017501001081MD1990061+9999
0064108650999991927101906004+48183+011550FM-12+015599999V0209991C00001021001CN0010001N9+00721+00671101571ADDAY141061GF107991071051022501001001KA1999N+00611MD1310061+9999
0051108650999991927101912004+48183+011550FM-12+015599999V0201101N00101036001CN0020001N9+01111+00671101431ADDAY141061GF108991041051017501031001MD1810061+9999
0051108650999991927102006004+48183+011550FM-12+015599999V0209999900261015001CN0100001N9+00611+00561102041ADDAY111061GF106991061051017501001001MD1310141+9999
0050108650999991927102106004+48183+011550FM-12+015599999V0209991C00001007801CN0020001N9+00611+00561102331ADDAY121061GF108991081051008001999999KA1999N+00501
0051108650999991927102112004+48183+011550FM-12+015599999V0200901N002619999999N0100001N9+01221+00331102081ADDAY111061GF108991999051008001001001MD1810141+9999
0070108650999991927102206004+48183+011550FM-12+015599999V02099999001019999999N0005001N9+00111+00061101701ADDAY141061GF107991999001022501031081KA1999N-00111MD1210201+9999MW1421
0081108650999991927102306004+48183+011550FM-12+015599999V0209999900671007801CN0100001N9+00611+00561100631ADDAA199001091AY161061GF108991081061008001999999KA1999N+00501MD1310401+9999MW1611
0057108650999991927102312004+48183+011550FM-12+015599999V0201801N00671007801CN0040001N9+00501+00441100551ADDAY161061GF108991081061008001999999MD1990141+9999MW1611
0081108650999991927102406004+48183+011550FM-12+015599999V0209999900931036001CN0100001N9+00781+00561100951ADDAA199004091AY121061GF108991041061012501021001KA1999N+00391MD1310261+9999MW1601
0057108650999991927102412004+48183+011550FM-12+015599999V0202701N01541036001CN0040001N9+00891+00441101461ADDAY181061GF107991041061008001031001MD1310261+9999MW1161
0051108650999991927102512004+48183+011550FM-12+015599999V0202501N00671220001CN0500001N9+01391+00501100911ADDAY101061GF102991001001999999001081MD1810061+9999
0064108650999991927102606004+48183+011550FM-12+015599999V0209999900261220001CN0040001N9+00501+00441102661ADDAY101061GF100991001001999999001001KA1999N+00281MD1410001+9999
0037108650999991927102612004+48183+011550FM-12+015599999V0202701N00461220001CN0500001N9+01611+00941102331ADDAY101061GF102991001001999999001021
0050108650999991927102706004+48183+011550FM-12+015599999V0209999900101220001CN0100001N9+00501+00441102571ADDAY101061GF101991001001999999001021KA1999N+00281
0051108650999991927102712004+48183+011550FM-12+015599999V0202901N00261220001CN0500001N9+02001+00781102171ADDAY101061GF101991001001999999001021MD1810141+9999
0050108650999991927102806004+48183+011550FM-12+015599999V0209999900101220001CN0500001N9+00501+00441102611ADDAY101061GF102991001001999999001021KA1999N+00391
0051108650999991927102812004+48183+011550FM-12+015599999V0202701N00261220001CN0500001N9+01891+00671102111ADDAY101061GF104991001001999999001021MD1810141+9999
0064108650999991927102906004+48183+011550FM-12+015599999V0209999900261220001CN0500001N9+00721+00501102531ADDAY101061GF104991021051017501031001KA1999N+00501MD1310201+9999
0051108650999991927102912004+48183+011550FM-12+015599999V0202501N00931220001CN0500001N9+01611+00941102311ADDAY111061GF106991999001999999021001MD1810061+9999
0070108650999991927103006004+48183+011550FM-12+015599999V0209999900261220001CN0020001N9+00111+00061102641ADDAY101061GF102991001001999999001021KA1999N+00001MD1610141+9999MW1441
0051108650999991927103012004+48183+011550FM-12+015599999V0200901N00261220001CN0100001N9+01611+00941102111ADDAY101061GF102991001001999999001021MD1610141+9999
0056108650999991927103106004+48183+011550FM-12+015599999V0209991C00001220001CN0040001N9+00221+00171102301ADDAY141061GF100991001001999999001001KA1999N-00111MW1421
0070108650999991927103112004+48183+011550FM-12+015599999V0203201N00101220001CN0500001N9+02612+01611101761ADDAY101061GF100991001001999999001001MD1810141+9999EQDQ01+029933ATOT  
0064108650999991927110106004+48183+011550FM-12+015599999V0209999900101007801CN0040001N9+00891+00831102871ADDAY121061GF108991081051008001999999KA1999N+00501MD1310141+9999
0037108650999991927110112004+48183+011550FM-12+015599999V0200501N00101012301CN0100001N9+01221+01171102991ADDAY121061GF108991061051012501021001
0070108650999991927110206004+48183+011550FM-12+015599999V0209999900101000151CN0005001N9+00781+00721103241ADDAY141061GF108991081051000251999999KA1999N+00611MD1310141+9999MW1451
0051108650999991927110212004+48183+011550FM-12+015599999V0202501N00671012301CN0040001N9+01391+01171103041ADDAY111061GF108991081051012501999999MD1990141+9999
0061108650999991927110306004+48183+011550FM-12+015599999V02099999001019999999N0040001N9+01221+01171103201ADDAA199002091AY121061GF108991999061012501001001KA1999N+01111
0051108650999991927110312004+48183+011550FM-12+015599999V0200501N00101220001CN0040001N9+01721+01281102801ADDAY141061GF104991021051002501001081MD1810201+9999
0064108650999991927110406004+48183+011550FM-12+015599999V0209999900261220001CN0020001N9+00721+00671102601ADDAY141061GF104991001001999999001021KA1999N+00501MD1410001+9999
0051108650999991927110412004+48183+011550FM-12+015599999V0202701N01231220001CN0200001N9+01781+01111102511ADDAY101061GF100991001001999999001001MD1810261+9999
0064108650999991927110506004+48183+011550FM-12+015599999V0209999900101036001CN0020001N9+00721+00671101901ADDAY111061GF106991041051008001031001KA1999N+00501MD1810141+9999
0057108650999991927110512004+48183+011550FM-12+015599999V0202701N00261004501CN0020001N9+00891+00831101761ADDAY161061GF108991081061004501999999MD1810061+9999MW1531
0064108650999991927110606004+48183+011550FM-12+015599999V0209999900461004501CN0100001N9+00721+00501100791ADDAY121061GF107991061051004501021001KA1999N+00501MD1810141+9999
0051108650999991927110612004+48183+011550FM-12+015599999V0202701N00671004501CN0100001N9+01001+00611100671ADDAY121061GF108991081051004501999999MD1810141+9999
0064108650999991927110706004+48183+011550FM-12+015599999V0209999900261007801CN0010001N9+00501+00441100081ADDAY111061GF106991061051008001031001KA1999N+00391MD1810141+9999
0051108650999991927110712004+48183+011550FM-12+015599999V0201401N00101036001CN0040001N9+01391+00721099761ADDAY111061GF107991041051012501021001MD1810061+9999
0081108650999991927110806004+48183+011550FM-12+015599999V0209999900101004501CN0020001N9+00721+00671100841ADDAA199000691AY121061GF108991999051004501001001KA1999N+00391MD1310201+9999MW1501
0051108650999991927110812004+48183+011550FM-12+015599999V0200901N00461007801CN0100001N9+00501+00281100971ADDAY121061GF108991081051008001999999MD1810141+9999
0081108650999991927110906004+48183+011550FM-12+015599999V0209999900101007801CN0010001N9+00611+00561100061ADDAA199000391AY161061GF108991999061008001001001KA1999N+00391MD1610061+9999MW1601
0051108650999991927110912004+48183+011550FM-12+015599999V0202001N00101036001CN0040001N9+01391+00941099591ADDAY111061GF106991041051022501031001MD1710261+9999
0081108650999991927111006004+48183+011550FM-12+015599999V0209999900261002401CN0020001N9+00611+00561099271ADDAA199022091AY161061GF108991081061002501999999KA1999N+00611MD1210201+9999MW1631
0057108650999991927111012004+48183+011550FM-12+015599999V0202701N00261000601CN0005001N9+00111+00061099441ADDAY171061GF108991081061000751999999MD1110141+9999MW1701
0075108650999991927111106004+48183+011550FM-12+015599999V02099999001019999999N0010001N9+00001-00061100511ADDAA199001091AY141061GF108991999061004501001001KA1999N-00111MD1310141+9999
0037108650999991927111112004+48183+011550FM-12+015599999V0202701N00461036001CN0100001N9+00221+00001100641ADDAY111061GF107991041051012501021001
0064108650999991927111206004+48183+011550FM-12+015599999V0209999900461004501CN0020001N9-00111-00171100881ADDAY111061GF106991061051004501021001KA1999N-00391MD1310141+9999
0057108650999991927111212004+48183+011550FM-12+015599999V0202701N00671002401CN0005001N9+00001-00061101331ADDAY171061GF108991081061002501999999MD1110061+9999MW1731
0075108650999991927111306004+48183+011550FM-12+015599999V0209991C00001220001CN0040001N9-00391-00441102231ADDAA199001091AY141061GF106991001001999999031081KA1999N-00611MD1310141+9999
0070108650999991927111406004+48183+011550FM-12+015599999V0209999900261004501CN0010001N9-00281-00331102531ADDAY141061GF108991081061004501999999KA1999N-00391MD1310061+9999MW1101
0037108650999991927111412004+48183+011550FM-12+015599999V0202701N00101004501CN0020001N9-00111-00281102521ADDAY121061GF107991061011004501021001
0070108650999991927111506004+48183+011550FM-12+015599999V0209999900461220001CN0005001N9-00611-00781102801ADDAY141061GF101991001001999999001081KA1999N-00721MD1310061+9999MW1441
0037108650999991927111512004+48183+011550FM-12+015599999V0202901N00461220001CN0040001N9+00111-00441102591ADDAY101061GF104991021051012501031001
0067108650999991927111606004+48183+011550FM-12+015599999V0209999900261004501CN0020001N9-00221-00721102711ADDAA199000691AY121061GF108991061061004501021001KA1999N-00281MW1711
0057108650999991927111612004+48183+011550FM-12+015599999V0202701N00461002401CN0020001N9-00111-00281102691ADDAY171061GF108991081061002501999999MD1810061+9999MW1711
0075108650999991927111706004+48183+011550FM-12+015599999V0209999900461002401CN0010001N9+00111+00061102461ADDAA199009091AY121061GF108991081061002501999999KA1999N-00111MD1310141+9999
0051108650999991927111712004+48183+011550FM-12+015599999V0202701N00461004501CN0040001N9+00221+00171102381ADDAY121061GF108991081061004501999999MD1810061+9999
0064108650999991927111806004+48183+011550FM-12+015599999V0209999900101002401CN0010001N9+00111+00061101971ADDAY141061GF108991081061002501999999KA1999N+00001MD1810061+9999
0037108650999991927111812004+48183+011550FM-12+015599999V0201101N00261004501CN0020001N9+00221+00001101811ADDAY121061GF108991081051004501999999
0070108650999991927111906004+48183+011550FM-12+015599999V0209999900461000151CN0000501N9-00221-00281101461ADDAY141061GF108991081051000251999999KA1999N-00221MD1810141+9999MW1471
0051108650999991927111912004+48183+011550FM-12+015599999V0200901N00461036001CN0020001N9+00221+00001101181ADDAY141061GF106991041051008001021001MD1810141+9999
0070108650999991927112006004+48183+011550FM-12+015599999V0209999900461000151CN0002001N9-00111-00171101461ADDAY141061GF108991081051000251999999KA1999N-00111MD1810141+9999MW1451
0051108650999991927112012004+48183+011550FM-12+015599999V0200901N00671002401CN0020001N9+00111-00111101191ADDAY141061GF108991081051002501999999MD1810141+9999
0064108650999991927112106004+48183+011550FM-12+015599999V0209999900261002401CN0010001N9+00001-00061101111ADDAY141061GF108991081051002501999999KA1999N-00111MD1210401+9999
0051108650999991927112112004+48183+011550FM-12+015599999V0202501N00101007801CN0010001N9+00281-00111101681ADDAY141061GF106991061051008001001001MD1310261+9999
0064108650999991927112206004+48183+011550FM-12+015599999V0209999900931004501CN0020001N9+00001-00061101061ADDAY141061GF108991081051004501999999KA1999N-00111MD1710261+9999
0051108650999991927112212004+48183+011550FM-12+015599999V0200901N00261004501CN0020001N9+00221+00001100921ADDAY141061GF108991081051004501999999MD1990061+9999
0056108650999991927112306004+48183+011550FM-12+015599999V0209999900931000151CN0005001N9+00001-00061100711ADDAY141061GF108991081051000251999999KA1999N+00001MW1431
0051108650999991927112312004+48183+011550FM-12+015599999V0202901N00261220001CN0020001N9+00721+00331100921ADDAY141061GF104991999051004501021001MD1310201+9999
0070108650999991927112406004+48183+011550FM-12+015599999V0209991C00001000601CN0005001N9+00281+00221102271ADDAY141061GF108991081051000751999999KA1999N+00111MD1310141+9999MW1451
0057108650999991927112412004+48183+011550FM-12+015599999V0200701N00101002401CN0010001N9+00501+00441102371ADDAY141061GF108991081051002501999999MD1310061+9999MW1101
0056108650999991927112506004+48183+011550FM-12+015599999V0209999900461007801CN0010001N9+00221+00171102901ADDAY121061GF108991081051008001999999KA1999N+00111MW1101
0037108650999991927112512004+48183+011550FM-12+015599999V0202501N00261220001CN0040001N9+00721+00331103091ADDAY101061GF102991011051004501021001
0056108650999991927112606004+48183+011550FM-12+015599999V0209999900461000151CN0002001N9+00221+00171103771ADDAY141061GF108991081051000251999999KA1999N+00001MW1451
0051108650999991927112612004+48183+011550FM-12+015599999V0200901N00931002401CN0020001N9+00391+00331103501ADDAY141061GF108991081051002501999999MD1990141+9999
0070108650999991927112706004+48183+011550FM-12+015599999V0209999900101220001CN0002001N9-00111-00171102711ADDAY141061GF104991041051004501021001KA1999N-00221MD1810141+9999MW1441
0057108650999991927112712004+48183+011550FM-12+015599999V0203201N00101002401CN0002001N9+00111+00061102481ADDAY141061GF108991081051002501999999MD1810061+9999MW1451
0070108650999991927112806004+48183+011550FM-12+015599999V0209999900101001501CN0002001N9+00111+00061102781ADDAY141061GF108991081051001501999999KA1999N+00111MD1310061+9999MW1451
0043108650999991927112812004+48183+011550FM-12+015599999V0203401N00101000151CN0005001N9+00001-00061102831ADDAY141061GF108991081051000251999999MW1431
0056108650999991927112906004+48183+011550FM-12+015599999V0209999900101000151CN0000501N9-00111-00171102731ADDAY141061GF108991081051000251999999KA1999N-00111MW1471
0076108650999991927112912004+48183+011550FM-12+015599999V0200901N00101000151CN0002001N9+00001-03222102661ADDAY141061GF108991081051000251999999MD1810061+9999MW1461EQDQ01+024103ATOD  
0056108650999991927113006004+48183+011550FM-12+015599999V0209999900261000151CN0002001N9-00221-00281102801ADDAY141061GF108991081051000251999999KA1999N-00221MW1451
0057108650999991927113012004+48183+011550FM-12+015599999V0200901N00261000151CN0002001N9-00221-00281102661ADDAY141061GF108991081051000251999999MD1810141+9999MW1451
0056108650999991927120106004+48183+011550FM-12+015599999V0209999900461001501CN0010001N9-00221-00281102441ADDAY141061GF108991081051001501999999KA1999N-00281MW1101
0037108650999991927120112004+48183+011550FM-12+015599999V0200901N00671001501CN0020001N9-00111-00171102391ADDAY141061GF108991081051001501999999
0067108650999991927120206004+48183+011550FM-12+015599999V0209999900261001501CN0010001N9-00111-00171102471ADDAA199000691AY141061GF108991081051001501999999KA1999N-00221MW1101
0057108650999991927120212004+48183+011550FM-12+015599999V0201101N00461000601CN0010001N9-00111-00171102371ADDAY141061GF108991081051000751999999MD1810061+9999MW1451
0056108650999991927120306004+48183+011550FM-12+015599999V0209999900101000151CN0002001N9-00221-00281102381ADDAY141061GF108991081051000251999999KA1999N-00281MW1471
0057108650999991927120312004+48183+011550FM-12+015599999V0200901N00101000151CN0005001N9-00111-00171102241ADDAY141061GF108991081051000251999999MD1810141+9999MW1451
0056108650999991927120406004+48183+011550FM-12+015599999V0209999900461002401CN0010001N9-00281-00331101761ADDAY141061GF108991081051002501999999KA1999N-00281MW1101
0043108650999991927120412004+48183+011550FM-12+015599999V0200701N00101001501CN0010001N9-00221-00281101791ADDAY141061GF108991081051001501999999MW1451
0070108650999991927120506004+48183+011550FM-12+015599999V0209999900101000151CN0000501N9-00281-00331101991ADDAY141061GF108991081051000251999999KA1999N-00281MD1310061+9999MW1471
0057108650999991927120512004+48183+011550FM-12+015599999V0200901N00461004501CN0000501N9-00111-00171101991ADDAY141061GF108991081051004501999999MD1710061+9999MW1471
0070108650999991927120606004+48183+011550FM-12+015599999V0209999900671000151CN0000501N9-00221-00281101701ADDAY141061GF108991081051000251999999KA1999N-00281MD1810141+9999MW1451
0057108650999991927120612004+48183+011550FM-12+015599999V0200901N00261000151CN0005001N9-00111-00171101431ADDAY141061GF108991081051000251999999MD1810201+9999MW1431
0075108650999991927120706004+48183+011550FM-12+015599999V0209999900261036001CN0500001N9+00111+00061100791ADDAA199000691AY111061GF106991041051008001021001KA1999N-00111MD1010001+9999
0051108650999991927120712004+48183+011550FM-12+015599999V0200901N00261036001CN0040001N9+00501+00441100701ADDAY111061GF106991041051008001021001MD1810061+9999
0056108650999991927120806004+48183+011550FM-12+015599999V0209999900101000151CN0000501N9-00111-00171101061ADDAY141061GF108991081051000251999999KA1999N-00501MW1451
0043108650999991927120812004+48183+011550FM-12+015599999V0202701N00101000151CN0002001N9+00001-00061101141ADDAY141061GF108991081051000251999999MW1451
0064108650999991927120906004+48183+011550FM-12+015599999V0209999900261002401CN0010001N9+00001-00061101501ADDAY141061GF108991081051002501999999KA1999N-00111MD1310141+9999
0051108650999991927120912004+48183+011550FM-12+015599999V0202701N00261002401CN0020001N9+00111+00061101701ADDAY141061GF108991081051002501999999MD1410001+9999
0067108650999991927121006004+48183+011550FM-12+015599999V0209999900261000151CN0002001N9+00111+00061101871ADDAA199001091AY141061GF108991081051000251999999KA1999N+00001MW1471
0057108650999991927121012004+48183+011550FM-12+015599999V0201101N00261000601CN0010001N9+00111+00061101791ADDAY141061GF108991081051000751999999MD1810061+9999MW1101
0050108650999991927121106004+48183+011550FM-12+015599999V0209991C00001004501CN0040001N9-00111-00171101901ADDAY121061GF108991081051004501999999KA1999N-00111
0037108650999991927121112004+48183+011550FM-12+015599999V0200901N004619999999N0040001N9+00001-00221101791ADDAY111061GF108991999051004501001001
0064108650999991927121206004+48183+011550FM-12+015599999V0209999900671002401CN0020001N9-00281-00331101371ADDAY121061GF108991081051002501999999KA1999N-00391MD1810141+9999
0051108650999991927121212004+48183+011550FM-12+015599999V0201101N00671002401CN0040001N9-00111-00281100861ADDAY121061GF108991081051002501999999MD1810201+9999
0081108650999991927121306004+48183+011550FM-12+015599999V0209999900101002401CN0005001N9-00391-00441100641ADDAA199000691AY141061GF108991081051002501999999KA1999N-00391MD1110061+9999MW1431
0037108650999991927121312004+48183+011550FM-12+015599999V0203201N00101002401CN0020001N9-00281-00441100771ADDAY121061GF108991081051002501999999
0064108650999991927121406004+48183+011550FM-12+015599999V0209999900101002401CN0020001N9-00391-00441101191ADDAY121061GF108991081051002501999999KA1999N-00391MD1110061+9999
0051108650999991927121412004+48183+011550FM-12+015599999V0200901N00261001501CN0010001N9-00221-00281101171ADDAY121061GF108991081051001501999999MD1810141+9999
0081108650999991927121506004+48183+011550FM-12+015599999V0209999900101001501CN0005001N9+00001-00061100841ADDAA199001091AY161061GF108991081061001501999999KA1999N-00281MD1610061+9999MW1711
0057108650999991927121512004+48183+011550FM-12+015599999V0202301N00261001501CN0040001N9+00221+00171100831ADDAY161061GF108991081061001501999999MD1810061+9999MW1511
0081108650999991927121606004+48183+011550FM-12+015599999V0209999900461001501CN0005001N9-00611-00671101791ADDAA199001091AY171061GF108991081061001501999999KA1999N-00611MD1310201+9999MW1731
0057108650999991927121612004+48183+011550FM-12+015599999V0202901N00461001501CN0005001N9-00721-00781102061ADDAY171061GF108991081061001501999999MD1410001+9999MW1731
0081108650999991927121706004+48183+011550FM-12+015599999V0209999900261004501CN0020001N9-01281-01331102771ADDAA199004091AY171061GF106991061061004501001001KA1999N-01391MD1410001+9999MW1711
0037108650999991927121712004+48183+011550FM-12+015599999V0202901N00261090001CN0100001N9-01281-01441102741ADDAY111061GF106991021051008001001081
0050108650999991927121806004+48183+011550FM-12+015599999V0209999900461002401CN0005001N9-01391-01441103171ADDAY111061GF108991081051002501999999KA1999N-01611
0051108650999991927121812004+48183+011550FM-12+015599999V0202501N00671004501CN0020001N9-01221-01281103061ADDAY111061GF107991061051004501021001MD1810141+9999
0064108650999991927121906004+48183+011550FM-12+015599999V02099999001019999999N0010001N9-01501-01561102901ADDAY121061GF107991999051004501001001KA1999N-01611MD1610201+9999
0057108650999991927121912004+48183+011550FM-12+015599999V0200901N00461220001CN0020001N9-00781-01111102441ADDAY101061GF100991001001999999001001MD1810141+9999MW1421
0064108650999991927122006004+48183+011550FM-12+015599999V0209999900101220001CN0010001N9-02001-02061102481ADDAY111061GF102991001001999999021081KA1999N-02111MD1610061+9999
0051108650999991927122012004+48183+011550FM-12+015599999V0200901N00461220001CN0040001N9-01001-01441102071ADDAY101061GF100991001001999999001001MD1810061+9999
0050108650999991927122106004+48183+011550FM-12+015599999V0209999900261001501CN0020001N9-01281-01331102231ADDAY121061GF108991081051001501999999KA1999N-01781
0051108650999991927122112004+48183+011550FM-12+015599999V0200901N004619999999N0020001N9-00611-00781101931ADDAY121061GF107991999051002501001001MD1810141+9999
0081108650999991927122206004+48183+011550FM-12+015599999V0209999900461004501CN0010001N9+00221+00171100901ADDAA199003091AY111061GF107991071051004501001001KA1999N-00891MD1810261+9999MW1101
0051108650999991927122212004+48183+011550FM-12+015599999V0200901N00261036001CN0010001N9+00221+00001100331ADDAY141061GF108991041051008001021001MD1810201+9999
0075108650999991927122306004+48183+011550FM-12+015599999V0209999900461220001CN0100001N9+00501+00111099761ADDAA199005091AY111061GF106991999001999999021001KA1999N-00221MD1610141+9999
0064108650999991927122406004+48183+011550FM-12+015599999V0209999900671220001CN0500001N9+00391+00171099901ADDAY101061GF102991021051004501031001KA1999N+00281MD1310061+9999
0075108650999991927122506004+48183+011550FM-12+015599999V0209999900931002401CN0040001N9+00501+00441100211ADDAA199001091AY111061GF106991061051002501001091KA1999N+00391MD1310201+9999
0051108650999991927122512004+48183+011550FM-12+015599999V0202501N00101220001CN0500001N9+01001+00391100191ADDAY101061GF102991011011004501031001MD1810141+9999
0064108650999991927122606004+48183+011550FM-12+015599999V0209999900101007801CN0020001N9-00221-00281099711ADDAY111061GF107991071051008001001001KA1999N-00281MD1610061+9999
0070108650999991927122706004+48183+011550FM-12+015599999V0209999900101000151CN0000001N9-00221-00281100841ADDAY141061GF108991081051000251999999KA1999N-00501MD1310201+9999MW1471
0043108650999991927122712004+48183+011550FM-12+015599999V0200901N00461000151CN0000501N9-00111-00171101351ADDAY141061GF108991081051000251999999MW1471
0050108650999991927122806004+48183+011550FM-12+015599999V0209999901231007801CN0100001N9-00221-00561102211ADDAY121061GF108991081051008001999999KA1999N-00221
0051108650999991927122812004+48183+011550FM-12+015599999V0200901N015419999999N0100001N9-00281-00941102341ADDAY121061GF108991999999022501999999MD1810061+9999
0050108650999991927122906004+48183+011550FM-12+015599999V0209999900931220001CN0100001N9-00721-01061102431ADDAY111061GF104991999001999999021001KA1999N-00781
0037108650999991927122912004+48183+011550FM-12+015599999V0200901N00931220001CN0100001N9-00221-00721102271ADDAY111061GF104991999001999999021001
0064108650999991927123006004+48183+011550FM-12+015599999V0209999900461220001CN0100001N9-00611-00781102201ADDAY121061GF108991999001999999021001KA1999N-00721MD1810061+9999
0051108650999991927123012004+48183+011550FM-12+015599999V0200901N00461220001CN0200001N9-00111-00611102041ADDAY111061GF102991999001999999031001MD1610061+9999
0056108650999991927123106004+48183+011550FM-12+015599999V0209999900101004501CN0010001N9-00721-00781102561ADDAY141061GF108991081051004501999999KA1999N-01001MW1101
0057108650999991927123112004+48183+011550FM-12+015599999V0200701N00261002401CN0020001N9-00391-00441102731ADDAY141061GF108991081051002501999999MD1310061+9999MW1471
