0064108660999991929080106004+48183+011550FM-12+052099999V0202001N00671220001CN0200001N9+02001+99999100711ADDAY101061GF102991011051022501031999KA1999N+01281MD1310061+9999
0037108660999991929080112004+48183+011550FM-12+052099999V0202501N004610360019N0200001N9+02221+99999100631ADDAY121061GF108991041051022501011999
0075108660999991929080118004+48183+011550FM-12+052099999V0202701N001010360019N0500001N9+01781+99999100781ADDAA199000391AY111061GF107991041061004501011999KA1999M+02281MD1210141+9999
0075108660999991929080206004+48183+011550FM-12+052099999V0202301N00461015001CN0100001N9+01501+99999101331ADDAA199005091AY111061GF106991061051017501011999KA1999N+01221MD1310141+9999
0037108660999991929080212004+48183+011550FM-12+052099999V0202301N004610360019N0200001N9+01721+99999101381ADDAY181061GF107991041051012501011999
0075108660999991929080218004+48183+011550FM-12+052099999V0201601N00261007801CN0100001N9+01501+99999101461ADDAA199000391AY121061GF108991061051008001011999KA1999M+01721MD1110061+9999
0075108660999991929080306004+48183+011550FM-12+052099999V0203401N001010360019N0100001N9+01221+99999101981ADDAA199000391AY111061GF106991041051008001011999KA1999N+01111MD1310141+9999
0043108660999991929080312004+48183+011550FM-12+052099999V0201601N001019999999N0100001N9+01611+99999101981ADDAY181061GF106991041061008001999999MW1801
0075108660999991929080318004+48183+011550FM-12+052099999V0200901N00101220001CN0200001N9+01781+99999101821ADDAA199000591AY101061GF102991011051012501031999KA1999M+02001MD1810061+9999
0050108660999991929080406004+48183+011550FM-12+052099999V0200701N00261220001CN0100001N9+01781+99999101671ADDAY101061GF102991001001999999001071KA1999N+00781
0051108660999991929080412004+48183+011550FM-12+052099999V0200901N00101220001CN0500001N9+02391+99999101151ADDAY101061GF102991011011012501001071MD1810201+9999
0064108660999991929080418004+48183+011550FM-12+052099999V0202901N00261220001CN0500001N9+02281+99999101061ADDAY101061GF104991001001999999001071KA1999M+02611MD1810061+9999
0050108660999991929080506004+48183+011550FM-12+052099999V0202701N001010360019N0100001N9+01611+99999101311ADDAY111061GF107991041051017501031999KA1999N+01221
0057108660999991929080512004+48183+011550FM-12+052099999V0202701N006719999999N0100001N9+01611+99999101341ADDAY121061GF108991041061008001999999MD1210141+9999MW1631
0081108660999991929080518004+48183+011550FM-12+052099999V0202701N00461002401CN0100001N9+01281+99999101751ADDAA199006091AY161061GF108991081061002501999999KA1999M+01891MD1310201+9999MW1631
0075108660999991929080606004+48183+011550FM-12+052099999V0202301N00261220001CN0100001N9+01501+99999102121ADDAA199000591AY111061GF102991011051017501031999KA1999N+01111MD1310061+9999
0051108660999991929080612004+48183+011550FM-12+052099999V0200901N00101007801CN0200001N9+02111+99999101821ADDAY111061GF106991061011008001001001MD1810061+9999
0064108660999991929080618004+48183+011550FM-12+052099999V0200901N00461220001CN0200001N9+02001+99999101601ADDAY101061GF100991001001999999001001KA1999M+02221MD1810141+9999
0056108660999991929080706004+48183+011550FM-12+052099999V0209991C00001220001CN0010001N9+01281+99999101591ADDAY141061GF108991001999999999999999KA1999N+00611MW1281
0051108660999991929080712004+48183+011550FM-12+052099999V0200501N00101220001CN0200001N9+02501+99999101171ADDAY101061GF104991001001999999001071MD1510141+9999
0064108660999991929080718004+48183+011550FM-12+052099999V0200901N00261220001CN0200001N9+02281+99999101011ADDAY101061GF101991001001999999001071KA1999M+02611MD1810141+9999
0064108660999991929080806004+48183+011550FM-12+052099999V0202701N002610360019N0100001N9+01611+99999101311ADDAY111061GF106991041051022501031999KA1999N+01001MD1210141+9999
0051108660999991929080812004+48183+011550FM-12+052099999V0203201N00101220001CN0200001N9+02391+99999101091ADDAY101061GF102991021011017501001001MD1610141+9999
0064108660999991929080818004+48183+011550FM-12+052099999V0200901N001010360019N0200001N9+02391+99999100951ADDAY111061GF106991021051012501011999KA1999M+02611MD1610141+9999
0064108660999991929080906004+48183+011550FM-12+052099999V0202901N001019999999N0100001N9+01501+99999101601ADDAY121061GF108991041061004501999999KA1999N+01391MD1310141+9999
0051108660999991929080912004+48183+011550FM-12+052099999V0200501N002619999999N0100001N9+01891+99999101511ADDAY111061GF107991041061008001999999MD1610061+9999
0061108660999991929080918004+48183+011550FM-12+052099999V0203601N00261004501CN0040001N9+01721+99999101461ADDAA199002091AY181061GF108991081061004501999999KA1999M+02001
0081108660999991929081006004+48183+011550FM-12+052099999V0203601N00101001501CN0020001N9+01501+99999101561ADDAA199010091AY161061GF108991081061001501999999KA1999N+01391MD1210061+9999MW1631
0057108660999991929081012004+48183+011550FM-12+052099999V0203201N00101001501CN0020001N9+01501+99999101781ADDAY161061GF108991061061001501999999MD1210061+9999MW1631
0075108660999991929081018004+48183+011550FM-12+052099999V0203601N001019999999N0040001N9+01611+99999102101ADDAA199011091AY161061GF108991041061002501999999KA1999M+01611MD1210061+9999
0061108660999991929081106004+48183+011550FM-12+052099999V0200701N00101004501CN0040001N9+01501+99999102161ADDAA199001091AY121061GF108991061061004501999999KA1999N+01391
0051108660999991929081112004+48183+011550FM-12+052099999V0200701N00261004501CN0100001N9+01781+99999101991ADDAY121061GF108991081061004501999999MD1810061+9999
0064108660999991929081118004+48183+011550FM-12+052099999V0200201N00101007801CN0040001N9+01781+99999101881ADDAY121061GF108991081051008001999999KA1999M+01781MD1610061+9999
0064108660999991929081206004+48183+011550FM-12+052099999V0201401N00101002401CN0020001N9+01781+99999101941ADDAY121061GF107991071051002501001001KA1999N+01611MD1510001+9999
0051108660999991929081212004+48183+011550FM-12+052099999V0202901N00101004501CN0040001N9+01891+99999101911ADDAY121061GF108991061061004501999999MD1410001+9999
0061108660999991929081218004+48183+011550FM-12+052099999V0202901N00101004501CN0040001N9+01781+99999101921ADDAA199000391AY121061GF108991061051004501999999KA1999M+01891
0056108660999991929081306004+48183+011550FM-12+052099999V0209991C00001220001CN0020001N9+01611+99999102361ADDGF102991021051012501999999KA1999N+01391MD1310061+9999
0037108660999991929081312004+48183+011550FM-12+052099999V0200501N001010360019N0100001N9+02111+99999102221ADDAY111061GF106991041011008001011999
0050108660999991929081318004+48183+011550FM-12+052099999V0200901N00101220001CN0100001N9+02111+99999102111ADDAY101061GF102991011051017501011999KA1999M+02391
0056108660999991929081406004+48183+011550FM-12+052099999V0209991C00001000601CN0000501N9+01281+99999102301ADDAY101061GF109991091999000751999999KA1999N+01001MW1461
0051108660999991929081412004+48183+011550FM-12+052099999V0200901N00101220001CN0200001N9+02501+99999101881ADDAY101061GF101991011011012501001001MD1810061+9999
0050108660999991929081418004+48183+011550FM-12+052099999V0209991C00001220001CN0200001N9+02281+99999101831ADDAY101061GF100991001001999999001001KA1999M+02611
0056108660999991929081506004+48183+011550FM-12+052099999V0209991C00001220001CN0040001N9+01721+99999101901ADDGF101991999001999999031001KA1999N+01281MD1410001+9999
0051108660999991929081512004+48183+011550FM-12+052099999V0200901N00261220001CN0200001N9+02721+99999101551ADDAY101061GF102991001001999999031081MD1810061+9999
0064108660999991929081518004+48183+011550FM-12+052099999V0200901N00101220001CN0200001N9+02391+99999101451ADDAY101061GF104991001001999999031071KA1999M+02781MD1610061+9999
0083108660999991929081606004+48183+011550FM-12+052099999V0202001N00101220001CN0040001N9+01221+99999101761ADDAY101061GF102991999001999999031001KA1999N+99999MD1310061+9999EQDQ01 +01392ATMN  
0051108660999991929081612004+48183+011550FM-12+052099999V0200701N00101220001CN0200001N9+02721+99999101471ADDAY101061GF102991011011022501031999MD1810061+9999
0050108660999991929081618004+48183+011550FM-12+052099999V0200901N00101220001CN0200001N9+02501+99999101411ADDAY101061GF100991001001999999001001KA1999M+02781
0042108660999991929081706004+48183+011550FM-12+052099999V0201801N00101220001CN0020001N9+01891+99999101461ADDGF100991001001999999001001KA1999N+01111
0051108660999991929081712004+48183+011550FM-12+052099999V0202901N00461220001CN0200001N9+02611+99999101471ADDAY101061GF101991011011017501001001MD1310061+9999
0075108660999991929081718004+48183+011550FM-12+052099999V0203201N002619999999N0040001N9+02111+99999101631ADDAA199002091AY181061GF107991021081004501999999KA1999M+02781MD1310141+9999
0075108660999991929081806004+48183+011550FM-12+052099999V0201401N00101220001CN0200001N9+01781+99999101701ADDAA199007091AY101061GF101991999001999999031001KA1999N+01281MD1410001+9999
0051108660999991929081812004+48183+011550FM-12+052099999V0202701N00101220001CN0200001N9+02501+99999101521ADDAY111061GF104991011011022501001011MD1810061+9999
0067108660999991929081818004+48183+011550FM-12+052099999V0202901N002619999999N0100001N9+01891+99999101741ADDAA199000691AY111061GF107991021061017501999999KA1999M+02611MW1601
0075108660999991929081906004+48183+011550FM-12+052099999V0200701N00101007801CN0040001N9+01501+99999101781ADDAA199007091AY181061GF107991061061008001999999KA1999N+01391MD1410001+9999
0057108660999991929081912004+48183+011550FM-12+052099999V0203601N00671000601CN0010001N9+01391+99999101861ADDAY161061GF108991081061000751999999MD1310061+9999MW1651
0067108660999991929081918004+48183+011550FM-12+052099999V0203601N00931000601CN0010001N9+01281+99999101921ADDAA199033091AY161061GF108991081061000751999999KA1999M+01611MW1631
0067108660999991929082006004+48183+011550FM-12+052099999V0200501N00101000601CN0020001N9+01221+99999101761ADDAA199018091AY161061GF108991081061000751999999KA1999N+01111MW1631
0057108660999991929082012004+48183+011550FM-12+052099999V0203601N00101001501CN0040001N9+01281+99999101881ADDAY161061GF108991061061001501999999MD1310061+9999MW1611
0081108660999991929082018004+48183+011550FM-12+052099999V0203601N00261000601CN0010001N9+01221+99999102001ADDAA199012091AY161061GF108991081061000751999999KA1999M+01281MD1310061+9999MW1631
0075108660999991929082106004+48183+011550FM-12+052099999V0203601N001010360019N0040001N9+01111+99999102221ADDAA199000391AY121061GF107991041051008001031999KA1999N+00891MD1310061+9999
0037108660999991929082112004+48183+011550FM-12+052099999V0203601N00261004501CN0100001N9+01391+99999102161ADDAY121061GF108991081051004501999999
0050108660999991929082118004+48183+011550FM-12+052099999V0203601N00101007801CN0100001N9+01391+99999102191ADDAY111061GF106991061051008001031999KA1999M+01501
0056108660999991929082206004+48183+011550FM-12+052099999V0209991C00001007801CN0020001N9+01111+99999102391ADDGF108991081051008001999999KA1999N+00891MD1310061+9999
0051108660999991929082212004+48183+011550FM-12+052099999V0202901N001019999999N0100001N9+01611+99999102181ADDAY111061GF106991041071008001999999MD1810061+9999
0050108660999991929082218004+48183+011550FM-12+052099999V0202501N002610360019N0100001N9+01501+99999102101ADDAY111061GF106991041051012501031999KA1999M+01721
0050108660999991929082306004+48183+011550FM-12+052099999V0202301N00101007801CN0020001N9+01221+99999102311ADDAY121061GF108991061051008001011999KA1999N+01001
0037108660999991929082312004+48183+011550FM-12+052099999V0202901N00261004501CN0100001N9+01611+99999102341ADDAY111061GF107991061051004501031999
0064108660999991929082318004+48183+011550FM-12+052099999V0209991C000010360019N0100001N9+01611+99999102421ADDAY111061GF106991041051004501031999KA1999M+01781MD1310061+9999
0050108660999991929082406004+48183+011550FM-12+052099999V0202301N002619999999N0005001N9+01391+99999102511ADDAY111061GF108991041051008001999999KA1999N+01001
0070108660999991929082412004+48183+011550FM-12+052099999V0202501N00101012301CN0100001N9+02001+99999101622ADDAY111061GF107991061051012501031999MD1810061+9999EQDQ01+101623APOSLP
0064108660999991929082418004+48183+011550FM-12+052099999V0209991C00001220001CN0100001N9+02001+99999102161ADDAY101061GF102991021051012501001001KA1999M+02221MD1810061+9999
0050108660999991929082506004+48183+011550FM-12+052099999V0201601N00101220001CN0100001N9+01501+99999102231ADDAY101061GF102991001001999999031011KA1999N+01001
0051108660999991929082512004+48183+011550FM-12+052099999V0203201N00101220001CN0200001N9+02281+99999101991ADDAY101061GF104991041011008001001001MD1810061+9999
0050108660999991929082518004+48183+011550FM-12+052099999V0209991C00001220001CN0200001N9+02281+99999101921ADDAY101061GF101991011011012501001001KA1999M+02611
0064108660999991929082606004+48183+011550FM-12+052099999V0203201N00101220001CN0040001N9+01611+99999102181ADDAY101061GF104991021071012501999999KA1999N+01221MD1310061+9999
0051108660999991929082612004+48183+011550FM-12+052099999V0200201N001019999999N0100001N9+02281+99999101961ADDAY111061GF106991011071008001999999MD1810061+9999
0064108660999991929082618004+48183+011550FM-12+052099999V0200701N00101220001CN0200001N9+02111+99999101961ADDAY101061GF102991001001999999001071KA1999M+02501MD1810061+9999
0050108660999991929082706004+48183+011550FM-12+052099999V0200901N00101220001CN0040001N9+01501+99999102071ADDAY101061GF100991001001999999001001KA1999N+01001
0051108660999991929082712004+48183+011550FM-12+052099999V0200901N00461220001CN0100001N9+02391+99999101711ADDAY101061GF100991001001999999001001MD1810061+9999
0064108660999991929082718004+48183+011550FM-12+052099999V0200901N00261220001CN0100001N9+02111+99999101621ADDAY101061GF100991001001999999001001KA1999M+02501MD1810061+9999
0056108660999991929082806004+48183+011550FM-12+052099999V0209991C00001220001CN0020001N9+01721+99999101801ADDGF100991001001999999001001KA1999N+01111MD1310061+9999
0051108660999991929082812004+48183+011550FM-12+052099999V0202701N00101220001CN0200001N9+02781+99999101561ADDAY101061GF101991011011022501001001MD1810061+9999
0050108660999991929082818004+48183+011550FM-12+052099999V0209991C00001220001CN0200001N9+02611+99999101561ADDAY101061GF102991001001999999011071KA1999M+02891
0064108660999991929082906004+48183+011550FM-12+052099999V0202901N00101220001CN0040001N9+01781+99999102041ADDAY111061GF104991001001999999001081KA1999N+01501MD1810061+9999
0051108660999991929082912004+48183+011550FM-12+052099999V0200901N00101220001CN0100001N9+02781+99999101751ADDAY101061GF102991999001999999031001MD1810061+9999
0050108660999991929082918004+48183+011550FM-12+052099999V0200701N001010900019N0100001N9+02611+99999101701ADDAY111061GF106991021031008001001071KA1999M+02891
0050108660999991929083006004+48183+011550FM-12+052099999V0202301N00261220001CN0040001N9+01891+99999101941ADDAY101061GF101991001001999999001071KA1999N+01391
0051108660999991929083012004+48183+011550FM-12+052099999V0202901N00101220001CN0100001N9+02721+99999101701ADDAY101061GF104991041011012501001001MD1810061+9999
0050108660999991929083018004+48183+011550FM-12+052099999V0203201N00101220001CN0100001N9+02611+99999101601ADDAY101061GF101991011011012501001001KA1999M+02891
0056108660999991929083106004+48183+011550FM-12+052099999V0209991C00001220001CN0020001N9+01781+99999101911ADDGF101991999001999999011001KA1999N+01391MD1310061+9999
0051108660999991929083112004+48183+011550FM-12+052099999V0200901N00261220001CN0200001N9+02781+99999101561ADDAY101061GF102991021071022501999999MD1810141+9999
0050108660999991929083118004+48183+011550FM-12+052099999V0200701N00101220001CN0200001N9+02501+99999101491ADDAY101061GF101991999001999999011001KA1999M+02891
0064108660999991929090106004+48183+011550FM-12+052099999V0202901N00101220001CN0040001N9+01781+99999101861ADDAY101061GF100991001001999999001001KA1999N+01391MD1310141+9999
0051108660999991929090112004+48183+011550FM-12+052099999V0202301N00101220001CN0100001N9+02891+99999101631ADDAY101061GF102991021999999999999999MD1810061+9999
0037108660999991929090118004+48183+011550FM-12+052099999V0209991C00001220001CN0100001N9+02721+99999101641ADDAY101061GF102991011071017501999999
0051108660999991929090212004+48183+011550FM-12+052099999V0200901N00101220001CN0100001N9+03001+99999101701ADDAY101061GF104991041011012501001001MD1810061+9999
0050108660999991929090218004+48183+011550FM-12+052099999V0209991C00001220001CN0100001N9+02611+99999101721ADDAY101061GF102991001001999999011081KA1999M+03001
0042108660999991929090306004+48183+011550FM-12+052099999V0209991C00001220001CN0020001N9+01611+99999101991ADDGF101991001001999999001081KA1999N+01221
0051108660999991929090312004+48183+011550FM-12+052099999V0200901N00461220001CN0200001N9+02891+99999101551ADDAY101061GF101991999001999999031001MD1810141+9999
0064108660999991929090318004+48183+011550FM-12+052099999V0200901N00101220001CN0100001N9+02391+99999101471ADDAY101061GF101991999001999999031001KA1999M+03001MD1810061+9999
0042108660999991929090406004+48183+011550FM-12+052099999V0209991C00001220001CN0040001N9+01781+99999101631ADDGF102991001001999999001081KA1999N+01281
0037108660999991929090412004+48183+011550FM-12+052099999V0200701N00101220001CN0100001N9+02891+99999101341ADDAY101061GF102991011011012501001081
0064108660999991929090418004+48183+011550FM-12+052099999V0200701N00101220001CN0100001N9+02391+99999101641ADDAY111061GF104991021031012501001081KA1999M+03001MD1810061+9999
0064108660999991929090506004+48183+011550FM-12+052099999V0202301N00101220001CN0040001N9+01781+99999101741ADDAY101061GF101991999001999999031001KA1999N+01501MD1310061+9999
0051108660999991929090512004+48183+011550FM-12+052099999V0202701N00261220001CN0200001N9+02781+99999101521ADDAY101061GF101991011011012501001001MD1810061+9999
0050108660999991929090518004+48183+011550FM-12+052099999V0202901N004610360019N0100001N9+02281+99999101581ADDAY111061GF106991041031012501011999KA1999M+02891
0075108660999991929090606004+48183+011550FM-12+052099999V0202301N00261220001CN0100001N9+01781+99999101871ADDAA199011091AY101061GF104991021051008001001011KA1999N+01721MD1110061+9999
0051108660999991929090612004+48183+011550FM-12+052099999V0202701N00461220001CN0200001N9+02721+99999101671ADDAY111061GF104991021011012501001081MD1710061+9999
0050108660999991929090618004+48183+011550FM-12+052099999V0202701N002610900019N0100001N9+02281+99999101631ADDAY111061GF106991021011012501001081KA1999M+02721
0075108660999991929090706004+48183+011550FM-12+052099999V0203201N00101004501CN0040001N9+01391+99999102381ADDAA199001091AY121061GF108991081051004501999999KA1999N+01281MD1310201+9999
0051108660999991929090712004+48183+011550FM-12+052099999V0203201N00261220001CN0200001N9+01611+99999102641ADDAY111061GF102991021011012501001001MD1410001+9999
0050108660999991929090718004+48183+011550FM-12+052099999V0203601N00101220001CN0200001N9+01391+99999102521ADDAY101061GF102991021011012501001001KA1999M+01721
0064108660999991929090806004+48183+011550FM-12+052099999V0202901N00101220001CN0100001N9+00891+99999102711ADDAY101061GF100991001001999999001001KA1999N+00281MD1410001+9999
0051108660999991929090812004+48183+011550FM-12+052099999V0203201N00101220001CN0500001N9+02001+99999102381ADDAY101061GF101991001001999999001081MD1810141+9999
0050108660999991929090818004+48183+011550FM-12+052099999V0203601N00101220001CN0200001N9+01781+99999102321ADDAY101061GF102991001001999999001081KA1999M+02111
0064108660999991929090906004+48183+011550FM-12+052099999V0201101N00261220001CN0100001N9+01391+99999101961ADDAY101061GF101991001001999999001081KA1999N+00781MD1710201+9999
0051108660999991929090912004+48183+011550FM-12+052099999V0202701N00101220001CN0100001N9+02611+99999101461ADDAY101061GF100991001001999999001001MD1810141+9999
0064108660999991929090918004+48183+011550FM-12+052099999V0202901N00101220001CN0100001N9+02281+99999101231ADDAY101061GF101991999001999999031001KA1999M+02891MD1610061+9999
0064108660999991929091006004+48183+011550FM-12+052099999V0202501N00101220001CN0100001N9+01721+99999101791ADDAY101061GF102991999001999999031001KA1999N+01281MD1810141+9999
0037108660999991929091012004+48183+011550FM-12+052099999V0202901N00101220001CN0100001N9+02501+99999101711ADDAY101061GF104991041011017501001071
0050108660999991929091018004+48183+011550FM-12+052099999V0203601N00101220001CN0040001N9+02221+99999101791ADDAY101061GF102991001001999999011081KA1999M+02611
0062108660999991929091106004+48183+011550FM-12+052099999V0200701N00101220001CN0020001N9+01221+99999102421ADDGF100991001001999999001001KA1999N+00891MD1310061+9999MW1281
0051108660999991929091112004+48183+011550FM-12+052099999V0200901N00461220001CN0100001N9+02501+99999102041ADDAY101061GF100991001001999999001001MD1810141+9999
0064108660999991929091118004+48183+011550FM-12+052099999V0200901N00261220001CN0100001N9+02001+99999102041ADDAY101061GF102991001001999999001081KA1999M+02501MD1510061+9999
0064108660999991929091206004+48183+011550FM-12+052099999V0200701N00101220001CN0040001N9+01391+99999102341ADDAY111061GF104991041051022501031999KA1999N+01001MD1210061+9999
0051108660999991929091212004+48183+011550FM-12+052099999V0203601N00101220001CN0100001N9+02501+99999101981ADDAY101061GF100991001001999999001001MD1810061+9999
0050108660999991929091218004+48183+011550FM-12+052099999V0200901N00101220001CN0100001N9+02221+99999101981ADDAY101061GF102991001001999999001081KA1999M+02721
0042108660999991929091306004+48183+011550FM-12+052099999V0203201N00101007801CN0020001N9+01501+99999101991ADDGF107991071051008001001001KA1999N+01111
0051108660999991929091312004+48183+011550FM-12+052099999V0202901N00461220001CN0100001N9+02611+99999101631ADDAY111061GF104991021011022501031999MD1990141+9999
0064108660999991929091318004+48183+011550FM-12+052099999V0203601N00101220001CN0040001N9+02221+99999101671ADDAY101061GF104991021011022501001081KA1999M+02611MD1610061+9999
0042108660999991929091406004+48183+011550FM-12+052099999V0202501N00261220001CN0040001N9+01611+99999101711ADDGF102991001001999999031081KA1999N+01281
0051108660999991929091412004+48183+011550FM-12+052099999V0203201N00101220001CN0200001N9+02391+99999101491ADDAY101061GF104991021011012501001081MD1810061+9999
0050108660999991929091418004+48183+011550FM-12+052099999V0203601N00261220001CN0200001N9+02001+99999101581ADDAY101061GF104991021011017501001081KA1999M+02611
0075108660999991929091506004+48183+011550FM-12+052099999V0202301N001010360019N0040001N9+01611+99999101981ADDAA199006091AY181061GF107991041051008001031999KA1999N+01501MD1210141+9999
0057108660999991929091512004+48183+011550FM-12+052099999V0203601N002619999999N0100001N9+02281+99999101871ADDAY111061GF106991041081008001999999MD1710141+9999MW1951
0061108660999991929091518004+48183+011550FM-12+052099999V0209991C00001220001CN0040001N9+02001+99999101961ADDAA199001091AY191061GF106991001001999999071999KA1999M+02501
0070108660999991929091606004+48183+011550FM-12+052099999V0209991C00001220001CN0005001N9+01221+99999102191ADDAY141061GF100991001001999999001001KA1999N+01001MD1310341+9999MW1421
0051108660999991929091612004+48183+011550FM-12+052099999V0200901N00461220001CN0100001N9+02391+99999101841ADDAY101061GF104991021011017501001081MD1810141+9999
0050108660999991929091618004+48183+011550FM-12+052099999V0200901N00101220001CN0100001N9+02001+99999101831ADDAY101061GF101991001001999999001011KA1999M+02501
0056108660999991929091706004+48183+011550FM-12+052099999V0200701N00101220001CN0100001N9+01111+99999101981ADDGF100991001001999999001001KA1999N+00721MD1410001+9999
0051108660999991929091712004+48183+011550FM-12+052099999V0200901N00461220001CN0100001N9+02221+99999101601ADDAY101061GF102991001001999999001081MD1810061+9999
0050108660999991929091718004+48183+011550FM-12+052099999V0200901N00461220001CN0100001N9+01781+99999101581ADDAY101061GF101991011051017501001001KA1999M+02221
0050108660999991929091806004+48183+011550FM-12+052099999V0200701N00101220001CN0040001N9+01001+99999101631ADDAY101061GF100991001001999999001001KA1999N+00611
0051108660999991929091812004+48183+011550FM-12+052099999V0203201N00261220001CN0100001N9+02111+99999101261ADDAY101061GF101991001001999999001011MD1990141+9999
0064108660999991929091818004+48183+011550FM-12+052099999V0209991C00001220001CN0040001N9+02001+99999101191ADDAY101061GF102991001001999999031011KA1999M+02281MD1610061+9999
0050108660999991929091906004+48183+011550FM-12+052099999V0202301N00261015001CN0100001N9+01611+99999101491ADDAY111061GF107991061051017501011999KA1999N+01281
0057108660999991929091912004+48183+011550FM-12+052099999V0202901N002619999999N0200001N9+02221+99999101421ADDAY111061GF106991021061012501999999MD1810061+9999MW1801
0050108660999991929091918004+48183+011550FM-12+052099999V0209991C00001220001CN0100001N9+02111+99999101291ADDAY101061GF102991021051017501001001KA1999M+02391
0000108660999991929092006004+48183+011550FM-12+052099999V02099999999999999999N9999999N9+99999+99999999999
0051108660999991929092012004+48183+011550FM-12+052099999V0202701N00461220001CN0200001N9+02281+99999100891ADDAY111061GF104991021011017501001011MD1810261+9999
0064108660999991929092018004+48183+011550FM-12+052099999V0202301N004610360019N0200001N9+01891+99999100531ADDAY111061GF107991041051017501011999KA1999M+02281MD1610141+9999
0081108660999991929092106004+48183+011550FM-12+052099999V0202701N00461002401CN0020001N9+00891+99999101501ADDAA199009091AY181061GF107991061061002501031999KA1999N+00781MD1210141+9999MW1811
0051108660999991929092112004+48183+011550FM-12+052099999V0202901N01231220001CN0200001N9+01281+99999101631ADDAY111061GF104991041061012501011999MD1110061+9999
0064108660999991929092118004+48183+011550FM-12+052099999V0202901N00101007801CN0100001N9+01111+99999101561ADDAY121061GF108991081051008001999999KA1999M+01391MD1810061+9999
0061108660999991929092206004+48183+011550FM-12+052099999V0202901N00671004501CN0200001N9+01221+99999101831ADDAA199000391AY121061GF108991061061004501999999KA1999N+01001
0051108660999991929092212004+48183+011550FM-12+052099999V0203201N006719999999N0200001N9+01501+99999101921ADDAY111061GF107991041061008001999999MD1310061+9999
0064108660999991929092218004+48183+011550FM-12+052099999V0203201N00261007801CN0040001N9+01111+99999102161ADDAY111061GF106991061051008001001001KA1999M+01611MD1310141+9999
0070108660999991929092306004+48183+011550FM-12+052099999V0202701N00261007801CN0040001N9+01001+99999102561ADDAY121061GF108991081061008001999999KA1999N+00721MD1210061+9999MW1611
0037108660999991929092312004+48183+011550FM-12+052099999V0202901N00461007801CN0040001N9+01221+99999102591ADDAY121061GF108991061061008001999999
0061108660999991929092318004+48183+011550FM-12+052099999V0202701N002619999999N0020001N9+01111+99999102661ADDAA199000691AY121061GF107991041051002501999999KA1999M+01221
0053108660999991929092406004+48183+011550FM-12+052099999V0209991C000019999999N0040001N9+01001+99999102631ADDAA199002091GF106991041051004501999999KA1999N+00891
0051108660999991929092412004+48183+011550FM-12+052099999V0200901N00261007801CN0200001N9+01391+99999102631ADDAY111061GF106991061061008001001001MD1310061+9999
0064108660999991929092418004+48183+011550FM-12+052099999V0200901N00101220001CN0040001N9+01001+99999102791ADDAY101061GF100991001001999999001001KA1999M+01501MD1310061+9999
0064108660999991929092506004+48183+011550FM-12+052099999V0200701N00101220001CN0040001N9+00391+99999103361ADDAY101061GF100991001001999999001001KA1999N+00111MD1310141+9999
0051108660999991929092512004+48183+011550FM-12+052099999V0200901N00671220001CN0500001N9+01281+99999103381ADDAY101061GF104991041011017501031999MD1310061+9999
0064108660999991929092518004+48183+011550FM-12+052099999V0200901N00261220001CN0200001N9+01001+99999103461ADDAY101061GF100991001001999999001001KA1999M+01391MD1210061+9999
0050108660999991929092606004+48183+011550FM-12+052099999V0200901N00101220001CN0100001N9+00391+99999103621ADDAY101061GF100991001001999999001001KA1999N+00001
0051108660999991929092612004+48183+011550FM-12+052099999V0200901N00461220001CN0200001N9+01721+99999103231ADDAY101061GF100991001001999999001001MD1810061+9999
0064108660999991929092618004+48183+011550FM-12+052099999V0200901N00261220001CN0100001N9+01221+99999103201ADDAY101061GF100991001001999999001001KA1999M+01721MD1810061+9999
0056108660999991929092706004+48183+011550FM-12+052099999V0201401N00101220001CN0010001N9+00391+99999103141ADDAY101061GF104991001001999999031081KA1999N+00111MW1461
0051108660999991929092712004+48183+011550FM-12+052099999V0200901N00101220001CN0200001N9+01781+99999102621ADDAY101061GF102991001001999999001081MD1810061+9999
0050108660999991929092718004+48183+011550FM-12+052099999V0209991C00001220001CN0100001N9+01501+99999102621ADDAY101061GF100991001001999999001001KA1999M+01891
0056108660999991929092806004+48183+011550FM-12+052099999V0209991C00001220001CN0010001N9+00281+99999102881ADDAY141061GF100991001001999999001001KA1999N+00111MW1421
0051108660999991929092812004+48183+011550FM-12+052099999V0200901N00261220001CN0200001N9+02002+99999102421ADDAY101061GF100991001001999999001001MD1990141+9999
0083108660999991929092818004+48183+011550FM-12+052099999V0200901N00101220001CN0100001N9+01391+99999102501ADDAY101061GF101991001001999999001091KA1999M+99999MD1410001+9999EQDQ01 +00002ATMX  
0064108660999991929092906004+48183+011550FM-12+052099999V0201601N00101220001CN0100001N9+00611+99999102681ADDAY101061GF100991001001999999001001KA1999N+00221MD1410001+9999
0051108660999991929092912004+48183+011550FM-12+052099999V0202701N00461220001CN0200001N9+02001+99999102321ADDAY101061GF102991001001999999031011MD1810061+9999
0050108660999991929092918004+48183+011550FM-12+052099999V0209991C00001220001CN0100001N9+01391+99999102461ADDAY101061GF102991001001999999001011KA1999M+02111
0050108660999991929093006004+48183+011550FM-12+052099999V0202301N00261220001CN0100001N9+01221+99999102541ADDAY111061GF102991021051022501031999KA1999N+00891
0051108660999991929093012004+48183+011550FM-12+052099999V0202301N00461015001CN0100001N9+01891+99999102341ADDAY111061GF106991061051017501001001MD1810141+9999
0050108660999991929093018004+48183+011550FM-12+052099999V0202301N00101220001CN0100001N9+01611+99999102311ADDAY111061GF104991001001999999031081KA1999M+02221
0064108660999991929100106004+48183+011550FM-12+052099999V0202001N00461220001CN0100001N9+01281+99999102111ADDAY111061GF107991001001999999071999KA1999N+00781MD1810061+9999
0051108660999991929100112004+48183+011550FM-12+052099999V0202701N006710360019N0200001N9+02001+99999101841ADDAY111061GF108991041051022501011999MD1810061+9999
0050108660999991929100118004+48183+011550FM-12+052099999V0202501N00931012301CN0100001N9+01721+99999101821ADDAY121061GF108991081051012501999999KA1999M+02111
0075108660999991929100206004+48183+011550FM-12+052099999V0202301N002610360019N0500001N9+01501+99999101701ADDAA199000691AY111061GF106991041051017501031999KA1999N+01221MD1610061+9999
0051108660999991929100212004+48183+011550FM-12+052099999V0202901N009310900019N0200001N9+02001+99999101451ADDAY111061GF106991021051012501001081MD1810141+9999
0050108660999991929100218004+48183+011550FM-12+052099999V0202501N00261012301CN0100001N9+01781+99999101471ADDAY111061GF107991061051012501001081KA1999M+02221
0075108660999991929100306004+48183+011550FM-12+052099999V0202301N002619999999N0100001N9+01611+99999101471ADDAA199000691AY101061GF106991021001004501011081KA1999N+01611MD1510001+9999
0051108660999991929100312004+48183+011550FM-12+052099999V0202301N00671220001CN0500001N9+02611+99999101151ADDAY101061GF104991001001999999001081MD1810141+9999
0064108660999991929100318004+48183+011550FM-12+052099999V0202701N00461220001CN0040001N9+01891+99999101231ADDAY101061GF104991001001999999011081KA1999M+02721MD1410001+9999
0042108660999991929100406004+48183+011550FM-12+052099999V0201801N00261220001CN0040001N9+01281+99999101741ADDGF100991001001999999001001KA1999N+01001
0051108660999991929100412004+48183+011550FM-12+052099999V0203401N00101220001CN0200001N9+02501+99999101371ADDAY101061GF100991001001999999001001MD1810141+9999
0050108660999991929100418004+48183+011550FM-12+052099999V0200901N00101220001CN0040001N9+01891+99999101261ADDAY101061GF101991001001999999001081KA1999M+02721
0064108660999991929100506004+48183+011550FM-12+052099999V0201401N00101220001CN0200001N9+01111+99999101371ADDAY101061GF100991001001999999001001KA1999N+00721MD1810061+9999
0051108660999991929100512004+48183+011550FM-12+052099999V0200901N00461220001CN0500001N9+02501+99999100851ADDAY101061GF101991001001999999001081MD1810141+9999
0050108660999991929100518004+48183+011550FM-12+052099999V0200901N00101220001CN0100001N9+01781+99999100851ADDAY101061GF100991001001999999001001KA1999M+02611
0064108660999991929100606004+48183+011550FM-12+052099999V0200501N00101220001CN0500001N9+00891+99999100771ADDAY101061GF100991001001999999001001KA1999N+00781MD1610141+9999
0051108660999991929100612004+48183+011550FM-12+052099999V0201801N00671220001CN0500001N9+02612+99999100291ADDAY101061GF102991021011022501031999MD1810061+9999
0064108660999991929100618004+48183+011550FM-12+052099999V0201801N00461220001CN0100001N9+01781+99999100501ADDAY101061GF102991011051022501031999KA1999M+02721MD1310061+9999
0064108660999991929100706004+48183+011550FM-12+052099999V0202701N00101015001CN0500001N9+01111+99999101721ADDAY111061GF108991081051017501999999KA1999N+01001MD1310201+9999
0037108660999991929100712004+48183+011550FM-12+052099999V0203601N002619999999N0100001N9+01391+99999101601ADDAY121061GF108991041061008001999999
0075108660999991929100718004+48183+011550FM-12+052099999V0203201N001019999999N0040001N9+01001+99999101821ADDAA199000391AY161061GF108991041061004501999999KA1999M+01501MD1310141+9999
0075108660999991929100806004+48183+011550FM-12+052099999V0201101N00101220001CN0100001N9+01001+99999101391ADDAA199001091AY101061GF102991999001022501031001KA1999N+00781MD1610141+9999
0051108660999991929100812004+48183+011550FM-12+052099999V0203201N00101220001CN0100001N9+01781+99999100991ADDAY101061GF106991001001999999071999MD1210141+9999
0081108660999991929100818004+48183+011550FM-12+052099999V0202901N001010360019N0100001N9+01391+99999101011ADDAA199000691AY111061GF107991041061008001031999KA1999M+01891MD1510001+9999MW1501
0061108660999991929100906004+48183+011550FM-12+052099999V0202501N004610360019N0500001N9+01221+99999101101ADDAA199004091AY111061GF107991041061012501011999KA1999N+00781
0051108660999991929100912004+48183+011550FM-12+052099999V0202901N00931004501CN0500001N9+01111+99999101431ADDAY181061GF107991061061004501999999MD1310201+9999
0075108660999991929100918004+48183+011550FM-12+052099999V0202701N002619999999N0040001N9+00781+99999101951ADDAA199001091AY111061GF107991021061004501999999KA1999M+01611MD1310261+9999
0075108660999991929101006004+48183+011550FM-12+052099999V0202701N00671004501CN0040001N9+00501+99999102521ADDAA199001091AY181061GF108991061061004501999999KA1999N+00281MD1310261+9999
0037108660999991929101012004+48183+011550FM-12+052099999V0202701N009319999999N0100001N9+00781+99999102561ADDAY111061GF106991041031008001999999
0075108660999991929101018004+48183+011550FM-12+052099999V0202701N004619999999N0040001N9+00611+99999102861ADDAA199001091AY111061GF107991041061008001999999KA1999M+00891MD1310201+9999
0067108660999991929101106004+48183+011550FM-12+052099999V0202501N004619999999N0100001N9+00611+99999102911ADDAA199001091AY161061GF108991041061004501999999KA1999N+00501MW1611
0051108660999991929101112004+48183+011550FM-12+052099999V0202701N012319999999N0500001N9+01111+99999102661ADDAY111061GF108991021061008001999999MD1810141+9999
0067108660999991929101118004+48183+011550FM-12+052099999V0202701N01231004501CN0040001N9+00891+99999102641ADDAA199000691AY121061GF108991061061004501999999KA1999M+01221MW1801
0067108660999991929101206004+48183+011550FM-12+052099999V0202901N00671001501CN0020001N9+01001+99999102541ADDAA199004091AY181061GF108991081061001501999999KA1999N+00721MW1631
0000108660999991929101212004+48183+011550FM-12+052099999V02099999999999999999N9999999N9+99999+99999999999
0075108660999991929101218004+48183+011550FM-12+052099999V0202901N001010360019N0040001N9+01001+99999102821ADDAA199003091AY111061GF106991041051008001031999KA1999M+01111MD1210201+9999
0075108660999991929101306004+48183+011550FM-12+052099999V0202501N00261015001CN0040001N9+00781+99999103141ADDAA199000691AY121061GF107991071051017501999999KA1999N+00721MD1310061+9999
0051108660999991929101312004+48183+011550FM-12+052099999V0203601N00101220001CN0200001N9+01501+99999102911ADDAY101061GF102991021011008001001001MD1810061+9999
0064108660999991929101318004+48183+011550FM-12+052099999V0209991C00001220001CN0020001N9+01001+99999103101ADDAY101061GF100991001001999999001001KA1999M+01611MD1310061+9999
0048108660999991929101406004+48183+011550FM-12+052099999V0209991C00001220001CN0010001N9+00281+99999103181ADDGF102991001001999999001011KA1999N+00111MW1281
0051108660999991929101412004+48183+011550FM-12+052099999V0200901N00261220001CN0200001N9+01721+99999102741ADDAY101061GF101991001001999999001011MD1810061+9999
0064108660999991929101418004+48183+011550FM-12+052099999V0200901N00101220001CN0020001N9+01111+99999102961ADDAY101061GF100991001001999999001001KA1999M+01721MD1310061+9999
0070108660999991929101506004+48183+011550FM-12+052099999V0209991C00001000151CN0000001N9+00501+99999103201ADDAY141061GF109991091999000251999999KA1999N+00281MD1410001+9999MW1441
0051108660999991929101512004+48183+011550FM-12+052099999V0200901N00101220001CN0040001N9+01501+99999102821ADDAY101061GF102991001001999999001081MD1810061+9999
0050108660999991929101518004+48183+011550FM-12+052099999V0200701N00101220001CN0040001N9+01001+99999102781ADDAY101061GF101991001001999999001081KA1999M+01611
0056108660999991929101606004+48183+011550FM-12+052099999V0200501N00101001501CN0010001N9+00281+99999102661ADDAY141061GF108991081051001501999999KA1999N+00111MW1421
0057108660999991929101612004+48183+011550FM-12+052099999V0202701N00101001501CN0010001N9+01111+99999102261ADDAY141061GF107991071051001501001001MD1810201+9999MW1281
0056108660999991929101618004+48183+011550FM-12+052099999V0209991C00001220001CN0000501N9+00721+99999102271ADDAY141061GF101991999001999999011001KA1999M+01221MW1441
0062108660999991929101706004+48183+011550FM-12+052099999V0209991C00001220001CN0005001N9+00281+99999102391ADDGF101991999001999999031001KA1999N+00001MD1310061+9999MW1441
0051108660999991929101712004+48183+011550FM-12+052099999V0203601N00101220001CN0040001N9+01391+99999102031ADDAY111061GF104991021051008001031999MD1810141+9999
0050108660999991929101718004+48183+011550FM-12+052099999V0209991C00001007801CN0020001N9+01221+99999101981ADDAY111061GF107991061051008001031999KA1999M+01501
0056108660999991929101806004+48183+011550FM-12+052099999V0201801N00101000151CN0000001N9+00501+99999101761ADDAY141061GF109991091999000251999999KA1999N+00111MW1461
0051108660999991929101812004+48183+011550FM-12+052099999V0202301N00101220001CN0040001N9+01611+99999101291ADDAY101061GF104991001001999999031081MD1810141+9999
0064108660999991929101818004+48183+011550FM-12+052099999V0201101N00101004501CN0020001N9+01221+99999101211ADDAY121061GF108991081051004501999999KA1999M+01611MD1810061+9999
0070108660999991929101906004+48183+011550FM-12+052099999V0209991C00001000151CN0000501N9+00781+99999100581ADDAY141061GF109991091999000251999999KA1999N+00501MD1810061+9999MW1441
0057108660999991929101912004+48183+011550FM-12+052099999V0209991C00001000151CN0000501N9+00781+99999100251ADDAY141061GF109991091999000251999999MD1810201+9999MW1441
0064108660999991929101918004+48183+011550FM-12+052099999V0202701N006710360019N0100001N9+00891+99999100371ADDAY121061GF108991041061004501011999KA1999M+01001MD1210201+9999
0067108660999991929102006004+48183+011550FM-12+052099999V0202501N004619999999N0200001N9+00501+99999100531ADDAA199002091AY161061GF108991041061008001999999KA1999N+00501MW1611
0057108660999991929102012004+48183+011550FM-12+052099999V0202701N00671004501CN0200001N9+00611+99999100711ADDAY181061GF108991061061004501999999MD1990061+9999MW1801
0075108660999991929102018004+48183+011550FM-12+052099999V0202701N002610360019N0500001N9+00501+99999100821ADDAA199000591AY121061GF107991041051008001011999KA1999M+00611MD1310141+9999
0050108660999991929102106004+48183+011550FM-12+052099999V0200701N00101220001CN0040001N9+00111+99999101011ADDAY101061GF104991001001999999001081KA1999N-00111
0051108660999991929102112004+48183+011550FM-12+052099999V0200901N00261220001CN0500001N9+01281+99999100911ADDAY101061GF102991001001999999001011MD1990061+9999
0050108660999991929102118004+48183+011550FM-12+052099999V0200901N00101220001CN0100001N9+00721+99999101031ADDAY101061GF101991001001999999001011KA1999M+01281
0042108660999991929102206004+48183+011550FM-12+052099999V0209991C00001220001CN0040001N9+00391+99999101421ADDGF107991001001999999071999KA1999N+00111
0037108660999991929102212004+48183+011550FM-12+052099999V0202501N00101220001CN0500001N9+01721+99999101051ADDAY101061GF102991999001999999031001
0064108660999991929102218004+48183+011550FM-12+052099999V0200901N00101220001CN0500001N9+01111+99999101191ADDAY101061GF102991999001999999031001KA1999M+01891MD1310061+9999
0056108660999991929102306004+48183+011550FM-12+052099999V0202501N00101220001CN0010001N9+00281+99999101151ADDGF104991001001999999031081KA1999N+00111MD1810061+9999
0037108660999991929102312004+48183+011550FM-12+052099999V0202901N001010360019N0500001N9+01501+99999100771ADDAY111061GF106991021011022501031999
0064108660999991929102318004+48183+011550FM-12+052099999V0209991C000010360019N0040001N9+01221+99999100931ADDAY111061GF107991021051012501031999KA1999M+01611MD1810141+9999
0042108660999991929102406004+48183+011550FM-12+052099999V0209991C000010360019N0020001N9+00891+99999101141ADDGF107991041051012501031999KA1999N+00391
0049108660999991929102412004+48183+011550FM-12+052099999V0200901N00101220001CN0040001N9+01611+99999100661ADDGF102991011061008001999999MD1810201+9999MW1281
0038108660999991929102418004+48183+011550FM-12+052099999V0209991C000019999999N0040001N9+00891+99999100621ADDAY101061KA1999M+01611MD1610061+9999
0056108660999991929102506004+48183+011550FM-12+052099999V0202301N00101000151CN0000001N9+00501+99999100531ADDAY141061GF109991091999000251999999KA1999N+00281MW1441
0029108660999991929102512004+48183+011550FM-12+052099999V0203401N00101220001CN0040001N9+01391+99999100261ADDGF104991011051017501001081
0064108660999991929102518004+48183+011550FM-12+052099999V0209991C00001004501CN0020001N9+01221+99999100291ADDAY121061GF108991081051004501999999KA1999M+01501MD1610061+9999
0075108660999991929102606004+48183+011550FM-12+052099999V0209991C000010360019N0020001N9+00501+99999100221ADDAA199017091AY161061GF108991041061008001011999KA1999N+00391MD1810141+9999
0051108660999991929102612004+48183+011550FM-12+052099999V0202901N001019999999N0100001N9+00891+99999100021ADDAY121061GF107991021061004501999999MD1610061+9999
0050108660999991929102618004+48183+011550FM-12+052099999V0201101N001010360019N0040001N9+00611+99999100131ADDAY111061GF106991041051004501011999KA1999M+01001
0075108660999991929102706004+48183+011550FM-12+052099999V0202901N002619999999N0040001N9+00391+99999100731ADDAA199001091AY181061GF108991021061004501999999KA1999N+00221MD1310141+9999
0051108660999991929102712004+48183+011550FM-12+052099999V0203201N004619999999N0100001N9+00611+99999100851ADDAY111061GF107991021061004501999999MD1810061+9999
0070108660999991929102718004+48183+011550FM-12+052099999V0203601N00261004501CN0040001N9+00281+99999101111ADDAY121061GF108991081061004501999999KA1999M+00721MD1310201+9999MW1161
0075108660999991929102806004+48183+011550FM-12+052099999V0202701N004610360019N0040001N9+00221+99999101841ADDAA199001091AY101061GF108991041061017501011999KA1999N-00111MD1310201+9999
0037108660999991929102812004+48183+011550FM-12+052099999V0202701N004619999999N0040001N9+00611+99999101921ADDAY111061GF107991021061004501999999
0075108660999991929102818004+48183+011550FM-12+052099999V0202301N00261220001CN0040001N9+00281+99999101981ADDAA199000591AY111061GF104991021051008001031999KA1999M+00721MD1510001+9999
0064108660999991929102906004+48183+011550FM-12+052099999V0201801N002610360019N0500001N9+00391+99999101071ADDAY111061GF107991041051012501011999KA1999N+00111MD1710341+9999
0057108660999991929102912004+48183+011550FM-12+052099999V0202001N00461002401CN0020001N9+00721+99999100501ADDAY181061GF108991081061002501999999MD1710141+9999MW1601
0067108660999991929102918004+48183+011550FM-12+052099999V0202701N00671002401CN0040001N9+01001+99999100541ADDAA199003091AY181061GF108991081061002501999999KA1999M+01221MW1601
0061108660999991929103006004+48183+011550FM-12+052099999V0202301N00461012301CN0040001N9+00721+99999100791ADDAA199000391AY121061GF107991061051012501031999KA1999N+00611
0051108660999991929103012004+48183+011550FM-12+052099999V0202901N004610360019N0100001N9+01111+99999100691ADDAY111061GF107991041051012501011999MD1810061+9999
0050108660999991929103018004+48183+011550FM-12+052099999V0209991C000010360019N0040001N9+00721+99999100911ADDAY111061GF106991041051012501031999KA1999M+01111
0081108660999991929103106004+48183+011550FM-12+052099999V0203601N00101001501CN0020001N9+00611+99999101451ADDAA199001091AY161061GF108991081061001501999999KA1999N+00501MD1310141+9999MW1511
0051108660999991929103112004+48183+011550FM-12+052099999V0203601N00101002401CN0040001N9+00781+99999101551ADDAY161061GF108991081061002501999999MD1410001+9999
0075108660999991929103118004+48183+011550FM-12+052099999V0203601N00101004501CN0020001N9+00721+99999101741ADDAA199003091AY161061GF108991061061004501999999KA1999M+00781MD1310141+9999
0081108660999991929110106004+48183+011550FM-12+052099999V0200701N00101001501CN0010001N9+00391+99999102221ADDAA199004091AY161061GF108991081061001501999999KA1999N+00391MD1310141+9999MW1611
0037108660999991929110112004+48183+011550FM-12+052099999V0200901N002619999999N0200001N9+00721+99999102111ADDAY121061GF108991021061004501999999
0075108660999991929110118004+48183+011550FM-12+052099999V0200901N002619999999N0040001N9+00611+99999102081ADDAA199001091AY121061GF108991041061004501999999KA1999M+00721MD1810061+9999
0081108660999991929110206004+48183+011550FM-12+052099999V0200901N00101000601CN0010001N9+00611+99999102031ADDAA199004091AY161061GF108991081061000751999999KA1999N+00501MD1310141+9999MW1521
0057108660999991929110212004+48183+011550FM-12+052099999V0200901N00101001501CN0020001N9+00611+99999102311ADDAY161061GF108991081061001501999999MD1310201+9999MW1511
0075108660999991929110218004+48183+011550FM-12+052099999V0200901N00101004501CN0040001N9+00611+99999102471ADDAA199001091AY121061GF108991061051004501011999KA1999M+00721MD1310141+9999
0056108660999991929110306004+48183+011550FM-12+052099999V0209991C00001000151CN0002001N9+00611+99999102431ADDAY141061GF108991081051000251999999KA1999N+00501MW1441
0051108660999991929110312004+48183+011550FM-12+052099999V0203601N00101001501CN0040001N9+00721+99999102121ADDAY121061GF108991081061001501999999MD1990141+9999
0081108660999991929110318004+48183+011550FM-12+052099999V0203201N00101001501CN0020001N9+00611+99999102201ADDAA199000691AY121061GF108991081061001501999999KA1999M+00611MD1310141+9999MW1611
0081108660999991929110406004+48183+011550FM-12+052099999V0202901N00101001501CN0020001N9+00391+99999103021ADDAA199003091AY161061GF108991081051001501999999KA1999N+00281MD1710261+9999MW1521
0051108660999991929110412004+48183+011550FM-12+052099999V0203201N00101004501CN0020001N9+00611+99999103221ADDAY161061GF107991061061004501999999MD1110061+9999
0075108660999991929110418004+48183+011550FM-12+052099999V0209991C00001002401CN0020001N9+00501+99999103421ADDAA199002091AY121061GF108991081061002501999999KA1999M+00611MD1310061+9999
0081108660999991929110506004+48183+011550FM-12+052099999V0209991C000019999999N0010001N9+00221+99999103041ADDAA199000391AY141061GF106991999011008001001001KA1999N+00111MD1810141+9999MW1421
0051108660999991929110512004+48183+011550FM-12+052099999V0201101N00101001501CN0020001N9+00281+99999102721ADDAY121061GF108991081051001501999999MD1810201+9999
0064108660999991929110518004+48183+011550FM-12+052099999V0202001N00101001501CN0010001N9+00221+99999102511ADDAY121061GF108991081051001501999999KA1999M+00281MD1710141+9999
0056108660999991929110606004+48183+011550FM-12+052099999V0201401N00101001501CN0010001N9+00221+99999101751ADDGF108991081051001501999999KA1999N+00111MD1810141+9999
0043108660999991929110612004+48183+011550FM-12+052099999V0200901N00101220001CN0040001N9+00611+99999101391ADDGF104991021051004501031999MD1810141+9999
0050108660999991929110618004+48183+011550FM-12+052099999V0209991C00001220001CN0020001N9+00221+99999101461ADDAY101061GF102991001001999999001081KA1999M+00721
0070108660999991929110706004+48183+011550FM-12+052099999V0202701N00101000151CN0000501N9-00111+99999101901ADDAY141061GF109991091999000251999001KA1999N-00221MD1310141+9999MW1461
0057108660999991929110712004+48183+011550FM-12+052099999V0203601N00101220001CN0010001N9+00781+99999101721ADDAY141061GF100991001001999999001001MD1610061+9999MW1281
0056108660999991929110718004+48183+011550FM-12+052099999V0209991C00001007801CN0010001N9+00391+99999102001ADDGF106991061051008001999999KA1999M+01001MD1310141+9999
0056108660999991929110806004+48183+011550FM-12+052099999V0200501N00101000151CN0000501N9-00111+99999102121ADDAY141061GF109991091999000251999999KA1999N-00111MW1461
0057108660999991929110812004+48183+011550FM-12+052099999V0209991C00001220001CN0010001N9+00721+99999101631ADDAY141061GF104991001001999999001091MD1810201+9999MW1421
0056108660999991929110818004+48183+011550FM-12+052099999V0201101N00101000151CN0000001N9+00391+99999101641ADDAY101061GF109991091999000251999999KA1999M+00781MW1461
0067108660999991929110906004+48183+011550FM-12+052099999V0202001N00261000601CN0010001N9+00721+99999101511ADDAA199002091AY161061GF108991081061000751999999KA1999N+00001MW1511
0051108660999991929110912004+48183+011550FM-12+052099999V0202701N002619999999N0040001N9+01001+99999101711ADDAY161061GF108991021061004501999999MD1310061+9999
0075108660999991929110918004+48183+011550FM-12+052099999V0203201N001019999999N0040001N9+00781+99999102041ADDAA199001091AY161061GF108991041061002501999999KA1999M+01001MD1310141+9999
0075108660999991929111006004+48183+011550FM-12+052099999V0200901N00461002401CN0020001N9+00611+99999101941ADDAA199000691AY121061GF108991061061002501999999KA1999N+00501MD1610061+9999
0051108660999991929111012004+48183+011550FM-12+052099999V0202001N00101007801CN0040001N9+00891+99999101601ADDAY121061GF108991081051008001999999MD1810141+9999
0064108660999991929111018004+48183+011550FM-12+052099999V0202501N001010360019N0100001N9+00611+99999101791ADDAY101061GF106991041051017501031999KA1999M+00891MD1110141+9999
0067108660999991929111106004+48183+011550FM-12+052099999V0202701N00101001501CN0020001N9+00611+99999102361ADDAA199003091AY161061GF108991081061001501999999KA1999N+00391MW1611
0057108660999991929111112004+48183+011550FM-12+052099999V0202501N00261002401CN0020001N9+00501+99999102601ADDAY161061GF108991071061002501999999MD1810061+9999MW1611
0081108660999991929111118004+48183+011550FM-12+052099999V0202501N00101220001CN0010001N9+00111+99999102551ADDAA199004091AY101061GF100991001001999999001001KA1999M+00611MD1990061+9999MW1461
0064108660999991929111206004+48183+011550FM-12+052099999V0201801N00261220001CN0010001N9+00001+99999101421ADDAY101061GF104991001001999999001081KA1999N-00281MD1810401+9999
0051108660999991929111212004+48183+011550FM-12+052099999V0201601N00261220001CN0500001N9+00891+99999100631ADDAY111061GF106991001001999999011081MD1810341+9999
0070108660999991929111218004+48183+011550FM-12+052099999V0202901N001010360019N0040001N9+00611+99999100631ADDAY121061GF108991041061004501011999KA1999M+01001MD1410001+9999MW1101
0081108660999991929111306004+48183+011550FM-12+052099999V0201801N00101002401CN0010001N9+00391+99999100871ADDAA199001091AY161061GF108991061061002501011999KA1999N+00281MD1990061+9999MW1601
0051108660999991929111312004+48183+011550FM-12+052099999V0200901N00461220001CN0200001N9+00721+99999100251ADDAY111061GF104991021051012501011999MD1810261+9999
0064108660999991929111318004+48183+011550FM-12+052099999V0200901N00261220001CN0040001N9+00221+99999100021ADDAY101061GF104991021051012501011999KA1999M+00781MD1810201+9999
0061108660999991929111406004+48183+011550FM-12+052099999V0202501N00461007801CN0040001N9+00221+99999100061ADDAA199004091AY171061GF108991061051008001011999KA1999N+00001
0037108660999991929111412004+48183+011550FM-12+052099999V0202501N00461007801CN0100001N9+00281+99999100101ADDAY121061GF108991081051008001999999
0075108660999991929111418004+48183+011550FM-12+052099999V0202701N006710360019N0040001N9+00221+99999100211ADDAA199000691AY161061GF106991041051012501031999KA1999M+00281MD1310061+9999
0064108660999991929111506004+48183+011550FM-12+052099999V0202501N00101007801CN0040001N9+00001+99999100541ADDAY121061GF107991061051008001031999KA1999N-00111MD1310141+9999
0051108660999991929111512004+48183+011550FM-12+052099999V0202901N00261007801CN0100001N9+00221+99999100781ADDAY161061GF107991061051008001011999MD1310141+9999
0064108660999991929111518004+48183+011550FM-12+052099999V0202501N00261220001CN0020001N9-00221+99999101071ADDAY101061GF102991021051012501001001KA1999M+00281MD1310141+9999
0064108660999991929111606004+48183+011550FM-12+052099999V0201401N004610360019N0040001N9-00221+99999100661ADDAY111061GF107991041051012501011999KA1999N-00611MD1710141+9999
0051108660999991929111612004+48183+011550FM-12+052099999V0201101N00261007801CN0040001N9+00221+99999100331ADDAY121061GF108991061061008001011999MD1810141+9999
0061108660999991929111618004+48183+011550FM-12+052099999V0201601N002610360019N0040001N9+00111+99999100301ADDAA199002091AY181061GF106991041061008001031999KA1999M+00281
0064108660999991929111706004+48183+011550FM-12+052099999V0202501N004610360019N0500001N9+00501+99999100551ADDAY121061GF107991041051008001011999KA1999N+00111MD1310141+9999
0051108660999991929111712004+48183+011550FM-12+052099999V0202701N009319999999N0500001N9+00721+99999100811ADDAY111061GF107991021061004501999999MD1310061+9999
0050108660999991929111718004+48183+011550FM-12+052099999V0201801N00261220001CN0100001N9+00221+99999101061ADDAY111061GF102991999001999999031001KA1999M+01001
0064108660999991929111806004+48183+011550FM-12+052099999V0202901N00101015001CN0020001N9+00001+99999101501ADDAY111061GF106991061051017501999999KA1999N-00221MD1310201+9999
0051108660999991929111812004+48183+011550FM-12+052099999V0202901N00261007801CN0100001N9+00501+99999101711ADDAY111061GF107991061051008001031999MD1710141+9999
0064108660999991929111818004+48183+011550FM-12+052099999V0203201N00101012301CN0040001N9+00221+99999102141ADDAY111061GF108991061051012501011999KA1999M+00501MD1310261+9999
0062108660999991929111906004+48183+011550FM-12+052099999V0209991C00001220001CN0000501N9-00281+99999102601ADDGF100991001001999999001001KA1999N-00391MD1210061+9999MW1421
0051108660999991929111912004+48183+011550FM-12+052099999V0200901N00261220001CN0100001N9+00721+99999102201ADDAY101061GF101991001001999999001011MD1510061+9999
0050108660999991929111918004+48183+011550FM-12+052099999V0200901N00101220001CN0020001N9+00111+99999102271ADDAY101061GF100991001001999999001001KA1999M+00721
0064108660999991929112006004+48183+011550FM-12+052099999V0200501N00101220001CN0020001N9-00391+99999101951ADDAY101061GF102991001001999999001081KA1999N-00501MD1810061+9999
0051108660999991929112012004+48183+011550FM-12+052099999V0200901N00101220001CN0040001N9+00611+99999101711ADDAY111061GF104991001001999999001081MD1810141+9999
0050108660999991929112018004+48183+011550FM-12+052099999V0209991C00001220001CN0040001N9+00111+99999101861ADDAY101061GF102991001001999999001011KA1999M+00611
0062108660999991929112106004+48183+011550FM-12+052099999V0203201N00101000151CN0000501N9-00391+99999101901ADDGF109991091999000251999999KA1999N-00611MD1310061+9999MW1441
0057108660999991929112112004+48183+011550FM-12+052099999V0200501N00101000151CN0000501N9+00001+99999101711ADDAY141061GF109991091999000251999999MD1990061+9999MW1441
0070108660999991929112118004+48183+011550FM-12+052099999V0209991C00001000151CN0000001N9-00281+99999101831ADDAY141061GF109991091999000251999999KA1999M+00221MD1210061+9999MW1441
0048108660999991929112206004+48183+011550FM-12+052099999V0209991C00001220001CN0000501N9-00501+99999102001ADDGF101991999001999999011001KA1999N-00611MW1441
0043108660999991929112212004+48183+011550FM-12+052099999V0200901N00101220001CN0010001N9+00891+99999101501ADDGF100991001001999999001001MD1810061+9999
0048108660999991929112218004+48183+011550FM-12+052099999V0209991C00001220001CN0002001N9+00111+99999101711ADDGF100991001999999999999999KA1999M+01001MW1461
0050108660999991929112306004+48183+011550FM-12+052099999V0209991C000010360019N0010001N9-00221+99999101751ADDAY111061GF107991021051008001031999KA1999N-00391
0051108660999991929112312004+48183+011550FM-12+052099999V0202901N00101220001CN0020001N9+01001+99999101711ADDAY101061GF102991999001999999031001MD1990061+9999
0064108660999991929112318004+48183+011550FM-12+052099999V0200701N00101220001CN0020001N9+00221+99999101901ADDAY101061GF102991999001999999031001KA1999M+01221MD1310061+9999
0070108660999991929112406004+48183+011550FM-12+052099999V0209991C00001220001CN0000001N9-00281+99999101951ADDAY141061GF104991001001999999001081KA1999N-00281MD1610061+9999MW1441
0037108660999991929112412004+48183+011550FM-12+052099999V0200901N00101007801CN0000501N9+00391+99999101861ADDAY141061GF108991061051008001011999
0075108660999991929112418004+48183+011550FM-12+052099999V0202501N00261004501CN0020001N9+00501+99999102241ADDAA199000391AY121061GF108991081061004501999999KA1999M+00781MD1210261+9999
0070108660999991929112506004+48183+011550FM-12+052099999V0201801N00101220001CN0040001N9+00001+99999102511ADDAY101061GF102991001001999999011011KA1999N-00111MD1990061+9999MW1461
0043108660999991929112512004+48183+011550FM-12+052099999V0201101N002610900019N0020001N9+01001+99999101901ADDGF106991041001022501031091MD1810201+9999
0064108660999991929112518004+48183+011550FM-12+052099999V0201101N00101021001CN0020001N9+00391+99999101791ADDAY111061GF106991061001022501031001KA1999M+01001MD1810061+9999
0056108660999991929112606004+48183+011550FM-12+052099999V0209991C00001220001CN0020001N9+00281+99999101791ADDGF104991001001999999031081KA1999N+00001MD1110061+9999
0057108660999991929112612004+48183+011550FM-12+052099999V0202901N00261007801CN0040001N9+00721+99999101921ADDAY121061GF108991061061008001011999MD1310061+9999MW1631
0075108660999991929112618004+48183+011550FM-12+052099999V0202701N00101220001CN0020001N9+00501+99999102181ADDAA199005091AY161061GF102991999001999999011001KA1999M+00891MD1110061+9999
0064108660999991929112706004+48183+011550FM-12+052099999V0202501N00261012301CN0005001N9+00501+99999102161ADDAY111061GF107991071051012501001001KA1999N+00281MD1610061+9999
0051108660999991929112712004+48183+011550FM-12+052099999V0202901N00461007801CN0500001N9+00781+99999102141ADDAY111061GF106991061051008001001001MD1810061+9999
0075108660999991929112718004+48183+011550FM-12+052099999V0202501N00101007801CN0100001N9+00221+99999102301ADDAA199000391AY111061GF106991061051008001001001KA1999M+00891MD1310061+9999
0073108660999991929112806004+48183+011550FM-12+052099999V0201401N00101220001CN0010001N9+00221+99999102121ADDAA199000391GF106991999001999999031001KA1999N+00221MD1710061+9999MW1461
0051108660999991929112812004+48183+011550FM-12+052099999V0201601N00101021001CN0040001N9+00611+99999101681ADDAY121061GF108991081001022501011999MD1710061+9999
0081108660999991929112818004+48183+011550FM-12+052099999V0201401N00101004501CN0040001N9+00611+99999101501ADDAA199000691AY121061GF108991081051004501999999KA1999M+00611MD1710061+9999MW1601
0064108660999991929112906004+48183+011550FM-12+052099999V0209991C00001220001CN0020001N9+00721+99999101451ADDAY111061GF107991001001999999011999KA1999N+00501MD1810061+9999
0051108660999991929112912004+48183+011550FM-12+052099999V0209991C000019999999N0500001N9+01391+99999101191ADDAY111061GF106991041001999999031999MD1710061+9999
0064108660999991929112918004+48183+011550FM-12+052099999V0209991C00001012301CN0020001N9+00781+99999101131ADDAY121061GF108991081051012501999999KA1999M+01501MD1510001+9999
0062108660999991929113006004+48183+011550FM-12+052099999V0201801N00101220001CN0010001N9+00391+99999100991ADDGF104991001001999999031081KA1999N+00281MD1810061+9999MW1461
0043108660999991929113012004+48183+011550FM-12+052099999V0201101N00101220001CN0040001N9+01111+99999100471ADDGF108991001001999999031081MD1810141+9999
0064108660999991929113018004+48183+011550FM-12+052099999V0200701N00101220001CN0040001N9+00611+99999100551ADDAY121061GF108991001001999999011999KA1999M+01111MD1810141+9999
0064108660999991929120106004+48183+011550FM-12+052099999V0202001N00461220001CN0100001N9+01281+99999102111ADDAY111061GF107991001001999999071999KA1999N+00781MD1810061+9999
0070108660999991929120112004+48183+011550FM-12+052099999V0202701N004610360019N0200001N9+00891+99999100342ADDAY121061GF107991041051017501011999MD1110061+9999EQDQ01+100343APOSLP
0075108660999991929120118004+48183+011550FM-12+052099999V0202501N00461220001CN0100001N9+00721+99999100611ADDAA199004091AY111061GF102991021051017501001081KA1999M+00891MD1210201+9999
0064108660999991929120206004+48183+011550FM-12+052099999V0202301N00261220001CN0040001N9+00281+99999101351ADDAY101061GF102991001001999999031081KA1999N+00221MD1310201+9999
0051108660999991929120212004+48183+011550FM-12+052099999V0202701N00461220001CN0200001N9+00891+99999101271ADDAY181061GF102991999051999999031999MD1810061+9999
0061108660999991929120218004+48183+011550FM-12+052099999V0209991C00001220001CN0100001N9+00391+99999101411ADDAA199000691AY101061GF100991001001999999001001KA1999M+01001
0081108660999991929120306004+48183+011550FM-12+052099999V0201801N00101002401CN0010001N9+00501+99999101511ADDAA199000391AY161061GF108991081061002501999999KA1999N+00001MD1210141+9999MW1601
0051108660999991929120312004+48183+011550FM-12+052099999V0202001N001010360019N0020001N9+01001+99999101451ADDAY111061GF108991041051017501011999MD1810061+9999
0075108660999991929120318004+48183+011550FM-12+052099999V0200901N001010360019N0020001N9+00611+99999101621ADDAA199001091AY111061GF106991021061008001031999KA1999M+01001MD1310061+9999
0062108660999991929120406004+48183+011550FM-12+052099999V0201101N00101220001CN0100001N9+00781+99999101671ADDGF102991001001999999071999KA1999N+00501MD1710061+9999MW1281
0051108660999991929120412004+48183+011550FM-12+052099999V0200901N001010360019N0040001N9+01221+99999101541ADDAY111061GF107991021051022501031999MD1510001+9999
0064108660999991929120418004+48183+011550FM-12+052099999V0202001N00101021001CN0010001N9+00611+99999101821ADDAY111061GF106991061001022501031001KA1999M+01281MD1310141+9999
0064108660999991929120506004+48183+011550FM-12+052099999V0209991C00001220001CN0020001N9+00281+99999101991ADDAY101061GF102991001001999999071999KA1999N+00111MD1810141+9999
0051108660999991929120512004+48183+011550FM-12+052099999V0201101N00261220001CN0500001N9+01281+99999100861ADDAY101061GF101991999001999999011001MD1610461+9999
0064108660999991929120518004+48183+011550FM-12+052099999V0200201N00101220001CN0100001N9+00501+99999100551ADDAY101061GF100991001001999999001001KA1999M+01391MD1710201+9999
0061108660999991929120606004+48183+011550FM-12+052099999V0200901N00101220001CN0020001N9-00281+99999100831ADDAA199014091AY111061GF106991999001999999031001KA1999N-00391
0057108660999991929120612004+48183+011550FM-12+052099999V0202901N00261000151CN0005001N9+00111+99999100911ADDAY141061GF109991091999000251999999MD1110141+9999MW1441
0081108660999991929120618004+48183+011550FM-12+052099999V0202701N00261004501CN0040001N9+00391+99999101221ADDAA199000691AY121061GF108991081061004501999999KA1999M+00501MD1310261+9999MW1501
0075108660999991929120706004+48183+011550FM-12+052099999V0200701N001010360019N0100001N9+00111+99999100691ADDAA199000691AY111061GF106991041051022501031999KA1999N+00001MD1810141+9999
0051108660999991929120712004+48183+011550FM-12+052099999V0202301N00101015001CN0500001N9+00721+99999100781ADDAY121061GF108991061051017501011999MD1510001+9999
0081108660999991929120718004+48183+011550FM-12+052099999V0202501N00461007801CN0040001N9+00611+99999101291ADDAA199002091AY161061GF108991081061008001999999KA1999M+00781MD1310261+9999MW1611
0075108660999991929120806004+48183+011550FM-12+052099999V0202301N00261220001CN0500001N9+00221+99999102351ADDAA199005091AY111061GF102991999061999999031999KA1999N+00111MD1310061+9999
0051108660999991929120812004+48183+011550FM-12+052099999V0201801N00261220001CN0500001N9+00891+99999101901ADDAY101061GF102991001001999999001081MD1810201+9999
0050108660999991929120818004+48183+011550FM-12+052099999V0201401N00101220001CN0100001N9+00221+99999101781ADDAY101061GF101991001001999999001081KA1999M+00891
0064108660999991929120906004+48183+011550FM-12+052099999V0202701N00931220001CN0500001N9+00391+99999102141ADDAY101061GF104991021051012501031999KA1999N+00001MD1310201+9999
0051108660999991929120912004+48183+011550FM-12+052099999V0202701N00461220001CN0500001N9+00721+99999102151ADDAY101061GF101991001001999999001011MD1990061+9999
0064108660999991929120918004+48183+011550FM-12+052099999V0201601N001019999999N0100001N9+00391+99999101751ADDAY111061GF108991041001022501071999KA1999M+00781MD1810201+9999
0064108660999991929121006004+48183+011550FM-12+052099999V0202301N002610360019N0500001N9+00721+99999100911ADDAY111061GF106991041051017501011999KA1999N+00221MD1710141+9999
0051108660999991929121012004+48183+011550FM-12+052099999V0202701N00671004501CN0200001N9+00391+99999101391ADDAY161061GF108991081061004501999999MD1310261+9999
0075108660999991929121018004+48183+011550FM-12+052099999V0202701N00671007801CN0100001N9+00281+99999101711ADDAA199003091AY111061GF106991061051008001001001KA1999M+00781MD1310201+9999
0075108660999991929121106004+48183+011550FM-12+052099999V0202001N00261220001CN0200001N9+00111+99999102001ADDAA199001091AY101061GF102991001001999999071999KA1999N+00001MD1810061+9999
0057108660999991929121112004+48183+011550FM-12+052099999V0202001N002610360019N0500001N9+00721+99999101331ADDAY111061GF107991041061008001011999MD1810261+9999MW1801
0067108660999991929121118004+48183+011550FM-12+052099999V0202701N019010360019N0200001N9+00891+99999101251ADDAA199000691AY111061GF107991041061008001011999KA1999M+00891MW1161
0061108660999991929121206004+48183+011550FM-12+052099999V0202701N006719999999N0500001N9+00891+99999101831ADDAA199001091AY111061GF108991021001012501071999KA1999N+00721
0051108660999991929121212004+48183+011550FM-12+052099999V0202701N015410360019N0500001N9+01001+99999101641ADDAY111061GF106991021031008001011999MD1710061+9999
0067108660999991929121218004+48183+011550FM-12+052099999V0203601N00461004501CN0100001N9+00501+99999101721ADDAA199000591AY181061GF108991081061004501999999KA1999M+01001MW1601
0075108660999991929121306004+48183+011550FM-12+052099999V0202701N00671002401CN0100001N9+00281+99999103021ADDAA199007091AY161061GF108991081061002501999999KA1999N+00001MD1310261+9999
0043108660999991929121312004+48183+011550FM-12+052099999V0202501N00261004501CN0020001N9+00281+99999103041ADDAY161061GF108991081061004501999999MW1611
0075108660999991929121318004+48183+011550FM-12+052099999V0202701N00461004501CN0020001N9+00501+99999103121ADDAA199002091AY161061GF108991061061004501999999KA1999M+00501MD1310141+9999
0061108660999991929121406004+48183+011550FM-12+052099999V0202301N00261012301CN0100001N9+00501+99999103391ADDAA199000691AY111061GF107991061051012501011999KA1999N+00221
0051108660999991929121412004+48183+011550FM-12+052099999V0202701N004610360019N0500001N9+01111+99999103111ADDAY111061GF106991011051012501011999MD1810141+9999
0050108660999991929121418004+48183+011550FM-12+052099999V0202701N00101021001CN0200001N9+00721+99999103031ADDAY111061GF106991061001022501011001KA1999M+01111
0050108660999991929121506004+48183+011550FM-12+052099999V0202701N004610360019N0200001N9+00891+99999103161ADDAY111061GF107991041061012501031999KA1999N+00611
0051108660999991929121512004+48183+011550FM-12+052099999V0202701N009310360019N0500001N9+01221+99999102861ADDAY121061GF106991041051012501011999MD1990201+9999
0075108660999991929121518004+48183+011550FM-12+052099999V0202701N006710360019N0100001N9+01111+99999102681ADDAA199001091AY121061GF108991041051008001011999KA1999M+01221MD1810061+9999
0067108660999991929121606004+48183+011550FM-12+052099999V0202501N00101002401CN0010001N9+00111+99999103041ADDAA199008091AY171061GF108991081061002501999999KA1999N+00001MW1681
0057108660999991929121612004+48183+011550FM-12+052099999V0203201N00101000601CN0002001N9+00001+99999103101ADDAY171061GF108991081061000751999999MD1310061+9999MW1751
0075108660999991929121618004+48183+011550FM-12+052099999V0202701N002610360019N0040001N9+00001+99999103191ADDAA199009091AY171061GF107991041061012501031999KA1999M+00111MD1310141+9999
0075108660999991929121706004+48183+011550FM-12+052099999V0202701N00461220001CN0020001N9-00111+99999103391ADDAA199000391AY171061GF102991021061004501031999KA1999N-00281MD1810061+9999
0051108660999991929121712004+48183+011550FM-12+052099999V0202901N00461002401CN0040001N9+00001+99999103121ADDAY171061GF107991061061002501999999MD1810141+9999
0081108660999991929121718004+48183+011550FM-12+052099999V0202901N00671001501CN0010001N9+00001+99999102911ADDAA199001091AY171061GF108991081061001501999999KA1999M+00001MD1710201+9999MW1831
0075108660999991929121806004+48183+011550FM-12+052099999V0203201N00101001501CN0040001N9-00391+99999103741ADDAA199002091AY171061GF108991081051001501999999KA1999N-00501MD1210141+9999
0037108660999991929121812004+48183+011550FM-12+052099999V0203601N001010360019N0040001N9-00221+99999103791ADDAY171061GF106991021051012501031999
0075108660999991929121818004+48183+011550FM-12+052099999V0203601N00101021001CN0040001N9-00281+99999103961ADDAA199000391AY111061GF107991071001022501031001KA1999M-00111MD1310061+9999
0081108660999991929121906004+48183+011550FM-12+052099999V0209991C00001220001CN0002001N9-01221+99999104081ADDAA199000691AY111061GF104991001001999999071999KA1999N-01281MD1610061+9999MW1461
0051108660999991929121912004+48183+011550FM-12+052099999V0200901N00261220001CN0100001N9-00391+99999103581ADDAY101061GF101991011051008001001001MD1810201+9999
0064108660999991929121918004+48183+011550FM-12+052099999V0200901N00101220001CN0040001N9-00721+99999103481ADDAY101061GF101991011051012501001001KA1999M-00281MD1810201+9999
0064108660999991929122006004+48183+011550FM-12+052099999V0200901N00101220001CN0020001N9-00891+99999102591ADDAY101061GF102991011051008001011999KA1999N-01001MD1610061+9999
0051108660999991929122012004+48183+011550FM-12+052099999V0201101N00101220001CN0020001N9-00281+99999102191ADDAY101061GF104991021051008001001081MD1810141+9999
0064108660999991929122018004+48183+011550FM-12+052099999V0200501N00101220001CN0020001N9-00611+99999102201ADDAY111061GF104991021071001501999999KA1999M-00281MD1990061+9999
0056108660999991929122106004+48183+011550FM-12+052099999V0201101N00101002401CN0020001N9-00781+99999101791ADDGF108991081051002501999999KA1999N-00781MD1810141+9999
0043108660999991929122112004+48183+011550FM-12+052099999V0201401N00101001501CN0020001N9-00611+99999101391ADDGF108991081051001501999999MD1810201+9999
0056108660999991929122118004+48183+011550FM-12+052099999V0209991C00001001501CN0010001N9-01001+99999101411ADDGF108991081051001501999999KA1999M+00501MD1610061+9999
0070108660999991929122206004+48183+011550FM-12+052099999V0209991C00001220001CN0100001N9-01721+99999101221ADDAY101061GF100991001001999999001001KA1999N-01781MD1810061+9999MW1461
0051108660999991929122212004+48183+011550FM-12+052099999V0201101N001010900019N0020001N9-00281+99999100491ADDAY111061GF106991041001022501031081MD1610061+9999
0064108660999991929122218004+48183+011550FM-12+052099999V0200901N00101021001CN0020001N9-00391+99999100651ADDAY121061GF108991061001022501071999KA1999M-00281MD1310141+9999
0056108660999991929122306004+48183+011550FM-12+052099999V0209991C00001002401CN0010001N9-00891+99999101211ADDGF108991081051002501999999KA1999N-01221MD1410001+9999
0043108660999991929122312004+48183+011550FM-12+052099999V0209991C00001015001CN0020001N9-00391+99999101021ADDGF107991061001017501011081MD1810201+9999
0050108660999991929122318004+48183+011550FM-12+052099999V0200901N00101220001CN0020001N9-00721+99999101051ADDAY101061GF100991001001999999001001KA1999M-00281
0081108660999991929122406004+48183+011550FM-12+052099999V0201101N00101001501CN0005001N9-00391+99999100351ADDAA199003091AY171061GF108991081061001501999999KA1999N-01001MD1710061+9999MW1721
0051108660999991929122412004+48183+011550FM-12+052099999V0202701N009312200019N0200001N9+00391+99999100451ADDAY111061GF106991021051008001001011MD1310141+9999
0075108660999991929122418004+48183+011550FM-12+052099999V0202501N00461220001CN0200001N9+00221+99999100981ADDAA199000691AY111061GF104991041051008001001011KA1999M+00391MD1310261+9999
0064108660999991929122506004+48183+011550FM-12+052099999V0201601N00261220001CN0200001N9+00111+99999101461ADDAY111061GF106991001001999999011081KA1999N-00111MD1810061+9999
0029108660999991929122512004+48183+011550FM-12+052099999V0201601N001010360019N0040001N9+00781+99999101181ADDGF107991021051008001011999
0064108660999991929122518004+48183+011550FM-12+052099999V0209991C000010360019N0040001N9+00391+99999101351ADDAY111061GF106991021051012501011999KA1999M+00781MD1310061+9999
0064108660999991929122606004+48183+011550FM-12+052099999V0202301N001010360019N0500001N9+00001+99999101601ADDAY111061GF107991021051012501011001KA1999N-00221MD1210061+9999
0057108660999991929122612004+48183+011550FM-12+052099999V0202701N00101002401CN0040001N9+00221+99999101871ADDAY161061GF108991081061002501999999MD1310141+9999MW1511
0081108660999991929122618004+48183+011550FM-12+052099999V0202501N00101001501CN0020001N9+00221+99999102081ADDAA199003091AY161061GF108991081061001501999999KA1999M+00281MD1310141+9999MW1631
0067108660999991929122706004+48183+011550FM-12+052099999V0209991C00001002401CN0010001N9+00001+99999102401ADDAA199009091AY171061GF108991081061002501999999KA1999N+00001MW1681
0043108660999991929122712004+48183+011550FM-12+052099999V0209991C00001002401CN0010001N9+00221+99999102191ADDGF108991081061002501999999MD1610141+9999
0075108660999991929122718004+48183+011550FM-12+052099999V0201801N00101220001CN0020001N9+00001+99999102031ADDAA199000391AY101061GF102991999001999999011001KA1999M+00221MD1810141+9999
0075108660999991929122806004+48183+011550FM-12+052099999V0202501N00261007801CN0040001N9+00221+99999101491ADDAA199000391AY111061GF107991071051008001001001KA1999N-00111MD1610061+9999
0043108660999991929122812004+48183+011550FM-12+052099999V0202701N001010360019N0200001N9+00281+99999101661ADDAY111061GF107991041061008001031999MW1501
0075108660999991929122818004+48183+011550FM-12+052099999V0202501N00261220001CN0040001N9+00111+99999101981ADDAA199002091AY181061GF100991001001999999001001KA1999M+00391MD1110141+9999
0075108660999991929122906004+48183+011550FM-12+052099999V0202301N002619999999N0500001N9+00281+99999101561ADDAA199002091AY161061GF108991021061004501999999KA1999N-00221MD1410001+9999
0051108660999991929122912004+48183+011550FM-12+052099999V0202501N00931220001CN0500001N9+01221+99999101271ADDAY101061GF102991999001999999031001MD1810141+9999
0064108660999991929122918004+48183+011550FM-12+052099999V0202501N00671220001CN0100001N9+00781+99999101801ADDAY111061GF104991041051008001001001KA1999M+01281MD1310341+9999
0050108660999991929123006004+48183+011550FM-12+052099999V0202701N00671220001CN0500001N9+00391+99999102471ADDAY101061GF102991021051017501001001KA1999N+00281
0051108660999991929123012004+48183+011550FM-12+052099999V0202701N01541220001CN0500001N9+00781+99999102241ADDAY101061GF101991011051022501001001MD1990201+9999
0070108660999991929123018004+48183+011550FM-12+052099999V0201801N00101220001CN0010001N9+00221+99999102151ADDAY101061GF102991001001999999001081KA1999M+00781MD1990061+9999MW1461
0064108660999991929123106004+48183+011550FM-12+052099999V0202301N00261220001CN0500001N9+00221+99999101631ADDAY111061GF104991021051022501031999KA1999N-00221MD1610061+9999
0043108660999991929123112004+48183+011550FM-12+052099999V0202701N00931007801CN0500001N9+00611+99999101621ADDAY121061GF108991061061008001031999MW1611
0081108660999991929123118004+48183+011550FM-12+052099999V0202701N00461002401CN0020001N9+00111+99999102121ADDAA199003091AY181061GF108991081061002501999999KA1999M+00721MD1310261+9999MW1621
