0056108650999991928010106004+48183+011550FM-12+015599999V0209999900461001501CN0010001N9-00391-00441103201ADDAY141061GF108991081051001501999999KA1999N-00501MW1101
0037108650999991928010112004+48183+011550FM-12+015599999V0200901N00261007801CN0020001N9-00501-00561103311ADDAY141061GF108991081051008001999999
0064108650999991928010206004+48183+011550FM-12+015599999V0209999900261001501CN0010001N9-00721-00781103271ADDAY121061GF108991081051001501999999KA1999N-00721MD1810141+9999
0051108650999991928010212004+48183+011550FM-12+015599999V0200901N00261001501CN0020001N9-00611-00671102871ADDAY121061GF108991081051001501999999MD1710261+9999
0070108650999991928010306004+48183+011550FM-12+015599999V0209999900261000151CN0000501N9-01221-01281102271ADDAY141061GF108991081051000251999999KA1999N-01221MD1810061+9999MW1451
0051108650999991928010312004+48183+011550FM-12+015599999V0200501N00101220001CN0010001N9-00281-00441101981ADDAY141061GF100991001001999999001001MD1810061+9999
0050108650999991928010406004+48183+011550FM-12+015599999V0209999900101036001CN0500001N9-00111-00171102691ADDAY111061GF107991041051012501021001KA1999N-00891
0057108650999991928010412004+48183+011550FM-12+015599999V0202501N00931004501CN0100001N9+00221+00171102801ADDAY171061GF108991061061004501021001MD1310061+9999MW1701
0064108650999991928010506004+48183+011550FM-12+015599999V02099999022619999999N0100001N9+00391-00171101861ADDAY121061GF108991999051004501001001KA1999N+00111MD1810261+9999
0051108650999991928010512004+48183+011550FM-12+015599999V0202501N01901036001CN0100001N9+00391+00001101791ADDAY111061GF106991041051008001021001MD1810141+9999
0075108650999991928010606004+48183+011550FM-12+015599999V0209999900671002401CN0500001N9+00111-00111102481ADDAA199000691AY111061GF107991071051002501001001KA1999N-00111MD1810061+9999
0092108650999991928010612004+48183+011550FM-12+015599999V0202501N01231002401CN0005001N9+00111+00061101662ADDAY171061GF108991081061002501999999MD1810542+9999MW1731EQDQ01+101663APOSLPQ02+000542APC3  
0094108650999991928010706004+48183+011550FM-12+015599999V0209999901231036001CN0100001N9+00221+00001102271ADDAA199001091AY111061GF106991041051008001021001KA1999N+00111MD1310542+9999EQDQ01+000542APC3  
0051108650999991928010712004+48183+011550FM-12+015599999V0202701N00671036001CN0000501N9+00391+00001102471ADDAY121061GF108991041051008001021001MD1310141+9999
0050108650999991928010806004+48183+011550FM-12+015599999V0209999900931004501CN0500001N9+00501+00281101661ADDAY121061GF108991061051004501021001KA1999N+00111
0051108650999991928010812004+48183+011550FM-12+015599999V0202701N01231004501CN0500001N9+00721+00331101571ADDAY121061GF108991081051004501999999MD1810061+9999
0067108650999991928010906004+48183+011550FM-12+015599999V0209999900261004501CN0020001N9+00501+00441101901ADDAA199002091AY161061GF108991061061004501021001KA1999N+00391MW1711
0057108650999991928010912004+48183+011550FM-12+015599999V0209991C00001002401CN0020001N9+00501+00441101971ADDAY161061GF108991081061002501999999MD1510001+9999MW1611
0067108650999991928011006004+48183+011550FM-12+015599999V0209999900261001501CN0020001N9+00501+00441102021ADDAA199000591AY161061GF108991999061001501001001KA1999N+00281MW1211
0051108650999991928011012004+48183+011550FM-12+015599999V0202301N004619999999N0500001N9+00891+00441101981ADDAY161061GF106991999061004501001001MD1810061+9999
0050108650999991928011106004+48183+011550FM-12+015599999V0209999900261007801CN0020001N9+00221+00001102101ADDAY111061GF106991061051008001001001KA1999N+00111
0051108650999991928011112004+48183+011550FM-12+015599999V0202501N00461220001CN0500001N9+01001+00111101831ADDAY111061GF102991021051012501001001MD1810141+9999
0067108650999991928011206004+48183+011550FM-12+015599999V02099999004619999999N0040001N9+00281+00061102151ADDAA199000391AY111061GF107991999061008001001001KA1999N+00221MW1601
0057108650999991928011212004+48183+011550FM-12+015599999V0202701N00461036001CN0500001N9+00501+00281102041ADDAY181061GF107991041061012501021001MD1990061+9999MW1211
0064108650999991928011306004+48183+011550FM-12+015599999V0209999900101220001CN0010001N9-00221-00281102001ADDAY101061GF102991011051008001031001KA1999N-00221MD1610061+9999
0051108650999991928011312004+48183+011550FM-12+015599999V0202501N00461220001CN0500001N9+00721-00111101511ADDAY111061GF106991001001999999021081MD1810201+9999
0061108650999991928011406004+48183+011550FM-12+015599999V0209999900671220001CN0100001N9+00281+00061101591ADDAA199000591AY101061GF104991041051012501001001KA1999N+00281
0037108650999991928011412004+48183+011550FM-12+015599999V0202701N006719999999N0100001N9+00501-00111101671ADDAY111061GF106991999051008001001001
0064108650999991928011506004+48183+011550FM-12+015599999V0209999900461220001CN0500001N9+00111-00111101281ADDAY111061GF106991999001999999021001KA1999N-00221MD1810141+9999
0051108650999991928011512004+48183+011550FM-12+015599999V0202501N00461036001CN0500001N9+00781+00391100861ADDAY121061GF107991041061004501021001MD1810201+9999
0067108650999991928011606004+48183+011550FM-12+015599999V0209999900261004501CN0020001N9+00221+00171101061ADDAA199001091AY181061GF108991081051004501999999KA1999N+00221MW1511
0057108650999991928011612004+48183+011550FM-12+015599999V0202901N00101004501CN0020001N9+00281+00221100971ADDAY161061GF108991061061004501021001MD1990141+9999MW1611
0075108650999991928011706004+48183+011550FM-12+015599999V0202001N00261036001CN0020001N9+00111+00061101141ADDAA199001091AY111061GF106991041051004501021001KA1999N-00111MD1310061+9999
0037108650999991928011712004+48183+011550FM-12+015599999V0202501N00671036001CN0500001N9+00391+00001101241ADDAY111061GF106991021051017501031001
0064108650999991928011806004+48183+011550FM-12+015599999V0202501N00461220001CN0040001N9+00001-00061102071ADDAY111061GF106991001001999999031081KA1999N+00001MD1310141+9999
0064108650999991928011906004+48183+011550FM-12+015599999V0209999900101036001CN0020001N9-00281-00331102101ADDAY111061GF106991041051008001031001KA1999N-00501MD1810201+9999
0057108650999991928011912004+48183+011550FM-12+015599999V0201801N00261000601CN0005001N9+00111+00061101641ADDAY161061GF108991081061000751999999MD1810261+9999MW1731
0050108650999991928012006004+48183+011550FM-12+015599999V0209999900461004501CN0020001N9+00001-00221102781ADDAY111061GF106991061051004501001001KA1999N-00391
0051108650999991928012012004+48183+011550FM-12+015599999V0202701N00461004501CN0020001N9+00111-00111103011ADDAY121061GF108991061051004501021001MD1310141+9999
0050108650999991928012106004+48183+011550FM-12+015599999V0209999900101007801CN0020001N9+00001-00061103361ADDAY121061GF108991061051008001021001KA1999N-00111
0051108650999991928012112004+48183+011550FM-12+015599999V0202901N00261007801CN0040001N9+00221-00171103111ADDAY111061GF107991061051008001021001MD1610141+9999
0064108650999991928012206004+48183+011550FM-12+015599999V0209991C00001220001CN0100001N9-00611-00671102041ADDAY101061GF102991001001999999021021KA1999N-00611MD1610141+9999
0051108650999991928012212004+48183+011550FM-12+015599999V0201801N00261220001CN0200001N9+00611-00171101471ADDAY101061GF104991001001999999001021MD1810201+9999
0081108650999991928012306004+48183+011550FM-12+015599999V02099999004619999999N0040001N9+00221+00171102191ADDAA199001091AY121061GF108991999061004501001001KA1999N+00001MD1310201+9999MW1501
0037108650999991928012312004+48183+011550FM-12+015599999V0202701N004619999999N0040001N9+00501+00111102461ADDAY111061GF106991999061004501001001
0056108650999991928012406004+48183+011550FM-12+015599999V0209999900101220001CN0002001N9-00111-00171102951ADDAY141061GF104991001001999999031021KA1999N-00221MW1421
0051108650999991928012412004+48183+011550FM-12+015599999V0202501N00461220001CN0500001N9+00611-00171102701ADDAY111061GF104991021051017501001081MD1610061+9999
0081108650999991928012506004+48183+011550FM-12+015599999V0209999900931004501CN0040001N9+00391+00331103061ADDAA199001091AY161061GF108991081061004501999999KA1999N+00281MD1310341+9999MW1511
0037108650999991928012512004+48183+011550FM-12+015599999V0202701N00931036001CN0100001N9+00501-00111103371ADDAY121061GF108991041051012501021001
0064108650999991928012606004+48183+011550FM-12+015599999V0209999900261220001CN0010001N9-00281-00611103641ADDAY101061GF102991999001999999021001KA1999N-00391MD1810141+9999
0051108650999991928012612004+48183+011550FM-12+015599999V0200901N00461220001CN0500001N9+00721-00331102881ADDAY101061GF100991001001999999001001MD1810341+9999
0064108650999991928012706004+48183+011550FM-12+015599999V0209991C00001220001CN0020001N9-00611-00671102111ADDAY101061GF102991021051008001001001KA1999N-00721MD1810141+9999
0051108650999991928012712004+48183+011550FM-12+015599999V0202301N00101220001CN0040001N9+00721-00111101711ADDAY101061GF104991001001999999001081MD1610061+9999
0067108650999991928012806004+48183+011550FM-12+015599999V0209999900101002401CN0010001N9+00111+00061102631ADDAA199000691AY141061GF108991081051002501999999KA1999N-00111MW1211
0057108650999991928012812004+48183+011550FM-12+015599999V0202901N00101000151CN0002001N9+00111+00061102731ADDAY141061GF108991081051000251999999MD1810061+9999MW1471
0064108650999991928012906004+48183+011550FM-12+015599999V0209999900101004501CN0020001N9+00001-00061102001ADDAY121061GF108991081051004501999999KA1999N-00111MD1810141+9999
0051108650999991928012912004+48183+011550FM-12+015599999V0201101N00461007801CN0040001N9+00221+00001101631ADDAY111061GF106991061051008001001001MD1810201+9999
0070108650999991928013006004+48183+011550FM-12+015599999V0209999900461002401CN0010001N9-00281-00331101201ADDAY141061GF108991081051002501999999KA1999N-00281MD1610061+9999MW1101
0051108650999991928013012004+48183+011550FM-12+015599999V0200701N00261036001CN0020001N9+00001-00221101041ADDAY111061GF108991041051004501021001MD1710141+9999
0056108650999991928013106004+48183+011550FM-12+015599999V0209991C00001002401CN0005001N9-00111-00171101201ADDAY141061GF108991999051002501001001KA1999N-00221MW1421
0051108650999991928013112004+48183+011550FM-12+015599999V0202701N00261004501CN0020001N9+00391+00171101501ADDAY141061GF108991061051004501021001MD1310201+9999
0070108650999991928020106004+48183+011550FM-12+015599999V0209999900101220001CN0002001N9-00111-00171102001ADDAY141061GF102991021051004501001001KA1999N-00221MD1810061+9999MW1441
0051108650999991928020112004+48183+011550FM-12+015599999V0202701N00101036001CN0500001N9+00611+00221101531ADDAY111061GF107991021051017501031001MD1990141+9999
0067108650999991928020206004+48183+011550FM-12+015599999V0209999900671002401CN0020001N9+00391+00001101031ADDAA199003091AY161061GF108991999061002501001001KA1999N-00221MW1211
0057108650999991928020212004+48183+011550FM-12+015599999V0203201N00461004501CN0040001N9+00281+00061101791ADDAY161061GF108991081061004501999999MD1310141+9999MW1211
0081108650999991928020306004+48183+011550FM-12+015599999V0209999900101220001CN0010001N9-00281-00331101951ADDAA199000391AY101061GF102991021051004501001001KA1999N-00391MD1810141+9999MW1101
0051108650999991928020312004+48183+011550FM-12+015599999V0200901N00671220001CN0040001N9+00781+00391101431ADDAY111061GF104991041051004501001001MD1610061+9999
0064108650999991928020406004+48183+011550FM-12+015599999V02099999002619999999N0020001N9-00221-00281102821ADDAY111061GF106991999051008001001001KA1999N-00281MD1310201+9999
0051108650999991928020412004+48183+011550FM-12+015599999V0202701N00261007801CN0020001N9+00111-00221103181ADDAY111061GF107991071051008001001001MD1310201+9999
0050108650999991928020506004+48183+011550FM-12+015599999V0209999900101220001CN0040001N9-00281-00441103571ADDAY101061GF102991021051004501001001KA1999N-00391
0051108650999991928020512004+48183+011550FM-12+015599999V0209991C00001220001CN0040001N9+00221-00331103061ADDAY101061GF101991001001999999001081MD1810201+9999
0067108650999991928020606004+48183+011550FM-12+015599999V02099999006719999999N0100001N9+00111+00061102391ADDAA199002091AY171061GF108991999061002501001001KA1999N-00391MW1231
0057108650999991928020612004+48183+011550FM-12+015599999V0202901N00461002401CN0020001N9+00221+00171102731ADDAY161061GF108991081061002501999999MD1310061+9999MW1681
0075108650999991928020706004+48183+011550FM-12+015599999V0209999900461007801CN0020001N9-00221-00281103901ADDAA199001091AY111061GF106991061051008001001001KA1999N-00501MD1310141+9999
0037108650999991928020712004+48183+011550FM-12+015599999V0202501N00671220001CN0100001N9+00281-00281103911ADDAY111061GF104991021011017501031001
0050108650999991928020806004+48183+011550FM-12+015599999V0209999900671004501CN0100001N9+00001-00331104041ADDAY111061GF106991061051004501001001KA1999N-00111
0051108650999991928020812004+48183+011550FM-12+015599999V0202501N00931012301CN0500001N9+00391-00171103901ADDAY111061GF108991061051012501021001MD1810061+9999
0064108650999991928020906004+48183+011550FM-12+015599999V0209999900101220001CN0200001N9-00221-00281103391ADDAY101061GF100991001001999999001001KA1999N-00281MD1610061+9999
0051108650999991928020912004+48183+011550FM-12+015599999V0202501N00931220001CN0500001N9+01001+00111103061ADDAY101061GF104991001001999999021021MD1990061+9999
0064108650999991928021006004+48183+011550FM-12+015599999V0209999901231036001CN0500001N9+00501-00281102201ADDAY121061GF108991041051008001021001KA1999N+00391MD1810261+9999
0057108650999991928021012004+48183+011550FM-12+015599999V0202501N00931036001CN0500001N9+00501+00281101871ADDAY161061GF107991041061004501021001MD1810141+9999MW1211
0081108650999991928021106004+48183+011550FM-12+015599999V0209999900931004501CN0040001N9+00111-00111100571ADDAA199002091AY181061GF108991081051004501999999KA1999N-00111MD1210141+9999MW1231
0051108650999991928021112004+48183+011550FM-12+015599999V0202501N01901220001CN0200001N9+00501-00111100351ADDAY111061GF104991021051012501001081MD1810201+9999
0075108650999991928021206004+48183+011550FM-12+015599999V0209999902261036001CN0100001N9+00221-00171099721ADDAA199002091AY121061GF108991041061004501021001KA1999N+00111MD1210141+9999
0057108650999991928021212004+48183+011550FM-12+015599999V0202501N01541036001CN0020001N9+00111-00111100371ADDAY171061GF108991041061000751021001MD1310261+9999MW1711
0067108650999991928021306004+48183+011550FM-12+015599999V0209999900261001501CN0010001N9+00111+00061100801ADDAA199001091AY171061GF108991081061001501999999KA1999N-00221MW1711
0037108650999991928021312004+48183+011550FM-12+015599999V0202001N00261036001CN0040001N9+00221+00001100801ADDAY171061GF108991041051004501021001
0081108650999991928021406004+48183+011550FM-12+015599999V0209999900931004501CN0200001N9+00721+00501101001ADDAA199002091AY161061GF108991061051004501021001KA1999N+00221MD1310261+9999MW1211
0057108650999991928021412004+48183+011550FM-12+015599999V0202701N00671004501CN0020001N9+00781+00721101141ADDAY161061GF108991081061004501999999MD1810061+9999MW1511
0081108650999991928021506004+48183+011550FM-12+015599999V02099999015419999999N0040001N9+01001+00941101541ADDAA199010091AY161061GF108991999061004501001001KA1999N+00721MD1310341+9999MW1211
0057108650999991928021512004+48183+011550FM-12+015599999V0202501N00931002401CN0020001N9+01001+00941102191ADDAY161061GF108991081061002501999999MD1310141+9999MW1521
0061108650999991928021606004+48183+011550FM-12+015599999V0209999901231007801CN0500001N9+00781+00391102501ADDAA199002091AY111061GF107991061051008001021001KA1999N+00721
0051108650999991928021612004+48183+011550FM-12+015599999V0202701N01541090001CN0200001N9+01001+00391102391ADDAY111061GF106991041051012501001081MD1810141+9999
0081108650999991928021706004+48183+011550FM-12+015599999V0209999901231036001CN0040001N9+00501+00281101831ADDAA199000691AY161061GF108991041061004501031001KA1999N+00111MD1810061+9999MW1211
0051108650999991928021712004+48183+011550FM-12+015599999V0202501N022619999999N0500001N9+01001+00111101461ADDAY111061GF106991999091008001001001MD1610201+9999
0061108650999991928021806004+48183+011550FM-12+015599999V0202501N01541036001CN0100001N9+00001-00221102691ADDAA199003091AY101061GF108991041051004501021001KA1999N-00111
0057108650999991928021812004+48183+011550FM-12+015599999V0202701N00931001501CN0010001N9+00111+00061102951ADDAY171061GF108991081061001501999999MD1310141+9999MW1711
0061108650999991928021906004+48183+011550FM-12+015599999V0209999900261004501CN0040001N9+00111-00111103011ADDAA199002091AY121061GF108991061051004501021001KA1999N-00111
0037108650999991928021912004+48183+011550FM-12+015599999V0202501N00461007801CN0100001N9+00391+00001102931ADDAY111061GF108991081051008001999999
0064108650999991928022006004+48183+011550FM-12+015599999V0209999900461004501CN0020001N9+00221+00001103241ADDAY121061GF108991071051004501021001KA1999N+00111MD1310061+9999
0064108650999991928022106004+48183+011550FM-12+015599999V0209999900101220001CN0040001N9-00221-00281103811ADDAY101061GF100991001001999999001001KA1999N-00221MD1110061+9999
0051108650999991928022112004+48183+011550FM-12+015599999V0200901N00671220001CN0100001N9+00611-00171103431ADDAY111061GF104991001001999999001081MD1810201+9999
0037108650999991928022212004+48183+011550FM-12+015599999V0202701N00261220001CN0100001N9+00391-00391103181ADDAY101061GF102991001001999999001021
0050108650999991928022306004+48183+011550FM-12+015599999V0209991C00001220001CN0020001N9-00721-00781103801ADDAY101061GF101991999001017501021001KA1999N-00781
0051108650999991928022312004+48183+011550FM-12+015599999V0200901N00261220001CN0040001N9+00501-00281103151ADDAY101061GF100991001001999999001001MD1810061+9999
0050108650999991928022406004+48183+011550FM-12+015599999V0209999900101220001CN0020001N9-00611-00671103111ADDAY111061GF104991001001999999021021KA1999N-00611
0037108650999991928022412004+48183+011550FM-12+015599999V0200501N00461220001CN0100001N9+00391-00391102931ADDAY101061GF100991001001999999001001
0064108650999991928022506004+48183+011550FM-12+015599999V0209999900461220001CN0040001N9-00611-00781103671ADDAY101061GF100991001001999999001001KA1999N-00721MD1110061+9999
0051108650999991928022512004+48183+011550FM-12+015599999V0200901N00931220001CN0100001N9+00501-00501103411ADDAY101061GF100991001001999999001001MD1810061+9999
0050108650999991928022606004+48183+011550FM-12+015599999V0209999901541220001CN0020001N9-00611-00781103751ADDAY101061GF100991001001999999001001KA1999N-00721
0070108650999991928022612004+48183+011550FM-12+015599999V0200901N00101220001CN0040001N9+01112+00001103191ADDAY101061GF100991001001999999001001MD1810061+9999EQDQ01+028433ATOT  
0070108650999991928022706004+48183+011550FM-12+015599999V0209999900101220001CN0010001N9-00611-00671103351ADDAY141061GF100991001001999999001001KA1999N-00721MD1810141+9999MW1101
0070108650999991928022712004+48183+011550FM-12+015599999V0200901N00461220001CN0100001N9+01112+00001102731ADDAY101061GF101991001001999999001081MD1810061+9999EQDQ01+028433ATOT  
0051108650999991928022812004+48183+011550FM-12+015599999V0200901N00461220001CN0100001N9+00721-00111102261ADDAY101061GF100991001001999999001001MD1810061+9999
0050108650999991928022906004+48183+011550FM-12+015599999V0209991C00001220001CN0010001N9-00611-00671102391ADDAY141061GF104991001001999999001081KA1999N-00721
0037108650999991928022912004+48183+011550FM-12+015599999V0200901N00461220001CN0040001N9+00611-00171101991ADDAY111061GF104991001001999999001021
0050108650999991928030106004+48183+011550FM-12+015599999V0209999900101220001CN0020001N9-00611-00671102661ADDAY141061GF106991001001999999031081KA1999N-00721
0051108650999991928030112004+48183+011550FM-12+015599999V0200701N00461220001CN0100001N9+00721+00111102341ADDAY101061GF100991001001999999001001MD1310061+9999
0050108650999991928030206004+48183+011550FM-12+015599999V0209991C00001220001CN0020001N9-00721-00781102591ADDAY101061GF100991001001999999001001KA1999N-00721
0037108650999991928030212004+48183+011550FM-12+015599999V0200901N00261220001CN0100001N9+00891-00221102151ADDAY101061GF100991001001999999001001
0037108650999991928030312004+48183+011550FM-12+015599999V0200701N00101220001CN0040001N9+01111+00001102041ADDAY111061GF104991999001999999031001
0050108650999991928030406004+48183+011550FM-12+015599999V0209999900261220001CN0040001N9-00221-00281102381ADDAY101061GF104991999001999999031001KA1999N-00281
0037108650999991928030412004+48183+011550FM-12+015599999V0200901N00671220001CN0100001N9+01281+00111101931ADDAY101061GF100991001001999999001001
0056108650999991928030506004+48183+011550FM-12+015599999V0209999900461000151CN0000501N9-00281-00331102401ADDAY141061GF108991081051000251999999KA1999N-00391MW1451
0043108650999991928030512004+48183+011550FM-12+015599999V0200901N00261002401CN0020001N9+00221+00001102291ADDAY141061GF108991081051002501999999MW1431
0050108650999991928030606004+48183+011550FM-12+015599999V0209999900101012301CN0020001N9-00391-00441102121ADDAY111061GF106991061051012501001001KA1999N-00501
0051108650999991928030612004+48183+011550FM-12+015599999V0203601N00101220001CN0040001N9+00781+00171101751ADDAY101061GF102991001001999999001091MD1810061+9999
0050108650999991928030706004+48183+011550FM-12+015599999V0209999900261220001CN0500001N9-00111-00831101791ADDAY141061GF102991001001999999001091KA1999N-00281
0051108650999991928030712004+48183+011550FM-12+015599999V0202701N00261220001CN0100001N9+01281+00111101261ADDAY101061GF102991011011012501021001MD1810141+9999
0061108650999991928030806004+48183+011550FM-12+015599999V0209999900461004501CN0020001N9+00281+00221101331ADDAA199001091AY121061GF108991081051004501999999KA1999N+00221
0057108650999991928030812004+48183+011550FM-12+015599999V0203601N00671004501CN0040001N9+00391+00171101241ADDAY161061GF108991081061004501999999MD1810141+9999MW1501
0067108650999991928030906004+48183+011550FM-12+015599999V0209991C00001000601CN0005001N9+00111+00061101391ADDAA199002091AY141061GF108991081051000751999999KA1999N+00001MW1451
0037108650999991928030912004+48183+011550FM-12+015599999V0200701N001019999999N0020001N9+00391+00001101221ADDAY111061GF108991999011008001001001
0081108650999991928031006004+48183+011550FM-12+015599999V0209999900461001501CN0005001N9-00221-00281100901ADDAA199002091AY171061GF108991081061001501999999KA1999N-00221MD1810061+9999MW1731
0051108650999991928031012004+48183+011550FM-12+015599999V0200901N00671002401CN0020001N9+00001-00221100751ADDAY121061GF108991081061002501999999MD1710061+9999
0081108650999991928031106004+48183+011550FM-12+015599999V0209999900261002401CN0020001N9-00221-00281101181ADDAA199004091AY171061GF108991081061002501999999KA1999N-00221MD1310061+9999MW1731
0043108650999991928031112004+48183+011550FM-12+015599999V0203601N00101002401CN0010001N9-00111-00281101271ADDAY171061GF108991081061002501999999MW1731
0075108650999991928031206004+48183+011550FM-12+015599999V0209991C00001001501CN0020001N9-00501-00561101771ADDAA199002091AY121061GF108991081051001501999999KA1999N-00611MD1310061+9999
0037108650999991928031212004+48183+011550FM-12+015599999V0200701N002619999999N0020001N9+00001-00331101681ADDAY121061GF106991999051004501001001
0050108650999991928031306004+48183+011550FM-12+015599999V0209999900101002401CN0020001N9-00111-00171101391ADDAY121061GF108991081051002501999999KA1999N-00221
0051108650999991928031312004+48183+011550FM-12+015599999V0209991C00001001501CN0010001N9+00221-00171101311ADDAY121061GF108991081051001501999999MD1310061+9999
0064108650999991928031406004+48183+011550FM-12+015599999V0209999900261002401CN0020001N9-00111-00281102001ADDAY121061GF108991081051002501999999KA1999N-00111MD1310061+9999
0037108650999991928031412004+48183+011550FM-12+015599999V0202701N00261002401CN0020001N9+00111-00111102311ADDAY121061GF108991081051002501999999
0064108650999991928031506004+48183+011550FM-12+015599999V0209999900461004501CN0020001N9-00111-00281102391ADDAY121061GF108991081051004501999999KA1999N-00221MD1310141+9999
0051108650999991928031512004+48183+011550FM-12+015599999V0200601N00671004501CN0040001N9-00111-00281102381ADDAY121061GF108991081051004501999999MD1310141+9999
0064108650999991928031606004+48183+011550FM-12+015599999V0209999900671220001CN0100001N9-00721-01061103391ADDAY101061GF100991001001999999001001KA1999N-00891MD1310201+9999
0051108650999991928031612004+48183+011550FM-12+015599999V0200501N00671220001CN0100001N9+00111-00611103311ADDAY101061GF100991001001999999001001MD1310061+9999
0050108650999991928031706004+48183+011550FM-12+015599999V0209999900261220001CN0040001N9-00611-00781103591ADDAY101061GF100991001001999999001001KA1999N-00891
0037108650999991928031712004+48183+011550FM-12+015599999V0200501N00671220001CN0100001N9+00501-00501103151ADDAY101061GF100991001001999999001001
0064108650999991928031806004+48183+011550FM-12+015599999V0209999900261220001CN0040001N9-00501-00671103091ADDAY101061GF100991001001999999001001KA1999N-00721MD1610061+9999
0051108650999991928031812004+48183+011550FM-12+015599999V0200701N00671220001CN0200001N9+00781-00281102571ADDAY101061GF100991001001999999001001MD1810141+9999
0050108650999991928031906004+48183+011550FM-12+015599999V0209999900101220001CN0040001N9-00501-00561102771ADDAY101061GF100991001001999999001001KA1999N-00721
0051108650999991928031912004+48183+011550FM-12+015599999V0200501N00461220001CN0100001N9+00721-00111102231ADDAY101061GF100991001001999999001001MD1990061+9999
0050108650999991928032006004+48183+011550FM-12+015599999V0209999900461220001CN0040001N9-00501-00671102301ADDAY101061GF100991001001999999001001KA1999N-00721
0051108650999991928032012004+48183+011550FM-12+015599999V0200501N00931220001CN0200001N9+00611-00441101801ADDAY101061GF100991001001999999001001MD1810061+9999
0064108650999991928032106004+48183+011550FM-12+015599999V0209999900261220001CN0020001N9-00501-00671101191ADDAY141061GF100991001001999999001001KA1999N-00781MD1810061+9999
0037108650999991928032112004+48183+011550FM-12+015599999V0201601N00461036001CN0040001N9+01111-00331100601ADDAY121061GF108991041051012501021001
0064108650999991928032206004+48183+011550FM-12+015599999V02099999002619999999N0500001N9+00391-00171101131ADDAY111061GF107991999001022501021021KA1999N+00111MD1310341+9999
0051108650999991928032212004+48183+011550FM-12+015599999V0200901N006719999999N0500001N9+01281+00391100861ADDAY111061GF107991999999022501999999MD1810061+9999
0064108650999991928032306004+48183+011550FM-12+015599999V0209999900101220001CN0500001N9+00001-00061100921ADDAY141061GF102991021051008001001081KA1999N-00221MD1310141+9999
0070108650999991928032312004+48183+011550FM-12+015599999V0200901N00101220001CN0200001N9+01722+00171100431ADDAY111061GF104991021011017501001021MD1810061+9999EQDQ01+029043ATOT  
0064108650999991928032406004+48183+011550FM-12+015599999V0209999900461090001CN0020001N9+00501+00281100861ADDAY111061GF106991041061012501001081KA1999N+00001MD1310201+9999
0051108650999991928032412004+48183+011550FM-12+015599999V0203601N00461036001CN0100001N9+01111+00501100521ADDAY121061GF108991041051012501021001MD1810141+9999
0070108650999991928032506004+48183+011550FM-12+015599999V0209999900261220001CN0002001N9-00111-00171099471ADDAY141061GF106991001001999999031021KA1999N-00111MD1810061+9999MW1441
0056108650999991928032512004+48183+011550FM-12+015599999V0201401N00461220001CN0500001N9+01722+00171099771ADDAY111061GF107991001001999999021081EQDQ01+029043ATOT  
0064108650999991928032606004+48183+011550FM-12+015599999V0209999900101220001CN0040001N9+00611+00561100101ADDAY111061GF106991001001999999021021KA1999N+00221MD1310141+9999
0051108650999991928032612004+48183+011550FM-12+015599999V0202501N00261036001CN0100001N9+01281+00391100161ADDAY111061GF107991021051022501021001MD1310141+9999
0056108650999991928032706004+48183+011550FM-12+015599999V0209999900461001501CN0020001N9+00781+00721100991ADDAY121061GF108991081051001501999999KA1999N+00501MW1601
0051108650999991928032712004+48183+011550FM-12+015599999V0202701N00461004501CN0020001N9+00781+00561101071ADDAY121061GF108991081051004501999999MD1010001+9999
0081108650999991928032806004+48183+011550FM-12+015599999V0209999901231000601CN0010001N9+00611+00561100331ADDAA199001091AY161061GF108991081051000751999999KA1999N+00501MD1810201+9999MW1511
0057108650999991928032812004+48183+011550FM-12+015599999V0202901N004619999999N0020001N9+00781+00391999999ADDAY161061GF108991999061004501001001MD1810141+9999MW1211
0075108650999991928032906004+48183+011550FM-12+015599999V0209999900461036001CN0040001N9+00281+00061100471ADDAA199006091AY111061GF107991021051017501031001KA1999N+00221MD1310061+9999
0051108650999991928032912004+48183+011550FM-12+015599999V0202501N006719999999N0040001N9+00721+00111100561ADDAY111061GF107991999061008001001001MD1310061+9999
0075108650999991928033006004+48183+011550FM-12+015599999V0209999900101220001CN0500001N9+00501+00281100391ADDAA199002091AY111061GF104991021051012501031001KA1999N+00001MD1810061+9999
0051108650999991928033012004+48183+011550FM-12+015599999V0201401N00261220001CN0500001N9+01611+00441099951ADDAY101061GF104991021051999999031001MD1810201+9999
0064108650999991928033106004+48183+011550FM-12+015599999V0209999900461220001CN0040001N9+01111+00221099511ADDAY111061GF106991999001999999021001KA1999N+00611MD1810141+9999
0051108650999991928033112004+48183+011550FM-12+015599999V0201801N00931012301CN0500001N9+02001+00391099101ADDAY111061GF107991071051012501001001MD1810061+9999
0064108650999991928040106004+48183+011550FM-12+015599999V0209999900461004501CN0040001N9+00501+00441099511ADDAY121061GF108991081051004501999999KA1999N+00391MD1410001+9999
0051108650999991928040112004+48183+011550FM-12+015599999V0202701N00931004501CN0100001N9+00891+00441099681ADDAY121061GF108991081051004501999999MD1310141+9999
0056108650999991928040206004+48183+011550FM-12+015599999V0209999900101000601CN0005001N9+00501+00441100151ADDAY141061GF108991081051000751999999KA1999N+00391MW1451
0051108650999991928040212004+48183+011550FM-12+015599999V0202701N002619999999N0100001N9+00721+00501100261ADDAY121061GF108991999051002501001001MD1310061+9999
0081108650999991928040306004+48183+011550FM-12+015599999V0209999900671002401CN0040001N9+00391+00331101361ADDAA199002091AY161061GF108991081061002501999999KA1999N+00391MD1110141+9999MW1231
0051108650999991928040312004+48183+011550FM-12+015599999V0202701N00671002401CN0040001N9+00611+00391101531ADDAY121061GF108991081051002501999999MD1310061+9999
0064108650999991928040406004+48183+011550FM-12+015599999V0209991C00001012301CN0040001N9+00611+00391101411ADDAY121061GF108991061051012501021001KA1999N+00501MD1510001+9999
0051108650999991928040412004+48183+011550FM-12+015599999V0201801N00261036001CN0200001N9+01501+00611100831ADDAY111061GF106991041051017501031001MD1990141+9999
0075108650999991928040506004+48183+011550FM-12+015599999V0209999900671036001CN0200001N9+00611+00221101501ADDAA199001091AY111061GF107991041051008001021001KA1999N+00611MD1310401+9999
0037108650999991928040512004+48183+011550FM-12+015599999V0202701N00461090001CN0500001N9+01111+00221101441ADDAY111061GF106991041011012501001091
0067108650999991928040606004+48183+011550FM-12+015599999V0209999901541004501CN0040001N9+00611+00391101321ADDAA199000691AY121061GF108991999061004501001001KA1999N+00391MW1631
0043108650999991928040612004+48183+011550FM-12+015599999V0202701N00461220001CN0200001N9+00891+00441101321ADDAY111061GF104991041051008001001001MW1211
0050108650999991928040706004+48183+011550FM-12+015599999V0209999900461220001CN0100001N9+00221+00001101941ADDAY101061GF100991001001999999001001KA1999N-00221
0051108650999991928040712004+48183+011550FM-12+015599999V0200901N01541220001CN0200001N9+01221+00061101371ADDAY101061GF101991001001999999001081MD1810141+9999
0050108650999991928040806004+48183+011550FM-12+015599999V0209999900671220001CN0100001N9+00221+00171101091ADDAY111061GF106991001001999999021021KA1999N-00111
0051108650999991928040812004+48183+011550FM-12+015599999V0200901N00931090001CN0500001N9+01611+00441101011ADDAY111061GF106991011011022501001081MD1710141+9999
0064108650999991928040906004+48183+011550FM-12+015599999V0209991C00001220001CN0200001N9+00611+00561101671ADDAY101061GF102991001001999999031021KA1999N+00111MD1310141+9999
0051108650999991928040912004+48183+011550FM-12+015599999V0200901N00461220001CN0200001N9+01891+00941101231ADDAY101061GF102991011011022501001081MD1810061+9999
0050108650999991928041006004+48183+011550FM-12+015599999V0209991C00001220001CN0010001N9+00781+00391101221ADDAY141061GF102991001001999999021081KA1999N+00221
0051108650999991928041012004+48183+011550FM-12+015599999V0201101N00671220001CN0500001N9+02391+00781100591ADDAY101061GF106991001001999999001021MD1810201+9999
0064108650999991928041106004+48183+011550FM-12+015599999V0209999900101220001CN0040001N9+01221+01001100571ADDAY101061GF104991999001999999031001KA1999N+00781MD1110201+9999
0057108650999991928041112004+48183+011550FM-12+015599999V0203601N009319999999N0200001N9+00891+00831100701ADDAY181061GF106991999061008001001001MD1010001+9999MW1611
0050108650999991928041206004+48183+011550FM-12+015599999V02099999004619999999N0100001N9+00721+00501100691ADDAY111061GF108991999001022501021001KA1999N+00501
0051108650999991928041212004+48183+011550FM-12+015599999V0202701N009319999999N0100001N9+01111+00501100471ADDAY111061GF107991999061012501001001MD1810141+9999
0075108650999991928041306004+48183+011550FM-12+015599999V02099999012319999999N0100001N9+00721+00671100881ADDAA199000391AY121061GF108991999061012501001001KA1999N+00501MD1310141+9999
0043108650999991928041312004+48183+011550FM-12+015599999V0202901N01231004501CN0040001N9+00721+00671101111ADDAY161061GF108991061061004501021001MW1621
0075108650999991928041406004+48183+011550FM-12+015599999V0209999900101220001CN0020001N9+00721+00671101181ADDAA199002091AY141061GF101991001001999999001081KA1999N+00221MD1810061+9999
0051108650999991928041412004+48183+011550FM-12+015599999V0200701N00101036001CN0100001N9+01721+00831100601ADDAY111061GF107991011011017501021001MD1810141+9999
0081108650999991928041506004+48183+011550FM-12+015599999V0209999901231012301CN0500001N9+00781+00391100781ADDAA199000691AY181061GF108991081061012501999999KA1999N+00611MD1310201+9999MW1801
0037108650999991928041512004+48183+011550FM-12+015599999V0202701N01541220001CN0500001N9+01611+00061100521ADDAY101061GF104991011011012501001081
0050108650999991928041606004+48183+011550FM-12+015599999V0209999901901036001CN0500001N9+00781+00561099811ADDAY111061GF108991021051008001021001KA1999N+00611
0043108650999991928041612004+48183+011550FM-12+015599999V0202701N01231004501CN0100001N9+00611+00561100211ADDAY161061GF108991081061004501999999MW1611
0075108650999991928041706004+48183+011550FM-12+015599999V0209999901901036001CN0200001N9+00501+00111100481ADDAA199000691AY111061GF106991041051012501021001KA1999N+00391MD1310261+9999
0051108650999991928041712004+48183+011550FM-12+015599999V0202701N019019999999N0200001N9+00501+00111100801ADDAY121061GF108991999061008001001001MD1310141+9999
0081108650999991928041806004+48183+011550FM-12+015599999V02099999019019999999N0020001N9+00111+00061101711ADDAA199001091AY171061GF106991999061008001001001KA1999N-00111MD1310061+9999MW1231
0057108650999991928041812004+48183+011550FM-12+015599999V0202901N00931036001CN0200001N9+00501-00111101501ADDAY171061GF106991041011012501021001MD1710141+9999MW1231
0064108650999991928041906004+48183+011550FM-12+015599999V0209999900461036001CN0040001N9+00391+00171101011ADDAY111061GF106991041051012501031001KA1999N-00111MD1710061+9999
0037108650999991928041912004+48183+011550FM-12+015599999V0202301N00461036001CN0040001N9+00611+00221100841ADDAY111061GF107991041051008001021001
0075108650999991928042006004+48183+011550FM-12+015599999V0209999900671220001CN0100001N9+00281+00061101351ADDAA199000691AY101061GF102991011051012501031001KA1999N-00111MD1310061+9999
0037108650999991928042012004+48183+011550FM-12+015599999V0202701N01231220001CN0200001N9+00611+00001101351ADDAY111061GF104991999011008001001001
0050108650999991928042106004+48183+011550FM-12+015599999V0209999900461220001CN0200001N9+00221+00001101281ADDAY101061GF104991001001999999031021KA1999N-00281
0051108650999991928042112004+48183+011550FM-12+015599999V0202701N00931036001CN0100001N9+00891+00061101171ADDAY121061GF108991021051008001021001MD1310061+9999
0050108650999991928042206004+48183+011550FM-12+015599999V0209999900261036001CN0040001N9+00391+00331101361ADDAY111061GF106991041051008001021001KA1999N-00111
0051108650999991928042212004+48183+011550FM-12+015599999V0200901N00671036001CN0200001N9+01281+00391100971ADDAY111061GF106991041051008001021001MD1810061+9999
0081108650999991928042306004+48183+011550FM-12+015599999V0209999900671002401CN0020001N9+00221+00171102391ADDAA199012091AY171061GF108991081061002501999999KA1999N+00001MD1310261+9999MW1231
0051108650999991928042312004+48183+011550FM-12+015599999V0202901N00461036001CN0100001N9+00501-00111102631ADDAY121061GF108991021061012501021001MD1310061+9999
0050108650999991928042406004+48183+011550FM-12+015599999V0209999900261220001CN0040001N9+00281+00221103101ADDAY141061GF101991001001999999001021KA1999N-00111
0051108650999991928042412004+48183+011550FM-12+015599999V0200901N00931220001CN0200001N9+01221+00611102601ADDAY111061GF104991999011012501001001MD1990141+9999
0050108650999991928042506004+48183+011550FM-12+015599999V0209999900461220001CN0100001N9+00721+00501102341ADDAY101061GF100991001001999999001001KA1999N+00221
0051108650999991928042512004+48183+011550FM-12+015599999V0200901N00931220001CN0200001N9+01781+00561101911ADDAY101061GF101991011051017501001001MD1810141+9999
0064108650999991928042606004+48183+011550FM-12+015599999V0209999900461220001CN0040001N9+00721+00501101641ADDAY101061GF100991001001999999001001KA1999N+00221MD1810061+9999
0051108650999991928042612004+48183+011550FM-12+015599999V0200901N00671220001CN0200001N9+01721+00501101231ADDAY101061GF104991041011017501001001MD1810141+9999
0064108650999991928042706004+48183+011550FM-12+015599999V0209999900671220001CN0040001N9+00721+00671101141ADDAY101061GF102991021011017501001021KA1999N+00111MD1610061+9999
0051108650999991928042712004+48183+011550FM-12+015599999V0200901N01231220001CN0100001N9+01721+00831100601ADDAY111061GF106991001001999999001081MD1710141+9999
0064108650999991928042806004+48183+011550FM-12+015599999V0209991C00001220001CN0020001N9+00781+00721101351ADDAY141061GF104991001001999999031021KA1999N+00281MD1110061+9999
0051108650999991928042812004+48183+011550FM-12+015599999V0200901N00671220001CN0100001N9+02221+01281100831ADDAY111061GF104991021051017501021001MD1810141+9999
0064108650999991928042906004+48183+011550FM-12+015599999V0209999900671220001CN0500001N9+01781+00891099971ADDAY111061GF106991999001999999031001KA1999N+01221MD1710261+9999
0051108650999991928042912004+48183+011550FM-12+015599999V0201101N01231220001CN0200001N9+02611+00941099581ADDAY111061GF106991001001999999001081MD1990141+9999
0050108650999991928043006004+48183+011550FM-12+015599999V0209991C00001220001CN0100001N9+01001+00781100791ADDAY101061GF101991001001999999001081KA1999N+00281
0051108650999991928043012004+48183+011550FM-12+015599999V0200901N00261220001CN0500001N9+02001+01061100471ADDAY101061GF104991021011999999001081MD1810061+9999
0081108650999991928050106004+48183+011550FM-12+015599999V0209999900931004501CN0040001N9+01001+00941100931ADDAA199005091AY161061GF108991061061004501021001KA1999N+00891MD1310141+9999MW1631
0037108650999991928050112004+48183+011550FM-12+015599999V0202701N00931004501CN0040001N9+01111+01061101031ADDAY121061GF108991999061004501001001
0050108650999991928050206004+48183+011550FM-12+015599999V0209999900261001501CN0020001N9+01001+00941100971ADDAY141061GF108991081051001501999999KA1999N+00611
0037108650999991928050212004+48183+011550FM-12+015599999V0200901N00671007801CN0100001N9+01891+01441100711ADDAY111061GF106991061051008001001001
0064108650999991928050306004+48183+011550FM-12+015599999V0209999900461220001CN0040001N9+01221+01171100531ADDAY101061GF102991021051017501001001KA1999N+00781MD1610061+9999
0051108650999991928050312004+48183+011550FM-12+015599999V0200901N01231220001CN0200001N9+02391+01441100191ADDAY101061GF102991021011017501001001MD1810061+9999
0050108650999991928050406004+48183+011550FM-12+015599999V0209999900461220001CN0200001N9+00781+00561100611ADDAY101061GF104991001001999999031081KA1999N+00501
0037108650999991928050412004+48183+011550FM-12+015599999V0200901N00931015001CN0100001N9+01611+00941101371ADDAY111061GF106991061051017501021001
0050108650999991928050506004+48183+011550FM-12+015599999V0209999900671220001CN0200001N9+00721+00331101031ADDAY101061GF101991001001999999001021KA1999N+00111
0037108650999991928050512004+48183+011550FM-12+015599999V0200901N00671012301CN0200001N9+01501+00831100871ADDAY111061GF107991071051012501001001
0050108650999991928050606004+48183+011550FM-12+015599999V0209999900261220001CN0200001N9+00721+00331100901ADDAY101061GF100991001001999999001001KA1999N-00111
0051108650999991928050612004+48183+011550FM-12+015599999V0200901N00461220001CN0500001N9+01721+00501100501ADDAY101061GF101991011011017501001001MD1810061+9999
0051108650999991928050712004+48183+011550FM-12+015599999V0200501N00261220001CN0200001N9+01781+00561100111ADDAY101061GF101991011011999999001001MD1810141+9999
0051108650999991928050812004+48183+011550FM-12+015599999V0203401N00461007801CN0100001N9+01611+00441099721ADDAY111061GF108991061051008001031001MD1810061+9999
0081108650999991928050906004+48183+011550FM-12+015599999V0209999900671220001CN0040001N9+00111+00061100781ADDAA199004091AY171061GF104991999061004501001001KA1999N+00001MD1310141+9999MW1231
0057108650999991928050912004+48183+011550FM-12+015599999V0202901N01541220001CN0100001N9+00391-00391100911ADDAY161061GF104991021091004501001021MD1210201+9999MW1231
0081108650999991928051006004+48183+011550FM-12+015599999V0209999900461004501CN0040001N9+00111-00221101531ADDAA199002091AY181061GF108991999061004501001001KA1999N+00001MD1310141+9999MW1831
0043108650999991928051012004+48183+011550FM-12+015599999V0203201N012319999999N0100001N9+00391-00171101581ADDAY181061GF106991999061008001001001MW1831
0050108650999991928051106004+48183+011550FM-12+015599999V0209999900101220001CN0100001N9+00281+00061101861ADDAY101061GF101991011011022501001001KA1999N-00281
0037108650999991928051112004+48183+011550FM-12+015599999V0203601N001019999999N0100001N9+00781-00061101721ADDAY111061GF106991999061008001001001
0064108650999991928051206004+48183+011550FM-12+015599999V0209999900461220001CN0040001N9+00391+00171102041ADDAY101061GF101991999001999999021001KA1999N-00221MD1310061+9999
0051108650999991928051212004+48183+011550FM-12+015599999V0202701N00931220001CN0200001N9+01221+00061101761ADDAY111061GF104991999011012501001001MD1990141+9999
0067108650999991928051306004+48183+011550FM-12+015599999V0209999900671004501CN0040001N9+00611+00561101891ADDAA199005091AY161061GF108991081061004501999999KA1999N+00111MW1211
0057108650999991928051312004+48183+011550FM-12+015599999V0200201N00101004501CN0010001N9+00611+00561101901ADDAY161061GF108991081061004501999999MD1410001+9999MW1631
0061108650999991928051406004+48183+011550FM-12+015599999V0209991C00001036001CN0010001N9+00721+00671101711ADDAA199000391AY111061GF106991021051022501031001KA1999N+00281
0051108650999991928051412004+48183+011550FM-12+015599999V0200701N00261220001CN0100001N9+01501+00831101311ADDAY111061GF104991041011017501001001MD1810061+9999
0064108650999991928051506004+48183+011550FM-12+015599999V0209999900101036001CN0040001N9+00891+00671100901ADDAY111061GF106991041051017501031001KA1999N+00391MD1810141+9999
0037108650999991928051512004+48183+011550FM-12+015599999V0202901N00671036001CN0100001N9+01501+00831100611ADDAY111061GF107991041051008001021001
0075108650999991928051606004+48183+011550FM-12+015599999V0209999900461036001CN0040001N9+00721+00671100391ADDAA199002091AY161061GF108991041061008001021001KA1999N+00501MD1810141+9999
0043108650999991928051612004+48183+011550FM-12+015599999V0202501N00671004501CN0040001N9+00891+00831100231ADDAY161061GF108991061061004501021001MW1611
0057108650999991928051712004+48183+011550FM-12+015599999V0202301N00931036001CN0040001N9+00611+00391100641ADDAY161061GF108991041061004501021001MD1310201+9999MW1601
0050108650999991928051806004+48183+011550FM-12+015599999V0209999900461220001CN0100001N9+00781-00061100741ADDAY101061GF100991001001999999001001KA1999N+00111
0051108650999991928051812004+48183+011550FM-12+015599999V0201601N00671220001CN0500001N9+01611+00441100471ADDAY101061GF102991011011022501001021MD1990061+9999
0064108650999991928051906004+48183+011550FM-12+015599999V0209999900461012301CN0020001N9+00891+00441101091ADDAY121061GF108991081051012501999999KA1999N+00281MD1110061+9999
0037108650999991928051912004+48183+011550FM-12+015599999V0202701N00261220001CN0200001N9+01501+00331100971ADDAY111061GF104991999091012501001001
0081108650999991928052006004+48183+011550FM-12+015599999V02099999002619999999N0040001N9+00781+00721101141ADDAA199004091AY161061GF108991999061004501001001KA1999N+00721MD1410001+9999MW1211
0037108650999991928052012004+48183+011550FM-12+015599999V0203601N004619999999N0100001N9+01221+00781101011ADDAY121061GF108991999061012501001001
0067108650999991928052106004+48183+011550FM-12+015599999V0209999900671036001CN0100001N9+00781+00561101311ADDAA199009091AY161061GF108991041061008001021001KA1999N+00611MW1211
0037108650999991928052112004+48183+011550FM-12+015599999V0202501N00101090001CN0500001N9+01391+00501101191ADDAY111061GF106991041011012501001091
0061108650999991928052206004+48183+011550FM-12+015599999V0209991C00001012301CN0500001N9+00891+00281101461ADDAA199000691AY111061GF107991061051012501021001KA1999N+00501
0051108650999991928052212004+48183+011550FM-12+015599999V0200901N004619999999N0500001N9+01501+00611101271ADDAY111061GF106991999091012501001001MD1810061+9999
0061108650999991928052306004+48183+011550FM-12+015599999V0209999900461036001CN0200001N9+00781+00721101301ADDAA199000591AY121061GF106991041061012501021001KA1999N+00611
0037108650999991928052312004+48183+011550FM-12+015599999V0203601N00101007801CN0500001N9+01221+00331101221ADDAY111061GF107991061061008001021001
0075108650999991928052406004+48183+011550FM-12+015599999V0209999900671220001CN0100001N9+00781+00391101841ADDAA199011091AY111061GF104991011051012501021001KA1999N+00391MD1310061+9999
0037108650999991928052412004+48183+011550FM-12+015599999V0202701N012319999999N0200001N9+01221+99999101721ADDAY111061GF106991999999012501999999
0075108650999991928052506004+48183+011550FM-12+015599999V0209999900671036001CN0100001N9+00781+00561102031ADDAA199000691AY111061GF107991041051012501021001KA1999N+00501MD1410001+9999
0043108650999991928052512004+48183+011550FM-12+015599999V0202901N00931004501CN0040001N9+00781+00561102111ADDAY161061GF108991061061004501021001MW1811
0081108650999991928052606004+48183+011550FM-12+015599999V0209999900931002401CN0010001N9+00721+00671102301ADDAA199009091AY161061GF108991081051002501999999KA1999N+00611MD1310061+9999MW1211
0050108650999991928052706004+48183+011550FM-12+015599999V0209999900261220001CN0040001N9+00781+00561102271ADDAY111061GF106991999001999999021001KA1999N+00221
0051108650999991928052712004+48183+011550FM-12+015599999V0203201N00101220001CN0100001N9+01611+00721101971ADDAY101061GF104991021011017501001091MD1810061+9999
0064108650999991928052806004+48183+011550FM-12+015599999V0209991C00001220001CN0100001N9+01111+00671101831ADDAY101061GF104991001001999999001081KA1999N+00221MD1310061+9999
0051108650999991928052812004+48183+011550FM-12+015599999V0202901N00461220001CN0500001N9+02001+00781101531ADDAY101061GF101991001001999999001081MD1810061+9999
0050108650999991928052906004+48183+011550FM-12+015599999V0209999900261220001CN0100001N9+01501+00611101891ADDAY101061GF100991001001999999001001KA1999N+00781
0037108650999991928052912004+48183+011550FM-12+015599999V0200901N00461220001CN0200001N9+02111+00501101731ADDAY101061GF101991001001999999001081
0050108650999991928053006004+48183+011550FM-12+015599999V0209999900101036001CN0100001N9+01391+00721101761ADDAY111061GF106991021051017501031001KA1999N+00781
0037108650999991928053012004+48183+011550FM-12+015599999V0200901N00261220001CN0500001N9+02221+01001101581ADDAY101061GF102991001001999999031091
0064108650999991928053106004+48183+011550FM-12+015599999V0209991C00001220001CN0200001N9+01611+00941101321ADDAY101061GF102991001001999999001021KA1999N+00721MD1610061+9999
0051108650999991928053112004+48183+011550FM-12+015599999V0203201N00261220001CN0200001N9+02221+01001101011ADDAY111061GF104991041011022501031001MD1810061+9999
0075108650999991928060106004+48183+011550FM-12+015599999V0209999900101012301CN0040001N9+01221+01001101361ADDAA199000591AY111061GF107991061051012501031001KA1999N+01001MD1310141+9999
0037108650999991928060112004+48183+011550FM-12+015599999V0200901N00671220001CN0100001N9+01781+00891101261ADDAY111061GF104991041011012501001001
0064108650999991928060206004+48183+011550FM-12+015599999V0209999900671012301CN0100001N9+00891+00441102021ADDAY111061GF106991061051012501001001KA1999N+00611MD1310141+9999
0051108650999991928060212004+48183+011550FM-12+015599999V0200901N002619999999N0100001N9+01501+00331102081ADDAY111061GF106991999011012501001001MD1310061+9999
0064108650999991928060306004+48183+011550FM-12+015599999V0209991C00001220001CN0100001N9+00891+00281102291ADDAY101061GF101991001001999999001081KA1999N+00111MD1310061+9999
0037108650999991928060312004+48183+011550FM-12+015599999V0202901N00461220001CN0500001N9+01781+00221102041ADDAY101061GF101991011011022501001001
0064108650999991928060406004+48183+011550FM-12+015599999V0209999900101220001CN0040001N9+01501+00611101721ADDAY101061GF100991001001999999001001KA1999N+00501MD1810061+9999
0051108650999991928060412004+48183+011550FM-12+015599999V0202901N00461220001CN0200001N9+02391+00781101131ADDAY101061GF102991001001999999001081MD1810201+9999
0081108650999991928060506004+48183+011550FM-12+015599999V02099999006719999999N0100001N9+01501+01441101171ADDAA199008091AY161061GF108991999001012501021001KA1999N+01281MD1310061+9999MW1631
0043108650999991928060512004+48183+011550FM-12+015599999V0202901N00931090001CN0500001N9+01891+01221101091ADDAY161061GF106991041091008001001081MW1161
0061108650999991928060606004+48183+011550FM-12+015599999V0209999900461012301CN0500001N9+01611+01331101181ADDAA199000691AY111061GF106991061051012501031001KA1999N+01111
0057108650999991928060612004+48183+011550FM-12+015599999V0203601N00461220001CN0200001N9+01721+01501101191ADDAY191061GF104991041091012501031001MD1210061+9999MW1291
0064108650999991928060706004+48183+011550FM-12+015599999V0209999900261220001CN0100001N9+01611+01331100751ADDAY111061GF104991011051022501021001KA1999N+01001MD1810061+9999
0043108650999991928060712004+48183+011550FM-12+015599999V0201601N00261036001CN0200001N9+01501+01441100601ADDAY181061GF108991041091004501021001MW1291
0081108650999991928060806004+48183+011550FM-12+015599999V0209999900671004501CN0500001N9+01391+01331101101ADDAA199001091AY161061GF108991061061004501021001KA1999N+01221MD1310061+9999MW1211
0043108650999991928060812004+48183+011550FM-12+015599999V0202501N00931036001CN0200001N9+01781+01331101011ADDAY161061GF107991041061008001021001MW1611
0061108650999991928060906004+48183+011550FM-12+015599999V0209999900461015001CN0100001N9+01721+01501101091ADDAA199012091AY111061GF107991061051017501021001KA1999N+01391
0051108650999991928060912004+48183+011550FM-12+015599999V0201401N00461220001CN0500001N9+02721+01721100601ADDAY101061GF102991001001999999031081MD1810141+9999
0050108650999991928061006004+48183+011550FM-12+015599999V0209991C00001220001CN0500001N9+02111+01441100731ADDAY101061GF100991001001999999001001KA1999N+01501
0051108650999991928061012004+48183+011550FM-12+015599999V0200901N00461220001CN0500001N9+03001+01671100421ADDAY101061GF102991001001999999031021MD1990061+9999
0057108650999991928061112004+48183+011550FM-12+015599999V0202701N00931007801CN0200001N9+01611+01171101831ADDAY161061GF107991061061008001021001MD1310201+9999MW1211
0075108650999991928061206004+48183+011550FM-12+015599999V0209999900461036001CN0200001N9+01221+00781102671ADDAA199000691AY161061GF106991041051008001031001KA1999N+00781MD1310261+9999
0037108650999991928061212004+48183+011550FM-12+015599999V0203201N00461220001CN0500001N9+01721+00831102641ADDAY111061GF104991041011012501001001
0064108650999991928061306004+48183+011550FM-12+015599999V0209999900261220001CN0100001N9+01391+00941102531ADDAY101061GF100991001001999999001001KA1999N+00611MD1610061+9999
0051108650999991928061312004+48183+011550FM-12+015599999V0200901N00461220001CN0200001N9+02281+01061102081ADDAY101061GF100991001001999999001001MD1810141+9999
0050108650999991928061406004+48183+011550FM-12+015599999V0209999900671220001CN0500001N9+02001+01331101571ADDAY101061GF104991001001999999031021KA1999N+00891
0051108650999991928061412004+48183+011550FM-12+015599999V0202901N009319999999N0500001N9+02501+01221101461ADDAY111061GF106991999091017501001001MD1710201+9999
0075108650999991928061506004+48183+011550FM-12+015599999V02099999012319999999N0100001N9+01611+01171101721ADDAA199000391AY161061GF106991999061008001001001KA1999N+01501MD1310061+9999
0051108650999991928061512004+48183+011550FM-12+015599999V0202901N01901220001CN0200001N9+01891+00671101721ADDAY111061GF104991999011012501001001MD1410001+9999
0075108650999991928061606004+48183+011550FM-12+015599999V0209999900671220001CN0100001N9+00891+00671102231ADDAA199001091AY111061GF104991041051012501031001KA1999N+00721MD1810061+9999
0057108650999991928061612004+48183+011550FM-12+015599999V0202901N01231220001CN0200001N9+01281+00391101911ADDAY181061GF104991021061012501021001MD1710141+9999MW1211
0067108650999991928061706004+48183+011550FM-12+015599999V0209999900461036001CN0200001N9+00781+00561102001ADDAA199000591AY161061GF106991021061008001031001KA1999N+00611MW1211
0057108650999991928061712004+48183+011550FM-12+015599999V0202901N006719999999N0200001N9+01001+00391101911ADDAY181061GF106991999061004501001001MD1710061+9999MW1801
0067108650999991928061806004+48183+011550FM-12+015599999V0209999900261012301CN0040001N9+00721+00671101841ADDAA199000591AY161061GF108991071061012501021001KA1999N+00221MW1211
0057108650999991928061812004+48183+011550FM-12+015599999V0202901N012319999999N0100001N9+01001+00781101621ADDAY181061GF106991999061004501001001MD1710061+9999MW1211
0075108650999991928061906004+48183+011550FM-12+015599999V0209991C00001220001CN0100001N9+01281+00831101171ADDAA199000691AY111061GF104991021051017501031001KA1999N+00611MD1810141+9999
0051108650999991928061912004+48183+011550FM-12+015599999V0209991C00001036001CN0200001N9+01781+00891100741ADDAY111061GF108991041061022501021001MD1810201+9999
0075108650999991928062006004+48183+011550FM-12+015599999V0209999900671012301CN0200001N9+01281+01061101221ADDAA199006091AY111061GF108991061061012501021001KA1999N+01001MD1310061+9999
0057108650999991928062012004+48183+011550FM-12+015599999V0202701N01541007801CN0200001N9+01391+01171101301ADDAY181061GF107991061061008001021001MD1810061+9999MW1811
0075108650999991928062106004+48183+011550FM-12+015599999V0209999900931004501CN0200001N9+01111+00671102001ADDAA199000391AY111061GF106991061051004501001001KA1999N+00891MD1310201+9999
0051108650999991928062112004+48183+011550FM-12+015599999V0202701N012319999999N0100001N9+01501+00611102161ADDAY111061GF106991999011008001001001MD1310141+9999
0050108650999991928062206004+48183+011550FM-12+015599999V0209999900261220001CN0040001N9+01281+00831102461ADDAY101061GF100991001001999999001001KA1999N+00721
0051108650999991928062212004+48183+011550FM-12+015599999V0202701N00101220001CN0200001N9+02111+00891102201ADDAY101061GF101991011011017501001001MD1810061+9999
0050108650999991928062306004+48183+011550FM-12+015599999V0209999900261220001CN0500001N9+01891+01221101931ADDAY101061GF100991001001999999001001KA1999N+00891
0051108650999991928062312004+48183+011550FM-12+015599999V0202901N00671220001CN0500001N9+02721+01721101631ADDAY101061GF101991011011022501001001MD1810061+9999
0061108650999991928062406004+48183+011550FM-12+015599999V02099999004619999999N0100001N9+01891+01611101761ADDAA199021091AY191061GF106991999061008001001001KA1999N+01001
0051108650999991928062412004+48183+011550FM-12+015599999V0203201N004619999999N0100001N9+02221+01781101661ADDAY111061GF106991999061008001001001MD1310061+9999
0050108650999991928062506004+48183+011550FM-12+015599999V0209991C00001036001CN0040001N9+01721+01671101911ADDAY111061GF106991041051004501031001KA1999N+01391
0051108650999991928062512004+48183+011550FM-12+015599999V0203201N00261220001CN0100001N9+02391+01721101591ADDAY111061GF104991041051012501021001MD1810061+9999
0075108650999991928062606004+48183+011550FM-12+015599999V0209999900261220001CN0500001N9+02221+01561101171ADDAA199000591AY101061GF102991011011012501001081KA1999N+01721MD1510061+9999
0037108650999991928062612004+48183+011550FM-12+015599999V0203201N012319999999N0200001N9+02501+99999101091ADDAY111061GF106991999999012501999999
0075108650999991928062706004+48183+011550FM-12+015599999V0209999900931004501CN0500001N9+01391+01171101891ADDAA199008091AY121061GF107991999051004501001001KA1999N+01281MD1310201+9999
0051108650999991928062712004+48183+011550FM-12+015599999V0202701N00671012301CN0200001N9+01501+01061102061ADDAY121061GF108991061061012501021001MD1310141+9999
0064108650999991928062806004+48183+011550FM-12+015599999V0209999900461220001CN0200001N9+01221+00781102711ADDAY101061GF102991011011022501031001KA1999N+00721MD1310141+9999
0051108650999991928062812004+48183+011550FM-12+015599999V0202901N002619999999N0100001N9+01611+00721102601ADDAY111061GF106991999011008001001001MD1990061+9999
0050108650999991928062906004+48183+011550FM-12+015599999V0209991C00001220001CN0100001N9+01221+00781102671ADDAY101061GF102991001001999999021021KA1999N+00611
0051108650999991928062912004+48183+011550FM-12+015599999V0200901N00461220001CN0010001N9+02221+01941102271ADDAY101061GF101991001001999999001081MD1810141+9999
0050108650999991928063006004+48183+011550FM-12+015599999V0209999900461220001CN0200001N9+02001+01331101911ADDAY101061GF100991001001999999001001KA1999N+01001
0051108650999991928063012004+48183+011550FM-12+015599999V0202701N00671220001CN0200001N9+02721+01441101661ADDAY101061GF104991021011022501001021MD1990061+9999
0075108650999991928070106004+48183+011550FM-12+015599999V0209991C00001036001CN0100001N9+01611+01331102421ADDAA199004091AY161061GF107991041091008001031001KA1999N+01391MD1310201+9999
0051108650999991928070112004+48183+011550FM-12+015599999V0202701N00101220001CN0100001N9+02001+01331102341ADDAY111061GF104991999051017501001001MD1990061+9999
0050108650999991928070206004+48183+011550FM-12+015599999V0209991C00001220001CN0100001N9+01721+01501102311ADDAY101061GF101991999001999999031001KA1999N+01001
0051108650999991928070212004+48183+011550FM-12+015599999V0200901N00261220001CN0200001N9+02611+01331102001ADDAY101061GF101991011011022501001001MD1810061+9999
0050108650999991928070306004+48183+011550FM-12+015599999V0209991C00001220001CN0100001N9+02111+01671101841ADDAY141061GF100991001001999999001001KA1999N+01391
0064108650999991928070406004+48183+011550FM-12+015599999V0209999900931220001CN0100001N9+02391+01721101221ADDAY101061GF106991001001999999021021KA1999N+01781MD1110141+9999
0057108650999991928070412004+48183+011550FM-12+015599999V0202701N01231036001CN0100001N9+02501+01561101321ADDAY181061GF108991041051012501021001MD1210141+9999MW1211
0050108650999991928070506004+48183+011550FM-12+015599999V0209999900461220001CN0200001N9+01501+01061102331ADDAY101061GF100991001001999999001001KA1999N+00891
0064108650999991928070606004+48183+011550FM-12+015599999V0209991C00001220001CN0040001N9+02221+01781101401ADDAY111061GF106991001001999999031081KA1999N+01501MD1510001+9999
0051108650999991928070612004+48183+011550FM-12+015599999V0202501N01901090001CN0100001N9+02781+01501101241ADDAY101061GF106991041011017501001021MD1410001+9999
0081108650999991928070706004+48183+011550FM-12+015599999V0209999900461036001CN0040001N9+01391+01331102151ADDAA199005091AY181061GF108991041061008001021001KA1999N+01221MD1210201+9999MW1211
0051108650999991928070712004+48183+011550FM-12+015599999V0202501N006719999999N0200001N9+01781+01331102071ADDAY111061GF106991999061008001001001MD1810061+9999
0050108650999991928070806004+48183+011550FM-12+015599999V0209991C00001220001CN0200001N9+01391+00941102431ADDAY111061GF104991021051022501031001KA1999N+01111
0037108650999991928070812004+48183+011550FM-12+015599999V0200501N00101220001CN0200001N9+01891+00941102211ADDAY111061GF104991041011017501001001
0050108650999991928070906004+48183+011550FM-12+015599999V0209991C00001220001CN0040001N9+01611+01171102161ADDAY141061GF102991999001999999031001KA1999N+00721
0037108650999991928070912004+48183+011550FM-12+015599999V0202301N00101220001CN0100001N9+02721+01441999999ADDAY101061GF102991021011012501001001
0064108650999991928071006004+48183+011550FM-12+015599999V0209999900261220001CN0100001N9+01781+01111102291ADDAY111061GF104991999001022501031081KA1999N+01001MD1310141+9999
0051108650999991928071012004+48183+011550FM-12+015599999V0202701N00671090001CN0100001N9+02391+01111102171ADDAY111061GF106991041011017501001091MD1610061+9999
0064108650999991928071106004+48183+011550FM-12+015599999V0209991C00001220001CN0040001N9+01501+01281102771ADDAY141061GF104991001001999999001081KA1999N+01111MD1310061+9999
0037108650999991928071112004+48183+011550FM-12+015599999V0203201N00101220001CN0200001N9+02391+01111102531ADDAY101061GF102991001001999999001081
0050108650999991928071206004+48183+011550FM-12+015599999V0209999900261220001CN0200001N9+01781+01111102571ADDAY101061GF100991001001999999001001KA1999N+01001
0051108650999991928071212004+48183+011550FM-12+015599999V0200701N00931220001CN0200001N9+02781+01501102231ADDAY101061GF100991001001999999001001MD1810061+9999
0050108650999991928071306004+48183+011550FM-12+015599999V0209991C00001220001CN0200001N9+01891+01441102311ADDAY101061GF100991001001999999001001KA1999N+01001
0051108650999991928071312004+48183+011550FM-12+015599999V0202701N00261220001CN0200001N9+03001+01671102061ADDAY101061GF101991011011022501001001MD1010001+9999
0037108650999991928071412004+48183+011550FM-12+015599999V0200501N00101220001CN0200001N9+03111+01781102161ADDAY101061GF104991999091012501001001
0050108650999991928071506004+48183+011550FM-12+015599999V0209991C00001220001CN0100001N9+02221+01781102301ADDAY101061GF100991001001999999001001KA1999N+01501
0051108650999991928071512004+48183+011550FM-12+015599999V0200701N00261220001CN0200001N9+03281+01941101951ADDAY101061GF101991011011022501001001MD1810061+9999
0051108650999991928071612004+48183+011550FM-12+015599999V0202701N00261220001CN0200001N9+03221+01891102031ADDAY101061GF102991021011017501001001MD1810061+9999
0064108650999991928071706004+48183+011550FM-12+015599999V0209991C00001036001CN0100001N9+01781+01561102271ADDAY111061GF106991021051008001031001KA1999N+01501MD1310061+9999
0037108650999991928071712004+48183+011550FM-12+015599999V0203601N00261090001CN0200001N9+02721+01721102021ADDAY111061GF106991021011017501001021
0050108650999991928071806004+48183+011550FM-12+015599999V0209999900101090001CN0040001N9+01721+01501102211ADDAY141061GF107991021051012501001021KA1999N+01501
0051108650999991928071812004+48183+011550FM-12+015599999V0200501N00101012301CN0100001N9+02281+01611102001ADDAY111061GF107991071051012501001001MD1810141+9999
0050108650999991928071906004+48183+011550FM-12+015599999V0209999900671220001CN0100001N9+01891+01221101981ADDAY101061GF101991001001999999001021KA1999N+01111
0051108650999991928071912004+48183+011550FM-12+015599999V0202901N00671220001CN0200001N9+02501+01221101681ADDAY101061GF104991041011017501001001MD1810141+9999
0050108650999991928072006004+48183+011550FM-12+015599999V0209991C00001220001CN0100001N9+01611+01331102031ADDAY111061GF104991021051008001001021KA1999N+01221
0037108650999991928072012004+48183+011550FM-12+015599999V0203201N00261007801CN0100001N9+02221+01281101791ADDAY101061GF107991071051008001001001
0050108650999991928072106004+48183+011550FM-12+015599999V0209991C00001220001CN0040001N9+01721+01281102131ADDAY141061GF100991001001999999001001KA1999N+01221
0051108650999991928072112004+48183+011550FM-12+015599999V0202901N00461220001CN0100001N9+02391+01111101861ADDAY141061GF102991021011022501001001MD1810141+9999
0050108650999991928072206004+48183+011550FM-12+015599999V0209991C00001220001CN0040001N9+01611+01171102101ADDAY141061GF100991001001999999001001KA1999N+01111
0037108650999991928072212004+48183+011550FM-12+015599999V0202701N00461220001CN0200001N9+02501+01221101861ADDAY101061GF102991021051022501001001
0050108650999991928072306004+48183+011550FM-12+015599999V0209991C00001220001CN0040001N9+01501+01061102021ADDAY141061GF100991001001999999001001KA1999N+01001
0051108650999991928072312004+48183+011550FM-12+015599999V0202901N00461220001CN0100001N9+02501+01221101711ADDAY141061GF102991999051017501001001MD1810061+9999
0050108650999991928072406004+48183+011550FM-12+015599999V0209999900461220001CN0100001N9+01891+01441101771ADDAY111061GF104991001001999999001021KA1999N+01221
0051108650999991928072412004+48183+011550FM-12+015599999V0202501N01541036001CN0200001N9+02501+01221101511ADDAY111061GF106991041051017501031001MD1610061+9999
0064108650999991928072506004+48183+011550FM-12+015599999V0209999900931012301CN0200001N9+01891+01441101771ADDAY111061GF107991061051012501021001KA1999N+01611MD1110061+9999
0037108650999991928072512004+48183+011550FM-12+015599999V0202501N00461036001CN0200001N9+02111+01441101791ADDAY121061GF108991021051017501021001
0064108650999991928072606004+48183+011550FM-12+015599999V0209999900671220001CN0200001N9+02001+01561101981ADDAY101061GF104991021051022501031001KA1999N+01501MD1010061+9999
0051108650999991928072612004+48183+011550FM-12+015599999V0202901N00671220001CN0200001N9+02721+01441101721ADDAY101061GF101991011011017501001001MD1810061+9999
0064108650999991928072706004+48183+011550FM-12+015599999V0209991C00001220001CN0500001N9+02001+01331101391ADDAY101061GF101991001001999999001021KA1999N+01111MD1810061+9999
0051108650999991928072712004+48183+011550FM-12+015599999V0202701N00671220001CN0500001N9+03391+01611100841ADDAY101061GF102991021091017501001001MD1810201+9999
0075108650999991928072806004+48183+011550FM-12+015599999V0209999900671220001CN0200001N9+02221+01561100921ADDAA199000591AY101061GF102991001001999999021021KA1999N+01721MD1410001+9999
0051108650999991928072812004+48183+011550FM-12+015599999V0202501N00671220001CN0200001N9+02891+01561100571ADDAY101061GF104991041011022501031001MD1810061+9999
0075108650999991928072906004+48183+011550FM-12+015599999V02099999009319999999N0200001N9+01891+01441100831ADDAA199006091AY111061GF107991999061012501001001KA1999N+01611MD1310061+9999
0057108650999991928072912004+48183+011550FM-12+015599999V0202501N00461012301CN0200001N9+01611+01331101111ADDAY181061GF108991071051012501021001MD1310061+9999MW1501
0064108650999991928073006004+48183+011550FM-12+015599999V0209999900101220001CN0200001N9+01501+01061101841ADDAY101061GF102991999001999999021001KA1999N+01001MD1110061+9999
0051108650999991928073012004+48183+011550FM-12+015599999V0202701N00461220001CN0500001N9+02281+01061101601ADDAY111061GF104991041051012501001001MD1810061+9999
0064108650999991928073106004+48183+011550FM-12+015599999V0209991C00001220001CN0100001N9+01891+01441101641ADDAY111061GF104991011051017501001021KA1999N+01221MD1310061+9999
0051108650999991928073112004+48183+011550FM-12+015599999V0202701N01901220001CN0500001N9+03001+01281101311ADDAY101061GF104991041011017501001021MD1610061+9999
0050108650999991928080106004+48183+011550FM-12+015599999V0209999900461220001CN0500001N9+02221+01561101641ADDAY111061GF104991011011022501001021KA1999N+01501
0051108650999991928080112004+48183+011550FM-12+015599999V0202701N00931036001CN0500001N9+02781+01501101531ADDAY111061GF106991041051017501031001MD1990061+9999
0075108650999991928080206004+48183+011550FM-12+015599999V02099999006719999999N0100001N9+02001+01721101661ADDAA199000391AY191061GF107991999091017501001001KA1999N+01501MD1310061+9999
0043108650999991928080212004+48183+011550FM-12+015599999V0202701N00461004501CN0100001N9+01721+01671101991ADDAY191061GF108991061061004501021001MW1211
0075108650999991928080306004+48183+011550FM-12+015599999V0209999900261004501CN0040001N9+01281+01221102061ADDAA199000691AY141061GF108991081051004501999999KA1999N+01001MD1510061+9999
0051108650999991928080312004+48183+011550FM-12+015599999V0200901N00461021001CN0100001N9+02111+01441101681ADDAY111061GF107991061051022501031001MD1810141+9999
0075108650999991928080406004+48183+011550FM-12+015599999V0209999900101220001CN0100001N9+02001+01941101231ADDAA199004091AY161061GF102991999001022501031001KA1999N+01611MD1610141+9999
0037108650999991928080412004+48183+011550FM-12+015599999V0200501N00101220001CN0040001N9+02611+01611101091ADDAY101061GF101991999001999999031001
0081108650999991928080506004+48183+011550FM-12+015599999V0209999900931036001CN0500001N9+01781+01721101391ADDAA199031091AY191061GF107991041061004501021001KA1999N+01501MD1210141+9999MW1291
0037108650999991928080512004+48183+011550FM-12+015599999V0202901N006719999999N0500001N9+02111+01441101501ADDAY111061GF107991999061012501001001
0064108650999991928080706004+48183+011550FM-12+015599999V0209999900261220001CN0200001N9+01281+00831102641ADDAY101061GF101991001001999999001081KA1999N+00781MD1210061+9999
0051108650999991928080712004+48183+011550FM-12+015599999V0209991C00001090001CN0100001N9+02111+00891102311ADDAY111061GF106991021011022501001081MD1810141+9999
0064108650999991928080806004+48183+011550FM-12+015599999V0209999900101220001CN0200001N9+01721+01281102041ADDAY111061GF102991001001999999031021KA1999N+01221MD1610061+9999
0051108650999991928080812004+48183+011550FM-12+015599999V0202501N00931220001CN0500001N9+02721+01061101621ADDAY101061GF101991001001999999001081MD1810141+9999
0081108650999991928080906004+48183+011550FM-12+015599999V0209999900261012301CN0040001N9+01281+01221102431ADDAA199005091AY161061GF108991071061012501021001KA1999N+01221MD1010141+9999MW1631
0051108650999991928080912004+48183+011550FM-12+015599999V0202901N00461220001CN0200001N9+02001+01331102231ADDAY111061GF104991041011017501001001MD1810061+9999
0075108650999991928081006004+48183+011550FM-12+015599999V0209999900101220001CN0100001N9+01391+01171102131ADDAA199000691AY111061GF106991999001999999021001KA1999N+01111MD1410001+9999
0051108650999991928081012004+48183+011550FM-12+015599999V0203401N00261220001CN0200001N9+02221+01001101911ADDAY101061GF199999001001999999031081MD1990061+9999
0050108650999991928081106004+48183+011550FM-12+015599999V0209991C00001220001CN0100001N9+01611+01171101841ADDAY101061GF106991999001999999031001KA1999N+01001
0051108650999991928081112004+48183+011550FM-12+015599999V0203401N00101220001CN0200001N9+02391+01111101551ADDAY101061GF104991011051022501031001MD1610061+9999
0050108650999991928081206004+48183+011550FM-12+015599999V0209991C00001220001CN0100001N9+01781+01331101361ADDAY101061GF100991001001999999001001KA1999N+01111
0051108650999991928081212004+48183+011550FM-12+015599999V0202501N00461220001CN0200001N9+03111+01391100901ADDAY101061GF104991001001999999031081MD1810141+9999
0051108650999991928081312004+48183+011550FM-12+015599999V0209991C00001220001CN0200001N9+02721+01721101101ADDAY111061GF106991001001999999031081MD1010001+9999
0067108650999991928081406004+48183+011550FM-12+015599999V0209999900671007801CN0100001N9+01501+01441101791ADDAA199012091AY191061GF108991081061008001999999KA1999N+01391MW1211
0051108650999991928081412004+48183+011550FM-12+015599999V0209991C00261036001CN0200001N9+01781+01721101601ADDAY161061GF107991021051017501031001MD1710201+9999
0067108650999991928081506004+48183+011550FM-12+015599999V02099999009319999999N0200001N9+01721+01671101631ADDAA199009091AY191061GF106991999091008001001001KA1999N+01501MW1801
0051108650999991928081512004+48183+011550FM-12+015599999V0200901N00461220001CN0500001N9+02781+01781101071ADDAY101061GF101991001001999999001021MD1810141+9999
0075108650999991928081606004+48183+011550FM-12+015599999V0209999900461036001CN0200001N9+01721+01671101551ADDAA199014091AY191061GF108991021061012501021001KA1999N+01391MD1310141+9999
0057108650999991928081612004+48183+011550FM-12+015599999V0202501N00671001501CN0040001N9+01391+01331101861ADDAY161061GF108991061061001501021001MD1210061+9999MW1631
0064108650999991928081706004+48183+011550FM-12+015599999V02099999002619999999N0040001N9+01281+01221101901ADDAY111061GF107991999001022501031001KA1999N+00891MD1310061+9999
0037108650999991928081712004+48183+011550FM-12+015599999V0202701N004619999999N0200001N9+01781+99999102001ADDAY111061GF106991999999012501999999
0050108650999991928081806004+48183+011550FM-12+015599999V0209999900101220001CN0040001N9+01111+01061102201ADDAY141061GF100991001001999999001001KA1999N+00721
0051108650999991928081812004+48183+011550FM-12+015599999V0209991C00001220001CN0100001N9+01891+00941101941ADDAY101061GF104991041011017501001001MD1810061+9999
0051108650999991928081912004+48183+011550FM-12+015599999V0201401N00101220001CN0200001N9+02111+00891101471ADDAY101061GF101991999001999999021001MD1810061+9999
0050108650999991928082006004+48183+011550FM-12+015599999V0209991C00001220001CN0020001N9+01501+01281101351ADDAY101061GF100991001001999999001001KA1999N+01111
0037108650999991928082012004+48183+011550FM-12+015599999V0202701N00671220001CN0200001N9+02611+01611101131ADDAY111061GF104991001001999999021081
0081108650999991928082106004+48183+011550FM-12+015599999V0209999900261036001CN0040001N9+01501+01441101491ADDAA199008091AY191061GF108991021061002501021001KA1999N+01391MD1310061+9999MW1601
0057108650999991928082112004+48183+011550FM-12+015599999V0200901N00261004501CN0040001N9+01781+01721101241ADDAY181061GF107991999061004501001001MD1710141+9999MW1621
0075108650999991928082206004+48183+011550FM-12+015599999V0209999900671220001CN0100001N9+01281+01221101841ADDAA199000391AY101061GF102991021011017501031001KA1999N+00891MD1310061+9999
0051108650999991928082212004+48183+011550FM-12+015599999V0202901N00931012301CN0500001N9+01781+00891101641ADDAY111061GF106991061011012501001001MD1510061+9999
0050108650999991928082306004+48183+011550FM-12+015599999V0209999900931036001CN0500001N9+01501+01281101861ADDAY121061GF108991021051017501021001KA1999N+01221
0051108650999991928082312004+48183+011550FM-12+015599999V0202701N009319999999N0500001N9+02221+01561102081ADDAY111061GF106991999999999999001001MD1990061+9999
0064108650999991928082406004+48183+011550FM-12+015599999V0209999900461220001CN0100001N9+01611+01331101761ADDAY101061GF104991001001999999001081KA1999N+01111MD1810061+9999
0051108650999991928082412004+48183+011550FM-12+015599999V0200901N00671220001CN0500001N9+02611+01611101301ADDAY101061GF104991001001999999001081MD1810061+9999
0064108650999991928082506004+48183+011550FM-12+015599999V0209999900931220001CN0200001N9+01781+01561101491ADDAY101061GF102991999001999999031001KA1999N+01221MD1310201+9999
0051108650999991928082512004+48183+011550FM-12+015599999V0202701N00671012301CN0500001N9+02221+01781101711ADDAY111061GF107991071051012501001001MD1310141+9999
0094108650999991928082606004+48183+011550FM-12+015599999V0209999900261220001CN0500001N9+01611+01561101891ADDAA199020091AY161061GF102991001001999999021021KA1999N+99999MD1210141+9999EQDQ01 +01892ATMN  
0051108650999991928082612004+48183+011550FM-12+015599999V0201101N00101220001CN0500001N9+02501+01561101551ADDAY101061GF104991011011999999001081MD1810141+9999
0064108650999991928082706004+48183+011550FM-12+015599999V0209999900101015001CN0040001N9+01891+01831101321ADDAY121061GF107991061051017501021001KA1999N+01721MD1310141+9999
0051108650999991928082712004+48183+011550FM-12+015599999V0202701N00671220001CN0500001N9+02501+01561101181ADDAY101061GF102991999999022501999999MD1810061+9999
0075108650999991928082806004+48183+011550FM-12+015599999V0209991C000019999999N0100001N9+01781+01721101271ADDAA199000391AY111061GF107991999091008001001001KA1999N+01721MD1810141+9999
0051108650999991928082812004+48183+011550FM-12+015599999V0202901N00461004501CN0040001N9+01781+01721101621ADDAY181061GF108991071061004501021001MD1210201+9999
0075108650999991928082906004+48183+011550FM-12+015599999V0209999900101220001CN0100001N9+01501+01441101981ADDAA199001091AY141061GF102991021011022501031001KA1999N+01111MD1610061+9999
0051108650999991928082912004+48183+011550FM-12+015599999V0200901N00461220001CN0200001N9+02281+01831101541ADDAY111061GF104991041051012501001021MD1810141+9999
0081108650999991928083006004+48183+011550FM-12+015599999V0209999900671004501CN0100001N9+01501+01441101191ADDAA199014091AY161061GF108991081061004501999999KA1999N+01501MD1210061+9999MW1611
0057108650999991928083012004+48183+011550FM-12+015599999V0202701N00671001501CN0020001N9+01391+01331101471ADDAY161061GF108991081061001501999999MD1310061+9999MW1651
0075108650999991928083106004+48183+011550FM-12+015599999V0209999900671220001CN0500001N9+01111+00891102421ADDAA199001091AY111061GF101991999001999999031001KA1999N+00891MD1310141+9999
0037108650999991928083112004+48183+011550FM-12+015599999V0202701N00671220001CN0200001N9+01721+00831102331ADDAY111061GF104991041011012501001001
0064108650999991928090106004+48183+011550FM-12+015599999V0209991C00001012301CN0040001N9+01001+00941102161ADDAY121061GF108991081051012501999999KA1999N+00891MD1310061+9999
0037108650999991928090112004+48183+011550FM-12+015599999V0200901N001019999999N0040001N9+01501+99999102031ADDAY111061GF106991999999012501999999
0056108650999991928090206004+48183+011550FM-12+015599999V0209999900461000151CN0000501N9+00721+00671102351ADDAY141061GF108991081051000251999999KA1999N+00391MW1451
0051108650999991928090212004+48183+011550FM-12+015599999V0200901N00931220001CN0200001N9+01721+01061101991ADDAY101061GF102991021011017501001001MD1810061+9999
0050108650999991928090306004+48183+011550FM-12+015599999V0209999900101220001CN0100001N9+00781+00721102161ADDAY111061GF104991021051017501001081KA1999N+00391
0037108650999991928090312004+48183+011550FM-12+015599999V0200701N00261220001CN0200001N9+01611+00941102041ADDAY111061GF104991041011017501031001
0070108650999991928090406004+48183+011550FM-12+015599999V0209991C00001220001CN0010001N9+00781+00721102641ADDAY141061GF101991001001999999001081KA1999N+00501MD1310061+9999MW1101
0051108650999991928090412004+48183+011550FM-12+015599999V0200701N00461220001CN0200001N9+02001+00781102291ADDAY101061GF102991001001999999001081MD1810061+9999
0051108650999991928090512004+48183+011550FM-12+015599999V0209991C00001220001CN0200001N9+02281+01611102231ADDAY101061GF100991001001999999001001MD1810141+9999
0064108650999991928090606004+48183+011550FM-12+015599999V0209999900261220001CN0100001N9+01721+01501102261ADDAY101061GF100991001001999999001001KA1999N+01001MD1310061+9999
0051108650999991928090612004+48183+011550FM-12+015599999V0202501N00101220001CN0200001N9+02611+01611102041ADDAY101061GF102991021011017501001001MD1610061+9999
0075108650999991928090706004+48183+011550FM-12+015599999V0209991C00001220001CN0100001N9+01611+01561102671ADDAA199005091AY161061GF104991011051017501001081KA1999N+01391MD1310061+9999
0051108650999991928090712004+48183+011550FM-12+015599999V0200901N00671012301CN0200001N9+02111+01671102301ADDAY111061GF106991061051012501001001MD1810141+9999
0070108650999991928090806004+48183+011550FM-12+015599999V0209991C00001220001CN0010001N9+01501+01441102431ADDAY141061GF101991001001999999001081KA1999N+01221MD1310141+9999MW1101
0037108650999991928090812004+48183+011550FM-12+015599999V0209991C00001220001CN0100001N9+02501+02001102231ADDAY101061GF104991001001999999001081
0064108650999991928091006004+48183+011550FM-12+015599999V0209999900461220001CN0100001N9+01781+01561102291ADDAY101061GF102991999001999999031001KA1999N+01391MD1310061+9999
0051108650999991928091012004+48183+011550FM-12+015599999V0202901N00461220001CN0200001N9+02501+01781102111ADDAY111061GF104991999091017501001001MD1810061+9999
0081108650999991928091106004+48183+011550FM-12+015599999V0209991C00001012301CN0020001N9+01611+01561102261ADDAA199000391AY161061GF108991061061012501021001KA1999N+01501MD1510001+9999MW1611
0037108650999991928091112004+48183+011550FM-12+015599999V0209991C00001002401CN0020001N9+01781+01721102191ADDAY161061GF108991061061002501021001
0050108650999991928091206004+48183+011550FM-12+015599999V0209991C00001036001CN0020001N9+01391+01331102191ADDAY111061GF107991041051022501021001KA1999N+01281
0051108650999991928091212004+48183+011550FM-12+015599999V0209991C00001090001CN0040001N9+01891+01221102081ADDAY141061GF106991041051017501001081MD1610061+9999
0056108650999991928091306004+48183+011550FM-12+015599999V0209999900461000601CN0010001N9+01111+01061102231ADDAY141061GF108991081051000751999999KA1999N+01001MW1101
0076108650999991928091312004+48183+011550FM-12+015599999V0200901N00671036001CN0040001N9+01781+01331100702ADDAY141061GF106991041051008001021001MD1810061+9999MW1461EQDQ01+100703APOSLP
0050108650999991928091406004+48183+011550FM-12+015599999V0209999900101036001CN0100001N9+01001+00941102201ADDAY111061GF107991041051022501031001KA1999N+00891
0037108650999991928091412004+48183+011550FM-12+015599999V0200701N00931220001CN0100001N9+01781+00891102041ADDAY111061GF106991001001999999031081
0067108650999991928091506004+48183+011550FM-12+015599999V0209991C00001004501CN0040001N9+00891+00831102261ADDAA199003091AY161061GF108991081061004501999999KA1999N+00891MW1601
0037108650999991928091512004+48183+011550FM-12+015599999V0200701N00101004501CN0100001N9+01111+01061102331ADDAY161061GF108991999061004501001001
0070108650999991928091606004+48183+011550FM-12+015599999V0209999900461000601CN0010001N9+00891+00831102341ADDAY141061GF108991081051000751999999KA1999N+00391MD1410001+9999MW1101
0037108650999991928091612004+48183+011550FM-12+015599999V0200901N00461004501CN0100001N9+01281+01061102171ADDAY121061GF108991081051004501999999
0081108650999991928091706004+48183+011550FM-12+015599999V02099999002619999999N0040001N9+00891+00831102311ADDAA199000691AY161061GF108991999061008001001001KA1999N+00891MD1310061+9999MW1601
0037108650999991928091712004+48183+011550FM-12+015599999V0200901N00931007801CN0100001N9+01281+01061102231ADDAY121061GF108991061051008001021001
0064108650999991928091806004+48183+011550FM-12+015599999V0209999900261004501CN0040001N9+01111+01061102241ADDAY121061GF108991081051004501999999KA1999N+01001MD1410001+9999
0037108650999991928091812004+48183+011550FM-12+015599999V0200701N001019999999N0100001N9+01391+00221102131ADDAY121061GF106991999051004501001001
0050108650999991928091906004+48183+011550FM-12+015599999V0209999900101007801CN0040001N9+01221+01001102231ADDAY121061GF107991071051008001001001KA1999N+01001
0051108650999991928091912004+48183+011550FM-12+015599999V0202301N00101012301CN0200001N9+01611+00941102071ADDAY121061GF107991071051012501001001MD1810061+9999
0064108650999991928092006004+48183+011550FM-12+015599999V0209991C00001015001CN0040001N9+01221+01171102161ADDAY141061GF106991061051017501001001KA1999N+00891MD1310061+9999
0051108650999991928092012004+48183+011550FM-12+015599999V0209991C00001220001CN0200001N9+02001+01061101871ADDAY111061GF104991041051012501001001MD1810141+9999
0064108650999991928092106004+48183+011550FM-12+015599999V0209991C00001004501CN0020001N9+01001+00941102081ADDAY141061GF107991071051004501001001KA1999N+00721MD1310061+9999
0051108650999991928092112004+48183+011550FM-12+015599999V0203601N00461220001CN0040001N9+01781+00891101791ADDAY141061GF104991021051012501031001MD1810141+9999
0081108650999991928092206004+48183+011550FM-12+015599999V02099999002619999999N0020001N9+00781+00721101681ADDAA199002091AY121061GF108991999061002501001001KA1999N+00721MD1410001+9999MW1501
0043108650999991928092212004+48183+011550FM-12+015599999V0202701N00261002401CN0040001N9+00781+00561101761ADDAY161061GF108991061061002501021001MW1211
0081108650999991928092306004+48183+011550FM-12+015599999V0209999900101000151CN0000501N9+00221+00171101721ADDAA199008091AY141061GF108991081051000251999999KA1999N-00111MD1810061+9999MW1451
0057108650999991928092312004+48183+011550FM-12+015599999V0203201N009319999999N0200001N9+00721+00331101491ADDAY181061GF106991999091004501001001MD1810141+9999MW1161
0081108650999991928092406004+48183+011550FM-12+015599999V0209999900461036001CN0200001N9+00281+00221101461ADDAA199000391AY181061GF108991041061008001021001KA1999N+00221MD1410001+9999MW1801
0057108650999991928092412004+48183+011550FM-12+015599999V0202501N00671036001CN0100001N9+00781+00391101351ADDAY111061GF106991041091008001031001MD1510001+9999MW1161
0050108650999991928092506004+48183+011550FM-12+015599999V0209999900461036001CN0040001N9+00721+00501101531ADDAY111061GF107991041051012501021001KA1999N+00221
0051108650999991928092512004+48183+011550FM-12+015599999V0202501N00461090001CN0500001N9+01391+00221101301ADDAY101061GF106991021011012501001021MD1810061+9999
0064108650999991928092606004+48183+011550FM-12+015599999V0209991C00001220001CN0020001N9+00611+00561101751ADDAY141061GF101991999001999999031001KA1999N+00221MD1110141+9999
0037108650999991928092612004+48183+011550FM-12+015599999V0200901N00461220001CN0200001N9+01611+00721101581ADDAY101061GF104991041011017501001001
0056108650999991928092706004+48183+011550FM-12+015599999V0209991C00001000151CN0002001N9+00281+00221101751ADDAY141061GF108991081051000251999999KA1999N-00111MW1451
0051108650999991928092712004+48183+011550FM-12+015599999V0200701N00261220001CN0100001N9+01721+00831101261ADDAY101061GF100991001001999999001001MD1810061+9999
0064108650999991928092806004+48183+011550FM-12+015599999V02099999001019999999N0040001N9+00721+00671100881ADDAY111061GF108991999001017501031001KA1999N+00501MD1810141+9999
0057108650999991928092812004+48183+011550FM-12+015599999V0209991C00001012301CN0020001N9+01501+01061100461ADDAY161061GF108991081051012501999999MD1710141+9999MW1601
0075108650999991928092906004+48183+011550FM-12+015599999V0209999900101220001CN0500001N9+01221+01171101261ADDAA199000391AY111061GF104991999001022501021001KA1999N+01001MD1310141+9999
0051108650999991928092912004+48183+011550FM-12+015599999V0203401N00261036001CN0500001N9+02001+01061100991ADDAY111061GF107991041051012501031001MD1610061+9999
0064108650999991928093006004+48183+011550FM-12+015599999V0209999900461220001CN0500001N9+01281+01061100701ADDAY111061GF104991041051022501001021KA1999N+01001MD1710061+9999
0051108650999991928093012004+48183+011550FM-12+015599999V0200601N01541220001CN0500001N9+01721+01061100481ADDAY111061GF106991999001999999021001MD1810061+9999
0081108650999991928100106004+48183+011550FM-12+015599999V0209999900931001501CN0040001N9+00281+00221101671ADDAA199014091AY161061GF108991081061001501999999KA1999N+00221MD1310141+9999MW1611
0051108650999991928100112004+48183+011550FM-12+015599999V0202701N01901220001CN0200001N9+01001-00111101721ADDAY111061GF104991999011012501001001MD1210061+9999
0064108650999991928100206004+48183+011550FM-12+015599999V0209999900461220001CN0200001N9+00391+00171102331ADDAY101061GF101991999001022501021021KA1999N+00111MD1810061+9999
0051108650999991928100212004+48183+011550FM-12+015599999V0202701N00671220001CN0500001N9+01221+00331101951ADDAY101061GF102991021011022501001001MD1810061+9999
0050108650999991928100306004+48183+011550FM-12+015599999V0209999900101220001CN0100001N9+00501+00441102751ADDAY111061GF102991999001999999031001KA1999N+00111
0051108650999991928100312004+48183+011550FM-12+015599999V0200201N00101220001CN0200001N9+01111+00221102661ADDAY111061GF102991021011012501001001MD1990061+9999
0061108650999991928100406004+48183+011550FM-12+015599999V0209999900101004501CN0010001N9+00111+00061102431ADDAA199000691AY141061GF108991081051004501999999KA1999N-00111
0037108650999991928100412004+48183+011550FM-12+015599999V0201101N00101004501CN0100001N9+01111+00501102241ADDAY121061GF107991071051004501001001
0064108650999991928100506004+48183+011550FM-12+015599999V0209991C00001220001CN0010001N9+00391+00331102521ADDAY141061GF101991999001999999031001KA1999N+00221MD1310061+9999
0037108650999991928100512004+48183+011550FM-12+015599999V0209991C00001220001CN0100001N9+01781+00891102341ADDAY101061GF102991021011017501001001
0064108650999991928100606004+48183+011550FM-12+015599999V0209991C00001220001CN0010001N9+00221+00171102791ADDAY111061GF106991001001999999021091KA1999N+00001MD1310061+9999
0037108650999991928100612004+48183+011550FM-12+015599999V0202901N00261090001CN0100001N9+01721+01061102431ADDAY111061GF107991021011017501001021
0061108650999991928100706004+48183+011550FM-12+015599999V0209999900101007801CN0040001N9+01001+00941102791ADDAA199003091AY111061GF107991061051008001031001KA1999N+00891
0051108650999991928100712004+48183+011550FM-12+015599999V0203201N00101220001CN0100001N9+01391+00941102751ADDAY111061GF104991021051008001031001MD1810061+9999
0070108650999991928100806004+48183+011550FM-12+015599999V0209991C00001220001CN0010001N9+00281+00221102741ADDAY141061GF101991001001999999021021KA1999N+00111MD1610061+9999MW1101
0051108650999991928100812004+48183+011550FM-12+015599999V0200901N00101220001CN0200001N9+01721+00831102131ADDAY101061GF102991001001999999001021MD1810141+9999
0050108650999991928100906004+48183+011550FM-12+015599999V0209999900101220001CN0200001N9+00721+00501101701ADDAY101061GF104991001001999999031091KA1999N+00501
0051108650999991928100912004+48183+011550FM-12+015599999V0202701N00461220001CN0500001N9+02001+00781101061ADDAY111061GF104991001001999999021021MD1810261+9999
0081108650999991928101006004+48183+011550FM-12+015599999V0209999900931002401CN0040001N9+01001+00941100921ADDAA199005091AY161061GF108991081061002501999999KA1999N+00781MD1310141+9999MW1611
0051108650999991928101012004+48183+011550FM-12+015599999V0202701N01231036001CN0500001N9+01221+01001100971ADDAY111061GF107991041051012501021001MD1310061+9999
0075108650999991928101106004+48183+011550FM-12+015599999V0209999900671036001CN0200001N9+01001+00941101601ADDAA199001091AY111061GF107991021051012501031001KA1999N+00781MD1310141+9999
0051108650999991928101112004+48183+011550FM-12+015599999V0202701N00931220001CN0500001N9+01611+00721101331ADDAY111061GF104991021011999999001021MD1810141+9999
0075108650999991928101206004+48183+011550FM-12+015599999V0209999900931220001CN0100001N9+00781+00721101441ADDAA199006091AY111061GF104991021051017501031001KA1999N+00781MD1410001+9999
0057108650999991928101212004+48183+011550FM-12+015599999V0202701N01541036001CN0500001N9+01281+00611101231ADDAY181061GF107991041091004501021001MD1710141+9999MW1211
0081108650999991928101306004+48183+011550FM-12+015599999V0209999900461002401CN0040001N9+00391+00331101171ADDAA199014091AY161061GF108991081051002501999999KA1999N+00391MD1310061+9999MW1211
0051108650999991928101312004+48183+011550FM-12+015599999V0203601N00461004501CN0100001N9+00501+00281101501ADDAY121061GF107991061051004501021001MD1110061+9999
0081108650999991928101406004+48183+011550FM-12+015599999V0209999901231000601CN0020001N9+00111+00061102071ADDAA199000591AY171061GF108991999061000751001001KA1999N-00111MD1010001+9999MW1681
0057108650999991928101412004+48183+011550FM-12+015599999V0203401N012319999999N0100001N9+00391-00171102191ADDAY171061GF106991999061004501001001MD1210061+9999MW1211
0067108650999991928101506004+48183+011550FM-12+015599999V0209991C00001220001CN0002001N9-00501-00561102601ADDAA199000591AY141061GF100991001001999999001001KA1999N-00611MW1441
0051108650999991928101512004+48183+011550FM-12+015599999V0201101N00671220001CN0200001N9+00721+00111102161ADDAY111061GF104991041011017501001001MD1990141+9999
0070108650999991928101606004+48183+011550FM-12+015599999V0209999900101000151CN0005001N9-00221-00281102731ADDAY141061GF108991081051000251999999KA1999N-00501MD1310141+9999MW1471
0051108650999991928101612004+48183+011550FM-12+015599999V0200701N00101220001CN0020001N9+00611+00001102801ADDAY141061GF104991041011012501001001MD1410001+9999
0070108650999991928101706004+48183+011550FM-12+015599999V0209991C00001000151CN0000501N9-00281-00331103301ADDAY141061GF108991081051000251999999KA1999N-00611MD1210061+9999MW1471
0051108650999991928101712004+48183+011550FM-12+015599999V0202501N00931220001CN0500001N9+01281+00391102801ADDAY111061GF106991001001999999031021MD1990061+9999
0050108650999991928101806004+48183+011550FM-12+015599999V0209999900931036001CN0500001N9+01111+00221102461ADDAY121061GF107991021051017501021001KA1999N+00611
0051108650999991928101812004+48183+011550FM-12+015599999V0202701N00461036001CN0500001N9+01501+00611102201ADDAY111061GF107991041051017501021001MD1710061+9999
0064108650999991928101906004+48183+011550FM-12+015599999V0209999900671036001CN0500001N9+01391+00721101631ADDAY111061GF106991041051022501021001KA1999N+00891MD1510001+9999
0057108650999991928101912004+48183+011550FM-12+015599999V0202501N01231036001CN0500001N9+01391+01171101731ADDAY161061GF108991041061012501021001MD1110061+9999MW1611
0061108650999991928102006004+48183+011550FM-12+015599999V0209991C00001220001CN0010001N9+00501+00441101991ADDAA199000691AY141061GF102991999001999999031001KA1999N+00281
0051108650999991928102012004+48183+011550FM-12+015599999V0200901N00461220001CN0200001N9+02111+01171101321ADDAY101061GF101991001001999999001021MD1710201+9999
0064108650999991928102106004+48183+011550FM-12+015599999V0209991C00001220001CN0100001N9+00611+00561101401ADDAY111061GF106991001001999999031021KA1999N+00281MD1810061+9999
0057108650999991928102112004+48183+011550FM-12+015599999V0202701N006719999999N0040001N9+01281+01221101491ADDAY121061GF108991999061004501001001MD1310261+9999MW1501
0081108650999991928102206004+48183+011550FM-12+015599999V0209991C00001000151CN0000501N9+00721+00671101111ADDAA199000591AY141061GF108991081051000251999999KA1999N+00611MD1510141+9999MW1471
0043108650999991928102212004+48183+011550FM-12+015599999V0202701N00671001501CN0010001N9+01111+01061100871ADDAY121061GF108991081061001501999999MW1521
0064108650999991928102306004+48183+011550FM-12+015599999V0209991C00001007801CN0020001N9+00781+00721101391ADDAY121061GF108991081051008001999999KA1999N+00721MD1310061+9999
0051108650999991928102312004+48183+011550FM-12+015599999V0201801N00261220001CN0500001N9+01391+00721101191ADDAY111061GF106991999001999999031001MD1710061+9999
0064108650999991928102406004+48183+011550FM-12+015599999V0209999900101220001CN0040001N9+00391+00331102101ADDAY141061GF100991001001999999001001KA1999N+00221MD1310141+9999
0051108650999991928102412004+48183+011550FM-12+015599999V0200901N00101220001CN0500001N9+01781+00891101761ADDAY101061GF101991001001999999001021MD1810061+9999
0056108650999991928102506004+48183+011550FM-12+015599999V0209991C00001220001CN0020001N9+00221+00171102291ADDAY141061GF101991001001999999001091KA1999N+00001MW1421
0051108650999991928102512004+48183+011550FM-12+015599999V0209991C00001220001CN0500001N9+01781+00561101791ADDAY101061GF101991001001999999001081MD1810061+9999
0070108650999991928102606004+48183+011550FM-12+015599999V0209991C00001220001CN0002001N9+00111+00061101591ADDAY141061GF100991001001999999001001KA1999N+00111MD1810141+9999MW1441
0051108650999991928102612004+48183+011550FM-12+015599999V0200901N00101220001CN0040001N9+01501+00831100831ADDAY101061GF106991001001999999001081MD1710201+9999
0064108650999991928102706004+48183+011550FM-12+015599999V0209999900931220001CN0500001N9+01501+00611099491ADDAY111061GF106991001001999999021081KA1999N+00721MD1610141+9999
0051108650999991928102712004+48183+011550FM-12+015599999V0201101N00931220001CN0500001N9+02281+01061099181ADDAY111061GF104991021011022501001081MD1810141+9999
0064108650999991928102806004+48183+011550FM-12+015599999V0209999900101220001CN0500001N9+01221+00781099411ADDAY111061GF104991999001999999031001KA1999N+01001MD1410001+9999
0070108650999991928102812004+48183+011550FM-12+015599999V0202701N01541220001CN0500001N9+01221+00611100262ADDAY111061GF104991999001999999031001MD1210341+9999EQDQ01+100263APOSLP
0064108650999991928102906004+48183+011550FM-12+015599999V0209999900461036001CN0100001N9+00781+00561101591ADDAY111061GF107991021051022501021001KA1999N+00781MD1310201+9999
0037108650999991928102912004+48183+011550FM-12+015599999V0202701N00461012301CN0200001N9+01111+00671101701ADDAY111061GF107991061051012501021001
0056108650999991928103006004+48183+011550FM-12+015599999V0209999900101000151CN0000501N9-00111-00171102211ADDAY141061GF108991081051000251999999KA1999N-00221MW1471
0051108650999991928103012004+48183+011550FM-12+015599999V0200901N00671220001CN0200001N9+01391+00721101631ADDAY141061GF100991001001999999001001MD1810141+9999
0081108650999991928103106004+48183+011550FM-12+015599999V0209999900101220001CN0000501N9+00111+00061101631ADDAA199000391AY141061GF102991001001999999001081KA1999N+00001MD1810141+9999MW1441
0051108650999991928103112004+48183+011550FM-12+015599999V0200901N00671036001CN0100001N9+01111+00671100921ADDAY111061GF107991021011017501021001MD1710201+9999
0056108650999991928110106004+48183+011550FM-12+015599999V0209999900261012301CN0010001N9+00611+00561100401ADDAY141061GF107991061051012501031001KA1999N+00501MW1101
0051108650999991928110112004+48183+011550FM-12+015599999V0202901N00261220001CN0200001N9+01501+01061100421ADDAY101061GF102991011011017501031001MD1310141+9999
0067108650999991928110206004+48183+011550FM-12+015599999V0209999900261036001CN0005001N9+00391+00331100741ADDAA199000591AY141061GF106991041051012501031001KA1999N+00111MW1421
0037108650999991928110212004+48183+011550FM-12+015599999V0203601N00261220001CN0040001N9+01111+00891100671ADDAY141061GF104991041051012501001081
0056108650999991928110306004+48183+011550FM-12+015599999V0209999900101001501CN0005001N9+00611+00561101401ADDAY141061GF108991081051001501999999KA1999N+00391MW1451
0051108650999991928110312004+48183+011550FM-12+015599999V0200901N00101002401CN0020001N9+00781+00561101231ADDAY141061GF108991081051002501999999MD1810061+9999
0067108650999991928110406004+48183+011550FM-12+015599999V0209999900461001501CN0020001N9+00611+00561101011ADDAA199004091AY181061GF108991081061001501999999KA1999N+00501MW1501
0075108650999991928110506004+48183+011550FM-12+015599999V0209999900101220001CN0020001N9+00281+00221101401ADDAA199000691AY141061GF104991021051022501031001KA1999N+00221MD1210061+9999
0051108650999991928110512004+48183+011550FM-12+015599999V0202701N00261220001CN0500001N9+01111+00501101221ADDAY101061GF104991041011017501001001MD1810061+9999
0056108650999991928110606004+48183+011550FM-12+015599999V0209991C00001220001CN0010001N9+00221+00171101601ADDAY141061GF104991999001999999031001KA1999N+00001MW1101
0051108650999991928110612004+48183+011550FM-12+015599999V0203601N00101220001CN0100001N9+01001+00111101361ADDAY111061GF101991011011022501001001MD1990061+9999
0070108650999991928110706004+48183+011550FM-12+015599999V0209999900461000151CN0000501N9+00001-00061101201ADDAY141061GF108991081051000251999999KA1999N-00281MD1610141+9999MW1471
0051108650999991928110712004+48183+011550FM-12+015599999V0201101N00461036001CN0040001N9+00611+00391100781ADDAY121061GF106991041051004501021001MD1710141+9999
0070108650999991928110806004+48183+011550FM-12+015599999V0209999900461000151CN0000501N9+00281+00221100261ADDAY141061GF108991081051000251999999KA1999N+00221MD1810141+9999MW1451
0051108650999991928110812004+48183+011550FM-12+015599999V0200901N00261002401CN0020001N9+00611+00391100071ADDAY141061GF107991071051002501001001MD1810061+9999
0070108650999991928110906004+48183+011550FM-12+015599999V0209999900461000151CN0000001N9+00501-01781100401ADDAY141061GF108991081051000251999999KA1999N+00221MD1310141+9999MW1451
0076108650999991928110912004+48183+011550FM-12+015599999V0202901N00261000151CN0002001N9+00611+00562100551ADDAY141061GF108991081051000251999999MD1310061+9999MW1451EQDQ01+027883ATOD  
0081108650999991928111006004+48183+011550FM-12+015599999V0209999900461001501CN0020001N9+00391+00331101661ADDAA199008091AY161061GF108991081061001501999999KA1999N+00281MD1310261+9999MW1531
0057108650999991928111012004+48183+011550FM-12+015599999V0202901N00461001501CN0020001N9+00391+00331101981ADDAY161061GF108991081061001501999999MD1310061+9999MW1511
0061108650999991928111106004+48183+011550FM-12+015599999V0209999900101002401CN0020001N9+00391+00331102311ADDAA199000391AY121061GF108991081061002501999999KA1999N+00221
0051108650999991928111112004+48183+011550FM-12+015599999V0202701N01231004501CN0040001N9+00611+00221102111ADDAY121061GF108991081051004501999999MD1810141+9999
0064108650999991928111206004+48183+011550FM-12+015599999V0209999900261090001CN0020001N9+00391+00171102471ADDAY111061GF106991041051008001001091KA1999N+00281MD1310061+9999
0051108650999991928111212004+48183+011550FM-12+015599999V0202701N00931090001CN0500001N9+01001+00611102161ADDAY111061GF106991021011022501001081MD1610061+9999
0067108650999991928111306004+48183+011550FM-12+015599999V02099999001019999999N0010001N9+00391+00331102481ADDAA199000691AY141061GF106991999001004501021001KA1999N+00281MW1101
0051108650999991928111312004+48183+011550FM-12+015599999V0200901N00101220001CN0500001N9+01501+00831102031ADDAY101061GF101991001001999999001081MD1810141+9999
0056108650999991928111406004+48183+011550FM-12+015599999V0209999900101000601CN0010001N9+00611+00561101991ADDAY141061GF108991081051000751999999KA1999N+00501MW1101
