0064109350999991929080106004+47650+009483FM-12+040099999V0202301N00261220001CN0000501N9+01891+99999100711ADDAY111061GF106991999061999999011999KA1999N+01281MD1010061+9999
0070109350999991929080118004+47650+009483FM-12+040099999V0202901N00671220001CN0100001N9+01891+99999100751ADDAY111061GF108991999061999999011999KA1999M+02391MD1110141+9999MW1161
0075109350999991929080206004+47650+009483FM-12+040099999V0202901N00261021001CN0200001N9+01611+99999101311ADDAA199001091AY181061GF108991081061022501999999KA1999N+01281MD1310141+9999
0081109350999991929080218004+47650+009483FM-12+040099999V0200701N00101015001CN0200001N9+01611+99999101491ADDAA199000691AY111061GF108991081061017501999999IA1009KA1999M+02001MD1310061+9999
0075109350999991929080306004+47650+009483FM-12+040099999V0200201N001019999999N0100001N9+01281+99999101991ADDAA199005091AY181061GF106991021071008001999999KA1999N+01001MD1310141+9999
0064109350999991929080318004+47650+009483FM-12+040099999V0200701N00101220001CN0100001N9+02001+99999101681ADDAY111061GF101991011011999999001001KA1999M+02221MD1810141+9999
0064109350999991929080406004+47650+009483FM-12+040099999V0200201N00101220001CN0040001N9+01391+99999101591ADDAY101061GF100991001001999999001001KA1999N+00891MD1110061+9999
0064109350999991929080418004+47650+009483FM-12+040099999V0201601N00461220001CN0200001N9+02221+99999101051ADDAY111061GF104991001001999999001011KA1999M+02721MD1810061+9999
0070109350999991929080506004+47650+009483FM-12+040099999V0202701N00461021001CN0100001N9+01781+99999101191ADDAY111061GF108991081061022501999999KA1999N+01281MD1310061+9999MW1611
0075109350999991929080518004+47650+009483FM-12+040099999V0202701N00261012301CN0200001N9+01611+99999101821ADDAA199013091AY161061GF107991071061012501001001KA1999M+01721MD1310141+9999
0061109350999991929080606004+47650+009483FM-12+040099999V0200901N00101220001CN0100001N9+01611+99999102071ADDAA199001091AY101061GF104991021051008001011999KA1999N+01111
0064109350999991929080618004+47650+009483FM-12+040099999V0203201N00101220001CN0500001N9+02111+99999101491ADDAY101061GF101991001001999999001011KA1999M+02391MD1810061+9999
0050109350999991929080706004+47650+009483FM-12+040099999V0209991C00001220001CN0100001N9+01611+99999101561ADDAY101061GF102991001001999999001011KA1999N+00891
0064109350999991929080718004+47650+009483FM-12+040099999V0202301N00101220001CN0500001N9+02281+99999100911ADDAY101061GF106991001999999999001081KA1999M+02501MD1810141+9999
0064109350999991929080806004+47650+009483FM-12+040099999V0202301N00261220001CN0100001N9+01781+99999101421ADDAY111061GF107991001001999999011081KA1999N+01391MD1010201+9999
0075109350999991929080818004+47650+009483FM-12+040099999V0202501N00461012301CN0100001N9+02111+99999101131ADDAA199000691AY121061GF108991081061012501999999KA1999M+02391MD1310061+9999
0061109350999991929080906004+47650+009483FM-12+040099999V0203601N00261012301CN0040001N9+01501+99999101591ADDAA199002091AY121061GF108991081061012501999999KA1999N+01391
0075109350999991929080918004+47650+009483FM-12+040099999V0200201N00461015001CN0040001N9+01611+99999101471ADDAA199003091AY181061GF108991081061017501999999KA1999M+01721MD1410001+9999
0081109350999991929081006004+47650+009483FM-12+040099999V0203401N00101007801CN0020001N9+01391+99999101671ADDAA199012091AY161061GF108991081061008001999999KA1999N+01281MD1310061+9999MW1631
0081109350999991929081018004+47650+009483FM-12+040099999V0203201N00101012301CN0040001N9+01501+99999102001ADDAA199012091AY161061GF108991081061012501999999KA1999M+01611MD1310061+9999MW1611
0075109350999991929081106004+47650+009483FM-12+040099999V0200201N00461012301CN0040001N9+01501+99999102071ADDAA199000391AY121061GF108991081061012501999999KA1999N+01281MD1310061+9999
0064109350999991929081118004+47650+009483FM-12+040099999V0200201N00101007801CN0040001N9+01891+99999101861ADDAY121061GF108991081061008001999999KA1999M+01891MD1810061+9999
0064109350999991929081206004+47650+009483FM-12+040099999V0202001N00101012301CN0020001N9+01721+99999101991ADDAY121061GF108991081061012501999999KA1999N+01501MD1310061+9999
0050109350999991929081218004+47650+009483FM-12+040099999V0203201N001010360019N0040001N9+01891+99999101961ADDAY111061GF108991041051012501011999KA1999M+02221
0075109350999991929081306004+47650+009483FM-12+040099999V0200201N002619999999N0020001N9+01721+99999102261ADDAA199004091AY111061GF106991041071008001999999KA1999N+01501MD1310061+9999
0050109350999991929081318004+47650+009483FM-12+040099999V0200201N00261220001CN0040001N9+02221+99999102071ADDAY111061GF100991001001999999001001KA1999M+02501
0064109350999991929081406004+47650+009483FM-12+040099999V0200501N00101002401CN0040001N9+01611+99999102181ADDAY111061GF108991081051002501999999KA1999N+01221MD1310061+9999
0064109350999991929081418004+47650+009483FM-12+040099999V0201801N00101220001CN0040001N9+02221+99999101831ADDAY101061GF100991001001999999001001KA1999M+02501MD1810061+9999
0050109350999991929081506004+47650+009483FM-12+040099999V0200901N00101220001CN0040001N9+01781+99999101791ADDAY101061GF104991999051999999031999KA1999N+01281
0075109350999991929081518004+47650+009483FM-12+040099999V0201801N00261015001CN0100001N9+02281+99999101461ADDAA199000691AY111061GF108991061061017501011999KA1999M+02611MD1610061+9999
0075109350999991929081606004+47650+009483FM-12+040099999V0200901N00101220001CN0100001N9+01781+99999101741ADDAA199000591AY111061GF101991999001999999031001KA1999N+01281MD1310141+9999
0064109350999991929081618004+47650+009483FM-12+040099999V0202301N00101220001CN0200001N9+02281+99999101351ADDAY101061GF102991011011999999001011KA1999M+02611MD1810141+9999
0064109350999991929081706004+47650+009483FM-12+040099999V0202701N00261220001CN0100001N9+01891+99999101661ADDAY101061GF102991001001999999031081KA1999N+01281MD1310261+9999
0061109350999991929081718004+47650+009483FM-12+040099999V0201401N00261220001CN0200001N9+01891+99999101701ADDAA199000691AY181061GF104991001001999999011011KA1999M+02721
0050109350999991929081806004+47650+009483FM-12+040099999V0203601N001012200019N0100001N9+01721+99999101711ADDAY111061GF106991041051017501001011KA1999N+01281
0081109350999991929081818004+47650+009483FM-12+040099999V0209991C00001012301CN0040001N9+01781+99999101821ADDAA199005091AY181061GF108991081061012501999999KA1999M+02281MD1210141+9999MW1621
0081109350999991929081906004+47650+009483FM-12+040099999V0202701N00261012301CN0040001N9+01501+99999101821ADDAA199017091AY161061GF108991081061012501999999KA1999N+01391MD1310061+9999MW1631
0067109350999991929081918004+47650+009483FM-12+040099999V0200501N00261012301CN0040001N9+01391+99999102021ADDAA199022091AY161061GF108991081061012501999999KA1999M+01501MW1511
0067109350999991929082006004+47650+009483FM-12+040099999V0203201N00261004501CN0020001N9+01221+99999101991ADDAA199010091AY161061GF108991081061004501999999KA1999N+01221MW1611
0061109350999991929082018004+47650+009483FM-12+040099999V0200201N00101007801CN0040001N9+01281+99999102031ADDAA199002091AY121061GF108991081061008001999999KA1999M+01391
0075109350999991929082106004+47650+009483FM-12+040099999V0200501N00261012301CN0040001N9+01221+99999102121ADDAA199000691AY111061GF108991081061012501999999KA1999N+01111MD1310141+9999
0050109350999991929082118004+47650+009483FM-12+040099999V0203201N00101007801CN0040001N9+01391+99999102221ADDAY121061GF108991081051008001999999KA1999M+01611
0062109350999991929082206004+47650+009483FM-12+040099999V0200201N00101002401CN0020001N9+01111+99999102401ADDGF108991081051002501999999KA1999N+00781MD1310141+9999MW1281
0064109350999991929082218004+47650+009483FM-12+040099999V0209991C00001021001CN0040001N9+01611+99999102061ADDAY111061GF107991071051022501001001KA1999M+01891MD1810061+9999
0081109350999991929082306004+47650+009483FM-12+040099999V0200201N00101007801CN0020001N9+01281+99999102351ADDAA199002091AY161061GF108991081061008001999999KA1999N+01111MD1310141+9999MW1601
0061109350999991929082318004+47650+009483FM-12+040099999V0202001N00101220001CN0040001N9+01721+99999102441ADDAA199000391AY111061GF104991041051017501001011KA1999M+02001
0050109350999991929082406004+47650+009483FM-12+040099999V0209991C00001220001CN0040001N9+01501+99999102501ADDAY121061GF108991001001999999011999KA1999N+01281
0064109350999991929082418004+47650+009483FM-12+040099999V0202301N00101220001CN0200001N9+01891+99999102141ADDAY111061GF101991999001999999011001KA1999M+02281MD1810141+9999
0064109350999991929082506004+47650+009483FM-12+040099999V0200201N00101220001CN0040001N9+01391+99999102241ADDAY111061GF104991021051001501001011KA1999N+01111MD1310061+9999
0064109350999991929082518004+47650+009483FM-12+040099999V0209991C00001220001CN0200001N9+02111+99999101911ADDAY111061GF101991011011999999001001KA1999M+02611MD1610141+9999
0064109350999991929082606004+47650+009483FM-12+040099999V0209991C00001002401CN0040001N9+01721+99999102141ADDAY111061GF108991081051002501999999KA1999N+01391MD1010061+9999
0064109350999991929082618004+47650+009483FM-12+040099999V0200201N00461220001CN0040001N9+02221+99999101821ADDAY111061GF104991001001999999031011KA1999M+02721MD1810061+9999
0064109350999991929082706004+47650+009483FM-12+040099999V0200701N00261004501CN0040001N9+01501+99999101941ADDAY111061GF108991081051004501999999KA1999N+01281MD1310061+9999
0064109350999991929082718004+47650+009483FM-12+040099999V0209991C00001220001CN0100001N9+02111+99999101511ADDAY101061GF100991001001999999001001KA1999M+02391MD1810141+9999
0064109350999991929082806004+47650+009483FM-12+040099999V0200201N00101220001CN0200001N9+01891+99999101761ADDAY101061GF100991001001999999001001KA1999N+01281MD1310141+9999
0064109350999991929082818004+47650+009483FM-12+040099999V0201601N00101220001CN0040001N9+02391+99999101641ADDAY111061GF104991041031022501001011KA1999M+02781MD1810061+9999
0064109350999991929082906004+47650+009483FM-12+040099999V0200501N00101220001CN0040001N9+01891+99999102071ADDAY101061GF102991001001999999001011KA1999N+01501MD1310141+9999
0050109350999991929082918004+47650+009483FM-12+040099999V0209991C00001220001CN0100001N9+02391+99999101711ADDAY101061GF102991021061999999999999KA1999M+02391
0064109350999991929083006004+47650+009483FM-12+040099999V0200201N00101220001CN0040001N9+01891+99999101921ADDAY101061GF104991001001999999001011KA1999N+01501MD1310141+9999
0064109350999991929083018004+47650+009483FM-12+040099999V0201801N00101220001CN0100001N9+02281+99999101641ADDAY101061GF102991021031999999001001KA1999M+02721MD1810061+9999
0064109350999991929083106004+47650+009483FM-12+040099999V0200201N00101220001CN0100001N9+01781+99999101821ADDAY101061GF100991001001999999001001KA1999N+01391MD1210201+9999
0050109350999991929083118004+47650+009483FM-12+040099999V0202701N00101220001CN0100001N9+02501+99999101451ADDAY101061GF104991011011999999001011KA1999M+02781
0064109350999991929090106004+47650+009483FM-12+040099999V0209991C00001220001CN9999999N9+02001+99999101711ADDAY101061GF101991011051017501001001KA1999N+01501MD1310141+9999
0064109350999991929090118004+47650+009483FM-12+040099999V0209991C00001220001CN0200001N9+02391+99999101721ADDAY101061GF102991011011012501001011KA1999M+02781MD1510061+9999
0064109350999991929090206004+47650+009483FM-12+040099999V0200701N00261220001CN0040001N9+01891+99999101981ADDAY101061GF101991001001999999001011KA1999N+01501MD1310141+9999
0050109350999991929090218004+47650+009483FM-12+040099999V0200201N00101220001CN0100001N9+02611+99999101621ADDAY101061GF104991001001999999001011KA1999M+03001
0050109350999991929090306004+47650+009483FM-12+040099999V0200501N00101220001CN0040001N9+02001+99999101831ADDAY101061GF100991001001999999001001KA1999N+01501
0064109350999991929090318004+47650+009483FM-12+040099999V0200201N00101220001CN0040001N9+02391+99999101331ADDAY111061GF102991001001999999001011KA1999M+02891MD1610141+9999
0064109350999991929090406004+47650+009483FM-12+040099999V0200201N00101220001CN0500001N9+02001+99999101541ADDAY101061GF100991001001999999001001KA1999N+01611MD1310061+9999
0064109350999991929090418004+47650+009483FM-12+040099999V0201401N001012200019N0100001N9+02281+99999101371ADDAY111061GF106991021051017501001011KA1999M+02781MD1010001+9999
0064109350999991929090506004+47650+009483FM-12+040099999V0200201N00101220001CN0100001N9+01781+99999101781ADDAY111061GF102991001001999999031011KA1999N+01281MD1110141+9999
0050109350999991929090518004+47650+009483FM-12+040099999V0200201N001012200019N0100001N9+02221+99999101641ADDAY111061GF107991021031017501001011KA1999M+02721
0064109350999991929090606004+47650+009483FM-12+040099999V0209991C00001220001CN0040001N9+01781+99999101951ADDAY111061GF102991021031017501001011KA1999N+01391MD1310061+9999
0050109350999991929090618004+47650+009483FM-12+040099999V0209991C000012200019N0100001N9+02391+99999101721ADDAY111061GF106991021051017501001011KA1999M+02721
0064109350999991929090706004+47650+009483FM-12+040099999V0200201N00101012301CN0020001N9+01611+99999102421ADDAY121061GF108991061061012501011999KA1999N+01501MD1310141+9999
0050109350999991929090718004+47650+009483FM-12+040099999V0200701N00101220001CN0040001N9+01721+99999102471ADDAY101061GF102991001001999999001011KA1999M+02111
0064109350999991929090806004+47650+009483FM-12+040099999V0200201N00101220001CN0040001N9+01001+99999102661ADDAY101061GF100991001001999999001001KA1999N+00611MD1310061+9999
0064109350999991929090818004+47650+009483FM-12+040099999V0200201N00101220001CN0200001N9+01721+99999102191ADDAY111061GF102991001001999999001011KA1999M+02391MD1810061+9999
0064109350999991929090906004+47650+009483FM-12+040099999V0200201N00261220001CN0100001N9+01281+99999102001ADDAY101061GF100991001001999999001001KA1999N+00781MD1810061+9999
0050109350999991929090918004+47650+009483FM-12+040099999V0202301N00101220001CN0100001N9+02111+99999101461ADDAY101061GF102991999001999999031001KA1999M+02391
0064109350999991929091006004+47650+009483FM-12+040099999V0203601N00261220001CN0040001N9+01721+99999101831ADDAY101061GF100991001001999999001001KA1999N+01281MD1310141+9999
0050109350999991929091018004+47650+009483FM-12+040099999V0203601N00261220001CN0040001N9+02221+99999101761ADDAY101061GF102991001001999999011011KA1999M+02611
0064109350999991929091106004+47650+009483FM-12+040099999V0200201N00261220001CN0040001N9+01611+99999102191ADDAY101061GF100991001001999999001001KA1999N+01281MD1310141+9999
0064109350999991929091118004+47650+009483FM-12+040099999V0200201N00261220001CN0040001N9+02221+99999101831ADDAY111061GF106991001001999999001011KA1999M+02721MD1610141+9999
0064109350999991929091206004+47650+009483FM-12+040099999V0203601N00261220001CN0040001N9+01611+99999102261ADDAY111061GF101991001001999999001011KA1999N+01221MD1310061+9999
0064109350999991929091218004+47650+009483FM-12+040099999V0200501N00101220001CN0040001N9+02281+99999101821ADDAY111061GF100991001001999999001001KA1999M+02611MD1810141+9999
0064109350999991929091306004+47650+009483FM-12+040099999V0203601N00101220001CN0020001N9+01721+99999101961ADDAY111061GF104991001001999999031011KA1999N+01391MD1310061+9999
0064109350999991929091318004+47650+009483FM-12+040099999V0203601N00101220001CN0100001N9+02111+99999101491ADDAY101061GF104991011031012501001011KA1999M+02611MD1810061+9999
0050109350999991929091406004+47650+009483FM-12+040099999V0200501N00101021001CN0100001N9+01891+99999101631ADDAY111061GF106991061001022501031001KA1999N+01611
0075109350999991929091418004+47650+009483FM-12+040099999V0200201N001010360019N0040001N9+01891+99999101661ADDAA199000691AY111061GF106991041061008001011999KA1999M+02501MD1110061+9999
0064109350999991929091506004+47650+009483FM-12+040099999V0200201N00101001501CN0010001N9+01611+99999102001ADDAY121061GF108991081051001501999999KA1999N+01281MD1310141+9999
0050109350999991929091518004+47650+009483FM-12+040099999V0203201N00101220001CN0100001N9+02111+99999101841ADDAY101061GF101991999001999999031001KA1999M+02391
0070109350999991929091606004+47650+009483FM-12+040099999V0203601N00261001501CN0005001N9+01391+99999102061ADDAY121061GF106991061051001501001001KA1999N+01281MD1310141+9999MW1411
0064109350999991929091618004+47650+009483FM-12+040099999V0200201N00101220001CN0040001N9+02111+99999101591ADDAY111061GF100991001001999999001001KA1999M+02501MD1610061+9999
0064109350999991929091706004+47650+009483FM-12+040099999V0200201N00261004501CN0040001N9+01391+99999101821ADDAY111061GF108991081051004501999999KA1999N+01281MD1310061+9999
0064109350999991929091718004+47650+009483FM-12+040099999V0209991C00001220001CN0040001N9+01891+99999101451ADDAY111061GF104991001001999999001011KA1999M+02221MD1810061+9999
0064109350999991929091806004+47650+009483FM-12+040099999V0200201N00261004501CN0040001N9+01391+99999101471ADDAY111061GF108991081051004501999999KA1999N+01221MD1310061+9999
0050109350999991929091818004+47650+009483FM-12+040099999V0202701N00261220001CN0040001N9+02001+99999101131ADDAY111061GF104991021051017501001011KA1999M+02281
0064109350999991929091906004+47650+009483FM-12+040099999V0209991C00001220001CN0040001N9+01781+99999101451ADDAY111061GF107991999051999999031999KA1999N+01501MD1310061+9999
0050109350999991929091918004+47650+009483FM-12+040099999V0201801N001010360019N0100001N9+02111+99999101301ADDAY111061GF106991041051012501031999KA1999M+02391
0061109350999991929092006004+47650+009483FM-12+040099999V0209991C00001220001CN0100001N9+01721+99999101501ADDAA199002091AY111061GF106991999051999999001001KA1999N+01391
0075109350999991929092018004+47650+009483FM-12+040099999V0202701N00461012301CN0040001N9+02111+99999100581ADDAA199000691AY111061GF106991061051012501001001KA1999M+02391MD1610141+9999
0075109350999991929092106004+47650+009483FM-12+040099999V0202501N00671015001CN0200001N9+01221+99999101711ADDAA199008091AY121061GF108991081061017501999999KA1999N+01001MD1310141+9999
0050109350999991929092118004+47650+009483FM-12+040099999V0202501N00261012301CN0100001N9+01501+99999101621ADDAY111061GF107991071051012501001001KA1999M+01781
0064109350999991929092206004+47650+009483FM-12+040099999V0202701N00461012301CN0100001N9+01221+99999101901ADDAY121061GF107991061061012501999999KA1999N+01221MD1310141+9999
0064109350999991929092218004+47650+009483FM-12+040099999V0203201N00101220001CN0100001N9+01391+99999102161ADDAY111061GF104991021051017501011999KA1999M+02001MD1310141+9999
0064109350999991929092306004+47650+009483FM-12+040099999V0209991C00001220001CN0100001N9+01001+99999102671ADDAY111061GF106991001999999999001011KA1999N+00721MD1310061+9999
0061109350999991929092318004+47650+009483FM-12+040099999V0201401N00101015001CN0040001N9+01281+99999102681ADDAA199000691AY121061GF108991081061017501999999KA1999M+01611
0050109350999991929092406004+47650+009483FM-12+040099999V0200201N00101012301CN0040001N9+01281+99999102541ADDAY121061GF108991081061012501999999KA1999N+01111
0064109350999991929092418004+47650+009483FM-12+040099999V0200501N00261220001CN0100001N9+01221+99999102631ADDAY111061GF101991999001999999011001KA1999M+01781MD1310141+9999
0064109350999991929092506004+47650+009483FM-12+040099999V0200201N00461220001CN0200001N9+00781+99999102921ADDAY101061GF100991001001999999001001KA1999N+00391MD1310061+9999
0064109350999991929092518004+47650+009483FM-12+040099999V0200201N00461220001CN0200001N9+01221+99999103111ADDAY101061GF100991001001999999001001KA1999M+01781MD1310061+9999
0064109350999991929092606004+47650+009483FM-12+040099999V0200201N00261220001CN0100001N9+00721+99999103441ADDAY101061GF100991001001999999001001KA1999N+00391MD1310141+9999
0050109350999991929092618004+47650+009483FM-12+040099999V0200201N00101220001CN0040001N9+01281+99999103001ADDAY101061GF100991001001999999001001KA1999M+01611
0064109350999991929092706004+47650+009483FM-12+040099999V0200201N00261002401CN0040001N9+00721+99999103081ADDAY121061GF108991081051002501999999KA1999N+00391MD1310061+9999
0050109350999991929092718004+47650+009483FM-12+040099999V0209991C00001220001CN0040001N9+01221+99999102601ADDAY101061GF100991001001999999001001KA1999M+01781
0064109350999991929092806004+47650+009483FM-12+040099999V0203601N00261002401CN0040001N9+00721+99999102751ADDAY111061GF107991071051002501001001KA1999N+00391MD1310061+9999
0064109350999991929092818004+47650+009483FM-12+040099999V0209991C00001220001CN0040001N9+01281+99999102421ADDAY101061GF102991001001999999001011KA1999M+01721MD1610061+9999
0070109350999991929092906004+47650+009483FM-12+040099999V0200201N00101000151CN0000501N9+00781+99999102741ADDAY101061GF108991081051000251999999KA1999N+00391MD1110061+9999MW1441
0064109350999991929092918004+47650+009483FM-12+040099999V0202001N00101220001CN0100001N9+01391+99999102471ADDAY111061GF102991001001999999001011KA1999M+01781MD1610061+9999
0064109350999991929093006004+47650+009483FM-12+040099999V0200201N00261220001CN0040001N9+01001+99999102681ADDAY101061GF104991041051017501001001KA1999N+00611MD1310061+9999
0050109350999991929093018004+47650+009483FM-12+040099999V0201401N00101220001CN0100001N9+01391+99999102341ADDAY101061GF104991001001999999001011KA1999M+01891
0050109350999991929100106004+47650+009483FM-12+040099999V0200501N00101220001CN0100001N9+00891+99999102281ADDAY111061GF107991999051999999011999KA1999N+00391
0061109350999991929100118004+47650+009483FM-12+040099999V0202301N001019999999N0100001N9+01721+99999101951ADDAA199000691AY121061GF107991041061012501999999KA1999M+01891
0069109350999991929100206004+47650+009483FM-12+040099999V0201801N002610360019N0200001N9+01501+99999101761ADDAY111061GF107991041051022501011999KA1999N+99999EQDQ01 +01722ATMN  
0050109350999991929100218004+47650+009483FM-12+040099999V0202001N00671220001CN0200001N9+01891+99999101581ADDAY111061GF106991001001999999011011KA1999M+02221
0050109350999991929100306004+47650+009483FM-12+040099999V0201601N00261220001CN0200001N9+01611+99999101521ADDAY111061GF104991001001999999001011KA1999N+01391
0064109350999991929100318004+47650+009483FM-12+040099999V0202001N00461220001CN0100001N9+02001+99999101261ADDAY111061GF104991021051017501001011KA1999M+02501MD1310141+9999
0064109350999991929100406004+47650+009483FM-12+040099999V0209991C00001220001CN0200001N9+01281+99999101721ADDAY101061GF100991001001999999001001KA1999N+00891MD1310141+9999
0050109350999991929100418004+47650+009483FM-12+040099999V0201401N00101220001CN0200001N9+01721+99999101291ADDAY101061GF100991001001999999001001KA1999M+02391
0064109350999991929100506004+47650+009483FM-12+040099999V0209991C00001220001CN0200001N9+01221+99999101221ADDAY101061GF100991001001999999001001KA1999N+00611MD1310061+9999
0050109350999991929100518004+47650+009483FM-12+040099999V0201801N00931220001CN0500001N9+01891+99999100771ADDAY111061GF104991021011012501001011KA1999M+02501
0050109350999991929100606004+47650+009483FM-12+040099999V0209991C000010360019N0200001N9+01611+99999100391ADDAY111061GF106991021051017501011999KA1999N+00891
0064109350999991929100618004+47650+009483FM-12+040099999V0202701N001010360019N0200001N9+01721+99999100461ADDAY111061GF107991041051017501011999KA1999M+02281MD1310141+9999
0050109350999991929100706004+47650+009483FM-12+040099999V0200501N00101012301CN0200001N9+01111+99999101661ADDAY111061GF108991071051012501011999KA1999N+01001
0075109350999991929100718004+47650+009483FM-12+040099999V0200201N00101012301CN0100001N9+01001+99999101711ADDAA199002091AY161061GF108991081061012501999999KA1999M+01501MD1810061+9999
0061109350999991929100806004+47650+009483FM-12+040099999V0200501N00101007801CN0040001N9+00891+99999101391ADDAA199001091AY121061GF108991081051008001999999KA1999N+00721
0064109350999991929100818004+47650+009483FM-12+040099999V0203201N00101220001CN0040001N9+01221+99999101021ADDAY111061GF107991999061999999011999KA1999M+01391MD1810061+9999
0075109350999991929100906004+47650+009483FM-12+040099999V0202501N00461012301CN0200001N9+01281+99999101211ADDAA199007091AY121061GF107991061061012501061999KA1999N+01001MD1310201+9999
0075109350999991929100918004+47650+009483FM-12+040099999V0202501N00671220001CN0200001N9+01001+99999102121ADDAA199000691AY111061GF102991021051012501001001KA1999M+01611MD1310201+9999
0089109350999991929101006004+47650+009483FM-12+040099999V0202701N00671007801CN0020001N9+00611+99999102831ADDAY111061GF108991081061008001999999KA1999N+99999MD1310261+9999MW1631EQDQ01 +00722ATMN  
0075109350999991929101018004+47650+009483FM-12+040099999V0202501N00461012301CN0200001N9+00781+99999103071ADDAA199004091AY181061GF108991081061012501999999KA1999M+00891MD1310141+9999
0061109350999991929101106004+47650+009483FM-12+040099999V0202701N00261012301CN0200001N9+00891+99999103101ADDAA199002091AY121061GF107991061061012501011999KA1999N+00721
0061109350999991929101118004+47650+009483FM-12+040099999V0202501N00461012301CN0200001N9+01111+99999102961ADDAA199000591AY181061GF108991081061012501999999KA1999M+01221
0061109350999991929101206004+47650+009483FM-12+040099999V0202701N00461012301CN0100001N9+01111+99999102791ADDAA199002091AY121061GF108991081061012501999999KA1999N+01001
0064109350999991929101218004+47650+009483FM-12+040099999V0202501N002610360019N0200001N9+01281+99999102911ADDAY111061GF106991041051022501011999KA1999M+01501MD1310141+9999
0064109350999991929101306004+47650+009483FM-12+040099999V0200201N00101004501CN0100001N9+00501+99999103161ADDAY111061GF108991081051004501999999KA1999N+00391MD1310141+9999
0050109350999991929101318004+47650+009483FM-12+040099999V0200201N00101220001CN0040001N9+01221+99999102941ADDAY101061GF100991001001999999001001KA1999M+01501
0064109350999991929101406004+47650+009483FM-12+040099999V0209991C00001220001CN0020001N9+00611+99999103061ADDAY111061GF106991001001999999001011KA1999N+00391MD1310141+9999
0064109350999991929101418004+47650+009483FM-12+040099999V0202701N00101220001CN0040001N9+01001+99999102951ADDAY101061GF102991001001999999001011KA1999M+01391MD1310141+9999
0081109350999991929101506004+47650+009483FM-12+040099999V0203601N00101000601CN0000501N9+00611+99999103111ADDAA199000691AY111061GF109991091999000751999999KA1999N+00501MD1310061+9999MW1441
0056109350999991929101518004+47650+009483FM-12+040099999V0202301N00101000151CN0000501N9+00891+99999102741ADDAY141061GF109991091999000251999999KA1999M+01001MW1441
0067109350999991929101606004+47650+009483FM-12+040099999V0203601N00101000151CN0000501N9+00721+99999102551ADDAA199000391AY141061GF109991091999000251999999KA1999N+00281MW1441
0056109350999991929101618004+47650+009483FM-12+040099999V0202301N00101220001CN0005001N9+00781+99999102241ADDAY101061GF100991001001999999001001KA1999M+01221MW1461
0081109350999991929101706004+47650+009483FM-12+040099999V0200501N00101000151CN0000501N9+00721+99999102361ADDAA199000391AY141061GF109991091999000251999999KA1999N+00721MD1310061+9999MW1441
0050109350999991929101718004+47650+009483FM-12+040099999V0203601N00261220001CN0020001N9+00891+99999102071ADDAY111061GF104991001001999999011011KA1999M+01281
0067109350999991929101806004+47650+009483FM-12+040099999V0203601N00101000151CN0000501N9+00721+99999101701ADDAA199000691AY161061GF109991091999000251999999KA1999N+00501MW1441
0062109350999991929101818004+47650+009483FM-12+040099999V0200201N00101220001CN0010001N9+01001+99999101061ADDGF104991001001999999011011KA1999M+01111MD1810201+9999MW1411
0075109350999991929101906004+47650+009483FM-12+040099999V0203601N00101220001CN0020001N9+00781+99999100351ADDAA199000691AY111061GF104991021051017501011999KA1999N+00611MD1810261+9999
0067109350999991929101918004+47650+009483FM-12+040099999V0202501N00931007801CN0040001N9+00781+99999100621ADDAA199010091AY161061GF108991081061008001999999KA1999M+01281MW1651
0081109350999991929102006004+47650+009483FM-12+040099999V0202501N00931004501CN0040001N9+00501+99999100781ADDAA199022091AY161061GF108991081061004501999999KA1999N+00501MD1110141+9999MW1631
0048109350999991929102018004+47650+009483FM-12+040099999V0202701N00671015001CN0200001N9+00721+99999100781ADDAA199001091AY161061GF108991061061017501011999
0050109350999991929102106004+47650+009483FM-12+040099999V0200201N00261220001CN0200001N9+00221+99999100731ADDAY111061GF106991001001999999011011KA1999N+00001
0064109350999991929102118004+47650+009483FM-12+040099999V0200201N00261015001CN0200001N9+01001+99999100821ADDAY111061GF106991061051017501001001KA1999M+01281MD1310141+9999
0050109350999991929102206004+47650+009483FM-12+040099999V0203601N00101007801CN0040001N9+00501+99999101411ADDAY111061GF108991081051008001999999KA1999N+00281
0050109350999991929102218004+47650+009483FM-12+040099999V0209991C00001220001CN0100001N9+00891+99999101071ADDAY111061GF104991041051008001001001KA1999M+01501
0050109350999991929102306004+47650+009483FM-12+040099999V0203601N001010360019N0040001N9+00611+99999100991ADDAY111061GF107991041051017501031999KA1999N+00501
0073109350999991929102318004+47650+009483FM-12+040099999V0209991C00001021001CN0100001N9+01111+99999101091ADDAA199000691GF108991071061022501011999KA1999M+01501MD1410001+9999MW1601
0067109350999991929102406004+47650+009483FM-12+040099999V0203601N00101012301CN0040001N9+01001+99999100981ADDAA199000391AY111061GF108991071061012501011999KA1999N+00781MW1501
0064109350999991929102418004+47650+009483FM-12+040099999V0203201N00101004501CN0040001N9+01221+99999100511ADDAY121061GF107991071051004501001001KA1999M+01391MD1610061+9999
0067109350999991929102506004+47650+009483FM-12+040099999V0202001N00261000151CN0002001N9+00891+99999100391ADDAA199000691AY111061GF109991091999000251999999KA1999N+00611MW1421
0081109350999991929102518004+47650+009483FM-12+040099999V0202701N00461007801CN0020001N9+00781+99999100631ADDAA199006091AY161061GF108991081061008001999999KA1999M+01391MD1310261+9999MW1631
0075109350999991929102606004+47650+009483FM-12+040099999V0203601N00101220001CN0040001N9+00391+99999100151ADDAA199006091AY111061GF102991001001999999001081KA1999N+00281MD1610061+9999
0075109350999991929102618004+47650+009483FM-12+040099999V0203401N00101021001CN0200001N9+00891+99999099951ADDAA199000691AY111061GF108991081061022501999999KA1999M+01221MD1310201+9999
0081109350999991929102706004+47650+009483FM-12+040099999V0202501N00671015001CN0040001N9+00501+99999100901ADDAA199011091AY161061GF108991081061017501999999KA1999N+00391MD1310261+9999MW1891
0061109350999991929102718004+47650+009483FM-12+040099999V0200701N00261015001CN0040001N9+00501+99999101091ADDAA199002091AY161061GF108991081061017501999999KA1999M+00721
0081109350999991929102806004+47650+009483FM-12+040099999V0203601N00101220001CN0002001N9+00001+99999102041ADDAA199004091AY111061GF102991021051012501001001KA1999N-00111MD1310261+9999MW1461
0064109350999991929102818004+47650+009483FM-12+040099999V0202701N00101220001CN0040001N9+00391+99999101921ADDAY121061GF108991001001999999001081KA1999M+00781MD1610061+9999
0064109350999991929102906004+47650+009483FM-12+040099999V0209991C00001012301CN0200001N9+00501+99999100991ADDAY111061GF108991061061012501011999KA1999N+00221MD1810261+9999
0075109350999991929102918004+47650+009483FM-12+040099999V0202701N00461220001CN0200001N9+00891+99999100711ADDAA199007091AY161061GF102991021999999999999999KA1999M+01221MD1210261+9999
0061109350999991929103006004+47650+009483FM-12+040099999V0202001N00671220001CN0200001N9+00891+99999100691ADDAA199000591AY111061GF104991021051017501001011KA1999N+00501
0075109350999991929103018004+47650+009483FM-12+040099999V0202501N00461015001CN0200001N9+00891+99999100871ADDAA199000691AY111061GF108991081061017501999999KA1999M+01111MD1310141+9999
0064109350999991929103106004+47650+009483FM-12+040099999V0203401N001010360019N0040001N9+00611+99999101451ADDAY111061GF108991041051004501011999KA1999N+00501MD1310141+9999
0075109350999991929103118004+47650+009483FM-12+040099999V0200201N00461012301CN0040001N9+00781+99999101711ADDAA199000691AY111061GF108991081061012501999999KA1999M+01001MD1310141+9999
0075109350999991929110106004+47650+009483FM-12+040099999V0200201N00261007801CN0040001N9+00611+99999102021ADDAA199000691AY111061GF107991061061008001011999KA1999N+00501MD1310141+9999
0064109350999991929110118004+47650+009483FM-12+040099999V0200501N00261220001CN0040001N9+00611+99999101911ADDAY121061GF102991021061008001001001KA1999M+00891MD1810141+9999
0075109350999991929110206004+47650+009483FM-12+040099999V0200501N00261007801CN0100001N9+00721+99999101911ADDAA199002091AY121061GF108991081061008001999999KA1999N+00611MD1310141+9999
0075109350999991929110218004+47650+009483FM-12+040099999V0203601N00101007801CN0040001N9+00721+99999102361ADDAA199000391AY121061GF108991061061008001011999KA1999M+00891MD1310141+9999
0050109350999991929110306004+47650+009483FM-12+040099999V0200201N00101007801CN0040001N9+00721+99999102271ADDAY121061GF108991081051008001999999KA1999N+00611
0070109350999991929110318004+47650+009483FM-12+040099999V0203601N00101007801CN0040001N9+00721+99999102281ADDAY121061GF108991081061008001999999KA1999M+00781MD1310141+9999MW1461
0075109350999991929110406004+47650+009483FM-12+040099999V0203401N00101007801CN0040001N9+00501+99999103081ADDAA199001091AY121061GF108991061061008001011999KA1999N+00391MD1310141+9999
0064109350999991929110418004+47650+009483FM-12+040099999V0203401N00261007801CN0040001N9+00721+99999103181ADDAY111061GF108991081051008001999999KA1999M+00781MD1310061+9999
0064109350999991929110506004+47650+009483FM-12+040099999V0200501N00101007801CN0040001N9+00221+99999102901ADDAY121061GF108991081051008001999999KA1999N+00111MD1810061+9999
0064109350999991929110518004+47650+009483FM-12+040099999V0200501N00101007801CN0040001N9+00501+99999102341ADDAY121061GF108991081051008001999999KA1999M+00611MD1810201+9999
0050109350999991929110606004+47650+009483FM-12+040099999V0203601N00101007801CN0040001N9+00391+99999101631ADDAY121061GF108991071051008001011999KA1999N+00281
0050109350999991929110618004+47650+009483FM-12+040099999V0203601N00101007801CN0020001N9+00281+99999101311ADDAY111061GF108991081051008001999999KA1999M+00501
0064109350999991929110706004+47650+009483FM-12+040099999V0200901N00261007801CN0010001N9+00221+99999101831ADDAY121061GF108991081051008001999999KA1999N+00221MD1310141+9999
0064109350999991929110718004+47650+009483FM-12+040099999V0203601N00101012301CN0020001N9+00501+99999101981ADDAY111061GF108991081051012501999999KA1999M+00721MD1310141+9999
0042109350999991929110806004+47650+009483FM-12+040099999V0209991C00001007801CN0020001N9+00391+99999101991ADDGF108991081051008001999999KA1999N+00391
0064109350999991929110818004+47650+009483FM-12+040099999V0209991C00001220001CN0040001N9+00721+99999101471ADDAY111061GF107991999001999999011001KA1999M+01111MD1810061+9999
0081109350999991929110906004+47650+009483FM-12+040099999V0201601N00101012301CN0020001N9+00781+99999101521ADDAA199003091AY161061GF108991081061012501999999KA1999N+00721MD1310141+9999MW1611
0075109350999991929110918004+47650+009483FM-12+040099999V0209991C00001007801CN0040001N9+00891+99999102001ADDAA199002091AY121061GF108991081051008001999999KA1999M+01001MD1310141+9999
0064109350999991929111006004+47650+009483FM-12+040099999V0200501N00101007801CN0020001N9+00501+99999101761ADDAY111061GF106991061051008001001001KA1999N+00391MD1610061+9999
0064109350999991929111018004+47650+009483FM-12+040099999V0203601N00101012301CN0040001N9+00781+99999101741ADDAY111061GF107991071051012501001001KA1999M+01111MD1310141+9999
0081109350999991929111106004+47650+009483FM-12+040099999V0203201N00261012301CN0040001N9+00611+99999102521ADDAA199005091AY161061GF108991081061012501999999KA1999N+00501MD1310141+9999MW1611
0075109350999991929111118004+47650+009483FM-12+040099999V0203601N00101220001CN0100001N9+00221+99999102501ADDAA199001091AY101061GF102991021051008001001001KA1999M+00781MD1810061+9999
0064109350999991929111206004+47650+009483FM-12+040099999V0203601N00101220001CN0500001N9-00111+99999101301ADDAY101061GF106991001001999999011011KA1999N-00221MD1810401+9999
0067109350999991929111218004+47650+009483FM-12+040099999V0202501N00931015001CN0040001N9+00781+99999100631ADDAA199001091AY111061GF108991081061017501999999KA1999M+00781MW1631
0075109350999991929111306004+47650+009483FM-12+040099999V0201401N00461220001CN0500001N9+00391+99999100631ADDAA199001091AY101061GF104991021061017501031999KA1999N+00391MD1810261+9999
0064109350999991929111318004+47650+009483FM-12+040099999V0203201N00101220001CN0200001N9+00611+99999099741ADDAY111061GF107991999001999999011001KA1999M+00891MD1410001+9999
0075109350999991929111406004+47650+009483FM-12+040099999V0202501N00671012301CN0200001N9+00501+99999100021ADDAA199006091AY121061GF108991081061012501999999KA1999N+00281MD1110201+9999
0064109350999991929111418004+47650+009483FM-12+040099999V0202701N00671012301CN0100001N9+00281+99999100371ADDAY121061GF108991081061012501999999KA1999M+00611MD1310141+9999
0064109350999991929111506004+47650+009483FM-12+040099999V0202901N001010360019N0040001N9+00111+99999100611ADDAY121061GF107991041061012501031999KA1999N+00001MD1310141+9999
0064109350999991929111518004+47650+009483FM-12+040099999V0202701N00261220001CN0040001N9+00221+99999101021ADDAY101061GF101991011051017501001001KA1999M+00501MD1310141+9999
0075109350999991929111606004+47650+009483FM-12+040099999V0203201N00101220001CN0200001N9+00001+99999100391ADDAA199000691AY111061GF104991041061012501999999KA1999N-00281MD1010061+9999
0061109350999991929111618004+47650+009483FM-12+040099999V0201801N00461015001CN0100001N9+00391+99999100171ADDAA199001091AY161061GF107991061061017501011999KA1999M+00391
0050109350999991929111718004+47650+009483FM-12+040099999V0203601N001010360019N0200001N9+00391+99999101021ADDAY111061GF106991041051017501011999KA1999M+00891
0064109350999991929111806004+47650+009483FM-12+040099999V0203401N00101015001CN0040001N9+00221+99999101491ADDAY111061GF107991071051017501001001KA1999N+00111MD1310261+9999
0064109350999991929111818004+47650+009483FM-12+040099999V0203601N00101015001CN0040001N9+00391+99999102151ADDAY111061GF108991081051017501999999KA1999M+00611MD1310261+9999
0050109350999991929111906004+47650+009483FM-12+040099999V0200501N00461220001CN0040001N9-00221+99999102481ADDAY101061GF100991001001999999001001KA1999N-00221
0064109350999991929111918004+47650+009483FM-12+040099999V0203401N00101220001CN0040001N9+00111+99999102141ADDAY101061GF102991001001999999001011KA1999M+00721MD1310061+9999
0062109350999991929112006004+47650+009483FM-12+040099999V0203401N00101220001CN0002001N9-00221+99999102031ADDGF100991001001999999001001KA1999N-00281MD1810061+9999MW1421
0056109350999991929112018004+47650+009483FM-12+040099999V0203201N00101000151CN0000501N9-00111+99999101791ADDAY111061GF109991091999000251999999KA1999M+00281MW1461
0056109350999991929112106004+47650+009483FM-12+040099999V0203201N00101000151CN0000501N9-00221+99999101841ADDAY141061GF109991091999000251999999KA1999N-00221MW1441
0081109350999991929112118004+47650+009483FM-12+040099999V0203201N00101000151CN0002001N9+00111+99999101801ADDAA199000391AY141061GF109991091999000251999999KA1999M+00111MD1310141+9999MW1461
0056109350999991929112206004+47650+009483FM-12+040099999V0209991C00001000151CN0000501N9-00221+99999101831ADDAY141061GF109991091999000251999999KA1999N-00281MW1441
0056109350999991929112218004+47650+009483FM-12+040099999V0200501N00101000151CN0000001N9+00001+99999101621ADDAY141061GF109991091999000251999999KA1999M+00281MW1441
0064109350999991929112306004+47650+009483FM-12+040099999V0203601N00261220001CN0020001N9+00001+99999101861ADDAY111061GF104991999001999999031001KA1999N-00221MD1310261+9999
0064109350999991929112318004+47650+009483FM-12+040099999V0200201N00101220001CN0020001N9+00221+99999101871ADDAY111061GF100991001001999999001001KA1999M+00781MD1310061+9999
0070109350999991929112406004+47650+009483FM-12+040099999V0209991C00001000151CN0000501N9+00001+99999101961ADDAY141061GF108991081051000251999999KA1999N-00111MD1210141+9999MW1441
0075109350999991929112418004+47650+009483FM-12+040099999V0202301N00261220001CN0500001N9+00781+99999102241ADDAA199000691AY121061GF102991021051017501001001KA1999M+01001MD1310201+9999
0064109350999991929112506004+47650+009483FM-12+040099999V0200201N00261220001CN0200001N9+00221+99999102241ADDAY111061GF101991999001999999031001KA1999N+00001MD1610261+9999
0064109350999991929112518004+47650+009483FM-12+040099999V0203201N00101220001CN0020001N9+00501+99999101701ADDAY111061GF107991001001999999001091KA1999M+00891MD1710061+9999
0050109350999991929112606004+47650+009483FM-12+040099999V0203601N00101007801CN0020001N9+00281+99999101791ADDAY111061GF108991081051008001999999KA1999N+00111
0075109350999991929112618004+47650+009483FM-12+040099999V0202301N00101220001CN0200001N9+00501+99999102231ADDAA199005091AY161061GF104991999001999999011001KA1999M+00781MD1110061+9999
0061109350999991929112706004+47650+009483FM-12+040099999V0202901N00461220001CN0040001N9+00611+99999102111ADDAA199001091AY111061GF104991041061012501001001KA1999N+00281
0081109350999991929112718004+47650+009483FM-12+040099999V0202701N00101012301CN0100001N9+00891+99999102231ADDAA199001091AY181061GF108991081061012501999999KA1999M+00891MD1310061+9999MW1801
0075109350999991929112806004+47650+009483FM-12+040099999V0200201N00261007801CN0200001N9+00501+99999101781ADDAA199001091AY121061GF108991081051008001999999KA1999N+00281MD1810141+9999
0061109350999991929112818004+47650+009483FM-12+040099999V0203401N00101012301CN0100001N9+00611+99999101461ADDAA199000691AY121061GF108991071061012501011999KA1999M+00781
0075109350999991929112906004+47650+009483FM-12+040099999V0203601N00261220001CN0500001N9+00391+99999101411ADDAA199001091AY111061GF101991001001999999001011KA1999N+00391MD1810141+9999
0056109350999991929112918004+47650+009483FM-12+040099999V0202501N00101021001CN0040001N9+00891+99999101141ADDAY111061GF108991081061022501999999KA1999M+01221MW1611
0075109350999991929113006004+47650+009483FM-12+040099999V0203401N00261007801CN0020001N9+00501+99999100791ADDAA199001091AY121061GF108991081051008001999999KA1999N+00281MD1810141+9999
0050109350999991929113018004+47650+009483FM-12+040099999V0200201N00101002401CN0010001N9+00611+99999100271ADDAY121061GF108991081051002501999999KA1999M+00781
0075109350999991929120106004+47650+009483FM-12+040099999V0201801N00101012301CN0040001N9+00721+99999100231ADDAA199004091AY181061GF108991081061012501999999KA1999N+00501MD1310061+9999
0064109350999991929120206004+47650+009483FM-12+040099999V0202301N00261004501CN0500001N9+00721+99999101301ADDAY111061GF106991061061004501001001KA1999N+00611MD1310141+9999
0050109350999991929120218004+47650+009483FM-12+040099999V0203601N00101220001CN0200001N9+00281+99999101261ADDAY101061GF100991001001999999001001KA1999M+00891
0081109350999991929120306004+47650+009483FM-12+040099999V0201401N00101012301CN0100001N9+00501+99999101501ADDAA199001091AY161061GF108991081061012501999999KA1999N+00001MD1310261+9999MW1611
0075109350999991929120318004+47650+009483FM-12+040099999V0209991C00001012301CN0200001N9+00721+99999101451ADDAA199001091AY181061GF108991081061012501999999KA1999M+00891MD1810141+9999
0064109350999991929120406004+47650+009483FM-12+040099999V0200201N00261220001CN0200001N9+00611+99999101471ADDAY111061GF107991001001999999031011KA1999N+00611MD1610141+9999
0064109350999991929120418004+47650+009483FM-12+040099999V0203601N00101220001CN0020001N9+00611+99999101901ADDAY111061GF102991999051999999001001KA1999M+01001MD1210141+9999
0064109350999991929120506004+47650+009483FM-12+040099999V0200201N00261220001CN0040001N9+00111+99999101801ADDAY111061GF102991001001999999011011KA1999N+00001MD1810261+9999
0064109350999991929120518004+47650+009483FM-12+040099999V0203601N00101220001CN0020001N9+00501+99999100351ADDAY101061GF100991001001999999001001KA1999M+01001MD1810201+9999
0050109350999991929120606004+47650+009483FM-12+040099999V0202901N00261021001CN0040001N9+00501+99999100541ADDAY111061GF106991061061022501001001KA1999N+00111
0081109350999991929120618004+47650+009483FM-12+040099999V0201401N00261015001CN0200001N9+00501+99999101211ADDAA199004091AY161061GF108991081061017501999999KA1999M+00721MD1310061+9999MW1611
0059109350999991929120706004+47650+009483FM-12+040099999V0209991C00001000151CN0002001N9+00111+99999100781ADDAA199000391GF109991091999000251999999KA1999N+00001MW1441
0081109350999991929120718004+47650+009483FM-12+040099999V0202301N00461015001CN0040001N9+00611+99999101251ADDAA199006091AY161061GF108991081061017501999999KA1999M+00721MD1310261+9999MW1631
0075109350999991929120806004+47650+009483FM-12+040099999V0201401N00101220001CN0500001N9+00111+99999102281ADDAA199003091AY161061GF100991001001999999001001KA1999N+00111MD1990061+9999
0064109350999991929120818004+47650+009483FM-12+040099999V0203401N00261220001CN0040001N9+00221+99999101641ADDAY101061GF104991999001999999011001KA1999M+00891MD1710061+9999
0075109350999991929120906004+47650+009483FM-12+040099999V0202501N00671012301CN0200001N9+00721+99999102311ADDAA199001091AY181061GF106991061061012501001001KA1999N+00111MD1310261+9999
0064109350999991929120918004+47650+009483FM-12+040099999V0201801N00261220001CN0200001N9+00721+99999101661ADDAY111061GF107991999051999999001001KA1999M+00781MD1710201+9999
0081109350999991929121006004+47650+009483FM-12+040099999V0202701N00461012301CN0500001N9+00781+99999100931ADDAA199002091AY181061GF108991071061012501011999KA1999N+00391MD1710141+9999MW1811
0075109350999991929121018004+47650+009483FM-12+040099999V0202501N006710360019N0200001N9+00391+99999101871ADDAA199009091AY171061GF106991041061022501031999KA1999M+00781MD1310201+9999
0064109350999991929121106004+47650+009483FM-12+040099999V0209991C000019999999N0500001N9+00221+99999101991ADDAY111061GF107991041051012501999999KA1999N+00221MD1810141+9999
0064109350999991929121118004+47650+009483FM-12+040099999V0202501N00931012301CN0500001N9+01001+99999101511ADDAY121061GF107991071061012501001001KA1999M+01001MD1110061+9999
0067109350999991929121206004+47650+009483FM-12+040099999V0202501N00461007801CN0100001N9+00781+99999102181ADDAA199000591AY181061GF108991081061008001999999KA1999N+00781MW1601
0081109350999991929121218004+47650+009483FM-12+040099999V0202501N01231012301CN0200001N9+00891+99999101871ADDAA199001091AY181061GF108991081061012501999999KA1999M+01221MD1710061+9999MW1811
0081109350999991929121306004+47650+009483FM-12+040099999V0202501N00461012301CN0100001N9+00501+99999103221ADDAA199005091AY161061GF108991081061012501999999KA1999N+00111MD1310141+9999MW1611
0075109350999991929121318004+47650+009483FM-12+040099999V0202701N00671015001CN0200001N9+00781+99999103551ADDAA199002091AY111061GF106991061051017501001001KA1999M+00781MD1310141+9999
0050109350999991929121406004+47650+009483FM-12+040099999V0209991C00001021001CN0200001N9+00281+99999103541ADDAY111061GF107991071051022501001001KA1999N+00001
0069109350999991929121418004+47650+009483FM-12+040099999V0209991C00001220001CN0100001N9+00391+99999103361ADDAY111061GF104991021051017501001011KA1999M+99999EQDQ01 +00222ATMX  
0061109350999991929121506004+47650+009483FM-12+040099999V0201601N00261012301CN0100001N9+00611+99999103481ADDAA199001091AY181061GF108991081061012501999999KA1999N+00391
0050109350999991929121518004+47650+009483FM-12+040099999V0202301N00101015001CN0200001N9+00891+99999103031ADDAY111061GF108991081051017501999999KA1999M+01001
0067109350999991929121606004+47650+009483FM-12+040099999V0200201N00461012301CN0040001N9+00221+99999103021ADDAA199012091AY161061GF108991081061012501999999KA1999N+00221MW1621
0075109350999991929121618004+47650+009483FM-12+040099999V0209991C00001007801CN0100001N9+00111+99999103391ADDAA199014091AY171061GF107991071061008001001001KA1999M+00281MD1310141+9999
0050109350999991929121706004+47650+009483FM-12+040099999V0202701N00101004501CN0040001N9+00111+99999103551ADDAY111061GF107991061051004501999999KA1999N+00001
0075109350999991929121718004+47650+009483FM-12+040099999V0202501N00931007801CN0040001N9+00221+99999103301ADDAA199001091AY171061GF108991081061008001999999KA1999M+00221MD1810061+9999
0075109350999991929121806004+47650+009483FM-12+040099999V0203601N00261012301CN0040001N9-00501+99999103761ADDAA199004091AY171061GF108991081061012501999999KA1999N-00611MD1310141+9999
0050109350999991929121818004+47650+009483FM-12+040099999V0200501N00101220001CN0100001N9-00221+99999103941ADDAY111061GF104991041051012501001001KA1999M-00221
0064109350999991929121906004+47650+009483FM-12+040099999V0200201N00671220001CN0100001N9-00391+99999103621ADDAY101061GF101991011051008001001001KA1999N-00611MD1810141+9999
0064109350999991929121918004+47650+009483FM-12+040099999V0200501N00461220001CN0100001N9-00391+99999103041ADDAY101061GF100991001001999999001001KA1999M-00111MD1810201+9999
0050109350999991929122006004+47650+009483FM-12+040099999V0200501N00101220001CN0040001N9-01001+99999102541ADDAY101061GF101991011051001501001001KA1999N-01001
0050109350999991929122018004+47650+009483FM-12+040099999V0203601N00101000151CN0040001N9-00781+99999102261ADDAY111061GF107991071001000251001011KA1999M-00501
0064109350999991929122106004+47650+009483FM-12+040099999V0200501N00261007801CN0040001N9-00781+99999101671ADDAY121061GF108991081051008001999999KA1999N-00891MD1810261+9999
0050109350999991929122118004+47650+009483FM-12+040099999V0200201N00101220001CN0040001N9-01001+99999101301ADDAY111061GF100991001001999999001001KA1999M-00611
0064109350999991929122206004+47650+009483FM-12+040099999V0200201N00261220001CN0200001N9-01111+99999100631ADDAY111061GF104991001001999999001011KA1999N-01111MD1810061+9999
0064109350999991929122218004+47650+009483FM-12+040099999V0200201N00101220001CN0040001N9-00611+99999100691ADDAY111061GF102991021999999999999999KA1999M-00391MD1310201+9999
0064109350999991929122306004+47650+009483FM-12+040099999V0200201N00261015001CN0020001N9-00611+99999101011ADDAY111061GF107991071051017501001001KA1999N-00721MD1310061+9999
0050109350999991929122318004+47650+009483FM-12+040099999V0200201N00101220001CN0020001N9-00501+99999100791ADDAY101061GF104991041051017501001001KA1999M+00111
0075109350999991929122406004+47650+009483FM-12+040099999V0202501N00261015001CN0200001N9+00611+99999100311ADDAA199002091AY111061GF106991061061017501001001KA1999N-00391MD1310141+9999
0075109350999991929122418004+47650+009483FM-12+040099999V0202501N00671220001CN0500001N9+00391+99999101111ADDAA199004091AY161061GF100991001001999999001001KA1999M+00721MD1310201+9999
0064109350999991929122506004+47650+009483FM-12+040099999V0200701N00101220001CN0500001N9+00221+99999101131ADDAY121061GF107991999051999999001001KA1999N-00111MD1810141+9999
0050109350999991929122518004+47650+009483FM-12+040099999V0203201N00101220001CN0200001N9+00221+99999101291ADDAY111061GF104991999051999999001001KA1999M+00721
0050109350999991929122606004+47650+009483FM-12+040099999V0209991C00001015001CN0040001N9+00221+99999101641ADDAY111061GF108991071061017501011999KA1999N+00001
0081109350999991929122618004+47650+009483FM-12+040099999V0202501N00101015001CN0040001N9+00281+99999102141ADDAA199009091AY161061GF108991081061017501999999KA1999M+00501MD1310141+9999MW1631
0061109350999991929122706004+47650+009483FM-12+040099999V0209991C00001015001CN0040001N9+00111+99999102401ADDAA199009091AY121061GF108991081061017501999999KA1999N+00001
0064109350999991929122718004+47650+009483FM-12+040099999V0209991C00001007801CN0020001N9+00221+99999101911ADDAY121061GF106991061051008001001001KA1999M+00281MD1810141+9999
0075109350999991929122806004+47650+009483FM-12+040099999V0202001N00261012301CN0200001N9+00391+99999101551ADDAA199005091AY121061GF108991081061012501999999KA1999N+00001MD1110061+9999
0061109350999991929122818004+47650+009483FM-12+040099999V0201401N002612200019N0200001N9+00281+99999101871ADDAA199002091AY111061GF107991041011008001001011KA1999M+00721
0061109350999991929122906004+47650+009483FM-12+040099999V0209991C000012200019N0500001N9+00281+99999101701ADDAA199002091AY161061GF106991041051008001001011KA1999N+00001
0075109350999991929122918004+47650+009483FM-12+040099999V0202501N00461220001CN0500001N9+00891+99999101911ADDAA199053091AY181061GF100991001001999999001001KA1999M+01221MD1310261+9999
0064109350999991929123006004+47650+009483FM-12+040099999V0202301N002610900019N0100001N9+00501+99999102551ADDAY111061GF106991041001017501031081KA1999N+00391MD1310061+9999
0064109350999991929123018004+47650+009483FM-12+040099999V0209991C00001220001CN0100001N9+00221+99999102081ADDAY111061GF106991001999999999001011KA1999M+00891MD1810201+9999
0050109350999991929123106004+47650+009483FM-12+040099999V0209991C00001007801CN0200001N9+00501+99999101631ADDAY111061GF106991061051008001001001KA1999N+00111
0081109350999991929123118004+47650+009483FM-12+040099999V0202701N00461012301CN0500001N9+00391+99999102151ADDAA199002091AY181061GF108991081061012501999999KA1999M+00721MD1310201+9999MW1811
