0037113090999991929020406004+46967+009917FM-12+043899999V0209999900261220001CN0500001N9+99999+99999999999ADDAY101061GF100991001001999999001001
0037113090999991929020506004+46967+009917FM-12+043899999V0209999900101220001CN0040001N9+99999+99999999999ADDAY141061GF108991001001999999001021
0037113090999991929020706004+46967+009917FM-12+043899999V0209999900931007801CN0040001N9+99999+99999999999ADDAY121061GF108991081051008001999999
0037113090999991929020906004+46967+009917FM-12+043899999V0209999900261004501CN0100001N9+99999+99999999999ADDAY121061GF108991081051004501999999
0037113090999991929021106004+46967+009917FM-12+043899999V0209999900671220001CN0040001N9+99999+99999999999ADDAY101061GF101991001001999999001091
0043113090999991929021306004+46967+009917FM-12+043899999V0209999900461007801CN0040001N9+99999+99999999999ADDAY171061GF108991081051008001999999MW1861
0037113090999991929021406004+46967+009917FM-12+043899999V0209999900101220001CN0040001N9+99999+99999999999ADDAY101061GF101991001001999999001021
0037113090999991929021506004+46967+009917FM-12+043899999V0209999900101007801CN0100001N9+99999+99999999999ADDAY121061GF108991081051008001999999
0037113090999991929021606004+46967+009917FM-12+043899999V0209999900461021001CN0040001N9+99999+99999999999ADDAY121061GF108991081051022501999999
0037113090999991929021906004+46967+009917FM-12+043899999V0209999900101007801CN0040001N9+99999+99999999999ADDAY121061GF108991081051008001999999
0043113090999991929022006004+46967+009917FM-12+043899999V0209999900261001501CN0005001N9+99999+99999999999ADDAY141061GF108991081051001501999999MW1471
0037113090999991929022306004+46967+009917FM-12+043899999V0209999900461220001CN0040001N9+99999+99999999999ADDAY101061GF108991001001999999001021
0043113090999991929022506004+46967+009917FM-12+043899999V0209999900101007801CN0040001N9+99999+99999999999ADDAY161061GF108991081061008001999999MW1511
0037113090999991929022606004+46967+009917FM-12+043899999V0209999900261012301CN0010001N9+99999+99999999999ADDAY121061GF108991081051012501999999
0043113090999991929022706004+46967+009917FM-12+043899999V0209999900101007801CN0010001N9+99999+99999999999ADDAY141061GF108991081051008001999999MW1101
0043113090999991929022806004+46967+009917FM-12+043899999V0209999900101004501CN0040001N9+99999+99999999999ADDAY171061GF108991081051004501999999MW1851
0037113090999991929030106004+46967+009917FM-12+043899999V0209999900261220001CN0100001N9+99999+99999999999ADDAY101061GF108991001001999999001021
0037113090999991929030206004+46967+009917FM-12+043899999V0209999901231220001CN0500001N9+99999+99999999999ADDAY101061GF101991001001999999001081
0043113090999991929030406004+46967+009917FM-12+043899999V0209999900461007801CN0005001N9+99999+99999999999ADDAY171061GF108991081051008001999999MW1731
0037113090999991929030506004+46967+009917FM-12+043899999V0209999900101012301CN0100001N9+99999+99999999999ADDAY121061GF108991081051012501999999
0037113090999991929030606004+46967+009917FM-12+043899999V0209999900261007801CN0040001N9+99999+99999999999ADDAY121061GF108991081051008001999999
0043113090999991929030706004+46967+009917FM-12+043899999V0209999900931004501CN0010001N9+99999+99999999999ADDAY161061GF108991081051004501999999MW1831
0037113090999991929030906004+46967+009917FM-12+043899999V0209999900671012301CN0500001N9+99999+99999999999ADDAY121061GF108991081051012501999999
0037113090999991929031106004+46967+009917FM-12+043899999V0209999900101220001CN0100001N9+99999+99999999999ADDAY121061GF108991999001999999021001
0043113090999991929031206004+46967+009917FM-12+043899999V0209999900261000151CN0005001N9+99999+99999999999ADDAY141061GF108991081051000251999999MW1451
0037113090999991929031306004+46967+009917FM-12+043899999V0209999900461007801CN0010001N9+99999+99999999999ADDAY121061GF108991081051008001999999
0037113090999991929031406004+46967+009917FM-12+043899999V0209999900261220001CN0200001N9+99999+99999999999ADDAY121061GF108991999001999999021001
0037113090999991929031506004+46967+009917FM-12+043899999V0209999900461007801CN0040001N9+99999+99999999999ADDAY121061GF108991081051008001999999
0037113090999991929031606004+46967+009917FM-12+043899999V0209999900261007801CN0100001N9+99999+99999999999ADDAY121061GF108991081051008001999999
0037113090999991929031806004+46967+009917FM-12+043899999V0209999900261220001CN0200001N9+99999+99999999999ADDAY101061GF100991001001999999001001
0037113090999991929031906004+46967+009917FM-12+043899999V0209999900261220001CN0200001N9+99999+99999999999ADDAY101061GF100991001001999999001001
0037113090999991929032006004+46967+009917FM-12+043899999V0209999900101220001CN0500001N9+99999+99999999999ADDAY101061GF104991001001999999001021
0043113090999991929032106004+46967+009917FM-12+043899999V0209999900261007801CN0100001N9+99999+99999999999ADDAY161061GF108991081061008001999999MW1501
0043113090999991929032206004+46967+009917FM-12+043899999V0209999900261220001CN0040001N9+99999+99999999999ADDAY141061GF108991001001999999031999MW1421
0037113090999991929032306004+46967+009917FM-12+043899999V0209999900671007801CN0010001N9+99999+99999999999ADDAY141061GF108991081051008001999999
0043113090999991929032506004+46967+009917FM-12+043899999V0209999900261007801CN0000501N9+99999+99999999999ADDAY141061GF108991081051008001999999MW1461
0043113090999991929032606004+46967+009917FM-12+043899999V0209999900101007801CN0000501N9+99999+99999999999ADDAY141061GF108991081051008001999999MW1471
0037113090999991929032706004+46967+009917FM-12+043899999V0209999900261007801CN0040001N9+99999+99999999999ADDAY141061GF108991081051008001999999
0043113090999991929032806004+46967+009917FM-12+043899999V0209999900461004501CN0010001N9+99999+99999999999ADDAY161061GF108991081061004501999999MW1801
0043113090999991929032906004+46967+009917FM-12+043899999V0209999900261004501CN0005001N9+99999+99999999999ADDAY141061GF108991081051004501999999MW1471
0037113090999991929033006004+46967+009917FM-12+043899999V0209999900461012301CN0200001N9+99999+99999999999ADDAY111061GF106991061051012501001001
0037113090999991929040206004+46967+009917FM-12+043899999V0209999901231007801CN0500001N9+99999+99999999999ADDAY121061GF108991081051008001999999
0043113090999991929040306004+46967+009917FM-12+043899999V0209999900671004501CN0020001N9+99999+99999999999ADDAY171061GF108991081051004501999999MW1701
0037113090999991929040406004+46967+009917FM-12+043899999V0209999900261220001CN0500001N9+99999+99999999999ADDAY101061GF102991001001999999001021
0043113090999991929040506004+46967+009917FM-12+043899999V0209999900461007801CN0040001N9+99999+99999999999ADDAY171061GF108991081051008001999999MW1861
0043113090999991929040606004+46967+009917FM-12+043899999V0209999900461004501CN0020001N9+99999+99999999999ADDAY141061GF108991081051004501999999MW1701
0037113090999991929040806004+46967+009917FM-12+043899999V0209999901541007801CN0100001N9+99999+99999999999ADDAY121061GF108991081051008001999999
0037113090999991929040906004+46967+009917FM-12+043899999V0209999900461220001CN0200001N9+99999+99999999999ADDAY101061GF102991001001017501999999
0037113090999991929041106004+46967+009917FM-12+043899999V0209999900461012301CN0100001N9+99999+99999999999ADDAY121061GF108991081051012501999999
0037113090999991929041206004+46967+009917FM-12+043899999V0209999900931007801CN0100001N9+99999+99999999999ADDAY111061GF108991081051008001999999
0037113090999991929041306004+46967+009917FM-12+043899999V0209999900931220001CN0200001N9+99999+99999999999ADDAY141061GF108991999001999999021001
0037113090999991929041506004+46967+009917FM-12+043899999V0209999900261007801CN0100001N9+99999+99999999999ADDAY111061GF108991081051008001999999
0043113090999991929041606004+46967+009917FM-12+043899999V0209999900101012301CN0100001N9+99999+99999999999ADDAY161061GF108991081051012501999999MW1161
0037113090999991929041706004+46967+009917FM-12+043899999V0209999900101220001CN0200001N9+99999+99999999999ADDAY101061GF100991001001999999001001
0037113090999991929041806004+46967+009917FM-12+043899999V0209999900261220001CN0040001N9+99999+99999999999ADDAY101061GF100991001001999999001001
0037113090999991929041906004+46967+009917FM-12+043899999V0209999900261220001CN0500001N9+99999+99999999999ADDAY101061GF108991001001999999001021
0037113090999991929042006004+46967+009917FM-12+043899999V0209999900261220001CN0500001N9+99999+99999999999ADDAY101061GF100991001001999999001001
0037113090999991929042206004+46967+009917FM-12+043899999V0209999900931220001CN0500001N9+99999+99999999999ADDAY101061GF102991001001999999001081
0037113090999991929042306004+46967+009917FM-12+043899999V0209999900461012301CN0200001N9+99999+99999999999ADDAY121061GF108991081051012501999999
0037113090999991929042406004+46967+009917FM-12+043899999V0209999900461220001CN0200001N9+99999+99999999999ADDAY101061GF104991001001012501999999
0037113090999991929042506004+46967+009917FM-12+043899999V0209999901541012301CN0200001N9+99999+99999999999ADDAY121061GF108991081051012501999999
0037113090999991929042606004+46967+009917FM-12+043899999V0209999900461007801CN0100001N9+99999+99999999999ADDAY121061GF108991081051008001999999
0037113090999991929042706004+46967+009917FM-12+043899999V02099999006719999999N0100001N9+99999+99999999999ADDAY111061GF106991001001012501999999
0037113090999991929042906004+46967+009917FM-12+043899999V0209999900671220001CN0200001N9+99999+99999999999ADDAY101061GF102991001001999999031999
0037113090999991929043006004+46967+009917FM-12+043899999V02099999004619999999N0100001N9+99999+99999999999ADDAY111061GF108991001001008001999999
0037113090999991929050206004+46967+009917FM-12+043899999V0209999900261007801CN0200001N9+99999+99999999999ADDAY121061GF108991081051008001999999
0037113090999991929050306004+46967+009917FM-12+043899999V0209999900671220001CN0200001N9+99999+99999999999ADDAY101061GF102991001001012501999999
0037113090999991929050606004+46967+009917FM-12+043899999V0209999900461220001CN0200001N9+99999+99999999999ADDAY101061GF100991001001999999001001
0037113090999991929050706004+46967+009917FM-12+043899999V0209999901231220001CN0500001N9+99999+99999999999ADDAY101061GF102991001001999999001081
0037113090999991929050806004+46967+009917FM-12+043899999V0209999900101220001CN0200001N9+99999+99999999999ADDAY101061GF100991001001999999001001
0037113090999991929050906004+46967+009917FM-12+043899999V0209999900461220001CN0200001N9+99999+99999999999ADDAY101061GF100991001001999999001001
0037113090999991929051006004+46967+009917FM-12+043899999V0209999900261015001CN0200001N9+99999+99999999999ADDAY121061GF108991081051017501999999
0037113090999991929051306004+46967+009917FM-12+043899999V0209999900101012301CN0200001N9+99999+99999999999ADDAY121061GF108991081051012501999999
0037113090999991929051406004+46967+009917FM-12+043899999V0209999900261007801CN0100001N9+99999+99999999999ADDAY121061GF108991081051008001999999
0043113090999991929051606004+46967+009917FM-12+043899999V0209999900101012301CN0100001N9+99999+99999999999ADDAY121061GF108991081051012501999999MW1211
0043113090999991929051706004+46967+009917FM-12+043899999V0209999900261007801CN0100001N9+99999+99999999999ADDAY161061GF108991081061008001999999MW1511
0037113090999991929051806004+46967+009917FM-12+043899999V0209999900261007801CN0100001N9+99999+99999999999ADDAY111061GF108991081051008001999999
0043113090999991929052106004+46967+009917FM-12+043899999V0209999900461007801CN0100001N9+99999+99999999999ADDAY161061GF108991081061008001999999MW1801
0043113090999991929052206004+46967+009917FM-12+043899999V0209999900101012301CN0020001N9+99999+99999999999ADDAY141061GF108991081051012501999999MW1451
0037113090999991929052306004+46967+009917FM-12+043899999V0209999900671007801CN0100001N9+99999+99999999999ADDAY121061GF108991081051008001999999
0037113090999991929052406004+46967+009917FM-12+043899999V0209999900461220001CN0500001N9+99999+99999999999ADDAY101061GF100991001001999999001001
0037113090999991929052506004+46967+009917FM-12+043899999V0209999900101220001CN0500001N9+99999+99999999999ADDAY101061GF102991001001999999001081
0037113090999991929052706004+46967+009917FM-12+043899999V0209999900461220001CN0200001N9+99999+99999999999ADDAY101061GF102991001001017501999999
0037113090999991929052806004+46967+009917FM-12+043899999V0209999900261220001CN0500001N9+99999+99999999999ADDAY101061GF102991001001999999001021
0037113090999991929052906004+46967+009917FM-12+043899999V0209999900261007801CN0100001N9+99999+99999999999ADDAY121061GF108991081051008001999999
0037113090999991929053006004+46967+009917FM-12+043899999V0209999900261012301CN0100001N9+99999+99999999999ADDAY111061GF108991081051012501999999
0037113090999991929053106004+46967+009917FM-12+043899999V02099999004619999999N0040001N9+99999+99999999999ADDAY121061GF108991041051008001999999
0037113090999991929060306004+46967+009917FM-12+043899999V0209999900931007801CN0040001N9+99999+99999999999ADDAY121061GF108991061051008001999999
0037113090999991929060406004+46967+009917FM-12+043899999V0209999900261007801CN0100001N9+99999+99999999999ADDAY121061GF108991081051008001999999
0043113090999991929060506004+46967+009917FM-12+043899999V0209999900461004501CN0040001N9+99999+99999999999ADDAY161061GF108991081061004501999999MW1611
0043113090999991929060606004+46967+009917FM-12+043899999V0209999900101012301CN0010001N9+99999+99999999999ADDAY161061GF108991081061012501999999MW1801
0037113090999991929060706004+46967+009917FM-12+043899999V0209999900671007801CN0500001N9+99999+99999999999ADDAY121061GF108991081051008001999999
0037113090999991929061006004+46967+009917FM-12+043899999V0209999900461007801CN0100001N9+99999+99999999999ADDAY121061GF108991081051008001999999
0037113090999991929061506004+46967+009917FM-12+043899999V0209999900671007801CN0100001N9+99999+99999999999ADDAY121061GF108991081051008001999999
0037113090999991929061706004+46967+009917FM-12+043899999V0209999900461220001CN0500001N9+99999+99999999999ADDAY101061GF102991001001017501999999
0037113090999991929061906004+46967+009917FM-12+043899999V0209999900671220001CN0200001N9+99999+99999999999ADDAY101061GF100991001001999999001001
0037113090999991929062106004+46967+009917FM-12+043899999V0209999900671220001CN0100001N9+99999+99999999999ADDAY101061GF101991001001999999001081
0037113090999991929062206004+46967+009917FM-12+043899999V0209999900931220001CN0500001N9+99999+99999999999ADDAY101061GF102991001001999999001021
0043113090999991929062406004+46967+009917FM-12+043899999V0209999900461007801CN0100001N9+99999+99999999999ADDAY161061GF108991081051008001999999MW1801
0037113090999991929062506004+46967+009917FM-12+043899999V0209999900461012301CN0100001N9+99999+99999999999ADDAY161061GF108991081051012501999999
0043113090999991929062606004+46967+009917FM-12+043899999V0209999900461004501CN0040001N9+99999+99999999999ADDAY161061GF108991081061004501999999MW1601
0037113090999991929062706004+46967+009917FM-12+043899999V0209999900671012301CN0100001N9+99999+99999999999ADDAY111061GF106991061011012501001001
0037113090999991929062806004+46967+009917FM-12+043899999V0209999900101024001CN0200001N9+99999+99999999999ADDAY111061GF107991999051999999999999
0037113090999991929070106004+46967+009917FM-12+043899999V0209999900101220001CN0500001N9+99999+99999999999ADDAY101061GF102991001001999999001021
0037113090999991929070506004+46967+009917FM-12+043899999V0209999900461004501CN0100001N9+99999+99999999999ADDAY111061GF108991081051004501999999
0037113090999991929070806004+46967+009917FM-12+043899999V0209999900671004501CN0100001N9+99999+99999999999ADDAY111061GF108991081051004501999999
0037113090999991929070906004+46967+009917FM-12+043899999V0209999900461007801CN0100001N9+99999+99999999999ADDAY121061GF108991081051008001999999
0037113090999991929071006004+46967+009917FM-12+043899999V0209999900101220001CN0200001N9+99999+99999999999ADDAY101061GF100991001001999999001001
0037113090999991929071206004+46967+009917FM-12+043899999V0209999900261220001CN0100001N9+99999+99999999999ADDAY101061GF102991001001999999001081
0043113090999991929071306004+46967+009917FM-12+043899999V0209999900461012301CN0200001N9+99999+99999999999ADDAY161061GF108991081051012501999999MW1801
0037113090999991929071506004+46967+009917FM-12+043899999V0209999900261220001CN0200001N9+99999+99999999999ADDAY101061GF108991001001999999001081
0037113090999991929071606004+46967+009917FM-12+043899999V0209999900101220001CN0500001N9+99999+99999999999ADDAY101061GF102991001001999999001081
0037113090999991929071706004+46967+009917FM-12+043899999V0209999900261220001CN0200001N9+99999+99999999999ADDAY101061GF100991001001999999001001
0037113090999991929071806004+46967+009917FM-12+043899999V0209999900261220001CN0200001N9+99999+99999999999ADDAY101061GF100991001001999999001001
0037113090999991929071906004+46967+009917FM-12+043899999V0209999900101220001CN0500001N9+99999+99999999999ADDAY101061GF102991001001999999001021
0037113090999991929072006004+46967+009917FM-12+043899999V0209999900261220001CN0200001N9+99999+99999999999ADDAY101061GF100991001001999999001001
0037113090999991929072206004+46967+009917FM-12+043899999V0209999900261220001CN0200001N9+99999+99999999999ADDAY101061GF101991999011999999999999
0037113090999991929072306004+46967+009917FM-12+043899999V0209999900261220001CN0500001N9+99999+99999999999ADDAY101061GF100991001001999999001001
0037113090999991929072406004+46967+009917FM-12+043899999V0209999900261220001CN0200001N9+99999+99999999999ADDAY101061GF100991001001999999001001
0037113090999991929072506004+46967+009917FM-12+043899999V0209999900461220001CN0500001N9+99999+99999999999ADDAY101061GF102991001001999999001021
0037113090999991929072606004+46967+009917FM-12+043899999V0209999900261220001CN0200001N9+99999+99999999999ADDAY101061GF102991999011999999999999
0037113090999991929072706004+46967+009917FM-12+043899999V0209999900261007801CN0100001N9+99999+99999999999ADDAY121061GF108991081051008001999999
0037113090999991929072906004+46967+009917FM-12+043899999V0209999900461012301CN0100001N9+99999+99999999999ADDAY121061GF108991081051012501999999
0043113090999991929073006004+46967+009917FM-12+043899999V0209999900261007801CN0100001N9+99999+99999999999ADDAY181061GF108991081061008001999999MW1501
0043113090999991929080206004+46967+009917FM-12+043899999V0209999900261007801CN0100001N9+99999+99999999999ADDAY181061GF108991081061008001999999MW1521
0037113090999991929080306004+46967+009917FM-12+043899999V0209999900101012301CN0200001N9+99999+99999999999ADDAY121061GF108991081051012501999999
0037113090999991929080506004+46967+009917FM-12+043899999V0209999900101220001CN0100001N9+99999+99999999999ADDAY101061GF100991001001999999001001
0037113090999991929080606004+46967+009917FM-12+043899999V0209999900261021001CN0200001N9+99999+99999999999ADDAY121061GF108991081051022501999999
0043113090999991929080706004+46967+009917FM-12+043899999V0209999900461220001CN0010001N9+99999+99999999999ADDAY141061GF100991001001999999001001MW1101
0037113090999991929080806004+46967+009917FM-12+043899999V0209999900261220001CN0200001N9+99999+99999999999ADDAY101061GF100991001001999999001001
0037113090999991929080906004+46967+009917FM-12+043899999V0209999900671021001CN0200001N9+99999+99999999999ADDAY121061GF108991081051022501999999
0043113090999991929081006004+46967+009917FM-12+043899999V0209999900261000151CN0010001N9+99999+99999999999ADDAY141061GF108991081051000251999999MW1101
0043113090999991929081206004+46967+009917FM-12+043899999V0209999900101012301CN0100001N9+99999+99999999999ADDAY161061GF108991081051012501999999MW1801
0037113090999991929081306004+46967+009917FM-12+043899999V0209999900671220001CN0200001N9+99999+99999999999ADDAY111061GF104991001001012501999999
0037113090999991929081406004+46967+009917FM-12+043899999V0209999900261220001CN0200001N9+99999+99999999999ADDAY101061GF100991001001999999001001
0037113090999991929081506004+46967+009917FM-12+043899999V0209991C00001220001CN0100001N9+99999+99999999999ADDAY101061GF101991001001999999031999
0037113090999991929081606004+46967+009917FM-12+043899999V0209999900461220001CN0200001N9+99999+99999999999ADDAY101061GF102991001001012501999999
0043113090999991929081906004+46967+009917FM-12+043899999V0209999900461004501CN0100001N9+99999+99999999999ADDAY161061GF108991081061004501999999MW1601
0043113090999991929082006004+46967+009917FM-12+043899999V0209999900101004501CN0100001N9+99999+99999999999ADDAY181061GF108991081061004501999999MW1601
0037113090999991929082106004+46967+009917FM-12+043899999V0209999900101012301CN0100001N9+99999+99999999999ADDAY121061GF108991081051012501999999
0043113090999991929082206004+46967+009917FM-12+043899999V0209999900261004501CN0020001N9+99999+99999999999ADDAY141061GF108991081051004501999999MW1471
0037113090999991929082306004+46967+009917FM-12+043899999V0209999900261007801CN0100001N9+99999+99999999999ADDAY121061GF108991081051008001999999
0037113090999991929082406004+46967+009917FM-12+043899999V0209999900101024001CN0500001N9+99999+99999999999ADDAY101061GF108991081061999999999999
0037113090999991929082606004+46967+009917FM-12+043899999V0209999900261220001CN0200001N9+99999+99999999999ADDAY101061GF100991001001999999001001
0037113090999991929082706004+46967+009917FM-12+043899999V0209999901231220001CN0500001N9+99999+99999999999ADDAY101061GF100991001001999999001001
0037113090999991929082806004+46967+009917FM-12+043899999V0209999900461220001CN0500001N9+99999+99999999999ADDAY101061GF100991001001999999001001
0037113090999991929082906004+46967+009917FM-12+043899999V0209999900101220001CN0100001N9+99999+99999999999ADDAY101061GF100991001001999999001001
0037113090999991929083006004+46967+009917FM-12+043899999V0209999900101220001CN0500001N9+99999+99999999999ADDAY101061GF100991001001999999001001
0037113090999991929083106004+46967+009917FM-12+043899999V0209999900461220001CN0200001N9+99999+99999999999ADDAY101061GF100991001001999999001001
0037113090999991929090206004+46967+009917FM-12+043899999V0209999900101220001CN0500001N9+99999+99999999999ADDAY101061GF100991001001999999001001
0037113090999991929090306004+46967+009917FM-12+043899999V0209999900261220001CN0100001N9+99999+99999999999ADDAY141061GF100991001001999999001001
0037113090999991929090406004+46967+009917FM-12+043899999V0209999900101220001CN0200001N9+99999+99999999999ADDAY101061GF100991001001999999001001
0037113090999991929090506004+46967+009917FM-12+043899999V0209999900101220001CN0500001N9+99999+99999999999ADDAY101061GF100991001001999999001001
0037113090999991929090606004+46967+009917FM-12+043899999V0209999900461220001CN0200001N9+99999+99999999999ADDAY101061GF102991001001012501999999
0037113090999991929090706004+46967+009917FM-12+043899999V0209999900671007801CN0200001N9+99999+99999999999ADDAY121061GF108991081051008001999999
0037113090999991929090906004+46967+009917FM-12+043899999V0209999900261220001CN0200001N9+99999+99999999999ADDAY101061GF100991001001999999001001
0037113090999991929091006004+46967+009917FM-12+043899999V0209999900101220001CN0200001N9+99999+99999999999ADDAY101061GF100991001001999999001001
0037113090999991929091106004+46967+009917FM-12+043899999V0209999900931220001CN0100001N9+99999+99999999999ADDAY101061GF100991001001999999001001
0037113090999991929091206004+46967+009917FM-12+043899999V0209999900461220001CN0200001N9+99999+99999999999ADDAY141061GF102991001001999999001081
0037113090999991929091306004+46967+009917FM-12+043899999V0209999900101220001CN0200001N9+99999+99999999999ADDAY101061GF102991001001999999001091
0037113090999991929091406004+46967+009917FM-12+043899999V0209999900261220001CN0100001N9+99999+99999999999ADDAY141061GF102991021011012501001001
0035113090999991929091606004+46967+009917FM-12+043899999V0209999900261220001CN0002001N9+99999+99999999999ADDGF199999001001999999999999MW1471
0037113090999991929091706004+46967+009917FM-12+043899999V0209999900931220001CN0100001N9+99999+99999999999ADDAY101061GF100991001001999999001001
0037113090999991929091906004+46967+009917FM-12+043899999V02099999002619999999N0200001N9+99999+99999999999ADDAY111061GF106991041051008001999999
0037113090999991929092006004+46967+009917FM-12+043899999V0209999900101220001CN0500001N9+99999+99999999999ADDAY111061GF106991001001999999001081
0037113090999991929092106004+46967+009917FM-12+043899999V0209999901901220001CN0200001N9+99999+99999999999ADDAY111061GF104991041051008001001001
0037113090999991929092306004+46967+009917FM-12+043899999V0209999900261012301CN0100001N9+99999+99999999999ADDAY121061GF108991081061012501999999
0043113090999991929092406004+46967+009917FM-12+043899999V0209999900261000151CN0000501N9+99999+99999999999ADDAY141061GF108991081051000251999999MW1451
0037113090999991929092506004+46967+009917FM-12+043899999V02099999002619999999N0040001N9+99999+99999999999ADDAY111061GF106991001001012501999999
0037113090999991929092606004+46967+009917FM-12+043899999V0209999900101220001CN0500001N9+99999+99999999999ADDAY101061GF100991001001999999001001
0043113090999991929092706004+46967+009917FM-12+043899999V0209999900461000151CN0000501N9+99999+99999999999ADDAY141061GF108991081051000251999999MW1441
0037113090999991929092806004+46967+009917FM-12+043899999V0209999900261220001CN0100001N9+99999+99999999999ADDAY101061GF100991001001999999001001
0037113090999991929093006004+46967+009917FM-12+043899999V0209999900461012301CN0100001N9+99999+99999999999ADDAY111061GF106991061051012501001001
0029113090999991929100106004+46967+009917FM-12+043899999V02099999004619999999N9999999N9+99999+99999999999ADDGF199999999001999999999999
0043113090999991929100206004+46967+009917FM-12+043899999V0209999900261007801CN0040001N9+99999+99999999999ADDAY181061GF108991081051008001999999MW1501
0037113090999991929100306004+46967+009917FM-12+043899999V0209999900101220001CN0100001N9+99999+99999999999ADDAY101061GF102991001001012501999999
0037113090999991929100406004+46967+009917FM-12+043899999V0209999900101220001CN0200001N9+99999+99999999999ADDAY101061GF100991001001999999001001
0037113090999991929100506004+46967+009917FM-12+043899999V0209999900261220001CN0100001N9+99999+99999999999ADDAY101061GF100991001001999999001001
0037113090999991929100706004+46967+009917FM-12+043899999V0209999900261012301CN0200001N9+99999+99999999999ADDAY111061GF106991061051012501001001
0037113090999991929100806004+46967+009917FM-12+043899999V0209999900101220001CN0500001N9+99999+99999999999ADDAY101061GF102991001001999999001081
0037113090999991929100906004+46967+009917FM-12+043899999V0209999900261024001CN0100001N9+99999+99999999999ADDAY111061GF108991081061999999999999
0037113090999991929101106004+46967+009917FM-12+043899999V0209999900101012301CN0100001N9+99999+99999999999ADDAY121061GF108991081051012501999999
0043113090999991929101206004+46967+009917FM-12+043899999V0209999900671004501CN0100001N9+99999+99999999999ADDAY161061GF108991081061004501999999MW1621
0043113090999991929101406004+46967+009917FM-12+043899999V0209999900101000151CN0000501N9+99999+99999999999ADDAY141061GF108991081051000251999999MW1451
0043113090999991929101506004+46967+009917FM-12+043899999V0209999900261000151CN0000501N9+99999+99999999999ADDAY141061GF108991081051000251999999MW1451
0043113090999991929101606004+46967+009917FM-12+043899999V0209999900261000151CN0000501N9+99999+99999999999ADDAY141061GF108991081051000251999999MW1451
0043113090999991929101806004+46967+009917FM-12+043899999V0209999900101000151CN0000001N9+99999+99999999999ADDAY141061GF108991081051000251999999MW1451
0043113090999991929101906004+46967+009917FM-12+043899999V0209999900461000151CN0005001N9+99999+99999999999ADDAY141061GF108991081051000251999999MW1451
0043113090999991929102106004+46967+009917FM-12+043899999V0209999900261220001CN0010001N9+99999+99999999999ADDAY141061GF100991001001999999001001MW1101
0037113090999991929102206004+46967+009917FM-12+043899999V0209999900261012301CN0040001N9+99999+99999999999ADDAY121061GF108991081051012501999999
0043113090999991929102306004+46967+009917FM-12+043899999V0209999900101004501CN0000501N9+99999+99999999999ADDAY141061GF108991081051004501999999MW1471
0043113090999991929102406004+46967+009917FM-12+043899999V0209999900261000151CN0000001N9+99999+99999999999ADDAY141061GF108991081051000251999999MW1451
0043113090999991929102506004+46967+009917FM-12+043899999V0209999900101000151CN0000501N9+99999+99999999999ADDAY141061GF108991081051000251999999MW1471
0043113090999991929102606004+46967+009917FM-12+043899999V0209999900261007801CN0040001N9+99999+99999999999ADDAY161061GF108991081051008001999999MW1611
0037113090999991929102906004+46967+009917FM-12+043899999V0209999900261220001CN0500001N9+99999+99999999999ADDAY101061GF102991001001999999001091
0043113090999991929103106004+46967+009917FM-12+043899999V0209999900261007801CN0100001N9+99999+99999999999ADDAY161061GF108991081061008001999999MW1511
