0000115180999991929080118004+50100+014283FM-12+037199999V02099999999999999999N9999999N9+99999+99999999999
0043115180999991929080206004+50100+014283FM-12+037199999V0202701N004619999999N0100001N9+01721+99999101021ADDGF107991041051000251999999MD1310201+9999
0054115180999991929080218004+50100+014283FM-12+037199999V0202701N004619999999N0200001N9+01781+99999101241ADDAA199022091GF108991021011008001999999MD1310161+9999
0067115180999991929080306004+50100+014283FM-12+037199999V0200201N00101220001CN0200001N9+01501+99999101961ADDAA199001091GF102991021051012501999999KA1999N+01391MD1310161+9999
0000115180999991929080318004+50100+014283FM-12+037199999V02099999999999999999N9999999N9+99999+99999999999
0062115180999991929080406004+50100+014283FM-12+037199999V0209991C00001220001CN0010001N9+01501+99999101841ADDGF100991001001999999999999KA1999N+00891MD1810041+9999MW1101
0000115180999991929080418004+50100+014283FM-12+037199999V02099999999999999999N9999999N9+99999+99999999999
0035115180999991929080506004+50100+014283FM-12+037199999V0201801N001019999999N9999999N9+01721+99999101201EQDQ01+000032APCTENQ02+000002APC3  
0000115180999991929080518004+50100+014283FM-12+037199999V02099999999999999999N9999999N9+99999+99999999999
0067115180999991929080606004+50100+014283FM-12+037199999V0203401N00101015001CN0040001N9+01611+99999101881ADDAA199010091GF108991081051017501999999KA1999N+01611MD1810161+9999
0056115180999991929080618004+50100+014283FM-12+037199999V0201101N00101220001CN0100001N9+02001+99999101661ADDGF102991001001999999999999KA1999M+02281MD1810161+9999
0056115180999991929080706004+50100+014283FM-12+037199999V0209991C00001220001CN0040001N9+01721+99999101581ADDGF100991001001999999999999KA1999N+01221MD1310041+9999
0056115180999991929080718004+50100+014283FM-12+037199999V0200901N00261220001CN0100001N9+02281+99999101101ADDGF104991001001999999999999KA1999M+02721MD1810101+9999
0035115180999991929080806004+50100+014283FM-12+037199999V0209991C000019999999N9999999N9+02111+99999101201EQDQ01+000032APCTENQ02+000002APC3  
0056115180999991929080818004+50100+014283FM-12+037199999V0200701N00101220001CN0100001N9+02721+99999100911ADDGF102991001001999999999999KA1999M+02781MD1810041+9999
0067115180999991929080906004+50100+014283FM-12+037199999V0200501N002619999999N0040001N9+01781+99999101401ADDAA199000691GF108991041061008001999999KA1999N+01781MD1310241+9999
0053115180999991929080918004+50100+014283FM-12+037199999V02099999002619999999N0100001N9+01891+99999101391ADDAA199000391GF106991021051022501999999KA1999M+02391
0000115180999991929081006004+50100+014283FM-12+037199999V02099999999999999999N9999999N9+99999+99999999999
0086115180999991929081018004+50100+014283FM-12+037199999V0203401N00101004501CN0040001N9+01891+99999101951ADDAA199004091GF108991071061004501999999KA1999M+99999MD1310201+9999EQDQ01 +01722ATMX  
0067115180999991929081106004+50100+014283FM-12+037199999V0203601N001019999999N0010001N9+01391+99999102301ADDAA199001091GF108991041031001501999999KA1999N+01111MD1310041+9999
0000115180999991929081118004+50100+014283FM-12+037199999V02099999999999999999N9999999N9+99999+99999999999
0085115180999991929081206004+50100+014283FM-12+037199999V0209991C00001220001CN0010001N9+01781+99999101831ADDAY141999GF102991001001999999999999KA1999N+01391EQDQ01+000032APCTENQ02+000002APC3  
0077115180999991929081218004+50100+014283FM-12+037199999V0200201N00461015001CN0040001N9+02281+99999101681ADDGF108991081051017501999999KA1999M+02781EQDQ01+000032APCTENQ02+000002APC3  
0086115180999991929081306004+50100+014283FM-12+037199999V0203201N00101220001CN0040001N9+01721+99999102271ADDAA199010091GF104991021051008001999999KA1999N+99999MD1310161+9999EQDQ01 +01782ATMN  
0077115180999991929081318004+50100+014283FM-12+037199999V0200501N00101220001CN0040001N9+02111+99999102271ADDGF104991011051017501999999KA1999M+02501EQDQ01+000032APCTENQ02+000002APC3  
0083115180999991929081406004+50100+014283FM-12+037199999V0209991C00001220001CN0010001N9+01721+99999102391ADDGF100991001001999999999999KA1999N+01221MW1101EQDQ01+000032APCTENQ02+000002APC3  
0056115180999991929081418004+50100+014283FM-12+037199999V0203401N00101220001CN0040001N9+02281+99999101941ADDGF100991001001999999999999KA1999M+02611MD1810041+9999
0077115180999991929081506004+50100+014283FM-12+037199999V0209991C00001220001CN0040001N9+01721+99999101881ADDGF100991001001999999999999KA1999N+01281EQDQ01+000032APCTENQ02+000002APC3  
0056115180999991929081518004+50100+014283FM-12+037199999V0201101N00101220001CN0040001N9+02501+99999101501ADDGF101991001001999999999999KA1999M+02891MD1810041+9999
0056115180999991929081606004+50100+014283FM-12+037199999V0209991C000019999999N0020001N9+01781+99999101701ADDGF106991041051008001999999KA1999N+01501MD1310041+9999
0042115180999991929081618004+50100+014283FM-12+037199999V0209999900261220001CN0100001N9+02501+99999101471ADDGF101991011031017501999999KA1999M+03001
0077115180999991929081706004+50100+014283FM-12+037199999V0201101N00101220001CN0040001N9+02001+99999101551ADDGF101991001001999999999999KA1999N+01611EQDQ01+000032APCTENQ02+000002APC3  
0056115180999991929081718004+50100+014283FM-12+037199999V0209991C00001220001CN0040001N9+02781+99999101271ADDGF104991021031008001999999KA1999M+03281MD1310041+9999
0075115180999991929081806004+50100+014283FM-12+037199999V0202301N00101012301CN0020001N9+01891+99999101671ADDAA199001091AY161999GF108991061061012501999999KA1999N+01781MD1310041+9999
0000115180999991929081818004+50100+014283FM-12+037199999V02099999999999999999N9999999N9+99999+99999999999
0067115180999991929081906004+50100+014283FM-12+037199999V0209991C00001004501CN0020001N9+01721+99999101751ADDAA199021091GF108991081061004501999999KA1999N+01721MD1310041+9999
0067115180999991929081918004+50100+014283FM-12+037199999V0200201N00261012301CN0200001N9+01721+99999101941ADDAA199006091GF108991061999012501999999KA1999M+01891MD1310041+9999
0088115180999991929082006004+50100+014283FM-12+037199999V0200501N00101012301CN0020001N9+01391+99999102001ADDAA199002091GF108991061061012501999999KA1999N+01281EQDQ01+000032APCTENQ02+000002APC3  
0067115180999991929082018004+50100+014283FM-12+037199999V0203401N00261007801CN0040001N9+01111+99999101961ADDAA199008091GF108991081061008001999999KA1999M+01501MD1310041+9999
0067115180999991929082106004+50100+014283FM-12+037199999V0209991C00001002401CN0040001N9+01111+99999102071ADDAA199002091GF108991081061002501999999KA1999N+01001MD1310041+9999
0067115180999991929082118004+50100+014283FM-12+037199999V0203201N00101007801CN0100001N9+01391+99999102241ADDAA199000691GF108991061051008001999999KA1999M+01391MD1310041+9999
0088115180999991929082206004+50100+014283FM-12+037199999V0209991C00001220001CN0040001N9+01111+99999102281ADDAA199000691GF102991021011012501999999KA1999N+00891EQDQ01+000032APCTENQ02+000002APC3  
0077115180999991929082218004+50100+014283FM-12+037199999V0201401N001019999999N0100001N9+01721+99999101951ADDGF106991021051012501999999KA1999M+02001EQDQ01+000032APCTENQ02+000002APC3  
0035115180999991929082306004+50100+014283FM-12+037199999V0209991C000019999999N9999999N9+01281+99999102201EQDQ01+000032APCTENQ02+000002APC3  
0077115180999991929082318004+50100+014283FM-12+037199999V0209991C000019999999N0020001N9+01891+99999102141ADDGF106991041051017501999999KA1999M+02111EQDQ01+000032APCTENQ02+000002APC3  
0077115180999991929082406004+50100+014283FM-12+037199999V0202001N00101220001CN0040001N9+01501+99999102361ADDGF100991001001999999999999KA1999N+01111EQDQ01+000032APCTENQ02+000002APC3  
0056115180999991929082418004+50100+014283FM-12+037199999V0201801N00101012301CN0100001N9+02111+99999102001ADDGF106991061051012501999999KA1999M+02281MD1810041+9999
0056115180999991929082506004+50100+014283FM-12+037199999V0201801N00101220001CN0040001N9+01781+99999102031ADDGF102991021999022501999999KA1999N+01391MD1310041+9999
0077115180999991929082518004+50100+014283FM-12+037199999V0203601N00461220001CN0100001N9+02281+99999101791ADDGF104991041031012501999999KA1999M+02721EQDQ01+000032APCTENQ02+000002APC3  
0056115180999991929082606004+50100+014283FM-12+037199999V0203601N00261012301CN0020001N9+01781+99999102191ADDGF107991061051012501999999KA1999N+01721MD1310041+9999
0077115180999991929082618004+50100+014283FM-12+037199999V0203601N00261220001CN0100001N9+01891+99999102221ADDGF102991001001999999999999KA1999M+02281EQDQ01+000032APCTENQ02+000002APC3  
0077115180999991929082706004+50100+014283FM-12+037199999V0209991C00001220001CN0020001N9+01281+99999102441ADDGF100991001001999999999999KA1999N+00891EQDQ01+000032APCTENQ02+000002APC3  
0056115180999991929082718004+50100+014283FM-12+037199999V0200901N00101220001CN0200001N9+02001+99999101831ADDGF100991001001999999999999KA1999M+02281MD1310161+9999
0077115180999991929082806004+50100+014283FM-12+037199999V0209991C00001220001CN0040001N9+01391+99999101831ADDGF100991001001999999999999KA1999N+01001EQDQ01+000032APCTENQ02+000002APC3  
0077115180999991929082818004+50100+014283FM-12+037199999V0201801N00261220001CN0100001N9+02611+99999101541ADDGF101991001001999999999999KA1999M+02891EQDQ01+000032APCTENQ02+000002APC3  
0056115180999991929082906004+50100+014283FM-12+037199999V0209991C00001220001CN0010001N9+01891+99999999999ADDGF102991001001999999999999KA1999N+01721MD1310161+9999
0000115180999991929082918004+50100+014283FM-12+037199999V02099999999999999999N9999999N9+99999+99999999999
0056115180999991929083006004+50100+014283FM-12+037199999V0209991C00001220001CN0005001N9+01781+99999101951ADDGF104991021051000251999999KA1999N+01281MD1310061+9999
0017115180999991929083018004+50100+014283FM-12+037199999V0209991C000019999999N9999999N9+02501+99999101601ADDMD1810101+9999
0056115180999991929083106004+50100+014283FM-12+037199999V0201801N00101220001CN0005001N9+01721+99999101781ADDGF102991021051000251999999KA1999N+01501MD1310041+9999
0000115180999991929083118004+50100+014283FM-12+037199999V02099999999999999999N9999999N9+99999+99999999999
0056115180999991929090106004+50100+014283FM-12+037199999V0209991C00001220001CN0020001N9+01781+99999101781ADDGF100991001001999999999999KA1999N+01501MD1310041+9999
0000115180999991929090118004+50100+014283FM-12+037199999V02099999999999999999N9999999N9+99999+99999999999
0056115180999991929090206004+50100+014283FM-12+037199999V0209991C00001220001CN0005001N9+01891+99999101911ADDGF100991001001999999999999KA1999N+01611MD1310041+9999
0077115180999991929090218004+50100+014283FM-12+037199999V0209991C00001220001CN0040001N9+02721+99999101661ADDGF102991001001999999999999KA1999M+03221EQDQ01+000032APCTENQ02+000002APC3  
0064115180999991929090306004+50100+014283FM-12+037199999V0209991C00001220001CN0020001N9+01781+99999101961ADDAY111999GF108991001001999999999999KA1999N+01501MD1310041+9999
0000115180999991929090318004+50100+014283FM-12+037199999V02099999999999999999N9999999N9+99999+99999999999
0077115180999991929090406004+50100+014283FM-12+037199999V0209991C00001220001CN9999999N9+01891+99999101741ADDGF100991001001999999999999KA1999N+01611EQDQ01+000032APCTENQ02+000002APC3  
0000115180999991929090418004+50100+014283FM-12+037199999V02099999999999999999N9999999N9+99999+99999999999
0083115180999991929090506004+50100+014283FM-12+037199999V0209999999999220001CN0010001N9+01891+99999999999ADDGF101991001001999999999999KA1999N+01721MW1101EQDQ01+000032APCTENQ02+000002APC3  
0056115180999991929090518004+50100+014283FM-12+037199999V0202701N00101220001CN0040001N9+02721+99999101301ADDGF108991001001999999999999KA1999M+03001MD1810041+9999
0077115180999991929090606004+50100+014283FM-12+037199999V0202501N00261220001CN0100001N9+02001+99999101511ADDGF104991021011022501999999KA1999N+01721EQDQ01+000032APCTENQ02+000002APC3  
0056115180999991929090618004+50100+014283FM-12+037199999V0202701N00101220001CN0100001N9+01891+99999101471ADDGF106991001001999999999999KA1999M+02781MD1310041+9999
0056115180999991929090706004+50100+014283FM-12+037199999V0203601N00461220001CN0200001N9+01221+99999102141ADDGF104991041051012501999999KA1999N+01111MD1310201+9999
0000115180999991929090718004+50100+014283FM-12+037199999V02099999999999999999N9999999N9+99999+99999999999
0077115180999991929090806004+50100+014283FM-12+037199999V0202501N002619999999N0100001N9+01281+99999102401ADDGF106991021051017501999999KA1999N+00891EQDQ01+000032APCTENQ02+000002APC3  
0036115180999991929090818004+50100+014283FM-12+037199999V0203201N004619999999N9999999N9+99999+99999102161ADDMD1310041+9999EQDQ01 +04613ATOT  
0056115180999991929090906004+50100+014283FM-12+037199999V0202701N00261220001CN0040001N9+01501+99999101941ADDGF100991001001999999999999KA1999N+01221MD1810041+9999
0000115180999991929090918004+50100+014283FM-12+037199999V02099999999999999999N9999999N9+99999+99999999999
0043115180999991929091006004+50100+014283FM-12+037199999V0203201N00461220001CN0040001N9+01891+99999101601ADDGF101991001001999999999999MD1310201+9999
0000115180999991929091018004+50100+014283FM-12+037199999V02099999999999999999N9999999N9+99999+99999999999
0000115180999991929091106004+50100+014283FM-12+037199999V02099999999999999999N9999999N9+99999+99999999999
0000115180999991929091118004+50100+014283FM-12+037199999V02099999999999999999N9999999N9+99999+99999999999
0043115180999991929091206004+50100+014283FM-12+037199999V0209991C00001220001CN9999999N9+01001+99999102601ADDGF199999001001999999999999MD1310101+9999
0064115180999991929091218004+50100+014283FM-12+037199999V0209991C000019999999N9999999N9+01501+99999102501ADDGF199999999001999999999999EQDQ01+000032APCTENQ02+000002APC3  
0035115180999991929091306004+50100+014283FM-12+037199999V0209991C000019999999N9999999N9+01611+99999102101EQDQ01+000032APCTENQ02+000002APC3  
0000115180999991929091318004+50100+014283FM-12+037199999V02099999999999999999N9999999N9+99999+99999999999
0000115180999991929091406004+50100+014283FM-12+037199999V02099999999999999999N9999999N9+99999+99999999999
0035115180999991929091418004+50100+014283FM-12+037199999V0201101N999999999999N9999999N9+01891+99999101601EQDQ01+000032APCTENQ02+000002APC3  
0000115180999991929091506004+50100+014283FM-12+037199999V02099999999999999999N9999999N9+99999+99999999999
0000115180999991929091518004+50100+014283FM-12+037199999V02099999999999999999N9999999N9+99999+99999999999
0067115180999991929091606004+50100+014283FM-12+037199999V0200901N001019999999N0010001N9+01501+99999102281ADDAA199000691GF106991041051017501999999KA1999N+01281MD1310161+9999
0067115180999991929091618004+50100+014283FM-12+037199999V0200701N00261220001CN0200001N9+02001+99999102081ADDAA199000691GF101991001001999999999999KA1999M+02391MD1310041+9999
0035115180999991929091706004+50100+014283FM-12+037199999V02099999999999999999N9999999N9+00781+99999102401EQDQ01+000032APCTENQ02+000002APC3  
0077115180999991929091718004+50100+014283FM-12+037199999V0201401N00261220001CN0200001N9+01781+99999101951ADDGF101991001001999999999999KA1999M+02391EQDQ01+000032APCTENQ02+000002APC3  
0056115180999991929091806004+50100+014283FM-12+037199999V0209991C00001220001CN0010001N9+01281+99999101961ADDGF101991001001999999999999KA1999N+00721MD1810041+9999
0000115180999991929091818004+50100+014283FM-12+037199999V02099999999999999999N9999999N9+99999+99999999999
0056115180999991929091906004+50100+014283FM-12+037199999V0209991C00001220001CN0040001N9+01111+99999101511ADDGF102991001001999999999999KA1999N+00721MD1310041+9999
0056115180999991929091918004+50100+014283FM-12+037199999V0209991C00001220001CN0100001N9+01781+99999101421ADDGF102991001001999999999999KA1999M+02391MD1810041+9999
0088115180999991929092006004+50100+014283FM-12+037199999V0202001N00101012301CN0040001N9+01721+99999101111ADDAA199000691GF107991071061012501999999KA1999N+01501EQDQ01+000032APCTENQ02+000002APC3  
0017115180999991929092018004+50100+014283FM-12+037199999V0202501N006719999999N9999999N9+02221+99999100071ADDMD1810201+9999
0067115180999991929092106004+50100+014283FM-12+037199999V0202701N00261220001CN0100001N9+01111+99999100921ADDAA199003091GF102991011051012501999999KA1999N+01001MD1310161+9999
0067115180999991929092118004+50100+014283FM-12+037199999V0202501N00461220001CN0200001N9+01111+99999101181ADDAA199000691GF104991041051012501999999KA1999M+01391MD1310041+9999
0067115180999991929092206004+50100+014283FM-12+037199999V0202701N00671220001CN0200001N9+01221+99999101041ADDAA199000691GF104991041011008001999999KA1999N+01111MD1310161+9999
0067115180999991929092218004+50100+014283FM-12+037199999V0202701N00461004501CN0100001N9+01281+99999101541ADDAA199000691GF107991071061004501999999KA1999M+01611MD1310161+9999
0075115180999991929092306004+50100+014283FM-12+037199999V0203201N00261007801CN0100001N9+00891+99999102111ADDAA199008091AY161999GF108991071061008001999999KA1999N+00781MD1310161+9999
0067115180999991929092318004+50100+014283FM-12+037199999V0203201N00261220001CN0100001N9+01221+99999102401ADDAA199000591GF104991041051012501999999KA1999M+01391MD1310201+9999
0056115180999991929092406004+50100+014283FM-12+037199999V0203201N00101220001CN0020001N9+01001+99999102701ADDGF101991001001999999999999KA1999N+00501MD1310041+9999
0000115180999991929092418004+50100+014283FM-12+037199999V02099999999999999999N9999999N9+99999+99999999999
0056115180999991929092506004+50100+014283FM-12+037199999V0203601N00101220001CN0040001N9+00891+99999103311ADDGF102991021051012501999999KA1999N+00721MD1310201+9999
0056115180999991929092518004+50100+014283FM-12+037199999V0209999900101012301CN0100001N9+01391+99999999999ADDGF106991061051012501999999KA1999M+01611MD1310041+9999
0056115180999991929092606004+50100+014283FM-12+037199999V0209991C00001220001CN0005001N9+00611+99999103661ADDGF100991001001999999999999KA1999N+00281MD1310041+9999
0017115180999991929092618004+50100+014283FM-12+037199999V0209991C000019999999N9999999N9+01391+99999103151ADDMD1810041+9999
0077115180999991929092706004+50100+014283FM-12+037199999V0202001N00101220001CN0020001N9+00611+99999103031ADDGF101991001001999999999999KA1999N+00391EQDQ01+000032APCTENQ02+000002APC3  
0077115180999991929092718004+50100+014283FM-12+037199999V0209991C00001220001CN0020001N9+01391+99999102661ADDGF100991001001999999999999KA1999M+02281EQDQ01+000032APCTENQ02+000002APC3  
0075115180999991929092806004+50100+014283FM-12+037199999V0209991C00001220001CN0002001N9+00611+99999102881ADDGF100991001001999999999999KA1999N+99999MD1310041+9999EQDQ01 +00892ATMN  
0093115180999991929092818004+50100+014283FM-12+037199999V0209991C00001220001CN0200001N9+01501+99999999999ADDGF100991001001999999999999KA1999M+02111EQDQ01+009992WODIR Q02+000032APCTENQ03+000002APC3  
0077115180999991929092906004+50100+014283FM-12+037199999V0209991C00001220001CN0020001N9+00781+99999102641ADDGF101991001001999999999999KA1999N+00391EQDQ01+000032APCTENQ02+000002APC3  
0035115180999991929092918004+50100+014283FM-12+037199999V0201401N001019999999N9999999N9+01611+99999102301EQDQ01+000032APCTENQ02+000002APC3  
0077115180999991929093006004+50100+014283FM-12+037199999V0209991C000019999999N0005001N9+01001+99999102431ADDGF106991041051017501999999KA1999N+00781EQDQ01+000032APCTENQ02+000002APC3  
0056115180999991929100106004+50100+014283FM-12+037199999V0201801N00261220001CN0040001N9+01281+99999101801ADDGF104991001001999999999999KA1999N+01001MD1810041+9999
0040115180999991929100118004+50100+014283FM-12+037199999V0202301N002619999999N9999999N9+01721+99999101381ADDAA199000691GF106991011051012501999999
0067115180999991929100206004+50100+014283FM-12+037199999V0201801N00101007801CN0040001N9+01221+99999101441ADDAA199003091GF108991061061008001999999KA1999N+01001MD1810161+9999
0035115180999991929100218004+50100+014283FM-12+037199999V0202501N004619999999N9999999N9+02001+99999101001EQDQ01+000032APCTENQ02+000002APC3  
0077115180999991929100306004+50100+014283FM-12+037199999V0202001N00261220001CN0100001N9+01781+99999101101ADDGF104991011051012501999999KA1999N+01501EQDQ01+000032APCTENQ02+000002APC3  
0000115180999991929100318004+50100+014283FM-12+037199999V02099999999999999999N9999999N9+99999+99999999999
0056115180999991929100406004+50100+014283FM-12+037199999V0202001N00261220001CN0200001N9+02001+99999101391ADDGF101991001001999999999999KA1999N+01781MD1310161+9999
0077115180999991929100418004+50100+014283FM-12+037199999V0209991C00001220001CN0200001N9+02221+99999101201ADDGF100991001001999999999999KA1999M+02781EQDQ01+000032APCTENQ02+000002APC3  
0056115180999991929100506004+50100+014283FM-12+037199999V0201801N00101220001CN0040001N9+01281+99999101281ADDGF100991001001999999999999KA1999N+01111MD1310041+9999
0000115180999991929100518004+50100+014283FM-12+037199999V02099999999999999999N9999999N9+99999+99999999999
0000115180999991929100606004+50100+014283FM-12+037199999V02099999999999999999N9999999N9+99999+99999999999
0000115180999991929100618004+50100+014283FM-12+037199999V02099999999999999999N9999999N9+99999+99999999999
0056115180999991929100706004+50100+014283FM-12+037199999V0202301N00261220001CN0200001N9+01391+99999101501ADDGF102991011051012501999999KA1999N+01111MD1310241+9999
0056115180999991929100718004+50100+014283FM-12+037199999V0203601N00261220001CN0100001N9+01611+99999101631ADDGF101991001001999999999999KA1999M+02111MD1310041+9999
0017115180999991929100806004+50100+014283FM-12+037199999V02099999001019999999N9999999N9+99999+99999101421ADDMD1810041+9999
0067115180999991929100818004+50100+014283FM-12+037199999V0209991C00001220001CN0040001N9+01721+99999100801ADDAA199000691GF104991001001999999999999KA1999M+02001MD1810041+9999
0067115180999991929100906004+50100+014283FM-12+037199999V0202001N002619999999N0100001N9+01221+99999100791ADDAA199004091GF107991041051008001999999KA1999N+01221MD1310041+9999
0000115180999991929100918004+50100+014283FM-12+037199999V02099999999999999999N9999999N9+99999+99999999999
0056115180999991929101006004+50100+014283FM-12+037199999V0202701N00931220001CN0200001N9+00891+99999101741ADDGF104991011011012501999999KA1999N+00721MD1310161+9999
0075115180999991929101018004+50100+014283FM-12+037199999V0202701N006719999999N0100001N9+00891+99999102231ADDAA199000391AY161999GF106991041011008001999999KA1999M+01111MD1310201+9999
0067115180999991929101106004+50100+014283FM-12+037199999V0202501N00461012301CN0040001N9+01001+99999102301ADDAA199001091GF108991061051012501999999KA1999N+00781MD1310041+9999
0017115180999991929101118004+50100+014283FM-12+037199999V0202501N012319999999N9999999N9+01111+99999101701ADDMD1810101+9999
0017115180999991929101206004+50100+014283FM-12+037199999V0202901N004619999999N9999999N9+00891+99999101901ADDMD1310101+9999
0017115180999991929101218004+50100+014283FM-12+037199999V0202701N004619999999N9999999N9+00781+99999102601ADDMD1310101+9999
0056115180999991929101306004+50100+014283FM-12+037199999V0202301N002619999999N0100001N9+00891+99999102701ADDGF107991041051008001999999KA1999N+00721MD1310041+9999
0056115180999991929101318004+50100+014283FM-12+037199999V0202901N00261012301CN0100001N9+01221+99999102861ADDGF108991081051012501999999KA1999M+01281MD1310161+9999
0056115180999991929101406004+50100+014283FM-12+037199999V0209991C00001012301CN0005001N9+00111+99999103021ADDGF107991071051012501999999KA1999N+00111MD1310041+9999
0056115180999991929101418004+50100+014283FM-12+037199999V0209991C00001220001CN0100001N9+01111+99999102951ADDGF101991001001999999999999KA1999M+01501MD1810041+9999
0077115180999991929101506004+50100+014283FM-12+037199999V0202301N00261007801CN0020001N9+01001+99999102901ADDGF108991081051008001999999KA1999N+00721EQDQ01+000032APCTENQ02+000002APC3  
0000115180999991929101518004+50100+014283FM-12+037199999V02099999999999999999N9999999N9+99999+99999999999
0077115180999991929101606004+50100+014283FM-12+037199999V0209991C00001015001CN0002001N9+01001+99999102561ADDGF106991061011017501999999KA1999N+00891EQDQ01+000032APCTENQ02+000002APC3  
0056115180999991929101618004+50100+014283FM-12+037199999V0200901N00101220001CN0040001N9+01111+99999102021ADDGF102991001001999999999999KA1999M+01611MD1810041+9999
0077115180999991929101706004+50100+014283FM-12+037199999V0202701N00461007801CN0040001N9+01001+99999101831ADDGF108991081051008001999999KA1999N+00391EQDQ01+000032APCTENQ02+000002APC3  
0056115180999991929101718004+50100+014283FM-12+037199999V0202701N00261012301CN0100001N9+01281+99999101841ADDGF108991081051012501999999KA1999M+01721MD1310041+9999
0077115180999991929101806004+50100+014283FM-12+037199999V0209991C000019999999N0040001N9+00891+99999101791ADDGF106991041011012501999999KA1999N+00781EQDQ01+000032APCTENQ02+000002APC3  
0077115180999991929101818004+50100+014283FM-12+037199999V0200901N00101220001CN0100001N9+01221+99999101181ADDGF102991001001999999999999KA1999M+01721EQDQ01+000032APCTENQ02+000002APC3  
0088115180999991929101906004+50100+014283FM-12+037199999V0209991C00001000151CN0002001N9+00721+99999100661ADDAA199000691GF108991081051000251999999KA1999N+00611EQDQ01+000032APCTENQ02+000002APC3  
0071115180999991929101918004+50100+014283FM-12+037199999V0200501N00101004501CN0020001N9+01221+99999999999ADDGF108991081051004501999999KA1999M+01281MA1999999090001MD1810041+9999
0088115180999991929102006004+50100+014283FM-12+037199999V0202301N00261004501CN0040001N9+01001+99999100071ADDAA199000591GF108991061061004501999999KA1999N+01001EQDQ01+000032APCTENQ02+000002APC3  
0000115180999991929102018004+50100+014283FM-12+037199999V02099999999999999999N9999999N9+99999+99999999999
0017115180999991929102106004+50100+014283FM-12+037199999V0209991C000019999999N9999999N9+00501+99999101101ADDMD1310101+9999
0056115180999991929102118004+50100+014283FM-12+037199999V0201101N00261220001CN0100001N9+00721+99999101341ADDGF102991001001999999999999KA1999M+01221MD1310041+9999
0067115180999991929102206004+50100+014283FM-12+037199999V0209991C00001000151CN0002001N9+00221+99999101341ADDAA199000391GF108991081051000251999999KA1999N+00111MD1310041+9999
0000115180999991929102218004+50100+014283FM-12+037199999V02099999999999999999N9999999N9+99999+99999999999
0067115180999991929102306004+50100+014283FM-12+037199999V0209991C00001000151CN0000501N9+00611+99999100961ADDAA199002091GF108991081051000251999999KA1999N+00391MD1810041+9999
0067115180999991929102318004+50100+014283FM-12+037199999V0200701N00101000601CN0005001N9+00891+99999101001ADDAA199000391GF106991061051000751999999KA1999M+01111MD1310041+9999
0067115180999991929102406004+50100+014283FM-12+037199999V0202701N00101000151CN0000001N9+00391+99999101181ADDAA199000391GF108991081051000251999999KA1999N+00391MD1310161+9999
0067115180999991929102418004+50100+014283FM-12+037199999V0200701N00261220001CN0005001N9+00781+99999100751ADDAA199000691GF100991001001999999999999KA1999M+01001MD1810041+9999
0067115180999991929102506004+50100+014283FM-12+037199999V0209991C00001001501CN0000001N9+00501+99999100441ADDAA199000391GF108991081051001501999999KA1999N+00501MD1310041+9999
0000115180999991929102518004+50100+014283FM-12+037199999V02099999999999999999N9999999N9+99999+99999999999
0017115180999991929102606004+50100+014283FM-12+037199999V0202901N009319999999N9999999N9+00611+99999099971ADDMD1810101+9999
0000115180999991929102618004+50100+014283FM-12+037199999V02099999999999999999N9999999N9+99999+99999999999
0067115180999991929102706004+50100+014283FM-12+037199999V0202301N00101000151CN0002001N9+00391+99999100511ADDAA199000691GF108991081051000251999999KA1999N+00281MD1310161+9999
0056115180999991929102718004+50100+014283FM-12+037199999V0202901N00261007801CN0100001N9+00611+99999100701ADDGF107991071051008001999999KA1999M+00891MD1310161+9999
0075115180999991929102806004+50100+014283FM-12+037199999V0202501N00671012301CN0100001N9+00391+99999101161ADDAA199000691AY161999GF106991061051012501999999KA1999N+00221MD1310161+9999
0000115180999991929102818004+50100+014283FM-12+037199999V02099999999999999999N9999999N9+99999+99999999999
0056115180999991929102906004+50100+014283FM-12+037199999V0209999900461007801CN0100001N9+00391+99999999999ADDGF107991071051008001999999KA1999N+00221MD1810241+9999
0053115180999991929102918004+50100+014283FM-12+037199999V0202001N002619999999N9999999N9+00891+99999999999ADDMA1999999090001EQDQ01+000032APCTENQ02+000002APC3  
0035115180999991929103006004+50100+014283FM-12+037199999V0201401N001019999999N9999999N9+00781+99999100501EQDQ01+000032APCTENQ02+000002APC3  
0056115180999991929103018004+50100+014283FM-12+037199999V0202301N001019999999N0040001N9+00781+99999100831ADDGF106991041051017501999999KA1999M+01221MD1310201+9999
0056115180999991929103106004+50100+014283FM-12+037199999V0203201N00101000601CN0005001N9+00501+99999101501ADDGF108991081051000751999999KA1999N+00281MD1310241+9999
0000115180999991929103118004+50100+014283FM-12+037199999V02099999999999999999N9999999N9+99999+99999999999
0000115180999991929110106004+50100+014283FM-12+037199999V02099999999999999999N9999999N9+99999+99999999999
0000115180999991929110118004+50100+014283FM-12+037199999V02099999999999999999N9999999N9+99999+99999999999
0000115180999991929110206004+50100+014283FM-12+037199999V02099999999999999999N9999999N9+99999+99999999999
0000115180999991929110218004+50100+014283FM-12+037199999V02099999999999999999N9999999N9+99999+99999999999
0000115180999991929110306004+50100+014283FM-12+037199999V02099999999999999999N9999999N9+99999+99999999999
0000115180999991929110318004+50100+014283FM-12+037199999V02099999999999999999N9999999N9+99999+99999999999
0067115180999991929110406004+50100+014283FM-12+037199999V0202901N00461007801CN0040001N9+00611+99999102641ADDAA199016091GF107991071051008001999999KA1999N+00281MD1310361+9999
0017115180999991929110418004+50100+014283FM-12+037199999V0202501N001019999999N9999999N9+00501+99999103101ADDMD1310101+9999
0088115180999991929110506004+50100+014283FM-12+037199999V0209991C00001000151CN0000501N9-00111+99999103141ADDAA199000691GF108991081051000251999999KA1999N-00111EQDQ01+000032APCTENQ02+000002APC3  
0067115180999991929110518004+50100+014283FM-12+037199999V0209991C00001000151CN0000501N9+00281+99999102391ADDAA199000691GF108991081051000251999999KA1999M+00721MD1810041+9999
0067115180999991929110606004+50100+014283FM-12+037199999V0200901N00101000151CN0005001N9+00111+99999101981ADDAA199000691GF108991081051000251999999KA1999N-00111MD1810161+9999
0056115180999991929110618004+50100+014283FM-12+037199999V0201401N00101004501CN0020001N9+00611+99999101361ADDGF108991081051004501999999KA1999M+00611MD1810041+9999
0067115180999991929110706004+50100+014283FM-12+037199999V0202701N00101012301CN0040001N9+00501+99999101631ADDAA199000691GF107991071051012501999999KA1999N+00501MD1810201+9999
0000115180999991929110718004+50100+014283FM-12+037199999V02099999999999999999N9999999N9+99999+99999999999
0088115180999991929110806004+50100+014283FM-12+037199999V0202301N00101001501CN0005001N9-00111+99999102061ADDAA199000691GF106991061051001501999999KA1999N-00111EQDQ01+000032APCTENQ02+000002APC3  
0035115180999991929110818004+50100+014283FM-12+037199999V0201101N002619999999N9999999N9+00391+99999101501EQDQ01+000032APCTENQ02+000002APC3  
0075115180999991929110906004+50100+014283FM-12+037199999V0209991C000019999999N0010001N9+00391+99999101381ADDAA199000591AY161999GF108991041051004501999999KA1999N+00111MD1310041+9999
0067115180999991929110918004+50100+014283FM-12+037199999V0202701N00101004501CN0020001N9+00781+99999101911ADDAA199001091GF108991081061004501999999KA1999M+00891MD1310241+9999
0067115180999991929111006004+50100+014283FM-12+037199999V0209991C00001001501CN0000501N9+00111+99999102401ADDAA199000391GF108991081051001501999999KA1999N+00001MD1810041+9999
0017115180999991929111018004+50100+014283FM-12+037199999V0201101N001019999999N9999999N9+00891+99999101701ADDMD1810101+9999
0017115180999991929111106004+50100+014283FM-12+037199999V0209991C000019999999N9999999N9+00721+99999102001ADDMD1310101+9999
0000115180999991929111118004+50100+014283FM-12+037199999V02099999999999999999N9999999N9+99999+99999999999
0067115180999991929111206004+50100+014283FM-12+037199999V0201601N00101000601CN0002001N9+00001+99999101261ADDAA199000691GF106991061051000751999999KA1999N-00111MD1810241+9999
0067115180999991929111218004+50100+014283FM-12+037199999V0201801N00101007801CN0040001N9+00781+99999100391ADDAA199000691GF108991081061008001999999KA1999M+00781MD1810041+9999
0035115180999991929111306004+50100+014283FM-12+037199999V0202301N001019999999N9999999N9+00611+99999100701EQDQ01+000032APCTENQ02+000002APC3  
0056115180999991929111318004+50100+014283FM-12+037199999V0201101N00101220001CN0200001N9+00391+99999100351ADDGF101991011011012501999999KA1999M+00721MD1810041+9999
0049115180999991929111406004+50100+014283FM-12+037199999V0202501N001019999999N9999999N9+00391+99999099801ADDAA199001091EQDQ01+000032APCTENQ02+000002APC3  
0088115180999991929111418004+50100+014283FM-12+037199999V0202701N00261007801CN0040001N9+00501+99999099721ADDAA199000691GF108991081051008001999999KA1999M+00611EQDQ01+000032APCTENQ02+000002APC3  
0056115180999991929111506004+50100+014283FM-12+037199999V0202501N00461220001CN0040001N9+00281+99999100141ADDGF104991021051012501999999KA1999N+00221MD1310201+9999
0017115180999991929111518004+50100+014283FM-12+037199999V0202301N999999999999N9999999N9+00221+99999100701ADDMD1310101+9999
0077115180999991929111606004+50100+014283FM-12+037199999V0201801N00101220001CN0040001N9-00111+99999100721ADDGF100991001001999999999999KA1999N-00221EQDQ01+000032APCTENQ02+000002APC3  
0056115180999991929111618004+50100+014283FM-12+037199999V0201401N00101012301CN0100001N9+00221+99999100321ADDGF106991061051012501999999KA1999M+00501MD1810041+9999
0000115180999991929111706004+50100+014283FM-12+037199999V02099999999999999999N9999999N9+99999+99999999999
0000115180999991929111718004+50100+014283FM-12+037199999V02099999999999999999N9999999N9+99999+99999999999
0000115180999991929111806004+50100+014283FM-12+037199999V02099999999999999999N9999999N9+99999+99999999999
0056115180999991929111818004+50100+014283FM-12+037199999V0202701N00101004501CN0040001N9+00501+99999101781ADDGF108991081051004501999999KA1999M+00721MD1310241+9999
0042115180999991929111906004+50100+014283FM-12+037199999V0209999900261007801CN0020001N9+00611+99999102311ADDGF107991071051008001999999KA1999N+00391
0017115180999991929111918004+50100+014283FM-12+037199999V0209991C000019999999N9999999N9+00281+99999102401ADDMD1310101+9999
0075115180999991929112006004+50100+014283FM-12+037199999V0200901N00101220001CN0020001N9+00001+99999102421ADDAA199000691AY141999GF102991001001999999999999KA1999N-00111MD1310041+9999
0000115180999991929112018004+50100+014283FM-12+037199999V02099999999999999999N9999999N9+99999+99999999999
0088115180999991929112106004+50100+014283FM-12+037199999V0200901N00101021001CN0005001N9+00501+99999101981ADDAA199000691GF106991061051022501999999KA1999N+00111EQDQ01+000032APCTENQ02+000002APC3  
0000115180999991929112118004+50100+014283FM-12+037199999V02099999999999999999N9999999N9+99999+99999999999
0035115180999991929112206004+50100+014283FM-12+037199999V0201401N002619999999N9999999N9+00781+99999101901EQDQ01+000032APCTENQ02+000002APC3  
0056115180999991929112218004+50100+014283FM-12+037199999V0201401N00261012301CN0100001N9+00781+99999101861ADDGF107991071051012501999999KA1999M+01001MD1310041+9999
0056115180999991929112306004+50100+014283FM-12+037199999V0209991C00001007801CN0005001N9+00281+99999101961ADDGF107991071051008001999999KA1999N+00221MD1310041+9999
0056115180999991929112318004+50100+014283FM-12+037199999V0201401N00101007801CN0040001N9+00721+99999101961ADDGF108991081051008001999999KA1999M+00781MD1310041+9999
0056115180999991929112406004+50100+014283FM-12+037199999V0201401N00101012301CN0100001N9+00611+99999101861ADDGF107991071051012501999999KA1999N+00611MD1810041+9999
0056115180999991929112506004+50100+014283FM-12+037199999V0202301N00261220001CN0040001N9+00391+99999102311ADDGF102991021011017501999999KA1999N+00391MD1310041+9999
0017115180999991929112518004+50100+014283FM-12+037199999V0201401N001019999999N9999999N9+00611+99999101901ADDMD1810101+9999
0067115180999991929112606004+50100+014283FM-12+037199999V0200901N00101001501CN0005001N9+00391+99999101741ADDAA199000691GF108991081051001501999999KA1999N+00111MD1810041+9999
0067115180999991929112618004+50100+014283FM-12+037199999V0202301N00261002401CN0010001N9+00611+99999101801ADDAA199007091GF108991081061002501999999KA1999M+00721MD1310041+9999
0067115180999991929112706004+50100+014283FM-12+037199999V0202701N00671220001CN0100001N9+00611+99999101741ADDAA199001091GF104991021051012501999999KA1999N+00611MD1810041+9999
0017115180999991929112718004+50100+014283FM-12+037199999V0202701N001019999999N9999999N9+00501+99999101901ADDMD1310101+9999
0077115180999991929112806004+50100+014283FM-12+037199999V0201801N00101220001CN0040001N9+00281+99999102121ADDGF104991021051012501999999KA1999N+00221EQDQ01+000032APCTENQ02+000002APC3  
0000115180999991929112818004+50100+014283FM-12+037199999V02099999999999999999N9999999N9+99999+99999999999
0067115180999991929112906004+50100+014283FM-12+037199999V0202001N006719999999N0100001N9+00611+99999101121ADDAA199001091GF106991041011012501999999KA1999N+00501MD1810041+9999
0000115180999991929112918004+50100+014283FM-12+037199999V02099999999999999999N9999999N9+99999+99999999999
0077115180999991929113006004+50100+014283FM-12+037199999V0209991C00001012301CN0040001N9+00611+99999100951ADDGF106991061051012501999999KA1999N+00501EQDQ01+000032APCTENQ02+000002APC3  
0056115180999991929113018004+50100+014283FM-12+037199999V0201401N002619999999N0040001N9+00611+99999100551ADDGF108991041051012501999999KA1999M+00891MD1810161+9999
0000115180999991929120106004+50100+014283FM-12+037199999V02099999999999999999N9999999N9+99999+99999999999
0000115180999991929120118004+50100+014283FM-12+037199999V02099999999999999999N9999999N9+00891+99999999999
0056115180999991929120206004+50100+014283FM-12+037199999V0202001N00261220001CN0040001N9+00611+99999100901ADDGF102991021051008001999999KA1999N+00501MD1310201+9999
0000115180999991929120218004+50100+014283FM-12+037199999V02099999999999999999N9999999N9+99999+99999999999
0056115180999991929120306004+50100+014283FM-12+037199999V0201801N001019999999N0040001N9+00281+99999101281ADDGF106991041011008001999999KA1999N+00221MD1310161+9999
0000115180999991929120318004+50100+014283FM-12+037199999V02099999999999999999N9999999N9+99999+99999999999
0067115180999991929120406004+50100+014283FM-12+037199999V0201601N00101004501CN0010001N9+00781+99999102231ADDAA199003091GF107991061051004501999999KA1999N+00501MD1310161+9999
0035115180999991929120418004+50100+014283FM-12+037199999V0200701N004619999999N9999999N9+00891+99999101701EQDQ01+000032APCTENQ02+000002APC3  
0028115180999991929120506004+50100+014283FM-12+037199999V0201601N001019999999N9999999N9+00611+99999101801ADDAA199001091MD1810101+9999
0000115180999991929120518004+50100+014283FM-12+037199999V02099999999999999999N9999999N9+99999+99999999999
0067115180999991929120606004+50100+014283FM-12+037199999V0201801N00101004501CN0020001N9+00391+99999100741ADDAA199000691GF108991061051004501999999KA1999N+00391MD1310041+9999
0000115180999991929120618004+50100+014283FM-12+037199999V02099999999999999999N9999999N9+99999+99999999999
0067115180999991929120706004+50100+014283FM-12+037199999V0201401N00101220001CN0040001N9+00281+99999100601ADDAA199000591GF102991011051012501999999KA1999N+00281MD1810041+9999
0000115180999991929120718004+50100+014283FM-12+037199999V02099999999999999999N9999999N9+99999+99999999999
0056115180999991929120806004+50100+014283FM-12+037199999V0201801N00101220001CN0100001N9+00721+99999101941ADDGF102991021051008001999999KA1999N+00721MD1310241+9999
0056115180999991929120818004+50100+014283FM-12+037199999V0201601N00101220001CN0200001N9+00501+99999101621ADDGF100991001001999999999999KA1999M+01001MD1810201+9999
0017115180999991929120906004+50100+014283FM-12+037199999V0202501N009319999999N9999999N9+00611+99999101501ADDMD1310101+9999
0000115180999991929120918004+50100+014283FM-12+037199999V02099999999999999999N9999999N9+99999+99999999999
0056115180999991929121006004+50100+014283FM-12+037199999V0202501N00671007801CN0100001N9+01111+99999100461ADDGF107991061051008001999999KA1999N+00501MD1810401+9999
0067115180999991929121018004+50100+014283FM-12+037199999V0202501N006719999999N0100001N9+00501+99999101101ADDAA199000691GF108991021051008001999999KA1999M+01001MD1310201+9999
0064115180999991929121106004+50100+014283FM-12+037199999V0201801N001019999999N0500001N9+00221+99999101941ADDGF108991041061999999999999EQDQ01+000032APCTENQ02+000002APC3  
0075115180999991929121118004+50100+014283FM-12+037199999V0202301N006719999999N0200001N9+00501+99999100631ADDAA199003091AY161999GF106991041051004501999999KA1999M+00721MD1810041+9999
0056115180999991929121206004+50100+014283FM-12+037199999V0202001N00261220001CN0100001N9+00781+99999101281ADDGF104991021051008001999999KA1999N+00721MD1310041+9999
0043115180999991929121218004+50100+014283FM-12+037199999V0202501N00671220001CN0100001N9+00391+99999100901ADDGF104991001001999999999999MD1310041+9999
0056115180999991929121306004+50100+014283FM-12+037199999V0202901N00931220001CN0100001N9+00721+99999101841ADDGF104991041051012501999999KA1999N+00501MD1310401+9999
0000115180999991929121318004+50100+014283FM-12+037199999V02099999999999999999N9999999N9+99999+99999999999
0067115180999991929121406004+50100+014283FM-12+037199999V0202001N00671004501CN0100001N9+00721+99999102901ADDAA199000691GF108991081051004501999999KA1999N+00501MD1310041+9999
0000115180999991929121418004+50100+014283FM-12+037199999V02099999999999999999N9999999N9+99999+99999999999
0067115180999991929121506004+50100+014283FM-12+037199999V0202501N00931220001CN0200001N9+01001+99999102301ADDAA199001091GF104991011051012501999999KA1999N+00891MD1810041+9999
0000115180999991929121518004+50100+014283FM-12+037199999V02099999999999999999N9999999N9+99999+99999999999
0067115180999991929121606004+50100+014283FM-12+037199999V0202901N002619999999N0040001N9+00501+99999102481ADDAA199003091GF108991041011004501999999KA1999N+00391MD1310041+9999
0000115180999991929121618004+50100+014283FM-12+037199999V02099999999999999999N9999999N9+99999+99999999999
0067115180999991929121706004+50100+014283FM-12+037199999V0202301N00671007801CN0100001N9+00281+99999102361ADDAA199003091GF107991061051008001999999KA1999N+00111MD1810161+9999
0000115180999991929121718004+50100+014283FM-12+037199999V02099999999999999999N9999999N9+99999+99999999999
0017115180999991929121806004+50100+014283FM-12+037199999V0203401N001019999999N9999999N9-00111+99999103401ADDMD1310101+9999
0000115180999991929121818004+50100+014283FM-12+037199999V02099999999999999999N9999999N9+99999+99999999999
0062115180999991929121906004+50100+014283FM-12+037199999V0203401N00261220001CN0010001N9-00281+99999103981ADDGF104991021051004501999999KA1999N-00281MD1310041+9999MW1101
0017115180999991929121918004+50100+014283FM-12+037199999V0209991C000019999999N9999999N9-00281+99999103601ADDMD1810101+9999
0056115180999991929122006004+50100+014283FM-12+037199999V0209991C00001220001CN0005001N9-00611+99999102981ADDGF100991001001999999999999KA1999N-00721MD1810041+9999
0075115180999991929122018004+50100+014283FM-12+037199999V0209991C00001220001CN0005001N9+00111+99999102421ADDGF100991001001999999999999KA1999M+99999MD1810161+9999EQDQ01 -00282ATMX  
0056115180999991929122106004+50100+014283FM-12+037199999V0200901N00261220001CN0005001N9-00781+99999102081ADDGF102991021051012501999999KA1999N-00891MD1810161+9999
0000115180999991929122118004+50100+014283FM-12+037199999V02099999999999999999N9999999N9+99999+99999999999
0000115180999991929122206004+50100+014283FM-12+037199999V02099999999999999999N9999999N9+99999+99999999999
0017115180999991929122218004+50100+014283FM-12+037199999V0201401N006719999999N9999999N9+00001+99999101301ADDMD1310101+9999
0056115180999991929122306004+50100+014283FM-12+037199999V0201401N00261007801CN0200001N9-00221+99999101361ADDGF108991081051008001999999KA1999N-00221MD1310041+9999
0000115180999991929122318004+50100+014283FM-12+037199999V0201101N001019999999N9999999N9-00281+99999101201
0056115180999991929122406004+50100+014283FM-12+037199999V0201401N00101007801CN0040001N9-00281+99999100501ADDGF108991081051008001999999KA1999N-00281MD1810161+9999
0067115180999991929122418004+50100+014283FM-12+037199999V0209991C00001004501CN0010001N9-00281+99999100561ADDAA199003091GF108991081061004501999999KA1999M-00221MD1310201+9999
0017115180999991929122506004+50100+014283FM-12+037199999V0201801N001019999999N9999999N9+00221+99999101401ADDMD1310101+9999
0000115180999991929122518004+50100+014283FM-12+037199999V02099999999999999999N9999999N9+99999+99999999999
0056115180999991929122606004+50100+014283FM-12+037199999V0201101N001019999999N0020001N9+00001+99999101711ADDGF106991041051008001999999KA1999N+00001MD1310041+9999
0000115180999991929122618004+50100+014283FM-12+037199999V02099999999999999999N9999999N9+99999+99999999999
0035115180999991929122706004+50100+014283FM-12+037199999V0209991C000019999999N9999999N9+00111+99999102101EQDQ01+000032APCTENQ02+000002APC3  
0017115180999991929122718004+50100+014283FM-12+037199999V0209991C000019999999N9999999N9+00221+99999101911ADDMD1810041+9999
0077115180999991929122806004+50100+014283FM-12+037199999V0201601N00101004501CN0020001N9+00221+99999101311ADDGF108991081051004501999999KA1999N+00221EQDQ01+000032APCTENQ02+000002APC3  
0067115180999991929122818004+50100+014283FM-12+037199999V0202301N00101004501CN0040001N9+00221+99999101561ADDAA199000691GF106991061051004501999999KA1999M+00391MD1310161+9999
0000115180999991929122918004+50100+014283FM-12+037199999V02099999999999999999N9999999N9+99999+99999999999
0056115180999991929123006004+50100+014283FM-12+037199999V0202001N00101220001CN0020001N9+00501+99999101961ADDGF104991021051008001999999KA1999N+00501MD1310041+9999
0000115180999991929123018004+50100+014283FM-12+037199999V02099999999999999999N9999999N9+99999+99999999999
0077115180999991929123106004+50100+014283FM-12+037199999V0202001N00461220001CN0040001N9+00391+99999101261ADDGF104991041051008001999999KA1999N+00221EQDQ01+000032APCTENQ02+000002APC3  
0075115180999991929123118004+50100+014283FM-12+037199999V0202701N00261220001CN0040001N9+00281+99999101821ADDGF101991011011008001999999KA1999M+99999MD1310201+9999EQDQ01 +04502ATMX  
