0056122050999991929010106004+53400+014633FM-12+000199999V0202701N00671007801CN0200001N9+00001-00061100951ADDGF108991081051008001999999KA1999N+00001MD1310141+9999
0088122050999991929010112004+53400+014633FM-12+000199999V0202701N00101220001CN0500001N9-00111-00171101181ADDAY111999GF104991999011012501001001EQDQ01+000012SCOTLCQ02+000082APCTENQ03+000002APC3  
0029122050999991929010206004+53400+014633FM-12+000199999V0200501N001019999999N0100001N9-00221+99999102121ADDGF106991999999012501999999
0051122050999991929010212004+53400+014633FM-12+000199999V0200501N00671220001CN0500001N9+00111-00111102521ADDAY101999GF104991021051012501031001MD1310061+9999
0056122050999991929010306004+53400+014633FM-12+000199999V0200501N00461004501CN0200001N9-00391-00441103031ADDGF108991081051004501999999KA1999N-00501MD1310061+9999
0051122050999991929010312004+53400+014633FM-12+000199999V0200501N00931007801CN0200001N9-00281-00441103111ADDAY121999GF108991081051008001999999MD1310061+9999
0056122050999991929010406004+53400+014633FM-12+000199999V0200701N00931012301CN0200001N9-00721-01611103101ADDGF108991081051012501999999KA1999N-00781MD1810061+9999
0086122050999991929010412004+53400+014633FM-12+000199999V0200501N004619999999N0200001N9-00391-00561102092ADDAY121999GF108991999051008001001001MD1810061+9999EQDQ01+000042SCOTLCQ02+102093APOSLP
0056122050999991929010506004+53400+014633FM-12+000199999V0200501N00261012301CN0100001N9-00891-01061103101ADDGF108991081051012501999999KA1999N-00891MD1810061+9999
0051122050999991929010512004+53400+014633FM-12+000199999V0200501N00261220001CN0200001N9-00611-00941103011ADDAY101999GF102991001001999999001081MD1810061+9999
0075122050999991929010606004+53400+014633FM-12+000199999V0200901N006719999999N0100001N9-00611-00781103351ADDGF108991999051008001001001KA1999N-00891MD1310061+9999EQDQ01+000042SCOTLC
0072122050999991929010612004+53400+014633FM-12+000199999V0200901N00671007801CN0100001N9-00391-00561103551ADDAY111999GF107991071051008001001001EQDQ01+000032APCTENQ02+000002APC3  
0093122050999991929010706004+53400+014633FM-12+000199999V0201101N00461220001CN0100001N9-00781-00941103471ADDGF102991999001999999021001KA1999N-00781EQDQ01+000002SCOTLCQ02+000032APCTENQ03+000002APC3  
0051122050999991929010712004+53400+014633FM-12+000199999V0201101N00461220001CN0200001N9-00281-00441103601ADDAY101999GF104991001001999999021021MD1810061+9999
0056122050999991929010806004+53400+014633FM-12+000199999V0201101N00261220001CN0200001N9-00891-01221104291ADDGF102991001001999999001021KA1999N-00891MD1310141+9999
0072122050999991929010812004+53400+014633FM-12+000199999V0201101N00261220001CN0200001N9-00221-00941104531ADDAY101999GF100991001001999999001001EQDQ01+000032APCTENQ02+000002APC3  
0056122050999991929010906004+53400+014633FM-12+000199999V0200901N00461007801CN0100001N9-00781-00941104801ADDGF108991081051008001999999KA1999N-01111MD1310061+9999
0051122050999991929010912004+53400+014633FM-12+000199999V0201401N00461220001CN0200001N9-00611-01111104821ADDAY101999GF100991001001999999001001MD1810201+9999
0075122050999991929011006004+53400+014633FM-12+000199999V0200901N00101220001CN0200001N9-01391-01561104111ADDGF101991999001999999021001KA1999N-01391MD1810141+9999EQDQ01+000002SCOTLC
0051122050999991929011012004+53400+014633FM-12+000199999V0201101N00101220001CN0200001N9-00611-00941103951ADDAY101999GF101991001001999999021021MD1810141+9999
0036122050999991929011106004+53400+014633FM-12+000199999V0209991C000019999999N0040001N9-01611-01781103811ADDKA1999N-01611MD1310061+9999MW1471
0051122050999991929011112004+53400+014633FM-12+000199999V0203201N00101220001CN0100001N9-00721-01061103761ADDAY101999GF100991001001999999001001MD1810141+9999
0062122050999991929011206004+53400+014633FM-12+000199999V0202701N00261000151CN0005001N9-00391-00441103201ADDGF108991081051000251999999KA1999N-00721MD1810141+9999MW1471
0057122050999991929011212004+53400+014633FM-12+000199999V0202901N00261004501CN0010001N9-00111-00171103201ADDAY141999GF108991081051004501999999MD1810061+9999MW1451
0075122050999991929011306004+53400+014633FM-12+000199999V0202701N00931002401CN0020001N9+00111+00061101641ADDGF108991081061002501999999KA1999N-00111MD1810542+9999EQDQ01+000542APC3  
0051122050999991929011312004+53400+014633FM-12+000199999V0202701N01541007801CN0100001N9+00281+00221101281ADDAY111999GF107991061051008001001021MD1510141+9999
0056122050999991929011406004+53400+014633FM-12+000199999V0203201N00101220001CN0040001N9-00391-00561101511ADDGF104991001001999999021081KA1999N-00391MD1310061+9999
0072122050999991929011412004+53400+014633FM-12+000199999V0203201N00461220001CN0200001N9-00221-00391101801ADDAY111999GF104991041011012501001001EQDQ01+000032APCTENQ02+000002APC3  
0075122050999991929011506004+53400+014633FM-12+000199999V0202301N00261220001CN0200001N9-00781-00941100781ADDGF102991999001999999021001KA1999N-00891MD1810341+9999EQDQ01+000002SCOTLC
0092122050999991929011512004+53400+014633FM-12+000199999V0201801N01541002401CN0010001N9-00501-00561099322ADDAY171999GF108991081061002501999999MD1814322+9999MW1721EQDQ01+099323APOSLPQ02+004322APC3  
0093122050999991929011606004+53400+014633FM-12+000199999V0202701N00671220001CN0200001N9-00891-01061098901ADDGF102991999001999999021001KA1999N-01001EQDQ01+000002SCOTLCQ02+000032APCTENQ03+000002APC3  
0078122050999991929011612004+53400+014633FM-12+000199999V0202701N00931002401CN0010001N9-00721-00891099011ADDAY171999GF108991081061002501999999MW1731EQDQ01+000032APCTENQ02+000002APC3  
0067122050999991929011706004+53400+014633FM-12+000199999V0202301N00461004501CN0040001N9-00891-01061100231ADDAA199001091GF108991081051004501999999KA1999N-01001MD1310201+9999
0051122050999991929011712004+53400+014633FM-12+000199999V0202301N00461007801CN0100001N9-00721-00891100421ADDAY111999GF108991081051008001999999MD1310061+9999
0056122050999991929011806004+53400+014633FM-12+000199999V0202701N00261007801CN0040001N9-00781-00831101871ADDGF108991081051008001999999KA1999N-00781MD1310201+9999
0120122050999991929011812004+53400+014633FM-12+000199999V0202701N00101012301CN0200001N9+02002+01062102752ADDAY111999GF106991061011012501001001EQDQ01+029323ATOT  Q02+028383ATOD  Q03+102753APOSLPQ04+000032APCTENQ05+000002APC3  
0081122050999991929011906004+53400+014633FM-12+000199999V0202701N00101220001CN0010001N9+00281+00221101101ADDGF104991999051000251001001KA1999N-00781MD1310061+9999MW1681EQDQ01+000012SCOTLC
0051122050999991929011912004+53400+014633FM-12+000199999V0202701N00461002401CN0100001N9+00281+00221101411ADDAY111999GF107991071051002501001001MD1310061+9999
0042122050999991929012006004+53400+014633FM-12+000199999V0209991C000019999999N0100001N9-00611+99999103101ADDGF106991999999012501999999KA1999N-00611
0037122050999991929012012004+53400+014633FM-12+000199999V0209991C000019999999N0200001N9-00111+99999103351ADDAY111999GF106991999001999999031999
0077122050999991929012106004+53400+014633FM-12+000199999V0201101N00261220001CN0100001N9-00391-00561103461ADDGF104991021051012501031001KA1999N-00391EQDQ01+000032APCTENQ02+000002APC3  
0070122050999991929012112004+53400+014633FM-12+000199999V0201101N00101220001CN0200001N9+00001-00221103371ADDAY111999GF104991999001999999031001MD1810141+9999EQDQ01+000002SCOTLC
0075122050999991929012206004+53400+014633FM-12+000199999V0201101N00101220001CN0040001N9-00781-00831102931ADDGF101991999001999999021001KA1999N-00891MD1810141+9999EQDQ01+000002SCOTLC
0051122050999991929012212004+53400+014633FM-12+000199999V0201401N00101220001CN0100001N9-00111-00441102661ADDAY101999GF102991001001999999001021MD1810201+9999
0056122050999991929012306004+53400+014633FM-12+000199999V0201601N00101004501CN0040001N9-00391-00561101891ADDGF108991081051004501999999KA1999N-00721MD1710141+9999
0094122050999991929012406004+53400+014633FM-12+000199999V0202901N00261004501CN0040001N9-00111-00171101621ADDAA199000691GF108991081061004501999999KA1999N-00111MW1701EQDQ01+000032APCTENQ02+000002APC3  
0088122050999991929012506004+53400+014633FM-12+000199999V0209991C00001002401CN0020001N9-00501-00561101861ADDAA199000391GF108991081061002501999999KA1999N-00501EQDQ01+000032APCTENQ02+000002APC3  
0051122050999991929012512004+53400+014633FM-12+000199999V0209991C00001012301CN0020001N9-00501-00671101871ADDAY141999GF106991061051012501001001MD1810061+9999
0067122050999991929012606004+53400+014633FM-12+000199999V0200901N00261004501CN0040001N9-00891-00941101701ADDAA199000591GF108991081051004501999999KA1999N-00891MD1510061+9999
0051122050999991929012612004+53400+014633FM-12+000199999V0209991C00001007801CN0040001N9-00721-00891101641ADDAY121999GF108991081051008001999999MD1810061+9999
0088122050999991929012706004+53400+014633FM-12+000199999V0200501N00101030001CN0100001N9-00501-00561101361ADDAA199000391GF108991041051012501031001KA1999N-00501EQDQ01+000082APCTENQ02+000002APC3  
0078122050999991929012712004+53400+014633FM-12+000199999V0209991C00001030001CN0100001N9-00281-00441101371ADDAY171999GF108991041061012501021001MW1701EQDQ01+000082APCTENQ02+000002APC3  
0073122050999991929012806004+53400+014633FM-12+000199999V0202001N00261030001CN0040001N9-00391-00441101501ADDAA199007091GF107991041061008001021001KA1999N-00501MD1310141+9999MW1701
0051122050999991929012812004+53400+014633FM-12+000199999V0202301N00461007801CN0040001N9-00281-00441102001ADDAY111999GF108991081051008001999999MD1310201+9999
0073122050999991929012906004+53400+014633FM-12+000199999V0202301N00261004501CN0020001N9-00281-00331103201ADDAA199000691GF108991081061004501999999KA1999N-00391MD1310201+9999MW1701
0051122050999991929012912004+53400+014633FM-12+000199999V0209991C00001220001CN0100001N9-00221-00391103541ADDAY171999GF104991041051012501021001MD1310061+9999
0083122050999991929013006004+53400+014633FM-12+000199999V0200501N00101012301CN0010001N9-00781-00831103841ADDGF108991081051012501999999KA1999N-01611MW1101EQDQ01+000032APCTENQ02+000002APC3  
0072122050999991929013012004+53400+014633FM-12+000199999V0201101N00101012301CN0020001N9-00391-00441103761ADDAY141999GF108991081051012501999999EQDQ01+000082APCTENQ02+000002APC3  
0077122050999991929013106004+53400+014633FM-12+000199999V0201101N00101004501CN0040001N9-00501-00561103841ADDGF108991081051004501999999KA1999N-01391EQDQ01+000032APCTENQ02+000002APC3  
0051122050999991929013112004+53400+014633FM-12+000199999V0201101N00671012301CN0100001N9-00781-01111103861ADDAY111999GF106991061051012501001001MD1810061+9999
0077122050999991929020106004+53400+014633FM-12+000199999V0201101N00931220001CN0200001N9-01611-01781103791ADDGF100991001001999999001001KA1999N-01721EQDQ01+000082APCTENQ02+000002APC3  
0051122050999991929020112004+53400+014633FM-12+000199999V0201101N00931220001CN0200001N9-01001-01441103791ADDAY101999GF100991001001999999001001MD1810061+9999
0042122050999991929020206004+53400+014633FM-12+000199999V0200901N00671220001CN0100001N9-01781+99999103671ADDGF100991001001999999999999KA1999N-02111
0051122050999991929020212004+53400+014633FM-12+000199999V0201101N00671220001CN0200001N9-01391-01671103801ADDAY101999GF100991001001999999001001MD1810061+9999
0056122050999991929020306004+53400+014633FM-12+000199999V0201401N00101220001CN0100001N9-02111-02281103551ADDGF104991041051012501001001KA1999N-02391MD1810141+9999
0051122050999991929020312004+53400+014633FM-12+000199999V0201601N00101030001CN0100001N9-01111-01281103331ADDAY101999GF106991021051012501031001MD1810141+9999
0056122050999991929020406004+53400+014633FM-12+000199999V0201801N00101220001CN0100001N9-02001-02171102671ADDGF102991021051012501001001KA1999N-02001MD1810141+9999
0051122050999991929020412004+53400+014633FM-12+000199999V0202301N00101220001CN0200001N9-00781-00941102481ADDAY101999GF100991001001999999001001MD1810141+9999
0062122050999991929020506004+53400+014633FM-12+000199999V0202001N00101220001CN0040001N9-02111-02281102131ADDGF104991001001999999021081KA1999N-02281MD1810141+9999MW1461
0076122050999991929020512004+53400+014633FM-12+000199999V0209991C00001220001CN0020001N9-01111-01281102191ADDAY111999GF108991999001999999021001MD1810061+9999MW1441EQDQ01+000002SCOTLC
0056122050999991929020606004+53400+014633FM-12+000199999V0200901N00261007801CN0100001N9-00781-00831102751ADDGF108991081051008001999999KA1999N-01781MD1310201+9999
0051122050999991929020612004+53400+014633FM-12+000199999V0200901N00101220001CN0200001N9-00111-00441103101ADDAY101999GF100991001001999999001001MD1310141+9999
0077122050999991929020706004+53400+014633FM-12+000199999V0200901N00101030001CN0200001N9-02001-02171103841ADDGF107991041051012501031001KA1999N-02281EQDQ01+000032APCTENQ02+000002APC3  
0088122050999991929020712004+53400+014633FM-12+000199999V0202301N00101220001CN0200001N9-01281-01721103931ADDAY111999GF104991999001999999031001EQDQ01+000002SCOTLCQ02+000032APCTENQ03+000002APC3  
0042122050999991929020806004+53400+014633FM-12+000199999V0202301N004619999999N0100001N9-01391+99999102961ADDGF106991999999012501999999KA1999N-01721
0070122050999991929020812004+53400+014633FM-12+000199999V0202501N00461220001CN0200001N9-00721-01391102591ADDAY101999GF106991999001999999021001MD1810261+9999EQDQ01+000002SCOTLC
0075122050999991929020906004+53400+014633FM-12+000199999V0200501N00101220001CN0200001N9-01221-01391102641ADDGF101991999001999999021001KA1999N-01221MD1310201+9999EQDQ01+000002SCOTLC
0072122050999991929020912004+53400+014633FM-12+000199999V0200501N00461220001CN0200001N9-01111-01781102881ADDAY101999GF100991001001999999001001EQDQ01+000032APCTENQ02+000002APC3  
0077122050999991929021006004+53400+014633FM-12+000199999V0200901N00461220001CN0200001N9-02721-02891103271ADDGF100991001001999999001001KA1999N-02781EQDQ01+000032APCTENQ02+000002APC3  
0051122050999991929021012004+53400+014633FM-12+000199999V0200901N00671220001CN0200001N9-02221-02671103231ADDAY101999GF100991001001999999001001MD1810061+9999
0077122050999991929021106004+53400+014633FM-12+000199999V0200901N00101220001CN0200001N9-02721-03001103281ADDGF100991001001999999001001KA1999N-02891EQDQ01+000032APCTENQ02+000002APC3  
0051122050999991929021112004+53400+014633FM-12+000199999V0200501N00101220001CN0200001N9-01781-01941103011ADDAY171999GF101991011011012501001001MD1810261+9999
0077122050999991929021206004+53400+014633FM-12+000199999V0200501N00101220001CN0100001N9-00721-01061102831ADDGF100991001001999999001001KA1999N-02721EQDQ01+000032APCTENQ02+000002APC3  
0070122050999991929021212004+53400+014633FM-12+000199999V0200501N00101220001CN0200001N9-01611-02061102711ADDAY101999GF102991999001999999031001MD1810201+9999EQDQ01+000002SCOTLC
0088122050999991929021306004+53400+014633FM-12+000199999V0200501N00101220001CN0040001N9-02391-02671102121ADDAA199000691GF101991011051012501001001KA1999N-02391EQDQ01+000032APCTENQ02+000002APC3  
0051122050999991929021312004+53400+014633FM-12+000199999V0200501N00261220001CN0100001N9-01721-02061102021ADDAY101999GF100991001001999999001001MD1810141+9999
0073122050999991929021406004+53400+014633FM-12+000199999V0200501N00461004501CN0020001N9-01221-01281101401ADDAA199002091GF108991081061004501999999KA1999N-02391MD1810261+9999MW1731
0057122050999991929021412004+53400+014633FM-12+000199999V0200701N00671004501CN0020001N9-00891-01061101281ADDAY171999GF108991081061004501999999MD1810061+9999MW1731
0083122050999991929021506004+53400+014633FM-12+000199999V0203201N001019999999N0020001N9-01391-01561101891ADDGF108991999061004501001001KA1999N-01391MW1711EQDQ01+000042SCOTLCQ02+000002APC3  
0051122050999991929021512004+53400+014633FM-12+000199999V0200501N00261007801CN0040001N9-00721-01061101791ADDAY141999GF108991081051008001999999MD1810141+9999
0077122050999991929021606004+53400+014633FM-12+000199999V0200701N00461004501CN0040001N9-00721-00781101641ADDGF108991081051004501999999KA1999N-00781EQDQ01+000082APCTENQ02+000002APC3  
0072122050999991929021612004+53400+014633FM-12+000199999V0200701N00261007801CN0040001N9-00611-00671101731ADDAY121999GF108991081051008001999999EQDQ01+000032APCTENQ02+000002APC3  
0092122050999991929021706004+53400+014633FM-12+000199999V0200701N00671004501CN0010001N9-00781-00831102081ADDAA199002091GF108991081061004501999999KA1999N+99999MD1310201+9999MW1731EQDQ01 -00612ATMN  
0057122050999991929021712004+53400+014633FM-12+000199999V0200901N00671004501CN0020001N9-00611-00671102351ADDAY171999GF108991081061004501999999MD1310201+9999MW1731
0056122050999991929021806004+53400+014633FM-12+000199999V0200701N00261007801CN0040001N9-00611-00671103111ADDGF108991081051008001999999KA1999N-00721MD1310141+9999
0057122050999991929021812004+53400+014633FM-12+000199999V0200701N00261007801CN0040001N9-00611-00671103281ADDAY171999GF108991081061008001999999MD1310061+9999MW1711
0077122050999991929021906004+53400+014633FM-12+000199999V0200501N00101220001CN0100001N9-01391-01561103401ADDGF104991001001999999021091KA1999N-01501EQDQ01+000032APCTENQ02+000002APC3  
0051122050999991929021912004+53400+014633FM-12+000199999V0200901N00261220001CN0500001N9-00891-01391103441ADDAY101999GF102991001001999999001081MD1990061+9999
0056122050999991929022006004+53400+014633FM-12+000199999V0200701N00101220001CN0100001N9-02221-02501104021ADDGF100991001001999999001001KA1999N-02501MD1310201+9999
0072122050999991929022012004+53400+014633FM-12+000199999V0200501N00101220001CN0200001N9-00891-01221104121ADDAY101999GF100991001001999999001001EQDQ01+000032APCTENQ02+000002APC3  
0056122050999991929022106004+53400+014633FM-12+000199999V0209991C00001007801CN0020001N9-00891-01061104261ADDGF108991081051008001999999KA1999N-01111MD1990061+9999
0070122050999991929022112004+53400+014633FM-12+000199999V0202301N00101220001CN0100001N9-00501-00671104021ADDAY111999GF108991999001999999021001MD1810201+9999EQDQ01+000002SCOTLC
0043122050999991929022206004+53400+014633FM-12+000199999V0202001N00101012301CN0100001N9-00891-01061102571ADDGF108991081051012501999999MD1810201+9999
0051122050999991929022212004+53400+014633FM-12+000199999V0202301N00461012301CN0100001N9-00281-00611102001ADDAY121999GF108991081051012501999999MD1810201+9999
0073122050999991929022306004+53400+014633FM-12+000199999V0202701N00261002401CN0005001N9+00001-00061100911ADDAA199000691GF108991081061002501999999KA1999N-00391MD1810141+9999MW1711
0070122050999991929022312004+53400+014633FM-12+000199999V0203401N002619999999N0040001N9+00001-00061101141ADDAY171999GF108991999061004501001001MD1310141+9999EQDQ01+000042SCOTLC
0093122050999991929022406004+53400+014633FM-12+000199999V0200501N00101220001CN0100001N9-00891-00941101401ADDGF106991999001999999021001KA1999N-00891EQDQ01+000002SCOTLCQ02+000032APCTENQ03+000002APC3  
0051122050999991929022412004+53400+014633FM-12+000199999V0200901N00461220001CN0500001N9-00391-00561101411ADDAY111999GF104991021011012501001091MD1810061+9999
0093122050999991929022506004+53400+014633FM-12+000199999V0200501N00101220001CN0040001N9-02001-02171101541ADDGF101991999001999999021001KA1999N-02001EQDQ01+000002SCOTLCQ02+000032APCTENQ03+000002APC3  
0072122050999991929022512004+53400+014633FM-12+000199999V0200501N00461220001CN0500001N9-00721-01061101531ADDAY111999GF104991001001999999031081EQDQ01+000082APCTENQ02+000002APC3  
0070122050999991929022612004+53400+014633FM-12+000199999V0200501N00101220001CN0200001N9-00501-00561101711ADDAY111999GF104991999091012501001001MD1310061+9999EQDQ01+000022SCOTLC
0099122050999991929022706004+53400+014633FM-12+000199999V0200701N001019999999N0020001N9-01501-01671102131ADDGF108991999061008001001001KA1999N-01721MW1701EQDQ01+000042SCOTLCQ02+000032APCTENQ03+000002APC3  
0078122050999991929022712004+53400+014633FM-12+000199999V0200501N00261007801CN0020001N9-00611-00781102201ADDAY171999GF108991081061008001999999MW1231EQDQ01+000032APCTENQ02+000002APC3  
0086122050999991929022806004+53400+014633FM-12+000199999V0200501N00101220001CN0100001N9-01611-01781103101ADDAA199000691GF102991999001999999021001KA1999N-01721MD1310201+9999EQDQ01+000002SCOTLC
0070122050999991929022812004+53400+014633FM-12+000199999V0209991C00001220001CN0100001N9-00391-01281103411ADDAY121999GF106991999001999999021001MD1310061+9999EQDQ01+000002SCOTLC
