0075122050999991928010106004+53400+014633FM-12+000199999V0201101N001019999999N0040001N9-00111-00441103631ADDGF108991999051004501001001KA1999N-00221MD1310061+9999EQDQ01+000042SCOTLC
0051122050999991928010112004+53400+014633FM-12+000199999V0201101N00261007801CN0100001N9-00221-00391103861ADDAY121999GF108991081051008001999999MD1310061+9999
0056122050999991928010206004+53400+014633FM-12+000199999V0201401N00671220001CN0100001N9-00611-00941103461ADDGF102991011051008001001081KA1999N-00611MD1810201+9999
0051122050999991928010212004+53400+014633FM-12+000199999V0201401N00671220001CN0200001N9-00221-00561103041ADDAY101999GF101991001001999999001081MD1810201+9999
0075122050999991928010306004+53400+014633FM-12+000199999V0201401N00261220001CN0200001N9-00781-00941102071ADDGF102991999001999999021001KA1999N-00781MD1810201+9999EQDQ01+000002SCOTLC
0070122050999991928010312004+53400+014633FM-12+000199999V0201401N00101220001CN0200001N9-00221-00721102001ADDAY101999GF101991999001999999021001MD1810141+9999EQDQ01+000002SCOTLC
0043122050999991928010406004+53400+014633FM-12+000199999V0202301N00461004501CN0020001N9-00501-00561101901ADDGF108991081051004501999999MD1810141+9999
0076122050999991928010412004+53400+014633FM-12+000199999V0202001N00671220001CN0010001N9-00281-00331101511ADDAY171999GF104991999061004501999999MD1810141+9999MW1731EQDQ01+000082SCOTLC
0046122050999991928010506004+53400+014633FM-12+000199999V0202301N012319999999N0020001N9+00391+99999099951ADDAA199007091KA1999N+99999EQDQ01 +01612ATMN  
0067122050999991928010606004+53400+014633FM-12+000199999V0202501N00931002401CN0040001N9+00281+00061100481ADDAA199001091GF108991081061002501999999KA1999N+00111MD1010001+9999
0051122050999991928010612004+53400+014633FM-12+000199999V0202301N00461002401CN0100001N9+00281+00221099951ADDAY121999GF108991081061002501999999MD1810461+9999
0086122050999991928010706004+53400+014633FM-12+000199999V0202901N01541002401CN0100001N9+00111-00111100531ADDAA199005091GF108991081051002501999999KA1999N+00111MD1310802+9999EQDQ01+000802APC3  
0092122050999991928010806004+53400+014633FM-12+000199999V0202001N00931002401CN0040001N9+00221+00171100131ADDAA199004091GF108991081061002501999999KA1999N+00111MD1810542+9999MW1611EQDQ01+000542APC3  
0057122050999991928010812004+53400+014633FM-12+000199999V0202301N00931004501CN0040001N9+00611+00561099841ADDAY161999GF108991081061004501999999MD1810141+9999MW1611
0075122050999991928010906004+53400+014633FM-12+000199999V0202001N006719999999N0100001N9+00221+00171100931ADDGF108991999051004501001001KA1999N+00111MD1210061+9999EQDQ01+000012SCOTLC
0072122050999991928010912004+53400+014633FM-12+000199999V0202001N00461004501CN0040001N9+00281+00221101061ADDAY121999GF108991081051004501999999EQDQ01+000032APCTENQ02+000002APC3  
0067122050999991928011006004+53400+014633FM-12+000199999V0202301N00671004501CN0040001N9+00391+00331100961ADDAA199001091GF108991081051004501999999KA1999N+00221MD1510061+9999
0051122050999991928011012004+53400+014633FM-12+000199999V0202301N00671220001CN0100001N9+00501+00111101361ADDAY111999GF102991021051012501001081MD1310141+9999
0075122050999991928011106004+53400+014633FM-12+000199999V0202501N002619999999N0100001N9+00391+00331100951ADDGF108991999051008001001001KA1999N+00281MD1310201+9999EQDQ01+000042SCOTLC
0075122050999991928011206004+53400+014633FM-12+000199999V0202301N004619999999N0040001N9+00221+00171101571ADDGF106991999051008001001001KA1999N+00111MD1310061+9999EQDQ01+000042SCOTLC
0092122050999991928011306004+53400+014633FM-12+000199999V0202301N00461004501CN0040001N9+00221+00171100441ADDAA199000691GF108991081061004501999999KA1999N+00111MD1810542+9999MW1611EQDQ01+000542APC3  
0092122050999991928011406004+53400+014633FM-12+000199999V0202301N009319999999N0040001N9+00501+00281099871ADDAA199001091GF108991999061002501001001KA1999N+00391MD1810061+9999MW1211EQDQ01+000042SCOTLC
0094122050999991928011506004+53400+014633FM-12+000199999V0201801N00261002401CN0040001N9+00391+00331100331ADDAA199001091GF108991081061002501999999KA1999N+00281MW1511EQDQ01+000082APCTENQ02+000002APC3  
0057122050999991928011512004+53400+014633FM-12+000199999V0202001N00261002401CN0040001N9+00501+00441100071ADDAY161999GF108991081061002501999999MD1810201+9999MW1611
0062122050999991928011606004+53400+014633FM-12+000199999V0202301N00261001501CN0005001N9+00281+00221100571ADDGF108991081051001501999999KA1999N+00221MD1210061+9999MW1471
0078122050999991928011612004+53400+014633FM-12+000199999V0209991C00001000151CN0000501N9+00221+00171100691ADDAY141999GF108991081051000251999999MW1471EQDQ01+000032APCTENQ02+000002APC3  
0083122050999991928011706004+53400+014633FM-12+000199999V0201401N00101000151CN0005001N9+00221+00171100991ADDGF108991081051000251999999KA1999N+00001MW1471EQDQ01+000032APCTENQ02+000002APC3  
0078122050999991928011712004+53400+014633FM-12+000199999V0201401N00261002401CN0040001N9+00281+00221101101ADDAY161999GF108991081061002501999999MW1211EQDQ01+000082APCTENQ02+000002APC3  
0086122050999991928011806004+53400+014633FM-12+000199999V0203401N002619999999N0100001N9+00111+00061102001ADDAA199003091GF108991999061004501001001KA1999N+00001MD1310201+9999EQDQ01+000042SCOTLC
0051122050999991928011812004+53400+014633FM-12+000199999V0200501N00261004501CN0040001N9+00111-00111102331ADDAY121999GF108991081051004501999999MD1310141+9999
0056122050999991928011906004+53400+014633FM-12+000199999V0201601N00261004501CN0100001N9-00221-00391102111ADDGF108991081051004501999999KA1999N-00281MD1810141+9999
0051122050999991928011912004+53400+014633FM-12+000199999V0201401N00261007801CN0200001N9-00111-00281101901ADDAY121999GF108991081051008001999999MD1810061+9999
0056122050999991928012006004+53400+014633FM-12+000199999V0209991C00001007801CN0040001N9-00221-00281102511ADDGF108991081051008001999999KA1999N-00221MD1310261+9999
0078122050999991928012012004+53400+014633FM-12+000199999V0202501N00461004501CN0100001N9-00111-00171102671ADDAY121999GF108991081061004501999999MW1701EQDQ01+000032APCTENQ02+000002APC3  
0077122050999991928012106004+53400+014633FM-12+000199999V0202301N00101007801CN0100001N9-00221-00391103041ADDGF108991081051008001999999KA1999N-00281EQDQ01+000022APCTENQ02+000002APC3  
0051122050999991928012112004+53400+014633FM-12+000199999V0201801N00101030001CN0100001N9-00111-00441102901ADDAY121999GF108991041051008001021001MD1810061+9999
0067122050999991928012206004+53400+014633FM-12+000199999V0200901N00671007801CN0100001N9-00281-00441101861ADDAA199000591GF108991081051008001999999KA1999N-00281MD1810261+9999
0051122050999991928012212004+53400+014633FM-12+000199999V0200901N00671007801CN0100001N9-00111-00281101731ADDAY121999GF108991081051008001999999MD1610141+9999
0056122050999991928012306004+53400+014633FM-12+000199999V0200501N00101004501CN0100001N9-00391-00561102001ADDGF108991081061004501999999KA1999N-00391MD1110141+9999
0072122050999991928012312004+53400+014633FM-12+000199999V0203601N00101220001CN0100001N9-00281-00441102241ADDAY121999GF104991041051008001001001EQDQ01+000032APCTENQ02+000002APC3  
0062122050999991928012406004+53400+014633FM-12+000199999V0201401N00101004501CN0010001N9-00221-00281102271ADDGF108991081051004501999999KA1999N-00391MD1810141+9999MW1101
0051122050999991928012412004+53400+014633FM-12+000199999V0202001N00461007801CN0100001N9+00281+00061101721ADDAY121999GF108991081051008001999999MD1810261+9999
0067122050999991928012506004+53400+014633FM-12+000199999V0202301N00461030001CN0040001N9+00391+00001101531ADDAA199001091GF107991041051012501021001KA1999N+00281MD1310141+9999
0070122050999991928012512004+53400+014633FM-12+000199999V0202301N009319999999N0100001N9+00391+00001102001ADDAY111999GF106991999011008001001001MD1310201+9999EQDQ01+000022SCOTLC
0075122050999991928012606004+53400+014633FM-12+000199999V0202001N00671220001CN0100001N9+00111-00111102571ADDGF102991021051012501001001KA1999N+99999MD1810141+9999EQDQ01 +02112ATMN  
0062122050999991928012612004+53400+014633FM-12+000199999V0202001N00671012301CN0100001N9+00501+99999102331ADDAY111999GF108991999061012501001001MW1601EQDQ01+000072SCOTLC
0043122050999991928012706004+53400+014633FM-12+000199999V0201401N00671220001CN0100001N9+00111-00221101721ADDGF104991021051012501001081MD1810141+9999
0072122050999991928012712004+53400+014633FM-12+000199999V0201401N00261220001CN0200001N9+00501-00281101731ADDAY101999GF102991001001999999001081EQDQ01+000082APCTENQ02+000002APC3  
0062122050999991928012806004+53400+014633FM-12+000199999V0202001N00261007801CN0020001N9+00001-03221102161ADDGF108991061051008001021001KA1999N+00001MD1310141+9999MW1461
0088122050999991928012812004+53400+014633FM-12+000199999V0202301N00461220001CN0100001N9+00391+00172102121ADDAY101999GF100991001001999999001001EQDQ01+027493ATOD  Q02+000032APCTENQ03+000002APC3  
0062122050999991928012906004+53400+014633FM-12+000199999V0201601N00261220001CN0040001N9-00111-00171101671ADDGF102991021051012501001001KA1999N-00111MD1610201+9999MW1461
0051122050999991928012912004+53400+014633FM-12+000199999V0201601N00261220001CN0100001N9+00391-00171101531ADDAY141999GF104991021051012501001091MD1810201+9999
0056122050999991928013006004+53400+014633FM-12+000199999V0201401N00261220001CN0040001N9-00221-00281101351ADDGF102991011051004501021001KA1999N-00391MD1810061+9999
0051122050999991928013012004+53400+014633FM-12+000199999V0201401N00261220001CN0100001N9+00391+00001101281ADDAY101999GF101991001001999999001091MD1990141+9999
0062122050999991928013106004+53400+014633FM-12+000199999V0201401N00461220001CN0020001N9-00221-00281100931ADDGF104991041011008001001081KA1999N-00281MD1810061+9999MW1461
0056122050999991928020106004+53400+014633FM-12+000199999V0201801N00461220001CN0020001N9+00111+00061101261ADDGF104991041051008001021001KA1999N+00001MD1810061+9999
0051122050999991928020112004+53400+014633FM-12+000199999V0201801N00461220001CN0100001N9+00611+00001100731ADDAY111999GF104991041051012501031001MD1810261+9999
0067122050999991928020206004+53400+014633FM-12+000199999V0202001N00101004501CN0040001N9+00281+00221100781ADDAA199004091GF108991081051004501999999KA1999N+00221MD1310201+9999
0051122050999991928020212004+53400+014633FM-12+000199999V0202701N00461030001CN0040001N9+00391+00171101241ADDAY111999GF106991041051008001021001MD1310141+9999
0077122050999991928020306004+53400+014633FM-12+000199999V0201401N00101220001CN0100001N9-00221-00281101721ADDGF102991021051008001001001KA1999N-00281EQDQ01+000082APCTENQ02+000002APC3  
0072122050999991928020312004+53400+014633FM-12+000199999V0201401N00101220001CN0200001N9+00391+00001101831ADDAY101999GF100991001001999999001001EQDQ01+000032APCTENQ02+000002APC3  
0056122050999991928020406004+53400+014633FM-12+000199999V0202001N00101007801CN0200001N9+00001-00221102671ADDGF108991081051008001999999KA1999N-00111MD1310201+9999
0070122050999991928020412004+53400+014633FM-12+000199999V0201801N001019999999N0200001N9+00281-00281102881ADDAY111999GF106991999051008001001001MD1310061+9999EQDQ01+000042SCOTLC
0067122050999991928020506004+53400+014633FM-12+000199999V0201801N00461002401CN0040001N9-00111-00171102901ADDAA199000691GF108991081051002501999999KA1999N-00111MD1810141+9999
0051122050999991928020512004+53400+014633FM-12+000199999V0201801N00671030001CN0200001N9+00281-00111102381ADDAY111999GF107991041011012501021001MD1810341+9999
0067122050999991928020606004+53400+014633FM-12+000199999V0202301N00261002401CN0010001N9+00111+00061101801ADDAA199002091GF108991081061002501999999KA1999N+00001MD1310061+9999
0070122050999991928020612004+53400+014633FM-12+000199999V0202701N004619999999N0100001N9+00391+00171102081ADDAY111999GF106991999091008001001001MD1310141+9999EQDQ01+000042SCOTLC
0056122050999991928020706004+53400+014633FM-12+000199999V0202301N00261007801CN0200001N9+00111+00061102881ADDGF108991081051008001999999KA1999N+00111MD1310061+9999
0070122050999991928020712004+53400+014633FM-12+000199999V0202301N006719999999N0100001N9+00391+00171102691ADDAY111999GF108991999051008001001001MD1810141+9999EQDQ01+000042SCOTLC
0073122050999991928020806004+53400+014633FM-12+000199999V0202701N00931004501CN0020001N9+00721+00671102081ADDAA199001091GF108991081061004501999999KA1999N+00391MD1310261+9999MW1211
0051122050999991928020812004+53400+014633FM-12+000199999V0202501N00931007801CN0100001N9+00781+00561102151ADDAY111999GF108991081051008001999999MD1810261+9999
0073122050999991928020906004+53400+014633FM-12+000199999V0202501N00931001501CN0040001N9+00721+00501101511ADDAA199000691GF108991081061001501999999KA1999N+00721MD1810261+9999MW1211
0057122050999991928020912004+53400+014633FM-12+000199999V0202701N00931002401CN0040001N9+00721+00501101261ADDAY161999GF108991081061002501999999MD1810141+9999MW1601
0075122050999991928021006004+53400+014633FM-12+000199999V0202301N004619999999N0100001N9+00281+00061101041ADDGF107991999091008001001001KA1999N+00281MD1810201+9999EQDQ01+000042SCOTLC
0070122050999991928021012004+53400+014633FM-12+000199999V0202501N004619999999N0200001N9+00501+00111100821ADDAY111999GF106991999091008001001001MD1810201+9999EQDQ01+000042SCOTLC
0067122050999991928021106004+53400+014633FM-12+000199999V0202501N00671007801CN0100001N9+00281-00111098781ADDAA199004091GF106991061091008001001001KA1999N+00281MD1110141+9999
0051122050999991928021112004+53400+014633FM-12+000199999V0202001N01231220001CN0200001N9+00611+00001098261ADDAY111999GF104991041091004501001001MD1810261+9999
0086122050999991928021206004+53400+014633FM-12+000199999V0200501N002619999999N0040001N9+00111+00061098631ADDAA199001091GF108991999051008001001001KA1999N+00111MD1310261+9999EQDQ01+000042SCOTLC
0051122050999991928021212004+53400+014633FM-12+000199999V0202701N00261007801CN0100001N9+00111+00061099391ADDAY111999GF108991081051008001999999MD1310341+9999
0067122050999991928021306004+53400+014633FM-12+000199999V0202001N00261030001CN0100001N9+00111+00061099911ADDAA199001091GF107991041091002501031001KA1999N+00111MD1210061+9999
0062122050999991928021312004+53400+014633FM-12+000199999V0202501N00461004501CN0100001N9+00281+99999099931ADDAY111999GF108991999061004501001001MW1601EQDQ01+000072SCOTLC
0062122050999991928021406004+53400+014633FM-12+000199999V0209991C00001000151CN0000001N9-00221-00281100391ADDGF108991081051000251999999KA1999N-00221MD1310061+9999MW1471
0057122050999991928021412004+53400+014633FM-12+000199999V0201401N00461000151CN0000001N9+00221+00171100191ADDAY141999GF108991081061000251999999MD1810201+9999MW1511
0086122050999991928021506004+53400+014633FM-12+000199999V0202701N004619999999N0020001N9+00221+00001101131ADDAA199000591GF108991999051008001001001KA1999N+00221MD1310261+9999EQDQ01+000042SCOTLC
0070122050999991928021512004+53400+014633FM-12+000199999V0202501N002619999999N0200001N9+00391+00001101641ADDAY111999GF106991999091008001001001MD1310141+9999EQDQ01+000022SCOTLC
0110122050999991928021606004+53400+014633FM-12+000199999V0202701N004619999999N0100001N9+00891+00671100831ADDAA199013091GF108991999091008001001001KA1999N+00221MW1211EQDQ01+000042SCOTLCQ02+000022APCTENQ03+000002APC3  
0057122050999991928021612004+53400+014633FM-12+000199999V0202301N00461007801CN0040001N9+00891+00671100771ADDAY111999GF108991081061008001999999MD1810141+9999MW1611
0067122050999991928021706004+53400+014633FM-12+000199999V0202501N00671012301CN0200001N9+00781+00561099861ADDAA199004091GF106991061011012501001001KA1999N+00781MD1810141+9999
0070122050999991928021712004+53400+014633FM-12+000199999V0202701N015419999999N0200001N9+00501+00111099621ADDAY111999GF106991999091008001001001MD1810201+9999EQDQ01+000022SCOTLC
0043122050999991928021806004+53400+014633FM-12+000199999V0202501N00931012301CN0200001N9+00391+00171101011ADDGF107991071011012501001001MD1010141+9999
0051122050999991928021812004+53400+014633FM-12+000199999V0202901N00931007801CN0200001N9+00391+00171101461ADDAY121999GF108991081051008001999999MD1310341+9999
0073122050999991928021906004+53400+014633FM-12+000199999V0202301N00461004501CN0040001N9+00391+00331101551ADDAA199005091GF108991081061004501999999KA1999N+00221MD1810201+9999MW1501
0051122050999991928021912004+53400+014633FM-12+000199999V0202701N00461007801CN0100001N9+00611+00391101601ADDAY161999GF108991081051008001999999MD1310061+9999
0088122050999991928022006004+53400+014633FM-12+000199999V0200201N00671007801CN0002001N9-00111-00281103111ADDAA199001091GF108991071051008001021001KA1999N-00111EQDQ01+000032APCTENQ02+000002APC3  
0092122050999991928022106004+53400+014633FM-12+000199999V0202701N002619999999N0200001N9-00111-00281104101ADDAA199000691GF108991999051008001001001KA1999N-00221MD1310141+9999MW1231EQDQ01+000042SCOTLC
0051122050999991928022112004+53400+014633FM-12+000199999V0202701N00101007801CN0200001N9+00001-00331103841ADDAY121999GF108991081051008001999999MD1610061+9999
0077122050999991928022206004+53400+014633FM-12+000199999V0203401N00671007801CN0100001N9+00001-00331103371ADDGF108991081051008001999999KA1999N-00111EQDQ01+000032APCTENQ02+000002APC3  
0070122050999991928022212004+53400+014633FM-12+000199999V0203601N002619999999N0100001N9+00001-00331103571ADDAY121999GF108991999051008001001001MD1310061+9999EQDQ01+000042SCOTLC
0077122050999991928022306004+53400+014633FM-12+000199999V0202001N00101012301CN0200001N9-00221-00561103751ADDGF108991071051012501021001KA1999N-00391EQDQ01+000032APCTENQ02+000002APC3  
0072122050999991928022312004+53400+014633FM-12+000199999V0209991C00001012301CN0500001N9+00001-00501103671ADDAY121999GF107991061011012501001081EQDQ01+000032APCTENQ02+000002APC3  
0051122050999991928022412004+53400+014633FM-12+000199999V0201401N00261220001CN0200001N9+00281-00501999999ADDAY101999GF199999001001999999021001MD1310061+9999
0056122050999991928022506004+53400+014633FM-12+000199999V0201401N00101220001CN0200001N9-00281-00441104341ADDGF100991001001999999001001KA1999N-00391MD1010001+9999
0072122050999991928022512004+53400+014633FM-12+000199999V0201401N00261220001CN0200001N9+00281-01001104271ADDAY101999GF100991001001999999001001EQDQ01+000032APCTENQ02+000002APC3  
0077122050999991928022606004+53400+014633FM-12+000199999V0209991C00001220001CN0200001N9-00501-00561103541ADDGF100991001001999999001001KA1999N-00611EQDQ01+000082APCTENQ02+000002APC3  
0062122050999991928022706004+53400+014633FM-12+000199999V0201101N00261000151CN0002001N9-00221-00281103491ADDGF108991081051000251999999KA1999N-00281MD1210061+9999MW1471
0072122050999991928022712004+53400+014633FM-12+000199999V0201101N00101007801CN0200001N9+00221+00001103631ADDAY111999GF106991061011008001001001EQDQ01+000032APCTENQ02+000002APC3  
0077122050999991928022806004+53400+014633FM-12+000199999V0209991C00001220001CN0200001N9-00501-00561103581ADDGF100991001001999999001001KA1999N-00611EQDQ01+000032APCTENQ02+000002APC3  
0051122050999991928022812004+53400+014633FM-12+000199999V0201101N00461007801CN0100001N9+00001-00331103541ADDAY111999GF108991081051008001999999MD1810061+9999
0077122050999991928022906004+53400+014633FM-12+000199999V0200901N00461220001CN0200001N9-00281-00611103311ADDGF100991001001999999001001KA1999N-00391EQDQ01+000062APCTENQ02+000002APC3  
0051122050999991928022912004+53400+014633FM-12+000199999V0200901N00931220001CN0500001N9+00221-00721103181ADDAY101999GF100991001001999999001001MD1810061+9999
