0051123750999991928010206004+52183+020967FM-12+010799999V0201801N00101220001CN0020001N9-01001-01061104081ADDAY101999GF100991001001999999001001MD1810061+9999
0072123750999991928010306004+52183+020967FM-12+010799999V0201601N00101220001CN0020001N9+00221+00001103071ADDAY101999GF102991001001999999001081EQDQ01+000032APCTENQ02+000002APC3  
0070123750999991928010606004+52183+020967FM-12+010799999V0202701N006719999999N0020001N9+00111+00061100471ADDAY121999GF108991999061002501001001MD1310061+9999EQDQ01+000042SCOTLC
0051123750999991928010906004+52183+020967FM-12+010799999V0202701N00671004501CN0010001N9+00111-00111101071ADDAY121999GF106991061051004501001001MD1310141+9999
0072123750999991928011006004+52183+020967FM-12+010799999V0202501N00101075001CN0020001N9+00111+00061101461ADDAY111999GF106991041061008001001081EQDQ01+000082APCTENQ02+000002APC3  
0051123750999991928011106004+52183+020967FM-12+010799999V0202301N00261007801CN0020001N9+00111+00061101261ADDAY121999GF108991081051008001999999MD1810061+9999
0072123750999991928011206004+52183+020967FM-12+010799999V0202501N00261015001CN0020001N9+00111+00061101711ADDAY121999GF108991081051017501999999EQDQ01+000032APCTENQ02+000002APC3  
0057123750999991928011306004+52183+020967FM-12+010799999V0202301N00261001501CN0005001N9+00001-00061101431ADDAY141999GF108991081051001501999999MD1810141+9999MW1451
0051123750999991928011406004+52183+020967FM-12+010799999V0202501N00261015001CN0020001N9+00221+00171100521ADDAY121999GF107991071051017501001001MD1310061+9999
0051123750999991928011506004+52183+020967FM-12+010799999V0202701N00461002401CN0020001N9+00221+00171100871ADDAY121999GF108991081051002501999999MD1310061+9999
0046123750999991928011706004+52183+020967FM-12+010799999V0209991C000019999999N0002001N9+00111+00061101301ADDAY161999EQDQ01+000032APCTENQ02+000002APC3  
0078123750999991928011806004+52183+020967FM-12+010799999V0201401N00101002401CN0020001N9-00221-00281102391ADDAY171999GF108991081061002501999999MW1711EQDQ01+000032APCTENQ02+000002APC3  
0051123750999991928012712004+52183+020967FM-12+010799999V0201401N00261220001CN0100001N9+00001-00331102711ADDAY111999GF106991001001999999001091MD1310061+9999
0070123750999991928012912004+52183+020967FM-12+010799999V0202001N00101024001CN0040001N9+00221-00331102241ADDAY111999GF108991081051999999999999MD1810201+9999EQDQ01+000992SCOLCB
0057123750999991928013012004+52183+020967FM-12+010799999V0201401N00101000151CN0040001N9+00001-00331101841ADDAY141999GF108991081051000251999999MD1810061+9999MW1441
0078123750999991928020306004+52183+020967FM-12+010799999V0201401N00101002401CN0020001N9+99999+99999102041ADDAY171999GF108991081061002501999999MW1711EQDQ01+000032APCTENQ02+000002APC3  
0072123750999991928020506004+52183+020967FM-12+010799999V0201401N00261004501CN0020001N9-01281-01441103621ADDAY121999GF108991081051004501999999EQDQ01+000032APCTENQ02+000002APC3  
0051123750999991928020606004+52183+020967FM-12+010799999V0202001N00261220001CN0040001N9-00781-00941102421ADDAY111999GF106991001001999999001081MD1410001+9999
0051123750999991928020706004+52183+020967FM-12+010799999V0202701N00101007801CN0020001N9-00111-00171102901ADDAY121999GF108991081051008001999999MD1310141+9999
0051123750999991928020906004+52183+020967FM-12+010799999V0202501N00671001501CN0020001N9+00611-01671101601ADDAY141999GF108991081051001501999999MD1810141+9999
0037123750999991928021006004+52183+020967FM-12+010799999V0202501N00931007801CN0000501N9+00281+99999101191ADDAY111999GF108991081091008001999999
0076123750999991928021106004+52183+020967FM-12+010799999V0201801N00261001501CN0020001N9+00501+00441099181ADDAY161999GF108991081061001501999999MD1810602+9999MW1631EQDQ01+000602APC3  
0051123750999991928021306004+52183+020967FM-12+010799999V0202301N00101007801CN0040001N9+00001-00061100301ADDAY111999GF107991071051008001001001MD1310141+9999
0043123750999991928021406004+52183+020967FM-12+010799999V0200901N00101002401CN0005001N9-00111-00171100301ADDAY141999GF108991081051002501999999MW1471
0070123750999991928021506004+52183+020967FM-12+010799999V0200701N00101220001CN0040001N9-00391-00561101191ADDAY111999GF106991999001999999031001MD1310261+9999EQDQ01+000002SCOTLC
0051123750999991928022406004+52183+020967FM-12+010799999V0201401N004619999999N0020001N9-00611-00941103951ADDAY121999GF108991999999999999001001MD1310141+9999
0051123750999991928022506004+52183+020967FM-12+010799999V0209991C00001002401CN0000501N9-01001-01061104641ADDAY111999GF106991061051002501001001MD1310061+9999
0051123750999991928022706004+52183+020967FM-12+010799999V0200201N00101001501CN0010001N9-00781-00941103361ADDAY121999GF108991081051001501999999MD1310141+9999
0051123750999991928022806004+52183+020967FM-12+010799999V0200901N00261002401CN0020001N9-00281-00331103831ADDAY121999GF108991081051002501999999MD1310141+9999
0051123750999991928022912004+52183+020967FM-12+010799999V0201401N00461220001CN0040001N9-00281-00941103801ADDAY141999GF100991001001999999001001MD1810141+9999
