0057123750999991929010106004+52183+020967FM-12+010799999V0203201N00261002401CN0005001N9+00001-00061100081ADDAY171999GF108991081061002501999999MD1110141+9999MW1711
0051123750999991929010306004+52183+020967FM-12+010799999V0200201N00261002401CN0010001N9-00611-00671102741ADDAY121999GF108991081051002501999999MD1310141+9999
0057123750999991929010406004+52183+020967FM-12+010799999V0200901N00261001501CN0005001N9-00391-00441102901ADDAY171999GF108991081061001501999999MD1310061+9999MW1711
0051123750999991929010606004+52183+020967FM-12+010799999V0200901N00461000601CN0020001N9-00611-00671103761ADDAY121999GF108991081051000751999999MD1310261+9999
0072123750999991929010706004+52183+020967FM-12+010799999V0200901N00101220001CN0020001N9-01001-01061104121ADDAY101999GF101991001001999999001081EQDQ01+000032APCTENQ02+000002APC3  
0057123750999991929010806004+52183+020967FM-12+010799999V0200901N00101000151CN0020001N9-01391-01561104611ADDAY101999GF108991081051000251999999MD1310061+9999MW1461
0078123750999991929011106004+52183+020967FM-12+010799999V0202501N00101000151CN0020001N9-01501-01561103941ADDAY141999GF108991081051000251999999MW1441EQDQ01+000032APCTENQ02+000002APC3  
0051123750999991929012212004+52183+020967FM-12+010799999V0201601N00101030001CN0020001N9-00721-00891103191ADDAY111999GF107991041051012501031001MD1810201+9999
0057123750999991929012706004+52183+020967FM-12+010799999V0201101N00461002401CN0010001N9-00391-00441101531ADDAY171999GF108991081061002501999999MD1810141+9999MW1711
0019123750999991929012912004+52183+020967FM-12+010799999V0209991C000019999999N9999999N9-00501+99999103801EQDQ01+003602WODIR 
0051123750999991929013106004+52183+020967FM-12+010799999V0200901N00101220001CN0040001N9-01501-01671104371ADDAY101999GF100991001001999999001001MD1310141+9999
0031123750999991929020106004+52183+020967FM-12+010799999V0200701N001019999999N0100001N9-02001-02061104271ADDAY101999MD1810061+9999MW1461
0070123750999991929020306004+52183+020967FM-12+010799999V0209991C00001220001CN0040001N9-02001-02171103671ADDAY111999GF106991001001999999021081MD1810061+9999EQDQ01+002902WODIR 
0051123750999991929020406004+52183+020967FM-12+010799999V0202901N00261007801CN0020001N9-01391-01441102311ADDAY121999GF108991061051008001021001MD1810141+9999
0078123750999991929020506004+52183+020967FM-12+010799999V0202901N00101004501CN0010001N9-00781-00831101951ADDAY141999GF108991081051004501999999MW1101EQDQ01+000032APCTENQ02+000002APC3  
0057123750999991929020706004+52183+020967FM-12+010799999V0209991C00001220001CN0010001N9-02501-02781103991ADDAY111999GF102991999999999999001001MD1310141+9999MW1101
0057123750999991929020806004+52183+020967FM-12+010799999V0202701N00261002401CN0010001N9-01221-01281102631ADDAY171999GF108991081061002501999999MD1810061+9999MW1711
0051123750999991929020906004+52183+020967FM-12+010799999V0200501N00101220001CN0040001N9-02611-02671102821ADDAY101999GF100991001001999999001001MD1310341+9999
0078123750999991929021106004+52183+020967FM-12+010799999V0200201N00261220001CN0005001N9-02611-02671102951ADDAY101999GF100991001001999999001001MW1421EQDQ01+000032APCTENQ02+000002APC3  
0078123750999991929021306004+52183+020967FM-12+010799999V0200901N00101220001CN0010001N9-02501-02781102171ADDAY141999GF100991001001999999001001MW1101EQDQ01+000032APCTENQ02+000002APC3  
0072123750999991929021906004+52183+020967FM-12+010799999V0200901N00101220001CN0040001N9-01781-02111103761ADDAY101999GF100991001001999999001001EQDQ01+000032APCTENQ02+000002APC3  
0076123750999991929022112004+52183+020967FM-12+010799999V0209991C00001004501CN0010001N9-01001-01441104271ADDAY141999GF108991081051004501999999MD1810141+9999MW1451EQDQ01+002302WODIR 
0057123750999991929022506004+52183+020967FM-12+010799999V0200501N00261001501CN0010001N9-01391-01561101551ADDAY141999GF108991081051001501999999MD1810061+9999MW1471
0056123750999991929080106004+52183+020967FM-12+013399999V0202001N00261220001CN0040001N9+01891+99999100671ADDGF108991001001999999999999KA1999N+01281MD1810101+9999
0056123750999991929080206004+52183+020967FM-12+013399999V02099999999999999999N0040001N9+02001+99999100881ADDGF106991041051012501999999KA1999N+01721MD1310041+9999
0056123750999991929080318004+52183+020967FM-12+013399999V0209991C00001220001CN0040001N9+01721+99999102061ADDGF102991001001999999999999KA1999M+02001MD1310061+9999
0035123750999991929080406004+52183+020967FM-12+013399999V0200901N002619999999N9999999N9+01501+99999102221EQDQ01+000032APCTENQ02+000002APC3  
0056123750999991929080506004+52183+020967FM-12+013399999V0201101N00101220001CN0040001N9+02001+99999101291ADDGF108991001001999999999999KA1999N+01611MD1810101+9999
0017123750999991929080518004+52183+020967FM-12+013399999V0201601N001019999999N9999999N9+02501+99999100901ADDMD1810101+9999
0067123750999991929080606004+52183+020967FM-12+013399999V0209991C000019999999N0040001N9+02001+99999101291ADDAA199018091GF106991011051012501999999KA1999N+01721MD1310101+9999
0077123750999991929080706004+52183+020967FM-12+013399999V0200201N00101001501CN0020001N9+01391+99999101631ADDGF108991081051001501999999KA1999N+01221EQDQ01+000032APCTENQ02+000002APC3  
0000123750999991929080806004+52183+020967FM-12+013399999V02099999999999999999N9999999N9+99999+99999101301
0056123750999991929080906004+52183+020967FM-12+013399999V0209991C00001220001CN0020001N9+02221+99999101311ADDGF104991001001999999999999KA1999N+01781MD1310041+9999
0023123750999991929080918004+52183+020967FM-12+013399999V0209991C000019999999N9999999N9+02721+99999101301ADDMD1810101+9999MW1101
0088123750999991929081006004+52183+020967FM-12+013399999V0200701N00101002401CN0020001N9+01611+99999101531ADDAA199012091GF108991061031002501999999KA1999N+01501EQDQ01+000032APCTENQ02+000002APC3  
0086123750999991929081018004+52183+020967FM-12+013399999V0201401N00261004501CN0500001N9+01001+99999999999ADDAA199008091GF108991081061004501999999KA1999M+02501MD1310041+9999EQDQ01 097133APOSLP
0017123750999991929081106004+52183+020967FM-12+013399999V0203201N001019999999N9999999N9+01721+99999102161ADDMD1310161+9999
0056123750999991929081118004+52183+020967FM-12+013399999V0209991C00001220001CN0040001N9+02111+99999102191ADDGF100991001001999999999999KA1999M+02391MD1810041+9999
0077123750999991929081218004+52183+020967FM-12+013399999V0200901N00101004501CN0040001N9+02501+99999101731ADDGF106991061031004501999999KA1999M+02501EQDQ01+000032APCTENQ02+000002APC3  
0017123750999991929081306004+52183+020967FM-12+013399999V0203201N001019999999N9999999N9+01781+99999101901ADDMD1310241+9999
0067123750999991929081318004+52183+020967FM-12+013399999V0203201N00101220001CN0040001N9+01781+99999102341ADDAA199000691GF104991001001999999999999KA1999M+02111MD1310041+9999
0056123750999991929081418004+52183+020967FM-12+013399999V0201401N00101220001CN0040001N9+02111+99999102331ADDGF100991001001999999999999KA1999M+02391MD1810041+9999
0077123750999991929081518004+52183+020967FM-12+013399999V0203201N00101220001CN0020001N9+02221+99999101741ADDGF100991001001999999999999KA1999M+02501EQDQ01+000032APCTENQ02+000002APC3  
0056123750999991929081706004+52183+020967FM-12+013399999V0201101N00101220001CN0040001N9+02221+99999101981ADDGF102991021011008001999999KA1999N+01721MD1310041+9999
0056123750999991929081718004+52183+020967FM-12+013399999V0201401N00261220001CN0040001N9+02501+99999101731ADDGF102991001001999999999999KA1999M+02891MD1310101+9999
0056123750999991929081806004+52183+020967FM-12+013399999V0201601N00101220001CN0040001N9+02221+99999101701ADDGF100991001001999999999999KA1999N+01721MD1810041+9999
0064123750999991929081906004+52183+020967FM-12+013399999V0203201N001019999999N9999999N9+02111+99999101501ADDGF199999999001999999999999EQDQ01+000032APCTENQ02+000002APC3  
0056123750999991929082006004+52183+020967FM-12+013399999V0200201N00261004501CN0020001N9+01611+99999102191ADDGF106991061051004501999999KA1999N+01281MD1310101+9999
0056123750999991929082018004+52183+020967FM-12+013399999V0200201N001019999999N0020001N9+01781+99999101941ADDGF106991041051012501999999KA1999M+01891MD1810101+9999
0067123750999991929082106004+52183+020967FM-12+013399999V0200201N00461004501CN0020001N9+01221+99999101831ADDAA199005091GF108991081061004501999999KA1999N+01221MD1810041+9999
0067123750999991929082118004+52183+020967FM-12+013399999V0203601N00261004501CN0020001N9+01281+99999101981ADDAA199011091GF107991061061004501999999KA1999M+01721MD1810041+9999
0088123750999991929082206004+52183+020967FM-12+013399999V0203401N00101002401CN0020001N9+01281+99999102071ADDAA199000591GF108991081051002501999999KA1999N+01281EQDQ01+000032APCTENQ02+000002APC3  
0056123750999991929082306004+52183+020967FM-12+013399999V0209991C00001220001CN0040001N9+01611+99999102111ADDGF104991001001999999999999KA1999N+01111MD1310041+9999
0056123750999991929082318004+52183+020967FM-12+013399999V0203601N00101220001CN0040001N9+01721+99999102171ADDGF101991001001999999999999KA1999M+02001MD1310041+9999
0056123750999991929082418004+52183+020967FM-12+013399999V0209991C00001220001CN0100001N9+01891+99999102071ADDGF100991001001999999999999KA1999M+02281MD1810101+9999
0077123750999991929082506004+52183+020967FM-12+013399999V0202501N001019999999N0040001N9+01891+99999101971ADDGF106991041051000251999999KA1999N+01221EQDQ01+000032APCTENQ02+000002APC3  
0051123750999991929082606004+52183+020967FM-12+013399999V0209991C000019999999N0040001N9+02001+99999102061ADDKA1999N+01611EQDQ01+000032APCTENQ02+000002APC3  
0017123750999991929082618004+52183+020967FM-12+013399999V0203201N002619999999N9999999N9+01721+99999102101ADDMD1310101+9999
0056123750999991929082706004+52183+020967FM-12+013399999V0209991C00001220001CN0040001N9+01391+99999102261ADDGF100991001001999999999999KA1999N+00721MD1310041+9999
0064123750999991929082818004+52183+020967FM-12+013399999V0201401N00101220001CN0020001N9+00001+99999101791ADDAY121999GF102991001001999999999999KA1999M+02611MD1810041+9999
0077123750999991929082906004+52183+020967FM-12+013399999V0209991C00001220001CN0040001N9+02111+99999101811ADDGF101991001001999999999999KA1999N+01001EQDQ01+000032APCTENQ02+000002APC3  
0056123750999991929082918004+52183+020967FM-12+013399999V0209991C00001220001CN0040001N9+02781+99999101751ADDGF102991001001999999999999KA1999M+02891MD1810041+9999
0067123750999991929083006004+52183+020967FM-12+013399999V0209991C00001012301CN0040001N9+01721+99999102081ADDAA199000591GF108991061051012501999999KA1999N+01611MD1310101+9999
0056123750999991929083106004+52183+020967FM-12+013399999V0209991C00001220001CN0020001N9+02111+99999101971ADDGF102991011011012501999999KA1999N+01721MD1310041+9999
0056123750999991929083118004+52183+020967FM-12+013399999V0209991C00001220001CN0040001N9+02221+99999102131ADDGF100991001001999999999999KA1999M+02781MD1810041+9999
0056123750999991929090106004+52183+020967FM-12+013399999V0201601N001019999999N0100001N9+02001+99999101831ADDGF106991021011012501999999KA1999N+01721MD1310041+9999
0056123750999991929090118004+52183+020967FM-12+013399999V0209991C00001220001CN0040001N9+02611+99999101701ADDGF101991011011012501999999KA1999M+03001MD1810041+9999
0035123750999991929090506004+52183+020967FM-12+013399999V0201401N001019999999N9999999N9+01781+99999102001EQDQ01+000032APCTENQ02+000002APC3  
0017123750999991929090606004+52183+020967FM-12+013399999V0202501N004619999999N9999999N9+02001+99999101001ADDMD1810101+9999
0067123750999991929090718004+52183+020967FM-12+013399999V0203201N00461004501CN0040001N9+01221+99999101231ADDAA199001091GF107991071011004501999999KA1999M+01611MD1810161+9999
0035123750999991929090806004+52183+020967FM-12+013399999V0203201N004619999999N9999999N9+01221+99999101501EQDQ01+000032APCTENQ02+000002APC3  
0056123750999991929090818004+52183+020967FM-12+013399999V0203201N00461004501CN0040001N9+01501+99999101491ADDGF107991071061004501999999KA1999M+01781MD1310041+9999
0017123750999991929090906004+52183+020967FM-12+013399999V0202901N004619999999N9999999N9+01501+99999101001ADDMD1810101+9999
0067123750999991929091006004+52183+020967FM-12+013399999V0203201N004619999999N0040001N9+01391+99999100901ADDAA199005091GF106991041011008001999999KA1999N+01281MD1310101+9999
0043123750999991929091018004+52183+020967FM-12+013399999V0202701N00261220001CN0040001N9+01281+99999101591ADDGF102991001001999999999999MD1310161+9999
0043123750999991929091206004+52183+020967FM-12+013399999V0209991C000019999999N0040001N9+01221+99999102711ADDGF106991041051012501999999MD1310041+9999
0056123750999991929091218004+52183+020967FM-12+013399999V0202501N00101220001CN0040001N9+01501+99999102701ADDGF101991011011008001999999KA1999M+02111MD1310041+9999
0035123750999991929091306004+52183+020967FM-12+013399999V0201401N001019999999N9999999N9+01391+99999102701EQDQ01+000032APCTENQ02+000002APC3  
0056123750999991929091318004+52183+020967FM-12+013399999V0201801N00101220001CN0040001N9+01501+99999102341ADDGF101991001001999999999999KA1999M+02111MD1810101+9999
0017123750999991929091406004+52183+020967FM-12+013399999V0201401N001019999999N9999999N9+01281+99999102201ADDMD1810101+9999
0056123750999991929091418004+52183+020967FM-12+013399999V0201601N00101220001CN0040001N9+01281+99999102071ADDGF101991001001999999999999KA1999M+01891MD1810041+9999
0056123750999991929091506004+52183+020967FM-12+013399999V0201101N00261220001CN0040001N9+01391+99999102311ADDGF104991001001999999999999KA1999N+00891MD1310101+9999
0056123750999991929091606004+52183+020967FM-12+013399999V0200901N00101000151CN0040001N9+01111+99999102991ADDGF108991081051000251999999KA1999N+00611MD1310041+9999
0056123750999991929091618004+52183+020967FM-12+013399999V0201601N00101000151CN0020001N9+01281+99999102801ADDGF108991081051000251999999KA1999M+01891MD1810041+9999
0077123750999991929091706004+52183+020967FM-12+013399999V0209991C00001220001CN0040001N9+01221+99999102801ADDGF100991001001999999999999KA1999N+00611EQDQ01+000032APCTENQ02+000002APC3  
0017123750999991929091718004+52183+020967FM-12+013399999V0201601N002619999999N9999999N9+99999+99999102401ADDMD1810101+9999
0056123750999991929091806004+52183+020967FM-12+013399999V0201401N00101220001CN0040001N9+01221+99999102341ADDGF106991001001999999999999KA1999N+00501MD1810041+9999
0056123750999991929091818004+52183+020967FM-12+013399999V0201401N00101220001CN0040001N9+01391+99999101941ADDGF102991001001999999999999KA1999M+02001MD1810101+9999
0049123750999991929091906004+52183+020967FM-12+013399999V0202501N001019999999N9999999N9+01281+99999101801ADDKA1999N+99999MD1810101+9999EQDQ01 +02002ATMN  
0067123750999991929092018004+52183+020967FM-12+013399999V0202301N00261012301CN0040001N9+01891+99999100341ADDAA199003091GF108991081051012501999999KA1999M+02281MD1810101+9999
0067123750999991929092106004+52183+020967FM-12+013399999V0202701N00101002401CN0020001N9+01111+99999100591ADDAA199002091GF108991081051002501999999KA1999N+01111MD1310201+9999
0088123750999991929092118004+52183+020967FM-12+013399999V0202701N00101220001CN0040001N9+00891+99999100651ADDAA199002091GF101991001001999999999999KA1999M+01781EQDQ01+000032APCTENQ02+000002APC3  
0067123750999991929092206004+52183+020967FM-12+013399999V0202501N00461002401CN0020001N9+00891+99999100091ADDAA199000591GF108991081061002501999999KA1999N+00611MD1810241+9999
0075123750999991929092218004+52183+020967FM-12+013399999V0203201N00671007801CN0040001N9+01001+99999100311ADDAA199005091AY161999GF108991071051008001999999KA1999M+01281MD1310201+9999
0067123750999991929092306004+52183+020967FM-12+013399999V0202901N00101004501CN0020001N9+00781+99999100671ADDAA199002091GF108991081061004501999999KA1999N+00721MD1310241+9999
0067123750999991929092318004+52183+020967FM-12+013399999V0203201N00461004501CN0020001N9+01001+99999101531ADDAA199000591GF108991081061004501999999KA1999M+01391MD1810161+9999
0028123750999991929092406004+52183+020967FM-12+013399999V0200201N002619999999N9999999N9+01001+99999101901ADDAA199000591MD1310101+9999
0056123750999991929092418004+52183+020967FM-12+013399999V0203601N00671002401CN0020001N9+01221+99999102591ADDGF108991081051002501999999KA1999M+01391MD1310241+9999
0056123750999991929092506004+52183+020967FM-12+013399999V0200901N00461220001CN0040001N9+00891+99999103311ADDGF101991001001999999999999KA1999N+00611MD1310241+9999
0056123750999991929092518004+52183+020967FM-12+013399999V0203601N00261220001CN0040001N9+01281+99999103411ADDGF100991001001999999999999KA1999M+01721MD1310041+9999
0077123750999991929092606004+52183+020967FM-12+013399999V0202901N00101220001CN0020001N9+01001+99999103351ADDGF108991001001999999999999KA1999N+00721EQDQ01+000032APCTENQ02+000002APC3  
0028123750999991929092618004+52183+020967FM-12+013399999V0202901N001019999999N9999999N9+01111+99999103071ADDAA199000691MD1810101+9999
0053123750999991929092706004+52183+020967FM-12+013399999V0203201N00101002401CN0005001N9+02111+99999103051ADDAA199000691GF108991081051002501999999KA1999N+01001
0067123750999991929092718004+52183+020967FM-12+013399999V0209991C00001004501CN0020001N9+01501+99999102891ADDAA199000691GF108991081051004501999999KA1999M+01501MD1310041+9999
0067123750999991929092806004+52183+020967FM-12+013399999V0209991C00001220001CN0010001N9+01501+99999103141ADDAA199000391GF100991001001999999999999KA1999N+00501MD1310101+9999
0077123750999991929092818004+52183+020967FM-12+013399999V0209991C00001220001CN0040001N9+01281+99999102951ADDGF100991001001999999999999KA1999M+01781EQDQ01+000032APCTENQ02+000002APC3  
0056123750999991929092918004+52183+020967FM-12+013399999V0201801N00101220001CN0040001N9+01281+99999102611ADDGF100991001001999999999999KA1999M+01891MD1810101+9999
0077123750999991929093006004+52183+020967FM-12+013399999V0203201N00101220001CN0040001N9+01111+99999102411ADDGF100991001001999999999999KA1999N+00611EQDQ01+000032APCTENQ02+000002APC3  
0056123750999991929100106004+52183+020967FM-12+013399999V0202301N00101012301CN0040001N9+01281+99999101771ADDGF106991061051012501999999KA1999N+00891MD1810101+9999
0017123750999991929100118004+52183+020967FM-12+013399999V0202701N002619999999N9999999N9+01611+99999101201ADDMD1810101+9999
0067123750999991929100206004+52183+020967FM-12+013399999V0202901N00261220001CN0040001N9+01001+99999101591ADDAA199004091GF102991001001999999999999KA1999N+00891MD1310161+9999
0056123750999991929100218004+52183+020967FM-12+013399999V0201801N00261012301CN0040001N9+01501+99999100971ADDGF108991081051012501999999KA1999M+01721MD1810161+9999
0067123750999991929100318004+52183+020967FM-12+013399999V0202301N00261004501CN0040001N9+02001+99999100851ADDAA199000691GF108991081061004501999999KA1999M+02111MD1810041+9999
0054123750999991929100406004+52183+020967FM-12+013399999V0203201N001019999999N0040001N9+01611+99999101351ADDAA199000691GF106991041051012501999999MD1310241+9999
0077123750999991929100418004+52183+020967FM-12+013399999V0202001N00101220001CN9999999N9+01891+99999101461ADDGF100991001001999999999999KA1999M+02391EQDQ01+000032APCTENQ02+000002APC3  
0056123750999991929100506004+52183+020967FM-12+013399999V0209991C00001220001CN0040001N9+01611+99999101311ADDGF100991001001999999999999KA1999N+01281MD1810101+9999
0035123750999991929100518004+52183+020967FM-12+013399999V0209991C000019999999N9999999N9+01781+99999101301EQDQ01+000032APCTENQ02+000002APC3  
0035123750999991929100606004+52183+020967FM-12+013399999V0200701N001019999999N9999999N9+01391+99999101301EQDQ01+000032APCTENQ02+000002APC3  
0056123750999991929100706004+52183+020967FM-12+013399999V0201801N00101220001CN0040001N9+01611+99999101201ADDGF104991001001999999999999KA1999N+01111MD1310041+9999
0064123750999991929100718004+52183+020967FM-12+013399999V0209991C00001220001CN0040001N9+01391+99999101751ADDAY141999GF100991001001999999999999KA1999M+02221MD1310041+9999
0035123750999991929100806004+52183+020967FM-12+013399999V0209991C000019999999N9999999N9+01001+99999101901EQDQ01+000032APCTENQ02+000002APC3  
0067123750999991929100818004+52183+020967FM-12+013399999V0201401N00461002401CN0020001N9+01781+99999101341ADDAA199000691GF108991081061002501999999KA1999M+02111MD1810101+9999
0056123750999991929100906004+52183+020967FM-12+013399999V0201401N00101012301CN0040001N9+01611+99999100701ADDGF108991061051012501999999KA1999N+01221MD1810101+9999
0067123750999991929101006004+52183+020967FM-12+013399999V0203401N00101220001CN0040001N9+00781+99999101251ADDAA199005091GF104991001001999999999999KA1999N+00611MD1310041+9999
0056123750999991929101018004+52183+020967FM-12+013399999V0202701N00461024001CN0040001N9+00891+99999101351ADDGF108991081999999999999999KA1999M+01281MD1310161+9999
0056123750999991929101106004+52183+020967FM-12+013399999V0202901N00261002401CN0040001N9+00891+99999101821ADDGF108991081061002501999999KA1999N+00721MD1310041+9999
0067123750999991929101118004+52183+020967FM-12+013399999V0203201N00671002401CN0020001N9+01111+99999101101ADDAA199000591GF108991081061002501999999KA1999M+01221MD1810201+9999
0067123750999991929101206004+52183+020967FM-12+013399999V0202901N00101002401CN0020001N9+00721+99999100991ADDAA199005091GF108991081061002501999999KA1999N+00611MD1310101+9999
0035123750999991929101218004+52183+020967FM-12+013399999V0202701N001019999999N9999999N9+00891+99999101301EQDQ01+000032APCTENQ02+000002APC3  
0067123750999991929101306004+52183+020967FM-12+013399999V0200201N00461220001CN0040001N9+00781+99999102091ADDAA199001091GF104991041051004501999999KA1999N+00721MD1310301+9999
0056123750999991929101318004+52183+020967FM-12+013399999V0202901N00461007801CN0040001N9+01111+99999102251ADDGF107991071051008001999999KA1999M+01111MD1310041+9999
0067123750999991929101406004+52183+020967FM-12+013399999V0202901N00261001501CN0010001N9+00781+99999102871ADDAA199000691GF108991081051001501999999KA1999N+00721MD1310201+9999
0067123750999991929101506004+52183+020967FM-12+013399999V0202501N00261012301CN0020001N9+01221+99999102171ADDAA199050091GF108991081051012501999999KA1999N+01001MD1810161+9999
0067123750999991929101606004+52183+020967FM-12+013399999V0203201N00261001501CN0000501N9+00391+99999102471ADDAA199000691GF108991081051001501999999KA1999N+00281MD1310101+9999
0017123750999991929101706004+52183+020967FM-12+013399999V0201601N001019999999N9999999N9+00281+99999101701ADDMD1810101+9999
0056123750999991929101718004+52183+020967FM-12+013399999V0202501N00101220001CN0040001N9+01111+99999101391ADDGF108991001001999999999999KA1999M+01391MD1810041+9999
0056123750999991929101806004+52183+020967FM-12+013399999V0202501N00101015001CN0010001N9+00891+99999101541ADDGF108991081051017501999999KA1999N+00781MD1310041+9999
0017123750999991929101906004+52183+020967FM-12+013399999V0201401N001019999999N9999999N9+00891+99999101001ADDMD1810101+9999
0017123750999991929102006004+52183+020967FM-12+013399999V0202001N001019999999N9999999N9+01281+99999100101ADDMD1810101+9999
0035123750999991929102018004+52183+020967FM-12+013399999V0201801N002619999999N9999999N9+01281+99999100201EQDQ01+000032APCTENQ02+000002APC3  
0067123750999991929102106004+52183+020967FM-12+013399999V0202001N002619999999N0040001N9+00781+99999100771ADDAA199005091GF106991041051012501999999KA1999N+00721MD1310161+9999
0067123750999991929102118004+52183+020967FM-12+013399999V0202501N00101012301CN0040001N9+00501+99999101501ADDAA199000691GF108991061051012501999999KA1999M+00501MD1310201+9999
0075123750999991929102218004+52183+020967FM-12+013399999V0209991C00001004501CN0020001N9+00781+99999101151ADDAA199005091AY161999GF108991081061004501999999KA1999M+01001MD1810041+9999
0073123750999991929102306004+52183+020967FM-12+013399999V0209991C00001002401CN0010001N9+00721+99999101021ADDAA199001091GF108991081051002501999999KA1999N+00501MD1310041+9999MW1101
0077123750999991929102318004+52183+020967FM-12+013399999V0202001N00101002401CN0020001N9+00891+99999100981ADDGF108991081051002501999999KA1999M+01221EQDQ01+000032APCTENQ02+000002APC3  
0067123750999991929102406004+52183+020967FM-12+013399999V0209991C00001000151CN0000001N9+00501+99999101231ADDAA199000691GF108991081051000251999999KA1999N+00281MD1310041+9999
0017123750999991929102418004+52183+020967FM-12+013399999V0201101N001019999999N9999999N9+00781+99999101141ADDMD1310041+9999
0088123750999991929102506004+52183+020967FM-12+013399999V0201101N00261000601CN0000501N9+00721+99999100851ADDAA199000691GF108991081051000751999999KA1999N+00501EQDQ01+000032APCTENQ02+000002APC3  
0043123750999991929102518004+52183+020967FM-12+013399999V0201401N00461220001CN0020001N9+01111+99999100591ADDGF100991001001999999999999MD1810041+9999
0056123750999991929102606004+52183+020967FM-12+013399999V0201101N00261007801CN0040001N9+00781+99999100061ADDGF106991061051008001999999KA1999N+00781MD1810101+9999
0067123750999991929102618004+52183+020967FM-12+013399999V0201101N00101001501CN0010001N9+01001+99999099651ADDAA199000691GF108991081051001501999999KA1999M+01111MD1810161+9999
0075123750999991929102706004+52183+020967FM-12+013399999V0202501N00101001501CN0020001N9+00721+99999100211ADDAA199006091AY161999GF108991081061001501999999KA1999N+00721MD1310101+9999
0056123750999991929102718004+52183+020967FM-12+013399999V0200501N00101012301CN0020001N9+00781+99999100411ADDGF108991081051012501999999KA1999M+01001MD1810041+9999
0028123750999991929102806004+52183+020967FM-12+013399999V0202501N002619999999N9999999N9+00611+99999100601ADDAA199008091MD1310101+9999
0056123750999991929102818004+52183+020967FM-12+013399999V0202001N00101012301CN0020001N9+00611+99999101241ADDGF106991061051012501999999KA1999M+00891MD1310101+9999
0017123750999991929102918004+52183+020967FM-12+013399999V0201801N004619999999N9999999N9+00721+99999100601ADDMD1810101+9999
0035123750999991929103006004+52183+020967FM-12+013399999V0202001N001019999999N9999999N9+00721+99999100601EQDQ01+000032APCTENQ02+000002APC3  
0056123750999991929103018004+52183+020967FM-12+013399999V0209991C00001220001CN0040001N9+00891+99999101021ADDGF100991001001999999999999KA1999M+01281MD1310101+9999
0043123750999991929103106004+52183+020967FM-12+013399999V0209991C00001002401CN0005001N9+00781+99999101461ADDGF108991081051002501999999MD1310161+9999
0075123750999991929103118004+52183+020967FM-12+013399999V0200201N00101004501CN9999999N9+01001+99999101731ADDGF108991081051004501999999KA1999M+99999MD1310161+9999EQDQ01 +00722ATMX  
0075123750999991929110106004+52183+020967FM-12+013399999V0200501N00261002401CN0020001N9+00721+99999101981ADDAA199000391GF108991081051002501999999EQDQ01+000032APCTENQ02+000002APC3  
0043123750999991929110118004+52183+020967FM-12+013399999V0209991C00001000151CN0010001N9+00891+99999102251ADDGF108991081051000251999999MD1310101+9999
0075123750999991929110206004+52183+020967FM-12+013399999V0203601N99999004501CN0010001N9+00611+99999102371ADDAA199002091GF108991081061004501999999EQDQ01+000032APCTENQ02+000002APC3  
0062123750999991929110218004+52183+020967FM-12+013399999V0202701N00101220001CN0010001N9+00281+99999102261ADDAA199010091AY161999GF102991001001999999999999MD1310041+9999
0054123750999991929110306004+52183+020967FM-12+013399999V0202701N00101002401CN0040001N9+00281+99999102591ADDAA199001091GF108991081051002501999999MD1310101+9999
0028123750999991929110318004+52183+020967FM-12+013399999V0209991C000019999999N9999999N9+00501+99999102401ADDAA199003091MD1810101+9999
0017123750999991929110406004+52183+020967FM-12+013399999V0203201N002619999999N9999999N9+00391+99999101901ADDMD1310101+9999
0017123750999991929110418004+52183+020967FM-12+013399999V0202901N002619999999N9999999N9+01501+99999102701ADDMD1310101+9999
0043123750999991929110506004+52183+020967FM-12+013399999V0202501N00101002401CN0010001N9+00221+99999102901ADDGF108991081051002501999999MD1310101+9999
0043123750999991929110518004+52183+020967FM-12+013399999V0202701N00101220001CN0040001N9+00281+99999102671ADDGF100991001001999999999999MD1810041+9999
0064123750999991929110606004+52183+020967FM-12+013399999V0209991C00001000151CN0010001N9+00001+99999102431ADDGF108991081051000251999999EQDQ01+000032APCTENQ02+000002APC3  
0043123750999991929110618004+52183+020967FM-12+013399999V0201401N99999220001CN0040001N9+00391+99999101981ADDGF100991001001999999999999MD1810041+9999
0017123750999991929110706004+52183+020967FM-12+013399999V0201101N999999999999N9999999N9+01111+99999101801ADDMD1810101+9999
0043123750999991929110718004+52183+020967FM-12+013399999V0201401N00261002401CN0005001N9+00391+99999101911ADDGF108991081051002501999999MD1310101+9999
0035123750999991929110806004+52183+020967FM-12+013399999V0209991C000019999999N9999999N9+00391+99999101901EQDQ01+000032APCTENQ02+000002APC3  
0054123750999991929110818004+52183+020967FM-12+013399999V0201401N00461220001CN0010001N9+00611+99999101701ADDAA199000691GF102991001001999999999999MD1810041+9999
0017123750999991929110906004+52183+020967FM-12+013399999V0209991C000019999999N9999999N9+00391+99999101501ADDMD1810101+9999
0017123750999991929110918004+52183+020967FM-12+013399999V02099999999999999999N9999999N9+00611+99999101601ADDMD1310101+9999
0060123750999991929111006004+52183+020967FM-12+013399999V0202901N99999015001CN0010001N9+00391+99999102591ADDAA199000391GF108991081051017501999999MD1310301+9999MW1101
0043123750999991929111018004+52183+020967FM-12+013399999V0201101N00261002401CN0020001N9+00281+99999102631ADDGF108991081051002501999999MD1810041+9999
0054123750999991929111106004+52183+020967FM-12+013399999V0201601N00261000151CN0040001N9+00611+99999102071ADDAA199000691GF108991081051000251999999MD1310041+9999
0017123750999991929111206004+52183+020967FM-12+013399999V0209991C000019999999N9999999N9+00501+99999101501ADDMD1810101+9999
0054123750999991929111218004+52183+020967FM-12+013399999V0201401N00261220001CN0020001N9+00721+99999100701ADDAA199000691GF100991001001999999999999MD1810101+9999
0043123750999991929111318004+52183+020967FM-12+013399999V0209991C000019999999N0020001N9+00781+99999100591ADDGF106991041051002501999999MD1810041+9999
0054123750999991929111418004+52183+020967FM-12+013399999V0200901N00101220001CN0040001N9+01001+99999099851ADDAA199000691GF104991021011008001999999MD1810101+9999
0054123750999991929111506004+52183+020967FM-12+013399999V0203201N00461004501CN0020001N9+00611+99999099971ADDAA199006091GF108991081061004501999999MD1310161+9999
0054123750999991929111518004+52183+020967FM-12+013399999V0209991C00001002401CN0200001N9+00391+99999100431ADDAA199006091GF108991081061002501999999MD1310241+9999
0054123750999991929111606004+52183+020967FM-12+013399999V0209991C00001001501CN0005001N9+00221+99999100821ADDAA199000591GF108991081051001501999999MD1310041+9999
0083123750999991929111618004+52183+020967FM-12+013399999V0200501N00101002401CN0020001N9+00281+99999100731ADDAA199002091AY141999GF108991081051002501999999EQDQ01+000032APCTENQ02+000002APC3  
0043123750999991929111706004+52183+020967FM-12+013399999V0209991C00001001501CN0010001N9+00281+99999100571ADDGF108991081051001501999999MD1810041+9999
0043123750999991929111718004+52183+020967FM-12+013399999V0209991C00001002401CN0020001N9+00391+99999100611ADDGF108991081051002501999999MD1310041+9999
0054123750999991929111806004+52183+020967FM-12+013399999V0209991C00001001501CN0010001N9+00281+99999101091ADDAA199000591GF108991081051001501999999MD1310161+9999
0054123750999991929111818004+52183+020967FM-12+013399999V0209991C00001001501CN0010001N9+00391+99999101511ADDAA199001091GF108991081051001501999999MD1310161+9999
0054123750999991929111906004+52183+020967FM-12+013399999V0209991C00001012301CN0020001N9+00281+99999102051ADDAA199000691GF108991081051012501999999MD1310201+9999
0043123750999991929111918004+52183+020967FM-12+013399999V0209991C00001002401CN0020001N9+00391+99999102461ADDGF108991081051002501999999MD1310101+9999
0043123750999991929112006004+52183+020967FM-12+013399999V0209991C00001000601CN0000001N9+00111+99999102701ADDGF108991081051000751999999MD1310101+9999
0017123750999991929112018004+52183+020967FM-12+013399999V0201401N001019999999N9999999N9+00281+99999102701ADDMD1810101+9999
0035123750999991929112106004+52183+020967FM-12+013399999V0201801N001019999999N9999999N9+00111+99999102801EQDQ01+000032APCTENQ02+000002APC3  
0043123750999991929112118004+52183+020967FM-12+013399999V0201101N00261220001CN0100001N9+00391+99999102771ADDGF100991001001999999999999MD1310041+9999
0043123750999991929112206004+52183+020967FM-12+013399999V0201801N00261002401CN0040001N9+00221+99999102781ADDGF108991081051002501999999MD1310041+9999
0043123750999991929112218004+52183+020967FM-12+013399999V0201401N00261002401CN0040001N9+00281+99999102611ADDGF108991081051002501999999MD1810041+9999
0043123750999991929112306004+52183+020967FM-12+013399999V0201601N00261001501CN0005001N9+00281+99999102301ADDGF108991081051001501999999MD1310101+9999
0064123750999991929112318004+52183+020967FM-12+013399999V0201401N00101220001CN0020001N9+00501+99999102111ADDGF100991001001999999999999EQDQ01+000032APCTENQ02+000002APC3  
0054123750999991929112406004+52183+020967FM-12+013399999V0209991C00001220001CN0020001N9+00111+99999102191ADDAA199000691GF104991041051002501999999MD1310041+9999
0075123750999991929112418004+52183+020967FM-12+013399999V0201101N00261001501CN0000501N9+00281+99999102131ADDAA199000691GF108991081051001501999999EQDQ01+000032APCTENQ02+000002APC3  
0043123750999991929112506004+52183+020967FM-12+013399999V0201601N00101001501CN0010001N9+00501+99999102191ADDGF108991081051001501999999MD1310041+9999
0043123750999991929112518004+52183+020967FM-12+013399999V0209991C00001220001CN0500001N9+00281+99999102341ADDGF100991001001999999999999MD1310041+9999
0075123750999991929112618004+52183+020967FM-12+013399999V0201801N00261012301CN0020001N9+00391+99999101901ADDAA199000691GF107991071051012501999999EQDQ01+000032APCTENQ02+000002APC3  
0000123750999991929112706004+52183+020967FM-12+013399999V0201401N002619999999N9999999N9+00221+99999101501
0054123750999991929112718004+52183+020967FM-12+013399999V0202501N00261002401CN0002001N9+00611+99999101431ADDAA199006091GF108991081061002501999999MD1310041+9999
0054123750999991929112806004+52183+020967FM-12+013399999V0201401N00261220001CN0020001N9+00391+99999102021ADDAA199000591GF104991021051012501999999MD1310161+9999
0070123750999991929112818004+52183+020967FM-12+013399999V0202001N00101220001CN0010001N9+00281+99999102101ADDGF100991001001999999999999MW1101EQDQ01+000032APCTENQ02+000002APC3  
0062123750999991929112918004+52183+020967FM-12+013399999V0201801N00261012301CN0040001N9+00501+99999101151ADDAA199000391AY161999GF108991081051012501999999MD1810041+9999
0064123750999991929113006004+52183+020967FM-12+013399999V0201601N00101002401CN0040001N9+00391+99999101021ADDGF107991071051002501999999EQDQ01+000032APCTENQ02+000002APC3  
0054123750999991929113018004+52183+020967FM-12+013399999V0201801N00101220001CN0040001N9+00501+99999100831ADDAA199000691GF100991001001999999999999MD1810101+9999
0067123750999991929120106004+52183+020967FM-12+013399999V0201101N00261012301CN0040001N9+00281+99999100491ADDAA199000691GF108991081051012501999999KA1999N+00221MD1810101+9999
0077123750999991929120118004+52183+020967FM-12+013399999V0201401N00261012301CN0040001N9+00611+99999100371ADDGF108991081051012501999999KA1999M+00721EQDQ01+000032APCTENQ02+000002APC3  
0067123750999991929120206004+52183+020967FM-12+013399999V0202501N00101001501CN0020001N9+00721+99999100571ADDAA199001091GF108991081051001501999999KA1999N+00611MD1310161+9999
0056123750999991929120306004+52183+020967FM-12+013399999V0209991C00001012301CN0020001N9+00501+99999101511ADDGF106991061051012501999999KA1999N+00501MD1310101+9999
0035123750999991929120318004+52183+020967FM-12+013399999V0201401N001019999999N9999999N9+00501+99999101701EQDQ01+000032APCTENQ02+000002APC3  
0067123750999991929120406004+52183+020967FM-12+013399999V0209991C00001002401CN0005001N9+00281+99999101701ADDAA199003091GF108991081051002501999999KA1999N+00281MD1310041+9999
0073123750999991929120418004+52183+020967FM-12+013399999V0209991C00001002401CN0010001N9+00501+99999102021ADDAA199000391GF108991081051002501999999KA1999M+00721MD1310161+9999MW1101
0017123750999991929120506004+52183+020967FM-12+013399999V0201101N001019999999N9999999N9+00501+99999102011ADDMD1810101+9999
0067123750999991929120518004+52183+020967FM-12+013399999V0201401N00101000151CN0020001N9+00611+99999101381ADDAA199000691GF108991081051000251999999KA1999M+00781MD1810161+9999
0056123750999991929120606004+52183+020967FM-12+013399999V0201101N00101220001CN0020001N9+00281+99999100821ADDGF102991021051012501999999KA1999N+00281MD1810041+9999
0056123750999991929120618004+52183+020967FM-12+013399999V0209991C00001000151CN0000001N9+00391+99999100811ADDGF108991081051000251999999KA1999M+00721MD1310041+9999
0017123750999991929120706004+52183+020967FM-12+013399999V0201801N001019999999N9999999N9+00391+99999100701ADDMD1810101+9999
0056123750999991929120718004+52183+020967FM-12+013399999V0209991C00001220001CN0020001N9+00611+99999100871ADDGF100991001001999999999999KA1999M+00781MD1810041+9999
0067123750999991929120806004+52183+020967FM-12+013399999V0202501N00101001501CN0020001N9+00611+99999101651ADDAA199000691GF108991081051001501999999KA1999N+00501MD1310201+9999
0067123750999991929120906004+52183+020967FM-12+013399999V0201401N00461000151CN0000001N9+00111+99999101341ADDAA199000691GF108991081051000251999999KA1999N-00111MD1810101+9999
0067123750999991929120918004+52183+020967FM-12+013399999V0202501N00261012301CN0040001N9+00391+99999101491ADDAA199001091GF106991061051012501999999KA1999M+00611MD1310041+9999
0067123750999991929121018004+52183+020967FM-12+013399999V0202001N00101004501CN0020001N9+00501+99999100851ADDAA199002091GF108991081061004501999999KA1999M+00721MD1310101+9999
0067123750999991929121106004+52183+020967FM-12+013399999V0202501N00101002401CN0020001N9+00281+99999101471ADDAA199004091GF108991081051002501999999KA1999N+00221MD1310161+9999
0056123750999991929121118004+52183+020967FM-12+013399999V0201401N002619999999N0040001N9+00221+99999100991ADDGF107991041051012501999999KA1999M+00501MD1810241+9999
0049123750999991929121206004+52183+020967FM-12+013399999V0202501N002619999999N9999999N9+00611+99999100701ADDAA199004091EQDQ01+000032APCTENQ02+000002APC3  
0067123750999991929121306004+52183+020967FM-12+013399999V0202001N00461001501CN0020001N9+00391+99999100331ADDAA199002091GF108991081051001501999999KA1999N+00281MD1810041+9999
0067123750999991929121318004+52183+020967FM-12+013399999V0203201N00461002401CN9999999N9+00501+99999101631ADDAA199002091GF108991081061002501999999KA1999M+00611MD1310161+9999
0017123750999991929121506004+52183+020967FM-12+013399999V0202001N006719999999N9999999N9+00891+99999101401ADDMD1810101+9999
0067123750999991929121518004+52183+020967FM-12+013399999V0202901N004619999999N0040001N9+00611+99999101501ADDAA199000391GF106991041011012501999999KA1999M+01001MD1810041+9999
0088123750999991929121606004+52183+020967FM-12+013399999V0202901N00461004501CN0100001N9+00281+99999101491ADDAA199000691GF108991081061004501999999KA1999N+00221EQDQ01+000032APCTENQ02+000002APC3  
0067123750999991929121618004+52183+020967FM-12+013399999V0202901N00261220001CN0040001N9+00001+99999101651ADDAA199000691GF100991001001999999999999KA1999M+00501MD1310041+9999
0017123750999991929121706004+52183+020967FM-12+013399999V0202901N002619999999N9999999N9+00001+99999101701ADDMD1310101+9999
0073123750999991929121806004+52183+020967FM-12+013399999V0200201N00261004501CN0010001N9+00001+99999102991ADDAA199000691GF108991081061004501999999KA1999N-00221MD1310241+9999MW1101
0067123750999991929121906004+52183+020967FM-12+013399999V0209991C00001220001CN0002001N9-00501+99999104171ADDAA199000691GF100991001001999999999999KA1999N-00611MD1310041+9999
0056123750999991929121918004+52183+020967FM-12+013399999V0209991C00001000151CN0000001N9-00611+99999103951ADDGF108991081051000251999999KA1999M+00001MD1810041+9999
0042123750999991929122018004+52183+020967FM-12+013399999V0209991C00001220001CN0040001N9-00501+99999103231ADDGF100991001001999999999999KA1999M-00221
0056123750999991929122118004+52183+020967FM-12+013399999V0200901N00261220001CN0040001N9-00111+99999102651ADDGF100991001001999999999999KA1999M+00001MD1810041+9999
0077123750999991929122206004+52183+020967FM-12+013399999V0201401N00931007801CN0020001N9+00001+99999102551ADDGF108991081051008001999999KA1999N-00221EQDQ01+000032APCTENQ02+000002APC3  
0056123750999991929122318004+52183+020967FM-12+013399999V0201101N00461220001CN0040001N9-00721+99999102491ADDGF104991041051012501999999KA1999M-00501MD1310041+9999
0035123750999991929122606004+52183+020967FM-12+013399999V0201601N004619999999N9999999N9-00391+99999102801EQDQ01+000032APCTENQ02+000002APC3  
0088123750999991929122718004+52183+020967FM-12+013399999V0209991C00001002401CN0010001N9+00111+99999102071ADDAA199003091GF108991081061002501999999KA1999M+00111EQDQ01+000032APCTENQ02+000002APC3  
0017123750999991929122806004+52183+020967FM-12+013399999V0201401N002619999999N9999999N9-00221+99999101701ADDMD1810101+9999
0088123750999991929122818004+52183+020967FM-12+013399999V0201401N00101002401CN0010001N9-00221+99999101661ADDAA199001091GF108991081061002501999999KA1999M+00111EQDQ01+000032APCTENQ02+000002APC3  
0077123750999991929122906004+52183+020967FM-12+013399999V0201601N00101002401CN0010001N9-00111+99999101821ADDGF108991081051002501999999KA1999N-00221EQDQ01+000032APCTENQ02+000002APC3  
0056123750999991929122918004+52183+020967FM-12+013399999V0201401N00261002401CN0020001N9+00111+99999101271ADDGF108991081051002501999999KA1999M+00111MD1810201+9999
0067123750999991929123006004+52183+020967FM-12+013399999V0202501N00261002401CN0020001N9+00281+99999101571ADDAA199000691GF107991071051002501999999KA1999N+00111MD1310101+9999
0017123750999991929123018004+52183+020967FM-12+013399999V0202501N002619999999N9999999N9+00281+99999101801ADDMD1210101+9999
0017123750999991929123106004+52183+020967FM-12+013399999V0201601N002619999999N9999999N9+00111+99999101471ADDMD1810101+9999
