0075124250999991929010106004+51133+016967FM-12+003799999V0203201N00671002401CN0020001N9-00111-00171999999ADDAA199004091AY171999GF108991081061002501999999KA1999N-00111MD1310141+9999
0094124250999991929010112004+51133+016967FM-12+003799999V0203201N002619999999N0040001N9-00111-00281101231ADDAY171999GF108991999061001501001001MW1711EQDQ01+000042SCOTLCQ02+000042APCTENQ03+000142APC3  
0083124250999991929010206004+51133+016967FM-12+003799999V0200901N00101030001CN0020001N9-00391-00561999999ADDAY171999GF107991041061012501031001KA1999N+99999MD1110061+9999EQDQ01 +00002ATMN  
0072124250999991929010212004+51133+016967FM-12+003799999V0200501N00261007801CN0040001N9-00221-00391102081ADDAY111999GF107991071051008001001001EQDQ01+000022APCTENQ02+000002APC3  
0094124250999991929010306004+51133+016967FM-12+003799999V0200501N004619999999N0020001N9-00501-00671999999ADDAY171999GF108991999051004501001001MW1701EQDQ01+000022SCOTLCQ02+000022APCTENQ03+000002APC3  
0051124250999991929010312004+51133+016967FM-12+003799999V0200501N00461007801CN0040001N9-00391-00561102311ADDAY121999GF108991081051008001999999MD1810061+9999
0076124250999991929010406004+51133+016967FM-12+003799999V0200501N004619999999N0020001N9-00281-00331999999ADDAY171999GF108991999051004501001001MD1110061+9999MW1231EQDQ01+000042SCOTLC
0094124250999991929010412004+51133+016967FM-12+003799999V0200501N002619999999N0100001N9-00221-00391102601ADDAY111999GF108991999051004501001001MW1231EQDQ01+000022SCOTLCQ02+000082APCTENQ03+000002APC3  
0118124250999991929010506004+51133+016967FM-12+003799999V0200501N002619999999N0020001N9-00501-00561999999ADDAA199000691AY171999GF108991999051004501001001KA1999N-00501MW1701EQDQ01+000042SCOTLCQ02+000032APCTENQ03+000002APC3  
0057124250999991929010512004+51133+016967FM-12+003799999V0200201N00261002401CN0020001N9-00501-00671102611ADDAY171999GF108991081061002501999999MD1810141+9999MW1711
0081124250999991929010606004+51133+016967FM-12+003799999V0200501N00261004501CN0100001N9-00611-00671999999ADDAA199000691AY171999GF108991081051004501999999KA1999N-00721MD1110141+9999MW1231
0072124250999991929010612004+51133+016967FM-12+003799999V0201401N00101007801CN0100001N9-00391-00561103281ADDAY121999GF108991061051008001021001EQDQ01+000012APCTENQ02+000002APC3  
0096124250999991929010706004+51133+016967FM-12+003799999V0201401N00101220001CN0040001N9-01001-01171999999ADDAA199000691AY101999GF102991021051017501021001KA1999N-01001EQDQ01+000082APCTENQ02+000002APC3  
0070124250999991929010806004+51133+016967FM-12+003799999V0201101N00101220001CN0020001N9-01391-01561999999ADDAY141999GF100991001001999999001001KA1999N-01501MD1110141+9999MW1421
0051124250999991929010812004+51133+016967FM-12+003799999V0201101N00101220001CN0040001N9-00611-00781104311ADDAY141999GF100991001001999999001001MD1310061+9999
0085124250999991929010906004+51133+016967FM-12+003799999V0201401N00101220001CN0040001N9-01611-01781999999ADDAY101999GF102991999999022501999999KA1999N-01891EQDQ01+000012APCTENQ02+000002APC3  
0051124250999991929010912004+51133+016967FM-12+003799999V0201401N00101220001CN0100001N9-01221-01561104971ADDAY101999GF102991021051022501001001MD1810141+9999
0070124250999991929011006004+51133+016967FM-12+003799999V0209991C00001220001CN0020001N9-01781-01941999999ADDAY141999GF102991021051017501031001KA1999N-01781MD1610141+9999MW1421
0051124250999991929011012004+51133+016967FM-12+003799999V0201801N00261220001CN0100001N9-00391-00891104031ADDAY141999GF104991999999017501999999MD1810141+9999
0089124250999991929011106004+51133+016967FM-12+003799999V0209991C00001220001CN0020001N9-02111-02561999999ADDAY141999GF101991999051017501031001KA1999N-02111MD1990061+9999MW1421EQDQ01+000022SCOTLC
0051124250999991929011112004+51133+016967FM-12+003799999V0209991C00001220001CN0020001N9-00891-01391103791ADDAY141999GF100991001001999999001001MD1810141+9999
0064124250999991929011206004+51133+016967FM-12+003799999V0203201N00461012301CN0040001N9-00891-00941999999ADDAY111999GF108991061051012501031001KA1999N-02001MD1810141+9999
0072124250999991929011212004+51133+016967FM-12+003799999V0203201N00931007801CN0020001N9-00721-00891103311ADDAY171999GF108991081051008001999999EQDQ01+000082APCTENQ02+000002APC3  
0081124250999991929011306004+51133+016967FM-12+003799999V0202901N00671002401CN0040001N9-00111-00281999999ADDAA199000691AY141999GF108991081051002501999999KA1999N-00721MD1710261+9999MW1701
0092124250999991929011312004+51133+016967FM-12+003799999V0202901N012319999999N0040001N9+00111-00111101541ADDAY171999GF108991999061004501001001MD1710542+9999MW1701EQDQ01+000042SCOTLCQ02+000542APC3  
0075124250999991929011406004+51133+016967FM-12+003799999V0203601N00671220001CN0200001N9-00281-00611999999ADDAA199000691AY111999GF102991021051017501021001KA1999N-00281MD1110201+9999
0051124250999991929011412004+51133+016967FM-12+003799999V0202901N00261030001CN0200001N9-00221-00721101641ADDAY111999GF106991041051017501021001MD1010001+9999
0089124250999991929011506004+51133+016967FM-12+003799999V0209991C00001007801CN0020001N9-01221-01391999999ADDAY141999GF108991999051008001001001KA1999N-01501MD1810261+9999MW1431EQDQ01+000062SCOTLC
0070124250999991929011512004+51133+016967FM-12+003799999V0201801N00101220001CN0040001N9-00501-01001100501ADDAY101999GF102991999999022501999999MD1810602+9999EQDQ01+000602APC3  
0089124250999991929011606004+51133+016967FM-12+003799999V0203201N004619999999N0040001N9-00391-00561999999ADDAY171999GF108991999051004501001001KA1999N-00391MD1610061+9999MW1701EQDQ01+000042SCOTLC
0070124250999991929011612004+51133+016967FM-12+003799999V0203201N001019999999N0100001N9-00721-01061099471ADDAY111999GF106991999051008001001001MD1310141+9999EQDQ01+000022SCOTLC
0064124250999991929011706004+51133+016967FM-12+003799999V0202701N00461220001CN0200001N9-01111-01441999999ADDAY111999GF104991021051012501021001KA1999N-01221MD1110141+9999
0070124250999991929011712004+51133+016967FM-12+003799999V0202301N00261220001CN0100001N9-00781-01441100781ADDAY111999GF106991999001999999031001MD1510001+9999EQDQ01+000002SCOTLC
0075124250999991929011806004+51133+016967FM-12+003799999V0202901N00671004501CN0040001N9-00781-00941999999ADDAA199000691AY121999GF108991081051004501999999KA1999N-01001MD1110201+9999
0072124250999991929011812004+51133+016967FM-12+003799999V0202901N00461030001CN0100001N9-00721-01061102441ADDAY111999GF106991041051012501021001EQDQ01+000042APCTENQ02+000062APC3  
0081124250999991929011906004+51133+016967FM-12+003799999V0202901N01541002401CN0010001N9+00001-00061999999ADDAA199000391AY171999GF108991081051002501999999KA1999N-01111MD1610061+9999MW1701
0094124250999991929011912004+51133+016967FM-12+003799999V0202901N01541007801CN0100001N9+00221+00001101551ADDAY111999GF107991999061008001001001MW1231EQDQ01+000062SCOTLCQ02+000032APCTENQ03+000002APC3  
0064124250999991929012006004+51133+016967FM-12+003799999V0203201N00101220001CN0200001N9-00721-00891999999ADDAY101999GF102991021051017501001001KA1999N-00721MD1310261+9999
0051124250999991929012012004+51133+016967FM-12+003799999V0202701N00101220001CN0500001N9-00221-00561103331ADDAY101999GF100991001001999999001001MD1310061+9999
0085124250999991929012106004+51133+016967FM-12+003799999V0201401N00101220001CN0020001N9-01111-01281999999ADDAY111999GF102991999999017501999999KA1999N-01221EQDQ01+000032APCTENQ02+000002APC3  
0051124250999991929012112004+51133+016967FM-12+003799999V0201401N00261220001CN0020001N9-00501-00671103621ADDAY141999GF100991001001999999001001MD1810141+9999
0070124250999991929012206004+51133+016967FM-12+003799999V0201401N00101220001CN0010001N9-01281-01441999999ADDAY141999GF102991021051017501021001KA1999N-01281MD1810141+9999MW1101
0051124250999991929012212004+51133+016967FM-12+003799999V0201401N00261220001CN0040001N9-00391-00721102861ADDAY101999GF102991999999022501999999MD1810141+9999
0070124250999991929012306004+51133+016967FM-12+003799999V0201401N00101220001CN0020001N9-01001-01171999999ADDAY141999GF104991021051017501021001KA1999N-01111MD1810141+9999MW1461
0057124250999991929012312004+51133+016967FM-12+003799999V0209991C00001030001CN0020001N9-00221-00391102021ADDAY141999GF108991041051012501021001MD1810141+9999MW1711
0102124250999991929012406004+51133+016967FM-12+003799999V0202701N00101004501CN0020001N9-00221-00281999999ADDAA199003091AY171999GF108991081051004501999999KA1999N-00391MW1231EQDQ01+000082APCTENQ02+000002APC3  
0078124250999991929012412004+51133+016967FM-12+003799999V0202901N00101002401CN0020001N9-00111-00171101711ADDAY171999GF108991081061002501999999MW1731EQDQ01+000032APCTENQ02+000002APC3  
0075124250999991929012506004+51133+016967FM-12+003799999V0201401N00101004501CN0020001N9-00611-00781999999ADDAA199000691AY171999GF108991081051004501999999KA1999N-00611MD1010001+9999
0057124250999991929012512004+51133+016967FM-12+003799999V0200501N00261002401CN0020001N9-00391-00561101571ADDAY171999GF108991081051002501999999MD1810061+9999MW1731
0064124250999991929012606004+51133+016967FM-12+003799999V0201401N00101030001CN0040001N9-01111-01281999999ADDAY111999GF108991021051012501021001KA1999N-01111MD1990141+9999
0070124250999991929012612004+51133+016967FM-12+003799999V0200501N001019999999N0040001N9-00721-00891101361ADDAY111999GF108991999061008001001001MD1810061+9999EQDQ01+000042SCOTLC
0102124250999991929012706004+51133+016967FM-12+003799999V0203201N00261004501CN0020001N9-00721-00781999999ADDAA199002091AY171999GF108991081051004501999999KA1999N-00781MW1701EQDQ01+000032APCTENQ02+000002APC3  
0078124250999991929012712004+51133+016967FM-12+003799999V0203201N00261004501CN0020001N9-00721-00891101151ADDAY171999GF108991081051004501999999MW1731EQDQ01+000082APCTENQ02+000002APC3  
0075124250999991929012806004+51133+016967FM-12+003799999V0209991C00001220001CN0020001N9-01391-01671999999ADDAA199001091AY171999GF102991021051017501001001KA1999N-01501MD1110061+9999
0011124250999991929012812004+51133+016967FM-12+003799999V0209991C000019999999N0040001N9-00281+99999102271ADDAY141999
0081124250999991929012906004+51133+016967FM-12+003799999V0202501N00101004501CN0020001N9-00501-00561999999ADDAA199000691AY171999GF108991081051004501999999KA1999N-00781MD1110141+9999MW1701
0051124250999991929012912004+51133+016967FM-12+003799999V0209991C00001007801CN0020001N9-00391-00561103601ADDAY141999GF108991081051008001999999MD1310141+9999
0070124250999991929013012004+51133+016967FM-12+003799999V0200501N002619999999N0040001N9-00221-00281103581ADDAY171999GF108991999061004501001001MD1810141+9999EQDQ01+000022SCOTLC
0070124250999991929013106004+51133+016967FM-12+003799999V0200701N00461004501CN0040001N9-00781-00941999999ADDAY171999GF108991081051004501999999KA1999N-00781MD1310141+9999MW1701
0072124250999991929013112004+51133+016967FM-12+003799999V0200501N00261220001CN0100001N9-00721-00891103811ADDAY111999GF101991999999017501999999EQDQ01+000082APCTENQ02+000002APC3  
0064124250999991929020106004+51133+016967FM-12+003799999V0200501N00101220001CN0040001N9-02001-02281999999ADDAY101999GF101991999999022501999999KA1999N-02221MD1810061+9999
0051124250999991929020112004+51133+016967FM-12+003799999V0200501N00261220001CN0100001N9-01111-01441103761ADDAY101999GF100991001001999999001001MD1810141+9999
0069124250999991929020206004+51133+016967FM-12+003799999V0200501N00101220001CN0020001N9-02501-02671999999ADDAY101999GF100991001001999999001001KA1999N-02501EQDQ01+000002APC3  
0051124250999991929020212004+51133+016967FM-12+003799999V0201401N00101220001CN0100001N9-01611-01891103831ADDAY101999GF100991001001999999001001MD1810141+9999
0064124250999991929020306004+51133+016967FM-12+003799999V0201401N00101220001CN0040001N9-02501-02671999999ADDAY101999GF104991001001999999021091KA1999N-02611MD1610061+9999
0051124250999991929020312004+51133+016967FM-12+003799999V0201401N00101220001CN0100001N9-01391-01561103301ADDAY101999GF104991001001999999031091MD1810261+9999
0057124250999991929020406004+51133+016967FM-12+003799999V0209991C00001220001CN0020001N9-01891-02061999999ADDAY141999GF100991001001999999001001MD1810141+9999MW1421
0051124250999991929020412004+51133+016967FM-12+003799999V0209991C00001220001CN0040001N9-00501-01001102601ADDAY141999GF100991001001999999001001MD1810201+9999
0064124250999991929020506004+51133+016967FM-12+003799999V0209991C00001220001CN0020001N9-01891-02061999999ADDAY111999GF104991999999022501999999KA1999N-01891MD1510061+9999
0051124250999991929020512004+51133+016967FM-12+003799999V0209991C00001220001CN0040001N9-00281-00781102131ADDAY111999GF106991001001999999001081MD1810061+9999
0070124250999991929020606004+51133+016967FM-12+003799999V0209991C00001000601CN0000501N9-01281-01331999999ADDAY141999GF108991081051000751999999KA1999N-01391MD1110141+9999MW1471
0057124250999991929020612004+51133+016967FM-12+003799999V0200501N00101004501CN0040001N9-00781-00831102791ADDAY171999GF108991081061004501999999MD1310141+9999MW1701
0064124250999991929020706004+51133+016967FM-12+003799999V0209991C00001220001CN0020001N9-02501-02781999999ADDAY101999GF100991001001999999001001KA1999N-02501MD1110141+9999
0051124250999991929020712004+51133+016967FM-12+003799999V0201401N00101220001CN0040001N9-01611-01891103981ADDAY101999GF100991001001999999001001MD1610061+9999
0064124250999991929020806004+51133+016967FM-12+003799999V0209991C00001220001CN0040001N9-01501-01671999999ADDAY111999GF104991001001999999021081KA1999N-02001MD1810261+9999
0051124250999991929020812004+51133+016967FM-12+003799999V0203201N00671030001CN0100001N9-00501-00671102671ADDAY111999GF107991041051017501021001MD1810261+9999
0100124250999991929020906004+51133+016967FM-12+003799999V0200201N002619999999N0020001N9-01001-01171999999ADDAA199000691AY171999GF106991999061008001001001KA1999N-01001MD1310141+9999MW1231EQDQ01+000022SCOTLC
0051124250999991929020912004+51133+016967FM-12+003799999V0200501N00101220001CN0200001N9-01391-01831102821ADDAY101999GF100991001001999999001001MD1410001+9999
0091124250999991929021006004+51133+016967FM-12+003799999V0209991C00001220001CN0020001N9-03111-03281999999ADDAY141999GF100991001001999999001001KA1999N-03111MW1461EQDQ01+000032APCTENQ02+000002APC3  
0051124250999991929021012004+51133+016967FM-12+003799999V0209991C00001220001CN0040001N9-02281-02891103061ADDAY101999GF100991001001999999001001MD1510141+9999
0070124250999991929021106004+51133+016967FM-12+003799999V0209991C00001220001CN0000501N9-03001+99999999999ADDAY141999GF100991001001999999001001KA1999N-03221MD1310141+9999MW1441
0051124250999991929021112004+51133+016967FM-12+003799999V0200501N00101220001CN0020001N9-02221-02501102901ADDAY141999GF100991001001999999001001MD1810141+9999
0070124250999991929021206004+51133+016967FM-12+003799999V0200501N00101220001CN0020001N9-02721-03111999999ADDAY141999GF100991001001999999001001KA1999N-02781MD1810061+9999MW1461
0057124250999991929021212004+51133+016967FM-12+003799999V0200501N00101030001CN0010001N9-01721-02061102271ADDAY171999GF108991041051004501021001MD1810201+9999MW1711
0081124250999991929021306004+51133+016967FM-12+003799999V0209991C00001220001CN0020001N9-02721-02891999999ADDAA199000691AY171999GF106991001001999999001021KA1999N-02721MD1510001+9999MW1461
0051124250999991929021312004+51133+016967FM-12+003799999V0200501N00101220001CN0100001N9-01891-02171101711ADDAY111999GF104991001001999999001081MD1710141+9999
0100124250999991929021406004+51133+016967FM-12+003799999V0202901N00261004501CN0005001N9-01611-01781999999ADDAA199003091AY171999GF108991081061004501999999KA1999N+99999MD1810141+9999MW1731EQDQ01 +01892ATMN  
0057124250999991929021412004+51133+016967FM-12+003799999V0202901N00261004501CN0020001N9-01281-01441101131ADDAY171999GF108991081061004501999999MD1310141+9999MW1701
0081124250999991929021506004+51133+016967FM-12+003799999V0203201N00101004501CN0010001N9-01611-01671999999ADDAA199000691AY171999GF108991081051004501999999KA1999N-02501MD1510201+9999MW1701
0051124250999991929021512004+51133+016967FM-12+003799999V0202901N00261004501CN0010001N9-01281-01441101501ADDAY171999GF108991081061004501999999MD1810141+9999
0064124250999991929021606004+51133+016967FM-12+003799999V0200501N00101030001CN0100001N9-00721-00781999999ADDAY121999GF108991041051008001021001KA1999N-01281MD1510001+9999
0051124250999991929021612004+51133+016967FM-12+003799999V0201401N00101007801CN0200001N9-00391-00441101371ADDAY121999GF108991081061008001999999MD1310061+9999
0057124250999991929021706004+51133+016967FM-12+003799999V0209991C00001220001CN0005001N9-01611-01781999999ADDAY141999GF102991001001999999001021MD1310141+9999MW1441
0057124250999991929021712004+51133+016967FM-12+003799999V0200501N00261002401CN0010001N9-00721-00781102191ADDAY171999GF108991081061002501999999MD1310141+9999MW1711
0094124250999991929021806004+51133+016967FM-12+003799999V0200901N001019999999N0040001N9-00781-00941999999ADDAA199000691AY111999GF106991999061008001001001KA1999N-00781MD1010001+9999EQDQ01+000022SCOTLC
0051124250999991929021812004+51133+016967FM-12+003799999V0200701N00461030001CN0100001N9-00611-00941103061ADDAY111999GF106991021051012501021001MD1010001+9999
0064124250999991929021906004+51133+016967FM-12+003799999V0200501N00261030001CN0040001N9-01221-01391999999ADDAY111999GF107991041051012501021001KA1999N-01391MD1510001+9999
0072124250999991929021912004+51133+016967FM-12+003799999V0200501N00261015001CN0100001N9-00781-01111103141ADDAY111999GF108991081051017501999999EQDQ01+000012APCTENQ02+000002APC3  
0064124250999991929022006004+51133+016967FM-12+003799999V0200501N00101220001CN0040001N9-01721-01891999999ADDAY111999GF104991001001999999021081KA1999N-01721MD1110061+9999
0051124250999991929022012004+51133+016967FM-12+003799999V0200501N00101220001CN0100001N9-01221-01391103841ADDAY101999GF100991001001999999001001MD1210061+9999
0081124250999991929022106004+51133+016967FM-12+003799999V0209991C00001004501CN0020001N9-01281-01441999999ADDAA199000691AY171999GF108991081051004501999999KA1999N-02001MD1010001+9999MW1701
0070124250999991929022112004+51133+016967FM-12+003799999V0201801N00101220001CN0100001N9-00781-01111104151ADDAY111999GF104991999001999999021001MD1810141+9999EQDQ01+000002SCOTLC
0083124250999991929022206004+51133+016967FM-12+003799999V0209991C00001220001CN0020001N9-01391-01671999999ADDAY101999GF102991999001999999021001KA1999N-01781MD1310261+9999EQDQ01+000002SCOTLC
0051124250999991929022212004+51133+016967FM-12+003799999V0202301N001019999999N0100001N9-00221-00391102341ADDAY111999GF108991999999017501999999MD1810261+9999
0081124250999991929022306004+51133+016967FM-12+003799999V0202901N00461075001CN0020001N9-00221-00561999999ADDAA199000691AY171999GF108991041061004501001021KA1999N-00391MD1810261+9999MW1231
0094124250999991929022312004+51133+016967FM-12+003799999V0203201N004619999999N0040001N9+00111+00061101031ADDAY171999GF108991999051004501001001MW1711EQDQ01+000042SCOTLCQ02+000082APCTENQ03+000002APC3  
0102124250999991929022406004+51133+016967FM-12+003799999V0200501N00101000151CN0005001N9-00501-00561999999ADDAA199001091AY171999GF108991081051000251999999KA1999N-00501MW1731EQDQ01+000032APCTENQ02+000002APC3  
0081124250999991929022506004+51133+016967FM-12+003799999V0200501N00101004501CN0020001N9-00721-00891999999ADDAA199000691AY171999GF108991081051004501999999KA1999N-00781MD1510061+9999MW1701
0051124250999991929022512004+51133+016967FM-12+003799999V0200501N00101030001CN0040001N9-00391-00441101171ADDAY111999GF108991011051017501021001MD1810061+9999
0075124250999991929022606004+51133+016967FM-12+003799999V0202901N00101002401CN0020001N9-00611-00671999999ADDAA199000691AY171999GF108991081051002501999999KA1999N-00611MD1010001+9999
0051124250999991929022612004+51133+016967FM-12+003799999V0203201N00261004501CN0020001N9-00611-00781101581ADDAY121999GF108991081051004501999999MD1110141+9999
0081124250999991929022706004+51133+016967FM-12+003799999V0200501N00101004501CN0020001N9-00891-00941999999ADDAA199000691AY171999GF108991081051004501999999KA1999N-01001MD1010001+9999MW1701
0057124250999991929022712004+51133+016967FM-12+003799999V0200501N00461004501CN0010001N9-00781-00831101771ADDAY171999GF108991081051004501999999MD1310061+9999MW1731
0081124250999991929022806004+51133+016967FM-12+003799999V0203601N00261004501CN0010001N9-01281-01441999999ADDAA199001091AY171999GF108991081061004501999999KA1999N-01281MD1310261+9999MW1711
0051124250999991929022812004+51133+016967FM-12+003799999V0203601N00261220001CN0200001N9-01111-01441103351ADDAY171999GF102991001001999999001021MD1310201+9999
