0051124250999991928010112004+51133+016967FM-12+003799999V0200901N00261004501CN0040001N9-00221-00281103731ADDAY121999GF108991081061004501999999MD1110061+9999
0051124250999991928010212004+51133+016967FM-12+003799999V0201101N00261220001CN0040001N9-00281-00331103331ADDAY101999GF100991001001999999001001MD1810261+9999
0072124250999991928010406004+51133+016967FM-12+003799999V0209991C00001220001CN0020001N9-00781-00831999999ADDAY101999GF104991041051012501001001EQDQ01+000032APCTENQ02+000002APC3  
0037124250999991928010412004+51133+016967FM-12+003799999V0202301N00101012301CN0040001N9-00221+99999102121ADDAY171999GF108991061061012501999999
0081124250999991928010506004+51133+016967FM-12+003799999V0202501N01231002401CN0040001N9+00281-00111999999ADDAA199000691AY161999GF108991081061002501999999KA1999N-00111MD1610141+9999MW1601
0057124250999991928010512004+51133+016967FM-12+003799999V0202901N00671004501CN0500001N9+00391+00001100771ADDAY181999GF106991061061004501001001MD1010001+9999MW1801
0072124250999991928010606004+51133+016967FM-12+003799999V0202901N01231220001CN0040001N9+00281+00061999999ADDAY101999GF104991021061004501001081EQDQ01+000032APCTENQ02+000002APC3  
0051124250999991928010612004+51133+016967FM-12+003799999V0202501N00461004501CN0100001N9+00281-00111100631ADDAY121999GF107991071061004501001001MD1810341+9999
0100124250999991928010706004+51133+016967FM-12+003799999V0203401N01541002401CN0100001N9+00221+00001999999ADDAA199005091AY171999GF108991081061002501999999KA1999N+00001MD1310942+9999MW1231EQDQ01+000942APC3  
0057124250999991928010712004+51133+016967FM-12+003799999V0203401N01901002401CN0500001N9+00221-00171101281ADDAY171999GF107991061061002501021001MD1310261+9999MW1231
0057124250999991928010812004+51133+016967FM-12+003799999V0202501N00671001501CN0040001N9+00391+00331100471ADDAY161999GF108991081061001501999999MD1610141+9999MW1611
0085124250999991928010906004+51133+016967FM-12+003799999V0202501N00101220001CN0040001N9+00111+00061999999ADDAY111999GF104991021051012501001081KA1999N+00111EQDQ01+000012APCTENQ02+000002APC3  
0072124250999991928010912004+51133+016967FM-12+003799999V0202501N00261030001CN0040001N9+00391+00001101361ADDAY111999GF106991021051008001021001EQDQ01+000082APCTENQ02+000002APC3  
0085124250999991928011006004+51133+016967FM-12+003799999V0202501N00261220001CN0040001N9+00281+00061999999ADDAY111999GF104991999051008001001001KA1999N+00001EQDQ01+000022SCOTLCQ02+000002APC3  
0085124250999991928011106004+51133+016967FM-12+003799999V0202301N00461030001CN0100001N9+00391+00171999999ADDAY111999GF106991041061008001021001KA1999N+00001EQDQ01+000082APCTENQ02+000002APC3  
0057124250999991928011112004+51133+016967FM-12+003799999V0202301N00261004501CN0020001N9+00501+00281101501ADDAY161999GF108991081061004501999999MD1410001+9999MW1621
0081124250999991928011206004+51133+016967FM-12+003799999V0202901N00261004501CN0040001N9+00221+00171999999ADDAA199000691AY161999GF108991061061004501021001KA1999N+00221MD1410001+9999MW1211
0051124250999991928011212004+51133+016967FM-12+003799999V0202901N00261007801CN0100001N9+00611+00391101891ADDAY121999GF106991061061008001001001MD1410001+9999
0070124250999991928011312004+51133+016967FM-12+003799999V0202501N002619999999N0100001N9+00611+00221100831ADDAY161999GF107991999051012501001001MD1510261+9999EQDQ01+000042SCOTLC
0096124250999991928011406004+51133+016967FM-12+003799999V0202501N00931220001CN0040001N9+00281+00061999999ADDAA124999999AY101999GF102991021051022501001081KA1999N+00281EQDQ01+000032APCTENQ02+000002APC3  
0057124250999991928011412004+51133+016967FM-12+003799999V0202901N00931004501CN0100001N9+00501-00831100631ADDAY161999GF108991081061004501999999MD1510061+9999MW1211
0051124250999991928011512004+51133+016967FM-12+003799999V0202001N00461012301CN0100001N9+00721+00671100531ADDAY111999GF108991061061012501021001MD1610141+9999
0081124250999991928011606004+51133+016967FM-12+003799999V0202501N00101004501CN0010001N9+00391+00331999999ADDAA199003091AY161999GF108991081061004501999999KA1999N+00281MD1110141+9999MW1631
0078124250999991928011612004+51133+016967FM-12+003799999V0209991C00001030001CN0040001N9+00501+00441100821ADDAY161999GF106991021061008001031001MW1611EQDQ01+000082APCTENQ02+000002APC3  
0116124250999991928011706004+51133+016967FM-12+003799999V0201101N001019999999N0010001N9+00111+00061999999ADDAA199000391AY161999GF108991999051001501001001KA1999N+99999MD1210061+9999MW1601EQDQ01+000042SCOTLCQ02 +00222ATMN  
0078124250999991928011712004+51133+016967FM-12+003799999V0201101N00101000151CN0005001N9+00221+00171101041ADDAY161999GF108991081051000251999999MW1521EQDQ01+000032APCTENQ02+000002APC3  
0075124250999991928011806004+51133+016967FM-12+003799999V0203601N00101004501CN0040001N9+00111+00061999999ADDAA199001091AY121999GF108991081061004501999999KA1999N+00001MD1210141+9999
0078124250999991928011812004+51133+016967FM-12+003799999V0203401N00261007801CN0100001N9+00001-00061101831ADDAY171999GF108991081061008001999999MW1231EQDQ01+000042APCTENQ02+000062APC3  
0101124250999991928011906004+51133+016967FM-12+003799999V0201101N001019999999N0040001N9-00221-00281999999ADDAY121999GF108991999061008001001001KA1999N-00281EQDQ01+000042SCOTLCQ02+000032APCTENQ03+000002APC3  
0051124250999991928011912004+51133+016967FM-12+003799999V0201601N00461007801CN0100001N9-00281-00441102021ADDAY121999GF108991081051008001999999MD1810141+9999
0081124250999991928012006004+51133+016967FM-12+003799999V0209991C00001002401CN0010001N9-00111-00171999999ADDAA199000691AY171999GF108991081061002501999999KA1999N-00281MD1310261+9999MW1711
0051124250999991928012012004+51133+016967FM-12+003799999V0202901N00461007801CN0040001N9-00111-00281102671ADDAY121999GF108991081051008001999999MD1210141+9999
0064124250999991928012106004+51133+016967FM-12+003799999V0209991C00001002401CN0020001N9-00221-00281999999ADDAY121999GF108991081051002501999999KA1999N-00281MD1010001+9999
0057124250999991928012112004+51133+016967FM-12+003799999V0201601N00261004501CN0010001N9-00111-00281103031ADDAY171999GF108991081061004501999999MD1810141+9999MW1701
0009124250999991928012206004+51133+016967FM-12+003799999V0201401N002619999999N9999999N9-00221+99999999999ADDMW1731
0075124250999991928012306004+51133+016967FM-12+003799999V0203401N00261002401CN0020001N9-00391-00441999999ADDAA199000391AY121999GF108991081051002501999999KA1999N-00721MD1110141+9999
0051124250999991928012312004+51133+016967FM-12+003799999V0203201N00261004501CN0040001N9-00391-00561102211ADDAY171999GF108991081061004501999999MD1210141+9999
0085124250999991928012406004+51133+016967FM-12+003799999V0201801N00101220001CN0020001N9-00281-00331999999ADDAY111999GF104991041051008001001001KA1999N-00501EQDQ01+000032APCTENQ02+000002APC3  
0081124250999991928012506004+51133+016967FM-12+003799999V0202501N00461004501CN0040001N9+00281+00221999999ADDAA199001091AY161999GF108991061061004501021001KA1999N+00221MD1310141+9999MW1211
0051124250999991928012512004+51133+016967FM-12+003799999V0202701N00931075001CN0100001N9+00391+00001102611ADDAY111999GF106991021051017501001081MD1110061+9999
0085124250999991928012606004+51133+016967FM-12+003799999V0202301N00461220001CN0040001N9-00111-00171999999ADDAY101999GF100991001001999999001001KA1999N-00221EQDQ01+000032APCTENQ02+000002APC3  
0064124250999991928012706004+51133+016967FM-12+003799999V0201601N00461021001CN0040001N9-00221-00561999999ADDAY121999GF106991061051022501001081KA1999N-00391MD1610061+9999
0056124250999991928012712004+51133+016967FM-12+003799999V0202001N00931012301CN0100001N9+00221-00331102191ADDAY101999GF107991999051012501001001EQDQ01+000062SCOTLC
0083124250999991928012806004+51133+016967FM-12+003799999V0209991C000019999999N0020001N9-00281-00331999999ADDAY141999GF106991999051008001001001KA1999N-00611MD1110141+9999EQDQ01+000042SCOTLC
0051124250999991928012812004+51133+016967FM-12+003799999V0202501N00261220001CN0040001N9+00281-00281102441ADDAY101999GF102991001001999999001091MD1610061+9999
0064124250999991928012906004+51133+016967FM-12+003799999V0201601N00261220001CN0040001N9-00281-00331999999ADDAY101999GF104991041051008001001001KA1999N-00281MD1510141+9999
0051124250999991928012912004+51133+016967FM-12+003799999V0201101N00461220001CN0100001N9+00281-00111101911ADDAY101999GF101991011051012501001001MD1810201+9999
0064124250999991928013006004+51133+016967FM-12+003799999V0201401N00261220001CN0040001N9-00391-00441999999ADDAY101999GF100991001001999999001001KA1999N-00391MD1810061+9999
0051124250999991928013012004+51133+016967FM-12+003799999V0201101N00101220001CN0100001N9+00391+00001101441ADDAY101999GF100991001001999999001001MD1810141+9999
0085124250999991928013106004+51133+016967FM-12+003799999V0201101N002619999999N0040001N9-00221-00281999999ADDAY111999GF106991999999012501999999KA1999N-00281EQDQ01+000062APCTENQ02+000002APC3  
0051124250999991928013112004+51133+016967FM-12+003799999V0202301N00261220001CN0100001N9+00611+00001101091ADDAY101999GF104991999999022501999999MD1510001+9999
0085124250999991928020106004+51133+016967FM-12+003799999V0202001N00101004501CN0020001N9+00111+00061999999ADDAY121999GF108991081051004501999999KA1999N+00001EQDQ01+000082APCTENQ02+000002APC3  
0070124250999991928020112004+51133+016967FM-12+003799999V0202301N00261220001CN0100001N9+00611+00001101471ADDAY101999GF101991999001999999021001MD1810261+9999EQDQ01+000002SCOTLC
0102124250999991928020206004+51133+016967FM-12+003799999V0202501N00101004501CN0020001N9-00111-00171999999ADDAA199000691AY161999GF108991081061004501999999KA1999N-00111MW1211EQDQ01+000032APCTENQ02+000002APC3  
0081124250999991928020306004+51133+016967FM-12+003799999V0209991C00001002401CN0010001N9+00001-00061999999ADDAA199000691AY141999GF108991081051002501999999KA1999N+00001MD1210061+9999MW1451
0051124250999991928020312004+51133+016967FM-12+003799999V0200901N00261004501CN0020001N9+00111-00111101841ADDAY121999GF108991081061004501999999MD1810061+9999
0075124250999991928020406004+51133+016967FM-12+003799999V0200901N00101002401CN0020001N9-00221-00281999999ADDAA199001091AY121999GF108991081051002501999999KA1999N-00281MD1310261+9999
0051124250999991928020412004+51133+016967FM-12+003799999V0203201N00101002401CN0020001N9-00111-00281102871ADDAY121999GF108991081051002501999999MD1310141+9999
0070124250999991928020506004+51133+016967FM-12+003799999V0201601N00101220001CN0000501N9-00281-00331999999ADDAY141999GF100991001001999999001001KA1999N-00391MD1010061+9999MW1441
0051124250999991928020512004+51133+016967FM-12+003799999V0202001N00101220001CN0020001N9+00281+00061102961ADDAY101999GF100991001001999999001001MD1810201+9999
0064124250999991928020606004+51133+016967FM-12+003799999V0202001N00101075001CN0020001N9-00111-00171999999ADDAY111999GF106991041051017501001081KA1999N-00281MD1610061+9999
0051124250999991928020612004+51133+016967FM-12+003799999V0202501N00101004501CN0020001N9+00001-00061102161ADDAY121999GF108991081051004501999999MD1310061+9999
0075124250999991928020706004+51133+016967FM-12+003799999V0202901N00261015001CN0020001N9+00001-00061999999ADDAA199000691AY111999GF107991071051017501001001KA1999N-00111MD1110061+9999
0051124250999991928020712004+51133+016967FM-12+003799999V0202901N00671220001CN0040001N9+00281+00221103281ADDAY101999GF102991021051012501001001MD1810061+9999
0081124250999991928020806004+51133+016967FM-12+003799999V0202901N01541002401CN0040001N9+00501+00441999999ADDAA199001091AY161999GF108991081051002501999999KA1999N+00221MD1010001+9999MW1211
0064124250999991928020906004+51133+016967FM-12+003799999V0202501N00671007801CN0040001N9+00501+00281999999ADDAY111999GF106991061061008001001001KA1999N+00501MD1610061+9999
0072124250999991928020912004+51133+016967FM-12+003799999V0202901N009319999999N0100001N9+01001+00391101861ADDAY101999GF106991999999022501999999EQDQ01+000082APCTENQ02+000002APC3  
0064124250999991928021006004+51133+016967FM-12+003799999V0202501N00261007801CN0040001N9+00501+00111999999ADDAY121999GF108991081061008001999999KA1999N+00501MD1810141+9999
0051124250999991928021012004+51133+016967FM-12+003799999V0202501N00461007801CN0040001N9+00721+00331101171ADDAY121999GF108991081061008001999999MD1710261+9999
0100124250999991928021106004+51133+016967FM-12+003799999V0202901N006719999999N0500001N9+00501+00281999999ADDAA199000391AY181999GF106991999061002501001001KA1999N+00391MD1510001+9999MW1211EQDQ01+000022SCOTLC
0051124250999991928021112004+51133+016967FM-12+003799999V0202501N01231220001CN0200001N9+00721+00111099411ADDAY101999GF102991021051012501021001MD1710061+9999
0081124250999991928021206004+51133+016967FM-12+003799999V0202501N00931030001CN0040001N9+00391+00171999999ADDAA199000691AY161999GF107991021061008001021001KA1999N+00221MD1510001+9999MW1611
0057124250999991928021212004+51133+016967FM-12+003799999V0203201N00261030001CN0100001N9+00391+00331099101ADDAY161999GF108991041061004501021001MD1310141+9999MW1601
0085124250999991928021306004+51133+016967FM-12+003799999V0202001N001019999999N0040001N9+00111+00061999999ADDAY111999GF106991999061008001001001KA1999N-00111EQDQ01+000022SCOTLCQ02+000002APC3  
0070124250999991928021312004+51133+016967FM-12+003799999V0203401N009319999999N0100001N9+00501+00111100191ADDAY111999GF106991999091012501001001MD1710061+9999EQDQ01+000022SCOTLC
0081124250999991928021406004+51133+016967FM-12+003799999V0202901N00101001501CN0005001N9+00001-00061999999ADDAA199000691AY171999GF108991081061001501999999KA1999N-00111MD1310141+9999MW1681
0057124250999991928021412004+51133+016967FM-12+003799999V0202001N00261004501CN0020001N9+00281+00061100521ADDAY161999GF108991081061004501999999MD1810061+9999MW1611
0075124250999991928021506004+51133+016967FM-12+003799999V0202901N00461220001CN0100001N9+00221+00171999999ADDAA199002091AY111999GF104991041061008001001001KA1999N+00221MD1310401+9999
0051124250999991928021512004+51133+016967FM-12+003799999V0203401N00261007801CN0040001N9+00501-00111101871ADDAY121999GF108991081061008001999999MD1310261+9999
0075124250999991928021606004+51133+016967FM-12+003799999V0202901N00671030001CN0040001N9+00891+00831999999ADDAA199007091AY161999GF106991041061008001021001KA1999N+00111MD1310141+9999
0057124250999991928021612004+51133+016967FM-12+003799999V0202901N00931007801CN0100001N9+01111+00891101231ADDAY161999GF108991081061008001999999MD1810141+9999MW1601
0075124250999991928021706004+51133+016967FM-12+003799999V0202901N00671030001CN0100001N9+00891+00441999999ADDAA199000591AY111999GF106991041061012501021001KA1999N+00781MD1810061+9999
0070124250999991928021712004+51133+016967FM-12+003799999V0202501N012319999999N0100001N9+01001+00391100111ADDAY121999GF106991999061008001001001MD1710341+9999EQDQ01+000042SCOTLC
0094124250999991928021806004+51133+016967FM-12+003799999V0202901N015419999999N0040001N9+00221+00001999999ADDAA199003091AY111999GF106991999061008001001001KA1999N+00111MD1110141+9999EQDQ01+000042SCOTLC
0078124250999991928021812004+51133+016967FM-12+003799999V0202901N01541004501CN0040001N9+00281+00061101401ADDAY161999GF108991081061004501999999MW1211EQDQ01+000032APCTENQ02+000002APC3  
0102124250999991928021906004+51133+016967FM-12+003799999V0202901N00461002401CN0020001N9+00111+00061999999ADDAA199003091AY161999GF108991081061002501999999KA1999N+00001MW1631EQDQ01+000032APCTENQ02+000002APC3  
0057124250999991928021912004+51133+016967FM-12+003799999V0202901N01231002401CN0020001N9+00391+00331101711ADDAY161999GF108991081061002501999999MD1610141+9999MW1611
0075124250999991928022006004+51133+016967FM-12+003799999V0200201N00261002401CN0020001N9+00111+00061999999ADDAA199004091AY121999GF108991081061002501999999KA1999N+00111MD1310261+9999
0070124250999991928022012004+51133+016967FM-12+003799999V0203601N002619999999N0100001N9+00281-00111103231ADDAY111999GF108991999061004501001001MD1210261+9999EQDQ01+000042SCOTLC
0101124250999991928022106004+51133+016967FM-12+003799999V0203401N002619999999N0040001N9-00391-00721999999ADDAY121999GF108991999061008001001001KA1999N-00391EQDQ01+000042SCOTLCQ02+000042APCTENQ03+000062APC3  
0051124250999991928022112004+51133+016967FM-12+003799999V0203401N00101012301CN0020001N9-00281-00611103861ADDAY121999GF108991081051012501999999MD1810261+9999
0064124250999991928022206004+51133+016967FM-12+003799999V0200201N00101002401CN0040001N9-00221-00391999999ADDAY121999GF108991081061002501999999KA1999N-00281MD1010061+9999
0094124250999991928022212004+51133+016967FM-12+003799999V0203401N002619999999N0040001N9-00111-00441103271ADDAY171999GF107991999061012501001001MW1701EQDQ01+000042SCOTLCQ02+000032APCTENQ03+000002APC3  
0118124250999991928022306004+51133+016967FM-12+003799999V0209991C000019999999N0040001N9-00501-00671999999ADDAA199000691AY171999GF107991999051004501001001KA1999N-00721MW1701EQDQ01+000022SCOTLCQ02+000042APCTENQ03+000142APC3  
0070124250999991928022312004+51133+016967FM-12+003799999V0201401N001019999999N0040001N9-00281-00331103811ADDAY141999GF106991999051004501001001MD1310141+9999EQDQ01+000042SCOTLC
0070124250999991928022406004+51133+016967FM-12+003799999V0209991C00001220001CN0020001N9-00501-00671999999ADDAY141999GF102991999999012501999999KA1999N-00721MD1310141+9999MW1461
0072124250999991928022412004+51133+016967FM-12+003799999V0201101N00101220001CN0100001N9+00111-00111103791ADDAY101999GF102991021011012501001001EQDQ01+000082APCTENQ02+000002APC3  
0064124250999991928022506004+51133+016967FM-12+003799999V0201101N00101220001CN0040001N9-00721-00891999999ADDAY101999GF100991001001999999001001KA1999N-00781MD1310061+9999
0051124250999991928022512004+51133+016967FM-12+003799999V0201601N00261220001CN0040001N9+00111-00221104331ADDAY101999GF100991001001999999001001MD1990061+9999
0064124250999991928022606004+51133+016967FM-12+003799999V0200901N00101220001CN0020001N9-00611-00781999999ADDAY101999GF100991001001999999001001KA1999N-00721MD1810061+9999
0051124250999991928022612004+51133+016967FM-12+003799999V0202901N00101220001CN0200001N9+00611-00441103431ADDAY101999GF100991001001999999001001MD1810261+9999
0083124250999991928022706004+51133+016967FM-12+003799999V0200901N001019999999N0020001N9-00111-00171999999ADDAY141999GF108991999051004501001001KA1999N-00281MD1110061+9999EQDQ01+000042SCOTLC
0072124250999991928022712004+51133+016967FM-12+003799999V0201101N00101004501CN0020001N9+00111-00221103471ADDAY121999GF108991081061004501999999EQDQ01+000032APCTENQ02+000002APC3  
0064124250999991928022806004+51133+016967FM-12+003799999V0201101N00261012301CN0020001N9+00001-00221999999ADDAY121999GF107991071051012501001001KA1999N-00111MD1310061+9999
0072124250999991928022812004+51133+016967FM-12+003799999V0200901N00671220001CN0040001N9+00221-00331103351ADDAY111999GF104991041051012501031001EQDQ01+000082APCTENQ02+000002APC3  
0064124250999991928022906004+51133+016967FM-12+003799999V0201101N00671220001CN0040001N9-00111-00611999999ADDAY101999GF100991001001999999001001KA1999N-00891MD1990061+9999
0051124250999991928022912004+51133+016967FM-12+003799999V0201401N00461220001CN0040001N9+00281-00721103071ADDAY101999GF100991001001999999001001MD1990201+9999
