0057135860999991929010112004+41983+021467FM-12+024099999V0201801N00101220001CN0002001N9+00391+00331101191ADDAY141999GF104991041051002501021001MD1810061+9999MW1461
0051135860999991929010212004+41983+021467FM-12+024099999V0201401N00671220001CN0200001N9+01611+00941101261ADDAY101999GF104991011051017501021001MD1810141+9999
0029135860999991929010312004+41983+021467FM-12+024099999V0203601N00261007801CN9999999N9+00611+99999101331ADDGF108991081061008001999999
0051135860999991929010412004+41983+021467FM-12+024099999V0203201N00101007801CN0040001N9+00721+00671101661ADDAY121999GF108991081051008001999999MD1810141+9999
0051135860999991929010712004+41983+021467FM-12+024099999V0201601N00101012301CN0100001N9+00111-00111103101ADDAY121999GF107991071051012501001001MD1810061+9999
0051135860999991929010812004+41983+021467FM-12+024099999V0202701N00461004501CN0100001N9+00001-00331103001ADDAY111999GF108991081051004501999999MD1810201+9999
0070135860999991929010912004+41983+021467FM-12+024099999V0202701N00261220001CN0100001N9+00111-00611103871ADDAY101999GF102991999001999999021001MD1810141+9999EQDQ01+000002SCOTLC
0051135860999991929011012004+41983+021467FM-12+024099999V0209991C00001220001CN0200001N9-00111-00611104211ADDAY101999GF100991001001999999001001MD1810201+9999
0051135860999991929011112004+41983+021467FM-12+024099999V0209991C00001220001CN0100001N9+00001-00331103551ADDAY101999GF100991001001999999001001MD1810201+9999
0051135860999991929011212004+41983+021467FM-12+024099999V0201801N00101220001CN0100001N9+00001-00331102881ADDAY101999GF100991001001999999001001MD1810201+9999
0051135860999991929011412004+41983+021467FM-12+024099999V0202301N00101220001CN0020001N9+00391-00391101581ADDAY101999GF100991001001999999001001MD1810201+9999
0052135860999991929011512004+41983+021467FM-12+024099999V0202701N015419999999N0020001N9+00001-02111100791ADDAY181999MW1711EQDQ01+000082APCTENQ02+000002APC3  
0051135860999991929011612004+41983+021467FM-12+024099999V0209991C00001004501CN0040001N9+00111+00061100171ADDAY111999GF108991081051004501999999MD1810141+9999
0057135860999991929011712004+41983+021467FM-12+024099999V0202901N00261002401CN0020001N9-00501-00671100191ADDAY171999GF108991081061002501999999MD1010061+9999MW1701
0072135860999991929011812004+41983+021467FM-12+024099999V0200901N00101220001CN0200001N9-00391-01281102481ADDAY111999GF101991001001999999001081EQDQ01+000032APCTENQ02+000002APC3  
0070135860999991929011912004+41983+021467FM-12+024099999V0201401N00101220001CN0040001N9-00111-00441103441ADDAY111999GF106991999001999999031001MD1810061+9999EQDQ01+000002SCOTLC
0051135860999991929012112004+41983+021467FM-12+024099999V0203601N00101220001CN0100001N9+00111-00441103241ADDAY101999GF104991041051012501001001MD1810061+9999
0051135860999991929012212004+41983+021467FM-12+024099999V0209991C00001220001CN0100001N9-00221-01111103261ADDAY101999GF100991001001999999001001MD1810141+9999
0051135860999991929012312004+41983+021467FM-12+024099999V0201801N00101220001CN0020001N9-00391-00891102871ADDAY101999GF100991001001999999001001MD1810261+9999
0051135860999991929012412004+41983+021467FM-12+024099999V0209991C00001220001CN0040001N9-00221-00941102311ADDAY101999GF100991001001999999001001MD1810341+9999
0057135860999991929012512004+41983+021467FM-12+024099999V0203201N00101001501CN0020001N9-00221-00281101681ADDAY171999GF108991081061001501999999MD1610261+9999MW1711
0051135860999991929012612004+41983+021467FM-12+024099999V0203201N00101004501CN0020001N9+00281+00061100711ADDAY111999GF108991081051004501999999MD1810341+9999
0076135860999991929012812004+41983+021467FM-12+024099999V0209991C00001001501CN0040001N9+00221+00171101401ADDAY161999GF108991081061001501999999MD1810061+9999MW1511EQDQ01+002502WODIR 
0051135860999991929013012004+41983+021467FM-12+024099999V0203601N00101220001CN0040001N9+00111-00221102461ADDAY101999GF104991001001999999001081MD1610141+9999
0070135860999991929013112004+41983+021467FM-12+024099999V0209991C00001007801CN0040001N9+00001-00721102271ADDAY121999GF108991081051008001999999MD1810061+9999EQDQ01+003202WODIR 
0051135860999991929020112004+41983+021467FM-12+024099999V0202501N00101220001CN0200001N9-00501-01391102561ADDAY101999GF104991041051017501001001MD1810061+9999
0051135860999991929020712004+41983+021467FM-12+024099999V0209991C00001007801CN0040001N9-00221-00561102301ADDAY111999GF106991061051008001001001MD1810141+9999
0051135860999991929020812004+41983+021467FM-12+024099999V0200901N00101220001CN0200001N9-00781-01441103151ADDAY101999GF100991001001999999001001MD1810261+9999
0070135860999991929020912004+41983+021467FM-12+024099999V0209991C00001220001CN0200001N9-00721-01221101831ADDAY101999GF102991021051012501001001MD1810261+9999EQDQ01+003602WODIR 
0057135860999991929021112004+41983+021467FM-12+024099999V0201801N00101004501CN0020001N9-01111-01281101621ADDAY171999GF108991081061004501999999MD1810261+9999MW1701
0070135860999991929021212004+41983+021467FM-12+024099999V0209991C00001007801CN0040001N9-00611-00941101111ADDAY121999GF108991081051008001999999MD1810061+9999EQDQ01+001402WODIR 
0051135860999991929021312004+41983+021467FM-12+024099999V0209991C00001007801CN0020001N9-00391-00561100691ADDAY121999GF108991081051008001999999MD1810201+9999
0051135860999991929021612004+41983+021467FM-12+024099999V0201601N00101012301CN0040001N9+00281+00221100861ADDAY111999GF108991081051012501999999MD1110141+9999
0051135860999991929021912004+41983+021467FM-12+024099999V0202301N00101220001CN0200001N9+00001-00721102601ADDAY101999GF101991011011012501001001MD1810061+9999
0051135860999991929022112004+41983+021467FM-12+024099999V0203201N00101007801CN0020001N9-00611-01111102901ADDAY171999GF108991081051008001999999MD1010061+9999
0051135860999991929022212004+41983+021467FM-12+024099999V0202701N00261220001CN0500001N9-00611-01501103061ADDAY101999GF100991001001999999001001MD1810201+9999
0051135860999991929022512004+41983+021467FM-12+024099999V0203201N00101220001CN0040001N9+00611-00441101731ADDAY101999GF104991041051012501001001MD1810141+9999
0070135860999991929022612004+41983+021467FM-12+024099999V0209991C00001007801CN0100001N9+00281-00111101941ADDAY121999GF108991081051008001999999MD1810201+9999EQDQ01+001802WODIR 
0070135860999991929022712004+41983+021467FM-12+024099999V0209991C00001220001CN0200001N9+00611+00001100961ADDAY111999GF108991999001999999021001MD1810341+9999EQDQ01+000002SCOTLC
0057135860999991929030112004+41983+021467FM-12+024099999V0202901N00261004501CN0010001N9-00221-00391102111ADDAY121999GF108991081061004501999999MD1110141+9999MW1711
0051135860999991929030212004+41983+021467FM-12+024099999V0201801N00101012301CN0100001N9-00221-00391103171ADDAY121999GF107991071051012501001001MD1810141+9999
0051135860999991929030412004+41983+021467FM-12+024099999V0209991C00001220001CN0040001N9+00001-00721101791ADDAY141999GF100991001001999999001001MD1810141+9999
0078135860999991929030512004+41983+021467FM-12+024099999V0209991C00001007801CN0020001N9+00221-00171101011ADDAY171999GF108991081061008001999999MW1711EQDQ01+000032APCTENQ02+000002APC3  
0051135860999991929030612004+41983+021467FM-12+024099999V0202701N00461007801CN0040001N9-00111-00441101171ADDAY171999GF108991081051008001999999MD1010001+9999
0051135860999991929030712004+41983+021467FM-12+024099999V0209991C00001007801CN0100001N9+00281-00281101941ADDAY111999GF107991071051008001001001MD1010001+9999
0051135860999991929031112004+41983+021467FM-12+024099999V0201401N00101007801CN0100001N9+00391-00171102151ADDAY111999GF107991071051008001001001MD1810141+9999
0029135860999991929031312004+41983+021467FM-12+024099999V0201801N00101220001CN9999999N9+00721+99999102391ADDGF100991001001999999001001
0051135860999991929031412004+41983+021467FM-12+024099999V0201601N00101220001CN0100001N9+00891+00061102301ADDAY141999GF101991011051012501001001MD1810061+9999
0051135860999991929031812004+41983+021467FM-12+024099999V0202701N00101220001CN0200001N9+01001-00391102771ADDAY101999GF100991001001999999001001MD1810141+9999
0051135860999991929031912004+41983+021467FM-12+024099999V0201601N00101220001CN0200001N9+01221+00061102691ADDAY101999GF102991001001999999001021MD1810141+9999
0051135860999991929032012004+41983+021467FM-12+024099999V0203601N00101220001CN0200001N9+01221-00221102781ADDAY101999GF102991021011012501001001MD1810141+9999
0051135860999991929032112004+41983+021467FM-12+024099999V0200901N00101220001CN0200001N9+01281+00111102641ADDAY141999GF101991011011012501001001MD1810141+9999
0051135860999991929032212004+41983+021467FM-12+024099999V0202901N00101220001CN0200001N9+01111+00221102531ADDAY111999GF104991021011012501001081MD1810141+9999
0051135860999991929032512004+41983+021467FM-12+024099999V0209991C00001220001CN0200001N9+01501-00061102421ADDAY101999GF101991011011017501001001MD1810141+9999
0051135860999991929032612004+41983+021467FM-12+024099999V0201601N00101220001CN0200001N9+01501-00061102501ADDAY101999GF106991001001999999001081MD1810201+9999
0070135860999991929032712004+41983+021467FM-12+024099999V0201601N00101220001CN0200001N9+01281+00391102271ADDAY141999GF108991999001999999021001MD1810141+9999EQDQ01+000002SCOTLC
0051135860999991929032812004+41983+021467FM-12+024099999V0201401N00261090001CN0100001N9+00891+00671102161ADDAY161999GF108991041051004501001081MD1610061+9999
0051135860999991929032912004+41983+021467FM-12+024099999V0202301N00261220001CN0200001N9+01611+00441101681ADDAY101999GF101991011011012501001001MD1810201+9999
0051135860999991929033012004+41983+021467FM-12+024099999V0203601N00461021001CN0200001N9+01611+00441101091ADDAY111999GF107991071051022501001001MD1810201+9999
0051135860999991929040212004+41983+021467FM-12+024099999V0209991C00001036001CN0200001N9+01391+00721099981ADDAY111999GF106991041051012501021001MD1810201+9999
0051135860999991929040312004+41983+021467FM-12+024099999V0202701N01231012301CN0200001N9+01781+00561099661ADDAY111999GF107991071051012501001001MD1810061+9999
0057135860999991929040412004+41983+021467FM-12+024099999V0203201N00101007801CN0100001N9+00501+00281100671ADDAY161999GF108991081061008001999999MD1810061+9999MW1831
0051135860999991929040512004+41983+021467FM-12+024099999V0203201N00261004501CN0200001N9+00611+00001100911ADDAY111999GF106991061051004501001001MD1310141+9999
0051135860999991929040612004+41983+021467FM-12+024099999V0203201N00261007801CN0200001N9+00721-00111101011ADDAY111999GF108991081051008001999999MD1810141+9999
0072135860999991929040812004+41983+021467FM-12+024099999V0203201N00261015001CN0200001N9+00721+00111101321ADDAY111999GF107991071051017501001001EQDQ01+000032APCTENQ02+000002APC3  
0072135860999991929040912004+41983+021467FM-12+024099999V0203601N00261220001CN0200001N9+01001-00391101991ADDAY111999GF104991041051012501001001EQDQ01+000032APCTENQ02+000002APC3  
0051135860999991929041012004+41983+021467FM-12+024099999V0203201N00101220001CN0200001N9+01281+00111102131ADDAY111999GF106991001001999999001081MD1810201+9999
0051135860999991929041112004+41983+021467FM-12+024099999V0200901N00101036001CN0200001N9+01391+00501102001ADDAY111999GF107991041051012501021001MD1610261+9999
0051135860999991929041212004+41983+021467FM-12+024099999V0201401N00101007801CN0200001N9+01221-00221101911ADDAY121999GF108991081051008001999999MD1010061+9999
0051135860999991929041312004+41983+021467FM-12+024099999V0201401N00101220001CN0200001N9+01781+00561101591ADDAY101999GF102991021011012501001001MD1810141+9999
0051135860999991929041512004+41983+021467FM-12+024099999V0200501N00101012301CN0040001N9+01891+00331100961ADDAY111999GF107991071051012501001001MD1810141+9999
0057135860999991929041712004+41983+021467FM-12+024099999V0203201N00461007801CN0040001N9+00611+00391101411ADDAY161999GF108991081061008001999999MD1310201+9999MW1511
0072135860999991929041812004+41983+021467FM-12+024099999V0200701N00101090001CN0040001N9+00721-00111103071ADDAY111999GF106991041011012501001081EQDQ01+000082APCTENQ02+000002APC3  
0051135860999991929042012004+41983+021467FM-12+024099999V0209991C00001220001CN0200001N9+02001-00061101391ADDAY101999GF101991001001999999001081MD1810141+9999
0051135860999991929042212004+41983+021467FM-12+024099999V0201401N00101036001CN0200001N9+01781+00561100831ADDAY121999GF106991021051012501021001MD1810201+9999
0051135860999991929042312004+41983+021467FM-12+024099999V0201401N00261012301CN0100001N9+01891+00941100041ADDAY111999GF108991081051012501999999MD1810201+9999
0051135860999991929042412004+41983+021467FM-12+024099999V0209991C00001036001CN0100001N9+01781+01111100461ADDAY111999GF106991041011008001021001MD1810061+9999
0051135860999991929042512004+41983+021467FM-12+024099999V0203401N00101012301CN0200001N9+01501+00831101091ADDAY121999GF106991061051012501001001MD1810061+9999
0051135860999991929042612004+41983+021467FM-12+024099999V0201401N00101220001CN0040001N9+01891+01611101791ADDAY101999GF102991021051012501001001MD1810201+9999
0051135860999991929042712004+41983+021467FM-12+024099999V0202701N00461220001CN0200001N9+02001+01331100901ADDAY111999GF104991041051012501001001MD1810141+9999
0051135860999991929043012004+41983+021467FM-12+024099999V0201601N00261220001CN0200001N9+02611+01331101071ADDAY101999GF104991001001999999001081MD1810261+9999
0072135860999991929060112004+41983+021467FM-12+024099999V0203201N00261220001CN0040001N9+02281+00671101231ADDAY101999GF104991041011012501001001EQDQ01+000062APCTENQ02+000002APC3  
0051135860999991929060312004+41983+021467FM-12+024099999V0201401N00101012301CN0100001N9+02391+01111101571ADDAY121999GF106991061051012501001001MD1810261+9999
0051135860999991929060512004+41983+021467FM-12+024099999V0202701N00461090001CN0200001N9+02721+00561100311ADDAY121999GF106991041051012501001081MD1810201+9999
0051135860999991929060612004+41983+021467FM-12+024099999V0209991C00001012301CN0200001N9+02221+01281100271ADDAY111999GF106991061051012501001001MD1810061+9999
0051135860999991929061012004+41983+021467FM-12+024099999V0201401N00101220001CN0200001N9+03221+01501101411ADDAY101999GF101991011011008001001001MD1810141+9999
0051135860999991929061112004+41983+021467FM-12+024099999V0200501N00101090001CN0200001N9+03281+01561101471ADDAY101999GF106991021011012501001081MD1810201+9999
0051135860999991929061312004+41983+021467FM-12+024099999V0200901N00261220001CN0100001N9+02721+00561101951ADDAY101999GF100991001001999999001001MD1810141+9999
0051135860999991929061712004+41983+021467FM-12+024099999V0209991C00001007801CN0040001N9+02221+01781101671ADDAY121999GF108991081051008001999999MD1810061+9999
0051135860999991929061812004+41983+021467FM-12+024099999V0201801N00101012301CN0020001N9+02501+01561101581ADDAY121999GF106991061091012501001001MD1810061+9999
0051135860999991929061912004+41983+021467FM-12+024099999V0201401N00101036001CN0020001N9+02721+01441101761ADDAY121999GF106991011011012501021001MD1810141+9999
0072135860999991929062512004+41983+021467FM-12+024099999V0201401N01541220001CN0200001N9+02221+01561100931ADDAY101999GF101991001001999999001081EQDQ01+000032APCTENQ02+000002APC3  
0051135860999991929062612004+41983+021467FM-12+024099999V0200901N00261090001CN0200001N9+02781+01111100841ADDAY111999GF106991021011012501001081MD1810141+9999
0051135860999991929062712004+41983+021467FM-12+024099999V0201401N00101220001CN0200001N9+03111+99999100821ADDAY111999GF104991021051008001001081MD1810201+9999
