0072135860999991928010612004+41983+021467FM-12+024099999V0209991C00001004501CN0005001N9+00111+00061102271ADDAY121999GF108991081051004501999999EQDQ01+000032APCTENQ02+000002APC3  
0072135860999991928010712004+41983+021467FM-12+024099999V0209991C00001004501CN0005001N9+00281+00061101231ADDAY121999GF108991081051004501999999EQDQ01+000032APCTENQ02+000002APC3  
0051135860999991928011312004+41983+021467FM-12+024099999V0209991C00001004501CN0020001N9+00281-00111102021ADDAY111999GF108991081051004501999999MD1810141+9999
0051135860999991928011412004+41983+021467FM-12+024099999V0209991C00001004501CN0005001N9+00721+00671101511ADDAY121999GF108991081051004501999999MD1810141+9999
0072135860999991928011512004+41983+021467FM-12+024099999V0209991C00001220001CN0200001N9+01001+00111101681ADDAY101999GF104991041051012501001001EQDQ01+000032APCTENQ02+000002APC3  
0078135860999991928011812004+41983+021467FM-12+024099999V0209991C00001004501CN0002001N9+00501+00441101061ADDAY121999GF108991081061004501999999MW1531EQDQ01+000082APCTENQ02+000002APC3  
0072135860999991928012112004+41983+021467FM-12+024099999V0209991C00001007801CN0020001N9+00501+00281102591ADDAY181999GF108991081051008001999999EQDQ01+000082APCTENQ02+000002APC3  
0051135860999991928012212004+41983+021467FM-12+024099999V0209991C00001007801CN0020001N9+00391+00171102231ADDAY121999GF108991081051008001999999MD1810141+9999
0051135860999991928012612004+41983+021467FM-12+024099999V0209991C00001007801CN0010001N9+00391+00331103401ADDAY141999GF108991081051008001999999MD1810061+9999
0051135860999991928012712004+41983+021467FM-12+024099999V0209991C00001004501CN0010001N9+00391+00331102871ADDAY111999GF108991081051004501999999MD1810141+9999
0051135860999991928021212004+41983+021467FM-12+024099999V0209991C00001007801CN0200001N9+00891+00281100121ADDAY111999GF106991061051008001001001MD1810141+9999
0051135860999991928021412004+41983+021467FM-12+024099999V0209991C00001012301CN0020001N9+00611+00001101241ADDAY121999GF108991081051012501999999MD1310061+9999
0051135860999991928021512004+41983+021467FM-12+024099999V0209991C00001004501CN0020001N9+00721+00501101311ADDAY121999GF108991081061004501999999MD1810061+9999
0051135860999991928021612004+41983+021467FM-12+024099999V0209991C00001012301CN0040001N9+00721+00331102551ADDAY111999GF108991081051012501999999MD1810061+9999
0051135860999991928021712004+41983+021467FM-12+024099999V0209991C00001220001CN0200001N9+01221+00331101731ADDAY101999GF104991999051012501001001MD1810061+9999
0088135860999991928021812004+41983+021467FM-12+024099999V0203201N002619999999N0100001N9+00781-00281102041ADDAY121999GF106991999011012501001001EQDQ01+000042SCOTLCQ02+000082APCTENQ03+000002APC3  
0051135860999991928022012004+41983+021467FM-12+024099999V0203201N00101220001CN0200001N9+01111+00001102151ADDAY111999GF104991041051012501001001MD1810141+9999
0070135860999991928022212004+41983+021467FM-12+024099999V0200901N00101220001CN0100001N9+00221-00721102291ADDAY111999GF108991999001999999021001MD1810261+9999EQDQ01+000002SCOTLC
0051135860999991928022512004+41983+021467FM-12+024099999V0203601N00261004501CN0020001N9-00111-01061103441ADDAY111999GF108991081051004501999999MD1810061+9999
0051135860999991928022612004+41983+021467FM-12+024099999V0203201N00461220001CN0200001N9+00221-01061103331ADDAY101999GF100991001001999999001001MD1810261+9999
0051135860999991928022712004+41983+021467FM-12+024099999V0203601N002619999999N0100001N9+01891+00671102381ADDAY111999GF106991999999002501999999MD1810061+9999
0051135860999991928022812004+41983+021467FM-12+024099999V0200901N00101007801CN0020001N9+00501-00281102841ADDAY121999GF108991081051008001999999MD1810061+9999
0051135860999991928022912004+41983+021467FM-12+024099999V0200501N00101220001CN0040001N9+00501-00281103111ADDAY121999GF102991021051012501001001MD1810061+9999
0051135860999991928030212004+41983+021467FM-12+024099999V0209991C00001220001CN0040001N9+00781-00061103331ADDAY111999GF104991041051012501001001MD1810061+9999
0051135860999991928030312004+41983+021467FM-12+024099999V0209991C00001012301CN0040001N9+00781-00061102991ADDAY121999GF106991061051012501001001MD1810061+9999
0051135860999991928030412004+41983+021467FM-12+024099999V0209991C00001012301CN0200001N9+01111+00221102591ADDAY121999GF106991061051012501001001MD1810061+9999
0072135860999991928030612004+41983+021467FM-12+024099999V0209991C00001004501CN0040001N9+01001+00391102301ADDAY121999GF108991081051004501999999EQDQ01+000022APCTENQ02+000002APC3  
0051135860999991928030712004+41983+021467FM-12+024099999V0201401N00101220001CN0100001N9+01111+00501101911ADDAY101999GF104991041051012501001001MD1810141+9999
0051135860999991928030812004+41983+021467FM-12+024099999V0209991C00001220001CN9999999N9+99999+99999101171ADDAY181999GF100991001001999999001001MD1010261+9999
0051135860999991928030912004+41983+021467FM-12+024099999V0209991C00001220001CN0200001N9+01391+99999101001ADDAY101999GF102991021051012501001001MD1810061+9999
0051135860999991928031012004+41983+021467FM-12+024099999V0209991C00001220001CN0100001N9+01501+00331101101ADDAY111999GF104991021011012501021001MD1810141+9999
0078135860999991928031412004+41983+021467FM-12+024099999V0209991C00001007801CN0040001N9+01001+00781101271ADDAY121999GF108991081051008001999999MW1211EQDQ01+000082APCTENQ02+000002APC3  
0078135860999991928031612004+41983+021467FM-12+024099999V0202901N00261002401CN0010001N9+00111+00061102461ADDAY111999GF108991081061002501999999MW1731EQDQ01+000032APCTENQ02+000002APC3  
0051135860999991928031812004+41983+021467FM-12+024099999V0200901N00261007801CN0100001N9+00281-00281102931ADDAY121999GF108991081051008001999999MD1810061+9999
0057135860999991928032712004+41983+021467FM-12+024099999V0201801N00261004501CN0020001N9+01111+00671100661ADDAY161999GF108991081061004501999999MD1810061+9999MW1531
0051135860999991928050212004+41983+021467FM-12+024099999V0209991C00001220001CN0200001N9+02111+00891100551ADDAY101999GF104991041011012501001001MD1810141+9999
0051135860999991928051112004+41983+021467FM-12+024099999V0209991C00001012301CN0100001N9+02001+01061101141ADDAY111999GF107991071051012501001001MD1810061+9999
0051135860999991928051412004+41983+021467FM-12+024099999V0209991C00001220001CN0200001N9+01781+00891101441ADDAY101999GF102991021051012501001001MD1810061+9999
0070135860999991928051512004+41983+021467FM-12+024099999V0201401N00261220001CN0100001N9+02001+01061101371ADDAY111999GF108991999001999999021001MD1810201+9999EQDQ01+000002SCOTLC
0070135860999991928051612004+41983+021467FM-12+024099999V0201401N00261220001CN0100001N9+02111+01171100551ADDAY111999GF108991999001999999021001MD1510141+9999EQDQ01+000002SCOTLC
0072135860999991928051712004+41983+021467FM-12+024099999V0200901N00261220001CN0200001N9+02281+01061100711ADDAY101999GF104991041051012501001001EQDQ01+000032APCTENQ02+000002APC3  
0051135860999991928052612004+41983+021467FM-12+024099999V0209991C00001007801CN0100001N9+01611+00721101241ADDAY121999GF108991081051008001999999MD1810061+9999
0051135860999991928052812004+41983+021467FM-12+024099999V0201401N00101012301CN0100001N9+01721+00501101581ADDAY111999GF106991061051012501001001MD1810141+9999
0057135860999991928052912004+41983+021467FM-12+024099999V0202301N00261004501CN0100001N9+01391+00501101431ADDAY121999GF108991081061004501999999MD1310141+9999MW1601
0051135860999991928053112004+41983+021467FM-12+024099999V0209991C00001220001CN0200001N9+02281+00671101321ADDAY111999GF102991021051017501001001MD1810201+9999
0051135860999991928060112004+41983+021467FM-12+024099999V0209991C00001220001CN0200001N9+02501+01561100961ADDAY111999GF104991041051012501001001MD1810141+9999
0072135860999991928060212004+41983+021467FM-12+024099999V0209991C00001012301CN0200001N9-02282-02892101441ADDAY121999GF108991081051012501999999EQDQ01+000032APCTENQ02+000002APC3  
0043135860999991928060412004+41983+021467FM-12+024099999V0201401N00101220001CN9999999N9+02281+01831101991ADDGF102991021051012501001001MD1810061+9999
0070135860999991928060512004+41983+021467FM-12+024099999V0209991C00001024001CN0100001N9+02501+01561101701ADDAY121999GF108991081051999999999999MD1810061+9999EQDQ01+000992SCOLCB
0070135860999991928060612004+41983+021467FM-12+024099999V0209991C00001001501CN0200001N9+02891+01561101441ADDAY111999GF106991061011001501001001MD1810061+9999EQDQ01+000462PRSWM1
0051135860999991928061112004+41983+021467FM-12+024099999V0209991C00001220001CN0200001N9+03391+01611101221ADDAY101999GF100991001001999999001001MD1810061+9999
0078135860999991928061212004+41983+021467FM-12+024099999V0203601N02261220001CN0200001N9+03281+01941101011ADDAY191999GF102991021061012501001001MW1961EQDQ01+000082APCTENQ02+000002APC3  
0051135860999991928061412004+41983+021467FM-12+024099999V0200901N00261220001CN0200001N9+02721+01441102021ADDAY101999GF102991021061012501001001MD1810201+9999
0072135860999991928061612004+41983+021467FM-12+024099999V0203601N00101220001CN0200001N9+03001+01281100931ADDAY101999GF100991001001999999001001EQDQ01+000082APCTENQ02+000002APC3  
0051135860999991928061812004+41983+021467FM-12+024099999V0203601N00101012301CN0100001N9+01781+00561999999ADDAY121999GF108991081051012501999999MD1310061+9999
0051135860999991928061912004+41983+021467FM-12+024099999V0200901N00101220001CN0200001N9+02281+00171101721ADDAY101999GF100991001001999999001001MD1810061+9999
0051135860999991928062012004+41983+021467FM-12+024099999V0209991C00001007801CN0100001N9+02281+01061101371ADDAY121999GF108991081051008001999999MD1810061+9999
0070135860999991928062312004+41983+021467FM-12+024099999V0202701N00101220001CN0200001N9+02391+01111102041ADDAY101999GF102991021051999999001001MD1610061+9999EQDQ01+000992SCOLCB
0051135860999991928062512004+41983+021467FM-12+024099999V0209991C00001220001CN0200001N9+03001+01671101631ADDAY101999GF102991021051012501001001MD1810061+9999
0051135860999991928062612004+41983+021467FM-12+024099999V0209991C00001220001CN0200001N9+03391+01111101731ADDAY101999GF104991041051012501001001MD1610061+9999
0051135860999991928062712004+41983+021467FM-12+024099999V0200501N00261220001CN0100001N9+03501+02111101281ADDAY101999GF102991021051012501001001MD1810141+9999
0051135860999991928062912004+41983+021467FM-12+024099999V0203201N00101220001CN0200001N9+02611+01331102081ADDAY111999GF104991041051012501001001MD1810141+9999
0029135860999991928063012004+41983+021467FM-12+024099999V0209991C00001220001CN0000501N9+02891+01561102071ADDGF104991999999999999001001
0051135860999991928070212004+41983+021467FM-12+024099999V0209991C00001220001CN0200001N9+03111+01391101761ADDAY101999GF102991021051012501001001MD1810061+9999
0051135860999991928070412004+41983+021467FM-12+024099999V0200901N00101220001CN0200001N9+03281+01001101551ADDAY101999GF100991001001999999001001MD1810141+9999
0088135860999991928070512004+41983+021467FM-12+024099999V0209991C00001220001CN0200001N9+03281+01561101801ADDAY101999GF104991041051012501001001EQDQ01+003202WODIR Q02+000032APCTENQ03+000002APC3  
0051135860999991928070912004+41983+021467FM-12+024099999V0209991C00001220001CN0200001N9+02891+01221101591ADDAY101999GF100991001001999999001001MD1810141+9999
0051135860999991928071012004+41983+021467FM-12+024099999V0209991C00001012301CN0200001N9+03111+02111101841ADDAY121999GF106991061051012501001001MD1810061+9999
0051135860999991928071112004+41983+021467FM-12+024099999V0209991C00001012301CN0200001N9+03111+00891101931ADDAY111999GF106991061051012501001001MD1810141+9999
0051135860999991928071212004+41983+021467FM-12+024099999V0209991C00001220001CN0200001N9+03111+00171101991ADDAY101999GF104991041051012501001001MD1810141+9999
0051135860999991928071312004+41983+021467FM-12+024099999V0209991C00001012301CN0200001N9+03111+00891101841ADDAY101999GF106991061051012501001001MD1810061+9999
0051135860999991928071712004+41983+021467FM-12+024099999V0201401N00101220001CN0200001N9+03501+01721101731ADDAY101999GF100991001001999999001001MD1810061+9999
0051135860999991928071812004+41983+021467FM-12+024099999V0209991C00001220001CN0200001N9+03501+01221101311ADDAY101999GF104991041051012501001001MD1810061+9999
0051135860999991928072012004+41983+021467FM-12+024099999V0209991C00001220001CN0500001N9+03281+01941101301ADDAY101999GF102991021051012501001001MD1810061+9999
0051135860999991928072112004+41983+021467FM-12+024099999V0202701N00101007801CN0100001N9+03221+01501101671ADDAY111999GF108991081051008001999999MD1810061+9999
0051135860999991928072412004+41983+021467FM-12+024099999V0209991C00001220001CN0100001N9+03611+01831101201ADDAY101999GF102991021011012501001001MD1810141+9999
0051135860999991928072512004+41983+021467FM-12+024099999V0203601N00931220001CN0200001N9+03281+01561101271ADDAY101999GF102991021011012501001001MD1810141+9999
0051135860999991928072612004+41983+021467FM-12+024099999V0209991C00001012301CN0100001N9+03221+01501101541ADDAY111999GF106991061051012501001001MD1810141+9999
0051135860999991928072712004+41983+021467FM-12+024099999V0209991C00001220001CN0200001N9+03281+01001101671ADDAY101999GF100991001001999999001001MD1810141+9999
0043135860999991928072812004+41983+021467FM-12+024099999V0209991C00001220001CN0200001N9+03391+01611101101ADDGF100991001001999999001001MD1810201+9999
0051135860999991928073012004+41983+021467FM-12+024099999V0203201N00101220001CN0200001N9+03611+01281101471ADDAY101999GF100991001001999999001001MD1810061+9999
0051135860999991928080112004+41983+021467FM-12+024099999V0209991C00001220001CN0040001N9+03501+01721101761ADDAY101999GF100991001001999999001001MD1810261+9999
0072135860999991928080312004+41983+021467FM-12+024099999V0202701N00101220001CN0200001N9+99999+99999101841ADDAY141999GF100991001001999999001001EQDQ01+000082APCTENQ02+000002APC3  
0051135860999991928080612004+41983+021467FM-12+024099999V0209991C00001220001CN0200001N9+03781+02001100991ADDAY101999GF102991021011012501001001MD1810261+9999
0072135860999991928080712004+41983+021467FM-12+024099999V0203201N00461220001CN0200001N9+02281+01331101771ADDAY111999GF104991041051012501001001EQDQ01+000082APCTENQ02+000002APC3  
0051135860999991928080812004+41983+021467FM-12+024099999V0203601N00101220001CN0200001N9+02501+00391101761ADDAY101999GF100991001001999999001001MD1810141+9999
0051135860999991928081012004+41983+021467FM-12+024099999V0209991C00001220001CN0200001N9+03221+00941101841ADDAY101999GF100991001001999999001001MD1810201+9999
0051135860999991928081112004+41983+021467FM-12+024099999V0200901N00101220001CN0200001N9+03281+01001101411ADDAY101999GF102991021051012501001001MD1810141+9999
0051135860999991928081312004+41983+021467FM-12+024099999V0209991C00001220001CN0200001N9+03501+01721101541ADDAY101999GF100991001001999999001001MD1810061+9999
0051135860999991928081412004+41983+021467FM-12+024099999V0209991C00001220001CN9999999N9+03611+99999101681ADDAY101999GF100991001001999999001001MD1810061+9999
0051135860999991928081512004+41983+021467FM-12+024099999V0209991C00001220001CN0040001N9+03721+01391101581ADDAY101999GF100991001001999999001001MD1810061+9999
0051135860999991928081712004+41983+021467FM-12+024099999V0201801N00261220001CN0200001N9+03611+01831101101ADDAY101999GF100991001001999999001001MD1810141+9999
0051135860999991928082212004+41983+021467FM-12+024099999V0201401N001019999999N0100001N9+03611+02831101201ADDAY101999GF106991999999000251999999MD1810141+9999
0051135860999991928082512004+41983+021467FM-12+024099999V0200201N00261220001CN0200001N9+03111+01391999999ADDAY101999GF102991021051012501001001MD1810141+9999
0037135860999991928083012004+41983+021467FM-12+024099999V0201401N00101220001CN0200001N9+03721+01941101231ADDAY101999GF100991001001999999001001
0072135860999991928083112004+41983+021467FM-12+024099999V0202701N00461012301CN0200001N9+02781+01781101261ADDAY111999GF106991061051012501001001EQDQ01+000032APCTENQ02+000002APC3  
0051135860999991928090112004+41983+021467FM-12+024099999V0209991C00001220001CN0200001N9+02501+01221101621ADDAY111999GF100991001001999999001001MD1810061+9999
0051135860999991928090512004+41983+021467FM-12+024099999V0209991C00001220001CN0200001N9+02501+01221102471ADDAY111999GF104991041011017501001001MD1810141+9999
0051135860999991928090612004+41983+021467FM-12+024099999V0200901N00261220001CN0100001N9+02781+01111102301ADDAY101999GF101991011011008001001001MD1810201+9999
0051135860999991928090712004+41983+021467FM-12+024099999V0209991C00001220001CN0100001N9+02891+00721102271ADDAY101999GF100991001001999999001001MD1810201+9999
0051135860999991928091312004+41983+021467FM-12+024099999V0201601N00101220001CN0200001N9+03111+01391101601ADDAY101999GF102991021011008001001001MD1810141+9999
0070135860999991928091512004+41983+021467FM-12+024099999V0209991C00001220001CN0100001N9+03111+01391101731ADDAY101999GF102991021051008001001001MD1810201+9999EQDQ01+000902WODIR 
0051135860999991928091812004+41983+021467FM-12+024099999V0201401N00461012301CN0100001N9+03111+01391101861ADDAY111999GF106991061051012501001001MD1810141+9999
0051135860999991928091912004+41983+021467FM-12+024099999V0200701N00101220001CN0200001N9+03111+01391101841ADDAY101999GF100991001001999999001001MD1810261+9999
0088135860999991928092412004+41983+021467FM-12+024099999V0202301N00671220001CN0100001N9+02721+01061100591ADDAY111999GF104991999001999999031001EQDQ01+000002SCOTLCQ02+000032APCTENQ03+000002APC3  
0078135860999991928092712004+41983+021467FM-12+024099999V0201101N00101004501CN0040001N9+02111+01831101461ADDAY161999GF108991081061004501999999MW1501EQDQ01+000032APCTENQ02+000002APC3  
0051135860999991928092812004+41983+021467FM-12+024099999V0202301N00101012301CN0100001N9+02001+01331101581ADDAY111999GF107991071051012501001001MD1810141+9999
0051135860999991928092912004+41983+021467FM-12+024099999V0203201N00101007801CN0200001N9+02611+01611101271ADDAY111999GF106991061051008001001001MD1810201+9999
0051135860999991928100212004+41983+021467FM-12+024099999V0201401N00101220001CN0100001N9+01721+00501101911ADDAY101999GF100991001001999999001001MD1810141+9999
0051135860999991928100312004+41983+021467FM-12+024099999V0200501N00101220001CN0100001N9+01891+00331101981ADDAY111999GF104991041051012501001001MD1810141+9999
0051135860999991928100412004+41983+021467FM-12+024099999V0200901N00101220001CN0100001N9+01721+00501102661ADDAY111999GF104991021051012501001091MD1810261+9999
0051135860999991928100612004+41983+021467FM-12+024099999V0200901N00261004501CN0040001N9+01611+01171102771ADDAY121999GF108991081051004501999999MD1810061+9999
0070135860999991928100812004+41983+021467FM-12+024099999V0203201N00101220001CN0040001N9+01391+00721101971ADDAY111999GF108991999001999999021001MD1810141+9999EQDQ01+000002SCOTLC
0051135860999991928100912004+41983+021467FM-12+024099999V0202301N00101220001CN0100001N9+01891+01831102061ADDAY101999GF104991041061004501001001MD1810201+9999
0070135860999991928101112004+41983+021467FM-12+024099999V0209991C00001012301CN0100001N9+02001+01061101171ADDAY111999GF108991081051012501999999MD1810141+9999EQDQ01+002702WODIR 
0070135860999991928101212004+41983+021467FM-12+024099999V0209991C00001220001CN0100001N9+02001+00781101441ADDAY101999GF100991001001999999001001MD1810261+9999EQDQ01+001402WODIR 
0043135860999991928101512004+41983+021467FM-12+024099999V0200901N00101007801CN0200001N9+00781+00391101501ADDGF107991071051008001001001MD1110061+9999
0064135860999991928101612004+41983+021467FM-12+024099999V0201401N00101012301CN0040001N9+00891+00441102901ADDGF107991071051012501001001EQDQ01+000012APCTENQ02+000002APC3  
0043135860999991928101712004+41983+021467FM-12+024099999V0201401N00101220001CN0100001N9+01281+00111103171ADDGF100991001001999999001001MD1810141+9999
0070135860999991928101812004+41983+021467FM-12+024099999V0209991C00001220001CN0100001N9+01501+00831102731ADDAY111999GF104991999001999999031001MD1810341+9999EQDQ01+000002SCOTLC
0043135860999991928101912004+41983+021467FM-12+024099999V0209991C00001220001CN0200001N9+01781+00221101811ADDGF101991001001999999001081MD1810261+9999
0051135860999991928102012004+41983+021467FM-12+024099999V0209991C00001220001CN0100001N9+02221+00611102241ADDAY101999GF100991001001999999001001MD1810201+9999
0051135860999991928102212004+41983+021467FM-12+024099999V0209991C00001220001CN0200001N9+02001+00391102021ADDAY101999GF102991001001999999001081MD1810261+9999
0051135860999991928102412004+41983+021467FM-12+024099999V0200501N00101220001CN0100001N9+01891+00941102031ADDAY111999GF102991001001999999001021MD1810201+9999
0051135860999991928102512004+41983+021467FM-12+024099999V0209991C00001220001CN0200001N9+01891+00671102071ADDAY101999GF102991001001999999001081MD1810261+9999
0051135860999991928102612004+41983+021467FM-12+024099999V0209991C00001220001CN0100001N9+01891+00941101701ADDAY101999GF100991001001999999001001MD1810341+9999
0070135860999991928102712004+41983+021467FM-12+024099999V0201401N00101220001CN0100001N9+01781+01111101361ADDAY111999GF102991999001999999031001MD1810201+9999EQDQ01+000002SCOTLC
0051135860999991928102912004+41983+021467FM-12+024099999V0209991C00001220001CN0100001N9+02001+01061101861ADDAY101999GF100991001001999999001001MD1810201+9999
0070135860999991928103012004+41983+021467FM-12+024099999V0209991C00001220001CN0100001N9+02111+01171101971ADDAY111999GF104991999001999999021001MD1810201+9999EQDQ01+000002SCOTLC
0051135860999991928103112004+41983+021467FM-12+024099999V0209991C00001220001CN0100001N9+02391+01111101761ADDAY101999GF101991011011012501001001MD1810061+9999
0070135860999991928110112004+41983+021467FM-12+024099999V0201401N00101220001CN0100001N9+02221+01001101641ADDAY101999GF104991999001999999031001MD1810261+9999EQDQ01+000002SCOTLC
0051135860999991928110312004+41983+021467FM-12+024099999V0200901N00101220001CN0100001N9+02001+01061101541ADDAY101999GF102991001001999999001021MD1810261+9999
0051135860999991928110512004+41983+021467FM-12+024099999V0209991C00001090001CN0200001N9+01611+00721101571ADDAY111999GF106991021051008001001081MD1810201+9999
0051135860999991928110712004+41983+021467FM-12+024099999V0201401N00101220001CN0200001N9+01781+00561101571ADDAY101999GF104991001001999999001081MD1810341+9999
0051135860999991928110912004+41983+021467FM-12+024099999V0209991C00001004501CN0040001N9+01391+01331100831ADDAY121999GF108991081061004501999999MD1810061+9999
0072135860999991928111212004+41983+021467FM-12+024099999V0202901N00261007801CN0100001N9+01001+00611101351ADDAY111999GF108991081051008001999999EQDQ01+000032APCTENQ02+000002APC3  
0051135860999991928111312004+41983+021467FM-12+024099999V0202701N00101007801CN0100001N9+01001+00611102211ADDAY121999GF108991081051008001999999MD1810061+9999
0051135860999991928111412004+41983+021467FM-12+024099999V0209991C00001007801CN0040001N9+01721+01281102121ADDAY111999GF108991081051008001999999MD1810141+9999
0070135860999991928111512004+41983+021467FM-12+024099999V0209991C00001220001CN0100001N9+01501+00831101141ADDAY111999GF106991999001999999031001MD1810341+9999EQDQ01+000002SCOTLC
0088135860999991928111612004+41983+021467FM-12+024099999V0201801N00101220001CN0100001N9+01391+00941100591ADDAY181999GF106991999001999999031001EQDQ01+000002SCOTLCQ02+000082APCTENQ03+000002APC3  
0051135860999991928111712004+41983+021467FM-12+024099999V0209991C00001220001CN0005001N9+02221+01941101001ADDAY141999GF102991999999022501999999MD1810141+9999
0051135860999991928111912004+41983+021467FM-12+024099999V0202901N00261012301CN0020001N9+01001+00781101971ADDAY121999GF108991081051012501999999MD1810061+9999
0070135860999991928112012004+41983+021467FM-12+024099999V0209991C00001220001CN0200001N9+01001+00111102381ADDAY111999GF104991999001999999021001MD1810141+9999EQDQ01+000002SCOTLC
0051135860999991928112112004+41983+021467FM-12+024099999V0203601N00671012301CN0200001N9+01281+00391102631ADDAY111999GF108991081011012501999999MD1810061+9999
0051135860999991928112212004+41983+021467FM-12+024099999V0203601N00101220001CN0200001N9+01001+00111102691ADDAY101999GF104991041051012501001001MD1810201+9999
0051135860999991928112312004+41983+021467FM-12+024099999V0201401N00101220001CN0200001N9+00721+00331102341ADDAY101999GF104991001001999999031081MD1810201+9999
0070135860999991928112412004+41983+021467FM-12+024099999V0202001N00101220001CN0100001N9+00721+00111101411ADDAY141999GF106991999001999999021001MD1810141+9999EQDQ01+000002SCOTLC
0057135860999991928112612004+41983+021467FM-12+024099999V0203201N00101012301CN0100001N9+00721+00501099041ADDAY161999GF108991081061012501999999MD1810261+9999MW1501
0072135860999991928112712004+41983+021467FM-12+024099999V0202701N00101220001CN0200001N9+01281-00611100201ADDAY101999GF102991021011012501001001EQDQ01+000032APCTENQ02+000002APC3  
0051135860999991928112812004+41983+021467FM-12+024099999V0203201N00261036001CN0200001N9+01111+00221099941ADDAY111999GF107991021051012501021001MD1110201+9999
0057135860999991928112912004+41983+021467FM-12+024099999V0202701N00101007801CN0040001N9+00391+00331100971ADDAY161999GF108991081061008001999999MD1610061+9999MW1501
0057135860999991928120112004+41983+021467FM-12+024099999V0203201N00101007801CN0040001N9+00221+00001100931ADDAY111999GF108991081061008001999999MD1810201+9999MW1711
0072135860999991928120312004+41983+021467FM-12+024099999V0202501N00101220001CN0100001N9+00501+00111101541ADDAY111999GF104991041051012501001001EQDQ01+000082APCTENQ02+000002APC3  
0086135860999991928120712004+41983+021467FM-12+024099999V0209991C00001220001CN0100001N9+00611-00171102611ADDAY101999GF102991999001999999021001MD1810141+9999EQDQ01+002702WODIR Q02+000002SCOTLC
0051135860999991928120812004+41983+021467FM-12+024099999V0209991C00001220001CN0040001N9+00391-00171102591ADDAY101999GF100991001001999999001001MD1810141+9999
0051135860999991928121112004+41983+021467FM-12+024099999V0201801N00101220001CN0100001N9+01111+00891100071ADDAY111999GF104991041051008001001001MD1810201+9999
0051135860999991928121312004+41983+021467FM-12+024099999V0202701N00101012301CN0100001N9+01111+00891099861ADDAY111999GF106991061051012501001001MD1810061+9999
0051135860999991928121412004+41983+021467FM-12+024099999V0202001N00101220001CN0200001N9+00891+00441100711ADDAY111999GF107991001001999999001081MD1810141+9999
0072135860999991928121812004+41983+021467FM-12+024099999V0209991C00001007801CN0100001N9+00221-00331102191ADDAY161999GF108991081051008001999999EQDQ01+000062APCTENQ02+000002APC3  
0076135860999991928121912004+41983+021467FM-12+024099999V0209991C00001004501CN0020001N9+00111+00061999999ADDAY171999GF108991081061004501999999MD1810141+9999MW1711EQDQ01+009992WODIR 
0057135860999991928122412004+41983+021467FM-12+024099999V0201401N00101004501CN0020001N9-00281-00331103681ADDAY141999GF107991071051004501001001MD1810061+9999MW1471
0051135860999991928122512004+41983+021467FM-12+024099999V0203601N00101007801CN0020001N9+00001-00221103371ADDAY121999GF108991081051008001999999MD1810261+9999
0057135860999991928122712004+41983+021467FM-12+024099999V0209991C00001000151CN0000501N9-00501-00561102551ADDAY141999GF108991081051000251999999MD1810141+9999MW1471
0076135860999991928122912004+41983+021467FM-12+024099999V0209991C00001000151CN0005001N9-00501-00561102031ADDAY141999GF108991081051000251999999MD1810141+9999MW1471EQDQ01+001802WODIR 
0057135860999991928123112004+41983+021467FM-12+024099999V0201801N00101002401CN0002001N9+00111+00061100631ADDAY161999GF108991081061002501999999MD1810061+9999MW1511
