0072161200999991928010112004+44400+008917FM-12+000299999V0203601N01231220001CN0040001N9+00001+99999102531ADDAY101999GF104991041011017501999999EQDQ01+000032APCTENQ02+000002APC3  
0072161200999991928010206004+44400+008917FM-12+000299999V0200701N01901220001CN0100001N9+00001+99999999999ADDAY101999GF100991001001999999001001EQDQ01+000032APCTENQ02+000002APC3  
0000161200999991928010212004+44400+008917FM-12+000299999V0203601N999999999999N9999999N9+99999+99999102861
0070161200999991928010312004+44400+008917FM-12+000299999V0203601N01231220001CN0100001N9-00221+99999102241ADDAY121999GF108991999001999999021001MD1510061+9999EQDQ01+000002SCOTLC
0051161200999991928010412004+44400+008917FM-12+000299999V0200701N004619999999N0100001N9+00391+99999102801ADDAY121999GF106991999999999999001001MD1990401+9999
0070161200999991928010512004+44400+008917FM-12+000299999V0201401N002619999999N0040001N9+00891+99999101951ADDAY121999GF108991999051008001001001MD1810261+9999EQDQ01+000042SCOTLC
0037161200999991928010606004+44400+008917FM-12+000299999V0209991C00001220001CN0100001N9+00781+99999102121ADDAY101999GF102991999999999999999999
0070161200999991928010612004+44400+008917FM-12+000299999V0201601N004619999999N0040001N9+00891+99999102101ADDAY111999GF106991999051008001001001MD1810141+9999EQDQ01+000022SCOTLC
0051161200999991928010706004+44400+008917FM-12+000299999V0209991C00001220001CN0100001N9+00891+99999101671ADDAY101999GF100991001001999999001001MD1310061+9999
0088161200999991928010806004+44400+008917FM-12+000299999V0201401N004619999999N0040001N9+00391+99999102031ADDAY121999GF108991999051004501001001EQDQ01+000042SCOTLCQ02+000032APCTENQ03+000002APC3  
0051161200999991928010812004+44400+008917FM-12+000299999V0201401N00671004501CN0020001N9+01001+99999101831ADDAY121999GF108991081051004501999999MD1810141+9999
0025161200999991928010912004+44400+008917FM-12+000299999V02099999999999999999N0020001N9+99999+99999999999ADDAY121999MD1810061+9999
0088161200999991928011006004+44400+008917FM-12+000299999V0200501N004619999999N0100001N9+99999+99999101871ADDAY121999GF106991999051008001001001EQDQ01+000022SCOTLCQ02+000032APCTENQ03+000002APC3  
0051161200999991928011112004+44400+008917FM-12+000299999V0203601N00261220001CN0200001N9+99999+99999101471ADDAY101999GF100991001001999999001001MD1810141+9999
0072161200999991928011306004+44400+008917FM-12+000299999V0200701N00261220001CN0100001N9+00721+99999101981ADDAY101999GF100991001001999999001001EQDQ01+000032APCTENQ02+000002APC3  
0051161200999991928011312004+44400+008917FM-12+000299999V0201401N00461090001CN0100001N9+01111+99999101751ADDAY101999GF106991041051008001001091MD1990141+9999
0051161200999991928011406004+44400+008917FM-12+000299999V0200901N00261004501CN0100001N9+00781+99999101541ADDAY111999GF106991061051004501001001MD1610061+9999
0037161200999991928011412004+44400+008917FM-12+000299999V0201401N002619999999N9999999N9+01001+99999101471ADDAY111999GF106991999999012501999999
0088161200999991928011506004+44400+008917FM-12+000299999V0201401N004619999999N0040001N9+00891+99999101491ADDAY121999GF108991999051008001001001EQDQ01+000042SCOTLCQ02+000032APCTENQ03+000002APC3  
0076161200999991928011512004+44400+008917FM-12+000299999V0201401N002619999999N0040001N9+00891+99999101311ADDAY121999GF108991999051008001001001MD1990141+9999MW1291EQDQ01+000042SCOTLC
0068161200999991928011606004+44400+008917FM-12+000299999V0203201N00461021001CN0000501N9+00781+99999100471ADDAA199025091AY161999GF108991081061022501999999MD1810141+9999MW1631
0051161200999991928011712004+44400+008917FM-12+000299999V0203601N00931220001CN0200001N9+00781+99999100611ADDAY111999GF104991041051022501999999MD1110061+9999
0051161200999991928011806004+44400+008917FM-12+000299999V0200201N01231220001CN0100001N9+00721+99999101271ADDAY101999GF100991001001999999001001MD1310141+9999
0051161200999991928011812004+44400+008917FM-12+000299999V0200201N00931220001CN0100001N9+00781+99999101471ADDAY101999GF100991001001999999001001MD1010001+9999
0011161200999991928011906004+44400+008917FM-12+000299999V0200201N002619999999N0100001N9+00721+99999102071ADDAY101999
0094161200999991928011912004+44400+008917FM-12+000299999V0201801N002619999999N0040001N9+00721+99999102021ADDAY121999GF108991999051008001001001MW1511EQDQ01+000042SCOTLCQ02+000082APCTENQ03+000002APC3  
0062161200999991928012006004+44400+008917FM-12+000299999V0200501N012319999999N0100001N9+00501+99999102101ADDAA199001091AY101999GF199999041999999999999999MD1310061+9999
0037161200999991928012012004+44400+008917FM-12+000299999V0203601N01231220001CN0100001N9+00611+99999102231ADDAY101999GF102991999999999999999999
0037161200999991928012106004+44400+008917FM-12+000299999V0200901N006719999999N0200001N9+00391+99999102711ADDAY101999GF106991999999999999999999
0051161200999991928012212004+44400+008917FM-12+000299999V0201401N00461012301CN0040001N9+00611+99999101771ADDAY121999GF108991081091012501999999MD1810141+9999
0068161200999991928012306004+44400+008917FM-12+000299999V0203601N00671007801CN0020001N9+00281+99999101941ADDAA199008091AY161999GF108991081091008001999999MD1310141+9999MW1611
0051161200999991928012406004+44400+008917FM-12+000299999V0200701N00261007801CN0100001N9+00391+99999103271ADDAY111999GF108991081051008001999999MD1310141+9999
0051161200999991928012412004+44400+008917FM-12+000299999V0209991C00001007801CN0040001N9+00891+99999102931ADDAY111999GF107991061051008001031001MD1990061+9999
0009161200999991928012512004+44400+008917FM-12+000299999V0203601N009319999999N9999999N9+00781+99999102671ADDMW1211
0072161200999991928012606004+44400+008917FM-12+000299999V0200201N01901090001CN0040001N9+00281+99999103361ADDAY101999GF106991021051008001001021EQDQ01+000042APCTENQ02+000062APC3  
0051161200999991928012612004+44400+008917FM-12+000299999V0203601N01541220001CN0040001N9+00391+99999102951ADDAY111999GF104991041091022501001021MD1710141+9999
0068161200999991928012706004+44400+008917FM-12+000299999V0203601N01541004501CN0010001N9+00111+99999102071ADDAA199013091AY161999GF108991081051004501999999MD1610141+9999MW1501
0057161200999991928012712004+44400+008917FM-12+000299999V0203601N01541004501CN0002001N9+00111+99999101951ADDAY161999GF108991081051004501999999MD1810141+9999MW1681
0051161200999991928012806004+44400+008917FM-12+000299999V0203601N01541220001CN0200001N9+00281+99999102371ADDAY101999GF100991001001999999001001MD1310141+9999
0037161200999991928012812004+44400+008917FM-12+000299999V0203601N00461220001CN0100001N9+00501+99999102371ADDAY101999GF102991999999999999999999
0051161200999991928012906004+44400+008917FM-12+000299999V0200501N00461004501CN0100001N9+00501+99999101931ADDAY121999GF108991081051004501999999MD1810061+9999
0076161200999991928012912004+44400+008917FM-12+000299999V0200201N004619999999N0020001N9+00501+99999101621ADDAY121999GF108991999051004501001001MD1810201+9999MW1511EQDQ01+000042SCOTLC
0070161200999991928013006004+44400+008917FM-12+000299999V0200201N022619999999N0100001N9+00391+99999100791ADDAY101999GF108991999051004501001001MD1810141+9999EQDQ01+000022SCOTLC
0070161200999991928013012004+44400+008917FM-12+000299999V0200201N015419999999N0100001N9+00721+99999100341ADDAY121999GF108991999091012501001001MD1810061+9999EQDQ01+000042SCOTLC
0070161200999991928013106004+44400+008917FM-12+000299999V0200201N015419999999N0200001N9+00781+99999100611ADDAY121999GF108991999051022501001001MD1310141+9999EQDQ01+000042SCOTLC
0051161200999991928013112004+44400+008917FM-12+000299999V0209999900671021001CN0200001N9+00891+99999100931ADDAY111999GF107991071051022501999999MD1310061+9999
0051161200999991928020106004+44400+008917FM-12+000299999V0200501N00461220001CN0200001N9+00781+99999101551ADDAY101999GF100991001001999999001001MD1610201+9999
0051161200999991928020112004+44400+008917FM-12+000299999V0203601N01231220001CN0100001N9+00781+99999101301ADDAY101999GF100991001001999999001001MD1710141+9999
0088161200999991928020206004+44400+008917FM-12+000299999V0200701N002619999999N0100001N9+00781+99999100821ADDAY121999GF108991999051004501001001EQDQ01+000042SCOTLCQ02+000032APCTENQ03+000002APC3  
0051161200999991928020312004+44400+008917FM-12+000299999V0203601N00261220001CN0100001N9+00781+99999101071ADDAY101999GF100991001001999999001001MD1810141+9999
0072161200999991928020406004+44400+008917FM-12+000299999V0209999999999220001CN0100001N9+99999+99999999999ADDAY111999GF104991001001999999001081EQDQ01+000042APCTENQ02+000142APC3  
0029161200999991928020412004+44400+008917FM-12+000299999V0203601N00261220001CN9999999N9+00781+99999102191ADDGF102991999999999999999999
0051161200999991928020606004+44400+008917FM-12+000299999V0200701N00261021001CN0040001N9+00501+99999102291ADDAY111999GF106991061051022501001001MD1810061+9999
0009161200999991928020612004+44400+008917FM-12+000299999V0202501N001019999999N9999999N9-00111+99999102161ADDMW1171
0051161200999991928020706004+44400+008917FM-12+000299999V0200201N00671220001CN0100001N9+00611+99999102921ADDAY101999GF100991001001999999001001MD1310141+9999
0051161200999991928020712004+44400+008917FM-12+000299999V0209999900671220001CN0100001N9+00781+99999103171ADDAY101999GF100991001001999999001001MD1990061+9999
0051161200999991928020806004+44400+008917FM-12+000299999V0203601N00261220001CN0100001N9+00721+99999103631ADDAY101999GF100991001001999999001001MD1410001+9999
0051161200999991928020812004+44400+008917FM-12+000299999V0202301N00261220001CN0100001N9+00891+99999103571ADDAY101999GF100991001001999999001001MD1810061+9999
0088161200999991928020906004+44400+008917FM-12+000299999V0201101N002619999999N0100001N9+00721+99999103591ADDAY121999GF108991999051004501001001EQDQ01+000042SCOTLCQ02+000032APCTENQ03+000002APC3  
0072161200999991928020912004+44400+008917FM-12+000299999V0202001N00101090001CN9999999N9+99999+99999103471ADDAY111999GF106991021011017501001021EQDQ01+000042APCTENQ02+000062APC3  
0051161200999991928021006004+44400+008917FM-12+000299999V0202301N00931090001CN0040001N9+00781+99999102831ADDAY111999GF108991021051004501001081MD1610141+9999
0051161200999991928021012004+44400+008917FM-12+000299999V0202001N00671004501CN0020001N9+00891+99999102351ADDAY121999GF108991081051004501999999MD1810341+9999
0051161200999991928021106004+44400+008917FM-12+000299999V0201101N00671004501CN0040001N9+00721+99999100971ADDAY121999GF108991081051004501999999MD1810261+9999
0070161200999991928021112004+44400+008917FM-12+000299999V0200701N002619999999N0040001N9+00891+99999100401ADDAY121999GF108991999051004501001001MD1810341+9999EQDQ01+000042SCOTLC
0072161200999991928021206004+44400+008917FM-12+000299999V0200201N01231007801CN0100001N9+00891+99999099671ADDAY111999GF106991061051008001999999EQDQ01+000042APCTENQ02+000062APC3  
0070161200999991928021212004+44400+008917FM-12+000299999V0203601N00931220001CN0200001N9+01001+99999999999ADDAY101999GF100991001001999999001001MD1310261+9999EQDQ01+000001APOSP 
0072161200999991928021306004+44400+008917FM-12+000299999V0200901N00461220001CN0200001N9+00781+99999100601ADDAY101999GF108991001001999999001091EQDQ01+000042APCTENQ02+000062APC3  
0051161200999991928021312004+44400+008917FM-12+000299999V0202301N004619999999N0100001N9+01111+99999100741ADDAY101999GF106991999999022501999999MD1310061+9999
0051161200999991928021406004+44400+008917FM-12+000299999V0209999901231004501CN9999999N9+00001+99999999999ADDAY121999GF107991071051004501001001MD1310061+9999
0051161200999991928021412004+44400+008917FM-12+000299999V0201601N00261004501CN0040001N9+01111+99999101351ADDAY111999GF108991081051004501999999MD1010001+9999
0051161200999991928021506004+44400+008917FM-12+000299999V0200901N00261007801CN0040001N9+01001+99999101801ADDAY111999GF107991071051008001001001MD1410001+9999
0025161200999991928021512004+44400+008917FM-12+000299999V0201601N002619999999N0010001N9+01891+99999101841ADDAY121999MD1110061+9999
0062161200999991928021606004+44400+008917FM-12+000299999V0209991C00001004501CN0020001N9+01001+99999102441ADDAA199001091AY161999GF108991061051004501001091MD1310061+9999
0062161200999991928021612004+44400+008917FM-12+000299999V0202501N00261004501CN0020001N9+01111+99999102391ADDAY141999GF108991081051004501999999MW1451EQDQ01+000002APC3  
0057161200999991928021706004+44400+008917FM-12+000299999V0202301N00461000151CN0000001N9+01001+99999101721ADDAY181999GF108991081051000251999999MD1810061+9999MW1451
0051161200999991928021712004+44400+008917FM-12+000299999V0202301N00461004501CN0020001N9+01001+99999101911ADDAY141999GF108991081051004501999999MD1810141+9999
0037161200999991928021812004+44400+008917FM-12+000299999V0202501N00261220001CN0040001N9+01111+99999102041ADDAY101999GF102991999999999999999999
0072161200999991928021906004+44400+008917FM-12+000299999V0200501N00261220001CN0100001N9+00891+99999999999ADDAY101999GF104991021011017501031001EQDQ01+000042APCTENQ02+000062APC3  
0080161200999991928021912004+44400+008917FM-12+000299999V0202901N019019999999N9999999N9+01221+99999102401ADDGF106991999011012501001001EQDQ01+000012SCOTLCQ02+000032APCTENQ03+000002APC3  
0088161200999991928022006004+44400+008917FM-12+000299999V0209991C000019999999N0100001N9+00781+99999102741ADDAY121999GF108991999051004501001001EQDQ01+000042SCOTLCQ02+000032APCTENQ03+000002APC3  
0051161200999991928022012004+44400+008917FM-12+000299999V0201401N00261004501CN0040001N9+00891+99999102631ADDAY121999GF108991081051004501999999MD1990061+9999
0051161200999991928022106004+44400+008917FM-12+000299999V0200201N00671220001CN0040001N9+00721+99999102821ADDAY101999GF100991001001999999001001MD1310061+9999
0051161200999991928022112004+44400+008917FM-12+000299999V0200701N00261220001CN0040001N9+01001+99999103041ADDAY101999GF100991001001999999001001MD1110141+9999
0051161200999991928022206004+44400+008917FM-12+000299999V0200701N00261220001CN0100001N9+00501+99999102821ADDAY101999GF102991021051012501999999MD1810141+9999
0051161200999991928022212004+44400+008917FM-12+000299999V0202301N00261220001CN0100001N9+00781+99999102511ADDAY101999GF100991001001999999001001MD1810201+9999
0051161200999991928022306004+44400+008917FM-12+000299999V0200701N00261007801CN0020001N9+00391+99999103101ADDAY111999GF108991081051008001999999MD1310061+9999
0056161200999991928022312004+44400+008917FM-12+000299999V0203601N00261220001CN0040001N9+00721+99999103091ADDAY101999GF104991041011017501001001EQDQ01+000002APC3  
0088161200999991928022406004+44400+008917FM-12+000299999V0203601N012319999999N0040001N9+00391+99999102791ADDAY121999GF108991999051008001001001EQDQ01+000042SCOTLCQ02+000062APCTENQ03+000002APC3  
0051161200999991928022506004+44400+008917FM-12+000299999V0200201N01541220001CN0040001N9+00281+99999103171ADDAY101999GF100991001001999999001001MD1310141+9999
0056161200999991928022512004+44400+008917FM-12+000299999V0203601N01901220001CN0040001N9+00501+99999103181ADDAY101999GF100991001001999999001001EQDQ01+000002APC3  
0051161200999991928022606004+44400+008917FM-12+000299999V0200701N00671220001CN0100001N9+00391+99999103681ADDAY101999GF100991001001999999001001MD1310061+9999
0051161200999991928022612004+44400+008917FM-12+000299999V0209991C00001220001CN0200001N9+01001+99999103441ADDAY101999GF100991001001999999001001MD1810141+9999
0051161200999991928022706004+44400+008917FM-12+000299999V0200701N00101220001CN0200001N9+00721+99999103101ADDAY101999GF100991001001999999001001MD1810061+9999
0051161200999991928022712004+44400+008917FM-12+000299999V0202001N00261220001CN0100001N9+00891+99999102911ADDAY101999GF100991001001999999001001MD1810141+9999
0051161200999991928022806004+44400+008917FM-12+000299999V0200501N00261220001CN0100001N9+00721+99999102521ADDAY101999GF104991001001999999031081MD1990061+9999
0051161200999991928022812004+44400+008917FM-12+000299999V0200201N00101220001CN0200001N9+01001+99999102381ADDAY101999GF100991001001999999001001MD1990061+9999
0072161200999991928022906004+44400+008917FM-12+000299999V0200701N00461220001CN0040001N9-00501+99999102431ADDAY101999GF102991001001999999001081EQDQ01+000032APCTENQ02+000002APC3  
