0070161200999991929010106004+44400+008917FM-12+000299999V0200201N01901220001CN0040001N9+00221+99999999999ADDAY101999GF104991021051022501021001MD1810141+9999EQDQ01+000001APOSP 
0062161200999991929010206004+44400+008917FM-12+000299999V0203601N00461036001CN0500001N9+00281+99999100341ADDAA199021091AY171999GF108991041051022501021001MD1310141+9999
0087161200999991929010306004+44400+008917FM-12+000299999V0200701N004619999999N0100001N9+00391+99999101001ADDAA199006091AY161999GF108991999051004501001001MD1310141+9999MW1211EQDQ01+000042SCOTLC
0105161200999991929010406004+44400+008917FM-12+000299999V0200701N004619999999N0040001N9+00281+99999100901ADDAA199000691AY161999GF108991999051004501001001MW1501EQDQ01+000042SCOTLCQ02+000032APCTENQ03+000002APC3  
0051161200999991929010506004+44400+008917FM-12+000299999V0203601N01901036001CN0500001N9+00781+99999101411ADDAY111999GF106991041061017501021001MD1310061+9999
0051161200999991929010606004+44400+008917FM-12+000299999V0200501N00261012301CN0500001N9+00391+99999102231ADDAY111999GF108991061051012501001081MD1310141+9999
0072161200999991929010706004+44400+008917FM-12+000299999V0200501N00461220001CN0500001N9+00221+99999102741ADDAY111999GF108991001001999999021081EQDQ01+000032APCTENQ02+000002APC3  
0088161200999991929010806004+44400+008917FM-12+000299999V0200201N01231220001CN0500001N9+00281+99999102711ADDAY101999GF104991021051999999001081EQDQ01+000992SCOLCBQ02+000032APCTENQ03+000002APC3  
0072161200999991929010906004+44400+008917FM-12+000299999V0200501N01541220001CN0000001N9+00391+99999103351ADDAY121999GF104991999999022501999999EQDQ01+000042APCTENQ02+000262APC3  
0051161200999991929011006004+44400+008917FM-12+000299999V0200501N00671220001CN0500001N9+00281+99999103501ADDAY101999GF100991001001999999001001MD1810061+9999
0072161200999991929011106004+44400+008917FM-12+000299999V0200501N00261220001CN0500001N9+00221+99999103241ADDAY101999GF108991001001999999021081EQDQ01+000062APCTENQ02+000002APC3  
0051161200999991929011206004+44400+008917FM-12+000299999V0200501N00931220001CN0200001N9+00111+99999103241ADDAY101999GF100991001001999999001001MD1110061+9999
0051161200999991929011306004+44400+008917FM-12+000299999V0209991C00001007801CN0200001N9+00281+99999102971ADDAY101999GF106991061051008001001001MD1810141+9999
0051161200999991929011406004+44400+008917FM-12+000299999V0201801N006719999999N0200001N9+00721+99999101331ADDAY111999GF108991999999999999001001MD1810201+9999
0051161200999991929011606004+44400+008917FM-12+000299999V0200501N00261220001CN0500001N9+00221+99999099791ADDAY111999GF104991041091008001001001MD1610061+9999
0051161200999991929011706004+44400+008917FM-12+000299999V0203601N01541220001CN0500001N9-00221+99999100991ADDAY101999GF100991001001999999001001MD1310401+9999
0051161200999991929011806004+44400+008917FM-12+000299999V0200501N00461220001CN0200001N9+00001+99999102171ADDAY101999GF102991021061008001001001MD1110201+9999
0070161200999991929011906004+44400+008917FM-12+000299999V0200201N002619999999N0500001N9+00391+99999103041ADDAY111999GF108991999011017501001001MD1310141+9999EQDQ01+000042SCOTLC
0088161200999991929012106004+44400+008917FM-12+000299999V0209991C000019999999N0100001N9+00611+99999103141ADDAY111999GF108991999061017501001001EQDQ01+000022SCOTLCQ02+000032APCTENQ03+000002APC3  
0051161200999991929012306004+44400+008917FM-12+000299999V0203601N00461036001CN0040001N9+00281+99999102171ADDAY121999GF106991041051022501031001MD1810061+9999
0070161200999991929012406004+44400+008917FM-12+000299999V0200501N002619999999N0040001N9+00281+99999101471ADDAY121999GF108991999061012501001001MD1810141+9999EQDQ01+000042SCOTLC
0076161200999991929012506004+44400+008917FM-12+000299999V0203601N022619999999N0040001N9-00111+99999100021ADDAY121999GF108991999051004501001001MD1810141+9999MW1161EQDQ01+000042SCOTLC
0105161200999991929012606004+44400+008917FM-12+000299999V0203601N019019999999N0040001N9+00001+99999099721ADDAA199000691AY161999GF108991999051008001001001MW1161EQDQ01+000042SCOTLCQ02+000032APCTENQ03+000002APC3  
0051161200999991929012706004+44400+008917FM-12+000299999V0200201N01541220001CN0100001N9-00111+99999100561ADDAY111999GF104991021051022501001081MD1310201+9999
0072161200999991929012906004+44400+008917FM-12+000299999V0203601N00931220001CN0040001N9+00001+99999102771ADDAY101999GF104991001001999999001021EQDQ01+000042APCTENQ02+000062APC3  
0051161200999991929013006004+44400+008917FM-12+000299999V0203601N00931220001CN0040001N9-00221+99999101371ADDAY101999GF100991001001999999001001MD1310141+9999
0051161200999991929013106004+44400+008917FM-12+000299999V0200201N00101220001CN0200001N9+00611+99999102071ADDAY101999GF100991001001999999001001MD1810061+9999
0051161200999991929020106004+44400+008917FM-12+000299999V0200201N01231220001CN0040001N9-00111+99999102211ADDAY111999GF104991001001999999021081MD1610061+9999
0051161200999991929020206004+44400+008917FM-12+000299999V0200201N00671220001CN0200001N9-00221+99999101791ADDAY111999GF102991021051022501001001MD1610061+9999
0051161200999991929020306004+44400+008917FM-12+000299999V0203601N02261220001CN0200001N9-00781+99999102151ADDAY101999GF100991001001999999001001MD1310141+9999
0051161200999991929020406004+44400+008917FM-12+000299999V0200501N019019999999N0200001N9-00281+99999999999ADDAY101999GF108991999999999999001001MD1010001+9999
0072161200999991929020506004+44400+008917FM-12+000299999V0200701N00261220001CN0200001N9+00391+99999102151ADDAY101999GF100991001001999999001001EQDQ01+000032APCTENQ02+000002APC3  
0070161200999991929020606004+44400+008917FM-12+000299999V0201101N009319999999N0200001N9+00501+99999101841ADDAY101999GF108991999061012501001001MD1810061+9999EQDQ01+000042SCOTLC
0072161200999991929020806004+44400+008917FM-12+000299999V0203601N01901220001CN0100001N9+00111+99999102501ADDAY101999GF100991001001999999001001EQDQ01+000032APCTENQ02+000002APC3  
0051161200999991929020906004+44400+008917FM-12+000299999V0200501N00461220001CN0040001N9+00391+99999101901ADDAY141999GF100991001001999999001001MD1810141+9999
0070161200999991929021006004+44400+008917FM-12+000299999V0200701N002619999999N0100001N9+00611+99999100971ADDAY101999GF108991999011017501001001MD1810141+9999EQDQ01+000042SCOTLC
0087161200999991929021106004+44400+008917FM-12+000299999V0203601N019019999999N0040001N9-00391+99999100151ADDAA199003091AY171999GF108991999051004501001001MD1310201+9999MW1161EQDQ01+000042SCOTLC
0070161200999991929021206004+44400+008917FM-12+000299999V0203601N022619999999N0040001N9-00611+99999100131ADDAY101999GF108991999051004501001001MD1610061+9999EQDQ01+000042SCOTLC
0051161200999991929021406004+44400+008917FM-12+000299999V0200201N01901220001CN0100001N9-00721+99999099661ADDAY101999GF108991001001999999021081MD1310141+9999
0072161200999991929021506004+44400+008917FM-12+000299999V0203601N00671220001CN0040001N9-00611+99999100561ADDAY101999GF100991001001999999001001EQDQ01+000032APCTENQ02+000002APC3  
0088161200999991929021606004+44400+008917FM-12+000299999V0200501N00671220001CN0100001N9+00001+99999100551ADDAY101999GF102991999001999999021001EQDQ01+000002SCOTLCQ02+000042APCTENQ03+000062APC3  
0051161200999991929021706004+44400+008917FM-12+000299999V0200201N01541220001CN0040001N9-00281+99999100871ADDAY101999GF106991001001999999021081MD1310061+9999
0070161200999991929021806004+44400+008917FM-12+000299999V0200701N012319999999N0100001N9+00281+99999101331ADDAY101999GF108991999051004501001001MD1310061+9999EQDQ01+000042SCOTLC
0072161200999991929021906004+44400+008917FM-12+000299999V0200701N00671220001CN0100001N9+00221+99999101941ADDAY111999GF100991001001999999001001EQDQ01+000032APCTENQ02+000002APC3  
0051161200999991929022006004+44400+008917FM-12+000299999V0200201N02261220001CN0040001N9-00221+99999102191ADDAY111999GF106991001001999999021081MD1310061+9999
0072161200999991929022106004+44400+008917FM-12+000299999V0200201N01541220001CN0040001N9+00111+99999102551ADDAY111999GF100991001001999999001001EQDQ01+000032APCTENQ02+000002APC3  
0051161200999991929022206004+44400+008917FM-12+000299999V0203601N01901220001CN0100001N9-00111+99999103071ADDAY101999GF100991001001999999001001MD1110061+9999
0070161200999991929022306004+44400+008917FM-12+000299999V0201601N004619999999N0100001N9+00391+99999101941ADDAY111999GF108991999061012501001001MD1810061+9999EQDQ01+000042SCOTLC
0087161200999991929022406004+44400+008917FM-12+000299999V0201401N006719999999N0100001N9+00611+99999101361ADDAA199003091AY121999GF108991999051004501001001MD1810061+9999MW1161EQDQ01+000042SCOTLC
0105161200999991929022506004+44400+008917FM-12+000299999V0200701N002619999999N0040001N9+00501+99999100991ADDAA199003091AY161999GF108991999051004501001001MW1501EQDQ01+000042SCOTLCQ02+000082APCTENQ03+000002APC3  
0072161200999991929022606004+44400+008917FM-12+000299999V0200201N01231021001CN0100001N9+00721+99999101101ADDAY121999GF108991081051022501999999EQDQ01+000062APCTENQ02+000002APC3  
0051161200999991929022706004+44400+008917FM-12+000299999V0201401N00261036001CN0040001N9+00721+99999100791ADDAY111999GF108991041051012501021001MD1610141+9999
0072161200999991929022806004+44400+008917FM-12+000299999V0200501N01231090001CN0100001N9+00391+99999100031ADDAY111999GF106991041051022501001081EQDQ01+000062APCTENQ02+000002APC3  
