0070162400999991928010112004+41867+012550FM-12+005099999V0203601N00461021001CN0100001N9+01001+99999102121ADDAY101999GF106991999061022501999999MD1510061+9999EQDQ01+000082SCOTLC
0070162400999991928010212004+41867+012550FM-12+005099999V0203601N00461220001CN0100001N9+01221+99999103501ADDAY101999GF102991999001999999021001MD1810141+9999EQDQ01+000002SCOTLC
0057162400999991928010312004+41867+012550FM-12+005099999V0203401N00261220001CN0100001N9+01111+99999101981ADDAY111999GF106991001001999999021081MD1610141+9999MW1161
0037162400999991928010412004+41867+012550FM-12+005099999V0203601N002619999999N0040001N9+01001+99999102831ADDAY111999GF106991999999999999999999
0051162400999991928010512004+41867+012550FM-12+005099999V0201401N00261220001CN0040001N9+01281+99999102301ADDAY111999GF104991021051012501021001MD1810141+9999
0051162400999991928010812004+41867+012550FM-12+005099999V0201601N00101220001CN0100001N9+01501+99999098081ADDAY101999GF104991021051012501021001MD1990061+9999
0051162400999991928010912004+41867+012550FM-12+005099999V0201601N00261015001CN0040001N9+01391+99999101931ADDAY121999GF108991081051017501999999MD1810141+9999
0051162400999991928011012004+41867+012550FM-12+005099999V0203401N00261036001CN0040001N9+01001+99999101601ADDAY121999GF108991041051012501021001MD1810141+9999
0051162400999991928011112004+41867+012550FM-12+005099999V0203401N00261036001CN0100001N9+01391+99999101151ADDAY121999GF108991041061017501021001MD1810141+9999
0051162400999991928011312004+41867+012550FM-12+005099999V0203601N00101220001CN0040001N9+01391+99999101841ADDAY101999GF101991011011017501001001MD1110141+9999
0051162400999991928011412004+41867+012550FM-12+005099999V0200701N00101012301CN0040001N9+01391+99999101541ADDAY111999GF107991071011012501001001MD1710141+9999
0051162400999991928011512004+41867+012550FM-12+005099999V0203601N00261012301CN0100001N9+01501+99999101491ADDAY101999GF106991061051012501001001MD1990141+9999
0057162400999991928011612004+41867+012550FM-12+005099999V0202501N00931004501CN0010001N9+01221+99999100641ADDAY111999GF108991081061004501999999MD1810261+9999MW1511
0011162400999991928011712004+41867+012550FM-12+005099999V0202501N002619999999N0040001N9+01221+99999100501ADDAY161999
0076162400999991928011812004+41867+012550FM-12+005099999V0203601N006719999999N0040001N9+01111+99999100911ADDAY111999GF107991999061012501001001MD1810141+9999MW1161EQDQ01+000042SCOTLC
0051162400999991928011912004+41867+012550FM-12+005099999V0203401N004619999999N0040001N9+01111+99999101791ADDAY101999GF106991999999999999021081MD1810061+9999
0051162400999991928012012004+41867+012550FM-12+005099999V0200501N004619999999N0040001N9+00721+99999101731ADDAY121999GF108991999999999999999999MD1810061+9999
0051162400999991928012112004+41867+012550FM-12+005099999V0203601N004619999999N0100001N9+01281+99999102301ADDAY111999GF106991999999999999021081MD1810141+9999
0070162400999991928012212004+41867+012550FM-12+005099999V0203601N004619999999N0040001N9+01001+99999101891ADDAY111999GF107991999011012501001001MD1810141+9999EQDQ01+000042SCOTLC
0072162400999991928012312004+41867+012550FM-12+005099999V0200501N00261220001CN0100001N9+01391+99999101951ADDAY111999GF102991021011012501999999EQDQ01+000032APCTENQ02+000002APC3  
0072162400999991928012412004+41867+012550FM-12+005099999V0202901N001019999999N0020001N9+01281+99999103091ADDAY101999GF106991999999999999999999EQDQ01+000032APCTENQ02+000002APC3  
0051162400999991928012612004+41867+012550FM-12+005099999V0200501N001019999999N0040001N9+01501+99999102931ADDAY111999GF107991999999999999021001MD1810141+9999
0051162400999991928012712004+41867+012550FM-12+005099999V0201601N00461036001CN0040001N9+01281+99999102041ADDAY111999GF107991041061004501021001MD1810141+9999
0051162400999991928012812004+41867+012550FM-12+005099999V0202001N002619999999N0040001N9+01391+99999102261ADDAY111999GF106991999999022501999999MD1810141+9999
0051162400999991928012912004+41867+012550FM-12+005099999V0200701N00261220001CN0100001N9+01391+99999101591ADDAY111999GF108991001001999999001081MD1810201+9999
0057162400999991928013012004+41867+012550FM-12+005099999V0201401N002619999999N0100001N9+01111+99999099761ADDAY111999GF108991999999012501999999MD1810261+9999MW1511
0078162400999991928013112004+41867+012550FM-12+005099999V0200901N00261007801CN0040001N9+01111+99999100961ADDAY161999GF108991061061008001021001MW1511EQDQ01+000032APCTENQ02+000002APC3  
0051162400999991928020112004+41867+012550FM-12+005099999V0203601N00261220001CN0200001N9+01501+99999101041ADDAY101999GF102991021011012501001001MD1810201+9999
0070162400999991928020312004+41867+012550FM-12+005099999V0200201N004619999999N0200001N9+01001+99999100921ADDAY121999GF107991999011008001001001MD1810061+9999EQDQ01+000022SCOTLC
0051162400999991928020406004+41867+012550FM-12+005099999V0203601N00461036001CN0040001N9+00391+99999101441ADDAY111999GF106991041011012501021001MD1310141+9999
0070162400999991928020612004+41867+012550FM-12+005099999V0203601N00261220001CN0040001N9+00891+99999101991ADDAY111999GF108991999001999999021001MD1810201+9999EQDQ01+000002SCOTLC
0051162400999991928020706004+41867+012550FM-12+005099999V0203601N00461220001CN0100001N9+00611+99999102231ADDAY111999GF104991021011012501021001MD1310141+9999
0037162400999991928020712004+41867+012550FM-12+005099999V0200201N00931220001CN0100001N9+01111+99999102481ADDAY111999GF102991999999999999999999
0051162400999991928020806004+41867+012550FM-12+005099999V0203601N00671220001CN0100001N9+00221+99999103411ADDAY101999GF100991001001999999001001MD1310061+9999
0051162400999991928020812004+41867+012550FM-12+005099999V0203601N00461220001CN0100001N9+01221+99999103401ADDAY101999GF100991001001999999001001MD1810061+9999
0051162400999991928020912004+41867+012550FM-12+005099999V0203401N00261220001CN0100001N9+01221+99999103631ADDAY101999GF100991001001999999001001MD1810201+9999
0076162400999991928021106004+41867+012550FM-12+005099999V0201801N006719999999N0040001N9+00891+99999101831ADDAY111999GF108991999091008001001001MD1610201+9999MW1161EQDQ01+000042SCOTLC
0051162400999991928021112004+41867+012550FM-12+005099999V0202301N00461036001CN0040001N9+01111+99999101371ADDAY121999GF108991041061004501021001MD1810341+9999
0076162400999991928021206004+41867+012550FM-12+005099999V0201601N002619999999N0040001N9+00501+99999100311ADDAY101999GF108991999051008001001001MD1810261+9999MW1161EQDQ01+000042SCOTLC
0057162400999991928021212004+41867+012550FM-12+005099999V0203201N00671007801CN0020001N9+01111+99999099641ADDAY161999GF108991081061008001999999MD1810401+9999MW1511
0037162400999991928021312004+41867+012550FM-12+005099999V0209991C00001220001CN0200001N9+01501+99999100901ADDAY101999GF101991999999999999999999
0051162400999991928021406004+41867+012550FM-12+005099999V0200201N00261220001CN0040001N9+00391+99999101591ADDAY101999GF104991001001999999001081MD1210201+9999
0051162400999991928021412004+41867+012550FM-12+005099999V0202301N00261220001CN0040001N9+01891+99999101581ADDAY111999GF106991001001999999001081MD1310061+9999
0057162400999991928021506004+41867+012550FM-12+005099999V0200501N00261000151CN0000001N9+00501+99999101641ADDAY141999GF108991081051000251999999MD1310141+9999MW1441
0051162400999991928021512004+41867+012550FM-12+005099999V0203601N00101220001CN0200001N9+01781+99999101771ADDAY101999GF104991001001999999021081MD1810061+9999
0057162400999991928021612004+41867+012550FM-12+005099999V0209991C00001002401CN0010001N9+01501+99999102481ADDAY141999GF108991081051002501999999MD1810141+9999MW1101
0062162400999991928021706004+41867+012550FM-12+005099999V0202301N00261036001CN0010001N9+01221+99999102261ADDAY121999GF108991041051002501021001MW1101EQDQ01+000002APC3  
0076162400999991928021712004+41867+012550FM-12+005099999V0202301N001019999999N0040001N9+01501+99999102061ADDAY121999GF108991999091012501001001MD1810141+9999MW1161EQDQ01+000042SCOTLC
0078162400999991928021806004+41867+012550FM-12+005099999V0200501N00261000151CN0000001N9+00721+99999101981ADDAY161999GF108991081051000251999999MW1461EQDQ01+000042APCTENQ02+000062APC3  
0037162400999991928021812004+41867+012550FM-12+005099999V0203601N00261220001CN0100001N9+01721+99999101971ADDAY141999GF100991001001999999001001
0051162400999991928021906004+41867+012550FM-12+005099999V0209991C00001220001CN0040001N9+00611+99999102741ADDAY111999GF104991021011017501001081MD1310141+9999
0051162400999991928022012004+41867+012550FM-12+005099999V0202701N00461220001CN0040001N9+01611+99999102631ADDAY101999GF104991041011012501001001MD1810201+9999
0072162400999991928022112004+41867+012550FM-12+005099999V0203601N01231220001CN0200001N9+01281+99999102741ADDAY101999GF100991001001999999001001EQDQ01+000032APCTENQ02+000002APC3  
0051162400999991928022212004+41867+012550FM-12+005099999V0202701N00461220001CN0100001N9+01221+99999102441ADDAY101999GF101991011011017501999999MD1810261+9999
0051162400999991928022312004+41867+012550FM-12+005099999V0203401N00461220001CN0200001N9+01221+99999102921ADDAY101999GF100991001001999999001001MD1990061+9999
0051162400999991928022512004+41867+012550FM-12+005099999V0200501N00461220001CN0200001N9+01111+99999102841ADDAY101999GF102991021011012501001001MD1810141+9999
0051162400999991928022612004+41867+012550FM-12+005099999V0209991C00001220001CN0200001N9+01391+99999103401ADDAY101999GF100991001001999999001001MD1810141+9999
0051162400999991928022712004+41867+012550FM-12+005099999V0209991C00001220001CN0040001N9+01391+99999102871ADDAY101999GF101991011011012501001001MD1810141+9999
0051162400999991928022812004+41867+012550FM-12+005099999V0202301N00101220001CN0200001N9+01501+99999102351ADDAY101999GF100991001001999999001001MD1810141+9999
0088162400999991928022906004+41867+012550FM-12+005099999V0200701N00461220001CN0040001N9+00391+99999102441ADDAY101999GF101991999001999999021001EQDQ01+000002SCOTLCQ02+000032APCTENQ03+000002APC3  
0051162400999991928022912004+41867+012550FM-12+005099999V0201801N00461220001CN0100001N9+01611+99999102241ADDAY111999GF104991041011017501021001MD1810141+9999
