0029228020999991926010106004+61700+030683FM-12+001699999V02099999999999999999N0000001N9-00721+99999097831ADDGF108991999999999999999999
0035228020999991926010113004+61700+030683FM-12+001699999V02099999999999999999N0000001N9-00671+99999098381ADDGF107991999999999999999999MW1721
0029228020999991926010120004+61700+030683FM-12+001699999V02099999999999999999N0000001N9-00891+99999099111ADDGF108991999999999999999999
0029228020999991926010206004+61700+030683FM-12+001699999V02099999999999999999N0000001N9-01001+99999099881ADDGF100991999999999999999999
0029228020999991926010213004+61700+030683FM-12+001699999V02099999999999999999N0000001N9-00941+99999100351ADDGF100991999999999999999999
0029228020999991926010220004+61700+030683FM-12+001699999V02099999999999999999N0000001N9-01111+99999100521ADDGF108991999999999999999999
0029228020999991926010306004+61700+030683FM-12+001699999V02099999999999999999N0000001N9-00501+99999100551ADDGF108991999999999999999999
0029228020999991926010313004+61700+030683FM-12+001699999V02099999999999999999N0000001N9-00441+99999100781ADDGF108991999999999999999999
0029228020999991926010320004+61700+030683FM-12+001699999V02099999999999999999N0000001N9-00441+99999100991ADDGF108991999999999999999999
0029228020999991926010406004+61700+030683FM-12+001699999V02099999999999999999N0000001N9-00781+99999101361ADDGF108991999999999999999999
0029228020999991926010413004+61700+030683FM-12+001699999V02099999999999999999N0000001N9-00941+99999101581ADDGF108991999999999999999999
0029228020999991926010420004+61700+030683FM-12+001699999V02099999999999999999N0000001N9-01001+99999101641ADDGF108991999999999999999999
0029228020999991926010506004+61700+030683FM-12+001699999V02099999999999999999N0000001N9-00891+99999101761ADDGF108991999999999999999999
0029228020999991926010513004+61700+030683FM-12+001699999V02099999999999999999N0000001N9-01001+99999102021ADDGF108991999999999999999999
0029228020999991926010520004+61700+030683FM-12+001699999V02099999999999999999N0000001N9-01061+99999102551ADDGF100991999999999999999999
0029228020999991926010606004+61700+030683FM-12+001699999V02099999999999999999N0000001N9-01941+99999103511ADDGF100991999999999999999999
0029228020999991926010613004+61700+030683FM-12+001699999V02099999999999999999N0000001N9-01891+99999103831ADDGF108991999999999999999999
0029228020999991926010620004+61700+030683FM-12+001699999V02099999999999999999N0000001N9-02671+99999103921ADDGF108991999999999999999999
0029228020999991926010706004+61700+030683FM-12+001699999V02099999999999999999N0000001N9-02281+99999103621ADDGF108991999999999999999999
0029228020999991926010713004+61700+030683FM-12+001699999V02099999999999999999N0000001N9-01221+99999103191ADDGF108991999999999999999999
0029228020999991926010720004+61700+030683FM-12+001699999V02099999999999999999N0000001N9-02001+99999102801ADDGF108991999999999999999999
0029228020999991926010806004+61700+030683FM-12+001699999V02099999999999999999N0000001N9-01721+99999102431ADDGF108991999999999999999999
0029228020999991926010813004+61700+030683FM-12+001699999V02099999999999999999N0000001N9-02221+99999102511ADDGF100991999999999999999999
0029228020999991926010820004+61700+030683FM-12+001699999V02099999999999999999N0000001N9-01721+99999102641ADDGF100991999999999999999999
0029228020999991926010906004+61700+030683FM-12+001699999V02099999999999999999N0000001N9-02561+99999103191ADDGF100991999999999999999999
0029228020999991926010913004+61700+030683FM-12+001699999V02099999999999999999N0000001N9-02501+99999103461ADDGF100991999999999999999999
0029228020999991926010920004+61700+030683FM-12+001699999V02099999999999999999N0000001N9-03171+99999103761ADDGF100991999999999999999999
0029228020999991926011006004+61700+030683FM-12+001699999V02099999999999999999N0000001N9-03331+99999104191ADDGF100991999999999999999999
0029228020999991926011013004+61700+030683FM-12+001699999V02099999999999999999N0000001N9-02941+99999104401ADDGF100991999999999999999999
0029228020999991926011020004+61700+030683FM-12+001699999V02099999999999999999N0000001N9-03391+99999104601ADDGF100991999999999999999999
0029228020999991926011106004+61700+030683FM-12+001699999V02099999999999999999N0000001N9-03391+99999104701ADDGF100991999999999999999999
0029228020999991926011113004+61700+030683FM-12+001699999V02099999999999999999N0000001N9-02281+99999104831ADDGF108991999999999999999999
0029228020999991926011120004+61700+030683FM-12+001699999V02099999999999999999N0000001N9-01831+99999104791ADDGF108991999999999999999999
0029228020999991926011206004+61700+030683FM-12+001699999V02099999999999999999N0000001N9-01501+99999104821ADDGF108991999999999999999999
0029228020999991926011213004+61700+030683FM-12+001699999V02099999999999999999N0000001N9-01441+99999104861ADDGF107991999999999999999999
0029228020999991926011220004+61700+030683FM-12+001699999V02099999999999999999N0000001N9-01391+99999104781ADDGF108991999999999999999999
0029228020999991926011306004+61700+030683FM-12+001699999V02099999999999999999N0000001N9-01331+99999104601ADDGF100991999999999999999999
0029228020999991926011313004+61700+030683FM-12+001699999V02099999999999999999N0000001N9-01391+99999104521ADDGF100991999999999999999999
0029228020999991926011320004+61700+030683FM-12+001699999V02099999999999999999N0000001N9-02111+99999104521ADDGF100991999999999999999999
0029228020999991926011406004+61700+030683FM-12+001699999V02099999999999999999N0000001N9-01891+99999104351ADDGF108991999999999999999999
0029228020999991926011413004+61700+030683FM-12+001699999V02099999999999999999N0000001N9-01391+99999104311ADDGF102991999999999999999999
0029228020999991926011420004+61700+030683FM-12+001699999V02099999999999999999N0000001N9-01941+99999104221ADDGF100991999999999999999999
0029228020999991926011506004+61700+030683FM-12+001699999V02099999999999999999N0000001N9-02281+99999104031ADDGF100991999999999999999999
0029228020999991926011513004+61700+030683FM-12+001699999V02099999999999999999N0000001N9-01891+99999103921ADDGF105991999999999999999999
0029228020999991926011520004+61700+030683FM-12+001699999V02099999999999999999N0000001N9-01671+99999103631ADDGF108991999999999999999999
0029228020999991926011606004+61700+030683FM-12+001699999V02099999999999999999N0000001N9-01561+99999103321ADDGF108991999999999999999999
0035228020999991926011613004+61700+030683FM-12+001699999V02099999999999999999N0000001N9-01391+99999102821ADDGF108991999999999999999999MW1721
0029228020999991926011620004+61700+030683FM-12+001699999V02099999999999999999N0000001N9-01501+99999102791ADDGF108991999999999999999999
0029228020999991926011706004+61700+030683FM-12+001699999V02099999999999999999N0000001N9-01611+99999102821ADDGF108991999999999999999999
0035228020999991926011713004+61700+030683FM-12+001699999V02099999999999999999N0000001N9-01441+99999102861ADDGF108991999999999999999999MW1701
0029228020999991926011720004+61700+030683FM-12+001699999V02099999999999999999N0000001N9-01171+99999102911ADDGF108991999999999999999999
0029228020999991926011806004+61700+030683FM-12+001699999V02099999999999999999N0000001N9-00781+99999102831ADDGF108991999999999999999999
0035228020999991926011813004+61700+030683FM-12+001699999V02099999999999999999N0000001N9-01001+99999102911ADDGF108991999999999999999999MW1721
0035228020999991926011820004+61700+030683FM-12+001699999V02099999999999999999N0000001N9-01001+99999102861ADDGF108991999999999999999999MW1721
0035228020999991926011906004+61700+030683FM-12+001699999V02099999999999999999N0000001N9-01001+99999102761ADDGF108991999999999999999999MW1721
0035228020999991926011913004+61700+030683FM-12+001699999V02099999999999999999N0000001N9-01001+99999102711ADDGF108991999999999999999999MW1721
0029228020999991926011920004+61700+030683FM-12+001699999V02099999999999999999N0000001N9-01561+99999102701ADDGF100991999999999999999999
0029228020999991926012006004+61700+030683FM-12+001699999V02099999999999999999N0000001N9-01941+99999102511ADDGF100991999999999999999999
0029228020999991926012013004+61700+030683FM-12+001699999V02099999999999999999N0000001N9-01721+99999102481ADDGF100991999999999999999999
0029228020999991926012020004+61700+030683FM-12+001699999V02099999999999999999N0000001N9-01781+99999102191ADDGF100991999999999999999999
0029228020999991926012106004+61700+030683FM-12+001699999V02099999999999999999N0000001N9-01061+99999101831ADDGF100991999999999999999999
0029228020999991926012113004+61700+030683FM-12+001699999V02099999999999999999N0000001N9-01061+99999101821ADDGF100991999999999999999999
0029228020999991926012120004+61700+030683FM-12+001699999V02099999999999999999N0000001N9-01221+99999101801ADDGF102991999999999999999999
0029228020999991926012206004+61700+030683FM-12+001699999V02099999999999999999N0000001N9-01441+99999101791ADDGF108991999999999999999999
0029228020999991926012213004+61700+030683FM-12+001699999V02099999999999999999N0000001N9-01501+99999101941ADDGF100991999999999999999999
0029228020999991926012220004+61700+030683FM-12+001699999V02099999999999999999N0000001N9-01831+99999101901ADDGF108991999999999999999999
0029228020999991926012306004+61700+030683FM-12+001699999V02099999999999999999N0000001N9-01501+99999101881ADDGF108991999999999999999999
0029228020999991926012313004+61700+030683FM-12+001699999V02099999999999999999N0000001N9-01561+99999101901ADDGF108991999999999999999999
0035228020999991926012320004+61700+030683FM-12+001699999V02099999999999999999N0000001N9-01441+99999101721ADDGF108991999999999999999999MW1721
0035228020999991926012406004+61700+030683FM-12+001699999V02099999999999999999N0000001N9-01061+99999101711ADDGF108991999999999999999999MW1721
0035228020999991926012413004+61700+030683FM-12+001699999V02099999999999999999N0000001N9-01221+99999101581ADDGF108991999999999999999999MW1721
0035228020999991926012420004+61700+030683FM-12+001699999V02099999999999999999N0000001N9-01391+99999100901ADDGF108991999999999999999999MW1721
0035228020999991926012506004+61700+030683FM-12+001699999V02099999999999999999N0000001N9-00891+99999099861ADDGF108991999999999999999999MW1721
0035228020999991926012513004+61700+030683FM-12+001699999V02099999999999999999N0000001N9-00611+99999099551ADDGF108991999999999999999999MW1721
0029228020999991926012520004+61700+030683FM-12+001699999V02099999999999999999N0000001N9-00501+99999099481ADDGF108991999999999999999999
0029228020999991926012606004+61700+030683FM-12+001699999V02099999999999999999N0000001N9-00331+99999099031ADDGF108991999999999999999999
0029228020999991926012613004+61700+030683FM-12+001699999V02099999999999999999N0000001N9-00331+99999098901ADDGF108991999999999999999999
0029228020999991926012620004+61700+030683FM-12+001699999V02099999999999999999N0000001N9-00561+99999099671ADDGF108991999999999999999999
0029228020999991926012706004+61700+030683FM-12+001699999V02099999999999999999N0000001N9-00891+99999100911ADDGF108991999999999999999999
0029228020999991926012713004+61700+030683FM-12+001699999V02099999999999999999N0000001N9-01001+99999101511ADDGF108991999999999999999999
0029228020999991926012720004+61700+030683FM-12+001699999V02099999999999999999N0000001N9-01781+99999101461ADDGF100991999999999999999999
0029228020999991926012806004+61700+030683FM-12+001699999V02099999999999999999N0000001N9-01671+99999101381ADDGF108991999999999999999999
0035228020999991926012813004+61700+030683FM-12+001699999V02099999999999999999N0000001N9-01391+99999101121ADDGF108991999999999999999999MW1721
0035228020999991926012820004+61700+030683FM-12+001699999V02099999999999999999N0000001N9-01221+99999100281ADDGF108991999999999999999999MW1721
0029228020999991926012906004+61700+030683FM-12+001699999V02099999999999999999N0000001N9-01831+99999100901ADDGF100991999999999999999999
0029228020999991926012913004+61700+030683FM-12+001699999V02099999999999999999N0000001N9-01781+99999101441ADDGF100991999999999999999999
0029228020999991926012920004+61700+030683FM-12+001699999V02099999999999999999N0000001N9-02061+99999101881ADDGF100991999999999999999999
0029228020999991926013006004+61700+030683FM-12+001699999V02099999999999999999N0000001N9-02671+99999102001ADDGF100991999999999999999999
0029228020999991926013013004+61700+030683FM-12+001699999V02099999999999999999N0000001N9-01941+99999101781ADDGF108991999999999999999999
0029228020999991926013020004+61700+030683FM-12+001699999V02099999999999999999N0000001N9-01781+99999101721ADDGF103991999999999999999999
0029228020999991926013106004+61700+030683FM-12+001699999V02099999999999999999N0000001N9-02171+99999101461ADDGF108991999999999999999999
0035228020999991926013113004+61700+030683FM-12+001699999V02099999999999999999N0000001N9-01501+99999101271ADDGF108991999999999999999999MW1701
0029228020999991926013120004+61700+030683FM-12+001699999V02099999999999999999N0000001N9-01391+99999101391ADDGF108991999999999999999999
0029228020999991926020106004+61700+030683FM-12+001699999V02099999999999999999N0000001N9-01281+99999101581ADDGF108991999999999999999999
0029228020999991926020113004+61700+030683FM-12+001699999V02099999999999999999N0000001N9-01061+99999101511ADDGF108991999999999999999999
0029228020999991926020120004+61700+030683FM-12+001699999V02099999999999999999N0000001N9-00831+99999101311ADDGF108991999999999999999999
0035228020999991926020206004+61700+030683FM-12+001699999V02099999999999999999N0000001N9-00721+99999100951ADDGF108991999999999999999999MW1701
0035228020999991926020213004+61700+030683FM-12+001699999V02099999999999999999N0000001N9-00171+99999100831ADDGF108991999999999999999999MW1701
0029228020999991926020220004+61700+030683FM-12+001699999V02099999999999999999N0000001N9-00221+99999100821ADDGF108991999999999999999999
0029228020999991926020306004+61700+030683FM-12+001699999V02099999999999999999N0000001N9-00331+99999101121ADDGF108991999999999999999999
0029228020999991926020313004+61700+030683FM-12+001699999V02099999999999999999N0000001N9-00391+99999101591ADDGF108991999999999999999999
0029228020999991926020320004+61700+030683FM-12+001699999V02099999999999999999N0000001N9-00891+99999101841ADDGF108991999999999999999999
0029228020999991926020406004+61700+030683FM-12+001699999V02099999999999999999N0000001N9-01671+99999102121ADDGF100991999999999999999999
0029228020999991926020413004+61700+030683FM-12+001699999V02099999999999999999N0000001N9-01391+99999102661ADDGF100991999999999999999999
0029228020999991926020420004+61700+030683FM-12+001699999V02099999999999999999N0000001N9-01831+99999103021ADDGF108991999999999999999999
0029228020999991926020506004+61700+030683FM-12+001699999V02099999999999999999N0000001N9-02171+99999103581ADDGF100991999999999999999999
0029228020999991926020513004+61700+030683FM-12+001699999V02099999999999999999N0000001N9-01671+99999103821ADDGF100991999999999999999999
0029228020999991926020520004+61700+030683FM-12+001699999V02099999999999999999N0000001N9-02441+99999104081ADDGF100991999999999999999999
0029228020999991926020606004+61700+030683FM-12+001699999V02099999999999999999N0000001N9-02891+99999104101ADDGF100991999999999999999999
0029228020999991926020613004+61700+030683FM-12+001699999V02099999999999999999N0000001N9-02001+99999104121ADDGF100991999999999999999999
0029228020999991926020620004+61700+030683FM-12+001699999V02099999999999999999N0000001N9-02221+99999104181ADDGF108991999999999999999999
0029228020999991926020706004+61700+030683FM-12+001699999V02099999999999999999N0000001N9-01611+99999104231ADDGF108991999999999999999999
0029228020999991926020713004+61700+030683FM-12+001699999V02099999999999999999N0000001N9-01441+99999104181ADDGF106991999999999999999999
0029228020999991926020720004+61700+030683FM-12+001699999V02099999999999999999N0000001N9-01441+99999104041ADDGF100991999999999999999999
0029228020999991926020806004+61700+030683FM-12+001699999V02099999999999999999N0000001N9-01721+99999104031ADDGF100991999999999999999999
0029228020999991926020813004+61700+030683FM-12+001699999V02099999999999999999N0000001N9-01721+99999104071ADDGF100991999999999999999999
0029228020999991926020820004+61700+030683FM-12+001699999V02099999999999999999N0000001N9-02001+99999104241ADDGF100991999999999999999999
0029228020999991926020906004+61700+030683FM-12+001699999V02099999999999999999N0000001N9-02281+99999104201ADDGF100991999999999999999999
0029228020999991926020913004+61700+030683FM-12+001699999V02099999999999999999N0000001N9-01671+99999104141ADDGF100991999999999999999999
0029228020999991926020920004+61700+030683FM-12+001699999V02099999999999999999N0000001N9-02501+99999104021ADDGF100991999999999999999999
0029228020999991926021006004+61700+030683FM-12+001699999V02099999999999999999N0000001N9-02831+99999103801ADDGF100991999999999999999999
0029228020999991926021013004+61700+030683FM-12+001699999V02099999999999999999N0000001N9-01941+99999103541ADDGF100991999999999999999999
0029228020999991926021020004+61700+030683FM-12+001699999V02099999999999999999N0000001N9-02171+99999103471ADDGF100991999999999999999999
0029228020999991926021106004+61700+030683FM-12+001699999V02099999999999999999N0000001N9-01941+99999103031ADDGF100991999999999999999999
0029228020999991926021113004+61700+030683FM-12+001699999V02099999999999999999N0000001N9-01441+99999102591ADDGF108991999999999999999999
0035228020999991926021120004+61700+030683FM-12+001699999V02099999999999999999N0000001N9-00831+99999102161ADDGF108991999999999999999999MW1721
0035228020999991926021206004+61700+030683FM-12+001699999V02099999999999999999N0000001N9-00781+99999101721ADDGF108991999999999999999999MW1721
0029228020999991926021213004+61700+030683FM-12+001699999V02099999999999999999N0000001N9-00611+99999101631ADDGF100991999999999999999999
0029228020999991926021220004+61700+030683FM-12+001699999V02099999999999999999N0000001N9-00831+99999101741ADDGF108991999999999999999999
0029228020999991926021306004+61700+030683FM-12+001699999V02099999999999999999N0000001N9-00831+99999101781ADDGF108991999999999999999999
0029228020999991926021313004+61700+030683FM-12+001699999V02099999999999999999N0000001N9-00941+99999101941ADDGF108991999999999999999999
0029228020999991926021320004+61700+030683FM-12+001699999V02099999999999999999N0000001N9-00891+99999101801ADDGF108991999999999999999999
0029228020999991926021406004+61700+030683FM-12+001699999V02099999999999999999N0000001N9-01061+99999101601ADDGF108991999999999999999999
0029228020999991926021413004+61700+030683FM-12+001699999V02099999999999999999N0000001N9-00831+99999101681ADDGF102991999999999999999999
0029228020999991926021420004+61700+030683FM-12+001699999V02099999999999999999N0000001N9-01501+99999101981ADDGF107991999999999999999999
0029228020999991926021506004+61700+030683FM-12+001699999V02099999999999999999N0000001N9-01171+99999102141ADDGF108991999999999999999999
0029228020999991926021513004+61700+030683FM-12+001699999V02099999999999999999N0000001N9-01111+99999101781ADDGF108991999999999999999999
0029228020999991926021520004+61700+030683FM-12+001699999V02099999999999999999N0000001N9-00721+99999101201ADDGF108991999999999999999999
0029228020999991926021606004+61700+030683FM-12+001699999V02099999999999999999N0000001N9-00171+99999100741ADDGF108991999999999999999999
0035228020999991926021613004+61700+030683FM-12+001699999V02099999999999999999N0000001N9-00441+99999100281ADDGF108991999999999999999999MW1721
0029228020999991926021620004+61700+030683FM-12+001699999V02099999999999999999N0000001N9+00001+99999099951ADDGF108991999999999999999999
0035228020999991926021706004+61700+030683FM-12+001699999V02099999999999999999N0000001N9-00061+99999099911ADDGF108991999999999999999999MW1721
0029228020999991926021713004+61700+030683FM-12+001699999V02099999999999999999N0000001N9+00111+99999100281ADDGF108991999999999999999999
0029228020999991926021720004+61700+030683FM-12+001699999V02099999999999999999N0000001N9+00061+99999100511ADDGF108991999999999999999999
0029228020999991926021806004+61700+030683FM-12+001699999V02099999999999999999N0000001N9+00001+99999100161ADDGF108991999999999999999999
0035228020999991926021813004+61700+030683FM-12+001699999V02099999999999999999N0000001N9-00061+99999099561ADDGF108991999999999999999999MW1721
0029228020999991926021820004+61700+030683FM-12+001699999V02099999999999999999N0000001N9+00001+99999099261ADDGF108991999999999999999999
0029228020999991926021906004+61700+030683FM-12+001699999V02099999999999999999N0000001N9-00331+99999099341ADDGF108991999999999999999999
0029228020999991926021913004+61700+030683FM-12+001699999V02099999999999999999N0000001N9+00001+99999099541ADDGF108991999999999999999999
0029228020999991926021920004+61700+030683FM-12+001699999V02099999999999999999N0000001N9-00171+99999099861ADDGF108991999999999999999999
0029228020999991926022006004+61700+030683FM-12+001699999V02099999999999999999N0000001N9-00781+99999100791ADDGF108991999999999999999999
0029228020999991926022013004+61700+030683FM-12+001699999V02099999999999999999N0000001N9-01001+99999101501ADDGF100991999999999999999999
0029228020999991926022020004+61700+030683FM-12+001699999V02099999999999999999N0000001N9-01611+99999102161ADDGF100991999999999999999999
0029228020999991926022106004+61700+030683FM-12+001699999V02099999999999999999N0000001N9-02441+99999102311ADDGF108991999999999999999999
0029228020999991926022113004+61700+030683FM-12+001699999V02099999999999999999N0000001N9-01501+99999102081ADDGF108991999999999999999999
0035228020999991926022120004+61700+030683FM-12+001699999V02099999999999999999N0000001N9-01501+99999101591ADDGF108991999999999999999999MW1721
0029228020999991926022206004+61700+030683FM-12+001699999V02099999999999999999N0000001N9-01501+99999101621ADDGF108991999999999999999999
0029228020999991926022213004+61700+030683FM-12+001699999V02099999999999999999N0000001N9-01221+99999102301ADDGF100991999999999999999999
0029228020999991926022220004+61700+030683FM-12+001699999V02099999999999999999N0000001N9-01891+99999102671ADDGF100991999999999999999999
0029228020999991926022306004+61700+030683FM-12+001699999V02099999999999999999N0000001N9-02941+99999102951ADDGF100991999999999999999999
0029228020999991926022313004+61700+030683FM-12+001699999V02099999999999999999N0000001N9-01831+99999102821ADDGF100991999999999999999999
0029228020999991926022320004+61700+030683FM-12+001699999V02099999999999999999N0000001N9-01501+99999102461ADDGF108991999999999999999999
0029228020999991926022406004+61700+030683FM-12+001699999V02099999999999999999N0000001N9-01281+99999101841ADDGF108991999999999999999999
0029228020999991926022413004+61700+030683FM-12+001699999V02099999999999999999N0000001N9-00831+99999101721ADDGF108991999999999999999999
0029228020999991926022420004+61700+030683FM-12+001699999V02099999999999999999N0000001N9-00781+99999101961ADDGF108991999999999999999999
0029228020999991926022506004+61700+030683FM-12+001699999V02099999999999999999N0000001N9-00891+99999102741ADDGF108991999999999999999999
0029228020999991926022513004+61700+030683FM-12+001699999V02099999999999999999N0000001N9-00611+99999103141ADDGF108991999999999999999999
0029228020999991926022520004+61700+030683FM-12+001699999V02099999999999999999N0000001N9-00781+99999103321ADDGF108991999999999999999999
0029228020999991926022606004+61700+030683FM-12+001699999V02099999999999999999N0000001N9-00281+99999103551ADDGF108991999999999999999999
0029228020999991926022613004+61700+030683FM-12+001699999V02099999999999999999N0000001N9-00171+99999103561ADDGF108991999999999999999999
0029228020999991926022620004+61700+030683FM-12+001699999V02099999999999999999N0000001N9-00281+99999103591ADDGF108991999999999999999999
0029228020999991926022706004+61700+030683FM-12+001699999V02099999999999999999N0000001N9-00221+99999103421ADDGF108991999999999999999999
0029228020999991926022713004+61700+030683FM-12+001699999V02099999999999999999N0000001N9-00221+99999103471ADDGF108991999999999999999999
0029228020999991926022720004+61700+030683FM-12+001699999V02099999999999999999N0000001N9-00221+99999103391ADDGF108991999999999999999999
0029228020999991926022806004+61700+030683FM-12+001699999V02099999999999999999N0000001N9-00561+99999103161ADDGF108991999999999999999999
0029228020999991926022813004+61700+030683FM-12+001699999V02099999999999999999N0000001N9-00721+99999102841ADDGF100991999999999999999999
0029228020999991926022820004+61700+030683FM-12+001699999V02099999999999999999N0000001N9-00781+99999102751ADDGF108991999999999999999999
0029228020999991926030106004+61700+030683FM-12+001699999V0201801N001019999999N0000001N9-00441+99999102391ADDGF108991999999999999999999
0029228020999991926030113004+61700+030683FM-12+001699999V0201801N002119999999N0000001N9-00501+99999101751ADDGF108991999999999999999999
0029228020999991926030120004+61700+030683FM-12+001699999V0202301N004119999999N0000001N9-00221+99999100751ADDGF108991999999999999999999
0035228020999991926030206004+61700+030683FM-12+001699999V0201801N008219999999N0000001N9-00171+99999099231ADDGF108991999999999999999999MW1721
0029228020999991926030213004+61700+030683FM-12+001699999V0201801N002119999999N0000001N9+00111+99999098661ADDGF108991999999999999999999
0029228020999991926030220004+61700+030683FM-12+001699999V0209991C000019999999N0000001N9-00391+99999098791ADDGF108991999999999999999999
0035228020999991926030306004+61700+030683FM-12+001699999V0203201N006219999999N0000001N9-00221+99999098061ADDGF108991999999999999999999MW1721
0029228020999991926030313004+61700+030683FM-12+001699999V0203601N002119999999N0000001N9-00111+99999099021ADDGF100991999999999999999999
0029228020999991926030320004+61700+030683FM-12+001699999V0209991C000019999999N0000001N9-00611+99999098981ADDGF108991999999999999999999
0035228020999991926030406004+61700+030683FM-12+001699999V0201801N004119999999N0000001N9+00061+99999097071ADDGF108991999999999999999999MW1721
0029228020999991926030413004+61700+030683FM-12+001699999V0202301N002119999999N0000001N9+00221+99999096951ADDGF108991999999999999999999
0029228020999991926030420004+61700+030683FM-12+001699999V0209991C000019999999N0000001N9+00061+99999097321ADDGF108991999999999999999999
0029228020999991926030506004+61700+030683FM-12+001699999V0202301N002119999999N0000001N9+00061+99999097561ADDGF108991999999999999999999
0029228020999991926030513004+61700+030683FM-12+001699999V0202301N002119999999N0000001N9+00001+99999098241ADDGF108991999999999999999999
0029228020999991926030520004+61700+030683FM-12+001699999V0209991C000019999999N0000001N9-00281+99999098881ADDGF100991999999999999999999
0029228020999991926030606004+61700+030683FM-12+001699999V0209991C000019999999N0000001N9-01331+99999099301ADDGF106991999999999999999999
0029228020999991926030613004+61700+030683FM-12+001699999V0201801N006219999999N0000001N9-00281+99999099031ADDGF108991999999999999999999
0029228020999991926030620004+61700+030683FM-12+001699999V0201801N002119999999N0000001N9-00331+99999099281ADDGF100991999999999999999999
0029228020999991926030706004+61700+030683FM-12+001699999V0209991C000019999999N0000001N9-01671+99999099871ADDGF108991999999999999999999
0029228020999991926030713004+61700+030683FM-12+001699999V0201801N001019999999N0000001N9-00891+99999100261ADDGF108991999999999999999999
0035228020999991926030720004+61700+030683FM-12+001699999V0209991C000019999999N0000001N9-00611+99999100471ADDGF108991999999999999999999MW1721
0029228020999991926030806004+61700+030683FM-12+001699999V0209991C000019999999N0000001N9-00891+99999100601ADDGF100991999999999999999999
0029228020999991926030813004+61700+030683FM-12+001699999V0201401N002119999999N0000001N9-00721+99999100751ADDGF108991999999999999999999
0029228020999991926030820004+61700+030683FM-12+001699999V0209991C000019999999N0000001N9-00781+99999100631ADDGF108991999999999999999999
0029228020999991926030906004+61700+030683FM-12+001699999V0201801N006219999999N0000001N9-00221+99999099581ADDGF108991999999999999999999
0029228020999991926030913004+61700+030683FM-12+001699999V0201801N002119999999N0000001N9+00061+99999098341ADDGF108991999999999999999999
0029228020999991926030920004+61700+030683FM-12+001699999V0209991C000019999999N0000001N9-00281+99999098261ADDGF108991999999999999999999
0029228020999991926031006004+61700+030683FM-12+001699999V0209991C000019999999N0000001N9+00111+99999097871ADDGF108991999999999999999999
0029228020999991926031013004+61700+030683FM-12+001699999V0209991C000019999999N0000001N9+00331+99999097361ADDGF108991999999999999999999
0029228020999991926031020004+61700+030683FM-12+001699999V0209991C000019999999N0000001N9-00111+99999097961ADDGF103991999999999999999999
0029228020999991926031106004+61700+030683FM-12+001699999V0202901N004119999999N0000001N9-00671+99999099321ADDGF106991999999999999999999
0029228020999991926031113004+61700+030683FM-12+001699999V0203201N004119999999N0000001N9+00001+99999100071ADDGF100991999999999999999999
0029228020999991926031120004+61700+030683FM-12+001699999V0201801N004119999999N0000001N9-00561+99999099751ADDGF108991999999999999999999
0035228020999991926031206004+61700+030683FM-12+001699999V0201801N006219999999N0000001N9-00331+99999097721ADDGF108991999999999999999999MW1861
0029228020999991926031213004+61700+030683FM-12+001699999V0201801N002119999999N0000001N9-00061+99999097301ADDGF100991999999999999999999
0029228020999991926031220004+61700+030683FM-12+001699999V0209991C000019999999N0000001N9-00781+99999097461ADDGF108991999999999999999999
0035228020999991926031306004+61700+030683FM-12+001699999V0209991C000019999999N0000001N9-00831+99999097321ADDGF108991999999999999999999MW1721
0035228020999991926031313004+61700+030683FM-12+001699999V0202501N002119999999N0000001N9-00611+99999097861ADDGF108991999999999999999999MW1721
0035228020999991926031320004+61700+030683FM-12+001699999V0202501N008219999999N0000001N9-00671+99999098001ADDGF108991999999999999999999MW1721
0029228020999991926031406004+61700+030683FM-12+001699999V0203201N004119999999N0000001N9-00941+99999098321ADDGF108991999999999999999999
0029228020999991926031413004+61700+030683FM-12+001699999V0203601N006219999999N0000001N9-00501+99999098741ADDGF107991999999999999999999
0029228020999991926031420004+61700+030683FM-12+001699999V0203601N006219999999N0000001N9-00671+99999099001ADDGF108991999999999999999999
0029228020999991926031506004+61700+030683FM-12+001699999V0203201N002119999999N0000001N9-00611+99999098951ADDGF108991999999999999999999
0029228020999991926031513004+61700+030683FM-12+001699999V0203401N006219999999N0000001N9-00221+99999099261ADDGF108991999999999999999999
0029228020999991926031520004+61700+030683FM-12+001699999V0203201N002119999999N0000001N9-00501+99999099591ADDGF100991999999999999999999
0029228020999991926031606004+61700+030683FM-12+001699999V0203201N004119999999N0000001N9-00501+99999099951ADDGF108991999999999999999999
0029228020999991926031613004+61700+030683FM-12+001699999V0209991C000019999999N0000001N9-00391+99999100401ADDGF107991999999999999999999
0029228020999991926031620004+61700+030683FM-12+001699999V0209991C000019999999N0000001N9-00781+99999100821ADDGF108991999999999999999999
0035228020999991926031706004+61700+030683FM-12+001699999V0203601N001019999999N0000001N9-00941+99999101081ADDGF108991999999999999999999MW1701
0029228020999991926031713004+61700+030683FM-12+001699999V0203601N001019999999N0000001N9-00561+99999100711ADDGF108991999999999999999999
0029228020999991926031720004+61700+030683FM-12+001699999V0203601N006219999999N0000001N9-00561+99999100631ADDGF108991999999999999999999
0035228020999991926031806004+61700+030683FM-12+001699999V0209991C000019999999N0000001N9-00561+99999100841ADDGF108991999999999999999999MW1721
0035228020999991926031813004+61700+030683FM-12+001699999V0209991C000019999999N0000001N9-00831+99999101311ADDGF108991999999999999999999MW1721
0029228020999991926031820004+61700+030683FM-12+001699999V0209991C000019999999N0000001N9-01501+99999101621ADDGF100991999999999999999999
0029228020999991926031906004+61700+030683FM-12+001699999V0209991C000019999999N0000001N9-02281+99999101961ADDGF100991999999999999999999
0029228020999991926031913004+61700+030683FM-12+001699999V0209991C000019999999N0000001N9-00281+99999101901ADDGF100991999999999999999999
0029228020999991926031920004+61700+030683FM-12+001699999V0203601N002119999999N0000001N9-00561+99999102001ADDGF108991999999999999999999
0029228020999991926032006004+61700+030683FM-12+001699999V0203401N004119999999N0000001N9-00891+99999101681ADDGF106991999999999999999999
0029228020999991926032013004+61700+030683FM-12+001699999V0209991C000019999999N0000001N9-00111+99999101481ADDGF100991999999999999999999
0029228020999991926032020004+61700+030683FM-12+001699999V0209991C000019999999N0000001N9-00781+99999101381ADDGF100991999999999999999999
0029228020999991926032106004+61700+030683FM-12+001699999V0209991C000019999999N0000001N9-01111+99999101561ADDGF108991999999999999999999
0029228020999991926032113004+61700+030683FM-12+001699999V0203201N002119999999N0000001N9-00281+99999101541ADDGF108991999999999999999999
0029228020999991926032120004+61700+030683FM-12+001699999V0203201N002119999999N0000001N9-00831+99999101661ADDGF100991999999999999999999
0029228020999991926032206004+61700+030683FM-12+001699999V0203601N001019999999N0000001N9-01561+99999101751ADDGF101991999999999999999999
0029228020999991926032213004+61700+030683FM-12+001699999V0203601N001019999999N0000001N9-00501+99999101601ADDGF100991999999999999999999
0029228020999991926032220004+61700+030683FM-12+001699999V0209991C000019999999N0000001N9-01331+99999101481ADDGF100991999999999999999999
0029228020999991926032306004+61700+030683FM-12+001699999V0209991C000019999999N0000001N9-01281+99999101021ADDGF108991999999999999999999
0035228020999991926032313004+61700+030683FM-12+001699999V0201801N001019999999N0000001N9-00441+99999100591ADDGF108991999999999999999999MW1701
0029228020999991926032320004+61700+030683FM-12+001699999V0209991C000019999999N0000001N9-00281+99999100271ADDGF108991999999999999999999
0029228020999991926032406004+61700+030683FM-12+001699999V0209991C000019999999N0000001N9-00171+99999099301ADDGF108991999999999999999999
0029228020999991926032413004+61700+030683FM-12+001699999V0203201N006219999999N0000001N9+00001+99999098601ADDGF108991999999999999999999
0029228020999991926032420004+61700+030683FM-12+001699999V0203201N004119999999N0000001N9-00281+99999099061ADDGF103991999999999999999999
0029228020999991926032506004+61700+030683FM-12+001699999V0203201N008219999999N0000001N9-00391+99999099501ADDGF104991999999999999999999
0029228020999991926032513004+61700+030683FM-12+001699999V0203201N008219999999N0000001N9+00001+99999100341ADDGF108991999999999999999999
0029228020999991926032520004+61700+030683FM-12+001699999V0203201N002119999999N0000001N9-00281+99999101071ADDGF100991999999999999999999
0029228020999991926032606004+61700+030683FM-12+001699999V0203201N001019999999N0000001N9-01061+99999101341ADDGF102991999999999999999999
0029228020999991926032613004+61700+030683FM-12+001699999V0203201N004119999999N0000001N9+00171+99999101001ADDGF100991999999999999999999
0029228020999991926032620004+61700+030683FM-12+001699999V0203401N002119999999N0000001N9-00221+99999101161ADDGF100991999999999999999999
0029228020999991926032706004+61700+030683FM-12+001699999V0209991C000019999999N0000001N9-00941+99999102121ADDGF100991999999999999999999
0029228020999991926032713004+61700+030683FM-12+001699999V0201801N002119999999N0000001N9+00171+99999102321ADDGF100991999999999999999999
0029228020999991926032720004+61700+030683FM-12+001699999V0201401N001019999999N0000001N9-00391+99999102141ADDGF103991999999999999999999
0029228020999991926032806004+61700+030683FM-12+001699999V0209991C000019999999N0000001N9-01111+99999102161ADDGF100991999999999999999999
0029228020999991926032813004+61700+030683FM-12+001699999V0201401N002119999999N0000001N9+00111+99999102111ADDGF103991999999999999999999
0029228020999991926032820004+61700+030683FM-12+001699999V0201401N006219999999N0000001N9-00391+99999102031ADDGF100991999999999999999999
0029228020999991926032906004+61700+030683FM-12+001699999V0201401N002119999999N0000001N9-01001+99999102001ADDGF100991999999999999999999
0029228020999991926032913004+61700+030683FM-12+001699999V0201801N006219999999N0000001N9-00221+99999101991ADDGF100991999999999999999999
0029228020999991926032920004+61700+030683FM-12+001699999V0201401N001019999999N0000001N9-00671+99999101921ADDGF100991999999999999999999
0029228020999991926033006004+61700+030683FM-12+001699999V0209991C000019999999N0000001N9-01061+99999101791ADDGF108991999999999999999999
0029228020999991926033013004+61700+030683FM-12+001699999V0201401N004119999999N0000001N9-00281+99999101661ADDGF100991999999999999999999
0029228020999991926033020004+61700+030683FM-12+001699999V0201401N002119999999N0000001N9-00501+99999101401ADDGF108991999999999999999999
0029228020999991926033106004+61700+030683FM-12+001699999V0201401N004119999999N0000001N9-00781+99999100631ADDGF108991999999999999999999
0035228020999991926033113004+61700+030683FM-12+001699999V0201401N006219999999N0000001N9-00331+99999100031ADDGF108991999999999999999999MW1721
0029228020999991926033120004+61700+030683FM-12+001699999V0201801N002119999999N0000001N9-00221+99999099821ADDGF108991999999999999999999
0035228020999991926040106004+61700+030683FM-12+001699999V0201801N001019999999N0000001N9+00001+99999099881ADDGF108991999999999999999999MW1721
0029228020999991926040113004+61700+030683FM-12+001699999V0203201N001019999999N0000001N9+00111+99999100151ADDGF108991999999999999999999
0029228020999991926040120004+61700+030683FM-12+001699999V0209991C000019999999N0000001N9-00281+99999100361ADDGF108991999999999999999999
0035228020999991926040206004+61700+030683FM-12+001699999V0209991C000019999999N0000001N9-00171+99999101081ADDGF108991999999999999999999MW1721
0029228020999991926040213004+61700+030683FM-12+001699999V0203601N004119999999N0000001N9+00171+99999101751ADDGF108991999999999999999999
0029228020999991926040220004+61700+030683FM-12+001699999V0209991C000019999999N0000001N9-00061+99999102471ADDGF100991999999999999999999
0029228020999991926040306004+61700+030683FM-12+001699999V0200501N002119999999N0000001N9-00441+99999103111ADDGF108991999999999999999999
0029228020999991926040313004+61700+030683FM-12+001699999V0203601N002119999999N0000001N9-00171+99999103191ADDGF100991999999999999999999
0029228020999991926040320004+61700+030683FM-12+001699999V0209991C000019999999N0000001N9-00891+99999102991ADDGF100991999999999999999999
0035228020999991926040406004+61700+030683FM-12+001699999V0209991C000019999999N0000001N9-00941+99999102221ADDGF108991999999999999999999MW1721
0029228020999991926040413004+61700+030683FM-12+001699999V0209991C000019999999N0000001N9-00331+99999101511ADDGF108991999999999999999999
0029228020999991926040420004+61700+030683FM-12+001699999V0209991C000019999999N0000001N9-00281+99999101261ADDGF108991999999999999999999
0035228020999991926040506004+61700+030683FM-12+001699999V0209991C000019999999N0000001N9+00061+99999100391ADDGF108991999999999999999999MW1621
0029228020999991926040513004+61700+030683FM-12+001699999V0209991C000019999999N0000001N9+00221+99999099381ADDGF108991999999999999999999
0029228020999991926040520004+61700+030683FM-12+001699999V0209991C000019999999N0000001N9+00171+99999099471ADDGF108991999999999999999999
0035228020999991926040606004+61700+030683FM-12+001699999V0200701N004119999999N0000001N9-00561+99999100231ADDGF108991999999999999999999MW1721
0029228020999991926040613004+61700+030683FM-12+001699999V0203601N004119999999N0000001N9-00561+99999100661ADDGF108991999999999999999999
0029228020999991926040620004+61700+030683FM-12+001699999V0209991C000019999999N0000001N9-00941+99999101141ADDGF100991999999999999999999
0029228020999991926040706004+61700+030683FM-12+001699999V0203601N004119999999N0000001N9-00891+99999101621ADDGF100991999999999999999999
0029228020999991926040713004+61700+030683FM-12+001699999V0203601N002119999999N0000001N9-00111+99999101791ADDGF100991999999999999999999
0029228020999991926040720004+61700+030683FM-12+001699999V0203601N002119999999N0000001N9-00281+99999101861ADDGF100991999999999999999999
0029228020999991926040806004+61700+030683FM-12+001699999V0209991C000019999999N0000001N9-01061+99999101761ADDGF100991999999999999999999
0029228020999991926040813004+61700+030683FM-12+001699999V0209991C000019999999N0000001N9+00281+99999101441ADDGF100991999999999999999999
0029228020999991926040820004+61700+030683FM-12+001699999V0209991C000019999999N0000001N9-00891+99999101061ADDGF100991999999999999999999
0029228020999991926040906004+61700+030683FM-12+001699999V0209991C000019999999N0000001N9-01441+99999100831ADDGF108991999999999999999999
0029228020999991926040913004+61700+030683FM-12+001699999V0209991C000019999999N0000001N9+00001+99999100721ADDGF100991999999999999999999
0029228020999991926040920004+61700+030683FM-12+001699999V0209991C000019999999N0000001N9-00781+99999100601ADDGF103991999999999999999999
0029228020999991926041006004+61700+030683FM-12+001699999V0209991C000019999999N0000001N9-00831+99999100521ADDGF108991999999999999999999
0029228020999991926041013004+61700+030683FM-12+001699999V0201801N001019999999N0000001N9-00171+99999100431ADDGF100991999999999999999999
0035228020999991926041020004+61700+030683FM-12+001699999V0209991C000019999999N0000001N9-00111+99999100191ADDGF108991999999999999999999MW1721
0035228020999991926041106004+61700+030683FM-12+001699999V0209991C000019999999N0000001N9-00171+99999100111ADDGF108991999999999999999999MW1721
0029228020999991926041113004+61700+030683FM-12+001699999V0203201N002119999999N0000001N9+00331+99999100351ADDGF100991999999999999999999
0029228020999991926041120004+61700+030683FM-12+001699999V0209991C000019999999N0000001N9-00281+99999100631ADDGF100991999999999999999999
0029228020999991926041206004+61700+030683FM-12+001699999V0209991C000019999999N0000001N9-01331+99999100391ADDGF107991999999999999999999
0035228020999991926041213004+61700+030683FM-12+001699999V0202701N002119999999N0000001N9+00001+99999099921ADDGF108991999999999999999999MW1721
0029228020999991926041220004+61700+030683FM-12+001699999V0203201N006219999999N0000001N9-00111+99999100221ADDGF108991999999999999999999
0029228020999991926041306004+61700+030683FM-12+001699999V0209991C000019999999N0000001N9-00721+99999100641ADDGF100991999999999999999999
0029228020999991926041313004+61700+030683FM-12+001699999V0201401N001019999999N0000001N9-00111+99999100461ADDGF108991999999999999999999
0029228020999991926041320004+61700+030683FM-12+001699999V0209991C000019999999N0000001N9-00331+99999100561ADDGF108991999999999999999999
0029228020999991926041406004+61700+030683FM-12+001699999V0203401N001019999999N0000001N9-00611+99999101031ADDGF100991999999999999999999
0029228020999991926041413004+61700+030683FM-12+001699999V0203601N001019999999N0000001N9+00281+99999101301ADDGF106991999999999999999999
0029228020999991926041420004+61700+030683FM-12+001699999V0209991C000019999999N0000001N9-00111+99999101111ADDGF108991999999999999999999
0029228020999991926041506004+61700+030683FM-12+001699999V0209991C000019999999N0000001N9-00441+99999101241ADDGF100991999999999999999999
0029228020999991926041513004+61700+030683FM-12+001699999V0209991C000019999999N0000001N9+00331+99999101441ADDGF100991999999999999999999
0029228020999991926041520004+61700+030683FM-12+001699999V0209991C000019999999N0000001N9-00331+99999101601ADDGF106991999999999999999999
0029228020999991926041606004+61700+030683FM-12+001699999V0209991C000019999999N0000001N9-00501+99999101551ADDGF108991999999999999999999
0035228020999991926041613004+61700+030683FM-12+001699999V0201401N004119999999N0000001N9-00331+99999101381ADDGF108991999999999999999999MW1721
0029228020999991926041620004+61700+030683FM-12+001699999V0201401N006219999999N0000001N9-00221+99999101161ADDGF108991999999999999999999
0029228020999991926041706004+61700+030683FM-12+001699999V0201401N004119999999N0000001N9-00111+99999100581ADDGF108991999999999999999999
0029228020999991926041713004+61700+030683FM-12+001699999V0209991C000019999999N0000001N9+00331+99999100471ADDGF108991999999999999999999
0029228020999991926041720004+61700+030683FM-12+001699999V0203601N001019999999N0000001N9+00111+99999100581ADDGF108991999999999999999999
0029228020999991926041806004+61700+030683FM-12+001699999V0200501N001019999999N0000001N9+00111+99999100601ADDGF108991999999999999999999
0029228020999991926041813004+61700+030683FM-12+001699999V0209991C000019999999N0000001N9+00561+99999100561ADDGF108991999999999999999999
0029228020999991926041820004+61700+030683FM-12+001699999V0200901N002119999999N0000001N9+00391+99999100461ADDGF108991999999999999999999
0035228020999991926041906004+61700+030683FM-12+001699999V0209991C000019999999N0000001N9+00111+99999100121ADDGF108991999999999999999999MW1601
0035228020999991926041913004+61700+030683FM-12+001699999V0209991C000019999999N0000001N9+00221+99999099801ADDGF108991999999999999999999MW1601
0035228020999991926041920004+61700+030683FM-12+001699999V0209991C000019999999N0000001N9+00281+99999099821ADDGF108991999999999999999999MW1601
0029228020999991926042006004+61700+030683FM-12+001699999V0209991C000019999999N0000001N9+00281+99999999999ADDGF108991999999999999999999
0029228020999991926042013004+61700+030683FM-12+001699999V0209991C000019999999N0000001N9+00721+99999100101ADDGF108991999999999999999999
0029228020999991926042020004+61700+030683FM-12+001699999V0209991C000019999999N0000001N9+00501+99999100351ADDGF108991999999999999999999
0029228020999991926042106004+61700+030683FM-12+001699999V0209991C000019999999N0000001N9+00441+99999100471ADDGF108991999999999999999999
0029228020999991926042113004+61700+030683FM-12+001699999V0209991C000019999999N0000001N9+00501+99999100581ADDGF108991999999999999999999
0029228020999991926042120004+61700+030683FM-12+001699999V0209991C000019999999N0000001N9+00331+99999100841ADDGF108991999999999999999999
0029228020999991926042206004+61700+030683FM-12+001699999V0209991C000019999999N0000001N9+00441+99999100801ADDGF103991999999999999999999
0029228020999991926042213004+61700+030683FM-12+001699999V0201401N002119999999N0000001N9+00721+99999100721ADDGF108991999999999999999999
0029228020999991926042220004+61700+030683FM-12+001699999V0209991C000019999999N0000001N9+00221+99999101031ADDGF108991999999999999999999
0029228020999991926042306004+61700+030683FM-12+001699999V0209991C000019999999N0000001N9+00221+99999101311ADDGF108991999999999999999999
0029228020999991926042313004+61700+030683FM-12+001699999V0209991C000019999999N0000001N9+00501+99999101301ADDGF108991999999999999999999
0029228020999991926042320004+61700+030683FM-12+001699999V0209991C000019999999N0000001N9+00221+99999101311ADDGF108991999999999999999999
0029228020999991926042406004+61700+030683FM-12+001699999V0209991C000019999999N0000001N9+00281+99999101791ADDGF108991999999999999999999
0029228020999991926042413004+61700+030683FM-12+001699999V0209991C000019999999N0000001N9+00501+99999101951ADDGF108991999999999999999999
0029228020999991926042420004+61700+030683FM-12+001699999V0209991C000019999999N0000001N9+00331+99999102141ADDGF108991999999999999999999
0029228020999991926042506004+61700+030683FM-12+001699999V0209991C000019999999N0000001N9+00281+99999102271ADDGF108991999999999999999999
0029228020999991926042513004+61700+030683FM-12+001699999V0203201N002119999999N0000001N9+01001+99999102431ADDGF103991999999999999999999
0029228020999991926042520004+61700+030683FM-12+001699999V0209991C000019999999N0000001N9+00501+99999102561ADDGF108991999999999999999999
0029228020999991926042606004+61700+030683FM-12+001699999V0209991C000019999999N0000001N9+00391+99999102741ADDGF108991999999999999999999
0029228020999991926042613004+61700+030683FM-12+001699999V0209991C000019999999N0000001N9+00941+99999102801ADDGF100991999999999999999999
0029228020999991926042620004+61700+030683FM-12+001699999V0209991C000019999999N0000001N9+00331+99999102831ADDGF100991999999999999999999
0029228020999991926042706004+61700+030683FM-12+001699999V0209991C000019999999N0000001N9+00441+99999103121ADDGF100991999999999999999999
0029228020999991926042713004+61700+030683FM-12+001699999V0209991C000019999999N0000001N9+00831+99999103181ADDGF100991999999999999999999
0029228020999991926042720004+61700+030683FM-12+001699999V0209991C000019999999N0000001N9+00331+99999103221ADDGF106991999999999999999999
0029228020999991926042806004+61700+030683FM-12+001699999V0209991C000019999999N0000001N9-00061+99999103431ADDGF106991999999999999999999
0029228020999991926042813004+61700+030683FM-12+001699999V0200901N001019999999N0000001N9+00831+99999103161ADDGF100991999999999999999999
0029228020999991926042820004+61700+030683FM-12+001699999V0209991C000019999999N0000001N9+00221+99999102881ADDGF108991999999999999999999
0029228020999991926042906004+61700+030683FM-12+001699999V0209991C000019999999N0000001N9+00111+99999102741ADDGF100991999999999999999999
0029228020999991926042913004+61700+030683FM-12+001699999V0201401N001019999999N0000001N9+01111+99999102481ADDGF100991999999999999999999
0029228020999991926042920004+61700+030683FM-12+001699999V0209991C000019999999N0000001N9+00331+99999102361ADDGF108991999999999999999999
0029228020999991926043006004+61700+030683FM-12+001699999V0209991C000019999999N0000001N9+00171+99999102241ADDGF103991999999999999999999
0029228020999991926043013004+61700+030683FM-12+001699999V0209991C000019999999N0000001N9+01061+99999102111ADDGF108991999999999999999999
0035228020999991926043020004+61700+030683FM-12+001699999V0209991C000019999999N0000001N9+00611+99999101901ADDGF108991999999999999999999MW1621
0035228020999991926050106004+61700+030683FM-12+001699999V0200501N001019999999N0000001N9+00561+99999101421ADDGF108991999999999999999999MW1621
0035228020999991926050113004+61700+030683FM-12+001699999V0203601N001019999999N0000001N9+00671+99999101201ADDGF108991999999999999999999MW1621
0029228020999991926050120004+61700+030683FM-12+001699999V0203601N002119999999N0000001N9+00331+99999101221ADDGF108991999999999999999999
0029228020999991926050206004+61700+030683FM-12+001699999V0203601N002119999999N0000001N9+00441+99999101191ADDGF108991999999999999999999
0029228020999991926050213004+61700+030683FM-12+001699999V0203601N004119999999N0000001N9+00721+99999101321ADDGF108991999999999999999999
0029228020999991926050220004+61700+030683FM-12+001699999V0203601N004119999999N0000001N9+00221+99999101301ADDGF108991999999999999999999
0029228020999991926050306004+61700+030683FM-12+001699999V0203601N006219999999N0000001N9+00061+99999101151ADDGF108991999999999999999999
0029228020999991926050313004+61700+030683FM-12+001699999V0203601N006219999999N0000001N9+00171+99999100751ADDGF108991999999999999999999
0029228020999991926050320004+61700+030683FM-12+001699999V0203601N006219999999N0000001N9+00061+99999100661ADDGF108991999999999999999999
0029228020999991926050406004+61700+030683FM-12+001699999V0203601N008219999999N0000001N9-00171+99999101181ADDGF100991999999999999999999
0029228020999991926050413004+61700+030683FM-12+001699999V0203601N006219999999N0000001N9+00221+99999101541ADDGF100991999999999999999999
0029228020999991926050420004+61700+030683FM-12+001699999V0200701N004119999999N0000001N9-00111+99999101911ADDGF100991999999999999999999
0029228020999991926050506004+61700+030683FM-12+001699999V0200701N004119999999N0000001N9-00281+99999102281ADDGF100991999999999999999999
0029228020999991926050513004+61700+030683FM-12+001699999V0200901N002119999999N0000001N9+00221+99999102311ADDGF100991999999999999999999
0029228020999991926050520004+61700+030683FM-12+001699999V0209991C000019999999N0000001N9-00061+99999102241ADDGF100991999999999999999999
0029228020999991926050606004+61700+030683FM-12+001699999V0200901N001019999999N0000001N9+00061+99999102341ADDGF100991999999999999999999
0029228020999991926050613004+61700+030683FM-12+001699999V0201801N001019999999N0000001N9+00501+99999102151ADDGF100991999999999999999999
0029228020999991926050620004+61700+030683FM-12+001699999V0200701N001019999999N0000001N9+00111+99999101981ADDGF108991999999999999999999
0029228020999991926050706004+61700+030683FM-12+001699999V0200901N002119999999N0000001N9+00221+99999101841ADDGF108991999999999999999999
0029228020999991926050713004+61700+030683FM-12+001699999V0200901N002119999999N0000001N9+00501+99999101751ADDGF108991999999999999999999
0029228020999991926050720004+61700+030683FM-12+001699999V0209991C000019999999N0000001N9+00441+99999101631ADDGF108991999999999999999999
0029228020999991926050806004+61700+030683FM-12+001699999V0201401N002119999999N0000001N9+00331+99999101661ADDGF108991999999999999999999
0029228020999991926050813004+61700+030683FM-12+001699999V0201401N002119999999N0000001N9+00561+99999101551ADDGF108991999999999999999999
0029228020999991926050820004+61700+030683FM-12+001699999V0209991C000019999999N0000001N9+00561+99999101391ADDGF108991999999999999999999
0029228020999991926050906004+61700+030683FM-12+001699999V0200701N002119999999N0000001N9+00441+99999101201ADDGF108991999999999999999999
0029228020999991926050913004+61700+030683FM-12+001699999V0201401N001019999999N0000001N9+01001+99999100981ADDGF108991999999999999999999
0029228020999991926050920004+61700+030683FM-12+001699999V0200701N001019999999N0000001N9+00831+99999100791ADDGF108991999999999999999999
0029228020999991926051006004+61700+030683FM-12+001699999V0200901N001019999999N0000001N9+00611+99999100601ADDGF108991999999999999999999
0035228020999991926051013004+61700+030683FM-12+001699999V0200901N002119999999N0000001N9+00831+99999100641ADDGF108991999999999999999999MW1601
0029228020999991926051020004+61700+030683FM-12+001699999V0200901N001019999999N0000001N9+00671+99999100791ADDGF108991999999999999999999
0029228020999991926051106004+61700+030683FM-12+001699999V0200901N001019999999N0000001N9+00671+99999100681ADDGF108991999999999999999999
0029228020999991926051113004+61700+030683FM-12+001699999V0209991C000019999999N0000001N9+01111+99999100381ADDGF108991999999999999999999
0029228020999991926051120004+61700+030683FM-12+001699999V0209991C000019999999N0000001N9+00891+99999100431ADDGF108991999999999999999999
0029228020999991926051206004+61700+030683FM-12+001699999V0209991C000019999999N0000001N9+00781+99999100631ADDGF105991999999999999999999
0029228020999991926051213004+61700+030683FM-12+001699999V0209991C000019999999N0000001N9+00941+99999100821ADDGF108991999999999999999999
0029228020999991926051220004+61700+030683FM-12+001699999V0209991C000019999999N0000001N9+00671+99999101121ADDGF108991999999999999999999
0029228020999991926051306004+61700+030683FM-12+001699999V0209991C000019999999N0000001N9+00611+99999101351ADDGF103991999999999999999999
0029228020999991926051313004+61700+030683FM-12+001699999V0201401N004119999999N0000001N9+01061+99999101381ADDGF101991999999999999999999
0029228020999991926051320004+61700+030683FM-12+001699999V0201401N001019999999N0000001N9+00561+99999101301ADDGF108991999999999999999999
0035228020999991926051406004+61700+030683FM-12+001699999V0209991C000019999999N0000001N9+00441+99999101281ADDGF108991999999999999999999MW1621
0029228020999991926051413004+61700+030683FM-12+001699999V0209991C000019999999N0000001N9+00721+99999101231ADDGF108991999999999999999999
0029228020999991926051420004+61700+030683FM-12+001699999V0209991C000019999999N0000001N9+00611+99999101031ADDGF107991999999999999999999
0029228020999991926051506004+61700+030683FM-12+001699999V0209991C000019999999N0000001N9+00721+99999101111ADDGF108991999999999999999999
0029228020999991926051513004+61700+030683FM-12+001699999V0202701N001019999999N0000001N9+01391+99999101121ADDGF105991999999999999999999
0029228020999991926051520004+61700+030683FM-12+001699999V0209991C000019999999N0000001N9+00831+99999101141ADDGF108991999999999999999999
0029228020999991926051606004+61700+030683FM-12+001699999V0209991C000019999999N0000001N9+00611+99999101231ADDGF108991999999999999999999
0029228020999991926051613004+61700+030683FM-12+001699999V0201401N002119999999N0000001N9+00831+99999101221ADDGF108991999999999999999999
0029228020999991926051620004+61700+030683FM-12+001699999V0209991C000019999999N0000001N9+00611+99999101121ADDGF108991999999999999999999
0029228020999991926051706004+61700+030683FM-12+001699999V0209991C000019999999N0000001N9+00831+99999101031ADDGF108991999999999999999999
0029228020999991926051713004+61700+030683FM-12+001699999V0209991C000019999999N0000001N9+00831+99999100681ADDGF108991999999999999999999
0029228020999991926051720004+61700+030683FM-12+001699999V0209991C000019999999N0000001N9+00891+99999100661ADDGF108991999999999999999999
0029228020999991926051806004+61700+030683FM-12+001699999V0203601N002119999999N0000001N9+00561+99999101061ADDGF108991999999999999999999
0029228020999991926051813004+61700+030683FM-12+001699999V0209991C000019999999N0000001N9+01561+99999101241ADDGF100991999999999999999999
0029228020999991926051820004+61700+030683FM-12+001699999V0209991C000019999999N0000001N9+00941+99999101401ADDGF102991999999999999999999
0029228020999991926051906004+61700+030683FM-12+001699999V0209991C000019999999N0000001N9+01171+99999101581ADDGF100991999999999999999999
0029228020999991926051913004+61700+030683FM-12+001699999V0209991C000019999999N0000001N9+01941+99999101661ADDGF105991999999999999999999
0029228020999991926051920004+61700+030683FM-12+001699999V0209991C000019999999N0000001N9+01171+99999101761ADDGF100991999999999999999999
0029228020999991926052006004+61700+030683FM-12+001699999V0200901N002119999999N0000001N9+01111+99999102261ADDGF105991999999999999999999
0029228020999991926052013004+61700+030683FM-12+001699999V0200901N002119999999N0000001N9+01671+99999102241ADDGF107991999999999999999999
0029228020999991926052020004+61700+030683FM-12+001699999V0200701N002119999999N0000001N9+01171+99999102391ADDGF108991999999999999999999
0029228020999991926052106004+61700+030683FM-12+001699999V0200901N002119999999N0000001N9+01221+99999102401ADDGF100991999999999999999999
0029228020999991926052113004+61700+030683FM-12+001699999V0201401N002119999999N0000001N9+01611+99999102231ADDGF100991999999999999999999
0029228020999991926052120004+61700+030683FM-12+001699999V0209991C000019999999N0000001N9+01221+99999102021ADDGF105991999999999999999999
0029228020999991926052206004+61700+030683FM-12+001699999V0209991C000019999999N0000001N9+00941+99999101871ADDGF108991999999999999999999
0029228020999991926052213004+61700+030683FM-12+001699999V0209991C000019999999N0000001N9+01831+99999101801ADDGF100991999999999999999999
0029228020999991926052220004+61700+030683FM-12+001699999V0209991C000019999999N0000001N9+01281+99999101661ADDGF102991999999999999999999
0029228020999991926052306004+61700+030683FM-12+001699999V0203601N001019999999N0000001N9+01611+99999101601ADDGF107991999999999999999999
0029228020999991926052313004+61700+030683FM-12+001699999V0203601N001019999999N0000001N9+02061+99999101481ADDGF107991999999999999999999
0029228020999991926052320004+61700+030683FM-12+001699999V0209991C000019999999N0000001N9+01611+99999101311ADDGF104991999999999999999999
0029228020999991926052406004+61700+030683FM-12+001699999V0209991C000019999999N0000001N9+01281+99999101061ADDGF106991999999999999999999
0029228020999991926052413004+61700+030683FM-12+001699999V0201401N002119999999N0000001N9+01671+99999100901ADDGF108991999999999999999999
0029228020999991926052420004+61700+030683FM-12+001699999V0209991C000019999999N0000001N9+01391+99999100861ADDGF108991999999999999999999
0029228020999991926052506004+61700+030683FM-12+001699999V0200201N002119999999N0000001N9+01001+99999100801ADDGF108991999999999999999999
0035228020999991926052513004+61700+030683FM-12+001699999V0200201N002119999999N0000001N9+00721+99999100791ADDGF108991999999999999999999MW1621
0029228020999991926052520004+61700+030683FM-12+001699999V0209991C000019999999N0000001N9+00781+99999101161ADDGF100991999999999999999999
0029228020999991926052606004+61700+030683FM-12+001699999V0203601N001019999999N0000001N9+00721+99999101721ADDGF102991999999999999999999
0029228020999991926052613004+61700+030683FM-12+001699999V0201401N001019999999N0000001N9+00941+99999101701ADDGF108991999999999999999999
0035228020999991926052620004+61700+030683FM-12+001699999V0203601N002119999999N0000001N9+00721+99999101401ADDGF108991999999999999999999MW1621
0029228020999991926052706004+61700+030683FM-12+001699999V0209991C000019999999N0000001N9+00721+99999101741ADDGF100991999999999999999999
0029228020999991926052713004+61700+030683FM-12+001699999V0201801N004119999999N0000001N9+00891+99999101721ADDGF102991999999999999999999
0029228020999991926052720004+61700+030683FM-12+001699999V0201801N004119999999N0000001N9+00561+99999101551ADDGF108991999999999999999999
0035228020999991926052806004+61700+030683FM-12+001699999V0201801N004119999999N0000001N9+00671+99999101381ADDGF108991999999999999999999MW1621
0035228020999991926052813004+61700+030683FM-12+001699999V0201801N001019999999N0000001N9+00721+99999101581ADDGF108991999999999999999999MW1601
0029228020999991926052820004+61700+030683FM-12+001699999V0200501N001019999999N0000001N9+00671+99999101641ADDGF108991999999999999999999
0035228020999991926052906004+61700+030683FM-12+001699999V0200901N002119999999N0000001N9+00671+99999101861ADDGF108991999999999999999999MW1601
0029228020999991926052913004+61700+030683FM-12+001699999V0201401N004119999999N0000001N9+01221+99999101911ADDGF108991999999999999999999
0029228020999991926052920004+61700+030683FM-12+001699999V0200901N002119999999N0000001N9+00941+99999101941ADDGF102991999999999999999999
0029228020999991926053006004+61700+030683FM-12+001699999V0201401N006219999999N0000001N9+01061+99999101861ADDGF102991999999999999999999
0029228020999991926053013004+61700+030683FM-12+001699999V0201401N004119999999N0000001N9+01671+99999101601ADDGF106991999999999999999999
0029228020999991926053020004+61700+030683FM-12+001699999V0201401N004119999999N0000001N9+01441+99999101401ADDGF105991999999999999999999
0029228020999991926053106004+61700+030683FM-12+001699999V0201401N006219999999N0000001N9+01171+99999101241ADDGF108991999999999999999999
0029228020999991926053113004+61700+030683FM-12+001699999V0201401N004119999999N0000001N9+01281+99999101121ADDGF108991999999999999999999
0029228020999991926053120004+61700+030683FM-12+001699999V0209991C000019999999N0000001N9+01221+99999101071ADDGF108991999999999999999999
0029228020999991926060106004+61700+030683FM-12+001699999V0209991C000019999999N0000001N9+00941+99999101261ADDGF108991999999999999999999
0029228020999991926060113004+61700+030683FM-12+001699999V0201401N001019999999N0000001N9+01561+99999101281ADDGF100991999999999999999999
0029228020999991926060120004+61700+030683FM-12+001699999V0201401N002119999999N0000001N9+01171+99999101271ADDGF108991999999999999999999
0029228020999991926060206004+61700+030683FM-12+001699999V0201401N001019999999N0000001N9+01391+99999101071ADDGF105991999999999999999999
0029228020999991926060213004+61700+030683FM-12+001699999V0201401N002119999999N0000001N9+01721+99999101081ADDGF100991999999999999999999
0029228020999991926060220004+61700+030683FM-12+001699999V0209991C000019999999N0000001N9+01561+99999101431ADDGF100991999999999999999999
0029228020999991926060306004+61700+030683FM-12+001699999V0209991C000019999999N0000001N9+01561+99999101721ADDGF100991999999999999999999
0029228020999991926060313004+61700+030683FM-12+001699999V0201401N001019999999N0000001N9+01941+99999101711ADDGF100991999999999999999999
0029228020999991926060320004+61700+030683FM-12+001699999V0209991C000019999999N0000001N9+01501+99999101831ADDGF108991999999999999999999
0029228020999991926060406004+61700+030683FM-12+001699999V0201401N001019999999N0000001N9+01221+99999101631ADDGF108991999999999999999999
0029228020999991926060413004+61700+030683FM-12+001699999V0201401N002119999999N0000001N9+01781+99999101561ADDGF106991999999999999999999
0029228020999991926060420004+61700+030683FM-12+001699999V0209991C000019999999N0000001N9+01501+99999101561ADDGF106991999999999999999999
0029228020999991926060506004+61700+030683FM-12+001699999V0200901N002119999999N0000001N9+01671+99999101551ADDGF106991999999999999999999
0029228020999991926060513004+61700+030683FM-12+001699999V0200901N001019999999N0000001N9+02281+99999101751ADDGF107991999999999999999999
0029228020999991926060520004+61700+030683FM-12+001699999V0209991C000019999999N0000001N9+01831+99999101861ADDGF103991999999999999999999
0029228020999991926060606004+61700+030683FM-12+001699999V0209991C000019999999N0000001N9+01831+99999101861ADDGF100991999999999999999999
0029228020999991926060613004+61700+030683FM-12+001699999V0209991C000019999999N0000001N9+02441+99999101801ADDGF104991999999999999999999
0029228020999991926060620004+61700+030683FM-12+001699999V0209991C000019999999N0000001N9+02001+99999101791ADDGF100991999999999999999999
0029228020999991926060706004+61700+030683FM-12+001699999V0209991C000019999999N0000001N9+01891+99999101871ADDGF103991999999999999999999
0029228020999991926060713004+61700+030683FM-12+001699999V0201601N004119999999N0000001N9+02391+99999101581ADDGF103991999999999999999999
0029228020999991926060720004+61700+030683FM-12+001699999V0201601N001019999999N0000001N9+01891+99999101391ADDGF104991999999999999999999
0029228020999991926060806004+61700+030683FM-12+001699999V0201601N001019999999N0000001N9+01941+99999100721ADDGF100991999999999999999999
0029228020999991926060813004+61700+030683FM-12+001699999V0201601N001019999999N0000001N9+02171+99999100701ADDGF102991999999999999999999
0029228020999991926060820004+61700+030683FM-12+001699999V0200701N008219999999N0000001N9+01111+99999101061ADDGF108991999999999999999999
0029228020999991926060906004+61700+030683FM-12+001699999V0201601N004119999999N0000001N9+00781+99999101641ADDGF108991999999999999999999
0029228020999991926060913004+61700+030683FM-12+001699999V0200701N006219999999N0000001N9+01281+99999101861ADDGF102991999999999999999999
0029228020999991926060920004+61700+030683FM-12+001699999V0200701N004119999999N0000001N9+00831+99999101871ADDGF100991999999999999999999
0029228020999991926061006004+61700+030683FM-12+001699999V0200901N004119999999N0000001N9+00721+99999102021ADDGF100991999999999999999999
0029228020999991926061013004+61700+030683FM-12+001699999V0200901N004119999999N0000001N9+01331+99999101921ADDGF101991999999999999999999
0029228020999991926061020004+61700+030683FM-12+001699999V0209991C000019999999N0000001N9+00891+99999102121ADDGF102991999999999999999999
0029228020999991926061106004+61700+030683FM-12+001699999V0201401N002119999999N0000001N9+01001+99999102181ADDGF100991999999999999999999
0029228020999991926061113004+61700+030683FM-12+001699999V0201801N004119999999N0000001N9+01501+99999101941ADDGF102991999999999999999999
0029228020999991926061120004+61700+030683FM-12+001699999V0209991C000019999999N0000001N9+01001+99999101901ADDGF100991999999999999999999
0029228020999991926061206004+61700+030683FM-12+001699999V0201401N002119999999N0000001N9+01171+99999102021ADDGF100991999999999999999999
0029228020999991926061213004+61700+030683FM-12+001699999V0201801N002119999999N0000001N9+01831+99999101861ADDGF104991999999999999999999
0029228020999991926061220004+61700+030683FM-12+001699999V0209991C000019999999N0000001N9+01391+99999101831ADDGF100991999999999999999999
0029228020999991926061306004+61700+030683FM-12+001699999V0209991C000019999999N0000001N9+01721+99999101861ADDGF100991999999999999999999
0029228020999991926061313004+61700+030683FM-12+001699999V0209991C000019999999N0000001N9+02331+99999101641ADDGF106991999999999999999999
0029228020999991926061320004+61700+030683FM-12+001699999V0209991C000019999999N0000001N9+01891+99999101501ADDGF107991999999999999999999
0029228020999991926061406004+61700+030683FM-12+001699999V0209991C000019999999N0000001N9+02061+99999101391ADDGF101991999999999999999999
0029228020999991926061413004+61700+030683FM-12+001699999V0203601N006219999999N0000001N9+02281+99999101181ADDGF106991999999999999999999
0029228020999991926061420004+61700+030683FM-12+001699999V0209991C000019999999N0000001N9+01281+99999101241ADDGF108991999999999999999999
0029228020999991926061506004+61700+030683FM-12+001699999V0209991C000019999999N0000001N9+01391+99999101231ADDGF100991999999999999999999
0029228020999991926061513004+61700+030683FM-12+001699999V0201801N002119999999N0000001N9+02001+99999100981ADDGF107991999999999999999999
0029228020999991926061520004+61700+030683FM-12+001699999V0209991C000019999999N0000001N9+01281+99999100681ADDGF108991999999999999999999
0035228020999991926061606004+61700+030683FM-12+001699999V0209991C000019999999N0000001N9+01331+99999099921ADDGF108991999999999999999999MW1621
0035228020999991926061613004+61700+030683FM-12+001699999V0203601N004119999999N0000001N9+01221+99999099561ADDGF108991999999999999999999MW1621
0029228020999991926061620004+61700+030683FM-12+001699999V0203601N006219999999N0000001N9+01001+99999099761ADDGF108991999999999999999999
0029228020999991926061706004+61700+030683FM-12+001699999V0203601N006219999999N0000001N9+00781+99999099821ADDGF108991999999999999999999
0029228020999991926061713004+61700+030683FM-12+001699999V0203201N006219999999N0000001N9+00941+99999099951ADDGF108991999999999999999999
0029228020999991926061720004+61700+030683FM-12+001699999V0203201N004119999999N0000001N9+00781+99999099861ADDGF108991999999999999999999
0035228020999991926061806004+61700+030683FM-12+001699999V0203401N002119999999N0000001N9+00561+99999099701ADDGF108991999999999999999999MW1601
0029228020999991926061813004+61700+030683FM-12+001699999V0203201N004119999999N0000001N9+01001+99999099701ADDGF108991999999999999999999
0029228020999991926061820004+61700+030683FM-12+001699999V0203201N001019999999N0000001N9+00831+99999099751ADDGF108991999999999999999999
0029228020999991926061906004+61700+030683FM-12+001699999V0203201N004119999999N0000001N9+00721+99999099901ADDGF108991999999999999999999
0029228020999991926061913004+61700+030683FM-12+001699999V0203201N006219999999N0000001N9+00831+99999100151ADDGF108991999999999999999999
0029228020999991926061920004+61700+030683FM-12+001699999V0201801N006219999999N0000001N9+00781+99999100321ADDGF108991999999999999999999
0029228020999991926062006004+61700+030683FM-12+001699999V0202301N006219999999N0000001N9+01171+99999100351ADDGF102991999999999999999999
0029228020999991926062013004+61700+030683FM-12+001699999V0201801N008219999999N0000001N9+01501+99999100361ADDGF106991999999999999999999
0029228020999991926062020004+61700+030683FM-12+001699999V0201801N002119999999N0000001N9+01171+99999100391ADDGF102991999999999999999999
0029228020999991926062106004+61700+030683FM-12+001699999V0209991C000019999999N0000001N9+01001+99999100441ADDGF108991999999999999999999
0029228020999991926062113004+61700+030683FM-12+001699999V0201401N004119999999N0000001N9+01501+99999100461ADDGF102991999999999999999999
0029228020999991926062120004+61700+030683FM-12+001699999V0209991C000019999999N0000001N9+01221+99999100471ADDGF108991999999999999999999
0029228020999991926062206004+61700+030683FM-12+001699999V0201401N002119999999N0000001N9+01111+99999100471ADDGF104991999999999999999999
0029228020999991926062213004+61700+030683FM-12+001699999V0201801N004119999999N0000001N9+01061+99999100481ADDGF108991999999999999999999
0029228020999991926062220004+61700+030683FM-12+001699999V0209991C000019999999N0000001N9+00941+99999100461ADDGF102991999999999999999999
0029228020999991926062306004+61700+030683FM-12+001699999V0201401N001019999999N0000001N9+01001+99999100471ADDGF108991999999999999999999
0029228020999991926062313004+61700+030683FM-12+001699999V0201801N004119999999N0000001N9+01111+99999100141ADDGF108991999999999999999999
0029228020999991926062320004+61700+030683FM-12+001699999V0202301N004119999999N0000001N9+01561+99999100471ADDGF100991999999999999999999
0029228020999991926062406004+61700+030683FM-12+001699999V0201401N001019999999N0000001N9+01281+99999100991ADDGF100991999999999999999999
0029228020999991926062413004+61700+030683FM-12+001699999V0201801N004119999999N0000001N9+01671+99999101151ADDGF103991999999999999999999
0029228020999991926062420004+61700+030683FM-12+001699999V0201801N002119999999N0000001N9+01171+99999101241ADDGF108991999999999999999999
0029228020999991926062506004+61700+030683FM-12+001699999V0201601N001019999999N0000001N9+01221+99999101441ADDGF108991999999999999999999
0029228020999991926062513004+61700+030683FM-12+001699999V0201801N002119999999N0000001N9+02061+99999101521ADDGF102991999999999999999999
0029228020999991926062520004+61700+030683FM-12+001699999V0209991C000019999999N0000001N9+01501+99999101671ADDGF107991999999999999999999
0029228020999991926062606004+61700+030683FM-12+001699999V0209991C000019999999N0000001N9+01781+99999101841ADDGF108991999999999999999999
0035228020999991926062613004+61700+030683FM-12+001699999V0209991C000019999999N0000001N9+02001+99999101781ADDGF107991999999999999999999MW1621
0029228020999991926062620004+61700+030683FM-12+001699999V0209991C000019999999N0000001N9+01891+99999101671ADDGF105991999999999999999999
0029228020999991926062706004+61700+030683FM-12+001699999V0200901N001019999999N0000001N9+01721+99999101681ADDGF104991999999999999999999
0029228020999991926062713004+61700+030683FM-12+001699999V0201401N002119999999N0000001N9+02721+99999101581ADDGF100991999999999999999999
0029228020999991926062720004+61700+030683FM-12+001699999V0209991C000019999999N0000001N9+02281+99999101561ADDGF106991999999999999999999
0029228020999991926062806004+61700+030683FM-12+001699999V0200901N001019999999N0000001N9+02281+99999101561ADDGF100991999999999999999999
0029228020999991926062813004+61700+030683FM-12+001699999V0200901N001019999999N0000001N9+02721+99999101501ADDGF100991999999999999999999
0029228020999991926062820004+61700+030683FM-12+001699999V0209991C000019999999N0000001N9+02331+99999101391ADDGF108991999999999999999999
0029228020999991926062906004+61700+030683FM-12+001699999V0209991C000019999999N0000001N9+01941+99999101711ADDGF108991999999999999999999
0029228020999991926062913004+61700+030683FM-12+001699999V0209991C000019999999N0000001N9+02561+99999101681ADDGF108991999999999999999999
0029228020999991926062920004+61700+030683FM-12+001699999V0202701N004119999999N0000001N9+01831+99999101841ADDGF108991999999999999999999
0029228020999991926063006004+61700+030683FM-12+001699999V0202701N002119999999N0000001N9+01561+99999101701ADDGF108991999999999999999999
0029228020999991926063013004+61700+030683FM-12+001699999V0203601N001019999999N0000001N9+02061+99999101821ADDGF107991999999999999999999
0029228020999991926063020004+61700+030683FM-12+001699999V0209991C000019999999N0000001N9+01781+99999101791ADDGF105991999999999999999999
0029228020999991926070106004+61700+030683FM-12+001699999V0203201N002119999999N0000001N9+01941+99999101911ADDGF100991999999999999999999
0029228020999991926070113004+61700+030683FM-12+001699999V0203601N002119999999N0000001N9+02391+99999102161ADDGF102991999999999999999999
0029228020999991926070120004+61700+030683FM-12+001699999V0209991C000019999999N0000001N9+01831+99999102341ADDGF100991999999999999999999
0029228020999991926070206004+61700+030683FM-12+001699999V0203201N001019999999N0000001N9+01561+99999102951ADDGF100991999999999999999999
0029228020999991926070213004+61700+030683FM-12+001699999V0201801N002119999999N0000001N9+01831+99999102681ADDGF102991999999999999999999
0029228020999991926070220004+61700+030683FM-12+001699999V0201801N001019999999N0000001N9+01561+99999102261ADDGF103991999999999999999999
0029228020999991926070306004+61700+030683FM-12+001699999V0209991C000019999999N0000001N9+01721+99999102081ADDGF102991999999999999999999
0029228020999991926070313004+61700+030683FM-12+001699999V0201801N004119999999N0000001N9+02501+99999101621ADDGF100991999999999999999999
0029228020999991926070320004+61700+030683FM-12+001699999V0203201N001019999999N0000001N9+01611+99999101551ADDGF105991999999999999999999
0029228020999991926070406004+61700+030683FM-12+001699999V0203201N001019999999N0000001N9+01671+99999101311ADDGF105991999999999999999999
0029228020999991926070413004+61700+030683FM-12+001699999V0203201N004119999999N0000001N9+01781+99999101101ADDGF107991999999999999999999
0029228020999991926070420004+61700+030683FM-12+001699999V0203201N002119999999N0000001N9+01561+99999100871ADDGF106991999999999999999999
0029228020999991926070506004+61700+030683FM-12+001699999V0200201N004119999999N0000001N9+01391+99999101231ADDGF108991999999999999999999
0029228020999991926070513004+61700+030683FM-12+001699999V0203601N004119999999N0000001N9+01781+99999101341ADDGF106991999999999999999999
0029228020999991926070520004+61700+030683FM-12+001699999V0209991C000019999999N0000001N9+01391+99999101311ADDGF100991999999999999999999
0029228020999991926070606004+61700+030683FM-12+001699999V0209991C000019999999N0000001N9+01331+99999101321ADDGF107991999999999999999999
0029228020999991926070613004+61700+030683FM-12+001699999V0203201N001019999999N0000001N9+02111+99999101041ADDGF106991999999999999999999
0029228020999991926070620004+61700+030683FM-12+001699999V0203201N001019999999N0000001N9+01441+99999100721ADDGF108991999999999999999999
0029228020999991926070706004+61700+030683FM-12+001699999V0203201N004119999999N0000001N9+01501+99999100661ADDGF106991999999999999999999
0029228020999991926070713004+61700+030683FM-12+001699999V0203201N008219999999N0000001N9+01831+99999100781ADDGF106991999999999999999999
0029228020999991926070720004+61700+030683FM-12+001699999V0203201N001019999999N0000001N9+01331+99999101121ADDGF100991999999999999999999
0029228020999991926070806004+61700+030683FM-12+001699999V0200501N006219999999N0000001N9+01391+99999101551ADDGF106991999999999999999999
0029228020999991926070813004+61700+030683FM-12+001699999V0203601N008219999999N0000001N9+01391+99999101681ADDGF108991999999999999999999
0029228020999991926070820004+61700+030683FM-12+001699999V0209991C000019999999N0000001N9+01331+99999101641ADDGF106991999999999999999999
0029228020999991926070906004+61700+030683FM-12+001699999V0202901N001019999999N0000001N9+01391+99999101831ADDGF103991999999999999999999
0029228020999991926070913004+61700+030683FM-12+001699999V0209991C000019999999N0000001N9+01891+99999101711ADDGF108991999999999999999999
0029228020999991926070920004+61700+030683FM-12+001699999V0201801N001019999999N0000001N9+01501+99999101561ADDGF105991999999999999999999
0029228020999991926071006004+61700+030683FM-12+001699999V0209991C000019999999N0000001N9+01781+99999101441ADDGF104991999999999999999999
0029228020999991926071013004+61700+030683FM-12+001699999V0202301N004119999999N0000001N9+02221+99999101241ADDGF106991999999999999999999
0029228020999991926071020004+61700+030683FM-12+001699999V0209991C000019999999N0000001N9+01781+99999101121ADDGF105991999999999999999999
0029228020999991926071106004+61700+030683FM-12+001699999V0203201N001019999999N0000001N9+02001+99999101261ADDGF100991999999999999999999
0029228020999991926071113004+61700+030683FM-12+001699999V0203201N001019999999N0000001N9+02331+99999101231ADDGF106991999999999999999999
0035228020999991926071120004+61700+030683FM-12+001699999V0203201N008219999999N0000001N9+01831+99999101391ADDGF108991999999999999999999MW1621
0029228020999991926071206004+61700+030683FM-12+001699999V0209991C000019999999N0000001N9+01611+99999101261ADDGF108991999999999999999999
0029228020999991926071213004+61700+030683FM-12+001699999V0201801N004119999999N0000001N9+02111+99999100961ADDGF108991999999999999999999
0029228020999991926071220004+61700+030683FM-12+001699999V0209991C000019999999N0000001N9+01781+99999100821ADDGF107991999999999999999999
0029228020999991926071306004+61700+030683FM-12+001699999V0203201N004119999999N0000001N9+01941+99999101021ADDGF106991999999999999999999
0029228020999991926071313004+61700+030683FM-12+001699999V0203201N004119999999N0000001N9+02001+99999101041ADDGF108991999999999999999999
0029228020999991926071320004+61700+030683FM-12+001699999V0202301N004119999999N0000001N9+02221+99999100381ADDGF106991999999999999999999
0029228020999991926071406004+61700+030683FM-12+001699999V0203201N008219999999N0000001N9+02001+99999100461ADDGF106991999999999999999999
0029228020999991926071413004+61700+030683FM-12+001699999V0203201N006219999999N0000001N9+02111+99999100601ADDGF105991999999999999999999
0029228020999991926071420004+61700+030683FM-12+001699999V0209991C000019999999N0000001N9+01781+99999100421ADDGF106991999999999999999999
0029228020999991926071506004+61700+030683FM-12+001699999V0203201N009819999999N0000001N9+01721+99999099361ADDGF107991999999999999999999
0029228020999991926071513004+61700+030683FM-12+001699999V0203201N008219999999N0000001N9+01941+99999099781ADDGF106991999999999999999999
0029228020999991926071520004+61700+030683FM-12+001699999V0203201N002119999999N0000001N9+01331+99999100021ADDGF100991999999999999999999
0029228020999991926071606004+61700+030683FM-12+001699999V0203601N002119999999N0000001N9+01611+99999100341ADDGF100991999999999999999999
0029228020999991926071613004+61700+030683FM-12+001699999V0203601N001019999999N0000001N9+01831+99999100551ADDGF107991999999999999999999
0029228020999991926071620004+61700+030683FM-12+001699999V0209991C000019999999N0000001N9+01391+99999100831ADDGF102991999999999999999999
0029228020999991926071706004+61700+030683FM-12+001699999V0203601N001019999999N0000001N9+01331+99999101101ADDGF108991999999999999999999
0029228020999991926071713004+61700+030683FM-12+001699999V0201801N002119999999N0000001N9+01561+99999101151ADDGF106991999999999999999999
0029228020999991926071720004+61700+030683FM-12+001699999V0209991C000019999999N0000001N9+01281+99999101201ADDGF102991999999999999999999
0029228020999991926071806004+61700+030683FM-12+001699999V0201801N001019999999N0000001N9+01331+99999101361ADDGF108991999999999999999999
0029228020999991926071813004+61700+030683FM-12+001699999V0201801N002119999999N0000001N9+01721+99999101281ADDGF106991999999999999999999
0029228020999991926071820004+61700+030683FM-12+001699999V0209991C000019999999N0000001N9+01501+99999101191ADDGF106991999999999999999999
0029228020999991926071906004+61700+030683FM-12+001699999V0209991C000019999999N0000001N9+01391+99999101021ADDGF107991999999999999999999
0029228020999991926071913004+61700+030683FM-12+001699999V0201801N004119999999N0000001N9+01941+99999100791ADDGF100991999999999999999999
0029228020999991926071920004+61700+030683FM-12+001699999V0209991C000019999999N0000001N9+01611+99999100561ADDGF103991999999999999999999
0029228020999991926072006004+61700+030683FM-12+001699999V0209991C000019999999N0000001N9+01561+99999100311ADDGF108991999999999999999999
0035228020999991926072013004+61700+030683FM-12+001699999V0209991C000019999999N0000001N9+01831+99999100381ADDGF108991999999999999999999MW1601
0029228020999991926072020004+61700+030683FM-12+001699999V0209991C000019999999N0000001N9+01391+99999100271ADDGF104991999999999999999999
0029228020999991926072106004+61700+030683FM-12+001699999V0209991C000019999999N0000001N9+01501+99999100221ADDGF100991999999999999999999
0029228020999991926072113004+61700+030683FM-12+001699999V0203601N002119999999N0000001N9+02331+99999099921ADDGF103991999999999999999999
0029228020999991926072120004+61700+030683FM-12+001699999V0200701N002119999999N0000001N9+01831+99999999999ADDGF103991999999999999999999
0029228020999991926072206004+61700+030683FM-12+001699999V0200701N004119999999N0000001N9+01501+99999100281ADDGF102991999999999999999999
0029228020999991926072213004+61700+030683FM-12+001699999V0200901N006219999999N0000001N9+01831+99999100341ADDGF102991999999999999999999
0029228020999991926072220004+61700+030683FM-12+001699999V0200901N001019999999N0000001N9+01441+99999100501ADDGF100991999999999999999999
0029228020999991926072306004+61700+030683FM-12+001699999V0200901N002119999999N0000001N9+01501+99999100631ADDGF100991999999999999999999
0029228020999991926072313004+61700+030683FM-12+001699999V0201401N004119999999N0000001N9+02171+99999100511ADDGF100991999999999999999999
0029228020999991926072320004+61700+030683FM-12+001699999V0209991C000019999999N0000001N9+01611+99999100591ADDGF100991999999999999999999
0029228020999991926072406004+61700+030683FM-12+001699999V0209991C000019999999N0000001N9+01671+99999100511ADDGF100991999999999999999999
0029228020999991926072413004+61700+030683FM-12+001699999V0201401N004119999999N0000001N9+02221+99999100381ADDGF100991999999999999999999
0029228020999991926072420004+61700+030683FM-12+001699999V0209991C000019999999N0000001N9+01721+99999100241ADDGF108991999999999999999999
0029228020999991926072506004+61700+030683FM-12+001699999V0209991C000019999999N0000001N9+01941+99999100261ADDGF106991999999999999999999
0029228020999991926072513004+61700+030683FM-12+001699999V0201401N002119999999N0000001N9+02561+99999100301ADDGF105991999999999999999999
0029228020999991926072520004+61700+030683FM-12+001699999V0209991C000019999999N0000001N9+01941+99999100281ADDGF100991999999999999999999
0029228020999991926072606004+61700+030683FM-12+001699999V0209991C000019999999N0000001N9+01831+99999100261ADDGF100991999999999999999999
0029228020999991926072613004+61700+030683FM-12+001699999V0201401N004119999999N0000001N9+02281+99999100161ADDGF100991999999999999999999
0029228020999991926072620004+61700+030683FM-12+001699999V0209991C000019999999N0000001N9+01831+99999100081ADDGF102991999999999999999999
0029228020999991926072706004+61700+030683FM-12+001699999V0209991C000019999999N0000001N9+01831+99999099951ADDGF100991999999999999999999
0029228020999991926072713004+61700+030683FM-12+001699999V0201401N002119999999N0000001N9+02441+99999099881ADDGF106991999999999999999999
0029228020999991926072720004+61700+030683FM-12+001699999V0209991C000019999999N0000001N9+01781+99999100101ADDGF108991999999999999999999
0029228020999991926072806004+61700+030683FM-12+001699999V0209991C000019999999N0000001N9+01721+99999100361ADDGF106991999999999999999999
0029228020999991926072813004+61700+030683FM-12+001699999V0200501N001019999999N0000001N9+01831+99999100511ADDGF108991999999999999999999
0029228020999991926072820004+61700+030683FM-12+001699999V0209991C000019999999N0000001N9+01671+99999100721ADDGF108991999999999999999999
0029228020999991926072906004+61700+030683FM-12+001699999V0200501N002119999999N0000001N9+01281+99999100921ADDGF108991999999999999999999
0029228020999991926072913004+61700+030683FM-12+001699999V0209991C000019999999N0000001N9+01831+99999100881ADDGF108991999999999999999999
0029228020999991926072920004+61700+030683FM-12+001699999V0209991C000019999999N0000001N9+01781+99999100801ADDGF106991999999999999999999
0029228020999991926073006004+61700+030683FM-12+001699999V0200901N001019999999N0000001N9+01721+99999100911ADDGF105991999999999999999999
0029228020999991926073013004+61700+030683FM-12+001699999V0209991C000019999999N0000001N9+02171+99999100991ADDGF105991999999999999999999
0029228020999991926073020004+61700+030683FM-12+001699999V0209991C000019999999N0000001N9+01721+99999100991ADDGF100991999999999999999999
0029228020999991926073106004+61700+030683FM-12+001699999V0200501N004119999999N0000001N9+01441+99999100941ADDGF100991999999999999999999
0029228020999991926073113004+61700+030683FM-12+001699999V0200501N008219999999N0000001N9+02061+99999100721ADDGF100991999999999999999999
0029228020999991926073120004+61700+030683FM-12+001699999V0200501N006219999999N0000001N9+01781+99999100751ADDGF104991999999999999999999
0029228020999991926080106004+61700+030683FM-12+001699999V0203601N008219999999N0000001N9+01501+99999100871ADDGF104991999999999999999999
0029228020999991926080113004+61700+030683FM-12+001699999V0203601N006219999999N0000001N9+02061+99999100911ADDGF103991999999999999999999
0029228020999991926080120004+61700+030683FM-12+001699999V0209991C000019999999N0000001N9+01611+99999101151ADDGF100991999999999999999999
0029228020999991926080206004+61700+030683FM-12+001699999V0200201N002119999999N0000001N9+01391+99999101501ADDGF100991999999999999999999
0029228020999991926080213004+61700+030683FM-12+001699999V0203601N004119999999N0000001N9+02001+99999101351ADDGF104991999999999999999999
0035228020999991926080220004+61700+030683FM-12+001699999V0203601N001019999999N0000001N9+01611+99999101351ADDGF108991999999999999999999MW1621
0029228020999991926080306004+61700+030683FM-12+001699999V0209991C000019999999N0000001N9+01221+99999101351ADDGF108991999999999999999999
0029228020999991926080313004+61700+030683FM-12+001699999V0200901N001019999999N0000001N9+01561+99999101481ADDGF108991999999999999999999
0029228020999991926080320004+61700+030683FM-12+001699999V0209991C000019999999N0000001N9+01331+99999101511ADDGF108991999999999999999999
0029228020999991926080406004+61700+030683FM-12+001699999V0209991C000019999999N0000001N9+01221+99999101671ADDGF108991999999999999999999
0029228020999991926080413004+61700+030683FM-12+001699999V0209991C000019999999N0000001N9+01611+99999101701ADDGF108991999999999999999999
0029228020999991926080420004+61700+030683FM-12+001699999V0209991C000019999999N0000001N9+01391+99999101721ADDGF106991999999999999999999
0029228020999991926080506004+61700+030683FM-12+001699999V0209991C000019999999N0000001N9+01221+99999102001ADDGF108991999999999999999999
0029228020999991926080513004+61700+030683FM-12+001699999V0203601N002119999999N0000001N9+01441+99999102141ADDGF108991999999999999999999
0029228020999991926080520004+61700+030683FM-12+001699999V0200501N004119999999N0000001N9+01221+99999102381ADDGF108991999999999999999999
0029228020999991926080606004+61700+030683FM-12+001699999V0200501N001019999999N0000001N9+01221+99999102301ADDGF108991999999999999999999
0029228020999991926080613004+61700+030683FM-12+001699999V0203601N004119999999N0000001N9+01891+99999102101ADDGF107991999999999999999999
0029228020999991926080620004+61700+030683FM-12+001699999V0209991C000019999999N0000001N9+01561+99999101951ADDGF108991999999999999999999
0029228020999991926080706004+61700+030683FM-12+001699999V0209991C000019999999N0000001N9+01331+99999101981ADDGF104991999999999999999999
0029228020999991926080713004+61700+030683FM-12+001699999V0203601N001019999999N0000001N9+01891+99999101721ADDGF101991999999999999999999
0029228020999991926080720004+61700+030683FM-12+001699999V0209991C000019999999N0000001N9+01391+99999101801ADDGF108991999999999999999999
0029228020999991926080806004+61700+030683FM-12+001699999V0200501N002119999999N0000001N9+01171+99999101501ADDGF108991999999999999999999
0029228020999991926080813004+61700+030683FM-12+001699999V0203601N002119999999N0000001N9+01441+99999101501ADDGF108991999999999999999999
0029228020999991926080820004+61700+030683FM-12+001699999V0209991C000019999999N0000001N9+01281+99999101441ADDGF108991999999999999999999
0029228020999991926080906004+61700+030683FM-12+001699999V0203601N001019999999N0000001N9+01221+99999101541ADDGF108991999999999999999999
0029228020999991926080913004+61700+030683FM-12+001699999V0203601N002119999999N0000001N9+01831+99999101561ADDGF107991999999999999999999
0029228020999991926080920004+61700+030683FM-12+001699999V0209991C000019999999N0000001N9+01561+99999101501ADDGF106991999999999999999999
0029228020999991926081006004+61700+030683FM-12+001699999V0200501N001019999999N0000001N9+01331+99999101661ADDGF102991999999999999999999
0029228020999991926081013004+61700+030683FM-12+001699999V0209991C000019999999N0000001N9+01941+99999101661ADDGF100991999999999999999999
0029228020999991926081020004+61700+030683FM-12+001699999V0209991C000019999999N0000001N9+01391+99999101721ADDGF100991999999999999999999
0029228020999991926081106004+61700+030683FM-12+001699999V0209991C000019999999N0000001N9+01281+99999101821ADDGF107991999999999999999999
0029228020999991926081113004+61700+030683FM-12+001699999V0203601N006219999999N0000001N9+01831+99999101781ADDGF105991999999999999999999
0029228020999991926081120004+61700+030683FM-12+001699999V0203601N001019999999N0000001N9+01221+99999101591ADDGF106991999999999999999999
0029228020999991926081206004+61700+030683FM-12+001699999V0209991C000019999999N0000001N9+01611+99999101481ADDGF100991999999999999999999
0029228020999991926081213004+61700+030683FM-12+001699999V0203601N006219999999N0000001N9+02171+99999101301ADDGF102991999999999999999999
0029228020999991926081220004+61700+030683FM-12+001699999V0209991C000019999999N0000001N9+01721+99999101301ADDGF102991999999999999999999
0029228020999991926081306004+61700+030683FM-12+001699999V0201401N002119999999N0000001N9+01611+99999101221ADDGF100991999999999999999999
0029228020999991926081313004+61700+030683FM-12+001699999V0201401N006219999999N0000001N9+02221+99999101341ADDGF100991999999999999999999
0029228020999991926081320004+61700+030683FM-12+001699999V0209991C000019999999N0000001N9+01721+99999101071ADDGF102991999999999999999999
0029228020999991926081406004+61700+030683FM-12+001699999V0201801N001019999999N0000001N9+01721+99999101191ADDGF100991999999999999999999
0029228020999991926081413004+61700+030683FM-12+001699999V0201801N004119999999N0000001N9+02061+99999101141ADDGF103991999999999999999999
0029228020999991926081420004+61700+030683FM-12+001699999V0200901N001019999999N0000001N9+01561+99999101221ADDGF108991999999999999999999
0029228020999991926081506004+61700+030683FM-12+001699999V0209991C000019999999N0000001N9+01501+99999101181ADDGF107991999999999999999999
0029228020999991926081513004+61700+030683FM-12+001699999V0209991C000019999999N0000001N9+01891+99999100941ADDGF108991999999999999999999
0029228020999991926081520004+61700+030683FM-12+001699999V0201401N002119999999N0000001N9+01721+99999100681ADDGF103991999999999999999999
0029228020999991926081606004+61700+030683FM-12+001699999V0201401N002119999999N0000001N9+01501+99999100261ADDGF108991999999999999999999
0029228020999991926081613004+61700+030683FM-12+001699999V0201401N006219999999N0000001N9+01671+99999100111ADDGF108991999999999999999999
0029228020999991926081620004+61700+030683FM-12+001699999V0201401N001019999999N0000001N9+01561+99999100161ADDGF108991999999999999999999
0029228020999991926081706004+61700+030683FM-12+001699999V0201401N001019999999N0000001N9+01391+99999100021ADDGF103991999999999999999999
0029228020999991926081713004+61700+030683FM-12+001699999V0201401N001019999999N0000001N9+02171+99999100231ADDGF106991999999999999999999
0029228020999991926081720004+61700+030683FM-12+001699999V0200901N002119999999N0000001N9+01441+99999100601ADDGF106991999999999999999999
0029228020999991926081806004+61700+030683FM-12+001699999V0200501N001019999999N0000001N9+01061+99999100781ADDGF103991999999999999999999
0029228020999991926081813004+61700+030683FM-12+001699999V0200901N001019999999N0000001N9+02001+99999100861ADDGF100991999999999999999999
0029228020999991926081820004+61700+030683FM-12+001699999V0209991C000019999999N0000001N9+01781+99999100841ADDGF100991999999999999999999
0029228020999991926081906004+61700+030683FM-12+001699999V0209991C000019999999N0000001N9+01501+99999100791ADDGF100991999999999999999999
0029228020999991926081913004+61700+030683FM-12+001699999V0209991C000019999999N0000001N9+02171+99999100621ADDGF108991999999999999999999
0029228020999991926081920004+61700+030683FM-12+001699999V0209991C000019999999N0000001N9+01561+99999100621ADDGF100991999999999999999999
0029228020999991926082006004+61700+030683FM-12+001699999V0209991C000019999999N0000001N9+01441+99999100801ADDGF106991999999999999999999
0029228020999991926082013004+61700+030683FM-12+001699999V0201801N002119999999N0000001N9+01671+99999100761ADDGF106991999999999999999999
0029228020999991926082020004+61700+030683FM-12+001699999V0201801N001019999999N0000001N9+01671+99999100601ADDGF104991999999999999999999
0029228020999991926082106004+61700+030683FM-12+001699999V0201801N001019999999N0000001N9+01561+99999100481ADDGF108991999999999999999999
0029228020999991926082113004+61700+030683FM-12+001699999V0201801N004119999999N0000001N9+01941+99999100281ADDGF108991999999999999999999
0029228020999991926082120004+61700+030683FM-12+001699999V0201801N002119999999N0000001N9+01671+99999100141ADDGF108991999999999999999999
0035228020999991926082206004+61700+030683FM-12+001699999V0201401N006219999999N0000001N9+01441+99999099221ADDGF108991999999999999999999MW1621
0029228020999991926082213004+61700+030683FM-12+001699999V0201401N002119999999N0000001N9+01441+99999099041ADDGF108991999999999999999999
0029228020999991926082220004+61700+030683FM-12+001699999V0201401N001019999999N0000001N9+01391+99999098831ADDGF108991999999999999999999
0029228020999991926082306004+61700+030683FM-12+001699999V0209991C000019999999N0000001N9+01221+99999098661ADDGF102991999999999999999999
0029228020999991926082313004+61700+030683FM-12+001699999V0201401N001019999999N0000001N9+01781+99999098671ADDGF108991999999999999999999
0035228020999991926082320004+61700+030683FM-12+001699999V0203201N002119999999N0000001N9+01441+99999098801ADDGF108991999999999999999999MW1621
0029228020999991926082406004+61700+030683FM-12+001699999V0202901N002119999999N0000001N9+01391+99999098701ADDGF108991999999999999999999
0029228020999991926082413004+61700+030683FM-12+001699999V0203601N004119999999N0000001N9+01561+99999098701ADDGF108991999999999999999999
0029228020999991926082420004+61700+030683FM-12+001699999V0203401N002119999999N0000001N9+01281+99999098861ADDGF108991999999999999999999
0029228020999991926082506004+61700+030683FM-12+001699999V0203401N002119999999N0000001N9+01391+99999098871ADDGF108991999999999999999999
0035228020999991926082513004+61700+030683FM-12+001699999V0203601N002119999999N0000001N9+01331+99999099021ADDGF108991999999999999999999MW1621
0035228020999991926082520004+61700+030683FM-12+001699999V0203401N002119999999N0000001N9+01281+99999099241ADDGF108991999999999999999999MW1621
0029228020999991926082606004+61700+030683FM-12+001699999V0209991C000019999999N0000001N9+01171+99999099181ADDGF103991999999999999999999
0035228020999991926082613004+61700+030683FM-12+001699999V0200901N002119999999N0000001N9+01331+99999099181ADDGF108991999999999999999999MW1621
0029228020999991926082620004+61700+030683FM-12+001699999V0209991C000019999999N0000001N9+01221+99999099141ADDGF106991999999999999999999
0029228020999991926082706004+61700+030683FM-12+001699999V0209991C000019999999N0000001N9+00941+99999099151ADDGF100991999999999999999999
0029228020999991926082713004+61700+030683FM-12+001699999V0209991C000019999999N0000001N9+01561+99999099351ADDGF107991999999999999999999
0029228020999991926082720004+61700+030683FM-12+001699999V0209991C000019999999N0000001N9+01221+99999099541ADDGF108991999999999999999999
0029228020999991926082806004+61700+030683FM-12+001699999V0209991C000019999999N0000001N9+01221+99999099861ADDGF108991999999999999999999
0029228020999991926082813004+61700+030683FM-12+001699999V0203601N002119999999N0000001N9+01671+99999100381ADDGF106991999999999999999999
0029228020999991926082820004+61700+030683FM-12+001699999V0203601N001019999999N0000001N9+01221+99999100701ADDGF108991999999999999999999
0029228020999991926082906004+61700+030683FM-12+001699999V0209991C000019999999N0000001N9+01061+99999101181ADDGF104991999999999999999999
0029228020999991926082913004+61700+030683FM-12+001699999V0203601N002119999999N0000001N9+01671+99999101231ADDGF106991999999999999999999
0029228020999991926082920004+61700+030683FM-12+001699999V0209991C000019999999N0000001N9+01061+99999101561ADDGF105991999999999999999999
0029228020999991926083006004+61700+030683FM-12+001699999V0203601N002119999999N0000001N9+00831+99999102261ADDGF102991999999999999999999
0029228020999991926083013004+61700+030683FM-12+001699999V0203601N002119999999N0000001N9+01671+99999102231ADDGF103991999999999999999999
0029228020999991926083020004+61700+030683FM-12+001699999V0209991C000019999999N0000001N9+01171+99999102351ADDGF102991999999999999999999
0029228020999991926083106004+61700+030683FM-12+001699999V0200501N001019999999N0000001N9+01111+99999102221ADDGF108991999999999999999999
0029228020999991926083113004+61700+030683FM-12+001699999V0202701N001019999999N0000001N9+01941+99999101981ADDGF102991999999999999999999
0029228020999991926083120004+61700+030683FM-12+001699999V0209991C000019999999N0000001N9+01391+99999101581ADDGF108991999999999999999999
0029228020999991926090106004+61700+030683FM-12+001699999V0209991C000019999999N0000001N9+01221+99999101071ADDGF106991999999999999999999
0029228020999991926090113004+61700+030683FM-12+001699999V0203201N001019999999N0000001N9+01721+99999100921ADDGF108991999999999999999999
0029228020999991926090120004+61700+030683FM-12+001699999V0203201N001019999999N0000001N9+01281+99999100711ADDGF100991999999999999999999
0029228020999991926090206004+61700+030683FM-12+001699999V0203201N001019999999N0000001N9+00941+99999100871ADDGF100991999999999999999999
0029228020999991926090213004+61700+030683FM-12+001699999V0203601N001019999999N0000001N9+01221+99999100481ADDGF107991999999999999999999
0029228020999991926090220004+61700+030683FM-12+001699999V0203201N001019999999N0000001N9+00831+99999100591ADDGF108991999999999999999999
0029228020999991926090306004+61700+030683FM-12+001699999V0202901N001019999999N0000001N9+00781+99999100591ADDGF108991999999999999999999
0029228020999991926090313004+61700+030683FM-12+001699999V0203601N001019999999N0000001N9+01221+99999100951ADDGF108991999999999999999999
