0035228020999991922010106004+61700+030683FM-12+001699999V0209991C000019999999N0000001N9-00891+99999099351ADDGF108991999999999999999999MW1701
0035228020999991922010113004+61700+030683FM-12+001699999V0209991C000019999999N0000001N9-00891+99999099321ADDGF108991999999999999999999MW1701
0029228020999991922010120004+61700+030683FM-12+001699999V0209991C000019999999N0000001N9-00941+99999098861ADDGF108991999999999999999999
0029228020999991922010206004+61700+030683FM-12+001699999V0201401N009819999999N0000001N9-00671+99999097741ADDGF106991999999999999999999
0035228020999991922010213004+61700+030683FM-12+001699999V0201401N011819999999N0000001N9-00561+99999097111ADDGF108991999999999999999999MW1861
0035228020999991922010220004+61700+030683FM-12+001699999V0201401N011819999999N0000001N9-00611+99999096421ADDGF108991999999999999999999MW1861
0029228020999991922010306004+61700+030683FM-12+001699999V0201401N004119999999N0000001N9-00441+99999096441ADDGF108991999999999999999999
0029228020999991922010313004+61700+030683FM-12+001699999V0200501N006219999999N0000001N9-00671+99999096321ADDGF108991999999999999999999
0029228020999991922010320004+61700+030683FM-12+001699999V0203601N004119999999N0000001N9-00891+99999096161ADDGF108991999999999999999999
0029228020999991922010406004+61700+030683FM-12+001699999V0202301N001019999999N0000001N9-01171+99999097041ADDGF100991999999999999999999
0035228020999991922010413004+61700+030683FM-12+001699999V0202301N001019999999N0000001N9-00941+99999097791ADDGF108991999999999999999999MW1721
0029228020999991922010420004+61700+030683FM-12+001699999V0202301N001019999999N0000001N9-00721+99999098581ADDGF108991999999999999999999
0029228020999991922010506004+61700+030683FM-12+001699999V0209991C000019999999N0000001N9-01221+99999099621ADDGF108991999999999999999999
0029228020999991922010513004+61700+030683FM-12+001699999V0201801N001019999999N0000001N9-01061+99999100041ADDGF105991999999999999999999
0029228020999991922010520004+61700+030683FM-12+001699999V0209991C000019999999N0000001N9-01331+99999100121ADDGF108991999999999999999999
0029228020999991922010606004+61700+030683FM-12+001699999V0200501N004119999999N0000001N9-00441+99999099631ADDGF108991999999999999999999
0035228020999991922010613004+61700+030683FM-12+001699999V0200201N007219999999N0000001N9-00391+99999099321ADDGF108991999999999999999999MW1721
0029228020999991922010620004+61700+030683FM-12+001699999V0203601N002119999999N0000001N9-00501+99999099431ADDGF108991999999999999999999
0029228020999991922010706004+61700+030683FM-12+001699999V0203601N004119999999N0000001N9-00561+99999099741ADDGF108991999999999999999999
0035228020999991922010713004+61700+030683FM-12+001699999V0203601N001019999999N0000001N9-00561+99999100151ADDGF108991999999999999999999MW1701
0029228020999991922010720004+61700+030683FM-12+001699999V0202701N001019999999N0000001N9-00941+99999100761ADDGF108991999999999999999999
0029228020999991922010806004+61700+030683FM-12+001699999V0209991C000019999999N0000001N9-01781+99999100991ADDGF103991999999999999999999
0029228020999991922010813004+61700+030683FM-12+001699999V0209991C000019999999N0000001N9-01561+99999101321ADDGF106991999999999999999999
0029228020999991922010820004+61700+030683FM-12+001699999V0209991C000019999999N0000001N9-01061+99999101471ADDGF108991999999999999999999
0029228020999991922010906004+61700+030683FM-12+001699999V0201801N002119999999N0000001N9-00501+99999101781ADDGF108991999999999999999999
0029228020999991922010913004+61700+030683FM-12+001699999V0201801N005119999999N0000001N9-00721+99999102041ADDGF108991999999999999999999
0029228020999991922010920004+61700+030683FM-12+001699999V0209991C000019999999N0000001N9-00831+99999102221ADDGF108991999999999999999999
0029228020999991922011006004+61700+030683FM-12+001699999V0200901N001019999999N0000001N9-01061+99999101801ADDGF108991999999999999999999
0029228020999991922011013004+61700+030683FM-12+001699999V0201401N008219999999N0000001N9-00721+99999101391ADDGF103991999999999999999999
0029228020999991922011020004+61700+030683FM-12+001699999V0200901N006219999999N0000001N9-01221+99999100991ADDGF102991999999999999999999
0035228020999991922011106004+61700+030683FM-12+001699999V0200901N001019999999N0000001N9-01331+99999100391ADDGF108991999999999999999999MW1701
0035228020999991922011113004+61700+030683FM-12+001699999V0200901N004119999999N0000001N9-01171+99999100271ADDGF108991999999999999999999MW1701
0029228020999991922011120004+61700+030683FM-12+001699999V0200901N006219999999N0000001N9-01561+99999100481ADDGF108991999999999999999999
0029228020999991922011206004+61700+030683FM-12+001699999V0200901N005119999999N0000001N9-00831+99999101101ADDGF108991999999999999999999
0035228020999991922011213004+61700+030683FM-12+001699999V0201401N004119999999N0000001N9-00891+99999101781ADDGF108991999999999999999999MW1721
0029228020999991922011220004+61700+030683FM-12+001699999V0200901N004119999999N0000001N9-00831+99999102341ADDGF108991999999999999999999
0029228020999991922011306004+61700+030683FM-12+001699999V0200901N001019999999N0000001N9-00721+99999103001ADDGF108991999999999999999999
0029228020999991922011313004+61700+030683FM-12+001699999V0200901N001019999999N0000001N9-00721+99999103351ADDGF108991999999999999999999
0029228020999991922011320004+61700+030683FM-12+001699999V0200901N004119999999N0000001N9-00831+99999103561ADDGF108991999999999999999999
0029228020999991922011406004+61700+030683FM-12+001699999V0209991C000019999999N0000001N9-01001+99999103431ADDGF106991999999999999999999
0029228020999991922011413004+61700+030683FM-12+001699999V0200701N002119999999N0000001N9-00831+99999103441ADDGF108991999999999999999999
0029228020999991922011420004+61700+030683FM-12+001699999V0209991C000019999999N0000001N9-01061+99999103471ADDGF108991999999999999999999
0029228020999991922011506004+61700+030683FM-12+001699999V0209991C000019999999N0000001N9-01501+99999103581ADDGF100991999999999999999999
0029228020999991922011513004+61700+030683FM-12+001699999V0200701N001019999999N0000001N9-01331+99999103551ADDGF100991999999999999999999
0029228020999991922011520004+61700+030683FM-12+001699999V0200501N001019999999N0000001N9-01781+99999103361ADDGF100991999999999999999999
0029228020999991922011606004+61700+030683FM-12+001699999V0200901N002119999999N0000001N9-01941+99999102791ADDGF106991999999999999999999
0035228020999991922011613004+61700+030683FM-12+001699999V0200701N002119999999N0000001N9-01561+99999102261ADDGF108991999999999999999999MW1701
0035228020999991922011620004+61700+030683FM-12+001699999V0200701N002119999999N0000001N9-01561+99999102121ADDGF108991999999999999999999MW1701
0029228020999991922011706004+61700+030683FM-12+001699999V0200901N002119999999N0000001N9-01561+99999102421ADDGF108991999999999999999999
0029228020999991922011713004+61700+030683FM-12+001699999V0200701N002119999999N0000001N9-01331+99999102441ADDGF108991999999999999999999
0029228020999991922011720004+61700+030683FM-12+001699999V0200901N001019999999N0000001N9-01561+99999102391ADDGF100991999999999999999999
0035228020999991922011806004+61700+030683FM-12+001699999V0200901N001019999999N0000001N9-01331+99999102321ADDGF108991999999999999999999MW1701
0035228020999991922011813004+61700+030683FM-12+001699999V0200501N004119999999N0000001N9-01331+99999102441ADDGF108991999999999999999999MW1701
0035228020999991922011820004+61700+030683FM-12+001699999V0200701N001019999999N0000001N9-01111+99999102551ADDGF108991999999999999999999MW1701
0035228020999991922011906004+61700+030683FM-12+001699999V0200901N003119999999N0000001N9-01001+99999102701ADDGF108991999999999999999999MW1721
0035228020999991922011913004+61700+030683FM-12+001699999V0200501N004119999999N0000001N9-01001+99999102601ADDGF108991999999999999999999MW1721
0035228020999991922011920004+61700+030683FM-12+001699999V0200501N002119999999N0000001N9-00941+99999102481ADDGF108991999999999999999999MW1721
0035228020999991922012006004+61700+030683FM-12+001699999V0201401N004119999999N0000001N9-00781+99999102751ADDGF108991999999999999999999MW1701
0035228020999991922012013004+61700+030683FM-12+001699999V0200901N006219999999N0000001N9-00891+99999103081ADDGF108991999999999999999999MW1701
0035228020999991922012020004+61700+030683FM-12+001699999V0209991C000019999999N0000001N9-01001+99999103391ADDGF108991999999999999999999MW1701
0029228020999991922012106004+61700+030683FM-12+001699999V0209991C000019999999N0000001N9-01111+99999103911ADDGF108991999999999999999999
0035228020999991922012113004+61700+030683FM-12+001699999V0200901N001019999999N0000001N9-01111+99999104231ADDGF108991999999999999999999MW1701
0029228020999991922012120004+61700+030683FM-12+001699999V0200901N001019999999N0000001N9-01281+99999104481ADDGF108991999999999999999999
0029228020999991922012206004+61700+030683FM-12+001699999V0201401N001019999999N0000001N9-01281+99999104601ADDGF108991999999999999999999
0029228020999991922012213004+61700+030683FM-12+001699999V0201801N003119999999N0000001N9-01561+99999104721ADDGF108991999999999999999999
0029228020999991922012220004+61700+030683FM-12+001699999V0209991C000019999999N0000001N9-01561+99999104631ADDGF108991999999999999999999
0029228020999991922012306004+61700+030683FM-12+001699999V0209991C000019999999N0000001N9-01061+99999104521ADDGF108991999999999999999999
0029228020999991922012313004+61700+030683FM-12+001699999V0209991C000019999999N0000001N9-00781+99999104501ADDGF108991999999999999999999
0029228020999991922012320004+61700+030683FM-12+001699999V0209991C000019999999N0000001N9-00781+99999104161ADDGF108991999999999999999999
0029228020999991922012406004+61700+030683FM-12+001699999V0209991C000019999999N0000001N9-00941+99999103761ADDGF108991999999999999999999
0029228020999991922012413004+61700+030683FM-12+001699999V0209991C000019999999N0000001N9-00891+99999103951ADDGF108991999999999999999999
0029228020999991922012420004+61700+030683FM-12+001699999V0209991C000019999999N0000001N9-01001+99999104121ADDGF108991999999999999999999
0029228020999991922012506004+61700+030683FM-12+001699999V0209991C000019999999N0000001N9-01111+99999103761ADDGF108991999999999999999999
0029228020999991922012513004+61700+030683FM-12+001699999V0203201N002119999999N0000001N9-00721+99999103381ADDGF108991999999999999999999
0029228020999991922012520004+61700+030683FM-12+001699999V0203201N002119999999N0000001N9-00561+99999102901ADDGF108991999999999999999999
0029228020999991922012606004+61700+030683FM-12+001699999V0203201N004119999999N0000001N9-00561+99999102551ADDGF108991999999999999999999
0029228020999991922012613004+61700+030683FM-12+001699999V0203201N001019999999N0000001N9-00331+99999102541ADDGF108991999999999999999999
0029228020999991922012620004+61700+030683FM-12+001699999V0202301N004119999999N0000001N9-00391+99999102341ADDGF108991999999999999999999
0029228020999991922012706004+61700+030683FM-12+001699999V0203201N004119999999N0000001N9-00721+99999102001ADDGF108991999999999999999999
0029228020999991922012713004+61700+030683FM-12+001699999V0202701N001019999999N0000001N9-00561+99999101981ADDGF108991999999999999999999
0029228020999991922012720004+61700+030683FM-12+001699999V0202701N002119999999N0000001N9-00671+99999101981ADDGF106991999999999999999999
0029228020999991922012806004+61700+030683FM-12+001699999V0209991C000019999999N0000001N9-00671+99999101871ADDGF108991999999999999999999
0029228020999991922012813004+61700+030683FM-12+001699999V0203201N001019999999N0000001N9-00501+99999101761ADDGF108991999999999999999999
0029228020999991922012820004+61700+030683FM-12+001699999V0203201N002119999999N0000001N9-00441+99999101551ADDGF108991999999999999999999
0029228020999991922012906004+61700+030683FM-12+001699999V0203201N002119999999N0000001N9-00611+99999101351ADDGF108991999999999999999999
0029228020999991922012913004+61700+030683FM-12+001699999V0203201N005119999999N0000001N9-00671+99999101391ADDGF108991999999999999999999
0029228020999991922012920004+61700+030683FM-12+001699999V0203201N002119999999N0000001N9-00781+99999101441ADDGF108991999999999999999999
0029228020999991922013006004+61700+030683FM-12+001699999V0202701N002119999999N0000001N9-00941+99999101321ADDGF108991999999999999999999
0029228020999991922013013004+61700+030683FM-12+001699999V0203201N004119999999N0000001N9-00781+99999101141ADDGF108991999999999999999999
0029228020999991922013020004+61700+030683FM-12+001699999V0202901N002119999999N0000001N9-00721+99999101031ADDGF108991999999999999999999
0035228020999991922013106004+61700+030683FM-12+001699999V0202701N002119999999N0000001N9-01001+99999100991ADDGF108991999999999999999999MW1701
0035228020999991922013113004+61700+030683FM-12+001699999V0202501N004119999999N0000001N9-00891+99999101101ADDGF108991999999999999999999MW1701
0035228020999991922013120004+61700+030683FM-12+001699999V0202501N001019999999N0000001N9-01061+99999101151ADDGF108991999999999999999999MW1701
0029228020999991922020106004+61700+030683FM-12+001699999V0209991C000019999999N0000001N9-01111+99999101151ADDGF108991999999999999999999
0035228020999991922020113004+61700+030683FM-12+001699999V0202701N002119999999N0000001N9-00721+99999101301ADDGF108991999999999999999999MW1701
0029228020999991922020120004+61700+030683FM-12+001699999V0209991C000019999999N0000001N9-01831+99999101631ADDGF100991999999999999999999
0029228020999991922020206004+61700+030683FM-12+001699999V0200901N008219999999N0000001N9-01331+99999101861ADDGF108991999999999999999999
0029228020999991922020213004+61700+030683FM-12+001699999V0200501N004119999999N0000001N9-01221+99999102081ADDGF100991999999999999999999
0029228020999991922020220004+61700+030683FM-12+001699999V0200501N006219999999N0000001N9-01671+99999102151ADDGF100991999999999999999999
0029228020999991922020306004+61700+030683FM-12+001699999V0209991C000019999999N0000001N9-02331+99999102061ADDGF100991999999999999999999
0029228020999991922020313004+61700+030683FM-12+001699999V0209991C000019999999N0000001N9-02061+99999102021ADDGF101991999999999999999999
0029228020999991922020320004+61700+030683FM-12+001699999V0200701N004119999999N0000001N9-02391+99999101861ADDGF100991999999999999999999
0029228020999991922020406004+61700+030683FM-12+001699999V0209991C000019999999N0000001N9-02331+99999101861ADDGF103991999999999999999999
0029228020999991922020413004+61700+030683FM-12+001699999V0209991C000019999999N0000001N9-01781+99999101871ADDGF100991999999999999999999
0029228020999991922020420004+61700+030683FM-12+001699999V0209991C000019999999N0000001N9-02061+99999102071ADDGF100991999999999999999999
0029228020999991922020506004+61700+030683FM-12+001699999V0209991C000019999999N0000001N9-02111+99999102301ADDGF100991999999999999999999
0029228020999991922020513004+61700+030683FM-12+001699999V0200201N001019999999N0000001N9-01561+99999102381ADDGF103991999999999999999999
0029228020999991922020520004+61700+030683FM-12+001699999V0209991C000019999999N0000001N9-02391+99999102391ADDGF100991999999999999999999
0029228020999991922020606004+61700+030683FM-12+001699999V0209991C000019999999N0000001N9-02831+99999102791ADDGF100991999999999999999999
0029228020999991922020613004+61700+030683FM-12+001699999V0200501N001019999999N0000001N9-01781+99999103061ADDGF103991999999999999999999
0029228020999991922020620004+61700+030683FM-12+001699999V0209991C000019999999N0000001N9-02331+99999103311ADDGF102991999999999999999999
0029228020999991922020706004+61700+030683FM-12+001699999V0209991C000019999999N0000001N9-01671+99999103401ADDGF103991999999999999999999
0035228020999991922020713004+61700+030683FM-12+001699999V0200501N002119999999N0000001N9-01441+99999103111ADDGF108991999999999999999999MW1701
0035228020999991922020720004+61700+030683FM-12+001699999V0209991C000019999999N0000001N9-01331+99999102581ADDGF108991999999999999999999MW1701
0029228020999991922020806004+61700+030683FM-12+001699999V0209991C000019999999N0000001N9-02111+99999102301ADDGF100991999999999999999999
0029228020999991922020813004+61700+030683FM-12+001699999V0200501N001019999999N0000001N9-01831+99999102671ADDGF100991999999999999999999
0029228020999991922020820004+61700+030683FM-12+001699999V0201801N002119999999N0000001N9-01941+99999102831ADDGF108991999999999999999999
0029228020999991922020906004+61700+030683FM-12+001699999V0201801N006219999999N0000001N9-01281+99999102501ADDGF108991999999999999999999
0029228020999991922020913004+61700+030683FM-12+001699999V0202301N004119999999N0000001N9-00561+99999102351ADDGF108991999999999999999999
0029228020999991922020920004+61700+030683FM-12+001699999V0209991C000019999999N0000001N9-00891+99999102801ADDGF101991999999999999999999
0029228020999991922021006004+61700+030683FM-12+001699999V0202701N001019999999N0000001N9-01281+99999103071ADDGF100991999999999999999999
0029228020999991922021013004+61700+030683FM-12+001699999V0203201N001019999999N0000001N9-00561+99999103471ADDGF102991999999999999999999
0029228020999991922021020004+61700+030683FM-12+001699999V0203201N002119999999N0000001N9-00611+99999103261ADDGF108991999999999999999999
0029228020999991922021106004+61700+030683FM-12+001699999V0202701N006219999999N0000001N9-00391+99999102321ADDGF108991999999999999999999
0029228020999991922021113004+61700+030683FM-12+001699999V0202701N004119999999N0000001N9-00111+99999101681ADDGF108991999999999999999999
0029228020999991922021120004+61700+030683FM-12+001699999V0202901N004119999999N0000001N9+00001+99999101031ADDGF104991999999999999999999
0029228020999991922021206004+61700+030683FM-12+001699999V0203201N006219999999N0000001N9-00061+99999100921ADDGF108991999999999999999999
0029228020999991922021213004+61700+030683FM-12+001699999V0203401N002119999999N0000001N9+00061+99999101191ADDGF108991999999999999999999
0029228020999991922021220004+61700+030683FM-12+001699999V0203201N001019999999N0000001N9+00171+99999101041ADDGF108991999999999999999999
0029228020999991922021306004+61700+030683FM-12+001699999V0203201N002119999999N0000001N9+00111+99999100871ADDGF108991999999999999999999
0029228020999991922021313004+61700+030683FM-12+001699999V0203201N002119999999N0000001N9+00111+99999100901ADDGF108991999999999999999999
0029228020999991922021320004+61700+030683FM-12+001699999V0209991C000019999999N0000001N9-00061+99999100801ADDGF108991999999999999999999
0029228020999991922021406004+61700+030683FM-12+001699999V0201401N001019999999N0000001N9-00111+99999100711ADDGF108991999999999999999999
0029228020999991922021413004+61700+030683FM-12+001699999V0201801N004119999999N0000001N9-00331+99999100701ADDGF108991999999999999999999
0029228020999991922021420004+61700+030683FM-12+001699999V0201401N006219999999N0000001N9-00391+99999100441ADDGF108991999999999999999999
0035228020999991922021506004+61700+030683FM-12+001699999V0201401N004119999999N0000001N9-00611+99999100031ADDGF108991999999999999999999MW1701
0029228020999991922021513004+61700+030683FM-12+001699999V0201401N002119999999N0000001N9-00671+99999099921ADDGF108991999999999999999999
0035228020999991922021520004+61700+030683FM-12+001699999V0201101N002119999999N0000001N9-00781+99999099981ADDGF108991999999999999999999MW1701
0029228020999991922021606004+61700+030683FM-12+001699999V0209991C000019999999N0000001N9-01111+99999100361ADDGF108991999999999999999999
0029228020999991922021613004+61700+030683FM-12+001699999V0200901N001019999999N0000001N9-01061+99999100801ADDGF108991999999999999999999
0029228020999991922021620004+61700+030683FM-12+001699999V0209991C000019999999N0000001N9-01501+99999101221ADDGF100991999999999999999999
0029228020999991922021706004+61700+030683FM-12+001699999V0200901N001019999999N0000001N9-01781+99999101441ADDGF108991999999999999999999
0029228020999991922021713004+61700+030683FM-12+001699999V0200901N001019999999N0000001N9-01441+99999101441ADDGF108991999999999999999999
0029228020999991922021720004+61700+030683FM-12+001699999V0209991C000019999999N0000001N9-01671+99999101391ADDGF100991999999999999999999
0029228020999991922021806004+61700+030683FM-12+001699999V0209991C000019999999N0000001N9-01221+99999101231ADDGF108991999999999999999999
0029228020999991922021813004+61700+030683FM-12+001699999V0201401N001019999999N0000001N9-00941+99999101161ADDGF108991999999999999999999
0029228020999991922021820004+61700+030683FM-12+001699999V0200701N001019999999N0000001N9-00941+99999101071ADDGF108991999999999999999999
0035228020999991922021906004+61700+030683FM-12+001699999V0201601N002119999999N0000001N9-00831+99999100711ADDGF108991999999999999999999MW1701
0035228020999991922021913004+61700+030683FM-12+001699999V0201401N006219999999N0000001N9-00671+99999100441ADDGF108991999999999999999999MW1701
0029228020999991922021920004+61700+030683FM-12+001699999V0209991C000019999999N0000001N9-00781+99999100361ADDGF108991999999999999999999
0029228020999991922022006004+61700+030683FM-12+001699999V0201401N002119999999N0000001N9-00721+99999100231ADDGF108991999999999999999999
0029228020999991922022013004+61700+030683FM-12+001699999V0200901N004119999999N0000001N9-00561+99999100201ADDGF108991999999999999999999
0035228020999991922022020004+61700+030683FM-12+001699999V0200901N001019999999N0000001N9-00561+99999100161ADDGF108991999999999999999999MW1721
0029228020999991922022106004+61700+030683FM-12+001699999V0201401N001019999999N0000001N9-00831+99999100151ADDGF108991999999999999999999
0035228020999991922022113004+61700+030683FM-12+001699999V0200901N001019999999N0000001N9-00561+99999100261ADDGF108991999999999999999999MW1721
0029228020999991922022120004+61700+030683FM-12+001699999V0209991C000019999999N0000001N9-01001+99999100581ADDGF100991999999999999999999
0029228020999991922022206004+61700+030683FM-12+001699999V0209991C000019999999N0000001N9-01281+99999101121ADDGF108991999999999999999999
0029228020999991922022213004+61700+030683FM-12+001699999V0201401N001019999999N0000001N9-00721+99999101561ADDGF108991999999999999999999
0029228020999991922022220004+61700+030683FM-12+001699999V0209991C000019999999N0000001N9-00781+99999101791ADDGF108991999999999999999999
0029228020999991922022306004+61700+030683FM-12+001699999V0201801N004119999999N0000001N9-00441+99999101661ADDGF108991999999999999999999
0035228020999991922022313004+61700+030683FM-12+001699999V0201401N006219999999N0000001N9-00441+99999101461ADDGF108991999999999999999999MW1721
0035228020999991922022320004+61700+030683FM-12+001699999V0201401N015919999999N0000001N9-00391+99999101001ADDGF108991999999999999999999MW1721
0035228020999991922022406004+61700+030683FM-12+001699999V0201401N001019999999N0000001N9-00441+99999100801ADDGF108991999999999999999999MW1701
0029228020999991922022413004+61700+030683FM-12+001699999V0201401N001019999999N0000001N9-00171+99999100941ADDGF108991999999999999999999
0029228020999991922022420004+61700+030683FM-12+001699999V0209991C000019999999N0000001N9-00111+99999100981ADDGF108991999999999999999999
0029228020999991922022506004+61700+030683FM-12+001699999V0201401N001019999999N0000001N9-00061+99999101141ADDGF108991999999999999999999
0029228020999991922022513004+61700+030683FM-12+001699999V0201801N002119999999N0000001N9+00001+99999100991ADDGF108991999999999999999999
0035228020999991922022520004+61700+030683FM-12+001699999V0201801N009819999999N0000001N9+00001+99999100471ADDGF108991999999999999999999MW1741
0029228020999991922022606004+61700+030683FM-12+001699999V0202301N004119999999N0000001N9+00111+99999100041ADDGF108991999999999999999999
0029228020999991922022613004+61700+030683FM-12+001699999V0202701N001019999999N0000001N9+00111+99999100061ADDGF108991999999999999999999
0029228020999991922022620004+61700+030683FM-12+001699999V0209991C000019999999N0000001N9+00061+99999099581ADDGF108991999999999999999999
0029228020999991922022706004+61700+030683FM-12+001699999V0202701N002119999999N0000001N9+00111+99999099151ADDGF108991999999999999999999
0029228020999991922022713004+61700+030683FM-12+001699999V0202701N001019999999N0000001N9+00281+99999099551ADDGF108991999999999999999999
0029228020999991922022720004+61700+030683FM-12+001699999V0203201N002119999999N0000001N9+00061+99999099471ADDGF108991999999999999999999
0029228020999991922022806004+61700+030683FM-12+001699999V0202701N002119999999N0000001N9+00111+99999099021ADDGF108991999999999999999999
0029228020999991922022813004+61700+030683FM-12+001699999V0201801N002119999999N0000001N9+00171+99999098991ADDGF108991999999999999999999
0035228020999991922022820004+61700+030683FM-12+001699999V0209991C000019999999N0000001N9+00061+99999099041ADDGF108991999999999999999999MW1721
0029228020999991922030106004+61700+030683FM-12+001699999V0209991C000019999999N0000001N9-00061+99999099401ADDGF108991999999999999999999
0029228020999991922030113004+61700+030683FM-12+001699999V0209991C000019999999N0000001N9+00171+99999099801ADDGF108991999999999999999999
0035228020999991922030120004+61700+030683FM-12+001699999V0209991C000019999999N0000001N9-00111+99999099961ADDGF108991999999999999999999MW1721
0029228020999991922030206004+61700+030683FM-12+001699999V0209991C000019999999N0000001N9-00111+99999099991ADDGF108991999999999999999999
0029228020999991922030213004+61700+030683FM-12+001699999V0203201N002119999999N0000001N9-00171+99999100351ADDGF108991999999999999999999
0029228020999991922030220004+61700+030683FM-12+001699999V0209991C000019999999N0000001N9-00281+99999100321ADDGF108991999999999999999999
0029228020999991922030306004+61700+030683FM-12+001699999V0200501N002119999999N0000001N9-00441+99999100541ADDGF108991999999999999999999
0029228020999991922030313004+61700+030683FM-12+001699999V0200501N004119999999N0000001N9-00671+99999100871ADDGF108991999999999999999999
0029228020999991922030320004+61700+030683FM-12+001699999V0200501N002119999999N0000001N9-00831+99999101181ADDGF108991999999999999999999
0029228020999991922030406004+61700+030683FM-12+001699999V0201401N002119999999N0000001N9-00941+99999101221ADDGF108991999999999999999999
0029228020999991922030413004+61700+030683FM-12+001699999V0201401N006219999999N0000001N9-00781+99999101021ADDGF108991999999999999999999
0035228020999991922030420004+61700+030683FM-12+001699999V0201401N008219999999N0000001N9-00671+99999100621ADDGF108991999999999999999999MW1701
0035228020999991922030506004+61700+030683FM-12+001699999V0201401N008219999999N0000001N9-00331+99999099711ADDGF108991999999999999999999MW1721
0029228020999991922030513004+61700+030683FM-12+001699999V0201801N002119999999N0000001N9+00001+99999099381ADDGF108991999999999999999999
0029228020999991922030520004+61700+030683FM-12+001699999V0202701N002119999999N0000001N9+00001+99999099501ADDGF108991999999999999999999
0029228020999991922030606004+61700+030683FM-12+001699999V0201401N001019999999N0000001N9-00111+99999099511ADDGF108991999999999999999999
0035228020999991922030613004+61700+030683FM-12+001699999V0201401N004119999999N0000001N9-00061+99999098911ADDGF108991999999999999999999MW1721
0035228020999991922030620004+61700+030683FM-12+001699999V0200901N001019999999N0000001N9-00111+99999098101ADDGF108991999999999999999999MW1721
0029228020999991922030706004+61700+030683FM-12+001699999V0209991C000019999999N0000001N9-00781+99999098871ADDGF100991999999999999999999
0029228020999991922030713004+61700+030683FM-12+001699999V0201801N002119999999N0000001N9-00171+99999098861ADDGF108991999999999999999999
0029228020999991922030720004+61700+030683FM-12+001699999V0203201N006219999999N0000001N9-00611+99999099241ADDGF102991999999999999999999
0029228020999991922030806004+61700+030683FM-12+001699999V0209991C000019999999N0000001N9-00891+99999099581ADDGF107991999999999999999999
0035228020999991922030813004+61700+030683FM-12+001699999V0203201N002119999999N0000001N9-00671+99999099241ADDGF108991999999999999999999MW1721
0029228020999991922030820004+61700+030683FM-12+001699999V0200901N001019999999N0000001N9-00281+99999098551ADDGF108991999999999999999999
0029228020999991922030906004+61700+030683FM-12+001699999V0200901N001019999999N0000001N9+00001+99999098671ADDGF108991999999999999999999
0029228020999991922030913004+61700+030683FM-12+001699999V0202501N002119999999N0000001N9+00061+99999099041ADDGF108991999999999999999999
0035228020999991922030920004+61700+030683FM-12+001699999V0203601N002119999999N0000001N9-00281+99999099341ADDGF108991999999999999999999MW1721
0029228020999991922031006004+61700+030683FM-12+001699999V0203201N004119999999N0000001N9-00501+99999099991ADDGF108991999999999999999999
0029228020999991922031013004+61700+030683FM-12+001699999V0202301N008219999999N0000001N9-00561+99999100391ADDGF108991999999999999999999
0035228020999991922031020004+61700+030683FM-12+001699999V0209991C000019999999N0000001N9-00721+99999100521ADDGF108991999999999999999999MW1721
0029228020999991922031106004+61700+030683FM-12+001699999V0209991C000019999999N0000001N9-00941+99999101201ADDGF100991999999999999999999
0029228020999991922031113004+61700+030683FM-12+001699999V0203201N004119999999N0000001N9-00501+99999101041ADDGF107991999999999999999999
0029228020999991922031120004+61700+030683FM-12+001699999V0201801N008219999999N0000001N9-00171+99999100071ADDGF108991999999999999999999
0035228020999991922031206004+61700+030683FM-12+001699999V0201401N004119999999N0000001N9+00001+99999098671ADDGF108991999999999999999999MW1721
0029228020999991922031213004+61700+030683FM-12+001699999V0203201N006219999999N0000001N9-00171+99999098751ADDGF103991999999999999999999
0029228020999991922031220004+61700+030683FM-12+001699999V0209991C000019999999N0000001N9-01061+99999098741ADDGF100991999999999999999999
0029228020999991922031306004+61700+030683FM-12+001699999V0203201N002119999999N0000001N9-00941+99999099021ADDGF108991999999999999999999
0035228020999991922031313004+61700+030683FM-12+001699999V0203201N010819999999N0000001N9-00441+99999099471ADDGF108991999999999999999999MW1721
0029228020999991922031320004+61700+030683FM-12+001699999V0203201N010819999999N0000001N9-00671+99999099951ADDGF106991999999999999999999
0029228020999991922031406004+61700+030683FM-12+001699999V0203401N006219999999N0000001N9-00781+99999100301ADDGF106991999999999999999999
0029228020999991922031413004+61700+030683FM-12+001699999V0203601N004119999999N0000001N9-00501+99999100421ADDGF108991999999999999999999
0029228020999991922031420004+61700+030683FM-12+001699999V0203601N004119999999N0000001N9-00611+99999100511ADDGF107991999999999999999999
0029228020999991922031506004+61700+030683FM-12+001699999V0203601N004119999999N0000001N9-00611+99999100701ADDGF108991999999999999999999
0029228020999991922031513004+61700+030683FM-12+001699999V0203601N004119999999N0000001N9-00331+99999100791ADDGF108991999999999999999999
0029228020999991922031520004+61700+030683FM-12+001699999V0203601N002119999999N0000001N9-00561+99999100681ADDGF108991999999999999999999
0029228020999991922031606004+61700+030683FM-12+001699999V0203601N001019999999N0000001N9-01001+99999100151ADDGF107991999999999999999999
0029228020999991922031613004+61700+030683FM-12+001699999V0203601N001019999999N0000001N9-00111+99999100101ADDGF108991999999999999999999
0029228020999991922031620004+61700+030683FM-12+001699999V0203601N001019999999N0000001N9-00561+99999100351ADDGF100991999999999999999999
0029228020999991922031706004+61700+030683FM-12+001699999V0203201N002119999999N0000001N9-00941+99999100541ADDGF108991999999999999999999
0029228020999991922031713004+61700+030683FM-12+001699999V0203601N004119999999N0000001N9-00281+99999100441ADDGF105991999999999999999999
0029228020999991922031720004+61700+030683FM-12+001699999V0203601N002119999999N0000001N9-00671+99999100641ADDGF100991999999999999999999
0029228020999991922031806004+61700+030683FM-12+001699999V0203601N002119999999N0000001N9-01331+99999100631ADDGF108991999999999999999999
0029228020999991922031813004+61700+030683FM-12+001699999V0203201N001019999999N0000001N9-00501+99999100781ADDGF108991999999999999999999
0029228020999991922031820004+61700+030683FM-12+001699999V0203601N004119999999N0000001N9-01001+99999100921ADDGF108991999999999999999999
0029228020999991922031906004+61700+030683FM-12+001699999V0209991C000019999999N0000001N9-01941+99999100921ADDGF100991999999999999999999
0029228020999991922031913004+61700+030683FM-12+001699999V0203201N006219999999N0000001N9-00391+99999100701ADDGF100991999999999999999999
0029228020999991922031920004+61700+030683FM-12+001699999V0203201N001019999999N0000001N9-01331+99999100721ADDGF100991999999999999999999
0029228020999991922032006004+61700+030683FM-12+001699999V0203201N001019999999N0000001N9-02221+99999100741ADDGF100991999999999999999999
0029228020999991922032013004+61700+030683FM-12+001699999V0203201N002119999999N0000001N9-00501+99999100661ADDGF108991999999999999999999
0029228020999991922032020004+61700+030683FM-12+001699999V0209991C000019999999N0000001N9-01671+99999100791ADDGF100991999999999999999999
0029228020999991922032106004+61700+030683FM-12+001699999V0209991C000019999999N0000001N9-02281+99999100921ADDGF100991999999999999999999
0029228020999991922032113004+61700+030683FM-12+001699999V0203601N001019999999N0000001N9-00281+99999101021ADDGF100991999999999999999999
0029228020999991922032120004+61700+030683FM-12+001699999V0209991C000019999999N0000001N9-01441+99999101061ADDGF100991999999999999999999
0035228020999991922032206004+61700+030683FM-12+001699999V0202301N001019999999N0000001N9-01721+99999101201ADDGF108991999999999999999999MW1721
0029228020999991922032213004+61700+030683FM-12+001699999V0202301N002119999999N0000001N9-00611+99999101581ADDGF108991999999999999999999
0029228020999991922032220004+61700+030683FM-12+001699999V0209991C000019999999N0000001N9-01671+99999101761ADDGF100991999999999999999999
0029228020999991922032306004+61700+030683FM-12+001699999V0209991C000019999999N0000001N9-01781+99999101511ADDGF108991999999999999999999
0035228020999991922032313004+61700+030683FM-12+001699999V0202301N001019999999N0000001N9-00111+99999101181ADDGF108991999999999999999999MW1701
0029228020999991922032320004+61700+030683FM-12+001699999V0202701N001019999999N0000001N9+00061+99999100961ADDGF108991999999999999999999
0029228020999991922032406004+61700+030683FM-12+001699999V0202701N002119999999N0000001N9+00061+99999101101ADDGF108991999999999999999999
0029228020999991922032413004+61700+030683FM-12+001699999V0202701N002119999999N0000001N9+00501+99999101161ADDGF107991999999999999999999
0029228020999991922032420004+61700+030683FM-12+001699999V0209991C000019999999N0000001N9+00171+99999101201ADDGF108991999999999999999999
0029228020999991922032506004+61700+030683FM-12+001699999V0202701N004119999999N0000001N9-00171+99999101071ADDGF108991999999999999999999
0029228020999991922032513004+61700+030683FM-12+001699999V0201401N004119999999N0000001N9+00061+99999100911ADDGF106991999999999999999999
0029228020999991922032520004+61700+030683FM-12+001699999V0201401N001019999999N0000001N9-00061+99999100581ADDGF108991999999999999999999
0029228020999991922032606004+61700+030683FM-12+001699999V0201401N002119999999N0000001N9-00281+99999100221ADDGF108991999999999999999999
0029228020999991922032613004+61700+030683FM-12+001699999V0201401N002119999999N0000001N9-00171+99999100071ADDGF108991999999999999999999
0029228020999991922032620004+61700+030683FM-12+001699999V0209991C000019999999N0000001N9-00331+99999100021ADDGF108991999999999999999999
0035228020999991922032706004+61700+030683FM-12+001699999V0201401N001019999999N0000001N9-00391+99999100031ADDGF108991999999999999999999MW1721
0029228020999991922032713004+61700+030683FM-12+001699999V0201401N001019999999N0000001N9+00221+99999100191ADDGF108991999999999999999999
0029228020999991922032720004+61700+030683FM-12+001699999V0209991C000019999999N0000001N9-00441+99999100431ADDGF108991999999999999999999
0029228020999991922032806004+61700+030683FM-12+001699999V0209991C000019999999N0000001N9-00671+99999100591ADDGF108991999999999999999999
0029228020999991922032813004+61700+030683FM-12+001699999V0209991C000019999999N0000001N9+00221+99999100201ADDGF108991999999999999999999
0035228020999991922032820004+61700+030683FM-12+001699999V0200701N001019999999N0000001N9-00111+99999099721ADDGF108991999999999999999999MW1721
0029228020999991922032906004+61700+030683FM-12+001699999V0201401N001019999999N0000001N9+00061+99999099471ADDGF108991999999999999999999
0029228020999991922032913004+61700+030683FM-12+001699999V0200901N001019999999N0000001N9+00221+99999099751ADDGF108991999999999999999999
0035228020999991922032920004+61700+030683FM-12+001699999V0209991C000019999999N0000001N9+00221+99999099641ADDGF108991999999999999999999MW1621
0035228020999991922033006004+61700+030683FM-12+001699999V0201101N001019999999N0000001N9+00061+99999099341ADDGF108991999999999999999999MW1601
0035228020999991922033013004+61700+030683FM-12+001699999V0200901N001019999999N0000001N9+00111+99999099741ADDGF108991999999999999999999MW1721
0029228020999991922033020004+61700+030683FM-12+001699999V0209991C000019999999N0000001N9+00001+99999100271ADDGF108991999999999999999999
0029228020999991922033106004+61700+030683FM-12+001699999V0201801N002119999999N0000001N9-00061+99999100841ADDGF108991999999999999999999
0029228020999991922033113004+61700+030683FM-12+001699999V0201601N004119999999N0000001N9+00111+99999101151ADDGF108991999999999999999999
0029228020999991922033120004+61700+030683FM-12+001699999V0201601N001019999999N0000001N9-00111+99999101201ADDGF108991999999999999999999
0029228020999991922040106004+61700+030683FM-12+001699999V0201401N001019999999N0000001N9-00891+99999101141ADDGF108991999999999999999999
0029228020999991922040113004+61700+030683FM-12+001699999V0201601N004119999999N0000001N9+00221+99999101121ADDGF100991999999999999999999
0029228020999991922040120004+61700+030683FM-12+001699999V0209991C000019999999N0000001N9-00441+99999101081ADDGF100991999999999999999999
0029228020999991922040206004+61700+030683FM-12+001699999V0201401N001019999999N0000001N9-00391+99999100941ADDGF106991999999999999999999
0035228020999991922040213004+61700+030683FM-12+001699999V0201401N008219999999N0000001N9+00281+99999100561ADDGF108991999999999999999999MW1721
0035228020999991922040220004+61700+030683FM-12+001699999V0201401N011819999999N0000001N9+00061+99999100391ADDGF108991999999999999999999MW1721
0029228020999991922040306004+61700+030683FM-12+001699999V0201401N001019999999N0000001N9-00111+99999100621ADDGF106991999999999999999999
0029228020999991922040313004+61700+030683FM-12+001699999V0201601N002119999999N0000001N9+00001+99999100841ADDGF108991999999999999999999
0029228020999991922040320004+61700+030683FM-12+001699999V0201401N001019999999N0000001N9-00171+99999100831ADDGF108991999999999999999999
0035228020999991922040406004+61700+030683FM-12+001699999V0201401N001019999999N0000001N9-00061+99999100141ADDGF108991999999999999999999MW1721
0035228020999991922040413004+61700+030683FM-12+001699999V0201601N004119999999N0000001N9+00111+99999099981ADDGF108991999999999999999999MW1721
0035228020999991922040420004+61700+030683FM-12+001699999V0201401N002119999999N0000001N9+00061+99999099761ADDGF108991999999999999999999MW1721
0035228020999991922040506004+61700+030683FM-12+001699999V0201401N002119999999N0000001N9+00061+99999099701ADDGF108991999999999999999999MW1721
0029228020999991922040513004+61700+030683FM-12+001699999V0201801N004119999999N0000001N9+00171+99999099911ADDGF108991999999999999999999
0035228020999991922040520004+61700+030683FM-12+001699999V0201401N001019999999N0000001N9+00111+99999099841ADDGF108991999999999999999999MW1621
0029228020999991922040606004+61700+030683FM-12+001699999V0200901N001019999999N0000001N9+00111+99999099721ADDGF108991999999999999999999
0029228020999991922040613004+61700+030683FM-12+001699999V0200901N002119999999N0000001N9+00221+99999100121ADDGF108991999999999999999999
0035228020999991922040620004+61700+030683FM-12+001699999V0200901N001019999999N0000001N9+00171+99999099901ADDGF108991999999999999999999MW1621
0029228020999991922040706004+61700+030683FM-12+001699999V0201801N001019999999N0000001N9+00061+99999099881ADDGF108991999999999999999999
0029228020999991922040713004+61700+030683FM-12+001699999V0201801N004119999999N0000001N9+00171+99999100101ADDGF108991999999999999999999
0029228020999991922040720004+61700+030683FM-12+001699999V0201401N004119999999N0000001N9-00061+99999100111ADDGF106991999999999999999999
0029228020999991922040806004+61700+030683FM-12+001699999V0202301N008219999999N0000001N9-00171+99999100281ADDGF108991999999999999999999
0035228020999991922040820004+61700+030683FM-12+001699999V0201801N004119999999N0000001N9-00061+99999100791ADDGF108991999999999999999999MW1721
0029228020999991922040906004+61700+030683FM-12+001699999V0209991C000019999999N0000001N9-00831+99999100911ADDGF100991999999999999999999
0029228020999991922040913004+61700+030683FM-12+001699999V0202301N002119999999N0000001N9+00281+99999100621ADDGF100991999999999999999999
0029228020999991922040920004+61700+030683FM-12+001699999V0209991C000019999999N0000001N9-00061+99999100341ADDGF106991999999999999999999
0035228020999991922041006004+61700+030683FM-12+001699999V0200501N002119999999N0000001N9-00061+99999099741ADDGF108991999999999999999999MW1721
0029228020999991922041013004+61700+030683FM-12+001699999V0201401N006219999999N0000001N9+00111+99999099441ADDGF108991999999999999999999
0029228020999991922041020004+61700+030683FM-12+001699999V0201401N008219999999N0000001N9-00061+99999099441ADDGF108991999999999999999999
0035228020999991922041106004+61700+030683FM-12+001699999V0201401N004119999999N0000001N9-00061+99999099601ADDGF108991999999999999999999MW1701
0035228020999991922041113004+61700+030683FM-12+001699999V0201401N008219999999N0000001N9-00111+99999100301ADDGF108991999999999999999999MW1701
0029228020999991922041120004+61700+030683FM-12+001699999V0203201N001019999999N0000001N9-00281+99999100711ADDGF106991999999999999999999
0029228020999991922041206004+61700+030683FM-12+001699999V0203201N001019999999N0000001N9-00721+99999100961ADDGF100991999999999999999999
0029228020999991922041213004+61700+030683FM-12+001699999V0203201N004119999999N0000001N9+00171+99999101221ADDGF104991999999999999999999
0029228020999991922041220004+61700+030683FM-12+001699999V0209991C000019999999N0000001N9-00331+99999101591ADDGF100991999999999999999999
0029228020999991922041306004+61700+030683FM-12+001699999V0203201N001019999999N0000001N9-00721+99999101981ADDGF108991999999999999999999
0029228020999991922041313004+61700+030683FM-12+001699999V0201401N001019999999N0000001N9+00501+99999102161ADDGF100991999999999999999999
0029228020999991922041320004+61700+030683FM-12+001699999V0209991C000019999999N0000001N9+00061+99999102121ADDGF100991999999999999999999
0029228020999991922041406004+61700+030683FM-12+001699999V0201401N002119999999N0000001N9-00061+99999101591ADDGF108991999999999999999999
0035228020999991922041413004+61700+030683FM-12+001699999V0201601N004119999999N0000001N9+00061+99999101031ADDGF108991999999999999999999MW1721
0029228020999991922041420004+61700+030683FM-12+001699999V0201601N004119999999N0000001N9+00281+99999100561ADDGF108991999999999999999999
0029228020999991922041506004+61700+030683FM-12+001699999V0203201N004119999999N0000001N9+00281+99999100871ADDGF108991999999999999999999
0029228020999991922041513004+61700+030683FM-12+001699999V0203201N004119999999N0000001N9+00281+99999101621ADDGF108991999999999999999999
0029228020999991922041520004+61700+030683FM-12+001699999V0209991C000019999999N0000001N9-00061+99999101901ADDGF103991999999999999999999
0029228020999991922041606004+61700+030683FM-12+001699999V0201401N006219999999N0000001N9+00221+99999101261ADDGF108991999999999999999999
0029228020999991922041613004+61700+030683FM-12+001699999V0201401N002119999999N0000001N9+00561+99999100871ADDGF105991999999999999999999
0029228020999991922041620004+61700+030683FM-12+001699999V0209991C000019999999N0000001N9+00171+99999100981ADDGF100991999999999999999999
0029228020999991922041706004+61700+030683FM-12+001699999V0209991C000019999999N0000001N9+00111+99999100761ADDGF108991999999999999999999
0029228020999991922041713004+61700+030683FM-12+001699999V0201401N002119999999N0000001N9+00721+99999100631ADDGF106991999999999999999999
0029228020999991922041720004+61700+030683FM-12+001699999V0209991C000019999999N0000001N9+00221+99999100881ADDGF107991999999999999999999
0029228020999991922041806004+61700+030683FM-12+001699999V0201401N001019999999N0000001N9+00281+99999101101ADDGF108991999999999999999999
0029228020999991922041813004+61700+030683FM-12+001699999V0203201N004119999999N0000001N9+01001+99999101341ADDGF100991999999999999999999
0029228020999991922041820004+61700+030683FM-12+001699999V0209991C000019999999N0000001N9+00331+99999101501ADDGF100991999999999999999999
0029228020999991922041906004+61700+030683FM-12+001699999V0203201N001019999999N0000001N9+00171+99999101581ADDGF108991999999999999999999
0029228020999991922041913004+61700+030683FM-12+001699999V0203201N006219999999N0000001N9+00331+99999101951ADDGF100991999999999999999999
0029228020999991922041920004+61700+030683FM-12+001699999V0200201N008219999999N0000001N9-00331+99999102241ADDGF100991999999999999999999
0029228020999991922042006004+61700+030683FM-12+001699999V0203601N002119999999N0000001N9-00561+99999102301ADDGF108991999999999999999999
0029228020999991922042013004+61700+030683FM-12+001699999V0203601N006219999999N0000001N9+00171+99999102111ADDGF102991999999999999999999
0029228020999991922042020004+61700+030683FM-12+001699999V0203201N004119999999N0000001N9-00111+99999102071ADDGF100991999999999999999999
0029228020999991922042106004+61700+030683FM-12+001699999V0203201N002119999999N0000001N9-00281+99999102181ADDGF100991999999999999999999
0029228020999991922042113004+61700+030683FM-12+001699999V0200501N004119999999N0000001N9+00671+99999101991ADDGF100991999999999999999999
0029228020999991922042120004+61700+030683FM-12+001699999V0209991C000019999999N0000001N9+00221+99999101801ADDGF108991999999999999999999
0029228020999991922042206004+61700+030683FM-12+001699999V0209991C000019999999N0000001N9+00001+99999101861ADDGF108991999999999999999999
0029228020999991922042213004+61700+030683FM-12+001699999V0203601N004119999999N0000001N9+00721+99999101941ADDGF108991999999999999999999
0029228020999991922042220004+61700+030683FM-12+001699999V0200201N001019999999N0000001N9+00061+99999101941ADDGF100991999999999999999999
0029228020999991922042306004+61700+030683FM-12+001699999V0209991C000019999999N0000001N9-00061+99999102071ADDGF100991999999999999999999
0029228020999991922042313004+61700+030683FM-12+001699999V0200901N001019999999N0000001N9+01001+99999102071ADDGF100991999999999999999999
0029228020999991922042320004+61700+030683FM-12+001699999V0209991C000019999999N0000001N9+00111+99999102001ADDGF100991999999999999999999
0029228020999991922042406004+61700+030683FM-12+001699999V0200901N001019999999N0000001N9+00061+99999101861ADDGF100991999999999999999999
0029228020999991922042413004+61700+030683FM-12+001699999V0201101N002119999999N0000001N9+01501+99999101581ADDGF100991999999999999999999
0029228020999991922042420004+61700+030683FM-12+001699999V0209991C000019999999N0000001N9+00611+99999101351ADDGF100991999999999999999999
0029228020999991922042506004+61700+030683FM-12+001699999V0200901N002119999999N0000001N9+00561+99999101401ADDGF100991999999999999999999
0029228020999991922042513004+61700+030683FM-12+001699999V0201401N002119999999N0000001N9+00891+99999101501ADDGF100991999999999999999999
0029228020999991922042520004+61700+030683FM-12+001699999V0209991C000019999999N0000001N9+00331+99999101481ADDGF100991999999999999999999
0029228020999991922042606004+61700+030683FM-12+001699999V0201401N001019999999N0000001N9+00501+99999101641ADDGF100991999999999999999999
0029228020999991922042613004+61700+030683FM-12+001699999V0201401N001019999999N0000001N9+01111+99999101621ADDGF100991999999999999999999
0029228020999991922042620004+61700+030683FM-12+001699999V0209991C000019999999N0000001N9+00331+99999101561ADDGF100991999999999999999999
0046228020999991922042706004+61700+030683FM-12+001699999V0200901N001019999999N0000001N9+00561+99999101481ADDAJ100009199999999GF105991999999999999999999
0029228020999991922042713004+61700+030683FM-12+001699999V0200901N001019999999N0000001N9+01281+99999101401ADDGF105991999999999999999999
0029228020999991922042720004+61700+030683FM-12+001699999V0200901N004119999999N0000001N9+00671+99999101361ADDGF100991999999999999999999
0046228020999991922042806004+61700+030683FM-12+001699999V0200901N004119999999N0000001N9+00561+99999101581ADDAJ100009199999999GF106991999999999999999999
0029228020999991922042813004+61700+030683FM-12+001699999V0201401N002119999999N0000001N9+01001+99999101781ADDGF105991999999999999999999
0029228020999991922042820004+61700+030683FM-12+001699999V0201401N002119999999N0000001N9+00831+99999101821ADDGF102991999999999999999999
0046228020999991922042906004+61700+030683FM-12+001699999V0201401N002119999999N0000001N9+00671+99999101951ADDAJ100009199999999GF106991999999999999999999
0029228020999991922042913004+61700+030683FM-12+001699999V0201401N006219999999N0000001N9+01331+99999101781ADDGF102991999999999999999999
0029228020999991922042920004+61700+030683FM-12+001699999V0200901N002119999999N0000001N9+00831+99999101501ADDGF108991999999999999999999
0052228020999991922043006004+61700+030683FM-12+001699999V0200901N006219999999N0000001N9+00671+99999101141ADDAJ100009199999999GF108991999999999999999999MW1601
0029228020999991922043013004+61700+030683FM-12+001699999V0200901N002119999999N0000001N9+00831+99999101121ADDGF108991999999999999999999
0029228020999991922043020004+61700+030683FM-12+001699999V0203601N002119999999N0000001N9+00671+99999101261ADDGF108991999999999999999999
0046228020999991922050106004+61700+030683FM-12+001699999V0203601N004119999999N0000001N9+00561+99999101501ADDAJ100009199999999GF108991999999999999999999
0029228020999991922050113004+61700+030683FM-12+001699999V0200501N004119999999N0000001N9+01441+99999101551ADDGF102991999999999999999999
0029228020999991922050120004+61700+030683FM-12+001699999V0200901N001019999999N0000001N9+00781+99999101581ADDGF102991999999999999999999
0046228020999991922050206004+61700+030683FM-12+001699999V0201401N004119999999N0000001N9+00721+99999101721ADDAJ100009199999999GF108991999999999999999999
0029228020999991922050213004+61700+030683FM-12+001699999V0201401N004119999999N0000001N9+01281+99999101551ADDGF103991999999999999999999
0029228020999991922050220004+61700+030683FM-12+001699999V0200901N002119999999N0000001N9+00941+99999101061ADDGF106991999999999999999999
0052228020999991922050306004+61700+030683FM-12+001699999V0201401N004119999999N0000001N9+00561+99999100591ADDAJ100009199999999GF108991999999999999999999MW1621
0035228020999991922050313004+61700+030683FM-12+001699999V0202701N006219999999N0000001N9+00671+99999100941ADDGF108991999999999999999999MW1621
0029228020999991922050320004+61700+030683FM-12+001699999V0202701N001019999999N0000001N9+00501+99999101521ADDGF100991999999999999999999
0046228020999991922050406004+61700+030683FM-12+001699999V0200901N002119999999N0000001N9+00331+99999102071ADDAJ100009199999999GF100991999999999999999999
0029228020999991922050413004+61700+030683FM-12+001699999V0201401N004119999999N0000001N9+01061+99999101721ADDGF104991999999999999999999
0029228020999991922050420004+61700+030683FM-12+001699999V0201401N001019999999N0000001N9+00671+99999101271ADDGF106991999999999999999999
0052228020999991922050506004+61700+030683FM-12+001699999V0200701N006219999999N0000001N9+00501+99999100271ADDAJ100009199999999GF108991999999999999999999MW1621
0029228020999991922050513004+61700+030683FM-12+001699999V0203601N004119999999N0000001N9+00611+99999100061ADDGF108991999999999999999999
0029228020999991922050520004+61700+030683FM-12+001699999V0203201N006219999999N0000001N9+00561+99999100711ADDGF108991999999999999999999
0046228020999991922050606004+61700+030683FM-12+001699999V0202701N002119999999N0000001N9+00721+99999101381ADDAJ100009199999999GF100991999999999999999999
0029228020999991922050613004+61700+030683FM-12+001699999V0200901N008219999999N0000001N9+01061+99999101671ADDGF106991999999999999999999
0029228020999991922050620004+61700+030683FM-12+001699999V0202301N004119999999N0000001N9+00831+99999102031ADDGF108991999999999999999999
0046228020999991922050706004+61700+030683FM-12+001699999V0202301N004119999999N0000001N9+00721+99999102151ADDAJ100009199999999GF100991999999999999999999
0029228020999991922050713004+61700+030683FM-12+001699999V0201401N006219999999N0000001N9+01001+99999102071ADDGF106991999999999999999999
0029228020999991922050720004+61700+030683FM-12+001699999V0201401N002119999999N0000001N9+00831+99999102041ADDGF102991999999999999999999
0046228020999991922050806004+61700+030683FM-12+001699999V0201401N002119999999N0000001N9+00671+99999101901ADDAJ100009199999999GF100991999999999999999999
0029228020999991922050813004+61700+030683FM-12+001699999V0201401N005119999999N0000001N9+00941+99999101481ADDGF107991999999999999999999
0035228020999991922050820004+61700+030683FM-12+001699999V0201801N002119999999N0000001N9+00561+99999100761ADDGF108991999999999999999999MW1621
0046228020999991922050906004+61700+030683FM-12+001699999V0201401N001019999999N0000001N9+00501+99999999999ADDAJ100009199999999GF108991999999999999999999
0029228020999991922050913004+61700+030683FM-12+001699999V0201401N006219999999N0000001N9+01001+99999099831ADDGF103991999999999999999999
0035228020999991922050920004+61700+030683FM-12+001699999V0201401N001019999999N0000001N9+00561+99999099241ADDGF108991999999999999999999MW1621
0046228020999991922051006004+61700+030683FM-12+001699999V0201401N006219999999N0000001N9+00331+99999098761ADDAJ100009199999999GF108991999999999999999999
0029228020999991922051013004+61700+030683FM-12+001699999V0201801N011819999999N0000001N9+00391+99999098801ADDGF108991999999999999999999
0035228020999991922051020004+61700+030683FM-12+001699999V0201801N008219999999N0000001N9+00171+99999098841ADDGF108991999999999999999999MW1621
0052228020999991922051106004+61700+030683FM-12+001699999V0201801N006219999999N0000001N9+00221+99999098641ADDAJ100009199999999GF108991999999999999999999MW1621
0029228020999991922051113004+61700+030683FM-12+001699999V0201601N008219999999N0000001N9+00501+99999098861ADDGF107991999999999999999999
0029228020999991922051120004+61700+030683FM-12+001699999V0202001N004119999999N0000001N9+00501+99999099191ADDGF105991999999999999999999
0046228020999991922051206004+61700+030683FM-12+001699999V0201801N004119999999N0000001N9+00391+99999099441ADDAJ100009199999999GF108991999999999999999999
0029228020999991922051213004+61700+030683FM-12+001699999V0201801N006219999999N0000001N9+00671+99999099801ADDGF108991999999999999999999
0029228020999991922051220004+61700+030683FM-12+001699999V0201801N004119999999N0000001N9+00441+99999099921ADDGF104991999999999999999999
0046228020999991922051306004+61700+030683FM-12+001699999V0201801N002119999999N0000001N9+00561+99999100071ADDAJ100009199999999GF100991999999999999999999
0029228020999991922051313004+61700+030683FM-12+001699999V0202301N006219999999N0000001N9+00671+99999100261ADDGF108991999999999999999999
0029228020999991922051320004+61700+030683FM-12+001699999V0201401N006219999999N0000001N9+00391+99999100351ADDGF105991999999999999999999
0046228020999991922051406004+61700+030683FM-12+001699999V0201401N002119999999N0000001N9+00611+99999100281ADDAJ100009199999999GF102991999999999999999999
0029228020999991922051413004+61700+030683FM-12+001699999V0201401N002119999999N0000001N9+01331+99999100161ADDGF104991999999999999999999
0029228020999991922051420004+61700+030683FM-12+001699999V0203601N006219999999N0000001N9+00941+99999100261ADDGF102991999999999999999999
0046228020999991922051506004+61700+030683FM-12+001699999V0203601N002119999999N0000001N9+00671+99999100311ADDAJ100009199999999GF104991999999999999999999
0029228020999991922051513004+61700+030683FM-12+001699999V0203601N001019999999N0000001N9+01501+99999100071ADDGF104991999999999999999999
0029228020999991922051520004+61700+030683FM-12+001699999V0202701N001019999999N0000001N9+01061+99999099681ADDGF105991999999999999999999
0046228020999991922051606004+61700+030683FM-12+001699999V0202701N002119999999N0000001N9+00721+99999099351ADDAJ100009199999999GF102991999999999999999999
0035228020999991922051613004+61700+030683FM-12+001699999V0203201N001019999999N0000001N9+00891+99999099581ADDGF108991999999999999999999MW1621
0029228020999991922051620004+61700+030683FM-12+001699999V0203201N008219999999N0000001N9+00831+99999099901ADDGF104991999999999999999999
0046228020999991922051706004+61700+030683FM-12+001699999V0203201N006219999999N0000001N9+00671+99999100111ADDAJ100009199999999GF106991999999999999999999
0029228020999991922051713004+61700+030683FM-12+001699999V0203401N008219999999N0000001N9+00891+99999100541ADDGF106991999999999999999999
0029228020999991922051720004+61700+030683FM-12+001699999V0203201N002119999999N0000001N9+00891+99999100791ADDGF100991999999999999999999
0046228020999991922051806004+61700+030683FM-12+001699999V0203201N002119999999N0000001N9+01001+99999101001ADDAJ100009199999999GF101991999999999999999999
0029228020999991922051813004+61700+030683FM-12+001699999V0203201N001019999999N0000001N9+01831+99999101041ADDGF101991999999999999999999
0029228020999991922051820004+61700+030683FM-12+001699999V0203201N001019999999N0000001N9+01221+99999101081ADDGF100991999999999999999999
0046228020999991922051906004+61700+030683FM-12+001699999V0203201N001019999999N0000001N9+01111+99999101231ADDAJ100009199999999GF106991999999999999999999
0029228020999991922051913004+61700+030683FM-12+001699999V0202001N004119999999N0000001N9+01721+99999101231ADDGF103991999999999999999999
0029228020999991922051920004+61700+030683FM-12+001699999V0201401N001019999999N0000001N9+01061+99999101111ADDGF106991999999999999999999
0046228020999991922052006004+61700+030683FM-12+001699999V0201401N001019999999N0000001N9+00831+99999101031ADDAJ100009199999999GF108991999999999999999999
0035228020999991922052013004+61700+030683FM-12+001699999V0201401N002119999999N0000001N9+01001+99999101041ADDGF108991999999999999999999MW1621
0035228020999991922052020004+61700+030683FM-12+001699999V0201401N001019999999N0000001N9+00941+99999100921ADDGF108991999999999999999999MW1621
0046228020999991922052106004+61700+030683FM-12+001699999V0200501N001019999999N0000001N9+01171+99999101061ADDAJ100009199999999GF108991999999999999999999
0035228020999991922052113004+61700+030683FM-12+001699999V0200501N002119999999N0000001N9+01721+99999101261ADDGF108991999999999999999999MW1621
0029228020999991922052120004+61700+030683FM-12+001699999V0203601N001019999999N0000001N9+01331+99999101431ADDGF108991999999999999999999
0046228020999991922052206004+61700+030683FM-12+001699999V0200501N001019999999N0000001N9+01221+99999101661ADDAJ100009199999999GF105991999999999999999999
0029228020999991922052213004+61700+030683FM-12+001699999V0200901N002119999999N0000001N9+01941+99999101711ADDGF102991999999999999999999
0029228020999991922052220004+61700+030683FM-12+001699999V0201801N001019999999N0000001N9+01171+99999101831ADDGF100991999999999999999999
0046228020999991922052306004+61700+030683FM-12+001699999V0201801N001019999999N0000001N9+01221+99999101921ADDAJ100009199999999GF100991999999999999999999
0029228020999991922052313004+61700+030683FM-12+001699999V0201801N006219999999N0000001N9+01561+99999101801ADDGF106991999999999999999999
0029228020999991922052320004+61700+030683FM-12+001699999V0201401N001019999999N0000001N9+01001+99999101591ADDGF108991999999999999999999
0046228020999991922052406004+61700+030683FM-12+001699999V0201401N001019999999N0000001N9+01001+99999101461ADDAJ100009199999999GF108991999999999999999999
0029228020999991922052413004+61700+030683FM-12+001699999V0201601N002119999999N0000001N9+01781+99999101421ADDGF105991999999999999999999
0029228020999991922052420004+61700+030683FM-12+001699999V0201401N001019999999N0000001N9+01221+99999101341ADDGF106991999999999999999999
0046228020999991922052506004+61700+030683FM-12+001699999V0201401N001019999999N0000001N9+01281+99999101221ADDAJ100009199999999GF106991999999999999999999
0029228020999991922052513004+61700+030683FM-12+001699999V0203201N006219999999N0000001N9+02171+99999101021ADDGF108991999999999999999999
0035228020999991922052520004+61700+030683FM-12+001699999V0203201N001019999999N0000001N9+01501+99999100631ADDGF108991999999999999999999MW1621
0046228020999991922052606004+61700+030683FM-12+001699999V0203201N008219999999N0000001N9+01281+99999100941ADDAJ100009199999999GF105991999999999999999999
0029228020999991922052613004+61700+030683FM-12+001699999V0203201N009819999999N0000001N9+01501+99999101341ADDGF106991999999999999999999
0029228020999991922052620004+61700+030683FM-12+001699999V0203601N002119999999N0000001N9+00831+99999101671ADDGF100991999999999999999999
0046228020999991922052706004+61700+030683FM-12+001699999V0201101N006219999999N0000001N9+00721+99999101591ADDAJ100009199999999GF104991999999999999999999
0029228020999991922052713004+61700+030683FM-12+001699999V0201401N011819999999N0000001N9+00891+99999100901ADDGF104991999999999999999999
0035228020999991922052720004+61700+030683FM-12+001699999V0201801N006219999999N0000001N9+00781+99999099831ADDGF108991999999999999999999MW1621
0046228020999991922052806004+61700+030683FM-12+001699999V0201801N002119999999N0000001N9+01001+99999099721ADDAJ100009199999999GF108991999999999999999999
0029228020999991922052813004+61700+030683FM-12+001699999V0201401N006219999999N0000001N9+01061+99999099941ADDGF106991999999999999999999
0029228020999991922052820004+61700+030683FM-12+001699999V0203601N002119999999N0000001N9+00891+99999100231ADDGF108991999999999999999999
0046228020999991922052906004+61700+030683FM-12+001699999V0203601N006219999999N0000001N9+01061+99999100751ADDAJ100009199999999GF102991999999999999999999
0029228020999991922052913004+61700+030683FM-12+001699999V0200501N008219999999N0000001N9+01111+99999101151ADDGF106991999999999999999999
0029228020999991922052920004+61700+030683FM-12+001699999V0203201N004119999999N0000001N9+00671+99999101441ADDGF102991999999999999999999
0046228020999991922053006004+61700+030683FM-12+001699999V0202701N001019999999N0000001N9+00891+99999101631ADDAJ100009199999999GF100991999999999999999999
0035228020999991922053013004+61700+030683FM-12+001699999V0203201N009819999999N0000001N9+00891+99999101301ADDGF108991999999999999999999MW1621
0029228020999991922053020004+61700+030683FM-12+001699999V0203201N002119999999N0000001N9+00721+99999100761ADDGF108991999999999999999999
0046228020999991922053106004+61700+030683FM-12+001699999V0203201N002119999999N0000001N9+00781+99999099921ADDAJ100009199999999GF108991999999999999999999
0035228020999991922053113004+61700+030683FM-12+001699999V0201101N011819999999N0000001N9+00721+99999098681ADDGF108991999999999999999999MW1621
0035228020999991922053120004+61700+030683FM-12+001699999V0201401N001019999999N0000001N9+00721+99999098111ADDGF108991999999999999999999MW1621
0052228020999991922060106004+61700+030683FM-12+001699999V0203601N009819999999N0000001N9+00781+99999098021ADDAJ100009199999999GF108991999999999999999999MW1621
0035228020999991922060113004+61700+030683FM-12+001699999V0203601N002119999999N0000001N9+00891+99999098671ADDGF108991999999999999999999MW1621
0035228020999991922060120004+61700+030683FM-12+001699999V0203601N006219999999N0000001N9+00831+99999099221ADDGF108991999999999999999999MW1621
0046228020999991922060206004+61700+030683FM-12+001699999V0203601N006219999999N0000001N9+01001+99999099871ADDAJ100009199999999GF105991999999999999999999
0029228020999991922060213004+61700+030683FM-12+001699999V0203201N009819999999N0000001N9+01111+99999100321ADDGF106991999999999999999999
0029228020999991922060220004+61700+030683FM-12+001699999V0203601N006219999999N0000001N9+00831+99999100561ADDGF106991999999999999999999
0046228020999991922060306004+61700+030683FM-12+001699999V0203201N006219999999N0000001N9+00831+99999100781ADDAJ100009199999999GF106991999999999999999999
0029228020999991922060313004+61700+030683FM-12+001699999V0203601N006219999999N0000001N9+01001+99999100781ADDGF108991999999999999999999
0029228020999991922060320004+61700+030683FM-12+001699999V0203601N001019999999N0000001N9+00671+99999100861ADDGF102991999999999999999999
0046228020999991922060406004+61700+030683FM-12+001699999V0203601N002119999999N0000001N9+00721+99999100961ADDAJ100009199999999GF108991999999999999999999
0029228020999991922060413004+61700+030683FM-12+001699999V0203201N002119999999N0000001N9+01001+99999101031ADDGF108991999999999999999999
0029228020999991922060420004+61700+030683FM-12+001699999V0203201N001019999999N0000001N9+00721+99999101221ADDGF102991999999999999999999
0046228020999991922060506004+61700+030683FM-12+001699999V0203201N001019999999N0000001N9+00831+99999101401ADDAJ100009199999999GF106991999999999999999999
0029228020999991922060513004+61700+030683FM-12+001699999V0202301N001019999999N0000001N9+01171+99999101431ADDGF108991999999999999999999
0029228020999991922060520004+61700+030683FM-12+001699999V0209991C000019999999N0000001N9+01111+99999101201ADDGF106991999999999999999999
0046228020999991922060606004+61700+030683FM-12+001699999V0201401N001019999999N0000001N9+00941+99999100981ADDAJ100009199999999GF108991999999999999999999
0029228020999991922060613004+61700+030683FM-12+001699999V0201601N004119999999N0000001N9+01501+99999100831ADDGF108991999999999999999999
0029228020999991922060620004+61700+030683FM-12+001699999V0201401N001019999999N0000001N9+01111+99999100661ADDGF106991999999999999999999
0046228020999991922060706004+61700+030683FM-12+001699999V0201401N001019999999N0000001N9+01171+99999100561ADDAJ100009199999999GF106991999999999999999999
0029228020999991922060713004+61700+030683FM-12+001699999V0201601N002119999999N0000001N9+01781+99999100741ADDGF102991999999999999999999
0029228020999991922060720004+61700+030683FM-12+001699999V0209991C000019999999N0000001N9+01281+99999100821ADDGF100991999999999999999999
0046228020999991922060806004+61700+030683FM-12+001699999V0201401N001019999999N0000001N9+01561+99999101021ADDAJ100009199999999GF100991999999999999999999
0029228020999991922060813004+61700+030683FM-12+001699999V0201401N002119999999N0000001N9+02281+99999101001ADDGF103991999999999999999999
0029228020999991922060820004+61700+030683FM-12+001699999V0200701N001019999999N0000001N9+01671+99999101001ADDGF104991999999999999999999
0046228020999991922060906004+61700+030683FM-12+001699999V0209991C000019999999N0000001N9+01561+99999100721ADDAJ100009199999999GF108991999999999999999999
0029228020999991922060913004+61700+030683FM-12+001699999V0200901N002119999999N0000001N9+01941+99999100621ADDGF105991999999999999999999
0029228020999991922060920004+61700+030683FM-12+001699999V0201801N001019999999N0000001N9+01671+99999100631ADDGF105991999999999999999999
0046228020999991922061006004+61700+030683FM-12+001699999V0200501N001019999999N0000001N9+01281+99999100711ADDAJ100009199999999GF108991999999999999999999
0029228020999991922061013004+61700+030683FM-12+001699999V0200501N002119999999N0000001N9+01671+99999100601ADDGF106991999999999999999999
0029228020999991922061020004+61700+030683FM-12+001699999V0203601N002119999999N0000001N9+01331+99999100511ADDGF104991999999999999999999
0046228020999991922061106004+61700+030683FM-12+001699999V0203601N004119999999N0000001N9+01561+99999100201ADDAJ100009199999999GF103991999999999999999999
0035228020999991922061113004+61700+030683FM-12+001699999V0203601N002119999999N0000001N9+01561+99999100021ADDGF108991999999999999999999MW1621
0029228020999991922061120004+61700+030683FM-12+001699999V0203201N001019999999N0000001N9+01391+99999100111ADDGF106991999999999999999999
0046228020999991922061206004+61700+030683FM-12+001699999V0201401N002119999999N0000001N9+01061+99999100521ADDAJ100009199999999GF108991999999999999999999
0029228020999991922061213004+61700+030683FM-12+001699999V0201401N004119999999N0000001N9+01891+99999100781ADDGF103991999999999999999999
0029228020999991922061220004+61700+030683FM-12+001699999V0201401N001019999999N0000001N9+01391+99999101041ADDGF102991999999999999999999
0046228020999991922061306004+61700+030683FM-12+001699999V0200901N001019999999N0000001N9+01501+99999101271ADDAJ100009199999999GF107991999999999999999999
0029228020999991922061313004+61700+030683FM-12+001699999V0201801N004119999999N0000001N9+02061+99999101281ADDGF103991999999999999999999
0029228020999991922061320004+61700+030683FM-12+001699999V0201401N001019999999N0000001N9+01721+99999101321ADDGF104991999999999999999999
0029228020999991922061406004+61700+030683FM-12+001699999V0201401N002119999999N0000001N9+01831+99999101271ADDGF104991999999999999999999
0029228020999991922061413004+61700+030683FM-12+001699999V0201401N004119999999N0000001N9+02501+99999101061ADDGF101991999999999999999999
0029228020999991922061420004+61700+030683FM-12+001699999V0200901N002119999999N0000001N9+01941+99999100951ADDGF106991999999999999999999
0046228020999991922061506004+61700+030683FM-12+001699999V0200901N002119999999N0000001N9+01891+99999100951ADDAJ100009199999999GF107991999999999999999999
0029228020999991922061513004+61700+030683FM-12+001699999V0201401N004119999999N0000001N9+02501+99999100831ADDGF103991999999999999999999
0029228020999991922061520004+61700+030683FM-12+001699999V0202701N004119999999N0000001N9+01781+99999100911ADDGF107991999999999999999999
0046228020999991922061606004+61700+030683FM-12+001699999V0201401N008219999999N0000001N9+01721+99999100511ADDAJ100009199999999GF108991999999999999999999
0029228020999991922061613004+61700+030683FM-12+001699999V0201401N004119999999N0000001N9+01721+99999100761ADDGF108991999999999999999999
0029228020999991922061620004+61700+030683FM-12+001699999V0201401N001019999999N0000001N9+01171+99999100841ADDGF102991999999999999999999
0046228020999991922061706004+61700+030683FM-12+001699999V0201401N001019999999N0000001N9+01441+99999101061ADDAJ100009199999999GF102991999999999999999999
0029228020999991922061713004+61700+030683FM-12+001699999V0201401N002119999999N0000001N9+01831+99999101181ADDGF106991999999999999999999
0029228020999991922061720004+61700+030683FM-12+001699999V0201401N001019999999N0000001N9+01441+99999101241ADDGF102991999999999999999999
0046228020999991922061806004+61700+030683FM-12+001699999V0201401N001019999999N0000001N9+01561+99999101471ADDAJ100009199999999GF100991999999999999999999
0029228020999991922061813004+61700+030683FM-12+001699999V0201801N004119999999N0000001N9+02111+99999101581ADDGF100991999999999999999999
0029228020999991922061820004+61700+030683FM-12+001699999V0201801N001019999999N0000001N9+01721+99999101461ADDGF104991999999999999999999
0046228020999991922061906004+61700+030683FM-12+001699999V0200901N002119999999N0000001N9+02001+99999101271ADDAJ100009199999999GF104991999999999999999999
0029228020999991922061913004+61700+030683FM-12+001699999V0201801N004119999999N0000001N9+02391+99999100991ADDGF101991999999999999999999
0029228020999991922061920004+61700+030683FM-12+001699999V0201801N002119999999N0000001N9+01941+99999100681ADDGF108991999999999999999999
0046228020999991922062006004+61700+030683FM-12+001699999V0201401N001019999999N0000001N9+01671+99999100261ADDAJ100009199999999GF108991999999999999999999
0029228020999991922062013004+61700+030683FM-12+001699999V0200701N002119999999N0000001N9+02061+99999100281ADDGF105991999999999999999999
0029228020999991922062020004+61700+030683FM-12+001699999V0201801N002119999999N0000001N9+01721+99999100361ADDGF106991999999999999999999
0046228020999991922062106004+61700+030683FM-12+001699999V0200901N004119999999N0000001N9+01831+99999100501ADDAJ100009199999999GF102991999999999999999999
0029228020999991922062113004+61700+030683FM-12+001699999V0200501N002119999999N0000001N9+02281+99999100501ADDGF103991999999999999999999
0029228020999991922062120004+61700+030683FM-12+001699999V0201401N002119999999N0000001N9+01781+99999100511ADDGF103991999999999999999999
0046228020999991922062206004+61700+030683FM-12+001699999V0200501N002119999999N0000001N9+01501+99999100441ADDAJ100009199999999GF102991999999999999999999
0029228020999991922062213004+61700+030683FM-12+001699999V0200501N002119999999N0000001N9+02391+99999100281ADDGF104991999999999999999999
0029228020999991922062220004+61700+030683FM-12+001699999V0200501N001019999999N0000001N9+01611+99999100161ADDGF104991999999999999999999
0046228020999991922062306004+61700+030683FM-12+001699999V0201401N004119999999N0000001N9+01561+99999100141ADDAJ100009199999999GF105991999999999999999999
0029228020999991922062313004+61700+030683FM-12+001699999V0201401N006219999999N0000001N9+02061+99999100191ADDGF106991999999999999999999
0029228020999991922062320004+61700+030683FM-12+001699999V0203201N002119999999N0000001N9+01561+99999100381ADDGF106991999999999999999999
0046228020999991922062406004+61700+030683FM-12+001699999V0203201N004119999999N0000001N9+01561+99999100661ADDAJ100009199999999GF104991999999999999999999
0029228020999991922062413004+61700+030683FM-12+001699999V0203201N002119999999N0000001N9+02061+99999100631ADDGF106991999999999999999999
0029228020999991922062420004+61700+030683FM-12+001699999V0209991C000019999999N0000001N9+01501+99999100581ADDGF108991999999999999999999
0046228020999991922062506004+61700+030683FM-12+001699999V0201401N004119999999N0000001N9+01441+99999100321ADDAJ100009199999999GF108991999999999999999999
0035228020999991922062513004+61700+030683FM-12+001699999V0201401N008219999999N0000001N9+01501+99999100321ADDGF107991999999999999999999MW1621
0029228020999991922062520004+61700+030683FM-12+001699999V0201401N001019999999N0000001N9+01331+99999100401ADDGF105991999999999999999999
0046228020999991922062606004+61700+030683FM-12+001699999V0201401N001019999999N0000001N9+01561+99999100661ADDAJ100009199999999GF101991999999999999999999
0029228020999991922062613004+61700+030683FM-12+001699999V0201401N006219999999N0000001N9+01781+99999100711ADDGF106991999999999999999999
0029228020999991922062620004+61700+030683FM-12+001699999V0201401N001019999999N0000001N9+01281+99999100551ADDGF104991999999999999999999
0052228020999991922062706004+61700+030683FM-12+001699999V0201401N001019999999N0000001N9+01281+99999100501ADDAJ100009199999999GF108991999999999999999999MW1601
0029228020999991922062713004+61700+030683FM-12+001699999V0201401N006219999999N0000001N9+01781+99999100591ADDGF104991999999999999999999
0029228020999991922062720004+61700+030683FM-12+001699999V0209991C000019999999N0000001N9+01331+99999100581ADDGF104991999999999999999999
0046228020999991922062806004+61700+030683FM-12+001699999V0201401N001019999999N0000001N9+01441+99999100161ADDAJ100009199999999GF108991999999999999999999
0035228020999991922062813004+61700+030683FM-12+001699999V0201401N002119999999N0000001N9+01331+99999099311ADDGF108991999999999999999999MW1621
0029228020999991922062820004+61700+030683FM-12+001699999V0202001N002119999999N0000001N9+01331+99999099671ADDGF108991999999999999999999
0046228020999991922062906004+61700+030683FM-12+001699999V0202301N002119999999N0000001N9+01391+99999100041ADDAJ100009199999999GF100991999999999999999999
0029228020999991922062913004+61700+030683FM-12+001699999V0201401N008219999999N0000001N9+01611+99999100261ADDGF106991999999999999999999
0029228020999991922062920004+61700+030683FM-12+001699999V0201401N004119999999N0000001N9+01171+99999100461ADDGF108991999999999999999999
0046228020999991922063006004+61700+030683FM-12+001699999V0201401N008219999999N0000001N9+01331+99999100351ADDAJ100009199999999GF108991999999999999999999
0035228020999991922063013004+61700+030683FM-12+001699999V0201801N002119999999N0000001N9+01561+99999100381ADDGF108991999999999999999999MW1621
0029228020999991922063020004+61700+030683FM-12+001699999V0202001N004119999999N0000001N9+01501+99999100751ADDGF100991999999999999999999
0046228020999991922070106004+61700+030683FM-12+001699999V0202301N001019999999N0000001N9+01391+99999101441ADDAJ100009199999999GF100991999999999999999999
0029228020999991922070113004+61700+030683FM-12+001699999V0201801N002119999999N0000001N9+01781+99999101641ADDGF103991999999999999999999
0029228020999991922070120004+61700+030683FM-12+001699999V0202301N004119999999N0000001N9+01441+99999101761ADDGF104991999999999999999999
0046228020999991922070206004+61700+030683FM-12+001699999V0202301N004119999999N0000001N9+01561+99999102111ADDAJ100009199999999GF103991999999999999999999
0029228020999991922070213004+61700+030683FM-12+001699999V0201801N004119999999N0000001N9+01671+99999102161ADDGF106991999999999999999999
0029228020999991922070220004+61700+030683FM-12+001699999V0201801N001019999999N0000001N9+01561+99999102311ADDGF102991999999999999999999
0046228020999991922070306004+61700+030683FM-12+001699999V0209991C000019999999N0000001N9+01561+99999102501ADDAJ100009199999999GF100991999999999999999999
0029228020999991922070313004+61700+030683FM-12+001699999V0201401N004119999999N0000001N9+02001+99999102431ADDGF103991999999999999999999
0029228020999991922070320004+61700+030683FM-12+001699999V0201401N001019999999N0000001N9+01501+99999102301ADDGF103991999999999999999999
0046228020999991922070406004+61700+030683FM-12+001699999V0201401N002119999999N0000001N9+01441+99999102041ADDAJ100009199999999GF108991999999999999999999
0029228020999991922070413004+61700+030683FM-12+001699999V0201401N004119999999N0000001N9+02111+99999101791ADDGF103991999999999999999999
0029228020999991922070420004+61700+030683FM-12+001699999V0209991C000019999999N0000001N9+01721+99999101581ADDGF106991999999999999999999
0046228020999991922070506004+61700+030683FM-12+001699999V0201801N001019999999N0000001N9+01671+99999101381ADDAJ100009199999999GF108991999999999999999999
0029228020999991922070513004+61700+030683FM-12+001699999V0201401N004119999999N0000001N9+01941+99999101271ADDGF107991999999999999999999
0029228020999991922070520004+61700+030683FM-12+001699999V0201401N001019999999N0000001N9+01561+99999101061ADDGF103991999999999999999999
0046228020999991922070606004+61700+030683FM-12+001699999V0201401N001019999999N0000001N9+01611+99999100961ADDAJ100009199999999GF108991999999999999999999
0029228020999991922070613004+61700+030683FM-12+001699999V0201401N002119999999N0000001N9+02111+99999100901ADDGF106991999999999999999999
0029228020999991922070620004+61700+030683FM-12+001699999V0203201N001019999999N0000001N9+01831+99999101031ADDGF100991999999999999999999
0046228020999991922070706004+61700+030683FM-12+001699999V0203201N002119999999N0000001N9+01721+99999101231ADDAJ100009199999999GF102991999999999999999999
0029228020999991922070713004+61700+030683FM-12+001699999V0201401N007219999999N0000001N9+01941+99999101151ADDGF108991999999999999999999
0029228020999991922070720004+61700+030683FM-12+001699999V0201401N001019999999N0000001N9+01781+99999100911ADDGF102991999999999999999999
0046228020999991922070806004+61700+030683FM-12+001699999V0201401N001019999999N0000001N9+01781+99999100841ADDAJ100009199999999GF108991999999999999999999
0035228020999991922070813004+61700+030683FM-12+001699999V0203201N006219999999N0000001N9+01781+99999100921ADDGF108991999999999999999999MW1621
0029228020999991922070820004+61700+030683FM-12+001699999V0203201N002119999999N0000001N9+01441+99999101161ADDGF107991999999999999999999
0046228020999991922070906004+61700+030683FM-12+001699999V0203201N002119999999N0000001N9+01561+99999101601ADDAJ100009199999999GF101991999999999999999999
0029228020999991922070913004+61700+030683FM-12+001699999V0202701N004119999999N0000001N9+02111+99999101961ADDGF105991999999999999999999
0029228020999991922070920004+61700+030683FM-12+001699999V0201401N001019999999N0000001N9+01611+99999102031ADDGF102991999999999999999999
0046228020999991922071006004+61700+030683FM-12+001699999V0201401N001019999999N0000001N9+01611+99999102071ADDAJ100009199999999GF100991999999999999999999
0029228020999991922071013004+61700+030683FM-12+001699999V0201401N011819999999N0000001N9+02001+99999101801ADDGF101991999999999999999999
0029228020999991922071020004+61700+030683FM-12+001699999V0201601N004119999999N0000001N9+01501+99999101561ADDGF102991999999999999999999
0046228020999991922071106004+61700+030683FM-12+001699999V0201801N002119999999N0000001N9+01561+99999101581ADDAJ100009199999999GF108991999999999999999999
0029228020999991922071113004+61700+030683FM-12+001699999V0201801N006219999999N0000001N9+01781+99999101441ADDGF108991999999999999999999
0029228020999991922071120004+61700+030683FM-12+001699999V0201401N004119999999N0000001N9+01561+99999101351ADDGF103991999999999999999999
0046228020999991922071206004+61700+030683FM-12+001699999V0202701N004119999999N0000001N9+01501+99999101271ADDAJ100009199999999GF108991999999999999999999
0029228020999991922071213004+61700+030683FM-12+001699999V0203201N008219999999N0000001N9+02001+99999101191ADDGF108991999999999999999999
0029228020999991922071220004+61700+030683FM-12+001699999V0203601N002119999999N0000001N9+01501+99999101221ADDGF106991999999999999999999
0046228020999991922071306004+61700+030683FM-12+001699999V0203201N006219999999N0000001N9+01331+99999101221ADDAJ100009199999999GF108991999999999999999999
0035228020999991922071313004+61700+030683FM-12+001699999V0203601N010819999999N0000001N9+01721+99999101261ADDGF108991999999999999999999MW1621
0029228020999991922071320004+61700+030683FM-12+001699999V0203601N003119999999N0000001N9+01281+99999101381ADDGF108991999999999999999999
0046228020999991922071406004+61700+030683FM-12+001699999V0203601N002119999999N0000001N9+01171+99999101431ADDAJ100009199999999GF108991999999999999999999
0029228020999991922071413004+61700+030683FM-12+001699999V0203601N002119999999N0000001N9+01501+99999101321ADDGF108991999999999999999999
0029228020999991922071420004+61700+030683FM-12+001699999V0203601N001019999999N0000001N9+01221+99999101151ADDGF100991999999999999999999
0046228020999991922071506004+61700+030683FM-12+001699999V0203601N001019999999N0000001N9+01441+99999100981ADDAJ100009199999999GF100991999999999999999999
0029228020999991922071513004+61700+030683FM-12+001699999V0203601N002119999999N0000001N9+02111+99999100801ADDGF106991999999999999999999
0029228020999991922071520004+61700+030683FM-12+001699999V0203601N001019999999N0000001N9+01781+99999100801ADDGF104991999999999999999999
0046228020999991922071606004+61700+030683FM-12+001699999V0209991C000019999999N0000001N9+01721+99999100701ADDAJ100009199999999GF107991999999999999999999
0029228020999991922071613004+61700+030683FM-12+001699999V0200501N002119999999N0000001N9+01781+99999100741ADDGF108991999999999999999999
0029228020999991922071620004+61700+030683FM-12+001699999V0200501N001019999999N0000001N9+01721+99999100681ADDGF103991999999999999999999
0046228020999991922071706004+61700+030683FM-12+001699999V0200501N002119999999N0000001N9+01501+99999100631ADDAJ100009199999999GF108991999999999999999999
0029228020999991922071713004+61700+030683FM-12+001699999V0200501N001019999999N0000001N9+01941+99999100541ADDGF106991999999999999999999
0029228020999991922071720004+61700+030683FM-12+001699999V0200701N004119999999N0000001N9+01561+99999100401ADDGF105991999999999999999999
0046228020999991922071806004+61700+030683FM-12+001699999V0200701N004119999999N0000001N9+01721+99999099991ADDAJ100009199999999GF108991999999999999999999
0035228020999991922071813004+61700+030683FM-12+001699999V0200701N008219999999N0000001N9+01721+99999099781ADDGF108991999999999999999999MW1621
0035228020999991922071820004+61700+030683FM-12+001699999V0209991C000019999999N0000001N9+01561+99999099751ADDGF108991999999999999999999MW1621
0046228020999991922071906004+61700+030683FM-12+001699999V0209991C000019999999N0000001N9+01561+99999099661ADDAJ100009199999999GF103991999999999999999999
0029228020999991922071913004+61700+030683FM-12+001699999V0201401N002119999999N0000001N9+02171+99999099711ADDGF105991999999999999999999
0029228020999991922071920004+61700+030683FM-12+001699999V0201401N001019999999N0000001N9+01671+99999099791ADDGF105991999999999999999999
0046228020999991922072006004+61700+030683FM-12+001699999V0201601N001019999999N0000001N9+01671+99999099871ADDAJ100009199999999GF108991999999999999999999
0029228020999991922072013004+61700+030683FM-12+001699999V0201401N001019999999N0000001N9+02061+99999099901ADDGF108991999999999999999999
0029228020999991922072020004+61700+030683FM-12+001699999V0209991C000019999999N0000001N9+01831+99999099871ADDGF108991999999999999999999
0046228020999991922072106004+61700+030683FM-12+001699999V0203201N002119999999N0000001N9+01611+99999099681ADDAJ100009199999999GF108991999999999999999999
0035228020999991922072113004+61700+030683FM-12+001699999V0203201N008219999999N0000001N9+01891+99999099541ADDGF108991999999999999999999MW1621
0035228020999991922072120004+61700+030683FM-12+001699999V0203401N006219999999N0000001N9+01501+99999099301ADDGF108991999999999999999999MW1621
0046228020999991922072206004+61700+030683FM-12+001699999V0203401N002119999999N0000001N9+01721+99999099121ADDAJ100009199999999GF108991999999999999999999
0035228020999991922072213004+61700+030683FM-12+001699999V0201401N004119999999N0000001N9+01831+99999099381ADDGF108991999999999999999999MW1621
0029228020999991922072220004+61700+030683FM-12+001699999V0209991C000019999999N0000001N9+01721+99999099541ADDGF103991999999999999999999
0046228020999991922072306004+61700+030683FM-12+001699999V0200701N002119999999N0000001N9+01611+99999099631ADDAJ100009199999999GF108991999999999999999999
0035228020999991922072313004+61700+030683FM-12+001699999V0203601N006219999999N0000001N9+02111+99999099791ADDGF108991999999999999999999MW1621
0029228020999991922072320004+61700+030683FM-12+001699999V0209991C000019999999N0000001N9+01721+99999099821ADDGF106991999999999999999999
0046228020999991922072406004+61700+030683FM-12+001699999V0200701N002119999999N0000001N9+01831+99999100021ADDAJ100009199999999GF107991999999999999999999
0029228020999991922072413004+61700+030683FM-12+001699999V0200701N002119999999N0000001N9+02391+99999100221ADDGF104991999999999999999999
0029228020999991922072420004+61700+030683FM-12+001699999V0200901N001019999999N0000001N9+01891+99999100321ADDGF103991999999999999999999
0046228020999991922072506004+61700+030683FM-12+001699999V0200901N001019999999N0000001N9+01891+99999100461ADDAJ100009199999999GF100991999999999999999999
0029228020999991922072513004+61700+030683FM-12+001699999V0201401N003119999999N0000001N9+02061+99999100511ADDGF104991999999999999999999
0029228020999991922072520004+61700+030683FM-12+001699999V0200501N001019999999N0000001N9+01781+99999100511ADDGF103991999999999999999999
0046228020999991922072606004+61700+030683FM-12+001699999V0200701N006219999999N0000001N9+01941+99999100551ADDAJ100009199999999GF106991999999999999999999
0029228020999991922072613004+61700+030683FM-12+001699999V0200701N006219999999N0000001N9+02281+99999100521ADDGF102991999999999999999999
0029228020999991922072620004+61700+030683FM-12+001699999V0200901N002119999999N0000001N9+01781+99999100441ADDGF106991999999999999999999
0046228020999991922072706004+61700+030683FM-12+001699999V0200701N004119999999N0000001N9+01561+99999100121ADDAJ100009199999999GF108991999999999999999999
0029228020999991922072713004+61700+030683FM-12+001699999V0200501N008219999999N0000001N9+01721+99999100021ADDGF108991999999999999999999
0035228020999991922072720004+61700+030683FM-12+001699999V0203601N004119999999N0000001N9+01391+99999099831ADDGF108991999999999999999999MW1621
0052228020999991922072806004+61700+030683FM-12+001699999V0203201N004119999999N0000001N9+01391+99999099441ADDAJ100009199999999GF108991999999999999999999MW1621
0035228020999991922072813004+61700+030683FM-12+001699999V0203601N002119999999N0000001N9+01671+99999099431ADDGF108991999999999999999999MW1621
0035228020999991922072820004+61700+030683FM-12+001699999V0203201N001019999999N0000001N9+01441+99999099561ADDGF108991999999999999999999MW1621
0046228020999991922072906004+61700+030683FM-12+001699999V0203201N001019999999N0000001N9+01501+99999099631ADDAJ100009199999999GF108991999999999999999999
0029228020999991922072913004+61700+030683FM-12+001699999V0203201N002119999999N0000001N9+01721+99999099751ADDGF108991999999999999999999
0029228020999991922072920004+61700+030683FM-12+001699999V0202501N001019999999N0000001N9+01501+99999099941ADDGF106991999999999999999999
0046228020999991922073006004+61700+030683FM-12+001699999V0202301N004119999999N0000001N9+01441+99999999999ADDAJ100009199999999GF108991999999999999999999
0029228020999991922073013004+61700+030683FM-12+001699999V0202301N004119999999N0000001N9+01671+99999100201ADDGF108991999999999999999999
0029228020999991922073020004+61700+030683FM-12+001699999V0202301N002119999999N0000001N9+01611+99999100321ADDGF105991999999999999999999
0046228020999991922073106004+61700+030683FM-12+001699999V0202701N004119999999N0000001N9+01441+99999100521ADDAJ100009199999999GF108991999999999999999999
0029228020999991922073113004+61700+030683FM-12+001699999V0201801N004119999999N0000001N9+01721+99999100631ADDGF105991999999999999999999
0029228020999991922073120004+61700+030683FM-12+001699999V0202301N001019999999N0000001N9+01671+99999100741ADDGF104991999999999999999999
0046228020999991922080106004+61700+030683FM-12+001699999V0202301N001019999999N0000001N9+01501+99999100911ADDAJ100009199999999GF108991999999999999999999
0029228020999991922080113004+61700+030683FM-12+001699999V0202501N005119999999N0000001N9+02221+99999101061ADDGF104991999999999999999999
0029228020999991922080120004+61700+030683FM-12+001699999V0201601N001019999999N0000001N9+01611+99999101041ADDGF108991999999999999999999
0046228020999991922080206004+61700+030683FM-12+001699999V0202501N002119999999N0000001N9+01671+99999101231ADDAJ100009199999999GF106991999999999999999999
0029228020999991922080213004+61700+030683FM-12+001699999V0202501N004119999999N0000001N9+02111+99999101381ADDGF106991999999999999999999
0029228020999991922080220004+61700+030683FM-12+001699999V0201801N002119999999N0000001N9+01611+99999101501ADDGF102991999999999999999999
0046228020999991922080306004+61700+030683FM-12+001699999V0202301N002119999999N0000001N9+01441+99999101711ADDAJ100009199999999GF106991999999999999999999
0029228020999991922080313004+61700+030683FM-12+001699999V0200701N003119999999N0000001N9+01611+99999101471ADDGF108991999999999999999999
0035228020999991922080320004+61700+030683FM-12+001699999V0200901N001019999999N0000001N9+01561+99999101111ADDGF108991999999999999999999MW1621
0046228020999991922080406004+61700+030683FM-12+001699999V0201401N004119999999N0000001N9+01561+99999100701ADDAJ100009199999999GF108991999999999999999999
0029228020999991922080413004+61700+030683FM-12+001699999V0203201N003119999999N0000001N9+01561+99999100761ADDGF108991999999999999999999
0029228020999991922080420004+61700+030683FM-12+001699999V0209991C000019999999N0000001N9+01391+99999100701ADDGF106991999999999999999999
0046228020999991922080506004+61700+030683FM-12+001699999V0203201N001019999999N0000001N9+01391+99999100871ADDAJ100009199999999GF102991999999999999999999
0029228020999991922080513004+61700+030683FM-12+001699999V0202701N004119999999N0000001N9+02001+99999100991ADDGF105991999999999999999999
0029228020999991922080520004+61700+030683FM-12+001699999V0209991C000019999999N0000001N9+01391+99999101071ADDGF100991999999999999999999
0046228020999991922080606004+61700+030683FM-12+001699999V0209991C000019999999N0000001N9+01281+99999101151ADDAJ100009199999999GF105991999999999999999999
0029228020999991922080613004+61700+030683FM-12+001699999V0203601N002119999999N0000001N9+02001+99999100991ADDGF107991999999999999999999
0029228020999991922080620004+61700+030683FM-12+001699999V0209991C000019999999N0000001N9+01561+99999100791ADDGF106991999999999999999999
0052228020999991922080706004+61700+030683FM-12+001699999V0202901N002119999999N0000001N9+01221+99999100441ADDAJ100009199999999GF108991999999999999999999MW1621
0029228020999991922080713004+61700+030683FM-12+001699999V0201801N008219999999N0000001N9+01561+99999100341ADDGF108991999999999999999999
0029228020999991922080720004+61700+030683FM-12+001699999V0201801N008219999999N0000001N9+01391+99999100381ADDGF103991999999999999999999
0046228020999991922080806004+61700+030683FM-12+001699999V0201601N006219999999N0000001N9+01331+99999100241ADDAJ100009199999999GF108991999999999999999999
0029228020999991922080813004+61700+030683FM-12+001699999V0202701N006219999999N0000001N9+01781+99999100701ADDGF108991999999999999999999
0029228020999991922080820004+61700+030683FM-12+001699999V0203201N001019999999N0000001N9+01391+99999101001ADDGF107991999999999999999999
0046228020999991922080906004+61700+030683FM-12+001699999V0203201N001019999999N0000001N9+01441+99999101261ADDAJ100009199999999GF108991999999999999999999
0029228020999991922080913004+61700+030683FM-12+001699999V0201401N002119999999N0000001N9+01941+99999101221ADDGF106991999999999999999999
0029228020999991922080920004+61700+030683FM-12+001699999V0201401N001019999999N0000001N9+01561+99999100991ADDGF108991999999999999999999
0052228020999991922081006004+61700+030683FM-12+001699999V0200901N003119999999N0000001N9+01391+99999100441ADDAJ100009199999999GF108991999999999999999999MW1621
0035228020999991922081013004+61700+030683FM-12+001699999V0200901N006219999999N0000001N9+01501+99999100221ADDGF108991999999999999999999MW1621
0029228020999991922081020004+61700+030683FM-12+001699999V0200901N001019999999N0000001N9+01441+99999100041ADDGF108991999999999999999999
0046228020999991922081106004+61700+030683FM-12+001699999V0200901N001019999999N0000001N9+01441+99999099951ADDAJ100009199999999GF107991999999999999999999
0035228020999991922081113004+61700+030683FM-12+001699999V0203601N004119999999N0000001N9+01781+99999100041ADDGF108991999999999999999999MW1621
0029228020999991922081120004+61700+030683FM-12+001699999V0203201N002119999999N0000001N9+01501+99999100191ADDGF108991999999999999999999
0046228020999991922081206004+61700+030683FM-12+001699999V0203201N004119999999N0000001N9+01331+99999100301ADDAJ100009199999999GF107991999999999999999999
0035228020999991922081213004+61700+030683FM-12+001699999V0202501N002119999999N0000001N9+01391+99999100361ADDGF108991999999999999999999MW1621
0035228020999991922081220004+61700+030683FM-12+001699999V0203201N002119999999N0000001N9+01171+99999100361ADDGF108991999999999999999999MW1621
0046228020999991922081306004+61700+030683FM-12+001699999V0203201N001019999999N0000001N9+01111+99999100281ADDAJ100009199999999GF108991999999999999999999
0035228020999991922081313004+61700+030683FM-12+001699999V0203201N002119999999N0000001N9+01501+99999100351ADDGF107991999999999999999999MW1621
0035228020999991922081320004+61700+030683FM-12+001699999V0203201N002119999999N0000001N9+01221+99999100561ADDGF108991999999999999999999MW1621
0046228020999991922081406004+61700+030683FM-12+001699999V0203601N002119999999N0000001N9+01061+99999100631ADDAJ100009199999999GF108991999999999999999999
0029228020999991922081413004+61700+030683FM-12+001699999V0203601N004119999999N0000001N9+01441+99999100621ADDGF107991999999999999999999
0029228020999991922081420004+61700+030683FM-12+001699999V0203201N002119999999N0000001N9+01111+99999100601ADDGF106991999999999999999999
0046228020999991922081506004+61700+030683FM-12+001699999V0203201N008219999999N0000001N9+01111+99999100581ADDAJ100009199999999GF106991999999999999999999
0029228020999991922081513004+61700+030683FM-12+001699999V0203601N008219999999N0000001N9+01391+99999100681ADDGF108991999999999999999999
0029228020999991922081520004+61700+030683FM-12+001699999V0203601N002119999999N0000001N9+01111+99999100831ADDGF108991999999999999999999
0046228020999991922081606004+61700+030683FM-12+001699999V0203601N001019999999N0000001N9+01061+99999100881ADDAJ100009199999999GF107991999999999999999999
0029228020999991922081613004+61700+030683FM-12+001699999V0203201N008219999999N0000001N9+01561+99999100981ADDGF107991999999999999999999
0029228020999991922081620004+61700+030683FM-12+001699999V0203201N002119999999N0000001N9+01061+99999100951ADDGF103991999999999999999999
0046228020999991922081706004+61700+030683FM-12+001699999V0203201N004119999999N0000001N9+01111+99999101081ADDAJ100009199999999GF105991999999999999999999
0029228020999991922081713004+61700+030683FM-12+001699999V0203601N008219999999N0000001N9+01501+99999101221ADDGF107991999999999999999999
0029228020999991922081720004+61700+030683FM-12+001699999V0203601N002119999999N0000001N9+01111+99999101271ADDGF105991999999999999999999
0046228020999991922081806004+61700+030683FM-12+001699999V0203201N001019999999N0000001N9+01281+99999101441ADDAJ100009199999999GF100991999999999999999999
0029228020999991922081813004+61700+030683FM-12+001699999V0203201N001019999999N0000001N9+01891+99999101401ADDGF102991999999999999999999
0029228020999991922081820004+61700+030683FM-12+001699999V0209991C000019999999N0000001N9+01221+99999101381ADDGF100991999999999999999999
0052228020999991922081906004+61700+030683FM-12+001699999V0201401N004119999999N0000001N9+01281+99999101301ADDAJ100009199999999GF108991999999999999999999MW1621
0029228020999991922081913004+61700+030683FM-12+001699999V0201401N006219999999N0000001N9+01671+99999101261ADDGF106991999999999999999999
0029228020999991922081920004+61700+030683FM-12+001699999V0201401N008219999999N0000001N9+01561+99999101061ADDGF108991999999999999999999
0046228020999991922082006004+61700+030683FM-12+001699999V0201401N004119999999N0000001N9+01391+99999100871ADDAJ100009199999999GF108991999999999999999999
0029228020999991922082013004+61700+030683FM-12+001699999V0200901N006219999999N0000001N9+01721+99999100821ADDGF108991999999999999999999
0029228020999991922082020004+61700+030683FM-12+001699999V0200501N006219999999N0000001N9+01721+99999100901ADDGF108991999999999999999999
0046228020999991922082106004+61700+030683FM-12+001699999V0200901N004119999999N0000001N9+01501+99999101101ADDAJ100009199999999GF108991999999999999999999
0029228020999991922082113004+61700+030683FM-12+001699999V0201401N006219999999N0000001N9+01671+99999101311ADDGF108991999999999999999999
0029228020999991922082120004+61700+030683FM-12+001699999V0201401N001019999999N0000001N9+01331+99999101461ADDGF103991999999999999999999
0046228020999991922082206004+61700+030683FM-12+001699999V0200901N001019999999N0000001N9+01391+99999101521ADDAJ100009199999999GF108991999999999999999999
0029228020999991922082213004+61700+030683FM-12+001699999V0201401N004119999999N0000001N9+01941+99999101541ADDGF102991999999999999999999
0029228020999991922082220004+61700+030683FM-12+001699999V0201801N006219999999N0000001N9+01561+99999101521ADDGF107991999999999999999999
0046228020999991922082306004+61700+030683FM-12+001699999V0201401N004119999999N0000001N9+01501+99999101481ADDAJ100009199999999GF108991999999999999999999
0029228020999991922082313004+61700+030683FM-12+001699999V0201401N008219999999N0000001N9+01611+99999101561ADDGF107991999999999999999999
0029228020999991922082320004+61700+030683FM-12+001699999V0201601N001019999999N0000001N9+01441+99999101271ADDGF105991999999999999999999
0046228020999991922082406004+61700+030683FM-12+001699999V0201401N005119999999N0000001N9+01501+99999101151ADDAJ100009199999999GF105991999999999999999999
0029228020999991922082413004+61700+030683FM-12+001699999V0200901N011819999999N0000001N9+01831+99999101111ADDGF106991999999999999999999
0029228020999991922082420004+61700+030683FM-12+001699999V0200901N011819999999N0000001N9+01721+99999100951ADDGF102991999999999999999999
0046228020999991922082506004+61700+030683FM-12+001699999V0201401N008219999999N0000001N9+01611+99999100871ADDAJ100009199999999GF106991999999999999999999
0029228020999991922082513004+61700+030683FM-12+001699999V0201401N006219999999N0000001N9+01721+99999100961ADDGF108991999999999999999999
0029228020999991922082520004+61700+030683FM-12+001699999V0201401N002119999999N0000001N9+01501+99999100941ADDGF108991999999999999999999
0046228020999991922082606004+61700+030683FM-12+001699999V0201801N002119999999N0000001N9+01561+99999101121ADDAJ100009199999999GF108991999999999999999999
0029228020999991922082613004+61700+030683FM-12+001699999V0201401N002119999999N0000001N9+01781+99999101311ADDGF108991999999999999999999
0029228020999991922082620004+61700+030683FM-12+001699999V0201401N001019999999N0000001N9+01561+99999101241ADDGF108991999999999999999999
0046228020999991922082706004+61700+030683FM-12+001699999V0201601N001019999999N0000001N9+01331+99999101461ADDAJ100009199999999GF108991999999999999999999
0029228020999991922082713004+61700+030683FM-12+001699999V0201401N006219999999N0000001N9+01941+99999101591ADDGF103991999999999999999999
0029228020999991922082720004+61700+030683FM-12+001699999V0201801N001019999999N0000001N9+01441+99999101621ADDGF100991999999999999999999
0046228020999991922082806004+61700+030683FM-12+001699999V0201801N001019999999N0000001N9+01171+99999101801ADDAJ100009199999999GF100991999999999999999999
0029228020999991922082813004+61700+030683FM-12+001699999V0203201N004119999999N0000001N9+01831+99999101871ADDGF107991999999999999999999
0029228020999991922082820004+61700+030683FM-12+001699999V0209991C000019999999N0000001N9+01391+99999101831ADDGF102991999999999999999999
