0029228020999991925010106004+61700+030683FM-12+001699999V0202001N002119999999N0000001N9+00061+99999100391ADDGF108991999999999999999999
0029228020999991925010113004+61700+030683FM-12+001699999V0202301N002119999999N0000001N9+00111+99999100341ADDGF107991999999999999999999
0029228020999991925010120004+61700+030683FM-12+001699999V0201801N004119999999N0000001N9+00061+99999100181ADDGF108991999999999999999999
0029228020999991925010206004+61700+030683FM-12+001699999V0201401N002119999999N0000001N9+00001+99999099831ADDGF108991999999999999999999
0035228020999991925010213004+61700+030683FM-12+001699999V0201101N001019999999N0000001N9-00111+99999099541ADDGF108991999999999999999999MW1701
0029228020999991925010220004+61700+030683FM-12+001699999V0201401N008219999999N0000001N9+00111+99999098911ADDGF108991999999999999999999
0029228020999991925010306004+61700+030683FM-12+001699999V0201401N009819999999N0000001N9+00171+99999097781ADDGF108991999999999999999999
0035228020999991925010313004+61700+030683FM-12+001699999V0201801N006219999999N0000001N9+00111+99999096421ADDGF108991999999999999999999MW1721
0029228020999991925010320004+61700+030683FM-12+001699999V0201801N002119999999N0000001N9+00171+99999096111ADDGF108991999999999999999999
0029228020999991925010406004+61700+030683FM-12+001699999V0203201N009819999999N0000001N9+00111+99999096951ADDGF108991999999999999999999
0029228020999991925010413004+61700+030683FM-12+001699999V0203201N004119999999N0000001N9+00171+99999097981ADDGF108991999999999999999999
0029228020999991925010420004+61700+030683FM-12+001699999V0203201N001019999999N0000001N9+00061+99999098381ADDGF108991999999999999999999
0029228020999991925010506004+61700+030683FM-12+001699999V0209991C000019999999N0000001N9-00111+99999097961ADDGF108991999999999999999999
0029228020999991925010513004+61700+030683FM-12+001699999V0203201N004119999999N0000001N9+00001+99999098191ADDGF108991999999999999999999
0029228020999991925010520004+61700+030683FM-12+001699999V0203201N004119999999N0000001N9+00061+99999098481ADDGF108991999999999999999999
0029228020999991925010606004+61700+030683FM-12+001699999V0202901N004119999999N0000001N9-00331+99999098591ADDGF108991999999999999999999
0029228020999991925010613004+61700+030683FM-12+001699999V0202501N001019999999N0000001N9-00111+99999098521ADDGF108991999999999999999999
0035228020999991925010620004+61700+030683FM-12+001699999V0209991C000019999999N0000001N9-00171+99999098461ADDGF108991999999999999999999MW1701
0035228020999991925010706004+61700+030683FM-12+001699999V0203201N001019999999N0000001N9-00391+99999098871ADDGF108991999999999999999999MW1701
0035228020999991925010713004+61700+030683FM-12+001699999V0203401N001019999999N0000001N9-00561+99999099041ADDGF108991999999999999999999MW1701
0029228020999991925010720004+61700+030683FM-12+001699999V0209991C000019999999N0000001N9-00671+99999099151ADDGF108991999999999999999999
0029228020999991925010806004+61700+030683FM-12+001699999V0209991C000019999999N0000001N9-00831+99999099621ADDGF102991999999999999999999
0029228020999991925010813004+61700+030683FM-12+001699999V0209991C000019999999N0000001N9-00781+99999100161ADDGF102991999999999999999999
0029228020999991925010820004+61700+030683FM-12+001699999V0202701N001019999999N0000001N9-00781+99999100381ADDGF100991999999999999999999
0029228020999991925010906004+61700+030683FM-12+001699999V0209991C000019999999N0000001N9-00331+99999099841ADDGF108991999999999999999999
0029228020999991925010913004+61700+030683FM-12+001699999V0209991C000019999999N0000001N9-00281+99999099561ADDGF108991999999999999999999
0029228020999991925010920004+61700+030683FM-12+001699999V0203201N001019999999N0000001N9-00331+99999099521ADDGF108991999999999999999999
0029228020999991925011006004+61700+030683FM-12+001699999V0209991C000019999999N0000001N9-00391+99999099911ADDGF108991999999999999999999
0029228020999991925011013004+61700+030683FM-12+001699999V0203601N002119999999N0000001N9-00501+99999100421ADDGF108991999999999999999999
0029228020999991925011020004+61700+030683FM-12+001699999V0209991C000019999999N0000001N9-00441+99999100711ADDGF108991999999999999999999
0029228020999991925011106004+61700+030683FM-12+001699999V0209991C000019999999N0000001N9-00561+99999100661ADDGF108991999999999999999999
0035228020999991925011113004+61700+030683FM-12+001699999V0209991C000019999999N0000001N9-00501+99999100661ADDGF108991999999999999999999MW1701
0029228020999991925011120004+61700+030683FM-12+001699999V0209991C000019999999N0000001N9-00501+99999100951ADDGF108991999999999999999999
0035228020999991925011206004+61700+030683FM-12+001699999V0201801N002119999999N0000001N9-00061+99999101121ADDGF108991999999999999999999MW1721
0029228020999991925011213004+61700+030683FM-12+001699999V0201801N002119999999N0000001N9-00171+99999101121ADDGF108991999999999999999999
0029228020999991925011220004+61700+030683FM-12+001699999V0201801N001019999999N0000001N9+00001+99999101351ADDGF108991999999999999999999
0029228020999991925011306004+61700+030683FM-12+001699999V0202501N001019999999N0000001N9+00111+99999101471ADDGF108991999999999999999999
0029228020999991925011313004+61700+030683FM-12+001699999V0202301N002119999999N0000001N9+00171+99999101381ADDGF103991999999999999999999
0029228020999991925011320004+61700+030683FM-12+001699999V0202301N002119999999N0000001N9+00061+99999101341ADDGF108991999999999999999999
0029228020999991925011406004+61700+030683FM-12+001699999V0202901N001019999999N0000001N9+00111+99999101151ADDGF108991999999999999999999
0029228020999991925011413004+61700+030683FM-12+001699999V0203201N001019999999N0000001N9+00061+99999101501ADDGF108991999999999999999999
0029228020999991925011420004+61700+030683FM-12+001699999V0202001N004119999999N0000001N9+00171+99999101261ADDGF108991999999999999999999
0029228020999991925011506004+61700+030683FM-12+001699999V0202301N006219999999N0000001N9+00331+99999100061ADDGF108991999999999999999999
0029228020999991925011513004+61700+030683FM-12+001699999V0202301N006219999999N0000001N9+00391+99999099791ADDGF108991999999999999999999
0029228020999991925011520004+61700+030683FM-12+001699999V0202501N006219999999N0000001N9+00331+99999099111ADDGF107991999999999999999999
0029228020999991925011606004+61700+030683FM-12+001699999V0202901N008219999999N0000001N9+00221+99999098801ADDGF108991999999999999999999
0029228020999991925011613004+61700+030683FM-12+001699999V0202701N008219999999N0000001N9+00281+99999099601ADDGF100991999999999999999999
0029228020999991925011620004+61700+030683FM-12+001699999V0203201N006219999999N0000001N9+00061+99999099551ADDGF106991999999999999999999
0029228020999991925011706004+61700+030683FM-12+001699999V0203201N009819999999N0000001N9+00561+99999099511ADDGF108991999999999999999999
0029228020999991925011713004+61700+030683FM-12+001699999V0203201N006219999999N0000001N9+00561+99999099921ADDGF108991999999999999999999
0029228020999991925011720004+61700+030683FM-12+001699999V0203201N008219999999N0000001N9+00281+99999100991ADDGF100991999999999999999999
0029228020999991925011806004+61700+030683FM-12+001699999V0203201N001019999999N0000001N9-00221+99999102041ADDGF101991999999999999999999
0029228020999991925011813004+61700+030683FM-12+001699999V0202301N001019999999N0000001N9+00281+99999101721ADDGF105991999999999999999999
0029228020999991925011820004+61700+030683FM-12+001699999V0202901N002119999999N0000001N9+00221+99999101381ADDGF108991999999999999999999
0029228020999991925011906004+61700+030683FM-12+001699999V0202301N002119999999N0000001N9+00221+99999100561ADDGF108991999999999999999999
0029228020999991925011913004+61700+030683FM-12+001699999V0202301N006219999999N0000001N9+00331+99999100351ADDGF102991999999999999999999
0029228020999991925011920004+61700+030683FM-12+001699999V0203201N011819999999N0000001N9-00111+99999100601ADDGF100991999999999999999999
0029228020999991925012006004+61700+030683FM-12+001699999V0203601N008219999999N0000001N9-00171+99999102121ADDGF100991999999999999999999
0029228020999991925012013004+61700+030683FM-12+001699999V0203201N008219999999N0000001N9+00111+99999102421ADDGF101991999999999999999999
0029228020999991925012020004+61700+030683FM-12+001699999V0203201N001019999999N0000001N9-00061+99999102431ADDGF100991999999999999999999
0029228020999991925012106004+61700+030683FM-12+001699999V0202701N002119999999N0000001N9+00001+99999102341ADDGF100991999999999999999999
0029228020999991925012113004+61700+030683FM-12+001699999V0203201N004119999999N0000001N9+00171+99999102311ADDGF107991999999999999999999
0029228020999991925012120004+61700+030683FM-12+001699999V0203201N004119999999N0000001N9+00171+99999102501ADDGF100991999999999999999999
0029228020999991925012206004+61700+030683FM-12+001699999V0203201N002119999999N0000001N9-00061+99999102871ADDGF100991999999999999999999
0029228020999991925012213004+61700+030683FM-12+001699999V0203201N001019999999N0000001N9+00061+99999102951ADDGF100991999999999999999999
0029228020999991925012220004+61700+030683FM-12+001699999V0209991C000019999999N0000001N9-00441+99999103031ADDGF106991999999999999999999
0029228020999991925012306004+61700+030683FM-12+001699999V0209991C000019999999N0000001N9+00061+99999103161ADDGF107991999999999999999999
0029228020999991925012313004+61700+030683FM-12+001699999V0201601N002119999999N0000001N9+00061+99999103231ADDGF108991999999999999999999
0029228020999991925012320004+61700+030683FM-12+001699999V0201401N004119999999N0000001N9-00061+99999103121ADDGF100991999999999999999999
0029228020999991925012406004+61700+030683FM-12+001699999V0201801N002119999999N0000001N9-00221+99999102941ADDGF108991999999999999999999
0029228020999991925012413004+61700+030683FM-12+001699999V0200501N001019999999N0000001N9-00171+99999102841ADDGF108991999999999999999999
0029228020999991925012420004+61700+030683FM-12+001699999V0202301N002119999999N0000001N9-00171+99999102711ADDGF108991999999999999999999
0029228020999991925012506004+61700+030683FM-12+001699999V0209991C000019999999N0000001N9-00111+99999102441ADDGF108991999999999999999999
0029228020999991925012513004+61700+030683FM-12+001699999V0203201N006219999999N0000001N9-00061+99999102631ADDGF108991999999999999999999
0029228020999991925012520004+61700+030683FM-12+001699999V0202701N004119999999N0000001N9-00281+99999102801ADDGF108991999999999999999999
0029228020999991925012606004+61700+030683FM-12+001699999V0203201N002119999999N0000001N9-00331+99999103031ADDGF108991999999999999999999
0029228020999991925012613004+61700+030683FM-12+001699999V0203201N001019999999N0000001N9-00171+99999102871ADDGF108991999999999999999999
0029228020999991925012620004+61700+030683FM-12+001699999V0209991C000019999999N0000001N9-00331+99999102181ADDGF108991999999999999999999
0029228020999991925012706004+61700+030683FM-12+001699999V0203201N004119999999N0000001N9+00171+99999101441ADDGF108991999999999999999999
0029228020999991925012713004+61700+030683FM-12+001699999V0203201N004119999999N0000001N9+00281+99999101351ADDGF106991999999999999999999
0029228020999991925012720004+61700+030683FM-12+001699999V0203201N004119999999N0000001N9+00061+99999101421ADDGF103991999999999999999999
0029228020999991925012806004+61700+030683FM-12+001699999V0203201N002119999999N0000001N9-00171+99999101511ADDGF101991999999999999999999
0029228020999991925012813004+61700+030683FM-12+001699999V0203201N002119999999N0000001N9+00111+99999101481ADDGF100991999999999999999999
0029228020999991925012820004+61700+030683FM-12+001699999V0203201N001019999999N0000001N9-00281+99999101471ADDGF106991999999999999999999
0029228020999991925012906004+61700+030683FM-12+001699999V0203601N001019999999N0000001N9-00391+99999101781ADDGF108991999999999999999999
0029228020999991925012913004+61700+030683FM-12+001699999V0203601N001019999999N0000001N9-00171+99999101741ADDGF108991999999999999999999
0029228020999991925013006004+61700+030683FM-12+001699999V0202301N001019999999N0000001N9-00171+99999100841ADDGF108991999999999999999999
0029228020999991925013013004+61700+030683FM-12+001699999V0201801N002119999999N0000001N9-00171+99999100351ADDGF108991999999999999999999
0035228020999991925013020004+61700+030683FM-12+001699999V0201401N006219999999N0000001N9-00061+99999100031ADDGF108991999999999999999999MW1701
0029228020999991925013106004+61700+030683FM-12+001699999V0201401N008219999999N0000001N9-00061+99999099761ADDGF108991999999999999999999
0029228020999991925013113004+61700+030683FM-12+001699999V0201401N006219999999N0000001N9-00061+99999099551ADDGF108991999999999999999999
0029228020999991925013120004+61700+030683FM-12+001699999V0201401N006219999999N0000001N9+00001+99999099261ADDGF108991999999999999999999
0035228020999991925020106004+61700+030683FM-12+001699999V0201601N008219999999N0000001N9-00221+99999098761ADDGF108991999999999999999999MW1721
0035228020999991925020113004+61700+030683FM-12+001699999V0201601N008219999999N0000001N9-00111+99999098561ADDGF108991999999999999999999MW1721
0035228020999991925020120004+61700+030683FM-12+001699999V0200901N004119999999N0000001N9-00331+99999098681ADDGF108991999999999999999999MW1721
0035228020999991925020206004+61700+030683FM-12+001699999V0200701N001019999999N0000001N9-00391+99999099341ADDGF108991999999999999999999MW1701
0029228020999991925020213004+61700+030683FM-12+001699999V0200901N001019999999N0000001N9-00441+99999099711ADDGF108991999999999999999999
0035228020999991925020220004+61700+030683FM-12+001699999V0203601N001019999999N0000001N9-00501+99999099951ADDGF108991999999999999999999MW1701
0029228020999991925020306004+61700+030683FM-12+001699999V0203201N001019999999N0000001N9-00831+99999099991ADDGF108991999999999999999999
0029228020999991925020313004+61700+030683FM-12+001699999V0203201N001019999999N0000001N9-00391+99999099701ADDGF108991999999999999999999
0029228020999991925020320004+61700+030683FM-12+001699999V0209991C000019999999N0000001N9-00331+99999099521ADDGF108991999999999999999999
0029228020999991925020406004+61700+030683FM-12+001699999V0203201N004119999999N0000001N9-00061+99999099671ADDGF108991999999999999999999
0029228020999991925020413004+61700+030683FM-12+001699999V0202001N001019999999N0000001N9-00171+99999099361ADDGF108991999999999999999999
0035228020999991925020420004+61700+030683FM-12+001699999V0209991C000019999999N0000001N9+00001+99999098911ADDGF108991999999999999999999MW1721
0029228020999991925020506004+61700+030683FM-12+001699999V0202901N004119999999N0000001N9-00281+99999099431ADDGF108991999999999999999999
0029228020999991925020513004+61700+030683FM-12+001699999V0203201N001019999999N0000001N9-00331+99999099961ADDGF100991999999999999999999
0029228020999991925020520004+61700+030683FM-12+001699999V0201801N002119999999N0000001N9-00281+99999099621ADDGF108991999999999999999999
0029228020999991925020606004+61700+030683FM-12+001699999V0202501N001019999999N0000001N9+00171+99999098461ADDGF108991999999999999999999
0029228020999991925020613004+61700+030683FM-12+001699999V0202501N002119999999N0000001N9+00171+99999098521ADDGF106991999999999999999999
0029228020999991925020620004+61700+030683FM-12+001699999V0201801N004119999999N0000001N9+00171+99999098541ADDGF108991999999999999999999
0029228020999991925020706004+61700+030683FM-12+001699999V0202501N002119999999N0000001N9+00001+99999098621ADDGF108991999999999999999999
0029228020999991925020713004+61700+030683FM-12+001699999V0202701N001019999999N0000001N9+00111+99999099061ADDGF108991999999999999999999
0029228020999991925020720004+61700+030683FM-12+001699999V0203201N002119999999N0000001N9-00171+99999099701ADDGF100991999999999999999999
0029228020999991925020806004+61700+030683FM-12+001699999V0203201N001019999999N0000001N9-00941+99999100521ADDGF100991999999999999999999
0029228020999991925020813004+61700+030683FM-12+001699999V0203201N001019999999N0000001N9-00611+99999100901ADDGF100991999999999999999999
0029228020999991925020820004+61700+030683FM-12+001699999V0209991C000019999999N0000001N9-01561+99999101041ADDGF100991999999999999999999
0029228020999991925020906004+61700+030683FM-12+001699999V0201101N002119999999N0000001N9-00391+99999100681ADDGF108991999999999999999999
0029228020999991925020913004+61700+030683FM-12+001699999V0200901N008219999999N0000001N9-00111+99999100061ADDGF108991999999999999999999
0029228020999991925020920004+61700+030683FM-12+001699999V0200901N011819999999N0000001N9-00061+99999099481ADDGF108991999999999999999999
0029228020999991925021006004+61700+030683FM-12+001699999V0201401N008219999999N0000001N9+00061+99999098961ADDGF108991999999999999999999
0035228020999991925021013004+61700+030683FM-12+001699999V0201401N006219999999N0000001N9+00061+99999099021ADDGF108991999999999999999999MW1721
0029228020999991925021020004+61700+030683FM-12+001699999V0202301N001019999999N0000001N9+00111+99999099521ADDGF108991999999999999999999
0029228020999991925021106004+61700+030683FM-12+001699999V0201801N006219999999N0000001N9+00061+99999099591ADDGF108991999999999999999999
0029228020999991925021113004+61700+030683FM-12+001699999V0202001N002119999999N0000001N9+00171+99999098711ADDGF108991999999999999999999
0029228020999991925021120004+61700+030683FM-12+001699999V0202301N002119999999N0000001N9+00331+99999098981ADDGF108991999999999999999999
0029228020999991925021206004+61700+030683FM-12+001699999V0202301N001019999999N0000001N9+00331+99999099671ADDGF108991999999999999999999
0029228020999991925021213004+61700+030683FM-12+001699999V0202301N001019999999N0000001N9+00331+99999100101ADDGF108991999999999999999999
0029228020999991925021220004+61700+030683FM-12+001699999V0202301N001019999999N0000001N9+00331+99999100231ADDGF108991999999999999999999
0029228020999991925021306004+61700+030683FM-12+001699999V0201801N002119999999N0000001N9+00221+99999100341ADDGF108991999999999999999999
0029228020999991925021313004+61700+030683FM-12+001699999V0201801N002119999999N0000001N9+00441+99999100711ADDGF100991999999999999999999
0029228020999991925021320004+61700+030683FM-12+001699999V0209991C000019999999N0000001N9+00171+99999101231ADDGF100991999999999999999999
0029228020999991925021406004+61700+030683FM-12+001699999V0201801N001019999999N0000001N9+00061+99999101751ADDGF108991999999999999999999
0029228020999991925021413004+61700+030683FM-12+001699999V0201401N008219999999N0000001N9+00001+99999101791ADDGF108991999999999999999999
0035228020999991925021420004+61700+030683FM-12+001699999V0201401N002119999999N0000001N9+00111+99999101591ADDGF108991999999999999999999MW1621
0029228020999991925021506004+61700+030683FM-12+001699999V0201401N001019999999N0000001N9+00061+99999101511ADDGF108991999999999999999999
0029228020999991925021513004+61700+030683FM-12+001699999V0201401N001019999999N0000001N9+00111+99999101541ADDGF108991999999999999999999
0029228020999991925021520004+61700+030683FM-12+001699999V0201401N001019999999N0000001N9+00061+99999101581ADDGF108991999999999999999999
0029228020999991925021606004+61700+030683FM-12+001699999V0201401N002119999999N0000001N9+00171+99999101231ADDGF108991999999999999999999
0029228020999991925021613004+61700+030683FM-12+001699999V0201401N001019999999N0000001N9+00111+99999101231ADDGF108991999999999999999999
0029228020999991925021620004+61700+030683FM-12+001699999V0201401N001019999999N0000001N9+00111+99999101071ADDGF108991999999999999999999
0035228020999991925021706004+61700+030683FM-12+001699999V0201601N001019999999N0000001N9+00111+99999100961ADDGF108991999999999999999999MW1601
0029228020999991925021713004+61700+030683FM-12+001699999V0201401N001019999999N0000001N9+00171+99999100741ADDGF108991999999999999999999
0029228020999991925021720004+61700+030683FM-12+001699999V0201401N001019999999N0000001N9+00171+99999100341ADDGF108991999999999999999999
0029228020999991925021806004+61700+030683FM-12+001699999V0209991C000019999999N0000001N9+00221+99999099521ADDGF108991999999999999999999
0029228020999991925021813004+61700+030683FM-12+001699999V0202301N004119999999N0000001N9+00171+99999099481ADDGF108991999999999999999999
0029228020999991925021820004+61700+030683FM-12+001699999V0202701N009819999999N0000001N9+00061+99999099641ADDGF108991999999999999999999
0029228020999991925021906004+61700+030683FM-12+001699999V0203201N004119999999N0000001N9-00221+99999099911ADDGF108991999999999999999999
0029228020999991925021913004+61700+030683FM-12+001699999V0203201N002119999999N0000001N9-00171+99999099951ADDGF108991999999999999999999
0029228020999991925021920004+61700+030683FM-12+001699999V0203201N004119999999N0000001N9-00331+99999100061ADDGF108991999999999999999999
0029228020999991925022006004+61700+030683FM-12+001699999V0203601N002119999999N0000001N9-00721+99999100221ADDGF108991999999999999999999
0029228020999991925022013004+61700+030683FM-12+001699999V0203601N004119999999N0000001N9-00721+99999100321ADDGF108991999999999999999999
0029228020999991925022020004+61700+030683FM-12+001699999V0203601N002119999999N0000001N9-00941+99999100481ADDGF108991999999999999999999
0029228020999991925022106004+61700+030683FM-12+001699999V0203601N001019999999N0000001N9-01391+99999100911ADDGF108991999999999999999999
0029228020999991925022113004+61700+030683FM-12+001699999V0203601N001019999999N0000001N9-01111+99999101221ADDGF102991999999999999999999
0029228020999991925022120004+61700+030683FM-12+001699999V0203601N001019999999N0000001N9-00941+99999101441ADDGF100991999999999999999999
0035228020999991925022206004+61700+030683FM-12+001699999V0202001N004119999999N0000001N9-00781+99999101471ADDGF108991999999999999999999MW1721
0029228020999991925022213004+61700+030683FM-12+001699999V0203201N001019999999N0000001N9-00781+99999101941ADDGF103991999999999999999999
0029228020999991925022220004+61700+030683FM-12+001699999V0209991C000019999999N0000001N9-01831+99999102501ADDGF100991999999999999999999
0029228020999991925022306004+61700+030683FM-12+001699999V0203201N001019999999N0000001N9-02721+99999103071ADDGF100991999999999999999999
0035228020999991925022313004+61700+030683FM-12+001699999V0202701N001019999999N0000001N9-00671+99999103111ADDGF108991999999999999999999MW1701
0029228020999991925022320004+61700+030683FM-12+001699999V0201801N002119999999N0000001N9-00391+99999103071ADDGF106991999999999999999999
0029228020999991925022406004+61700+030683FM-12+001699999V0200901N004119999999N0000001N9-00611+99999102681ADDGF108991999999999999999999
0035228020999991925022413004+61700+030683FM-12+001699999V0201401N001019999999N0000001N9-00441+99999102381ADDGF108991999999999999999999MW1721
0029228020999991925022420004+61700+030683FM-12+001699999V0200901N001019999999N0000001N9-00671+99999102421ADDGF108991999999999999999999
0029228020999991925022506004+61700+030683FM-12+001699999V0209991C000019999999N0000001N9-00721+99999102431ADDGF108991999999999999999999
0029228020999991925022513004+61700+030683FM-12+001699999V0200901N001019999999N0000001N9-00671+99999102271ADDGF108991999999999999999999
0035228020999991925022520004+61700+030683FM-12+001699999V0200501N001019999999N0000001N9-00721+99999101901ADDGF108991999999999999999999MW1721
0029228020999991925022606004+61700+030683FM-12+001699999V0200901N001019999999N0000001N9-00671+99999101471ADDGF108991999999999999999999
0029228020999991925022613004+61700+030683FM-12+001699999V0200501N001019999999N0000001N9-00391+99999101441ADDGF108991999999999999999999
0035228020999991925022620004+61700+030683FM-12+001699999V0209991C000019999999N0000001N9-00501+99999101461ADDGF108991999999999999999999MW1721
0035228020999991925022706004+61700+030683FM-12+001699999V0200701N001019999999N0000001N9-00561+99999101231ADDGF108991999999999999999999MW1721
0035228020999991925022713004+61700+030683FM-12+001699999V0200701N001019999999N0000001N9-00391+99999101081ADDGF108991999999999999999999MW1721
0029228020999991925022720004+61700+030683FM-12+001699999V0209991C000019999999N0000001N9-00331+99999101021ADDGF108991999999999999999999
0035228020999991925022806004+61700+030683FM-12+001699999V0200701N001019999999N0000001N9-00281+99999101081ADDGF108991999999999999999999MW1721
0035228020999991925022813004+61700+030683FM-12+001699999V0200501N001019999999N0000001N9-00171+99999101121ADDGF108991999999999999999999MW1721
0029228020999991925022820004+61700+030683FM-12+001699999V0200501N002119999999N0000001N9-00331+99999101161ADDGF108991999999999999999999
0035228020999991925030106004+61700+030683FM-12+001699999V0209991C000019999999N0000001N9-00501+99999101021ADDGF108991999999999999999999MW1721
0029228020999991925030113004+61700+030683FM-12+001699999V0200701N001019999999N0000001N9-00441+99999101121ADDGF108991999999999999999999
0029228020999991925030120004+61700+030683FM-12+001699999V0200701N002119999999N0000001N9-00561+99999101391ADDGF108991999999999999999999
0035228020999991925030206004+61700+030683FM-12+001699999V0200501N001019999999N0000001N9-00781+99999101591ADDGF108991999999999999999999MW1721
0029228020999991925030213004+61700+030683FM-12+001699999V0200501N001019999999N0000001N9-00501+99999101481ADDGF108991999999999999999999
0029228020999991925030220004+61700+030683FM-12+001699999V0209991C000019999999N0000001N9-00671+99999101711ADDGF108991999999999999999999
0035228020999991925030306004+61700+030683FM-12+001699999V0200201N001019999999N0000001N9-01171+99999101751ADDGF108991999999999999999999MW1721
0029228020999991925030313004+61700+030683FM-12+001699999V0200201N002119999999N0000001N9-00671+99999101791ADDGF102991999999999999999999
0029228020999991925030320004+61700+030683FM-12+001699999V0209991C000019999999N0000001N9-01441+99999101951ADDGF100991999999999999999999
0029228020999991925030406004+61700+030683FM-12+001699999V0209991C000019999999N0000001N9-02281+99999101701ADDGF100991999999999999999999
0029228020999991925030413004+61700+030683FM-12+001699999V0202301N001019999999N0000001N9-00671+99999101111ADDGF108991999999999999999999
0029228020999991925030420004+61700+030683FM-12+001699999V0201801N004119999999N0000001N9-00281+99999100301ADDGF108991999999999999999999
0035228020999991925030506004+61700+030683FM-12+001699999V0201801N002119999999N0000001N9-00281+99999099351ADDGF108991999999999999999999MW1721
0029228020999991925030513004+61700+030683FM-12+001699999V0203201N002119999999N0000001N9-00061+99999099201ADDGF100991999999999999999999
0029228020999991925030520004+61700+030683FM-12+001699999V0203201N002119999999N0000001N9-00721+99999098871ADDGF108991999999999999999999
0029228020999991925030606004+61700+030683FM-12+001699999V0209991C000019999999N0000001N9-00671+99999098281ADDGF108991999999999999999999
0035228020999991925030613004+61700+030683FM-12+001699999V0200901N002119999999N0000001N9-00281+99999098101ADDGF108991999999999999999999MW1721
0035228020999991925030620004+61700+030683FM-12+001699999V0200901N002119999999N0000001N9-00391+99999098061ADDGF108991999999999999999999MW1721
0029228020999991925030706004+61700+030683FM-12+001699999V0203601N002119999999N0000001N9-00831+99999097941ADDGF108991999999999999999999
0029228020999991925030713004+61700+030683FM-12+001699999V0203601N001019999999N0000001N9-00671+99999098021ADDGF108991999999999999999999
0029228020999991925030720004+61700+030683FM-12+001699999V0203601N002119999999N0000001N9-00831+99999098401ADDGF108991999999999999999999
0029228020999991925030806004+61700+030683FM-12+001699999V0203601N001019999999N0000001N9-01331+99999098961ADDGF106991999999999999999999
0029228020999991925030813004+61700+030683FM-12+001699999V0203201N002119999999N0000001N9-00561+99999099341ADDGF100991999999999999999999
0029228020999991925030820004+61700+030683FM-12+001699999V0209991C000019999999N0000001N9-01501+99999099681ADDGF100991999999999999999999
0029228020999991925030906004+61700+030683FM-12+001699999V0203201N001019999999N0000001N9-02391+99999100031ADDGF103991999999999999999999
0029228020999991925030913004+61700+030683FM-12+001699999V0203201N001019999999N0000001N9-00891+99999100241ADDGF108991999999999999999999
0029228020999991925030920004+61700+030683FM-12+001699999V0209991C000019999999N0000001N9-01441+99999100601ADDGF102991999999999999999999
0029228020999991925031006004+61700+030683FM-12+001699999V0209991C000019999999N0000001N9-02391+99999101141ADDGF103991999999999999999999
0029228020999991925031013004+61700+030683FM-12+001699999V0203201N001019999999N0000001N9-00671+99999101351ADDGF100991999999999999999999
0029228020999991925031020004+61700+030683FM-12+001699999V0209991C000019999999N0000001N9-01281+99999101471ADDGF103991999999999999999999
0035228020999991925031106004+61700+030683FM-12+001699999V0200501N002119999999N0000001N9-01171+99999101071ADDGF108991999999999999999999MW1721
0035228020999991925031113004+61700+030683FM-12+001699999V0200501N006219999999N0000001N9-01001+99999100351ADDGF108991999999999999999999MW1721
0035228020999991925031120004+61700+030683FM-12+001699999V0200901N009819999999N0000001N9-01111+99999099601ADDGF108991999999999999999999MW1721
0035228020999991925031206004+61700+030683FM-12+001699999V0201101N006219999999N0000001N9-00721+99999099951ADDGF108991999999999999999999MW1721
0035228020999991925031213004+61700+030683FM-12+001699999V0201401N008219999999N0000001N9-00781+99999100581ADDGF108991999999999999999999MW1721
0035228020999991925031220004+61700+030683FM-12+001699999V0200901N002119999999N0000001N9-00831+99999101001ADDGF108991999999999999999999MW1721
0035228020999991925031306004+61700+030683FM-12+001699999V0201101N004119999999N0000001N9-00781+99999101081ADDGF108991999999999999999999MW1721
0029228020999991925031313004+61700+030683FM-12+001699999V0201101N004119999999N0000001N9-00561+99999101221ADDGF108991999999999999999999
0035228020999991925031320004+61700+030683FM-12+001699999V0201101N004119999999N0000001N9-00721+99999101461ADDGF108991999999999999999999MW1721
0035228020999991925031406004+61700+030683FM-12+001699999V0201101N006219999999N0000001N9-00441+99999101551ADDGF108991999999999999999999MW1721
0029228020999991925031413004+61700+030683FM-12+001699999V0200901N004119999999N0000001N9-00501+99999101541ADDGF108991999999999999999999
0035228020999991925031420004+61700+030683FM-12+001699999V0201401N004119999999N0000001N9-00391+99999101551ADDGF108991999999999999999999MW1741
0029228020999991925031506004+61700+030683FM-12+001699999V0209991C000019999999N0000001N9-01171+99999101741ADDGF108991999999999999999999
0029228020999991925031513004+61700+030683FM-12+001699999V0200901N002119999999N0000001N9-00391+99999101821ADDGF107991999999999999999999
0029228020999991925031520004+61700+030683FM-12+001699999V0209991C000019999999N0000001N9-00721+99999102161ADDGF108991999999999999999999
0035228020999991925031606004+61700+030683FM-12+001699999V0209991C000019999999N0000001N9-01061+99999102501ADDGF108991999999999999999999MW1701
0029228020999991925031613004+61700+030683FM-12+001699999V0200501N001019999999N0000001N9-00391+99999102511ADDGF108991999999999999999999
0029228020999991925031620004+61700+030683FM-12+001699999V0209991C000019999999N0000001N9-00941+99999102401ADDGF100991999999999999999999
0029228020999991925031706004+61700+030683FM-12+001699999V0203601N001019999999N0000001N9-01331+99999102161ADDGF106991999999999999999999
0029228020999991925031713004+61700+030683FM-12+001699999V0203201N001019999999N0000001N9-00221+99999102031ADDGF100991999999999999999999
0029228020999991925031720004+61700+030683FM-12+001699999V0209991C000019999999N0000001N9-01001+99999102111ADDGF100991999999999999999999
0029228020999991925031806004+61700+030683FM-12+001699999V0209991C000019999999N0000001N9-01831+99999102241ADDGF102991999999999999999999
0029228020999991925031813004+61700+030683FM-12+001699999V0203201N001019999999N0000001N9-00061+99999102021ADDGF100991999999999999999999
0029228020999991925031820004+61700+030683FM-12+001699999V0209991C000019999999N0000001N9-00561+99999101721ADDGF100991999999999999999999
0029228020999991925031906004+61700+030683FM-12+001699999V0202501N002119999999N0000001N9-00171+99999101061ADDGF108991999999999999999999
0029228020999991925031913004+61700+030683FM-12+001699999V0202301N002119999999N0000001N9+00281+99999100511ADDGF108991999999999999999999
0035228020999991925031920004+61700+030683FM-12+001699999V0202301N001019999999N0000001N9+00061+99999100301ADDGF108991999999999999999999MW1621
0029228020999991925032006004+61700+030683FM-12+001699999V0202701N001019999999N0000001N9-00281+99999100041ADDGF100991999999999999999999
0029228020999991925032013004+61700+030683FM-12+001699999V0202701N001019999999N0000001N9+00391+99999099801ADDGF100991999999999999999999
0029228020999991925032020004+61700+030683FM-12+001699999V0209991C000019999999N0000001N9-00171+99999099701ADDGF100991999999999999999999
0029228020999991925032106004+61700+030683FM-12+001699999V0202001N001019999999N0000001N9-00501+99999099711ADDGF108991999999999999999999
0029228020999991925032113004+61700+030683FM-12+001699999V0202301N001019999999N0000001N9+00111+99999099841ADDGF108991999999999999999999
0029228020999991925032120004+61700+030683FM-12+001699999V0209991C000019999999N0000001N9-00281+99999100201ADDGF102991999999999999999999
0029228020999991925032206004+61700+030683FM-12+001699999V0202301N001019999999N0000001N9-00441+99999100761ADDGF108991999999999999999999
0029228020999991925032213004+61700+030683FM-12+001699999V0202301N001019999999N0000001N9+00061+99999101031ADDGF108991999999999999999999
0029228020999991925032220004+61700+030683FM-12+001699999V0202301N001019999999N0000001N9-00111+99999101031ADDGF108991999999999999999999
0029228020999991925032306004+61700+030683FM-12+001699999V0209991C000019999999N0000001N9-00281+99999101231ADDGF108991999999999999999999
0029228020999991925032313004+61700+030683FM-12+001699999V0201401N002119999999N0000001N9+00221+99999101401ADDGF102991999999999999999999
0029228020999991925032320004+61700+030683FM-12+001699999V0209991C000019999999N0000001N9-00331+99999101561ADDGF100991999999999999999999
0029228020999991925032406004+61700+030683FM-12+001699999V0209991C000019999999N0000001N9-01331+99999101821ADDGF100991999999999999999999
0029228020999991925032413004+61700+030683FM-12+001699999V0201401N002119999999N0000001N9+00221+99999101871ADDGF104991999999999999999999
0029228020999991925032420004+61700+030683FM-12+001699999V0209991C000019999999N0000001N9-00781+99999102031ADDGF100991999999999999999999
0035228020999991925032506004+61700+030683FM-12+001699999V0209991C000019999999N0000001N9-01331+99999102261ADDGF100991999999999999999999MW1481
0029228020999991925032513004+61700+030683FM-12+001699999V0201401N001019999999N0000001N9-00111+99999102351ADDGF100991999999999999999999
0029228020999991925032520004+61700+030683FM-12+001699999V0209991C000019999999N0000001N9-00781+99999102381ADDGF100991999999999999999999
0029228020999991925032606004+61700+030683FM-12+001699999V0201401N001019999999N0000001N9-01331+99999102541ADDGF100991999999999999999999
0029228020999991925032613004+61700+030683FM-12+001699999V0201401N002119999999N0000001N9+00001+99999102431ADDGF105991999999999999999999
0029228020999991925032620004+61700+030683FM-12+001699999V0209991C000019999999N0000001N9-00561+99999102261ADDGF100991999999999999999999
0029228020999991925032706004+61700+030683FM-12+001699999V0209991C000019999999N0000001N9-01391+99999102321ADDGF100991999999999999999999
0029228020999991925032713004+61700+030683FM-12+001699999V0201401N001019999999N0000001N9+00281+99999101991ADDGF100991999999999999999999
0029228020999991925032720004+61700+030683FM-12+001699999V0209991C000019999999N0000001N9-00611+99999101861ADDGF100991999999999999999999
0029228020999991925032806004+61700+030683FM-12+001699999V0209991C000019999999N0000001N9-01441+99999101641ADDGF100991999999999999999999
0029228020999991925032813004+61700+030683FM-12+001699999V0201401N001019999999N0000001N9+00061+99999101321ADDGF108991999999999999999999
0029228020999991925032820004+61700+030683FM-12+001699999V0200901N006219999999N0000001N9-00111+99999101021ADDGF108991999999999999999999
0035228020999991925032906004+61700+030683FM-12+001699999V0201101N006219999999N0000001N9-00281+99999099881ADDGF108991999999999999999999MW1721
0029228020999991925032913004+61700+030683FM-12+001699999V0201801N002119999999N0000001N9+00171+99999099801ADDGF108991999999999999999999
0029228020999991925032920004+61700+030683FM-12+001699999V0201801N002119999999N0000001N9+00061+99999100111ADDGF108991999999999999999999
0029228020999991925033006004+61700+030683FM-12+001699999V0203201N002119999999N0000001N9-00281+99999100621ADDGF108991999999999999999999
0029228020999991925033013004+61700+030683FM-12+001699999V0203201N001019999999N0000001N9-00061+99999101031ADDGF100991999999999999999999
0029228020999991925033020004+61700+030683FM-12+001699999V0209991C000019999999N0000001N9-00831+99999101241ADDGF100991999999999999999999
0029228020999991925033106004+61700+030683FM-12+001699999V0201601N004119999999N0000001N9-00441+99999100911ADDGF108991999999999999999999
0029228020999991925033113004+61700+030683FM-12+001699999V0201801N004119999999N0000001N9+00061+99999100631ADDGF108991999999999999999999
0029228020999991925033120004+61700+030683FM-12+001699999V0201801N008219999999N0000001N9+00171+99999100381ADDGF108991999999999999999999
0029228020999991925040106004+61700+030683FM-12+001699999V0202301N001019999999N0000001N9+00221+99999100481ADDGF108991999999999999999999
0029228020999991925040113004+61700+030683FM-12+001699999V0202301N001019999999N0000001N9+00501+99999100761ADDGF108991999999999999999999
0029228020999991925040120004+61700+030683FM-12+001699999V0201801N001019999999N0000001N9+00501+99999100831ADDGF108991999999999999999999
0029228020999991925040206004+61700+030683FM-12+001699999V0201801N008219999999N0000001N9+00331+99999100201ADDGF108991999999999999999999
0029228020999991925040213004+61700+030683FM-12+001699999V0202301N006219999999N0000001N9+00501+99999100511ADDGF108991999999999999999999
0029228020999991925040220004+61700+030683FM-12+001699999V0209991C000019999999N0000001N9+00221+99999100991ADDGF108991999999999999999999
0029228020999991925040306004+61700+030683FM-12+001699999V0202301N001019999999N0000001N9+00111+99999101031ADDGF108991999999999999999999
0029228020999991925040313004+61700+030683FM-12+001699999V0201601N004119999999N0000001N9+00331+99999100701ADDGF106991999999999999999999
0029228020999991925040320004+61700+030683FM-12+001699999V0201801N006219999999N0000001N9+00441+99999100231ADDGF108991999999999999999999
0029228020999991925040406004+61700+030683FM-12+001699999V0202301N002119999999N0000001N9+00061+99999100301ADDGF107991999999999999999999
0029228020999991925040413004+61700+030683FM-12+001699999V0202301N001019999999N0000001N9+00441+99999100621ADDGF107991999999999999999999
0029228020999991925040420004+61700+030683FM-12+001699999V0202701N001019999999N0000001N9-00171+99999100981ADDGF100991999999999999999999
0029228020999991925040506004+61700+030683FM-12+001699999V0203401N001019999999N0000001N9-00171+99999101761ADDGF100991999999999999999999
0029228020999991925040513004+61700+030683FM-12+001699999V0209991C000019999999N0000001N9+00611+99999102121ADDGF105991999999999999999999
0029228020999991925040520004+61700+030683FM-12+001699999V0209991C000019999999N0000001N9-00061+99999102201ADDGF100991999999999999999999
0029228020999991925040606004+61700+030683FM-12+001699999V0209991C000019999999N0000001N9-00501+99999102181ADDGF100991999999999999999999
0029228020999991925040613004+61700+030683FM-12+001699999V0200501N001019999999N0000001N9+00891+99999101831ADDGF100991999999999999999999
0029228020999991925040620004+61700+030683FM-12+001699999V0209991C000019999999N0000001N9+00061+99999101721ADDGF100991999999999999999999
0029228020999991925040706004+61700+030683FM-12+001699999V0203201N001019999999N0000001N9-00171+99999101721ADDGF100991999999999999999999
0029228020999991925040713004+61700+030683FM-12+001699999V0203201N001019999999N0000001N9+01111+99999101641ADDGF106991999999999999999999
0029228020999991925040720004+61700+030683FM-12+001699999V0209991C000019999999N0000001N9+00111+99999101681ADDGF100991999999999999999999
0029228020999991925040806004+61700+030683FM-12+001699999V0209991C000019999999N0000001N9-00061+99999101841ADDGF100991999999999999999999
0029228020999991925040813004+61700+030683FM-12+001699999V0203201N001019999999N0000001N9+01221+99999101911ADDGF100991999999999999999999
0029228020999991925040820004+61700+030683FM-12+001699999V0203201N001019999999N0000001N9+00281+99999102101ADDGF100991999999999999999999
0029228020999991925040906004+61700+030683FM-12+001699999V0203201N001019999999N0000001N9+00001+99999102271ADDGF100991999999999999999999
0029228020999991925040913004+61700+030683FM-12+001699999V0203201N001019999999N0000001N9+00671+99999102221ADDGF100991999999999999999999
0029228020999991925040920004+61700+030683FM-12+001699999V0203201N001019999999N0000001N9+00111+99999102031ADDGF100991999999999999999999
0029228020999991925041006004+61700+030683FM-12+001699999V0203201N001019999999N0000001N9+00001+99999101901ADDGF100991999999999999999999
0029228020999991925041013004+61700+030683FM-12+001699999V0203601N001019999999N0000001N9+01391+99999101861ADDGF100991999999999999999999
0029228020999991925041020004+61700+030683FM-12+001699999V0209991C000019999999N0000001N9+00671+99999101961ADDGF100991999999999999999999
0029228020999991925041106004+61700+030683FM-12+001699999V0209991C000019999999N0000001N9+00281+99999102601ADDGF105991999999999999999999
0029228020999991925041113004+61700+030683FM-12+001699999V0200901N001019999999N0000001N9+00831+99999102631ADDGF106991999999999999999999
0029228020999991925041120004+61700+030683FM-12+001699999V0209991C000019999999N0000001N9+00281+99999102521ADDGF101991999999999999999999
0029228020999991925041206004+61700+030683FM-12+001699999V0209991C000019999999N0000001N9+00331+99999102191ADDGF108991999999999999999999
0029228020999991925041213004+61700+030683FM-12+001699999V0201401N004119999999N0000001N9+00501+99999101741ADDGF107991999999999999999999
0029228020999991925041220004+61700+030683FM-12+001699999V0201401N001019999999N0000001N9+00331+99999101431ADDGF108991999999999999999999
0029228020999991925041306004+61700+030683FM-12+001699999V0201401N001019999999N0000001N9+00171+99999100661ADDGF108991999999999999999999
0029228020999991925041313004+61700+030683FM-12+001699999V0201401N002119999999N0000001N9+00561+99999100681ADDGF106991999999999999999999
0029228020999991925041320004+61700+030683FM-12+001699999V0209991C000019999999N0000001N9+00171+99999100841ADDGF100991999999999999999999
0029228020999991925041406004+61700+030683FM-12+001699999V0201401N001019999999N0000001N9+00171+99999101161ADDGF100991999999999999999999
0029228020999991925041413004+61700+030683FM-12+001699999V0201801N001019999999N0000001N9+01111+99999101391ADDGF100991999999999999999999
0029228020999991925041420004+61700+030683FM-12+001699999V0209991C000019999999N0000001N9+00281+99999101551ADDGF100991999999999999999999
0029228020999991925041506004+61700+030683FM-12+001699999V0201601N001019999999N0000001N9+00331+99999101681ADDGF100991999999999999999999
0029228020999991925041513004+61700+030683FM-12+001699999V0201401N001019999999N0000001N9+00891+99999101551ADDGF100991999999999999999999
0029228020999991925041520004+61700+030683FM-12+001699999V0209991C000019999999N0000001N9+00171+99999101471ADDGF100991999999999999999999
0029228020999991925041606004+61700+030683FM-12+001699999V0201401N004119999999N0000001N9+00441+99999101001ADDGF103991999999999999999999
0029228020999991925041613004+61700+030683FM-12+001699999V0201401N006219999999N0000001N9+00941+99999100671ADDGF100991999999999999999999
0029228020999991925041620004+61700+030683FM-12+001699999V0201601N004119999999N0000001N9+00831+99999100431ADDGF108991999999999999999999
0029228020999991925041706004+61700+030683FM-12+001699999V0201401N002119999999N0000001N9+00441+99999100301ADDGF107991999999999999999999
0029228020999991925041713004+61700+030683FM-12+001699999V0201401N004119999999N0000001N9+00501+99999100141ADDGF108991999999999999999999
0035228020999991925041720004+61700+030683FM-12+001699999V0201601N002119999999N0000001N9+00441+99999100121ADDGF108991999999999999999999MW1621
0035228020999991925041806004+61700+030683FM-12+001699999V0201401N002119999999N0000001N9+00281+99999100071ADDGF108991999999999999999999MW1621
0035228020999991925041813004+61700+030683FM-12+001699999V0200901N001019999999N0000001N9+00441+99999100101ADDGF108991999999999999999999MW1621
0035228020999991925041820004+61700+030683FM-12+001699999V0209991C000019999999N0000001N9+00331+99999100121ADDGF108991999999999999999999MW1621
0035228020999991925041906004+61700+030683FM-12+001699999V0203201N002119999999N0000001N9+00221+99999100401ADDGF108991999999999999999999MW1621
0029228020999991925041913004+61700+030683FM-12+001699999V0201401N001019999999N0000001N9+00331+99999100471ADDGF108991999999999999999999
0029228020999991925041920004+61700+030683FM-12+001699999V0202301N002119999999N0000001N9+00331+99999100501ADDGF108991999999999999999999
0029228020999991925042006004+61700+030683FM-12+001699999V0202301N001019999999N0000001N9+00281+99999100551ADDGF106991999999999999999999
0029228020999991925042013004+61700+030683FM-12+001699999V0200901N002119999999N0000001N9+00831+99999100461ADDGF108991999999999999999999
0029228020999991925042020004+61700+030683FM-12+001699999V0201401N002119999999N0000001N9+00501+99999100421ADDGF108991999999999999999999
0035228020999991925042106004+61700+030683FM-12+001699999V0200201N004119999999N0000001N9+00111+99999100351ADDGF108991999999999999999999MW1741
0035228020999991925042113004+61700+030683FM-12+001699999V0203601N004119999999N0000001N9+00061+99999100581ADDGF108991999999999999999999MW1741
0029228020999991925042120004+61700+030683FM-12+001699999V0203601N004119999999N0000001N9+00061+99999100751ADDGF106991999999999999999999
0029228020999991925042206004+61700+030683FM-12+001699999V0203601N004119999999N0000001N9-00221+99999100791ADDGF106991999999999999999999
0029228020999991925042213004+61700+030683FM-12+001699999V0200501N003119999999N0000001N9+00391+99999100841ADDGF102991999999999999999999
0029228020999991925042220004+61700+030683FM-12+001699999V0203601N002119999999N0000001N9+00061+99999101061ADDGF103991999999999999999999
0029228020999991925042306004+61700+030683FM-12+001699999V0200501N004119999999N0000001N9-00171+99999101351ADDGF106991999999999999999999
0029228020999991925042313004+61700+030683FM-12+001699999V0201601N004119999999N0000001N9+00281+99999101301ADDGF100991999999999999999999
0029228020999991925042320004+61700+030683FM-12+001699999V0209991C000019999999N0000001N9+00001+99999101191ADDGF108991999999999999999999
0035228020999991925042406004+61700+030683FM-12+001699999V0201401N004119999999N0000001N9-00111+99999101181ADDGF108991999999999999999999MW1721
0029228020999991925042413004+61700+030683FM-12+001699999V0201401N006219999999N0000001N9+00111+99999101121ADDGF108991999999999999999999
0029228020999991925042420004+61700+030683FM-12+001699999V0209991C000019999999N0000001N9+00281+99999101031ADDGF108991999999999999999999
0029228020999991925042506004+61700+030683FM-12+001699999V0201401N002119999999N0000001N9+00441+99999100631ADDGF107991999999999999999999
0035228020999991925042513004+61700+030683FM-12+001699999V0201401N004119999999N0000001N9+00721+99999100361ADDGF108991999999999999999999MW1621
0029228020999991925042520004+61700+030683FM-12+001699999V0201601N001019999999N0000001N9+00721+99999100111ADDGF108991999999999999999999
0029228020999991925042606004+61700+030683FM-12+001699999V0201801N002119999999N0000001N9+00561+99999099991ADDGF108991999999999999999999
0035228020999991925042613004+61700+030683FM-12+001699999V0200201N002119999999N0000001N9+00671+99999100141ADDGF108991999999999999999999MW1621
0029228020999991925042620004+61700+030683FM-12+001699999V0209991C000019999999N0000001N9+00561+99999100231ADDGF108991999999999999999999
0029228020999991925042706004+61700+030683FM-12+001699999V0209991C000019999999N0000001N9+00281+99999100511ADDGF108991999999999999999999
0029228020999991925042713004+61700+030683FM-12+001699999V0200901N001019999999N0000001N9+00721+99999100341ADDGF108991999999999999999999
0035228020999991925042720004+61700+030683FM-12+001699999V0200501N004119999999N0000001N9+00281+99999099711ADDGF108991999999999999999999MW1621
0029228020999991925042806004+61700+030683FM-12+001699999V0200501N004119999999N0000001N9+00221+99999100031ADDGF108991999999999999999999
0029228020999991925042813004+61700+030683FM-12+001699999V0203601N004119999999N0000001N9+00281+99999100821ADDGF107991999999999999999999
0029228020999991925042820004+61700+030683FM-12+001699999V0209991C000019999999N0000001N9+00061+99999101441ADDGF107991999999999999999999
0029228020999991925042906004+61700+030683FM-12+001699999V0201401N004119999999N0000001N9-00061+99999102041ADDGF108991999999999999999999
0029228020999991925042913004+61700+030683FM-12+001699999V0200701N002119999999N0000001N9+00721+99999102031ADDGF102991999999999999999999
0029228020999991925042920004+61700+030683FM-12+001699999V0200901N006219999999N0000001N9+00221+99999101781ADDGF108991999999999999999999
0035228020999991925043006004+61700+030683FM-12+001699999V0200901N004119999999N0000001N9+00281+99999100951ADDGF108991999999999999999999MW1621
0029228020999991925043013004+61700+030683FM-12+001699999V0200901N004119999999N0000001N9+01111+99999100671ADDGF107991999999999999999999
0029228020999991925043020004+61700+030683FM-12+001699999V0209991C000019999999N0000001N9+00831+99999100301ADDGF108991999999999999999999
0029228020999991925050106004+61700+030683FM-12+001699999V0201401N004119999999N0000001N9+00671+99999100271ADDGF102991999999999999999999
0029228020999991925050113004+61700+030683FM-12+001699999V0201401N006219999999N0000001N9+00561+99999100921ADDGF108991999999999999999999
0029228020999991925050120004+61700+030683FM-12+001699999V0201801N001019999999N0000001N9+00441+99999101191ADDGF108991999999999999999999
0029228020999991925050206004+61700+030683FM-12+001699999V0202301N001019999999N0000001N9+00441+99999101591ADDGF108991999999999999999999
0029228020999991925050213004+61700+030683FM-12+001699999V0202301N002119999999N0000001N9+00781+99999101881ADDGF106991999999999999999999
0029228020999991925050220004+61700+030683FM-12+001699999V0203201N001019999999N0000001N9+00331+99999102161ADDGF100991999999999999999999
0029228020999991925050306004+61700+030683FM-12+001699999V0209991C000019999999N0000001N9+00331+99999102361ADDGF100991999999999999999999
0029228020999991925050313004+61700+030683FM-12+001699999V0201401N002119999999N0000001N9+01331+99999102161ADDGF100991999999999999999999
0029228020999991925050320004+61700+030683FM-12+001699999V0209991C000019999999N0000001N9+00671+99999101961ADDGF100991999999999999999999
0029228020999991925050406004+61700+030683FM-12+001699999V0201401N001019999999N0000001N9+00831+99999101821ADDGF103991999999999999999999
0029228020999991925050413004+61700+030683FM-12+001699999V0201401N004119999999N0000001N9+01391+99999101561ADDGF102991999999999999999999
0029228020999991925050420004+61700+030683FM-12+001699999V0202301N001019999999N0000001N9+00831+99999101271ADDGF108991999999999999999999
0029228020999991925050506004+61700+030683FM-12+001699999V0203201N001019999999N0000001N9+00721+99999101401ADDGF107991999999999999999999
0029228020999991925050513004+61700+030683FM-12+001699999V0203201N002119999999N0000001N9+01221+99999101601ADDGF107991999999999999999999
0029228020999991925050520004+61700+030683FM-12+001699999V0209991C000019999999N0000001N9+00721+99999101741ADDGF102991999999999999999999
0029228020999991925050606004+61700+030683FM-12+001699999V0203201N001019999999N0000001N9+00831+99999102161ADDGF101991999999999999999999
0029228020999991925050613004+61700+030683FM-12+001699999V0203201N002119999999N0000001N9+01331+99999102121ADDGF103991999999999999999999
0029228020999991925050620004+61700+030683FM-12+001699999V0200901N001019999999N0000001N9+00781+99999102061ADDGF100991999999999999999999
0029228020999991925050706004+61700+030683FM-12+001699999V0200901N001019999999N0000001N9+00441+99999102071ADDGF100991999999999999999999
0029228020999991925050713004+61700+030683FM-12+001699999V0201801N002119999999N0000001N9+01171+99999101901ADDGF107991999999999999999999
0029228020999991925050720004+61700+030683FM-12+001699999V0201801N001019999999N0000001N9+00781+99999101741ADDGF100991999999999999999999
0029228020999991925050806004+61700+030683FM-12+001699999V0200701N002119999999N0000001N9+00671+99999101961ADDGF100991999999999999999999
0029228020999991925050813004+61700+030683FM-12+001699999V0201401N002119999999N0000001N9+01441+99999101791ADDGF108991999999999999999999
0029228020999991925050820004+61700+030683FM-12+001699999V0209991C000019999999N0000001N9+01061+99999101661ADDGF108991999999999999999999
0029228020999991925050906004+61700+030683FM-12+001699999V0201101N002119999999N0000001N9+01061+99999101631ADDGF106991999999999999999999
0029228020999991925050913004+61700+030683FM-12+001699999V0201401N002119999999N0000001N9+00941+99999101631ADDGF108991999999999999999999
0029228020999991925050920004+61700+030683FM-12+001699999V0209991C000019999999N0000001N9+01001+99999101461ADDGF102991999999999999999999
0029228020999991925051006004+61700+030683FM-12+001699999V0209991C000019999999N0000001N9+00941+99999101441ADDGF107991999999999999999999
0029228020999991925051013004+61700+030683FM-12+001699999V0201401N002119999999N0000001N9+01331+99999101481ADDGF108991999999999999999999
0029228020999991925051020004+61700+030683FM-12+001699999V0201401N001019999999N0000001N9+01061+99999101551ADDGF108991999999999999999999
0029228020999991925051106004+61700+030683FM-12+001699999V0201401N001019999999N0000001N9+00831+99999101761ADDGF108991999999999999999999
0029228020999991925051113004+61700+030683FM-12+001699999V0201401N002119999999N0000001N9+01611+99999101821ADDGF106991999999999999999999
0029228020999991925051120004+61700+030683FM-12+001699999V0201401N001019999999N0000001N9+00941+99999101751ADDGF108991999999999999999999
0029228020999991925051206004+61700+030683FM-12+001699999V0201401N001019999999N0000001N9+00831+99999101431ADDGF108991999999999999999999
0029228020999991925051213004+61700+030683FM-12+001699999V0203201N004119999999N0000001N9+02331+99999101341ADDGF106991999999999999999999
0029228020999991925051220004+61700+030683FM-12+001699999V0203201N002119999999N0000001N9+01781+99999101401ADDGF106991999999999999999999
0029228020999991925051306004+61700+030683FM-12+001699999V0203201N001019999999N0000001N9+01331+99999101681ADDGF106991999999999999999999
0029228020999991925051313004+61700+030683FM-12+001699999V0201401N006219999999N0000001N9+01561+99999101591ADDGF106991999999999999999999
0029228020999991925051320004+61700+030683FM-12+001699999V0201401N002119999999N0000001N9+01001+99999101421ADDGF108991999999999999999999
0029228020999991925051406004+61700+030683FM-12+001699999V0202701N004119999999N0000001N9+01221+99999101151ADDGF108991999999999999999999
0029228020999991925051413004+61700+030683FM-12+001699999V0202701N008219999999N0000001N9+01671+99999101511ADDGF106991999999999999999999
0029228020999991925051420004+61700+030683FM-12+001699999V0209991C000019999999N0000001N9+01171+99999101631ADDGF102991999999999999999999
0029228020999991925051506004+61700+030683FM-12+001699999V0203201N001019999999N0000001N9+01001+99999101671ADDGF106991999999999999999999
0029228020999991925051513004+61700+030683FM-12+001699999V0203201N002119999999N0000001N9+01721+99999101471ADDGF102991999999999999999999
0029228020999991925051520004+61700+030683FM-12+001699999V0209991C000019999999N0000001N9+01061+99999101561ADDGF102991999999999999999999
0029228020999991925051606004+61700+030683FM-12+001699999V0203401N002119999999N0000001N9+00941+99999101751ADDGF100991999999999999999999
0029228020999991925051613004+61700+030683FM-12+001699999V0203201N002119999999N0000001N9+01611+99999101601ADDGF106991999999999999999999
0029228020999991925051620004+61700+030683FM-12+001699999V0209991C000019999999N0000001N9+01061+99999101621ADDGF108991999999999999999999
0029228020999991925051706004+61700+030683FM-12+001699999V0203601N001019999999N0000001N9+01001+99999101831ADDGF102991999999999999999999
0029228020999991925051713004+61700+030683FM-12+001699999V0203601N006219999999N0000001N9+01331+99999102071ADDGF106991999999999999999999
0029228020999991925051720004+61700+030683FM-12+001699999V0200501N001019999999N0000001N9+00781+99999102441ADDGF100991999999999999999999
0029228020999991925051806004+61700+030683FM-12+001699999V0200901N001019999999N0000001N9+00781+99999102751ADDGF100991999999999999999999
0029228020999991925051813004+61700+030683FM-12+001699999V0200501N006219999999N0000001N9+01391+99999102401ADDGF106991999999999999999999
0029228020999991925051820004+61700+030683FM-12+001699999V0209991C000019999999N0000001N9+01171+99999102121ADDGF103991999999999999999999
0029228020999991925051906004+61700+030683FM-12+001699999V0209991C000019999999N0000001N9+01391+99999101911ADDGF102991999999999999999999
0029228020999991925051913004+61700+030683FM-12+001699999V0203201N008219999999N0000001N9+02281+99999101551ADDGF102991999999999999999999
0029228020999991925051920004+61700+030683FM-12+001699999V0209991C000019999999N0000001N9+01721+99999101121ADDGF102991999999999999999999
0029228020999991925052006004+61700+030683FM-12+001699999V0203401N002119999999N0000001N9+01331+99999101001ADDGF106991999999999999999999
0029228020999991925052013004+61700+030683FM-12+001699999V0201401N004119999999N0000001N9+01441+99999100791ADDGF106991999999999999999999
0029228020999991925052020004+61700+030683FM-12+001699999V0209991C000019999999N0000001N9+00891+99999100541ADDGF106991999999999999999999
0029228020999991925052106004+61700+030683FM-12+001699999V0201601N001019999999N0000001N9+00831+99999100101ADDGF107991999999999999999999
0035228020999991925052113004+61700+030683FM-12+001699999V0200901N004119999999N0000001N9+00941+99999099541ADDGF108991999999999999999999MW1621
0029228020999991925052120004+61700+030683FM-12+001699999V0200901N002119999999N0000001N9+00831+99999098751ADDGF108991999999999999999999
0029228020999991925052206004+61700+030683FM-12+001699999V0201401N004119999999N0000001N9+00561+99999098141ADDGF107991999999999999999999
0035228020999991925052213004+61700+030683FM-12+001699999V0203201N006219999999N0000001N9+00391+99999098511ADDGF108991999999999999999999MW1621
0029228020999991925052220004+61700+030683FM-12+001699999V0203201N008219999999N0000001N9+00111+99999099141ADDGF108991999999999999999999
0029228020999991925052306004+61700+030683FM-12+001699999V0203201N006219999999N0000001N9+00001+99999099861ADDGF108991999999999999999999
0029228020999991925052313004+61700+030683FM-12+001699999V0203201N006219999999N0000001N9+00281+99999100581ADDGF108991999999999999999999
0029228020999991925052320004+61700+030683FM-12+001699999V0203201N001019999999N0000001N9+00171+99999101021ADDGF108991999999999999999999
0029228020999991925052406004+61700+030683FM-12+001699999V0200501N002119999999N0000001N9+00171+99999101361ADDGF108991999999999999999999
0029228020999991925052413004+61700+030683FM-12+001699999V0201401N002119999999N0000001N9+00501+99999101501ADDGF108991999999999999999999
0029228020999991925052420004+61700+030683FM-12+001699999V0202301N001019999999N0000001N9+00331+99999101681ADDGF108991999999999999999999
0029228020999991925052506004+61700+030683FM-12+001699999V0202301N001019999999N0000001N9+00611+99999101921ADDGF102991999999999999999999
0029228020999991925052513004+61700+030683FM-12+001699999V0201801N004119999999N0000001N9+00831+99999102001ADDGF100991999999999999999999
0029228020999991925052520004+61700+030683FM-12+001699999V0209991C000019999999N0000001N9+00441+99999101821ADDGF102991999999999999999999
0029228020999991925052606004+61700+030683FM-12+001699999V0201401N002119999999N0000001N9+00831+99999101311ADDGF105991999999999999999999
0029228020999991925052613004+61700+030683FM-12+001699999V0201801N002119999999N0000001N9+01111+99999100981ADDGF108991999999999999999999
0029228020999991925052620004+61700+030683FM-12+001699999V0209991C000019999999N0000001N9+00781+99999100871ADDGF107991999999999999999999
0029228020999991925052706004+61700+030683FM-12+001699999V0200701N004119999999N0000001N9+00831+99999100841ADDGF108991999999999999999999
0029228020999991925052713004+61700+030683FM-12+001699999V0201401N004119999999N0000001N9+01441+99999100841ADDGF106991999999999999999999
0029228020999991925052720004+61700+030683FM-12+001699999V0209991C000019999999N0000001N9+01061+99999101071ADDGF108991999999999999999999
0029228020999991925052806004+61700+030683FM-12+001699999V0200701N004119999999N0000001N9+00831+99999101561ADDGF107991999999999999999999
0029228020999991925052813004+61700+030683FM-12+001699999V0200901N004119999999N0000001N9+01561+99999101661ADDGF106991999999999999999999
0029228020999991925052820004+61700+030683FM-12+001699999V0209991C000019999999N0000001N9+01171+99999101781ADDGF108991999999999999999999
0029228020999991925052906004+61700+030683FM-12+001699999V0201401N002119999999N0000001N9+01281+99999102071ADDGF103991999999999999999999
0029228020999991925052913004+61700+030683FM-12+001699999V0201801N004119999999N0000001N9+01561+99999102191ADDGF102991999999999999999999
0029228020999991925052920004+61700+030683FM-12+001699999V0201601N001019999999N0000001N9+01171+99999102141ADDGF105991999999999999999999
0029228020999991925053006004+61700+030683FM-12+001699999V0201601N002119999999N0000001N9+01221+99999102101ADDGF106991999999999999999999
0029228020999991925053013004+61700+030683FM-12+001699999V0201401N006219999999N0000001N9+01671+99999101741ADDGF105991999999999999999999
0029228020999991925053020004+61700+030683FM-12+001699999V0209991C000019999999N0000001N9+01171+99999101481ADDGF108991999999999999999999
0029228020999991925053106004+61700+030683FM-12+001699999V0201401N002119999999N0000001N9+01221+99999101151ADDGF108991999999999999999999
0029228020999991925053113004+61700+030683FM-12+001699999V0201601N002119999999N0000001N9+01111+99999100951ADDGF108991999999999999999999
0029228020999991925053120004+61700+030683FM-12+001699999V0201801N001019999999N0000001N9+01281+99999100631ADDGF107991999999999999999999
0029228020999991925060106004+61700+030683FM-12+001699999V0202501N001019999999N0000001N9+01171+99999100561ADDGF108991999999999999999999
0029228020999991925060113004+61700+030683FM-12+001699999V0202701N004119999999N0000001N9+01331+99999100661ADDGF106991999999999999999999
0029228020999991925060120004+61700+030683FM-12+001699999V0202501N001019999999N0000001N9+01061+99999100801ADDGF108991999999999999999999
0029228020999991925060206004+61700+030683FM-12+001699999V0202301N001019999999N0000001N9+01331+99999101191ADDGF100991999999999999999999
0029228020999991925060213004+61700+030683FM-12+001699999V0202301N004119999999N0000001N9+02001+99999101271ADDGF106991999999999999999999
0029228020999991925060220004+61700+030683FM-12+001699999V0202301N001019999999N0000001N9+01441+99999101341ADDGF106991999999999999999999
0029228020999991925060306004+61700+030683FM-12+001699999V0209991C000019999999N0000001N9+01331+99999101381ADDGF100991999999999999999999
0035228020999991925060313004+61700+030683FM-12+001699999V0201801N004119999999N0000001N9+01331+99999101191ADDGF105991999999999999999999MW1621
0029228020999991925060320004+61700+030683FM-12+001699999V0201401N002119999999N0000001N9+01061+99999100881ADDGF103991999999999999999999
0029228020999991925060406004+61700+030683FM-12+001699999V0201401N001019999999N0000001N9+01221+99999100301ADDGF108991999999999999999999
0029228020999991925060413004+61700+030683FM-12+001699999V0200901N006219999999N0000001N9+01721+99999100141ADDGF108991999999999999999999
0029228020999991925060420004+61700+030683FM-12+001699999V0203601N006219999999N0000001N9+01281+99999100541ADDGF102991999999999999999999
0029228020999991925060506004+61700+030683FM-12+001699999V0203601N008219999999N0000001N9+01111+99999100881ADDGF106991999999999999999999
0029228020999991925060513004+61700+030683FM-12+001699999V0203601N004119999999N0000001N9+01501+99999101231ADDGF100991999999999999999999
0029228020999991925060520004+61700+030683FM-12+001699999V0203201N004119999999N0000001N9+00941+99999101671ADDGF103991999999999999999999
0029228020999991925060606004+61700+030683FM-12+001699999V0200201N004119999999N0000001N9+00441+99999102341ADDGF102991999999999999999999
0029228020999991925060613004+61700+030683FM-12+001699999V0200501N004119999999N0000001N9+01171+99999102351ADDGF100991999999999999999999
0029228020999991925060620004+61700+030683FM-12+001699999V0203601N001019999999N0000001N9+00941+99999102421ADDGF100991999999999999999999
0029228020999991925060706004+61700+030683FM-12+001699999V0209991C000019999999N0000001N9+00671+99999102641ADDGF100991999999999999999999
0029228020999991925060713004+61700+030683FM-12+001699999V0200901N002119999999N0000001N9+01611+99999102301ADDGF100991999999999999999999
0029228020999991925060720004+61700+030683FM-12+001699999V0209991C000019999999N0000001N9+01001+99999102031ADDGF103991999999999999999999
0029228020999991925060806004+61700+030683FM-12+001699999V0209991C000019999999N0000001N9+01061+99999101901ADDGF103991999999999999999999
0029228020999991925060813004+61700+030683FM-12+001699999V0201401N002119999999N0000001N9+01611+99999101701ADDGF106991999999999999999999
0029228020999991925060820004+61700+030683FM-12+001699999V0202701N002119999999N0000001N9+01501+99999101581ADDGF108991999999999999999999
0029228020999991925060906004+61700+030683FM-12+001699999V0200501N004119999999N0000001N9+01281+99999101681ADDGF106991999999999999999999
0029228020999991925060913004+61700+030683FM-12+001699999V0203601N004119999999N0000001N9+01781+99999101561ADDGF105991999999999999999999
0029228020999991925060920004+61700+030683FM-12+001699999V0203601N001019999999N0000001N9+01501+99999101301ADDGF108991999999999999999999
0029228020999991925061006004+61700+030683FM-12+001699999V0201101N002119999999N0000001N9+01111+99999101341ADDGF108991999999999999999999
0029228020999991925061013004+61700+030683FM-12+001699999V0201801N002119999999N0000001N9+01281+99999101261ADDGF108991999999999999999999
0035228020999991925061020004+61700+030683FM-12+001699999V0201101N001019999999N0000001N9+01111+99999100911ADDGF108991999999999999999999MW1641
0029228020999991925061106004+61700+030683FM-12+001699999V0200501N001019999999N0000001N9+01001+99999101301ADDGF108991999999999999999999
0029228020999991925061113004+61700+030683FM-12+001699999V0203601N004119999999N0000001N9+01281+99999101351ADDGF106991999999999999999999
0029228020999991925061120004+61700+030683FM-12+001699999V0203601N001019999999N0000001N9+01061+99999101001ADDGF108991999999999999999999
0035228020999991925061206004+61700+030683FM-12+001699999V0201601N001019999999N0000001N9+00721+99999100151ADDGF108991999999999999999999MW1621
0035228020999991925061213004+61700+030683FM-12+001699999V0201801N001019999999N0000001N9+01001+99999099511ADDGF108991999999999999999999MW1621
0035228020999991925061220004+61700+030683FM-12+001699999V0201801N001019999999N0000001N9+01001+99999099281ADDGF108991999999999999999999MW1621
0035228020999991925061306004+61700+030683FM-12+001699999V0203401N002119999999N0000001N9+01001+99999099041ADDGF108991999999999999999999MW1621
0029228020999991925061313004+61700+030683FM-12+001699999V0200901N006219999999N0000001N9+01171+99999099261ADDGF107991999999999999999999
0029228020999991925061320004+61700+030683FM-12+001699999V0200501N001019999999N0000001N9+00831+99999099431ADDGF104991999999999999999999
0029228020999991925061406004+61700+030683FM-12+001699999V0200501N001019999999N0000001N9+01061+99999099401ADDGF102991999999999999999999
0029228020999991925061413004+61700+030683FM-12+001699999V0201401N004119999999N0000001N9+01391+99999099401ADDGF105991999999999999999999
0029228020999991925061420004+61700+030683FM-12+001699999V0209991C000019999999N0000001N9+00941+99999099421ADDGF106991999999999999999999
0029228020999991925061506004+61700+030683FM-12+001699999V0201601N001019999999N0000001N9+01061+99999099741ADDGF107991999999999999999999
0029228020999991925061513004+61700+030683FM-12+001699999V0201401N002119999999N0000001N9+01391+99999099951ADDGF106991999999999999999999
0029228020999991925061520004+61700+030683FM-12+001699999V0201401N002119999999N0000001N9+01331+99999100081ADDGF102991999999999999999999
0029228020999991925061606004+61700+030683FM-12+001699999V0200901N002119999999N0000001N9+01281+99999100101ADDGF108991999999999999999999
0029228020999991925061613004+61700+030683FM-12+001699999V0201101N002119999999N0000001N9+01941+99999099911ADDGF106991999999999999999999
0029228020999991925061620004+61700+030683FM-12+001699999V0209991C000019999999N0000001N9+01611+99999099741ADDGF108991999999999999999999
0029228020999991925061706004+61700+030683FM-12+001699999V0201101N002119999999N0000001N9+01281+99999099471ADDGF108991999999999999999999
0029228020999991925061713004+61700+030683FM-12+001699999V0201401N006219999999N0000001N9+01831+99999099301ADDGF103991999999999999999999
0029228020999991925061720004+61700+030683FM-12+001699999V0200901N006219999999N0000001N9+01281+99999099161ADDGF108991999999999999999999
0035228020999991925061806004+61700+030683FM-12+001699999V0201401N001019999999N0000001N9+01061+99999099151ADDGF108991999999999999999999MW1621
0029228020999991925061813004+61700+030683FM-12+001699999V0201401N001019999999N0000001N9+01501+99999099391ADDGF108991999999999999999999
0029228020999991925061820004+61700+030683FM-12+001699999V0209991C000019999999N0000001N9+01281+99999099421ADDGF106991999999999999999999
0035228020999991925061906004+61700+030683FM-12+001699999V0209991C000019999999N0000001N9+01171+99999099101ADDGF108991999999999999999999MW1621
0029228020999991925061913004+61700+030683FM-12+001699999V0201401N002119999999N0000001N9+01111+99999099311ADDGF108991999999999999999999
0029228020999991925061920004+61700+030683FM-12+001699999V0201401N001019999999N0000001N9+00941+99999099501ADDGF108991999999999999999999
0029228020999991925062006004+61700+030683FM-12+001699999V0201601N004119999999N0000001N9+00891+99999099801ADDGF108991999999999999999999
0029228020999991925062013004+61700+030683FM-12+001699999V0201801N002119999999N0000001N9+01111+99999100191ADDGF108991999999999999999999
0029228020999991925062020004+61700+030683FM-12+001699999V0209991C000019999999N0000001N9+01111+99999100271ADDGF106991999999999999999999
0029228020999991925062106004+61700+030683FM-12+001699999V0200701N002119999999N0000001N9+01171+99999100271ADDGF106991999999999999999999
0029228020999991925062113004+61700+030683FM-12+001699999V0201401N002119999999N0000001N9+01281+99999100481ADDGF108991999999999999999999
0029228020999991925062120004+61700+030683FM-12+001699999V0201401N001019999999N0000001N9+01171+99999100821ADDGF107991999999999999999999
0029228020999991925062206004+61700+030683FM-12+001699999V0201401N001019999999N0000001N9+01061+99999101301ADDGF108991999999999999999999
0029228020999991925062213004+61700+030683FM-12+001699999V0201401N004119999999N0000001N9+01671+99999101581ADDGF106991999999999999999999
0029228020999991925062220004+61700+030683FM-12+001699999V0209991C000019999999N0000001N9+01391+99999101681ADDGF107991999999999999999999
0029228020999991925062306004+61700+030683FM-12+001699999V0201601N001019999999N0000001N9+01721+99999101821ADDGF103991999999999999999999
0029228020999991925062313004+61700+030683FM-12+001699999V0201801N002119999999N0000001N9+02391+99999101591ADDGF105991999999999999999999
0029228020999991925062320004+61700+030683FM-12+001699999V0209991C000019999999N0000001N9+01891+99999101341ADDGF106991999999999999999999
0035228020999991925062406004+61700+030683FM-12+001699999V0200701N004119999999N0000001N9+01721+99999100581ADDGF108991999999999999999999MW1601
0029228020999991925062413004+61700+030683FM-12+001699999V0200701N006219999999N0000001N9+01561+99999100241ADDGF108991999999999999999999
0029228020999991925062420004+61700+030683FM-12+001699999V0203601N001019999999N0000001N9+01561+99999099821ADDGF108991999999999999999999
0029228020999991925062506004+61700+030683FM-12+001699999V0201801N008219999999N0000001N9+01281+99999100021ADDGF103991999999999999999999
0029228020999991925062513004+61700+030683FM-12+001699999V0201401N004119999999N0000001N9+01221+99999100181ADDGF108991999999999999999999
0029228020999991925062520004+61700+030683FM-12+001699999V0201801N004119999999N0000001N9+01281+99999100381ADDGF108991999999999999999999
0029228020999991925062606004+61700+030683FM-12+001699999V0201401N002119999999N0000001N9+01441+99999100641ADDGF106991999999999999999999
0029228020999991925062613004+61700+030683FM-12+001699999V0201401N002119999999N0000001N9+02111+99999100431ADDGF106991999999999999999999
0029228020999991925062620004+61700+030683FM-12+001699999V0203601N002119999999N0000001N9+01721+99999100181ADDGF108991999999999999999999
0029228020999991925062706004+61700+030683FM-12+001699999V0200501N001019999999N0000001N9+01781+99999100041ADDGF102991999999999999999999
0029228020999991925062713004+61700+030683FM-12+001699999V0201401N002119999999N0000001N9+02331+99999100111ADDGF105991999999999999999999
0029228020999991925062720004+61700+030683FM-12+001699999V0209991C000019999999N0000001N9+01891+99999100241ADDGF106991999999999999999999
0029228020999991925062806004+61700+030683FM-12+001699999V0203201N004119999999N0000001N9+01721+99999100541ADDGF102991999999999999999999
0029228020999991925062813004+61700+030683FM-12+001699999V0203601N008219999999N0000001N9+02221+99999100671ADDGF101991999999999999999999
0029228020999991925062820004+61700+030683FM-12+001699999V0203601N002119999999N0000001N9+01721+99999100841ADDGF100991999999999999999999
0029228020999991925062906004+61700+030683FM-12+001699999V0203601N004119999999N0000001N9+01721+99999101161ADDGF100991999999999999999999
0029228020999991925062913004+61700+030683FM-12+001699999V0203601N006219999999N0000001N9+02221+99999101261ADDGF100991999999999999999999
0029228020999991925062920004+61700+030683FM-12+001699999V0203601N004119999999N0000001N9+01781+99999101381ADDGF100991999999999999999999
0029228020999991925063006004+61700+030683FM-12+001699999V0200501N004119999999N0000001N9+01671+99999101711ADDGF100991999999999999999999
0029228020999991925063013004+61700+030683FM-12+001699999V0200501N008219999999N0000001N9+02001+99999101671ADDGF100991999999999999999999
0029228020999991925063020004+61700+030683FM-12+001699999V0200501N002119999999N0000001N9+01441+99999101671ADDGF102991999999999999999999
0029228020999991925070106004+61700+030683FM-12+001699999V0200501N006219999999N0000001N9+01331+99999101921ADDGF101991999999999999999999
0029228020999991925070113004+61700+030683FM-12+001699999V0200501N006219999999N0000001N9+01721+99999101941ADDGF100991999999999999999999
0029228020999991925070120004+61700+030683FM-12+001699999V0200501N002119999999N0000001N9+01221+99999102101ADDGF100991999999999999999999
0029228020999991925070206004+61700+030683FM-12+001699999V0201101N006219999999N0000001N9+01561+99999101921ADDGF100991999999999999999999
0029228020999991925070213004+61700+030683FM-12+001699999V0200701N008219999999N0000001N9+01561+99999101861ADDGF106991999999999999999999
0029228020999991925070220004+61700+030683FM-12+001699999V0200501N004119999999N0000001N9+01781+99999101841ADDGF108991999999999999999999
0029228020999991925070306004+61700+030683FM-12+001699999V0200501N006219999999N0000001N9+01941+99999101711ADDGF102991999999999999999999
0029228020999991925070313004+61700+030683FM-12+001699999V0200701N006219999999N0000001N9+02501+99999101621ADDGF100991999999999999999999
0029228020999991925070320004+61700+030683FM-12+001699999V0200901N001019999999N0000001N9+02061+99999101631ADDGF105991999999999999999999
0029228020999991925070406004+61700+030683FM-12+001699999V0200701N004119999999N0000001N9+02171+99999101601ADDGF106991999999999999999999
0029228020999991925070413004+61700+030683FM-12+001699999V0200901N002119999999N0000001N9+02561+99999101631ADDGF108991999999999999999999
0029228020999991925070420004+61700+030683FM-12+001699999V0200901N001019999999N0000001N9+02171+99999101631ADDGF106991999999999999999999
0029228020999991925070506004+61700+030683FM-12+001699999V0200901N001019999999N0000001N9+02281+99999101591ADDGF106991999999999999999999
0029228020999991925070513004+61700+030683FM-12+001699999V0201801N002119999999N0000001N9+02831+99999101551ADDGF102991999999999999999999
0029228020999991925070520004+61700+030683FM-12+001699999V0201801N001019999999N0000001N9+02331+99999101381ADDGF107991999999999999999999
0029228020999991925070606004+61700+030683FM-12+001699999V0201801N001019999999N0000001N9+02111+99999101421ADDGF103991999999999999999999
0029228020999991925070613004+61700+030683FM-12+001699999V0201401N004119999999N0000001N9+02671+99999101301ADDGF100991999999999999999999
0029228020999991925070620004+61700+030683FM-12+001699999V0209991C000019999999N0000001N9+02221+99999101161ADDGF100991999999999999999999
0029228020999991925070706004+61700+030683FM-12+001699999V0201601N001019999999N0000001N9+02221+99999101121ADDGF100991999999999999999999
0029228020999991925070713004+61700+030683FM-12+001699999V0201401N001019999999N0000001N9+02781+99999101081ADDGF101991999999999999999999
0029228020999991925070720004+61700+030683FM-12+001699999V0209991C000019999999N0000001N9+02281+99999101001ADDGF100991999999999999999999
0029228020999991925070806004+61700+030683FM-12+001699999V0209991C000019999999N0000001N9+02331+99999100961ADDGF101991999999999999999999
0029228020999991925070813004+61700+030683FM-12+001699999V0201801N002119999999N0000001N9+02831+99999100831ADDGF100991999999999999999999
0029228020999991925070820004+61700+030683FM-12+001699999V0209991C000019999999N0000001N9+02391+99999100781ADDGF104991999999999999999999
0029228020999991925070906004+61700+030683FM-12+001699999V0209991C000019999999N0000001N9+02331+99999100751ADDGF100991999999999999999999
0029228020999991925070913004+61700+030683FM-12+001699999V0201401N002119999999N0000001N9+02941+99999100681ADDGF104991999999999999999999
0029228020999991925070920004+61700+030683FM-12+001699999V0209991C000019999999N0000001N9+02441+99999100521ADDGF100991999999999999999999
0029228020999991925071006004+61700+030683FM-12+001699999V0201401N004119999999N0000001N9+02281+99999100551ADDGF100991999999999999999999
0029228020999991925071013004+61700+030683FM-12+001699999V0201401N006219999999N0000001N9+02331+99999100591ADDGF105991999999999999999999
0029228020999991925071020004+61700+030683FM-12+001699999V0202701N002119999999N0000001N9+01721+99999100911ADDGF103991999999999999999999
0029228020999991925071106004+61700+030683FM-12+001699999V0202301N002119999999N0000001N9+01721+99999101231ADDGF107991999999999999999999
0029228020999991925071113004+61700+030683FM-12+001699999V0202301N004119999999N0000001N9+02171+99999101401ADDGF105991999999999999999999
0029228020999991925071120004+61700+030683FM-12+001699999V0201601N001019999999N0000001N9+01611+99999101541ADDGF108991999999999999999999
0029228020999991925071206004+61700+030683FM-12+001699999V0209991C000019999999N0000001N9+01831+99999101671ADDGF108991999999999999999999
0035228020999991925071213004+61700+030683FM-12+001699999V0201801N001019999999N0000001N9+01721+99999101711ADDGF108991999999999999999999MW1601
0029228020999991925071220004+61700+030683FM-12+001699999V0201801N001019999999N0000001N9+01501+99999101671ADDGF102991999999999999999999
0029228020999991925071306004+61700+030683FM-12+001699999V0201801N001019999999N0000001N9+01611+99999101741ADDGF102991999999999999999999
0029228020999991925071313004+61700+030683FM-12+001699999V0203601N006219999999N0000001N9+02281+99999101751ADDGF105991999999999999999999
0029228020999991925071320004+61700+030683FM-12+001699999V0203401N001019999999N0000001N9+01721+99999101801ADDGF108991999999999999999999
0029228020999991925071406004+61700+030683FM-12+001699999V0203401N001019999999N0000001N9+01831+99999101831ADDGF108991999999999999999999
0029228020999991925071413004+61700+030683FM-12+001699999V0203601N002119999999N0000001N9+02221+99999101871ADDGF100991999999999999999999
0029228020999991925071420004+61700+030683FM-12+001699999V0200701N004119999999N0000001N9+01721+99999101941ADDGF104991999999999999999999
0029228020999991925071506004+61700+030683FM-12+001699999V0203601N006219999999N0000001N9+01611+99999102101ADDGF103991999999999999999999
0029228020999991925071513004+61700+030683FM-12+001699999V0203601N004119999999N0000001N9+01781+99999101961ADDGF106991999999999999999999
0029228020999991925071520004+61700+030683FM-12+001699999V0203601N001019999999N0000001N9+01611+99999101941ADDGF102991999999999999999999
0029228020999991925071606004+61700+030683FM-12+001699999V0203601N001019999999N0000001N9+01611+99999101881ADDGF100991999999999999999999
0029228020999991925071613004+61700+030683FM-12+001699999V0203601N001019999999N0000001N9+02001+99999101671ADDGF107991999999999999999999
0029228020999991925071620004+61700+030683FM-12+001699999V0209991C000019999999N0000001N9+01561+99999101641ADDGF108991999999999999999999
0029228020999991925071706004+61700+030683FM-12+001699999V0200901N002119999999N0000001N9+01501+99999101621ADDGF106991999999999999999999
0029228020999991925071713004+61700+030683FM-12+001699999V0200501N001019999999N0000001N9+01671+99999101471ADDGF106991999999999999999999
0029228020999991925071720004+61700+030683FM-12+001699999V0200501N001019999999N0000001N9+01501+99999101471ADDGF106991999999999999999999
0035228020999991925071806004+61700+030683FM-12+001699999V0203401N001019999999N0000001N9+01441+99999101221ADDGF108991999999999999999999MW1621
0029228020999991925071813004+61700+030683FM-12+001699999V0200501N001019999999N0000001N9+01721+99999101181ADDGF108991999999999999999999
0029228020999991925071820004+61700+030683FM-12+001699999V0209991C000019999999N0000001N9+01611+99999101141ADDGF108991999999999999999999
0029228020999991925071906004+61700+030683FM-12+001699999V0209991C000019999999N0000001N9+01781+99999101181ADDGF102991999999999999999999
0029228020999991925071913004+61700+030683FM-12+001699999V0203601N001019999999N0000001N9+02501+99999101151ADDGF103991999999999999999999
0029228020999991925071920004+61700+030683FM-12+001699999V0209991C000019999999N0000001N9+02001+99999101201ADDGF100991999999999999999999
0029228020999991925072006004+61700+030683FM-12+001699999V0209991C000019999999N0000001N9+01891+99999101421ADDGF100991999999999999999999
0029228020999991925072013004+61700+030683FM-12+001699999V0203601N004119999999N0000001N9+02831+99999101351ADDGF102991999999999999999999
0029228020999991925072020004+61700+030683FM-12+001699999V0209991C000019999999N0000001N9+02331+99999101421ADDGF106991999999999999999999
0029228020999991925072106004+61700+030683FM-12+001699999V0203601N004119999999N0000001N9+01941+99999101621ADDGF106991999999999999999999
0029228020999991925072113004+61700+030683FM-12+001699999V0203601N006219999999N0000001N9+02781+99999101701ADDGF102991999999999999999999
0029228020999991925072120004+61700+030683FM-12+001699999V0209991C000019999999N0000001N9+02281+99999101821ADDGF104991999999999999999999
0029228020999991925072206004+61700+030683FM-12+001699999V0203601N001019999999N0000001N9+02221+99999102101ADDGF100991999999999999999999
0029228020999991925072213004+61700+030683FM-12+001699999V0203601N004119999999N0000001N9+02831+99999102071ADDGF105991999999999999999999
0029228020999991925072220004+61700+030683FM-12+001699999V0203601N001019999999N0000001N9+02331+99999101991ADDGF101991999999999999999999
0029228020999991925072306004+61700+030683FM-12+001699999V0209991C000019999999N0000001N9+02221+99999102041ADDGF106991999999999999999999
0029228020999991925072313004+61700+030683FM-12+001699999V0201401N004119999999N0000001N9+03001+99999101831ADDGF102991999999999999999999
0029228020999991925072320004+61700+030683FM-12+001699999V0209991C000019999999N0000001N9+02441+99999101681ADDGF100991999999999999999999
0029228020999991925072406004+61700+030683FM-12+001699999V0209991C000019999999N0000001N9+02221+99999101561ADDGF100991999999999999999999
0029228020999991925072413004+61700+030683FM-12+001699999V0202501N002119999999N0000001N9+03171+99999101341ADDGF100991999999999999999999
0029228020999991925072420004+61700+030683FM-12+001699999V0203201N001019999999N0000001N9+02391+99999101231ADDGF100991999999999999999999
0029228020999991925072506004+61700+030683FM-12+001699999V0209991C000019999999N0000001N9+02281+99999101421ADDGF102991999999999999999999
0029228020999991925072513004+61700+030683FM-12+001699999V0203601N002119999999N0000001N9+03001+99999101421ADDGF103991999999999999999999
0029228020999991925072520004+61700+030683FM-12+001699999V0209991C000019999999N0000001N9+02281+99999101541ADDGF101991999999999999999999
0029228020999991925072606004+61700+030683FM-12+001699999V0200901N002119999999N0000001N9+01891+99999101841ADDGF108991999999999999999999
0029228020999991925072613004+61700+030683FM-12+001699999V0203201N002119999999N0000001N9+02781+99999101831ADDGF100991999999999999999999
0029228020999991925072620004+61700+030683FM-12+001699999V0200901N001019999999N0000001N9+02171+99999101831ADDGF100991999999999999999999
0029228020999991925072706004+61700+030683FM-12+001699999V0201401N004119999999N0000001N9+02061+99999101751ADDGF102991999999999999999999
0029228020999991925072713004+61700+030683FM-12+001699999V0201401N008219999999N0000001N9+02441+99999101701ADDGF100991999999999999999999
0029228020999991925072720004+61700+030683FM-12+001699999V0201601N001019999999N0000001N9+02171+99999101461ADDGF101991999999999999999999
0029228020999991925072806004+61700+030683FM-12+001699999V0201401N006219999999N0000001N9+02061+99999101261ADDGF103991999999999999999999
0029228020999991925072813004+61700+030683FM-12+001699999V0201401N006219999999N0000001N9+02501+99999101071ADDGF102991999999999999999999
0029228020999991925072820004+61700+030683FM-12+001699999V0201401N004119999999N0000001N9+02281+99999100821ADDGF102991999999999999999999
0029228020999991925072906004+61700+030683FM-12+001699999V0201401N004119999999N0000001N9+02281+99999100751ADDGF101991999999999999999999
0029228020999991925072913004+61700+030683FM-12+001699999V0201401N008219999999N0000001N9+02561+99999100681ADDGF100991999999999999999999
0029228020999991925072920004+61700+030683FM-12+001699999V0201801N001019999999N0000001N9+02171+99999100781ADDGF108991999999999999999999
0029228020999991925073006004+61700+030683FM-12+001699999V0201801N001019999999N0000001N9+01891+99999100701ADDGF108991999999999999999999
0035228020999991925073013004+61700+030683FM-12+001699999V0203201N002119999999N0000001N9+02061+99999100561ADDGF108991999999999999999999MW1601
0029228020999991925073020004+61700+030683FM-12+001699999V0203201N001019999999N0000001N9+01781+99999100501ADDGF108991999999999999999999
0029228020999991925073106004+61700+030683FM-12+001699999V0209991C000019999999N0000001N9+01781+99999100461ADDGF108991999999999999999999
0029228020999991925073113004+61700+030683FM-12+001699999V0201801N002119999999N0000001N9+02281+99999100321ADDGF102991999999999999999999
0029228020999991925073120004+61700+030683FM-12+001699999V0209991C000019999999N0000001N9+01831+99999100061ADDGF102991999999999999999999
0029228020999991925080106004+61700+030683FM-12+001699999V0200901N002119999999N0000001N9+01831+99999099901ADDGF108991999999999999999999
0029228020999991925080113004+61700+030683FM-12+001699999V0202301N002119999999N0000001N9+01781+99999099821ADDGF108991999999999999999999
0029228020999991925080120004+61700+030683FM-12+001699999V0202301N001019999999N0000001N9+01781+99999099901ADDGF107991999999999999999999
0029228020999991925080206004+61700+030683FM-12+001699999V0202501N001019999999N0000001N9+01721+99999100111ADDGF100991999999999999999999
0029228020999991925080213004+61700+030683FM-12+001699999V0201401N004119999999N0000001N9+02171+99999100221ADDGF105991999999999999999999
0029228020999991925080220004+61700+030683FM-12+001699999V0201601N002119999999N0000001N9+01781+99999100221ADDGF108991999999999999999999
0035228020999991925080306004+61700+030683FM-12+001699999V0202001N002119999999N0000001N9+01561+99999100181ADDGF108991999999999999999999MW1621
0029228020999991925080313004+61700+030683FM-12+001699999V0201101N002119999999N0000001N9+01941+99999100161ADDGF108991999999999999999999
0029228020999991925080320004+61700+030683FM-12+001699999V0209991C000019999999N0000001N9+01721+99999100201ADDGF106991999999999999999999
0029228020999991925080406004+61700+030683FM-12+001699999V0201801N002119999999N0000001N9+01781+99999099991ADDGF107991999999999999999999
0029228020999991925080413004+61700+030683FM-12+001699999V0201401N001019999999N0000001N9+02061+99999099841ADDGF108991999999999999999999
0035228020999991925080420004+61700+030683FM-12+001699999V0200501N001019999999N0000001N9+01831+99999099631ADDGF108991999999999999999999MW1621
0035228020999991925080506004+61700+030683FM-12+001699999V0200701N008219999999N0000001N9+01561+99999099041ADDGF108991999999999999999999MW1621
0035228020999991925080513004+61700+030683FM-12+001699999V0200701N004119999999N0000001N9+01831+99999098911ADDGF106991999999999999999999MW1621
0029228020999991925080520004+61700+030683FM-12+001699999V0200901N001019999999N0000001N9+01671+99999098981ADDGF105991999999999999999999
0029228020999991925080606004+61700+030683FM-12+001699999V0200901N001019999999N0000001N9+01781+99999098881ADDGF108991999999999999999999
0029228020999991925080613004+61700+030683FM-12+001699999V0203601N002119999999N0000001N9+01941+99999098981ADDGF108991999999999999999999
0029228020999991925080620004+61700+030683FM-12+001699999V0203601N002119999999N0000001N9+01391+99999099341ADDGF108991999999999999999999
0029228020999991925080706004+61700+030683FM-12+001699999V0203601N001019999999N0000001N9+01171+99999099801ADDGF108991999999999999999999
0029228020999991925080713004+61700+030683FM-12+001699999V0200501N006219999999N0000001N9+01111+99999100311ADDGF108991999999999999999999
0029228020999991925080720004+61700+030683FM-12+001699999V0200501N001019999999N0000001N9+01111+99999100711ADDGF106991999999999999999999
0029228020999991925080806004+61700+030683FM-12+001699999V0200701N004119999999N0000001N9+01111+99999101201ADDGF105991999999999999999999
0029228020999991925080813004+61700+030683FM-12+001699999V0200201N001019999999N0000001N9+01561+99999101351ADDGF100991999999999999999999
0029228020999991925080820004+61700+030683FM-12+001699999V0209991C000019999999N0000001N9+01281+99999101541ADDGF101991999999999999999999
0029228020999991925080906004+61700+030683FM-12+001699999V0200901N001019999999N0000001N9+01391+99999101791ADDGF100991999999999999999999
0029228020999991925080913004+61700+030683FM-12+001699999V0201801N001019999999N0000001N9+01941+99999101761ADDGF103991999999999999999999
0029228020999991925080920004+61700+030683FM-12+001699999V0209991C000019999999N0000001N9+01441+99999101801ADDGF100991999999999999999999
0029228020999991925081006004+61700+030683FM-12+001699999V0209991C000019999999N0000001N9+01501+99999101861ADDGF106991999999999999999999
0029228020999991925081013004+61700+030683FM-12+001699999V0203601N001019999999N0000001N9+02331+99999101591ADDGF101991999999999999999999
0029228020999991925081020004+61700+030683FM-12+001699999V0209991C000019999999N0000001N9+01561+99999101351ADDGF104991999999999999999999
0029228020999991925081106004+61700+030683FM-12+001699999V0209991C000019999999N0000001N9+01281+99999101361ADDGF106991999999999999999999
0029228020999991925081113004+61700+030683FM-12+001699999V0201801N004119999999N0000001N9+02171+99999101161ADDGF106991999999999999999999
0029228020999991925081120004+61700+030683FM-12+001699999V0201601N004119999999N0000001N9+01831+99999101161ADDGF108991999999999999999999
0029228020999991925081206004+61700+030683FM-12+001699999V0202301N002119999999N0000001N9+01941+99999101151ADDGF107991999999999999999999
0029228020999991925081213004+61700+030683FM-12+001699999V0202701N004119999999N0000001N9+02441+99999101461ADDGF106991999999999999999999
0029228020999991925081220004+61700+030683FM-12+001699999V0202701N001019999999N0000001N9+01941+99999101721ADDGF102991999999999999999999
0029228020999991925081306004+61700+030683FM-12+001699999V0202701N001019999999N0000001N9+01831+99999102101ADDGF108991999999999999999999
0035228020999991925081313004+61700+030683FM-12+001699999V0202501N001019999999N0000001N9+01941+99999102141ADDGF108991999999999999999999MW1621
0029228020999991925081320004+61700+030683FM-12+001699999V0209991C000019999999N0000001N9+01781+99999101991ADDGF108991999999999999999999
0029228020999991925081406004+61700+030683FM-12+001699999V0202501N001019999999N0000001N9+01671+99999101721ADDGF108991999999999999999999
0029228020999991925081413004+61700+030683FM-12+001699999V0201801N001019999999N0000001N9+02111+99999101471ADDGF106991999999999999999999
0029228020999991925081420004+61700+030683FM-12+001699999V0209991C000019999999N0000001N9+01941+99999101191ADDGF108991999999999999999999
0029228020999991925081506004+61700+030683FM-12+001699999V0209991C000019999999N0000001N9+01941+99999100801ADDGF108991999999999999999999
0029228020999991925081513004+61700+030683FM-12+001699999V0201801N001019999999N0000001N9+02501+99999100541ADDGF104991999999999999999999
0029228020999991925081520004+61700+030683FM-12+001699999V0209991C000019999999N0000001N9+02061+99999100301ADDGF106991999999999999999999
0035228020999991925081606004+61700+030683FM-12+001699999V0203601N001019999999N0000001N9+01721+99999099861ADDGF108991999999999999999999MW1621
0029228020999991925081613004+61700+030683FM-12+001699999V0201401N001019999999N0000001N9+02281+99999099921ADDGF105991999999999999999999
0029228020999991925081620004+61700+030683FM-12+001699999V0209991C000019999999N0000001N9+01891+99999099991ADDGF107991999999999999999999
0029228020999991925081706004+61700+030683FM-12+001699999V0201401N006219999999N0000001N9+01831+99999099551ADDGF108991999999999999999999
0029228020999991925081713004+61700+030683FM-12+001699999V0202701N002119999999N0000001N9+02171+99999099901ADDGF108991999999999999999999
0029228020999991925081720004+61700+030683FM-12+001699999V0209991C000019999999N0000001N9+01611+99999099921ADDGF102991999999999999999999
0029228020999991925081806004+61700+030683FM-12+001699999V0209991C000019999999N0000001N9+01501+99999100061ADDGF102991999999999999999999
0029228020999991925081813004+61700+030683FM-12+001699999V0201401N006219999999N0000001N9+01831+99999100281ADDGF104991999999999999999999
0035228020999991925081820004+61700+030683FM-12+001699999V0200901N001019999999N0000001N9+01611+99999100231ADDGF108991999999999999999999MW1621
0029228020999991925081906004+61700+030683FM-12+001699999V0200901N004119999999N0000001N9+01561+99999100061ADDGF106991999999999999999999
0029228020999991925081913004+61700+030683FM-12+001699999V0200901N004119999999N0000001N9+02061+99999099921ADDGF106991999999999999999999
0029228020999991925081920004+61700+030683FM-12+001699999V0200901N001019999999N0000001N9+01501+99999099901ADDGF108991999999999999999999
0035228020999991925082006004+61700+030683FM-12+001699999V0203201N002119999999N0000001N9+01391+99999099721ADDGF108991999999999999999999MW1621
0035228020999991925082013004+61700+030683FM-12+001699999V0202301N004119999999N0000001N9+01441+99999099621ADDGF108991999999999999999999MW1621
0035228020999991925082020004+61700+030683FM-12+001699999V0203201N002119999999N0000001N9+01221+99999099581ADDGF108991999999999999999999MW1621
0029228020999991925082106004+61700+030683FM-12+001699999V0203201N002119999999N0000001N9+01171+99999999999ADDGF108991999999999999999999
0029228020999991925082113004+61700+030683FM-12+001699999V0203601N002119999999N0000001N9+01331+99999100351ADDGF108991999999999999999999
0029228020999991925082120004+61700+030683FM-12+001699999V0200201N001019999999N0000001N9+01171+99999100721ADDGF108991999999999999999999
0029228020999991925082206004+61700+030683FM-12+001699999V0200201N002119999999N0000001N9+01061+99999101201ADDGF108991999999999999999999
0029228020999991925082213004+61700+030683FM-12+001699999V0200201N001019999999N0000001N9+01281+99999101441ADDGF106991999999999999999999
0029228020999991925082220004+61700+030683FM-12+001699999V0200201N001019999999N0000001N9+01001+99999101701ADDGF106991999999999999999999
0029228020999991925082306004+61700+030683FM-12+001699999V0200501N002119999999N0000001N9+00831+99999102061ADDGF102991999999999999999999
0029228020999991925082313004+61700+030683FM-12+001699999V0200701N002119999999N0000001N9+01501+99999102061ADDGF100991999999999999999999
0029228020999991925082320004+61700+030683FM-12+001699999V0200901N001019999999N0000001N9+01001+99999102101ADDGF104991999999999999999999
0029228020999991925082406004+61700+030683FM-12+001699999V0209991C000019999999N0000001N9+00781+99999102181ADDGF106991999999999999999999
0029228020999991925082413004+61700+030683FM-12+001699999V0209991C000019999999N0000001N9+01831+99999102121ADDGF108991999999999999999999
0029228020999991925082420004+61700+030683FM-12+001699999V0209991C000019999999N0000001N9+01171+99999102041ADDGF100991999999999999999999
0029228020999991925082506004+61700+030683FM-12+001699999V0200701N001019999999N0000001N9+00891+99999102041ADDGF100991999999999999999999
0029228020999991925082513004+61700+030683FM-12+001699999V0200901N002119999999N0000001N9+01941+99999101911ADDGF102991999999999999999999
0029228020999991925082520004+61700+030683FM-12+001699999V0209991C000019999999N0000001N9+01281+99999101831ADDGF100991999999999999999999
0029228020999991925082606004+61700+030683FM-12+001699999V0209991C000019999999N0000001N9+01061+99999101881ADDGF100991999999999999999999
0029228020999991925082613004+61700+030683FM-12+001699999V0200901N001019999999N0000001N9+02001+99999101861ADDGF102991999999999999999999
0029228020999991925082620004+61700+030683FM-12+001699999V0209991C000019999999N0000001N9+01221+99999101881ADDGF102991999999999999999999
0029228020999991925082706004+61700+030683FM-12+001699999V0209991C000019999999N0000001N9+01171+99999102001ADDGF100991999999999999999999
0029228020999991925082713004+61700+030683FM-12+001699999V0201401N001019999999N0000001N9+02111+99999101951ADDGF100991999999999999999999
0029228020999991925082720004+61700+030683FM-12+001699999V0209991C000019999999N0000001N9+01391+99999101911ADDGF100991999999999999999999
0029228020999991925082806004+61700+030683FM-12+001699999V0201401N006219999999N0000001N9+01281+99999101721ADDGF108991999999999999999999
0035228020999991925082813004+61700+030683FM-12+001699999V0200901N004119999999N0000001N9+01111+99999101361ADDGF108991999999999999999999MW1621
0035228020999991925082820004+61700+030683FM-12+001699999V0200901N001019999999N0000001N9+01111+99999101061ADDGF108991999999999999999999MW1621
0035228020999991925082906004+61700+030683FM-12+001699999V0200901N002119999999N0000001N9+01441+99999100881ADDGF108991999999999999999999MW1621
0029228020999991925082913004+61700+030683FM-12+001699999V0201401N004119999999N0000001N9+01721+99999100841ADDGF108991999999999999999999
0029228020999991925082920004+61700+030683FM-12+001699999V0201401N006219999999N0000001N9+01611+99999100621ADDGF108991999999999999999999
0029228020999991925083006004+61700+030683FM-12+001699999V0201401N006219999999N0000001N9+01441+99999100161ADDGF108991999999999999999999
0035228020999991925083013004+61700+030683FM-12+001699999V0201401N004119999999N0000001N9+01501+99999100201ADDGF108991999999999999999999MW1601
0029228020999991925083020004+61700+030683FM-12+001699999V0201401N001019999999N0000001N9+01441+99999100261ADDGF108991999999999999999999
0029228020999991925083106004+61700+030683FM-12+001699999V0201401N001019999999N0000001N9+01441+99999100401ADDGF108991999999999999999999
0029228020999991925083113004+61700+030683FM-12+001699999V0201401N002119999999N0000001N9+01781+99999100521ADDGF105991999999999999999999
0029228020999991925083120004+61700+030683FM-12+001699999V0209991C000019999999N0000001N9+01391+99999100401ADDGF100991999999999999999999
0029228020999991925090106004+61700+030683FM-12+001699999V0201401N001019999999N0000001N9+01441+99999099781ADDGF106991999999999999999999
0029228020999991925090113004+61700+030683FM-12+001699999V0201801N006219999999N0000001N9+01561+99999099161ADDGF108991999999999999999999
0035228020999991925090120004+61700+030683FM-12+001699999V0201801N004119999999N0000001N9+01221+99999098631ADDGF108991999999999999999999MW1621
0029228020999991925090206004+61700+030683FM-12+001699999V0202701N004119999999N0000001N9+01061+99999098701ADDGF106991999999999999999999
0029228020999991925090213004+61700+030683FM-12+001699999V0201801N002119999999N0000001N9+01331+99999098761ADDGF105991999999999999999999
0029228020999991925090220004+61700+030683FM-12+001699999V0201401N002119999999N0000001N9+01281+99999098551ADDGF108991999999999999999999
0029228020999991925090306004+61700+030683FM-12+001699999V0209991C000019999999N0000001N9+01061+99999098461ADDGF108991999999999999999999
0029228020999991925090313004+61700+030683FM-12+001699999V0201801N002119999999N0000001N9+01331+99999098601ADDGF108991999999999999999999
