0029228020999991917010106004+61700+030683FM-12+001699999V0203601N001019999999N0000001N9-01781+99999100281ADDGF108991999999999999999999
0029228020999991917010113004+61700+030683FM-12+001699999V0203201N002619999999N0000001N9-01781+99999100431ADDGF106991999999999999999999
0029228020999991917010120004+61700+030683FM-12+001699999V0203201N002619999999N0000001N9-01831+99999100601ADDGF105991999999999999999999
0029228020999991917010206004+61700+030683FM-12+001699999V0203601N006719999999N0000001N9-01941+99999100761ADDGF108991999999999999999999
0029228020999991917010213004+61700+030683FM-12+001699999V0203601N002619999999N0000001N9-02001+99999100841ADDGF108991999999999999999999
0029228020999991917010220004+61700+030683FM-12+001699999V0203601N002619999999N0000001N9-01831+99999100941ADDGF108991999999999999999999
0029228020999991917010306004+61700+030683FM-12+001699999V0203601N004619999999N0000001N9-01721+99999100761ADDGF108991999999999999999999
0035228020999991917010313004+61700+030683FM-12+001699999V0203601N006719999999N0000001N9-01501+99999100791ADDGF108991999999999999999999MW1701
0029228020999991917010320004+61700+030683FM-12+001699999V0203601N001019999999N0000001N9-01501+99999100901ADDGF108991999999999999999999
0035228020999991917010406004+61700+030683FM-12+001699999V0203601N012319999999N0000001N9-01061+99999100741ADDGF108991999999999999999999MW1861
0035228020999991917010413004+61700+030683FM-12+001699999V0201801N012319999999N0000001N9-00891+99999100341ADDGF108991999999999999999999MW1701
0035228020999991917010420004+61700+030683FM-12+001699999V0202001N012319999999N0000001N9-00781+99999100161ADDGF108991999999999999999999MW1701
0029228020999991917010506004+61700+030683FM-12+001699999V0201801N006719999999N0000001N9-01391+99999099721ADDGF108991999999999999999999
0035228020999991917010513004+61700+030683FM-12+001699999V0200501N012319999999N0000001N9-01391+99999099311ADDGF108991999999999999999999MW1721
0029228020999991917010520004+61700+030683FM-12+001699999V0200501N006719999999N0000001N9-01221+99999099151ADDGF108991999999999999999999
0035228020999991917010606004+61700+030683FM-12+001699999V0203601N004619999999N0000001N9-01501+99999099301ADDGF108991999999999999999999MW1701
0029228020999991917010613004+61700+030683FM-12+001699999V0203201N002619999999N0000001N9-01721+99999099621ADDGF108991999999999999999999
0029228020999991917010620004+61700+030683FM-12+001699999V0203201N002619999999N0000001N9-01891+99999099881ADDGF108991999999999999999999
0029228020999991917010706004+61700+030683FM-12+001699999V0203201N002619999999N0000001N9-02391+99999100541ADDGF106991999999999999999999
0029228020999991917010713004+61700+030683FM-12+001699999V0202901N001019999999N0000001N9-01611+99999100801ADDGF108991999999999999999999
0029228020999991917010720004+61700+030683FM-12+001699999V0202501N001019999999N0000001N9-00781+99999100991ADDGF108991999999999999999999
0029228020999991917010806004+61700+030683FM-12+001699999V0201801N004619999999N0000001N9-00171+99999101471ADDGF108991999999999999999999
0029228020999991917010813004+61700+030683FM-12+001699999V0201801N006719999999N0000001N9-00611+99999101581ADDGF108991999999999999999999
0029228020999991917010820004+61700+030683FM-12+001699999V0201801N001019999999N0000001N9-01221+99999101431ADDGF108991999999999999999999
0035228020999991917010906004+61700+030683FM-12+001699999V0201801N004619999999N0000001N9-00891+99999100911ADDGF108991999999999999999999MW1701
0029228020999991917010913004+61700+030683FM-12+001699999V0203601N002619999999N0000001N9-00831+99999101081ADDGF108991999999999999999999
0029228020999991917010920004+61700+030683FM-12+001699999V0203601N002619999999N0000001N9-00941+99999101631ADDGF108991999999999999999999
0029228020999991917011006004+61700+030683FM-12+001699999V0203601N001019999999N0000001N9-01221+99999102101ADDGF108991999999999999999999
0029228020999991917011013004+61700+030683FM-12+001699999V0201801N006719999999N0000001N9-00501+99999101871ADDGF108991999999999999999999
0029228020999991917011020004+61700+030683FM-12+001699999V0201101N009319999999N0000001N9-00941+99999101471ADDGF108991999999999999999999
0029228020999991917011106004+61700+030683FM-12+001699999V0200901N004619999999N0000001N9-01001+99999100841ADDGF108991999999999999999999
0029228020999991917011120004+61700+030683FM-12+001699999V0203401N001019999999N0000001N9-01061+99999100641ADDGF108991999999999999999999
0035228020999991917011206004+61700+030683FM-12+001699999V0202501N002619999999N0000001N9-01561+99999100551ADDGF108991999999999999999999MW1701
0035228020999991917011213004+61700+030683FM-12+001699999V0209991C000019999999N0000001N9-01111+99999100711ADDGF108991999999999999999999MW1701
0029228020999991917011220004+61700+030683FM-12+001699999V0202701N001019999999N0000001N9-01331+99999100951ADDGF108991999999999999999999
0029228020999991917011306004+61700+030683FM-12+001699999V0209991C000019999999N0000001N9-01001+99999101071ADDGF108991999999999999999999
0035228020999991917011313004+61700+030683FM-12+001699999V0201801N002619999999N0000001N9-00891+99999101191ADDGF108991999999999999999999MW1701
0029228020999991917011320004+61700+030683FM-12+001699999V0201101N001019999999N0000001N9-00891+99999101001ADDGF108991999999999999999999
0035228020999991917011406004+61700+030683FM-12+001699999V0209991C000019999999N0000001N9-00671+99999100521ADDGF108991999999999999999999MW1721
0035228020999991917011413004+61700+030683FM-12+001699999V0200501N001019999999N0000001N9-00611+99999100271ADDGF108991999999999999999999MW1721
0035228020999991917011420004+61700+030683FM-12+001699999V0201801N006719999999N0000001N9-00781+99999100281ADDGF108991999999999999999999MW1721
0029228020999991917011506004+61700+030683FM-12+001699999V0203601N002619999999N0000001N9-01611+99999100471ADDGF100991999999999999999999
0029228020999991917011513004+61700+030683FM-12+001699999V0203601N001019999999N0000001N9-01781+99999100981ADDGF100991999999999999999999
0029228020999991917011520004+61700+030683FM-12+001699999V0203601N006719999999N0000001N9-02281+99999101391ADDGF100991999999999999999999
0029228020999991917011606004+61700+030683FM-12+001699999V0200501N001019999999N0000001N9-02831+99999101521ADDGF100991999999999999999999
0029228020999991917011613004+61700+030683FM-12+001699999V0209991C000019999999N0000001N9-02501+99999101711ADDGF108991999999999999999999
0029228020999991917011620004+61700+030683FM-12+001699999V0200501N001019999999N0000001N9-01941+99999101471ADDGF108991999999999999999999
0029228020999991917011706004+61700+030683FM-12+001699999V0201801N001019999999N0000001N9-01061+99999101111ADDGF108991999999999999999999
0029228020999991917011713004+61700+030683FM-12+001699999V0203601N006719999999N0000001N9-01111+99999100911ADDGF108991999999999999999999
0029228020999991917011720004+61700+030683FM-12+001699999V0202701N002619999999N0000001N9-00721+99999100911ADDGF108991999999999999999999
0029228020999991917011806004+61700+030683FM-12+001699999V0203601N012319999999N0000001N9-00721+99999101541ADDGF108991999999999999999999
0029228020999991917011813004+61700+030683FM-12+001699999V0203201N004619999999N0000001N9-00721+99999102561ADDGF108991999999999999999999
0029228020999991917011820004+61700+030683FM-12+001699999V0203201N001019999999N0000001N9-01671+99999102711ADDGF100991999999999999999999
0029228020999991917011906004+61700+030683FM-12+001699999V0203201N002619999999N0000001N9-01171+99999102761ADDGF108991999999999999999999
0029228020999991917011913004+61700+030683FM-12+001699999V0203601N004619999999N0000001N9-01111+99999103071ADDGF108991999999999999999999
0029228020999991917011920004+61700+030683FM-12+001699999V0201801N006719999999N0000001N9-00781+99999103071ADDGF100991999999999999999999
0029228020999991917012006004+61700+030683FM-12+001699999V0202901N001019999999N0000001N9-01221+99999103021ADDGF108991999999999999999999
0029228020999991917012013004+61700+030683FM-12+001699999V0203201N009319999999N0000001N9-01061+99999103041ADDGF101991999999999999999999
0029228020999991917012020004+61700+030683FM-12+001699999V0203601N004619999999N0000001N9-01281+99999103121ADDGF100991999999999999999999
0029228020999991917012106004+61700+030683FM-12+001699999V0203601N002619999999N0000001N9-01331+99999103151ADDGF108991999999999999999999
0029228020999991917012113004+61700+030683FM-12+001699999V0203201N004619999999N0000001N9-01221+99999102981ADDGF108991999999999999999999
0029228020999991917012120004+61700+030683FM-12+001699999V0203601N001019999999N0000001N9-01721+99999102441ADDGF108991999999999999999999
0029228020999991917012206004+61700+030683FM-12+001699999V0203201N002619999999N0000001N9-00441+99999101581ADDGF108991999999999999999999
0029228020999991917012213004+61700+030683FM-12+001699999V0203201N002619999999N0000001N9-00221+99999101621ADDGF108991999999999999999999
0029228020999991917012220004+61700+030683FM-12+001699999V0203401N006719999999N0000001N9-00391+99999101621ADDGF108991999999999999999999
0029228020999991917012306004+61700+030683FM-12+001699999V0203601N009319999999N0000001N9-00561+99999102101ADDGF108991999999999999999999
0029228020999991917012313004+61700+030683FM-12+001699999V0203601N004619999999N0000001N9-00831+99999102381ADDGF108991999999999999999999
0029228020999991917012320004+61700+030683FM-12+001699999V0203601N001019999999N0000001N9-01441+99999102421ADDGF108991999999999999999999
0029228020999991917012406004+61700+030683FM-12+001699999V0203201N002619999999N0000001N9-00671+99999102061ADDGF108991999999999999999999
0029228020999991917012413004+61700+030683FM-12+001699999V0203201N004619999999N0000001N9-00441+99999101741ADDGF108991999999999999999999
0035228020999991917012420004+61700+030683FM-12+001699999V0202701N001019999999N0000001N9-00441+99999101201ADDGF108991999999999999999999MW1721
0035228020999991917012506004+61700+030683FM-12+001699999V0203601N002619999999N0000001N9-00561+99999100671ADDGF108991999999999999999999MW1721
0029228020999991917012513004+61700+030683FM-12+001699999V0209991C000019999999N0000001N9-00611+99999101591ADDGF108991999999999999999999
0029228020999991917012520004+61700+030683FM-12+001699999V0203601N006719999999N0000001N9-01001+99999101881ADDGF108991999999999999999999
0029228020999991917012606004+61700+030683FM-12+001699999V0200901N001019999999N0000001N9-01391+99999102061ADDGF108991999999999999999999
0029228020999991917012613004+61700+030683FM-12+001699999V0209991C000019999999N0000001N9-01061+99999101831ADDGF108991999999999999999999
0035228020999991917012620004+61700+030683FM-12+001699999V0202701N004619999999N0000001N9-00891+99999101581ADDGF108991999999999999999999MW1701
0029228020999991917012706004+61700+030683FM-12+001699999V0203201N004619999999N0000001N9-00501+99999101261ADDGF108991999999999999999999
0029228020999991917012713004+61700+030683FM-12+001699999V0203201N006719999999N0000001N9-00281+99999101001ADDGF108991999999999999999999
0035228020999991917012720004+61700+030683FM-12+001699999V0202901N009319999999N0000001N9-00441+99999101001ADDGF108991999999999999999999MW1721
0029228020999991917012806004+61700+030683FM-12+001699999V0203401N001019999999N0000001N9-00781+99999100921ADDGF108991999999999999999999
0035228020999991917012813004+61700+030683FM-12+001699999V0202901N002619999999N0000001N9-00671+99999100881ADDGF108991999999999999999999MW1701
0029228020999991917012820004+61700+030683FM-12+001699999V0203601N009319999999N0000001N9-00781+99999100861ADDGF108991999999999999999999
0029228020999991917012906004+61700+030683FM-12+001699999V0203601N012319999999N0000001N9-01221+99999100871ADDGF108991999999999999999999
0029228020999991917012913004+61700+030683FM-12+001699999V0203601N006719999999N0000001N9-01111+99999101391ADDGF106991999999999999999999
0029228020999991917012920004+61700+030683FM-12+001699999V0203601N002619999999N0000001N9-02221+99999101601ADDGF100991999999999999999999
0029228020999991917013006004+61700+030683FM-12+001699999V0203201N002619999999N0000001N9-02721+99999101701ADDGF100991999999999999999999
0029228020999991917013013004+61700+030683FM-12+001699999V0203601N001019999999N0000001N9-02171+99999101631ADDGF100991999999999999999999
0029228020999991917013020004+61700+030683FM-12+001699999V0202301N002619999999N0000001N9-01781+99999101221ADDGF108991999999999999999999
0029228020999991917013106004+61700+030683FM-12+001699999V0202501N002619999999N0000001N9-01671+99999100871ADDGF108991999999999999999999
0029228020999991917013113004+61700+030683FM-12+001699999V0201801N009319999999N0000001N9-01281+99999100521ADDGF108991999999999999999999
0035228020999991917013120004+61700+030683FM-12+001699999V0201801N002619999999N0000001N9-01391+99999100241ADDGF108991999999999999999999MW1721
0029228020999991917020106004+61700+030683FM-12+001699999V0203201N009319999999N0000001N9-01001+99999099631ADDGF108991999999999999999999
0029228020999991917020113004+61700+030683FM-12+001699999V0203601N002619999999N0000001N9-01891+99999100521ADDGF105991999999999999999999
0029228020999991917020120004+61700+030683FM-12+001699999V0203601N002619999999N0000001N9-02111+99999101041ADDGF100991999999999999999999
0029228020999991917020206004+61700+030683FM-12+001699999V0203201N002619999999N0000001N9-02831+99999101511ADDGF100991999999999999999999
0029228020999991917020213004+61700+030683FM-12+001699999V0203201N004619999999N0000001N9-02221+99999101601ADDGF100991999999999999999999
0029228020999991917020220004+61700+030683FM-12+001699999V0209991C000019999999N0000001N9-02781+99999102111ADDGF100991999999999999999999
0029228020999991917020306004+61700+030683FM-12+001699999V0203201N001019999999N0000001N9-03001+99999102501ADDGF100991999999999999999999
0029228020999991917020313004+61700+030683FM-12+001699999V0202301N001019999999N0000001N9-02501+99999102761ADDGF105991999999999999999999
0029228020999991917020320004+61700+030683FM-12+001699999V0200901N001019999999N0000001N9-03171+99999102861ADDGF100991999999999999999999
0029228020999991917020406004+61700+030683FM-12+001699999V0200501N001019999999N0000001N9-02891+99999102821ADDGF100991999999999999999999
0029228020999991917020413004+61700+030683FM-12+001699999V0201601N001019999999N0000001N9-01441+99999103021ADDGF108991999999999999999999
0029228020999991917020420004+61700+030683FM-12+001699999V0201801N004619999999N0000001N9-01891+99999103121ADDGF101991999999999999999999
0029228020999991917020506004+61700+030683FM-12+001699999V0201401N009319999999N0000001N9-02171+99999102911ADDGF108991999999999999999999
0029228020999991917020513004+61700+030683FM-12+001699999V0201401N009319999999N0000001N9-01831+99999102511ADDGF108991999999999999999999
0029228020999991917020520004+61700+030683FM-12+001699999V0201401N009319999999N0000001N9-01721+99999102231ADDGF108991999999999999999999
0035228020999991917020606004+61700+030683FM-12+001699999V0201101N004619999999N0000001N9-01941+99999101401ADDGF108991999999999999999999MW1721
0035228020999991917020613004+61700+030683FM-12+001699999V0200501N004619999999N0000001N9-01781+99999101191ADDGF108991999999999999999999MW1721
0035228020999991917020620004+61700+030683FM-12+001699999V0203601N002619999999N0000001N9-01831+99999101151ADDGF108991999999999999999999MW1721
0029228020999991917020706004+61700+030683FM-12+001699999V0203401N006719999999N0000001N9-01941+99999101391ADDGF108991999999999999999999
0029228020999991917020713004+61700+030683FM-12+001699999V0203201N006719999999N0000001N9-01781+99999101861ADDGF108991999999999999999999
0029228020999991917020720004+61700+030683FM-12+001699999V0203401N002619999999N0000001N9-02441+99999102161ADDGF100991999999999999999999
0029228020999991917020806004+61700+030683FM-12+001699999V0203201N002619999999N0000001N9-02721+99999102341ADDGF104991999999999999999999
0029228020999991917020813004+61700+030683FM-12+001699999V0203201N004619999999N0000001N9-02001+99999102071ADDGF105991999999999999999999
0029228020999991917020820004+61700+030683FM-12+001699999V0201801N009319999999N0000001N9-01331+99999101471ADDGF108991999999999999999999
0029228020999991917020906004+61700+030683FM-12+001699999V0202501N002619999999N0000001N9-00391+99999099551ADDGF108991999999999999999999
0029228020999991917020913004+61700+030683FM-12+001699999V0202301N009319999999N0000001N9+00281+99999098721ADDGF103991999999999999999999
0029228020999991917020920004+61700+030683FM-12+001699999V0202901N012319999999N0000001N9-00061+99999098601ADDGF108991999999999999999999
0029228020999991917021006004+61700+030683FM-12+001699999V0203201N006719999999N0000001N9-00441+99999098181ADDGF108991999999999999999999
0029228020999991917021013004+61700+030683FM-12+001699999V0203201N004619999999N0000001N9-00221+99999097721ADDGF108991999999999999999999
0029228020999991917021020004+61700+030683FM-12+001699999V0203601N015419999999N0000001N9-00611+99999097921ADDGF108991999999999999999999
0029228020999991917021106004+61700+030683FM-12+001699999V0203201N006719999999N0000001N9-01111+99999098831ADDGF108991999999999999999999
0035228020999991917021113004+61700+030683FM-12+001699999V0203601N015419999999N0000001N9-00721+99999099311ADDGF108991999999999999999999MW1381
0029228020999991917021120004+61700+030683FM-12+001699999V0203601N004619999999N0000001N9-01111+99999100161ADDGF108991999999999999999999
0029228020999991917021206004+61700+030683FM-12+001699999V0203201N001019999999N0000001N9-01781+99999100351ADDGF108991999999999999999999
0029228020999991917021213004+61700+030683FM-12+001699999V0203601N002619999999N0000001N9-01111+99999099751ADDGF108991999999999999999999
0035228020999991917021220004+61700+030683FM-12+001699999V0202301N006719999999N0000001N9-00611+99999099271ADDGF108991999999999999999999MW1721
0029228020999991917021306004+61700+030683FM-12+001699999V0203201N012319999999N0000001N9-01501+99999099961ADDGF102991999999999999999999
0029228020999991917021313004+61700+030683FM-12+001699999V0203201N012319999999N0000001N9-01111+99999999999ADDGF103991999999999999999999
0035228020999991917021320004+61700+030683FM-12+001699999V0202701N015419999999N0000001N9-00671+99999098521ADDGF108991999999999999999999MW1721
0029228020999991917021406004+61700+030683FM-12+001699999V0202901N009319999999N0000001N9-00331+99999097241ADDGF108991999999999999999999
0035228020999991917021413004+61700+030683FM-12+001699999V0202501N004619999999N0000001N9-00171+99999097751ADDGF108991999999999999999999MW1721
0029228020999991917021420004+61700+030683FM-12+001699999V0203601N015419999999N0000001N9-01221+99999098821ADDGF108991999999999999999999
0029228020999991917021506004+61700+030683FM-12+001699999V0203201N006719999999N0000001N9-01721+99999100221ADDGF108991999999999999999999
0029228020999991917021513004+61700+030683FM-12+001699999V0203201N006719999999N0000001N9-01221+99999100381ADDGF104991999999999999999999
0029228020999991917021520004+61700+030683FM-12+001699999V0203201N001019999999N0000001N9-01721+99999100081ADDGF108991999999999999999999
0029228020999991917021606004+61700+030683FM-12+001699999V0201401N002619999999N0000001N9-01391+99999099751ADDGF108991999999999999999999
0035228020999991917021613004+61700+030683FM-12+001699999V0201601N002619999999N0000001N9-01281+99999099821ADDGF108991999999999999999999MW1721
0029228020999991917021620004+61700+030683FM-12+001699999V0203601N009319999999N0000001N9-01331+99999100111ADDGF108991999999999999999999
0029228020999991917021706004+61700+030683FM-12+001699999V0203201N004619999999N0000001N9-02221+99999100681ADDGF108991999999999999999999
0029228020999991917021713004+61700+030683FM-12+001699999V0203601N004619999999N0000001N9-01611+99999100861ADDGF108991999999999999999999
0029228020999991917021720004+61700+030683FM-12+001699999V0203201N001019999999N0000001N9-02281+99999101141ADDGF100991999999999999999999
0029228020999991917021806004+61700+030683FM-12+001699999V0202901N002619999999N0000001N9-02441+99999101861ADDGF108991999999999999999999
0029228020999991917021813004+61700+030683FM-12+001699999V0203201N004619999999N0000001N9-01671+99999102361ADDGF100991999999999999999999
0029228020999991917021820004+61700+030683FM-12+001699999V0203201N001019999999N0000001N9-02221+99999102311ADDGF104991999999999999999999
0029228020999991917021906004+61700+030683FM-12+001699999V0203201N001019999999N0000001N9-02891+99999102261ADDGF100991999999999999999999
0029228020999991917021913004+61700+030683FM-12+001699999V0209991C000019999999N0000001N9-01891+99999102201ADDGF100991999999999999999999
0029228020999991917021920004+61700+030683FM-12+001699999V0202901N001019999999N0000001N9-03001+99999102101ADDGF103991999999999999999999
0029228020999991917022006004+61700+030683FM-12+001699999V0203201N001019999999N0000001N9-03281+99999102231ADDGF108991999999999999999999
0029228020999991917022013004+61700+030683FM-12+001699999V0202301N001019999999N0000001N9-01721+99999102221ADDGF108991999999999999999999
0029228020999991917022020004+61700+030683FM-12+001699999V0202301N001019999999N0000001N9-02721+99999101961ADDGF108991999999999999999999
0029228020999991917022106004+61700+030683FM-12+001699999V0202301N004619999999N0000001N9-01941+99999101021ADDGF108991999999999999999999
0035228020999991917022113004+61700+030683FM-12+001699999V0202701N004619999999N0000001N9-01331+99999100231ADDGF108991999999999999999999MW1721
0029228020999991917022120004+61700+030683FM-12+001699999V0202701N009319999999N0000001N9-01391+99999100261ADDGF100991999999999999999999
0029228020999991917022206004+61700+030683FM-12+001699999V0203201N006719999999N0000001N9-01891+99999100601ADDGF100991999999999999999999
0029228020999991917022213004+61700+030683FM-12+001699999V0203601N006719999999N0000001N9-01501+99999101151ADDGF106991999999999999999999
0029228020999991917022220004+61700+030683FM-12+001699999V0203601N002619999999N0000001N9-02001+99999101711ADDGF100991999999999999999999
0029228020999991917022306004+61700+030683FM-12+001699999V0203401N002619999999N0000001N9-02561+99999102201ADDGF108991999999999999999999
0029228020999991917022313004+61700+030683FM-12+001699999V0203201N004619999999N0000001N9-01331+99999102341ADDGF105991999999999999999999
0029228020999991917022320004+61700+030683FM-12+001699999V0203601N001019999999N0000001N9-02331+99999102231ADDGF100991999999999999999999
0029228020999991917022406004+61700+030683FM-12+001699999V0202301N006719999999N0000001N9-01331+99999101201ADDGF108991999999999999999999
0035228020999991917022413004+61700+030683FM-12+001699999V0202301N004619999999N0000001N9-01111+99999100471ADDGF108991999999999999999999MW1721
0029228020999991917022420004+61700+030683FM-12+001699999V0202301N004619999999N0000001N9-01171+99999099831ADDGF108991999999999999999999
0035228020999991917022506004+61700+030683FM-12+001699999V0201401N006719999999N0000001N9-00611+99999098791ADDGF108991999999999999999999MW1721
0029228020999991917022513004+61700+030683FM-12+001699999V0200501N004619999999N0000001N9-00441+99999099721ADDGF108991999999999999999999
0029228020999991917022520004+61700+030683FM-12+001699999V0203601N004619999999N0000001N9-00331+99999100541ADDGF108991999999999999999999
0029228020999991917022606004+61700+030683FM-12+001699999V0202701N002619999999N0000001N9-00561+99999100871ADDGF108991999999999999999999
0029228020999991917022613004+61700+030683FM-12+001699999V0209991C000019999999N0000001N9-00561+99999101071ADDGF108991999999999999999999
0029228020999991917022620004+61700+030683FM-12+001699999V0201401N001019999999N0000001N9-00721+99999100861ADDGF108991999999999999999999
0029228020999991917022706004+61700+030683FM-12+001699999V0200901N002619999999N0000001N9-00561+99999100861ADDGF108991999999999999999999
0029228020999991917022713004+61700+030683FM-12+001699999V0201401N006719999999N0000001N9-00611+99999101271ADDGF108991999999999999999999
0029228020999991917022720004+61700+030683FM-12+001699999V0200901N001019999999N0000001N9-00561+99999101541ADDGF108991999999999999999999
0035228020999991917022806004+61700+030683FM-12+001699999V0200901N002619999999N0000001N9-00781+99999101841ADDGF108991999999999999999999MW1701
0035228020999991917022813004+61700+030683FM-12+001699999V0201801N002619999999N0000001N9-00891+99999102031ADDGF108991999999999999999999MW1701
0029228020999991917022820004+61700+030683FM-12+001699999V0201801N006719999999N0000001N9-01001+99999101921ADDGF108991999999999999999999
0035228020999991917030106004+61700+030683FM-12+001699999V0200701N004619999999N0000001N9-01441+99999101941ADDGF108991999999999999999999MW1721
0029228020999991917030113004+61700+030683FM-12+001699999V0201801N006719999999N0000001N9-01391+99999102361ADDGF108991999999999999999999
0035228020999991917030120004+61700+030683FM-12+001699999V0201401N009319999999N0000001N9-01221+99999102641ADDGF108991999999999999999999MW1721
0029228020999991917030206004+61700+030683FM-12+001699999V0200901N001019999999N0000001N9-02061+99999103191ADDGF108991999999999999999999
0029228020999991917030213004+61700+030683FM-12+001699999V0200901N001019999999N0000001N9-01221+99999103401ADDGF104991999999999999999999
0029228020999991917030220004+61700+030683FM-12+001699999V0200901N001019999999N0000001N9-02061+99999103421ADDGF102991999999999999999999
0029228020999991917030306004+61700+030683FM-12+001699999V0200501N001019999999N0000001N9-02501+99999103541ADDGF108991999999999999999999
0029228020999991917030313004+61700+030683FM-12+001699999V0203601N001019999999N0000001N9-00941+99999103351ADDGF104991999999999999999999
0029228020999991917030320004+61700+030683FM-12+001699999V0209991C000019999999N0000001N9-01561+99999103271ADDGF106991999999999999999999
0029228020999991917030406004+61700+030683FM-12+001699999V0203601N002619999999N0000001N9-02281+99999103101ADDGF108991999999999999999999
0029228020999991917030413004+61700+030683FM-12+001699999V0209991C000019999999N0000001N9-00891+99999103021ADDGF100991999999999999999999
0029228020999991917030420004+61700+030683FM-12+001699999V0203601N001019999999N0000001N9-00941+99999102871ADDGF108991999999999999999999
0029228020999991917030506004+61700+030683FM-12+001699999V0203601N001019999999N0000001N9-00831+99999102911ADDGF108991999999999999999999
0029228020999991917030513004+61700+030683FM-12+001699999V0203601N006719999999N0000001N9-00501+99999102961ADDGF107991999999999999999999
0029228020999991917030520004+61700+030683FM-12+001699999V0200501N001019999999N0000001N9-01221+99999103001ADDGF100991999999999999999999
0029228020999991917030606004+61700+030683FM-12+001699999V0200501N002619999999N0000001N9-01611+99999103031ADDGF108991999999999999999999
0029228020999991917030613004+61700+030683FM-12+001699999V0203601N004619999999N0000001N9-00781+99999102721ADDGF106991999999999999999999
0029228020999991917030620004+61700+030683FM-12+001699999V0200501N001019999999N0000001N9-01221+99999102741ADDGF100991999999999999999999
0029228020999991917030706004+61700+030683FM-12+001699999V0200201N004619999999N0000001N9-02061+99999102401ADDGF108991999999999999999999
0029228020999991917030713004+61700+030683FM-12+001699999V0200501N002619999999N0000001N9-00671+99999102301ADDGF108991999999999999999999
0029228020999991917030720004+61700+030683FM-12+001699999V0200701N004619999999N0000001N9-00831+99999102441ADDGF108991999999999999999999
0035228020999991917030806004+61700+030683FM-12+001699999V0200201N009319999999N0000001N9-00721+99999102791ADDGF108991999999999999999999MW1701
0035228020999991917030813004+61700+030683FM-12+001699999V0200901N006719999999N0000001N9-00391+99999102781ADDGF108991999999999999999999MW1701
0029228020999991917030820004+61700+030683FM-12+001699999V0200901N009319999999N0000001N9-00611+99999102861ADDGF108991999999999999999999
0029228020999991917030906004+61700+030683FM-12+001699999V0200701N002619999999N0000001N9-00781+99999102701ADDGF108991999999999999999999
0029228020999991917030913004+61700+030683FM-12+001699999V0209991C000019999999N0000001N9-00391+99999102191ADDGF102991999999999999999999
0029228020999991917030920004+61700+030683FM-12+001699999V0203601N002619999999N0000001N9-00891+99999102271ADDGF100991999999999999999999
0029228020999991917031006004+61700+030683FM-12+001699999V0200701N002619999999N0000001N9-01331+99999101661ADDGF108991999999999999999999
0029228020999991917031013004+61700+030683FM-12+001699999V0200201N006719999999N0000001N9-00671+99999101221ADDGF108991999999999999999999
0029228020999991917031020004+61700+030683FM-12+001699999V0203601N006719999999N0000001N9-00891+99999101101ADDGF108991999999999999999999
0029228020999991917031106004+61700+030683FM-12+001699999V0203601N006719999999N0000001N9-01391+99999100981ADDGF108991999999999999999999
0029228020999991917031113004+61700+030683FM-12+001699999V0203401N001019999999N0000001N9-00611+99999100941ADDGF108991999999999999999999
0029228020999991917031120004+61700+030683FM-12+001699999V0203201N002619999999N0000001N9-01391+99999100981ADDGF108991999999999999999999
0029228020999991917031206004+61700+030683FM-12+001699999V0203201N002619999999N0000001N9-01941+99999101151ADDGF108991999999999999999999
0029228020999991917031213004+61700+030683FM-12+001699999V0203601N002619999999N0000001N9-00781+99999101241ADDGF107991999999999999999999
0029228020999991917031220004+61700+030683FM-12+001699999V0200501N004619999999N0000001N9-00941+99999101661ADDGF108991999999999999999999
0029228020999991917031306004+61700+030683FM-12+001699999V0203601N006719999999N0000001N9-02171+99999102101ADDGF107991999999999999999999
0029228020999991917031313004+61700+030683FM-12+001699999V0201801N001019999999N0000001N9-01001+99999102001ADDGF108991999999999999999999
0029228020999991917031320004+61700+030683FM-12+001699999V0203601N004619999999N0000001N9-01781+99999101981ADDGF100991999999999999999999
0029228020999991917031406004+61700+030683FM-12+001699999V0209991C000019999999N0000001N9-02501+99999101151ADDGF108991999999999999999999
0029228020999991917031413004+61700+030683FM-12+001699999V0201401N002619999999N0000001N9-01391+99999100111ADDGF108991999999999999999999
0035228020999991917031420004+61700+030683FM-12+001699999V0201101N001019999999N0000001N9-01111+99999099501ADDGF108991999999999999999999MW1721
0029228020999991917031506004+61700+030683FM-12+001699999V0203401N004619999999N0000001N9-01331+99999099181ADDGF108991999999999999999999
0035228020999991917031513004+61700+030683FM-12+001699999V0203201N006719999999N0000001N9-01001+99999099741ADDGF108991999999999999999999MW1721
0029228020999991917031520004+61700+030683FM-12+001699999V0200501N006719999999N0000001N9-01281+99999100351ADDGF108991999999999999999999
0029228020999991917031606004+61700+030683FM-12+001699999V0203201N004619999999N0000001N9-01781+99999101391ADDGF103991999999999999999999
0029228020999991917031613004+61700+030683FM-12+001699999V0203201N006719999999N0000001N9-01001+99999101681ADDGF100991999999999999999999
0029228020999991917031620004+61700+030683FM-12+001699999V0209991C000019999999N0000001N9-01721+99999101821ADDGF100991999999999999999999
0029228020999991917031706004+61700+030683FM-12+001699999V0209991C000019999999N0000001N9-01941+99999101041ADDGF108991999999999999999999
0029228020999991917031713004+61700+030683FM-12+001699999V0203201N002619999999N0000001N9-00831+99999101001ADDGF102991999999999999999999
0029228020999991917031720004+61700+030683FM-12+001699999V0203201N004619999999N0000001N9-01561+99999101311ADDGF108991999999999999999999
0029228020999991917031806004+61700+030683FM-12+001699999V0203201N002619999999N0000001N9-02331+99999101431ADDGF108991999999999999999999
0029228020999991917031813004+61700+030683FM-12+001699999V0203201N002619999999N0000001N9-00891+99999101061ADDGF108991999999999999999999
0029228020999991917031820004+61700+030683FM-12+001699999V0203201N002619999999N0000001N9-01781+99999100781ADDGF100991999999999999999999
0029228020999991917031906004+61700+030683FM-12+001699999V0203601N001019999999N0000001N9-02941+99999100461ADDGF108991999999999999999999
0029228020999991917031913004+61700+030683FM-12+001699999V0203201N001019999999N0000001N9-01001+99999100261ADDGF100991999999999999999999
0029228020999991917031920004+61700+030683FM-12+001699999V0203201N001019999999N0000001N9-02061+99999100191ADDGF100991999999999999999999
0029228020999991917032006004+61700+030683FM-12+001699999V0200901N001019999999N0000001N9-02221+99999100201ADDGF106991999999999999999999
0029228020999991917032013004+61700+030683FM-12+001699999V0203601N002619999999N0000001N9-01001+99999100261ADDGF105991999999999999999999
0029228020999991917032020004+61700+030683FM-12+001699999V0203601N001019999999N0000001N9-01721+99999100461ADDGF100991999999999999999999
0029228020999991917032106004+61700+030683FM-12+001699999V0203201N001019999999N0000001N9-02781+99999100781ADDGF100991999999999999999999
0029228020999991917032113004+61700+030683FM-12+001699999V0203601N001019999999N0000001N9-01001+99999101101ADDGF100991999999999999999999
0029228020999991917032120004+61700+030683FM-12+001699999V0201101N001019999999N0000001N9-02171+99999101351ADDGF100991999999999999999999
0029228020999991917032206004+61700+030683FM-12+001699999V0200901N002619999999N0000001N9-02171+99999101681ADDGF108991999999999999999999
0029228020999991917032213004+61700+030683FM-12+001699999V0201801N001019999999N0000001N9-01001+99999101741ADDGF100991999999999999999999
0029228020999991917032220004+61700+030683FM-12+001699999V0209991C000019999999N0000001N9-01671+99999101701ADDGF102991999999999999999999
0029228020999991917032306004+61700+030683FM-12+001699999V0202701N001019999999N0000001N9-02331+99999101841ADDGF100991999999999999999999
0029228020999991917032313004+61700+030683FM-12+001699999V0201801N006719999999N0000001N9-00611+99999101801ADDGF104991999999999999999999
0029228020999991917032320004+61700+030683FM-12+001699999V0201801N002619999999N0000001N9-00941+99999101511ADDGF108991999999999999999999
0035228020999991917032406004+61700+030683FM-12+001699999V0202701N002619999999N0000001N9-00831+99999100841ADDGF108991999999999999999999MW1721
0029228020999991917032413004+61700+030683FM-12+001699999V0203201N004619999999N0000001N9-00171+99999101111ADDGF108991999999999999999999
0029228020999991917032420004+61700+030683FM-12+001699999V0203201N001019999999N0000001N9-00281+99999101111ADDGF100991999999999999999999
0029228020999991917032506004+61700+030683FM-12+001699999V0201801N002619999999N0000001N9-00281+99999100501ADDGF108991999999999999999999
0035228020999991917032513004+61700+030683FM-12+001699999V0202301N002619999999N0000001N9+00061+99999099871ADDGF108991999999999999999999MW1721
0035228020999991917032520004+61700+030683FM-12+001699999V0202001N002619999999N0000001N9-00061+99999099311ADDGF108991999999999999999999MW1721
0029228020999991917032606004+61700+030683FM-12+001699999V0201801N002619999999N0000001N9-00171+99999099241ADDGF108991999999999999999999
0029228020999991917032613004+61700+030683FM-12+001699999V0201801N004619999999N0000001N9-00061+99999099141ADDGF108991999999999999999999
0035228020999991917032620004+61700+030683FM-12+001699999V0201801N002619999999N0000001N9+00001+99999099031ADDGF108991999999999999999999MW1721
0029228020999991917032706004+61700+030683FM-12+001699999V0202901N002619999999N0000001N9+00111+99999098981ADDGF108991999999999999999999
0029228020999991917032713004+61700+030683FM-12+001699999V0203601N006719999999N0000001N9-00331+99999099751ADDGF108991999999999999999999
0029228020999991917032720004+61700+030683FM-12+001699999V0203601N001019999999N0000001N9-00781+99999100321ADDGF107991999999999999999999
0029228020999991917032806004+61700+030683FM-12+001699999V0203601N001019999999N0000001N9-01501+99999100821ADDGF100991999999999999999999
0029228020999991917032813004+61700+030683FM-12+001699999V0201801N002619999999N0000001N9-00611+99999100681ADDGF100991999999999999999999
0029228020999991917032820004+61700+030683FM-12+001699999V0209991C000019999999N0000001N9-01171+99999100621ADDGF102991999999999999999999
0029228020999991917032906004+61700+030683FM-12+001699999V0209991C000019999999N0000001N9-02001+99999100681ADDGF100991999999999999999999
0029228020999991917032913004+61700+030683FM-12+001699999V0209991C000019999999N0000001N9-00611+99999100721ADDGF100991999999999999999999
0029228020999991917032920004+61700+030683FM-12+001699999V0209991C000019999999N0000001N9-01391+99999100751ADDGF100991999999999999999999
0029228020999991917033006004+61700+030683FM-12+001699999V0203201N001019999999N0000001N9-02061+99999100781ADDGF100991999999999999999999
0029228020999991917033013004+61700+030683FM-12+001699999V0201401N002619999999N0000001N9-00501+99999100671ADDGF100991999999999999999999
0029228020999991917033020004+61700+030683FM-12+001699999V0201801N002619999999N0000001N9-01061+99999100551ADDGF100991999999999999999999
0035228020999991917033106004+61700+030683FM-12+001699999V0201101N004619999999N0000001N9-00441+99999099711ADDGF108991999999999999999999MW1721
0035228020999991917033113004+61700+030683FM-12+001699999V0201401N004619999999N0000001N9-00111+99999099471ADDGF108991999999999999999999MW1721
0029228020999991917033120004+61700+030683FM-12+001699999V0209991C000019999999N0000001N9-00221+99999099481ADDGF108991999999999999999999
0029228020999991917040106004+61700+030683FM-12+001699999V0202001N001019999999N0000001N9-00111+99999099761ADDGF108991999999999999999999
0029228020999991917040113004+61700+030683FM-12+001699999V0202301N012319999999N0000001N9+00391+99999099871ADDGF106991999999999999999999
0029228020999991917040120004+61700+030683FM-12+001699999V0202301N002619999999N0000001N9+00111+99999100111ADDGF100991999999999999999999
0029228020999991917040206004+61700+030683FM-12+001699999V0201601N001019999999N0000001N9-00561+99999100041ADDGF108991999999999999999999
0029228020999991917040213004+61700+030683FM-12+001699999V0201601N001019999999N0000001N9+00171+99999100241ADDGF108991999999999999999999
0029228020999991917040220004+61700+030683FM-12+001699999V0201601N004619999999N0000001N9-00331+99999100631ADDGF105991999999999999999999
0029228020999991917040306004+61700+030683FM-12+001699999V0201601N001019999999N0000001N9-00281+99999100831ADDGF108991999999999999999999
0029228020999991917040313004+61700+030683FM-12+001699999V0200701N002619999999N0000001N9+00281+99999100581ADDGF108991999999999999999999
0029228020999991917040320004+61700+030683FM-12+001699999V0200201N004619999999N0000001N9+00111+99999100391ADDGF106991999999999999999999
0029228020999991917040406004+61700+030683FM-12+001699999V0203601N002619999999N0000001N9-00561+99999100721ADDGF108991999999999999999999
0029228020999991917040413004+61700+030683FM-12+001699999V0203601N002619999999N0000001N9+00281+99999101561ADDGF100991999999999999999999
0029228020999991917040420004+61700+030683FM-12+001699999V0203201N001019999999N0000001N9-00391+99999101641ADDGF108991999999999999999999
0035228020999991917040506004+61700+030683FM-12+001699999V0201101N006719999999N0000001N9-00501+99999100881ADDGF108991999999999999999999MW1721
0029228020999991917040513004+61700+030683FM-12+001699999V0201801N004619999999N0000001N9+00221+99999100481ADDGF108991999999999999999999
0035228020999991917040520004+61700+030683FM-12+001699999V0201401N002619999999N0000001N9+00001+99999100601ADDGF108991999999999999999999MW1721
0035228020999991917040606004+61700+030683FM-12+001699999V0202301N006719999999N0000001N9+00001+99999100621ADDGF108991999999999999999999MW1701
0029228020999991917040613004+61700+030683FM-12+001699999V0203201N002619999999N0000001N9+00391+99999101321ADDGF105991999999999999999999
0029228020999991917040620004+61700+030683FM-12+001699999V0203201N001019999999N0000001N9-00061+99999101461ADDGF108991999999999999999999
0029228020999991917040706004+61700+030683FM-12+001699999V0201401N006719999999N0000001N9-00281+99999101161ADDGF108991999999999999999999
0029228020999991917040713004+61700+030683FM-12+001699999V0201401N009319999999N0000001N9+00061+99999100781ADDGF108991999999999999999999
0029228020999991917040720004+61700+030683FM-12+001699999V0209991C000019999999N0000001N9+00061+99999100471ADDGF108991999999999999999999
0029228020999991917040806004+61700+030683FM-12+001699999V0203601N002619999999N0000001N9+00111+99999100551ADDGF107991999999999999999999
0029228020999991917040813004+61700+030683FM-12+001699999V0203601N004619999999N0000001N9+00501+99999100701ADDGF100991999999999999999999
0029228020999991917040820004+61700+030683FM-12+001699999V0200901N002619999999N0000001N9+00221+99999100741ADDGF100991999999999999999999
0029228020999991917040906004+61700+030683FM-12+001699999V0203601N006719999999N0000001N9+00001+99999100391ADDGF108991999999999999999999
0029228020999991917040913004+61700+030683FM-12+001699999V0200501N002619999999N0000001N9+00171+99999100231ADDGF108991999999999999999999
0035228020999991917040920004+61700+030683FM-12+001699999V0203601N002619999999N0000001N9-00111+99999100241ADDGF108991999999999999999999MW1721
0035228020999991917041006004+61700+030683FM-12+001699999V0203201N006719999999N0000001N9-00111+99999100381ADDGF108991999999999999999999MW1701
0029228020999991917041013004+61700+030683FM-12+001699999V0203601N001019999999N0000001N9+00281+99999100701ADDGF108991999999999999999999
0029228020999991917041020004+61700+030683FM-12+001699999V0201401N001019999999N0000001N9+00001+99999100791ADDGF108991999999999999999999
0035228020999991917041106004+61700+030683FM-12+001699999V0209991C000019999999N0000001N9+00061+99999100301ADDGF108991999999999999999999MW1721
0029228020999991917041113004+61700+030683FM-12+001699999V0202301N002619999999N0000001N9+00331+99999100121ADDGF108991999999999999999999
0029228020999991917041120004+61700+030683FM-12+001699999V0202001N001019999999N0000001N9+00061+99999100241ADDGF100991999999999999999999
0035228020999991917041206004+61700+030683FM-12+001699999V0201401N001019999999N0000001N9-00221+99999100191ADDGF108991999999999999999999MW1721
0029228020999991917041213004+61700+030683FM-12+001699999V0201801N012319999999N0000001N9+00221+99999100391ADDGF108991999999999999999999
0029228020999991917041220004+61700+030683FM-12+001699999V0201801N006719999999N0000001N9+00061+99999100781ADDGF100991999999999999999999
0029228020999991917041306004+61700+030683FM-12+001699999V0202301N006719999999N0000001N9+00061+99999099881ADDGF108991999999999999999999
0029228020999991917041313004+61700+030683FM-12+001699999V0202301N009319999999N0000001N9+00441+99999100321ADDGF107991999999999999999999
0029228020999991917041320004+61700+030683FM-12+001699999V0201801N001019999999N0000001N9+00111+99999100501ADDGF108991999999999999999999
0029228020999991917041406004+61700+030683FM-12+001699999V0201401N006719999999N0000001N9+00171+99999099561ADDGF108991999999999999999999
0029228020999991917041413004+61700+030683FM-12+001699999V0202701N012319999999N0000001N9+00441+99999100271ADDGF108991999999999999999999
0029228020999991917041420004+61700+030683FM-12+001699999V0201801N002619999999N0000001N9+00171+99999100911ADDGF108991999999999999999999
0029228020999991917041506004+61700+030683FM-12+001699999V0202501N001019999999N0000001N9-00061+99999101281ADDGF105991999999999999999999
0029228020999991917041513004+61700+030683FM-12+001699999V0201601N002619999999N0000001N9+00561+99999101431ADDGF106991999999999999999999
0029228020999991917041520004+61700+030683FM-12+001699999V0203601N002619999999N0000001N9-00061+99999101591ADDGF100991999999999999999999
0029228020999991917041606004+61700+030683FM-12+001699999V0201401N001019999999N0000001N9+00061+99999101381ADDGF107991999999999999999999
0029228020999991917041613004+61700+030683FM-12+001699999V0209991C000019999999N0000001N9+00891+99999100821ADDGF100991999999999999999999
0029228020999991917041620004+61700+030683FM-12+001699999V0201401N001019999999N0000001N9+00391+99999100711ADDGF108991999999999999999999
0029228020999991917041706004+61700+030683FM-12+001699999V0200201N006719999999N0000001N9+00281+99999100081ADDGF108991999999999999999999
0029228020999991917041713004+61700+030683FM-12+001699999V0201801N009319999999N0000001N9+01001+99999099681ADDGF102991999999999999999999
0029228020999991917041720004+61700+030683FM-12+001699999V0200901N015419999999N0000001N9+00941+99999099541ADDGF108991999999999999999999
0046228020999991917041806004+61700+030683FM-12+001699999V0201401N012319999999N0000001N9+00781+99999099311ADDAJ100009199999999GF108991999999999999999999
0029228020999991917041813004+61700+030683FM-12+001699999V0209991C000019999999N0000001N9+00391+99999099781ADDGF108991999999999999999999
0029228020999991917041820004+61700+030683FM-12+001699999V0209991C000019999999N0000001N9+00281+99999100031ADDGF108991999999999999999999
0046228020999991917041906004+61700+030683FM-12+001699999V0202301N001019999999N0000001N9+00221+99999100521ADDAJ100009199999999GF108991999999999999999999
0029228020999991917041913004+61700+030683FM-12+001699999V0202301N004619999999N0000001N9+00391+99999100591ADDGF108991999999999999999999
0029228020999991917041920004+61700+030683FM-12+001699999V0203201N001019999999N0000001N9+00281+99999100661ADDGF108991999999999999999999
0046228020999991917042006004+61700+030683FM-12+001699999V0202301N004619999999N0000001N9+00061+99999101241ADDAJ100009199999999GF108991999999999999999999
0029228020999991917042013004+61700+030683FM-12+001699999V0202301N001019999999N0000001N9+00501+99999101681ADDGF106991999999999999999999
0029228020999991917042020004+61700+030683FM-12+001699999V0209991C000019999999N0000001N9+00111+99999101961ADDGF100991999999999999999999
0046228020999991917042106004+61700+030683FM-12+001699999V0209991C000019999999N0000001N9+00221+99999102221ADDAJ100009199999999GF106991999999999999999999
0029228020999991917042113004+61700+030683FM-12+001699999V0200901N002619999999N0000001N9+01061+99999101941ADDGF104991999999999999999999
0029228020999991917042120004+61700+030683FM-12+001699999V0209991C000019999999N0000001N9+00501+99999101831ADDGF102991999999999999999999
0046228020999991917042206004+61700+030683FM-12+001699999V0200701N001019999999N0000001N9+00561+99999101471ADDAJ100009199999999GF108991999999999999999999
0029228020999991917042213004+61700+030683FM-12+001699999V0201401N004619999999N0000001N9+01221+99999101441ADDGF106991999999999999999999
0035228020999991917042220004+61700+030683FM-12+001699999V0201101N001019999999N0000001N9+00781+99999101101ADDGF108991999999999999999999MW1621
0052228020999991917042306004+61700+030683FM-12+001699999V0203601N004619999999N0000001N9+00331+99999101501ADDAJ100009199999999GF108991999999999999999999MW1621
0029228020999991917042313004+61700+030683FM-12+001699999V0203601N006719999999N0000001N9+00941+99999101781ADDGF100991999999999999999999
0029228020999991917042320004+61700+030683FM-12+001699999V0203601N001019999999N0000001N9+00281+99999101781ADDGF101991999999999999999999
0046228020999991917042406004+61700+030683FM-12+001699999V0203601N001019999999N0000001N9+00061+99999101461ADDAJ100009199999999GF106991999999999999999999
0029228020999991917042413004+61700+030683FM-12+001699999V0201801N002619999999N0000001N9+00781+99999100781ADDGF108991999999999999999999
0029228020999991917042420004+61700+030683FM-12+001699999V0209991C000019999999N0000001N9+00221+99999100361ADDGF108991999999999999999999
0046228020999991917042506004+61700+030683FM-12+001699999V0203201N001019999999N0000001N9+00281+99999099941ADDAJ100009199999999GF108991999999999999999999
0029228020999991917042513004+61700+030683FM-12+001699999V0203201N004619999999N0000001N9+00781+99999099981ADDGF107991999999999999999999
0029228020999991917042520004+61700+030683FM-12+001699999V0203401N001019999999N0000001N9+00061+99999100121ADDGF108991999999999999999999
0035228020999991917042606004+61700+030683FM-12+001699999V0203601N002619999999N0000001N9-00111+99999100081ADDGF108991999999999999999999MW1721
0029228020999991917042613004+61700+030683FM-12+001699999V0203601N004619999999N0000001N9+00221+99999100201ADDGF108991999999999999999999
0029228020999991917042620004+61700+030683FM-12+001699999V0203601N006719999999N0000001N9-00111+99999100381ADDGF107991999999999999999999
0046228020999991917042706004+61700+030683FM-12+001699999V0203401N001019999999N0000001N9-00111+99999100181ADDAJ100009199999999GF102991999999999999999999
0029228020999991917042713004+61700+030683FM-12+001699999V0201801N002619999999N0000001N9+00111+99999099901ADDGF108991999999999999999999
0029228020999991917042720004+61700+030683FM-12+001699999V0200901N001019999999N0000001N9-00171+99999099801ADDGF108991999999999999999999
0035228020999991917042806004+61700+030683FM-12+001699999V0200501N004619999999N0000001N9-00611+99999099521ADDGF108991999999999999999999MW1721
0035228020999991917042813004+61700+030683FM-12+001699999V0200501N006719999999N0000001N9-00331+99999099751ADDGF108991999999999999999999MW1721
0035228020999991917042820004+61700+030683FM-12+001699999V0203601N002619999999N0000001N9-00331+99999099741ADDGF108991999999999999999999MW1721
0035228020999991917042906004+61700+030683FM-12+001699999V0202901N004619999999N0000001N9-00671+99999099791ADDGF108991999999999999999999MW1721
0029228020999991917042913004+61700+030683FM-12+001699999V0203601N009319999999N0000001N9-00221+99999100021ADDGF108991999999999999999999
0029228020999991917042920004+61700+030683FM-12+001699999V0202901N001019999999N0000001N9-00501+99999100301ADDGF102991999999999999999999
0029228020999991917043006004+61700+030683FM-12+001699999V0209991C000019999999N0000001N9-00781+99999100391ADDGF100991999999999999999999
0029228020999991917043013004+61700+030683FM-12+001699999V0209991C000019999999N0000001N9+00001+99999100511ADDGF100991999999999999999999
0029228020999991917043020004+61700+030683FM-12+001699999V0209991C000019999999N0000001N9-00441+99999100461ADDGF100991999999999999999999
0029228020999991917050106004+61700+030683FM-12+001699999V0202301N002619999999N0000001N9-00171+99999100761ADDGF103991999999999999999999
0029228020999991917050113004+61700+030683FM-12+001699999V0203201N006719999999N0000001N9+00501+99999100831ADDGF106991999999999999999999
0029228020999991917050120004+61700+030683FM-12+001699999V0202301N002619999999N0000001N9+00061+99999100761ADDGF102991999999999999999999
0029228020999991917050206004+61700+030683FM-12+001699999V0202301N006719999999N0000001N9+00001+99999100271ADDGF103991999999999999999999
0029228020999991917050213004+61700+030683FM-12+001699999V0202701N009319999999N0000001N9+00281+99999099991ADDGF108991999999999999999999
0035228020999991917050220004+61700+030683FM-12+001699999V0203201N006719999999N0000001N9-00111+99999099991ADDGF108991999999999999999999MW1721
0035228020999991917050306004+61700+030683FM-12+001699999V0203201N004619999999N0000001N9-00061+99999999999ADDGF108991999999999999999999MW1721
0029228020999991917050313004+61700+030683FM-12+001699999V0202901N012319999999N0000001N9+00331+99999100561ADDGF108991999999999999999999
0029228020999991917050320004+61700+030683FM-12+001699999V0203401N009319999999N0000001N9+00111+99999100751ADDGF106991999999999999999999
0029228020999991917050406004+61700+030683FM-12+001699999V0203401N006719999999N0000001N9+00171+99999100871ADDGF103991999999999999999999
0029228020999991917050413004+61700+030683FM-12+001699999V0203601N002619999999N0000001N9+00721+99999101321ADDGF102991999999999999999999
0029228020999991917050420004+61700+030683FM-12+001699999V0203601N002619999999N0000001N9+00281+99999101671ADDGF108991999999999999999999
0046228020999991917050506004+61700+030683FM-12+001699999V0201401N001019999999N0000001N9+00391+99999101321ADDAJ100009199999999GF108991999999999999999999
0029228020999991917050513004+61700+030683FM-12+001699999V0201401N006719999999N0000001N9+00721+99999100871ADDGF108991999999999999999999
0029228020999991917050520004+61700+030683FM-12+001699999V0201801N009319999999N0000001N9+00721+99999100431ADDGF108991999999999999999999
0046228020999991917050606004+61700+030683FM-12+001699999V0201801N006719999999N0000001N9+00501+99999099941ADDAJ100009199999999GF107991999999999999999999
0035228020999991917050613004+61700+030683FM-12+001699999V0209991C000019999999N0000001N9+00501+99999099981ADDGF108991999999999999999999MW1621
0029228020999991917050620004+61700+030683FM-12+001699999V0203601N004619999999N0000001N9+00221+99999099071ADDGF108991999999999999999999
0046228020999991917050706004+61700+030683FM-12+001699999V0201401N006719999999N0000001N9+00111+99999098271ADDAJ100009199999999GF108991999999999999999999
0035228020999991917050713004+61700+030683FM-12+001699999V0202301N006719999999N0000001N9+00111+99999098511ADDGF108991999999999999999999MW1721
0029228020999991917050720004+61700+030683FM-12+001699999V0202301N012319999999N0000001N9+00001+99999098741ADDGF108991999999999999999999
0035228020999991917050806004+61700+030683FM-12+001699999V0202301N006719999999N0000001N9-00111+99999098841ADDGF108991999999999999999999MW1701
0035228020999991917050813004+61700+030683FM-12+001699999V0202701N004619999999N0000001N9+00111+99999099551ADDGF108991999999999999999999MW1701
0029228020999991917050820004+61700+030683FM-12+001699999V0203201N004619999999N0000001N9+00061+99999099911ADDGF108991999999999999999999
0046228020999991917050906004+61700+030683FM-12+001699999V0203201N004619999999N0000001N9-00111+99999100821ADDAJ100009199999999GF108991999999999999999999
0029228020999991917050913004+61700+030683FM-12+001699999V0203201N009319999999N0000001N9+00221+99999101581ADDGF108991999999999999999999
0029228020999991917050920004+61700+030683FM-12+001699999V0203201N004619999999N0000001N9+00001+99999101911ADDGF108991999999999999999999
0046228020999991917051006004+61700+030683FM-12+001699999V0203201N001019999999N0000001N9+00111+99999102151ADDAJ100009199999999GF100991999999999999999999
0029228020999991917051013004+61700+030683FM-12+001699999V0203201N002619999999N0000001N9+00721+99999102191ADDGF100991999999999999999999
0029228020999991917051020004+61700+030683FM-12+001699999V0203201N001019999999N0000001N9+00111+99999102181ADDGF103991999999999999999999
0046228020999991917051106004+61700+030683FM-12+001699999V0203201N001019999999N0000001N9+00221+99999102241ADDAJ100009199999999GF100991999999999999999999
0029228020999991917051113004+61700+030683FM-12+001699999V0203201N009319999999N0000001N9+00891+99999102201ADDGF107991999999999999999999
0029228020999991917051120004+61700+030683FM-12+001699999V0203201N004619999999N0000001N9+00501+99999102381ADDGF108991999999999999999999
0029228020999991917051213004+61700+030683FM-12+001699999V0203401N009319999999N0000001N9+00721+99999103311ADDGF100991999999999999999999
0029228020999991917051220004+61700+030683FM-12+001699999V0203401N001019999999N0000001N9+00221+99999103441ADDGF100991999999999999999999
0046228020999991917051306004+61700+030683FM-12+001699999V0203401N001019999999N0000001N9+00501+99999103471ADDAJ100009199999999GF100991999999999999999999
0029228020999991917051313004+61700+030683FM-12+001699999V0203601N004619999999N0000001N9+01221+99999103351ADDGF100991999999999999999999
0029228020999991917051320004+61700+030683FM-12+001699999V0202301N002619999999N0000001N9+00721+99999103071ADDGF100991999999999999999999
0046228020999991917051406004+61700+030683FM-12+001699999V0202301N001019999999N0000001N9+00441+99999102861ADDAJ100009199999999GF108991999999999999999999
0029228020999991917051413004+61700+030683FM-12+001699999V0202301N006719999999N0000001N9+01441+99999102151ADDGF108991999999999999999999
0029228020999991917051420004+61700+030683FM-12+001699999V0201801N004619999999N0000001N9+01001+99999101881ADDGF108991999999999999999999
0046228020999991917051506004+61700+030683FM-12+001699999V0201601N002619999999N0000001N9+00721+99999101201ADDAJ100009199999999GF108991999999999999999999
0029228020999991917051513004+61700+030683FM-12+001699999V0202301N009319999999N0000001N9+00781+99999100911ADDGF108991999999999999999999
0029228020999991917051520004+61700+030683FM-12+001699999V0202301N002619999999N0000001N9+00781+99999100871ADDGF108991999999999999999999
0046228020999991917051606004+61700+030683FM-12+001699999V0201801N001019999999N0000001N9+00561+99999100311ADDAJ100009199999999GF108991999999999999999999
0035228020999991917051613004+61700+030683FM-12+001699999V0201801N006719999999N0000001N9+00611+99999100341ADDGF108991999999999999999999MW1621
0029228020999991917051620004+61700+030683FM-12+001699999V0209991C000019999999N0000001N9+00391+99999100471ADDGF108991999999999999999999
0046228020999991917051706004+61700+030683FM-12+001699999V0203601N012319999999N0000001N9+00391+99999100591ADDAJ100009199999999GF108991999999999999999999
0048228020999991917051713004+61700+030683FM-12+001699999V0203201N009319999999N0000001N9+00671+99999100991ADDGF106991999999999999999999EQDQ01+000702PRSWM1
0029228020999991917051720004+61700+030683FM-12+001699999V0203201N004619999999N0000001N9+00281+99999101231ADDGF100991999999999999999999
0046228020999991917051806004+61700+030683FM-12+001699999V0203201N002619999999N0000001N9+00331+99999101521ADDAJ100009199999999GF105991999999999999999999
0029228020999991917051813004+61700+030683FM-12+001699999V0203201N002619999999N0000001N9+00501+99999101621ADDGF106991999999999999999999
0029228020999991917051820004+61700+030683FM-12+001699999V0209991C000019999999N0000001N9+00111+99999101621ADDGF103991999999999999999999
0046228020999991917051906004+61700+030683FM-12+001699999V0201801N001019999999N0000001N9+00391+99999101311ADDAJ100009199999999GF108991999999999999999999
0029228020999991917051913004+61700+030683FM-12+001699999V0203201N012319999999N0000001N9+00611+99999100911ADDGF106991999999999999999999
0029228020999991917051920004+61700+030683FM-12+001699999V0203201N004619999999N0000001N9+00171+99999100911ADDGF108991999999999999999999
0046228020999991917052006004+61700+030683FM-12+001699999V0203201N012319999999N0000001N9-00061+99999100951ADDAJ100009199999999GF100991999999999999999999
0029228020999991917052013004+61700+030683FM-12+001699999V0203201N015419999999N0000001N9-00111+99999101221ADDGF106991999999999999999999
0029228020999991917052020004+61700+030683FM-12+001699999V0203601N015419999999N0000001N9-00061+99999101761ADDGF108991999999999999999999
0046228020999991917052106004+61700+030683FM-12+001699999V0203601N009319999999N0000001N9-00111+99999102461ADDAJ100009199999999GF107991999999999999999999
0029228020999991917052113004+61700+030683FM-12+001699999V0203601N001019999999N0000001N9+00781+99999102221ADDGF102991999999999999999999
0029228020999991917052120004+61700+030683FM-12+001699999V0209991C000019999999N0000001N9+00281+99999102031ADDGF102991999999999999999999
0046228020999991917052206004+61700+030683FM-12+001699999V0202701N001019999999N0000001N9+00391+99999101421ADDAJ100009199999999GF108991999999999999999999
0029228020999991917052213004+61700+030683FM-12+001699999V0203601N001019999999N0000001N9+01561+99999101311ADDGF100991999999999999999999
0029228020999991917052220004+61700+030683FM-12+001699999V0209991C000019999999N0000001N9+01001+99999101281ADDGF100991999999999999999999
0046228020999991917052306004+61700+030683FM-12+001699999V0209991C000019999999N0000001N9+00611+99999101431ADDAJ100009199999999GF108991999999999999999999
0029228020999991917052313004+61700+030683FM-12+001699999V0201601N001019999999N0000001N9+01001+99999101281ADDGF108991999999999999999999
0029228020999991917052320004+61700+030683FM-12+001699999V0209991C000019999999N0000001N9+00671+99999101221ADDGF108991999999999999999999
0046228020999991917052406004+61700+030683FM-12+001699999V0201401N001019999999N0000001N9+00781+99999100981ADDAJ100009199999999GF108991999999999999999999
0029228020999991917052413004+61700+030683FM-12+001699999V0201401N002619999999N0000001N9+01721+99999101111ADDGF106991999999999999999999
0029228020999991917052420004+61700+030683FM-12+001699999V0203601N001019999999N0000001N9+01111+99999101361ADDGF103991999999999999999999
0046228020999991917052506004+61700+030683FM-12+001699999V0203601N001019999999N0000001N9+00671+99999101911ADDAJ100009199999999GF108991999999999999999999
0029228020999991917052513004+61700+030683FM-12+001699999V0209991C000019999999N0000001N9+01111+99999102151ADDGF100991999999999999999999
0029228020999991917052520004+61700+030683FM-12+001699999V0209991C000019999999N0000001N9+00781+99999102341ADDGF100991999999999999999999
0046228020999991917052606004+61700+030683FM-12+001699999V0209991C000019999999N0000001N9+00671+99999102821ADDAJ100009199999999GF100991999999999999999999
0029228020999991917052613004+61700+030683FM-12+001699999V0201401N004619999999N0000001N9+01441+99999102711ADDGF100991999999999999999999
0029228020999991917052620004+61700+030683FM-12+001699999V0201801N006719999999N0000001N9+00891+99999102641ADDGF100991999999999999999999
0046228020999991917052706004+61700+030683FM-12+001699999V0201801N001019999999N0000001N9+01061+99999102521ADDAJ100009199999999GF100991999999999999999999
0029228020999991917052713004+61700+030683FM-12+001699999V0201801N004619999999N0000001N9+01171+99999102221ADDGF105991999999999999999999
0029228020999991917052720004+61700+030683FM-12+001699999V0201801N004619999999N0000001N9+00831+99999101631ADDGF108991999999999999999999
0046228020999991917052806004+61700+030683FM-12+001699999V0203201N001019999999N0000001N9+01501+99999101581ADDAJ100009199999999GF108991999999999999999999
0029228020999991917052813004+61700+030683FM-12+001699999V0203201N004619999999N0000001N9+01891+99999101421ADDGF108991999999999999999999
0029228020999991917052820004+61700+030683FM-12+001699999V0203201N004619999999N0000001N9+01561+99999101301ADDGF108991999999999999999999
0046228020999991917052906004+61700+030683FM-12+001699999V0209991C000019999999N0000001N9+01221+99999101311ADDAJ100009199999999GF108991999999999999999999
0029228020999991917052913004+61700+030683FM-12+001699999V0203201N009319999999N0000001N9+02281+99999101141ADDGF100991999999999999999999
0029228020999991917052920004+61700+030683FM-12+001699999V0200501N001019999999N0000001N9+01221+99999101121ADDGF108991999999999999999999
0046228020999991917053006004+61700+030683FM-12+001699999V0202301N009319999999N0000001N9+01891+99999100701ADDAJ100009199999999GF100991999999999999999999
0029228020999991917053013004+61700+030683FM-12+001699999V0203201N012319999999N0000001N9+02441+99999100561ADDGF105991999999999999999999
0029228020999991917053020004+61700+030683FM-12+001699999V0201801N006719999999N0000001N9+02001+99999100361ADDGF108991999999999999999999
0046228020999991917053106004+61700+030683FM-12+001699999V0201801N004619999999N0000001N9+01441+99999100041ADDAJ100009199999999GF108991999999999999999999
0029228020999991917053113004+61700+030683FM-12+001699999V0201801N006719999999N0000001N9+02001+99999100281ADDGF107991999999999999999999
0029228020999991917053120004+61700+030683FM-12+001699999V0201801N004619999999N0000001N9+01611+99999100281ADDGF108991999999999999999999
0046228020999991917060106004+61700+030683FM-12+001699999V0203201N009319999999N0000001N9+01001+99999100761ADDAJ100009199999999GF108991999999999999999999
0029228020999991917060113004+61700+030683FM-12+001699999V0203201N012319999999N0000001N9+01441+99999101541ADDGF108991999999999999999999
0029228020999991917060120004+61700+030683FM-12+001699999V0203401N001019999999N0000001N9+01281+99999101981ADDGF108991999999999999999999
0046228020999991917060206004+61700+030683FM-12+001699999V0203201N001019999999N0000001N9+01221+99999102511ADDAJ100009199999999GF100991999999999999999999
0029228020999991917060213004+61700+030683FM-12+001699999V0203201N004619999999N0000001N9+02001+99999102551ADDGF100991999999999999999999
0029228020999991917060220004+61700+030683FM-12+001699999V0209991C000019999999N0000001N9+01561+99999102421ADDGF100991999999999999999999
0046228020999991917060306004+61700+030683FM-12+001699999V0201401N001019999999N0000001N9+01281+99999102351ADDAJ100009199999999GF102991999999999999999999
0029228020999991917060313004+61700+030683FM-12+001699999V0201601N004619999999N0000001N9+01781+99999102221ADDGF107991999999999999999999
0029228020999991917060320004+61700+030683FM-12+001699999V0201801N001019999999N0000001N9+01281+99999101911ADDGF102991999999999999999999
0046228020999991917060406004+61700+030683FM-12+001699999V0202301N004619999999N0000001N9+01441+99999101431ADDAJ100009199999999GF108991999999999999999999
0029228020999991917060413004+61700+030683FM-12+001699999V0201801N006719999999N0000001N9+02001+99999101311ADDGF101991999999999999999999
0029228020999991917060420004+61700+030683FM-12+001699999V0209991C000019999999N0000001N9+01611+99999101221ADDGF106991999999999999999999
0046228020999991917060506004+61700+030683FM-12+001699999V0201401N001019999999N0000001N9+01281+99999101221ADDAJ100009199999999GF108991999999999999999999
0029228020999991917060513004+61700+030683FM-12+001699999V0201401N006719999999N0000001N9+01501+99999101241ADDGF108991999999999999999999
0029228020999991917060520004+61700+030683FM-12+001699999V0209991C000019999999N0000001N9+01111+99999101201ADDGF108991999999999999999999
0046228020999991917060606004+61700+030683FM-12+001699999V0201401N009319999999N0000001N9+01111+99999101121ADDAJ100009199999999GF100991999999999999999999
0029228020999991917060613004+61700+030683FM-12+001699999V0201401N004619999999N0000001N9+01441+99999101021ADDGF108991999999999999999999
0029228020999991917060620004+61700+030683FM-12+001699999V0203601N006719999999N0000001N9+01331+99999100761ADDGF108991999999999999999999
0046228020999991917060706004+61700+030683FM-12+001699999V0201801N001019999999N0000001N9+01171+99999100901ADDAJ100009199999999GF108991999999999999999999
0029228020999991917060713004+61700+030683FM-12+001699999V0201401N001019999999N0000001N9+01891+99999101181ADDGF102991999999999999999999
0029228020999991917060720004+61700+030683FM-12+001699999V0200501N004619999999N0000001N9+01501+99999101591ADDGF103991999999999999999999
0046228020999991917060806004+61700+030683FM-12+001699999V0200501N009319999999N0000001N9+01441+99999102101ADDAJ100009199999999GF100991999999999999999999
0029228020999991917060813004+61700+030683FM-12+001699999V0203601N006719999999N0000001N9+02171+99999102041ADDGF100991999999999999999999
0029228020999991917060820004+61700+030683FM-12+001699999V0203601N002619999999N0000001N9+01561+99999102191ADDGF107991999999999999999999
0046228020999991917060906004+61700+030683FM-12+001699999V0203601N006719999999N0000001N9+01281+99999102461ADDAJ100009199999999GF100991999999999999999999
0029228020999991917060913004+61700+030683FM-12+001699999V0203601N004619999999N0000001N9+01941+99999102441ADDGF100991999999999999999999
0029228020999991917060920004+61700+030683FM-12+001699999V0203601N002619999999N0000001N9+01671+99999102321ADDGF100991999999999999999999
0046228020999991917061006004+61700+030683FM-12+001699999V0209991C000019999999N0000001N9+01501+99999102471ADDAJ100009199999999GF100991999999999999999999
0029228020999991917061013004+61700+030683FM-12+001699999V0209991C000019999999N0000001N9+02281+99999102231ADDGF100991999999999999999999
0029228020999991917061020004+61700+030683FM-12+001699999V0209991C000019999999N0000001N9+01671+99999102101ADDGF100991999999999999999999
0046228020999991917061106004+61700+030683FM-12+001699999V0201801N004619999999N0000001N9+01781+99999101881ADDAJ100009199999999GF100991999999999999999999
0029228020999991917061113004+61700+030683FM-12+001699999V0203601N006719999999N0000001N9+02331+99999101831ADDGF100991999999999999999999
0029228020999991917061120004+61700+030683FM-12+001699999V0203201N004619999999N0000001N9+01611+99999101741ADDGF102991999999999999999999
0029228020999991917061213004+61700+030683FM-12+001699999V0203601N006719999999N0000001N9+01561+99999102061ADDGF108991999999999999999999
0029228020999991917061220004+61700+030683FM-12+001699999V0209991C000019999999N0000001N9+01391+99999102151ADDGF107991999999999999999999
0046228020999991917061306004+61700+030683FM-12+001699999V0203601N004619999999N0000001N9+01561+99999102431ADDAJ100009199999999GF100991999999999999999999
0029228020999991917061313004+61700+030683FM-12+001699999V0209991C000019999999N0000001N9+02171+99999102341ADDGF100991999999999999999999
0029228020999991917061320004+61700+030683FM-12+001699999V0201401N001019999999N0000001N9+01671+99999102181ADDGF100991999999999999999999
0046228020999991917061406004+61700+030683FM-12+001699999V0201801N004619999999N0000001N9+01891+99999102141ADDAJ100009199999999GF100991999999999999999999
0029228020999991917061413004+61700+030683FM-12+001699999V0203201N009319999999N0000001N9+02721+99999101911ADDGF103991999999999999999999
0029228020999991917061420004+61700+030683FM-12+001699999V0203201N001019999999N0000001N9+02061+99999101901ADDGF106991999999999999999999
0046228020999991917061506004+61700+030683FM-12+001699999V0202701N002619999999N0000001N9+01941+99999101901ADDAJ100009199999999GF105991999999999999999999
0029228020999991917061513004+61700+030683FM-12+001699999V0202301N006719999999N0000001N9+02611+99999101601ADDGF105991999999999999999999
0029228020999991917061520004+61700+030683FM-12+001699999V0202301N004619999999N0000001N9+02171+99999101501ADDGF107991999999999999999999
0046228020999991917061606004+61700+030683FM-12+001699999V0202301N006719999999N0000001N9+01781+99999101911ADDAJ100009199999999GF102991999999999999999999
0029228020999991917061613004+61700+030683FM-12+001699999V0203201N009319999999N0000001N9+02221+99999101841ADDGF102991999999999999999999
0029228020999991917061620004+61700+030683FM-12+001699999V0202901N001019999999N0000001N9+01781+99999101791ADDGF103991999999999999999999
0046228020999991917061706004+61700+030683FM-12+001699999V0202901N001019999999N0000001N9+01781+99999101391ADDAJ100009199999999GF103991999999999999999999
0029228020999991917061713004+61700+030683FM-12+001699999V0202701N009319999999N0000001N9+02611+99999100921ADDGF106991999999999999999999
0029228020999991917061720004+61700+030683FM-12+001699999V0202901N002619999999N0000001N9+02171+99999100711ADDGF108991999999999999999999
0052228020999991917061806004+61700+030683FM-12+001699999V0203201N001019999999N0000001N9+01941+99999101001ADDAJ100009199999999GF106991999999999999999999MW1621
0029228020999991917061813004+61700+030683FM-12+001699999V0202301N009319999999N0000001N9+01781+99999100671ADDGF108991999999999999999999
0029228020999991917061820004+61700+030683FM-12+001699999V0203201N001019999999N0000001N9+01671+99999100511ADDGF106991999999999999999999
0046228020999991917061906004+61700+030683FM-12+001699999V0203201N001019999999N0000001N9+01671+99999100911ADDAJ100009199999999GF106991999999999999999999
0029228020999991917061913004+61700+030683FM-12+001699999V0201601N002619999999N0000001N9+01941+99999101071ADDGF102991999999999999999999
0029228020999991917061920004+61700+030683FM-12+001699999V0201601N001019999999N0000001N9+01501+99999101161ADDGF102991999999999999999999
0046228020999991917062006004+61700+030683FM-12+001699999V0201401N002619999999N0000001N9+01281+99999100941ADDAJ100009199999999GF108991999999999999999999
0029228020999991917062013004+61700+030683FM-12+001699999V0209991C000019999999N0000001N9+02281+99999100741ADDGF101991999999999999999999
0029228020999991917062020004+61700+030683FM-12+001699999V0209991C000019999999N0000001N9+01941+99999100781ADDGF100991999999999999999999
0046228020999991917062106004+61700+030683FM-12+001699999V0202701N002619999999N0000001N9+02281+99999100941ADDAJ100009199999999GF101991999999999999999999
0029228020999991917062113004+61700+030683FM-12+001699999V0202701N004619999999N0000001N9+02891+99999100801ADDGF107991999999999999999999
0029228020999991917062120004+61700+030683FM-12+001699999V0202701N001019999999N0000001N9+02391+99999100831ADDGF106991999999999999999999
0046228020999991917062206004+61700+030683FM-12+001699999V0209991C000019999999N0000001N9+02281+99999101041ADDAJ100009199999999GF101991999999999999999999
0029228020999991917062213004+61700+030683FM-12+001699999V0209991C000019999999N0000001N9+02501+99999101001ADDGF100991999999999999999999
0029228020999991917062220004+61700+030683FM-12+001699999V0201801N001019999999N0000001N9+01781+99999101021ADDGF100991999999999999999999
0046228020999991917062306004+61700+030683FM-12+001699999V0209991C000019999999N0000001N9+01941+99999101021ADDAJ100009199999999GF100991999999999999999999
0029228020999991917062313004+61700+030683FM-12+001699999V0209991C000019999999N0000001N9+02501+99999100991ADDGF100991999999999999999999
0029228020999991917062320004+61700+030683FM-12+001699999V0202701N002619999999N0000001N9+02061+99999101191ADDGF108991999999999999999999
0046228020999991917062406004+61700+030683FM-12+001699999V0201801N002619999999N0000001N9+01891+99999101741ADDAJ100009199999999GF100991999999999999999999
0029228020999991917062413004+61700+030683FM-12+001699999V0201801N006719999999N0000001N9+02281+99999101801ADDGF100991999999999999999999
0029228020999991917062420004+61700+030683FM-12+001699999V0201801N002619999999N0000001N9+01781+99999102101ADDGF100991999999999999999999
0046228020999991917062506004+61700+030683FM-12+001699999V0202701N001019999999N0000001N9+01721+99999102431ADDAJ100009199999999GF102991999999999999999999
0029228020999991917062513004+61700+030683FM-12+001699999V0202701N004619999999N0000001N9+02331+99999102341ADDGF100991999999999999999999
0029228020999991917062520004+61700+030683FM-12+001699999V0201601N001019999999N0000001N9+02221+99999101791ADDGF108991999999999999999999
0046228020999991917062606004+61700+030683FM-12+001699999V0200701N002619999999N0000001N9+01831+99999101181ADDAJ100009199999999GF108991999999999999999999
0029228020999991917062613004+61700+030683FM-12+001699999V0202701N002619999999N0000001N9+02061+99999101351ADDGF103991999999999999999999
0029228020999991917062620004+61700+030683FM-12+001699999V0202701N006719999999N0000001N9+01831+99999101441ADDGF108991999999999999999999
0046228020999991917062706004+61700+030683FM-12+001699999V0203201N002619999999N0000001N9+01831+99999101981ADDAJ100009199999999GF100991999999999999999999
0029228020999991917062713004+61700+030683FM-12+001699999V0201801N004619999999N0000001N9+02171+99999102081ADDGF102991999999999999999999
0029228020999991917062720004+61700+030683FM-12+001699999V0201801N001019999999N0000001N9+01781+99999102261ADDGF103991999999999999999999
0046228020999991917062806004+61700+030683FM-12+001699999V0209991C000019999999N0000001N9+01831+99999102361ADDAJ100009199999999GF100991999999999999999999
0029228020999991917062813004+61700+030683FM-12+001699999V0201801N002619999999N0000001N9+02331+99999102301ADDGF101991999999999999999999
0029228020999991917062820004+61700+030683FM-12+001699999V0209991C000019999999N0000001N9+01831+99999102141ADDGF105991999999999999999999
0046228020999991917062906004+61700+030683FM-12+001699999V0209991C000019999999N0000001N9+01891+99999102151ADDAJ100009199999999GF101991999999999999999999
0029228020999991917062913004+61700+030683FM-12+001699999V0201401N004619999999N0000001N9+02441+99999102031ADDGF105991999999999999999999
0029228020999991917062920004+61700+030683FM-12+001699999V0209991C000019999999N0000001N9+01891+99999101921ADDGF101991999999999999999999
0046228020999991917063006004+61700+030683FM-12+001699999V0201601N002619999999N0000001N9+01721+99999101681ADDAJ100009199999999GF108991999999999999999999
0029228020999991917063013004+61700+030683FM-12+001699999V0201601N002619999999N0000001N9+02331+99999101421ADDGF106991999999999999999999
0029228020999991917063020004+61700+030683FM-12+001699999V0201801N006719999999N0000001N9+02001+99999101161ADDGF108991999999999999999999
0046228020999991917070106004+61700+030683FM-12+001699999V0203201N009319999999N0000001N9+01501+99999101401ADDAJ100009199999999GF100991999999999999999999
0029228020999991917070113004+61700+030683FM-12+001699999V0203601N012319999999N0000001N9+01781+99999101701ADDGF103991999999999999999999
0029228020999991917070120004+61700+030683FM-12+001699999V0203601N006719999999N0000001N9+01331+99999101901ADDGF108991999999999999999999
0046228020999991917070206004+61700+030683FM-12+001699999V0201401N004619999999N0000001N9+01331+99999102241ADDAJ100009199999999GF104991999999999999999999
0029228020999991917070213004+61700+030683FM-12+001699999V0209991C000019999999N0000001N9+01891+99999102041ADDGF105991999999999999999999
0029228020999991917070220004+61700+030683FM-12+001699999V0209991C000019999999N0000001N9+01561+99999101821ADDGF102991999999999999999999
0046228020999991917070306004+61700+030683FM-12+001699999V0202701N004619999999N0000001N9+01781+99999101741ADDAJ100009199999999GF100991999999999999999999
0029228020999991917070313004+61700+030683FM-12+001699999V0200901N002619999999N0000001N9+02221+99999101551ADDGF107991999999999999999999
0029228020999991917070320004+61700+030683FM-12+001699999V0200901N001019999999N0000001N9+01781+99999101321ADDGF107991999999999999999999
0046228020999991917070406004+61700+030683FM-12+001699999V0200501N006719999999N0000001N9+01561+99999100681ADDAJ100009199999999GF108991999999999999999999
0029228020999991917070413004+61700+030683FM-12+001699999V0203601N006719999999N0000001N9+02111+99999100381ADDGF108991999999999999999999
0029228020999991917070420004+61700+030683FM-12+001699999V0203401N001019999999N0000001N9+01781+99999100261ADDGF102991999999999999999999
0046228020999991917070506004+61700+030683FM-12+001699999V0203401N004619999999N0000001N9+01671+99999100071ADDAJ100009199999999GF102991999999999999999999
0029228020999991917070513004+61700+030683FM-12+001699999V0202701N009319999999N0000001N9+02001+99999100101ADDGF106991999999999999999999
0029228020999991917070520004+61700+030683FM-12+001699999V0203201N001019999999N0000001N9+01391+99999100261ADDGF104991999999999999999999
0046228020999991917070606004+61700+030683FM-12+001699999V0203201N001019999999N0000001N9+01171+99999100581ADDAJ100009199999999GF103991999999999999999999
0029228020999991917070613004+61700+030683FM-12+001699999V0202701N006719999999N0000001N9+01671+99999100711ADDGF107991999999999999999999
0029228020999991917070620004+61700+030683FM-12+001699999V0203401N001019999999N0000001N9+00941+99999100831ADDGF102991999999999999999999
0046228020999991917070706004+61700+030683FM-12+001699999V0201801N002619999999N0000001N9+01171+99999101001ADDAJ100009199999999GF105991999999999999999999
0029228020999991917070713004+61700+030683FM-12+001699999V0202701N004619999999N0000001N9+01331+99999100981ADDGF108991999999999999999999
0035228020999991917070720004+61700+030683FM-12+001699999V0203201N006719999999N0000001N9+00941+99999100991ADDGF108991999999999999999999MW1601
0052228020999991917070806004+61700+030683FM-12+001699999V0203201N002619999999N0000001N9+00941+99999100861ADDAJ100009199999999GF108991999999999999999999MW1621
0035228020999991917070813004+61700+030683FM-12+001699999V0209991C000019999999N0000001N9+01111+99999101001ADDGF108991999999999999999999MW1621
0029228020999991917070820004+61700+030683FM-12+001699999V0209991C000019999999N0000001N9+00941+99999101191ADDGF108991999999999999999999
0046228020999991917070906004+61700+030683FM-12+001699999V0200901N001019999999N0000001N9+01171+99999101421ADDAJ100009199999999GF108991999999999999999999
0029228020999991917070913004+61700+030683FM-12+001699999V0202301N002619999999N0000001N9+01001+99999101481ADDGF108991999999999999999999
0029228020999991917070920004+61700+030683FM-12+001699999V0202501N001019999999N0000001N9+01171+99999101521ADDGF108991999999999999999999
0046228020999991917071006004+61700+030683FM-12+001699999V0202501N001019999999N0000001N9+01441+99999101511ADDAJ100009199999999GF100991999999999999999999
0029228020999991917071013004+61700+030683FM-12+001699999V0201801N001019999999N0000001N9+02001+99999101341ADDGF101991999999999999999999
0029228020999991917071020004+61700+030683FM-12+001699999V0203601N001019999999N0000001N9+01501+99999101281ADDGF100991999999999999999999
0046228020999991917071106004+61700+030683FM-12+001699999V0203601N001019999999N0000001N9+01721+99999101391ADDAJ100009199999999GF100991999999999999999999
0029228020999991917071113004+61700+030683FM-12+001699999V0200901N002619999999N0000001N9+02171+99999101191ADDGF106991999999999999999999
0029228020999991917071120004+61700+030683FM-12+001699999V0200201N001019999999N0000001N9+01721+99999101151ADDGF106991999999999999999999
0046228020999991917071206004+61700+030683FM-12+001699999V0200201N002619999999N0000001N9+01891+99999101281ADDAJ100009199999999GF100991999999999999999999
0029228020999991917071213004+61700+030683FM-12+001699999V0203401N002619999999N0000001N9+02441+99999101511ADDGF103991999999999999999999
0029228020999991917071220004+61700+030683FM-12+001699999V0203601N001019999999N0000001N9+01721+99999101711ADDGF100991999999999999999999
0046228020999991917071306004+61700+030683FM-12+001699999V0203401N001019999999N0000001N9+01671+99999101881ADDAJ100009199999999GF100991999999999999999999
0029228020999991917071313004+61700+030683FM-12+001699999V0202701N002619999999N0000001N9+02501+99999101901ADDGF100991999999999999999999
0029228020999991917071320004+61700+030683FM-12+001699999V0203401N001019999999N0000001N9+01781+99999102031ADDGF100991999999999999999999
0046228020999991917071406004+61700+030683FM-12+001699999V0200901N002619999999N0000001N9+01781+99999102201ADDAJ100009199999999GF104991999999999999999999
0029228020999991917071413004+61700+030683FM-12+001699999V0203601N004619999999N0000001N9+02281+99999102021ADDGF102991999999999999999999
0029228020999991917071420004+61700+030683FM-12+001699999V0203601N001019999999N0000001N9+01721+99999101961ADDGF108991999999999999999999
0046228020999991917071506004+61700+030683FM-12+001699999V0200501N004619999999N0000001N9+01781+99999101921ADDAJ100009199999999GF108991999999999999999999
0029228020999991917071513004+61700+030683FM-12+001699999V0200501N006719999999N0000001N9+02501+99999101801ADDGF106991999999999999999999
0029228020999991917071520004+61700+030683FM-12+001699999V0200701N002619999999N0000001N9+02171+99999101861ADDGF108991999999999999999999
0046228020999991917071606004+61700+030683FM-12+001699999V0200501N004619999999N0000001N9+01941+99999101341ADDAJ100009199999999GF108991999999999999999999
0029228020999991917071613004+61700+030683FM-12+001699999V0200501N006719999999N0000001N9+02441+99999101071ADDGF108991999999999999999999
0029228020999991917071620004+61700+030683FM-12+001699999V0200501N004619999999N0000001N9+02221+99999100761ADDGF108991999999999999999999
0046228020999991917071706004+61700+030683FM-12+001699999V0201401N001019999999N0000001N9+01941+99999100781ADDAJ100009199999999GF108991999999999999999999
0029228020999991917071713004+61700+030683FM-12+001699999V0201801N002619999999N0000001N9+02281+99999100721ADDGF108991999999999999999999
0035228020999991917071720004+61700+030683FM-12+001699999V0201401N001019999999N0000001N9+01891+99999100671ADDGF108991999999999999999999MW1621
0046228020999991917071806004+61700+030683FM-12+001699999V0201401N001019999999N0000001N9+01831+99999100681ADDAJ100009199999999GF108991999999999999999999
0029228020999991917071813004+61700+030683FM-12+001699999V0203201N004619999999N0000001N9+02281+99999100951ADDGF108991999999999999999999
0029228020999991917071820004+61700+030683FM-12+001699999V0203201N002619999999N0000001N9+01941+99999100901ADDGF108991999999999999999999
0046228020999991917071906004+61700+030683FM-12+001699999V0203601N004619999999N0000001N9+01891+99999100961ADDAJ100009199999999GF108991999999999999999999
0029228020999991917071913004+61700+030683FM-12+001699999V0202701N009319999999N0000001N9+02611+99999100991ADDGF103991999999999999999999
0029228020999991917071920004+61700+030683FM-12+001699999V0203201N002619999999N0000001N9+01891+99999101111ADDGF103991999999999999999999
0046228020999991917072006004+61700+030683FM-12+001699999V0203201N001019999999N0000001N9+01831+99999100941ADDAJ100009199999999GF103991999999999999999999
0029228020999991917072013004+61700+030683FM-12+001699999V0203601N002619999999N0000001N9+02611+99999100661ADDGF102991999999999999999999
0029228020999991917072020004+61700+030683FM-12+001699999V0203601N002619999999N0000001N9+02061+99999100671ADDGF108991999999999999999999
0046228020999991917072106004+61700+030683FM-12+001699999V0203601N001019999999N0000001N9+01891+99999100471ADDAJ100009199999999GF108991999999999999999999
0029228020999991917072113004+61700+030683FM-12+001699999V0203601N006719999999N0000001N9+02281+99999100471ADDGF106991999999999999999999
0029228020999991917072120004+61700+030683FM-12+001699999V0203601N006719999999N0000001N9+01831+99999100581ADDGF108991999999999999999999
0046228020999991917072206004+61700+030683FM-12+001699999V0200901N006719999999N0000001N9+01611+99999100921ADDAJ100009199999999GF100991999999999999999999
0029228020999991917072213004+61700+030683FM-12+001699999V0200501N004619999999N0000001N9+01721+99999100901ADDGF108991999999999999999999
0029228020999991917072220004+61700+030683FM-12+001699999V0200701N004619999999N0000001N9+01391+99999100821ADDGF108991999999999999999999
0046228020999991917072306004+61700+030683FM-12+001699999V0203601N012319999999N0000001N9+01941+99999100681ADDAJ100009199999999GF108991999999999999999999
0029228020999991917072313004+61700+030683FM-12+001699999V0203601N015419999999N0000001N9+01781+99999100561ADDGF106991999999999999999999
0029228020999991917072320004+61700+030683FM-12+001699999V0203601N004619999999N0000001N9+01331+99999100541ADDGF108991999999999999999999
0046228020999991917072406004+61700+030683FM-12+001699999V0203601N002619999999N0000001N9+01441+99999100551ADDAJ100009199999999GF100991999999999999999999
0029228020999991917072413004+61700+030683FM-12+001699999V0203601N006719999999N0000001N9+01831+99999100501ADDGF106991999999999999999999
0029228020999991917072420004+61700+030683FM-12+001699999V0203601N006719999999N0000001N9+01171+99999100591ADDGF108991999999999999999999
0046228020999991917072506004+61700+030683FM-12+001699999V0203401N004619999999N0000001N9+01061+99999100711ADDAJ100009199999999GF108991999999999999999999
0029228020999991917072513004+61700+030683FM-12+001699999V0203201N006719999999N0000001N9+01391+99999100631ADDGF107991999999999999999999
0029228020999991917072520004+61700+030683FM-12+001699999V0203601N004619999999N0000001N9+01221+99999101001ADDGF108991999999999999999999
0046228020999991917072606004+61700+030683FM-12+001699999V0203201N001019999999N0000001N9+01171+99999101071ADDAJ100009199999999GF108991999999999999999999
0029228020999991917072613004+61700+030683FM-12+001699999V0203601N004619999999N0000001N9+01501+99999101001ADDGF108991999999999999999999
0029228020999991917072620004+61700+030683FM-12+001699999V0203601N002619999999N0000001N9+01281+99999101031ADDGF108991999999999999999999
0046228020999991917072706004+61700+030683FM-12+001699999V0203401N009319999999N0000001N9+01111+99999101141ADDAJ100009199999999GF108991999999999999999999
0029228020999991917072713004+61700+030683FM-12+001699999V0203601N006719999999N0000001N9+01561+99999100861ADDGF106991999999999999999999
0035228020999991917072720004+61700+030683FM-12+001699999V0203601N002619999999N0000001N9+01501+99999100751ADDGF108991999999999999999999MW1601
0046228020999991917072806004+61700+030683FM-12+001699999V0203601N001019999999N0000001N9+01501+99999100541ADDAJ100009199999999GF106991999999999999999999
0029228020999991917072813004+61700+030683FM-12+001699999V0200701N004619999999N0000001N9+01671+99999100541ADDGF108991999999999999999999
0029228020999991917072820004+61700+030683FM-12+001699999V0209991C000019999999N0000001N9+01281+99999100661ADDGF108991999999999999999999
0046228020999991917072906004+61700+030683FM-12+001699999V0201801N001019999999N0000001N9+01441+99999100631ADDAJ100009199999999GF100991999999999999999999
0029228020999991917072913004+61700+030683FM-12+001699999V0201801N002619999999N0000001N9+02281+99999100681ADDGF106991999999999999999999
0029228020999991917072920004+61700+030683FM-12+001699999V0201801N002619999999N0000001N9+01561+99999100861ADDGF108991999999999999999999
0046228020999991917073006004+61700+030683FM-12+001699999V0203201N002619999999N0000001N9+01831+99999100961ADDAJ100009199999999GF100991999999999999999999
0029228020999991917073013004+61700+030683FM-12+001699999V0203601N002619999999N0000001N9+02501+99999101101ADDGF100991999999999999999999
0029228020999991917073020004+61700+030683FM-12+001699999V0201801N001019999999N0000001N9+01721+99999101391ADDGF108991999999999999999999
0046228020999991917073106004+61700+030683FM-12+001699999V0201801N001019999999N0000001N9+01561+99999101801ADDAJ100009199999999GF108991999999999999999999
0029228020999991917073113004+61700+030683FM-12+001699999V0201801N004619999999N0000001N9+02171+99999101881ADDGF106991999999999999999999
0029228020999991917073120004+61700+030683FM-12+001699999V0201801N004619999999N0000001N9+01781+99999102101ADDGF105991999999999999999999
0046228020999991917080106004+61700+030683FM-12+001699999V0209991C000019999999N0000001N9+01781+99999102021ADDAJ100009199999999GF108991999999999999999999
0029228020999991917080113004+61700+030683FM-12+001699999V0201801N004619999999N0000001N9+02061+99999102231ADDGF108991999999999999999999
0029228020999991917080120004+61700+030683FM-12+001699999V0200501N001019999999N0000001N9+01561+99999102201ADDGF108991999999999999999999
0046228020999991917080206004+61700+030683FM-12+001699999V0209991C000019999999N0000001N9+01671+99999101961ADDAJ100009199999999GF108991999999999999999999
0029228020999991917080213004+61700+030683FM-12+001699999V0201401N001019999999N0000001N9+02671+99999101881ADDGF105991999999999999999999
0029228020999991917080220004+61700+030683FM-12+001699999V0201401N001019999999N0000001N9+02061+99999101821ADDGF105991999999999999999999
0046228020999991917080306004+61700+030683FM-12+001699999V0209991C000019999999N0000001N9+02061+99999101871ADDAJ100009199999999GF101991999999999999999999
0029228020999991917080313004+61700+030683FM-12+001699999V0201401N006719999999N0000001N9+02781+99999101601ADDGF100991999999999999999999
0029228020999991917080320004+61700+030683FM-12+001699999V0201801N001019999999N0000001N9+02061+99999101521ADDGF108991999999999999999999
0046228020999991917080406004+61700+030683FM-12+001699999V0209991C000019999999N0000001N9+01831+99999101511ADDAJ100009199999999GF106991999999999999999999
0029228020999991917080413004+61700+030683FM-12+001699999V0203601N002619999999N0000001N9+02831+99999101521ADDGF107991999999999999999999
0029228020999991917080420004+61700+030683FM-12+001699999V0200501N009319999999N0000001N9+01561+99999101581ADDGF108991999999999999999999
0046228020999991917080506004+61700+030683FM-12+001699999V0200501N006719999999N0000001N9+01171+99999102121ADDAJ100009199999999GF106991999999999999999999
0029228020999991917080513004+61700+030683FM-12+001699999V0203601N006719999999N0000001N9+01611+99999102111ADDGF100991999999999999999999
0029228020999991917080520004+61700+030683FM-12+001699999V0200501N002619999999N0000001N9+01221+99999102141ADDGF106991999999999999999999
0046228020999991917080606004+61700+030683FM-12+001699999V0200501N004619999999N0000001N9+01171+99999102121ADDAJ100009199999999GF100991999999999999999999
0029228020999991917080613004+61700+030683FM-12+001699999V0200701N006719999999N0000001N9+01941+99999101821ADDGF100991999999999999999999
0029228020999991917080620004+61700+030683FM-12+001699999V0200901N004619999999N0000001N9+01611+99999101831ADDGF108991999999999999999999
0046228020999991917080706004+61700+030683FM-12+001699999V0200901N002619999999N0000001N9+01671+99999101881ADDAJ100009199999999GF102991999999999999999999
0029228020999991917080713004+61700+030683FM-12+001699999V0200901N006719999999N0000001N9+02671+99999101801ADDGF102991999999999999999999
0029228020999991917080720004+61700+030683FM-12+001699999V0200901N002619999999N0000001N9+02111+99999101711ADDGF108991999999999999999999
0046228020999991917080806004+61700+030683FM-12+001699999V0200901N002619999999N0000001N9+02061+99999101801ADDAJ100009199999999GF100991999999999999999999
0029228020999991917080813004+61700+030683FM-12+001699999V0200901N002619999999N0000001N9+02781+99999101601ADDGF100991999999999999999999
0029228020999991917080820004+61700+030683FM-12+001699999V0209991C000019999999N0000001N9+02171+99999101541ADDGF100991999999999999999999
0046228020999991917080906004+61700+030683FM-12+001699999V0201801N004619999999N0000001N9+02061+99999101481ADDAJ100009199999999GF100991999999999999999999
0029228020999991917080913004+61700+030683FM-12+001699999V0200901N002619999999N0000001N9+02721+99999101361ADDGF100991999999999999999999
0029228020999991917080920004+61700+030683FM-12+001699999V0209991C000019999999N0000001N9+02001+99999101101ADDGF100991999999999999999999
0046228020999991917081006004+61700+030683FM-12+001699999V0201401N001019999999N0000001N9+01941+99999100911ADDAJ100009199999999GF100991999999999999999999
0029228020999991917081013004+61700+030683FM-12+001699999V0201401N006719999999N0000001N9+02501+99999100821ADDGF105991999999999999999999
0029228020999991917081020004+61700+030683FM-12+001699999V0209991C000019999999N0000001N9+01941+99999100801ADDGF108991999999999999999999
0046228020999991917081106004+61700+030683FM-12+001699999V0200501N006719999999N0000001N9+01941+99999100661ADDAJ100009199999999GF105991999999999999999999
0029228020999991917081113004+61700+030683FM-12+001699999V0200501N006719999999N0000001N9+02721+99999100501ADDGF103991999999999999999999
0029228020999991917081120004+61700+030683FM-12+001699999V0200501N002619999999N0000001N9+01831+99999100751ADDGF106991999999999999999999
0046228020999991917081206004+61700+030683FM-12+001699999V0200501N006719999999N0000001N9+01941+99999100901ADDAJ100009199999999GF100991999999999999999999
0029228020999991917081213004+61700+030683FM-12+001699999V0201801N004619999999N0000001N9+02561+99999100991ADDGF100991999999999999999999
0029228020999991917081220004+61700+030683FM-12+001699999V0209991C000019999999N0000001N9+02001+99999100961ADDGF108991999999999999999999
0046228020999991917081306004+61700+030683FM-12+001699999V0200901N001019999999N0000001N9+01831+99999101161ADDAJ100009199999999GF105991999999999999999999
0029228020999991917081313004+61700+030683FM-12+001699999V0201801N004619999999N0000001N9+02501+99999101221ADDGF100991999999999999999999
0029228020999991917081320004+61700+030683FM-12+001699999V0201801N001019999999N0000001N9+01891+99999101351ADDGF103991999999999999999999
0046228020999991917081406004+61700+030683FM-12+001699999V0201801N006719999999N0000001N9+01941+99999101361ADDAJ100009199999999GF100991999999999999999999
0029228020999991917081413004+61700+030683FM-12+001699999V0201801N012319999999N0000001N9+02441+99999101391ADDGF100991999999999999999999
0029228020999991917081420004+61700+030683FM-12+001699999V0209991C000019999999N0000001N9+01831+99999101231ADDGF108991999999999999999999
0046228020999991917081506004+61700+030683FM-12+001699999V0201601N006719999999N0000001N9+01891+99999101241ADDAJ100009199999999GF105991999999999999999999
0029228020999991917081513004+61700+030683FM-12+001699999V0201601N006719999999N0000001N9+02171+99999101271ADDGF100991999999999999999999
0029228020999991917081520004+61700+030683FM-12+001699999V0201401N001019999999N0000001N9+02001+99999101121ADDGF108991999999999999999999
0046228020999991917081606004+61700+030683FM-12+001699999V0201401N002619999999N0000001N9+01941+99999101101ADDAJ100009199999999GF108991999999999999999999
0029228020999991917081613004+61700+030683FM-12+001699999V0201401N006719999999N0000001N9+02221+99999101201ADDGF105991999999999999999999
0029228020999991917081620004+61700+030683FM-12+001699999V0201401N001019999999N0000001N9+01781+99999101071ADDGF105991999999999999999999
0046228020999991917081706004+61700+030683FM-12+001699999V0201801N004619999999N0000001N9+01721+99999101071ADDAJ100009199999999GF101991999999999999999999
0029228020999991917081713004+61700+030683FM-12+001699999V0201801N006719999999N0000001N9+02281+99999101231ADDGF100991999999999999999999
0029228020999991917081720004+61700+030683FM-12+001699999V0209991C000019999999N0000001N9+01721+99999101241ADDGF100991999999999999999999
0046228020999991917081806004+61700+030683FM-12+001699999V0209991C000019999999N0000001N9+01611+99999101301ADDAJ100009199999999GF100991999999999999999999
0029228020999991917081813004+61700+030683FM-12+001699999V0202701N004619999999N0000001N9+02611+99999101301ADDGF100991999999999999999999
0029228020999991917081820004+61700+030683FM-12+001699999V0209991C000019999999N0000001N9+01781+99999101521ADDGF103991999999999999999999
0046228020999991917081906004+61700+030683FM-12+001699999V0209991C000019999999N0000001N9+01561+99999101631ADDAJ100009199999999GF100991999999999999999999
0029228020999991917081913004+61700+030683FM-12+001699999V0201801N012319999999N0000001N9+02281+99999101481ADDGF106991999999999999999999
0029228020999991917081920004+61700+030683FM-12+001699999V0209991C000019999999N0000001N9+01781+99999101471ADDGF106991999999999999999999
0046228020999991917082006004+61700+030683FM-12+001699999V0209991C000019999999N0000001N9+01671+99999101551ADDAJ100009199999999GF100991999999999999999999
0029228020999991917082013004+61700+030683FM-12+001699999V0201801N006719999999N0000001N9+02331+99999101461ADDGF100991999999999999999999
0029228020999991917082020004+61700+030683FM-12+001699999V0209991C000019999999N0000001N9+01941+99999101511ADDGF108991999999999999999999
0046228020999991917082106004+61700+030683FM-12+001699999V0202301N001019999999N0000001N9+01671+99999101471ADDAJ100009199999999GF107991999999999999999999
0029228020999991917082113004+61700+030683FM-12+001699999V0203201N002619999999N0000001N9+02171+99999101591ADDGF108991999999999999999999
0029228020999991917082120004+61700+030683FM-12+001699999V0209991C000019999999N0000001N9+02001+99999101581ADDGF108991999999999999999999
0046228020999991917082206004+61700+030683FM-12+001699999V0203201N001019999999N0000001N9+01281+99999101631ADDAJ100009199999999GF106991999999999999999999
0029228020999991917082213004+61700+030683FM-12+001699999V0201801N004619999999N0000001N9+02331+99999101601ADDGF102991999999999999999999
0029228020999991917082220004+61700+030683FM-12+001699999V0201801N002619999999N0000001N9+01611+99999101561ADDGF108991999999999999999999
0046228020999991917082306004+61700+030683FM-12+001699999V0201601N002619999999N0000001N9+01441+99999101581ADDAJ100009199999999GF108991999999999999999999
0029228020999991917082313004+61700+030683FM-12+001699999V0200201N006719999999N0000001N9+02281+99999101361ADDGF106991999999999999999999
0029228020999991917082320004+61700+030683FM-12+001699999V0209991C000019999999N0000001N9+01671+99999101461ADDGF105991999999999999999999
0046228020999991917082406004+61700+030683FM-12+001699999V0203601N001019999999N0000001N9+01391+99999101601ADDAJ100009199999999GF100991999999999999999999
0029228020999991917082413004+61700+030683FM-12+001699999V0202901N001019999999N0000001N9+02561+99999101551ADDGF103991999999999999999999
0029228020999991917082420004+61700+030683FM-12+001699999V0203201N001019999999N0000001N9+01611+99999101601ADDGF101991999999999999999999
0046228020999991917082506004+61700+030683FM-12+001699999V0209991C000019999999N0000001N9+01331+99999101551ADDAJ100009199999999GF100991999999999999999999
0029228020999991917082513004+61700+030683FM-12+001699999V0201401N009319999999N0000001N9+02331+99999101431ADDGF103991999999999999999999
0029228020999991917082520004+61700+030683FM-12+001699999V0201801N001019999999N0000001N9+01721+99999101311ADDGF102991999999999999999999
0052228020999991917082606004+61700+030683FM-12+001699999V0203201N001019999999N0000001N9+01721+99999101231ADDAJ100009199999999GF108991999999999999999999MW1621
0029228020999991917082613004+61700+030683FM-12+001699999V0203201N004619999999N0000001N9+01721+99999101151ADDGF108991999999999999999999
0029228020999991917082620004+61700+030683FM-12+001699999V0201401N001019999999N0000001N9+01611+99999100861ADDGF108991999999999999999999
0046228020999991917082706004+61700+030683FM-12+001699999V0201101N001019999999N0000001N9+01501+99999100621ADDAJ100009199999999GF108991999999999999999999
0029228020999991917082713004+61700+030683FM-12+001699999V0202901N001019999999N0000001N9+02171+99999100561ADDGF106991999999999999999999
0029228020999991917082720004+61700+030683FM-12+001699999V0209991C000019999999N0000001N9+01391+99999100701ADDGF108991999999999999999999
0046228020999991917082806004+61700+030683FM-12+001699999V0200501N001019999999N0000001N9+01111+99999100741ADDAJ100009199999999GF105991999999999999999999
0029228020999991917082813004+61700+030683FM-12+001699999V0201601N004619999999N0000001N9+02061+99999100781ADDGF103991999999999999999999
0029228020999991917082820004+61700+030683FM-12+001699999V0209991C000019999999N0000001N9+01561+99999101021ADDGF100991999999999999999999
0046228020999991917082906004+61700+030683FM-12+001699999V0201801N004619999999N0000001N9+01391+99999101401ADDAJ100009199999999GF102991999999999999999999
0029228020999991917082913004+61700+030683FM-12+001699999V0201601N006719999999N0000001N9+02111+99999101151ADDGF103991999999999999999999
0029228020999991917082920004+61700+030683FM-12+001699999V0201801N009319999999N0000001N9+01831+99999101201ADDGF108991999999999999999999
0046228020999991917083006004+61700+030683FM-12+001699999V0201401N012319999999N0000001N9+01831+99999100871ADDAJ100009199999999GF108991999999999999999999
