0029228020999991923010106004+61700+030683FM-12+001699999V0201401N001019999999N0000001N9+00061+99999100071ADDGF108991999999999999999999
0035228020999991923010113004+61700+030683FM-12+001699999V0201401N006219999999N0000001N9+00061+99999099821ADDGF108991999999999999999999MW1721
0035228020999991923010120004+61700+030683FM-12+001699999V0201401N009819999999N0000001N9+00171+99999099721ADDGF108991999999999999999999MW1601
0035228020999991923010206004+61700+030683FM-12+001699999V0202301N004119999999N0000001N9+00221+99999100501ADDGF108991999999999999999999MW1601
0029228020999991923010213004+61700+030683FM-12+001699999V0201801N004119999999N0000001N9+00171+99999100911ADDGF108991999999999999999999
0029228020999991923010220004+61700+030683FM-12+001699999V0202301N002119999999N0000001N9+00061+99999101181ADDGF108991999999999999999999
0029228020999991923010306004+61700+030683FM-12+001699999V0202701N001019999999N0000001N9+00111+99999101481ADDGF108991999999999999999999
0029228020999991923010313004+61700+030683FM-12+001699999V0202701N002119999999N0000001N9+00111+99999101781ADDGF108991999999999999999999
0029228020999991923010320004+61700+030683FM-12+001699999V0202301N004119999999N0000001N9+00001+99999101831ADDGF108991999999999999999999
0029228020999991923010406004+61700+030683FM-12+001699999V0201801N004119999999N0000001N9-00111+99999101901ADDGF108991999999999999999999
0029228020999991923010413004+61700+030683FM-12+001699999V0201801N004119999999N0000001N9+00001+99999101991ADDGF108991999999999999999999
0029228020999991923010420004+61700+030683FM-12+001699999V0201801N002119999999N0000001N9+00061+99999101951ADDGF108991999999999999999999
0029228020999991923010506004+61700+030683FM-12+001699999V0201801N002119999999N0000001N9+00111+99999101881ADDGF108991999999999999999999
0035228020999991923010513004+61700+030683FM-12+001699999V0202301N002119999999N0000001N9+00061+99999101981ADDGF108991999999999999999999MW1721
0029228020999991923010520004+61700+030683FM-12+001699999V0202301N001019999999N0000001N9+00061+99999102021ADDGF108991999999999999999999
0029228020999991923010606004+61700+030683FM-12+001699999V0202301N001019999999N0000001N9+00061+99999102201ADDGF108991999999999999999999
0029228020999991923010613004+61700+030683FM-12+001699999V0202301N001019999999N0000001N9+00061+99999102391ADDGF108991999999999999999999
0029228020999991923010620004+61700+030683FM-12+001699999V0202301N001019999999N0000001N9+00001+99999102441ADDGF108991999999999999999999
0029228020999991923010706004+61700+030683FM-12+001699999V0202301N001019999999N0000001N9-00061+99999102381ADDGF108991999999999999999999
0029228020999991923010713004+61700+030683FM-12+001699999V0202001N002119999999N0000001N9-00171+99999102281ADDGF108991999999999999999999
0029228020999991923010720004+61700+030683FM-12+001699999V0201801N008219999999N0000001N9-00441+99999102151ADDGF108991999999999999999999
0029228020999991923010806004+61700+030683FM-12+001699999V0201801N002119999999N0000001N9-00501+99999101781ADDGF108991999999999999999999
0035228020999991923010813004+61700+030683FM-12+001699999V0202301N002119999999N0000001N9-00331+99999101681ADDGF108991999999999999999999MW1701
0029228020999991923010820004+61700+030683FM-12+001699999V0201801N002119999999N0000001N9-00331+99999101471ADDGF108991999999999999999999
0029228020999991923010906004+61700+030683FM-12+001699999V0201801N006219999999N0000001N9+00061+99999100861ADDGF108991999999999999999999
0035228020999991923010913004+61700+030683FM-12+001699999V0201801N008219999999N0000001N9+00001+99999100381ADDGF108991999999999999999999MW1721
0029228020999991923010920004+61700+030683FM-12+001699999V0202301N002119999999N0000001N9+00061+99999100201ADDGF108991999999999999999999
0029228020999991923011006004+61700+030683FM-12+001699999V0202501N006219999999N0000001N9+00111+99999100681ADDGF108991999999999999999999
0029228020999991923011013004+61700+030683FM-12+001699999V0201801N004119999999N0000001N9+00061+99999100761ADDGF108991999999999999999999
0029228020999991923011020004+61700+030683FM-12+001699999V0201801N010819999999N0000001N9+00001+99999100701ADDGF108991999999999999999999
0029228020999991923011106004+61700+030683FM-12+001699999V0201801N002119999999N0000001N9+00061+99999100601ADDGF108991999999999999999999
0029228020999991923011113004+61700+030683FM-12+001699999V0201801N006219999999N0000001N9+00061+99999100711ADDGF108991999999999999999999
0029228020999991923011120004+61700+030683FM-12+001699999V0201801N002119999999N0000001N9+00001+99999100781ADDGF108991999999999999999999
0029228020999991923011206004+61700+030683FM-12+001699999V0201801N006219999999N0000001N9+00061+99999100631ADDGF108991999999999999999999
0029228020999991923011213004+61700+030683FM-12+001699999V0201801N004119999999N0000001N9+00111+99999100621ADDGF108991999999999999999999
0029228020999991923011220004+61700+030683FM-12+001699999V0201801N002119999999N0000001N9+00061+99999100631ADDGF108991999999999999999999
0029228020999991923011306004+61700+030683FM-12+001699999V0201801N002119999999N0000001N9+00061+99999100661ADDGF108991999999999999999999
0035228020999991923011313004+61700+030683FM-12+001699999V0201801N002119999999N0000001N9+00061+99999100801ADDGF108991999999999999999999MW1721
0035228020999991923011320004+61700+030683FM-12+001699999V0201801N002119999999N0000001N9+00061+99999100921ADDGF108991999999999999999999MW1721
0029228020999991923011406004+61700+030683FM-12+001699999V0203201N002119999999N0000001N9-00331+99999101231ADDGF108991999999999999999999
0029228020999991923011413004+61700+030683FM-12+001699999V0203201N002119999999N0000001N9-00611+99999101321ADDGF108991999999999999999999
0029228020999991923011420004+61700+030683FM-12+001699999V0202301N001019999999N0000001N9-00501+99999101071ADDGF108991999999999999999999
0029228020999991923011506004+61700+030683FM-12+001699999V0201401N004119999999N0000001N9-00221+99999100521ADDGF108991999999999999999999
0029228020999991923011513004+61700+030683FM-12+001699999V0200901N008219999999N0000001N9-00171+99999100361ADDGF108991999999999999999999
0029228020999991923011520004+61700+030683FM-12+001699999V0201401N006219999999N0000001N9-00221+99999100481ADDGF108991999999999999999999
0029228020999991923011606004+61700+030683FM-12+001699999V0200901N002119999999N0000001N9-00441+99999101231ADDGF108991999999999999999999
0035228020999991923011613004+61700+030683FM-12+001699999V0200901N002119999999N0000001N9-00441+99999101901ADDGF108991999999999999999999MW1701
0029228020999991923011620004+61700+030683FM-12+001699999V0200901N002119999999N0000001N9-00611+99999102561ADDGF108991999999999999999999
0029228020999991923011706004+61700+030683FM-12+001699999V0200501N002119999999N0000001N9-00891+99999103071ADDGF108991999999999999999999
0029228020999991923011713004+61700+030683FM-12+001699999V0200501N001019999999N0000001N9-00781+99999103311ADDGF108991999999999999999999
0029228020999991923011720004+61700+030683FM-12+001699999V0200501N001019999999N0000001N9-00831+99999103511ADDGF108991999999999999999999
0029228020999991923011806004+61700+030683FM-12+001699999V0200901N002119999999N0000001N9-01171+99999103561ADDGF108991999999999999999999
0035228020999991923011813004+61700+030683FM-12+001699999V0200901N001019999999N0000001N9-01281+99999103621ADDGF108991999999999999999999MW1701
0029228020999991923011820004+61700+030683FM-12+001699999V0200901N001019999999N0000001N9-01331+99999103481ADDGF108991999999999999999999
0029228020999991923011906004+61700+030683FM-12+001699999V0209991C000019999999N0000001N9-01331+99999102871ADDGF108991999999999999999999
0029228020999991923011913004+61700+030683FM-12+001699999V0200901N001019999999N0000001N9-01111+99999102421ADDGF108991999999999999999999
0029228020999991923011920004+61700+030683FM-12+001699999V0201801N004119999999N0000001N9-00671+99999101591ADDGF108991999999999999999999
0029228020999991923012006004+61700+030683FM-12+001699999V0201401N006219999999N0000001N9-00671+99999100631ADDGF108991999999999999999999
0035228020999991923012013004+61700+030683FM-12+001699999V0201401N006219999999N0000001N9-00561+99999100261ADDGF108991999999999999999999MW1741
0035228020999991923012020004+61700+030683FM-12+001699999V0200901N011819999999N0000001N9-00611+99999100241ADDGF108991999999999999999999MW1741
0035228020999991923012106004+61700+030683FM-12+001699999V0201801N008219999999N0000001N9-00561+99999100271ADDGF108991999999999999999999MW1721
0035228020999991923012113004+61700+030683FM-12+001699999V0202301N004119999999N0000001N9-00501+99999100321ADDGF108991999999999999999999MW1721
0029228020999991923012120004+61700+030683FM-12+001699999V0201801N006219999999N0000001N9-00331+99999100321ADDGF108991999999999999999999
0029228020999991923012206004+61700+030683FM-12+001699999V0201801N009819999999N0000001N9-00221+99999099721ADDGF108991999999999999999999
0035228020999991923012213004+61700+030683FM-12+001699999V0201801N011819999999N0000001N9-00221+99999098841ADDGF108991999999999999999999MW1721
0029228020999991923012220004+61700+030683FM-12+001699999V0201801N002119999999N0000001N9-00171+99999098641ADDGF108991999999999999999999
0029228020999991923012306004+61700+030683FM-12+001699999V0202301N002119999999N0000001N9-00441+99999098721ADDGF108991999999999999999999
0035228020999991923012313004+61700+030683FM-12+001699999V0201801N002119999999N0000001N9-00501+99999098981ADDGF108991999999999999999999MW1701
0029228020999991923012320004+61700+030683FM-12+001699999V0202701N001019999999N0000001N9-00561+99999099301ADDGF108991999999999999999999
0029228020999991923012406004+61700+030683FM-12+001699999V0203201N001019999999N0000001N9-00891+99999099361ADDGF108991999999999999999999
0029228020999991923012413004+61700+030683FM-12+001699999V0203201N001019999999N0000001N9-00721+99999099021ADDGF102991999999999999999999
0029228020999991923012420004+61700+030683FM-12+001699999V0201801N002119999999N0000001N9-00391+99999098801ADDGF108991999999999999999999
0035228020999991923012506004+61700+030683FM-12+001699999V0201801N001019999999N0000001N9-00441+99999098941ADDGF108991999999999999999999MW1721
0029228020999991923012513004+61700+030683FM-12+001699999V0203201N001019999999N0000001N9-00221+99999099301ADDGF102991999999999999999999
0029228020999991923012520004+61700+030683FM-12+001699999V0209991C000019999999N0000001N9-00561+99999099431ADDGF108991999999999999999999
0029228020999991923012606004+61700+030683FM-12+001699999V0202701N002119999999N0000001N9+00111+99999098041ADDGF106991999999999999999999
0029228020999991923012613004+61700+030683FM-12+001699999V0202701N006219999999N0000001N9-00061+99999098391ADDGF106991999999999999999999
0029228020999991923012620004+61700+030683FM-12+001699999V0202701N008219999999N0000001N9-00281+99999098261ADDGF100991999999999999999999
0029228020999991923012706004+61700+030683FM-12+001699999V0202701N009819999999N0000001N9-00501+99999098461ADDGF106991999999999999999999
0029228020999991923012713004+61700+030683FM-12+001699999V0202701N002119999999N0000001N9-00501+99999098431ADDGF108991999999999999999999
0029228020999991923012720004+61700+030683FM-12+001699999V0202701N001019999999N0000001N9-00831+99999097521ADDGF108991999999999999999999
0029228020999991923012806004+61700+030683FM-12+001699999V0203201N002119999999N0000001N9-00941+99999097711ADDGF108991999999999999999999
0029228020999991923012813004+61700+030683FM-12+001699999V0203201N002119999999N0000001N9-00831+99999098161ADDGF108991999999999999999999
0029228020999991923012820004+61700+030683FM-12+001699999V0203201N001019999999N0000001N9-01331+99999098581ADDGF100991999999999999999999
0029228020999991923012906004+61700+030683FM-12+001699999V0203201N002119999999N0000001N9-01281+99999098461ADDGF108991999999999999999999
0029228020999991923012913004+61700+030683FM-12+001699999V0203201N002119999999N0000001N9-00941+99999098281ADDGF108991999999999999999999
0029228020999991923012920004+61700+030683FM-12+001699999V0202901N002119999999N0000001N9-01171+99999098441ADDGF108991999999999999999999
0029228020999991923013006004+61700+030683FM-12+001699999V0203201N001019999999N0000001N9-01171+99999098621ADDGF108991999999999999999999
0029228020999991923013013004+61700+030683FM-12+001699999V0203201N002119999999N0000001N9-00831+99999098961ADDGF108991999999999999999999
0029228020999991923013020004+61700+030683FM-12+001699999V0203201N001019999999N0000001N9-00891+99999099421ADDGF108991999999999999999999
0029228020999991923013106004+61700+030683FM-12+001699999V0203201N002119999999N0000001N9-00831+99999099751ADDGF108991999999999999999999
0035228020999991923013113004+61700+030683FM-12+001699999V0203601N002119999999N0000001N9-01001+99999099981ADDGF108991999999999999999999MW1701
0029228020999991923013120004+61700+030683FM-12+001699999V0203201N001019999999N0000001N9-01221+99999100341ADDGF108991999999999999999999
0029228020999991923020106004+61700+030683FM-12+001699999V0203201N002119999999N0000001N9-01501+99999100631ADDGF108991999999999999999999
0029228020999991923020113004+61700+030683FM-12+001699999V0203401N001019999999N0000001N9-01501+99999100781ADDGF108991999999999999999999
0029228020999991923020120004+61700+030683FM-12+001699999V0203201N001019999999N0000001N9-01671+99999100801ADDGF108991999999999999999999
0029228020999991923020206004+61700+030683FM-12+001699999V0201801N002119999999N0000001N9-00941+99999100141ADDGF108991999999999999999999
0035228020999991923020213004+61700+030683FM-12+001699999V0203601N010819999999N0000001N9-00721+99999099471ADDGF108991999999999999999999MW1721
0035228020999991923020220004+61700+030683FM-12+001699999V0201401N009819999999N0000001N9-00781+99999098781ADDGF108991999999999999999999MW1721
0035228020999991923020306004+61700+030683FM-12+001699999V0201401N001019999999N0000001N9-00671+99999098641ADDGF108991999999999999999999MW1721
0035228020999991923020313004+61700+030683FM-12+001699999V0201801N002119999999N0000001N9-00671+99999098941ADDGF108991999999999999999999MW1721
0029228020999991923020320004+61700+030683FM-12+001699999V0203201N002119999999N0000001N9-01561+99999099401ADDGF100991999999999999999999
0029228020999991923020406004+61700+030683FM-12+001699999V0203401N001019999999N0000001N9-01891+99999100311ADDGF100991999999999999999999
0029228020999991923020413004+61700+030683FM-12+001699999V0203201N002119999999N0000001N9-01561+99999100961ADDGF108991999999999999999999
0029228020999991923020420004+61700+030683FM-12+001699999V0203201N001019999999N0000001N9-01781+99999101401ADDGF108991999999999999999999
0029228020999991923020506004+61700+030683FM-12+001699999V0203201N001019999999N0000001N9-02061+99999101841ADDGF108991999999999999999999
0029228020999991923020513004+61700+030683FM-12+001699999V0203201N001019999999N0000001N9-01671+99999101951ADDGF107991999999999999999999
0029228020999991923020520004+61700+030683FM-12+001699999V0202301N002119999999N0000001N9-01561+99999102111ADDGF108991999999999999999999
0029228020999991923020606004+61700+030683FM-12+001699999V0202301N001019999999N0000001N9-01331+99999102101ADDGF108991999999999999999999
0029228020999991923020613004+61700+030683FM-12+001699999V0201801N004119999999N0000001N9-01111+99999102101ADDGF108991999999999999999999
0029228020999991923020620004+61700+030683FM-12+001699999V0201801N002119999999N0000001N9-00831+99999101901ADDGF108991999999999999999999
0029228020999991923020706004+61700+030683FM-12+001699999V0201801N002119999999N0000001N9-00671+99999101911ADDGF108991999999999999999999
0029228020999991923020713004+61700+030683FM-12+001699999V0201401N002119999999N0000001N9-00501+99999101981ADDGF108991999999999999999999
0029228020999991923020720004+61700+030683FM-12+001699999V0201401N002119999999N0000001N9-00441+99999102271ADDGF108991999999999999999999
0029228020999991923020806004+61700+030683FM-12+001699999V0201401N002119999999N0000001N9-00561+99999102481ADDGF108991999999999999999999
0029228020999991923020813004+61700+030683FM-12+001699999V0201401N001019999999N0000001N9-00501+99999102781ADDGF108991999999999999999999
0029228020999991923020820004+61700+030683FM-12+001699999V0201101N001019999999N0000001N9-00671+99999102991ADDGF108991999999999999999999
0029228020999991923020906004+61700+030683FM-12+001699999V0200901N002119999999N0000001N9-00671+99999103351ADDGF108991999999999999999999
0029228020999991923020913004+61700+030683FM-12+001699999V0201401N002119999999N0000001N9-00781+99999103881ADDGF108991999999999999999999
0029228020999991923020920004+61700+030683FM-12+001699999V0200901N002119999999N0000001N9-01001+99999104421ADDGF108991999999999999999999
0029228020999991923021006004+61700+030683FM-12+001699999V0201401N002119999999N0000001N9-01561+99999104841ADDGF105991999999999999999999
0029228020999991923021013004+61700+030683FM-12+001699999V0203601N002119999999N0000001N9-01111+99999104881ADDGF100991999999999999999999
0029228020999991923021020004+61700+030683FM-12+001699999V0203601N002119999999N0000001N9-01391+99999104361ADDGF100991999999999999999999
0035228020999991923021106004+61700+030683FM-12+001699999V0200501N001019999999N0000001N9-01391+99999104031ADDGF108991999999999999999999MW1701
0029228020999991923021113004+61700+030683FM-12+001699999V0200901N006219999999N0000001N9-00941+99999104311ADDGF107991999999999999999999
0029228020999991923021120004+61700+030683FM-12+001699999V0201401N002119999999N0000001N9-00941+99999104631ADDGF108991999999999999999999
0029228020999991923021206004+61700+030683FM-12+001699999V0201601N001019999999N0000001N9-01891+99999104751ADDGF108991999999999999999999
0029228020999991923021213004+61700+030683FM-12+001699999V0201801N001019999999N0000001N9-01281+99999104951ADDGF100991999999999999999999
0029228020999991923021220004+61700+030683FM-12+001699999V0201801N001019999999N0000001N9-01671+99999104681ADDGF100991999999999999999999
0029228020999991923021306004+61700+030683FM-12+001699999V0201801N001019999999N0000001N9-02111+99999104421ADDGF108991999999999999999999
0029228020999991923021313004+61700+030683FM-12+001699999V0201801N001019999999N0000001N9-01171+99999104161ADDGF100991999999999999999999
0029228020999991923021320004+61700+030683FM-12+001699999V0201801N001019999999N0000001N9-01831+99999103961ADDGF100991999999999999999999
0029228020999991923021406004+61700+030683FM-12+001699999V0201801N001019999999N0000001N9-02441+99999103501ADDGF108991999999999999999999
0029228020999991923021413004+61700+030683FM-12+001699999V0201801N001019999999N0000001N9-01611+99999103271ADDGF108991999999999999999999
0029228020999991923021420004+61700+030683FM-12+001699999V0209991C000019999999N0000001N9-02221+99999102961ADDGF100991999999999999999999
0029228020999991923021506004+61700+030683FM-12+001699999V0209991C000019999999N0000001N9-02281+99999102711ADDGF108991999999999999999999
0029228020999991923021513004+61700+030683FM-12+001699999V0201801N001019999999N0000001N9-01721+99999102631ADDGF108991999999999999999999
0029228020999991923021520004+61700+030683FM-12+001699999V0209991C000019999999N0000001N9-02441+99999102511ADDGF100991999999999999999999
0029228020999991923021606004+61700+030683FM-12+001699999V0201801N001019999999N0000001N9-02001+99999102421ADDGF108991999999999999999999
0029228020999991923021613004+61700+030683FM-12+001699999V0209991C000019999999N0000001N9-01831+99999102381ADDGF108991999999999999999999
0029228020999991923021620004+61700+030683FM-12+001699999V0201401N001019999999N0000001N9-01831+99999102271ADDGF108991999999999999999999
0029228020999991923021706004+61700+030683FM-12+001699999V0201401N001019999999N0000001N9-01721+99999102081ADDGF108991999999999999999999
0029228020999991923021713004+61700+030683FM-12+001699999V0209991C000019999999N0000001N9-01501+99999102041ADDGF108991999999999999999999
0029228020999991923021720004+61700+030683FM-12+001699999V0201401N001019999999N0000001N9-01671+99999101901ADDGF108991999999999999999999
0029228020999991923021806004+61700+030683FM-12+001699999V0201401N001019999999N0000001N9-01671+99999101631ADDGF108991999999999999999999
0035228020999991923021813004+61700+030683FM-12+001699999V0201401N001019999999N0000001N9-01441+99999101481ADDGF108991999999999999999999MW1701
0035228020999991923021820004+61700+030683FM-12+001699999V0201401N001019999999N0000001N9-01561+99999101431ADDGF108991999999999999999999MW1701
0029228020999991923021906004+61700+030683FM-12+001699999V0209991C000019999999N0000001N9-01671+99999101151ADDGF108991999999999999999999
0029228020999991923021913004+61700+030683FM-12+001699999V0200901N002119999999N0000001N9-01501+99999101021ADDGF100991999999999999999999
0029228020999991923021920004+61700+030683FM-12+001699999V0209991C000019999999N0000001N9-01831+99999100751ADDGF100991999999999999999999
0029228020999991923022006004+61700+030683FM-12+001699999V0203601N002119999999N0000001N9-01561+99999100301ADDGF108991999999999999999999
0029228020999991923022013004+61700+030683FM-12+001699999V0203601N002119999999N0000001N9-01001+99999100181ADDGF105991999999999999999999
0029228020999991923022020004+61700+030683FM-12+001699999V0203601N001019999999N0000001N9-01441+99999100341ADDGF100991999999999999999999
0029228020999991923022106004+61700+030683FM-12+001699999V0203601N002119999999N0000001N9-02281+99999100481ADDGF100991999999999999999999
0029228020999991923022113004+61700+030683FM-12+001699999V0203601N001019999999N0000001N9-01221+99999100541ADDGF100991999999999999999999
0029228020999991923022120004+61700+030683FM-12+001699999V0203601N001019999999N0000001N9-01561+99999100641ADDGF108991999999999999999999
0029228020999991923022206004+61700+030683FM-12+001699999V0209991C000019999999N0000001N9-01391+99999100761ADDGF108991999999999999999999
0029228020999991923022213004+61700+030683FM-12+001699999V0209991C000019999999N0000001N9-01111+99999100981ADDGF108991999999999999999999
0029228020999991923022220004+61700+030683FM-12+001699999V0209991C000019999999N0000001N9-01611+99999101221ADDGF107991999999999999999999
0029228020999991923022306004+61700+030683FM-12+001699999V0201801N001019999999N0000001N9-01611+99999101551ADDGF108991999999999999999999
0035228020999991923022313004+61700+030683FM-12+001699999V0209991C000019999999N0000001N9-01501+99999101791ADDGF108991999999999999999999MW1701
0035228020999991923022320004+61700+030683FM-12+001699999V0209991C000019999999N0000001N9-01561+99999101861ADDGF108991999999999999999999MW1701
0029228020999991923022406004+61700+030683FM-12+001699999V0201401N002119999999N0000001N9-01611+99999101871ADDGF108991999999999999999999
0029228020999991923022413004+61700+030683FM-12+001699999V0201401N002119999999N0000001N9-01611+99999101841ADDGF108991999999999999999999
0029228020999991923022420004+61700+030683FM-12+001699999V0209991C000019999999N0000001N9-01721+99999101881ADDGF108991999999999999999999
0029228020999991923022506004+61700+030683FM-12+001699999V0201401N001019999999N0000001N9-01721+99999101721ADDGF108991999999999999999999
0029228020999991923022513004+61700+030683FM-12+001699999V0201401N001019999999N0000001N9-01561+99999101781ADDGF108991999999999999999999
0029228020999991923022520004+61700+030683FM-12+001699999V0201401N001019999999N0000001N9-01611+99999101581ADDGF108991999999999999999999
0035228020999991923022606004+61700+030683FM-12+001699999V0201401N001019999999N0000001N9-01611+99999101431ADDGF108991999999999999999999MW1701
0029228020999991923022613004+61700+030683FM-12+001699999V0201401N002119999999N0000001N9-01501+99999101311ADDGF108991999999999999999999
0029228020999991923022620004+61700+030683FM-12+001699999V0201401N001019999999N0000001N9-01561+99999101161ADDGF108991999999999999999999
0029228020999991923022706004+61700+030683FM-12+001699999V0201401N001019999999N0000001N9-01501+99999100941ADDGF108991999999999999999999
0035228020999991923022713004+61700+030683FM-12+001699999V0201401N002119999999N0000001N9-01331+99999100831ADDGF108991999999999999999999MW1701
0029228020999991923022720004+61700+030683FM-12+001699999V0209991C000019999999N0000001N9-01561+99999100721ADDGF105991999999999999999999
0029228020999991923022806004+61700+030683FM-12+001699999V0201401N001019999999N0000001N9-02221+99999100741ADDGF108991999999999999999999
0029228020999991923022813004+61700+030683FM-12+001699999V0203601N002119999999N0000001N9-01221+99999100831ADDGF102991999999999999999999
0029228020999991923022820004+61700+030683FM-12+001699999V0203201N002119999999N0000001N9-02001+99999101151ADDGF107991999999999999999999
0029228020999991923030106004+61700+030683FM-12+001699999V0203201N001019999999N0000001N9-02671+99999101641ADDGF108991999999999999999999
0029228020999991923030113004+61700+030683FM-12+001699999V0203201N002119999999N0000001N9-01001+99999101921ADDGF100991999999999999999999
0029228020999991923030120004+61700+030683FM-12+001699999V0200901N001019999999N0000001N9-01721+99999102151ADDGF106991999999999999999999
0029228020999991923030206004+61700+030683FM-12+001699999V0209991C000019999999N0000001N9-02061+99999102311ADDGF108991999999999999999999
0029228020999991923030213004+61700+030683FM-12+001699999V0200901N002119999999N0000001N9-00671+99999102351ADDGF100991999999999999999999
0029228020999991923030220004+61700+030683FM-12+001699999V0200901N002119999999N0000001N9-01171+99999102381ADDGF100991999999999999999999
0029228020999991923030306004+61700+030683FM-12+001699999V0200901N002119999999N0000001N9-01281+99999102281ADDGF108991999999999999999999
0029228020999991923030313004+61700+030683FM-12+001699999V0200901N006219999999N0000001N9-00561+99999102241ADDGF100991999999999999999999
0029228020999991923030320004+61700+030683FM-12+001699999V0200901N002119999999N0000001N9-00891+99999102161ADDGF101991999999999999999999
0029228020999991923030406004+61700+030683FM-12+001699999V0200701N004119999999N0000001N9-00891+99999101991ADDGF108991999999999999999999
0029228020999991923030413004+61700+030683FM-12+001699999V0200501N004119999999N0000001N9-00501+99999101961ADDGF108991999999999999999999
0029228020999991923030420004+61700+030683FM-12+001699999V0200501N001019999999N0000001N9-00671+99999101951ADDGF108991999999999999999999
0029228020999991923030506004+61700+030683FM-12+001699999V0203601N002119999999N0000001N9-01331+99999101871ADDGF106991999999999999999999
0029228020999991923030513004+61700+030683FM-12+001699999V0203601N002119999999N0000001N9-00501+99999101921ADDGF100991999999999999999999
0029228020999991923030520004+61700+030683FM-12+001699999V0203601N001019999999N0000001N9-01281+99999102111ADDGF100991999999999999999999
0029228020999991923030606004+61700+030683FM-12+001699999V0203601N001019999999N0000001N9-02331+99999102341ADDGF106991999999999999999999
0029228020999991923030613004+61700+030683FM-12+001699999V0203601N001019999999N0000001N9-00501+99999102471ADDGF100991999999999999999999
0029228020999991923030620004+61700+030683FM-12+001699999V0209991C000019999999N0000001N9-01781+99999102481ADDGF104991999999999999999999
0029228020999991923030706004+61700+030683FM-12+001699999V0209991C000019999999N0000001N9-02221+99999102631ADDGF106991999999999999999999
0029228020999991923030713004+61700+030683FM-12+001699999V0203601N004119999999N0000001N9-01001+99999102631ADDGF106991999999999999999999
0029228020999991923030720004+61700+030683FM-12+001699999V0209991C000019999999N0000001N9-01721+99999102581ADDGF100991999999999999999999
0029228020999991923030806004+61700+030683FM-12+001699999V0209991C000019999999N0000001N9-02391+99999102591ADDGF100991999999999999999999
0029228020999991923030813004+61700+030683FM-12+001699999V0200901N002119999999N0000001N9-00941+99999102671ADDGF100991999999999999999999
0029228020999991923030820004+61700+030683FM-12+001699999V0209991C000019999999N0000001N9-01721+99999102701ADDGF100991999999999999999999
0029228020999991923030906004+61700+030683FM-12+001699999V0201401N001019999999N0000001N9-02221+99999102871ADDGF108991999999999999999999
0029228020999991923030913004+61700+030683FM-12+001699999V0201401N001019999999N0000001N9-00721+99999103001ADDGF103991999999999999999999
0029228020999991923030920004+61700+030683FM-12+001699999V0209991C000019999999N0000001N9-01501+99999102981ADDGF100991999999999999999999
0029228020999991923031006004+61700+030683FM-12+001699999V0201401N001019999999N0000001N9-00941+99999103161ADDGF108991999999999999999999
0029228020999991923031013004+61700+030683FM-12+001699999V0201401N001019999999N0000001N9-00721+99999103201ADDGF108991999999999999999999
0029228020999991923031020004+61700+030683FM-12+001699999V0209991C000019999999N0000001N9-00941+99999103181ADDGF108991999999999999999999
0029228020999991923031106004+61700+030683FM-12+001699999V0201401N001019999999N0000001N9-01061+99999103321ADDGF108991999999999999999999
0029228020999991923031113004+61700+030683FM-12+001699999V0209991C000019999999N0000001N9-00111+99999103461ADDGF108991999999999999999999
0029228020999991923031120004+61700+030683FM-12+001699999V0209991C000019999999N0000001N9-01001+99999103601ADDGF100991999999999999999999
0029228020999991923031206004+61700+030683FM-12+001699999V0203601N001019999999N0000001N9-01781+99999103881ADDGF108991999999999999999999
0029228020999991923031213004+61700+030683FM-12+001699999V0203601N002119999999N0000001N9-00501+99999103761ADDGF102991999999999999999999
0029228020999991923031220004+61700+030683FM-12+001699999V0209991C000019999999N0000001N9-01331+99999103701ADDGF106991999999999999999999
0029228020999991923031306004+61700+030683FM-12+001699999V0203601N001019999999N0000001N9-01281+99999103441ADDGF106991999999999999999999
0029228020999991923031313004+61700+030683FM-12+001699999V0203601N001019999999N0000001N9-00391+99999103311ADDGF106991999999999999999999
0029228020999991923031320004+61700+030683FM-12+001699999V0209991C000019999999N0000001N9-01111+99999103081ADDGF104991999999999999999999
0029228020999991923031406004+61700+030683FM-12+001699999V0209991C000019999999N0000001N9-01501+99999102901ADDGF106991999999999999999999
0029228020999991923031413004+61700+030683FM-12+001699999V0200501N001019999999N0000001N9-00391+99999102761ADDGF100991999999999999999999
0029228020999991923031420004+61700+030683FM-12+001699999V0209991C000019999999N0000001N9-01001+99999102351ADDGF102991999999999999999999
0029228020999991923031506004+61700+030683FM-12+001699999V0200501N001019999999N0000001N9-00561+99999101991ADDGF108991999999999999999999
0029228020999991923031513004+61700+030683FM-12+001699999V0203601N001019999999N0000001N9+00111+99999101981ADDGF108991999999999999999999
0029228020999991923031520004+61700+030683FM-12+001699999V0209991C000019999999N0000001N9-00391+99999101951ADDGF106991999999999999999999
0029228020999991923031606004+61700+030683FM-12+001699999V0203601N001019999999N0000001N9-00501+99999102121ADDGF105991999999999999999999
0029228020999991923031613004+61700+030683FM-12+001699999V0203601N001019999999N0000001N9+00501+99999102141ADDGF108991999999999999999999
0029228020999991923031620004+61700+030683FM-12+001699999V0203601N001019999999N0000001N9+00111+99999102311ADDGF103991999999999999999999
0029228020999991923031706004+61700+030683FM-12+001699999V0203201N001019999999N0000001N9-00281+99999101991ADDGF106991999999999999999999
0029228020999991923031713004+61700+030683FM-12+001699999V0203201N002119999999N0000001N9+00441+99999101621ADDGF108991999999999999999999
0029228020999991923031720004+61700+030683FM-12+001699999V0203601N006219999999N0000001N9+00281+99999101701ADDGF103991999999999999999999
0029228020999991923031806004+61700+030683FM-12+001699999V0203201N004119999999N0000001N9-00281+99999102181ADDGF108991999999999999999999
0029228020999991923031813004+61700+030683FM-12+001699999V0203201N004119999999N0000001N9+00281+99999101951ADDGF106991999999999999999999
0029228020999991923031820004+61700+030683FM-12+001699999V0203201N002119999999N0000001N9+00111+99999101621ADDGF108991999999999999999999
0029228020999991923031906004+61700+030683FM-12+001699999V0209991C000019999999N0000001N9-00111+99999101311ADDGF100991999999999999999999
0029228020999991923031913004+61700+030683FM-12+001699999V0203201N003119999999N0000001N9+00721+99999101031ADDGF100991999999999999999999
0029228020999991923031920004+61700+030683FM-12+001699999V0203201N001019999999N0000001N9+00171+99999101101ADDGF100991999999999999999999
0029228020999991923032006004+61700+030683FM-12+001699999V0203201N003119999999N0000001N9+00171+99999100551ADDGF108991999999999999999999
0029228020999991923032013004+61700+030683FM-12+001699999V0203201N010819999999N0000001N9+00441+99999100701ADDGF105991999999999999999999
0029228020999991923032020004+61700+030683FM-12+001699999V0203201N002119999999N0000001N9-00171+99999101081ADDGF100991999999999999999999
0029228020999991923032106004+61700+030683FM-12+001699999V0203201N004119999999N0000001N9-00111+99999101221ADDGF107991999999999999999999
0029228020999991923032113004+61700+030683FM-12+001699999V0203201N010819999999N0000001N9+00331+99999101551ADDGF102991999999999999999999
0029228020999991923032120004+61700+030683FM-12+001699999V0203201N001019999999N0000001N9+00001+99999101801ADDGF104991999999999999999999
0029228020999991923032206004+61700+030683FM-12+001699999V0209991C000019999999N0000001N9-00331+99999101501ADDGF100991999999999999999999
0029228020999991923032213004+61700+030683FM-12+001699999V0203601N006219999999N0000001N9+00671+99999100941ADDGF106991999999999999999999
0029228020999991923032220004+61700+030683FM-12+001699999V0203201N004119999999N0000001N9+00281+99999100871ADDGF106991999999999999999999
0029228020999991923032306004+61700+030683FM-12+001699999V0203201N004119999999N0000001N9-00111+99999101521ADDGF106991999999999999999999
0029228020999991923032313004+61700+030683FM-12+001699999V0203201N006219999999N0000001N9+00391+99999101821ADDGF106991999999999999999999
0029228020999991923032320004+61700+030683FM-12+001699999V0203201N001019999999N0000001N9-00281+99999102201ADDGF102991999999999999999999
0029228020999991923032406004+61700+030683FM-12+001699999V0203401N001019999999N0000001N9-00891+99999102301ADDGF106991999999999999999999
0029228020999991923032413004+61700+030683FM-12+001699999V0209991C000019999999N0000001N9+00331+99999101981ADDGF100991999999999999999999
0029228020999991923032420004+61700+030683FM-12+001699999V0209991C000019999999N0000001N9+00281+99999101631ADDGF103991999999999999999999
0029228020999991923032506004+61700+030683FM-12+001699999V0203401N006219999999N0000001N9-00061+99999101831ADDGF102991999999999999999999
0029228020999991923032513004+61700+030683FM-12+001699999V0203401N006219999999N0000001N9+00611+99999101951ADDGF100991999999999999999999
0029228020999991923032520004+61700+030683FM-12+001699999V0203401N001019999999N0000001N9-00111+99999102391ADDGF100991999999999999999999
0029228020999991923032606004+61700+030683FM-12+001699999V0203401N001019999999N0000001N9-00561+99999102881ADDGF106991999999999999999999
0029228020999991923032613004+61700+030683FM-12+001699999V0203601N001019999999N0000001N9+00171+99999103001ADDGF100991999999999999999999
0029228020999991923032620004+61700+030683FM-12+001699999V0209991C000019999999N0000001N9-00441+99999102961ADDGF100991999999999999999999
0029228020999991923032706004+61700+030683FM-12+001699999V0209991C000019999999N0000001N9-00781+99999102681ADDGF100991999999999999999999
0029228020999991923032713004+61700+030683FM-12+001699999V0202701N004119999999N0000001N9+00331+99999102311ADDGF108991999999999999999999
0029228020999991923032720004+61700+030683FM-12+001699999V0202701N001019999999N0000001N9+00281+99999102031ADDGF108991999999999999999999
0029228020999991923032806004+61700+030683FM-12+001699999V0203201N001019999999N0000001N9+00111+99999101821ADDGF108991999999999999999999
0029228020999991923032813004+61700+030683FM-12+001699999V0203201N006219999999N0000001N9+00171+99999101681ADDGF108991999999999999999999
0029228020999991923032820004+61700+030683FM-12+001699999V0203201N001019999999N0000001N9+00111+99999101261ADDGF106991999999999999999999
0029228020999991923032906004+61700+030683FM-12+001699999V0203201N006219999999N0000001N9+00171+99999100951ADDGF108991999999999999999999
0029228020999991923032913004+61700+030683FM-12+001699999V0203601N004119999999N0000001N9+00221+99999101701ADDGF108991999999999999999999
0029228020999991923032920004+61700+030683FM-12+001699999V0200501N002119999999N0000001N9-00391+99999102421ADDGF107991999999999999999999
0029228020999991923033006004+61700+030683FM-12+001699999V0209991C000019999999N0000001N9-00831+99999102501ADDGF106991999999999999999999
0029228020999991923033013004+61700+030683FM-12+001699999V0203401N004119999999N0000001N9-00221+99999102301ADDGF108991999999999999999999
0029228020999991923033020004+61700+030683FM-12+001699999V0209991C000019999999N0000001N9-00441+99999102391ADDGF108991999999999999999999
0029228020999991923033106004+61700+030683FM-12+001699999V0201401N002119999999N0000001N9-00501+99999102761ADDGF108991999999999999999999
0029228020999991923033113004+61700+030683FM-12+001699999V0203601N002119999999N0000001N9-00171+99999102751ADDGF100991999999999999999999
0029228020999991923033120004+61700+030683FM-12+001699999V0203601N002119999999N0000001N9-00561+99999102641ADDGF106991999999999999999999
0029228020999991923040106004+61700+030683FM-12+001699999V0200201N001019999999N0000001N9-01111+99999102361ADDGF105991999999999999999999
0029228020999991923040113004+61700+030683FM-12+001699999V0203601N004119999999N0000001N9+00331+99999101861ADDGF105991999999999999999999
0029228020999991923040120004+61700+030683FM-12+001699999V0203601N002119999999N0000001N9+00061+99999101541ADDGF108991999999999999999999
0029228020999991923040206004+61700+030683FM-12+001699999V0203601N001019999999N0000001N9-00061+99999101711ADDGF108991999999999999999999
0029228020999991923040213004+61700+030683FM-12+001699999V0203601N004119999999N0000001N9+00221+99999101901ADDGF104991999999999999999999
0029228020999991923040220004+61700+030683FM-12+001699999V0203601N001019999999N0000001N9-00331+99999102071ADDGF100991999999999999999999
0029228020999991923040306004+61700+030683FM-12+001699999V0203201N001019999999N0000001N9-00331+99999102161ADDGF108991999999999999999999
0029228020999991923040313004+61700+030683FM-12+001699999V0203401N002119999999N0000001N9+00501+99999102271ADDGF108991999999999999999999
0029228020999991923040320004+61700+030683FM-12+001699999V0209991C000019999999N0000001N9+00111+99999102391ADDGF107991999999999999999999
0029228020999991923040406004+61700+030683FM-12+001699999V0209991C000019999999N0000001N9-00501+99999102431ADDGF104991999999999999999999
0029228020999991923040413004+61700+030683FM-12+001699999V0203201N002119999999N0000001N9+00611+99999102351ADDGF106991999999999999999999
0029228020999991923040420004+61700+030683FM-12+001699999V0209991C000019999999N0000001N9+00111+99999102351ADDGF108991999999999999999999
0029228020999991923040506004+61700+030683FM-12+001699999V0203201N001019999999N0000001N9+00061+99999102481ADDGF105991999999999999999999
0029228020999991923040513004+61700+030683FM-12+001699999V0203201N002119999999N0000001N9+00831+99999102431ADDGF106991999999999999999999
0029228020999991923040520004+61700+030683FM-12+001699999V0203601N001019999999N0000001N9+00221+99999102421ADDGF108991999999999999999999
0035228020999991923040606004+61700+030683FM-12+001699999V0203601N001019999999N0000001N9+00061+99999102581ADDGF108991999999999999999999MW1721
0029228020999991923040613004+61700+030683FM-12+001699999V0200701N004119999999N0000001N9+00001+99999102591ADDGF100991999999999999999999
0029228020999991923040620004+61700+030683FM-12+001699999V0209991C000019999999N0000001N9-00281+99999102561ADDGF100991999999999999999999
0029228020999991923040706004+61700+030683FM-12+001699999V0200501N001019999999N0000001N9-00611+99999102461ADDGF108991999999999999999999
0029228020999991923040713004+61700+030683FM-12+001699999V0200501N001019999999N0000001N9+00331+99999102441ADDGF108991999999999999999999
0029228020999991923040720004+61700+030683FM-12+001699999V0203601N002119999999N0000001N9+00171+99999102181ADDGF102991999999999999999999
0046228020999991923040806004+61700+030683FM-12+001699999V0203601N001019999999N0000001N9-00171+99999101981ADDAJ100009199999999GF107991999999999999999999
0029228020999991923040813004+61700+030683FM-12+001699999V0203401N001019999999N0000001N9+00721+99999101471ADDGF106991999999999999999999
0029228020999991923040820004+61700+030683FM-12+001699999V0209991C000019999999N0000001N9+00331+99999101481ADDGF108991999999999999999999
0046228020999991923040906004+61700+030683FM-12+001699999V0203401N001019999999N0000001N9-00061+99999101721ADDAJ100009199999999GF106991999999999999999999
0029228020999991923040913004+61700+030683FM-12+001699999V0203401N002119999999N0000001N9+00781+99999101741ADDGF100991999999999999999999
0029228020999991923040920004+61700+030683FM-12+001699999V0203201N002119999999N0000001N9-00061+99999101551ADDGF106991999999999999999999
0046228020999991923041006004+61700+030683FM-12+001699999V0203201N001019999999N0000001N9-00111+99999101081ADDAJ100009199999999GF108991999999999999999999
0029228020999991923041013004+61700+030683FM-12+001699999V0203401N004119999999N0000001N9+00721+99999100761ADDGF108991999999999999999999
0029228020999991923041020004+61700+030683FM-12+001699999V0203201N002119999999N0000001N9+00001+99999101021ADDGF108991999999999999999999
0046228020999991923041106004+61700+030683FM-12+001699999V0203201N002119999999N0000001N9-00171+99999101021ADDAJ100009199999999GF108991999999999999999999
0035228020999991923041113004+61700+030683FM-12+001699999V0203201N004119999999N0000001N9-00061+99999100711ADDGF108991999999999999999999MW1721
0029228020999991923041120004+61700+030683FM-12+001699999V0200501N001019999999N0000001N9-00561+99999100951ADDGF103991999999999999999999
0046228020999991923041206004+61700+030683FM-12+001699999V0203201N004119999999N0000001N9-00721+99999101351ADDAJ100009199999999GF100991999999999999999999
0029228020999991923041213004+61700+030683FM-12+001699999V0203201N006219999999N0000001N9-00061+99999101621ADDGF105991999999999999999999
0029228020999991923041220004+61700+030683FM-12+001699999V0203601N001019999999N0000001N9-00331+99999101661ADDGF108991999999999999999999
0046228020999991923041306004+61700+030683FM-12+001699999V0203201N001019999999N0000001N9-00561+99999101681ADDAJ100009199999999GF108991999999999999999999
0029228020999991923041313004+61700+030683FM-12+001699999V0203601N001019999999N0000001N9+00171+99999101671ADDGF106991999999999999999999
0029228020999991923041320004+61700+030683FM-12+001699999V0203601N001019999999N0000001N9-00441+99999101631ADDGF102991999999999999999999
0046228020999991923041406004+61700+030683FM-12+001699999V0203601N001019999999N0000001N9-00891+99999101671ADDAJ100009199999999GF106991999999999999999999
0029228020999991923041413004+61700+030683FM-12+001699999V0201801N004119999999N0000001N9-00111+99999101521ADDGF108991999999999999999999
0029228020999991923041420004+61700+030683FM-12+001699999V0201401N001019999999N0000001N9-00441+99999101361ADDGF108991999999999999999999
0046228020999991923041506004+61700+030683FM-12+001699999V0201401N002119999999N0000001N9-00281+99999100981ADDAJ100009199999999GF108991999999999999999999
0035228020999991923041513004+61700+030683FM-12+001699999V0200901N001019999999N0000001N9-00061+99999100701ADDGF108991999999999999999999MW1721
0029228020999991923041520004+61700+030683FM-12+001699999V0200701N002119999999N0000001N9-00171+99999100561ADDGF108991999999999999999999
0046228020999991923041606004+61700+030683FM-12+001699999V0200201N002119999999N0000001N9-00281+99999100741ADDAJ100009199999999GF106991999999999999999999
0029228020999991923041613004+61700+030683FM-12+001699999V0203601N003119999999N0000001N9+00391+99999100991ADDGF100991999999999999999999
0029228020999991923041620004+61700+030683FM-12+001699999V0203601N001019999999N0000001N9-00171+99999101461ADDGF100991999999999999999999
0046228020999991923041706004+61700+030683FM-12+001699999V0209991C000019999999N0000001N9-00441+99999101861ADDAJ100009199999999GF100991999999999999999999
0029228020999991923041713004+61700+030683FM-12+001699999V0200501N002119999999N0000001N9+00561+99999101881ADDGF100991999999999999999999
0029228020999991923041720004+61700+030683FM-12+001699999V0209991C000019999999N0000001N9-00061+99999101841ADDGF108991999999999999999999
0046228020999991923041806004+61700+030683FM-12+001699999V0200501N001019999999N0000001N9+00001+99999101701ADDAJ100009199999999GF102991999999999999999999
0029228020999991923041813004+61700+030683FM-12+001699999V0200901N002119999999N0000001N9+00781+99999101261ADDGF106991999999999999999999
0029228020999991923041820004+61700+030683FM-12+001699999V0209991C000019999999N0000001N9+00281+99999100941ADDGF106991999999999999999999
0046228020999991923041906004+61700+030683FM-12+001699999V0200901N001019999999N0000001N9+00221+99999100311ADDAJ100009199999999GF108991999999999999999999
0035228020999991923041913004+61700+030683FM-12+001699999V0209991C000019999999N0000001N9+00281+99999100141ADDGF108991999999999999999999MW1601
0035228020999991923041920004+61700+030683FM-12+001699999V0209991C000019999999N0000001N9+00111+99999100111ADDGF108991999999999999999999MW1601
0052228020999991923042006004+61700+030683FM-12+001699999V0209991C000019999999N0000001N9+00111+99999100121ADDAJ100009199999999GF108991999999999999999999MW1621
0035228020999991923042013004+61700+030683FM-12+001699999V0200901N002119999999N0000001N9+00171+99999100281ADDGF108991999999999999999999MW1621
0029228020999991923042020004+61700+030683FM-12+001699999V0203601N002119999999N0000001N9-00061+99999100361ADDGF108991999999999999999999
0046228020999991923042106004+61700+030683FM-12+001699999V0203201N002119999999N0000001N9-00171+99999100321ADDAJ100009199999999GF108991999999999999999999
0029228020999991923042113004+61700+030683FM-12+001699999V0203201N002119999999N0000001N9+00061+99999100381ADDGF108991999999999999999999
0029228020999991923042120004+61700+030683FM-12+001699999V0203201N001019999999N0000001N9-00281+99999100421ADDGF108991999999999999999999
0046228020999991923042206004+61700+030683FM-12+001699999V0203201N001019999999N0000001N9-00331+99999100321ADDAJ100009199999999GF104991999999999999999999
0029228020999991923042213004+61700+030683FM-12+001699999V0203201N006219999999N0000001N9+00111+99999100431ADDGF106991999999999999999999
0029228020999991923042220004+61700+030683FM-12+001699999V0209991C000019999999N0000001N9-00221+99999100551ADDGF106991999999999999999999
0046228020999991923042306004+61700+030683FM-12+001699999V0209991C000019999999N0000001N9-00281+99999100801ADDAJ100009199999999GF106991999999999999999999
0029228020999991923042313004+61700+030683FM-12+001699999V0200501N004119999999N0000001N9+00171+99999100961ADDGF106991999999999999999999
0029228020999991923042320004+61700+030683FM-12+001699999V0209991C000019999999N0000001N9-00281+99999101111ADDGF100991999999999999999999
0046228020999991923042406004+61700+030683FM-12+001699999V0203601N001019999999N0000001N9-00281+99999101361ADDAJ100009199999999GF106991999999999999999999
0029228020999991923042413004+61700+030683FM-12+001699999V0203601N002119999999N0000001N9+00001+99999101201ADDGF100991999999999999999999
0029228020999991923042420004+61700+030683FM-12+001699999V0200901N004119999999N0000001N9-00221+99999100961ADDGF108991999999999999999999
0046228020999991923042506004+61700+030683FM-12+001699999V0200501N006219999999N0000001N9-00391+99999100301ADDAJ100009199999999GF108991999999999999999999
0035228020999991923042513004+61700+030683FM-12+001699999V0200501N006219999999N0000001N9-00391+99999100121ADDGF108991999999999999999999MW1721
0035228020999991923042520004+61700+030683FM-12+001699999V0200501N008219999999N0000001N9-00391+99999100061ADDGF108991999999999999999999MW1721
0029228020999991923042606004+61700+030683FM-12+001699999V0203601N002119999999N0000001N9-00441+99999100621ADDGF108991999999999999999999
0029228020999991923042613004+61700+030683FM-12+001699999V0209991C000019999999N0000001N9+00281+99999101071ADDGF108991999999999999999999
0029228020999991923042620004+61700+030683FM-12+001699999V0203601N001019999999N0000001N9-00061+99999101301ADDGF108991999999999999999999
0029228020999991923042706004+61700+030683FM-12+001699999V0201401N001019999999N0000001N9-00331+99999101241ADDGF105991999999999999999999
0035228020999991923042713004+61700+030683FM-12+001699999V0201401N009819999999N0000001N9-00111+99999100641ADDGF108991999999999999999999MW1721
0029228020999991923042720004+61700+030683FM-12+001699999V0201101N013919999999N0000001N9+00111+99999099561ADDGF108991999999999999999999
0046228020999991923042806004+61700+030683FM-12+001699999V0202301N009819999999N0000001N9+00441+99999099161ADDAJ100009199999999GF108991999999999999999999
0029228020999991923042813004+61700+030683FM-12+001699999V0202301N006219999999N0000001N9+00561+99999099441ADDGF108991999999999999999999
0029228020999991923042820004+61700+030683FM-12+001699999V0202301N001019999999N0000001N9+00281+99999099551ADDGF108991999999999999999999
0046228020999991923042906004+61700+030683FM-12+001699999V0209991C000019999999N0000001N9+00061+99999099521ADDAJ100009199999999GF108991999999999999999999
0029228020999991923042913004+61700+030683FM-12+001699999V0203201N002119999999N0000001N9+00831+99999099601ADDGF100991999999999999999999
0029228020999991923042920004+61700+030683FM-12+001699999V0201801N002119999999N0000001N9+00111+99999099671ADDGF108991999999999999999999
0046228020999991923043006004+61700+030683FM-12+001699999V0203201N002119999999N0000001N9-00221+99999100381ADDAJ100009199999999GF107991999999999999999999
0029228020999991923043013004+61700+030683FM-12+001699999V0202301N004119999999N0000001N9+00281+99999100841ADDGF107991999999999999999999
0029228020999991923043020004+61700+030683FM-12+001699999V0203201N001019999999N0000001N9+00061+99999101021ADDGF108991999999999999999999
0046228020999991923050106004+61700+030683FM-12+001699999V0203201N001019999999N0000001N9+00221+99999101021ADDAJ100009199999999GF100991999999999999999999
0029228020999991923050113004+61700+030683FM-12+001699999V0201401N011819999999N0000001N9+00561+99999100911ADDGF106991999999999999999999
0029228020999991923050120004+61700+030683FM-12+001699999V0201401N001019999999N0000001N9+00001+99999100601ADDGF108991999999999999999999
0046228020999991923050206004+61700+030683FM-12+001699999V0201401N001019999999N0000001N9+00171+99999100101ADDAJ100009199999999GF108991999999999999999999
0029228020999991923050213004+61700+030683FM-12+001699999V0201401N004119999999N0000001N9+00611+99999099861ADDGF108991999999999999999999
0029228020999991923050220004+61700+030683FM-12+001699999V0203601N001019999999N0000001N9+00221+99999100351ADDGF108991999999999999999999
0046228020999991923050306004+61700+030683FM-12+001699999V0203601N004119999999N0000001N9-00281+99999100831ADDAJ100009199999999GF100991999999999999999999
0029228020999991923050313004+61700+030683FM-12+001699999V0203601N006219999999N0000001N9+00171+99999101231ADDGF106991999999999999999999
0029228020999991923050320004+61700+030683FM-12+001699999V0200501N002119999999N0000001N9-00171+99999101301ADDGF108991999999999999999999
0046228020999991923050406004+61700+030683FM-12+001699999V0200501N001019999999N0000001N9-00171+99999101661ADDAJ100009199999999GF100991999999999999999999
0029228020999991923050413004+61700+030683FM-12+001699999V0201401N003119999999N0000001N9+00281+99999101781ADDGF105991999999999999999999
0029228020999991923050420004+61700+030683FM-12+001699999V0201801N001019999999N0000001N9-00111+99999101921ADDGF105991999999999999999999
0046228020999991923050506004+61700+030683FM-12+001699999V0201801N001019999999N0000001N9+00061+99999102151ADDAJ100009199999999GF106991999999999999999999
0029228020999991923050513004+61700+030683FM-12+001699999V0201401N009819999999N0000001N9+00281+99999101941ADDGF106991999999999999999999
0029228020999991923050520004+61700+030683FM-12+001699999V0201401N004119999999N0000001N9+00171+99999101621ADDGF108991999999999999999999
0046228020999991923050606004+61700+030683FM-12+001699999V0201401N002119999999N0000001N9+00281+99999101361ADDAJ100009199999999GF108991999999999999999999
0029228020999991923050613004+61700+030683FM-12+001699999V0201401N001019999999N0000001N9+00671+99999101561ADDGF108991999999999999999999
0029228020999991923050620004+61700+030683FM-12+001699999V0201401N001019999999N0000001N9+00331+99999101561ADDGF108991999999999999999999
0052228020999991923050706004+61700+030683FM-12+001699999V0200901N009819999999N0000001N9+00171+99999100961ADDAJ100009199999999GF108991999999999999999999MW1621
0035228020999991923050713004+61700+030683FM-12+001699999V0200901N011819999999N0000001N9+00281+99999100461ADDGF108991999999999999999999MW1621
0035228020999991923050720004+61700+030683FM-12+001699999V0201401N002119999999N0000001N9+00221+99999100161ADDGF108991999999999999999999MW1621
0046228020999991923050806004+61700+030683FM-12+001699999V0209991C000019999999N0000001N9+00281+99999100071ADDAJ100009199999999GF108991999999999999999999
0029228020999991923050813004+61700+030683FM-12+001699999V0203201N004119999999N0000001N9+01221+99999100181ADDGF102991999999999999999999
0029228020999991923050820004+61700+030683FM-12+001699999V0209991C000019999999N0000001N9+00561+99999100381ADDGF100991999999999999999999
0046228020999991923050906004+61700+030683FM-12+001699999V0203201N002119999999N0000001N9+00501+99999100431ADDAJ100009199999999GF103991999999999999999999
0029228020999991923050913004+61700+030683FM-12+001699999V0201401N006219999999N0000001N9+00941+99999100441ADDGF103991999999999999999999
0029228020999991923050920004+61700+030683FM-12+001699999V0209991C000019999999N0000001N9+00331+99999100461ADDGF108991999999999999999999
0046228020999991923051006004+61700+030683FM-12+001699999V0201401N001019999999N0000001N9+00441+99999100341ADDAJ100009199999999GF103991999999999999999999
0029228020999991923051013004+61700+030683FM-12+001699999V0200901N002119999999N0000001N9+01061+99999100191ADDGF107991999999999999999999
0029228020999991923051020004+61700+030683FM-12+001699999V0201401N001019999999N0000001N9+00501+99999100221ADDGF108991999999999999999999
0046228020999991923051106004+61700+030683FM-12+001699999V0201401N001019999999N0000001N9+00441+99999100311ADDAJ100009199999999GF108991999999999999999999
0029228020999991923051113004+61700+030683FM-12+001699999V0200901N004119999999N0000001N9+01061+99999100391ADDGF107991999999999999999999
0035228020999991923051120004+61700+030683FM-12+001699999V0200701N001019999999N0000001N9+00561+99999100391ADDGF108991999999999999999999MW1621
0052228020999991923051206004+61700+030683FM-12+001699999V0200901N001019999999N0000001N9+00281+99999100021ADDAJ100009199999999GF108991999999999999999999MW1621
0029228020999991923051213004+61700+030683FM-12+001699999V0200901N001019999999N0000001N9+00281+99999100431ADDGF108991999999999999999999
0029228020999991923051220004+61700+030683FM-12+001699999V0200901N001019999999N0000001N9+00171+99999101301ADDGF108991999999999999999999
0046228020999991923051306004+61700+030683FM-12+001699999V0200901N001019999999N0000001N9+00281+99999101861ADDAJ100009199999999GF106991999999999999999999
0029228020999991923051313004+61700+030683FM-12+001699999V0201401N004119999999N0000001N9+00391+99999101761ADDGF108991999999999999999999
0029228020999991923051320004+61700+030683FM-12+001699999V0200901N004119999999N0000001N9+00671+99999101201ADDGF108991999999999999999999
0046228020999991923051406004+61700+030683FM-12+001699999V0202501N002119999999N0000001N9+00671+99999101301ADDAJ100009199999999GF108991999999999999999999
0029228020999991923051413004+61700+030683FM-12+001699999V0201401N001019999999N0000001N9+01001+99999101431ADDGF106991999999999999999999
0029228020999991923051420004+61700+030683FM-12+001699999V0209991C000019999999N0000001N9+00721+99999100821ADDGF108991999999999999999999
0046228020999991923051506004+61700+030683FM-12+001699999V0202301N002119999999N0000001N9+00831+99999100831ADDAJ100009199999999GF102991999999999999999999
0029228020999991923051513004+61700+030683FM-12+001699999V0201601N009819999999N0000001N9+01171+99999101141ADDGF103991999999999999999999
0029228020999991923051520004+61700+030683FM-12+001699999V0201601N002119999999N0000001N9+00831+99999101511ADDGF103991999999999999999999
0046228020999991923051606004+61700+030683FM-12+001699999V0200501N001019999999N0000001N9+00611+99999101111ADDAJ100009199999999GF108991999999999999999999
0029228020999991923051613004+61700+030683FM-12+001699999V0201801N002119999999N0000001N9+00891+99999100481ADDGF108991999999999999999999
0029228020999991923051620004+61700+030683FM-12+001699999V0203201N006219999999N0000001N9+00501+99999101241ADDGF108991999999999999999999
0046228020999991923051706004+61700+030683FM-12+001699999V0203201N002119999999N0000001N9+00671+99999101881ADDAJ100009199999999GF103991999999999999999999
0029228020999991923051713004+61700+030683FM-12+001699999V0201401N004119999999N0000001N9+00941+99999101741ADDGF100991999999999999999999
0029228020999991923051720004+61700+030683FM-12+001699999V0201401N001019999999N0000001N9+00941+99999101181ADDGF105991999999999999999999
0046228020999991923051806004+61700+030683FM-12+001699999V0201401N001019999999N0000001N9+01061+99999101221ADDAJ100009199999999GF106991999999999999999999
0029228020999991923051813004+61700+030683FM-12+001699999V0201401N001019999999N0000001N9+01331+99999101401ADDGF108991999999999999999999
0029228020999991923051820004+61700+030683FM-12+001699999V0201401N001019999999N0000001N9+01111+99999101241ADDGF108991999999999999999999
0046228020999991923051906004+61700+030683FM-12+001699999V0200501N002119999999N0000001N9+01001+99999100941ADDAJ100009199999999GF108991999999999999999999
0035228020999991923051913004+61700+030683FM-12+001699999V0203601N001019999999N0000001N9+00941+99999100951ADDGF108991999999999999999999MW1621
0029228020999991923051920004+61700+030683FM-12+001699999V0203601N002119999999N0000001N9+00941+99999101041ADDGF108991999999999999999999
0046228020999991923052006004+61700+030683FM-12+001699999V0200501N001019999999N0000001N9+01111+99999101311ADDAJ100009199999999GF103991999999999999999999
0029228020999991923052013004+61700+030683FM-12+001699999V0201401N006219999999N0000001N9+01391+99999101361ADDGF106991999999999999999999
0035228020999991923052020004+61700+030683FM-12+001699999V0202301N001019999999N0000001N9+00891+99999101311ADDGF108991999999999999999999MW1621
0046228020999991923052106004+61700+030683FM-12+001699999V0202301N001019999999N0000001N9+00781+99999101481ADDAJ100009199999999GF104991999999999999999999
0029228020999991923052113004+61700+030683FM-12+001699999V0201401N006219999999N0000001N9+01391+99999101561ADDGF106991999999999999999999
0029228020999991923052120004+61700+030683FM-12+001699999V0201401N001019999999N0000001N9+00781+99999101601ADDGF104991999999999999999999
0046228020999991923052206004+61700+030683FM-12+001699999V0201401N001019999999N0000001N9+00941+99999101471ADDAJ100009199999999GF100991999999999999999999
0029228020999991923052213004+61700+030683FM-12+001699999V0201401N004119999999N0000001N9+01831+99999101141ADDGF102991999999999999999999
0029228020999991923052220004+61700+030683FM-12+001699999V0201401N001019999999N0000001N9+01331+99999100841ADDGF106991999999999999999999
0046228020999991923052306004+61700+030683FM-12+001699999V0209991C000019999999N0000001N9+01061+99999100641ADDAJ100009199999999GF106991999999999999999999
0029228020999991923052313004+61700+030683FM-12+001699999V0201401N004119999999N0000001N9+01171+99999100541ADDGF108991999999999999999999
0029228020999991923052320004+61700+030683FM-12+001699999V0201401N001019999999N0000001N9+00781+99999100551ADDGF108991999999999999999999
0046228020999991923052406004+61700+030683FM-12+001699999V0202701N001019999999N0000001N9+00781+99999100711ADDAJ100009199999999GF100991999999999999999999
0029228020999991923052413004+61700+030683FM-12+001699999V0201601N006219999999N0000001N9+00781+99999100671ADDGF108991999999999999999999
0029228020999991923052420004+61700+030683FM-12+001699999V0201401N001019999999N0000001N9+00671+99999100301ADDGF108991999999999999999999
0052228020999991923052506004+61700+030683FM-12+001699999V0209991C000019999999N0000001N9+00391+99999099121ADDAJ100009199999999GF108991999999999999999999MW1621
0035228020999991923052513004+61700+030683FM-12+001699999V0202701N009819999999N0000001N9+01001+99999100231ADDGF108991999999999999999999MW1621
0029228020999991923052520004+61700+030683FM-12+001699999V0203201N001019999999N0000001N9+00781+99999101071ADDGF108991999999999999999999
0046228020999991923052606004+61700+030683FM-12+001699999V0203201N001019999999N0000001N9+01171+99999101861ADDAJ100009199999999GF102991999999999999999999
0029228020999991923052613004+61700+030683FM-12+001699999V0201401N004119999999N0000001N9+01501+99999102121ADDGF104991999999999999999999
0029228020999991923052620004+61700+030683FM-12+001699999V0201101N001019999999N0000001N9+00941+99999102101ADDGF100991999999999999999999
0046228020999991923052706004+61700+030683FM-12+001699999V0201401N001019999999N0000001N9+00781+99999101831ADDAJ100009199999999GF108991999999999999999999
0035228020999991923052713004+61700+030683FM-12+001699999V0201401N001019999999N0000001N9+01001+99999101221ADDGF108991999999999999999999MW1601
0035228020999991923052720004+61700+030683FM-12+001699999V0209991C000019999999N0000001N9+01001+99999100471ADDGF108991999999999999999999MW1601
0052228020999991923052806004+61700+030683FM-12+001699999V0209991C000019999999N0000001N9+00941+99999099991ADDAJ100009199999999GF108991999999999999999999MW1621
0035228020999991923052813004+61700+030683FM-12+001699999V0203601N006219999999N0000001N9+00891+99999099911ADDGF108991999999999999999999MW1621
0029228020999991923052820004+61700+030683FM-12+001699999V0202701N001019999999N0000001N9+00721+99999100191ADDGF108991999999999999999999
0046228020999991923052906004+61700+030683FM-12+001699999V0202701N001019999999N0000001N9+00831+99999100441ADDAJ100009199999999GF103991999999999999999999
0029228020999991923052913004+61700+030683FM-12+001699999V0203401N002119999999N0000001N9+01001+99999100521ADDGF104991999999999999999999
0029228020999991923052920004+61700+030683FM-12+001699999V0203201N002119999999N0000001N9+00561+99999100661ADDGF108991999999999999999999
0046228020999991923053006004+61700+030683FM-12+001699999V0200201N001019999999N0000001N9+00721+99999100781ADDAJ100009199999999GF108991999999999999999999
0029228020999991923053013004+61700+030683FM-12+001699999V0203201N004119999999N0000001N9+01061+99999101041ADDGF106991999999999999999999
0029228020999991923053020004+61700+030683FM-12+001699999V0203601N002119999999N0000001N9+00561+99999101241ADDGF103991999999999999999999
0046228020999991923053106004+61700+030683FM-12+001699999V0200501N002119999999N0000001N9+00611+99999101701ADDAJ100009199999999GF106991999999999999999999
0029228020999991923053113004+61700+030683FM-12+001699999V0200501N004119999999N0000001N9+00671+99999101751ADDGF108991999999999999999999
0029228020999991923053120004+61700+030683FM-12+001699999V0201801N001019999999N0000001N9+00561+99999101481ADDGF108991999999999999999999
0046228020999991923060106004+61700+030683FM-12+001699999V0202501N002119999999N0000001N9+00561+99999101071ADDAJ100009199999999GF108991999999999999999999
0029228020999991923060113004+61700+030683FM-12+001699999V0201401N006219999999N0000001N9+00781+99999100721ADDGF108991999999999999999999
0029228020999991923060120004+61700+030683FM-12+001699999V0201401N001019999999N0000001N9+00561+99999100281ADDGF108991999999999999999999
0052228020999991923060206004+61700+030683FM-12+001699999V0209991C000019999999N0000001N9+00611+99999100021ADDAJ100009199999999GF108991999999999999999999MW1621
0029228020999991923060213004+61700+030683FM-12+001699999V0200501N002119999999N0000001N9+00671+99999100271ADDGF108991999999999999999999
0029228020999991923060220004+61700+030683FM-12+001699999V0209991C000019999999N0000001N9+00721+99999100221ADDGF106991999999999999999999
0046228020999991923060306004+61700+030683FM-12+001699999V0203201N001019999999N0000001N9+00561+99999100221ADDAJ100009199999999GF108991999999999999999999
0029228020999991923060313004+61700+030683FM-12+001699999V0202501N001019999999N0000001N9+00941+99999100111ADDGF106991999999999999999999
0029228020999991923060320004+61700+030683FM-12+001699999V0201601N002119999999N0000001N9+00561+99999099911ADDGF105991999999999999999999
0046228020999991923060406004+61700+030683FM-12+001699999V0201801N001019999999N0000001N9+00671+99999099431ADDAJ100009199999999GF106991999999999999999999
0029228020999991923060413004+61700+030683FM-12+001699999V0201401N002119999999N0000001N9+01281+99999099201ADDGF107991999999999999999999
0029228020999991923060420004+61700+030683FM-12+001699999V0209991C000019999999N0000001N9+00831+99999099361ADDGF105991999999999999999999
0046228020999991923060506004+61700+030683FM-12+001699999V0209991C000019999999N0000001N9+00561+99999099441ADDAJ100009199999999GF108991999999999999999999
0035228020999991923060513004+61700+030683FM-12+001699999V0201401N004119999999N0000001N9+00561+99999099541ADDGF108991999999999999999999MW1621
0029228020999991923060520004+61700+030683FM-12+001699999V0209991C000019999999N0000001N9+00441+99999099681ADDGF104991999999999999999999
0046228020999991923060606004+61700+030683FM-12+001699999V0203201N001019999999N0000001N9+00891+99999099671ADDAJ100009199999999GF106991999999999999999999
0029228020999991923060613004+61700+030683FM-12+001699999V0203201N002119999999N0000001N9+00941+99999099741ADDGF108991999999999999999999
0029228020999991923060620004+61700+030683FM-12+001699999V0203201N001019999999N0000001N9+00781+99999099921ADDGF102991999999999999999999
0046228020999991923060706004+61700+030683FM-12+001699999V0202701N001019999999N0000001N9+00831+99999100121ADDAJ100009199999999GF106991999999999999999999
0035228020999991923060713004+61700+030683FM-12+001699999V0201601N004119999999N0000001N9+00671+99999100221ADDGF108991999999999999999999MW1601
0029228020999991923060720004+61700+030683FM-12+001699999V0209991C000019999999N0000001N9+00441+99999100071ADDGF104991999999999999999999
0046228020999991923060806004+61700+030683FM-12+001699999V0203201N004119999999N0000001N9+00561+99999100341ADDAJ100009199999999GF108991999999999999999999
0029228020999991923060813004+61700+030683FM-12+001699999V0202501N004119999999N0000001N9+01281+99999100621ADDGF104991999999999999999999
0029228020999991923060820004+61700+030683FM-12+001699999V0202001N001019999999N0000001N9+00891+99999100621ADDGF107991999999999999999999
0052228020999991923060906004+61700+030683FM-12+001699999V0202301N008219999999N0000001N9+00611+99999099921ADDAJ100009199999999GF108991999999999999999999MW1621
0035228020999991923060913004+61700+030683FM-12+001699999V0201801N004119999999N0000001N9+00781+99999099321ADDGF108991999999999999999999MW1621
0029228020999991923060920004+61700+030683FM-12+001699999V0202301N001019999999N0000001N9+00891+99999099031ADDGF108991999999999999999999
0046228020999991923061006004+61700+030683FM-12+001699999V0203201N004119999999N0000001N9+00891+99999098951ADDAJ100009199999999GF108991999999999999999999
0029228020999991923061013004+61700+030683FM-12+001699999V0203201N002119999999N0000001N9+01501+99999099581ADDGF105991999999999999999999
0029228020999991923061020004+61700+030683FM-12+001699999V0203201N001019999999N0000001N9+01061+99999099861ADDGF106991999999999999999999
0046228020999991923061106004+61700+030683FM-12+001699999V0209991C000019999999N0000001N9+01111+99999099831ADDAJ100009199999999GF108991999999999999999999
0035228020999991923061113004+61700+030683FM-12+001699999V0201401N001019999999N0000001N9+01171+99999099561ADDGF108991999999999999999999MW1621
0029228020999991923061120004+61700+030683FM-12+001699999V0201401N001019999999N0000001N9+00891+99999099381ADDGF108991999999999999999999
0046228020999991923061206004+61700+030683FM-12+001699999V0209991C000019999999N0000001N9+00891+99999099471ADDAJ100009199999999GF108991999999999999999999
0029228020999991923061213004+61700+030683FM-12+001699999V0201401N001019999999N0000001N9+01221+99999099591ADDGF108991999999999999999999
0029228020999991923061220004+61700+030683FM-12+001699999V0209991C000019999999N0000001N9+00831+99999099701ADDGF108991999999999999999999
0046228020999991923061306004+61700+030683FM-12+001699999V0209991C000019999999N0000001N9+00831+99999099791ADDAJ100009199999999GF108991999999999999999999
0029228020999991923061313004+61700+030683FM-12+001699999V0201801N001019999999N0000001N9+01001+99999099901ADDGF108991999999999999999999
0029228020999991923061320004+61700+030683FM-12+001699999V0209991C000019999999N0000001N9+00941+99999100101ADDGF108991999999999999999999
0046228020999991923061406004+61700+030683FM-12+001699999V0202301N003119999999N0000001N9+01001+99999100461ADDAJ100009199999999GF100991999999999999999999
0035228020999991923061413004+61700+030683FM-12+001699999V0201401N006219999999N0000001N9+01221+99999100671ADDGF108991999999999999999999MW1621
0029228020999991923061420004+61700+030683FM-12+001699999V0201401N001019999999N0000001N9+00781+99999100831ADDGF108991999999999999999999
0046228020999991923061506004+61700+030683FM-12+001699999V0201401N001019999999N0000001N9+00781+99999100871ADDAJ100009199999999GF108991999999999999999999
0029228020999991923061513004+61700+030683FM-12+001699999V0201401N009819999999N0000001N9+01501+99999100871ADDGF108991999999999999999999
0029228020999991923061520004+61700+030683FM-12+001699999V0201401N001019999999N0000001N9+01061+99999100861ADDGF108991999999999999999999
0046228020999991923061606004+61700+030683FM-12+001699999V0201401N001019999999N0000001N9+00891+99999100871ADDAJ100009199999999GF108991999999999999999999
0029228020999991923061613004+61700+030683FM-12+001699999V0201801N004119999999N0000001N9+01061+99999100871ADDGF106991999999999999999999
0029228020999991923061620004+61700+030683FM-12+001699999V0202301N001019999999N0000001N9+01111+99999101081ADDGF105991999999999999999999
0046228020999991923061706004+61700+030683FM-12+001699999V0202301N001019999999N0000001N9+01171+99999101521ADDAJ100009199999999GF100991999999999999999999
0029228020999991923061713004+61700+030683FM-12+001699999V0201801N004119999999N0000001N9+01331+99999101621ADDGF102991999999999999999999
0029228020999991923061720004+61700+030683FM-12+001699999V0209991C000019999999N0000001N9+01001+99999101681ADDGF106991999999999999999999
0046228020999991923061806004+61700+030683FM-12+001699999V0201401N001019999999N0000001N9+01111+99999101881ADDAJ100009199999999GF107991999999999999999999
0029228020999991923061813004+61700+030683FM-12+001699999V0201401N006219999999N0000001N9+01781+99999101821ADDGF102991999999999999999999
0029228020999991923061820004+61700+030683FM-12+001699999V0209991C000019999999N0000001N9+01281+99999101581ADDGF106991999999999999999999
0046228020999991923061906004+61700+030683FM-12+001699999V0201601N001019999999N0000001N9+01721+99999101361ADDAJ100009199999999GF100991999999999999999999
0029228020999991923061913004+61700+030683FM-12+001699999V0201601N001019999999N0000001N9+02331+99999101191ADDGF100991999999999999999999
0029228020999991923061920004+61700+030683FM-12+001699999V0209991C000019999999N0000001N9+01671+99999100901ADDGF100991999999999999999999
0046228020999991923062006004+61700+030683FM-12+001699999V0209991C000019999999N0000001N9+01281+99999100821ADDAJ100009199999999GF108991999999999999999999
0029228020999991923062013004+61700+030683FM-12+001699999V0201401N002119999999N0000001N9+01561+99999100841ADDGF108991999999999999999999
0029228020999991923062020004+61700+030683FM-12+001699999V0201401N001019999999N0000001N9+01281+99999100751ADDGF104991999999999999999999
0046228020999991923062106004+61700+030683FM-12+001699999V0209991C000019999999N0000001N9+01281+99999100551ADDAJ100009199999999GF108991999999999999999999
0029228020999991923062113004+61700+030683FM-12+001699999V0201401N008219999999N0000001N9+01781+99999100381ADDGF108991999999999999999999
0029228020999991923062120004+61700+030683FM-12+001699999V0201401N002119999999N0000001N9+01331+99999100381ADDGF106991999999999999999999
0046228020999991923062206004+61700+030683FM-12+001699999V0201401N002119999999N0000001N9+01281+99999100101ADDAJ100009199999999GF107991999999999999999999
0035228020999991923062213004+61700+030683FM-12+001699999V0209991C000019999999N0000001N9+01441+99999099381ADDGF108991999999999999999999MW1621
0035228020999991923062220004+61700+030683FM-12+001699999V0203401N001019999999N0000001N9+01221+99999098861ADDGF108991999999999999999999MW1621
0046228020999991923062306004+61700+030683FM-12+001699999V0201801N004119999999N0000001N9+00831+99999099361ADDAJ100009199999999GF107991999999999999999999
0029228020999991923062313004+61700+030683FM-12+001699999V0202301N008219999999N0000001N9+00831+99999099441ADDGF108991999999999999999999
0029228020999991923062320004+61700+030683FM-12+001699999V0201801N002119999999N0000001N9+00721+99999099381ADDGF106991999999999999999999
0046228020999991923062406004+61700+030683FM-12+001699999V0201401N006219999999N0000001N9+00721+99999098981ADDAJ100009199999999GF108991999999999999999999
0029228020999991923062413004+61700+030683FM-12+001699999V0201401N008219999999N0000001N9+00781+99999098431ADDGF108991999999999999999999
0029228020999991923062420004+61700+030683FM-12+001699999V0201401N006219999999N0000001N9+00831+99999098601ADDGF106991999999999999999999
0046228020999991923062506004+61700+030683FM-12+001699999V0202501N004119999999N0000001N9+01001+99999099041ADDAJ100009199999999GF106991999999999999999999
0029228020999991923062513004+61700+030683FM-12+001699999V0201401N008219999999N0000001N9+01061+99999099431ADDGF108991999999999999999999
0029228020999991923062520004+61700+030683FM-12+001699999V0201401N002119999999N0000001N9+00721+99999099711ADDGF108991999999999999999999
0046228020999991923062606004+61700+030683FM-12+001699999V0201401N006219999999N0000001N9+00941+99999100441ADDAJ100009199999999GF104991999999999999999999
0029228020999991923062613004+61700+030683FM-12+001699999V0201401N008219999999N0000001N9+01281+99999100751ADDGF107991999999999999999999
0029228020999991923062620004+61700+030683FM-12+001699999V0201401N004119999999N0000001N9+00781+99999100881ADDGF105991999999999999999999
0046228020999991923062706004+61700+030683FM-12+001699999V0201401N008219999999N0000001N9+01061+99999101381ADDAJ100009199999999GF100991999999999999999999
0029228020999991923062713004+61700+030683FM-12+001699999V0201401N004119999999N0000001N9+01221+99999101661ADDGF108991999999999999999999
0029228020999991923062720004+61700+030683FM-12+001699999V0209991C000019999999N0000001N9+01061+99999101631ADDGF108991999999999999999999
0046228020999991923062806004+61700+030683FM-12+001699999V0201401N001019999999N0000001N9+01221+99999101551ADDAJ100009199999999GF108991999999999999999999
0029228020999991923062813004+61700+030683FM-12+001699999V0200501N001019999999N0000001N9+01331+99999101401ADDGF108991999999999999999999
0029228020999991923062820004+61700+030683FM-12+001699999V0209991C000019999999N0000001N9+01281+99999101071ADDGF108991999999999999999999
0046228020999991923062906004+61700+030683FM-12+001699999V0200501N001019999999N0000001N9+01331+99999101361ADDAJ100009199999999GF102991999999999999999999
0029228020999991923062913004+61700+030683FM-12+001699999V0202701N004119999999N0000001N9+01831+99999101471ADDGF108991999999999999999999
0029228020999991923062920004+61700+030683FM-12+001699999V0209991C000019999999N0000001N9+01171+99999101421ADDGF108991999999999999999999
0046228020999991923063006004+61700+030683FM-12+001699999V0203201N001019999999N0000001N9+01671+99999101351ADDAJ100009199999999GF100991999999999999999999
0029228020999991923063013004+61700+030683FM-12+001699999V0201401N004119999999N0000001N9+01941+99999101281ADDGF106991999999999999999999
0029228020999991923063020004+61700+030683FM-12+001699999V0209991C000019999999N0000001N9+01441+99999101191ADDGF102991999999999999999999
0046228020999991923070106004+61700+030683FM-12+001699999V0209991C000019999999N0000001N9+01561+99999101111ADDAJ100009199999999GF103991999999999999999999
0029228020999991923070113004+61700+030683FM-12+001699999V0201801N003119999999N0000001N9+01781+99999100991ADDGF106991999999999999999999
0029228020999991923070120004+61700+030683FM-12+001699999V0209991C000019999999N0000001N9+01221+99999101001ADDGF107991999999999999999999
0046228020999991923070206004+61700+030683FM-12+001699999V0209991C000019999999N0000001N9+01501+99999101161ADDAJ100009199999999GF103991999999999999999999
0029228020999991923070213004+61700+030683FM-12+001699999V0201801N004119999999N0000001N9+01941+99999101271ADDGF106991999999999999999999
0029228020999991923070220004+61700+030683FM-12+001699999V0209991C000019999999N0000001N9+01331+99999101431ADDGF104991999999999999999999
0046228020999991923070306004+61700+030683FM-12+001699999V0201801N001019999999N0000001N9+01671+99999101761ADDAJ100009199999999GF101991999999999999999999
0029228020999991923070313004+61700+030683FM-12+001699999V0201401N004119999999N0000001N9+01831+99999101821ADDGF100991999999999999999999
0029228020999991923070320004+61700+030683FM-12+001699999V0209991C000019999999N0000001N9+01391+99999101841ADDGF102991999999999999999999
0046228020999991923070406004+61700+030683FM-12+001699999V0209991C000019999999N0000001N9+01561+99999102141ADDAJ100009199999999GF102991999999999999999999
0029228020999991923070413004+61700+030683FM-12+001699999V0201801N002119999999N0000001N9+02061+99999102141ADDGF100991999999999999999999
0029228020999991923070420004+61700+030683FM-12+001699999V0209991C000019999999N0000001N9+01611+99999102031ADDGF102991999999999999999999
0046228020999991923070506004+61700+030683FM-12+001699999V0201601N001019999999N0000001N9+01721+99999102231ADDAJ100009199999999GF102991999999999999999999
0029228020999991923070513004+61700+030683FM-12+001699999V0201801N008219999999N0000001N9+02001+99999102321ADDGF103991999999999999999999
0029228020999991923070520004+61700+030683FM-12+001699999V0209991C000019999999N0000001N9+01781+99999102111ADDGF100991999999999999999999
0046228020999991923070606004+61700+030683FM-12+001699999V0209991C000019999999N0000001N9+02001+99999102221ADDAJ100009199999999GF102991999999999999999999
0029228020999991923070613004+61700+030683FM-12+001699999V0203201N006219999999N0000001N9+02561+99999102151ADDGF102991999999999999999999
0029228020999991923070620004+61700+030683FM-12+001699999V0209991C000019999999N0000001N9+02061+99999102001ADDGF106991999999999999999999
0046228020999991923070706004+61700+030683FM-12+001699999V0203201N001019999999N0000001N9+01941+99999101801ADDAJ100009199999999GF101991999999999999999999
0029228020999991923070713004+61700+030683FM-12+001699999V0203401N004119999999N0000001N9+02331+99999101681ADDGF102991999999999999999999
0029228020999991923070720004+61700+030683FM-12+001699999V0203201N006219999999N0000001N9+01781+99999101671ADDGF100991999999999999999999
0046228020999991923070806004+61700+030683FM-12+001699999V0203201N001019999999N0000001N9+01781+99999101631ADDAJ100009199999999GF100991999999999999999999
0029228020999991923070813004+61700+030683FM-12+001699999V0203201N002119999999N0000001N9+02111+99999101511ADDGF106991999999999999999999
0029228020999991923070820004+61700+030683FM-12+001699999V0203601N001019999999N0000001N9+01441+99999101761ADDGF104991999999999999999999
0046228020999991923070906004+61700+030683FM-12+001699999V0203601N008219999999N0000001N9+01501+99999102181ADDAJ100009199999999GF102991999999999999999999
0029228020999991923070913004+61700+030683FM-12+001699999V0200501N004119999999N0000001N9+01671+99999102221ADDGF106991999999999999999999
0029228020999991923070920004+61700+030683FM-12+001699999V0200501N001019999999N0000001N9+01331+99999102311ADDGF100991999999999999999999
0046228020999991923071006004+61700+030683FM-12+001699999V0209991C000019999999N0000001N9+01561+99999102441ADDAJ100009199999999GF100991999999999999999999
0029228020999991923071013004+61700+030683FM-12+001699999V0200201N001019999999N0000001N9+02111+99999102281ADDGF106991999999999999999999
0029228020999991923071020004+61700+030683FM-12+001699999V0209991C000019999999N0000001N9+01671+99999102201ADDGF107991999999999999999999
0046228020999991923071106004+61700+030683FM-12+001699999V0209991C000019999999N0000001N9+01441+99999102311ADDAJ100009199999999GF107991999999999999999999
0029228020999991923071113004+61700+030683FM-12+001699999V0209991C000019999999N0000001N9+02501+99999102071ADDGF100991999999999999999999
0029228020999991923071120004+61700+030683FM-12+001699999V0209991C000019999999N0000001N9+01941+99999101901ADDGF103991999999999999999999
0046228020999991923071206004+61700+030683FM-12+001699999V0209991C000019999999N0000001N9+02061+99999101711ADDAJ100009199999999GF100991999999999999999999
0029228020999991923071213004+61700+030683FM-12+001699999V0201401N004119999999N0000001N9+02941+99999101581ADDGF102991999999999999999999
0035228020999991923071220004+61700+030683FM-12+001699999V0209991C000019999999N0000001N9+02171+99999101311ADDGF108991999999999999999999MW1601
0046228020999991923071306004+61700+030683FM-12+001699999V0203601N001019999999N0000001N9+02281+99999101041ADDAJ100009199999999GF101991999999999999999999
0029228020999991923071313004+61700+030683FM-12+001699999V0203601N004119999999N0000001N9+02831+99999100981ADDGF101991999999999999999999
0029228020999991923071320004+61700+030683FM-12+001699999V0209991C000019999999N0000001N9+02171+99999100841ADDGF103991999999999999999999
0046228020999991923071406004+61700+030683FM-12+001699999V0209991C000019999999N0000001N9+01721+99999100461ADDAJ100009199999999GF106991999999999999999999
0029228020999991923071413004+61700+030683FM-12+001699999V0203401N007219999999N0000001N9+02331+99999100351ADDGF104991999999999999999999
0029228020999991923071420004+61700+030683FM-12+001699999V0203201N006219999999N0000001N9+01671+99999100321ADDGF108991999999999999999999
0046228020999991923071506004+61700+030683FM-12+001699999V0203201N011819999999N0000001N9+01671+99999100391ADDAJ100009199999999GF106991999999999999999999
0029228020999991923071513004+61700+030683FM-12+001699999V0203201N013919999999N0000001N9+01611+99999100431ADDGF108991999999999999999999
0029228020999991923071520004+61700+030683FM-12+001699999V0203201N002119999999N0000001N9+01501+99999100681ADDGF105991999999999999999999
0046228020999991923071606004+61700+030683FM-12+001699999V0203601N008219999999N0000001N9+01501+99999101141ADDAJ100009199999999GF106991999999999999999999
0029228020999991923071613004+61700+030683FM-12+001699999V0203601N002119999999N0000001N9+01891+99999101231ADDGF108991999999999999999999
0029228020999991923071620004+61700+030683FM-12+001699999V0209991C000019999999N0000001N9+01391+99999101301ADDGF105991999999999999999999
0046228020999991923071706004+61700+030683FM-12+001699999V0201601N002119999999N0000001N9+01281+99999101471ADDAJ100009199999999GF108991999999999999999999
0029228020999991923071713004+61700+030683FM-12+001699999V0201801N004119999999N0000001N9+01611+99999101351ADDGF101991999999999999999999
0029228020999991923071720004+61700+030683FM-12+001699999V0209991C000019999999N0000001N9+01221+99999101181ADDGF100991999999999999999999
0046228020999991923071806004+61700+030683FM-12+001699999V0201401N002119999999N0000001N9+01671+99999101121ADDAJ100009199999999GF105991999999999999999999
0029228020999991923071813004+61700+030683FM-12+001699999V0201401N006219999999N0000001N9+02171+99999101031ADDGF100991999999999999999999
0029228020999991923071820004+61700+030683FM-12+001699999V0200901N001019999999N0000001N9+01561+99999100911ADDGF103991999999999999999999
0046228020999991923071906004+61700+030683FM-12+001699999V0200901N001019999999N0000001N9+01671+99999100801ADDAJ100009199999999GF103991999999999999999999
0029228020999991923071913004+61700+030683FM-12+001699999V0201801N004119999999N0000001N9+02001+99999100681ADDGF102991999999999999999999
0029228020999991923071920004+61700+030683FM-12+001699999V0209991C000019999999N0000001N9+01611+99999100521ADDGF108991999999999999999999
0046228020999991923072006004+61700+030683FM-12+001699999V0209991C000019999999N0000001N9+01441+99999100321ADDAJ100009199999999GF108991999999999999999999
0029228020999991923072013004+61700+030683FM-12+001699999V0201401N002119999999N0000001N9+01781+99999100151ADDGF107991999999999999999999
0035228020999991923072020004+61700+030683FM-12+001699999V0203201N002119999999N0000001N9+01441+99999100021ADDGF108991999999999999999999MW1601
0052228020999991923072106004+61700+030683FM-12+001699999V0209991C000019999999N0000001N9+01441+99999099781ADDAJ100009199999999GF108991999999999999999999MW1621
0035228020999991923072113004+61700+030683FM-12+001699999V0200501N001019999999N0000001N9+01611+99999099521ADDGF108991999999999999999999MW1621
0035228020999991923072120004+61700+030683FM-12+001699999V0200501N002119999999N0000001N9+01391+99999099261ADDGF108991999999999999999999MW1621
0052228020999991923072206004+61700+030683FM-12+001699999V0203401N001019999999N0000001N9+01391+99999099061ADDAJ100009199999999GF108991999999999999999999MW1621
0029228020999991923072213004+61700+030683FM-12+001699999V0202501N002119999999N0000001N9+01611+99999099321ADDGF106991999999999999999999
0029228020999991923072220004+61700+030683FM-12+001699999V0201801N002119999999N0000001N9+01501+99999099441ADDGF105991999999999999999999
0046228020999991923072306004+61700+030683FM-12+001699999V0209991C000019999999N0000001N9+01441+99999099721ADDAJ100009199999999GF108991999999999999999999
0029228020999991923072313004+61700+030683FM-12+001699999V0202501N002119999999N0000001N9+01611+99999099801ADDGF108991999999999999999999
0029228020999991923072320004+61700+030683FM-12+001699999V0202301N002119999999N0000001N9+01391+99999099821ADDGF106991999999999999999999
0046228020999991923072406004+61700+030683FM-12+001699999V0201401N001019999999N0000001N9+01331+99999099661ADDAJ100009199999999GF108991999999999999999999
0029228020999991923072413004+61700+030683FM-12+001699999V0201401N004119999999N0000001N9+01501+99999099561ADDGF108991999999999999999999
0029228020999991923072420004+61700+030683FM-12+001699999V0201401N006219999999N0000001N9+01441+99999099351ADDGF108991999999999999999999
0046228020999991923072506004+61700+030683FM-12+001699999V0201801N002119999999N0000001N9+01281+99999099391ADDAJ100009199999999GF107991999999999999999999
0029228020999991923072513004+61700+030683FM-12+001699999V0201801N004119999999N0000001N9+01501+99999099511ADDGF108991999999999999999999
0029228020999991923072520004+61700+030683FM-12+001699999V0202701N001019999999N0000001N9+01331+99999099621ADDGF105991999999999999999999
0046228020999991923072606004+61700+030683FM-12+001699999V0202701N001019999999N0000001N9+01441+99999099751ADDAJ100009199999999GF107991999999999999999999
0029228020999991923072613004+61700+030683FM-12+001699999V0201401N004119999999N0000001N9+01441+99999099721ADDGF107991999999999999999999
0029228020999991923072620004+61700+030683FM-12+001699999V0209991C000019999999N0000001N9+01331+99999099641ADDGF102991999999999999999999
0046228020999991923072706004+61700+030683FM-12+001699999V0200901N001019999999N0000001N9+01561+99999099471ADDAJ100009199999999GF107991999999999999999999
0035228020999991923072713004+61700+030683FM-12+001699999V0200901N001019999999N0000001N9+01561+99999099401ADDGF108991999999999999999999MW1621
0029228020999991923072720004+61700+030683FM-12+001699999V0209991C000019999999N0000001N9+01501+99999099241ADDGF106991999999999999999999
0046228020999991923072806004+61700+030683FM-12+001699999V0203601N001019999999N0000001N9+01561+99999099151ADDAJ100009199999999GF108991999999999999999999
0029228020999991923072813004+61700+030683FM-12+001699999V0203401N009819999999N0000001N9+02171+99999099001ADDGF106991999999999999999999
0035228020999991923072820004+61700+030683FM-12+001699999V0203201N002119999999N0000001N9+01611+99999098991ADDGF108991999999999999999999MW1601
0046228020999991923072906004+61700+030683FM-12+001699999V0203201N001019999999N0000001N9+01561+99999098981ADDAJ100009199999999GF108991999999999999999999
0029228020999991923072913004+61700+030683FM-12+001699999V0203201N002119999999N0000001N9+01721+99999099281ADDGF108991999999999999999999
0029228020999991923072920004+61700+030683FM-12+001699999V0209991C000019999999N0000001N9+01611+99999099471ADDGF108991999999999999999999
0046228020999991923073006004+61700+030683FM-12+001699999V0203201N006219999999N0000001N9+01561+99999099521ADDAJ100009199999999GF108991999999999999999999
0029228020999991923073013004+61700+030683FM-12+001699999V0203201N002119999999N0000001N9+01831+99999099521ADDGF108991999999999999999999
0029228020999991923073020004+61700+030683FM-12+001699999V0209991C000019999999N0000001N9+01611+99999099501ADDGF108991999999999999999999
0046228020999991923073106004+61700+030683FM-12+001699999V0209991C000019999999N0000001N9+01611+99999099351ADDAJ100009199999999GF108991999999999999999999
0029228020999991923073113004+61700+030683FM-12+001699999V0201801N001019999999N0000001N9+01721+99999099391ADDGF108991999999999999999999
0029228020999991923073120004+61700+030683FM-12+001699999V0201401N001019999999N0000001N9+01501+99999099341ADDGF108991999999999999999999
0046228020999991923080106004+61700+030683FM-12+001699999V0209991C000019999999N0000001N9+01391+99999099321ADDAJ100009199999999GF108991999999999999999999
0029228020999991923080113004+61700+030683FM-12+001699999V0203201N002119999999N0000001N9+01721+99999099431ADDGF108991999999999999999999
0029228020999991923080120004+61700+030683FM-12+001699999V0209991C000019999999N0000001N9+01391+99999099761ADDGF108991999999999999999999
0046228020999991923080206004+61700+030683FM-12+001699999V0200501N002119999999N0000001N9+01331+99999099671ADDAJ100009199999999GF108991999999999999999999
0029228020999991923080213004+61700+030683FM-12+001699999V0200901N006219999999N0000001N9+01561+99999099421ADDGF108991999999999999999999
0029228020999991923080220004+61700+030683FM-12+001699999V0200701N002119999999N0000001N9+01221+99999099421ADDGF108991999999999999999999
0046228020999991923080306004+61700+030683FM-12+001699999V0203601N006219999999N0000001N9+00941+99999099911ADDAJ100009199999999GF108991999999999999999999
0029228020999991923080313004+61700+030683FM-12+001699999V0203601N008219999999N0000001N9+01331+99999100261ADDGF108991999999999999999999
0029228020999991923080320004+61700+030683FM-12+001699999V0203201N002119999999N0000001N9+01061+99999100621ADDGF108991999999999999999999
0046228020999991923080406004+61700+030683FM-12+001699999V0203201N001019999999N0000001N9+01061+99999100801ADDAJ100009199999999GF108991999999999999999999
0029228020999991923080413004+61700+030683FM-12+001699999V0203401N002119999999N0000001N9+01391+99999100781ADDGF107991999999999999999999
0029228020999991923080420004+61700+030683FM-12+001699999V0209991C000019999999N0000001N9+01281+99999100791ADDGF108991999999999999999999
0046228020999991923080506004+61700+030683FM-12+001699999V0203601N004119999999N0000001N9+01111+99999100781ADDAJ100009199999999GF108991999999999999999999
0029228020999991923080513004+61700+030683FM-12+001699999V0203601N008219999999N0000001N9+01441+99999100671ADDGF108991999999999999999999
0029228020999991923080520004+61700+030683FM-12+001699999V0209991C000019999999N0000001N9+01061+99999100741ADDGF105991999999999999999999
0046228020999991923080606004+61700+030683FM-12+001699999V0203201N001019999999N0000001N9+01171+99999100671ADDAJ100009199999999GF106991999999999999999999
0029228020999991923080613004+61700+030683FM-12+001699999V0203601N002119999999N0000001N9+01561+99999100661ADDGF107991999999999999999999
0029228020999991923080620004+61700+030683FM-12+001699999V0200501N001019999999N0000001N9+01171+99999100791ADDGF108991999999999999999999
0046228020999991923080706004+61700+030683FM-12+001699999V0203201N002119999999N0000001N9+01111+99999100821ADDAJ100009199999999GF101991999999999999999999
0029228020999991923080713004+61700+030683FM-12+001699999V0203401N004119999999N0000001N9+01501+99999100801ADDGF102991999999999999999999
0029228020999991923080720004+61700+030683FM-12+001699999V0203201N006219999999N0000001N9+01221+99999100621ADDGF100991999999999999999999
0046228020999991923080806004+61700+030683FM-12+001699999V0209991C000019999999N0000001N9+01331+99999100551ADDAJ100009199999999GF108991999999999999999999
0029228020999991923080813004+61700+030683FM-12+001699999V0203201N008219999999N0000001N9+01721+99999100391ADDGF106991999999999999999999
0029228020999991923080820004+61700+030683FM-12+001699999V0203601N001019999999N0000001N9+01281+99999100431ADDGF108991999999999999999999
0046228020999991923080906004+61700+030683FM-12+001699999V0203201N008219999999N0000001N9+00941+99999100561ADDAJ100009199999999GF108991999999999999999999
0029228020999991923080913004+61700+030683FM-12+001699999V0203601N002119999999N0000001N9+01331+99999100781ADDGF108991999999999999999999
0029228020999991923080920004+61700+030683FM-12+001699999V0203201N001019999999N0000001N9+01221+99999100881ADDGF108991999999999999999999
0046228020999991923081006004+61700+030683FM-12+001699999V0209991C000019999999N0000001N9+01221+99999100741ADDAJ100009199999999GF102991999999999999999999
0029228020999991923081013004+61700+030683FM-12+001699999V0201401N004119999999N0000001N9+01331+99999100551ADDGF108991999999999999999999
0029228020999991923081020004+61700+030683FM-12+001699999V0209991C000019999999N0000001N9+01171+99999100031ADDGF108991999999999999999999
0052228020999991923081106004+61700+030683FM-12+001699999V0200901N004119999999N0000001N9+01001+99999099561ADDAJ100009199999999GF108991999999999999999999MW1621
0035228020999991923081113004+61700+030683FM-12+001699999V0200501N008219999999N0000001N9+01281+99999099641ADDGF108991999999999999999999MW1621
0035228020999991923081120004+61700+030683FM-12+001699999V0200501N001019999999N0000001N9+01061+99999099981ADDGF108991999999999999999999MW1621
0046228020999991923081206004+61700+030683FM-12+001699999V0200501N004119999999N0000001N9+00891+99999100401ADDAJ100009199999999GF108991999999999999999999
0029228020999991923081213004+61700+030683FM-12+001699999V0203601N004119999999N0000001N9+01171+99999100621ADDGF108991999999999999999999
0029228020999991923081220004+61700+030683FM-12+001699999V0203601N001019999999N0000001N9+00721+99999100941ADDGF100991999999999999999999
0046228020999991923081306004+61700+030683FM-12+001699999V0209991C000019999999N0000001N9+00781+99999100961ADDAJ100009199999999GF100991999999999999999999
0029228020999991923081313004+61700+030683FM-12+001699999V0203601N002119999999N0000001N9+01781+99999100871ADDGF104991999999999999999999
0029228020999991923081320004+61700+030683FM-12+001699999V0209991C000019999999N0000001N9+01221+99999100781ADDGF106991999999999999999999
0046228020999991923081406004+61700+030683FM-12+001699999V0209991C000019999999N0000001N9+01111+99999100671ADDAJ100009199999999GF101991999999999999999999
0029228020999991923081413004+61700+030683FM-12+001699999V0203201N008219999999N0000001N9+01501+99999100631ADDGF108991999999999999999999
0029228020999991923081420004+61700+030683FM-12+001699999V0209991C000019999999N0000001N9+00941+99999100631ADDGF108991999999999999999999
0046228020999991923081506004+61700+030683FM-12+001699999V0203601N001019999999N0000001N9+01061+99999100561ADDAJ100009199999999GF106991999999999999999999
0029228020999991923081513004+61700+030683FM-12+001699999V0202701N002119999999N0000001N9+01781+99999100421ADDGF103991999999999999999999
0029228020999991923081520004+61700+030683FM-12+001699999V0209991C000019999999N0000001N9+01061+99999100321ADDGF107991999999999999999999
0052228020999991923081606004+61700+030683FM-12+001699999V0209991C000019999999N0000001N9+01171+99999099821ADDAJ100009199999999GF108991999999999999999999MW1621
0029228020999991923081613004+61700+030683FM-12+001699999V0201401N004119999999N0000001N9+01221+99999099461ADDGF108991999999999999999999
0029228020999991923081620004+61700+030683FM-12+001699999V0200701N008219999999N0000001N9+01221+99999098561ADDGF108991999999999999999999
0046228020999991923081706004+61700+030683FM-12+001699999V0209991C000019999999N0000001N9+01111+99999097761ADDAJ100009199999999GF108991999999999999999999
0029228020999991923081713004+61700+030683FM-12+001699999V0203601N008219999999N0000001N9+01391+99999098041ADDGF108991999999999999999999
0029228020999991923081720004+61700+030683FM-12+001699999V0203601N004119999999N0000001N9+01001+99999098681ADDGF108991999999999999999999
0046228020999991923081806004+61700+030683FM-12+001699999V0203601N002119999999N0000001N9+01061+99999099101ADDAJ100009199999999GF108991999999999999999999
0029228020999991923081813004+61700+030683FM-12+001699999V0203601N006219999999N0000001N9+01331+99999099321ADDGF108991999999999999999999
0029228020999991923081820004+61700+030683FM-12+001699999V0209991C000019999999N0000001N9+00941+99999099601ADDGF108991999999999999999999
0046228020999991923081906004+61700+030683FM-12+001699999V0200501N004119999999N0000001N9+00831+99999099941ADDAJ100009199999999GF108991999999999999999999
0029228020999991923081913004+61700+030683FM-12+001699999V0200501N002119999999N0000001N9+01501+99999100191ADDGF108991999999999999999999
0029228020999991923081920004+61700+030683FM-12+001699999V0209991C000019999999N0000001N9+00891+99999100311ADDGF102991999999999999999999
0046228020999991923082006004+61700+030683FM-12+001699999V0209991C000019999999N0000001N9+01221+99999100431ADDAJ100009199999999GF101991999999999999999999
0029228020999991923082013004+61700+030683FM-12+001699999V0200501N002119999999N0000001N9+01611+99999100361ADDGF102991999999999999999999
0029228020999991923082020004+61700+030683FM-12+001699999V0209991C000019999999N0000001N9+01221+99999100311ADDGF108991999999999999999999
0046228020999991923082106004+61700+030683FM-12+001699999V0203401N004119999999N0000001N9+01061+99999100121ADDAJ100009199999999GF105991999999999999999999
0029228020999991923082113004+61700+030683FM-12+001699999V0203601N009819999999N0000001N9+01331+99999100281ADDGF108991999999999999999999
0029228020999991923082120004+61700+030683FM-12+001699999V0209991C000019999999N0000001N9+00891+99999100541ADDGF107991999999999999999999
0046228020999991923082206004+61700+030683FM-12+001699999V0203601N002119999999N0000001N9+00831+99999101061ADDAJ100009199999999GF100991999999999999999999
0029228020999991923082213004+61700+030683FM-12+001699999V0203601N002119999999N0000001N9+01781+99999101201ADDGF102991999999999999999999
0029228020999991923082220004+61700+030683FM-12+001699999V0209991C000019999999N0000001N9+00941+99999101261ADDGF100991999999999999999999
0046228020999991923082306004+61700+030683FM-12+001699999V0201801N008219999999N0000001N9+01281+99999101001ADDAJ100009199999999GF108991999999999999999999
0035228020999991923082313004+61700+030683FM-12+001699999V0201801N011819999999N0000001N9+01171+99999100901ADDGF108991999999999999999999MW1621
0029228020999991923082320004+61700+030683FM-12+001699999V0201801N002119999999N0000001N9+01111+99999100861ADDGF108991999999999999999999
0046228020999991923082406004+61700+030683FM-12+001699999V0201401N001019999999N0000001N9+01061+99999100791ADDAJ100009199999999GF108991999999999999999999
0029228020999991923082413004+61700+030683FM-12+001699999V0201401N006219999999N0000001N9+01281+99999100791ADDGF108991999999999999999999
0029228020999991923082420004+61700+030683FM-12+001699999V0201401N001019999999N0000001N9+01111+99999100911ADDGF108991999999999999999999
0046228020999991923082506004+61700+030683FM-12+001699999V0201801N001019999999N0000001N9+00721+99999101151ADDAJ100009199999999GF108991999999999999999999
0029228020999991923082513004+61700+030683FM-12+001699999V0201401N001019999999N0000001N9+01781+99999101231ADDGF102991999999999999999999
0029228020999991923082520004+61700+030683FM-12+001699999V0209991C000019999999N0000001N9+01111+99999101161ADDGF103991999999999999999999
0046228020999991923082606004+61700+030683FM-12+001699999V0201401N002119999999N0000001N9+01281+99999100761ADDAJ100009199999999GF104991999999999999999999
0029228020999991923082613004+61700+030683FM-12+001699999V0201801N002119999999N0000001N9+01331+99999100601ADDGF108991999999999999999999
0029228020999991923082620004+61700+030683FM-12+001699999V0209991C000019999999N0000001N9+01391+99999100621ADDGF108991999999999999999999
0046228020999991923082706004+61700+030683FM-12+001699999V0201801N001019999999N0000001N9+01221+99999100941ADDAJ100009199999999GF108991999999999999999999
0029228020999991923082713004+61700+030683FM-12+001699999V0201801N001019999999N0000001N9+01501+99999101151ADDGF108991999999999999999999
0029228020999991923082720004+61700+030683FM-12+001699999V0209991C000019999999N0000001N9+01171+99999101261ADDGF108991999999999999999999
0046228020999991923082806004+61700+030683FM-12+001699999V0201401N002119999999N0000001N9+01221+99999101191ADDAJ100009199999999GF108991999999999999999999
0029228020999991923082813004+61700+030683FM-12+001699999V0201401N004119999999N0000001N9+01561+99999101031ADDGF108991999999999999999999
