0029228020999991918010106004+61700+030683FM-12+001699999V0201801N006719999999N0000001N9-00171+99999099791ADDGF108991999999999999999999
0029228020999991918010113004+61700+030683FM-12+001699999V0201801N009319999999N0000001N9-00221+99999099281ADDGF108991999999999999999999
0029228020999991918010120004+61700+030683FM-12+001699999V0201801N012319999999N0000001N9-00441+99999098441ADDGF108991999999999999999999
0029228020999991918010206004+61700+030683FM-12+001699999V0202701N006719999999N0000001N9-00781+99999098681ADDGF107991999999999999999999
0029228020999991918010213004+61700+030683FM-12+001699999V0202701N006719999999N0000001N9-00941+99999098901ADDGF108991999999999999999999
0029228020999991918010220004+61700+030683FM-12+001699999V0209991C000019999999N0000001N9-01331+99999099111ADDGF100991999999999999999999
0029228020999991918010306004+61700+030683FM-12+001699999V0203601N012319999999N0000001N9-01001+99999099301ADDGF108991999999999999999999
0029228020999991918010313004+61700+030683FM-12+001699999V0203601N015419999999N0000001N9-01171+99999099141ADDGF108991999999999999999999
0029228020999991918010320004+61700+030683FM-12+001699999V0203601N019019999999N0000001N9-01171+99999098941ADDGF108991999999999999999999
0029228020999991918010406004+61700+030683FM-12+001699999V0203601N006719999999N0000001N9-01281+99999099151ADDGF108991999999999999999999
0029228020999991918010413004+61700+030683FM-12+001699999V0203601N006719999999N0000001N9-01671+99999099421ADDGF102991999999999999999999
0029228020999991918010420004+61700+030683FM-12+001699999V0209991C000019999999N0000001N9-02281+99999099751ADDGF100991999999999999999999
0029228020999991918010506004+61700+030683FM-12+001699999V0203601N004619999999N0000001N9-02781+99999100071ADDGF100991999999999999999999
0029228020999991918010513004+61700+030683FM-12+001699999V0203601N002619999999N0000001N9-02561+99999100391ADDGF102991999999999999999999
0029228020999991918010520004+61700+030683FM-12+001699999V0203601N004619999999N0000001N9-03001+99999099941ADDGF108991999999999999999999
0029228020999991918010606004+61700+030683FM-12+001699999V0200901N012319999999N0000001N9-01221+99999098881ADDGF108991999999999999999999
0035228020999991918010613004+61700+030683FM-12+001699999V0200901N009319999999N0000001N9-01721+99999098041ADDGF108991999999999999999999MW1721
0029228020999991918010620004+61700+030683FM-12+001699999V0200901N006719999999N0000001N9-01941+99999098501ADDGF100991999999999999999999
0029228020999991918010706004+61700+030683FM-12+001699999V0203201N002619999999N0000001N9-02721+99999099341ADDGF108991999999999999999999
0029228020999991918010713004+61700+030683FM-12+001699999V0203601N002619999999N0000001N9-02721+99999099761ADDGF101991999999999999999999
0029228020999991918010720004+61700+030683FM-12+001699999V0209991C000019999999N0000001N9-03281+99999099941ADDGF100991999999999999999999
0029228020999991918010806004+61700+030683FM-12+001699999V0203601N002619999999N0000001N9-02561+99999099511ADDGF108991999999999999999999
0035228020999991918010813004+61700+030683FM-12+001699999V0203601N006719999999N0000001N9-02281+99999099001ADDGF108991999999999999999999MW1721
0029228020999991918010820004+61700+030683FM-12+001699999V0203601N009319999999N0000001N9-02061+99999098951ADDGF108991999999999999999999
0029228020999991918010906004+61700+030683FM-12+001699999V0203601N006719999999N0000001N9-02171+99999099151ADDGF108991999999999999999999
0029228020999991918010913004+61700+030683FM-12+001699999V0203601N004619999999N0000001N9-02171+99999099581ADDGF108991999999999999999999
0029228020999991918010920004+61700+030683FM-12+001699999V0203601N006719999999N0000001N9-02111+99999099911ADDGF108991999999999999999999
0029228020999991918011006004+61700+030683FM-12+001699999V0203601N004619999999N0000001N9-02721+99999100301ADDGF100991999999999999999999
0029228020999991918011013004+61700+030683FM-12+001699999V0200501N004619999999N0000001N9-02001+99999100501ADDGF108991999999999999999999
0029228020999991918011020004+61700+030683FM-12+001699999V0203601N002619999999N0000001N9-02501+99999100431ADDGF108991999999999999999999
0029228020999991918011106004+61700+030683FM-12+001699999V0209991C000019999999N0000001N9-01441+99999100161ADDGF108991999999999999999999
0029228020999991918011113004+61700+030683FM-12+001699999V0203601N012319999999N0000001N9-01281+99999100261ADDGF108991999999999999999999
0029228020999991918011120004+61700+030683FM-12+001699999V0203601N009319999999N0000001N9-01891+99999099831ADDGF108991999999999999999999
0029228020999991918011206004+61700+030683FM-12+001699999V0203601N006719999999N0000001N9-01221+99999099191ADDGF108991999999999999999999
0029228020999991918011213004+61700+030683FM-12+001699999V0203601N006719999999N0000001N9-01781+99999099041ADDGF108991999999999999999999
0029228020999991918011220004+61700+030683FM-12+001699999V0203601N002619999999N0000001N9-01941+99999098951ADDGF108991999999999999999999
0029228020999991918011306004+61700+030683FM-12+001699999V0203601N006719999999N0000001N9-02221+99999099361ADDGF108991999999999999999999
0029228020999991918011313004+61700+030683FM-12+001699999V0203201N002619999999N0000001N9-02281+99999099831ADDGF108991999999999999999999
0029228020999991918011320004+61700+030683FM-12+001699999V0203601N006719999999N0000001N9-02721+99999100261ADDGF100991999999999999999999
0029228020999991918011406004+61700+030683FM-12+001699999V0203201N004619999999N0000001N9-02781+99999100461ADDGF100991999999999999999999
0029228020999991918011413004+61700+030683FM-12+001699999V0203601N006719999999N0000001N9-02441+99999101001ADDGF108991999999999999999999
0029228020999991918011420004+61700+030683FM-12+001699999V0203601N004619999999N0000001N9-02781+99999101271ADDGF108991999999999999999999
0029228020999991918011506004+61700+030683FM-12+001699999V0203601N006719999999N0000001N9-01391+99999100991ADDGF100991999999999999999999
0029228020999991918011513004+61700+030683FM-12+001699999V0203601N009319999999N0000001N9-00891+99999100351ADDGF108991999999999999999999
0029228020999991918011520004+61700+030683FM-12+001699999V0203601N004619999999N0000001N9-00831+99999099831ADDGF108991999999999999999999
0029228020999991918011606004+61700+030683FM-12+001699999V0200901N009319999999N0000001N9-01171+99999098001ADDGF108991999999999999999999
0029228020999991918011613004+61700+030683FM-12+001699999V0203601N009319999999N0000001N9-00891+99999097161ADDGF108991999999999999999999
0029228020999991918011620004+61700+030683FM-12+001699999V0203601N009319999999N0000001N9-01441+99999097561ADDGF100991999999999999999999
0029228020999991918011706004+61700+030683FM-12+001699999V0203601N006719999999N0000001N9-01561+99999099081ADDGF108991999999999999999999
0029228020999991918011713004+61700+030683FM-12+001699999V0203601N009319999999N0000001N9-01891+99999099831ADDGF108991999999999999999999
0029228020999991918011720004+61700+030683FM-12+001699999V0203601N002619999999N0000001N9-02281+99999099921ADDGF108991999999999999999999
0029228020999991918011806004+61700+030683FM-12+001699999V0203601N006719999999N0000001N9-01891+99999100601ADDGF108991999999999999999999
0029228020999991918011813004+61700+030683FM-12+001699999V0203601N004619999999N0000001N9-01781+99999101271ADDGF108991999999999999999999
0029228020999991918011820004+61700+030683FM-12+001699999V0203601N002619999999N0000001N9-02171+99999101241ADDGF108991999999999999999999
0029228020999991918011906004+61700+030683FM-12+001699999V0203601N004619999999N0000001N9-01221+99999100161ADDGF108991999999999999999999
0035228020999991918011913004+61700+030683FM-12+001699999V0203601N022619999999N0000001N9-01781+99999098391ADDGF108991999999999999999999MW1721
0035228020999991918011920004+61700+030683FM-12+001699999V0203601N006719999999N0000001N9-01441+99999098081ADDGF108991999999999999999999MW1721
0029228020999991918012006004+61700+030683FM-12+001699999V0203601N009319999999N0000001N9-00891+99999100281ADDGF100991999999999999999999
0029228020999991918012013004+61700+030683FM-12+001699999V0203201N001019999999N0000001N9-01061+99999101281ADDGF100991999999999999999999
0029228020999991918012020004+61700+030683FM-12+001699999V0203601N002619999999N0000001N9-01891+99999101541ADDGF107991999999999999999999
0029228020999991918012106004+61700+030683FM-12+001699999V0203601N009319999999N0000001N9-01001+99999100841ADDGF108991999999999999999999
0029228020999991918012113004+61700+030683FM-12+001699999V0200901N002619999999N0000001N9-00721+99999100761ADDGF108991999999999999999999
0035228020999991918012120004+61700+030683FM-12+001699999V0200901N004619999999N0000001N9+00061+99999100391ADDGF108991999999999999999999MW1601
0029228020999991918012206004+61700+030683FM-12+001699999V0201801N002619999999N0000001N9+00221+99999100181ADDGF108991999999999999999999
0029228020999991918012213004+61700+030683FM-12+001699999V0202701N001019999999N0000001N9+00221+99999100561ADDGF108991999999999999999999
0035228020999991918012220004+61700+030683FM-12+001699999V0203601N002619999999N0000001N9-00221+99999100831ADDGF108991999999999999999999MW1721
0029228020999991918012306004+61700+030683FM-12+001699999V0203601N004619999999N0000001N9-00501+99999101191ADDGF108991999999999999999999
0029228020999991918012313004+61700+030683FM-12+001699999V0203601N001019999999N0000001N9-00721+99999101751ADDGF108991999999999999999999
0029228020999991918012320004+61700+030683FM-12+001699999V0203601N004619999999N0000001N9-01061+99999102151ADDGF107991999999999999999999
0029228020999991918012406004+61700+030683FM-12+001699999V0203601N004619999999N0000001N9-02331+99999102471ADDGF106991999999999999999999
0029228020999991918012413004+61700+030683FM-12+001699999V0203601N002619999999N0000001N9-01441+99999102901ADDGF100991999999999999999999
0029228020999991918012420004+61700+030683FM-12+001699999V0203601N006719999999N0000001N9-02281+99999103311ADDGF100991999999999999999999
0029228020999991918012506004+61700+030683FM-12+001699999V0203601N004619999999N0000001N9-02391+99999103311ADDGF108991999999999999999999
0035228020999991918012513004+61700+030683FM-12+001699999V0201801N002619999999N0000001N9-01111+99999101871ADDGF108991999999999999999999MW1721
0029228020999991918012520004+61700+030683FM-12+001699999V0201801N004619999999N0000001N9-00281+99999101191ADDGF108991999999999999999999
0029228020999991918012606004+61700+030683FM-12+001699999V0201801N002619999999N0000001N9+00111+99999100961ADDGF100991999999999999999999
0029228020999991918012613004+61700+030683FM-12+001699999V0201801N004619999999N0000001N9+00061+99999100991ADDGF108991999999999999999999
0029228020999991918012620004+61700+030683FM-12+001699999V0202301N009319999999N0000001N9+00061+99999100751ADDGF100991999999999999999999
0029228020999991918012706004+61700+030683FM-12+001699999V0203201N002619999999N0000001N9+00221+99999100581ADDGF108991999999999999999999
0029228020999991918012713004+61700+030683FM-12+001699999V0202301N006719999999N0000001N9+00331+99999100481ADDGF108991999999999999999999
0029228020999991918012720004+61700+030683FM-12+001699999V0202301N004619999999N0000001N9+00221+99999100311ADDGF108991999999999999999999
0035228020999991918012806004+61700+030683FM-12+001699999V0201801N006719999999N0000001N9+00281+99999999999ADDGF108991999999999999999999MW1601
0029228020999991918012813004+61700+030683FM-12+001699999V0201801N012319999999N0000001N9+00391+99999100921ADDGF108991999999999999999999
0029228020999991918012820004+61700+030683FM-12+001699999V0209991C000019999999N0000001N9-00281+99999101121ADDGF100991999999999999999999
0029228020999991918012906004+61700+030683FM-12+001699999V0201801N002619999999N0000001N9-00061+99999100431ADDGF100991999999999999999999
0029228020999991918012913004+61700+030683FM-12+001699999V0201801N002619999999N0000001N9+00171+99999100461ADDGF108991999999999999999999
0029228020999991918012920004+61700+030683FM-12+001699999V0201801N002619999999N0000001N9+00111+99999100621ADDGF108991999999999999999999
0029228020999991918013006004+61700+030683FM-12+001699999V0200901N006719999999N0000001N9-00781+99999102121ADDGF108991999999999999999999
0029228020999991918013013004+61700+030683FM-12+001699999V0203601N009319999999N0000001N9-00781+99999102601ADDGF108991999999999999999999
0029228020999991918013020004+61700+030683FM-12+001699999V0203601N006719999999N0000001N9-01221+99999102601ADDGF108991999999999999999999
0029228020999991918013106004+61700+030683FM-12+001699999V0203601N004619999999N0000001N9-00831+99999102081ADDGF100991999999999999999999
0029228020999991918013113004+61700+030683FM-12+001699999V0202701N006719999999N0000001N9-00111+99999101261ADDGF108991999999999999999999
0029228020999991918013120004+61700+030683FM-12+001699999V0202701N004619999999N0000001N9+00281+99999101711ADDGF108991999999999999999999
0029228020999991918020106004+61700+030683FM-12+001699999V0201801N004619999999N0000001N9+00171+99999102001ADDGF108991999999999999999999
0029228020999991918020113004+61700+030683FM-12+001699999V0201801N006719999999N0000001N9+00391+99999101351ADDGF108991999999999999999999
0029228020999991918020120004+61700+030683FM-12+001699999V0201801N006719999999N0000001N9+00391+99999101541ADDGF100991999999999999999999
0029228020999991918020206004+61700+030683FM-12+001699999V0203601N002619999999N0000001N9-00721+99999103031ADDGF103991999999999999999999
0029228020999991918020213004+61700+030683FM-12+001699999V0201801N006719999999N0000001N9-00781+99999103041ADDGF108991999999999999999999
0029228020999991918020220004+61700+030683FM-12+001699999V0201801N004619999999N0000001N9-00781+99999102871ADDGF108991999999999999999999
0029228020999991918020306004+61700+030683FM-12+001699999V0201801N004619999999N0000001N9-00501+99999102311ADDGF108991999999999999999999
0029228020999991918020313004+61700+030683FM-12+001699999V0201801N006719999999N0000001N9-00281+99999101671ADDGF108991999999999999999999
0029228020999991918020320004+61700+030683FM-12+001699999V0203601N004619999999N0000001N9-00331+99999101551ADDGF108991999999999999999999
0029228020999991918020406004+61700+030683FM-12+001699999V0203201N004619999999N0000001N9-00501+99999101801ADDGF100991999999999999999999
0029228020999991918020413004+61700+030683FM-12+001699999V0203201N001019999999N0000001N9-00061+99999102201ADDGF101991999999999999999999
0029228020999991918020420004+61700+030683FM-12+001699999V0209991C000019999999N0000001N9-00941+99999102351ADDGF100991999999999999999999
0029228020999991918020506004+61700+030683FM-12+001699999V0201801N006719999999N0000001N9-00171+99999101911ADDGF108991999999999999999999
0029228020999991918020513004+61700+030683FM-12+001699999V0202701N004619999999N0000001N9+00001+99999101621ADDGF108991999999999999999999
0029228020999991918020520004+61700+030683FM-12+001699999V0201801N004619999999N0000001N9-00171+99999101591ADDGF108991999999999999999999
0029228020999991918020606004+61700+030683FM-12+001699999V0202001N006719999999N0000001N9-00061+99999101231ADDGF108991999999999999999999
0029228020999991918020613004+61700+030683FM-12+001699999V0201801N009319999999N0000001N9+00221+99999100981ADDGF108991999999999999999999
0029228020999991918020620004+61700+030683FM-12+001699999V0201801N004619999999N0000001N9+00001+99999100791ADDGF108991999999999999999999
0029228020999991918020706004+61700+030683FM-12+001699999V0201801N006719999999N0000001N9-00061+99999100181ADDGF108991999999999999999999
0029228020999991918020713004+61700+030683FM-12+001699999V0201801N004619999999N0000001N9-00171+99999100021ADDGF108991999999999999999999
0029228020999991918020720004+61700+030683FM-12+001699999V0201801N002619999999N0000001N9-00281+99999099721ADDGF108991999999999999999999
0029228020999991918020806004+61700+030683FM-12+001699999V0201801N006719999999N0000001N9-00331+99999099661ADDGF108991999999999999999999
0029228020999991918020813004+61700+030683FM-12+001699999V0201801N009319999999N0000001N9-00281+99999099801ADDGF108991999999999999999999
0029228020999991918020820004+61700+030683FM-12+001699999V0201801N009319999999N0000001N9-01111+99999100201ADDGF108991999999999999999999
0035228020999991918020906004+61700+030683FM-12+001699999V0201801N009319999999N0000001N9-01561+99999099901ADDGF108991999999999999999999MW1721
0029228020999991918020913004+61700+030683FM-12+001699999V0201801N006719999999N0000001N9-01281+99999099951ADDGF108991999999999999999999
0029228020999991918020920004+61700+030683FM-12+001699999V0209991C000019999999N0000001N9-02001+99999100461ADDGF100991999999999999999999
0029228020999991918021006004+61700+030683FM-12+001699999V0203601N004619999999N0000001N9-02281+99999101071ADDGF108991999999999999999999
0029228020999991918021013004+61700+030683FM-12+001699999V0203201N006719999999N0000001N9-01671+99999101081ADDGF108991999999999999999999
0029228020999991918021020004+61700+030683FM-12+001699999V0203601N004619999999N0000001N9-01721+99999100481ADDGF108991999999999999999999
0029228020999991918021106004+61700+030683FM-12+001699999V0203601N004619999999N0000001N9-01781+99999100301ADDGF108991999999999999999999
0029228020999991918021113004+61700+030683FM-12+001699999V0203601N006719999999N0000001N9-01501+99999100471ADDGF108991999999999999999999
0029228020999991918021120004+61700+030683FM-12+001699999V0203601N002619999999N0000001N9-01891+99999100631ADDGF108991999999999999999999
0029228020999991918021206004+61700+030683FM-12+001699999V0203601N002619999999N0000001N9-02501+99999100831ADDGF100991999999999999999999
0029228020999991918021213004+61700+030683FM-12+001699999V0200201N004619999999N0000001N9-01501+99999100901ADDGF108991999999999999999999
0029228020999991918021220004+61700+030683FM-12+001699999V0203601N002619999999N0000001N9-01781+99999101001ADDGF100991999999999999999999
0029228020999991918021306004+61700+030683FM-12+001699999V0200501N002619999999N0000001N9-01061+99999100391ADDGF100991999999999999999999
0029228020999991918021313004+61700+030683FM-12+001699999V0203601N004619999999N0000001N9-00561+99999100551ADDGF108991999999999999999999
0029228020999991918021320004+61700+030683FM-12+001699999V0203601N004619999999N0000001N9-00611+99999100841ADDGF108991999999999999999999
0029228020999991918021406004+61700+030683FM-12+001699999V0203601N006719999999N0000001N9-01221+99999101381ADDGF108991999999999999999999
0029228020999991918021413004+61700+030683FM-12+001699999V0203601N009319999999N0000001N9-00781+99999101741ADDGF108991999999999999999999
0029228020999991918021420004+61700+030683FM-12+001699999V0203601N006719999999N0000001N9-01111+99999102631ADDGF108991999999999999999999
0029228020999991918021506004+61700+030683FM-12+001699999V0203601N002619999999N0000001N9-01441+99999103341ADDGF108991999999999999999999
0029228020999991918021513004+61700+030683FM-12+001699999V0203601N006719999999N0000001N9-00891+99999103361ADDGF108991999999999999999999
0029228020999991918021520004+61700+030683FM-12+001699999V0203601N004619999999N0000001N9-01331+99999103341ADDGF100991999999999999999999
0029228020999991918021606004+61700+030683FM-12+001699999V0202301N004619999999N0000001N9-01171+99999103111ADDGF108991999999999999999999
0029228020999991918021613004+61700+030683FM-12+001699999V0202001N006719999999N0000001N9-00611+99999102961ADDGF108991999999999999999999
0029228020999991918021620004+61700+030683FM-12+001699999V0201801N006719999999N0000001N9-00611+99999102881ADDGF108991999999999999999999
0029228020999991918021706004+61700+030683FM-12+001699999V0203201N004619999999N0000001N9-00611+99999103261ADDGF108991999999999999999999
0029228020999991918021713004+61700+030683FM-12+001699999V0201801N006719999999N0000001N9-00391+99999103401ADDGF108991999999999999999999
0029228020999991918021720004+61700+030683FM-12+001699999V0201801N004619999999N0000001N9-00441+99999103631ADDGF108991999999999999999999
0029228020999991918021806004+61700+030683FM-12+001699999V0201801N009319999999N0000001N9-00501+99999104001ADDGF108991999999999999999999
0029228020999991918021813004+61700+030683FM-12+001699999V0201801N004619999999N0000001N9-01001+99999104151ADDGF108991999999999999999999
0029228020999991918021820004+61700+030683FM-12+001699999V0203601N002619999999N0000001N9-01671+99999104231ADDGF100991999999999999999999
0029228020999991918021906004+61700+030683FM-12+001699999V0201401N006719999999N0000001N9-01111+99999104001ADDGF108991999999999999999999
0029228020999991918021913004+61700+030683FM-12+001699999V0201801N004619999999N0000001N9-01061+99999103801ADDGF108991999999999999999999
0029228020999991918021920004+61700+030683FM-12+001699999V0209991C000019999999N0000001N9-01671+99999103671ADDGF100991999999999999999999
0029228020999991918022006004+61700+030683FM-12+001699999V0209991C000019999999N0000001N9-02221+99999103301ADDGF100991999999999999999999
0029228020999991918022013004+61700+030683FM-12+001699999V0209991C000019999999N0000001N9-01001+99999103041ADDGF100991999999999999999999
0029228020999991918022020004+61700+030683FM-12+001699999V0209991C000019999999N0000001N9-01561+99999103201ADDGF100991999999999999999999
0035228020999991918022106004+61700+030683FM-12+001699999V0201401N004619999999N0000001N9-01281+99999102981ADDGF108991999999999999999999MW1721
0035228020999991918022113004+61700+030683FM-12+001699999V0200901N004619999999N0000001N9-01221+99999102501ADDGF108991999999999999999999MW1721
0035228020999991918022120004+61700+030683FM-12+001699999V0201401N006719999999N0000001N9-01171+99999102081ADDGF108991999999999999999999MW1721
0035228020999991918022206004+61700+030683FM-12+001699999V0200901N006719999999N0000001N9-01501+99999101441ADDGF108991999999999999999999MW1701
0035228020999991918022213004+61700+030683FM-12+001699999V0200901N009319999999N0000001N9-01061+99999101161ADDGF108991999999999999999999MW1701
0029228020999991918022220004+61700+030683FM-12+001699999V0200901N004619999999N0000001N9-01721+99999101031ADDGF108991999999999999999999
0029228020999991918022306004+61700+030683FM-12+001699999V0200901N004619999999N0000001N9-02441+99999100841ADDGF108991999999999999999999
0029228020999991918022313004+61700+030683FM-12+001699999V0200901N006719999999N0000001N9-01441+99999101081ADDGF108991999999999999999999
0029228020999991918022320004+61700+030683FM-12+001699999V0200901N004619999999N0000001N9-01941+99999101231ADDGF108991999999999999999999
0029228020999991918022406004+61700+030683FM-12+001699999V0200901N001019999999N0000001N9-01391+99999101041ADDGF108991999999999999999999
0029228020999991918022413004+61700+030683FM-12+001699999V0201401N004619999999N0000001N9-01111+99999100791ADDGF108991999999999999999999
0035228020999991918022420004+61700+030683FM-12+001699999V0201801N002619999999N0000001N9-00721+99999100481ADDGF108991999999999999999999MW1701
0029228020999991918022506004+61700+030683FM-12+001699999V0201401N015419999999N0000001N9-00781+99999100481ADDGF108991999999999999999999
0029228020999991918022513004+61700+030683FM-12+001699999V0201801N004619999999N0000001N9-00061+99999100681ADDGF100991999999999999999999
0029228020999991918022520004+61700+030683FM-12+001699999V0201801N002619999999N0000001N9-01001+99999100721ADDGF100991999999999999999999
0029228020999991918022606004+61700+030683FM-12+001699999V0200901N006719999999N0000001N9-01781+99999100481ADDGF108991999999999999999999
0029228020999991918022613004+61700+030683FM-12+001699999V0201801N001019999999N0000001N9-00611+99999999999ADDGF100991999999999999999999
0029228020999991918022620004+61700+030683FM-12+001699999V0201801N006719999999N0000001N9-00611+99999099471ADDGF108991999999999999999999
0035228020999991918022706004+61700+030683FM-12+001699999V0201801N009319999999N0000001N9-00221+99999097591ADDGF108991999999999999999999MW1721
0029228020999991918022713004+61700+030683FM-12+001699999V0201801N002619999999N0000001N9+00111+99999097441ADDGF108991999999999999999999
0029228020999991918022720004+61700+030683FM-12+001699999V0201801N002619999999N0000001N9+00061+99999097561ADDGF108991999999999999999999
0029228020999991918022806004+61700+030683FM-12+001699999V0203601N004619999999N0000001N9-00561+99999097951ADDGF108991999999999999999999
0035228020999991918022813004+61700+030683FM-12+001699999V0203201N002619999999N0000001N9-00501+99999098431ADDGF108991999999999999999999MW1701
0035228020999991918022820004+61700+030683FM-12+001699999V0202301N004619999999N0000001N9-00721+99999098841ADDGF108991999999999999999999MW1701
0035228020999991918030106004+61700+030683FM-12+001699999V0203201N002619999999N0000001N9-00941+99999099521ADDGF108991999999999999999999MW1701
0035228020999991918030113004+61700+030683FM-12+001699999V0203201N002619999999N0000001N9-00501+99999099871ADDGF108991999999999999999999MW1701
0029228020999991918030120004+61700+030683FM-12+001699999V0203601N001019999999N0000001N9-00781+99999100911ADDGF108991999999999999999999
0035228020999991918030206004+61700+030683FM-12+001699999V0203601N002619999999N0000001N9-00781+99999101961ADDGF107991999999999999999999MW1701
0035228020999991918030213004+61700+030683FM-12+001699999V0209991C000019999999N0000001N9-00281+99999102381ADDGF100991999999999999999999MW1701
0029228020999991918030220004+61700+030683FM-12+001699999V0209991C000019999999N0000001N9-01281+99999102751ADDGF100991999999999999999999
0029228020999991918030306004+61700+030683FM-12+001699999V0203601N002619999999N0000001N9-00671+99999102841ADDGF108991999999999999999999
0029228020999991918030313004+61700+030683FM-12+001699999V0209991C000019999999N0000001N9+00171+99999103221ADDGF100991999999999999999999
0029228020999991918030320004+61700+030683FM-12+001699999V0209991C000019999999N0000001N9-00391+99999103391ADDGF100991999999999999999999
0029228020999991918030406004+61700+030683FM-12+001699999V0209991C000019999999N0000001N9-01061+99999103801ADDGF100991999999999999999999
0029228020999991918030413004+61700+030683FM-12+001699999V0209991C000019999999N0000001N9+00171+99999103951ADDGF100991999999999999999999
0029228020999991918030420004+61700+030683FM-12+001699999V0209991C000019999999N0000001N9-00721+99999104121ADDGF108991999999999999999999
0029228020999991918030506004+61700+030683FM-12+001699999V0203201N002619999999N0000001N9-01441+99999104141ADDGF108991999999999999999999
0029228020999991918030513004+61700+030683FM-12+001699999V0203201N001019999999N0000001N9+00111+99999103911ADDGF108991999999999999999999
0029228020999991918030520004+61700+030683FM-12+001699999V0203601N006719999999N0000001N9-00111+99999103341ADDGF108991999999999999999999
0029228020999991918030606004+61700+030683FM-12+001699999V0202301N004619999999N0000001N9-00331+99999102581ADDGF108991999999999999999999
0029228020999991918030613004+61700+030683FM-12+001699999V0203201N006719999999N0000001N9+00391+99999102471ADDGF100991999999999999999999
0029228020999991918030620004+61700+030683FM-12+001699999V0203601N002619999999N0000001N9-00281+99999102761ADDGF108991999999999999999999
0029228020999991918030706004+61700+030683FM-12+001699999V0203601N004619999999N0000001N9-00941+99999103161ADDGF108991999999999999999999
0029228020999991918030713004+61700+030683FM-12+001699999V0203601N002619999999N0000001N9-00171+99999103101ADDGF100991999999999999999999
0029228020999991918030720004+61700+030683FM-12+001699999V0203601N004619999999N0000001N9-00281+99999102431ADDGF108991999999999999999999
0029228020999991918030806004+61700+030683FM-12+001699999V0203201N004619999999N0000001N9-00441+99999102191ADDGF108991999999999999999999
0029228020999991918030813004+61700+030683FM-12+001699999V0203201N002619999999N0000001N9+00281+99999102181ADDGF100991999999999999999999
0029228020999991918030820004+61700+030683FM-12+001699999V0203201N006719999999N0000001N9+00001+99999102061ADDGF108991999999999999999999
0029228020999991918030906004+61700+030683FM-12+001699999V0203201N002619999999N0000001N9-00561+99999102061ADDGF108991999999999999999999
0029228020999991918030913004+61700+030683FM-12+001699999V0203201N001019999999N0000001N9+00501+99999102031ADDGF100991999999999999999999
0029228020999991918030920004+61700+030683FM-12+001699999V0209991C000019999999N0000001N9-00111+99999101751ADDGF108991999999999999999999
0029228020999991918031006004+61700+030683FM-12+001699999V0209991C000019999999N0000001N9-00391+99999101951ADDGF108991999999999999999999
0029228020999991918031013004+61700+030683FM-12+001699999V0209991C000019999999N0000001N9-00061+99999102221ADDGF100991999999999999999999
0029228020999991918031020004+61700+030683FM-12+001699999V0209991C000019999999N0000001N9-00281+99999102321ADDGF108991999999999999999999
0029228020999991918031106004+61700+030683FM-12+001699999V0201401N002619999999N0000001N9-00781+99999102341ADDGF107991999999999999999999
0029228020999991918031113004+61700+030683FM-12+001699999V0203601N009319999999N0000001N9-00721+99999102241ADDGF108991999999999999999999
0029228020999991918031120004+61700+030683FM-12+001699999V0203601N006719999999N0000001N9-00831+99999101861ADDGF108991999999999999999999
0029228020999991918031206004+61700+030683FM-12+001699999V0200701N009319999999N0000001N9-01061+99999101661ADDGF108991999999999999999999
0029228020999991918031213004+61700+030683FM-12+001699999V0200701N002619999999N0000001N9-00441+99999101961ADDGF100991999999999999999999
0029228020999991918031220004+61700+030683FM-12+001699999V0209991C000019999999N0000001N9-00441+99999102481ADDGF100991999999999999999999
0029228020999991918031306004+61700+030683FM-12+001699999V0209991C000019999999N0000001N9-02281+99999102941ADDGF100991999999999999999999
0029228020999991918031313004+61700+030683FM-12+001699999V0201401N002619999999N0000001N9-00831+99999102921ADDGF100991999999999999999999
0029228020999991918031320004+61700+030683FM-12+001699999V0209991C000019999999N0000001N9-01561+99999102701ADDGF100991999999999999999999
0029228020999991918031406004+61700+030683FM-12+001699999V0209991C000019999999N0000001N9-00781+99999102261ADDGF108991999999999999999999
0029228020999991918031413004+61700+030683FM-12+001699999V0202301N001019999999N0000001N9+00171+99999102071ADDGF108991999999999999999999
0029228020999991918031420004+61700+030683FM-12+001699999V0202301N004619999999N0000001N9+00221+99999102121ADDGF108991999999999999999999
0029228020999991918031506004+61700+030683FM-12+001699999V0202501N002619999999N0000001N9+00001+99999102101ADDGF108991999999999999999999
0029228020999991918031513004+61700+030683FM-12+001699999V0202301N002619999999N0000001N9+00611+99999101781ADDGF100991999999999999999999
0029228020999991918031520004+61700+030683FM-12+001699999V0202301N001019999999N0000001N9+00441+99999101901ADDGF108991999999999999999999
0029228020999991918031606004+61700+030683FM-12+001699999V0203201N004619999999N0000001N9+00221+99999101071ADDGF100991999999999999999999
0029228020999991918031613004+61700+030683FM-12+001699999V0203201N009319999999N0000001N9+00331+99999101631ADDGF100991999999999999999999
0029228020999991918031620004+61700+030683FM-12+001699999V0203601N006719999999N0000001N9-00281+99999101921ADDGF108991999999999999999999
0029228020999991918031706004+61700+030683FM-12+001699999V0203201N006719999999N0000001N9-00561+99999102231ADDGF100991999999999999999999
0029228020999991918031713004+61700+030683FM-12+001699999V0203601N004619999999N0000001N9+00281+99999102111ADDGF100991999999999999999999
0029228020999991918031720004+61700+030683FM-12+001699999V0209991C000019999999N0000001N9-00721+99999102181ADDGF100991999999999999999999
0029228020999991918031806004+61700+030683FM-12+001699999V0203601N001019999999N0000001N9-00671+99999102061ADDGF108991999999999999999999
0029228020999991918031813004+61700+030683FM-12+001699999V0203601N001019999999N0000001N9+00111+99999101941ADDGF100991999999999999999999
0029228020999991918031820004+61700+030683FM-12+001699999V0203601N002619999999N0000001N9-00331+99999101381ADDGF106991999999999999999999
0029228020999991918031906004+61700+030683FM-12+001699999V0202301N004619999999N0000001N9-00561+99999101021ADDGF103991999999999999999999
0029228020999991918031913004+61700+030683FM-12+001699999V0203601N004619999999N0000001N9+00441+99999100871ADDGF103991999999999999999999
0029228020999991918031920004+61700+030683FM-12+001699999V0209991C000019999999N0000001N9-00111+99999100821ADDGF100991999999999999999999
0029228020999991918032006004+61700+030683FM-12+001699999V0203601N004619999999N0000001N9-00441+99999101071ADDGF108991999999999999999999
0029228020999991918032013004+61700+030683FM-12+001699999V0203201N004619999999N0000001N9+00441+99999101141ADDGF105991999999999999999999
0029228020999991918032020004+61700+030683FM-12+001699999V0203601N004619999999N0000001N9-00331+99999101191ADDGF101991999999999999999999
0035228020999991918032106004+61700+030683FM-12+001699999V0203201N004619999999N0000001N9-00441+99999101081ADDGF108991999999999999999999MW1701
0029228020999991918032113004+61700+030683FM-12+001699999V0203601N006719999999N0000001N9+00111+99999101161ADDGF108991999999999999999999
0029228020999991918032120004+61700+030683FM-12+001699999V0203601N004619999999N0000001N9-00391+99999101221ADDGF100991999999999999999999
0029228020999991918032206004+61700+030683FM-12+001699999V0203601N002619999999N0000001N9-00941+99999101041ADDGF108991999999999999999999
0029228020999991918032213004+61700+030683FM-12+001699999V0203201N001019999999N0000001N9-00061+99999100781ADDGF108991999999999999999999
0029228020999991918032220004+61700+030683FM-12+001699999V0203201N002619999999N0000001N9-00171+99999100471ADDGF108991999999999999999999
0029228020999991918032306004+61700+030683FM-12+001699999V0203201N002619999999N0000001N9+00281+99999098311ADDGF104991999999999999999999
0029228020999991918032313004+61700+030683FM-12+001699999V0203201N009319999999N0000001N9+00501+99999097791ADDGF108991999999999999999999
0029228020999991918032320004+61700+030683FM-12+001699999V0203201N009319999999N0000001N9+00171+99999098101ADDGF108991999999999999999999
0029228020999991918032406004+61700+030683FM-12+001699999V0203201N009319999999N0000001N9-01061+99999099021ADDGF108991999999999999999999
0029228020999991918032413004+61700+030683FM-12+001699999V0203601N009319999999N0000001N9-00891+99999099701ADDGF100991999999999999999999
0029228020999991918032420004+61700+030683FM-12+001699999V0203601N012319999999N0000001N9-01561+99999100191ADDGF100991999999999999999999
0029228020999991918032506004+61700+030683FM-12+001699999V0203601N009319999999N0000001N9-01561+99999099951ADDGF100991999999999999999999
0029228020999991918032513004+61700+030683FM-12+001699999V0203601N006719999999N0000001N9-00831+99999099961ADDGF108991999999999999999999
0029228020999991918032520004+61700+030683FM-12+001699999V0203601N004619999999N0000001N9-01061+99999100061ADDGF108991999999999999999999
0029228020999991918032606004+61700+030683FM-12+001699999V0203601N009319999999N0000001N9-01331+99999099741ADDGF108991999999999999999999
0029228020999991918032613004+61700+030683FM-12+001699999V0203601N009319999999N0000001N9-00831+99999099831ADDGF108991999999999999999999
0029228020999991918032620004+61700+030683FM-12+001699999V0203601N009319999999N0000001N9-01111+99999100241ADDGF100991999999999999999999
0029228020999991918032706004+61700+030683FM-12+001699999V0203601N001019999999N0000001N9-01281+99999100821ADDGF100991999999999999999999
0029228020999991918032713004+61700+030683FM-12+001699999V0203601N006719999999N0000001N9-01061+99999100921ADDGF108991999999999999999999
0029228020999991918032720004+61700+030683FM-12+001699999V0203601N002619999999N0000001N9-01331+99999101061ADDGF107991999999999999999999
0029228020999991918032806004+61700+030683FM-12+001699999V0209991C000019999999N0000001N9-01891+99999101361ADDGF100991999999999999999999
0029228020999991918032813004+61700+030683FM-12+001699999V0203601N002619999999N0000001N9-00721+99999101141ADDGF100991999999999999999999
0029228020999991918032820004+61700+030683FM-12+001699999V0203601N001019999999N0000001N9-00831+99999100701ADDGF108991999999999999999999
0035228020999991918032906004+61700+030683FM-12+001699999V0203601N004619999999N0000001N9-00391+99999099641ADDGF108991999999999999999999MW1741
0029228020999991918032913004+61700+030683FM-12+001699999V0209991C000019999999N0000001N9+00171+99999099791ADDGF108991999999999999999999
0029228020999991918032920004+61700+030683FM-12+001699999V0203601N002619999999N0000001N9+00221+99999100161ADDGF108991999999999999999999
0029228020999991918033006004+61700+030683FM-12+001699999V0202701N001019999999N0000001N9+00061+99999100711ADDGF107991999999999999999999
0029228020999991918033013004+61700+030683FM-12+001699999V0203601N002619999999N0000001N9+00501+99999100921ADDGF100991999999999999999999
0029228020999991918033020004+61700+030683FM-12+001699999V0203601N004619999999N0000001N9+00111+99999101921ADDGF108991999999999999999999
0029228020999991918033106004+61700+030683FM-12+001699999V0209991C000019999999N0000001N9-00221+99999102381ADDGF100991999999999999999999
0029228020999991918033113004+61700+030683FM-12+001699999V0202301N001019999999N0000001N9+00391+99999102621ADDGF100991999999999999999999
0029228020999991918033120004+61700+030683FM-12+001699999V0202301N002619999999N0000001N9-00391+99999102561ADDGF108991999999999999999999
0029228020999991918040106004+61700+030683FM-12+001699999V0201101N006719999999N0000001N9-00061+99999102431ADDGF108991999999999999999999
0029228020999991918040113004+61700+030683FM-12+001699999V0200901N006719999999N0000001N9+00061+99999102381ADDGF108991999999999999999999
0029228020999991918040120004+61700+030683FM-12+001699999V0200901N004619999999N0000001N9+00001+99999102431ADDGF108991999999999999999999
0035228020999991918040206004+61700+030683FM-12+001699999V0203601N006719999999N0000001N9-00061+99999102311ADDGF108991999999999999999999MW1721
0029228020999991918040213004+61700+030683FM-12+001699999V0200901N006719999999N0000001N9+00281+99999102301ADDGF102991999999999999999999
0029228020999991918040220004+61700+030683FM-12+001699999V0201801N002619999999N0000001N9+00061+99999102351ADDGF108991999999999999999999
0029228020999991918040306004+61700+030683FM-12+001699999V0203601N004619999999N0000001N9-00281+99999102391ADDGF108991999999999999999999
0029228020999991918040313004+61700+030683FM-12+001699999V0203601N004619999999N0000001N9+00221+99999102351ADDGF108991999999999999999999
0029228020999991918040320004+61700+030683FM-12+001699999V0209991C000019999999N0000001N9+00281+99999102191ADDGF108991999999999999999999
0029228020999991918040406004+61700+030683FM-12+001699999V0200901N006719999999N0000001N9+00061+99999102081ADDGF108991999999999999999999
0029228020999991918040413004+61700+030683FM-12+001699999V0200901N002619999999N0000001N9+00221+99999102081ADDGF108991999999999999999999
0029228020999991918040420004+61700+030683FM-12+001699999V0209991C000019999999N0000001N9+00171+99999102061ADDGF108991999999999999999999
0029228020999991918040506004+61700+030683FM-12+001699999V0201801N002619999999N0000001N9+00061+99999101821ADDGF108991999999999999999999
0029228020999991918040513004+61700+030683FM-12+001699999V0201801N001019999999N0000001N9+00281+99999101881ADDGF108991999999999999999999
0029228020999991918040520004+61700+030683FM-12+001699999V0209991C000019999999N0000001N9+00111+99999101911ADDGF108991999999999999999999
0029228020999991918040606004+61700+030683FM-12+001699999V0201801N002619999999N0000001N9+00061+99999101751ADDGF108991999999999999999999
0029228020999991918040613004+61700+030683FM-12+001699999V0201801N001019999999N0000001N9+00441+99999101781ADDGF100991999999999999999999
0029228020999991918040620004+61700+030683FM-12+001699999V0201801N001019999999N0000001N9+00331+99999102041ADDGF108991999999999999999999
0029228020999991918040706004+61700+030683FM-12+001699999V0203601N001019999999N0000001N9-00061+99999102301ADDGF103991999999999999999999
0029228020999991918040713004+61700+030683FM-12+001699999V0203601N001019999999N0000001N9+00671+99999102361ADDGF100991999999999999999999
0029228020999991918040720004+61700+030683FM-12+001699999V0209991C000019999999N0000001N9+00061+99999102441ADDGF108991999999999999999999
0029228020999991918040806004+61700+030683FM-12+001699999V0209991C000019999999N0000001N9+00061+99999102751ADDGF108991999999999999999999
0029228020999991918040813004+61700+030683FM-12+001699999V0209991C000019999999N0000001N9+00281+99999102671ADDGF108991999999999999999999
0029228020999991918040820004+61700+030683FM-12+001699999V0209991C000019999999N0000001N9+00001+99999102591ADDGF108991999999999999999999
0029228020999991918040906004+61700+030683FM-12+001699999V0203601N002619999999N0000001N9-00281+99999102581ADDGF100991999999999999999999
0029228020999991918040913004+61700+030683FM-12+001699999V0201401N002619999999N0000001N9+00561+99999102461ADDGF100991999999999999999999
0029228020999991918040920004+61700+030683FM-12+001699999V0203601N002619999999N0000001N9-00111+99999102281ADDGF100991999999999999999999
0029228020999991918041006004+61700+030683FM-12+001699999V0203601N002619999999N0000001N9-00391+99999102041ADDGF100991999999999999999999
0029228020999991918041013004+61700+030683FM-12+001699999V0209991C000019999999N0000001N9+00611+99999102081ADDGF100991999999999999999999
0029228020999991918041020004+61700+030683FM-12+001699999V0203601N001019999999N0000001N9+00061+99999101961ADDGF108991999999999999999999
0029228020999991918041106004+61700+030683FM-12+001699999V0203601N002619999999N0000001N9+00001+99999101861ADDGF108991999999999999999999
0029228020999991918041113004+61700+030683FM-12+001699999V0201401N001019999999N0000001N9+00171+99999101901ADDGF108991999999999999999999
0029228020999991918041120004+61700+030683FM-12+001699999V0203601N004619999999N0000001N9+00061+99999101991ADDGF108991999999999999999999
0029228020999991918041206004+61700+030683FM-12+001699999V0203601N001019999999N0000001N9+00001+99999102221ADDGF108991999999999999999999
0029228020999991918041213004+61700+030683FM-12+001699999V0209991C000019999999N0000001N9+00611+99999102151ADDGF100991999999999999999999
0029228020999991918041220004+61700+030683FM-12+001699999V0209991C000019999999N0000001N9+00001+99999101961ADDGF100991999999999999999999
0029228020999991918041306004+61700+030683FM-12+001699999V0201801N002619999999N0000001N9+00061+99999101561ADDGF100991999999999999999999
0029228020999991918041313004+61700+030683FM-12+001699999V0201801N002619999999N0000001N9+00391+99999101281ADDGF108991999999999999999999
0029228020999991918041320004+61700+030683FM-12+001699999V0201801N001019999999N0000001N9+00061+99999101271ADDGF108991999999999999999999
0035228020999991918041406004+61700+030683FM-12+001699999V0201801N004619999999N0000001N9+00111+99999101111ADDGF108991999999999999999999MW1621
0029228020999991918041413004+61700+030683FM-12+001699999V0201801N002619999999N0000001N9+00671+99999101281ADDGF107991999999999999999999
0029228020999991918041420004+61700+030683FM-12+001699999V0201801N006719999999N0000001N9+00221+99999101781ADDGF108991999999999999999999
0029228020999991918041506004+61700+030683FM-12+001699999V0203601N009319999999N0000001N9-00171+99999102401ADDGF108991999999999999999999
0029228020999991918041513004+61700+030683FM-12+001699999V0203601N004619999999N0000001N9+00171+99999102541ADDGF100991999999999999999999
0029228020999991918041520004+61700+030683FM-12+001699999V0209991C000019999999N0000001N9-00221+99999102581ADDGF100991999999999999999999
0029228020999991918041606004+61700+030683FM-12+001699999V0203601N004619999999N0000001N9-00501+99999102471ADDGF100991999999999999999999
0029228020999991918041613004+61700+030683FM-12+001699999V0209991C000019999999N0000001N9+00501+99999102191ADDGF100991999999999999999999
0029228020999991918041620004+61700+030683FM-12+001699999V0203601N002619999999N0000001N9-00171+99999102061ADDGF108991999999999999999999
0029228020999991918041706004+61700+030683FM-12+001699999V0202701N002619999999N0000001N9-00221+99999102021ADDGF108991999999999999999999
0029228020999991918041713004+61700+030683FM-12+001699999V0202301N002619999999N0000001N9+00781+99999101761ADDGF100991999999999999999999
0029228020999991918041720004+61700+030683FM-12+001699999V0209991C000019999999N0000001N9-00061+99999101761ADDGF108991999999999999999999
0029228020999991918041806004+61700+030683FM-12+001699999V0203201N001019999999N0000001N9+00001+99999101551ADDGF103991999999999999999999
0029228020999991918041813004+61700+030683FM-12+001699999V0202301N001019999999N0000001N9+00561+99999101471ADDGF100991999999999999999999
0029228020999991918041820004+61700+030683FM-12+001699999V0209991C000019999999N0000001N9+00221+99999101521ADDGF108991999999999999999999
0035228020999991918041906004+61700+030683FM-12+001699999V0201401N006719999999N0000001N9+00171+99999101601ADDGF108991999999999999999999MW1721
0048228020999991918041913004+61700+030683FM-12+001699999V0201401N006719999999N0000001N9+00611+99999101511ADDGF108991999999999999999999EQDQ01+000702PRSWM1
0029228020999991918041920004+61700+030683FM-12+001699999V0201801N002619999999N0000001N9+00171+99999101581ADDGF108991999999999999999999
0029228020999991918042006004+61700+030683FM-12+001699999V0201401N006719999999N0000001N9+00281+99999101581ADDGF108991999999999999999999
0029228020999991918042013004+61700+030683FM-12+001699999V0201801N002619999999N0000001N9+00941+99999101861ADDGF100991999999999999999999
0029228020999991918042020004+61700+030683FM-12+001699999V0201401N004619999999N0000001N9+00221+99999101901ADDGF108991999999999999999999
0029228020999991918042106004+61700+030683FM-12+001699999V0209991C000019999999N0000001N9+00501+99999102461ADDGF100991999999999999999999
0029228020999991918042113004+61700+030683FM-12+001699999V0203601N002619999999N0000001N9+00891+99999102591ADDGF100991999999999999999999
0029228020999991918042120004+61700+030683FM-12+001699999V0203601N001019999999N0000001N9+00281+99999102761ADDGF108991999999999999999999
0046228020999991918042206004+61700+030683FM-12+001699999V0200501N002619999999N0000001N9+00111+99999103061ADDAJ100009199999999GF100991999999999999999999
0029228020999991918042213004+61700+030683FM-12+001699999V0200901N001019999999N0000001N9+00831+99999103061ADDGF100991999999999999999999
0029228020999991918042220004+61700+030683FM-12+001699999V0200901N004619999999N0000001N9+00111+99999103111ADDGF108991999999999999999999
0046228020999991918042306004+61700+030683FM-12+001699999V0203201N002619999999N0000001N9+00001+99999103391ADDAJ100009199999999GF100991999999999999999999
0029228020999991918042313004+61700+030683FM-12+001699999V0203601N004619999999N0000001N9+01281+99999103341ADDGF100991999999999999999999
0029228020999991918042320004+61700+030683FM-12+001699999V0203601N001019999999N0000001N9+00501+99999103181ADDGF108991999999999999999999
0046228020999991918042406004+61700+030683FM-12+001699999V0203601N002619999999N0000001N9+00391+99999103121ADDAJ100009199999999GF100991999999999999999999
0029228020999991918042413004+61700+030683FM-12+001699999V0201801N001019999999N0000001N9+01611+99999103001ADDGF100991999999999999999999
0029228020999991918042420004+61700+030683FM-12+001699999V0201801N002619999999N0000001N9+00781+99999103141ADDGF108991999999999999999999
0046228020999991918042506004+61700+030683FM-12+001699999V0203601N002619999999N0000001N9-00111+99999103141ADDAJ100009199999999GF100991999999999999999999
0029228020999991918042513004+61700+030683FM-12+001699999V0203601N004619999999N0000001N9+01721+99999103041ADDGF100991999999999999999999
0029228020999991918042520004+61700+030683FM-12+001699999V0203601N001019999999N0000001N9+00781+99999102941ADDGF102991999999999999999999
0046228020999991918042606004+61700+030683FM-12+001699999V0203601N002619999999N0000001N9+00441+99999102821ADDAJ100009199999999GF100991999999999999999999
0029228020999991918042613004+61700+030683FM-12+001699999V0203601N002619999999N0000001N9+01171+99999102681ADDGF100991999999999999999999
0029228020999991918042620004+61700+030683FM-12+001699999V0203601N002619999999N0000001N9+00331+99999102631ADDGF100991999999999999999999
0046228020999991918042706004+61700+030683FM-12+001699999V0203601N001019999999N0000001N9+00281+99999102321ADDAJ100009199999999GF106991999999999999999999
0029228020999991918042713004+61700+030683FM-12+001699999V0203601N001019999999N0000001N9+01721+99999101991ADDGF103991999999999999999999
0029228020999991918042720004+61700+030683FM-12+001699999V0202301N002619999999N0000001N9+00391+99999101721ADDGF108991999999999999999999
0046228020999991918042806004+61700+030683FM-12+001699999V0200501N001019999999N0000001N9+00281+99999101221ADDAJ100009199999999GF106991999999999999999999
0029228020999991918042813004+61700+030683FM-12+001699999V0203601N002619999999N0000001N9+00721+99999101021ADDGF108991999999999999999999
0029228020999991918042820004+61700+030683FM-12+001699999V0203201N004619999999N0000001N9+00611+99999100761ADDGF108991999999999999999999
0046228020999991918042906004+61700+030683FM-12+001699999V0203601N002619999999N0000001N9+00391+99999100911ADDAJ100009199999999GF108991999999999999999999
0029228020999991918042913004+61700+030683FM-12+001699999V0203601N004619999999N0000001N9+00391+99999101551ADDGF108991999999999999999999
0029228020999991918042920004+61700+030683FM-12+001699999V0203601N006719999999N0000001N9-00171+99999102181ADDGF108991999999999999999999
0046228020999991918043006004+61700+030683FM-12+001699999V0203601N009319999999N0000001N9-00281+99999102321ADDAJ100009199999999GF108991999999999999999999
0029228020999991918043013004+61700+030683FM-12+001699999V0203601N012319999999N0000001N9-00171+99999102481ADDGF108991999999999999999999
0029228020999991918043020004+61700+030683FM-12+001699999V0203601N002619999999N0000001N9-00111+99999102191ADDGF108991999999999999999999
0046228020999991918050106004+61700+030683FM-12+001699999V0203601N004619999999N0000001N9+00221+99999101991ADDAJ100009199999999GF108991999999999999999999
0029228020999991918050113004+61700+030683FM-12+001699999V0203601N002619999999N0000001N9+00941+99999101881ADDGF100991999999999999999999
0029228020999991918050120004+61700+030683FM-12+001699999V0203601N001019999999N0000001N9+00281+99999101951ADDGF102991999999999999999999
0046228020999991918050206004+61700+030683FM-12+001699999V0203601N004619999999N0000001N9+00781+99999101141ADDAJ100009199999999GF103991999999999999999999
0029228020999991918050213004+61700+030683FM-12+001699999V0203601N004619999999N0000001N9+01281+99999101281ADDGF100991999999999999999999
0029228020999991918050220004+61700+030683FM-12+001699999V0203601N004619999999N0000001N9+00501+99999101621ADDGF108991999999999999999999
0046228020999991918050306004+61700+030683FM-12+001699999V0203401N006719999999N0000001N9+00111+99999101841ADDAJ100009199999999GF108991999999999999999999
0029228020999991918050313004+61700+030683FM-12+001699999V0203601N006719999999N0000001N9+00001+99999102081ADDGF100991999999999999999999
0029228020999991918050320004+61700+030683FM-12+001699999V0203601N009319999999N0000001N9-00331+99999102511ADDGF108991999999999999999999
0046228020999991918050406004+61700+030683FM-12+001699999V0203601N006719999999N0000001N9-00391+99999102861ADDAJ100009199999999GF105991999999999999999999
0029228020999991918050413004+61700+030683FM-12+001699999V0203601N009319999999N0000001N9-00061+99999102551ADDGF105991999999999999999999
0029228020999991918050420004+61700+030683FM-12+001699999V0203601N009319999999N0000001N9-00221+99999102321ADDGF108991999999999999999999
0046228020999991918050506004+61700+030683FM-12+001699999V0203601N002619999999N0000001N9-00281+99999101861ADDAJ100009199999999GF108991999999999999999999
0035228020999991918050513004+61700+030683FM-12+001699999V0203601N002619999999N0000001N9+00281+99999101501ADDGF108991999999999999999999MW1701
0029228020999991918050520004+61700+030683FM-12+001699999V0203601N002619999999N0000001N9+00061+99999101401ADDGF108991999999999999999999
0046228020999991918050606004+61700+030683FM-12+001699999V0201801N002619999999N0000001N9+00171+99999101601ADDAJ100009199999999GF108991999999999999999999
0029228020999991918050613004+61700+030683FM-12+001699999V0201801N004619999999N0000001N9+00781+99999101591ADDGF100991999999999999999999
0029228020999991918050620004+61700+030683FM-12+001699999V0200501N002619999999N0000001N9+00441+99999101511ADDGF108991999999999999999999
0046228020999991918050706004+61700+030683FM-12+001699999V0200501N012319999999N0000001N9-00061+99999101151ADDAJ100009199999999GF108991999999999999999999
0029228020999991918050713004+61700+030683FM-12+001699999V0203601N006719999999N0000001N9+00611+99999101381ADDGF105991999999999999999999
0029228020999991918050720004+61700+030683FM-12+001699999V0203601N006719999999N0000001N9+00001+99999101541ADDGF104991999999999999999999
0046228020999991918050806004+61700+030683FM-12+001699999V0203601N002619999999N0000001N9+00001+99999101821ADDAJ100009199999999GF102991999999999999999999
0029228020999991918050813004+61700+030683FM-12+001699999V0203601N006719999999N0000001N9+00061+99999101871ADDGF104991999999999999999999
0029228020999991918050820004+61700+030683FM-12+001699999V0203601N004619999999N0000001N9-00221+99999102001ADDGF108991999999999999999999
0046228020999991918050906004+61700+030683FM-12+001699999V0203601N004619999999N0000001N9-00171+99999102261ADDAJ100009199999999GF108991999999999999999999
0029228020999991918050913004+61700+030683FM-12+001699999V0203601N006719999999N0000001N9+00331+99999102341ADDGF103991999999999999999999
0029228020999991918050920004+61700+030683FM-12+001699999V0203601N006719999999N0000001N9-00111+99999102591ADDGF108991999999999999999999
0046228020999991918051006004+61700+030683FM-12+001699999V0200501N002619999999N0000001N9-00331+99999103181ADDAJ100009199999999GF103991999999999999999999
0029228020999991918051013004+61700+030683FM-12+001699999V0200901N001019999999N0000001N9+00441+99999102991ADDGF100991999999999999999999
0029228020999991918051020004+61700+030683FM-12+001699999V0200501N004619999999N0000001N9+00111+99999102991ADDGF108991999999999999999999
0046228020999991918051106004+61700+030683FM-12+001699999V0200501N001019999999N0000001N9+00391+99999103021ADDAJ100009199999999GF100991999999999999999999
0029228020999991918051113004+61700+030683FM-12+001699999V0203601N001019999999N0000001N9+01171+99999102881ADDGF100991999999999999999999
0029228020999991918051120004+61700+030683FM-12+001699999V0203601N001019999999N0000001N9+00391+99999102841ADDGF108991999999999999999999
0046228020999991918051206004+61700+030683FM-12+001699999V0203201N002619999999N0000001N9+00501+99999102801ADDAJ100009199999999GF101991999999999999999999
0029228020999991918051213004+61700+030683FM-12+001699999V0203201N001019999999N0000001N9+00941+99999102881ADDGF100991999999999999999999
0029228020999991918051220004+61700+030683FM-12+001699999V0201801N004619999999N0000001N9+00221+99999102721ADDGF108991999999999999999999
0046228020999991918051306004+61700+030683FM-12+001699999V0201801N004619999999N0000001N9+00501+99999102541ADDAJ100009199999999GF101991999999999999999999
0029228020999991918051313004+61700+030683FM-12+001699999V0201801N002619999999N0000001N9+01001+99999102481ADDGF100991999999999999999999
0029228020999991918051320004+61700+030683FM-12+001699999V0201801N001019999999N0000001N9+00501+99999102431ADDGF100991999999999999999999
0046228020999991918051406004+61700+030683FM-12+001699999V0201801N001019999999N0000001N9+00501+99999102441ADDAJ100009199999999GF101991999999999999999999
0029228020999991918051413004+61700+030683FM-12+001699999V0201801N006719999999N0000001N9+01281+99999102391ADDGF102991999999999999999999
0029228020999991918051420004+61700+030683FM-12+001699999V0201801N002619999999N0000001N9+00941+99999102261ADDGF108991999999999999999999
0046228020999991918051506004+61700+030683FM-12+001699999V0201801N002619999999N0000001N9+00941+99999102421ADDAJ100009199999999GF100991999999999999999999
0029228020999991918051513004+61700+030683FM-12+001699999V0201801N004619999999N0000001N9+01221+99999102021ADDGF103991999999999999999999
0029228020999991918051520004+61700+030683FM-12+001699999V0209991C000019999999N0000001N9+01221+99999101861ADDGF108991999999999999999999
0046228020999991918051606004+61700+030683FM-12+001699999V0201801N006719999999N0000001N9+01001+99999101401ADDAJ100009199999999GF108991999999999999999999
0029228020999991918051613004+61700+030683FM-12+001699999V0202701N002619999999N0000001N9+01721+99999101431ADDGF103991999999999999999999
0029228020999991918051620004+61700+030683FM-12+001699999V0203201N001019999999N0000001N9+01171+99999101591ADDGF108991999999999999999999
0046228020999991918051706004+61700+030683FM-12+001699999V0203201N006719999999N0000001N9+00331+99999101911ADDAJ100009199999999GF108991999999999999999999
0029228020999991918051713004+61700+030683FM-12+001699999V0203201N002619999999N0000001N9+00831+99999101831ADDGF108991999999999999999999
0035228020999991918051720004+61700+030683FM-12+001699999V0201801N004619999999N0000001N9+00671+99999101541ADDGF108991999999999999999999MW1621
0046228020999991918051806004+61700+030683FM-12+001699999V0203201N002619999999N0000001N9+00781+99999101221ADDAJ100009199999999GF108991999999999999999999
0035228020999991918051813004+61700+030683FM-12+001699999V0201801N002619999999N0000001N9+01171+99999101041ADDGF108991999999999999999999MW1621
0029228020999991918051820004+61700+030683FM-12+001699999V0201801N002619999999N0000001N9+00721+99999100981ADDGF108991999999999999999999
0052228020999991918051906004+61700+030683FM-12+001699999V0201801N001019999999N0000001N9+00561+99999100871ADDAJ100009199999999GF108991999999999999999999MW1621
0029228020999991918051913004+61700+030683FM-12+001699999V0202301N002619999999N0000001N9+00611+99999100641ADDGF108991999999999999999999
0029228020999991918051920004+61700+030683FM-12+001699999V0200501N009319999999N0000001N9+01001+99999100361ADDGF108991999999999999999999
0046228020999991918052006004+61700+030683FM-12+001699999V0200501N006719999999N0000001N9+00831+99999101621ADDAJ100009199999999GF100991999999999999999999
0029228020999991918052013004+61700+030683FM-12+001699999V0203601N006719999999N0000001N9+01281+99999101631ADDGF108991999999999999999999
0035228020999991918052020004+61700+030683FM-12+001699999V0203601N002619999999N0000001N9+00941+99999101621ADDGF108991999999999999999999MW1621
0046228020999991918052106004+61700+030683FM-12+001699999V0203601N002619999999N0000001N9+00781+99999101881ADDAJ100009199999999GF108991999999999999999999
0029228020999991918052113004+61700+030683FM-12+001699999V0203601N002619999999N0000001N9+01281+99999101871ADDGF103991999999999999999999
0029228020999991918052120004+61700+030683FM-12+001699999V0203201N002619999999N0000001N9+01001+99999101791ADDGF108991999999999999999999
0052228020999991918052206004+61700+030683FM-12+001699999V0203601N006719999999N0000001N9+00331+99999101471ADDAJ100009199999999GF108991999999999999999999MW1621
0035228020999991918052213004+61700+030683FM-12+001699999V0201801N002619999999N0000001N9+00331+99999101041ADDGF108991999999999999999999MW1621
0029228020999991918052220004+61700+030683FM-12+001699999V0201401N002619999999N0000001N9+00441+99999100741ADDGF108991999999999999999999
0052228020999991918052306004+61700+030683FM-12+001699999V0201401N006719999999N0000001N9+00611+99999100431ADDAJ100009199999999GF108991999999999999999999MW1621
0035228020999991918052313004+61700+030683FM-12+001699999V0201401N002619999999N0000001N9+00891+99999100661ADDGF108991999999999999999999MW1621
0029228020999991918052320004+61700+030683FM-12+001699999V0203601N002619999999N0000001N9+00781+99999100701ADDGF108991999999999999999999
0046228020999991918052406004+61700+030683FM-12+001699999V0200501N004619999999N0000001N9+00891+99999100721ADDAJ100009199999999GF103991999999999999999999
0029228020999991918052413004+61700+030683FM-12+001699999V0203601N002619999999N0000001N9+01331+99999100671ADDGF103991999999999999999999
0029228020999991918052420004+61700+030683FM-12+001699999V0203601N004619999999N0000001N9+00891+99999100831ADDGF108991999999999999999999
0046228020999991918052506004+61700+030683FM-12+001699999V0203601N002619999999N0000001N9+00391+99999101221ADDAJ100009199999999GF100991999999999999999999
0029228020999991918052513004+61700+030683FM-12+001699999V0203601N002619999999N0000001N9+00891+99999101261ADDGF100991999999999999999999
0029228020999991918052520004+61700+030683FM-12+001699999V0200501N002619999999N0000001N9+00281+99999101511ADDGF108991999999999999999999
0046228020999991918052606004+61700+030683FM-12+001699999V0203601N002619999999N0000001N9+00281+99999101701ADDAJ100009199999999GF100991999999999999999999
0029228020999991918052613004+61700+030683FM-12+001699999V0203601N002619999999N0000001N9+01111+99999101501ADDGF101991999999999999999999
0029228020999991918052620004+61700+030683FM-12+001699999V0203601N002619999999N0000001N9+00941+99999101321ADDGF108991999999999999999999
0046228020999991918052706004+61700+030683FM-12+001699999V0203601N006719999999N0000001N9+00281+99999101501ADDAJ100009199999999GF108991999999999999999999
0029228020999991918052713004+61700+030683FM-12+001699999V0203601N006719999999N0000001N9+00501+99999101511ADDGF108991999999999999999999
0029228020999991918052720004+61700+030683FM-12+001699999V0203601N006719999999N0000001N9+00171+99999101551ADDGF108991999999999999999999
0046228020999991918052806004+61700+030683FM-12+001699999V0203601N006719999999N0000001N9+00061+99999101601ADDAJ100009199999999GF107991999999999999999999
0029228020999991918052813004+61700+030683FM-12+001699999V0203401N002619999999N0000001N9+00831+99999101441ADDGF102991999999999999999999
0029228020999991918052820004+61700+030683FM-12+001699999V0203401N004619999999N0000001N9+00561+99999101461ADDGF108991999999999999999999
0046228020999991918052906004+61700+030683FM-12+001699999V0203201N001019999999N0000001N9+00831+99999101461ADDAJ100009199999999GF100991999999999999999999
0029228020999991918052913004+61700+030683FM-12+001699999V0201801N006719999999N0000001N9+01331+99999101321ADDGF103991999999999999999999
0029228020999991918052920004+61700+030683FM-12+001699999V0202701N001019999999N0000001N9+01001+99999101141ADDGF108991999999999999999999
0046228020999991918053006004+61700+030683FM-12+001699999V0200501N006719999999N0000001N9+01221+99999100991ADDAJ100009199999999GF108991999999999999999999
0029228020999991918053013004+61700+030683FM-12+001699999V0201801N006719999999N0000001N9+01721+99999100551ADDGF108991999999999999999999
0029228020999991918053020004+61700+030683FM-12+001699999V0201801N002619999999N0000001N9+01561+99999100261ADDGF108991999999999999999999
0052228020999991918053106004+61700+030683FM-12+001699999V0203201N002619999999N0000001N9+01061+99999099991ADDAJ100009199999999GF108991999999999999999999MW1621
0035228020999991918053113004+61700+030683FM-12+001699999V0203601N006719999999N0000001N9+01501+99999099941ADDGF105991999999999999999999MW1621
0029228020999991918053120004+61700+030683FM-12+001699999V0203201N002619999999N0000001N9+00781+99999099901ADDGF108991999999999999999999
0046228020999991918060106004+61700+030683FM-12+001699999V0203201N002619999999N0000001N9+00781+99999099961ADDAJ100009199999999GF106991999999999999999999
0029228020999991918060113004+61700+030683FM-12+001699999V0201801N002619999999N0000001N9+00891+99999100141ADDGF106991999999999999999999
0029228020999991918060120004+61700+030683FM-12+001699999V0203201N006719999999N0000001N9+00781+99999100301ADDGF108991999999999999999999
0046228020999991918060206004+61700+030683FM-12+001699999V0203201N001019999999N0000001N9+00831+99999100431ADDAJ100009199999999GF105991999999999999999999
0029228020999991918060213004+61700+030683FM-12+001699999V0203201N006719999999N0000001N9+01061+99999100711ADDGF104991999999999999999999
0035228020999991918060220004+61700+030683FM-12+001699999V0200901N006719999999N0000001N9+00721+99999100961ADDGF108991999999999999999999MW1621
0046228020999991918060306004+61700+030683FM-12+001699999V0200501N006719999999N0000001N9+00831+99999101061ADDAJ100009199999999GF108991999999999999999999
0029228020999991918060313004+61700+030683FM-12+001699999V0203601N009319999999N0000001N9+01061+99999101071ADDGF108991999999999999999999
0035228020999991918060320004+61700+030683FM-12+001699999V0203601N019019999999N0000001N9+00781+99999101041ADDGF108991999999999999999999MW1601
0052228020999991918060406004+61700+030683FM-12+001699999V0200901N019019999999N0000001N9+00281+99999100521ADDAJ100009199999999GF108991999999999999999999MW1701
0029228020999991918060413004+61700+030683FM-12+001699999V0203601N012319999999N0000001N9+00501+99999100621ADDGF108991999999999999999999
0029228020999991918060420004+61700+030683FM-12+001699999V0200501N004619999999N0000001N9+00391+99999100901ADDGF108991999999999999999999
0046228020999991918060506004+61700+030683FM-12+001699999V0203601N006719999999N0000001N9+00441+99999100901ADDAJ100009199999999GF107991999999999999999999
0029228020999991918060513004+61700+030683FM-12+001699999V0203601N004619999999N0000001N9+01171+99999101061ADDGF108991999999999999999999
0029228020999991918060520004+61700+030683FM-12+001699999V0200501N001019999999N0000001N9+00781+99999101281ADDGF108991999999999999999999
0046228020999991918060606004+61700+030683FM-12+001699999V0200701N001019999999N0000001N9+00831+99999101351ADDAJ100009199999999GF108991999999999999999999
0029228020999991918060613004+61700+030683FM-12+001699999V0201801N001019999999N0000001N9+01441+99999101221ADDGF107991999999999999999999
0029228020999991918060620004+61700+030683FM-12+001699999V0201401N001019999999N0000001N9+00941+99999101231ADDGF107991999999999999999999
0046228020999991918060706004+61700+030683FM-12+001699999V0209991C000019999999N0000001N9+01111+99999101351ADDAJ100009199999999GF100991999999999999999999
0029228020999991918060713004+61700+030683FM-12+001699999V0201801N002619999999N0000001N9+01281+99999101381ADDGF108991999999999999999999
0029228020999991918060720004+61700+030683FM-12+001699999V0201801N001019999999N0000001N9+01061+99999101301ADDGF108991999999999999999999
0046228020999991918060806004+61700+030683FM-12+001699999V0201801N004619999999N0000001N9+01001+99999101311ADDAJ100009199999999GF108991999999999999999999
0035228020999991918060813004+61700+030683FM-12+001699999V0203201N004619999999N0000001N9+01501+99999101191ADDGF108991999999999999999999MW1601
0035228020999991918060820004+61700+030683FM-12+001699999V0203601N001019999999N0000001N9+01221+99999101021ADDGF108991999999999999999999MW1601
0046228020999991918060906004+61700+030683FM-12+001699999V0200201N001019999999N0000001N9+01061+99999100911ADDAJ100009199999999GF107991999999999999999999
0029228020999991918060913004+61700+030683FM-12+001699999V0203601N006719999999N0000001N9+01501+99999100761ADDGF105991999999999999999999
0029228020999991918060920004+61700+030683FM-12+001699999V0203601N002619999999N0000001N9+01171+99999100681ADDGF108991999999999999999999
0052228020999991918061006004+61700+030683FM-12+001699999V0209991C000019999999N0000001N9+00671+99999100541ADDAJ100009199999999GF108991999999999999999999MW1621
0029228020999991918061013004+61700+030683FM-12+001699999V0201401N002619999999N0000001N9+01171+99999100601ADDGF108991999999999999999999
0029228020999991918061020004+61700+030683FM-12+001699999V0203401N001019999999N0000001N9+01001+99999100551ADDGF108991999999999999999999
0046228020999991918061106004+61700+030683FM-12+001699999V0200201N001019999999N0000001N9+00941+99999100381ADDAJ100009199999999GF108991999999999999999999
0029228020999991918061113004+61700+030683FM-12+001699999V0201401N004619999999N0000001N9+01391+99999100401ADDGF108991999999999999999999
0035228020999991918061120004+61700+030683FM-12+001699999V0209991C000019999999N0000001N9+01001+99999100461ADDGF108991999999999999999999MW1621
0046228020999991918061206004+61700+030683FM-12+001699999V0209991C000019999999N0000001N9+01111+99999100391ADDAJ100009199999999GF108991999999999999999999
0029228020999991918061213004+61700+030683FM-12+001699999V0203201N002619999999N0000001N9+01721+99999100321ADDGF105991999999999999999999
0029228020999991918061220004+61700+030683FM-12+001699999V0203201N001019999999N0000001N9+01281+99999100351ADDGF108991999999999999999999
0046228020999991918061306004+61700+030683FM-12+001699999V0203201N004619999999N0000001N9+01061+99999100041ADDAJ100009199999999GF108991999999999999999999
0029228020999991918061313004+61700+030683FM-12+001699999V0203601N002619999999N0000001N9+01281+99999099951ADDGF108991999999999999999999
0035228020999991918061320004+61700+030683FM-12+001699999V0203601N002619999999N0000001N9+01171+99999099791ADDGF108991999999999999999999MW1601
0046228020999991918061406004+61700+030683FM-12+001699999V0203601N001019999999N0000001N9+01281+99999099561ADDAJ100009199999999GF107991999999999999999999
0029228020999991918061413004+61700+030683FM-12+001699999V0202701N004619999999N0000001N9+01671+99999099461ADDGF103991999999999999999999
0029228020999991918061420004+61700+030683FM-12+001699999V0203601N006719999999N0000001N9+00941+99999099121ADDGF107991999999999999999999
0052228020999991918061506004+61700+030683FM-12+001699999V0201401N006719999999N0000001N9+00831+99999098901ADDAJ100009199999999GF108991999999999999999999MW1621
0029228020999991918061513004+61700+030683FM-12+001699999V0201801N006719999999N0000001N9+01221+99999098951ADDGF107991999999999999999999
0029228020999991918061520004+61700+030683FM-12+001699999V0202301N006719999999N0000001N9+01111+99999099261ADDGF108991999999999999999999
0046228020999991918061606004+61700+030683FM-12+001699999V0201401N006719999999N0000001N9+01061+99999099441ADDAJ100009199999999GF100991999999999999999999
0029228020999991918061613004+61700+030683FM-12+001699999V0201801N006719999999N0000001N9+01611+99999099631ADDGF106991999999999999999999
0029228020999991918061620004+61700+030683FM-12+001699999V0202301N004619999999N0000001N9+01221+99999099861ADDGF108991999999999999999999
0046228020999991918061706004+61700+030683FM-12+001699999V0202001N009319999999N0000001N9+01221+99999100121ADDAJ100009199999999GF107991999999999999999999
0029228020999991918061713004+61700+030683FM-12+001699999V0202701N009319999999N0000001N9+01941+99999100421ADDGF105991999999999999999999
0029228020999991918061720004+61700+030683FM-12+001699999V0202701N002619999999N0000001N9+01441+99999100581ADDGF108991999999999999999999
0046228020999991918061806004+61700+030683FM-12+001699999V0202501N004619999999N0000001N9+01391+99999101111ADDAJ100009199999999GF100991999999999999999999
0029228020999991918061813004+61700+030683FM-12+001699999V0202501N006719999999N0000001N9+02001+99999101191ADDGF105991999999999999999999
0029228020999991918061820004+61700+030683FM-12+001699999V0201801N004619999999N0000001N9+01061+99999101301ADDGF108991999999999999999999
0046228020999991918061906004+61700+030683FM-12+001699999V0201801N006719999999N0000001N9+01221+99999100311ADDAJ100009199999999GF108991999999999999999999
0029228020999991918061913004+61700+030683FM-12+001699999V0201801N006719999999N0000001N9+01171+99999100231ADDGF108991999999999999999999
0029228020999991918061920004+61700+030683FM-12+001699999V0202501N006719999999N0000001N9+01221+99999100551ADDGF108991999999999999999999
0046228020999991918062006004+61700+030683FM-12+001699999V0202301N006719999999N0000001N9+01281+99999100821ADDAJ100009199999999GF106991999999999999999999
0029228020999991918062013004+61700+030683FM-12+001699999V0201801N004619999999N0000001N9+01831+99999100861ADDGF105991999999999999999999
0029228020999991918062020004+61700+030683FM-12+001699999V0203201N001019999999N0000001N9+01281+99999100721ADDGF108991999999999999999999
0046228020999991918062106004+61700+030683FM-12+001699999V0203201N002619999999N0000001N9+01501+99999101031ADDAJ100009199999999GF100991999999999999999999
0029228020999991918062113004+61700+030683FM-12+001699999V0203201N004619999999N0000001N9+02221+99999101111ADDGF103991999999999999999999
0029228020999991918062120004+61700+030683FM-12+001699999V0201801N001019999999N0000001N9+01111+99999101121ADDGF101991999999999999999999
0046228020999991918062206004+61700+030683FM-12+001699999V0201801N006719999999N0000001N9+01611+99999100911ADDAJ100009199999999GF100991999999999999999999
0035228020999991918062213004+61700+030683FM-12+001699999V0201401N009319999999N0000001N9+01611+99999100681ADDGF108991999999999999999999MW1601
0035228020999991918062220004+61700+030683FM-12+001699999V0200901N004619999999N0000001N9+01171+99999100401ADDGF108991999999999999999999MW1601
0052228020999991918062306004+61700+030683FM-12+001699999V0201401N001019999999N0000001N9+01171+99999100391ADDAJ100009199999999GF108991999999999999999999MW1901
0035228020999991918062313004+61700+030683FM-12+001699999V0201401N001019999999N0000001N9+01611+99999100401ADDGF108991999999999999999999MW1621
0029228020999991918062320004+61700+030683FM-12+001699999V0203601N001019999999N0000001N9+01561+99999100021ADDGF108991999999999999999999
0052228020999991918062406004+61700+030683FM-12+001699999V0201401N004619999999N0000001N9+01061+99999100161ADDAJ100009199999999GF108991999999999999999999MW1641
0029228020999991918062413004+61700+030683FM-12+001699999V0201401N006719999999N0000001N9+01721+99999100721ADDGF100991999999999999999999
0035228020999991918062420004+61700+030683FM-12+001699999V0201401N004619999999N0000001N9+01281+99999100941ADDGF108991999999999999999999MW1901
0052228020999991918062506004+61700+030683FM-12+001699999V0203601N004619999999N0000001N9+01281+99999100751ADDAJ100009199999999GF108991999999999999999999MW1621
0035228020999991918062513004+61700+030683FM-12+001699999V0203601N002619999999N0000001N9+01281+99999100271ADDGF108991999999999999999999MW1621
0029228020999991918062520004+61700+030683FM-12+001699999V0203601N002619999999N0000001N9+01111+99999100351ADDGF108991999999999999999999
0046228020999991918062606004+61700+030683FM-12+001699999V0203601N002619999999N0000001N9+01391+99999100741ADDAJ100009199999999GF100991999999999999999999
0029228020999991918062613004+61700+030683FM-12+001699999V0201801N004619999999N0000001N9+01501+99999100541ADDGF107991999999999999999999
0029228020999991918062620004+61700+030683FM-12+001699999V0201801N002619999999N0000001N9+01171+99999100721ADDGF102991999999999999999999
0046228020999991918062706004+61700+030683FM-12+001699999V0201801N004619999999N0000001N9+01441+99999100801ADDAJ100009199999999GF102991999999999999999999
0029228020999991918062713004+61700+030683FM-12+001699999V0201801N006719999999N0000001N9+01671+99999100921ADDGF102991999999999999999999
0029228020999991918062720004+61700+030683FM-12+001699999V0201801N002619999999N0000001N9+01281+99999100861ADDGF108991999999999999999999
0046228020999991918062806004+61700+030683FM-12+001699999V0201801N006719999999N0000001N9+01221+99999101101ADDAJ100009199999999GF107991999999999999999999
0029228020999991918062813004+61700+030683FM-12+001699999V0201401N006719999999N0000001N9+01441+99999101561ADDGF108991999999999999999999
0029228020999991918062820004+61700+030683FM-12+001699999V0201401N002619999999N0000001N9+01281+99999101841ADDGF108991999999999999999999
0046228020999991918062906004+61700+030683FM-12+001699999V0201401N002619999999N0000001N9+01281+99999102161ADDAJ100009199999999GF102991999999999999999999
0029228020999991918062913004+61700+030683FM-12+001699999V0201401N006719999999N0000001N9+01781+99999102231ADDGF107991999999999999999999
0035228020999991918062920004+61700+030683FM-12+001699999V0201401N002619999999N0000001N9+01501+99999101961ADDGF108991999999999999999999MW1621
0046228020999991918063006004+61700+030683FM-12+001699999V0201401N004619999999N0000001N9+01721+99999101671ADDAJ100009199999999GF108991999999999999999999
0029228020999991918063013004+61700+030683FM-12+001699999V0201401N004619999999N0000001N9+01781+99999101671ADDGF106991999999999999999999
0029228020999991918063020004+61700+030683FM-12+001699999V0201401N004619999999N0000001N9+01561+99999101681ADDGF105991999999999999999999
0046228020999991918070106004+61700+030683FM-12+001699999V0201401N006719999999N0000001N9+01561+99999101961ADDAJ100009199999999GF108991999999999999999999
0029228020999991918070113004+61700+030683FM-12+001699999V0201401N004619999999N0000001N9+02391+99999101961ADDGF102991999999999999999999
0029228020999991918070120004+61700+030683FM-12+001699999V0201401N002619999999N0000001N9+01781+99999101991ADDGF108991999999999999999999
0046228020999991918070206004+61700+030683FM-12+001699999V0201401N002619999999N0000001N9+02061+99999102271ADDAJ100009199999999GF100991999999999999999999
0029228020999991918070213004+61700+030683FM-12+001699999V0201401N004619999999N0000001N9+02561+99999102391ADDGF100991999999999999999999
0029228020999991918070220004+61700+030683FM-12+001699999V0201801N002619999999N0000001N9+02061+99999102421ADDGF108991999999999999999999
0046228020999991918070306004+61700+030683FM-12+001699999V0201401N001019999999N0000001N9+02281+99999102581ADDAJ100009199999999GF101991999999999999999999
0029228020999991918070313004+61700+030683FM-12+001699999V0201401N004619999999N0000001N9+03001+99999102521ADDGF102991999999999999999999
0029228020999991918070320004+61700+030683FM-12+001699999V0201401N004619999999N0000001N9+02281+99999102361ADDGF106991999999999999999999
0046228020999991918070406004+61700+030683FM-12+001699999V0201401N001019999999N0000001N9+02561+99999102201ADDAJ100009199999999GF100991999999999999999999
0029228020999991918070413004+61700+030683FM-12+001699999V0201401N001019999999N0000001N9+03221+99999101881ADDGF100991999999999999999999
0029228020999991918070420004+61700+030683FM-12+001699999V0201401N002619999999N0000001N9+02441+99999101541ADDGF106991999999999999999999
0046228020999991918070506004+61700+030683FM-12+001699999V0201401N001019999999N0000001N9+02561+99999101201ADDAJ100009199999999GF100991999999999999999999
0029228020999991918070513004+61700+030683FM-12+001699999V0201401N001019999999N0000001N9+02721+99999100831ADDGF106991999999999999999999
0029228020999991918070520004+61700+030683FM-12+001699999V0201401N001019999999N0000001N9+02061+99999100681ADDGF108991999999999999999999
0052228020999991918070606004+61700+030683FM-12+001699999V0200901N004619999999N0000001N9+02111+99999100541ADDAJ100009199999999GF103991999999999999999999MW1171
0029228020999991918070613004+61700+030683FM-12+001699999V0200901N004619999999N0000001N9+02281+99999100431ADDGF106991999999999999999999
0029228020999991918070620004+61700+030683FM-12+001699999V0200901N004619999999N0000001N9+01941+99999100631ADDGF108991999999999999999999
0046228020999991918070706004+61700+030683FM-12+001699999V0200701N009319999999N0000001N9+01891+99999100821ADDAJ100009199999999GF100991999999999999999999
0029228020999991918070713004+61700+030683FM-12+001699999V0200901N009319999999N0000001N9+02281+99999100791ADDGF105991999999999999999999
0029228020999991918070720004+61700+030683FM-12+001699999V0200901N004619999999N0000001N9+01781+99999100961ADDGF108991999999999999999999
0046228020999991918070806004+61700+030683FM-12+001699999V0200901N006719999999N0000001N9+01831+99999101061ADDAJ100009199999999GF100991999999999999999999
0029228020999991918070813004+61700+030683FM-12+001699999V0201401N004619999999N0000001N9+02441+99999100951ADDGF104991999999999999999999
0029228020999991918070820004+61700+030683FM-12+001699999V0200901N002619999999N0000001N9+01891+99999101001ADDGF108991999999999999999999
0046228020999991918070906004+61700+030683FM-12+001699999V0203201N002619999999N0000001N9+01831+99999100961ADDAJ100009199999999GF102991999999999999999999
0029228020999991918070913004+61700+030683FM-12+001699999V0200501N001019999999N0000001N9+02171+99999100941ADDGF108991999999999999999999
0029228020999991918070920004+61700+030683FM-12+001699999V0201401N006719999999N0000001N9+01781+99999101071ADDGF108991999999999999999999
0046228020999991918071006004+61700+030683FM-12+001699999V0201401N002619999999N0000001N9+01721+99999101101ADDAJ100009199999999GF108991999999999999999999
0035228020999991918071013004+61700+030683FM-12+001699999V0201401N001019999999N0000001N9+01671+99999101071ADDGF108991999999999999999999MW1621
0029228020999991918071020004+61700+030683FM-12+001699999V0201401N001019999999N0000001N9+01611+99999100901ADDGF108991999999999999999999
0046228020999991918071106004+61700+030683FM-12+001699999V0201401N002619999999N0000001N9+01331+99999100781ADDAJ100009199999999GF108991999999999999999999
0029228020999991918071113004+61700+030683FM-12+001699999V0203601N002619999999N0000001N9+02111+99999100721ADDGF105991999999999999999999
0029228020999991918071120004+61700+030683FM-12+001699999V0202701N001019999999N0000001N9+01721+99999100391ADDGF108991999999999999999999
0046228020999991918071206004+61700+030683FM-12+001699999V0203601N006719999999N0000001N9+01501+99999100311ADDAJ100009199999999GF107991999999999999999999
0029228020999991918071213004+61700+030683FM-12+001699999V0203601N006719999999N0000001N9+01671+99999100361ADDGF108991999999999999999999
0035228020999991918071220004+61700+030683FM-12+001699999V0203601N006719999999N0000001N9+01331+99999100431ADDGF108991999999999999999999MW1621
0046228020999991918071306004+61700+030683FM-12+001699999V0203601N002619999999N0000001N9+01221+99999100551ADDAJ100009199999999GF108991999999999999999999
0035228020999991918071313004+61700+030683FM-12+001699999V0203601N001019999999N0000001N9+01441+99999100601ADDGF108991999999999999999999MW1601
0029228020999991918071320004+61700+030683FM-12+001699999V0203601N002619999999N0000001N9+01331+99999100711ADDGF108991999999999999999999
0046228020999991918071406004+61700+030683FM-12+001699999V0203601N002619999999N0000001N9+01391+99999100781ADDAJ100009199999999GF108991999999999999999999
0035228020999991918071413004+61700+030683FM-12+001699999V0201801N004619999999N0000001N9+01561+99999100871ADDGF108991999999999999999999MW1621
0029228020999991918071420004+61700+030683FM-12+001699999V0201801N002619999999N0000001N9+01441+99999100781ADDGF106991999999999999999999
0046228020999991918071506004+61700+030683FM-12+001699999V0203201N002619999999N0000001N9+01561+99999100821ADDAJ100009199999999GF102991999999999999999999
0029228020999991918071513004+61700+030683FM-12+001699999V0202301N002619999999N0000001N9+01611+99999100721ADDGF108991999999999999999999
0029228020999991918071520004+61700+030683FM-12+001699999V0209991C000019999999N0000001N9+01391+99999100761ADDGF107991999999999999999999
0052228020999991918071606004+61700+030683FM-12+001699999V0202301N002619999999N0000001N9+01441+99999100561ADDAJ100009199999999GF108991999999999999999999MW1621
0029228020999991918071613004+61700+030683FM-12+001699999V0200501N004619999999N0000001N9+01561+99999100671ADDGF108991999999999999999999
0029228020999991918071620004+61700+030683FM-12+001699999V0200501N006719999999N0000001N9+01281+99999100871ADDGF108991999999999999999999
0046228020999991918071706004+61700+030683FM-12+001699999V0203601N009319999999N0000001N9+01281+99999101111ADDAJ100009199999999GF108991999999999999999999
0029228020999991918071713004+61700+030683FM-12+001699999V0200501N004619999999N0000001N9+01391+99999101341ADDGF108991999999999999999999
0029228020999991918071720004+61700+030683FM-12+001699999V0200501N006719999999N0000001N9+01171+99999101561ADDGF108991999999999999999999
0046228020999991918071806004+61700+030683FM-12+001699999V0203601N006719999999N0000001N9+01001+99999101751ADDAJ100009199999999GF102991999999999999999999
0029228020999991918071813004+61700+030683FM-12+001699999V0203601N006719999999N0000001N9+01561+99999101511ADDGF100991999999999999999999
0029228020999991918071820004+61700+030683FM-12+001699999V0203601N001019999999N0000001N9+01281+99999101311ADDGF108991999999999999999999
0046228020999991918071906004+61700+030683FM-12+001699999V0203601N002619999999N0000001N9+01281+99999101201ADDAJ100009199999999GF100991999999999999999999
0029228020999991918071913004+61700+030683FM-12+001699999V0201401N002619999999N0000001N9+01831+99999101041ADDGF100991999999999999999999
0029228020999991918071920004+61700+030683FM-12+001699999V0201801N001019999999N0000001N9+01331+99999100871ADDGF108991999999999999999999
0046228020999991918072006004+61700+030683FM-12+001699999V0201801N004619999999N0000001N9+01561+99999100761ADDAJ100009199999999GF100991999999999999999999
0029228020999991918072013004+61700+030683FM-12+001699999V0201801N002619999999N0000001N9+01671+99999100721ADDGF105991999999999999999999
0029228020999991918072020004+61700+030683FM-12+001699999V0201401N002619999999N0000001N9+01391+99999100791ADDGF106991999999999999999999
0046228020999991918072106004+61700+030683FM-12+001699999V0201401N001019999999N0000001N9+01721+99999100911ADDAJ100009199999999GF102991999999999999999999
0029228020999991918072113004+61700+030683FM-12+001699999V0201401N004619999999N0000001N9+02281+99999100961ADDGF102991999999999999999999
0029228020999991918072120004+61700+030683FM-12+001699999V0201401N001019999999N0000001N9+01671+99999100981ADDGF108991999999999999999999
0046228020999991918072206004+61700+030683FM-12+001699999V0201801N002619999999N0000001N9+01721+99999100801ADDAJ100009199999999GF102991999999999999999999
0029228020999991918072213004+61700+030683FM-12+001699999V0201801N001019999999N0000001N9+01941+99999100741ADDGF108991999999999999999999
0029228020999991918072220004+61700+030683FM-12+001699999V0201801N004619999999N0000001N9+01721+99999100711ADDGF108991999999999999999999
0052228020999991918072306004+61700+030683FM-12+001699999V0201801N006719999999N0000001N9+01501+99999100501ADDAJ100009199999999GF108991999999999999999999MW1621
0029228020999991918072313004+61700+030683FM-12+001699999V0201801N004619999999N0000001N9+01721+99999100421ADDGF108991999999999999999999
0029228020999991918072320004+61700+030683FM-12+001699999V0200501N006719999999N0000001N9+01561+99999100441ADDGF108991999999999999999999
0046228020999991918072406004+61700+030683FM-12+001699999V0203601N006719999999N0000001N9+01391+99999100341ADDAJ100009199999999GF108991999999999999999999
0029228020999991918072413004+61700+030683FM-12+001699999V0200501N006719999999N0000001N9+02111+99999100191ADDGF108991999999999999999999
0029228020999991918072420004+61700+030683FM-12+001699999V0203601N006719999999N0000001N9+01561+99999100271ADDGF108991999999999999999999
0046228020999991918072506004+61700+030683FM-12+001699999V0203601N006719999999N0000001N9+01441+99999100221ADDAJ100009199999999GF108991999999999999999999
0029228020999991918072513004+61700+030683FM-12+001699999V0203601N006719999999N0000001N9+02111+99999100261ADDGF108991999999999999999999
0029228020999991918072520004+61700+030683FM-12+001699999V0200501N006719999999N0000001N9+01831+99999100241ADDGF108991999999999999999999
0046228020999991918072606004+61700+030683FM-12+001699999V0203601N006719999999N0000001N9+01561+99999100191ADDAJ100009199999999GF108991999999999999999999
0029228020999991918072613004+61700+030683FM-12+001699999V0203601N006719999999N0000001N9+02001+99999100111ADDGF102991999999999999999999
0029228020999991918072620004+61700+030683FM-12+001699999V0203601N006719999999N0000001N9+01721+99999100181ADDGF108991999999999999999999
0046228020999991918072706004+61700+030683FM-12+001699999V0203601N002619999999N0000001N9+01441+99999100081ADDAJ100009199999999GF108991999999999999999999
0029228020999991918072713004+61700+030683FM-12+001699999V0203601N002619999999N0000001N9+01671+99999100151ADDGF108991999999999999999999
0029228020999991918072720004+61700+030683FM-12+001699999V0203601N002619999999N0000001N9+01721+99999100221ADDGF106991999999999999999999
0046228020999991918072806004+61700+030683FM-12+001699999V0203601N002619999999N0000001N9+01561+99999100481ADDAJ100009199999999GF106991999999999999999999
0029228020999991918072813004+61700+030683FM-12+001699999V0201801N006719999999N0000001N9+01831+99999100561ADDGF105991999999999999999999
0029228020999991918072820004+61700+030683FM-12+001699999V0201401N001019999999N0000001N9+01561+99999100591ADDGF108991999999999999999999
0046228020999991918072906004+61700+030683FM-12+001699999V0201801N002619999999N0000001N9+01501+99999100721ADDAJ100009199999999GF108991999999999999999999
0029228020999991918072913004+61700+030683FM-12+001699999V0201801N006719999999N0000001N9+01831+99999100881ADDGF105991999999999999999999
0029228020999991918072920004+61700+030683FM-12+001699999V0201801N004619999999N0000001N9+01611+99999100881ADDGF108991999999999999999999
0046228020999991918073006004+61700+030683FM-12+001699999V0200901N002619999999N0000001N9+01781+99999101101ADDAJ100009199999999GF101991999999999999999999
0029228020999991918073013004+61700+030683FM-12+001699999V0200901N006719999999N0000001N9+02221+99999101071ADDGF103991999999999999999999
0029228020999991918073020004+61700+030683FM-12+001699999V0200501N009319999999N0000001N9+01831+99999101031ADDGF107991999999999999999999
0046228020999991918073106004+61700+030683FM-12+001699999V0200901N009319999999N0000001N9+01221+99999100861ADDAJ100009199999999GF108991999999999999999999
0029228020999991918073113004+61700+030683FM-12+001699999V0200501N009319999999N0000001N9+01331+99999100721ADDGF108991999999999999999999
0029228020999991918073120004+61700+030683FM-12+001699999V0200501N009319999999N0000001N9+01281+99999100711ADDGF108991999999999999999999
0052228020999991918080106004+61700+030683FM-12+001699999V0200501N009319999999N0000001N9+01171+99999100481ADDAJ100009199999999GF108991999999999999999999MW1621
0029228020999991918080113004+61700+030683FM-12+001699999V0200501N009319999999N0000001N9+01331+99999100521ADDGF108991999999999999999999
0029228020999991918080120004+61700+030683FM-12+001699999V0200501N009319999999N0000001N9+01111+99999100681ADDGF108991999999999999999999
0046228020999991918080206004+61700+030683FM-12+001699999V0200501N009319999999N0000001N9+01171+99999100751ADDAJ100009199999999GF108991999999999999999999
0029228020999991918080213004+61700+030683FM-12+001699999V0200501N009319999999N0000001N9+01671+99999100911ADDGF106991999999999999999999
0029228020999991918080220004+61700+030683FM-12+001699999V0200501N009319999999N0000001N9+01391+99999101081ADDGF108991999999999999999999
0046228020999991918080306004+61700+030683FM-12+001699999V0200501N009319999999N0000001N9+01391+99999101341ADDAJ100009199999999GF108991999999999999999999
0029228020999991918080313004+61700+030683FM-12+001699999V0200501N009319999999N0000001N9+01781+99999101351ADDGF106991999999999999999999
0029228020999991918080320004+61700+030683FM-12+001699999V0200501N006719999999N0000001N9+01331+99999101391ADDGF108991999999999999999999
0046228020999991918080406004+61700+030683FM-12+001699999V0200501N006719999999N0000001N9+01391+99999101351ADDAJ100009199999999GF108991999999999999999999
0029228020999991918080413004+61700+030683FM-12+001699999V0203601N002619999999N0000001N9+01391+99999101201ADDGF108991999999999999999999
0035228020999991918080420004+61700+030683FM-12+001699999V0203601N006719999999N0000001N9+01391+99999101151ADDGF108991999999999999999999MW1621
0046228020999991918080506004+61700+030683FM-12+001699999V0203201N001019999999N0000001N9+01391+99999101001ADDAJ100009199999999GF108991999999999999999999
0029228020999991918080513004+61700+030683FM-12+001699999V0203601N004619999999N0000001N9+02001+99999100841ADDGF106991999999999999999999
0029228020999991918080520004+61700+030683FM-12+001699999V0203601N004619999999N0000001N9+01561+99999100821ADDGF108991999999999999999999
0052228020999991918080606004+61700+030683FM-12+001699999V0200901N006719999999N0000001N9+01441+99999100591ADDAJ100009199999999GF108991999999999999999999MW1621
0029228020999991918080613004+61700+030683FM-12+001699999V0203601N006719999999N0000001N9+01501+99999100561ADDGF108991999999999999999999
0029228020999991918080620004+61700+030683FM-12+001699999V0203601N006719999999N0000001N9+01441+99999100581ADDGF108991999999999999999999
0046228020999991918080706004+61700+030683FM-12+001699999V0203601N002619999999N0000001N9+01891+99999100841ADDAJ100009199999999GF106991999999999999999999
0029228020999991918080713004+61700+030683FM-12+001699999V0203601N001019999999N0000001N9+01831+99999101101ADDGF104991999999999999999999
0029228020999991918080720004+61700+030683FM-12+001699999V0200501N002619999999N0000001N9+01281+99999101361ADDGF108991999999999999999999
0046228020999991918080806004+61700+030683FM-12+001699999V0203601N009319999999N0000001N9+00831+99999101791ADDAJ100009199999999GF108991999999999999999999
0029228020999991918080813004+61700+030683FM-12+001699999V0200901N002619999999N0000001N9+01061+99999101911ADDGF108991999999999999999999
0029228020999991918080820004+61700+030683FM-12+001699999V0200501N001019999999N0000001N9+01111+99999101911ADDGF108991999999999999999999
0046228020999991918080906004+61700+030683FM-12+001699999V0201401N009319999999N0000001N9+00941+99999102071ADDAJ100009199999999GF108991999999999999999999
0029228020999991918080913004+61700+030683FM-12+001699999V0201401N009319999999N0000001N9+01171+99999102061ADDGF108991999999999999999999
0029228020999991918080920004+61700+030683FM-12+001699999V0201401N001019999999N0000001N9+01001+99999102021ADDGF108991999999999999999999
0052228020999991918081006004+61700+030683FM-12+001699999V0201401N006719999999N0000001N9+00891+99999102021ADDAJ100009199999999GF108991999999999999999999MW1621
0029228020999991918081013004+61700+030683FM-12+001699999V0201401N001019999999N0000001N9+01221+99999102041ADDGF108991999999999999999999
0029228020999991918081020004+61700+030683FM-12+001699999V0201401N004619999999N0000001N9+01061+99999101871ADDGF108991999999999999999999
0052228020999991918081106004+61700+030683FM-12+001699999V0200901N009319999999N0000001N9+01001+99999101501ADDAJ100009199999999GF108991999999999999999999MW1621
0035228020999991918081113004+61700+030683FM-12+001699999V0200901N006719999999N0000001N9+01221+99999101521ADDGF108991999999999999999999MW1621
0029228020999991918081120004+61700+030683FM-12+001699999V0200901N004619999999N0000001N9+00941+99999101601ADDGF108991999999999999999999
0046228020999991918081206004+61700+030683FM-12+001699999V0200501N002619999999N0000001N9+00891+99999101591ADDAJ100009199999999GF106991999999999999999999
0029228020999991918081213004+61700+030683FM-12+001699999V0203601N009319999999N0000001N9+01891+99999101401ADDGF104991999999999999999999
0029228020999991918081220004+61700+030683FM-12+001699999V0201401N001019999999N0000001N9+01221+99999101321ADDGF108991999999999999999999
0046228020999991918081306004+61700+030683FM-12+001699999V0203601N009319999999N0000001N9+01111+99999101401ADDAJ100009199999999GF108991999999999999999999
0029228020999991918081313004+61700+030683FM-12+001699999V0203601N009319999999N0000001N9+01501+99999101381ADDGF102991999999999999999999
0029228020999991918081320004+61700+030683FM-12+001699999V0203601N002619999999N0000001N9+01001+99999101241ADDGF108991999999999999999999
0046228020999991918081406004+61700+030683FM-12+001699999V0201801N001019999999N0000001N9+01001+99999100961ADDAJ100009199999999GF100991999999999999999999
0035228020999991918081413004+61700+030683FM-12+001699999V0202701N001019999999N0000001N9+01671+99999100831ADDGF108991999999999999999999MW1621
0029228020999991918081420004+61700+030683FM-12+001699999V0201801N002619999999N0000001N9+01441+99999100621ADDGF108991999999999999999999
0046228020999991918081506004+61700+030683FM-12+001699999V0202701N002619999999N0000001N9+01391+99999100071ADDAJ100009199999999GF108991999999999999999999
0035228020999991918081513004+61700+030683FM-12+001699999V0203201N012319999999N0000001N9+01941+99999099791ADDGF104991999999999999999999MW1621
0029228020999991918081520004+61700+030683FM-12+001699999V0203201N002619999999N0000001N9+01391+99999099701ADDGF108991999999999999999999
0046228020999991918081606004+61700+030683FM-12+001699999V0201801N004619999999N0000001N9+01441+99999099461ADDAJ100009199999999GF108991999999999999999999
0029228020999991918081613004+61700+030683FM-12+001699999V0202301N004619999999N0000001N9+01831+99999099231ADDGF106991999999999999999999
0029228020999991918081620004+61700+030683FM-12+001699999V0202301N004619999999N0000001N9+01331+99999099141ADDGF108991999999999999999999
0052228020999991918081706004+61700+030683FM-12+001699999V0203601N009319999999N0000001N9+01221+99999099361ADDAJ100009199999999GF108991999999999999999999MW1621
0035228020999991918081713004+61700+030683FM-12+001699999V0203601N006719999999N0000001N9+01671+99999099871ADDGF108991999999999999999999MW1621
0029228020999991918081720004+61700+030683FM-12+001699999V0200501N006719999999N0000001N9+00891+99999100261ADDGF108991999999999999999999
0046228020999991918081806004+61700+030683FM-12+001699999V0200501N006719999999N0000001N9+00781+99999100361ADDAJ100009199999999GF108991999999999999999999
0029228020999991918081813004+61700+030683FM-12+001699999V0200501N006719999999N0000001N9+01171+99999100271ADDGF108991999999999999999999
0029228020999991918081820004+61700+030683FM-12+001699999V0200501N006719999999N0000001N9+01061+99999100101ADDGF108991999999999999999999
0046228020999991918081906004+61700+030683FM-12+001699999V0200501N004619999999N0000001N9+01061+99999099871ADDAJ100009199999999GF108991999999999999999999
0029228020999991918081913004+61700+030683FM-12+001699999V0200501N004619999999N0000001N9+01441+99999099841ADDGF108991999999999999999999
0029228020999991918081920004+61700+030683FM-12+001699999V0200501N002619999999N0000001N9+01061+99999100021ADDGF108991999999999999999999
0046228020999991918082006004+61700+030683FM-12+001699999V0200501N001019999999N0000001N9+00941+99999100161ADDAJ100009199999999GF105991999999999999999999
0029228020999991918082013004+61700+030683FM-12+001699999V0203601N001019999999N0000001N9+01671+99999100391ADDGF106991999999999999999999
0029228020999991918082020004+61700+030683FM-12+001699999V0203601N001019999999N0000001N9+01221+99999100641ADDGF108991999999999999999999
0046228020999991918082106004+61700+030683FM-12+001699999V0203601N001019999999N0000001N9+01061+99999100841ADDAJ100009199999999GF101991999999999999999999
0029228020999991918082113004+61700+030683FM-12+001699999V0201401N006719999999N0000001N9+01721+99999100791ADDGF106991999999999999999999
0029228020999991918082120004+61700+030683FM-12+001699999V0201401N004619999999N0000001N9+01281+99999100631ADDGF108991999999999999999999
0046228020999991918082206004+61700+030683FM-12+001699999V0201401N009319999999N0000001N9+01281+99999100271ADDAJ100009199999999GF108991999999999999999999
0029228020999991918082213004+61700+030683FM-12+001699999V0201401N001019999999N0000001N9+01441+99999100271ADDGF108991999999999999999999
0029228020999991918082220004+61700+030683FM-12+001699999V0203201N002619999999N0000001N9+01111+99999100281ADDGF108991999999999999999999
0046228020999991918082306004+61700+030683FM-12+001699999V0203201N004619999999N0000001N9+01111+99999100141ADDAJ100009199999999GF102991999999999999999999
0029228020999991918082313004+61700+030683FM-12+001699999V0202301N006719999999N0000001N9+02001+99999099831ADDGF104991999999999999999999
0035228020999991918082320004+61700+030683FM-12+001699999V0202301N012319999999N0000001N9+01221+99999098801ADDGF108991999999999999999999MW1621
0052228020999991918082406004+61700+030683FM-12+001699999V0202301N009319999999N0000001N9+01171+99999098021ADDAJ100009199999999GF108991999999999999999999MW1621
0035228020999991918082413004+61700+030683FM-12+001699999V0203201N009319999999N0000001N9+01561+99999098541ADDGF108991999999999999999999MW1621
0029228020999991918082420004+61700+030683FM-12+001699999V0203601N009319999999N0000001N9+00891+99999099561ADDGF108991999999999999999999
0046228020999991918082506004+61700+030683FM-12+001699999V0203201N006719999999N0000001N9+01061+99999100391ADDAJ100009199999999GF108991999999999999999999
0029228020999991918082513004+61700+030683FM-12+001699999V0203201N009319999999N0000001N9+01671+99999100501ADDGF103991999999999999999999
0029228020999991918082520004+61700+030683FM-12+001699999V0203201N006719999999N0000001N9+01171+99999100521ADDGF108991999999999999999999
0046228020999991918082606004+61700+030683FM-12+001699999V0203201N006719999999N0000001N9+01061+99999100561ADDAJ100009199999999GF108991999999999999999999
0029228020999991918082613004+61700+030683FM-12+001699999V0203201N002619999999N0000001N9+01221+99999100671ADDGF108991999999999999999999
0029228020999991918082620004+61700+030683FM-12+001699999V0203201N004619999999N0000001N9+00941+99999100781ADDGF103991999999999999999999
0046228020999991918082706004+61700+030683FM-12+001699999V0203201N004619999999N0000001N9+00941+99999100901ADDAJ100009199999999GF102991999999999999999999
0035228020999991918082713004+61700+030683FM-12+001699999V0203601N001019999999N0000001N9+01061+99999100951ADDGF108991999999999999999999MW1621
0029228020999991918082720004+61700+030683FM-12+001699999V0203601N004619999999N0000001N9+01001+99999100911ADDGF108991999999999999999999
0046228020999991918082806004+61700+030683FM-12+001699999V0203601N004619999999N0000001N9+00781+99999100901ADDAJ100009199999999GF108991999999999999999999
0029228020999991918082813004+61700+030683FM-12+001699999V0203201N006719999999N0000001N9+01331+99999100921ADDGF106991999999999999999999
0029228020999991918082820004+61700+030683FM-12+001699999V0203201N004619999999N0000001N9+00831+99999100981ADDGF108991999999999999999999
