0029228020999991921010106004+61700+030683FM-12+001699999V0209991C000019999999N0000001N9-02001+99999101951ADDGF108991999999999999999999
0029228020999991921010113004+61700+030683FM-12+001699999V0203601N001019999999N0000001N9-02001+99999102001ADDGF100991999999999999999999
0029228020999991921010120004+61700+030683FM-12+001699999V0209991C000019999999N0000001N9-02221+99999102071ADDGF100991999999999999999999
0029228020999991921010206004+61700+030683FM-12+001699999V0209991C000019999999N0000001N9-01891+99999102161ADDGF108991999999999999999999
0035228020999991921010213004+61700+030683FM-12+001699999V0209991C000019999999N0000001N9-01501+99999102341ADDGF108991999999999999999999MW1721
0029228020999991921010220004+61700+030683FM-12+001699999V0203601N001019999999N0000001N9-01171+99999102351ADDGF108991999999999999999999
0035228020999991921010306004+61700+030683FM-12+001699999V0209991C000019999999N0000001N9-01001+99999102421ADDGF108991999999999999999999MW1701
0029228020999991921010313004+61700+030683FM-12+001699999V0200901N006219999999N0000001N9-00891+99999102551ADDGF108991999999999999999999
0029228020999991921010320004+61700+030683FM-12+001699999V0200701N004119999999N0000001N9-00941+99999102601ADDGF108991999999999999999999
0029228020999991921010406004+61700+030683FM-12+001699999V0200701N002119999999N0000001N9-01111+99999102561ADDGF108991999999999999999999
0035228020999991921010413004+61700+030683FM-12+001699999V0200501N007219999999N0000001N9-01391+99999102521ADDGF108991999999999999999999MW1701
0035228020999991921010420004+61700+030683FM-12+001699999V0200701N002119999999N0000001N9-01561+99999102311ADDGF108991999999999999999999MW1701
0035228020999991921010506004+61700+030683FM-12+001699999V0200501N004119999999N0000001N9-00831+99999101581ADDGF108991999999999999999999MW1721
0035228020999991921010513004+61700+030683FM-12+001699999V0200901N008219999999N0000001N9-00611+99999100941ADDGF108991999999999999999999MW1721
0029228020999991921010520004+61700+030683FM-12+001699999V0201401N001019999999N0000001N9-00611+99999100471ADDGF108991999999999999999999
0029228020999991921010606004+61700+030683FM-12+001699999V0209991C000019999999N0000001N9-00721+99999100601ADDGF108991999999999999999999
0029228020999991921010613004+61700+030683FM-12+001699999V0202701N001019999999N0000001N9-00611+99999100871ADDGF108991999999999999999999
0029228020999991921010620004+61700+030683FM-12+001699999V0201801N002119999999N0000001N9-00171+99999100641ADDGF108991999999999999999999
0029228020999991921010706004+61700+030683FM-12+001699999V0202301N002119999999N0000001N9+00111+99999100121ADDGF108991999999999999999999
0029228020999991921010713004+61700+030683FM-12+001699999V0201801N002119999999N0000001N9+00221+99999099751ADDGF108991999999999999999999
0029228020999991921010720004+61700+030683FM-12+001699999V0201801N002119999999N0000001N9+00281+99999099551ADDGF108991999999999999999999
0029228020999991921010806004+61700+030683FM-12+001699999V0201801N002119999999N0000001N9+00061+99999100271ADDGF100991999999999999999999
0029228020999991921010813004+61700+030683FM-12+001699999V0202301N001019999999N0000001N9+00111+99999100631ADDGF100991999999999999999999
0029228020999991921010820004+61700+030683FM-12+001699999V0202301N001019999999N0000001N9+00001+99999100821ADDGF108991999999999999999999
0029228020999991921010906004+61700+030683FM-12+001699999V0201801N002119999999N0000001N9+00171+99999099681ADDGF108991999999999999999999
0029228020999991921010913004+61700+030683FM-12+001699999V0202301N002119999999N0000001N9+00221+99999099511ADDGF108991999999999999999999
0029228020999991921010920004+61700+030683FM-12+001699999V0209991C000019999999N0000001N9+00111+99999099401ADDGF108991999999999999999999
0029228020999991921011006004+61700+030683FM-12+001699999V0201801N001019999999N0000001N9+00061+99999098801ADDGF108991999999999999999999
0035228020999991921011013004+61700+030683FM-12+001699999V0201801N001019999999N0000001N9+00061+99999098311ADDGF108991999999999999999999MW1701
0029228020999991921011020004+61700+030683FM-12+001699999V0209991C000019999999N0000001N9-00221+99999098311ADDGF100991999999999999999999
0029228020999991921011106004+61700+030683FM-12+001699999V0209991C000019999999N0000001N9-00331+99999098721ADDGF108991999999999999999999
0029228020999991921011113004+61700+030683FM-12+001699999V0203201N001019999999N0000001N9-00611+99999098761ADDGF108991999999999999999999
0029228020999991921011120004+61700+030683FM-12+001699999V0203201N006219999999N0000001N9-00831+99999098671ADDGF108991999999999999999999
0029228020999991921011206004+61700+030683FM-12+001699999V0200501N004119999999N0000001N9-01061+99999098781ADDGF108991999999999999999999
0029228020999991921011213004+61700+030683FM-12+001699999V0200501N004119999999N0000001N9-01281+99999099431ADDGF100991999999999999999999
0029228020999991921011220004+61700+030683FM-12+001699999V0209991C000019999999N0000001N9-01671+99999100191ADDGF100991999999999999999999
0029228020999991921011306004+61700+030683FM-12+001699999V0203601N001019999999N0000001N9-02171+99999100911ADDGF100991999999999999999999
0029228020999991921011313004+61700+030683FM-12+001699999V0203601N001019999999N0000001N9-01831+99999101191ADDGF102991999999999999999999
0029228020999991921011320004+61700+030683FM-12+001699999V0203601N002119999999N0000001N9-01501+99999101121ADDGF108991999999999999999999
0029228020999991921011406004+61700+030683FM-12+001699999V0201801N011819999999N0000001N9-01281+99999100461ADDGF108991999999999999999999
0035228020999991921011413004+61700+030683FM-12+001699999V0201801N011819999999N0000001N9-00721+99999099471ADDGF108991999999999999999999MW1861
0029228020999991921011420004+61700+030683FM-12+001699999V0202301N002119999999N0000001N9-00391+99999098511ADDGF108991999999999999999999
0029228020999991921011506004+61700+030683FM-12+001699999V0203201N001019999999N0000001N9-01281+99999099901ADDGF100991999999999999999999
0029228020999991921011513004+61700+030683FM-12+001699999V0203601N006219999999N0000001N9-01221+99999100721ADDGF107991999999999999999999
0029228020999991921011520004+61700+030683FM-12+001699999V0203601N002119999999N0000001N9-01561+99999101711ADDGF100991999999999999999999
0029228020999991921011606004+61700+030683FM-12+001699999V0209991C000019999999N0000001N9-02001+99999102391ADDGF100991999999999999999999
0029228020999991921011613004+61700+030683FM-12+001699999V0202301N004119999999N0000001N9-00831+99999101481ADDGF108991999999999999999999
0029228020999991921011620004+61700+030683FM-12+001699999V0202301N004119999999N0000001N9-00061+99999100361ADDGF108991999999999999999999
0029228020999991921011706004+61700+030683FM-12+001699999V0203201N008219999999N0000001N9+00281+99999099991ADDGF100991999999999999999999
0029228020999991921011713004+61700+030683FM-12+001699999V0203201N004119999999N0000001N9+00221+99999100111ADDGF102991999999999999999999
0029228020999991921011720004+61700+030683FM-12+001699999V0202301N004119999999N0000001N9+00111+99999099841ADDGF108991999999999999999999
0029228020999991921011806004+61700+030683FM-12+001699999V0201801N002119999999N0000001N9-00331+99999098911ADDGF108991999999999999999999
0029228020999991921011813004+61700+030683FM-12+001699999V0201801N006219999999N0000001N9-00221+99999097951ADDGF108991999999999999999999
0029228020999991921011820004+61700+030683FM-12+001699999V0201801N004119999999N0000001N9+00001+99999097381ADDGF108991999999999999999999
0029228020999991921011906004+61700+030683FM-12+001699999V0209991C000019999999N0000001N9+00061+99999097351ADDGF108991999999999999999999
0035228020999991921011913004+61700+030683FM-12+001699999V0200501N002119999999N0000001N9+00001+99999097181ADDGF108991999999999999999999MW1701
0029228020999991921011920004+61700+030683FM-12+001699999V0209991C000019999999N0000001N9-00111+99999097721ADDGF108991999999999999999999
0029228020999991921012006004+61700+030683FM-12+001699999V0209991C000019999999N0000001N9-00111+99999098821ADDGF108991999999999999999999
0029228020999991921012013004+61700+030683FM-12+001699999V0202301N001019999999N0000001N9-00111+99999098881ADDGF108991999999999999999999
0035228020999991921012020004+61700+030683FM-12+001699999V0202301N004119999999N0000001N9-00171+99999097941ADDGF108991999999999999999999MW1721
0029228020999991921012106004+61700+030683FM-12+001699999V0202701N006219999999N0000001N9-00221+99999097081ADDGF108991999999999999999999
0035228020999991921012113004+61700+030683FM-12+001699999V0202701N006219999999N0000001N9-00501+99999098041ADDGF102991999999999999999999MW1721
0029228020999991921012120004+61700+030683FM-12+001699999V0203601N008219999999N0000001N9-00611+99999098791ADDGF102991999999999999999999
0029228020999991921012206004+61700+030683FM-12+001699999V0203201N001019999999N0000001N9-01501+99999098821ADDGF100991999999999999999999
0029228020999991921012213004+61700+030683FM-12+001699999V0200901N006219999999N0000001N9-00781+99999097761ADDGF108991999999999999999999
0029228020999991921012220004+61700+030683FM-12+001699999V0200901N008219999999N0000001N9-01001+99999096821ADDGF108991999999999999999999
0029228020999991921012306004+61700+030683FM-12+001699999V0203601N004119999999N0000001N9-00891+99999096941ADDGF108991999999999999999999
0029228020999991921012313004+61700+030683FM-12+001699999V0203201N006219999999N0000001N9-00831+99999097551ADDGF108991999999999999999999
0029228020999991921012320004+61700+030683FM-12+001699999V0209991C000019999999N0000001N9-01061+99999097941ADDGF108991999999999999999999
0029228020999991921012406004+61700+030683FM-12+001699999V0203201N001019999999N0000001N9-01611+99999098041ADDGF108991999999999999999999
0029228020999991921012413004+61700+030683FM-12+001699999V0203601N004119999999N0000001N9-01671+99999098321ADDGF106991999999999999999999
0029228020999991921012420004+61700+030683FM-12+001699999V0203601N001019999999N0000001N9-02001+99999098911ADDGF100991999999999999999999
0029228020999991921012506004+61700+030683FM-12+001699999V0203201N001019999999N0000001N9-01561+99999099621ADDGF100991999999999999999999
0029228020999991921012513004+61700+030683FM-12+001699999V0203201N002119999999N0000001N9-01391+99999100071ADDGF106991999999999999999999
0029228020999991921012520004+61700+030683FM-12+001699999V0209991C000019999999N0000001N9-01561+99999100141ADDGF100991999999999999999999
0029228020999991921012606004+61700+030683FM-12+001699999V0209991C000019999999N0000001N9-01891+99999100301ADDGF100991999999999999999999
0029228020999991921012613004+61700+030683FM-12+001699999V0203201N001019999999N0000001N9-01721+99999100301ADDGF106991999999999999999999
0029228020999991921012620004+61700+030683FM-12+001699999V0209991C000019999999N0000001N9-01281+99999099951ADDGF108991999999999999999999
0029228020999991921012706004+61700+030683FM-12+001699999V0209991C000019999999N0000001N9-01331+99999099591ADDGF108991999999999999999999
0029228020999991921012713004+61700+030683FM-12+001699999V0203401N001019999999N0000001N9-01281+99999099671ADDGF108991999999999999999999
0029228020999991921012720004+61700+030683FM-12+001699999V0209991C000019999999N0000001N9-01441+99999099861ADDGF108991999999999999999999
0029228020999991921012806004+61700+030683FM-12+001699999V0209991C000019999999N0000001N9-01721+99999100441ADDGF108991999999999999999999
0035228020999991921012813004+61700+030683FM-12+001699999V0203401N002119999999N0000001N9-01671+99999101071ADDGF100991999999999999999999MW1701
0029228020999991921012820004+61700+030683FM-12+001699999V0209991C000019999999N0000001N9-02561+99999101221ADDGF100991999999999999999999
0029228020999991921012906004+61700+030683FM-12+001699999V0209991C000019999999N0000001N9-02941+99999100561ADDGF108991999999999999999999
0029228020999991921012913004+61700+030683FM-12+001699999V0200901N002119999999N0000001N9-01721+99999999999ADDGF103991999999999999999999
0029228020999991921012920004+61700+030683FM-12+001699999V0200901N002119999999N0000001N9-01781+99999100081ADDGF100991999999999999999999
0029228020999991921013006004+61700+030683FM-12+001699999V0201401N002119999999N0000001N9-01171+99999100161ADDGF108991999999999999999999
0035228020999991921013013004+61700+030683FM-12+001699999V0201401N001019999999N0000001N9-01171+99999100031ADDGF108991999999999999999999MW1701
0029228020999991921013020004+61700+030683FM-12+001699999V0209991C000019999999N0000001N9-00831+99999099861ADDGF108991999999999999999999
0029228020999991921013106004+61700+030683FM-12+001699999V0201401N006219999999N0000001N9-01061+99999099121ADDGF108991999999999999999999
0029228020999991921013113004+61700+030683FM-12+001699999V0200901N001019999999N0000001N9-00941+99999099441ADDGF108991999999999999999999
0029228020999991921013120004+61700+030683FM-12+001699999V0202701N006219999999N0000001N9-01061+99999100031ADDGF108991999999999999999999
0029228020999991921020106004+61700+030683FM-12+001699999V0209991C000019999999N0000001N9-01831+99999100661ADDGF100991999999999999999999
0029228020999991921020113004+61700+030683FM-12+001699999V0203201N002119999999N0000001N9-01501+99999101031ADDGF108991999999999999999999
0029228020999991921020120004+61700+030683FM-12+001699999V0203601N002119999999N0000001N9-01111+99999101511ADDGF108991999999999999999999
0029228020999991921020206004+61700+030683FM-12+001699999V0209991C000019999999N0000001N9-02171+99999102401ADDGF100991999999999999999999
0029228020999991921020213004+61700+030683FM-12+001699999V0209991C000019999999N0000001N9-01781+99999102951ADDGF100991999999999999999999
0029228020999991921020220004+61700+030683FM-12+001699999V0209991C000019999999N0000001N9-02111+99999103381ADDGF103991999999999999999999
0029228020999991921020306004+61700+030683FM-12+001699999V0209991C000019999999N0000001N9-02501+99999103961ADDGF100991999999999999999999
0029228020999991921020313004+61700+030683FM-12+001699999V0209991C000019999999N0000001N9-01831+99999104361ADDGF100991999999999999999999
0029228020999991921020320004+61700+030683FM-12+001699999V0209991C000019999999N0000001N9-02441+99999104711ADDGF100991999999999999999999
0029228020999991921020406004+61700+030683FM-12+001699999V0209991C000019999999N0000001N9-02831+99999104951ADDGF100991999999999999999999
0029228020999991921020413004+61700+030683FM-12+001699999V0209991C000019999999N0000001N9-01831+99999104951ADDGF100991999999999999999999
0029228020999991921020420004+61700+030683FM-12+001699999V0209991C000019999999N0000001N9-02561+99999104641ADDGF100991999999999999999999
0029228020999991921020506004+61700+030683FM-12+001699999V0209991C000019999999N0000001N9-03111+99999104751ADDGF100991999999999999999999
0029228020999991921020513004+61700+030683FM-12+001699999V0209991C000019999999N0000001N9-02171+99999104901ADDGF100991999999999999999999
0029228020999991921020520004+61700+030683FM-12+001699999V0209991C000019999999N0000001N9-02671+99999104911ADDGF100991999999999999999999
0029228020999991921020606004+61700+030683FM-12+001699999V0209991C000019999999N0000001N9-03001+99999104741ADDGF100991999999999999999999
0029228020999991921020613004+61700+030683FM-12+001699999V0209991C000019999999N0000001N9-01611+99999104381ADDGF101991999999999999999999
0029228020999991921020620004+61700+030683FM-12+001699999V0209991C000019999999N0000001N9-02061+99999103901ADDGF100991999999999999999999
0029228020999991921020706004+61700+030683FM-12+001699999V0203201N002119999999N0000001N9-00561+99999103341ADDGF108991999999999999999999
0029228020999991921020713004+61700+030683FM-12+001699999V0203201N005119999999N0000001N9-00171+99999103621ADDGF108991999999999999999999
0029228020999991921020720004+61700+030683FM-12+001699999V0203601N002119999999N0000001N9-00331+99999103841ADDGF108991999999999999999999
0029228020999991921020806004+61700+030683FM-12+001699999V0203201N001019999999N0000001N9-00721+99999103951ADDGF108991999999999999999999
0029228020999991921020813004+61700+030683FM-12+001699999V0203201N001019999999N0000001N9-00671+99999103951ADDGF108991999999999999999999
0029228020999991921020820004+61700+030683FM-12+001699999V0203201N002119999999N0000001N9-00781+99999103881ADDGF108991999999999999999999
0029228020999991921020906004+61700+030683FM-12+001699999V0203201N002119999999N0000001N9-00781+99999103551ADDGF108991999999999999999999
0029228020999991921020913004+61700+030683FM-12+001699999V0203201N004119999999N0000001N9-00781+99999103361ADDGF108991999999999999999999
0029228020999991921020920004+61700+030683FM-12+001699999V0203201N002119999999N0000001N9-01001+99999103031ADDGF108991999999999999999999
0029228020999991921021006004+61700+030683FM-12+001699999V0203201N001019999999N0000001N9-00781+99999102481ADDGF108991999999999999999999
0029228020999991921021013004+61700+030683FM-12+001699999V0203201N006219999999N0000001N9-00221+99999102231ADDGF108991999999999999999999
0029228020999991921021020004+61700+030683FM-12+001699999V0203201N002119999999N0000001N9-00331+99999101991ADDGF100991999999999999999999
0035228020999991921021106004+61700+030683FM-12+001699999V0202001N002119999999N0000001N9-00281+99999100831ADDGF108991999999999999999999MW1701
0035228020999991921021113004+61700+030683FM-12+001699999V0202501N002119999999N0000001N9+00171+99999100201ADDGF108991999999999999999999MW1701
0035228020999991921021120004+61700+030683FM-12+001699999V0202501N004119999999N0000001N9+00001+99999099471ADDGF108991999999999999999999MW1701
0029228020999991921021206004+61700+030683FM-12+001699999V0203201N008219999999N0000001N9-00561+99999098641ADDGF108991999999999999999999
0035228020999991921021213004+61700+030683FM-12+001699999V0203401N020119999999N0000001N9-00721+99999099471ADDGF108991999999999999999999MW1861
0029228020999991921021220004+61700+030683FM-12+001699999V0203201N006219999999N0000001N9-01171+99999100481ADDGF100991999999999999999999
0029228020999991921021306004+61700+030683FM-12+001699999V0209991C000019999999N0000001N9-02061+99999100271ADDGF102991999999999999999999
0029228020999991921021313004+61700+030683FM-12+001699999V0203201N001019999999N0000001N9-01501+99999099791ADDGF106991999999999999999999
0035228020999991921021320004+61700+030683FM-12+001699999V0200901N009819999999N0000001N9-01171+99999098751ADDGF108991999999999999999999MW1861
0035228020999991921021406004+61700+030683FM-12+001699999V0200901N006219999999N0000001N9-01171+99999097511ADDGF108991999999999999999999MW1721
0035228020999991921021413004+61700+030683FM-12+001699999V0200501N004119999999N0000001N9-01171+99999097561ADDGF108991999999999999999999MW1721
0035228020999991921021420004+61700+030683FM-12+001699999V0200501N008219999999N0000001N9-01331+99999098031ADDGF108991999999999999999999MW1721
0029228020999991921021506004+61700+030683FM-12+001699999V0200501N004119999999N0000001N9-01441+99999099031ADDGF108991999999999999999999
0029228020999991921021513004+61700+030683FM-12+001699999V0203601N008219999999N0000001N9-01281+99999099721ADDGF100991999999999999999999
0029228020999991921021520004+61700+030683FM-12+001699999V0209991C000019999999N0000001N9-01831+99999100311ADDGF100991999999999999999999
0029228020999991921021606004+61700+030683FM-12+001699999V0209991C000019999999N0000001N9-02831+99999100581ADDGF100991999999999999999999
0029228020999991921021613004+61700+030683FM-12+001699999V0203601N001019999999N0000001N9-01611+99999100721ADDGF101991999999999999999999
0029228020999991921021620004+61700+030683FM-12+001699999V0209991C000019999999N0000001N9-02501+99999100821ADDGF105991999999999999999999
0029228020999991921021706004+61700+030683FM-12+001699999V0209991C000019999999N0000001N9-02001+99999100841ADDGF108991999999999999999999
0035228020999991921021713004+61700+030683FM-12+001699999V0203201N001019999999N0000001N9-01111+99999100801ADDGF108991999999999999999999MW1721
0029228020999991921021720004+61700+030683FM-12+001699999V0203201N001019999999N0000001N9-01501+99999101001ADDGF108991999999999999999999
0029228020999991921021806004+61700+030683FM-12+001699999V0200501N002119999999N0000001N9-01721+99999101261ADDGF108991999999999999999999
0029228020999991921021813004+61700+030683FM-12+001699999V0200501N001019999999N0000001N9-01281+99999101431ADDGF106991999999999999999999
0029228020999991921021820004+61700+030683FM-12+001699999V0209991C000019999999N0000001N9-01721+99999101621ADDGF108991999999999999999999
0029228020999991921021906004+61700+030683FM-12+001699999V0209991C000019999999N0000001N9-03061+99999101541ADDGF108991999999999999999999
0035228020999991921021913004+61700+030683FM-12+001699999V0209991C000019999999N0000001N9-01721+99999101151ADDGF108991999999999999999999MW1701
0029228020999991921021920004+61700+030683FM-12+001699999V0209991C000019999999N0000001N9-02441+99999101511ADDGF100991999999999999999999
0029228020999991921022006004+61700+030683FM-12+001699999V0209991C000019999999N0000001N9-01781+99999102031ADDGF101991999999999999999999
0029228020999991921022013004+61700+030683FM-12+001699999V0203601N001019999999N0000001N9-01171+99999102201ADDGF102991999999999999999999
0029228020999991921022020004+61700+030683FM-12+001699999V0202301N002119999999N0000001N9-01061+99999101821ADDGF108991999999999999999999
0029228020999991921022106004+61700+030683FM-12+001699999V0202701N002119999999N0000001N9-00391+99999101521ADDGF108991999999999999999999
0029228020999991921022113004+61700+030683FM-12+001699999V0203201N004119999999N0000001N9+00111+99999101801ADDGF108991999999999999999999
0029228020999991921022120004+61700+030683FM-12+001699999V0209991C000019999999N0000001N9-00501+99999102121ADDGF100991999999999999999999
0029228020999991921022206004+61700+030683FM-12+001699999V0209991C000019999999N0000001N9-00941+99999102281ADDGF108991999999999999999999
0029228020999991921022213004+61700+030683FM-12+001699999V0203201N001019999999N0000001N9-00061+99999102541ADDGF100991999999999999999999
0029228020999991921022220004+61700+030683FM-12+001699999V0209991C000019999999N0000001N9-00281+99999102601ADDGF108991999999999999999999
0029228020999991921022306004+61700+030683FM-12+001699999V0209991C000019999999N0000001N9-00221+99999102751ADDGF108991999999999999999999
0029228020999991921022313004+61700+030683FM-12+001699999V0203201N001019999999N0000001N9-00171+99999102881ADDGF108991999999999999999999
0029228020999991921022320004+61700+030683FM-12+001699999V0209991C000019999999N0000001N9-00441+99999102961ADDGF108991999999999999999999
0029228020999991921022406004+61700+030683FM-12+001699999V0209991C000019999999N0000001N9-00391+99999103001ADDGF108991999999999999999999
0035228020999991921022413004+61700+030683FM-12+001699999V0202701N002119999999N0000001N9-00171+99999103151ADDGF108991999999999999999999MW1701
0029228020999991921022420004+61700+030683FM-12+001699999V0209991C000019999999N0000001N9-00281+99999103351ADDGF108991999999999999999999
0029228020999991921022506004+61700+030683FM-12+001699999V0209991C000019999999N0000001N9-00441+99999103221ADDGF108991999999999999999999
0029228020999991921022513004+61700+030683FM-12+001699999V0202301N002119999999N0000001N9-00281+99999103161ADDGF108991999999999999999999
0029228020999991921022520004+61700+030683FM-12+001699999V0209991C000019999999N0000001N9-00391+99999103041ADDGF108991999999999999999999
0029228020999991921022606004+61700+030683FM-12+001699999V0202301N001019999999N0000001N9-00501+99999102701ADDGF108991999999999999999999
0029228020999991921022613004+61700+030683FM-12+001699999V0201401N003119999999N0000001N9-00281+99999102461ADDGF108991999999999999999999
0029228020999991921022620004+61700+030683FM-12+001699999V0209991C000019999999N0000001N9-00281+99999101921ADDGF108991999999999999999999
0029228020999991921022706004+61700+030683FM-12+001699999V0202301N002119999999N0000001N9-00171+99999101471ADDGF108991999999999999999999
0029228020999991921022713004+61700+030683FM-12+001699999V0202301N004119999999N0000001N9-00061+99999101101ADDGF108991999999999999999999
0029228020999991921022720004+61700+030683FM-12+001699999V0202301N008219999999N0000001N9-00281+99999100511ADDGF108991999999999999999999
0029228020999991921022806004+61700+030683FM-12+001699999V0201801N001019999999N0000001N9-00061+99999099831ADDGF108991999999999999999999
0029228020999991921022813004+61700+030683FM-12+001699999V0203201N002119999999N0000001N9+00281+99999100081ADDGF108991999999999999999999
0029228020999991921022820004+61700+030683FM-12+001699999V0209991C000019999999N0000001N9-00281+99999100361ADDGF100991999999999999999999
0029228020999991921030106004+61700+030683FM-12+001699999V0202701N002119999999N0000001N9+00061+99999099991ADDGF108991999999999999999999
0029228020999991921030113004+61700+030683FM-12+001699999V0203201N005119999999N0000001N9+00501+99999100641ADDGF100991999999999999999999
0029228020999991921030120004+61700+030683FM-12+001699999V0203201N004119999999N0000001N9-00171+99999100961ADDGF100991999999999999999999
0029228020999991921030206004+61700+030683FM-12+001699999V0201801N006219999999N0000001N9-00061+99999100261ADDGF108991999999999999999999
0035228020999991921030213004+61700+030683FM-12+001699999V0202001N008219999999N0000001N9+00281+99999099661ADDGF108991999999999999999999MW1701
0029228020999991921030220004+61700+030683FM-12+001699999V0201801N006219999999N0000001N9+00281+99999099341ADDGF108991999999999999999999
0029228020999991921030306004+61700+030683FM-12+001699999V0201401N002119999999N0000001N9+00171+99999099201ADDGF108991999999999999999999
0029228020999991921030313004+61700+030683FM-12+001699999V0202301N002119999999N0000001N9+00171+99999099031ADDGF108991999999999999999999
0029228020999991921030320004+61700+030683FM-12+001699999V0209991C000019999999N0000001N9-00111+99999099361ADDGF108991999999999999999999
0029228020999991921030406004+61700+030683FM-12+001699999V0200501N001019999999N0000001N9-00891+99999100271ADDGF104991999999999999999999
0029228020999991921030413004+61700+030683FM-12+001699999V0201401N008219999999N0000001N9-00171+99999100101ADDGF108991999999999999999999
0035228020999991921030420004+61700+030683FM-12+001699999V0201801N011819999999N0000001N9+00001+99999099061ADDGF108991999999999999999999MW1721
0035228020999991921030506004+61700+030683FM-12+001699999V0201801N008219999999N0000001N9+00061+99999097431ADDGF108991999999999999999999MW1721
0029228020999991921030513004+61700+030683FM-12+001699999V0202301N002119999999N0000001N9+00171+99999097301ADDGF108991999999999999999999
0029228020999991921030520004+61700+030683FM-12+001699999V0202301N008219999999N0000001N9-00721+99999097881ADDGF108991999999999999999999
0029228020999991921030606004+61700+030683FM-12+001699999V0202701N006219999999N0000001N9-00671+99999098441ADDGF108991999999999999999999
0035228020999991921030613004+61700+030683FM-12+001699999V0202701N009819999999N0000001N9-00391+99999099261ADDGF108991999999999999999999MW1861
0029228020999991921030620004+61700+030683FM-12+001699999V0202701N009819999999N0000001N9-00611+99999100261ADDGF100991999999999999999999
0029228020999991921030706004+61700+030683FM-12+001699999V0209991C000019999999N0000001N9-01501+99999100791ADDGF104991999999999999999999
0029228020999991921030713004+61700+030683FM-12+001699999V0203201N002119999999N0000001N9-00781+99999100761ADDGF106991999999999999999999
0029228020999991921030720004+61700+030683FM-12+001699999V0203201N001019999999N0000001N9-00781+99999100661ADDGF108991999999999999999999
0029228020999991921030806004+61700+030683FM-12+001699999V0209991C000019999999N0000001N9-01671+99999100501ADDGF100991999999999999999999
0029228020999991921030813004+61700+030683FM-12+001699999V0209991C000019999999N0000001N9-00441+99999100601ADDGF108991999999999999999999
0029228020999991921030820004+61700+030683FM-12+001699999V0209991C000019999999N0000001N9-01001+99999100671ADDGF100991999999999999999999
0029228020999991921030906004+61700+030683FM-12+001699999V0209991C000019999999N0000001N9-01671+99999101001ADDGF100991999999999999999999
0029228020999991921030913004+61700+030683FM-12+001699999V0203201N002119999999N0000001N9-00781+99999101041ADDGF108991999999999999999999
0029228020999991921030920004+61700+030683FM-12+001699999V0209991C000019999999N0000001N9-00831+99999100991ADDGF108991999999999999999999
0029228020999991921031006004+61700+030683FM-12+001699999V0200501N004119999999N0000001N9-00391+99999100501ADDGF108991999999999999999999
0035228020999991921031013004+61700+030683FM-12+001699999V0202301N002119999999N0000001N9+00061+99999099831ADDGF108991999999999999999999MW1721
0029228020999991921031020004+61700+030683FM-12+001699999V0209991C000019999999N0000001N9-00061+99999100741ADDGF108991999999999999999999
0029228020999991921031106004+61700+030683FM-12+001699999V0209991C000019999999N0000001N9-00221+99999101631ADDGF108991999999999999999999
0029228020999991921031113004+61700+030683FM-12+001699999V0202301N002119999999N0000001N9+00061+99999101991ADDGF108991999999999999999999
0029228020999991921031120004+61700+030683FM-12+001699999V0201401N004119999999N0000001N9-00171+99999102021ADDGF108991999999999999999999
0029228020999991921031206004+61700+030683FM-12+001699999V0201801N002119999999N0000001N9+00171+99999101921ADDGF108991999999999999999999
0029228020999991921031213004+61700+030683FM-12+001699999V0201401N006219999999N0000001N9+00561+99999101871ADDGF102991999999999999999999
0029228020999991921031220004+61700+030683FM-12+001699999V0201401N002119999999N0000001N9+00171+99999102071ADDGF100991999999999999999999
0029228020999991921031306004+61700+030683FM-12+001699999V0209991C000019999999N0000001N9-00501+99999102521ADDGF100991999999999999999999
0029228020999991921031313004+61700+030683FM-12+001699999V0202301N001019999999N0000001N9+00111+99999102601ADDGF101991999999999999999999
0029228020999991921031320004+61700+030683FM-12+001699999V0209991C000019999999N0000001N9-00391+99999102831ADDGF108991999999999999999999
0029228020999991921031406004+61700+030683FM-12+001699999V0209991C000019999999N0000001N9-00501+99999102911ADDGF108991999999999999999999
0029228020999991921031413004+61700+030683FM-12+001699999V0201401N001019999999N0000001N9-00281+99999103001ADDGF108991999999999999999999
0029228020999991921031420004+61700+030683FM-12+001699999V0201401N001019999999N0000001N9-00171+99999102831ADDGF108991999999999999999999
0029228020999991921031506004+61700+030683FM-12+001699999V0209991C000019999999N0000001N9-00171+99999102671ADDGF108991999999999999999999
0029228020999991921031513004+61700+030683FM-12+001699999V0201401N005119999999N0000001N9-00061+99999102601ADDGF108991999999999999999999
0029228020999991921031520004+61700+030683FM-12+001699999V0209991C000019999999N0000001N9+00061+99999102561ADDGF108991999999999999999999
0029228020999991921031606004+61700+030683FM-12+001699999V0203201N001019999999N0000001N9+00061+99999102671ADDGF108991999999999999999999
0029228020999991921031613004+61700+030683FM-12+001699999V0202701N002119999999N0000001N9+00501+99999102541ADDGF108991999999999999999999
0029228020999991921031620004+61700+030683FM-12+001699999V0209991C000019999999N0000001N9+00061+99999102401ADDGF108991999999999999999999
0029228020999991921031706004+61700+030683FM-12+001699999V0202301N001019999999N0000001N9+00061+99999102261ADDGF108991999999999999999999
0029228020999991921031713004+61700+030683FM-12+001699999V0202301N001019999999N0000001N9+00721+99999101921ADDGF107991999999999999999999
0029228020999991921031720004+61700+030683FM-12+001699999V0209991C000019999999N0000001N9+00441+99999101721ADDGF108991999999999999999999
0029228020999991921031806004+61700+030683FM-12+001699999V0209991C000019999999N0000001N9+00331+99999101671ADDGF108991999999999999999999
0029228020999991921031813004+61700+030683FM-12+001699999V0203201N007219999999N0000001N9+00781+99999101791ADDGF100991999999999999999999
0029228020999991921031820004+61700+030683FM-12+001699999V0203201N004119999999N0000001N9+00391+99999102071ADDGF100991999999999999999999
0029228020999991921031906004+61700+030683FM-12+001699999V0203201N001019999999N0000001N9-00281+99999102111ADDGF103991999999999999999999
0029228020999991921031913004+61700+030683FM-12+001699999V0203201N002119999999N0000001N9+00721+99999101741ADDGF100991999999999999999999
0029228020999991921031920004+61700+030683FM-12+001699999V0209991C000019999999N0000001N9-00111+99999101191ADDGF100991999999999999999999
0029228020999991921032006004+61700+030683FM-12+001699999V0203201N001019999999N0000001N9+00111+99999100641ADDGF105991999999999999999999
0029228020999991921032013004+61700+030683FM-12+001699999V0201401N004119999999N0000001N9+00611+99999100441ADDGF106991999999999999999999
0029228020999991921032020004+61700+030683FM-12+001699999V0201801N001019999999N0000001N9+00221+99999100321ADDGF108991999999999999999999
0029228020999991921032106004+61700+030683FM-12+001699999V0209991C000019999999N0000001N9+00111+99999100061ADDGF108991999999999999999999
0029228020999991921032113004+61700+030683FM-12+001699999V0209991C000019999999N0000001N9+00391+99999100101ADDGF108991999999999999999999
0029228020999991921032120004+61700+030683FM-12+001699999V0209991C000019999999N0000001N9+00171+99999100121ADDGF108991999999999999999999
0029228020999991921032206004+61700+030683FM-12+001699999V0209991C000019999999N0000001N9+00111+99999100421ADDGF108991999999999999999999
0029228020999991921032213004+61700+030683FM-12+001699999V0201401N002119999999N0000001N9+00281+99999100641ADDGF108991999999999999999999
0035228020999991921032220004+61700+030683FM-12+001699999V0201601N004119999999N0000001N9+00061+99999100421ADDGF108991999999999999999999MW1721
0029228020999991921032306004+61700+030683FM-12+001699999V0203201N002119999999N0000001N9+00061+99999099461ADDGF108991999999999999999999
0029228020999991921032313004+61700+030683FM-12+001699999V0203201N007219999999N0000001N9+00501+99999100161ADDGF104991999999999999999999
0029228020999991921032320004+61700+030683FM-12+001699999V0202301N004119999999N0000001N9+00171+99999100511ADDGF100991999999999999999999
0029228020999991921032406004+61700+030683FM-12+001699999V0209991C000019999999N0000001N9+00001+99999099941ADDGF108991999999999999999999
0029228020999991921032413004+61700+030683FM-12+001699999V0202901N001019999999N0000001N9+00221+99999099631ADDGF108991999999999999999999
0029228020999991921032420004+61700+030683FM-12+001699999V0203201N001019999999N0000001N9+00111+99999099791ADDGF108991999999999999999999
0029228020999991921032506004+61700+030683FM-12+001699999V0201401N004119999999N0000001N9+00111+99999099021ADDGF108991999999999999999999
0029228020999991921032513004+61700+030683FM-12+001699999V0203201N008219999999N0000001N9+00671+99999099121ADDGF104991999999999999999999
0029228020999991921032520004+61700+030683FM-12+001699999V0203201N008719999999N0000001N9+00441+99999099841ADDGF100991999999999999999999
0029228020999991921032606004+61700+030683FM-12+001699999V0203201N008719999999N0000001N9+00061+99999100261ADDGF100991999999999999999999
0029228020999991921032613004+61700+030683FM-12+001699999V0203201N005119999999N0000001N9+00671+99999100711ADDGF100991999999999999999999
0029228020999991921032620004+61700+030683FM-12+001699999V0209991C000019999999N0000001N9+00671+99999100831ADDGF100991999999999999999999
0029228020999991921032706004+61700+030683FM-12+001699999V0209991C000019999999N0000001N9-00281+99999100881ADDGF100991999999999999999999
0029228020999991921032713004+61700+030683FM-12+001699999V0201401N004119999999N0000001N9+00721+99999100861ADDGF100991999999999999999999
0029228020999991921032720004+61700+030683FM-12+001699999V0209991C000019999999N0000001N9-00061+99999100521ADDGF100991999999999999999999
0035228020999991921032806004+61700+030683FM-12+001699999V0201401N004119999999N0000001N9+00111+99999099381ADDGF108991999999999999999999MW1601
0029228020999991921032813004+61700+030683FM-12+001699999V0201801N005119999999N0000001N9+00221+99999099551ADDGF108991999999999999999999
0029228020999991921032820004+61700+030683FM-12+001699999V0201801N002119999999N0000001N9+00061+99999099511ADDGF108991999999999999999999
0029228020999991921032906004+61700+030683FM-12+001699999V0201801N002119999999N0000001N9+00001+99999099501ADDGF108991999999999999999999
0029228020999991921032913004+61700+030683FM-12+001699999V0201801N008219999999N0000001N9+00671+99999099751ADDGF100991999999999999999999
0029228020999991921032920004+61700+030683FM-12+001699999V0201801N006219999999N0000001N9+00171+99999100321ADDGF100991999999999999999999
0035228020999991921033006004+61700+030683FM-12+001699999V0201801N006219999999N0000001N9+00171+99999100151ADDGF108991999999999999999999MW1621
0029228020999991921033013004+61700+030683FM-12+001699999V0201401N005119999999N0000001N9+00501+99999100341ADDGF108991999999999999999999
0029228020999991921033020004+61700+030683FM-12+001699999V0201801N002119999999N0000001N9+00441+99999100151ADDGF102991999999999999999999
0029228020999991921033106004+61700+030683FM-12+001699999V0201801N004119999999N0000001N9+00221+99999099781ADDGF104991999999999999999999
0029228020999991921033113004+61700+030683FM-12+001699999V0201401N004119999999N0000001N9+00391+99999099181ADDGF108991999999999999999999
0029228020999991921033120004+61700+030683FM-12+001699999V0201801N004119999999N0000001N9+00171+99999098231ADDGF108991999999999999999999
0029228020999991921040106004+61700+030683FM-12+001699999V0203201N004119999999N0000001N9+00111+99999098541ADDGF108991999999999999999999
0029228020999991921040113004+61700+030683FM-12+001699999V0202701N006219999999N0000001N9+00281+99999099671ADDGF108991999999999999999999
0029228020999991921040120004+61700+030683FM-12+001699999V0203201N006219999999N0000001N9+00061+99999100671ADDGF100991999999999999999999
0046228020999991921040206004+61700+030683FM-12+001699999V0209991C000019999999N0000001N9-00171+99999101801ADDAJ100009199999999GF100991999999999999999999
0029228020999991921040213004+61700+030683FM-12+001699999V0201401N006219999999N0000001N9+00441+99999102061ADDGF100991999999999999999999
0029228020999991921040220004+61700+030683FM-12+001699999V0201801N002119999999N0000001N9+00061+99999101961ADDGF100991999999999999999999
0046228020999991921040306004+61700+030683FM-12+001699999V0201801N004119999999N0000001N9+00281+99999101581ADDAJ100009199999999GF102991999999999999999999
0029228020999991921040313004+61700+030683FM-12+001699999V0202301N004119999999N0000001N9+00671+99999101661ADDGF107991999999999999999999
0029228020999991921040320004+61700+030683FM-12+001699999V0209991C000019999999N0000001N9+00501+99999101701ADDGF101991999999999999999999
0046228020999991921040406004+61700+030683FM-12+001699999V0209991C000019999999N0000001N9+00501+99999101551ADDAJ100009199999999GF108991999999999999999999
0029228020999991921040413004+61700+030683FM-12+001699999V0201401N004119999999N0000001N9+00671+99999101671ADDGF108991999999999999999999
0029228020999991921040420004+61700+030683FM-12+001699999V0201401N001019999999N0000001N9+00281+99999101511ADDGF106991999999999999999999
0046228020999991921040506004+61700+030683FM-12+001699999V0201801N002119999999N0000001N9+00331+99999101111ADDAJ100009199999999GF107991999999999999999999
0029228020999991921040513004+61700+030683FM-12+001699999V0201601N004119999999N0000001N9+00501+99999101021ADDGF108991999999999999999999
0029228020999991921040520004+61700+030683FM-12+001699999V0201801N001019999999N0000001N9+00391+99999100981ADDGF108991999999999999999999
0046228020999991921040606004+61700+030683FM-12+001699999V0209991C000019999999N0000001N9+00281+99999100981ADDAJ100009199999999GF108991999999999999999999
0029228020999991921040613004+61700+030683FM-12+001699999V0203601N005119999999N0000001N9+00441+99999101361ADDGF108991999999999999999999
0029228020999991921040620004+61700+030683FM-12+001699999V0200501N002119999999N0000001N9+00331+99999101941ADDGF108991999999999999999999
0046228020999991921040706004+61700+030683FM-12+001699999V0209991C000019999999N0000001N9+00281+99999102671ADDAJ100009199999999GF100991999999999999999999
0029228020999991921040713004+61700+030683FM-12+001699999V0200501N004119999999N0000001N9+00781+99999103031ADDGF102991999999999999999999
0029228020999991921040720004+61700+030683FM-12+001699999V0200501N001019999999N0000001N9+00441+99999103311ADDGF108991999999999999999999
0046228020999991921040806004+61700+030683FM-12+001699999V0200501N001019999999N0000001N9+00221+99999103401ADDAJ100009199999999GF100991999999999999999999
0029228020999991921040813004+61700+030683FM-12+001699999V0202701N004119999999N0000001N9+01331+99999103551ADDGF100991999999999999999999
0029228020999991921040820004+61700+030683FM-12+001699999V0209991C000019999999N0000001N9+00501+99999103841ADDGF100991999999999999999999
0046228020999991921040906004+61700+030683FM-12+001699999V0209991C000019999999N0000001N9+00281+99999104471ADDAJ100009199999999GF100991999999999999999999
0029228020999991921040913004+61700+030683FM-12+001699999V0201401N004119999999N0000001N9+00941+99999104471ADDGF100991999999999999999999
0029228020999991921040920004+61700+030683FM-12+001699999V0209991C000019999999N0000001N9+00281+99999103861ADDGF100991999999999999999999
0046228020999991921041006004+61700+030683FM-12+001699999V0203201N001019999999N0000001N9+00611+99999103261ADDAJ100009199999999GF100991999999999999999999
0029228020999991921041013004+61700+030683FM-12+001699999V0203201N004119999999N0000001N9+01501+99999102881ADDGF100991999999999999999999
0029228020999991921041020004+61700+030683FM-12+001699999V0209991C000019999999N0000001N9+00611+99999102501ADDGF100991999999999999999999
0046228020999991921041106004+61700+030683FM-12+001699999V0203201N001019999999N0000001N9+00561+99999102031ADDAJ100009199999999GF102991999999999999999999
0029228020999991921041113004+61700+030683FM-12+001699999V0203201N001019999999N0000001N9+01671+99999101481ADDGF100991999999999999999999
0029228020999991921041120004+61700+030683FM-12+001699999V0203201N001019999999N0000001N9+00831+99999101321ADDGF106991999999999999999999
0046228020999991921041206004+61700+030683FM-12+001699999V0203201N001019999999N0000001N9+00331+99999101231ADDAJ100009199999999GF100991999999999999999999
0029228020999991921041213004+61700+030683FM-12+001699999V0201401N002119999999N0000001N9+00831+99999101001ADDGF108991999999999999999999
0029228020999991921041220004+61700+030683FM-12+001699999V0209991C000019999999N0000001N9+00281+99999100711ADDGF100991999999999999999999
0046228020999991921041306004+61700+030683FM-12+001699999V0201801N001019999999N0000001N9+00281+99999099791ADDAJ100009199999999GF108991999999999999999999
0035228020999991921041313004+61700+030683FM-12+001699999V0202001N005119999999N0000001N9+00611+99999099391ADDGF108991999999999999999999MW1621
0035228020999991921041320004+61700+030683FM-12+001699999V0201801N002119999999N0000001N9+00441+99999099031ADDGF108991999999999999999999MW1621
0052228020999991921041406004+61700+030683FM-12+001699999V0201801N004119999999N0000001N9+00441+99999098661ADDAJ100009199999999GF108991999999999999999999MW1621
0029228020999991921041413004+61700+030683FM-12+001699999V0201401N007219999999N0000001N9+00611+99999098921ADDGF108991999999999999999999
0029228020999991921041420004+61700+030683FM-12+001699999V0201801N002119999999N0000001N9+00441+99999099141ADDGF108991999999999999999999
0046228020999991921041506004+61700+030683FM-12+001699999V0201801N008219999999N0000001N9+00501+99999098901ADDAJ100009199999999GF108991999999999999999999
0029228020999991921041513004+61700+030683FM-12+001699999V0201401N008719999999N0000001N9+00671+99999099071ADDGF108991999999999999999999
0029228020999991921041520004+61700+030683FM-12+001699999V0201401N004119999999N0000001N9+00501+99999099311ADDGF108991999999999999999999
0046228020999991921041606004+61700+030683FM-12+001699999V0202301N004119999999N0000001N9+00501+99999099721ADDAJ100009199999999GF104991999999999999999999
0029228020999991921041613004+61700+030683FM-12+001699999V0202701N008219999999N0000001N9+00561+99999100061ADDGF108991999999999999999999
0029228020999991921041620004+61700+030683FM-12+001699999V0209991C000019999999N0000001N9+00501+99999100181ADDGF106991999999999999999999
0046228020999991921041706004+61700+030683FM-12+001699999V0202301N001019999999N0000001N9+00281+99999100901ADDAJ100009199999999GF108991999999999999999999
0029228020999991921041713004+61700+030683FM-12+001699999V0201401N002119999999N0000001N9+00561+99999101161ADDGF108991999999999999999999
0035228020999991921041720004+61700+030683FM-12+001699999V0209991C000019999999N0000001N9+00281+99999101031ADDGF108991999999999999999999MW1601
0046228020999991921041806004+61700+030683FM-12+001699999V0200901N002119999999N0000001N9+00441+99999100241ADDAJ100009199999999GF108991999999999999999999
0029228020999991921041813004+61700+030683FM-12+001699999V0201401N004119999999N0000001N9+01111+99999100181ADDGF105991999999999999999999
0035228020999991921041820004+61700+030683FM-12+001699999V0201401N002119999999N0000001N9+00891+99999100261ADDGF108991999999999999999999MW1621
0046228020999991921041906004+61700+030683FM-12+001699999V0201401N002119999999N0000001N9+00941+99999100621ADDAJ100009199999999GF106991999999999999999999
0029228020999991921041913004+61700+030683FM-12+001699999V0201401N005119999999N0000001N9+01061+99999101501ADDGF103991999999999999999999
0029228020999991921041920004+61700+030683FM-12+001699999V0201401N001019999999N0000001N9+00331+99999101941ADDGF105991999999999999999999
0046228020999991921042006004+61700+030683FM-12+001699999V0209991C000019999999N0000001N9+00441+99999102031ADDAJ100009199999999GF106991999999999999999999
0035228020999991921042013004+61700+030683FM-12+001699999V0200701N002119999999N0000001N9+01001+99999101941ADDGF108991999999999999999999MW1601
0035228020999991921042020004+61700+030683FM-12+001699999V0209991C000019999999N0000001N9+00941+99999101661ADDGF108991999999999999999999MW1601
0052228020999991921042106004+61700+030683FM-12+001699999V0209991C000019999999N0000001N9+00831+99999101641ADDAJ100009199999999GF108991999999999999999999MW1621
0029228020999991921042113004+61700+030683FM-12+001699999V0201401N004119999999N0000001N9+00721+99999101831ADDGF108991999999999999999999
0035228020999991921042120004+61700+030683FM-12+001699999V0201601N002119999999N0000001N9+00831+99999101591ADDGF108991999999999999999999MW1621
0046228020999991921042206004+61700+030683FM-12+001699999V0201801N002119999999N0000001N9+00561+99999101871ADDAJ100009199999999GF108991999999999999999999
0029228020999991921042213004+61700+030683FM-12+001699999V0201401N002119999999N0000001N9+00831+99999102461ADDGF108991999999999999999999
0029228020999991921042220004+61700+030683FM-12+001699999V0209991C000019999999N0000001N9+00561+99999102541ADDGF100991999999999999999999
0046228020999991921042306004+61700+030683FM-12+001699999V0201401N001019999999N0000001N9+00721+99999102541ADDAJ100009199999999GF108991999999999999999999
0029228020999991921042313004+61700+030683FM-12+001699999V0201401N001019999999N0000001N9+01721+99999102791ADDGF103991999999999999999999
0029228020999991921042320004+61700+030683FM-12+001699999V0209991C000019999999N0000001N9+01221+99999102861ADDGF100991999999999999999999
0046228020999991921042406004+61700+030683FM-12+001699999V0209991C000019999999N0000001N9+01281+99999103111ADDAJ100009199999999GF100991999999999999999999
0029228020999991921042413004+61700+030683FM-12+001699999V0201401N001019999999N0000001N9+01781+99999103401ADDGF100991999999999999999999
0029228020999991921042420004+61700+030683FM-12+001699999V0209991C000019999999N0000001N9+01221+99999103641ADDGF100991999999999999999999
0046228020999991921042506004+61700+030683FM-12+001699999V0209991C000019999999N0000001N9+01061+99999103901ADDAJ100009199999999GF100991999999999999999999
0035228020999991921042513004+61700+030683FM-12+001699999V0201401N001019999999N0000001N9+02171+99999103881ADDGF103991999999999999999999MW1601
0029228020999991921042520004+61700+030683FM-12+001699999V0209991C000019999999N0000001N9+01611+99999104021ADDGF100991999999999999999999
0046228020999991921042606004+61700+030683FM-12+001699999V0209991C000019999999N0000001N9+01331+99999104261ADDAJ100009199999999GF100991999999999999999999
0029228020999991921042613004+61700+030683FM-12+001699999V0203601N005119999999N0000001N9+02061+99999104041ADDGF101991999999999999999999
0029228020999991921042620004+61700+030683FM-12+001699999V0209991C000019999999N0000001N9+01441+99999103861ADDGF100991999999999999999999
0046228020999991921042706004+61700+030683FM-12+001699999V0209991C000019999999N0000001N9+00941+99999103951ADDAJ100009199999999GF100991999999999999999999
0029228020999991921042713004+61700+030683FM-12+001699999V0201401N004119999999N0000001N9+01781+99999103661ADDGF105991999999999999999999
0029228020999991921042720004+61700+030683FM-12+001699999V0209991C000019999999N0000001N9+01001+99999103351ADDGF108991999999999999999999
0046228020999991921042806004+61700+030683FM-12+001699999V0201401N002119999999N0000001N9+01281+99999102951ADDAJ100009199999999GF102991999999999999999999
0029228020999991921042813004+61700+030683FM-12+001699999V0203201N001019999999N0000001N9+02441+99999102481ADDGF106991999999999999999999
0029228020999991921042820004+61700+030683FM-12+001699999V0209991C000019999999N0000001N9+01501+99999102031ADDGF108991999999999999999999
0046228020999991921042906004+61700+030683FM-12+001699999V0201401N004119999999N0000001N9+00561+99999102361ADDAJ100009199999999GF108991999999999999999999
0029228020999991921042913004+61700+030683FM-12+001699999V0203401N006219999999N0000001N9+00781+99999102621ADDGF102991999999999999999999
0029228020999991921042920004+61700+030683FM-12+001699999V0209991C000019999999N0000001N9+00441+99999102581ADDGF100991999999999999999999
0046228020999991921043006004+61700+030683FM-12+001699999V0209991C000019999999N0000001N9+00501+99999102241ADDAJ100009199999999GF102991999999999999999999
0029228020999991921043013004+61700+030683FM-12+001699999V0203201N004119999999N0000001N9+01561+99999101921ADDGF103991999999999999999999
0029228020999991921043020004+61700+030683FM-12+001699999V0209991C000019999999N0000001N9+00941+99999101911ADDGF100991999999999999999999
0046228020999991921050106004+61700+030683FM-12+001699999V0209991C000019999999N0000001N9+00671+99999101981ADDAJ100009199999999GF100991999999999999999999
0029228020999991921050113004+61700+030683FM-12+001699999V0201401N004119999999N0000001N9+00781+99999101601ADDGF106991999999999999999999
0029228020999991921050120004+61700+030683FM-12+001699999V0209991C000019999999N0000001N9+00781+99999100981ADDGF106991999999999999999999
0046228020999991921050206004+61700+030683FM-12+001699999V0202901N001019999999N0000001N9+01001+99999100671ADDAJ100009199999999GF102991999999999999999999
0029228020999991921050213004+61700+030683FM-12+001699999V0201401N008219999999N0000001N9+01501+99999100361ADDGF103991999999999999999999
0029228020999991921050220004+61700+030683FM-12+001699999V0201801N004119999999N0000001N9+01171+99999100151ADDGF108991999999999999999999
0046228020999991921050306004+61700+030683FM-12+001699999V0202301N002119999999N0000001N9+00831+99999099951ADDAJ100009199999999GF100991999999999999999999
0029228020999991921050313004+61700+030683FM-12+001699999V0201401N007219999999N0000001N9+01001+99999099921ADDGF108991999999999999999999
0035228020999991921050320004+61700+030683FM-12+001699999V0201101N005119999999N0000001N9+00721+99999099711ADDGF108991999999999999999999MW1621
0046228020999991921050406004+61700+030683FM-12+001699999V0209991C000019999999N0000001N9+00781+99999099721ADDAJ100009199999999GF100991999999999999999999
0029228020999991921050413004+61700+030683FM-12+001699999V0201401N002119999999N0000001N9+01171+99999099661ADDGF108991999999999999999999
0035228020999991921050420004+61700+030683FM-12+001699999V0203201N002119999999N0000001N9+00831+99999099341ADDGF108991999999999999999999MW1621
0046228020999991921050506004+61700+030683FM-12+001699999V0203201N002119999999N0000001N9+00721+99999099401ADDAJ100009199999999GF107991999999999999999999
0029228020999991921050513004+61700+030683FM-12+001699999V0203201N001019999999N0000001N9+01281+99999100281ADDGF105991999999999999999999
0029228020999991921050520004+61700+030683FM-12+001699999V0209991C000019999999N0000001N9+00721+99999100671ADDGF105991999999999999999999
0046228020999991921050606004+61700+030683FM-12+001699999V0209991C000019999999N0000001N9+00781+99999101121ADDAJ100009199999999GF106991999999999999999999
0029228020999991921050613004+61700+030683FM-12+001699999V0201801N002119999999N0000001N9+01061+99999101271ADDGF106991999999999999999999
0029228020999991921050620004+61700+030683FM-12+001699999V0209991C000019999999N0000001N9+00831+99999100761ADDGF108991999999999999999999
0046228020999991921050706004+61700+030683FM-12+001699999V0203201N004119999999N0000001N9+00671+99999100401ADDAJ100009199999999GF108991999999999999999999
0029228020999991921050713004+61700+030683FM-12+001699999V0203201N004119999999N0000001N9+01061+99999100721ADDGF102991999999999999999999
0029228020999991921050720004+61700+030683FM-12+001699999V0209991C000019999999N0000001N9+00781+99999101261ADDGF100991999999999999999999
0046228020999991921050806004+61700+030683FM-12+001699999V0202701N001019999999N0000001N9+00781+99999101881ADDAJ100009199999999GF100991999999999999999999
0029228020999991921050813004+61700+030683FM-12+001699999V0201801N006219999999N0000001N9+01061+99999101981ADDGF105991999999999999999999
0029228020999991921050820004+61700+030683FM-12+001699999V0201401N001019999999N0000001N9+00671+99999101951ADDGF100991999999999999999999
0046228020999991921050906004+61700+030683FM-12+001699999V0201401N001019999999N0000001N9+00891+99999102071ADDAJ100009199999999GF100991999999999999999999
0029228020999991921050913004+61700+030683FM-12+001699999V0201401N008219999999N0000001N9+01331+99999102041ADDGF101991999999999999999999
0029228020999991921050920004+61700+030683FM-12+001699999V0209991C000019999999N0000001N9+00781+99999101841ADDGF100991999999999999999999
0046228020999991921051006004+61700+030683FM-12+001699999V0209991C000019999999N0000001N9+01061+99999101831ADDAJ100009199999999GF103991999999999999999999
0029228020999991921051013004+61700+030683FM-12+001699999V0202301N006219999999N0000001N9+02281+99999101871ADDGF106991999999999999999999
0029228020999991921051020004+61700+030683FM-12+001699999V0201801N001019999999N0000001N9+01061+99999102041ADDGF103991999999999999999999
0046228020999991921051106004+61700+030683FM-12+001699999V0209991C000019999999N0000001N9+01061+99999101911ADDAJ100009199999999GF100991999999999999999999
0029228020999991921051113004+61700+030683FM-12+001699999V0201401N006219999999N0000001N9+01781+99999101721ADDGF103991999999999999999999
0029228020999991921051120004+61700+030683FM-12+001699999V0209991C000019999999N0000001N9+01281+99999101441ADDGF100991999999999999999999
0046228020999991921051206004+61700+030683FM-12+001699999V0209991C000019999999N0000001N9+01171+99999101321ADDAJ100009199999999GF102991999999999999999999
0029228020999991921051213004+61700+030683FM-12+001699999V0203601N002119999999N0000001N9+01781+99999101311ADDGF106991999999999999999999
0035228020999991921051220004+61700+030683FM-12+001699999V0203201N004119999999N0000001N9+01001+99999101101ADDGF108991999999999999999999MW1621
0046228020999991921051306004+61700+030683FM-12+001699999V0203201N002119999999N0000001N9+00441+99999101461ADDAJ100009199999999GF108991999999999999999999
0029228020999991921051313004+61700+030683FM-12+001699999V0203201N005119999999N0000001N9+01221+99999101901ADDGF100991999999999999999999
0029228020999991921051320004+61700+030683FM-12+001699999V0209991C000019999999N0000001N9+01001+99999102231ADDGF100991999999999999999999
0046228020999991921051406004+61700+030683FM-12+001699999V0201401N002119999999N0000001N9+01001+99999102241ADDAJ100009199999999GF100991999999999999999999
0029228020999991921051413004+61700+030683FM-12+001699999V0201601N008719999999N0000001N9+01391+99999102271ADDGF102991999999999999999999
0029228020999991921051420004+61700+030683FM-12+001699999V0201801N005119999999N0000001N9+01281+99999102071ADDGF102991999999999999999999
0046228020999991921051506004+61700+030683FM-12+001699999V0202701N001019999999N0000001N9+01171+99999102071ADDAJ100009199999999GF107991999999999999999999
0029228020999991921051513004+61700+030683FM-12+001699999V0202501N001019999999N0000001N9+02111+99999101941ADDGF102991999999999999999999
0029228020999991921051520004+61700+030683FM-12+001699999V0202301N006219999999N0000001N9+01611+99999101801ADDGF100991999999999999999999
0046228020999991921051606004+61700+030683FM-12+001699999V0209991C000019999999N0000001N9+01441+99999101681ADDAJ100009199999999GF100991999999999999999999
0029228020999991921051613004+61700+030683FM-12+001699999V0201801N008719999999N0000001N9+01611+99999101361ADDGF106991999999999999999999
0029228020999991921051620004+61700+030683FM-12+001699999V0201801N007219999999N0000001N9+01001+99999100581ADDGF108991999999999999999999
0046228020999991921051706004+61700+030683FM-12+001699999V0203201N008719999999N0000001N9+00781+99999100441ADDAJ100009199999999GF108991999999999999999999
0029228020999991921051713004+61700+030683FM-12+001699999V0203201N008719999999N0000001N9+01561+99999101141ADDGF105991999999999999999999
0029228020999991921051720004+61700+030683FM-12+001699999V0209991C000019999999N0000001N9+01171+99999101561ADDGF106991999999999999999999
0046228020999991921051806004+61700+030683FM-12+001699999V0209991C000019999999N0000001N9+01171+99999102121ADDAJ100009199999999GF100991999999999999999999
0029228020999991921051813004+61700+030683FM-12+001699999V0201601N004119999999N0000001N9+01671+99999102221ADDGF100991999999999999999999
0029228020999991921051820004+61700+030683FM-12+001699999V0209991C000019999999N0000001N9+00941+99999102201ADDGF108991999999999999999999
0046228020999991921051906004+61700+030683FM-12+001699999V0209991C000019999999N0000001N9+00941+99999102401ADDAJ100009199999999GF100991999999999999999999
0029228020999991921051913004+61700+030683FM-12+001699999V0201801N005119999999N0000001N9+01611+99999102391ADDGF102991999999999999999999
0029228020999991921051920004+61700+030683FM-12+001699999V0209991C000019999999N0000001N9+01171+99999102151ADDGF101991999999999999999999
0046228020999991921052006004+61700+030683FM-12+001699999V0209991C000019999999N0000001N9+01221+99999101981ADDAJ100009199999999GF100991999999999999999999
0029228020999991921052013004+61700+030683FM-12+001699999V0201801N008219999999N0000001N9+01721+99999101901ADDGF101991999999999999999999
0029228020999991921052020004+61700+030683FM-12+001699999V0209991C000019999999N0000001N9+01111+99999101601ADDGF103991999999999999999999
0046228020999991921052106004+61700+030683FM-12+001699999V0201401N001019999999N0000001N9+01171+99999101221ADDAJ100009199999999GF108991999999999999999999
0035228020999991921052113004+61700+030683FM-12+001699999V0200901N002119999999N0000001N9+01221+99999101031ADDGF108991999999999999999999MW1621
0029228020999991921052120004+61700+030683FM-12+001699999V0209991C000019999999N0000001N9+01221+99999101081ADDGF106991999999999999999999
0046228020999991921052206004+61700+030683FM-12+001699999V0203601N004119999999N0000001N9+01171+99999101871ADDAJ100009199999999GF100991999999999999999999
0029228020999991921052213004+61700+030683FM-12+001699999V0202701N004119999999N0000001N9+01781+99999102001ADDGF100991999999999999999999
0029228020999991921052220004+61700+030683FM-12+001699999V0209991C000019999999N0000001N9+01171+99999101831ADDGF103991999999999999999999
0046228020999991921052306004+61700+030683FM-12+001699999V0201401N002119999999N0000001N9+01171+99999101401ADDAJ100009199999999GF100991999999999999999999
0029228020999991921052313004+61700+030683FM-12+001699999V0202701N004119999999N0000001N9+01281+99999101341ADDGF108991999999999999999999
0029228020999991921052320004+61700+030683FM-12+001699999V0203201N001019999999N0000001N9+01111+99999101561ADDGF100991999999999999999999
0046228020999991921052406004+61700+030683FM-12+001699999V0203201N008719999999N0000001N9+01061+99999102001ADDAJ100009199999999GF100991999999999999999999
0029228020999991921052413004+61700+030683FM-12+001699999V0203201N009819999999N0000001N9+01501+99999102101ADDGF100991999999999999999999
0029228020999991921052420004+61700+030683FM-12+001699999V0209991C000019999999N0000001N9+01061+99999101871ADDGF103991999999999999999999
0046228020999991921052506004+61700+030683FM-12+001699999V0201401N004119999999N0000001N9+01061+99999101271ADDAJ100009199999999GF108991999999999999999999
0029228020999991921052513004+61700+030683FM-12+001699999V0202301N004119999999N0000001N9+01501+99999101041ADDGF108991999999999999999999
0029228020999991921052520004+61700+030683FM-12+001699999V0209991C000019999999N0000001N9+01111+99999101321ADDGF102991999999999999999999
0046228020999991921052606004+61700+030683FM-12+001699999V0209991C000019999999N0000001N9+01391+99999101841ADDAJ100009199999999GF100991999999999999999999
0029228020999991921052613004+61700+030683FM-12+001699999V0201801N004119999999N0000001N9+01671+99999102071ADDGF101991999999999999999999
0029228020999991921052620004+61700+030683FM-12+001699999V0209991C000019999999N0000001N9+01061+99999102021ADDGF100991999999999999999999
0046228020999991921052706004+61700+030683FM-12+001699999V0201801N001019999999N0000001N9+01221+99999102151ADDAJ100009199999999GF102991999999999999999999
0029228020999991921052713004+61700+030683FM-12+001699999V0201401N006219999999N0000001N9+01781+99999102031ADDGF100991999999999999999999
0029228020999991921052720004+61700+030683FM-12+001699999V0209991C000019999999N0000001N9+01281+99999101661ADDGF100991999999999999999999
0046228020999991921052806004+61700+030683FM-12+001699999V0209991C000019999999N0000001N9+01331+99999101511ADDAJ100009199999999GF102991999999999999999999
0029228020999991921052813004+61700+030683FM-12+001699999V0201401N003119999999N0000001N9+02001+99999101391ADDGF100991999999999999999999
0029228020999991921052820004+61700+030683FM-12+001699999V0201801N006219999999N0000001N9+01501+99999101021ADDGF106991999999999999999999
0046228020999991921052906004+61700+030683FM-12+001699999V0201401N001019999999N0000001N9+01281+99999100941ADDAJ100009199999999GF108991999999999999999999
0029228020999991921052913004+61700+030683FM-12+001699999V0201401N006219999999N0000001N9+01721+99999101061ADDGF107991999999999999999999
0029228020999991921052920004+61700+030683FM-12+001699999V0201401N001019999999N0000001N9+01281+99999101181ADDGF108991999999999999999999
0046228020999991921053006004+61700+030683FM-12+001699999V0209991C000019999999N0000001N9+01331+99999101081ADDAJ100009199999999GF106991999999999999999999
0035228020999991921053013004+61700+030683FM-12+001699999V0202701N004119999999N0000001N9+01611+99999101351ADDGF108991999999999999999999MW1621
0029228020999991921053020004+61700+030683FM-12+001699999V0203201N001019999999N0000001N9+01441+99999101661ADDGF100991999999999999999999
0046228020999991921053106004+61700+030683FM-12+001699999V0209991C000019999999N0000001N9+01331+99999102221ADDAJ100009199999999GF102991999999999999999999
0029228020999991921053113004+61700+030683FM-12+001699999V0201801N004119999999N0000001N9+02061+99999102391ADDGF100991999999999999999999
0029228020999991921053120004+61700+030683FM-12+001699999V0209991C000019999999N0000001N9+01501+99999102361ADDGF100991999999999999999999
0046228020999991921060106004+61700+030683FM-12+001699999V0209991C000019999999N0000001N9+01501+99999102461ADDAJ100009199999999GF102991999999999999999999
0029228020999991921060113004+61700+030683FM-12+001699999V0201401N006219999999N0000001N9+02391+99999102361ADDGF100991999999999999999999
0029228020999991921060120004+61700+030683FM-12+001699999V0201801N001019999999N0000001N9+01611+99999102281ADDGF100991999999999999999999
0046228020999991921060206004+61700+030683FM-12+001699999V0203201N001019999999N0000001N9+01831+99999102271ADDAJ100009199999999GF100991999999999999999999
0029228020999991921060213004+61700+030683FM-12+001699999V0203201N001019999999N0000001N9+02611+99999102271ADDGF100991999999999999999999
0029228020999991921060220004+61700+030683FM-12+001699999V0209991C000019999999N0000001N9+01831+99999102191ADDGF100991999999999999999999
0046228020999991921060306004+61700+030683FM-12+001699999V0209991C000019999999N0000001N9+01831+99999101901ADDAJ100009199999999GF105991999999999999999999
0029228020999991921060313004+61700+030683FM-12+001699999V0202701N002119999999N0000001N9+02441+99999101661ADDGF103991999999999999999999
0029228020999991921060320004+61700+030683FM-12+001699999V0202701N004119999999N0000001N9+01831+99999101391ADDGF100991999999999999999999
0046228020999991921060406004+61700+030683FM-12+001699999V0203601N006219999999N0000001N9+01441+99999101721ADDAJ100009199999999GF100991999999999999999999
0029228020999991921060413004+61700+030683FM-12+001699999V0203601N008219999999N0000001N9+01891+99999101721ADDGF102991999999999999999999
0029228020999991921060420004+61700+030683FM-12+001699999V0209991C000019999999N0000001N9+01391+99999101431ADDGF102991999999999999999999
0046228020999991921060506004+61700+030683FM-12+001699999V0209991C000019999999N0000001N9+01171+99999100701ADDAJ100009199999999GF108991999999999999999999
0035228020999991921060513004+61700+030683FM-12+001699999V0203601N001019999999N0000001N9+01221+99999100081ADDGF108991999999999999999999MW1621
0035228020999991921060520004+61700+030683FM-12+001699999V0203601N002119999999N0000001N9+00831+99999100031ADDGF104991999999999999999999MW1621
0046228020999991921060606004+61700+030683FM-12+001699999V0203601N002119999999N0000001N9+01001+99999100261ADDAJ100009199999999GF103991999999999999999999
0029228020999991921060613004+61700+030683FM-12+001699999V0203601N004119999999N0000001N9+01111+99999100541ADDGF105991999999999999999999
0029228020999991921060620004+61700+030683FM-12+001699999V0203601N001019999999N0000001N9+00781+99999100761ADDGF102991999999999999999999
0046228020999991921060706004+61700+030683FM-12+001699999V0203601N001019999999N0000001N9+00721+99999100861ADDAJ100009199999999GF106991999999999999999999
0029228020999991921060713004+61700+030683FM-12+001699999V0203601N001019999999N0000001N9+01111+99999100831ADDGF108991999999999999999999
0029228020999991921060720004+61700+030683FM-12+001699999V0209991C000019999999N0000001N9+01061+99999100671ADDGF102991999999999999999999
0046228020999991921060806004+61700+030683FM-12+001699999V0203601N002119999999N0000001N9+01111+99999100481ADDAJ100009199999999GF102991999999999999999999
0029228020999991921060813004+61700+030683FM-12+001699999V0203601N004119999999N0000001N9+01721+99999100261ADDGF105991999999999999999999
0029228020999991921060820004+61700+030683FM-12+001699999V0203601N001019999999N0000001N9+01221+99999100311ADDGF106991999999999999999999
0046228020999991921060906004+61700+030683FM-12+001699999V0203601N002119999999N0000001N9+01221+99999100351ADDAJ100009199999999GF105991999999999999999999
0029228020999991921060913004+61700+030683FM-12+001699999V0203601N004119999999N0000001N9+01221+99999100361ADDGF106991999999999999999999
0029228020999991921060920004+61700+030683FM-12+001699999V0209991C000019999999N0000001N9+00831+99999100461ADDGF100991999999999999999999
0046228020999991921061006004+61700+030683FM-12+001699999V0201801N004119999999N0000001N9+01171+99999100711ADDAJ100009199999999GF100991999999999999999999
0029228020999991921061013004+61700+030683FM-12+001699999V0201801N006219999999N0000001N9+01781+99999100901ADDGF100991999999999999999999
0029228020999991921061020004+61700+030683FM-12+001699999V0209991C000019999999N0000001N9+01331+99999100991ADDGF101991999999999999999999
0046228020999991921061106004+61700+030683FM-12+001699999V0201401N001019999999N0000001N9+01441+99999101101ADDAJ100009199999999GF100991999999999999999999
0029228020999991921061113004+61700+030683FM-12+001699999V0201401N008219999999N0000001N9+02061+99999101021ADDGF100991999999999999999999
0035228020999991921061120004+61700+030683FM-12+001699999V0209991C000019999999N0000001N9+01441+99999100961ADDGF108991999999999999999999MW1601
0046228020999991921061206004+61700+030683FM-12+001699999V0201401N001019999999N0000001N9+01391+99999100871ADDAJ100009199999999GF106991999999999999999999
0029228020999991921061213004+61700+030683FM-12+001699999V0201401N001019999999N0000001N9+01611+99999100871ADDGF108991999999999999999999
0029228020999991921061220004+61700+030683FM-12+001699999V0201401N002119999999N0000001N9+01391+99999100791ADDGF106991999999999999999999
0046228020999991921061306004+61700+030683FM-12+001699999V0201401N002119999999N0000001N9+01331+99999100791ADDAJ100009199999999GF108991999999999999999999
0029228020999991921061313004+61700+030683FM-12+001699999V0201801N001019999999N0000001N9+01671+99999100961ADDGF106991999999999999999999
0029228020999991921061320004+61700+030683FM-12+001699999V0209991C000019999999N0000001N9+01611+99999100951ADDGF106991999999999999999999
0046228020999991921061406004+61700+030683FM-12+001699999V0203201N002119999999N0000001N9+01561+99999101071ADDAJ100009199999999GF108991999999999999999999
0029228020999991921061413004+61700+030683FM-12+001699999V0203201N004119999999N0000001N9+01781+99999101201ADDGF107991999999999999999999
0029228020999991921061420004+61700+030683FM-12+001699999V0203401N001019999999N0000001N9+01501+99999101401ADDGF108991999999999999999999
0046228020999991921061506004+61700+030683FM-12+001699999V0203201N001019999999N0000001N9+01441+99999101271ADDAJ100009199999999GF108991999999999999999999
0029228020999991921061513004+61700+030683FM-12+001699999V0203401N001019999999N0000001N9+01941+99999101151ADDGF106991999999999999999999
0029228020999991921061520004+61700+030683FM-12+001699999V0203201N002119999999N0000001N9+01561+99999100941ADDGF108991999999999999999999
0052228020999991921061606004+61700+030683FM-12+001699999V0203601N002119999999N0000001N9+01281+99999100681ADDAJ100009199999999GF108991999999999999999999MW1601
0029228020999991921061613004+61700+030683FM-12+001699999V0203201N001019999999N0000001N9+01831+99999100751ADDGF106991999999999999999999
0029228020999991921061620004+61700+030683FM-12+001699999V0203601N004119999999N0000001N9+01331+99999100801ADDGF104991999999999999999999
0046228020999991921061706004+61700+030683FM-12+001699999V0203201N004119999999N0000001N9+01111+99999100901ADDAJ100009199999999GF106991999999999999999999
0029228020999991921061713004+61700+030683FM-12+001699999V0203601N006219999999N0000001N9+01781+99999100861ADDGF100991999999999999999999
0029228020999991921061720004+61700+030683FM-12+001699999V0203201N001019999999N0000001N9+01281+99999100681ADDGF100991999999999999999999
0046228020999991921061806004+61700+030683FM-12+001699999V0209991C000019999999N0000001N9+01281+99999100391ADDAJ100009199999999GF100991999999999999999999
0029228020999991921061813004+61700+030683FM-12+001699999V0203201N006219999999N0000001N9+02171+99999100031ADDGF102991999999999999999999
0035228020999991921061820004+61700+030683FM-12+001699999V0201401N004119999999N0000001N9+01331+99999099801ADDGF108991999999999999999999MW1621
0052228020999991921061906004+61700+030683FM-12+001699999V0209991C000019999999N0000001N9+01281+99999099081ADDAJ100009199999999GF108991999999999999999999MW1621
0029228020999991921061913004+61700+030683FM-12+001699999V0201601N004119999999N0000001N9+01391+99999099321ADDGF107991999999999999999999
0029228020999991921061920004+61700+030683FM-12+001699999V0201601N004119999999N0000001N9+01111+99999099621ADDGF106991999999999999999999
0046228020999991921062006004+61700+030683FM-12+001699999V0201801N002119999999N0000001N9+01061+99999099721ADDAJ100009199999999GF108991999999999999999999
0029228020999991921062013004+61700+030683FM-12+001699999V0201401N006219999999N0000001N9+00941+99999100071ADDGF107991999999999999999999
0029228020999991921062020004+61700+030683FM-12+001699999V0201601N004119999999N0000001N9+00941+99999100231ADDGF102991999999999999999999
0046228020999991921062106004+61700+030683FM-12+001699999V0201801N006219999999N0000001N9+00891+99999100581ADDAJ100009199999999GF100991999999999999999999
0029228020999991921062113004+61700+030683FM-12+001699999V0201401N011819999999N0000001N9+01561+99999100901ADDGF103991999999999999999999
0029228020999991921062120004+61700+030683FM-12+001699999V0201801N008219999999N0000001N9+01441+99999101141ADDGF105991999999999999999999
0046228020999991921062206004+61700+030683FM-12+001699999V0200901N004119999999N0000001N9+01441+99999101021ADDAJ100009199999999GF106991999999999999999999
0029228020999991921062213004+61700+030683FM-12+001699999V0200901N002119999999N0000001N9+02171+99999101021ADDGF106991999999999999999999
0029228020999991921062220004+61700+030683FM-12+001699999V0209991C000019999999N0000001N9+01671+99999100951ADDGF106991999999999999999999
0046228020999991921062306004+61700+030683FM-12+001699999V0209991C000019999999N0000001N9+01671+99999100301ADDAJ100009199999999GF108991999999999999999999
0029228020999991921062313004+61700+030683FM-12+001699999V0203601N001019999999N0000001N9+01941+99999100101ADDGF108991999999999999999999
0029228020999991921062320004+61700+030683FM-12+001699999V0203401N006219999999N0000001N9+01501+99999100281ADDGF108991999999999999999999
0046228020999991921062406004+61700+030683FM-12+001699999V0203201N004119999999N0000001N9+01501+99999100821ADDAJ100009199999999GF102991999999999999999999
0029228020999991921062413004+61700+030683FM-12+001699999V0203401N001019999999N0000001N9+02061+99999100951ADDGF101991999999999999999999
0029228020999991921062420004+61700+030683FM-12+001699999V0209991C000019999999N0000001N9+01721+99999100841ADDGF103991999999999999999999
0046228020999991921062506004+61700+030683FM-12+001699999V0200901N001019999999N0000001N9+01611+99999100461ADDAJ100009199999999GF108991999999999999999999
0035228020999991921062513004+61700+030683FM-12+001699999V0203601N001019999999N0000001N9+01891+99999100341ADDGF108991999999999999999999MW1621
0029228020999991921062520004+61700+030683FM-12+001699999V0203601N004119999999N0000001N9+01441+99999100351ADDGF108991999999999999999999
0052228020999991921062606004+61700+030683FM-12+001699999V0203601N002119999999N0000001N9+01281+99999100391ADDAJ100009199999999GF108991999999999999999999MW1621
0029228020999991921062613004+61700+030683FM-12+001699999V0203201N001019999999N0000001N9+01671+99999100551ADDGF108991999999999999999999
0029228020999991921062620004+61700+030683FM-12+001699999V0203201N001019999999N0000001N9+01561+99999100751ADDGF108991999999999999999999
0046228020999991921062706004+61700+030683FM-12+001699999V0203201N001019999999N0000001N9+01671+99999100881ADDAJ100009199999999GF105991999999999999999999
0029228020999991921062713004+61700+030683FM-12+001699999V0201801N006219999999N0000001N9+01721+99999100861ADDGF103991999999999999999999
0029228020999991921062720004+61700+030683FM-12+001699999V0201801N001019999999N0000001N9+01501+99999100681ADDGF107991999999999999999999
0052228020999991921062806004+61700+030683FM-12+001699999V0201401N002119999999N0000001N9+01441+99999100401ADDAJ100009199999999GF108991999999999999999999MW1621
0029228020999991921062813004+61700+030683FM-12+001699999V0201601N002119999999N0000001N9+02061+99999100041ADDGF106991999999999999999999
0029228020999991921062820004+61700+030683FM-12+001699999V0203401N001019999999N0000001N9+01611+99999099741ADDGF106991999999999999999999
0052228020999991921062906004+61700+030683FM-12+001699999V0201401N003119999999N0000001N9+01441+99999099261ADDAJ100009199999999GF108991999999999999999999MW1621
0029228020999991921062913004+61700+030683FM-12+001699999V0201401N008219999999N0000001N9+01501+99999099321ADDGF104991999999999999999999
0035228020999991921062920004+61700+030683FM-12+001699999V0201401N004119999999N0000001N9+00941+99999099361ADDGF108991999999999999999999MW1621
0046228020999991921063006004+61700+030683FM-12+001699999V0201801N002119999999N0000001N9+01001+99999099861ADDAJ100009199999999GF103991999999999999999999
0029228020999991921063013004+61700+030683FM-12+001699999V0201401N006219999999N0000001N9+01441+99999100151ADDGF102991999999999999999999
0029228020999991921063020004+61700+030683FM-12+001699999V0201101N001019999999N0000001N9+01281+99999100311ADDGF102991999999999999999999
0046228020999991921070106004+61700+030683FM-12+001699999V0209991C000019999999N0000001N9+01281+99999100591ADDAJ100009199999999GF107991999999999999999999
0029228020999991921070113004+61700+030683FM-12+001699999V0200901N001019999999N0000001N9+01781+99999100821ADDGF106991999999999999999999
0029228020999991921070120004+61700+030683FM-12+001699999V0209991C000019999999N0000001N9+01441+99999101061ADDGF106991999999999999999999
0046228020999991921070206004+61700+030683FM-12+001699999V0202701N001019999999N0000001N9+01171+99999101361ADDAJ100009199999999GF106991999999999999999999
0029228020999991921070213004+61700+030683FM-12+001699999V0203201N002119999999N0000001N9+01941+99999101311ADDGF102991999999999999999999
0029228020999991921070220004+61700+030683FM-12+001699999V0203601N004119999999N0000001N9+01671+99999101321ADDGF100991999999999999999999
0046228020999991921070306004+61700+030683FM-12+001699999V0203601N001019999999N0000001N9+01671+99999101461ADDAJ100009199999999GF100991999999999999999999
0029228020999991921070313004+61700+030683FM-12+001699999V0203201N002119999999N0000001N9+02391+99999101391ADDGF103991999999999999999999
0029228020999991921070320004+61700+030683FM-12+001699999V0209991C000019999999N0000001N9+01891+99999101271ADDGF100991999999999999999999
0046228020999991921070406004+61700+030683FM-12+001699999V0209991C000019999999N0000001N9+01671+99999101401ADDAJ100009199999999GF104991999999999999999999
0029228020999991921070413004+61700+030683FM-12+001699999V0201601N001019999999N0000001N9+02221+99999101191ADDGF100991999999999999999999
0029228020999991921070420004+61700+030683FM-12+001699999V0201601N001019999999N0000001N9+01781+99999101201ADDGF101991999999999999999999
0046228020999991921070506004+61700+030683FM-12+001699999V0201601N001019999999N0000001N9+01781+99999101071ADDAJ100009199999999GF100991999999999999999999
0029228020999991921070513004+61700+030683FM-12+001699999V0201601N008219999999N0000001N9+02281+99999100981ADDGF103991999999999999999999
0029228020999991921070520004+61700+030683FM-12+001699999V0201801N004119999999N0000001N9+01831+99999100881ADDGF100991999999999999999999
0046228020999991921070606004+61700+030683FM-12+001699999V0209991C000019999999N0000001N9+01611+99999100881ADDAJ100009199999999GF106991999999999999999999
0029228020999991921070613004+61700+030683FM-12+001699999V0201801N008219999999N0000001N9+01831+99999100831ADDGF106991999999999999999999
0029228020999991921070620004+61700+030683FM-12+001699999V0209991C000019999999N0000001N9+01611+99999100681ADDGF106991999999999999999999
0046228020999991921070706004+61700+030683FM-12+001699999V0209991C000019999999N0000001N9+01501+99999100831ADDAJ100009199999999GF107991999999999999999999
0029228020999991921070713004+61700+030683FM-12+001699999V0203201N002119999999N0000001N9+02001+99999100991ADDGF106991999999999999999999
0029228020999991921070720004+61700+030683FM-12+001699999V0209991C000019999999N0000001N9+01441+99999101191ADDGF100991999999999999999999
0046228020999991921070806004+61700+030683FM-12+001699999V0203201N001019999999N0000001N9+01501+99999101471ADDAJ100009199999999GF102991999999999999999999
0029228020999991921070813004+61700+030683FM-12+001699999V0203201N002119999999N0000001N9+02111+99999101431ADDGF106991999999999999999999
0029228020999991921070820004+61700+030683FM-12+001699999V0209991C000019999999N0000001N9+01611+99999101321ADDGF100991999999999999999999
0046228020999991921070906004+61700+030683FM-12+001699999V0209991C000019999999N0000001N9+01671+99999101081ADDAJ100009199999999GF101991999999999999999999
0029228020999991921070913004+61700+030683FM-12+001699999V0201801N004119999999N0000001N9+02001+99999100741ADDGF108991999999999999999999
0029228020999991921070920004+61700+030683FM-12+001699999V0202701N001019999999N0000001N9+01781+99999100561ADDGF106991999999999999999999
0046228020999991921071006004+61700+030683FM-12+001699999V0203201N001019999999N0000001N9+01721+99999100621ADDAJ100009199999999GF100991999999999999999999
0029228020999991921071013004+61700+030683FM-12+001699999V0203601N004119999999N0000001N9+01941+99999100591ADDGF106991999999999999999999
0029228020999991921071020004+61700+030683FM-12+001699999V0202701N001019999999N0000001N9+01501+99999100461ADDGF108991999999999999999999
0046228020999991921071106004+61700+030683FM-12+001699999V0203601N001019999999N0000001N9+01391+99999100421ADDAJ100009199999999GF108991999999999999999999
0029228020999991921071113004+61700+030683FM-12+001699999V0203201N002119999999N0000001N9+02001+99999100391ADDGF105991999999999999999999
0029228020999991921071120004+61700+030683FM-12+001699999V0201801N001019999999N0000001N9+01611+99999100071ADDGF102991999999999999999999
0046228020999991921071206004+61700+030683FM-12+001699999V0201401N006219999999N0000001N9+01441+99999099031ADDAJ100009199999999GF108991999999999999999999
0035228020999991921071213004+61700+030683FM-12+001699999V0201601N004119999999N0000001N9+01441+99999098641ADDGF108991999999999999999999MW1621
0029228020999991921071220004+61700+030683FM-12+001699999V0201601N003119999999N0000001N9+01441+99999098341ADDGF105991999999999999999999
0046228020999991921071306004+61700+030683FM-12+001699999V0209991C000019999999N0000001N9+01331+99999098001ADDAJ100009199999999GF108991999999999999999999
0029228020999991921071313004+61700+030683FM-12+001699999V0202501N002119999999N0000001N9+01781+99999098261ADDGF106991999999999999999999
0035228020999991921071320004+61700+030683FM-12+001699999V0203201N002119999999N0000001N9+01221+99999098621ADDGF108991999999999999999999MW1621
0046228020999991921071406004+61700+030683FM-12+001699999V0202701N999999999999N0000001N9+01221+99999098821ADDAJ100009199999999GF108991999999999999999999
0035228020999991921071413004+61700+030683FM-12+001699999V0201801N002119999999N0000001N9+01391+99999099161ADDGF108991999999999999999999MW1621
0029228020999991921071420004+61700+030683FM-12+001699999V0203601N002119999999N0000001N9+01221+99999099601ADDGF107991999999999999999999
0046228020999991921071506004+61700+030683FM-12+001699999V0203601N004119999999N0000001N9+01221+99999100151ADDAJ100009199999999GF107991999999999999999999
0029228020999991921071513004+61700+030683FM-12+001699999V0203601N002119999999N0000001N9+01671+99999100581ADDGF107991999999999999999999
0029228020999991921071520004+61700+030683FM-12+001699999V0203601N002119999999N0000001N9+01281+99999101021ADDGF106991999999999999999999
0046228020999991921071606004+61700+030683FM-12+001699999V0203201N002119999999N0000001N9+01221+99999101381ADDAJ100009199999999GF108991999999999999999999
0029228020999991921071613004+61700+030683FM-12+001699999V0203601N001019999999N0000001N9+01671+99999101441ADDGF106991999999999999999999
0035228020999991921071620004+61700+030683FM-12+001699999V0203601N001019999999N0000001N9+01331+99999101431ADDGF106991999999999999999999MW1601
0046228020999991921071706004+61700+030683FM-12+001699999V0209991C000019999999N0000001N9+01281+99999101341ADDAJ100009199999999GF106991999999999999999999
0029228020999991921071713004+61700+030683FM-12+001699999V0201401N001019999999N0000001N9+01721+99999101401ADDGF106991999999999999999999
0029228020999991921071720004+61700+030683FM-12+001699999V0209991C000019999999N0000001N9+01331+99999101541ADDGF103991999999999999999999
0046228020999991921071806004+61700+030683FM-12+001699999V0200701N001019999999N0000001N9+01331+99999101641ADDAJ100009199999999GF107991999999999999999999
0035228020999991921071813004+61700+030683FM-12+001699999V0200701N001019999999N0000001N9+01501+99999101521ADDGF106991999999999999999999MW1621
0029228020999991921071820004+61700+030683FM-12+001699999V0209991C000019999999N0000001N9+01331+99999101301ADDGF108991999999999999999999
0046228020999991921071906004+61700+030683FM-12+001699999V0209991C000019999999N0000001N9+01281+99999101081ADDAJ100009199999999GF108991999999999999999999
0035228020999991921071913004+61700+030683FM-12+001699999V0209991C000019999999N0000001N9+01441+99999101081ADDGF106991999999999999999999MW1621
0029228020999991921071920004+61700+030683FM-12+001699999V0209991C000019999999N0000001N9+01221+99999101101ADDGF102991999999999999999999
0046228020999991921072006004+61700+030683FM-12+001699999V0200501N001019999999N0000001N9+01281+99999101081ADDAJ100009199999999GF105991999999999999999999
0029228020999991921072013004+61700+030683FM-12+001699999V0200501N004119999999N0000001N9+01721+99999100921ADDGF108991999999999999999999
0029228020999991921072020004+61700+030683FM-12+001699999V0209991C000019999999N0000001N9+01221+99999100911ADDGF107991999999999999999999
0052228020999991921072106004+61700+030683FM-12+001699999V0209991C000019999999N0000001N9+01171+99999100721ADDAJ100009199999999GF108991999999999999999999MW1621
0029228020999991921072113004+61700+030683FM-12+001699999V0200501N001019999999N0000001N9+01561+99999100581ADDGF108991999999999999999999
0029228020999991921072120004+61700+030683FM-12+001699999V0209991C000019999999N0000001N9+01441+99999100471ADDGF107991999999999999999999
0046228020999991921072206004+61700+030683FM-12+001699999V0209991C000019999999N0000001N9+01331+99999100321ADDAJ100009199999999GF107991999999999999999999
0029228020999991921072213004+61700+030683FM-12+001699999V0200901N001019999999N0000001N9+02001+99999100221ADDGF105991999999999999999999
0029228020999991921072220004+61700+030683FM-12+001699999V0201401N002119999999N0000001N9+01561+99999100271ADDGF103991999999999999999999
0046228020999991921072306004+61700+030683FM-12+001699999V0201401N001019999999N0000001N9+01441+99999100191ADDAJ100009199999999GF102991999999999999999999
0029228020999991921072313004+61700+030683FM-12+001699999V0201401N004119999999N0000001N9+01941+99999099871ADDGF102991999999999999999999
0029228020999991921072320004+61700+030683FM-12+001699999V0200901N019019999999N0000001N9+01561+99999099181ADDGF108991999999999999999999
0046228020999991921072406004+61700+030683FM-12+001699999V0201401N006219999999N0000001N9+01391+99999098521ADDAJ100009199999999GF106991999999999999999999
0029228020999991921072413004+61700+030683FM-12+001699999V0201401N001019999999N0000001N9+01721+99999098701ADDGF105991999999999999999999
0029228020999991921072420004+61700+030683FM-12+001699999V0201401N002119999999N0000001N9+01441+99999098871ADDGF108991999999999999999999
0046228020999991921072506004+61700+030683FM-12+001699999V0203401N002119999999N0000001N9+01331+99999098661ADDAJ100009199999999GF108991999999999999999999
0029228020999991921072513004+61700+030683FM-12+001699999V0202301N006219999999N0000001N9+01561+99999098921ADDGF107991999999999999999999
0029228020999991921072520004+61700+030683FM-12+001699999V0202701N002119999999N0000001N9+01331+99999099181ADDGF107991999999999999999999
0046228020999991921072606004+61700+030683FM-12+001699999V0203201N008219999999N0000001N9+01671+99999099991ADDAJ100009199999999GF106991999999999999999999
0029228020999991921072613004+61700+030683FM-12+001699999V0203201N009819999999N0000001N9+02221+99999100551ADDGF100991999999999999999999
0029228020999991921072620004+61700+030683FM-12+001699999V0203201N001019999999N0000001N9+01611+99999100871ADDGF100991999999999999999999
0046228020999991921072706004+61700+030683FM-12+001699999V0209991C000019999999N0000001N9+01441+99999100881ADDAJ100009199999999GF107991999999999999999999
0029228020999991921072713004+61700+030683FM-12+001699999V0201801N001019999999N0000001N9+02061+99999100541ADDGF108991999999999999999999
0029228020999991921072720004+61700+030683FM-12+001699999V0202701N002119999999N0000001N9+01721+99999100121ADDGF102991999999999999999999
0046228020999991921072806004+61700+030683FM-12+001699999V0202301N002119999999N0000001N9+01671+99999100141ADDAJ100009199999999GF102991999999999999999999
0029228020999991921072813004+61700+030683FM-12+001699999V0203201N004119999999N0000001N9+02281+99999100241ADDGF105991999999999999999999
0029228020999991921072820004+61700+030683FM-12+001699999V0202701N004119999999N0000001N9+01611+99999100311ADDGF103991999999999999999999
0046228020999991921072906004+61700+030683FM-12+001699999V0203201N002119999999N0000001N9+01671+99999100581ADDAJ100009199999999GF100991999999999999999999
0029228020999991921072913004+61700+030683FM-12+001699999V0202701N008219999999N0000001N9+02061+99999100871ADDGF104991999999999999999999
0029228020999991921072920004+61700+030683FM-12+001699999V0202701N001019999999N0000001N9+01671+99999101071ADDGF108991999999999999999999
0046228020999991921073006004+61700+030683FM-12+001699999V0209991C000019999999N0000001N9+01441+99999101281ADDAJ100009199999999GF100991999999999999999999
0029228020999991921073013004+61700+030683FM-12+001699999V0201401N004119999999N0000001N9+01781+99999101121ADDGF108991999999999999999999
0035228020999991921073020004+61700+030683FM-12+001699999V0200901N001019999999N0000001N9+01441+99999100461ADDGF108991999999999999999999MW1621
0052228020999991921073106004+61700+030683FM-12+001699999V0201801N002119999999N0000001N9+01501+99999099821ADDAJ100009199999999GF108991999999999999999999MW1621
0029228020999991921073113004+61700+030683FM-12+001699999V0201801N006219999999N0000001N9+01391+99999100061ADDGF108991999999999999999999
0029228020999991921073120004+61700+030683FM-12+001699999V0203201N006219999999N0000001N9+01331+99999100301ADDGF108991999999999999999999
0046228020999991921080106004+61700+030683FM-12+001699999V0203201N002119999999N0000001N9+01281+99999100721ADDAJ100009199999999GF108991999999999999999999
0029228020999991921080113004+61700+030683FM-12+001699999V0203401N004119999999N0000001N9+01721+99999100981ADDGF105991999999999999999999
0029228020999991921080120004+61700+030683FM-12+001699999V0209991C000019999999N0000001N9+01561+99999101141ADDGF106991999999999999999999
0046228020999991921080206004+61700+030683FM-12+001699999V0209991C000019999999N0000001N9+01561+99999101271ADDAJ100009199999999GF106991999999999999999999
0029228020999991921080213004+61700+030683FM-12+001699999V0201801N002119999999N0000001N9+01831+99999101321ADDGF107991999999999999999999
0029228020999991921080220004+61700+030683FM-12+001699999V0209991C000019999999N0000001N9+01561+99999101401ADDGF100991999999999999999999
0046228020999991921080306004+61700+030683FM-12+001699999V0203201N001019999999N0000001N9+01611+99999101661ADDAJ100009199999999GF100991999999999999999999
0029228020999991921080313004+61700+030683FM-12+001699999V0201801N004119999999N0000001N9+02061+99999101641ADDGF100991999999999999999999
0029228020999991921080320004+61700+030683FM-12+001699999V0209991C000019999999N0000001N9+01561+99999101521ADDGF101991999999999999999999
0046228020999991921080406004+61700+030683FM-12+001699999V0209991C000019999999N0000001N9+01671+99999101271ADDAJ100009199999999GF100991999999999999999999
0029228020999991921080413004+61700+030683FM-12+001699999V0203201N001019999999N0000001N9+02831+99999101121ADDGF103991999999999999999999
0029228020999991921080420004+61700+030683FM-12+001699999V0209991C000019999999N0000001N9+02221+99999100981ADDGF103991999999999999999999
0046228020999991921080506004+61700+030683FM-12+001699999V0201801N002119999999N0000001N9+02061+99999100591ADDAJ100009199999999GF102991999999999999999999
0029228020999991921080513004+61700+030683FM-12+001699999V0202701N004119999999N0000001N9+02061+99999100511ADDGF108991999999999999999999
0029228020999991921080520004+61700+030683FM-12+001699999V0209991C000019999999N0000001N9+01561+99999100471ADDGF106991999999999999999999
0046228020999991921080606004+61700+030683FM-12+001699999V0209991C000019999999N0000001N9+01561+99999100191ADDAJ100009199999999GF106991999999999999999999
0029228020999991921080613004+61700+030683FM-12+001699999V0201801N006219999999N0000001N9+02001+99999100151ADDGF106991999999999999999999
0029228020999991921080620004+61700+030683FM-12+001699999V0201401N004119999999N0000001N9+01501+99999099761ADDGF108991999999999999999999
0046228020999991921080706004+61700+030683FM-12+001699999V0201801N007219999999N0000001N9+01501+99999098871ADDAJ100009199999999GF108991999999999999999999
0029228020999991921080713004+61700+030683FM-12+001699999V0201801N002119999999N0000001N9+01501+99999098661ADDGF108991999999999999999999
0029228020999991921080720004+61700+030683FM-12+001699999V0201801N001019999999N0000001N9+01441+99999098631ADDGF106991999999999999999999
0046228020999991921080806004+61700+030683FM-12+001699999V0201801N001019999999N0000001N9+01331+99999098581ADDAJ100009199999999GF102991999999999999999999
0029228020999991921080813004+61700+030683FM-12+001699999V0201601N004119999999N0000001N9+01611+99999098551ADDGF105991999999999999999999
0029228020999991921080820004+61700+030683FM-12+001699999V0200901N001019999999N0000001N9+01331+99999098551ADDGF106991999999999999999999
0046228020999991921080906004+61700+030683FM-12+001699999V0201801N001019999999N0000001N9+01221+99999098711ADDAJ100009199999999GF106991999999999999999999
0029228020999991921080913004+61700+030683FM-12+001699999V0201801N001019999999N0000001N9+01391+99999098841ADDGF108991999999999999999999
0029228020999991921080920004+61700+030683FM-12+001699999V0201401N001019999999N0000001N9+01331+99999099061ADDGF106991999999999999999999
0046228020999991921081006004+61700+030683FM-12+001699999V0209991C000019999999N0000001N9+01111+99999099791ADDAJ100009199999999GF100991999999999999999999
0029228020999991921081013004+61700+030683FM-12+001699999V0201401N002119999999N0000001N9+02001+99999099991ADDGF106991999999999999999999
0029228020999991921081020004+61700+030683FM-12+001699999V0203201N001019999999N0000001N9+01441+99999100191ADDGF100991999999999999999999
0052228020999991921081106004+61700+030683FM-12+001699999V0203201N001019999999N0000001N9+01391+99999100281ADDAJ100009199999999GF108991999999999999999999MW1601
0029228020999991921081113004+61700+030683FM-12+001699999V0203601N001019999999N0000001N9+01501+99999100381ADDGF108991999999999999999999
0029228020999991921081120004+61700+030683FM-12+001699999V0209991C000019999999N0000001N9+01391+99999100601ADDGF108991999999999999999999
0046228020999991921081206004+61700+030683FM-12+001699999V0209991C000019999999N0000001N9+01441+99999100941ADDAJ100009199999999GF108991999999999999999999
0029228020999991921081213004+61700+030683FM-12+001699999V0203201N002119999999N0000001N9+01941+99999101151ADDGF107991999999999999999999
0029228020999991921081220004+61700+030683FM-12+001699999V0209991C000019999999N0000001N9+01391+99999101201ADDGF100991999999999999999999
0046228020999991921081306004+61700+030683FM-12+001699999V0200701N001019999999N0000001N9+01391+99999101401ADDAJ100009199999999GF108991999999999999999999
0029228020999991921081313004+61700+030683FM-12+001699999V0200901N004119999999N0000001N9+02111+99999101441ADDGF102991999999999999999999
0029228020999991921081320004+61700+030683FM-12+001699999V0200901N004119999999N0000001N9+01671+99999101321ADDGF100991999999999999999999
0046228020999991921081406004+61700+030683FM-12+001699999V0200501N007219999999N0000001N9+01781+99999101261ADDAJ100009199999999GF106991999999999999999999
0029228020999991921081413004+61700+030683FM-12+001699999V0201401N007219999999N0000001N9+02111+99999101241ADDGF101991999999999999999999
0029228020999991921081420004+61700+030683FM-12+001699999V0201401N001019999999N0000001N9+01891+99999101201ADDGF108991999999999999999999
0046228020999991921081506004+61700+030683FM-12+001699999V0201401N006219999999N0000001N9+01721+99999101221ADDAJ100009199999999GF100991999999999999999999
0029228020999991921081513004+61700+030683FM-12+001699999V0201401N007219999999N0000001N9+02331+99999101261ADDGF106991999999999999999999
0029228020999991921081520004+61700+030683FM-12+001699999V0201401N001019999999N0000001N9+01831+99999101381ADDGF108991999999999999999999
0046228020999991921081606004+61700+030683FM-12+001699999V0201801N002119999999N0000001N9+01941+99999101421ADDAJ100009199999999GF103991999999999999999999
0029228020999991921081613004+61700+030683FM-12+001699999V0201401N002119999999N0000001N9+02111+99999101751ADDGF104991999999999999999999
0029228020999991921081620004+61700+030683FM-12+001699999V0209991C000019999999N0000001N9+01671+99999101861ADDGF102991999999999999999999
0046228020999991921081706004+61700+030683FM-12+001699999V0200901N001019999999N0000001N9+01671+99999101781ADDAJ100009199999999GF106991999999999999999999
0029228020999991921081713004+61700+030683FM-12+001699999V0203201N002119999999N0000001N9+02221+99999101671ADDGF106991999999999999999999
0029228020999991921081720004+61700+030683FM-12+001699999V0209991C000019999999N0000001N9+01501+99999101721ADDGF100991999999999999999999
0046228020999991921081806004+61700+030683FM-12+001699999V0201401N002119999999N0000001N9+01331+99999101831ADDAJ100009199999999GF100991999999999999999999
0029228020999991921081813004+61700+030683FM-12+001699999V0202701N004119999999N0000001N9+01941+99999101821ADDGF106991999999999999999999
0029228020999991921081820004+61700+030683FM-12+001699999V0209991C000019999999N0000001N9+01441+99999101741ADDGF106991999999999999999999
0052228020999991921081906004+61700+030683FM-12+001699999V0209991C000019999999N0000001N9+01111+99999101751ADDAJ100009199999999GF108991999999999999999999MW1621
0029228020999991921081913004+61700+030683FM-12+001699999V0203601N001019999999N0000001N9+01611+99999101751ADDGF103991999999999999999999
0029228020999991921081920004+61700+030683FM-12+001699999V0209991C000019999999N0000001N9+01171+99999101801ADDGF100991999999999999999999
0046228020999991921082006004+61700+030683FM-12+001699999V0209991C000019999999N0000001N9+00831+99999101991ADDAJ100009199999999GF101991999999999999999999
0029228020999991921082013004+61700+030683FM-12+001699999V0201401N004119999999N0000001N9+01891+99999101941ADDGF103991999999999999999999
0029228020999991921082020004+61700+030683FM-12+001699999V0209991C000019999999N0000001N9+01221+99999101871ADDGF107991999999999999999999
0046228020999991921082106004+61700+030683FM-12+001699999V0209991C000019999999N0000001N9+01391+99999101911ADDAJ100009199999999GF102991999999999999999999
0029228020999991921082113004+61700+030683FM-12+001699999V0201401N004119999999N0000001N9+01941+99999101881ADDGF101991999999999999999999
0029228020999991921082120004+61700+030683FM-12+001699999V0209991C000019999999N0000001N9+01441+99999101781ADDGF100991999999999999999999
0052228020999991921082206004+61700+030683FM-12+001699999V0209991C000019999999N0000001N9+01561+99999101421ADDAJ100009199999999GF100991999999999999999999MW1621
0029228020999991921082213004+61700+030683FM-12+001699999V0203201N001019999999N0000001N9+02441+99999101361ADDGF102991999999999999999999
0029228020999991921082220004+61700+030683FM-12+001699999V0203201N002119999999N0000001N9+01561+99999101541ADDGF100991999999999999999999
0046228020999991921082306004+61700+030683FM-12+001699999V0203601N002119999999N0000001N9+01221+99999101841ADDAJ100009199999999GF102991999999999999999999
0029228020999991921082313004+61700+030683FM-12+001699999V0203601N006219999999N0000001N9+01561+99999102041ADDGF105991999999999999999999
0029228020999991921082320004+61700+030683FM-12+001699999V0209991C000019999999N0000001N9+01001+99999102231ADDGF100991999999999999999999
0046228020999991921082406004+61700+030683FM-12+001699999V0209991C000019999999N0000001N9+01171+99999102421ADDAJ100009199999999GF106991999999999999999999
0029228020999991921082413004+61700+030683FM-12+001699999V0201801N001019999999N0000001N9+01501+99999102321ADDGF102991999999999999999999
0029228020999991921082420004+61700+030683FM-12+001699999V0209991C000019999999N0000001N9+01001+99999102181ADDGF100991999999999999999999
0046228020999991921082506004+61700+030683FM-12+001699999V0201801N001019999999N0000001N9+01061+99999102141ADDAJ100009199999999GF106991999999999999999999
0029228020999991921082513004+61700+030683FM-12+001699999V0201401N004119999999N0000001N9+01441+99999102041ADDGF108991999999999999999999
0029228020999991921082520004+61700+030683FM-12+001699999V0209991C000019999999N0000001N9+01061+99999101831ADDGF100991999999999999999999
0046228020999991921082606004+61700+030683FM-12+001699999V0201801N002119999999N0000001N9+01391+99999101541ADDAJ100009199999999GF102991999999999999999999
0029228020999991921082613004+61700+030683FM-12+001699999V0201401N008219999999N0000001N9+01561+99999101461ADDGF103991999999999999999999
0029228020999991921082620004+61700+030683FM-12+001699999V0201401N004119999999N0000001N9+01441+99999101241ADDGF103991999999999999999999
0046228020999991921082706004+61700+030683FM-12+001699999V0200901N006219999999N0000001N9+01391+99999101001ADDAJ100009199999999GF103991999999999999999999
0029228020999991921082713004+61700+030683FM-12+001699999V0201401N008219999999N0000001N9+01611+99999101001ADDGF102991999999999999999999
0029228020999991921082720004+61700+030683FM-12+001699999V0201401N008719999999N0000001N9+01391+99999100951ADDGF100991999999999999999999
0046228020999991921082806004+61700+030683FM-12+001699999V0201801N004119999999N0000001N9+01441+99999100711ADDAJ100009199999999GF107991999999999999999999
