0029228020999991920010106004+61700+030683FM-12+001699999V0200701N002119999999N0000001N9-01221+99999100511ADDGF108991999999999999999999
0029228020999991920010113004+61700+030683FM-12+001699999V0200901N004119999999N0000001N9-01061+99999100281ADDGF108991999999999999999999
0029228020999991920010120004+61700+030683FM-12+001699999V0201801N004119999999N0000001N9-00781+99999099861ADDGF108991999999999999999999
0029228020999991920010206004+61700+030683FM-12+001699999V0200901N002119999999N0000001N9-00281+99999099301ADDGF108991999999999999999999
0029228020999991920010213004+61700+030683FM-12+001699999V0201801N002119999999N0000001N9+00001+99999099561ADDGF108991999999999999999999
0029228020999991920010220004+61700+030683FM-12+001699999V0201801N002119999999N0000001N9+00061+99999099681ADDGF108991999999999999999999
0029228020999991920010306004+61700+030683FM-12+001699999V0201801N006219999999N0000001N9+00061+99999099511ADDGF108991999999999999999999
0029228020999991920010313004+61700+030683FM-12+001699999V0201801N006219999999N0000001N9+00001+99999099701ADDGF108991999999999999999999
0029228020999991920010320004+61700+030683FM-12+001699999V0202301N002119999999N0000001N9-00061+99999099721ADDGF108991999999999999999999
0029228020999991920010406004+61700+030683FM-12+001699999V0202701N004119999999N0000001N9-00221+99999100071ADDGF108991999999999999999999
0029228020999991920010413004+61700+030683FM-12+001699999V0202701N002119999999N0000001N9-00171+99999100631ADDGF108991999999999999999999
0029228020999991920010420004+61700+030683FM-12+001699999V0203201N002119999999N0000001N9-00781+99999101071ADDGF100991999999999999999999
0029228020999991920010506004+61700+030683FM-12+001699999V0203201N002119999999N0000001N9-00721+99999101621ADDGF108991999999999999999999
0029228020999991920010513004+61700+030683FM-12+001699999V0203201N002119999999N0000001N9-01001+99999102151ADDGF100991999999999999999999
0029228020999991920010520004+61700+030683FM-12+001699999V0203201N002119999999N0000001N9-01671+99999102341ADDGF100991999999999999999999
0029228020999991920010606004+61700+030683FM-12+001699999V0203201N002119999999N0000001N9-01671+99999102521ADDGF100991999999999999999999
0029228020999991920010613004+61700+030683FM-12+001699999V0202301N002119999999N0000001N9-00611+99999101831ADDGF108991999999999999999999
0029228020999991920010620004+61700+030683FM-12+001699999V0202301N006219999999N0000001N9-00171+99999101121ADDGF108991999999999999999999
0029228020999991920010706004+61700+030683FM-12+001699999V0202301N004119999999N0000001N9-00221+99999100991ADDGF108991999999999999999999
0029228020999991920010713004+61700+030683FM-12+001699999V0202301N004119999999N0000001N9-00111+99999100711ADDGF108991999999999999999999
0035228020999991920010720004+61700+030683FM-12+001699999V0202301N006219999999N0000001N9-00561+99999099861ADDGF108991999999999999999999MW1721
0035228020999991920010806004+61700+030683FM-12+001699999V0201801N007219999999N0000001N9-00441+99999098751ADDGF108991999999999999999999MW1721
0035228020999991920010813004+61700+030683FM-12+001699999V0201801N008219999999N0000001N9-00281+99999097781ADDGF108991999999999999999999MW1721
0035228020999991920010820004+61700+030683FM-12+001699999V0201801N011819999999N0000001N9+00001+99999097111ADDGF108991999999999999999999MW1721
0029228020999991920010906004+61700+030683FM-12+001699999V0201801N006219999999N0000001N9+00111+99999096641ADDGF108991999999999999999999
0029228020999991920010913004+61700+030683FM-12+001699999V0201801N011819999999N0000001N9+00061+99999096321ADDGF108991999999999999999999
0035228020999991920010920004+61700+030683FM-12+001699999V0201801N008219999999N0000001N9-00061+99999096641ADDGF108991999999999999999999MW1721
0029228020999991920011006004+61700+030683FM-12+001699999V0202701N004119999999N0000001N9-00171+99999097821ADDGF106991999999999999999999
0029228020999991920011013004+61700+030683FM-12+001699999V0202301N006219999999N0000001N9-00391+99999098381ADDGF106991999999999999999999
0029228020999991920011020004+61700+030683FM-12+001699999V0202701N002119999999N0000001N9-00501+99999098871ADDGF100991999999999999999999
0035228020999991920011106004+61700+030683FM-12+001699999V0201801N010819999999N0000001N9-00061+99999098421ADDGF108991999999999999999999MW1721
0029228020999991920011113004+61700+030683FM-12+001699999V0201801N005119999999N0000001N9-00111+99999098561ADDGF108991999999999999999999
0029228020999991920011120004+61700+030683FM-12+001699999V0201801N002119999999N0000001N9-00281+99999098751ADDGF108991999999999999999999
0029228020999991920011206004+61700+030683FM-12+001699999V0202901N002119999999N0000001N9-00941+99999098761ADDGF106991999999999999999999
0029228020999991920011213004+61700+030683FM-12+001699999V0203201N002119999999N0000001N9-00561+99999098871ADDGF108991999999999999999999
0029228020999991920011220004+61700+030683FM-12+001699999V0200501N005119999999N0000001N9-00671+99999099031ADDGF108991999999999999999999
0029228020999991920011306004+61700+030683FM-12+001699999V0200501N004119999999N0000001N9-00721+99999098871ADDGF100991999999999999999999
0035228020999991920011313004+61700+030683FM-12+001699999V0203601N004119999999N0000001N9-00781+99999098781ADDGF108991999999999999999999MW1701
0035228020999991920011320004+61700+030683FM-12+001699999V0203601N004119999999N0000001N9-00781+99999098561ADDGF108991999999999999999999MW1701
0029228020999991920011406004+61700+030683FM-12+001699999V0203601N004119999999N0000001N9-00831+99999098461ADDGF100991999999999999999999
0029228020999991920011413004+61700+030683FM-12+001699999V0203201N004119999999N0000001N9-00891+99999098641ADDGF106991999999999999999999
0029228020999991920011420004+61700+030683FM-12+001699999V0203201N004119999999N0000001N9-01061+99999099031ADDGF100991999999999999999999
0029228020999991920011506004+61700+030683FM-12+001699999V0203201N004119999999N0000001N9-01171+99999099741ADDGF100991999999999999999999
0035228020999991920011513004+61700+030683FM-12+001699999V0203201N006219999999N0000001N9-01001+99999100201ADDGF108991999999999999999999MW1701
0029228020999991920011520004+61700+030683FM-12+001699999V0203201N008719999999N0000001N9-01001+99999100621ADDGF100991999999999999999999
0029228020999991920011606004+61700+030683FM-12+001699999V0203201N006219999999N0000001N9-01221+99999101341ADDGF100991999999999999999999
0029228020999991920011613004+61700+030683FM-12+001699999V0203201N001019999999N0000001N9-01171+99999101701ADDGF100991999999999999999999
0029228020999991920011620004+61700+030683FM-12+001699999V0203201N001019999999N0000001N9-01941+99999101381ADDGF104991999999999999999999
0029228020999991920011706004+61700+030683FM-12+001699999V0200901N008219999999N0000001N9-00391+99999100381ADDGF104991999999999999999999
0035228020999991920011713004+61700+030683FM-12+001699999V0200701N008219999999N0000001N9-00831+99999100231ADDGF108991999999999999999999MW1721
0029228020999991920011720004+61700+030683FM-12+001699999V0200901N004119999999N0000001N9-00941+99999100341ADDGF108991999999999999999999
0029228020999991920011806004+61700+030683FM-12+001699999V0200901N006219999999N0000001N9-01331+99999099661ADDGF108991999999999999999999
0035228020999991920011813004+61700+030683FM-12+001699999V0200901N004119999999N0000001N9-01331+99999099621ADDGF108991999999999999999999MW1721
0029228020999991920011820004+61700+030683FM-12+001699999V0200901N001019999999N0000001N9-01061+99999100031ADDGF108991999999999999999999
0035228020999991920011906004+61700+030683FM-12+001699999V0200901N002119999999N0000001N9-01061+99999999999ADDGF108991999999999999999999MW1721
0029228020999991920011913004+61700+030683FM-12+001699999V0200901N001019999999N0000001N9-00671+99999099661ADDGF108991999999999999999999
0035228020999991920011920004+61700+030683FM-12+001699999V0201801N002119999999N0000001N9-00501+99999098821ADDGF108991999999999999999999MW1721
0035228020999991920012006004+61700+030683FM-12+001699999V0200901N002119999999N0000001N9-00781+99999098161ADDGF108991999999999999999999MW1701
0029228020999991920012013004+61700+030683FM-12+001699999V0200201N001019999999N0000001N9-01111+99999098751ADDGF107991999999999999999999
0035228020999991920012020004+61700+030683FM-12+001699999V0203601N002119999999N0000001N9-01331+99999099321ADDGF108991999999999999999999MW1701
0029228020999991920012106004+61700+030683FM-12+001699999V0203601N002119999999N0000001N9-02221+99999099671ADDGF100991999999999999999999
0029228020999991920012113004+61700+030683FM-12+001699999V0203601N002119999999N0000001N9-02061+99999999999ADDGF106991999999999999999999
0029228020999991920012120004+61700+030683FM-12+001699999V0203601N002119999999N0000001N9-01891+99999100461ADDGF108991999999999999999999
0029228020999991920012206004+61700+030683FM-12+001699999V0203601N002119999999N0000001N9-01941+99999101201ADDGF100991999999999999999999
0029228020999991920012213004+61700+030683FM-12+001699999V0203601N002119999999N0000001N9-01671+99999101841ADDGF108991999999999999999999
0029228020999991920012220004+61700+030683FM-12+001699999V0203601N001019999999N0000001N9-02221+99999102471ADDGF100991999999999999999999
0029228020999991920012306004+61700+030683FM-12+001699999V0203601N002119999999N0000001N9-02111+99999102921ADDGF100991999999999999999999
0029228020999991920012313004+61700+030683FM-12+001699999V0203601N002119999999N0000001N9-01831+99999103281ADDGF108991999999999999999999
0029228020999991920012320004+61700+030683FM-12+001699999V0203601N001019999999N0000001N9-01721+99999103751ADDGF108991999999999999999999
0029228020999991920012406004+61700+030683FM-12+001699999V0203601N002119999999N0000001N9-01891+99999103901ADDGF100991999999999999999999
0029228020999991920012413004+61700+030683FM-12+001699999V0200901N002119999999N0000001N9-02281+99999104141ADDGF100991999999999999999999
0029228020999991920012420004+61700+030683FM-12+001699999V0209991C000019999999N0000001N9-02671+99999104111ADDGF108991999999999999999999
0029228020999991920012506004+61700+030683FM-12+001699999V0200901N002119999999N0000001N9-02331+99999103921ADDGF100991999999999999999999
0029228020999991920012513004+61700+030683FM-12+001699999V0201401N002119999999N0000001N9-02001+99999103721ADDGF100991999999999999999999
0029228020999991920012520004+61700+030683FM-12+001699999V0201401N002119999999N0000001N9-02001+99999103581ADDGF100991999999999999999999
0029228020999991920012606004+61700+030683FM-12+001699999V0201401N002119999999N0000001N9-02391+99999103641ADDGF100991999999999999999999
0029228020999991920012613004+61700+030683FM-12+001699999V0209991C000019999999N0000001N9-02001+99999103641ADDGF100991999999999999999999
0029228020999991920012620004+61700+030683FM-12+001699999V0209991C000019999999N0000001N9-02721+99999103641ADDGF100991999999999999999999
0029228020999991920012706004+61700+030683FM-12+001699999V0209991C000019999999N0000001N9-02171+99999103751ADDGF100991999999999999999999
0029228020999991920012713004+61700+030683FM-12+001699999V0200901N001019999999N0000001N9-01891+99999103981ADDGF100991999999999999999999
0029228020999991920012720004+61700+030683FM-12+001699999V0201101N002119999999N0000001N9-01671+99999104151ADDGF108991999999999999999999
0029228020999991920012806004+61700+030683FM-12+001699999V0200901N002119999999N0000001N9-01441+99999104161ADDGF108991999999999999999999
0029228020999991920012813004+61700+030683FM-12+001699999V0201401N002119999999N0000001N9-01501+99999104191ADDGF108991999999999999999999
0029228020999991920012820004+61700+030683FM-12+001699999V0203601N001019999999N0000001N9-02111+99999104361ADDGF100991999999999999999999
0029228020999991920012906004+61700+030683FM-12+001699999V0200901N004119999999N0000001N9-02441+99999104641ADDGF100991999999999999999999
0029228020999991920012913004+61700+030683FM-12+001699999V0201401N001019999999N0000001N9-02111+99999095022ADDGF100991999999999999999999
0029228020999991920012920004+61700+030683FM-12+001699999V0201401N002119999999N0000001N9-02281+99999095141ADDGF100991999999999999999999
0029228020999991920013006004+61700+030683FM-12+001699999V0201401N008219999999N0000001N9-01941+99999095151ADDGF108991999999999999999999
0029228020999991920013013004+61700+030683FM-12+001699999V0200501N004119999999N0000001N9-01721+99999095181ADDGF100991999999999999999999
0029228020999991920013020004+61700+030683FM-12+001699999V0201401N008219999999N0000001N9-01721+99999104992ADDGF108991999999999999999999
0029228020999991920013106004+61700+030683FM-12+001699999V0201401N008219999999N0000001N9-01561+99999104671ADDGF108991999999999999999999
0029228020999991920013113004+61700+030683FM-12+001699999V0201401N008719999999N0000001N9-01501+99999104501ADDGF108991999999999999999999
0029228020999991920013120004+61700+030683FM-12+001699999V0201401N008719999999N0000001N9-01331+99999104121ADDGF100991999999999999999999
0029228020999991920020106004+61700+030683FM-12+001699999V0201401N011819999999N0000001N9-01501+99999103621ADDGF108991999999999999999999
0035228020999991920020113004+61700+030683FM-12+001699999V0201401N008719999999N0000001N9-01441+99999103341ADDGF108991999999999999999999MW1721
0029228020999991920020120004+61700+030683FM-12+001699999V0201401N023119999999N0000001N9-01391+99999103111ADDGF108991999999999999999999
0035228020999991920020206004+61700+030683FM-12+001699999V0201401N009819999999N0000001N9-01281+99999102681ADDGF108991999999999999999999MW1721
0029228020999991920020213004+61700+030683FM-12+001699999V0201401N008219999999N0000001N9-01171+99999102361ADDGF108991999999999999999999
0035228020999991920020220004+61700+030683FM-12+001699999V0201401N008719999999N0000001N9-01111+99999101471ADDGF108991999999999999999999MW1721
0029228020999991920020306004+61700+030683FM-12+001699999V0202301N002119999999N0000001N9-00061+99999100361ADDGF108991999999999999999999
0029228020999991920020313004+61700+030683FM-12+001699999V0202701N004119999999N0000001N9+00281+99999100151ADDGF103991999999999999999999
0029228020999991920020320004+61700+030683FM-12+001699999V0202701N004119999999N0000001N9+00221+99999100161ADDGF106991999999999999999999
0029228020999991920020406004+61700+030683FM-12+001699999V0202701N002119999999N0000001N9+00061+99999099781ADDGF108991999999999999999999
0029228020999991920020413004+61700+030683FM-12+001699999V0202701N004119999999N0000001N9+00281+99999098791ADDGF108991999999999999999999
0029228020999991920020420004+61700+030683FM-12+001699999V0203201N004119999999N0000001N9+00001+99999099461ADDGF108991999999999999999999
0029228020999991920020506004+61700+030683FM-12+001699999V0203201N002119999999N0000001N9-00501+99999100221ADDGF102991999999999999999999
0029228020999991920020513004+61700+030683FM-12+001699999V0203201N004119999999N0000001N9-00391+99999100711ADDGF105991999999999999999999
0029228020999991920020520004+61700+030683FM-12+001699999V0203201N006219999999N0000001N9-00671+99999101621ADDGF100991999999999999999999
0029228020999991920020606004+61700+030683FM-12+001699999V0203201N002119999999N0000001N9-01221+99999101871ADDGF106991999999999999999999
0029228020999991920020613004+61700+030683FM-12+001699999V0203201N004119999999N0000001N9-00441+99999101431ADDGF108991999999999999999999
0029228020999991920020620004+61700+030683FM-12+001699999V0203601N004119999999N0000001N9+00221+99999101661ADDGF108991999999999999999999
0029228020999991920020706004+61700+030683FM-12+001699999V0200701N002119999999N0000001N9-00171+99999102701ADDGF108991999999999999999999
0029228020999991920020713004+61700+030683FM-12+001699999V0200201N001019999999N0000001N9-00281+99999103231ADDGF100991999999999999999999
0029228020999991920020720004+61700+030683FM-12+001699999V0200201N001019999999N0000001N9-01391+99999103681ADDGF108991999999999999999999
0029228020999991920020806004+61700+030683FM-12+001699999V0200501N002119999999N0000001N9-01721+99999103511ADDGF100991999999999999999999
0029228020999991920020813004+61700+030683FM-12+001699999V0200501N004119999999N0000001N9-00611+99999103021ADDGF108991999999999999999999
0029228020999991920020820004+61700+030683FM-12+001699999V0201801N002119999999N0000001N9-00281+99999102401ADDGF108991999999999999999999
0029228020999991920020906004+61700+030683FM-12+001699999V0201801N006219999999N0000001N9-00441+99999101621ADDGF108991999999999999999999
0029228020999991920020913004+61700+030683FM-12+001699999V0201801N008219999999N0000001N9-00391+99999100991ADDGF108991999999999999999999
0029228020999991920020920004+61700+030683FM-12+001699999V0201801N002119999999N0000001N9-00111+99999100421ADDGF100991999999999999999999
0029228020999991920021006004+61700+030683FM-12+001699999V0201801N001019999999N0000001N9-00391+99999100561ADDGF102991999999999999999999
0035228020999991920021013004+61700+030683FM-12+001699999V0201401N002119999999N0000001N9-00111+99999100601ADDGF108991999999999999999999MW1701
0029228020999991920021020004+61700+030683FM-12+001699999V0201801N006219999999N0000001N9-00061+99999100021ADDGF108991999999999999999999
0029228020999991920021106004+61700+030683FM-12+001699999V0201401N018019999999N0000001N9-00441+99999098591ADDGF108991999999999999999999
0029228020999991920021113004+61700+030683FM-12+001699999V0201801N023119999999N0000001N9-00391+99999098301ADDGF108991999999999999999999
0029228020999991920021120004+61700+030683FM-12+001699999V0201801N013919999999N0000001N9-00391+99999098581ADDGF108991999999999999999999
0029228020999991920021206004+61700+030683FM-12+001699999V0201401N009819999999N0000001N9-00391+99999099001ADDGF108991999999999999999999
0035228020999991920021213004+61700+030683FM-12+001699999V0201801N006219999999N0000001N9-00441+99999099721ADDGF108991999999999999999999MW1701
0035228020999991920021220004+61700+030683FM-12+001699999V0201801N004119999999N0000001N9-00441+99999100321ADDGF108991999999999999999999MW1701
0029228020999991920021306004+61700+030683FM-12+001699999V0201401N004119999999N0000001N9-00281+99999101151ADDGF108991999999999999999999
0029228020999991920021313004+61700+030683FM-12+001699999V0201801N001019999999N0000001N9-00171+99999101641ADDGF108991999999999999999999
0029228020999991920021320004+61700+030683FM-12+001699999V0201801N001019999999N0000001N9-00171+99999102041ADDGF108991999999999999999999
0029228020999991920021406004+61700+030683FM-12+001699999V0201401N008219999999N0000001N9-00391+99999101941ADDGF108991999999999999999999
0035228020999991920021413004+61700+030683FM-12+001699999V0201801N008219999999N0000001N9-00441+99999101721ADDGF108991999999999999999999MW1701
0029228020999991920021420004+61700+030683FM-12+001699999V0201401N011819999999N0000001N9-00671+99999101541ADDGF108991999999999999999999
0029228020999991920021506004+61700+030683FM-12+001699999V0201801N011819999999N0000001N9-00831+99999101401ADDGF108991999999999999999999
0035228020999991920021513004+61700+030683FM-12+001699999V0201401N013919999999N0000001N9-00781+99999101721ADDGF108991999999999999999999MW1721
0035228020999991920021520004+61700+030683FM-12+001699999V0201401N008219999999N0000001N9-00781+99999102021ADDGF108991999999999999999999MW1721
0029228020999991920021606004+61700+030683FM-12+001699999V0201801N002119999999N0000001N9-00781+99999102471ADDGF108991999999999999999999
0029228020999991920021613004+61700+030683FM-12+001699999V0201401N002119999999N0000001N9-00561+99999102881ADDGF108991999999999999999999
0029228020999991920021620004+61700+030683FM-12+001699999V0201401N002119999999N0000001N9-00781+99999102901ADDGF108991999999999999999999
0035228020999991920021706004+61700+030683FM-12+001699999V0201401N002119999999N0000001N9-00611+99999102481ADDGF108991999999999999999999MW1721
0029228020999991920021713004+61700+030683FM-12+001699999V0201801N001019999999N0000001N9-00331+99999102421ADDGF108991999999999999999999
0029228020999991920021720004+61700+030683FM-12+001699999V0202501N002119999999N0000001N9-00281+99999102271ADDGF108991999999999999999999
0029228020999991920021806004+61700+030683FM-12+001699999V0202301N004119999999N0000001N9-00061+99999101791ADDGF108991999999999999999999
0029228020999991920021813004+61700+030683FM-12+001699999V0201801N002119999999N0000001N9+00061+99999101541ADDGF108991999999999999999999
0035228020999991920021820004+61700+030683FM-12+001699999V0202701N002119999999N0000001N9+00111+99999101301ADDGF108991999999999999999999MW1601
0029228020999991920021906004+61700+030683FM-12+001699999V0202701N006219999999N0000001N9+00061+99999100941ADDGF108991999999999999999999
0029228020999991920021913004+61700+030683FM-12+001699999V0202301N002119999999N0000001N9-00061+99999100741ADDGF108991999999999999999999
0029228020999991920021920004+61700+030683FM-12+001699999V0202701N002119999999N0000001N9+00001+99999100631ADDGF108991999999999999999999
0029228020999991920022006004+61700+030683FM-12+001699999V0203601N004119999999N0000001N9-00441+99999101241ADDGF108991999999999999999999
0029228020999991920022013004+61700+030683FM-12+001699999V0203601N002119999999N0000001N9-00501+99999102031ADDGF101991999999999999999999
0029228020999991920022020004+61700+030683FM-12+001699999V0203601N004119999999N0000001N9-01001+99999102641ADDGF100991999999999999999999
0029228020999991920022106004+61700+030683FM-12+001699999V0203601N002119999999N0000001N9-01671+99999103141ADDGF100991999999999999999999
0029228020999991920022113004+61700+030683FM-12+001699999V0203601N002119999999N0000001N9-01111+99999103161ADDGF100991999999999999999999
0029228020999991920022120004+61700+030683FM-12+001699999V0203601N002119999999N0000001N9-01721+99999102791ADDGF100991999999999999999999
0029228020999991920022206004+61700+030683FM-12+001699999V0203601N004119999999N0000001N9-01281+99999101911ADDGF108991999999999999999999
0029228020999991920022213004+61700+030683FM-12+001699999V0203601N002119999999N0000001N9-00831+99999101501ADDGF108991999999999999999999
0029228020999991920022220004+61700+030683FM-12+001699999V0203601N002119999999N0000001N9-00611+99999100801ADDGF108991999999999999999999
0029228020999991920022306004+61700+030683FM-12+001699999V0202501N006219999999N0000001N9+00061+99999099031ADDGF108991999999999999999999
0029228020999991920022313004+61700+030683FM-12+001699999V0202701N008219999999N0000001N9+00331+99999098831ADDGF107991999999999999999999
0029228020999991920022320004+61700+030683FM-12+001699999V0202701N009819999999N0000001N9+00111+99999099101ADDGF106991999999999999999999
0029228020999991920022406004+61700+030683FM-12+001699999V0203201N009819999999N0000001N9-00111+99999099821ADDGF102991999999999999999999
0029228020999991920022413004+61700+030683FM-12+001699999V0203201N013919999999N0000001N9+00281+99999100471ADDGF100991999999999999999999
0029228020999991920022420004+61700+030683FM-12+001699999V0203201N006219999999N0000001N9-00111+99999101041ADDGF103991999999999999999999
0029228020999991920022506004+61700+030683FM-12+001699999V0202901N002119999999N0000001N9-00831+99999101581ADDGF100991999999999999999999
0029228020999991920022513004+61700+030683FM-12+001699999V0203201N002119999999N0000001N9-00331+99999101481ADDGF108991999999999999999999
0029228020999991920022520004+61700+030683FM-12+001699999V0203201N002119999999N0000001N9-00831+99999101031ADDGF108991999999999999999999
0029228020999991920022606004+61700+030683FM-12+001699999V0202701N002119999999N0000001N9-00221+99999100181ADDGF108991999999999999999999
0029228020999991920022613004+61700+030683FM-12+001699999V0203201N002119999999N0000001N9+00221+99999100341ADDGF100991999999999999999999
0029228020999991920022620004+61700+030683FM-12+001699999V0203201N002119999999N0000001N9-00891+99999100471ADDGF100991999999999999999999
0029228020999991920022706004+61700+030683FM-12+001699999V0203201N004119999999N0000001N9-01001+99999099781ADDGF108991999999999999999999
0035228020999991920022713004+61700+030683FM-12+001699999V0200501N023119999999N0000001N9-00281+99999098751ADDGF108991999999999999999999MW1701
0029228020999991920022720004+61700+030683FM-12+001699999V0200501N004119999999N0000001N9-00061+99999098501ADDGF108991999999999999999999
0029228020999991920022806004+61700+030683FM-12+001699999V0200501N002119999999N0000001N9-00221+99999099151ADDGF108991999999999999999999
0029228020999991920022813004+61700+030683FM-12+001699999V0203601N002119999999N0000001N9-00221+99999100191ADDGF108991999999999999999999
0029228020999991920022820004+61700+030683FM-12+001699999V0203601N001019999999N0000001N9-00441+99999100921ADDGF108991999999999999999999
0029228020999991920022906004+61700+030683FM-12+001699999V0203601N001019999999N0000001N9-00671+99999101231ADDGF108991999999999999999999
0029228020999991920022913004+61700+030683FM-12+001699999V0201801N004119999999N0000001N9-00561+99999100281ADDGF108991999999999999999999
0035228020999991920022920004+61700+030683FM-12+001699999V0201801N011819999999N0000001N9-00391+99999099001ADDGF108991999999999999999999MW1721
0029228020999991920030106004+61700+030683FM-12+001699999V0202701N004119999999N0000001N9-00061+99999099321ADDGF108991999999999999999999
0029228020999991920030113004+61700+030683FM-12+001699999V0202301N004119999999N0000001N9+00331+99999099511ADDGF108991999999999999999999
0029228020999991920030120004+61700+030683FM-12+001699999V0202301N004119999999N0000001N9+00221+99999099351ADDGF105991999999999999999999
0029228020999991920030206004+61700+030683FM-12+001699999V0203201N004119999999N0000001N9-00061+99999100361ADDGF102991999999999999999999
0029228020999991920030213004+61700+030683FM-12+001699999V0202701N004119999999N0000001N9+00331+99999100861ADDGF108991999999999999999999
0029228020999991920030220004+61700+030683FM-12+001699999V0202701N002119999999N0000001N9+00001+99999100101ADDGF108991999999999999999999
0035228020999991920030306004+61700+030683FM-12+001699999V0202701N006219999999N0000001N9+00001+99999098861ADDGF108991999999999999999999MW1721
0029228020999991920030313004+61700+030683FM-12+001699999V0201801N008219999999N0000001N9+00171+99999099511ADDGF100991999999999999999999
0029228020999991920030320004+61700+030683FM-12+001699999V0202301N002119999999N0000001N9-00501+99999099381ADDGF100991999999999999999999
0029228020999991920030406004+61700+030683FM-12+001699999V0202701N002119999999N0000001N9-00111+99999097342ADDGF108991999999999999999999
0029228020999991920030413004+61700+030683FM-12+001699999V0202701N004119999999N0000001N9+00171+99999097361ADDGF105991999999999999999999
0029228020999991920030420004+61700+030683FM-12+001699999V0202701N006219999999N0000001N9-00281+99999097801ADDGF100991999999999999999999
0029228020999991920030506004+61700+030683FM-12+001699999V0203201N006219999999N0000001N9-00221+99999098431ADDGF100991999999999999999999
0029228020999991920030513004+61700+030683FM-12+001699999V0202701N004119999999N0000001N9+00111+99999099441ADDGF103991999999999999999999
0035228020999991920030520004+61700+030683FM-12+001699999V0203201N002119999999N0000001N9-00671+99999099831ADDGF104991999999999999999999MW1001
0029228020999991920030606004+61700+030683FM-12+001699999V0203201N001019999999N0000001N9-00171+99999099421ADDGF108991999999999999999999
0029228020999991920030613004+61700+030683FM-12+001699999V0201801N002119999999N0000001N9+00281+99999099311ADDGF108991999999999999999999
0029228020999991920030620004+61700+030683FM-12+001699999V0201801N002119999999N0000001N9+00171+99999099511ADDGF108991999999999999999999
0029228020999991920030706004+61700+030683FM-12+001699999V0201801N002119999999N0000001N9+00111+99999099721ADDGF108991999999999999999999
0029228020999991920030713004+61700+030683FM-12+001699999V0201401N002119999999N0000001N9+00221+99999099861ADDGF108991999999999999999999
0029228020999991920030720004+61700+030683FM-12+001699999V0201401N002119999999N0000001N9+00111+99999099641ADDGF108991999999999999999999
0029228020999991920030806004+61700+030683FM-12+001699999V0201801N004119999999N0000001N9+00391+99999098631ADDGF108991999999999999999999
0029228020999991920030813004+61700+030683FM-12+001699999V0202301N004119999999N0000001N9+00331+99999098581ADDGF108991999999999999999999
0029228020999991920030820004+61700+030683FM-12+001699999V0202301N002119999999N0000001N9+00111+99999099001ADDGF108991999999999999999999
0029228020999991920030906004+61700+030683FM-12+001699999V0202701N002119999999N0000001N9-00331+99999099921ADDGF100991999999999999999999
0029228020999991920030913004+61700+030683FM-12+001699999V0201801N002119999999N0000001N9+00221+99999100281ADDGF100991999999999999999999
0029228020999991920030920004+61700+030683FM-12+001699999V0203601N006219999999N0000001N9-00441+99999100881ADDGF100991999999999999999999
0029228020999991920031006004+61700+030683FM-12+001699999V0203201N002119999999N0000001N9-00941+99999101401ADDGF100991999999999999999999
0029228020999991920031013004+61700+030683FM-12+001699999V0203201N006219999999N0000001N9+00111+99999101471ADDGF108991999999999999999999
0029228020999991920031020004+61700+030683FM-12+001699999V0202301N004119999999N0000001N9+00061+99999101561ADDGF108991999999999999999999
0029228020999991920031106004+61700+030683FM-12+001699999V0203201N002119999999N0000001N9-00441+99999102221ADDGF102991999999999999999999
0029228020999991920031113004+61700+030683FM-12+001699999V0209991C000019999999N0000001N9+00721+99999102601ADDGF100991999999999999999999
0029228020999991920031120004+61700+030683FM-12+001699999V0209991C000019999999N0000001N9-00331+99999102791ADDGF100991999999999999999999
0029228020999991920031206004+61700+030683FM-12+001699999V0209991C000019999999N0000001N9-01061+99999103021ADDGF100991999999999999999999
0029228020999991920031213004+61700+030683FM-12+001699999V0203201N002119999999N0000001N9+00501+99999102951ADDGF100991999999999999999999
0029228020999991920031220004+61700+030683FM-12+001699999V0209991C000019999999N0000001N9-00441+99999102791ADDGF100991999999999999999999
0029228020999991920031306004+61700+030683FM-12+001699999V0203201N002119999999N0000001N9-00831+99999102701ADDGF108991999999999999999999
0029228020999991920031313004+61700+030683FM-12+001699999V0200701N002119999999N0000001N9-00501+99999102831ADDGF108991999999999999999999
0029228020999991920031320004+61700+030683FM-12+001699999V0200701N002119999999N0000001N9-00721+99999102711ADDGF108991999999999999999999
0029228020999991920031406004+61700+030683FM-12+001699999V0209991C000019999999N0000001N9-01001+99999102511ADDGF100991999999999999999999
0029228020999991920031413004+61700+030683FM-12+001699999V0201401N004119999999N0000001N9-00221+99999102541ADDGF108991999999999999999999
0029228020999991920031420004+61700+030683FM-12+001699999V0201801N001019999999N0000001N9-00281+99999102521ADDGF108991999999999999999999
0029228020999991920031506004+61700+030683FM-12+001699999V0201801N002119999999N0000001N9-00831+99999102701ADDGF100991999999999999999999
0029228020999991920031513004+61700+030683FM-12+001699999V0201801N002119999999N0000001N9-00281+99999102801ADDGF100991999999999999999999
0029228020999991920031520004+61700+030683FM-12+001699999V0201801N002119999999N0000001N9-00721+99999102721ADDGF100991999999999999999999
0029228020999991920031606004+61700+030683FM-12+001699999V0200901N002119999999N0000001N9-00671+99999102581ADDGF104991999999999999999999
0029228020999991920031613004+61700+030683FM-12+001699999V0201401N004119999999N0000001N9-00061+99999102431ADDGF100991999999999999999999
0029228020999991920031620004+61700+030683FM-12+001699999V0209991C000019999999N0000001N9-00501+99999102191ADDGF100991999999999999999999
0029228020999991920031706004+61700+030683FM-12+001699999V0201401N002119999999N0000001N9-00561+99999101791ADDGF100991999999999999999999
0029228020999991920031713004+61700+030683FM-12+001699999V0201401N008219999999N0000001N9-00171+99999101361ADDGF108991999999999999999999
0029228020999991920031720004+61700+030683FM-12+001699999V0201401N008219999999N0000001N9+00061+99999100871ADDGF108991999999999999999999
0035228020999991920031806004+61700+030683FM-12+001699999V0201801N004119999999N0000001N9+00001+99999100191ADDGF108991999999999999999999MW1721
0029228020999991920031813004+61700+030683FM-12+001699999V0201801N004119999999N0000001N9+00111+99999099631ADDGF108991999999999999999999
0029228020999991920031820004+61700+030683FM-12+001699999V0201801N023119999999N0000001N9+00061+99999098561ADDGF108991999999999999999999
0029228020999991920031906004+61700+030683FM-12+001699999V0201801N002119999999N0000001N9+00221+99999098241ADDGF108991999999999999999999
0029228020999991920031913004+61700+030683FM-12+001699999V0201801N002119999999N0000001N9+00221+99999098681ADDGF108991999999999999999999
0029228020999991920031920004+61700+030683FM-12+001699999V0201801N002119999999N0000001N9+00001+99999099311ADDGF100991999999999999999999
0029228020999991920032006004+61700+030683FM-12+001699999V0209991C000019999999N0000001N9-00171+99999099991ADDGF100991999999999999999999
0029228020999991920032013004+61700+030683FM-12+001699999V0201801N002119999999N0000001N9+00611+99999100501ADDGF100991999999999999999999
0029228020999991920032020004+61700+030683FM-12+001699999V0209991C000019999999N0000001N9-00221+99999100701ADDGF100991999999999999999999
0035228020999991920032106004+61700+030683FM-12+001699999V0201801N008219999999N0000001N9-00111+99999099841ADDGF108991999999999999999999MW1721
0029228020999991920032113004+61700+030683FM-12+001699999V0201801N002119999999N0000001N9+00221+99999099961ADDGF108991999999999999999999
0029228020999991920032120004+61700+030683FM-12+001699999V0203601N002119999999N0000001N9+00111+99999101061ADDGF100991999999999999999999
0029228020999991920032206004+61700+030683FM-12+001699999V0209991C000019999999N0000001N9+00001+99999101721ADDGF108991999999999999999999
0029228020999991920032213004+61700+030683FM-12+001699999V0201401N002119999999N0000001N9+00391+99999101751ADDGF101991999999999999999999
0029228020999991920032220004+61700+030683FM-12+001699999V0201801N002119999999N0000001N9-00061+99999101671ADDGF100991999999999999999999
0029228020999991920032306004+61700+030683FM-12+001699999V0202701N001019999999N0000001N9+00061+99999101481ADDGF108991999999999999999999
0029228020999991920032313004+61700+030683FM-12+001699999V0203201N002119999999N0000001N9+00721+99999101721ADDGF107991999999999999999999
0035228020999991920032320004+61700+030683FM-12+001699999V0203201N001019999999N0000001N9-00111+99999102111ADDGF100991999999999999999999MW1001
0029228020999991920032406004+61700+030683FM-12+001699999V0209991C000019999999N0000001N9-00441+99999102461ADDGF100991999999999999999999
0029228020999991920032413004+61700+030683FM-12+001699999V0202701N001019999999N0000001N9+00721+99999102471ADDGF107991999999999999999999
0029228020999991920032420004+61700+030683FM-12+001699999V0209991C000019999999N0000001N9+00111+99999102481ADDGF101991999999999999999999
0029228020999991920032506004+61700+030683FM-12+001699999V0202701N002119999999N0000001N9-00671+99999102301ADDGF108991999999999999999999
0029228020999991920032513004+61700+030683FM-12+001699999V0202001N002119999999N0000001N9+00611+99999102361ADDGF101991999999999999999999
0029228020999991920032520004+61700+030683FM-12+001699999V0201801N001019999999N0000001N9+00001+99999102401ADDGF100991999999999999999999
0029228020999991920032606004+61700+030683FM-12+001699999V0201401N002119999999N0000001N9-00171+99999102281ADDGF100991999999999999999999
0029228020999991920032613004+61700+030683FM-12+001699999V0201401N002119999999N0000001N9+01001+99999102321ADDGF100991999999999999999999
0029228020999991920032620004+61700+030683FM-12+001699999V0209991C000019999999N0000001N9+00281+99999102301ADDGF100991999999999999999999
0029228020999991920032706004+61700+030683FM-12+001699999V0209991C000019999999N0000001N9-00281+99999102361ADDGF103991999999999999999999
0029228020999991920032713004+61700+030683FM-12+001699999V0201801N001019999999N0000001N9+00611+99999102311ADDGF103991999999999999999999
0029228020999991920032720004+61700+030683FM-12+001699999V0201401N001019999999N0000001N9+00111+99999102271ADDGF103991999999999999999999
0029228020999991920032806004+61700+030683FM-12+001699999V0201801N002119999999N0000001N9-00221+99999102581ADDGF108991999999999999999999
0029228020999991920032813004+61700+030683FM-12+001699999V0201401N001019999999N0000001N9-00061+99999102791ADDGF108991999999999999999999
0029228020999991920032820004+61700+030683FM-12+001699999V0209991C000019999999N0000001N9-00221+99999103001ADDGF108991999999999999999999
0029228020999991920032906004+61700+030683FM-12+001699999V0209991C000019999999N0000001N9-00441+99999103111ADDGF100991999999999999999999
0029228020999991920032913004+61700+030683FM-12+001699999V0201401N002119999999N0000001N9+00441+99999103281ADDGF100991999999999999999999
0029228020999991920032920004+61700+030683FM-12+001699999V0209991C000019999999N0000001N9-00111+99999103241ADDGF100991999999999999999999
0029228020999991920033006004+61700+030683FM-12+001699999V0201401N002119999999N0000001N9-00441+99999103351ADDGF100991999999999999999999
0029228020999991920033013004+61700+030683FM-12+001699999V0201401N001019999999N0000001N9+00891+99999103381ADDGF100991999999999999999999
0029228020999991920033020004+61700+030683FM-12+001699999V0201801N001019999999N0000001N9-00061+99999103381ADDGF100991999999999999999999
0029228020999991920033106004+61700+030683FM-12+001699999V0201401N002119999999N0000001N9-00501+99999103461ADDGF100991999999999999999999
0029228020999991920033113004+61700+030683FM-12+001699999V0201401N002119999999N0000001N9+00721+99999103281ADDGF100991999999999999999999
0029228020999991920033120004+61700+030683FM-12+001699999V0209991C000019999999N0000001N9-00061+99999102991ADDGF100991999999999999999999
0029228020999991920040106004+61700+030683FM-12+001699999V0201401N001019999999N0000001N9-00561+99999103101ADDGF100991999999999999999999
0029228020999991920040113004+61700+030683FM-12+001699999V0209991C000019999999N0000001N9+00441+99999103041ADDGF107991999999999999999999
0029228020999991920040120004+61700+030683FM-12+001699999V0209991C000019999999N0000001N9+00061+99999102751ADDGF108991999999999999999999
0029228020999991920040206004+61700+030683FM-12+001699999V0209991C000019999999N0000001N9-00061+99999102431ADDGF102991999999999999999999
0029228020999991920040213004+61700+030683FM-12+001699999V0209991C000019999999N0000001N9+00721+99999102221ADDGF100991999999999999999999
0029228020999991920040220004+61700+030683FM-12+001699999V0209991C000019999999N0000001N9-00111+99999102041ADDGF100991999999999999999999
0029228020999991920040306004+61700+030683FM-12+001699999V0209991C000019999999N0000001N9-00561+99999101751ADDGF100991999999999999999999
0029228020999991920040313004+61700+030683FM-12+001699999V0201801N002119999999N0000001N9+00721+99999101701ADDGF100991999999999999999999
0029228020999991920040320004+61700+030683FM-12+001699999V0209991C000019999999N0000001N9+00281+99999101341ADDGF100991999999999999999999
0029228020999991920040406004+61700+030683FM-12+001699999V0203201N002119999999N0000001N9-00061+99999101081ADDGF108991999999999999999999
0029228020999991920040413004+61700+030683FM-12+001699999V0203201N002119999999N0000001N9+00501+99999101121ADDGF108991999999999999999999
0029228020999991920040420004+61700+030683FM-12+001699999V0209991C000019999999N0000001N9+00171+99999101201ADDGF108991999999999999999999
0029228020999991920040506004+61700+030683FM-12+001699999V0209991C000019999999N0000001N9+00061+99999101161ADDGF108991999999999999999999
0029228020999991920040513004+61700+030683FM-12+001699999V0209991C000019999999N0000001N9+00561+99999101181ADDGF108991999999999999999999
0029228020999991920040520004+61700+030683FM-12+001699999V0209991C000019999999N0000001N9+00171+99999101161ADDGF108991999999999999999999
0029228020999991920040606004+61700+030683FM-12+001699999V0209991C000019999999N0000001N9+00171+99999101271ADDGF108991999999999999999999
0029228020999991920040613004+61700+030683FM-12+001699999V0209991C000019999999N0000001N9+00331+99999101441ADDGF108991999999999999999999
0029228020999991920040620004+61700+030683FM-12+001699999V0209991C000019999999N0000001N9+00111+99999101671ADDGF108991999999999999999999
0029228020999991920040706004+61700+030683FM-12+001699999V0203201N002119999999N0000001N9+00221+99999101661ADDGF108991999999999999999999
0029228020999991920040713004+61700+030683FM-12+001699999V0209991C000019999999N0000001N9+00831+99999101521ADDGF106991999999999999999999
0029228020999991920040720004+61700+030683FM-12+001699999V0203201N006219999999N0000001N9+00501+99999101301ADDGF108991999999999999999999
0029228020999991920040806004+61700+030683FM-12+001699999V0201401N006219999999N0000001N9+00391+99999100791ADDGF108991999999999999999999
0029228020999991920040813004+61700+030683FM-12+001699999V0209991C000019999999N0000001N9+00831+99999100391ADDGF108991999999999999999999
0035228020999991920040820004+61700+030683FM-12+001699999V0201801N002119999999N0000001N9+00391+99999099881ADDGF108991999999999999999999MW1621
0029228020999991920040906004+61700+030683FM-12+001699999V0201801N008219999999N0000001N9+00281+99999099821ADDGF108991999999999999999999
0029228020999991920040913004+61700+030683FM-12+001699999V0201801N008219999999N0000001N9+00831+99999100471ADDGF105991999999999999999999
0029228020999991920040920004+61700+030683FM-12+001699999V0201801N004119999999N0000001N9+00331+99999100781ADDGF108991999999999999999999
0046228020999991920041006004+61700+030683FM-12+001699999V0201801N002119999999N0000001N9-00111+99999101021ADDAJ100009199999999GF108991999999999999999999
0035228020999991920041013004+61700+030683FM-12+001699999V0201401N004119999999N0000001N9+00281+99999100711ADDGF108991999999999999999999MW1621
0035228020999991920041020004+61700+030683FM-12+001699999V0201401N002119999999N0000001N9+00281+99999100521ADDGF108991999999999999999999MW1621
0046228020999991920041106004+61700+030683FM-12+001699999V0201401N002119999999N0000001N9+00441+99999100071ADDAJ100009199999999GF108991999999999999999999
0029228020999991920041113004+61700+030683FM-12+001699999V0201401N002119999999N0000001N9+00671+99999100431ADDGF108991999999999999999999
0029228020999991920041120004+61700+030683FM-12+001699999V0202301N002119999999N0000001N9+00281+99999100991ADDGF108991999999999999999999
0046228020999991920041206004+61700+030683FM-12+001699999V0202301N002119999999N0000001N9+00171+99999101081ADDAJ100009199999999GF108991999999999999999999
0029228020999991920041213004+61700+030683FM-12+001699999V0201801N002119999999N0000001N9+00331+99999100951ADDGF108991999999999999999999
0029228020999991920041220004+61700+030683FM-12+001699999V0200501N002119999999N0000001N9+00281+99999100831ADDGF108991999999999999999999
0046228020999991920041306004+61700+030683FM-12+001699999V0201801N001019999999N0000001N9+00391+99999100421ADDAJ100009199999999GF108991999999999999999999
0035228020999991920041313004+61700+030683FM-12+001699999V0201801N004119999999N0000001N9+00831+99999100421ADDGF108991999999999999999999MW1601
0029228020999991920041320004+61700+030683FM-12+001699999V0201801N001019999999N0000001N9+00501+99999100561ADDGF108991999999999999999999
0046228020999991920041406004+61700+030683FM-12+001699999V0203201N001019999999N0000001N9+00391+99999100921ADDAJ100009199999999GF104991999999999999999999
0029228020999991920041413004+61700+030683FM-12+001699999V0209991C000019999999N0000001N9+00721+99999101161ADDGF108991999999999999999999
0029228020999991920041420004+61700+030683FM-12+001699999V0209991C000019999999N0000001N9+00561+99999101121ADDGF108991999999999999999999
0046228020999991920041506004+61700+030683FM-12+001699999V0201401N001019999999N0000001N9+00391+99999100951ADDAJ100009199999999GF104991999999999999999999
0029228020999991920041513004+61700+030683FM-12+001699999V0201401N002119999999N0000001N9+00781+99999100861ADDGF106991999999999999999999
0029228020999991920041520004+61700+030683FM-12+001699999V0201401N001019999999N0000001N9+01111+99999100781ADDGF108991999999999999999999
0046228020999991920041606004+61700+030683FM-12+001699999V0201801N001019999999N0000001N9+00441+99999101181ADDAJ100009199999999GF108991999999999999999999
0029228020999991920041613004+61700+030683FM-12+001699999V0201801N002119999999N0000001N9+00671+99999101161ADDGF108991999999999999999999
0029228020999991920041620004+61700+030683FM-12+001699999V0209991C000019999999N0000001N9+00441+99999100961ADDGF108991999999999999999999
0046228020999991920041706004+61700+030683FM-12+001699999V0201401N008219999999N0000001N9+00561+99999100241ADDAJ100009199999999GF108991999999999999999999
0029228020999991920041713004+61700+030683FM-12+001699999V0202701N006219999999N0000001N9+01111+99999100481ADDGF108991999999999999999999
0029228020999991920041720004+61700+030683FM-12+001699999V0201801N006219999999N0000001N9+00831+99999100621ADDGF108991999999999999999999
0046228020999991920041806004+61700+030683FM-12+001699999V0202701N006219999999N0000001N9+00561+99999100721ADDAJ100009199999999GF108991999999999999999999
0029228020999991920041813004+61700+030683FM-12+001699999V0202701N002119999999N0000001N9+00831+99999101201ADDGF108991999999999999999999
0029228020999991920041820004+61700+030683FM-12+001699999V0209991C000019999999N0000001N9+00501+99999101351ADDGF108991999999999999999999
0046228020999991920041906004+61700+030683FM-12+001699999V0201401N001019999999N0000001N9+00281+99999100901ADDAJ100009199999999GF108991999999999999999999
0035228020999991920041913004+61700+030683FM-12+001699999V0203201N004119999999N0000001N9+00671+99999100671ADDGF108991999999999999999999MW1621
0029228020999991920041920004+61700+030683FM-12+001699999V0203601N006219999999N0000001N9+00221+99999101041ADDGF108991999999999999999999
0046228020999991920042006004+61700+030683FM-12+001699999V0203601N008219999999N0000001N9-00171+99999102241ADDAJ100009199999999GF106991999999999999999999
0029228020999991920042013004+61700+030683FM-12+001699999V0203601N006219999999N0000001N9+00111+99999102681ADDGF102991999999999999999999
0029228020999991920042020004+61700+030683FM-12+001699999V0200501N002119999999N0000001N9-00111+99999103021ADDGF100991999999999999999999
0046228020999991920042106004+61700+030683FM-12+001699999V0200501N002119999999N0000001N9+00061+99999103351ADDAJ100009199999999GF100991999999999999999999
0029228020999991920042113004+61700+030683FM-12+001699999V0203601N002119999999N0000001N9+00501+99999103421ADDGF100991999999999999999999
0029228020999991920042120004+61700+030683FM-12+001699999V0209991C000019999999N0000001N9+00061+99999103511ADDGF108991999999999999999999
0046228020999991920042206004+61700+030683FM-12+001699999V0200501N001019999999N0000001N9-00111+99999103751ADDAJ100009199999999GF100991999999999999999999
0029228020999991920042213004+61700+030683FM-12+001699999V0201401N004119999999N0000001N9+00611+99999103621ADDGF100991999999999999999999
0029228020999991920042220004+61700+030683FM-12+001699999V0201401N001019999999N0000001N9+00001+99999103261ADDGF108991999999999999999999
0046228020999991920042306004+61700+030683FM-12+001699999V0201401N006219999999N0000001N9+00221+99999102741ADDAJ100009199999999GF108991999999999999999999
0035228020999991920042313004+61700+030683FM-12+001699999V0201401N009819999999N0000001N9+00331+99999102191ADDGF108991999999999999999999MW1621
0035228020999991920042320004+61700+030683FM-12+001699999V0201801N004119999999N0000001N9+00221+99999101591ADDGF108991999999999999999999MW1601
0046228020999991920042406004+61700+030683FM-12+001699999V0201801N006219999999N0000001N9+00501+99999100441ADDAJ100009199999999GF108991999999999999999999
0035228020999991920042413004+61700+030683FM-12+001699999V0201801N004119999999N0000001N9+00501+99999100721ADDGF108991999999999999999999MW1621
0029228020999991920042420004+61700+030683FM-12+001699999V0202701N002119999999N0000001N9+00441+99999100941ADDGF100991999999999999999999
0046228020999991920042506004+61700+030683FM-12+001699999V0201801N006219999999N0000001N9+00331+99999100831ADDAJ100009199999999GF108991999999999999999999
0035228020999991920042513004+61700+030683FM-12+001699999V0201801N006219999999N0000001N9+00441+99999100221ADDGF108991999999999999999999MW1621
0035228020999991920042520004+61700+030683FM-12+001699999V0201801N002119999999N0000001N9+00611+99999100021ADDGF108991999999999999999999MW1621
0052228020999991920042606004+61700+030683FM-12+001699999V0201401N004119999999N0000001N9+00441+99999099711ADDAJ100009199999999GF108991999999999999999999MW1621
0035228020999991920042613004+61700+030683FM-12+001699999V0201801N004119999999N0000001N9+00561+99999099741ADDGF108991999999999999999999MW1621
0029228020999991920042620004+61700+030683FM-12+001699999V0202301N001019999999N0000001N9+00501+99999099981ADDGF108991999999999999999999
0046228020999991920042706004+61700+030683FM-12+001699999V0201801N002119999999N0000001N9+00501+99999100221ADDAJ100009199999999GF100991999999999999999999
0029228020999991920042713004+61700+030683FM-12+001699999V0201801N004119999999N0000001N9+00611+99999100471ADDGF106991999999999999999999
0029228020999991920042720004+61700+030683FM-12+001699999V0209991C000019999999N0000001N9+00501+99999100631ADDGF108991999999999999999999
0046228020999991920042806004+61700+030683FM-12+001699999V0201401N001019999999N0000001N9+00391+99999100601ADDAJ100009199999999GF108991999999999999999999
0035228020999991920042813004+61700+030683FM-12+001699999V0201401N001019999999N0000001N9+00501+99999100591ADDGF108991999999999999999999MW1621
0029228020999991920042820004+61700+030683FM-12+001699999V0209991C000019999999N0000001N9+00501+99999100361ADDGF108991999999999999999999
0052228020999991920042906004+61700+030683FM-12+001699999V0201801N004119999999N0000001N9+00561+99999100231ADDAJ100009199999999GF108991999999999999999999MW1621
0029228020999991920042913004+61700+030683FM-12+001699999V0201401N002119999999N0000001N9+01001+99999100641ADDGF103991999999999999999999
0035228020999991920042920004+61700+030683FM-12+001699999V0201401N004119999999N0000001N9+00721+99999099871ADDGF108991999999999999999999MW1621
0046228020999991920043006004+61700+030683FM-12+001699999V0202701N001019999999N0000001N9+00561+99999100261ADDAJ100009199999999GF108991999999999999999999
0029228020999991920043013004+61700+030683FM-12+001699999V0202701N002119999999N0000001N9+00721+99999100601ADDGF108991999999999999999999
0029228020999991920043020004+61700+030683FM-12+001699999V0209991C000019999999N0000001N9+00331+99999100601ADDGF100991999999999999999999
0052228020999991920050106004+61700+030683FM-12+001699999V0201801N004119999999N0000001N9+00391+99999100401ADDAJ100009199999999GF108991999999999999999999MW1621
0029228020999991920050113004+61700+030683FM-12+001699999V0201801N006219999999N0000001N9+00721+99999100661ADDGF108991999999999999999999
0029228020999991920050120004+61700+030683FM-12+001699999V0209991C000019999999N0000001N9+00331+99999100841ADDGF108991999999999999999999
0046228020999991920050206004+61700+030683FM-12+001699999V0201801N001019999999N0000001N9+00561+99999101031ADDAJ100009199999999GF100991999999999999999999
0029228020999991920050213004+61700+030683FM-12+001699999V0201801N006219999999N0000001N9+00721+99999101241ADDGF100991999999999999999999
0029228020999991920050220004+61700+030683FM-12+001699999V0203201N001019999999N0000001N9+00441+99999101541ADDGF107991999999999999999999
0046228020999991920050306004+61700+030683FM-12+001699999V0203201N001019999999N0000001N9+00561+99999101751ADDAJ100009199999999GF100991999999999999999999
0029228020999991920050313004+61700+030683FM-12+001699999V0209991C000019999999N0000001N9+01331+99999101741ADDGF105991999999999999999999
0029228020999991920050320004+61700+030683FM-12+001699999V0201801N001019999999N0000001N9+00611+99999101761ADDGF100991999999999999999999
0046228020999991920050406004+61700+030683FM-12+001699999V0209991C000019999999N0000001N9+00671+99999101711ADDAJ100009199999999GF100991999999999999999999
0029228020999991920050413004+61700+030683FM-12+001699999V0201401N004119999999N0000001N9+01281+99999101631ADDGF102991999999999999999999
0029228020999991920050420004+61700+030683FM-12+001699999V0201801N001019999999N0000001N9+00721+99999101641ADDGF108991999999999999999999
0046228020999991920050506004+61700+030683FM-12+001699999V0201401N001019999999N0000001N9+00721+99999101551ADDAJ100009199999999GF108991999999999999999999
0029228020999991920050513004+61700+030683FM-12+001699999V0201401N001019999999N0000001N9+00671+99999101761ADDGF108991999999999999999999
0029228020999991920050520004+61700+030683FM-12+001699999V0201801N001019999999N0000001N9+00331+99999101961ADDGF108991999999999999999999
0046228020999991920050606004+61700+030683FM-12+001699999V0209991C000019999999N0000001N9+00611+99999101901ADDAJ100009199999999GF100991999999999999999999
0029228020999991920050613004+61700+030683FM-12+001699999V0201801N002119999999N0000001N9+01001+99999101871ADDGF107991999999999999999999
0029228020999991920050620004+61700+030683FM-12+001699999V0201401N001019999999N0000001N9+00561+99999101821ADDGF106991999999999999999999
0046228020999991920050706004+61700+030683FM-12+001699999V0209991C000019999999N0000001N9+00721+99999101711ADDAJ100009199999999GF100991999999999999999999
0035228020999991920050713004+61700+030683FM-12+001699999V0201801N004119999999N0000001N9+01001+99999101751ADDGF108991999999999999999999MW1621
0035228020999991920050720004+61700+030683FM-12+001699999V0201801N002119999999N0000001N9+00501+99999101591ADDGF108991999999999999999999MW1621
0046228020999991920050806004+61700+030683FM-12+001699999V0201801N004119999999N0000001N9+00611+99999101061ADDAJ100009199999999GF108991999999999999999999
0029228020999991920050813004+61700+030683FM-12+001699999V0201801N004119999999N0000001N9+01001+99999101221ADDGF103991999999999999999999
0029228020999991920050820004+61700+030683FM-12+001699999V0209991C000019999999N0000001N9+00781+99999101481ADDGF102991999999999999999999
0046228020999991920050906004+61700+030683FM-12+001699999V0201801N004119999999N0000001N9+00831+99999101601ADDAJ100009199999999GF100991999999999999999999
0029228020999991920050913004+61700+030683FM-12+001699999V0201401N006219999999N0000001N9+01331+99999101751ADDGF104991999999999999999999
0029228020999991920050920004+61700+030683FM-12+001699999V0209991C000019999999N0000001N9+00671+99999101801ADDGF108991999999999999999999
0046228020999991920051006004+61700+030683FM-12+001699999V0209991C000019999999N0000001N9+00721+99999101981ADDAJ100009199999999GF100991999999999999999999
0029228020999991920051013004+61700+030683FM-12+001699999V0201401N002119999999N0000001N9+01391+99999101941ADDGF108991999999999999999999
0029228020999991920051020004+61700+030683FM-12+001699999V0209991C000019999999N0000001N9+01281+99999101471ADDGF108991999999999999999999
0046228020999991920051106004+61700+030683FM-12+001699999V0201401N002119999999N0000001N9+00941+99999101201ADDAJ100009199999999GF104991999999999999999999
0029228020999991920051113004+61700+030683FM-12+001699999V0201401N006219999999N0000001N9+01281+99999101541ADDGF107991999999999999999999
0029228020999991920051120004+61700+030683FM-12+001699999V0201401N001019999999N0000001N9+00561+99999101511ADDGF108991999999999999999999
0046228020999991920051206004+61700+030683FM-12+001699999V0202301N002119999999N0000001N9+00561+99999101751ADDAJ100009199999999GF108991999999999999999999
0029228020999991920051213004+61700+030683FM-12+001699999V0201401N004119999999N0000001N9+00721+99999101951ADDGF106991999999999999999999
0029228020999991920051220004+61700+030683FM-12+001699999V0202301N002119999999N0000001N9+01061+99999102001ADDGF108991999999999999999999
0046228020999991920051306004+61700+030683FM-12+001699999V0202701N002119999999N0000001N9+00941+99999102521ADDAJ100009199999999GF100991999999999999999999
0029228020999991920051313004+61700+030683FM-12+001699999V0201801N006219999999N0000001N9+01391+99999102551ADDGF105991999999999999999999
0029228020999991920051320004+61700+030683FM-12+001699999V0201801N002119999999N0000001N9+00611+99999102471ADDGF106991999999999999999999
0046228020999991920051406004+61700+030683FM-12+001699999V0202301N004119999999N0000001N9+00891+99999102041ADDAJ100009199999999GF102991999999999999999999
0029228020999991920051413004+61700+030683FM-12+001699999V0201801N006219999999N0000001N9+01441+99999101821ADDGF100991999999999999999999
0029228020999991920051420004+61700+030683FM-12+001699999V0209991C000019999999N0000001N9+00831+99999101551ADDGF104991999999999999999999
0046228020999991920051506004+61700+030683FM-12+001699999V0209991C000019999999N0000001N9+01111+99999101511ADDAJ100009199999999GF108991999999999999999999
0029228020999991920051513004+61700+030683FM-12+001699999V0209991C000019999999N0000001N9+01721+99999101581ADDGF108991999999999999999999
0029228020999991920051520004+61700+030683FM-12+001699999V0203601N002119999999N0000001N9+01501+99999101661ADDGF108991999999999999999999
0046228020999991920051606004+61700+030683FM-12+001699999V0200901N001019999999N0000001N9+01831+99999101721ADDAJ100009199999999GF100991999999999999999999
0029228020999991920051613004+61700+030683FM-12+001699999V0201401N004119999999N0000001N9+02501+99999101801ADDGF106991999999999999999999
0029228020999991920051620004+61700+030683FM-12+001699999V0201401N001019999999N0000001N9+01781+99999102061ADDGF108991999999999999999999
0046228020999991920051706004+61700+030683FM-12+001699999V0201401N002119999999N0000001N9+02001+99999102351ADDAJ100009199999999GF100991999999999999999999
0029228020999991920051713004+61700+030683FM-12+001699999V0201401N006219999999N0000001N9+02281+99999102341ADDGF100991999999999999999999
0029228020999991920051720004+61700+030683FM-12+001699999V0209991C000019999999N0000001N9+01671+99999101981ADDGF108991999999999999999999
0046228020999991920051806004+61700+030683FM-12+001699999V0201401N002119999999N0000001N9+01721+99999101981ADDAJ100009199999999GF100991999999999999999999
0029228020999991920051813004+61700+030683FM-12+001699999V0201401N008219999999N0000001N9+02171+99999101841ADDGF103991999999999999999999
0029228020999991920051820004+61700+030683FM-12+001699999V0202501N002119999999N0000001N9+01281+99999101911ADDGF103991999999999999999999
0046228020999991920051906004+61700+030683FM-12+001699999V0201401N002119999999N0000001N9+01111+99999102241ADDAJ100009199999999GF102991999999999999999999
0029228020999991920051913004+61700+030683FM-12+001699999V0201401N007219999999N0000001N9+01671+99999102221ADDGF102991999999999999999999
0029228020999991920051920004+61700+030683FM-12+001699999V0201401N002119999999N0000001N9+01171+99999102141ADDGF108991999999999999999999
0046228020999991920052006004+61700+030683FM-12+001699999V0209991C000019999999N0000001N9+01171+99999101941ADDAJ100009199999999GF108991999999999999999999
0029228020999991920052013004+61700+030683FM-12+001699999V0203201N006219999999N0000001N9+02281+99999102041ADDGF101991999999999999999999
0029228020999991920052020004+61700+030683FM-12+001699999V0209991C000019999999N0000001N9+01611+99999102151ADDGF108991999999999999999999
0046228020999991920052106004+61700+030683FM-12+001699999V0202701N002119999999N0000001N9+01441+99999102551ADDAJ100009199999999GF100991999999999999999999
0029228020999991920052113004+61700+030683FM-12+001699999V0202501N006219999999N0000001N9+01721+99999102601ADDGF108991999999999999999999
0029228020999991920052120004+61700+030683FM-12+001699999V0209991C000019999999N0000001N9+01281+99999102591ADDGF108991999999999999999999
0046228020999991920052206004+61700+030683FM-12+001699999V0202001N002119999999N0000001N9+01001+99999102601ADDAJ100009199999999GF108991999999999999999999
0029228020999991920052213004+61700+030683FM-12+001699999V0201401N006219999999N0000001N9+01831+99999102101ADDGF100991999999999999999999
0029228020999991920052220004+61700+030683FM-12+001699999V0201801N002119999999N0000001N9+01441+99999101621ADDGF106991999999999999999999
0046228020999991920052306004+61700+030683FM-12+001699999V0202701N008219999999N0000001N9+01061+99999101671ADDAJ100009199999999GF108991999999999999999999
0029228020999991920052313004+61700+030683FM-12+001699999V0202901N008219999999N0000001N9+01391+99999101901ADDGF108991999999999999999999
0029228020999991920052320004+61700+030683FM-12+001699999V0209991C000019999999N0000001N9+01171+99999101911ADDGF100991999999999999999999
0046228020999991920052406004+61700+030683FM-12+001699999V0202301N002119999999N0000001N9+01171+99999102041ADDAJ100009199999999GF106991999999999999999999
0029228020999991920052413004+61700+030683FM-12+001699999V0203201N006219999999N0000001N9+01941+99999101831ADDGF108991999999999999999999
0029228020999991920052420004+61700+030683FM-12+001699999V0203201N001019999999N0000001N9+01501+99999102061ADDGF108991999999999999999999
0046228020999991920052506004+61700+030683FM-12+001699999V0209991C000019999999N0000001N9+01561+99999102381ADDAJ100009199999999GF100991999999999999999999
0029228020999991920052513004+61700+030683FM-12+001699999V0202701N008219999999N0000001N9+02171+99999101841ADDGF106991999999999999999999
0029228020999991920052520004+61700+030683FM-12+001699999V0202301N004119999999N0000001N9+01891+99999101391ADDGF108991999999999999999999
0046228020999991920052606004+61700+030683FM-12+001699999V0203201N006219999999N0000001N9+01111+99999102001ADDAJ100009199999999GF100991999999999999999999
0029228020999991920052613004+61700+030683FM-12+001699999V0203601N006219999999N0000001N9+01611+99999102221ADDGF106991999999999999999999
0029228020999991920052620004+61700+030683FM-12+001699999V0203601N001019999999N0000001N9+01391+99999102301ADDGF100991999999999999999999
0046228020999991920052706004+61700+030683FM-12+001699999V0203201N002119999999N0000001N9+01171+99999102461ADDAJ100009199999999GF100991999999999999999999
0029228020999991920052713004+61700+030683FM-12+001699999V0203201N004119999999N0000001N9+01561+99999102351ADDGF107991999999999999999999
0029228020999991920052720004+61700+030683FM-12+001699999V0209991C000019999999N0000001N9+01171+99999102241ADDGF108991999999999999999999
0046228020999991920052806004+61700+030683FM-12+001699999V0209991C000019999999N0000001N9+01221+99999102221ADDAJ100009199999999GF100991999999999999999999
0029228020999991920052813004+61700+030683FM-12+001699999V0209991C000019999999N0000001N9+01941+99999102081ADDGF103991999999999999999999
0029228020999991920052820004+61700+030683FM-12+001699999V0209991C000019999999N0000001N9+01441+99999102101ADDGF100991999999999999999999
0046228020999991920052906004+61700+030683FM-12+001699999V0201801N002119999999N0000001N9+01221+99999102061ADDAJ100009199999999GF100991999999999999999999
0029228020999991920052913004+61700+030683FM-12+001699999V0202701N006219999999N0000001N9+02391+99999101861ADDGF102991999999999999999999
0029228020999991920052920004+61700+030683FM-12+001699999V0202701N001019999999N0000001N9+01671+99999101701ADDGF108991999999999999999999
0046228020999991920053006004+61700+030683FM-12+001699999V0209991C000019999999N0000001N9+01611+99999101621ADDAJ100009199999999GF102991999999999999999999
0029228020999991920053013004+61700+030683FM-12+001699999V0201801N002119999999N0000001N9+02061+99999101561ADDGF100991999999999999999999
0029228020999991920053020004+61700+030683FM-12+001699999V0209991C000019999999N0000001N9+01391+99999101671ADDGF103991999999999999999999
0046228020999991920053106004+61700+030683FM-12+001699999V0201401N001019999999N0000001N9+01441+99999101551ADDAJ100009199999999GF108991999999999999999999
0029228020999991920053113004+61700+030683FM-12+001699999V0201401N002119999999N0000001N9+02061+99999101471ADDGF103991999999999999999999
0029228020999991920053120004+61700+030683FM-12+001699999V0201401N001019999999N0000001N9+01281+99999101311ADDGF105991999999999999999999
0046228020999991920060106004+61700+030683FM-12+001699999V0201801N001019999999N0000001N9+01611+99999101021ADDAJ100009199999999GF104991999999999999999999
0029228020999991920060113004+61700+030683FM-12+001699999V0201801N004119999999N0000001N9+02171+99999100711ADDGF105991999999999999999999
0029228020999991920060120004+61700+030683FM-12+001699999V0201801N002119999999N0000001N9+01501+99999100351ADDGF108991999999999999999999
0046228020999991920060206004+61700+030683FM-12+001699999V0209991C000019999999N0000001N9+01171+99999099781ADDAJ100009199999999GF108991999999999999999999
0035228020999991920060213004+61700+030683FM-12+001699999V0202301N006219999999N0000001N9+01061+99999099521ADDGF108991999999999999999999MW1621
0029228020999991920060220004+61700+030683FM-12+001699999V0202301N001019999999N0000001N9+00891+99999099221ADDGF108991999999999999999999
0046228020999991920060306004+61700+030683FM-12+001699999V0200901N002119999999N0000001N9+00831+99999098831ADDAJ100009199999999GF108991999999999999999999
0029228020999991920060313004+61700+030683FM-12+001699999V0201801N001019999999N0000001N9+01171+99999098981ADDGF108991999999999999999999
0029228020999991920060320004+61700+030683FM-12+001699999V0201801N001019999999N0000001N9+00831+99999099121ADDGF108991999999999999999999
0046228020999991920060406004+61700+030683FM-12+001699999V0201401N006219999999N0000001N9+00941+99999099361ADDAJ100009199999999GF106991999999999999999999
0029228020999991920060413004+61700+030683FM-12+001699999V0201401N004119999999N0000001N9+01671+99999099361ADDGF102991999999999999999999
0029228020999991920060420004+61700+030683FM-12+001699999V0200901N004119999999N0000001N9+01171+99999099361ADDGF108991999999999999999999
0046228020999991920060506004+61700+030683FM-12+001699999V0209991C000019999999N0000001N9+01111+99999099421ADDAJ100009199999999GF108991999999999999999999
0035228020999991920060513004+61700+030683FM-12+001699999V0209991C000019999999N0000001N9+01441+99999099711ADDGF108991999999999999999999MW1621
0029228020999991920060520004+61700+030683FM-12+001699999V0203601N001019999999N0000001N9+00941+99999099871ADDGF108991999999999999999999
0046228020999991920060606004+61700+030683FM-12+001699999V0201401N002119999999N0000001N9+01061+99999099781ADDAJ100009199999999GF108991999999999999999999
0029228020999991920060613004+61700+030683FM-12+001699999V0201401N008219999999N0000001N9+01331+99999099791ADDGF106991999999999999999999
0029228020999991920060620004+61700+030683FM-12+001699999V0201401N006219999999N0000001N9+00831+99999100101ADDGF108991999999999999999999
0046228020999991920060706004+61700+030683FM-12+001699999V0209991C000019999999N0000001N9+01171+99999100361ADDAJ100009199999999GF102991999999999999999999
0029228020999991920060713004+61700+030683FM-12+001699999V0201401N004119999999N0000001N9+01501+99999100431ADDGF108991999999999999999999
0029228020999991920060720004+61700+030683FM-12+001699999V0201401N001019999999N0000001N9+01061+99999100561ADDGF108991999999999999999999
0046228020999991920060806004+61700+030683FM-12+001699999V0201401N001019999999N0000001N9+01501+99999100521ADDAJ100009199999999GF102991999999999999999999
0029228020999991920060813004+61700+030683FM-12+001699999V0200901N001019999999N0000001N9+01441+99999100231ADDGF108991999999999999999999
0035228020999991920060820004+61700+030683FM-12+001699999V0209991C000019999999N0000001N9+01221+99999100151ADDGF108991999999999999999999MW1621
0052228020999991920060906004+61700+030683FM-12+001699999V0203201N004119999999N0000001N9+01061+99999100181ADDAJ100009199999999GF108991999999999999999999MW1621
0029228020999991920060913004+61700+030683FM-12+001699999V0203201N002119999999N0000001N9+01391+99999100461ADDGF106991999999999999999999
0029228020999991920060920004+61700+030683FM-12+001699999V0203601N001019999999N0000001N9+01221+99999100751ADDGF106991999999999999999999
0046228020999991920061006004+61700+030683FM-12+001699999V0209991C000019999999N0000001N9+01171+99999100961ADDAJ100009199999999GF100991999999999999999999
0029228020999991920061013004+61700+030683FM-12+001699999V0209991C000019999999N0000001N9+01441+99999101221ADDGF107991999999999999999999
0029228020999991920061020004+61700+030683FM-12+001699999V0203201N001019999999N0000001N9+01001+99999101421ADDGF108991999999999999999999
0046228020999991920061106004+61700+030683FM-12+001699999V0202701N002119999999N0000001N9+01221+99999101301ADDAJ100009199999999GF103991999999999999999999
0029228020999991920061113004+61700+030683FM-12+001699999V0201801N006219999999N0000001N9+01061+99999101221ADDGF108991999999999999999999
0029228020999991920061120004+61700+030683FM-12+001699999V0201801N004119999999N0000001N9+00781+99999101231ADDGF108991999999999999999999
0046228020999991920061206004+61700+030683FM-12+001699999V0203601N008219999999N0000001N9+00941+99999101391ADDAJ100009199999999GF106991999999999999999999
0029228020999991920061213004+61700+030683FM-12+001699999V0203601N008219999999N0000001N9+01441+99999101511ADDGF103991999999999999999999
0029228020999991920061220004+61700+030683FM-12+001699999V0209991C000019999999N0000001N9+00941+99999101681ADDGF108991999999999999999999
0046228020999991920061306004+61700+030683FM-12+001699999V0209991C000019999999N0000001N9+01001+99999101901ADDAJ100009199999999GF108991999999999999999999
0035228020999991920061313004+61700+030683FM-12+001699999V0201401N006219999999N0000001N9+00891+99999102071ADDGF108991999999999999999999MW1621
0029228020999991920061320004+61700+030683FM-12+001699999V0209991C000019999999N0000001N9+00891+99999102201ADDGF107991999999999999999999
0046228020999991920061406004+61700+030683FM-12+001699999V0209991C000019999999N0000001N9+01061+99999102391ADDAJ100009199999999GF100991999999999999999999
0029228020999991920061413004+61700+030683FM-12+001699999V0209991C000019999999N0000001N9+01221+99999102271ADDGF108991999999999999999999
0029228020999991920061420004+61700+030683FM-12+001699999V0209991C000019999999N0000001N9+01061+99999102081ADDGF108991999999999999999999
0046228020999991920061506004+61700+030683FM-12+001699999V0201401N002119999999N0000001N9+00941+99999101621ADDAJ100009199999999GF108991999999999999999999
0035228020999991920061513004+61700+030683FM-12+001699999V0201401N002119999999N0000001N9+00831+99999101391ADDGF108991999999999999999999MW1621
0029228020999991920061520004+61700+030683FM-12+001699999V0201801N002119999999N0000001N9+00781+99999101151ADDGF108991999999999999999999
0046228020999991920061606004+61700+030683FM-12+001699999V0209991C000019999999N0000001N9+01061+99999101071ADDAJ100009199999999GF108991999999999999999999
0029228020999991920061613004+61700+030683FM-12+001699999V0203601N004119999999N0000001N9+01501+99999101201ADDGF103991999999999999999999
0029228020999991920061620004+61700+030683FM-12+001699999V0209991C000019999999N0000001N9+01281+99999101271ADDGF103991999999999999999999
0046228020999991920061706004+61700+030683FM-12+001699999V0200501N001019999999N0000001N9+01281+99999101461ADDAJ100009199999999GF100991999999999999999999
0029228020999991920061713004+61700+030683FM-12+001699999V0201401N006219999999N0000001N9+01831+99999101471ADDGF105991999999999999999999
0029228020999991920061720004+61700+030683FM-12+001699999V0209991C000019999999N0000001N9+01331+99999101341ADDGF103991999999999999999999
0046228020999991920061806004+61700+030683FM-12+001699999V0202301N002119999999N0000001N9+01221+99999101081ADDAJ100009199999999GF108991999999999999999999
0029228020999991920061813004+61700+030683FM-12+001699999V0201401N001019999999N0000001N9+01721+99999100961ADDGF106991999999999999999999
0029228020999991920061820004+61700+030683FM-12+001699999V0201801N002119999999N0000001N9+01441+99999101321ADDGF106991999999999999999999
0046228020999991920061906004+61700+030683FM-12+001699999V0203601N002119999999N0000001N9+01391+99999101961ADDAJ100009199999999GF100991999999999999999999
0029228020999991920061913004+61700+030683FM-12+001699999V0202701N004119999999N0000001N9+02001+99999102061ADDGF103991999999999999999999
0029228020999991920061920004+61700+030683FM-12+001699999V0209991C000019999999N0000001N9+01281+99999102021ADDGF108991999999999999999999
0046228020999991920062006004+61700+030683FM-12+001699999V0203601N004119999999N0000001N9+01721+99999102361ADDAJ100009199999999GF100991999999999999999999
0029228020999991920062013004+61700+030683FM-12+001699999V0203601N002119999999N0000001N9+02391+99999102241ADDGF104991999999999999999999
0029228020999991920062020004+61700+030683FM-12+001699999V0209991C000019999999N0000001N9+01671+99999102201ADDGF108991999999999999999999
0046228020999991920062106004+61700+030683FM-12+001699999V0203601N002119999999N0000001N9+01891+99999101991ADDAJ100009199999999GF107991999999999999999999
0029228020999991920062113004+61700+030683FM-12+001699999V0203601N004119999999N0000001N9+02281+99999102261ADDGF108991999999999999999999
0035228020999991920062120004+61700+030683FM-12+001699999V0203601N002119999999N0000001N9+01941+99999102191ADDGF108991999999999999999999MW1621
0046228020999991920062206004+61700+030683FM-12+001699999V0200501N001019999999N0000001N9+01941+99999102231ADDAJ100009199999999GF102991999999999999999999
0029228020999991920062213004+61700+030683FM-12+001699999V0200701N002119999999N0000001N9+02561+99999102081ADDGF100991999999999999999999
0029228020999991920062220004+61700+030683FM-12+001699999V0209991C000019999999N0000001N9+02001+99999101841ADDGF100991999999999999999999
0046228020999991920062306004+61700+030683FM-12+001699999V0200501N001019999999N0000001N9+01781+99999101861ADDAJ100009199999999GF100991999999999999999999
0029228020999991920062313004+61700+030683FM-12+001699999V0201401N001019999999N0000001N9+02391+99999101561ADDGF102991999999999999999999
0029228020999991920062320004+61700+030683FM-12+001699999V0201801N001019999999N0000001N9+01781+99999101351ADDGF108991999999999999999999
0046228020999991920062406004+61700+030683FM-12+001699999V0201401N006219999999N0000001N9+01721+99999101151ADDAJ100009199999999GF102991999999999999999999
0029228020999991920062413004+61700+030683FM-12+001699999V0201401N006219999999N0000001N9+02331+99999101061ADDGF100991999999999999999999
0029228020999991920062420004+61700+030683FM-12+001699999V0209991C000019999999N0000001N9+01781+99999101001ADDGF108991999999999999999999
0046228020999991920062506004+61700+030683FM-12+001699999V0201401N001019999999N0000001N9+01941+99999101001ADDAJ100009199999999GF105991999999999999999999
0029228020999991920062513004+61700+030683FM-12+001699999V0201401N006219999999N0000001N9+02281+99999100901ADDGF103991999999999999999999
0029228020999991920062520004+61700+030683FM-12+001699999V0209991C000019999999N0000001N9+01781+99999100801ADDGF105991999999999999999999
0046228020999991920062606004+61700+030683FM-12+001699999V0200901N001019999999N0000001N9+01781+99999100671ADDAJ100009199999999GF103991999999999999999999
0029228020999991920062613004+61700+030683FM-12+001699999V0201801N006219999999N0000001N9+02331+99999100541ADDGF103991999999999999999999
0029228020999991920062620004+61700+030683FM-12+001699999V0201801N001019999999N0000001N9+01561+99999100441ADDGF107991999999999999999999
0046228020999991920062706004+61700+030683FM-12+001699999V0209991C000019999999N0000001N9+01561+99999100441ADDAJ100009199999999GF102991999999999999999999
0029228020999991920062713004+61700+030683FM-12+001699999V0201601N006219999999N0000001N9+02061+99999100541ADDGF103991999999999999999999
0029228020999991920062720004+61700+030683FM-12+001699999V0209991C000019999999N0000001N9+01331+99999100501ADDGF108991999999999999999999
0046228020999991920062806004+61700+030683FM-12+001699999V0201801N001019999999N0000001N9+01611+99999100501ADDAJ100009199999999GF100991999999999999999999
0029228020999991920062813004+61700+030683FM-12+001699999V0201801N002119999999N0000001N9+02001+99999100561ADDGF100991999999999999999999
0029228020999991920062820004+61700+030683FM-12+001699999V0201801N002119999999N0000001N9+01611+99999100541ADDGF103991999999999999999999
0052228020999991920062906004+61700+030683FM-12+001699999V0209991C000019999999N0000001N9+01501+99999100521ADDAJ100009199999999GF108991999999999999999999MW1621
0029228020999991920062913004+61700+030683FM-12+001699999V0201401N001019999999N0000001N9+02171+99999100561ADDGF106991999999999999999999
0029228020999991920062920004+61700+030683FM-12+001699999V0209991C000019999999N0000001N9+01671+99999100721ADDGF103991999999999999999999
0046228020999991920063006004+61700+030683FM-12+001699999V0203601N006219999999N0000001N9+01721+99999100861ADDAJ100009199999999GF103991999999999999999999
0029228020999991920063013004+61700+030683FM-12+001699999V0203601N002119999999N0000001N9+02441+99999100981ADDGF102991999999999999999999
0029228020999991920063020004+61700+030683FM-12+001699999V0203601N004119999999N0000001N9+02061+99999101061ADDGF102991999999999999999999
0046228020999991920070106004+61700+030683FM-12+001699999V0200501N002119999999N0000001N9+02061+99999101231ADDAJ100009199999999GF100991999999999999999999
0029228020999991920070113004+61700+030683FM-12+001699999V0203201N002119999999N0000001N9+02941+99999101191ADDGF104991999999999999999999
0029228020999991920070120004+61700+030683FM-12+001699999V0202701N001019999999N0000001N9+02221+99999101231ADDGF106991999999999999999999
0046228020999991920070206004+61700+030683FM-12+001699999V0209991C000019999999N0000001N9+02061+99999101431ADDAJ100009199999999GF105991999999999999999999
0029228020999991920070213004+61700+030683FM-12+001699999V0201801N002119999999N0000001N9+02781+99999101461ADDGF100991999999999999999999
0029228020999991920070220004+61700+030683FM-12+001699999V0209991C000019999999N0000001N9+02001+99999101641ADDGF108991999999999999999999
0046228020999991920070306004+61700+030683FM-12+001699999V0209991C000019999999N0000001N9+02171+99999101841ADDAJ100009199999999GF105991999999999999999999
0029228020999991920070313004+61700+030683FM-12+001699999V0201401N004119999999N0000001N9+02721+99999101871ADDGF103991999999999999999999
0029228020999991920070320004+61700+030683FM-12+001699999V0209991C000019999999N0000001N9+02061+99999101841ADDGF108991999999999999999999
0046228020999991920070406004+61700+030683FM-12+001699999V0209991C000019999999N0000001N9+02171+99999101961ADDAJ100009199999999GF100991999999999999999999
0029228020999991920070413004+61700+030683FM-12+001699999V0201801N006219999999N0000001N9+02721+99999101841ADDGF104991999999999999999999
0029228020999991920070420004+61700+030683FM-12+001699999V0201801N001019999999N0000001N9+02171+99999101621ADDGF108991999999999999999999
0046228020999991920070506004+61700+030683FM-12+001699999V0201801N002119999999N0000001N9+02391+99999101181ADDAJ100009199999999GF100991999999999999999999
0029228020999991920070513004+61700+030683FM-12+001699999V0203201N002119999999N0000001N9+02171+99999101031ADDGF106991999999999999999999
0029228020999991920070520004+61700+030683FM-12+001699999V0203201N001019999999N0000001N9+01671+99999101021ADDGF108991999999999999999999
0046228020999991920070606004+61700+030683FM-12+001699999V0203201N008219999999N0000001N9+01171+99999101501ADDAJ100009199999999GF108991999999999999999999
0029228020999991920070613004+61700+030683FM-12+001699999V0203601N009819999999N0000001N9+01331+99999101871ADDGF108991999999999999999999
0029228020999991920070620004+61700+030683FM-12+001699999V0200501N006219999999N0000001N9+01111+99999102151ADDGF108991999999999999999999
0046228020999991920070706004+61700+030683FM-12+001699999V0200501N006219999999N0000001N9+01441+99999102431ADDAJ100009199999999GF101991999999999999999999
0029228020999991920070713004+61700+030683FM-12+001699999V0203601N004119999999N0000001N9+02221+99999102321ADDGF100991999999999999999999
0029228020999991920070720004+61700+030683FM-12+001699999V0203601N001019999999N0000001N9+01781+99999102271ADDGF100991999999999999999999
0046228020999991920070806004+61700+030683FM-12+001699999V0200501N001019999999N0000001N9+01831+99999102481ADDAJ100009199999999GF102991999999999999999999
0029228020999991920070813004+61700+030683FM-12+001699999V0203601N002119999999N0000001N9+02611+99999102351ADDGF102991999999999999999999
0029228020999991920070820004+61700+030683FM-12+001699999V0209991C000019999999N0000001N9+02001+99999102311ADDGF100991999999999999999999
0046228020999991920070906004+61700+030683FM-12+001699999V0209991C000019999999N0000001N9+01941+99999102201ADDAJ100009199999999GF100991999999999999999999
0029228020999991920070913004+61700+030683FM-12+001699999V0202701N004119999999N0000001N9+02941+99999102021ADDGF100991999999999999999999
0029228020999991920070920004+61700+030683FM-12+001699999V0202701N001019999999N0000001N9+02111+99999101821ADDGF100991999999999999999999
0046228020999991920071006004+61700+030683FM-12+001699999V0209991C000019999999N0000001N9+02111+99999101801ADDAJ100009199999999GF100991999999999999999999
0029228020999991920071013004+61700+030683FM-12+001699999V0202701N006219999999N0000001N9+02671+99999101581ADDGF103991999999999999999999
0029228020999991920071020004+61700+030683FM-12+001699999V0209991C000019999999N0000001N9+02281+99999101361ADDGF100991999999999999999999
0046228020999991920071106004+61700+030683FM-12+001699999V0209991C000019999999N0000001N9+01781+99999101391ADDAJ100009199999999GF106991999999999999999999
0029228020999991920071113004+61700+030683FM-12+001699999V0203601N002119999999N0000001N9+02501+99999101231ADDGF104991999999999999999999
0029228020999991920071120004+61700+030683FM-12+001699999V0209991C000019999999N0000001N9+01941+99999101221ADDGF100991999999999999999999
0046228020999991920071206004+61700+030683FM-12+001699999V0209991C000019999999N0000001N9+01891+99999101341ADDAJ100009199999999GF100991999999999999999999
0029228020999991920071213004+61700+030683FM-12+001699999V0203601N002119999999N0000001N9+02441+99999101311ADDGF106991999999999999999999
0029228020999991920071220004+61700+030683FM-12+001699999V0209991C000019999999N0000001N9+01831+99999101071ADDGF100991999999999999999999
0046228020999991920071306004+61700+030683FM-12+001699999V0203201N006219999999N0000001N9+02281+99999100981ADDAJ100009199999999GF107991999999999999999999
0029228020999991920071313004+61700+030683FM-12+001699999V0201801N006219999999N0000001N9+02221+99999100791ADDGF108991999999999999999999
0029228020999991920071320004+61700+030683FM-12+001699999V0201801N001019999999N0000001N9+01891+99999100671ADDGF108991999999999999999999
0046228020999991920071406004+61700+030683FM-12+001699999V0209991C000019999999N0000001N9+02111+99999100501ADDAJ100009199999999GF103991999999999999999999
0029228020999991920071413004+61700+030683FM-12+001699999V0202301N006219999999N0000001N9+02331+99999100431ADDGF106991999999999999999999
0029228020999991920071420004+61700+030683FM-12+001699999V0209991C000019999999N0000001N9+01941+99999100431ADDGF102991999999999999999999
0046228020999991920071506004+61700+030683FM-12+001699999V0209991C000019999999N0000001N9+01941+99999100421ADDAJ100009199999999GF104991999999999999999999
0029228020999991920071513004+61700+030683FM-12+001699999V0201401N006219999999N0000001N9+02561+99999100421ADDGF103991999999999999999999
0029228020999991920071520004+61700+030683FM-12+001699999V0209991C000019999999N0000001N9+02001+99999100501ADDGF103991999999999999999999
0046228020999991920071606004+61700+030683FM-12+001699999V0209991C000019999999N0000001N9+01941+99999100601ADDAJ100009199999999GF100991999999999999999999
0029228020999991920071613004+61700+030683FM-12+001699999V0201801N002119999999N0000001N9+02441+99999100701ADDGF106991999999999999999999
0029228020999991920071620004+61700+030683FM-12+001699999V0201801N001019999999N0000001N9+02111+99999100841ADDGF106991999999999999999999
0046228020999991920071706004+61700+030683FM-12+001699999V0209991C000019999999N0000001N9+02111+99999101021ADDAJ100009199999999GF100991999999999999999999
0035228020999991920071713004+61700+030683FM-12+001699999V0201801N001019999999N0000001N9+02001+99999101081ADDGF108991999999999999999999MW1621
0029228020999991920071720004+61700+030683FM-12+001699999V0209991C000019999999N0000001N9+02001+99999101021ADDGF108991999999999999999999
0046228020999991920071806004+61700+030683FM-12+001699999V0203201N002119999999N0000001N9+02111+99999101201ADDAJ100009199999999GF102991999999999999999999
0029228020999991920071813004+61700+030683FM-12+001699999V0203201N002119999999N0000001N9+02561+99999101111ADDGF106991999999999999999999
0029228020999991920071820004+61700+030683FM-12+001699999V0202301N001019999999N0000001N9+01891+99999100921ADDGF104991999999999999999999
0046228020999991920071906004+61700+030683FM-12+001699999V0201401N004119999999N0000001N9+01891+99999100181ADDAJ100009199999999GF108991999999999999999999
0029228020999991920071913004+61700+030683FM-12+001699999V0202301N006219999999N0000001N9+02171+99999099791ADDGF106991999999999999999999
0029228020999991920071920004+61700+030683FM-12+001699999V0202301N004119999999N0000001N9+01671+99999099901ADDGF108991999999999999999999
0046228020999991920072006004+61700+030683FM-12+001699999V0202701N004119999999N0000001N9+01501+99999999999ADDAJ100009199999999GF102991999999999999999999
0029228020999991920072013004+61700+030683FM-12+001699999V0203201N008219999999N0000001N9+01781+99999100041ADDGF105991999999999999999999
0029228020999991920072020004+61700+030683FM-12+001699999V0203201N006219999999N0000001N9+01441+99999099881ADDGF107991999999999999999999
0046228020999991920072106004+61700+030683FM-12+001699999V0202301N008219999999N0000001N9+01441+99999099941ADDAJ100009199999999GF103991999999999999999999
0029228020999991920072113004+61700+030683FM-12+001699999V0202301N008219999999N0000001N9+02001+99999099721ADDGF104991999999999999999999
0029228020999991920072120004+61700+030683FM-12+001699999V0209991C000019999999N0000001N9+01331+99999099871ADDGF102991999999999999999999
0046228020999991920072206004+61700+030683FM-12+001699999V0203201N002119999999N0000001N9+01611+99999100281ADDAJ100009199999999GF100991999999999999999999
0029228020999991920072213004+61700+030683FM-12+001699999V0203201N006219999999N0000001N9+02281+99999100471ADDGF104991999999999999999999
0029228020999991920072220004+61700+030683FM-12+001699999V0209991C000019999999N0000001N9+01671+99999100591ADDGF106991999999999999999999
0046228020999991920072306004+61700+030683FM-12+001699999V0201401N002119999999N0000001N9+01441+99999100621ADDAJ100009199999999GF102991999999999999999999
0029228020999991920072313004+61700+030683FM-12+001699999V0201401N009819999999N0000001N9+01831+99999100311ADDGF102991999999999999999999
0029228020999991920072320004+61700+030683FM-12+001699999V0201801N002119999999N0000001N9+01441+99999099911ADDGF103991999999999999999999
0046228020999991920072406004+61700+030683FM-12+001699999V0202301N002119999999N0000001N9+01561+99999100501ADDAJ100009199999999GF108991999999999999999999
0029228020999991920072413004+61700+030683FM-12+001699999V0201801N006219999999N0000001N9+01891+99999100701ADDGF108991999999999999999999
0029228020999991920072420004+61700+030683FM-12+001699999V0201801N001019999999N0000001N9+01611+99999100721ADDGF108991999999999999999999
0052228020999991920072506004+61700+030683FM-12+001699999V0201801N006219999999N0000001N9+01441+99999100581ADDAJ100009199999999GF108991999999999999999999MW1621
0035228020999991920072513004+61700+030683FM-12+001699999V0201801N004119999999N0000001N9+01781+99999100201ADDGF108991999999999999999999MW1621
0035228020999991920072520004+61700+030683FM-12+001699999V0202701N002119999999N0000001N9+01441+99999099861ADDGF108991999999999999999999MW1621
0046228020999991920072606004+61700+030683FM-12+001699999V0201401N006219999999N0000001N9+01281+99999100201ADDAJ100009199999999GF102991999999999999999999
0029228020999991920072613004+61700+030683FM-12+001699999V0201801N008219999999N0000001N9+01331+99999100481ADDGF108991999999999999999999
0029228020999991920072620004+61700+030683FM-12+001699999V0202301N008219999999N0000001N9+01441+99999100801ADDGF108991999999999999999999
0046228020999991920072706004+61700+030683FM-12+001699999V0202301N006219999999N0000001N9+01331+99999101271ADDAJ100009199999999GF104991999999999999999999
0029228020999991920072713004+61700+030683FM-12+001699999V0201801N006219999999N0000001N9+01781+99999101401ADDGF101991999999999999999999
0029228020999991920072720004+61700+030683FM-12+001699999V0201801N002119999999N0000001N9+01721+99999101361ADDGF108991999999999999999999
0046228020999991920072806004+61700+030683FM-12+001699999V0201401N002119999999N0000001N9+01721+99999101081ADDAJ100009199999999GF106991999999999999999999
0029228020999991920072813004+61700+030683FM-12+001699999V0201401N006219999999N0000001N9+02171+99999101031ADDGF106991999999999999999999
0029228020999991920072820004+61700+030683FM-12+001699999V0201801N001019999999N0000001N9+01501+99999100961ADDGF108991999999999999999999
0046228020999991920072906004+61700+030683FM-12+001699999V0201801N001019999999N0000001N9+01331+99999100401ADDAJ100009199999999GF108991999999999999999999
0029228020999991920072913004+61700+030683FM-12+001699999V0203201N002119999999N0000001N9+01561+99999100561ADDGF108991999999999999999999
0029228020999991920072920004+61700+030683FM-12+001699999V0209991C000019999999N0000001N9+01441+99999100901ADDGF102991999999999999999999
0046228020999991920073006004+61700+030683FM-12+001699999V0209991C000019999999N0000001N9+01331+99999100961ADDAJ100009199999999GF108991999999999999999999
0029228020999991920073013004+61700+030683FM-12+001699999V0201401N001019999999N0000001N9+01831+99999101081ADDGF108991999999999999999999
0029228020999991920073020004+61700+030683FM-12+001699999V0209991C000019999999N0000001N9+01561+99999100951ADDGF108991999999999999999999
0052228020999991920073106004+61700+030683FM-12+001699999V0209991C000019999999N0000001N9+01671+99999100681ADDAJ100009199999999GF108991999999999999999999MW1621
0035228020999991920073113004+61700+030683FM-12+001699999V0201401N003119999999N0000001N9+02281+99999100671ADDGF108991999999999999999999MW1621
0029228020999991920073120004+61700+030683FM-12+001699999V0209991C000019999999N0000001N9+01941+99999100471ADDGF108991999999999999999999
0046228020999991920080106004+61700+030683FM-12+001699999V0201401N002119999999N0000001N9+02061+99999100241ADDAJ100009199999999GF101991999999999999999999
0029228020999991920080113004+61700+030683FM-12+001699999V0201401N001019999999N0000001N9+02441+99999100281ADDGF105991999999999999999999
0029228020999991920080120004+61700+030683FM-12+001699999V0209991C000019999999N0000001N9+02061+99999100031ADDGF108991999999999999999999
0052228020999991920080206004+61700+030683FM-12+001699999V0201401N011819999999N0000001N9+01561+99999099761ADDAJ100009199999999GF108991999999999999999999MW1621
0029228020999991920080213004+61700+030683FM-12+001699999V0201401N008219999999N0000001N9+01671+99999099781ADDGF108991999999999999999999
0029228020999991920080220004+61700+030683FM-12+001699999V0201801N006219999999N0000001N9+01671+99999100501ADDGF108991999999999999999999
0046228020999991920080306004+61700+030683FM-12+001699999V0201801N006219999999N0000001N9+01671+99999101321ADDAJ100009199999999GF106991999999999999999999
0029228020999991920080313004+61700+030683FM-12+001699999V0202301N006219999999N0000001N9+02171+99999101601ADDGF103991999999999999999999
0029228020999991920080320004+61700+030683FM-12+001699999V0201801N002119999999N0000001N9+01611+99999101791ADDGF100991999999999999999999
0046228020999991920080406004+61700+030683FM-12+001699999V0201801N001019999999N0000001N9+01561+99999101961ADDAJ100009199999999GF106991999999999999999999
0029228020999991920080413004+61700+030683FM-12+001699999V0201401N004119999999N0000001N9+02001+99999101701ADDGF108991999999999999999999
0029228020999991920080420004+61700+030683FM-12+001699999V0209991C000019999999N0000001N9+01941+99999101271ADDGF103991999999999999999999
0046228020999991920080506004+61700+030683FM-12+001699999V0202701N002119999999N0000001N9+01721+99999101541ADDAJ100009199999999GF102991999999999999999999
0029228020999991920080513004+61700+030683FM-12+001699999V0202701N004119999999N0000001N9+02391+99999101721ADDGF104991999999999999999999
0029228020999991920080520004+61700+030683FM-12+001699999V0201801N001019999999N0000001N9+01561+99999101781ADDGF101991999999999999999999
0046228020999991920080606004+61700+030683FM-12+001699999V0209991C000019999999N0000001N9+01561+99999101761ADDAJ100009199999999GF100991999999999999999999
0029228020999991920080613004+61700+030683FM-12+001699999V0201401N002119999999N0000001N9+02391+99999101401ADDGF100991999999999999999999
0029228020999991920080620004+61700+030683FM-12+001699999V0209991C000019999999N0000001N9+01781+99999101021ADDGF108991999999999999999999
0046228020999991920080706004+61700+030683FM-12+001699999V0209991C000019999999N0000001N9+01831+99999100601ADDAJ100009199999999GF106991999999999999999999
0029228020999991920080713004+61700+030683FM-12+001699999V0201801N001019999999N0000001N9+02281+99999100501ADDGF106991999999999999999999
0035228020999991920080720004+61700+030683FM-12+001699999V0203201N002119999999N0000001N9+01941+99999100441ADDGF108991999999999999999999MW1621
0046228020999991920080806004+61700+030683FM-12+001699999V0209991C000019999999N0000001N9+01671+99999100751ADDAJ100009199999999GF100991999999999999999999
0029228020999991920080813004+61700+030683FM-12+001699999V0201801N006219999999N0000001N9+01941+99999100991ADDGF104991999999999999999999
0029228020999991920080820004+61700+030683FM-12+001699999V0201801N001019999999N0000001N9+01561+99999100751ADDGF108991999999999999999999
0046228020999991920080906004+61700+030683FM-12+001699999V0201801N001019999999N0000001N9+01391+99999100681ADDAJ100009199999999GF108991999999999999999999
0029228020999991920080913004+61700+030683FM-12+001699999V0203201N008219999999N0000001N9+01561+99999100921ADDGF108991999999999999999999
0029228020999991920080920004+61700+030683FM-12+001699999V0203201N001019999999N0000001N9+01331+99999100991ADDGF106991999999999999999999
0046228020999991920081006004+61700+030683FM-12+001699999V0202301N006219999999N0000001N9+01611+99999101201ADDAJ100009199999999GF100991999999999999999999
0029228020999991920081013004+61700+030683FM-12+001699999V0203201N002119999999N0000001N9+02001+99999101361ADDGF106991999999999999999999
0029228020999991920081020004+61700+030683FM-12+001699999V0209991C000019999999N0000001N9+01671+99999101431ADDGF108991999999999999999999
0046228020999991920081106004+61700+030683FM-12+001699999V0209991C000019999999N0000001N9+01671+99999101541ADDAJ100009199999999GF100991999999999999999999
0029228020999991920081113004+61700+030683FM-12+001699999V0201801N002119999999N0000001N9+02001+99999101421ADDGF101991999999999999999999
0029228020999991920081120004+61700+030683FM-12+001699999V0209991C000019999999N0000001N9+01611+99999101201ADDGF102991999999999999999999
0046228020999991920081206004+61700+030683FM-12+001699999V0200501N002119999999N0000001N9+01441+99999101031ADDAJ100009199999999GF108991999999999999999999
0035228020999991920081213004+61700+030683FM-12+001699999V0201801N001019999999N0000001N9+01611+99999100941ADDGF108991999999999999999999MW1621
0035228020999991920081220004+61700+030683FM-12+001699999V0201801N002119999999N0000001N9+01561+99999100881ADDGF108991999999999999999999MW1621
0046228020999991920081306004+61700+030683FM-12+001699999V0200501N001019999999N0000001N9+01391+99999101021ADDAJ100009199999999GF108991999999999999999999
0029228020999991920081313004+61700+030683FM-12+001699999V0201401N001019999999N0000001N9+02001+99999101301ADDGF108991999999999999999999
0029228020999991920081320004+61700+030683FM-12+001699999V0209991C000019999999N0000001N9+01441+99999101401ADDGF101991999999999999999999
0046228020999991920081406004+61700+030683FM-12+001699999V0209991C000019999999N0000001N9+01441+99999101351ADDAJ100009199999999GF100991999999999999999999
0029228020999991920081413004+61700+030683FM-12+001699999V0201801N002119999999N0000001N9+01831+99999101271ADDGF105991999999999999999999
0029228020999991920081420004+61700+030683FM-12+001699999V0209991C000019999999N0000001N9+01611+99999101021ADDGF102991999999999999999999
0046228020999991920081506004+61700+030683FM-12+001699999V0209991C000019999999N0000001N9+01391+99999100601ADDAJ100009199999999GF104991999999999999999999
0029228020999991920081513004+61700+030683FM-12+001699999V0201401N006219999999N0000001N9+01721+99999100221ADDGF104991999999999999999999
0035228020999991920081520004+61700+030683FM-12+001699999V0209991C000019999999N0000001N9+01331+99999100111ADDGF108991999999999999999999MW1621
0046228020999991920081606004+61700+030683FM-12+001699999V0203201N002119999999N0000001N9+01281+99999100461ADDAJ100009199999999GF100991999999999999999999
0029228020999991920081613004+61700+030683FM-12+001699999V0202301N006219999999N0000001N9+01671+99999100631ADDGF102991999999999999999999
0029228020999991920081620004+61700+030683FM-12+001699999V0209991C000019999999N0000001N9+01171+99999100861ADDGF108991999999999999999999
0046228020999991920081706004+61700+030683FM-12+001699999V0209991C000019999999N0000001N9+01111+99999100861ADDAJ100009199999999GF108991999999999999999999
0029228020999991920081713004+61700+030683FM-12+001699999V0201401N006219999999N0000001N9+01721+99999100821ADDGF104991999999999999999999
0029228020999991920081720004+61700+030683FM-12+001699999V0201401N004119999999N0000001N9+01561+99999100631ADDGF102991999999999999999999
0046228020999991920081806004+61700+030683FM-12+001699999V0201801N004119999999N0000001N9+01611+99999100381ADDAJ100009199999999GF108991999999999999999999
0029228020999991920081813004+61700+030683FM-12+001699999V0201801N004119999999N0000001N9+01781+99999100631ADDGF108991999999999999999999
0029228020999991920081820004+61700+030683FM-12+001699999V0209991C000019999999N0000001N9+01501+99999100751ADDGF105991999999999999999999
0046228020999991920081906004+61700+030683FM-12+001699999V0209991C000019999999N0000001N9+01281+99999101101ADDAJ100009199999999GF102991999999999999999999
0029228020999991920081913004+61700+030683FM-12+001699999V0201401N004119999999N0000001N9+01891+99999101161ADDGF105991999999999999999999
0029228020999991920081920004+61700+030683FM-12+001699999V0201801N004119999999N0000001N9+01561+99999101081ADDGF106991999999999999999999
0046228020999991920082006004+61700+030683FM-12+001699999V0201801N001019999999N0000001N9+01501+99999101061ADDAJ100009199999999GF108991999999999999999999
0029228020999991920082013004+61700+030683FM-12+001699999V0201801N002119999999N0000001N9+02001+99999101071ADDGF108991999999999999999999
0035228020999991920082020004+61700+030683FM-12+001699999V0209991C000019999999N0000001N9+01561+99999101201ADDGF108991999999999999999999MW1621
0046228020999991920082106004+61700+030683FM-12+001699999V0200501N004119999999N0000001N9+01221+99999101991ADDAJ100009199999999GF100991999999999999999999
0029228020999991920082113004+61700+030683FM-12+001699999V0200901N001019999999N0000001N9+01781+99999102281ADDGF101991999999999999999999
0029228020999991920082120004+61700+030683FM-12+001699999V0209991C000019999999N0000001N9+01331+99999102381ADDGF108991999999999999999999
0046228020999991920082206004+61700+030683FM-12+001699999V0200701N001019999999N0000001N9+01281+99999102341ADDAJ100009199999999GF102991999999999999999999
0029228020999991920082213004+61700+030683FM-12+001699999V0201801N002119999999N0000001N9+01941+99999102151ADDGF102991999999999999999999
0029228020999991920082220004+61700+030683FM-12+001699999V0209991C000019999999N0000001N9+01221+99999102031ADDGF100991999999999999999999
0046228020999991920082306004+61700+030683FM-12+001699999V0200901N001019999999N0000001N9+01281+99999101991ADDAJ100009199999999GF100991999999999999999999
0029228020999991920082313004+61700+030683FM-12+001699999V0200901N001019999999N0000001N9+02001+99999101901ADDGF102991999999999999999999
0029228020999991920082320004+61700+030683FM-12+001699999V0209991C000019999999N0000001N9+01441+99999101921ADDGF100991999999999999999999
0046228020999991920082406004+61700+030683FM-12+001699999V0200901N001019999999N0000001N9+01281+99999102071ADDAJ100009199999999GF100991999999999999999999
0029228020999991920082413004+61700+030683FM-12+001699999V0201401N001019999999N0000001N9+02111+99999102001ADDGF106991999999999999999999
0029228020999991920082420004+61700+030683FM-12+001699999V0201401N002119999999N0000001N9+01441+99999102071ADDGF103991999999999999999999
0046228020999991920082506004+61700+030683FM-12+001699999V0200901N001019999999N0000001N9+01281+99999102021ADDAJ100009199999999GF100991999999999999999999
0029228020999991920082513004+61700+030683FM-12+001699999V0201401N004119999999N0000001N9+02001+99999101981ADDGF100991999999999999999999
0029228020999991920082520004+61700+030683FM-12+001699999V0201401N001019999999N0000001N9+01221+99999101861ADDGF100991999999999999999999
0046228020999991920082606004+61700+030683FM-12+001699999V0200501N001019999999N0000001N9+01221+99999101871ADDAJ100009199999999GF100991999999999999999999
0029228020999991920082613004+61700+030683FM-12+001699999V0200901N002119999999N0000001N9+01831+99999101911ADDGF108991999999999999999999
0029228020999991920082620004+61700+030683FM-12+001699999V0200901N006219999999N0000001N9+01561+99999101941ADDGF108991999999999999999999
0052228020999991920082706004+61700+030683FM-12+001699999V0200501N002119999999N0000001N9+01281+99999102101ADDAJ100009199999999GF108991999999999999999999MW1621
0029228020999991920082713004+61700+030683FM-12+001699999V0203601N002119999999N0000001N9+01671+99999101871ADDGF108991999999999999999999
