0029228020999991924010106004+61700+030683FM-12+001699999V0209991C000019999999N0000001N9-01061+99999102151ADDGF108991999999999999999999
0029228020999991924010113004+61700+030683FM-12+001699999V0200501N002119999999N0000001N9-01001+99999101991ADDGF108991999999999999999999
0029228020999991924010120004+61700+030683FM-12+001699999V0200701N002119999999N0000001N9-00831+99999101671ADDGF108991999999999999999999
0029228020999991924010206004+61700+030683FM-12+001699999V0201401N006219999999N0000001N9-00501+99999102201ADDGF108991999999999999999999
0035228020999991924010213004+61700+030683FM-12+001699999V0201401N008219999999N0000001N9-00561+99999102841ADDGF108991999999999999999999MW1701
0029228020999991924010220004+61700+030683FM-12+001699999V0201401N001019999999N0000001N9-00941+99999103101ADDGF108991999999999999999999
0029228020999991924010306004+61700+030683FM-12+001699999V0209991C000019999999N0000001N9-00831+99999102141ADDGF108991999999999999999999
0029228020999991924010313004+61700+030683FM-12+001699999V0200901N006219999999N0000001N9-00941+99999101921ADDGF108991999999999999999999
0029228020999991924010320004+61700+030683FM-12+001699999V0201401N002119999999N0000001N9-00501+99999101881ADDGF108991999999999999999999
0029228020999991924010406004+61700+030683FM-12+001699999V0209991C000019999999N0000001N9-00671+99999102001ADDGF108991999999999999999999
0035228020999991924010413004+61700+030683FM-12+001699999V0200901N001019999999N0000001N9-00611+99999101741ADDGF108991999999999999999999MW1721
0035228020999991924010420004+61700+030683FM-12+001699999V0201401N001019999999N0000001N9-00721+99999101561ADDGF108991999999999999999999MW1721
0035228020999991924010506004+61700+030683FM-12+001699999V0209991C000019999999N0000001N9-00831+99999101941ADDGF108991999999999999999999MW1701
0029228020999991924010513004+61700+030683FM-12+001699999V0201801N001019999999N0000001N9-00891+99999102481ADDGF108991999999999999999999
0029228020999991924010520004+61700+030683FM-12+001699999V0209991C000019999999N0000001N9-01281+99999102871ADDGF108991999999999999999999
0029228020999991924010606004+61700+030683FM-12+001699999V0209991C000019999999N0000001N9-01611+99999102871ADDGF100991999999999999999999
0029228020999991924010613004+61700+030683FM-12+001699999V0200701N001019999999N0000001N9-01281+99999102641ADDGF108991999999999999999999
0029228020999991924010620004+61700+030683FM-12+001699999V0209991C000019999999N0000001N9-01331+99999102641ADDGF100991999999999999999999
0029228020999991924010706004+61700+030683FM-12+001699999V0209991C000019999999N0000001N9-01501+99999102721ADDGF108991999999999999999999
0029228020999991924010713004+61700+030683FM-12+001699999V0200901N001019999999N0000001N9-01441+99999102721ADDGF108991999999999999999999
0029228020999991924010720004+61700+030683FM-12+001699999V0200901N002119999999N0000001N9-01111+99999102871ADDGF108991999999999999999999
0029228020999991924010806004+61700+030683FM-12+001699999V0209991C000019999999N0000001N9-00721+99999103241ADDGF108991999999999999999999
0029228020999991924010813004+61700+030683FM-12+001699999V0209991C000019999999N0000001N9-00561+99999103431ADDGF108991999999999999999999
0029228020999991924010820004+61700+030683FM-12+001699999V0209991C000019999999N0000001N9-00561+99999103341ADDGF108991999999999999999999
0029228020999991924010906004+61700+030683FM-12+001699999V0209991C000019999999N0000001N9-00611+99999103081ADDGF108991999999999999999999
0029228020999991924010913004+61700+030683FM-12+001699999V0200901N002119999999N0000001N9-00501+99999103071ADDGF108991999999999999999999
0029228020999991924010920004+61700+030683FM-12+001699999V0201401N001019999999N0000001N9-00331+99999103161ADDGF108991999999999999999999
0035228020999991924011006004+61700+030683FM-12+001699999V0209991C000019999999N0000001N9-00441+99999103271ADDGF108991999999999999999999MW1701
0029228020999991924011013004+61700+030683FM-12+001699999V0201801N004119999999N0000001N9-00391+99999103221ADDGF108991999999999999999999
0029228020999991924011020004+61700+030683FM-12+001699999V0201401N001019999999N0000001N9-00501+99999103151ADDGF108991999999999999999999
0029228020999991924011106004+61700+030683FM-12+001699999V0201401N004119999999N0000001N9-00561+99999102961ADDGF108991999999999999999999
0029228020999991924011113004+61700+030683FM-12+001699999V0201401N002119999999N0000001N9-00441+99999102921ADDGF108991999999999999999999
0029228020999991924011120004+61700+030683FM-12+001699999V0209991C000019999999N0000001N9-00501+99999102791ADDGF108991999999999999999999
0029228020999991924011206004+61700+030683FM-12+001699999V0202501N001019999999N0000001N9-00441+99999102601ADDGF108991999999999999999999
0029228020999991924011213004+61700+030683FM-12+001699999V0201401N001019999999N0000001N9-00391+99999102561ADDGF108991999999999999999999
0035228020999991924011220004+61700+030683FM-12+001699999V0201801N001019999999N0000001N9-00281+99999102351ADDGF108991999999999999999999MW1701
0029228020999991924011306004+61700+030683FM-12+001699999V0202301N004119999999N0000001N9-00111+99999101741ADDGF108991999999999999999999
0029228020999991924011313004+61700+030683FM-12+001699999V0202701N002119999999N0000001N9+00171+99999101471ADDGF108991999999999999999999
0029228020999991924011320004+61700+030683FM-12+001699999V0202501N002119999999N0000001N9+00171+99999101191ADDGF108991999999999999999999
0029228020999991924011406004+61700+030683FM-12+001699999V0202301N002119999999N0000001N9+00171+99999101161ADDGF108991999999999999999999
0029228020999991924011413004+61700+030683FM-12+001699999V0202301N003119999999N0000001N9+00171+99999101141ADDGF108991999999999999999999
0029228020999991924011420004+61700+030683FM-12+001699999V0202301N002119999999N0000001N9+00001+99999101111ADDGF108991999999999999999999
0029228020999991924011506004+61700+030683FM-12+001699999V0202701N004119999999N0000001N9+00171+99999101181ADDGF108991999999999999999999
0029228020999991924011513004+61700+030683FM-12+001699999V0202701N001019999999N0000001N9+00171+99999101281ADDGF108991999999999999999999
0029228020999991924011520004+61700+030683FM-12+001699999V0203201N004119999999N0000001N9+00171+99999101461ADDGF108991999999999999999999
0029228020999991924011606004+61700+030683FM-12+001699999V0209991C000019999999N0000001N9-00061+99999101991ADDGF108991999999999999999999
0029228020999991924011613004+61700+030683FM-12+001699999V0209991C000019999999N0000001N9-00061+99999102481ADDGF108991999999999999999999
0029228020999991924011620004+61700+030683FM-12+001699999V0209991C000019999999N0000001N9-00221+99999102701ADDGF108991999999999999999999
0035228020999991924011706004+61700+030683FM-12+001699999V0201601N002119999999N0000001N9-00061+99999102871ADDGF108991999999999999999999MW1701
0029228020999991924011713004+61700+030683FM-12+001699999V0201801N001019999999N0000001N9-00111+99999102801ADDGF108991999999999999999999
0029228020999991924011720004+61700+030683FM-12+001699999V0202301N002119999999N0000001N9-00221+99999102551ADDGF108991999999999999999999
0029228020999991924011806004+61700+030683FM-12+001699999V0202701N002119999999N0000001N9-00331+99999102351ADDGF108991999999999999999999
0029228020999991924011813004+61700+030683FM-12+001699999V0202701N001019999999N0000001N9-00441+99999102261ADDGF108991999999999999999999
0029228020999991924011820004+61700+030683FM-12+001699999V0209991C000019999999N0000001N9-00501+99999102201ADDGF108991999999999999999999
0029228020999991924011906004+61700+030683FM-12+001699999V0200901N004119999999N0000001N9-00391+99999102071ADDGF108991999999999999999999
0029228020999991924011913004+61700+030683FM-12+001699999V0201101N004119999999N0000001N9-00721+99999101921ADDGF108991999999999999999999
0029228020999991924011920004+61700+030683FM-12+001699999V0200901N002119999999N0000001N9-01061+99999101661ADDGF108991999999999999999999
0029228020999991924012006004+61700+030683FM-12+001699999V0200901N004119999999N0000001N9-01331+99999101041ADDGF108991999999999999999999
0035228020999991924012013004+61700+030683FM-12+001699999V0200901N006219999999N0000001N9-01391+99999100711ADDGF108991999999999999999999MW1861
0035228020999991924012020004+61700+030683FM-12+001699999V0200701N009819999999N0000001N9-01501+99999100351ADDGF108991999999999999999999MW1861
0029228020999991924012106004+61700+030683FM-12+001699999V0200701N002119999999N0000001N9-01781+99999100591ADDGF108991999999999999999999
0029228020999991924012113004+61700+030683FM-12+001699999V0200501N008219999999N0000001N9-01941+99999100901ADDGF108991999999999999999999
0029228020999991924012120004+61700+030683FM-12+001699999V0200501N011819999999N0000001N9-01831+99999101471ADDGF108991999999999999999999
0029228020999991924012206004+61700+030683FM-12+001699999V0200501N004119999999N0000001N9-02061+99999101941ADDGF100991999999999999999999
0029228020999991924012213004+61700+030683FM-12+001699999V0203601N002119999999N0000001N9-01831+99999102561ADDGF100991999999999999999999
0029228020999991924012220004+61700+030683FM-12+001699999V0203601N002119999999N0000001N9-02061+99999103101ADDGF100991999999999999999999
0029228020999991924012306004+61700+030683FM-12+001699999V0203601N002119999999N0000001N9-02611+99999103161ADDGF100991999999999999999999
0029228020999991924012313004+61700+030683FM-12+001699999V0203601N001019999999N0000001N9-02281+99999102941ADDGF105991999999999999999999
0029228020999991924012320004+61700+030683FM-12+001699999V0203601N001019999999N0000001N9-01781+99999102521ADDGF100991999999999999999999
0029228020999991924012406004+61700+030683FM-12+001699999V0200501N002119999999N0000001N9-01441+99999102941ADDGF100991999999999999999999
0029228020999991924012413004+61700+030683FM-12+001699999V0200901N001019999999N0000001N9-01671+99999103421ADDGF100991999999999999999999
0029228020999991924012420004+61700+030683FM-12+001699999V0200901N001019999999N0000001N9-02171+99999103591ADDGF100991999999999999999999
0029228020999991924012506004+61700+030683FM-12+001699999V0209991C000019999999N0000001N9-02171+99999103881ADDGF100991999999999999999999
0029228020999991924012513004+61700+030683FM-12+001699999V0200901N002119999999N0000001N9-02171+99999103951ADDGF100991999999999999999999
0029228020999991924012520004+61700+030683FM-12+001699999V0200901N001019999999N0000001N9-02391+99999104041ADDGF100991999999999999999999
0029228020999991924012606004+61700+030683FM-12+001699999V0209991C000019999999N0000001N9-02331+99999103831ADDGF108991999999999999999999
0029228020999991924012613004+61700+030683FM-12+001699999V0201401N006219999999N0000001N9-01781+99999103481ADDGF108991999999999999999999
0029228020999991924012620004+61700+030683FM-12+001699999V0201401N002119999999N0000001N9-01781+99999103041ADDGF108991999999999999999999
0029228020999991924012706004+61700+030683FM-12+001699999V0201801N009819999999N0000001N9-01721+99999101901ADDGF108991999999999999999999
0035228020999991924012713004+61700+030683FM-12+001699999V0201401N011819999999N0000001N9-01441+99999101101ADDGF108991999999999999999999MW1721
0035228020999991924012720004+61700+030683FM-12+001699999V0201401N011819999999N0000001N9-01281+99999100511ADDGF108991999999999999999999MW1721
0035228020999991924012806004+61700+030683FM-12+001699999V0201401N004119999999N0000001N9-01281+99999100401ADDGF108991999999999999999999MW1721
0035228020999991924012813004+61700+030683FM-12+001699999V0201601N009819999999N0000001N9-01061+99999100551ADDGF108991999999999999999999MW1721
0035228020999991924012820004+61700+030683FM-12+001699999V0201401N006219999999N0000001N9-01001+99999100781ADDGF108991999999999999999999MW1721
0029228020999991924012906004+61700+030683FM-12+001699999V0201401N001019999999N0000001N9-01171+99999100791ADDGF108991999999999999999999
0029228020999991924012913004+61700+030683FM-12+001699999V0201401N002119999999N0000001N9-01281+99999101021ADDGF108991999999999999999999
0029228020999991924012920004+61700+030683FM-12+001699999V0209991C000019999999N0000001N9-01441+99999101381ADDGF108991999999999999999999
0029228020999991924013006004+61700+030683FM-12+001699999V0209991C000019999999N0000001N9-01441+99999101141ADDGF108991999999999999999999
0029228020999991924013013004+61700+030683FM-12+001699999V0209991C000019999999N0000001N9-00831+99999101221ADDGF108991999999999999999999
0029228020999991924013020004+61700+030683FM-12+001699999V0209991C000019999999N0000001N9-00441+99999101061ADDGF108991999999999999999999
0035228020999991924013106004+61700+030683FM-12+001699999V0209991C000019999999N0000001N9-00221+99999100511ADDGF108991999999999999999999MW1701
0029228020999991924013113004+61700+030683FM-12+001699999V0203201N004119999999N0000001N9+00111+99999100431ADDGF102991999999999999999999
0029228020999991924013120004+61700+030683FM-12+001699999V0203201N001019999999N0000001N9-00221+99999100861ADDGF100991999999999999999999
0029228020999991924020106004+61700+030683FM-12+001699999V0209991C000019999999N0000001N9-01061+99999100701ADDGF100991999999999999999999
0035228020999991924020113004+61700+030683FM-12+001699999V0201801N006219999999N0000001N9-00331+99999099721ADDGF108991999999999999999999MW1721
0035228020999991924020120004+61700+030683FM-12+001699999V0201801N002119999999N0000001N9-00281+99999099001ADDGF108991999999999999999999MW1721
0029228020999991924020206004+61700+030683FM-12+001699999V0209991C000019999999N0000001N9-00781+99999098951ADDGF100991999999999999999999
0029228020999991924020213004+61700+030683FM-12+001699999V0201401N003119999999N0000001N9-00611+99999098631ADDGF108991999999999999999999
0035228020999991924020220004+61700+030683FM-12+001699999V0201401N002119999999N0000001N9-00221+99999097991ADDGF108991999999999999999999MW1721
0029228020999991924020306004+61700+030683FM-12+001699999V0201101N008219999999N0000001N9-00111+99999097701ADDGF108991999999999999999999
0035228020999991924020313004+61700+030683FM-12+001699999V0201101N008219999999N0000001N9-00171+99999098031ADDGF108991999999999999999999MW1721
0035228020999991924020320004+61700+030683FM-12+001699999V0200901N001019999999N0000001N9-00281+99999098641ADDGF108991999999999999999999MW1721
0029228020999991924020406004+61700+030683FM-12+001699999V0200901N002119999999N0000001N9-00561+99999099021ADDGF108991999999999999999999
0035228020999991924020413004+61700+030683FM-12+001699999V0200901N001019999999N0000001N9-00671+99999099101ADDGF108991999999999999999999MW1721
0029228020999991924020420004+61700+030683FM-12+001699999V0209991C000019999999N0000001N9-00781+99999099221ADDGF100991999999999999999999
0035228020999991924020506004+61700+030683FM-12+001699999V0200901N001019999999N0000001N9-00941+99999099081ADDGF108991999999999999999999MW1721
0035228020999991924020513004+61700+030683FM-12+001699999V0200501N001019999999N0000001N9-00721+99999098981ADDGF108991999999999999999999MW1721
0029228020999991924020520004+61700+030683FM-12+001699999V0200501N002119999999N0000001N9-00781+99999098871ADDGF108991999999999999999999
0035228020999991924020606004+61700+030683FM-12+001699999V0209991C000019999999N0000001N9-00891+99999098431ADDGF108991999999999999999999MW1721
0029228020999991924020613004+61700+030683FM-12+001699999V0209991C000019999999N0000001N9-00721+99999098421ADDGF108991999999999999999999
0029228020999991924020620004+61700+030683FM-12+001699999V0209991C000019999999N0000001N9-01111+99999098701ADDGF104991999999999999999999
0029228020999991924020706004+61700+030683FM-12+001699999V0209991C000019999999N0000001N9-01171+99999098861ADDGF108991999999999999999999
0035228020999991924020713004+61700+030683FM-12+001699999V0200901N001019999999N0000001N9-00941+99999098871ADDGF108991999999999999999999MW1721
0029228020999991924020720004+61700+030683FM-12+001699999V0209991C000019999999N0000001N9-01061+99999099061ADDGF100991999999999999999999
0035228020999991924020806004+61700+030683FM-12+001699999V0209991C000019999999N0000001N9-01281+99999099601ADDGF108991999999999999999999MW1701
0029228020999991924020813004+61700+030683FM-12+001699999V0209991C000019999999N0000001N9-01221+99999999999ADDGF104991999999999999999999
0029228020999991924020820004+61700+030683FM-12+001699999V0209991C000019999999N0000001N9-01441+99999100541ADDGF100991999999999999999999
0029228020999991924020906004+61700+030683FM-12+001699999V0209991C000019999999N0000001N9-01331+99999100661ADDGF100991999999999999999999
0035228020999991924020913004+61700+030683FM-12+001699999V0203601N002119999999N0000001N9-01001+99999100301ADDGF108991999999999999999999MW1741
0029228020999991924020920004+61700+030683FM-12+001699999V0209991C000019999999N0000001N9-01221+99999100441ADDGF100991999999999999999999
0035228020999991924021006004+61700+030683FM-12+001699999V0201401N008219999999N0000001N9-01171+99999102101ADDGF108991999999999999999999MW1861
0029228020999991924021013004+61700+030683FM-12+001699999V0200901N009819999999N0000001N9-01221+99999102761ADDGF108991999999999999999999
0029228020999991924021020004+61700+030683FM-12+001699999V0201401N009819999999N0000001N9-01111+99999103281ADDGF108991999999999999999999
0029228020999991924021106004+61700+030683FM-12+001699999V0209991C000019999999N0000001N9-02281+99999103641ADDGF100991999999999999999999
0029228020999991924021113004+61700+030683FM-12+001699999V0209991C000019999999N0000001N9-01001+99999103301ADDGF106991999999999999999999
0029228020999991924021120004+61700+030683FM-12+001699999V0200901N001019999999N0000001N9-01061+99999103221ADDGF100991999999999999999999
0029228020999991924021206004+61700+030683FM-12+001699999V0200701N004119999999N0000001N9-01281+99999102951ADDGF100991999999999999999999
0029228020999991924021213004+61700+030683FM-12+001699999V0200901N002119999999N0000001N9-01171+99999103061ADDGF108991999999999999999999
0029228020999991924021220004+61700+030683FM-12+001699999V0200901N001019999999N0000001N9-01171+99999102751ADDGF100991999999999999999999
0035228020999991924021306004+61700+030683FM-12+001699999V0200901N002119999999N0000001N9-01281+99999101941ADDGF108991999999999999999999MW1721
0035228020999991924021313004+61700+030683FM-12+001699999V0200901N004119999999N0000001N9-00941+99999101831ADDGF108991999999999999999999MW1721
0035228020999991924021320004+61700+030683FM-12+001699999V0200901N004119999999N0000001N9-00831+99999101901ADDGF108991999999999999999999MW1721
0029228020999991924021406004+61700+030683FM-12+001699999V0200701N001019999999N0000001N9-00831+99999101921ADDGF108991999999999999999999
0035228020999991924021413004+61700+030683FM-12+001699999V0200901N004119999999N0000001N9-00561+99999102001ADDGF108991999999999999999999MW1721
0029228020999991924021420004+61700+030683FM-12+001699999V0201401N008219999999N0000001N9-00721+99999102111ADDGF108991999999999999999999
0035228020999991924021506004+61700+030683FM-12+001699999V0201401N009819999999N0000001N9-00441+99999102001ADDGF108991999999999999999999MW1721
0029228020999991924021513004+61700+030683FM-12+001699999V0201401N004119999999N0000001N9-00611+99999102281ADDGF108991999999999999999999
0029228020999991924021520004+61700+030683FM-12+001699999V0201801N008219999999N0000001N9-00561+99999102401ADDGF108991999999999999999999
0035228020999991924021606004+61700+030683FM-12+001699999V0202501N004119999999N0000001N9-01111+99999102561ADDGF108991999999999999999999MW1721
0029228020999991924021613004+61700+030683FM-12+001699999V0209991C000019999999N0000001N9-00941+99999102761ADDGF100991999999999999999999
0029228020999991924021620004+61700+030683FM-12+001699999V0209991C000019999999N0000001N9-01281+99999102721ADDGF108991999999999999999999
0029228020999991924021706004+61700+030683FM-12+001699999V0201801N002119999999N0000001N9-00781+99999102461ADDGF108991999999999999999999
0029228020999991924021713004+61700+030683FM-12+001699999V0201801N004119999999N0000001N9-00831+99999102121ADDGF108991999999999999999999
0035228020999991924021720004+61700+030683FM-12+001699999V0201801N006219999999N0000001N9-01001+99999101721ADDGF108991999999999999999999MW1721
0035228020999991924021806004+61700+030683FM-12+001699999V0201601N004119999999N0000001N9-00941+99999100861ADDGF108991999999999999999999MW1721
0029228020999991924021813004+61700+030683FM-12+001699999V0201401N002119999999N0000001N9-00891+99999100711ADDGF108991999999999999999999
0029228020999991924021820004+61700+030683FM-12+001699999V0201401N002119999999N0000001N9-00611+99999100621ADDGF108991999999999999999999
0035228020999991924021906004+61700+030683FM-12+001699999V0202301N002119999999N0000001N9-00281+99999100341ADDGF108991999999999999999999MW1721
0035228020999991924021913004+61700+030683FM-12+001699999V0202301N004119999999N0000001N9-00221+99999100351ADDGF108991999999999999999999MW1721
0029228020999991924021920004+61700+030683FM-12+001699999V0203201N001019999999N0000001N9-00891+99999101101ADDGF100991999999999999999999
0029228020999991924022006004+61700+030683FM-12+001699999V0209991C000019999999N0000001N9-01281+99999101431ADDGF108991999999999999999999
0029228020999991924022013004+61700+030683FM-12+001699999V0202301N002119999999N0000001N9-00941+99999101401ADDGF108991999999999999999999
0029228020999991924022020004+61700+030683FM-12+001699999V0201401N002119999999N0000001N9-01061+99999101141ADDGF108991999999999999999999
0035228020999991924022106004+61700+030683FM-12+001699999V0201101N006219999999N0000001N9-01001+99999100521ADDGF108991999999999999999999MW1721
0035228020999991924022113004+61700+030683FM-12+001699999V0201401N006219999999N0000001N9-00831+99999100271ADDGF108991999999999999999999MW1721
0035228020999991924022120004+61700+030683FM-12+001699999V0200901N008219999999N0000001N9-00721+99999100301ADDGF108991999999999999999999MW1721
0035228020999991924022206004+61700+030683FM-12+001699999V0200701N006219999999N0000001N9-00781+99999100421ADDGF108991999999999999999999MW1721
0029228020999991924022213004+61700+030683FM-12+001699999V0201401N002119999999N0000001N9-00781+99999100471ADDGF108991999999999999999999
0035228020999991924022220004+61700+030683FM-12+001699999V0200501N008219999999N0000001N9-01001+99999100361ADDGF108991999999999999999999MW1721
0029228020999991924022306004+61700+030683FM-12+001699999V0200701N002119999999N0000001N9-01111+99999100311ADDGF108991999999999999999999
0035228020999991924022313004+61700+030683FM-12+001699999V0200501N002119999999N0000001N9-00671+99999100431ADDGF108991999999999999999999MW1721
0035228020999991924022320004+61700+030683FM-12+001699999V0200501N002119999999N0000001N9-00561+99999100511ADDGF108991999999999999999999MW1721
0035228020999991924022406004+61700+030683FM-12+001699999V0201601N002119999999N0000001N9-00561+99999100721ADDGF108991999999999999999999MW1721
0035228020999991924022413004+61700+030683FM-12+001699999V0201801N004119999999N0000001N9-00721+99999101241ADDGF108991999999999999999999MW1721
0029228020999991924022420004+61700+030683FM-12+001699999V0201401N001019999999N0000001N9-01001+99999101641ADDGF108991999999999999999999
0035228020999991924022506004+61700+030683FM-12+001699999V0201401N004119999999N0000001N9-00891+99999102151ADDGF108991999999999999999999MW1721
0029228020999991924022513004+61700+030683FM-12+001699999V0201401N001019999999N0000001N9-00561+99999102401ADDGF102991999999999999999999
0035228020999991924022520004+61700+030683FM-12+001699999V0201401N001019999999N0000001N9-00611+99999102551ADDGF108991999999999999999999MW1721
0035228020999991924022606004+61700+030683FM-12+001699999V0201401N006219999999N0000001N9-00831+99999102591ADDGF108991999999999999999999MW1721
0035228020999991924022613004+61700+030683FM-12+001699999V0201401N002119999999N0000001N9-00721+99999102641ADDGF108991999999999999999999MW1721
0035228020999991924022620004+61700+030683FM-12+001699999V0201801N002119999999N0000001N9-00781+99999102681ADDGF108991999999999999999999MW1721
0035228020999991924022706004+61700+030683FM-12+001699999V0209991C000019999999N0000001N9-02001+99999102511ADDGF108991999999999999999999MW1721
0035228020999991924022713004+61700+030683FM-12+001699999V0201801N002119999999N0000001N9-01111+99999102181ADDGF108991999999999999999999MW1721
0029228020999991924022720004+61700+030683FM-12+001699999V0209991C000019999999N0000001N9-01501+99999101711ADDGF108991999999999999999999
0035228020999991924022806004+61700+030683FM-12+001699999V0201801N004119999999N0000001N9-01001+99999101241ADDGF108991999999999999999999MW1721
0035228020999991924022813004+61700+030683FM-12+001699999V0201801N004119999999N0000001N9-00891+99999101141ADDGF108991999999999999999999MW1721
0029228020999991924022820004+61700+030683FM-12+001699999V0209991C000019999999N0000001N9-00831+99999100991ADDGF108991999999999999999999
0035228020999991924022906004+61700+030683FM-12+001699999V0201401N002119999999N0000001N9-00891+99999100481ADDGF108991999999999999999999MW1721
0029228020999991924022913004+61700+030683FM-12+001699999V0201401N002119999999N0000001N9-00781+99999100381ADDGF103991999999999999999999
0029228020999991924022920004+61700+030683FM-12+001699999V0201401N002119999999N0000001N9-01061+99999100441ADDGF108991999999999999999999
0035228020999991924030106004+61700+030683FM-12+001699999V0200901N004119999999N0000001N9-00941+99999099881ADDGF108991999999999999999999MW1721
0035228020999991924030113004+61700+030683FM-12+001699999V0201101N008219999999N0000001N9-00781+99999099541ADDGF108991999999999999999999MW1721
0035228020999991924030120004+61700+030683FM-12+001699999V0200901N002119999999N0000001N9-00721+99999099541ADDGF108991999999999999999999MW1721
0035228020999991924030206004+61700+030683FM-12+001699999V0201401N001019999999N0000001N9-00781+99999099261ADDGF108991999999999999999999MW1721
0035228020999991924030213004+61700+030683FM-12+001699999V0201401N002119999999N0000001N9-00561+99999099551ADDGF108991999999999999999999MW1721
0029228020999991924030220004+61700+030683FM-12+001699999V0201401N004119999999N0000001N9-00941+99999100191ADDGF108991999999999999999999
0029228020999991924030306004+61700+030683FM-12+001699999V0201801N001019999999N0000001N9-01281+99999100921ADDGF108991999999999999999999
0035228020999991924030313004+61700+030683FM-12+001699999V0201801N001019999999N0000001N9-01001+99999100871ADDGF108991999999999999999999MW1721
0029228020999991924030320004+61700+030683FM-12+001699999V0200901N001019999999N0000001N9-00941+99999101071ADDGF108991999999999999999999
0029228020999991924030406004+61700+030683FM-12+001699999V0201401N004119999999N0000001N9-00441+99999101151ADDGF108991999999999999999999
0029228020999991924030413004+61700+030683FM-12+001699999V0201601N006219999999N0000001N9-00221+99999101201ADDGF108991999999999999999999
0029228020999991924030420004+61700+030683FM-12+001699999V0201801N001019999999N0000001N9+00001+99999101551ADDGF108991999999999999999999
0029228020999991924030506004+61700+030683FM-12+001699999V0201601N003119999999N0000001N9-00331+99999101981ADDGF108991999999999999999999
0029228020999991924030513004+61700+030683FM-12+001699999V0200701N002119999999N0000001N9-00111+99999102021ADDGF108991999999999999999999
0029228020999991924030520004+61700+030683FM-12+001699999V0201801N004119999999N0000001N9-00111+99999102071ADDGF108991999999999999999999
0035228020999991924030606004+61700+030683FM-12+001699999V0201401N008219999999N0000001N9-00441+99999101901ADDGF108991999999999999999999MW1721
0035228020999991924030613004+61700+030683FM-12+001699999V0201801N008219999999N0000001N9-00281+99999101831ADDGF108991999999999999999999MW1721
0035228020999991924030620004+61700+030683FM-12+001699999V0201801N008219999999N0000001N9-00171+99999102101ADDGF108991999999999999999999MW1721
0029228020999991924030706004+61700+030683FM-12+001699999V0202301N001019999999N0000001N9-00171+99999102521ADDGF105991999999999999999999
0029228020999991924030713004+61700+030683FM-12+001699999V0209991C000019999999N0000001N9+00001+99999102981ADDGF108991999999999999999999
0029228020999991924030720004+61700+030683FM-12+001699999V0209991C000019999999N0000001N9-00171+99999103121ADDGF108991999999999999999999
0029228020999991924030806004+61700+030683FM-12+001699999V0202701N001019999999N0000001N9-00441+99999103021ADDGF108991999999999999999999
0029228020999991924030813004+61700+030683FM-12+001699999V0201801N004119999999N0000001N9-00331+99999102751ADDGF108991999999999999999999
0029228020999991924030820004+61700+030683FM-12+001699999V0201801N004119999999N0000001N9-00501+99999102381ADDGF108991999999999999999999
0029228020999991924030906004+61700+030683FM-12+001699999V0201801N009819999999N0000001N9-00611+99999101631ADDGF108991999999999999999999
0029228020999991924030913004+61700+030683FM-12+001699999V0201801N002119999999N0000001N9-00441+99999101421ADDGF108991999999999999999999
0029228020999991924030920004+61700+030683FM-12+001699999V0202301N002119999999N0000001N9-00281+99999101441ADDGF108991999999999999999999
0029228020999991924031006004+61700+030683FM-12+001699999V0202501N004119999999N0000001N9-00111+99999101421ADDGF108991999999999999999999
0029228020999991924031013004+61700+030683FM-12+001699999V0202701N001019999999N0000001N9+00171+99999101581ADDGF103991999999999999999999
0029228020999991924031020004+61700+030683FM-12+001699999V0209991C000019999999N0000001N9-00611+99999101821ADDGF100991999999999999999999
0029228020999991924031106004+61700+030683FM-12+001699999V0200501N004119999999N0000001N9-00781+99999102271ADDGF108991999999999999999999
0029228020999991924031113004+61700+030683FM-12+001699999V0200901N004119999999N0000001N9-00441+99999102561ADDGF102991999999999999999999
0029228020999991924031120004+61700+030683FM-12+001699999V0200501N001019999999N0000001N9-00941+99999102951ADDGF100991999999999999999999
0029228020999991924031206004+61700+030683FM-12+001699999V0200501N001019999999N0000001N9-01941+99999103341ADDGF100991999999999999999999
0029228020999991924031213004+61700+030683FM-12+001699999V0200501N002119999999N0000001N9-00501+99999103351ADDGF100991999999999999999999
0029228020999991924031220004+61700+030683FM-12+001699999V0209991C000019999999N0000001N9-01331+99999103381ADDGF100991999999999999999999
0029228020999991924031306004+61700+030683FM-12+001699999V0209991C000019999999N0000001N9-02331+99999103241ADDGF100991999999999999999999
0029228020999991924031313004+61700+030683FM-12+001699999V0209991C000019999999N0000001N9-00221+99999103071ADDGF103991999999999999999999
0029228020999991924031320004+61700+030683FM-12+001699999V0200901N002119999999N0000001N9-00561+99999102861ADDGF100991999999999999999999
0029228020999991924031406004+61700+030683FM-12+001699999V0202501N002119999999N0000001N9-00831+99999102671ADDGF108991999999999999999999
0029228020999991924031413004+61700+030683FM-12+001699999V0202701N002119999999N0000001N9-00331+99999102581ADDGF108991999999999999999999
0029228020999991924031420004+61700+030683FM-12+001699999V0202701N004119999999N0000001N9-00561+99999102111ADDGF108991999999999999999999
0029228020999991924031506004+61700+030683FM-12+001699999V0201801N002119999999N0000001N9-00561+99999101281ADDGF102991999999999999999999
0029228020999991924031513004+61700+030683FM-12+001699999V0201801N008219999999N0000001N9-00221+99999100861ADDGF108991999999999999999999
0029228020999991924031520004+61700+030683FM-12+001699999V0201801N008219999999N0000001N9-00061+99999100081ADDGF108991999999999999999999
0029228020999991924031606004+61700+030683FM-12+001699999V0201801N005119999999N0000001N9-00441+99999099361ADDGF108991999999999999999999
0029228020999991924031613004+61700+030683FM-12+001699999V0201401N004119999999N0000001N9-00281+99999099321ADDGF108991999999999999999999
0029228020999991924031620004+61700+030683FM-12+001699999V0201401N004119999999N0000001N9-00391+99999099311ADDGF108991999999999999999999
0035228020999991924031706004+61700+030683FM-12+001699999V0201401N006219999999N0000001N9-00671+99999099181ADDGF108991999999999999999999MW1721
0035228020999991924031713004+61700+030683FM-12+001699999V0201401N004119999999N0000001N9-00331+99999099221ADDGF108991999999999999999999MW1721
0035228020999991924031720004+61700+030683FM-12+001699999V0200901N002119999999N0000001N9-00501+99999099271ADDGF108991999999999999999999MW1721
0035228020999991924031806004+61700+030683FM-12+001699999V0200501N002119999999N0000001N9-00721+99999099081ADDGF108991999999999999999999MW1721
0035228020999991924031813004+61700+030683FM-12+001699999V0201401N006219999999N0000001N9-00611+99999099201ADDGF108991999999999999999999MW1721
0035228020999991924031820004+61700+030683FM-12+001699999V0201601N006219999999N0000001N9-00721+99999099361ADDGF108991999999999999999999MW1721
0035228020999991924031906004+61700+030683FM-12+001699999V0201401N001019999999N0000001N9-01221+99999099581ADDGF108991999999999999999999MW1721
0035228020999991924031913004+61700+030683FM-12+001699999V0201401N002119999999N0000001N9-00941+99999099631ADDGF108991999999999999999999MW1721
0029228020999991924031920004+61700+030683FM-12+001699999V0201401N001019999999N0000001N9-01281+99999099701ADDGF108991999999999999999999
0035228020999991924032006004+61700+030683FM-12+001699999V0209991C000019999999N0000001N9-01611+99999099831ADDGF108991999999999999999999MW1701
0029228020999991924032013004+61700+030683FM-12+001699999V0201101N002119999999N0000001N9-00391+99999099981ADDGF100991999999999999999999
0029228020999991924032020004+61700+030683FM-12+001699999V0209991C000019999999N0000001N9-01221+99999100341ADDGF100991999999999999999999
0035228020999991924032106004+61700+030683FM-12+001699999V0209991C000019999999N0000001N9-01001+99999100631ADDGF108991999999999999999999MW1701
0029228020999991924032113004+61700+030683FM-12+001699999V0203201N002119999999N0000001N9-00441+99999100821ADDGF104991999999999999999999
0029228020999991924032120004+61700+030683FM-12+001699999V0203201N001019999999N0000001N9-01281+99999101101ADDGF105991999999999999999999
0029228020999991924032206004+61700+030683FM-12+001699999V0209991C000019999999N0000001N9-01501+99999101181ADDGF106991999999999999999999
0029228020999991924032213004+61700+030683FM-12+001699999V0201601N003119999999N0000001N9-00561+99999101061ADDGF100991999999999999999999
0029228020999991924032220004+61700+030683FM-12+001699999V0201801N004119999999N0000001N9-00671+99999100631ADDGF100991999999999999999999
0029228020999991924032306004+61700+030683FM-12+001699999V0209991C000019999999N0000001N9-01331+99999100121ADDGF104991999999999999999999
0029228020999991924032313004+61700+030683FM-12+001699999V0201801N002119999999N0000001N9-00501+99999100181ADDGF106991999999999999999999
0035228020999991924032320004+61700+030683FM-12+001699999V0201801N002119999999N0000001N9-01061+99999100361ADDGF108991999999999999999999MW1721
0029228020999991924032406004+61700+030683FM-12+001699999V0209991C000019999999N0000001N9-01001+99999100951ADDGF100991999999999999999999
0029228020999991924032413004+61700+030683FM-12+001699999V0200501N001019999999N0000001N9-00171+99999101281ADDGF100991999999999999999999
0029228020999991924032420004+61700+030683FM-12+001699999V0209991C000019999999N0000001N9-00891+99999101521ADDGF100991999999999999999999
0035228020999991924032506004+61700+030683FM-12+001699999V0200901N008219999999N0000001N9-00671+99999101151ADDGF108991999999999999999999MW1721
0035228020999991924032513004+61700+030683FM-12+001699999V0200901N006219999999N0000001N9-00611+99999100601ADDGF108991999999999999999999MW1721
0035228020999991924032520004+61700+030683FM-12+001699999V0200501N008219999999N0000001N9-00561+99999100261ADDGF108991999999999999999999MW1721
0035228020999991924032606004+61700+030683FM-12+001699999V0200701N006219999999N0000001N9-00441+99999100311ADDGF108991999999999999999999MW1721
0035228020999991924032613004+61700+030683FM-12+001699999V0200501N006219999999N0000001N9-00331+99999100541ADDGF108991999999999999999999MW1721
0035228020999991924032620004+61700+030683FM-12+001699999V0200901N004119999999N0000001N9-00331+99999100861ADDGF108991999999999999999999MW1721
0035228020999991924032706004+61700+030683FM-12+001699999V0200701N004119999999N0000001N9-00281+99999101031ADDGF108991999999999999999999MW1721
0029228020999991924032713004+61700+030683FM-12+001699999V0200501N002119999999N0000001N9-00111+99999101031ADDGF108991999999999999999999
0035228020999991924032720004+61700+030683FM-12+001699999V0201401N004119999999N0000001N9+00111+99999100951ADDGF108991999999999999999999MW1621
0035228020999991924032806004+61700+030683FM-12+001699999V0201101N004119999999N0000001N9+00111+99999100711ADDGF108991999999999999999999MW1621
0029228020999991924032813004+61700+030683FM-12+001699999V0201401N004119999999N0000001N9+00111+99999100831ADDGF108991999999999999999999
0029228020999991924032820004+61700+030683FM-12+001699999V0201101N002119999999N0000001N9+00111+99999100791ADDGF108991999999999999999999
0029228020999991924032906004+61700+030683FM-12+001699999V0201101N002119999999N0000001N9+00171+99999100511ADDGF108991999999999999999999
0029228020999991924032913004+61700+030683FM-12+001699999V0209991C000019999999N0000001N9+00221+99999100441ADDGF108991999999999999999999
0029228020999991924032920004+61700+030683FM-12+001699999V0209991C000019999999N0000001N9+00111+99999100621ADDGF108991999999999999999999
0029228020999991924033006004+61700+030683FM-12+001699999V0209991C000019999999N0000001N9+00111+99999100501ADDGF108991999999999999999999
0035228020999991924033013004+61700+030683FM-12+001699999V0209991C000019999999N0000001N9+00171+99999100071ADDGF108991999999999999999999MW1621
0029228020999991924033020004+61700+030683FM-12+001699999V0209991C000019999999N0000001N9+00061+99999099711ADDGF108991999999999999999999
0029228020999991924033106004+61700+030683FM-12+001699999V0203201N004119999999N0000001N9-00061+99999100121ADDGF108991999999999999999999
0029228020999991924033113004+61700+030683FM-12+001699999V0203201N002119999999N0000001N9+00501+99999100441ADDGF103991999999999999999999
0029228020999991924033120004+61700+030683FM-12+001699999V0209991C000019999999N0000001N9+00001+99999100671ADDGF108991999999999999999999
0035228020999991924040106004+61700+030683FM-12+001699999V0203201N001019999999N0000001N9-00171+99999101071ADDGF108991999999999999999999MW1701
0029228020999991924040113004+61700+030683FM-12+001699999V0203201N002119999999N0000001N9+00111+99999101401ADDGF108991999999999999999999
0029228020999991924040120004+61700+030683FM-12+001699999V0203201N001019999999N0000001N9-00171+99999101711ADDGF102991999999999999999999
0029228020999991924040206004+61700+030683FM-12+001699999V0203201N001019999999N0000001N9-00561+99999102201ADDGF106991999999999999999999
0029228020999991924040213004+61700+030683FM-12+001699999V0203601N004119999999N0000001N9-00061+99999102351ADDGF102991999999999999999999
0029228020999991924040220004+61700+030683FM-12+001699999V0203601N001019999999N0000001N9-00441+99999102341ADDGF100991999999999999999999
0029228020999991924040306004+61700+030683FM-12+001699999V0209991C000019999999N0000001N9-01221+99999101961ADDGF100991999999999999999999
0029228020999991924040313004+61700+030683FM-12+001699999V0202701N002119999999N0000001N9+00391+99999101441ADDGF102991999999999999999999
0029228020999991924040320004+61700+030683FM-12+001699999V0202901N004119999999N0000001N9+00061+99999100831ADDGF108991999999999999999999
0029228020999991924040406004+61700+030683FM-12+001699999V0203601N006219999999N0000001N9+00001+99999100841ADDGF108991999999999999999999
0029228020999991924040413004+61700+030683FM-12+001699999V0200201N002119999999N0000001N9+00221+99999101061ADDGF108991999999999999999999
0029228020999991924040420004+61700+030683FM-12+001699999V0209991C000019999999N0000001N9-00221+99999101231ADDGF102991999999999999999999
0029228020999991924040506004+61700+030683FM-12+001699999V0203601N001019999999N0000001N9-01001+99999101151ADDGF102991999999999999999999
0029228020999991924040513004+61700+030683FM-12+001699999V0202301N002119999999N0000001N9-00061+99999100741ADDGF108991999999999999999999
0035228020999991924040520004+61700+030683FM-12+001699999V0202301N002119999999N0000001N9-00111+99999100231ADDGF108991999999999999999999MW1721
0029228020999991924040606004+61700+030683FM-12+001699999V0202301N004119999999N0000001N9+00171+99999099511ADDGF108991999999999999999999
0029228020999991924040613004+61700+030683FM-12+001699999V0202001N006219999999N0000001N9+00441+99999098951ADDGF104991999999999999999999
0029228020999991924040620004+61700+030683FM-12+001699999V0202501N002119999999N0000001N9+00171+99999098831ADDGF107991999999999999999999
0029228020999991924040706004+61700+030683FM-12+001699999V0202701N008219999999N0000001N9-00061+99999098791ADDGF106991999999999999999999
0029228020999991924040713004+61700+030683FM-12+001699999V0202701N002119999999N0000001N9+00331+99999098791ADDGF108991999999999999999999
0029228020999991924040720004+61700+030683FM-12+001699999V0202701N001019999999N0000001N9+00171+99999098681ADDGF107991999999999999999999
0029228020999991924040806004+61700+030683FM-12+001699999V0202301N002119999999N0000001N9-00061+99999098591ADDGF105991999999999999999999
0029228020999991924040813004+61700+030683FM-12+001699999V0202301N003119999999N0000001N9+00221+99999098161ADDGF108991999999999999999999
0035228020999991924040820004+61700+030683FM-12+001699999V0202001N004119999999N0000001N9+00061+99999097911ADDGF108991999999999999999999MW1691
0029228020999991924040906004+61700+030683FM-12+001699999V0203201N008219999999N0000001N9-00501+99999099201ADDGF100991999999999999999999
0029228020999991924040913004+61700+030683FM-12+001699999V0203201N001019999999N0000001N9+00111+99999099701ADDGF100991999999999999999999
0029228020999991924040920004+61700+030683FM-12+001699999V0201801N001019999999N0000001N9-00391+99999099881ADDGF100991999999999999999999
0029228020999991924041006004+61700+030683FM-12+001699999V0209991C000019999999N0000001N9-00281+99999099901ADDGF108991999999999999999999
0029228020999991924041013004+61700+030683FM-12+001699999V0201401N001019999999N0000001N9+00561+99999099991ADDGF100991999999999999999999
0029228020999991924041020004+61700+030683FM-12+001699999V0209991C000019999999N0000001N9-00111+99999100161ADDGF100991999999999999999999
0029228020999991924041106004+61700+030683FM-12+001699999V0200701N004119999999N0000001N9-00061+99999100201ADDGF108991999999999999999999
0035228020999991924041113004+61700+030683FM-12+001699999V0200901N004119999999N0000001N9+00221+99999099601ADDGF108991999999999999999999MW1691
0035228020999991924041120004+61700+030683FM-12+001699999V0200901N004119999999N0000001N9+00171+99999099071ADDGF108991999999999999999999MW1691
0029228020999991924041206004+61700+030683FM-12+001699999V0201801N008219999999N0000001N9+00111+99999099421ADDGF108991999999999999999999
0029228020999991924041213004+61700+030683FM-12+001699999V0201801N008219999999N0000001N9+00171+99999099861ADDGF108991999999999999999999
0029228020999991924041220004+61700+030683FM-12+001699999V0201801N009819999999N0000001N9+00171+99999100511ADDGF108991999999999999999999
0029228020999991924041306004+61700+030683FM-12+001699999V0201401N002119999999N0000001N9-00061+99999100921ADDGF108991999999999999999999
0029228020999991924041313004+61700+030683FM-12+001699999V0201101N012919999999N0000001N9+00561+99999100741ADDGF108991999999999999999999
0029228020999991924041320004+61700+030683FM-12+001699999V0201101N008219999999N0000001N9+00391+99999100721ADDGF100991999999999999999999
0035228020999991924041406004+61700+030683FM-12+001699999V0201401N002119999999N0000001N9+00281+99999100671ADDGF108991999999999999999999MW1601
0029228020999991924041413004+61700+030683FM-12+001699999V0209991C000019999999N0000001N9+01171+99999100641ADDGF100991999999999999999999
0029228020999991924041420004+61700+030683FM-12+001699999V0209991C000019999999N0000001N9+00501+99999100721ADDGF108991999999999999999999
0029228020999991924041506004+61700+030683FM-12+001699999V0209991C000019999999N0000001N9+00221+99999100951ADDGF108991999999999999999999
0029228020999991924041513004+61700+030683FM-12+001699999V0203201N002119999999N0000001N9+01001+99999101041ADDGF100991999999999999999999
0029228020999991924041520004+61700+030683FM-12+001699999V0203201N002119999999N0000001N9+00501+99999101461ADDGF107991999999999999999999
0029228020999991924041606004+61700+030683FM-12+001699999V0203201N002119999999N0000001N9+00061+99999101961ADDGF100991999999999999999999
0029228020999991924041613004+61700+030683FM-12+001699999V0201401N004119999999N0000001N9+00111+99999102311ADDGF108991999999999999999999
0029228020999991924041620004+61700+030683FM-12+001699999V0209991C000019999999N0000001N9+00171+99999102431ADDGF108991999999999999999999
0029228020999991924041706004+61700+030683FM-12+001699999V0201401N001019999999N0000001N9+00171+99999102521ADDGF100991999999999999999999
0029228020999991924041713004+61700+030683FM-12+001699999V0209991C000019999999N0000001N9+01061+99999102351ADDGF100991999999999999999999
0029228020999991924041720004+61700+030683FM-12+001699999V0209991C000019999999N0000001N9+00501+99999102231ADDGF100991999999999999999999
0029228020999991924041806004+61700+030683FM-12+001699999V0209991C000019999999N0000001N9+00281+99999102151ADDGF108991999999999999999999
0029228020999991924041813004+61700+030683FM-12+001699999V0201401N001019999999N0000001N9+00501+99999102271ADDGF108991999999999999999999
0029228020999991924041820004+61700+030683FM-12+001699999V0209991C000019999999N0000001N9+00221+99999102471ADDGF108991999999999999999999
0029228020999991924041906004+61700+030683FM-12+001699999V0209991C000019999999N0000001N9+00111+99999102541ADDGF108991999999999999999999
0029228020999991924041913004+61700+030683FM-12+001699999V0203201N001019999999N0000001N9+00391+99999102081ADDGF108991999999999999999999
0029228020999991924041920004+61700+030683FM-12+001699999V0201401N001019999999N0000001N9+00001+99999101831ADDGF103991999999999999999999
0029228020999991924042006004+61700+030683FM-12+001699999V0201401N001019999999N0000001N9+00061+99999101601ADDGF104991999999999999999999
0029228020999991924042013004+61700+030683FM-12+001699999V0209991C000019999999N0000001N9+00561+99999101581ADDGF108991999999999999999999
0029228020999991924042020004+61700+030683FM-12+001699999V0209991C000019999999N0000001N9+00221+99999101351ADDGF108991999999999999999999
0029228020999991924042106004+61700+030683FM-12+001699999V0209991C000019999999N0000001N9+00171+99999100761ADDGF108991999999999999999999
0029228020999991924042113004+61700+030683FM-12+001699999V0201401N001019999999N0000001N9+00331+99999100511ADDGF105991999999999999999999
0029228020999991924042120004+61700+030683FM-12+001699999V0209991C000019999999N0000001N9+00061+99999100231ADDGF108991999999999999999999
0029228020999991924042206004+61700+030683FM-12+001699999V0200901N008219999999N0000001N9+00281+99999099921ADDGF107991999999999999999999
0029228020999991924042213004+61700+030683FM-12+001699999V0200701N015919999999N0000001N9+00331+99999099821ADDGF108991999999999999999999
0029228020999991924042220004+61700+030683FM-12+001699999V0200701N013919999999N0000001N9-00221+99999099751ADDGF108991999999999999999999
0035228020999991924042306004+61700+030683FM-12+001699999V0200701N009819999999N0000001N9-00611+99999099511ADDGF108991999999999999999999MW1721
0035228020999991924042313004+61700+030683FM-12+001699999V0200701N011819999999N0000001N9-00391+99999099701ADDGF108991999999999999999999MW1721
0029228020999991924042320004+61700+030683FM-12+001699999V0200701N006219999999N0000001N9-00331+99999100081ADDGF108991999999999999999999
0029228020999991924042406004+61700+030683FM-12+001699999V0200501N002119999999N0000001N9-00391+99999100241ADDGF108991999999999999999999
0035228020999991924042413004+61700+030683FM-12+001699999V0203601N006219999999N0000001N9-00171+99999100431ADDGF108991999999999999999999MW1721
0029228020999991924042420004+61700+030683FM-12+001699999V0200201N002119999999N0000001N9-00561+99999100791ADDGF108991999999999999999999
0035228020999991924042506004+61700+030683FM-12+001699999V0203601N002119999999N0000001N9-00671+99999100781ADDGF108991999999999999999999MW1701
0029228020999991924042513004+61700+030683FM-12+001699999V0203201N004119999999N0000001N9-00281+99999100861ADDGF108991999999999999999999
0029228020999991924042520004+61700+030683FM-12+001699999V0203401N006219999999N0000001N9-00441+99999101101ADDGF108991999999999999999999
0029228020999991924042606004+61700+030683FM-12+001699999V0203601N002119999999N0000001N9-00441+99999101071ADDGF103991999999999999999999
0029228020999991924042613004+61700+030683FM-12+001699999V0203601N004119999999N0000001N9+00001+99999101111ADDGF108991999999999999999999
0029228020999991924042620004+61700+030683FM-12+001699999V0209991C000019999999N0000001N9-00281+99999101141ADDGF102991999999999999999999
0029228020999991924042706004+61700+030683FM-12+001699999V0209991C000019999999N0000001N9-00331+99999101261ADDGF100991999999999999999999
0029228020999991924042713004+61700+030683FM-12+001699999V0209991C000019999999N0000001N9+00391+99999101151ADDGF106991999999999999999999
0029228020999991924042720004+61700+030683FM-12+001699999V0209991C000019999999N0000001N9+00001+99999101221ADDGF108991999999999999999999
0029228020999991924042806004+61700+030683FM-12+001699999V0209991C000019999999N0000001N9-00111+99999101081ADDGF108991999999999999999999
0029228020999991924042813004+61700+030683FM-12+001699999V0203601N001019999999N0000001N9+00221+99999100911ADDGF108991999999999999999999
0029228020999991924042820004+61700+030683FM-12+001699999V0209991C000019999999N0000001N9-00111+99999100761ADDGF103991999999999999999999
0029228020999991924042906004+61700+030683FM-12+001699999V0209991C000019999999N0000001N9+00001+99999100581ADDGF108991999999999999999999
0029228020999991924042913004+61700+030683FM-12+001699999V0201401N001019999999N0000001N9+00331+99999100541ADDGF106991999999999999999999
0029228020999991924042920004+61700+030683FM-12+001699999V0209991C000019999999N0000001N9+00171+99999100501ADDGF108991999999999999999999
0029228020999991924043006004+61700+030683FM-12+001699999V0209991C000019999999N0000001N9+00001+99999100401ADDGF106991999999999999999999
0029228020999991924043013004+61700+030683FM-12+001699999V0201401N002119999999N0000001N9+00611+99999100381ADDGF102991999999999999999999
0029228020999991924043020004+61700+030683FM-12+001699999V0209991C000019999999N0000001N9+00221+99999100351ADDGF108991999999999999999999
0029228020999991924050106004+61700+030683FM-12+001699999V0209991C000019999999N0000001N9+00391+99999100041ADDGF108991999999999999999999
0029228020999991924050113004+61700+030683FM-12+001699999V0201401N002119999999N0000001N9+01061+99999100061ADDGF103991999999999999999999
0029228020999991924050120004+61700+030683FM-12+001699999V0209991C000019999999N0000001N9+00561+99999100061ADDGF108991999999999999999999
0029228020999991924050206004+61700+030683FM-12+001699999V0209991C000019999999N0000001N9+00501+99999100071ADDGF106991999999999999999999
0029228020999991924050213004+61700+030683FM-12+001699999V0201401N002119999999N0000001N9+00611+99999100231ADDGF107991999999999999999999
0029228020999991924050220004+61700+030683FM-12+001699999V0209991C000019999999N0000001N9+00391+99999100721ADDGF108991999999999999999999
0029228020999991924050306004+61700+030683FM-12+001699999V0209991C000019999999N0000001N9+00331+99999101361ADDGF104991999999999999999999
0029228020999991924050313004+61700+030683FM-12+001699999V0201801N004119999999N0000001N9+00831+99999101641ADDGF105991999999999999999999
0029228020999991924050320004+61700+030683FM-12+001699999V0209991C000019999999N0000001N9+00281+99999101841ADDGF100991999999999999999999
0029228020999991924050406004+61700+030683FM-12+001699999V0209991C000019999999N0000001N9+00391+99999101991ADDGF101991999999999999999999
0029228020999991924050413004+61700+030683FM-12+001699999V0201401N002119999999N0000001N9+01221+99999101821ADDGF100991999999999999999999
0029228020999991924050420004+61700+030683FM-12+001699999V0209991C000019999999N0000001N9+00781+99999101711ADDGF102991999999999999999999
0029228020999991924050506004+61700+030683FM-12+001699999V0209991C000019999999N0000001N9+00781+99999101671ADDGF102991999999999999999999
0029228020999991924050513004+61700+030683FM-12+001699999V0201101N004119999999N0000001N9+01111+99999101621ADDGF103991999999999999999999
0029228020999991924050520004+61700+030683FM-12+001699999V0200501N004119999999N0000001N9+00941+99999101241ADDGF100991999999999999999999
0035228020999991924050606004+61700+030683FM-12+001699999V0209991C000019999999N0000001N9+00671+99999100831ADDGF108991999999999999999999MW1621
0029228020999991924050613004+61700+030683FM-12+001699999V0202701N002119999999N0000001N9+00611+99999101061ADDGF108991999999999999999999
0029228020999991924050620004+61700+030683FM-12+001699999V0209991C000019999999N0000001N9+00221+99999101721ADDGF100991999999999999999999
0029228020999991924050706004+61700+030683FM-12+001699999V0209991C000019999999N0000001N9+00501+99999101711ADDGF103991999999999999999999
0029228020999991924050713004+61700+030683FM-12+001699999V0201401N002119999999N0000001N9+01001+99999101521ADDGF106991999999999999999999
0029228020999991924050720004+61700+030683FM-12+001699999V0209991C000019999999N0000001N9+00441+99999101781ADDGF102991999999999999999999
0029228020999991924050806004+61700+030683FM-12+001699999V0209991C000019999999N0000001N9+00501+99999102301ADDGF100991999999999999999999
0029228020999991924050813004+61700+030683FM-12+001699999V0201401N006219999999N0000001N9+00941+99999102461ADDGF102991999999999999999999
0029228020999991924050820004+61700+030683FM-12+001699999V0209991C000019999999N0000001N9+00671+99999102191ADDGF101991999999999999999999
0029228020999991924050906004+61700+030683FM-12+001699999V0201401N008219999999N0000001N9+00561+99999101551ADDGF108991999999999999999999
0035228020999991924050913004+61700+030683FM-12+001699999V0201401N001019999999N0000001N9+00611+99999101511ADDGF108991999999999999999999MW1621
0029228020999991924050920004+61700+030683FM-12+001699999V0209991C000019999999N0000001N9+00561+99999101511ADDGF108991999999999999999999
0029228020999991924051006004+61700+030683FM-12+001699999V0209991C000019999999N0000001N9+00611+99999101501ADDGF108991999999999999999999
0035228020999991924051013004+61700+030683FM-12+001699999V0201401N004119999999N0000001N9+00721+99999101711ADDGF108991999999999999999999MW1601
0029228020999991924051020004+61700+030683FM-12+001699999V0202001N002119999999N0000001N9+00671+99999102111ADDGF100991999999999999999999
0029228020999991924051106004+61700+030683FM-12+001699999V0202701N001019999999N0000001N9+00781+99999102901ADDGF100991999999999999999999
0029228020999991924051113004+61700+030683FM-12+001699999V0202701N006219999999N0000001N9+01331+99999102901ADDGF100991999999999999999999
0029228020999991924051120004+61700+030683FM-12+001699999V0209991C000019999999N0000001N9+00611+99999102741ADDGF102991999999999999999999
0029228020999991924051206004+61700+030683FM-12+001699999V0202001N001019999999N0000001N9+00561+99999102461ADDGF106991999999999999999999
0029228020999991924051213004+61700+030683FM-12+001699999V0202301N002119999999N0000001N9+01441+99999102151ADDGF102991999999999999999999
0029228020999991924051220004+61700+030683FM-12+001699999V0209991C000019999999N0000001N9+00671+99999101601ADDGF105991999999999999999999
0029228020999991924051306004+61700+030683FM-12+001699999V0209991C000019999999N0000001N9+01171+99999101191ADDGF106991999999999999999999
0035228020999991924051313004+61700+030683FM-12+001699999V0209991C000019999999N0000001N9+00891+99999100841ADDGF108991999999999999999999MW1621
0029228020999991924051320004+61700+030683FM-12+001699999V0203201N008219999999N0000001N9+00611+99999101121ADDGF103991999999999999999999
0029228020999991924051406004+61700+030683FM-12+001699999V0203201N002119999999N0000001N9+01061+99999101521ADDGF100991999999999999999999
0029228020999991924051413004+61700+030683FM-12+001699999V0203201N002119999999N0000001N9+01781+99999101701ADDGF102991999999999999999999
0035228020999991924051420004+61700+030683FM-12+001699999V0209991C000019999999N0000001N9+01221+99999101631ADDGF108991999999999999999999MW1601
0029228020999991924051506004+61700+030683FM-12+001699999V0203401N008219999999N0000001N9+01001+99999101501ADDGF108991999999999999999999
0029228020999991924051513004+61700+030683FM-12+001699999V0203401N002119999999N0000001N9+01561+99999101521ADDGF108991999999999999999999
0029228020999991924051520004+61700+030683FM-12+001699999V0200501N004119999999N0000001N9+00941+99999101301ADDGF108991999999999999999999
0029228020999991924051606004+61700+030683FM-12+001699999V0203201N002119999999N0000001N9+01171+99999100481ADDGF107991999999999999999999
0029228020999991924051613004+61700+030683FM-12+001699999V0203201N011819999999N0000001N9+01441+99999100721ADDGF102991999999999999999999
0029228020999991924051620004+61700+030683FM-12+001699999V0203601N004119999999N0000001N9+00721+99999101281ADDGF106991999999999999999999
0029228020999991924051706004+61700+030683FM-12+001699999V0200701N004119999999N0000001N9+00501+99999101311ADDGF102991999999999999999999
0029228020999991924051713004+61700+030683FM-12+001699999V0201101N004119999999N0000001N9+00671+99999100921ADDGF108991999999999999999999
0035228020999991924051720004+61700+030683FM-12+001699999V0200901N002119999999N0000001N9+00331+99999100391ADDGF108991999999999999999999MW1621
0035228020999991924051806004+61700+030683FM-12+001699999V0203601N004119999999N0000001N9+00391+99999100141ADDGF108991999999999999999999MW1621
0029228020999991924051813004+61700+030683FM-12+001699999V0203601N008219999999N0000001N9+01001+99999100471ADDGF108991999999999999999999
0029228020999991924051820004+61700+030683FM-12+001699999V0209991C000019999999N0000001N9+00441+99999100951ADDGF106991999999999999999999
0029228020999991924051906004+61700+030683FM-12+001699999V0209991C000019999999N0000001N9+00441+99999101081ADDGF106991999999999999999999
0029228020999991924051913004+61700+030683FM-12+001699999V0203201N001019999999N0000001N9+00721+99999101181ADDGF105991999999999999999999
0029228020999991924051920004+61700+030683FM-12+001699999V0209991C000019999999N0000001N9+00561+99999101221ADDGF102991999999999999999999
0029228020999991924052006004+61700+030683FM-12+001699999V0209991C000019999999N0000001N9+00721+99999101111ADDGF102991999999999999999999
0029228020999991924052013004+61700+030683FM-12+001699999V0209991C000019999999N0000001N9+00831+99999101071ADDGF108991999999999999999999
0029228020999991924052020004+61700+030683FM-12+001699999V0209991C000019999999N0000001N9+00611+99999101151ADDGF108991999999999999999999
0029228020999991924052106004+61700+030683FM-12+001699999V0203201N002119999999N0000001N9+00501+99999101461ADDGF108991999999999999999999
0029228020999991924052113004+61700+030683FM-12+001699999V0203201N006219999999N0000001N9+00721+99999101501ADDGF108991999999999999999999
0029228020999991924052120004+61700+030683FM-12+001699999V0209991C000019999999N0000001N9+00671+99999101741ADDGF108991999999999999999999
0029228020999991924052206004+61700+030683FM-12+001699999V0203201N001019999999N0000001N9+00441+99999101981ADDGF105991999999999999999999
0029228020999991924052213004+61700+030683FM-12+001699999V0203201N006219999999N0000001N9+01061+99999101871ADDGF106991999999999999999999
0029228020999991924052220004+61700+030683FM-12+001699999V0209991C000019999999N0000001N9+00831+99999101791ADDGF102991999999999999999999
0029228020999991924052306004+61700+030683FM-12+001699999V0209991C000019999999N0000001N9+00671+99999101541ADDGF103991999999999999999999
0029228020999991924052313004+61700+030683FM-12+001699999V0201401N004119999999N0000001N9+00941+99999101231ADDGF108991999999999999999999
0029228020999991924052320004+61700+030683FM-12+001699999V0209991C000019999999N0000001N9+00671+99999100761ADDGF103991999999999999999999
0035228020999991924052406004+61700+030683FM-12+001699999V0201401N006219999999N0000001N9+00611+99999099671ADDGF108991999999999999999999MW1621
0035228020999991924052413004+61700+030683FM-12+001699999V0209991C000019999999N0000001N9+01001+99999099821ADDGF108991999999999999999999MW1621
0029228020999991924052420004+61700+030683FM-12+001699999V0203201N004119999999N0000001N9+00891+99999100241ADDGF108991999999999999999999
0029228020999991924052506004+61700+030683FM-12+001699999V0209991C000019999999N0000001N9+00941+99999100711ADDGF104991999999999999999999
0029228020999991924052513004+61700+030683FM-12+001699999V0201401N006219999999N0000001N9+00561+99999100681ADDGF108991999999999999999999
0029228020999991924052520004+61700+030683FM-12+001699999V0201801N004119999999N0000001N9+00781+99999100231ADDGF108991999999999999999999
0029228020999991924052606004+61700+030683FM-12+001699999V0202301N002119999999N0000001N9+01171+99999100111ADDGF101991999999999999999999
0029228020999991924052613004+61700+030683FM-12+001699999V0202901N008219999999N0000001N9+01831+99999100311ADDGF103991999999999999999999
0029228020999991924052620004+61700+030683FM-12+001699999V0202701N004119999999N0000001N9+01391+99999100701ADDGF102991999999999999999999
0029228020999991924052706004+61700+030683FM-12+001699999V0202901N002119999999N0000001N9+01061+99999100921ADDGF106991999999999999999999
0029228020999991924052713004+61700+030683FM-12+001699999V0203201N002119999999N0000001N9+01331+99999100861ADDGF108991999999999999999999
0029228020999991924052720004+61700+030683FM-12+001699999V0202701N001019999999N0000001N9+01221+99999101231ADDGF106991999999999999999999
0029228020999991924052806004+61700+030683FM-12+001699999V0209991C000019999999N0000001N9+01281+99999101761ADDGF100991999999999999999999
0029228020999991924052813004+61700+030683FM-12+001699999V0201401N002119999999N0000001N9+01331+99999101661ADDGF106991999999999999999999
0029228020999991924052820004+61700+030683FM-12+001699999V0209991C000019999999N0000001N9+01391+99999101501ADDGF107991999999999999999999
0029228020999991924052906004+61700+030683FM-12+001699999V0209991C000019999999N0000001N9+01221+99999101351ADDGF108991999999999999999999
0029228020999991924052913004+61700+030683FM-12+001699999V0202901N008219999999N0000001N9+01671+99999101301ADDGF105991999999999999999999
0029228020999991924052920004+61700+030683FM-12+001699999V0203201N002119999999N0000001N9+01171+99999101511ADDGF104991999999999999999999
0029228020999991924053006004+61700+030683FM-12+001699999V0203601N004119999999N0000001N9+01171+99999102101ADDGF100991999999999999999999
0029228020999991924053013004+61700+030683FM-12+001699999V0201801N004119999999N0000001N9+01501+99999102151ADDGF102991999999999999999999
0029228020999991924053020004+61700+030683FM-12+001699999V0201801N001019999999N0000001N9+01061+99999102021ADDGF106991999999999999999999
0029228020999991924053106004+61700+030683FM-12+001699999V0201401N004119999999N0000001N9+00781+99999101501ADDGF108991999999999999999999
0035228020999991924053113004+61700+030683FM-12+001699999V0201801N008219999999N0000001N9+01111+99999100591ADDGF108991999999999999999999MW1601
0029228020999991924053120004+61700+030683FM-12+001699999V0203201N002119999999N0000001N9+01391+99999100591ADDGF108991999999999999999999
0029228020999991924060106004+61700+030683FM-12+001699999V0203401N004119999999N0000001N9+01171+99999101141ADDGF100991999999999999999999
0029228020999991924060113004+61700+030683FM-12+001699999V0203201N004119999999N0000001N9+01721+99999101481ADDGF103991999999999999999999
0029228020999991924060120004+61700+030683FM-12+001699999V0203201N001019999999N0000001N9+01171+99999101581ADDGF107991999999999999999999
0029228020999991924060206004+61700+030683FM-12+001699999V0209991C000019999999N0000001N9+01111+99999101631ADDGF108991999999999999999999
0029228020999991924060213004+61700+030683FM-12+001699999V0200701N006219999999N0000001N9+01331+99999101351ADDGF107991999999999999999999
0029228020999991924060220004+61700+030683FM-12+001699999V0200701N002119999999N0000001N9+01221+99999100841ADDGF106991999999999999999999
0029228020999991924060306004+61700+030683FM-12+001699999V0201101N002119999999N0000001N9+01391+99999100191ADDGF106991999999999999999999
0035228020999991924060313004+61700+030683FM-12+001699999V0209991C000019999999N0000001N9+01391+99999099901ADDGF108991999999999999999999MW1621
0029228020999991924060320004+61700+030683FM-12+001699999V0209991C000019999999N0000001N9+01331+99999099711ADDGF101991999999999999999999
0029228020999991924060406004+61700+030683FM-12+001699999V0202901N002119999999N0000001N9+00941+99999099901ADDGF102991999999999999999999
0029228020999991924060413004+61700+030683FM-12+001699999V0201601N006219999999N0000001N9+00941+99999099881ADDGF108991999999999999999999
0029228020999991924060420004+61700+030683FM-12+001699999V0201801N001019999999N0000001N9+00891+99999099871ADDGF105991999999999999999999
0029228020999991924060506004+61700+030683FM-12+001699999V0201801N002119999999N0000001N9+00781+99999100061ADDGF108991999999999999999999
0029228020999991924060513004+61700+030683FM-12+001699999V0203201N004119999999N0000001N9+01281+99999100461ADDGF106991999999999999999999
0029228020999991924060520004+61700+030683FM-12+001699999V0202301N002119999999N0000001N9+01001+99999100831ADDGF103991999999999999999999
0029228020999991924060606004+61700+030683FM-12+001699999V0202301N002119999999N0000001N9+01061+99999101521ADDGF100991999999999999999999
0029228020999991924060613004+61700+030683FM-12+001699999V0201801N006219999999N0000001N9+01391+99999101761ADDGF103991999999999999999999
0029228020999991924060620004+61700+030683FM-12+001699999V0209991C000019999999N0000001N9+00941+99999101621ADDGF105991999999999999999999
0035228020999991924060706004+61700+030683FM-12+001699999V0209991C000019999999N0000001N9+00941+99999101231ADDGF108991999999999999999999MW1621
0035228020999991924060713004+61700+030683FM-12+001699999V0203201N002119999999N0000001N9+00941+99999101591ADDGF108991999999999999999999MW1621
0029228020999991924060720004+61700+030683FM-12+001699999V0203201N001019999999N0000001N9+00941+99999102071ADDGF108991999999999999999999
0029228020999991924060806004+61700+030683FM-12+001699999V0203201N002119999999N0000001N9+01171+99999102421ADDGF100991999999999999999999
0029228020999991924060813004+61700+030683FM-12+001699999V0203201N004119999999N0000001N9+01671+99999102391ADDGF107991999999999999999999
0029228020999991924060820004+61700+030683FM-12+001699999V0202501N001019999999N0000001N9+01171+99999102311ADDGF108991999999999999999999
0029228020999991924060906004+61700+030683FM-12+001699999V0202501N001019999999N0000001N9+01111+99999102281ADDGF108991999999999999999999
0029228020999991924060913004+61700+030683FM-12+001699999V0201801N006219999999N0000001N9+01561+99999102121ADDGF102991999999999999999999
0029228020999991924060920004+61700+030683FM-12+001699999V0201801N002119999999N0000001N9+01171+99999101941ADDGF105991999999999999999999
0029228020999991924061006004+61700+030683FM-12+001699999V0201801N001019999999N0000001N9+01281+99999101741ADDGF104991999999999999999999
0029228020999991924061013004+61700+030683FM-12+001699999V0201401N004119999999N0000001N9+01831+99999101311ADDGF106991999999999999999999
0029228020999991924061020004+61700+030683FM-12+001699999V0209991C000019999999N0000001N9+01441+99999100761ADDGF108991999999999999999999
0029228020999991924061106004+61700+030683FM-12+001699999V0209991C000019999999N0000001N9+01331+99999100121ADDGF108991999999999999999999
0029228020999991924061113004+61700+030683FM-12+001699999V0202901N006219999999N0000001N9+01721+99999100241ADDGF105991999999999999999999
0035228020999991924061120004+61700+030683FM-12+001699999V0201801N002119999999N0000001N9+01441+99999100281ADDGF106991999999999999999999MW1621
0029228020999991924061206004+61700+030683FM-12+001699999V0202001N001019999999N0000001N9+01331+99999100591ADDGF106991999999999999999999
0035228020999991924061213004+61700+030683FM-12+001699999V0201601N002119999999N0000001N9+01331+99999100821ADDGF108991999999999999999999MW1621
0029228020999991924061220004+61700+030683FM-12+001699999V0201401N002119999999N0000001N9+01061+99999101041ADDGF106991999999999999999999
0029228020999991924061306004+61700+030683FM-12+001699999V0209991C000019999999N0000001N9+01111+99999101261ADDGF108991999999999999999999
0029228020999991924061313004+61700+030683FM-12+001699999V0201401N004119999999N0000001N9+01671+99999101071ADDGF106991999999999999999999
0035228020999991924061320004+61700+030683FM-12+001699999V0202301N001019999999N0000001N9+01501+99999100631ADDGF108991999999999999999999MW1621
0029228020999991924061406004+61700+030683FM-12+001699999V0203601N004119999999N0000001N9+01501+99999100521ADDGF106991999999999999999999
0029228020999991924061413004+61700+030683FM-12+001699999V0203401N006219999999N0000001N9+01281+99999101381ADDGF108991999999999999999999
0029228020999991924061420004+61700+030683FM-12+001699999V0203201N002119999999N0000001N9+00941+99999102041ADDGF100991999999999999999999
0029228020999991924061506004+61700+030683FM-12+001699999V0200701N004119999999N0000001N9+01171+99999102391ADDGF104991999999999999999999
0029228020999991924061513004+61700+030683FM-12+001699999V0200901N006219999999N0000001N9+01501+99999102121ADDGF104991999999999999999999
0029228020999991924061520004+61700+030683FM-12+001699999V0200901N004119999999N0000001N9+01281+99999101721ADDGF108991999999999999999999
0029228020999991924061606004+61700+030683FM-12+001699999V0201401N006219999999N0000001N9+01171+99999100981ADDGF108991999999999999999999
0035228020999991924061613004+61700+030683FM-12+001699999V0201401N001019999999N0000001N9+01061+99999100951ADDGF108991999999999999999999MW1621
0029228020999991924061620004+61700+030683FM-12+001699999V0202001N004119999999N0000001N9+01391+99999100841ADDGF103991999999999999999999
0029228020999991924061706004+61700+030683FM-12+001699999V0202501N004119999999N0000001N9+01221+99999101101ADDGF108991999999999999999999
0029228020999991924061713004+61700+030683FM-12+001699999V0203201N006219999999N0000001N9+01441+99999101631ADDGF104991999999999999999999
0029228020999991924061720004+61700+030683FM-12+001699999V0209991C000019999999N0000001N9+01391+99999102021ADDGF100991999999999999999999
0029228020999991924061806004+61700+030683FM-12+001699999V0209991C000019999999N0000001N9+01721+99999102361ADDGF101991999999999999999999
0029228020999991924061813004+61700+030683FM-12+001699999V0203401N002119999999N0000001N9+02171+99999102431ADDGF106991999999999999999999
0029228020999991924061820004+61700+030683FM-12+001699999V0209991C000019999999N0000001N9+01781+99999102431ADDGF100991999999999999999999
0029228020999991924061906004+61700+030683FM-12+001699999V0209991C000019999999N0000001N9+01721+99999102561ADDGF103991999999999999999999
0029228020999991924061913004+61700+030683FM-12+001699999V0201401N002119999999N0000001N9+01941+99999102261ADDGF104991999999999999999999
0029228020999991924061920004+61700+030683FM-12+001699999V0209991C000019999999N0000001N9+01391+99999101911ADDGF106991999999999999999999
0029228020999991924062006004+61700+030683FM-12+001699999V0200701N002119999999N0000001N9+01561+99999101951ADDGF108991999999999999999999
0029228020999991924062013004+61700+030683FM-12+001699999V0200901N004119999999N0000001N9+01941+99999102001ADDGF103991999999999999999999
0029228020999991924062020004+61700+030683FM-12+001699999V0201401N001019999999N0000001N9+01671+99999101881ADDGF106991999999999999999999
0035228020999991924062106004+61700+030683FM-12+001699999V0200901N002119999999N0000001N9+01221+99999101941ADDGF108991999999999999999999MW1621
0029228020999991924062113004+61700+030683FM-12+001699999V0201101N002119999999N0000001N9+01391+99999101871ADDGF108991999999999999999999
0029228020999991924062120004+61700+030683FM-12+001699999V0200901N004119999999N0000001N9+01221+99999101741ADDGF108991999999999999999999
0029228020999991924062206004+61700+030683FM-12+001699999V0201101N004119999999N0000001N9+01221+99999101741ADDGF108991999999999999999999
0029228020999991924062213004+61700+030683FM-12+001699999V0201401N004119999999N0000001N9+01501+99999101711ADDGF108991999999999999999999
0029228020999991924062220004+61700+030683FM-12+001699999V0209991C000019999999N0000001N9+01391+99999101511ADDGF107991999999999999999999
0029228020999991924062306004+61700+030683FM-12+001699999V0209991C000019999999N0000001N9+01171+99999101241ADDGF107991999999999999999999
0029228020999991924062313004+61700+030683FM-12+001699999V0209991C000019999999N0000001N9+01441+99999101081ADDGF108991999999999999999999
0029228020999991924062320004+61700+030683FM-12+001699999V0209991C000019999999N0000001N9+01441+99999100721ADDGF106991999999999999999999
0029228020999991924062406004+61700+030683FM-12+001699999V0200901N002119999999N0000001N9+01441+99999100351ADDGF108991999999999999999999
0035228020999991924062413004+61700+030683FM-12+001699999V0200901N006219999999N0000001N9+01001+99999100041ADDGF108991999999999999999999MW1621
0029228020999991924062420004+61700+030683FM-12+001699999V0201101N006219999999N0000001N9+01061+99999099991ADDGF106991999999999999999999
0029228020999991924062506004+61700+030683FM-12+001699999V0200701N004119999999N0000001N9+00891+99999099881ADDGF108991999999999999999999
0035228020999991924062513004+61700+030683FM-12+001699999V0203601N004119999999N0000001N9+00831+99999100351ADDGF108991999999999999999999MW1601
0029228020999991924062520004+61700+030683FM-12+001699999V0200501N001019999999N0000001N9+00891+99999100551ADDGF102991999999999999999999
0029228020999991924062606004+61700+030683FM-12+001699999V0203601N002119999999N0000001N9+00891+99999100791ADDGF106991999999999999999999
0029228020999991924062613004+61700+030683FM-12+001699999V0203601N004119999999N0000001N9+01391+99999100861ADDGF105991999999999999999999
0029228020999991924062620004+61700+030683FM-12+001699999V0203601N001019999999N0000001N9+01111+99999100801ADDGF106991999999999999999999
0029228020999991924062706004+61700+030683FM-12+001699999V0203601N001019999999N0000001N9+01171+99999100671ADDGF106991999999999999999999
0029228020999991924062713004+61700+030683FM-12+001699999V0201101N001019999999N0000001N9+01391+99999100701ADDGF106991999999999999999999
0029228020999991924062720004+61700+030683FM-12+001699999V0209991C000019999999N0000001N9+01061+99999100631ADDGF102991999999999999999999
0029228020999991924062806004+61700+030683FM-12+001699999V0201401N004119999999N0000001N9+01171+99999100401ADDGF105991999999999999999999
0035228020999991924062813004+61700+030683FM-12+001699999V0201101N004119999999N0000001N9+01171+99999100081ADDGF108991999999999999999999MW1621
0029228020999991924062820004+61700+030683FM-12+001699999V0201401N006219999999N0000001N9+01111+99999099621ADDGF108991999999999999999999
0029228020999991924062906004+61700+030683FM-12+001699999V0201401N004119999999N0000001N9+01111+99999099391ADDGF106991999999999999999999
0029228020999991924062913004+61700+030683FM-12+001699999V0201601N004119999999N0000001N9+01281+99999099341ADDGF106991999999999999999999
0029228020999991924062920004+61700+030683FM-12+001699999V0202301N001019999999N0000001N9+01171+99999099341ADDGF106991999999999999999999
0035228020999991924063006004+61700+030683FM-12+001699999V0202701N002119999999N0000001N9+01221+99999099501ADDGF108991999999999999999999MW1621
0035228020999991924063013004+61700+030683FM-12+001699999V0202701N002119999999N0000001N9+01441+99999099781ADDGF107991999999999999999999MW1621
0029228020999991924063020004+61700+030683FM-12+001699999V0202001N001019999999N0000001N9+01221+99999099831ADDGF102991999999999999999999
0035228020999991924070106004+61700+030683FM-12+001699999V0202001N001019999999N0000001N9+01171+99999099751ADDGF108991999999999999999999MW1621
0029228020999991924070113004+61700+030683FM-12+001699999V0202001N002119999999N0000001N9+01441+99999099721ADDGF106991999999999999999999
0029228020999991924070120004+61700+030683FM-12+001699999V0201601N001019999999N0000001N9+01171+99999099741ADDGF102991999999999999999999
0029228020999991924070206004+61700+030683FM-12+001699999V0202301N001019999999N0000001N9+01391+99999100041ADDGF104991999999999999999999
0029228020999991924070213004+61700+030683FM-12+001699999V0201801N006219999999N0000001N9+01671+99999100041ADDGF105991999999999999999999
0029228020999991924070220004+61700+030683FM-12+001699999V0202001N001019999999N0000001N9+01171+99999100121ADDGF106991999999999999999999
0029228020999991924070306004+61700+030683FM-12+001699999V0202701N001019999999N0000001N9+01441+99999100601ADDGF104991999999999999999999
0029228020999991924070313004+61700+030683FM-12+001699999V0209991C000019999999N0000001N9+02061+99999100841ADDGF105991999999999999999999
0029228020999991924070320004+61700+030683FM-12+001699999V0201401N001019999999N0000001N9+01391+99999101001ADDGF106991999999999999999999
0029228020999991924070406004+61700+030683FM-12+001699999V0201401N001019999999N0000001N9+01611+99999101081ADDGF101991999999999999999999
0029228020999991924070413004+61700+030683FM-12+001699999V0201401N002119999999N0000001N9+02061+99999100801ADDGF101991999999999999999999
0029228020999991924070420004+61700+030683FM-12+001699999V0201601N004119999999N0000001N9+01441+99999100301ADDGF107991999999999999999999
0029228020999991924070506004+61700+030683FM-12+001699999V0209991C000019999999N0000001N9+01281+99999099941ADDGF108991999999999999999999
0029228020999991924070513004+61700+030683FM-12+001699999V0203201N004119999999N0000001N9+01671+99999100261ADDGF105991999999999999999999
0029228020999991924070520004+61700+030683FM-12+001699999V0202301N001019999999N0000001N9+01391+99999100311ADDGF105991999999999999999999
0035228020999991924070606004+61700+030683FM-12+001699999V0201401N004119999999N0000001N9+01171+99999100041ADDGF108991999999999999999999MW1621
0035228020999991924070613004+61700+030683FM-12+001699999V0201401N004119999999N0000001N9+01391+99999100041ADDGF108991999999999999999999MW1621
0029228020999991924070620004+61700+030683FM-12+001699999V0201801N004119999999N0000001N9+01281+99999100021ADDGF105991999999999999999999
0029228020999991924070706004+61700+030683FM-12+001699999V0203201N004119999999N0000001N9+01441+99999099801ADDGF106991999999999999999999
0029228020999991924070713004+61700+030683FM-12+001699999V0203201N008219999999N0000001N9+02061+99999099871ADDGF105991999999999999999999
0029228020999991924070720004+61700+030683FM-12+001699999V0202701N004119999999N0000001N9+01501+99999099761ADDGF106991999999999999999999
0029228020999991924070806004+61700+030683FM-12+001699999V0203201N002119999999N0000001N9+01721+99999099741ADDGF101991999999999999999999
0029228020999991924070813004+61700+030683FM-12+001699999V0203201N004119999999N0000001N9+02001+99999099791ADDGF103991999999999999999999
0029228020999991924070820004+61700+030683FM-12+001699999V0209991C000019999999N0000001N9+01501+99999099921ADDGF105991999999999999999999
0029228020999991924070906004+61700+030683FM-12+001699999V0209991C000019999999N0000001N9+01611+99999100071ADDGF102991999999999999999999
0035228020999991924070913004+61700+030683FM-12+001699999V0203201N004119999999N0000001N9+01611+99999100201ADDGF108991999999999999999999MW1171
0029228020999991924070920004+61700+030683FM-12+001699999V0203601N001019999999N0000001N9+01561+99999100221ADDGF105991999999999999999999
0029228020999991924071006004+61700+030683FM-12+001699999V0209991C000019999999N0000001N9+01671+99999100281ADDGF101991999999999999999999
0029228020999991924071013004+61700+030683FM-12+001699999V0203601N002119999999N0000001N9+02281+99999100271ADDGF105991999999999999999999
0029228020999991924071020004+61700+030683FM-12+001699999V0203401N001019999999N0000001N9+01671+99999100401ADDGF102991999999999999999999
0029228020999991924071106004+61700+030683FM-12+001699999V0203201N004119999999N0000001N9+01721+99999100621ADDGF102991999999999999999999
0029228020999991924071113004+61700+030683FM-12+001699999V0203201N006219999999N0000001N9+02281+99999100781ADDGF105991999999999999999999
0029228020999991924071120004+61700+030683FM-12+001699999V0203201N002119999999N0000001N9+01611+99999100981ADDGF107991999999999999999999
0029228020999991924071206004+61700+030683FM-12+001699999V0203201N004119999999N0000001N9+01441+99999101241ADDGF108991999999999999999999
0029228020999991924071213004+61700+030683FM-12+001699999V0203401N006219999999N0000001N9+01721+99999101381ADDGF108991999999999999999999
0029228020999991924071220004+61700+030683FM-12+001699999V0203401N002119999999N0000001N9+01561+99999101401ADDGF106991999999999999999999
0029228020999991924071306004+61700+030683FM-12+001699999V0203601N002119999999N0000001N9+01441+99999101501ADDGF108991999999999999999999
0029228020999991924071313004+61700+030683FM-12+001699999V0203601N004119999999N0000001N9+01891+99999101391ADDGF106991999999999999999999
0029228020999991924071320004+61700+030683FM-12+001699999V0209991C000019999999N0000001N9+01721+99999101271ADDGF104991999999999999999999
0029228020999991924071406004+61700+030683FM-12+001699999V0203601N001019999999N0000001N9+01831+99999101141ADDGF105991999999999999999999
0029228020999991924071413004+61700+030683FM-12+001699999V0203601N002119999999N0000001N9+02061+99999100961ADDGF105991999999999999999999
0029228020999991924071420004+61700+030683FM-12+001699999V0203201N001019999999N0000001N9+01671+99999100801ADDGF106991999999999999999999
0029228020999991924071506004+61700+030683FM-12+001699999V0200501N002119999999N0000001N9+01611+99999100781ADDGF105991999999999999999999
0029228020999991924071513004+61700+030683FM-12+001699999V0200201N004119999999N0000001N9+01721+99999100681ADDGF106991999999999999999999
0029228020999991924071520004+61700+030683FM-12+001699999V0200201N001019999999N0000001N9+01441+99999100681ADDGF106991999999999999999999
0029228020999991924071606004+61700+030683FM-12+001699999V0203601N002119999999N0000001N9+01441+99999100721ADDGF102991999999999999999999
0029228020999991924071613004+61700+030683FM-12+001699999V0203601N006219999999N0000001N9+02001+99999100721ADDGF102991999999999999999999
0029228020999991924071620004+61700+030683FM-12+001699999V0203601N001019999999N0000001N9+01781+99999100621ADDGF101991999999999999999999
0029228020999991924071706004+61700+030683FM-12+001699999V0200501N001019999999N0000001N9+01781+99999100951ADDGF101991999999999999999999
0029228020999991924071713004+61700+030683FM-12+001699999V0200501N004119999999N0000001N9+02221+99999100841ADDGF101991999999999999999999
0029228020999991924071720004+61700+030683FM-12+001699999V0209991C000019999999N0000001N9+01831+99999100831ADDGF103991999999999999999999
0029228020999991924071806004+61700+030683FM-12+001699999V0200501N002119999999N0000001N9+01561+99999101101ADDGF100991999999999999999999
0029228020999991924071813004+61700+030683FM-12+001699999V0200501N001019999999N0000001N9+02111+99999101041ADDGF102991999999999999999999
0029228020999991924071820004+61700+030683FM-12+001699999V0209991C000019999999N0000001N9+01721+99999101031ADDGF101991999999999999999999
0029228020999991924071906004+61700+030683FM-12+001699999V0209991C000019999999N0000001N9+01781+99999101241ADDGF101991999999999999999999
0029228020999991924071913004+61700+030683FM-12+001699999V0201401N001019999999N0000001N9+02441+99999101141ADDGF100991999999999999999999
0029228020999991924071920004+61700+030683FM-12+001699999V0209991C000019999999N0000001N9+01941+99999100951ADDGF104991999999999999999999
0029228020999991924072006004+61700+030683FM-12+001699999V0202901N001019999999N0000001N9+02221+99999100911ADDGF102991999999999999999999
0029228020999991924072013004+61700+030683FM-12+001699999V0203201N006219999999N0000001N9+02781+99999100701ADDGF103991999999999999999999
0029228020999991924072020004+61700+030683FM-12+001699999V0209991C000019999999N0000001N9+02111+99999100741ADDGF102991999999999999999999
0029228020999991924072106004+61700+030683FM-12+001699999V0203401N002119999999N0000001N9+01781+99999101071ADDGF100991999999999999999999
0029228020999991924072113004+61700+030683FM-12+001699999V0203601N004119999999N0000001N9+02331+99999101081ADDGF104991999999999999999999
0029228020999991924072120004+61700+030683FM-12+001699999V0203601N001019999999N0000001N9+01891+99999101111ADDGF100991999999999999999999
0029228020999991924072206004+61700+030683FM-12+001699999V0203601N001019999999N0000001N9+01721+99999101461ADDGF100991999999999999999999
0029228020999991924072213004+61700+030683FM-12+001699999V0200501N002119999999N0000001N9+02561+99999101221ADDGF100991999999999999999999
0029228020999991924072220004+61700+030683FM-12+001699999V0200201N001019999999N0000001N9+02111+99999101071ADDGF102991999999999999999999
0029228020999991924072306004+61700+030683FM-12+001699999V0200501N002119999999N0000001N9+01671+99999101161ADDGF100991999999999999999999
0029228020999991924072313004+61700+030683FM-12+001699999V0200901N001019999999N0000001N9+02221+99999101001ADDGF100991999999999999999999
0029228020999991924072320004+61700+030683FM-12+001699999V0200901N001019999999N0000001N9+01781+99999100941ADDGF100991999999999999999999
0029228020999991924072406004+61700+030683FM-12+001699999V0200701N001019999999N0000001N9+01671+99999100901ADDGF100991999999999999999999
0029228020999991924072413004+61700+030683FM-12+001699999V0201401N001019999999N0000001N9+02391+99999100801ADDGF101991999999999999999999
0029228020999991924072420004+61700+030683FM-12+001699999V0209991C000019999999N0000001N9+01781+99999100781ADDGF100991999999999999999999
0029228020999991924072506004+61700+030683FM-12+001699999V0200701N001019999999N0000001N9+01721+99999100841ADDGF104991999999999999999999
0029228020999991924072513004+61700+030683FM-12+001699999V0201401N001019999999N0000001N9+02171+99999100981ADDGF106991999999999999999999
0029228020999991924072520004+61700+030683FM-12+001699999V0201401N001019999999N0000001N9+01831+99999101021ADDGF106991999999999999999999
0029228020999991924072606004+61700+030683FM-12+001699999V0201401N001019999999N0000001N9+01671+99999101111ADDGF101991999999999999999999
0029228020999991924072613004+61700+030683FM-12+001699999V0201401N001019999999N0000001N9+02441+99999101061ADDGF106991999999999999999999
0029228020999991924072620004+61700+030683FM-12+001699999V0209991C000019999999N0000001N9+02001+99999100901ADDGF104991999999999999999999
0029228020999991924072706004+61700+030683FM-12+001699999V0209991C000019999999N0000001N9+01831+99999100821ADDGF102991999999999999999999
0035228020999991924072713004+61700+030683FM-12+001699999V0200501N002119999999N0000001N9+01721+99999100781ADDGF108991999999999999999999MW1621
0029228020999991924072720004+61700+030683FM-12+001699999V0200701N001019999999N0000001N9+01331+99999100881ADDGF102991999999999999999999
0035228020999991924072806004+61700+030683FM-12+001699999V0200501N001019999999N0000001N9+01171+99999100721ADDGF108991999999999999999999MW1621
0029228020999991924072813004+61700+030683FM-12+001699999V0203201N001019999999N0000001N9+02061+99999100641ADDGF106991999999999999999999
0029228020999991924072820004+61700+030683FM-12+001699999V0200901N001019999999N0000001N9+01831+99999100621ADDGF106991999999999999999999
0029228020999991924072906004+61700+030683FM-12+001699999V0209991C000019999999N0000001N9+01891+99999100711ADDGF101991999999999999999999
0035228020999991924072913004+61700+030683FM-12+001699999V0200701N004119999999N0000001N9+02281+99999100751ADDGF107991999999999999999999MW1171
0029228020999991924072920004+61700+030683FM-12+001699999V0200501N001019999999N0000001N9+01781+99999100721ADDGF102991999999999999999999
0029228020999991924073006004+61700+030683FM-12+001699999V0200501N002119999999N0000001N9+01941+99999100961ADDGF100991999999999999999999
0029228020999991924073013004+61700+030683FM-12+001699999V0200701N002119999999N0000001N9+02561+99999100881ADDGF100991999999999999999999
0029228020999991924073020004+61700+030683FM-12+001699999V0209991C000019999999N0000001N9+01831+99999100961ADDGF100991999999999999999999
0029228020999991924073106004+61700+030683FM-12+001699999V0209991C000019999999N0000001N9+01671+99999101261ADDGF101991999999999999999999
0029228020999991924073113004+61700+030683FM-12+001699999V0200901N001019999999N0000001N9+02671+99999101231ADDGF104991999999999999999999
0029228020999991924073120004+61700+030683FM-12+001699999V0209991C000019999999N0000001N9+02061+99999101221ADDGF108991999999999999999999
0029228020999991924080106004+61700+030683FM-12+001699999V0209991C000019999999N0000001N9+02061+99999101361ADDGF102991999999999999999999
0029228020999991924080113004+61700+030683FM-12+001699999V0201801N004119999999N0000001N9+02441+99999101441ADDGF100991999999999999999999
0029228020999991924080120004+61700+030683FM-12+001699999V0209991C000019999999N0000001N9+01941+99999101361ADDGF102991999999999999999999
0029228020999991924080206004+61700+030683FM-12+001699999V0201401N001019999999N0000001N9+01831+99999101471ADDGF106991999999999999999999
0029228020999991924080213004+61700+030683FM-12+001699999V0201401N004119999999N0000001N9+02391+99999101471ADDGF100991999999999999999999
0029228020999991924080220004+61700+030683FM-12+001699999V0201401N001019999999N0000001N9+01891+99999101441ADDGF100991999999999999999999
0029228020999991924080306004+61700+030683FM-12+001699999V0201401N001019999999N0000001N9+02001+99999101521ADDGF102991999999999999999999
0029228020999991924080313004+61700+030683FM-12+001699999V0201101N001019999999N0000001N9+02171+99999101581ADDGF106991999999999999999999
0029228020999991924080320004+61700+030683FM-12+001699999V0201401N002119999999N0000001N9+02001+99999101541ADDGF106991999999999999999999
0029228020999991924080406004+61700+030683FM-12+001699999V0201401N004119999999N0000001N9+02001+99999101621ADDGF102991999999999999999999
0029228020999991924080413004+61700+030683FM-12+001699999V0201401N002119999999N0000001N9+02441+99999101671ADDGF100991999999999999999999
0029228020999991924080420004+61700+030683FM-12+001699999V0201601N001019999999N0000001N9+02001+99999101641ADDGF108991999999999999999999
0029228020999991924080506004+61700+030683FM-12+001699999V0201401N002119999999N0000001N9+02001+99999101781ADDGF104991999999999999999999
0029228020999991924080513004+61700+030683FM-12+001699999V0201401N006219999999N0000001N9+02501+99999101751ADDGF100991999999999999999999
0029228020999991924080520004+61700+030683FM-12+001699999V0201401N008219999999N0000001N9+02171+99999101601ADDGF104991999999999999999999
0029228020999991924080606004+61700+030683FM-12+001699999V0201401N004119999999N0000001N9+02001+99999101711ADDGF102991999999999999999999
0029228020999991924080613004+61700+030683FM-12+001699999V0201401N011819999999N0000001N9+02391+99999101541ADDGF100991999999999999999999
0029228020999991924080620004+61700+030683FM-12+001699999V0201401N008219999999N0000001N9+02061+99999101231ADDGF102991999999999999999999
0035228020999991924080706004+61700+030683FM-12+001699999V0201401N008219999999N0000001N9+01561+99999100951ADDGF108991999999999999999999MW1621
0029228020999991924080713004+61700+030683FM-12+001699999V0201401N008219999999N0000001N9+01831+99999100991ADDGF107991999999999999999999
0029228020999991924080720004+61700+030683FM-12+001699999V0201801N009819999999N0000001N9+01671+99999101121ADDGF103991999999999999999999
0029228020999991924080806004+61700+030683FM-12+001699999V0201801N002119999999N0000001N9+01611+99999101431ADDGF106991999999999999999999
0035228020999991924080813004+61700+030683FM-12+001699999V0202501N002119999999N0000001N9+01671+99999101461ADDGF107991999999999999999999MW1621
0029228020999991924080820004+61700+030683FM-12+001699999V0202001N001019999999N0000001N9+01671+99999101361ADDGF108991999999999999999999
0029228020999991924080906004+61700+030683FM-12+001699999V0202701N002119999999N0000001N9+01391+99999101221ADDGF105991999999999999999999
0029228020999991924080913004+61700+030683FM-12+001699999V0203201N006219999999N0000001N9+02111+99999101431ADDGF106991999999999999999999
0029228020999991924080920004+61700+030683FM-12+001699999V0209991C000019999999N0000001N9+01441+99999101711ADDGF102991999999999999999999
0029228020999991924081006004+61700+030683FM-12+001699999V0209991C000019999999N0000001N9+01501+99999101921ADDGF100991999999999999999999
0029228020999991924081013004+61700+030683FM-12+001699999V0203201N004119999999N0000001N9+02221+99999101621ADDGF102991999999999999999999
0029228020999991924081020004+61700+030683FM-12+001699999V0209991C000019999999N0000001N9+01501+99999101591ADDGF100991999999999999999999
0029228020999991924081106004+61700+030683FM-12+001699999V0209991C000019999999N0000001N9+01611+99999101421ADDGF108991999999999999999999
0029228020999991924081113004+61700+030683FM-12+001699999V0202001N002119999999N0000001N9+02221+99999101271ADDGF106991999999999999999999
0029228020999991924081120004+61700+030683FM-12+001699999V0209991C000019999999N0000001N9+01611+99999101221ADDGF100991999999999999999999
0029228020999991924081206004+61700+030683FM-12+001699999V0209991C000019999999N0000001N9+01561+99999101191ADDGF108991999999999999999999
0029228020999991924081213004+61700+030683FM-12+001699999V0202701N001019999999N0000001N9+02061+99999101191ADDGF108991999999999999999999
0029228020999991924081220004+61700+030683FM-12+001699999V0209991C000019999999N0000001N9+01721+99999101271ADDGF101991999999999999999999
0029228020999991924081306004+61700+030683FM-12+001699999V0209991C000019999999N0000001N9+01441+99999101551ADDGF100991999999999999999999
0029228020999991924081313004+61700+030683FM-12+001699999V0201801N004119999999N0000001N9+02171+99999101401ADDGF104991999999999999999999
0029228020999991924081320004+61700+030683FM-12+001699999V0209991C000019999999N0000001N9+01721+99999101521ADDGF100991999999999999999999
0029228020999991924081406004+61700+030683FM-12+001699999V0209991C000019999999N0000001N9+01611+99999101681ADDGF106991999999999999999999
0029228020999991924081413004+61700+030683FM-12+001699999V0201801N004119999999N0000001N9+02281+99999101631ADDGF103991999999999999999999
0029228020999991924081420004+61700+030683FM-12+001699999V0201801N001019999999N0000001N9+01831+99999101501ADDGF108991999999999999999999
0029228020999991924081506004+61700+030683FM-12+001699999V0209991C000019999999N0000001N9+01781+99999101441ADDGF101991999999999999999999
0029228020999991924081513004+61700+030683FM-12+001699999V0201601N002119999999N0000001N9+02561+99999101381ADDGF102991999999999999999999
0029228020999991924081520004+61700+030683FM-12+001699999V0209991C000019999999N0000001N9+01941+99999101281ADDGF101991999999999999999999
0029228020999991924081606004+61700+030683FM-12+001699999V0209991C000019999999N0000001N9+01781+99999101281ADDGF101991999999999999999999
0029228020999991924081613004+61700+030683FM-12+001699999V0201601N001019999999N0000001N9+02721+99999101141ADDGF104991999999999999999999
0029228020999991924081620004+61700+030683FM-12+001699999V0209991C000019999999N0000001N9+01831+99999100991ADDGF104991999999999999999999
0029228020999991924081706004+61700+030683FM-12+001699999V0209991C000019999999N0000001N9+01781+99999101201ADDGF101991999999999999999999
0029228020999991924081713004+61700+030683FM-12+001699999V0201401N002119999999N0000001N9+02941+99999101161ADDGF102991999999999999999999
0029228020999991924081720004+61700+030683FM-12+001699999V0209991C000019999999N0000001N9+02001+99999101191ADDGF100991999999999999999999
0029228020999991924081806004+61700+030683FM-12+001699999V0209991C000019999999N0000001N9+01891+99999101271ADDGF100991999999999999999999
0029228020999991924081813004+61700+030683FM-12+001699999V0202001N001019999999N0000001N9+02831+99999101141ADDGF100991999999999999999999
0029228020999991924081820004+61700+030683FM-12+001699999V0209991C000019999999N0000001N9+02061+99999100941ADDGF100991999999999999999999
0029228020999991924081906004+61700+030683FM-12+001699999V0201401N002119999999N0000001N9+02171+99999100991ADDGF100991999999999999999999
0029228020999991924081913004+61700+030683FM-12+001699999V0201401N006219999999N0000001N9+02501+99999100981ADDGF103991999999999999999999
0029228020999991924081920004+61700+030683FM-12+001699999V0209991C000019999999N0000001N9+02001+99999100881ADDGF100991999999999999999999
0029228020999991924082006004+61700+030683FM-12+001699999V0201401N004119999999N0000001N9+02001+99999100881ADDGF100991999999999999999999
0029228020999991924082013004+61700+030683FM-12+001699999V0201401N008219999999N0000001N9+02331+99999100841ADDGF100991999999999999999999
0029228020999991924082020004+61700+030683FM-12+001699999V0201401N009819999999N0000001N9+02221+99999100551ADDGF108991999999999999999999
0029228020999991924082106004+61700+030683FM-12+001699999V0201401N010819999999N0000001N9+01891+99999100071ADDGF108991999999999999999999
0029228020999991924082113004+61700+030683FM-12+001699999V0201401N004119999999N0000001N9+01671+99999100271ADDGF108991999999999999999999
0029228020999991924082120004+61700+030683FM-12+001699999V0201801N002119999999N0000001N9+01441+99999100551ADDGF100991999999999999999999
0029228020999991924082206004+61700+030683FM-12+001699999V0200701N002119999999N0000001N9+01441+99999100181ADDGF108991999999999999999999
0035228020999991924082213004+61700+030683FM-12+001699999V0200201N006219999999N0000001N9+01281+99999099621ADDGF108991999999999999999999MW1621
0035228020999991924082220004+61700+030683FM-12+001699999V0200201N008219999999N0000001N9+01281+99999099061ADDGF108991999999999999999999MW1621
0035228020999991924082306004+61700+030683FM-12+001699999V0203201N009819999999N0000001N9+01281+99999099401ADDGF108991999999999999999999MW1621
0029228020999991924082313004+61700+030683FM-12+001699999V0203201N009819999999N0000001N9+01331+99999100031ADDGF108991999999999999999999
0029228020999991924082320004+61700+030683FM-12+001699999V0203201N004119999999N0000001N9+01331+99999100321ADDGF108991999999999999999999
0029228020999991924082406004+61700+030683FM-12+001699999V0200201N002119999999N0000001N9+01171+99999100701ADDGF105991999999999999999999
0029228020999991924082413004+61700+030683FM-12+001699999V0200201N002119999999N0000001N9+01331+99999100791ADDGF108991999999999999999999
0029228020999991924082420004+61700+030683FM-12+001699999V0200501N004119999999N0000001N9+01001+99999100791ADDGF108991999999999999999999
0029228020999991924082506004+61700+030683FM-12+001699999V0200501N002119999999N0000001N9+00781+99999100641ADDGF108991999999999999999999
0029228020999991924082513004+61700+030683FM-12+001699999V0203601N002119999999N0000001N9+01281+99999100551ADDGF102991999999999999999999
0029228020999991924082520004+61700+030683FM-12+001699999V0209991C000019999999N0000001N9+00941+99999100561ADDGF100991999999999999999999
0029228020999991924082606004+61700+030683FM-12+001699999V0200501N001019999999N0000001N9+00831+99999100801ADDGF107991999999999999999999
0029228020999991924082613004+61700+030683FM-12+001699999V0200501N004119999999N0000001N9+01441+99999100911ADDGF107991999999999999999999
0029228020999991924082620004+61700+030683FM-12+001699999V0203601N001019999999N0000001N9+00831+99999101111ADDGF100991999999999999999999
0029228020999991924082706004+61700+030683FM-12+001699999V0203601N001019999999N0000001N9+00891+99999101471ADDGF101991999999999999999999
0029228020999991924082713004+61700+030683FM-12+001699999V0203601N001019999999N0000001N9+01501+99999101501ADDGF102991999999999999999999
0029228020999991924082720004+61700+030683FM-12+001699999V0209991C000019999999N0000001N9+00831+99999101551ADDGF100991999999999999999999
0029228020999991924082806004+61700+030683FM-12+001699999V0209991C000019999999N0000001N9+00781+99999101801ADDGF100991999999999999999999
0029228020999991924082813004+61700+030683FM-12+001699999V0201401N004119999999N0000001N9+01611+99999101841ADDGF100991999999999999999999
0029228020999991924082820004+61700+030683FM-12+001699999V0209991C000019999999N0000001N9+00941+99999101861ADDGF100991999999999999999999
0029228020999991924082906004+61700+030683FM-12+001699999V0201601N001019999999N0000001N9+00781+99999101981ADDGF103991999999999999999999
0029228020999991924082913004+61700+030683FM-12+001699999V0201601N002119999999N0000001N9+01501+99999101981ADDGF108991999999999999999999
0029228020999991924082920004+61700+030683FM-12+001699999V0209991C000019999999N0000001N9+01221+99999101961ADDGF108991999999999999999999
0029228020999991924083006004+61700+030683FM-12+001699999V0201401N001019999999N0000001N9+01171+99999102141ADDGF107991999999999999999999
0029228020999991924083013004+61700+030683FM-12+001699999V0201801N006219999999N0000001N9+01671+99999102161ADDGF106991999999999999999999
0029228020999991924083020004+61700+030683FM-12+001699999V0209991C000019999999N0000001N9+01061+99999102141ADDGF101991999999999999999999
0029228020999991924083106004+61700+030683FM-12+001699999V0209991C000019999999N0000001N9+01061+99999102201ADDGF100991999999999999999999
0029228020999991924083113004+61700+030683FM-12+001699999V0201801N004119999999N0000001N9+01781+99999102081ADDGF100991999999999999999999
0029228020999991924083120004+61700+030683FM-12+001699999V0201401N002119999999N0000001N9+01331+99999101981ADDGF106991999999999999999999
0029228020999991924090106004+61700+030683FM-12+001699999V0201401N001019999999N0000001N9+01331+99999101911ADDGF106991999999999999999999
0029228020999991924090113004+61700+030683FM-12+001699999V0201601N002119999999N0000001N9+01721+99999101841ADDGF104991999999999999999999
