0029228020999991919010106004+61700+030683FM-12+001699999V0203201N001019999999N0000001N9-00441+99999099871ADDGF108991999999999999999999
0035228020999991919010113004+61700+030683FM-12+001699999V0203201N001019999999N0000001N9-00441+99999100061ADDGF108991999999999999999999MW1701
0029228020999991919010120004+61700+030683FM-12+001699999V0203201N001019999999N0000001N9-00441+99999100101ADDGF108991999999999999999999
0029228020999991919010206004+61700+030683FM-12+001699999V0203201N001019999999N0000001N9-00611+99999100151ADDGF108991999999999999999999
0029228020999991919010213004+61700+030683FM-12+001699999V0203201N004619999999N0000001N9-00671+99999100661ADDGF108991999999999999999999
0029228020999991919010220004+61700+030683FM-12+001699999V0203201N001019999999N0000001N9-00671+99999100961ADDGF108991999999999999999999
0029228020999991919010306004+61700+030683FM-12+001699999V0203201N001019999999N0000001N9-00891+99999101301ADDGF108991999999999999999999
0029228020999991919010313004+61700+030683FM-12+001699999V0203601N002619999999N0000001N9-00831+99999101471ADDGF108991999999999999999999
0029228020999991919010320004+61700+030683FM-12+001699999V0203601N001019999999N0000001N9-00831+99999101631ADDGF108991999999999999999999
0029228020999991919010406004+61700+030683FM-12+001699999V0200901N002619999999N0000001N9-01171+99999101821ADDGF108991999999999999999999
0029228020999991919010413004+61700+030683FM-12+001699999V0200901N006719999999N0000001N9-01111+99999101941ADDGF108991999999999999999999
0029228020999991919010420004+61700+030683FM-12+001699999V0200901N006719999999N0000001N9-01171+99999101831ADDGF108991999999999999999999
0029228020999991919010506004+61700+030683FM-12+001699999V0200901N004619999999N0000001N9-00831+99999101511ADDGF108991999999999999999999
0035228020999991919010513004+61700+030683FM-12+001699999V0200901N009319999999N0000001N9-00441+99999101261ADDGF108991999999999999999999MW1701
0035228020999991919010520004+61700+030683FM-12+001699999V0201401N006719999999N0000001N9-00171+99999101071ADDGF108991999999999999999999MW1701
0029228020999991919010606004+61700+030683FM-12+001699999V0201401N002619999999N0000001N9+00001+99999100801ADDGF108991999999999999999999
0035228020999991919010613004+61700+030683FM-12+001699999V0201401N009319999999N0000001N9+00061+99999100751ADDGF108991999999999999999999MW1701
0035228020999991919010620004+61700+030683FM-12+001699999V0201801N004619999999N0000001N9+00111+99999100711ADDGF108991999999999999999999MW1701
0029228020999991919010706004+61700+030683FM-12+001699999V0201801N001019999999N0000001N9+00111+99999100561ADDGF108991999999999999999999
0029228020999991919010713004+61700+030683FM-12+001699999V0201801N002619999999N0000001N9+00221+99999100441ADDGF108991999999999999999999
0029228020999991919010720004+61700+030683FM-12+001699999V0202301N001019999999N0000001N9+00221+99999101141ADDGF108991999999999999999999
0035228020999991919010806004+61700+030683FM-12+001699999V0201801N001019999999N0000001N9+00111+99999101431ADDGF108991999999999999999999MW1621
0029228020999991919010813004+61700+030683FM-12+001699999V0201801N001019999999N0000001N9+00061+99999101721ADDGF108991999999999999999999
0029228020999991919010820004+61700+030683FM-12+001699999V0201801N001019999999N0000001N9+00061+99999102261ADDGF108991999999999999999999
0029228020999991919010906004+61700+030683FM-12+001699999V0203201N001019999999N0000001N9-00061+99999102791ADDGF108991999999999999999999
0029228020999991919010913004+61700+030683FM-12+001699999V0201401N006719999999N0000001N9+00061+99999102721ADDGF108991999999999999999999
0035228020999991919010920004+61700+030683FM-12+001699999V0201401N004619999999N0000001N9-00061+99999102431ADDGF108991999999999999999999MW1701
0029228020999991919011006004+61700+030683FM-12+001699999V0201401N002619999999N0000001N9-00061+99999102071ADDGF108991999999999999999999
0029228020999991919011013004+61700+030683FM-12+001699999V0201601N001019999999N0000001N9+00001+99999101961ADDGF108991999999999999999999
0029228020999991919011020004+61700+030683FM-12+001699999V0201601N001019999999N0000001N9-00061+99999101831ADDGF108991999999999999999999
0029228020999991919011106004+61700+030683FM-12+001699999V0201601N001019999999N0000001N9-00221+99999101601ADDGF108991999999999999999999
0029228020999991919011113004+61700+030683FM-12+001699999V0201601N002619999999N0000001N9-00281+99999101511ADDGF108991999999999999999999
0029228020999991919011120004+61700+030683FM-12+001699999V0201601N001019999999N0000001N9-00281+99999101441ADDGF108991999999999999999999
0029228020999991919011206004+61700+030683FM-12+001699999V0201601N001019999999N0000001N9-00391+99999101511ADDGF108991999999999999999999
0029228020999991919011213004+61700+030683FM-12+001699999V0200701N004619999999N0000001N9-00391+99999101721ADDGF108991999999999999999999
0029228020999991919011220004+61700+030683FM-12+001699999V0200901N002619999999N0000001N9-00441+99999102081ADDGF108991999999999999999999
0029228020999991919011306004+61700+030683FM-12+001699999V0200501N006719999999N0000001N9-01111+99999102421ADDGF108991999999999999999999
0029228020999991919011313004+61700+030683FM-12+001699999V0200701N006719999999N0000001N9-01221+99999102601ADDGF108991999999999999999999
0035228020999991919011320004+61700+030683FM-12+001699999V0201401N006719999999N0000001N9-01221+99999102681ADDGF108991999999999999999999MW1701
0035228020999991919011406004+61700+030683FM-12+001699999V0200701N002619999999N0000001N9-01171+99999102671ADDGF108991999999999999999999MW1721
0035228020999991919011413004+61700+030683FM-12+001699999V0201401N004619999999N0000001N9-01111+99999102841ADDGF108991999999999999999999MW1721
0035228020999991919011420004+61700+030683FM-12+001699999V0200901N002619999999N0000001N9-01001+99999102781ADDGF108991999999999999999999MW1721
0029228020999991919011506004+61700+030683FM-12+001699999V0200901N001019999999N0000001N9-01001+99999102551ADDGF108991999999999999999999
0029228020999991919011513004+61700+030683FM-12+001699999V0200901N001019999999N0000001N9-00781+99999102391ADDGF108991999999999999999999
0029228020999991919011520004+61700+030683FM-12+001699999V0200901N001019999999N0000001N9-00891+99999102161ADDGF108991999999999999999999
0029228020999991919011606004+61700+030683FM-12+001699999V0200901N001019999999N0000001N9-00671+99999101751ADDGF108991999999999999999999
0029228020999991919011613004+61700+030683FM-12+001699999V0201401N002619999999N0000001N9-00331+99999101501ADDGF108991999999999999999999
0029228020999991919011620004+61700+030683FM-12+001699999V0201401N001019999999N0000001N9-00331+99999100921ADDGF108991999999999999999999
0029228020999991919011706004+61700+030683FM-12+001699999V0200901N004619999999N0000001N9-00441+99999100201ADDGF108991999999999999999999
0035228020999991919011713004+61700+030683FM-12+001699999V0200901N002619999999N0000001N9-00061+99999100061ADDGF108991999999999999999999MW1721
0029228020999991919011720004+61700+030683FM-12+001699999V0202301N002619999999N0000001N9-00111+99999100421ADDGF108991999999999999999999
0029228020999991919011806004+61700+030683FM-12+001699999V0202701N001019999999N0000001N9-00501+99999101311ADDGF108991999999999999999999
0029228020999991919011813004+61700+030683FM-12+001699999V0203201N001019999999N0000001N9-00611+99999101871ADDGF108991999999999999999999
0029228020999991919011820004+61700+030683FM-12+001699999V0203201N001019999999N0000001N9-00781+99999102311ADDGF108991999999999999999999
0029228020999991919011906004+61700+030683FM-12+001699999V0203201N001019999999N0000001N9-01221+99999103061ADDGF102991999999999999999999
0029228020999991919011913004+61700+030683FM-12+001699999V0203201N006719999999N0000001N9-01611+99999103631ADDGF100991999999999999999999
0029228020999991919011920004+61700+030683FM-12+001699999V0203201N001019999999N0000001N9-02061+99999104061ADDGF100991999999999999999999
0029228020999991919012006004+61700+030683FM-12+001699999V0200701N001019999999N0000001N9-02331+99999104241ADDGF100991999999999999999999
0029228020999991919012013004+61700+030683FM-12+001699999V0200501N001019999999N0000001N9-01891+99999104261ADDGF107991999999999999999999
0029228020999991919012020004+61700+030683FM-12+001699999V0200501N004619999999N0000001N9-01781+99999104101ADDGF108991999999999999999999
0029228020999991919012106004+61700+030683FM-12+001699999V0200701N002619999999N0000001N9-00941+99999103741ADDGF108991999999999999999999
0029228020999991919012113004+61700+030683FM-12+001699999V0200901N004619999999N0000001N9-00831+99999103631ADDGF108991999999999999999999
0029228020999991919012120004+61700+030683FM-12+001699999V0200901N001019999999N0000001N9-01171+99999103341ADDGF108991999999999999999999
0035228020999991919012206004+61700+030683FM-12+001699999V0200901N001019999999N0000001N9-01281+99999103121ADDGF108991999999999999999999MW1701
0035228020999991919012213004+61700+030683FM-12+001699999V0200901N001019999999N0000001N9-00941+99999103191ADDGF108991999999999999999999MW1701
0035228020999991919012220004+61700+030683FM-12+001699999V0200901N001019999999N0000001N9-00941+99999103391ADDGF108991999999999999999999MW1701
0029228020999991919012306004+61700+030683FM-12+001699999V0200901N001019999999N0000001N9-01061+99999103631ADDGF108991999999999999999999
0029228020999991919012313004+61700+030683FM-12+001699999V0200901N001019999999N0000001N9-00941+99999103721ADDGF108991999999999999999999
0029228020999991919012320004+61700+030683FM-12+001699999V0200901N001019999999N0000001N9-00941+99999103751ADDGF108991999999999999999999
0029228020999991919012406004+61700+030683FM-12+001699999V0203601N002619999999N0000001N9-01171+99999103751ADDGF108991999999999999999999
0029228020999991919012413004+61700+030683FM-12+001699999V0203201N001019999999N0000001N9-01221+99999103711ADDGF105991999999999999999999
0029228020999991919012420004+61700+030683FM-12+001699999V0203201N002619999999N0000001N9-01061+99999103481ADDGF108991999999999999999999
0029228020999991919012506004+61700+030683FM-12+001699999V0202701N001019999999N0000001N9-00831+99999103201ADDGF108991999999999999999999
0029228020999991919012513004+61700+030683FM-12+001699999V0202701N001019999999N0000001N9-00501+99999103081ADDGF108991999999999999999999
0029228020999991919012520004+61700+030683FM-12+001699999V0202701N001019999999N0000001N9-00331+99999102981ADDGF108991999999999999999999
0029228020999991919012606004+61700+030683FM-12+001699999V0202301N001019999999N0000001N9-00221+99999102721ADDGF108991999999999999999999
0035228020999991919012613004+61700+030683FM-12+001699999V0202701N002619999999N0000001N9-00111+99999102781ADDGF108991999999999999999999MW1701
0029228020999991919012620004+61700+030683FM-12+001699999V0202701N001019999999N0000001N9-00061+99999102831ADDGF108991999999999999999999
0029228020999991919012706004+61700+030683FM-12+001699999V0202301N001019999999N0000001N9-00171+99999102861ADDGF108991999999999999999999
0035228020999991919012713004+61700+030683FM-12+001699999V0201801N004619999999N0000001N9-00501+99999103001ADDGF108991999999999999999999MW1701
0029228020999991919012720004+61700+030683FM-12+001699999V0200901N009319999999N0000001N9-00831+99999103221ADDGF108991999999999999999999
0029228020999991919012806004+61700+030683FM-12+001699999V0201801N002619999999N0000001N9-00941+99999103391ADDGF108991999999999999999999
0029228020999991919012813004+61700+030683FM-12+001699999V0201401N004619999999N0000001N9-00781+99999103511ADDGF105991999999999999999999
0029228020999991919012820004+61700+030683FM-12+001699999V0200901N002619999999N0000001N9-00671+99999103621ADDGF100991999999999999999999
0029228020999991919012906004+61700+030683FM-12+001699999V0202001N002619999999N0000001N9-01001+99999103801ADDGF108991999999999999999999
0029228020999991919012913004+61700+030683FM-12+001699999V0202301N001019999999N0000001N9-00891+99999103841ADDGF108991999999999999999999
0029228020999991919012920004+61700+030683FM-12+001699999V0202301N001019999999N0000001N9-00831+99999103821ADDGF100991999999999999999999
0029228020999991919013006004+61700+030683FM-12+001699999V0202301N002619999999N0000001N9-00671+99999103711ADDGF106991999999999999999999
0029228020999991919013013004+61700+030683FM-12+001699999V0203201N002619999999N0000001N9-00501+99999103601ADDGF108991999999999999999999
0029228020999991919013020004+61700+030683FM-12+001699999V0202701N004619999999N0000001N9-00281+99999103201ADDGF108991999999999999999999
0029228020999991919013106004+61700+030683FM-12+001699999V0202701N001019999999N0000001N9-00721+99999102581ADDGF100991999999999999999999
0029228020999991919013113004+61700+030683FM-12+001699999V0203201N001019999999N0000001N9-00221+99999102471ADDGF102991999999999999999999
0035228020999991919013120004+61700+030683FM-12+001699999V0202701N002619999999N0000001N9-00281+99999102341ADDGF108991999999999999999999MW1701
0029228020999991919020106004+61700+030683FM-12+001699999V0202701N001019999999N0000001N9-00441+99999102071ADDGF108991999999999999999999
0029228020999991919020113004+61700+030683FM-12+001699999V0202701N001019999999N0000001N9-00281+99999101911ADDGF108991999999999999999999
0029228020999991919020120004+61700+030683FM-12+001699999V0203201N001019999999N0000001N9-00331+99999101161ADDGF108991999999999999999999
0029228020999991919020206004+61700+030683FM-12+001699999V0203201N001019999999N0000001N9-00391+99999100871ADDGF108991999999999999999999
0029228020999991919020213004+61700+030683FM-12+001699999V0203201N002619999999N0000001N9-00611+99999101041ADDGF108991999999999999999999
0029228020999991919020220004+61700+030683FM-12+001699999V0203201N002619999999N0000001N9-00941+99999101001ADDGF108991999999999999999999
0029228020999991919020306004+61700+030683FM-12+001699999V0203201N002619999999N0000001N9-01171+99999100821ADDGF108991999999999999999999
0029228020999991919020313004+61700+030683FM-12+001699999V0201401N002619999999N0000001N9-01061+99999100591ADDGF108991999999999999999999
0035228020999991919020320004+61700+030683FM-12+001699999V0201401N004619999999N0000001N9-00671+99999100141ADDGF108991999999999999999999MW1721
0029228020999991919020406004+61700+030683FM-12+001699999V0201101N001019999999N0000001N9-00941+99999099921ADDGF108991999999999999999999
0035228020999991919020413004+61700+030683FM-12+001699999V0200501N001019999999N0000001N9-00781+99999099981ADDGF108991999999999999999999MW1721
0029228020999991919020420004+61700+030683FM-12+001699999V0200501N001019999999N0000001N9-01281+99999100391ADDGF108991999999999999999999
0029228020999991919020506004+61700+030683FM-12+001699999V0200201N002619999999N0000001N9-01281+99999100391ADDGF108991999999999999999999
0035228020999991919020513004+61700+030683FM-12+001699999V0200501N004619999999N0000001N9-01171+99999100161ADDGF108991999999999999999999MW1701
0029228020999991919020520004+61700+030683FM-12+001699999V0200201N002619999999N0000001N9-01171+99999100061ADDGF108991999999999999999999
0029228020999991919020606004+61700+030683FM-12+001699999V0200501N002619999999N0000001N9-01331+99999100021ADDGF108991999999999999999999
0029228020999991919020613004+61700+030683FM-12+001699999V0203601N001019999999N0000001N9-01331+99999100181ADDGF102991999999999999999999
0029228020999991919020620004+61700+030683FM-12+001699999V0203601N001019999999N0000001N9-01501+99999100481ADDGF100991999999999999999999
0029228020999991919020706004+61700+030683FM-12+001699999V0203201N004619999999N0000001N9-01611+99999101021ADDGF108991999999999999999999
0029228020999991919020713004+61700+030683FM-12+001699999V0203601N002619999999N0000001N9-01611+99999101431ADDGF100991999999999999999999
0029228020999991919020720004+61700+030683FM-12+001699999V0209991C000019999999N0000001N9-02171+99999102081ADDGF100991999999999999999999
0029228020999991919020806004+61700+030683FM-12+001699999V0209991C000019999999N0000001N9-01941+99999102391ADDGF108991999999999999999999
0029228020999991919020813004+61700+030683FM-12+001699999V0203201N001019999999N0000001N9-01501+99999102471ADDGF100991999999999999999999
0029228020999991919020820004+61700+030683FM-12+001699999V0209991C000019999999N0000001N9-01501+99999102181ADDGF100991999999999999999999
0029228020999991919020906004+61700+030683FM-12+001699999V0209991C000019999999N0000001N9-01061+99999101831ADDGF108991999999999999999999
0029228020999991919020913004+61700+030683FM-12+001699999V0209991C000019999999N0000001N9-00441+99999101661ADDGF108991999999999999999999
0029228020999991919020920004+61700+030683FM-12+001699999V0209991C000019999999N0000001N9-00391+99999100911ADDGF108991999999999999999999
0029228020999991919021006004+61700+030683FM-12+001699999V0203201N006719999999N0000001N9+00111+99999099401ADDGF108991999999999999999999
0029228020999991919021013004+61700+030683FM-12+001699999V0203201N004619999999N0000001N9-00061+99999099401ADDGF108991999999999999999999
0029228020999991919021020004+61700+030683FM-12+001699999V0203601N001019999999N0000001N9-00501+99999099721ADDGF102991999999999999999999
0035228020999991919021106004+61700+030683FM-12+001699999V0200501N002619999999N0000001N9-01061+99999099271ADDGF108991999999999999999999MW1701
0029228020999991919021113004+61700+030683FM-12+001699999V0200501N001019999999N0000001N9-00891+99999099551ADDGF104991999999999999999999
0029228020999991919021120004+61700+030683FM-12+001699999V0203601N001019999999N0000001N9-01281+99999100141ADDGF100991999999999999999999
0029228020999991919021206004+61700+030683FM-12+001699999V0200201N002619999999N0000001N9-01561+99999100471ADDGF100991999999999999999999
0029228020999991919021213004+61700+030683FM-12+001699999V0203601N004619999999N0000001N9-01281+99999100791ADDGF108991999999999999999999
0029228020999991919021220004+61700+030683FM-12+001699999V0203601N001019999999N0000001N9-01391+99999100941ADDGF108991999999999999999999
0029228020999991919021306004+61700+030683FM-12+001699999V0202301N004619999999N0000001N9-01061+99999100301ADDGF108991999999999999999999
0029228020999991919021313004+61700+030683FM-12+001699999V0203201N004619999999N0000001N9-00611+99999099991ADDGF108991999999999999999999
0029228020999991919021320004+61700+030683FM-12+001699999V0203601N001019999999N0000001N9-00831+99999100191ADDGF106991999999999999999999
0035228020999991919021406004+61700+030683FM-12+001699999V0201401N006719999999N0000001N9-00831+99999099261ADDGF108991999999999999999999MW1701
0029228020999991919021413004+61700+030683FM-12+001699999V0201401N004619999999N0000001N9-00831+99999098671ADDGF108991999999999999999999
0029228020999991919021420004+61700+030683FM-12+001699999V0201401N001019999999N0000001N9-00891+99999098281ADDGF108991999999999999999999
0029228020999991919021506004+61700+030683FM-12+001699999V0201401N001019999999N0000001N9-00611+99999097841ADDGF108991999999999999999999
0029228020999991919021513004+61700+030683FM-12+001699999V0202501N001019999999N0000001N9-00171+99999097791ADDGF103991999999999999999999
0029228020999991919021520004+61700+030683FM-12+001699999V0203201N004619999999N0000001N9-00671+99999098071ADDGF101991999999999999999999
0029228020999991919021606004+61700+030683FM-12+001699999V0203201N001019999999N0000001N9-01721+99999099271ADDGF108991999999999999999999
0029228020999991919021613004+61700+030683FM-12+001699999V0203601N001019999999N0000001N9-01391+99999100021ADDGF108991999999999999999999
0029228020999991919021620004+61700+030683FM-12+001699999V0200501N002619999999N0000001N9-01561+99999100581ADDGF108991999999999999999999
0029228020999991919021706004+61700+030683FM-12+001699999V0200501N002619999999N0000001N9-02061+99999101061ADDGF108991999999999999999999
0029228020999991919021713004+61700+030683FM-12+001699999V0200501N002619999999N0000001N9-01831+99999101141ADDGF108991999999999999999999
0029228020999991919021720004+61700+030683FM-12+001699999V0209991C000019999999N0000001N9-01941+99999101181ADDGF108991999999999999999999
0029228020999991919021806004+61700+030683FM-12+001699999V0200901N001019999999N0000001N9-01781+99999100861ADDGF108991999999999999999999
0035228020999991919021813004+61700+030683FM-12+001699999V0200901N004619999999N0000001N9-01221+99999100541ADDGF108991999999999999999999MW1721
0035228020999991919021820004+61700+030683FM-12+001699999V0200901N006719999999N0000001N9-00671+99999099861ADDGF108991999999999999999999MW1721
0029228020999991919021906004+61700+030683FM-12+001699999V0201801N002619999999N0000001N9-00561+99999099111ADDGF108991999999999999999999
0029228020999991919021913004+61700+030683FM-12+001699999V0203201N004619999999N0000001N9-00721+99999099381ADDGF100991999999999999999999
0029228020999991919021920004+61700+030683FM-12+001699999V0209991C000019999999N0000001N9-00721+99999099761ADDGF108991999999999999999999
0029228020999991919022006004+61700+030683FM-12+001699999V0202701N002619999999N0000001N9-01441+99999100401ADDGF108991999999999999999999
0029228020999991919022013004+61700+030683FM-12+001699999V0201401N002619999999N0000001N9-00781+99999100751ADDGF108991999999999999999999
0029228020999991919022020004+61700+030683FM-12+001699999V0201801N004619999999N0000001N9-00611+99999100711ADDGF108991999999999999999999
0035228020999991919022106004+61700+030683FM-12+001699999V0201801N002619999999N0000001N9-00781+99999100141ADDGF108991999999999999999999MW1721
0029228020999991919022113004+61700+030683FM-12+001699999V0202301N002619999999N0000001N9-00331+99999100261ADDGF108991999999999999999999
0029228020999991919022120004+61700+030683FM-12+001699999V0202301N001019999999N0000001N9-00391+99999100581ADDGF108991999999999999999999
0029228020999991919022206004+61700+030683FM-12+001699999V0200901N002619999999N0000001N9-00501+99999100511ADDGF108991999999999999999999
0029228020999991919022213004+61700+030683FM-12+001699999V0200501N002619999999N0000001N9-00281+99999100541ADDGF108991999999999999999999
0029228020999991919022220004+61700+030683FM-12+001699999V0203601N002619999999N0000001N9-00721+99999100781ADDGF100991999999999999999999
0029228020999991919022306004+61700+030683FM-12+001699999V0203401N001019999999N0000001N9-01831+99999101161ADDGF108991999999999999999999
0029228020999991919022313004+61700+030683FM-12+001699999V0203601N001019999999N0000001N9-00941+99999101311ADDGF100991999999999999999999
0029228020999991919022320004+61700+030683FM-12+001699999V0203601N001019999999N0000001N9-01831+99999100061ADDGF100991999999999999999999
0029228020999991919022406004+61700+030683FM-12+001699999V0203601N002619999999N0000001N9-02831+99999101461ADDGF108991999999999999999999
0029228020999991919022413004+61700+030683FM-12+001699999V0203601N002619999999N0000001N9-01111+99999101581ADDGF100991999999999999999999
0029228020999991919022420004+61700+030683FM-12+001699999V0203601N002619999999N0000001N9-02061+99999101661ADDGF100991999999999999999999
0029228020999991919022506004+61700+030683FM-12+001699999V0203201N004619999999N0000001N9-01891+99999101841ADDGF108991999999999999999999
0029228020999991919022513004+61700+030683FM-12+001699999V0203201N004619999999N0000001N9-00941+99999102111ADDGF100991999999999999999999
0029228020999991919022520004+61700+030683FM-12+001699999V0203201N001019999999N0000001N9-01671+99999102631ADDGF100991999999999999999999
0029228020999991919022606004+61700+030683FM-12+001699999V0203201N001019999999N0000001N9-02221+99999102961ADDGF108991999999999999999999
0029228020999991919022613004+61700+030683FM-12+001699999V0203201N001019999999N0000001N9-00891+99999102921ADDGF106991999999999999999999
0029228020999991919022620004+61700+030683FM-12+001699999V0203201N004619999999N0000001N9-01221+99999102681ADDGF100991999999999999999999
0029228020999991919022706004+61700+030683FM-12+001699999V0203201N002619999999N0000001N9-01831+99999102821ADDGF108991999999999999999999
0029228020999991919022713004+61700+030683FM-12+001699999V0203201N002619999999N0000001N9-00611+99999102881ADDGF100991999999999999999999
0029228020999991919022720004+61700+030683FM-12+001699999V0203201N001019999999N0000001N9-02061+99999102861ADDGF100991999999999999999999
0029228020999991919022806004+61700+030683FM-12+001699999V0203201N002619999999N0000001N9-02941+99999102751ADDGF108991999999999999999999
0029228020999991919022813004+61700+030683FM-12+001699999V0203201N002619999999N0000001N9-01391+99999102701ADDGF103991999999999999999999
0029228020999991919022820004+61700+030683FM-12+001699999V0203201N001019999999N0000001N9-02171+99999102541ADDGF100991999999999999999999
0029228020999991919030106004+61700+030683FM-12+001699999V0203201N001019999999N0000001N9-02721+99999102471ADDGF108991999999999999999999
0029228020999991919030113004+61700+030683FM-12+001699999V0203201N002619999999N0000001N9-01561+99999102421ADDGF100991999999999999999999
0029228020999991919030120004+61700+030683FM-12+001699999V0209991C000019999999N0000001N9-01831+99999102181ADDGF100991999999999999999999
0029228020999991919030206004+61700+030683FM-12+001699999V0201801N001019999999N0000001N9-00831+99999102031ADDGF108991999999999999999999
0029228020999991919030213004+61700+030683FM-12+001699999V0201801N006719999999N0000001N9-00501+99999101961ADDGF108991999999999999999999
0029228020999991919030220004+61700+030683FM-12+001699999V0201801N006719999999N0000001N9-00441+99999101911ADDGF108991999999999999999999
0029228020999991919030306004+61700+030683FM-12+001699999V0201801N004619999999N0000001N9-00391+99999101801ADDGF108991999999999999999999
0029228020999991919030313004+61700+030683FM-12+001699999V0201801N006719999999N0000001N9-00331+99999101761ADDGF108991999999999999999999
0029228020999991919030320004+61700+030683FM-12+001699999V0201801N004619999999N0000001N9-00281+99999101561ADDGF108991999999999999999999
0029228020999991919030406004+61700+030683FM-12+001699999V0201401N004619999999N0000001N9-00441+99999100871ADDGF108991999999999999999999
0035228020999991919030413004+61700+030683FM-12+001699999V0201801N009319999999N0000001N9-00331+99999100241ADDGF108991999999999999999999MW1701
0029228020999991919030420004+61700+030683FM-12+001699999V0201801N004619999999N0000001N9-00061+99999099911ADDGF108991999999999999999999
0029228020999991919030506004+61700+030683FM-12+001699999V0202701N002619999999N0000001N9-00501+99999100161ADDGF108991999999999999999999
0029228020999991919030513004+61700+030683FM-12+001699999V0202701N006719999999N0000001N9+00001+99999100221ADDGF105991999999999999999999
0029228020999991919030520004+61700+030683FM-12+001699999V0202301N002619999999N0000001N9-00171+99999100201ADDGF100991999999999999999999
0029228020999991919030606004+61700+030683FM-12+001699999V0202001N002619999999N0000001N9-01171+99999100431ADDGF108991999999999999999999
0029228020999991919030613004+61700+030683FM-12+001699999V0202001N001019999999N0000001N9-00671+99999100631ADDGF100991999999999999999999
0029228020999991919030620004+61700+030683FM-12+001699999V0201401N001019999999N0000001N9-00781+99999100781ADDGF100991999999999999999999
0029228020999991919030706004+61700+030683FM-12+001699999V0201401N001019999999N0000001N9-01611+99999100701ADDGF108991999999999999999999
0029228020999991919030713004+61700+030683FM-12+001699999V0201401N001019999999N0000001N9-00281+99999100581ADDGF108991999999999999999999
0035228020999991919030720004+61700+030683FM-12+001699999V0201801N004619999999N0000001N9-00221+99999099911ADDGF108991999999999999999999MW1721
0035228020999991919030806004+61700+030683FM-12+001699999V0202301N004619999999N0000001N9-00111+99999098921ADDGF108991999999999999999999MW1701
0029228020999991919030813004+61700+030683FM-12+001699999V0202301N004619999999N0000001N9+00061+99999099071ADDGF108991999999999999999999
0029228020999991919030820004+61700+030683FM-12+001699999V0201801N001019999999N0000001N9-00331+99999099301ADDGF108991999999999999999999
0029228020999991919030906004+61700+030683FM-12+001699999V0203201N002619999999N0000001N9-00611+99999099981ADDGF108991999999999999999999
0029228020999991919030913004+61700+030683FM-12+001699999V0202901N004619999999N0000001N9-00061+99999100401ADDGF100991999999999999999999
0029228020999991919030920004+61700+030683FM-12+001699999V0202701N001019999999N0000001N9-00781+99999100821ADDGF100991999999999999999999
0029228020999991919031006004+61700+030683FM-12+001699999V0202701N001019999999N0000001N9-01441+99999100991ADDGF106991999999999999999999
0029228020999991919031013004+61700+030683FM-12+001699999V0201601N004619999999N0000001N9-00221+99999101031ADDGF101991999999999999999999
0029228020999991919031020004+61700+030683FM-12+001699999V0201801N001019999999N0000001N9-00281+99999100831ADDGF108991999999999999999999
0035228020999991919031106004+61700+030683FM-12+001699999V0201401N002619999999N0000001N9-00441+99999100421ADDGF108991999999999999999999MW1721
0029228020999991919031113004+61700+030683FM-12+001699999V0201401N002619999999N0000001N9-00331+99999100031ADDGF108991999999999999999999
0029228020999991919031120004+61700+030683FM-12+001699999V0201801N006719999999N0000001N9+00001+99999098361ADDGF108991999999999999999999
0029228020999991919031206004+61700+030683FM-12+001699999V0202901N002619999999N0000001N9-00111+99999099341ADDGF108991999999999999999999
0029228020999991919031213004+61700+030683FM-12+001699999V0202701N002619999999N0000001N9+00221+99999099621ADDGF102991999999999999999999
0035228020999991919031220004+61700+030683FM-12+001699999V0202701N002619999999N0000001N9+00061+99999099311ADDGF108991999999999999999999MW1721
0029228020999991919031306004+61700+030683FM-12+001699999V0203201N004619999999N0000001N9-00331+99999100711ADDGF108991999999999999999999
0029228020999991919031313004+61700+030683FM-12+001699999V0203201N009319999999N0000001N9-00111+99999101221ADDGF108991999999999999999999
0029228020999991919031320004+61700+030683FM-12+001699999V0203201N001019999999N0000001N9-00831+99999101821ADDGF100991999999999999999999
0029228020999991919031406004+61700+030683FM-12+001699999V0203201N001019999999N0000001N9-01171+99999102071ADDGF100991999999999999999999
0029228020999991919031413004+61700+030683FM-12+001699999V0203201N004619999999N0000001N9-00221+99999102341ADDGF104991999999999999999999
0029228020999991919031420004+61700+030683FM-12+001699999V0203201N001019999999N0000001N9-00831+99999102561ADDGF100991999999999999999999
0029228020999991919031506004+61700+030683FM-12+001699999V0203201N004619999999N0000001N9-00781+99999102361ADDGF108991999999999999999999
0029228020999991919031513004+61700+030683FM-12+001699999V0203601N006719999999N0000001N9-00391+99999102581ADDGF108991999999999999999999
0029228020999991919031520004+61700+030683FM-12+001699999V0203601N006719999999N0000001N9-01331+99999102751ADDGF100991999999999999999999
0029228020999991919031606004+61700+030683FM-12+001699999V0203601N002619999999N0000001N9-01171+99999103151ADDGF103991999999999999999999
0029228020999991919031613004+61700+030683FM-12+001699999V0202901N004619999999N0000001N9-00221+99999102831ADDGF102991999999999999999999
0029228020999991919031620004+61700+030683FM-12+001699999V0203201N002619999999N0000001N9-00501+99999101921ADDGF108991999999999999999999
0029228020999991919031706004+61700+030683FM-12+001699999V0202701N002619999999N0000001N9-00611+99999100761ADDGF108991999999999999999999
0029228020999991919031713004+61700+030683FM-12+001699999V0203601N006719999999N0000001N9-00611+99999100551ADDGF108991999999999999999999
0029228020999991919031720004+61700+030683FM-12+001699999V0203201N004619999999N0000001N9-01331+99999100881ADDGF108991999999999999999999
0029228020999991919031806004+61700+030683FM-12+001699999V0203401N002619999999N0000001N9-02001+99999100841ADDGF102991999999999999999999
0029228020999991919031813004+61700+030683FM-12+001699999V0203401N009319999999N0000001N9-01061+99999101021ADDGF108991999999999999999999
0029228020999991919031820004+61700+030683FM-12+001699999V0200501N004619999999N0000001N9-01831+99999101481ADDGF100991999999999999999999
0029228020999991919031906004+61700+030683FM-12+001699999V0203201N001019999999N0000001N9-02501+99999101551ADDGF100991999999999999999999
0035228020999991919031913004+61700+030683FM-12+001699999V0203201N002619999999N0000001N9-00891+99999101271ADDGF100991999999999999999999MW1701
0029228020999991919031920004+61700+030683FM-12+001699999V0203201N002619999999N0000001N9-00781+99999100681ADDGF100991999999999999999999
0029228020999991919032006004+61700+030683FM-12+001699999V0203601N002619999999N0000001N9-01781+99999100781ADDGF100991999999999999999999
0029228020999991919032013004+61700+030683FM-12+001699999V0203601N004619999999N0000001N9-01171+99999101041ADDGF100991999999999999999999
0029228020999991919032020004+61700+030683FM-12+001699999V0200501N001019999999N0000001N9-01331+99999101271ADDGF108991999999999999999999
0029228020999991919032106004+61700+030683FM-12+001699999V0200501N001019999999N0000001N9-02611+99999101281ADDGF100991999999999999999999
0029228020999991919032113004+61700+030683FM-12+001699999V0202701N004619999999N0000001N9-00891+99999101061ADDGF106991999999999999999999
0029228020999991919032120004+61700+030683FM-12+001699999V0209991C000019999999N0000001N9-01111+99999100711ADDGF100991999999999999999999
0029228020999991919032206004+61700+030683FM-12+001699999V0202701N001019999999N0000001N9-01171+99999100201ADDGF105991999999999999999999
0029228020999991919032213004+61700+030683FM-12+001699999V0201801N002619999999N0000001N9-00501+99999099911ADDGF108991999999999999999999
0029228020999991919032220004+61700+030683FM-12+001699999V0201801N004619999999N0000001N9-00891+99999099781ADDGF108991999999999999999999
0029228020999991919032306004+61700+030683FM-12+001699999V0201401N001019999999N0000001N9-01391+99999099421ADDGF108991999999999999999999
0029228020999991919032313004+61700+030683FM-12+001699999V0201401N006719999999N0000001N9-01061+99999099361ADDGF102991999999999999999999
0029228020999991919032320004+61700+030683FM-12+001699999V0209991C000019999999N0000001N9-01441+99999099271ADDGF100991999999999999999999
0035228020999991919032406004+61700+030683FM-12+001699999V0201401N001019999999N0000001N9-01171+99999099181ADDGF108991999999999999999999MW1721
0035228020999991919032413004+61700+030683FM-12+001699999V0201401N001019999999N0000001N9-00671+99999099261ADDGF108991999999999999999999MW1721
0035228020999991919032420004+61700+030683FM-12+001699999V0209991C000019999999N0000001N9-00781+99999099501ADDGF108991999999999999999999MW1721
0029228020999991919032506004+61700+030683FM-12+001699999V0203601N001019999999N0000001N9-01501+99999100161ADDGF102991999999999999999999
0029228020999991919032513004+61700+030683FM-12+001699999V0203601N004619999999N0000001N9-00941+99999100541ADDGF105991999999999999999999
0029228020999991919032520004+61700+030683FM-12+001699999V0203601N004619999999N0000001N9-01441+99999101061ADDGF100991999999999999999999
0029228020999991919032606004+61700+030683FM-12+001699999V0203401N001019999999N0000001N9-02171+99999101581ADDGF100991999999999999999999
0029228020999991919032613004+61700+030683FM-12+001699999V0203601N002619999999N0000001N9-00831+99999101671ADDGF100991999999999999999999
0029228020999991919032620004+61700+030683FM-12+001699999V0203601N001019999999N0000001N9-01331+99999101791ADDGF100991999999999999999999
0029228020999991919032706004+61700+030683FM-12+001699999V0203601N001019999999N0000001N9-01781+99999101821ADDGF108991999999999999999999
0029228020999991919032713004+61700+030683FM-12+001699999V0203601N001019999999N0000001N9-00501+99999101821ADDGF108991999999999999999999
0029228020999991919032720004+61700+030683FM-12+001699999V0209991C000019999999N0000001N9-01561+99999101661ADDGF100991999999999999999999
0029228020999991919032806004+61700+030683FM-12+001699999V0201401N001019999999N0000001N9-02171+99999101551ADDGF100991999999999999999999
0029228020999991919032813004+61700+030683FM-12+001699999V0201401N001019999999N0000001N9-00561+99999101591ADDGF100991999999999999999999
0029228020999991919032820004+61700+030683FM-12+001699999V0209991C000019999999N0000001N9-01171+99999101441ADDGF100991999999999999999999
0029228020999991919032906004+61700+030683FM-12+001699999V0201401N001019999999N0000001N9-01171+99999101361ADDGF100991999999999999999999
0029228020999991919032913004+61700+030683FM-12+001699999V0201401N001019999999N0000001N9-00221+99999101161ADDGF101991999999999999999999
0029228020999991919032920004+61700+030683FM-12+001699999V0209991C000019999999N0000001N9-00441+99999100781ADDGF100991999999999999999999
0029228020999991919033006004+61700+030683FM-12+001699999V0200901N002619999999N0000001N9-00831+99999100441ADDGF100991999999999999999999
0029228020999991919033013004+61700+030683FM-12+001699999V0200901N002619999999N0000001N9+00061+99999100261ADDGF101991999999999999999999
0029228020999991919033020004+61700+030683FM-12+001699999V0209991C000019999999N0000001N9-00501+99999100071ADDGF100991999999999999999999
0029228020999991919033106004+61700+030683FM-12+001699999V0200501N004619999999N0000001N9-00721+99999099911ADDGF108991999999999999999999
0029228020999991919033113004+61700+030683FM-12+001699999V0200701N004619999999N0000001N9-00221+99999099831ADDGF108991999999999999999999
0029228020999991919033120004+61700+030683FM-12+001699999V0209991C000019999999N0000001N9-00441+99999099801ADDGF108991999999999999999999
0035228020999991919040106004+61700+030683FM-12+001699999V0200501N001019999999N0000001N9-00501+99999099721ADDGF108991999999999999999999MW1701
0035228020999991919040113004+61700+030683FM-12+001699999V0203601N001019999999N0000001N9-00221+99999099861ADDGF108991999999999999999999MW1701
0035228020999991919040120004+61700+030683FM-12+001699999V0209991C000019999999N0000001N9-00441+99999100201ADDGF108991999999999999999999MW1701
0029228020999991919040206004+61700+030683FM-12+001699999V0209991C000019999999N0000001N9-00671+99999100261ADDGF108991999999999999999999
0029228020999991919040213004+61700+030683FM-12+001699999V0201401N002619999999N0000001N9-00221+99999100261ADDGF108991999999999999999999
0029228020999991919040220004+61700+030683FM-12+001699999V0201401N006719999999N0000001N9-00331+99999100071ADDGF108991999999999999999999
0035228020999991919040306004+61700+030683FM-12+001699999V0201801N009319999999N0000001N9-00111+99999099341ADDGF108991999999999999999999MW1721
0029228020999991919040313004+61700+030683FM-12+001699999V0202701N002619999999N0000001N9-00111+99999099431ADDGF102991999999999999999999
0029228020999991919040320004+61700+030683FM-12+001699999V0202301N009319999999N0000001N9-00441+99999099421ADDGF108991999999999999999999
0029228020999991919040406004+61700+030683FM-12+001699999V0202701N004619999999N0000001N9-00391+99999099591ADDGF105991999999999999999999
0029228020999991919040413004+61700+030683FM-12+001699999V0202701N012319999999N0000001N9-00061+99999099831ADDGF108991999999999999999999
0029228020999991919040420004+61700+030683FM-12+001699999V0202701N002619999999N0000001N9-00111+99999100221ADDGF100991999999999999999999
0035228020999991919040506004+61700+030683FM-12+001699999V0201801N012319999999N0000001N9-00441+99999099151ADDGF108991999999999999999999MW1701
0029228020999991919040513004+61700+030683FM-12+001699999V0202301N006719999999N0000001N9+00221+99999098911ADDGF108991999999999999999999
0029228020999991919040520004+61700+030683FM-12+001699999V0203201N001019999999N0000001N9-00561+99999099511ADDGF100991999999999999999999
0029228020999991919040606004+61700+030683FM-12+001699999V0203201N001019999999N0000001N9-01221+99999099641ADDGF100991999999999999999999
0029228020999991919040613004+61700+030683FM-12+001699999V0203201N004619999999N0000001N9+00111+99999099561ADDGF102991999999999999999999
0029228020999991919040620004+61700+030683FM-12+001699999V0209991C000019999999N0000001N9-00501+99999099551ADDGF100991999999999999999999
0029228020999991919040706004+61700+030683FM-12+001699999V0202701N004619999999N0000001N9-00891+99999099901ADDGF100991999999999999999999
0029228020999991919040713004+61700+030683FM-12+001699999V0202701N006719999999N0000001N9-00061+99999100231ADDGF108991999999999999999999
0029228020999991919040720004+61700+030683FM-12+001699999V0202701N001019999999N0000001N9-00501+99999100841ADDGF100991999999999999999999
0029228020999991919040806004+61700+030683FM-12+001699999V0203201N001019999999N0000001N9-01221+99999101031ADDGF100991999999999999999999
0029228020999991919040813004+61700+030683FM-12+001699999V0203201N001019999999N0000001N9+00221+99999101191ADDGF100991999999999999999999
0029228020999991919040820004+61700+030683FM-12+001699999V0209991C000019999999N0000001N9-00781+99999101461ADDGF100991999999999999999999
0029228020999991919040906004+61700+030683FM-12+001699999V0209991C000019999999N0000001N9-00941+99999101591ADDGF102991999999999999999999
0029228020999991919040913004+61700+030683FM-12+001699999V0201401N001019999999N0000001N9+00111+99999101501ADDGF108991999999999999999999
0029228020999991919040920004+61700+030683FM-12+001699999V0209991C000019999999N0000001N9+00281+99999100951ADDGF108991999999999999999999
0035228020999991919041006004+61700+030683FM-12+001699999V0201401N015419999999N0000001N9+00221+99999099981ADDGF108991999999999999999999MW1621
0029228020999991919041013004+61700+030683FM-12+001699999V0201401N009319999999N0000001N9+00281+99999099701ADDGF108991999999999999999999
0029228020999991919041020004+61700+030683FM-12+001699999V0202301N004619999999N0000001N9+00281+99999100151ADDGF108991999999999999999999
0029228020999991919041106004+61700+030683FM-12+001699999V0202301N006719999999N0000001N9+00061+99999100141ADDGF106991999999999999999999
0029228020999991919041113004+61700+030683FM-12+001699999V0201801N006719999999N0000001N9+00281+99999099941ADDGF108991999999999999999999
0029228020999991919041120004+61700+030683FM-12+001699999V0209991C000019999999N0000001N9+00171+99999100391ADDGF108991999999999999999999
0029228020999991919041206004+61700+030683FM-12+001699999V0201801N001019999999N0000001N9+00221+99999100151ADDGF108991999999999999999999
0029228020999991919041213004+61700+030683FM-12+001699999V0201801N002619999999N0000001N9+00331+99999099901ADDGF108991999999999999999999
0029228020999991919041220004+61700+030683FM-12+001699999V0201801N001019999999N0000001N9+00331+99999099781ADDGF108991999999999999999999
0029228020999991919041306004+61700+030683FM-12+001699999V0202301N002619999999N0000001N9+00221+99999099821ADDGF108991999999999999999999
0029228020999991919041313004+61700+030683FM-12+001699999V0201401N002619999999N0000001N9+00441+99999099951ADDGF100991999999999999999999
0029228020999991919041320004+61700+030683FM-12+001699999V0201801N001019999999N0000001N9+00331+99999100111ADDGF101991999999999999999999
0029228020999991919041406004+61700+030683FM-12+001699999V0202301N001019999999N0000001N9+00001+99999100521ADDGF100991999999999999999999
0029228020999991919041413004+61700+030683FM-12+001699999V0201401N002619999999N0000001N9+00281+99999100641ADDGF100991999999999999999999
0035228020999991919041420004+61700+030683FM-12+001699999V0209991C000019999999N0000001N9+00171+99999100361ADDGF108991999999999999999999MW1601
0029228020999991919041506004+61700+030683FM-12+001699999V0201401N001019999999N0000001N9+00221+99999100581ADDGF108991999999999999999999
0029228020999991919041513004+61700+030683FM-12+001699999V0201401N001019999999N0000001N9+00831+99999100921ADDGF100991999999999999999999
0029228020999991919041520004+61700+030683FM-12+001699999V0209991C000019999999N0000001N9+00061+99999101271ADDGF100991999999999999999999
0029228020999991919041606004+61700+030683FM-12+001699999V0200701N001019999999N0000001N9+00221+99999101481ADDGF108991999999999999999999
0035228020999991919041613004+61700+030683FM-12+001699999V0200901N002619999999N0000001N9+00391+99999101741ADDGF108991999999999999999999MW1621
0029228020999991919041620004+61700+030683FM-12+001699999V0200501N004619999999N0000001N9+00331+99999101551ADDGF103991999999999999999999
0029228020999991919041706004+61700+030683FM-12+001699999V0200501N001019999999N0000001N9+00501+99999101381ADDGF100991999999999999999999
0029228020999991919041713004+61700+030683FM-12+001699999V0201401N004619999999N0000001N9+00941+99999101301ADDGF104991999999999999999999
0029228020999991919041720004+61700+030683FM-12+001699999V0201401N002619999999N0000001N9+00611+99999101071ADDGF108991999999999999999999
0029228020999991919041806004+61700+030683FM-12+001699999V0201601N006719999999N0000001N9+00331+99999100941ADDGF108991999999999999999999
0035228020999991919041813004+61700+030683FM-12+001699999V0201401N006719999999N0000001N9+00281+99999100741ADDGF108991999999999999999999MW1621
0029228020999991919041820004+61700+030683FM-12+001699999V0202301N002619999999N0000001N9+00221+99999101001ADDGF108991999999999999999999
0029228020999991919041906004+61700+030683FM-12+001699999V0209991C000019999999N0000001N9+00221+99999100861ADDGF108991999999999999999999
0029228020999991919041913004+61700+030683FM-12+001699999V0203201N001019999999N0000001N9+00441+99999100921ADDGF108991999999999999999999
0029228020999991919041920004+61700+030683FM-12+001699999V0201801N001019999999N0000001N9+00281+99999100391ADDGF100991999999999999999999
0035228020999991919042006004+61700+030683FM-12+001699999V0202701N001019999999N0000001N9+00391+99999099141ADDGF108991999999999999999999MW1621
0029228020999991919042013004+61700+030683FM-12+001699999V0202701N006719999999N0000001N9+00561+99999099591ADDGF105991999999999999999999
0035228020999991919042020004+61700+030683FM-12+001699999V0203201N002619999999N0000001N9-00061+99999100141ADDGF108991999999999999999999MW1701
0029228020999991919042106004+61700+030683FM-12+001699999V0203601N012319999999N0000001N9-00391+99999101841ADDGF103991999999999999999999
0029228020999991919042113004+61700+030683FM-12+001699999V0203601N012319999999N0000001N9+00001+99999102621ADDGF101991999999999999999999
0029228020999991919042120004+61700+030683FM-12+001699999V0203601N002619999999N0000001N9-00281+99999102801ADDGF100991999999999999999999
0046228020999991919042206004+61700+030683FM-12+001699999V0203601N001019999999N0000001N9-00441+99999102741ADDAJ100009199999999GF106991999999999999999999
0029228020999991919042213004+61700+030683FM-12+001699999V0201801N004619999999N0000001N9+00171+99999102261ADDGF105991999999999999999999
0029228020999991919042220004+61700+030683FM-12+001699999V0202301N006719999999N0000001N9+00111+99999101581ADDGF108991999999999999999999
0046228020999991919042306004+61700+030683FM-12+001699999V0202501N002619999999N0000001N9+00171+99999101101ADDAJ100009199999999GF106991999999999999999999
0029228020999991919042313004+61700+030683FM-12+001699999V0201401N006719999999N0000001N9+00611+99999101041ADDGF108991999999999999999999
0029228020999991919042320004+61700+030683FM-12+001699999V0209991C000019999999N0000001N9+00281+99999101021ADDGF108991999999999999999999
0046228020999991919042406004+61700+030683FM-12+001699999V0202301N001019999999N0000001N9+00281+99999100831ADDAJ100009199999999GF100991999999999999999999
0029228020999991919042413004+61700+030683FM-12+001699999V0201601N004619999999N0000001N9+00671+99999100791ADDGF103991999999999999999999
0029228020999991919042420004+61700+030683FM-12+001699999V0209991C000019999999N0000001N9+00171+99999100721ADDGF105991999999999999999999
0046228020999991919042506004+61700+030683FM-12+001699999V0201601N001019999999N0000001N9+00221+99999100661ADDAJ100009199999999GF108991999999999999999999
0029228020999991919042513004+61700+030683FM-12+001699999V0201401N004619999999N0000001N9+00671+99999100701ADDGF103991999999999999999999
0029228020999991919042520004+61700+030683FM-12+001699999V0209991C000019999999N0000001N9+00441+99999100711ADDGF108991999999999999999999
0046228020999991919042606004+61700+030683FM-12+001699999V0201601N001019999999N0000001N9+00391+99999100561ADDAJ100009199999999GF108991999999999999999999
0029228020999991919042613004+61700+030683FM-12+001699999V0201401N001019999999N0000001N9+01001+99999100351ADDGF108991999999999999999999
0029228020999991919042620004+61700+030683FM-12+001699999V0209991C000019999999N0000001N9+00721+99999100061ADDGF108991999999999999999999
0046228020999991919042706004+61700+030683FM-12+001699999V0209991C000019999999N0000001N9+00721+99999099351ADDAJ100009199999999GF108991999999999999999999
0029228020999991919042713004+61700+030683FM-12+001699999V0209991C000019999999N0000001N9+00781+99999099391ADDGF108991999999999999999999
0029228020999991919042720004+61700+030683FM-12+001699999V0209991C000019999999N0000001N9+00561+99999099591ADDGF108991999999999999999999
0046228020999991919042806004+61700+030683FM-12+001699999V0200901N001019999999N0000001N9+00441+99999099841ADDAJ100009199999999GF108991999999999999999999
0029228020999991919042813004+61700+030683FM-12+001699999V0200501N001019999999N0000001N9+00781+99999100141ADDGF108991999999999999999999
0029228020999991919042820004+61700+030683FM-12+001699999V0209991C000019999999N0000001N9+00331+99999100671ADDGF106991999999999999999999
0046228020999991919042906004+61700+030683FM-12+001699999V0209991C000019999999N0000001N9+00221+99999101081ADDAJ100009199999999GF108991999999999999999999
0029228020999991919042913004+61700+030683FM-12+001699999V0203601N001019999999N0000001N9+00781+99999101221ADDGF108991999999999999999999
0029228020999991919042920004+61700+030683FM-12+001699999V0209991C000019999999N0000001N9+00501+99999101441ADDGF104991999999999999999999
0046228020999991919043006004+61700+030683FM-12+001699999V0209991C000019999999N0000001N9+00331+99999101681ADDAJ100009199999999GF100991999999999999999999
0029228020999991919043013004+61700+030683FM-12+001699999V0201401N001019999999N0000001N9+00611+99999101681ADDGF100991999999999999999999
0029228020999991919043020004+61700+030683FM-12+001699999V0201401N001019999999N0000001N9+00281+99999101561ADDGF108991999999999999999999
0046228020999991919050106004+61700+030683FM-12+001699999V0201401N001019999999N0000001N9+00331+99999101431ADDAJ100009199999999GF106991999999999999999999
0029228020999991919050113004+61700+030683FM-12+001699999V0201401N002619999999N0000001N9+00891+99999101541ADDGF108991999999999999999999
0029228020999991919050120004+61700+030683FM-12+001699999V0209991C000019999999N0000001N9+00781+99999101561ADDGF108991999999999999999999
0046228020999991919050206004+61700+030683FM-12+001699999V0200901N002619999999N0000001N9+00671+99999101831ADDAJ100009199999999GF100991999999999999999999
0029228020999991919050213004+61700+030683FM-12+001699999V0200901N004619999999N0000001N9+01221+99999101881ADDGF100991999999999999999999
0029228020999991919050220004+61700+030683FM-12+001699999V0200501N002619999999N0000001N9+00721+99999101911ADDGF100991999999999999999999
0046228020999991919050306004+61700+030683FM-12+001699999V0200901N004619999999N0000001N9+01001+99999102391ADDAJ100009199999999GF100991999999999999999999
0029228020999991919050313004+61700+030683FM-12+001699999V0200901N006719999999N0000001N9+01501+99999102511ADDGF100991999999999999999999
0029228020999991919050320004+61700+030683FM-12+001699999V0200901N006719999999N0000001N9+00891+99999102801ADDGF100991999999999999999999
0046228020999991919050406004+61700+030683FM-12+001699999V0200901N002619999999N0000001N9+00831+99999103311ADDAJ100009199999999GF100991999999999999999999
0029228020999991919050413004+61700+030683FM-12+001699999V0200901N006719999999N0000001N9+01281+99999103471ADDGF100991999999999999999999
0029228020999991919050420004+61700+030683FM-12+001699999V0200901N002619999999N0000001N9+00781+99999103881ADDGF100991999999999999999999
0046228020999991919050506004+61700+030683FM-12+001699999V0200901N002619999999N0000001N9+00441+99999104521ADDAJ100009199999999GF100991999999999999999999
0029228020999991919050513004+61700+030683FM-12+001699999V0201401N001019999999N0000001N9+01061+99999104581ADDGF102991999999999999999999
0029228020999991919050520004+61700+030683FM-12+001699999V0201401N001019999999N0000001N9+00561+99999104431ADDGF100991999999999999999999
0046228020999991919050606004+61700+030683FM-12+001699999V0203201N002619999999N0000001N9+00611+99999104501ADDAJ100009199999999GF100991999999999999999999
0029228020999991919050613004+61700+030683FM-12+001699999V0203201N006719999999N0000001N9+01721+99999104231ADDGF100991999999999999999999
0029228020999991919050620004+61700+030683FM-12+001699999V0203201N001019999999N0000001N9+01061+99999103701ADDGF100991999999999999999999
0046228020999991919050706004+61700+030683FM-12+001699999V0203201N002619999999N0000001N9+01001+99999103641ADDAJ100009199999999GF100991999999999999999999
0029228020999991919050713004+61700+030683FM-12+001699999V0203601N006719999999N0000001N9+01941+99999103441ADDGF100991999999999999999999
0029228020999991919050720004+61700+030683FM-12+001699999V0200501N001019999999N0000001N9+01331+99999103361ADDGF100991999999999999999999
0046228020999991919050806004+61700+030683FM-12+001699999V0200501N002619999999N0000001N9+01061+99999103341ADDAJ100009199999999GF100991999999999999999999
0029228020999991919050813004+61700+030683FM-12+001699999V0203201N002619999999N0000001N9+02281+99999103021ADDGF100991999999999999999999
0029228020999991919050820004+61700+030683FM-12+001699999V0209991C000019999999N0000001N9+01441+99999102701ADDGF100991999999999999999999
0046228020999991919050906004+61700+030683FM-12+001699999V0200501N001019999999N0000001N9+01061+99999102861ADDAJ100009199999999GF100991999999999999999999
0029228020999991919050913004+61700+030683FM-12+001699999V0203601N004619999999N0000001N9+01561+99999102631ADDGF100991999999999999999999
0029228020999991919050920004+61700+030683FM-12+001699999V0200501N001019999999N0000001N9+01061+99999102421ADDGF100991999999999999999999
0046228020999991919051006004+61700+030683FM-12+001699999V0200901N004619999999N0000001N9+00501+99999102511ADDAJ100009199999999GF100991999999999999999999
0029228020999991919051013004+61700+030683FM-12+001699999V0200701N004619999999N0000001N9+01001+99999102461ADDGF102991999999999999999999
0029228020999991919051020004+61700+030683FM-12+001699999V0200901N001019999999N0000001N9+00501+99999102561ADDGF100991999999999999999999
0046228020999991919051106004+61700+030683FM-12+001699999V0200901N001019999999N0000001N9+00391+99999102751ADDAJ100009199999999GF100991999999999999999999
0029228020999991919051113004+61700+030683FM-12+001699999V0201801N006719999999N0000001N9+01001+99999102391ADDGF106991999999999999999999
0029228020999991919051120004+61700+030683FM-12+001699999V0202301N001019999999N0000001N9+00561+99999102101ADDGF104991999999999999999999
0046228020999991919051206004+61700+030683FM-12+001699999V0200901N002619999999N0000001N9+00281+99999101821ADDAJ100009199999999GF108991999999999999999999
0035228020999991919051213004+61700+030683FM-12+001699999V0200901N002619999999N0000001N9+00171+99999101901ADDGF108991999999999999999999MW1701
0029228020999991919051220004+61700+030683FM-12+001699999V0200701N001019999999N0000001N9+00221+99999101871ADDGF108991999999999999999999
0046228020999991919051306004+61700+030683FM-12+001699999V0200501N004619999999N0000001N9-00061+99999102071ADDAJ100009199999999GF108991999999999999999999
0029228020999991919051313004+61700+030683FM-12+001699999V0200501N004619999999N0000001N9+00281+99999102151ADDGF108991999999999999999999
0029228020999991919051320004+61700+030683FM-12+001699999V0200501N001019999999N0000001N9+00111+99999102461ADDGF108991999999999999999999
0046228020999991919051406004+61700+030683FM-12+001699999V0200501N001019999999N0000001N9+00171+99999102481ADDAJ100009199999999GF108991999999999999999999
0029228020999991919051413004+61700+030683FM-12+001699999V0203601N002619999999N0000001N9+00501+99999102351ADDGF108991999999999999999999
0029228020999991919051420004+61700+030683FM-12+001699999V0203601N001019999999N0000001N9+00221+99999102141ADDGF108991999999999999999999
0046228020999991919051506004+61700+030683FM-12+001699999V0203601N002619999999N0000001N9+00221+99999102001ADDAJ100009199999999GF108991999999999999999999
0029228020999991919051513004+61700+030683FM-12+001699999V0203601N002619999999N0000001N9+00331+99999101991ADDGF108991999999999999999999
0029228020999991919051520004+61700+030683FM-12+001699999V0203201N001019999999N0000001N9+00281+99999101941ADDGF108991999999999999999999
0046228020999991919051606004+61700+030683FM-12+001699999V0203201N001019999999N0000001N9+00281+99999101921ADDAJ100009199999999GF108991999999999999999999
0029228020999991919051613004+61700+030683FM-12+001699999V0201401N004619999999N0000001N9+00441+99999102081ADDGF108991999999999999999999
0029228020999991919051620004+61700+030683FM-12+001699999V0201401N001019999999N0000001N9+00331+99999102341ADDGF108991999999999999999999
0046228020999991919051706004+61700+030683FM-12+001699999V0200701N001019999999N0000001N9+00391+99999102551ADDAJ100009199999999GF102991999999999999999999
0029228020999991919051713004+61700+030683FM-12+001699999V0203201N002619999999N0000001N9+00501+99999102541ADDGF107991999999999999999999
0029228020999991919051720004+61700+030683FM-12+001699999V0200501N001019999999N0000001N9+00331+99999102461ADDGF108991999999999999999999
0046228020999991919051806004+61700+030683FM-12+001699999V0203601N001019999999N0000001N9+00441+99999102241ADDAJ100009199999999GF108991999999999999999999
0029228020999991919051813004+61700+030683FM-12+001699999V0200901N006719999999N0000001N9+00721+99999101921ADDGF105991999999999999999999
0029228020999991919051820004+61700+030683FM-12+001699999V0201801N001019999999N0000001N9+00501+99999101671ADDGF108991999999999999999999
0046228020999991919051906004+61700+030683FM-12+001699999V0202501N001019999999N0000001N9+00441+99999101391ADDAJ100009199999999GF108991999999999999999999
0029228020999991919051913004+61700+030683FM-12+001699999V0203401N002619999999N0000001N9+00941+99999101521ADDGF103991999999999999999999
0029228020999991919051920004+61700+030683FM-12+001699999V0203601N001019999999N0000001N9+00831+99999101751ADDGF105991999999999999999999
0046228020999991919052006004+61700+030683FM-12+001699999V0203601N001019999999N0000001N9+00831+99999102001ADDAJ100009199999999GF105991999999999999999999
0029228020999991919052013004+61700+030683FM-12+001699999V0203201N002619999999N0000001N9+01721+99999101961ADDGF102991999999999999999999
0029228020999991919052020004+61700+030683FM-12+001699999V0203601N001019999999N0000001N9+00941+99999101941ADDGF106991999999999999999999
0046228020999991919052106004+61700+030683FM-12+001699999V0203601N001019999999N0000001N9+00721+99999102001ADDAJ100009199999999GF106991999999999999999999
0029228020999991919052113004+61700+030683FM-12+001699999V0201401N004619999999N0000001N9+01221+99999101921ADDGF102991999999999999999999
0029228020999991919052120004+61700+030683FM-12+001699999V0209991C000019999999N0000001N9+01001+99999101921ADDGF108991999999999999999999
0046228020999991919052206004+61700+030683FM-12+001699999V0200701N002619999999N0000001N9+01061+99999102141ADDAJ100009199999999GF105991999999999999999999
0029228020999991919052213004+61700+030683FM-12+001699999V0200501N006719999999N0000001N9+01391+99999102281ADDGF108991999999999999999999
0029228020999991919052220004+61700+030683FM-12+001699999V0200501N002619999999N0000001N9+01001+99999102541ADDGF105991999999999999999999
0046228020999991919052306004+61700+030683FM-12+001699999V0200501N001019999999N0000001N9+01001+99999102901ADDAJ100009199999999GF100991999999999999999999
0029228020999991919052313004+61700+030683FM-12+001699999V0201401N006719999999N0000001N9+01611+99999102871ADDGF102991999999999999999999
0029228020999991919052320004+61700+030683FM-12+001699999V0200901N001019999999N0000001N9+01171+99999102741ADDGF108991999999999999999999
0046228020999991919052406004+61700+030683FM-12+001699999V0200901N001019999999N0000001N9+01111+99999102881ADDAJ100009199999999GF100991999999999999999999
0029228020999991919052413004+61700+030683FM-12+001699999V0201801N006719999999N0000001N9+01781+99999102761ADDGF100991999999999999999999
0029228020999991919052420004+61700+030683FM-12+001699999V0202301N001019999999N0000001N9+01331+99999102561ADDGF108991999999999999999999
0046228020999991919052506004+61700+030683FM-12+001699999V0202301N001019999999N0000001N9+01441+99999102551ADDAJ100009199999999GF100991999999999999999999
0029228020999991919052513004+61700+030683FM-12+001699999V0201401N004619999999N0000001N9+02221+99999102381ADDGF100991999999999999999999
0029228020999991919052520004+61700+030683FM-12+001699999V0201401N001019999999N0000001N9+01391+99999102231ADDGF102991999999999999999999
0046228020999991919052606004+61700+030683FM-12+001699999V0201401N001019999999N0000001N9+01331+99999102121ADDAJ100009199999999GF100991999999999999999999
0029228020999991919052613004+61700+030683FM-12+001699999V0201401N001019999999N0000001N9+02331+99999102081ADDGF100991999999999999999999
0029228020999991919052620004+61700+030683FM-12+001699999V0201401N001019999999N0000001N9+01281+99999101801ADDGF100991999999999999999999
0046228020999991919052706004+61700+030683FM-12+001699999V0201401N001019999999N0000001N9+01671+99999101621ADDAJ100009199999999GF100991999999999999999999
0029228020999991919052713004+61700+030683FM-12+001699999V0203201N006719999999N0000001N9+02281+99999101441ADDGF104991999999999999999999
0029228020999991919052720004+61700+030683FM-12+001699999V0203201N004619999999N0000001N9+02001+99999101301ADDGF108991999999999999999999
0046228020999991919052806004+61700+030683FM-12+001699999V0203601N004619999999N0000001N9+01561+99999101481ADDAJ100009199999999GF100991999999999999999999
0029228020999991919052813004+61700+030683FM-12+001699999V0201801N002619999999N0000001N9+01941+99999101301ADDGF102991999999999999999999
0029228020999991919052820004+61700+030683FM-12+001699999V0201801N001019999999N0000001N9+01441+99999100911ADDGF108991999999999999999999
0046228020999991919052906004+61700+030683FM-12+001699999V0201401N001019999999N0000001N9+00941+99999100671ADDAJ100009199999999GF108991999999999999999999
0029228020999991919052913004+61700+030683FM-12+001699999V0202301N006719999999N0000001N9+01331+99999100481ADDGF108991999999999999999999
0029228020999991919052920004+61700+030683FM-12+001699999V0201401N001019999999N0000001N9+01001+99999100401ADDGF108991999999999999999999
0046228020999991919053006004+61700+030683FM-12+001699999V0201401N001019999999N0000001N9+00831+99999100511ADDAJ100009199999999GF108991999999999999999999
0029228020999991919053013004+61700+030683FM-12+001699999V0201801N006719999999N0000001N9+01891+99999100591ADDGF101991999999999999999999
0029228020999991919053020004+61700+030683FM-12+001699999V0201801N004619999999N0000001N9+01281+99999100561ADDGF108991999999999999999999
0046228020999991919053106004+61700+030683FM-12+001699999V0201401N001019999999N0000001N9+01501+99999100581ADDAJ100009199999999GF108991999999999999999999
0029228020999991919053113004+61700+030683FM-12+001699999V0201401N004619999999N0000001N9+02331+99999100441ADDGF102991999999999999999999
0029228020999991919053120004+61700+030683FM-12+001699999V0201801N002619999999N0000001N9+01281+99999100421ADDGF108991999999999999999999
0046228020999991919060106004+61700+030683FM-12+001699999V0201801N004119999999N0000001N9+01331+99999100361ADDAJ100009199999999GF108991999999999999999999
0029228020999991919060113004+61700+030683FM-12+001699999V0201801N005119999999N0000001N9+02221+99999100241ADDGF103991999999999999999999
0029228020999991919060120004+61700+030683FM-12+001699999V0201801N007219999999N0000001N9+01281+99999100191ADDGF107991999999999999999999
0046228020999991919060206004+61700+030683FM-12+001699999V0201401N003119999999N0000001N9+01001+99999100151ADDAJ100009199999999GF108991999999999999999999
0029228020999991919060213004+61700+030683FM-12+001699999V0201801N005119999999N0000001N9+01941+99999100221ADDGF102991999999999999999999
0029228020999991919060220004+61700+030683FM-12+001699999V0201801N001019999999N0000001N9+01221+99999100261ADDGF106991999999999999999999
0046228020999991919060306004+61700+030683FM-12+001699999V0209991C000019999999N0000001N9+01221+99999100511ADDAJ100009199999999GF108991999999999999999999
0029228020999991919060313004+61700+030683FM-12+001699999V0201801N006219999999N0000001N9+01501+99999100641ADDGF102991999999999999999999
0029228020999991919060320004+61700+030683FM-12+001699999V0201801N003119999999N0000001N9+01221+99999100621ADDGF100991999999999999999999
0052228020999991919060406004+61700+030683FM-12+001699999V0201401N006219999999N0000001N9+01111+99999100401ADDAJ100009199999999GF108991999999999999999999MW1621
0029228020999991919060413004+61700+030683FM-12+001699999V0201801N006219999999N0000001N9+01281+99999100741ADDGF103991999999999999999999
0029228020999991919060420004+61700+030683FM-12+001699999V0201401N002119999999N0000001N9+01061+99999100901ADDGF108991999999999999999999
0046228020999991919060506004+61700+030683FM-12+001699999V0209991C000019999999N0000001N9+01221+99999100961ADDAJ100009199999999GF107991999999999999999999
0029228020999991919060513004+61700+030683FM-12+001699999V0202701N002119999999N0000001N9+01721+99999100761ADDGF108991999999999999999999
0029228020999991919060520004+61700+030683FM-12+001699999V0201801N002119999999N0000001N9+01171+99999100461ADDGF108991999999999999999999
0046228020999991919060606004+61700+030683FM-12+001699999V0201801N002119999999N0000001N9+00891+99999100821ADDAJ100009199999999GF108991999999999999999999
0029228020999991919060613004+61700+030683FM-12+001699999V0201401N002119999999N0000001N9+01721+99999101001ADDGF103991999999999999999999
0029228020999991919060620004+61700+030683FM-12+001699999V0201801N002119999999N0000001N9+01221+99999101141ADDGF103991999999999999999999
0046228020999991919060706004+61700+030683FM-12+001699999V0209991C000019999999N0000001N9+01501+99999101521ADDAJ100009199999999GF107991999999999999999999
0029228020999991919060713004+61700+030683FM-12+001699999V0201801N002119999999N0000001N9+02111+99999101681ADDGF100991999999999999999999
0029228020999991919060720004+61700+030683FM-12+001699999V0201801N002119999999N0000001N9+01611+99999101861ADDGF108991999999999999999999
0046228020999991919060806004+61700+030683FM-12+001699999V0209991C000019999999N0000001N9+01671+99999102061ADDAJ100009199999999GF108991999999999999999999
0029228020999991919060813004+61700+030683FM-12+001699999V0201401N002119999999N0000001N9+02061+99999101981ADDGF108991999999999999999999
0029228020999991919060820004+61700+030683FM-12+001699999V0203201N001019999999N0000001N9+01611+99999101841ADDGF108991999999999999999999
0046228020999991919060906004+61700+030683FM-12+001699999V0203201N001019999999N0000001N9+01611+99999102111ADDAJ100009199999999GF100991999999999999999999
0029228020999991919060913004+61700+030683FM-12+001699999V0202301N004119999999N0000001N9+02281+99999102181ADDGF105991999999999999999999
0029228020999991919060920004+61700+030683FM-12+001699999V0201401N002119999999N0000001N9+01501+99999102101ADDGF107991999999999999999999
0046228020999991919061006004+61700+030683FM-12+001699999V0201801N002119999999N0000001N9+01831+99999101861ADDAJ100009199999999GF106991999999999999999999
0029228020999991919061013004+61700+030683FM-12+001699999V0201401N004119999999N0000001N9+01831+99999101521ADDGF107991999999999999999999
0029228020999991919061020004+61700+030683FM-12+001699999V0202301N004119999999N0000001N9+01781+99999101081ADDGF108991999999999999999999
0046228020999991919061106004+61700+030683FM-12+001699999V0203201N004119999999N0000001N9+01331+99999101021ADDAJ100009199999999GF107991999999999999999999
0029228020999991919061113004+61700+030683FM-12+001699999V0203201N009819999999N0000001N9+02001+99999101061ADDGF105991999999999999999999
0029228020999991919061120004+61700+030683FM-12+001699999V0203601N004119999999N0000001N9+01441+99999101021ADDGF108991999999999999999999
0046228020999991919061206004+61700+030683FM-12+001699999V0203201N002119999999N0000001N9+01441+99999100951ADDAJ100009199999999GF100991999999999999999999
0035228020999991919061213004+61700+030683FM-12+001699999V0203201N004119999999N0000001N9+01441+99999100721ADDGF108991999999999999999999MW1601
0029228020999991919061220004+61700+030683FM-12+001699999V0203201N004119999999N0000001N9+01281+99999100981ADDGF108991999999999999999999
0046228020999991919061306004+61700+030683FM-12+001699999V0203201N004119999999N0000001N9+01111+99999101391ADDAJ100009199999999GF108991999999999999999999
0029228020999991919061313004+61700+030683FM-12+001699999V0203201N008219999999N0000001N9+01561+99999101521ADDGF106991999999999999999999
0029228020999991919061320004+61700+030683FM-12+001699999V0203201N001019999999N0000001N9+01061+99999101521ADDGF107991999999999999999999
0046228020999991919061406004+61700+030683FM-12+001699999V0200501N001019999999N0000001N9+01001+99999101231ADDAJ100009199999999GF108991999999999999999999
0029228020999991919061413004+61700+030683FM-12+001699999V0201801N001019999999N0000001N9+01221+99999101151ADDGF107991999999999999999999
0029228020999991919061420004+61700+030683FM-12+001699999V0200701N001019999999N0000001N9+01001+99999101081ADDGF108991999999999999999999
0046228020999991919061506004+61700+030683FM-12+001699999V0203201N003119999999N0000001N9+01221+99999100961ADDAJ100009199999999GF102991999999999999999999
0029228020999991919061513004+61700+030683FM-12+001699999V0201801N004119999999N0000001N9+01561+99999100981ADDGF100991999999999999999999
0029228020999991919061520004+61700+030683FM-12+001699999V0209991C000019999999N0000001N9+01331+99999101101ADDGF108991999999999999999999
0046228020999991919061606004+61700+030683FM-12+001699999V0200501N004119999999N0000001N9+01281+99999101201ADDAJ100009199999999GF108991999999999999999999
0029228020999991919061613004+61700+030683FM-12+001699999V0200501N006219999999N0000001N9+01941+99999101181ADDGF103991999999999999999999
0029228020999991919061620004+61700+030683FM-12+001699999V0203201N002119999999N0000001N9+01501+99999101241ADDGF101991999999999999999999
0046228020999991919061706004+61700+030683FM-12+001699999V0203601N002119999999N0000001N9+01391+99999101351ADDAJ100009199999999GF102991999999999999999999
0029228020999991919061713004+61700+030683FM-12+001699999V0203601N004119999999N0000001N9+02111+99999101281ADDGF105991999999999999999999
0029228020999991919061720004+61700+030683FM-12+001699999V0203601N004119999999N0000001N9+01831+99999101241ADDGF105991999999999999999999
0046228020999991919061806004+61700+030683FM-12+001699999V0209991C000019999999N0000001N9+01721+99999101271ADDAJ100009199999999GF105991999999999999999999
0029228020999991919061813004+61700+030683FM-12+001699999V0201401N004119999999N0000001N9+02441+99999101201ADDGF103991999999999999999999
0029228020999991919061820004+61700+030683FM-12+001699999V0201801N002119999999N0000001N9+01891+99999101301ADDGF102991999999999999999999
0046228020999991919061906004+61700+030683FM-12+001699999V0209991C000019999999N0000001N9+01831+99999101231ADDAJ100009199999999GF102991999999999999999999
0029228020999991919061913004+61700+030683FM-12+001699999V0201801N004119999999N0000001N9+02281+99999101221ADDGF108991999999999999999999
0029228020999991919061920004+61700+030683FM-12+001699999V0201801N002119999999N0000001N9+01671+99999101181ADDGF102991999999999999999999
0046228020999991919062006004+61700+030683FM-12+001699999V0201801N001019999999N0000001N9+01671+99999101161ADDAJ100009199999999GF107991999999999999999999
0029228020999991919062013004+61700+030683FM-12+001699999V0201801N001019999999N0000001N9+02391+99999101261ADDGF103991999999999999999999
0029228020999991919062020004+61700+030683FM-12+001699999V0209991C000019999999N0000001N9+01831+99999101461ADDGF107991999999999999999999
0046228020999991919062106004+61700+030683FM-12+001699999V0202701N004119999999N0000001N9+01671+99999101681ADDAJ100009199999999GF102991999999999999999999
0029228020999991919062113004+61700+030683FM-12+001699999V0201801N008219999999N0000001N9+01941+99999101631ADDGF103991999999999999999999
0029228020999991919062120004+61700+030683FM-12+001699999V0209991C000019999999N0000001N9+01501+99999101581ADDGF108991999999999999999999
0046228020999991919062206004+61700+030683FM-12+001699999V0201801N004119999999N0000001N9+01441+99999101471ADDAJ100009199999999GF108991999999999999999999
0029228020999991919062213004+61700+030683FM-12+001699999V0201801N004119999999N0000001N9+02221+99999101391ADDGF107991999999999999999999
0029228020999991919062220004+61700+030683FM-12+001699999V0209991C000019999999N0000001N9+01781+99999101121ADDGF108991999999999999999999
0046228020999991919062306004+61700+030683FM-12+001699999V0201401N006219999999N0000001N9+01831+99999100951ADDAJ100009199999999GF103991999999999999999999
0029228020999991919062313004+61700+030683FM-12+001699999V0201401N006219999999N0000001N9+02561+99999100681ADDGF100991999999999999999999
0029228020999991919062320004+61700+030683FM-12+001699999V0209991C000019999999N0000001N9+01781+99999100681ADDGF107991999999999999999999
0046228020999991919062406004+61700+030683FM-12+001699999V0201401N002119999999N0000001N9+02111+99999100431ADDAJ100009199999999GF108991999999999999999999
0029228020999991919062413004+61700+030683FM-12+001699999V0201801N004119999999N0000001N9+02441+99999100161ADDGF105991999999999999999999
0029228020999991919062420004+61700+030683FM-12+001699999V0201401N008719999999N0000001N9+01331+99999100071ADDGF108991999999999999999999
0046228020999991919062506004+61700+030683FM-12+001699999V0202701N008719999999N0000001N9+01281+99999100181ADDAJ100009199999999GF108991999999999999999999
0029228020999991919062513004+61700+030683FM-12+001699999V0202301N004119999999N0000001N9+02171+99999100801ADDGF103991999999999999999999
0029228020999991919062520004+61700+030683FM-12+001699999V0201401N002119999999N0000001N9+01501+99999101081ADDGF108991999999999999999999
0046228020999991919062606004+61700+030683FM-12+001699999V0201401N006219999999N0000001N9+01721+99999101151ADDAJ100009199999999GF106991999999999999999999
0029228020999991919062613004+61700+030683FM-12+001699999V0201401N008719999999N0000001N9+02281+99999101071ADDGF103991999999999999999999
0029228020999991919062620004+61700+030683FM-12+001699999V0201401N002119999999N0000001N9+01941+99999101001ADDGF108991999999999999999999
0046228020999991919062706004+61700+030683FM-12+001699999V0209991C000019999999N0000001N9+01501+99999101381ADDAJ100009199999999GF108991999999999999999999
0029228020999991919062713004+61700+030683FM-12+001699999V0201401N004119999999N0000001N9+01941+99999101581ADDGF105991999999999999999999
0029228020999991919062720004+61700+030683FM-12+001699999V0201801N002119999999N0000001N9+01501+99999101621ADDGF105991999999999999999999
0046228020999991919062806004+61700+030683FM-12+001699999V0202301N002119999999N0000001N9+01721+99999101631ADDAJ100009199999999GF101991999999999999999999
0029228020999991919062813004+61700+030683FM-12+001699999V0201401N002119999999N0000001N9+02501+99999101181ADDGF102991999999999999999999
0029228020999991919062820004+61700+030683FM-12+001699999V0201401N002119999999N0000001N9+02111+99999100821ADDGF102991999999999999999999
0046228020999991919062906004+61700+030683FM-12+001699999V0200901N004119999999N0000001N9+02391+99999100321ADDAJ100009199999999GF102991999999999999999999
0029228020999991919062913004+61700+030683FM-12+001699999V0201801N008219999999N0000001N9+02561+99999100161ADDGF107991999999999999999999
0035228020999991919062920004+61700+030683FM-12+001699999V0201401N002119999999N0000001N9+01611+99999100381ADDGF108991999999999999999999MW1621
0046228020999991919063006004+61700+030683FM-12+001699999V0201401N002119999999N0000001N9+01561+99999100631ADDAJ100009199999999GF108991999999999999999999
0029228020999991919063013004+61700+030683FM-12+001699999V0201401N004119999999N0000001N9+01501+99999100841ADDGF108991999999999999999999
0029228020999991919063020004+61700+030683FM-12+001699999V0201801N004119999999N0000001N9+01281+99999100881ADDGF108991999999999999999999
0046228020999991919070106004+61700+030683FM-12+001699999V0200901N004119999999N0000001N9+01221+99999101151ADDAJ100009199999999GF100991999999999999999999
0035228020999991919070113004+61700+030683FM-12+001699999V0201401N002119999999N0000001N9+01671+99999100881ADDGF108991999999999999999999MW1621
0029228020999991919070120004+61700+030683FM-12+001699999V0201401N004119999999N0000001N9+01281+99999100641ADDGF108991999999999999999999
0046228020999991919070206004+61700+030683FM-12+001699999V0202501N004119999999N0000001N9+01281+99999100751ADDAJ100009199999999GF108991999999999999999999
0029228020999991919070213004+61700+030683FM-12+001699999V0202301N004119999999N0000001N9+01441+99999101261ADDGF108991999999999999999999
0029228020999991919070220004+61700+030683FM-12+001699999V0202301N004119999999N0000001N9+01331+99999101321ADDGF106991999999999999999999
0046228020999991919070306004+61700+030683FM-12+001699999V0202701N002119999999N0000001N9+01611+99999101471ADDAJ100009199999999GF102991999999999999999999
0029228020999991919070313004+61700+030683FM-12+001699999V0202701N004119999999N0000001N9+02171+99999101421ADDGF100991999999999999999999
0029228020999991919070320004+61700+030683FM-12+001699999V0203201N002119999999N0000001N9+01501+99999101361ADDGF100991999999999999999999
0046228020999991919070406004+61700+030683FM-12+001699999V0209991C000019999999N0000001N9+01831+99999101421ADDAJ100009199999999GF100991999999999999999999
0029228020999991919070413004+61700+030683FM-12+001699999V0201801N004119999999N0000001N9+02331+99999101421ADDGF106991999999999999999999
0029228020999991919070420004+61700+030683FM-12+001699999V0201801N002119999999N0000001N9+01781+99999101311ADDGF100991999999999999999999
0046228020999991919070506004+61700+030683FM-12+001699999V0201401N002119999999N0000001N9+01891+99999101241ADDAJ100009199999999GF105991999999999999999999
0029228020999991919070513004+61700+030683FM-12+001699999V0201401N002119999999N0000001N9+02221+99999101071ADDGF102991999999999999999999
0029228020999991919070520004+61700+030683FM-12+001699999V0201401N002119999999N0000001N9+02001+99999100921ADDGF101991999999999999999999
0046228020999991919070606004+61700+030683FM-12+001699999V0201801N002119999999N0000001N9+02001+99999101121ADDAJ100009199999999GF100991999999999999999999
0029228020999991919070613004+61700+030683FM-12+001699999V0201801N004119999999N0000001N9+02391+99999101231ADDGF105991999999999999999999
0029228020999991919070620004+61700+030683FM-12+001699999V0209991C000019999999N0000001N9+01781+99999102591ADDGF103991999999999999999999
0046228020999991919070706004+61700+030683FM-12+001699999V0209991C000019999999N0000001N9+01671+99999101201ADDAJ100009199999999GF108991999999999999999999
0035228020999991919070713004+61700+030683FM-12+001699999V0201401N002119999999N0000001N9+01781+99999101141ADDGF108991999999999999999999MW1601
0029228020999991919070720004+61700+030683FM-12+001699999V0209991C000019999999N0000001N9+01671+99999101071ADDGF103991999999999999999999
0046228020999991919070806004+61700+030683FM-12+001699999V0201401N002119999999N0000001N9+02001+99999101111ADDAJ100009199999999GF102991999999999999999999
0035228020999991919070813004+61700+030683FM-12+001699999V0203601N002119999999N0000001N9+02001+99999101191ADDGF108991999999999999999999MW1621
0029228020999991919070820004+61700+030683FM-12+001699999V0203601N002119999999N0000001N9+01781+99999101121ADDGF108991999999999999999999
0046228020999991919070906004+61700+030683FM-12+001699999V0209991C000019999999N0000001N9+02061+99999101201ADDAJ100009199999999GF100991999999999999999999
0029228020999991919070913004+61700+030683FM-12+001699999V0201801N004119999999N0000001N9+02441+99999101151ADDGF102991999999999999999999
0029228020999991919070920004+61700+030683FM-12+001699999V0201801N002119999999N0000001N9+02391+99999101081ADDGF108991999999999999999999
0046228020999991919071006004+61700+030683FM-12+001699999V0209991C000019999999N0000001N9+02171+99999101201ADDAJ100009199999999GF100991999999999999999999
0029228020999991919071013004+61700+030683FM-12+001699999V0201401N002119999999N0000001N9+02781+99999101201ADDGF100991999999999999999999
0029228020999991919071020004+61700+030683FM-12+001699999V0201801N002119999999N0000001N9+02061+99999101181ADDGF100991999999999999999999
0046228020999991919071106004+61700+030683FM-12+001699999V0209991C000019999999N0000001N9+02061+99999101191ADDAJ100009199999999GF100991999999999999999999
0029228020999991919071113004+61700+030683FM-12+001699999V0201401N008219999999N0000001N9+02721+99999101081ADDGF100991999999999999999999
0029228020999991919071120004+61700+030683FM-12+001699999V0201401N002119999999N0000001N9+02221+99999100961ADDGF100991999999999999999999
0046228020999991919071206004+61700+030683FM-12+001699999V0201801N002119999999N0000001N9+02111+99999100981ADDAJ100009199999999GF108991999999999999999999
0029228020999991919071213004+61700+030683FM-12+001699999V0201401N006219999999N0000001N9+02781+99999100831ADDGF100991999999999999999999
0029228020999991919071220004+61700+030683FM-12+001699999V0201401N002119999999N0000001N9+02331+99999100721ADDGF100991999999999999999999
0046228020999991919071306004+61700+030683FM-12+001699999V0201401N002119999999N0000001N9+02281+99999100831ADDAJ100009199999999GF100991999999999999999999
0029228020999991919071313004+61700+030683FM-12+001699999V0201401N004119999999N0000001N9+02561+99999100801ADDGF103991999999999999999999
0029228020999991919071320004+61700+030683FM-12+001699999V0201401N002119999999N0000001N9+02171+99999100861ADDGF106991999999999999999999
0046228020999991919071406004+61700+030683FM-12+001699999V0201401N002119999999N0000001N9+02171+99999100821ADDAJ100009199999999GF103991999999999999999999
0029228020999991919071413004+61700+030683FM-12+001699999V0201401N006219999999N0000001N9+02831+99999100701ADDGF102991999999999999999999
0029228020999991919071420004+61700+030683FM-12+001699999V0201401N002119999999N0000001N9+02171+99999100701ADDGF103991999999999999999999
0046228020999991919071506004+61700+030683FM-12+001699999V0201401N002119999999N0000001N9+02171+99999100701ADDAJ100009199999999GF105991999999999999999999
0029228020999991919071513004+61700+030683FM-12+001699999V0201401N002119999999N0000001N9+02331+99999100561ADDGF105991999999999999999999
0029228020999991919071520004+61700+030683FM-12+001699999V0201401N002119999999N0000001N9+02061+99999100581ADDGF105991999999999999999999
0046228020999991919071606004+61700+030683FM-12+001699999V0201401N002119999999N0000001N9+02171+99999100641ADDAJ100009199999999GF101991999999999999999999
0029228020999991919071613004+61700+030683FM-12+001699999V0201801N004119999999N0000001N9+02561+99999100671ADDGF102991999999999999999999
0029228020999991919071620004+61700+030683FM-12+001699999V0201801N002119999999N0000001N9+02171+99999100781ADDGF102991999999999999999999
0046228020999991919071706004+61700+030683FM-12+001699999V0202501N004119999999N0000001N9+02001+99999101141ADDAJ100009199999999GF108991999999999999999999
0029228020999991919071713004+61700+030683FM-12+001699999V0201401N008219999999N0000001N9+02221+99999101231ADDGF100991999999999999999999
0029228020999991919071720004+61700+030683FM-12+001699999V0203201N002119999999N0000001N9+02111+99999101201ADDGF100991999999999999999999
0046228020999991919071806004+61700+030683FM-12+001699999V0202701N002119999999N0000001N9+02061+99999101191ADDAJ100009199999999GF100991999999999999999999
0029228020999991919071813004+61700+030683FM-12+001699999V0202701N002119999999N0000001N9+02781+99999101071ADDGF104991999999999999999999
0029228020999991919071820004+61700+030683FM-12+001699999V0202701N002119999999N0000001N9+02331+99999101031ADDGF103991999999999999999999
0046228020999991919071906004+61700+030683FM-12+001699999V0200501N002119999999N0000001N9+02171+99999101031ADDAJ100009199999999GF103991999999999999999999
0035228020999991919071913004+61700+030683FM-12+001699999V0201801N002119999999N0000001N9+02831+99999100951ADDGF105991999999999999999999MW1171
0029228020999991919071920004+61700+030683FM-12+001699999V0201401N004119999999N0000001N9+02001+99999101061ADDGF108991999999999999999999
0046228020999991919072006004+61700+030683FM-12+001699999V0200501N006219999999N0000001N9+01781+99999101311ADDAJ100009199999999GF108991999999999999999999
0029228020999991919072013004+61700+030683FM-12+001699999V0200501N004119999999N0000001N9+02441+99999101361ADDGF106991999999999999999999
0029228020999991919072020004+61700+030683FM-12+001699999V0200501N004119999999N0000001N9+01941+99999101501ADDGF107991999999999999999999
0046228020999991919072106004+61700+030683FM-12+001699999V0200501N002119999999N0000001N9+01611+99999101741ADDAJ100009199999999GF100991999999999999999999
0029228020999991919072113004+61700+030683FM-12+001699999V0203601N004119999999N0000001N9+02281+99999101631ADDGF100991999999999999999999
0029228020999991919072120004+61700+030683FM-12+001699999V0200501N002119999999N0000001N9+01781+99999101541ADDGF100991999999999999999999
0046228020999991919072206004+61700+030683FM-12+001699999V0203601N002119999999N0000001N9+01941+99999101441ADDAJ100009199999999GF100991999999999999999999
0029228020999991919072213004+61700+030683FM-12+001699999V0201801N002119999999N0000001N9+02441+99999101241ADDGF100991999999999999999999
0029228020999991919072220004+61700+030683FM-12+001699999V0201801N002119999999N0000001N9+01941+99999101141ADDGF100991999999999999999999
0046228020999991919072306004+61700+030683FM-12+001699999V0201801N002119999999N0000001N9+01831+99999100791ADDAJ100009199999999GF100991999999999999999999
0029228020999991919072313004+61700+030683FM-12+001699999V0201801N006219999999N0000001N9+02221+99999100601ADDGF108991999999999999999999
0029228020999991919072320004+61700+030683FM-12+001699999V0209991C000019999999N0000001N9+01891+99999100501ADDGF100991999999999999999999
0046228020999991919072406004+61700+030683FM-12+001699999V0209991C000019999999N0000001N9+02171+99999100401ADDAJ100009199999999GF100991999999999999999999
0035228020999991919072413004+61700+030683FM-12+001699999V0200501N006219999999N0000001N9+02171+99999100421ADDGF108991999999999999999999MW1641
0029228020999991919072420004+61700+030683FM-12+001699999V0200501N002119999999N0000001N9+01831+99999100441ADDGF108991999999999999999999
0046228020999991919072506004+61700+030683FM-12+001699999V0200501N002119999999N0000001N9+01441+99999100381ADDAJ100009199999999GF107991999999999999999999
0029228020999991919072513004+61700+030683FM-12+001699999V0203601N006219999999N0000001N9+01611+99999100471ADDGF108991999999999999999999
0029228020999991919072520004+61700+030683FM-12+001699999V0200501N006219999999N0000001N9+01611+99999100551ADDGF108991999999999999999999
0046228020999991919072606004+61700+030683FM-12+001699999V0200901N006219999999N0000001N9+01391+99999100861ADDAJ100009199999999GF108991999999999999999999
0029228020999991919072613004+61700+030683FM-12+001699999V0203601N002119999999N0000001N9+01781+99999100961ADDGF105991999999999999999999
0029228020999991919072620004+61700+030683FM-12+001699999V0203601N002119999999N0000001N9+01611+99999101071ADDGF108991999999999999999999
0046228020999991919072706004+61700+030683FM-12+001699999V0203601N002119999999N0000001N9+01441+99999101121ADDAJ100009199999999GF108991999999999999999999
0035228020999991919072713004+61700+030683FM-12+001699999V0203201N006219999999N0000001N9+01721+99999101161ADDGF108991999999999999999999MW1601
0029228020999991919072720004+61700+030683FM-12+001699999V0203201N002119999999N0000001N9+01441+99999101191ADDGF108991999999999999999999
0046228020999991919072806004+61700+030683FM-12+001699999V0200501N002119999999N0000001N9+01331+99999101201ADDAJ100009199999999GF108991999999999999999999
0029228020999991919072813004+61700+030683FM-12+001699999V0200501N004119999999N0000001N9+01721+99999101191ADDGF108991999999999999999999
0029228020999991919072820004+61700+030683FM-12+001699999V0203601N002119999999N0000001N9+01611+99999101201ADDGF108991999999999999999999
0046228020999991919072906004+61700+030683FM-12+001699999V0203601N002119999999N0000001N9+01501+99999101041ADDAJ100009199999999GF108991999999999999999999
0029228020999991919072913004+61700+030683FM-12+001699999V0203201N006219999999N0000001N9+02111+99999100781ADDGF103991999999999999999999
0029228020999991919072920004+61700+030683FM-12+001699999V0203201N002119999999N0000001N9+01441+99999100841ADDGF108991999999999999999999
0046228020999991919073006004+61700+030683FM-12+001699999V0203601N002119999999N0000001N9+01501+99999100881ADDAJ100009199999999GF108991999999999999999999
0029228020999991919073013004+61700+030683FM-12+001699999V0203601N002119999999N0000001N9+02171+99999100871ADDGF105991999999999999999999
0029228020999991919073020004+61700+030683FM-12+001699999V0203601N002119999999N0000001N9+01831+99999100911ADDGF108991999999999999999999
0046228020999991919073106004+61700+030683FM-12+001699999V0209991C000019999999N0000001N9+01561+99999100951ADDAJ100009199999999GF108991999999999999999999
0029228020999991919073113004+61700+030683FM-12+001699999V0209991C000019999999N0000001N9+01941+99999100941ADDGF108991999999999999999999
0029228020999991919073120004+61700+030683FM-12+001699999V0202701N004119999999N0000001N9+01611+99999100981ADDGF108991999999999999999999
0046228020999991919080106004+61700+030683FM-12+001699999V0201801N004119999999N0000001N9+01611+99999100951ADDAJ100009199999999GF108991999999999999999999
0029228020999991919080113004+61700+030683FM-12+001699999V0201801N002119999999N0000001N9+01721+99999100981ADDGF108991999999999999999999
0029228020999991919080120004+61700+030683FM-12+001699999V0201801N004119999999N0000001N9+01721+99999100801ADDGF108991999999999999999999
0046228020999991919080206004+61700+030683FM-12+001699999V0201801N002119999999N0000001N9+01781+99999100631ADDAJ100009199999999GF108991999999999999999999
0029228020999991919080213004+61700+030683FM-12+001699999V0201801N004119999999N0000001N9+01781+99999100521ADDGF108991999999999999999999
0029228020999991919080220004+61700+030683FM-12+001699999V0201801N004119999999N0000001N9+01721+99999100401ADDGF108991999999999999999999
0046228020999991919080306004+61700+030683FM-12+001699999V0201801N006219999999N0000001N9+01721+99999100191ADDAJ100009199999999GF108991999999999999999999
0029228020999991919080313004+61700+030683FM-12+001699999V0201801N006219999999N0000001N9+02061+99999100151ADDGF108991999999999999999999
0029228020999991919080320004+61700+030683FM-12+001699999V0201801N006219999999N0000001N9+01721+99999100111ADDGF108991999999999999999999
0046228020999991919080406004+61700+030683FM-12+001699999V0201801N004119999999N0000001N9+01721+99999100461ADDAJ100009199999999GF108991999999999999999999
0029228020999991919080413004+61700+030683FM-12+001699999V0201401N004119999999N0000001N9+01831+99999100671ADDGF103991999999999999999999
0029228020999991919080420004+61700+030683FM-12+001699999V0201401N002119999999N0000001N9+01781+99999100751ADDGF108991999999999999999999
0052228020999991919080506004+61700+030683FM-12+001699999V0201801N002119999999N0000001N9+01611+99999100621ADDAJ100009199999999GF108991999999999999999999MW1601
0029228020999991919080513004+61700+030683FM-12+001699999V0201801N006219999999N0000001N9+01721+99999100521ADDGF108991999999999999999999
0029228020999991919080520004+61700+030683FM-12+001699999V0201801N002119999999N0000001N9+01561+99999100341ADDGF108991999999999999999999
0046228020999991919080606004+61700+030683FM-12+001699999V0201801N002119999999N0000001N9+01611+99999099951ADDAJ100009199999999GF100991999999999999999999
0029228020999991919080613004+61700+030683FM-12+001699999V0201801N004119999999N0000001N9+02111+99999099821ADDGF103991999999999999999999
0029228020999991919080620004+61700+030683FM-12+001699999V0201801N002119999999N0000001N9+01561+99999099791ADDGF108991999999999999999999
0046228020999991919080706004+61700+030683FM-12+001699999V0201801N002119999999N0000001N9+01501+99999099881ADDAJ100009199999999GF100991999999999999999999
0035228020999991919080713004+61700+030683FM-12+001699999V0201801N002119999999N0000001N9+01611+99999999999ADDGF108991999999999999999999MW1601
0029228020999991919080720004+61700+030683FM-12+001699999V0201801N004119999999N0000001N9+01501+99999100041ADDGF108991999999999999999999
0046228020999991919080806004+61700+030683FM-12+001699999V0201801N002119999999N0000001N9+01561+99999999999ADDAJ100009199999999GF108991999999999999999999
0029228020999991919080813004+61700+030683FM-12+001699999V0201801N006219999999N0000001N9+02001+99999100021ADDGF108991999999999999999999
0029228020999991919080820004+61700+030683FM-12+001699999V0202301N004119999999N0000001N9+01281+99999099911ADDGF108991999999999999999999
0046228020999991919080906004+61700+030683FM-12+001699999V0202301N002119999999N0000001N9+01281+99999099741ADDAJ100009199999999GF102991999999999999999999
0029228020999991919080913004+61700+030683FM-12+001699999V0201801N004119999999N0000001N9+01501+99999099711ADDGF108991999999999999999999
0029228020999991919080920004+61700+030683FM-12+001699999V0201801N002119999999N0000001N9+01281+99999099831ADDGF108991999999999999999999
0046228020999991919081006004+61700+030683FM-12+001699999V0202501N002119999999N0000001N9+01391+99999099981ADDAJ100009199999999GF107991999999999999999999
0035228020999991919081013004+61700+030683FM-12+001699999V0202701N002119999999N0000001N9+01721+99999100221ADDGF108991999999999999999999MW1621
0029228020999991919081020004+61700+030683FM-12+001699999V0203201N004119999999N0000001N9+01281+99999100341ADDGF108991999999999999999999
0046228020999991919081106004+61700+030683FM-12+001699999V0203201N002119999999N0000001N9+01221+99999099821ADDAJ100009199999999GF105991999999999999999999
0035228020999991919081113004+61700+030683FM-12+001699999V0201401N002119999999N0000001N9+01501+99999099441ADDGF108991999999999999999999MW1621
0035228020999991919081120004+61700+030683FM-12+001699999V0201401N002119999999N0000001N9+01281+99999099001ADDGF108991999999999999999999MW1621
0052228020999991919081206004+61700+030683FM-12+001699999V0201401N002119999999N0000001N9+01221+99999098841ADDAJ100009199999999GF108991999999999999999999MW1621
0029228020999991919081213004+61700+030683FM-12+001699999V0203601N004119999999N0000001N9+01221+99999099001ADDGF108991999999999999999999
0029228020999991919081220004+61700+030683FM-12+001699999V0203601N002119999999N0000001N9+01221+99999099191ADDGF108991999999999999999999
0046228020999991919081306004+61700+030683FM-12+001699999V0203601N004119999999N0000001N9+01171+99999099261ADDAJ100009199999999GF108991999999999999999999
0029228020999991919081313004+61700+030683FM-12+001699999V0203601N006219999999N0000001N9+01891+99999099241ADDGF105991999999999999999999
0029228020999991919081320004+61700+030683FM-12+001699999V0203601N004119999999N0000001N9+01281+99999099281ADDGF108991999999999999999999
0046228020999991919081406004+61700+030683FM-12+001699999V0201801N002119999999N0000001N9+01331+99999099101ADDAJ100009199999999GF100991999999999999999999
0029228020999991919081413004+61700+030683FM-12+001699999V0203201N002119999999N0000001N9+01941+99999098901ADDGF105991999999999999999999
0029228020999991919081420004+61700+030683FM-12+001699999V0203201N002119999999N0000001N9+01281+99999098961ADDGF108991999999999999999999
0046228020999991919081506004+61700+030683FM-12+001699999V0203201N002119999999N0000001N9+01111+99999099061ADDAJ100009199999999GF100991999999999999999999
0029228020999991919081513004+61700+030683FM-12+001699999V0203201N002119999999N0000001N9+01891+99999099151ADDGF105991999999999999999999
0029228020999991919081520004+61700+030683FM-12+001699999V0203201N001019999999N0000001N9+01111+99999099501ADDGF108991999999999999999999
0046228020999991919081606004+61700+030683FM-12+001699999V0203201N002119999999N0000001N9+01111+99999099761ADDAJ100009199999999GF108991999999999999999999
0035228020999991919081613004+61700+030683FM-12+001699999V0203401N002119999999N0000001N9+01671+99999099981ADDGF108991999999999999999999MW1621
0029228020999991919081620004+61700+030683FM-12+001699999V0203401N002119999999N0000001N9+01221+99999100361ADDGF106991999999999999999999
0046228020999991919081706004+61700+030683FM-12+001699999V0203201N002119999999N0000001N9+01281+99999100681ADDAJ100009199999999GF106991999999999999999999
0029228020999991919081713004+61700+030683FM-12+001699999V0203201N006219999999N0000001N9+01441+99999100791ADDGF107991999999999999999999
0029228020999991919081720004+61700+030683FM-12+001699999V0203201N002119999999N0000001N9+01061+99999100921ADDGF108991999999999999999999
0046228020999991919081806004+61700+030683FM-12+001699999V0203201N002119999999N0000001N9+01061+99999101081ADDAJ100009199999999GF106991999999999999999999
0029228020999991919081813004+61700+030683FM-12+001699999V0201801N004119999999N0000001N9+01831+99999101141ADDGF105991999999999999999999
0029228020999991919081820004+61700+030683FM-12+001699999V0201801N002119999999N0000001N9+01221+99999101121ADDGF106991999999999999999999
0046228020999991919081906004+61700+030683FM-12+001699999V0201801N001019999999N0000001N9+01281+99999100921ADDAJ100009199999999GF103991999999999999999999
0029228020999991919081913004+61700+030683FM-12+001699999V0201801N002119999999N0000001N9+01671+99999100481ADDGF108991999999999999999999
0029228020999991919081920004+61700+030683FM-12+001699999V0201801N002119999999N0000001N9+01391+99999099991ADDGF108991999999999999999999
0046228020999991919082006004+61700+030683FM-12+001699999V0202701N002119999999N0000001N9+01281+99999099821ADDAJ100009199999999GF101991999999999999999999
0029228020999991919082013004+61700+030683FM-12+001699999V0201801N004119999999N0000001N9+01941+99999099791ADDGF106991999999999999999999
0029228020999991919082020004+61700+030683FM-12+001699999V0201801N004119999999N0000001N9+01221+99999099961ADDGF108991999999999999999999
0046228020999991919082106004+61700+030683FM-12+001699999V0202701N002119999999N0000001N9+01061+99999100111ADDAJ100009199999999GF100991999999999999999999
0029228020999991919082113004+61700+030683FM-12+001699999V0202001N004119999999N0000001N9+01941+99999100101ADDGF103991999999999999999999
0029228020999991919082120004+61700+030683FM-12+001699999V0202301N002119999999N0000001N9+01221+99999100151ADDGF108991999999999999999999
0046228020999991919082206004+61700+030683FM-12+001699999V0202001N001019999999N0000001N9+01171+99999100151ADDAJ100009199999999GF100991999999999999999999
0029228020999991919082213004+61700+030683FM-12+001699999V0201801N002119999999N0000001N9+01721+99999100021ADDGF106991999999999999999999
0029228020999991919082220004+61700+030683FM-12+001699999V0202701N002119999999N0000001N9+01061+99999099861ADDGF107991999999999999999999
0046228020999991919082306004+61700+030683FM-12+001699999V0209991C000019999999N0000001N9+00781+99999099781ADDAJ100009199999999GF108991999999999999999999
0029228020999991919082313004+61700+030683FM-12+001699999V0203201N004119999999N0000001N9+01781+99999099741ADDGF104991999999999999999999
0029228020999991919082320004+61700+030683FM-12+001699999V0203201N002119999999N0000001N9+01061+99999099821ADDGF108991999999999999999999
0046228020999991919082406004+61700+030683FM-12+001699999V0203201N002119999999N0000001N9+01001+99999099701ADDAJ100009199999999GF106991999999999999999999
0029228020999991919082413004+61700+030683FM-12+001699999V0203201N004119999999N0000001N9+01501+99999099521ADDGF108991999999999999999999
0029228020999991919082420004+61700+030683FM-12+001699999V0209991C000019999999N0000001N9+01001+99999099511ADDGF100991999999999999999999
0046228020999991919082506004+61700+030683FM-12+001699999V0203201N002119999999N0000001N9+00831+99999099381ADDAJ100009199999999GF102991999999999999999999
0035228020999991919082513004+61700+030683FM-12+001699999V0203201N004119999999N0000001N9+01611+99999099361ADDGF106991999999999999999999MW1601
0029228020999991919082520004+61700+030683FM-12+001699999V0203201N002119999999N0000001N9+00941+99999099441ADDGF108991999999999999999999
0046228020999991919082606004+61700+030683FM-12+001699999V0203201N002119999999N0000001N9+01001+99999099541ADDAJ100009199999999GF108991999999999999999999
0035228020999991919082613004+61700+030683FM-12+001699999V0203201N002119999999N0000001N9+01281+99999099761ADDGF108991999999999999999999MW1621
0029228020999991919082620004+61700+030683FM-12+001699999V0203201N001019999999N0000001N9+00941+99999100061ADDGF102991999999999999999999
0046228020999991919082706004+61700+030683FM-12+001699999V0203201N001019999999N0000001N9+00941+99999100671ADDAJ100009199999999GF104991999999999999999999
0029228020999991919082713004+61700+030683FM-12+001699999V0203201N002119999999N0000001N9+01501+99999100951ADDGF108991999999999999999999
0029228020999991919082720004+61700+030683FM-12+001699999V0203201N001019999999N0000001N9+01001+99999101141ADDGF108991999999999999999999
0046228020999991919082806004+61700+030683FM-12+001699999V0200901N004119999999N0000001N9+01331+99999101161ADDAJ100009199999999GF108991999999999999999999
0029228020999991919082813004+61700+030683FM-12+001699999V0201401N006219999999N0000001N9+01501+99999100941ADDGF108991999999999999999999
0029228020999991919082820004+61700+030683FM-12+001699999V0201401N004119999999N0000001N9+01331+99999100991ADDGF108991999999999999999999
0046228020999991919082906004+61700+030683FM-12+001699999V0201401N002119999999N0000001N9+01281+99999101161ADDAJ100009199999999GF108991999999999999999999
