0029228920999991909010106004+60717+028783FM-12+000399999V0201801N004619999999N0000001N9-01111+99999104041ADDGF108991999999999999999999
0035228920999991909010113004+60717+028783FM-12+000399999V0201801N009319999999N0000001N9-01001+99999103821ADDGF108991999999999999999999MW1721
0035228920999991909010120004+60717+028783FM-12+000399999V0201801N004619999999N0000001N9-00831+99999103541ADDGF108991999999999999999999MW1721
0029228920999991909010206004+60717+028783FM-12+000399999V0201801N006719999999N0000001N9-00441+99999102881ADDGF108991999999999999999999
0029228920999991909010213004+60717+028783FM-12+000399999V0202001N015419999999N0000001N9-00281+99999102271ADDGF108991999999999999999999
0035228920999991909010220004+60717+028783FM-12+000399999V0202301N015419999999N0000001N9+00001+99999101471ADDGF108991999999999999999999MW1721
0029228920999991909010306004+60717+028783FM-12+000399999V0202701N006719999999N0000001N9-00111+99999101431ADDGF100991999999999999999999
0029228920999991909010313004+60717+028783FM-12+000399999V0202701N002619999999N0000001N9-00171+99999101601ADDGF100991999999999999999999
0029228920999991909010320004+60717+028783FM-12+000399999V0202301N006719999999N0000001N9-00171+99999101421ADDGF108991999999999999999999
0029228920999991909010406004+60717+028783FM-12+000399999V0202301N004619999999N0000001N9+00001+99999100671ADDGF108991999999999999999999
0029228920999991909010413004+60717+028783FM-12+000399999V0202001N001019999999N0000001N9+00221+99999100561ADDGF108991999999999999999999
0029228920999991909010420004+60717+028783FM-12+000399999V0202001N001019999999N0000001N9-00061+99999100341ADDGF105991999999999999999999
0029228920999991909010506004+60717+028783FM-12+000399999V0203401N006719999999N0000001N9+00061+99999100701ADDGF100991999999999999999999
0029228920999991909010513004+60717+028783FM-12+000399999V0203401N009319999999N0000001N9+00001+99999101021ADDGF100991999999999999999999
0029228920999991909010520004+60717+028783FM-12+000399999V0203201N002619999999N0000001N9-00281+99999101271ADDGF100991999999999999999999
0029228920999991909010606004+60717+028783FM-12+000399999V0203401N001019999999N0000001N9-00331+99999101561ADDGF108991999999999999999999
0029228920999991909010613004+60717+028783FM-12+000399999V0201101N001019999999N0000001N9-00441+99999101551ADDGF108991999999999999999999
0035228920999991909010620004+60717+028783FM-12+000399999V0201601N002619999999N0000001N9-00391+99999101021ADDGF108991999999999999999999MW1721
0029228920999991909010706004+60717+028783FM-12+000399999V0202901N001019999999N0000001N9-00281+99999100301ADDGF104991999999999999999999
0029228920999991909010713004+60717+028783FM-12+000399999V0202701N001019999999N0000001N9-00831+99999100071ADDGF101991999999999999999999
0029228920999991909010720004+60717+028783FM-12+000399999V0200701N002619999999N0000001N9-00671+99999099981ADDGF108991999999999999999999
0029228920999991909010806004+60717+028783FM-12+000399999V0201101N004619999999N0000001N9-00721+99999099911ADDGF108991999999999999999999
0029228920999991909010813004+60717+028783FM-12+000399999V0200901N002619999999N0000001N9-00891+99999100221ADDGF108991999999999999999999
0029228920999991909010820004+60717+028783FM-12+000399999V0200901N002619999999N0000001N9-01061+99999100751ADDGF108991999999999999999999
0029228920999991909010906004+60717+028783FM-12+000399999V0200701N002619999999N0000001N9-00831+99999101111ADDGF108991999999999999999999
0029228920999991909010913004+60717+028783FM-12+000399999V0200701N001019999999N0000001N9-00721+99999101271ADDGF108991999999999999999999
0029228920999991909010920004+60717+028783FM-12+000399999V0209991C000019999999N0000001N9-00671+99999101301ADDGF108991999999999999999999
0029228920999991909011006004+60717+028783FM-12+000399999V0201401N002619999999N0000001N9-00721+99999101081ADDGF108991999999999999999999
0029228920999991909011013004+60717+028783FM-12+000399999V0201601N001019999999N0000001N9-00561+99999100801ADDGF108991999999999999999999
0029228920999991909011020004+60717+028783FM-12+000399999V0201801N004619999999N0000001N9-00441+99999100541ADDGF108991999999999999999999
0035228920999991909011106004+60717+028783FM-12+000399999V0201601N009319999999N0000001N9-00221+99999099781ADDGF108991999999999999999999MW1721
0029228920999991909011113004+60717+028783FM-12+000399999V0202001N015419999999N0000001N9-00171+99999099421ADDGF108991999999999999999999
0035228920999991909011120004+60717+028783FM-12+000399999V0201801N015419999999N0000001N9-00061+99999099231ADDGF108991999999999999999999MW1721
0035228920999991909011206004+60717+028783FM-12+000399999V0201801N015419999999N0000001N9-00061+99999098941ADDGF108991999999999999999999MW1721
0035228920999991909011213004+60717+028783FM-12+000399999V0201801N009319999999N0000001N9-00061+99999098881ADDGF108991999999999999999999MW1721
0035228920999991909011220004+60717+028783FM-12+000399999V0201801N015419999999N0000001N9-00171+99999098471ADDGF108991999999999999999999MW1721
0029228920999991909011306004+60717+028783FM-12+000399999V0201601N009319999999N0000001N9-00171+99999098121ADDGF108991999999999999999999
0029228920999991909011313004+60717+028783FM-12+000399999V0201601N015419999999N0000001N9+00001+99999098181ADDGF108991999999999999999999
0029228920999991909011320004+60717+028783FM-12+000399999V0202501N004619999999N0000001N9-00501+99999098881ADDGF100991999999999999999999
0029228920999991909011406004+60717+028783FM-12+000399999V0200501N001019999999N0000001N9-01611+99999099511ADDGF100991999999999999999999
0029228920999991909011413004+60717+028783FM-12+000399999V0200501N001019999999N0000001N9-00891+99999099661ADDGF108991999999999999999999
0029228920999991909011420004+60717+028783FM-12+000399999V0209991C000019999999N0000001N9-00441+99999099801ADDGF108991999999999999999999
0029228920999991909011506004+60717+028783FM-12+000399999V0200901N001019999999N0000001N9-00671+99999100351ADDGF108991999999999999999999
0029228920999991909011513004+60717+028783FM-12+000399999V0200901N001019999999N0000001N9-00561+99999100661ADDGF105991999999999999999999
0029228920999991909011520004+60717+028783FM-12+000399999V0201101N009319999999N0000001N9-00501+99999100591ADDGF108991999999999999999999
0029228920999991909011606004+60717+028783FM-12+000399999V0201401N006719999999N0000001N9-00391+99999100141ADDGF108991999999999999999999
0035228920999991909011613004+60717+028783FM-12+000399999V0201801N009319999999N0000001N9-00171+99999100341ADDGF108991999999999999999999MW1721
0029228920999991909011620004+60717+028783FM-12+000399999V0201801N009319999999N0000001N9+00001+99999100821ADDGF108991999999999999999999
0029228920999991909011706004+60717+028783FM-12+000399999V0201801N006719999999N0000001N9-00171+99999101321ADDGF108991999999999999999999
0029228920999991909011713004+60717+028783FM-12+000399999V0201401N002619999999N0000001N9-00171+99999101361ADDGF108991999999999999999999
0035228920999991909011720004+60717+028783FM-12+000399999V0201801N004619999999N0000001N9-00281+99999101471ADDGF108991999999999999999999MW1721
0035228920999991909011806004+60717+028783FM-12+000399999V0202001N012319999999N0000001N9+00061+99999101741ADDGF108991999999999999999999MW1721
0029228920999991909011813004+60717+028783FM-12+000399999V0202001N015419999999N0000001N9+00061+99999101781ADDGF108991999999999999999999
0029228920999991909011820004+60717+028783FM-12+000399999V0202001N015419999999N0000001N9+00061+99999101701ADDGF108991999999999999999999
0029228920999991909011906004+60717+028783FM-12+000399999V0202301N015419999999N0000001N9+00111+99999101751ADDGF108991999999999999999999
0035228920999991909011913004+60717+028783FM-12+000399999V0202301N015419999999N0000001N9+00111+99999101941ADDGF108991999999999999999999MW1621
0029228920999991909011920004+60717+028783FM-12+000399999V0202501N015419999999N0000001N9+00111+99999102221ADDGF108991999999999999999999
0029228920999991909012006004+60717+028783FM-12+000399999V0202301N015419999999N0000001N9-00221+99999102421ADDGF108991999999999999999999
0029228920999991909012013004+60717+028783FM-12+000399999V0202301N015419999999N0000001N9-00171+99999102591ADDGF108991999999999999999999
0035228920999991909012020004+60717+028783FM-12+000399999V0202501N015419999999N0000001N9+00001+99999102601ADDGF108991999999999999999999MW1721
0029228920999991909012106004+60717+028783FM-12+000399999V0202501N006719999999N0000001N9-00221+99999102841ADDGF100991999999999999999999
0029228920999991909012113004+60717+028783FM-12+000399999V0202501N006719999999N0000001N9-00171+99999103161ADDGF108991999999999999999999
0029228920999991909012120004+60717+028783FM-12+000399999V0202501N015419999999N0000001N9-00171+99999103201ADDGF108991999999999999999999
0029228920999991909012206004+60717+028783FM-12+000399999V0202501N015419999999N0000001N9-00281+99999102671ADDGF108991999999999999999999
0029228920999991909012213004+60717+028783FM-12+000399999V0202501N015419999999N0000001N9-00061+99999102321ADDGF108991999999999999999999
0029228920999991909012220004+60717+028783FM-12+000399999V0202501N015419999999N0000001N9-00111+99999102271ADDGF108991999999999999999999
0029228920999991909012306004+60717+028783FM-12+000399999V0202501N004619999999N0000001N9-00171+99999102221ADDGF108991999999999999999999
0029228920999991909012313004+60717+028783FM-12+000399999V0202501N006719999999N0000001N9-00061+99999102261ADDGF108991999999999999999999
0029228920999991909012320004+60717+028783FM-12+000399999V0202501N004619999999N0000001N9-00221+99999102361ADDGF108991999999999999999999
0029228920999991909012406004+60717+028783FM-12+000399999V0202501N004619999999N0000001N9-00281+99999102461ADDGF108991999999999999999999
0029228920999991909012413004+60717+028783FM-12+000399999V0202301N004619999999N0000001N9-00171+99999102471ADDGF108991999999999999999999
0029228920999991909012420004+60717+028783FM-12+000399999V0202001N002619999999N0000001N9-00281+99999102381ADDGF108991999999999999999999
0029228920999991909012506004+60717+028783FM-12+000399999V0202301N006719999999N0000001N9-00441+99999102141ADDGF108991999999999999999999
0029228920999991909012513004+60717+028783FM-12+000399999V0202901N006719999999N0000001N9-00061+99999102141ADDGF108991999999999999999999
0029228920999991909012520004+60717+028783FM-12+000399999V0203401N006719999999N0000001N9-00061+99999102301ADDGF108991999999999999999999
0029228920999991909012606004+60717+028783FM-12+000399999V0203601N002619999999N0000001N9-00611+99999102961ADDGF108991999999999999999999
0029228920999991909012613004+60717+028783FM-12+000399999V0200501N002619999999N0000001N9-00941+99999103311ADDGF100991999999999999999999
0029228920999991909012620004+60717+028783FM-12+000399999V0200701N001019999999N0000001N9-01561+99999103511ADDGF100991999999999999999999
0029228920999991909012706004+60717+028783FM-12+000399999V0202701N006719999999N0000001N9-01171+99999103431ADDGF108991999999999999999999
0029228920999991909012713004+60717+028783FM-12+000399999V0202001N002619999999N0000001N9-00561+99999103361ADDGF108991999999999999999999
0029228920999991909012720004+60717+028783FM-12+000399999V0202301N001019999999N0000001N9-00391+99999103281ADDGF108991999999999999999999
0029228920999991909012806004+60717+028783FM-12+000399999V0202301N004619999999N0000001N9-00281+99999103421ADDGF108991999999999999999999
0029228920999991909012813004+60717+028783FM-12+000399999V0202301N015419999999N0000001N9-00281+99999103431ADDGF108991999999999999999999
0029228920999991909012820004+60717+028783FM-12+000399999V0202501N015419999999N0000001N9-00281+99999103301ADDGF108991999999999999999999
0029228920999991909012906004+60717+028783FM-12+000399999V0202301N015419999999N0000001N9-00611+99999102801ADDGF108991999999999999999999
0035228920999991909012913004+60717+028783FM-12+000399999V0202001N015419999999N0000001N9-00831+99999102141ADDGF108991999999999999999999MW1721
0029228920999991909012920004+60717+028783FM-12+000399999V0202001N015419999999N0000001N9-00611+99999101341ADDGF108991999999999999999999
0029228920999991909013006004+60717+028783FM-12+000399999V0201801N012319999999N0000001N9-00671+99999100861ADDGF108991999999999999999999
0029228920999991909013013004+60717+028783FM-12+000399999V0202001N009319999999N0000001N9-00781+99999100661ADDGF106991999999999999999999
0029228920999991909013020004+60717+028783FM-12+000399999V0209991C000019999999N0000001N9-01061+99999100441ADDGF100991999999999999999999
0029228920999991909013106004+60717+028783FM-12+000399999V0209991C000019999999N0000001N9-01441+99999100031ADDGF108991999999999999999999
0029228920999991909013113004+60717+028783FM-12+000399999V0201601N001019999999N0000001N9-01061+99999099831ADDGF100991999999999999999999
0029228920999991909013120004+60717+028783FM-12+000399999V0209991C000019999999N0000001N9-01941+99999099761ADDGF100991999999999999999999
0035228920999991909020106004+60717+028783FM-12+000399999V0201101N002619999999N0000001N9-01561+99999099661ADDGF108991999999999999999999MW1721
0035228920999991909020113004+60717+028783FM-12+000399999V0200901N002619999999N0000001N9-01061+99999099601ADDGF108991999999999999999999MW1721
0029228920999991909020120004+60717+028783FM-12+000399999V0200901N002619999999N0000001N9-01221+99999099791ADDGF108991999999999999999999
0029228920999991909020206004+60717+028783FM-12+000399999V0200501N001019999999N0000001N9-01061+99999099841ADDGF108991999999999999999999
0029228920999991909020213004+60717+028783FM-12+000399999V0203601N001019999999N0000001N9-00941+99999099991ADDGF107991999999999999999999
0029228920999991909020220004+60717+028783FM-12+000399999V0209991C000019999999N0000001N9-01281+99999100111ADDGF104991999999999999999999
0035228920999991909020306004+60717+028783FM-12+000399999V0209991C000019999999N0000001N9-01331+99999100021ADDGF108991999999999999999999MW1721
0029228920999991909020313004+60717+028783FM-12+000399999V0209991C000019999999N0000001N9-01111+99999099871ADDGF105991999999999999999999
0035228920999991909020320004+60717+028783FM-12+000399999V0201601N001019999999N0000001N9-00941+99999099781ADDGF108991999999999999999999MW1721
0029228920999991909020406004+60717+028783FM-12+000399999V0201401N002619999999N0000001N9-01281+99999099521ADDGF100991999999999999999999
0029228920999991909020413004+60717+028783FM-12+000399999V0201101N004619999999N0000001N9-01001+99999099281ADDGF102991999999999999999999
0035228920999991909020420004+60717+028783FM-12+000399999V0200901N001019999999N0000001N9-01061+99999099201ADDGF108991999999999999999999MW1721
0029228920999991909020506004+60717+028783FM-12+000399999V0209991C000019999999N0000001N9-01111+99999099281ADDGF108991999999999999999999
0035228920999991909020513004+60717+028783FM-12+000399999V0209991C000019999999N0000001N9-00941+99999099341ADDGF108991999999999999999999MW1721
0035228920999991909020520004+60717+028783FM-12+000399999V0209991C000019999999N0000001N9-01171+99999099321ADDGF108991999999999999999999MW1721
0035228920999991909020606004+60717+028783FM-12+000399999V0209991C000019999999N0000001N9-01441+99999099351ADDGF108991999999999999999999MW1721
0029228920999991909020613004+60717+028783FM-12+000399999V0209991C000019999999N0000001N9-01221+99999099581ADDGF104991999999999999999999
0029228920999991909020620004+60717+028783FM-12+000399999V0209991C000019999999N0000001N9-01721+99999099821ADDGF100991999999999999999999
0029228920999991909020706004+60717+028783FM-12+000399999V0209991C000019999999N0000001N9-01561+99999100201ADDGF108991999999999999999999
0029228920999991909020713004+60717+028783FM-12+000399999V0203201N001019999999N0000001N9-01281+99999100401ADDGF100991999999999999999999
0029228920999991909020720004+60717+028783FM-12+000399999V0203401N001019999999N0000001N9-01441+99999100721ADDGF100991999999999999999999
0029228920999991909020806004+60717+028783FM-12+000399999V0203401N006719999999N0000001N9-01331+99999101201ADDGF108991999999999999999999
0035228920999991909020813004+60717+028783FM-12+000399999V0203601N004619999999N0000001N9-00831+99999101621ADDGF104991999999999999999999MW1721
0035228920999991909020820004+60717+028783FM-12+000399999V0209991C000019999999N0000001N9-00941+99999102031ADDGF108991999999999999999999MW1721
0029228920999991909020906004+60717+028783FM-12+000399999V0201101N002619999999N0000001N9-01221+99999102261ADDGF102991999999999999999999
0029228920999991909020913004+60717+028783FM-12+000399999V0209991C000019999999N0000001N9-01331+99999102311ADDGF100991999999999999999999
0029228920999991909020920004+60717+028783FM-12+000399999V0209991C000019999999N0000001N9-02221+99999102311ADDGF100991999999999999999999
0029228920999991909021006004+60717+028783FM-12+000399999V0209991C000019999999N0000001N9-02221+99999102421ADDGF108991999999999999999999
0029228920999991909021013004+60717+028783FM-12+000399999V0209991C000019999999N0000001N9-01721+99999102521ADDGF100991999999999999999999
0029228920999991909021020004+60717+028783FM-12+000399999V0209991C000019999999N0000001N9-02441+99999102701ADDGF100991999999999999999999
0029228920999991909021106004+60717+028783FM-12+000399999V0209991C000019999999N0000001N9-02671+99999102761ADDGF100991999999999999999999
0029228920999991909021113004+60717+028783FM-12+000399999V0209991C000019999999N0000001N9-01671+99999102661ADDGF101991999999999999999999
0029228920999991909021120004+60717+028783FM-12+000399999V0209991C000019999999N0000001N9-01891+99999102561ADDGF104991999999999999999999
0029228920999991909021206004+60717+028783FM-12+000399999V0209991C000019999999N0000001N9-01671+99999102071ADDGF101991999999999999999999
0035228920999991909021213004+60717+028783FM-12+000399999V0209991C000019999999N0000001N9-00941+99999101511ADDGF108991999999999999999999MW1721
0035228920999991909021220004+60717+028783FM-12+000399999V0209991C000019999999N0000001N9-01001+99999101321ADDGF108991999999999999999999MW1721
0035228920999991909021306004+60717+028783FM-12+000399999V0200201N001019999999N0000001N9-01001+99999101631ADDGF108991999999999999999999MW1721
0029228920999991909021313004+60717+028783FM-12+000399999V0203601N001019999999N0000001N9-00721+99999101951ADDGF108991999999999999999999
0029228920999991909021320004+60717+028783FM-12+000399999V0202301N001019999999N0000001N9-00831+99999101861ADDGF108991999999999999999999
0035228920999991909021406004+60717+028783FM-12+000399999V0202301N015419999999N0000001N9-00501+99999100561ADDGF108991999999999999999999MW1721
0035228920999991909021413004+60717+028783FM-12+000399999V0202301N015419999999N0000001N9-00281+99999099161ADDGF108991999999999999999999MW1721
0035228920999991909021420004+60717+028783FM-12+000399999V0202001N009319999999N0000001N9-00171+99999097761ADDGF108991999999999999999999MW1721
0029228920999991909021506004+60717+028783FM-12+000399999V0202001N006719999999N0000001N9-00611+99999097071ADDGF103991999999999999999999
0035228920999991909021513004+60717+028783FM-12+000399999V0202501N002619999999N0000001N9-00061+99999097021ADDGF108991999999999999999999MW1721
0035228920999991909021520004+60717+028783FM-12+000399999V0203401N009319999999N0000001N9-00391+99999097461ADDGF108991999999999999999999MW1721
0035228920999991909021606004+60717+028783FM-12+000399999V0203401N002619999999N0000001N9-00561+99999097831ADDGF108991999999999999999999MW1721
0035228920999991909021613004+60717+028783FM-12+000399999V0203201N004619999999N0000001N9-00781+99999098361ADDGF108991999999999999999999MW1721
0035228920999991909021620004+60717+028783FM-12+000399999V0202301N002619999999N0000001N9-01001+99999098781ADDGF108991999999999999999999MW1721
0035228920999991909021706004+60717+028783FM-12+000399999V0200501N001019999999N0000001N9-01171+99999099421ADDGF108991999999999999999999MW1721
0035228920999991909021713004+60717+028783FM-12+000399999V0200501N001019999999N0000001N9-01061+99999099901ADDGF108991999999999999999999MW1721
0029228920999991909021720004+60717+028783FM-12+000399999V0209991C000019999999N0000001N9-01611+99999100311ADDGF100991999999999999999999
0029228920999991909021806004+60717+028783FM-12+000399999V0209991C000019999999N0000001N9-02501+99999100761ADDGF102991999999999999999999
0029228920999991909021813004+60717+028783FM-12+000399999V0201801N002619999999N0000001N9-01221+99999101071ADDGF108991999999999999999999
0035228920999991909021820004+60717+028783FM-12+000399999V0209991C000019999999N0000001N9-01171+99999101221ADDGF108991999999999999999999MW1721
0029228920999991909021906004+60717+028783FM-12+000399999V0201401N002619999999N0000001N9-01171+99999101441ADDGF100991999999999999999999
0029228920999991909021913004+60717+028783FM-12+000399999V0201401N002619999999N0000001N9-00781+99999101951ADDGF100991999999999999999999
0029228920999991909021920004+60717+028783FM-12+000399999V0201401N001019999999N0000001N9-01391+99999102241ADDGF100991999999999999999999
0029228920999991909022006004+60717+028783FM-12+000399999V0202001N004619999999N0000001N9-01111+99999102461ADDGF108991999999999999999999
0029228920999991909022013004+60717+028783FM-12+000399999V0202001N004619999999N0000001N9-00611+99999102701ADDGF108991999999999999999999
0029228920999991909022020004+60717+028783FM-12+000399999V0209991C000019999999N0000001N9-00671+99999102871ADDGF108991999999999999999999
0029228920999991909022106004+60717+028783FM-12+000399999V0201401N001019999999N0000001N9-00671+99999103001ADDGF108991999999999999999999
0029228920999991909022113004+60717+028783FM-12+000399999V0201801N004619999999N0000001N9-00441+99999103161ADDGF108991999999999999999999
0029228920999991909022120004+60717+028783FM-12+000399999V0202001N001019999999N0000001N9-00441+99999103391ADDGF108991999999999999999999
0029228920999991909022206004+60717+028783FM-12+000399999V0202001N001019999999N0000001N9-00441+99999103421ADDGF108991999999999999999999
0029228920999991909022213004+60717+028783FM-12+000399999V0201801N001019999999N0000001N9-00331+99999103661ADDGF108991999999999999999999
0029228920999991909022220004+60717+028783FM-12+000399999V0201801N001019999999N0000001N9-00501+99999103831ADDGF108991999999999999999999
0029228920999991909022306004+60717+028783FM-12+000399999V0201601N001019999999N0000001N9-00501+99999103961ADDGF108991999999999999999999
0029228920999991909022313004+60717+028783FM-12+000399999V0201801N001019999999N0000001N9-00611+99999104161ADDGF108991999999999999999999
0029228920999991909022320004+60717+028783FM-12+000399999V0209991C000019999999N0000001N9-00611+99999104181ADDGF108991999999999999999999
0029228920999991909022406004+60717+028783FM-12+000399999V0202001N001019999999N0000001N9-00671+99999104231ADDGF108991999999999999999999
0029228920999991909022413004+60717+028783FM-12+000399999V0202001N002619999999N0000001N9-00441+99999104301ADDGF108991999999999999999999
0029228920999991909022420004+60717+028783FM-12+000399999V0202001N001019999999N0000001N9-00611+99999104281ADDGF108991999999999999999999
0029228920999991909022506004+60717+028783FM-12+000399999V0202001N002619999999N0000001N9-00941+99999104261ADDGF108991999999999999999999
0029228920999991909022513004+60717+028783FM-12+000399999V0202001N001019999999N0000001N9-00831+99999104221ADDGF108991999999999999999999
0029228920999991909022520004+60717+028783FM-12+000399999V0202001N001019999999N0000001N9-01111+99999104181ADDGF108991999999999999999999
0029228920999991909022606004+60717+028783FM-12+000399999V0209991C000019999999N0000001N9-01501+99999104031ADDGF101991999999999999999999
0029228920999991909022613004+60717+028783FM-12+000399999V0202001N001019999999N0000001N9-00671+99999103921ADDGF100991999999999999999999
0029228920999991909022620004+60717+028783FM-12+000399999V0202301N001019999999N0000001N9-01221+99999103621ADDGF100991999999999999999999
0029228920999991909022706004+60717+028783FM-12+000399999V0202001N002619999999N0000001N9-01171+99999102991ADDGF108991999999999999999999
0029228920999991909022713004+60717+028783FM-12+000399999V0202301N006719999999N0000001N9-00611+99999102501ADDGF108991999999999999999999
0029228920999991909022720004+60717+028783FM-12+000399999V0202301N009319999999N0000001N9-00441+99999102181ADDGF108991999999999999999999
0035228920999991909022806004+60717+028783FM-12+000399999V0202001N002619999999N0000001N9-00441+99999101981ADDGF108991999999999999999999MW1721
0035228920999991909022813004+60717+028783FM-12+000399999V0202301N004619999999N0000001N9-00281+99999101761ADDGF108991999999999999999999MW1721
0035228920999991909022820004+60717+028783FM-12+000399999V0200201N001019999999N0000001N9-00671+99999101671ADDGF108991999999999999999999MW1721
0035228920999991909030106004+60717+028783FM-12+000399999V0200201N001019999999N0000001N9-01061+99999101581ADDGF108991999999999999999999MW1721
0035228920999991909030113004+60717+028783FM-12+000399999V0200501N002619999999N0000001N9-00941+99999101261ADDGF108991999999999999999999MW1721
0035228920999991909030120004+60717+028783FM-12+000399999V0200901N001019999999N0000001N9-00831+99999100671ADDGF108991999999999999999999MW1721
0035228920999991909030206004+60717+028783FM-12+000399999V0201101N002619999999N0000001N9-00611+99999100061ADDGF108991999999999999999999MW1721
0035228920999991909030213004+60717+028783FM-12+000399999V0202301N006719999999N0000001N9-00171+99999100151ADDGF108991999999999999999999MW1721
0029228920999991909030220004+60717+028783FM-12+000399999V0203601N001019999999N0000001N9-00721+99999100511ADDGF108991999999999999999999
0035228920999991909030306004+60717+028783FM-12+000399999V0200501N006719999999N0000001N9-01061+99999100401ADDGF108991999999999999999999MW1721
0035228920999991909030313004+60717+028783FM-12+000399999V0200701N002619999999N0000001N9-00281+99999100161ADDGF108991999999999999999999MW1721
0029228920999991909030320004+60717+028783FM-12+000399999V0200901N002619999999N0000001N9-00611+99999100231ADDGF108991999999999999999999
0029228920999991909030406004+60717+028783FM-12+000399999V0200901N002619999999N0000001N9-00501+99999100751ADDGF108991999999999999999999
0029228920999991909030413004+60717+028783FM-12+000399999V0201101N002619999999N0000001N9+00001+99999101001ADDGF108991999999999999999999
0029228920999991909030420004+60717+028783FM-12+000399999V0201101N001019999999N0000001N9+00001+99999101181ADDGF108991999999999999999999
0029228920999991909030506004+60717+028783FM-12+000399999V0201101N002619999999N0000001N9-00171+99999101501ADDGF108991999999999999999999
0029228920999991909030513004+60717+028783FM-12+000399999V0200701N004619999999N0000001N9+00061+99999101671ADDGF108991999999999999999999
0035228920999991909030520004+60717+028783FM-12+000399999V0201101N002619999999N0000001N9-00171+99999101681ADDGF108991999999999999999999MW1721
0029228920999991909030606004+60717+028783FM-12+000399999V0201101N002619999999N0000001N9-00111+99999102121ADDGF108991999999999999999999
0029228920999991909030613004+60717+028783FM-12+000399999V0201401N004619999999N0000001N9+00171+99999102441ADDGF108991999999999999999999
0029228920999991909030620004+60717+028783FM-12+000399999V0200901N002619999999N0000001N9-00221+99999102561ADDGF104991999999999999999999
0029228920999991909030706004+60717+028783FM-12+000399999V0200901N004619999999N0000001N9-00831+99999102671ADDGF100991999999999999999999
0029228920999991909030713004+60717+028783FM-12+000399999V0201101N009319999999N0000001N9-00111+99999102601ADDGF100991999999999999999999
0029228920999991909030720004+60717+028783FM-12+000399999V0201101N004619999999N0000001N9-00281+99999102761ADDGF108991999999999999999999
0029228920999991909030806004+60717+028783FM-12+000399999V0200901N004619999999N0000001N9-00671+99999102801ADDGF108991999999999999999999
0029228920999991909030813004+60717+028783FM-12+000399999V0201101N006719999999N0000001N9-00221+99999102871ADDGF108991999999999999999999
0029228920999991909030820004+60717+028783FM-12+000399999V0201101N004619999999N0000001N9-00441+99999102981ADDGF108991999999999999999999
0035228920999991909030906004+60717+028783FM-12+000399999V0201101N002619999999N0000001N9-00781+99999103121ADDGF107991999999999999999999MW1721
0035228920999991909030913004+60717+028783FM-12+000399999V0201101N002619999999N0000001N9-00391+99999103271ADDGF108991999999999999999999MW1721
0029228920999991909030920004+60717+028783FM-12+000399999V0201101N001019999999N0000001N9-00781+99999103341ADDGF106991999999999999999999
0029228920999991909031006004+60717+028783FM-12+000399999V0201101N002619999999N0000001N9-01001+99999103271ADDGF107991999999999999999999
0029228920999991909031013004+60717+028783FM-12+000399999V0201101N002619999999N0000001N9-00611+99999103191ADDGF100991999999999999999999
0029228920999991909031020004+60717+028783FM-12+000399999V0201101N001019999999N0000001N9-01501+99999103221ADDGF100991999999999999999999
0029228920999991909031106004+60717+028783FM-12+000399999V0200501N001019999999N0000001N9-02281+99999103181ADDGF100991999999999999999999
0029228920999991909031113004+60717+028783FM-12+000399999V0203201N001019999999N0000001N9-00721+99999103071ADDGF100991999999999999999999
0029228920999991909031120004+60717+028783FM-12+000399999V0209991C000019999999N0000001N9-01561+99999102911ADDGF100991999999999999999999
0029228920999991909031206004+60717+028783FM-12+000399999V0201401N001019999999N0000001N9-01391+99999102521ADDGF106991999999999999999999
0029228920999991909031213004+60717+028783FM-12+000399999V0201601N002619999999N0000001N9-00611+99999102241ADDGF100991999999999999999999
0029228920999991909031220004+60717+028783FM-12+000399999V0201401N001019999999N0000001N9-01391+99999102031ADDGF100991999999999999999999
0035228920999991909031306004+60717+028783FM-12+000399999V0201101N002619999999N0000001N9-01281+99999101701ADDGF108991999999999999999999MW1721
0035228920999991909031313004+60717+028783FM-12+000399999V0200901N002619999999N0000001N9-00501+99999101471ADDGF108991999999999999999999MW1721
0029228920999991909031320004+60717+028783FM-12+000399999V0200701N001019999999N0000001N9-00891+99999101221ADDGF100991999999999999999999
0029228920999991909031406004+60717+028783FM-12+000399999V0201101N002619999999N0000001N9-00501+99999101141ADDGF108991999999999999999999
0035228920999991909031413004+60717+028783FM-12+000399999V0201101N002619999999N0000001N9-00221+99999101071ADDGF108991999999999999999999MW1721
0029228920999991909031420004+60717+028783FM-12+000399999V0201101N002619999999N0000001N9-00501+99999101081ADDGF103991999999999999999999
0029228920999991909031506004+60717+028783FM-12+000399999V0201101N001019999999N0000001N9-00671+99999101261ADDGF108991999999999999999999
0035228920999991909031513004+60717+028783FM-12+000399999V0201101N001019999999N0000001N9-00221+99999101301ADDGF108991999999999999999999MW1721
0029228920999991909031520004+60717+028783FM-12+000399999V0209991C000019999999N0000001N9-00611+99999101461ADDGF100991999999999999999999
0029228920999991909031606004+60717+028783FM-12+000399999V0200701N001019999999N0000001N9-00671+99999101621ADDGF108991999999999999999999
0029228920999991909031613004+60717+028783FM-12+000399999V0200901N006719999999N0000001N9-00061+99999101581ADDGF100991999999999999999999
0029228920999991909031620004+60717+028783FM-12+000399999V0200901N004619999999N0000001N9-00221+99999101401ADDGF108991999999999999999999
0035228920999991909031706004+60717+028783FM-12+000399999V0200901N009319999999N0000001N9-00221+99999101071ADDGF108991999999999999999999MW1721
0035228920999991909031713004+60717+028783FM-12+000399999V0201101N006719999999N0000001N9-00171+99999101071ADDGF108991999999999999999999MW1721
0029228920999991909031720004+60717+028783FM-12+000399999V0201401N004619999999N0000001N9-00331+99999101321ADDGF100991999999999999999999
0029228920999991909031806004+60717+028783FM-12+000399999V0201101N004619999999N0000001N9-00171+99999101511ADDGF108991999999999999999999
0035228920999991909031813004+60717+028783FM-12+000399999V0200901N002619999999N0000001N9-00221+99999101481ADDGF108991999999999999999999MW1721
0029228920999991909031820004+60717+028783FM-12+000399999V0201601N002619999999N0000001N9-00221+99999101601ADDGF108991999999999999999999
0029228920999991909031906004+60717+028783FM-12+000399999V0209991C000019999999N0000001N9-00561+99999101921ADDGF108991999999999999999999
0029228920999991909031913004+60717+028783FM-12+000399999V0202001N001019999999N0000001N9-00061+99999101961ADDGF100991999999999999999999
0029228920999991909031920004+60717+028783FM-12+000399999V0209991C000019999999N0000001N9-00941+99999101981ADDGF100991999999999999999999
0029228920999991909032006004+60717+028783FM-12+000399999V0209991C000019999999N0000001N9-00831+99999102021ADDGF108991999999999999999999
0029228920999991909032013004+60717+028783FM-12+000399999V0200501N002619999999N0000001N9+00171+99999101841ADDGF101991999999999999999999
0029228920999991909032020004+60717+028783FM-12+000399999V0200201N001019999999N0000001N9-00171+99999101831ADDGF108991999999999999999999
0029228920999991909032106004+60717+028783FM-12+000399999V0200201N002619999999N0000001N9-00331+99999101841ADDGF108991999999999999999999
0029228920999991909032113004+60717+028783FM-12+000399999V0203601N001019999999N0000001N9+00001+99999101871ADDGF107991999999999999999999
0029228920999991909032120004+60717+028783FM-12+000399999V0203601N002619999999N0000001N9-00331+99999101941ADDGF108991999999999999999999
0029228920999991909032206004+60717+028783FM-12+000399999V0209991C000019999999N0000001N9-00331+99999102101ADDGF108991999999999999999999
0029228920999991909032213004+60717+028783FM-12+000399999V0209991C000019999999N0000001N9-00061+99999102191ADDGF108991999999999999999999
0029228920999991909032220004+60717+028783FM-12+000399999V0203601N001019999999N0000001N9-00441+99999102161ADDGF107991999999999999999999
0029228920999991909032306004+60717+028783FM-12+000399999V0209991C000019999999N0000001N9-01111+99999102191ADDGF108991999999999999999999
0029228920999991909032313004+60717+028783FM-12+000399999V0201401N002619999999N0000001N9-00061+99999102111ADDGF108991999999999999999999
0029228920999991909032320004+60717+028783FM-12+000399999V0209991C000019999999N0000001N9-00611+99999101951ADDGF100991999999999999999999
0029228920999991909032406004+60717+028783FM-12+000399999V0200701N001019999999N0000001N9-00781+99999101561ADDGF108991999999999999999999
0029228920999991909032413004+60717+028783FM-12+000399999V0200701N004619999999N0000001N9-00171+99999101191ADDGF108991999999999999999999
0035228920999991909032420004+60717+028783FM-12+000399999V0200501N002619999999N0000001N9-00441+99999100881ADDGF108991999999999999999999MW1721
0035228920999991909032506004+60717+028783FM-12+000399999V0200501N002619999999N0000001N9-00171+99999100201ADDGF108991999999999999999999MW1721
0035228920999991909032513004+60717+028783FM-12+000399999V0200501N002619999999N0000001N9+00061+99999100031ADDGF108991999999999999999999MW1721
0035228920999991909032520004+60717+028783FM-12+000399999V0200501N002619999999N0000001N9-00111+99999100061ADDGF108991999999999999999999MW1721
0029228920999991909032606004+60717+028783FM-12+000399999V0200501N002619999999N0000001N9-00331+99999100681ADDGF108991999999999999999999
0029228920999991909032613004+60717+028783FM-12+000399999V0209991C000019999999N0000001N9+00001+99999101141ADDGF108991999999999999999999
0029228920999991909032620004+60717+028783FM-12+000399999V0200701N002619999999N0000001N9-00281+99999101471ADDGF108991999999999999999999
0029228920999991909032706004+60717+028783FM-12+000399999V0200901N002619999999N0000001N9-00061+99999101591ADDGF108991999999999999999999
0029228920999991909032713004+60717+028783FM-12+000399999V0200901N004619999999N0000001N9+00281+99999101581ADDGF108991999999999999999999
0029228920999991909032720004+60717+028783FM-12+000399999V0201101N001019999999N0000001N9+00171+99999101561ADDGF108991999999999999999999
0029228920999991909032806004+60717+028783FM-12+000399999V0201101N001019999999N0000001N9+00061+99999101431ADDGF108991999999999999999999
0029228920999991909032813004+60717+028783FM-12+000399999V0201401N001019999999N0000001N9+00391+99999101271ADDGF108991999999999999999999
0029228920999991909032820004+60717+028783FM-12+000399999V0209991C000019999999N0000001N9+00171+99999101041ADDGF108991999999999999999999
0035228920999991909032906004+60717+028783FM-12+000399999V0202001N004619999999N0000001N9+00111+99999100661ADDGF108991999999999999999999MW1721
0029228920999991909032913004+60717+028783FM-12+000399999V0202001N009319999999N0000001N9+00221+99999100741ADDGF100991999999999999999999
0029228920999991909032920004+60717+028783FM-12+000399999V0202301N009319999999N0000001N9+00001+99999100941ADDGF104991999999999999999999
0029228920999991909033006004+60717+028783FM-12+000399999V0202001N002619999999N0000001N9-00111+99999101421ADDGF102991999999999999999999
0029228920999991909033013004+60717+028783FM-12+000399999V0201801N006719999999N0000001N9+00501+99999101391ADDGF104991999999999999999999
0035228920999991909033020004+60717+028783FM-12+000399999V0201601N002619999999N0000001N9+00111+99999101101ADDGF108991999999999999999999MW1691
0029228920999991909033106004+60717+028783FM-12+000399999V0201601N009319999999N0000001N9+00281+99999100791ADDGF108991999999999999999999
0029228920999991909033113004+60717+028783FM-12+000399999V0201601N006719999999N0000001N9+00501+99999100671ADDGF108991999999999999999999
0035228920999991909033120004+60717+028783FM-12+000399999V0201801N009319999999N0000001N9+00171+99999100511ADDGF108991999999999999999999MW1621
0029228920999991909040106004+60717+028783FM-12+000399999V0202001N015419999999N0000001N9+00331+99999100221ADDGF108991999999999999999999
0029228920999991909040113004+60717+028783FM-12+000399999V0202301N015419999999N0000001N9+00281+99999100431ADDGF108991999999999999999999
0029228920999991909040120004+60717+028783FM-12+000399999V0202301N004619999999N0000001N9-00111+99999100781ADDGF104991999999999999999999
0029228920999991909040206004+60717+028783FM-12+000399999V0200701N009319999999N0000001N9-00171+99999100201ADDGF108991999999999999999999
0029228920999991909040213004+60717+028783FM-12+000399999V0203601N009319999999N0000001N9-00171+99999100151ADDGF108991999999999999999999
0029228920999991909040220004+60717+028783FM-12+000399999V0203601N004619999999N0000001N9-00331+99999100641ADDGF108991999999999999999999
0035228920999991909040306004+60717+028783FM-12+000399999V0200201N009319999999N0000001N9-00561+99999101261ADDGF108991999999999999999999MW1721
0035228920999991909040313004+60717+028783FM-12+000399999V0200201N006719999999N0000001N9-00331+99999101761ADDGF108991999999999999999999MW1721
0035228920999991909040320004+60717+028783FM-12+000399999V0200201N002619999999N0000001N9-00671+99999102151ADDGF108991999999999999999999MW1721
0029228920999991909040406004+60717+028783FM-12+000399999V0200201N006719999999N0000001N9-00561+99999102711ADDGF100991999999999999999999
0029228920999991909040413004+60717+028783FM-12+000399999V0203601N006719999999N0000001N9-00111+99999102911ADDGF100991999999999999999999
0029228920999991909040420004+60717+028783FM-12+000399999V0209991C000019999999N0000001N9-00441+99999103021ADDGF104991999999999999999999
0029228920999991909040506004+60717+028783FM-12+000399999V0202901N001019999999N0000001N9-00611+99999102991ADDGF101991999999999999999999
0029228920999991909040513004+60717+028783FM-12+000399999V0202901N002619999999N0000001N9+00561+99999102741ADDGF100991999999999999999999
0029228920999991909040520004+60717+028783FM-12+000399999V0209991C000019999999N0000001N9-00111+99999102381ADDGF107991999999999999999999
0029228920999991909040606004+60717+028783FM-12+000399999V0209991C000019999999N0000001N9+00331+99999101801ADDGF104991999999999999999999
0029228920999991909040613004+60717+028783FM-12+000399999V0203201N002619999999N0000001N9+00781+99999101631ADDGF102991999999999999999999
0029228920999991909040620004+60717+028783FM-12+000399999V0209991C000019999999N0000001N9+00221+99999101381ADDGF108991999999999999999999
0029228920999991909040706004+60717+028783FM-12+000399999V0203601N006719999999N0000001N9+00281+99999101081ADDGF102991999999999999999999
0029228920999991909040713004+60717+028783FM-12+000399999V0203601N006719999999N0000001N9-00111+99999101421ADDGF100991999999999999999999
0029228920999991909040720004+60717+028783FM-12+000399999V0200201N004619999999N0000001N9-00501+99999101711ADDGF100991999999999999999999
0029228920999991909040806004+60717+028783FM-12+000399999V0203401N002619999999N0000001N9-00781+99999101681ADDGF100991999999999999999999
0029228920999991909040813004+60717+028783FM-12+000399999V0202301N006719999999N0000001N9-00061+99999101311ADDGF100991999999999999999999
0029228920999991909040820004+60717+028783FM-12+000399999V0202001N002619999999N0000001N9-00391+99999100911ADDGF102991999999999999999999
0035228920999991909040906004+60717+028783FM-12+000399999V0201101N004619999999N0000001N9-00331+99999100111ADDGF108991999999999999999999MW1721
0035228920999991909040913004+60717+028783FM-12+000399999V0200901N009319999999N0000001N9-00171+99999100061ADDGF108991999999999999999999MW1721
0029228920999991909040920004+60717+028783FM-12+000399999V0200701N009319999999N0000001N9-00561+99999100501ADDGF105991999999999999999999
0029228920999991909041006004+60717+028783FM-12+000399999V0200501N009319999999N0000001N9-00781+99999100801ADDGF107991999999999999999999
0029228920999991909041013004+60717+028783FM-12+000399999V0200501N009319999999N0000001N9-00391+99999101041ADDGF108991999999999999999999
0029228920999991909041020004+60717+028783FM-12+000399999V0200501N002619999999N0000001N9-00561+99999101121ADDGF107991999999999999999999
0029228920999991909041106004+60717+028783FM-12+000399999V0200501N009319999999N0000001N9-00721+99999101031ADDGF100991999999999999999999
0035228920999991909041113004+60717+028783FM-12+000399999V0200701N002619999999N0000001N9-00221+99999100681ADDGF108991999999999999999999MW1721
0035228920999991909041120004+60717+028783FM-12+000399999V0200701N006719999999N0000001N9-00111+99999100431ADDGF108991999999999999999999MW1721
0035228920999991909041206004+60717+028783FM-12+000399999V0200901N009319999999N0000001N9-00171+99999100471ADDGF108991999999999999999999MW1721
0035228920999991909041213004+60717+028783FM-12+000399999V0200701N004619999999N0000001N9-00061+99999100661ADDGF108991999999999999999999MW1721
0029228920999991909041220004+60717+028783FM-12+000399999V0200701N002619999999N0000001N9-00281+99999100721ADDGF108991999999999999999999
0029228920999991909041306004+60717+028783FM-12+000399999V0200701N002619999999N0000001N9-00331+99999100741ADDGF108991999999999999999999
0029228920999991909041313004+60717+028783FM-12+000399999V0200701N006719999999N0000001N9+00281+99999100741ADDGF108991999999999999999999
0029228920999991909041320004+60717+028783FM-12+000399999V0200701N002619999999N0000001N9-00111+99999100791ADDGF108991999999999999999999
0029228920999991909041406004+60717+028783FM-12+000399999V0200701N004619999999N0000001N9-00391+99999100991ADDGF100991999999999999999999
0029228920999991909041413004+60717+028783FM-12+000399999V0200701N006719999999N0000001N9+00441+99999100981ADDGF104991999999999999999999
0029228920999991909041420004+60717+028783FM-12+000399999V0200701N004619999999N0000001N9-00171+99999100901ADDGF100991999999999999999999
0029228920999991909041506004+60717+028783FM-12+000399999V0200701N004619999999N0000001N9-00221+99999100601ADDGF108991999999999999999999
0029228920999991909041513004+60717+028783FM-12+000399999V0200701N006719999999N0000001N9+00281+99999100631ADDGF108991999999999999999999
0029228920999991909041520004+60717+028783FM-12+000399999V0200701N004619999999N0000001N9+00061+99999100701ADDGF108991999999999999999999
0029228920999991909041606004+60717+028783FM-12+000399999V0200701N004619999999N0000001N9+00171+99999100401ADDGF108991999999999999999999
0035228920999991909041613004+60717+028783FM-12+000399999V0200501N002619999999N0000001N9+00171+99999100421ADDGF108991999999999999999999MW1901
0029228920999991909041620004+60717+028783FM-12+000399999V0200501N002619999999N0000001N9+00171+99999100521ADDGF108991999999999999999999
0035228920999991909041706004+60717+028783FM-12+000399999V0200501N004619999999N0000001N9+00171+99999100481ADDGF108991999999999999999999MW1621
0029228920999991909041713004+60717+028783FM-12+000399999V0200201N006719999999N0000001N9+00281+99999100551ADDGF108991999999999999999999
0029228920999991909041720004+60717+028783FM-12+000399999V0200501N004619999999N0000001N9+00061+99999100701ADDGF108991999999999999999999
0035228920999991909041806004+60717+028783FM-12+000399999V0203601N006719999999N0000001N9-00281+99999100841ADDGF108991999999999999999999MW1721
0035228920999991909041813004+60717+028783FM-12+000399999V0203601N004619999999N0000001N9+00061+99999101041ADDGF108991999999999999999999MW1721
0029228920999991909041820004+60717+028783FM-12+000399999V0203401N004619999999N0000001N9-00331+99999101161ADDGF108991999999999999999999
0029228920999991909041906004+60717+028783FM-12+000399999V0203401N006719999999N0000001N9-00391+99999101201ADDGF108991999999999999999999
0029228920999991909041913004+60717+028783FM-12+000399999V0203401N004619999999N0000001N9-00171+99999101391ADDGF108991999999999999999999
0029228920999991909041920004+60717+028783FM-12+000399999V0200201N002619999999N0000001N9-00391+99999101621ADDGF108991999999999999999999
0029228920999991909042006004+60717+028783FM-12+000399999V0200501N002619999999N0000001N9-00391+99999101661ADDGF100991999999999999999999
0029228920999991909042013004+60717+028783FM-12+000399999V0203201N001019999999N0000001N9+00061+99999101601ADDGF101991999999999999999999
0029228920999991909042020004+60717+028783FM-12+000399999V0200701N001019999999N0000001N9-00171+99999101641ADDGF108991999999999999999999
0029228920999991909042106004+60717+028783FM-12+000399999V0200201N001019999999N0000001N9-00331+99999101671ADDGF108991999999999999999999
0029228920999991909042113004+60717+028783FM-12+000399999V0200501N001019999999N0000001N9+00111+99999101701ADDGF108991999999999999999999
0035228920999991909042120004+60717+028783FM-12+000399999V0200501N001019999999N0000001N9-00281+99999101791ADDGF108991999999999999999999MW1721
0029228920999991909042206004+60717+028783FM-12+000399999V0200501N004619999999N0000001N9-00061+99999101791ADDGF108991999999999999999999
0029228920999991909042213004+60717+028783FM-12+000399999V0203401N009319999999N0000001N9+00331+99999101631ADDGF104991999999999999999999
0029228920999991909042220004+60717+028783FM-12+000399999V0203401N004619999999N0000001N9+00171+99999101481ADDGF102991999999999999999999
0029228920999991909042306004+60717+028783FM-12+000399999V0200201N002619999999N0000001N9+00171+99999101391ADDGF100991999999999999999999
0029228920999991909042313004+60717+028783FM-12+000399999V0203401N004619999999N0000001N9+00671+99999101201ADDGF100991999999999999999999
0029228920999991909042320004+60717+028783FM-12+000399999V0209991C000019999999N0000001N9-00061+99999101151ADDGF100991999999999999999999
0029228920999991909042406004+60717+028783FM-12+000399999V0209991C000019999999N0000001N9-00061+99999101101ADDGF101991999999999999999999
0029228920999991909042413004+60717+028783FM-12+000399999V0203601N004619999999N0000001N9+00331+99999101201ADDGF108991999999999999999999
0035228920999991909042420004+60717+028783FM-12+000399999V0203201N001019999999N0000001N9+00111+99999101311ADDGF108991999999999999999999MW1721
0029228920999991909042506004+60717+028783FM-12+000399999V0203201N002619999999N0000001N9+00061+99999101551ADDGF108991999999999999999999
0029228920999991909042513004+60717+028783FM-12+000399999V0202301N002619999999N0000001N9+00501+99999101681ADDGF108991999999999999999999
0029228920999991909042520004+60717+028783FM-12+000399999V0209991C000019999999N0000001N9-00111+99999101641ADDGF100991999999999999999999
0029228920999991909042606004+60717+028783FM-12+000399999V0201401N006719999999N0000001N9+00331+99999100991ADDGF108991999999999999999999
0029228920999991909042613004+60717+028783FM-12+000399999V0202001N002619999999N0000001N9+00281+99999100841ADDGF108991999999999999999999
0029228920999991909042620004+60717+028783FM-12+000399999V0202001N002619999999N0000001N9+00171+99999100801ADDGF108991999999999999999999
0029228920999991909042706004+60717+028783FM-12+000399999V0202001N002619999999N0000001N9+00281+99999100721ADDGF108991999999999999999999
0029228920999991909042713004+60717+028783FM-12+000399999V0202001N009319999999N0000001N9+00611+99999100861ADDGF100991999999999999999999
0029228920999991909042720004+60717+028783FM-12+000399999V0202001N001019999999N0000001N9+00171+99999100831ADDGF100991999999999999999999
0029228920999991909042806004+60717+028783FM-12+000399999V0201601N001019999999N0000001N9+00281+99999100401ADDGF108991999999999999999999
0035228920999991909042813004+60717+028783FM-12+000399999V0201601N006719999999N0000001N9+00671+99999099701ADDGF108991999999999999999999MW1621
0029228920999991909042820004+60717+028783FM-12+000399999V0202301N015419999999N0000001N9+00171+99999099521ADDGF108991999999999999999999
0029228920999991909042906004+60717+028783FM-12+000399999V0202301N012319999999N0000001N9+00171+99999099711ADDGF108991999999999999999999
0029228920999991909042913004+60717+028783FM-12+000399999V0202301N015419999999N0000001N9+00281+99999099871ADDGF108991999999999999999999
0029228920999991909042920004+60717+028783FM-12+000399999V0202301N004619999999N0000001N9+00171+99999100121ADDGF100991999999999999999999
0029228920999991909043006004+60717+028783FM-12+000399999V0202301N004619999999N0000001N9+00281+99999100191ADDGF108991999999999999999999
0029228920999991909043013004+60717+028783FM-12+000399999V0202301N006719999999N0000001N9+00391+99999100321ADDGF108991999999999999999999
0029228920999991909043020004+60717+028783FM-12+000399999V0202001N006719999999N0000001N9+00061+99999100591ADDGF100991999999999999999999
0029228920999991909050106004+60717+028783FM-12+000399999V0200701N002619999999N0000001N9+00221+99999100401ADDGF108991999999999999999999
0035228920999991909050113004+60717+028783FM-12+000399999V0201101N002619999999N0000001N9+00221+99999099861ADDGF108991999999999999999999MW1621
0035228920999991909050120004+60717+028783FM-12+000399999V0202001N012319999999N0000001N9+00281+99999100191ADDGF108991999999999999999999MW1721
0029228920999991909050206004+60717+028783FM-12+000399999V0202001N015419999999N0000001N9+00171+99999100201ADDGF108991999999999999999999
0029228920999991909050213004+60717+028783FM-12+000399999V0202001N015419999999N0000001N9+00281+99999100671ADDGF108991999999999999999999
0029228920999991909050220004+60717+028783FM-12+000399999V0202301N004619999999N0000001N9+00171+99999101511ADDGF107991999999999999999999
0029228920999991909050306004+60717+028783FM-12+000399999V0202001N002619999999N0000001N9+00221+99999102591ADDGF100991999999999999999999
0029228920999991909050313004+60717+028783FM-12+000399999V0202001N006719999999N0000001N9+00501+99999102951ADDGF100991999999999999999999
0029228920999991909050320004+60717+028783FM-12+000399999V0202001N009319999999N0000001N9+00061+99999103081ADDGF100991999999999999999999
0029228920999991909050406004+60717+028783FM-12+000399999V0202001N015419999999N0000001N9+00391+99999102951ADDGF100991999999999999999999
0029228920999991909050413004+60717+028783FM-12+000399999V0202301N015419999999N0000001N9+00441+99999102671ADDGF108991999999999999999999
0029228920999991909050420004+60717+028783FM-12+000399999V0202901N004619999999N0000001N9+00111+99999102671ADDGF100991999999999999999999
0029228920999991909050506004+60717+028783FM-12+000399999V0202901N012319999999N0000001N9+00221+99999102741ADDGF100991999999999999999999
0029228920999991909050513004+60717+028783FM-12+000399999V0203201N006719999999N0000001N9+00611+99999102721ADDGF106991999999999999999999
0029228920999991909050520004+60717+028783FM-12+000399999V0203401N006719999999N0000001N9+00221+99999102911ADDGF107991999999999999999999
0029228920999991909050606004+60717+028783FM-12+000399999V0203601N006719999999N0000001N9+00281+99999103031ADDGF108991999999999999999999
0029228920999991909050613004+60717+028783FM-12+000399999V0203601N006719999999N0000001N9+00331+99999103121ADDGF106991999999999999999999
0029228920999991909050620004+60717+028783FM-12+000399999V0200201N002619999999N0000001N9+00061+99999103181ADDGF108991999999999999999999
0029228920999991909050706004+60717+028783FM-12+000399999V0200201N004619999999N0000001N9-00221+99999103241ADDGF103991999999999999999999
0029228920999991909050713004+60717+028783FM-12+000399999V0201101N002619999999N0000001N9+00171+99999103021ADDGF101991999999999999999999
0029228920999991909050720004+60717+028783FM-12+000399999V0209991C000019999999N0000001N9-00171+99999102841ADDGF100991999999999999999999
0029228920999991909050806004+60717+028783FM-12+000399999V0200701N001019999999N0000001N9+00111+99999102401ADDGF100991999999999999999999
0029228920999991909050813004+60717+028783FM-12+000399999V0200701N004619999999N0000001N9+00501+99999101981ADDGF100991999999999999999999
0029228920999991909050820004+60717+028783FM-12+000399999V0203601N001019999999N0000001N9+00061+99999101701ADDGF100991999999999999999999
0029228920999991909050906004+60717+028783FM-12+000399999V0200701N002619999999N0000001N9+00331+99999101421ADDGF100991999999999999999999
0029228920999991909050913004+60717+028783FM-12+000399999V0203601N002619999999N0000001N9+00831+99999101081ADDGF103991999999999999999999
0029228920999991909050920004+60717+028783FM-12+000399999V0209991C000019999999N0000001N9+00171+99999100821ADDGF102991999999999999999999
0029228920999991909051006004+60717+028783FM-12+000399999V0209991C000019999999N0000001N9+00441+99999100751ADDGF100991999999999999999999
0029228920999991909051013004+60717+028783FM-12+000399999V0202001N012319999999N0000001N9+00611+99999101161ADDGF100991999999999999999999
0029228920999991909051020004+60717+028783FM-12+000399999V0209991C000019999999N0000001N9+00171+99999101461ADDGF102991999999999999999999
0029228920999991909051106004+60717+028783FM-12+000399999V0201101N002619999999N0000001N9+00441+99999101281ADDGF108991999999999999999999
0035228920999991909051113004+60717+028783FM-12+000399999V0201801N002619999999N0000001N9+00561+99999101191ADDGF107991999999999999999999MW1621
0029228920999991909051120004+60717+028783FM-12+000399999V0202001N006719999999N0000001N9+00171+99999101381ADDGF103991999999999999999999
0029228920999991909051206004+60717+028783FM-12+000399999V0202001N009319999999N0000001N9+00281+99999101441ADDGF108991999999999999999999
0029228920999991909051213004+60717+028783FM-12+000399999V0202001N015419999999N0000001N9+00501+99999101701ADDGF106991999999999999999999
0029228920999991909051220004+60717+028783FM-12+000399999V0201601N002619999999N0000001N9+00061+99999101801ADDGF101991999999999999999999
0029228920999991909051306004+60717+028783FM-12+000399999V0201401N002619999999N0000001N9+00441+99999101321ADDGF108991999999999999999999
0035228920999991909051313004+60717+028783FM-12+000399999V0201601N009319999999N0000001N9+00781+99999100021ADDGF108991999999999999999999MW1621
0029228920999991909051320004+60717+028783FM-12+000399999V0201601N012319999999N0000001N9+00831+99999100111ADDGF108991999999999999999999
0029228920999991909051406004+60717+028783FM-12+000399999V0201801N015419999999N0000001N9+00441+99999100111ADDGF108991999999999999999999
0029228920999991909051413004+60717+028783FM-12+000399999V0202001N015419999999N0000001N9+00501+99999100981ADDGF104991999999999999999999
0029228920999991909051420004+60717+028783FM-12+000399999V0202001N006719999999N0000001N9+00221+99999101391ADDGF100991999999999999999999
0029228920999991909051506004+60717+028783FM-12+000399999V0201601N002619999999N0000001N9+00391+99999101751ADDGF100991999999999999999999
0029228920999991909051513004+60717+028783FM-12+000399999V0202001N004619999999N0000001N9+00941+99999101621ADDGF102991999999999999999999
0029228920999991909051520004+60717+028783FM-12+000399999V0202301N002619999999N0000001N9+00561+99999101441ADDGF102991999999999999999999
0029228920999991909051606004+60717+028783FM-12+000399999V0202001N004619999999N0000001N9+00611+99999101481ADDGF101991999999999999999999
0029228920999991909051613004+60717+028783FM-12+000399999V0202001N009319999999N0000001N9+00781+99999101461ADDGF102991999999999999999999
0029228920999991909051620004+60717+028783FM-12+000399999V0202301N015419999999N0000001N9+00221+99999101401ADDGF107991999999999999999999
0029228920999991909051706004+60717+028783FM-12+000399999V0202701N004619999999N0000001N9+00281+99999101831ADDGF104991999999999999999999
0029228920999991909051713004+60717+028783FM-12+000399999V0202301N009319999999N0000001N9+00721+99999102311ADDGF101991999999999999999999
0029228920999991909051720004+60717+028783FM-12+000399999V0202001N001019999999N0000001N9+00331+99999102391ADDGF100991999999999999999999
0029228920999991909051806004+60717+028783FM-12+000399999V0201101N002619999999N0000001N9+00721+99999102271ADDGF102991999999999999999999
0029228920999991909051813004+60717+028783FM-12+000399999V0201101N002619999999N0000001N9+01331+99999101741ADDGF102991999999999999999999
0035228920999991909051820004+60717+028783FM-12+000399999V0201101N006719999999N0000001N9+00721+99999101231ADDGF108991999999999999999999MW1621
0029228920999991909051906004+60717+028783FM-12+000399999V0202001N012319999999N0000001N9+00501+99999100831ADDGF108991999999999999999999
0029228920999991909051913004+60717+028783FM-12+000399999V0202001N012319999999N0000001N9+00561+99999100821ADDGF108991999999999999999999
0035228920999991909051920004+60717+028783FM-12+000399999V0201801N004619999999N0000001N9+00331+99999100551ADDGF108991999999999999999999MW1621
0029228920999991909052006004+60717+028783FM-12+000399999V0202001N001019999999N0000001N9+00561+99999100441ADDGF108991999999999999999999
0029228920999991909052013004+60717+028783FM-12+000399999V0203401N006719999999N0000001N9+00561+99999101001ADDGF106991999999999999999999
0029228920999991909052020004+60717+028783FM-12+000399999V0203601N002619999999N0000001N9+00331+99999101551ADDGF108991999999999999999999
0029228920999991909052106004+60717+028783FM-12+000399999V0203401N004619999999N0000001N9+00391+99999101941ADDGF107991999999999999999999
0035228920999991909052113004+60717+028783FM-12+000399999V0200201N002619999999N0000001N9+00501+99999102161ADDGF108991999999999999999999MW1721
0029228920999991909052120004+60717+028783FM-12+000399999V0203601N002619999999N0000001N9+00331+99999102261ADDGF108991999999999999999999
0029228920999991909052206004+60717+028783FM-12+000399999V0203401N002619999999N0000001N9+00221+99999102311ADDGF108991999999999999999999
0029228920999991909052213004+60717+028783FM-12+000399999V0209991C000019999999N0000001N9+00611+99999102261ADDGF106991999999999999999999
0029228920999991909052220004+60717+028783FM-12+000399999V0203401N001019999999N0000001N9+00331+99999102231ADDGF108991999999999999999999
0029228920999991909052306004+60717+028783FM-12+000399999V0203401N001019999999N0000001N9+00441+99999102311ADDGF108991999999999999999999
0029228920999991909052313004+60717+028783FM-12+000399999V0203401N001019999999N0000001N9+00721+99999102401ADDGF108991999999999999999999
0029228920999991909052320004+60717+028783FM-12+000399999V0202301N004619999999N0000001N9+00441+99999102461ADDGF100991999999999999999999
0029228920999991909052406004+60717+028783FM-12+000399999V0202001N004619999999N0000001N9+00611+99999102391ADDGF100991999999999999999999
0029228920999991909052413004+60717+028783FM-12+000399999V0202301N009319999999N0000001N9+00781+99999101601ADDGF100991999999999999999999
0029228920999991909052420004+60717+028783FM-12+000399999V0202001N002619999999N0000001N9+00561+99999101761ADDGF108991999999999999999999
0029228920999991909052506004+60717+028783FM-12+000399999V0209991C000019999999N0000001N9+00781+99999101461ADDGF108991999999999999999999
0029228920999991909052513004+60717+028783FM-12+000399999V0202001N002619999999N0000001N9+01281+99999101341ADDGF105991999999999999999999
0029228920999991909052520004+60717+028783FM-12+000399999V0209991C000019999999N0000001N9+00721+99999101261ADDGF108991999999999999999999
0029228920999991909052606004+60717+028783FM-12+000399999V0200201N004619999999N0000001N9+00441+99999101581ADDGF108991999999999999999999
0029228920999991909052613004+60717+028783FM-12+000399999V0203601N004619999999N0000001N9+00781+99999101751ADDGF106991999999999999999999
0029228920999991909052620004+60717+028783FM-12+000399999V0200701N001019999999N0000001N9+00501+99999101951ADDGF108991999999999999999999
0029228920999991909052706004+60717+028783FM-12+000399999V0200501N001019999999N0000001N9+00781+99999102071ADDGF100991999999999999999999
0029228920999991909052713004+60717+028783FM-12+000399999V0203401N001019999999N0000001N9+01281+99999101911ADDGF100991999999999999999999
0029228920999991909052720004+60717+028783FM-12+000399999V0209991C000019999999N0000001N9+00781+99999101781ADDGF100991999999999999999999
0029228920999991909052806004+60717+028783FM-12+000399999V0209991C000019999999N0000001N9+01171+99999101741ADDGF100991999999999999999999
0029228920999991909052813004+60717+028783FM-12+000399999V0202301N012319999999N0000001N9+01501+99999101621ADDGF102991999999999999999999
0029228920999991909052820004+60717+028783FM-12+000399999V0209991C000019999999N0000001N9+01061+99999101561ADDGF100991999999999999999999
0029228920999991909052906004+60717+028783FM-12+000399999V0200201N002619999999N0000001N9+01391+99999101871ADDGF100991999999999999999999
0029228920999991909052913004+60717+028783FM-12+000399999V0200701N001019999999N0000001N9+01831+99999101901ADDGF100991999999999999999999
0029228920999991909052920004+60717+028783FM-12+000399999V0202501N002619999999N0000001N9+01391+99999101961ADDGF100991999999999999999999
0029228920999991909053006004+60717+028783FM-12+000399999V0202301N004619999999N0000001N9+01281+99999102111ADDGF100991999999999999999999
0029228920999991909053013004+60717+028783FM-12+000399999V0202301N004619999999N0000001N9+01891+99999101821ADDGF100991999999999999999999
0029228920999991909053020004+60717+028783FM-12+000399999V0209991C000019999999N0000001N9+01501+99999101431ADDGF107991999999999999999999
0029228920999991909053106004+60717+028783FM-12+000399999V0201801N012319999999N0000001N9+01061+99999101101ADDGF107991999999999999999999
0029228920999991909053113004+60717+028783FM-12+000399999V0202001N015419999999N0000001N9+01391+99999100961ADDGF102991999999999999999999
0029228920999991909053120004+60717+028783FM-12+000399999V0203201N001019999999N0000001N9+01281+99999101121ADDGF102991999999999999999999
0029228920999991909060106004+60717+028783FM-12+000399999V0202301N006219999999N0000001N9+00941+99999101101ADDGF107991999999999999999999
0029228920999991909060113004+60717+028783FM-12+000399999V0202001N008219999999N0000001N9+01001+99999100591ADDGF108991999999999999999999
0000228920999991909060120004+60717+028783FM-12+000399999V02099999999999999999N0000001N9+01111+99999100901
0029228920999991909060206004+60717+028783FM-12+000399999V0201601N006219999999N0000001N9+01001+99999099861ADDGF108991999999999999999999
0029228920999991909060213004+60717+028783FM-12+000399999V0202301N006219999999N0000001N9+01001+99999100241ADDGF108991999999999999999999
0029228920999991909060220004+60717+028783FM-12+000399999V0203401N006219999999N0000001N9+00941+99999099861ADDGF108991999999999999999999
0000228920999991909060306004+60717+028783FM-12+000399999V02099999999999999999N0000001N9+00781+99999099661
0000228920999991909060313004+60717+028783FM-12+000399999V02099999999999999999N0000001N9+00561+99999099761
0000228920999991909060320004+60717+028783FM-12+000399999V02099999999999999999N0000001N9+00721+99999099921
0000228920999991909060406004+60717+028783FM-12+000399999V02099999999999999999N0000001N9+00831+99999100141
0029228920999991909060413004+60717+028783FM-12+000399999V0202001N013919999999N0000001N9+01281+99999100301ADDGF108991999999999999999999
0035228920999991909060420004+60717+028783FM-12+000399999V0202001N006219999999N0000001N9+00891+99999100031ADDGF108991999999999999999999MW1621
0029228920999991909060506004+60717+028783FM-12+000399999V0202501N006219999999N0000001N9+00831+99999099901ADDGF101991999999999999999999
0029228920999991909060513004+60717+028783FM-12+000399999V0202301N009819999999N0000001N9+01331+99999100161ADDGF103991999999999999999999
0029228920999991909060520004+60717+028783FM-12+000399999V0202301N002119999999N0000001N9+00941+99999100351ADDGF102991999999999999999999
0029228920999991909060606004+60717+028783FM-12+000399999V0209991C000019999999N0000001N9+01001+99999100681ADDGF101991999999999999999999
0029228920999991909060613004+60717+028783FM-12+000399999V0202501N006219999999N0000001N9+01501+99999100661ADDGF101991999999999999999999
0029228920999991909060620004+60717+028783FM-12+000399999V0200701N004119999999N0000001N9+01221+99999100661ADDGF107991999999999999999999
0029228920999991909060706004+60717+028783FM-12+000399999V0200901N002119999999N0000001N9+01281+99999100241ADDGF107991999999999999999999
0029228920999991909060713004+60717+028783FM-12+000399999V0202301N006219999999N0000001N9+01391+99999100301ADDGF101991999999999999999999
0029228920999991909060720004+60717+028783FM-12+000399999V0202301N004119999999N0000001N9+00941+99999100301ADDGF101991999999999999999999
0029228920999991909060806004+60717+028783FM-12+000399999V0202301N006219999999N0000001N9+01221+99999100381ADDGF101991999999999999999999
0029228920999991909060813004+60717+028783FM-12+000399999V0202301N009819999999N0000001N9+01221+99999100741ADDGF102991999999999999999999
0029228920999991909060820004+60717+028783FM-12+000399999V0202301N004119999999N0000001N9+01111+99999100981ADDGF100991999999999999999999
0029228920999991909060906004+60717+028783FM-12+000399999V0209991C000019999999N0000001N9+01391+99999101031ADDGF100991999999999999999999
0029228920999991909060913004+60717+028783FM-12+000399999V0202501N004119999999N0000001N9+01281+99999100921ADDGF107991999999999999999999
0029228920999991909060920004+60717+028783FM-12+000399999V0209991C000019999999N0000001N9+01111+99999100881ADDGF102991999999999999999999
0035228920999991909061006004+60717+028783FM-12+000399999V0201401N004119999999N0000001N9+01001+99999100641ADDGF108991999999999999999999MW1621
0029228920999991909061013004+60717+028783FM-12+000399999V0202301N006219999999N0000001N9+01671+99999100881ADDGF107991999999999999999999
0029228920999991909061020004+60717+028783FM-12+000399999V0202301N004119999999N0000001N9+01171+99999101061ADDGF106991999999999999999999
0029228920999991909061106004+60717+028783FM-12+000399999V0202301N004119999999N0000001N9+01171+99999101321ADDGF106991999999999999999999
0029228920999991909061113004+60717+028783FM-12+000399999V0202301N006219999999N0000001N9+01441+99999101621ADDGF104991999999999999999999
0029228920999991909061120004+60717+028783FM-12+000399999V0202301N004119999999N0000001N9+01171+99999101701ADDGF100991999999999999999999
0029228920999991909061206004+60717+028783FM-12+000399999V0200501N002119999999N0000001N9+01111+99999101911ADDGF108991999999999999999999
0029228920999991909061213004+60717+028783FM-12+000399999V0200901N006219999999N0000001N9+01941+99999101721ADDGF106991999999999999999999
0029228920999991909061220004+60717+028783FM-12+000399999V0200901N002119999999N0000001N9+01331+99999101481ADDGF105991999999999999999999
0029228920999991909061306004+60717+028783FM-12+000399999V0209991C000019999999N0000001N9+01831+99999100831ADDGF100991999999999999999999
0029228920999991909061313004+60717+028783FM-12+000399999V0202501N004119999999N0000001N9+02391+99999100541ADDGF104991999999999999999999
0029228920999991909061320004+60717+028783FM-12+000399999V0203401N004119999999N0000001N9+01721+99999100511ADDGF102991999999999999999999
0035228920999991909061406004+60717+028783FM-12+000399999V0203401N008219999999N0000001N9+01171+99999100861ADDGF108991999999999999999999MW1621
0029228920999991909061413004+60717+028783FM-12+000399999V0200501N006219999999N0000001N9+01061+99999101401ADDGF108991999999999999999999
0029228920999991909061420004+60717+028783FM-12+000399999V0200501N002119999999N0000001N9+00941+99999101781ADDGF100991999999999999999999
0029228920999991909061506004+60717+028783FM-12+000399999V0200901N006219999999N0000001N9+00891+99999102121ADDGF101991999999999999999999
0029228920999991909061513004+60717+028783FM-12+000399999V0200701N004119999999N0000001N9+01391+99999101961ADDGF100991999999999999999999
0029228920999991909061520004+60717+028783FM-12+000399999V0209991C000019999999N0000001N9+01281+99999101841ADDGF100991999999999999999999
0029228920999991909061606004+60717+028783FM-12+000399999V0209991C000019999999N0000001N9+01391+99999101671ADDGF100991999999999999999999
0029228920999991909061613004+60717+028783FM-12+000399999V0202301N004119999999N0000001N9+02061+99999101341ADDGF100991999999999999999999
0029228920999991909061620004+60717+028783FM-12+000399999V0209991C000019999999N0000001N9+02001+99999101261ADDGF100991999999999999999999
0029228920999991909061706004+60717+028783FM-12+000399999V0200901N004119999999N0000001N9+01441+99999101401ADDGF100991999999999999999999
0029228920999991909061713004+60717+028783FM-12+000399999V0203201N004119999999N0000001N9+01941+99999101241ADDGF100991999999999999999999
0029228920999991909061720004+60717+028783FM-12+000399999V0209991C000019999999N0000001N9+01671+99999101231ADDGF100991999999999999999999
0029228920999991909061806004+60717+028783FM-12+000399999V0209991C000019999999N0000001N9+01781+99999101221ADDGF102991999999999999999999
0029228920999991909061813004+60717+028783FM-12+000399999V0203201N006219999999N0000001N9+02111+99999101151ADDGF101991999999999999999999
0029228920999991909061820004+60717+028783FM-12+000399999V0209991C000019999999N0000001N9+01831+99999101311ADDGF100991999999999999999999
0035228920999991909061906004+60717+028783FM-12+000399999V0202701N002119999999N0000001N9+01671+99999101381ADDGF102991999999999999999999MW1621
0029228920999991909061913004+60717+028783FM-12+000399999V0202501N006219999999N0000001N9+02061+99999101321ADDGF106991999999999999999999
0029228920999991909061920004+60717+028783FM-12+000399999V0202501N004119999999N0000001N9+01441+99999101151ADDGF107991999999999999999999
0029228920999991909062006004+60717+028783FM-12+000399999V0202701N002119999999N0000001N9+01611+99999101021ADDGF107991999999999999999999
0035228920999991909062013004+60717+028783FM-12+000399999V0202301N008219999999N0000001N9+01781+99999100951ADDGF108991999999999999999999MW1621
0035228920999991909062020004+60717+028783FM-12+000399999V0202901N004119999999N0000001N9+01111+99999100871ADDGF108991999999999999999999MW1621
0029228920999991909062106004+60717+028783FM-12+000399999V0202701N002119999999N0000001N9+01391+99999100821ADDGF101991999999999999999999
0035228920999991909062113004+60717+028783FM-12+000399999V0202301N006219999999N0000001N9+01721+99999100881ADDGF107991999999999999999999MW1621
0029228920999991909062120004+60717+028783FM-12+000399999V0202301N002119999999N0000001N9+01561+99999100941ADDGF100991999999999999999999
0029228920999991909062206004+60717+028783FM-12+000399999V0209991C000019999999N0000001N9+01781+99999101001ADDGF101991999999999999999999
0035228920999991909062213004+60717+028783FM-12+000399999V0209991C000019999999N0000001N9+01501+99999101181ADDGF108991999999999999999999MW1641
0029228920999991909062220004+60717+028783FM-12+000399999V0201601N004119999999N0000001N9+01561+99999101151ADDGF107991999999999999999999
0029228920999991909062306004+60717+028783FM-12+000399999V0200901N002119999999N0000001N9+01561+99999101381ADDGF100991999999999999999999
0029228920999991909062313004+60717+028783FM-12+000399999V0200501N004119999999N0000001N9+02001+99999101441ADDGF100991999999999999999999
0029228920999991909062320004+60717+028783FM-12+000399999V0200901N002119999999N0000001N9+01391+99999101581ADDGF100991999999999999999999
0029228920999991909062406004+60717+028783FM-12+000399999V0201101N006219999999N0000001N9+01671+99999101661ADDGF100991999999999999999999
0029228920999991909062413004+60717+028783FM-12+000399999V0201401N006219999999N0000001N9+02001+99999101581ADDGF100991999999999999999999
0029228920999991909062420004+60717+028783FM-12+000399999V0200501N002119999999N0000001N9+01441+99999101481ADDGF100991999999999999999999
0029228920999991909062506004+60717+028783FM-12+000399999V0201101N004119999999N0000001N9+01721+99999101551ADDGF100991999999999999999999
0029228920999991909062513004+60717+028783FM-12+000399999V0201101N004119999999N0000001N9+02111+99999101441ADDGF100991999999999999999999
0029228920999991909062520004+60717+028783FM-12+000399999V0209991C000019999999N0000001N9+01671+99999101391ADDGF100991999999999999999999
0029228920999991909062606004+60717+028783FM-12+000399999V0209991C000019999999N0000001N9+02061+99999101391ADDGF100991999999999999999999
0029228920999991909062613004+60717+028783FM-12+000399999V0209991C000019999999N0000001N9+02501+99999101221ADDGF106991999999999999999999
0029228920999991909062620004+60717+028783FM-12+000399999V0209991C000019999999N0000001N9+02061+99999101161ADDGF102991999999999999999999
0029228920999991909062706004+60717+028783FM-12+000399999V0200501N002119999999N0000001N9+02221+99999101151ADDGF100991999999999999999999
0029228920999991909062713004+60717+028783FM-12+000399999V0200501N002119999999N0000001N9+02611+99999101061ADDGF103991999999999999999999
0029228920999991909062720004+60717+028783FM-12+000399999V0209991C000019999999N0000001N9+02111+99999100961ADDGF101991999999999999999999
0029228920999991909062806004+60717+028783FM-12+000399999V0200901N002119999999N0000001N9+02111+99999100911ADDGF102991999999999999999999
0029228920999991909062813004+60717+028783FM-12+000399999V0200901N006219999999N0000001N9+02221+99999100861ADDGF101991999999999999999999
0029228920999991909062820004+60717+028783FM-12+000399999V0209991C000019999999N0000001N9+01721+99999100881ADDGF100991999999999999999999
0029228920999991909062906004+60717+028783FM-12+000399999V0200901N004119999999N0000001N9+01671+99999100881ADDGF102991999999999999999999
0029228920999991909062913004+60717+028783FM-12+000399999V0200901N004119999999N0000001N9+02171+99999100601ADDGF100991999999999999999999
0029228920999991909062920004+60717+028783FM-12+000399999V0202301N003119999999N0000001N9+01781+99999100351ADDGF106991999999999999999999
0029228920999991909063006004+60717+028783FM-12+000399999V0203401N004119999999N0000001N9+01561+99999100281ADDGF108991999999999999999999
0029228920999991909063013004+60717+028783FM-12+000399999V0203601N004119999999N0000001N9+01831+99999100521ADDGF102991999999999999999999
0029228920999991909063020004+60717+028783FM-12+000399999V0203401N004119999999N0000001N9+01331+99999100821ADDGF102991999999999999999999
0029228920999991909070106004+60717+028783FM-12+000399999V0200201N004119999999N0000001N9+01331+99999101061ADDGF101991999999999999999999
0029228920999991909070113004+60717+028783FM-12+000399999V0203601N006219999999N0000001N9+01671+99999101121ADDGF104991999999999999999999
0029228920999991909070120004+60717+028783FM-12+000399999V0203401N002119999999N0000001N9+01331+99999101241ADDGF107991999999999999999999
0029228920999991909070206004+60717+028783FM-12+000399999V0200501N002119999999N0000001N9+01561+99999101421ADDGF101991999999999999999999
0029228920999991909070213004+60717+028783FM-12+000399999V0203401N004119999999N0000001N9+01781+99999101501ADDGF107991999999999999999999
0029228920999991909070220004+60717+028783FM-12+000399999V0209991C000019999999N0000001N9+01501+99999101551ADDGF100991999999999999999999
0029228920999991909070306004+60717+028783FM-12+000399999V0209991C000019999999N0000001N9+01721+99999101711ADDGF100991999999999999999999
0029228920999991909070313004+60717+028783FM-12+000399999V0202301N004119999999N0000001N9+02391+99999101671ADDGF103991999999999999999999
0029228920999991909070320004+60717+028783FM-12+000399999V0202701N002119999999N0000001N9+01671+99999101681ADDGF100991999999999999999999
0029228920999991909070406004+60717+028783FM-12+000399999V0202301N002119999999N0000001N9+01831+99999101861ADDGF100991999999999999999999
0029228920999991909070413004+60717+028783FM-12+000399999V0202301N004119999999N0000001N9+02171+99999101871ADDGF106991999999999999999999
0029228920999991909070420004+60717+028783FM-12+000399999V0209991C000019999999N0000001N9+01781+99999101791ADDGF100991999999999999999999
0029228920999991909070506004+60717+028783FM-12+000399999V0200901N004119999999N0000001N9+01781+99999101681ADDGF108991999999999999999999
0035228920999991909070513004+60717+028783FM-12+000399999V0201401N004119999999N0000001N9+01891+99999101551ADDGF108991999999999999999999MW1601
0029228920999991909070520004+60717+028783FM-12+000399999V0209991C000019999999N0000001N9+01781+99999101281ADDGF108991999999999999999999
0029228920999991909070606004+60717+028783FM-12+000399999V0200501N004119999999N0000001N9+01501+99999101231ADDGF108991999999999999999999
0029228920999991909070613004+60717+028783FM-12+000399999V0202301N004119999999N0000001N9+02171+99999101101ADDGF107991999999999999999999
0029228920999991909070620004+60717+028783FM-12+000399999V0209991C000019999999N0000001N9+01611+99999101071ADDGF102991999999999999999999
0029228920999991909070706004+60717+028783FM-12+000399999V0209991C000019999999N0000001N9+01891+99999101101ADDGF107991999999999999999999
0029228920999991909070713004+60717+028783FM-12+000399999V0202301N004119999999N0000001N9+02331+99999101031ADDGF104991999999999999999999
0029228920999991909070720004+60717+028783FM-12+000399999V0209991C000019999999N0000001N9+01831+99999101041ADDGF102991999999999999999999
0029228920999991909070806004+60717+028783FM-12+000399999V0200901N002119999999N0000001N9+02061+99999101101ADDGF100991999999999999999999
0029228920999991909070813004+60717+028783FM-12+000399999V0201401N004119999999N0000001N9+02611+99999100941ADDGF106991999999999999999999
0029228920999991909070820004+60717+028783FM-12+000399999V0200901N004119999999N0000001N9+02001+99999100901ADDGF106991999999999999999999
0029228920999991909070906004+60717+028783FM-12+000399999V0200901N004119999999N0000001N9+02061+99999100591ADDGF105991999999999999999999
0029228920999991909070913004+60717+028783FM-12+000399999V0200901N008219999999N0000001N9+02441+99999100151ADDGF108991999999999999999999
0035228920999991909070920004+60717+028783FM-12+000399999V0200901N004119999999N0000001N9+01781+99999099901ADDGF108991999999999999999999MW1601
0035228920999991909071006004+60717+028783FM-12+000399999V0202001N006219999999N0000001N9+01561+99999099421ADDGF108991999999999999999999MW1641
0029228920999991909071013004+60717+028783FM-12+000399999V0201401N002119999999N0000001N9+02171+99999099621ADDGF103991999999999999999999
0029228920999991909071020004+60717+028783FM-12+000399999V0200701N004119999999N0000001N9+01561+99999099621ADDGF102991999999999999999999
0029228920999991909071106004+60717+028783FM-12+000399999V0200501N006219999999N0000001N9+01501+99999099471ADDGF107991999999999999999999
0029228920999991909071113004+60717+028783FM-12+000399999V0200901N004119999999N0000001N9+02221+99999099481ADDGF106991999999999999999999
0029228920999991909071120004+60717+028783FM-12+000399999V0200501N002119999999N0000001N9+01941+99999099551ADDGF108991999999999999999999
0029228920999991909071206004+60717+028783FM-12+000399999V0200501N002119999999N0000001N9+02061+99999099621ADDGF100991999999999999999999
0029228920999991909071213004+60717+028783FM-12+000399999V0203201N004119999999N0000001N9+02061+99999099721ADDGF108991999999999999999999
0029228920999991909071220004+60717+028783FM-12+000399999V0209991C000019999999N0000001N9+01941+99999099781ADDGF106991999999999999999999
0029228920999991909071306004+60717+028783FM-12+000399999V0209991C000019999999N0000001N9+01941+99999099751ADDGF108991999999999999999999
0029228920999991909071313004+60717+028783FM-12+000399999V0202301N006219999999N0000001N9+02061+99999099681ADDGF108991999999999999999999
0035228920999991909071320004+60717+028783FM-12+000399999V0209991C000019999999N0000001N9+01781+99999099581ADDGF108991999999999999999999MW1621
0029228920999991909071406004+60717+028783FM-12+000399999V0209991C000019999999N0000001N9+02061+99999099601ADDGF106991999999999999999999
0035228920999991909071413004+60717+028783FM-12+000399999V0202301N004119999999N0000001N9+02171+99999099641ADDGF107991999999999999999999MW1621
0029228920999991909071420004+60717+028783FM-12+000399999V0202701N002119999999N0000001N9+01781+99999099681ADDGF105991999999999999999999
0029228920999991909071506004+60717+028783FM-12+000399999V0202701N004119999999N0000001N9+02001+99999099751ADDGF102991999999999999999999
0029228920999991909071513004+60717+028783FM-12+000399999V0202901N006219999999N0000001N9+02331+99999099761ADDGF105991999999999999999999
0029228920999991909071520004+60717+028783FM-12+000399999V0209991C000019999999N0000001N9+01941+99999099861ADDGF106991999999999999999999
0029228920999991909071606004+60717+028783FM-12+000399999V0202701N002119999999N0000001N9+01941+99999099991ADDGF100991999999999999999999
0029228920999991909071613004+60717+028783FM-12+000399999V0202701N006219999999N0000001N9+02331+99999100241ADDGF106991999999999999999999
0029228920999991909071620004+60717+028783FM-12+000399999V0202701N006219999999N0000001N9+01671+99999100391ADDGF106991999999999999999999
0029228920999991909071706004+60717+028783FM-12+000399999V0202301N006219999999N0000001N9+01831+99999100541ADDGF106991999999999999999999
0029228920999991909071713004+60717+028783FM-12+000399999V0202301N008219999999N0000001N9+02001+99999100511ADDGF102991999999999999999999
0029228920999991909071720004+60717+028783FM-12+000399999V0201601N002119999999N0000001N9+01561+99999100301ADDGF100991999999999999999999
0029228920999991909071806004+60717+028783FM-12+000399999V0202701N008219999999N0000001N9+01721+99999099501ADDGF106991999999999999999999
0029228920999991909071813004+60717+028783FM-12+000399999V0202501N013919999999N0000001N9+01781+99999099961ADDGF102991999999999999999999
0029228920999991909071820004+60717+028783FM-12+000399999V0202501N011819999999N0000001N9+01501+99999100221ADDGF101991999999999999999999
0029228920999991909071906004+60717+028783FM-12+000399999V0202701N004119999999N0000001N9+01611+99999099901ADDGF105991999999999999999999
0029228920999991909071913004+60717+028783FM-12+000399999V0202701N006219999999N0000001N9+01781+99999099791ADDGF106991999999999999999999
0029228920999991909071920004+60717+028783FM-12+000399999V0202501N004119999999N0000001N9+01391+99999099681ADDGF100991999999999999999999
0029228920999991909072006004+60717+028783FM-12+000399999V0202301N006219999999N0000001N9+01501+99999099441ADDGF108991999999999999999999
0029228920999991909072013004+60717+028783FM-12+000399999V0202301N011819999999N0000001N9+01611+99999099301ADDGF108991999999999999999999
0029228920999991909072020004+60717+028783FM-12+000399999V0202501N006219999999N0000001N9+01171+99999099261ADDGF108991999999999999999999
0029228920999991909072106004+60717+028783FM-12+000399999V0202501N002119999999N0000001N9+01501+99999099201ADDGF108991999999999999999999
0035228920999991909072113004+60717+028783FM-12+000399999V0202701N004119999999N0000001N9+01561+99999099341ADDGF108991999999999999999999MW1621
0029228920999991909072120004+60717+028783FM-12+000399999V0202701N004119999999N0000001N9+01221+99999099481ADDGF101991999999999999999999
0029228920999991909072206004+60717+028783FM-12+000399999V0202701N002119999999N0000001N9+01561+99999099641ADDGF108991999999999999999999
0029228920999991909072213004+60717+028783FM-12+000399999V0202301N004119999999N0000001N9+01831+99999099641ADDGF106991999999999999999999
0029228920999991909072220004+60717+028783FM-12+000399999V0209991C000019999999N0000001N9+01331+99999099681ADDGF106991999999999999999999
0029228920999991909072306004+60717+028783FM-12+000399999V0202301N002119999999N0000001N9+01441+99999099741ADDGF100991999999999999999999
0035228920999991909072313004+60717+028783FM-12+000399999V0202701N002119999999N0000001N9+01501+99999099911ADDGF108991999999999999999999MW1621
0029228920999991909072320004+60717+028783FM-12+000399999V0202501N004119999999N0000001N9+01501+99999100101ADDGF106991999999999999999999
0029228920999991909072406004+60717+028783FM-12+000399999V0202301N004119999999N0000001N9+01721+99999100221ADDGF107991999999999999999999
0029228920999991909072413004+60717+028783FM-12+000399999V0202001N008219999999N0000001N9+01941+99999100241ADDGF106991999999999999999999
0029228920999991909072420004+60717+028783FM-12+000399999V0202301N006219999999N0000001N9+01331+99999100401ADDGF101991999999999999999999
0029228920999991909072506004+60717+028783FM-12+000399999V0209991C000019999999N0000001N9+01671+99999099941ADDGF108991999999999999999999
0029228920999991909072513004+60717+028783FM-12+000399999V0202301N009819999999N0000001N9+01671+99999099921ADDGF107991999999999999999999
0029228920999991909072520004+60717+028783FM-12+000399999V0202701N006219999999N0000001N9+01221+99999100141ADDGF107991999999999999999999
0029228920999991909072606004+60717+028783FM-12+000399999V0202701N004119999999N0000001N9+01441+99999100561ADDGF100991999999999999999999
0029228920999991909072613004+60717+028783FM-12+000399999V0202301N006219999999N0000001N9+01831+99999100801ADDGF101991999999999999999999
0029228920999991909072620004+60717+028783FM-12+000399999V0209991C000019999999N0000001N9+01391+99999100841ADDGF101991999999999999999999
0035228920999991909072706004+60717+028783FM-12+000399999V0201801N004119999999N0000001N9+01391+99999100341ADDGF108991999999999999999999MW1621
0029228920999991909072713004+60717+028783FM-12+000399999V0202301N008219999999N0000001N9+01831+99999100461ADDGF106991999999999999999999
0029228920999991909072720004+60717+028783FM-12+000399999V0209991C000019999999N0000001N9+01441+99999100271ADDGF102991999999999999999999
0029228920999991909072806004+60717+028783FM-12+000399999V0202701N002119999999N0000001N9+01561+99999100061ADDGF108991999999999999999999
0029228920999991909072813004+60717+028783FM-12+000399999V0202301N006219999999N0000001N9+01781+99999100041ADDGF108991999999999999999999
0029228920999991909072820004+60717+028783FM-12+000399999V0202301N004119999999N0000001N9+01331+99999100181ADDGF100991999999999999999999
0029228920999991909072906004+60717+028783FM-12+000399999V0202701N002119999999N0000001N9+01561+99999100281ADDGF108991999999999999999999
0029228920999991909072913004+60717+028783FM-12+000399999V0202001N004119999999N0000001N9+01891+99999100191ADDGF102991999999999999999999
0029228920999991909072920004+60717+028783FM-12+000399999V0209991C000019999999N0000001N9+01391+99999099871ADDGF100991999999999999999999
0029228920999991909073006004+60717+028783FM-12+000399999V0200901N006219999999N0000001N9+01441+99999099271ADDGF108991999999999999999999
0029228920999991909073013004+60717+028783FM-12+000399999V0200901N004119999999N0000001N9+01501+99999099181ADDGF108991999999999999999999
0029228920999991909073020004+60717+028783FM-12+000399999V0200901N002119999999N0000001N9+01331+99999099151ADDGF108991999999999999999999
0029228920999991909073106004+60717+028783FM-12+000399999V0209991C000019999999N0000001N9+01391+99999099161ADDGF108991999999999999999999
0029228920999991909073113004+60717+028783FM-12+000399999V0202301N004119999999N0000001N9+01831+99999099391ADDGF108991999999999999999999
0029228920999991909073120004+60717+028783FM-12+000399999V0201401N004119999999N0000001N9+01391+99999099561ADDGF108991999999999999999999
0035228920999991909080106004+60717+028783FM-12+000399999V0209991C000019999999N0000001N9+01331+99999099581ADDGF108991999999999999999999MW1621
0029228920999991909080113004+60717+028783FM-12+000399999V0203601N002119999999N0000001N9+01671+99999099641ADDGF108991999999999999999999
0035228920999991909080120004+60717+028783FM-12+000399999V0209991C000019999999N0000001N9+01441+99999099841ADDGF108991999999999999999999MW1621
0029228920999991909080206004+60717+028783FM-12+000399999V0203601N002119999999N0000001N9+01441+99999099901ADDGF108991999999999999999999
0029228920999991909080213004+60717+028783FM-12+000399999V0203401N002119999999N0000001N9+01891+99999100151ADDGF106991999999999999999999
0029228920999991909080220004+60717+028783FM-12+000399999V0209991C000019999999N0000001N9+01611+99999100561ADDGF104991999999999999999999
0029228920999991909080306004+60717+028783FM-12+000399999V0209991C000019999999N0000001N9+01721+99999100921ADDGF100991999999999999999999
0029228920999991909080313004+60717+028783FM-12+000399999V0202501N002119999999N0000001N9+02441+99999101121ADDGF104991999999999999999999
0029228920999991909080320004+60717+028783FM-12+000399999V0209991C000019999999N0000001N9+01671+99999101271ADDGF101991999999999999999999
0029228920999991909080406004+60717+028783FM-12+000399999V0202001N002119999999N0000001N9+01671+99999101381ADDGF108991999999999999999999
0029228920999991909080413004+60717+028783FM-12+000399999V0202301N004119999999N0000001N9+02281+99999101431ADDGF105991999999999999999999
0029228920999991909080420004+60717+028783FM-12+000399999V0209991C000019999999N0000001N9+01671+99999101501ADDGF102991999999999999999999
0029228920999991909080506004+60717+028783FM-12+000399999V0202701N002119999999N0000001N9+01781+99999101661ADDGF107991999999999999999999
0029228920999991909080513004+60717+028783FM-12+000399999V0202501N006219999999N0000001N9+02001+99999101551ADDGF108991999999999999999999
0029228920999991909080520004+60717+028783FM-12+000399999V0202701N004119999999N0000001N9+01501+99999101461ADDGF108991999999999999999999
0029228920999991909080606004+60717+028783FM-12+000399999V0202701N002119999999N0000001N9+01501+99999101561ADDGF100991999999999999999999
0029228920999991909080613004+60717+028783FM-12+000399999V0202301N008219999999N0000001N9+01941+99999101321ADDGF104991999999999999999999
0029228920999991909080620004+60717+028783FM-12+000399999V0202901N004119999999N0000001N9+01561+99999101261ADDGF100991999999999999999999
0029228920999991909080706004+60717+028783FM-12+000399999V0203201N002119999999N0000001N9+01441+99999101341ADDGF100991999999999999999999
0029228920999991909080713004+60717+028783FM-12+000399999V0202301N008219999999N0000001N9+01941+99999101181ADDGF102991999999999999999999
0029228920999991909080720004+60717+028783FM-12+000399999V0202701N002119999999N0000001N9+01561+99999100901ADDGF108991999999999999999999
0029228920999991909080806004+60717+028783FM-12+000399999V0202301N006219999999N0000001N9+01781+99999100341ADDGF106991999999999999999999
0035228920999991909080813004+60717+028783FM-12+000399999V0202501N004119999999N0000001N9+01561+99999999999ADDGF108991999999999999999999MW1621
0029228920999991909080820004+60717+028783FM-12+000399999V0202901N004119999999N0000001N9+01281+99999100281ADDGF100991999999999999999999
0029228920999991909080906004+60717+028783FM-12+000399999V0202701N006219999999N0000001N9+01171+99999100561ADDGF100991999999999999999999
0029228920999991909080913004+60717+028783FM-12+000399999V0203401N008219999999N0000001N9+01671+99999100601ADDGF105991999999999999999999
0029228920999991909080920004+60717+028783FM-12+000399999V0202701N004119999999N0000001N9+01221+99999100601ADDGF100991999999999999999999
0035228920999991909081006004+60717+028783FM-12+000399999V0209991C000019999999N0000001N9+01171+99999100221ADDGF108991999999999999999999MW1621
0035228920999991909081013004+60717+028783FM-12+000399999V0203201N002119999999N0000001N9+01611+99999099781ADDGF108991999999999999999999MW1621
0029228920999991909081020004+60717+028783FM-12+000399999V0202901N004119999999N0000001N9+01171+99999099841ADDGF105991999999999999999999
0029228920999991909081106004+60717+028783FM-12+000399999V0203201N004119999999N0000001N9+01111+99999100301ADDGF100991999999999999999999
0035228920999991909081113004+60717+028783FM-12+000399999V0203401N004119999999N0000001N9+01561+99999100261ADDGF108991999999999999999999MW1621
0029228920999991909081120004+60717+028783FM-12+000399999V0209991C000019999999N0000001N9+01061+99999100071ADDGF102991999999999999999999
0029228920999991909081206004+60717+028783FM-12+000399999V0203401N002119999999N0000001N9+01171+99999099761ADDGF100991999999999999999999
0029228920999991909081213004+60717+028783FM-12+000399999V0203201N008219999999N0000001N9+01501+99999099871ADDGF108991999999999999999999
0029228920999991909081220004+60717+028783FM-12+000399999V0203201N002119999999N0000001N9+01171+99999100081ADDGF108991999999999999999999
0029228920999991909081306004+60717+028783FM-12+000399999V0209991C000019999999N0000001N9+01441+99999100021ADDGF100991999999999999999999
0029228920999991909081313004+60717+028783FM-12+000399999V0201401N004119999999N0000001N9+01671+99999099501ADDGF108991999999999999999999
0035228920999991909081320004+60717+028783FM-12+000399999V0209991C000019999999N0000001N9+01281+99999098671ADDGF108991999999999999999999MW1641
0029228920999991909081406004+60717+028783FM-12+000399999V0202301N002119999999N0000001N9+01331+99999098581ADDGF103991999999999999999999
0029228920999991909081413004+60717+028783FM-12+000399999V0202301N006219999999N0000001N9+01721+99999098831ADDGF104991999999999999999999
0029228920999991909081420004+60717+028783FM-12+000399999V0209991C000019999999N0000001N9+01061+99999099001ADDGF101991999999999999999999
0029228920999991909081506004+60717+028783FM-12+000399999V0209991C000019999999N0000001N9+01171+99999099221ADDGF104991999999999999999999
0035228920999991909081513004+60717+028783FM-12+000399999V0209991C000019999999N0000001N9+01331+99999099501ADDGF108991999999999999999999MW1621
0035228920999991909081520004+60717+028783FM-12+000399999V0209991C000019999999N0000001N9+01111+99999099711ADDGF108991999999999999999999MW1641
0029228920999991909081606004+60717+028783FM-12+000399999V0209991C000019999999N0000001N9+01111+99999099801ADDGF108991999999999999999999
0035228920999991909081613004+60717+028783FM-12+000399999V0202301N002119999999N0000001N9+01501+99999099981ADDGF108991999999999999999999MW1621
0035228920999991909081620004+60717+028783FM-12+000399999V0209991C000019999999N0000001N9+01171+99999100101ADDGF108991999999999999999999MW1641
0029228920999991909081706004+60717+028783FM-12+000399999V0209991C000019999999N0000001N9+01221+99999100511ADDGF107991999999999999999999
0029228920999991909081713004+60717+028783FM-12+000399999V0203401N004119999999N0000001N9+01561+99999101001ADDGF108991999999999999999999
0029228920999991909081720004+60717+028783FM-12+000399999V0209991C000019999999N0000001N9+01171+99999101191ADDGF102991999999999999999999
0029228920999991909081806004+60717+028783FM-12+000399999V0209991C000019999999N0000001N9+01501+99999101561ADDGF102991999999999999999999
0029228920999991909081813004+60717+028783FM-12+000399999V0209991C000019999999N0000001N9+02111+99999101761ADDGF108991999999999999999999
0029228920999991909081820004+60717+028783FM-12+000399999V0209991C000019999999N0000001N9+01331+99999101921ADDGF101991999999999999999999
0029228920999991909081906004+60717+028783FM-12+000399999V0201401N004119999999N0000001N9+01441+99999102041ADDGF100991999999999999999999
0029228920999991909081913004+60717+028783FM-12+000399999V0201401N002119999999N0000001N9+02061+99999101921ADDGF104991999999999999999999
0029228920999991909081920004+60717+028783FM-12+000399999V0209991C000019999999N0000001N9+01561+99999101721ADDGF100991999999999999999999
0029228920999991909082006004+60717+028783FM-12+000399999V0201401N002119999999N0000001N9+01561+99999101191ADDGF107991999999999999999999
0029228920999991909082013004+60717+028783FM-12+000399999V0201601N004119999999N0000001N9+01781+99999101201ADDGF108991999999999999999999
0035228920999991909082020004+60717+028783FM-12+000399999V0201401N004119999999N0000001N9+01781+99999101241ADDGF108991999999999999999999MW1621
0029228920999991909082106004+60717+028783FM-12+000399999V0201401N002119999999N0000001N9+01941+99999101301ADDGF108991999999999999999999
0029228920999991909082113004+60717+028783FM-12+000399999V0202301N004119999999N0000001N9+01781+99999101401ADDGF107991999999999999999999
0029228920999991909082120004+60717+028783FM-12+000399999V0202001N002119999999N0000001N9+01441+99999101421ADDGF108991999999999999999999
0029228920999991909082206004+60717+028783FM-12+000399999V0209991C000019999999N0000001N9+01441+99999101501ADDGF103991999999999999999999
0029228920999991909082213004+60717+028783FM-12+000399999V0209991C000019999999N0000001N9+01941+99999101631ADDGF108991999999999999999999
0029228920999991909082220004+60717+028783FM-12+000399999V0209991C000019999999N0000001N9+01171+99999101741ADDGF100991999999999999999999
0029228920999991909082306004+60717+028783FM-12+000399999V0200901N002119999999N0000001N9+01171+99999101781ADDGF108991999999999999999999
0029228920999991909082313004+60717+028783FM-12+000399999V0200901N004119999999N0000001N9+02061+99999101591ADDGF105991999999999999999999
0029228920999991909082320004+60717+028783FM-12+000399999V0200901N002119999999N0000001N9+01501+99999101431ADDGF100991999999999999999999
0035228920999991909082406004+60717+028783FM-12+000399999V0201401N002119999999N0000001N9+01441+99999101161ADDGF108991999999999999999999MW1621
0029228920999991909082413004+60717+028783FM-12+000399999V0202901N002119999999N0000001N9+01561+99999101501ADDGF108991999999999999999999
0029228920999991909082420004+60717+028783FM-12+000399999V0209991C000019999999N0000001N9+01391+99999101551ADDGF100991999999999999999999
0029228920999991909082506004+60717+028783FM-12+000399999V0209991C000019999999N0000001N9+01281+99999101921ADDGF107991999999999999999999
0029228920999991909082513004+60717+028783FM-12+000399999V0202301N002119999999N0000001N9+01891+99999101961ADDGF105991999999999999999999
0029228920999991909082520004+60717+028783FM-12+000399999V0209991C000019999999N0000001N9+01111+99999101941ADDGF100991999999999999999999
0029228920999991909082606004+60717+028783FM-12+000399999V0209991C000019999999N0000001N9+00941+99999102061ADDGF100991999999999999999999
0029228920999991909082613004+60717+028783FM-12+000399999V0209991C000019999999N0000001N9+01891+99999101951ADDGF105991999999999999999999
0029228920999991909082620004+60717+028783FM-12+000399999V0209991C000019999999N0000001N9+01501+99999101911ADDGF108991999999999999999999
0029228920999991909082706004+60717+028783FM-12+000399999V0209991C000019999999N0000001N9+01611+99999101821ADDGF100991999999999999999999
0029228920999991909082713004+60717+028783FM-12+000399999V0201801N004119999999N0000001N9+02221+99999101591ADDGF108991999999999999999999
0029228920999991909082720004+60717+028783FM-12+000399999V0209991C000019999999N0000001N9+01721+99999101401ADDGF101991999999999999999999
0029228920999991909082806004+60717+028783FM-12+000399999V0202701N004119999999N0000001N9+01441+99999101511ADDGF108991999999999999999999
0029228920999991909082813004+60717+028783FM-12+000399999V0202301N004119999999N0000001N9+01721+99999101551ADDGF108991999999999999999999
0029228920999991909082820004+60717+028783FM-12+000399999V0209991C000019999999N0000001N9+01331+99999101321ADDGF106991999999999999999999
0029228920999991909082906004+60717+028783FM-12+000399999V0202701N002119999999N0000001N9+01331+99999101101ADDGF108991999999999999999999
0029228920999991909082913004+60717+028783FM-12+000399999V0202501N008219999999N0000001N9+01831+99999100981ADDGF108991999999999999999999
0029228920999991909082920004+60717+028783FM-12+000399999V0202501N004119999999N0000001N9+01391+99999101141ADDGF102991999999999999999999
0029228920999991909083006004+60717+028783FM-12+000399999V0202301N004119999999N0000001N9+01441+99999101151ADDGF108991999999999999999999
0029228920999991909083013004+60717+028783FM-12+000399999V0202501N004119999999N0000001N9+01781+99999101081ADDGF104991999999999999999999
0029228920999991909083020004+60717+028783FM-12+000399999V0209991C000019999999N0000001N9+01331+99999100911ADDGF106991999999999999999999
0029228920999991909083106004+60717+028783FM-12+000399999V0201401N002119999999N0000001N9+01561+99999100361ADDGF100991999999999999999999
0029228920999991909083113004+60717+028783FM-12+000399999V0201601N006219999999N0000001N9+02441+99999099961ADDGF100991999999999999999999
0029228920999991909083120004+60717+028783FM-12+000399999V0201401N006219999999N0000001N9+02001+99999099701ADDGF102991999999999999999999
0029228920999991909090106004+60717+028783FM-12+000399999V0201401N002119999999N0000001N9+01501+99999099621ADDGF108991999999999999999999
0029228920999991909090113004+60717+028783FM-12+000399999V0202301N008219999999N0000001N9+01831+99999099861ADDGF107991999999999999999999
0029228920999991909090120004+60717+028783FM-12+000399999V0202301N006219999999N0000001N9+01501+99999100061ADDGF108991999999999999999999
0029228920999991909090206004+60717+028783FM-12+000399999V0209991C000019999999N0000001N9+01221+99999100381ADDGF108991999999999999999999
0029228920999991909090213004+60717+028783FM-12+000399999V0202301N008219999999N0000001N9+01721+99999100391ADDGF107991999999999999999999
0029228920999991909090220004+60717+028783FM-12+000399999V0201401N004119999999N0000001N9+01111+99999100471ADDGF107991999999999999999999
0029228920999991909090306004+60717+028783FM-12+000399999V0202301N013919999999N0000001N9+01221+99999100201ADDGF108991999999999999999999
