0029228920999991908010106004+60717+028783FM-12+000399999V0202701N001019999999N0000001N9-02001+99999103021ADDGF108991999999999999999999
0029228920999991908010113004+60717+028783FM-12+000399999V0209991C000019999999N0000001N9-01891+99999103021ADDGF108991999999999999999999
0029228920999991908010120004+60717+028783FM-12+000399999V0209991C000019999999N0000001N9-01721+99999102961ADDGF108991999999999999999999
0029228920999991908010206004+60717+028783FM-12+000399999V0202301N006719999999N0000001N9-01111+99999102081ADDGF108991999999999999999999
0029228920999991908010213004+60717+028783FM-12+000399999V0202301N012319999999N0000001N9-00891+99999101441ADDGF108991999999999999999999
0029228920999991908010220004+60717+028783FM-12+000399999V0203401N002619999999N0000001N9-00781+99999101861ADDGF107991999999999999999999
0029228920999991908010306004+60717+028783FM-12+000399999V0209991C000019999999N0000001N9-02331+99999101241ADDGF100991999999999999999999
0029228920999991908010313004+60717+028783FM-12+000399999V0201401N002619999999N0000001N9-01721+99999099951ADDGF108991999999999999999999
0035228920999991908010320004+60717+028783FM-12+000399999V0201401N002619999999N0000001N9-00941+99999099301ADDGF108991999999999999999999MW1721
0029228920999991908010406004+60717+028783FM-12+000399999V0203601N015419999999N0000001N9-01171+99999099621ADDGF108991999999999999999999
0029228920999991908010413004+60717+028783FM-12+000399999V0203601N004619999999N0000001N9-01781+99999100511ADDGF100991999999999999999999
0029228920999991908010420004+60717+028783FM-12+000399999V0209991C000019999999N0000001N9-02331+99999101181ADDGF100991999999999999999999
0029228920999991908010506004+60717+028783FM-12+000399999V0200701N001019999999N0000001N9-02281+99999101741ADDGF100991999999999999999999
0029228920999991908010513004+60717+028783FM-12+000399999V0201401N002619999999N0000001N9-02001+99999101841ADDGF108991999999999999999999
0029228920999991908010520004+60717+028783FM-12+000399999V0201401N002619999999N0000001N9-01611+99999101261ADDGF108991999999999999999999
0035228920999991908010606004+60717+028783FM-12+000399999V0201801N002619999999N0000001N9-01221+99999099621ADDGF108991999999999999999999MW1721
0035228920999991908010613004+60717+028783FM-12+000399999V0202301N002619999999N0000001N9-00611+99999099351ADDGF103991999999999999999999MW1721
0035228920999991908010620004+60717+028783FM-12+000399999V0209991C000019999999N0000001N9-01111+99999099081ADDGF100991999999999999999999MW1721
0029228920999991908010706004+60717+028783FM-12+000399999V0203601N001019999999N0000001N9-02061+99999098951ADDGF100991999999999999999999
0029228920999991908010713004+60717+028783FM-12+000399999V0203201N004619999999N0000001N9-01781+99999099221ADDGF107991999999999999999999
0029228920999991908010720004+60717+028783FM-12+000399999V0203201N002619999999N0000001N9-01671+99999099641ADDGF104991999999999999999999
0029228920999991908010806004+60717+028783FM-12+000399999V0203201N004619999999N0000001N9-01391+99999100271ADDGF100991999999999999999999
0029228920999991908010813004+60717+028783FM-12+000399999V0203201N004619999999N0000001N9-01391+99999100821ADDGF100991999999999999999999
0029228920999991908010820004+60717+028783FM-12+000399999V0203201N002619999999N0000001N9-01611+99999101301ADDGF100991999999999999999999
0029228920999991908010906004+60717+028783FM-12+000399999V0200201N001019999999N0000001N9-02281+99999101671ADDGF108991999999999999999999
0029228920999991908010913004+60717+028783FM-12+000399999V0200501N002619999999N0000001N9-01941+99999101661ADDGF108991999999999999999999
0029228920999991908010920004+60717+028783FM-12+000399999V0200701N002619999999N0000001N9-02001+99999101561ADDGF100991999999999999999999
0029228920999991908011006004+60717+028783FM-12+000399999V0200701N004619999999N0000001N9-01781+99999101221ADDGF108991999999999999999999
0029228920999991908011013004+60717+028783FM-12+000399999V0200701N004619999999N0000001N9-01781+99999101161ADDGF100991999999999999999999
0029228920999991908011020004+60717+028783FM-12+000399999V0200201N001019999999N0000001N9-02331+99999101121ADDGF100991999999999999999999
0029228920999991908011106004+60717+028783FM-12+000399999V0209991C000019999999N0000001N9-02891+99999101141ADDGF100991999999999999999999
0029228920999991908011113004+60717+028783FM-12+000399999V0201101N001019999999N0000001N9-02281+99999100871ADDGF108991999999999999999999
0035228920999991908011120004+60717+028783FM-12+000399999V0201401N001019999999N0000001N9-01441+99999100201ADDGF108991999999999999999999MW1721
0029228920999991908011206004+60717+028783FM-12+000399999V0201101N001019999999N0000001N9-01611+99999100141ADDGF101991999999999999999999
0029228920999991908011213004+60717+028783FM-12+000399999V0200701N002619999999N0000001N9-01501+99999100671ADDGF108991999999999999999999
0029228920999991908011220004+60717+028783FM-12+000399999V0209991C000019999999N0000001N9-01441+99999101181ADDGF108991999999999999999999
0029228920999991908011306004+60717+028783FM-12+000399999V0202001N001019999999N0000001N9-01001+99999100881ADDGF108991999999999999999999
0029228920999991908011313004+60717+028783FM-12+000399999V0202301N001019999999N0000001N9-00671+99999101121ADDGF100991999999999999999999
0029228920999991908011320004+60717+028783FM-12+000399999V0202901N004619999999N0000001N9-00171+99999101581ADDGF100991999999999999999999
0029228920999991908011406004+60717+028783FM-12+000399999V0209991C000019999999N0000001N9-01061+99999101991ADDGF100991999999999999999999
0029228920999991908011413004+60717+028783FM-12+000399999V0209991C000019999999N0000001N9-00671+99999102111ADDGF107991999999999999999999
0029228920999991908011420004+60717+028783FM-12+000399999V0209991C000019999999N0000001N9-00891+99999102151ADDGF100991999999999999999999
0029228920999991908011506004+60717+028783FM-12+000399999V0202001N004619999999N0000001N9-00391+99999101791ADDGF108991999999999999999999
0029228920999991908011513004+60717+028783FM-12+000399999V0202501N012319999999N0000001N9-00331+99999101601ADDGF108991999999999999999999
0029228920999991908011520004+60717+028783FM-12+000399999V0202501N004619999999N0000001N9-00331+99999101461ADDGF108991999999999999999999
0029228920999991908011606004+60717+028783FM-12+000399999V0202301N004619999999N0000001N9-00221+99999101261ADDGF108991999999999999999999
0029228920999991908011613004+60717+028783FM-12+000399999V0202301N012319999999N0000001N9-00171+99999100881ADDGF108991999999999999999999
0035228920999991908011620004+60717+028783FM-12+000399999V0202301N015419999999N0000001N9+00061+99999099981ADDGF108991999999999999999999MW1621
0035228920999991908011706004+60717+028783FM-12+000399999V0202301N009319999999N0000001N9+00111+99999099041ADDGF108991999999999999999999MW1601
0035228920999991908011713004+60717+028783FM-12+000399999V0202701N002619999999N0000001N9+00221+99999099361ADDGF108991999999999999999999MW1601
0035228920999991908011720004+60717+028783FM-12+000399999V0202501N002619999999N0000001N9+00221+99999099841ADDGF108991999999999999999999MW1601
0029228920999991908011806004+60717+028783FM-12+000399999V0202001N002619999999N0000001N9-00171+99999099881ADDGF108991999999999999999999
0035228920999991908011813004+60717+028783FM-12+000399999V0202301N015419999999N0000001N9+00171+99999098791ADDGF108991999999999999999999MW1621
0029228920999991908011820004+60717+028783FM-12+000399999V0202301N009319999999N0000001N9+00171+99999098641ADDGF106991999999999999999999
0029228920999991908011906004+60717+028783FM-12+000399999V0202701N015419999999N0000001N9-00061+99999098781ADDGF107991999999999999999999
0029228920999991908011913004+60717+028783FM-12+000399999V0203201N015419999999N0000001N9-00111+99999099301ADDGF108991999999999999999999
0029228920999991908011920004+60717+028783FM-12+000399999V0203401N012319999999N0000001N9-00331+99999100501ADDGF100991999999999999999999
0029228920999991908012006004+60717+028783FM-12+000399999V0209991C000019999999N0000001N9-00781+99999101061ADDGF103991999999999999999999
0035228920999991908012013004+60717+028783FM-12+000399999V0201801N002619999999N0000001N9-00281+99999100861ADDGF108991999999999999999999MW1721
0029228920999991908012020004+60717+028783FM-12+000399999V0202001N006719999999N0000001N9-00111+99999100361ADDGF108991999999999999999999
0035228920999991908012106004+60717+028783FM-12+000399999V0202501N002619999999N0000001N9-00171+99999100151ADDGF108991999999999999999999MW1721
0029228920999991908012113004+60717+028783FM-12+000399999V0203201N006719999999N0000001N9-00061+99999100561ADDGF100991999999999999999999
0029228920999991908012120004+60717+028783FM-12+000399999V0202301N012319999999N0000001N9-00221+99999100141ADDGF108991999999999999999999
0029228920999991908012206004+60717+028783FM-12+000399999V0203201N015419999999N0000001N9+00171+99999099151ADDGF108991999999999999999999
0029228920999991908012213004+60717+028783FM-12+000399999V0203401N015419999999N0000001N9-00061+99999100361ADDGF108991999999999999999999
0029228920999991908012220004+60717+028783FM-12+000399999V0203601N006719999999N0000001N9-00221+99999101991ADDGF107991999999999999999999
0029228920999991908012306004+60717+028783FM-12+000399999V0202501N015419999999N0000001N9-00561+99999102721ADDGF108991999999999999999999
0029228920999991908012313004+60717+028783FM-12+000399999V0202001N006719999999N0000001N9-00221+99999102551ADDGF108991999999999999999999
0029228920999991908012320004+60717+028783FM-12+000399999V0202301N015419999999N0000001N9-00171+99999101941ADDGF108991999999999999999999
0029228920999991908012406004+60717+028783FM-12+000399999V0202301N006719999999N0000001N9-00111+99999101511ADDGF102991999999999999999999
0029228920999991908012413004+60717+028783FM-12+000399999V0202301N004619999999N0000001N9-00061+99999101201ADDGF101991999999999999999999
0029228920999991908012420004+60717+028783FM-12+000399999V0202701N004619999999N0000001N9+00001+99999101191ADDGF108991999999999999999999
0029228920999991908012506004+60717+028783FM-12+000399999V0202901N002619999999N0000001N9-00501+99999101991ADDGF100991999999999999999999
0029228920999991908012513004+60717+028783FM-12+000399999V0202301N002619999999N0000001N9-00281+99999102141ADDGF100991999999999999999999
0029228920999991908012520004+60717+028783FM-12+000399999V0202001N002619999999N0000001N9-00561+99999101951ADDGF100991999999999999999999
0029228920999991908012606004+60717+028783FM-12+000399999V0202001N004619999999N0000001N9-00331+99999101321ADDGF108991999999999999999999
0029228920999991908012613004+60717+028783FM-12+000399999V0202001N006719999999N0000001N9-00331+99999100711ADDGF108991999999999999999999
0035228920999991908012620004+60717+028783FM-12+000399999V0201801N006719999999N0000001N9-00281+99999099911ADDGF108991999999999999999999MW1721
0029228920999991908012706004+60717+028783FM-12+000399999V0201601N002619999999N0000001N9-00111+99999099581ADDGF108991999999999999999999
0029228920999991908012713004+60717+028783FM-12+000399999V0201601N004619999999N0000001N9-00111+99999099301ADDGF108991999999999999999999
0035228920999991908012720004+60717+028783FM-12+000399999V0201401N002619999999N0000001N9-00331+99999098861ADDGF108991999999999999999999MW1721
0029228920999991908012806004+60717+028783FM-12+000399999V0201401N002619999999N0000001N9-00501+99999098241ADDGF108991999999999999999999
0035228920999991908012813004+60717+028783FM-12+000399999V0201401N004619999999N0000001N9-00441+99999097871ADDGF108991999999999999999999MW1721
0035228920999991908012820004+60717+028783FM-12+000399999V0201401N009319999999N0000001N9-00281+99999097551ADDGF108991999999999999999999MW1721
0035228920999991908012906004+60717+028783FM-12+000399999V0201401N002619999999N0000001N9+00001+99999097471ADDGF108991999999999999999999MW1721
0035228920999991908012913004+60717+028783FM-12+000399999V0201601N006719999999N0000001N9+00061+99999097801ADDGF108991999999999999999999MW1721
0035228920999991908012920004+60717+028783FM-12+000399999V0201601N004619999999N0000001N9-00061+99999098021ADDGF108991999999999999999999MW1721
0029228920999991908013006004+60717+028783FM-12+000399999V0202001N002619999999N0000001N9-00111+99999098471ADDGF108991999999999999999999
0029228920999991908013013004+60717+028783FM-12+000399999V0209991C000019999999N0000001N9-00061+99999098741ADDGF108991999999999999999999
0029228920999991908013020004+60717+028783FM-12+000399999V0202901N004619999999N0000001N9-00671+99999099081ADDGF108991999999999999999999
0029228920999991908013106004+60717+028783FM-12+000399999V0202501N004619999999N0000001N9-00831+99999099391ADDGF106991999999999999999999
0029228920999991908013113004+60717+028783FM-12+000399999V0201601N002619999999N0000001N9-00441+99999099321ADDGF108991999999999999999999
0035228920999991908013120004+60717+028783FM-12+000399999V0201401N009319999999N0000001N9-00281+99999098981ADDGF108991999999999999999999MW1721
0035228920999991908020106004+60717+028783FM-12+000399999V0201401N004619999999N0000001N9+00001+99999099201ADDGF108991999999999999999999MW1721
0035228920999991908020113004+60717+028783FM-12+000399999V0201401N002619999999N0000001N9+00111+99999099511ADDGF108991999999999999999999MW1721
0029228920999991908020120004+60717+028783FM-12+000399999V0201401N001019999999N0000001N9-00171+99999099901ADDGF108991999999999999999999
0029228920999991908020206004+60717+028783FM-12+000399999V0209991C000019999999N0000001N9-00391+99999100461ADDGF108991999999999999999999
0029228920999991908020213004+60717+028783FM-12+000399999V0209991C000019999999N0000001N9-00171+99999101021ADDGF108991999999999999999999
0029228920999991908020220004+60717+028783FM-12+000399999V0209991C000019999999N0000001N9-00281+99999101501ADDGF108991999999999999999999
0029228920999991908020306004+60717+028783FM-12+000399999V0209991C000019999999N0000001N9-00331+99999101791ADDGF108991999999999999999999
0029228920999991908020313004+60717+028783FM-12+000399999V0201401N001019999999N0000001N9-00221+99999101711ADDGF108991999999999999999999
0029228920999991908020320004+60717+028783FM-12+000399999V0209991C000019999999N0000001N9-00331+99999101641ADDGF108991999999999999999999
0029228920999991908020406004+60717+028783FM-12+000399999V0209991C000019999999N0000001N9-00391+99999101561ADDGF108991999999999999999999
0029228920999991908020413004+60717+028783FM-12+000399999V0209991C000019999999N0000001N9-00331+99999101591ADDGF108991999999999999999999
0029228920999991908020420004+60717+028783FM-12+000399999V0202301N002619999999N0000001N9-00441+99999101661ADDGF108991999999999999999999
0029228920999991908020506004+60717+028783FM-12+000399999V0209991C000019999999N0000001N9-01391+99999101701ADDGF100991999999999999999999
0029228920999991908020513004+60717+028783FM-12+000399999V0202301N004619999999N0000001N9-01001+99999101431ADDGF108991999999999999999999
0035228920999991908020520004+60717+028783FM-12+000399999V0202001N015419999999N0000001N9-00391+99999100061ADDGF108991999999999999999999MW1721
0029228920999991908020606004+60717+028783FM-12+000399999V0202501N015419999999N0000001N9+00061+99999098511ADDGF106991999999999999999999
0029228920999991908020613004+60717+028783FM-12+000399999V0202501N009319999999N0000001N9+00061+99999098431ADDGF108991999999999999999999
0029228920999991908020620004+60717+028783FM-12+000399999V0209991C000019999999N0000001N9-00441+99999098641ADDGF100991999999999999999999
0029228920999991908020706004+60717+028783FM-12+000399999V0203601N001019999999N0000001N9-01061+99999099231ADDGF100991999999999999999999
0029228920999991908020713004+60717+028783FM-12+000399999V0203201N004619999999N0000001N9-00561+99999099981ADDGF100991999999999999999999
0029228920999991908020720004+60717+028783FM-12+000399999V0203201N002619999999N0000001N9-01061+99999100521ADDGF100991999999999999999999
0029228920999991908020806004+60717+028783FM-12+000399999V0202301N001019999999N0000001N9-01561+99999100361ADDGF100991999999999999999999
0029228920999991908020813004+60717+028783FM-12+000399999V0201401N002619999999N0000001N9-01111+99999099551ADDGF108991999999999999999999
0029228920999991908020820004+60717+028783FM-12+000399999V0201401N015419999999N0000001N9-00721+99999098801ADDGF108991999999999999999999
0029228920999991908020906004+60717+028783FM-12+000399999V0200901N012319999999N0000001N9-00891+99999098711ADDGF108991999999999999999999
0029228920999991908020913004+60717+028783FM-12+000399999V0200701N009319999999N0000001N9-00721+99999099261ADDGF108991999999999999999999
0035228920999991908020920004+60717+028783FM-12+000399999V0200501N009319999999N0000001N9-00831+99999099921ADDGF108991999999999999999999MW1721
0029228920999991908021006004+60717+028783FM-12+000399999V0200501N004619999999N0000001N9-01001+99999100911ADDGF108991999999999999999999
0029228920999991908021013004+60717+028783FM-12+000399999V0203601N002619999999N0000001N9-00831+99999101481ADDGF101991999999999999999999
0029228920999991908021020004+60717+028783FM-12+000399999V0203601N001019999999N0000001N9-01441+99999101871ADDGF100991999999999999999999
0029228920999991908021106004+60717+028783FM-12+000399999V0209991C000019999999N0000001N9-01891+99999101591ADDGF100991999999999999999999
0035228920999991908021113004+60717+028783FM-12+000399999V0201601N006719999999N0000001N9-00831+99999100701ADDGF108991999999999999999999MW1721
0035228920999991908021120004+60717+028783FM-12+000399999V0202001N012319999999N0000001N9-00501+99999099041ADDGF108991999999999999999999MW1721
0029228920999991908021206004+60717+028783FM-12+000399999V0202901N004619999999N0000001N9-00281+99999098441ADDGF100991999999999999999999
0029228920999991908021213004+60717+028783FM-12+000399999V0203201N009319999999N0000001N9-00281+99999098751ADDGF108991999999999999999999
0029228920999991908021220004+60717+028783FM-12+000399999V0203401N002619999999N0000001N9-00941+99999099381ADDGF108991999999999999999999
0029228920999991908021306004+60717+028783FM-12+000399999V0203401N002619999999N0000001N9-01391+99999099991ADDGF100991999999999999999999
0029228920999991908021313004+60717+028783FM-12+000399999V0203401N012319999999N0000001N9-01061+99999100641ADDGF100991999999999999999999
0029228920999991908021320004+60717+028783FM-12+000399999V0203201N001019999999N0000001N9-01331+99999101161ADDGF100991999999999999999999
0029228920999991908021406004+60717+028783FM-12+000399999V0203401N012319999999N0000001N9-00891+99999101721ADDGF108991999999999999999999
0029228920999991908021413004+60717+028783FM-12+000399999V0203401N004619999999N0000001N9-00721+99999102341ADDGF108991999999999999999999
0029228920999991908021420004+60717+028783FM-12+000399999V0209991C000019999999N0000001N9-00941+99999102701ADDGF108991999999999999999999
0029228920999991908021506004+60717+028783FM-12+000399999V0201401N002619999999N0000001N9-01061+99999102401ADDGF108991999999999999999999
0035228920999991908021513004+60717+028783FM-12+000399999V0201401N002619999999N0000001N9-00941+99999101781ADDGF108991999999999999999999MW1721
0029228920999991908021520004+60717+028783FM-12+000399999V0201401N002619999999N0000001N9-00941+99999101181ADDGF108991999999999999999999
0035228920999991908021606004+60717+028783FM-12+000399999V0201401N004619999999N0000001N9-00671+99999100481ADDGF108991999999999999999999MW1721
0029228920999991908021613004+60717+028783FM-12+000399999V0201401N004619999999N0000001N9+00111+99999099961ADDGF108991999999999999999999
0035228920999991908021620004+60717+028783FM-12+000399999V0201401N006719999999N0000001N9+00061+99999099511ADDGF108991999999999999999999MW1721
0029228920999991908021706004+60717+028783FM-12+000399999V0201601N004619999999N0000001N9+00001+99999099311ADDGF108991999999999999999999
0035228920999991908021713004+60717+028783FM-12+000399999V0201601N004619999999N0000001N9+00061+99999099461ADDGF108991999999999999999999MW1721
0035228920999991908021720004+60717+028783FM-12+000399999V0202001N004619999999N0000001N9-00391+99999099761ADDGF108991999999999999999999MW1721
0029228920999991908021806004+60717+028783FM-12+000399999V0209991C000019999999N0000001N9-00831+99999099871ADDGF106991999999999999999999
0035228920999991908021813004+60717+028783FM-12+000399999V0201801N004619999999N0000001N9-00441+99999099951ADDGF108991999999999999999999MW1721
0029228920999991908021820004+60717+028783FM-12+000399999V0201401N002619999999N0000001N9-00501+99999099881ADDGF108991999999999999999999
0029228920999991908021906004+60717+028783FM-12+000399999V0201401N006719999999N0000001N9-00331+99999099341ADDGF108991999999999999999999
0029228920999991908021913004+60717+028783FM-12+000399999V0201801N009319999999N0000001N9-00111+99999099031ADDGF108991999999999999999999
0029228920999991908021920004+60717+028783FM-12+000399999V0201601N006719999999N0000001N9+00061+99999099271ADDGF108991999999999999999999
0029228920999991908022006004+60717+028783FM-12+000399999V0201401N004619999999N0000001N9-00111+99999099461ADDGF108991999999999999999999
0035228920999991908022013004+60717+028783FM-12+000399999V0201401N006719999999N0000001N9+00061+99999099541ADDGF108991999999999999999999MW1721
0035228920999991908022020004+60717+028783FM-12+000399999V0201601N009319999999N0000001N9-00061+99999099581ADDGF108991999999999999999999MW1721
0029228920999991908022106004+60717+028783FM-12+000399999V0201801N001019999999N0000001N9-00221+99999099871ADDGF108991999999999999999999
0029228920999991908022113004+60717+028783FM-12+000399999V0209991C000019999999N0000001N9-00061+99999100191ADDGF107991999999999999999999
0029228920999991908022120004+60717+028783FM-12+000399999V0201401N002619999999N0000001N9-00501+99999100551ADDGF108991999999999999999999
0029228920999991908022206004+60717+028783FM-12+000399999V0201401N001019999999N0000001N9-00721+99999100721ADDGF108991999999999999999999
0035228920999991908022213004+60717+028783FM-12+000399999V0201401N001019999999N0000001N9-00561+99999100841ADDGF108991999999999999999999MW1721
0029228920999991908022220004+60717+028783FM-12+000399999V0201401N001019999999N0000001N9-00831+99999100911ADDGF108991999999999999999999
0029228920999991908022306004+60717+028783FM-12+000399999V0201401N002619999999N0000001N9-00831+99999100831ADDGF108991999999999999999999
0029228920999991908022313004+60717+028783FM-12+000399999V0201401N004619999999N0000001N9-00721+99999100801ADDGF108991999999999999999999
0029228920999991908022320004+60717+028783FM-12+000399999V0201401N009319999999N0000001N9-00891+99999100871ADDGF108991999999999999999999
0029228920999991908022406004+60717+028783FM-12+000399999V0201401N002619999999N0000001N9-01001+99999101071ADDGF108991999999999999999999
0029228920999991908022413004+60717+028783FM-12+000399999V0201101N002619999999N0000001N9-00561+99999101261ADDGF108991999999999999999999
0029228920999991908022420004+60717+028783FM-12+000399999V0201101N002619999999N0000001N9-01111+99999101521ADDGF100991999999999999999999
0029228920999991908022506004+60717+028783FM-12+000399999V0201101N002619999999N0000001N9-01781+99999101561ADDGF100991999999999999999999
0029228920999991908022513004+60717+028783FM-12+000399999V0201101N004619999999N0000001N9-01281+99999101551ADDGF108991999999999999999999
0029228920999991908022520004+60717+028783FM-12+000399999V0201101N002619999999N0000001N9-01061+99999101511ADDGF108991999999999999999999
0029228920999991908022606004+60717+028783FM-12+000399999V0200701N002619999999N0000001N9-01111+99999101361ADDGF108991999999999999999999
0029228920999991908022613004+60717+028783FM-12+000399999V0200701N002619999999N0000001N9-00891+99999101121ADDGF108991999999999999999999
0035228920999991908022620004+60717+028783FM-12+000399999V0200201N002619999999N0000001N9-00891+99999100751ADDGF108991999999999999999999MW1721
0029228920999991908022706004+60717+028783FM-12+000399999V0202301N001019999999N0000001N9-01671+99999100941ADDGF100991999999999999999999
0029228920999991908022713004+60717+028783FM-12+000399999V0202001N004619999999N0000001N9-00671+99999101281ADDGF108991999999999999999999
0029228920999991908022720004+60717+028783FM-12+000399999V0201601N004619999999N0000001N9-00891+99999101381ADDGF108991999999999999999999
0029228920999991908022806004+60717+028783FM-12+000399999V0201401N006719999999N0000001N9-00781+99999101261ADDGF101991999999999999999999
0029228920999991908022813004+60717+028783FM-12+000399999V0201401N009319999999N0000001N9-00171+99999101351ADDGF108991999999999999999999
0029228920999991908022820004+60717+028783FM-12+000399999V0201401N015419999999N0000001N9-00441+99999101421ADDGF108991999999999999999999
0029228920999991908022906004+60717+028783FM-12+000399999V0201401N004619999999N0000001N9-00221+99999101301ADDGF108991999999999999999999
0035228920999991908022913004+60717+028783FM-12+000399999V0201401N002619999999N0000001N9-00331+99999101561ADDGF108991999999999999999999MW1721
0029228920999991908022920004+60717+028783FM-12+000399999V0201401N002619999999N0000001N9-00441+99999101831ADDGF104991999999999999999999
0029228920999991908030106004+60717+028783FM-12+000399999V0201101N004619999999N0000001N9-00561+99999101941ADDGF103991999999999999999999
0029228920999991908030113004+60717+028783FM-12+000399999V0201401N002619999999N0000001N9-00611+99999102101ADDGF108991999999999999999999
0029228920999991908030120004+60717+028783FM-12+000399999V0201401N002619999999N0000001N9-00441+99999102141ADDGF108991999999999999999999
0029228920999991908030206004+60717+028783FM-12+000399999V0201401N004619999999N0000001N9-00501+99999102081ADDGF108991999999999999999999
0029228920999991908030213004+60717+028783FM-12+000399999V0201101N002619999999N0000001N9-00281+99999102381ADDGF108991999999999999999999
0029228920999991908030220004+60717+028783FM-12+000399999V0201101N001019999999N0000001N9-00221+99999102521ADDGF108991999999999999999999
0029228920999991908030306004+60717+028783FM-12+000399999V0200901N004619999999N0000001N9-00171+99999102141ADDGF108991999999999999999999
0035228920999991908030313004+60717+028783FM-12+000399999V0200901N002619999999N0000001N9+00171+99999101911ADDGF108991999999999999999999MW1721
0035228920999991908030320004+60717+028783FM-12+000399999V0201401N004619999999N0000001N9+00061+99999102021ADDGF108991999999999999999999MW1721
0029228920999991908030406004+60717+028783FM-12+000399999V0201101N004619999999N0000001N9+00061+99999102041ADDGF108991999999999999999999
0029228920999991908030413004+60717+028783FM-12+000399999V0201101N004619999999N0000001N9+00061+99999101541ADDGF108991999999999999999999
0029228920999991908030420004+60717+028783FM-12+000399999V0201101N009319999999N0000001N9+00171+99999101511ADDGF108991999999999999999999
0029228920999991908030506004+60717+028783FM-12+000399999V0201401N004619999999N0000001N9+00061+99999101501ADDGF108991999999999999999999
0029228920999991908030513004+60717+028783FM-12+000399999V0201801N009319999999N0000001N9+00111+99999102061ADDGF108991999999999999999999
0029228920999991908030520004+60717+028783FM-12+000399999V0201801N002619999999N0000001N9+00001+99999102431ADDGF108991999999999999999999
0029228920999991908030606004+60717+028783FM-12+000399999V0209991C000019999999N0000001N9-00111+99999102421ADDGF108991999999999999999999
0029228920999991908030613004+60717+028783FM-12+000399999V0201401N001019999999N0000001N9+00111+99999102381ADDGF108991999999999999999999
0029228920999991908030620004+60717+028783FM-12+000399999V0209991C000019999999N0000001N9-00111+99999102381ADDGF108991999999999999999999
0029228920999991908030706004+60717+028783FM-12+000399999V0209991C000019999999N0000001N9-00221+99999102421ADDGF108991999999999999999999
0029228920999991908030713004+60717+028783FM-12+000399999V0202301N002619999999N0000001N9+00061+99999102481ADDGF108991999999999999999999
0029228920999991908030720004+60717+028783FM-12+000399999V0209991C000019999999N0000001N9-00331+99999102481ADDGF108991999999999999999999
0029228920999991908030806004+60717+028783FM-12+000399999V0203601N001019999999N0000001N9-01111+99999102501ADDGF100991999999999999999999
0029228920999991908030813004+60717+028783FM-12+000399999V0200701N001019999999N0000001N9+00061+99999102321ADDGF100991999999999999999999
0029228920999991908030820004+60717+028783FM-12+000399999V0201401N001019999999N0000001N9-00561+99999102221ADDGF100991999999999999999999
0029228920999991908030906004+60717+028783FM-12+000399999V0200501N004619999999N0000001N9-01001+99999101961ADDGF108991999999999999999999
0029228920999991908030913004+60717+028783FM-12+000399999V0200501N006719999999N0000001N9-00611+99999101861ADDGF108991999999999999999999
0029228920999991908030920004+60717+028783FM-12+000399999V0200501N015419999999N0000001N9-01001+99999101821ADDGF108991999999999999999999
0029228920999991908031006004+60717+028783FM-12+000399999V0200501N015419999999N0000001N9-01561+99999101831ADDGF107991999999999999999999
0029228920999991908031013004+60717+028783FM-12+000399999V0200701N015419999999N0000001N9-01281+99999101921ADDGF100991999999999999999999
0029228920999991908031020004+60717+028783FM-12+000399999V0200701N015419999999N0000001N9-01501+99999102061ADDGF108991999999999999999999
0029228920999991908031106004+60717+028783FM-12+000399999V0200701N012319999999N0000001N9-01941+99999102081ADDGF100991999999999999999999
0029228920999991908031113004+60717+028783FM-12+000399999V0200701N012319999999N0000001N9-01281+99999102181ADDGF100991999999999999999999
0029228920999991908031120004+60717+028783FM-12+000399999V0200701N009319999999N0000001N9-01561+99999102361ADDGF100991999999999999999999
0029228920999991908031206004+60717+028783FM-12+000399999V0200701N009319999999N0000001N9-01831+99999102441ADDGF100991999999999999999999
0029228920999991908031213004+60717+028783FM-12+000399999V0200701N012319999999N0000001N9-01111+99999102511ADDGF100991999999999999999999
0029228920999991908031220004+60717+028783FM-12+000399999V0200701N009319999999N0000001N9-01221+99999102401ADDGF100991999999999999999999
0029228920999991908031306004+60717+028783FM-12+000399999V0200701N009319999999N0000001N9-01671+99999102121ADDGF100991999999999999999999
0029228920999991908031313004+60717+028783FM-12+000399999V0200701N004619999999N0000001N9-00781+99999102001ADDGF100991999999999999999999
0029228920999991908031320004+60717+028783FM-12+000399999V0200501N002619999999N0000001N9-01391+99999101941ADDGF100991999999999999999999
0029228920999991908031406004+60717+028783FM-12+000399999V0200201N001019999999N0000001N9-01721+99999101961ADDGF100991999999999999999999
0029228920999991908031413004+60717+028783FM-12+000399999V0203401N002619999999N0000001N9-00501+99999101861ADDGF100991999999999999999999
0029228920999991908031420004+60717+028783FM-12+000399999V0209991C000019999999N0000001N9-01171+99999101701ADDGF100991999999999999999999
0029228920999991908031506004+60717+028783FM-12+000399999V0201401N001019999999N0000001N9-01671+99999101471ADDGF100991999999999999999999
0029228920999991908031513004+60717+028783FM-12+000399999V0202001N002619999999N0000001N9-00671+99999101261ADDGF108991999999999999999999
0029228920999991908031520004+60717+028783FM-12+000399999V0209991C000019999999N0000001N9-01391+99999101561ADDGF100991999999999999999999
0029228920999991908031606004+60717+028783FM-12+000399999V0202001N004619999999N0000001N9-01391+99999101471ADDGF108991999999999999999999
0029228920999991908031613004+60717+028783FM-12+000399999V0202301N015419999999N0000001N9-00221+99999101111ADDGF108991999999999999999999
0029228920999991908031620004+60717+028783FM-12+000399999V0203201N002619999999N0000001N9-00281+99999101111ADDGF105991999999999999999999
0029228920999991908031706004+60717+028783FM-12+000399999V0202301N004619999999N0000001N9-01221+99999101481ADDGF100991999999999999999999
0029228920999991908031713004+60717+028783FM-12+000399999V0202501N015419999999N0000001N9+00171+99999101281ADDGF106991999999999999999999
0029228920999991908031720004+60717+028783FM-12+000399999V0209991C000019999999N0000001N9-00171+99999101791ADDGF107991999999999999999999
0029228920999991908031806004+60717+028783FM-12+000399999V0202301N002619999999N0000001N9-00391+99999102221ADDGF107991999999999999999999
0029228920999991908031813004+60717+028783FM-12+000399999V0202301N015419999999N0000001N9-00171+99999102321ADDGF100991999999999999999999
0029228920999991908031820004+60717+028783FM-12+000399999V0202301N004619999999N0000001N9-00611+99999102481ADDGF100991999999999999999999
0029228920999991908031906004+60717+028783FM-12+000399999V0209991C000019999999N0000001N9-01061+99999102721ADDGF100991999999999999999999
0029228920999991908031913004+60717+028783FM-12+000399999V0202301N004619999999N0000001N9-00281+99999102951ADDGF100991999999999999999999
0029228920999991908031920004+60717+028783FM-12+000399999V0209991C000019999999N0000001N9-01001+99999103111ADDGF100991999999999999999999
0029228920999991908032006004+60717+028783FM-12+000399999V0209991C000019999999N0000001N9-01781+99999103481ADDGF100991999999999999999999
0029228920999991908032013004+60717+028783FM-12+000399999V0202301N001019999999N0000001N9-00171+99999103641ADDGF100991999999999999999999
0029228920999991908032020004+60717+028783FM-12+000399999V0201601N001019999999N0000001N9-00561+99999103591ADDGF100991999999999999999999
0029228920999991908032106004+60717+028783FM-12+000399999V0201401N001019999999N0000001N9-00941+99999103751ADDGF102991999999999999999999
0029228920999991908032113004+60717+028783FM-12+000399999V0202301N004619999999N0000001N9-00061+99999103911ADDGF100991999999999999999999
0029228920999991908032120004+60717+028783FM-12+000399999V0209991C000019999999N0000001N9-00611+99999103961ADDGF100991999999999999999999
0029228920999991908032206004+60717+028783FM-12+000399999V0201101N001019999999N0000001N9-01281+99999103981ADDGF100991999999999999999999
0029228920999991908032213004+60717+028783FM-12+000399999V0202301N001019999999N0000001N9+00001+99999103941ADDGF100991999999999999999999
0029228920999991908032220004+60717+028783FM-12+000399999V0201601N001019999999N0000001N9-00891+99999103821ADDGF100991999999999999999999
0029228920999991908032306004+60717+028783FM-12+000399999V0200501N001019999999N0000001N9-01561+99999103761ADDGF100991999999999999999999
0029228920999991908032313004+60717+028783FM-12+000399999V0200701N001019999999N0000001N9+00281+99999103591ADDGF100991999999999999999999
0029228920999991908032320004+60717+028783FM-12+000399999V0209991C000019999999N0000001N9-00781+99999103441ADDGF100991999999999999999999
0029228920999991908032406004+60717+028783FM-12+000399999V0209991C000019999999N0000001N9-01331+99999103351ADDGF100991999999999999999999
0029228920999991908032413004+60717+028783FM-12+000399999V0203201N004619999999N0000001N9+00441+99999103121ADDGF100991999999999999999999
0029228920999991908032420004+60717+028783FM-12+000399999V0209991C000019999999N0000001N9-00331+99999103071ADDGF100991999999999999999999
0029228920999991908032506004+60717+028783FM-12+000399999V0203201N001019999999N0000001N9-01061+99999103311ADDGF102991999999999999999999
0029228920999991908032513004+60717+028783FM-12+000399999V0203201N002619999999N0000001N9+00111+99999103001ADDGF100991999999999999999999
0029228920999991908032520004+60717+028783FM-12+000399999V0209991C000019999999N0000001N9-00611+99999102621ADDGF100991999999999999999999
0029228920999991908032606004+60717+028783FM-12+000399999V0200501N002619999999N0000001N9-00501+99999102671ADDGF103991999999999999999999
0029228920999991908032613004+60717+028783FM-12+000399999V0200901N004619999999N0000001N9-00331+99999102961ADDGF100991999999999999999999
0029228920999991908032620004+60717+028783FM-12+000399999V0209991C000019999999N0000001N9-01111+99999103021ADDGF100991999999999999999999
0029228920999991908032706004+60717+028783FM-12+000399999V0202301N001019999999N0000001N9-01281+99999102941ADDGF108991999999999999999999
0029228920999991908032713004+60717+028783FM-12+000399999V0202301N006719999999N0000001N9-00391+99999102641ADDGF100991999999999999999999
0029228920999991908032720004+60717+028783FM-12+000399999V0202001N002619999999N0000001N9-00891+99999102381ADDGF100991999999999999999999
0029228920999991908032806004+60717+028783FM-12+000399999V0202301N002619999999N0000001N9-00501+99999101961ADDGF108991999999999999999999
0029228920999991908032813004+60717+028783FM-12+000399999V0202001N006719999999N0000001N9+00221+99999101801ADDGF104991999999999999999999
0029228920999991908032820004+60717+028783FM-12+000399999V0202001N002619999999N0000001N9-00281+99999101881ADDGF100991999999999999999999
0029228920999991908032906004+60717+028783FM-12+000399999V0202001N002619999999N0000001N9-00441+99999101991ADDGF100991999999999999999999
0029228920999991908032913004+60717+028783FM-12+000399999V0202001N009319999999N0000001N9+00171+99999102031ADDGF100991999999999999999999
0029228920999991908032920004+60717+028783FM-12+000399999V0202001N004619999999N0000001N9-00171+99999102041ADDGF100991999999999999999999
0029228920999991908033006004+60717+028783FM-12+000399999V0202001N004619999999N0000001N9-00281+99999102161ADDGF100991999999999999999999
0029228920999991908033013004+60717+028783FM-12+000399999V0202001N004619999999N0000001N9+00391+99999102141ADDGF100991999999999999999999
0029228920999991908033020004+60717+028783FM-12+000399999V0202001N004619999999N0000001N9+00281+99999101841ADDGF100991999999999999999999
0029228920999991908033106004+60717+028783FM-12+000399999V0202001N004619999999N0000001N9+00111+99999101421ADDGF100991999999999999999999
0029228920999991908033113004+60717+028783FM-12+000399999V0201801N002619999999N0000001N9+00611+99999101221ADDGF100991999999999999999999
0029228920999991908033120004+60717+028783FM-12+000399999V0201601N006719999999N0000001N9+00441+99999101081ADDGF101991999999999999999999
0029228920999991908040106004+60717+028783FM-12+000399999V0201401N004619999999N0000001N9+00221+99999101101ADDGF100991999999999999999999
0029228920999991908040113004+60717+028783FM-12+000399999V0201401N009319999999N0000001N9+00611+99999101151ADDGF100991999999999999999999
0029228920999991908040120004+60717+028783FM-12+000399999V0201101N002619999999N0000001N9+00221+99999101191ADDGF100991999999999999999999
0029228920999991908040206004+60717+028783FM-12+000399999V0201401N004619999999N0000001N9+00061+99999101401ADDGF106991999999999999999999
0035228920999991908040213004+60717+028783FM-12+000399999V0201401N004619999999N0000001N9+00221+99999101561ADDGF108991999999999999999999MW1721
0035228920999991908040220004+60717+028783FM-12+000399999V0201401N002619999999N0000001N9+00111+99999101661ADDGF108991999999999999999999MW1721
0029228920999991908040306004+60717+028783FM-12+000399999V0201801N006719999999N0000001N9+00111+99999101821ADDGF108991999999999999999999
0029228920999991908040313004+60717+028783FM-12+000399999V0202301N006719999999N0000001N9+00111+99999102071ADDGF108991999999999999999999
0029228920999991908040320004+60717+028783FM-12+000399999V0202301N002619999999N0000001N9-00061+99999102261ADDGF108991999999999999999999
0029228920999991908040406004+60717+028783FM-12+000399999V0201401N001019999999N0000001N9-00061+99999102401ADDGF108991999999999999999999
0029228920999991908040413004+60717+028783FM-12+000399999V0200701N001019999999N0000001N9+00561+99999102361ADDGF104991999999999999999999
0029228920999991908040420004+60717+028783FM-12+000399999V0200901N002619999999N0000001N9+00061+99999102431ADDGF100991999999999999999999
0029228920999991908040506004+60717+028783FM-12+000399999V0200901N001019999999N0000001N9-00171+99999102471ADDGF102991999999999999999999
0029228920999991908040513004+60717+028783FM-12+000399999V0200901N002619999999N0000001N9+00611+99999102361ADDGF104991999999999999999999
0029228920999991908040520004+60717+028783FM-12+000399999V0200901N001019999999N0000001N9+00221+99999102351ADDGF104991999999999999999999
0029228920999991908040606004+60717+028783FM-12+000399999V0209991C000019999999N0000001N9+00171+99999102271ADDGF108991999999999999999999
0029228920999991908040613004+60717+028783FM-12+000399999V0201401N002619999999N0000001N9+00561+99999102401ADDGF108991999999999999999999
0029228920999991908040620004+60717+028783FM-12+000399999V0209991C000019999999N0000001N9-00171+99999102641ADDGF100991999999999999999999
0029228920999991908040706004+60717+028783FM-12+000399999V0209991C000019999999N0000001N9-00111+99999102901ADDGF107991999999999999999999
0029228920999991908040713004+60717+028783FM-12+000399999V0202301N002619999999N0000001N9+00721+99999102921ADDGF103991999999999999999999
0029228920999991908040720004+60717+028783FM-12+000399999V0209991C000019999999N0000001N9+00111+99999102861ADDGF104991999999999999999999
0029228920999991908040806004+60717+028783FM-12+000399999V0202301N001019999999N0000001N9-00171+99999102671ADDGF108991999999999999999999
0029228920999991908040813004+60717+028783FM-12+000399999V0202301N004619999999N0000001N9+00331+99999102351ADDGF100991999999999999999999
0029228920999991908040820004+60717+028783FM-12+000399999V0202301N004619999999N0000001N9-00061+99999102071ADDGF104991999999999999999999
0029228920999991908040906004+60717+028783FM-12+000399999V0202001N002619999999N0000001N9+00061+99999101681ADDGF108991999999999999999999
0029228920999991908040913004+60717+028783FM-12+000399999V0202001N006719999999N0000001N9+00331+99999101481ADDGF108991999999999999999999
0029228920999991908040920004+60717+028783FM-12+000399999V0202001N004619999999N0000001N9+00061+99999101391ADDGF108991999999999999999999
0029228920999991908041006004+60717+028783FM-12+000399999V0202001N001019999999N0000001N9+00221+99999101461ADDGF108991999999999999999999
0029228920999991908041013004+60717+028783FM-12+000399999V0202301N002619999999N0000001N9+00611+99999101541ADDGF102991999999999999999999
0029228920999991908041020004+60717+028783FM-12+000399999V0201101N001019999999N0000001N9+00171+99999101581ADDGF102991999999999999999999
0029228920999991908041106004+60717+028783FM-12+000399999V0200701N001019999999N0000001N9-00221+99999101741ADDGF102991999999999999999999
0029228920999991908041113004+60717+028783FM-12+000399999V0200701N004619999999N0000001N9+00561+99999101751ADDGF101991999999999999999999
0029228920999991908041120004+60717+028783FM-12+000399999V0200701N001019999999N0000001N9+00111+99999101871ADDGF100991999999999999999999
0029228920999991908041206004+60717+028783FM-12+000399999V0200701N001019999999N0000001N9+00111+99999102061ADDGF108991999999999999999999
0029228920999991908041213004+60717+028783FM-12+000399999V0200701N002619999999N0000001N9+00611+99999102081ADDGF102991999999999999999999
0029228920999991908041220004+60717+028783FM-12+000399999V0209991C000019999999N0000001N9-00061+99999102151ADDGF102991999999999999999999
0029228920999991908041306004+60717+028783FM-12+000399999V0200201N001019999999N0000001N9+00061+99999102301ADDGF100991999999999999999999
0029228920999991908041313004+60717+028783FM-12+000399999V0200201N002619999999N0000001N9+00781+99999102401ADDGF100991999999999999999999
0029228920999991908041320004+60717+028783FM-12+000399999V0203601N001019999999N0000001N9+00001+99999102631ADDGF100991999999999999999999
0029228920999991908041406004+60717+028783FM-12+000399999V0209991C000019999999N0000001N9+00061+99999102941ADDGF100991999999999999999999
0029228920999991908041413004+60717+028783FM-12+000399999V0202501N002619999999N0000001N9+00831+99999102961ADDGF100991999999999999999999
0029228920999991908041420004+60717+028783FM-12+000399999V0209991C000019999999N0000001N9+00061+99999102961ADDGF100991999999999999999999
0029228920999991908041506004+60717+028783FM-12+000399999V0209991C000019999999N0000001N9+00061+99999102791ADDGF100991999999999999999999
0029228920999991908041513004+60717+028783FM-12+000399999V0202001N006719999999N0000001N9+00561+99999102631ADDGF100991999999999999999999
0029228920999991908041520004+60717+028783FM-12+000399999V0202001N001019999999N0000001N9+00001+99999102581ADDGF100991999999999999999999
0029228920999991908041606004+60717+028783FM-12+000399999V0202001N002619999999N0000001N9-00061+99999102581ADDGF108991999999999999999999
0029228920999991908041613004+60717+028783FM-12+000399999V0202001N012319999999N0000001N9+00501+99999102341ADDGF100991999999999999999999
0029228920999991908041620004+60717+028783FM-12+000399999V0202001N002619999999N0000001N9+00111+99999102071ADDGF100991999999999999999999
0029228920999991908041706004+60717+028783FM-12+000399999V0202001N004619999999N0000001N9+00221+99999101301ADDGF108991999999999999999999
0029228920999991908041713004+60717+028783FM-12+000399999V0202001N009319999999N0000001N9+00331+99999100911ADDGF108991999999999999999999
0029228920999991908041720004+60717+028783FM-12+000399999V0202001N004619999999N0000001N9+00111+99999100641ADDGF107991999999999999999999
0029228920999991908041806004+60717+028783FM-12+000399999V0201401N001019999999N0000001N9+00111+99999100421ADDGF108991999999999999999999
0035228920999991908041813004+60717+028783FM-12+000399999V0200701N004619999999N0000001N9+00331+99999100101ADDGF108991999999999999999999MW1621
0035228920999991908041820004+60717+028783FM-12+000399999V0200701N006719999999N0000001N9+00001+99999099671ADDGF108991999999999999999999MW1721
0029228920999991908041906004+60717+028783FM-12+000399999V0200701N001019999999N0000001N9+00331+99999099071ADDGF103991999999999999999999
0029228920999991908041913004+60717+028783FM-12+000399999V0201601N009319999999N0000001N9+00891+99999099081ADDGF108991999999999999999999
0035228920999991908041920004+60717+028783FM-12+000399999V0201101N004619999999N0000001N9+00441+99999099141ADDGF108991999999999999999999MW1621
0035228920999991908042006004+60717+028783FM-12+000399999V0202001N015419999999N0000001N9+00221+99999098911ADDGF108991999999999999999999MW1621
0029228920999991908042013004+60717+028783FM-12+000399999V0202301N015419999999N0000001N9+00171+99999099261ADDGF108991999999999999999999
0029228920999991908042020004+60717+028783FM-12+000399999V0202301N004619999999N0000001N9+00001+99999099321ADDGF108991999999999999999999
0029228920999991908042106004+60717+028783FM-12+000399999V0202901N006719999999N0000001N9-00281+99999099861ADDGF108991999999999999999999
0029228920999991908042113004+60717+028783FM-12+000399999V0202301N006719999999N0000001N9+00061+99999100301ADDGF100991999999999999999999
0029228920999991908042120004+60717+028783FM-12+000399999V0201401N002619999999N0000001N9-00171+99999100391ADDGF100991999999999999999999
0035228920999991908042206004+60717+028783FM-12+000399999V0201401N002619999999N0000001N9-00111+99999100281ADDGF108991999999999999999999MW1481
0029228920999991908042213004+60717+028783FM-12+000399999V0201101N009319999999N0000001N9+00561+99999099901ADDGF106991999999999999999999
0035228920999991908042220004+60717+028783FM-12+000399999V0201401N004619999999N0000001N9+00171+99999099801ADDGF108991999999999999999999MW1721
0029228920999991908042306004+60717+028783FM-12+000399999V0202001N015419999999N0000001N9+00111+99999100261ADDGF108991999999999999999999
0029228920999991908042313004+60717+028783FM-12+000399999V0202001N015419999999N0000001N9+00331+99999101041ADDGF102991999999999999999999
0029228920999991908042320004+60717+028783FM-12+000399999V0201801N002619999999N0000001N9-00111+99999101541ADDGF100991999999999999999999
0029228920999991908042406004+60717+028783FM-12+000399999V0209991C000019999999N0000001N9-00061+99999102031ADDGF100991999999999999999999
0029228920999991908042413004+60717+028783FM-12+000399999V0201101N004619999999N0000001N9+00831+99999102111ADDGF100991999999999999999999
0029228920999991908042420004+60717+028783FM-12+000399999V0200701N001019999999N0000001N9+00171+99999102241ADDGF100991999999999999999999
0029228920999991908042506004+60717+028783FM-12+000399999V0200701N004619999999N0000001N9+00171+99999102201ADDGF108991999999999999999999
0029228920999991908042513004+60717+028783FM-12+000399999V0200701N004619999999N0000001N9+00671+99999102121ADDGF108991999999999999999999
0029228920999991908042520004+60717+028783FM-12+000399999V0200501N004619999999N0000001N9+00391+99999102031ADDGF103991999999999999999999
0029228920999991908042606004+60717+028783FM-12+000399999V0200701N006719999999N0000001N9+00501+99999101681ADDGF104991999999999999999999
0029228920999991908042613004+60717+028783FM-12+000399999V0200701N001019999999N0000001N9+00891+99999101641ADDGF108991999999999999999999
0035228920999991908042620004+60717+028783FM-12+000399999V0201101N002619999999N0000001N9+00721+99999101631ADDGF108991999999999999999999MW1621
0029228920999991908042706004+60717+028783FM-12+000399999V0200701N001019999999N0000001N9+00671+99999101391ADDGF100991999999999999999999
0029228920999991908042713004+60717+028783FM-12+000399999V0200501N001019999999N0000001N9+01501+99999101061ADDGF104991999999999999999999
0029228920999991908042720004+60717+028783FM-12+000399999V0200701N001019999999N0000001N9+00501+99999100961ADDGF100991999999999999999999
0029228920999991908042806004+60717+028783FM-12+000399999V0209991C000019999999N0000001N9+00501+99999101281ADDGF100991999999999999999999
0029228920999991908042813004+60717+028783FM-12+000399999V0202301N006719999999N0000001N9+00671+99999101591ADDGF100991999999999999999999
0029228920999991908042820004+60717+028783FM-12+000399999V0209991C000019999999N0000001N9+00441+99999101631ADDGF100991999999999999999999
0029228920999991908042906004+60717+028783FM-12+000399999V0200701N004619999999N0000001N9+00561+99999101481ADDGF104991999999999999999999
0029228920999991908042913004+60717+028783FM-12+000399999V0200701N006719999999N0000001N9+01331+99999101191ADDGF104991999999999999999999
0029228920999991908042920004+60717+028783FM-12+000399999V0200701N009319999999N0000001N9+00831+99999100881ADDGF108991999999999999999999
0035228920999991908043006004+60717+028783FM-12+000399999V0200501N004619999999N0000001N9+00391+99999100591ADDGF108991999999999999999999MW1621
0029228920999991908043013004+60717+028783FM-12+000399999V0200501N006719999999N0000001N9+00441+99999101181ADDGF108991999999999999999999
0035228920999991908043020004+60717+028783FM-12+000399999V0200201N001019999999N0000001N9+00221+99999101681ADDGF108991999999999999999999MW1621
0029228920999991908050106004+60717+028783FM-12+000399999V0200501N002619999999N0000001N9+00171+99999101871ADDGF100991999999999999999999
0029228920999991908050113004+60717+028783FM-12+000399999V0200201N001019999999N0000001N9+00721+99999101751ADDGF101991999999999999999999
0029228920999991908050120004+60717+028783FM-12+000399999V0201101N001019999999N0000001N9+00171+99999101661ADDGF100991999999999999999999
0029228920999991908050206004+60717+028783FM-12+000399999V0203601N002619999999N0000001N9+00171+99999101221ADDGF106991999999999999999999
0029228920999991908050213004+60717+028783FM-12+000399999V0203401N009319999999N0000001N9+00331+99999101061ADDGF101991999999999999999999
0029228920999991908050220004+60717+028783FM-12+000399999V0209991C000019999999N0000001N9+00001+99999100901ADDGF102991999999999999999999
0029228920999991908050306004+60717+028783FM-12+000399999V0202501N001019999999N0000001N9+00221+99999100591ADDGF107991999999999999999999
0029228920999991908050313004+60717+028783FM-12+000399999V0202901N001019999999N0000001N9+00331+99999100551ADDGF106991999999999999999999
0029228920999991908050320004+60717+028783FM-12+000399999V0203401N002619999999N0000001N9-00061+99999100751ADDGF102991999999999999999999
0029228920999991908050406004+60717+028783FM-12+000399999V0203401N004619999999N0000001N9-00171+99999100781ADDGF100991999999999999999999
0029228920999991908050413004+60717+028783FM-12+000399999V0203401N004619999999N0000001N9+00281+99999100721ADDGF106991999999999999999999
0029228920999991908050420004+60717+028783FM-12+000399999V0203201N002619999999N0000001N9-00061+99999100721ADDGF105991999999999999999999
0029228920999991908050506004+60717+028783FM-12+000399999V0203201N009319999999N0000001N9-00111+99999100601ADDGF108991999999999999999999
0029228920999991908050513004+60717+028783FM-12+000399999V0203401N015419999999N0000001N9+00001+99999100501ADDGF108991999999999999999999
0029228920999991908050520004+60717+028783FM-12+000399999V0203401N012319999999N0000001N9-00111+99999100581ADDGF108991999999999999999999
0029228920999991908050606004+60717+028783FM-12+000399999V0200201N004619999999N0000001N9-00221+99999100831ADDGF108991999999999999999999
0029228920999991908050613004+60717+028783FM-12+000399999V0203401N002619999999N0000001N9+00561+99999100871ADDGF108991999999999999999999
0029228920999991908050620004+60717+028783FM-12+000399999V0200201N001019999999N0000001N9+00171+99999100991ADDGF108991999999999999999999
0029228920999991908050706004+60717+028783FM-12+000399999V0200701N002619999999N0000001N9-00111+99999101141ADDGF106991999999999999999999
0029228920999991908050713004+60717+028783FM-12+000399999V0202301N004619999999N0000001N9+00671+99999101061ADDGF102991999999999999999999
0029228920999991908050720004+60717+028783FM-12+000399999V0201601N001019999999N0000001N9+00061+99999101021ADDGF100991999999999999999999
0029228920999991908050806004+60717+028783FM-12+000399999V0201601N004619999999N0000001N9+00441+99999100841ADDGF100991999999999999999999
0029228920999991908050813004+60717+028783FM-12+000399999V0202301N009319999999N0000001N9+00781+99999100541ADDGF104991999999999999999999
0029228920999991908050820004+60717+028783FM-12+000399999V0201101N002619999999N0000001N9+00561+99999100201ADDGF108991999999999999999999
0029228920999991908050906004+60717+028783FM-12+000399999V0202301N004619999999N0000001N9+00441+99999099701ADDGF108991999999999999999999
0029228920999991908050913004+60717+028783FM-12+000399999V0202001N004619999999N0000001N9+00611+99999099661ADDGF108991999999999999999999
0029228920999991908050920004+60717+028783FM-12+000399999V0202001N001019999999N0000001N9+00331+99999099711ADDGF108991999999999999999999
0029228920999991908051006004+60717+028783FM-12+000399999V0203401N001019999999N0000001N9+00501+99999099721ADDGF101991999999999999999999
0029228920999991908051013004+60717+028783FM-12+000399999V0202001N004619999999N0000001N9+00671+99999099871ADDGF108991999999999999999999
0029228920999991908051020004+60717+028783FM-12+000399999V0209991C000019999999N0000001N9+00331+99999999999ADDGF102991999999999999999999
0035228920999991908051106004+60717+028783FM-12+000399999V0203401N004619999999N0000001N9+00221+99999100181ADDGF108991999999999999999999MW1621
0029228920999991908051113004+60717+028783FM-12+000399999V0203401N006719999999N0000001N9+00611+99999100601ADDGF104991999999999999999999
0029228920999991908051120004+60717+028783FM-12+000399999V0202001N001019999999N0000001N9+00281+99999100701ADDGF108991999999999999999999
0029228920999991908051206004+60717+028783FM-12+000399999V0203401N009319999999N0000001N9+00441+99999100871ADDGF100991999999999999999999
0029228920999991908051213004+60717+028783FM-12+000399999V0202001N009319999999N0000001N9+00671+99999100941ADDGF103991999999999999999999
0029228920999991908051220004+60717+028783FM-12+000399999V0209991C000019999999N0000001N9+00331+99999101021ADDGF104991999999999999999999
0029228920999991908051306004+60717+028783FM-12+000399999V0209991C000019999999N0000001N9+00391+99999101311ADDGF100991999999999999999999
0029228920999991908051313004+60717+028783FM-12+000399999V0202301N009319999999N0000001N9+00671+99999101341ADDGF106991999999999999999999
0029228920999991908051320004+60717+028783FM-12+000399999V0202001N001019999999N0000001N9+00281+99999101351ADDGF100991999999999999999999
0029228920999991908051406004+60717+028783FM-12+000399999V0201101N009319999999N0000001N9+00391+99999100881ADDGF108991999999999999999999
0035228920999991908051413004+60717+028783FM-12+000399999V0200901N012319999999N0000001N9+00111+99999100041ADDGF108991999999999999999999MW1721
0035228920999991908051420004+60717+028783FM-12+000399999V0200701N004619999999N0000001N9+00061+99999099551ADDGF108991999999999999999999MW1721
0029228920999991908051506004+60717+028783FM-12+000399999V0203401N006719999999N0000001N9+00281+99999100281ADDGF107991999999999999999999
0029228920999991908051513004+60717+028783FM-12+000399999V0203401N006719999999N0000001N9+01001+99999101071ADDGF100991999999999999999999
0029228920999991908051520004+60717+028783FM-12+000399999V0202001N002619999999N0000001N9+00441+99999101421ADDGF100991999999999999999999
0029228920999991908051606004+60717+028783FM-12+000399999V0202301N006719999999N0000001N9+00501+99999101561ADDGF104991999999999999999999
0029228920999991908051613004+60717+028783FM-12+000399999V0202301N012319999999N0000001N9+00891+99999101421ADDGF101991999999999999999999
0029228920999991908051620004+60717+028783FM-12+000399999V0202301N004619999999N0000001N9+00501+99999101301ADDGF100991999999999999999999
0029228920999991908051706004+60717+028783FM-12+000399999V0202301N001019999999N0000001N9+00671+99999101121ADDGF102991999999999999999999
0029228920999991908051713004+60717+028783FM-12+000399999V0203601N002619999999N0000001N9+01171+99999101161ADDGF105991999999999999999999
0029228920999991908051720004+60717+028783FM-12+000399999V0203201N001019999999N0000001N9+00891+99999101401ADDGF100991999999999999999999
0029228920999991908051806004+60717+028783FM-12+000399999V0209991C000019999999N0000001N9+00831+99999101511ADDGF100991999999999999999999
0029228920999991908051813004+60717+028783FM-12+000399999V0202301N015419999999N0000001N9+01171+99999101221ADDGF102991999999999999999999
0029228920999991908051820004+60717+028783FM-12+000399999V0202001N006719999999N0000001N9+00721+99999100711ADDGF108991999999999999999999
0035228920999991908051906004+60717+028783FM-12+000399999V0200201N001019999999N0000001N9+00721+99999100021ADDGF108991999999999999999999MW1621
0035228920999991908051913004+60717+028783FM-12+000399999V0200501N001019999999N0000001N9+01061+99999100381ADDGF108991999999999999999999MW1621
0029228920999991908051920004+60717+028783FM-12+000399999V0203201N001019999999N0000001N9+01001+99999100711ADDGF102991999999999999999999
0029228920999991908052006004+60717+028783FM-12+000399999V0202001N002619999999N0000001N9+01111+99999101071ADDGF100991999999999999999999
0029228920999991908052013004+60717+028783FM-12+000399999V0202001N002619999999N0000001N9+01441+99999101021ADDGF106991999999999999999999
0029228920999991908052020004+60717+028783FM-12+000399999V0202001N002619999999N0000001N9+00831+99999100951ADDGF106991999999999999999999
0029228920999991908052106004+60717+028783FM-12+000399999V0202501N004619999999N0000001N9+00941+99999101001ADDGF107991999999999999999999
0029228920999991908052113004+60717+028783FM-12+000399999V0202501N015419999999N0000001N9+01281+99999101271ADDGF103991999999999999999999
0029228920999991908052120004+60717+028783FM-12+000399999V0209991C000019999999N0000001N9+00891+99999101661ADDGF100991999999999999999999
0029228920999991908052206004+60717+028783FM-12+000399999V0209991C000019999999N0000001N9+01001+99999102141ADDGF100991999999999999999999
0029228920999991908052213004+60717+028783FM-12+000399999V0202001N012319999999N0000001N9+01221+99999102221ADDGF102991999999999999999999
0029228920999991908052220004+60717+028783FM-12+000399999V0202001N001019999999N0000001N9+00891+99999102111ADDGF102991999999999999999999
0029228920999991908052306004+60717+028783FM-12+000399999V0201601N006719999999N0000001N9+01391+99999101481ADDGF108991999999999999999999
0029228920999991908052313004+60717+028783FM-12+000399999V0202001N009319999999N0000001N9+01781+99999100991ADDGF108991999999999999999999
0029228920999991908052320004+60717+028783FM-12+000399999V0203201N006719999999N0000001N9+01281+99999100781ADDGF108991999999999999999999
0029228920999991908052406004+60717+028783FM-12+000399999V0202501N012319999999N0000001N9+01061+99999101301ADDGF100991999999999999999999
0029228920999991908052413004+60717+028783FM-12+000399999V0203401N006719999999N0000001N9+01561+99999101401ADDGF100991999999999999999999
0029228920999991908052420004+60717+028783FM-12+000399999V0209991C000019999999N0000001N9+01171+99999101521ADDGF100991999999999999999999
0029228920999991908052506004+60717+028783FM-12+000399999V0200501N001019999999N0000001N9+01221+99999101841ADDGF100991999999999999999999
0029228920999991908052513004+60717+028783FM-12+000399999V0201401N001019999999N0000001N9+01831+99999101761ADDGF100991999999999999999999
0029228920999991908052520004+60717+028783FM-12+000399999V0201101N002619999999N0000001N9+01331+99999101781ADDGF100991999999999999999999
0029228920999991908052606004+60717+028783FM-12+000399999V0201101N004619999999N0000001N9+01331+99999101821ADDGF100991999999999999999999
0029228920999991908052613004+60717+028783FM-12+000399999V0201101N006719999999N0000001N9+02111+99999101681ADDGF102991999999999999999999
0029228920999991908052620004+60717+028783FM-12+000399999V0209991C000019999999N0000001N9+01391+99999101861ADDGF108991999999999999999999
0029228920999991908052706004+60717+028783FM-12+000399999V0201401N001019999999N0000001N9+01171+99999102151ADDGF108991999999999999999999
0029228920999991908052713004+60717+028783FM-12+000399999V0200201N001019999999N0000001N9+01671+99999102421ADDGF101991999999999999999999
0029228920999991908052720004+60717+028783FM-12+000399999V0202001N001019999999N0000001N9+01281+99999102631ADDGF100991999999999999999999
0029228920999991908052806004+60717+028783FM-12+000399999V0202001N001019999999N0000001N9+01441+99999102921ADDGF100991999999999999999999
0029228920999991908052813004+60717+028783FM-12+000399999V0202901N004619999999N0000001N9+02061+99999102821ADDGF100991999999999999999999
0029228920999991908052820004+60717+028783FM-12+000399999V0202901N002619999999N0000001N9+01671+99999102831ADDGF100991999999999999999999
0029228920999991908052906004+60717+028783FM-12+000399999V0202501N002619999999N0000001N9+01501+99999102871ADDGF100991999999999999999999
0029228920999991908052913004+60717+028783FM-12+000399999V0203401N009319999999N0000001N9+01941+99999102791ADDGF100991999999999999999999
0029228920999991908052920004+60717+028783FM-12+000399999V0200201N001019999999N0000001N9+01501+99999102901ADDGF100991999999999999999999
0029228920999991908053006004+60717+028783FM-12+000399999V0209991C000019999999N0000001N9+01331+99999103201ADDGF100991999999999999999999
0029228920999991908053013004+60717+028783FM-12+000399999V0202001N009319999999N0000001N9+01721+99999102981ADDGF100991999999999999999999
0029228920999991908053020004+60717+028783FM-12+000399999V0202001N004619999999N0000001N9+01441+99999102721ADDGF100991999999999999999999
0029228920999991908053106004+60717+028783FM-12+000399999V0202501N002619999999N0000001N9+01781+99999102591ADDGF100991999999999999999999
0029228920999991908053113004+60717+028783FM-12+000399999V0202001N015419999999N0000001N9+01941+99999102281ADDGF100991999999999999999999
0029228920999991908053120004+60717+028783FM-12+000399999V0202001N004619999999N0000001N9+01441+99999101911ADDGF100991999999999999999999
0029228920999991908060106004+60717+028783FM-12+000399999V0202001N006719999999N0000001N9+01561+99999101441ADDGF108991999999999999999999
0029228920999991908060113004+60717+028783FM-12+000399999V0202001N009319999999N0000001N9+01781+99999100991ADDGF101991999999999999999999
0029228920999991908060120004+60717+028783FM-12+000399999V0203201N004619999999N0000001N9+01561+99999100711ADDGF108991999999999999999999
0029228920999991908060206004+60717+028783FM-12+000399999V0203601N012319999999N0000001N9+01221+99999101271ADDGF100991999999999999999999
0029228920999991908060213004+60717+028783FM-12+000399999V0203401N009319999999N0000001N9+01281+99999101671ADDGF100991999999999999999999
0029228920999991908060220004+60717+028783FM-12+000399999V0200201N001019999999N0000001N9+01001+99999101941ADDGF100991999999999999999999
0029228920999991908060306004+60717+028783FM-12+000399999V0203601N009319999999N0000001N9+00831+99999102231ADDGF100991999999999999999999
0029228920999991908060313004+60717+028783FM-12+000399999V0203601N004619999999N0000001N9+01061+99999102301ADDGF100991999999999999999999
0029228920999991908060320004+60717+028783FM-12+000399999V0202501N006719999999N0000001N9+01001+99999102201ADDGF108991999999999999999999
0029228920999991908060406004+60717+028783FM-12+000399999V0202301N006719999999N0000001N9+01331+99999101761ADDGF108991999999999999999999
0029228920999991908060413004+60717+028783FM-12+000399999V0202301N012319999999N0000001N9+01331+99999100821ADDGF108991999999999999999999
0035228920999991908060420004+60717+028783FM-12+000399999V0202301N004619999999N0000001N9+01111+99999100101ADDGF108991999999999999999999MW1621
0029228920999991908060506004+60717+028783FM-12+000399999V0203601N006719999999N0000001N9+00781+99999100231ADDGF101991999999999999999999
0029228920999991908060513004+60717+028783FM-12+000399999V0200501N002619999999N0000001N9+01171+99999100281ADDGF102991999999999999999999
0029228920999991908060520004+60717+028783FM-12+000399999V0200901N002619999999N0000001N9+00671+99999100161ADDGF100991999999999999999999
0029228920999991908060606004+60717+028783FM-12+000399999V0200901N015419999999N0000001N9+00391+99999099781ADDGF108991999999999999999999
0035228920999991908060613004+60717+028783FM-12+000399999V0200701N012319999999N0000001N9+00221+99999099781ADDGF108991999999999999999999MW1721
0029228920999991908060620004+60717+028783FM-12+000399999V0200501N002619999999N0000001N9+00221+99999100061ADDGF108991999999999999999999
0029228920999991908060706004+60717+028783FM-12+000399999V0200201N002619999999N0000001N9+00561+99999100501ADDGF103991999999999999999999
0029228920999991908060713004+60717+028783FM-12+000399999V0202001N006719999999N0000001N9+01111+99999100801ADDGF107991999999999999999999
0029228920999991908060720004+60717+028783FM-12+000399999V0202301N002619999999N0000001N9+00831+99999101121ADDGF100991999999999999999999
0029228920999991908060806004+60717+028783FM-12+000399999V0202001N002619999999N0000001N9+01061+99999101351ADDGF104991999999999999999999
0029228920999991908060813004+60717+028783FM-12+000399999V0203401N002619999999N0000001N9+01221+99999101441ADDGF104991999999999999999999
0029228920999991908060820004+60717+028783FM-12+000399999V0200701N001019999999N0000001N9+00721+99999101561ADDGF104991999999999999999999
0029228920999991908060906004+60717+028783FM-12+000399999V0202301N009319999999N0000001N9+00941+99999101821ADDGF108991999999999999999999
0029228920999991908060913004+60717+028783FM-12+000399999V0202301N009319999999N0000001N9+01221+99999102001ADDGF103991999999999999999999
0029228920999991908060920004+60717+028783FM-12+000399999V0202301N004619999999N0000001N9+00831+99999102181ADDGF100991999999999999999999
0029228920999991908061006004+60717+028783FM-12+000399999V0202001N002619999999N0000001N9+01171+99999102241ADDGF100991999999999999999999
0029228920999991908061013004+60717+028783FM-12+000399999V0202301N004619999999N0000001N9+01671+99999102031ADDGF101991999999999999999999
0029228920999991908061020004+60717+028783FM-12+000399999V0202301N002619999999N0000001N9+01171+99999101961ADDGF100991999999999999999999
0029228920999991908061106004+60717+028783FM-12+000399999V0202001N002619999999N0000001N9+01221+99999101951ADDGF100991999999999999999999
0029228920999991908061113004+60717+028783FM-12+000399999V0202301N006719999999N0000001N9+01611+99999101961ADDGF106991999999999999999999
0029228920999991908061120004+60717+028783FM-12+000399999V0209991C000019999999N0000001N9+01111+99999102031ADDGF100991999999999999999999
0029228920999991908061206004+60717+028783FM-12+000399999V0200901N001019999999N0000001N9+01441+99999102111ADDGF100991999999999999999999
0029228920999991908061213004+60717+028783FM-12+000399999V0202001N004619999999N0000001N9+02001+99999101991ADDGF100991999999999999999999
0029228920999991908061220004+60717+028783FM-12+000399999V0202001N002619999999N0000001N9+01441+99999101941ADDGF100991999999999999999999
0029228920999991908061306004+60717+028783FM-12+000399999V0209991C000019999999N0000001N9+01501+99999101951ADDGF100991999999999999999999
0029228920999991908061313004+60717+028783FM-12+000399999V0202301N004619999999N0000001N9+01941+99999101801ADDGF100991999999999999999999
0029228920999991908061320004+60717+028783FM-12+000399999V0201601N001019999999N0000001N9+01611+99999101671ADDGF100991999999999999999999
0029228920999991908061406004+60717+028783FM-12+000399999V0201401N002619999999N0000001N9+01781+99999101591ADDGF100991999999999999999999
0029228920999991908061413004+60717+028783FM-12+000399999V0202001N009319999999N0000001N9+02221+99999101391ADDGF101991999999999999999999
0029228920999991908061420004+60717+028783FM-12+000399999V0201401N004619999999N0000001N9+01781+99999101111ADDGF108991999999999999999999
0029228920999991908061506004+60717+028783FM-12+000399999V0201401N006719999999N0000001N9+01781+99999100551ADDGF108991999999999999999999
0029228920999991908061513004+60717+028783FM-12+000399999V0202001N009319999999N0000001N9+01671+99999100701ADDGF108991999999999999999999
0029228920999991908061520004+60717+028783FM-12+000399999V0202901N002619999999N0000001N9+01441+99999101081ADDGF100991999999999999999999
0029228920999991908061606004+60717+028783FM-12+000399999V0202001N002619999999N0000001N9+01441+99999101871ADDGF100991999999999999999999
0029228920999991908061613004+60717+028783FM-12+000399999V0202001N012319999999N0000001N9+01721+99999102041ADDGF100991999999999999999999
0029228920999991908061620004+60717+028783FM-12+000399999V0202001N009319999999N0000001N9+01281+99999102101ADDGF100991999999999999999999
0029228920999991908061706004+60717+028783FM-12+000399999V0201801N002619999999N0000001N9+01721+99999102141ADDGF100991999999999999999999
0029228920999991908061713004+60717+028783FM-12+000399999V0202001N009319999999N0000001N9+02061+99999101961ADDGF100991999999999999999999
0029228920999991908061720004+60717+028783FM-12+000399999V0202001N002619999999N0000001N9+01671+99999101761ADDGF100991999999999999999999
0029228920999991908061806004+60717+028783FM-12+000399999V0202001N002619999999N0000001N9+01941+99999101781ADDGF100991999999999999999999
0029228920999991908061813004+60717+028783FM-12+000399999V0202001N009319999999N0000001N9+02611+99999101621ADDGF100991999999999999999999
0029228920999991908061820004+60717+028783FM-12+000399999V0201601N001019999999N0000001N9+02281+99999101441ADDGF100991999999999999999999
0029228920999991908061906004+60717+028783FM-12+000399999V0202001N002619999999N0000001N9+02171+99999101311ADDGF100991999999999999999999
0029228920999991908061913004+60717+028783FM-12+000399999V0202001N009319999999N0000001N9+02501+99999101231ADDGF100991999999999999999999
0029228920999991908061920004+60717+028783FM-12+000399999V0202001N004619999999N0000001N9+01891+99999101111ADDGF100991999999999999999999
0029228920999991908062006004+60717+028783FM-12+000399999V0201601N001019999999N0000001N9+01941+99999101001ADDGF102991999999999999999999
0029228920999991908062013004+60717+028783FM-12+000399999V0202001N012319999999N0000001N9+02611+99999100741ADDGF106991999999999999999999
0029228920999991908062020004+60717+028783FM-12+000399999V0201101N002619999999N0000001N9+02111+99999100231ADDGF106991999999999999999999
0029228920999991908062106004+60717+028783FM-12+000399999V0203201N006719999999N0000001N9+01111+99999100961ADDGF108991999999999999999999
0029228920999991908062113004+60717+028783FM-12+000399999V0203401N012319999999N0000001N9+01501+99999101561ADDGF100991999999999999999999
0029228920999991908062120004+60717+028783FM-12+000399999V0200201N001019999999N0000001N9+01001+99999102281ADDGF100991999999999999999999
0029228920999991908062206004+60717+028783FM-12+000399999V0200701N002619999999N0000001N9+01281+99999102741ADDGF100991999999999999999999
0029228920999991908062213004+60717+028783FM-12+000399999V0200501N002619999999N0000001N9+01671+99999102751ADDGF105991999999999999999999
0029228920999991908062220004+60717+028783FM-12+000399999V0209991C000019999999N0000001N9+01281+99999102831ADDGF100991999999999999999999
0029228920999991908062306004+60717+028783FM-12+000399999V0200501N001019999999N0000001N9+01561+99999103061ADDGF100991999999999999999999
0029228920999991908062313004+60717+028783FM-12+000399999V0200701N002619999999N0000001N9+01891+99999102961ADDGF100991999999999999999999
0029228920999991908062320004+60717+028783FM-12+000399999V0209991C000019999999N0000001N9+02061+99999102941ADDGF100991999999999999999999
0029228920999991908062406004+60717+028783FM-12+000399999V0203601N001019999999N0000001N9+01721+99999102991ADDGF100991999999999999999999
0029228920999991908062413004+60717+028783FM-12+000399999V0203401N002619999999N0000001N9+02221+99999102601ADDGF100991999999999999999999
0029228920999991908062420004+60717+028783FM-12+000399999V0209991C000019999999N0000001N9+01441+99999102271ADDGF100991999999999999999999
0029228920999991908062506004+60717+028783FM-12+000399999V0200501N001019999999N0000001N9+01941+99999102021ADDGF100991999999999999999999
0029228920999991908062513004+60717+028783FM-12+000399999V0201101N006719999999N0000001N9+02331+99999101601ADDGF100991999999999999999999
0029228920999991908062520004+60717+028783FM-12+000399999V0201101N001019999999N0000001N9+01611+99999101521ADDGF104991999999999999999999
0029228920999991908062606004+60717+028783FM-12+000399999V0200701N001019999999N0000001N9+01221+99999100941ADDGF108991999999999999999999
0029228920999991908062613004+60717+028783FM-12+000399999V0201601N001019999999N0000001N9+01831+99999100681ADDGF108991999999999999999999
0029228920999991908062620004+60717+028783FM-12+000399999V0202301N002619999999N0000001N9+01441+99999100431ADDGF102991999999999999999999
0035228920999991908062706004+60717+028783FM-12+000399999V0203201N009319999999N0000001N9+01331+99999099431ADDGF108991999999999999999999MW1621
0035228920999991908062713004+60717+028783FM-12+000399999V0202701N004619999999N0000001N9+01561+99999100261ADDGF108991999999999999999999MW1621
0029228920999991908062720004+60717+028783FM-12+000399999V0203201N006719999999N0000001N9+01391+99999100781ADDGF106991999999999999999999
0029228920999991908062806004+60717+028783FM-12+000399999V0203401N006719999999N0000001N9+01331+99999100941ADDGF108991999999999999999999
0029228920999991908062813004+60717+028783FM-12+000399999V0203401N006719999999N0000001N9+01561+99999100881ADDGF108991999999999999999999
0029228920999991908062820004+60717+028783FM-12+000399999V0203201N002619999999N0000001N9+01391+99999100621ADDGF106991999999999999999999
0029228920999991908062906004+60717+028783FM-12+000399999V0203401N004619999999N0000001N9+01391+99999100421ADDGF108991999999999999999999
0029228920999991908062913004+60717+028783FM-12+000399999V0209991C000019999999N0000001N9+01221+99999100541ADDGF108991999999999999999999
0035228920999991908062920004+60717+028783FM-12+000399999V0200201N002619999999N0000001N9+01111+99999100751ADDGF108991999999999999999999MW1621
0029228920999991908063006004+60717+028783FM-12+000399999V0203601N002619999999N0000001N9+01001+99999100991ADDGF108991999999999999999999
0029228920999991908063013004+60717+028783FM-12+000399999V0203401N006719999999N0000001N9+01061+99999101201ADDGF108991999999999999999999
0035228920999991908063020004+60717+028783FM-12+000399999V0203401N002619999999N0000001N9+00941+99999101321ADDGF108991999999999999999999MW1601
0029228920999991908070106004+60717+028783FM-12+000399999V0203401N004619999999N0000001N9+00831+99999101141ADDGF108991999999999999999999
0029228920999991908070113004+60717+028783FM-12+000399999V0203401N009319999999N0000001N9+01111+99999101041ADDGF108991999999999999999999
0029228920999991908070120004+60717+028783FM-12+000399999V0203401N012319999999N0000001N9+01001+99999100761ADDGF108991999999999999999999
0029228920999991908070206004+60717+028783FM-12+000399999V0203601N009319999999N0000001N9+00831+99999100271ADDGF108991999999999999999999
0029228920999991908070213004+60717+028783FM-12+000399999V0203601N009319999999N0000001N9+01111+99999100341ADDGF108991999999999999999999
0029228920999991908070220004+60717+028783FM-12+000399999V0203601N004619999999N0000001N9+00891+99999100341ADDGF108991999999999999999999
0029228920999991908070306004+60717+028783FM-12+000399999V0203401N004619999999N0000001N9+00891+99999099961ADDGF108991999999999999999999
0035228920999991908070313004+60717+028783FM-12+000399999V0203401N002619999999N0000001N9+01001+99999099871ADDGF108991999999999999999999MW1621
0029228920999991908070320004+60717+028783FM-12+000399999V0200501N002619999999N0000001N9+00831+99999099881ADDGF108991999999999999999999
0029228920999991908070406004+60717+028783FM-12+000399999V0200501N002619999999N0000001N9+01221+99999099901ADDGF108991999999999999999999
0029228920999991908070413004+60717+028783FM-12+000399999V0200501N002619999999N0000001N9+01561+99999100071ADDGF107991999999999999999999
0029228920999991908070420004+60717+028783FM-12+000399999V0200501N001019999999N0000001N9+01281+99999100181ADDGF107991999999999999999999
0035228920999991908070506004+60717+028783FM-12+000399999V0200201N002619999999N0000001N9+01061+99999100271ADDGF108991999999999999999999MW1621
0029228920999991908070513004+60717+028783FM-12+000399999V0200201N001019999999N0000001N9+01331+99999100421ADDGF108991999999999999999999
0035228920999991908070520004+60717+028783FM-12+000399999V0200201N001019999999N0000001N9+01171+99999100381ADDGF108991999999999999999999MW1621
0029228920999991908070606004+60717+028783FM-12+000399999V0200501N002619999999N0000001N9+01001+99999100341ADDGF108991999999999999999999
0029228920999991908070613004+60717+028783FM-12+000399999V0200901N002619999999N0000001N9+01171+99999100391ADDGF108991999999999999999999
0029228920999991908070620004+60717+028783FM-12+000399999V0200701N002619999999N0000001N9+01001+99999100421ADDGF108991999999999999999999
0035228920999991908070706004+60717+028783FM-12+000399999V0200501N001019999999N0000001N9+00721+99999100381ADDGF108991999999999999999999MW1621
0029228920999991908070713004+60717+028783FM-12+000399999V0200701N002619999999N0000001N9+00891+99999100471ADDGF108991999999999999999999
0029228920999991908070720004+60717+028783FM-12+000399999V0203601N002619999999N0000001N9+00941+99999100471ADDGF108991999999999999999999
0029228920999991908070806004+60717+028783FM-12+000399999V0200501N001019999999N0000001N9+01111+99999100621ADDGF100991999999999999999999
0029228920999991908070813004+60717+028783FM-12+000399999V0203601N002619999999N0000001N9+01501+99999100641ADDGF100991999999999999999999
0029228920999991908070820004+60717+028783FM-12+000399999V0209991C000019999999N0000001N9+01221+99999100701ADDGF102991999999999999999999
0029228920999991908070906004+60717+028783FM-12+000399999V0209991C000019999999N0000001N9+01281+99999100661ADDGF104991999999999999999999
0029228920999991908070913004+60717+028783FM-12+000399999V0201401N001019999999N0000001N9+01721+99999100601ADDGF107991999999999999999999
0029228920999991908070920004+60717+028783FM-12+000399999V0202001N001019999999N0000001N9+01171+99999100591ADDGF103991999999999999999999
0029228920999991908071006004+60717+028783FM-12+000399999V0201401N001019999999N0000001N9+01331+99999100591ADDGF102991999999999999999999
0029228920999991908071013004+60717+028783FM-12+000399999V0202001N009319999999N0000001N9+01831+99999100591ADDGF104991999999999999999999
0029228920999991908071020004+60717+028783FM-12+000399999V0202501N002619999999N0000001N9+01391+99999100671ADDGF102991999999999999999999
0029228920999991908071106004+60717+028783FM-12+000399999V0202001N009319999999N0000001N9+01501+99999100701ADDGF100991999999999999999999
0029228920999991908071113004+60717+028783FM-12+000399999V0202001N009319999999N0000001N9+01781+99999100721ADDGF100991999999999999999999
0029228920999991908071120004+60717+028783FM-12+000399999V0202001N006719999999N0000001N9+01391+99999100751ADDGF102991999999999999999999
0029228920999991908071206004+60717+028783FM-12+000399999V0202001N001019999999N0000001N9+01831+99999100761ADDGF102991999999999999999999
0029228920999991908071213004+60717+028783FM-12+000399999V0202001N004619999999N0000001N9+01831+99999100741ADDGF108991999999999999999999
0029228920999991908071220004+60717+028783FM-12+000399999V0201601N002619999999N0000001N9+01441+99999100821ADDGF108991999999999999999999
0029228920999991908071306004+60717+028783FM-12+000399999V0201101N002619999999N0000001N9+01671+99999100591ADDGF108991999999999999999999
0029228920999991908071313004+60717+028783FM-12+000399999V0202001N012319999999N0000001N9+01891+99999100551ADDGF101991999999999999999999
0029228920999991908071320004+60717+028783FM-12+000399999V0202001N004619999999N0000001N9+01611+99999100671ADDGF102991999999999999999999
0029228920999991908071406004+60717+028783FM-12+000399999V0209991C000019999999N0000001N9+01721+99999100751ADDGF100991999999999999999999
0029228920999991908071413004+60717+028783FM-12+000399999V0200201N001019999999N0000001N9+02441+99999100741ADDGF100991999999999999999999
0029228920999991908071420004+60717+028783FM-12+000399999V0200901N002619999999N0000001N9+01941+99999100671ADDGF104991999999999999999999
0029228920999991908071506004+60717+028783FM-12+000399999V0202001N004619999999N0000001N9+01671+99999100861ADDGF108991999999999999999999
0029228920999991908071513004+60717+028783FM-12+000399999V0202001N009319999999N0000001N9+01941+99999101081ADDGF104991999999999999999999
0029228920999991908071520004+60717+028783FM-12+000399999V0202001N002619999999N0000001N9+01561+99999101121ADDGF107991999999999999999999
0029228920999991908071606004+60717+028783FM-12+000399999V0202001N001019999999N0000001N9+01721+99999101341ADDGF102991999999999999999999
0029228920999991908071613004+60717+028783FM-12+000399999V0202001N006719999999N0000001N9+02221+99999101281ADDGF106991999999999999999999
0029228920999991908071620004+60717+028783FM-12+000399999V0202001N002619999999N0000001N9+01671+99999101221ADDGF100991999999999999999999
0029228920999991908071706004+60717+028783FM-12+000399999V0209991C000019999999N0000001N9+01891+99999101381ADDGF102991999999999999999999
0029228920999991908071713004+60717+028783FM-12+000399999V0202001N002619999999N0000001N9+02331+99999101391ADDGF100991999999999999999999
0029228920999991908071720004+60717+028783FM-12+000399999V0202001N001019999999N0000001N9+01561+99999101461ADDGF100991999999999999999999
0029228920999991908071806004+60717+028783FM-12+000399999V0200901N002619999999N0000001N9+01781+99999101681ADDGF100991999999999999999999
0029228920999991908071813004+60717+028783FM-12+000399999V0201401N001019999999N0000001N9+02561+99999101681ADDGF100991999999999999999999
0029228920999991908071820004+60717+028783FM-12+000399999V0200901N001019999999N0000001N9+02001+99999101791ADDGF101991999999999999999999
0029228920999991908071906004+60717+028783FM-12+000399999V0200901N001019999999N0000001N9+01941+99999101881ADDGF106991999999999999999999
0029228920999991908071913004+60717+028783FM-12+000399999V0200701N001019999999N0000001N9+02781+99999101761ADDGF101991999999999999999999
0029228920999991908071920004+60717+028783FM-12+000399999V0201101N001019999999N0000001N9+02111+99999101641ADDGF100991999999999999999999
0029228920999991908072006004+60717+028783FM-12+000399999V0201401N001019999999N0000001N9+02111+99999101471ADDGF108991999999999999999999
0029228920999991908072013004+60717+028783FM-12+000399999V0202301N004619999999N0000001N9+02611+99999101311ADDGF100991999999999999999999
0029228920999991908072020004+60717+028783FM-12+000399999V0209991C000019999999N0000001N9+02111+99999101101ADDGF101991999999999999999999
0029228920999991908072106004+60717+028783FM-12+000399999V0201401N001019999999N0000001N9+02391+99999100921ADDGF108991999999999999999999
0029228920999991908072113004+60717+028783FM-12+000399999V0201601N009319999999N0000001N9+02891+99999100601ADDGF100991999999999999999999
0029228920999991908072120004+60717+028783FM-12+000399999V0201101N001019999999N0000001N9+02061+99999100591ADDGF108991999999999999999999
0029228920999991908072206004+60717+028783FM-12+000399999V0209991C000019999999N0000001N9+01671+99999100941ADDGF108991999999999999999999
0029228920999991908072213004+60717+028783FM-12+000399999V0203401N001019999999N0000001N9+01831+99999101181ADDGF108991999999999999999999
0029228920999991908072220004+60717+028783FM-12+000399999V0200201N001019999999N0000001N9+01671+99999101391ADDGF102991999999999999999999
0029228920999991908072306004+60717+028783FM-12+000399999V0200201N002619999999N0000001N9+01501+99999101861ADDGF100991999999999999999999
0029228920999991908072313004+60717+028783FM-12+000399999V0200501N002619999999N0000001N9+02001+99999102071ADDGF100991999999999999999999
0029228920999991908072320004+60717+028783FM-12+000399999V0200901N001019999999N0000001N9+01611+99999102241ADDGF100991999999999999999999
0029228920999991908072406004+60717+028783FM-12+000399999V0200701N002619999999N0000001N9+01561+99999102511ADDGF100991999999999999999999
0029228920999991908072413004+60717+028783FM-12+000399999V0200901N004619999999N0000001N9+02001+99999102481ADDGF100991999999999999999999
0029228920999991908072420004+60717+028783FM-12+000399999V0200901N001019999999N0000001N9+01501+99999102521ADDGF100991999999999999999999
0029228920999991908072506004+60717+028783FM-12+000399999V0200901N001019999999N0000001N9+01781+99999102681ADDGF100991999999999999999999
0029228920999991908072513004+60717+028783FM-12+000399999V0200201N002619999999N0000001N9+02391+99999102631ADDGF100991999999999999999999
0029228920999991908072520004+60717+028783FM-12+000399999V0200901N001019999999N0000001N9+01721+99999102591ADDGF100991999999999999999999
0029228920999991908072606004+60717+028783FM-12+000399999V0200701N001019999999N0000001N9+02061+99999102711ADDGF100991999999999999999999
0029228920999991908072613004+60717+028783FM-12+000399999V0201801N001019999999N0000001N9+02561+99999102621ADDGF100991999999999999999999
0029228920999991908072620004+60717+028783FM-12+000399999V0209991C000019999999N0000001N9+01941+99999102561ADDGF100991999999999999999999
0029228920999991908072706004+60717+028783FM-12+000399999V0200901N001019999999N0000001N9+02001+99999102601ADDGF100991999999999999999999
0029228920999991908072713004+60717+028783FM-12+000399999V0200701N004619999999N0000001N9+02441+99999102551ADDGF100991999999999999999999
0029228920999991908072720004+60717+028783FM-12+000399999V0200901N001019999999N0000001N9+01781+99999102591ADDGF100991999999999999999999
0029228920999991908072806004+60717+028783FM-12+000399999V0200901N001019999999N0000001N9+01831+99999102711ADDGF100991999999999999999999
0029228920999991908072813004+60717+028783FM-12+000399999V0202301N004619999999N0000001N9+02441+99999102631ADDGF100991999999999999999999
0029228920999991908072820004+60717+028783FM-12+000399999V0202001N001019999999N0000001N9+01941+99999102481ADDGF100991999999999999999999
0029228920999991908072906004+60717+028783FM-12+000399999V0202001N001019999999N0000001N9+02061+99999102481ADDGF100991999999999999999999
0029228920999991908072913004+60717+028783FM-12+000399999V0202001N006719999999N0000001N9+02391+99999102391ADDGF100991999999999999999999
0029228920999991908072920004+60717+028783FM-12+000399999V0202001N002619999999N0000001N9+01941+99999102201ADDGF100991999999999999999999
0029228920999991908073006004+60717+028783FM-12+000399999V0202501N001019999999N0000001N9+02061+99999102121ADDGF100991999999999999999999
0029228920999991908073013004+60717+028783FM-12+000399999V0202001N009319999999N0000001N9+02561+99999101921ADDGF102991999999999999999999
0029228920999991908073020004+60717+028783FM-12+000399999V0202001N004619999999N0000001N9+01941+99999101681ADDGF100991999999999999999999
0029228920999991908073106004+60717+028783FM-12+000399999V0201801N004619999999N0000001N9+02171+99999101261ADDGF100991999999999999999999
0029228920999991908073113004+60717+028783FM-12+000399999V0202001N006719999999N0000001N9+02611+99999101001ADDGF102991999999999999999999
0035228920999991908073120004+60717+028783FM-12+000399999V0201801N002619999999N0000001N9+01941+99999100821ADDGF108991999999999999999999MW1621
0035228920999991908080106004+60717+028783FM-12+000399999V0201601N004619999999N0000001N9+02001+99999100381ADDGF108991999999999999999999MW1621
0029228920999991908080113004+60717+028783FM-12+000399999V0202001N004619999999N0000001N9+02221+99999100641ADDGF108991999999999999999999
0029228920999991908080120004+60717+028783FM-12+000399999V0209991C000019999999N0000001N9+01721+99999100781ADDGF108991999999999999999999
0029228920999991908080206004+60717+028783FM-12+000399999V0201101N002619999999N0000001N9+01831+99999100621ADDGF108991999999999999999999
0029228920999991908080213004+60717+028783FM-12+000399999V0201401N004619999999N0000001N9+02221+99999100821ADDGF107991999999999999999999
0029228920999991908080220004+60717+028783FM-12+000399999V0209991C000019999999N0000001N9+01781+99999100791ADDGF108991999999999999999999
0029228920999991908080306004+60717+028783FM-12+000399999V0200901N004619999999N0000001N9+02061+99999100471ADDGF100991999999999999999999
0029228920999991908080313004+60717+028783FM-12+000399999V0200901N009319999999N0000001N9+02501+99999100221ADDGF100991999999999999999999
0029228920999991908080320004+60717+028783FM-12+000399999V0209991C000019999999N0000001N9+01891+99999100071ADDGF100991999999999999999999
0029228920999991908080406004+60717+028783FM-12+000399999V0200701N012319999999N0000001N9+01831+99999099871ADDGF100991999999999999999999
0029228920999991908080413004+60717+028783FM-12+000399999V0200201N006719999999N0000001N9+02501+99999099881ADDGF100991999999999999999999
0029228920999991908080420004+60717+028783FM-12+000399999V0200501N001019999999N0000001N9+01831+99999099911ADDGF100991999999999999999999
0029228920999991908080506004+60717+028783FM-12+000399999V0200201N006719999999N0000001N9+01611+99999099791ADDGF100991999999999999999999
0035228920999991908080513004+60717+028783FM-12+000399999V0200201N002619999999N0000001N9+01561+99999099961ADDGF108991999999999999999999MW1621
0029228920999991908080520004+60717+028783FM-12+000399999V0200201N001019999999N0000001N9+01441+99999100221ADDGF108991999999999999999999
0035228920999991908080606004+60717+028783FM-12+000399999V0209991C000019999999N0000001N9+01501+99999100511ADDGF108991999999999999999999MW1621
0029228920999991908080613004+60717+028783FM-12+000399999V0200201N002619999999N0000001N9+01891+99999100721ADDGF108991999999999999999999
0029228920999991908080620004+60717+028783FM-12+000399999V0209991C000019999999N0000001N9+01611+99999100761ADDGF102991999999999999999999
0029228920999991908080706004+60717+028783FM-12+000399999V0203401N001019999999N0000001N9+01781+99999100751ADDGF100991999999999999999999
0029228920999991908080713004+60717+028783FM-12+000399999V0200201N002619999999N0000001N9+02171+99999100661ADDGF104991999999999999999999
0029228920999991908080720004+60717+028783FM-12+000399999V0209991C000019999999N0000001N9+01671+99999100671ADDGF100991999999999999999999
0029228920999991908080806004+60717+028783FM-12+000399999V0209991C000019999999N0000001N9+01611+99999100681ADDGF106991999999999999999999
0029228920999991908080813004+60717+028783FM-12+000399999V0209991C000019999999N0000001N9+02111+99999100681ADDGF100991999999999999999999
0029228920999991908080820004+60717+028783FM-12+000399999V0209991C000019999999N0000001N9+01501+99999100721ADDGF108991999999999999999999
0029228920999991908080906004+60717+028783FM-12+000399999V0209991C000019999999N0000001N9+01561+99999100841ADDGF108991999999999999999999
0029228920999991908080913004+60717+028783FM-12+000399999V0209991C000019999999N0000001N9+02171+99999100841ADDGF102991999999999999999999
0029228920999991908080920004+60717+028783FM-12+000399999V0209991C000019999999N0000001N9+01671+99999100921ADDGF101991999999999999999999
0029228920999991908081006004+60717+028783FM-12+000399999V0209991C000019999999N0000001N9+01441+99999101271ADDGF100991999999999999999999
0029228920999991908081013004+60717+028783FM-12+000399999V0202301N002619999999N0000001N9+02501+99999101381ADDGF106991999999999999999999
0029228920999991908081020004+60717+028783FM-12+000399999V0209991C000019999999N0000001N9+01781+99999101551ADDGF100991999999999999999999
0029228920999991908081106004+60717+028783FM-12+000399999V0200901N001019999999N0000001N9+01611+99999101721ADDGF100991999999999999999999
0029228920999991908081113004+60717+028783FM-12+000399999V0201801N001019999999N0000001N9+02501+99999101621ADDGF100991999999999999999999
0029228920999991908081120004+60717+028783FM-12+000399999V0201101N002619999999N0000001N9+01831+99999101581ADDGF100991999999999999999999
0029228920999991908081206004+60717+028783FM-12+000399999V0200701N001019999999N0000001N9+01831+99999101511ADDGF100991999999999999999999
0029228920999991908081213004+60717+028783FM-12+000399999V0200901N009319999999N0000001N9+02501+99999101351ADDGF100991999999999999999999
0029228920999991908081220004+60717+028783FM-12+000399999V0200701N001019999999N0000001N9+01831+99999101431ADDGF100991999999999999999999
0029228920999991908081306004+60717+028783FM-12+000399999V0200901N004619999999N0000001N9+01831+99999101421ADDGF100991999999999999999999
0029228920999991908081313004+60717+028783FM-12+000399999V0200701N009319999999N0000001N9+02281+99999101381ADDGF100991999999999999999999
0029228920999991908081320004+60717+028783FM-12+000399999V0200501N002619999999N0000001N9+01671+99999101461ADDGF100991999999999999999999
0029228920999991908081406004+60717+028783FM-12+000399999V0200501N009319999999N0000001N9+01441+99999101501ADDGF100991999999999999999999
0029228920999991908081413004+60717+028783FM-12+000399999V0200501N006719999999N0000001N9+01781+99999101481ADDGF105991999999999999999999
0029228920999991908081420004+60717+028783FM-12+000399999V0200501N004619999999N0000001N9+01391+99999101401ADDGF103991999999999999999999
0035228920999991908081506004+60717+028783FM-12+000399999V0200901N002619999999N0000001N9+01331+99999101111ADDGF108991999999999999999999MW1621
0029228920999991908081513004+60717+028783FM-12+000399999V0200701N009319999999N0000001N9+01561+99999101021ADDGF108991999999999999999999
0029228920999991908081520004+60717+028783FM-12+000399999V0200201N004619999999N0000001N9+01221+99999100991ADDGF108991999999999999999999
0029228920999991908081606004+60717+028783FM-12+000399999V0200201N006719999999N0000001N9+01331+99999100741ADDGF103991999999999999999999
0029228920999991908081613004+60717+028783FM-12+000399999V0200501N004619999999N0000001N9+01891+99999100621ADDGF106991999999999999999999
0029228920999991908081620004+60717+028783FM-12+000399999V0200201N002619999999N0000001N9+01501+99999100701ADDGF108991999999999999999999
0029228920999991908081706004+60717+028783FM-12+000399999V0200201N002619999999N0000001N9+01501+99999100701ADDGF108991999999999999999999
0029228920999991908081713004+60717+028783FM-12+000399999V0200201N004619999999N0000001N9+01891+99999100751ADDGF108991999999999999999999
0029228920999991908081720004+60717+028783FM-12+000399999V0203601N001019999999N0000001N9+01671+99999100791ADDGF108991999999999999999999
0029228920999991908081806004+60717+028783FM-12+000399999V0209991C000019999999N0000001N9+01561+99999100781ADDGF100991999999999999999999
0029228920999991908081813004+60717+028783FM-12+000399999V0203401N004619999999N0000001N9+02171+99999100551ADDGF101991999999999999999999
0029228920999991908081820004+60717+028783FM-12+000399999V0209991C000019999999N0000001N9+01611+99999100361ADDGF101991999999999999999999
0029228920999991908081906004+60717+028783FM-12+000399999V0202701N002619999999N0000001N9+01331+99999100101ADDGF108991999999999999999999
0029228920999991908081913004+60717+028783FM-12+000399999V0203401N015419999999N0000001N9+01391+99999100161ADDGF108991999999999999999999
0029228920999991908081920004+60717+028783FM-12+000399999V0203401N012319999999N0000001N9+01171+99999100391ADDGF106991999999999999999999
0029228920999991908082006004+60717+028783FM-12+000399999V0203401N012319999999N0000001N9+01061+99999100541ADDGF107991999999999999999999
0029228920999991908082013004+60717+028783FM-12+000399999V0203401N015419999999N0000001N9+01171+99999100751ADDGF108991999999999999999999
0029228920999991908082020004+60717+028783FM-12+000399999V0203401N009319999999N0000001N9+00831+99999100821ADDGF108991999999999999999999
0029228920999991908082106004+60717+028783FM-12+000399999V0203401N015419999999N0000001N9+00941+99999100701ADDGF107991999999999999999999
0029228920999991908082113004+60717+028783FM-12+000399999V0203401N012319999999N0000001N9+01391+99999100901ADDGF106991999999999999999999
0029228920999991908082120004+60717+028783FM-12+000399999V0209991C000019999999N0000001N9+01001+99999101161ADDGF100991999999999999999999
0029228920999991908082206004+60717+028783FM-12+000399999V0209991C000019999999N0000001N9+00891+99999101511ADDGF102991999999999999999999
0029228920999991908082213004+60717+028783FM-12+000399999V0202301N006719999999N0000001N9+01611+99999101541ADDGF100991999999999999999999
0029228920999991908082220004+60717+028783FM-12+000399999V0201801N001019999999N0000001N9+01171+99999101421ADDGF102991999999999999999999
0029228920999991908082306004+60717+028783FM-12+000399999V0201401N001019999999N0000001N9+01281+99999101031ADDGF102991999999999999999999
0035228920999991908082313004+60717+028783FM-12+000399999V0201401N002619999999N0000001N9+01781+99999100441ADDGF108991999999999999999999MW1621
0035228920999991908082320004+60717+028783FM-12+000399999V0202301N006719999999N0000001N9+01391+99999099741ADDGF108991999999999999999999MW1621
0029228920999991908082406004+60717+028783FM-12+000399999V0203401N004619999999N0000001N9+01281+99999099981ADDGF108991999999999999999999
0029228920999991908082413004+60717+028783FM-12+000399999V0201801N001019999999N0000001N9+02001+99999100271ADDGF104991999999999999999999
0029228920999991908082420004+60717+028783FM-12+000399999V0209991C000019999999N0000001N9+01281+99999100241ADDGF101991999999999999999999
0029228920999991908082506004+60717+028783FM-12+000399999V0201401N001019999999N0000001N9+01281+99999100061ADDGF101991999999999999999999
0029228920999991908082513004+60717+028783FM-12+000399999V0200501N004619999999N0000001N9+01611+99999100071ADDGF101991999999999999999999
0029228920999991908082520004+60717+028783FM-12+000399999V0209991C000019999999N0000001N9+01001+99999100321ADDGF100991999999999999999999
0029228920999991908082606004+60717+028783FM-12+000399999V0209991C000019999999N0000001N9+01001+99999100581ADDGF101991999999999999999999
0035228920999991908082613004+60717+028783FM-12+000399999V0202001N004619999999N0000001N9+01721+99999100601ADDGF106991999999999999999999MW1621
0029228920999991908082620004+60717+028783FM-12+000399999V0209991C000019999999N0000001N9+01061+99999100621ADDGF100991999999999999999999
0035228920999991908082706004+60717+028783FM-12+000399999V0201401N001019999999N0000001N9+01171+99999100181ADDGF108991999999999999999999MW1621
0029228920999991908082713004+60717+028783FM-12+000399999V0202001N002619999999N0000001N9+01441+99999099941ADDGF108991999999999999999999
0029228920999991908082720004+60717+028783FM-12+000399999V0202001N004619999999N0000001N9+01391+99999099981ADDGF108991999999999999999999
0035228920999991908082806004+60717+028783FM-12+000399999V0201601N009319999999N0000001N9+01331+99999099681ADDGF108991999999999999999999MW1621
0029228920999991908082813004+60717+028783FM-12+000399999V0202301N009319999999N0000001N9+01671+99999099801ADDGF102991999999999999999999
0029228920999991908082820004+60717+028783FM-12+000399999V0202001N009319999999N0000001N9+01221+99999099921ADDGF100991999999999999999999
0029228920999991908082906004+60717+028783FM-12+000399999V0201601N002619999999N0000001N9+01331+99999099681ADDGF108991999999999999999999
0029228920999991908082913004+60717+028783FM-12+000399999V0202001N002619999999N0000001N9+01721+99999099431ADDGF100991999999999999999999
0029228920999991908082920004+60717+028783FM-12+000399999V0209991C000019999999N0000001N9+01061+99999099271ADDGF100991999999999999999999
0029228920999991908083006004+60717+028783FM-12+000399999V0201801N001019999999N0000001N9+01221+99999099601ADDGF108991999999999999999999
0029228920999991908083013004+60717+028783FM-12+000399999V0202301N006719999999N0000001N9+01611+99999099981ADDGF104991999999999999999999
0029228920999991908083020004+60717+028783FM-12+000399999V0202301N004619999999N0000001N9+01171+99999100181ADDGF100991999999999999999999
0029228920999991908083106004+60717+028783FM-12+000399999V0202001N006719999999N0000001N9+01331+99999100141ADDGF108991999999999999999999
0029228920999991908083113004+60717+028783FM-12+000399999V0202001N015419999999N0000001N9+01611+99999100241ADDGF101991999999999999999999
0029228920999991908083120004+60717+028783FM-12+000399999V0202301N006719999999N0000001N9+01171+99999100301ADDGF101991999999999999999999
0029228920999991908090106004+60717+028783FM-12+000399999V0202001N006719999999N0000001N9+01331+99999100391ADDGF106991999999999999999999
0029228920999991908090113004+60717+028783FM-12+000399999V0202001N012319999999N0000001N9+01561+99999100461ADDGF102991999999999999999999
0029228920999991908090120004+60717+028783FM-12+000399999V0201401N001019999999N0000001N9+01171+99999100461ADDGF106991999999999999999999
0029228920999991908090206004+60717+028783FM-12+000399999V0201601N001019999999N0000001N9+01171+99999100311ADDGF108991999999999999999999
0035228920999991908090213004+60717+028783FM-12+000399999V0201101N002619999999N0000001N9+01441+99999100041ADDGF108991999999999999999999MW1621
