0029228920999991915010106004+60717+028783FM-12+000399999V0202901N004119999999N0000001N9-00441+99999101641ADDGF108991999999999999999999
0029228920999991915010113004+60717+028783FM-12+000399999V0209991C000019999999N0000001N9-00281+99999101881ADDGF108991999999999999999999
0029228920999991915010120004+60717+028783FM-12+000399999V0209991C000019999999N0000001N9-00221+99999101941ADDGF108991999999999999999999
0029228920999991915010206004+60717+028783FM-12+000399999V0209991C000019999999N0000001N9-00441+99999101961ADDGF108991999999999999999999
0029228920999991915010213004+60717+028783FM-12+000399999V0209991C000019999999N0000001N9-00331+99999102031ADDGF108991999999999999999999
0029228920999991915010220004+60717+028783FM-12+000399999V0201401N002119999999N0000001N9-00331+99999102071ADDGF108991999999999999999999
0029228920999991915010306004+60717+028783FM-12+000399999V0201401N004119999999N0000001N9-00611+99999102191ADDGF108991999999999999999999
0029228920999991915010313004+60717+028783FM-12+000399999V0201401N002119999999N0000001N9-00561+99999102391ADDGF108991999999999999999999
0029228920999991915010320004+60717+028783FM-12+000399999V0201101N004119999999N0000001N9-00721+99999102431ADDGF108991999999999999999999
0029228920999991915010406004+60717+028783FM-12+000399999V0201101N004119999999N0000001N9-00831+99999102671ADDGF108991999999999999999999
0029228920999991915010413004+60717+028783FM-12+000399999V0201101N002119999999N0000001N9-00781+99999102781ADDGF108991999999999999999999
0029228920999991915010420004+60717+028783FM-12+000399999V0201101N002119999999N0000001N9-00891+99999102901ADDGF108991999999999999999999
0029228920999991915010506004+60717+028783FM-12+000399999V0201101N004119999999N0000001N9-01061+99999102911ADDGF108991999999999999999999
0035228920999991915010513004+60717+028783FM-12+000399999V0201101N002119999999N0000001N9-01331+99999102911ADDGF108991999999999999999999MW1701
0029228920999991915010520004+60717+028783FM-12+000399999V0200901N002119999999N0000001N9-01221+99999102671ADDGF100991999999999999999999
0029228920999991915010606004+60717+028783FM-12+000399999V0200901N008219999999N0000001N9-01331+99999102501ADDGF100991999999999999999999
0029228920999991915010613004+60717+028783FM-12+000399999V0200901N008219999999N0000001N9-01281+99999102461ADDGF100991999999999999999999
0029228920999991915010620004+60717+028783FM-12+000399999V0200901N006219999999N0000001N9-01501+99999102351ADDGF100991999999999999999999
0035228920999991915010706004+60717+028783FM-12+000399999V0201101N008219999999N0000001N9-01941+99999101991ADDGF108991999999999999999999MW1721
0035228920999991915010713004+60717+028783FM-12+000399999V0201101N006219999999N0000001N9-01831+99999101741ADDGF108991999999999999999999MW1701
0029228920999991915010720004+60717+028783FM-12+000399999V0201101N006219999999N0000001N9-01721+99999101501ADDGF108991999999999999999999
0029228920999991915010806004+60717+028783FM-12+000399999V0201101N004119999999N0000001N9-01561+99999100791ADDGF108991999999999999999999
0035228920999991915010813004+60717+028783FM-12+000399999V0201101N004119999999N0000001N9-01331+99999100391ADDGF108991999999999999999999MW1721
0029228920999991915010820004+60717+028783FM-12+000399999V0200901N004119999999N0000001N9-01281+99999099841ADDGF108991999999999999999999
0035228920999991915010906004+60717+028783FM-12+000399999V0200901N006219999999N0000001N9-00831+99999098831ADDGF108991999999999999999999MW1721
0035228920999991915010913004+60717+028783FM-12+000399999V0200901N004119999999N0000001N9-00671+99999098601ADDGF108991999999999999999999MW1721
0035228920999991915010920004+60717+028783FM-12+000399999V0203401N004119999999N0000001N9-00941+99999098871ADDGF108991999999999999999999MW1721
0029228920999991915011006004+60717+028783FM-12+000399999V0209991C000019999999N0000001N9-01721+99999099941ADDGF100991999999999999999999
0029228920999991915011013004+60717+028783FM-12+000399999V0209991C000019999999N0000001N9-01561+99999100461ADDGF108991999999999999999999
0029228920999991915011020004+60717+028783FM-12+000399999V0201101N004119999999N0000001N9-00891+99999100301ADDGF107991999999999999999999
0029228920999991915011106004+60717+028783FM-12+000399999V0201101N002119999999N0000001N9-00941+99999999999ADDGF108991999999999999999999
0029228920999991915011113004+60717+028783FM-12+000399999V0200201N002119999999N0000001N9-00671+99999099481ADDGF108991999999999999999999
0035228920999991915011120004+60717+028783FM-12+000399999V0203201N002119999999N0000001N9-00891+99999099271ADDGF108991999999999999999999MW1721
0029228920999991915011206004+60717+028783FM-12+000399999V0202701N004119999999N0000001N9-00671+99999099761ADDGF108991999999999999999999
0029228920999991915011213004+60717+028783FM-12+000399999V0202701N004119999999N0000001N9-00781+99999100511ADDGF108991999999999999999999
0029228920999991915011220004+60717+028783FM-12+000399999V0209991C000019999999N0000001N9-01281+99999101031ADDGF100991999999999999999999
0029228920999991915011306004+60717+028783FM-12+000399999V0209991C000019999999N0000001N9-01171+99999101311ADDGF108991999999999999999999
0029228920999991915011313004+60717+028783FM-12+000399999V0203401N002119999999N0000001N9-00831+99999101461ADDGF108991999999999999999999
0029228920999991915011320004+60717+028783FM-12+000399999V0203401N002119999999N0000001N9-00781+99999101641ADDGF108991999999999999999999
0029228920999991915011406004+60717+028783FM-12+000399999V0209991C000019999999N0000001N9-00831+99999101621ADDGF108991999999999999999999
0029228920999991915011413004+60717+028783FM-12+000399999V0209991C000019999999N0000001N9-00781+99999101621ADDGF108991999999999999999999
0029228920999991915011420004+60717+028783FM-12+000399999V0209991C000019999999N0000001N9-01001+99999101641ADDGF108991999999999999999999
0029228920999991915011506004+60717+028783FM-12+000399999V0201601N002119999999N0000001N9-00941+99999101311ADDGF108991999999999999999999
0029228920999991915011513004+60717+028783FM-12+000399999V0201101N004119999999N0000001N9-00831+99999100751ADDGF108991999999999999999999
0035228920999991915011520004+60717+028783FM-12+000399999V0201101N004119999999N0000001N9-00721+99999099641ADDGF108991999999999999999999MW1721
0029228920999991915011606004+60717+028783FM-12+000399999V0201101N004119999999N0000001N9-00331+99999098471ADDGF108991999999999999999999
0035228920999991915011613004+60717+028783FM-12+000399999V0201401N004119999999N0000001N9-00281+99999098261ADDGF108991999999999999999999MW1721
0035228920999991915011620004+60717+028783FM-12+000399999V0201401N002119999999N0000001N9-00171+99999098201ADDGF108991999999999999999999MW1721
0029228920999991915011706004+60717+028783FM-12+000399999V0201401N002119999999N0000001N9-00061+99999098401ADDGF108991999999999999999999
0035228920999991915011713004+60717+028783FM-12+000399999V0209991C000019999999N0000001N9+00001+99999098541ADDGF108991999999999999999999MW1721
0029228920999991915011720004+60717+028783FM-12+000399999V0203401N004119999999N0000001N9-00331+99999098681ADDGF108991999999999999999999
0035228920999991915011806004+60717+028783FM-12+000399999V0203401N002119999999N0000001N9-00721+99999099201ADDGF108991999999999999999999MW1721
0035228920999991915011813004+60717+028783FM-12+000399999V0209991C000019999999N0000001N9-00941+99999099871ADDGF105991999999999999999999MW1721
0029228920999991915011820004+60717+028783FM-12+000399999V0203401N004119999999N0000001N9-01001+99999100521ADDGF108991999999999999999999
0029228920999991915011906004+60717+028783FM-12+000399999V0209991C000019999999N0000001N9-01671+99999101231ADDGF103991999999999999999999
0029228920999991915011913004+60717+028783FM-12+000399999V0202901N002119999999N0000001N9-01441+99999101601ADDGF107991999999999999999999
0029228920999991915011920004+60717+028783FM-12+000399999V0209991C000019999999N0000001N9-02001+99999101901ADDGF100991999999999999999999
0029228920999991915012006004+60717+028783FM-12+000399999V0201401N002119999999N0000001N9-02221+99999101881ADDGF108991999999999999999999
0029228920999991915012013004+60717+028783FM-12+000399999V0201601N004119999999N0000001N9-00891+99999101521ADDGF108991999999999999999999
0035228920999991915012020004+60717+028783FM-12+000399999V0201601N002119999999N0000001N9-00391+99999101031ADDGF108991999999999999999999MW1721
0035228920999991915012106004+60717+028783FM-12+000399999V0202001N006219999999N0000001N9+00061+99999100761ADDGF108991999999999999999999MW1721
0029228920999991915012113004+60717+028783FM-12+000399999V0202301N008219999999N0000001N9+00061+99999100921ADDGF108991999999999999999999
0029228920999991915012120004+60717+028783FM-12+000399999V0202001N006219999999N0000001N9-00171+99999101181ADDGF108991999999999999999999
0029228920999991915012206004+60717+028783FM-12+000399999V0209991C000019999999N0000001N9-01001+99999101271ADDGF102991999999999999999999
0029228920999991915012213004+60717+028783FM-12+000399999V0209991C000019999999N0000001N9-00611+99999101201ADDGF100991999999999999999999
0029228920999991915012220004+60717+028783FM-12+000399999V0201601N002119999999N0000001N9-00611+99999101161ADDGF108991999999999999999999
0029228920999991915012306004+60717+028783FM-12+000399999V0201601N002119999999N0000001N9-01001+99999101231ADDGF108991999999999999999999
0029228920999991915012313004+60717+028783FM-12+000399999V0202001N004119999999N0000001N9-00441+99999101361ADDGF101991999999999999999999
0029228920999991915012320004+60717+028783FM-12+000399999V0201601N002119999999N0000001N9-00671+99999101311ADDGF108991999999999999999999
0029228920999991915012406004+60717+028783FM-12+000399999V0202301N002119999999N0000001N9-00561+99999101031ADDGF108991999999999999999999
0029228920999991915012413004+60717+028783FM-12+000399999V0202301N002119999999N0000001N9-00391+99999100741ADDGF108991999999999999999999
0029228920999991915012420004+60717+028783FM-12+000399999V0202301N004119999999N0000001N9-00441+99999100441ADDGF108991999999999999999999
0035228920999991915012506004+60717+028783FM-12+000399999V0209991C000019999999N0000001N9-00441+99999100151ADDGF108991999999999999999999MW1721
0035228920999991915012513004+60717+028783FM-12+000399999V0209991C000019999999N0000001N9-00391+99999099921ADDGF108991999999999999999999MW1721
0035228920999991915012520004+60717+028783FM-12+000399999V0209991C000019999999N0000001N9-00441+99999099661ADDGF108991999999999999999999MW1721
0035228920999991915012606004+60717+028783FM-12+000399999V0209991C000019999999N0000001N9-00561+99999099481ADDGF108991999999999999999999MW1721
0035228920999991915012613004+60717+028783FM-12+000399999V0200201N004119999999N0000001N9-00501+99999099561ADDGF108991999999999999999999MW1721
0035228920999991915012620004+60717+028783FM-12+000399999V0203601N002119999999N0000001N9-00721+99999099781ADDGF108991999999999999999999MW1721
0035228920999991915012706004+60717+028783FM-12+000399999V0203601N004119999999N0000001N9-00781+99999099861ADDGF108991999999999999999999MW1721
0035228920999991915012713004+60717+028783FM-12+000399999V0203601N004119999999N0000001N9-00941+99999099901ADDGF108991999999999999999999MW1721
0029228920999991915012720004+60717+028783FM-12+000399999V0203601N002119999999N0000001N9-01171+99999099821ADDGF108991999999999999999999
0029228920999991915012806004+60717+028783FM-12+000399999V0209991C000019999999N0000001N9-01221+99999099801ADDGF107991999999999999999999
0029228920999991915012813004+60717+028783FM-12+000399999V0209991C000019999999N0000001N9-01171+99999099741ADDGF108991999999999999999999
0029228920999991915012820004+60717+028783FM-12+000399999V0209991C000019999999N0000001N9-01281+99999099281ADDGF108991999999999999999999
0029228920999991915012906004+60717+028783FM-12+000399999V0209991C000019999999N0000001N9-01721+99999099381ADDGF108991999999999999999999
0035228920999991915012913004+60717+028783FM-12+000399999V0209991C000019999999N0000001N9-01111+99999099631ADDGF108991999999999999999999MW1721
0029228920999991915012920004+60717+028783FM-12+000399999V0209991C000019999999N0000001N9-01061+99999099881ADDGF107991999999999999999999
0029228920999991915013006004+60717+028783FM-12+000399999V0209991C000019999999N0000001N9-01281+99999099801ADDGF108991999999999999999999
0029228920999991915013013004+60717+028783FM-12+000399999V0203401N002119999999N0000001N9-01331+99999099761ADDGF108991999999999999999999
0029228920999991915013020004+60717+028783FM-12+000399999V0209991C000019999999N0000001N9-02111+99999099911ADDGF102991999999999999999999
0029228920999991915013106004+60717+028783FM-12+000399999V0209991C000019999999N0000001N9-02611+99999100071ADDGF108991999999999999999999
0029228920999991915013113004+60717+028783FM-12+000399999V0209991C000019999999N0000001N9-02001+99999100281ADDGF100991999999999999999999
0029228920999991915013120004+60717+028783FM-12+000399999V0209991C000019999999N0000001N9-02171+99999100671ADDGF100991999999999999999999
0029228920999991915020106004+60717+028783FM-12+000399999V0209991C000019999999N0000001N9-01611+99999101191ADDGF108991999999999999999999
0029228920999991915020113004+60717+028783FM-12+000399999V0209991C000019999999N0000001N9-01171+99999101391ADDGF108991999999999999999999
0029228920999991915020120004+60717+028783FM-12+000399999V0209991C000019999999N0000001N9-01501+99999101781ADDGF108991999999999999999999
0029228920999991915020206004+60717+028783FM-12+000399999V0209991C000019999999N0000001N9-02391+99999102031ADDGF108991999999999999999999
0029228920999991915020213004+60717+028783FM-12+000399999V0209991C000019999999N0000001N9-01831+99999102071ADDGF103991999999999999999999
0029228920999991915020220004+60717+028783FM-12+000399999V0209991C000019999999N0000001N9-02441+99999101821ADDGF100991999999999999999999
0029228920999991915020306004+60717+028783FM-12+000399999V0200901N004119999999N0000001N9-01391+99999101751ADDGF100991999999999999999999
0035228920999991915020313004+60717+028783FM-12+000399999V0200701N006219999999N0000001N9-01221+99999101901ADDGF108991999999999999999999MW1701
0029228920999991915020320004+60717+028783FM-12+000399999V0209991C000019999999N0000001N9-01561+99999102361ADDGF100991999999999999999999
0029228920999991915020406004+60717+028783FM-12+000399999V0200701N004119999999N0000001N9-01561+99999102911ADDGF104991999999999999999999
0029228920999991915020413004+60717+028783FM-12+000399999V0200701N006219999999N0000001N9-01001+99999103351ADDGF102991999999999999999999
0029228920999991915020420004+60717+028783FM-12+000399999V0209991C000019999999N0000001N9-01391+99999103801ADDGF100991999999999999999999
0029228920999991915020506004+60717+028783FM-12+000399999V0200701N004119999999N0000001N9-01331+99999104221ADDGF100991999999999999999999
0029228920999991915020513004+60717+028783FM-12+000399999V0200701N006219999999N0000001N9-01111+99999104341ADDGF100991999999999999999999
0029228920999991915020520004+60717+028783FM-12+000399999V0200701N002119999999N0000001N9-01331+99999104641ADDGF100991999999999999999999
0029228920999991915020606004+60717+028783FM-12+000399999V0200701N002119999999N0000001N9-01721+99999104921ADDGF100991999999999999999999
0029228920999991915020613004+60717+028783FM-12+000399999V0200901N002119999999N0000001N9-01111+99999104951ADDGF100991999999999999999999
0029228920999991915020620004+60717+028783FM-12+000399999V0209991C000019999999N0000001N9-01561+99999095142ADDGF100991999999999999999999
0029228920999991915020706004+60717+028783FM-12+000399999V0200701N002119999999N0000001N9-01671+99999095231ADDGF100991999999999999999999
0029228920999991915020713004+60717+028783FM-12+000399999V0200901N004119999999N0000001N9-00891+99999095141ADDGF100991999999999999999999
0029228920999991915020720004+60717+028783FM-12+000399999V0200901N004119999999N0000001N9-01221+99999104712ADDGF100991999999999999999999
0029228920999991915020806004+60717+028783FM-12+000399999V0201101N004119999999N0000001N9-01171+99999104111ADDGF103991999999999999999999
0029228920999991915020813004+60717+028783FM-12+000399999V0201401N002119999999N0000001N9-00561+99999103791ADDGF101991999999999999999999
0029228920999991915020820004+60717+028783FM-12+000399999V0201101N004119999999N0000001N9-00941+99999103641ADDGF102991999999999999999999
0029228920999991915020906004+60717+028783FM-12+000399999V0209991C000019999999N0000001N9-01331+99999103551ADDGF100991999999999999999999
0029228920999991915020913004+60717+028783FM-12+000399999V0201601N002119999999N0000001N9-00561+99999103431ADDGF101991999999999999999999
0029228920999991915020920004+60717+028783FM-12+000399999V0201601N004119999999N0000001N9-00891+99999103321ADDGF107991999999999999999999
0029228920999991915021006004+60717+028783FM-12+000399999V0209991C000019999999N0000001N9-01721+99999103161ADDGF102991999999999999999999
0029228920999991915021013004+60717+028783FM-12+000399999V0209991C000019999999N0000001N9-00671+99999103101ADDGF107991999999999999999999
0029228920999991915021020004+60717+028783FM-12+000399999V0209991C000019999999N0000001N9-01111+99999102951ADDGF100991999999999999999999
0029228920999991915021106004+60717+028783FM-12+000399999V0201601N002119999999N0000001N9-01441+99999102711ADDGF106991999999999999999999
0029228920999991915021113004+60717+028783FM-12+000399999V0202001N004119999999N0000001N9-01281+99999102681ADDGF105991999999999999999999
0029228920999991915021120004+60717+028783FM-12+000399999V0201101N002119999999N0000001N9-01221+99999102461ADDGF108991999999999999999999
0029228920999991915021206004+60717+028783FM-12+000399999V0209991C000019999999N0000001N9-01111+99999101941ADDGF108991999999999999999999
0029228920999991915021213004+60717+028783FM-12+000399999V0201101N002119999999N0000001N9-00831+99999101881ADDGF108991999999999999999999
0029228920999991915021220004+60717+028783FM-12+000399999V0209991C000019999999N0000001N9-00721+99999101801ADDGF108991999999999999999999
0029228920999991915021306004+60717+028783FM-12+000399999V0201101N004119999999N0000001N9-00611+99999101551ADDGF108991999999999999999999
0035228920999991915021313004+60717+028783FM-12+000399999V0201101N004119999999N0000001N9-00331+99999100841ADDGF108991999999999999999999MW1721
0035228920999991915021320004+60717+028783FM-12+000399999V0201801N002119999999N0000001N9+00061+99999100041ADDGF108991999999999999999999MW1721
0029228920999991915021406004+60717+028783FM-12+000399999V0209991C000019999999N0000001N9+00001+99999099761ADDGF108991999999999999999999
0029228920999991915021413004+60717+028783FM-12+000399999V0201801N002119999999N0000001N9+00111+99999099901ADDGF108991999999999999999999
0029228920999991915021420004+60717+028783FM-12+000399999V0201801N004119999999N0000001N9+00171+99999099711ADDGF108991999999999999999999
0029228920999991915021506004+60717+028783FM-12+000399999V0202001N008219999999N0000001N9+00061+99999099721ADDGF108991999999999999999999
0029228920999991915021513004+60717+028783FM-12+000399999V0202001N004119999999N0000001N9+00061+99999099861ADDGF108991999999999999999999
0029228920999991915021520004+60717+028783FM-12+000399999V0209991C000019999999N0000001N9+00061+99999099911ADDGF108991999999999999999999
0035228920999991915021606004+60717+028783FM-12+000399999V0209991C000019999999N0000001N9+00001+99999099541ADDGF108991999999999999999999MW1721
0035228920999991915021613004+60717+028783FM-12+000399999V0203401N011819999999N0000001N9-00441+99999099711ADDGF108991999999999999999999MW1721
0029228920999991915021620004+60717+028783FM-12+000399999V0203401N004119999999N0000001N9-01221+99999100721ADDGF100991999999999999999999
0029228920999991915021706004+60717+028783FM-12+000399999V0209991C000019999999N0000001N9-02001+99999101631ADDGF100991999999999999999999
0029228920999991915021713004+60717+028783FM-12+000399999V0209991C000019999999N0000001N9-01171+99999101881ADDGF100991999999999999999999
0029228920999991915021720004+60717+028783FM-12+000399999V0202001N004119999999N0000001N9-01441+99999101861ADDGF108991999999999999999999
0029228920999991915021806004+60717+028783FM-12+000399999V0202001N008219999999N0000001N9-00671+99999101481ADDGF108991999999999999999999
0029228920999991915021813004+60717+028783FM-12+000399999V0201801N004119999999N0000001N9-00611+99999101461ADDGF108991999999999999999999
0029228920999991915021820004+60717+028783FM-12+000399999V0201801N004119999999N0000001N9-00561+99999100991ADDGF108991999999999999999999
0029228920999991915021906004+60717+028783FM-12+000399999V0201601N002119999999N0000001N9-00441+99999100541ADDGF108991999999999999999999
0035228920999991915021913004+60717+028783FM-12+000399999V0201101N002119999999N0000001N9-00281+99999100341ADDGF108991999999999999999999MW1721
0029228920999991915021920004+60717+028783FM-12+000399999V0201601N002119999999N0000001N9-00391+99999100231ADDGF108991999999999999999999
0029228920999991915022006004+60717+028783FM-12+000399999V0201601N002119999999N0000001N9-00441+99999100081ADDGF108991999999999999999999
0029228920999991915022013004+60717+028783FM-12+000399999V0209991C000019999999N0000001N9-00281+99999100061ADDGF108991999999999999999999
0035228920999991915022020004+60717+028783FM-12+000399999V0209991C000019999999N0000001N9-00281+99999100061ADDGF108991999999999999999999MW1721
0029228920999991915022106004+60717+028783FM-12+000399999V0209991C000019999999N0000001N9-00221+99999100201ADDGF108991999999999999999999
0029228920999991915022113004+60717+028783FM-12+000399999V0209991C000019999999N0000001N9-00061+99999100231ADDGF108991999999999999999999
0029228920999991915022120004+60717+028783FM-12+000399999V0201101N004119999999N0000001N9-00111+99999100111ADDGF108991999999999999999999
0035228920999991915022206004+60717+028783FM-12+000399999V0200901N004119999999N0000001N9+00001+99999099441ADDGF108991999999999999999999MW1721
0029228920999991915022213004+60717+028783FM-12+000399999V0201101N004119999999N0000001N9+00171+99999099181ADDGF108991999999999999999999
0029228920999991915022220004+60717+028783FM-12+000399999V0201101N002119999999N0000001N9+00111+99999099151ADDGF108991999999999999999999
0029228920999991915022306004+60717+028783FM-12+000399999V0209991C000019999999N0000001N9+00061+99999098981ADDGF108991999999999999999999
0029228920999991915022313004+60717+028783FM-12+000399999V0209991C000019999999N0000001N9+00111+99999099121ADDGF108991999999999999999999
0029228920999991915022320004+60717+028783FM-12+000399999V0209991C000019999999N0000001N9+00061+99999099191ADDGF108991999999999999999999
0035228920999991915022406004+60717+028783FM-12+000399999V0202001N004119999999N0000001N9-00061+99999099441ADDGF108991999999999999999999MW1721
0029228920999991915022413004+60717+028783FM-12+000399999V0202001N004119999999N0000001N9-00061+99999099781ADDGF108991999999999999999999
0029228920999991915022420004+60717+028783FM-12+000399999V0209991C000019999999N0000001N9-00171+99999099781ADDGF108991999999999999999999
0029228920999991915022506004+60717+028783FM-12+000399999V0203401N004119999999N0000001N9-00171+99999099761ADDGF108991999999999999999999
0035228920999991915022513004+60717+028783FM-12+000399999V0203201N004119999999N0000001N9-00061+99999100061ADDGF108991999999999999999999MW1721
0029228920999991915022520004+60717+028783FM-12+000399999V0202901N004119999999N0000001N9-00441+99999100661ADDGF108991999999999999999999
0035228920999991915022606004+60717+028783FM-12+000399999V0202701N004119999999N0000001N9-00611+99999101031ADDGF108991999999999999999999MW1701
0035228920999991915022613004+60717+028783FM-12+000399999V0202701N006219999999N0000001N9-00441+99999101321ADDGF108991999999999999999999MW1701
0035228920999991915022620004+60717+028783FM-12+000399999V0203201N006219999999N0000001N9-00671+99999101661ADDGF108991999999999999999999MW1701
0029228920999991915022706004+60717+028783FM-12+000399999V0202901N002119999999N0000001N9-00781+99999101801ADDGF108991999999999999999999
0029228920999991915022713004+60717+028783FM-12+000399999V0202001N004119999999N0000001N9-00671+99999101861ADDGF107991999999999999999999
0029228920999991915022720004+60717+028783FM-12+000399999V0209991C000019999999N0000001N9-01111+99999101761ADDGF108991999999999999999999
0029228920999991915022806004+60717+028783FM-12+000399999V0209991C000019999999N0000001N9-00611+99999101671ADDGF108991999999999999999999
0029228920999991915022813004+60717+028783FM-12+000399999V0201601N004119999999N0000001N9-00281+99999101581ADDGF108991999999999999999999
0029228920999991915022820004+60717+028783FM-12+000399999V0209991C000019999999N0000001N9-00891+99999101541ADDGF100991999999999999999999
0029228920999991915030106004+60717+028783FM-12+000399999V0209991C000019999999N0000001N9-01061+99999101591ADDGF108991999999999999999999
0029228920999991915030113004+60717+028783FM-12+000399999V0201101N004119999999N0000001N9-00061+99999101581ADDGF108991999999999999999999
0029228920999991915030120004+60717+028783FM-12+000399999V0209991C000019999999N0000001N9-00391+99999101631ADDGF103991999999999999999999
0029228920999991915030206004+60717+028783FM-12+000399999V0201101N006219999999N0000001N9-00831+99999101701ADDGF108991999999999999999999
0029228920999991915030213004+60717+028783FM-12+000399999V0200701N008219999999N0000001N9-00501+99999101641ADDGF108991999999999999999999
0029228920999991915030220004+60717+028783FM-12+000399999V0200501N009819999999N0000001N9-00561+99999101631ADDGF107991999999999999999999
0029228920999991915030306004+60717+028783FM-12+000399999V0200701N008219999999N0000001N9-00941+99999102021ADDGF108991999999999999999999
0029228920999991915030313004+60717+028783FM-12+000399999V0200701N008219999999N0000001N9-00891+99999102181ADDGF108991999999999999999999
0029228920999991915030320004+60717+028783FM-12+000399999V0200701N006219999999N0000001N9-01331+99999102421ADDGF108991999999999999999999
0029228920999991915030406004+60717+028783FM-12+000399999V0200201N006219999999N0000001N9-01671+99999102431ADDGF100991999999999999999999
0029228920999991915030413004+60717+028783FM-12+000399999V0200701N008219999999N0000001N9-00941+99999102301ADDGF106991999999999999999999
0029228920999991915030420004+60717+028783FM-12+000399999V0200701N008219999999N0000001N9-01221+99999102361ADDGF108991999999999999999999
0029228920999991915030506004+60717+028783FM-12+000399999V0200501N006219999999N0000001N9-01561+99999102191ADDGF108991999999999999999999
0029228920999991915030513004+60717+028783FM-12+000399999V0200701N009819999999N0000001N9-01281+99999102141ADDGF106991999999999999999999
0029228920999991915030520004+60717+028783FM-12+000399999V0200701N006219999999N0000001N9-01281+99999102141ADDGF108991999999999999999999
0035228920999991915030606004+60717+028783FM-12+000399999V0200701N004119999999N0000001N9-01391+99999102041ADDGF108991999999999999999999MW1721
0029228920999991915030613004+60717+028783FM-12+000399999V0200701N008219999999N0000001N9-01001+99999101981ADDGF101991999999999999999999
0029228920999991915030620004+60717+028783FM-12+000399999V0200701N004119999999N0000001N9-01501+99999102061ADDGF100991999999999999999999
0029228920999991915030706004+60717+028783FM-12+000399999V0200701N002119999999N0000001N9-01441+99999102201ADDGF102991999999999999999999
0029228920999991915030713004+60717+028783FM-12+000399999V0200701N006219999999N0000001N9-01061+99999102231ADDGF100991999999999999999999
0029228920999991915030720004+60717+028783FM-12+000399999V0200701N002119999999N0000001N9-01561+99999102351ADDGF100991999999999999999999
0029228920999991915030806004+60717+028783FM-12+000399999V0209991C000019999999N0000001N9-02111+99999102421ADDGF100991999999999999999999
0029228920999991915030813004+60717+028783FM-12+000399999V0203601N002119999999N0000001N9-01001+99999102321ADDGF100991999999999999999999
0029228920999991915030820004+60717+028783FM-12+000399999V0203601N002119999999N0000001N9-02061+99999102301ADDGF100991999999999999999999
0029228920999991915030906004+60717+028783FM-12+000399999V0209991C000019999999N0000001N9-02721+99999102241ADDGF103991999999999999999999
0029228920999991915030913004+60717+028783FM-12+000399999V0202301N004119999999N0000001N9-01111+99999102311ADDGF100991999999999999999999
0029228920999991915030920004+60717+028783FM-12+000399999V0209991C000019999999N0000001N9-01331+99999102381ADDGF100991999999999999999999
0029228920999991915031006004+60717+028783FM-12+000399999V0209991C000019999999N0000001N9-01281+99999102321ADDGF108991999999999999999999
0029228920999991915031013004+60717+028783FM-12+000399999V0202001N009819999999N0000001N9-00721+99999102181ADDGF108991999999999999999999
0029228920999991915031020004+60717+028783FM-12+000399999V0202001N006219999999N0000001N9-01001+99999101791ADDGF100991999999999999999999
0029228920999991915031106004+60717+028783FM-12+000399999V0202001N008219999999N0000001N9-00831+99999101111ADDGF108991999999999999999999
0035228920999991915031113004+60717+028783FM-12+000399999V0202001N013919999999N0000001N9-00441+99999100861ADDGF108991999999999999999999MW1721
0035228920999991915031120004+60717+028783FM-12+000399999V0202001N011819999999N0000001N9-00331+99999100591ADDGF108991999999999999999999MW1721
0029228920999991915031206004+60717+028783FM-12+000399999V0202001N002119999999N0000001N9-00221+99999100261ADDGF108991999999999999999999
0029228920999991915031213004+60717+028783FM-12+000399999V0209991C000019999999N0000001N9-00061+99999100181ADDGF108991999999999999999999
0029228920999991915031220004+60717+028783FM-12+000399999V0209991C000019999999N0000001N9-00171+99999100141ADDGF108991999999999999999999
0029228920999991915031306004+60717+028783FM-12+000399999V0200701N002119999999N0000001N9-00561+99999100111ADDGF107991999999999999999999
0029228920999991915031313004+60717+028783FM-12+000399999V0202001N002119999999N0000001N9-00171+99999100041ADDGF108991999999999999999999
0029228920999991915031320004+60717+028783FM-12+000399999V0202001N002119999999N0000001N9-00331+99999099961ADDGF102991999999999999999999
0035228920999991915031406004+60717+028783FM-12+000399999V0209991C000019999999N0000001N9-00221+99999099911ADDGF108991999999999999999999MW1721
0029228920999991915031413004+60717+028783FM-12+000399999V0209991C000019999999N0000001N9-00061+99999100021ADDGF108991999999999999999999
0029228920999991915031420004+60717+028783FM-12+000399999V0202001N002119999999N0000001N9-00171+99999099881ADDGF108991999999999999999999
0029228920999991915031506004+60717+028783FM-12+000399999V0203401N006219999999N0000001N9-00221+99999099581ADDGF108991999999999999999999
0029228920999991915031513004+60717+028783FM-12+000399999V0202901N009819999999N0000001N9-00061+99999099561ADDGF100991999999999999999999
0029228920999991915031520004+60717+028783FM-12+000399999V0202301N004119999999N0000001N9-00501+99999099161ADDGF100991999999999999999999
0035228920999991915031606004+60717+028783FM-12+000399999V0203601N002119999999N0000001N9-00501+99999097631ADDGF108991999999999999999999MW1721
0029228920999991915031613004+60717+028783FM-12+000399999V0203201N009819999999N0000001N9-00501+99999097601ADDGF108991999999999999999999
0029228920999991915031620004+60717+028783FM-12+000399999V0203401N011819999999N0000001N9-00831+99999097881ADDGF104991999999999999999999
0029228920999991915031706004+60717+028783FM-12+000399999V0203401N008219999999N0000001N9-01111+99999098311ADDGF101991999999999999999999
0029228920999991915031713004+60717+028783FM-12+000399999V0203401N006219999999N0000001N9-00831+99999098621ADDGF108991999999999999999999
0029228920999991915031720004+60717+028783FM-12+000399999V0203401N004119999999N0000001N9-01171+99999099121ADDGF108991999999999999999999
0029228920999991915031806004+60717+028783FM-12+000399999V0202901N002119999999N0000001N9-01501+99999099351ADDGF102991999999999999999999
0029228920999991915031813004+60717+028783FM-12+000399999V0203201N004119999999N0000001N9-00941+99999099591ADDGF102991999999999999999999
0029228920999991915031820004+60717+028783FM-12+000399999V0209991C000019999999N0000001N9-01441+99999099921ADDGF100991999999999999999999
0029228920999991915031906004+60717+028783FM-12+000399999V0209991C000019999999N0000001N9-02061+99999100501ADDGF100991999999999999999999
0029228920999991915031913004+60717+028783FM-12+000399999V0202001N008219999999N0000001N9-01061+99999100881ADDGF100991999999999999999999
0029228920999991915031920004+60717+028783FM-12+000399999V0209991C000019999999N0000001N9-01721+99999101141ADDGF100991999999999999999999
0029228920999991915032006004+60717+028783FM-12+000399999V0209991C000019999999N0000001N9-01781+99999101101ADDGF108991999999999999999999
0035228920999991915032013004+60717+028783FM-12+000399999V0200901N008219999999N0000001N9-01061+99999100401ADDGF108991999999999999999999MW1721
0035228920999991915032020004+60717+028783FM-12+000399999V0200901N006219999999N0000001N9-01061+99999099591ADDGF108991999999999999999999MW1721
0035228920999991915032106004+60717+028783FM-12+000399999V0203201N006219999999N0000001N9-01171+99999099431ADDGF108991999999999999999999MW1721
0029228920999991915032113004+60717+028783FM-12+000399999V0202501N008219999999N0000001N9-00611+99999099871ADDGF100991999999999999999999
0035228920999991915032120004+60717+028783FM-12+000399999V0202501N008219999999N0000001N9-00331+99999098921ADDGF108991999999999999999999MW1721
0029228920999991915032206004+60717+028783FM-12+000399999V0209991C000019999999N0000001N9-01221+99999099881ADDGF101991999999999999999999
0029228920999991915032213004+60717+028783FM-12+000399999V0200901N004119999999N0000001N9-00561+99999099461ADDGF108991999999999999999999
0029228920999991915032220004+60717+028783FM-12+000399999V0209991C000019999999N0000001N9-01281+99999100121ADDGF100991999999999999999999
0035228920999991915032306004+60717+028783FM-12+000399999V0209991C000019999999N0000001N9-01171+99999100941ADDGF108991999999999999999999MW1721
0029228920999991915032313004+60717+028783FM-12+000399999V0202701N006219999999N0000001N9-00171+99999101641ADDGF102991999999999999999999
0029228920999991915032320004+60717+028783FM-12+000399999V0209991C000019999999N0000001N9-01061+99999102031ADDGF100991999999999999999999
0029228920999991915032406004+60717+028783FM-12+000399999V0202001N004119999999N0000001N9-01061+99999102141ADDGF108991999999999999999999
0029228920999991915032413004+60717+028783FM-12+000399999V0202001N013919999999N0000001N9-00221+99999101541ADDGF108991999999999999999999
0029228920999991915032420004+60717+028783FM-12+000399999V0202001N008219999999N0000001N9+00001+99999100841ADDGF108991999999999999999999
0029228920999991915032506004+60717+028783FM-12+000399999V0202501N004119999999N0000001N9+00061+99999099861ADDGF108991999999999999999999
0029228920999991915032513004+60717+028783FM-12+000399999V0202701N006219999999N0000001N9+00331+99999099841ADDGF108991999999999999999999
0029228920999991915032520004+60717+028783FM-12+000399999V0203201N006219999999N0000001N9-00501+99999100181ADDGF105991999999999999999999
0029228920999991915032606004+60717+028783FM-12+000399999V0203201N002119999999N0000001N9-00221+99999100461ADDGF100991999999999999999999
0029228920999991915032613004+60717+028783FM-12+000399999V0202001N002119999999N0000001N9-00331+99999100361ADDGF101991999999999999999999
0029228920999991915032620004+60717+028783FM-12+000399999V0203401N002119999999N0000001N9-01221+99999100461ADDGF100991999999999999999999
0029228920999991915032706004+60717+028783FM-12+000399999V0209991C000019999999N0000001N9-01441+99999100441ADDGF108991999999999999999999
0029228920999991915032713004+60717+028783FM-12+000399999V0203401N004119999999N0000001N9-00331+99999100361ADDGF106991999999999999999999
0029228920999991915032720004+60717+028783FM-12+000399999V0203401N002119999999N0000001N9-00941+99999100221ADDGF101991999999999999999999
0035228920999991915032806004+60717+028783FM-12+000399999V0202901N004119999999N0000001N9-00891+99999100191ADDGF108991999999999999999999MW1721
0029228920999991915032813004+60717+028783FM-12+000399999V0202701N009819999999N0000001N9-00441+99999100351ADDGF102991999999999999999999
0029228920999991915032820004+60717+028783FM-12+000399999V0209991C000019999999N0000001N9-01061+99999100561ADDGF101991999999999999999999
0029228920999991915032906004+60717+028783FM-12+000399999V0209991C000019999999N0000001N9-01671+99999100511ADDGF100991999999999999999999
0029228920999991915032913004+60717+028783FM-12+000399999V0202001N006219999999N0000001N9-00611+99999100351ADDGF100991999999999999999999
0029228920999991915032920004+60717+028783FM-12+000399999V0209991C000019999999N0000001N9-01331+99999100401ADDGF100991999999999999999999
0035228920999991915033006004+60717+028783FM-12+000399999V0202001N006219999999N0000001N9-00561+99999100701ADDGF108991999999999999999999MW1721
0029228920999991915033013004+60717+028783FM-12+000399999V0201801N006219999999N0000001N9-00171+99999100921ADDGF103991999999999999999999
0029228920999991915033020004+60717+028783FM-12+000399999V0201801N004119999999N0000001N9-00441+99999100951ADDGF108991999999999999999999
0029228920999991915033106004+60717+028783FM-12+000399999V0201601N004119999999N0000001N9-00941+99999100631ADDGF108991999999999999999999
0029228920999991915033113004+60717+028783FM-12+000399999V0202001N009819999999N0000001N9-00221+99999100601ADDGF102991999999999999999999
0029228920999991915033120004+60717+028783FM-12+000399999V0209991C000019999999N0000001N9-01061+99999101031ADDGF100991999999999999999999
0029228920999991915040106004+60717+028783FM-12+000399999V0209991C000019999999N0000001N9-01331+99999101231ADDGF107991999999999999999999
0029228920999991915040113004+60717+028783FM-12+000399999V0202001N008219999999N0000001N9-00171+99999101421ADDGF100991999999999999999999
0029228920999991915040120004+60717+028783FM-12+000399999V0201601N006219999999N0000001N9-00391+99999101141ADDGF100991999999999999999999
0035228920999991915040206004+60717+028783FM-12+000399999V0202001N011819999999N0000001N9-00061+99999099561ADDGF108991999999999999999999MW1721
0029228920999991915040213004+60717+028783FM-12+000399999V0203401N004119999999N0000001N9-00171+99999099921ADDGF108991999999999999999999
0029228920999991915040220004+60717+028783FM-12+000399999V0209991C000019999999N0000001N9-00561+99999100301ADDGF100991999999999999999999
0029228920999991915040306004+60717+028783FM-12+000399999V0209991C000019999999N0000001N9-00941+99999100791ADDGF100991999999999999999999
0029228920999991915040313004+60717+028783FM-12+000399999V0202001N002119999999N0000001N9-00281+99999100821ADDGF108991999999999999999999
0029228920999991915040320004+60717+028783FM-12+000399999V0209991C000019999999N0000001N9-00561+99999100641ADDGF104991999999999999999999
0029228920999991915040406004+60717+028783FM-12+000399999V0209991C000019999999N0000001N9-00781+99999100991ADDGF108991999999999999999999
0029228920999991915040413004+60717+028783FM-12+000399999V0209991C000019999999N0000001N9+00001+99999101161ADDGF104991999999999999999999
0029228920999991915040420004+60717+028783FM-12+000399999V0200501N002119999999N0000001N9-00561+99999101231ADDGF100991999999999999999999
0029228920999991915040506004+60717+028783FM-12+000399999V0200901N002119999999N0000001N9-00501+99999101041ADDGF102991999999999999999999
0029228920999991915040513004+60717+028783FM-12+000399999V0200901N008219999999N0000001N9+00001+99999100741ADDGF108991999999999999999999
0035228920999991915040520004+60717+028783FM-12+000399999V0200901N002119999999N0000001N9-00221+99999100631ADDGF108991999999999999999999MW1721
0035228920999991915040606004+60717+028783FM-12+000399999V0209991C000019999999N0000001N9-00281+99999100741ADDGF108991999999999999999999MW1721
0035228920999991915040613004+60717+028783FM-12+000399999V0202001N004119999999N0000001N9+00001+99999101041ADDGF108991999999999999999999MW1721
0029228920999991915040620004+60717+028783FM-12+000399999V0201601N002119999999N0000001N9-00171+99999101301ADDGF108991999999999999999999
0029228920999991915040706004+60717+028783FM-12+000399999V0201101N008219999999N0000001N9+00111+99999100881ADDGF108991999999999999999999
0035228920999991915040713004+60717+028783FM-12+000399999V0201401N008219999999N0000001N9+00331+99999100361ADDGF108991999999999999999999MW1621
0029228920999991915040720004+60717+028783FM-12+000399999V0201401N006219999999N0000001N9+00331+99999100321ADDGF107991999999999999999999
0029228920999991915040806004+60717+028783FM-12+000399999V0201401N002119999999N0000001N9+00281+99999100071ADDGF103991999999999999999999
0029228920999991915040813004+60717+028783FM-12+000399999V0201601N004119999999N0000001N9+00671+99999099941ADDGF108991999999999999999999
0029228920999991915040820004+60717+028783FM-12+000399999V0209991C000019999999N0000001N9+00561+99999100141ADDGF108991999999999999999999
0029228920999991915040906004+60717+028783FM-12+000399999V0201401N002119999999N0000001N9+00281+99999999999ADDGF108991999999999999999999
0035228920999991915040913004+60717+028783FM-12+000399999V0201401N002119999999N0000001N9+00501+99999099701ADDGF108991999999999999999999MW1621
0035228920999991915040920004+60717+028783FM-12+000399999V0202001N009819999999N0000001N9+00171+99999100221ADDGF108991999999999999999999MW1621
0029228920999991915041006004+60717+028783FM-12+000399999V0201601N002119999999N0000001N9+00171+99999101001ADDGF104991999999999999999999
0029228920999991915041013004+60717+028783FM-12+000399999V0209991C000019999999N0000001N9+00941+99999101021ADDGF108991999999999999999999
0029228920999991915041020004+60717+028783FM-12+000399999V0209991C000019999999N0000001N9+00281+99999100911ADDGF108991999999999999999999
0029228920999991915041106004+60717+028783FM-12+000399999V0203401N004119999999N0000001N9+00171+99999101241ADDGF108991999999999999999999
0029228920999991915041113004+60717+028783FM-12+000399999V0203401N004119999999N0000001N9+00561+99999101781ADDGF105991999999999999999999
0029228920999991915041120004+60717+028783FM-12+000399999V0209991C000019999999N0000001N9+00111+99999102141ADDGF100991999999999999999999
0029228920999991915041206004+60717+028783FM-12+000399999V0209991C000019999999N0000001N9+00111+99999102381ADDGF107991999999999999999999
0029228920999991915041213004+60717+028783FM-12+000399999V0203601N002119999999N0000001N9+00611+99999102261ADDGF100991999999999999999999
0029228920999991915041220004+60717+028783FM-12+000399999V0209991C000019999999N0000001N9-00111+99999102071ADDGF100991999999999999999999
0029228920999991915041306004+60717+028783FM-12+000399999V0209991C000019999999N0000001N9+00221+99999102021ADDGF100991999999999999999999
0029228920999991915041313004+60717+028783FM-12+000399999V0200701N004119999999N0000001N9+00721+99999102001ADDGF100991999999999999999999
0029228920999991915041320004+60717+028783FM-12+000399999V0209991C000019999999N0000001N9+00001+99999102121ADDGF100991999999999999999999
0029228920999991915041406004+60717+028783FM-12+000399999V0209991C000019999999N0000001N9-00061+99999102401ADDGF100991999999999999999999
0029228920999991915041413004+60717+028783FM-12+000399999V0200701N004119999999N0000001N9+00891+99999102261ADDGF100991999999999999999999
0029228920999991915041420004+60717+028783FM-12+000399999V0209991C000019999999N0000001N9-00111+99999102041ADDGF100991999999999999999999
0029228920999991915041506004+60717+028783FM-12+000399999V0209991C000019999999N0000001N9-00061+99999101781ADDGF100991999999999999999999
0029228920999991915041513004+60717+028783FM-12+000399999V0203601N002119999999N0000001N9+01001+99999101381ADDGF100991999999999999999999
0029228920999991915041520004+60717+028783FM-12+000399999V0209991C000019999999N0000001N9+00061+99999101161ADDGF103991999999999999999999
0029228920999991915041606004+60717+028783FM-12+000399999V0209991C000019999999N0000001N9+00111+99999101001ADDGF102991999999999999999999
0029228920999991915041613004+60717+028783FM-12+000399999V0202001N006219999999N0000001N9+00721+99999100911ADDGF100991999999999999999999
0029228920999991915041620004+60717+028783FM-12+000399999V0202001N004119999999N0000001N9+00061+99999100901ADDGF100991999999999999999999
0029228920999991915041706004+60717+028783FM-12+000399999V0201601N004119999999N0000001N9+00281+99999100801ADDGF108991999999999999999999
0035228920999991915041713004+60717+028783FM-12+000399999V0201801N008219999999N0000001N9+00331+99999100791ADDGF108991999999999999999999MW1621
0029228920999991915041720004+60717+028783FM-12+000399999V0201801N002119999999N0000001N9+00111+99999100911ADDGF108991999999999999999999
0046228920999991915041806004+60717+028783FM-12+000399999V0201801N004119999999N0000001N9+00111+99999101031ADDAJ100009199999999GF100991999999999999999999
0029228920999991915041813004+60717+028783FM-12+000399999V0202001N006219999999N0000001N9+00331+99999101141ADDGF100991999999999999999999
0029228920999991915041820004+60717+028783FM-12+000399999V0202001N002119999999N0000001N9+00001+99999101261ADDGF107991999999999999999999
0046228920999991915041906004+60717+028783FM-12+000399999V0209991C000019999999N0000001N9+00171+99999101511ADDAJ100009199999999GF100991999999999999999999
0029228920999991915041913004+60717+028783FM-12+000399999V0202001N006219999999N0000001N9+00331+99999101681ADDGF100991999999999999999999
0029228920999991915041920004+60717+028783FM-12+000399999V0202001N006219999999N0000001N9+00171+99999101681ADDGF108991999999999999999999
0052228920999991915042006004+60717+028783FM-12+000399999V0201801N004119999999N0000001N9+00331+99999101641ADDAJ100009199999999GF108991999999999999999999MW1621
0029228920999991915042013004+60717+028783FM-12+000399999V0201801N006219999999N0000001N9+00391+99999101681ADDGF108991999999999999999999
0029228920999991915042020004+60717+028783FM-12+000399999V0209991C000019999999N0000001N9+00331+99999101661ADDGF108991999999999999999999
0046228920999991915042106004+60717+028783FM-12+000399999V0202001N004119999999N0000001N9+00781+99999101721ADDAJ100009199999999GF104991999999999999999999
0029228920999991915042113004+60717+028783FM-12+000399999V0202001N004119999999N0000001N9+01331+99999101631ADDGF100991999999999999999999
0029228920999991915042120004+60717+028783FM-12+000399999V0201401N008219999999N0000001N9+01001+99999101301ADDGF100991999999999999999999
0046228920999991915042206004+60717+028783FM-12+000399999V0202001N008219999999N0000001N9+00111+99999101341ADDAJ100009199999999GF108991999999999999999999
0029228920999991915042213004+60717+028783FM-12+000399999V0202301N006219999999N0000001N9+00331+99999101701ADDGF102991999999999999999999
0029228920999991915042220004+60717+028783FM-12+000399999V0202001N002119999999N0000001N9+00171+99999101911ADDGF102991999999999999999999
0046228920999991915042306004+60717+028783FM-12+000399999V0209991C000019999999N0000001N9+00061+99999102351ADDAJ100009199999999GF101991999999999999999999
0029228920999991915042313004+60717+028783FM-12+000399999V0202301N004119999999N0000001N9+00831+99999102431ADDGF100991999999999999999999
0029228920999991915042320004+60717+028783FM-12+000399999V0209991C000019999999N0000001N9+00331+99999102431ADDGF107991999999999999999999
0046228920999991915042406004+60717+028783FM-12+000399999V0209991C000019999999N0000001N9+00221+99999102351ADDAJ100009199999999GF102991999999999999999999
0029228920999991915042413004+60717+028783FM-12+000399999V0201601N002119999999N0000001N9+01171+99999102061ADDGF102991999999999999999999
0029228920999991915042420004+60717+028783FM-12+000399999V0209991C000019999999N0000001N9+00281+99999101781ADDGF102991999999999999999999
0046228920999991915042506004+60717+028783FM-12+000399999V0209991C000019999999N0000001N9+00391+99999101601ADDAJ100009199999999GF101991999999999999999999
0029228920999991915042513004+60717+028783FM-12+000399999V0202301N008219999999N0000001N9+00891+99999101441ADDGF100991999999999999999999
0029228920999991915042520004+60717+028783FM-12+000399999V0202901N006219999999N0000001N9+00781+99999101241ADDGF103991999999999999999999
0046228920999991915042606004+60717+028783FM-12+000399999V0202001N004119999999N0000001N9+00331+99999101061ADDAJ100009199999999GF108991999999999999999999
0029228920999991915042613004+60717+028783FM-12+000399999V0202901N009819999999N0000001N9+00891+99999100501ADDGF108991999999999999999999
0029228920999991915042620004+60717+028783FM-12+000399999V0202901N004119999999N0000001N9+00391+99999100861ADDGF100991999999999999999999
0046228920999991915042706004+60717+028783FM-12+000399999V0203201N009819999999N0000001N9+00001+99999101321ADDAJ100009199999999GF106991999999999999999999
0029228920999991915042713004+60717+028783FM-12+000399999V0203401N011819999999N0000001N9+00391+99999101841ADDGF106991999999999999999999
0029228920999991915042720004+60717+028783FM-12+000399999V0209991C000019999999N0000001N9+00221+99999102001ADDGF108991999999999999999999
0046228920999991915042806004+60717+028783FM-12+000399999V0202001N009819999999N0000001N9+00111+99999101481ADDAJ100009199999999GF108991999999999999999999
0029228920999991915042813004+60717+028783FM-12+000399999V0202001N011819999999N0000001N9+00281+99999100341ADDGF108991999999999999999999
0029228920999991915042820004+60717+028783FM-12+000399999V0203401N004119999999N0000001N9+00391+99999099751ADDGF108991999999999999999999
0046228920999991915042906004+60717+028783FM-12+000399999V0202901N008219999999N0000001N9+00171+99999099831ADDAJ100009199999999GF108991999999999999999999
0029228920999991915042913004+60717+028783FM-12+000399999V0203401N009819999999N0000001N9+00441+99999100141ADDGF108991999999999999999999
0029228920999991915042920004+60717+028783FM-12+000399999V0203201N004119999999N0000001N9+00221+99999100561ADDGF107991999999999999999999
0046228920999991915043006004+60717+028783FM-12+000399999V0202701N002119999999N0000001N9+00061+99999100901ADDAJ100009199999999GF100991999999999999999999
0029228920999991915043013004+60717+028783FM-12+000399999V0201801N006219999999N0000001N9+00391+99999100601ADDGF108991999999999999999999
0035228920999991915043020004+60717+028783FM-12+000399999V0202001N004119999999N0000001N9+00281+99999099941ADDGF108991999999999999999999MW1621
0046228920999991915050106004+60717+028783FM-12+000399999V0202001N007219999999N0000001N9+00281+99999099941ADDAJ100009199999999GF101991999999999999999999
0029228920999991915050113004+60717+028783FM-12+000399999V0202901N009819999999N0000001N9+00671+99999100061ADDGF105991999999999999999999
0029228920999991915050120004+60717+028783FM-12+000399999V0202901N004119999999N0000001N9+00221+99999100481ADDGF104991999999999999999999
0046228920999991915050206004+60717+028783FM-12+000399999V0209991C000019999999N0000001N9+00221+99999100711ADDAJ100009199999999GF100991999999999999999999
0029228920999991915050213004+60717+028783FM-12+000399999V0209991C000019999999N0000001N9+00671+99999100671ADDGF108991999999999999999999
0029228920999991915050220004+60717+028783FM-12+000399999V0200901N007219999999N0000001N9+00281+99999100321ADDGF108991999999999999999999
0035228920999991915050306004+60717+028783FM-12+000399999V0200501N006219999999N0000001N9-00061+99999099151ADDGF108991999999999999999999MW1721
0035228920999991915050313004+60717+028783FM-12+000399999V0203401N008219999999N0000001N9-00061+99999099591ADDGF108991999999999999999999MW1721
0029228920999991915050320004+60717+028783FM-12+000399999V0203201N004119999999N0000001N9-00171+99999100761ADDGF102991999999999999999999
0029228920999991915050406004+60717+028783FM-12+000399999V0203201N006219999999N0000001N9-00061+99999101791ADDGF100991999999999999999999
0029228920999991915050413004+60717+028783FM-12+000399999V0203201N007219999999N0000001N9+00501+99999102241ADDGF103991999999999999999999
0029228920999991915050420004+60717+028783FM-12+000399999V0202501N007219999999N0000001N9+00221+99999102391ADDGF100991999999999999999999
0029228920999991915050506004+60717+028783FM-12+000399999V0201801N005119999999N0000001N9+00171+99999102421ADDGF108991999999999999999999
0029228920999991915050513004+60717+028783FM-12+000399999V0201801N008219999999N0000001N9+00721+99999102081ADDGF102991999999999999999999
0029228920999991915050520004+60717+028783FM-12+000399999V0202001N003119999999N0000001N9+00331+99999102081ADDGF100991999999999999999999
0046228920999991915050606004+60717+028783FM-12+000399999V0202001N004119999999N0000001N9+00391+99999102401ADDAJ100009199999999GF100991999999999999999999
0029228920999991915050613004+60717+028783FM-12+000399999V0202001N006219999999N0000001N9+00781+99999102401ADDGF100991999999999999999999
0029228920999991915050620004+60717+028783FM-12+000399999V0202001N004119999999N0000001N9+00441+99999102381ADDGF100991999999999999999999
0046228920999991915050706004+60717+028783FM-12+000399999V0201801N001019999999N0000001N9+00671+99999102551ADDAJ100009199999999GF105991999999999999999999
0029228920999991915050713004+60717+028783FM-12+000399999V0202301N007219999999N0000001N9+01391+99999102391ADDGF100991999999999999999999
0029228920999991915050720004+60717+028783FM-12+000399999V0209991C000019999999N0000001N9+00941+99999102151ADDGF106991999999999999999999
0046228920999991915050806004+60717+028783FM-12+000399999V0201801N001019999999N0000001N9+01001+99999101781ADDAJ100009199999999GF108991999999999999999999
0029228920999991915050813004+60717+028783FM-12+000399999V0202001N002119999999N0000001N9+01111+99999101581ADDGF108991999999999999999999
0035228920999991915050820004+60717+028783FM-12+000399999V0202301N004119999999N0000001N9+00561+99999101381ADDGF108991999999999999999999MW1601
0046228920999991915050906004+60717+028783FM-12+000399999V0203401N002119999999N0000001N9+00721+99999101511ADDAJ100009199999999GF100991999999999999999999
0029228920999991915050913004+60717+028783FM-12+000399999V0203401N006219999999N0000001N9+00941+99999101591ADDGF108991999999999999999999
0029228920999991915050920004+60717+028783FM-12+000399999V0203401N004119999999N0000001N9+00441+99999101711ADDGF105991999999999999999999
0046228920999991915051006004+60717+028783FM-12+000399999V0203401N008219999999N0000001N9+00441+99999101831ADDAJ100009199999999GF101991999999999999999999
0029228920999991915051013004+60717+028783FM-12+000399999V0203401N008719999999N0000001N9+00831+99999101911ADDGF107991999999999999999999
0029228920999991915051020004+60717+028783FM-12+000399999V0209991C000019999999N0000001N9+00391+99999101961ADDGF100991999999999999999999
0046228920999991915051106004+60717+028783FM-12+000399999V0203401N001019999999N0000001N9+00561+99999101791ADDAJ100009199999999GF100991999999999999999999
0029228920999991915051113004+60717+028783FM-12+000399999V0202001N008219999999N0000001N9+00781+99999101471ADDGF100991999999999999999999
0029228920999991915051120004+60717+028783FM-12+000399999V0202001N005119999999N0000001N9+00611+99999101191ADDGF102991999999999999999999
0046228920999991915051206004+60717+028783FM-12+000399999V0202001N008219999999N0000001N9+00721+99999101061ADDAJ100009199999999GF102991999999999999999999
0029228920999991915051213004+60717+028783FM-12+000399999V0202001N009819999999N0000001N9+01281+99999101021ADDGF101991999999999999999999
0029228920999991915051220004+60717+028783FM-12+000399999V0209991C000019999999N0000001N9+00781+99999101031ADDGF101991999999999999999999
0046228920999991915051306004+60717+028783FM-12+000399999V0201601N001019999999N0000001N9+01111+99999100881ADDAJ100009199999999GF103991999999999999999999
0029228920999991915051313004+60717+028783FM-12+000399999V0202001N013919999999N0000001N9+01891+99999100741ADDGF102991999999999999999999
0029228920999991915051320004+60717+028783FM-12+000399999V0202501N004119999999N0000001N9+01281+99999100681ADDGF108991999999999999999999
0046228920999991915051406004+60717+028783FM-12+000399999V0202001N002119999999N0000001N9+00891+99999100831ADDAJ100009199999999GF108991999999999999999999
0029228920999991915051413004+60717+028783FM-12+000399999V0202301N005119999999N0000001N9+00941+99999101141ADDGF108991999999999999999999
0035228920999991915051420004+60717+028783FM-12+000399999V0200501N002119999999N0000001N9+00781+99999101001ADDGF108991999999999999999999MW1621
0046228920999991915051506004+60717+028783FM-12+000399999V0201101N004119999999N0000001N9+01671+99999100261ADDAJ100009199999999GF100991999999999999999999
0029228920999991915051513004+60717+028783FM-12+000399999V0201401N009819999999N0000001N9+01781+99999099821ADDGF108991999999999999999999
0029228920999991915051520004+60717+028783FM-12+000399999V0201601N009819999999N0000001N9+00671+99999100061ADDGF108991999999999999999999
0046228920999991915051606004+60717+028783FM-12+000399999V0201601N013919999999N0000001N9+00611+99999100441ADDAJ100009199999999GF108991999999999999999999
0029228920999991915051613004+60717+028783FM-12+000399999V0201601N015919999999N0000001N9+00941+99999100521ADDGF106991999999999999999999
0029228920999991915051620004+60717+028783FM-12+000399999V0201601N004119999999N0000001N9+00281+99999100671ADDGF108991999999999999999999
0052228920999991915051706004+60717+028783FM-12+000399999V0201601N011819999999N0000001N9+00391+99999100401ADDAJ100009199999999GF108991999999999999999999MW1621
0029228920999991915051713004+60717+028783FM-12+000399999V0202001N013919999999N0000001N9+00781+99999100381ADDGF107991999999999999999999
0029228920999991915051720004+60717+028783FM-12+000399999V0202001N008219999999N0000001N9+00391+99999100301ADDGF108991999999999999999999
0052228920999991915051806004+60717+028783FM-12+000399999V0202001N009819999999N0000001N9+00391+99999100161ADDAJ100009199999999GF108991999999999999999999MW1621
0029228920999991915051813004+60717+028783FM-12+000399999V0202001N009819999999N0000001N9+00781+99999100501ADDGF107991999999999999999999
0029228920999991915051820004+60717+028783FM-12+000399999V0202501N004119999999N0000001N9+00721+99999100871ADDGF108991999999999999999999
0046228920999991915051906004+60717+028783FM-12+000399999V0202901N001019999999N0000001N9+00831+99999101521ADDAJ100009199999999GF101991999999999999999999
0029228920999991915051913004+60717+028783FM-12+000399999V0203401N006219999999N0000001N9+01061+99999101961ADDGF105991999999999999999999
0029228920999991915051920004+60717+028783FM-12+000399999V0203401N001019999999N0000001N9+00611+99999102471ADDGF100991999999999999999999
0046228920999991915052006004+60717+028783FM-12+000399999V0202901N001019999999N0000001N9+00721+99999102981ADDAJ100009199999999GF100991999999999999999999
0029228920999991915052013004+60717+028783FM-12+000399999V0202001N009819999999N0000001N9+01111+99999102911ADDGF100991999999999999999999
0029228920999991915052020004+60717+028783FM-12+000399999V0202501N003119999999N0000001N9+00781+99999102761ADDGF100991999999999999999999
0046228920999991915052106004+60717+028783FM-12+000399999V0202001N004119999999N0000001N9+00891+99999102781ADDAJ100009199999999GF100991999999999999999999
0029228920999991915052113004+60717+028783FM-12+000399999V0202301N009819999999N0000001N9+01171+99999102591ADDGF100991999999999999999999
0029228920999991915052120004+60717+028783FM-12+000399999V0202001N004119999999N0000001N9+01061+99999102381ADDGF102991999999999999999999
0046228920999991915052206004+60717+028783FM-12+000399999V0200501N004119999999N0000001N9+00831+99999102821ADDAJ100009199999999GF102991999999999999999999
0029228920999991915052213004+60717+028783FM-12+000399999V0203601N005119999999N0000001N9+01281+99999102911ADDGF100991999999999999999999
0029228920999991915052220004+60717+028783FM-12+000399999V0200201N001019999999N0000001N9+00721+99999102841ADDGF100991999999999999999999
0046228920999991915052306004+60717+028783FM-12+000399999V0201601N002119999999N0000001N9+00831+99999102831ADDAJ100009199999999GF108991999999999999999999
0029228920999991915052313004+60717+028783FM-12+000399999V0202001N008219999999N0000001N9+01171+99999102591ADDGF103991999999999999999999
0029228920999991915052320004+60717+028783FM-12+000399999V0202301N004119999999N0000001N9+00941+99999102221ADDGF108991999999999999999999
0046228920999991915052406004+60717+028783FM-12+000399999V0202001N002119999999N0000001N9+01221+99999102041ADDAJ100009199999999GF103991999999999999999999
0029228920999991915052413004+60717+028783FM-12+000399999V0202001N004119999999N0000001N9+01171+99999101951ADDGF108991999999999999999999
0029228920999991915052420004+60717+028783FM-12+000399999V0202001N004119999999N0000001N9+01001+99999101591ADDGF108991999999999999999999
0046228920999991915052506004+60717+028783FM-12+000399999V0202901N004119999999N0000001N9+01171+99999101391ADDAJ100009199999999GF100991999999999999999999
0029228920999991915052513004+60717+028783FM-12+000399999V0203201N006219999999N0000001N9+01671+99999101541ADDGF105991999999999999999999
0029228920999991915052520004+60717+028783FM-12+000399999V0202001N003119999999N0000001N9+01111+99999101431ADDGF108991999999999999999999
0052228920999991915052606004+60717+028783FM-12+000399999V0202501N004119999999N0000001N9+01061+99999101041ADDAJ100009199999999GF108991999999999999999999MW1621
0029228920999991915052613004+60717+028783FM-12+000399999V0203201N008219999999N0000001N9+01721+99999100961ADDGF105991999999999999999999
0029228920999991915052620004+60717+028783FM-12+000399999V0203201N001019999999N0000001N9+00831+99999101111ADDGF100991999999999999999999
0046228920999991915052706004+60717+028783FM-12+000399999V0203201N001019999999N0000001N9+01001+99999101111ADDAJ100009199999999GF108991999999999999999999
0029228920999991915052713004+60717+028783FM-12+000399999V0200501N004119999999N0000001N9+01281+99999101111ADDGF107991999999999999999999
0029228920999991915052720004+60717+028783FM-12+000399999V0202701N001019999999N0000001N9+00941+99999101121ADDGF102991999999999999999999
0046228920999991915052806004+60717+028783FM-12+000399999V0209991C000019999999N0000001N9+01111+99999100881ADDAJ100009199999999GF101991999999999999999999
0029228920999991915052813004+60717+028783FM-12+000399999V0202501N004119999999N0000001N9+01331+99999100521ADDGF108991999999999999999999
0029228920999991915052820004+60717+028783FM-12+000399999V0202701N001019999999N0000001N9+01111+99999100261ADDGF108991999999999999999999
0046228920999991915052906004+60717+028783FM-12+000399999V0209991C000019999999N0000001N9+01001+99999100201ADDAJ100009199999999GF101991999999999999999999
0029228920999991915052913004+60717+028783FM-12+000399999V0202001N011819999999N0000001N9+01221+99999100431ADDGF100991999999999999999999
0029228920999991915052920004+60717+028783FM-12+000399999V0201801N002119999999N0000001N9+01001+99999100601ADDGF102991999999999999999999
0046228920999991915053006004+60717+028783FM-12+000399999V0202001N009819999999N0000001N9+01221+99999100701ADDAJ100009199999999GF107991999999999999999999
0029228920999991915053013004+60717+028783FM-12+000399999V0202001N008219999999N0000001N9+01281+99999100841ADDGF108991999999999999999999
0035228920999991915053020004+60717+028783FM-12+000399999V0202301N008219999999N0000001N9+01001+99999100951ADDGF108991999999999999999999MW1621
0052228920999991915053106004+60717+028783FM-12+000399999V0200701N001019999999N0000001N9+00831+99999101121ADDAJ100009199999999GF108991999999999999999999MW1621
0035228920999991915053113004+60717+028783FM-12+000399999V0200501N004119999999N0000001N9+01111+99999101181ADDGF108991999999999999999999MW1621
0035228920999991915053120004+60717+028783FM-12+000399999V0200501N004119999999N0000001N9+00891+99999100921ADDGF108991999999999999999999MW1621
0052228920999991915060106004+60717+028783FM-12+000399999V0200501N004119999999N0000001N9+00941+99999100321ADDAJ100009199999999GF108991999999999999999999MW1621
0035228920999991915060113004+60717+028783FM-12+000399999V0202001N013919999999N0000001N9+00831+99999100431ADDGF108991999999999999999999MW1621
0029228920999991915060120004+60717+028783FM-12+000399999V0201801N004119999999N0000001N9+00721+99999100261ADDGF108991999999999999999999
0046228920999991915060206004+60717+028783FM-12+000399999V0202301N013919999999N0000001N9+00891+99999100621ADDAJ100009199999999GF108991999999999999999999
0029228920999991915060213004+60717+028783FM-12+000399999V0202001N019019999999N0000001N9+01331+99999100941ADDGF103991999999999999999999
0029228920999991915060220004+60717+028783FM-12+000399999V0202001N008219999999N0000001N9+00891+99999101071ADDGF108991999999999999999999
0046228920999991915060306004+60717+028783FM-12+000399999V0201801N009819999999N0000001N9+00831+99999100981ADDAJ100009199999999GF107991999999999999999999
0035228920999991915060313004+60717+028783FM-12+000399999V0202901N004119999999N0000001N9+01171+99999101021ADDGF104991999999999999999999MW1621
0029228920999991915060320004+60717+028783FM-12+000399999V0202701N004119999999N0000001N9+01061+99999101191ADDGF100991999999999999999999
0046228920999991915060406004+60717+028783FM-12+000399999V0202701N006219999999N0000001N9+01171+99999101621ADDAJ100009199999999GF100991999999999999999999
0029228920999991915060413004+60717+028783FM-12+000399999V0202001N009819999999N0000001N9+01281+99999101711ADDGF108991999999999999999999
0029228920999991915060420004+60717+028783FM-12+000399999V0201801N001019999999N0000001N9+01111+99999101831ADDGF107991999999999999999999
0046228920999991915060506004+60717+028783FM-12+000399999V0200201N001019999999N0000001N9+01111+99999102201ADDAJ100009199999999GF100991999999999999999999
0029228920999991915060513004+60717+028783FM-12+000399999V0202001N009819999999N0000001N9+01501+99999102191ADDGF100991999999999999999999
0029228920999991915060520004+60717+028783FM-12+000399999V0209991C000019999999N0000001N9+01221+99999101961ADDGF100991999999999999999999
0046228920999991915060606004+60717+028783FM-12+000399999V0201401N004119999999N0000001N9+01281+99999101541ADDAJ100009199999999GF108991999999999999999999
0029228920999991915060613004+60717+028783FM-12+000399999V0202001N006219999999N0000001N9+01221+99999101071ADDGF108991999999999999999999
0035228920999991915060620004+60717+028783FM-12+000399999V0201101N001019999999N0000001N9+01001+99999100551ADDGF108991999999999999999999MW1621
0046228920999991915060706004+60717+028783FM-12+000399999V0200201N004119999999N0000001N9+00941+99999100181ADDAJ100009199999999GF108991999999999999999999
0035228920999991915060713004+60717+028783FM-12+000399999V0200201N004119999999N0000001N9+01221+99999100541ADDGF108991999999999999999999MW1621
0029228920999991915060720004+60717+028783FM-12+000399999V0203201N004119999999N0000001N9+01171+99999100881ADDGF108991999999999999999999
0046228920999991915060806004+60717+028783FM-12+000399999V0203201N006219999999N0000001N9+01221+99999101191ADDAJ100009199999999GF108991999999999999999999
0029228920999991915060813004+60717+028783FM-12+000399999V0202901N006219999999N0000001N9+01671+99999101321ADDGF107991999999999999999999
0029228920999991915060820004+60717+028783FM-12+000399999V0202901N002119999999N0000001N9+01281+99999101521ADDGF100991999999999999999999
0046228920999991915060906004+60717+028783FM-12+000399999V0202701N002119999999N0000001N9+01391+99999101621ADDAJ100009199999999GF102991999999999999999999
0029228920999991915060913004+60717+028783FM-12+000399999V0202901N008219999999N0000001N9+01501+99999101631ADDGF108991999999999999999999
0029228920999991915060920004+60717+028783FM-12+000399999V0202901N004119999999N0000001N9+01281+99999101781ADDGF101991999999999999999999
0046228920999991915061006004+60717+028783FM-12+000399999V0203401N001019999999N0000001N9+01331+99999101901ADDAJ100009199999999GF100991999999999999999999
0029228920999991915061013004+60717+028783FM-12+000399999V0202001N007219999999N0000001N9+01611+99999101721ADDGF105991999999999999999999
0029228920999991915061020004+60717+028783FM-12+000399999V0201601N002119999999N0000001N9+01441+99999101391ADDGF108991999999999999999999
0046228920999991915061106004+60717+028783FM-12+000399999V0201601N002119999999N0000001N9+01441+99999100861ADDAJ100009199999999GF108991999999999999999999
0029228920999991915061113004+60717+028783FM-12+000399999V0202301N006219999999N0000001N9+01671+99999100561ADDGF108991999999999999999999
0029228920999991915061120004+60717+028783FM-12+000399999V0203201N009819999999N0000001N9+01331+99999100661ADDGF108991999999999999999999
0046228920999991915061206004+60717+028783FM-12+000399999V0202901N013919999999N0000001N9+01501+99999100911ADDAJ100009199999999GF100991999999999999999999
0029228920999991915061213004+60717+028783FM-12+000399999V0202701N006219999999N0000001N9+01721+99999100741ADDGF100991999999999999999999
0029228920999991915061220004+60717+028783FM-12+000399999V0202301N008219999999N0000001N9+01391+99999100221ADDGF108991999999999999999999
0046228920999991915061306004+60717+028783FM-12+000399999V0202701N008219999999N0000001N9+01281+99999099591ADDAJ100009199999999GF104991999999999999999999
0035228920999991915061313004+60717+028783FM-12+000399999V0202901N006219999999N0000001N9+01061+99999099551ADDGF108991999999999999999999MW1621
0029228920999991915061320004+60717+028783FM-12+000399999V0202701N002119999999N0000001N9+01061+99999099421ADDGF106991999999999999999999
0046228920999991915061406004+60717+028783FM-12+000399999V0203201N004119999999N0000001N9+01221+99999099301ADDAJ100009199999999GF108991999999999999999999
0029228920999991915061413004+60717+028783FM-12+000399999V0203601N002119999999N0000001N9+01221+99999099511ADDGF108991999999999999999999
0029228920999991915061420004+60717+028783FM-12+000399999V0203601N006219999999N0000001N9+01171+99999099911ADDGF108991999999999999999999
0046228920999991915061506004+60717+028783FM-12+000399999V0203601N006219999999N0000001N9+01061+99999100461ADDAJ100009199999999GF100991999999999999999999
0029228920999991915061513004+60717+028783FM-12+000399999V0203401N004119999999N0000001N9+01561+99999100761ADDGF104991999999999999999999
0029228920999991915061520004+60717+028783FM-12+000399999V0203401N002119999999N0000001N9+01391+99999100981ADDGF100991999999999999999999
0046228920999991915061606004+60717+028783FM-12+000399999V0203601N001019999999N0000001N9+01221+99999101101ADDAJ100009199999999GF100991999999999999999999
0029228920999991915061613004+60717+028783FM-12+000399999V0202301N002119999999N0000001N9+01671+99999100911ADDGF108991999999999999999999
0029228920999991915061620004+60717+028783FM-12+000399999V0203201N001019999999N0000001N9+01391+99999100591ADDGF100991999999999999999999
0046228920999991915061706004+60717+028783FM-12+000399999V0201801N002119999999N0000001N9+01171+99999100101ADDAJ100009199999999GF108991999999999999999999
0035228920999991915061713004+60717+028783FM-12+000399999V0202001N009819999999N0000001N9+01001+99999099951ADDGF108991999999999999999999MW1621
0029228920999991915061720004+60717+028783FM-12+000399999V0201801N019019999999N0000001N9+00941+99999099301ADDGF108991999999999999999999
0046228920999991915061806004+60717+028783FM-12+000399999V0202501N007219999999N0000001N9+00671+99999099741ADDAJ100009199999999GF108991999999999999999999
0035228920999991915061813004+60717+028783FM-12+000399999V0202901N003119999999N0000001N9+00671+99999100221ADDGF108991999999999999999999MW1621
0035228920999991915061820004+60717+028783FM-12+000399999V0209991C000019999999N0000001N9+00671+99999100361ADDGF108991999999999999999999MW1621
0046228920999991915061906004+60717+028783FM-12+000399999V0202501N005119999999N0000001N9+00941+99999100701ADDAJ100009199999999GF106991999999999999999999
0035228920999991915061913004+60717+028783FM-12+000399999V0202301N006219999999N0000001N9+00941+99999100941ADDGF106991999999999999999999MW1621
0029228920999991915061920004+60717+028783FM-12+000399999V0202301N006219999999N0000001N9+00941+99999100991ADDGF106991999999999999999999
0052228920999991915062006004+60717+028783FM-12+000399999V0201101N004119999999N0000001N9+00891+99999100591ADDAJ100009199999999GF108991999999999999999999MW1621
0029228920999991915062013004+60717+028783FM-12+000399999V0202001N008219999999N0000001N9+01221+99999100641ADDGF108991999999999999999999
0029228920999991915062020004+60717+028783FM-12+000399999V0202501N006219999999N0000001N9+00941+99999100621ADDGF106991999999999999999999
0046228920999991915062106004+60717+028783FM-12+000399999V0202701N003119999999N0000001N9+01061+99999101311ADDAJ100009199999999GF101991999999999999999999
0029228920999991915062113004+60717+028783FM-12+000399999V0202001N009819999999N0000001N9+01331+99999101551ADDGF100991999999999999999999
0029228920999991915062120004+60717+028783FM-12+000399999V0201401N008219999999N0000001N9+01111+99999101481ADDGF108991999999999999999999
0046228920999991915062206004+60717+028783FM-12+000399999V0202001N006219999999N0000001N9+01221+99999101471ADDAJ100009199999999GF100991999999999999999999
0029228920999991915062213004+60717+028783FM-12+000399999V0202001N008219999999N0000001N9+01561+99999101661ADDGF101991999999999999999999
0029228920999991915062220004+60717+028783FM-12+000399999V0202001N002119999999N0000001N9+01281+99999101751ADDGF101991999999999999999999
0046228920999991915062306004+60717+028783FM-12+000399999V0203401N004119999999N0000001N9+01001+99999101871ADDAJ100009199999999GF108991999999999999999999
0029228920999991915062313004+60717+028783FM-12+000399999V0203401N004119999999N0000001N9+01611+99999101901ADDGF104991999999999999999999
0029228920999991915062320004+60717+028783FM-12+000399999V0209991C000019999999N0000001N9+01441+99999102081ADDGF100991999999999999999999
0046228920999991915062406004+60717+028783FM-12+000399999V0209991C000019999999N0000001N9+01611+99999102301ADDAJ100009199999999GF100991999999999999999999
0029228920999991915062413004+60717+028783FM-12+000399999V0202301N002119999999N0000001N9+02061+99999102141ADDGF101991999999999999999999
0029228920999991915062420004+60717+028783FM-12+000399999V0209991C000019999999N0000001N9+01331+99999101591ADDGF103991999999999999999999
0046228920999991915062506004+60717+028783FM-12+000399999V0203201N008219999999N0000001N9+01281+99999101671ADDAJ100009199999999GF106991999999999999999999
0029228920999991915062513004+60717+028783FM-12+000399999V0202901N009819999999N0000001N9+01391+99999101881ADDGF106991999999999999999999
0029228920999991915062520004+60717+028783FM-12+000399999V0203201N004119999999N0000001N9+01221+99999102081ADDGF100991999999999999999999
0046228920999991915062606004+60717+028783FM-12+000399999V0203201N006219999999N0000001N9+01331+99999102191ADDAJ100009199999999GF100991999999999999999999
0029228920999991915062613004+60717+028783FM-12+000399999V0203201N006219999999N0000001N9+01671+99999102021ADDGF105991999999999999999999
0029228920999991915062620004+60717+028783FM-12+000399999V0202701N004119999999N0000001N9+01391+99999101751ADDGF108991999999999999999999
0046228920999991915062706004+60717+028783FM-12+000399999V0203201N006219999999N0000001N9+01221+99999101621ADDAJ100009199999999GF101991999999999999999999
0029228920999991915062713004+60717+028783FM-12+000399999V0203201N009819999999N0000001N9+01561+99999101501ADDGF100991999999999999999999
0029228920999991915062720004+60717+028783FM-12+000399999V0203201N004119999999N0000001N9+01221+99999101391ADDGF100991999999999999999999
0046228920999991915062806004+60717+028783FM-12+000399999V0203201N006219999999N0000001N9+01221+99999101361ADDAJ100009199999999GF100991999999999999999999
0029228920999991915062813004+60717+028783FM-12+000399999V0203201N013919999999N0000001N9+01611+99999101281ADDGF102991999999999999999999
0035228920999991915062820004+60717+028783FM-12+000399999V0203201N015919999999N0000001N9+01331+99999101361ADDGF108991999999999999999999MW1621
0046228920999991915062906004+60717+028783FM-12+000399999V0209991C000019999999N0000001N9+01171+99999101581ADDAJ100009199999999GF100991999999999999999999
0029228920999991915062913004+60717+028783FM-12+000399999V0202301N006219999999N0000001N9+01781+99999101551ADDGF102991999999999999999999
0029228920999991915062920004+60717+028783FM-12+000399999V0209991C000019999999N0000001N9+01391+99999101461ADDGF108991999999999999999999
0052228920999991915063006004+60717+028783FM-12+000399999V0201101N004119999999N0000001N9+01501+99999101301ADDAJ100009199999999GF108991999999999999999999MW1621
0029228920999991915063013004+60717+028783FM-12+000399999V0200901N004119999999N0000001N9+02001+99999100861ADDGF108991999999999999999999
0035228920999991915063020004+60717+028783FM-12+000399999V0201101N006219999999N0000001N9+01671+99999100601ADDGF108991999999999999999999MW1621
0046228920999991915070106004+60717+028783FM-12+000399999V0202001N004119999999N0000001N9+01501+99999100791ADDAJ100009199999999GF108991999999999999999999
0029228920999991915070113004+60717+028783FM-12+000399999V0203401N004119999999N0000001N9+01831+99999101041ADDGF108991999999999999999999
0029228920999991915070120004+60717+028783FM-12+000399999V0209991C000019999999N0000001N9+01561+99999101261ADDGF105991999999999999999999
0046228920999991915070206004+60717+028783FM-12+000399999V0202001N004119999999N0000001N9+01831+99999101341ADDAJ100009199999999GF102991999999999999999999
0029228920999991915070213004+60717+028783FM-12+000399999V0203201N002119999999N0000001N9+02221+99999101381ADDGF107991999999999999999999
0029228920999991915070220004+60717+028783FM-12+000399999V0209991C000019999999N0000001N9+01831+99999101401ADDGF108991999999999999999999
0046228920999991915070306004+60717+028783FM-12+000399999V0200201N001019999999N0000001N9+01721+99999101541ADDAJ100009199999999GF100991999999999999999999
0029228920999991915070313004+60717+028783FM-12+000399999V0203601N004119999999N0000001N9+02001+99999101551ADDGF106991999999999999999999
0029228920999991915070320004+60717+028783FM-12+000399999V0200501N001019999999N0000001N9+01671+99999101621ADDGF107991999999999999999999
0046228920999991915070406004+60717+028783FM-12+000399999V0209991C000019999999N0000001N9+01781+99999101681ADDAJ100009199999999GF104991999999999999999999
0029228920999991915070413004+60717+028783FM-12+000399999V0200701N004119999999N0000001N9+02221+99999101641ADDGF100991999999999999999999
0029228920999991915070420004+60717+028783FM-12+000399999V0209991C000019999999N0000001N9+01611+99999101721ADDGF100991999999999999999999
0046228920999991915070506004+60717+028783FM-12+000399999V0200701N002119999999N0000001N9+01781+99999101911ADDAJ100009199999999GF100991999999999999999999
0029228920999991915070513004+60717+028783FM-12+000399999V0200901N004119999999N0000001N9+02281+99999101901ADDGF101991999999999999999999
0029228920999991915070520004+60717+028783FM-12+000399999V0200701N002119999999N0000001N9+01831+99999101911ADDGF100991999999999999999999
0046228920999991915070606004+60717+028783FM-12+000399999V0200701N002119999999N0000001N9+01831+99999102071ADDAJ100009199999999GF100991999999999999999999
0029228920999991915070613004+60717+028783FM-12+000399999V0200501N004119999999N0000001N9+02331+99999101991ADDGF100991999999999999999999
0029228920999991915070620004+60717+028783FM-12+000399999V0200901N002119999999N0000001N9+01891+99999101951ADDGF100991999999999999999999
0046228920999991915070706004+60717+028783FM-12+000399999V0209991C000019999999N0000001N9+01781+99999101961ADDAJ100009199999999GF100991999999999999999999
0029228920999991915070713004+60717+028783FM-12+000399999V0200201N004119999999N0000001N9+02501+99999101751ADDGF100991999999999999999999
0029228920999991915070720004+60717+028783FM-12+000399999V0209991C000019999999N0000001N9+01671+99999101701ADDGF100991999999999999999999
0046228920999991915070806004+60717+028783FM-12+000399999V0202001N001019999999N0000001N9+02001+99999101701ADDAJ100009199999999GF101991999999999999999999
0029228920999991915070813004+60717+028783FM-12+000399999V0201101N001019999999N0000001N9+02561+99999101501ADDGF103991999999999999999999
0029228920999991915070820004+60717+028783FM-12+000399999V0209991C000019999999N0000001N9+02111+99999101421ADDGF102991999999999999999999
0046228920999991915070906004+60717+028783FM-12+000399999V0201601N002119999999N0000001N9+01831+99999101141ADDAJ100009199999999GF108991999999999999999999
0029228920999991915070913004+60717+028783FM-12+000399999V0202301N004119999999N0000001N9+02331+99999100981ADDGF106991999999999999999999
0035228920999991915070920004+60717+028783FM-12+000399999V0209991C000019999999N0000001N9+01891+99999100561ADDGF108991999999999999999999MW1951
0046228920999991915071006004+60717+028783FM-12+000399999V0202301N006219999999N0000001N9+01671+99999100591ADDAJ100009199999999GF108991999999999999999999
0029228920999991915071013004+60717+028783FM-12+000399999V0202001N013919999999N0000001N9+01781+99999100711ADDGF106991999999999999999999
0029228920999991915071020004+60717+028783FM-12+000399999V0202001N008219999999N0000001N9+01441+99999100761ADDGF108991999999999999999999
0046228920999991915071106004+60717+028783FM-12+000399999V0202001N006219999999N0000001N9+01501+99999100671ADDAJ100009199999999GF105991999999999999999999
0029228920999991915071113004+60717+028783FM-12+000399999V0202001N006219999999N0000001N9+01831+99999100681ADDGF106991999999999999999999
0035228920999991915071120004+60717+028783FM-12+000399999V0202001N006219999999N0000001N9+01441+99999100421ADDGF108991999999999999999999MW1621
0046228920999991915071206004+60717+028783FM-12+000399999V0202901N003119999999N0000001N9+01331+99999099981ADDAJ100009199999999GF107991999999999999999999
0029228920999991915071213004+60717+028783FM-12+000399999V0202001N006219999999N0000001N9+01561+99999999999ADDGF108991999999999999999999
0029228920999991915071220004+60717+028783FM-12+000399999V0202001N002119999999N0000001N9+01441+99999100041ADDGF104991999999999999999999
0052228920999991915071306004+60717+028783FM-12+000399999V0201601N001019999999N0000001N9+01441+99999099901ADDAJ100009199999999GF108991999999999999999999MW1621
0029228920999991915071313004+60717+028783FM-12+000399999V0202001N006219999999N0000001N9+01781+99999099861ADDGF106991999999999999999999
0029228920999991915071320004+60717+028783FM-12+000399999V0202301N004119999999N0000001N9+01501+99999099951ADDGF104991999999999999999999
0046228920999991915071406004+60717+028783FM-12+000399999V0202001N004119999999N0000001N9+01561+99999100201ADDAJ100009199999999GF101991999999999999999999
0029228920999991915071413004+60717+028783FM-12+000399999V0202001N006219999999N0000001N9+01781+99999100421ADDGF101991999999999999999999
0029228920999991915071420004+60717+028783FM-12+000399999V0202001N004119999999N0000001N9+01561+99999100561ADDGF102991999999999999999999
0046228920999991915071506004+60717+028783FM-12+000399999V0202501N001019999999N0000001N9+01721+99999100681ADDAJ100009199999999GF101991999999999999999999
0029228920999991915071513004+60717+028783FM-12+000399999V0202001N004119999999N0000001N9+02001+99999100661ADDGF107991999999999999999999
0029228920999991915071520004+60717+028783FM-12+000399999V0202301N001019999999N0000001N9+01671+99999100711ADDGF108991999999999999999999
0046228920999991915071606004+60717+028783FM-12+000399999V0202301N001019999999N0000001N9+01721+99999100921ADDAJ100009199999999GF100991999999999999999999
0029228920999991915071613004+60717+028783FM-12+000399999V0202001N004119999999N0000001N9+02221+99999101061ADDGF104991999999999999999999
0029228920999991915071620004+60717+028783FM-12+000399999V0209991C000019999999N0000001N9+01671+99999101101ADDGF101991999999999999999999
0046228920999991915071706004+60717+028783FM-12+000399999V0202301N001019999999N0000001N9+01721+99999101101ADDAJ100009199999999GF108991999999999999999999
0029228920999991915071713004+60717+028783FM-12+000399999V0200701N002119999999N0000001N9+02281+99999100841ADDGF108991999999999999999999
0029228920999991915071720004+60717+028783FM-12+000399999V0209991C000019999999N0000001N9+02001+99999100831ADDGF108991999999999999999999
0046228920999991915071806004+60717+028783FM-12+000399999V0200201N002119999999N0000001N9+02061+99999100761ADDAJ100009199999999GF101991999999999999999999
0029228920999991915071813004+60717+028783FM-12+000399999V0200701N002119999999N0000001N9+02781+99999100821ADDGF102991999999999999999999
0029228920999991915071820004+60717+028783FM-12+000399999V0209991C000019999999N0000001N9+02061+99999100981ADDGF101991999999999999999999
0046228920999991915071906004+60717+028783FM-12+000399999V0209991C000019999999N0000001N9+02281+99999101161ADDAJ100009199999999GF100991999999999999999999
0029228920999991915071913004+60717+028783FM-12+000399999V0202301N004119999999N0000001N9+02781+99999101231ADDGF107991999999999999999999
0029228920999991915071920004+60717+028783FM-12+000399999V0200901N001019999999N0000001N9+02221+99999101231ADDGF107991999999999999999999
0046228920999991915072006004+60717+028783FM-12+000399999V0209991C000019999999N0000001N9+02171+99999101121ADDAJ100009199999999GF108991999999999999999999
0029228920999991915072013004+60717+028783FM-12+000399999V0202001N006219999999N0000001N9+02111+99999101201ADDGF108991999999999999999999
0029228920999991915072020004+60717+028783FM-12+000399999V0202001N006219999999N0000001N9+01941+99999101271ADDGF108991999999999999999999
0046228920999991915072106004+60717+028783FM-12+000399999V0202001N004119999999N0000001N9+01941+99999101401ADDAJ100009199999999GF107991999999999999999999
0029228920999991915072113004+60717+028783FM-12+000399999V0202301N004119999999N0000001N9+02281+99999101421ADDGF102991999999999999999999
0029228920999991915072120004+60717+028783FM-12+000399999V0209991C000019999999N0000001N9+02001+99999101221ADDGF102991999999999999999999
0046228920999991915072206004+60717+028783FM-12+000399999V0200701N002119999999N0000001N9+01941+99999100761ADDAJ100009199999999GF106991999999999999999999
0029228920999991915072213004+60717+028783FM-12+000399999V0201401N006219999999N0000001N9+02281+99999100751ADDGF108991999999999999999999
0029228920999991915072220004+60717+028783FM-12+000399999V0202301N006219999999N0000001N9+01721+99999101141ADDGF103991999999999999999999
0046228920999991915072306004+60717+028783FM-12+000399999V0202301N006219999999N0000001N9+01671+99999101671ADDAJ100009199999999GF107991999999999999999999
0029228920999991915072313004+60717+028783FM-12+000399999V0202001N004119999999N0000001N9+02061+99999101831ADDGF101991999999999999999999
0029228920999991915072320004+60717+028783FM-12+000399999V0201801N001019999999N0000001N9+01671+99999101871ADDGF100991999999999999999999
0046228920999991915072406004+60717+028783FM-12+000399999V0209991C000019999999N0000001N9+01831+99999102001ADDAJ100009199999999GF101991999999999999999999
0029228920999991915072413004+60717+028783FM-12+000399999V0202301N004119999999N0000001N9+02441+99999101761ADDGF100991999999999999999999
0029228920999991915072420004+60717+028783FM-12+000399999V0200701N002119999999N0000001N9+02061+99999101581ADDGF101991999999999999999999
0046228920999991915072506004+60717+028783FM-12+000399999V0200701N005119999999N0000001N9+02111+99999101241ADDAJ100009199999999GF106991999999999999999999
0029228920999991915072513004+60717+028783FM-12+000399999V0200701N006219999999N0000001N9+02781+99999100951ADDGF101991999999999999999999
0035228920999991915072520004+60717+028783FM-12+000399999V0201801N001019999999N0000001N9+02331+99999100871ADDGF108991999999999999999999MW1951
0046228920999991915072606004+60717+028783FM-12+000399999V0201401N003119999999N0000001N9+02111+99999100871ADDAJ100009199999999GF104991999999999999999999
0029228920999991915072613004+60717+028783FM-12+000399999V0200901N006219999999N0000001N9+02721+99999100671ADDGF101991999999999999999999
0029228920999991915072620004+60717+028783FM-12+000399999V0200501N004119999999N0000001N9+02171+99999100541ADDGF105991999999999999999999
0046228920999991915072706004+60717+028783FM-12+000399999V0200701N007219999999N0000001N9+02501+99999100421ADDAJ100009199999999GF102991999999999999999999
0029228920999991915072713004+60717+028783FM-12+000399999V0200701N011819999999N0000001N9+02831+99999100421ADDGF102991999999999999999999
0029228920999991915072720004+60717+028783FM-12+000399999V0200701N006219999999N0000001N9+02061+99999100751ADDGF103991999999999999999999
0046228920999991915072806004+60717+028783FM-12+000399999V0200701N001019999999N0000001N9+02221+99999101041ADDAJ100009199999999GF101991999999999999999999
0029228920999991915072813004+60717+028783FM-12+000399999V0202001N006219999999N0000001N9+02441+99999101001ADDGF100991999999999999999999
0029228920999991915072820004+60717+028783FM-12+000399999V0209991C000019999999N0000001N9+01941+99999100821ADDGF101991999999999999999999
0046228920999991915072906004+60717+028783FM-12+000399999V0209991C000019999999N0000001N9+02171+99999100521ADDAJ100009199999999GF100991999999999999999999
0029228920999991915072913004+60717+028783FM-12+000399999V0200201N002119999999N0000001N9+02671+99999100231ADDGF101991999999999999999999
0035228920999991915072920004+60717+028783FM-12+000399999V0209991C000019999999N0000001N9+02061+99999100081ADDGF106991999999999999999999MW1621
0046228920999991915073006004+60717+028783FM-12+000399999V0200701N005119999999N0000001N9+02001+99999099911ADDAJ100009199999999GF105991999999999999999999
0029228920999991915073013004+60717+028783FM-12+000399999V0209991C000019999999N0000001N9+01721+99999099941ADDGF107991999999999999999999
0029228920999991915073020004+60717+028783FM-12+000399999V0209991C000019999999N0000001N9+01611+99999099911ADDGF108991999999999999999999
0046228920999991915073106004+60717+028783FM-12+000399999V0202701N004119999999N0000001N9+01501+99999099981ADDAJ100009199999999GF108991999999999999999999
0029228920999991915073113004+60717+028783FM-12+000399999V0202001N009819999999N0000001N9+02001+99999100111ADDGF103991999999999999999999
0029228920999991915073120004+60717+028783FM-12+000399999V0202501N004119999999N0000001N9+01671+99999100281ADDGF104991999999999999999999
0046228920999991915080106004+60717+028783FM-12+000399999V0202001N006219999999N0000001N9+01611+99999100481ADDAJ100009199999999GF106991999999999999999999
0029228920999991915080113004+60717+028783FM-12+000399999V0202001N002119999999N0000001N9+02001+99999100751ADDGF104991999999999999999999
0029228920999991915080120004+60717+028783FM-12+000399999V0209991C000019999999N0000001N9+01441+99999100841ADDGF103991999999999999999999
0046228920999991915080206004+60717+028783FM-12+000399999V0200201N003119999999N0000001N9+01611+99999100991ADDAJ100009199999999GF107991999999999999999999
0029228920999991915080213004+60717+028783FM-12+000399999V0200701N004119999999N0000001N9+02171+99999101071ADDGF107991999999999999999999
0029228920999991915080220004+60717+028783FM-12+000399999V0203601N001019999999N0000001N9+01781+99999101141ADDGF105991999999999999999999
0046228920999991915080306004+60717+028783FM-12+000399999V0203601N002119999999N0000001N9+01891+99999101191ADDAJ100009199999999GF102991999999999999999999
0029228920999991915080313004+60717+028783FM-12+000399999V0200701N003119999999N0000001N9+02171+99999101071ADDGF106991999999999999999999
0029228920999991915080320004+60717+028783FM-12+000399999V0209991C000019999999N0000001N9+01831+99999100991ADDGF100991999999999999999999
0046228920999991915080406004+60717+028783FM-12+000399999V0200201N002119999999N0000001N9+01941+99999100901ADDAJ100009199999999GF100991999999999999999999
0029228920999991915080413004+60717+028783FM-12+000399999V0203201N005119999999N0000001N9+02391+99999100721ADDGF103991999999999999999999
0029228920999991915080420004+60717+028783FM-12+000399999V0203601N002119999999N0000001N9+01941+99999100791ADDGF100991999999999999999999
0046228920999991915080506004+60717+028783FM-12+000399999V0209991C000019999999N0000001N9+01941+99999100791ADDAJ100009199999999GF100991999999999999999999
0029228920999991915080513004+60717+028783FM-12+000399999V0203201N005119999999N0000001N9+02331+99999100631ADDGF103991999999999999999999
0029228920999991915080520004+60717+028783FM-12+000399999V0203601N003119999999N0000001N9+01891+99999100591ADDGF100991999999999999999999
0046228920999991915080606004+60717+028783FM-12+000399999V0203601N005119999999N0000001N9+01721+99999100801ADDAJ100009199999999GF102991999999999999999999
0029228920999991915080613004+60717+028783FM-12+000399999V0203601N008219999999N0000001N9+02001+99999100901ADDGF102991999999999999999999
0029228920999991915080620004+60717+028783FM-12+000399999V0203601N002119999999N0000001N9+01441+99999101061ADDGF100991999999999999999999
0046228920999991915080706004+60717+028783FM-12+000399999V0203601N004119999999N0000001N9+01441+99999101241ADDAJ100009199999999GF102991999999999999999999
0029228920999991915080713004+60717+028783FM-12+000399999V0203601N004119999999N0000001N9+01781+99999101261ADDGF107991999999999999999999
0029228920999991915080720004+60717+028783FM-12+000399999V0209991C000019999999N0000001N9+01001+99999101461ADDGF108991999999999999999999
0046228920999991915080806004+60717+028783FM-12+000399999V0200501N002119999999N0000001N9+01501+99999101591ADDAJ100009199999999GF101991999999999999999999
0029228920999991915080813004+60717+028783FM-12+000399999V0203401N002119999999N0000001N9+01891+99999101591ADDGF102991999999999999999999
0029228920999991915080820004+60717+028783FM-12+000399999V0202001N002119999999N0000001N9+01221+99999101621ADDGF100991999999999999999999
0046228920999991915080906004+60717+028783FM-12+000399999V0201101N002119999999N0000001N9+01441+99999101711ADDAJ100009199999999GF100991999999999999999999
0029228920999991915080913004+60717+028783FM-12+000399999V0201601N004119999999N0000001N9+02001+99999101561ADDGF100991999999999999999999
0029228920999991915080920004+60717+028783FM-12+000399999V0200901N004119999999N0000001N9+01331+99999101481ADDGF105991999999999999999999
0046228920999991915081006004+60717+028783FM-12+000399999V0201101N004119999999N0000001N9+01671+99999101441ADDAJ100009199999999GF103991999999999999999999
0029228920999991915081013004+60717+028783FM-12+000399999V0201101N003119999999N0000001N9+02001+99999101431ADDGF108991999999999999999999
0029228920999991915081020004+60717+028783FM-12+000399999V0201101N002119999999N0000001N9+01611+99999101501ADDGF108991999999999999999999
0046228920999991915081106004+60717+028783FM-12+000399999V0209991C000019999999N0000001N9+01611+99999101591ADDAJ100009199999999GF108991999999999999999999
0029228920999991915081113004+60717+028783FM-12+000399999V0200701N002119999999N0000001N9+02111+99999101581ADDGF108991999999999999999999
0029228920999991915081120004+60717+028783FM-12+000399999V0200901N002119999999N0000001N9+01501+99999101721ADDGF102991999999999999999999
0046228920999991915081206004+60717+028783FM-12+000399999V0209991C000019999999N0000001N9+01831+99999101901ADDAJ100009199999999GF101991999999999999999999
0029228920999991915081213004+60717+028783FM-12+000399999V0200701N004119999999N0000001N9+02281+99999101881ADDGF104991999999999999999999
0029228920999991915081220004+60717+028783FM-12+000399999V0209991C000019999999N0000001N9+01561+99999101941ADDGF100991999999999999999999
0046228920999991915081306004+60717+028783FM-12+000399999V0200201N005119999999N0000001N9+01781+99999101991ADDAJ100009199999999GF100991999999999999999999
0029228920999991915081313004+60717+028783FM-12+000399999V0200201N006219999999N0000001N9+02061+99999101791ADDGF104991999999999999999999
0029228920999991915081320004+60717+028783FM-12+000399999V0203601N001019999999N0000001N9+01501+99999101681ADDGF108991999999999999999999
0046228920999991915081406004+60717+028783FM-12+000399999V0200201N004119999999N0000001N9+01171+99999101391ADDAJ100009199999999GF108991999999999999999999
0035228920999991915081413004+60717+028783FM-12+000399999V0203601N002119999999N0000001N9+01001+99999101341ADDGF108991999999999999999999MW1621
0029228920999991915081420004+60717+028783FM-12+000399999V0203601N004119999999N0000001N9+01061+99999101231ADDGF108991999999999999999999
0046228920999991915081506004+60717+028783FM-12+000399999V0200201N002119999999N0000001N9+01061+99999101121ADDAJ100009199999999GF108991999999999999999999
0029228920999991915081513004+60717+028783FM-12+000399999V0200201N002119999999N0000001N9+01171+99999101101ADDGF108991999999999999999999
0035228920999991915081520004+60717+028783FM-12+000399999V0203601N002119999999N0000001N9+01001+99999101081ADDGF108991999999999999999999MW1621
0046228920999991915081606004+60717+028783FM-12+000399999V0203601N002119999999N0000001N9+00891+99999100941ADDAJ100009199999999GF108991999999999999999999
0029228920999991915081613004+60717+028783FM-12+000399999V0200501N002119999999N0000001N9+01281+99999100881ADDGF108991999999999999999999
0035228920999991915081620004+60717+028783FM-12+000399999V0209991C000019999999N0000001N9+01171+99999100781ADDGF108991999999999999999999MW1601
0046228920999991915081706004+60717+028783FM-12+000399999V0200201N002119999999N0000001N9+01171+99999100591ADDAJ100009199999999GF108991999999999999999999
0029228920999991915081713004+60717+028783FM-12+000399999V0203401N002119999999N0000001N9+01281+99999100511ADDGF108991999999999999999999
0029228920999991915081720004+60717+028783FM-12+000399999V0203601N002119999999N0000001N9+01111+99999100461ADDGF108991999999999999999999
0052228920999991915081806004+60717+028783FM-12+000399999V0202901N001019999999N0000001N9+01061+99999100391ADDAJ100009199999999GF108991999999999999999999MW1601
0029228920999991915081813004+60717+028783FM-12+000399999V0202901N002119999999N0000001N9+01221+99999100471ADDGF108991999999999999999999
0029228920999991915081820004+60717+028783FM-12+000399999V0209991C000019999999N0000001N9+01171+99999100551ADDGF108991999999999999999999
0046228920999991915081906004+60717+028783FM-12+000399999V0209991C000019999999N0000001N9+01171+99999100701ADDAJ100009199999999GF108991999999999999999999
0035228920999991915081913004+60717+028783FM-12+000399999V0202301N001019999999N0000001N9+01391+99999100801ADDGF108991999999999999999999MW1601
0029228920999991915081920004+60717+028783FM-12+000399999V0209991C000019999999N0000001N9+01061+99999100881ADDGF108991999999999999999999
0046228920999991915082006004+60717+028783FM-12+000399999V0209991C000019999999N0000001N9+01001+99999100961ADDAJ100009199999999GF108991999999999999999999
0029228920999991915082013004+60717+028783FM-12+000399999V0209991C000019999999N0000001N9+01721+99999100981ADDGF108991999999999999999999
0029228920999991915082020004+60717+028783FM-12+000399999V0209991C000019999999N0000001N9+01281+99999101021ADDGF108991999999999999999999
0046228920999991915082106004+60717+028783FM-12+000399999V0201101N001019999999N0000001N9+01221+99999101111ADDAJ100009199999999GF108991999999999999999999
0029228920999991915082113004+60717+028783FM-12+000399999V0203201N002119999999N0000001N9+01781+99999101151ADDGF108991999999999999999999
0029228920999991915082120004+60717+028783FM-12+000399999V0209991C000019999999N0000001N9+01281+99999101281ADDGF104991999999999999999999
0046228920999991915082206004+60717+028783FM-12+000399999V0203401N002119999999N0000001N9+01281+99999101431ADDAJ100009199999999GF108991999999999999999999
0029228920999991915082213004+60717+028783FM-12+000399999V0203401N004119999999N0000001N9+01831+99999101461ADDGF107991999999999999999999
0029228920999991915082220004+60717+028783FM-12+000399999V0209991C000019999999N0000001N9+01221+99999101521ADDGF107991999999999999999999
0046228920999991915082306004+60717+028783FM-12+000399999V0209991C000019999999N0000001N9+01171+99999101441ADDAJ100009199999999GF107991999999999999999999
0029228920999991915082313004+60717+028783FM-12+000399999V0202001N006219999999N0000001N9+01831+99999101311ADDGF104991999999999999999999
0029228920999991915082320004+60717+028783FM-12+000399999V0201801N002119999999N0000001N9+01281+99999101081ADDGF108991999999999999999999
0052228920999991915082406004+60717+028783FM-12+000399999V0201801N003119999999N0000001N9+01391+99999100621ADDAJ100009199999999GF108991999999999999999999MW1621
0029228920999991915082413004+60717+028783FM-12+000399999V0202301N006219999999N0000001N9+01561+99999100661ADDGF108991999999999999999999
0029228920999991915082420004+60717+028783FM-12+000399999V0202501N002119999999N0000001N9+01331+99999100801ADDGF105991999999999999999999
0046228920999991915082506004+60717+028783FM-12+000399999V0202701N004119999999N0000001N9+01281+99999101111ADDAJ100009199999999GF101991999999999999999999
0029228920999991915082513004+60717+028783FM-12+000399999V0202901N004119999999N0000001N9+01721+99999101231ADDGF100991999999999999999999
0029228920999991915082520004+60717+028783FM-12+000399999V0209991C000019999999N0000001N9+01331+99999101141ADDGF102991999999999999999999
0046228920999991915082606004+60717+028783FM-12+000399999V0202001N005119999999N0000001N9+01561+99999100781ADDAJ100009199999999GF108991999999999999999999
0029228920999991915082613004+60717+028783FM-12+000399999V0202001N008219999999N0000001N9+01561+99999100631ADDGF108991999999999999999999
0029228920999991915082620004+60717+028783FM-12+000399999V0202001N006219999999N0000001N9+01501+99999100391ADDGF102991999999999999999999
0046228920999991915082706004+60717+028783FM-12+000399999V0202701N003119999999N0000001N9+01441+99999999999ADDAJ100009199999999GF108991999999999999999999
0035228920999991915082713004+60717+028783FM-12+000399999V0202901N002119999999N0000001N9+01281+99999100141ADDGF108991999999999999999999MW1621
0029228920999991915082720004+60717+028783FM-12+000399999V0202701N003119999999N0000001N9+01171+99999100351ADDGF102991999999999999999999
0046228920999991915082806004+60717+028783FM-12+000399999V0201601N002119999999N0000001N9+01331+99999100261ADDAJ100009199999999GF106991999999999999999999
0029228920999991915082813004+60717+028783FM-12+000399999V0201801N013919999999N0000001N9+01721+99999099831ADDGF108991999999999999999999
0029228920999991915082820004+60717+028783FM-12+000399999V0202301N013919999999N0000001N9+01501+99999099631ADDGF108991999999999999999999
