0029228920999991911010106004+60717+028783FM-12+000399999V0201401N006219999999N0000001N9-00671+99999101461ADDGF108991999999999999999999
0035228920999991911010113004+60717+028783FM-12+000399999V0201601N006219999999N0000001N9-00331+99999100871ADDGF108991999999999999999999MW1721
0035228920999991911010120004+60717+028783FM-12+000399999V0202001N006219999999N0000001N9+00061+99999100801ADDGF108991999999999999999999MW1721
0035228920999991911010206004+60717+028783FM-12+000399999V0202301N006219999999N0000001N9+00001+99999101521ADDGF108991999999999999999999MW1721
0035228920999991911010213004+60717+028783FM-12+000399999V0202301N004119999999N0000001N9-00061+99999102161ADDGF108991999999999999999999MW1721
0035228920999991911010220004+60717+028783FM-12+000399999V0202501N004119999999N0000001N9-00061+99999102551ADDGF108991999999999999999999MW1721
0029228920999991911010306004+60717+028783FM-12+000399999V0200201N004119999999N0000001N9-00831+99999103321ADDGF108991999999999999999999
0029228920999991911010313004+60717+028783FM-12+000399999V0209991C000019999999N0000001N9-00781+99999103741ADDGF108991999999999999999999
0029228920999991911010320004+60717+028783FM-12+000399999V0200701N004119999999N0000001N9-00781+99999104111ADDGF108991999999999999999999
0029228920999991911010406004+60717+028783FM-12+000399999V0200901N004119999999N0000001N9-00831+99999104181ADDGF108991999999999999999999
0029228920999991911010413004+60717+028783FM-12+000399999V0203401N002119999999N0000001N9-00941+99999104341ADDGF108991999999999999999999
0029228920999991911010420004+60717+028783FM-12+000399999V0203401N002119999999N0000001N9-01281+99999104401ADDGF108991999999999999999999
0029228920999991911010506004+60717+028783FM-12+000399999V0203401N002119999999N0000001N9-01281+99999104661ADDGF108991999999999999999999
0029228920999991911010513004+60717+028783FM-12+000399999V0209991C000019999999N0000001N9-01111+99999104711ADDGF108991999999999999999999
0029228920999991911010520004+60717+028783FM-12+000399999V0200901N002119999999N0000001N9-01561+99999104591ADDGF100991999999999999999999
0029228920999991911010606004+60717+028783FM-12+000399999V0201401N002119999999N0000001N9-01111+99999104001ADDGF108991999999999999999999
0029228920999991911010613004+60717+028783FM-12+000399999V0201101N004119999999N0000001N9-00941+99999103721ADDGF108991999999999999999999
0029228920999991911010620004+60717+028783FM-12+000399999V0201101N002119999999N0000001N9-00671+99999103431ADDGF100991999999999999999999
0029228920999991911010706004+60717+028783FM-12+000399999V0202001N002119999999N0000001N9-00281+99999103431ADDGF108991999999999999999999
0029228920999991911010713004+60717+028783FM-12+000399999V0201801N004119999999N0000001N9-00171+99999103701ADDGF108991999999999999999999
0029228920999991911010720004+60717+028783FM-12+000399999V0201601N004119999999N0000001N9-00221+99999103641ADDGF108991999999999999999999
0029228920999991911010806004+60717+028783FM-12+000399999V0201601N004119999999N0000001N9-00671+99999103321ADDGF108991999999999999999999
0029228920999991911010813004+60717+028783FM-12+000399999V0201601N002119999999N0000001N9-00671+99999103081ADDGF108991999999999999999999
0029228920999991911010820004+60717+028783FM-12+000399999V0201601N006219999999N0000001N9-00441+99999102701ADDGF108991999999999999999999
0029228920999991911010906004+60717+028783FM-12+000399999V0201801N008219999999N0000001N9-00171+99999101951ADDGF108991999999999999999999
0035228920999991911010913004+60717+028783FM-12+000399999V0202001N008219999999N0000001N9-00171+99999101301ADDGF108991999999999999999999MW1721
0029228920999991911010920004+60717+028783FM-12+000399999V0202501N006219999999N0000001N9-00111+99999101281ADDGF103991999999999999999999
0029228920999991911011006004+60717+028783FM-12+000399999V0201801N008219999999N0000001N9+00061+99999101021ADDGF108991999999999999999999
0029228920999991911011013004+60717+028783FM-12+000399999V0202001N006219999999N0000001N9+00001+99999100561ADDGF108991999999999999999999
0035228920999991911011020004+60717+028783FM-12+000399999V0202001N004119999999N0000001N9+00001+99999100141ADDGF108991999999999999999999MW1721
0029228920999991911011106004+60717+028783FM-12+000399999V0202501N004119999999N0000001N9-00111+99999099551ADDGF108991999999999999999999
0029228920999991911011113004+60717+028783FM-12+000399999V0202501N008219999999N0000001N9-00281+99999099671ADDGF108991999999999999999999
0029228920999991911011120004+60717+028783FM-12+000399999V0202501N004119999999N0000001N9-00501+99999099781ADDGF100991999999999999999999
0029228920999991911011206004+60717+028783FM-12+000399999V0202301N002119999999N0000001N9-00441+99999099641ADDGF108991999999999999999999
0029228920999991911011213004+60717+028783FM-12+000399999V0200901N002119999999N0000001N9-00561+99999099401ADDGF108991999999999999999999
0029228920999991911011220004+60717+028783FM-12+000399999V0200201N004119999999N0000001N9-00611+99999099421ADDGF108991999999999999999999
0029228920999991911011306004+60717+028783FM-12+000399999V0203401N002119999999N0000001N9-00671+99999099591ADDGF108991999999999999999999
0035228920999991911011313004+60717+028783FM-12+000399999V0200501N002119999999N0000001N9-00671+99999099871ADDGF108991999999999999999999MW1701
0035228920999991911011320004+60717+028783FM-12+000399999V0203401N004119999999N0000001N9-00891+99999100301ADDGF108991999999999999999999MW1701
0029228920999991911011406004+60717+028783FM-12+000399999V0203401N004119999999N0000001N9-00941+99999100881ADDGF108991999999999999999999
0029228920999991911011413004+60717+028783FM-12+000399999V0209991C000019999999N0000001N9-01171+99999101321ADDGF100991999999999999999999
0029228920999991911011420004+60717+028783FM-12+000399999V0209991C000019999999N0000001N9-02281+99999101841ADDGF100991999999999999999999
0029228920999991911011506004+60717+028783FM-12+000399999V0203401N002119999999N0000001N9-01781+99999101871ADDGF106991999999999999999999
0035228920999991911011513004+60717+028783FM-12+000399999V0202001N004119999999N0000001N9-00671+99999101711ADDGF108991999999999999999999MW1721
0029228920999991911011520004+60717+028783FM-12+000399999V0202001N004119999999N0000001N9-00171+99999101281ADDGF108991999999999999999999
0029228920999991911011606004+60717+028783FM-12+000399999V0202501N002119999999N0000001N9-00111+99999101151ADDGF108991999999999999999999
0029228920999991911011613004+60717+028783FM-12+000399999V0201801N008219999999N0000001N9-00111+99999100021ADDGF108991999999999999999999
0029228920999991911011620004+60717+028783FM-12+000399999V0203401N009819999999N0000001N9+00061+99999100031ADDGF108991999999999999999999
0029228920999991911011706004+60717+028783FM-12+000399999V0202901N002119999999N0000001N9-00671+99999101101ADDGF100991999999999999999999
0029228920999991911011713004+60717+028783FM-12+000399999V0202001N004119999999N0000001N9-00671+99999100991ADDGF100991999999999999999999
0035228920999991911011720004+60717+028783FM-12+000399999V0202501N011819999999N0000001N9+00061+99999099311ADDGF108991999999999999999999MW1721
0029228920999991911011806004+60717+028783FM-12+000399999V0202901N009819999999N0000001N9-00221+99999098961ADDGF100991999999999999999999
0029228920999991911011813004+60717+028783FM-12+000399999V0203401N011819999999N0000001N9-00331+99999099161ADDGF100991999999999999999999
0029228920999991911011820004+60717+028783FM-12+000399999V0203201N011819999999N0000001N9-00501+99999099941ADDGF100991999999999999999999
0029228920999991911011906004+60717+028783FM-12+000399999V0203601N002119999999N0000001N9-00441+99999100821ADDGF108991999999999999999999
0029228920999991911011913004+60717+028783FM-12+000399999V0203401N004119999999N0000001N9-00501+99999101071ADDGF100991999999999999999999
0029228920999991911011920004+60717+028783FM-12+000399999V0209991C000019999999N0000001N9-01061+99999101121ADDGF108991999999999999999999
0029228920999991911012006004+60717+028783FM-12+000399999V0202301N002119999999N0000001N9-00171+99999100751ADDGF108991999999999999999999
0029228920999991911012013004+60717+028783FM-12+000399999V0202501N008219999999N0000001N9+00171+99999100471ADDGF108991999999999999999999
0029228920999991911012020004+60717+028783FM-12+000399999V0203401N011819999999N0000001N9-00061+99999101071ADDGF100991999999999999999999
0029228920999991911012106004+60717+028783FM-12+000399999V0209991C000019999999N0000001N9-00831+99999101751ADDGF107991999999999999999999
0029228920999991911012113004+60717+028783FM-12+000399999V0202001N008219999999N0000001N9-00061+99999101221ADDGF108991999999999999999999
0035228920999991911012120004+60717+028783FM-12+000399999V0202001N011819999999N0000001N9+00001+99999099801ADDGF108991999999999999999999MW1691
0029228920999991911012206004+60717+028783FM-12+000399999V0202301N008219999999N0000001N9+00061+99999099151ADDGF108991999999999999999999
0029228920999991911012213004+60717+028783FM-12+000399999V0203401N011819999999N0000001N9+00061+99999098981ADDGF108991999999999999999999
0029228920999991911012220004+60717+028783FM-12+000399999V0203401N011819999999N0000001N9-00561+99999100071ADDGF101991999999999999999999
0029228920999991911012306004+60717+028783FM-12+000399999V0203401N009819999999N0000001N9-00671+99999101071ADDGF100991999999999999999999
0029228920999991911012313004+60717+028783FM-12+000399999V0203401N004119999999N0000001N9-00781+99999101781ADDGF104991999999999999999999
0029228920999991911012320004+60717+028783FM-12+000399999V0209991C000019999999N0000001N9-01171+99999101781ADDGF100991999999999999999999
0029228920999991911012406004+60717+028783FM-12+000399999V0209991C000019999999N0000001N9-01221+99999101541ADDGF100991999999999999999999
0029228920999991911012413004+60717+028783FM-12+000399999V0202301N004119999999N0000001N9-00721+99999101521ADDGF102991999999999999999999
0029228920999991911012420004+60717+028783FM-12+000399999V0202501N009819999999N0000001N9-00441+99999101241ADDGF108991999999999999999999
0029228920999991911012506004+60717+028783FM-12+000399999V0202301N009819999999N0000001N9-00171+99999100711ADDGF108991999999999999999999
0035228920999991911012513004+60717+028783FM-12+000399999V0202001N011819999999N0000001N9-00061+99999099861ADDGF108991999999999999999999MW1721
0035228920999991911012520004+60717+028783FM-12+000399999V0202001N011819999999N0000001N9+00001+99999099341ADDGF108991999999999999999999MW1721
0029228920999991911012606004+60717+028783FM-12+000399999V0209991C000019999999N0000001N9-00441+99999099441ADDGF108991999999999999999999
0029228920999991911012613004+60717+028783FM-12+000399999V0201801N006219999999N0000001N9-00111+99999099161ADDGF108991999999999999999999
0035228920999991911012620004+60717+028783FM-12+000399999V0201601N008219999999N0000001N9-00281+99999099021ADDGF108991999999999999999999MW1721
0029228920999991911012706004+60717+028783FM-12+000399999V0202901N002119999999N0000001N9-00831+99999099881ADDGF100991999999999999999999
0029228920999991911012713004+60717+028783FM-12+000399999V0202901N004119999999N0000001N9-00611+99999100551ADDGF100991999999999999999999
0029228920999991911012720004+60717+028783FM-12+000399999V0209991C000019999999N0000001N9-01111+99999100981ADDGF100991999999999999999999
0029228920999991911012806004+60717+028783FM-12+000399999V0209991C000019999999N0000001N9-01441+99999101191ADDGF100991999999999999999999
0029228920999991911012813004+60717+028783FM-12+000399999V0209991C000019999999N0000001N9-01061+99999101141ADDGF100991999999999999999999
0029228920999991911012820004+60717+028783FM-12+000399999V0209991C000019999999N0000001N9-01611+99999101261ADDGF100991999999999999999999
0029228920999991911012906004+60717+028783FM-12+000399999V0209991C000019999999N0000001N9-02171+99999102041ADDGF100991999999999999999999
0035228920999991911012913004+60717+028783FM-12+000399999V0209991C000019999999N0000001N9-01001+99999102551ADDGF108991999999999999999999MW1701
0029228920999991911012920004+60717+028783FM-12+000399999V0209991C000019999999N0000001N9-01281+99999103061ADDGF108991999999999999999999
0029228920999991911013006004+60717+028783FM-12+000399999V0209991C000019999999N0000001N9-01391+99999103681ADDGF100991999999999999999999
0029228920999991911013013004+60717+028783FM-12+000399999V0209991C000019999999N0000001N9-01171+99999103961ADDGF102991999999999999999999
0029228920999991911013020004+60717+028783FM-12+000399999V0209991C000019999999N0000001N9-02171+99999103921ADDGF100991999999999999999999
0029228920999991911013106004+60717+028783FM-12+000399999V0203401N002119999999N0000001N9-02171+99999103271ADDGF107991999999999999999999
0035228920999991911013113004+60717+028783FM-12+000399999V0202001N004119999999N0000001N9-00831+99999102021ADDGF108991999999999999999999MW1721
0035228920999991911013120004+60717+028783FM-12+000399999V0201601N004119999999N0000001N9-00891+99999101111ADDGF108991999999999999999999MW1721
0035228920999991911020106004+60717+028783FM-12+000399999V0203601N004119999999N0000001N9-01001+99999101441ADDGF108991999999999999999999MW1721
0035228920999991911020113004+60717+028783FM-12+000399999V0203401N002119999999N0000001N9-00831+99999101751ADDGF108991999999999999999999MW1721
0029228920999991911020120004+60717+028783FM-12+000399999V0200201N002119999999N0000001N9-01001+99999101881ADDGF108991999999999999999999
0029228920999991911020206004+60717+028783FM-12+000399999V0200901N002119999999N0000001N9-01441+99999101841ADDGF108991999999999999999999
0029228920999991911020213004+60717+028783FM-12+000399999V0201401N004119999999N0000001N9-01331+99999101481ADDGF108991999999999999999999
0029228920999991911020220004+60717+028783FM-12+000399999V0209991C000019999999N0000001N9-01831+99999101841ADDGF100991999999999999999999
0029228920999991911020306004+60717+028783FM-12+000399999V0203601N002119999999N0000001N9-01611+99999102341ADDGF108991999999999999999999
0029228920999991911020313004+60717+028783FM-12+000399999V0202001N006219999999N0000001N9-01391+99999101821ADDGF108991999999999999999999
0035228920999991911020320004+60717+028783FM-12+000399999V0202001N008219999999N0000001N9-00941+99999100181ADDGF108991999999999999999999MW1721
0029228920999991911020406004+60717+028783FM-12+000399999V0203601N008219999999N0000001N9-00331+99999098951ADDGF108991999999999999999999
0035228920999991911020413004+60717+028783FM-12+000399999V0209991C000019999999N0000001N9-00281+99999099101ADDGF108991999999999999999999MW1721
0029228920999991911020420004+60717+028783FM-12+000399999V0200701N004119999999N0000001N9-01061+99999099781ADDGF108991999999999999999999
0029228920999991911020506004+60717+028783FM-12+000399999V0200201N004119999999N0000001N9-01891+99999100681ADDGF100991999999999999999999
0029228920999991911020513004+60717+028783FM-12+000399999V0200201N004119999999N0000001N9-01831+99999101561ADDGF100991999999999999999999
0029228920999991911020520004+60717+028783FM-12+000399999V0200701N004119999999N0000001N9-02061+99999102391ADDGF100991999999999999999999
0029228920999991911020606004+60717+028783FM-12+000399999V0200501N002119999999N0000001N9-02441+99999103121ADDGF100991999999999999999999
0029228920999991911020613004+60717+028783FM-12+000399999V0209991C000019999999N0000001N9-01941+99999103221ADDGF100991999999999999999999
0029228920999991911020620004+60717+028783FM-12+000399999V0209991C000019999999N0000001N9-02781+99999102981ADDGF100991999999999999999999
0029228920999991911020706004+60717+028783FM-12+000399999V0201601N004119999999N0000001N9-02221+99999101841ADDGF104991999999999999999999
0035228920999991911020713004+60717+028783FM-12+000399999V0201801N008219999999N0000001N9-01391+99999100791ADDGF108991999999999999999999MW1721
0029228920999991911020720004+60717+028783FM-12+000399999V0209991C000019999999N0000001N9-01281+99999100301ADDGF108991999999999999999999
0029228920999991911020806004+60717+028783FM-12+000399999V0200201N004119999999N0000001N9-01611+99999101121ADDGF107991999999999999999999
0029228920999991911020813004+60717+028783FM-12+000399999V0203401N004119999999N0000001N9-01171+99999101641ADDGF100991999999999999999999
0029228920999991911020820004+60717+028783FM-12+000399999V0209991C000019999999N0000001N9-01781+99999102021ADDGF100991999999999999999999
0029228920999991911020906004+60717+028783FM-12+000399999V0209991C000019999999N0000001N9-02671+99999102121ADDGF102991999999999999999999
0029228920999991911020913004+60717+028783FM-12+000399999V0201801N004119999999N0000001N9-00831+99999101901ADDGF108991999999999999999999
0029228920999991911020920004+60717+028783FM-12+000399999V0202001N002119999999N0000001N9-01001+99999101741ADDGF108991999999999999999999
0029228920999991911021006004+60717+028783FM-12+000399999V0209991C000019999999N0000001N9-01001+99999102001ADDGF108991999999999999999999
0029228920999991911021013004+60717+028783FM-12+000399999V0200501N004119999999N0000001N9-00721+99999102311ADDGF108991999999999999999999
0029228920999991911021020004+60717+028783FM-12+000399999V0209991C000019999999N0000001N9-01441+99999102551ADDGF101991999999999999999999
0029228920999991911021106004+60717+028783FM-12+000399999V0201101N006219999999N0000001N9-01331+99999102821ADDGF108991999999999999999999
0029228920999991911021113004+60717+028783FM-12+000399999V0201401N006219999999N0000001N9-01221+99999103061ADDGF108991999999999999999999
0029228920999991911021120004+60717+028783FM-12+000399999V0201401N004119999999N0000001N9-01561+99999103341ADDGF108991999999999999999999
0029228920999991911021206004+60717+028783FM-12+000399999V0201401N004119999999N0000001N9-01891+99999103781ADDGF108991999999999999999999
0029228920999991911021213004+60717+028783FM-12+000399999V0201401N002119999999N0000001N9-01831+99999104061ADDGF108991999999999999999999
0029228920999991911021220004+60717+028783FM-12+000399999V0209991C000019999999N0000001N9-02831+99999104181ADDGF107991999999999999999999
0029228920999991911021306004+60717+028783FM-12+000399999V0209991C000019999999N0000001N9-01891+99999104341ADDGF108991999999999999999999
0029228920999991911021313004+60717+028783FM-12+000399999V0202301N004119999999N0000001N9-01671+99999104341ADDGF104991999999999999999999
0029228920999991911021320004+60717+028783FM-12+000399999V0209991C000019999999N0000001N9-02001+99999104191ADDGF100991999999999999999999
0029228920999991911021406004+60717+028783FM-12+000399999V0209991C000019999999N0000001N9-02441+99999103751ADDGF102991999999999999999999
0035228920999991911021413004+60717+028783FM-12+000399999V0201801N004119999999N0000001N9-01501+99999103241ADDGF108991999999999999999999MW1721
0035228920999991911021420004+60717+028783FM-12+000399999V0202001N009819999999N0000001N9-00941+99999102551ADDGF108991999999999999999999MW1721
0035228920999991911021506004+60717+028783FM-12+000399999V0202301N011819999999N0000001N9-00441+99999101621ADDGF108991999999999999999999MW1721
0035228920999991911021513004+60717+028783FM-12+000399999V0202301N011819999999N0000001N9-00331+99999101241ADDGF108991999999999999999999MW1721
0035228920999991911021520004+60717+028783FM-12+000399999V0202301N011819999999N0000001N9-00561+99999100791ADDGF108991999999999999999999MW1721
0029228920999991911021606004+60717+028783FM-12+000399999V0202301N008219999999N0000001N9-00441+99999100391ADDGF108991999999999999999999
0029228920999991911021613004+60717+028783FM-12+000399999V0202301N008219999999N0000001N9-00281+99999100201ADDGF108991999999999999999999
0035228920999991911021620004+60717+028783FM-12+000399999V0202501N004119999999N0000001N9-00171+99999099381ADDGF108991999999999999999999MW1721
0035228920999991911021706004+60717+028783FM-12+000399999V0202001N011819999999N0000001N9-00171+99999097701ADDGF108991999999999999999999MW1721
0035228920999991911021713004+60717+028783FM-12+000399999V0202301N006219999999N0000001N9+00111+99999097021ADDGF108991999999999999999999MW1721
0035228920999991911021720004+60717+028783FM-12+000399999V0200201N002119999999N0000001N9+00001+99999096681ADDGF108991999999999999999999MW1721
0035228920999991911021806004+60717+028783FM-12+000399999V0203401N011819999999N0000001N9-00831+99999097221ADDGF108991999999999999999999MW1721
0035228920999991911021813004+60717+028783FM-12+000399999V0202901N008219999999N0000001N9-00831+99999097631ADDGF108991999999999999999999MW1721
0035228920999991911021820004+60717+028783FM-12+000399999V0203201N006219999999N0000001N9-00941+99999097701ADDGF108991999999999999999999MW1721
0029228920999991911021906004+60717+028783FM-12+000399999V0203401N008219999999N0000001N9-01441+99999098231ADDGF102991999999999999999999
0029228920999991911021913004+60717+028783FM-12+000399999V0203401N004119999999N0000001N9-01221+99999098321ADDGF100991999999999999999999
0029228920999991911021920004+60717+028783FM-12+000399999V0203401N002119999999N0000001N9-02001+99999098281ADDGF100991999999999999999999
0029228920999991911022006004+60717+028783FM-12+000399999V0203401N004119999999N0000001N9-02171+99999098391ADDGF100991999999999999999999
0029228920999991911022013004+60717+028783FM-12+000399999V0203201N004119999999N0000001N9-01281+99999098781ADDGF100991999999999999999999
0029228920999991911022020004+60717+028783FM-12+000399999V0209991C000019999999N0000001N9-01891+99999099281ADDGF100991999999999999999999
0029228920999991911022106004+60717+028783FM-12+000399999V0209991C000019999999N0000001N9-02611+99999099791ADDGF102991999999999999999999
0029228920999991911022113004+60717+028783FM-12+000399999V0209991C000019999999N0000001N9-01331+99999100261ADDGF100991999999999999999999
0029228920999991911022120004+60717+028783FM-12+000399999V0209991C000019999999N0000001N9-01781+99999100581ADDGF100991999999999999999999
0029228920999991911022206004+60717+028783FM-12+000399999V0201801N004119999999N0000001N9-01001+99999100241ADDGF108991999999999999999999
0029228920999991911022213004+60717+028783FM-12+000399999V0201601N004119999999N0000001N9-00561+99999099391ADDGF108991999999999999999999
0035228920999991911022220004+60717+028783FM-12+000399999V0201601N011819999999N0000001N9-00501+99999098101ADDGF108991999999999999999999MW1721
0029228920999991911022306004+60717+028783FM-12+000399999V0202701N011819999999N0000001N9+00001+99999096871ADDGF108991999999999999999999
0029228920999991911022313004+60717+028783FM-12+000399999V0202301N009819999999N0000001N9+00001+99999097421ADDGF100991999999999999999999
0029228920999991911022320004+60717+028783FM-12+000399999V0202301N008219999999N0000001N9-00061+99999097781ADDGF108991999999999999999999
0035228920999991911022406004+60717+028783FM-12+000399999V0202301N008219999999N0000001N9+00061+99999097071ADDGF108991999999999999999999MW1721
0035228920999991911022413004+60717+028783FM-12+000399999V0202301N008219999999N0000001N9+00111+99999096821ADDGF108991999999999999999999MW1721
0035228920999991911022420004+60717+028783FM-12+000399999V0202301N011819999999N0000001N9+00171+99999096951ADDGF108991999999999999999999MW1721
0029228920999991911022506004+60717+028783FM-12+000399999V0202301N006219999999N0000001N9+00061+99999097511ADDGF108991999999999999999999
0035228920999991911022513004+60717+028783FM-12+000399999V0203401N008219999999N0000001N9-00441+99999098141ADDGF108991999999999999999999MW1701
0035228920999991911022520004+60717+028783FM-12+000399999V0203401N008219999999N0000001N9-01001+99999098921ADDGF108991999999999999999999MW1701
0029228920999991911022606004+60717+028783FM-12+000399999V0203201N002119999999N0000001N9-01721+99999099921ADDGF107991999999999999999999
0029228920999991911022613004+60717+028783FM-12+000399999V0203601N004119999999N0000001N9-01001+99999100351ADDGF100991999999999999999999
0029228920999991911022620004+60717+028783FM-12+000399999V0209991C000019999999N0000001N9-01891+99999100701ADDGF100991999999999999999999
0029228920999991911022706004+60717+028783FM-12+000399999V0209991C000019999999N0000001N9-02281+99999100871ADDGF101991999999999999999999
0029228920999991911022713004+60717+028783FM-12+000399999V0201401N004119999999N0000001N9-00891+99999100741ADDGF100991999999999999999999
0029228920999991911022720004+60717+028783FM-12+000399999V0201801N002119999999N0000001N9-01671+99999100741ADDGF100991999999999999999999
0029228920999991911022806004+60717+028783FM-12+000399999V0201401N002119999999N0000001N9-01721+99999101181ADDGF104991999999999999999999
0029228920999991911022813004+60717+028783FM-12+000399999V0209991C000019999999N0000001N9-00831+99999101431ADDGF100991999999999999999999
0029228920999991911022820004+60717+028783FM-12+000399999V0209991C000019999999N0000001N9-01221+99999101391ADDGF100991999999999999999999
0029228920999991911030106004+60717+028783FM-12+000399999V0201601N004119999999N0000001N9-01441+99999101191ADDGF108991999999999999999999
0029228920999991911030113004+60717+028783FM-12+000399999V0201601N008219999999N0000001N9+00061+99999100741ADDGF104991999999999999999999
0029228920999991911030120004+60717+028783FM-12+000399999V0201601N008219999999N0000001N9-00281+99999100551ADDGF100991999999999999999999
0035228920999991911030206004+60717+028783FM-12+000399999V0202001N009819999999N0000001N9-00331+99999100181ADDGF108991999999999999999999MW1721
0035228920999991911030213004+60717+028783FM-12+000399999V0202001N009819999999N0000001N9-00221+99999100061ADDGF108991999999999999999999MW1721
0029228920999991911030220004+60717+028783FM-12+000399999V0202001N004119999999N0000001N9-00171+99999100071ADDGF108991999999999999999999
0029228920999991911030306004+60717+028783FM-12+000399999V0209991C000019999999N0000001N9-00221+99999100421ADDGF108991999999999999999999
0029228920999991911030313004+60717+028783FM-12+000399999V0202301N004119999999N0000001N9+00111+99999100751ADDGF108991999999999999999999
0029228920999991911030320004+60717+028783FM-12+000399999V0202301N002119999999N0000001N9-00111+99999100981ADDGF108991999999999999999999
0029228920999991911030406004+60717+028783FM-12+000399999V0201801N004119999999N0000001N9-00501+99999100871ADDGF108991999999999999999999
0035228920999991911030413004+60717+028783FM-12+000399999V0202001N006219999999N0000001N9-00061+99999100601ADDGF108991999999999999999999MW1721
0035228920999991911030420004+60717+028783FM-12+000399999V0202001N008219999999N0000001N9-00061+99999100111ADDGF108991999999999999999999MW1721
0029228920999991911030506004+60717+028783FM-12+000399999V0201601N004119999999N0000001N9+00001+99999099801ADDGF108991999999999999999999
0029228920999991911030513004+60717+028783FM-12+000399999V0201601N002119999999N0000001N9+00171+99999099701ADDGF108991999999999999999999
0029228920999991911030520004+60717+028783FM-12+000399999V0209991C000019999999N0000001N9+00001+99999099741ADDGF108991999999999999999999
0029228920999991911030606004+60717+028783FM-12+000399999V0200201N002119999999N0000001N9-00111+99999099841ADDGF108991999999999999999999
0029228920999991911030613004+60717+028783FM-12+000399999V0203601N004119999999N0000001N9+00171+99999099951ADDGF108991999999999999999999
0035228920999991911030620004+60717+028783FM-12+000399999V0203401N004119999999N0000001N9-00221+99999100241ADDGF108991999999999999999999MW1701
0029228920999991911030706004+60717+028783FM-12+000399999V0203401N004119999999N0000001N9-00441+99999100661ADDGF108991999999999999999999
0029228920999991911030713004+60717+028783FM-12+000399999V0202701N004119999999N0000001N9-00171+99999100961ADDGF108991999999999999999999
0029228920999991911030720004+60717+028783FM-12+000399999V0202501N002119999999N0000001N9-00561+99999101181ADDGF108991999999999999999999
0029228920999991911030806004+60717+028783FM-12+000399999V0209991C000019999999N0000001N9-01001+99999101351ADDGF108991999999999999999999
0029228920999991911030813004+60717+028783FM-12+000399999V0202001N002119999999N0000001N9-00281+99999101421ADDGF108991999999999999999999
0029228920999991911030820004+60717+028783FM-12+000399999V0209991C000019999999N0000001N9-00671+99999101381ADDGF108991999999999999999999
0029228920999991911030906004+60717+028783FM-12+000399999V0202901N002119999999N0000001N9-00671+99999101421ADDGF108991999999999999999999
0029228920999991911030913004+60717+028783FM-12+000399999V0203201N004119999999N0000001N9-00331+99999101701ADDGF100991999999999999999999
0029228920999991911030920004+60717+028783FM-12+000399999V0202701N002119999999N0000001N9-01331+99999101941ADDGF108991999999999999999999
0029228920999991911031006004+60717+028783FM-12+000399999V0201801N002119999999N0000001N9-00721+99999102031ADDGF108991999999999999999999
0035228920999991911031013004+60717+028783FM-12+000399999V0202001N006219999999N0000001N9-00171+99999101921ADDGF108991999999999999999999MW1721
0029228920999991911031020004+60717+028783FM-12+000399999V0202501N006219999999N0000001N9-00061+99999101951ADDGF108991999999999999999999
0029228920999991911031106004+60717+028783FM-12+000399999V0202001N004119999999N0000001N9-00391+99999101831ADDGF108991999999999999999999
0029228920999991911031113004+60717+028783FM-12+000399999V0201601N006219999999N0000001N9-00061+99999101781ADDGF108991999999999999999999
0029228920999991911031120004+60717+028783FM-12+000399999V0201801N006219999999N0000001N9-00061+99999101681ADDGF108991999999999999999999
0029228920999991911031206004+60717+028783FM-12+000399999V0202501N008219999999N0000001N9-00061+99999101511ADDGF108991999999999999999999
0029228920999991911031213004+60717+028783FM-12+000399999V0202001N008219999999N0000001N9+00331+99999101541ADDGF107991999999999999999999
0029228920999991911031220004+60717+028783FM-12+000399999V0201601N008219999999N0000001N9+00111+99999101501ADDGF108991999999999999999999
0035228920999991911031306004+60717+028783FM-12+000399999V0201601N006219999999N0000001N9-00171+99999101401ADDGF108991999999999999999999MW1721
0029228920999991911031313004+60717+028783FM-12+000399999V0201601N004119999999N0000001N9+00171+99999101381ADDGF100991999999999999999999
0029228920999991911031320004+60717+028783FM-12+000399999V0201401N004119999999N0000001N9-00111+99999101461ADDGF108991999999999999999999
0029228920999991911031406004+60717+028783FM-12+000399999V0201601N004119999999N0000001N9-00111+99999101551ADDGF108991999999999999999999
0029228920999991911031413004+60717+028783FM-12+000399999V0202301N002119999999N0000001N9+00281+99999101751ADDGF104991999999999999999999
0029228920999991911031420004+60717+028783FM-12+000399999V0201601N002119999999N0000001N9-00391+99999101841ADDGF101991999999999999999999
0029228920999991911031506004+60717+028783FM-12+000399999V0209991C000019999999N0000001N9-01061+99999101941ADDGF108991999999999999999999
0029228920999991911031513004+60717+028783FM-12+000399999V0202301N006219999999N0000001N9-00061+99999101981ADDGF108991999999999999999999
0035228920999991911031520004+60717+028783FM-12+000399999V0202001N002119999999N0000001N9-00391+99999101861ADDGF108991999999999999999999MW1721
0035228920999991911031606004+60717+028783FM-12+000399999V0209991C000019999999N0000001N9-00441+99999101641ADDGF108991999999999999999999MW1721
0029228920999991911031613004+60717+028783FM-12+000399999V0209991C000019999999N0000001N9+00061+99999101551ADDGF108991999999999999999999
0029228920999991911031620004+60717+028783FM-12+000399999V0200201N002119999999N0000001N9-00281+99999101621ADDGF108991999999999999999999
0029228920999991911031706004+60717+028783FM-12+000399999V0209991C000019999999N0000001N9-00561+99999102121ADDGF104991999999999999999999
0029228920999991911031713004+60717+028783FM-12+000399999V0200501N004119999999N0000001N9-00061+99999102241ADDGF106991999999999999999999
0029228920999991911031720004+60717+028783FM-12+000399999V0203601N002119999999N0000001N9-00941+99999102311ADDGF101991999999999999999999
0029228920999991911031806004+60717+028783FM-12+000399999V0209991C000019999999N0000001N9-00611+99999102241ADDGF106991999999999999999999
0029228920999991911031813004+60717+028783FM-12+000399999V0209991C000019999999N0000001N9+00171+99999102301ADDGF108991999999999999999999
0029228920999991911031820004+60717+028783FM-12+000399999V0209991C000019999999N0000001N9-01001+99999102561ADDGF100991999999999999999999
0029228920999991911031906004+60717+028783FM-12+000399999V0209991C000019999999N0000001N9-01441+99999102421ADDGF100991999999999999999999
0029228920999991911031913004+60717+028783FM-12+000399999V0202301N008219999999N0000001N9-00391+99999101941ADDGF107991999999999999999999
0029228920999991911031920004+60717+028783FM-12+000399999V0202301N002119999999N0000001N9-00891+99999101721ADDGF100991999999999999999999
0029228920999991911032006004+60717+028783FM-12+000399999V0200201N002119999999N0000001N9-00611+99999102301ADDGF100991999999999999999999
0029228920999991911032013004+60717+028783FM-12+000399999V0200501N004119999999N0000001N9-00331+99999102671ADDGF100991999999999999999999
0029228920999991911032020004+60717+028783FM-12+000399999V0209991C000019999999N0000001N9-01391+99999102921ADDGF100991999999999999999999
0029228920999991911032106004+60717+028783FM-12+000399999V0202501N006219999999N0000001N9-01171+99999103181ADDGF108991999999999999999999
0029228920999991911032113004+60717+028783FM-12+000399999V0202001N006219999999N0000001N9-00221+99999103111ADDGF108991999999999999999999
0029228920999991911032120004+60717+028783FM-12+000399999V0202001N004119999999N0000001N9-01171+99999103061ADDGF101991999999999999999999
0029228920999991911032206004+60717+028783FM-12+000399999V0209991C000019999999N0000001N9-01831+99999102911ADDGF100991999999999999999999
0029228920999991911032213004+60717+028783FM-12+000399999V0202001N004119999999N0000001N9-00281+99999102621ADDGF108991999999999999999999
0029228920999991911032220004+60717+028783FM-12+000399999V0209991C000019999999N0000001N9-01061+99999102261ADDGF101991999999999999999999
0029228920999991911032306004+60717+028783FM-12+000399999V0209991C000019999999N0000001N9-00831+99999101561ADDGF108991999999999999999999
0029228920999991911032313004+60717+028783FM-12+000399999V0202301N006219999999N0000001N9-00111+99999101241ADDGF100991999999999999999999
0035228920999991911032320004+60717+028783FM-12+000399999V0202301N004119999999N0000001N9-00331+99999100921ADDGF108991999999999999999999MW1721
0035228920999991911032406004+60717+028783FM-12+000399999V0202001N002119999999N0000001N9-00441+99999100781ADDGF108991999999999999999999MW1701
0029228920999991911032413004+60717+028783FM-12+000399999V0202501N004119999999N0000001N9+00281+99999101001ADDGF103991999999999999999999
0029228920999991911032420004+60717+028783FM-12+000399999V0209991C000019999999N0000001N9-00391+99999101381ADDGF100991999999999999999999
0029228920999991911032506004+60717+028783FM-12+000399999V0209991C000019999999N0000001N9-00781+99999101921ADDGF101991999999999999999999
0029228920999991911032513004+60717+028783FM-12+000399999V0203401N002119999999N0000001N9-00391+99999101991ADDGF100991999999999999999999
0029228920999991911032520004+60717+028783FM-12+000399999V0202701N002119999999N0000001N9-00831+99999102041ADDGF100991999999999999999999
0029228920999991911032606004+60717+028783FM-12+000399999V0202501N002119999999N0000001N9-01171+99999101821ADDGF108991999999999999999999
0029228920999991911032613004+60717+028783FM-12+000399999V0202001N004119999999N0000001N9+00061+99999101821ADDGF101991999999999999999999
0029228920999991911032620004+60717+028783FM-12+000399999V0209991C000019999999N0000001N9-00721+99999101941ADDGF100991999999999999999999
0029228920999991911032706004+60717+028783FM-12+000399999V0202501N006219999999N0000001N9-00941+99999101671ADDGF101991999999999999999999
0029228920999991911032713004+60717+028783FM-12+000399999V0202301N011819999999N0000001N9+00171+99999101071ADDGF106991999999999999999999
0029228920999991911032720004+60717+028783FM-12+000399999V0202501N004119999999N0000001N9+00171+99999100801ADDGF108991999999999999999999
0029228920999991911032806004+60717+028783FM-12+000399999V0203201N008219999999N0000001N9+00221+99999100681ADDGF108991999999999999999999
0029228920999991911032813004+60717+028783FM-12+000399999V0203401N009819999999N0000001N9-00111+99999101101ADDGF101991999999999999999999
0029228920999991911032820004+60717+028783FM-12+000399999V0203401N002119999999N0000001N9-00781+99999101551ADDGF100991999999999999999999
0029228920999991911032906004+60717+028783FM-12+000399999V0202701N002119999999N0000001N9-01221+99999101791ADDGF100991999999999999999999
0029228920999991911032913004+60717+028783FM-12+000399999V0202701N008219999999N0000001N9+00001+99999101741ADDGF107991999999999999999999
0029228920999991911032920004+60717+028783FM-12+000399999V0209991C000019999999N0000001N9-00671+99999102321ADDGF100991999999999999999999
0029228920999991911033006004+60717+028783FM-12+000399999V0202301N002119999999N0000001N9-01111+99999102401ADDGF104991999999999999999999
0029228920999991911033013004+60717+028783FM-12+000399999V0202301N011819999999N0000001N9-00061+99999102031ADDGF101991999999999999999999
0029228920999991911033020004+60717+028783FM-12+000399999V0202301N011819999999N0000001N9-00061+99999101321ADDGF101991999999999999999999
0029228920999991911033106004+60717+028783FM-12+000399999V0202301N011819999999N0000001N9+00061+99999099721ADDGF108991999999999999999999
0029228920999991911033113004+60717+028783FM-12+000399999V0202901N011819999999N0000001N9+00671+99999099401ADDGF102991999999999999999999
0029228920999991911033120004+60717+028783FM-12+000399999V0203201N009819999999N0000001N9+00111+99999099991ADDGF100991999999999999999999
0029228920999991911040106004+60717+028783FM-12+000399999V0203201N004119999999N0000001N9-00331+99999101151ADDGF100991999999999999999999
0029228920999991911040113004+60717+028783FM-12+000399999V0202301N011819999999N0000001N9+00061+99999101111ADDGF101991999999999999999999
0029228920999991911040120004+60717+028783FM-12+000399999V0202701N008219999999N0000001N9-00171+99999100821ADDGF107991999999999999999999
0029228920999991911040206004+60717+028783FM-12+000399999V0202001N008219999999N0000001N9-00331+99999100231ADDGF108991999999999999999999
0029228920999991911040213004+60717+028783FM-12+000399999V0202001N011819999999N0000001N9+00281+99999099751ADDGF108991999999999999999999
0029228920999991911040220004+60717+028783FM-12+000399999V0202001N006219999999N0000001N9+00001+99999099351ADDGF106991999999999999999999
0035228920999991911040306004+60717+028783FM-12+000399999V0209991C000019999999N0000001N9+00001+99999099221ADDGF108991999999999999999999MW1721
0029228920999991911040313004+60717+028783FM-12+000399999V0200501N006219999999N0000001N9-00061+99999099521ADDGF108991999999999999999999
0029228920999991911040320004+60717+028783FM-12+000399999V0200501N009819999999N0000001N9-00441+99999099921ADDGF108991999999999999999999
0035228920999991911040406004+60717+028783FM-12+000399999V0200201N011819999999N0000001N9-00891+99999100261ADDGF108991999999999999999999MW1721
0035228920999991911040413004+60717+028783FM-12+000399999V0200201N011819999999N0000001N9-00831+99999100321ADDGF108991999999999999999999MW1721
0035228920999991911040420004+60717+028783FM-12+000399999V0200201N011819999999N0000001N9-00941+99999100471ADDGF108991999999999999999999MW1721
0035228920999991911040506004+60717+028783FM-12+000399999V0203401N006219999999N0000001N9-00891+99999100951ADDGF108991999999999999999999MW1721
0029228920999991911040513004+60717+028783FM-12+000399999V0203601N006219999999N0000001N9-00501+99999101631ADDGF108991999999999999999999
0029228920999991911040520004+60717+028783FM-12+000399999V0203601N004119999999N0000001N9-00781+99999101961ADDGF108991999999999999999999
0029228920999991911040606004+60717+028783FM-12+000399999V0209991C000019999999N0000001N9-01001+99999101951ADDGF100991999999999999999999
0029228920999991911040613004+60717+028783FM-12+000399999V0202301N008219999999N0000001N9-00221+99999101641ADDGF100991999999999999999999
0029228920999991911040620004+60717+028783FM-12+000399999V0202301N002119999999N0000001N9-00441+99999101781ADDGF103991999999999999999999
0029228920999991911040706004+60717+028783FM-12+000399999V0209991C000019999999N0000001N9-00671+99999101361ADDGF100991999999999999999999
0029228920999991911040713004+60717+028783FM-12+000399999V0200201N004119999999N0000001N9+00561+99999101501ADDGF103991999999999999999999
0029228920999991911040720004+60717+028783FM-12+000399999V0203601N004119999999N0000001N9+00171+99999101791ADDGF108991999999999999999999
0029228920999991911040806004+60717+028783FM-12+000399999V0209991C000019999999N0000001N9-00281+99999101871ADDGF100991999999999999999999
0029228920999991911040813004+60717+028783FM-12+000399999V0202301N009819999999N0000001N9+00331+99999101551ADDGF100991999999999999999999
0029228920999991911040820004+60717+028783FM-12+000399999V0202301N004119999999N0000001N9-00111+99999101061ADDGF107991999999999999999999
0029228920999991911040906004+60717+028783FM-12+000399999V0203401N006219999999N0000001N9+00221+99999101071ADDGF103991999999999999999999
0029228920999991911040913004+60717+028783FM-12+000399999V0203401N006219999999N0000001N9+00501+99999100921ADDGF100991999999999999999999
0029228920999991911040920004+60717+028783FM-12+000399999V0203401N002119999999N0000001N9-00331+99999100791ADDGF103991999999999999999999
0029228920999991911041006004+60717+028783FM-12+000399999V0203401N002119999999N0000001N9-00061+99999100821ADDGF101991999999999999999999
0029228920999991911041013004+60717+028783FM-12+000399999V0203201N009819999999N0000001N9+00331+99999100791ADDGF106991999999999999999999
0029228920999991911041020004+60717+028783FM-12+000399999V0203401N006219999999N0000001N9-00171+99999100641ADDGF108991999999999999999999
0029228920999991911041106004+60717+028783FM-12+000399999V0209991C000019999999N0000001N9-00391+99999100561ADDGF100991999999999999999999
0029228920999991911041113004+60717+028783FM-12+000399999V0202301N008219999999N0000001N9+00111+99999100261ADDGF106991999999999999999999
0029228920999991911041120004+60717+028783FM-12+000399999V0202301N002119999999N0000001N9-00171+99999099961ADDGF108991999999999999999999
0029228920999991911041206004+60717+028783FM-12+000399999V0209991C000019999999N0000001N9-00281+99999099681ADDGF108991999999999999999999
0029228920999991911041213004+60717+028783FM-12+000399999V0200701N002119999999N0000001N9+00331+99999099551ADDGF101991999999999999999999
0029228920999991911041220004+60717+028783FM-12+000399999V0209991C000019999999N0000001N9-00111+99999099981ADDGF108991999999999999999999
0029228920999991911041306004+60717+028783FM-12+000399999V0203601N004119999999N0000001N9-00061+99999100581ADDGF108991999999999999999999
0029228920999991911041313004+60717+028783FM-12+000399999V0203401N008219999999N0000001N9+00111+99999100991ADDGF108991999999999999999999
0029228920999991911041320004+60717+028783FM-12+000399999V0209991C000019999999N0000001N9-00331+99999101351ADDGF104991999999999999999999
0029228920999991911041406004+60717+028783FM-12+000399999V0202901N002119999999N0000001N9-00281+99999101521ADDGF100991999999999999999999
0029228920999991911041413004+60717+028783FM-12+000399999V0202001N009819999999N0000001N9+00331+99999101241ADDGF108991999999999999999999
0029228920999991911041420004+60717+028783FM-12+000399999V0202001N011819999999N0000001N9+00111+99999100701ADDGF107991999999999999999999
0035228920999991911041506004+60717+028783FM-12+000399999V0201801N011819999999N0000001N9+00001+99999100121ADDGF108991999999999999999999MW1721
0035228920999991911041513004+60717+028783FM-12+000399999V0201801N004119999999N0000001N9+00171+99999999999ADDGF108991999999999999999999MW1721
0029228920999991911041520004+60717+028783FM-12+000399999V0201601N009819999999N0000001N9+00171+99999099791ADDGF108991999999999999999999
0035228920999991911041606004+60717+028783FM-12+000399999V0202001N008219999999N0000001N9+00111+99999099401ADDGF108991999999999999999999MW1621
0029228920999991911041613004+60717+028783FM-12+000399999V0202301N006219999999N0000001N9+00501+99999099461ADDGF106991999999999999999999
0029228920999991911041620004+60717+028783FM-12+000399999V0201101N004119999999N0000001N9+00171+99999098681ADDGF108991999999999999999999
0035228920999991911041706004+60717+028783FM-12+000399999V0200201N004119999999N0000001N9+00171+99999098521ADDGF108991999999999999999999MW1721
0029228920999991911041713004+60717+028783FM-12+000399999V0202901N004119999999N0000001N9+00561+99999099321ADDGF104991999999999999999999
0029228920999991911041720004+60717+028783FM-12+000399999V0202701N004119999999N0000001N9+00001+99999100551ADDGF100991999999999999999999
0029228920999991911041806004+60717+028783FM-12+000399999V0202301N006219999999N0000001N9-00061+99999101181ADDGF100991999999999999999999
0029228920999991911041813004+60717+028783FM-12+000399999V0202301N009819999999N0000001N9+00391+99999101681ADDGF101991999999999999999999
0035228920999991911041820004+60717+028783FM-12+000399999V0202301N011819999999N0000001N9+00171+99999101831ADDGF108991999999999999999999MW1721
0029228920999991911041906004+60717+028783FM-12+000399999V0202501N002119999999N0000001N9+00281+99999101441ADDGF108991999999999999999999
0029228920999991911041913004+60717+028783FM-12+000399999V0203401N004119999999N0000001N9+00611+99999101781ADDGF104991999999999999999999
0029228920999991911041920004+60717+028783FM-12+000399999V0209991C000019999999N0000001N9+00001+99999102261ADDGF100991999999999999999999
0029228920999991911042006004+60717+028783FM-12+000399999V0209991C000019999999N0000001N9+00111+99999102951ADDGF100991999999999999999999
0029228920999991911042013004+60717+028783FM-12+000399999V0202701N002119999999N0000001N9+00781+99999103141ADDGF100991999999999999999999
0029228920999991911042020004+60717+028783FM-12+000399999V0209991C000019999999N0000001N9+00111+99999103231ADDGF100991999999999999999999
0029228920999991911042106004+60717+028783FM-12+000399999V0201401N004119999999N0000001N9+00441+99999103311ADDGF103991999999999999999999
0029228920999991911042113004+60717+028783FM-12+000399999V0201401N006219999999N0000001N9+01221+99999102921ADDGF105991999999999999999999
0029228920999991911042120004+60717+028783FM-12+000399999V0201601N002119999999N0000001N9+00561+99999102351ADDGF102991999999999999999999
0029228920999991911042206004+60717+028783FM-12+000399999V0202301N006219999999N0000001N9+00221+99999102271ADDGF100991999999999999999999
0029228920999991911042213004+60717+028783FM-12+000399999V0202301N008219999999N0000001N9+00391+99999102041ADDGF107991999999999999999999
0029228920999991911042220004+60717+028783FM-12+000399999V0202301N008219999999N0000001N9+00221+99999100791ADDGF108991999999999999999999
0035228920999991911042306004+60717+028783FM-12+000399999V0202301N006219999999N0000001N9+00281+99999100501ADDGF108991999999999999999999MW1621
0029228920999991911042313004+60717+028783FM-12+000399999V0202001N008219999999N0000001N9+00281+99999100501ADDGF108991999999999999999999
0029228920999991911042320004+60717+028783FM-12+000399999V0202001N004119999999N0000001N9+00111+99999100521ADDGF108991999999999999999999
0029228920999991911042406004+60717+028783FM-12+000399999V0202301N006219999999N0000001N9+00331+99999100041ADDGF108991999999999999999999
0035228920999991911042413004+60717+028783FM-12+000399999V0202301N008219999999N0000001N9+00331+99999099751ADDGF108991999999999999999999MW1621
0029228920999991911042420004+60717+028783FM-12+000399999V0202301N002119999999N0000001N9+00221+99999099641ADDGF108991999999999999999999
0046228920999991911042506004+60717+028783FM-12+000399999V0209991C000019999999N0000001N9+00391+99999099751ADDAJ100009199999999GF108991999999999999999999
0029228920999991911042513004+60717+028783FM-12+000399999V0202501N006219999999N0000001N9+00611+99999100151ADDGF101991999999999999999999
0035228920999991911042520004+60717+028783FM-12+000399999V0202301N004119999999N0000001N9+00171+99999100361ADDGF108991999999999999999999MW1601
0046228920999991911042606004+60717+028783FM-12+000399999V0203401N004119999999N0000001N9+00171+99999100861ADDAJ100009199999999GF100991999999999999999999
0029228920999991911042613004+60717+028783FM-12+000399999V0203401N006219999999N0000001N9+00501+99999101321ADDGF102991999999999999999999
0029228920999991911042620004+60717+028783FM-12+000399999V0200701N002119999999N0000001N9-00171+99999101621ADDGF102991999999999999999999
0046228920999991911042706004+60717+028783FM-12+000399999V0201101N006219999999N0000001N9+00281+99999101671ADDAJ100009199999999GF107991999999999999999999
0035228920999991911042713004+60717+028783FM-12+000399999V0200901N009819999999N0000001N9+00281+99999101401ADDGF108991999999999999999999MW1701
0029228920999991911042720004+60717+028783FM-12+000399999V0201101N006219999999N0000001N9+00221+99999100901ADDGF108991999999999999999999
0046228920999991911042806004+60717+028783FM-12+000399999V0201401N002119999999N0000001N9+00391+99999100521ADDAJ100009199999999GF108991999999999999999999
0029228920999991911042813004+60717+028783FM-12+000399999V0209991C000019999999N0000001N9+00611+99999100551ADDGF108991999999999999999999
0029228920999991911042820004+60717+028783FM-12+000399999V0209991C000019999999N0000001N9+00391+99999100461ADDGF108991999999999999999999
0046228920999991911042906004+60717+028783FM-12+000399999V0200901N002119999999N0000001N9+00391+99999100321ADDAJ100009199999999GF108991999999999999999999
0035228920999991911042913004+60717+028783FM-12+000399999V0201601N004119999999N0000001N9+00941+99999099881ADDGF108991999999999999999999MW1621
0029228920999991911042920004+60717+028783FM-12+000399999V0209991C000019999999N0000001N9+00281+99999999999ADDGF108991999999999999999999
0046228920999991911043006004+60717+028783FM-12+000399999V0209991C000019999999N0000001N9+00611+99999100041ADDAJ100009199999999GF108991999999999999999999
0029228920999991911043013004+60717+028783FM-12+000399999V0209991C000019999999N0000001N9+00721+99999100141ADDGF108991999999999999999999
0029228920999991911043020004+60717+028783FM-12+000399999V0202001N006219999999N0000001N9+00061+99999100311ADDGF108991999999999999999999
0046228920999991911050106004+60717+028783FM-12+000399999V0202301N002119999999N0000001N9+00391+99999100911ADDAJ100009199999999GF108991999999999999999999
0029228920999991911050113004+60717+028783FM-12+000399999V0209991C000019999999N0000001N9+00831+99999101021ADDGF108991999999999999999999
0029228920999991911050120004+60717+028783FM-12+000399999V0209991C000019999999N0000001N9+00221+99999101341ADDGF108991999999999999999999
0046228920999991911050206004+60717+028783FM-12+000399999V0202001N002119999999N0000001N9+00501+99999101921ADDAJ100009199999999GF100991999999999999999999
0029228920999991911050213004+60717+028783FM-12+000399999V0202501N004119999999N0000001N9+01281+99999102181ADDGF104991999999999999999999
0029228920999991911050220004+60717+028783FM-12+000399999V0201401N004119999999N0000001N9+00831+99999102111ADDGF108991999999999999999999
0046228920999991911050306004+60717+028783FM-12+000399999V0200501N002119999999N0000001N9+00721+99999101821ADDAJ100009199999999GF108991999999999999999999
0035228920999991911050313004+60717+028783FM-12+000399999V0200501N004119999999N0000001N9+00611+99999101681ADDGF108991999999999999999999MW1621
0035228920999991911050320004+60717+028783FM-12+000399999V0200501N006219999999N0000001N9+00391+99999101841ADDGF108991999999999999999999MW1621
0046228920999991911050406004+60717+028783FM-12+000399999V0209991C000019999999N0000001N9+00671+99999102471ADDAJ100009199999999GF104991999999999999999999
0029228920999991911050413004+60717+028783FM-12+000399999V0200901N004119999999N0000001N9+01171+99999102501ADDGF100991999999999999999999
0029228920999991911050420004+60717+028783FM-12+000399999V0209991C000019999999N0000001N9+00441+99999102511ADDGF100991999999999999999999
0046228920999991911050506004+60717+028783FM-12+000399999V0201601N002119999999N0000001N9+00891+99999102561ADDAJ100009199999999GF100991999999999999999999
0029228920999991911050513004+60717+028783FM-12+000399999V0201601N006219999999N0000001N9+01611+99999102351ADDGF100991999999999999999999
0029228920999991911050520004+60717+028783FM-12+000399999V0201101N004119999999N0000001N9+00611+99999102191ADDGF107991999999999999999999
0046228920999991911050606004+60717+028783FM-12+000399999V0201601N006219999999N0000001N9+01171+99999102151ADDAJ100009199999999GF107991999999999999999999
0029228920999991911050613004+60717+028783FM-12+000399999V0201601N006219999999N0000001N9+01781+99999102141ADDGF100991999999999999999999
0029228920999991911050620004+60717+028783FM-12+000399999V0209991C000019999999N0000001N9+01111+99999102231ADDGF100991999999999999999999
0046228920999991911050706004+60717+028783FM-12+000399999V0209991C000019999999N0000001N9+01221+99999102391ADDAJ100009199999999GF106991999999999999999999
0029228920999991911050713004+60717+028783FM-12+000399999V0202501N004119999999N0000001N9+01831+99999102521ADDGF100991999999999999999999
0029228920999991911050720004+60717+028783FM-12+000399999V0202301N004119999999N0000001N9+01001+99999102401ADDGF101991999999999999999999
0046228920999991911050806004+60717+028783FM-12+000399999V0202501N004119999999N0000001N9+01111+99999102361ADDAJ100009199999999GF100991999999999999999999
0029228920999991911050813004+60717+028783FM-12+000399999V0202001N011819999999N0000001N9+01221+99999102401ADDGF100991999999999999999999
0029228920999991911050820004+60717+028783FM-12+000399999V0202501N006219999999N0000001N9+00721+99999102361ADDGF100991999999999999999999
0046228920999991911050906004+60717+028783FM-12+000399999V0202301N004119999999N0000001N9+01061+99999102561ADDAJ100009199999999GF100991999999999999999999
0029228920999991911050913004+60717+028783FM-12+000399999V0202301N009819999999N0000001N9+01391+99999102511ADDGF100991999999999999999999
0029228920999991911050920004+60717+028783FM-12+000399999V0209991C000019999999N0000001N9+00891+99999102421ADDGF100991999999999999999999
0046228920999991911051006004+60717+028783FM-12+000399999V0203201N002119999999N0000001N9+01391+99999102551ADDAJ100009199999999GF100991999999999999999999
0029228920999991911051013004+60717+028783FM-12+000399999V0203201N004119999999N0000001N9+01891+99999102471ADDGF100991999999999999999999
0029228920999991911051020004+60717+028783FM-12+000399999V0209991C000019999999N0000001N9+01171+99999102511ADDGF108991999999999999999999
0046228920999991911051106004+60717+028783FM-12+000399999V0200701N004119999999N0000001N9+01111+99999102721ADDAJ100009199999999GF100991999999999999999999
0029228920999991911051113004+60717+028783FM-12+000399999V0203601N004119999999N0000001N9+01611+99999102551ADDGF101991999999999999999999
0029228920999991911051120004+60717+028783FM-12+000399999V0209991C000019999999N0000001N9+00941+99999102481ADDGF100991999999999999999999
0046228920999991911051206004+60717+028783FM-12+000399999V0203201N002119999999N0000001N9+01111+99999102161ADDAJ100009199999999GF100991999999999999999999
0029228920999991911051213004+60717+028783FM-12+000399999V0202001N008219999999N0000001N9+01441+99999101911ADDGF102991999999999999999999
0029228920999991911051220004+60717+028783FM-12+000399999V0209991C000019999999N0000001N9+00941+99999101761ADDGF100991999999999999999999
0046228920999991911051306004+60717+028783FM-12+000399999V0209991C000019999999N0000001N9+01061+99999101831ADDAJ100009199999999GF100991999999999999999999
0029228920999991911051313004+60717+028783FM-12+000399999V0202901N002119999999N0000001N9+01721+99999101741ADDGF100991999999999999999999
0029228920999991911051320004+60717+028783FM-12+000399999V0209991C000019999999N0000001N9+01221+99999101601ADDGF108991999999999999999999
0046228920999991911051406004+60717+028783FM-12+000399999V0200201N002119999999N0000001N9+01171+99999101431ADDAJ100009199999999GF101991999999999999999999
0029228920999991911051413004+60717+028783FM-12+000399999V0203601N002119999999N0000001N9+01611+99999101261ADDGF101991999999999999999999
0029228920999991911051420004+60717+028783FM-12+000399999V0202701N004119999999N0000001N9+01171+99999100881ADDGF108991999999999999999999
0046228920999991911051506004+60717+028783FM-12+000399999V0200701N002119999999N0000001N9+00671+99999100441ADDAJ100009199999999GF108991999999999999999999
0029228920999991911051513004+60717+028783FM-12+000399999V0200701N002119999999N0000001N9+01281+99999100541ADDGF108991999999999999999999
0029228920999991911051520004+60717+028783FM-12+000399999V0200201N002119999999N0000001N9+00561+99999100661ADDGF108991999999999999999999
0046228920999991911051606004+60717+028783FM-12+000399999V0203601N006219999999N0000001N9+00501+99999101031ADDAJ100009199999999GF108991999999999999999999
0029228920999991911051613004+60717+028783FM-12+000399999V0200201N004119999999N0000001N9+00561+99999101421ADDGF104991999999999999999999
0029228920999991911051620004+60717+028783FM-12+000399999V0200201N002119999999N0000001N9+00171+99999101741ADDGF100991999999999999999999
0046228920999991911051706004+60717+028783FM-12+000399999V0209991C000019999999N0000001N9+00441+99999101901ADDAJ100009199999999GF101991999999999999999999
0029228920999991911051713004+60717+028783FM-12+000399999V0202501N006219999999N0000001N9+00891+99999101671ADDGF103991999999999999999999
0029228920999991911051720004+60717+028783FM-12+000399999V0201601N004119999999N0000001N9+00611+99999101401ADDGF108991999999999999999999
0046228920999991911051806004+60717+028783FM-12+000399999V0201401N002119999999N0000001N9+00611+99999101221ADDAJ100009199999999GF108991999999999999999999
0029228920999991911051813004+60717+028783FM-12+000399999V0200501N004119999999N0000001N9+00721+99999101431ADDGF108991999999999999999999
0029228920999991911051820004+60717+028783FM-12+000399999V0209991C000019999999N0000001N9+00441+99999101431ADDGF101991999999999999999999
0046228920999991911051906004+60717+028783FM-12+000399999V0209991C000019999999N0000001N9+00721+99999101471ADDAJ100009199999999GF100991999999999999999999
0029228920999991911051913004+60717+028783FM-12+000399999V0202001N008219999999N0000001N9+01061+99999101461ADDGF103991999999999999999999
0029228920999991911051920004+60717+028783FM-12+000399999V0209991C000019999999N0000001N9+00721+99999100991ADDGF108991999999999999999999
0052228920999991911052006004+60717+028783FM-12+000399999V0201801N004119999999N0000001N9+00671+99999100591ADDAJ100009199999999GF108991999999999999999999MW1621
0035228920999991911052013004+60717+028783FM-12+000399999V0200201N002119999999N0000001N9+00561+99999100681ADDGF108991999999999999999999MW1621
0035228920999991911052020004+60717+028783FM-12+000399999V0200501N009819999999N0000001N9+00221+99999100711ADDGF108991999999999999999999MW1621
0046228920999991911052106004+60717+028783FM-12+000399999V0200501N009819999999N0000001N9+00111+99999100881ADDAJ100009199999999GF108991999999999999999999
0029228920999991911052113004+60717+028783FM-12+000399999V0200501N011819999999N0000001N9+00611+99999101021ADDGF108991999999999999999999
0029228920999991911052120004+60717+028783FM-12+000399999V0200701N008219999999N0000001N9+00221+99999101311ADDGF108991999999999999999999
0046228920999991911052206004+60717+028783FM-12+000399999V0200501N008219999999N0000001N9+00441+99999101351ADDAJ100009199999999GF108991999999999999999999
0029228920999991911052213004+60717+028783FM-12+000399999V0200701N009819999999N0000001N9+01001+99999101191ADDGF105991999999999999999999
0029228920999991911052220004+60717+028783FM-12+000399999V0200701N002119999999N0000001N9+00831+99999101001ADDGF102991999999999999999999
0052228920999991911052306004+60717+028783FM-12+000399999V0200501N004119999999N0000001N9+00561+99999100991ADDAJ100009199999999GF108991999999999999999999MW1621
0029228920999991911052313004+60717+028783FM-12+000399999V0200701N002119999999N0000001N9+01061+99999101301ADDGF108991999999999999999999
0029228920999991911052320004+60717+028783FM-12+000399999V0209991C000019999999N0000001N9+00831+99999101551ADDGF108991999999999999999999
0046228920999991911052406004+60717+028783FM-12+000399999V0202701N004119999999N0000001N9+00941+99999101791ADDAJ100009199999999GF108991999999999999999999
0029228920999991911052413004+60717+028783FM-12+000399999V0202301N002119999999N0000001N9+01501+99999101831ADDGF108991999999999999999999
0029228920999991911052420004+60717+028783FM-12+000399999V0209991C000019999999N0000001N9+00831+99999101921ADDGF104991999999999999999999
0046228920999991911052506004+60717+028783FM-12+000399999V0209991C000019999999N0000001N9+01001+99999102231ADDAJ100009199999999GF108991999999999999999999
0029228920999991911052513004+60717+028783FM-12+000399999V0209991C000019999999N0000001N9+01561+99999102381ADDGF108991999999999999999999
0029228920999991911052520004+60717+028783FM-12+000399999V0209991C000019999999N0000001N9+01061+99999102461ADDGF104991999999999999999999
0046228920999991911052606004+60717+028783FM-12+000399999V0209991C000019999999N0000001N9+01611+99999102661ADDAJ100009199999999GF100991999999999999999999
0029228920999991911052613004+60717+028783FM-12+000399999V0200901N004119999999N0000001N9+02331+99999102601ADDGF100991999999999999999999
0029228920999991911052620004+60717+028783FM-12+000399999V0209991C000019999999N0000001N9+01721+99999102601ADDGF101991999999999999999999
0046228920999991911052706004+60717+028783FM-12+000399999V0209991C000019999999N0000001N9+01941+99999102751ADDAJ100009199999999GF100991999999999999999999
0029228920999991911052713004+60717+028783FM-12+000399999V0202501N004119999999N0000001N9+02501+99999102711ADDGF100991999999999999999999
0029228920999991911052720004+60717+028783FM-12+000399999V0209991C000019999999N0000001N9+01831+99999102791ADDGF100991999999999999999999
0046228920999991911052806004+60717+028783FM-12+000399999V0209991C000019999999N0000001N9+01781+99999102981ADDAJ100009199999999GF100991999999999999999999
0029228920999991911052813004+60717+028783FM-12+000399999V0202301N004119999999N0000001N9+02171+99999102901ADDGF100991999999999999999999
0029228920999991911052820004+60717+028783FM-12+000399999V0209991C000019999999N0000001N9+01561+99999102841ADDGF100991999999999999999999
0046228920999991911052906004+60717+028783FM-12+000399999V0202301N004119999999N0000001N9+01781+99999102821ADDAJ100009199999999GF100991999999999999999999
0029228920999991911052913004+60717+028783FM-12+000399999V0202001N009819999999N0000001N9+02111+99999102581ADDGF100991999999999999999999
0029228920999991911052920004+60717+028783FM-12+000399999V0209991C000019999999N0000001N9+01611+99999102321ADDGF108991999999999999999999
0046228920999991911053006004+60717+028783FM-12+000399999V0203201N006219999999N0000001N9+01441+99999102271ADDAJ100009199999999GF101991999999999999999999
0029228920999991911053013004+60717+028783FM-12+000399999V0203401N006219999999N0000001N9+01891+99999101941ADDGF102991999999999999999999
0029228920999991911053020004+60717+028783FM-12+000399999V0203201N002119999999N0000001N9+01441+99999101601ADDGF104991999999999999999999
0046228920999991911053106004+60717+028783FM-12+000399999V0203401N006219999999N0000001N9+01111+99999101721ADDAJ100009199999999GF102991999999999999999999
0029228920999991911053113004+60717+028783FM-12+000399999V0200201N008219999999N0000001N9+01281+99999101881ADDGF103991999999999999999999
0029228920999991911053120004+60717+028783FM-12+000399999V0200201N006219999999N0000001N9+00831+99999102301ADDGF108991999999999999999999
0046228920999991911060106004+60717+028783FM-12+000399999V0200501N006219999999N0000001N9+00781+99999102641ADDAJ100009199999999GF108991999999999999999999
0029228920999991911060113004+60717+028783FM-12+000399999V0203201N008219999999N0000001N9+01221+99999102661ADDGF100991999999999999999999
0029228920999991911060120004+60717+028783FM-12+000399999V0209991C000019999999N0000001N9+01221+99999102591ADDGF108991999999999999999999
0046228920999991911060206004+60717+028783FM-12+000399999V0203401N002119999999N0000001N9+01501+99999102431ADDAJ100009199999999GF100991999999999999999999
0029228920999991911060213004+60717+028783FM-12+000399999V0202001N008219999999N0000001N9+01891+99999102031ADDGF100991999999999999999999
0029228920999991911060220004+60717+028783FM-12+000399999V0202001N002119999999N0000001N9+01171+99999101711ADDGF102991999999999999999999
0046228920999991911060306004+60717+028783FM-12+000399999V0203601N004119999999N0000001N9+01721+99999101701ADDAJ100009199999999GF100991999999999999999999
0029228920999991911060313004+60717+028783FM-12+000399999V0203601N004119999999N0000001N9+02331+99999101921ADDGF101991999999999999999999
0029228920999991911060320004+60717+028783FM-12+000399999V0209991C000019999999N0000001N9+01441+99999102471ADDGF102991999999999999999999
0046228920999991911060406004+60717+028783FM-12+000399999V0200901N002119999999N0000001N9+01501+99999102791ADDAJ100009199999999GF100991999999999999999999
0029228920999991911060413004+60717+028783FM-12+000399999V0202001N006219999999N0000001N9+02061+99999102711ADDGF100991999999999999999999
0029228920999991911060420004+60717+028783FM-12+000399999V0209991C000019999999N0000001N9+01671+99999102701ADDGF100991999999999999999999
0046228920999991911060506004+60717+028783FM-12+000399999V0202301N002119999999N0000001N9+01721+99999102761ADDAJ100009199999999GF100991999999999999999999
0029228920999991911060513004+60717+028783FM-12+000399999V0202301N004119999999N0000001N9+02331+99999102601ADDGF100991999999999999999999
0029228920999991911060520004+60717+028783FM-12+000399999V0202301N002119999999N0000001N9+01611+99999102351ADDGF100991999999999999999999
0046228920999991911060606004+60717+028783FM-12+000399999V0202301N002119999999N0000001N9+01671+99999102111ADDAJ100009199999999GF100991999999999999999999
0029228920999991911060613004+60717+028783FM-12+000399999V0202301N008219999999N0000001N9+02001+99999101391ADDGF100991999999999999999999
0029228920999991911060620004+60717+028783FM-12+000399999V0202501N006219999999N0000001N9+01561+99999100801ADDGF108991999999999999999999
0046228920999991911060706004+60717+028783FM-12+000399999V0203401N002119999999N0000001N9+01331+99999100431ADDAJ100009199999999GF102991999999999999999999
0029228920999991911060713004+60717+028783FM-12+000399999V0203201N004119999999N0000001N9+01391+99999100191ADDGF106991999999999999999999
0029228920999991911060720004+60717+028783FM-12+000399999V0203401N004119999999N0000001N9+01061+99999100111ADDGF102991999999999999999999
0046228920999991911060806004+60717+028783FM-12+000399999V0203601N008219999999N0000001N9+00781+99999099981ADDAJ100009199999999GF108991999999999999999999
0029228920999991911060813004+60717+028783FM-12+000399999V0203401N006219999999N0000001N9+00941+99999100121ADDGF108991999999999999999999
0029228920999991911060820004+60717+028783FM-12+000399999V0200201N002119999999N0000001N9+00831+99999100121ADDGF108991999999999999999999
0046228920999991911060906004+60717+028783FM-12+000399999V0203201N004119999999N0000001N9+00721+99999099821ADDAJ100009199999999GF107991999999999999999999
0029228920999991911060913004+60717+028783FM-12+000399999V0203401N008219999999N0000001N9+00891+99999099741ADDGF108991999999999999999999
0029228920999991911060920004+60717+028783FM-12+000399999V0202901N004119999999N0000001N9+00671+99999099681ADDGF108991999999999999999999
0046228920999991911061006004+60717+028783FM-12+000399999V0202501N004119999999N0000001N9+00671+99999099671ADDAJ100009199999999GF108991999999999999999999
0029228920999991911061013004+60717+028783FM-12+000399999V0202001N008219999999N0000001N9+01111+99999099751ADDGF101991999999999999999999
0029228920999991911061020004+60717+028783FM-12+000399999V0202501N004119999999N0000001N9+00671+99999099821ADDGF100991999999999999999999
0046228920999991911061106004+60717+028783FM-12+000399999V0202501N008219999999N0000001N9+00781+99999099821ADDAJ100009199999999GF101991999999999999999999
0029228920999991911061113004+60717+028783FM-12+000399999V0202501N006219999999N0000001N9+01061+99999099761ADDGF102991999999999999999999
0029228920999991911061120004+60717+028783FM-12+000399999V0202501N008219999999N0000001N9+00781+99999099661ADDGF108991999999999999999999
0046228920999991911061206004+60717+028783FM-12+000399999V0202501N004119999999N0000001N9+00831+99999099621ADDAJ100009199999999GF104991999999999999999999
0029228920999991911061213004+60717+028783FM-12+000399999V0202501N008219999999N0000001N9+00941+99999099801ADDGF101991999999999999999999
0029228920999991911061220004+60717+028783FM-12+000399999V0202501N004119999999N0000001N9+00831+99999099961ADDGF101991999999999999999999
0046228920999991911061306004+60717+028783FM-12+000399999V0209991C000019999999N0000001N9+01111+99999100241ADDAJ100009199999999GF101991999999999999999999
0029228920999991911061313004+60717+028783FM-12+000399999V0202701N006219999999N0000001N9+01171+99999100581ADDGF108991999999999999999999
0029228920999991911061320004+60717+028783FM-12+000399999V0202501N004119999999N0000001N9+01001+99999100761ADDGF100991999999999999999999
0046228920999991911061406004+60717+028783FM-12+000399999V0202501N002119999999N0000001N9+01061+99999101101ADDAJ100009199999999GF107991999999999999999999
0029228920999991911061413004+60717+028783FM-12+000399999V0202501N008219999999N0000001N9+01281+99999101231ADDGF106991999999999999999999
0029228920999991911061420004+60717+028783FM-12+000399999V0202501N006219999999N0000001N9+00941+99999101241ADDGF100991999999999999999999
0046228920999991911061506004+60717+028783FM-12+000399999V0202501N002119999999N0000001N9+01221+99999100981ADDAJ100009199999999GF107991999999999999999999
0029228920999991911061513004+60717+028783FM-12+000399999V0200701N008219999999N0000001N9+01281+99999100631ADDGF108991999999999999999999
0035228920999991911061520004+60717+028783FM-12+000399999V0200501N002119999999N0000001N9+00781+99999100261ADDGF108991999999999999999999MW1621
0046228920999991911061606004+60717+028783FM-12+000399999V0200201N004119999999N0000001N9+00941+99999100321ADDAJ100009199999999GF108991999999999999999999
0035228920999991911061613004+60717+028783FM-12+000399999V0202301N006219999999N0000001N9+01171+99999100631ADDGF108991999999999999999999MW1891
0029228920999991911061620004+60717+028783FM-12+000399999V0209991C000019999999N0000001N9+01061+99999100941ADDGF108991999999999999999999
0046228920999991911061706004+60717+028783FM-12+000399999V0203401N006219999999N0000001N9+01171+99999101151ADDAJ100009199999999GF102991999999999999999999
0029228920999991911061713004+60717+028783FM-12+000399999V0203401N004119999999N0000001N9+01281+99999101161ADDGF107991999999999999999999
0029228920999991911061720004+60717+028783FM-12+000399999V0203401N004119999999N0000001N9+01111+99999101041ADDGF103991999999999999999999
0046228920999991911061806004+60717+028783FM-12+000399999V0200501N006219999999N0000001N9+00721+99999100791ADDAJ100009199999999GF107991999999999999999999
0029228920999991911061813004+60717+028783FM-12+000399999V0203401N008219999999N0000001N9+00781+99999100711ADDGF107991999999999999999999
0000228920999991911061820004+60717+028783FM-12+000399999V0202901N004119999999N0000001N9+00501+99999100521
0046228920999991911061906004+60717+028783FM-12+000399999V0202901N006219999999N0000001N9+00561+99999100401ADDAJ100009199999999GF108991999999999999999999
0029228920999991911061913004+60717+028783FM-12+000399999V0202701N004119999999N0000001N9+01111+99999100521ADDGF106991999999999999999999
0029228920999991911061920004+60717+028783FM-12+000399999V0202501N006219999999N0000001N9+01001+99999100641ADDGF108991999999999999999999
0046228920999991911062006004+60717+028783FM-12+000399999V0202501N004119999999N0000001N9+01001+99999101041ADDAJ100009199999999GF100991999999999999999999
0029228920999991911062013004+60717+028783FM-12+000399999V0202001N008219999999N0000001N9+01221+99999101261ADDGF107991999999999999999999
0029228920999991911062020004+60717+028783FM-12+000399999V0209991C000019999999N0000001N9+01281+99999101181ADDGF106991999999999999999999
0046228920999991911062106004+60717+028783FM-12+000399999V0201601N004119999999N0000001N9+01721+99999100901ADDAJ100009199999999GF102991999999999999999999
0029228920999991911062113004+60717+028783FM-12+000399999V0209991C000019999999N0000001N9+01561+99999100871ADDGF108991999999999999999999
0029228920999991911062120004+60717+028783FM-12+000399999V0202501N002119999999N0000001N9+01441+99999100901ADDGF108991999999999999999999
0046228920999991911062206004+60717+028783FM-12+000399999V0202501N002119999999N0000001N9+01281+99999101191ADDAJ100009199999999GF108991999999999999999999
0029228920999991911062213004+60717+028783FM-12+000399999V0202301N006219999999N0000001N9+01331+99999101461ADDGF108991999999999999999999
0029228920999991911062220004+60717+028783FM-12+000399999V0202301N008219999999N0000001N9+01221+99999101631ADDGF100991999999999999999999
0046228920999991911062306004+60717+028783FM-12+000399999V0202301N006219999999N0000001N9+01391+99999101881ADDAJ100009199999999GF106991999999999999999999
0029228920999991911062313004+60717+028783FM-12+000399999V0202001N009819999999N0000001N9+01831+99999102031ADDGF100991999999999999999999
0029228920999991911062320004+60717+028783FM-12+000399999V0202001N004119999999N0000001N9+01721+99999102031ADDGF100991999999999999999999
0046228920999991911062406004+60717+028783FM-12+000399999V0209991C000019999999N0000001N9+01721+99999102191ADDAJ100009199999999GF100991999999999999999999
0029228920999991911062413004+60717+028783FM-12+000399999V0202301N004119999999N0000001N9+02281+99999102111ADDGF100991999999999999999999
0029228920999991911062420004+60717+028783FM-12+000399999V0209991C000019999999N0000001N9+01561+99999102031ADDGF100991999999999999999999
0046228920999991911062506004+60717+028783FM-12+000399999V0209991C000019999999N0000001N9+01941+99999102041ADDAJ100009199999999GF100991999999999999999999
0029228920999991911062513004+60717+028783FM-12+000399999V0209991C000019999999N0000001N9+02781+99999101911ADDGF100991999999999999999999
0029228920999991911062520004+60717+028783FM-12+000399999V0209991C000019999999N0000001N9+02061+99999101881ADDGF100991999999999999999999
0046228920999991911062606004+60717+028783FM-12+000399999V0209991C000019999999N0000001N9+02501+99999101941ADDAJ100009199999999GF100991999999999999999999
0029228920999991911062613004+60717+028783FM-12+000399999V0202501N004119999999N0000001N9+02781+99999101741ADDGF102991999999999999999999
0029228920999991911062620004+60717+028783FM-12+000399999V0201101N004119999999N0000001N9+02331+99999101391ADDGF100991999999999999999999
0046228920999991911062706004+60717+028783FM-12+000399999V0201801N002119999999N0000001N9+02501+99999101181ADDAJ100009199999999GF100991999999999999999999
0029228920999991911062713004+60717+028783FM-12+000399999V0202501N006219999999N0000001N9+02391+99999101041ADDGF103991999999999999999999
0029228920999991911062720004+60717+028783FM-12+000399999V0202501N006219999999N0000001N9+01501+99999101101ADDGF108991999999999999999999
0046228920999991911062806004+60717+028783FM-12+000399999V0202501N002119999999N0000001N9+01611+99999101111ADDAJ100009199999999GF105991999999999999999999
0000228920999991911062813004+60717+028783FM-12+000399999V0202001N004119999999N0000001N9+01781+99999100941
0029228920999991911062820004+60717+028783FM-12+000399999V0202301N008219999999N0000001N9+01611+99999100901ADDGF101991999999999999999999
0046228920999991911062906004+60717+028783FM-12+000399999V0202301N011819999999N0000001N9+01441+99999100961ADDAJ100009199999999GF108991999999999999999999
0035228920999991911062913004+60717+028783FM-12+000399999V0202301N011819999999N0000001N9+01501+99999101071ADDGF108991999999999999999999MW1621
0029228920999991911062920004+60717+028783FM-12+000399999V0202501N011819999999N0000001N9+01391+99999101061ADDGF108991999999999999999999
0046228920999991911063006004+60717+028783FM-12+000399999V0202301N006219999999N0000001N9+01441+99999101401ADDAJ100009199999999GF106991999999999999999999
0029228920999991911063013004+60717+028783FM-12+000399999V0202301N008219999999N0000001N9+01831+99999101421ADDGF100991999999999999999999
0029228920999991911063020004+60717+028783FM-12+000399999V0209991C000019999999N0000001N9+01611+99999101321ADDGF101991999999999999999999
0052228920999991911070106004+60717+028783FM-12+000399999V0201401N006219999999N0000001N9+01441+99999100981ADDAJ100009199999999GF108991999999999999999999MW1621
0029228920999991911070113004+60717+028783FM-12+000399999V0201601N011819999999N0000001N9+01441+99999100641ADDGF104991999999999999999999
0029228920999991911070120004+60717+028783FM-12+000399999V0201401N002119999999N0000001N9+01501+99999100671ADDGF108991999999999999999999
0046228920999991911070206004+60717+028783FM-12+000399999V0201601N006219999999N0000001N9+01781+99999100301ADDAJ100009199999999GF108991999999999999999999
0029228920999991911070213004+60717+028783FM-12+000399999V0202501N011819999999N0000001N9+01831+99999100481ADDGF101991999999999999999999
0029228920999991911070220004+60717+028783FM-12+000399999V0202001N006219999999N0000001N9+01281+99999101241ADDGF101991999999999999999999
0046228920999991911070306004+60717+028783FM-12+000399999V0202001N006219999999N0000001N9+01501+99999101481ADDAJ100009199999999GF102991999999999999999999
0035228920999991911070313004+60717+028783FM-12+000399999V0200901N006219999999N0000001N9+01721+99999101111ADDGF108991999999999999999999MW1621
0029228920999991911070320004+60717+028783FM-12+000399999V0202501N009819999999N0000001N9+01501+99999101271ADDGF100991999999999999999999
0046228920999991911070406004+60717+028783FM-12+000399999V0202301N009819999999N0000001N9+01331+99999101561ADDAJ100009199999999GF108991999999999999999999
0029228920999991911070413004+60717+028783FM-12+000399999V0202301N006219999999N0000001N9+01671+99999101681ADDGF108991999999999999999999
0029228920999991911070420004+60717+028783FM-12+000399999V0209991C000019999999N0000001N9+01331+99999101711ADDGF108991999999999999999999
0046228920999991911070506004+60717+028783FM-12+000399999V0203401N004119999999N0000001N9+01441+99999101641ADDAJ100009199999999GF108991999999999999999999
0029228920999991911070513004+60717+028783FM-12+000399999V0203201N004119999999N0000001N9+01671+99999101721ADDGF108991999999999999999999
0035228920999991911070520004+60717+028783FM-12+000399999V0202301N008219999999N0000001N9+01501+99999101831ADDGF108991999999999999999999MW1601
0046228920999991911070606004+60717+028783FM-12+000399999V0202701N004119999999N0000001N9+01561+99999102241ADDAJ100009199999999GF104991999999999999999999
0029228920999991911070613004+60717+028783FM-12+000399999V0202301N008219999999N0000001N9+01721+99999102321ADDGF105991999999999999999999
0029228920999991911070620004+60717+028783FM-12+000399999V0202001N006219999999N0000001N9+01501+99999102261ADDGF101991999999999999999999
0046228920999991911070706004+60717+028783FM-12+000399999V0202001N004119999999N0000001N9+01721+99999102121ADDAJ100009199999999GF100991999999999999999999
0029228920999991911070713004+60717+028783FM-12+000399999V0202301N006219999999N0000001N9+01941+99999101901ADDGF101991999999999999999999
0029228920999991911070720004+60717+028783FM-12+000399999V0202301N004119999999N0000001N9+01671+99999101441ADDGF108991999999999999999999
0046228920999991911070806004+60717+028783FM-12+000399999V0209991C000019999999N0000001N9+01721+99999101181ADDAJ100009199999999GF108991999999999999999999
0029228920999991911070813004+60717+028783FM-12+000399999V0203601N004119999999N0000001N9+01831+99999101201ADDGF108991999999999999999999
0029228920999991911070820004+60717+028783FM-12+000399999V0209991C000019999999N0000001N9+01611+99999101161ADDGF103991999999999999999999
0046228920999991911070906004+60717+028783FM-12+000399999V0200701N008219999999N0000001N9+01781+99999100961ADDAJ100009199999999GF103991999999999999999999
0029228920999991911070913004+60717+028783FM-12+000399999V0200701N006219999999N0000001N9+01891+99999101041ADDGF106991999999999999999999
0029228920999991911070920004+60717+028783FM-12+000399999V0200201N004119999999N0000001N9+01611+99999101041ADDGF104991999999999999999999
0046228920999991911071006004+60717+028783FM-12+000399999V0203601N009819999999N0000001N9+01561+99999100941ADDAJ100009199999999GF100991999999999999999999
0029228920999991911071013004+60717+028783FM-12+000399999V0203401N011819999999N0000001N9+02001+99999100871ADDGF100991999999999999999999
0029228920999991911071020004+60717+028783FM-12+000399999V0209991C000019999999N0000001N9+01671+99999100951ADDGF102991999999999999999999
0046228920999991911071106004+60717+028783FM-12+000399999V0200201N002119999999N0000001N9+01331+99999100821ADDAJ100009199999999GF108991999999999999999999
0029228920999991911071113004+60717+028783FM-12+000399999V0203401N006219999999N0000001N9+01781+99999100921ADDGF103991999999999999999999
0029228920999991911071120004+60717+028783FM-12+000399999V0203401N004119999999N0000001N9+01441+99999101021ADDGF108991999999999999999999
0046228920999991911071206004+60717+028783FM-12+000399999V0203401N006219999999N0000001N9+01391+99999101041ADDAJ100009199999999GF108991999999999999999999
0035228920999991911071213004+60717+028783FM-12+000399999V0203401N006219999999N0000001N9+01441+99999101121ADDGF108991999999999999999999MW1621
0029228920999991911071220004+60717+028783FM-12+000399999V0203401N002119999999N0000001N9+01111+99999101281ADDGF101991999999999999999999
0046228920999991911071306004+60717+028783FM-12+000399999V0203401N004119999999N0000001N9+01221+99999101381ADDAJ100009199999999GF106991999999999999999999
0029228920999991911071313004+60717+028783FM-12+000399999V0203401N008219999999N0000001N9+01781+99999101281ADDGF104991999999999999999999
0029228920999991911071320004+60717+028783FM-12+000399999V0209991C000019999999N0000001N9+01221+99999101151ADDGF102991999999999999999999
0046228920999991911071406004+60717+028783FM-12+000399999V0203401N002119999999N0000001N9+01671+99999101001ADDAJ100009199999999GF100991999999999999999999
0029228920999991911071413004+60717+028783FM-12+000399999V0202301N009819999999N0000001N9+02001+99999100741ADDGF101991999999999999999999
0029228920999991911071420004+60717+028783FM-12+000399999V0202301N006219999999N0000001N9+01561+99999100321ADDGF108991999999999999999999
0046228920999991911071506004+60717+028783FM-12+000399999V0209991C000019999999N0000001N9+01671+99999099721ADDAJ100009199999999GF108991999999999999999999
0029228920999991911071513004+60717+028783FM-12+000399999V0202301N009819999999N0000001N9+01941+99999099391ADDGF106991999999999999999999
0035228920999991911071520004+60717+028783FM-12+000399999V0203401N008219999999N0000001N9+01281+99999099261ADDGF108991999999999999999999MW1621
0046228920999991911071606004+60717+028783FM-12+000399999V0203201N009819999999N0000001N9+00891+99999099141ADDAJ100009199999999GF108991999999999999999999
0029228920999991911071613004+60717+028783FM-12+000399999V0203201N008219999999N0000001N9+01331+99999099161ADDGF108991999999999999999999
0029228920999991911071620004+60717+028783FM-12+000399999V0202701N011819999999N0000001N9+01061+99999099181ADDGF108991999999999999999999
0046228920999991911071706004+60717+028783FM-12+000399999V0202501N009819999999N0000001N9+01331+99999099101ADDAJ100009199999999GF101991999999999999999999
0029228920999991911071713004+60717+028783FM-12+000399999V0202301N011819999999N0000001N9+01391+99999099281ADDGF105991999999999999999999
0029228920999991911071720004+60717+028783FM-12+000399999V0201801N002119999999N0000001N9+01171+99999099301ADDGF108991999999999999999999
0046228920999991911071806004+60717+028783FM-12+000399999V0202701N004119999999N0000001N9+01111+99999099421ADDAJ100009199999999GF107991999999999999999999
0029228920999991911071813004+60717+028783FM-12+000399999V0202001N011819999999N0000001N9+01441+99999099741ADDGF104991999999999999999999
0029228920999991911071820004+60717+028783FM-12+000399999V0202301N008219999999N0000001N9+01221+99999099991ADDGF108991999999999999999999
0046228920999991911071906004+60717+028783FM-12+000399999V0202301N004119999999N0000001N9+01391+99999100281ADDAJ100009199999999GF108991999999999999999999
0029228920999991911071913004+60717+028783FM-12+000399999V0202501N004119999999N0000001N9+01781+99999100381ADDGF102991999999999999999999
0029228920999991911071920004+60717+028783FM-12+000399999V0209991C000019999999N0000001N9+01441+99999100511ADDGF102991999999999999999999
0046228920999991911072006004+60717+028783FM-12+000399999V0209991C000019999999N0000001N9+01391+99999100871ADDAJ100009199999999GF108991999999999999999999
0035228920999991911072013004+60717+028783FM-12+000399999V0202301N004119999999N0000001N9+01891+99999101061ADDGF108991999999999999999999MW1621
0029228920999991911072020004+60717+028783FM-12+000399999V0202301N004119999999N0000001N9+01441+99999101161ADDGF102991999999999999999999
0046228920999991911072106004+60717+028783FM-12+000399999V0209991C000019999999N0000001N9+01611+99999101261ADDAJ100009199999999GF101991999999999999999999
0029228920999991911072113004+60717+028783FM-12+000399999V0202501N004119999999N0000001N9+01781+99999101361ADDGF106991999999999999999999
0029228920999991911072120004+60717+028783FM-12+000399999V0209991C000019999999N0000001N9+01671+99999101361ADDGF103991999999999999999999
0046228920999991911072206004+60717+028783FM-12+000399999V0203401N004119999999N0000001N9+01441+99999101641ADDAJ100009199999999GF108991999999999999999999
0029228920999991911072213004+60717+028783FM-12+000399999V0203601N004119999999N0000001N9+01941+99999101751ADDGF103991999999999999999999
0029228920999991911072220004+60717+028783FM-12+000399999V0209991C000019999999N0000001N9+01501+99999101921ADDGF100991999999999999999999
0046228920999991911072306004+60717+028783FM-12+000399999V0200901N002119999999N0000001N9+01561+99999101991ADDAJ100009199999999GF102991999999999999999999
0029228920999991911072313004+60717+028783FM-12+000399999V0202301N002119999999N0000001N9+01891+99999101821ADDGF106991999999999999999999
0029228920999991911072320004+60717+028783FM-12+000399999V0209991C000019999999N0000001N9+01611+99999101631ADDGF108991999999999999999999
0046228920999991911072406004+60717+028783FM-12+000399999V0201101N002119999999N0000001N9+01671+99999101501ADDAJ100009199999999GF106991999999999999999999
0029228920999991911072413004+60717+028783FM-12+000399999V0209991C000019999999N0000001N9+01891+99999101461ADDGF108991999999999999999999
0029228920999991911072420004+60717+028783FM-12+000399999V0209991C000019999999N0000001N9+01721+99999101401ADDGF106991999999999999999999
0046228920999991911072506004+60717+028783FM-12+000399999V0200901N002119999999N0000001N9+01501+99999101431ADDAJ100009199999999GF108991999999999999999999
0035228920999991911072513004+60717+028783FM-12+000399999V0202501N004119999999N0000001N9+01891+99999101621ADDGF106991999999999999999999MW1171
0029228920999991911072520004+60717+028783FM-12+000399999V0200901N002119999999N0000001N9+01561+99999101831ADDGF102991999999999999999999
0046228920999991911072606004+60717+028783FM-12+000399999V0203401N002119999999N0000001N9+01561+99999102081ADDAJ100009199999999GF100991999999999999999999
0029228920999991911072613004+60717+028783FM-12+000399999V0203401N004119999999N0000001N9+02171+99999102041ADDGF102991999999999999999999
0029228920999991911072620004+60717+028783FM-12+000399999V0209991C000019999999N0000001N9+01501+99999102151ADDGF100991999999999999999999
0046228920999991911072706004+60717+028783FM-12+000399999V0200901N004119999999N0000001N9+01611+99999102401ADDAJ100009199999999GF100991999999999999999999
0029228920999991911072713004+60717+028783FM-12+000399999V0200701N002119999999N0000001N9+02171+99999102441ADDGF101991999999999999999999
0029228920999991911072720004+60717+028783FM-12+000399999V0209991C000019999999N0000001N9+01281+99999102881ADDGF102991999999999999999999
0046228920999991911072806004+60717+028783FM-12+000399999V0200901N004119999999N0000001N9+01441+99999102801ADDAJ100009199999999GF100991999999999999999999
0029228920999991911072813004+60717+028783FM-12+000399999V0200201N004119999999N0000001N9+02111+99999102821ADDGF100991999999999999999999
0029228920999991911072820004+60717+028783FM-12+000399999V0209991C000019999999N0000001N9+01331+99999103101ADDGF100991999999999999999999
0046228920999991911072906004+60717+028783FM-12+000399999V0200901N002119999999N0000001N9+01441+99999103151ADDAJ100009199999999GF100991999999999999999999
0029228920999991911072913004+60717+028783FM-12+000399999V0200501N004119999999N0000001N9+02501+99999103141ADDGF101991999999999999999999
0029228920999991911072920004+60717+028783FM-12+000399999V0209991C000019999999N0000001N9+01501+99999103061ADDGF100991999999999999999999
0046228920999991911073006004+60717+028783FM-12+000399999V0209991C000019999999N0000001N9+01941+99999102951ADDAJ100009199999999GF101991999999999999999999
0029228920999991911073013004+60717+028783FM-12+000399999V0202301N004119999999N0000001N9+02441+99999102711ADDGF106991999999999999999999
0029228920999991911073020004+60717+028783FM-12+000399999V0209991C000019999999N0000001N9+01721+99999102341ADDGF105991999999999999999999
0046228920999991911073106004+60717+028783FM-12+000399999V0202301N002119999999N0000001N9+01781+99999102221ADDAJ100009199999999GF103991999999999999999999
0029228920999991911073113004+60717+028783FM-12+000399999V0202301N004119999999N0000001N9+02671+99999102151ADDGF102991999999999999999999
0029228920999991911073120004+60717+028783FM-12+000399999V0209991C000019999999N0000001N9+01941+99999102311ADDGF102991999999999999999999
0046228920999991911080106004+60717+028783FM-12+000399999V0209991C000019999999N0000001N9+02001+99999102481ADDAJ100009199999999GF100991999999999999999999
0029228920999991911080113004+60717+028783FM-12+000399999V0200701N004119999999N0000001N9+02501+99999102581ADDGF100991999999999999999999
0029228920999991911080120004+60717+028783FM-12+000399999V0209991C000019999999N0000001N9+01831+99999102641ADDGF100991999999999999999999
0046228920999991911080206004+60717+028783FM-12+000399999V0209991C000019999999N0000001N9+01891+99999102821ADDAJ100009199999999GF100991999999999999999999
0029228920999991911080213004+60717+028783FM-12+000399999V0202301N006219999999N0000001N9+02501+99999102671ADDGF100991999999999999999999
0029228920999991911080220004+60717+028783FM-12+000399999V0202001N002119999999N0000001N9+01891+99999102441ADDGF100991999999999999999999
0046228920999991911080306004+60717+028783FM-12+000399999V0202301N004119999999N0000001N9+02171+99999102271ADDAJ100009199999999GF100991999999999999999999
0029228920999991911080313004+60717+028783FM-12+000399999V0202301N008219999999N0000001N9+02391+99999102111ADDGF100991999999999999999999
0029228920999991911080320004+60717+028783FM-12+000399999V0202301N002119999999N0000001N9+02061+99999101881ADDGF100991999999999999999999
0046228920999991911080406004+60717+028783FM-12+000399999V0202301N004119999999N0000001N9+02111+99999101701ADDAJ100009199999999GF100991999999999999999999
0029228920999991911080413004+60717+028783FM-12+000399999V0202301N006219999999N0000001N9+02441+99999101631ADDGF100991999999999999999999
0029228920999991911080420004+60717+028783FM-12+000399999V0202301N002119999999N0000001N9+02111+99999101521ADDGF100991999999999999999999
0046228920999991911080506004+60717+028783FM-12+000399999V0201801N002119999999N0000001N9+02111+99999101541ADDAJ100009199999999GF100991999999999999999999
0029228920999991911080513004+60717+028783FM-12+000399999V0202301N004119999999N0000001N9+02671+99999101581ADDGF100991999999999999999999
0029228920999991911080520004+60717+028783FM-12+000399999V0209991C000019999999N0000001N9+02221+99999101561ADDGF100991999999999999999999
0046228920999991911080606004+60717+028783FM-12+000399999V0202301N004119999999N0000001N9+02281+99999101751ADDAJ100009199999999GF100991999999999999999999
0029228920999991911080613004+60717+028783FM-12+000399999V0202001N004119999999N0000001N9+02721+99999101791ADDGF100991999999999999999999
0029228920999991911080620004+60717+028783FM-12+000399999V0209991C000019999999N0000001N9+01781+99999101801ADDGF100991999999999999999999
0046228920999991911080706004+60717+028783FM-12+000399999V0209991C000019999999N0000001N9+02281+99999101831ADDAJ100009199999999GF100991999999999999999999
0029228920999991911080713004+60717+028783FM-12+000399999V0202501N002119999999N0000001N9+02941+99999101751ADDGF101991999999999999999999
0029228920999991911080720004+60717+028783FM-12+000399999V0209991C000019999999N0000001N9+02061+99999101871ADDGF101991999999999999999999
0046228920999991911080806004+60717+028783FM-12+000399999V0202501N002119999999N0000001N9+02001+99999101961ADDAJ100009199999999GF108991999999999999999999
0035228920999991911080813004+60717+028783FM-12+000399999V0203401N006219999999N0000001N9+02441+99999101981ADDGF106991999999999999999999MW1171
0029228920999991911080820004+60717+028783FM-12+000399999V0209991C000019999999N0000001N9+02001+99999102151ADDGF106991999999999999999999
0046228920999991911080906004+60717+028783FM-12+000399999V0209991C000019999999N0000001N9+02061+99999102241ADDAJ100009199999999GF100991999999999999999999
0029228920999991911080913004+60717+028783FM-12+000399999V0203401N006219999999N0000001N9+02611+99999102261ADDGF104991999999999999999999
0029228920999991911080920004+60717+028783FM-12+000399999V0209991C000019999999N0000001N9+02171+99999102321ADDGF100991999999999999999999
0046228920999991911081006004+60717+028783FM-12+000399999V0209991C000019999999N0000001N9+02171+99999102471ADDAJ100009199999999GF100991999999999999999999
0029228920999991911081013004+60717+028783FM-12+000399999V0203601N002119999999N0000001N9+02941+99999102481ADDGF101991999999999999999999
0029228920999991911081020004+60717+028783FM-12+000399999V0209991C000019999999N0000001N9+02061+99999102321ADDGF100991999999999999999999
0046228920999991911081106004+60717+028783FM-12+000399999V0209991C000019999999N0000001N9+02221+99999102351ADDAJ100009199999999GF100991999999999999999999
0029228920999991911081113004+60717+028783FM-12+000399999V0203401N004119999999N0000001N9+02831+99999102181ADDGF102991999999999999999999
0029228920999991911081120004+60717+028783FM-12+000399999V0209991C000019999999N0000001N9+02331+99999102191ADDGF102991999999999999999999
0046228920999991911081206004+60717+028783FM-12+000399999V0209991C000019999999N0000001N9+02221+99999102261ADDAJ100009199999999GF100991999999999999999999
0029228920999991911081213004+60717+028783FM-12+000399999V0202301N008219999999N0000001N9+02831+99999102111ADDGF101991999999999999999999
0029228920999991911081220004+60717+028783FM-12+000399999V0209991C000019999999N0000001N9+02001+99999102061ADDGF100991999999999999999999
0046228920999991911081306004+60717+028783FM-12+000399999V0200501N002119999999N0000001N9+01941+99999101981ADDAJ100009199999999GF101991999999999999999999
0029228920999991911081313004+60717+028783FM-12+000399999V0209991C000019999999N0000001N9+02221+99999101711ADDGF108991999999999999999999
0029228920999991911081320004+60717+028783FM-12+000399999V0200501N004119999999N0000001N9+01611+99999101461ADDGF108991999999999999999999
0046228920999991911081406004+60717+028783FM-12+000399999V0203401N006219999999N0000001N9+01721+99999101281ADDAJ100009199999999GF100991999999999999999999
0029228920999991911081413004+60717+028783FM-12+000399999V0203401N002119999999N0000001N9+02061+99999100961ADDGF107991999999999999999999
0029228920999991911081420004+60717+028783FM-12+000399999V0203601N002119999999N0000001N9+01281+99999100441ADDGF108991999999999999999999
0052228920999991911081506004+60717+028783FM-12+000399999V0200701N004119999999N0000001N9+01221+99999099981ADDAJ100009199999999GF108991999999999999999999MW1621
0035228920999991911081513004+60717+028783FM-12+000399999V0200701N002119999999N0000001N9+01281+99999099461ADDGF108991999999999999999999MW1621
0035228920999991911081520004+60717+028783FM-12+000399999V0200201N008219999999N0000001N9+01281+99999098721ADDGF108991999999999999999999MW1621
0052228920999991911081606004+60717+028783FM-12+000399999V0203401N002119999999N0000001N9+01331+99999098601ADDAJ100009199999999GF108991999999999999999999MW1621
0029228920999991911081613004+60717+028783FM-12+000399999V0202001N004119999999N0000001N9+01671+99999098801ADDGF108991999999999999999999
0029228920999991911081620004+60717+028783FM-12+000399999V0201601N006219999999N0000001N9+01391+99999099041ADDGF108991999999999999999999
0046228920999991911081706004+60717+028783FM-12+000399999V0201401N004119999999N0000001N9+01441+99999099361ADDAJ100009199999999GF100991999999999999999999
0029228920999991911081713004+60717+028783FM-12+000399999V0201801N002119999999N0000001N9+01671+99999099271ADDGF108991999999999999999999
0029228920999991911081720004+60717+028783FM-12+000399999V0200201N002119999999N0000001N9+01221+99999099041ADDGF108991999999999999999999
0046228920999991911081806004+60717+028783FM-12+000399999V0209991C000019999999N0000001N9+01171+99999098831ADDAJ100009199999999GF108991999999999999999999
0035228920999991911081813004+60717+028783FM-12+000399999V0201601N002119999999N0000001N9+01061+99999099031ADDGF108991999999999999999999MW1621
0035228920999991911081820004+60717+028783FM-12+000399999V0209991C000019999999N0000001N9+01001+99999099121ADDGF108991999999999999999999MW1621
0046228920999991911081906004+60717+028783FM-12+000399999V0202901N004119999999N0000001N9+01061+99999099471ADDAJ100009199999999GF108991999999999999999999
0029228920999991911081913004+60717+028783FM-12+000399999V0202701N002119999999N0000001N9+01611+99999099721ADDGF103991999999999999999999
0029228920999991911081920004+60717+028783FM-12+000399999V0209991C000019999999N0000001N9+01061+99999099841ADDGF108991999999999999999999
0046228920999991911082006004+60717+028783FM-12+000399999V0201101N002119999999N0000001N9+01171+99999099981ADDAJ100009199999999GF108991999999999999999999
0029228920999991911082013004+60717+028783FM-12+000399999V0201601N004119999999N0000001N9+01391+99999100071ADDGF106991999999999999999999
0029228920999991911082020004+60717+028783FM-12+000399999V0209991C000019999999N0000001N9+00941+99999100061ADDGF102991999999999999999999
0046228920999991911082106004+60717+028783FM-12+000399999V0209991C000019999999N0000001N9+01111+99999100201ADDAJ100009199999999GF101991999999999999999999
0029228920999991911082113004+60717+028783FM-12+000399999V0202501N002119999999N0000001N9+01891+99999100341ADDGF104991999999999999999999
0029228920999991911082120004+60717+028783FM-12+000399999V0202901N009819999999N0000001N9+01221+99999100581ADDGF105991999999999999999999
0046228920999991911082206004+60717+028783FM-12+000399999V0209991C000019999999N0000001N9+01221+99999100741ADDAJ100009199999999GF100991999999999999999999
0029228920999991911082213004+60717+028783FM-12+000399999V0202301N008219999999N0000001N9+01781+99999100791ADDGF104991999999999999999999
0029228920999991911082220004+60717+028783FM-12+000399999V0209991C000019999999N0000001N9+00941+99999100861ADDGF100991999999999999999999
0046228920999991911082306004+60717+028783FM-12+000399999V0209991C000019999999N0000001N9+01391+99999100901ADDAJ100009199999999GF100991999999999999999999
0029228920999991911082313004+60717+028783FM-12+000399999V0209991C000019999999N0000001N9+01941+99999100901ADDGF107991999999999999999999
0029228920999991911082320004+60717+028783FM-12+000399999V0201101N004119999999N0000001N9+01441+99999100961ADDGF108991999999999999999999
0046228920999991911082406004+60717+028783FM-12+000399999V0209991C000019999999N0000001N9+01391+99999101041ADDAJ100009199999999GF108991999999999999999999
0029228920999991911082413004+60717+028783FM-12+000399999V0201601N004119999999N0000001N9+02001+99999101061ADDGF108991999999999999999999
0035228920999991911082420004+60717+028783FM-12+000399999V0209991C000019999999N0000001N9+01561+99999101101ADDGF108991999999999999999999MW1621
0046228920999991911082506004+60717+028783FM-12+000399999V0209991C000019999999N0000001N9+01561+99999101271ADDAJ100009199999999GF108991999999999999999999
0029228920999991911082513004+60717+028783FM-12+000399999V0203401N004119999999N0000001N9+01831+99999101631ADDGF105991999999999999999999
0029228920999991911082520004+60717+028783FM-12+000399999V0209991C000019999999N0000001N9+01281+99999101861ADDGF100991999999999999999999
0046228920999991911082606004+60717+028783FM-12+000399999V0209991C000019999999N0000001N9+01331+99999102041ADDAJ100009199999999GF100991999999999999999999
0029228920999991911082613004+60717+028783FM-12+000399999V0202001N006219999999N0000001N9+02001+99999101871ADDGF102991999999999999999999
0029228920999991911082620004+60717+028783FM-12+000399999V0201601N002119999999N0000001N9+01501+99999101591ADDGF108991999999999999999999
0046228920999991911082706004+60717+028783FM-12+000399999V0201601N004119999999N0000001N9+01501+99999101201ADDAJ100009199999999GF103991999999999999999999
0035228920999991911082713004+60717+028783FM-12+000399999V0202001N004119999999N0000001N9+01611+99999100941ADDGF108991999999999999999999MW1621
0029228920999991911082720004+60717+028783FM-12+000399999V0202001N004119999999N0000001N9+01001+99999100781ADDGF102991999999999999999999
0052228920999991911082806004+60717+028783FM-12+000399999V0202301N006219999999N0000001N9+01561+99999100621ADDAJ100009199999999GF108991999999999999999999MW1621
0029228920999991911082813004+60717+028783FM-12+000399999V0202501N006219999999N0000001N9+01831+99999100671ADDGF107991999999999999999999
0029228920999991911082820004+60717+028783FM-12+000399999V0202501N004119999999N0000001N9+01561+99999100711ADDGF108991999999999999999999
0046228920999991911082906004+60717+028783FM-12+000399999V0202901N002119999999N0000001N9+01441+99999101001ADDAJ100009199999999GF102991999999999999999999
