0029228920999991907010106004+60717+028783FM-12+000399999V0203601N009319999999N0000001N9-01441+99999100061ADDGF108991999999999999999999
0029228920999991907010113004+60717+028783FM-12+000399999V0203601N002619999999N0000001N9-01281+99999100141ADDGF100991999999999999999999
0029228920999991907010120004+60717+028783FM-12+000399999V0203601N001019999999N0000001N9-01441+99999100471ADDGF100991999999999999999999
0029228920999991907010206004+60717+028783FM-12+000399999V0203601N001019999999N0000001N9-01831+99999100981ADDGF100991999999999999999999
0029228920999991907010213004+60717+028783FM-12+000399999V0203601N001019999999N0000001N9-01671+99999101261ADDGF108991999999999999999999
0029228920999991907010220004+60717+028783FM-12+000399999V0201101N001019999999N0000001N9-01831+99999101321ADDGF104991999999999999999999
0029228920999991907010306004+60717+028783FM-12+000399999V0201101N002619999999N0000001N9-01441+99999101061ADDGF108991999999999999999999
0029228920999991907010313004+60717+028783FM-12+000399999V0201101N004619999999N0000001N9-01441+99999100701ADDGF108991999999999999999999
0035228920999991907010320004+60717+028783FM-12+000399999V0201101N004619999999N0000001N9-01281+99999100341ADDGF108991999999999999999999MW1721
0029228920999991907010406004+60717+028783FM-12+000399999V0200901N002619999999N0000001N9-01281+99999100471ADDGF108991999999999999999999
0029228920999991907010413004+60717+028783FM-12+000399999V0200901N002619999999N0000001N9-00891+99999100861ADDGF108991999999999999999999
0029228920999991907010420004+60717+028783FM-12+000399999V0200901N004619999999N0000001N9-00781+99999101021ADDGF108991999999999999999999
0029228920999991907010506004+60717+028783FM-12+000399999V0200701N002619999999N0000001N9-00391+99999101361ADDGF108991999999999999999999
0029228920999991907010513004+60717+028783FM-12+000399999V0200701N002619999999N0000001N9-00331+99999101711ADDGF108991999999999999999999
0029228920999991907010520004+60717+028783FM-12+000399999V0200701N001019999999N0000001N9-00501+99999101991ADDGF108991999999999999999999
0029228920999991907010606004+60717+028783FM-12+000399999V0201101N001019999999N0000001N9-00501+99999101801ADDGF108991999999999999999999
0029228920999991907010613004+60717+028783FM-12+000399999V0201401N001019999999N0000001N9-00331+99999101561ADDGF108991999999999999999999
0029228920999991907010620004+60717+028783FM-12+000399999V0201401N002619999999N0000001N9-00331+99999101421ADDGF108991999999999999999999
0029228920999991907010706004+60717+028783FM-12+000399999V0201101N001019999999N0000001N9-00441+99999101231ADDGF108991999999999999999999
0029228920999991907010713004+60717+028783FM-12+000399999V0201101N001019999999N0000001N9-00441+99999101401ADDGF108991999999999999999999
0029228920999991907010720004+60717+028783FM-12+000399999V0201101N001019999999N0000001N9-00501+99999101661ADDGF108991999999999999999999
0029228920999991907010806004+60717+028783FM-12+000399999V0201801N001019999999N0000001N9-00441+99999101391ADDGF108991999999999999999999
0029228920999991907010813004+60717+028783FM-12+000399999V0202001N009319999999N0000001N9-00221+99999100911ADDGF108991999999999999999999
0029228920999991907010820004+60717+028783FM-12+000399999V0202301N015419999999N0000001N9+00061+99999100121ADDGF108991999999999999999999
0029228920999991907010906004+60717+028783FM-12+000399999V0202301N004619999999N0000001N9-00061+99999100071ADDGF108991999999999999999999
0029228920999991907010913004+60717+028783FM-12+000399999V0202301N002619999999N0000001N9-00171+99999100061ADDGF101991999999999999999999
0029228920999991907010920004+60717+028783FM-12+000399999V0202301N001019999999N0000001N9-00391+99999100031ADDGF100991999999999999999999
0029228920999991907011006004+60717+028783FM-12+000399999V0209991C000019999999N0000001N9-00781+99999099831ADDGF104991999999999999999999
0029228920999991907011013004+60717+028783FM-12+000399999V0203601N002619999999N0000001N9-00721+99999100241ADDGF101991999999999999999999
0029228920999991907011020004+60717+028783FM-12+000399999V0203601N002619999999N0000001N9-00721+99999100821ADDGF102991999999999999999999
0035228920999991907011106004+60717+028783FM-12+000399999V0203601N001019999999N0000001N9-01001+99999101481ADDGF108991999999999999999999MW1721
0029228920999991907011113004+60717+028783FM-12+000399999V0203601N001019999999N0000001N9-01441+99999101881ADDGF108991999999999999999999
0029228920999991907011120004+60717+028783FM-12+000399999V0200501N001019999999N0000001N9-01561+99999101991ADDGF108991999999999999999999
0029228920999991907011206004+60717+028783FM-12+000399999V0201101N002619999999N0000001N9-01831+99999101761ADDGF102991999999999999999999
0029228920999991907011213004+60717+028783FM-12+000399999V0201101N002619999999N0000001N9-02001+99999101361ADDGF107991999999999999999999
0029228920999991907011220004+60717+028783FM-12+000399999V0201101N002619999999N0000001N9-02001+99999100961ADDGF108991999999999999999999
0029228920999991907011306004+60717+028783FM-12+000399999V0201101N006719999999N0000001N9-01331+99999099551ADDGF108991999999999999999999
0035228920999991907011313004+60717+028783FM-12+000399999V0201101N002619999999N0000001N9-01441+99999099351ADDGF108991999999999999999999MW1721
0029228920999991907011320004+60717+028783FM-12+000399999V0200501N004619999999N0000001N9-01441+99999099841ADDGF100991999999999999999999
0029228920999991907011406004+60717+028783FM-12+000399999V0200501N001019999999N0000001N9-01561+99999100441ADDGF106991999999999999999999
0029228920999991907011413004+60717+028783FM-12+000399999V0201101N001019999999N0000001N9-01501+99999100661ADDGF100991999999999999999999
0029228920999991907011420004+60717+028783FM-12+000399999V0201101N001019999999N0000001N9-02111+99999100661ADDGF100991999999999999999999
0029228920999991907011506004+60717+028783FM-12+000399999V0201101N002619999999N0000001N9-01891+99999100221ADDGF108991999999999999999999
0035228920999991907011513004+60717+028783FM-12+000399999V0201401N001019999999N0000001N9-01671+99999099961ADDGF108991999999999999999999MW1721
0035228920999991907011520004+60717+028783FM-12+000399999V0201401N001019999999N0000001N9-01561+99999100031ADDGF108991999999999999999999MW1721
0029228920999991907011606004+60717+028783FM-12+000399999V0200501N001019999999N0000001N9-01561+99999100521ADDGF108991999999999999999999
0029228920999991907011613004+60717+028783FM-12+000399999V0200201N001019999999N0000001N9-01561+99999101301ADDGF108991999999999999999999
0029228920999991907011620004+60717+028783FM-12+000399999V0209991C000019999999N0000001N9-01671+99999101951ADDGF108991999999999999999999
0029228920999991907011706004+60717+028783FM-12+000399999V0209991C000019999999N0000001N9-01561+99999102261ADDGF108991999999999999999999
0029228920999991907011713004+60717+028783FM-12+000399999V0201401N001019999999N0000001N9-01391+99999102081ADDGF108991999999999999999999
0035228920999991907011720004+60717+028783FM-12+000399999V0201401N001019999999N0000001N9-01391+99999101921ADDGF108991999999999999999999MW1721
0029228920999991907011806004+60717+028783FM-12+000399999V0209991C000019999999N0000001N9-01721+99999101921ADDGF108991999999999999999999
0029228920999991907011813004+60717+028783FM-12+000399999V0200901N001019999999N0000001N9-01391+99999102031ADDGF108991999999999999999999
0029228920999991907011820004+60717+028783FM-12+000399999V0200501N001019999999N0000001N9-01441+99999102631ADDGF108991999999999999999999
0029228920999991907011906004+60717+028783FM-12+000399999V0203601N001019999999N0000001N9-01331+99999103241ADDGF108991999999999999999999
0029228920999991907011913004+60717+028783FM-12+000399999V0200501N004619999999N0000001N9-01611+99999103741ADDGF108991999999999999999999
0029228920999991907011920004+60717+028783FM-12+000399999V0209991C000019999999N0000001N9-02281+99999104121ADDGF100991999999999999999999
0029228920999991907012006004+60717+028783FM-12+000399999V0200501N001019999999N0000001N9-02781+99999104551ADDGF100991999999999999999999
0029228920999991907012013004+60717+028783FM-12+000399999V0200501N002619999999N0000001N9-02441+99999104791ADDGF100991999999999999999999
0029228920999991907012020004+60717+028783FM-12+000399999V0200501N002619999999N0000001N9-02671+99999095112ADDGF100991999999999999999999
0029228920999991907012106004+60717+028783FM-12+000399999V0200501N001019999999N0000001N9-02831+99999095741ADDGF100991999999999999999999
0029228920999991907012113004+60717+028783FM-12+000399999V0200501N002619999999N0000001N9-02331+99999095991ADDGF100991999999999999999999
0029228920999991907012120004+60717+028783FM-12+000399999V0200501N001019999999N0000001N9-02781+99999096191ADDGF100991999999999999999999
0029228920999991907012206004+60717+028783FM-12+000399999V0209991C000019999999N0000001N9-03331+99999096321ADDGF100991999999999999999999
0029228920999991907012213004+60717+028783FM-12+000399999V0209991C000019999999N0000001N9-02891+99999096391ADDGF100991999999999999999999
0029228920999991907012220004+60717+028783FM-12+000399999V0209991C000019999999N0000001N9-03221+99999096421ADDGF100991999999999999999999
0029228920999991907012306004+60717+028783FM-12+000399999V0202001N002619999999N0000001N9-02221+99999095741ADDGF104991999999999999999999
0029228920999991907012313004+60717+028783FM-12+000399999V0202301N012319999999N0000001N9-00891+99999104782ADDGF108991999999999999999999
0029228920999991907012320004+60717+028783FM-12+000399999V0202301N015419999999N0000001N9-00611+99999103861ADDGF108991999999999999999999
0029228920999991907012406004+60717+028783FM-12+000399999V0202301N015419999999N0000001N9-00561+99999102621ADDGF108991999999999999999999
0029228920999991907012413004+60717+028783FM-12+000399999V0202301N015419999999N0000001N9-00331+99999102361ADDGF108991999999999999999999
0029228920999991907012420004+60717+028783FM-12+000399999V0202301N015419999999N0000001N9-00561+99999102041ADDGF100991999999999999999999
0029228920999991907012506004+60717+028783FM-12+000399999V0202301N015419999999N0000001N9-00391+99999100801ADDGF108991999999999999999999
0035228920999991907012513004+60717+028783FM-12+000399999V0202301N015419999999N0000001N9-00331+99999099991ADDGF108991999999999999999999MW1721
0035228920999991907012520004+60717+028783FM-12+000399999V0202301N015419999999N0000001N9-00171+99999099561ADDGF108991999999999999999999MW1721
0029228920999991907012606004+60717+028783FM-12+000399999V0202301N015419999999N0000001N9-00501+99999098951ADDGF108991999999999999999999
0029228920999991907012613004+60717+028783FM-12+000399999V0203201N001019999999N0000001N9-00671+99999099591ADDGF101991999999999999999999
0029228920999991907012620004+60717+028783FM-12+000399999V0202701N001019999999N0000001N9-01061+99999100041ADDGF100991999999999999999999
0029228920999991907012706004+60717+028783FM-12+000399999V0202701N001019999999N0000001N9-01671+99999100941ADDGF100991999999999999999999
0029228920999991907012713004+60717+028783FM-12+000399999V0209991C000019999999N0000001N9-01501+99999101241ADDGF102991999999999999999999
0029228920999991907012720004+60717+028783FM-12+000399999V0201401N002619999999N0000001N9-01221+99999101401ADDGF108991999999999999999999
0029228920999991907012806004+60717+028783FM-12+000399999V0201401N002619999999N0000001N9-01221+99999101381ADDGF108991999999999999999999
0029228920999991907012813004+60717+028783FM-12+000399999V0201401N002619999999N0000001N9-01281+99999101241ADDGF108991999999999999999999
0029228920999991907012820004+60717+028783FM-12+000399999V0201401N002619999999N0000001N9-01721+99999101161ADDGF100991999999999999999999
0029228920999991907012906004+60717+028783FM-12+000399999V0201401N002619999999N0000001N9-01561+99999100751ADDGF108991999999999999999999
0029228920999991907012913004+60717+028783FM-12+000399999V0201401N006719999999N0000001N9-01331+99999100281ADDGF108991999999999999999999
0029228920999991907012920004+60717+028783FM-12+000399999V0201101N001019999999N0000001N9-01221+99999099961ADDGF108991999999999999999999
0029228920999991907013006004+60717+028783FM-12+000399999V0200901N002619999999N0000001N9-00781+99999099521ADDGF108991999999999999999999
0035228920999991907013013004+60717+028783FM-12+000399999V0201401N002619999999N0000001N9-00611+99999099631ADDGF108991999999999999999999MW1721
0029228920999991907013020004+60717+028783FM-12+000399999V0201401N001019999999N0000001N9-00891+99999999999ADDGF108991999999999999999999
0029228920999991907013106004+60717+028783FM-12+000399999V0201401N002619999999N0000001N9-00331+99999100671ADDGF108991999999999999999999
0035228920999991907013113004+60717+028783FM-12+000399999V0201401N001019999999N0000001N9-00441+99999101071ADDGF108991999999999999999999MW1721
0029228920999991907013120004+60717+028783FM-12+000399999V0201401N001019999999N0000001N9-00441+99999101281ADDGF108991999999999999999999
0029228920999991907020106004+60717+028783FM-12+000399999V0209991C000019999999N0000001N9-00501+99999101721ADDGF108991999999999999999999
0029228920999991907020113004+60717+028783FM-12+000399999V0200501N001019999999N0000001N9-00501+99999102161ADDGF108991999999999999999999
0029228920999991907020120004+60717+028783FM-12+000399999V0209991C000019999999N0000001N9-00501+99999102551ADDGF108991999999999999999999
0029228920999991907020206004+60717+028783FM-12+000399999V0202501N004619999999N0000001N9-00671+99999102941ADDGF108991999999999999999999
0029228920999991907020213004+60717+028783FM-12+000399999V0202501N004619999999N0000001N9-00611+99999103101ADDGF108991999999999999999999
0029228920999991907020220004+60717+028783FM-12+000399999V0202501N006719999999N0000001N9-00781+99999103191ADDGF108991999999999999999999
0029228920999991907020306004+60717+028783FM-12+000399999V0202301N009319999999N0000001N9-00501+99999102921ADDGF108991999999999999999999
0029228920999991907020313004+60717+028783FM-12+000399999V0202301N004619999999N0000001N9-00441+99999102921ADDGF102991999999999999999999
0029228920999991907020320004+60717+028783FM-12+000399999V0202301N002619999999N0000001N9-00721+99999102961ADDGF100991999999999999999999
0029228920999991907020406004+60717+028783FM-12+000399999V0202501N002619999999N0000001N9-00781+99999102911ADDGF108991999999999999999999
0029228920999991907020413004+60717+028783FM-12+000399999V0202501N001019999999N0000001N9-00671+99999102921ADDGF108991999999999999999999
0029228920999991907020420004+60717+028783FM-12+000399999V0202001N002619999999N0000001N9-00561+99999102821ADDGF108991999999999999999999
0029228920999991907020506004+60717+028783FM-12+000399999V0202001N002619999999N0000001N9-01111+99999102591ADDGF108991999999999999999999
0029228920999991907020513004+60717+028783FM-12+000399999V0209991C000019999999N0000001N9-00781+99999102711ADDGF108991999999999999999999
0029228920999991907020520004+60717+028783FM-12+000399999V0209991C000019999999N0000001N9-00671+99999102751ADDGF108991999999999999999999
0029228920999991907020606004+60717+028783FM-12+000399999V0209991C000019999999N0000001N9-00441+99999102881ADDGF108991999999999999999999
0029228920999991907020613004+60717+028783FM-12+000399999V0209991C000019999999N0000001N9-00221+99999103341ADDGF108991999999999999999999
0029228920999991907020620004+60717+028783FM-12+000399999V0201801N001019999999N0000001N9-00331+99999103421ADDGF108991999999999999999999
0029228920999991907020706004+60717+028783FM-12+000399999V0201401N001019999999N0000001N9-00561+99999103541ADDGF108991999999999999999999
0029228920999991907020713004+60717+028783FM-12+000399999V0201401N002619999999N0000001N9-00721+99999103401ADDGF108991999999999999999999
0029228920999991907020720004+60717+028783FM-12+000399999V0201401N001019999999N0000001N9-01171+99999103401ADDGF108991999999999999999999
0029228920999991907020806004+60717+028783FM-12+000399999V0201401N002619999999N0000001N9-01611+99999103271ADDGF100991999999999999999999
0029228920999991907020813004+60717+028783FM-12+000399999V0202001N002619999999N0000001N9-01171+99999103391ADDGF100991999999999999999999
0029228920999991907020820004+60717+028783FM-12+000399999V0201401N001019999999N0000001N9-01671+99999103321ADDGF100991999999999999999999
0029228920999991907020906004+60717+028783FM-12+000399999V0201401N001019999999N0000001N9-02001+99999103141ADDGF100991999999999999999999
0029228920999991907020913004+60717+028783FM-12+000399999V0201601N002619999999N0000001N9-01441+99999103021ADDGF101991999999999999999999
0029228920999991907020920004+60717+028783FM-12+000399999V0201801N001019999999N0000001N9-01281+99999102831ADDGF108991999999999999999999
0035228920999991907021006004+60717+028783FM-12+000399999V0201601N001019999999N0000001N9-01111+99999102741ADDGF108991999999999999999999MW1721
0035228920999991907021013004+60717+028783FM-12+000399999V0201801N002619999999N0000001N9-01061+99999102801ADDGF108991999999999999999999MW1721
0029228920999991907021020004+60717+028783FM-12+000399999V0201401N001019999999N0000001N9-01171+99999102661ADDGF108991999999999999999999
0029228920999991907021106004+60717+028783FM-12+000399999V0201801N004619999999N0000001N9-00941+99999102441ADDGF108991999999999999999999
0029228920999991907021113004+60717+028783FM-12+000399999V0202001N006719999999N0000001N9-00891+99999102601ADDGF108991999999999999999999
0029228920999991907021120004+60717+028783FM-12+000399999V0201801N001019999999N0000001N9-01441+99999102591ADDGF100991999999999999999999
0029228920999991907021206004+60717+028783FM-12+000399999V0201601N001019999999N0000001N9-02331+99999102431ADDGF100991999999999999999999
0029228920999991907021213004+60717+028783FM-12+000399999V0201801N006719999999N0000001N9-00781+99999102431ADDGF100991999999999999999999
0029228920999991907021220004+60717+028783FM-12+000399999V0201801N002619999999N0000001N9-00941+99999102431ADDGF100991999999999999999999
0029228920999991907021306004+60717+028783FM-12+000399999V0201801N001019999999N0000001N9-01281+99999102581ADDGF100991999999999999999999
0029228920999991907021313004+60717+028783FM-12+000399999V0202001N004619999999N0000001N9-00781+99999102711ADDGF100991999999999999999999
0029228920999991907021320004+60717+028783FM-12+000399999V0201801N001019999999N0000001N9-01501+99999102751ADDGF100991999999999999999999
0029228920999991907021406004+60717+028783FM-12+000399999V0209991C000019999999N0000001N9-02441+99999102791ADDGF100991999999999999999999
0029228920999991907021413004+60717+028783FM-12+000399999V0209991C000019999999N0000001N9-00941+99999102721ADDGF100991999999999999999999
0029228920999991907021420004+60717+028783FM-12+000399999V0201601N001019999999N0000001N9-01391+99999102791ADDGF100991999999999999999999
0029228920999991907021506004+60717+028783FM-12+000399999V0201601N001019999999N0000001N9-01721+99999102591ADDGF100991999999999999999999
0029228920999991907021513004+60717+028783FM-12+000399999V0201801N004619999999N0000001N9-01171+99999102201ADDGF100991999999999999999999
0029228920999991907021520004+60717+028783FM-12+000399999V0202001N015419999999N0000001N9-00781+99999101361ADDGF108991999999999999999999
0035228920999991907021606004+60717+028783FM-12+000399999V0202001N015419999999N0000001N9-00611+99999099881ADDGF108991999999999999999999MW1721
0035228920999991907021613004+60717+028783FM-12+000399999V0202001N015419999999N0000001N9-00561+99999099521ADDGF108991999999999999999999MW1721
0035228920999991907021620004+60717+028783FM-12+000399999V0202001N012319999999N0000001N9-00561+99999099421ADDGF108991999999999999999999MW1721
0029228920999991907021706004+60717+028783FM-12+000399999V0202001N006719999999N0000001N9-00221+99999098751ADDGF108991999999999999999999
0029228920999991907021713004+60717+028783FM-12+000399999V0202001N006719999999N0000001N9-00061+99999098581ADDGF108991999999999999999999
0029228920999991907021720004+60717+028783FM-12+000399999V0202701N001019999999N0000001N9-00781+99999098781ADDGF100991999999999999999999
0029228920999991907021806004+60717+028783FM-12+000399999V0202001N002619999999N0000001N9-01171+99999099141ADDGF108991999999999999999999
0029228920999991907021813004+60717+028783FM-12+000399999V0202001N002619999999N0000001N9-00721+99999099421ADDGF108991999999999999999999
0029228920999991907021820004+60717+028783FM-12+000399999V0202001N001019999999N0000001N9-01111+99999099661ADDGF108991999999999999999999
0029228920999991907021906004+60717+028783FM-12+000399999V0202001N004619999999N0000001N9-00891+99999099721ADDGF108991999999999999999999
0029228920999991907021913004+60717+028783FM-12+000399999V0201601N006719999999N0000001N9-00561+99999099281ADDGF108991999999999999999999
0035228920999991907021920004+60717+028783FM-12+000399999V0201601N012319999999N0000001N9-00501+99999098741ADDGF108991999999999999999999MW1721
0029228920999991907022006004+60717+028783FM-12+000399999V0201601N009319999999N0000001N9-00111+99999098881ADDGF108991999999999999999999
0029228920999991907022013004+60717+028783FM-12+000399999V0201601N012319999999N0000001N9+00061+99999098591ADDGF100991999999999999999999
0035228920999991907022020004+60717+028783FM-12+000399999V0201601N015419999999N0000001N9-00111+99999098001ADDGF108991999999999999999999MW1721
0035228920999991907022106004+60717+028783FM-12+000399999V0201601N006719999999N0000001N9-00111+99999097351ADDGF108991999999999999999999MW1721
0029228920999991907022113004+60717+028783FM-12+000399999V0201401N002619999999N0000001N9+00111+99999097701ADDGF106991999999999999999999
0029228920999991907022120004+60717+028783FM-12+000399999V0201401N004619999999N0000001N9+00001+99999097661ADDGF108991999999999999999999
0035228920999991907022206004+60717+028783FM-12+000399999V0201401N006719999999N0000001N9-00061+99999097641ADDGF108991999999999999999999MW1721
0029228920999991907022213004+60717+028783FM-12+000399999V0201401N002619999999N0000001N9+00171+99999098081ADDGF107991999999999999999999
0029228920999991907022220004+60717+028783FM-12+000399999V0201401N002619999999N0000001N9+00001+99999098421ADDGF108991999999999999999999
0029228920999991907022306004+60717+028783FM-12+000399999V0201401N002619999999N0000001N9-00171+99999098671ADDGF108991999999999999999999
0029228920999991907022313004+60717+028783FM-12+000399999V0201401N001019999999N0000001N9+00171+99999098741ADDGF108991999999999999999999
0029228920999991907022320004+60717+028783FM-12+000399999V0209991C000019999999N0000001N9-00671+99999098881ADDGF100991999999999999999999
0029228920999991907022406004+60717+028783FM-12+000399999V0200501N001019999999N0000001N9-00391+99999099181ADDGF108991999999999999999999
0029228920999991907022413004+60717+028783FM-12+000399999V0203201N001019999999N0000001N9-00061+99999099481ADDGF108991999999999999999999
0029228920999991907022420004+60717+028783FM-12+000399999V0209991C000019999999N0000001N9-00331+99999099961ADDGF108991999999999999999999
0029228920999991907022506004+60717+028783FM-12+000399999V0203201N001019999999N0000001N9-00561+99999100591ADDGF102991999999999999999999
0029228920999991907022513004+60717+028783FM-12+000399999V0202501N004619999999N0000001N9-00331+99999101001ADDGF108991999999999999999999
0029228920999991907022520004+60717+028783FM-12+000399999V0202301N012319999999N0000001N9-00611+99999101021ADDGF108991999999999999999999
0035228920999991907022606004+60717+028783FM-12+000399999V0202001N015419999999N0000001N9-00391+99999099641ADDGF108991999999999999999999MW1721
0035228920999991907022613004+60717+028783FM-12+000399999V0202301N015419999999N0000001N9-00111+99999098121ADDGF108991999999999999999999MW1721
0029228920999991907022620004+60717+028783FM-12+000399999V0202901N006719999999N0000001N9-00281+99999098191ADDGF100991999999999999999999
0029228920999991907022706004+60717+028783FM-12+000399999V0202901N009319999999N0000001N9-00611+99999098381ADDGF100991999999999999999999
0029228920999991907022713004+60717+028783FM-12+000399999V0202901N009319999999N0000001N9-00171+99999098711ADDGF102991999999999999999999
0029228920999991907022720004+60717+028783FM-12+000399999V0202901N009319999999N0000001N9-00391+99999098991ADDGF100991999999999999999999
0029228920999991907022806004+60717+028783FM-12+000399999V0202901N009319999999N0000001N9-00501+99999099361ADDGF108991999999999999999999
0029228920999991907022813004+60717+028783FM-12+000399999V0203201N012319999999N0000001N9-00331+99999099831ADDGF101991999999999999999999
0029228920999991907022820004+60717+028783FM-12+000399999V0203201N012319999999N0000001N9-00331+99999099941ADDGF106991999999999999999999
0029228920999991907030106004+60717+028783FM-12+000399999V0203401N009319999999N0000001N9-00501+99999100441ADDGF100991999999999999999999
0029228920999991907030113004+60717+028783FM-12+000399999V0203401N009319999999N0000001N9-00281+99999100911ADDGF100991999999999999999999
0029228920999991907030120004+60717+028783FM-12+000399999V0203401N004619999999N0000001N9-00611+99999101191ADDGF100991999999999999999999
0029228920999991907030206004+60717+028783FM-12+000399999V0203201N001019999999N0000001N9-01281+99999100961ADDGF107991999999999999999999
0029228920999991907030213004+60717+028783FM-12+000399999V0202301N002619999999N0000001N9-00391+99999100961ADDGF108991999999999999999999
0029228920999991907030220004+60717+028783FM-12+000399999V0202301N001019999999N0000001N9-00441+99999101071ADDGF108991999999999999999999
0029228920999991907030306004+60717+028783FM-12+000399999V0203401N002619999999N0000001N9-00441+99999101861ADDGF100991999999999999999999
0029228920999991907030313004+60717+028783FM-12+000399999V0202001N002619999999N0000001N9+00111+99999101951ADDGF100991999999999999999999
0029228920999991907030320004+60717+028783FM-12+000399999V0209991C000019999999N0000001N9-00611+99999102201ADDGF100991999999999999999999
0029228920999991907030406004+60717+028783FM-12+000399999V0202301N001019999999N0000001N9-01281+99999102561ADDGF100991999999999999999999
0029228920999991907030413004+60717+028783FM-12+000399999V0202001N006719999999N0000001N9-00171+99999102111ADDGF100991999999999999999999
0029228920999991907030420004+60717+028783FM-12+000399999V0202001N006719999999N0000001N9-00441+99999101751ADDGF100991999999999999999999
0029228920999991907030506004+60717+028783FM-12+000399999V0202001N002619999999N0000001N9-00671+99999101911ADDGF106991999999999999999999
0029228920999991907030513004+60717+028783FM-12+000399999V0202001N006719999999N0000001N9-00061+99999101781ADDGF100991999999999999999999
0029228920999991907030520004+60717+028783FM-12+000399999V0202001N006719999999N0000001N9-00391+99999101761ADDGF100991999999999999999999
0029228920999991907030606004+60717+028783FM-12+000399999V0202001N009319999999N0000001N9-00611+99999101661ADDGF100991999999999999999999
0029228920999991907030613004+60717+028783FM-12+000399999V0202001N009319999999N0000001N9-00061+99999101441ADDGF100991999999999999999999
0029228920999991907030620004+60717+028783FM-12+000399999V0202001N009319999999N0000001N9-00331+99999100911ADDGF100991999999999999999999
0029228920999991907030706004+60717+028783FM-12+000399999V0202501N006719999999N0000001N9+00001+99999101181ADDGF108991999999999999999999
0029228920999991907030713004+60717+028783FM-12+000399999V0202901N004619999999N0000001N9+00391+99999101631ADDGF100991999999999999999999
0029228920999991907030720004+60717+028783FM-12+000399999V0202001N002619999999N0000001N9-00561+99999101641ADDGF100991999999999999999999
0029228920999991907030806004+60717+028783FM-12+000399999V0202001N012319999999N0000001N9-00221+99999101071ADDGF108991999999999999999999
0029228920999991907030813004+60717+028783FM-12+000399999V0202001N015419999999N0000001N9-00111+99999100861ADDGF108991999999999999999999
0029228920999991907030820004+60717+028783FM-12+000399999V0201601N012319999999N0000001N9-00221+99999100441ADDGF108991999999999999999999
0029228920999991907030906004+60717+028783FM-12+000399999V0201601N009319999999N0000001N9-00171+99999100201ADDGF101991999999999999999999
0035228920999991907030913004+60717+028783FM-12+000399999V0201601N004619999999N0000001N9-00221+99999100351ADDGF108991999999999999999999MW1721
0035228920999991907030920004+60717+028783FM-12+000399999V0201801N004619999999N0000001N9-00281+99999100561ADDGF108991999999999999999999MW1721
0035228920999991907031006004+60717+028783FM-12+000399999V0201401N002619999999N0000001N9-00281+99999100481ADDGF108991999999999999999999MW1721
0035228920999991907031013004+60717+028783FM-12+000399999V0201401N002619999999N0000001N9-00171+99999100441ADDGF108991999999999999999999MW1721
0035228920999991907031020004+60717+028783FM-12+000399999V0201401N001019999999N0000001N9-00281+99999100421ADDGF108991999999999999999999MW1721
0035228920999991907031106004+60717+028783FM-12+000399999V0201101N004619999999N0000001N9-00501+99999100361ADDGF108991999999999999999999MW1721
0035228920999991907031113004+60717+028783FM-12+000399999V0200701N002619999999N0000001N9-00331+99999100511ADDGF108991999999999999999999MW1721
0035228920999991907031120004+60717+028783FM-12+000399999V0200701N002619999999N0000001N9-00611+99999100841ADDGF108991999999999999999999MW1721
0035228920999991907031206004+60717+028783FM-12+000399999V0200701N002619999999N0000001N9-01061+99999101181ADDGF107991999999999999999999MW1721
0035228920999991907031213004+60717+028783FM-12+000399999V0200701N001019999999N0000001N9-00441+99999101381ADDGF108991999999999999999999MW1721
0035228920999991907031220004+60717+028783FM-12+000399999V0200701N001019999999N0000001N9-00891+99999101481ADDGF108991999999999999999999MW1721
0029228920999991907031306004+60717+028783FM-12+000399999V0203601N001019999999N0000001N9-00941+99999101201ADDGF102991999999999999999999
0029228920999991907031313004+60717+028783FM-12+000399999V0202901N001019999999N0000001N9-00501+99999101041ADDGF108991999999999999999999
0029228920999991907031320004+60717+028783FM-12+000399999V0202901N001019999999N0000001N9-00891+99999101001ADDGF108991999999999999999999
0029228920999991907031406004+60717+028783FM-12+000399999V0202301N001019999999N0000001N9-00941+99999100981ADDGF108991999999999999999999
0029228920999991907031413004+60717+028783FM-12+000399999V0202301N001019999999N0000001N9-00501+99999101101ADDGF104991999999999999999999
0029228920999991907031420004+60717+028783FM-12+000399999V0202301N001019999999N0000001N9-00781+99999101241ADDGF108991999999999999999999
0035228920999991907031506004+60717+028783FM-12+000399999V0202301N001019999999N0000001N9-00941+99999101701ADDGF108991999999999999999999MW1721
0029228920999991907031513004+60717+028783FM-12+000399999V0202301N002619999999N0000001N9-00561+99999102001ADDGF106991999999999999999999
0029228920999991907031520004+60717+028783FM-12+000399999V0209991C000019999999N0000001N9-01561+99999102111ADDGF100991999999999999999999
0035228920999991907031606004+60717+028783FM-12+000399999V0201401N002619999999N0000001N9-00561+99999101821ADDGF108991999999999999999999MW1721
0029228920999991907031613004+60717+028783FM-12+000399999V0201601N006719999999N0000001N9+00061+99999101841ADDGF108991999999999999999999
0029228920999991907031620004+60717+028783FM-12+000399999V0201601N002619999999N0000001N9-00171+99999101841ADDGF108991999999999999999999
0029228920999991907031706004+60717+028783FM-12+000399999V0201401N006719999999N0000001N9-00331+99999101551ADDGF107991999999999999999999
0029228920999991907031713004+60717+028783FM-12+000399999V0201401N009319999999N0000001N9-00061+99999101341ADDGF108991999999999999999999
0035228920999991907031720004+60717+028783FM-12+000399999V0201401N009319999999N0000001N9-00501+99999101141ADDGF108991999999999999999999MW1721
0029228920999991907031806004+60717+028783FM-12+000399999V0201401N002619999999N0000001N9-00281+99999100831ADDGF108991999999999999999999
0029228920999991907031813004+60717+028783FM-12+000399999V0201401N002619999999N0000001N9+00111+99999100681ADDGF108991999999999999999999
0035228920999991907031820004+60717+028783FM-12+000399999V0201401N004619999999N0000001N9-00391+99999100441ADDGF108991999999999999999999MW1721
0029228920999991907031906004+60717+028783FM-12+000399999V0201401N004619999999N0000001N9-00441+99999099801ADDGF108991999999999999999999
0029228920999991907031913004+60717+028783FM-12+000399999V0201401N006719999999N0000001N9+00331+99999099461ADDGF107991999999999999999999
0029228920999991907031920004+60717+028783FM-12+000399999V0201401N012319999999N0000001N9-00171+99999099381ADDGF108991999999999999999999
0029228920999991907032006004+60717+028783FM-12+000399999V0201401N004619999999N0000001N9-00061+99999099201ADDGF108991999999999999999999
0029228920999991907032013004+60717+028783FM-12+000399999V0200901N004619999999N0000001N9-00171+99999099281ADDGF108991999999999999999999
0029228920999991907032020004+60717+028783FM-12+000399999V0200901N002619999999N0000001N9-00281+99999099511ADDGF108991999999999999999999
0029228920999991907032106004+60717+028783FM-12+000399999V0200501N002619999999N0000001N9-00441+99999099831ADDGF108991999999999999999999
0035228920999991907032113004+60717+028783FM-12+000399999V0200501N001019999999N0000001N9-00171+99999100181ADDGF108991999999999999999999MW1721
0029228920999991907032120004+60717+028783FM-12+000399999V0203601N001019999999N0000001N9+00221+99999100391ADDGF108991999999999999999999
0029228920999991907032206004+60717+028783FM-12+000399999V0202301N001019999999N0000001N9-00281+99999100181ADDGF108991999999999999999999
0029228920999991907032213004+60717+028783FM-12+000399999V0202001N004619999999N0000001N9+00111+99999099871ADDGF108991999999999999999999
0029228920999991907032220004+60717+028783FM-12+000399999V0201401N001019999999N0000001N9-00281+99999099701ADDGF108991999999999999999999
0029228920999991907032306004+60717+028783FM-12+000399999V0200501N001019999999N0000001N9-00331+99999100081ADDGF106991999999999999999999
0029228920999991907032313004+60717+028783FM-12+000399999V0200701N001019999999N0000001N9+00061+99999100441ADDGF108991999999999999999999
0029228920999991907032320004+60717+028783FM-12+000399999V0209991C000019999999N0000001N9-00331+99999101071ADDGF108991999999999999999999
0029228920999991907032406004+60717+028783FM-12+000399999V0201801N001019999999N0000001N9-00391+99999101301ADDGF102991999999999999999999
0035228920999991907032413004+60717+028783FM-12+000399999V0202001N002619999999N0000001N9+00001+99999101551ADDGF107991999999999999999999MW1721
0029228920999991907032420004+60717+028783FM-12+000399999V0209991C000019999999N0000001N9-00611+99999101781ADDGF100991999999999999999999
0029228920999991907032506004+60717+028783FM-12+000399999V0209991C000019999999N0000001N9-00671+99999101951ADDGF108991999999999999999999
0029228920999991907032513004+60717+028783FM-12+000399999V0202001N002619999999N0000001N9+00001+99999101951ADDGF101991999999999999999999
0029228920999991907032520004+60717+028783FM-12+000399999V0202001N002619999999N0000001N9-00671+99999101951ADDGF104991999999999999999999
0029228920999991907032606004+60717+028783FM-12+000399999V0202001N004619999999N0000001N9-00391+99999101941ADDGF100991999999999999999999
0029228920999991907032613004+60717+028783FM-12+000399999V0202001N009319999999N0000001N9-00061+99999101871ADDGF104991999999999999999999
0029228920999991907032620004+60717+028783FM-12+000399999V0202301N012319999999N0000001N9+00001+99999101521ADDGF108991999999999999999999
0029228920999991907032706004+60717+028783FM-12+000399999V0209991C000019999999N0000001N9-00281+99999102111ADDGF100991999999999999999999
0029228920999991907032713004+60717+028783FM-12+000399999V0202001N004619999999N0000001N9+00441+99999102341ADDGF100991999999999999999999
0029228920999991907032720004+60717+028783FM-12+000399999V0202001N004619999999N0000001N9-00111+99999102201ADDGF100991999999999999999999
0029228920999991907032806004+60717+028783FM-12+000399999V0202001N002619999999N0000001N9-00171+99999101761ADDGF101991999999999999999999
0029228920999991907032813004+60717+028783FM-12+000399999V0202001N006719999999N0000001N9+00281+99999101541ADDGF100991999999999999999999
0029228920999991907032820004+60717+028783FM-12+000399999V0202001N001019999999N0000001N9-00061+99999101541ADDGF100991999999999999999999
0029228920999991907032906004+60717+028783FM-12+000399999V0209991C000019999999N0000001N9-00221+99999101791ADDGF100991999999999999999999
0029228920999991907032913004+60717+028783FM-12+000399999V0203601N002619999999N0000001N9+00831+99999102031ADDGF100991999999999999999999
0029228920999991907032920004+60717+028783FM-12+000399999V0203601N001019999999N0000001N9-00061+99999102281ADDGF100991999999999999999999
0029228920999991907033006004+60717+028783FM-12+000399999V0209991C000019999999N0000001N9-00281+99999102561ADDGF100991999999999999999999
0029228920999991907033013004+60717+028783FM-12+000399999V0209991C000019999999N0000001N9+01061+99999102591ADDGF100991999999999999999999
0029228920999991907033020004+60717+028783FM-12+000399999V0200501N001019999999N0000001N9+00171+99999102631ADDGF100991999999999999999999
0029228920999991907033106004+60717+028783FM-12+000399999V0200501N001019999999N0000001N9-00171+99999102741ADDGF100991999999999999999999
0029228920999991907033113004+60717+028783FM-12+000399999V0202301N001019999999N0000001N9+00831+99999102721ADDGF100991999999999999999999
0029228920999991907033120004+60717+028783FM-12+000399999V0202301N001019999999N0000001N9-00061+99999102681ADDGF100991999999999999999999
0029228920999991907040106004+60717+028783FM-12+000399999V0201801N001019999999N0000001N9+00001+99999102671ADDGF100991999999999999999999
0029228920999991907040113004+60717+028783FM-12+000399999V0209991C000019999999N0000001N9+00831+99999102271ADDGF100991999999999999999999
0029228920999991907040120004+60717+028783FM-12+000399999V0209991C000019999999N0000001N9-00061+99999102061ADDGF100991999999999999999999
0029228920999991907040206004+60717+028783FM-12+000399999V0209991C000019999999N0000001N9-00221+99999101801ADDGF100991999999999999999999
0029228920999991907040213004+60717+028783FM-12+000399999V0209991C000019999999N0000001N9+00891+99999101631ADDGF100991999999999999999999
0029228920999991907040220004+60717+028783FM-12+000399999V0203601N001019999999N0000001N9+00281+99999101601ADDGF100991999999999999999999
0029228920999991907040306004+60717+028783FM-12+000399999V0209991C000019999999N0000001N9+00221+99999101601ADDGF107991999999999999999999
0029228920999991907040313004+60717+028783FM-12+000399999V0200701N002619999999N0000001N9+00501+99999101631ADDGF108991999999999999999999
0029228920999991907040320004+60717+028783FM-12+000399999V0200701N002619999999N0000001N9+00111+99999101861ADDGF108991999999999999999999
0029228920999991907040406004+60717+028783FM-12+000399999V0201101N001019999999N0000001N9+00221+99999102161ADDGF108991999999999999999999
0029228920999991907040413004+60717+028783FM-12+000399999V0201101N001019999999N0000001N9+00721+99999102361ADDGF108991999999999999999999
0029228920999991907040420004+60717+028783FM-12+000399999V0200701N002619999999N0000001N9+00221+99999102661ADDGF106991999999999999999999
0029228920999991907040506004+60717+028783FM-12+000399999V0200701N001019999999N0000001N9+00221+99999103031ADDGF108991999999999999999999
0029228920999991907040513004+60717+028783FM-12+000399999V0200901N002619999999N0000001N9+00611+99999103021ADDGF104991999999999999999999
0029228920999991907040520004+60717+028783FM-12+000399999V0201101N001019999999N0000001N9+00221+99999102991ADDGF108991999999999999999999
0029228920999991907040606004+60717+028783FM-12+000399999V0201101N002619999999N0000001N9+00331+99999102991ADDGF100991999999999999999999
0029228920999991907040613004+60717+028783FM-12+000399999V0201401N006719999999N0000001N9+00721+99999102861ADDGF100991999999999999999999
0029228920999991907040620004+60717+028783FM-12+000399999V0201101N001019999999N0000001N9+00171+99999102831ADDGF100991999999999999999999
0029228920999991907040706004+60717+028783FM-12+000399999V0201401N002619999999N0000001N9+00281+99999102871ADDGF100991999999999999999999
0029228920999991907040713004+60717+028783FM-12+000399999V0201401N006719999999N0000001N9+00611+99999102821ADDGF104991999999999999999999
0029228920999991907040720004+60717+028783FM-12+000399999V0201401N002619999999N0000001N9+00171+99999102781ADDGF100991999999999999999999
0029228920999991907040806004+60717+028783FM-12+000399999V0201601N006719999999N0000001N9+00111+99999102861ADDGF102991999999999999999999
0029228920999991907040813004+60717+028783FM-12+000399999V0201601N006719999999N0000001N9+00561+99999102821ADDGF108991999999999999999999
0029228920999991907040820004+60717+028783FM-12+000399999V0201601N002619999999N0000001N9+00221+99999102831ADDGF101991999999999999999999
0029228920999991907040906004+60717+028783FM-12+000399999V0201801N002619999999N0000001N9+00221+99999102981ADDGF101991999999999999999999
0029228920999991907040913004+60717+028783FM-12+000399999V0202301N004619999999N0000001N9+00391+99999103031ADDGF104991999999999999999999
0029228920999991907040920004+60717+028783FM-12+000399999V0202301N001019999999N0000001N9+00111+99999102991ADDGF108991999999999999999999
0029228920999991907041006004+60717+028783FM-12+000399999V0209991C000019999999N0000001N9+00221+99999102881ADDGF100991999999999999999999
0029228920999991907041013004+60717+028783FM-12+000399999V0203601N001019999999N0000001N9+00941+99999102641ADDGF100991999999999999999999
0029228920999991907041020004+60717+028783FM-12+000399999V0209991C000019999999N0000001N9+00001+99999102501ADDGF100991999999999999999999
0029228920999991907041106004+60717+028783FM-12+000399999V0209991C000019999999N0000001N9+00061+99999102271ADDGF100991999999999999999999
0029228920999991907041113004+60717+028783FM-12+000399999V0202301N006719999999N0000001N9+00331+99999102061ADDGF100991999999999999999999
0029228920999991907041120004+60717+028783FM-12+000399999V0209991C000019999999N0000001N9-00061+99999101901ADDGF100991999999999999999999
0029228920999991907041206004+60717+028783FM-12+000399999V0209991C000019999999N0000001N9+00281+99999101741ADDGF106991999999999999999999
0029228920999991907041213004+60717+028783FM-12+000399999V0202001N004619999999N0000001N9+00441+99999101671ADDGF102991999999999999999999
0029228920999991907041220004+60717+028783FM-12+000399999V0202001N002619999999N0000001N9+00061+99999101401ADDGF108991999999999999999999
0029228920999991907041306004+60717+028783FM-12+000399999V0202001N002619999999N0000001N9+00111+99999100991ADDGF100991999999999999999999
0029228920999991907041313004+60717+028783FM-12+000399999V0202001N006719999999N0000001N9+00441+99999100781ADDGF100991999999999999999999
0029228920999991907041320004+60717+028783FM-12+000399999V0202001N004619999999N0000001N9-00061+99999100561ADDGF108991999999999999999999
0029228920999991907041406004+60717+028783FM-12+000399999V0202301N004619999999N0000001N9+00061+99999100221ADDGF108991999999999999999999
0035228920999991907041413004+60717+028783FM-12+000399999V0202301N006719999999N0000001N9+00001+99999099991ADDGF108991999999999999999999MW1721
0029228920999991907041420004+60717+028783FM-12+000399999V0203201N004619999999N0000001N9-00331+99999100481ADDGF100991999999999999999999
0029228920999991907041506004+60717+028783FM-12+000399999V0203201N004619999999N0000001N9-00561+99999101281ADDGF100991999999999999999999
0029228920999991907041513004+60717+028783FM-12+000399999V0202701N009319999999N0000001N9+00171+99999101351ADDGF104991999999999999999999
0029228920999991907041520004+60717+028783FM-12+000399999V0202001N002619999999N0000001N9-00391+99999101341ADDGF101991999999999999999999
0029228920999991907041606004+60717+028783FM-12+000399999V0202001N001019999999N0000001N9-00111+99999101551ADDGF107991999999999999999999
0029228920999991907041613004+60717+028783FM-12+000399999V0202001N006719999999N0000001N9+00111+99999101511ADDGF100991999999999999999999
0029228920999991907041620004+60717+028783FM-12+000399999V0201401N001019999999N0000001N9-00281+99999101261ADDGF100991999999999999999999
0029228920999991907041706004+60717+028783FM-12+000399999V0201401N001019999999N0000001N9+00061+99999100951ADDGF100991999999999999999999
0029228920999991907041713004+60717+028783FM-12+000399999V0201401N002619999999N0000001N9+00501+99999100701ADDGF108991999999999999999999
0035228920999991907041720004+60717+028783FM-12+000399999V0201401N004619999999N0000001N9+00061+99999100401ADDGF108991999999999999999999MW1721
0029228920999991907041806004+60717+028783FM-12+000399999V0201401N002619999999N0000001N9+00221+99999100031ADDGF108991999999999999999999
0029228920999991907041813004+60717+028783FM-12+000399999V0201401N002619999999N0000001N9+00331+99999099841ADDGF108991999999999999999999
0029228920999991907041820004+60717+028783FM-12+000399999V0201401N001019999999N0000001N9+00171+99999099671ADDGF108991999999999999999999
0035228920999991907041906004+60717+028783FM-12+000399999V0202001N002619999999N0000001N9+00281+99999099761ADDGF108991999999999999999999MW1621
0029228920999991907041913004+60717+028783FM-12+000399999V0202001N009319999999N0000001N9+00221+99999100181ADDGF108991999999999999999999
0029228920999991907041920004+60717+028783FM-12+000399999V0209991C000019999999N0000001N9+00061+99999100361ADDGF108991999999999999999999
0029228920999991907042006004+60717+028783FM-12+000399999V0203601N001019999999N0000001N9+00061+99999100321ADDGF108991999999999999999999
0029228920999991907042013004+60717+028783FM-12+000399999V0203401N009319999999N0000001N9+00221+99999100221ADDGF108991999999999999999999
0035228920999991907042020004+60717+028783FM-12+000399999V0203401N004619999999N0000001N9-00111+99999100141ADDGF108991999999999999999999MW1721
0029228920999991907042106004+60717+028783FM-12+000399999V0202901N004619999999N0000001N9+00111+99999100631ADDGF106991999999999999999999
0029228920999991907042113004+60717+028783FM-12+000399999V0202001N006719999999N0000001N9+00221+99999100961ADDGF108991999999999999999999
0029228920999991907042120004+60717+028783FM-12+000399999V0202001N002619999999N0000001N9-00171+99999101381ADDGF100991999999999999999999
0035228920999991907042206004+60717+028783FM-12+000399999V0201601N002619999999N0000001N9+00171+99999101591ADDGF108991999999999999999999MW1601
0035228920999991907042213004+60717+028783FM-12+000399999V0201601N004619999999N0000001N9+00331+99999101641ADDGF108991999999999999999999MW1601
0035228920999991907042220004+60717+028783FM-12+000399999V0201601N004619999999N0000001N9+00391+99999101631ADDGF108991999999999999999999MW1601
0035228920999991907042306004+60717+028783FM-12+000399999V0201601N002619999999N0000001N9+00441+99999101261ADDGF108991999999999999999999MW1621
0035228920999991907042313004+60717+028783FM-12+000399999V0201601N001019999999N0000001N9+00501+99999101021ADDGF108991999999999999999999MW1621
0035228920999991907042320004+60717+028783FM-12+000399999V0209991C000019999999N0000001N9+00441+99999100481ADDGF108991999999999999999999MW1621
0035228920999991907042406004+60717+028783FM-12+000399999V0209991C000019999999N0000001N9+00441+99999100141ADDGF108991999999999999999999MW1621
0029228920999991907042413004+60717+028783FM-12+000399999V0201401N002619999999N0000001N9+00501+99999100191ADDGF108991999999999999999999
0029228920999991907042420004+60717+028783FM-12+000399999V0201601N001019999999N0000001N9+00391+99999100071ADDGF108991999999999999999999
0029228920999991907042506004+60717+028783FM-12+000399999V0200701N001019999999N0000001N9+00221+99999100081ADDGF108991999999999999999999
0029228920999991907042513004+60717+028783FM-12+000399999V0209991C000019999999N0000001N9+00561+99999100201ADDGF108991999999999999999999
0029228920999991907042520004+60717+028783FM-12+000399999V0209991C000019999999N0000001N9+00281+99999100261ADDGF108991999999999999999999
0035228920999991907042606004+60717+028783FM-12+000399999V0200201N001019999999N0000001N9+00331+99999100151ADDGF108991999999999999999999MW1621
0029228920999991907042613004+60717+028783FM-12+000399999V0200501N004619999999N0000001N9+00941+99999099621ADDGF108991999999999999999999
0029228920999991907042620004+60717+028783FM-12+000399999V0200501N004619999999N0000001N9+00611+99999099341ADDGF108991999999999999999999
0029228920999991907042706004+60717+028783FM-12+000399999V0200501N004619999999N0000001N9+00561+99999099071ADDGF108991999999999999999999
0035228920999991907042713004+60717+028783FM-12+000399999V0202001N006719999999N0000001N9+00441+99999099121ADDGF108991999999999999999999MW1621
0035228920999991907042720004+60717+028783FM-12+000399999V0201401N001019999999N0000001N9+00111+99999099821ADDGF108991999999999999999999MW1691
0035228920999991907042806004+60717+028783FM-12+000399999V0201401N001019999999N0000001N9+00171+99999100161ADDGF108991999999999999999999MW1691
0029228920999991907042813004+60717+028783FM-12+000399999V0202001N002619999999N0000001N9+00781+99999100161ADDGF102991999999999999999999
0029228920999991907042820004+60717+028783FM-12+000399999V0200201N001019999999N0000001N9+00061+99999100241ADDGF100991999999999999999999
0029228920999991907042906004+60717+028783FM-12+000399999V0209991C000019999999N0000001N9+00331+99999100391ADDGF100991999999999999999999
0029228920999991907042913004+60717+028783FM-12+000399999V0209991C000019999999N0000001N9+00501+99999100561ADDGF104991999999999999999999
0029228920999991907042920004+60717+028783FM-12+000399999V0202001N001019999999N0000001N9+00111+99999100581ADDGF100991999999999999999999
0029228920999991907043006004+60717+028783FM-12+000399999V0202001N001019999999N0000001N9+00221+99999100661ADDGF100991999999999999999999
0029228920999991907043013004+60717+028783FM-12+000399999V0201101N001019999999N0000001N9+00941+99999100341ADDGF104991999999999999999999
0029228920999991907043020004+60717+028783FM-12+000399999V0209991C000019999999N0000001N9+00221+99999100071ADDGF108991999999999999999999
0029228920999991907050106004+60717+028783FM-12+000399999V0203601N001019999999N0000001N9+00501+99999099821ADDGF106991999999999999999999
0029228920999991907050113004+60717+028783FM-12+000399999V0203401N002619999999N0000001N9+00721+99999100081ADDGF102991999999999999999999
0029228920999991907050120004+60717+028783FM-12+000399999V0202001N002619999999N0000001N9+00171+99999100361ADDGF108991999999999999999999
0035228920999991907050206004+60717+028783FM-12+000399999V0202001N009319999999N0000001N9+00281+99999101001ADDGF100991999999999999999999MW1621
0035228920999991907050213004+60717+028783FM-12+000399999V0202001N002619999999N0000001N9+00561+99999101161ADDGF108991999999999999999999MW1621
0035228920999991907050220004+60717+028783FM-12+000399999V0201801N002619999999N0000001N9+00331+99999101151ADDGF108991999999999999999999MW1621
0035228920999991907050306004+60717+028783FM-12+000399999V0201101N002619999999N0000001N9+00501+99999100831ADDGF108991999999999999999999MW1621
0029228920999991907050313004+60717+028783FM-12+000399999V0202001N004619999999N0000001N9+01061+99999100701ADDGF102991999999999999999999
0029228920999991907050320004+60717+028783FM-12+000399999V0209991C000019999999N0000001N9+00671+99999100341ADDGF108991999999999999999999
0035228920999991907050406004+60717+028783FM-12+000399999V0202001N004619999999N0000001N9+00391+99999100241ADDGF108991999999999999999999MW1621
0035228920999991907050413004+60717+028783FM-12+000399999V0202001N002619999999N0000001N9+00781+99999100301ADDGF102991999999999999999999MW1621
0035228920999991907050420004+60717+028783FM-12+000399999V0209991C000019999999N0000001N9+00501+99999099961ADDGF102991999999999999999999MW1621
0035228920999991907050506004+60717+028783FM-12+000399999V0200501N002619999999N0000001N9+00441+99999099511ADDGF108991999999999999999999MW1621
0029228920999991907050513004+60717+028783FM-12+000399999V0202001N002619999999N0000001N9+01001+99999100301ADDGF104991999999999999999999
0029228920999991907050520004+60717+028783FM-12+000399999V0202001N009319999999N0000001N9+00221+99999100761ADDGF108991999999999999999999
0029228920999991907050606004+60717+028783FM-12+000399999V0202901N004619999999N0000001N9+00501+99999101301ADDGF108991999999999999999999
0029228920999991907050613004+60717+028783FM-12+000399999V0202001N006719999999N0000001N9+00611+99999101631ADDGF108991999999999999999999
0029228920999991907050620004+60717+028783FM-12+000399999V0202301N004619999999N0000001N9+00281+99999101681ADDGF107991999999999999999999
0029228920999991907050706004+60717+028783FM-12+000399999V0203401N006719999999N0000001N9+00281+99999102341ADDGF100991999999999999999999
0029228920999991907050713004+60717+028783FM-12+000399999V0203401N002619999999N0000001N9+00611+99999102701ADDGF101991999999999999999999
0029228920999991907050720004+60717+028783FM-12+000399999V0209991C000019999999N0000001N9+00171+99999102861ADDGF100991999999999999999999
0029228920999991907050806004+60717+028783FM-12+000399999V0209991C000019999999N0000001N9+00281+99999102961ADDGF100991999999999999999999
0029228920999991907050813004+60717+028783FM-12+000399999V0202301N004619999999N0000001N9+00891+99999102661ADDGF100991999999999999999999
0029228920999991907050820004+60717+028783FM-12+000399999V0200901N002619999999N0000001N9+00561+99999102191ADDGF102991999999999999999999
0035228920999991907050906004+60717+028783FM-12+000399999V0203601N001019999999N0000001N9+00501+99999101561ADDGF108991999999999999999999MW1621
0029228920999991907050913004+60717+028783FM-12+000399999V0202901N002619999999N0000001N9+01061+99999101631ADDGF108991999999999999999999
0029228920999991907050920004+60717+028783FM-12+000399999V0209991C000019999999N0000001N9+00561+99999101821ADDGF108991999999999999999999
0029228920999991907051006004+60717+028783FM-12+000399999V0203401N001019999999N0000001N9+00561+99999102041ADDGF108991999999999999999999
0029228920999991907051013004+60717+028783FM-12+000399999V0209991C000019999999N0000001N9+01221+99999101961ADDGF107991999999999999999999
0029228920999991907051020004+60717+028783FM-12+000399999V0201101N001019999999N0000001N9+00781+99999101991ADDGF108991999999999999999999
0029228920999991907051106004+60717+028783FM-12+000399999V0201801N001019999999N0000001N9+00831+99999102071ADDGF107991999999999999999999
0029228920999991907051113004+60717+028783FM-12+000399999V0202501N009319999999N0000001N9+01061+99999101991ADDGF100991999999999999999999
0029228920999991907051120004+60717+028783FM-12+000399999V0202001N006719999999N0000001N9+00781+99999101501ADDGF108991999999999999999999
0035228920999991907051206004+60717+028783FM-12+000399999V0202001N004619999999N0000001N9+00611+99999101191ADDGF108991999999999999999999MW1621
0029228920999991907051213004+60717+028783FM-12+000399999V0202001N001019999999N0000001N9+00941+99999101151ADDGF108991999999999999999999
0035228920999991907051220004+60717+028783FM-12+000399999V0202001N002619999999N0000001N9+00671+99999100841ADDGF108991999999999999999999MW1621
0029228920999991907051306004+60717+028783FM-12+000399999V0202301N004619999999N0000001N9+01061+99999100721ADDGF102991999999999999999999
0029228920999991907051313004+60717+028783FM-12+000399999V0203401N015419999999N0000001N9+00891+99999100741ADDGF107991999999999999999999
0000228920999991907051320004+60717+028783FM-12+000399999V02099999999999999999N0000001N9+00221+99999101161
0000228920999991907051406004+60717+028783FM-12+000399999V02099999999999999999N0000001N9+00391+99999101071
0029228920999991907051413004+60717+028783FM-12+000399999V0201601N002619999999N0000001N9+00721+99999100681ADDGF106991999999999999999999
0029228920999991907051420004+60717+028783FM-12+000399999V0203201N001019999999N0000001N9+00281+99999100841ADDGF102991999999999999999999
0029228920999991907051506004+60717+028783FM-12+000399999V0209991C000019999999N0000001N9+00331+99999101111ADDGF101991999999999999999999
0029228920999991907051513004+60717+028783FM-12+000399999V0201601N002619999999N0000001N9+00721+99999101021ADDGF100991999999999999999999
0029228920999991907051520004+60717+028783FM-12+000399999V0202001N001019999999N0000001N9+00281+99999100871ADDGF102991999999999999999999
0029228920999991907051606004+60717+028783FM-12+000399999V0201801N001019999999N0000001N9+00441+99999100591ADDGF108991999999999999999999
0029228920999991907051613004+60717+028783FM-12+000399999V0200701N002619999999N0000001N9+00611+99999100461ADDGF108991999999999999999999
0029228920999991907051620004+60717+028783FM-12+000399999V0200701N002619999999N0000001N9+00441+99999100321ADDGF108991999999999999999999
0029228920999991907051706004+60717+028783FM-12+000399999V0200701N009319999999N0000001N9+00281+99999100281ADDGF108991999999999999999999
0029228920999991907051713004+60717+028783FM-12+000399999V0200901N006719999999N0000001N9+00331+99999100521ADDGF108991999999999999999999
0029228920999991907051720004+60717+028783FM-12+000399999V0200501N001019999999N0000001N9+00281+99999100701ADDGF108991999999999999999999
0029228920999991907051806004+60717+028783FM-12+000399999V0200901N001019999999N0000001N9+00561+99999101031ADDGF108991999999999999999999
0029228920999991907051813004+60717+028783FM-12+000399999V0202301N004619999999N0000001N9+00721+99999101471ADDGF108991999999999999999999
0029228920999991907051820004+60717+028783FM-12+000399999V0202301N001019999999N0000001N9+00441+99999101801ADDGF102991999999999999999999
0029228920999991907051906004+60717+028783FM-12+000399999V0209991C000019999999N0000001N9+00611+99999102241ADDGF100991999999999999999999
0029228920999991907051913004+60717+028783FM-12+000399999V0201101N001019999999N0000001N9+01441+99999102351ADDGF100991999999999999999999
0029228920999991907051920004+60717+028783FM-12+000399999V0201101N002619999999N0000001N9+00941+99999102481ADDGF102991999999999999999999
0029228920999991907052006004+60717+028783FM-12+000399999V0200901N004619999999N0000001N9+00941+99999102791ADDGF103991999999999999999999
0029228920999991907052013004+60717+028783FM-12+000399999V0200901N004619999999N0000001N9+01671+99999102711ADDGF100991999999999999999999
0029228920999991907052020004+60717+028783FM-12+000399999V0200901N002619999999N0000001N9+01111+99999102501ADDGF108991999999999999999999
0029228920999991907052106004+60717+028783FM-12+000399999V0201401N002619999999N0000001N9+01391+99999102021ADDGF108991999999999999999999
0035228920999991907052113004+60717+028783FM-12+000399999V0201801N001019999999N0000001N9+01561+99999101711ADDGF108991999999999999999999MW1171
0029228920999991907052120004+60717+028783FM-12+000399999V0209991C000019999999N0000001N9+01331+99999101431ADDGF106991999999999999999999
0029228920999991907052206004+60717+028783FM-12+000399999V0202001N001019999999N0000001N9+01501+99999100951ADDGF101991999999999999999999
0029228920999991907052213004+60717+028783FM-12+000399999V0202001N009319999999N0000001N9+00941+99999100881ADDGF108991999999999999999999
0029228920999991907052220004+60717+028783FM-12+000399999V0202301N004619999999N0000001N9+00831+99999100871ADDGF108991999999999999999999
0029228920999991907052306004+60717+028783FM-12+000399999V0202301N002619999999N0000001N9+00561+99999100761ADDGF108991999999999999999999
0029228920999991907052313004+60717+028783FM-12+000399999V0203601N002619999999N0000001N9+00891+99999100961ADDGF108991999999999999999999
0029228920999991907052320004+60717+028783FM-12+000399999V0209991C000019999999N0000001N9+00671+99999101181ADDGF106991999999999999999999
0029228920999991907052406004+60717+028783FM-12+000399999V0202501N001019999999N0000001N9+00831+99999101501ADDGF105991999999999999999999
0035228920999991907052413004+60717+028783FM-12+000399999V0203201N002619999999N0000001N9+00781+99999101751ADDGF108991999999999999999999MW1621
0029228920999991907052420004+60717+028783FM-12+000399999V0209991C000019999999N0000001N9+00831+99999101801ADDGF102991999999999999999999
0029228920999991907052506004+60717+028783FM-12+000399999V0202001N001019999999N0000001N9+01001+99999101671ADDGF104991999999999999999999
0029228920999991907052513004+60717+028783FM-12+000399999V0202001N006719999999N0000001N9+01061+99999101301ADDGF106991999999999999999999
0029228920999991907052520004+60717+028783FM-12+000399999V0202001N002619999999N0000001N9+00831+99999101031ADDGF108991999999999999999999
0029228920999991907052606004+60717+028783FM-12+000399999V0209991C000019999999N0000001N9+00941+99999100431ADDGF101991999999999999999999
0029228920999991907052613004+60717+028783FM-12+000399999V0202001N009319999999N0000001N9+01061+99999100101ADDGF102991999999999999999999
0035228920999991907052620004+60717+028783FM-12+000399999V0201101N001019999999N0000001N9+00721+99999099311ADDGF108991999999999999999999MW1621
0029228920999991907052706004+60717+028783FM-12+000399999V0202001N006719999999N0000001N9+00721+99999098741ADDGF108991999999999999999999
0029228920999991907052713004+60717+028783FM-12+000399999V0202301N002619999999N0000001N9+01001+99999098791ADDGF108991999999999999999999
0035228920999991907052720004+60717+028783FM-12+000399999V0203401N009319999999N0000001N9+00501+99999098791ADDGF108991999999999999999999MW1621
0035228920999991907052806004+60717+028783FM-12+000399999V0203201N004619999999N0000001N9+00171+99999098351ADDGF108991999999999999999999MW1621
0029228920999991907052813004+60717+028783FM-12+000399999V0203201N006719999999N0000001N9+00501+99999098661ADDGF108991999999999999999999
0035228920999991907052820004+60717+028783FM-12+000399999V0202901N002619999999N0000001N9+00221+99999098751ADDGF108991999999999999999999MW1621
0035228920999991907052906004+60717+028783FM-12+000399999V0200201N002619999999N0000001N9+00391+99999098921ADDGF108991999999999999999999MW1621
0029228920999991907052913004+60717+028783FM-12+000399999V0203401N006719999999N0000001N9+00561+99999099521ADDGF108991999999999999999999
0029228920999991907052920004+60717+028783FM-12+000399999V0200201N002619999999N0000001N9+00391+99999099951ADDGF108991999999999999999999
0029228920999991907053006004+60717+028783FM-12+000399999V0200201N002619999999N0000001N9+00331+99999100511ADDGF108991999999999999999999
0029228920999991907053013004+60717+028783FM-12+000399999V0200501N001019999999N0000001N9+00781+99999100801ADDGF108991999999999999999999
0035228920999991907053020004+60717+028783FM-12+000399999V0202301N009319999999N0000001N9+00391+99999100671ADDGF108991999999999999999999MW1621
0029228920999991907053106004+60717+028783FM-12+000399999V0202301N009319999999N0000001N9+00391+99999100431ADDGF106991999999999999999999
0029228920999991907053113004+60717+028783FM-12+000399999V0202301N015419999999N0000001N9+00561+99999100201ADDGF107991999999999999999999
0029228920999991907053120004+60717+028783FM-12+000399999V0202301N006719999999N0000001N9+00331+99999099991ADDGF108991999999999999999999
0029228920999991907060106004+60717+028783FM-12+000399999V0203601N002619999999N0000001N9+00441+99999100401ADDGF107991999999999999999999
0029228920999991907060113004+60717+028783FM-12+000399999V0202301N004619999999N0000001N9+00891+99999100961ADDGF104991999999999999999999
0029228920999991907060120004+60717+028783FM-12+000399999V0203201N001019999999N0000001N9+00611+99999101421ADDGF108991999999999999999999
0029228920999991907060206004+60717+028783FM-12+000399999V0203401N002619999999N0000001N9+00831+99999101901ADDGF100991999999999999999999
0029228920999991907060213004+60717+028783FM-12+000399999V0203201N006719999999N0000001N9+01111+99999102001ADDGF101991999999999999999999
0029228920999991907060220004+60717+028783FM-12+000399999V0209991C000019999999N0000001N9+00611+99999101951ADDGF100991999999999999999999
0029228920999991907060306004+60717+028783FM-12+000399999V0201601N002619999999N0000001N9+01281+99999101781ADDGF100991999999999999999999
0029228920999991907060313004+60717+028783FM-12+000399999V0201601N015419999999N0000001N9+01891+99999101241ADDGF100991999999999999999999
0035228920999991907060320004+60717+028783FM-12+000399999V0201601N004619999999N0000001N9+01061+99999101181ADDGF108991999999999999999999MW1621
0029228920999991907060406004+60717+028783FM-12+000399999V0202001N001019999999N0000001N9+01171+99999101231ADDGF108991999999999999999999
0035228920999991907060413004+60717+028783FM-12+000399999V0201101N001019999999N0000001N9+01391+99999101221ADDGF108991999999999999999999MW1621
0029228920999991907060420004+60717+028783FM-12+000399999V0201101N001019999999N0000001N9+01391+99999101161ADDGF108991999999999999999999
0029228920999991907060506004+60717+028783FM-12+000399999V0201401N004619999999N0000001N9+01781+99999100921ADDGF100991999999999999999999
0029228920999991907060513004+60717+028783FM-12+000399999V0202301N004619999999N0000001N9+01781+99999100641ADDGF108991999999999999999999
0029228920999991907060520004+60717+028783FM-12+000399999V0202301N009319999999N0000001N9+00831+99999100751ADDGF108991999999999999999999
0029228920999991907060606004+60717+028783FM-12+000399999V0203201N002619999999N0000001N9+00891+99999101241ADDGF108991999999999999999999
0029228920999991907060613004+60717+028783FM-12+000399999V0203201N002619999999N0000001N9+01561+99999101541ADDGF100991999999999999999999
0029228920999991907060620004+60717+028783FM-12+000399999V0209991C000019999999N0000001N9+01281+99999101741ADDGF100991999999999999999999
0029228920999991907060706004+60717+028783FM-12+000399999V0200701N002619999999N0000001N9+01221+99999102111ADDGF100991999999999999999999
0029228920999991907060713004+60717+028783FM-12+000399999V0200701N006719999999N0000001N9+01331+99999102041ADDGF102991999999999999999999
0029228920999991907060720004+60717+028783FM-12+000399999V0200701N001019999999N0000001N9+01061+99999101901ADDGF100991999999999999999999
0029228920999991907060806004+60717+028783FM-12+000399999V0200701N004619999999N0000001N9+01221+99999101681ADDGF100991999999999999999999
0029228920999991907060813004+60717+028783FM-12+000399999V0200701N009319999999N0000001N9+01781+99999101431ADDGF102991999999999999999999
0029228920999991907060820004+60717+028783FM-12+000399999V0200701N002619999999N0000001N9+01441+99999101281ADDGF107991999999999999999999
0029228920999991907060906004+60717+028783FM-12+000399999V0200701N002619999999N0000001N9+01391+99999101101ADDGF108991999999999999999999
0029228920999991907060913004+60717+028783FM-12+000399999V0200701N006719999999N0000001N9+01721+99999101041ADDGF104991999999999999999999
0029228920999991907060920004+60717+028783FM-12+000399999V0200701N002619999999N0000001N9+01391+99999101001ADDGF108991999999999999999999
0029228920999991907061006004+60717+028783FM-12+000399999V0209991C000019999999N0000001N9+01501+99999101141ADDGF107991999999999999999999
0029228920999991907061013004+60717+028783FM-12+000399999V0209991C000019999999N0000001N9+02001+99999101161ADDGF101991999999999999999999
0029228920999991907061020004+60717+028783FM-12+000399999V0201101N001019999999N0000001N9+01781+99999101151ADDGF101991999999999999999999
0029228920999991907061106004+60717+028783FM-12+000399999V0209991C000019999999N0000001N9+01831+99999101151ADDGF100991999999999999999999
0029228920999991907061113004+60717+028783FM-12+000399999V0202301N002619999999N0000001N9+02441+99999101071ADDGF101991999999999999999999
0029228920999991907061120004+60717+028783FM-12+000399999V0202901N001019999999N0000001N9+01831+99999101031ADDGF102991999999999999999999
0029228920999991907061206004+60717+028783FM-12+000399999V0200501N001019999999N0000001N9+01721+99999101181ADDGF106991999999999999999999
0029228920999991907061213004+60717+028783FM-12+000399999V0200501N002619999999N0000001N9+02281+99999101361ADDGF102991999999999999999999
0029228920999991907061220004+60717+028783FM-12+000399999V0200701N001019999999N0000001N9+01891+99999101641ADDGF104991999999999999999999
0029228920999991907061306004+60717+028783FM-12+000399999V0200701N001019999999N0000001N9+01781+99999102041ADDGF100991999999999999999999
0029228920999991907061313004+60717+028783FM-12+000399999V0200701N004619999999N0000001N9+02221+99999102031ADDGF100991999999999999999999
0029228920999991907061320004+60717+028783FM-12+000399999V0209991C000019999999N0000001N9+01611+99999102141ADDGF100991999999999999999999
0029228920999991907061406004+60717+028783FM-12+000399999V0200701N001019999999N0000001N9+01671+99999102191ADDGF100991999999999999999999
0029228920999991907061413004+60717+028783FM-12+000399999V0200501N004619999999N0000001N9+02061+99999102041ADDGF100991999999999999999999
0029228920999991907061420004+60717+028783FM-12+000399999V0209991C000019999999N0000001N9+01501+99999101981ADDGF104991999999999999999999
0029228920999991907061506004+60717+028783FM-12+000399999V0200501N006719999999N0000001N9+01671+99999101581ADDGF100991999999999999999999
0029228920999991907061513004+60717+028783FM-12+000399999V0200701N004619999999N0000001N9+02061+99999101471ADDGF108991999999999999999999
0035228920999991907061520004+60717+028783FM-12+000399999V0200501N001019999999N0000001N9+01391+99999101381ADDGF108991999999999999999999MW1621
0029228920999991907061606004+60717+028783FM-12+000399999V0209991C000019999999N0000001N9+01611+99999101281ADDGF108991999999999999999999
0029228920999991907061613004+60717+028783FM-12+000399999V0200701N001019999999N0000001N9+02331+99999101261ADDGF108991999999999999999999
0029228920999991907061620004+60717+028783FM-12+000399999V0209991C000019999999N0000001N9+01671+99999101281ADDGF104991999999999999999999
0029228920999991907061706004+60717+028783FM-12+000399999V0209991C000019999999N0000001N9+01831+99999101381ADDGF104991999999999999999999
0029228920999991907061713004+60717+028783FM-12+000399999V0202001N004619999999N0000001N9+02391+99999101391ADDGF101991999999999999999999
0029228920999991907061720004+60717+028783FM-12+000399999V0202001N001019999999N0000001N9+01671+99999101471ADDGF100991999999999999999999
0029228920999991907061806004+60717+028783FM-12+000399999V0209991C000019999999N0000001N9+01561+99999101521ADDGF108991999999999999999999
0029228920999991907061813004+60717+028783FM-12+000399999V0209991C000019999999N0000001N9+01941+99999101461ADDGF103991999999999999999999
0029228920999991907061820004+60717+028783FM-12+000399999V0202301N001019999999N0000001N9+01611+99999101281ADDGF108991999999999999999999
0029228920999991907061906004+60717+028783FM-12+000399999V0202901N001019999999N0000001N9+01561+99999101161ADDGF102991999999999999999999
0029228920999991907061913004+60717+028783FM-12+000399999V0202001N009319999999N0000001N9+01891+99999101191ADDGF100991999999999999999999
0029228920999991907061920004+60717+028783FM-12+000399999V0202301N002619999999N0000001N9+01501+99999101141ADDGF100991999999999999999999
0029228920999991907062006004+60717+028783FM-12+000399999V0201401N001019999999N0000001N9+01611+99999101121ADDGF100991999999999999999999
0029228920999991907062013004+60717+028783FM-12+000399999V0200701N004619999999N0000001N9+02001+99999100661ADDGF108991999999999999999999
0035228920999991907062020004+60717+028783FM-12+000399999V0200701N004619999999N0000001N9+01221+99999099711ADDGF108991999999999999999999MW1621
0035228920999991907062106004+60717+028783FM-12+000399999V0202301N015419999999N0000001N9+01281+99999100021ADDGF108991999999999999999999MW1621
0029228920999991907062113004+60717+028783FM-12+000399999V0202301N009319999999N0000001N9+01391+99999100551ADDGF108991999999999999999999
0029228920999991907062120004+60717+028783FM-12+000399999V0201801N004619999999N0000001N9+01391+99999100521ADDGF108991999999999999999999
0029228920999991907062206004+60717+028783FM-12+000399999V0201601N006719999999N0000001N9+01721+99999099951ADDGF104991999999999999999999
0029228920999991907062213004+60717+028783FM-12+000399999V0202301N002619999999N0000001N9+01441+99999100031ADDGF108991999999999999999999
0029228920999991907062220004+60717+028783FM-12+000399999V0202301N006719999999N0000001N9+01391+99999100221ADDGF108991999999999999999999
0029228920999991907062306004+60717+028783FM-12+000399999V0202301N009319999999N0000001N9+01391+99999100561ADDGF106991999999999999999999
0029228920999991907062313004+60717+028783FM-12+000399999V0202001N009319999999N0000001N9+01611+99999100941ADDGF100991999999999999999999
0029228920999991907062320004+60717+028783FM-12+000399999V0202001N004619999999N0000001N9+01331+99999101061ADDGF108991999999999999999999
0029228920999991907062406004+60717+028783FM-12+000399999V0201401N002619999999N0000001N9+01781+99999100841ADDGF103991999999999999999999
0029228920999991907062413004+60717+028783FM-12+000399999V0201401N004619999999N0000001N9+01671+99999100801ADDGF106991999999999999999999
0029228920999991907062420004+60717+028783FM-12+000399999V0202301N004619999999N0000001N9+01331+99999101001ADDGF108991999999999999999999
0029228920999991907062506004+60717+028783FM-12+000399999V0202301N004619999999N0000001N9+01391+99999101341ADDGF106991999999999999999999
0000228920999991907062513004+60717+028783FM-12+000399999V02099999999999999999N0000001N9+01831+99999101191
0000228920999991907062520004+60717+028783FM-12+000399999V02099999999999999999N0000001N9+01441+99999101111
0029228920999991907062606004+60717+028783FM-12+000399999V0202001N001019999999N0000001N9+01831+99999100871ADDGF104991999999999999999999
0029228920999991907062613004+60717+028783FM-12+000399999V0201401N001019999999N0000001N9+01781+99999100831ADDGF106991999999999999999999
0029228920999991907062620004+60717+028783FM-12+000399999V0209991C000019999999N0000001N9+01331+99999100821ADDGF108991999999999999999999
0029228920999991907062706004+60717+028783FM-12+000399999V0202301N002619999999N0000001N9+01221+99999100721ADDGF108991999999999999999999
0029228920999991907062713004+60717+028783FM-12+000399999V0200901N001019999999N0000001N9+01501+99999100921ADDGF108991999999999999999999
0029228920999991907062720004+60717+028783FM-12+000399999V0201601N001019999999N0000001N9+01331+99999101181ADDGF100991999999999999999999
0029228920999991907062806004+60717+028783FM-12+000399999V0201801N002619999999N0000001N9+01501+99999101281ADDGF105991999999999999999999
0029228920999991907062813004+60717+028783FM-12+000399999V0202001N004619999999N0000001N9+01941+99999101541ADDGF100991999999999999999999
0029228920999991907062820004+60717+028783FM-12+000399999V0202001N004619999999N0000001N9+01331+99999101581ADDGF100991999999999999999999
0029228920999991907062906004+60717+028783FM-12+000399999V0202001N004619999999N0000001N9+01611+99999101801ADDGF100991999999999999999999
0029228920999991907062913004+60717+028783FM-12+000399999V0202001N004619999999N0000001N9+02221+99999101671ADDGF100991999999999999999999
0029228920999991907062920004+60717+028783FM-12+000399999V0202001N002619999999N0000001N9+01781+99999101511ADDGF102991999999999999999999
0029228920999991907063006004+60717+028783FM-12+000399999V0202001N002619999999N0000001N9+01891+99999101381ADDGF104991999999999999999999
0029228920999991907063013004+60717+028783FM-12+000399999V0202001N001019999999N0000001N9+02331+99999101341ADDGF104991999999999999999999
0029228920999991907063020004+60717+028783FM-12+000399999V0209991C000019999999N0000001N9+01941+99999101231ADDGF100991999999999999999999
0029228920999991907070106004+60717+028783FM-12+000399999V0201601N001019999999N0000001N9+02281+99999101121ADDGF100991999999999999999999
0029228920999991907070113004+60717+028783FM-12+000399999V0202301N002619999999N0000001N9+02671+99999101041ADDGF100991999999999999999999
0029228920999991907070120004+60717+028783FM-12+000399999V0209991C000019999999N0000001N9+02061+99999100981ADDGF100991999999999999999999
0029228920999991907070206004+60717+028783FM-12+000399999V0201401N001019999999N0000001N9+02331+99999100951ADDGF100991999999999999999999
0029228920999991907070213004+60717+028783FM-12+000399999V0202301N002619999999N0000001N9+02781+99999100951ADDGF100991999999999999999999
0029228920999991907070220004+60717+028783FM-12+000399999V0209991C000019999999N0000001N9+02281+99999100901ADDGF100991999999999999999999
0029228920999991907070306004+60717+028783FM-12+000399999V0209991C000019999999N0000001N9+02391+99999100861ADDGF100991999999999999999999
0029228920999991907070313004+60717+028783FM-12+000399999V0201401N004619999999N0000001N9+02721+99999100621ADDGF102991999999999999999999
0029228920999991907070320004+60717+028783FM-12+000399999V0200701N001019999999N0000001N9+01891+99999100561ADDGF102991999999999999999999
0029228920999991907070406004+60717+028783FM-12+000399999V0209991C000019999999N0000001N9+01891+99999100581ADDGF104991999999999999999999
0029228920999991907070413004+60717+028783FM-12+000399999V0202001N006719999999N0000001N9+02221+99999100881ADDGF100991999999999999999999
0029228920999991907070420004+60717+028783FM-12+000399999V0202501N012319999999N0000001N9+01561+99999101431ADDGF100991999999999999999999
0029228920999991907070506004+60717+028783FM-12+000399999V0202001N006719999999N0000001N9+01671+99999101861ADDGF100991999999999999999999
0029228920999991907070513004+60717+028783FM-12+000399999V0202001N009319999999N0000001N9+02001+99999102071ADDGF100991999999999999999999
0029228920999991907070520004+60717+028783FM-12+000399999V0201601N002619999999N0000001N9+01781+99999102071ADDGF100991999999999999999999
0029228920999991907070606004+60717+028783FM-12+000399999V0201601N001019999999N0000001N9+02001+99999102111ADDGF100991999999999999999999
0029228920999991907070613004+60717+028783FM-12+000399999V0202301N002619999999N0000001N9+02441+99999101921ADDGF101991999999999999999999
0029228920999991907070620004+60717+028783FM-12+000399999V0201401N001019999999N0000001N9+02001+99999101681ADDGF104991999999999999999999
0029228920999991907070706004+60717+028783FM-12+000399999V0201401N001019999999N0000001N9+01941+99999101311ADDGF108991999999999999999999
0029228920999991907070713004+60717+028783FM-12+000399999V0202301N004619999999N0000001N9+02281+99999101361ADDGF100991999999999999999999
0029228920999991907070720004+60717+028783FM-12+000399999V0201801N001019999999N0000001N9+01831+99999101421ADDGF100991999999999999999999
0029228920999991907070806004+60717+028783FM-12+000399999V0201401N001019999999N0000001N9+02061+99999101321ADDGF100991999999999999999999
0029228920999991907070813004+60717+028783FM-12+000399999V0200701N006719999999N0000001N9+02391+99999100941ADDGF101991999999999999999999
0029228920999991907070820004+60717+028783FM-12+000399999V0201101N001019999999N0000001N9+01831+99999101031ADDGF101991999999999999999999
0029228920999991907070906004+60717+028783FM-12+000399999V0202501N009319999999N0000001N9+01721+99999101351ADDGF108991999999999999999999
0029228920999991907070913004+60717+028783FM-12+000399999V0202301N009319999999N0000001N9+02061+99999101841ADDGF100991999999999999999999
0029228920999991907070920004+60717+028783FM-12+000399999V0202001N004619999999N0000001N9+01501+99999102021ADDGF102991999999999999999999
0029228920999991907071006004+60717+028783FM-12+000399999V0209991C000019999999N0000001N9+01781+99999102241ADDGF100991999999999999999999
0029228920999991907071013004+60717+028783FM-12+000399999V0202301N002619999999N0000001N9+02331+99999102161ADDGF100991999999999999999999
0029228920999991907071020004+60717+028783FM-12+000399999V0209991C000019999999N0000001N9+01831+99999102081ADDGF100991999999999999999999
0029228920999991907071106004+60717+028783FM-12+000399999V0209991C000019999999N0000001N9+02061+99999102041ADDGF101991999999999999999999
0029228920999991907071113004+60717+028783FM-12+000399999V0202501N002619999999N0000001N9+02561+99999101881ADDGF100991999999999999999999
0029228920999991907071120004+60717+028783FM-12+000399999V0209991C000019999999N0000001N9+02001+99999101831ADDGF100991999999999999999999
0029228920999991907071206004+60717+028783FM-12+000399999V0209991C000019999999N0000001N9+02001+99999101761ADDGF100991999999999999999999
0029228920999991907071213004+60717+028783FM-12+000399999V0202301N002619999999N0000001N9+02671+99999101601ADDGF100991999999999999999999
0029228920999991907071220004+60717+028783FM-12+000399999V0209991C000019999999N0000001N9+02111+99999101501ADDGF100991999999999999999999
0029228920999991907071306004+60717+028783FM-12+000399999V0200501N001019999999N0000001N9+02281+99999101381ADDGF100991999999999999999999
0029228920999991907071313004+60717+028783FM-12+000399999V0200501N004619999999N0000001N9+02831+99999101261ADDGF100991999999999999999999
0029228920999991907071320004+60717+028783FM-12+000399999V0200701N001019999999N0000001N9+02171+99999101221ADDGF100991999999999999999999
0029228920999991907071406004+60717+028783FM-12+000399999V0201101N002619999999N0000001N9+01941+99999101421ADDGF100991999999999999999999
0029228920999991907071413004+60717+028783FM-12+000399999V0200701N006719999999N0000001N9+02501+99999101471ADDGF100991999999999999999999
0029228920999991907071420004+60717+028783FM-12+000399999V0200701N001019999999N0000001N9+02061+99999101671ADDGF102991999999999999999999
0029228920999991907071506004+60717+028783FM-12+000399999V0200701N001019999999N0000001N9+01941+99999101901ADDGF103991999999999999999999
0029228920999991907071513004+60717+028783FM-12+000399999V0200501N002619999999N0000001N9+02611+99999101761ADDGF100991999999999999999999
0029228920999991907071520004+60717+028783FM-12+000399999V0209991C000019999999N0000001N9+02001+99999101581ADDGF100991999999999999999999
0029228920999991907071606004+60717+028783FM-12+000399999V0203401N001019999999N0000001N9+02001+99999101001ADDGF106991999999999999999999
0029228920999991907071613004+60717+028783FM-12+000399999V0203401N006719999999N0000001N9+01781+99999100781ADDGF108991999999999999999999
0029228920999991907071620004+60717+028783FM-12+000399999V0203401N004619999999N0000001N9+01391+99999100761ADDGF102991999999999999999999
0029228920999991907071706004+60717+028783FM-12+000399999V0203201N004619999999N0000001N9+01061+99999100521ADDGF107991999999999999999999
0029228920999991907071713004+60717+028783FM-12+000399999V0203201N009319999999N0000001N9+01391+99999100381ADDGF102991999999999999999999
0029228920999991907071720004+60717+028783FM-12+000399999V0202701N002619999999N0000001N9+01221+99999100181ADDGF108991999999999999999999
0029228920999991907071806004+60717+028783FM-12+000399999V0202301N002619999999N0000001N9+01281+99999100041ADDGF100991999999999999999999
0029228920999991907071813004+60717+028783FM-12+000399999V0202001N006719999999N0000001N9+01611+99999100161ADDGF102991999999999999999999
0029228920999991907071820004+60717+028783FM-12+000399999V0201401N001019999999N0000001N9+01281+99999100311ADDGF104991999999999999999999
0029228920999991907071906004+60717+028783FM-12+000399999V0200701N004619999999N0000001N9+01391+99999100471ADDGF102991999999999999999999
0029228920999991907071913004+60717+028783FM-12+000399999V0200701N009319999999N0000001N9+01941+99999100471ADDGF104991999999999999999999
0029228920999991907071920004+60717+028783FM-12+000399999V0200701N002619999999N0000001N9+01611+99999100401ADDGF108991999999999999999999
0029228920999991907072006004+60717+028783FM-12+000399999V0200701N012319999999N0000001N9+01561+99999100031ADDGF106991999999999999999999
0035228920999991907072013004+60717+028783FM-12+000399999V0200701N009319999999N0000001N9+01281+99999100021ADDGF108991999999999999999999MW1621
0035228920999991907072020004+60717+028783FM-12+000399999V0200701N002619999999N0000001N9+01281+99999100201ADDGF108991999999999999999999MW1621
0035228920999991907072106004+60717+028783FM-12+000399999V0200501N002619999999N0000001N9+01171+99999100151ADDGF108991999999999999999999MW1621
0035228920999991907072113004+60717+028783FM-12+000399999V0200501N001019999999N0000001N9+01281+99999100061ADDGF108991999999999999999999MW1621
0035228920999991907072120004+60717+028783FM-12+000399999V0209991C000019999999N0000001N9+01171+99999099861ADDGF108991999999999999999999MW1621
0029228920999991907072206004+60717+028783FM-12+000399999V0200501N002619999999N0000001N9+01281+99999099781ADDGF108991999999999999999999
0029228920999991907072213004+60717+028783FM-12+000399999V0200501N002619999999N0000001N9+01721+99999099841ADDGF104991999999999999999999
0029228920999991907072220004+60717+028783FM-12+000399999V0200501N001019999999N0000001N9+01331+99999099871ADDGF102991999999999999999999
0029228920999991907072306004+60717+028783FM-12+000399999V0200501N004619999999N0000001N9+01441+99999099881ADDGF107991999999999999999999
0029228920999991907072313004+60717+028783FM-12+000399999V0200501N004619999999N0000001N9+01721+99999999999ADDGF101991999999999999999999
0029228920999991907072320004+60717+028783FM-12+000399999V0209991C000019999999N0000001N9+01441+99999100221ADDGF100991999999999999999999
0029228920999991907072406004+60717+028783FM-12+000399999V0209991C000019999999N0000001N9+01611+99999100381ADDGF100991999999999999999999
0029228920999991907072413004+60717+028783FM-12+000399999V0202301N002619999999N0000001N9+02061+99999100431ADDGF104991999999999999999999
0029228920999991907072420004+60717+028783FM-12+000399999V0209991C000019999999N0000001N9+01561+99999100561ADDGF104991999999999999999999
0029228920999991907072506004+60717+028783FM-12+000399999V0202001N001019999999N0000001N9+01441+99999100621ADDGF108991999999999999999999
0029228920999991907072513004+60717+028783FM-12+000399999V0202301N006719999999N0000001N9+02001+99999100621ADDGF103991999999999999999999
0029228920999991907072520004+60717+028783FM-12+000399999V0202301N001019999999N0000001N9+01441+99999100681ADDGF104991999999999999999999
0029228920999991907072606004+60717+028783FM-12+000399999V0201601N001019999999N0000001N9+01671+99999100711ADDGF106991999999999999999999
0029228920999991907072613004+60717+028783FM-12+000399999V0202001N002619999999N0000001N9+02171+99999100711ADDGF106991999999999999999999
0029228920999991907072620004+60717+028783FM-12+000399999V0209991C000019999999N0000001N9+01561+99999100741ADDGF100991999999999999999999
0029228920999991907072706004+60717+028783FM-12+000399999V0209991C000019999999N0000001N9+01671+99999100841ADDGF100991999999999999999999
0029228920999991907072713004+60717+028783FM-12+000399999V0202001N004619999999N0000001N9+01941+99999100951ADDGF107991999999999999999999
0029228920999991907072720004+60717+028783FM-12+000399999V0202001N002619999999N0000001N9+01561+99999100991ADDGF104991999999999999999999
0029228920999991907072806004+60717+028783FM-12+000399999V0202701N001019999999N0000001N9+01561+99999101141ADDGF107991999999999999999999
0029228920999991907072813004+60717+028783FM-12+000399999V0202001N006719999999N0000001N9+01941+99999101231ADDGF104991999999999999999999
0029228920999991907072820004+60717+028783FM-12+000399999V0201801N001019999999N0000001N9+01501+99999101061ADDGF100991999999999999999999
0029228920999991907072906004+60717+028783FM-12+000399999V0201401N002619999999N0000001N9+01721+99999100821ADDGF104991999999999999999999
0029228920999991907072913004+60717+028783FM-12+000399999V0202001N002619999999N0000001N9+02001+99999100641ADDGF108991999999999999999999
0029228920999991907072920004+60717+028783FM-12+000399999V0202001N004619999999N0000001N9+01561+99999100551ADDGF108991999999999999999999
0029228920999991907073006004+60717+028783FM-12+000399999V0202301N004619999999N0000001N9+01611+99999100541ADDGF106991999999999999999999
0029228920999991907073013004+60717+028783FM-12+000399999V0202001N009319999999N0000001N9+01891+99999100521ADDGF104991999999999999999999
0029228920999991907073020004+60717+028783FM-12+000399999V0202001N002619999999N0000001N9+01441+99999100441ADDGF108991999999999999999999
0035228920999991907073106004+60717+028783FM-12+000399999V0201101N002619999999N0000001N9+01441+99999100071ADDGF108991999999999999999999MW1621
0035228920999991907073113004+60717+028783FM-12+000399999V0201401N006719999999N0000001N9+01831+99999099751ADDGF108991999999999999999999MW1621
0029228920999991907073120004+60717+028783FM-12+000399999V0201601N001019999999N0000001N9+01441+99999099881ADDGF101991999999999999999999
0029228920999991907080106004+60717+028783FM-12+000399999V0201601N001019999999N0000001N9+01611+99999099991ADDGF108991999999999999999999
0029228920999991907080113004+60717+028783FM-12+000399999V0202001N004619999999N0000001N9+01831+99999100161ADDGF102991999999999999999999
0029228920999991907080120004+60717+028783FM-12+000399999V0202301N002619999999N0000001N9+01331+99999100271ADDGF100991999999999999999999
0029228920999991907080206004+60717+028783FM-12+000399999V0209991C000019999999N0000001N9+01331+99999100261ADDGF100991999999999999999999
0029228920999991907080213004+60717+028783FM-12+000399999V0202301N001019999999N0000001N9+01941+99999100181ADDGF102991999999999999999999
0029228920999991907080220004+60717+028783FM-12+000399999V0201601N001019999999N0000001N9+01281+99999100081ADDGF108991999999999999999999
0029228920999991907080306004+60717+028783FM-12+000399999V0201101N001019999999N0000001N9+01441+99999100021ADDGF106991999999999999999999
0035228920999991907080313004+60717+028783FM-12+000399999V0201101N002619999999N0000001N9+01611+99999100101ADDGF108991999999999999999999MW1621
0029228920999991907080320004+60717+028783FM-12+000399999V0203401N001019999999N0000001N9+01441+99999100241ADDGF108991999999999999999999
0029228920999991907080406004+60717+028783FM-12+000399999V0200201N001019999999N0000001N9+01501+99999100441ADDGF102991999999999999999999
0029228920999991907080413004+60717+028783FM-12+000399999V0203401N001019999999N0000001N9+01671+99999100671ADDGF107991999999999999999999
0029228920999991907080420004+60717+028783FM-12+000399999V0209991C000019999999N0000001N9+01331+99999100881ADDGF102991999999999999999999
0029228920999991907080506004+60717+028783FM-12+000399999V0203401N001019999999N0000001N9+01331+99999101101ADDGF106991999999999999999999
0029228920999991907080513004+60717+028783FM-12+000399999V0203401N002619999999N0000001N9+01781+99999101201ADDGF102991999999999999999999
0029228920999991907080520004+60717+028783FM-12+000399999V0209991C000019999999N0000001N9+01441+99999101361ADDGF108991999999999999999999
0029228920999991907080606004+60717+028783FM-12+000399999V0209991C000019999999N0000001N9+01441+99999101541ADDGF100991999999999999999999
0029228920999991907080613004+60717+028783FM-12+000399999V0202001N001019999999N0000001N9+02001+99999101501ADDGF101991999999999999999999
0029228920999991907080620004+60717+028783FM-12+000399999V0201401N001019999999N0000001N9+01331+99999101281ADDGF100991999999999999999999
0029228920999991907080706004+60717+028783FM-12+000399999V0201401N004619999999N0000001N9+01441+99999100471ADDGF108991999999999999999999
0035228920999991907080713004+60717+028783FM-12+000399999V0201401N002619999999N0000001N9+01331+99999100161ADDGF108991999999999999999999MW1621
0029228920999991907080720004+60717+028783FM-12+000399999V0202001N001019999999N0000001N9+01281+99999100121ADDGF100991999999999999999999
0029228920999991907080806004+60717+028783FM-12+000399999V0201601N004619999999N0000001N9+01501+99999999999ADDGF103991999999999999999999
0029228920999991907080813004+60717+028783FM-12+000399999V0202301N006719999999N0000001N9+01831+99999100081ADDGF102991999999999999999999
0029228920999991907080820004+60717+028783FM-12+000399999V0201401N002619999999N0000001N9+01281+99999100141ADDGF101991999999999999999999
0035228920999991907080906004+60717+028783FM-12+000399999V0209991C000019999999N0000001N9+01391+99999100111ADDGF108991999999999999999999MW1621
0029228920999991907080913004+60717+028783FM-12+000399999V0202301N001019999999N0000001N9+01721+99999099981ADDGF108991999999999999999999
0029228920999991907080920004+60717+028783FM-12+000399999V0202001N001019999999N0000001N9+01391+99999099791ADDGF104991999999999999999999
0029228920999991907081006004+60717+028783FM-12+000399999V0202301N001019999999N0000001N9+01281+99999099751ADDGF104991999999999999999999
0000228920999991907081013004+60717+028783FM-12+000399999V02099999999999999999N0000001N9+01781+99999099761
0000228920999991907081020004+60717+028783FM-12+000399999V02099999999999999999N0000001N9+01281+99999099961
0000228920999991907081106004+60717+028783FM-12+000399999V02099999999999999999N0000001N9+01441+99999100121
0035228920999991907081113004+60717+028783FM-12+000399999V0202001N004619999999N0000001N9+01671+99999099991ADDGF108991999999999999999999MW1621
0035228920999991907081120004+60717+028783FM-12+000399999V0202301N004619999999N0000001N9+01331+99999100061ADDGF108991999999999999999999MW1621
0029228920999991907081206004+60717+028783FM-12+000399999V0202501N004619999999N0000001N9+01501+99999100121ADDGF108991999999999999999999
0029228920999991907081213004+60717+028783FM-12+000399999V0202501N004619999999N0000001N9+01391+99999100401ADDGF108991999999999999999999
0029228920999991907081220004+60717+028783FM-12+000399999V0202701N004619999999N0000001N9+01281+99999100681ADDGF102991999999999999999999
0029228920999991907081306004+60717+028783FM-12+000399999V0202301N001019999999N0000001N9+01221+99999100871ADDGF100991999999999999999999
0035228920999991907081313004+60717+028783FM-12+000399999V0201601N001019999999N0000001N9+01391+99999100681ADDGF108991999999999999999999MW1621
0035228920999991907081320004+60717+028783FM-12+000399999V0201801N009319999999N0000001N9+01441+99999100151ADDGF108991999999999999999999MW1621
0035228920999991907081406004+60717+028783FM-12+000399999V0202501N002619999999N0000001N9+01441+99999099861ADDGF108991999999999999999999MW1621
0029228920999991907081413004+60717+028783FM-12+000399999V0203201N002619999999N0000001N9+01391+99999100071ADDGF108991999999999999999999
0029228920999991907081420004+60717+028783FM-12+000399999V0202501N002619999999N0000001N9+01171+99999100221ADDGF104991999999999999999999
0029228920999991907081506004+60717+028783FM-12+000399999V0209991C000019999999N0000001N9+01281+99999100271ADDGF107991999999999999999999
0029228920999991907081513004+60717+028783FM-12+000399999V0202001N002619999999N0000001N9+01561+99999100361ADDGF108991999999999999999999
0029228920999991907081520004+60717+028783FM-12+000399999V0201601N002619999999N0000001N9+01331+99999100401ADDGF108991999999999999999999
0029228920999991907081606004+60717+028783FM-12+000399999V0201401N002619999999N0000001N9+01441+99999100601ADDGF104991999999999999999999
0029228920999991907081613004+60717+028783FM-12+000399999V0201401N002619999999N0000001N9+01831+99999100501ADDGF108991999999999999999999
0035228920999991907081620004+60717+028783FM-12+000399999V0201401N004619999999N0000001N9+01671+99999100281ADDGF108991999999999999999999MW1621
0035228920999991907081706004+60717+028783FM-12+000399999V0202301N002619999999N0000001N9+01441+99999100441ADDGF108991999999999999999999MW1621
0035228920999991907081713004+60717+028783FM-12+000399999V0202001N006719999999N0000001N9+01721+99999100801ADDGF102991999999999999999999MW1621
0035228920999991907081720004+60717+028783FM-12+000399999V0202301N001019999999N0000001N9+01391+99999100951ADDGF108991999999999999999999MW1621
0035228920999991907081806004+60717+028783FM-12+000399999V0209991C000019999999N0000001N9+01221+99999101031ADDGF108991999999999999999999MW1621
0035228920999991907081813004+60717+028783FM-12+000399999V0202001N009319999999N0000001N9+01671+99999101141ADDGF108991999999999999999999MW1621
0035228920999991907081820004+60717+028783FM-12+000399999V0201801N001019999999N0000001N9+01111+99999101111ADDGF100991999999999999999999MW1621
0029228920999991907081906004+60717+028783FM-12+000399999V0202001N009319999999N0000001N9+01501+99999100961ADDGF108991999999999999999999
0029228920999991907081913004+60717+028783FM-12+000399999V0202001N006719999999N0000001N9+01781+99999100981ADDGF102991999999999999999999
0029228920999991907081920004+60717+028783FM-12+000399999V0202001N001019999999N0000001N9+01441+99999100351ADDGF108991999999999999999999
0029228920999991907082006004+60717+028783FM-12+000399999V0202001N015419999999N0000001N9+01441+99999099751ADDGF108991999999999999999999
0029228920999991907082013004+60717+028783FM-12+000399999V0202301N012319999999N0000001N9+01561+99999099821ADDGF104991999999999999999999
0029228920999991907082020004+60717+028783FM-12+000399999V0202301N012319999999N0000001N9+01281+99999099881ADDGF102991999999999999999999
0029228920999991907082106004+60717+028783FM-12+000399999V0202301N009319999999N0000001N9+01331+99999100101ADDGF108991999999999999999999
0029228920999991907082113004+60717+028783FM-12+000399999V0202301N015419999999N0000001N9+01561+99999100321ADDGF104991999999999999999999
0029228920999991907082120004+60717+028783FM-12+000399999V0202301N009319999999N0000001N9+01171+99999100621ADDGF100991999999999999999999
0029228920999991907082206004+60717+028783FM-12+000399999V0202301N006719999999N0000001N9+01281+99999100881ADDGF108991999999999999999999
0029228920999991907082213004+60717+028783FM-12+000399999V0202001N004619999999N0000001N9+01561+99999101041ADDGF108991999999999999999999
0029228920999991907082220004+60717+028783FM-12+000399999V0201801N001019999999N0000001N9+01171+99999100981ADDGF106991999999999999999999
0035228920999991907082306004+60717+028783FM-12+000399999V0209991C000019999999N0000001N9+01331+99999100741ADDGF108991999999999999999999MW1621
0029228920999991907082313004+60717+028783FM-12+000399999V0202301N004619999999N0000001N9+01721+99999100621ADDGF104991999999999999999999
0029228920999991907082320004+60717+028783FM-12+000399999V0209991C000019999999N0000001N9+01001+99999100511ADDGF100991999999999999999999
0029228920999991907082406004+60717+028783FM-12+000399999V0201401N002619999999N0000001N9+01171+99999100151ADDGF100991999999999999999999
0029228920999991907082413004+60717+028783FM-12+000399999V0201401N002619999999N0000001N9+01671+99999099831ADDGF106991999999999999999999
0035228920999991907082420004+60717+028783FM-12+000399999V0201601N002619999999N0000001N9+01221+99999099641ADDGF108991999999999999999999MW1621
0035228920999991907082506004+60717+028783FM-12+000399999V0201601N004619999999N0000001N9+01111+99999099241ADDGF108991999999999999999999MW1621
0035228920999991907082513004+60717+028783FM-12+000399999V0202301N004619999999N0000001N9+01281+99999099521ADDGF108991999999999999999999MW1621
0029228920999991907082520004+60717+028783FM-12+000399999V0202501N012319999999N0000001N9+01111+99999099831ADDGF108991999999999999999999
0029228920999991907082606004+60717+028783FM-12+000399999V0202501N012319999999N0000001N9+01061+99999099981ADDGF108991999999999999999999
0029228920999991907082613004+60717+028783FM-12+000399999V0202301N015419999999N0000001N9+01501+99999100041ADDGF101991999999999999999999
0029228920999991907082620004+60717+028783FM-12+000399999V0209991C000019999999N0000001N9+00941+99999099911ADDGF101991999999999999999999
0035228920999991907082706004+60717+028783FM-12+000399999V0202701N006719999999N0000001N9+00941+99999100111ADDGF108991999999999999999999MW1621
0035228920999991907082713004+60717+028783FM-12+000399999V0202501N009319999999N0000001N9+01171+99999100321ADDGF108991999999999999999999MW1621
0029228920999991907082720004+60717+028783FM-12+000399999V0202501N006719999999N0000001N9+00941+99999100621ADDGF103991999999999999999999
0035228920999991907082806004+60717+028783FM-12+000399999V0202501N002619999999N0000001N9+00891+99999100841ADDGF108991999999999999999999MW1621
0029228920999991907082813004+60717+028783FM-12+000399999V0202301N006719999999N0000001N9+01391+99999100841ADDGF107991999999999999999999
0029228920999991907082820004+60717+028783FM-12+000399999V0202301N001019999999N0000001N9+00941+99999100841ADDGF107991999999999999999999
0029228920999991907082906004+60717+028783FM-12+000399999V0203401N001019999999N0000001N9+00941+99999101271ADDGF107991999999999999999999
0035228920999991907082913004+60717+028783FM-12+000399999V0203401N002619999999N0000001N9+01171+99999101591ADDGF106991999999999999999999MW1621
0029228920999991907082920004+60717+028783FM-12+000399999V0202901N001019999999N0000001N9+00831+99999101861ADDGF100991999999999999999999
0029228920999991907083006004+60717+028783FM-12+000399999V0209991C000019999999N0000001N9+00721+99999102111ADDGF100991999999999999999999
0029228920999991907083013004+60717+028783FM-12+000399999V0202001N004619999999N0000001N9+01501+99999101991ADDGF100991999999999999999999
0029228920999991907083020004+60717+028783FM-12+000399999V0201401N001019999999N0000001N9+01061+99999101711ADDGF102991999999999999999999
0029228920999991907083106004+60717+028783FM-12+000399999V0201601N002619999999N0000001N9+01281+99999101311ADDGF108991999999999999999999
0029228920999991907083113004+60717+028783FM-12+000399999V0202001N006719999999N0000001N9+01441+99999101241ADDGF108991999999999999999999
0029228920999991907083120004+60717+028783FM-12+000399999V0202001N002619999999N0000001N9+01111+99999101221ADDGF100991999999999999999999
0029228920999991907090106004+60717+028783FM-12+000399999V0202301N004619999999N0000001N9+01331+99999101151ADDGF106991999999999999999999
0029228920999991907090113004+60717+028783FM-12+000399999V0202001N002619999999N0000001N9+01441+99999100961ADDGF101991999999999999999999
0029228920999991907090120004+60717+028783FM-12+000399999V0201401N001019999999N0000001N9+01221+99999100241ADDGF100991999999999999999999
0029228920999991907090206004+60717+028783FM-12+000399999V0202301N015419999999N0000001N9+01221+99999099791ADDGF106991999999999999999999
0029228920999991907090213004+60717+028783FM-12+000399999V0202301N015419999999N0000001N9+01331+99999100321ADDGF106991999999999999999999
0029228920999991907090220004+60717+028783FM-12+000399999V0202301N012319999999N0000001N9+01001+99999101071ADDGF100991999999999999999999
0029228920999991907090306004+60717+028783FM-12+000399999V0209991C000019999999N0000001N9+01061+99999101831ADDGF100991999999999999999999
0029228920999991907090313004+60717+028783FM-12+000399999V0202001N002619999999N0000001N9+01441+99999101831ADDGF104991999999999999999999
