0029228920999991906010113004+60717+028783FM-12+000399999V0202301N006719999999N0000001N9-00331+99999102511ADDGF108991999999999999999999
0035228920999991906010120004+60717+028783FM-12+000399999V0202301N002619999999N0000001N9-00061+99999102551ADDGF108991999999999999999999MW1701
0029228920999991906010206004+60717+028783FM-12+000399999V0202701N004619999999N0000001N9-00221+99999102551ADDGF108991999999999999999999
0029228920999991906010213004+60717+028783FM-12+000399999V0202701N006719999999N0000001N9-00221+99999102541ADDGF108991999999999999999999
0029228920999991906010220004+60717+028783FM-12+000399999V0202701N002619999999N0000001N9-00281+99999102441ADDGF108991999999999999999999
0029228920999991906010306004+60717+028783FM-12+000399999V0202901N006719999999N0000001N9-00331+99999102321ADDGF108991999999999999999999
0029228920999991906010313004+60717+028783FM-12+000399999V0202701N002619999999N0000001N9-00331+99999102341ADDGF108991999999999999999999
0029228920999991906010320004+60717+028783FM-12+000399999V0202701N002619999999N0000001N9-00721+99999102421ADDGF108991999999999999999999
0029228920999991906010406004+60717+028783FM-12+000399999V0202501N002619999999N0000001N9-00781+99999102401ADDGF108991999999999999999999
0029228920999991906010413004+60717+028783FM-12+000399999V0202301N001019999999N0000001N9-01061+99999102431ADDGF108991999999999999999999
0035228920999991906010420004+60717+028783FM-12+000399999V0202301N001019999999N0000001N9-00501+99999102361ADDGF100991999999999999999999MW1481
0029228920999991906010506004+60717+028783FM-12+000399999V0201401N002619999999N0000001N9-00941+99999101841ADDGF108991999999999999999999
0029228920999991906010513004+60717+028783FM-12+000399999V0201401N002619999999N0000001N9-00561+99999101621ADDGF108991999999999999999999
0029228920999991906010520004+60717+028783FM-12+000399999V0201801N001019999999N0000001N9-00501+99999101521ADDGF108991999999999999999999
0029228920999991906010606004+60717+028783FM-12+000399999V0201801N002619999999N0000001N9-00501+99999101191ADDGF108991999999999999999999
0029228920999991906010613004+60717+028783FM-12+000399999V0201401N002619999999N0000001N9-00561+99999100841ADDGF108991999999999999999999
0035228920999991906010620004+60717+028783FM-12+000399999V0201601N001019999999N0000001N9-00561+99999100741ADDGF108991999999999999999999MW1741
0029228920999991906010706004+60717+028783FM-12+000399999V0201601N001019999999N0000001N9-00221+99999100641ADDGF108991999999999999999999
0029228920999991906010713004+60717+028783FM-12+000399999V0201601N002619999999N0000001N9-00111+99999100721ADDGF108991999999999999999999
0029228920999991906010720004+60717+028783FM-12+000399999V0201401N002619999999N0000001N9-00171+99999100701ADDGF108991999999999999999999
0029228920999991906010806004+60717+028783FM-12+000399999V0201801N006719999999N0000001N9-00061+99999100601ADDGF108991999999999999999999
0029228920999991906010813004+60717+028783FM-12+000399999V0201601N002619999999N0000001N9+00001+99999100681ADDGF108991999999999999999999
0029228920999991906010820004+60717+028783FM-12+000399999V0201601N004619999999N0000001N9+00061+99999100951ADDGF108991999999999999999999
0029228920999991906010906004+60717+028783FM-12+000399999V0201401N002619999999N0000001N9-00331+99999101341ADDGF108991999999999999999999
0029228920999991906010913004+60717+028783FM-12+000399999V0201401N002619999999N0000001N9-00331+99999101401ADDGF108991999999999999999999
0029228920999991906010920004+60717+028783FM-12+000399999V0201101N002619999999N0000001N9-00281+99999101201ADDGF108991999999999999999999
0035228920999991906011006004+60717+028783FM-12+000399999V0201401N004619999999N0000001N9-00611+99999100801ADDGF108991999999999999999999MW1721
0035228920999991906011013004+60717+028783FM-12+000399999V0201401N001019999999N0000001N9-00501+99999100751ADDGF108991999999999999999999MW1721
0029228920999991906011020004+60717+028783FM-12+000399999V0201401N001019999999N0000001N9-00441+99999100801ADDGF108991999999999999999999
0029228920999991906011106004+60717+028783FM-12+000399999V0201401N001019999999N0000001N9-00281+99999101101ADDGF108991999999999999999999
0029228920999991906011113004+60717+028783FM-12+000399999V0201401N001019999999N0000001N9-00221+99999101121ADDGF108991999999999999999999
0029228920999991906011120004+60717+028783FM-12+000399999V0201401N001019999999N0000001N9-00281+99999101111ADDGF108991999999999999999999
0029228920999991906011206004+60717+028783FM-12+000399999V0203601N001019999999N0000001N9-00281+99999100901ADDGF108991999999999999999999
0035228920999991906011213004+60717+028783FM-12+000399999V0209991C000019999999N0000001N9-00281+99999100831ADDGF108991999999999999999999MW1721
0029228920999991906011220004+60717+028783FM-12+000399999V0209991C000019999999N0000001N9-00391+99999100821ADDGF108991999999999999999999
0029228920999991906011306004+60717+028783FM-12+000399999V0200901N002619999999N0000001N9-00391+99999100501ADDGF108991999999999999999999
0035228920999991906011313004+60717+028783FM-12+000399999V0200901N001019999999N0000001N9-00281+99999100271ADDGF108991999999999999999999MW1741
0029228920999991906011320004+60717+028783FM-12+000399999V0200901N001019999999N0000001N9-00221+99999099951ADDGF108991999999999999999999
0029228920999991906011406004+60717+028783FM-12+000399999V0201801N001019999999N0000001N9-00061+99999099681ADDGF108991999999999999999999
0035228920999991906011413004+60717+028783FM-12+000399999V0201801N001019999999N0000001N9+00061+99999099781ADDGF108991999999999999999999MW1741
0029228920999991906011420004+60717+028783FM-12+000399999V0201801N002619999999N0000001N9-00061+99999099961ADDGF108991999999999999999999
0029228920999991906011506004+60717+028783FM-12+000399999V0203201N002619999999N0000001N9-00501+99999100661ADDGF108991999999999999999999
0029228920999991906011513004+60717+028783FM-12+000399999V0203201N001019999999N0000001N9-00441+99999101351ADDGF108991999999999999999999
0029228920999991906011520004+60717+028783FM-12+000399999V0201801N001019999999N0000001N9-00441+99999101821ADDGF108991999999999999999999
0029228920999991906011606004+60717+028783FM-12+000399999V0202001N001019999999N0000001N9-00391+99999101841ADDGF108991999999999999999999
0029228920999991906011613004+60717+028783FM-12+000399999V0201801N002619999999N0000001N9-00171+99999101831ADDGF108991999999999999999999
0029228920999991906011620004+60717+028783FM-12+000399999V0201801N002619999999N0000001N9+00061+99999101501ADDGF108991999999999999999999
0035228920999991906011706004+60717+028783FM-12+000399999V0201801N004619999999N0000001N9+00171+99999101111ADDGF108991999999999999999999MW1601
0029228920999991906011713004+60717+028783FM-12+000399999V0202301N006719999999N0000001N9+00171+99999101141ADDGF108991999999999999999999
0035228920999991906011720004+60717+028783FM-12+000399999V0201601N012319999999N0000001N9+00111+99999100201ADDGF108991999999999999999999MW1741
0029228920999991906011806004+60717+028783FM-12+000399999V0201801N004619999999N0000001N9+00111+99999099271ADDGF108991999999999999999999
0029228920999991906011813004+60717+028783FM-12+000399999V0202301N012319999999N0000001N9+00111+99999099361ADDGF108991999999999999999999
0035228920999991906011820004+60717+028783FM-12+000399999V0202301N006719999999N0000001N9+00061+99999099521ADDGF108991999999999999999999MW1741
0029228920999991906011906004+60717+028783FM-12+000399999V0202701N002619999999N0000001N9-00111+99999099901ADDGF108991999999999999999999
0029228920999991906011913004+60717+028783FM-12+000399999V0200901N001019999999N0000001N9-00111+99999099921ADDGF108991999999999999999999
0035228920999991906011920004+60717+028783FM-12+000399999V0200701N002619999999N0000001N9+00001+99999099511ADDGF108991999999999999999999MW1741
0029228920999991906012006004+60717+028783FM-12+000399999V0203601N006719999999N0000001N9-00221+99999099261ADDGF108991999999999999999999
0029228920999991906012013004+60717+028783FM-12+000399999V0203601N006719999999N0000001N9-00281+99999099831ADDGF108991999999999999999999
0029228920999991906012020004+60717+028783FM-12+000399999V0203401N004619999999N0000001N9-00941+99999100431ADDGF108991999999999999999999
0029228920999991906012106004+60717+028783FM-12+000399999V0202901N004619999999N0000001N9-00891+99999100621ADDGF108991999999999999999999
0029228920999991906012113004+60717+028783FM-12+000399999V0202901N001019999999N0000001N9-00831+99999100821ADDGF100991999999999999999999
0029228920999991906012120004+60717+028783FM-12+000399999V0202901N001019999999N0000001N9-01001+99999100941ADDGF108991999999999999999999
0029228920999991906012206004+60717+028783FM-12+000399999V0203201N001019999999N0000001N9-01171+99999101341ADDGF101991999999999999999999
0035228920999991906012213004+60717+028783FM-12+000399999V0203201N001019999999N0000001N9-00721+99999101631ADDGF108991999999999999999999MW1701
0029228920999991906012220004+60717+028783FM-12+000399999V0203601N001019999999N0000001N9-01061+99999102071ADDGF108991999999999999999999
0029228920999991906012306004+60717+028783FM-12+000399999V0203601N001019999999N0000001N9-01391+99999102621ADDGF100991999999999999999999
0029228920999991906012313004+60717+028783FM-12+000399999V0203601N002619999999N0000001N9-01281+99999102951ADDGF100991999999999999999999
0029228920999991906012320004+60717+028783FM-12+000399999V0203601N001019999999N0000001N9-01721+99999103071ADDGF100991999999999999999999
0029228920999991906012406004+60717+028783FM-12+000399999V0201401N002619999999N0000001N9-01281+99999102921ADDGF108991999999999999999999
0035228920999991906012413004+60717+028783FM-12+000399999V0201401N006719999999N0000001N9-00941+99999102601ADDGF108991999999999999999999MW1701
0029228920999991906012420004+60717+028783FM-12+000399999V0202001N015419999999N0000001N9-00441+99999102071ADDGF108991999999999999999999
0029228920999991906012506004+60717+028783FM-12+000399999V0202001N019019999999N0000001N9-00061+99999101461ADDGF108991999999999999999999
0029228920999991906012513004+60717+028783FM-12+000399999V0202001N012319999999N0000001N9-00061+99999101341ADDGF108991999999999999999999
0029228920999991906012520004+60717+028783FM-12+000399999V0202001N012319999999N0000001N9-00331+99999101281ADDGF108991999999999999999999
0029228920999991906012606004+60717+028783FM-12+000399999V0201801N006719999999N0000001N9-00831+99999100981ADDGF108991999999999999999999
0029228920999991906012613004+60717+028783FM-12+000399999V0201401N009319999999N0000001N9-01061+99999100701ADDGF108991999999999999999999
0029228920999991906012620004+60717+028783FM-12+000399999V0201801N006719999999N0000001N9-01001+99999100271ADDGF108991999999999999999999
0029228920999991906012706004+60717+028783FM-12+000399999V0201801N019019999999N0000001N9-00281+99999098941ADDGF108991999999999999999999
0029228920999991906012713004+60717+028783FM-12+000399999V0202301N019019999999N0000001N9+00061+99999097641ADDGF108991999999999999999999
0029228920999991906012720004+60717+028783FM-12+000399999V0202001N002619999999N0000001N9+00001+99999097711ADDGF101991999999999999999999
0029228920999991906012806004+60717+028783FM-12+000399999V0202701N006719999999N0000001N9+00061+99999098551ADDGF108991999999999999999999
0029228920999991906012813004+60717+028783FM-12+000399999V0202301N009319999999N0000001N9+00001+99999098781ADDGF101991999999999999999999
0029228920999991906012820004+60717+028783FM-12+000399999V0201401N006719999999N0000001N9-00061+99999097721ADDGF108991999999999999999999
0029228920999991906012906004+60717+028783FM-12+000399999V0202901N004619999999N0000001N9-00111+99999098441ADDGF108991999999999999999999
0029228920999991906012913004+60717+028783FM-12+000399999V0202701N002619999999N0000001N9-00111+99999099221ADDGF107991999999999999999999
0029228920999991906012920004+60717+028783FM-12+000399999V0202501N002619999999N0000001N9-00111+99999099391ADDGF108991999999999999999999
0029228920999991906013006004+60717+028783FM-12+000399999V0201801N001019999999N0000001N9-01331+99999099601ADDGF108991999999999999999999
0029228920999991906013013004+60717+028783FM-12+000399999V0209991C000019999999N0000001N9-00891+99999099831ADDGF100991999999999999999999
0029228920999991906013020004+60717+028783FM-12+000399999V0209991C000019999999N0000001N9-01171+99999100101ADDGF100991999999999999999999
0029228920999991906013106004+60717+028783FM-12+000399999V0203401N001019999999N0000001N9-01441+99999100721ADDGF100991999999999999999999
0029228920999991906013113004+60717+028783FM-12+000399999V0209991C000019999999N0000001N9-01281+99999101071ADDGF107991999999999999999999
0029228920999991906013120004+60717+028783FM-12+000399999V0202301N001019999999N0000001N9-00721+99999100661ADDGF108991999999999999999999
0029228920999991906020106004+60717+028783FM-12+000399999V0202501N001019999999N0000001N9-01671+99999100831ADDGF100991999999999999999999
0035228920999991906020113004+60717+028783FM-12+000399999V0201401N002619999999N0000001N9-01001+99999100281ADDGF108991999999999999999999MW1721
0035228920999991906020120004+60717+028783FM-12+000399999V0201401N004619999999N0000001N9-00441+99999099361ADDGF108991999999999999999999MW1721
0029228920999991906020206004+60717+028783FM-12+000399999V0209991C000019999999N0000001N9-00391+99999099191ADDGF108991999999999999999999
0029228920999991906020213004+60717+028783FM-12+000399999V0201401N001019999999N0000001N9-00281+99999099141ADDGF108991999999999999999999
0035228920999991906020220004+60717+028783FM-12+000399999V0201401N004619999999N0000001N9-00061+99999098941ADDGF108991999999999999999999MW1741
0029228920999991906020306004+60717+028783FM-12+000399999V0201401N001019999999N0000001N9+00061+99999098991ADDGF108991999999999999999999
0029228920999991906020313004+60717+028783FM-12+000399999V0201401N002619999999N0000001N9+00171+99999099261ADDGF108991999999999999999999
0029228920999991906020320004+60717+028783FM-12+000399999V0201401N001019999999N0000001N9+00111+99999099511ADDGF108991999999999999999999
0029228920999991906020406004+60717+028783FM-12+000399999V0201401N001019999999N0000001N9+00061+99999100081ADDGF108991999999999999999999
0035228920999991906020413004+60717+028783FM-12+000399999V0201401N001019999999N0000001N9+00111+99999100631ADDGF108991999999999999999999MW1741
0029228920999991906020420004+60717+028783FM-12+000399999V0201401N002619999999N0000001N9-00061+99999101041ADDGF108991999999999999999999
0035228920999991906020506004+60717+028783FM-12+000399999V0201401N004619999999N0000001N9-00061+99999101591ADDGF108991999999999999999999MW1701
0035228920999991906020513004+60717+028783FM-12+000399999V0202301N002619999999N0000001N9+00061+99999102061ADDGF108991999999999999999999MW1701
0029228920999991906020520004+60717+028783FM-12+000399999V0202001N002619999999N0000001N9-00221+99999102541ADDGF108991999999999999999999
0029228920999991906020606004+60717+028783FM-12+000399999V0202301N009319999999N0000001N9-00111+99999102591ADDGF108991999999999999999999
0029228920999991906020613004+60717+028783FM-12+000399999V0202301N009319999999N0000001N9-00281+99999102591ADDGF108991999999999999999999
0029228920999991906020620004+60717+028783FM-12+000399999V0202301N006719999999N0000001N9-00561+99999102381ADDGF108991999999999999999999
0029228920999991906020706004+60717+028783FM-12+000399999V0201801N006719999999N0000001N9-00781+99999101981ADDGF108991999999999999999999
0035228920999991906020713004+60717+028783FM-12+000399999V0201801N004619999999N0000001N9-00831+99999101671ADDGF108991999999999999999999MW1721
0029228920999991906020720004+60717+028783FM-12+000399999V0201601N002619999999N0000001N9-00721+99999101191ADDGF108991999999999999999999
0029228920999991906020806004+60717+028783FM-12+000399999V0201601N002619999999N0000001N9-00331+99999100471ADDGF108991999999999999999999
0029228920999991906020813004+60717+028783FM-12+000399999V0202301N006719999999N0000001N9-00111+99999100261ADDGF106991999999999999999999
0029228920999991906020820004+60717+028783FM-12+000399999V0201801N002619999999N0000001N9-00441+99999100361ADDGF102991999999999999999999
0029228920999991906020906004+60717+028783FM-12+000399999V0201801N006719999999N0000001N9-00721+99999100401ADDGF104991999999999999999999
0035228920999991906020913004+60717+028783FM-12+000399999V0201401N006719999999N0000001N9-00391+99999100381ADDGF108991999999999999999999MW1721
0035228920999991906020920004+60717+028783FM-12+000399999V0201601N002619999999N0000001N9-00221+99999100061ADDGF108991999999999999999999MW1721
0035228920999991906021006004+60717+028783FM-12+000399999V0201401N001019999999N0000001N9-00171+99999100061ADDGF108991999999999999999999MW1721
0029228920999991906021013004+60717+028783FM-12+000399999V0201401N004619999999N0000001N9-00111+99999999999ADDGF108991999999999999999999
0029228920999991906021020004+60717+028783FM-12+000399999V0201401N002619999999N0000001N9-00281+99999100141ADDGF108991999999999999999999
0029228920999991906021106004+60717+028783FM-12+000399999V0202301N001019999999N0000001N9-00441+99999100701ADDGF108991999999999999999999
0029228920999991906021113004+60717+028783FM-12+000399999V0201801N001019999999N0000001N9-00331+99999101141ADDGF108991999999999999999999
0029228920999991906021120004+60717+028783FM-12+000399999V0201401N001019999999N0000001N9-00441+99999101431ADDGF108991999999999999999999
0029228920999991906021206004+60717+028783FM-12+000399999V0201401N001019999999N0000001N9-00831+99999101701ADDGF107991999999999999999999
0029228920999991906021213004+60717+028783FM-12+000399999V0201601N002619999999N0000001N9-00331+99999101911ADDGF108991999999999999999999
0029228920999991906021220004+60717+028783FM-12+000399999V0201601N002619999999N0000001N9-00781+99999102141ADDGF108991999999999999999999
0029228920999991906021306004+60717+028783FM-12+000399999V0209991C000019999999N0000001N9-00721+99999102281ADDGF108991999999999999999999
0029228920999991906021313004+60717+028783FM-12+000399999V0201401N002619999999N0000001N9-00281+99999102101ADDGF108991999999999999999999
0029228920999991906021320004+60717+028783FM-12+000399999V0201401N002619999999N0000001N9-00501+99999101991ADDGF108991999999999999999999
0029228920999991906021406004+60717+028783FM-12+000399999V0201101N002619999999N0000001N9-00441+99999101921ADDGF108991999999999999999999
0029228920999991906021413004+60717+028783FM-12+000399999V0201401N001019999999N0000001N9-00331+99999101951ADDGF108991999999999999999999
0029228920999991906021420004+60717+028783FM-12+000399999V0201401N002619999999N0000001N9-00391+99999102021ADDGF108991999999999999999999
0029228920999991906021506004+60717+028783FM-12+000399999V0201401N001019999999N0000001N9-00281+99999102111ADDGF108991999999999999999999
0029228920999991906021513004+60717+028783FM-12+000399999V0201401N004619999999N0000001N9+00001+99999102281ADDGF108991999999999999999999
0029228920999991906021520004+60717+028783FM-12+000399999V0201401N002619999999N0000001N9-00171+99999102401ADDGF108991999999999999999999
0029228920999991906021606004+60717+028783FM-12+000399999V0201401N002619999999N0000001N9-00331+99999102311ADDGF108991999999999999999999
0029228920999991906021613004+60717+028783FM-12+000399999V0201601N004619999999N0000001N9-00111+99999102401ADDGF108991999999999999999999
0029228920999991906021620004+60717+028783FM-12+000399999V0201801N002619999999N0000001N9+00001+99999102401ADDGF108991999999999999999999
0029228920999991906021706004+60717+028783FM-12+000399999V0201801N002619999999N0000001N9-00221+99999102401ADDGF108991999999999999999999
0029228920999991906021713004+60717+028783FM-12+000399999V0201801N002619999999N0000001N9-00281+99999102301ADDGF108991999999999999999999
0029228920999991906021720004+60717+028783FM-12+000399999V0201801N006719999999N0000001N9-00561+99999102161ADDGF108991999999999999999999
0029228920999991906021806004+60717+028783FM-12+000399999V0201601N006719999999N0000001N9+00611+99999101721ADDGF108991999999999999999999
0029228920999991906021813004+60717+028783FM-12+000399999V0201801N012319999999N0000001N9-00501+99999101621ADDGF108991999999999999999999
0035228920999991906021820004+60717+028783FM-12+000399999V0201801N004619999999N0000001N9-00391+99999101361ADDGF108991999999999999999999MW1741
0029228920999991906021906004+60717+028783FM-12+000399999V0202301N006719999999N0000001N9-00061+99999101151ADDGF108991999999999999999999
0029228920999991906021913004+60717+028783FM-12+000399999V0202301N004619999999N0000001N9+00111+99999101231ADDGF108991999999999999999999
0029228920999991906021920004+60717+028783FM-12+000399999V0202301N001019999999N0000001N9-00171+99999101281ADDGF108991999999999999999999
0029228920999991906022006004+60717+028783FM-12+000399999V0209991C000019999999N0000001N9-00941+99999101471ADDGF108991999999999999999999
0029228920999991906022013004+60717+028783FM-12+000399999V0201401N002619999999N0000001N9-00501+99999101711ADDGF100991999999999999999999
0029228920999991906022020004+60717+028783FM-12+000399999V0202301N001019999999N0000001N9-01331+99999101721ADDGF100991999999999999999999
0029228920999991906022106004+60717+028783FM-12+000399999V0202501N001019999999N0000001N9-01561+99999101751ADDGF108991999999999999999999
0029228920999991906022113004+60717+028783FM-12+000399999V0209991C000019999999N0000001N9-01001+99999101761ADDGF100991999999999999999999
0029228920999991906022120004+60717+028783FM-12+000399999V0202701N002619999999N0000001N9-00781+99999101881ADDGF106991999999999999999999
0029228920999991906022206004+60717+028783FM-12+000399999V0201601N002619999999N0000001N9-00561+99999101581ADDGF108991999999999999999999
0029228920999991906022213004+60717+028783FM-12+000399999V0201801N006719999999N0000001N9-00391+99999101441ADDGF105991999999999999999999
0029228920999991906022220004+60717+028783FM-12+000399999V0201801N002619999999N0000001N9-00611+99999101201ADDGF100991999999999999999999
0029228920999991906022306004+60717+028783FM-12+000399999V0201401N004619999999N0000001N9-00611+99999101001ADDGF108991999999999999999999
0035228920999991906022313004+60717+028783FM-12+000399999V0200901N006719999999N0000001N9-00391+99999101151ADDGF108991999999999999999999MW1721
0029228920999991906022320004+60717+028783FM-12+000399999V0200701N009319999999N0000001N9-00721+99999101481ADDGF108991999999999999999999
0029228920999991906022406004+60717+028783FM-12+000399999V0200901N006719999999N0000001N9-01391+99999102071ADDGF108991999999999999999999
0029228920999991906022413004+60717+028783FM-12+000399999V0200901N006719999999N0000001N9-00831+99999102421ADDGF108991999999999999999999
0029228920999991906022420004+60717+028783FM-12+000399999V0201101N006719999999N0000001N9-01281+99999102661ADDGF108991999999999999999999
0035228920999991906022506004+60717+028783FM-12+000399999V0200901N004619999999N0000001N9-01501+99999102541ADDGF108991999999999999999999MW1721
0035228920999991906022513004+60717+028783FM-12+000399999V0200901N006719999999N0000001N9-01111+99999102111ADDGF108991999999999999999999MW1721
0035228920999991906022520004+60717+028783FM-12+000399999V0200901N006719999999N0000001N9-00611+99999101431ADDGF108991999999999999999999MW1721
0029228920999991906022606004+60717+028783FM-12+000399999V0201401N009319999999N0000001N9-00781+99999100911ADDGF108991999999999999999999
0000228920999991906022613004+60717+028783FM-12+000399999V02099999999999999999N0000001N9-00671+99999100551
0029228920999991906022620004+60717+028783FM-12+000399999V0201401N002619999999N0000001N9-00671+99999100341ADDGF108991999999999999999999
0035228920999991906022706004+60717+028783FM-12+000399999V0201401N004619999999N0000001N9-00561+99999099871ADDGF108991999999999999999999MW1701
0029228920999991906022713004+60717+028783FM-12+000399999V0201401N001019999999N0000001N9-00171+99999099711ADDGF108991999999999999999999
0029228920999991906022720004+60717+028783FM-12+000399999V0201401N002619999999N0000001N9+00001+99999099641ADDGF108991999999999999999999
0035228920999991906022806004+60717+028783FM-12+000399999V0201401N001019999999N0000001N9-00061+99999099511ADDGF108991999999999999999999MW1721
0029228920999991906022813004+60717+028783FM-12+000399999V0201801N002619999999N0000001N9+00171+99999099551ADDGF108991999999999999999999
0035228920999991906022820004+60717+028783FM-12+000399999V0201801N002619999999N0000001N9+00061+99999099431ADDGF108991999999999999999999MW1721
0029228920999991906030106004+60717+028783FM-12+000399999V0202301N001019999999N0000001N9-00221+99999099141ADDGF108991999999999999999999
0029228920999991906030113004+60717+028783FM-12+000399999V0202301N002619999999N0000001N9-00111+99999099101ADDGF105991999999999999999999
0029228920999991906030120004+60717+028783FM-12+000399999V0202001N001019999999N0000001N9+00001+99999098901ADDGF108991999999999999999999
0029228920999991906030206004+60717+028783FM-12+000399999V0200901N001019999999N0000001N9-00391+99999098441ADDGF108991999999999999999999
0029228920999991906030213004+60717+028783FM-12+000399999V0200901N002619999999N0000001N9-00171+99999098221ADDGF108991999999999999999999
0029228920999991906030220004+60717+028783FM-12+000399999V0200901N001019999999N0000001N9-00501+99999098241ADDGF108991999999999999999999
0029228920999991906030306004+60717+028783FM-12+000399999V0203601N001019999999N0000001N9-01331+99999098661ADDGF108991999999999999999999
0029228920999991906030313004+60717+028783FM-12+000399999V0203601N004619999999N0000001N9-00501+99999099161ADDGF106991999999999999999999
0029228920999991906030320004+60717+028783FM-12+000399999V0203201N006719999999N0000001N9-00561+99999099871ADDGF108991999999999999999999
0029228920999991906030406004+60717+028783FM-12+000399999V0202901N002619999999N0000001N9-01111+99999100481ADDGF106991999999999999999999
0029228920999991906030413004+60717+028783FM-12+000399999V0202901N002619999999N0000001N9-00721+99999100681ADDGF108991999999999999999999
0035228920999991906030420004+60717+028783FM-12+000399999V0201601N002619999999N0000001N9-00781+99999100141ADDGF108991999999999999999999MW1721
0029228920999991906030506004+60717+028783FM-12+000399999V0203201N012319999999N0000001N9-00391+99999098261ADDGF103991999999999999999999
0029228920999991906030513004+60717+028783FM-12+000399999V0203401N012319999999N0000001N9+00221+99999099201ADDGF100991999999999999999999
0029228920999991906030520004+60717+028783FM-12+000399999V0203601N002619999999N0000001N9-00331+99999100271ADDGF100991999999999999999999
0029228920999991906030606004+60717+028783FM-12+000399999V0201401N001019999999N0000001N9-00781+99999999999ADDGF108991999999999999999999
0035228920999991906030613004+60717+028783FM-12+000399999V0201401N004619999999N0000001N9-00111+99999099391ADDGF108991999999999999999999MW1721
0035228920999991906030620004+60717+028783FM-12+000399999V0202301N002619999999N0000001N9+00061+99999098841ADDGF108991999999999999999999MW1721
0029228920999991906030706004+60717+028783FM-12+000399999V0202501N004619999999N0000001N9-00281+99999098701ADDGF100991999999999999999999
0029228920999991906030713004+60717+028783FM-12+000399999V0202901N009319999999N0000001N9+00391+99999098721ADDGF101991999999999999999999
0029228920999991906030720004+60717+028783FM-12+000399999V0203201N004619999999N0000001N9-00111+99999099151ADDGF100991999999999999999999
0035228920999991906030806004+60717+028783FM-12+000399999V0201401N001019999999N0000001N9-00721+99999097941ADDGF108991999999999999999999MW1741
0029228920999991906030813004+60717+028783FM-12+000399999V0202701N009319999999N0000001N9+00391+99999097901ADDGF101991999999999999999999
0029228920999991906030820004+60717+028783FM-12+000399999V0202001N002619999999N0000001N9-00061+99999097821ADDGF108991999999999999999999
0035228920999991906030906004+60717+028783FM-12+000399999V0201801N001019999999N0000001N9+00001+99999096601ADDGF108991999999999999999999MW1741
0029228920999991906030913004+60717+028783FM-12+000399999V0202301N004619999999N0000001N9+00391+99999096541ADDGF108991999999999999999999
0029228920999991906030920004+60717+028783FM-12+000399999V0202001N002619999999N0000001N9-00061+99999096591ADDGF108991999999999999999999
0029228920999991906031006004+60717+028783FM-12+000399999V0203401N004619999999N0000001N9-00721+99999097061ADDGF108991999999999999999999
0029228920999991906031013004+60717+028783FM-12+000399999V0203601N002619999999N0000001N9-00561+99999097701ADDGF108991999999999999999999
0029228920999991906031020004+60717+028783FM-12+000399999V0203601N009319999999N0000001N9-01001+99999098581ADDGF108991999999999999999999
0029228920999991906031106004+60717+028783FM-12+000399999V0203601N006719999999N0000001N9-01281+99999099681ADDGF108991999999999999999999
0029228920999991906031113004+60717+028783FM-12+000399999V0203201N004619999999N0000001N9-00891+99999100521ADDGF100991999999999999999999
0029228920999991906031120004+60717+028783FM-12+000399999V0203401N001019999999N0000001N9-01831+99999100821ADDGF100991999999999999999999
0029228920999991906031206004+60717+028783FM-12+000399999V0201401N001019999999N0000001N9-01941+99999100721ADDGF108991999999999999999999
0029228920999991906031213004+60717+028783FM-12+000399999V0201401N006719999999N0000001N9-00561+99999100241ADDGF108991999999999999999999
0029228920999991906031220004+60717+028783FM-12+000399999V0201401N019019999999N0000001N9-00781+99999099501ADDGF108991999999999999999999
0029228920999991906031306004+60717+028783FM-12+000399999V0201401N009319999999N0000001N9-00391+99999098681ADDGF108991999999999999999999
0029228920999991906031313004+60717+028783FM-12+000399999V0201401N004619999999N0000001N9-00111+99999098671ADDGF108991999999999999999999
0035228920999991906031320004+60717+028783FM-12+000399999V0201401N002619999999N0000001N9-00171+99999098471ADDGF108991999999999999999999MW1701
0029228920999991906031406004+60717+028783FM-12+000399999V0202301N006719999999N0000001N9-00331+99999098661ADDGF105991999999999999999999
0029228920999991906031413004+60717+028783FM-12+000399999V0202301N006719999999N0000001N9-00061+99999099191ADDGF100991999999999999999999
0029228920999991906031420004+60717+028783FM-12+000399999V0202301N001019999999N0000001N9-00501+99999099471ADDGF100991999999999999999999
0029228920999991906031506004+60717+028783FM-12+000399999V0209991C000019999999N0000001N9-01561+99999099881ADDGF100991999999999999999999
0029228920999991906031513004+60717+028783FM-12+000399999V0201101N001019999999N0000001N9-00061+99999100121ADDGF100991999999999999999999
0029228920999991906031520004+60717+028783FM-12+000399999V0200501N001019999999N0000001N9-00941+99999100391ADDGF100991999999999999999999
0029228920999991906031606004+60717+028783FM-12+000399999V0209991C000019999999N0000001N9-01611+99999100431ADDGF101991999999999999999999
0029228920999991906031613004+60717+028783FM-12+000399999V0209991C000019999999N0000001N9-00111+99999100241ADDGF101991999999999999999999
0029228920999991906031620004+60717+028783FM-12+000399999V0200701N001019999999N0000001N9-00441+99999100311ADDGF100991999999999999999999
0029228920999991906031706004+60717+028783FM-12+000399999V0209991C000019999999N0000001N9-00941+99999100641ADDGF108991999999999999999999
0029228920999991906031713004+60717+028783FM-12+000399999V0200501N002619999999N0000001N9-00171+99999100751ADDGF108991999999999999999999
0029228920999991906031720004+60717+028783FM-12+000399999V0201801N001019999999N0000001N9-00671+99999100701ADDGF108991999999999999999999
0029228920999991906031806004+60717+028783FM-12+000399999V0201401N004619999999N0000001N9-00781+99999099701ADDGF108991999999999999999999
0029228920999991906031813004+60717+028783FM-12+000399999V0200701N006719999999N0000001N9-00281+99999099031ADDGF108991999999999999999999
0035228920999991906031820004+60717+028783FM-12+000399999V0200501N006719999999N0000001N9-00281+99999098791ADDGF108991999999999999999999MW1701
0035228920999991906031906004+60717+028783FM-12+000399999V0203601N004619999999N0000001N9-00391+99999098831ADDGF108991999999999999999999MW1721
0035228920999991906031913004+60717+028783FM-12+000399999V0203601N006719999999N0000001N9-00171+99999098921ADDGF108991999999999999999999MW1721
0029228920999991906031920004+60717+028783FM-12+000399999V0203601N006719999999N0000001N9-00111+99999099161ADDGF108991999999999999999999
0035228920999991906032006004+60717+028783FM-12+000399999V0201401N001019999999N0000001N9-00441+99999099671ADDGF108991999999999999999999MW1701
0035228920999991906032013004+60717+028783FM-12+000399999V0201401N006719999999N0000001N9-00391+99999100301ADDGF108991999999999999999999MW1701
0029228920999991906032020004+60717+028783FM-12+000399999V0200501N006719999999N0000001N9-00941+99999100701ADDGF101991999999999999999999
0029228920999991906032106004+60717+028783FM-12+000399999V0200901N004619999999N0000001N9-00671+99999101021ADDGF108991999999999999999999
0029228920999991906032113004+60717+028783FM-12+000399999V0200701N006719999999N0000001N9-00221+99999101351ADDGF104991999999999999999999
0029228920999991906032120004+60717+028783FM-12+000399999V0200501N002619999999N0000001N9-00611+99999101401ADDGF108991999999999999999999
0035228920999991906032206004+60717+028783FM-12+000399999V0203601N002619999999N0000001N9-00671+99999101281ADDGF108991999999999999999999MW1701
0029228920999991906032213004+60717+028783FM-12+000399999V0203401N006719999999N0000001N9+00171+99999101151ADDGF102991999999999999999999
0029228920999991906032220004+60717+028783FM-12+000399999V0203401N001019999999N0000001N9-00611+99999101281ADDGF100991999999999999999999
0029228920999991906032306004+60717+028783FM-12+000399999V0209991C000019999999N0000001N9-01171+99999101501ADDGF100991999999999999999999
0029228920999991906032313004+60717+028783FM-12+000399999V0202301N006719999999N0000001N9-00171+99999101381ADDGF100991999999999999999999
0029228920999991906032320004+60717+028783FM-12+000399999V0202301N002619999999N0000001N9-00891+99999101221ADDGF100991999999999999999999
0035228920999991906032406004+60717+028783FM-12+000399999V0201801N001019999999N0000001N9-00561+99999101001ADDGF108991999999999999999999MW1701
0029228920999991906032413004+60717+028783FM-12+000399999V0209991C000019999999N0000001N9+00171+99999101041ADDGF108991999999999999999999
0029228920999991906032420004+60717+028783FM-12+000399999V0200901N002619999999N0000001N9-00061+99999100991ADDGF108991999999999999999999
0029228920999991906032506004+60717+028783FM-12+000399999V0200901N002619999999N0000001N9-00221+99999100551ADDGF108991999999999999999999
0029228920999991906032513004+60717+028783FM-12+000399999V0200701N006719999999N0000001N9-00111+99999100241ADDGF108991999999999999999999
0035228920999991906032520004+60717+028783FM-12+000399999V0200201N004619999999N0000001N9-00221+99999099781ADDGF108991999999999999999999MW1741
0029228920999991906032606004+60717+028783FM-12+000399999V0200501N009319999999N0000001N9-00331+99999099721ADDGF108991999999999999999999
0035228920999991906032613004+60717+028783FM-12+000399999V0200201N002619999999N0000001N9-00281+99999099911ADDGF108991999999999999999999MW1741
0029228920999991906032620004+60717+028783FM-12+000399999V0203601N002619999999N0000001N9-00501+99999099761ADDGF108991999999999999999999
0029228920999991906032706004+60717+028783FM-12+000399999V0203601N001019999999N0000001N9-00941+99999099641ADDGF108991999999999999999999
0029228920999991906032713004+60717+028783FM-12+000399999V0202901N002619999999N0000001N9-00331+99999099951ADDGF108991999999999999999999
0029228920999991906032720004+60717+028783FM-12+000399999V0202001N001019999999N0000001N9-00941+99999099951ADDGF108991999999999999999999
0029228920999991906032806004+60717+028783FM-12+000399999V0209991C000019999999N0000001N9-00891+99999099781ADDGF102991999999999999999999
0029228920999991906032813004+60717+028783FM-12+000399999V0201801N006719999999N0000001N9-00391+99999099481ADDGF100991999999999999999999
0029228920999991906032820004+60717+028783FM-12+000399999V0201801N002619999999N0000001N9-00501+99999098961ADDGF108991999999999999999999
0035228920999991906032906004+60717+028783FM-12+000399999V0202301N001019999999N0000001N9-00111+99999098551ADDGF108991999999999999999999MW1721
0029228920999991906032913004+60717+028783FM-12+000399999V0202301N002619999999N0000001N9+00391+99999099031ADDGF102991999999999999999999
0029228920999991906032920004+60717+028783FM-12+000399999V0200501N004619999999N0000001N9-00221+99999099421ADDGF108991999999999999999999
0029228920999991906033006004+60717+028783FM-12+000399999V0203601N002619999999N0000001N9-00671+99999100071ADDGF108991999999999999999999
0029228920999991906033013004+60717+028783FM-12+000399999V0203601N004619999999N0000001N9+00501+99999100421ADDGF100991999999999999999999
0029228920999991906033020004+60717+028783FM-12+000399999V0203601N002619999999N0000001N9-01171+99999100701ADDGF100991999999999999999999
0029228920999991906033106004+60717+028783FM-12+000399999V0203601N001019999999N0000001N9-01671+99999100821ADDGF100991999999999999999999
0029228920999991906033113004+60717+028783FM-12+000399999V0202001N004619999999N0000001N9-00441+99999100591ADDGF108991999999999999999999
0035228920999991906033120004+60717+028783FM-12+000399999V0201401N006719999999N0000001N9-00561+99999100221ADDGF108991999999999999999999MW1701
0029228920999991906040106004+60717+028783FM-12+000399999V0201101N002619999999N0000001N9-00391+99999100421ADDGF108991999999999999999999
0029228920999991906040113004+60717+028783FM-12+000399999V0209991C000019999999N0000001N9-00171+99999101301ADDGF108991999999999999999999
0035228920999991906040120004+60717+028783FM-12+000399999V0209991C000019999999N0000001N9-00331+99999102041ADDGF108991999999999999999999MW1721
0029228920999991906040206004+60717+028783FM-12+000399999V0209991C000019999999N0000001N9-00671+99999102481ADDGF101991999999999999999999
0029228920999991906040213004+60717+028783FM-12+000399999V0202001N009319999999N0000001N9-00061+99999102441ADDGF100991999999999999999999
0029228920999991906040220004+60717+028783FM-12+000399999V0202301N002619999999N0000001N9-00441+99999102511ADDGF100991999999999999999999
0029228920999991906040306004+60717+028783FM-12+000399999V0202001N001019999999N0000001N9-00611+99999102641ADDGF105991999999999999999999
0029228920999991906040313004+60717+028783FM-12+000399999V0202701N004619999999N0000001N9+00781+99999102541ADDGF100991999999999999999999
0029228920999991906040320004+60717+028783FM-12+000399999V0202301N001019999999N0000001N9-00111+99999102441ADDGF100991999999999999999999
0029228920999991906040406004+60717+028783FM-12+000399999V0202001N001019999999N0000001N9-00331+99999102391ADDGF100991999999999999999999
0029228920999991906040413004+60717+028783FM-12+000399999V0202001N004619999999N0000001N9+00391+99999102311ADDGF100991999999999999999999
0029228920999991906040420004+60717+028783FM-12+000399999V0209991C000019999999N0000001N9-00111+99999102421ADDGF100991999999999999999999
0029228920999991906040506004+60717+028783FM-12+000399999V0202001N002619999999N0000001N9-00441+99999102601ADDGF105991999999999999999999
0029228920999991906040513004+60717+028783FM-12+000399999V0202001N002619999999N0000001N9+00221+99999102631ADDGF106991999999999999999999
0029228920999991906040520004+60717+028783FM-12+000399999V0202001N004619999999N0000001N9-00281+99999102641ADDGF108991999999999999999999
0029228920999991906040606004+60717+028783FM-12+000399999V0202301N002619999999N0000001N9-00281+99999102671ADDGF108991999999999999999999
0029228920999991906040613004+60717+028783FM-12+000399999V0202001N004619999999N0000001N9+00111+99999102741ADDGF108991999999999999999999
0029228920999991906040620004+60717+028783FM-12+000399999V0202301N002619999999N0000001N9-00281+99999102831ADDGF108991999999999999999999
0029228920999991906040706004+60717+028783FM-12+000399999V0209991C000019999999N0000001N9-00611+99999103111ADDGF100991999999999999999999
0029228920999991906040713004+60717+028783FM-12+000399999V0202001N002619999999N0000001N9+00441+99999103191ADDGF100991999999999999999999
0029228920999991906040720004+60717+028783FM-12+000399999V0209991C000019999999N0000001N9-00061+99999103001ADDGF100991999999999999999999
0029228920999991906040806004+60717+028783FM-12+000399999V0202001N004619999999N0000001N9-00221+99999102721ADDGF100991999999999999999999
0029228920999991906040813004+60717+028783FM-12+000399999V0202001N009319999999N0000001N9+00331+99999102311ADDGF100991999999999999999999
0029228920999991906040820004+60717+028783FM-12+000399999V0202301N002619999999N0000001N9+00221+99999101981ADDGF104991999999999999999999
0029228920999991906040906004+60717+028783FM-12+000399999V0203201N006719999999N0000001N9+00171+99999102261ADDGF100991999999999999999999
0029228920999991906040913004+60717+028783FM-12+000399999V0202901N006719999999N0000001N9+00611+99999102221ADDGF100991999999999999999999
0029228920999991906040920004+60717+028783FM-12+000399999V0202501N002619999999N0000001N9+00281+99999101801ADDGF102991999999999999999999
0029228920999991906041006004+60717+028783FM-12+000399999V0202701N004619999999N0000001N9+00281+99999101511ADDGF100991999999999999999999
0029228920999991906041013004+60717+028783FM-12+000399999V0202901N006719999999N0000001N9+01001+99999101641ADDGF100991999999999999999999
0029228920999991906041020004+60717+028783FM-12+000399999V0202901N002619999999N0000001N9+00501+99999101781ADDGF100991999999999999999999
0029228920999991906041106004+60717+028783FM-12+000399999V0202501N002619999999N0000001N9+00171+99999101621ADDGF100991999999999999999999
0029228920999991906041113004+60717+028783FM-12+000399999V0202701N012319999999N0000001N9+01171+99999101241ADDGF100991999999999999999999
0029228920999991906041120004+60717+028783FM-12+000399999V0202701N012319999999N0000001N9+00721+99999101281ADDGF100991999999999999999999
0029228920999991906041206004+60717+028783FM-12+000399999V0203201N012319999999N0000001N9+00171+99999102271ADDGF100991999999999999999999
0029228920999991906041213004+60717+028783FM-12+000399999V0203401N006719999999N0000001N9+00441+99999102741ADDGF100991999999999999999999
0029228920999991906041220004+60717+028783FM-12+000399999V0209991C000019999999N0000001N9+00171+99999102901ADDGF108991999999999999999999
0029228920999991906041306004+60717+028783FM-12+000399999V0202001N002619999999N0000001N9+00111+99999102701ADDGF100991999999999999999999
0029228920999991906041313004+60717+028783FM-12+000399999V0202001N006719999999N0000001N9+00391+99999102271ADDGF100991999999999999999999
0029228920999991906041320004+60717+028783FM-12+000399999V0202001N004619999999N0000001N9+00221+99999102041ADDGF100991999999999999999999
0029228920999991906041406004+60717+028783FM-12+000399999V0202001N002619999999N0000001N9+00391+99999101761ADDGF104991999999999999999999
0029228920999991906041413004+60717+028783FM-12+000399999V0202001N006719999999N0000001N9+00611+99999101671ADDGF104991999999999999999999
0029228920999991906041420004+60717+028783FM-12+000399999V0202001N002619999999N0000001N9+00281+99999101701ADDGF102991999999999999999999
0035228920999991906041506004+60717+028783FM-12+000399999V0209991C000019999999N0000001N9+00281+99999101701ADDGF108991999999999999999999MW1601
0029228920999991906041513004+60717+028783FM-12+000399999V0209991C000019999999N0000001N9+00611+99999101441ADDGF100991999999999999999999
0029228920999991906041520004+60717+028783FM-12+000399999V0202001N002619999999N0000001N9+00171+99999101181ADDGF108991999999999999999999
0029228920999991906041606004+60717+028783FM-12+000399999V0202001N012319999999N0000001N9+00221+99999100301ADDGF108991999999999999999999
0029228920999991906041613004+60717+028783FM-12+000399999V0202001N009319999999N0000001N9+00441+99999100511ADDGF108991999999999999999999
0029228920999991906041620004+60717+028783FM-12+000399999V0202301N004619999999N0000001N9+00171+99999101111ADDGF101991999999999999999999
0029228920999991906041706004+60717+028783FM-12+000399999V0202001N002619999999N0000001N9+00001+99999101951ADDGF100991999999999999999999
0029228920999991906041713004+60717+028783FM-12+000399999V0209991C000019999999N0000001N9+00561+99999101801ADDGF108991999999999999999999
0029228920999991906041720004+60717+028783FM-12+000399999V0201101N002619999999N0000001N9+00111+99999101071ADDGF106991999999999999999999
0029228920999991906041806004+60717+028783FM-12+000399999V0201801N002619999999N0000001N9+00331+99999100671ADDGF100991999999999999999999
0029228920999991906041813004+60717+028783FM-12+000399999V0202001N002619999999N0000001N9+00561+99999100831ADDGF106991999999999999999999
0029228920999991906041820004+60717+028783FM-12+000399999V0202701N001019999999N0000001N9+00221+99999100881ADDGF108991999999999999999999
0035228920999991906041906004+60717+028783FM-12+000399999V0209991C000019999999N0000001N9+00221+99999100881ADDGF108991999999999999999999MW1621
0035228920999991906041913004+60717+028783FM-12+000399999V0209991C000019999999N0000001N9+00281+99999100941ADDGF108991999999999999999999MW1601
0029228920999991906041920004+60717+028783FM-12+000399999V0200201N002619999999N0000001N9+00221+99999101481ADDGF108991999999999999999999
0029228920999991906042006004+60717+028783FM-12+000399999V0200901N006719999999N0000001N9+00221+99999100991ADDGF108991999999999999999999
0029228920999991906042013004+60717+028783FM-12+000399999V0200501N001019999999N0000001N9+00611+99999100551ADDGF106991999999999999999999
0029228920999991906042020004+60717+028783FM-12+000399999V0201401N002619999999N0000001N9+01001+99999100161ADDGF108991999999999999999999
0035228920999991906042106004+60717+028783FM-12+000399999V0202001N009319999999N0000001N9+00331+99999100121ADDGF108991999999999999999999MW1601
0029228920999991906042113004+60717+028783FM-12+000399999V0202001N006719999999N0000001N9+00331+99999100671ADDGF106991999999999999999999
0029228920999991906042120004+60717+028783FM-12+000399999V0202001N004619999999N0000001N9+00331+99999101021ADDGF108991999999999999999999
0029228920999991906042206004+60717+028783FM-12+000399999V0201601N004619999999N0000001N9+00331+99999101081ADDGF108991999999999999999999
0029228920999991906042213004+60717+028783FM-12+000399999V0201801N006719999999N0000001N9+00781+99999101061ADDGF108991999999999999999999
0029228920999991906042220004+60717+028783FM-12+000399999V0201601N002619999999N0000001N9+00561+99999100961ADDGF104991999999999999999999
0029228920999991906042306004+60717+028783FM-12+000399999V0209991C000019999999N0000001N9+00611+99999100881ADDGF108991999999999999999999
0029228920999991906042313004+60717+028783FM-12+000399999V0201401N002619999999N0000001N9+01221+99999100721ADDGF108991999999999999999999
0029228920999991906042320004+60717+028783FM-12+000399999V0209991C000019999999N0000001N9+00721+99999100541ADDGF108991999999999999999999
0035228920999991906042406004+60717+028783FM-12+000399999V0202301N006719999999N0000001N9+00171+99999100471ADDGF108991999999999999999999MW1601
0029228920999991906042413004+60717+028783FM-12+000399999V0202001N009319999999N0000001N9+00501+99999101071ADDGF100991999999999999999999
0029228920999991906042420004+60717+028783FM-12+000399999V0209991C000019999999N0000001N9+00171+99999101471ADDGF106991999999999999999999
0029228920999991906042506004+60717+028783FM-12+000399999V0202001N002619999999N0000001N9+00331+99999101941ADDGF104991999999999999999999
0029228920999991906042513004+60717+028783FM-12+000399999V0202001N001019999999N0000001N9+00781+99999102001ADDGF100991999999999999999999
0029228920999991906042520004+60717+028783FM-12+000399999V0200901N001019999999N0000001N9+00391+99999101911ADDGF108991999999999999999999
0029228920999991906042606004+60717+028783FM-12+000399999V0200501N006719999999N0000001N9+00391+99999101501ADDGF108991999999999999999999
0029228920999991906042613004+60717+028783FM-12+000399999V0200701N006719999999N0000001N9+01171+99999100951ADDGF100991999999999999999999
0029228920999991906042620004+60717+028783FM-12+000399999V0200901N001019999999N0000001N9+00831+99999100591ADDGF100991999999999999999999
0029228920999991906042706004+60717+028783FM-12+000399999V0209991C000019999999N0000001N9+01171+99999100301ADDGF100991999999999999999999
0029228920999991906042713004+60717+028783FM-12+000399999V0201401N004619999999N0000001N9+01941+99999100181ADDGF104991999999999999999999
0029228920999991906042720004+60717+028783FM-12+000399999V0201401N001019999999N0000001N9+01501+99999100081ADDGF108991999999999999999999
0029228920999991906042806004+60717+028783FM-12+000399999V0209991C000019999999N0000001N9+01281+99999099681ADDGF104991999999999999999999
0035228920999991906042813004+60717+028783FM-12+000399999V0201101N002619999999N0000001N9+01221+99999099321ADDGF108991999999999999999999MW1601
0035228920999991906042820004+60717+028783FM-12+000399999V0201601N006719999999N0000001N9+00441+99999099381ADDGF108991999999999999999999MW1601
0029228920999991906042906004+60717+028783FM-12+000399999V0202001N006719999999N0000001N9+00221+99999100791ADDGF108991999999999999999999
0029228920999991906042913004+60717+028783FM-12+000399999V0202301N006719999999N0000001N9+00281+99999101441ADDGF108991999999999999999999
0029228920999991906042920004+60717+028783FM-12+000399999V0209991C000019999999N0000001N9+00221+99999101431ADDGF100991999999999999999999
0029228920999991906043006004+60717+028783FM-12+000399999V0209991C000019999999N0000001N9+00671+99999101621ADDGF100991999999999999999999
0029228920999991906043013004+60717+028783FM-12+000399999V0200901N006719999999N0000001N9+01781+99999101511ADDGF100991999999999999999999
0029228920999991906043020004+60717+028783FM-12+000399999V0200501N002619999999N0000001N9+01061+99999101351ADDGF100991999999999999999999
0029228920999991906050106004+60717+028783FM-12+000399999V0201101N004619999999N0000001N9+01281+99999101031ADDGF104991999999999999999999
0029228920999991906050113004+60717+028783FM-12+000399999V0201801N006719999999N0000001N9+01781+99999100951ADDGF106991999999999999999999
0035228920999991906050120004+60717+028783FM-12+000399999V0209991C000019999999N0000001N9+01281+99999101391ADDGF108991999999999999999999MW1601
0029228920999991906050206004+60717+028783FM-12+000399999V0209991C000019999999N0000001N9+01171+99999101761ADDGF104991999999999999999999
0029228920999991906050213004+60717+028783FM-12+000399999V0202001N002619999999N0000001N9+01501+99999101821ADDGF100991999999999999999999
0029228920999991906050220004+60717+028783FM-12+000399999V0209991C000019999999N0000001N9+00891+99999102101ADDGF100991999999999999999999
0029228920999991906050306004+60717+028783FM-12+000399999V0209991C000019999999N0000001N9+01171+99999102311ADDGF108991999999999999999999
0029228920999991906050313004+60717+028783FM-12+000399999V0201401N006719999999N0000001N9+02331+99999102111ADDGF100991999999999999999999
0029228920999991906050320004+60717+028783FM-12+000399999V0201401N002619999999N0000001N9+01721+99999102191ADDGF100991999999999999999999
0029228920999991906050406004+60717+028783FM-12+000399999V0201401N001019999999N0000001N9+01671+99999102551ADDGF100991999999999999999999
0029228920999991906050413004+60717+028783FM-12+000399999V0202001N002619999999N0000001N9+02061+99999102781ADDGF100991999999999999999999
0029228920999991906050420004+60717+028783FM-12+000399999V0209991C000019999999N0000001N9+01611+99999102831ADDGF100991999999999999999999
0029228920999991906050506004+60717+028783FM-12+000399999V0209991C000019999999N0000001N9+01281+99999102871ADDGF104991999999999999999999
0029228920999991906050513004+60717+028783FM-12+000399999V0202001N002619999999N0000001N9+02441+99999102821ADDGF100991999999999999999999
0029228920999991906050520004+60717+028783FM-12+000399999V0202301N002619999999N0000001N9+01721+99999102781ADDGF106991999999999999999999
0029228920999991906050606004+60717+028783FM-12+000399999V0209991C000019999999N0000001N9+01561+99999102801ADDGF100991999999999999999999
0029228920999991906050613004+60717+028783FM-12+000399999V0202301N002619999999N0000001N9+01501+99999102821ADDGF100991999999999999999999
0029228920999991906050620004+60717+028783FM-12+000399999V0202301N002619999999N0000001N9+01111+99999102831ADDGF100991999999999999999999
0029228920999991906050706004+60717+028783FM-12+000399999V0202001N001019999999N0000001N9+01281+99999102841ADDGF100991999999999999999999
0029228920999991906050713004+60717+028783FM-12+000399999V0202001N004619999999N0000001N9+01671+99999102591ADDGF100991999999999999999999
0029228920999991906050720004+60717+028783FM-12+000399999V0202001N002619999999N0000001N9+01061+99999102381ADDGF100991999999999999999999
0029228920999991906050806004+60717+028783FM-12+000399999V0202001N004619999999N0000001N9+01221+99999102151ADDGF100991999999999999999999
0029228920999991906050813004+60717+028783FM-12+000399999V0202001N006719999999N0000001N9+01831+99999101761ADDGF100991999999999999999999
0029228920999991906050820004+60717+028783FM-12+000399999V0201801N001019999999N0000001N9+01171+99999101701ADDGF100991999999999999999999
0029228920999991906050906004+60717+028783FM-12+000399999V0202001N002619999999N0000001N9+01171+99999101681ADDGF100991999999999999999999
0029228920999991906050913004+60717+028783FM-12+000399999V0202301N006719999999N0000001N9+01671+99999101591ADDGF101991999999999999999999
0029228920999991906050920004+60717+028783FM-12+000399999V0202301N002619999999N0000001N9+01221+99999101511ADDGF104991999999999999999999
0029228920999991906051006004+60717+028783FM-12+000399999V0202001N001019999999N0000001N9+01331+99999101481ADDGF100991999999999999999999
0029228920999991906051013004+60717+028783FM-12+000399999V0202301N002619999999N0000001N9+02331+99999101321ADDGF100991999999999999999999
0029228920999991906051020004+60717+028783FM-12+000399999V0209991C000019999999N0000001N9+01611+99999101351ADDGF108991999999999999999999
0029228920999991906051106004+60717+028783FM-12+000399999V0201801N001019999999N0000001N9+01611+99999101021ADDGF108991999999999999999999
0029228920999991906051113004+60717+028783FM-12+000399999V0202301N002619999999N0000001N9+02001+99999101001ADDGF100991999999999999999999
0029228920999991906051120004+60717+028783FM-12+000399999V0209991C000019999999N0000001N9+01331+99999100961ADDGF107991999999999999999999
0029228920999991906051206004+60717+028783FM-12+000399999V0202001N006719999999N0000001N9+01111+99999101101ADDGF100991999999999999999999
0029228920999991906051213004+60717+028783FM-12+000399999V0202501N012319999999N0000001N9+01391+99999101221ADDGF107991999999999999999999
0029228920999991906051220004+60717+028783FM-12+000399999V0202701N002619999999N0000001N9+01001+99999101381ADDGF100991999999999999999999
0029228920999991906051306004+60717+028783FM-12+000399999V0203201N006719999999N0000001N9+00501+99999101871ADDGF104991999999999999999999
0029228920999991906051313004+60717+028783FM-12+000399999V0203401N006719999999N0000001N9+00831+99999102151ADDGF100991999999999999999999
0029228920999991906051320004+60717+028783FM-12+000399999V0209991C000019999999N0000001N9+00501+99999102221ADDGF100991999999999999999999
0029228920999991906051406004+60717+028783FM-12+000399999V0209991C000019999999N0000001N9+00611+99999102671ADDGF100991999999999999999999
0029228920999991906051413004+60717+028783FM-12+000399999V0209991C000019999999N0000001N9+01111+99999102431ADDGF100991999999999999999999
0029228920999991906051420004+60717+028783FM-12+000399999V0201101N002619999999N0000001N9+00671+99999102261ADDGF100991999999999999999999
0029228920999991906051506004+60717+028783FM-12+000399999V0201101N002619999999N0000001N9+00831+99999101951ADDGF100991999999999999999999
0029228920999991906051513004+60717+028783FM-12+000399999V0201401N002619999999N0000001N9+01721+99999101381ADDGF101991999999999999999999
0029228920999991906051520004+60717+028783FM-12+000399999V0209991C000019999999N0000001N9+01111+99999101151ADDGF100991999999999999999999
0029228920999991906051606004+60717+028783FM-12+000399999V0209991C000019999999N0000001N9+01391+99999100951ADDGF108991999999999999999999
0029228920999991906051613004+60717+028783FM-12+000399999V0200701N001019999999N0000001N9+02001+99999100871ADDGF101991999999999999999999
0029228920999991906051620004+60717+028783FM-12+000399999V0209991C000019999999N0000001N9+01501+99999100871ADDGF104991999999999999999999
0029228920999991906051706004+60717+028783FM-12+000399999V0200901N002619999999N0000001N9+01501+99999100901ADDGF100991999999999999999999
0029228920999991906051713004+60717+028783FM-12+000399999V0202301N002619999999N0000001N9+02561+99999100821ADDGF102991999999999999999999
0029228920999991906051720004+60717+028783FM-12+000399999V0209991C000019999999N0000001N9+01941+99999100841ADDGF108991999999999999999999
0029228920999991906051806004+60717+028783FM-12+000399999V0209991C000019999999N0000001N9+02061+99999101111ADDGF100991999999999999999999
0029228920999991906051813004+60717+028783FM-12+000399999V0202301N002619999999N0000001N9+02671+99999101121ADDGF100991999999999999999999
0029228920999991906051820004+60717+028783FM-12+000399999V0209991C000019999999N0000001N9+01941+99999101001ADDGF100991999999999999999999
0029228920999991906051906004+60717+028783FM-12+000399999V0202001N002619999999N0000001N9+02061+99999100921ADDGF100991999999999999999999
0029228920999991906051913004+60717+028783FM-12+000399999V0202001N002619999999N0000001N9+02441+99999100711ADDGF100991999999999999999999
0029228920999991906051920004+60717+028783FM-12+000399999V0209991C000019999999N0000001N9+02111+99999100501ADDGF107991999999999999999999
0029228920999991906052006004+60717+028783FM-12+000399999V0201601N002619999999N0000001N9+02061+99999100221ADDGF100991999999999999999999
0029228920999991906052013004+60717+028783FM-12+000399999V0201801N006719999999N0000001N9+02501+99999100021ADDGF101991999999999999999999
0029228920999991906052020004+60717+028783FM-12+000399999V0201401N002619999999N0000001N9+01671+99999099751ADDGF108991999999999999999999
0029228920999991906052106004+60717+028783FM-12+000399999V0202001N006719999999N0000001N9+01831+99999099981ADDGF102991999999999999999999
0029228920999991906052113004+60717+028783FM-12+000399999V0202301N002619999999N0000001N9+02001+99999100441ADDGF101991999999999999999999
0029228920999991906052120004+60717+028783FM-12+000399999V0203601N002619999999N0000001N9+01001+99999100951ADDGF108991999999999999999999
0029228920999991906052206004+60717+028783FM-12+000399999V0200201N002619999999N0000001N9+00941+99999101101ADDGF108991999999999999999999
0035228920999991906052213004+60717+028783FM-12+000399999V0200201N004619999999N0000001N9+00891+99999101201ADDGF108991999999999999999999MW1621
0029228920999991906052220004+60717+028783FM-12+000399999V0200201N001019999999N0000001N9+00891+99999101221ADDGF108991999999999999999999
0029228920999991906052306004+60717+028783FM-12+000399999V0209991C000019999999N0000001N9+01061+99999101261ADDGF108991999999999999999999
0035228920999991906052313004+60717+028783FM-12+000399999V0209991C000019999999N0000001N9+01281+99999101391ADDGF108991999999999999999999MW1621
0029228920999991906052320004+60717+028783FM-12+000399999V0209991C000019999999N0000001N9+01281+99999101561ADDGF108991999999999999999999
0029228920999991906052406004+60717+028783FM-12+000399999V0202001N002619999999N0000001N9+01391+99999101881ADDGF108991999999999999999999
0029228920999991906052413004+60717+028783FM-12+000399999V0202001N004619999999N0000001N9+01671+99999102031ADDGF100991999999999999999999
0029228920999991906052420004+60717+028783FM-12+000399999V0202001N001019999999N0000001N9+01171+99999102101ADDGF104991999999999999999999
0029228920999991906052506004+60717+028783FM-12+000399999V0200701N001019999999N0000001N9+01441+99999102061ADDGF104991999999999999999999
0035228920999991906052513004+60717+028783FM-12+000399999V0201401N002619999999N0000001N9+01441+99999102081ADDGF108991999999999999999999MW1601
0029228920999991906052520004+60717+028783FM-12+000399999V0200501N004619999999N0000001N9+01171+99999101581ADDGF108991999999999999999999
0029228920999991906052606004+60717+028783FM-12+000399999V0200201N002619999999N0000001N9+01281+99999101441ADDGF100991999999999999999999
0029228920999991906052613004+60717+028783FM-12+000399999V0203401N006719999999N0000001N9+01611+99999101581ADDGF102991999999999999999999
0029228920999991906052620004+60717+028783FM-12+000399999V0200701N002619999999N0000001N9+00941+99999102001ADDGF102991999999999999999999
0029228920999991906052706004+60717+028783FM-12+000399999V0200901N002619999999N0000001N9+00831+99999102421ADDGF100991999999999999999999
0029228920999991906052713004+60717+028783FM-12+000399999V0201101N002619999999N0000001N9+01221+99999102541ADDGF100991999999999999999999
0029228920999991906052720004+60717+028783FM-12+000399999V0200701N001019999999N0000001N9+00721+99999102641ADDGF100991999999999999999999
0029228920999991906052806004+60717+028783FM-12+000399999V0200901N006719999999N0000001N9+01001+99999102481ADDGF100991999999999999999999
0029228920999991906052813004+60717+028783FM-12+000399999V0201101N002619999999N0000001N9+01611+99999102141ADDGF108991999999999999999999
0029228920999991906052820004+60717+028783FM-12+000399999V0201101N001019999999N0000001N9+01171+99999102071ADDGF102991999999999999999999
0029228920999991906052906004+60717+028783FM-12+000399999V0201401N002619999999N0000001N9+01391+99999101591ADDGF106991999999999999999999
0029228920999991906052913004+60717+028783FM-12+000399999V0201401N002619999999N0000001N9+01611+99999101221ADDGF108991999999999999999999
0029228920999991906052920004+60717+028783FM-12+000399999V0200901N002619999999N0000001N9+01221+99999101161ADDGF108991999999999999999999
0029228920999991906053006004+60717+028783FM-12+000399999V0201101N002619999999N0000001N9+01221+99999100791ADDGF108991999999999999999999
0029228920999991906053013004+60717+028783FM-12+000399999V0201101N001019999999N0000001N9+01671+99999100711ADDGF108991999999999999999999
0029228920999991906053020004+60717+028783FM-12+000399999V0200701N001019999999N0000001N9+01391+99999100641ADDGF108991999999999999999999
0029228920999991906053106004+60717+028783FM-12+000399999V0200501N002619999999N0000001N9+01221+99999100401ADDGF108991999999999999999999
0029228920999991906053113004+60717+028783FM-12+000399999V0200901N002619999999N0000001N9+01331+99999100301ADDGF108991999999999999999999
0029228920999991906053120004+60717+028783FM-12+000399999V0200701N002619999999N0000001N9+01221+99999100221ADDGF108991999999999999999999
0029228920999991906060106004+60717+028783FM-12+000399999V0200701N002619999999N0000001N9+01171+99999100071ADDGF108991999999999999999999
0029228920999991906060113004+60717+028783FM-12+000399999V0200901N002619999999N0000001N9+01611+99999099911ADDGF108991999999999999999999
0029228920999991906060120004+60717+028783FM-12+000399999V0200901N004619999999N0000001N9+01221+99999099721ADDGF108991999999999999999999
0029228920999991906060206004+60717+028783FM-12+000399999V0201401N002619999999N0000001N9+01501+99999099001ADDGF108991999999999999999999
0035228920999991906060213004+60717+028783FM-12+000399999V0201601N004619999999N0000001N9+01221+99999099261ADDGF108991999999999999999999MW1621
0035228920999991906060220004+60717+028783FM-12+000399999V0201801N012319999999N0000001N9+01001+99999099661ADDGF108991999999999999999999MW1621
0029228920999991906060306004+60717+028783FM-12+000399999V0202001N009319999999N0000001N9+01391+99999999999ADDGF102991999999999999999999
0035228920999991906060313004+60717+028783FM-12+000399999V0201401N001019999999N0000001N9+01171+99999100041ADDGF108991999999999999999999MW1621
0029228920999991906060320004+60717+028783FM-12+000399999V0201401N002619999999N0000001N9+01061+99999099981ADDGF106991999999999999999999
0029228920999991906060406004+60717+028783FM-12+000399999V0201401N002619999999N0000001N9+01281+99999099941ADDGF108991999999999999999999
0029228920999991906060413004+60717+028783FM-12+000399999V0201601N001019999999N0000001N9+01441+99999099951ADDGF108991999999999999999999
0029228920999991906060420004+60717+028783FM-12+000399999V0209991C000019999999N0000001N9+01171+99999099881ADDGF108991999999999999999999
0029228920999991906060506004+60717+028783FM-12+000399999V0201801N002619999999N0000001N9+01501+99999100111ADDGF104991999999999999999999
0029228920999991906060513004+60717+028783FM-12+000399999V0202301N004619999999N0000001N9+01671+99999100661ADDGF108991999999999999999999
0029228920999991906060520004+60717+028783FM-12+000399999V0202001N002619999999N0000001N9+01171+99999101031ADDGF108991999999999999999999
0029228920999991906060606004+60717+028783FM-12+000399999V0202301N006719999999N0000001N9+01281+99999101381ADDGF108991999999999999999999
0035228920999991906060613004+60717+028783FM-12+000399999V0203201N002619999999N0000001N9+01001+99999101671ADDGF108991999999999999999999MW1621
0029228920999991906060620004+60717+028783FM-12+000399999V0202501N002619999999N0000001N9+01061+99999101841ADDGF103991999999999999999999
0029228920999991906060706004+60717+028783FM-12+000399999V0202301N006719999999N0000001N9+01221+99999102001ADDGF101991999999999999999999
0029228920999991906060713004+60717+028783FM-12+000399999V0202001N009319999999N0000001N9+01501+99999102021ADDGF102991999999999999999999
0029228920999991906060720004+60717+028783FM-12+000399999V0209991C000019999999N0000001N9+01221+99999102111ADDGF103991999999999999999999
0029228920999991906060806004+60717+028783FM-12+000399999V0200901N001019999999N0000001N9+01281+99999102441ADDGF100991999999999999999999
0029228920999991906060813004+60717+028783FM-12+000399999V0200901N004619999999N0000001N9+01721+99999102421ADDGF101991999999999999999999
0029228920999991906060820004+60717+028783FM-12+000399999V0200701N001019999999N0000001N9+01221+99999102441ADDGF100991999999999999999999
0029228920999991906060906004+60717+028783FM-12+000399999V0201101N004619999999N0000001N9+01331+99999102421ADDGF100991999999999999999999
0029228920999991906060913004+60717+028783FM-12+000399999V0201101N009319999999N0000001N9+01781+99999102231ADDGF100991999999999999999999
0029228920999991906060920004+60717+028783FM-12+000399999V0200501N001019999999N0000001N9+01331+99999102031ADDGF101991999999999999999999
0029228920999991906061006004+60717+028783FM-12+000399999V0200501N004619999999N0000001N9+01331+99999101821ADDGF104991999999999999999999
0029228920999991906061013004+60717+028783FM-12+000399999V0200501N006719999999N0000001N9+01721+99999101681ADDGF108991999999999999999999
0029228920999991906061020004+60717+028783FM-12+000399999V0200501N001019999999N0000001N9+01501+99999101551ADDGF108991999999999999999999
0029228920999991906061106004+60717+028783FM-12+000399999V0200501N001019999999N0000001N9+01331+99999101341ADDGF108991999999999999999999
0029228920999991906061113004+60717+028783FM-12+000399999V0200701N001019999999N0000001N9+01391+99999101461ADDGF108991999999999999999999
0029228920999991906061120004+60717+028783FM-12+000399999V0200501N001019999999N0000001N9+01391+99999101551ADDGF108991999999999999999999
0029228920999991906061206004+60717+028783FM-12+000399999V0200901N001019999999N0000001N9+01501+99999101481ADDGF106991999999999999999999
0029228920999991906061213004+60717+028783FM-12+000399999V0201401N002619999999N0000001N9+01611+99999101391ADDGF102991999999999999999999
0029228920999991906061220004+60717+028783FM-12+000399999V0202001N001019999999N0000001N9+01561+99999101271ADDGF100991999999999999999999
0029228920999991906061306004+60717+028783FM-12+000399999V0202001N002619999999N0000001N9+01671+99999101071ADDGF100991999999999999999999
0029228920999991906061313004+60717+028783FM-12+000399999V0202001N004619999999N0000001N9+01941+99999100921ADDGF100991999999999999999999
0029228920999991906061320004+60717+028783FM-12+000399999V0202001N001019999999N0000001N9+01781+99999100751ADDGF100991999999999999999999
0035228920999991906061406004+60717+028783FM-12+000399999V0201101N001019999999N0000001N9+01441+99999100711ADDGF108991999999999999999999MW1621
0029228920999991906061413004+60717+028783FM-12+000399999V0202301N002619999999N0000001N9+02281+99999100681ADDGF102991999999999999999999
0035228920999991906061420004+60717+028783FM-12+000399999V0201101N002619999999N0000001N9+01721+99999101001ADDGF108991999999999999999999MW1621
0029228920999991906061506004+60717+028783FM-12+000399999V0200901N001019999999N0000001N9+01831+99999101261ADDGF100991999999999999999999
0029228920999991906061513004+60717+028783FM-12+000399999V0200701N002619999999N0000001N9+02331+99999101321ADDGF106991999999999999999999
0029228920999991906061520004+60717+028783FM-12+000399999V0209991C000019999999N0000001N9+01941+99999101441ADDGF100991999999999999999999
0029228920999991906061606004+60717+028783FM-12+000399999V0209991C000019999999N0000001N9+01941+99999101551ADDGF100991999999999999999999
0029228920999991906061613004+60717+028783FM-12+000399999V0203401N006719999999N0000001N9+02221+99999101631ADDGF100991999999999999999999
0029228920999991906061620004+60717+028783FM-12+000399999V0209991C000019999999N0000001N9+01831+99999101781ADDGF100991999999999999999999
0029228920999991906061706004+60717+028783FM-12+000399999V0209991C000019999999N0000001N9+01781+99999101721ADDGF100991999999999999999999
0029228920999991906061713004+60717+028783FM-12+000399999V0203401N001019999999N0000001N9+02331+99999101381ADDGF100991999999999999999999
0029228920999991906061720004+60717+028783FM-12+000399999V0209991C000019999999N0000001N9+01891+99999101151ADDGF100991999999999999999999
0029228920999991906061806004+60717+028783FM-12+000399999V0203401N002619999999N0000001N9+01831+99999101081ADDGF100991999999999999999999
0029228920999991906061813004+60717+028783FM-12+000399999V0203201N006719999999N0000001N9+01941+99999101231ADDGF100991999999999999999999
0029228920999991906061820004+60717+028783FM-12+000399999V0203401N004619999999N0000001N9+01501+99999101441ADDGF100991999999999999999999
0029228920999991906061906004+60717+028783FM-12+000399999V0203401N006719999999N0000001N9+01281+99999101661ADDGF100991999999999999999999
0029228920999991906061913004+60717+028783FM-12+000399999V0202301N006719999999N0000001N9+01831+99999101431ADDGF101991999999999999999999
0029228920999991906061920004+60717+028783FM-12+000399999V0200201N001019999999N0000001N9+01561+99999101501ADDGF100991999999999999999999
0029228920999991906062006004+60717+028783FM-12+000399999V0209991C000019999999N0000001N9+01561+99999101741ADDGF100991999999999999999999
0029228920999991906062013004+60717+028783FM-12+000399999V0202001N009319999999N0000001N9+02001+99999101551ADDGF100991999999999999999999
0029228920999991906062020004+60717+028783FM-12+000399999V0202001N004619999999N0000001N9+01611+99999101341ADDGF100991999999999999999999
0029228920999991906062106004+60717+028783FM-12+000399999V0209991C000019999999N0000001N9+01891+99999101071ADDGF100991999999999999999999
0029228920999991906062113004+60717+028783FM-12+000399999V0200501N001019999999N0000001N9+02221+99999100951ADDGF100991999999999999999999
0029228920999991906062120004+60717+028783FM-12+000399999V0201101N002619999999N0000001N9+01611+99999100901ADDGF101991999999999999999999
0029228920999991906062206004+60717+028783FM-12+000399999V0201101N002619999999N0000001N9+01721+99999100741ADDGF100991999999999999999999
0029228920999991906062213004+60717+028783FM-12+000399999V0201401N002619999999N0000001N9+02171+99999100511ADDGF101991999999999999999999
0029228920999991906062220004+60717+028783FM-12+000399999V0200901N002619999999N0000001N9+01561+99999100501ADDGF101991999999999999999999
0029228920999991906062306004+60717+028783FM-12+000399999V0200901N002619999999N0000001N9+01781+99999100511ADDGF101991999999999999999999
0029228920999991906062313004+60717+028783FM-12+000399999V0200901N004619999999N0000001N9+02221+99999100591ADDGF101991999999999999999999
0029228920999991906062320004+60717+028783FM-12+000399999V0200901N001019999999N0000001N9+01941+99999100681ADDGF102991999999999999999999
0029228920999991906062406004+60717+028783FM-12+000399999V0201101N001019999999N0000001N9+01561+99999100781ADDGF108991999999999999999999
0029228920999991906062413004+60717+028783FM-12+000399999V0200501N002619999999N0000001N9+02221+99999100701ADDGF103991999999999999999999
0029228920999991906062420004+60717+028783FM-12+000399999V0209991C000019999999N0000001N9+01721+99999100711ADDGF104991999999999999999999
0029228920999991906062506004+60717+028783FM-12+000399999V0200901N002619999999N0000001N9+01781+99999100751ADDGF105991999999999999999999
0029228920999991906062513004+60717+028783FM-12+000399999V0200501N004619999999N0000001N9+02111+99999100801ADDGF100991999999999999999999
0029228920999991906062520004+60717+028783FM-12+000399999V0202501N001019999999N0000001N9+01891+99999100791ADDGF100991999999999999999999
0029228920999991906062606004+60717+028783FM-12+000399999V0209991C000019999999N0000001N9+01941+99999100791ADDGF100991999999999999999999
0029228920999991906062613004+60717+028783FM-12+000399999V0202001N004619999999N0000001N9+02221+99999100741ADDGF106991999999999999999999
0029228920999991906062620004+60717+028783FM-12+000399999V0201801N002619999999N0000001N9+01781+99999100661ADDGF101991999999999999999999
0029228920999991906062706004+60717+028783FM-12+000399999V0202001N006719999999N0000001N9+01891+99999100601ADDGF102991999999999999999999
0029228920999991906062713004+60717+028783FM-12+000399999V0202301N001019999999N0000001N9+02111+99999100641ADDGF102991999999999999999999
0029228920999991906062720004+60717+028783FM-12+000399999V0202301N002619999999N0000001N9+01611+99999100671ADDGF101991999999999999999999
0029228920999991906062806004+60717+028783FM-12+000399999V0201801N006719999999N0000001N9+01721+99999100471ADDGF108991999999999999999999
0029228920999991906062813004+60717+028783FM-12+000399999V0202001N009319999999N0000001N9+02001+99999100261ADDGF101991999999999999999999
0029228920999991906062820004+60717+028783FM-12+000399999V0202501N012319999999N0000001N9+01611+99999100321ADDGF100991999999999999999999
0029228920999991906062906004+60717+028783FM-12+000399999V0202301N009319999999N0000001N9+01721+99999100541ADDGF101991999999999999999999
0029228920999991906062913004+60717+028783FM-12+000399999V0202001N009319999999N0000001N9+01941+99999100401ADDGF108991999999999999999999
0029228920999991906062920004+60717+028783FM-12+000399999V0202301N002619999999N0000001N9+01611+99999100501ADDGF104991999999999999999999
0029228920999991906063006004+60717+028783FM-12+000399999V0200201N001019999999N0000001N9+01281+99999100741ADDGF101991999999999999999999
0029228920999991906063013004+60717+028783FM-12+000399999V0200901N002619999999N0000001N9+01561+99999100431ADDGF108991999999999999999999
0029228920999991906063020004+60717+028783FM-12+000399999V0200501N001019999999N0000001N9+01001+99999100191ADDGF108991999999999999999999
0029228920999991906070106004+60717+028783FM-12+000399999V0202001N012319999999N0000001N9+01501+99999100341ADDGF108991999999999999999999
0029228920999991906070113004+60717+028783FM-12+000399999V0202301N015419999999N0000001N9+01561+99999101141ADDGF100991999999999999999999
0029228920999991906070120004+60717+028783FM-12+000399999V0202001N004619999999N0000001N9+01281+99999101481ADDGF100991999999999999999999
0029228920999991906070206004+60717+028783FM-12+000399999V0202001N006719999999N0000001N9+01391+99999101681ADDGF106991999999999999999999
0029228920999991906070213004+60717+028783FM-12+000399999V0202001N015419999999N0000001N9+01671+99999101941ADDGF101991999999999999999999
0029228920999991906070220004+60717+028783FM-12+000399999V0201801N001019999999N0000001N9+01391+99999102301ADDGF100991999999999999999999
0029228920999991906070306004+60717+028783FM-12+000399999V0209991C000019999999N0000001N9+01561+99999102631ADDGF100991999999999999999999
0029228920999991906070313004+60717+028783FM-12+000399999V0202301N004619999999N0000001N9+01941+99999102581ADDGF100991999999999999999999
0029228920999991906070320004+60717+028783FM-12+000399999V0209991C000019999999N0000001N9+01721+99999102481ADDGF100991999999999999999999
0029228920999991906070406004+60717+028783FM-12+000399999V0200701N001019999999N0000001N9+01501+99999102361ADDGF101991999999999999999999
0029228920999991906070413004+60717+028783FM-12+000399999V0201801N002619999999N0000001N9+02281+99999102141ADDGF101991999999999999999999
0029228920999991906070420004+60717+028783FM-12+000399999V0202501N001019999999N0000001N9+01781+99999102121ADDGF100991999999999999999999
0029228920999991906070506004+60717+028783FM-12+000399999V0209991C000019999999N0000001N9+01611+99999102191ADDGF101991999999999999999999
0029228920999991906070513004+60717+028783FM-12+000399999V0202001N006719999999N0000001N9+02221+99999102181ADDGF101991999999999999999999
0029228920999991906070520004+60717+028783FM-12+000399999V0209991C000019999999N0000001N9+01831+99999102121ADDGF100991999999999999999999
0029228920999991906070606004+60717+028783FM-12+000399999V0209991C000019999999N0000001N9+01891+99999102151ADDGF100991999999999999999999
0029228920999991906070613004+60717+028783FM-12+000399999V0200901N004619999999N0000001N9+02501+99999101951ADDGF102991999999999999999999
0029228920999991906070620004+60717+028783FM-12+000399999V0200501N001019999999N0000001N9+02061+99999101881ADDGF100991999999999999999999
0029228920999991906070706004+60717+028783FM-12+000399999V0200901N002619999999N0000001N9+02061+99999101781ADDGF100991999999999999999999
0035228920999991906070713004+60717+028783FM-12+000399999V0201101N002619999999N0000001N9+01941+99999101781ADDGF108991999999999999999999MW1621
0029228920999991906070720004+60717+028783FM-12+000399999V0200701N001019999999N0000001N9+01561+99999101671ADDGF108991999999999999999999
0035228920999991906070806004+60717+028783FM-12+000399999V0200901N001019999999N0000001N9+01501+99999101401ADDGF108991999999999999999999MW1621
0029228920999991906070813004+60717+028783FM-12+000399999V0209991C000019999999N0000001N9+02281+99999101321ADDGF108991999999999999999999
0029228920999991906070820004+60717+028783FM-12+000399999V0209991C000019999999N0000001N9+02061+99999101271ADDGF106991999999999999999999
0029228920999991906070906004+60717+028783FM-12+000399999V0203601N001019999999N0000001N9+02061+99999101301ADDGF104991999999999999999999
0029228920999991906070913004+60717+028783FM-12+000399999V0202001N004619999999N0000001N9+02441+99999101321ADDGF102991999999999999999999
0029228920999991906070920004+60717+028783FM-12+000399999V0209991C000019999999N0000001N9+02061+99999101341ADDGF100991999999999999999999
0029228920999991906071006004+60717+028783FM-12+000399999V0209991C000019999999N0000001N9+02061+99999101501ADDGF100991999999999999999999
0029228920999991906071013004+60717+028783FM-12+000399999V0209991C000019999999N0000001N9+02721+99999101561ADDGF102991999999999999999999
0029228920999991906071020004+60717+028783FM-12+000399999V0200501N001019999999N0000001N9+02221+99999101671ADDGF100991999999999999999999
0029228920999991906071106004+60717+028783FM-12+000399999V0209991C000019999999N0000001N9+02221+99999101631ADDGF100991999999999999999999
0029228920999991906071113004+60717+028783FM-12+000399999V0200501N002619999999N0000001N9+02721+99999101481ADDGF100991999999999999999999
0029228920999991906071120004+60717+028783FM-12+000399999V0209991C000019999999N0000001N9+02281+99999101431ADDGF101991999999999999999999
0029228920999991906071206004+60717+028783FM-12+000399999V0209991C000019999999N0000001N9+02281+99999101401ADDGF100991999999999999999999
0029228920999991906071213004+60717+028783FM-12+000399999V0202001N001019999999N0000001N9+02831+99999101351ADDGF101991999999999999999999
0029228920999991906071220004+60717+028783FM-12+000399999V0209991C000019999999N0000001N9+02281+99999101301ADDGF101991999999999999999999
0029228920999991906071306004+60717+028783FM-12+000399999V0209991C000019999999N0000001N9+02441+99999101341ADDGF101991999999999999999999
0029228920999991906071313004+60717+028783FM-12+000399999V0203401N002619999999N0000001N9+02391+99999101391ADDGF106991999999999999999999
0029228920999991906071320004+60717+028783FM-12+000399999V0209991C000019999999N0000001N9+02061+99999101361ADDGF101991999999999999999999
0029228920999991906071406004+60717+028783FM-12+000399999V0200501N002619999999N0000001N9+02001+99999101311ADDGF108991999999999999999999
0029228920999991906071413004+60717+028783FM-12+000399999V0200701N001019999999N0000001N9+02611+99999101271ADDGF106991999999999999999999
0029228920999991906071420004+60717+028783FM-12+000399999V0200701N001019999999N0000001N9+02061+99999100921ADDGF106991999999999999999999
0029228920999991906071506004+60717+028783FM-12+000399999V0200701N002619999999N0000001N9+01891+99999100301ADDGF108991999999999999999999
0029228920999991906071513004+60717+028783FM-12+000399999V0200701N004619999999N0000001N9+02111+99999100111ADDGF108991999999999999999999
0029228920999991906071520004+60717+028783FM-12+000399999V0201101N001019999999N0000001N9+02221+99999099501ADDGF107991999999999999999999
0029228920999991906071606004+60717+028783FM-12+000399999V0200501N006719999999N0000001N9+01721+99999099761ADDGF105991999999999999999999
0029228920999991906071613004+60717+028783FM-12+000399999V0201801N004619999999N0000001N9+02111+99999099831ADDGF105991999999999999999999
0029228920999991906071620004+60717+028783FM-12+000399999V0202001N004619999999N0000001N9+01891+99999099781ADDGF107991999999999999999999
0029228920999991906071706004+60717+028783FM-12+000399999V0202301N009319999999N0000001N9+01611+99999099801ADDGF103991999999999999999999
0029228920999991906071713004+60717+028783FM-12+000399999V0202301N009319999999N0000001N9+01781+99999099881ADDGF102991999999999999999999
0029228920999991906071720004+60717+028783FM-12+000399999V0202501N004619999999N0000001N9+01441+99999099881ADDGF102991999999999999999999
0029228920999991906071806004+60717+028783FM-12+000399999V0202701N006719999999N0000001N9+01391+99999099861ADDGF102991999999999999999999
0029228920999991906071813004+60717+028783FM-12+000399999V0202701N015419999999N0000001N9+01501+99999099981ADDGF106991999999999999999999
0029228920999991906071820004+60717+028783FM-12+000399999V0202701N006719999999N0000001N9+01331+99999100141ADDGF102991999999999999999999
0029228920999991906071906004+60717+028783FM-12+000399999V0202901N001019999999N0000001N9+01331+99999100391ADDGF102991999999999999999999
0029228920999991906071913004+60717+028783FM-12+000399999V0202001N006719999999N0000001N9+01941+99999100501ADDGF102991999999999999999999
0029228920999991906071920004+60717+028783FM-12+000399999V0209991C000019999999N0000001N9+01391+99999100641ADDGF101991999999999999999999
0029228920999991906072006004+60717+028783FM-12+000399999V0209991C000019999999N0000001N9+01721+99999100401ADDGF100991999999999999999999
0029228920999991906072013004+60717+028783FM-12+000399999V0202301N002619999999N0000001N9+02001+99999100061ADDGF108991999999999999999999
0029228920999991906072020004+60717+028783FM-12+000399999V0202001N002619999999N0000001N9+01501+99999100041ADDGF102991999999999999999999
0029228920999991906072106004+60717+028783FM-12+000399999V0202501N001019999999N0000001N9+01171+99999099871ADDGF108991999999999999999999
0029228920999991906072113004+60717+028783FM-12+000399999V0202001N001019999999N0000001N9+01611+99999100151ADDGF107991999999999999999999
0029228920999991906072120004+60717+028783FM-12+000399999V0201601N001019999999N0000001N9+01331+99999100341ADDGF100991999999999999999999
0029228920999991906072206004+60717+028783FM-12+000399999V0201401N002619999999N0000001N9+01441+99999100391ADDGF105991999999999999999999
0029228920999991906072213004+60717+028783FM-12+000399999V0202001N002619999999N0000001N9+01831+99999100601ADDGF103991999999999999999999
0029228920999991906072220004+60717+028783FM-12+000399999V0209991C000019999999N0000001N9+01441+99999100641ADDGF100991999999999999999999
0029228920999991906072306004+60717+028783FM-12+000399999V0209991C000019999999N0000001N9+01281+99999100821ADDGF103991999999999999999999
0029228920999991906072313004+60717+028783FM-12+000399999V0203401N004619999999N0000001N9+01831+99999100911ADDGF107991999999999999999999
0029228920999991906072320004+60717+028783FM-12+000399999V0203401N001019999999N0000001N9+01721+99999101031ADDGF106991999999999999999999
0029228920999991906072406004+60717+028783FM-12+000399999V0203401N002619999999N0000001N9+01501+99999100991ADDGF108991999999999999999999
0029228920999991906072413004+60717+028783FM-12+000399999V0200201N002619999999N0000001N9+02281+99999100981ADDGF102991999999999999999999
0029228920999991906072420004+60717+028783FM-12+000399999V0209991C000019999999N0000001N9+01941+99999101181ADDGF102991999999999999999999
0029228920999991906072506004+60717+028783FM-12+000399999V0203601N001019999999N0000001N9+01941+99999101431ADDGF100991999999999999999999
0029228920999991906072513004+60717+028783FM-12+000399999V0200901N001019999999N0000001N9+02671+99999101281ADDGF100991999999999999999999
0029228920999991906072520004+60717+028783FM-12+000399999V0209991C000019999999N0000001N9+02171+99999101161ADDGF100991999999999999999999
0029228920999991906072606004+60717+028783FM-12+000399999V0209991C000019999999N0000001N9+02111+99999101031ADDGF102991999999999999999999
0029228920999991906072613004+60717+028783FM-12+000399999V0200201N004619999999N0000001N9+02611+99999100951ADDGF101991999999999999999999
0035228920999991906072620004+60717+028783FM-12+000399999V0200201N001019999999N0000001N9+02171+99999100961ADDGF108991999999999999999999MW1621
0029228920999991906072706004+60717+028783FM-12+000399999V0200501N001019999999N0000001N9+02001+99999101121ADDGF100991999999999999999999
0029228920999991906072713004+60717+028783FM-12+000399999V0200901N006719999999N0000001N9+02441+99999101261ADDGF100991999999999999999999
0029228920999991906072720004+60717+028783FM-12+000399999V0200701N002619999999N0000001N9+01941+99999101481ADDGF100991999999999999999999
0029228920999991906072806004+60717+028783FM-12+000399999V0209991C000019999999N0000001N9+02061+99999101581ADDGF100991999999999999999999
0029228920999991906072813004+60717+028783FM-12+000399999V0200901N002619999999N0000001N9+02721+99999101381ADDGF100991999999999999999999
0029228920999991906072820004+60717+028783FM-12+000399999V0200501N001019999999N0000001N9+02331+99999101431ADDGF102991999999999999999999
0029228920999991906072906004+60717+028783FM-12+000399999V0200701N002619999999N0000001N9+01831+99999101431ADDGF100991999999999999999999
0029228920999991906072913004+60717+028783FM-12+000399999V0200701N002619999999N0000001N9+02561+99999101351ADDGF100991999999999999999999
0029228920999991906072920004+60717+028783FM-12+000399999V0209991C000019999999N0000001N9+02061+99999101381ADDGF100991999999999999999999
0029228920999991906073006004+60717+028783FM-12+000399999V0209991C000019999999N0000001N9+02001+99999101631ADDGF100991999999999999999999
0029228920999991906073013004+60717+028783FM-12+000399999V0200501N002619999999N0000001N9+02111+99999101781ADDGF100991999999999999999999
0029228920999991906073020004+60717+028783FM-12+000399999V0209991C000019999999N0000001N9+01441+99999101961ADDGF100991999999999999999999
0029228920999991906073106004+60717+028783FM-12+000399999V0209991C000019999999N0000001N9+01611+99999102041ADDGF100991999999999999999999
0029228920999991906073113004+60717+028783FM-12+000399999V0202001N009319999999N0000001N9+02171+99999101881ADDGF100991999999999999999999
0029228920999991906073120004+60717+028783FM-12+000399999V0202301N002619999999N0000001N9+01781+99999101821ADDGF100991999999999999999999
0029228920999991906080106004+60717+028783FM-12+000399999V0203201N001019999999N0000001N9+01781+99999101861ADDGF100991999999999999999999
0029228920999991906080113004+60717+028783FM-12+000399999V0202301N001019999999N0000001N9+02331+99999101871ADDGF102991999999999999999999
0029228920999991906080120004+60717+028783FM-12+000399999V0202701N001019999999N0000001N9+01941+99999101561ADDGF102991999999999999999999
0029228920999991906080206004+60717+028783FM-12+000399999V0203201N001019999999N0000001N9+01831+99999101421ADDGF100991999999999999999999
0029228920999991906080213004+60717+028783FM-12+000399999V0202301N002619999999N0000001N9+02561+99999101191ADDGF100991999999999999999999
0029228920999991906080220004+60717+028783FM-12+000399999V0209991C000019999999N0000001N9+02111+99999101031ADDGF100991999999999999999999
0029228920999991906080306004+60717+028783FM-12+000399999V0209991C000019999999N0000001N9+02001+99999101081ADDGF100991999999999999999999
0029228920999991906080313004+60717+028783FM-12+000399999V0202001N002619999999N0000001N9+02331+99999101031ADDGF104991999999999999999999
0029228920999991906080320004+60717+028783FM-12+000399999V0201801N002619999999N0000001N9+02001+99999100921ADDGF104991999999999999999999
0029228920999991906080406004+60717+028783FM-12+000399999V0202701N002619999999N0000001N9+02001+99999100641ADDGF100991999999999999999999
0029228920999991906080413004+60717+028783FM-12+000399999V0203401N002619999999N0000001N9+02331+99999100541ADDGF105991999999999999999999
0035228920999991906080420004+60717+028783FM-12+000399999V0200901N002619999999N0000001N9+01891+99999100551ADDGF108991999999999999999999MW1621
0035228920999991906080506004+60717+028783FM-12+000399999V0200501N004619999999N0000001N9+01281+99999100351ADDGF108991999999999999999999MW1621
0035228920999991906080513004+60717+028783FM-12+000399999V0200501N001019999999N0000001N9+01281+99999100141ADDGF108991999999999999999999MW1621
0035228920999991906080520004+60717+028783FM-12+000399999V0200701N002619999999N0000001N9+01111+99999100121ADDGF108991999999999999999999MW1621
0035228920999991906080606004+60717+028783FM-12+000399999V0200201N002619999999N0000001N9+01061+99999100031ADDGF105991999999999999999999MW1621
0035228920999991906080613004+60717+028783FM-12+000399999V0200201N006719999999N0000001N9+01391+99999100101ADDGF107991999999999999999999MW1621
0029228920999991906080620004+60717+028783FM-12+000399999V0200201N001019999999N0000001N9+01061+99999100281ADDGF102991999999999999999999
0029228920999991906080706004+60717+028783FM-12+000399999V0200201N001019999999N0000001N9+01171+99999100401ADDGF100991999999999999999999
0029228920999991906080713004+60717+028783FM-12+000399999V0203601N002619999999N0000001N9+01671+99999100281ADDGF102991999999999999999999
0029228920999991906080720004+60717+028783FM-12+000399999V0209991C000019999999N0000001N9+01281+99999100261ADDGF104991999999999999999999
0029228920999991906080806004+60717+028783FM-12+000399999V0203401N001019999999N0000001N9+01281+99999100201ADDGF108991999999999999999999
0029228920999991906080813004+60717+028783FM-12+000399999V0203401N004619999999N0000001N9+01391+99999100231ADDGF106991999999999999999999
0029228920999991906080820004+60717+028783FM-12+000399999V0202901N001019999999N0000001N9+01061+99999100271ADDGF100991999999999999999999
0029228920999991906080906004+60717+028783FM-12+000399999V0209991C000019999999N0000001N9+01001+99999100261ADDGF101991999999999999999999
0029228920999991906080913004+60717+028783FM-12+000399999V0202301N001019999999N0000001N9+01391+99999100281ADDGF106991999999999999999999
0029228920999991906080920004+60717+028783FM-12+000399999V0202501N002619999999N0000001N9+01111+99999100321ADDGF101991999999999999999999
0029228920999991906081006004+60717+028783FM-12+000399999V0209991C000019999999N0000001N9+01111+99999100311ADDGF108991999999999999999999
0029228920999991906081013004+60717+028783FM-12+000399999V0202001N002619999999N0000001N9+01671+99999100271ADDGF104991999999999999999999
0029228920999991906081020004+60717+028783FM-12+000399999V0201801N001019999999N0000001N9+01221+99999100241ADDGF102991999999999999999999
0029228920999991906081106004+60717+028783FM-12+000399999V0209991C000019999999N0000001N9+01111+99999100261ADDGF100991999999999999999999
0029228920999991906081113004+60717+028783FM-12+000399999V0202301N002619999999N0000001N9+01941+99999100301ADDGF101991999999999999999999
0029228920999991906081120004+60717+028783FM-12+000399999V0209991C000019999999N0000001N9+01331+99999100391ADDGF101991999999999999999999
0029228920999991906081206004+60717+028783FM-12+000399999V0209991C000019999999N0000001N9+01391+99999100511ADDGF100991999999999999999999
0029228920999991906081213004+60717+028783FM-12+000399999V0203601N001019999999N0000001N9+02001+99999100521ADDGF101991999999999999999999
0029228920999991906081220004+60717+028783FM-12+000399999V0203601N001019999999N0000001N9+01561+99999100671ADDGF102991999999999999999999
0029228920999991906081306004+60717+028783FM-12+000399999V0203601N001019999999N0000001N9+01561+99999100761ADDGF104991999999999999999999
0029228920999991906081313004+60717+028783FM-12+000399999V0203401N002619999999N0000001N9+01941+99999100841ADDGF104991999999999999999999
0029228920999991906081320004+60717+028783FM-12+000399999V0203601N001019999999N0000001N9+01671+99999101111ADDGF104991999999999999999999
0029228920999991906081406004+60717+028783FM-12+000399999V0203601N001019999999N0000001N9+01501+99999101501ADDGF100991999999999999999999
0029228920999991906081413004+60717+028783FM-12+000399999V0203201N001019999999N0000001N9+02111+99999101701ADDGF102991999999999999999999
0029228920999991906081420004+60717+028783FM-12+000399999V0209991C000019999999N0000001N9+01561+99999101921ADDGF100991999999999999999999
0029228920999991906081506004+60717+028783FM-12+000399999V0209991C000019999999N0000001N9+01611+99999102191ADDGF100991999999999999999999
0029228920999991906081513004+60717+028783FM-12+000399999V0202001N004619999999N0000001N9+02281+99999102151ADDGF100991999999999999999999
0029228920999991906081520004+60717+028783FM-12+000399999V0209991C000019999999N0000001N9+01561+99999102031ADDGF100991999999999999999999
0029228920999991906081606004+60717+028783FM-12+000399999V0209991C000019999999N0000001N9+01721+99999102001ADDGF100991999999999999999999
0029228920999991906081613004+60717+028783FM-12+000399999V0202001N004619999999N0000001N9+02221+99999101871ADDGF100991999999999999999999
0029228920999991906081620004+60717+028783FM-12+000399999V0209991C000019999999N0000001N9+01671+99999101641ADDGF100991999999999999999999
0029228920999991906081706004+60717+028783FM-12+000399999V0209991C000019999999N0000001N9+01831+99999101461ADDGF100991999999999999999999
0029228920999991906081713004+60717+028783FM-12+000399999V0201801N001019999999N0000001N9+02441+99999101261ADDGF101991999999999999999999
0029228920999991906081720004+60717+028783FM-12+000399999V0201401N001019999999N0000001N9+02001+99999100991ADDGF104991999999999999999999
0029228920999991906081806004+60717+028783FM-12+000399999V0202301N009319999999N0000001N9+01891+99999100701ADDGF108991999999999999999999
0029228920999991906081813004+60717+028783FM-12+000399999V0202001N006719999999N0000001N9+02061+99999100711ADDGF100991999999999999999999
0035228920999991906081820004+60717+028783FM-12+000399999V0209991C000019999999N0000001N9+01611+99999100561ADDGF100991999999999999999999MW1131
0029228920999991906081906004+60717+028783FM-12+000399999V0201401N004619999999N0000001N9+01891+99999099921ADDGF108991999999999999999999
0029228920999991906081913004+60717+028783FM-12+000399999V0201801N015419999999N0000001N9+01781+99999099861ADDGF108991999999999999999999
0029228920999991906081920004+60717+028783FM-12+000399999V0202001N015419999999N0000001N9+01611+99999100081ADDGF107991999999999999999999
0029228920999991906082006004+60717+028783FM-12+000399999V0202301N006719999999N0000001N9+01391+99999100581ADDGF100991999999999999999999
0029228920999991906082013004+60717+028783FM-12+000399999V0201801N002619999999N0000001N9+01281+99999100641ADDGF108991999999999999999999
0029228920999991906082020004+60717+028783FM-12+000399999V0202501N002619999999N0000001N9+01221+99999100791ADDGF100991999999999999999999
0029228920999991906082106004+60717+028783FM-12+000399999V0201401N004619999999N0000001N9+01221+99999100481ADDGF108991999999999999999999
0035228920999991906082113004+60717+028783FM-12+000399999V0201801N012319999999N0000001N9+01331+99999099961ADDGF108991999999999999999999MW1621
0029228920999991906082120004+60717+028783FM-12+000399999V0202001N015419999999N0000001N9+01501+99999099681ADDGF104991999999999999999999
0035228920999991906082206004+60717+028783FM-12+000399999V0202301N002619999999N0000001N9+01331+99999099551ADDGF106991999999999999999999MW1621
0035228920999991906082213004+60717+028783FM-12+000399999V0202301N012319999999N0000001N9+01331+99999099581ADDGF108991999999999999999999MW1621
0035228920999991906082220004+60717+028783FM-12+000399999V0202501N009319999999N0000001N9+01171+99999099881ADDGF108991999999999999999999MW1621
0029228920999991906082306004+60717+028783FM-12+000399999V0202501N004619999999N0000001N9+01061+99999100311ADDGF100991999999999999999999
0029228920999991906082313004+60717+028783FM-12+000399999V0202301N006719999999N0000001N9+01501+99999100401ADDGF106991999999999999999999
0029228920999991906082320004+60717+028783FM-12+000399999V0209991C000019999999N0000001N9+01001+99999100231ADDGF102991999999999999999999
0029228920999991906082406004+60717+028783FM-12+000399999V0200501N001019999999N0000001N9+01001+99999099741ADDGF108991999999999999999999
0029228920999991906082413004+60717+028783FM-12+000399999V0200201N002619999999N0000001N9+00941+99999099961ADDGF102991999999999999999999
0029228920999991906082420004+60717+028783FM-12+000399999V0203401N002619999999N0000001N9+01111+99999100231ADDGF106991999999999999999999
0029228920999991906082506004+60717+028783FM-12+000399999V0203201N001019999999N0000001N9+00941+99999100541ADDGF107991999999999999999999
0029228920999991906082513004+60717+028783FM-12+000399999V0202901N002619999999N0000001N9+01281+99999100701ADDGF102991999999999999999999
0029228920999991906082520004+60717+028783FM-12+000399999V0202701N001019999999N0000001N9+00941+99999100681ADDGF107991999999999999999999
0029228920999991906082606004+60717+028783FM-12+000399999V0200201N001019999999N0000001N9+00721+99999100511ADDGF100991999999999999999999
0029228920999991906082613004+60717+028783FM-12+000399999V0200701N002619999999N0000001N9+01281+99999100221ADDGF104991999999999999999999
0029228920999991906082620004+60717+028783FM-12+000399999V0200201N001019999999N0000001N9+00781+99999099981ADDGF100991999999999999999999
0029228920999991906082706004+60717+028783FM-12+000399999V0200201N002619999999N0000001N9+00941+99999099751ADDGF107991999999999999999999
0029228920999991906082713004+60717+028783FM-12+000399999V0200201N009319999999N0000001N9+01281+99999099861ADDGF106991999999999999999999
0029228920999991906082720004+60717+028783FM-12+000399999V0203401N006719999999N0000001N9+01061+99999100071ADDGF108991999999999999999999
0029228920999991906082806004+60717+028783FM-12+000399999V0203401N006719999999N0000001N9+00941+99999100231ADDGF107991999999999999999999
0029228920999991906082813004+60717+028783FM-12+000399999V0203401N012319999999N0000001N9+01111+99999100241ADDGF106991999999999999999999
0029228920999991906082820004+60717+028783FM-12+000399999V0203201N002619999999N0000001N9+00831+99999100481ADDGF100991999999999999999999
0029228920999991906082906004+60717+028783FM-12+000399999V0203201N009319999999N0000001N9+00721+99999100781ADDGF100991999999999999999999
0029228920999991906082913004+60717+028783FM-12+000399999V0203401N004619999999N0000001N9+01111+99999100941ADDGF106991999999999999999999
0029228920999991906082920004+60717+028783FM-12+000399999V0202701N001019999999N0000001N9+00891+99999101141ADDGF108991999999999999999999
0029228920999991906083006004+60717+028783FM-12+000399999V0209991C000019999999N0000001N9+00781+99999101421ADDGF102991999999999999999999
0035228920999991906083013004+60717+028783FM-12+000399999V0201601N002619999999N0000001N9+01001+99999101221ADDGF108991999999999999999999MW1621
0035228920999991906083020004+60717+028783FM-12+000399999V0201101N001019999999N0000001N9+00941+99999100761ADDGF108991999999999999999999MW1621
0029228920999991906083106004+60717+028783FM-12+000399999V0203401N001019999999N0000001N9+00941+99999101101ADDGF108991999999999999999999
0035228920999991906083113004+60717+028783FM-12+000399999V0203201N004619999999N0000001N9+01111+99999101261ADDGF108991999999999999999999MW1621
0029228920999991906083120004+60717+028783FM-12+000399999V0202901N001019999999N0000001N9+00671+99999101681ADDGF100991999999999999999999
0029228920999991906090106004+60717+028783FM-12+000399999V0203401N001019999999N0000001N9+00561+99999101901ADDGF102991999999999999999999
0029228920999991906090113004+60717+028783FM-12+000399999V0202001N002619999999N0000001N9+01171+99999101751ADDGF108991999999999999999999
0035228920999991906090120004+60717+028783FM-12+000399999V0201601N001019999999N0000001N9+00781+99999101431ADDGF108991999999999999999999MW1621
0035228920999991906090206004+60717+028783FM-12+000399999V0202301N004619999999N0000001N9+01111+99999100201ADDGF108991999999999999999999MW1621
0029228920999991906090213004+60717+028783FM-12+000399999V0203201N012319999999N0000001N9+00941+99999100381ADDGF106991999999999999999999
0029228920999991906090220004+60717+028783FM-12+000399999V0203401N015419999999N0000001N9+00831+99999100421ADDGF108991999999999999999999
0029228920999991906090306004+60717+028783FM-12+000399999V0203401N012319999999N0000001N9+00891+99999101791ADDGF101991999999999999999999
0029228920999991906090313004+60717+028783FM-12+000399999V0203401N009319999999N0000001N9+01171+99999102021ADDGF106991999999999999999999
0029228920999991906090320004+60717+028783FM-12+000399999V0203401N001019999999N0000001N9+00781+99999102161ADDGF100991999999999999999999
