0035228920999991913010106004+60717+028783FM-12+000399999V0201801N006719999999N0000001N9+00001+99999100201ADDGF108991999999999999999999MW1701
0029228920999991913010113004+60717+028783FM-12+000399999V0202001N004619999999N0000001N9+00171+99999099601ADDGF108991999999999999999999
0029228920999991913010120004+60717+028783FM-12+000399999V0202001N006719999999N0000001N9+00221+99999099761ADDGF108991999999999999999999
0029228920999991913010206004+60717+028783FM-12+000399999V0209991C000019999999N0000001N9+00111+99999100101ADDGF108991999999999999999999
0029228920999991913010213004+60717+028783FM-12+000399999V0202301N002619999999N0000001N9+00171+99999100071ADDGF108991999999999999999999
0029228920999991913010220004+60717+028783FM-12+000399999V0202501N001019999999N0000001N9+00111+99999100111ADDGF108991999999999999999999
0029228920999991913010306004+60717+028783FM-12+000399999V0202501N004619999999N0000001N9+00001+99999100461ADDGF108991999999999999999999
0029228920999991913010313004+60717+028783FM-12+000399999V0202901N002619999999N0000001N9-00061+99999100951ADDGF108991999999999999999999
0029228920999991913010320004+60717+028783FM-12+000399999V0203601N001019999999N0000001N9-00061+99999101881ADDGF108991999999999999999999
0029228920999991913010406004+60717+028783FM-12+000399999V0202501N001019999999N0000001N9-00441+99999102471ADDGF101991999999999999999999
0029228920999991913010413004+60717+028783FM-12+000399999V0202501N002619999999N0000001N9-00061+99999102601ADDGF108991999999999999999999
0029228920999991913010420004+60717+028783FM-12+000399999V0202501N006719999999N0000001N9+00001+99999102601ADDGF108991999999999999999999
0029228920999991913010506004+60717+028783FM-12+000399999V0202301N006719999999N0000001N9+00111+99999102511ADDGF108991999999999999999999
0029228920999991913010513004+60717+028783FM-12+000399999V0202301N006719999999N0000001N9+00061+99999102461ADDGF108991999999999999999999
0029228920999991913010520004+60717+028783FM-12+000399999V0202301N006719999999N0000001N9+00061+99999102311ADDGF108991999999999999999999
0029228920999991913010606004+60717+028783FM-12+000399999V0202501N009319999999N0000001N9-00061+99999102101ADDGF108991999999999999999999
0029228920999991913010613004+60717+028783FM-12+000399999V0202501N006719999999N0000001N9+00001+99999101951ADDGF108991999999999999999999
0035228920999991913010620004+60717+028783FM-12+000399999V0202501N006719999999N0000001N9+00061+99999101801ADDGF108991999999999999999999MW1601
0029228920999991913010706004+60717+028783FM-12+000399999V0202301N006719999999N0000001N9+00111+99999101541ADDGF108991999999999999999999
0029228920999991913010713004+60717+028783FM-12+000399999V0202501N006719999999N0000001N9+00171+99999101481ADDGF108991999999999999999999
0029228920999991913010720004+60717+028783FM-12+000399999V0202901N002619999999N0000001N9+00171+99999101681ADDGF108991999999999999999999
0029228920999991913010806004+60717+028783FM-12+000399999V0203401N002619999999N0000001N9+00061+99999102401ADDGF108991999999999999999999
0029228920999991913010813004+60717+028783FM-12+000399999V0203401N001019999999N0000001N9+00001+99999103001ADDGF108991999999999999999999
0029228920999991913010820004+60717+028783FM-12+000399999V0203401N001019999999N0000001N9-00221+99999103511ADDGF108991999999999999999999
0029228920999991913010906004+60717+028783FM-12+000399999V0209991C000019999999N0000001N9-00331+99999103761ADDGF108991999999999999999999
0029228920999991913010913004+60717+028783FM-12+000399999V0209991C000019999999N0000001N9-00331+99999104021ADDGF108991999999999999999999
0029228920999991913010920004+60717+028783FM-12+000399999V0209991C000019999999N0000001N9-00391+99999104321ADDGF108991999999999999999999
0029228920999991913011006004+60717+028783FM-12+000399999V0209991C000019999999N0000001N9-00501+99999104391ADDGF108991999999999999999999
0029228920999991913011013004+60717+028783FM-12+000399999V0209991C000019999999N0000001N9-00561+99999104351ADDGF108991999999999999999999
0029228920999991913011020004+60717+028783FM-12+000399999V0203601N001019999999N0000001N9-00721+99999104201ADDGF108991999999999999999999
0029228920999991913011106004+60717+028783FM-12+000399999V0209991C000019999999N0000001N9-00671+99999103791ADDGF108991999999999999999999
0029228920999991913011113004+60717+028783FM-12+000399999V0202901N001019999999N0000001N9-00331+99999103401ADDGF108991999999999999999999
0029228920999991913011120004+60717+028783FM-12+000399999V0209991C000019999999N0000001N9-00221+99999103301ADDGF108991999999999999999999
0029228920999991913011206004+60717+028783FM-12+000399999V0200201N001019999999N0000001N9-00441+99999103181ADDGF108991999999999999999999
0029228920999991913011213004+60717+028783FM-12+000399999V0200501N001019999999N0000001N9-00441+99999103031ADDGF108991999999999999999999
0029228920999991913011220004+60717+028783FM-12+000399999V0200201N001019999999N0000001N9-00831+99999102871ADDGF108991999999999999999999
0029228920999991913011306004+60717+028783FM-12+000399999V0203601N001019999999N0000001N9-01111+99999102601ADDGF108991999999999999999999
0029228920999991913011313004+60717+028783FM-12+000399999V0203601N001019999999N0000001N9-01001+99999102661ADDGF108991999999999999999999
0029228920999991913011320004+60717+028783FM-12+000399999V0203601N001019999999N0000001N9-00831+99999102831ADDGF108991999999999999999999
0029228920999991913011406004+60717+028783FM-12+000399999V0200501N001019999999N0000001N9-00611+99999103061ADDGF108991999999999999999999
0029228920999991913011413004+60717+028783FM-12+000399999V0203401N001019999999N0000001N9-00671+99999103111ADDGF108991999999999999999999
0029228920999991913011420004+60717+028783FM-12+000399999V0203401N002619999999N0000001N9-00721+99999102921ADDGF108991999999999999999999
0029228920999991913011506004+60717+028783FM-12+000399999V0203401N001019999999N0000001N9-00941+99999102821ADDGF100991999999999999999999
0029228920999991913011513004+60717+028783FM-12+000399999V0209991C000019999999N0000001N9-00941+99999102831ADDGF100991999999999999999999
0029228920999991913011520004+60717+028783FM-12+000399999V0209991C000019999999N0000001N9-01331+99999102841ADDGF100991999999999999999999
0029228920999991913011606004+60717+028783FM-12+000399999V0209991C000019999999N0000001N9-01281+99999102641ADDGF108991999999999999999999
0029228920999991913011613004+60717+028783FM-12+000399999V0209991C000019999999N0000001N9-01111+99999102441ADDGF108991999999999999999999
0029228920999991913011620004+60717+028783FM-12+000399999V0209991C000019999999N0000001N9-00891+99999102201ADDGF108991999999999999999999
0035228920999991913011706004+60717+028783FM-12+000399999V0202301N002619999999N0000001N9-00391+99999101631ADDGF108991999999999999999999MW1701
0029228920999991913011713004+60717+028783FM-12+000399999V0202501N002619999999N0000001N9-00281+99999101621ADDGF108991999999999999999999
0029228920999991913011720004+60717+028783FM-12+000399999V0202301N006719999999N0000001N9-00441+99999101481ADDGF108991999999999999999999
0029228920999991913011806004+60717+028783FM-12+000399999V0202001N001019999999N0000001N9-00831+99999101421ADDGF108991999999999999999999
0029228920999991913011813004+60717+028783FM-12+000399999V0201101N002619999999N0000001N9-01001+99999101351ADDGF108991999999999999999999
0029228920999991913011820004+60717+028783FM-12+000399999V0201101N002619999999N0000001N9-01221+99999101271ADDGF108991999999999999999999
0029228920999991913011906004+60717+028783FM-12+000399999V0201101N002619999999N0000001N9-01221+99999101041ADDGF108991999999999999999999
0035228920999991913011913004+60717+028783FM-12+000399999V0200901N001019999999N0000001N9-01061+99999100871ADDGF108991999999999999999999MW1701
0029228920999991913011920004+60717+028783FM-12+000399999V0209991C000019999999N0000001N9-01111+99999100821ADDGF108991999999999999999999
0029228920999991913012006004+60717+028783FM-12+000399999V0200501N001019999999N0000001N9-01061+99999100881ADDGF108991999999999999999999
0029228920999991913012013004+60717+028783FM-12+000399999V0209991C000019999999N0000001N9-01171+99999101111ADDGF101991999999999999999999
0029228920999991913012020004+60717+028783FM-12+000399999V0209991C000019999999N0000001N9-01721+99999101341ADDGF100991999999999999999999
0029228920999991913012106004+60717+028783FM-12+000399999V0202501N002619999999N0000001N9-01061+99999101281ADDGF108991999999999999999999
0029228920999991913012113004+60717+028783FM-12+000399999V0202501N006719999999N0000001N9-00891+99999101271ADDGF101991999999999999999999
0029228920999991913012120004+60717+028783FM-12+000399999V0202501N006719999999N0000001N9-00831+99999101441ADDGF108991999999999999999999
0029228920999991913012206004+60717+028783FM-12+000399999V0202701N004619999999N0000001N9-00891+99999101541ADDGF108991999999999999999999
0029228920999991913012213004+60717+028783FM-12+000399999V0202301N004619999999N0000001N9-00781+99999101661ADDGF100991999999999999999999
0029228920999991913012220004+60717+028783FM-12+000399999V0202301N001019999999N0000001N9-00941+99999101801ADDGF100991999999999999999999
0029228920999991913012306004+60717+028783FM-12+000399999V0209991C000019999999N0000001N9-01061+99999102061ADDGF100991999999999999999999
0029228920999991913012313004+60717+028783FM-12+000399999V0209991C000019999999N0000001N9-00671+99999102181ADDGF100991999999999999999999
0029228920999991913012320004+60717+028783FM-12+000399999V0201601N001019999999N0000001N9-01331+99999102111ADDGF100991999999999999999999
0029228920999991913012406004+60717+028783FM-12+000399999V0201401N001019999999N0000001N9-01391+99999101681ADDGF106991999999999999999999
0029228920999991913012413004+60717+028783FM-12+000399999V0201601N002619999999N0000001N9-00831+99999101541ADDGF108991999999999999999999
0029228920999991913012420004+60717+028783FM-12+000399999V0201401N001019999999N0000001N9-01281+99999101321ADDGF107991999999999999999999
0029228920999991913012506004+60717+028783FM-12+000399999V0209991C000019999999N0000001N9-01171+99999100911ADDGF108991999999999999999999
0035228920999991913012513004+60717+028783FM-12+000399999V0209991C000019999999N0000001N9-01061+99999100661ADDGF108991999999999999999999MW1701
0035228920999991913012520004+60717+028783FM-12+000399999V0209991C000019999999N0000001N9-01061+99999100511ADDGF108991999999999999999999MW1701
0029228920999991913012606004+60717+028783FM-12+000399999V0209991C000019999999N0000001N9-01111+99999100221ADDGF108991999999999999999999
0029228920999991913012613004+60717+028783FM-12+000399999V0200201N001019999999N0000001N9-01221+99999100191ADDGF108991999999999999999999
0029228920999991913012620004+60717+028783FM-12+000399999V0200201N004619999999N0000001N9-01391+99999100461ADDGF108991999999999999999999
0035228920999991913012706004+60717+028783FM-12+000399999V0200501N002619999999N0000001N9-01281+99999100841ADDGF108991999999999999999999MW1701
0029228920999991913012713004+60717+028783FM-12+000399999V0200501N002619999999N0000001N9-01391+99999101401ADDGF106991999999999999999999
0029228920999991913012720004+60717+028783FM-12+000399999V0200501N002619999999N0000001N9-01391+99999101981ADDGF100991999999999999999999
0029228920999991913012806004+60717+028783FM-12+000399999V0200201N001019999999N0000001N9-01561+99999102621ADDGF107991999999999999999999
0029228920999991913012813004+60717+028783FM-12+000399999V0203601N002619999999N0000001N9-00831+99999102941ADDGF108991999999999999999999
0029228920999991913012820004+60717+028783FM-12+000399999V0200701N001019999999N0000001N9-01111+99999103191ADDGF108991999999999999999999
0029228920999991913012906004+60717+028783FM-12+000399999V0209991C000019999999N0000001N9-01721+99999103161ADDGF100991999999999999999999
0029228920999991913012913004+60717+028783FM-12+000399999V0202301N002619999999N0000001N9-01221+99999103031ADDGF108991999999999999999999
0029228920999991913012920004+60717+028783FM-12+000399999V0202701N002619999999N0000001N9-00941+99999102901ADDGF108991999999999999999999
0029228920999991913013006004+60717+028783FM-12+000399999V0202701N002619999999N0000001N9-00891+99999102591ADDGF108991999999999999999999
0029228920999991913013013004+60717+028783FM-12+000399999V0202701N004619999999N0000001N9-00611+99999102361ADDGF108991999999999999999999
0029228920999991913013020004+60717+028783FM-12+000399999V0202501N002619999999N0000001N9-00671+99999102231ADDGF100991999999999999999999
0029228920999991913013106004+60717+028783FM-12+000399999V0202301N006719999999N0000001N9-00331+99999101991ADDGF108991999999999999999999
0029228920999991913013113004+60717+028783FM-12+000399999V0202001N004619999999N0000001N9-00781+99999101861ADDGF103991999999999999999999
0029228920999991913013120004+60717+028783FM-12+000399999V0201601N002619999999N0000001N9-01171+99999101621ADDGF100991999999999999999999
0029228920999991913020106004+60717+028783FM-12+000399999V0201601N004619999999N0000001N9-01281+99999101061ADDGF100991999999999999999999
0029228920999991913020113004+60717+028783FM-12+000399999V0201601N004619999999N0000001N9-01171+99999100961ADDGF108991999999999999999999
0029228920999991913020120004+60717+028783FM-12+000399999V0201801N002619999999N0000001N9-01111+99999100961ADDGF108991999999999999999999
0029228920999991913020206004+60717+028783FM-12+000399999V0201801N001019999999N0000001N9-00721+99999101001ADDGF108991999999999999999999
0035228920999991913020213004+60717+028783FM-12+000399999V0201801N002619999999N0000001N9-00171+99999100601ADDGF108991999999999999999999MW1721
0029228920999991913020220004+60717+028783FM-12+000399999V0201801N001019999999N0000001N9-00221+99999100481ADDGF108991999999999999999999
0029228920999991913020306004+60717+028783FM-12+000399999V0201101N001019999999N0000001N9-00441+99999099901ADDGF108991999999999999999999
0029228920999991913020313004+60717+028783FM-12+000399999V0200201N001019999999N0000001N9-00441+99999099831ADDGF108991999999999999999999
0029228920999991913020320004+60717+028783FM-12+000399999V0202901N001019999999N0000001N9-00561+99999100101ADDGF108991999999999999999999
0029228920999991913020406004+60717+028783FM-12+000399999V0201601N001019999999N0000001N9-00561+99999099441ADDGF108991999999999999999999
0035228920999991913020413004+60717+028783FM-12+000399999V0201401N002619999999N0000001N9-00391+99999098661ADDGF108991999999999999999999MW1721
0035228920999991913020420004+60717+028783FM-12+000399999V0201401N001019999999N0000001N9-00441+99999098631ADDGF108991999999999999999999MW1721
0035228920999991913020506004+60717+028783FM-12+000399999V0202301N002619999999N0000001N9-00281+99999098721ADDGF108991999999999999999999MW1721
0029228920999991913020513004+60717+028783FM-12+000399999V0202301N006719999999N0000001N9-00111+99999099001ADDGF108991999999999999999999
0029228920999991913020520004+60717+028783FM-12+000399999V0202301N002619999999N0000001N9-00061+99999099861ADDGF108991999999999999999999
0029228920999991913020606004+60717+028783FM-12+000399999V0202301N001019999999N0000001N9-00781+99999100271ADDGF103991999999999999999999
0035228920999991913020613004+60717+028783FM-12+000399999V0201401N001019999999N0000001N9-00111+99999099831ADDGF108991999999999999999999MW1721
0035228920999991913020620004+60717+028783FM-12+000399999V0200901N002619999999N0000001N9-00111+99999099721ADDGF108991999999999999999999MW1721
0029228920999991913020706004+60717+028783FM-12+000399999V0200201N001019999999N0000001N9-00331+99999101141ADDGF107991999999999999999999
0029228920999991913020713004+60717+028783FM-12+000399999V0209991C000019999999N0000001N9-00221+99999101701ADDGF108991999999999999999999
0029228920999991913020720004+60717+028783FM-12+000399999V0201401N002619999999N0000001N9-00441+99999101681ADDGF108991999999999999999999
0029228920999991913020806004+60717+028783FM-12+000399999V0201401N002619999999N0000001N9-00331+99999101401ADDGF108991999999999999999999
0029228920999991913020813004+60717+028783FM-12+000399999V0201601N002619999999N0000001N9-00171+99999101301ADDGF108991999999999999999999
0035228920999991913020820004+60717+028783FM-12+000399999V0201601N002619999999N0000001N9+00001+99999100881ADDGF108991999999999999999999MW1721
0029228920999991913020906004+60717+028783FM-12+000399999V0202001N001019999999N0000001N9+00171+99999100141ADDGF108991999999999999999999
0035228920999991913020913004+60717+028783FM-12+000399999V0209991C000019999999N0000001N9+00111+99999100231ADDGF108991999999999999999999MW1721
0029228920999991913020920004+60717+028783FM-12+000399999V0209991C000019999999N0000001N9+00111+99999100561ADDGF108991999999999999999999
0029228920999991913021006004+60717+028783FM-12+000399999V0209991C000019999999N0000001N9+00061+99999100661ADDGF108991999999999999999999
0035228920999991913021013004+60717+028783FM-12+000399999V0209991C000019999999N0000001N9+00001+99999101071ADDGF108991999999999999999999MW1721
0029228920999991913021020004+60717+028783FM-12+000399999V0209991C000019999999N0000001N9-00281+99999101421ADDGF108991999999999999999999
0035228920999991913021106004+60717+028783FM-12+000399999V0209991C000019999999N0000001N9-00391+99999101501ADDGF108991999999999999999999MW1721
0035228920999991913021113004+60717+028783FM-12+000399999V0209991C000019999999N0000001N9-00281+99999101751ADDGF108991999999999999999999MW1721
0029228920999991913021120004+60717+028783FM-12+000399999V0200701N001019999999N0000001N9-00611+99999102241ADDGF108991999999999999999999
0029228920999991913021206004+60717+028783FM-12+000399999V0209991C000019999999N0000001N9-00891+99999102791ADDGF108991999999999999999999
0029228920999991913021213004+60717+028783FM-12+000399999V0202501N002619999999N0000001N9-00781+99999102701ADDGF108991999999999999999999
0029228920999991913021220004+60717+028783FM-12+000399999V0202701N002619999999N0000001N9-00331+99999101521ADDGF108991999999999999999999
0029228920999991913021306004+60717+028783FM-12+000399999V0200701N002619999999N0000001N9-00941+99999101991ADDGF108991999999999999999999
0029228920999991913021313004+60717+028783FM-12+000399999V0209991C000019999999N0000001N9-00891+99999102661ADDGF100991999999999999999999
0029228920999991913021320004+60717+028783FM-12+000399999V0209991C000019999999N0000001N9-01441+99999103151ADDGF100991999999999999999999
0029228920999991913021406004+60717+028783FM-12+000399999V0209991C000019999999N0000001N9-02111+99999103341ADDGF108991999999999999999999
0029228920999991913021413004+60717+028783FM-12+000399999V0202001N001019999999N0000001N9-01331+99999103021ADDGF108991999999999999999999
0035228920999991913021420004+60717+028783FM-12+000399999V0202001N006719999999N0000001N9-00781+99999102361ADDGF108991999999999999999999MW1721
0029228920999991913021506004+60717+028783FM-12+000399999V0209991C000019999999N0000001N9-00611+99999102511ADDGF108991999999999999999999
0029228920999991913021513004+60717+028783FM-12+000399999V0200201N001019999999N0000001N9-00671+99999102941ADDGF108991999999999999999999
0029228920999991913021520004+60717+028783FM-12+000399999V0209991C000019999999N0000001N9-00721+99999103101ADDGF108991999999999999999999
0029228920999991913021606004+60717+028783FM-12+000399999V0202501N002619999999N0000001N9-00671+99999103081ADDGF108991999999999999999999
0029228920999991913021613004+60717+028783FM-12+000399999V0202001N006719999999N0000001N9-00561+99999103041ADDGF108991999999999999999999
0029228920999991913021620004+60717+028783FM-12+000399999V0202301N004619999999N0000001N9-00391+99999102961ADDGF108991999999999999999999
0035228920999991913021706004+60717+028783FM-12+000399999V0202701N002619999999N0000001N9-00221+99999102641ADDGF108991999999999999999999MW1721
0029228920999991913021713004+60717+028783FM-12+000399999V0202901N001019999999N0000001N9+00001+99999102661ADDGF101991999999999999999999
0029228920999991913021720004+60717+028783FM-12+000399999V0203401N004619999999N0000001N9-00611+99999103181ADDGF100991999999999999999999
0029228920999991913021806004+60717+028783FM-12+000399999V0203401N001019999999N0000001N9-01171+99999103521ADDGF100991999999999999999999
0029228920999991913021813004+60717+028783FM-12+000399999V0209991C000019999999N0000001N9-00441+99999103481ADDGF100991999999999999999999
0029228920999991913021820004+60717+028783FM-12+000399999V0209991C000019999999N0000001N9-01561+99999103161ADDGF100991999999999999999999
0029228920999991913021906004+60717+028783FM-12+000399999V0202301N009319999999N0000001N9-00781+99999102121ADDGF108991999999999999999999
0029228920999991913021913004+60717+028783FM-12+000399999V0202501N002619999999N0000001N9-00281+99999101661ADDGF108991999999999999999999
0029228920999991913021920004+60717+028783FM-12+000399999V0209991C000019999999N0000001N9-00331+99999101631ADDGF100991999999999999999999
0029228920999991913022006004+60717+028783FM-12+000399999V0209991C000019999999N0000001N9-01281+99999101311ADDGF107991999999999999999999
0035228920999991913022013004+60717+028783FM-12+000399999V0202001N009319999999N0000001N9-00501+99999100621ADDGF108991999999999999999999MW1721
0029228920999991913022020004+60717+028783FM-12+000399999V0202301N002619999999N0000001N9-00281+99999099791ADDGF108991999999999999999999
0029228920999991913022106004+60717+028783FM-12+000399999V0202701N004619999999N0000001N9-01171+99999099681ADDGF100991999999999999999999
0029228920999991913022113004+60717+028783FM-12+000399999V0202901N004619999999N0000001N9-00721+99999099921ADDGF100991999999999999999999
0029228920999991913022120004+60717+028783FM-12+000399999V0202701N004619999999N0000001N9-00831+99999099901ADDGF101991999999999999999999
0029228920999991913022206004+60717+028783FM-12+000399999V0202901N001019999999N0000001N9-01061+99999100041ADDGF100991999999999999999999
0029228920999991913022213004+60717+028783FM-12+000399999V0202901N004619999999N0000001N9-00721+99999100421ADDGF100991999999999999999999
0029228920999991913022220004+60717+028783FM-12+000399999V0202701N001019999999N0000001N9-01331+99999100741ADDGF102991999999999999999999
0029228920999991913022306004+60717+028783FM-12+000399999V0209991C000019999999N0000001N9-01941+99999100951ADDGF100991999999999999999999
0029228920999991913022313004+60717+028783FM-12+000399999V0202301N001019999999N0000001N9-01111+99999100961ADDGF100991999999999999999999
0029228920999991913022320004+60717+028783FM-12+000399999V0202301N001019999999N0000001N9-01111+99999100761ADDGF100991999999999999999999
0035228920999991913022406004+60717+028783FM-12+000399999V0201401N002619999999N0000001N9-00831+99999099521ADDGF108991999999999999999999MW1721
0029228920999991913022413004+60717+028783FM-12+000399999V0203401N009319999999N0000001N9-00671+99999099701ADDGF102991999999999999999999
0029228920999991913022420004+60717+028783FM-12+000399999V0209991C000019999999N0000001N9-01061+99999100661ADDGF100991999999999999999999
0029228920999991913022506004+60717+028783FM-12+000399999V0209991C000019999999N0000001N9-01611+99999101201ADDGF100991999999999999999999
0029228920999991913022513004+60717+028783FM-12+000399999V0202901N002619999999N0000001N9-00671+99999101501ADDGF100991999999999999999999
0029228920999991913022520004+60717+028783FM-12+000399999V0209991C000019999999N0000001N9-01441+99999101581ADDGF100991999999999999999999
0035228920999991913022606004+60717+028783FM-12+000399999V0201601N002619999999N0000001N9-01061+99999100871ADDGF108991999999999999999999MW1721
0035228920999991913022613004+60717+028783FM-12+000399999V0201601N002619999999N0000001N9-00721+99999100271ADDGF108991999999999999999999MW1721
0029228920999991913022620004+60717+028783FM-12+000399999V0202301N006719999999N0000001N9-00171+99999099241ADDGF108991999999999999999999
0029228920999991913022706004+60717+028783FM-12+000399999V0203401N002619999999N0000001N9-00561+99999099321ADDGF101991999999999999999999
0029228920999991913022713004+60717+028783FM-12+000399999V0202301N004619999999N0000001N9-00501+99999099881ADDGF100991999999999999999999
0029228920999991913022720004+60717+028783FM-12+000399999V0209991C000019999999N0000001N9-01391+99999100021ADDGF100991999999999999999999
0029228920999991913022806004+60717+028783FM-12+000399999V0209991C000019999999N0000001N9-01171+99999099741ADDGF108991999999999999999999
0035228920999991913022813004+60717+028783FM-12+000399999V0203401N001019999999N0000001N9-00831+99999099681ADDGF108991999999999999999999MW1701
0035228920999991913022820004+60717+028783FM-12+000399999V0209991C000019999999N0000001N9-01171+99999099861ADDGF108991999999999999999999MW1701
0029228920999991913030106004+60717+028783FM-12+000399999V0203601N002619999999N0000001N9-01611+99999100471ADDGF108991999999999999999999
0029228920999991913030113004+60717+028783FM-12+000399999V0203401N009319999999N0000001N9-01501+99999100801ADDGF100991999999999999999999
0029228920999991913030120004+60717+028783FM-12+000399999V0203401N009319999999N0000001N9-01611+99999101041ADDGF100991999999999999999999
0029228920999991913030206004+60717+028783FM-12+000399999V0203401N006719999999N0000001N9-01561+99999101351ADDGF100991999999999999999999
0029228920999991913030213004+60717+028783FM-12+000399999V0203401N006719999999N0000001N9-00781+99999101471ADDGF100991999999999999999999
0029228920999991913030220004+60717+028783FM-12+000399999V0203401N001019999999N0000001N9-01331+99999101481ADDGF100991999999999999999999
0029228920999991913030306004+60717+028783FM-12+000399999V0209991C000019999999N0000001N9-02441+99999101521ADDGF100991999999999999999999
0035228920999991913030313004+60717+028783FM-12+000399999V0201801N002619999999N0000001N9-00891+99999100871ADDGF108991999999999999999999MW1721
0035228920999991913030320004+60717+028783FM-12+000399999V0201801N002619999999N0000001N9-00281+99999099781ADDGF108991999999999999999999MW1721
0035228920999991913030406004+60717+028783FM-12+000399999V0201601N006719999999N0000001N9-00391+99999098671ADDGF108991999999999999999999MW1721
0029228920999991913030413004+60717+028783FM-12+000399999V0202501N004619999999N0000001N9+00171+99999098591ADDGF108991999999999999999999
0029228920999991913030420004+60717+028783FM-12+000399999V0202501N002619999999N0000001N9+00111+99999099271ADDGF108991999999999999999999
0029228920999991913030506004+60717+028783FM-12+000399999V0202001N004619999999N0000001N9-00441+99999099621ADDGF108991999999999999999999
0035228920999991913030513004+60717+028783FM-12+000399999V0201801N012319999999N0000001N9+00111+99999098911ADDGF108991999999999999999999MW1621
0029228920999991913030520004+60717+028783FM-12+000399999V0202501N006719999999N0000001N9+00171+99999098821ADDGF108991999999999999999999
0029228920999991913030606004+60717+028783FM-12+000399999V0202301N006719999999N0000001N9-00281+99999099431ADDGF100991999999999999999999
0029228920999991913030613004+60717+028783FM-12+000399999V0202501N022619999999N0000001N9+00281+99999099351ADDGF108991999999999999999999
0029228920999991913030620004+60717+028783FM-12+000399999V0202501N006719999999N0000001N9+00221+99999098881ADDGF108991999999999999999999
0029228920999991913030706004+60717+028783FM-12+000399999V0202501N002619999999N0000001N9+00001+99999099471ADDGF100991999999999999999999
0029228920999991913030713004+60717+028783FM-12+000399999V0202301N004619999999N0000001N9+00111+99999099431ADDGF107991999999999999999999
0029228920999991913030720004+60717+028783FM-12+000399999V0202301N006719999999N0000001N9+00061+99999098261ADDGF108991999999999999999999
0035228920999991913030806004+60717+028783FM-12+000399999V0202301N002619999999N0000001N9+00001+99999097511ADDGF108991999999999999999999MW1721
0035228920999991913030813004+60717+028783FM-12+000399999V0203401N002619999999N0000001N9+00111+99999098001ADDGF108991999999999999999999MW1721
0029228920999991913030820004+60717+028783FM-12+000399999V0203401N002619999999N0000001N9+00111+99999098751ADDGF108991999999999999999999
0029228920999991913030906004+60717+028783FM-12+000399999V0203201N004619999999N0000001N9-00501+99999099921ADDGF100991999999999999999999
0029228920999991913030913004+60717+028783FM-12+000399999V0203401N004619999999N0000001N9+00061+99999100641ADDGF100991999999999999999999
0029228920999991913030920004+60717+028783FM-12+000399999V0202701N001019999999N0000001N9-00281+99999101181ADDGF100991999999999999999999
0029228920999991913031006004+60717+028783FM-12+000399999V0202001N006719999999N0000001N9-00441+99999100621ADDGF107991999999999999999999
0035228920999991913031013004+60717+028783FM-12+000399999V0201801N019019999999N0000001N9+00001+99999099481ADDGF108991999999999999999999MW1721
0035228920999991913031020004+60717+028783FM-12+000399999V0202301N012319999999N0000001N9+00061+99999098741ADDGF108991999999999999999999MW1621
0035228920999991913031106004+60717+028783FM-12+000399999V0202301N002619999999N0000001N9+00001+99999098761ADDGF108991999999999999999999MW1721
0029228920999991913031113004+60717+028783FM-12+000399999V0202901N004619999999N0000001N9+00281+99999099201ADDGF108991999999999999999999
0029228920999991913031120004+60717+028783FM-12+000399999V0203201N002619999999N0000001N9+00001+99999099861ADDGF101991999999999999999999
0029228920999991913031206004+60717+028783FM-12+000399999V0209991C000019999999N0000001N9-00671+99999100321ADDGF100991999999999999999999
0029228920999991913031213004+60717+028783FM-12+000399999V0202001N006719999999N0000001N9-00171+99999100561ADDGF108991999999999999999999
0029228920999991913031220004+60717+028783FM-12+000399999V0209991C000019999999N0000001N9-00281+99999100941ADDGF100991999999999999999999
0029228920999991913031306004+60717+028783FM-12+000399999V0209991C000019999999N0000001N9-00721+99999101041ADDGF100991999999999999999999
0029228920999991913031313004+60717+028783FM-12+000399999V0202001N009319999999N0000001N9+00171+99999100631ADDGF108991999999999999999999
0029228920999991913031320004+60717+028783FM-12+000399999V0202001N006719999999N0000001N9+00111+99999100041ADDGF105991999999999999999999
0029228920999991913031406004+60717+028783FM-12+000399999V0202901N001019999999N0000001N9-00281+99999100561ADDGF100991999999999999999999
0029228920999991913031413004+60717+028783FM-12+000399999V0202301N002619999999N0000001N9+00061+99999100921ADDGF100991999999999999999999
0029228920999991913031420004+60717+028783FM-12+000399999V0201801N004619999999N0000001N9-00061+99999100551ADDGF100991999999999999999999
0029228920999991913031506004+60717+028783FM-12+000399999V0202501N006719999999N0000001N9+00061+99999099511ADDGF108991999999999999999999
0029228920999991913031513004+60717+028783FM-12+000399999V0202301N002619999999N0000001N9+00061+99999099321ADDGF108991999999999999999999
0035228920999991913031520004+60717+028783FM-12+000399999V0202301N002619999999N0000001N9+00001+99999098721ADDGF108991999999999999999999MW1721
0029228920999991913031606004+60717+028783FM-12+000399999V0202701N002619999999N0000001N9-00171+99999099441ADDGF108991999999999999999999
0029228920999991913031613004+60717+028783FM-12+000399999V0202501N002619999999N0000001N9+00111+99999099761ADDGF108991999999999999999999
0029228920999991913031620004+60717+028783FM-12+000399999V0202301N004619999999N0000001N9+00001+99999099781ADDGF108991999999999999999999
0029228920999991913031706004+60717+028783FM-12+000399999V0202301N002619999999N0000001N9+00061+99999098741ADDGF108991999999999999999999
0035228920999991913031713004+60717+028783FM-12+000399999V0202301N002619999999N0000001N9+00061+99999098701ADDGF108991999999999999999999MW1721
0029228920999991913031720004+60717+028783FM-12+000399999V0202501N002619999999N0000001N9-00061+99999099701ADDGF100991999999999999999999
0029228920999991913031806004+60717+028783FM-12+000399999V0201601N001019999999N0000001N9-00671+99999099941ADDGF108991999999999999999999
0035228920999991913031813004+60717+028783FM-12+000399999V0201401N012319999999N0000001N9+00001+99999098801ADDGF108991999999999999999999MW1721
0029228920999991913031820004+60717+028783FM-12+000399999V0202001N019019999999N0000001N9+00281+99999098391ADDGF108991999999999999999999
0029228920999991913031906004+60717+028783FM-12+000399999V0202001N015419999999N0000001N9-00111+99999098421ADDGF108991999999999999999999
0029228920999991913031913004+60717+028783FM-12+000399999V0202301N019019999999N0000001N9+00111+99999098681ADDGF102991999999999999999999
0029228920999991913031920004+60717+028783FM-12+000399999V0202501N004619999999N0000001N9-00111+99999099151ADDGF108991999999999999999999
0029228920999991913032006004+60717+028783FM-12+000399999V0202001N002619999999N0000001N9-00221+99999099421ADDGF108991999999999999999999
0029228920999991913032013004+60717+028783FM-12+000399999V0201601N002619999999N0000001N9+00391+99999099151ADDGF106991999999999999999999
0029228920999991913032020004+60717+028783FM-12+000399999V0201601N002619999999N0000001N9+00221+99999098981ADDGF108991999999999999999999
0035228920999991913032106004+60717+028783FM-12+000399999V0202001N004619999999N0000001N9+00061+99999098751ADDGF108991999999999999999999MW1721
0029228920999991913032113004+60717+028783FM-12+000399999V0202301N006719999999N0000001N9+00111+99999099111ADDGF108991999999999999999999
0029228920999991913032120004+60717+028783FM-12+000399999V0209991C000019999999N0000001N9+00061+99999099441ADDGF108991999999999999999999
0029228920999991913032206004+60717+028783FM-12+000399999V0203401N001019999999N0000001N9-00061+99999100311ADDGF108991999999999999999999
0029228920999991913032213004+60717+028783FM-12+000399999V0202301N004619999999N0000001N9+00061+99999100561ADDGF108991999999999999999999
0035228920999991913032220004+60717+028783FM-12+000399999V0201401N001019999999N0000001N9+00061+99999100201ADDGF108991999999999999999999MW1721
0029228920999991913032306004+60717+028783FM-12+000399999V0209991C000019999999N0000001N9+00001+99999100751ADDGF108991999999999999999999
0029228920999991913032313004+60717+028783FM-12+000399999V0202301N004619999999N0000001N9+00001+99999101241ADDGF108991999999999999999999
0029228920999991913032320004+60717+028783FM-12+000399999V0201601N002619999999N0000001N9+00171+99999100601ADDGF108991999999999999999999
0029228920999991913032406004+60717+028783FM-12+000399999V0202301N004619999999N0000001N9+00111+99999100261ADDGF108991999999999999999999
0029228920999991913032413004+60717+028783FM-12+000399999V0202301N002619999999N0000001N9+00171+99999100391ADDGF108991999999999999999999
0029228920999991913032420004+60717+028783FM-12+000399999V0202001N002619999999N0000001N9+00061+99999100281ADDGF108991999999999999999999
0029228920999991913032506004+60717+028783FM-12+000399999V0203201N001019999999N0000001N9+00061+99999100431ADDGF108991999999999999999999
0029228920999991913032513004+60717+028783FM-12+000399999V0203401N001019999999N0000001N9+00331+99999100901ADDGF108991999999999999999999
0029228920999991913032520004+60717+028783FM-12+000399999V0209991C000019999999N0000001N9-00221+99999101841ADDGF100991999999999999999999
0029228920999991913032606004+60717+028783FM-12+000399999V0202301N002619999999N0000001N9-00171+99999101781ADDGF100991999999999999999999
0029228920999991913032613004+60717+028783FM-12+000399999V0202001N006719999999N0000001N9+00281+99999101641ADDGF102991999999999999999999
0029228920999991913032620004+60717+028783FM-12+000399999V0202301N001019999999N0000001N9+00171+99999101551ADDGF100991999999999999999999
0029228920999991913032706004+60717+028783FM-12+000399999V0203401N001019999999N0000001N9+00171+99999101871ADDGF100991999999999999999999
0029228920999991913032713004+60717+028783FM-12+000399999V0203401N009319999999N0000001N9+00501+99999102101ADDGF100991999999999999999999
0048228920999991913032720004+60717+028783FM-12+000399999V0209991C000019999999N0000001N9-00171+99999999999ADDGF100991999999999999999999EQDQ01 099883APOSLP
0029228920999991913032806004+60717+028783FM-12+000399999V0200501N001019999999N0000001N9-00391+99999103341ADDGF100991999999999999999999
0029228920999991913032813004+60717+028783FM-12+000399999V0200901N002619999999N0000001N9+00001+99999103661ADDGF100991999999999999999999
0029228920999991913032820004+60717+028783FM-12+000399999V0209991C000019999999N0000001N9-00501+99999103761ADDGF100991999999999999999999
0029228920999991913032906004+60717+028783FM-12+000399999V0209991C000019999999N0000001N9-00831+99999103841ADDGF100991999999999999999999
0029228920999991913032913004+60717+028783FM-12+000399999V0202301N002619999999N0000001N9+00061+99999103711ADDGF100991999999999999999999
0029228920999991913032920004+60717+028783FM-12+000399999V0209991C000019999999N0000001N9-00441+99999103511ADDGF100991999999999999999999
0029228920999991913033006004+60717+028783FM-12+000399999V0209991C000019999999N0000001N9-00671+99999103391ADDGF100991999999999999999999
0029228920999991913033013004+60717+028783FM-12+000399999V0202501N001019999999N0000001N9+00221+99999103121ADDGF100991999999999999999999
0029228920999991913033020004+60717+028783FM-12+000399999V0209991C000019999999N0000001N9-00331+99999102871ADDGF100991999999999999999999
0029228920999991913033106004+60717+028783FM-12+000399999V0209991C000019999999N0000001N9-00671+99999102601ADDGF102991999999999999999999
0029228920999991913033113004+60717+028783FM-12+000399999V0209991C000019999999N0000001N9+00721+99999102421ADDGF100991999999999999999999
0029228920999991913033120004+60717+028783FM-12+000399999V0209991C000019999999N0000001N9+00331+99999102231ADDGF108991999999999999999999
0029228920999991913040106004+60717+028783FM-12+000399999V0209991C000019999999N0000001N9+00111+99999101981ADDGF101991999999999999999999
0029228920999991913040113004+60717+028783FM-12+000399999V0209991C000019999999N0000001N9+01001+99999101841ADDGF100991999999999999999999
0029228920999991913040120004+60717+028783FM-12+000399999V0203601N001019999999N0000001N9+00171+99999101831ADDGF100991999999999999999999
0029228920999991913040206004+60717+028783FM-12+000399999V0209991C000019999999N0000001N9+00001+99999101781ADDGF100991999999999999999999
0029228920999991913040213004+60717+028783FM-12+000399999V0209991C000019999999N0000001N9+01171+99999101791ADDGF100991999999999999999999
0029228920999991913040220004+60717+028783FM-12+000399999V0209991C000019999999N0000001N9+00221+99999101861ADDGF100991999999999999999999
0029228920999991913040306004+60717+028783FM-12+000399999V0209991C000019999999N0000001N9+00171+99999101951ADDGF100991999999999999999999
0029228920999991913040313004+60717+028783FM-12+000399999V0209991C000019999999N0000001N9+01441+99999101871ADDGF100991999999999999999999
0029228920999991913040320004+60717+028783FM-12+000399999V0209991C000019999999N0000001N9+00391+99999101841ADDGF100991999999999999999999
0029228920999991913040406004+60717+028783FM-12+000399999V0203401N002619999999N0000001N9+00281+99999102101ADDGF108991999999999999999999
0029228920999991913040413004+60717+028783FM-12+000399999V0203201N002619999999N0000001N9+01061+99999102161ADDGF100991999999999999999999
0029228920999991913040420004+60717+028783FM-12+000399999V0202901N001019999999N0000001N9+00391+99999102271ADDGF100991999999999999999999
0029228920999991913040506004+60717+028783FM-12+000399999V0203401N002619999999N0000001N9+00061+99999102351ADDGF100991999999999999999999
0029228920999991913040513004+60717+028783FM-12+000399999V0203401N002619999999N0000001N9+00561+99999102141ADDGF102991999999999999999999
0029228920999991913040520004+60717+028783FM-12+000399999V0202001N001019999999N0000001N9+00061+99999101151ADDGF108991999999999999999999
0029228920999991913040606004+60717+028783FM-12+000399999V0202001N001019999999N0000001N9+00111+99999100841ADDGF108991999999999999999999
0029228920999991913040613004+60717+028783FM-12+000399999V0202001N006719999999N0000001N9+00391+99999100631ADDGF108991999999999999999999
0035228920999991913040620004+60717+028783FM-12+000399999V0202001N001019999999N0000001N9+00111+99999100341ADDGF108991999999999999999999MW1621
0029228920999991913040706004+60717+028783FM-12+000399999V0200701N002619999999N0000001N9+00171+99999100141ADDGF108991999999999999999999
0029228920999991913040713004+60717+028783FM-12+000399999V0200501N001019999999N0000001N9+00391+99999100041ADDGF108991999999999999999999
0029228920999991913040720004+60717+028783FM-12+000399999V0203401N002619999999N0000001N9+00171+99999999999ADDGF108991999999999999999999
0046228920999991913040806004+60717+028783FM-12+000399999V0203401N002619999999N0000001N9+00171+99999100151ADDAJ100009199999999GF108991999999999999999999
0029228920999991913040813004+60717+028783FM-12+000399999V0203401N004619999999N0000001N9+00561+99999100551ADDGF102991999999999999999999
0029228920999991913040820004+60717+028783FM-12+000399999V0203401N002619999999N0000001N9-00061+99999101081ADDGF100991999999999999999999
0046228920999991913040906004+60717+028783FM-12+000399999V0200201N001019999999N0000001N9-00061+99999101721ADDAJ100009199999999GF100991999999999999999999
0029228920999991913040913004+60717+028783FM-12+000399999V0201401N001019999999N0000001N9+00501+99999101671ADDGF100991999999999999999999
0029228920999991913040920004+60717+028783FM-12+000399999V0209991C000019999999N0000001N9-00111+99999101271ADDGF100991999999999999999999
0046228920999991913041006004+60717+028783FM-12+000399999V0209991C000019999999N0000001N9-00171+99999100161ADDAJ100009199999999GF108991999999999999999999
0029228920999991913041013004+60717+028783FM-12+000399999V0202501N002619999999N0000001N9+00281+99999099581ADDGF104991999999999999999999
0029228920999991913041020004+60717+028783FM-12+000399999V0209991C000019999999N0000001N9+00171+99999099231ADDGF108991999999999999999999
0052228920999991913041106004+60717+028783FM-12+000399999V0209991C000019999999N0000001N9+00061+99999098861ADDAJ100009199999999GF108991999999999999999999MW1721
0035228920999991913041113004+60717+028783FM-12+000399999V0209991C000019999999N0000001N9+00281+99999098791ADDGF108991999999999999999999MW1621
0035228920999991913041120004+60717+028783FM-12+000399999V0209991C000019999999N0000001N9+00061+99999098961ADDGF108991999999999999999999MW1621
0052228920999991913041206004+60717+028783FM-12+000399999V0209991C000019999999N0000001N9+00061+99999099021ADDAJ100009199999999GF108991999999999999999999MW1721
0029228920999991913041213004+60717+028783FM-12+000399999V0201401N001019999999N0000001N9+00671+99999099151ADDGF107991999999999999999999
0035228920999991913041220004+60717+028783FM-12+000399999V0202501N001019999999N0000001N9+00171+99999099421ADDGF108991999999999999999999MW1721
0029228920999991913041306004+60717+028783FM-12+000399999V0202001N004619999999N0000001N9-00171+99999099991ADDGF108991999999999999999999
0029228920999991913041313004+60717+028783FM-12+000399999V0202001N006719999999N0000001N9+00171+99999100641ADDGF102991999999999999999999
0029228920999991913041320004+60717+028783FM-12+000399999V0202001N002619999999N0000001N9-00111+99999101461ADDGF108991999999999999999999
0046228920999991913041406004+60717+028783FM-12+000399999V0209991C000019999999N0000001N9-00281+99999102191ADDAJ100009199999999GF108991999999999999999999
0029228920999991913041413004+60717+028783FM-12+000399999V0200201N001019999999N0000001N9+00171+99999102201ADDGF108991999999999999999999
0035228920999991913041420004+60717+028783FM-12+000399999V0203601N004619999999N0000001N9-00111+99999101901ADDGF108991999999999999999999MW1721
0029228920999991913041506004+60717+028783FM-12+000399999V0203401N004619999999N0000001N9-00171+99999101281ADDGF108991999999999999999999
0029228920999991913041513004+60717+028783FM-12+000399999V0203201N002619999999N0000001N9+00281+99999101431ADDGF108991999999999999999999
0029228920999991913041520004+60717+028783FM-12+000399999V0209991C000019999999N0000001N9+00001+99999101831ADDGF108991999999999999999999
0046228920999991913041606004+60717+028783FM-12+000399999V0209991C000019999999N0000001N9-00111+99999102161ADDAJ100009199999999GF100991999999999999999999
0029228920999991913041613004+60717+028783FM-12+000399999V0200701N004619999999N0000001N9+00611+99999102001ADDGF100991999999999999999999
0035228920999991913041620004+60717+028783FM-12+000399999V0200901N004619999999N0000001N9+00171+99999101701ADDGF108991999999999999999999MW1621
0046228920999991913041706004+60717+028783FM-12+000399999V0200701N001019999999N0000001N9+00221+99999101031ADDAJ100009199999999GF108991999999999999999999
0029228920999991913041713004+60717+028783FM-12+000399999V0201101N004619999999N0000001N9+01061+99999100601ADDGF100991999999999999999999
0029228920999991913041720004+60717+028783FM-12+000399999V0201401N001019999999N0000001N9+00781+99999100761ADDGF108991999999999999999999
0046228920999991913041806004+60717+028783FM-12+000399999V0201601N012319999999N0000001N9+00561+99999101021ADDAJ100009199999999GF100991999999999999999999
0029228920999991913041813004+60717+028783FM-12+000399999V0201601N006719999999N0000001N9+00781+99999101381ADDGF108991999999999999999999
0029228920999991913041820004+60717+028783FM-12+000399999V0201601N004619999999N0000001N9+00721+99999101471ADDGF108991999999999999999999
0046228920999991913041906004+60717+028783FM-12+000399999V0202301N001019999999N0000001N9+00611+99999102141ADDAJ100009199999999GF100991999999999999999999
0029228920999991913041913004+60717+028783FM-12+000399999V0201601N002619999999N0000001N9+01221+99999102141ADDGF103991999999999999999999
0035228920999991913041920004+60717+028783FM-12+000399999V0201101N002619999999N0000001N9+00441+99999101721ADDGF108991999999999999999999MW1621
0046228920999991913042006004+60717+028783FM-12+000399999V0201401N001019999999N0000001N9+01001+99999101511ADDAJ100009199999999GF108991999999999999999999
0029228920999991913042013004+60717+028783FM-12+000399999V0201601N002619999999N0000001N9+01671+99999101241ADDGF107991999999999999999999
0029228920999991913042020004+60717+028783FM-12+000399999V0202301N002619999999N0000001N9+01061+99999101311ADDGF108991999999999999999999
0046228920999991913042106004+60717+028783FM-12+000399999V0201401N002619999999N0000001N9+01001+99999101191ADDAJ100009199999999GF108991999999999999999999
0029228920999991913042113004+60717+028783FM-12+000399999V0202501N004619999999N0000001N9+01061+99999101461ADDGF108991999999999999999999
0029228920999991913042120004+60717+028783FM-12+000399999V0202301N001019999999N0000001N9+00501+99999101791ADDGF108991999999999999999999
0046228920999991913042206004+60717+028783FM-12+000399999V0209991C000019999999N0000001N9+00611+99999102071ADDAJ100009199999999GF108991999999999999999999
0029228920999991913042213004+60717+028783FM-12+000399999V0200501N001019999999N0000001N9+01111+99999102271ADDGF108991999999999999999999
0029228920999991913042220004+60717+028783FM-12+000399999V0209991C000019999999N0000001N9+00611+99999102361ADDGF100991999999999999999999
0046228920999991913042306004+60717+028783FM-12+000399999V0200501N001019999999N0000001N9+00501+99999102401ADDAJ100009199999999GF105991999999999999999999
0029228920999991913042413004+60717+028783FM-12+000399999V0201401N004619999999N0000001N9+01941+99999101881ADDGF101991999999999999999999
0029228920999991913042420004+60717+028783FM-12+000399999V0201401N001019999999N0000001N9+01061+99999101741ADDGF100991999999999999999999
0046228920999991913042506004+60717+028783FM-12+000399999V0201601N001019999999N0000001N9+01171+99999101541ADDAJ100009199999999GF100991999999999999999999
0029228920999991913042513004+60717+028783FM-12+000399999V0202501N002619999999N0000001N9+01501+99999101471ADDGF101991999999999999999999
0029228920999991913042520004+60717+028783FM-12+000399999V0201601N002619999999N0000001N9+01111+99999101301ADDGF100991999999999999999999
0046228920999991913042606004+60717+028783FM-12+000399999V0201601N001019999999N0000001N9+01001+99999101261ADDAJ100009199999999GF101991999999999999999999
0029228920999991913042613004+60717+028783FM-12+000399999V0202301N002619999999N0000001N9+01061+99999101471ADDGF100991999999999999999999
0029228920999991913042620004+60717+028783FM-12+000399999V0202301N001019999999N0000001N9+00721+99999101501ADDGF100991999999999999999999
0046228920999991913042706004+60717+028783FM-12+000399999V0202701N001019999999N0000001N9+00781+99999101471ADDAJ100009199999999GF108991999999999999999999
0029228920999991913042713004+60717+028783FM-12+000399999V0202501N002619999999N0000001N9+00941+99999101621ADDGF101991999999999999999999
0029228920999991913042720004+60717+028783FM-12+000399999V0209991C000019999999N0000001N9+00721+99999101761ADDGF100991999999999999999999
0046228920999991913042806004+60717+028783FM-12+000399999V0203601N001019999999N0000001N9+00721+99999102471ADDAJ100009199999999GF100991999999999999999999
0029228920999991913042813004+60717+028783FM-12+000399999V0200701N001019999999N0000001N9+01391+99999102801ADDGF102991999999999999999999
0029228920999991913042820004+60717+028783FM-12+000399999V0201101N001019999999N0000001N9+00671+99999102961ADDGF100991999999999999999999
0046228920999991913042906004+60717+028783FM-12+000399999V0209991C000019999999N0000001N9+00501+99999102881ADDAJ100009199999999GF100991999999999999999999
0029228920999991913042913004+60717+028783FM-12+000399999V0202301N006719999999N0000001N9+00941+99999102311ADDGF102991999999999999999999
0029228920999991913042920004+60717+028783FM-12+000399999V0200201N002619999999N0000001N9+01111+99999102201ADDGF108991999999999999999999
0046228920999991913043006004+60717+028783FM-12+000399999V0200901N002619999999N0000001N9-00061+99999102981ADDAJ100009199999999GF104991999999999999999999
0029228920999991913043013004+60717+028783FM-12+000399999V0203401N001019999999N0000001N9+00391+99999102791ADDGF102991999999999999999999
0029228920999991913043020004+60717+028783FM-12+000399999V0209991C000019999999N0000001N9+00221+99999102421ADDGF108991999999999999999999
0046228920999991913050106004+60717+028783FM-12+000399999V0209991C000019999999N0000001N9+00281+99999102341ADDAJ100009199999999GF108991999999999999999999
0029228920999991913050113004+60717+028783FM-12+000399999V0200901N002619999999N0000001N9+00831+99999102191ADDGF101991999999999999999999
0029228920999991913050120004+60717+028783FM-12+000399999V0209991C000019999999N0000001N9+00171+99999102151ADDGF100991999999999999999999
0046228920999991913050206004+60717+028783FM-12+000399999V0209991C000019999999N0000001N9+00281+99999102071ADDAJ100009199999999GF100991999999999999999999
0029228920999991913050213004+60717+028783FM-12+000399999V0200901N002619999999N0000001N9+00561+99999101981ADDGF100991999999999999999999
0029228920999991913050220004+60717+028783FM-12+000399999V0209991C000019999999N0000001N9+00001+99999101831ADDGF100991999999999999999999
0046228920999991913050306004+60717+028783FM-12+000399999V0202701N004619999999N0000001N9+00281+99999101401ADDAJ100009199999999GF108991999999999999999999
0029228920999991913050313004+60717+028783FM-12+000399999V0202301N004619999999N0000001N9+00441+99999101071ADDGF108991999999999999999999
0035228920999991913050320004+60717+028783FM-12+000399999V0209991C000019999999N0000001N9+00391+99999100821ADDGF108991999999999999999999MW1621
0046228920999991913050406004+60717+028783FM-12+000399999V0200701N002619999999N0000001N9+00111+99999101041ADDAJ100009199999999GF101991999999999999999999
0029228920999991913050413004+60717+028783FM-12+000399999V0200201N004619999999N0000001N9+00441+99999101071ADDGF100991999999999999999999
0029228920999991913050420004+60717+028783FM-12+000399999V0200201N002619999999N0000001N9+00061+99999101311ADDGF106991999999999999999999
0046228920999991913050506004+60717+028783FM-12+000399999V0200201N002619999999N0000001N9+00111+99999101521ADDAJ100009199999999GF106991999999999999999999
0029228920999991913050513004+60717+028783FM-12+000399999V0200701N002619999999N0000001N9+00391+99999101621ADDGF107991999999999999999999
0029228920999991913050520004+60717+028783FM-12+000399999V0200201N001019999999N0000001N9+00221+99999101681ADDGF108991999999999999999999
0046228920999991913050606004+60717+028783FM-12+000399999V0200201N001019999999N0000001N9+00331+99999101781ADDAJ100009199999999GF100991999999999999999999
0029228920999991913050613004+60717+028783FM-12+000399999V0209991C000019999999N0000001N9+00941+99999101721ADDGF100991999999999999999999
0029228920999991913050620004+60717+028783FM-12+000399999V0202301N002619999999N0000001N9+00441+99999101741ADDGF101991999999999999999999
0046228920999991913050706004+60717+028783FM-12+000399999V0209991C000019999999N0000001N9+00391+99999101821ADDAJ100009199999999GF101991999999999999999999
0029228920999991913050713004+60717+028783FM-12+000399999V0200901N004619999999N0000001N9+01061+99999101841ADDGF102991999999999999999999
0029228920999991913050720004+60717+028783FM-12+000399999V0209991C000019999999N0000001N9+00331+99999102181ADDGF100991999999999999999999
0046228920999991913050806004+60717+028783FM-12+000399999V0209991C000019999999N0000001N9+00501+99999102401ADDAJ100009199999999GF100991999999999999999999
0029228920999991913050813004+60717+028783FM-12+000399999V0203401N001019999999N0000001N9+01281+99999102321ADDGF100991999999999999999999
0029228920999991913050820004+60717+028783FM-12+000399999V0209991C000019999999N0000001N9+00611+99999102361ADDGF100991999999999999999999
0046228920999991913050906004+60717+028783FM-12+000399999V0202301N004619999999N0000001N9+00781+99999102271ADDAJ100009199999999GF100991999999999999999999
0029228920999991913050913004+60717+028783FM-12+000399999V0202001N009319999999N0000001N9+01281+99999102141ADDGF100991999999999999999999
0029228920999991913050920004+60717+028783FM-12+000399999V0202301N001019999999N0000001N9+00781+99999102071ADDGF100991999999999999999999
0046228920999991913051006004+60717+028783FM-12+000399999V0209991C000019999999N0000001N9+00831+99999102201ADDAJ100009199999999GF100991999999999999999999
0029228920999991913051013004+60717+028783FM-12+000399999V0202501N002619999999N0000001N9+01561+99999102061ADDGF104991999999999999999999
0029228920999991913051020004+60717+028783FM-12+000399999V0209991C000019999999N0000001N9+00941+99999101951ADDGF100991999999999999999999
0046228920999991913051106004+60717+028783FM-12+000399999V0209991C000019999999N0000001N9+01111+99999101831ADDAJ100009199999999GF100991999999999999999999
0029228920999991913051113004+60717+028783FM-12+000399999V0202001N006719999999N0000001N9+01561+99999101561ADDGF100991999999999999999999
0029228920999991913051120004+60717+028783FM-12+000399999V0202701N002619999999N0000001N9+01061+99999101281ADDGF104991999999999999999999
0046228920999991913051206004+60717+028783FM-12+000399999V0203601N006719999999N0000001N9+00781+99999101311ADDAJ100009199999999GF101991999999999999999999
0029228920999991913051213004+60717+028783FM-12+000399999V0203401N004619999999N0000001N9+00941+99999101481ADDGF104991999999999999999999
0029228920999991913051220004+60717+028783FM-12+000399999V0203601N001019999999N0000001N9+00441+99999101581ADDGF106991999999999999999999
0046228920999991913051306004+60717+028783FM-12+000399999V0200201N002619999999N0000001N9+00441+99999101901ADDAJ100009199999999GF100991999999999999999999
0029228920999991913051313004+60717+028783FM-12+000399999V0202701N009319999999N0000001N9+00611+99999101821ADDGF108991999999999999999999
0029228920999991913051320004+60717+028783FM-12+000399999V0203601N001019999999N0000001N9+00221+99999101901ADDGF108991999999999999999999
0046228920999991913051406004+60717+028783FM-12+000399999V0203401N002619999999N0000001N9+00281+99999102111ADDAJ100009199999999GF101991999999999999999999
0029228920999991913051413004+60717+028783FM-12+000399999V0203401N004619999999N0000001N9+00671+99999101951ADDGF108991999999999999999999
0029228920999991913051420004+60717+028783FM-12+000399999V0202901N001019999999N0000001N9+00331+99999101921ADDGF108991999999999999999999
0046228920999991913051506004+60717+028783FM-12+000399999V0202701N002619999999N0000001N9+00501+99999102041ADDAJ100009199999999GF100991999999999999999999
0029228920999991913051513004+60717+028783FM-12+000399999V0202001N009319999999N0000001N9+00671+99999101861ADDGF106991999999999999999999
0029228920999991913051520004+60717+028783FM-12+000399999V0202001N004619999999N0000001N9+00501+99999101541ADDGF104991999999999999999999
0046228920999991913051606004+60717+028783FM-12+000399999V0202301N001019999999N0000001N9+00671+99999101021ADDAJ100009199999999GF108991999999999999999999
0029228920999991913051613004+60717+028783FM-12+000399999V0202301N001019999999N0000001N9+00781+99999100961ADDGF108991999999999999999999
0029228920999991913051620004+60717+028783FM-12+000399999V0202301N002619999999N0000001N9+00721+99999100921ADDGF106991999999999999999999
0046228920999991913051706004+60717+028783FM-12+000399999V0202301N004619999999N0000001N9+00831+99999100921ADDAJ100009199999999GF100991999999999999999999
0029228920999991913051713004+60717+028783FM-12+000399999V0202301N004619999999N0000001N9+00891+99999100781ADDGF108991999999999999999999
0029228920999991913051720004+60717+028783FM-12+000399999V0202301N002619999999N0000001N9+00831+99999100751ADDGF108991999999999999999999
0046228920999991913051806004+60717+028783FM-12+000399999V0209991C000019999999N0000001N9+01001+99999100921ADDAJ100009199999999GF108991999999999999999999
0029228920999991913051813004+60717+028783FM-12+000399999V0202301N001019999999N0000001N9+01781+99999101111ADDGF101991999999999999999999
0029228920999991913051820004+60717+028783FM-12+000399999V0200901N006719999999N0000001N9+01171+99999101141ADDGF108991999999999999999999
0046228920999991913051906004+60717+028783FM-12+000399999V0201101N004619999999N0000001N9+01331+99999100921ADDAJ100009199999999GF107991999999999999999999
0029228920999991913051913004+60717+028783FM-12+000399999V0201801N006719999999N0000001N9+01941+99999100831ADDGF108991999999999999999999
0029228920999991913051920004+60717+028783FM-12+000399999V0202301N002619999999N0000001N9+01001+99999101191ADDGF108991999999999999999999
0046228920999991913052006004+60717+028783FM-12+000399999V0202301N002619999999N0000001N9+00831+99999101551ADDAJ100009199999999GF108991999999999999999999
0029228920999991913052013004+60717+028783FM-12+000399999V0202501N004619999999N0000001N9+01061+99999101621ADDGF108991999999999999999999
0029228920999991913052020004+60717+028783FM-12+000399999V0209991C000019999999N0000001N9+00831+99999101511ADDGF108991999999999999999999
0046228920999991913052106004+60717+028783FM-12+000399999V0202501N004619999999N0000001N9+00891+99999101701ADDAJ100009199999999GF108991999999999999999999
0029228920999991913052113004+60717+028783FM-12+000399999V0202001N009319999999N0000001N9+01111+99999101801ADDGF100991999999999999999999
0029228920999991913052120004+60717+028783FM-12+000399999V0202501N006719999999N0000001N9+00941+99999101861ADDGF100991999999999999999999
0046228920999991913052206004+60717+028783FM-12+000399999V0202301N006719999999N0000001N9+00891+99999102021ADDAJ100009199999999GF106991999999999999999999
0035228920999991913052213004+60717+028783FM-12+000399999V0202301N004619999999N0000001N9+00941+99999102151ADDGF108991999999999999999999MW1621
0029228920999991913052220004+60717+028783FM-12+000399999V0202301N001019999999N0000001N9+00891+99999102191ADDGF100991999999999999999999
0046228920999991913052306004+60717+028783FM-12+000399999V0209991C000019999999N0000001N9+01001+99999102281ADDAJ100009199999999GF100991999999999999999999
0029228920999991913052313004+60717+028783FM-12+000399999V0202301N002619999999N0000001N9+01721+99999102161ADDGF101991999999999999999999
0029228920999991913052320004+60717+028783FM-12+000399999V0209991C000019999999N0000001N9+01331+99999101961ADDGF100991999999999999999999
0046228920999991913052406004+60717+028783FM-12+000399999V0201101N001019999999N0000001N9+01561+99999101551ADDAJ100009199999999GF107991999999999999999999
0029228920999991913052413004+60717+028783FM-12+000399999V0201601N001019999999N0000001N9+01391+99999101321ADDGF108991999999999999999999
0029228920999991913052420004+60717+028783FM-12+000399999V0202301N002619999999N0000001N9+01221+99999101061ADDGF107991999999999999999999
0046228920999991913052506004+60717+028783FM-12+000399999V0202301N001019999999N0000001N9+01001+99999100961ADDAJ100009199999999GF108991999999999999999999
0029228920999991913052513004+60717+028783FM-12+000399999V0202501N004619999999N0000001N9+00891+99999100981ADDGF108991999999999999999999
0029228920999991913052520004+60717+028783FM-12+000399999V0202701N001019999999N0000001N9+00831+99999101201ADDGF102991999999999999999999
0046228920999991913052606004+60717+028783FM-12+000399999V0209991C000019999999N0000001N9+01171+99999101351ADDAJ100009199999999GF100991999999999999999999
0029228920999991913052613004+60717+028783FM-12+000399999V0202001N006719999999N0000001N9+01441+99999101401ADDGF104991999999999999999999
0029228920999991913052620004+60717+028783FM-12+000399999V0201801N001019999999N0000001N9+00941+99999101061ADDGF102991999999999999999999
0046228920999991913052706004+60717+028783FM-12+000399999V0202901N001019999999N0000001N9+00941+99999100601ADDAJ100009199999999GF108991999999999999999999
0029228920999991913052713004+60717+028783FM-12+000399999V0203401N002619999999N0000001N9+01501+99999100671ADDGF102991999999999999999999
0029228920999991913052720004+60717+028783FM-12+000399999V0203201N001019999999N0000001N9+01111+99999100501ADDGF106991999999999999999999
0052228920999991913052806004+60717+028783FM-12+000399999V0209991C000019999999N0000001N9+00831+99999100321ADDAJ100009199999999GF108991999999999999999999MW1601
0029228920999991913052813004+60717+028783FM-12+000399999V0203601N002619999999N0000001N9+00891+99999100541ADDGF108991999999999999999999
0029228920999991913052820004+60717+028783FM-12+000399999V0203601N002619999999N0000001N9+00941+99999100751ADDGF107991999999999999999999
0046228920999991913052906004+60717+028783FM-12+000399999V0203401N004619999999N0000001N9+00781+99999101241ADDAJ100009199999999GF101991999999999999999999
0029228920999991913052913004+60717+028783FM-12+000399999V0200201N001019999999N0000001N9+01001+99999101471ADDGF108991999999999999999999
0029228920999991913052920004+60717+028783FM-12+000399999V0203201N001019999999N0000001N9+00831+99999101581ADDGF107991999999999999999999
0046228920999991913053006004+60717+028783FM-12+000399999V0209991C000019999999N0000001N9+00941+99999101751ADDAJ100009199999999GF108991999999999999999999
0035228920999991913053013004+60717+028783FM-12+000399999V0202301N006719999999N0000001N9+01061+99999101841ADDGF107991999999999999999999MW1621
0029228920999991913053020004+60717+028783FM-12+000399999V0209991C000019999999N0000001N9+01001+99999101741ADDGF108991999999999999999999
0046228920999991913053106004+60717+028783FM-12+000399999V0202301N001019999999N0000001N9+01221+99999101911ADDAJ100009199999999GF101991999999999999999999
0029228920999991913053113004+60717+028783FM-12+000399999V0202001N004619999999N0000001N9+01391+99999101741ADDGF108991999999999999999999
0029228920999991913053120004+60717+028783FM-12+000399999V0209991C000019999999N0000001N9+01221+99999101641ADDGF108991999999999999999999
0046228920999991913060106004+60717+028783FM-12+000399999V0202301N002619999999N0000001N9+01501+99999101751ADDAJ100009199999999GF100991999999999999999999
0029228920999991913060113004+60717+028783FM-12+000399999V0209991C000019999999N0000001N9+01941+99999101801ADDGF100991999999999999999999
0029228920999991913060120004+60717+028783FM-12+000399999V0202301N002619999999N0000001N9+01441+99999101621ADDGF100991999999999999999999
0046228920999991913060206004+60717+028783FM-12+000399999V0202301N002619999999N0000001N9+01561+99999101621ADDAJ100009199999999GF102991999999999999999999
0029228920999991913060213004+60717+028783FM-12+000399999V0202001N006719999999N0000001N9+01831+99999101621ADDGF101991999999999999999999
0029228920999991913060220004+60717+028783FM-12+000399999V0202001N001019999999N0000001N9+01331+99999101621ADDGF105991999999999999999999
0052228920999991913060306004+60717+028783FM-12+000399999V0203601N001019999999N0000001N9+01171+99999101621ADDAJ100009199999999GF108991999999999999999999MW1621
0029228920999991913060313004+60717+028783FM-12+000399999V0209991C000019999999N0000001N9+01441+99999101281ADDGF108991999999999999999999
0029228920999991913060320004+60717+028783FM-12+000399999V0209991C000019999999N0000001N9+01391+99999101141ADDGF108991999999999999999999
0046228920999991913060406004+60717+028783FM-12+000399999V0209991C000019999999N0000001N9+01331+99999101031ADDAJ100009199999999GF108991999999999999999999
0035228920999991913060413004+60717+028783FM-12+000399999V0202001N002619999999N0000001N9+01391+99999100881ADDGF108991999999999999999999MW1621
0029228920999991913060420004+60717+028783FM-12+000399999V0202501N001019999999N0000001N9+01331+99999100991ADDGF107991999999999999999999
0046228920999991913060506004+60717+028783FM-12+000399999V0203201N004619999999N0000001N9+01391+99999101351ADDAJ100009199999999GF106991999999999999999999
0029228920999991913060513004+60717+028783FM-12+000399999V0203401N004619999999N0000001N9+01781+99999101471ADDGF104991999999999999999999
0029228920999991913060520004+60717+028783FM-12+000399999V0200701N001019999999N0000001N9+01331+99999101791ADDGF100991999999999999999999
0046228920999991913060606004+60717+028783FM-12+000399999V0202301N004619999999N0000001N9+01441+99999101871ADDAJ100009199999999GF100991999999999999999999
0029228920999991913060613004+60717+028783FM-12+000399999V0202001N009319999999N0000001N9+01721+99999101671ADDGF100991999999999999999999
0029228920999991913060620004+60717+028783FM-12+000399999V0202001N004619999999N0000001N9+01501+99999101231ADDGF100991999999999999999999
0046228920999991913060706004+60717+028783FM-12+000399999V0202001N006719999999N0000001N9+01501+99999100951ADDAJ100009199999999GF106991999999999999999999
0029228920999991913060713004+60717+028783FM-12+000399999V0202001N006719999999N0000001N9+02061+99999100751ADDGF103991999999999999999999
0029228920999991913060720004+60717+028783FM-12+000399999V0202001N004619999999N0000001N9+01391+99999100421ADDGF108991999999999999999999
0046228920999991913060806004+60717+028783FM-12+000399999V0202001N009319999999N0000001N9+01281+99999100301ADDAJ100009199999999GF108991999999999999999999
0029228920999991913060813004+60717+028783FM-12+000399999V0202001N012319999999N0000001N9+01441+99999100501ADDGF100991999999999999999999
0029228920999991913060820004+60717+028783FM-12+000399999V0202301N006719999999N0000001N9+01111+99999100591ADDGF100991999999999999999999
0046228920999991913060906004+60717+028783FM-12+000399999V0202001N012319999999N0000001N9+01171+99999100591ADDAJ100009199999999GF100991999999999999999999
0035228920999991913060913004+60717+028783FM-12+000399999V0202001N006719999999N0000001N9+01331+99999100281ADDGF108991999999999999999999MW1621
0029228920999991913060920004+60717+028783FM-12+000399999V0202001N009319999999N0000001N9+01061+99999100031ADDGF100991999999999999999999
0046228920999991913061006004+60717+028783FM-12+000399999V0202301N009319999999N0000001N9+01111+99999099951ADDAJ100009199999999GF108991999999999999999999
0029228920999991913061013004+60717+028783FM-12+000399999V0202301N012319999999N0000001N9+01221+99999099901ADDGF104991999999999999999999
0029228920999991913061020004+60717+028783FM-12+000399999V0202301N006719999999N0000001N9+01061+99999099711ADDGF104991999999999999999999
0052228920999991913061106004+60717+028783FM-12+000399999V0201601N002619999999N0000001N9+00941+99999099111ADDAJ100009199999999GF108991999999999999999999MW1621
0029228920999991913061113004+60717+028783FM-12+000399999V0202301N002619999999N0000001N9+01171+99999098791ADDGF108991999999999999999999
0029228920999991913061120004+60717+028783FM-12+000399999V0209991C000019999999N0000001N9+01001+99999098671ADDGF100991999999999999999999
0046228920999991913061206004+60717+028783FM-12+000399999V0200501N001019999999N0000001N9+01001+99999098581ADDAJ100009199999999GF108991999999999999999999
0029228920999991913061213004+60717+028783FM-12+000399999V0202301N002619999999N0000001N9+01171+99999098601ADDGF108991999999999999999999
0029228920999991913061220004+60717+028783FM-12+000399999V0203401N001019999999N0000001N9+01111+99999098791ADDGF107991999999999999999999
0046228920999991913061306004+60717+028783FM-12+000399999V0203201N006719999999N0000001N9+01061+99999099381ADDAJ100009199999999GF108991999999999999999999
0029228920999991913061313004+60717+028783FM-12+000399999V0203401N004619999999N0000001N9+01171+99999099871ADDGF108991999999999999999999
0029228920999991913061320004+60717+028783FM-12+000399999V0209991C000019999999N0000001N9+01001+99999100241ADDGF101991999999999999999999
0046228920999991913061406004+60717+028783FM-12+000399999V0202901N004619999999N0000001N9+00781+99999100741ADDAJ100009199999999GF108991999999999999999999
0035228920999991913061413004+60717+028783FM-12+000399999V0203401N006719999999N0000001N9+00781+99999101271ADDGF108991999999999999999999MW1621
0029228920999991913061420004+60717+028783FM-12+000399999V0203401N002619999999N0000001N9+00891+99999101911ADDGF108991999999999999999999
0046228920999991913061506004+60717+028783FM-12+000399999V0203601N001019999999N0000001N9+01171+99999102241ADDAJ100009199999999GF101991999999999999999999
0029228920999991913061513004+60717+028783FM-12+000399999V0209991C000019999999N0000001N9+01391+99999102711ADDGF107991999999999999999999
0029228920999991913061520004+60717+028783FM-12+000399999V0209991C000019999999N0000001N9+01001+99999102681ADDGF101991999999999999999999
0046228920999991913061606004+60717+028783FM-12+000399999V0209991C000019999999N0000001N9+01331+99999102701ADDAJ100009199999999GF100991999999999999999999
0029228920999991913061613004+60717+028783FM-12+000399999V0203601N002619999999N0000001N9+01721+99999102521ADDGF105991999999999999999999
0029228920999991913061620004+60717+028783FM-12+000399999V0209991C000019999999N0000001N9+01391+99999102261ADDGF100991999999999999999999
0046228920999991913061706004+60717+028783FM-12+000399999V0203401N001019999999N0000001N9+01331+99999101801ADDAJ100009199999999GF108991999999999999999999
0029228920999991913061713004+60717+028783FM-12+000399999V0201101N001019999999N0000001N9+01441+99999101461ADDGF108991999999999999999999
0029228920999991913061720004+60717+028783FM-12+000399999V0200201N002619999999N0000001N9+01061+99999101231ADDGF108991999999999999999999
0046228920999991913061806004+60717+028783FM-12+000399999V0200501N001019999999N0000001N9+01001+99999100721ADDAJ100009199999999GF108991999999999999999999
0029228920999991913061813004+60717+028783FM-12+000399999V0209991C000019999999N0000001N9+01221+99999100471ADDGF108991999999999999999999
0035228920999991913061820004+60717+028783FM-12+000399999V0203601N001019999999N0000001N9+00891+99999100321ADDGF108991999999999999999999MW1621
0046228920999991913061906004+60717+028783FM-12+000399999V0200201N002619999999N0000001N9+01001+99999100201ADDAJ100009199999999GF108991999999999999999999
0035228920999991913061913004+60717+028783FM-12+000399999V0203601N004619999999N0000001N9+00941+99999100321ADDGF108991999999999999999999MW1621
0029228920999991913061920004+60717+028783FM-12+000399999V0203601N001019999999N0000001N9+00781+99999100591ADDGF108991999999999999999999
0035228920999991913062013004+60717+028783FM-12+000399999V0203601N006719999999N0000001N9+00781+99999100951ADDGF108991999999999999999999MW1621
0029228920999991913062020004+60717+028783FM-12+000399999V0203601N002619999999N0000001N9+00831+99999101191ADDGF108991999999999999999999
0046228920999991913062106004+60717+028783FM-12+000399999V0203601N001019999999N0000001N9+00941+99999101381ADDAJ100009199999999GF100991999999999999999999
0029228920999991913062113004+60717+028783FM-12+000399999V0203201N009319999999N0000001N9+01561+99999101341ADDGF100991999999999999999999
0029228920999991913062120004+60717+028783FM-12+000399999V0209991C000019999999N0000001N9+01221+99999101381ADDGF104991999999999999999999
0046228920999991913062206004+60717+028783FM-12+000399999V0200501N004619999999N0000001N9+00941+99999101681ADDAJ100009199999999GF100991999999999999999999
0029228920999991913062213004+60717+028783FM-12+000399999V0200701N002619999999N0000001N9+01671+99999101681ADDGF100991999999999999999999
0029228920999991913062220004+60717+028783FM-12+000399999V0209991C000019999999N0000001N9+01391+99999101831ADDGF100991999999999999999999
0046228920999991913062306004+60717+028783FM-12+000399999V0209991C000019999999N0000001N9+01441+99999101601ADDAJ100009199999999GF100991999999999999999999
0029228920999991913062313004+60717+028783FM-12+000399999V0202301N001019999999N0000001N9+02061+99999101641ADDGF102991999999999999999999
0029228920999991913062320004+60717+028783FM-12+000399999V0209991C000019999999N0000001N9+02001+99999101591ADDGF100991999999999999999999
0046228920999991913062406004+60717+028783FM-12+000399999V0202301N001019999999N0000001N9+01501+99999101501ADDAJ100009199999999GF100991999999999999999999
0029228920999991913062413004+60717+028783FM-12+000399999V0202301N004619999999N0000001N9+01941+99999101361ADDGF100991999999999999999999
0029228920999991913062420004+60717+028783FM-12+000399999V0202301N001019999999N0000001N9+01391+99999101151ADDGF100991999999999999999999
0046228920999991913062506004+60717+028783FM-12+000399999V0209991C000019999999N0000001N9+01501+99999100911ADDAJ100009199999999GF107991999999999999999999
0029228920999991913062513004+60717+028783FM-12+000399999V0202301N001019999999N0000001N9+02001+99999100821ADDGF103991999999999999999999
0029228920999991913062520004+60717+028783FM-12+000399999V0209991C000019999999N0000001N9+01391+99999100761ADDGF100991999999999999999999
0046228920999991913062606004+60717+028783FM-12+000399999V0202001N002619999999N0000001N9+01501+99999100821ADDAJ100009199999999GF101991999999999999999999
0029228920999991913062613004+60717+028783FM-12+000399999V0202001N002619999999N0000001N9+01891+99999100841ADDGF101991999999999999999999
0029228920999991913062620004+60717+028783FM-12+000399999V0202001N001019999999N0000001N9+01501+99999100821ADDGF101991999999999999999999
0046228920999991913062706004+60717+028783FM-12+000399999V0209991C000019999999N0000001N9+01781+99999100781ADDAJ100009199999999GF100991999999999999999999
0029228920999991913062713004+60717+028783FM-12+000399999V0202301N001019999999N0000001N9+02171+99999100741ADDGF101991999999999999999999
0029228920999991913062720004+60717+028783FM-12+000399999V0201101N001019999999N0000001N9+01501+99999100751ADDGF104991999999999999999999
0046228920999991913062806004+60717+028783FM-12+000399999V0201601N001019999999N0000001N9+01671+99999100881ADDAJ100009199999999GF108991999999999999999999
0029228920999991913062813004+60717+028783FM-12+000399999V0202001N004619999999N0000001N9+01941+99999100981ADDGF101991999999999999999999
0029228920999991913062820004+60717+028783FM-12+000399999V0209991C000019999999N0000001N9+01671+99999101041ADDGF101991999999999999999999
0046228920999991913062906004+60717+028783FM-12+000399999V0209991C000019999999N0000001N9+01441+99999100941ADDAJ100009199999999GF108991999999999999999999
0029228920999991913062913004+60717+028783FM-12+000399999V0200201N001019999999N0000001N9+01671+99999100961ADDGF108991999999999999999999
0029228920999991913062920004+60717+028783FM-12+000399999V0209991C000019999999N0000001N9+01721+99999100991ADDGF108991999999999999999999
0046228920999991913063006004+60717+028783FM-12+000399999V0200501N001019999999N0000001N9+01671+99999100991ADDAJ100009199999999GF108991999999999999999999
0029228920999991913063013004+60717+028783FM-12+000399999V0200901N004619999999N0000001N9+02441+99999100941ADDGF100991999999999999999999
0029228920999991913063020004+60717+028783FM-12+000399999V0200701N001019999999N0000001N9+01941+99999100801ADDGF102991999999999999999999
0046228920999991913070106004+60717+028783FM-12+000399999V0200701N004619999999N0000001N9+02061+99999100791ADDAJ100009199999999GF101991999999999999999999
0029228920999991913070113004+60717+028783FM-12+000399999V0200701N006719999999N0000001N9+02611+99999100561ADDGF103991999999999999999999
0029228920999991913070120004+60717+028783FM-12+000399999V0200701N002619999999N0000001N9+02171+99999100461ADDGF105991999999999999999999
0046228920999991913070206004+60717+028783FM-12+000399999V0200501N006719999999N0000001N9+01891+99999100381ADDAJ100009199999999GF108991999999999999999999
0029228920999991913070213004+60717+028783FM-12+000399999V0200701N002619999999N0000001N9+02331+99999100581ADDGF108991999999999999999999
0029228920999991913070220004+60717+028783FM-12+000399999V0200901N001019999999N0000001N9+01721+99999101111ADDGF105991999999999999999999
0046228920999991913070306004+60717+028783FM-12+000399999V0209991C000019999999N0000001N9+01941+99999101141ADDAJ100009199999999GF100991999999999999999999
0029228920999991913070313004+60717+028783FM-12+000399999V0202301N001019999999N0000001N9+02441+99999101071ADDGF102991999999999999999999
0029228920999991913070320004+60717+028783FM-12+000399999V0209991C000019999999N0000001N9+01891+99999100801ADDGF106991999999999999999999
0046228920999991913070406004+60717+028783FM-12+000399999V0202001N001019999999N0000001N9+01891+99999100591ADDAJ100009199999999GF108991999999999999999999
0029228920999991913070413004+60717+028783FM-12+000399999V0202501N001019999999N0000001N9+02281+99999100461ADDGF101991999999999999999999
0029228920999991913070420004+60717+028783FM-12+000399999V0209991C000019999999N0000001N9+01781+99999100141ADDGF100991999999999999999999
0046228920999991913070506004+60717+028783FM-12+000399999V0209991C000019999999N0000001N9+02001+99999099821ADDAJ100009199999999GF100991999999999999999999
0029228920999991913070513004+60717+028783FM-12+000399999V0202301N006719999999N0000001N9+02061+99999099711ADDGF101991999999999999999999
0029228920999991913070520004+60717+028783FM-12+000399999V0202301N004619999999N0000001N9+01721+99999099741ADDGF106991999999999999999999
0046228920999991913070606004+60717+028783FM-12+000399999V0209991C000019999999N0000001N9+01671+99999099901ADDAJ100009199999999GF108991999999999999999999
0029228920999991913070613004+60717+028783FM-12+000399999V0202701N004619999999N0000001N9+01781+99999100181ADDGF108991999999999999999999
0029228920999991913070620004+60717+028783FM-12+000399999V0209991C000019999999N0000001N9+01611+99999100581ADDGF108991999999999999999999
0046228920999991913070706004+60717+028783FM-12+000399999V0200901N001019999999N0000001N9+01721+99999100821ADDAJ100009199999999GF107991999999999999999999
0029228920999991913070713004+60717+028783FM-12+000399999V0209991C000019999999N0000001N9+02331+99999100981ADDGF104991999999999999999999
0029228920999991913070720004+60717+028783FM-12+000399999V0201101N001019999999N0000001N9+01781+99999101151ADDGF106991999999999999999999
0052228920999991913070806004+60717+028783FM-12+000399999V0201101N001019999999N0000001N9+01561+99999101351ADDAJ100009199999999GF108991999999999999999999MW1621
0029228920999991913070813004+60717+028783FM-12+000399999V0200701N002619999999N0000001N9+01671+99999101431ADDGF108991999999999999999999
0029228920999991913070820004+60717+028783FM-12+000399999V0200701N002619999999N0000001N9+01671+99999101501ADDGF108991999999999999999999
0046228920999991913070906004+60717+028783FM-12+000399999V0200701N002619999999N0000001N9+01781+99999101541ADDAJ100009199999999GF104991999999999999999999
0029228920999991913070913004+60717+028783FM-12+000399999V0200701N004619999999N0000001N9+02171+99999101511ADDGF103991999999999999999999
0029228920999991913070920004+60717+028783FM-12+000399999V0200701N002619999999N0000001N9+01781+99999101541ADDGF103991999999999999999999
0046228920999991913071006004+60717+028783FM-12+000399999V0200701N004619999999N0000001N9+02111+99999101361ADDAJ100009199999999GF100991999999999999999999
0029228920999991913071013004+60717+028783FM-12+000399999V0200901N004619999999N0000001N9+02561+99999101281ADDGF101991999999999999999999
0029228920999991913071020004+60717+028783FM-12+000399999V0200901N002619999999N0000001N9+02001+99999101321ADDGF101991999999999999999999
0046228920999991913071106004+60717+028783FM-12+000399999V0200701N002619999999N0000001N9+02441+99999101381ADDAJ100009199999999GF100991999999999999999999
0029228920999991913071113004+60717+028783FM-12+000399999V0201101N009319999999N0000001N9+02671+99999101321ADDGF100991999999999999999999
0029228920999991913071120004+60717+028783FM-12+000399999V0200901N002619999999N0000001N9+02061+99999101281ADDGF100991999999999999999999
0046228920999991913071206004+60717+028783FM-12+000399999V0200701N002619999999N0000001N9+02001+99999101351ADDAJ100009199999999GF100991999999999999999999
0029228920999991913071213004+60717+028783FM-12+000399999V0200701N004619999999N0000001N9+02501+99999101321ADDGF100991999999999999999999
0029228920999991913071220004+60717+028783FM-12+000399999V0209991C000019999999N0000001N9+01891+99999101311ADDGF100991999999999999999999
0046228920999991913071306004+60717+028783FM-12+000399999V0200901N004619999999N0000001N9+01781+99999101061ADDAJ100009199999999GF100991999999999999999999
0029228920999991913071313004+60717+028783FM-12+000399999V0200901N002619999999N0000001N9+02111+99999101081ADDGF100991999999999999999999
0029228920999991913071320004+60717+028783FM-12+000399999V0200501N002619999999N0000001N9+01721+99999101061ADDGF103991999999999999999999
0046228920999991913071406004+60717+028783FM-12+000399999V0200501N002619999999N0000001N9+01781+99999100821ADDAJ100009199999999GF108991999999999999999999
0029228920999991913071413004+60717+028783FM-12+000399999V0200901N002619999999N0000001N9+02111+99999100671ADDGF108991999999999999999999
0029228920999991913071420004+60717+028783FM-12+000399999V0200701N001019999999N0000001N9+02001+99999100501ADDGF108991999999999999999999
0046228920999991913071506004+60717+028783FM-12+000399999V0200701N002619999999N0000001N9+02061+99999100151ADDAJ100009199999999GF103991999999999999999999
0029228920999991913071513004+60717+028783FM-12+000399999V0200701N009319999999N0000001N9+02331+99999100031ADDGF104991999999999999999999
0029228920999991913071520004+60717+028783FM-12+000399999V0209991C000019999999N0000001N9+02001+99999099981ADDGF106991999999999999999999
0046228920999991913071606004+60717+028783FM-12+000399999V0200501N002619999999N0000001N9+01891+99999100021ADDAJ100009199999999GF107991999999999999999999
0029228920999991913071613004+60717+028783FM-12+000399999V0201101N006719999999N0000001N9+02331+99999100071ADDGF104991999999999999999999
0029228920999991913071620004+60717+028783FM-12+000399999V0200701N002619999999N0000001N9+01721+99999100221ADDGF102991999999999999999999
0046228920999991913071706004+60717+028783FM-12+000399999V0200701N002619999999N0000001N9+01831+99999100361ADDAJ100009199999999GF108991999999999999999999
0029228920999991913071713004+60717+028783FM-12+000399999V0200501N001019999999N0000001N9+01891+99999100511ADDGF108991999999999999999999
0029228920999991913071720004+60717+028783FM-12+000399999V0209991C000019999999N0000001N9+01891+99999100631ADDGF107991999999999999999999
0046228920999991913071806004+60717+028783FM-12+000399999V0200701N004619999999N0000001N9+02061+99999100721ADDAJ100009199999999GF103991999999999999999999
0029228920999991913071813004+60717+028783FM-12+000399999V0201101N002619999999N0000001N9+02171+99999100741ADDGF107991999999999999999999
0029228920999991913071820004+60717+028783FM-12+000399999V0200901N001019999999N0000001N9+01891+99999100751ADDGF101991999999999999999999
0046228920999991913071906004+60717+028783FM-12+000399999V0200901N001019999999N0000001N9+01941+99999100681ADDAJ100009199999999GF108991999999999999999999
0029228920999991913071913004+60717+028783FM-12+000399999V0200901N002619999999N0000001N9+02391+99999100561ADDGF104991999999999999999999
0029228920999991913071920004+60717+028783FM-12+000399999V0209991C000019999999N0000001N9+02001+99999100501ADDGF106991999999999999999999
0046228920999991913072006004+60717+028783FM-12+000399999V0209991C000019999999N0000001N9+02001+99999100521ADDAJ100009199999999GF108991999999999999999999
0029228920999991913072013004+60717+028783FM-12+000399999V0202501N004619999999N0000001N9+02281+99999100681ADDGF102991999999999999999999
0029228920999991913072020004+60717+028783FM-12+000399999V0209991C000019999999N0000001N9+01941+99999100871ADDGF100991999999999999999999
0046228920999991913072106004+60717+028783FM-12+000399999V0209991C000019999999N0000001N9+02111+99999101081ADDAJ100009199999999GF100991999999999999999999
0029228920999991913072113004+60717+028783FM-12+000399999V0200701N002619999999N0000001N9+02391+99999101001ADDGF108991999999999999999999
0029228920999991913072120004+60717+028783FM-12+000399999V0200701N002619999999N0000001N9+02061+99999101031ADDGF101991999999999999999999
0046228920999991913072206004+60717+028783FM-12+000399999V0200901N004619999999N0000001N9+02221+99999101111ADDAJ100009199999999GF100991999999999999999999
0029228920999991913072213004+60717+028783FM-12+000399999V0201101N004619999999N0000001N9+02671+99999101121ADDGF100991999999999999999999
0029228920999991913072220004+60717+028783FM-12+000399999V0200901N002619999999N0000001N9+02111+99999101271ADDGF100991999999999999999999
0046228920999991913072306004+60717+028783FM-12+000399999V0209991C000019999999N0000001N9+02221+99999101461ADDAJ100009199999999GF100991999999999999999999
0029228920999991913072313004+60717+028783FM-12+000399999V0202501N001019999999N0000001N9+02671+99999101501ADDGF102991999999999999999999
0029228920999991913072320004+60717+028783FM-12+000399999V0209991C000019999999N0000001N9+02001+99999101601ADDGF100991999999999999999999
0046228920999991913072406004+60717+028783FM-12+000399999V0209991C000019999999N0000001N9+02061+99999101601ADDAJ100009199999999GF100991999999999999999999
0029228920999991913072413004+60717+028783FM-12+000399999V0202501N002619999999N0000001N9+02501+99999101501ADDGF107991999999999999999999
0029228920999991913072420004+60717+028783FM-12+000399999V0209991C000019999999N0000001N9+01781+99999101481ADDGF102991999999999999999999
0046228920999991913072506004+60717+028783FM-12+000399999V0209991C000019999999N0000001N9+01891+99999101521ADDAJ100009199999999GF100991999999999999999999
0029228920999991913072513004+60717+028783FM-12+000399999V0203401N002619999999N0000001N9+02331+99999101501ADDGF100991999999999999999999
0029228920999991913072520004+60717+028783FM-12+000399999V0209991C000019999999N0000001N9+01671+99999101591ADDGF100991999999999999999999
0046228920999991913072606004+60717+028783FM-12+000399999V0203201N002619999999N0000001N9+01721+99999101641ADDAJ100009199999999GF106991999999999999999999
0029228920999991913072613004+60717+028783FM-12+000399999V0203401N004619999999N0000001N9+02001+99999101511ADDGF105991999999999999999999
0029228920999991913072620004+60717+028783FM-12+000399999V0209991C000019999999N0000001N9+01561+99999101441ADDGF101991999999999999999999
0046228920999991913072706004+60717+028783FM-12+000399999V0203401N006719999999N0000001N9+01391+99999101521ADDAJ100009199999999GF100991999999999999999999
0029228920999991913072713004+60717+028783FM-12+000399999V0203201N006719999999N0000001N9+01611+99999101471ADDGF101991999999999999999999
0029228920999991913072720004+60717+028783FM-12+000399999V0202901N002619999999N0000001N9+01331+99999101421ADDGF102991999999999999999999
0046228920999991913072806004+60717+028783FM-12+000399999V0203401N004619999999N0000001N9+01221+99999101181ADDAJ100009199999999GF104991999999999999999999
0029228920999991913072813004+60717+028783FM-12+000399999V0203401N001019999999N0000001N9+01611+99999100941ADDGF107991999999999999999999
0029228920999991913072820004+60717+028783FM-12+000399999V0209991C000019999999N0000001N9+01281+99999100661ADDGF108991999999999999999999
0046228920999991913072906004+60717+028783FM-12+000399999V0200701N002619999999N0000001N9+01281+99999100461ADDAJ100009199999999GF104991999999999999999999
0029228920999991913072913004+60717+028783FM-12+000399999V0200701N002619999999N0000001N9+01501+99999100591ADDGF107991999999999999999999
0029228920999991913072920004+60717+028783FM-12+000399999V0209991C000019999999N0000001N9+01221+99999100821ADDGF100991999999999999999999
0046228920999991913073006004+60717+028783FM-12+000399999V0200701N002619999999N0000001N9+01561+99999101001ADDAJ100009199999999GF100991999999999999999999
0029228920999991913073013004+60717+028783FM-12+000399999V0200201N001019999999N0000001N9+02001+99999101031ADDGF102991999999999999999999
0029228920999991913073020004+60717+028783FM-12+000399999V0209991C000019999999N0000001N9+01561+99999101231ADDGF101991999999999999999999
0046228920999991913073106004+60717+028783FM-12+000399999V0209991C000019999999N0000001N9+01831+99999101471ADDAJ100009199999999GF100991999999999999999999
0029228920999991913073113004+60717+028783FM-12+000399999V0209991C000019999999N0000001N9+02331+99999101471ADDGF102991999999999999999999
0029228920999991913073120004+60717+028783FM-12+000399999V0202001N001019999999N0000001N9+01671+99999101541ADDGF101991999999999999999999
0029228920999991913080113004+60717+028783FM-12+000399999V0202001N004619999999N0000001N9+02221+99999101581ADDGF101991999999999999999999
0029228920999991913080120004+60717+028783FM-12+000399999V0209991C000019999999N0000001N9+01891+99999101501ADDGF106991999999999999999999
0046228920999991913080206004+60717+028783FM-12+000399999V0201101N001019999999N0000001N9+01831+99999101461ADDAJ100009199999999GF100991999999999999999999
0029228920999991913080213004+60717+028783FM-12+000399999V0203201N004619999999N0000001N9+02221+99999101461ADDGF104991999999999999999999
0029228920999991913080220004+60717+028783FM-12+000399999V0209991C000019999999N0000001N9+01611+99999101511ADDGF104991999999999999999999
0046228920999991913080306004+60717+028783FM-12+000399999V0202301N004619999999N0000001N9+01781+99999101381ADDAJ100009199999999GF103991999999999999999999
0029228920999991913080313004+60717+028783FM-12+000399999V0202301N006719999999N0000001N9+02111+99999101001ADDGF103991999999999999999999
0029228920999991913080320004+60717+028783FM-12+000399999V0202301N009319999999N0000001N9+01941+99999100641ADDGF100991999999999999999999
0046228920999991913080406004+60717+028783FM-12+000399999V0202001N009319999999N0000001N9+01941+99999100381ADDAJ100009199999999GF106991999999999999999999
0029228920999991913080413004+60717+028783FM-12+000399999V0202001N009319999999N0000001N9+02171+99999100461ADDGF101991999999999999999999
0029228920999991913080420004+60717+028783FM-12+000399999V0202001N001019999999N0000001N9+01721+99999100421ADDGF108991999999999999999999
0046228920999991913080506004+60717+028783FM-12+000399999V0202301N001019999999N0000001N9+01721+99999100381ADDAJ100009199999999GF104991999999999999999999
0029228920999991913080513004+60717+028783FM-12+000399999V0202301N002619999999N0000001N9+02171+99999100311ADDGF100991999999999999999999
0029228920999991913080520004+60717+028783FM-12+000399999V0209991C000019999999N0000001N9+01611+99999100101ADDGF103991999999999999999999
0046228920999991913080606004+60717+028783FM-12+000399999V0202301N002619999999N0000001N9+01611+99999999999ADDAJ100009199999999GF107991999999999999999999
0029228920999991913080613004+60717+028783FM-12+000399999V0202301N012319999999N0000001N9+01611+99999100271ADDGF108991999999999999999999
0029228920999991913080620004+60717+028783FM-12+000399999V0202501N004619999999N0000001N9+01441+99999100591ADDGF100991999999999999999999
0046228920999991913080706004+60717+028783FM-12+000399999V0201601N001019999999N0000001N9+01611+99999100881ADDAJ100009199999999GF100991999999999999999999
0029228920999991913080713004+60717+028783FM-12+000399999V0201601N004619999999N0000001N9+02001+99999100831ADDGF104991999999999999999999
0035228920999991913080720004+60717+028783FM-12+000399999V0201401N002619999999N0000001N9+01501+99999100681ADDGF108991999999999999999999MW1621
0052228920999991913080806004+60717+028783FM-12+000399999V0202701N002619999999N0000001N9+01331+99999100121ADDAJ100009199999999GF108991999999999999999999MW1621
0029228920999991913080813004+60717+028783FM-12+000399999V0202301N002619999999N0000001N9+01671+99999100241ADDGF107991999999999999999999
0029228920999991913080820004+60717+028783FM-12+000399999V0202301N002619999999N0000001N9+01441+99999100311ADDGF100991999999999999999999
0046228920999991913080906004+60717+028783FM-12+000399999V0202301N004619999999N0000001N9+01501+99999100821ADDAJ100009199999999GF101991999999999999999999
0029228920999991913080913004+60717+028783FM-12+000399999V0202001N009319999999N0000001N9+01891+99999101001ADDGF102991999999999999999999
0029228920999991913080920004+60717+028783FM-12+000399999V0201601N002619999999N0000001N9+01331+99999101141ADDGF101991999999999999999999
0046228920999991913081006004+60717+028783FM-12+000399999V0202301N001019999999N0000001N9+01501+99999101461ADDAJ100009199999999GF102991999999999999999999
0029228920999991913081013004+60717+028783FM-12+000399999V0202301N006719999999N0000001N9+01831+99999101701ADDGF100991999999999999999999
0029228920999991913081020004+60717+028783FM-12+000399999V0209991C000019999999N0000001N9+01281+99999101861ADDGF100991999999999999999999
0046228920999991913081106004+60717+028783FM-12+000399999V0200901N001019999999N0000001N9+01501+99999102021ADDAJ100009199999999GF100991999999999999999999
0029228920999991913081113004+60717+028783FM-12+000399999V0201101N002619999999N0000001N9+02061+99999101841ADDGF106991999999999999999999
0029228920999991913081120004+60717+028783FM-12+000399999V0209991C000019999999N0000001N9+01331+99999101641ADDGF104991999999999999999999
0046228920999991913081206004+60717+028783FM-12+000399999V0200501N001019999999N0000001N9+01671+99999101281ADDAJ100009199999999GF104991999999999999999999
0035228920999991913081213004+60717+028783FM-12+000399999V0200501N002619999999N0000001N9+01781+99999101001ADDGF108991999999999999999999MW1621
0029228920999991913081220004+60717+028783FM-12+000399999V0200501N004619999999N0000001N9+01441+99999100821ADDGF108991999999999999999999
0052228920999991913081306004+60717+028783FM-12+000399999V0200701N002619999999N0000001N9+01391+99999100681ADDAJ100009199999999GF108991999999999999999999MW1621
0035228920999991913081313004+60717+028783FM-12+000399999V0200701N001019999999N0000001N9+01501+99999100801ADDGF108991999999999999999999MW1621
0029228920999991913081320004+60717+028783FM-12+000399999V0200701N001019999999N0000001N9+01441+99999100921ADDGF108991999999999999999999
0046228920999991913081406004+60717+028783FM-12+000399999V0200701N002619999999N0000001N9+01391+99999101141ADDAJ100009199999999GF108991999999999999999999
0029228920999991913081413004+60717+028783FM-12+000399999V0200901N002619999999N0000001N9+01281+99999101471ADDGF108991999999999999999999
0029228920999991913081420004+60717+028783FM-12+000399999V0209991C000019999999N0000001N9+01221+99999101821ADDGF108991999999999999999999
0046228920999991913081506004+60717+028783FM-12+000399999V0209991C000019999999N0000001N9+01331+99999102231ADDAJ100009199999999GF108991999999999999999999
0029228920999991913081513004+60717+028783FM-12+000399999V0200901N002619999999N0000001N9+01721+99999102401ADDGF108991999999999999999999
0029228920999991913081520004+60717+028783FM-12+000399999V0200901N001019999999N0000001N9+01171+99999102511ADDGF108991999999999999999999
0046228920999991913081606004+60717+028783FM-12+000399999V0200901N004619999999N0000001N9+01391+99999102431ADDAJ100009199999999GF108991999999999999999999
0029228920999991913081613004+60717+028783FM-12+000399999V0200501N006719999999N0000001N9+01611+99999102271ADDGF107991999999999999999999
0035228920999991913081620004+60717+028783FM-12+000399999V0200701N006719999999N0000001N9+01441+99999102111ADDGF108991999999999999999999MW1621
0046228920999991913081706004+60717+028783FM-12+000399999V0200901N002619999999N0000001N9+01721+99999101861ADDAJ100009199999999GF107991999999999999999999
0029228920999991913081713004+60717+028783FM-12+000399999V0200701N004619999999N0000001N9+02171+99999101671ADDGF101991999999999999999999
0029228920999991913081720004+60717+028783FM-12+000399999V0200701N002619999999N0000001N9+01781+99999101601ADDGF104991999999999999999999
0046228920999991913081806004+60717+028783FM-12+000399999V0200901N002619999999N0000001N9+01721+99999101501ADDAJ100009199999999GF106991999999999999999999
0029228920999991913081813004+60717+028783FM-12+000399999V0200901N001019999999N0000001N9+02391+99999101431ADDGF100991999999999999999999
0029228920999991913081820004+60717+028783FM-12+000399999V0200501N001019999999N0000001N9+01781+99999101391ADDGF102991999999999999999999
0046228920999991913081906004+60717+028783FM-12+000399999V0209991C000019999999N0000001N9+01611+99999101271ADDAJ100009199999999GF108991999999999999999999
0035228920999991913081913004+60717+028783FM-12+000399999V0209991C000019999999N0000001N9+01831+99999101231ADDGF108991999999999999999999MW1621
0029228920999991913081920004+60717+028783FM-12+000399999V0209991C000019999999N0000001N9+01561+99999101261ADDGF100991999999999999999999
0046228920999991913082006004+60717+028783FM-12+000399999V0209991C000019999999N0000001N9+01331+99999101361ADDAJ100009199999999GF101991999999999999999999
0035228920999991913082013004+60717+028783FM-12+000399999V0209991C000019999999N0000001N9+02061+99999101321ADDGF108991999999999999999999MW1621
0029228920999991913082020004+60717+028783FM-12+000399999V0209991C000019999999N0000001N9+01561+99999101141ADDGF108991999999999999999999
0046228920999991913082106004+60717+028783FM-12+000399999V0200901N001019999999N0000001N9+01611+99999101141ADDAJ100009199999999GF106991999999999999999999
0035228920999991913082113004+60717+028783FM-12+000399999V0200901N002619999999N0000001N9+01781+99999101121ADDGF108991999999999999999999MW1621
0029228920999991913082120004+60717+028783FM-12+000399999V0200901N004619999999N0000001N9+01561+99999101201ADDGF108991999999999999999999
0046228920999991913082206004+60717+028783FM-12+000399999V0200901N002619999999N0000001N9+01611+99999101071ADDAJ100009199999999GF108991999999999999999999
0029228920999991913082213004+60717+028783FM-12+000399999V0202001N004619999999N0000001N9+02061+99999100981ADDGF102991999999999999999999
0029228920999991913082220004+60717+028783FM-12+000399999V0209991C000019999999N0000001N9+01501+99999101071ADDGF102991999999999999999999
0046228920999991913082306004+60717+028783FM-12+000399999V0202301N002619999999N0000001N9+01611+99999100941ADDAJ100009199999999GF108991999999999999999999
0029228920999991913082313004+60717+028783FM-12+000399999V0202301N006719999999N0000001N9+01891+99999101041ADDGF100991999999999999999999
0029228920999991913082320004+60717+028783FM-12+000399999V0202301N006719999999N0000001N9+01501+99999101401ADDGF101991999999999999999999
0046228920999991913082406004+60717+028783FM-12+000399999V0202301N002619999999N0000001N9+01561+99999101831ADDAJ100009199999999GF106991999999999999999999
0029228920999991913082413004+60717+028783FM-12+000399999V0202301N002619999999N0000001N9+01941+99999102001ADDGF100991999999999999999999
0029228920999991913082420004+60717+028783FM-12+000399999V0209991C000019999999N0000001N9+01561+99999102081ADDGF100991999999999999999999
0046228920999991913082506004+60717+028783FM-12+000399999V0209991C000019999999N0000001N9+01561+99999102081ADDAJ100009199999999GF102991999999999999999999
0029228920999991913082513004+60717+028783FM-12+000399999V0202301N002619999999N0000001N9+02501+99999102071ADDGF104991999999999999999999
0029228920999991913082520004+60717+028783FM-12+000399999V0209991C000019999999N0000001N9+01831+99999101951ADDGF101991999999999999999999
0046228920999991913082606004+60717+028783FM-12+000399999V0209991C000019999999N0000001N9+01721+99999102121ADDAJ100009199999999GF104991999999999999999999
0029228920999991913082613004+60717+028783FM-12+000399999V0202301N004619999999N0000001N9+02561+99999102101ADDGF102991999999999999999999
0029228920999991913082620004+60717+028783FM-12+000399999V0209991C000019999999N0000001N9+01891+99999102041ADDGF100991999999999999999999
0046228920999991913082706004+60717+028783FM-12+000399999V0209991C000019999999N0000001N9+01611+99999101941ADDAJ100009199999999GF108991999999999999999999
0029228920999991913082713004+60717+028783FM-12+000399999V0202301N002619999999N0000001N9+02221+99999102061ADDGF106991999999999999999999
0029228920999991913082720004+60717+028783FM-12+000399999V0209991C000019999999N0000001N9+01721+99999101781ADDGF102991999999999999999999
0046228920999991913082806004+60717+028783FM-12+000399999V0203601N001019999999N0000001N9+01561+99999101991ADDAJ100009199999999GF100991999999999999999999
0029228920999991913082813004+60717+028783FM-12+000399999V0203401N001019999999N0000001N9+01781+99999102041ADDGF101991999999999999999999
0029228920999991913082820004+60717+028783FM-12+000399999V0203401N001019999999N0000001N9+01561+99999102081ADDGF100991999999999999999999
0046228920999991913082906004+60717+028783FM-12+000399999V0200201N001019999999N0000001N9+01391+99999102261ADDAJ100009199999999GF100991999999999999999999
0029228920999991913082913004+60717+028783FM-12+000399999V0202001N001019999999N0000001N9+02281+99999102311ADDGF100991999999999999999999
0029228920999991913082920004+60717+028783FM-12+000399999V0209991C000019999999N0000001N9+01391+99999102501ADDGF100991999999999999999999
0046228920999991913083006004+60717+028783FM-12+000399999V0202001N001019999999N0000001N9+01391+99999102541ADDAJ100009199999999GF102991999999999999999999
