0035228920999991912010106004+60717+028783FM-12+000399999V0202301N011819999999N0000001N9-00061+99999100861ADDGF108991999999999999999999MW1721
0035228920999991912010113004+60717+028783FM-12+000399999V0202301N009819999999N0000001N9+00221+99999100461ADDGF108991999999999999999999MW1621
0029228920999991912010120004+60717+028783FM-12+000399999V0202301N008219999999N0000001N9+00111+99999100361ADDGF108991999999999999999999
0029228920999991912010206004+60717+028783FM-12+000399999V0202501N008219999999N0000001N9+00221+99999099271ADDGF108991999999999999999999
0029228920999991912010213004+60717+028783FM-12+000399999V0202501N008219999999N0000001N9+00111+99999098671ADDGF108991999999999999999999
0029228920999991912010220004+60717+028783FM-12+000399999V0202901N006219999999N0000001N9+00171+99999098311ADDGF107991999999999999999999
0029228920999991912010306004+60717+028783FM-12+000399999V0203401N008219999999N0000001N9-00391+99999098721ADDGF108991999999999999999999
0029228920999991912010313004+60717+028783FM-12+000399999V0200201N004119999999N0000001N9-00611+99999098941ADDGF107991999999999999999999
0029228920999991912010320004+60717+028783FM-12+000399999V0203601N006219999999N0000001N9-00831+99999099391ADDGF108991999999999999999999
0029228920999991912010406004+60717+028783FM-12+000399999V0203601N004119999999N0000001N9-01331+99999100031ADDGF100991999999999999999999
0029228920999991912010413004+60717+028783FM-12+000399999V0203401N006219999999N0000001N9-01331+99999100341ADDGF100991999999999999999999
0029228920999991912010420004+60717+028783FM-12+000399999V0203401N004119999999N0000001N9-01671+99999100441ADDGF100991999999999999999999
0029228920999991912010506004+60717+028783FM-12+000399999V0203401N004119999999N0000001N9-01781+99999100501ADDGF100991999999999999999999
0029228920999991912010513004+60717+028783FM-12+000399999V0203401N004119999999N0000001N9-01721+99999100701ADDGF100991999999999999999999
0029228920999991912010520004+60717+028783FM-12+000399999V0209991C000019999999N0000001N9-02001+99999100761ADDGF100991999999999999999999
0029228920999991912010606004+60717+028783FM-12+000399999V0209991C000019999999N0000001N9-02281+99999100781ADDGF100991999999999999999999
0029228920999991912010613004+60717+028783FM-12+000399999V0209991C000019999999N0000001N9-01941+99999100701ADDGF100991999999999999999999
0029228920999991912010620004+60717+028783FM-12+000399999V0209991C000019999999N0000001N9-02331+99999100351ADDGF100991999999999999999999
0029228920999991912010706004+60717+028783FM-12+000399999V0200701N004119999999N0000001N9-02441+99999100031ADDGF101991999999999999999999
0029228920999991912010713004+60717+028783FM-12+000399999V0200701N004119999999N0000001N9-01891+99999099751ADDGF104991999999999999999999
0029228920999991912010720004+60717+028783FM-12+000399999V0200701N004119999999N0000001N9-01671+99999099741ADDGF106991999999999999999999
0035228920999991912010806004+60717+028783FM-12+000399999V0200501N004119999999N0000001N9-01391+99999099941ADDGF108991999999999999999999MW1721
0029228920999991912010813004+60717+028783FM-12+000399999V0200201N004119999999N0000001N9-01561+99999100191ADDGF108991999999999999999999
0029228920999991912010820004+60717+028783FM-12+000399999V0203601N002119999999N0000001N9-01831+99999100281ADDGF101991999999999999999999
0029228920999991912010906004+60717+028783FM-12+000399999V0203601N004119999999N0000001N9-01891+99999100341ADDGF102991999999999999999999
0029228920999991912010913004+60717+028783FM-12+000399999V0203201N006219999999N0000001N9-01831+99999100341ADDGF100991999999999999999999
0029228920999991912010920004+60717+028783FM-12+000399999V0209991C000019999999N0000001N9-01941+99999100511ADDGF100991999999999999999999
0029228920999991912011006004+60717+028783FM-12+000399999V0209991C000019999999N0000001N9-01781+99999100761ADDGF100991999999999999999999
0029228920999991912011013004+60717+028783FM-12+000399999V0202901N002119999999N0000001N9-01171+99999101101ADDGF101991999999999999999999
0029228920999991912011020004+60717+028783FM-12+000399999V0203201N002119999999N0000001N9-01441+99999101831ADDGF100991999999999999999999
0029228920999991912011106004+60717+028783FM-12+000399999V0202501N006219999999N0000001N9-01561+99999102701ADDGF108991999999999999999999
0029228920999991912011113004+60717+028783FM-12+000399999V0202001N004119999999N0000001N9-01281+99999103061ADDGF108991999999999999999999
0029228920999991912011120004+60717+028783FM-12+000399999V0202001N002119999999N0000001N9-00611+99999103391ADDGF108991999999999999999999
0029228920999991912011206004+60717+028783FM-12+000399999V0202001N004119999999N0000001N9-00441+99999103751ADDGF108991999999999999999999
0029228920999991912011213004+60717+028783FM-12+000399999V0202001N009819999999N0000001N9-00441+99999104111ADDGF108991999999999999999999
0029228920999991912011220004+60717+028783FM-12+000399999V0202001N006219999999N0000001N9-00611+99999104401ADDGF108991999999999999999999
0029228920999991912011306004+60717+028783FM-12+000399999V0202001N006219999999N0000001N9-00781+99999104871ADDGF108991999999999999999999
0029228920999991912011313004+60717+028783FM-12+000399999V0201801N002119999999N0000001N9-00831+99999095202ADDGF108991999999999999999999
0029228920999991912011320004+60717+028783FM-12+000399999V0209991C000019999999N0000001N9-01331+99999095511ADDGF100991999999999999999999
0029228920999991912011406004+60717+028783FM-12+000399999V0209991C000019999999N0000001N9-01891+99999095591ADDGF100991999999999999999999
0029228920999991912011413004+60717+028783FM-12+000399999V0200501N002119999999N0000001N9-01221+99999095421ADDGF100991999999999999999999
0029228920999991912011420004+60717+028783FM-12+000399999V0209991C000019999999N0000001N9-01001+99999095061ADDGF100991999999999999999999
0029228920999991912011506004+60717+028783FM-12+000399999V0209991C000019999999N0000001N9-00781+99999104421ADDGF101991999999999999999999
0029228920999991912011513004+60717+028783FM-12+000399999V0201401N004119999999N0000001N9-00941+99999104431ADDGF100991999999999999999999
0029228920999991912011520004+60717+028783FM-12+000399999V0209991C000019999999N0000001N9-01111+99999104561ADDGF108991999999999999999999
0029228920999991912011606004+60717+028783FM-12+000399999V0201401N004119999999N0000001N9-01061+99999104711ADDGF102991999999999999999999
0029228920999991912011613004+60717+028783FM-12+000399999V0209991C000019999999N0000001N9-01171+99999104921ADDGF100991999999999999999999
0048228920999991912011620004+60717+028783FM-12+000399999V0209991C000019999999N0000001N9-01721+99999999999ADDGF100991999999999999999999EQDQ01 095083APOSLP
0029228920999991912011706004+60717+028783FM-12+000399999V0202701N002119999999N0000001N9-01221+99999104861ADDGF108991999999999999999999
0035228920999991912011713004+60717+028783FM-12+000399999V0203601N004119999999N0000001N9-00891+99999104821ADDGF108991999999999999999999MW1701
0029228920999991912011720004+60717+028783FM-12+000399999V0200201N002119999999N0000001N9-00941+99999104671ADDGF108991999999999999999999
0029228920999991912011806004+60717+028783FM-12+000399999V0200901N002119999999N0000001N9-00721+99999104671ADDGF108991999999999999999999
0029228920999991912011813004+60717+028783FM-12+000399999V0200501N002119999999N0000001N9-00721+99999104871ADDGF108991999999999999999999
0029228920999991912011820004+60717+028783FM-12+000399999V0209991C000019999999N0000001N9-00671+99999104901ADDGF108991999999999999999999
0029228920999991912011906004+60717+028783FM-12+000399999V0209991C000019999999N0000001N9-00671+99999104741ADDGF108991999999999999999999
0029228920999991912011913004+60717+028783FM-12+000399999V0202301N006219999999N0000001N9-00561+99999104461ADDGF108991999999999999999999
0035228920999991912011920004+60717+028783FM-12+000399999V0202301N008219999999N0000001N9-00941+99999104121ADDGF108991999999999999999999MW1721
0029228920999991912012006004+60717+028783FM-12+000399999V0202501N008219999999N0000001N9-00891+99999103161ADDGF108991999999999999999999
0029228920999991912012013004+60717+028783FM-12+000399999V0202501N011819999999N0000001N9-00671+99999102551ADDGF108991999999999999999999
0029228920999991912012020004+60717+028783FM-12+000399999V0202501N009819999999N0000001N9-00441+99999102041ADDGF108991999999999999999999
0029228920999991912012106004+60717+028783FM-12+000399999V0209991C000019999999N0000001N9-00391+99999101511ADDGF108991999999999999999999
0029228920999991912012113004+60717+028783FM-12+000399999V0203401N002119999999N0000001N9-00441+99999101521ADDGF108991999999999999999999
0029228920999991912012120004+60717+028783FM-12+000399999V0209991C000019999999N0000001N9-00611+99999101481ADDGF108991999999999999999999
0029228920999991912012206004+60717+028783FM-12+000399999V0209991C000019999999N0000001N9-00611+99999101401ADDGF108991999999999999999999
0029228920999991912012213004+60717+028783FM-12+000399999V0201801N002119999999N0000001N9-00611+99999101461ADDGF108991999999999999999999
0029228920999991912012220004+60717+028783FM-12+000399999V0209991C000019999999N0000001N9-00891+99999101301ADDGF108991999999999999999999
0029228920999991912012306004+60717+028783FM-12+000399999V0209991C000019999999N0000001N9-01221+99999100721ADDGF108991999999999999999999
0035228920999991912012313004+60717+028783FM-12+000399999V0202501N006219999999N0000001N9-00721+99999100261ADDGF108991999999999999999999MW1721
0029228920999991912012320004+60717+028783FM-12+000399999V0202501N002119999999N0000001N9-00441+99999099861ADDGF108991999999999999999999
0029228920999991912012406004+60717+028783FM-12+000399999V0203601N008219999999N0000001N9-00721+99999100151ADDGF108991999999999999999999
0029228920999991912012413004+60717+028783FM-12+000399999V0203401N004119999999N0000001N9-00831+99999100751ADDGF108991999999999999999999
0029228920999991912012420004+60717+028783FM-12+000399999V0209991C000019999999N0000001N9-01061+99999100751ADDGF103991999999999999999999
0029228920999991912012506004+60717+028783FM-12+000399999V0202001N008219999999N0000001N9-00331+99999099431ADDGF108991999999999999999999
0000228920999991912012513004+60717+028783FM-12+000399999V0202701N008219999999N0000001N9-00281+99999099261
0029228920999991912012520004+60717+028783FM-12+000399999V0203401N008219999999N0000001N9-01391+99999099861ADDGF106991999999999999999999
0029228920999991912012606004+60717+028783FM-12+000399999V0203401N002119999999N0000001N9-02061+99999100911ADDGF100991999999999999999999
0029228920999991912012613004+60717+028783FM-12+000399999V0203401N004119999999N0000001N9-01671+99999101431ADDGF100991999999999999999999
0029228920999991912012620004+60717+028783FM-12+000399999V0209991C000019999999N0000001N9-02441+99999101901ADDGF100991999999999999999999
0029228920999991912012706004+60717+028783FM-12+000399999V0209991C000019999999N0000001N9-02891+99999102071ADDGF101991999999999999999999
0029228920999991912012713004+60717+028783FM-12+000399999V0202001N008219999999N0000001N9-01561+99999101831ADDGF102991999999999999999999
0029228920999991912012720004+60717+028783FM-12+000399999V0202001N008219999999N0000001N9-01331+99999101381ADDGF108991999999999999999999
0035228920999991912012806004+60717+028783FM-12+000399999V0202301N011819999999N0000001N9-01001+99999100501ADDGF108991999999999999999999MW1721
0035228920999991912012813004+60717+028783FM-12+000399999V0202001N011819999999N0000001N9-00611+99999100031ADDGF108991999999999999999999MW1721
0029228920999991912012820004+60717+028783FM-12+000399999V0202501N009819999999N0000001N9-00281+99999099831ADDGF108991999999999999999999
0035228920999991912012906004+60717+028783FM-12+000399999V0202001N004119999999N0000001N9-00391+99999099181ADDGF108991999999999999999999MW1721
0035228920999991912012913004+60717+028783FM-12+000399999V0203401N011819999999N0000001N9-01061+99999099991ADDGF108991999999999999999999MW1721
0029228920999991912012920004+60717+028783FM-12+000399999V0203401N004119999999N0000001N9-01671+99999100831ADDGF100991999999999999999999
0029228920999991912013006004+60717+028783FM-12+000399999V0203401N002119999999N0000001N9-02171+99999101151ADDGF100991999999999999999999
0029228920999991912013013004+60717+028783FM-12+000399999V0202901N004119999999N0000001N9-01781+99999101231ADDGF100991999999999999999999
0029228920999991912013020004+60717+028783FM-12+000399999V0202701N002119999999N0000001N9-02501+99999101141ADDGF100991999999999999999999
0035228920999991912013106004+60717+028783FM-12+000399999V0201101N008219999999N0000001N9-01391+99999099941ADDGF108991999999999999999999MW1721
0035228920999991912013113004+60717+028783FM-12+000399999V0201101N004119999999N0000001N9-01221+99999099311ADDGF108991999999999999999999MW1721
0035228920999991912013120004+60717+028783FM-12+000399999V0201601N004119999999N0000001N9-00721+99999099071ADDGF108991999999999999999999MW1721
0035228920999991912020106004+60717+028783FM-12+000399999V0201101N004119999999N0000001N9-01061+99999098581ADDGF108991999999999999999999MW1721
0035228920999991912020113004+60717+028783FM-12+000399999V0201101N002119999999N0000001N9-00721+99999098361ADDGF108991999999999999999999MW1721
0029228920999991912020120004+60717+028783FM-12+000399999V0209991C000019999999N0000001N9-01281+99999098481ADDGF102991999999999999999999
0035228920999991912020206004+60717+028783FM-12+000399999V0209991C000019999999N0000001N9-01501+99999098551ADDGF108991999999999999999999MW1721
0035228920999991912020213004+60717+028783FM-12+000399999V0203601N002119999999N0000001N9-01781+99999098761ADDGF107991999999999999999999MW1721
0035228920999991912020220004+60717+028783FM-12+000399999V0203201N002119999999N0000001N9-01941+99999098901ADDGF108991999999999999999999MW1721
0029228920999991912020306004+60717+028783FM-12+000399999V0203601N002119999999N0000001N9-02171+99999098591ADDGF108991999999999999999999
0029228920999991912020313004+60717+028783FM-12+000399999V0203601N002119999999N0000001N9-02171+99999098791ADDGF102991999999999999999999
0029228920999991912020320004+60717+028783FM-12+000399999V0209991C000019999999N0000001N9-03001+99999099161ADDGF100991999999999999999999
0029228920999991912020406004+60717+028783FM-12+000399999V0209991C000019999999N0000001N9-03441+99999099421ADDGF100991999999999999999999
0029228920999991912020413004+60717+028783FM-12+000399999V0209991C000019999999N0000001N9-02721+99999099521ADDGF101991999999999999999999
0029228920999991912020420004+60717+028783FM-12+000399999V0209991C000019999999N0000001N9-03501+99999099791ADDGF100991999999999999999999
0029228920999991912020506004+60717+028783FM-12+000399999V0209991C000019999999N0000001N9-03111+99999100161ADDGF108991999999999999999999
0029228920999991912020513004+60717+028783FM-12+000399999V0200501N002119999999N0000001N9-01941+99999100341ADDGF108991999999999999999999
0029228920999991912020520004+60717+028783FM-12+000399999V0209991C000019999999N0000001N9-01671+99999100461ADDGF108991999999999999999999
0029228920999991912020606004+60717+028783FM-12+000399999V0202701N006219999999N0000001N9-00441+99999100631ADDGF108991999999999999999999
0029228920999991912020613004+60717+028783FM-12+000399999V0202301N006219999999N0000001N9-00611+99999101231ADDGF108991999999999999999999
0029228920999991912020620004+60717+028783FM-12+000399999V0202001N006219999999N0000001N9-00831+99999101471ADDGF108991999999999999999999
0029228920999991912020706004+60717+028783FM-12+000399999V0209991C000019999999N0000001N9-01831+99999101831ADDGF108991999999999999999999
0029228920999991912020713004+60717+028783FM-12+000399999V0201801N002119999999N0000001N9-01001+99999101831ADDGF104991999999999999999999
0029228920999991912020720004+60717+028783FM-12+000399999V0201801N004119999999N0000001N9-00781+99999101591ADDGF108991999999999999999999
0029228920999991912020806004+60717+028783FM-12+000399999V0209991C000019999999N0000001N9-01391+99999101501ADDGF103991999999999999999999
0029228920999991912020813004+60717+028783FM-12+000399999V0209991C000019999999N0000001N9-00561+99999101671ADDGF100991999999999999999999
0029228920999991912020820004+60717+028783FM-12+000399999V0209991C000019999999N0000001N9-00671+99999101751ADDGF108991999999999999999999
0029228920999991912020906004+60717+028783FM-12+000399999V0201601N008219999999N0000001N9-00891+99999101481ADDGF108991999999999999999999
0029228920999991912020913004+60717+028783FM-12+000399999V0209991C000019999999N0000001N9-00561+99999101461ADDGF108991999999999999999999
0035228920999991912020920004+60717+028783FM-12+000399999V0209991C000019999999N0000001N9-00501+99999101351ADDGF108991999999999999999999MW1721
0029228920999991912021006004+60717+028783FM-12+000399999V0209991C000019999999N0000001N9-00441+99999101141ADDGF108991999999999999999999
0029228920999991912021013004+60717+028783FM-12+000399999V0209991C000019999999N0000001N9-00221+99999101071ADDGF108991999999999999999999
0029228920999991912021020004+60717+028783FM-12+000399999V0209991C000019999999N0000001N9-00281+99999100961ADDGF108991999999999999999999
0035228920999991912021106004+60717+028783FM-12+000399999V0200701N004119999999N0000001N9-00331+99999100911ADDGF108991999999999999999999MW1721
0029228920999991912021113004+60717+028783FM-12+000399999V0200501N006219999999N0000001N9-00331+99999100951ADDGF108991999999999999999999
0035228920999991912021120004+60717+028783FM-12+000399999V0200501N004119999999N0000001N9-00501+99999100991ADDGF108991999999999999999999MW1721
0029228920999991912021206004+60717+028783FM-12+000399999V0200501N002119999999N0000001N9-01281+99999101321ADDGF101991999999999999999999
0029228920999991912021213004+60717+028783FM-12+000399999V0200201N004119999999N0000001N9-00941+99999101661ADDGF102991999999999999999999
0029228920999991912021220004+60717+028783FM-12+000399999V0200201N002119999999N0000001N9-01561+99999101941ADDGF100991999999999999999999
0029228920999991912021306004+60717+028783FM-12+000399999V0200201N002119999999N0000001N9-01671+99999102361ADDGF108991999999999999999999
0029228920999991912021313004+60717+028783FM-12+000399999V0209991C000019999999N0000001N9-01501+99999102521ADDGF100991999999999999999999
0029228920999991912021320004+60717+028783FM-12+000399999V0209991C000019999999N0000001N9-02111+99999102461ADDGF100991999999999999999999
0035228920999991912021406004+60717+028783FM-12+000399999V0202301N009819999999N0000001N9-01281+99999101581ADDGF108991999999999999999999MW1721
0035228920999991912021413004+60717+028783FM-12+000399999V0202301N009819999999N0000001N9-00721+99999100911ADDGF108991999999999999999999MW1721
0029228920999991912021420004+60717+028783FM-12+000399999V0202901N004119999999N0000001N9-00331+99999100741ADDGF108991999999999999999999
0029228920999991912021506004+60717+028783FM-12+000399999V0203601N002119999999N0000001N9-01061+99999101111ADDGF108991999999999999999999
0029228920999991912021513004+60717+028783FM-12+000399999V0209991C000019999999N0000001N9-00941+99999101381ADDGF108991999999999999999999
0029228920999991912021520004+60717+028783FM-12+000399999V0209991C000019999999N0000001N9-01281+99999101591ADDGF101991999999999999999999
0029228920999991912021606004+60717+028783FM-12+000399999V0202501N002119999999N0000001N9-02111+99999101601ADDGF104991999999999999999999
0035228920999991912021613004+60717+028783FM-12+000399999V0202301N009819999999N0000001N9-01001+99999101351ADDGF108991999999999999999999MW1701
0029228920999991912021620004+60717+028783FM-12+000399999V0202301N002119999999N0000001N9-00561+99999101021ADDGF108991999999999999999999
0029228920999991912021706004+60717+028783FM-12+000399999V0209991C000019999999N0000001N9-00501+99999101061ADDGF108991999999999999999999
0029228920999991912021713004+60717+028783FM-12+000399999V0202501N009819999999N0000001N9-00501+99999100791ADDGF108991999999999999999999
0029228920999991912021720004+60717+028783FM-12+000399999V0202701N004119999999N0000001N9-00391+99999100271ADDGF108991999999999999999999
0029228920999991912021806004+60717+028783FM-12+000399999V0203601N004119999999N0000001N9-00671+99999100421ADDGF108991999999999999999999
0029228920999991912021813004+60717+028783FM-12+000399999V0209991C000019999999N0000001N9-00441+99999100441ADDGF100991999999999999999999
0035228920999991912021820004+60717+028783FM-12+000399999V0203401N006219999999N0000001N9-00611+99999999999ADDGF108991999999999999999999MW1721
0029228920999991912021906004+60717+028783FM-12+000399999V0203401N004119999999N0000001N9-01781+99999100791ADDGF100991999999999999999999
0029228920999991912021913004+60717+028783FM-12+000399999V0203601N002119999999N0000001N9-01331+99999101321ADDGF100991999999999999999999
0029228920999991912021920004+60717+028783FM-12+000399999V0209991C000019999999N0000001N9-02441+99999101791ADDGF100991999999999999999999
0029228920999991912022006004+60717+028783FM-12+000399999V0209991C000019999999N0000001N9-03391+99999102221ADDGF100991999999999999999999
0029228920999991912022013004+60717+028783FM-12+000399999V0209991C000019999999N0000001N9-01611+99999102321ADDGF100991999999999999999999
0029228920999991912022020004+60717+028783FM-12+000399999V0209991C000019999999N0000001N9-02891+99999102301ADDGF100991999999999999999999
0029228920999991912022106004+60717+028783FM-12+000399999V0203601N002119999999N0000001N9-03561+99999102301ADDGF100991999999999999999999
0029228920999991912022113004+60717+028783FM-12+000399999V0209991C000019999999N0000001N9-01721+99999102401ADDGF100991999999999999999999
0029228920999991912022120004+60717+028783FM-12+000399999V0209991C000019999999N0000001N9-02561+99999102471ADDGF100991999999999999999999
0029228920999991912022206004+60717+028783FM-12+000399999V0209991C000019999999N0000001N9-02391+99999102471ADDGF108991999999999999999999
0035228920999991912022213004+60717+028783FM-12+000399999V0202301N006219999999N0000001N9-01501+99999102201ADDGF108991999999999999999999MW1721
0035228920999991912022220004+60717+028783FM-12+000399999V0209991C000019999999N0000001N9-01391+99999101961ADDGF108991999999999999999999MW1721
0029228920999991912022306004+60717+028783FM-12+000399999V0209991C000019999999N0000001N9-01831+99999102001ADDGF100991999999999999999999
0029228920999991912022313004+60717+028783FM-12+000399999V0203401N004119999999N0000001N9-01171+99999102241ADDGF100991999999999999999999
0029228920999991912022320004+60717+028783FM-12+000399999V0203601N002119999999N0000001N9-01441+99999102501ADDGF106991999999999999999999
0029228920999991912022406004+60717+028783FM-12+000399999V0200201N002119999999N0000001N9-02781+99999102591ADDGF100991999999999999999999
0029228920999991912022413004+60717+028783FM-12+000399999V0201101N002119999999N0000001N9-01391+99999102521ADDGF100991999999999999999999
0029228920999991912022420004+60717+028783FM-12+000399999V0209991C000019999999N0000001N9-02061+99999102271ADDGF100991999999999999999999
0029228920999991912022506004+60717+028783FM-12+000399999V0209991C000019999999N0000001N9-02061+99999101911ADDGF108991999999999999999999
0029228920999991912022513004+60717+028783FM-12+000399999V0201401N006219999999N0000001N9-01331+99999101641ADDGF102991999999999999999999
0029228920999991912022520004+60717+028783FM-12+000399999V0201601N004119999999N0000001N9-01441+99999101471ADDGF104991999999999999999999
0035228920999991912022606004+60717+028783FM-12+000399999V0201601N004119999999N0000001N9-01441+99999101231ADDGF108991999999999999999999MW1721
0035228920999991912022613004+60717+028783FM-12+000399999V0202001N004119999999N0000001N9-01111+99999101301ADDGF108991999999999999999999MW1721
0035228920999991912022620004+60717+028783FM-12+000399999V0201601N004119999999N0000001N9-01001+99999101431ADDGF108991999999999999999999MW1721
0029228920999991912022706004+60717+028783FM-12+000399999V0201601N002119999999N0000001N9-00561+99999100401ADDGF108991999999999999999999
0035228920999991912022713004+60717+028783FM-12+000399999V0202301N006219999999N0000001N9+00061+99999100341ADDGF108991999999999999999999MW1721
0035228920999991912022720004+60717+028783FM-12+000399999V0209991C000019999999N0000001N9+00061+99999100241ADDGF108991999999999999999999MW1721
0029228920999991912022806004+60717+028783FM-12+000399999V0201801N002119999999N0000001N9+00061+99999100181ADDGF108991999999999999999999
0035228920999991912022813004+60717+028783FM-12+000399999V0202301N006219999999N0000001N9+00061+99999100401ADDGF108991999999999999999999MW1691
0029228920999991912022820004+60717+028783FM-12+000399999V0202501N004119999999N0000001N9+00111+99999100791ADDGF108991999999999999999999
0029228920999991912022906004+60717+028783FM-12+000399999V0202701N002119999999N0000001N9-00111+99999101101ADDGF107991999999999999999999
0035228920999991912022913004+60717+028783FM-12+000399999V0202001N006219999999N0000001N9-00111+99999101201ADDGF108991999999999999999999MW1691
0029228920999991912022920004+60717+028783FM-12+000399999V0202301N008219999999N0000001N9+00061+99999100941ADDGF108991999999999999999999
0029228920999991912030106004+60717+028783FM-12+000399999V0202301N011819999999N0000001N9+00171+99999100271ADDGF108991999999999999999999
0029228920999991912030113004+60717+028783FM-12+000399999V0202501N008219999999N0000001N9+00171+99999100181ADDGF108991999999999999999999
0029228920999991912030120004+60717+028783FM-12+000399999V0202301N004119999999N0000001N9+00061+99999100271ADDGF108991999999999999999999
0029228920999991912030206004+60717+028783FM-12+000399999V0202301N002119999999N0000001N9+00061+99999100401ADDGF108991999999999999999999
0029228920999991912030213004+60717+028783FM-12+000399999V0202301N002119999999N0000001N9+00061+99999100671ADDGF108991999999999999999999
0029228920999991912030220004+60717+028783FM-12+000399999V0209991C000019999999N0000001N9+00061+99999100791ADDGF108991999999999999999999
0029228920999991912030306004+60717+028783FM-12+000399999V0201801N004119999999N0000001N9+00061+99999100551ADDGF108991999999999999999999
0035228920999991912030313004+60717+028783FM-12+000399999V0202301N006219999999N0000001N9+00111+99999100351ADDGF108991999999999999999999MW1721
0029228920999991912030320004+60717+028783FM-12+000399999V0202501N002119999999N0000001N9+00061+99999100421ADDGF108991999999999999999999
0029228920999991912030406004+60717+028783FM-12+000399999V0202001N006219999999N0000001N9+00171+99999100621ADDGF108991999999999999999999
0029228920999991912030413004+60717+028783FM-12+000399999V0202001N006219999999N0000001N9+00171+99999100321ADDGF108991999999999999999999
0035228920999991912030420004+60717+028783FM-12+000399999V0202301N004119999999N0000001N9+00111+99999100151ADDGF108991999999999999999999MW1621
0029228920999991912030506004+60717+028783FM-12+000399999V0202301N002119999999N0000001N9+00061+99999099961ADDGF108991999999999999999999
0029228920999991912030513004+60717+028783FM-12+000399999V0202301N006219999999N0000001N9+00111+99999100471ADDGF108991999999999999999999
0029228920999991912030520004+60717+028783FM-12+000399999V0202001N002119999999N0000001N9+00061+99999100711ADDGF108991999999999999999999
0029228920999991912030606004+60717+028783FM-12+000399999V0201401N004119999999N0000001N9+00111+99999100641ADDGF106991999999999999999999
0029228920999991912030613004+60717+028783FM-12+000399999V0201401N002119999999N0000001N9+00331+99999100631ADDGF108991999999999999999999
0035228920999991912030620004+60717+028783FM-12+000399999V0201101N004119999999N0000001N9+00111+99999100581ADDGF108991999999999999999999MW1621
0029228920999991912030706004+60717+028783FM-12+000399999V0200901N004119999999N0000001N9+00001+99999100601ADDGF108991999999999999999999
0009228920999991912030713004+60717+028783FM-12+000399999V0201101N002119999999N0000001N9+00111+99999100601ADDMW1621
0029228920999991912030720004+60717+028783FM-12+000399999V0201801N002119999999N0000001N9+00171+99999100751ADDGF108991999999999999999999
0029228920999991912030806004+60717+028783FM-12+000399999V0201801N002119999999N0000001N9+00111+99999100801ADDGF108991999999999999999999
0029228920999991912030813004+60717+028783FM-12+000399999V0201801N004119999999N0000001N9+00221+99999100901ADDGF108991999999999999999999
0035228920999991912030820004+60717+028783FM-12+000399999V0201801N004119999999N0000001N9+00111+99999100951ADDGF108991999999999999999999MW1721
0029228920999991912030906004+60717+028783FM-12+000399999V0202301N004119999999N0000001N9+00061+99999101231ADDGF108991999999999999999999
0000228920999991912030913004+60717+028783FM-12+000399999V0202301N006219999999N0000001N9+00111+99999101751
0029228920999991912030920004+60717+028783FM-12+000399999V0209991C000019999999N0000001N9+00001+99999102081ADDGF100991999999999999999999
0029228920999991912031006004+60717+028783FM-12+000399999V0209991C000019999999N0000001N9+00001+99999102521ADDGF108991999999999999999999
0029228920999991912031013004+60717+028783FM-12+000399999V0209991C000019999999N0000001N9+00061+99999102901ADDGF108991999999999999999999
0029228920999991912031020004+60717+028783FM-12+000399999V0200501N002119999999N0000001N9-00171+99999103081ADDGF100991999999999999999999
0029228920999991912031106004+60717+028783FM-12+000399999V0200701N006219999999N0000001N9-00501+99999103271ADDGF108991999999999999999999
0029228920999991912031113004+60717+028783FM-12+000399999V0200701N006219999999N0000001N9-00441+99999103161ADDGF107991999999999999999999
0029228920999991912031120004+60717+028783FM-12+000399999V0200501N008219999999N0000001N9-00561+99999102991ADDGF108991999999999999999999
0035228920999991912031206004+60717+028783FM-12+000399999V0200501N004119999999N0000001N9-00441+99999102631ADDGF108991999999999999999999MW1721
0029228920999991912031213004+60717+028783FM-12+000399999V0200701N004119999999N0000001N9-00281+99999102501ADDGF108991999999999999999999
0035228920999991912031220004+60717+028783FM-12+000399999V0200501N004119999999N0000001N9-00331+99999102401ADDGF108991999999999999999999MW1721
0035228920999991912031306004+60717+028783FM-12+000399999V0200501N002119999999N0000001N9-00441+99999102301ADDGF108991999999999999999999MW1721
0029228920999991912031313004+60717+028783FM-12+000399999V0200501N002119999999N0000001N9-00171+99999102301ADDGF108991999999999999999999
0029228920999991912031320004+60717+028783FM-12+000399999V0200501N002119999999N0000001N9-00281+99999102311ADDGF108991999999999999999999
0029228920999991912031406004+60717+028783FM-12+000399999V0203601N002119999999N0000001N9-00441+99999102361ADDGF108991999999999999999999
0029228920999991912031413004+60717+028783FM-12+000399999V0200501N002119999999N0000001N9-00221+99999102511ADDGF108991999999999999999999
0029228920999991912031420004+60717+028783FM-12+000399999V0203601N002119999999N0000001N9-00391+99999102641ADDGF108991999999999999999999
0029228920999991912031506004+60717+028783FM-12+000399999V0209991C000019999999N0000001N9-00441+99999102901ADDGF108991999999999999999999
0029228920999991912031513004+60717+028783FM-12+000399999V0209991C000019999999N0000001N9+00171+99999102941ADDGF101991999999999999999999
0029228920999991912031520004+60717+028783FM-12+000399999V0209991C000019999999N0000001N9-00331+99999103001ADDGF108991999999999999999999
0029228920999991912031606004+60717+028783FM-12+000399999V0209991C000019999999N0000001N9-00111+99999103031ADDGF108991999999999999999999
0029228920999991912031613004+60717+028783FM-12+000399999V0202501N004119999999N0000001N9+00221+99999103021ADDGF100991999999999999999999
0029228920999991912031620004+60717+028783FM-12+000399999V0209991C000019999999N0000001N9-00671+99999102961ADDGF100991999999999999999999
0029228920999991912031706004+60717+028783FM-12+000399999V0201401N002119999999N0000001N9-00391+99999102871ADDGF108991999999999999999999
0029228920999991912031713004+60717+028783FM-12+000399999V0201101N004119999999N0000001N9-00171+99999102741ADDGF108991999999999999999999
0029228920999991912031720004+60717+028783FM-12+000399999V0209991C000019999999N0000001N9-00501+99999102501ADDGF100991999999999999999999
0029228920999991912031806004+60717+028783FM-12+000399999V0201101N004119999999N0000001N9-00561+99999102161ADDGF101991999999999999999999
0029228920999991912031813004+60717+028783FM-12+000399999V0201401N004119999999N0000001N9+00611+99999102001ADDGF100991999999999999999999
0029228920999991912031820004+60717+028783FM-12+000399999V0209991C000019999999N0000001N9-00221+99999101831ADDGF100991999999999999999999
0029228920999991912031906004+60717+028783FM-12+000399999V0200901N002119999999N0000001N9-00331+99999101541ADDGF108991999999999999999999
0035228920999991912031913004+60717+028783FM-12+000399999V0201401N006219999999N0000001N9-00061+99999101341ADDGF108991999999999999999999MW1721
0029228920999991912031920004+60717+028783FM-12+000399999V0201401N002119999999N0000001N9-00061+99999101161ADDGF108991999999999999999999
0029228920999991912032006004+60717+028783FM-12+000399999V0201101N004119999999N0000001N9+00111+99999100951ADDGF108991999999999999999999
0035228920999991912032013004+60717+028783FM-12+000399999V0201101N004119999999N0000001N9+00221+99999100901ADDGF108991999999999999999999MW1621
0029228920999991912032020004+60717+028783FM-12+000399999V0201601N002119999999N0000001N9+00171+99999100991ADDGF108991999999999999999999
0029228920999991912032106004+60717+028783FM-12+000399999V0201801N004119999999N0000001N9+00061+99999101261ADDGF108991999999999999999999
0029228920999991912032113004+60717+028783FM-12+000399999V0202001N002119999999N0000001N9+00171+99999101521ADDGF108991999999999999999999
0029228920999991912032120004+60717+028783FM-12+000399999V0201401N004119999999N0000001N9+00111+99999101421ADDGF108991999999999999999999
0035228920999991912032206004+60717+028783FM-12+000399999V0201401N008219999999N0000001N9+00171+99999100561ADDGF108991999999999999999999MW1721
0029228920999991912032213004+60717+028783FM-12+000399999V0202001N011819999999N0000001N9+00221+99999100561ADDGF108991999999999999999999
0029228920999991912032220004+60717+028783FM-12+000399999V0201801N006219999999N0000001N9+00221+99999100991ADDGF108991999999999999999999
0029228920999991912032306004+60717+028783FM-12+000399999V0201601N004119999999N0000001N9+00221+99999101081ADDGF108991999999999999999999
0029228920999991912032313004+60717+028783FM-12+000399999V0201801N004119999999N0000001N9+00441+99999101191ADDGF108991999999999999999999
0029228920999991912032320004+60717+028783FM-12+000399999V0201601N004119999999N0000001N9+00111+99999100921ADDGF108991999999999999999999
0035228920999991912032406004+60717+028783FM-12+000399999V0201601N002119999999N0000001N9+00221+99999100841ADDGF108991999999999999999999MW1621
0029228920999991912032413004+60717+028783FM-12+000399999V0201601N006219999999N0000001N9+00281+99999100941ADDGF108991999999999999999999
0035228920999991912032420004+60717+028783FM-12+000399999V0201601N006219999999N0000001N9+00281+99999101061ADDGF108991999999999999999999MW1621
0029228920999991912032506004+60717+028783FM-12+000399999V0201801N002119999999N0000001N9+00111+99999101391ADDGF106991999999999999999999
0029228920999991912032513004+60717+028783FM-12+000399999V0202001N006219999999N0000001N9+00281+99999101561ADDGF106991999999999999999999
0029228920999991912032520004+60717+028783FM-12+000399999V0202001N004119999999N0000001N9+00061+99999101601ADDGF108991999999999999999999
0029228920999991912032606004+60717+028783FM-12+000399999V0202501N004119999999N0000001N9-00111+99999101561ADDGF108991999999999999999999
0029228920999991912032613004+60717+028783FM-12+000399999V0202301N006219999999N0000001N9+00061+99999101711ADDGF108991999999999999999999
0029228920999991912032620004+60717+028783FM-12+000399999V0209991C000019999999N0000001N9-00111+99999101721ADDGF108991999999999999999999
0029228920999991912032706004+60717+028783FM-12+000399999V0209991C000019999999N0000001N9-00171+99999101431ADDGF108991999999999999999999
0029228920999991912032713004+60717+028783FM-12+000399999V0201601N004119999999N0000001N9+00391+99999100831ADDGF108991999999999999999999
0035228920999991912032720004+60717+028783FM-12+000399999V0201401N004119999999N0000001N9+00061+99999099801ADDGF108991999999999999999999MW1621
0035228920999991912032806004+60717+028783FM-12+000399999V0201401N004119999999N0000001N9+00171+99999098391ADDGF108991999999999999999999MW1621
0035228920999991912032813004+60717+028783FM-12+000399999V0202301N009819999999N0000001N9+00171+99999098141ADDGF108991999999999999999999MW1621
0035228920999991912032820004+60717+028783FM-12+000399999V0202001N004119999999N0000001N9+00111+99999097841ADDGF108991999999999999999999MW1621
0035228920999991912032906004+60717+028783FM-12+000399999V0202501N004119999999N0000001N9+00061+99999097231ADDGF108991999999999999999999MW1721
0029228920999991912032913004+60717+028783FM-12+000399999V0202501N006219999999N0000001N9+00171+99999097561ADDGF108991999999999999999999
0029228920999991912032920004+60717+028783FM-12+000399999V0203201N004119999999N0000001N9+00001+99999098001ADDGF108991999999999999999999
0029228920999991912033006004+60717+028783FM-12+000399999V0203201N009819999999N0000001N9-00171+99999098501ADDGF108991999999999999999999
0029228920999991912033013004+60717+028783FM-12+000399999V0202901N008219999999N0000001N9+00281+99999098841ADDGF100991999999999999999999
0035228920999991912033020004+60717+028783FM-12+000399999V0202301N002119999999N0000001N9-00111+99999099101ADDGF108991999999999999999999MW1721
0029228920999991912033106004+60717+028783FM-12+000399999V0209991C000019999999N0000001N9-00501+99999099481ADDGF108991999999999999999999
0029228920999991912033113004+60717+028783FM-12+000399999V0200201N002119999999N0000001N9+00061+99999099881ADDGF100991999999999999999999
0029228920999991912033120004+60717+028783FM-12+000399999V0209991C000019999999N0000001N9-00831+99999100341ADDGF100991999999999999999999
0029228920999991912040106004+60717+028783FM-12+000399999V0209991C000019999999N0000001N9-00831+99999100821ADDGF100991999999999999999999
0029228920999991912040113004+60717+028783FM-12+000399999V0202501N006219999999N0000001N9-00061+99999100951ADDGF107991999999999999999999
0029228920999991912040120004+60717+028783FM-12+000399999V0200901N006219999999N0000001N9-00171+99999100941ADDGF108991999999999999999999
0029228920999991912040206004+60717+028783FM-12+000399999V0200901N004119999999N0000001N9-00221+99999100381ADDGF108991999999999999999999
0029228920999991912040213004+60717+028783FM-12+000399999V0200501N008219999999N0000001N9+00001+99999100401ADDGF108991999999999999999999
0029228920999991912040220004+60717+028783FM-12+000399999V0200201N008219999999N0000001N9-00171+99999100871ADDGF108991999999999999999999
0029228920999991912040306004+60717+028783FM-12+000399999V0203401N004119999999N0000001N9-00441+99999101751ADDGF100991999999999999999999
0029228920999991912040313004+60717+028783FM-12+000399999V0203601N004119999999N0000001N9+00001+99999102041ADDGF100991999999999999999999
0029228920999991912040320004+60717+028783FM-12+000399999V0209991C000019999999N0000001N9-00501+99999102191ADDGF100991999999999999999999
0029228920999991912040406004+60717+028783FM-12+000399999V0202001N004119999999N0000001N9-00391+99999102061ADDGF100991999999999999999999
0029228920999991912040413004+60717+028783FM-12+000399999V0202301N006219999999N0000001N9+00221+99999101511ADDGF100991999999999999999999
0029228920999991912040420004+60717+028783FM-12+000399999V0202301N004119999999N0000001N9+00061+99999100671ADDGF100991999999999999999999
0035228920999991912040506004+60717+028783FM-12+000399999V0202001N008219999999N0000001N9+00061+99999098761ADDGF108991999999999999999999MW1721
0029228920999991912040513004+60717+028783FM-12+000399999V0202301N004119999999N0000001N9+00171+99999999999ADDGF108991999999999999999999
0029228920999991912040520004+60717+028783FM-12+000399999V0202301N002119999999N0000001N9+00171+99999097881ADDGF102991999999999999999999
0029228920999991912040606004+60717+028783FM-12+000399999V0202701N004119999999N0000001N9+00001+99999097801ADDGF100991999999999999999999
0029228920999991912040613004+60717+028783FM-12+000399999V0202901N002119999999N0000001N9+00221+99999097961ADDGF106991999999999999999999
0029228920999991912040620004+60717+028783FM-12+000399999V0203201N004119999999N0000001N9-00671+99999098471ADDGF102991999999999999999999
0029228920999991912040706004+60717+028783FM-12+000399999V0203401N006219999999N0000001N9-00781+99999098861ADDGF106991999999999999999999
0029228920999991912040713004+60717+028783FM-12+000399999V0203401N006219999999N0000001N9-00611+99999099031ADDGF108991999999999999999999
0029228920999991912040720004+60717+028783FM-12+000399999V0203401N006219999999N0000001N9-00611+99999099241ADDGF107991999999999999999999
0029228920999991912040806004+60717+028783FM-12+000399999V0209991C000019999999N0000001N9-00891+99999099271ADDGF102991999999999999999999
0029228920999991912040813004+60717+028783FM-12+000399999V0203401N004119999999N0000001N9-00111+99999099221ADDGF107991999999999999999999
0029228920999991912040820004+60717+028783FM-12+000399999V0203401N002119999999N0000001N9-00501+99999099481ADDGF101991999999999999999999
0029228920999991912040906004+60717+028783FM-12+000399999V0200701N006219999999N0000001N9-00721+99999099181ADDGF108991999999999999999999
0029228920999991912040913004+60717+028783FM-12+000399999V0200701N009819999999N0000001N9-00441+99999098681ADDGF108991999999999999999999
0035228920999991912040920004+60717+028783FM-12+000399999V0200701N009819999999N0000001N9-00721+99999098511ADDGF108991999999999999999999MW1721
0035228920999991912041006004+60717+028783FM-12+000399999V0200501N008219999999N0000001N9-00721+99999098701ADDGF108991999999999999999999MW1721
0035228920999991912041013004+60717+028783FM-12+000399999V0200701N004119999999N0000001N9-00441+99999099191ADDGF108991999999999999999999MW1721
0035228920999991912041020004+60717+028783FM-12+000399999V0200701N002119999999N0000001N9-00441+99999099461ADDGF108991999999999999999999MW1721
0035228920999991912041106004+60717+028783FM-12+000399999V0209991C000019999999N0000001N9-00331+99999099481ADDGF108991999999999999999999MW1721
0029228920999991912041113004+60717+028783FM-12+000399999V0202301N009819999999N0000001N9-00391+99999100161ADDGF108991999999999999999999
0029228920999991912041120004+60717+028783FM-12+000399999V0203401N004119999999N0000001N9-00391+99999100401ADDGF108991999999999999999999
0029228920999991912041206004+60717+028783FM-12+000399999V0203601N006219999999N0000001N9-00391+99999099991ADDGF108991999999999999999999
0035228920999991912041213004+60717+028783FM-12+000399999V0203401N008219999999N0000001N9-00281+99999099921ADDGF108991999999999999999999MW1721
0035228920999991912041220004+60717+028783FM-12+000399999V0203201N006219999999N0000001N9-00391+99999100181ADDGF108991999999999999999999MW1721
0035228920999991912041306004+60717+028783FM-12+000399999V0203201N006219999999N0000001N9-00721+99999100321ADDGF108991999999999999999999MW1721
0035228920999991912041313004+60717+028783FM-12+000399999V0202901N002119999999N0000001N9-00501+99999100381ADDGF108991999999999999999999MW1721
0029228920999991912041320004+60717+028783FM-12+000399999V0209991C000019999999N0000001N9-00671+99999100621ADDGF108991999999999999999999
0029228920999991912041406004+60717+028783FM-12+000399999V0209991C000019999999N0000001N9-00671+99999101031ADDGF108991999999999999999999
0029228920999991912041413004+60717+028783FM-12+000399999V0203601N002119999999N0000001N9-00061+99999101321ADDGF108991999999999999999999
0035228920999991912041420004+60717+028783FM-12+000399999V0203601N002119999999N0000001N9-00061+99999101481ADDGF108991999999999999999999MW1721
0029228920999991912041506004+60717+028783FM-12+000399999V0203401N004119999999N0000001N9-00111+99999101551ADDGF100991999999999999999999
0029228920999991912041513004+60717+028783FM-12+000399999V0203401N008219999999N0000001N9+00611+99999101521ADDGF100991999999999999999999
0029228920999991912041520004+60717+028783FM-12+000399999V0209991C000019999999N0000001N9+00111+99999101511ADDGF100991999999999999999999
0029228920999991912041606004+60717+028783FM-12+000399999V0203401N004119999999N0000001N9+00391+99999101721ADDGF100991999999999999999999
0029228920999991912041613004+60717+028783FM-12+000399999V0203401N004119999999N0000001N9+00831+99999102061ADDGF100991999999999999999999
0029228920999991912041620004+60717+028783FM-12+000399999V0202301N002119999999N0000001N9+00221+99999102241ADDGF102991999999999999999999
0046228920999991912041706004+60717+028783FM-12+000399999V0202301N006219999999N0000001N9+00171+99999102121ADDAJ100009199999999GF104991999999999999999999
0029228920999991912041713004+60717+028783FM-12+000399999V0202001N006219999999N0000001N9+00441+99999102191ADDGF100991999999999999999999
0029228920999991912041720004+60717+028783FM-12+000399999V0202001N002119999999N0000001N9+00111+99999102301ADDGF101991999999999999999999
0046228920999991912041806004+60717+028783FM-12+000399999V0202301N002119999999N0000001N9-00061+99999102561ADDAJ100009199999999GF108991999999999999999999
0029228920999991912041813004+60717+028783FM-12+000399999V0202501N006219999999N0000001N9+00221+99999102661ADDGF100991999999999999999999
0029228920999991912041820004+60717+028783FM-12+000399999V0202301N002119999999N0000001N9-00171+99999102701ADDGF100991999999999999999999
0046228920999991912041906004+60717+028783FM-12+000399999V0209991C000019999999N0000001N9+00171+99999102801ADDAJ100009199999999GF100991999999999999999999
0029228920999991912041913004+60717+028783FM-12+000399999V0202701N002119999999N0000001N9+01561+99999102821ADDGF100991999999999999999999
0029228920999991912041920004+60717+028783FM-12+000399999V0209991C000019999999N0000001N9+00611+99999102951ADDGF100991999999999999999999
0046228920999991912042006004+60717+028783FM-12+000399999V0209991C000019999999N0000001N9+00441+99999103201ADDAJ100009199999999GF100991999999999999999999
0029228920999991912042013004+60717+028783FM-12+000399999V0209991C000019999999N0000001N9+01671+99999103281ADDGF100991999999999999999999
0029228920999991912042020004+60717+028783FM-12+000399999V0209991C000019999999N0000001N9+00501+99999103391ADDGF100991999999999999999999
0046228920999991912042106004+60717+028783FM-12+000399999V0200701N004119999999N0000001N9+00501+99999103761ADDAJ100009199999999GF100991999999999999999999
0029228920999991912042113004+60717+028783FM-12+000399999V0200701N008219999999N0000001N9+01171+99999103901ADDGF101991999999999999999999
0029228920999991912042120004+60717+028783FM-12+000399999V0209991C000019999999N0000001N9+00111+99999103871ADDGF100991999999999999999999
0046228920999991912042206004+60717+028783FM-12+000399999V0209991C000019999999N0000001N9+00171+99999103751ADDAJ100009199999999GF101991999999999999999999
0029228920999991912042213004+60717+028783FM-12+000399999V0202001N004119999999N0000001N9+01171+99999103271ADDGF100991999999999999999999
0029228920999991912042220004+60717+028783FM-12+000399999V0209991C000019999999N0000001N9+00501+99999103101ADDGF100991999999999999999999
0046228920999991912042306004+60717+028783FM-12+000399999V0202501N002119999999N0000001N9+00281+99999102861ADDAJ100009199999999GF101991999999999999999999
0029228920999991912042313004+60717+028783FM-12+000399999V0203401N006219999999N0000001N9+01441+99999102581ADDGF101991999999999999999999
0029228920999991912042320004+60717+028783FM-12+000399999V0209991C000019999999N0000001N9+00611+99999102401ADDGF101991999999999999999999
0046228920999991912042406004+60717+028783FM-12+000399999V0203601N004119999999N0000001N9+00441+99999102161ADDAJ100009199999999GF100991999999999999999999
0029228920999991912042413004+60717+028783FM-12+000399999V0203401N009819999999N0000001N9+00671+99999101881ADDGF108991999999999999999999
0029228920999991912042420004+60717+028783FM-12+000399999V0203601N008219999999N0000001N9+00671+99999101591ADDGF108991999999999999999999
0046228920999991912042506004+60717+028783FM-12+000399999V0200201N002119999999N0000001N9+00281+99999101801ADDAJ100009199999999GF108991999999999999999999
0029228920999991912042513004+60717+028783FM-12+000399999V0200701N006219999999N0000001N9+00501+99999101871ADDGF105991999999999999999999
0029228920999991912042520004+60717+028783FM-12+000399999V0202301N002119999999N0000001N9-00061+99999101671ADDGF104991999999999999999999
0046228920999991912042606004+60717+028783FM-12+000399999V0202001N006219999999N0000001N9+00111+99999100901ADDAJ100009199999999GF108991999999999999999999
0029228920999991912042613004+60717+028783FM-12+000399999V0202301N009819999999N0000001N9+00441+99999100281ADDGF108991999999999999999999
0029228920999991912042620004+60717+028783FM-12+000399999V0209991C000019999999N0000001N9+00281+99999100021ADDGF108991999999999999999999
0046228920999991912042706004+60717+028783FM-12+000399999V0203401N004119999999N0000001N9+00221+99999099981ADDAJ100009199999999GF108991999999999999999999
0029228920999991912042713004+60717+028783FM-12+000399999V0202301N006219999999N0000001N9+00331+99999999999ADDGF107991999999999999999999
0029228920999991912042720004+60717+028783FM-12+000399999V0202901N002119999999N0000001N9+00061+99999100031ADDGF108991999999999999999999
0035228920999991912042806004+60717+028783FM-12+000399999V0209991C000019999999N0000001N9+00061+99999100031ADDGF108991999999999999999999MW1721
0035228920999991912042813004+60717+028783FM-12+000399999V0202901N002119999999N0000001N9+00221+99999100181ADDGF108991999999999999999999MW1721
0029228920999991912042820004+60717+028783FM-12+000399999V0209991C000019999999N0000001N9+00111+99999100351ADDGF108991999999999999999999
0046228920999991912042906004+60717+028783FM-12+000399999V0203401N002119999999N0000001N9+00171+99999100521ADDAJ100009199999999GF108991999999999999999999
0029228920999991912042913004+60717+028783FM-12+000399999V0200201N006219999999N0000001N9+00331+99999100921ADDGF108991999999999999999999
0029228920999991912042920004+60717+028783FM-12+000399999V0203601N006219999999N0000001N9+00111+99999101351ADDGF108991999999999999999999
0046228920999991912043006004+60717+028783FM-12+000399999V0200201N002119999999N0000001N9+00061+99999101561ADDAJ100009199999999GF101991999999999999999999
0029228920999991912043013004+60717+028783FM-12+000399999V0203601N004119999999N0000001N9+00501+99999101581ADDGF101991999999999999999999
0029228920999991912043020004+60717+028783FM-12+000399999V0209991C000019999999N0000001N9+00061+99999101541ADDGF100991999999999999999999
0046228920999991912050106004+60717+028783FM-12+000399999V0202301N002119999999N0000001N9+00061+99999101311ADDAJ100009199999999GF100991999999999999999999
0029228920999991912050113004+60717+028783FM-12+000399999V0200201N004119999999N0000001N9+00781+99999101161ADDGF108991999999999999999999
0029228920999991912050120004+60717+028783FM-12+000399999V0209991C000019999999N0000001N9+00441+99999101201ADDGF108991999999999999999999
0046228920999991912050206004+60717+028783FM-12+000399999V0200501N002119999999N0000001N9+00221+99999101361ADDAJ100009199999999GF108991999999999999999999
0029228920999991912050213004+60717+028783FM-12+000399999V0200201N002119999999N0000001N9+00561+99999101351ADDGF106991999999999999999999
0029228920999991912050220004+60717+028783FM-12+000399999V0209991C000019999999N0000001N9+00171+99999101261ADDGF108991999999999999999999
0046228920999991912050306004+60717+028783FM-12+000399999V0209991C000019999999N0000001N9+00171+99999101381ADDAJ100009199999999GF108991999999999999999999
0029228920999991912050313004+60717+028783FM-12+000399999V0202301N004119999999N0000001N9+00441+99999101261ADDGF108991999999999999999999
0029228920999991912050320004+60717+028783FM-12+000399999V0201101N004119999999N0000001N9+00001+99999101021ADDGF108991999999999999999999
0035228920999991912050406004+60717+028783FM-12+000399999V0201101N006219999999N0000001N9-00061+99999100221ADDGF108991999999999999999999MW1721
0029228920999991912050413004+60717+028783FM-12+000399999V0200901N006219999999N0000001N9+00221+99999099981ADDGF108991999999999999999999
0035228920999991912050420004+60717+028783FM-12+000399999V0209991C000019999999N0000001N9+00221+99999099641ADDGF108991999999999999999999MW1721
0052228920999991912050506004+60717+028783FM-12+000399999V0203601N004119999999N0000001N9+00171+99999099581ADDAJ100009199999999GF108991999999999999999999MW1621
0035228920999991912050513004+60717+028783FM-12+000399999V0203401N006219999999N0000001N9+00111+99999100121ADDGF108991999999999999999999MW1721
0029228920999991912050520004+60717+028783FM-12+000399999V0203401N004119999999N0000001N9+00171+99999100741ADDGF108991999999999999999999
0046228920999991912050606004+60717+028783FM-12+000399999V0203201N004119999999N0000001N9+00111+99999101421ADDAJ100009199999999GF108991999999999999999999
0029228920999991912050613004+60717+028783FM-12+000399999V0202901N004119999999N0000001N9+00441+99999101711ADDGF108991999999999999999999
0029228920999991912050620004+60717+028783FM-12+000399999V0203201N002119999999N0000001N9+00171+99999101861ADDGF108991999999999999999999
0046228920999991912050706004+60717+028783FM-12+000399999V0203401N002119999999N0000001N9+00281+99999101941ADDAJ100009199999999GF100991999999999999999999
0029228920999991912050713004+60717+028783FM-12+000399999V0202301N006219999999N0000001N9+00441+99999101941ADDGF107991999999999999999999
0029228920999991912050720004+60717+028783FM-12+000399999V0203601N004119999999N0000001N9+00221+99999102071ADDGF103991999999999999999999
0046228920999991912050806004+60717+028783FM-12+000399999V0203601N002119999999N0000001N9+00171+99999102311ADDAJ100009199999999GF102991999999999999999999
0029228920999991912050813004+60717+028783FM-12+000399999V0203401N006219999999N0000001N9+00391+99999102501ADDGF104991999999999999999999
0029228920999991912050820004+60717+028783FM-12+000399999V0209991C000019999999N0000001N9-00111+99999102581ADDGF100991999999999999999999
0046228920999991912050906004+60717+028783FM-12+000399999V0202301N002119999999N0000001N9+00281+99999102391ADDAJ100009199999999GF106991999999999999999999
0029228920999991912050913004+60717+028783FM-12+000399999V0202301N009819999999N0000001N9+00441+99999101881ADDGF108991999999999999999999
0029228920999991912050920004+60717+028783FM-12+000399999V0202301N004119999999N0000001N9+00281+99999101351ADDGF108991999999999999999999
0046228920999991912051006004+60717+028783FM-12+000399999V0200901N002119999999N0000001N9+00281+99999100751ADDAJ100009199999999GF108991999999999999999999
0029228920999991912051013004+60717+028783FM-12+000399999V0209991C000019999999N0000001N9+00781+99999100481ADDGF108991999999999999999999
0029228920999991912051020004+60717+028783FM-12+000399999V0209991C000019999999N0000001N9+00281+99999100431ADDGF108991999999999999999999
0046228920999991912051106004+60717+028783FM-12+000399999V0203201N006219999999N0000001N9+00561+99999100471ADDAJ100009199999999GF100991999999999999999999
0029228920999991912051113004+60717+028783FM-12+000399999V0202301N008219999999N0000001N9+00721+99999100681ADDGF102991999999999999999999
0029228920999991912051120004+60717+028783FM-12+000399999V0202301N004119999999N0000001N9+00331+99999101061ADDGF101991999999999999999999
0046228920999991912051206004+60717+028783FM-12+000399999V0201601N004119999999N0000001N9+00831+99999101101ADDAJ100009199999999GF101991999999999999999999
0029228920999991912051213004+60717+028783FM-12+000399999V0202301N006219999999N0000001N9+01111+99999100871ADDGF108991999999999999999999
0029228920999991912051220004+60717+028783FM-12+000399999V0201401N004119999999N0000001N9+01001+99999100151ADDGF108991999999999999999999
0046228920999991912051306004+60717+028783FM-12+000399999V0202301N004119999999N0000001N9+00781+99999098621ADDAJ100009199999999GF108991999999999999999999
0029228920999991912051313004+60717+028783FM-12+000399999V0202301N004119999999N0000001N9+01061+99999098481ADDGF102991999999999999999999
0029228920999991912051320004+60717+028783FM-12+000399999V0202701N002119999999N0000001N9+00671+99999098471ADDGF100991999999999999999999
0046228920999991912051406004+60717+028783FM-12+000399999V0203201N004119999999N0000001N9+00561+99999098471ADDAJ100009199999999GF108991999999999999999999
0035228920999991912051413004+60717+028783FM-12+000399999V0203401N004119999999N0000001N9+00831+99999098701ADDGF108991999999999999999999MW1621
0029228920999991912051420004+60717+028783FM-12+000399999V0200501N008219999999N0000001N9+00671+99999099101ADDGF108991999999999999999999
0046228920999991912051506004+60717+028783FM-12+000399999V0200701N006219999999N0000001N9+00781+99999100021ADDAJ100009199999999GF106991999999999999999999
0029228920999991912051513004+60717+028783FM-12+000399999V0200901N004119999999N0000001N9+01281+99999100581ADDGF102991999999999999999999
0029228920999991912051520004+60717+028783FM-12+000399999V0209991C000019999999N0000001N9+00831+99999100791ADDGF102991999999999999999999
0046228920999991912051606004+60717+028783FM-12+000399999V0200201N004119999999N0000001N9+01061+99999101061ADDAJ100009199999999GF100991999999999999999999
0029228920999991912051613004+60717+028783FM-12+000399999V0200201N004119999999N0000001N9+01671+99999101071ADDGF101991999999999999999999
0029228920999991912051620004+60717+028783FM-12+000399999V0200501N008219999999N0000001N9+00941+99999101201ADDGF103991999999999999999999
0046228920999991912051706004+60717+028783FM-12+000399999V0200501N004119999999N0000001N9+00171+99999101301ADDAJ100009199999999GF108991999999999999999999
0029228920999991912051713004+60717+028783FM-12+000399999V0200201N004119999999N0000001N9+00331+99999101261ADDGF108991999999999999999999
0035228920999991912051720004+60717+028783FM-12+000399999V0200201N004119999999N0000001N9+00111+99999101181ADDGF108991999999999999999999MW1701
0046228920999991912051806004+60717+028783FM-12+000399999V0200501N002119999999N0000001N9+00171+99999101021ADDAJ100009199999999GF108991999999999999999999
0029228920999991912051813004+60717+028783FM-12+000399999V0203401N004119999999N0000001N9+00721+99999100941ADDGF108991999999999999999999
0029228920999991912051820004+60717+028783FM-12+000399999V0202701N004119999999N0000001N9+00441+99999100921ADDGF108991999999999999999999
0046228920999991912051906004+60717+028783FM-12+000399999V0202301N006219999999N0000001N9+00611+99999100841ADDAJ100009199999999GF108991999999999999999999
0029228920999991912051913004+60717+028783FM-12+000399999V0202301N008219999999N0000001N9+00781+99999101061ADDGF101991999999999999999999
0029228920999991912051920004+60717+028783FM-12+000399999V0202301N006219999999N0000001N9+00611+99999101201ADDGF108991999999999999999999
0046228920999991912052006004+60717+028783FM-12+000399999V0202701N004119999999N0000001N9+00671+99999101381ADDAJ100009199999999GF108991999999999999999999
0029228920999991912052013004+60717+028783FM-12+000399999V0202301N006219999999N0000001N9+01171+99999101311ADDGF104991999999999999999999
0029228920999991912052020004+60717+028783FM-12+000399999V0202301N004119999999N0000001N9+00781+99999101361ADDGF102991999999999999999999
0046228920999991912052106004+60717+028783FM-12+000399999V0202301N002119999999N0000001N9+00891+99999101201ADDAJ100009199999999GF104991999999999999999999
0029228920999991912052113004+60717+028783FM-12+000399999V0202501N006219999999N0000001N9+01561+99999101151ADDGF102991999999999999999999
0029228920999991912052120004+60717+028783FM-12+000399999V0202301N002119999999N0000001N9+01061+99999101111ADDGF107991999999999999999999
0046228920999991912052206004+60717+028783FM-12+000399999V0200701N004119999999N0000001N9+00831+99999100761ADDAJ100009199999999GF108991999999999999999999
0029228920999991912052213004+60717+028783FM-12+000399999V0202501N008219999999N0000001N9+01281+99999100501ADDGF108991999999999999999999
0029228920999991912052220004+60717+028783FM-12+000399999V0202301N006219999999N0000001N9+00781+99999100661ADDGF108991999999999999999999
0046228920999991912052306004+60717+028783FM-12+000399999V0202901N002119999999N0000001N9+00941+99999101061ADDAJ100009199999999GF108991999999999999999999
0029228920999991912052313004+60717+028783FM-12+000399999V0202301N002119999999N0000001N9+01221+99999101201ADDGF108991999999999999999999
0029228920999991912052320004+60717+028783FM-12+000399999V0201101N004119999999N0000001N9+01171+99999101201ADDGF102991999999999999999999
0046228920999991912052406004+60717+028783FM-12+000399999V0200901N004119999999N0000001N9+01111+99999101021ADDAJ100009199999999GF103991999999999999999999
0029228920999991912052413004+60717+028783FM-12+000399999V0200701N006219999999N0000001N9+01501+99999100991ADDGF108991999999999999999999
0029228920999991912052420004+60717+028783FM-12+000399999V0209991C000019999999N0000001N9+01441+99999101071ADDGF108991999999999999999999
0046228920999991912052506004+60717+028783FM-12+000399999V0209991C000019999999N0000001N9+01611+99999101161ADDAJ100009199999999GF100991999999999999999999
0029228920999991912052513004+60717+028783FM-12+000399999V0202301N006219999999N0000001N9+02171+99999101231ADDGF100991999999999999999999
0029228920999991912052520004+60717+028783FM-12+000399999V0203401N004119999999N0000001N9+01611+99999101271ADDGF101991999999999999999999
0046228920999991912052606004+60717+028783FM-12+000399999V0200501N004119999999N0000001N9+01171+99999101121ADDAJ100009199999999GF108991999999999999999999
0029228920999991912052613004+60717+028783FM-12+000399999V0200201N004119999999N0000001N9+01831+99999101141ADDGF102991999999999999999999
0029228920999991912052620004+60717+028783FM-12+000399999V0200701N004119999999N0000001N9+01171+99999101001ADDGF102991999999999999999999
0046228920999991912052706004+60717+028783FM-12+000399999V0209991C000019999999N0000001N9+01671+99999101031ADDAJ100009199999999GF100991999999999999999999
0029228920999991912052713004+60717+028783FM-12+000399999V0201601N004119999999N0000001N9+02441+99999100911ADDGF103991999999999999999999
0029228920999991912052720004+60717+028783FM-12+000399999V0209991C000019999999N0000001N9+01831+99999100841ADDGF108991999999999999999999
0046228920999991912052806004+60717+028783FM-12+000399999V0209991C000019999999N0000001N9+01831+99999100801ADDAJ100009199999999GF102991999999999999999999
0029228920999991912052813004+60717+028783FM-12+000399999V0201401N008219999999N0000001N9+02331+99999100541ADDGF106991999999999999999999
0029228920999991912052820004+60717+028783FM-12+000399999V0209991C000019999999N0000001N9+01611+99999100521ADDGF105991999999999999999999
0046228920999991912052906004+60717+028783FM-12+000399999V0200701N002119999999N0000001N9+01781+99999100141ADDAJ100009199999999GF108991999999999999999999
0029228920999991912052913004+60717+028783FM-12+000399999V0201601N004119999999N0000001N9+02061+99999099951ADDGF108991999999999999999999
0035228920999991912052920004+60717+028783FM-12+000399999V0202001N009819999999N0000001N9+01001+99999099981ADDGF108991999999999999999999MW1621
0052228920999991912053006004+60717+028783FM-12+000399999V0202301N009819999999N0000001N9+00831+99999100121ADDAJ100009199999999GF108991999999999999999999MW1621
0035228920999991912053013004+60717+028783FM-12+000399999V0209991C000019999999N0000001N9+00941+99999100231ADDGF108991999999999999999999MW1621
0029228920999991912053020004+60717+028783FM-12+000399999V0209991C000019999999N0000001N9+01061+99999100181ADDGF107991999999999999999999
0046228920999991912053106004+60717+028783FM-12+000399999V0201101N002119999999N0000001N9+01001+99999100151ADDAJ100009199999999GF108991999999999999999999
0029228920999991912053113004+60717+028783FM-12+000399999V0201601N002119999999N0000001N9+01281+99999100201ADDGF108991999999999999999999
0029228920999991912053120004+60717+028783FM-12+000399999V0209991C000019999999N0000001N9+01061+99999100201ADDGF106991999999999999999999
0046228920999991912060106004+60717+028783FM-12+000399999V0202501N004119999999N0000001N9+01281+99999100321ADDAJ100009199999999GF107991999999999999999999
0029228920999991912060113004+60717+028783FM-12+000399999V0202301N009819999999N0000001N9+01111+99999100541ADDGF102991999999999999999999
0029228920999991912060120004+60717+028783FM-12+000399999V0202301N008219999999N0000001N9+00891+99999100701ADDGF108991999999999999999999
0046228920999991912060206004+60717+028783FM-12+000399999V0202701N006219999999N0000001N9+01061+99999101031ADDAJ100009199999999GF108991999999999999999999
0029228920999991912060213004+60717+028783FM-12+000399999V0202501N006219999999N0000001N9+01331+99999101201ADDGF102991999999999999999999
0029228920999991912060220004+60717+028783FM-12+000399999V0202501N004119999999N0000001N9+01001+99999101351ADDGF100991999999999999999999
0046228920999991912060306004+60717+028783FM-12+000399999V0209991C000019999999N0000001N9+01221+99999101391ADDAJ100009199999999GF100991999999999999999999
0029228920999991912060313004+60717+028783FM-12+000399999V0202501N002119999999N0000001N9+01891+99999101161ADDGF100991999999999999999999
0029228920999991912060320004+60717+028783FM-12+000399999V0200901N002119999999N0000001N9+01111+99999100831ADDGF107991999999999999999999
0052228920999991912060406004+60717+028783FM-12+000399999V0201101N004119999999N0000001N9+01221+99999100311ADDAJ100009199999999GF108991999999999999999999MW1621
0029228920999991912060413004+60717+028783FM-12+000399999V0202001N006219999999N0000001N9+01671+99999100341ADDGF107991999999999999999999
0035228920999991912060420004+60717+028783FM-12+000399999V0202501N011819999999N0000001N9+01111+99999100181ADDGF108991999999999999999999MW1621
0046228920999991912060506004+60717+028783FM-12+000399999V0203201N002119999999N0000001N9+01001+99999100901ADDAJ100009199999999GF108991999999999999999999
0035228920999991912060513004+60717+028783FM-12+000399999V0200201N002119999999N0000001N9+00941+99999101441ADDGF108991999999999999999999MW1621
0029228920999991912060520004+60717+028783FM-12+000399999V0209991C000019999999N0000001N9+01001+99999101751ADDGF106991999999999999999999
0046228920999991912060606004+60717+028783FM-12+000399999V0200901N002119999999N0000001N9+01391+99999102241ADDAJ100009199999999GF100991999999999999999999
0029228920999991912060613004+60717+028783FM-12+000399999V0201401N004119999999N0000001N9+01781+99999102311ADDGF102991999999999999999999
0029228920999991912060620004+60717+028783FM-12+000399999V0209991C000019999999N0000001N9+00941+99999102351ADDGF107991999999999999999999
0046228920999991912060706004+60717+028783FM-12+000399999V0209991C000019999999N0000001N9+01221+99999102401ADDAJ100009199999999GF100991999999999999999999
0029228920999991912060713004+60717+028783FM-12+000399999V0202501N004119999999N0000001N9+02001+99999102311ADDGF100991999999999999999999
0029228920999991912060720004+60717+028783FM-12+000399999V0209991C000019999999N0000001N9+01671+99999102151ADDGF105991999999999999999999
0046228920999991912060806004+60717+028783FM-12+000399999V0209991C000019999999N0000001N9+01831+99999102161ADDAJ100009199999999GF100991999999999999999999
0029228920999991912060813004+60717+028783FM-12+000399999V0202501N002119999999N0000001N9+02281+99999102001ADDGF100991999999999999999999
0029228920999991912060820004+60717+028783FM-12+000399999V0209991C000019999999N0000001N9+01831+99999101781ADDGF101991999999999999999999
0046228920999991912060906004+60717+028783FM-12+000399999V0201601N002119999999N0000001N9+02221+99999101231ADDAJ100009199999999GF102991999999999999999999
0029228920999991912060913004+60717+028783FM-12+000399999V0202001N008219999999N0000001N9+02111+99999100821ADDGF103991999999999999999999
0029228920999991912060920004+60717+028783FM-12+000399999V0202501N008219999999N0000001N9+01501+99999100941ADDGF102991999999999999999999
0046228920999991912061006004+60717+028783FM-12+000399999V0202301N006219999999N0000001N9+01561+99999101061ADDAJ100009199999999GF100991999999999999999999
0029228920999991912061013004+60717+028783FM-12+000399999V0202001N011819999999N0000001N9+01831+99999100981ADDGF100991999999999999999999
0029228920999991912061020004+60717+028783FM-12+000399999V0202301N006219999999N0000001N9+01611+99999100941ADDGF100991999999999999999999
0046228920999991912061106004+60717+028783FM-12+000399999V0202501N002119999999N0000001N9+01501+99999100921ADDAJ100009199999999GF101991999999999999999999
0029228920999991912061113004+60717+028783FM-12+000399999V0202301N008219999999N0000001N9+01781+99999100921ADDGF100991999999999999999999
0029228920999991912061120004+60717+028783FM-12+000399999V0209991C000019999999N0000001N9+01111+99999100841ADDGF100991999999999999999999
0046228920999991912061206004+60717+028783FM-12+000399999V0203601N004119999999N0000001N9+01561+99999100881ADDAJ100009199999999GF100991999999999999999999
0029228920999991912061213004+60717+028783FM-12+000399999V0203601N004119999999N0000001N9+01941+99999100941ADDGF100991999999999999999999
0029228920999991912061220004+60717+028783FM-12+000399999V0200201N002119999999N0000001N9+01501+99999101031ADDGF100991999999999999999999
0046228920999991912061306004+60717+028783FM-12+000399999V0201101N002119999999N0000001N9+01611+99999101061ADDAJ100009199999999GF100991999999999999999999
0029228920999991912061313004+60717+028783FM-12+000399999V0201101N004119999999N0000001N9+02221+99999101021ADDGF101991999999999999999999
0029228920999991912061320004+60717+028783FM-12+000399999V0209991C000019999999N0000001N9+01391+99999100401ADDGF104991999999999999999999
0046228920999991912061406004+60717+028783FM-12+000399999V0200901N002119999999N0000001N9+01561+99999100321ADDAJ100009199999999GF108991999999999999999999
0029228920999991912061413004+60717+028783FM-12+000399999V0200901N004119999999N0000001N9+02221+99999100351ADDGF108991999999999999999999
0029228920999991912061420004+60717+028783FM-12+000399999V0200901N002119999999N0000001N9+01891+99999100341ADDGF108991999999999999999999
0052228920999991912061506004+60717+028783FM-12+000399999V0209991C000019999999N0000001N9+01561+99999099821ADDAJ100009199999999GF108991999999999999999999MW1621
0029228920999991912061513004+60717+028783FM-12+000399999V0201801N009819999999N0000001N9+01891+99999099281ADDGF108991999999999999999999
0029228920999991912061520004+60717+028783FM-12+000399999V0202501N009819999999N0000001N9+01441+99999099761ADDGF108991999999999999999999
0046228920999991912061606004+60717+028783FM-12+000399999V0202001N004119999999N0000001N9+01441+99999099871ADDAJ100009199999999GF104991999999999999999999
0035228920999991912061613004+60717+028783FM-12+000399999V0202001N006219999999N0000001N9+01501+99999099701ADDGF108991999999999999999999MW1621
0029228920999991912061620004+60717+028783FM-12+000399999V0202001N011819999999N0000001N9+01221+99999100041ADDGF108991999999999999999999
0052228920999991912061706004+60717+028783FM-12+000399999V0201601N004119999999N0000001N9+01221+99999100281ADDAJ100009199999999GF108991999999999999999999MW1621
0029228920999991912061713004+60717+028783FM-12+000399999V0201601N008219999999N0000001N9+01611+99999100321ADDGF108991999999999999999999
0029228920999991912061720004+60717+028783FM-12+000399999V0202501N008219999999N0000001N9+01331+99999100481ADDGF108991999999999999999999
0046228920999991912061806004+60717+028783FM-12+000399999V0202501N004119999999N0000001N9+01331+99999100631ADDAJ100009199999999GF106991999999999999999999
0035228920999991912061813004+60717+028783FM-12+000399999V0202301N004119999999N0000001N9+01331+99999100661ADDGF108991999999999999999999MW1621
0029228920999991912061820004+60717+028783FM-12+000399999V0202901N004119999999N0000001N9+01171+99999100621ADDGF108991999999999999999999
0046228920999991912061906004+60717+028783FM-12+000399999V0209991C000019999999N0000001N9+01171+99999100481ADDAJ100009199999999GF108991999999999999999999
0029228920999991912061913004+60717+028783FM-12+000399999V0202001N009819999999N0000001N9+01441+99999100871ADDGF107991999999999999999999
0029228920999991912061920004+60717+028783FM-12+000399999V0202301N004119999999N0000001N9+01221+99999101031ADDGF108991999999999999999999
0046228920999991912062006004+60717+028783FM-12+000399999V0203401N004119999999N0000001N9+01171+99999101191ADDAJ100009199999999GF104991999999999999999999
0029228920999991912062013004+60717+028783FM-12+000399999V0203401N004119999999N0000001N9+01671+99999101201ADDGF102991999999999999999999
0029228920999991912062020004+60717+028783FM-12+000399999V0203401N002119999999N0000001N9+01611+99999101141ADDGF104991999999999999999999
0046228920999991912062106004+60717+028783FM-12+000399999V0200201N002119999999N0000001N9+01501+99999100991ADDAJ100009199999999GF108991999999999999999999
0035228920999991912062113004+60717+028783FM-12+000399999V0200701N002119999999N0000001N9+01611+99999100951ADDGF108991999999999999999999MW1621
0029228920999991912062120004+60717+028783FM-12+000399999V0209991C000019999999N0000001N9+01611+99999100961ADDGF108991999999999999999999
0046228920999991912062206004+60717+028783FM-12+000399999V0200501N004119999999N0000001N9+01671+99999101021ADDAJ100009199999999GF108991999999999999999999
0029228920999991912062213004+60717+028783FM-12+000399999V0203601N002119999999N0000001N9+02221+99999100881ADDGF108991999999999999999999
0029228920999991912062220004+60717+028783FM-12+000399999V0209991C000019999999N0000001N9+01721+99999101081ADDGF108991999999999999999999
0046228920999991912062306004+60717+028783FM-12+000399999V0209991C000019999999N0000001N9+01721+99999101521ADDAJ100009199999999GF108991999999999999999999
0029228920999991912062313004+60717+028783FM-12+000399999V0209991C000019999999N0000001N9+02501+99999101591ADDGF102991999999999999999999
0029228920999991912062320004+60717+028783FM-12+000399999V0209991C000019999999N0000001N9+02331+99999101471ADDGF106991999999999999999999
0046228920999991912062406004+60717+028783FM-12+000399999V0200901N002119999999N0000001N9+01941+99999101431ADDAJ100009199999999GF108991999999999999999999
0035228920999991912062413004+60717+028783FM-12+000399999V0209991C000019999999N0000001N9+02001+99999101351ADDGF108991999999999999999999MW1621
0029228920999991912062420004+60717+028783FM-12+000399999V0202301N006219999999N0000001N9+01611+99999101561ADDGF108991999999999999999999
0046228920999991912062506004+60717+028783FM-12+000399999V0209991C000019999999N0000001N9+01781+99999101901ADDAJ100009199999999GF100991999999999999999999
0029228920999991912062513004+60717+028783FM-12+000399999V0202501N002119999999N0000001N9+02441+99999101981ADDGF101991999999999999999999
0029228920999991912062520004+60717+028783FM-12+000399999V0209991C000019999999N0000001N9+01941+99999101901ADDGF104991999999999999999999
0046228920999991912062606004+60717+028783FM-12+000399999V0209991C000019999999N0000001N9+02001+99999101911ADDAJ100009199999999GF102991999999999999999999
0029228920999991912062613004+60717+028783FM-12+000399999V0202501N004119999999N0000001N9+02611+99999101841ADDGF103991999999999999999999
0029228920999991912062620004+60717+028783FM-12+000399999V0209991C000019999999N0000001N9+02061+99999101781ADDGF105991999999999999999999
0046228920999991912062706004+60717+028783FM-12+000399999V0209991C000019999999N0000001N9+02111+99999101831ADDAJ100009199999999GF102991999999999999999999
0029228920999991912062713004+60717+028783FM-12+000399999V0202501N002119999999N0000001N9+02671+99999101721ADDGF104991999999999999999999
0029228920999991912062720004+60717+028783FM-12+000399999V0209991C000019999999N0000001N9+01781+99999101641ADDGF103991999999999999999999
0046228920999991912062806004+60717+028783FM-12+000399999V0202501N002119999999N0000001N9+02171+99999101561ADDAJ100009199999999GF101991999999999999999999
0029228920999991912062813004+60717+028783FM-12+000399999V0202501N004119999999N0000001N9+02331+99999101381ADDGF107991999999999999999999
0029228920999991912062820004+60717+028783FM-12+000399999V0200901N002119999999N0000001N9+01941+99999101281ADDGF103991999999999999999999
0046228920999991912062906004+60717+028783FM-12+000399999V0209991C000019999999N0000001N9+01831+99999101021ADDAJ100009199999999GF108991999999999999999999
0035228920999991912062913004+60717+028783FM-12+000399999V0202301N004119999999N0000001N9+02171+99999100821ADDGF106991999999999999999999MW1171
0029228920999991912062920004+60717+028783FM-12+000399999V0209991C000019999999N0000001N9+02001+99999100681ADDGF106991999999999999999999
0046228920999991912063006004+60717+028783FM-12+000399999V0209991C000019999999N0000001N9+02061+99999100581ADDAJ100009199999999GF102991999999999999999999
0029228920999991912063013004+60717+028783FM-12+000399999V0203401N006219999999N0000001N9+02001+99999100721ADDGF105991999999999999999999
0029228920999991912063020004+60717+028783FM-12+000399999V0209991C000019999999N0000001N9+01671+99999100991ADDGF102991999999999999999999
0046228920999991912070106004+60717+028783FM-12+000399999V0203601N002119999999N0000001N9+01441+99999101041ADDAJ100009199999999GF100991999999999999999999
0029228920999991912070113004+60717+028783FM-12+000399999V0203401N006219999999N0000001N9+01781+99999101031ADDGF102991999999999999999999
0029228920999991912070120004+60717+028783FM-12+000399999V0209991C000019999999N0000001N9+01281+99999100951ADDGF104991999999999999999999
0046228920999991912070206004+60717+028783FM-12+000399999V0203401N004119999999N0000001N9+01331+99999100861ADDAJ100009199999999GF102991999999999999999999
0029228920999991912070213004+60717+028783FM-12+000399999V0203601N004119999999N0000001N9+01441+99999100981ADDGF108991999999999999999999
0029228920999991912070220004+60717+028783FM-12+000399999V0200201N004119999999N0000001N9+01061+99999101261ADDGF108991999999999999999999
0046228920999991912070306004+60717+028783FM-12+000399999V0200201N004119999999N0000001N9+01221+99999101361ADDAJ100009199999999GF107991999999999999999999
0029228920999991912070313004+60717+028783FM-12+000399999V0200701N006219999999N0000001N9+01611+99999101321ADDGF106991999999999999999999
0029228920999991912070320004+60717+028783FM-12+000399999V0209991C000019999999N0000001N9+01001+99999101471ADDGF104991999999999999999999
0046228920999991912070406004+60717+028783FM-12+000399999V0200201N004119999999N0000001N9+01221+99999101661ADDAJ100009199999999GF101991999999999999999999
0029228920999991912070413004+60717+028783FM-12+000399999V0203401N004119999999N0000001N9+01561+99999101711ADDGF108991999999999999999999
0029228920999991912070420004+60717+028783FM-12+000399999V0209991C000019999999N0000001N9+01331+99999101711ADDGF101991999999999999999999
0046228920999991912070506004+60717+028783FM-12+000399999V0202701N008219999999N0000001N9+01561+99999101561ADDAJ100009199999999GF100991999999999999999999
0029228920999991912070513004+60717+028783FM-12+000399999V0202301N009819999999N0000001N9+01831+99999101021ADDGF102991999999999999999999
0029228920999991912070520004+60717+028783FM-12+000399999V0203401N008219999999N0000001N9+01721+99999100661ADDGF108991999999999999999999
0046228920999991912070606004+60717+028783FM-12+000399999V0203401N011819999999N0000001N9+01391+99999100871ADDAJ100009199999999GF100991999999999999999999
0029228920999991912070613004+60717+028783FM-12+000399999V0203401N011819999999N0000001N9+01781+99999100991ADDGF108991999999999999999999
0029228920999991912070620004+60717+028783FM-12+000399999V0203401N002119999999N0000001N9+01331+99999101101ADDGF106991999999999999999999
0046228920999991912070706004+60717+028783FM-12+000399999V0203401N002119999999N0000001N9+01281+99999101151ADDAJ100009199999999GF108991999999999999999999
0029228920999991912070713004+60717+028783FM-12+000399999V0203401N008219999999N0000001N9+01831+99999101021ADDGF104991999999999999999999
0029228920999991912070720004+60717+028783FM-12+000399999V0209991C000019999999N0000001N9+01221+99999101081ADDGF102991999999999999999999
0046228920999991912070806004+60717+028783FM-12+000399999V0203601N002119999999N0000001N9+01561+99999101281ADDAJ100009199999999GF100991999999999999999999
0029228920999991912070813004+60717+028783FM-12+000399999V0200501N002119999999N0000001N9+01831+99999101311ADDGF107991999999999999999999
0029228920999991912070820004+60717+028783FM-12+000399999V0209991C000019999999N0000001N9+01561+99999101321ADDGF100991999999999999999999
0046228920999991912070906004+60717+028783FM-12+000399999V0203601N002119999999N0000001N9+01781+99999101341ADDAJ100009199999999GF100991999999999999999999
0029228920999991912070913004+60717+028783FM-12+000399999V0200701N004119999999N0000001N9+02061+99999101301ADDGF101991999999999999999999
0029228920999991912070920004+60717+028783FM-12+000399999V0209991C000019999999N0000001N9+01501+99999101321ADDGF100991999999999999999999
0046228920999991912071006004+60717+028783FM-12+000399999V0209991C000019999999N0000001N9+01671+99999101401ADDAJ100009199999999GF100991999999999999999999
0029228920999991912071013004+60717+028783FM-12+000399999V0202301N006219999999N0000001N9+02061+99999101471ADDGF102991999999999999999999
0029228920999991912071020004+60717+028783FM-12+000399999V0209991C000019999999N0000001N9+01391+99999101671ADDGF100991999999999999999999
0046228920999991912071106004+60717+028783FM-12+000399999V0209991C000019999999N0000001N9+01891+99999101911ADDAJ100009199999999GF101991999999999999999999
0029228920999991912071113004+60717+028783FM-12+000399999V0202301N004119999999N0000001N9+02061+99999102071ADDGF107991999999999999999999
0029228920999991912071120004+60717+028783FM-12+000399999V0209991C000019999999N0000001N9+01781+99999102101ADDGF105991999999999999999999
0046228920999991912071206004+60717+028783FM-12+000399999V0209991C000019999999N0000001N9+01831+99999102231ADDAJ100009199999999GF102991999999999999999999
0029228920999991912071213004+60717+028783FM-12+000399999V0203401N008219999999N0000001N9+02331+99999102201ADDGF101991999999999999999999
0029228920999991912071220004+60717+028783FM-12+000399999V0209991C000019999999N0000001N9+01671+99999102421ADDGF100991999999999999999999
0046228920999991912071306004+60717+028783FM-12+000399999V0209991C000019999999N0000001N9+01781+99999102801ADDAJ100009199999999GF100991999999999999999999
0029228920999991912071313004+60717+028783FM-12+000399999V0203601N002119999999N0000001N9+02221+99999102721ADDGF100991999999999999999999
0029228920999991912071320004+60717+028783FM-12+000399999V0209991C000019999999N0000001N9+01831+99999102631ADDGF100991999999999999999999
0046228920999991912071406004+60717+028783FM-12+000399999V0203601N002119999999N0000001N9+01891+99999102631ADDAJ100009199999999GF100991999999999999999999
0029228920999991912071413004+60717+028783FM-12+000399999V0200501N002119999999N0000001N9+02611+99999102461ADDGF102991999999999999999999
0029228920999991912071420004+60717+028783FM-12+000399999V0209991C000019999999N0000001N9+01831+99999102441ADDGF101991999999999999999999
0046228920999991912071506004+60717+028783FM-12+000399999V0209991C000019999999N0000001N9+02111+99999102511ADDAJ100009199999999GF100991999999999999999999
0029228920999991912071513004+60717+028783FM-12+000399999V0202701N004119999999N0000001N9+02831+99999102391ADDGF100991999999999999999999
0029228920999991912071520004+60717+028783FM-12+000399999V0209991C000019999999N0000001N9+02171+99999102271ADDGF101991999999999999999999
0046228920999991912071606004+60717+028783FM-12+000399999V0202501N002119999999N0000001N9+02171+99999102141ADDAJ100009199999999GF100991999999999999999999
0029228920999991912071613004+60717+028783FM-12+000399999V0202001N008219999999N0000001N9+02281+99999101991ADDGF100991999999999999999999
0029228920999991912071620004+60717+028783FM-12+000399999V0202301N004119999999N0000001N9+01891+99999101721ADDGF100991999999999999999999
0046228920999991912071706004+60717+028783FM-12+000399999V0202301N004119999999N0000001N9+01941+99999101591ADDAJ100009199999999GF103991999999999999999999
0029228920999991912071713004+60717+028783FM-12+000399999V0202301N008219999999N0000001N9+02281+99999101431ADDGF100991999999999999999999
0029228920999991912071720004+60717+028783FM-12+000399999V0202301N004119999999N0000001N9+01941+99999101241ADDGF101991999999999999999999
0046228920999991912071806004+60717+028783FM-12+000399999V0200201N004119999999N0000001N9+01721+99999101421ADDAJ100009199999999GF108991999999999999999999
0029228920999991912071813004+60717+028783FM-12+000399999V0203401N004119999999N0000001N9+02281+99999101461ADDGF100991999999999999999999
0029228920999991912071820004+60717+028783FM-12+000399999V0200201N002119999999N0000001N9+01721+99999101541ADDGF100991999999999999999999
0046228920999991912071906004+60717+028783FM-12+000399999V0200201N002119999999N0000001N9+01831+99999101601ADDAJ100009199999999GF100991999999999999999999
0029228920999991912071913004+60717+028783FM-12+000399999V0200501N002119999999N0000001N9+02331+99999101471ADDGF100991999999999999999999
0029228920999991912071920004+60717+028783FM-12+000399999V0209991C000019999999N0000001N9+01831+99999101421ADDGF100991999999999999999999
0046228920999991912072006004+60717+028783FM-12+000399999V0200501N002119999999N0000001N9+01781+99999101281ADDAJ100009199999999GF100991999999999999999999
0029228920999991912072013004+60717+028783FM-12+000399999V0200501N006219999999N0000001N9+02391+99999101151ADDGF100991999999999999999999
0029228920999991912072020004+60717+028783FM-12+000399999V0200201N002119999999N0000001N9+01891+99999101111ADDGF100991999999999999999999
0046228920999991912072106004+60717+028783FM-12+000399999V0200501N002119999999N0000001N9+01941+99999101071ADDAJ100009199999999GF100991999999999999999999
0029228920999991912072113004+60717+028783FM-12+000399999V0200901N006219999999N0000001N9+02391+99999100961ADDGF101991999999999999999999
0029228920999991912072120004+60717+028783FM-12+000399999V0209991C000019999999N0000001N9+01831+99999101001ADDGF102991999999999999999999
0046228920999991912072206004+60717+028783FM-12+000399999V0200701N002119999999N0000001N9+01891+99999100991ADDAJ100009199999999GF100991999999999999999999
0029228920999991912072213004+60717+028783FM-12+000399999V0200901N006219999999N0000001N9+02221+99999101071ADDGF100991999999999999999999
0029228920999991912072220004+60717+028783FM-12+000399999V0200501N004119999999N0000001N9+01671+99999101241ADDGF100991999999999999999999
0046228920999991912072306004+60717+028783FM-12+000399999V0200201N006219999999N0000001N9+01441+99999101581ADDAJ100009199999999GF100991999999999999999999
0029228920999991912072313004+60717+028783FM-12+000399999V0200901N004119999999N0000001N9+01941+99999101681ADDGF102991999999999999999999
0029228920999991912072320004+60717+028783FM-12+000399999V0200201N002119999999N0000001N9+01391+99999101831ADDGF100991999999999999999999
0046228920999991912072406004+60717+028783FM-12+000399999V0209991C000019999999N0000001N9+01281+99999102041ADDAJ100009199999999GF100991999999999999999999
0029228920999991912072413004+60717+028783FM-12+000399999V0202301N006219999999N0000001N9+02001+99999101881ADDGF100991999999999999999999
0029228920999991912072420004+60717+028783FM-12+000399999V0202701N004119999999N0000001N9+01441+99999101751ADDGF100991999999999999999999
0046228920999991912072506004+60717+028783FM-12+000399999V0209991C000019999999N0000001N9+01721+99999101751ADDAJ100009199999999GF100991999999999999999999
0029228920999991912072513004+60717+028783FM-12+000399999V0203401N002119999999N0000001N9+02441+99999101751ADDGF100991999999999999999999
0029228920999991912072520004+60717+028783FM-12+000399999V0209991C000019999999N0000001N9+01721+99999101791ADDGF100991999999999999999999
0046228920999991912072606004+60717+028783FM-12+000399999V0202301N004119999999N0000001N9+01941+99999101871ADDAJ100009199999999GF100991999999999999999999
0029228920999991912072613004+60717+028783FM-12+000399999V0202301N004119999999N0000001N9+02331+99999101781ADDGF101991999999999999999999
0029228920999991912072620004+60717+028783FM-12+000399999V0209991C000019999999N0000001N9+01501+99999101671ADDGF101991999999999999999999
0046228920999991912072706004+60717+028783FM-12+000399999V0209991C000019999999N0000001N9+01781+99999101601ADDAJ100009199999999GF101991999999999999999999
0029228920999991912072713004+60717+028783FM-12+000399999V0202301N006219999999N0000001N9+02501+99999101501ADDGF100991999999999999999999
0029228920999991912072720004+60717+028783FM-12+000399999V0202301N002119999999N0000001N9+01891+99999101351ADDGF102991999999999999999999
0046228920999991912072806004+60717+028783FM-12+000399999V0202501N004119999999N0000001N9+01891+99999101421ADDAJ100009199999999GF101991999999999999999999
0035228920999991912072813004+60717+028783FM-12+000399999V0202501N009819999999N0000001N9+02391+99999101341ADDGF102991999999999999999999MW1171
0029228920999991912072820004+60717+028783FM-12+000399999V0209991C000019999999N0000001N9+01721+99999101201ADDGF107991999999999999999999
0046228920999991912072906004+60717+028783FM-12+000399999V0202301N002119999999N0000001N9+02001+99999101181ADDAJ100009199999999GF100991999999999999999999
0029228920999991912072913004+60717+028783FM-12+000399999V0202501N004119999999N0000001N9+02441+99999101121ADDGF100991999999999999999999
0029228920999991912072920004+60717+028783FM-12+000399999V0201601N002119999999N0000001N9+02061+99999100991ADDGF101991999999999999999999
0046228920999991912073006004+60717+028783FM-12+000399999V0201601N011819999999N0000001N9+02061+99999100791ADDAJ100009199999999GF108991999999999999999999
0029228920999991912073013004+60717+028783FM-12+000399999V0200501N004119999999N0000001N9+02281+99999100941ADDGF107991999999999999999999
0029228920999991912073020004+60717+028783FM-12+000399999V0202001N002119999999N0000001N9+02001+99999100921ADDGF108991999999999999999999
0046228920999991912073106004+60717+028783FM-12+000399999V0201601N008219999999N0000001N9+01941+99999100701ADDAJ100009199999999GF107991999999999999999999
0029228920999991912073113004+60717+028783FM-12+000399999V0209991C000019999999N0000001N9+01941+99999100961ADDGF108991999999999999999999
0029228920999991912073120004+60717+028783FM-12+000399999V0209991C000019999999N0000001N9+01721+99999101081ADDGF108991999999999999999999
0046228920999991912080106004+60717+028783FM-12+000399999V0209991C000019999999N0000001N9+01891+99999101311ADDAJ100009199999999GF104991999999999999999999
0029228920999991912080113004+60717+028783FM-12+000399999V0202301N004119999999N0000001N9+02331+99999101431ADDGF108991999999999999999999
0029228920999991912080120004+60717+028783FM-12+000399999V0209991C000019999999N0000001N9+01671+99999101461ADDGF106991999999999999999999
0046228920999991912080206004+60717+028783FM-12+000399999V0201601N004119999999N0000001N9+02061+99999101521ADDAJ100009199999999GF101991999999999999999999
0029228920999991912080213004+60717+028783FM-12+000399999V0201601N004119999999N0000001N9+02941+99999101431ADDGF104991999999999999999999
0029228920999991912080220004+60717+028783FM-12+000399999V0209991C000019999999N0000001N9+02111+99999101581ADDGF101991999999999999999999
0046228920999991912080306004+60717+028783FM-12+000399999V0209991C000019999999N0000001N9+02281+99999101591ADDAJ100009199999999GF101991999999999999999999
0029228920999991912080313004+60717+028783FM-12+000399999V0201401N008219999999N0000001N9+03001+99999101561ADDGF100991999999999999999999
0029228920999991912080320004+60717+028783FM-12+000399999V0201401N002119999999N0000001N9+02281+99999101601ADDGF101991999999999999999999
0046228920999991912080406004+60717+028783FM-12+000399999V0209991C000019999999N0000001N9+02061+99999101791ADDAJ100009199999999GF108991999999999999999999
0029228920999991912080413004+60717+028783FM-12+000399999V0201401N008219999999N0000001N9+02781+99999101801ADDGF102991999999999999999999
0029228920999991912080420004+60717+028783FM-12+000399999V0209991C000019999999N0000001N9+02221+99999101711ADDGF108991999999999999999999
0046228920999991912080506004+60717+028783FM-12+000399999V0209991C000019999999N0000001N9+02721+99999101721ADDAJ100009199999999GF103991999999999999999999
0029228920999991912080513004+60717+028783FM-12+000399999V0201801N008219999999N0000001N9+03061+99999101581ADDGF108991999999999999999999
0029228920999991912080520004+60717+028783FM-12+000399999V0209991C000019999999N0000001N9+02221+99999101671ADDGF102991999999999999999999
0046228920999991912080606004+60717+028783FM-12+000399999V0201601N004119999999N0000001N9+02221+99999101631ADDAJ100009199999999GF108991999999999999999999
0029228920999991912080613004+60717+028783FM-12+000399999V0202701N004119999999N0000001N9+02831+99999101681ADDGF100991999999999999999999
0029228920999991912080620004+60717+028783FM-12+000399999V0200701N002119999999N0000001N9+01941+99999101561ADDGF106991999999999999999999
0046228920999991912080706004+60717+028783FM-12+000399999V0201401N006219999999N0000001N9+02391+99999101621ADDAJ100009199999999GF102991999999999999999999
0029228920999991912080713004+60717+028783FM-12+000399999V0201601N006219999999N0000001N9+03061+99999101591ADDGF104991999999999999999999
0029228920999991912080720004+60717+028783FM-12+000399999V0201401N002119999999N0000001N9+02331+99999101601ADDGF108991999999999999999999
0046228920999991912080806004+60717+028783FM-12+000399999V0201601N004119999999N0000001N9+02281+99999101751ADDAJ100009199999999GF100991999999999999999999
0029228920999991912080813004+60717+028783FM-12+000399999V0201601N004119999999N0000001N9+02891+99999101701ADDGF100991999999999999999999
0029228920999991912080820004+60717+028783FM-12+000399999V0201601N002119999999N0000001N9+02221+99999101681ADDGF101991999999999999999999
0046228920999991912080906004+60717+028783FM-12+000399999V0201101N004119999999N0000001N9+02561+99999101541ADDAJ100009199999999GF100991999999999999999999
0029228920999991912080913004+60717+028783FM-12+000399999V0201401N006219999999N0000001N9+03221+99999101381ADDGF104991999999999999999999
0029228920999991912080920004+60717+028783FM-12+000399999V0200901N004119999999N0000001N9+02391+99999101281ADDGF102991999999999999999999
0046228920999991912081006004+60717+028783FM-12+000399999V0200901N002119999999N0000001N9+02281+99999101111ADDAJ100009199999999GF100991999999999999999999
0029228920999991912081013004+60717+028783FM-12+000399999V0200901N006219999999N0000001N9+03001+99999100871ADDGF100991999999999999999999
0029228920999991912081020004+60717+028783FM-12+000399999V0200901N004119999999N0000001N9+02331+99999100591ADDGF106991999999999999999999
0046228920999991912081106004+60717+028783FM-12+000399999V0201101N006219999999N0000001N9+02061+99999100361ADDAJ100009199999999GF108991999999999999999999
0029228920999991912081113004+60717+028783FM-12+000399999V0201101N008219999999N0000001N9+02221+99999100401ADDGF108991999999999999999999
0029228920999991912081120004+60717+028783FM-12+000399999V0200901N002119999999N0000001N9+01721+99999100121ADDGF103991999999999999999999
0046228920999991912081206004+60717+028783FM-12+000399999V0201101N006219999999N0000001N9+01671+99999100101ADDAJ100009199999999GF103991999999999999999999
0029228920999991912081213004+60717+028783FM-12+000399999V0201101N006219999999N0000001N9+01831+99999100101ADDGF108991999999999999999999
0029228920999991912081220004+60717+028783FM-12+000399999V0200901N004119999999N0000001N9+01561+99999100121ADDGF108991999999999999999999
0046228920999991912081306004+60717+028783FM-12+000399999V0201101N004119999999N0000001N9+01441+99999100261ADDAJ100009199999999GF108991999999999999999999
0029228920999991912081313004+60717+028783FM-12+000399999V0201401N006219999999N0000001N9+01721+99999100481ADDGF108991999999999999999999
0029228920999991912081320004+60717+028783FM-12+000399999V0209991C000019999999N0000001N9+01561+99999100681ADDGF106991999999999999999999
0046228920999991912081406004+60717+028783FM-12+000399999V0209991C000019999999N0000001N9+01611+99999101021ADDAJ100009199999999GF102991999999999999999999
0029228920999991912081413004+60717+028783FM-12+000399999V0202301N004119999999N0000001N9+02171+99999101061ADDGF101991999999999999999999
0029228920999991912081420004+60717+028783FM-12+000399999V0209991C000019999999N0000001N9+01671+99999101021ADDGF108991999999999999999999
0052228920999991912081506004+60717+028783FM-12+000399999V0209991C000019999999N0000001N9+01561+99999100801ADDAJ100009199999999GF108991999999999999999999MW1621
0029228920999991912081513004+60717+028783FM-12+000399999V0201101N002119999999N0000001N9+01561+99999100801ADDGF108991999999999999999999
0029228920999991912081520004+60717+028783FM-12+000399999V0209991C000019999999N0000001N9+01331+99999100591ADDGF108991999999999999999999
0046228920999991912081606004+60717+028783FM-12+000399999V0200501N002119999999N0000001N9+01221+99999100511ADDAJ100009199999999GF108991999999999999999999
0029228920999991912081613004+60717+028783FM-12+000399999V0200701N002119999999N0000001N9+01331+99999999999ADDGF108991999999999999999999
0029228920999991912081620004+60717+028783FM-12+000399999V0209991C000019999999N0000001N9+01221+99999100481ADDGF108991999999999999999999
0046228920999991912081706004+60717+028783FM-12+000399999V0209991C000019999999N0000001N9+01281+99999100301ADDAJ100009199999999GF105991999999999999999999
0035228920999991912081713004+60717+028783FM-12+000399999V0200701N004119999999N0000001N9+01441+99999100311ADDGF107991999999999999999999MW1621
0035228920999991912081720004+60717+028783FM-12+000399999V0209991C000019999999N0000001N9+01331+99999100401ADDGF108991999999999999999999MW1171
0046228920999991912081806004+60717+028783FM-12+000399999V0209991C000019999999N0000001N9+01281+99999100641ADDAJ100009199999999GF100991999999999999999999
0029228920999991912081813004+60717+028783FM-12+000399999V0203201N002119999999N0000001N9+01831+99999100911ADDGF108991999999999999999999
0029228920999991912081820004+60717+028783FM-12+000399999V0209991C000019999999N0000001N9+01281+99999101241ADDGF107991999999999999999999
0046228920999991912081906004+60717+028783FM-12+000399999V0209991C000019999999N0000001N9+01281+99999101641ADDAJ100009199999999GF100991999999999999999999
0029228920999991912081913004+60717+028783FM-12+000399999V0209991C000019999999N0000001N9+02001+99999101741ADDGF102991999999999999999999
0029228920999991912081920004+60717+028783FM-12+000399999V0209991C000019999999N0000001N9+01221+99999101821ADDGF100991999999999999999999
0046228920999991912082006004+60717+028783FM-12+000399999V0202901N002119999999N0000001N9+01441+99999101761ADDAJ100009199999999GF108991999999999999999999
0035228920999991912082013004+60717+028783FM-12+000399999V0200501N002119999999N0000001N9+01781+99999101631ADDGF107991999999999999999999MW1621
0029228920999991912082020004+60717+028783FM-12+000399999V0209991C000019999999N0000001N9+01331+99999101641ADDGF106991999999999999999999
0046228920999991912082106004+60717+028783FM-12+000399999V0200701N006219999999N0000001N9+01281+99999101741ADDAJ100009199999999GF106991999999999999999999
0029228920999991912082113004+60717+028783FM-12+000399999V0200701N008219999999N0000001N9+01391+99999101831ADDGF105991999999999999999999
0029228920999991912082120004+60717+028783FM-12+000399999V0200701N002119999999N0000001N9+00781+99999101741ADDGF100991999999999999999999
0046228920999991912082206004+60717+028783FM-12+000399999V0200901N006219999999N0000001N9+00831+99999101461ADDAJ100009199999999GF100991999999999999999999
0029228920999991912082213004+60717+028783FM-12+000399999V0200901N008219999999N0000001N9+01331+99999101191ADDGF100991999999999999999999
0029228920999991912082220004+60717+028783FM-12+000399999V0200901N006219999999N0000001N9+00671+99999101221ADDGF100991999999999999999999
0046228920999991912082306004+60717+028783FM-12+000399999V0200901N008219999999N0000001N9+00831+99999101191ADDAJ100009199999999GF102991999999999999999999
0029228920999991912082313004+60717+028783FM-12+000399999V0201101N004119999999N0000001N9+01331+99999101161ADDGF105991999999999999999999
0029228920999991912082320004+60717+028783FM-12+000399999V0201101N002119999999N0000001N9+01061+99999101031ADDGF108991999999999999999999
0046228920999991912082406004+60717+028783FM-12+000399999V0200901N004119999999N0000001N9+00941+99999100831ADDAJ100009199999999GF108991999999999999999999
0029228920999991912082413004+60717+028783FM-12+000399999V0201101N004119999999N0000001N9+01331+99999100781ADDGF108991999999999999999999
0029228920999991912082420004+60717+028783FM-12+000399999V0209991C000019999999N0000001N9+01001+99999100781ADDGF100991999999999999999999
0046228920999991912082506004+60717+028783FM-12+000399999V0209991C000019999999N0000001N9+01111+99999100721ADDAJ100009199999999GF104991999999999999999999
0035228920999991912082513004+60717+028783FM-12+000399999V0201101N004119999999N0000001N9+01281+99999100641ADDGF108991999999999999999999MW1621
0029228920999991912082520004+60717+028783FM-12+000399999V0209991C000019999999N0000001N9+00781+99999100461ADDGF100991999999999999999999
0046228920999991912082606004+60717+028783FM-12+000399999V0209991C000019999999N0000001N9+00831+99999100341ADDAJ100009199999999GF108991999999999999999999
0029228920999991912082613004+60717+028783FM-12+000399999V0202001N004119999999N0000001N9+01671+99999100061ADDGF102991999999999999999999
0029228920999991912082620004+60717+028783FM-12+000399999V0201601N002119999999N0000001N9+01171+99999099921ADDGF101991999999999999999999
0052228920999991912082706004+60717+028783FM-12+000399999V0201601N002119999999N0000001N9+01171+99999099821ADDAJ100009199999999GF108991999999999999999999MW1621
0029228920999991912082713004+60717+028783FM-12+000399999V0202501N004119999999N0000001N9+01781+99999099781ADDGF103991999999999999999999
0035228920999991912082720004+60717+028783FM-12+000399999V0201401N002119999999N0000001N9+01441+99999099621ADDGF108991999999999999999999MW1621
