0035228920999991914010106004+60717+028783FM-12+000399999V0201801N012919999999N0000001N9-00721+99999101721ADDGF108991999999999999999999MW1721
0035228920999991914010113004+60717+028783FM-12+000399999V0202001N020119999999N0000001N9-00221+99999100521ADDGF108991999999999999999999MW1721
0035228920999991914010120004+60717+028783FM-12+000399999V0202301N008219999999N0000001N9-00061+99999100041ADDGF108991999999999999999999MW1721
0029228920999991914010206004+60717+028783FM-12+000399999V0202701N006219999999N0000001N9+00001+99999099391ADDGF100991999999999999999999
0029228920999991914010213004+60717+028783FM-12+000399999V0202701N006219999999N0000001N9-00061+99999098961ADDGF108991999999999999999999
0029228920999991914010220004+60717+028783FM-12+000399999V0209991C000019999999N0000001N9-00331+99999098801ADDGF104991999999999999999999
0035228920999991914010306004+60717+028783FM-12+000399999V0209991C000019999999N0000001N9-00831+99999098401ADDGF108991999999999999999999MW1701
0035228920999991914010313004+60717+028783FM-12+000399999V0203401N004119999999N0000001N9-01001+99999098901ADDGF108991999999999999999999MW1701
0029228920999991914010320004+60717+028783FM-12+000399999V0200201N006219999999N0000001N9-01331+99999099711ADDGF108991999999999999999999
0029228920999991914010406004+60717+028783FM-12+000399999V0203401N002119999999N0000001N9-01781+99999099991ADDGF100991999999999999999999
0029228920999991914010413004+60717+028783FM-12+000399999V0203201N004119999999N0000001N9-01891+99999099951ADDGF100991999999999999999999
0029228920999991914010420004+60717+028783FM-12+000399999V0209991C000019999999N0000001N9-02391+99999099921ADDGF100991999999999999999999
0029228920999991914010506004+60717+028783FM-12+000399999V0200901N002119999999N0000001N9-02441+99999099461ADDGF108991999999999999999999
0029228920999991914010513004+60717+028783FM-12+000399999V0201101N004119999999N0000001N9-01501+99999098641ADDGF108991999999999999999999
0035228920999991914010520004+60717+028783FM-12+000399999V0200901N006219999999N0000001N9-01221+99999097871ADDGF108991999999999999999999MW1721
0029228920999991914010606004+60717+028783FM-12+000399999V0209991C000019999999N0000001N9-01441+99999098401ADDGF108991999999999999999999
0029228920999991914010613004+60717+028783FM-12+000399999V0200201N002119999999N0000001N9-01501+99999098951ADDGF104991999999999999999999
0029228920999991914010620004+60717+028783FM-12+000399999V0200201N002119999999N0000001N9-01391+99999099511ADDGF108991999999999999999999
0029228920999991914010706004+60717+028783FM-12+000399999V0209991C000019999999N0000001N9-02391+99999100191ADDGF100991999999999999999999
0029228920999991914010713004+60717+028783FM-12+000399999V0209991C000019999999N0000001N9-02391+99999100701ADDGF101991999999999999999999
0029228920999991914010720004+60717+028783FM-12+000399999V0209991C000019999999N0000001N9-02721+99999101151ADDGF100991999999999999999999
0029228920999991914010806004+60717+028783FM-12+000399999V0209991C000019999999N0000001N9-02331+99999101551ADDGF108991999999999999999999
0029228920999991914010813004+60717+028783FM-12+000399999V0209991C000019999999N0000001N9-01611+99999101621ADDGF106991999999999999999999
0029228920999991914010820004+60717+028783FM-12+000399999V0209991C000019999999N0000001N9-01831+99999101361ADDGF108991999999999999999999
0029228920999991914010906004+60717+028783FM-12+000399999V0200701N006219999999N0000001N9-01331+99999100741ADDGF108991999999999999999999
0029228920999991914010913004+60717+028783FM-12+000399999V0200701N008219999999N0000001N9-01061+99999100551ADDGF108991999999999999999999
0035228920999991914010920004+60717+028783FM-12+000399999V0200701N020119999999N0000001N9-01061+99999101021ADDGF108991999999999999999999MW1721
0029228920999991914011006004+60717+028783FM-12+000399999V0200501N004119999999N0000001N9-01441+99999102231ADDGF108991999999999999999999
0029228920999991914011013004+60717+028783FM-12+000399999V0200501N004119999999N0000001N9-01331+99999103001ADDGF105991999999999999999999
0029228920999991914011020004+60717+028783FM-12+000399999V0200201N004119999999N0000001N9-01781+99999103461ADDGF108991999999999999999999
0035228920999991914011106004+60717+028783FM-12+000399999V0200501N004119999999N0000001N9-01331+99999104031ADDGF108991999999999999999999MW1701
0029228920999991914011113004+60717+028783FM-12+000399999V0200501N004119999999N0000001N9-01501+99999104401ADDGF108991999999999999999999
0029228920999991914011120004+60717+028783FM-12+000399999V0200501N002119999999N0000001N9-01611+99999104591ADDGF108991999999999999999999
0029228920999991914011206004+60717+028783FM-12+000399999V0209991C000019999999N0000001N9-02111+99999104471ADDGF108991999999999999999999
0029228920999991914011213004+60717+028783FM-12+000399999V0209991C000019999999N0000001N9-01891+99999104161ADDGF100991999999999999999999
0029228920999991914011220004+60717+028783FM-12+000399999V0209991C000019999999N0000001N9-02501+99999103791ADDGF100991999999999999999999
0029228920999991914011306004+60717+028783FM-12+000399999V0209991C000019999999N0000001N9-02441+99999103701ADDGF108991999999999999999999
0029228920999991914011313004+60717+028783FM-12+000399999V0202501N008219999999N0000001N9-01281+99999103031ADDGF108991999999999999999999
0035228920999991914011320004+60717+028783FM-12+000399999V0202501N008219999999N0000001N9-00941+99999102241ADDGF108991999999999999999999MW1721
0029228920999991914011406004+60717+028783FM-12+000399999V0203401N002119999999N0000001N9-01061+99999101721ADDGF100991999999999999999999
0029228920999991914011413004+60717+028783FM-12+000399999V0203401N004119999999N0000001N9-01111+99999101701ADDGF102991999999999999999999
0029228920999991914011420004+60717+028783FM-12+000399999V0209991C000019999999N0000001N9-01671+99999101601ADDGF100991999999999999999999
0029228920999991914011506004+60717+028783FM-12+000399999V0209991C000019999999N0000001N9-01001+99999100741ADDGF108991999999999999999999
0029228920999991914011513004+60717+028783FM-12+000399999V0202901N002119999999N0000001N9-00671+99999100591ADDGF108991999999999999999999
0035228920999991914011520004+60717+028783FM-12+000399999V0203601N002119999999N0000001N9-00781+99999100231ADDGF108991999999999999999999MW1701
0029228920999991914011606004+60717+028783FM-12+000399999V0200201N002119999999N0000001N9-01781+99999100521ADDGF100991999999999999999999
0029228920999991914011613004+60717+028783FM-12+000399999V0209991C000019999999N0000001N9-01781+99999100901ADDGF100991999999999999999999
0029228920999991914011620004+60717+028783FM-12+000399999V0209991C000019999999N0000001N9-02781+99999101111ADDGF100991999999999999999999
0029228920999991914011706004+60717+028783FM-12+000399999V0209991C000019999999N0000001N9-02281+99999101461ADDGF104991999999999999999999
0029228920999991914011713004+60717+028783FM-12+000399999V0209991C000019999999N0000001N9-02391+99999101701ADDGF100991999999999999999999
0029228920999991914011720004+60717+028783FM-12+000399999V0209991C000019999999N0000001N9-02781+99999101901ADDGF100991999999999999999999
0035228920999991914011806004+60717+028783FM-12+000399999V0202301N009819999999N0000001N9-01281+99999100911ADDGF108991999999999999999999MW1721
0029228920999991914011813004+60717+028783FM-12+000399999V0202301N004119999999N0000001N9-00281+99999100281ADDGF108991999999999999999999
0029228920999991914011820004+60717+028783FM-12+000399999V0209991C000019999999N0000001N9-00111+99999100781ADDGF106991999999999999999999
0029228920999991914011906004+60717+028783FM-12+000399999V0209991C000019999999N0000001N9-00671+99999101541ADDGF100991999999999999999999
0029228920999991914011913004+60717+028783FM-12+000399999V0209991C000019999999N0000001N9-01001+99999102061ADDGF100991999999999999999999
0029228920999991914011920004+60717+028783FM-12+000399999V0209991C000019999999N0000001N9-00781+99999101991ADDGF108991999999999999999999
0029228920999991914012006004+60717+028783FM-12+000399999V0202301N004119999999N0000001N9-00441+99999101661ADDGF108991999999999999999999
0029228920999991914012013004+60717+028783FM-12+000399999V0202501N006219999999N0000001N9-00331+99999101511ADDGF108991999999999999999999
0029228920999991914012020004+60717+028783FM-12+000399999V0202501N004119999999N0000001N9-00391+99999101281ADDGF108991999999999999999999
0029228920999991914012106004+60717+028783FM-12+000399999V0202501N006219999999N0000001N9-00171+99999100521ADDGF108991999999999999999999
0029228920999991914012113004+60717+028783FM-12+000399999V0202501N006219999999N0000001N9-00221+99999099821ADDGF108991999999999999999999
0035228920999991914012120004+60717+028783FM-12+000399999V0203401N006219999999N0000001N9-00281+99999099621ADDGF108991999999999999999999MW1721
0029228920999991914012206004+60717+028783FM-12+000399999V0203601N006219999999N0000001N9-00501+99999100551ADDGF108991999999999999999999
0029228920999991914012213004+60717+028783FM-12+000399999V0203201N002119999999N0000001N9-00671+99999101101ADDGF108991999999999999999999
0029228920999991914012220004+60717+028783FM-12+000399999V0202901N004119999999N0000001N9-00671+99999100541ADDGF108991999999999999999999
0029228920999991914012306004+60717+028783FM-12+000399999V0202701N006219999999N0000001N9-00111+99999100071ADDGF108991999999999999999999
0029228920999991914012313004+60717+028783FM-12+000399999V0203201N006219999999N0000001N9+00281+99999100101ADDGF101991999999999999999999
0029228920999991914012320004+60717+028783FM-12+000399999V0203201N004119999999N0000001N9+00001+99999100501ADDGF100991999999999999999999
0029228920999991914012406004+60717+028783FM-12+000399999V0209991C000019999999N0000001N9-00441+99999100681ADDGF104991999999999999999999
0029228920999991914012413004+60717+028783FM-12+000399999V0202501N004119999999N0000001N9-00331+99999100901ADDGF108991999999999999999999
0029228920999991914012420004+60717+028783FM-12+000399999V0202501N008219999999N0000001N9-00281+99999100751ADDGF108991999999999999999999
0029228920999991914012506004+60717+028783FM-12+000399999V0202501N008219999999N0000001N9+00001+99999099821ADDGF108991999999999999999999
0029228920999991914012513004+60717+028783FM-12+000399999V0202301N009819999999N0000001N9+00061+99999098881ADDGF108991999999999999999999
0029228920999991914012520004+60717+028783FM-12+000399999V0202301N009819999999N0000001N9+00281+99999098721ADDGF100991999999999999999999
0029228920999991914012606004+60717+028783FM-12+000399999V0202501N006219999999N0000001N9+00061+99999098871ADDGF100991999999999999999999
0035228920999991914012613004+60717+028783FM-12+000399999V0202301N006219999999N0000001N9+00061+99999098111ADDGF108991999999999999999999MW1721
0029228920999991914012620004+60717+028783FM-12+000399999V0202501N009819999999N0000001N9+00281+99999096921ADDGF108991999999999999999999
0029228920999991914012706004+60717+028783FM-12+000399999V0202501N008219999999N0000001N9+00171+99999098031ADDGF108991999999999999999999
0029228920999991914012713004+60717+028783FM-12+000399999V0202901N009819999999N0000001N9-00061+99999098421ADDGF102991999999999999999999
0029228920999991914012720004+60717+028783FM-12+000399999V0202701N009819999999N0000001N9-00611+99999098991ADDGF107991999999999999999999
0029228920999991914012806004+60717+028783FM-12+000399999V0203401N004119999999N0000001N9-01171+99999100471ADDGF100991999999999999999999
0029228920999991914012813004+60717+028783FM-12+000399999V0202001N002119999999N0000001N9-00941+99999100801ADDGF106991999999999999999999
0029228920999991914012820004+60717+028783FM-12+000399999V0202301N009819999999N0000001N9-00221+99999100231ADDGF108991999999999999999999
0029228920999991914012906004+60717+028783FM-12+000399999V0202301N008219999999N0000001N9-00111+99999100081ADDGF108991999999999999999999
0035228920999991914012913004+60717+028783FM-12+000399999V0202301N012919999999N0000001N9+00001+99999099551ADDGF108991999999999999999999MW1721
0029228920999991914012920004+60717+028783FM-12+000399999V0202301N008219999999N0000001N9+00061+99999099231ADDGF108991999999999999999999
0029228920999991914013006004+60717+028783FM-12+000399999V0202501N009819999999N0000001N9+00001+99999098871ADDGF108991999999999999999999
0029228920999991914013013004+60717+028783FM-12+000399999V0202901N008219999999N0000001N9+00001+99999099141ADDGF108991999999999999999999
0029228920999991914013020004+60717+028783FM-12+000399999V0202701N006219999999N0000001N9-00221+99999099671ADDGF100991999999999999999999
0029228920999991914013106004+60717+028783FM-12+000399999V0202501N008219999999N0000001N9+00061+99999099261ADDGF108991999999999999999999
0029228920999991914013113004+60717+028783FM-12+000399999V0202701N006219999999N0000001N9+00221+99999099541ADDGF108991999999999999999999
0029228920999991914013120004+60717+028783FM-12+000399999V0202001N004119999999N0000001N9-00221+99999099941ADDGF108991999999999999999999
0035228920999991914020106004+60717+028783FM-12+000399999V0202001N012919999999N0000001N9+00221+99999098861ADDGF108991999999999999999999MW1621
0029228920999991914020113004+60717+028783FM-12+000399999V0202701N012919999999N0000001N9+00441+99999098761ADDGF100991999999999999999999
0029228920999991914020120004+60717+028783FM-12+000399999V0202701N012919999999N0000001N9+00441+99999099431ADDGF100991999999999999999999
0029228920999991914020206004+60717+028783FM-12+000399999V0202501N002119999999N0000001N9-00111+99999100221ADDGF100991999999999999999999
0035228920999991914020213004+60717+028783FM-12+000399999V0202001N009819999999N0000001N9+00111+99999099831ADDGF108991999999999999999999MW1601
0029228920999991914020220004+60717+028783FM-12+000399999V0202301N004119999999N0000001N9+00171+99999099631ADDGF108991999999999999999999
0029228920999991914020306004+60717+028783FM-12+000399999V0202501N009819999999N0000001N9+00221+99999099181ADDGF108991999999999999999999
0029228920999991914020313004+60717+028783FM-12+000399999V0202001N009819999999N0000001N9+00171+99999099151ADDGF108991999999999999999999
0029228920999991914020320004+60717+028783FM-12+000399999V0203201N004119999999N0000001N9+00281+99999099481ADDGF108991999999999999999999
0029228920999991914020406004+60717+028783FM-12+000399999V0203201N006219999999N0000001N9-00061+99999100761ADDGF108991999999999999999999
0029228920999991914020413004+60717+028783FM-12+000399999V0202501N004119999999N0000001N9+00001+99999101121ADDGF106991999999999999999999
0035228920999991914020420004+60717+028783FM-12+000399999V0202001N004119999999N0000001N9+00001+99999100791ADDGF108991999999999999999999MW1721
0029228920999991914020506004+60717+028783FM-12+000399999V0202501N006219999999N0000001N9+00111+99999100341ADDGF108991999999999999999999
0029228920999991914020513004+60717+028783FM-12+000399999V0202501N002119999999N0000001N9+00171+99999100221ADDGF107991999999999999999999
0029228920999991914020520004+60717+028783FM-12+000399999V0202301N002119999999N0000001N9+00111+99999100111ADDGF108991999999999999999999
0029228920999991914020606004+60717+028783FM-12+000399999V0202301N002119999999N0000001N9+00111+99999099981ADDGF108991999999999999999999
0029228920999991914020613004+60717+028783FM-12+000399999V0200201N002119999999N0000001N9+00001+99999100401ADDGF108991999999999999999999
0029228920999991914020620004+60717+028783FM-12+000399999V0209991C000019999999N0000001N9-00561+99999101081ADDGF100991999999999999999999
0029228920999991914020706004+60717+028783FM-12+000399999V0209991C000019999999N0000001N9-01061+99999101321ADDGF108991999999999999999999
0029228920999991914020713004+60717+028783FM-12+000399999V0209991C000019999999N0000001N9-00561+99999101311ADDGF108991999999999999999999
0035228920999991914020720004+60717+028783FM-12+000399999V0200901N002119999999N0000001N9-00501+99999101391ADDGF108991999999999999999999MW1721
0029228920999991914020806004+60717+028783FM-12+000399999V0209991C000019999999N0000001N9-00441+99999101271ADDGF108991999999999999999999
0029228920999991914020813004+60717+028783FM-12+000399999V0202001N004119999999N0000001N9+00001+99999101111ADDGF108991999999999999999999
0029228920999991914020820004+60717+028783FM-12+000399999V0202301N002119999999N0000001N9+00061+99999100981ADDGF108991999999999999999999
0029228920999991914020906004+60717+028783FM-12+000399999V0202301N009819999999N0000001N9+00171+99999100441ADDGF108991999999999999999999
0029228920999991914020913004+60717+028783FM-12+000399999V0202301N009819999999N0000001N9+00221+99999100141ADDGF108991999999999999999999
0029228920999991914020920004+60717+028783FM-12+000399999V0202301N009819999999N0000001N9+00221+99999100381ADDGF108991999999999999999999
0029228920999991914021006004+60717+028783FM-12+000399999V0202301N002119999999N0000001N9+00171+99999101021ADDGF108991999999999999999999
0029228920999991914021013004+60717+028783FM-12+000399999V0202001N004119999999N0000001N9+00111+99999101471ADDGF108991999999999999999999
0035228920999991914021020004+60717+028783FM-12+000399999V0202001N002119999999N0000001N9+00061+99999101121ADDGF108991999999999999999999MW1721
0029228920999991914021106004+60717+028783FM-12+000399999V0209991C000019999999N0000001N9+00061+99999101361ADDGF108991999999999999999999
0029228920999991914021113004+60717+028783FM-12+000399999V0209991C000019999999N0000001N9+00111+99999101701ADDGF108991999999999999999999
0029228920999991914021120004+60717+028783FM-12+000399999V0209991C000019999999N0000001N9+00061+99999101761ADDGF108991999999999999999999
0029228920999991914021206004+60717+028783FM-12+000399999V0201601N002119999999N0000001N9+00111+99999101671ADDGF108991999999999999999999
0029228920999991914021213004+60717+028783FM-12+000399999V0202001N002119999999N0000001N9+00111+99999101721ADDGF108991999999999999999999
0029228920999991914021220004+60717+028783FM-12+000399999V0202301N006219999999N0000001N9+00001+99999101701ADDGF108991999999999999999999
0029228920999991914021306004+60717+028783FM-12+000399999V0202001N006219999999N0000001N9-00111+99999101761ADDGF108991999999999999999999
0029228920999991914021313004+60717+028783FM-12+000399999V0202501N006219999999N0000001N9-00171+99999101871ADDGF108991999999999999999999
0029228920999991914021320004+60717+028783FM-12+000399999V0202301N004119999999N0000001N9+00001+99999101941ADDGF108991999999999999999999
0029228920999991914021406004+60717+028783FM-12+000399999V0202001N008219999999N0000001N9+00061+99999101911ADDGF108991999999999999999999
0029228920999991914021413004+60717+028783FM-12+000399999V0202001N008219999999N0000001N9+00001+99999101701ADDGF108991999999999999999999
0029228920999991914021420004+60717+028783FM-12+000399999V0201801N004119999999N0000001N9-00171+99999101361ADDGF108991999999999999999999
0029228920999991914021506004+60717+028783FM-12+000399999V0202001N009819999999N0000001N9+00061+99999100401ADDGF108991999999999999999999
0029228920999991914021513004+60717+028783FM-12+000399999V0202001N009819999999N0000001N9+00171+99999100181ADDGF108991999999999999999999
0029228920999991914021520004+60717+028783FM-12+000399999V0202001N006219999999N0000001N9+00221+99999099781ADDGF108991999999999999999999
0029228920999991914021606004+60717+028783FM-12+000399999V0202001N012919999999N0000001N9+00331+99999098561ADDGF108991999999999999999999
0035228920999991914021613004+60717+028783FM-12+000399999V0202501N012919999999N0000001N9+00331+99999098431ADDGF108991999999999999999999MW1601
0029228920999991914021620004+60717+028783FM-12+000399999V0202501N012919999999N0000001N9+00331+99999098941ADDGF108991999999999999999999
0029228920999991914021706004+60717+028783FM-12+000399999V0202501N008219999999N0000001N9+00001+99999099001ADDGF100991999999999999999999
0029228920999991914021713004+60717+028783FM-12+000399999V0202501N008219999999N0000001N9+00111+99999098961ADDGF107991999999999999999999
0029228920999991914021720004+60717+028783FM-12+000399999V0202501N004119999999N0000001N9+00111+99999098701ADDGF108991999999999999999999
0029228920999991914021806004+60717+028783FM-12+000399999V0202901N004119999999N0000001N9+00001+99999098791ADDGF108991999999999999999999
0029228920999991914021813004+60717+028783FM-12+000399999V0203401N004119999999N0000001N9-00111+99999099201ADDGF108991999999999999999999
0029228920999991914021820004+60717+028783FM-12+000399999V0203401N002119999999N0000001N9-00171+99999099461ADDGF108991999999999999999999
0029228920999991914021906004+60717+028783FM-12+000399999V0203401N004119999999N0000001N9-00671+99999100031ADDGF108991999999999999999999
0029228920999991914021913004+60717+028783FM-12+000399999V0203401N002119999999N0000001N9-00671+99999100201ADDGF103991999999999999999999
0029228920999991914021920004+60717+028783FM-12+000399999V0209991C000019999999N0000001N9-01111+99999100181ADDGF100991999999999999999999
0035228920999991914022006004+60717+028783FM-12+000399999V0200501N002119999999N0000001N9-01171+99999099981ADDGF108991999999999999999999MW1701
0035228920999991914022013004+60717+028783FM-12+000399999V0200201N006219999999N0000001N9-00891+99999099921ADDGF108991999999999999999999MW1701
0029228920999991914022020004+60717+028783FM-12+000399999V0200201N004119999999N0000001N9-01061+99999100101ADDGF108991999999999999999999
0035228920999991914022106004+60717+028783FM-12+000399999V0200201N002119999999N0000001N9-01061+99999100521ADDGF108991999999999999999999MW1701
0029228920999991914022113004+60717+028783FM-12+000399999V0203601N004119999999N0000001N9-00941+99999100881ADDGF108991999999999999999999
0029228920999991914022120004+60717+028783FM-12+000399999V0203601N004119999999N0000001N9-01221+99999101191ADDGF100991999999999999999999
0029228920999991914022206004+60717+028783FM-12+000399999V0209991C000019999999N0000001N9-01611+99999101481ADDGF100991999999999999999999
0029228920999991914022213004+60717+028783FM-12+000399999V0200501N002119999999N0000001N9-01061+99999101551ADDGF100991999999999999999999
0029228920999991914022220004+60717+028783FM-12+000399999V0209991C000019999999N0000001N9-01501+99999101751ADDGF100991999999999999999999
0029228920999991914022306004+60717+028783FM-12+000399999V0209991C000019999999N0000001N9-01221+99999101861ADDGF108991999999999999999999
0035228920999991914022313004+60717+028783FM-12+000399999V0201101N002119999999N0000001N9-00831+99999101981ADDGF100991999999999999999999MW1701
0029228920999991914022320004+60717+028783FM-12+000399999V0209991C000019999999N0000001N9-01281+99999102111ADDGF100991999999999999999999
0029228920999991914022406004+60717+028783FM-12+000399999V0209991C000019999999N0000001N9-01561+99999102271ADDGF100991999999999999999999
0029228920999991914022413004+60717+028783FM-12+000399999V0209991C000019999999N0000001N9-00331+99999102401ADDGF100991999999999999999999
0029228920999991914022420004+60717+028783FM-12+000399999V0209991C000019999999N0000001N9-01111+99999102441ADDGF100991999999999999999999
0029228920999991914022506004+60717+028783FM-12+000399999V0209991C000019999999N0000001N9-01611+99999102621ADDGF101991999999999999999999
0029228920999991914022513004+60717+028783FM-12+000399999V0209991C000019999999N0000001N9-00391+99999102661ADDGF100991999999999999999999
0029228920999991914022520004+60717+028783FM-12+000399999V0209991C000019999999N0000001N9-01171+99999102641ADDGF100991999999999999999999
0029228920999991914022606004+60717+028783FM-12+000399999V0209991C000019999999N0000001N9-01501+99999102541ADDGF106991999999999999999999
0029228920999991914022613004+60717+028783FM-12+000399999V0209991C000019999999N0000001N9-00391+99999102351ADDGF102991999999999999999999
0029228920999991914022620004+60717+028783FM-12+000399999V0209991C000019999999N0000001N9-00281+99999101781ADDGF108991999999999999999999
0029228920999991914022706004+60717+028783FM-12+000399999V0201601N002119999999N0000001N9-00171+99999101031ADDGF108991999999999999999999
0029228920999991914022713004+60717+028783FM-12+000399999V0202701N008219999999N0000001N9-00061+99999100841ADDGF108991999999999999999999
0029228920999991914022720004+60717+028783FM-12+000399999V0202501N006219999999N0000001N9-00221+99999100791ADDGF108991999999999999999999
0029228920999991914022806004+60717+028783FM-12+000399999V0200201N004119999999N0000001N9-00561+99999101141ADDGF108991999999999999999999
0029228920999991914022813004+60717+028783FM-12+000399999V0203401N004119999999N0000001N9-00501+99999101301ADDGF108991999999999999999999
0029228920999991914022820004+60717+028783FM-12+000399999V0209991C000019999999N0000001N9-01061+99999101581ADDGF100991999999999999999999
0029228920999991914030106004+60717+028783FM-12+000399999V0209991C000019999999N0000001N9-01061+99999101551ADDGF108991999999999999999999
0029228920999991914030113004+60717+028783FM-12+000399999V0202301N008219999999N0000001N9-00391+99999101201ADDGF108991999999999999999999
0035228920999991914030120004+60717+028783FM-12+000399999V0202001N008219999999N0000001N9-00281+99999100791ADDGF108991999999999999999999MW1721
0029228920999991914030206004+60717+028783FM-12+000399999V0202001N012919999999N0000001N9-00111+99999100441ADDGF108991999999999999999999
0029228920999991914030213004+60717+028783FM-12+000399999V0202301N012919999999N0000001N9+00061+99999100391ADDGF108991999999999999999999
0029228920999991914030220004+60717+028783FM-12+000399999V0202501N009819999999N0000001N9+00061+99999100471ADDGF108991999999999999999999
0029228920999991914030306004+60717+028783FM-12+000399999V0202501N006219999999N0000001N9+00061+99999100701ADDGF108991999999999999999999
0029228920999991914030313004+60717+028783FM-12+000399999V0202001N004119999999N0000001N9+00061+99999100821ADDGF108991999999999999999999
0029228920999991914030320004+60717+028783FM-12+000399999V0201801N004119999999N0000001N9+00001+99999100751ADDGF108991999999999999999999
0029228920999991914030406004+60717+028783FM-12+000399999V0202001N004119999999N0000001N9-00171+99999100641ADDGF108991999999999999999999
0029228920999991914030413004+60717+028783FM-12+000399999V0201601N004119999999N0000001N9-00061+99999100631ADDGF108991999999999999999999
0029228920999991914030420004+60717+028783FM-12+000399999V0201801N004119999999N0000001N9-00111+99999100511ADDGF108991999999999999999999
0035228920999991914030506004+60717+028783FM-12+000399999V0201601N004119999999N0000001N9-00171+99999100101ADDGF108991999999999999999999MW1721
0029228920999991914030513004+60717+028783FM-12+000399999V0201601N004119999999N0000001N9+00171+99999099911ADDGF107991999999999999999999
0029228920999991914030520004+60717+028783FM-12+000399999V0201601N002119999999N0000001N9-00221+99999099661ADDGF107991999999999999999999
0029228920999991914030606004+60717+028783FM-12+000399999V0200901N004119999999N0000001N9-00281+99999098961ADDGF102991999999999999999999
0029228920999991914030613004+60717+028783FM-12+000399999V0200701N004119999999N0000001N9-00061+99999098621ADDGF108991999999999999999999
0029228920999991914030620004+60717+028783FM-12+000399999V0200701N004119999999N0000001N9-00171+99999098521ADDGF108991999999999999999999
0029228920999991914030706004+60717+028783FM-12+000399999V0200701N002119999999N0000001N9-00281+99999098401ADDGF108991999999999999999999
0029228920999991914030713004+60717+028783FM-12+000399999V0201101N004119999999N0000001N9-00061+99999098301ADDGF105991999999999999999999
0035228920999991914030720004+60717+028783FM-12+000399999V0200701N002119999999N0000001N9-00221+99999098221ADDGF108991999999999999999999MW1701
0029228920999991914030806004+60717+028783FM-12+000399999V0200501N004119999999N0000001N9-00221+99999098111ADDGF108991999999999999999999
0029228920999991914030813004+60717+028783FM-12+000399999V0209991C000019999999N0000001N9+00061+99999098341ADDGF108991999999999999999999
0029228920999991914030820004+60717+028783FM-12+000399999V0203401N002119999999N0000001N9-00391+99999098671ADDGF108991999999999999999999
0029228920999991914030906004+60717+028783FM-12+000399999V0202901N002119999999N0000001N9-00611+99999098991ADDGF108991999999999999999999
0029228920999991914030913004+60717+028783FM-12+000399999V0202701N006219999999N0000001N9-00331+99999099301ADDGF108991999999999999999999
0029228920999991914030920004+60717+028783FM-12+000399999V0202501N004119999999N0000001N9-00671+99999099511ADDGF108991999999999999999999
0029228920999991914031006004+60717+028783FM-12+000399999V0202701N004119999999N0000001N9-00831+99999099641ADDGF108991999999999999999999
0029228920999991914031013004+60717+028783FM-12+000399999V0202301N004119999999N0000001N9-00441+99999099881ADDGF100991999999999999999999
0029228920999991914031020004+60717+028783FM-12+000399999V0209991C000019999999N0000001N9-01111+99999099981ADDGF100991999999999999999999
0029228920999991914031106004+60717+028783FM-12+000399999V0209991C000019999999N0000001N9-01001+99999099711ADDGF108991999999999999999999
0035228920999991914031113004+60717+028783FM-12+000399999V0202501N004119999999N0000001N9-00501+99999099751ADDGF108991999999999999999999MW1721
0029228920999991914031120004+60717+028783FM-12+000399999V0202901N002119999999N0000001N9-00781+99999100081ADDGF108991999999999999999999
0029228920999991914031206004+60717+028783FM-12+000399999V0209991C000019999999N0000001N9-01061+99999100621ADDGF102991999999999999999999
0035228920999991914031213004+60717+028783FM-12+000399999V0202901N004119999999N0000001N9-00501+99999100901ADDGF108991999999999999999999MW1721
0029228920999991914031220004+60717+028783FM-12+000399999V0209991C000019999999N0000001N9-00671+99999101081ADDGF108991999999999999999999
0029228920999991914031306004+60717+028783FM-12+000399999V0203401N002119999999N0000001N9-01221+99999101421ADDGF100991999999999999999999
0029228920999991914031313004+60717+028783FM-12+000399999V0202701N004119999999N0000001N9-00331+99999101541ADDGF100991999999999999999999
0035228920999991914031320004+60717+028783FM-12+000399999V0202701N002119999999N0000001N9-00501+99999101361ADDGF108991999999999999999999MW1721
0029228920999991914031406004+60717+028783FM-12+000399999V0209991C000019999999N0000001N9-00671+99999101591ADDGF108991999999999999999999
0029228920999991914031413004+60717+028783FM-12+000399999V0202001N004119999999N0000001N9+00001+99999101381ADDGF100991999999999999999999
0029228920999991914031420004+60717+028783FM-12+000399999V0209991C000019999999N0000001N9-00391+99999101551ADDGF100991999999999999999999
0029228920999991914031506004+60717+028783FM-12+000399999V0209991C000019999999N0000001N9-00671+99999101641ADDGF108991999999999999999999
0029228920999991914031513004+60717+028783FM-12+000399999V0201401N002119999999N0000001N9+00171+99999101221ADDGF100991999999999999999999
0029228920999991914031520004+60717+028783FM-12+000399999V0201101N002119999999N0000001N9-00061+99999100831ADDGF108991999999999999999999
0035228920999991914031606004+60717+028783FM-12+000399999V0201601N002119999999N0000001N9+00061+99999099751ADDGF108991999999999999999999MW1721
0035228920999991914031613004+60717+028783FM-12+000399999V0202001N004119999999N0000001N9+00171+99999099321ADDGF108991999999999999999999MW1621
0029228920999991914031620004+60717+028783FM-12+000399999V0202001N004119999999N0000001N9+00111+99999099111ADDGF108991999999999999999999
0029228920999991914031706004+60717+028783FM-12+000399999V0201401N002119999999N0000001N9+00061+99999098821ADDGF108991999999999999999999
0035228920999991914031713004+60717+028783FM-12+000399999V0200701N004119999999N0000001N9+00281+99999098671ADDGF108991999999999999999999MW1621
0035228920999991914031720004+60717+028783FM-12+000399999V0200701N004119999999N0000001N9+00061+99999098581ADDGF108991999999999999999999MW1721
0035228920999991914031806004+60717+028783FM-12+000399999V0200501N006219999999N0000001N9-00281+99999099041ADDGF108991999999999999999999MW1721
0035228920999991914031813004+60717+028783FM-12+000399999V0200501N004119999999N0000001N9-00281+99999099661ADDGF108991999999999999999999MW1721
0029228920999991914031820004+60717+028783FM-12+000399999V0200501N004119999999N0000001N9-00441+99999100271ADDGF108991999999999999999999
0035228920999991914031906004+60717+028783FM-12+000399999V0200701N004119999999N0000001N9-00781+99999100961ADDGF108991999999999999999999MW1721
0035228920999991914031913004+60717+028783FM-12+000399999V0209991C000019999999N0000001N9-00561+99999101351ADDGF108991999999999999999999MW1721
0029228920999991914031920004+60717+028783FM-12+000399999V0209991C000019999999N0000001N9-00721+99999101701ADDGF108991999999999999999999
0029228920999991914032006004+60717+028783FM-12+000399999V0209991C000019999999N0000001N9-00781+99999101921ADDGF102991999999999999999999
0029228920999991914032013004+60717+028783FM-12+000399999V0203601N004119999999N0000001N9-00221+99999102021ADDGF108991999999999999999999
0029228920999991914032020004+60717+028783FM-12+000399999V0209991C000019999999N0000001N9-00941+99999102071ADDGF100991999999999999999999
0029228920999991914032106004+60717+028783FM-12+000399999V0209991C000019999999N0000001N9-01061+99999102201ADDGF100991999999999999999999
0029228920999991914032113004+60717+028783FM-12+000399999V0201101N004119999999N0000001N9-00061+99999102121ADDGF100991999999999999999999
0029228920999991914032120004+60717+028783FM-12+000399999V0201101N002119999999N0000001N9-00781+99999102151ADDGF108991999999999999999999
0029228920999991914032206004+60717+028783FM-12+000399999V0201101N004119999999N0000001N9-00501+99999102071ADDGF108991999999999999999999
0029228920999991914032213004+60717+028783FM-12+000399999V0201101N006219999999N0000001N9-00331+99999101991ADDGF105991999999999999999999
0029228920999991914032220004+60717+028783FM-12+000399999V0201101N006219999999N0000001N9-00441+99999101801ADDGF100991999999999999999999
0029228920999991914032306004+60717+028783FM-12+000399999V0201101N004119999999N0000001N9-00171+99999101661ADDGF108991999999999999999999
0029228920999991914032313004+60717+028783FM-12+000399999V0201101N004119999999N0000001N9+00001+99999101551ADDGF101991999999999999999999
0029228920999991914032320004+60717+028783FM-12+000399999V0209991C000019999999N0000001N9-00441+99999101661ADDGF100991999999999999999999
0029228920999991914032406004+60717+028783FM-12+000399999V0200901N002119999999N0000001N9-00441+99999101831ADDGF100991999999999999999999
0029228920999991914032413004+60717+028783FM-12+000399999V0200901N004119999999N0000001N9+00391+99999101841ADDGF100991999999999999999999
0029228920999991914032420004+60717+028783FM-12+000399999V0200901N002119999999N0000001N9-00561+99999101801ADDGF100991999999999999999999
0029228920999991914032506004+60717+028783FM-12+000399999V0200901N002119999999N0000001N9-00561+99999101631ADDGF100991999999999999999999
0029228920999991914032513004+60717+028783FM-12+000399999V0200701N004119999999N0000001N9-00111+99999101351ADDGF100991999999999999999999
0029228920999991914032520004+60717+028783FM-12+000399999V0200901N006219999999N0000001N9-00561+99999100981ADDGF100991999999999999999999
0029228920999991914032606004+60717+028783FM-12+000399999V0200901N006219999999N0000001N9-00561+99999100821ADDGF100991999999999999999999
0029228920999991914032613004+60717+028783FM-12+000399999V0201101N006219999999N0000001N9-00221+99999100781ADDGF108991999999999999999999
0029228920999991914032620004+60717+028783FM-12+000399999V0200901N006219999999N0000001N9-00391+99999100861ADDGF108991999999999999999999
0029228920999991914032706004+60717+028783FM-12+000399999V0200901N004119999999N0000001N9-00331+99999100751ADDGF108991999999999999999999
0035228920999991914032713004+60717+028783FM-12+000399999V0200901N006219999999N0000001N9-00221+99999100761ADDGF108991999999999999999999MW1721
0035228920999991914032720004+60717+028783FM-12+000399999V0200701N004119999999N0000001N9-00171+99999100641ADDGF108991999999999999999999MW1721
0035228920999991914032806004+60717+028783FM-12+000399999V0209991C000019999999N0000001N9+00061+99999100521ADDGF108991999999999999999999MW1701
0029228920999991914032813004+60717+028783FM-12+000399999V0209991C000019999999N0000001N9+00281+99999100721ADDGF108991999999999999999999
0029228920999991914032820004+60717+028783FM-12+000399999V0209991C000019999999N0000001N9+00111+99999100921ADDGF108991999999999999999999
0029228920999991914032906004+60717+028783FM-12+000399999V0209991C000019999999N0000001N9+00061+99999101081ADDGF108991999999999999999999
0035228920999991914032913004+60717+028783FM-12+000399999V0203601N002119999999N0000001N9+00111+99999101201ADDGF108991999999999999999999MW1721
0029228920999991914032920004+60717+028783FM-12+000399999V0203601N002119999999N0000001N9-00171+99999101421ADDGF100991999999999999999999
0029228920999991914033006004+60717+028783FM-12+000399999V0203401N004119999999N0000001N9-00781+99999102041ADDGF100991999999999999999999
0029228920999991914033013004+60717+028783FM-12+000399999V0203401N004119999999N0000001N9+00061+99999102301ADDGF100991999999999999999999
0029228920999991914033020004+60717+028783FM-12+000399999V0209991C000019999999N0000001N9-00781+99999102431ADDGF100991999999999999999999
0029228920999991914033106004+60717+028783FM-12+000399999V0209991C000019999999N0000001N9-00561+99999102281ADDGF108991999999999999999999
0029228920999991914033113004+60717+028783FM-12+000399999V0203401N002119999999N0000001N9+00061+99999102221ADDGF108991999999999999999999
0035228920999991914033120004+60717+028783FM-12+000399999V0209991C000019999999N0000001N9-00111+99999102061ADDGF108991999999999999999999MW1721
0029228920999991914040106004+60717+028783FM-12+000399999V0200901N002119999999N0000001N9-00221+99999101311ADDGF108991999999999999999999
0029228920999991914040113004+60717+028783FM-12+000399999V0200701N008219999999N0000001N9+00111+99999101271ADDGF103991999999999999999999
0029228920999991914040120004+60717+028783FM-12+000399999V0200701N002119999999N0000001N9-00331+99999101581ADDGF100991999999999999999999
0029228920999991914040206004+60717+028783FM-12+000399999V0200701N004119999999N0000001N9-00561+99999101831ADDGF100991999999999999999999
0029228920999991914040213004+60717+028783FM-12+000399999V0200501N004119999999N0000001N9+00221+99999101831ADDGF100991999999999999999999
0029228920999991914040220004+60717+028783FM-12+000399999V0209991C000019999999N0000001N9-00331+99999101821ADDGF100991999999999999999999
0029228920999991914040306004+60717+028783FM-12+000399999V0209991C000019999999N0000001N9-00171+99999101791ADDGF108991999999999999999999
0029228920999991914040313004+60717+028783FM-12+000399999V0200901N002119999999N0000001N9+00171+99999101801ADDGF108991999999999999999999
0029228920999991914040320004+60717+028783FM-12+000399999V0209991C000019999999N0000001N9+00001+99999101821ADDGF100991999999999999999999
0029228920999991914040406004+60717+028783FM-12+000399999V0200901N002119999999N0000001N9-00281+99999101861ADDGF100991999999999999999999
0029228920999991914040413004+60717+028783FM-12+000399999V0201401N002119999999N0000001N9+00501+99999101781ADDGF100991999999999999999999
0029228920999991914040420004+60717+028783FM-12+000399999V0209991C000019999999N0000001N9-00221+99999101791ADDGF100991999999999999999999
0029228920999991914040506004+60717+028783FM-12+000399999V0209991C000019999999N0000001N9-00831+99999101661ADDGF100991999999999999999999
0029228920999991914040513004+60717+028783FM-12+000399999V0202501N004119999999N0000001N9+00331+99999101381ADDGF100991999999999999999999
0029228920999991914040520004+60717+028783FM-12+000399999V0209991C000019999999N0000001N9-00831+99999101161ADDGF100991999999999999999999
0029228920999991914040606004+60717+028783FM-12+000399999V0209991C000019999999N0000001N9-00671+99999101021ADDGF100991999999999999999999
0029228920999991914040613004+60717+028783FM-12+000399999V0202501N004119999999N0000001N9+00281+99999100791ADDGF101991999999999999999999
0029228920999991914040620004+60717+028783FM-12+000399999V0209991C000019999999N0000001N9-00391+99999100721ADDGF104991999999999999999999
0029228920999991914040706004+60717+028783FM-12+000399999V0209991C000019999999N0000001N9-00441+99999100701ADDGF100991999999999999999999
0029228920999991914040713004+60717+028783FM-12+000399999V0201601N002119999999N0000001N9+00611+99999100591ADDGF104991999999999999999999
0029228920999991914040720004+60717+028783FM-12+000399999V0209991C000019999999N0000001N9-00111+99999100541ADDGF100991999999999999999999
0029228920999991914040806004+60717+028783FM-12+000399999V0201101N002119999999N0000001N9+00061+99999100511ADDGF100991999999999999999999
0029228920999991914040813004+60717+028783FM-12+000399999V0201401N002119999999N0000001N9+00781+99999100601ADDGF106991999999999999999999
0029228920999991914040820004+60717+028783FM-12+000399999V0209991C000019999999N0000001N9+00281+99999100861ADDGF107991999999999999999999
0029228920999991914040906004+60717+028783FM-12+000399999V0201101N002119999999N0000001N9+00221+99999101001ADDGF108991999999999999999999
0029228920999991914040913004+60717+028783FM-12+000399999V0201101N004119999999N0000001N9+00501+99999101241ADDGF108991999999999999999999
0029228920999991914040920004+60717+028783FM-12+000399999V0209991C000019999999N0000001N9+00281+99999101461ADDGF103991999999999999999999
0046228920999991914041006004+60717+028783FM-12+000399999V0200901N002119999999N0000001N9+00171+99999101791ADDAJ100009199999999GF100991999999999999999999
0029228920999991914041013004+60717+028783FM-12+000399999V0200901N006219999999N0000001N9+00671+99999101951ADDGF105991999999999999999999
0029228920999991914041020004+60717+028783FM-12+000399999V0209991C000019999999N0000001N9+00111+99999102001ADDGF100991999999999999999999
0046228920999991914041106004+60717+028783FM-12+000399999V0201101N002119999999N0000001N9+00001+99999102021ADDAJ100009199999999GF102991999999999999999999
0029228920999991914041113004+60717+028783FM-12+000399999V0202501N006219999999N0000001N9+00561+99999102061ADDGF100991999999999999999999
0029228920999991914041120004+60717+028783FM-12+000399999V0209991C000019999999N0000001N9+00331+99999101991ADDGF108991999999999999999999
0046228920999991914041206004+60717+028783FM-12+000399999V0201601N004119999999N0000001N9+00441+99999101551ADDAJ100009199999999GF108991999999999999999999
0035228920999991914041213004+60717+028783FM-12+000399999V0201601N002119999999N0000001N9+00561+99999100881ADDGF108991999999999999999999MW1621
0035228920999991914041220004+60717+028783FM-12+000399999V0201601N002119999999N0000001N9+00391+99999100081ADDGF108991999999999999999999MW1621
0046228920999991914041306004+60717+028783FM-12+000399999V0202301N004119999999N0000001N9+00221+99999100471ADDAJ100009199999999GF108991999999999999999999
0029228920999991914041313004+60717+028783FM-12+000399999V0202001N008219999999N0000001N9+00331+99999100601ADDGF102991999999999999999999
0029228920999991914041320004+60717+028783FM-12+000399999V0202301N004119999999N0000001N9+00061+99999100801ADDGF108991999999999999999999
0046228920999991914041406004+60717+028783FM-12+000399999V0202001N008219999999N0000001N9+00171+99999100471ADDAJ100009199999999GF108991999999999999999999
0029228920999991914041413004+60717+028783FM-12+000399999V0202301N008219999999N0000001N9+00221+99999100421ADDGF108991999999999999999999
0035228920999991914041420004+60717+028783FM-12+000399999V0202001N004119999999N0000001N9+00171+99999100101ADDGF108991999999999999999999MW1621
0046228920999991914041506004+60717+028783FM-12+000399999V0203201N004119999999N0000001N9+00331+99999099921ADDAJ100009199999999GF108991999999999999999999
0029228920999991914041513004+60717+028783FM-12+000399999V0203401N004119999999N0000001N9+00441+99999100321ADDGF100991999999999999999999
0029228920999991914041520004+60717+028783FM-12+000399999V0202701N004119999999N0000001N9+00001+99999100501ADDGF100991999999999999999999
0046228920999991914041606004+60717+028783FM-12+000399999V0202701N004119999999N0000001N9-00171+99999100721ADDAJ100009199999999GF108991999999999999999999
0029228920999991914041613004+60717+028783FM-12+000399999V0203401N008219999999N0000001N9+00171+99999101231ADDGF108991999999999999999999
0029228920999991914041620004+60717+028783FM-12+000399999V0202701N002119999999N0000001N9+00001+99999101711ADDGF100991999999999999999999
0046228920999991914041706004+60717+028783FM-12+000399999V0202901N004119999999N0000001N9+00001+99999102031ADDAJ100009199999999GF107991999999999999999999
0029228920999991914041713004+60717+028783FM-12+000399999V0203401N008219999999N0000001N9+00721+99999102031ADDGF103991999999999999999999
0029228920999991914041720004+60717+028783FM-12+000399999V0203401N002119999999N0000001N9+00441+99999102431ADDGF100991999999999999999999
0046228920999991914041806004+60717+028783FM-12+000399999V0202901N002119999999N0000001N9+00221+99999102881ADDAJ100009199999999GF102991999999999999999999
0029228920999991914041813004+60717+028783FM-12+000399999V0202001N008219999999N0000001N9+00831+99999102381ADDGF100991999999999999999999
0029228920999991914041820004+60717+028783FM-12+000399999V0202501N004119999999N0000001N9+00391+99999101861ADDGF100991999999999999999999
0046228920999991914041906004+60717+028783FM-12+000399999V0203401N008219999999N0000001N9+00501+99999101831ADDAJ100009199999999GF100991999999999999999999
0029228920999991914041913004+60717+028783FM-12+000399999V0203401N009819999999N0000001N9+00831+99999101881ADDGF100991999999999999999999
0029228920999991914041920004+60717+028783FM-12+000399999V0209991C000019999999N0000001N9+00111+99999101791ADDGF105991999999999999999999
0046228920999991914042006004+60717+028783FM-12+000399999V0209991C000019999999N0000001N9+00221+99999101741ADDAJ100009199999999GF106991999999999999999999
0029228920999991914042013004+60717+028783FM-12+000399999V0209991C000019999999N0000001N9+00781+99999101791ADDGF100991999999999999999999
0029228920999991914042020004+60717+028783FM-12+000399999V0209991C000019999999N0000001N9+00221+99999101781ADDGF101991999999999999999999
0046228920999991914042106004+60717+028783FM-12+000399999V0202901N004119999999N0000001N9+00501+99999101701ADDAJ100009199999999GF107991999999999999999999
0029228920999991914042113004+60717+028783FM-12+000399999V0203401N004119999999N0000001N9+01331+99999101781ADDGF100991999999999999999999
0035228920999991914042120004+60717+028783FM-12+000399999V0202001N002119999999N0000001N9+00331+99999101751ADDGF108991999999999999999999MW1621
0046228920999991914042206004+60717+028783FM-12+000399999V0203401N004119999999N0000001N9+00721+99999101881ADDAJ100009199999999GF101991999999999999999999
0029228920999991914042213004+60717+028783FM-12+000399999V0202001N004119999999N0000001N9+01061+99999101711ADDGF100991999999999999999999
0029228920999991914042220004+60717+028783FM-12+000399999V0209991C000019999999N0000001N9+01001+99999101521ADDGF100991999999999999999999
0046228920999991914042306004+60717+028783FM-12+000399999V0200201N004119999999N0000001N9+00891+99999101661ADDAJ100009199999999GF100991999999999999999999
0029228920999991914042313004+60717+028783FM-12+000399999V0209991C000019999999N0000001N9+01331+99999101631ADDGF100991999999999999999999
0029228920999991914042320004+60717+028783FM-12+000399999V0201601N002119999999N0000001N9+00671+99999101281ADDGF100991999999999999999999
0046228920999991914042406004+60717+028783FM-12+000399999V0202001N004119999999N0000001N9+00721+99999100501ADDAJ100009199999999GF100991999999999999999999
0029228920999991914042413004+60717+028783FM-12+000399999V0202001N008219999999N0000001N9+00671+99999100321ADDGF100991999999999999999999
0029228920999991914042420004+60717+028783FM-12+000399999V0202001N002119999999N0000001N9+00281+99999100271ADDGF105991999999999999999999
0046228920999991914042506004+60717+028783FM-12+000399999V0202001N004119999999N0000001N9+00281+99999100421ADDAJ100009199999999GF108991999999999999999999
0029228920999991914042513004+60717+028783FM-12+000399999V0202001N004119999999N0000001N9+00561+99999100631ADDGF101991999999999999999999
0029228920999991914042520004+60717+028783FM-12+000399999V0202001N002119999999N0000001N9+00171+99999100951ADDGF106991999999999999999999
0046228920999991914042606004+60717+028783FM-12+000399999V0202501N004119999999N0000001N9+00221+99999101261ADDAJ100009199999999GF102991999999999999999999
0029228920999991914042613004+60717+028783FM-12+000399999V0202301N013919999999N0000001N9+00281+99999100681ADDGF108991999999999999999999
0029228920999991914042620004+60717+028783FM-12+000399999V0202501N011819999999N0000001N9+00281+99999099801ADDGF101991999999999999999999
0046228920999991914042706004+60717+028783FM-12+000399999V0202901N009819999999N0000001N9+00501+99999099621ADDAJ100009199999999GF101991999999999999999999
0029228920999991914042713004+60717+028783FM-12+000399999V0203401N009819999999N0000001N9+00831+99999100061ADDGF102991999999999999999999
0029228920999991914042720004+60717+028783FM-12+000399999V0203401N006219999999N0000001N9+00391+99999100631ADDGF108991999999999999999999
0046228920999991914042806004+60717+028783FM-12+000399999V0202901N002119999999N0000001N9+00221+99999101271ADDAJ100009199999999GF100991999999999999999999
0029228920999991914042813004+60717+028783FM-12+000399999V0202001N009819999999N0000001N9+00391+99999100921ADDGF106991999999999999999999
0029228920999991914042820004+60717+028783FM-12+000399999V0202001N006219999999N0000001N9+00331+99999100271ADDGF108991999999999999999999
0046228920999991914042906004+60717+028783FM-12+000399999V0202901N008219999999N0000001N9+00611+99999099711ADDAJ100009199999999GF101991999999999999999999
0029228920999991914042913004+60717+028783FM-12+000399999V0202901N011819999999N0000001N9+00781+99999099681ADDGF100991999999999999999999
0029228920999991914042920004+60717+028783FM-12+000399999V0202501N002119999999N0000001N9+00171+99999099041ADDGF108991999999999999999999
0029228920999991914043006004+60717+028783FM-12+000399999V0202901N006219999999N0000001N9+00001+99999099881ADDGF100991999999999999999999
0029228920999991914043013004+60717+028783FM-12+000399999V0202501N008219999999N0000001N9+00441+99999100191ADDGF100991999999999999999999
0029228920999991914043020004+60717+028783FM-12+000399999V0202701N002119999999N0000001N9+00061+99999100221ADDGF100991999999999999999999
0046228920999991914050106004+60717+028783FM-12+000399999V0202001N004119999999N0000001N9+00111+99999100381ADDAJ100009199999999GF100991999999999999999999
0029228920999991914050113004+60717+028783FM-12+000399999V0202901N006219999999N0000001N9+00441+99999100481ADDGF106991999999999999999999
0029228920999991914050120004+60717+028783FM-12+000399999V0202901N002119999999N0000001N9+00061+99999100671ADDGF102991999999999999999999
0046228920999991914050206004+60717+028783FM-12+000399999V0209991C000019999999N0000001N9+00221+99999100911ADDAJ100009199999999GF100991999999999999999999
0029228920999991914050213004+60717+028783FM-12+000399999V0202301N006219999999N0000001N9+00281+99999101041ADDGF108991999999999999999999
0029228920999991914050220004+60717+028783FM-12+000399999V0202701N004119999999N0000001N9+00001+99999101301ADDGF101991999999999999999999
0046228920999991914050306004+60717+028783FM-12+000399999V0202701N002119999999N0000001N9+00111+99999101591ADDAJ100009199999999GF108991999999999999999999
0029228920999991914050313004+60717+028783FM-12+000399999V0202001N008219999999N0000001N9+00561+99999101521ADDGF108991999999999999999999
0029228920999991914050320004+60717+028783FM-12+000399999V0201801N002119999999N0000001N9+00221+99999101361ADDGF100991999999999999999999
0046228920999991914050406004+60717+028783FM-12+000399999V0202001N004119999999N0000001N9+00331+99999101151ADDAJ100009199999999GF108991999999999999999999
0029228920999991914050413004+60717+028783FM-12+000399999V0202001N009819999999N0000001N9+00501+99999100941ADDGF108991999999999999999999
0029228920999991914050420004+60717+028783FM-12+000399999V0209991C000019999999N0000001N9+00561+99999100871ADDGF108991999999999999999999
0046228920999991914050506004+60717+028783FM-12+000399999V0201401N002119999999N0000001N9+00721+99999100781ADDAJ100009199999999GF102991999999999999999999
0029228920999991914050513004+60717+028783FM-12+000399999V0201401N002119999999N0000001N9+01391+99999100381ADDGF108991999999999999999999
0029228920999991914050520004+60717+028783FM-12+000399999V0209991C000019999999N0000001N9+00611+99999999999ADDGF101991999999999999999999
0046228920999991914050606004+60717+028783FM-12+000399999V0202001N011819999999N0000001N9+00441+99999099351ADDAJ100009199999999GF108991999999999999999999
0029228920999991914050613004+60717+028783FM-12+000399999V0202001N009819999999N0000001N9+00561+99999999999ADDGF107991999999999999999999
0029228920999991914050620004+60717+028783FM-12+000399999V0202301N004119999999N0000001N9+00501+99999100351ADDGF108991999999999999999999
0046228920999991914050706004+60717+028783FM-12+000399999V0200901N002119999999N0000001N9+00671+99999100881ADDAJ100009199999999GF108991999999999999999999
0029228920999991914050713004+60717+028783FM-12+000399999V0200901N004119999999N0000001N9+01331+99999100991ADDGF108991999999999999999999
0029228920999991914050720004+60717+028783FM-12+000399999V0201101N004119999999N0000001N9+00831+99999100581ADDGF108991999999999999999999
0046228920999991914050806004+60717+028783FM-12+000399999V0202001N004119999999N0000001N9+00781+99999100721ADDAJ100009199999999GF108991999999999999999999
0029228920999991914050813004+60717+028783FM-12+000399999V0202001N006219999999N0000001N9+01061+99999100951ADDGF101991999999999999999999
0029228920999991914050820004+60717+028783FM-12+000399999V0209991C000019999999N0000001N9+00781+99999100911ADDGF106991999999999999999999
0046228920999991914050906004+60717+028783FM-12+000399999V0202001N002119999999N0000001N9+00941+99999100821ADDAJ100009199999999GF108991999999999999999999
0029228920999991914050913004+60717+028783FM-12+000399999V0209991C000019999999N0000001N9+01391+99999100741ADDGF101991999999999999999999
0029228920999991914050920004+60717+028783FM-12+000399999V0209991C000019999999N0000001N9+01111+99999100431ADDGF108991999999999999999999
0052228920999991914051006004+60717+028783FM-12+000399999V0202301N004119999999N0000001N9+00721+99999099681ADDAJ100009199999999GF108991999999999999999999MW1621
0029228920999991914051013004+60717+028783FM-12+000399999V0202001N009819999999N0000001N9+00781+99999099741ADDGF101991999999999999999999
0029228920999991914051020004+60717+028783FM-12+000399999V0202301N006219999999N0000001N9+00561+99999100151ADDGF106991999999999999999999
0046228920999991914051106004+60717+028783FM-12+000399999V0202001N004119999999N0000001N9+00441+99999100841ADDAJ100009199999999GF100991999999999999999999
0029228920999991914051113004+60717+028783FM-12+000399999V0202001N009819999999N0000001N9+00781+99999100991ADDGF100991999999999999999999
0029228920999991914051120004+60717+028783FM-12+000399999V0202001N004119999999N0000001N9+00441+99999101071ADDGF100991999999999999999999
0046228920999991914051206004+60717+028783FM-12+000399999V0209991C000019999999N0000001N9+00721+99999101461ADDAJ100009199999999GF100991999999999999999999
0029228920999991914051213004+60717+028783FM-12+000399999V0202001N006219999999N0000001N9+01001+99999101551ADDGF100991999999999999999999
0029228920999991914051220004+60717+028783FM-12+000399999V0202001N002119999999N0000001N9+00611+99999101621ADDGF100991999999999999999999
0046228920999991914051306004+60717+028783FM-12+000399999V0200701N006219999999N0000001N9+00781+99999101671ADDAJ100009199999999GF108991999999999999999999
0029228920999991914051313004+60717+028783FM-12+000399999V0201101N004119999999N0000001N9+01441+99999101421ADDGF106991999999999999999999
0035228920999991914051320004+60717+028783FM-12+000399999V0200701N002119999999N0000001N9+00781+99999101261ADDGF108991999999999999999999MW1621
0046228920999991914051406004+60717+028783FM-12+000399999V0203401N002119999999N0000001N9+00781+99999100841ADDAJ100009199999999GF108991999999999999999999
0029228920999991914051413004+60717+028783FM-12+000399999V0203401N004119999999N0000001N9+00891+99999100991ADDGF108991999999999999999999
0029228920999991914051420004+60717+028783FM-12+000399999V0209991C000019999999N0000001N9+00891+99999101391ADDGF108991999999999999999999
0046228920999991914051506004+60717+028783FM-12+000399999V0209991C000019999999N0000001N9+01001+99999102101ADDAJ100009199999999GF100991999999999999999999
0029228920999991914051513004+60717+028783FM-12+000399999V0202001N006219999999N0000001N9+01221+99999102381ADDGF103991999999999999999999
0029228920999991914051520004+60717+028783FM-12+000399999V0202001N004119999999N0000001N9+00831+99999102521ADDGF102991999999999999999999
0046228920999991914051606004+60717+028783FM-12+000399999V0202301N004119999999N0000001N9+00891+99999102831ADDAJ100009199999999GF102991999999999999999999
0029228920999991914051613004+60717+028783FM-12+000399999V0202501N006219999999N0000001N9+01221+99999102961ADDGF104991999999999999999999
0029228920999991914051620004+60717+028783FM-12+000399999V0209991C000019999999N0000001N9+00831+99999102981ADDGF107991999999999999999999
0046228920999991914051706004+60717+028783FM-12+000399999V0209991C000019999999N0000001N9+01331+99999102981ADDAJ100009199999999GF106991999999999999999999
0029228920999991914051713004+60717+028783FM-12+000399999V0209991C000019999999N0000001N9+01831+99999102791ADDGF102991999999999999999999
0029228920999991914051720004+60717+028783FM-12+000399999V0209991C000019999999N0000001N9+01111+99999102511ADDGF101991999999999999999999
0046228920999991914051806004+60717+028783FM-12+000399999V0209991C000019999999N0000001N9+01561+99999102311ADDAJ100009199999999GF100991999999999999999999
0029228920999991914051813004+60717+028783FM-12+000399999V0202001N004119999999N0000001N9+01781+99999102031ADDGF100991999999999999999999
0029228920999991914051820004+60717+028783FM-12+000399999V0202001N004119999999N0000001N9+01171+99999101711ADDGF102991999999999999999999
0046228920999991914051906004+60717+028783FM-12+000399999V0202001N006219999999N0000001N9+01171+99999101441ADDAJ100009199999999GF100991999999999999999999
0029228920999991914051913004+60717+028783FM-12+000399999V0202001N009819999999N0000001N9+01441+99999101031ADDGF106991999999999999999999
0029228920999991914051920004+60717+028783FM-12+000399999V0203401N009819999999N0000001N9+01391+99999100831ADDGF108991999999999999999999
0046228920999991914052006004+60717+028783FM-12+000399999V0202901N006219999999N0000001N9+01111+99999101221ADDAJ100009199999999GF100991999999999999999999
0029228920999991914052013004+60717+028783FM-12+000399999V0202701N009819999999N0000001N9+01501+99999101281ADDGF103991999999999999999999
0029228920999991914052020004+60717+028783FM-12+000399999V0209991C000019999999N0000001N9+01061+99999101441ADDGF101991999999999999999999
0046228920999991914052106004+60717+028783FM-12+000399999V0209991C000019999999N0000001N9+01061+99999101711ADDAJ100009199999999GF101991999999999999999999
0029228920999991914052113004+60717+028783FM-12+000399999V0203401N006219999999N0000001N9+01221+99999101801ADDGF106991999999999999999999
0029228920999991914052120004+60717+028783FM-12+000399999V0209991C000019999999N0000001N9+00891+99999102021ADDGF100991999999999999999999
0046228920999991914052206004+60717+028783FM-12+000399999V0209991C000019999999N0000001N9+01061+99999102341ADDAJ100009199999999GF100991999999999999999999
0029228920999991914052213004+60717+028783FM-12+000399999V0202301N006219999999N0000001N9+01331+99999102311ADDGF103991999999999999999999
0029228920999991914052220004+60717+028783FM-12+000399999V0201101N002119999999N0000001N9+01001+99999102261ADDGF108991999999999999999999
0046228920999991914052306004+60717+028783FM-12+000399999V0202301N002119999999N0000001N9+00891+99999102201ADDAJ100009199999999GF107991999999999999999999
0029228920999991914052313004+60717+028783FM-12+000399999V0202001N009819999999N0000001N9+01331+99999102181ADDGF103991999999999999999999
0029228920999991914052320004+60717+028783FM-12+000399999V0202001N004119999999N0000001N9+01171+99999101981ADDGF106991999999999999999999
0046228920999991914052406004+60717+028783FM-12+000399999V0201801N008219999999N0000001N9+01671+99999101601ADDAJ100009199999999GF100991999999999999999999
0029228920999991914052413004+60717+028783FM-12+000399999V0201801N011819999999N0000001N9+02111+99999101241ADDGF100991999999999999999999
0029228920999991914052420004+60717+028783FM-12+000399999V0202001N002119999999N0000001N9+01501+99999100941ADDGF107991999999999999999999
0046228920999991914052506004+60717+028783FM-12+000399999V0203401N004119999999N0000001N9+01061+99999101231ADDAJ100009199999999GF108991999999999999999999
0029228920999991914052513004+60717+028783FM-12+000399999V0203401N004119999999N0000001N9+01391+99999101841ADDGF104991999999999999999999
0029228920999991914052520004+60717+028783FM-12+000399999V0200201N002119999999N0000001N9+01111+99999102191ADDGF108991999999999999999999
0046228920999991914052606004+60717+028783FM-12+000399999V0200501N006219999999N0000001N9+00671+99999102081ADDAJ100009199999999GF108991999999999999999999
0029228920999991914052613004+60717+028783FM-12+000399999V0200701N004119999999N0000001N9+01831+99999101581ADDGF102991999999999999999999
0029228920999991914052620004+60717+028783FM-12+000399999V0202001N002119999999N0000001N9+01611+99999101341ADDGF108991999999999999999999
0046228920999991914052706004+60717+028783FM-12+000399999V0201801N002119999999N0000001N9+01171+99999101261ADDAJ100009199999999GF108991999999999999999999
0035228920999991914052713004+60717+028783FM-12+000399999V0203201N004119999999N0000001N9+01331+99999101041ADDGF108991999999999999999999MW1621
0029228920999991914052720004+60717+028783FM-12+000399999V0203401N002119999999N0000001N9+00781+99999101261ADDGF108991999999999999999999
0046228920999991914052806004+60717+028783FM-12+000399999V0203601N002119999999N0000001N9+00781+99999101351ADDAJ100009199999999GF108991999999999999999999
0029228920999991914052813004+60717+028783FM-12+000399999V0203401N002119999999N0000001N9+01281+99999101461ADDGF101991999999999999999999
0029228920999991914052820004+60717+028783FM-12+000399999V0203401N002119999999N0000001N9+00721+99999101861ADDGF100991999999999999999999
0046228920999991914052906004+60717+028783FM-12+000399999V0200201N004119999999N0000001N9+00781+99999102281ADDAJ100009199999999GF103991999999999999999999
0029228920999991914052913004+60717+028783FM-12+000399999V0200201N002119999999N0000001N9+01501+99999102231ADDGF103991999999999999999999
0029228920999991914052920004+60717+028783FM-12+000399999V0202301N002119999999N0000001N9+01061+99999102201ADDGF104991999999999999999999
0046228920999991914053006004+60717+028783FM-12+000399999V0203601N002119999999N0000001N9+01171+99999102181ADDAJ100009199999999GF100991999999999999999999
0029228920999991914053013004+60717+028783FM-12+000399999V0202001N004119999999N0000001N9+01391+99999101941ADDGF103991999999999999999999
0029228920999991914053020004+60717+028783FM-12+000399999V0209991C000019999999N0000001N9+01061+99999101741ADDGF103991999999999999999999
0046228920999991914053106004+60717+028783FM-12+000399999V0202301N002119999999N0000001N9+01171+99999101631ADDAJ100009199999999GF100991999999999999999999
0029228920999991914053113004+60717+028783FM-12+000399999V0202301N004119999999N0000001N9+01561+99999101521ADDGF100991999999999999999999
0029228920999991914053120004+60717+028783FM-12+000399999V0209991C000019999999N0000001N9+01111+99999101301ADDGF100991999999999999999999
0046228920999991914060106004+60717+028783FM-12+000399999V0202301N002119999999N0000001N9+01501+99999101241ADDAJ100009199999999GF100991999999999999999999
0029228920999991914060113004+60717+028783FM-12+000399999V0202501N004119999999N0000001N9+01781+99999101111ADDGF100991999999999999999999
0029228920999991914060120004+60717+028783FM-12+000399999V0209991C000019999999N0000001N9+01441+99999100781ADDGF102991999999999999999999
0046228920999991914060206004+60717+028783FM-12+000399999V0201601N004119999999N0000001N9+01561+99999100351ADDAJ100009199999999GF100991999999999999999999
0029228920999991914060213004+60717+028783FM-12+000399999V0202501N002119999999N0000001N9+01831+99999100071ADDGF106991999999999999999999
0029228920999991914060220004+60717+028783FM-12+000399999V0201101N002119999999N0000001N9+01221+99999099761ADDGF108991999999999999999999
0046228920999991914060306004+60717+028783FM-12+000399999V0201601N004119999999N0000001N9+00941+99999099701ADDAJ100009199999999GF108991999999999999999999
0029228920999991914060313004+60717+028783FM-12+000399999V0202001N002119999999N0000001N9+01331+99999099801ADDGF105991999999999999999999
0029228920999991914060320004+60717+028783FM-12+000399999V0201401N002119999999N0000001N9+01061+99999099901ADDGF108991999999999999999999
0046228920999991914060406004+60717+028783FM-12+000399999V0201601N002119999999N0000001N9+00891+99999100021ADDAJ100009199999999GF108991999999999999999999
0029228920999991914060413004+60717+028783FM-12+000399999V0209991C000019999999N0000001N9+01171+99999099921ADDGF108991999999999999999999
0035228920999991914060420004+60717+028783FM-12+000399999V0202901N004119999999N0000001N9+00831+99999099361ADDGF108991999999999999999999MW1621
0046228920999991914060506004+60717+028783FM-12+000399999V0201601N004119999999N0000001N9+00941+99999099061ADDAJ100009199999999GF107991999999999999999999
0029228920999991914060513004+60717+028783FM-12+000399999V0202001N006219999999N0000001N9+01061+99999099301ADDGF106991999999999999999999
0029228920999991914060520004+60717+028783FM-12+000399999V0202001N006219999999N0000001N9+00941+99999099801ADDGF101991999999999999999999
0046228920999991914060606004+60717+028783FM-12+000399999V0201601N002119999999N0000001N9+01221+99999100311ADDAJ100009199999999GF101991999999999999999999
0029228920999991914060613004+60717+028783FM-12+000399999V0209991C000019999999N0000001N9+01441+99999100431ADDGF108991999999999999999999
0035228920999991914060620004+60717+028783FM-12+000399999V0203601N002119999999N0000001N9+00941+99999100481ADDGF108991999999999999999999MW1621
0046228920999991914060706004+60717+028783FM-12+000399999V0209991C000019999999N0000001N9+01001+99999100441ADDAJ100009199999999GF108991999999999999999999
0029228920999991914060713004+60717+028783FM-12+000399999V0209991C000019999999N0000001N9+01171+99999100581ADDGF108991999999999999999999
0029228920999991914060720004+60717+028783FM-12+000399999V0202501N002119999999N0000001N9+01061+99999100981ADDGF101991999999999999999999
0046228920999991914060806004+60717+028783FM-12+000399999V0209991C000019999999N0000001N9+01331+99999101501ADDAJ100009199999999GF100991999999999999999999
0029228920999991914060813004+60717+028783FM-12+000399999V0203401N004119999999N0000001N9+01561+99999101721ADDGF100991999999999999999999
0029228920999991914060820004+60717+028783FM-12+000399999V0209991C000019999999N0000001N9+01171+99999101941ADDGF101991999999999999999999
0046228920999991914060906004+60717+028783FM-12+000399999V0203601N002119999999N0000001N9+01331+99999102261ADDAJ100009199999999GF101991999999999999999999
0029228920999991914060913004+60717+028783FM-12+000399999V0200201N002119999999N0000001N9+01721+99999102361ADDGF104991999999999999999999
0029228920999991914060920004+60717+028783FM-12+000399999V0200901N002119999999N0000001N9+01281+99999102521ADDGF100991999999999999999999
0046228920999991914061006004+60717+028783FM-12+000399999V0201101N002119999999N0000001N9+01391+99999102991ADDAJ100009199999999GF100991999999999999999999
0029228920999991914061013004+60717+028783FM-12+000399999V0200901N002119999999N0000001N9+01891+99999102911ADDGF100991999999999999999999
0029228920999991914061020004+60717+028783FM-12+000399999V0209991C000019999999N0000001N9+01561+99999102871ADDGF100991999999999999999999
0046228920999991914061106004+60717+028783FM-12+000399999V0209991C000019999999N0000001N9+01391+99999103061ADDAJ100009199999999GF100991999999999999999999
0029228920999991914061113004+60717+028783FM-12+000399999V0202301N004119999999N0000001N9+02001+99999102911ADDGF100991999999999999999999
0029228920999991914061120004+60717+028783FM-12+000399999V0209991C000019999999N0000001N9+01561+99999102701ADDGF100991999999999999999999
0046228920999991914061206004+60717+028783FM-12+000399999V0209991C000019999999N0000001N9+01671+99999102751ADDAJ100009199999999GF100991999999999999999999
0029228920999991914061213004+60717+028783FM-12+000399999V0202001N006219999999N0000001N9+01941+99999102481ADDGF100991999999999999999999
0029228920999991914061220004+60717+028783FM-12+000399999V0202001N004119999999N0000001N9+01611+99999102231ADDGF100991999999999999999999
0046228920999991914061306004+60717+028783FM-12+000399999V0202501N006219999999N0000001N9+01831+99999102001ADDAJ100009199999999GF100991999999999999999999
0029228920999991914061313004+60717+028783FM-12+000399999V0202001N009819999999N0000001N9+01941+99999101721ADDGF101991999999999999999999
0029228920999991914061320004+60717+028783FM-12+000399999V0202001N002119999999N0000001N9+01671+99999101521ADDGF104991999999999999999999
0046228920999991914061406004+60717+028783FM-12+000399999V0203401N004119999999N0000001N9+01501+99999101881ADDAJ100009199999999GF100991999999999999999999
0029228920999991914061413004+60717+028783FM-12+000399999V0203401N006219999999N0000001N9+01831+99999101951ADDGF100991999999999999999999
0029228920999991914061420004+60717+028783FM-12+000399999V0202001N002119999999N0000001N9+01501+99999101901ADDGF100991999999999999999999
0046228920999991914061506004+60717+028783FM-12+000399999V0202501N004119999999N0000001N9+01391+99999101831ADDAJ100009199999999GF108991999999999999999999
0029228920999991914061513004+60717+028783FM-12+000399999V0202301N004119999999N0000001N9+01721+99999101511ADDGF107991999999999999999999
0029228920999991914061520004+60717+028783FM-12+000399999V0202001N004119999999N0000001N9+01561+99999101031ADDGF107991999999999999999999
0046228920999991914061606004+60717+028783FM-12+000399999V0202901N008219999999N0000001N9+01611+99999100951ADDAJ100009199999999GF106991999999999999999999
0029228920999991914061613004+60717+028783FM-12+000399999V0203401N002119999999N0000001N9+01721+99999101071ADDGF108991999999999999999999
0029228920999991914061620004+60717+028783FM-12+000399999V0200201N002119999999N0000001N9+01391+99999101151ADDGF108991999999999999999999
0046228920999991914061706004+60717+028783FM-12+000399999V0200201N002119999999N0000001N9+01441+99999101461ADDAJ100009199999999GF100991999999999999999999
0029228920999991914061713004+60717+028783FM-12+000399999V0203601N002119999999N0000001N9+01721+99999101471ADDGF102991999999999999999999
0029228920999991914061720004+60717+028783FM-12+000399999V0209991C000019999999N0000001N9+01221+99999101401ADDGF100991999999999999999999
0046228920999991914061806004+60717+028783FM-12+000399999V0209991C000019999999N0000001N9+01391+99999101241ADDAJ100009199999999GF100991999999999999999999
0029228920999991914061813004+60717+028783FM-12+000399999V0202001N004119999999N0000001N9+01781+99999101101ADDGF107991999999999999999999
0029228920999991914061820004+60717+028783FM-12+000399999V0202501N006219999999N0000001N9+01501+99999101081ADDGF101991999999999999999999
0046228920999991914061906004+60717+028783FM-12+000399999V0203601N002119999999N0000001N9+01561+99999101601ADDAJ100009199999999GF100991999999999999999999
0029228920999991914061913004+60717+028783FM-12+000399999V0202001N004119999999N0000001N9+02061+99999101631ADDGF100991999999999999999999
0029228920999991914061920004+60717+028783FM-12+000399999V0209991C000019999999N0000001N9+01671+99999101751ADDGF100991999999999999999999
0046228920999991914062006004+60717+028783FM-12+000399999V0209991C000019999999N0000001N9+01671+99999102071ADDAJ100009199999999GF100991999999999999999999
0029228920999991914062013004+60717+028783FM-12+000399999V0202301N006219999999N0000001N9+02171+99999102061ADDGF100991999999999999999999
0029228920999991914062020004+60717+028783FM-12+000399999V0202501N004119999999N0000001N9+01781+99999101961ADDGF100991999999999999999999
0046228920999991914062106004+60717+028783FM-12+000399999V0209991C000019999999N0000001N9+01781+99999102061ADDAJ100009199999999GF100991999999999999999999
0029228920999991914062113004+60717+028783FM-12+000399999V0202001N006219999999N0000001N9+02331+99999102031ADDGF100991999999999999999999
0029228920999991914062120004+60717+028783FM-12+000399999V0202001N002119999999N0000001N9+01941+99999102031ADDGF100991999999999999999999
0046228920999991914062206004+60717+028783FM-12+000399999V0209991C000019999999N0000001N9+02001+99999102281ADDAJ100009199999999GF100991999999999999999999
0029228920999991914062213004+60717+028783FM-12+000399999V0202501N004119999999N0000001N9+02611+99999102271ADDGF100991999999999999999999
0029228920999991914062220004+60717+028783FM-12+000399999V0209991C000019999999N0000001N9+02001+99999102231ADDGF101991999999999999999999
0046228920999991914062306004+60717+028783FM-12+000399999V0209991C000019999999N0000001N9+02281+99999102311ADDAJ100009199999999GF102991999999999999999999
0029228920999991914062313004+60717+028783FM-12+000399999V0201601N002119999999N0000001N9+02501+99999102231ADDGF108991999999999999999999
0029228920999991914062320004+60717+028783FM-12+000399999V0209991C000019999999N0000001N9+02221+99999102121ADDGF100991999999999999999999
0046228920999991914062406004+60717+028783FM-12+000399999V0209991C000019999999N0000001N9+02501+99999102071ADDAJ100009199999999GF100991999999999999999999
0029228920999991914062413004+60717+028783FM-12+000399999V0202501N004119999999N0000001N9+02891+99999101941ADDGF101991999999999999999999
0029228920999991914062420004+60717+028783FM-12+000399999V0209991C000019999999N0000001N9+02281+99999101901ADDGF100991999999999999999999
0046228920999991914062506004+60717+028783FM-12+000399999V0201601N002119999999N0000001N9+02501+99999101831ADDAJ100009199999999GF100991999999999999999999
0029228920999991914062513004+60717+028783FM-12+000399999V0202301N006219999999N0000001N9+02611+99999101721ADDGF100991999999999999999999
0029228920999991914062520004+60717+028783FM-12+000399999V0202501N002119999999N0000001N9+02281+99999101721ADDGF101991999999999999999999
0046228920999991914062606004+60717+028783FM-12+000399999V0202301N004119999999N0000001N9+02171+99999101871ADDAJ100009199999999GF100991999999999999999999
0029228920999991914062613004+60717+028783FM-12+000399999V0202001N008219999999N0000001N9+02331+99999101861ADDGF100991999999999999999999
0029228920999991914062620004+60717+028783FM-12+000399999V0202001N006219999999N0000001N9+02061+99999101761ADDGF107991999999999999999999
0046228920999991914062706004+60717+028783FM-12+000399999V0202701N002119999999N0000001N9+01671+99999101761ADDAJ100009199999999GF108991999999999999999999
0029228920999991914062713004+60717+028783FM-12+000399999V0202301N008219999999N0000001N9+02171+99999101681ADDGF100991999999999999999999
0029228920999991914062720004+60717+028783FM-12+000399999V0202301N008219999999N0000001N9+01781+99999101511ADDGF101991999999999999999999
0046228920999991914062806004+60717+028783FM-12+000399999V0202001N006219999999N0000001N9+01721+99999101391ADDAJ100009199999999GF101991999999999999999999
0029228920999991914062813004+60717+028783FM-12+000399999V0202001N011819999999N0000001N9+02171+99999100981ADDGF107991999999999999999999
0029228920999991914062820004+60717+028783FM-12+000399999V0202501N006219999999N0000001N9+01501+99999100821ADDGF106991999999999999999999
0046228920999991914062906004+60717+028783FM-12+000399999V0202001N006219999999N0000001N9+01561+99999100601ADDAJ100009199999999GF102991999999999999999999
0029228920999991914062913004+60717+028783FM-12+000399999V0202001N008219999999N0000001N9+01781+99999100601ADDGF101991999999999999999999
0029228920999991914062920004+60717+028783FM-12+000399999V0202301N006219999999N0000001N9+01501+99999100621ADDGF100991999999999999999999
0046228920999991914063006004+60717+028783FM-12+000399999V0202501N004119999999N0000001N9+01391+99999100801ADDAJ100009199999999GF108991999999999999999999
0029228920999991914063013004+60717+028783FM-12+000399999V0202001N004119999999N0000001N9+01671+99999101021ADDGF108991999999999999999999
0029228920999991914063020004+60717+028783FM-12+000399999V0202001N002119999999N0000001N9+01561+99999101151ADDGF102991999999999999999999
0046228920999991914070106004+60717+028783FM-12+000399999V0209991C000019999999N0000001N9+01781+99999101541ADDAJ100009199999999GF100991999999999999999999
0029228920999991914070113004+60717+028783FM-12+000399999V0202001N008219999999N0000001N9+01941+99999101671ADDGF100991999999999999999999
0029228920999991914070120004+60717+028783FM-12+000399999V0202001N002119999999N0000001N9+01501+99999101791ADDGF100991999999999999999999
0046228920999991914070206004+60717+028783FM-12+000399999V0202301N004119999999N0000001N9+01941+99999102061ADDAJ100009199999999GF100991999999999999999999
0029228920999991914070213004+60717+028783FM-12+000399999V0202001N006219999999N0000001N9+02111+99999102181ADDGF100991999999999999999999
0029228920999991914070220004+60717+028783FM-12+000399999V0202001N002119999999N0000001N9+01941+99999102311ADDGF102991999999999999999999
0046228920999991914070306004+60717+028783FM-12+000399999V0209991C000019999999N0000001N9+02281+99999102591ADDAJ100009199999999GF100991999999999999999999
0029228920999991914070313004+60717+028783FM-12+000399999V0200901N006219999999N0000001N9+02721+99999102511ADDGF100991999999999999999999
0029228920999991914070320004+60717+028783FM-12+000399999V0200701N002119999999N0000001N9+02061+99999102401ADDGF100991999999999999999999
0046228920999991914070406004+60717+028783FM-12+000399999V0200701N002119999999N0000001N9+02331+99999102461ADDAJ100009199999999GF100991999999999999999999
0029228920999991914070413004+60717+028783FM-12+000399999V0200701N004119999999N0000001N9+03001+99999102271ADDGF100991999999999999999999
0029228920999991914070420004+60717+028783FM-12+000399999V0209991C000019999999N0000001N9+02281+99999102151ADDGF100991999999999999999999
0046228920999991914070506004+60717+028783FM-12+000399999V0200701N002119999999N0000001N9+02171+99999102261ADDAJ100009199999999GF100991999999999999999999
0029228920999991914070520004+60717+028783FM-12+000399999V0200701N002119999999N0000001N9+02221+99999102111ADDGF100991999999999999999999
0046228920999991914070606004+60717+028783FM-12+000399999V0200901N002119999999N0000001N9+02221+99999102321ADDAJ100009199999999GF100991999999999999999999
0029228920999991914070613004+60717+028783FM-12+000399999V0201101N004119999999N0000001N9+02781+99999102281ADDGF100991999999999999999999
0029228920999991914070620004+60717+028783FM-12+000399999V0209991C000019999999N0000001N9+01941+99999102311ADDGF100991999999999999999999
0046228920999991914070706004+60717+028783FM-12+000399999V0209991C000019999999N0000001N9+02111+99999102391ADDAJ100009199999999GF100991999999999999999999
0029228920999991914070713004+60717+028783FM-12+000399999V0200701N002119999999N0000001N9+03221+99999102161ADDGF102991999999999999999999
0029228920999991914070720004+60717+028783FM-12+000399999V0209991C000019999999N0000001N9+02281+99999102121ADDGF101991999999999999999999
0046228920999991914070806004+60717+028783FM-12+000399999V0209991C000019999999N0000001N9+02441+99999102161ADDAJ100009199999999GF100991999999999999999999
0029228920999991914070813004+60717+028783FM-12+000399999V0200701N002119999999N0000001N9+03331+99999102081ADDGF100991999999999999999999
0029228920999991914070820004+60717+028783FM-12+000399999V0209991C000019999999N0000001N9+02501+99999102121ADDGF100991999999999999999999
0046228920999991914070906004+60717+028783FM-12+000399999V0209991C000019999999N0000001N9+02501+99999102301ADDAJ100009199999999GF100991999999999999999999
0029228920999991914070913004+60717+028783FM-12+000399999V0202301N004119999999N0000001N9+03171+99999102201ADDGF102991999999999999999999
0029228920999991914070920004+60717+028783FM-12+000399999V0209991C000019999999N0000001N9+02221+99999102111ADDGF100991999999999999999999
0046228920999991914071006004+60717+028783FM-12+000399999V0209991C000019999999N0000001N9+02501+99999102071ADDAJ100009199999999GF100991999999999999999999
0029228920999991914071013004+60717+028783FM-12+000399999V0202001N004119999999N0000001N9+02891+99999101881ADDGF102991999999999999999999
0029228920999991914071020004+60717+028783FM-12+000399999V0209991C000019999999N0000001N9+02331+99999101871ADDGF105991999999999999999999
0046228920999991914071106004+60717+028783FM-12+000399999V0209991C000019999999N0000001N9+02331+99999101861ADDAJ100009199999999GF100991999999999999999999
0029228920999991914071113004+60717+028783FM-12+000399999V0202001N004119999999N0000001N9+02891+99999101761ADDGF102991999999999999999999
0029228920999991914071120004+60717+028783FM-12+000399999V0200701N002119999999N0000001N9+02061+99999101781ADDGF104991999999999999999999
0046228920999991914071206004+60717+028783FM-12+000399999V0203401N004119999999N0000001N9+02111+99999101791ADDAJ100009199999999GF108991999999999999999999
0029228920999991914071213004+60717+028783FM-12+000399999V0202301N004119999999N0000001N9+02941+99999101701ADDGF101991999999999999999999
0029228920999991914071220004+60717+028783FM-12+000399999V0201101N002119999999N0000001N9+02391+99999101701ADDGF107991999999999999999999
0046228920999991914071306004+60717+028783FM-12+000399999V0209991C000019999999N0000001N9+02221+99999101671ADDAJ100009199999999GF100991999999999999999999
0029228920999991914071313004+60717+028783FM-12+000399999V0202001N004119999999N0000001N9+02781+99999101551ADDGF101991999999999999999999
0029228920999991914071320004+60717+028783FM-12+000399999V0209991C000019999999N0000001N9+02171+99999101461ADDGF101991999999999999999999
0046228920999991914071406004+60717+028783FM-12+000399999V0202701N002119999999N0000001N9+02171+99999101301ADDAJ100009199999999GF108991999999999999999999
0029228920999991914071413004+60717+028783FM-12+000399999V0202901N002119999999N0000001N9+02671+99999101181ADDGF108991999999999999999999
0029228920999991914071420004+60717+028783FM-12+000399999V0209991C000019999999N0000001N9+01781+99999101271ADDGF101991999999999999999999
0046228920999991914071506004+60717+028783FM-12+000399999V0209991C000019999999N0000001N9+02061+99999101631ADDAJ100009199999999GF100991999999999999999999
0029228920999991914071513004+60717+028783FM-12+000399999V0200701N004119999999N0000001N9+02171+99999101661ADDGF107991999999999999999999
0029228920999991914071520004+60717+028783FM-12+000399999V0201601N002119999999N0000001N9+01781+99999101721ADDGF101991999999999999999999
0046228920999991914071606004+60717+028783FM-12+000399999V0201601N002119999999N0000001N9+01831+99999102021ADDAJ100009199999999GF100991999999999999999999
0029228920999991914071613004+60717+028783FM-12+000399999V0202001N008219999999N0000001N9+02171+99999101961ADDGF100991999999999999999999
0029228920999991914071620004+60717+028783FM-12+000399999V0202001N004119999999N0000001N9+01941+99999101681ADDGF103991999999999999999999
0046228920999991914071706004+60717+028783FM-12+000399999V0202701N004119999999N0000001N9+02111+99999101501ADDAJ100009199999999GF108991999999999999999999
0029228920999991914071713004+60717+028783FM-12+000399999V0202001N008219999999N0000001N9+02331+99999101141ADDGF100991999999999999999999
0029228920999991914071720004+60717+028783FM-12+000399999V0200901N004119999999N0000001N9+01781+99999100941ADDGF106991999999999999999999
0046228920999991914071806004+60717+028783FM-12+000399999V0200701N002119999999N0000001N9+01721+99999101081ADDAJ100009199999999GF108991999999999999999999
0029228920999991914071813004+60717+028783FM-12+000399999V0201101N002119999999N0000001N9+01941+99999101341ADDGF102991999999999999999999
0029228920999991914071820004+60717+028783FM-12+000399999V0201101N002119999999N0000001N9+01611+99999101401ADDGF107991999999999999999999
0046228920999991914071906004+60717+028783FM-12+000399999V0201601N002119999999N0000001N9+01501+99999101471ADDAJ100009199999999GF108991999999999999999999
0029228920999991914071913004+60717+028783FM-12+000399999V0202301N004119999999N0000001N9+02281+99999101341ADDGF102991999999999999999999
0029228920999991914071920004+60717+028783FM-12+000399999V0202001N002119999999N0000001N9+01831+99999101161ADDGF108991999999999999999999
0046228920999991914072006004+60717+028783FM-12+000399999V0209991C000019999999N0000001N9+02111+99999101061ADDAJ100009199999999GF108991999999999999999999
0029228920999991914072013004+60717+028783FM-12+000399999V0202301N004119999999N0000001N9+02391+99999100951ADDGF102991999999999999999999
0035228920999991914072020004+60717+028783FM-12+000399999V0201101N004119999999N0000001N9+01831+99999100991ADDGF108991999999999999999999MW1621
0046228920999991914072106004+60717+028783FM-12+000399999V0202001N004119999999N0000001N9+02001+99999100671ADDAJ100009199999999GF102991999999999999999999
0029228920999991914072113004+60717+028783FM-12+000399999V0202501N006219999999N0000001N9+02781+99999100481ADDGF104991999999999999999999
0029228920999991914072120004+60717+028783FM-12+000399999V0202901N002119999999N0000001N9+01941+99999100721ADDGF101991999999999999999999
0046228920999991914072206004+60717+028783FM-12+000399999V0200901N002119999999N0000001N9+01831+99999101041ADDAJ100009199999999GF100991999999999999999999
0029228920999991914072213004+60717+028783FM-12+000399999V0202001N004119999999N0000001N9+02171+99999101021ADDGF104991999999999999999999
0029228920999991914072220004+60717+028783FM-12+000399999V0209991C000019999999N0000001N9+01941+99999100831ADDGF100991999999999999999999
0046228920999991914072306004+60717+028783FM-12+000399999V0202001N004119999999N0000001N9+02061+99999100591ADDAJ100009199999999GF100991999999999999999999
0029228920999991914072313004+60717+028783FM-12+000399999V0202301N002119999999N0000001N9+02831+99999100441ADDGF100991999999999999999999
0029228920999991914072320004+60717+028783FM-12+000399999V0201601N002119999999N0000001N9+02221+99999100221ADDGF101991999999999999999999
0046228920999991914072406004+60717+028783FM-12+000399999V0201401N002119999999N0000001N9+02391+99999999999ADDAJ100009199999999GF100991999999999999999999
0029228920999991914072413004+60717+028783FM-12+000399999V0201601N006219999999N0000001N9+03171+99999099741ADDGF102991999999999999999999
0029228920999991914072420004+60717+028783FM-12+000399999V0201401N004119999999N0000001N9+02561+99999099621ADDGF100991999999999999999999
0046228920999991914072506004+60717+028783FM-12+000399999V0201401N002119999999N0000001N9+02391+99999099461ADDAJ100009199999999GF102991999999999999999999
0029228920999991914072513004+60717+028783FM-12+000399999V0201601N002119999999N0000001N9+02281+99999099501ADDGF106991999999999999999999
0029228920999991914072520004+60717+028783FM-12+000399999V0202301N004119999999N0000001N9+02111+99999099761ADDGF106991999999999999999999
0046228920999991914072606004+60717+028783FM-12+000399999V0209991C000019999999N0000001N9+01831+99999099841ADDAJ100009199999999GF108991999999999999999999
0029228920999991914072613004+60717+028783FM-12+000399999V0202501N002119999999N0000001N9+02061+99999099951ADDGF108991999999999999999999
0029228920999991914072620004+60717+028783FM-12+000399999V0209991C000019999999N0000001N9+01941+99999100021ADDGF107991999999999999999999
0046228920999991914072706004+60717+028783FM-12+000399999V0209991C000019999999N0000001N9+01671+99999100121ADDAJ100009199999999GF104991999999999999999999
0029228920999991914072713004+60717+028783FM-12+000399999V0202301N002119999999N0000001N9+02001+99999100141ADDGF107991999999999999999999
0029228920999991914072720004+60717+028783FM-12+000399999V0209991C000019999999N0000001N9+01781+99999100071ADDGF101991999999999999999999
0046228920999991914072806004+60717+028783FM-12+000399999V0209991C000019999999N0000001N9+01831+99999099821ADDAJ100009199999999GF108991999999999999999999
0029228920999991914072813004+60717+028783FM-12+000399999V0202501N006219999999N0000001N9+01831+99999099901ADDGF106991999999999999999999
0029228920999991914072820004+60717+028783FM-12+000399999V0209991C000019999999N0000001N9+01611+99999100151ADDGF103991999999999999999999
0046228920999991914072906004+60717+028783FM-12+000399999V0209991C000019999999N0000001N9+01611+99999100301ADDAJ100009199999999GF105991999999999999999999
0029228920999991914072913004+60717+028783FM-12+000399999V0202501N004119999999N0000001N9+02111+99999100461ADDGF102991999999999999999999
0029228920999991914072920004+60717+028783FM-12+000399999V0202301N002119999999N0000001N9+01721+99999100421ADDGF100991999999999999999999
0046228920999991914073006004+60717+028783FM-12+000399999V0209991C000019999999N0000001N9+01721+99999100521ADDAJ100009199999999GF100991999999999999999999
0029228920999991914073013004+60717+028783FM-12+000399999V0203401N004119999999N0000001N9+02281+99999100421ADDGF102991999999999999999999
0029228920999991914073020004+60717+028783FM-12+000399999V0203401N004119999999N0000001N9+01671+99999100281ADDGF100991999999999999999999
0046228920999991914073106004+60717+028783FM-12+000399999V0203401N004119999999N0000001N9+01391+99999100141ADDAJ100009199999999GF108991999999999999999999
0029228920999991914073113004+60717+028783FM-12+000399999V0203401N004119999999N0000001N9+01611+99999100241ADDGF108991999999999999999999
0029228920999991914073120004+60717+028783FM-12+000399999V0203201N002119999999N0000001N9+01331+99999100351ADDGF102991999999999999999999
0046228920999991914080106004+60717+028783FM-12+000399999V0202701N006219999999N0000001N9+01281+99999100281ADDAJ100009199999999GF108991999999999999999999
0029228920999991914080113004+60717+028783FM-12+000399999V0202501N004119999999N0000001N9+01671+99999100401ADDGF106991999999999999999999
0029228920999991914080120004+60717+028783FM-12+000399999V0209991C000019999999N0000001N9+01501+99999100821ADDGF102991999999999999999999
0046228920999991914080206004+60717+028783FM-12+000399999V0200501N002119999999N0000001N9+01501+99999100981ADDAJ100009199999999GF104991999999999999999999
0029228920999991914080213004+60717+028783FM-12+000399999V0209991C000019999999N0000001N9+01781+99999101111ADDGF106991999999999999999999
0029228920999991914080220004+60717+028783FM-12+000399999V0209991C000019999999N0000001N9+01501+99999101341ADDGF108991999999999999999999
0046228920999991914080306004+60717+028783FM-12+000399999V0209991C000019999999N0000001N9+01781+99999101361ADDAJ100009199999999GF108991999999999999999999
0029228920999991914080313004+60717+028783FM-12+000399999V0209991C000019999999N0000001N9+01441+99999101381ADDGF108991999999999999999999
0029228920999991914080320004+60717+028783FM-12+000399999V0203601N002119999999N0000001N9+01391+99999101321ADDGF108991999999999999999999
0046228920999991914080406004+60717+028783FM-12+000399999V0203601N002119999999N0000001N9+01111+99999101241ADDAJ100009199999999GF108991999999999999999999
0029228920999991914080413004+60717+028783FM-12+000399999V0203401N002119999999N0000001N9+01441+99999101101ADDGF108991999999999999999999
0029228920999991914080420004+60717+028783FM-12+000399999V0209991C000019999999N0000001N9+01441+99999101021ADDGF104991999999999999999999
0046228920999991914080506004+60717+028783FM-12+000399999V0203401N002119999999N0000001N9+01331+99999100671ADDAJ100009199999999GF108991999999999999999999
0035228920999991914080513004+60717+028783FM-12+000399999V0209991C000019999999N0000001N9+01501+99999100501ADDGF108991999999999999999999MW1601
0029228920999991914080520004+60717+028783FM-12+000399999V0209991C000019999999N0000001N9+01331+99999100311ADDGF108991999999999999999999
0046228920999991914080606004+60717+028783FM-12+000399999V0209991C000019999999N0000001N9+01391+99999100071ADDAJ100009199999999GF108991999999999999999999
0035228920999991914080613004+60717+028783FM-12+000399999V0201401N002119999999N0000001N9+01561+99999100121ADDGF108991999999999999999999MW1621
0029228920999991914080620004+60717+028783FM-12+000399999V0209991C000019999999N0000001N9+01501+99999100181ADDGF108991999999999999999999
0046228920999991914080706004+60717+028783FM-12+000399999V0209991C000019999999N0000001N9+01441+99999100361ADDAJ100009199999999GF108991999999999999999999
0029228920999991914080713004+60717+028783FM-12+000399999V0202001N004119999999N0000001N9+02061+99999100441ADDGF106991999999999999999999
0029228920999991914080720004+60717+028783FM-12+000399999V0209991C000019999999N0000001N9+01721+99999100561ADDGF108991999999999999999999
0046228920999991914080806004+60717+028783FM-12+000399999V0202701N002119999999N0000001N9+01721+99999100761ADDAJ100009199999999GF100991999999999999999999
0029228920999991914080813004+60717+028783FM-12+000399999V0202001N006219999999N0000001N9+02331+99999100821ADDGF102991999999999999999999
0029228920999991914080820004+60717+028783FM-12+000399999V0202501N004119999999N0000001N9+01781+99999100981ADDGF102991999999999999999999
0046228920999991914080906004+60717+028783FM-12+000399999V0202501N002119999999N0000001N9+01561+99999101161ADDAJ100009199999999GF102991999999999999999999
0029228920999991914080913004+60717+028783FM-12+000399999V0202001N008219999999N0000001N9+02111+99999101241ADDGF103991999999999999999999
0029228920999991914080920004+60717+028783FM-12+000399999V0209991C000019999999N0000001N9+01721+99999101431ADDGF101991999999999999999999
0046228920999991914081006004+60717+028783FM-12+000399999V0202501N004119999999N0000001N9+01721+99999101711ADDAJ100009199999999GF100991999999999999999999
0029228920999991914081013004+60717+028783FM-12+000399999V0202001N004119999999N0000001N9+01891+99999101781ADDGF108991999999999999999999
0029228920999991914081020004+60717+028783FM-12+000399999V0202001N002119999999N0000001N9+01781+99999101681ADDGF106991999999999999999999
0046228920999991914081106004+60717+028783FM-12+000399999V0202001N002119999999N0000001N9+01611+99999101751ADDAJ100009199999999GF108991999999999999999999
0029228920999991914081113004+60717+028783FM-12+000399999V0202001N008219999999N0000001N9+02061+99999101621ADDGF101991999999999999999999
0035228920999991914081120004+60717+028783FM-12+000399999V0202001N004119999999N0000001N9+01721+99999101381ADDGF108991999999999999999999MW1621
0046228920999991914081206004+60717+028783FM-12+000399999V0202701N002119999999N0000001N9+01611+99999100861ADDAJ100009199999999GF107991999999999999999999
0035228920999991914081213004+60717+028783FM-12+000399999V0202001N006219999999N0000001N9+01611+99999100621ADDGF108991999999999999999999MW1621
0029228920999991914081220004+60717+028783FM-12+000399999V0202701N006219999999N0000001N9+01391+99999100441ADDGF102991999999999999999999
0046228920999991914081306004+60717+028783FM-12+000399999V0202901N004119999999N0000001N9+01441+99999100281ADDAJ100009199999999GF108991999999999999999999
0035228920999991914081313004+60717+028783FM-12+000399999V0202901N004119999999N0000001N9+01391+99999100181ADDGF108991999999999999999999MW1621
0029228920999991914081320004+60717+028783FM-12+000399999V0202901N004119999999N0000001N9+01171+99999100111ADDGF108991999999999999999999
0046228920999991914081406004+60717+028783FM-12+000399999V0202901N002119999999N0000001N9+01061+99999099951ADDAJ100009199999999GF108991999999999999999999
0029228920999991914081413004+60717+028783FM-12+000399999V0203201N002119999999N0000001N9+01501+99999099961ADDGF108991999999999999999999
0029228920999991914081420004+60717+028783FM-12+000399999V0203401N006219999999N0000001N9+01501+99999099901ADDGF108991999999999999999999
0046228920999991914081506004+60717+028783FM-12+000399999V0203601N004119999999N0000001N9+01171+99999099961ADDAJ100009199999999GF108991999999999999999999
0035228920999991914081513004+60717+028783FM-12+000399999V0203401N006219999999N0000001N9+01171+99999100161ADDGF108991999999999999999999MW1621
0029228920999991914081520004+60717+028783FM-12+000399999V0203401N006219999999N0000001N9+01111+99999100321ADDGF108991999999999999999999
0046228920999991914081606004+60717+028783FM-12+000399999V0203401N004119999999N0000001N9+01111+99999100461ADDAJ100009199999999GF108991999999999999999999
0029228920999991914081613004+60717+028783FM-12+000399999V0203401N006219999999N0000001N9+01391+99999100631ADDGF108991999999999999999999
0029228920999991914081620004+60717+028783FM-12+000399999V0203201N002119999999N0000001N9+01171+99999100761ADDGF108991999999999999999999
0046228920999991914081706004+60717+028783FM-12+000399999V0209991C000019999999N0000001N9+01111+99999100871ADDAJ100009199999999GF108991999999999999999999
0029228920999991914081713004+60717+028783FM-12+000399999V0209991C000019999999N0000001N9+01391+99999100981ADDGF108991999999999999999999
0029228920999991914081720004+60717+028783FM-12+000399999V0209991C000019999999N0000001N9+01281+99999100991ADDGF108991999999999999999999
0046228920999991914081806004+60717+028783FM-12+000399999V0203601N002119999999N0000001N9+01171+99999101071ADDAJ100009199999999GF108991999999999999999999
0029228920999991914081813004+60717+028783FM-12+000399999V0209991C000019999999N0000001N9+01501+99999101101ADDGF106991999999999999999999
0029228920999991914081820004+60717+028783FM-12+000399999V0209991C000019999999N0000001N9+01171+99999101061ADDGF108991999999999999999999
0046228920999991914081906004+60717+028783FM-12+000399999V0202301N006219999999N0000001N9+01331+99999100551ADDAJ100009199999999GF108991999999999999999999
0035228920999991914081913004+60717+028783FM-12+000399999V0202701N002119999999N0000001N9+01171+99999100361ADDGF108991999999999999999999MW1621
0035228920999991914081920004+60717+028783FM-12+000399999V0202901N002119999999N0000001N9+01001+99999100501ADDGF108991999999999999999999MW1621
0046228920999991914082006004+60717+028783FM-12+000399999V0202901N006219999999N0000001N9+00941+99999100701ADDAJ100009199999999GF108991999999999999999999
0029228920999991914082013004+60717+028783FM-12+000399999V0203201N008219999999N0000001N9+01111+99999101081ADDGF108991999999999999999999
0029228920999991914082020004+60717+028783FM-12+000399999V0203401N004119999999N0000001N9+00781+99999101341ADDGF100991999999999999999999
0046228920999991914082106004+60717+028783FM-12+000399999V0203201N004119999999N0000001N9+00831+99999101471ADDAJ100009199999999GF100991999999999999999999
0029228920999991914082113004+60717+028783FM-12+000399999V0203201N004119999999N0000001N9+01111+99999101471ADDGF107991999999999999999999
0029228920999991914082120004+60717+028783FM-12+000399999V0209991C000019999999N0000001N9+00941+99999101481ADDGF101991999999999999999999
0046228920999991914082206004+60717+028783FM-12+000399999V0202901N002119999999N0000001N9+00781+99999101401ADDAJ100009199999999GF107991999999999999999999
0029228920999991914082213004+60717+028783FM-12+000399999V0202001N006219999999N0000001N9+01611+99999101161ADDGF103991999999999999999999
0029228920999991914082220004+60717+028783FM-12+000399999V0209991C000019999999N0000001N9+01061+99999101241ADDGF107991999999999999999999
0046228920999991914082306004+60717+028783FM-12+000399999V0209991C000019999999N0000001N9+01111+99999101481ADDAJ100009199999999GF100991999999999999999999
0029228920999991914082313004+60717+028783FM-12+000399999V0203401N006219999999N0000001N9+01611+99999101581ADDGF100991999999999999999999
0029228920999991914082320004+60717+028783FM-12+000399999V0209991C000019999999N0000001N9+00941+99999101701ADDGF101991999999999999999999
0046228920999991914082406004+60717+028783FM-12+000399999V0209991C000019999999N0000001N9+01171+99999101821ADDAJ100009199999999GF100991999999999999999999
0029228920999991914082413004+60717+028783FM-12+000399999V0202001N004119999999N0000001N9+01671+99999101751ADDGF106991999999999999999999
0029228920999991914082420004+60717+028783FM-12+000399999V0209991C000019999999N0000001N9+01331+99999101641ADDGF108991999999999999999999
0046228920999991914082506004+60717+028783FM-12+000399999V0203401N002119999999N0000001N9+01171+99999101441ADDAJ100009199999999GF100991999999999999999999
0029228920999991914082513004+60717+028783FM-12+000399999V0203201N002119999999N0000001N9+01671+99999101511ADDGF102991999999999999999999
0029228920999991914082520004+60717+028783FM-12+000399999V0209991C000019999999N0000001N9+00941+99999101521ADDGF100991999999999999999999
0046228920999991914082606004+60717+028783FM-12+000399999V0209991C000019999999N0000001N9+00891+99999101421ADDAJ100009199999999GF108991999999999999999999
0029228920999991914082613004+60717+028783FM-12+000399999V0209991C000019999999N0000001N9+01501+99999101421ADDGF108991999999999999999999
0029228920999991914082620004+60717+028783FM-12+000399999V0209991C000019999999N0000001N9+01061+99999101561ADDGF108991999999999999999999
0046228920999991914082706004+60717+028783FM-12+000399999V0209991C000019999999N0000001N9+01061+99999101861ADDAJ100009199999999GF108991999999999999999999
0029228920999991914082713004+60717+028783FM-12+000399999V0209991C000019999999N0000001N9+01891+99999102031ADDGF103991999999999999999999
0029228920999991914082720004+60717+028783FM-12+000399999V0209991C000019999999N0000001N9+01221+99999102201ADDGF100991999999999999999999
0046228920999991914082806004+60717+028783FM-12+000399999V0209991C000019999999N0000001N9+01221+99999102381ADDAJ100009199999999GF100991999999999999999999
0029228920999991914082813004+60717+028783FM-12+000399999V0203401N004119999999N0000001N9+01831+99999102271ADDGF107991999999999999999999
0029228920999991914082820004+60717+028783FM-12+000399999V0209991C000019999999N0000001N9+01171+99999102161ADDGF100991999999999999999999
0046228920999991914082906004+60717+028783FM-12+000399999V0209991C000019999999N0000001N9+01221+99999102241ADDAJ100009199999999GF100991999999999999999999
