0029228920999991910010106004+60717+028783FM-12+000399999V0202001N004119999999N0000001N9-00671+99999102601ADDGF108991999999999999999999
0029228920999991910010113004+60717+028783FM-12+000399999V0202301N006219999999N0000001N9-00441+99999102521ADDGF108991999999999999999999
0029228920999991910010120004+60717+028783FM-12+000399999V0202301N004119999999N0000001N9-00441+99999101841ADDGF108991999999999999999999
0029228920999991910010206004+60717+028783FM-12+000399999V0202301N013919999999N0000001N9-00061+99999100871ADDGF108991999999999999999999
0029228920999991910010213004+60717+028783FM-12+000399999V0202301N009819999999N0000001N9+00111+99999100581ADDGF108991999999999999999999
0029228920999991910010220004+60717+028783FM-12+000399999V0202301N009819999999N0000001N9+00111+99999099901ADDGF108991999999999999999999
0035228920999991910010306004+60717+028783FM-12+000399999V0202301N002119999999N0000001N9+00061+99999098281ADDGF108991999999999999999999MW1621
0029228920999991910010313004+60717+028783FM-12+000399999V0203401N008219999999N0000001N9+00111+99999099141ADDGF108991999999999999999999
0029228920999991910010320004+60717+028783FM-12+000399999V0203201N002119999999N0000001N9-00281+99999999999ADDGF100991999999999999999999
0035228920999991910010406004+60717+028783FM-12+000399999V0201401N004119999999N0000001N9+00001+99999098721ADDGF108991999999999999999999MW1721
0035228920999991910010413004+60717+028783FM-12+000399999V0201401N004119999999N0000001N9+00061+99999097911ADDGF108991999999999999999999MW1721
0035228920999991910010420004+60717+028783FM-12+000399999V0200201N002119999999N0000001N9-00171+99999098761ADDGF108991999999999999999999MW1721
0029228920999991910010506004+60717+028783FM-12+000399999V0203201N004119999999N0000001N9-00561+99999100181ADDGF108991999999999999999999
0029228920999991910010513004+60717+028783FM-12+000399999V0200501N004119999999N0000001N9-00831+99999101231ADDGF108991999999999999999999
0035228920999991910010520004+60717+028783FM-12+000399999V0203201N002119999999N0000001N9-01061+99999101861ADDGF108991999999999999999999MW1721
0029228920999991910010606004+60717+028783FM-12+000399999V0200501N002119999999N0000001N9-01441+99999102741ADDGF108991999999999999999999
0029228920999991910010613004+60717+028783FM-12+000399999V0209991C000019999999N0000001N9-01441+99999103141ADDGF108991999999999999999999
0029228920999991910010620004+60717+028783FM-12+000399999V0201401N002119999999N0000001N9-01941+99999103341ADDGF100991999999999999999999
0035228920999991910010706004+60717+028783FM-12+000399999V0201601N004119999999N0000001N9-01111+99999102311ADDGF108991999999999999999999MW1721
0035228920999991910010713004+60717+028783FM-12+000399999V0201401N002119999999N0000001N9-00671+99999102061ADDGF108991999999999999999999MW1721
0035228920999991910010720004+60717+028783FM-12+000399999V0209991C000019999999N0000001N9-00611+99999102001ADDGF106991999999999999999999MW1721
0035228920999991910010806004+60717+028783FM-12+000399999V0201401N002119999999N0000001N9-00501+99999101981ADDGF108991999999999999999999MW1721
0035228920999991910010813004+60717+028783FM-12+000399999V0202001N002119999999N0000001N9-00171+99999101961ADDGF108991999999999999999999MW1721
0035228920999991910010820004+60717+028783FM-12+000399999V0201401N006219999999N0000001N9-00221+99999101791ADDGF108991999999999999999999MW1721
0035228920999991910010906004+60717+028783FM-12+000399999V0201601N006219999999N0000001N9-00171+99999101551ADDGF108991999999999999999999MW1721
0035228920999991910010913004+60717+028783FM-12+000399999V0201801N006219999999N0000001N9-00061+99999101421ADDGF107991999999999999999999MW1721
0035228920999991910010920004+60717+028783FM-12+000399999V0202301N002119999999N0000001N9-00111+99999101121ADDGF108991999999999999999999MW1721
0035228920999991910011006004+60717+028783FM-12+000399999V0202301N013919999999N0000001N9+00111+99999100441ADDGF108991999999999999999999MW1621
0035228920999991910011013004+60717+028783FM-12+000399999V0202301N011819999999N0000001N9+00171+99999099801ADDGF108991999999999999999999MW1621
0035228920999991910011020004+60717+028783FM-12+000399999V0202301N009819999999N0000001N9+00171+99999099471ADDGF108991999999999999999999MW1621
0035228920999991910011106004+60717+028783FM-12+000399999V0202301N008219999999N0000001N9+00171+99999099421ADDGF108991999999999999999999MW1621
0029228920999991910011113004+60717+028783FM-12+000399999V0202301N009819999999N0000001N9+00221+99999099671ADDGF107991999999999999999999
0029228920999991910011120004+60717+028783FM-12+000399999V0202701N004119999999N0000001N9+00111+99999098991ADDGF108991999999999999999999
0035228920999991910011206004+60717+028783FM-12+000399999V0201601N002119999999N0000001N9+00111+99999098881ADDGF108991999999999999999999MW1721
0029228920999991910011213004+60717+028783FM-12+000399999V0202301N008219999999N0000001N9+00171+99999098551ADDGF108991999999999999999999
0029228920999991910011220004+60717+028783FM-12+000399999V0202301N013919999999N0000001N9+00111+99999098631ADDGF105991999999999999999999
0029228920999991910011306004+60717+028783FM-12+000399999V0209991C000019999999N0000001N9-00221+99999098881ADDGF107991999999999999999999
0029228920999991910011313004+60717+028783FM-12+000399999V0202301N004119999999N0000001N9-00561+99999099261ADDGF108991999999999999999999
0029228920999991910011320004+60717+028783FM-12+000399999V0202701N002119999999N0000001N9-00171+99999099661ADDGF108991999999999999999999
0029228920999991910011406004+60717+028783FM-12+000399999V0202701N004119999999N0000001N9-00331+99999100391ADDGF103991999999999999999999
0029228920999991910011413004+60717+028783FM-12+000399999V0202701N004119999999N0000001N9-00281+99999100821ADDGF108991999999999999999999
0029228920999991910011420004+60717+028783FM-12+000399999V0209991C000019999999N0000001N9-00111+99999100831ADDGF108991999999999999999999
0029228920999991910011506004+60717+028783FM-12+000399999V0200501N006219999999N0000001N9-00221+99999100041ADDGF108991999999999999999999
0035228920999991910011513004+60717+028783FM-12+000399999V0201401N004119999999N0000001N9-00221+99999099671ADDGF108991999999999999999999MW1721
0035228920999991910011520004+60717+028783FM-12+000399999V0201801N002119999999N0000001N9+00001+99999099641ADDGF108991999999999999999999MW1721
0029228920999991910011606004+60717+028783FM-12+000399999V0203201N002119999999N0000001N9-00281+99999099961ADDGF108991999999999999999999
0029228920999991910011613004+60717+028783FM-12+000399999V0202701N006219999999N0000001N9-00441+99999100351ADDGF107991999999999999999999
0029228920999991910011620004+60717+028783FM-12+000399999V0202701N002119999999N0000001N9-00501+99999100511ADDGF108991999999999999999999
0035228920999991910011706004+60717+028783FM-12+000399999V0200501N004119999999N0000001N9-00171+99999100111ADDGF108991999999999999999999MW1721
0035228920999991910011713004+60717+028783FM-12+000399999V0201401N004119999999N0000001N9+00001+99999099311ADDGF108991999999999999999999MW1721
0029228920999991910011720004+60717+028783FM-12+000399999V0202301N011819999999N0000001N9+00171+99999098841ADDGF108991999999999999999999
0029228920999991910011806004+60717+028783FM-12+000399999V0202301N011819999999N0000001N9+00111+99999098511ADDGF108991999999999999999999
0029228920999991910011813004+60717+028783FM-12+000399999V0202301N008219999999N0000001N9+00111+99999098501ADDGF108991999999999999999999
0029228920999991910011820004+60717+028783FM-12+000399999V0202501N008219999999N0000001N9+00061+99999098581ADDGF108991999999999999999999
0035228920999991910011906004+60717+028783FM-12+000399999V0201801N002119999999N0000001N9+00061+99999098461ADDGF108991999999999999999999MW1721
0035228920999991910011913004+60717+028783FM-12+000399999V0201601N002119999999N0000001N9+00061+99999098481ADDGF108991999999999999999999MW1721
0035228920999991910011920004+60717+028783FM-12+000399999V0209991C000019999999N0000001N9-00061+99999098631ADDGF108991999999999999999999MW1721
0029228920999991910012006004+60717+028783FM-12+000399999V0200501N004119999999N0000001N9-00331+99999098911ADDGF108991999999999999999999
0029228920999991910012013004+60717+028783FM-12+000399999V0200501N002119999999N0000001N9-00561+99999099201ADDGF108991999999999999999999
0029228920999991910012020004+60717+028783FM-12+000399999V0200701N004119999999N0000001N9-01281+99999099421ADDGF108991999999999999999999
0029228920999991910012106004+60717+028783FM-12+000399999V0203401N004119999999N0000001N9-01001+99999099561ADDGF108991999999999999999999
0035228920999991910012113004+60717+028783FM-12+000399999V0203401N004119999999N0000001N9-01111+99999099751ADDGF108991999999999999999999MW1721
0029228920999991910012120004+60717+028783FM-12+000399999V0200201N002119999999N0000001N9-01561+99999100041ADDGF100991999999999999999999
0029228920999991910012206004+60717+028783FM-12+000399999V0209991C000019999999N0000001N9-01611+99999100541ADDGF108991999999999999999999
0029228920999991910012213004+60717+028783FM-12+000399999V0209991C000019999999N0000001N9-01671+99999101031ADDGF108991999999999999999999
0029228920999991910012220004+60717+028783FM-12+000399999V0203401N002119999999N0000001N9-02281+99999101471ADDGF100991999999999999999999
0029228920999991910012306004+60717+028783FM-12+000399999V0209991C000019999999N0000001N9-02611+99999101751ADDGF100991999999999999999999
0029228920999991910012313004+60717+028783FM-12+000399999V0200701N002119999999N0000001N9-02061+99999101911ADDGF102991999999999999999999
0029228920999991910012320004+60717+028783FM-12+000399999V0209991C000019999999N0000001N9-01891+99999101901ADDGF108991999999999999999999
0029228920999991910012406004+60717+028783FM-12+000399999V0200501N002119999999N0000001N9-01391+99999101471ADDGF108991999999999999999999
0035228920999991910012413004+60717+028783FM-12+000399999V0200501N006219999999N0000001N9-01221+99999100981ADDGF108991999999999999999999MW1701
0035228920999991910012420004+60717+028783FM-12+000399999V0200501N006219999999N0000001N9-01441+99999100501ADDGF108991999999999999999999MW1701
0035228920999991910012506004+60717+028783FM-12+000399999V0200501N002119999999N0000001N9-01441+99999099951ADDGF108991999999999999999999MW1721
0035228920999991910012513004+60717+028783FM-12+000399999V0209991C000019999999N0000001N9-01331+99999099791ADDGF108991999999999999999999MW1721
0029228920999991910012520004+60717+028783FM-12+000399999V0209991C000019999999N0000001N9-01831+99999100041ADDGF108991999999999999999999
0029228920999991910012606004+60717+028783FM-12+000399999V0201401N002119999999N0000001N9-01391+99999100271ADDGF108991999999999999999999
0029228920999991910012613004+60717+028783FM-12+000399999V0209991C000019999999N0000001N9-01171+99999100221ADDGF108991999999999999999999
0035228920999991910012620004+60717+028783FM-12+000399999V0201401N008219999999N0000001N9-00941+99999100021ADDGF108991999999999999999999MW1721
0029228920999991910012706004+60717+028783FM-12+000399999V0201401N004119999999N0000001N9-00221+99999100021ADDGF108991999999999999999999
0035228920999991910012713004+60717+028783FM-12+000399999V0200901N004119999999N0000001N9-00111+99999099961ADDGF108991999999999999999999MW1701
0035228920999991910012720004+60717+028783FM-12+000399999V0201401N004119999999N0000001N9+00001+99999099741ADDGF108991999999999999999999MW1741
0035228920999991910012806004+60717+028783FM-12+000399999V0201401N002119999999N0000001N9-00171+99999099841ADDGF108991999999999999999999MW1721
0029228920999991910012813004+60717+028783FM-12+000399999V0202301N002119999999N0000001N9-00281+99999100681ADDGF108991999999999999999999
0035228920999991910012820004+60717+028783FM-12+000399999V0201401N002119999999N0000001N9-00501+99999101081ADDGF108991999999999999999999MW1701
0029228920999991910012906004+60717+028783FM-12+000399999V0201801N004119999999N0000001N9-00441+99999101511ADDGF108991999999999999999999
0029228920999991910012913004+60717+028783FM-12+000399999V0201401N004119999999N0000001N9-00441+99999101791ADDGF108991999999999999999999
0029228920999991910012920004+60717+028783FM-12+000399999V0201401N008219999999N0000001N9-00331+99999101681ADDGF106991999999999999999999
0029228920999991910013006004+60717+028783FM-12+000399999V0201401N006219999999N0000001N9-00221+99999101141ADDGF108991999999999999999999
0035228920999991910013013004+60717+028783FM-12+000399999V0201401N004119999999N0000001N9+00001+99999100721ADDGF108991999999999999999999MW1721
0029228920999991910013020004+60717+028783FM-12+000399999V0201401N011819999999N0000001N9+00001+99999100441ADDGF107991999999999999999999
0029228920999991910013106004+60717+028783FM-12+000399999V0201801N009819999999N0000001N9-00111+99999100391ADDGF108991999999999999999999
0029228920999991910013113004+60717+028783FM-12+000399999V0201801N009819999999N0000001N9-00061+99999100351ADDGF108991999999999999999999
0029228920999991910013120004+60717+028783FM-12+000399999V0202301N011819999999N0000001N9-00061+99999100641ADDGF107991999999999999999999
0035228920999991910020106004+60717+028783FM-12+000399999V0202301N006219999999N0000001N9-00171+99999100991ADDGF108991999999999999999999MW1721
0029228920999991910020113004+60717+028783FM-12+000399999V0203201N002119999999N0000001N9-00501+99999101561ADDGF108991999999999999999999
0029228920999991910020120004+60717+028783FM-12+000399999V0202301N004119999999N0000001N9-00441+99999101881ADDGF108991999999999999999999
0035228920999991910020206004+60717+028783FM-12+000399999V0202301N009819999999N0000001N9-00171+99999101761ADDGF108991999999999999999999MW1721
0029228920999991910020213004+60717+028783FM-12+000399999V0202301N009819999999N0000001N9+00001+99999101961ADDGF108991999999999999999999
0035228920999991910020220004+60717+028783FM-12+000399999V0202301N008219999999N0000001N9-00171+99999102181ADDGF108991999999999999999999MW1721
0029228920999991910020306004+60717+028783FM-12+000399999V0201601N008219999999N0000001N9-00561+99999102381ADDGF108991999999999999999999
0000228920999991910020313004+60717+028783FM-12+000399999V02099999999999999999N0000001N9-00501+99999102361
0029228920999991910020320004+60717+028783FM-12+000399999V0201401N002119999999N0000001N9-00721+99999102351ADDGF108991999999999999999999
0029228920999991910020406004+60717+028783FM-12+000399999V0201401N004119999999N0000001N9-00721+99999102151ADDGF108991999999999999999999
0029228920999991910020413004+60717+028783FM-12+000399999V0201401N002119999999N0000001N9-00561+99999102021ADDGF108991999999999999999999
0029228920999991910020420004+60717+028783FM-12+000399999V0201401N002119999999N0000001N9-00721+99999101961ADDGF108991999999999999999999
0035228920999991910020506004+60717+028783FM-12+000399999V0201601N004119999999N0000001N9-00561+99999101761ADDGF108991999999999999999999MW1721
0035228920999991910020513004+60717+028783FM-12+000399999V0201601N004119999999N0000001N9-00281+99999101751ADDGF108991999999999999999999MW1721
0029228920999991910020520004+60717+028783FM-12+000399999V0202001N008219999999N0000001N9+00001+99999101391ADDGF108991999999999999999999
0029228920999991910020606004+60717+028783FM-12+000399999V0202301N009819999999N0000001N9+00001+99999100801ADDGF108991999999999999999999
0035228920999991910020613004+60717+028783FM-12+000399999V0202001N013919999999N0000001N9+00061+99999099941ADDGF108991999999999999999999MW1721
0035228920999991910020620004+60717+028783FM-12+000399999V0202301N013919999999N0000001N9+00061+99999099701ADDGF108991999999999999999999MW1721
0029228920999991910020706004+60717+028783FM-12+000399999V0201801N009819999999N0000001N9+00061+99999099401ADDGF108991999999999999999999
0035228920999991910020713004+60717+028783FM-12+000399999V0202301N008219999999N0000001N9+00061+99999098761ADDGF108991999999999999999999MW1721
0035228920999991910020720004+60717+028783FM-12+000399999V0202301N009819999999N0000001N9+00061+99999098361ADDGF108991999999999999999999MW1721
0029228920999991910020806004+60717+028783FM-12+000399999V0202501N006219999999N0000001N9-00111+99999099041ADDGF108991999999999999999999
0029228920999991910020813004+60717+028783FM-12+000399999V0201401N004119999999N0000001N9+00111+99999098951ADDGF108991999999999999999999
0035228920999991910020820004+60717+028783FM-12+000399999V0201801N004119999999N0000001N9+00061+99999098431ADDGF108991999999999999999999MW1721
0035228920999991910020906004+60717+028783FM-12+000399999V0202301N013919999999N0000001N9+00061+99999098561ADDGF108991999999999999999999MW1721
0000228920999991910020913004+60717+028783FM-12+000399999V02099999999999999999N0000001N9+00171+99999099241
0000228920999991910020920004+60717+028783FM-12+000399999V02099999999999999999N0000001N9-00171+99999099681
0000228920999991910021006004+60717+028783FM-12+000399999V02099999999999999999N0000001N9-00441+99999100361
0029228920999991910021013004+60717+028783FM-12+000399999V0203201N004119999999N0000001N9-00501+99999101621ADDGF108991999999999999999999
0029228920999991910021020004+60717+028783FM-12+000399999V0203401N002119999999N0000001N9-00671+99999101941ADDGF108991999999999999999999
0029228920999991910021106004+60717+028783FM-12+000399999V0202701N004119999999N0000001N9-00441+99999102421ADDGF108991999999999999999999
0029228920999991910021113004+60717+028783FM-12+000399999V0203401N004119999999N0000001N9-00171+99999102471ADDGF108991999999999999999999
0029228920999991910021120004+60717+028783FM-12+000399999V0202001N006219999999N0000001N9-00221+99999102391ADDGF108991999999999999999999
0029228920999991910021206004+60717+028783FM-12+000399999V0201601N006219999999N0000001N9-00391+99999102391ADDGF108991999999999999999999
0029228920999991910021213004+60717+028783FM-12+000399999V0202301N004119999999N0000001N9-00221+99999102461ADDGF108991999999999999999999
0029228920999991910021220004+60717+028783FM-12+000399999V0201801N004119999999N0000001N9-00441+99999102391ADDGF108991999999999999999999
0029228920999991910021306004+60717+028783FM-12+000399999V0201601N004119999999N0000001N9-00391+99999102551ADDGF108991999999999999999999
0029228920999991910021313004+60717+028783FM-12+000399999V0202001N006219999999N0000001N9-00221+99999102551ADDGF108991999999999999999999
0029228920999991910021320004+60717+028783FM-12+000399999V0202301N006219999999N0000001N9-00111+99999102551ADDGF108991999999999999999999
0035228920999991910021406004+60717+028783FM-12+000399999V0202301N006219999999N0000001N9-00061+99999102671ADDGF108991999999999999999999MW1721
0029228920999991910021413004+60717+028783FM-12+000399999V0202301N004119999999N0000001N9-00171+99999102741ADDGF108991999999999999999999
0029228920999991910021420004+60717+028783FM-12+000399999V0200501N004119999999N0000001N9-00171+99999102801ADDGF108991999999999999999999
0029228920999991910021506004+60717+028783FM-12+000399999V0200501N004119999999N0000001N9-00891+99999102421ADDGF108991999999999999999999
0029228920999991910021513004+60717+028783FM-12+000399999V0200501N002119999999N0000001N9-00611+99999101961ADDGF100991999999999999999999
0029228920999991910021520004+60717+028783FM-12+000399999V0200501N002119999999N0000001N9-01331+99999101561ADDGF106991999999999999999999
0029228920999991910021606004+60717+028783FM-12+000399999V0200501N002119999999N0000001N9-01391+99999101431ADDGF100991999999999999999999
0029228920999991910021613004+60717+028783FM-12+000399999V0200501N004119999999N0000001N9-00831+99999101481ADDGF108991999999999999999999
0035228920999991910021620004+60717+028783FM-12+000399999V0201401N004119999999N0000001N9-00611+99999101591ADDGF108991999999999999999999MW1721
0035228920999991910021706004+60717+028783FM-12+000399999V0200501N002119999999N0000001N9-00501+99999101721ADDGF108991999999999999999999MW1721
0029228920999991910021713004+60717+028783FM-12+000399999V0203601N006219999999N0000001N9-00331+99999101831ADDGF108991999999999999999999
0029228920999991910021720004+60717+028783FM-12+000399999V0200501N002119999999N0000001N9-00281+99999101821ADDGF108991999999999999999999
0029228920999991910021806004+60717+028783FM-12+000399999V0200501N009819999999N0000001N9-00111+99999101391ADDGF108991999999999999999999
0035228920999991910021813004+60717+028783FM-12+000399999V0202301N009819999999N0000001N9+00111+99999100991ADDGF108991999999999999999999MW1721
0029228920999991910021820004+60717+028783FM-12+000399999V0202301N008219999999N0000001N9-00171+99999101111ADDGF108991999999999999999999
0029228920999991910021906004+60717+028783FM-12+000399999V0202301N006219999999N0000001N9+00171+99999101071ADDGF108991999999999999999999
0035228920999991910021913004+60717+028783FM-12+000399999V0202001N006219999999N0000001N9+00061+99999101221ADDGF108991999999999999999999MW1721
0035228920999991910021920004+60717+028783FM-12+000399999V0202301N004119999999N0000001N9+00061+99999101601ADDGF108991999999999999999999MW1721
0029228920999991910022006004+60717+028783FM-12+000399999V0202301N004119999999N0000001N9+00171+99999102311ADDGF108991999999999999999999
0029228920999991910022013004+60717+028783FM-12+000399999V0202001N004119999999N0000001N9+00171+99999102521ADDGF108991999999999999999999
0029228920999991910022020004+60717+028783FM-12+000399999V0201801N004119999999N0000001N9-00061+99999102521ADDGF108991999999999999999999
0029228920999991910022106004+60717+028783FM-12+000399999V0200501N006219999999N0000001N9+00001+99999102471ADDGF108991999999999999999999
0029228920999991910022113004+60717+028783FM-12+000399999V0201401N004119999999N0000001N9-00061+99999102271ADDGF108991999999999999999999
0029228920999991910022120004+60717+028783FM-12+000399999V0201601N008219999999N0000001N9-00221+99999102061ADDGF108991999999999999999999
0029228920999991910022206004+60717+028783FM-12+000399999V0201401N004119999999N0000001N9-00281+99999102201ADDGF108991999999999999999999
0029228920999991910022213004+60717+028783FM-12+000399999V0201401N004119999999N0000001N9-00221+99999102161ADDGF108991999999999999999999
0029228920999991910022220004+60717+028783FM-12+000399999V0201401N006219999999N0000001N9-00501+99999101951ADDGF108991999999999999999999
0035228920999991910022306004+60717+028783FM-12+000399999V0201401N004119999999N0000001N9-00501+99999101801ADDGF108991999999999999999999MW1721
0029228920999991910022313004+60717+028783FM-12+000399999V0200501N002119999999N0000001N9-00281+99999101711ADDGF108991999999999999999999
0029228920999991910022320004+60717+028783FM-12+000399999V0201101N002119999999N0000001N9-00331+99999101421ADDGF108991999999999999999999
0035228920999991910022406004+60717+028783FM-12+000399999V0202301N004119999999N0000001N9+00171+99999100901ADDGF108991999999999999999999MW1621
0029228920999991910022413004+60717+028783FM-12+000399999V0201801N002119999999N0000001N9+00171+99999101031ADDGF108991999999999999999999
0035228920999991910022420004+60717+028783FM-12+000399999V0200701N002119999999N0000001N9+00061+99999100631ADDGF108991999999999999999999MW1721
0029228920999991910022506004+60717+028783FM-12+000399999V0209991C000019999999N0000001N9+00001+99999100311ADDGF108991999999999999999999
0035228920999991910022513004+60717+028783FM-12+000399999V0202301N004119999999N0000001N9+00171+99999100381ADDGF108991999999999999999999MW1721
0035228920999991910022520004+60717+028783FM-12+000399999V0202301N004119999999N0000001N9+00001+99999100671ADDGF108991999999999999999999MW1721
0029228920999991910022606004+60717+028783FM-12+000399999V0201401N002119999999N0000001N9+00001+99999100741ADDGF108991999999999999999999
0029228920999991910022613004+60717+028783FM-12+000399999V0201601N002119999999N0000001N9+00171+99999100671ADDGF108991999999999999999999
0035228920999991910022620004+60717+028783FM-12+000399999V0201401N002119999999N0000001N9+00061+99999100601ADDGF108991999999999999999999MW1621
0035228920999991910022706004+60717+028783FM-12+000399999V0201801N004119999999N0000001N9+00171+99999100501ADDGF108991999999999999999999MW1621
0029228920999991910022713004+60717+028783FM-12+000399999V0201801N004119999999N0000001N9+00281+99999100961ADDGF108991999999999999999999
0035228920999991910022720004+60717+028783FM-12+000399999V0201801N006219999999N0000001N9+00171+99999101751ADDGF108991999999999999999999MW1621
0029228920999991910022806004+60717+028783FM-12+000399999V0201401N004119999999N0000001N9+00171+99999101921ADDGF108991999999999999999999
0029228920999991910022813004+60717+028783FM-12+000399999V0201401N004119999999N0000001N9+00221+99999102001ADDGF108991999999999999999999
0029228920999991910022820004+60717+028783FM-12+000399999V0201801N006219999999N0000001N9+00111+99999101941ADDGF108991999999999999999999
0029228920999991910030106004+60717+028783FM-12+000399999V0202301N004119999999N0000001N9+00171+99999102021ADDGF108991999999999999999999
0029228920999991910030113004+60717+028783FM-12+000399999V0202301N008219999999N0000001N9+00281+99999102081ADDGF108991999999999999999999
0029228920999991910030120004+60717+028783FM-12+000399999V0202301N008219999999N0000001N9+00111+99999102201ADDGF108991999999999999999999
0029228920999991910030206004+60717+028783FM-12+000399999V0209991C000019999999N0000001N9+00061+99999102441ADDGF108991999999999999999999
0029228920999991910030213004+60717+028783FM-12+000399999V0202301N004119999999N0000001N9+00001+99999102501ADDGF108991999999999999999999
0035228920999991910030220004+60717+028783FM-12+000399999V0202301N002119999999N0000001N9-00061+99999102751ADDGF108991999999999999999999MW1721
0029228920999991910030306004+60717+028783FM-12+000399999V0209991C000019999999N0000001N9+00061+99999102701ADDGF108991999999999999999999
0029228920999991910030313004+60717+028783FM-12+000399999V0202301N002119999999N0000001N9+00061+99999102641ADDGF108991999999999999999999
0035228920999991910030320004+60717+028783FM-12+000399999V0202501N002119999999N0000001N9+00171+99999102511ADDGF108991999999999999999999MW1721
0029228920999991910030406004+60717+028783FM-12+000399999V0202501N004119999999N0000001N9+00111+99999102301ADDGF108991999999999999999999
0029228920999991910030413004+60717+028783FM-12+000399999V0203201N004119999999N0000001N9+00501+99999102181ADDGF107991999999999999999999
0029228920999991910030420004+60717+028783FM-12+000399999V0203201N002119999999N0000001N9+00061+99999102241ADDGF100991999999999999999999
0029228920999991910030506004+60717+028783FM-12+000399999V0202501N002119999999N0000001N9+00061+99999102001ADDGF108991999999999999999999
0029228920999991910030513004+60717+028783FM-12+000399999V0203401N002119999999N0000001N9+00501+99999101981ADDGF106991999999999999999999
0029228920999991910030520004+60717+028783FM-12+000399999V0203401N002119999999N0000001N9+00221+99999102041ADDGF102991999999999999999999
0029228920999991910030606004+60717+028783FM-12+000399999V0200201N004119999999N0000001N9-00111+99999102481ADDGF100991999999999999999999
0029228920999991910030613004+60717+028783FM-12+000399999V0200901N006219999999N0000001N9+00111+99999102981ADDGF106991999999999999999999
0029228920999991910030620004+60717+028783FM-12+000399999V0209991C000019999999N0000001N9-00671+99999103301ADDGF100991999999999999999999
0029228920999991910030706004+60717+028783FM-12+000399999V0209991C000019999999N0000001N9-00891+99999103431ADDGF101991999999999999999999
0029228920999991910030713004+60717+028783FM-12+000399999V0202301N006219999999N0000001N9-00111+99999103351ADDGF106991999999999999999999
0029228920999991910030720004+60717+028783FM-12+000399999V0202301N004119999999N0000001N9-00331+99999103061ADDGF100991999999999999999999
0029228920999991910030806004+60717+028783FM-12+000399999V0202501N002119999999N0000001N9-00221+99999102831ADDGF108991999999999999999999
0029228920999991910030813004+60717+028783FM-12+000399999V0202301N004119999999N0000001N9+00001+99999102801ADDGF108991999999999999999999
0029228920999991910030820004+60717+028783FM-12+000399999V0202301N002119999999N0000001N9-00331+99999102591ADDGF100991999999999999999999
0029228920999991910030906004+60717+028783FM-12+000399999V0202701N004119999999N0000001N9-00111+99999102561ADDGF108991999999999999999999
0029228920999991910030913004+60717+028783FM-12+000399999V0202701N004119999999N0000001N9+00001+99999102511ADDGF108991999999999999999999
0029228920999991910030920004+60717+028783FM-12+000399999V0202701N004119999999N0000001N9+00001+99999102401ADDGF108991999999999999999999
0029228920999991910031006004+60717+028783FM-12+000399999V0202301N004119999999N0000001N9-00061+99999102271ADDGF108991999999999999999999
0029228920999991910031013004+60717+028783FM-12+000399999V0202301N006219999999N0000001N9+00781+99999102221ADDGF107991999999999999999999
0029228920999991910031020004+60717+028783FM-12+000399999V0202301N008219999999N0000001N9+00061+99999102031ADDGF100991999999999999999999
0029228920999991910031106004+60717+028783FM-12+000399999V0202301N004119999999N0000001N9-00061+99999101841ADDGF108991999999999999999999
0029228920999991910031113004+60717+028783FM-12+000399999V0202301N008219999999N0000001N9+00221+99999101231ADDGF108991999999999999999999
0029228920999991910031120004+60717+028783FM-12+000399999V0202301N006219999999N0000001N9+00111+99999100921ADDGF108991999999999999999999
0035228920999991910031206004+60717+028783FM-12+000399999V0202301N004119999999N0000001N9+00061+99999100601ADDGF108991999999999999999999MW1721
0029228920999991910031213004+60717+028783FM-12+000399999V0202301N006219999999N0000001N9+00221+99999100711ADDGF101991999999999999999999
0029228920999991910031220004+60717+028783FM-12+000399999V0202301N002119999999N0000001N9-00061+99999100961ADDGF108991999999999999999999
0029228920999991910031306004+60717+028783FM-12+000399999V0209991C000019999999N0000001N9+00001+99999101141ADDGF108991999999999999999999
0029228920999991910031313004+60717+028783FM-12+000399999V0200701N006219999999N0000001N9+00001+99999101521ADDGF106991999999999999999999
0029228920999991910031320004+60717+028783FM-12+000399999V0200901N002119999999N0000001N9-00221+99999101951ADDGF108991999999999999999999
0035228920999991910031406004+60717+028783FM-12+000399999V0201401N006219999999N0000001N9-00391+99999101521ADDGF108991999999999999999999MW1721
0035228920999991910031413004+60717+028783FM-12+000399999V0201401N008219999999N0000001N9-00111+99999101181ADDGF108991999999999999999999MW1721
0035228920999991910031420004+60717+028783FM-12+000399999V0201401N002119999999N0000001N9+00001+99999100841ADDGF108991999999999999999999MW1721
0029228920999991910031506004+60717+028783FM-12+000399999V0202001N004119999999N0000001N9-00061+99999100701ADDGF108991999999999999999999
0035228920999991910031513004+60717+028783FM-12+000399999V0202701N007219999999N0000001N9-00061+99999100721ADDGF108991999999999999999999MW1721
0029228920999991910031520004+60717+028783FM-12+000399999V0202701N006219999999N0000001N9-00171+99999100871ADDGF108991999999999999999999
0035228920999991910031606004+60717+028783FM-12+000399999V0202301N002119999999N0000001N9-00221+99999100801ADDGF108991999999999999999999MW1721
0029228920999991910031613004+60717+028783FM-12+000399999V0202301N008219999999N0000001N9+00061+99999100671ADDGF108991999999999999999999
0029228920999991910031620004+60717+028783FM-12+000399999V0202301N006219999999N0000001N9+00001+99999100511ADDGF108991999999999999999999
0035228920999991910031706004+60717+028783FM-12+000399999V0201401N004119999999N0000001N9+00061+99999099751ADDGF108991999999999999999999MW1721
0029228920999991910031713004+60717+028783FM-12+000399999V0202301N008219999999N0000001N9+00171+99999099401ADDGF108991999999999999999999
0035228920999991910031720004+60717+028783FM-12+000399999V0201401N002119999999N0000001N9+00061+99999099081ADDGF108991999999999999999999MW1721
0035228920999991910031806004+60717+028783FM-12+000399999V0202301N008219999999N0000001N9+00221+99999098511ADDGF108991999999999999999999MW1621
0029228920999991910031813004+60717+028783FM-12+000399999V0202301N006219999999N0000001N9+00111+99999098991ADDGF108991999999999999999999
0029228920999991910031820004+60717+028783FM-12+000399999V0202301N006219999999N0000001N9+00111+99999099501ADDGF108991999999999999999999
0029228920999991910031906004+60717+028783FM-12+000399999V0202301N006219999999N0000001N9+00171+99999100261ADDGF108991999999999999999999
0029228920999991910031913004+60717+028783FM-12+000399999V0202301N004119999999N0000001N9+00221+99999100381ADDGF108991999999999999999999
0029228920999991910031920004+60717+028783FM-12+000399999V0202301N004119999999N0000001N9-00061+99999100511ADDGF102991999999999999999999
0029228920999991910032006004+60717+028783FM-12+000399999V0209991C000019999999N0000001N9-00111+99999100631ADDGF108991999999999999999999
0029228920999991910032013004+60717+028783FM-12+000399999V0202301N002119999999N0000001N9+00331+99999100861ADDGF104991999999999999999999
0035228920999991910032020004+60717+028783FM-12+000399999V0202301N002119999999N0000001N9-00221+99999101161ADDGF108991999999999999999999MW1721
0029228920999991910032106004+60717+028783FM-12+000399999V0201801N002119999999N0000001N9+00111+99999101311ADDGF108991999999999999999999
0029228920999991910032113004+60717+028783FM-12+000399999V0202301N006219999999N0000001N9+00171+99999101121ADDGF108991999999999999999999
0029228920999991910032120004+60717+028783FM-12+000399999V0202001N008219999999N0000001N9+00171+99999100781ADDGF108991999999999999999999
0035228920999991910032206004+60717+028783FM-12+000399999V0202301N006219999999N0000001N9+00061+99999100271ADDGF108991999999999999999999MW1721
0035228920999991910032213004+60717+028783FM-12+000399999V0202301N002119999999N0000001N9+00171+99999100201ADDGF108991999999999999999999MW1721
0029228920999991910032220004+60717+028783FM-12+000399999V0202301N002119999999N0000001N9-00281+99999100241ADDGF100991999999999999999999
0029228920999991910032306004+60717+028783FM-12+000399999V0202301N002119999999N0000001N9-00331+99999100321ADDGF108991999999999999999999
0029228920999991910032313004+60717+028783FM-12+000399999V0203201N002119999999N0000001N9-00441+99999100561ADDGF107991999999999999999999
0029228920999991910032320004+60717+028783FM-12+000399999V0203601N002119999999N0000001N9-00331+99999100921ADDGF100991999999999999999999
0029228920999991910032406004+60717+028783FM-12+000399999V0203601N002119999999N0000001N9-00561+99999101081ADDGF100991999999999999999999
0029228920999991910032413004+60717+028783FM-12+000399999V0202301N008219999999N0000001N9+00221+99999100961ADDGF108991999999999999999999
0029228920999991910032420004+60717+028783FM-12+000399999V0202301N004119999999N0000001N9+00001+99999100621ADDGF108991999999999999999999
0029228920999991910032506004+60717+028783FM-12+000399999V0203201N006219999999N0000001N9+00111+99999100751ADDGF100991999999999999999999
0029228920999991910032513004+60717+028783FM-12+000399999V0203201N008219999999N0000001N9+00391+99999100841ADDGF100991999999999999999999
0029228920999991910032520004+60717+028783FM-12+000399999V0203201N008219999999N0000001N9+00001+99999100841ADDGF107991999999999999999999
0029228920999991910032606004+60717+028783FM-12+000399999V0203201N008219999999N0000001N9-00331+99999101181ADDGF100991999999999999999999
0029228920999991910032613004+60717+028783FM-12+000399999V0203601N006219999999N0000001N9+00061+99999101351ADDGF108991999999999999999999
0029228920999991910032620004+60717+028783FM-12+000399999V0203601N006219999999N0000001N9-00061+99999101401ADDGF108991999999999999999999
0029228920999991910032706004+60717+028783FM-12+000399999V0200501N006219999999N0000001N9-00171+99999101461ADDGF100991999999999999999999
0029228920999991910032713004+60717+028783FM-12+000399999V0203601N002119999999N0000001N9+00171+99999101471ADDGF100991999999999999999999
0029228920999991910032720004+60717+028783FM-12+000399999V0203601N002119999999N0000001N9-00171+99999101431ADDGF108991999999999999999999
0035228920999991910032806004+60717+028783FM-12+000399999V0200501N002119999999N0000001N9-00221+99999101321ADDGF108991999999999999999999MW1721
0035228920999991910032813004+60717+028783FM-12+000399999V0200201N004119999999N0000001N9-00111+99999101271ADDGF108991999999999999999999MW1721
0029228920999991910032820004+60717+028783FM-12+000399999V0203201N002119999999N0000001N9-00221+99999101441ADDGF108991999999999999999999
0035228920999991910032906004+60717+028783FM-12+000399999V0203601N002119999999N0000001N9-00111+99999101721ADDGF108991999999999999999999MW1721
0029228920999991910032913004+60717+028783FM-12+000399999V0200501N002119999999N0000001N9+00111+99999101941ADDGF100991999999999999999999
0029228920999991910032920004+60717+028783FM-12+000399999V0200501N002119999999N0000001N9-00281+99999102711ADDGF100991999999999999999999
0029228920999991910033006004+60717+028783FM-12+000399999V0200501N002119999999N0000001N9-00331+99999102981ADDGF100991999999999999999999
0029228920999991910033013004+60717+028783FM-12+000399999V0203601N002119999999N0000001N9+00391+99999103111ADDGF100991999999999999999999
0029228920999991910033020004+60717+028783FM-12+000399999V0200501N002119999999N0000001N9+00061+99999103121ADDGF100991999999999999999999
0029228920999991910033106004+60717+028783FM-12+000399999V0200201N002119999999N0000001N9+00001+99999103101ADDGF100991999999999999999999
0029228920999991910033113004+60717+028783FM-12+000399999V0203601N002119999999N0000001N9+00831+99999102911ADDGF100991999999999999999999
0029228920999991910033120004+60717+028783FM-12+000399999V0203201N002119999999N0000001N9+00331+99999102671ADDGF100991999999999999999999
0029228920999991910040106004+60717+028783FM-12+000399999V0203601N002119999999N0000001N9+00331+99999102561ADDGF100991999999999999999999
0029228920999991910040113004+60717+028783FM-12+000399999V0203601N004119999999N0000001N9+00611+99999102701ADDGF100991999999999999999999
0029228920999991910040120004+60717+028783FM-12+000399999V0203601N002119999999N0000001N9+00781+99999103261ADDGF100991999999999999999999
0029228920999991910040206004+60717+028783FM-12+000399999V0209991C000019999999N0000001N9-00221+99999103241ADDGF100991999999999999999999
0029228920999991910040213004+60717+028783FM-12+000399999V0209991C000019999999N0000001N9-00441+99999103101ADDGF100991999999999999999999
0029228920999991910040220004+60717+028783FM-12+000399999V0202301N002119999999N0000001N9-00171+99999102921ADDGF100991999999999999999999
0029228920999991910040306004+60717+028783FM-12+000399999V0209991C000019999999N0000001N9+00001+99999102871ADDGF100991999999999999999999
0029228920999991910040313004+60717+028783FM-12+000399999V0202301N006219999999N0000001N9+00391+99999102711ADDGF100991999999999999999999
0029228920999991910040320004+60717+028783FM-12+000399999V0209991C000019999999N0000001N9-00171+99999102311ADDGF100991999999999999999999
0029228920999991910040406004+60717+028783FM-12+000399999V0202301N002119999999N0000001N9+00171+99999101961ADDGF108991999999999999999999
0029228920999991910040413004+60717+028783FM-12+000399999V0202301N004119999999N0000001N9+00441+99999101711ADDGF108991999999999999999999
0029228920999991910040420004+60717+028783FM-12+000399999V0202301N002119999999N0000001N9+00111+99999101591ADDGF100991999999999999999999
0029228920999991910040506004+60717+028783FM-12+000399999V0200501N002119999999N0000001N9+00281+99999101801ADDGF106991999999999999999999
0029228920999991910040513004+60717+028783FM-12+000399999V0209991C000019999999N0000001N9+00561+99999102161ADDGF100991999999999999999999
0029228920999991910040520004+60717+028783FM-12+000399999V0209991C000019999999N0000001N9-00281+99999102341ADDGF100991999999999999999999
0029228920999991910040606004+60717+028783FM-12+000399999V0209991C000019999999N0000001N9-00171+99999102351ADDGF100991999999999999999999
0029228920999991910040613004+60717+028783FM-12+000399999V0202501N006219999999N0000001N9+00441+99999102101ADDGF100991999999999999999999
0029228920999991910040620004+60717+028783FM-12+000399999V0209991C000019999999N0000001N9-00441+99999101551ADDGF100991999999999999999999
0029228920999991910040706004+60717+028783FM-12+000399999V0202301N002119999999N0000001N9-00171+99999101081ADDGF100991999999999999999999
0029228920999991910040713004+60717+028783FM-12+000399999V0203401N002119999999N0000001N9+00671+99999101041ADDGF105991999999999999999999
0029228920999991910040720004+60717+028783FM-12+000399999V0209991C000019999999N0000001N9-00111+99999101151ADDGF100991999999999999999999
0029228920999991910040806004+60717+028783FM-12+000399999V0200201N002119999999N0000001N9-00171+99999101261ADDGF100991999999999999999999
0029228920999991910040813004+60717+028783FM-12+000399999V0202301N002119999999N0000001N9+00441+99999101071ADDGF100991999999999999999999
0029228920999991910040820004+60717+028783FM-12+000399999V0209991C000019999999N0000001N9-00111+99999100801ADDGF100991999999999999999999
0029228920999991910040906004+60717+028783FM-12+000399999V0202301N004119999999N0000001N9+00221+99999100261ADDGF101991999999999999999999
0029228920999991910040913004+60717+028783FM-12+000399999V0202301N006219999999N0000001N9+00501+99999100101ADDGF100991999999999999999999
0029228920999991910040920004+60717+028783FM-12+000399999V0202301N002119999999N0000001N9+00221+99999099901ADDGF108991999999999999999999
0035228920999991910041006004+60717+028783FM-12+000399999V0200501N002119999999N0000001N9-00061+99999100101ADDGF108991999999999999999999MW1721
0029228920999991910041013004+60717+028783FM-12+000399999V0203401N006219999999N0000001N9+00221+99999100631ADDGF108991999999999999999999
0029228920999991910041020004+60717+028783FM-12+000399999V0209991C000019999999N0000001N9-00281+99999101141ADDGF100991999999999999999999
0029228920999991910041106004+60717+028783FM-12+000399999V0200501N002119999999N0000001N9-00281+99999101621ADDGF108991999999999999999999
0029228920999991910041113004+60717+028783FM-12+000399999V0202301N002119999999N0000001N9+00061+99999101621ADDGF100991999999999999999999
0029228920999991910041120004+60717+028783FM-12+000399999V0201401N004119999999N0000001N9-00221+99999101231ADDGF100991999999999999999999
0029228920999991910041206004+60717+028783FM-12+000399999V0202301N009819999999N0000001N9+00171+99999100681ADDGF108991999999999999999999
0029228920999991910041213004+60717+028783FM-12+000399999V0202301N011819999999N0000001N9-00171+99999100741ADDGF108991999999999999999999
0029228920999991910041220004+60717+028783FM-12+000399999V0202301N002119999999N0000001N9+00111+99999100911ADDGF100991999999999999999999
0029228920999991910041306004+60717+028783FM-12+000399999V0202301N008219999999N0000001N9+00391+99999100951ADDGF103991999999999999999999
0029228920999991910041313004+60717+028783FM-12+000399999V0202301N004119999999N0000001N9+00721+99999100981ADDGF102991999999999999999999
0029228920999991910041320004+60717+028783FM-12+000399999V0209991C000019999999N0000001N9+00111+99999100941ADDGF101991999999999999999999
0029228920999991910041406004+60717+028783FM-12+000399999V0201601N004119999999N0000001N9+00671+99999100881ADDGF108991999999999999999999
0029228920999991910041413004+60717+028783FM-12+000399999V0209991C000019999999N0000001N9+01061+99999101021ADDGF108991999999999999999999
0029228920999991910041420004+60717+028783FM-12+000399999V0209991C000019999999N0000001N9+00501+99999101121ADDGF100991999999999999999999
0029228920999991910041506004+60717+028783FM-12+000399999V0201801N002119999999N0000001N9+00671+99999101231ADDGF108991999999999999999999
0029228920999991910041513004+60717+028783FM-12+000399999V0202701N002119999999N0000001N9+01221+99999101311ADDGF100991999999999999999999
0029228920999991910041520004+60717+028783FM-12+000399999V0209991C000019999999N0000001N9+00281+99999101401ADDGF100991999999999999999999
0029228920999991910041606004+60717+028783FM-12+000399999V0209991C000019999999N0000001N9+00671+99999101631ADDGF100991999999999999999999
0029228920999991910041613004+60717+028783FM-12+000399999V0201401N004119999999N0000001N9+01331+99999101751ADDGF105991999999999999999999
0029228920999991910041620004+60717+028783FM-12+000399999V0200901N002119999999N0000001N9+00441+99999101911ADDGF100991999999999999999999
0029228920999991910041706004+60717+028783FM-12+000399999V0201401N004119999999N0000001N9+00831+99999102021ADDGF100991999999999999999999
0029228920999991910041713004+60717+028783FM-12+000399999V0200901N004119999999N0000001N9+01391+99999102081ADDGF100991999999999999999999
0029228920999991910041720004+60717+028783FM-12+000399999V0200901N002119999999N0000001N9+00611+99999102221ADDGF100991999999999999999999
0029228920999991910041806004+60717+028783FM-12+000399999V0209991C000019999999N0000001N9+00671+99999102281ADDGF100991999999999999999999
0029228920999991910041813004+60717+028783FM-12+000399999V0200501N006219999999N0000001N9+01441+99999101981ADDGF100991999999999999999999
0029228920999991910041820004+60717+028783FM-12+000399999V0209991C000019999999N0000001N9+00501+99999101561ADDGF100991999999999999999999
0029228920999991910041906004+60717+028783FM-12+000399999V0209991C000019999999N0000001N9+00611+99999100941ADDGF100991999999999999999999
0029228920999991910041913004+60717+028783FM-12+000399999V0202701N002119999999N0000001N9+01111+99999100661ADDGF101991999999999999999999
0029228920999991910041920004+60717+028783FM-12+000399999V0201801N004119999999N0000001N9+00671+99999100101ADDGF108991999999999999999999
0035228920999991910042006004+60717+028783FM-12+000399999V0202301N006219999999N0000001N9+00671+99999099661ADDGF108991999999999999999999MW1621
0029228920999991910042013004+60717+028783FM-12+000399999V0202001N004119999999N0000001N9+00941+99999099791ADDGF108991999999999999999999
0029228920999991910042020004+60717+028783FM-12+000399999V0209991C000019999999N0000001N9+00501+99999099681ADDGF108991999999999999999999
0029228920999991910042106004+60717+028783FM-12+000399999V0202301N004119999999N0000001N9+00441+99999099541ADDGF108991999999999999999999
0029228920999991910042113004+60717+028783FM-12+000399999V0202301N006219999999N0000001N9+00671+99999099641ADDGF101991999999999999999999
0029228920999991910042120004+60717+028783FM-12+000399999V0202301N004119999999N0000001N9+00281+99999099781ADDGF108991999999999999999999
0029228920999991910042206004+60717+028783FM-12+000399999V0209991C000019999999N0000001N9+00501+99999099781ADDGF108991999999999999999999
0029228920999991910042213004+60717+028783FM-12+000399999V0200901N002119999999N0000001N9+00831+99999099591ADDGF106991999999999999999999
0035228920999991910042220004+60717+028783FM-12+000399999V0209991C000019999999N0000001N9+00441+99999099401ADDGF108991999999999999999999MW1621
0029228920999991910042306004+60717+028783FM-12+000399999V0201401N004119999999N0000001N9+00671+99999099261ADDGF108991999999999999999999
0029228920999991910042313004+60717+028783FM-12+000399999V0201801N004119999999N0000001N9+00781+99999099511ADDGF108991999999999999999999
0029228920999991910042320004+60717+028783FM-12+000399999V0201601N002119999999N0000001N9+00441+99999099721ADDGF106991999999999999999999
0029228920999991910042406004+60717+028783FM-12+000399999V0202301N008219999999N0000001N9+00441+99999100161ADDGF108991999999999999999999
0029228920999991910042413004+60717+028783FM-12+000399999V0202301N008219999999N0000001N9+00611+99999100581ADDGF104991999999999999999999
0029228920999991910042420004+60717+028783FM-12+000399999V0201801N002119999999N0000001N9+00221+99999100831ADDGF108991999999999999999999
0029228920999991910042506004+60717+028783FM-12+000399999V0201401N004119999999N0000001N9+00721+99999100831ADDGF108991999999999999999999
0029228920999991910042513004+60717+028783FM-12+000399999V0201401N006219999999N0000001N9+00831+99999100761ADDGF100991999999999999999999
0029228920999991910042520004+60717+028783FM-12+000399999V0201601N006219999999N0000001N9+00891+99999100721ADDGF100991999999999999999999
0029228920999991910042606004+60717+028783FM-12+000399999V0201401N004119999999N0000001N9+01001+99999100381ADDGF102991999999999999999999
0029228920999991910042613004+60717+028783FM-12+000399999V0202001N008219999999N0000001N9+00941+99999100841ADDGF107991999999999999999999
0029228920999991910042620004+60717+028783FM-12+000399999V0202301N002119999999N0000001N9+00331+99999101161ADDGF100991999999999999999999
0029228920999991910042706004+60717+028783FM-12+000399999V0201601N004119999999N0000001N9+01001+99999101221ADDGF106991999999999999999999
0029228920999991910042713004+60717+028783FM-12+000399999V0202301N004119999999N0000001N9+01561+99999101191ADDGF105991999999999999999999
0035228920999991910042720004+60717+028783FM-12+000399999V0200901N008219999999N0000001N9+00831+99999100831ADDGF108991999999999999999999MW1621
0035228920999991910042806004+60717+028783FM-12+000399999V0202301N006219999999N0000001N9+00781+99999100701ADDGF108991999999999999999999MW1621
0029228920999991910042813004+60717+028783FM-12+000399999V0202301N008219999999N0000001N9+00671+99999101191ADDGF108991999999999999999999
0029228920999991910042820004+60717+028783FM-12+000399999V0209991C000019999999N0000001N9+00441+99999101441ADDGF100991999999999999999999
0029228920999991910042906004+60717+028783FM-12+000399999V0209991C000019999999N0000001N9+00441+99999101561ADDGF108991999999999999999999
0029228920999991910042913004+60717+028783FM-12+000399999V0209991C000019999999N0000001N9+01221+99999101631ADDGF108991999999999999999999
0029228920999991910042920004+60717+028783FM-12+000399999V0200901N002119999999N0000001N9+00671+99999101591ADDGF108991999999999999999999
0029228920999991910043006004+60717+028783FM-12+000399999V0209991C000019999999N0000001N9+00721+99999101591ADDGF108991999999999999999999
0029228920999991910043013004+60717+028783FM-12+000399999V0202001N008219999999N0000001N9+01171+99999101671ADDGF105991999999999999999999
0029228920999991910043020004+60717+028783FM-12+000399999V0209991C000019999999N0000001N9+00501+99999101791ADDGF102991999999999999999999
0029228920999991910050106004+60717+028783FM-12+000399999V0209991C000019999999N0000001N9+00941+99999101921ADDGF108991999999999999999999
0029228920999991910050113004+60717+028783FM-12+000399999V0202301N002119999999N0000001N9+01441+99999102061ADDGF100991999999999999999999
0029228920999991910050120004+60717+028783FM-12+000399999V0209991C000019999999N0000001N9+00671+99999101961ADDGF102991999999999999999999
0029228920999991910050206004+60717+028783FM-12+000399999V0209991C000019999999N0000001N9+00941+99999101961ADDGF100991999999999999999999
0029228920999991910050213004+60717+028783FM-12+000399999V0202501N008219999999N0000001N9+01391+99999101591ADDGF101991999999999999999999
0029228920999991910050220004+60717+028783FM-12+000399999V0209991C000019999999N0000001N9+00561+99999101391ADDGF101991999999999999999999
0029228920999991910050306004+60717+028783FM-12+000399999V0209991C000019999999N0000001N9+00891+99999101261ADDGF100991999999999999999999
0029228920999991910050313004+60717+028783FM-12+000399999V0209991C000019999999N0000001N9+01721+99999101041ADDGF100991999999999999999999
0029228920999991910050320004+60717+028783FM-12+000399999V0201401N002119999999N0000001N9+00941+99999101021ADDGF107991999999999999999999
0029228920999991910050406004+60717+028783FM-12+000399999V0209991C000019999999N0000001N9+01281+99999101001ADDGF101991999999999999999999
0029228920999991910050413004+60717+028783FM-12+000399999V0201401N002119999999N0000001N9+01831+99999100831ADDGF100991999999999999999999
0029228920999991910050420004+60717+028783FM-12+000399999V0209991C000019999999N0000001N9+01171+99999100831ADDGF100991999999999999999999
0029228920999991910050506004+60717+028783FM-12+000399999V0209991C000019999999N0000001N9+01331+99999100801ADDGF100991999999999999999999
0029228920999991910050513004+60717+028783FM-12+000399999V0202301N002119999999N0000001N9+02061+99999100671ADDGF100991999999999999999999
0029228920999991910050520004+60717+028783FM-12+000399999V0209991C000019999999N0000001N9+01061+99999100641ADDGF100991999999999999999999
0029228920999991910050606004+60717+028783FM-12+000399999V0202301N004119999999N0000001N9+01561+99999100521ADDGF100991999999999999999999
0029228920999991910050613004+60717+028783FM-12+000399999V0201101N008219999999N0000001N9+02171+99999100261ADDGF100991999999999999999999
0029228920999991910050620004+60717+028783FM-12+000399999V0201101N004119999999N0000001N9+01611+99999100361ADDGF108991999999999999999999
0029228920999991910050706004+60717+028783FM-12+000399999V0201601N002119999999N0000001N9+01391+99999099951ADDGF108991999999999999999999
0029228920999991910050713004+60717+028783FM-12+000399999V0202001N002119999999N0000001N9+01281+99999100231ADDGF108991999999999999999999
0029228920999991910050720004+60717+028783FM-12+000399999V0201101N002119999999N0000001N9+00781+99999100501ADDGF104991999999999999999999
0029228920999991910050806004+60717+028783FM-12+000399999V0201801N009819999999N0000001N9+01331+99999100561ADDGF108991999999999999999999
0029228920999991910050813004+60717+028783FM-12+000399999V0202301N009819999999N0000001N9+01171+99999101361ADDGF107991999999999999999999
0029228920999991910050820004+60717+028783FM-12+000399999V0202501N002119999999N0000001N9+00611+99999101791ADDGF101991999999999999999999
0029228920999991910050906004+60717+028783FM-12+000399999V0200901N008219999999N0000001N9+01061+99999102061ADDGF100991999999999999999999
0029228920999991910050913004+60717+028783FM-12+000399999V0201101N008219999999N0000001N9+01831+99999101721ADDGF100991999999999999999999
0029228920999991910050920004+60717+028783FM-12+000399999V0200701N004119999999N0000001N9+01331+99999101631ADDGF100991999999999999999999
0029228920999991910051006004+60717+028783FM-12+000399999V0202001N008219999999N0000001N9+01501+99999102071ADDGF101991999999999999999999
0029228920999991910051013004+60717+028783FM-12+000399999V0202501N008219999999N0000001N9+01501+99999102641ADDGF100991999999999999999999
0029228920999991910051020004+60717+028783FM-12+000399999V0209991C000019999999N0000001N9+00941+99999102831ADDGF100991999999999999999999
0029228920999991910051106004+60717+028783FM-12+000399999V0209991C000019999999N0000001N9+01781+99999102911ADDGF100991999999999999999999
0029228920999991910051113004+60717+028783FM-12+000399999V0202501N004119999999N0000001N9+02441+99999102921ADDGF100991999999999999999999
0029228920999991910051120004+60717+028783FM-12+000399999V0209991C000019999999N0000001N9+01781+99999102941ADDGF100991999999999999999999
0029228920999991910051206004+60717+028783FM-12+000399999V0200201N004119999999N0000001N9+01671+99999103361ADDGF100991999999999999999999
0029228920999991910051213004+60717+028783FM-12+000399999V0200201N005119999999N0000001N9+02061+99999103341ADDGF100991999999999999999999
0029228920999991910051220004+60717+028783FM-12+000399999V0209991C000019999999N0000001N9+01111+99999103481ADDGF100991999999999999999999
0029228920999991910051306004+60717+028783FM-12+000399999V0200901N009819999999N0000001N9+01331+99999103561ADDGF100991999999999999999999
0029228920999991910051313004+60717+028783FM-12+000399999V0200501N006219999999N0000001N9+01781+99999103401ADDGF100991999999999999999999
0029228920999991910051320004+60717+028783FM-12+000399999V0209991C000019999999N0000001N9+01111+99999103281ADDGF100991999999999999999999
0029228920999991910051406004+60717+028783FM-12+000399999V0209991C000019999999N0000001N9+01391+99999102991ADDGF100991999999999999999999
0029228920999991910051413004+60717+028783FM-12+000399999V0202501N002119999999N0000001N9+02281+99999102511ADDGF100991999999999999999999
0029228920999991910051420004+60717+028783FM-12+000399999V0202001N004119999999N0000001N9+01391+99999102111ADDGF100991999999999999999999
0029228920999991910051506004+60717+028783FM-12+000399999V0202001N004119999999N0000001N9+01721+99999101581ADDGF101991999999999999999999
0029228920999991910051513004+60717+028783FM-12+000399999V0203401N008219999999N0000001N9+01831+99999101241ADDGF108991999999999999999999
0029228920999991910051520004+60717+028783FM-12+000399999V0203401N002119999999N0000001N9+00891+99999101541ADDGF100991999999999999999999
0029228920999991910051606004+60717+028783FM-12+000399999V0202701N002119999999N0000001N9+01221+99999101741ADDGF101991999999999999999999
0029228920999991910051613004+60717+028783FM-12+000399999V0202301N006219999999N0000001N9+01221+99999101751ADDGF108991999999999999999999
0029228920999991910051620004+60717+028783FM-12+000399999V0201601N005119999999N0000001N9+00501+99999102071ADDGF106991999999999999999999
0029228920999991910051706004+60717+028783FM-12+000399999V0200901N005119999999N0000001N9+00781+99999102271ADDGF100991999999999999999999
0029228920999991910051713004+60717+028783FM-12+000399999V0201401N002119999999N0000001N9+01001+99999102301ADDGF106991999999999999999999
0029228920999991910051720004+60717+028783FM-12+000399999V0200901N002119999999N0000001N9+00441+99999102201ADDGF100991999999999999999999
0029228920999991910051806004+60717+028783FM-12+000399999V0202701N002119999999N0000001N9+00941+99999102201ADDGF100991999999999999999999
0029228920999991910051813004+60717+028783FM-12+000399999V0202301N008219999999N0000001N9+01501+99999102031ADDGF100991999999999999999999
0029228920999991910051820004+60717+028783FM-12+000399999V0202301N004119999999N0000001N9+00891+99999101911ADDGF101991999999999999999999
0029228920999991910051906004+60717+028783FM-12+000399999V0203401N006219999999N0000001N9+01061+99999101941ADDGF107991999999999999999999
0029228920999991910051913004+60717+028783FM-12+000399999V0202001N009819999999N0000001N9+01611+99999101841ADDGF108991999999999999999999
0029228920999991910051920004+60717+028783FM-12+000399999V0203401N006219999999N0000001N9+00941+99999101781ADDGF101991999999999999999999
0029228920999991910052006004+60717+028783FM-12+000399999V0203401N005119999999N0000001N9+01111+99999101841ADDGF108991999999999999999999
0029228920999991910052013004+60717+028783FM-12+000399999V0200201N006219999999N0000001N9+01061+99999102111ADDGF101991999999999999999999
0029228920999991910052020004+60717+028783FM-12+000399999V0200901N002119999999N0000001N9+00501+99999102381ADDGF101991999999999999999999
0029228920999991910052106004+60717+028783FM-12+000399999V0200701N002119999999N0000001N9+00721+99999102641ADDGF100991999999999999999999
0029228920999991910052113004+60717+028783FM-12+000399999V0202001N008219999999N0000001N9+01331+99999102381ADDGF100991999999999999999999
0029228920999991910052120004+60717+028783FM-12+000399999V0202501N006219999999N0000001N9+00781+99999102271ADDGF101991999999999999999999
0029228920999991910052206004+60717+028783FM-12+000399999V0202001N009819999999N0000001N9+01061+99999102041ADDGF108991999999999999999999
0035228920999991910052213004+60717+028783FM-12+000399999V0202001N006219999999N0000001N9+01281+99999101791ADDGF108991999999999999999999MW1621
0029228920999991910052220004+60717+028783FM-12+000399999V0202001N004119999999N0000001N9+00941+99999101241ADDGF108991999999999999999999
0029228920999991910052306004+60717+028783FM-12+000399999V0202501N006219999999N0000001N9+01501+99999100701ADDGF106991999999999999999999
0029228920999991910052313004+60717+028783FM-12+000399999V0203401N011819999999N0000001N9+01501+99999100741ADDGF103991999999999999999999
0029228920999991910052320004+60717+028783FM-12+000399999V0200201N002119999999N0000001N9+00891+99999101151ADDGF100991999999999999999999
0029228920999991910052406004+60717+028783FM-12+000399999V0202001N004119999999N0000001N9+01171+99999101151ADDGF100991999999999999999999
0029228920999991910052413004+60717+028783FM-12+000399999V0202501N006219999999N0000001N9+01441+99999100921ADDGF105991999999999999999999
0029228920999991910052420004+60717+028783FM-12+000399999V0203401N004119999999N0000001N9+00721+99999101161ADDGF105991999999999999999999
0029228920999991910052506004+60717+028783FM-12+000399999V0203401N008219999999N0000001N9+00721+99999101461ADDGF102991999999999999999999
0029228920999991910052513004+60717+028783FM-12+000399999V0202301N009819999999N0000001N9+01061+99999101281ADDGF108991999999999999999999
0029228920999991910052520004+60717+028783FM-12+000399999V0203401N004119999999N0000001N9+00781+99999101001ADDGF108991999999999999999999
0029228920999991910052606004+60717+028783FM-12+000399999V0203401N004119999999N0000001N9+00721+99999100921ADDGF108991999999999999999999
0029228920999991910052613004+60717+028783FM-12+000399999V0203401N006219999999N0000001N9+00941+99999100801ADDGF108991999999999999999999
0029228920999991910052620004+60717+028783FM-12+000399999V0209991C000019999999N0000001N9+00611+99999100881ADDGF107991999999999999999999
0029228920999991910052706004+60717+028783FM-12+000399999V0200701N004119999999N0000001N9+00781+99999100921ADDGF103991999999999999999999
0029228920999991910052713004+60717+028783FM-12+000399999V0201401N006219999999N0000001N9+01281+99999100671ADDGF107991999999999999999999
0029228920999991910052720004+60717+028783FM-12+000399999V0200901N004119999999N0000001N9+00611+99999100681ADDGF102991999999999999999999
0029228920999991910052806004+60717+028783FM-12+000399999V0200701N011819999999N0000001N9+00611+99999100601ADDGF104991999999999999999999
0029228920999991910052813004+60717+028783FM-12+000399999V0200901N011819999999N0000001N9+00941+99999100521ADDGF108991999999999999999999
0029228920999991910052820004+60717+028783FM-12+000399999V0200901N008219999999N0000001N9+00501+99999100401ADDGF108991999999999999999999
0035228920999991910052906004+60717+028783FM-12+000399999V0200501N008219999999N0000001N9+00281+99999100191ADDGF108991999999999999999999MW1621
0035228920999991910052913004+60717+028783FM-12+000399999V0200501N004119999999N0000001N9+00441+99999100201ADDGF108991999999999999999999MW1621
0035228920999991910052920004+60717+028783FM-12+000399999V0200201N006219999999N0000001N9+00441+99999100221ADDGF108991999999999999999999MW1621
0029228920999991910053006004+60717+028783FM-12+000399999V0203601N004119999999N0000001N9+00781+99999100271ADDGF107991999999999999999999
0029228920999991910053013004+60717+028783FM-12+000399999V0203401N004119999999N0000001N9+01221+99999100381ADDGF108991999999999999999999
0029228920999991910053020004+60717+028783FM-12+000399999V0209991C000019999999N0000001N9+00561+99999100581ADDGF104991999999999999999999
0029228920999991910053106004+60717+028783FM-12+000399999V0201601N006219999999N0000001N9+01171+99999100561ADDGF104991999999999999999999
0035228920999991910053113004+60717+028783FM-12+000399999V0201601N004119999999N0000001N9+01001+99999100401ADDGF108991999999999999999999MW1621
0029228920999991910053120004+60717+028783FM-12+000399999V0202301N004119999999N0000001N9+00831+99999100271ADDGF102991999999999999999999
0029228920999991910060106004+60717+028783FM-12+000399999V0202001N009819999999N0000001N9+01061+99999100421ADDGF108991999999999999999999
0035228920999991910060113004+60717+028783FM-12+000399999V0202001N008219999999N0000001N9+01061+99999100501ADDGF108991999999999999999999MW1621
0029228920999991910060120004+60717+028783FM-12+000399999V0202001N006219999999N0000001N9+01061+99999100141ADDGF108991999999999999999999
0029228920999991910060206004+60717+028783FM-12+000399999V0202001N013919999999N0000001N9+01111+99999100181ADDGF101991999999999999999999
0029228920999991910060213004+60717+028783FM-12+000399999V0202001N013919999999N0000001N9+01281+99999100711ADDGF104991999999999999999999
0029228920999991910060220004+60717+028783FM-12+000399999V0202001N002119999999N0000001N9+00781+99999101141ADDGF100991999999999999999999
0029228920999991910060306004+60717+028783FM-12+000399999V0202001N004119999999N0000001N9+01331+99999101601ADDGF100991999999999999999999
0029228920999991910060313004+60717+028783FM-12+000399999V0202301N006219999999N0000001N9+01781+99999101381ADDGF104991999999999999999999
0029228920999991910060320004+60717+028783FM-12+000399999V0209991C000019999999N0000001N9+01061+99999101201ADDGF107991999999999999999999
0029228920999991910060406004+60717+028783FM-12+000399999V0209991C000019999999N0000001N9+01391+99999101231ADDGF108991999999999999999999
0029228920999991910060413004+60717+028783FM-12+000399999V0202301N004119999999N0000001N9+01781+99999101301ADDGF100991999999999999999999
0029228920999991910060420004+60717+028783FM-12+000399999V0209991C000019999999N0000001N9+01221+99999101241ADDGF100991999999999999999999
0029228920999991910060506004+60717+028783FM-12+000399999V0209991C000019999999N0000001N9+01561+99999101151ADDGF108991999999999999999999
0029228920999991910060513004+60717+028783FM-12+000399999V0202501N009819999999N0000001N9+02171+99999101071ADDGF101991999999999999999999
0029228920999991910060520004+60717+028783FM-12+000399999V0203401N002119999999N0000001N9+01391+99999101281ADDGF104991999999999999999999
0029228920999991910060606004+60717+028783FM-12+000399999V0203401N004119999999N0000001N9+01501+99999102041ADDGF100991999999999999999999
0029228920999991910060613004+60717+028783FM-12+000399999V0203401N004119999999N0000001N9+01891+99999102241ADDGF100991999999999999999999
0029228920999991910060620004+60717+028783FM-12+000399999V0209991C000019999999N0000001N9+01221+99999102271ADDGF100991999999999999999999
0029228920999991910060706004+60717+028783FM-12+000399999V0203401N004119999999N0000001N9+01561+99999102361ADDGF100991999999999999999999
0029228920999991910060713004+60717+028783FM-12+000399999V0203401N009819999999N0000001N9+01831+99999102381ADDGF100991999999999999999999
0029228920999991910060720004+60717+028783FM-12+000399999V0209991C000019999999N0000001N9+01111+99999102341ADDGF102991999999999999999999
0029228920999991910060806004+60717+028783FM-12+000399999V0202301N004119999999N0000001N9+01781+99999102271ADDGF100991999999999999999999
0029228920999991910060813004+60717+028783FM-12+000399999V0202001N013919999999N0000001N9+01941+99999101941ADDGF100991999999999999999999
0029228920999991910060820004+60717+028783FM-12+000399999V0202001N002119999999N0000001N9+01501+99999101671ADDGF101991999999999999999999
0029228920999991910060906004+60717+028783FM-12+000399999V0203401N008219999999N0000001N9+01561+99999102151ADDGF100991999999999999999999
0029228920999991910060913004+60717+028783FM-12+000399999V0203401N008219999999N0000001N9+01831+99999102271ADDGF100991999999999999999999
0029228920999991910060920004+60717+028783FM-12+000399999V0203401N002119999999N0000001N9+01501+99999102361ADDGF100991999999999999999999
0029228920999991910061006004+60717+028783FM-12+000399999V0202301N002119999999N0000001N9+01671+99999102511ADDGF100991999999999999999999
0029228920999991910061013004+60717+028783FM-12+000399999V0202301N004119999999N0000001N9+02171+99999102271ADDGF100991999999999999999999
0029228920999991910061020004+60717+028783FM-12+000399999V0209991C000019999999N0000001N9+01561+99999102101ADDGF100991999999999999999999
0029228920999991910061106004+60717+028783FM-12+000399999V0209991C000019999999N0000001N9+01831+99999102101ADDGF100991999999999999999999
0029228920999991910061113004+60717+028783FM-12+000399999V0202501N004119999999N0000001N9+02441+99999101991ADDGF100991999999999999999999
0029228920999991910061120004+60717+028783FM-12+000399999V0209991C000019999999N0000001N9+01501+99999102061ADDGF100991999999999999999999
0029228920999991910061206004+60717+028783FM-12+000399999V0209991C000019999999N0000001N9+02221+99999102231ADDGF100991999999999999999999
0029228920999991910061213004+60717+028783FM-12+000399999V0202301N008219999999N0000001N9+02781+99999102221ADDGF100991999999999999999999
0029228920999991910061220004+60717+028783FM-12+000399999V0209991C000019999999N0000001N9+01721+99999102541ADDGF100991999999999999999999
0029228920999991910061306004+60717+028783FM-12+000399999V0209991C000019999999N0000001N9+02331+99999102551ADDGF100991999999999999999999
0029228920999991910061313004+60717+028783FM-12+000399999V0202501N006219999999N0000001N9+02781+99999102501ADDGF100991999999999999999999
0029228920999991910061320004+60717+028783FM-12+000399999V0209991C000019999999N0000001N9+02221+99999102421ADDGF100991999999999999999999
0029228920999991910061406004+60717+028783FM-12+000399999V0202301N002119999999N0000001N9+02441+99999102421ADDGF100991999999999999999999
0029228920999991910061413004+60717+028783FM-12+000399999V0201801N002119999999N0000001N9+02611+99999102271ADDGF100991999999999999999999
0029228920999991910061420004+60717+028783FM-12+000399999V0201601N006219999999N0000001N9+02331+99999101761ADDGF103991999999999999999999
0029228920999991910061506004+60717+028783FM-12+000399999V0201601N004119999999N0000001N9+02111+99999101781ADDGF101991999999999999999999
0029228920999991910061513004+60717+028783FM-12+000399999V0202001N004119999999N0000001N9+02941+99999101481ADDGF100991999999999999999999
0029228920999991910061520004+60717+028783FM-12+000399999V0202301N004119999999N0000001N9+01941+99999101341ADDGF105991999999999999999999
0029228920999991910061606004+60717+028783FM-12+000399999V0203601N004119999999N0000001N9+02221+99999101391ADDGF101991999999999999999999
0029228920999991910061613004+60717+028783FM-12+000399999V0203601N006219999999N0000001N9+02281+99999101511ADDGF100991999999999999999999
0029228920999991910061620004+60717+028783FM-12+000399999V0203601N002119999999N0000001N9+01501+99999101941ADDGF100991999999999999999999
0029228920999991910061706004+60717+028783FM-12+000399999V0203401N002119999999N0000001N9+01671+99999101901ADDGF100991999999999999999999
0029228920999991910061713004+60717+028783FM-12+000399999V0203201N006219999999N0000001N9+02001+99999101641ADDGF103991999999999999999999
0029228920999991910061720004+60717+028783FM-12+000399999V0203401N006219999999N0000001N9+01331+99999101471ADDGF104991999999999999999999
0029228920999991910061806004+60717+028783FM-12+000399999V0202701N009819999999N0000001N9+01501+99999101311ADDGF100991999999999999999999
0029228920999991910061813004+60717+028783FM-12+000399999V0203401N006219999999N0000001N9+01501+99999101231ADDGF104991999999999999999999
0029228920999991910061820004+60717+028783FM-12+000399999V0203401N004119999999N0000001N9+01061+99999101141ADDGF108991999999999999999999
0029228920999991910061906004+60717+028783FM-12+000399999V0203401N008219999999N0000001N9+00941+99999101081ADDGF108991999999999999999999
0029228920999991910061913004+60717+028783FM-12+000399999V0200901N002119999999N0000001N9+01061+99999101231ADDGF108991999999999999999999
0029228920999991910061920004+60717+028783FM-12+000399999V0203401N006219999999N0000001N9+00721+99999101461ADDGF108991999999999999999999
0029228920999991910062006004+60717+028783FM-12+000399999V0203401N009819999999N0000001N9+00941+99999101511ADDGF108991999999999999999999
0029228920999991910062013004+60717+028783FM-12+000399999V0203401N006219999999N0000001N9+01171+99999101421ADDGF108991999999999999999999
0029228920999991910062020004+60717+028783FM-12+000399999V0202901N004119999999N0000001N9+00891+99999101381ADDGF108991999999999999999999
0029228920999991910062106004+60717+028783FM-12+000399999V0203201N006219999999N0000001N9+01111+99999101221ADDGF108991999999999999999999
0029228920999991910062113004+60717+028783FM-12+000399999V0200901N002119999999N0000001N9+01281+99999101141ADDGF108991999999999999999999
0029228920999991910062120004+60717+028783FM-12+000399999V0202901N002119999999N0000001N9+00721+99999101101ADDGF108991999999999999999999
0029228920999991910062206004+60717+028783FM-12+000399999V0203601N004119999999N0000001N9+00941+99999101361ADDGF103991999999999999999999
0029228920999991910062213004+60717+028783FM-12+000399999V0203601N004119999999N0000001N9+01171+99999101441ADDGF108991999999999999999999
0029228920999991910062220004+60717+028783FM-12+000399999V0209991C000019999999N0000001N9+00671+99999101481ADDGF102991999999999999999999
0029228920999991910062306004+60717+028783FM-12+000399999V0202901N006219999999N0000001N9+01331+99999101401ADDGF108991999999999999999999
0029228920999991910062313004+60717+028783FM-12+000399999V0202701N002119999999N0000001N9+01441+99999101181ADDGF108991999999999999999999
0029228920999991910062320004+60717+028783FM-12+000399999V0200201N002119999999N0000001N9+01111+99999101081ADDGF106991999999999999999999
0029228920999991910062406004+60717+028783FM-12+000399999V0209991C000019999999N0000001N9+01281+99999100871ADDGF100991999999999999999999
0029228920999991910062413004+60717+028783FM-12+000399999V0202301N006219999999N0000001N9+01671+99999100551ADDGF106991999999999999999999
0029228920999991910062420004+60717+028783FM-12+000399999V0200201N002119999999N0000001N9+01061+99999100341ADDGF104991999999999999999999
0029228920999991910062506004+60717+028783FM-12+000399999V0203601N002119999999N0000001N9+01171+99999099821ADDGF101991999999999999999999
0029228920999991910062513004+60717+028783FM-12+000399999V0202301N002119999999N0000001N9+01281+99999099511ADDGF108991999999999999999999
0029228920999991910062520004+60717+028783FM-12+000399999V0202001N002119999999N0000001N9+01061+99999099321ADDGF108991999999999999999999
0029228920999991910062606004+60717+028783FM-12+000399999V0209991C000019999999N0000001N9+01391+99999099441ADDGF103991999999999999999999
0029228920999991910062613004+60717+028783FM-12+000399999V0202501N006219999999N0000001N9+01831+99999099871ADDGF102991999999999999999999
0029228920999991910062620004+60717+028783FM-12+000399999V0200701N006219999999N0000001N9+01391+99999100111ADDGF100991999999999999999999
0035228920999991910062706004+60717+028783FM-12+000399999V0200701N006219999999N0000001N9+01171+99999100141ADDGF108991999999999999999999MW1621
0029228920999991910062713004+60717+028783FM-12+000399999V0201101N006219999999N0000001N9+01891+99999100081ADDGF108991999999999999999999
0029228920999991910062720004+60717+028783FM-12+000399999V0209991C000019999999N0000001N9+01501+99999099961ADDGF108991999999999999999999
0029228920999991910062806004+60717+028783FM-12+000399999V0202501N002119999999N0000001N9+01891+99999099991ADDGF108991999999999999999999
0029228920999991910062813004+60717+028783FM-12+000399999V0202301N011819999999N0000001N9+01721+99999100231ADDGF100991999999999999999999
0029228920999991910062820004+60717+028783FM-12+000399999V0202301N006219999999N0000001N9+01391+99999100501ADDGF100991999999999999999999
0029228920999991910062906004+60717+028783FM-12+000399999V0201801N004119999999N0000001N9+01501+99999100601ADDGF108991999999999999999999
0029228920999991910062913004+60717+028783FM-12+000399999V0201401N004119999999N0000001N9+01891+99999100431ADDGF108991999999999999999999
0029228920999991910062920004+60717+028783FM-12+000399999V0202301N002119999999N0000001N9+01501+99999100081ADDGF108991999999999999999999
0029228920999991910063006004+60717+028783FM-12+000399999V0202301N004119999999N0000001N9+01721+99999099841ADDGF104991999999999999999999
0029228920999991910063013004+60717+028783FM-12+000399999V0202001N009819999999N0000001N9+01781+99999099881ADDGF107991999999999999999999
0029228920999991910063020004+60717+028783FM-12+000399999V0202301N004119999999N0000001N9+01391+99999100041ADDGF104991999999999999999999
0029228920999991910070106004+60717+028783FM-12+000399999V0202001N002119999999N0000001N9+01781+99999100351ADDGF105991999999999999999999
0029228920999991910070113004+60717+028783FM-12+000399999V0201401N004119999999N0000001N9+02221+99999100121ADDGF107991999999999999999999
0035228920999991910070120004+60717+028783FM-12+000399999V0201101N006219999999N0000001N9+01501+99999099711ADDGF108991999999999999999999MW1621
0029228920999991910070206004+60717+028783FM-12+000399999V0202001N008219999999N0000001N9+01611+99999100021ADDGF103991999999999999999999
0029228920999991910070213004+60717+028783FM-12+000399999V0202001N009819999999N0000001N9+01831+99999100201ADDGF107991999999999999999999
0029228920999991910070220004+60717+028783FM-12+000399999V0201601N002119999999N0000001N9+01391+99999100321ADDGF108991999999999999999999
0029228920999991910070306004+60717+028783FM-12+000399999V0201601N013919999999N0000001N9+01501+99999100401ADDGF108991999999999999999999
0029228920999991910070313004+60717+028783FM-12+000399999V0201801N013919999999N0000001N9+01941+99999100481ADDGF102991999999999999999999
0029228920999991910070320004+60717+028783FM-12+000399999V0202001N008219999999N0000001N9+01331+99999100681ADDGF104991999999999999999999
0029228920999991910070406004+60717+028783FM-12+000399999V0202001N006219999999N0000001N9+01721+99999100991ADDGF100991999999999999999999
0029228920999991910070413004+60717+028783FM-12+000399999V0202301N006219999999N0000001N9+02111+99999101181ADDGF100991999999999999999999
0029228920999991910070420004+60717+028783FM-12+000399999V0209991C000019999999N0000001N9+01781+99999101231ADDGF100991999999999999999999
0029228920999991910070506004+60717+028783FM-12+000399999V0209991C000019999999N0000001N9+02171+99999101351ADDGF100991999999999999999999
0029228920999991910070513004+60717+028783FM-12+000399999V0201801N002119999999N0000001N9+02781+99999101191ADDGF101991999999999999999999
0029228920999991910070520004+60717+028783FM-12+000399999V0200901N002119999999N0000001N9+02001+99999101191ADDGF102991999999999999999999
0029228920999991910070606004+60717+028783FM-12+000399999V0201101N006219999999N0000001N9+02501+99999101071ADDGF106991999999999999999999
0029228920999991910070613004+60717+028783FM-12+000399999V0201101N008219999999N0000001N9+02721+99999100911ADDGF101991999999999999999999
0029228920999991910070620004+60717+028783FM-12+000399999V0200701N004119999999N0000001N9+02331+99999100841ADDGF100991999999999999999999
0029228920999991910070706004+60717+028783FM-12+000399999V0200701N006219999999N0000001N9+02111+99999100681ADDGF108991999999999999999999
0029228920999991910070713004+60717+028783FM-12+000399999V0201101N008219999999N0000001N9+02441+99999100541ADDGF108991999999999999999999
0029228920999991910070720004+60717+028783FM-12+000399999V0200701N008219999999N0000001N9+02061+99999100481ADDGF102991999999999999999999
0029228920999991910070806004+60717+028783FM-12+000399999V0200701N006219999999N0000001N9+01781+99999100431ADDGF108991999999999999999999
0029228920999991910070813004+60717+028783FM-12+000399999V0200901N006219999999N0000001N9+02171+99999100141ADDGF104991999999999999999999
0029228920999991910070820004+60717+028783FM-12+000399999V0201101N002119999999N0000001N9+01501+99999100161ADDGF101991999999999999999999
0029228920999991910070906004+60717+028783FM-12+000399999V0201401N004119999999N0000001N9+01781+99999100151ADDGF108991999999999999999999
0029228920999991910070913004+60717+028783FM-12+000399999V0201601N002119999999N0000001N9+02111+99999100231ADDGF108991999999999999999999
0029228920999991910070920004+60717+028783FM-12+000399999V0209991C000019999999N0000001N9+01561+99999100321ADDGF108991999999999999999999
0029228920999991910071006004+60717+028783FM-12+000399999V0209991C000019999999N0000001N9+02001+99999100591ADDGF101991999999999999999999
0035228920999991910071013004+60717+028783FM-12+000399999V0209991C000019999999N0000001N9+02111+99999100721ADDGF106991999999999999999999MW1621
0029228920999991910071020004+60717+028783FM-12+000399999V0200701N002119999999N0000001N9+02001+99999100921ADDGF104991999999999999999999
0029228920999991910071106004+60717+028783FM-12+000399999V0200901N004119999999N0000001N9+01561+99999101151ADDGF108991999999999999999999
0029228920999991910071113004+60717+028783FM-12+000399999V0200701N004119999999N0000001N9+02221+99999101121ADDGF101991999999999999999999
0029228920999991910071120004+60717+028783FM-12+000399999V0209991C000019999999N0000001N9+01891+99999101191ADDGF102991999999999999999999
0029228920999991910071206004+60717+028783FM-12+000399999V0200901N002119999999N0000001N9+01831+99999101271ADDGF102991999999999999999999
0029228920999991910071213004+60717+028783FM-12+000399999V0200901N002119999999N0000001N9+02391+99999101201ADDGF100991999999999999999999
0029228920999991910071220004+60717+028783FM-12+000399999V0209991C000019999999N0000001N9+01561+99999101351ADDGF100991999999999999999999
0029228920999991910071306004+60717+028783FM-12+000399999V0209991C000019999999N0000001N9+02001+99999101381ADDGF100991999999999999999999
0029228920999991910071313004+60717+028783FM-12+000399999V0209991C000019999999N0000001N9+02501+99999101311ADDGF100991999999999999999999
0029228920999991910071320004+60717+028783FM-12+000399999V0209991C000019999999N0000001N9+01941+99999101341ADDGF107991999999999999999999
0029228920999991910071406004+60717+028783FM-12+000399999V0209991C000019999999N0000001N9+02281+99999101311ADDGF100991999999999999999999
0029228920999991910071413004+60717+028783FM-12+000399999V0202501N002119999999N0000001N9+02721+99999101071ADDGF101991999999999999999999
0029228920999991910071420004+60717+028783FM-12+000399999V0202501N002119999999N0000001N9+02061+99999100821ADDGF100991999999999999999999
0029228920999991910071506004+60717+028783FM-12+000399999V0202701N004119999999N0000001N9+02221+99999100271ADDGF100991999999999999999999
0029228920999991910071513004+60717+028783FM-12+000399999V0202901N006219999999N0000001N9+02391+99999100061ADDGF104991999999999999999999
0029228920999991910071520004+60717+028783FM-12+000399999V0209991C000019999999N0000001N9+01331+99999100081ADDGF108991999999999999999999
0029228920999991910071606004+60717+028783FM-12+000399999V0203401N002119999999N0000001N9+01281+99999100031ADDGF100991999999999999999999
0029228920999991910071613004+60717+028783FM-12+000399999V0202501N009819999999N0000001N9+01561+99999100031ADDGF108991999999999999999999
0029228920999991910071620004+60717+028783FM-12+000399999V0202901N004119999999N0000001N9+01111+99999100221ADDGF100991999999999999999999
0029228920999991910071706004+60717+028783FM-12+000399999V0202701N008219999999N0000001N9+01221+99999100311ADDGF108991999999999999999999
0029228920999991910071713004+60717+028783FM-12+000399999V0202701N006219999999N0000001N9+01391+99999100681ADDGF104991999999999999999999
0029228920999991910071720004+60717+028783FM-12+000399999V0202701N002119999999N0000001N9+00891+99999100961ADDGF103991999999999999999999
0029228920999991910071806004+60717+028783FM-12+000399999V0202901N009819999999N0000001N9+01171+99999101191ADDGF102991999999999999999999
0029228920999991910071813004+60717+028783FM-12+000399999V0202701N006219999999N0000001N9+01721+99999101181ADDGF108991999999999999999999
0029228920999991910071820004+60717+028783FM-12+000399999V0202501N006219999999N0000001N9+01281+99999101141ADDGF108991999999999999999999
0029228920999991910071906004+60717+028783FM-12+000399999V0202501N004119999999N0000001N9+01331+99999101141ADDGF100991999999999999999999
0029228920999991910071913004+60717+028783FM-12+000399999V0202301N008219999999N0000001N9+01781+99999101021ADDGF102991999999999999999999
0029228920999991910071920004+60717+028783FM-12+000399999V0209991C000019999999N0000001N9+01221+99999100981ADDGF100991999999999999999999
0029228920999991910072006004+60717+028783FM-12+000399999V0209991C000019999999N0000001N9+01611+99999100941ADDGF104991999999999999999999
0029228920999991910072013004+60717+028783FM-12+000399999V0202501N002119999999N0000001N9+02171+99999100751ADDGF103991999999999999999999
0029228920999991910072020004+60717+028783FM-12+000399999V0201101N004119999999N0000001N9+01441+99999100681ADDGF108991999999999999999999
0029228920999991910072106004+60717+028783FM-12+000399999V0201601N004119999999N0000001N9+01781+99999100431ADDGF108991999999999999999999
0035228920999991910072113004+60717+028783FM-12+000399999V0201601N004119999999N0000001N9+01611+99999100361ADDGF108991999999999999999999MW1621
0029228920999991910072120004+60717+028783FM-12+000399999V0209991C000019999999N0000001N9+01281+99999100391ADDGF108991999999999999999999
0029228920999991910072206004+60717+028783FM-12+000399999V0209991C000019999999N0000001N9+01441+99999100381ADDGF108991999999999999999999
0029228920999991910072213004+60717+028783FM-12+000399999V0201401N005119999999N0000001N9+02001+99999100391ADDGF104991999999999999999999
0029228920999991910072220004+60717+028783FM-12+000399999V0200901N002119999999N0000001N9+01501+99999100281ADDGF108991999999999999999999
0029228920999991910072306004+60717+028783FM-12+000399999V0200901N006219999999N0000001N9+01671+99999100271ADDGF108991999999999999999999
0029228920999991910072313004+60717+028783FM-12+000399999V0200901N006219999999N0000001N9+02001+99999100191ADDGF107991999999999999999999
0029228920999991910072320004+60717+028783FM-12+000399999V0200901N004119999999N0000001N9+01561+99999099911ADDGF108991999999999999999999
0035228920999991910072406004+60717+028783FM-12+000399999V0201101N004119999999N0000001N9+01501+99999099361ADDGF108991999999999999999999MW1621
0029228920999991910072413004+60717+028783FM-12+000399999V0202301N013919999999N0000001N9+01831+99999099761ADDGF108991999999999999999999
0029228920999991910072420004+60717+028783FM-12+000399999V0202301N009819999999N0000001N9+01441+99999100111ADDGF100991999999999999999999
0029228920999991910072506004+60717+028783FM-12+000399999V0202001N008219999999N0000001N9+01611+99999100261ADDGF104991999999999999999999
0029228920999991910072513004+60717+028783FM-12+000399999V0202301N008219999999N0000001N9+01941+99999100421ADDGF108991999999999999999999
0029228920999991910072520004+60717+028783FM-12+000399999V0202001N004119999999N0000001N9+01441+99999100441ADDGF100991999999999999999999
0029228920999991910072606004+60717+028783FM-12+000399999V0202501N002119999999N0000001N9+01721+99999100721ADDGF100991999999999999999999
0029228920999991910072613004+60717+028783FM-12+000399999V0202001N008219999999N0000001N9+02061+99999101061ADDGF105991999999999999999999
0029228920999991910072620004+60717+028783FM-12+000399999V0202001N002119999999N0000001N9+01561+99999101271ADDGF100991999999999999999999
0029228920999991910072706004+60717+028783FM-12+000399999V0209991C000019999999N0000001N9+01831+99999101581ADDGF100991999999999999999999
0029228920999991910072713004+60717+028783FM-12+000399999V0200701N002119999999N0000001N9+02391+99999101541ADDGF102991999999999999999999
0029228920999991910072720004+60717+028783FM-12+000399999V0209991C000019999999N0000001N9+01561+99999101521ADDGF107991999999999999999999
0029228920999991910072806004+60717+028783FM-12+000399999V0203601N002119999999N0000001N9+01671+99999101161ADDGF108991999999999999999999
0029228920999991910072813004+60717+028783FM-12+000399999V0203401N008219999999N0000001N9+01721+99999100821ADDGF108991999999999999999999
0035228920999991910072820004+60717+028783FM-12+000399999V0202901N004119999999N0000001N9+01561+99999100471ADDGF108991999999999999999999MW1621
0029228920999991910072906004+60717+028783FM-12+000399999V0202501N006219999999N0000001N9+01781+99999100401ADDGF108991999999999999999999
0029228920999991910072913004+60717+028783FM-12+000399999V0202001N013919999999N0000001N9+01831+99999100761ADDGF100991999999999999999999
0029228920999991910072920004+60717+028783FM-12+000399999V0202301N009819999999N0000001N9+01561+99999100861ADDGF100991999999999999999999
0035228920999991910073006004+60717+028783FM-12+000399999V0202001N013919999999N0000001N9+01501+99999100661ADDGF108991999999999999999999MW1621
0029228920999991910073013004+60717+028783FM-12+000399999V0202301N006219999999N0000001N9+02001+99999100991ADDGF106991999999999999999999
0029228920999991910073020004+60717+028783FM-12+000399999V0209991C000019999999N0000001N9+01721+99999101321ADDGF105991999999999999999999
0029228920999991910073106004+60717+028783FM-12+000399999V0202701N004119999999N0000001N9+01781+99999101741ADDGF100991999999999999999999
0029228920999991910073113004+60717+028783FM-12+000399999V0202301N004119999999N0000001N9+02331+99999101861ADDGF102991999999999999999999
0029228920999991910073120004+60717+028783FM-12+000399999V0209991C000019999999N0000001N9+01561+99999102061ADDGF100991999999999999999999
0029228920999991910080106004+60717+028783FM-12+000399999V0201101N002119999999N0000001N9+01941+99999102191ADDGF101991999999999999999999
0029228920999991910080113004+60717+028783FM-12+000399999V0200701N002119999999N0000001N9+02441+99999102061ADDGF101991999999999999999999
0029228920999991910080120004+60717+028783FM-12+000399999V0209991C000019999999N0000001N9+01831+99999102031ADDGF100991999999999999999999
0029228920999991910080206004+60717+028783FM-12+000399999V0200901N004119999999N0000001N9+02061+99999101961ADDGF100991999999999999999999
0029228920999991910080213004+60717+028783FM-12+000399999V0200901N006219999999N0000001N9+02941+99999101901ADDGF102991999999999999999999
0029228920999991910080220004+60717+028783FM-12+000399999V0209991C000019999999N0000001N9+01781+99999102031ADDGF100991999999999999999999
0029228920999991910080306004+60717+028783FM-12+000399999V0200701N006219999999N0000001N9+02001+99999101821ADDGF102991999999999999999999
0029228920999991910080313004+60717+028783FM-12+000399999V0200901N009819999999N0000001N9+02391+99999101741ADDGF103991999999999999999999
0029228920999991910080320004+60717+028783FM-12+000399999V0200701N004119999999N0000001N9+01941+99999101711ADDGF101991999999999999999999
0029228920999991910080406004+60717+028783FM-12+000399999V0200901N009819999999N0000001N9+01941+99999101681ADDGF104991999999999999999999
0029228920999991910080413004+60717+028783FM-12+000399999V0200901N008219999999N0000001N9+02221+99999101781ADDGF102991999999999999999999
0029228920999991910080420004+60717+028783FM-12+000399999V0200701N006219999999N0000001N9+01501+99999101831ADDGF101991999999999999999999
0029228920999991910080506004+60717+028783FM-12+000399999V0200901N009819999999N0000001N9+01561+99999101921ADDGF100991999999999999999999
0029228920999991910080513004+60717+028783FM-12+000399999V0200701N009819999999N0000001N9+01781+99999101961ADDGF100991999999999999999999
0029228920999991910080520004+60717+028783FM-12+000399999V0200901N008219999999N0000001N9+01281+99999101911ADDGF100991999999999999999999
0029228920999991910080606004+60717+028783FM-12+000399999V0200901N008219999999N0000001N9+01561+99999101831ADDGF101991999999999999999999
0029228920999991910080613004+60717+028783FM-12+000399999V0201101N008219999999N0000001N9+01831+99999101871ADDGF104991999999999999999999
0029228920999991910080620004+60717+028783FM-12+000399999V0200701N004119999999N0000001N9+01391+99999101791ADDGF100991999999999999999999
0029228920999991910080706004+60717+028783FM-12+000399999V0200901N008219999999N0000001N9+01721+99999101581ADDGF100991999999999999999999
0029228920999991910080713004+60717+028783FM-12+000399999V0200701N008219999999N0000001N9+01941+99999101361ADDGF101991999999999999999999
0029228920999991910080720004+60717+028783FM-12+000399999V0200701N008219999999N0000001N9+01611+99999101161ADDGF107991999999999999999999
0029228920999991910080806004+60717+028783FM-12+000399999V0200701N004119999999N0000001N9+01561+99999100821ADDGF108991999999999999999999
0029228920999991910080813004+60717+028783FM-12+000399999V0200901N009819999999N0000001N9+01941+99999100761ADDGF108991999999999999999999
0029228920999991910080820004+60717+028783FM-12+000399999V0200701N002119999999N0000001N9+01501+99999100781ADDGF108991999999999999999999
0029228920999991910080906004+60717+028783FM-12+000399999V0200701N006219999999N0000001N9+01331+99999100791ADDGF100991999999999999999999
0029228920999991910080913004+60717+028783FM-12+000399999V0200201N004119999999N0000001N9+02061+99999100711ADDGF101991999999999999999999
0029228920999991910080920004+60717+028783FM-12+000399999V0200201N002119999999N0000001N9+01331+99999100741ADDGF100991999999999999999999
0029228920999991910081006004+60717+028783FM-12+000399999V0203601N004119999999N0000001N9+00891+99999100581ADDGF108991999999999999999999
0029228920999991910081013004+60717+028783FM-12+000399999V0200201N008219999999N0000001N9+01501+99999100501ADDGF108991999999999999999999
0029228920999991910081020004+60717+028783FM-12+000399999V0200201N004119999999N0000001N9+01171+99999100521ADDGF107991999999999999999999
0029228920999991910081106004+60717+028783FM-12+000399999V0200201N004119999999N0000001N9+01061+99999100501ADDGF108991999999999999999999
0029228920999991910081113004+60717+028783FM-12+000399999V0200201N004119999999N0000001N9+01611+99999100471ADDGF101991999999999999999999
0029228920999991910081120004+60717+028783FM-12+000399999V0209991C000019999999N0000001N9+01111+99999100441ADDGF103991999999999999999999
0035228920999991910081206004+60717+028783FM-12+000399999V0203401N006219999999N0000001N9+01061+99999100361ADDGF108991999999999999999999MW1621
0029228920999991910081213004+60717+028783FM-12+000399999V0203401N006219999999N0000001N9+01281+99999100431ADDGF108991999999999999999999
0029228920999991910081220004+60717+028783FM-12+000399999V0203401N006219999999N0000001N9+00941+99999100471ADDGF108991999999999999999999
0029228920999991910081306004+60717+028783FM-12+000399999V0203401N002119999999N0000001N9+01061+99999100401ADDGF102991999999999999999999
0035228920999991910081313004+60717+028783FM-12+000399999V0203401N008219999999N0000001N9+01001+99999100481ADDGF108991999999999999999999MW1601
0035228920999991910081320004+60717+028783FM-12+000399999V0203401N004119999999N0000001N9+00831+99999100481ADDGF108991999999999999999999MW1601
0029228920999991910081406004+60717+028783FM-12+000399999V0200201N004119999999N0000001N9+01111+99999100461ADDGF108991999999999999999999
0029228920999991910081413004+60717+028783FM-12+000399999V0203401N004119999999N0000001N9+01281+99999100591ADDGF108991999999999999999999
0029228920999991910081420004+60717+028783FM-12+000399999V0203601N002119999999N0000001N9+01171+99999100661ADDGF100991999999999999999999
0029228920999991910081506004+60717+028783FM-12+000399999V0200501N002119999999N0000001N9+01001+99999100911ADDGF100991999999999999999999
0029228920999991910081513004+60717+028783FM-12+000399999V0200201N004119999999N0000001N9+01501+99999101001ADDGF108991999999999999999999
0029228920999991910081520004+60717+028783FM-12+000399999V0209991C000019999999N0000001N9+01061+99999101101ADDGF108991999999999999999999
0029228920999991910081606004+60717+028783FM-12+000399999V0202001N004119999999N0000001N9+01441+99999101071ADDGF102991999999999999999999
0029228920999991910081613004+60717+028783FM-12+000399999V0202001N006219999999N0000001N9+01561+99999100961ADDGF100991999999999999999999
0029228920999991910081620004+60717+028783FM-12+000399999V0209991C000019999999N0000001N9+01281+99999100911ADDGF103991999999999999999999
0029228920999991910081706004+60717+028783FM-12+000399999V0209991C000019999999N0000001N9+01501+99999100631ADDGF108991999999999999999999
0029228920999991910081713004+60717+028783FM-12+000399999V0202301N002119999999N0000001N9+02001+99999100591ADDGF108991999999999999999999
0029228920999991910081720004+60717+028783FM-12+000399999V0209991C000019999999N0000001N9+01281+99999100581ADDGF108991999999999999999999
0035228920999991910081806004+60717+028783FM-12+000399999V0200201N002119999999N0000001N9+01061+99999100541ADDGF108991999999999999999999MW1621
0029228920999991910081813004+60717+028783FM-12+000399999V0209991C000019999999N0000001N9+01441+99999100581ADDGF108991999999999999999999
0029228920999991910081820004+60717+028783FM-12+000399999V0209991C000019999999N0000001N9+01111+99999100521ADDGF100991999999999999999999
0029228920999991910081906004+60717+028783FM-12+000399999V0209991C000019999999N0000001N9+01501+99999100311ADDGF106991999999999999999999
0035228920999991910081913004+60717+028783FM-12+000399999V0201801N002119999999N0000001N9+01441+99999100111ADDGF108991999999999999999999MW1621
0029228920999991910081920004+60717+028783FM-12+000399999V0209991C000019999999N0000001N9+01281+99999100031ADDGF108991999999999999999999
0035228920999991910082006004+60717+028783FM-12+000399999V0209991C000019999999N0000001N9+01281+99999099861ADDGF108991999999999999999999MW1601
0029228920999991910082013004+60717+028783FM-12+000399999V0201101N004119999999N0000001N9+01671+99999999999ADDGF101991999999999999999999
0029228920999991910082020004+60717+028783FM-12+000399999V0209991C000019999999N0000001N9+01281+99999100261ADDGF100991999999999999999999
0029228920999991910082106004+60717+028783FM-12+000399999V0209991C000019999999N0000001N9+01171+99999100661ADDGF100991999999999999999999
0029228920999991910082113004+60717+028783FM-12+000399999V0202001N004119999999N0000001N9+01781+99999100591ADDGF106991999999999999999999
0029228920999991910082120004+60717+028783FM-12+000399999V0202001N004119999999N0000001N9+00941+99999100501ADDGF106991999999999999999999
0029228920999991910082206004+60717+028783FM-12+000399999V0209991C000019999999N0000001N9+01061+99999100271ADDGF101991999999999999999999
0029228920999991910082213004+60717+028783FM-12+000399999V0203401N004119999999N0000001N9+01831+99999100221ADDGF104991999999999999999999
0029228920999991910082220004+60717+028783FM-12+000399999V0202501N004119999999N0000001N9+01331+99999100261ADDGF107991999999999999999999
0029228920999991910082306004+60717+028783FM-12+000399999V0202501N002119999999N0000001N9+01501+99999100231ADDGF102991999999999999999999
0029228920999991910082313004+60717+028783FM-12+000399999V0203601N002119999999N0000001N9+01671+99999100241ADDGF108991999999999999999999
0029228920999991910082320004+60717+028783FM-12+000399999V0203401N004119999999N0000001N9+01221+99999100261ADDGF101991999999999999999999
0029228920999991910082406004+60717+028783FM-12+000399999V0203401N008219999999N0000001N9+01001+99999100711ADDGF100991999999999999999999
0029228920999991910082413004+60717+028783FM-12+000399999V0203601N006219999999N0000001N9+01441+99999101061ADDGF102991999999999999999999
0029228920999991910082420004+60717+028783FM-12+000399999V0209991C000019999999N0000001N9+00831+99999101421ADDGF100991999999999999999999
0029228920999991910082506004+60717+028783FM-12+000399999V0200201N002119999999N0000001N9+01001+99999101881ADDGF100991999999999999999999
0029228920999991910082513004+60717+028783FM-12+000399999V0201601N002119999999N0000001N9+01561+99999102001ADDGF100991999999999999999999
0029228920999991910082520004+60717+028783FM-12+000399999V0209991C000019999999N0000001N9+01001+99999102191ADDGF100991999999999999999999
0029228920999991910082606004+60717+028783FM-12+000399999V0201101N002119999999N0000001N9+00941+99999102581ADDGF100991999999999999999999
0029228920999991910082613004+60717+028783FM-12+000399999V0209991C000019999999N0000001N9+01671+99999102561ADDGF100991999999999999999999
0029228920999991910082620004+60717+028783FM-12+000399999V0200901N002119999999N0000001N9+00941+99999102551ADDGF100991999999999999999999
0029228920999991910082706004+60717+028783FM-12+000399999V0200201N004119999999N0000001N9+00831+99999102021ADDGF104991999999999999999999
0035228920999991910082713004+60717+028783FM-12+000399999V0200501N006219999999N0000001N9+01111+99999101351ADDGF108991999999999999999999MW1601
0035228920999991910082720004+60717+028783FM-12+000399999V0200501N006219999999N0000001N9+01061+99999100991ADDGF108991999999999999999999MW1601
0029228920999991910082806004+60717+028783FM-12+000399999V0200201N004119999999N0000001N9+01221+99999100761ADDGF108991999999999999999999
0029228920999991910082813004+60717+028783FM-12+000399999V0200201N004119999999N0000001N9+01501+99999100901ADDGF108991999999999999999999
0035228920999991910082820004+60717+028783FM-12+000399999V0203401N002119999999N0000001N9+01221+99999100991ADDGF108991999999999999999999MW1601
0029228920999991910082906004+60717+028783FM-12+000399999V0203601N002119999999N0000001N9+01281+99999101321ADDGF108991999999999999999999
0029228920999991910082913004+60717+028783FM-12+000399999V0203401N004119999999N0000001N9+01441+99999101561ADDGF108991999999999999999999
0029228920999991910082920004+60717+028783FM-12+000399999V0209991C000019999999N0000001N9+01221+99999101861ADDGF108991999999999999999999
0029228920999991910083006004+60717+028783FM-12+000399999V0209991C000019999999N0000001N9+00891+99999102161ADDGF108991999999999999999999
0029228920999991910083013004+60717+028783FM-12+000399999V0209991C000019999999N0000001N9+01781+99999102261ADDGF102991999999999999999999
0029228920999991910083020004+60717+028783FM-12+000399999V0209991C000019999999N0000001N9+00941+99999102501ADDGF100991999999999999999999
0029228920999991910083106004+60717+028783FM-12+000399999V0200701N002119999999N0000001N9+01281+99999102641ADDGF108991999999999999999999
0029228920999991910083113004+60717+028783FM-12+000399999V0200501N004119999999N0000001N9+01501+99999102661ADDGF106991999999999999999999
0029228920999991910083120004+60717+028783FM-12+000399999V0209991C000019999999N0000001N9+01171+99999102671ADDGF108991999999999999999999
0029228920999991910090106004+60717+028783FM-12+000399999V0200701N004119999999N0000001N9+01171+99999102681ADDGF102991999999999999999999
0029228920999991910090113004+60717+028783FM-12+000399999V0200701N004119999999N0000001N9+01331+99999102631ADDGF108991999999999999999999
0029228920999991910090120004+60717+028783FM-12+000399999V0200701N002119999999N0000001N9+01001+99999102671ADDGF108991999999999999999999
0029228920999991910090206004+60717+028783FM-12+000399999V0200201N004119999999N0000001N9+00941+99999102631ADDGF108991999999999999999999
0035228920999991910090213004+60717+028783FM-12+000399999V0201601N002119999999N0000001N9+01281+99999102511ADDGF108991999999999999999999MW1621
0029228920999991910090220004+60717+028783FM-12+000399999V0209991C000019999999N0000001N9+01001+99999102421ADDGF100991999999999999999999
0029228920999991910090306004+60717+028783FM-12+000399999V0209991C000019999999N0000001N9+01221+99999102361ADDGF101991999999999999999999
