0088262100999991929010112004+58383+021817FM-12+000799999V0200201N00101220001CN0100001N9-00501+99999100741ADDAY111999GF108991999001999999021001EQDQ01+000002SCOTLCQ02+000082APCTENQ03+000002APC3  
0051262100999991929010212004+58383+021817FM-12+000799999V0200201N00261220001CN0100001N9-00221+99999102731ADDAY121999GF104991041011012501001001MD1310141+9999
0088262100999991929010312004+58383+021817FM-12+000799999V0202901N00101220001CN0100001N9+00111+99999103321ADDAY101999GF101991999001999999021001EQDQ01+000002SCOTLCQ02+000082APCTENQ03+000002APC3  
0070262100999991929010412004+58383+021817FM-12+000799999V0202701N00461220001CN0100001N9+00391+99999103111ADDAY101999GF102991999001999999021001MD1810061+9999EQDQ01+000002SCOTLC
0057262100999991929010512004+58383+021817FM-12+000799999V0200201N00101000151CN0010001N9-00111+99999103571ADDAY141999GF108991081051000251999999MD1310141+9999MW1101
0051262100999991929010612004+58383+021817FM-12+000799999V0202301N00261015001CN0100001N9-00111+99999104351ADDAY111999GF107991071051017501001001MD1310061+9999
0072262100999991929010712004+58383+021817FM-12+000799999V0202701N00101220001CN0100001N9+00281+99999104311ADDAY101999GF100991001001999999001001EQDQ01+000032APCTENQ02+000002APC3  
0051262100999991929010912004+58383+021817FM-12+000799999V0202501N00261015001CN0100001N9+00001+99999104991ADDAY121999GF108991081051017501999999MD1810141+9999
0051262100999991929011012004+58383+021817FM-12+000799999V0203201N00101012301CN0100001N9-00111+99999103861ADDAY121999GF108991081051012501999999MD1810061+9999
0051262100999991929011112004+58383+021817FM-12+000799999V0203201N00931015001CN0100001N9+00221+99999102591ADDAY121999GF108991081051017501999999MD1810141+9999
0051262100999991929011212004+58383+021817FM-12+000799999V0203601N00931220001CN0100001N9+00221+99999102071ADDAY101999GF101991001001999999001081MD1310061+9999
0051262100999991929011312004+58383+021817FM-12+000799999V0203201N01901012301CN0100001N9+00281+99999099151ADDAY101999GF108991081061012501999999MD1810401+9999
0051262100999991929011412004+58383+021817FM-12+000799999V0203601N01901220001CN0100001N9-00611+99999100501ADDAY111999GF104991041011017501001001MD1310141+9999
0057262100999991929011512004+58383+021817FM-12+000799999V0202301N01231004501CN9999999N9-00281+99999099071ADDAY171999GF108991081061004501999999MD1610401+9999MW1711
0070262100999991929011712004+58383+021817FM-12+000799999V0200901N00101220001CN0040001N9-00611+99999099861ADDAY121999GF102991999001999999021001MD1310141+9999EQDQ01+000002SCOTLC
0051262100999991929011812004+58383+021817FM-12+000799999V0202901N00101220001CN0100001N9-00281+99999100881ADDAY111999GF101991011051017501001001MD1810061+9999
0078262100999991929012112004+58383+021817FM-12+000799999V0201601N01231007801CN0100001N9-00111+99999999999ADDAY171999GF108991081061008001999999MW1731EQDQ01+000032APCTENQ02+000002APC3  
0078262100999991929012312004+58383+021817FM-12+000799999V0201401N00461007801CN0005001N9-00221+99999101971ADDAY171999GF108991081061008001999999MW1711EQDQ01+000032APCTENQ02+000002APC3  
0051262100999991929012412004+58383+021817FM-12+000799999V0201401N00461015001CN0040001N9-00781+99999102501ADDAY121999GF107991071011017501001001MD1310061+9999
0051262100999991929012512004+58383+021817FM-12+000799999V0201401N00261015001CN0020001N9-01111+99999102521ADDAY121999GF107991071051017501001001MD1310061+9999
0072262100999991929012612004+58383+021817FM-12+000799999V0201101N00261012301CN0040001N9-00721+99999102781ADDAY121999GF108991081051012501999999EQDQ01+000062APCTENQ02+000002APC3  
0072262100999991929012712004+58383+021817FM-12+000799999V0201401N00261015001CN0100001N9-00501+99999102591ADDAY121999GF108991081051017501999999EQDQ01+000032APCTENQ02+000002APC3  
0051262100999991929012812004+58383+021817FM-12+000799999V0201101N00461012301CN0040001N9-00501+99999102631ADDAY121999GF108991081051012501999999MD1310141+9999
0051262100999991929012912004+58383+021817FM-12+000799999V0201601N00461012301CN0040001N9-00501+99999103701ADDAY121999GF108991081051012501999999MD1310141+9999
0051262100999991929013012004+58383+021817FM-12+000799999V0201101N00261012301CN0020001N9-00781+99999104431ADDAY121999GF108991081051012501999999MD1310061+9999
0072262100999991929013112004+58383+021817FM-12+000799999V0201401N00261015001CN0040001N9-01001+99999104571ADDAY111999GF106991061051017501001001EQDQ01+000032APCTENQ02+000002APC3  
0072262100999991929020112004+58383+021817FM-12+000799999V0202001N00461012301CN0100001N9-00221+99999104171ADDAY111999GF107991071051012501001001EQDQ01+000082APCTENQ02+000002APC3  
0051262100999991929020212004+58383+021817FM-12+000799999V0202701N00671220001CN0100001N9+00001+99999103391ADDAY111999GF104991021011017501031001MD1810141+9999
0051262100999991929020312004+58383+021817FM-12+000799999V0203201N00671015001CN0100001N9-00221+99999102111ADDAY121999GF107991071051017501001001MD1810141+9999
0057262100999991929020612004+58383+021817FM-12+000799999V0201601N00261007801CN0010001N9-01501+99999103531ADDAY121999GF108991081061008001999999MD1310061+9999MW1711
0072262100999991929020712004+58383+021817FM-12+000799999V0201401N00261012301CN0040001N9-01501+99999103261ADDAY121999GF106991061051012501001001EQDQ01+000032APCTENQ02+000002APC3  
0072262100999991929020812004+58383+021817FM-12+000799999V0201401N00101012301CN0040001N9-01111+99999102311ADDAY121999GF108991081051012501999999EQDQ01+000032APCTENQ02+000002APC3  
0051262100999991929020912004+58383+021817FM-12+000799999V0201101N00101220001CN0040001N9-01891+99999103661ADDAY101999GF100991001001999999001001MD1310201+9999
0051262100999991929021012004+58383+021817FM-12+000799999V0201101N00101220001CN0020001N9-02111+99999104101ADDAY121999GF100991001001999999001001MD1310061+9999
0051262100999991929021112004+58383+021817FM-12+000799999V0200501N00261220001CN0040001N9-01721+99999103831ADDAY101999GF100991001001999999001001MD1810061+9999
0051262100999991929021212004+58383+021817FM-12+000799999V0200501N00101012301CN0100001N9-00281+99999999999ADDAY171999GF108991081051012501999999MD1810141+9999
0051262100999991929021312004+58383+021817FM-12+000799999V0200501N00101012301CN0100001N9-01001+99999103101ADDAY121999GF107991071051012501001001MD1310061+9999
0051262100999991929021412004+58383+021817FM-12+000799999V0200901N00461220001CN0100001N9-00891+99999999999ADDAY121999GF102991021011017501001001MD1310061+9999
0070262100999991929021512004+58383+021817FM-12+000799999V0200901N00261220001CN0100001N9-01111+99999103601ADDAY171999GF101991999001999999021001MD1610061+9999EQDQ01+000002SCOTLC
0088262100999991929021612004+58383+021817FM-12+000799999V0200701N00101220001CN0040001N9-01221+99999103471ADDAY101999GF101991999001999999021001EQDQ01+000002SCOTLCQ02+000032APCTENQ03+000002APC3  
0072262100999991929021812004+58383+021817FM-12+000799999V0201101N00101220001CN0100001N9-01221+99999104381ADDAY101999GF100991001001999999001001EQDQ01+000032APCTENQ02+000002APC3  
0072262100999991929021912004+58383+021817FM-12+000799999V0203201N00101012301CN0100001N9-00611+99999103911ADDAY121999GF108991081051012501999999EQDQ01+000082APCTENQ02+000002APC3  
0051262100999991929022012004+58383+021817FM-12+000799999V0200201N00101012301CN0100001N9-00611+99999104191ADDAY121999GF108991081051012501999999MD1310061+9999
0057262100999991929022112004+58383+021817FM-12+000799999V0202501N01231007801CN0002001N9-00281+99999102771ADDAY171999GF108991081061008001999999MD1810341+9999MW1711
0051262100999991929022212004+58383+021817FM-12+000799999V0200201N00101012301CN0040001N9-00111+99999101731ADDAY121999GF108991081051012501999999MD1810141+9999
0051262100999991929022312004+58383+021817FM-12+000799999V0200501N00671000151CN0020001N9-01281+99999101551ADDAY111999GF106991061051000251001001MD1310141+9999
0070262100999991929022412004+58383+021817FM-12+000799999V0200501N00261220001CN0040001N9-01281+99999102131ADDAY121999GF104991999001999999021001MD1310061+9999EQDQ01+000002SCOTLC
0051262100999991929022512004+58383+021817FM-12+000799999V0200901N00461007801CN0020001N9-01391+99999102481ADDAY121999GF107991071051008001001001MD1310061+9999
0051262100999991929022612004+58383+021817FM-12+000799999V0200501N00261220001CN0040001N9-01281+99999101901ADDAY111999GF104991041011017501001001MD1810061+9999
0051262100999991929022712004+58383+021817FM-12+000799999V0203601N00261220001CN0100001N9-00721+99999102031ADDAY101999GF101991011051017501001001MD1310061+9999
0070262100999991929022812004+58383+021817FM-12+000799999V0200501N00101220001CN0100001N9-00721+99999103171ADDAY111999GF101991999001999999021001MD1310261+9999EQDQ01+000002SCOTLC
