0051264220999991929010106004+56983+024083FM-12+000299999V0209991C00001012301CN0500001N9-00891+99999100471ADDAY171999GF108991081051012501999999MD1310141+9999
0072264220999991929010406004+56983+024083FM-12+000299999V0202001N00461220001CN0200001N9-01221+99999103391ADDAY101999GF102991021051017501001081EQDQ01+000032APCTENQ02+000002APC3  
0057264220999991929010612004+56983+024083FM-12+000299999V0200901N00101000151CN0000501N9-00781+99999104471ADDAY141999GF108991081051000251999999MD1310061+9999MW1471
0000264220999991929010712004+56983+024083FM-12+000299999V0202901N001019999999N9999999N9-01611+99999104391
0085264220999991929010906004+56983+024083FM-12+000299999V0209999900101220001CN0020001N9-01281+99999999999ADDAY101999GF104991021051017501021001KA1999N-01391EQDQ01+000032APCTENQ02+000002APC3  
0051264220999991929011012004+56983+024083FM-12+000299999V0202901N00461001501CN0200001N9-00111+99999999999ADDAY121999GF108991081051001501999999MD1810141+9999
0051264220999991929011112004+56983+024083FM-12+000299999V0202901N00931012301CN0500001N9+00111+99999102351ADDAY121999GF107991071051012501001001MD1810461+9999
0051264220999991929011212004+56983+024083FM-12+000299999V0203601N01231007801CN0200001N9+00111+99999101711ADDAY111999GF107991071051008001001001MD1310061+9999
0083264220999991929011306004+56983+024083FM-12+000299999V0202501N00671007801CN0200001N9+00111+99999099631ADDAY121999GF108991081051008001999999KA1999N-00111MD1810602+9999EQDQ01+000602APC3  
0051264220999991929011312004+56983+024083FM-12+000299999V0202701N01231220001CN0500001N9+00221+99999098921ADDAY121999GF102991021011017501021001MD1810461+9999
0078264220999991929011412004+56983+024083FM-12+000299999V0203401N01231004501CN0010001N9-00891+99999100131ADDAY171999GF108991081051004501999999MW1721EQDQ01+000012APCTENQ02+000002APC3  
0064264220999991929011506004+56983+024083FM-12+000299999V0209999999999030001CN0200001N9+99999+99999999999ADDAY111999GF106991021051012501021001KA1999N-01221MD1810061+9999
0051264220999991929011512004+56983+024083FM-12+000299999V0201801N00461030001CN0200001N9-00781+99999099531ADDAY111999GF106991021051012501021001MD1810141+9999
0081264220999991929011606004+56983+024083FM-12+000299999V0201401N00931007801CN0010001N9-00891+99999099231ADDAA199001091AY171999GF108991081051008001999999KA1999N-01221MD1510061+9999MW1711
0051264220999991929011612004+56983+024083FM-12+000299999V0201401N00671012301CN0100001N9-00781+99999099401ADDAY171999GF108991081051012501999999MD1310141+9999
0051264220999991929011706004+56983+024083FM-12+000299999V0201401N00671220001CN0200001N9-01001+99999099891ADDAY171999GF102991021051017501001001MD1310261+9999
0051264220999991929011712004+56983+024083FM-12+000299999V0201101N00671007801CN0040001N9-00891+99999100041ADDAY111999GF107991071051008001001001MD1310061+9999
0064264220999991929011806004+56983+024083FM-12+000299999V0201601N00261007801CN0040001N9-00891+99999100661ADDAY121999GF108991081051008001999999KA1999N-01111MD1310201+9999
0051264220999991929011812004+56983+024083FM-12+000299999V0202501N00461220001CN0200001N9-00391+99999100961ADDAY171999GF104991041051012501999999MD1310141+9999
0051264220999991929011906004+56983+024083FM-12+000299999V0201601N00461012301CN0200001N9-01001+99999100121ADDAY121999GF108991081061012501999999MD1810141+9999
0051264220999991929011912004+56983+024083FM-12+000299999V0200201N00101030001CN0040001N9-01001+99999100081ADDAY111999GF106991041051017501021001MD1410001+9999
0051264220999991929012006004+56983+024083FM-12+000299999V0203601N01231004501CN0200001N9-00501+99999102031ADDAY121999GF108991081051004501999999MD1310461+9999
0051264220999991929012012004+56983+024083FM-12+000299999V0203601N00931007801CN0200001N9-00501+99999102731ADDAY121999GF107991071051008001001001MD1310401+9999
0107264220999991929012106004+56983+024083FM-12+000299999V0201401N00101220001CN0002001N9-01281+99999103721ADDAY111999GF106991999001999999021001KA1999N-01501MW1421EQDQ01+000002SCOTLCQ02+000032APCTENQ03+000002APC3  
0070264220999991929012112004+56983+024083FM-12+000299999V0201601N00261220001CN0040001N9-01001+99999103681ADDAY141999GF106991999001999999021001MD1510001+9999EQDQ01+000002SCOTLC
0081264220999991929012206004+56983+024083FM-12+000299999V0201401N00671007801CN0040001N9-01111+99999103031ADDAA199000391AY171999GF108991081051008001999999KA1999N-01111MD1810201+9999MW1701
0057264220999991929012212004+56983+024083FM-12+000299999V0201401N00931007801CN0040001N9-01001+99999102751ADDAY171999GF108991081051008001999999MD1810261+9999MW1731
0078264220999991929012306004+56983+024083FM-12+000299999V0201401N00671007801CN0100001N9-00781+99999102311ADDAY171999GF108991081051008001999999MW1711EQDQ01+000042APCTENQ02+000062APC3  
0072264220999991929012312004+56983+024083FM-12+000299999V0201601N00671012301CN0000001N9-00611+99999102391ADDAY171999GF107991071051012501001001EQDQ01+000032APCTENQ02+000002APC3  
0083264220999991929012406004+56983+024083FM-12+000299999V0201401N00261220001CN0100001N9-01721+99999999999ADDAY121999GF104991999001999999021001KA1999N-01781MD1310141+9999EQDQ01+000002SCOTLC
0072264220999991929012412004+56983+024083FM-12+000299999V0201401N00671220001CN0200001N9-01111+99999102631ADDAY111999GF104991001001999999001081EQDQ01+000032APCTENQ02+000002APC3  
0064264220999991929012506004+56983+024083FM-12+000299999V0201601N00461075001CN0040001N9-01281+99999102661ADDAY111999GF106991011051012501001081KA1999N-01611MD1310061+9999
0078264220999991929012612004+56983+024083FM-12+000299999V0200901N00671007801CN0100001N9-00611+99999102831ADDAY121999GF108991081051008001999999MW1701EQDQ01+000032APCTENQ02+000002APC3  
0085264220999991929012706004+56983+024083FM-12+000299999V0201101N00671220001CN0200001N9-00891+99999102711ADDAY121999GF104991041051008001001001KA1999N-00891EQDQ01+000032APCTENQ02+000002APC3  
0051264220999991929012712004+56983+024083FM-12+000299999V0201101N00931220001CN0100001N9-00721+99999102561ADDAY111999GF104991021051017501021001MD1810141+9999
0051264220999991929012812004+56983+024083FM-12+000299999V0201401N00931012301CN0100001N9-00611+99999102771ADDAY121999GF108991081051012501999999MD1310061+9999
0075264220999991929012906004+56983+024083FM-12+000299999V0201401N00461004501CN0020001N9-00721+99999103571ADDAA124999999AY121999GF108991081051004501999999KA1999N-00891MD1310141+9999
0064264220999991929013006004+56983+024083FM-12+000299999V0201101N00461007801CN0100001N9-01001+99999104271ADDAY121999GF108991081051008001999999KA1999N-01001MD1310061+9999
0072264220999991929013012004+56983+024083FM-12+000299999V0200901N00461220001CN0200001N9-01001+99999104371ADDAY111999GF100991001001999999001001EQDQ01+000032APCTENQ02+000002APC3  
0072264220999991929013112004+56983+024083FM-12+000299999V0201601N00101220001CN0020001N9-01391+99999104751ADDAY101999GF100991001001999999001001EQDQ01+000082APCTENQ02+000002APC3  
0085264220999991929020106004+56983+024083FM-12+000299999V0201601N00461220001CN0020001N9-01891+99999104551ADDAY101999GF101991001001999999001021KA1999N-02001EQDQ01+000082APCTENQ02+000002APC3  
0072264220999991929020212004+56983+024083FM-12+000299999V0202301N00461012301CN0100001N9-00501+99999103471ADDAY121999GF108991081051012501999999EQDQ01+000082APCTENQ02+000002APC3  
0072264220999991929020312004+56983+024083FM-12+000299999V0203201N00671007801CN0200001N9-00111+99999102021ADDAY121999GF108991081051008001999999EQDQ01+000082APCTENQ02+000002APC3  
0051264220999991929020406004+56983+024083FM-12+000299999V0203201N00461007801CN0200001N9-00281+99999101531ADDAY121999GF108991081051008001999999MD1810061+9999
0051264220999991929020412004+56983+024083FM-12+000299999V0203201N00671002401CN0100001N9-00111+99999101391ADDAY121999GF108991081051002501999999MD1810061+9999
0051264220999991929020512004+56983+024083FM-12+000299999V0200501N00261220001CN0200001N9-01891+99999103111ADDAY101999GF100991001001999999001001MD1110061+9999
0088264220999991929020612004+56983+024083FM-12+000299999V0203601N00101220001CN0200001N9-02001+99999103631ADDAY111999GF102991999001999999021001EQDQ01+000002SCOTLCQ02+000032APCTENQ03+000002APC3  
0051264220999991929020706004+56983+024083FM-12+000299999V0201401N00461015001CN0100001N9-01891+99999103531ADDAY121999GF106991061051017501001001MD1810061+9999
0070264220999991929020806004+56983+024083FM-12+000299999V0201601N00101002401CN0020001N9-01781+99999102371ADDAY121999GF108991081051002501999999KA1999N-02111MD1810201+9999MW1471
0070264220999991929020812004+56983+024083FM-12+000299999V0200501N00461220001CN0200001N9-01281+99999102191ADDAY111999GF101991999001999999021001MD1810141+9999EQDQ01+000002SCOTLC
0051264220999991929020906004+56983+024083FM-12+000299999V0200701N00461220001CN0200001N9-02391+99999103331ADDAY101999GF100991001001999999001001MD1310141+9999
0051264220999991929020912004+56983+024083FM-12+000299999V0201101N00261220001CN0500001N9-02221+99999103681ADDAY101999GF100991001001999999001001MD1310201+9999
0085264220999991929021006004+56983+024083FM-12+000299999V0209999999999220001CN0100001N9-02781+99999999999ADDAY101999GF100991001001999999001001KA1999N-02891EQDQ01+000032APCTENQ02+000002APC3  
0051264220999991929021012004+56983+024083FM-12+000299999V0200501N00261220001CN0200001N9-02111+99999103911ADDAY101999GF100991001001999999001001MD1990061+9999
0101264220999991929021106004+56983+024083FM-12+000299999V0200501N00461220001CN0100001N9-02111+99999103531ADDAY101999GF104991999001999999031001KA1999N-02501EQDQ01+000002SCOTLCQ02+000032APCTENQ03+000002APC3  
0051264220999991929021112004+56983+024083FM-12+000299999V0200501N00261220001CN0200001N9-01281+99999103371ADDAY101999GF100991001001999999001001MD1810061+9999
0016264220999991929021206004+56983+024083FM-12+000299999V02099999999999999999N9999999N9+99999+99999999999ADDKA1999N-02221
0072264220999991929021412004+56983+024083FM-12+000299999V0200701N00931220001CN0200001N9-00781+99999103311ADDAY101999GF100991001001999999001001EQDQ01+000032APCTENQ02+000002APC3  
0101264220999991929021506004+56983+024083FM-12+000299999V0200901N00461220001CN0200001N9-01501+99999103581ADDAY101999GF102991999001999999021001KA1999N-01611EQDQ01+000002SCOTLCQ02+000082APCTENQ03+000002APC3  
0085264220999991929021606004+56983+024083FM-12+000299999V0200901N00461220001CN0100001N9-01781+99999103351ADDAY101999GF100991001001999999001001KA1999N-01891EQDQ01+000032APCTENQ02+000002APC3  
0072264220999991929021612004+56983+024083FM-12+000299999V0200701N00261220001CN0200001N9-01221+99999103321ADDAY101999GF100991001001999999001001EQDQ01+000032APCTENQ02+000002APC3  
0051264220999991929021712004+56983+024083FM-12+000299999V0200901N00101220001CN0200001N9-00781+99999104021ADDAY101999GF100991001001999999001001MD1310061+9999
0078264220999991929021812004+56983+024083FM-12+000299999V0201801N00261004501CN0100001N9-01001+99999104431ADDAY141999GF108991081051004501999999MW1711EQDQ01+000082APCTENQ02+000002APC3  
0070264220999991929021906004+56983+024083FM-12+000299999V0202501N00101002401CN0010001N9-01501+99999103941ADDAY141999GF108991081051002501999999KA1999N-02221MD1810061+9999MW1101
0057264220999991929021912004+56983+024083FM-12+000299999V0203401N00461002401CN0040001N9-00891+99999103811ADDAY171999GF108991081051002501999999MD1810061+9999MW1711
0072264220999991929022012004+56983+024083FM-12+000299999V0200201N00671220001CN0200001N9-00721+99999103931ADDAY171999GF102991021051008001001001EQDQ01+000032APCTENQ02+000002APC3  
0057264220999991929022106004+56983+024083FM-12+000299999V0201801N00261002401CN0010001N9-01611+99999103981ADDAY111999GF108991081051002501999999MD1810201+9999MW1101
0100264220999991929022306004+56983+024083FM-12+000299999V0200501N00461002401CN0020001N9-01001+99999101061ADDAA199001091AY171999GF108991081051002501999999KA1999N+99999MD1310061+9999MW1711EQDQ01 -00392ATMN  
0037264220999991929022312004+56983+024083FM-12+000299999V0200501N00671007801CN0100001N9-00891+99999101181ADDAY171999GF108991081051008001999999
0085264220999991929022506004+56983+024083FM-12+000299999V0201101N00671007801CN0040001N9-01391+99999102381ADDAY111999GF108991081051008001999999KA1999N-01501EQDQ01+000082APCTENQ02+000002APC3  
0051264220999991929022512004+56983+024083FM-12+000299999V0201101N00671220001CN0100001N9-01281+99999102291ADDAY111999GF100991001001999999001001MD1810061+9999
0075264220999991929022606004+56983+024083FM-12+000299999V0201101N00101007801CN0100001N9-01611+99999101861ADDAA199000691AY111999GF106991061051008001001001KA1999N-01721MD1810061+9999
0051264220999991929022612004+56983+024083FM-12+000299999V0200501N00101030001CN0200001N9-01111+99999101511ADDAY111999GF106991021051008001021001MD1810141+9999
0051264220999991929022712004+56983+024083FM-12+000299999V0203401N00461220001CN0500001N9-01391+99999101911ADDAY101999GF100991001001999999001001MD1310061+9999
0037264220999991929022812004+56983+024083FM-12+000299999V0203601N00671220001CN0200001N9-00781+99999102971ADDAY111999GF102991021051012501999999
