0064264220999991928010206004+56983+024083FM-12+000299999V0202301N00461015001CN0100001N9-00221+99999103591ADDAY121999GF108991081051017501999999KA1999N-00281MD1810141+9999
0057264220999991928010212004+56983+024083FM-12+000299999V0202501N00461015001CN0100001N9-00281+99999103331ADDAY121999GF108991081051017501001001IA1009MD1810141+9999
0064264220999991928010306004+56983+024083FM-12+000299999V0201801N00461220001CN0040001N9-01221+99999102611ADDAY111999GF104991041051017501001001KA1999N-01281MD1610141+9999
0051264220999991928010312004+56983+024083FM-12+000299999V0201601N00461220001CN0200001N9-00781+99999102391ADDAY111999GF102991001001999999001081MD1810141+9999
0064264220999991928010406004+56983+024083FM-12+000299999V0201801N00461012301CN0040001N9-00111+99999101761ADDAY121999GF108991081051012501999999KA1999N-01281MD1810201+9999
0051264220999991928010412004+56983+024083FM-12+000299999V0201801N00461004501CN0040001N9-00781+99999101111ADDAY111999GF108991081051004501999999MD1810261+9999
0057264220999991928010512004+56983+024083FM-12+000299999V0201101N00671004501CN0040001N9+00111+99999099581ADDAY171999GF108991081051004501999999MD1810141+9999MW1701
0096264220999991928010606004+56983+024083FM-12+000299999V0202301N00671004501CN0020001N9+00111+99999098951ADDAA199000391AY171999GF108991081051004501999999KA1999N+00001EQDQ01+000032APCTENQ02+000002APC3  
0072264220999991928010612004+56983+024083FM-12+000299999V0202301N00461015001CN0100001N9+00221+99999098951ADDAY171999GF106991061051017501001001EQDQ01+000032APCTENQ02+000002APC3  
0051264220999991928010712004+56983+024083FM-12+000299999V0202901N00671012301CN0100001N9+00001+99999099931ADDAY121999GF108991081051012501999999MD1310261+9999
0096264220999991928010906004+56983+024083FM-12+000299999V0202301N00671007801CN0100001N9+00221+99999099491ADDAA199002091AY171999GF108991081051008001999999KA1999N-00281EQDQ01+000042APCTENQ02+000062APC3  
0051264220999991928010912004+56983+024083FM-12+000299999V0202301N00461007801CN0100001N9+00281+99999099661ADDAY121999GF108991081051008001999999MD1310061+9999
0064264220999991928011006004+56983+024083FM-12+000299999V0209999999999004501CN0100001N9+00221+99999999999ADDAY121999GF108991081051004501999999KA1999N+00111MD1310141+9999
0072264220999991928011012004+56983+024083FM-12+000299999V0202001N00461004501CN0040001N9+00221+99999100401ADDAY121999GF108991081051004501999999EQDQ01+000032APCTENQ02+000002APC3  
0051264220999991928011106004+56983+024083FM-12+000299999V0201801N00931007801CN0100001N9+00111+99999100331ADDAY121999GF108991081051008001999999MD1810261+9999
0029264220999991928011112004+56983+024083FM-12+000299999V0202301N00931007801CN9999999N9+00221+99999100131ADDGF106991061051008001999999
0072264220999991928011206004+56983+024083FM-12+000299999V0202501N00671007801CN0100001N9+00221+99999100231ADDAY111999GF106991061051008001001001EQDQ01+000082APCTENQ02+000002APC3  
0051264220999991928011212004+56983+024083FM-12+000299999V0202501N00931007801CN0100001N9+00281+99999100131ADDAY121999GF108991081051008001999999MD1810061+9999
0064264220999991928011306004+56983+024083FM-12+000299999V0202001N00671007801CN0020001N9+00111+99999100431ADDAY121999GF108991081051008001999999KA1999N+00111MD1810061+9999
0057264220999991928011312004+56983+024083FM-12+000299999V0201801N00931000151CN0010001N9+00001+99999099661ADDAY171999GF108991081051000251999999MD1810401+9999MW1701
0085264220999991928011406004+56983+024083FM-12+000299999V0201801N00671007801CN0020001N9+00281+99999099281ADDAY121999GF108991081051008001999999KA1999N+00221EQDQ01+000032APCTENQ02+000002APC3  
0051264220999991928011412004+56983+024083FM-12+000299999V0202301N00671007801CN0020001N9+00281+99999099271ADDAY141999GF108991081051008001999999MD1810141+9999
0051264220999991928011606004+56983+024083FM-12+000299999V0202001N00461007801CN0010001N9+00111+99999099771ADDAY161999GF108991081051008001999999MD1810141+9999
0051264220999991928011612004+56983+024083FM-12+000299999V0202701N00461015001CN0200001N9+00281+99999100151ADDAY121999GF107991071051017501001001MD1310201+9999
0064264220999991928011706004+56983+024083FM-12+000299999V0200901N00461007801CN0200001N9-00721+99999101761ADDAY121999GF108991081051008001999999KA1999N-00781MD1310201+9999
0051264220999991928011712004+56983+024083FM-12+000299999V0200901N00461220001CN0200001N9-00501+99999102041ADDAY111999GF106991001001999999001081MD1310141+9999
0051264220999991928011812004+56983+024083FM-12+000299999V0200701N00461220001CN0200001N9-00781+99999103191ADDAY101999GF100991001001999999001001MD1310061+9999
0101264220999991928011906004+56983+024083FM-12+000299999V0201101N00461220001CN0100001N9-01391+99999103411ADDAY101999GF102991999001999999021001KA1999N-01501EQDQ01+000002SCOTLCQ02+000032APCTENQ03+000002APC3  
0051264220999991928011912004+56983+024083FM-12+000299999V0201401N00671220001CN0200001N9-00891+99999103131ADDAY101999GF104991001001999999001081MD1810141+9999
0078264220999991928012006004+56983+024083FM-12+000299999V0201401N00461007801CN0040001N9-00781+99999102731ADDAY121999GF108991081051008001999999MW1731EQDQ01+000032APCTENQ02+000002APC3  
0057264220999991928012012004+56983+024083FM-12+000299999V0201101N00671007801CN0020001N9-00721+99999102671ADDAY171999GF108991081051008001999999MD1810141+9999MW1731
0075264220999991928012106004+56983+024083FM-12+000299999V0201401N00461007801CN0040001N9-00611+99999103031ADDAA199000391AY121999GF108991081051008001999999KA1999N-00721MD1310141+9999
0051264220999991928012112004+56983+024083FM-12+000299999V0201401N00461007801CN0100001N9-00501+99999103201ADDAY121999GF108991081051008001999999MD1310061+9999
0117264220999991928012206004+56983+024083FM-12+000299999V0201401N00671220001CN0200001N9-00721+99999103231ADDAY101999GF102991999001999999021001KA1999N+99999EQDQ01+000002SCOTLCQ02+000032APCTENQ03+000002APC3  Q04 -00392ATMN  
0070264220999991928012212004+56983+024083FM-12+000299999V0201401N00671220001CN0100001N9-00781+99999103111ADDAY101999GF101991999001999999021001MD1810201+9999EQDQ01+000002SCOTLC
0072264220999991928012306004+56983+024083FM-12+000299999V0201401N00461220001CN0100001N9-01221+99999102801ADDAY101999GF104991999999999999021001EQDQ01+000032APCTENQ02+000002APC3  
0070264220999991928012312004+56983+024083FM-12+000299999V0200901N00671220001CN0100001N9-01001+99999102821ADDAY111999GF106991999001999999021001MD1810061+9999EQDQ01+000002SCOTLC
0027264220999991928012406004+56983+024083FM-12+000299999V02099999999999999999N9999999N9+99999+99999999999ADDAA199000691KA1999N-01281
0081264220999991928012506004+56983+024083FM-12+000299999V0201801N00931007801CN0040001N9+00111+99999100521ADDAA199000591AY181999GF108991081051008001999999KA1999N-00781MD1610061+9999MW1701
0051264220999991928012512004+56983+024083FM-12+000299999V0202301N00931007801CN0200001N9+00281+99999100871ADDAY121999GF108991081051008001999999MD1310201+9999
0072264220999991928012612004+56983+024083FM-12+000299999V0202501N00931007801CN0200001N9+00221+99999102001ADDAY121999GF108991061051008001021001EQDQ01+000032APCTENQ02+000002APC3  
0051264220999991928012706004+56983+024083FM-12+000299999V0201801N00461007801CN0020001N9+00221+99999999999ADDAY121999GF108991081051008001999999MD1310201+9999
0072264220999991928012712004+56983+024083FM-12+000299999V0201601N00671220001CN0040001N9+00221+99999102641ADDAY101999GF104991001001999999001081EQDQ01+000032APCTENQ02+000002APC3  
0064264220999991928012806004+56983+024083FM-12+000299999V0201801N00671015001CN0200001N9-00281+99999102031ADDAY111999GF107991071051017501001001KA1999N-00281MD1810061+9999
0078264220999991928013006004+56983+024083FM-12+000299999V0201801N00461007801CN0040001N9-00111+99999101831ADDAY121999GF108991081051008001999999MW1701EQDQ01+000032APCTENQ02+000002APC3  
0072264220999991928013012004+56983+024083FM-12+000299999V0202001N00461004501CN0020001N9-00221+99999101891ADDAY171999GF108991081051004501999999EQDQ01+000032APCTENQ02+000002APC3  
0051264220999991928013112004+56983+024083FM-12+000299999V0201101N00461220001CN0040001N9-00281+99999101981ADDAY111999GF104991041051008001001001MD1810141+9999
0051264220999991928020106004+56983+024083FM-12+000299999V0201401N00671007801CN0020001N9-00111+99999101571ADDAY141999GF108991081051008001999999MD1810141+9999
0070264220999991928020112004+56983+024083FM-12+000299999V0202301N009319999999N0500001N9-00721+99999101891ADDAY121999GF108991999011012501001001MD1510141+9999EQDQ01+000042SCOTLC
0051264220999991928020206004+56983+024083FM-12+000299999V0201401N01541004501CN0040001N9-00391+99999101371ADDAY121999GF108991081051004501999999MD1310061+9999
0072264220999991928020212004+56983+024083FM-12+000299999V0201401N01231004501CN0040001N9-00391+99999101591ADDAY181999GF108991081051004501999999EQDQ01+000032APCTENQ02+000002APC3  
0057264220999991928020306004+56983+024083FM-12+000299999V0201401N00671004501CN0100001N9-00501+99999102271ADDAY181999GF108991081051004501999999MD1310141+9999MW1731
0070264220999991928020406004+56983+024083FM-12+000299999V0201601N00671220001CN0040001N9-01221+99999103661ADDAY111999GF106991999001999999021001MD1310141+9999EQDQ01+000002SCOTLC
0088264220999991928020412004+56983+024083FM-12+000299999V0201601N00671000151CN0200001N9-00891+99999103621ADDAY111999GF107991999051000251999999EQDQ01+000082SCOTLCQ02+000032APCTENQ03+000002APC3  
0070264220999991928020506004+56983+024083FM-12+000299999V0201601N00671220001CN0500001N9-01391+99999103511ADDAY111999GF101991999001999999021001MD1810061+9999EQDQ01+000002SCOTLC
0081264220999991928020606004+56983+024083FM-12+000299999V0201601N01231004501CN0020001N9-00501+99999101771ADDAA199000391AY171999GF108991081051004501999999KA1999N-01111MD1810201+9999MW1701
0078264220999991928020612004+56983+024083FM-12+000299999V0201801N00671002401CN0010001N9-00391+99999101751ADDAY171999GF108991081051002501999999MW1731EQDQ01+000032APCTENQ02+000002APC3  
0051264220999991928020806004+56983+024083FM-12+000299999V0202701N00671220001CN0200001N9+00221+99999100241ADDAY111999GF104991041051012501001001MD1310061+9999
0051264220999991928020812004+56983+024083FM-12+000299999V0202701N00461220001CN0200001N9+00391+99999100341ADDAY101999GF102991001001999999001081MD1810061+9999
0081264220999991928020906004+56983+024083FM-12+000299999V0202501N00931004501CN0040001N9+00391+99999099701ADDAA199001091AY161999GF108991081051004501999999KA1999N+00221MD1810141+9999MW1611
0051264220999991928020912004+56983+024083FM-12+000299999V0202501N00931004501CN0100001N9+00501+99999099221ADDAY121999GF108991081051004501999999MD1810341+9999
0064264220999991928021006004+56983+024083FM-12+000299999V0202701N01541004501CN0100001N9+00391+99999098511ADDAY111999GF108991081051004501999999KA1999N+00281MD1810201+9999
0072264220999991928021012004+56983+024083FM-12+000299999V0202701N01231004501CN0100001N9+00281+99999999999ADDAY161999GF108991081051004501999999EQDQ01+000042APCTENQ02+000062APC3  
0057264220999991928021112004+56983+024083FM-12+000299999V0200901N00931004501CN0010001N9+00001+99999098271ADDAY171999GF108991081051004501999999MD1810341+9999MW1731
0057264220999991928021206004+56983+024083FM-12+000299999V0202301N00931004501CN0020001N9+00111+99999097811ADDAY171999GF108991081051004501999999MD1310061+9999MW1731
0051264220999991928021212004+56983+024083FM-12+000299999V0202001N00671012301CN0100001N9+00221+99999098031ADDAY171999GF108991081051012501999999MD1310141+9999
0064264220999991928021306004+56983+024083FM-12+000299999V0202301N00461015001CN0200001N9-00221+99999099681ADDAY111999GF106991061051017501001001KA1999N-00281MD1310141+9999
0064264220999991928021406004+56983+024083FM-12+000299999V0209999999999220001CN0200001N9-00891+99999999999ADDAY111999GF102991021011017501001001KA1999N-01001MD1310141+9999
0051264220999991928021412004+56983+024083FM-12+000299999V0203601N00671220001CN0200001N9-00721+99999100561ADDAY111999GF104991041051008001001001MD1310261+9999
0062264220999991928021506004+56983+024083FM-12+000299999V0202301N00261007801CN0100001N9-00721+99999101441ADDAA199001091AY111999GF107991071051008001001001MD1310341+9999
0051264220999991928021512004+56983+024083FM-12+000299999V0202701N00461012301CN0200001N9-00221+99999101911ADDAY111999GF106991061051012501001001MD1310201+9999
0081264220999991928021606004+56983+024083FM-12+000299999V0201401N00931007801CN0020001N9-00611+99999100861ADDAA199000691AY111999GF108991081051008001999999KA1999N-00891MD1810341+9999MW1711
0057264220999991928021612004+56983+024083FM-12+000299999V0201401N00931004501CN0005001N9-00391+99999100161ADDAY171999GF108991081051004501999999MD1810341+9999MW1731
0051264220999991928021712004+56983+024083FM-12+000299999V0202301N00461007801CN0100001N9+00281+99999098911ADDAY121999GF108991081051008001999999MD1810061+9999
0057264220999991928021812004+56983+024083FM-12+000299999V0203401N01231004501CN0010001N9-00611+99999100191ADDAY171999GF108991081051004501999999MD1310401+9999MW1731
0057264220999991928021906004+56983+024083FM-12+000299999V0200701N00261007801CN0100001N9-01001+99999101491ADDAY171999GF108991081051008001999999MD1310201+9999MW1701
0051264220999991928021912004+56983+024083FM-12+000299999V0203401N00261220001CN0500001N9-00781+99999101841ADDAY111999GF101991011051012501001001MD1310261+9999
0051264220999991928022106004+56983+024083FM-12+000299999V0203601N01231007801CN0100001N9-00781+99999103301ADDAY121999GF108991081051008001999999MD1310061+9999
0051264220999991928022112004+56983+024083FM-12+000299999V0203601N00671007801CN0100001N9-00611+99999103131ADDAY111999GF106991061051008001001001MD1810061+9999
0064264220999991928022206004+56983+024083FM-12+000299999V0203601N00461220001CN0500001N9-00891+99999103261ADDAY101999GF100991001001999999001001KA1999N-01221MD1310141+9999
0051264220999991928022212004+56983+024083FM-12+000299999V0203601N00931220001CN0500001N9-00721+99999103331ADDAY111999GF102991021051008001001001MD1310061+9999
0064264220999991928022306004+56983+024083FM-12+000299999V0200701N00261007801CN0100001N9-00781+99999103371ADDAY121999GF108991081051008001999999KA1999N-01111MD1210061+9999
0072264220999991928022312004+56983+024083FM-12+000299999V0203201N00101007801CN0200001N9-00721+99999103501ADDAY111999GF106991061051008001001001EQDQ01+000032APCTENQ02+000002APC3  
0064264220999991928022406004+56983+024083FM-12+000299999V0201801N00101004501CN0040001N9-00611+99999103721ADDAY121999GF108991081051004501999999KA1999N-00781MD1310061+9999
0072264220999991928022412004+56983+024083FM-12+000299999V0202001N00261007801CN0100001N9-00221+99999103901ADDAY181999GF108991081051008001999999EQDQ01+000032APCTENQ02+000002APC3  
0072264220999991928022506004+56983+024083FM-12+000299999V0202901N00461004501CN0100001N9-00111+99999104071ADDAY121999GF108991081051004501999999EQDQ01+000032APCTENQ02+000002APC3  
0051264220999991928022512004+56983+024083FM-12+000299999V0202701N00671007801CN0100001N9+00001+99999103941ADDAY121999GF108991081051008001999999MD1810061+9999
0051264220999991928022606004+56983+024083FM-12+000299999V0202701N00461220001CN0200001N9-00111+99999102921ADDAY111999GF104991041051008001001001MD1810141+9999
0051264220999991928022612004+56983+024083FM-12+000299999V0203601N00671004501CN0100001N9+00001+99999102781ADDAY111999GF107991071051004501001001MD1810061+9999
0064264220999991928022706004+56983+024083FM-12+000299999V0202901N00261220001CN0040001N9-00611+99999103331ADDAY101999GF100991001001999999001001KA1999N-00781MD1310141+9999
0051264220999991928022712004+56983+024083FM-12+000299999V0203201N00461220001CN0500001N9-00221+99999103471ADDAY101999GF100991001001999999001001MD1310061+9999
0081264220999991928022806004+56983+024083FM-12+000299999V0200901N00101000601CN0000501N9-00611+99999103731ADDAA199000691AY141999GF108991081051000751999999KA1999N-00781MD1310061+9999MW1471
0072264220999991928022906004+56983+024083FM-12+000299999V0202301N00261002401CN0020001N9-00221+99999103641ADDAY111999GF108991081051002501999999EQDQ01+000032APCTENQ02+000002APC3  
0072264220999991928022912004+56983+024083FM-12+000299999V0202301N00461002401CN0040001N9-00111+99999103631ADDAY161999GF108991081051002501999999EQDQ01+000032APCTENQ02+000002APC3  
