0088264470999991929010612004+56783+027733FM-12+012099999V0202701N00101220001CN0040001N9-01001+99999104501ADDAY141999GF108991999001999999021001EQDQ01+000002SCOTLCQ02+000032APCTENQ03+000002APC3  
0101264470999991929010906004+56783+027733FM-12+012099999V0202701N00101220001CN0020001N9-01391+99999999999ADDAY101999GF108991999001999999021001KA1999N-01721EQDQ01+000002SCOTLCQ02+000032APCTENQ03+000002APC3  
0070264470999991929011012004+56783+027733FM-12+012099999V0202701N00671220001CN0100001N9-00501+99999103591ADDAY121999GF108991999001999999021001MD1810061+9999EQDQ01+000002SCOTLC
0051264470999991929011112004+56783+027733FM-12+012099999V0202701N01231007801CN0100001N9+00001+99999102111ADDAY121999GF108991081051008001999999MD1810261+9999
0070264470999991929011212004+56783+027733FM-12+012099999V0203401N01231220001CN0200001N9-00281+99999101151ADDAY111999GF101991011051999999001001MD1210141+9999EQDQ01+000992SCOLCB
0116264470999991929011306004+56783+027733FM-12+012099999V0202501N01541220001CN0200001N9-00111+99999099861ADDAA199000691AY171999GF108991999001999999021001KA1999N-01111MD1810942+9999MW1471EQDQ01+000002SCOTLCQ02+000942APC3  
0092264470999991929011312004+56783+027733FM-12+012099999V0202501N00931004501CN0040001N9+00001+99999098792ADDAY171999GF108991081061004501999999MD1810542+9999MW1701EQDQ01+098793APOSLPQ02+000542APC3  
0075264470999991929011406004+56783+027733FM-12+012099999V0203201N00671004501CN0100001N9-01281+99999099311ADDAA199000391AY101999GF107991071051004501001001KA1999N-01281MD1210261+9999
0057264470999991929011412004+56783+027733FM-12+012099999V0203201N00461220001CN0040001N9-01281+99999099671ADDAY171999GF104991041051004501001001MD1210141+9999MW1701
0064264470999991929011506004+56783+027733FM-12+012099999V0202501N00261220001CN0200001N9-01281+99999099931ADDAY101999GF104991041051008001001001KA1999N-01721MD1210061+9999
0072264470999991929011512004+56783+027733FM-12+012099999V0202301N00261220001CN0200001N9-01111+99999099991ADDAY111999GF102991001001999999001021EQDQ01+000032APCTENQ02+000002APC3  
0083264470999991929011606004+56783+027733FM-12+012099999V0201401N00931220001CN0100001N9-01391+99999100021ADDAY101999GF108991999001999999021001KA1999N-01611MD1810141+9999EQDQ01+000002SCOTLC
0072264470999991929011612004+56783+027733FM-12+012099999V0201401N00931007801CN0100001N9-01111+99999100021ADDAY121999GF107991071051008001001001EQDQ01+000032APCTENQ02+000002APC3  
0094264470999991929011706004+56783+027733FM-12+012099999V0201601N00461220001CN0100001N9-01111+99999100241ADDAA199000691AY171999GF108991999001999999021001KA1999N-01111MD1210141+9999EQDQ01+000002SCOTLC
0057264470999991929011712004+56783+027733FM-12+012099999V0201601N00671007801CN0040001N9-01111+99999100521ADDAY171999GF108991081061008001999999MD1210061+9999MW1711
0081264470999991929011806004+56783+027733FM-12+012099999V0202701N00671007801CN0040001N9-01221+99999100931ADDAA199000591AY171999GF108991081061008001999999KA1999N-01721MD1210261+9999MW1701
0051264470999991929011812004+56783+027733FM-12+012099999V0202901N001019999999N0100001N9-01111+99999101151ADDAY121999GF108991999999999999021001MD1210061+9999
0064264470999991929011906004+56783+027733FM-12+012099999V0203201N00101007801CN0100001N9-01281+99999100291ADDAY121999GF108991081051008001999999KA1999N-01501MD1810401+9999
0057264470999991929011912004+56783+027733FM-12+012099999V0202901N00261007801CN0020001N9-01111+99999099761ADDAY171999GF108991081061008001999999MD1810141+9999MW1711
0075264470999991929012006004+56783+027733FM-12+012099999V0202901N001019999999N0100001N9-01001+99999101711ADDAA199000591AY171999GF108991999999008001999999KA1999N-01221MD1210461+9999
0070264470999991929012012004+56783+027733FM-12+012099999V0203201N00101007801CN0100001N9-00781+99999102522ADDAY171999GF108991081051008001999999MD1210461+9999EQDQ01+102523APOSLP
0081264470999991929012106004+56783+027733FM-12+012099999V0203401N00101007801CN0100001N9-01221+99999103891ADDAA199000691AY171999GF108991081061008001999999KA1999N-01281MD1210201+9999MW1701
0070264470999991929012212004+56783+027733FM-12+012099999V0201601N00101220001CN0100001N9-01391+99999103361ADDAY121999GF108991999001999999021001MD1810061+9999EQDQ01+000002SCOTLC
0099264470999991929012406004+56783+027733FM-12+012099999V0201601N00261220001CN0100001N9-02281+99999103011ADDAY101999GF108991999001999999021001KA1999N+99999MD1210061+9999EQDQ01+000002SCOTLCQ02 -02112ATMN  
0070264470999991929012412004+56783+027733FM-12+012099999V0201401N00671220001CN0100001N9-01281+99999103171ADDAY121999GF108991999001999999021001MD1210061+9999EQDQ01+000002SCOTLC
0083264470999991929012506004+56783+027733FM-12+012099999V0201401N00101220001CN0100001N9-01111+99999103071ADDAY101999GF108991999001999999021001KA1999N-01611MD1210061+9999EQDQ01+000002SCOTLC
0088264470999991929012512004+56783+027733FM-12+012099999V0201401N00101220001CN0100001N9-01001+99999103171ADDAY121999GF108991999001999999021001EQDQ01+000002SCOTLCQ02+000032APCTENQ03+000002APC3  
0085264470999991929012606004+56783+027733FM-12+012099999V0201401N00461007801CN0100001N9-01111+99999103311ADDAY101999GF108991081051008001999999KA1999N-01891EQDQ01+000032APCTENQ02+000002APC3  
0051264470999991929012612004+56783+027733FM-12+012099999V0201401N002619999999N0100001N9-01001+99999103401ADDAY121999GF108991999999012501999999MD1210061+9999
0085264470999991929012706004+56783+027733FM-12+012099999V0201101N00461007801CN0100001N9-01501+99999103301ADDAY101999GF108991081051008001999999KA1999N-01611EQDQ01+000032APCTENQ02+000002APC3  
0072264470999991929012712004+56783+027733FM-12+012099999V0201101N00461012301CN0200001N9-01111+99999103271ADDAY101999GF108991081051012501999999EQDQ01+000032APCTENQ02+000002APC3  
0064264470999991929012806004+56783+027733FM-12+012099999V0200901N00671007801CN0100001N9-01001+99999103331ADDAY111999GF106991061051008001001001KA1999N-01501MD1210061+9999
0051264470999991929012812004+56783+027733FM-12+012099999V0200901N00671220001CN0100001N9-01281+99999103301ADDAY111999GF104991001001999999001081MD1810061+9999
0083264470999991929012906004+56783+027733FM-12+012099999V0200901N00671220001CN0100001N9-01391+99999104031ADDAY111999GF108991999001999999021001KA1999N-01611MD1210141+9999EQDQ01+000002SCOTLC
0070264470999991929013006004+56783+027733FM-12+012099999V0201101N00101007801CN0100001N9-01611+99999104661ADDAY171999GF108991081061008001999999KA1999N-02111MD1210141+9999MW1231
0051264470999991929013012004+56783+027733FM-12+012099999V0200901N00101220001CN0100001N9-01891+99999104771ADDAY101999GF100991001001999999001001MD1210061+9999
0070264470999991929013112004+56783+027733FM-12+012099999V0209991C00001220001CN0020001N9-01611+99999104961ADDAY101999GF100991001001999999001001MD1810061+9999EQDQ01+003602WODIR 
0085264470999991929020106004+56783+027733FM-12+012099999V0202301N00101220001CN0040001N9-02501+99999104771ADDAY101999GF100991001001999999001001KA1999N-02781EQDQ01+000032APCTENQ02+000002APC3  
0051264470999991929020112004+56783+027733FM-12+012099999V0202301N001019999999N0100001N9-01501+99999104781ADDAY101999GF199999999001999999999999MD1810061+9999
0051264470999991929020212004+56783+027733FM-12+012099999V0202501N01231007801CN0100001N9-01001+99999103191ADDAY121999GF108991081051008001999999MD1810261+9999
0070264470999991929020312004+56783+027733FM-12+012099999V0203401N00261220001CN0100001N9-00281+99999101951ADDAY121999GF108991999001999999021001MD1810201+9999EQDQ01+000002SCOTLC
0057264470999991929020412004+56783+027733FM-12+012099999V0202701N00461007801CN0100001N9-00391+99999101231ADDAY121999GF108991081061008001999999MD1810061+9999MW1231
0051264470999991929020512004+56783+027733FM-12+012099999V0200201N00461220001CN0200001N9-02721+99999103061ADDAY101999GF100991001001999999001001MD1210141+9999
0072264470999991929020612004+56783+027733FM-12+012099999V0203201N00101220001CN0100001N9-02281+99999103491ADDAY101999GF104991001001999999001081EQDQ01+000032APCTENQ02+000002APC3  
0051264470999991929020712004+56783+027733FM-12+012099999V0203601N00261220001CN0200001N9-02281+99999103391ADDAY101999GF100991001001999999001001MD1810141+9999
0072264470999991929020812004+56783+027733FM-12+012099999V0200201N00261220001CN0200001N9-02221+99999102161ADDAY111999GF104991001001999999001081EQDQ01+000032APCTENQ02+000002APC3  
0051264470999991929020912004+56783+027733FM-12+012099999V0200501N00261220001CN0100001N9-02891+99999103751ADDAY101999GF100991001001999999001001MD1210141+9999
0051264470999991929021012004+56783+027733FM-12+012099999V0200201N00261220001CN0200001N9-02391+99999104001ADDAY101999GF100991001001999999001001MD1810061+9999
0064264470999991929021106004+56783+027733FM-12+012099999V0200501N00261220001CN0100001N9-02501+99999103631ADDAY101999GF100991001001999999001001KA1999N-02721MD1810141+9999
0085264470999991929021206004+56783+027733FM-12+012099999V0200201N00261220001CN0100001N9-02281+99999103401ADDAY101999GF104991041011012501001001KA1999N-02721EQDQ01+000032APCTENQ02+000002APC3  
0070264470999991929021212004+56783+027733FM-12+012099999V0209991C00001220001CN0100001N9-01501+99999103531ADDAY111999GF101991011051008001001001MD1810061+9999EQDQ01+000502WODIR 
0051264470999991929021312004+56783+027733FM-12+012099999V0200901N00461007801CN0100001N9-01281+99999103221ADDAY121999GF108991081051008001999999MD1210141+9999
0083264470999991929021406004+56783+027733FM-12+012099999V0200501N00461220001CN0100001N9-01221+99999103721ADDAY121999GF108991999001999999021001KA1999N-01501MD1210141+9999EQDQ01+000002SCOTLC
0070264470999991929021412004+56783+027733FM-12+012099999V0200701N00461220001CN0100001N9-01001+99999103871ADDAY121999GF108991999001999999021001MD1210061+9999EQDQ01+000002SCOTLC
0085264470999991929021506004+56783+027733FM-12+012099999V0200701N00461220001CN0200001N9-01781+99999104061ADDAY101999GF100991001001999999001001KA1999N-02001EQDQ01+000032APCTENQ02+000002APC3  
0083264470999991929021606004+56783+027733FM-12+012099999V0200501N00101220001CN0100001N9-01721+99999103601ADDAY101999GF108991999001999999021001KA1999N-02281MD1810061+9999EQDQ01+000002SCOTLC
0088264470999991929021612004+56783+027733FM-12+012099999V0200501N00261220001CN0100001N9-01501+99999103541ADDAY121999GF108991999001999999021001EQDQ01+000002SCOTLCQ02+000032APCTENQ03+000002APC3  
0083264470999991929021806004+56783+027733FM-12+012099999V0203401N00101220001CN0040001N9-01611+99999104531ADDAY101999GF108991999001999999021001KA1999N-02111MD1210061+9999EQDQ01+000002SCOTLC
0076264470999991929021812004+56783+027733FM-12+012099999V0202701N00101220001CN0100001N9-01001+99999104401ADDAY121999GF108991999001999999021001IA1009MD1810061+9999EQDQ01+000002SCOTLC
0083264470999991929021906004+56783+027733FM-12+012099999V0203201N00101220001CN0100001N9-01781+99999103831ADDAY111999GF108991999001999999021001KA1999N-01891MD1810061+9999EQDQ01+000002SCOTLC
0070264470999991929021912004+56783+027733FM-12+012099999V0203201N00101220001CN0100001N9-01391+99999103751ADDAY121999GF108991999001999999021001MD1810061+9999EQDQ01+000002SCOTLC
0051264470999991929022012004+56783+027733FM-12+012099999V0200501N00101220001CN0200001N9-01001+99999103981ADDAY111999GF100991001001999999001001MD1210141+9999
0064264470999991929022106004+56783+027733FM-12+012099999V0202501N00101220001CN0040001N9-02391+99999104261ADDAY101999GF102991001001999999001081KA1999N-02891MD1810141+9999
0070264470999991929022112004+56783+027733FM-12+012099999V0202301N00261220001CN0100001N9-02501+99999103721ADDAY111999GF108991999001999999021001MD1810261+9999EQDQ01+000002SCOTLC
0057264470999991929022212004+56783+027733FM-12+012099999V0202301N00671007801CN0010001N9-00721+99999101471ADDAY171999GF108991081061008001999999MD1810201+9999MW1711
0051264470999991929022312004+56783+027733FM-12+012099999V0200901N00261220001CN0040001N9-01281+99999101411ADDAY171999GF106991001001999999001081MD1210061+9999
0094264470999991929022406004+56783+027733FM-12+012099999V0200701N00671220001CN0100001N9-01391+99999999999ADDAA199000391AY171999GF108991999001999999021001KA1999N-01501MD1310061+9999EQDQ01+000002SCOTLC
0064264470999991929022506004+56783+027733FM-12+012099999V0200901N00671220001CN0100001N9-01721+99999102951ADDAY101999GF104991001001999999001081KA1999N-01781MD1210061+9999
0070264470999991929022512004+56783+027733FM-12+012099999V0200901N00671220001CN0040001N9-01501+99999102901ADDAY111999GF108991999001999999021001MD1810061+9999EQDQ01+000002SCOTLC
0081264470999991929022606004+56783+027733FM-12+012099999V0201401N00461007801CN0040001N9-01501+99999102201ADDAA199000591AY171999GF108991081061008001999999KA1999N-01611MD1810141+9999MW1711
0057264470999991929022612004+56783+027733FM-12+012099999V0200701N00261007801CN0020001N9-01281+99999101791ADDAY171999GF108991081061008001999999MD1810201+9999MW1711
0075264470999991929022706004+56783+027733FM-12+012099999V0203201N001019999999N0100001N9-01611+99999101411ADDAA199003091AY171999GF108991999999008001999999KA1999N-01781MD1210141+9999
0051264470999991929022712004+56783+027733FM-12+012099999V0202901N00101220001CN0200001N9-01281+99999101671ADDAY111999GF101991001001999999001081MD1210141+9999
0106264470999991929022806004+56783+027733FM-12+012099999V0203201N00101024001CN0040001N9-01281+99999102331ADDAA199000591AY171999GF108991081061999999001001IA1009KA1999N-01891MD1210201+9999MW1711EQDQ01+000992SCOLCB
0051264470999991929022812004+56783+027733FM-12+012099999V0203601N00671220001CN0200001N9-01111+99999102821ADDAY111999GF100991001001999999001001MD1210401+9999
