0064264470999991928010206004+56783+027733FM-12+012099999V0202701N002619999999N0100001N9-00781+99999103511ADDAY121999GF108991999999008001999999KA1999N-00891MD1810061+9999
0064264470999991928010306004+56783+027733FM-12+012099999V0202301N00461012301CN0200001N9-01001+99999102731ADDAY121999GF107991071011012501001001KA1999N-01111MD1810141+9999
0064264470999991928010406004+56783+027733FM-12+012099999V0202301N00461220001CN0200001N9-01221+99999101991ADDAY111999GF106991001001999999001081KA1999N-01501MD1810141+9999
0081264470999991928010506004+56783+027733FM-12+012099999V0201801N00931012301CN0010001N9-00391+99999099721ADDAA199000391AY171999GF108991081061012501999999KA1999N-00891MD1710401+9999MW1711
0094264470999991928010606004+56783+027733FM-12+012099999V0202301N00671220001CN0100001N9+00111+99999098931ADDAA199000591AY121999GF108991999001999999021001KA1999N+00001MD1210061+9999EQDQ01+000002SCOTLC
0075264470999991928010906004+56783+027733FM-12+012099999V0201801N00671007801CN0100001N9-00391+99999099861ADDAA199000591AY171999GF108991081051008001999999KA1999N-00501MD1810141+9999
0064264470999991928011006004+56783+027733FM-12+012099999V0202501N00671007801CN0100001N9+00111+99999100431ADDAY121999GF108991081051008001999999KA1999N+00001MD1210201+9999
0085264470999991928011106004+56783+027733FM-12+012099999V0202301N006719999999N0100001N9+00111+99999100911ADDAY121999GF108991999999012501999999KA1999N+00001EQDQ01+000032APCTENQ02+000002APC3  
0085264470999991928011306004+56783+027733FM-12+012099999V0202301N00931004501CN0100001N9+00111+99999100661ADDAY121999GF108991081051004501999999KA1999N+00001EQDQ01+000032APCTENQ02+000002APC3  
0064264470999991928011406004+56783+027733FM-12+012099999V0202001N006719999999N0040001N9+00221+99999099591ADDAY121999GF108991999999008001999999KA1999N-00111MD1210061+9999
0075264470999991928011606004+56783+027733FM-12+012099999V0201601N00101012301CN0100001N9+00001+99999100121ADDAA199001091AY171999GF108991081061012501999999KA1999N-00221MD1810141+9999
0075264470999991928011706004+56783+027733FM-12+012099999V0203401N00101220001CN0200001N9-01281+99999101831ADDAA199000391AY101999GF100991001001999999001001KA1999N-01391MD1210261+9999
0083264470999991928011806004+56783+027733FM-12+012099999V0200501N00261220001CN0040001N9-01781+99999103131ADDAY121999GF108991999001999999021001KA1999N-02001MD1310141+9999EQDQ01+000002SCOTLC
0064264470999991928011906004+56783+027733FM-12+012099999V0203401N00101220001CN0200001N9-02391+99999103711ADDAY101999GF101991001001999999001081KA1999N-02501MD1410001+9999
0085264470999991928012006004+56783+027733FM-12+012099999V0201101N00261007801CN0100001N9-01781+99999103301ADDAY101999GF106991061051008001001001KA1999N-02111EQDQ01+000032APCTENQ02+000002APC3  
0064264470999991928012106004+56783+027733FM-12+012099999V0201801N002619999999N0100001N9-00721+99999103271ADDAY121999GF108991999999008001999999KA1999N-01001MD1210141+9999
0064264470999991928012206004+56783+027733FM-12+012099999V0201401N002619999999N0100001N9-01111+99999103551ADDAY101999GF108991999999008001999999KA1999N-01111MD1210061+9999
0094264470999991928012406004+56783+027733FM-12+012099999V0201401N00461220001CN0100001N9-01281+99999102861ADDAA199041091AY111999GF108991999001999999021001KA1999N-01391MD1810061+9999EQDQ01+000002SCOTLC
0081264470999991928012506004+56783+027733FM-12+012099999V0201801N01231007801CN0040001N9-00221+99999101141ADDAA199000391AY171999GF108991081061008001999999KA1999N-00891MD1710341+9999MW1231
0064264470999991928012706004+56783+027733FM-12+012099999V0202301N00671220001CN0100001N9+00001+99999999999ADDAY121999GF104991041051004501001001KA1999N-00111MD1210141+9999
0064264470999991928012806004+56783+027733FM-12+012099999V0201801N004619999999N0100001N9-00611+99999102501ADDAY111999GF108991999999008001999999KA1999N-00721MD1810061+9999
0083264470999991928013106004+56783+027733FM-12+012099999V0202301N00261220001CN0010001N9-00781+99999102211ADDAY121999GF108991999001999999021001KA1999N-00891MD1210061+9999EQDQ01+000002SCOTLC
0064264470999991928020406004+56783+027733FM-12+012099999V0202001N00261220001CN0100001N9-01611+99999103941ADDAY101999GF102991001001999999001081KA1999N-01721MD1210141+9999
0064264470999991928020506004+56783+027733FM-12+012099999V0201801N00261220001CN0100001N9-01501+99999103911ADDAY101999GF104991001001999999001081KA1999N-01611MD1810141+9999
0083264470999991928020606004+56783+027733FM-12+012099999V0201801N00461220001CN0100001N9-00891+99999102401ADDAY101999GF108991999001999999021001KA1999N-01391MD1810261+9999EQDQ01+000002SCOTLC
0075264470999991928021006004+56783+027733FM-12+012099999V0202301N01901007801CN0100001N9+00221+99999098501ADDAA199000391AY161999GF108991081051008001999999KA1999N+00001MD1710261+9999
0094264470999991928021106004+56783+027733FM-12+012099999V0202301N00261220001CN0200001N9-00281+99999099471ADDAA199000591AY171999GF107991999001999999021001KA1999N-00281MD1210141+9999EQDQ01+000002SCOTLC
0075264470999991928021306004+56783+027733FM-12+012099999V0202501N00671007801CN0100001N9-00221+99999099751ADDAA199000591AY171999GF108991081051008001999999KA1999N-00501MD1210261+9999
0118264470999991928021406004+56783+027733FM-12+012099999V0203401N00461220001CN0100001N9-00281+99999099861ADDAA199002091AY171999GF108991999001999999021001KA1999N-00501MW1231EQDQ01+000002SCOTLCQ02+000032APCTENQ03+000002APC3  
0083264470999991928021506004+56783+027733FM-12+012099999V0203201N00101220001CN0100001N9-00721+99999101301ADDAY101999GF108991999001999999021001KA1999N-01501MD1210261+9999EQDQ01+000002SCOTLC
0075264470999991928021706004+56783+027733FM-12+012099999V0209999999999007801CN0010001N9+99999+99999999999ADDAA199003091AY171999GF108991081061008001999999KA1999N-00781MD1710261+9999
0081264470999991928022306004+56783+027733FM-12+012099999V0203201N00101007801CN0100001N9-01111+99999103201ADDAA199000391AY171999GF108991081061008001999999KA1999N-01221MD1210061+9999MW1231
0064264470999991928022406004+56783+027733FM-12+012099999V0202701N00101220001CN0100001N9-01001+99999103751ADDAY121999GF104991041051008001001001KA1999N-01221MD1210141+9999
0083264470999991928022506004+56783+027733FM-12+012099999V0202901N00261220001CN0100001N9-00221+99999103901ADDAY121999GF108991999001999999021001KA1999N-00611MD1810061+9999EQDQ01+000002SCOTLC
0089264470999991928022706004+56783+027733FM-12+012099999V0203201N00101220001CN0005001N9-00611+99999103221ADDAY141999GF108991999001999999021001KA1999N-00721MD1210261+9999MW1471EQDQ01+000002SCOTLC
0089264470999991928022806004+56783+027733FM-12+012099999V0202701N00101220001CN0005001N9-01221+99999103731ADDAY141999GF108991999001999999021001KA1999N-01611MD1210141+9999MW1471EQDQ01+000002SCOTLC
0101264470999991928022906004+56783+027733FM-12+012099999V0202701N00261220001CN0040001N9-00611+99999103631ADDAY141999GF108991999001999999021001KA1999N-00721EQDQ01+000002SCOTLCQ02+000032APCTENQ03+000002APC3  
