0062265090999991929080106004+55717+021133FM-12+000399999V0201801N00261220001CN0040001N9+01721+99999100331ADDAA199000691AY161999GF108991001001999999001081MD1990061+9999
0051265090999991929080112004+55717+021133FM-12+000399999V0201801N006719999999N0040001N9+01721+99999100261ADDAY161999GF108991021061001501999999MD1510001+9999
0062265090999991929080118004+55717+021133FM-12+000399999V0201401N004619999999N0040001N9+01891+99999099971ADDAA199002091AY111999GF106991021001000251071999MD1810141+9999
0062265090999991929080206004+55717+021133FM-12+000399999V0202001N00671220001CN0200001N9+01781+99999100141ADDAA199003091AY191999GF106991001001999999001091MD1310061+9999
0051265090999991929080212004+55717+021133FM-12+000399999V0202301N00931220001CN0100001N9+01891+99999100531ADDAY111999GF104991011011008001001091MD1310201+9999
0051265090999991929080218004+55717+021133FM-12+000399999V0202301N006719999999N0200001N9+01721+99999100731ADDAY111999GF106991041011008001001011MD1310141+9999
0051265090999991929080306004+55717+021133FM-12+000399999V0202501N01231220001CN0200001N9+01501+99999101311ADDAY101999GF104991011011012501031999MD1310201+9999
0051265090999991929080312004+55717+021133FM-12+000399999V0202701N01541220001CN0200001N9+01781+99999101671ADDAY101999GF101991011071012501999999MD1310201+9999
0051265090999991929080412004+55717+021133FM-12+000399999V0202001N00261220001CN0200001N9+02001+99999102191ADDAY101999GF100991001001999999001001MD1810201+9999
0051265090999991929080418004+55717+021133FM-12+000399999V0209999999999220001CN9999999N9+99999+99999999999ADDAY101999GF101991011001999999031001MD1210141+9999
0062265090999991929080506004+55717+021133FM-12+000399999V0201101N00261007801CN0100001N9+01721+99999101471ADDAA199001091AY161999GF107991071051008001001001MD1810141+9999
0051265090999991929080518004+55717+021133FM-12+000399999V0209991C00001220001CN0200001N9+02111+99999101031ADDAY111999GF104991041051012501001001MD1810061+9999
0043265090999991929080606004+55717+021133FM-12+000399999V0203201N002619999999N0100001N9+01781+99999101341ADDGF106991021051004501001011MD1310141+9999
0051265090999991929080618004+55717+021133FM-12+000399999V0203201N00461220001CN0200001N9+01611+99999101681ADDAY101999GF100991001001999999001001MD1310061+9999
0072265090999991929080706004+55717+021133FM-12+000399999V0200201N00461220001CN0200001N9+01501+99999101781ADDAY101999GF100991001001999999001001EQDQ01+000032APCTENQ02+000002APC3  
0051265090999991929080712004+55717+021133FM-12+000399999V0203401N00671220001CN0500001N9+01891+99999101671ADDAY101999GF101991001001999999001011MD1510141+9999
0051265090999991929080718004+55717+021133FM-12+000399999V0203601N00101220001CN0200001N9+01721+99999101511ADDAY101999GF102991001001999999001081MD1810061+9999
0072265090999991929080806004+55717+021133FM-12+000399999V0200201N00101220001CN0200001N9+01781+99999101391ADDAY101999GF102991001001999999001081EQDQ01+000082APCTENQ02+000002APC3  
0051265090999991929080812004+55717+021133FM-12+000399999V0203201N00261220001CN0200001N9+02501+99999101221ADDAY101999GF102991021011012501001001MD1810141+9999
0051265090999991929080818004+55717+021133FM-12+000399999V0203601N001019999999N0200001N9+02221+99999101151ADDAY111999GF106991041011008001001011MD1810061+9999
0072265090999991929080906004+55717+021133FM-12+000399999V0201601N00101220001CN0200001N9+02221+99999101141ADDAY101999GF102991001001999999011081EQDQ01+000032APCTENQ02+000002APC3  
0051265090999991929080918004+55717+021133FM-12+000399999V0203401N002619999999N0040001N9+01611+99999101491ADDAY111999GF107991021061004501001011MD1310141+9999
0062265090999991929081006004+55717+021133FM-12+000399999V0203401N00101007801CN0100001N9+01721+99999101601ADDAA199000691AY181999GF108991081051008001999999MD1010061+9999
0051265090999991929081012004+55717+021133FM-12+000399999V0203601N00101007801CN0100001N9+01891+99999101701ADDAY121999GF108991081051008001999999MD1110061+9999
0051265090999991929081118004+55717+021133FM-12+000399999V0202001N00461220001CN0040001N9+02001+99999101861ADDAY111999GF107991001001999999071999MD1810061+9999
0051265090999991929081206004+55717+021133FM-12+000399999V0209991C00001220001CN0200001N9+01781+99999102031ADDAY101999GF102991001001999999001081MD1810061+9999
0051265090999991929081212004+55717+021133FM-12+000399999V0202001N00671220001CN0100001N9+02611+99999102361ADDAY111999GF104991011011008001011999MD1990061+9999
0051265090999991929081218004+55717+021133FM-12+000399999V0201801N00101220001CN0100001N9+02111+99999101761ADDAY111999GF101991001001999999011011MD1810061+9999
0068265090999991929081306004+55717+021133FM-12+000399999V0202001N00101220001CN9999999N9+01611+99999101601ADDAA199004091AY161999GF104991041001002501031001MD1010061+9999MW1611
0072265090999991929081318004+55717+021133FM-12+000399999V0202701N00671220001CN0200001N9+01611+99999102151ADDAY101999GF102991011031012501999999EQDQ01+000042APCTENQ02+000062APC3  
0051265090999991929081406004+55717+021133FM-12+000399999V0202701N00461220001CN0200001N9+01721+99999102351ADDAY101999GF101991011011012501001001MD1310061+9999
0070265090999991929081418004+55717+021133FM-12+000399999V0201801N00101220001CN0040001N9+01721+99999102151ADDAY101999GF102991999001999999011001MD1810141+9999EQDQ01+000002SCOTLC
0051265090999991929081506004+55717+021133FM-12+000399999V0202001N00931220001CN0100001N9+01891+99999101751ADDAY111999GF104991021001999999071999MD1510141+9999
0072265090999991929081512004+55717+021133FM-12+000399999V0202501N00461012301CN0200001N9+01891+99999101761ADDAY111999GF108991081051012501999999EQDQ01+000032APCTENQ02+000002APC3  
0072265090999991929081518004+55717+021133FM-12+000399999V0203201N00101007801CN0100001N9+01611+99999101761ADDAY121999GF108991061061008001001071EQDQ01+000032APCTENQ02+000002APC3  
0072265090999991929081606004+55717+021133FM-12+000399999V0209991C00001220001CN0100001N9+01721+99999102021ADDAY111999GF101991011011008001001001EQDQ01+000032APCTENQ02+000002APC3  
0072265090999991929081612004+55717+021133FM-12+000399999V0202701N00261220001CN0200001N9+01891+99999102081ADDAY101999GF102991011011012501001011EQDQ01+000032APCTENQ02+000002APC3  
0072265090999991929081618004+55717+021133FM-12+000399999V0203601N00101220001CN0100001N9+01721+99999102101ADDAY101999GF104991001001999999001081EQDQ01+000032APCTENQ02+000002APC3  
0072265090999991929081706004+55717+021133FM-12+000399999V0209991C00001220001CN0100001N9+01781+99999102121ADDAY101999GF102991001001999999001081EQDQ01+000032APCTENQ02+000002APC3  
0051265090999991929081712004+55717+021133FM-12+000399999V0201401N00461220001CN0100001N9+02501+99999101951ADDAY101999GF102991001001999999001081MD1510141+9999
0078265090999991929081812004+55717+021133FM-12+000399999V0203401N001019999999N0040001N9+02001+99999101591ADDAY111999GF108991041061002501999999MW1601EQDQ01+000012APCTENQ02+000002APC3  
0068265090999991929081818004+55717+021133FM-12+000399999V0209991C00001004501CN0010001N9+02111+99999101411ADDAA199002091AY191999GF108991081061004501999999MD1610061+9999MW1611
0072265090999991929081906004+55717+021133FM-12+000399999V0202901N00261220001CN0100001N9+01721+99999101461ADDAY111999GF104991021011008001001011EQDQ01+000042APCTENQ02+000142APC3  
0051265090999991929081918004+55717+021133FM-12+000399999V0202701N00461220001CN0100001N9+01611+99999101721ADDAY111999GF104991021011999999001011MD1310061+9999
0051265090999991929082006004+55717+021133FM-12+000399999V0203201N00461220001CN0200001N9+01501+99999102021ADDAY101999GF102991021011000751001001MD1310201+9999
0072265090999991929082018004+55717+021133FM-12+000399999V0203201N00101220001CN0500001N9+01501+99999102161ADDAY101999GF102991001001999999001011EQDQ01+000032APCTENQ02+000002APC3  
0072265090999991929082106004+55717+021133FM-12+000399999V0200901N00101220001CN0200001N9+01391+99999102311ADDAY101999GF104991001001999999001011EQDQ01+000042APCTENQ02+000062APC3  
0089265090999991929082118004+55717+021133FM-12+000399999V0209991C00001002401CN0040001N9+01281+99999102181ADDAA199000691AY161999GF108991071061002501999999MW1611EQDQ01+000082APCTENQ02+000002APC3  
0051265090999991929082206004+55717+021133FM-12+000399999V0200501N00101007801CN0200001N9+01391+99999102121ADDAY121999GF108991081051008001999999MD1710061+9999
0072265090999991929082218004+55717+021133FM-12+000399999V0203401N00101220001CN0100001N9+01391+99999101901ADDAY101999GF102991011011008001011999EQDQ01+000032APCTENQ02+000002APC3  
0072265090999991929082306004+55717+021133FM-12+000399999V0203201N00101220001CN0200001N9+01611+99999102061ADDAY101999GF102991021011012501999999EQDQ01+000032APCTENQ02+000002APC3  
0051265090999991929082312004+55717+021133FM-12+000399999V0203201N00261220001CN0200001N9+01781+99999102161ADDAY101999GF101991011011012501001001MD1310061+9999
0088265090999991929082318004+55717+021133FM-12+000399999V0209991C00001220001CN0100001N9+01391+99999102161ADDAY101999GF102991999001999999011001EQDQ01+000002SCOTLCQ02+000032APCTENQ03+000002APC3  
0051265090999991929082406004+55717+021133FM-12+000399999V0201801N00461220001CN0100001N9+01501+99999101951ADDAY111999GF107991001001999999011011MD1810141+9999
0051265090999991929082412004+55717+021133FM-12+000399999V0202001N00931220001CN0100001N9+02221+99999101751ADDAY111999GF106991001001999999011011MD1810141+9999
0051265090999991929082512004+55717+021133FM-12+000399999V0202501N00671220001CN0200001N9+01781+99999101601ADDAY161999GF104991011011012501001011MD1310201+9999
0062265090999991929082518004+55717+021133FM-12+000399999V0202701N00671220001CN0100001N9+01501+99999101841ADDAA199000391AY101999GF104991001001999999011091MD1510001+9999
0051265090999991929082606004+55717+021133FM-12+000399999V0202701N006719999999N0200001N9+01501+99999101411ADDAY111999GF106991041011008001011999MD1410001+9999
0072265090999991929082612004+55717+021133FM-12+000399999V0202901N00931002401CN0040001N9+01281+99999101511ADDAY181999GF108991071031002501999999EQDQ01+000042APCTENQ02+000062APC3  
0062265090999991929082618004+55717+021133FM-12+000399999V0202901N00931220001CN0100001N9+01501+99999101831ADDAA199000391AY111999GF101991001001999999001011MD1310141+9999
0051265090999991929082706004+55717+021133FM-12+000399999V0202701N00671220001CN0200001N9+01611+99999102151ADDAY101999GF101991011011012501001001MD1310061+9999
0051265090999991929082712004+55717+021133FM-12+000399999V0202701N00671012301CN0200001N9+01611+99999102241ADDAY111999GF106991061011012501001001MD1010061+9999
0051265090999991929082718004+55717+021133FM-12+000399999V0202701N00671220001CN0200001N9+01611+99999101991ADDAY111999GF104991041011012501001001MD1810141+9999
0072265090999991929082806004+55717+021133FM-12+000399999V0202701N00261220001CN0200001N9+01721+99999101981ADDAY111999GF101991001001999999001081EQDQ01+000032APCTENQ02+000002APC3  
0072265090999991929082812004+55717+021133FM-12+000399999V0202301N00101220001CN0500001N9+02111+99999101981ADDAY101999GF101991001001999999001011EQDQ01+000082APCTENQ02+000002APC3  
0051265090999991929082818004+55717+021133FM-12+000399999V0201401N00101220001CN0100001N9+01781+99999101761ADDAY101999GF101991011051000751001001MD1610141+9999
0051265090999991929082906004+55717+021133FM-12+000399999V0201601N00101220001CN0200001N9+01721+99999101511ADDAY101999GF101991001001999999001011MD1810141+9999
0051265090999991929082918004+55717+021133FM-12+000399999V0202701N00261220001CN0040001N9+01721+99999101671ADDAY101999GF102991001001999999071999MD1310141+9999
0064265090999991929083006004+55717+021133FM-12+000399999V0202701N00671220001CN0100001N9+01721+99999101871ADDGF102991021011008001001001EQDQ01+000042APCTENQ02+000142APC3  
0051265090999991929083012004+55717+021133FM-12+000399999V0202701N00671220001CN0100001N9+01891+99999101981ADDAY101999GF102991021011008001001001MD1310061+9999
0072265090999991929083018004+55717+021133FM-12+000399999V0202701N00101220001CN0100001N9+01611+99999101921ADDAY101999GF102991001001999999001071EQDQ01+000082APCTENQ02+000002APC3  
0072265090999991929083106004+55717+021133FM-12+000399999V0202501N00461220001CN0200001N9+01721+99999101981ADDAY101999GF104991001001999999001081EQDQ01+000032APCTENQ02+000002APC3  
0072265090999991929090112004+55717+021133FM-12+000399999V0202901N00261220001CN0100001N9+02111+99999101991ADDAY101999GF102991011011012501001081EQDQ01+000032APCTENQ02+000002APC3  
0070265090999991929090118004+55717+021133FM-12+000399999V0200201N00101220001CN0040001N9+01781+99999101991ADDAY101999GF102991999001999999011001MD1610201+9999EQDQ01+000002SCOTLC
0056265090999991929090206004+55717+021133FM-12+000399999V0201401N00461220001CN0040001N9+01781+99999101641ADDAY111999GF107991001001999999011011EQDQ01+000002APC3  
0051265090999991929090212004+55717+021133FM-12+000399999V0202301N002619999999N0100001N9+02001+99999101471ADDAY111999GF106991041011008001011999MD1610141+9999
0072265090999991929090306004+55717+021133FM-12+000399999V0202901N00931012301CN0200001N9+01611+99999101581ADDAY111999GF108991081051012501999999EQDQ01+000042APCTENQ02+000062APC3  
0072265090999991929090312004+55717+021133FM-12+000399999V0202901N00931012301CN0200001N9+01611+99999101671ADDAY121999GF108991081051012501999999EQDQ01+000042APCTENQ02+000062APC3  
0056265090999991929090318004+55717+021133FM-12+000399999V0202901N00261012301CN0100001N9+01611+99999101641ADDAY121999GF107991071051012501001001EQDQ01+000002APC3  
0051265090999991929090406004+55717+021133FM-12+000399999V0202701N00261012301CN0200001N9+01611+99999101821ADDAY111999GF107991061071012501999999MD1310141+9999
0051265090999991929090412004+55717+021133FM-12+000399999V0202901N00671220001CN0200001N9+01721+99999101991ADDAY111999GF101991011011012501001001MD1310061+9999
0051265090999991929090512004+55717+021133FM-12+000399999V0202301N00461220001CN0200001N9+02221+99999101741ADDAY111999GF102991001001999999001081MD1990061+9999
0051265090999991929090518004+55717+021133FM-12+000399999V0201801N00101220001CN0040001N9+01891+99999101381ADDAY111999GF104991021001999999011011MD1810401+9999
0081265090999991929090606004+55717+021133FM-12+000399999V0202301N00671220001CN0100001N9+01891+99999100301ADDAA199001091AY191999GF108991999031999999011999MD1810401+9999EQDQ01+000002SCOTLC
0062265090999991929090618004+55717+021133FM-12+000399999V0203201N01231220001CN0100001N9+01391+99999100051ADDAA199005091AY161999GF104991021031008001999999MD1510061+9999
0083265090999991929090706004+55717+021133FM-12+000399999V0202901N01901220001CN0200001N9+01281+99999100171ADDAA199006091AY181999GF104991041061012501001001EQDQ01+000032APCTENQ02+000002APC3  
0072265090999991929090806004+55717+021133FM-12+000399999V0203201N00931220001CN0200001N9+01221+99999101031ADDAY111999GF104991021011012501001011EQDQ01+000042APCTENQ02+000062APC3  
0062265090999991929090918004+55717+021133FM-12+000399999V0203201N00461007801CN0040001N9+01391+99999100101ADDAA199003091AY111999GF107991061001008001031081MD1410001+9999
0083265090999991929091006004+55717+021133FM-12+000399999V0203601N00101007801CN0100001N9+01281+99999100371ADDAA199003091AY121999GF108991081051008001999999EQDQ01+000042APCTENQ02+000142APC3  
0051265090999991929091012004+55717+021133FM-12+000399999V0203201N01231220001CN0200001N9+01501+99999100821ADDAY161999GF102991021011012501001001MD1310341+9999
0062265090999991929091018004+55717+021133FM-12+000399999V0203401N00261220001CN0100001N9+01281+99999101221ADDAA199000391AY101999GF102991021011999999001001MD1310201+9999
0051265090999991929091106004+55717+021133FM-12+000399999V0209991C00001220001CN0100001N9+01111+99999102201ADDAY101999GF102991001001999999031011MD1310341+9999
0051265090999991929091118004+55717+021133FM-12+000399999V0202701N00101012301CN0100001N9+01281+99999102511ADDAY111999GF106991061011012501031999MD1410001+9999
0051265090999991929091206004+55717+021133FM-12+000399999V0202701N00261220001CN0200001N9+01501+99999102561ADDAY101999GF102991021011012501001091MD1410001+9999
0051265090999991929091212004+55717+021133FM-12+000399999V0202701N00101220001CN0200001N9+01721+99999102371ADDAY101999GF102991011011012501001091MD1310061+9999
0025265090999991929091312004+55717+021133FM-12+000399999V0203401N006719999999N0200001N9+01891+99999102551ADDAY101999MD1810141+9999
0070265090999991929091318004+55717+021133FM-12+000399999V0201401N00101220001CN0040001N9+01501+99999102501ADDAY101999GF101991999001999999011001MD1810141+9999EQDQ01+000002SCOTLC
0051265090999991929091406004+55717+021133FM-12+000399999V0201401N00461220001CN0100001N9+01111+99999102141ADDAY101999GF102991001001999999031011MD1810061+9999
0051265090999991929091418004+55717+021133FM-12+000399999V0209991C00001220001CN0010001N9+01281+99999102101ADDAY101999GF102991001001999999011011MD1510061+9999
0051265090999991929091506004+55717+021133FM-12+000399999V0201801N00101220001CN0200001N9+01221+99999102501ADDAY101999GF101991001001999999001011MD1310141+9999
0051265090999991929091518004+55717+021133FM-12+000399999V0202001N00101220001CN0040001N9+01391+99999102631ADDAY101999GF100991001001999999001001MD1010061+9999
0051265090999991929091606004+55717+021133FM-12+000399999V0201601N00261220001CN0100001N9+01501+99999102901ADDAY101999GF102991001001999999001081MD1310141+9999
0072265090999991929091612004+55717+021133FM-12+000399999V0202301N00461220001CN0200001N9+01721+99999102911ADDAY101999GF100991001001999999001001EQDQ01+000032APCTENQ02+000002APC3  
0072265090999991929091706004+55717+021133FM-12+000399999V0202001N00101220001CN0100001N9+01501+99999102661ADDAY101999GF102991001001999999001091EQDQ01+000082APCTENQ02+000002APC3  
0072265090999991929091712004+55717+021133FM-12+000399999V0202501N00461220001CN0200001N9+01721+99999102621ADDAY101999GF104991001001999999031011EQDQ01+000082APCTENQ02+000002APC3  
0057265090999991929091812004+55717+021133FM-12+000399999V0201801N00101015001CN0200001N9+01721+99999102231ADDAY111999GF106991061011017501001001MD1110061+9999MW1161
0051265090999991929091818004+55717+021133FM-12+000399999V0201601N00101220001CN0020001N9+01391+99999102041ADDAY111999GF104991001001999999011011MD1810061+9999
0051265090999991929091906004+55717+021133FM-12+000399999V0201401N00261220001CN0100001N9+01221+99999101701ADDAY111999GF102991001001999999001081MD1810141+9999
0051265090999991929091918004+55717+021133FM-12+000399999V0209991C00001220001CN0020001N9+01391+99999101071ADDAY111999GF102991001001999999011011MD1810141+9999
0051265090999991929092006004+55717+021133FM-12+000399999V0201801N00671007801CN0100001N9+01281+99999100551ADDAY111999GF108991061051008001011999MD1810141+9999
0062265090999991929092018004+55717+021133FM-12+000399999V0201401N006719999999N0010001N9+01611+99999099791ADDAA199000691AY181999GF108991041051002501999999MD1810261+9999
0089265090999991929092106004+55717+021133FM-12+000399999V0202501N012319999999N0040001N9+01281+99999099531ADDAA199005091AY161999GF108991041061002501999999MW1621EQDQ01+000042APCTENQ02+000142APC3  
0083265090999991929092118004+55717+021133FM-12+000399999V0202501N00461220001CN0020001N9+01221+99999099971ADDAA199002091AY181999GF104991021051008001031999EQDQ01+000042APCTENQ02+000062APC3  
0062265090999991929092206004+55717+021133FM-12+000399999V0201601N00671007801CN0100001N9+00891+99999099531ADDAA199002091AY161999GF108991081051008001999999MD1810141+9999
0094265090999991929092212004+55717+021133FM-12+000399999V0201401N006719999999N0100001N9+01111+99999999999ADDAY181999GF108991021061002501999999MW1801EQDQ01+102193APOSLPQ02+000032APCTENQ03+000002APC3  
0062265090999991929092218004+55717+021133FM-12+000399999V0201401N00261220001CN0020001N9+01001+99999099791ADDAA199005091AY161999GF102991021061008001999999MD1310061+9999
0062265090999991929092306004+55717+021133FM-12+000399999V0200201N00101220001CN0100001N9+01001+99999100701ADDAA199000391AY161999GF102991011051008001001091MD1310341+9999
0051265090999991929092312004+55717+021133FM-12+000399999V0203401N01231220001CN0200001N9+01501+99999101211ADDAY101999GF104991021011012501001011MD1310261+9999
0062265090999991929092318004+55717+021133FM-12+000399999V0203601N00461220001CN0020001N9+01111+99999101561ADDAA199000391AY181999GF102991021061008001001001MD1310201+9999
0062265090999991929092406004+55717+021133FM-12+000399999V0200501N00261220001CN0200001N9+01111+99999102321ADDAA199000591AY161999GF104991021011012501031999MD1310341+9999
0051265090999991929092412004+55717+021133FM-12+000399999V0200901N00461220001CN0200001N9+01391+99999102661ADDAY101999GF100991001001999999001001MD1310141+9999
0051265090999991929092418004+55717+021133FM-12+000399999V0200501N00101220001CN0020001N9+01001+99999103021ADDAY101999GF100991001001999999001001MD1310201+9999
0051265090999991929092506004+55717+021133FM-12+000399999V0209991C00001220001CN0040001N9+00891+99999103461ADDAY101999GF101991011051000751001001MD1310141+9999
0072265090999991929092518004+55717+021133FM-12+000399999V0209991C00001007801CN0020001N9+01221+99999103421ADDAY111999GF107991071051008001001001EQDQ01+000082APCTENQ02+000002APC3  
0051265090999991929092606004+55717+021133FM-12+000399999V0202701N002619999999N0100001N9+01391+99999103201ADDAY111999GF108991041051004501999999MD1810061+9999
0037265090999991929092618004+55717+021133FM-12+000399999V0203401N00101012301CN0010001N9+99999+99999102791ADDAY121999GF108991081051012501999999
0070265090999991929092706004+55717+021133FM-12+000399999V0202701N00101000151CN0010001N9+01221+99999102621ADDGF108991081051000251999999MW1421EQDQ01+000032APCTENQ02+000002APC3  
0025265090999991929092718004+55717+021133FM-12+000399999V0202301N006719999999N0010001N9+01391+99999102511ADDAY171999MD1810061+9999
0072265090999991929092806004+55717+021133FM-12+000399999V0202701N00671220001CN0100001N9+01391+99999102501ADDAY101999GF102991001001999999001081EQDQ01+000032APCTENQ02+000002APC3  
0051265090999991929092818004+55717+021133FM-12+000399999V0202301N00261220001CN0010001N9+01501+99999102481ADDAY101999GF102991001001999999001081MD1810061+9999
0072265090999991929092906004+55717+021133FM-12+000399999V0202301N00931220001CN0100001N9+01501+99999102391ADDAY101999GF104991001001999999011011EQDQ01+000032APCTENQ02+000002APC3  
0043265090999991929092918004+55717+021133FM-12+000399999V0202001N00261220001CN9999999N9+01391+99999102181ADDGF102991001001999999011011MD1810061+9999
0051265090999991929093006004+55717+021133FM-12+000399999V0201801N00261220001CN0100001N9+01111+99999101841ADDAY101999GF102991001001999999001081MD1810061+9999
0051265090999991929093018004+55717+021133FM-12+000399999V0202301N001019999999N0010001N9+01391+99999101701ADDAY111999GF107991041051002501031999MD1990061+9999
0051265090999991929100106004+55717+021133FM-12+000399999V0201601N00461220001CN0020001N9+01281+99999101141ADDAY101999GF104991021051000751001091MD1610141+9999
0068265090999991929100118004+55717+021133FM-12+000399999V0202701N00261002401CN0005001N9+01391+99999100491ADDAA199001091AY121999GF108991081061002501999999MD1810141+9999MW1621
0051265090999991929100206004+55717+021133FM-12+000399999V0202901N00261220001CN0200001N9+01221+99999101061ADDAY111999GF102991021011012501001001MD1310141+9999
0068265090999991929100218004+55717+021133FM-12+000399999V0201801N00931002401CN0005001N9+01001+99999100231ADDAA199001091AY161999GF108991081061002501999999MD1810401+9999MW1611
0000265090999991929100306004+55717+021133FM-12+000399999V0202701N009319999999N0100001N9+01221+99999100621
0057265090999991929100312004+55717+021133FM-12+000399999V0202001N009319999999N0100001N9+01391+99999100461ADDAY121999GF108991021061004501999999MD1990061+9999MW1511
0054265090999991929100318004+55717+021133FM-12+000399999V0202501N00931012301CN9999999N9+01391+99999100191ADDAA199001091GF108991081031012501999999MD1810061+9999
0051265090999991929100406004+55717+021133FM-12+000399999V0202701N006719999999N0500001N9+01391+99999100671ADDAY111999GF107991021011012501001011MD1310261+9999
0072265090999991929100418004+55717+021133FM-12+000399999V0202501N00261007801CN0010001N9+01391+99999101231ADDAY111999GF108991081051008001999999EQDQ01+000042APCTENQ02+000062APC3  
0062265090999991929100506004+55717+021133FM-12+000399999V0202001N00461220001CN0100001N9+01391+99999100651ADDAA199005091AY191999GF108991001001999999011091MD1810261+9999
0051265090999991929100518004+55717+021133FM-12+000399999V0201801N00101220001CN0005001N9+01391+99999100931ADDAY121999GF108991001001999999011999MD1110061+9999
0043265090999991929100606004+55717+021133FM-12+000399999V0200901N00101220001CN0040001N9+01281+99999101301ADDGF102991021001000751031001MD1310201+9999
0072265090999991929100618004+55717+021133FM-12+000399999V0200901N00261220001CN0010001N9+01111+99999101221ADDAY101999GF102991001001999999011999EQDQ01+000032APCTENQ02+000002APC3  
0070265090999991929100706004+55717+021133FM-12+000399999V0201401N00671220001CN0100001N9+01281+99999100951ADDAY101999GF102991999001999999011001MD1810061+9999EQDQ01+000002SCOTLC
0051265090999991929100718004+55717+021133FM-12+000399999V0202901N00101220001CN0010001N9+01281+99999101661ADDAY101999GF102991001001999999001081MD1310201+9999
0081265090999991929100806004+55717+021133FM-12+000399999V0201601N00101000601CN0010001N9+00891+99999101901ADDAA199000391GF108991081061000751999999MW1601EQDQ01+000042APCTENQ02+000062APC3  
0062265090999991929100818004+55717+021133FM-12+000399999V0201401N00261001501CN0010001N9+01281+99999101381ADDAA199001091AY111999GF108991081051001501999999MD1810141+9999
0068265090999991929100906004+55717+021133FM-12+000399999V0201601N00261220001CN0020001N9+01391+99999100461ADDAA199000391AY171999GF104991011051000751031999MD1810261+9999MW1411
0051265090999991929101006004+55717+021133FM-12+000399999V0202301N012319999999N0200001N9+01111+99999100451ADDAY111999GF108991021051012501001081MD1310061+9999
0083265090999991929101018004+55717+021133FM-12+000399999V0202701N01231220001CN0010001N9+01221+99999100411ADDAA199001091AY181999GF102991021031008001001001EQDQ01+000032APCTENQ02+000002APC3  
0083265090999991929101106004+55717+021133FM-12+000399999V0202701N01231220001CN0200001N9+01221+99999100771ADDAA199000591AY181999GF104991041051012501001001EQDQ01+000012APCTENQ02+000002APC3  
0057265090999991929101112004+55717+021133FM-12+000399999V0202301N01541000601CN0020001N9+01221+99999100301ADDAY161999GF108991081061000751999999MD1810261+9999MW1631
0083265090999991929101118004+55717+021133FM-12+000399999V0202701N99999220001CN0020001N9+01221+99999100021ADDAA199004091AY161999GF102991021011008001001001EQDQ01+000032APCTENQ02+000002APC3  
0054265090999991929101206004+55717+021133FM-12+000399999V0202701N00671220001CN0200001N9+01111+99999099951ADDAA199002091GF102991021031012501999999MD1410001+9999
0051265090999991929101218004+55717+021133FM-12+000399999V0203201N00671220001CN0010001N9+01221+99999100691ADDAY111999GF104991041031008001001001MD1310201+9999
0072265090999991929101306004+55717+021133FM-12+000399999V0202701N009319999999N0200001N9+01221+99999101211ADDAY111999GF107991041051012501001091EQDQ01+000042APCTENQ02+000142APC3  
0062265090999991929101318004+55717+021133FM-12+000399999V0202901N00931220001CN0010001N9+01281+99999102501ADDAA199001091AY111999GF102991001001999999001011MD1310261+9999
0051265090999991929101406004+55717+021133FM-12+000399999V0202701N00101220001CN0200001N9+01221+99999102341ADDAY111999GF106991001001999999001091MD1310261+9999
0051265090999991929101418004+55717+021133FM-12+000399999V0202701N009319999999N0020001N9+01281+99999102001ADDAY121999GF108991021061002501999999MD1810201+9999
0072265090999991929101506004+55717+021133FM-12+000399999V0202901N01901220001CN0200001N9+01221+99999101211ADDAY111999GF104991041011012501001001EQDQ01+000042APCTENQ02+000062APC3  
0072265090999991929101518004+55717+021133FM-12+000399999V0203201N01541220001CN0020001N9+01001+99999101621ADDAY101999GF101991011011012501001001EQDQ01+000042APCTENQ02+000062APC3  
0051265090999991929101606004+55717+021133FM-12+000399999V0203401N00931220001CN0200001N9+00891+99999101991ADDAY101999GF104991041011012501001001MD1310201+9999
0051265090999991929101612004+55717+021133FM-12+000399999V0203201N00671220001CN0500001N9+01001+99999101951ADDAY101999GF104991021011012501001011MD1110061+9999
0056265090999991929101618004+55717+021133FM-12+000399999V0209991C000019999999N0010001N9+00721+99999102031ADDAY111999GF108991021011008001001081EQDQ01+000002APC3  
0057265090999991929101706004+55717+021133FM-12+000399999V0201801N001019999999N0020001N9+00501+99999101511ADDAY111999GF108991021051004501011999MD1810061+9999MW1411
0051265090999991929101712004+55717+021133FM-12+000399999V0201601N00261012301CN0100001N9+00721+99999999999ADDAY121999GF108991081051012501999999MD1810201+9999
0051265090999991929101718004+55717+021133FM-12+000399999V0201401N00261007801CN0010001N9+00611+99999100911ADDAY111999GF108991081051008001999999MD1810141+9999
0068265090999991929101806004+55717+021133FM-12+000399999V0202901N00931220001CN0200001N9+01111+99999100731ADDAA199002091AY191999GF104991021011012501031999MD1410001+9999MW1291
0051265090999991929101812004+55717+021133FM-12+000399999V0202701N00931220001CN0200001N9+01221+99999100951ADDAY181999GF104991041031012501001001MD1310141+9999
0083265090999991929101818004+55717+021133FM-12+000399999V0202701N00261220001CN0020001N9+01111+99999101021ADDAA199001091AY101999GF102991021011012501001001EQDQ01+000042APCTENQ02+000062APC3  
0065265090999991929101906004+55717+021133FM-12+000399999V0201401N00261000151CN0010001N9+00891+99999100941ADDAA199003091GF108991081051000251999999MW1411EQDQ01+000002APC3  
0043265090999991929101912004+55717+021133FM-12+000399999V0201401N001019999999N0040001N9+01391+99999100771ADDGF106991041051999999031999MD1610061+9999
0051265090999991929101918004+55717+021133FM-12+000399999V0201401N00261220001CN0010001N9+01111+99999100581ADDAY121999GF108991001001999999041999MD1810141+9999
0068265090999991929102006004+55717+021133FM-12+000399999V0201401N00261000601CN0010001N9+00891+99999099891ADDAA199002091AY161999GF108991081061000751999999MD1810201+9999MW1631
0073265090999991929102018004+55717+021133FM-12+000399999V0201401N00101001501CN0005001N9+01111+99999099741ADDAA199005091AY161999GF108991081061001501999999MW1631EQDQ01+000002APC3  
0083265090999991929102106004+55717+021133FM-12+000399999V0202501N004619999999N0000501N9+01111+99999099771ADDAA199003091AY161999GF108991021061012501999999EQDQ01+000032APCTENQ02+000002APC3  
0062265090999991929102118004+55717+021133FM-12+000399999V0202901N01231001501CN0010001N9+00781+99999100771ADDAA199003091AY161999GF108991061061001501999999MD1310261+9999
0051265090999991929102206004+55717+021133FM-12+000399999V0202701N00671220001CN0200001N9+01001+99999101181ADDAY101999GF102991021011012501001001MD1310141+9999
0072265090999991929102212004+55717+021133FM-12+000399999V0202701N00461220001CN0200001N9+01111+99999101271ADDAY101999GF102991021071012501999999EQDQ01+000082APCTENQ02+000002APC3  
0072265090999991929102312004+55717+021133FM-12+000399999V0201801N00671000151CN0020001N9+00721+99999100691ADDAY121999GF108991061051000251999999EQDQ01+000082APCTENQ02+000002APC3  
0051265090999991929102318004+55717+021133FM-12+000399999V0201601N00461007801CN0010001N9+00721+99999100661ADDAY121999GF107991071051008001001001MD1410001+9999
0048265090999991929102418004+55717+021133FM-12+000399999V0201601N006719999999N0010001N9+00721+99999100911ADDGF108991021051002501011999EQDQ01+000002APC3  
0049265090999991929102506004+55717+021133FM-12+000399999V0201401N00671000151CN0010001N9+00781+99999100791ADDGF108991081051000251999999MD1810061+9999MW1421
0051265090999991929102518004+55717+021133FM-12+000399999V0201601N006719999999N0010001N9+00891+99999100671ADDAY111999GF108991041061002501999999MD1010001+9999
0051265090999991929102606004+55717+021133FM-12+000399999V0201101N00671007801CN0100001N9+01001+99999100421ADDAY111999GF108991081051008001999999MD1810141+9999
0051265090999991929102612004+55717+021133FM-12+000399999V0201401N00461007801CN0100001N9+01111+99999100131ADDAY121999GF107991071051008001001001MD1810141+9999
0062265090999991929102706004+55717+021133FM-12+000399999V0202001N00261012301CN0200001N9+00891+99999099751ADDAA199001091AY161999GF108991081051012501999999MD1810061+9999
0051265090999991929102712004+55717+021133FM-12+000399999V0202301N00931007801CN0100001N9+01111+99999100101ADDAY161999GF108991081051008001999999MD1310201+9999
0062265090999991929102718004+55717+021133FM-12+000399999V0202501N00101220001CN0000501N9+01001+99999100421ADDAA199003091AY111999GF104991041051008001001001MD1310141+9999
0089265090999991929102806004+55717+021133FM-12+000399999V0200501N00101004501CN0040001N9+00721+99999100151ADDAA199001091AY161999GF108991081061004501999999MW1601EQDQ01+000032APCTENQ02+000002APC3  
0072265090999991929102812004+55717+021133FM-12+000399999V0202901N00671012301CN0200001N9+00891+99999100331ADDAY161999GF108991081051012501999999EQDQ01+000042APCTENQ02+000142APC3  
0062265090999991929102818004+55717+021133FM-12+000399999V0202701N00261012301CN0010001N9+00891+99999100591ADDAA199001091AY161999GF108991081051012501999999MD1310141+9999
0062265090999991929102906004+55717+021133FM-12+000399999V0202001N00671012301CN0500001N9+00611+99999100711ADDAA199002091AY161999GF106991061031012501001001MD1310061+9999
0043265090999991929102912004+55717+021133FM-12+000399999V0201801N00931007801CN0200001N9+00721+99999100621ADDGF108991081051008001999999MD1990141+9999
0062265090999991929102918004+55717+021133FM-12+000399999V0201801N00671007801CN0010001N9+00611+99999100301ADDAA199004091AY121999GF108991081051008001999999MD1810141+9999
0062265090999991929103006004+55717+021133FM-12+000399999V0202001N00931007801CN0100001N9+00891+99999099871ADDAA199005091AY161999GF108991081051008001999999MD1510001+9999
0051265090999991929103012004+55717+021133FM-12+000399999V0202301N00931007801CN0100001N9+01001+99999100261ADDAY121999GF108991081051008001999999MD1310261+9999
0051265090999991929103018004+55717+021133FM-12+000399999V0201801N00261220001CN0010001N9+00781+99999100711ADDAY111999GF102991021051008001001001MD1310261+9999
0057265090999991929103106004+55717+021133FM-12+000399999V0201401N00101220001CN0010001N9+00391+99999101551ADDAY101999GF104991021051000251001011MD1310261+9999MW1441
0049265090999991929103112004+55717+021133FM-12+000399999V0209991C00001220001CN0020001N9+01001+99999101741ADDGF102991021051000251001001MD1410001+9999MW1411
0049265090999991929103118004+55717+021133FM-12+000399999V0209991C00001220001CN0010001N9+00611+99999101941ADDGF102991021051000251001001MD1310141+9999MW1411
0049265090999991929110106004+55717+021133FM-12+000399999V0200201N00101004501CN0040001N9+00721+99999102401ADDGF108991081051004501999999MD1110141+9999MW1281
0072265090999991929110112004+55717+021133FM-12+000399999V0200501N002619999999N0100001N9+00891+99999102461ADDAY111999GF106991021051008001999999EQDQ01+000032APCTENQ02+000002APC3  
0051265090999991929110118004+55717+021133FM-12+000399999V0209991C00001220001CN0010001N9+00721+99999102361ADDAY121999GF108991001001999999011011MD1810061+9999
0089265090999991929110206004+55717+021133FM-12+000399999V0209991C00001000151CN0005001N9+00721+99999102081ADDAA199005091AY161999GF108991081061000251999999MW1621EQDQ01+000032APCTENQ02+000002APC3  
0072265090999991929110212004+55717+021133FM-12+000399999V0202301N00261220001CN0200001N9+00891+99999102141ADDAY101999GF102991021011012501001001EQDQ01+000062APCTENQ02+000002APC3  
0062265090999991929110218004+55717+021133FM-12+000399999V0209991C000019999999N0005001N9+00611+99999102021ADDAA199000591AY111999GF108991021051000751011999MD1810061+9999
0062265090999991929110306004+55717+021133FM-12+000399999V0202901N009319999999N0100001N9+01001+99999101631ADDAA199005091AY161999GF108991021061004501999999MD1810141+9999
0062265090999991929110318004+55717+021133FM-12+000399999V0202501N00671012301CN0010001N9+00891+99999101901ADDAA199001091AY111999GF106991061051012501001001MD1010001+9999
0068265090999991929110406004+55717+021133FM-12+000399999V0202301N004619999999N0100001N9+00721+99999101371ADDAA199000691AY121999GF108991041061004501999999MD1610141+9999MW1601
0051265090999991929110412004+55717+021133FM-12+000399999V0203201N00931220001CN0200001N9+00781+99999101601ADDAY161999GF104991041011012501001001MD1310141+9999
0062265090999991929110418004+55717+021133FM-12+000399999V0202901N00931220001CN0010001N9+00781+99999101831ADDAA199001091AY101999GF102991021011012501001001MD1310141+9999
0072265090999991929110506004+55717+021133FM-12+000399999V0202901N00671220001CN0200001N9+00781+99999102081ADDAY101999GF102991011011012501001091EQDQ01+000042APCTENQ02+000062APC3  
0075265090999991929110606004+55717+021133FM-12+000399999V0202701N00671000151CN0020001N9+01001+99999101881ADDAA199000391GF108991081051000251999999EQDQ01+000042APCTENQ02+000062APC3  
0088265090999991929110618004+55717+021133FM-12+000399999V0201401N00261220001CN0010001N9+00391+99999101951ADDAY111999GF106991999001999999011001EQDQ01+000002SCOTLCQ02+000032APCTENQ03+000002APC3  
0078265090999991929110706004+55717+021133FM-12+000399999V0201401N00101220001CN0000001N9+00111+99999101721ADDAY161999GF101991011051000251001001MW1411EQDQ01+000062APCTENQ02+000002APC3  
0051265090999991929110718004+55717+021133FM-12+000399999V0201401N00461220001CN0010001N9+00391+99999101641ADDAY111999GF104991041051008001001001MD1410001+9999
0049265090999991929110806004+55717+021133FM-12+000399999V0201601N004619999999N0010001N9+00501+99999101621ADDGF108991021051000251011999MD1410001+9999MW1411
0043265090999991929110818004+55717+021133FM-12+000399999V0209999999999007801CN0010001N9+00721+99999999999ADDGF108991081051008001999999MD1990061+9999
0051265090999991929110906004+55717+021133FM-12+000399999V0201801N006719999999N0020001N9+00611+99999101031ADDAY121999GF108991041051000751999999MD1810141+9999
0051265090999991929110912004+55717+021133FM-12+000399999V0201801N006719999999N0020001N9+00781+99999100971ADDAY121999GF107991021051000751001011MD1810061+9999
0089265090999991929110918004+55717+021133FM-12+000399999V0202501N004619999999N0005001N9+00781+99999101071ADDAA199002091AY161999GF199999041061001501999999MW1621EQDQ01+000032APCTENQ02+000002APC3  
0054265090999991929111006004+55717+021133FM-12+000399999V0202701N00931220001CN0100001N9+00891+99999101881ADDAA199000391GF102991021031008001001001MD1310261+9999
0051265090999991929111012004+55717+021133FM-12+000399999V0202701N00671220001CN0200001N9+00891+99999102221ADDAY101999GF102991021031012501001001MD1310061+9999
0051265090999991929111018004+55717+021133FM-12+000399999V0202001N00461004501CN0500001N9+00611+99999102321ADDAY101999GF108991081051004501999999MD1310061+9999
0051265090999991929111106004+55717+021133FM-12+000399999V0201601N012319999999N0100001N9+00221+99999101741ADDAY111999GF107991021051000751031999MD1810141+9999
0062265090999991929111118004+55717+021133FM-12+000399999V0202701N00461007801CN0010001N9+00781+99999101751ADDAA199002091AY121999GF108991081051008001999999MD1310061+9999
0049265090999991929111206004+55717+021133FM-12+000399999V0201801N00461000151CN0005001N9+00221+99999101171ADDGF108991081051000251999999MD1810341+9999MW1421
0043265090999991929111212004+55717+021133FM-12+000399999V0202001N009319999999N0100001N9+00611+99999100611ADDGF108991041011008001001081MD1810261+9999
0051265090999991929111218004+55717+021133FM-12+000399999V0201801N00931007801CN0010001N9+00781+99999100301ADDAY121999GF106991061051008001001001MD1810141+9999
0068265090999991929111306004+55717+021133FM-12+000399999V0202001N00261001501CN0020001N9+00611+99999100391ADDAA199001091AY161999GF108991081061001501999999MD1410001+9999MW1601
0068265090999991929111318004+55717+021133FM-12+000399999V0201601N001019999999N0010001N9+00611+99999100651ADDAA199008091AY161999GF108991041061001501011999MD1310141+9999MW1511
0068265090999991929111406004+55717+021133FM-12+000399999V0200701N00261001501CN0020001N9+00611+99999100471ADDAA199004091AY161999GF108991081061001501999999MD1810141+9999MW1611
0057265090999991929111412004+55717+021133FM-12+000399999V0201801N00461001501CN0040001N9+01111+99999100231ADDAY161999GF108991081061001501999999MD1810141+9999MW1511
0083265090999991929111418004+55717+021133FM-12+000399999V0201601N00461007801CN0010001N9+00891+99999100211ADDAA199008091AY161999GF108991081051008001999999EQDQ01+000032APCTENQ02+000002APC3  
0051265090999991929111506004+55717+021133FM-12+000399999V0201601N01231012301CN0200001N9+00721+99999100031ADDAY121999GF108991081051012501999999MD1410001+9999
0068265090999991929111518004+55717+021133FM-12+000399999V0201401N00931001501CN0005001N9+00281+99999100351ADDAA199008091AY161999GF108991081061001501999999MD1310061+9999MW1611
0062265090999991929111606004+55717+021133FM-12+000399999V0201601N002619999999N0040001N9+00221+99999100501ADDAA199005091AY161999GF108991041061001501999999MD1310141+9999
0070265090999991929111612004+55717+021133FM-12+000399999V0201601N00461000151CN0005001N9+00501+99999100591ADDGF109991091999000251999999MW1441EQDQ01+000032APCTENQ02+000002APC3  
0043265090999991929111712004+55717+021133FM-12+000399999V0200501N001019999999N0040001N9+00281+99999100731ADDGF108991041051008001001091MD1810061+9999
0051265090999991929111912004+55717+021133FM-12+000399999V0202901N00671012301CN0200001N9+00391+99999101901ADDAY121999GF108991081051012501999999MD1310141+9999
0051265090999991929111918004+55717+021133FM-12+000399999V0202901N00261012301CN0010001N9+00391+99999102031ADDAY121999GF108991081051012501999999MD1310061+9999
0043265090999991929112006004+55717+021133FM-12+000399999V0209991C00001012301CN0020001N9+00281+99999102461ADDGF107991071051012501001001MD1310141+9999
0078265090999991929112012004+55717+021133FM-12+000399999V0200901N00101001501CN0100001N9+00391+99999102561ADDAY161999GF107991061061001501999999MW1461EQDQ01+000032APCTENQ02+000002APC3  
0062265090999991929112018004+55717+021133FM-12+000399999V0201401N00261007801CN0010001N9+00391+99999102721ADDAA199001091AY121999GF108991081051008001999999MD1310061+9999
0057265090999991929112106004+55717+021133FM-12+000399999V0201601N00101220001CN0020001N9+00111+99999102831ADDAY111999GF102991001001999999001011MD1310061+9999MW1411
0064265090999991929112118004+55717+021133FM-12+000399999V0201401N00461220001CN0010001N9+00221+99999102801ADDGF108991001001999999011999EQDQ01+000082APCTENQ02+000002APC3  
0072265090999991929112206004+55717+021133FM-12+000399999V0201401N009319999999N0020001N9+00111+99999102641ADDAY121999GF108991041051000751011999EQDQ01+000082APCTENQ02+000002APC3  
0072265090999991929112212004+55717+021133FM-12+000399999V0201601N00931220001CN0100001N9+00281+99999102471ADDAY121999GF199999001001999999011091EQDQ01+000082APCTENQ02+000002APC3  
0072265090999991929112218004+55717+021133FM-12+000399999V0201801N00461220001CN0010001N9+00221+99999102421ADDAY111999GF108991001001999999011999EQDQ01+000082APCTENQ02+000002APC3  
0049265090999991929112306004+55717+021133FM-12+000399999V0202001N00461000151CN0020001N9+00281+99999102061ADDGF108991081051000251999999MD1810141+9999MW1461
0049265090999991929112312004+55717+021133FM-12+000399999V0201801N00261000151CN0010001N9+00391+99999101921ADDGF108991081051000251999999MD1810061+9999MW1441
0089265090999991929112318004+55717+021133FM-12+000399999V0201801N00101000151CN0005001N9+00501+99999101921ADDAA199001091AY161999GF108991081051000251999999MW1461EQDQ01+000032APCTENQ02+000002APC3  
0049265090999991929112406004+55717+021133FM-12+000399999V0201801N00101000151CN0002001N9+00501+99999101981ADDGF108991081051000251999999MD1410001+9999MW1441
0072265090999991929112418004+55717+021133FM-12+000399999V0201601N00101000151CN0005001N9+00501+99999101941ADDAY121999GF108991081051000251999999EQDQ01+000032APCTENQ02+000002APC3  
0083265090999991929112506004+55717+021133FM-12+000399999V0201601N00261007801CN0040001N9+00391+99999101951ADDAA199000391AY161999GF108991081051008001999999EQDQ01+000032APCTENQ02+000002APC3  
0072265090999991929112518004+55717+021133FM-12+000399999V0201801N001019999999N0005001N9+00501+99999102061ADDAY111999GF108991021051000751011999EQDQ01+000032APCTENQ02+000002APC3  
0075265090999991929112606004+55717+021133FM-12+000399999V0201801N00101220001CN0040001N9+00501+99999101841ADDAA199000391GF102991001001999999011091EQDQ01+000082APCTENQ02+000002APC3  
0049265090999991929112612004+55717+021133FM-12+000399999V0201601N00671000151CN0020001N9+00391+99999101741ADDGF108991081051000251999999MD1610141+9999MW1411
0051265090999991929112706004+55717+021133FM-12+000399999V0201601N002619999999N0020001N9+00281+99999101341ADDAY111999GF108991021051000751031999MD1610061+9999
0051265090999991929112712004+55717+021133FM-12+000399999V0201601N00461007801CN0040001N9+00281+99999101371ADDAY121999GF108991081051008001999999MD1610061+9999
0083265090999991929112718004+55717+021133FM-12+000399999V0201601N00261000601CN0005001N9+00221+99999101331ADDAA199000391AY171999GF108991081051000751999999EQDQ01+000082APCTENQ02+000002APC3  
0068265090999991929112806004+55717+021133FM-12+000399999V0201401N00461000151CN0005001N9+00221+99999101371ADDAA199000391AY161999GF109991091999000251999999MD1310061+9999MW1441
0062265090999991929112818004+55717+021133FM-12+000399999V0202501N00461007801CN0010001N9+00721+99999101581ADDAA199003091AY181999GF108991081031008001999999MD1310061+9999
0068265090999991929112906004+55717+021133FM-12+000399999V0201601N002619999999N0020001N9+00391+99999101501ADDAA199000591AY161999GF108991041051000751999999MD1810141+9999MW1441
0051265090999991929112912004+55717+021133FM-12+000399999V0201601N006719999999N0040001N9+00501+99999101131ADDAY121999GF108991021051000751999999MD1810201+9999
0068265090999991929112918004+55717+021133FM-12+000399999V0202001N00931001501CN9999999N9+00391+99999100771ADDAA199001091AY161999GF108991081061001501999999MD1810141+9999MW1511
0062265090999991929113006004+55717+021133FM-12+000399999V02099999999999999999N0005001N9+00611+99999999999ADDAA199008091AY161999GF108991041071000751999999MD1810141+9999
0043265090999991929113012004+55717+021133FM-12+000399999V0201801N001019999999N0010001N9+00501+99999100351ADDGF108991021061000251999999MD1990061+9999
0089265090999991929113018004+55717+021133FM-12+000399999V0202001N00261001501CN0005001N9+00781+99999100351ADDAA199003091AY161999GF108991081061001501999999MW1501EQDQ01+000032APCTENQ02+000002APC3  
0049265090999991929120106004+55717+021133FM-12+000399999V0201801N00101000151CN0010001N9+00611+99999100391ADDGF108991081051000251999999MD1410001+9999MW1441
0072265090999991929120118004+55717+021133FM-12+000399999V0201101N00671000601CN0005001N9+00391+99999100391ADDAY121999GF107991071051000751001001EQDQ01+000032APCTENQ02+000002APC3  
0072265090999991929120206004+55717+021133FM-12+000399999V0201401N00671000601CN0040001N9+00391+99999100371ADDAY121999GF108991081051000751999999EQDQ01+000082APCTENQ02+000002APC3  
0068265090999991929120218004+55717+021133FM-12+000399999V0201601N00101000151CN0005001N9+00501+99999100631ADDAA199002091AY161999GF108991081051000251999999MD1310061+9999MW1441
0049265090999991929120306004+55717+021133FM-12+000399999V0201801N00101000151CN0010001N9+00501+99999101061ADDGF108991081051000251999999MD1310141+9999MW1441
0051265090999991929120318004+55717+021133FM-12+000399999V0201801N00461220001CN0010001N9+00611+99999101431ADDAY121999GF108991001001999999011999MD1310061+9999
0049265090999991929120406004+55717+021133FM-12+000399999V0201401N00101000151CN0010001N9+00391+99999101641ADDGF108991081051000251999999MD1310061+9999MW1441
0078265090999991929120418004+55717+021133FM-12+000399999V0209991C00001000151CN0000501N9+00501+99999102021ADDAY141999GF109991091999000251999999MW1461EQDQ01+000032APCTENQ02+000002APC3  
0049265090999991929120512004+55717+021133FM-12+000399999V0201401N009319999999N0020001N9+00501+99999101351ADDGF108991021061000251999999MD1810261+9999MW1631
0062265090999991929120518004+55717+021133FM-12+000399999V0201801N002619999999N0005001N9+00501+99999101181ADDAA199005091AY161999GF108991021061000251999999MD1810061+9999
0043265090999991929120606004+55717+021133FM-12+000399999V0201401N006719999999N0020001N9+00721+99999100751ADDGF108991021061000751999999MD1810141+9999
0088265090999991929120612004+55717+021133FM-12+000399999V0201801N006719999999N9999999N9+00611+99999999999ADDAY121999GF108991021061000751999999EQDQ01+101993APOSLPQ02+000082APCTENQ03+000002APC3  
0072265090999991929120618004+55717+021133FM-12+000399999V0201801N00261007801CN0010001N9+00721+99999100621ADDAY121999GF108991081051008001999999EQDQ01+000032APCTENQ02+000002APC3  
0043265090999991929120706004+55717+021133FM-12+000399999V0201601N002619999999N0020001N9+00501+99999100431ADDGF108991021051000751999999MD1810061+9999
0072265090999991929120718004+55717+021133FM-12+000399999V0201801N00461007801CN0010001N9+00111+99999100331ADDAY121999GF108991081051008001999999EQDQ01+000032APCTENQ02+000002APC3  
0051265090999991929120806004+55717+021133FM-12+000399999V0202301N00671220001CN0010001N9+00781+99999100831ADDAY111999GF104991001001999999011011MD1310201+9999
0051265090999991929120812004+55717+021133FM-12+000399999V0202501N00461007801CN0100001N9+00781+99999101251ADDAY111999GF106991061011008001001001MD1310201+9999
0051265090999991929120818004+55717+021133FM-12+000399999V0202301N006719999999N0010001N9+00611+99999101111ADDAY121999GF107991041051008001031999MD1990061+9999
0051265090999991929120906004+55717+021133FM-12+000399999V0202001N00671220001CN0100001N9+00391+99999100671ADDAY101999GF102991001001999999011011MD1810141+9999
0072265090999991929120912004+55717+021133FM-12+000399999V0201101N00671007801CN0100001N9+00611+99999100691ADDAY111999GF108991081051008001999999EQDQ01+000032APCTENQ02+000002APC3  
0072265090999991929120918004+55717+021133FM-12+000399999V0202501N00671007801CN0010001N9+00721+99999100741ADDAY121999GF108991081051008001999999EQDQ01+000032APCTENQ02+000002APC3  
0072265090999991929121006004+55717+021133FM-12+000399999V0202001N01231007801CN0100001N9+00721+99999099791ADDAY121999GF108991081051008001999999EQDQ01+000032APCTENQ02+000002APC3  
0051265090999991929121018004+55717+021133FM-12+000399999V0202301N01231007801CN0010001N9+00721+99999100181ADDAY121999GF108991081051008001999999MD1310201+9999
0051265090999991929121106004+55717+021133FM-12+000399999V0202301N009319999999N0100001N9+00611+99999100651ADDAY121999GF108991021061002501999999MD1310141+9999
0081265090999991929121118004+55717+021133FM-12+000399999V0201601N00461220001CN0010001N9+00611+99999100621ADDAA199000391AY111999GF102991999001999999011001MD1810061+9999EQDQ01+000002SCOTLC
0068265090999991929121206004+55717+021133FM-12+000399999V0201601N00671001501CN0020001N9+00281+99999099781ADDAA199001091AY171999GF108991081061001501999999MD1810261+9999MW1611
0068265090999991929121218004+55717+021133FM-12+000399999V0202701N00931002401CN0100001N9+00611+99999099351ADDAA199015091AY161999GF108991061061002501011999MD1610141+9999MW1611
0062265090999991929121306004+55717+021133FM-12+000399999V0202001N001019999999N0100001N9+00611+99999100061ADDAA199007091AY161999GF108991021061004501999999MD1310401+9999
0051265090999991929121312004+55717+021133FM-12+000399999V0202301N002619999999N0100001N9+00391+99999100451ADDAY161999GF108991041061004501999999MD1310201+9999
0068265090999991929121318004+55717+021133FM-12+000399999V0201801N00261002401CN0010001N9+00391+99999101071ADDAA199005091AY161999GF108991061001002501011011MD1510341+9999MW1611
0083265090999991929121406004+55717+021133FM-12+000399999V0202301N00671220001CN0200001N9+00611+99999101781ADDAA199002091AY161999GF104991041011012501031999EQDQ01+000012APCTENQ02+000002APC3  
0068265090999991929121418004+55717+021133FM-12+000399999V0202701N01231000601CN0005001N9+00781+99999100811ADDAA199011091AY161999GF108991081061000751999999MD1810261+9999MW1631
0083265090999991929121506004+55717+021133FM-12+000399999V0202701N01541220001CN0200001N9+00721+99999100581ADDAA199000391AY161999GF101991011011012501001001EQDQ01+000032APCTENQ02+000002APC3  
0043265090999991929121512004+55717+021133FM-12+000399999V0202901N01231007801CN0100001N9+00611+99999100471ADDGF106991061031008001001001MD1990141+9999
0081265090999991929121518004+55717+021133FM-12+000399999V0202901N01541220001CN0020001N9+00611+99999100611ADDAA199001091AY111999GF102991999001999999031001MD1990061+9999EQDQ01+000002SCOTLC
0072265090999991929121606004+55717+021133FM-12+000399999V0203201N01231220001CN0200001N9+00501+99999100501ADDAY101999GF101991011011012501001001EQDQ01+000082APCTENQ02+000002APC3  
0072265090999991929121612004+55717+021133FM-12+000399999V0203201N01541012301CN0200001N9+00391+99999100621ADDAY111999GF108991081051012501999999EQDQ01+000042APCTENQ02+000062APC3  
0072265090999991929121618004+55717+021133FM-12+000399999V0202301N01541012301CN0010001N9+00391+99999100791ADDAY121999GF108991081051012501999999EQDQ01+000042APCTENQ02+000062APC3  
0054265090999991929121706004+55717+021133FM-12+000399999V0203601N009319999999N0100001N9+00281+99999101181ADDAA199001091GF107991021061008001999999MD1310141+9999
0051265090999991929121712004+55717+021133FM-12+000399999V0203601N00261220001CN0200001N9+00221+99999101381ADDAY171999GF104991041031008001001001MD1210141+9999
0062265090999991929121718004+55717+021133FM-12+000399999V0209991C00001220001CN0010001N9+00001+99999101751ADDAA199002091AY171999GF104991011011012501001081MD1310201+9999
0051265090999991929121806004+55717+021133FM-12+000399999V0200201N00101220001CN0100001N9-00111+99999102981ADDAY101999GF101991001001999999001081MD1310341+9999
0051265090999991929121812004+55717+021133FM-12+000399999V0203601N00261220001CN0200001N9+00221+99999103341ADDAY101999GF102991001001999999001011MD1310201+9999
0051265090999991929121818004+55717+021133FM-12+000399999V0201601N001019999999N0010001N9-00111+99999103441ADDAY111999GF108991021011012501001081MD1310061+9999
0051265090999991929121906004+55717+021133FM-12+000399999V0202701N00671012301CN0200001N9+00501+99999103361ADDAY121999GF108991081051012501999999MD1310141+9999
0062265090999991929121918004+55717+021133FM-12+000399999V0202501N006719999999N0005001N9+00391+99999103321ADDAA199001091AY121999GF108991021061001501999999MD1810061+9999
0083265090999991929122006004+55717+021133FM-12+000399999V0202301N006719999999N0100001N9+00281+99999103271ADDAA199000591AY161999GF108991041061001501999999EQDQ01+000082APCTENQ02+000002APC3  
0072265090999991929122018004+55717+021133FM-12+000399999V0201801N001019999999N0005001N9-00221+99999103301ADDAY121999GF108991021051000251011999EQDQ01+000032APCTENQ02+000002APC3  
0049265090999991929122106004+55717+021133FM-12+000399999V0201401N002619999999N0020001N9-00501+99999103161ADDGF108991021051000251011999MD1810061+9999MW1441
0051265090999991929122118004+55717+021133FM-12+000399999V0201401N00261007801CN0010001N9-00111+99999102961ADDAY121999GF108991081051008001999999MD1810061+9999
0072265090999991929122206004+55717+021133FM-12+000399999V0201101N00261220001CN0040001N9+00111+99999102911ADDAY121999GF108991001001999999031081EQDQ01+000032APCTENQ02+000002APC3  
0072265090999991929122212004+55717+021133FM-12+000399999V0200901N00261007801CN0100001N9+00111+99999102921ADDAY121999GF108991081051008001999999EQDQ01+000032APCTENQ02+000002APC3  
0072265090999991929122218004+55717+021133FM-12+000399999V0201601N004619999999N0010001N9-00891+99999102991ADDAY121999GF108991041051000251001081EQDQ01+000042APCTENQ02+000062APC3  
0072265090999991929122306004+55717+021133FM-12+000399999V0201401N006719999999N0100001N9-00611+99999102911ADDAY111999GF108991041051008001001081EQDQ01+000082APCTENQ02+000002APC3  
0072265090999991929122312004+55717+021133FM-12+000399999V0201401N00671220001CN0100001N9-00501+99999102881ADDAY111999GF102991021011008001001001EQDQ01+000062APCTENQ02+000002APC3  
0051265090999991929122412004+55717+021133FM-12+000399999V0201401N006719999999N0100001N9-00781+99999102061ADDAY111999GF106991041051008001031999MD1810201+9999
0051265090999991929122418004+55717+021133FM-12+000399999V0201101N00931220001CN0002001N9-00721+99999101991ADDAY161999GF102991021051008001001001MD1610141+9999
0062265090999991929122506004+55717+021133FM-12+000399999V0201401N00461015001CN0100001N9-00391+99999101721ADDAA199000691AY171999GF107991071001017501011001MD1810261+9999
0051265090999991929122518004+55717+021133FM-12+000399999V0201601N012319999999N0010001N9+00001+99999101701ADDAY121999GF108991041051008001031999MD1810061+9999
0089265090999991929122606004+55717+021133FM-12+000399999V0201801N00461000601CN0040001N9+00111+99999101701ADDAA199003091AY101999GF108991081061000751999999MW1601EQDQ01+000062APCTENQ02+000002APC3  
0072265090999991929122612004+55717+021133FM-12+000399999V0201801N00931007801CN0100001N9+00111+99999101681ADDAY161999GF108991081051008001999999EQDQ01+000082APCTENQ02+000002APC3  
0062265090999991929122618004+55717+021133FM-12+000399999V0201601N00671007801CN0010001N9+00111+99999101581ADDAA199000691AY121999GF108991081051008001999999MD1810061+9999
0051265090999991929122706004+55717+021133FM-12+000399999V0202001N004619999999N0100001N9+00111+99999101761ADDAY121999GF108991021051001501999999MD1310061+9999
0054265090999991929122718004+55717+021133FM-12+000399999V0201601N00461000151CN0002001N9+00001+99999101841ADDGF109991091999000251999999MW1441EQDQ01+000002APC3  
0049265090999991929122806004+55717+021133FM-12+000399999V0201601N00671000151CN0020001N9-00111+99999101631ADDGF108991081051000251999999MD1810141+9999MW1421
0080265090999991929122812004+55717+021133FM-12+000399999V0201401N00461220001CN0040001N9-00221+99999101701ADDGF108991001999999999999999EQDQ01+000052SCOLCGQ02+000032APCTENQ03+000002APC3  
0051265090999991929122818004+55717+021133FM-12+000399999V0201401N00931007801CN0010001N9-00281+99999101621ADDAY121999GF108991081051008001999999MD1810061+9999
0062265090999991929122906004+55717+021133FM-12+000399999V0201401N002619999999N0100001N9-00111+99999101411ADDAA199001091AY171999GF108991021061004501999999MD1610061+9999
0043265090999991929122918004+55717+021133FM-12+000399999V0201801N01231007801CN0010001N9+00111+99999100571ADDGF108991081051008001999999MD1810341+9999
0062265090999991929123006004+55717+021133FM-12+000399999V0202501N01231007801CN0100001N9+00611+99999100461ADDAA199005091AY161999GF108991081051008001999999MD1310401+9999
0051265090999991929123012004+55717+021133FM-12+000399999V0202501N01231007801CN0100001N9+00611+99999100771ADDAY121999GF107991071051008001001001MD1310141+9999
0062265090999991929123018004+55717+021133FM-12+000399999V0202501N004619999999N0010001N9+00501+99999100971ADDAA199000391AY161999GF106991021061004501999999MD1310141+9999
0062265090999991929123106004+55717+021133FM-12+000399999V0202301N00671007801CN0100001N9+00221+99999100621ADDAA199000391AY111999GF108991081051008001999999MD1810141+9999
0057265090999991929123112004+55717+021133FM-12+000399999V0202001N00671002401CN0040001N9+00221+99999100501ADDAY161999GF108991081061002501999999MD1810061+9999MW1601
