0064267020999991928010106004+54733+020567FM-12+000999999V0200901N00101007801CN0500001N9-00501-00831103931ADDAY121999GF108991081051008001999999KA1999N-00611MD1210201+9999
0072267020999991928010112004+54733+020567FM-12+000999999V0202501N00101004501CN0500001N9-00611-00781104061ADDAY121999GF108991081051004501999999EQDQ01+000022APCTENQ02+000002APC3  
0064267020999991928010206004+54733+020567FM-12+000999999V0202001N00261007801CN0100001N9-00781-00831103971ADDAY121999GF108991081051008001999999KA1999N-00781MD1810141+9999
0051267020999991928010212004+54733+020567FM-12+000999999V0201601N00461004501CN0100001N9-00611-00781103581ADDAY111999GF107991071051004501001001MD1810141+9999
0064267020999991928010306004+54733+020567FM-12+000999999V0202001N00261220001CN0100001N9-01001-01171102701ADDAY101999GF102991011051012501001999KA1999N-01111MD1810061+9999
0051267020999991928010312004+54733+020567FM-12+000999999V0201801N00101220001CN0100001N9-00221-00721102551ADDAY101999GF102991001001999999001021MD1610061+9999
0051267020999991928010412004+54733+020567FM-12+000999999V0202501N00931004501CN0040001N9-00611-00781101471ADDAY111999GF108991081051004501999999MD1810201+9999
0075267020999991928010506004+54733+020567FM-12+000999999V0202501N01231004501CN0100001N9+00221+00171099261ADDAA199001091AY171999GF108991061051004501021001KA1999N-01111MD1810341+9999
0057267020999991928010512004+54733+020567FM-12+000999999V0202901N01541004501CN0100001N9+00221+00001099301ADDAY171999GF108991081061004501999999MD1310201+9999MW1231
0081267020999991928010606004+54733+020567FM-12+000999999V0202701N00931001501CN0040001N9+00111+00061099531ADDAA199003091AY171999GF108991081061001501999999KA1999N+00001MD1610061+9999MW1681
0072267020999991928010612004+54733+020567FM-12+000999999V0202701N00931004501CN0100001N9+00221-00171099601ADDAY171999GF107991071051004501001001EQDQ01+000032APCTENQ02+000002APC3  
0100267020999991928010706004+54733+020567FM-12+000999999V0200201N00261002401CN0020001N9+00001-00061099371ADDAA199002091AY171999GF108991081051002501999999KA1999N+00001MD1310602+9999MW1711EQDQ01+000602APC3  
0070267020999991928010712004+54733+020567FM-12+000999999V0202901N00461007801CN0500001N9+00111-00111100172ADDAY111999GF106991061051008001001001MD1310341+9999EQDQ01+100173APOSLP
0064267020999991928010806004+54733+020567FM-12+000999999V0202301N00461007801CN0020001N9-00501-00561100931ADDAY111999GF108991081051008001999999KA1999N-00501MD1810141+9999
0051267020999991928010812004+54733+020567FM-12+000999999V0201801N006719999999N0100001N9-00221-00281100171ADDAY121999GF108991999999012501999999MD1810341+9999
0075267020999991928010906004+54733+020567FM-12+000999999V0202901N01231004501CN0100001N9+00221+00001100291ADDAA199000391AY121999GF108991081051004501999999KA1999N-00221MD1310061+9999
0072267020999991928010912004+54733+020567FM-12+000999999V0202701N00461002401CN0040001N9+00221+00171100501ADDAY121999GF108991081051002501999999EQDQ01+000032APCTENQ02+000002APC3  
0064267020999991928011006004+54733+020567FM-12+000999999V0202901N00461004501CN0100001N9+00111+00061100861ADDAY121999GF108991081051004501999999KA1999N+00111MD1810061+9999
0078267020999991928011012004+54733+020567FM-12+000999999V0202701N00461000601CN0020001N9+00221+00171100711ADDAY181999GF108991081051000751999999MW1211EQDQ01+000062APCTENQ02+000002APC3  
0075267020999991928011106004+54733+020567FM-12+000999999V0202701N00671004501CN0040001N9+00281+00221100711ADDAA124999999AY181999GF108991081051004501999999KA1999N+00111MD1610061+9999
0072267020999991928011112004+54733+020567FM-12+000999999V0202701N00671075001CN0100001N9+00391+00331100791ADDAY111999GF106991041051008001001021EQDQ01+000032APCTENQ02+000002APC3  
0085267020999991928011206004+54733+020567FM-12+000999999V0202701N00931004501CN0040001N9+00221+00171101011ADDAY111999GF108991081051004501999999KA1999N+00221EQDQ01+000032APCTENQ02+000002APC3  
0072267020999991928011212004+54733+020567FM-12+000999999V0202701N00931007801CN0100001N9+00221+00001101041ADDAY111999GF106991061051008001001021EQDQ01+000082APCTENQ02+000002APC3  
0064267020999991928011306004+54733+020567FM-12+000999999V0202501N004619999999N0040001N9+00111-00111100711ADDAY111999GF108991999999012501999999KA1999N+00001MD1810401+9999
0057267020999991928011312004+54733+020567FM-12+000999999V0202501N00671002401CN0040001N9+00221+00171100071ADDAY161999GF108991081061002501999999MD1810401+9999MW1681
0064267020999991928011406004+54733+020567FM-12+000999999V0202501N00461004501CN0100001N9+00281+00221099791ADDAY121999GF108991081051004501999999KA1999N+00281MD1810061+9999
0051267020999991928011412004+54733+020567FM-12+000999999V0202501N00671004501CN0100001N9+00391+00331099581ADDAY181999GF108991081051004501999999MD1810141+9999
0081267020999991928011506004+54733+020567FM-12+000999999V0202701N00261001501CN0040001N9+00111+00061100421ADDAA199000691AY181999GF108991081051001501999999KA1999N+00111MD1310141+9999MW1211
0051267020999991928011512004+54733+020567FM-12+000999999V0202501N00101002401CN0040001N9+00281+00221100421ADDAY181999GF108991081051002501999999MD1610061+9999
0081267020999991928011606004+54733+020567FM-12+000999999V0202901N00461001501CN0010001N9+00221+00171100391ADDAA199000391AY161999GF108991081061001501999999KA1999N+00221MD1310141+9999MW1511
0051267020999991928011612004+54733+020567FM-12+000999999V0203201N00101002401CN0010001N9+00281+00221100691ADDAY181999GF108991081051002501999999MD1310061+9999
0064267020999991928011706004+54733+020567FM-12+000999999V0200901N00101015001CN0040001N9+00001-00061101431ADDAY111999GF108991061051017501031999KA1999N+00001MD1310141+9999
0072267020999991928011712004+54733+020567FM-12+000999999V0203201N001019999999N0040001N9+00111+00061101591ADDAY121999GF108991999999999999001001EQDQ01+000032APCTENQ02+000002APC3  
0081267020999991928011806004+54733+020567FM-12+000999999V0201101N01231004501CN0100001N9-00391-00441102201ADDAA199000591AY171999GF108991081051004501999999KA1999N-00391MD1310201+9999MW1231
0057267020999991928011812004+54733+020567FM-12+000999999V0201101N00931004501CN0020001N9-00501-00671102461ADDAY171999GF108991081051004501999999MD1310061+9999MW1731
0102267020999991928011906004+54733+020567FM-12+000999999V0201401N00931007801CN0040001N9-00611-00671102641ADDAA199001091AY171999GF108991081051008001999999KA1999N-00721MW1711EQDQ01+000082APCTENQ02+000002APC3  
0057267020999991928011912004+54733+020567FM-12+000999999V0201601N00261007801CN0040001N9-00391-00441102531ADDAY171999GF108991081051008001999999MD1810141+9999MW1711
0102267020999991928012006004+54733+020567FM-12+000999999V0201601N00101004501CN0010001N9-00221-00281102391ADDAA199000591AY141999GF108991081051004501999999KA1999N-00391MW1711EQDQ01+000032APCTENQ02+000002APC3  
0078267020999991928012012004+54733+020567FM-12+000999999V0201101N00101002401CN0010001N9-00111-00171102341ADDAY171999GF108991081051002501999999MW1711EQDQ01+000082APCTENQ02+000002APC3  
0081267020999991928012106004+54733+020567FM-12+000999999V0202501N00101002401CN0020001N9-00221-00281102901ADDAA199000391AY171999GF108991081051002501999999KA1999N-00501MD1310141+9999MW1731
0072267020999991928012112004+54733+020567FM-12+000999999V0202301N00101000601CN0010001N9-00111-00171102951ADDAY171999GF108991081051000751999999EQDQ01+000062APCTENQ02+000002APC3  
0064267020999991928012206004+54733+020567FM-12+000999999V0200901N00261002401CN0040001N9-00501-00561102751ADDAY121999GF108991081051002501999999KA1999N-00721MD1710061+9999
0051267020999991928012212004+54733+020567FM-12+000999999V0201101N00671004501CN0040001N9-00501-00561102551ADDAY121999GF108991081051004501999999MD1810141+9999
0096267020999991928012306004+54733+020567FM-12+000999999V0200901N00671004501CN0020001N9-00781-00831102131ADDAA199000591AY171999GF108991081051004501999999KA1999N-00781EQDQ01+000032APCTENQ02+000002APC3  
0072267020999991928012312004+54733+020567FM-12+000999999V0200901N00461075001CN0040001N9-00721-00891102261ADDAY171999GF106991041051004501001081EQDQ01+000032APCTENQ02+000002APC3  
0081267020999991928012406004+54733+020567FM-12+000999999V0201601N00101000601CN0010001N9-00611-00671102401ADDAA199001091AY171999GF108991081051000751999999KA1999N-00891MD1810061+9999MW1451
0096267020999991928012506004+54733+020567FM-12+000999999V0202301N00931002401CN0040001N9+00281+00221101111ADDAA199004091AY181999GF108991081051002501999999KA1999N-00281EQDQ01+000042APCTENQ02+000062APC3  
0051267020999991928012512004+54733+020567FM-12+000999999V0202301N00931075001CN0100001N9+00391+00171101511ADDAY111999GF106991041051012501001021MD1210061+9999
0075267020999991928012606004+54733+020567FM-12+000999999V0202301N00671007801CN0100001N9+00111+00061102531ADDAA199000691AY111999GF106991061051008001001001KA1999N+00111MD1310141+9999
0051267020999991928012612004+54733+020567FM-12+000999999V0202001N00461030001CN0100001N9+00281+00221102431ADDAY111999GF107991011051012501021001MD1810141+9999
0085267020999991928012706004+54733+020567FM-12+000999999V0201601N00461220001CN0100001N9-00111-00171102481ADDAY111999GF104991999999012501999999KA1999N-00111EQDQ01+000032APCTENQ02+000002APC3  
0037267020999991928012712004+54733+020567FM-12+000999999V0201401N00671220001CN0200001N9+00281+99999102351ADDAY101999GF104991041051017501999999
0064267020999991928012806004+54733+020567FM-12+000999999V0201601N002619999999N0200001N9-00281-00331102151ADDAY111999GF106991999999017501999999KA1999N-00281MD1810061+9999
0051267020999991928012812004+54733+020567FM-12+000999999V0202301N00261004501CN0100001N9+00111+00061102031ADDAY111999GF108991081051004501999999MD1810141+9999
0064267020999991928012906004+54733+020567FM-12+000999999V0202301N00931007801CN0020001N9-00111-00171102121ADDAY121999GF108991081051008001999999KA1999N-00221MD1310061+9999
0051267020999991928012912004+54733+020567FM-12+000999999V0202301N00461007801CN0020001N9+00001-00061102111ADDAY121999GF108991081051008001999999MD1810061+9999
0083267020999991928013006004+54733+020567FM-12+000999999V0201601N00101220001CN0020001N9-00501+99999101841ADDAY111999GF102991011051004501001081KA1999N-00501MD1510001+9999EQDQ01 -03613ATOD  
0070267020999991928013012004+54733+020567FM-12+000999999V0201401N00461220001CN0100001N9+00221+00002101811ADDAY101999GF101991001001999999001021MD1510341+9999EQDQ01+027323ATOD  
0064267020999991928013106004+54733+020567FM-12+000999999V0201101N00261220001CN0040001N9-00721-00781101681ADDAY101999GF102991001001999999031081KA1999N-00781MD1710061+9999
0051267020999991928013112004+54733+020567FM-12+000999999V0201101N00671007801CN0040001N9-00391-00441101641ADDAY111999GF108991081051008001999999MD1710141+9999
0064267020999991928020106004+54733+020567FM-12+000999999V0202301N00101004501CN0040001N9-00111-00171101411ADDAY121999GF108991081051004501999999KA1999N-00221MD1410001+9999
0051267020999991928020112004+54733+020567FM-12+000999999V0202001N00461004501CN0040001N9+00111+00061101361ADDAY141999GF108991081051004501999999MD1990061+9999
0064267020999991928020206004+54733+020567FM-12+000999999V0201401N00461004501CN0040001N9+00001-00061101101ADDAY121999GF108991081051004501999999KA1999N-00111MD1310061+9999
0051267020999991928020212004+54733+020567FM-12+000999999V0209999900461004501CN0040001N9+00111+00061999999ADDAY121999GF108991081051004501999999MD1210061+9999
0081267020999991928020306004+54733+020567FM-12+000999999V0201601N00261000601CN0005001N9-00111-00171102021ADDAA199003091AY171999GF108991081051000751999999KA1999N-00111MD1310201+9999MW1451
0051267020999991928020312004+54733+020567FM-12+000999999V0201401N00671002401CN0040001N9-00221-00281102211ADDAY141999GF108991081051002501999999MD1210061+9999
0075267020999991928020406004+54733+020567FM-12+000999999V0201401N00931007801CN0100001N9-01111-01441103091ADDAA199000591AY171999GF107991061051008001021001KA1999N-01221MD1110141+9999
0051267020999991928020412004+54733+020567FM-12+000999999V0201401N00671220001CN0100001N9-00721-01221103191ADDAY111999GF107991001001999999021081MD1990061+9999
0064267020999991928020506004+54733+020567FM-12+000999999V0201601N00461004501CN0100001N9-01221-01561103351ADDAY111999GF108991081051004501999999KA1999N-01391MD1810061+9999
0051267020999991928020512004+54733+020567FM-12+000999999V0201601N00671004501CN0040001N9-00891-00941103041ADDAY121999GF108991081051004501999999MD1810141+9999
0064267020999991928020606004+54733+020567FM-12+000999999V0201801N002619999999N0040001N9-00281-00441101871ADDAY111999GF108991999999017501999999KA1999N-00781MD1810141+9999
0078267020999991928020612004+54733+020567FM-12+000999999V0202301N00261000601CN0010001N9-00111-00171101911ADDAY171999GF108991081051000751999999MW1711EQDQ01+000032APCTENQ02+000002APC3  
0070267020999991928020706004+54733+020567FM-12+000999999V0202501N00461001501CN0010001N9+00111+00061102461ADDAY121999GF108991081051001501999999KA1999N+00001MD1310061+9999MW1451
0051267020999991928020712004+54733+020567FM-12+000999999V0202501N00461004501CN0020001N9+00111-00111102461ADDAY181999GF108991081051004501999999MD1810141+9999
0081267020999991928020806004+54733+020567FM-12+000999999V0202701N00931002401CN0040001N9+00281+00061101171ADDAA199005091AY161999GF108991081051002501999999IA1009KA1999N+00001MD1310061+9999
0057267020999991928020812004+54733+020567FM-12+000999999V0202701N006719999999N0010001N9+00281+00221101281ADDAY141999GF108991999999000751999999MD1710061+9999MW1451
0075267020999991928020906004+54733+020567FM-12+000999999V0202701N00931002401CN0020001N9+00611+00561100861ADDAA199000691AY141999GF108991061061002501021001KA1999N+00391MD1990141+9999
0057267020999991928020912004+54733+020567FM-12+000999999V0202701N01541002401CN0040001N9+00611+00561100431ADDAY181999GF108991081051002501999999MD1710261+9999MW1501
0064267020999991928021006004+54733+020567FM-12+000999999V0202701N01541002401CN0040001N9+00281+00061100031ADDAY111999GF108991081051002501999999KA1999N+00221MD1810141+9999
0051267020999991928021012004+54733+020567FM-12+000999999V0202701N01901004501CN0100001N9+00501-00111099951ADDAY121999GF108991081051004501999999MD1810061+9999
0100267020999991928021106004+54733+020567FM-12+000999999V0201101N00931001501CN0010001N9+00001-00061098731ADDAA199000391AY171999GF108991081051001501999999KA1999N+00001MD1810742+9999MW1711EQDQ01+000742APC3  
0072267020999991928021112004+54733+020567FM-12+000999999V0201801N00931220001CN0100001N9+00281-00111098471ADDAY171999GF104991021051008001031001EQDQ01+000032APCTENQ02+000002APC3  
0075267020999991928021206004+54733+020567FM-12+000999999V0202501N00261000601CN0040001N9+00001-00061098271ADDAA199001091AY171999GF107991071051000751001001KA1999N+00001MD1310141+9999
0070267020999991928021212004+54733+020567FM-12+000999999V0202901N009319999999N0100001N9+00111-00111098821ADDAY171999GF108991999051002501001001MD1310261+9999EQDQ01+000042SCOTLC
0100267020999991928021306004+54733+020567FM-12+000999999V0202301N002619999999N0040001N9-00111-00171099871ADDAA124999999AY111999GF108991999051008001001001KA1999N-00221MD1310061+9999MW1711EQDQ01+000042SCOTLC
0078267020999991928021312004+54733+020567FM-12+000999999V0202501N00261002401CN0020001N9+00111+00061099831ADDAY171999GF107991061051002501001081MW1701EQDQ01+000032APCTENQ02+000002APC3  
0075267020999991928021406004+54733+020567FM-12+000999999V0209991C00001220001CN0100001N9-01221-01281100441ADDAA199002091AY171999GF101991011051017501001001KA1999N-01281MD1310201+9999
0088267020999991928021412004+54733+020567FM-12+000999999V0209991C00001220001CN0200001N9+00001-00721100671ADDAY101999GF102991999051017501001001EQDQ01+000012SCOTLCQ02+000012APCTENQ03+000002APC3  
0083267020999991928021506004+54733+020567FM-12+000999999V0209991C00001220001CN0100001N9-01221-01281101411ADDAY101999GF101991999001999999031001KA1999N-01221MD1310341+9999EQDQ01+000002SCOTLC
0051267020999991928021512004+54733+020567FM-12+000999999V0201401N00261220001CN0500001N9+00111-00441101861ADDAY101999GF100991001001999999001001MD1210201+9999
0081267020999991928021606004+54733+020567FM-12+000999999V0201801N00671000151CN0005001N9-00111-00171100401ADDAA199005091AY171999GF108991081051000251999999KA1999N-00391MD1710401+9999MW1731
0088267020999991928021612004+54733+020567FM-12+000999999V0202501N00931002401CN0020001N9+00281+00221101232ADDAY161999GF108991081051002501999999EQDQ01+101233APOSLPQ02+000032APCTENQ03+000002APC3  
0081267020999991928021706004+54733+020567FM-12+000999999V0202501N00261000151CN0002001N9+00221+00171099551ADDAA199004091AY161999GF108991081051000251999999KA1999N+00221MD1990061+9999MW1451
0088267020999991928021712004+54733+020567FM-12+000999999V0202701N00931002401CN0100001N9+00391+00171099151ADDAY181999GF108991999091002501001001EQDQ01+000072SCOTLCQ02+000042APCTENQ03+000142APC3  
0094267020999991928021806004+54733+020567FM-12+000999999V0203201N009319999999N0100001N9-00221-00561100291ADDAA199002091AY171999GF108991999051004501001001KA1999N-00221MD1310341+9999EQDQ01+000022SCOTLC
0051267020999991928021812004+54733+020567FM-12+000999999V0202901N00931004501CN0100001N9-00221-00561100731ADDAY121999GF108991081051004501999999MD1210201+9999
0064267020999991928021906004+54733+020567FM-12+000999999V0203401N00261007801CN0100001N9-00221-00391101501ADDAY121999GF108991081051008001999999KA1999N-00281MD1310061+9999
0051267020999991928021912004+54733+020567FM-12+000999999V0200701N00101015001CN0500001N9-00221-00391101551ADDAY121999GF108991061051017501021001MD1410001+9999
0081267020999991928022006004+54733+020567FM-12+000999999V0200501N00461007801CN0200001N9-01111-01281103141ADDAA124999999AY101999GF106991061051008001001001KA1999N-01111MD1310341+9999MW1851
0057267020999991928022012004+54733+020567FM-12+000999999V0200501N00461004501CN0040001N9-01001-01171103731ADDAY171999GF108991081051004501999999MD1210141+9999MW1711
0080267020999991928022106004+54733+020567FM-12+000999999V0202901N00671007801CN0200001N9-00111-00441103491ADDAA124999999AY111999GF107991071051008001001001KA1999N-00781EQDQ01+000002APC3  
0051267020999991928022112004+54733+020567FM-12+000999999V0203601N00671012301CN0500001N9-00111-00611103331ADDAY121999GF108991081051012501999999MD1810141+9999
0064267020999991928022206004+54733+020567FM-12+000999999V0200201N00461220001CN0100001N9-00721-00891103231ADDAY101999GF104991011011008001031001KA1999N-00781MD1310061+9999
0051267020999991928022212004+54733+020567FM-12+000999999V0200201N00461220001CN0500001N9-00221-00941103361ADDAY101999GF102991999999022501999999MD1210141+9999
0085267020999991928022306004+54733+020567FM-12+000999999V0203201N00261007801CN0100001N9-00221-00721103461ADDAY111999GF107991071051008001001001KA1999N-00721EQDQ01+000082APCTENQ02+000002APC3  
0072267020999991928022312004+54733+020567FM-12+000999999V0203401N00261007801CN0500001N9-00111-00611103491ADDAY121999GF108991081051008001999999EQDQ01+000082APCTENQ02+000002APC3  
0075267020999991928022406004+54733+020567FM-12+000999999V0201101N00101012301CN0200001N9-00281-00441103801ADDAA199000591AY171999GF108991081051012501999999KA1999N-00281MD1310141+9999
0051267020999991928022412004+54733+020567FM-12+000999999V0200701N00261012301CN0200001N9+00001-00501104021ADDAY111999GF108991081051012501999999MD1210061+9999
0091267020999991928022506004+54733+020567FM-12+000999999V0202501N00261001501CN0020001N9+00001-00061104351ADDAY121999GF108991081051001501999999KA1999N-00111MW1451EQDQ01+000032APCTENQ02+000002APC3  
0072267020999991928022512004+54733+020567FM-12+000999999V0202901N00261004501CN0200001N9+00111-00221104341ADDAY121999GF108991081051004501999999EQDQ01+000082APCTENQ02+000002APC3  
0064267020999991928022606004+54733+020567FM-12+000999999V0202501N00261220001CN0040001N9-00281-00331103431ADDAY111999GF104991001001999999001081KA1999N-00501MD1810141+9999
0051267020999991928022612004+54733+020567FM-12+000999999V0202901N00671030001CN0100001N9+00221+00001103061ADDAY101999GF106991021011008001031001MD1810141+9999
0064267020999991928022706004+54733+020567FM-12+000999999V0203601N00261220001CN0040001N9-00111-00171103391ADDAY101999GF102991021051004501001999KA1999N-00221MD1310141+9999
0072267020999991928022712004+54733+020567FM-12+000999999V0200501N00461220001CN0200001N9+00281-00111103501ADDAY101999GF100991001001999999001001EQDQ01+000032APCTENQ02+000002APC3  
0064267020999991928022806004+54733+020567FM-12+000999999V0201601N00261012301CN0200001N9-00281-00331103861ADDAY111999GF108991081051012501999999KA1999N-00501MD1310141+9999
0072267020999991928022812004+54733+020567FM-12+000999999V0201401N00261012301CN0200001N9-00111-00281103931ADDAY121999GF108991081051012501999999EQDQ01+000022APCTENQ02+000002APC3  
0085267020999991928022906004+54733+020567FM-12+000999999V0209991C00001075001CN0100001N9-00721-00781103811ADDAY101999GF106991041051017501001081KA1999N-00781EQDQ01+000082APCTENQ02+000002APC3  
0051267020999991928022912004+54733+020567FM-12+000999999V0201601N00101220001CN0100001N9+00221-00501103771ADDAY101999GF106991001001999999021081MD1110061+9999
