0081267020999991929010106004+54733+020567FM-12+000999999V0200501N00461004501CN0020001N9-00611-00941100331ADDAA199001091AY171999GF108991081061004501999999KA1999N-00611MD1310141+9999MW1731
0057267020999991929010112004+54733+020567FM-12+000999999V0200201N00261002401CN0020001N9-00501-01001100561ADDAY171999GF108991081061002501999999MD1210141+9999MW1711
0064267020999991929010206004+54733+020567FM-12+000999999V0200501N00461220001CN0200001N9-00501-01171102081ADDAY141999GF107991001001999999021999KA1999N-01001MD1310261+9999
0051267020999991929010212004+54733+020567FM-12+000999999V0200501N00461220001CN0500001N9-00501-01171102511ADDAY101999GF102991011011012501031001MD1210201+9999
0064267020999991929010306004+54733+020567FM-12+000999999V0200701N00261030001CN0500001N9-00611-01281103231ADDAY111999GF108991041051012501021999KA1999N-00611MD1310061+9999
0072267020999991929010312004+54733+020567FM-12+000999999V0200701N00461004501CN0500001N9-00501-00831103221ADDAY121999GF108991071051004501021001EQDQ01+000072APCTENQ02+000002APC3  
0085267020999991929010406004+54733+020567FM-12+000999999V0200701N00671007801CN0100001N9-00891-00941103441ADDAY121999GF108991081051008001999999KA1999N-01001EQDQ01+000042APCTENQ02+000062APC3  
0051267020999991929010412004+54733+020567FM-12+000999999V0200701N00461002401CN0100001N9-00891-00941103351ADDAY121999GF108991081051002501999999MD1710141+9999
0075267020999991929010506004+54733+020567FM-12+000999999V0200701N00261000601CN0010001N9-01281-01441103371ADDAY121999GF108991081051000751999999KA1999N-01391MW1101EQDQ01+000002APC3  
0051267020999991929010512004+54733+020567FM-12+000999999V0209991C00001002401CN0040001N9-01001-01171103331ADDAY121999GF108991081051002501999999MD1710061+9999
0064267020999991929010606004+54733+020567FM-12+000999999V0200901N006719999999N0200001N9-00721-00891104061ADDAY111999GF106991021051002501001999KA1999N-00891MD1310141+9999
0072267020999991929010612004+54733+020567FM-12+000999999V0200901N00671220001CN0100001N9-00781-00941104161ADDAY111999GF100991001001999999001001EQDQ01+000032APCTENQ02+000002APC3  
0085267020999991929010706004+54733+020567FM-12+000999999V0200901N00261220001CN0200001N9-01391-01561104341ADDAY101999GF101991999999017501999999KA1999N-01611EQDQ01+000032APCTENQ02+000002APC3  
0072267020999991929010712004+54733+020567FM-12+000999999V0200901N00261220001CN0100001N9-01001-01331104311ADDAY101999GF100991001001999999001001EQDQ01+000082APCTENQ02+000002APC3  
0070267020999991929010806004+54733+020567FM-12+000999999V0200701N00261000151CN0010001N9-01501-01671104711ADDAY101999GF108991081051000251999999KA1999N-01781MD1310141+9999MW1101
0078267020999991929010812004+54733+020567FM-12+000999999V0200701N00671000601CN0020001N9-00611-00671104911ADDAY141999GF108991081051000751999999MW1471EQDQ01+000042APCTENQ02+000062APC3  
0064267020999991929010906004+54733+020567FM-12+000999999V0209991C00001220001CN0040001N9-01611-01781999999ADDAY111999GF102991001001999999031999KA1999N-01721MD1310061+9999
0051267020999991929010912004+54733+020567FM-12+000999999V0201401N00101220001CN0100001N9-01221-01391999999ADDAY101999GF104991999999022501999999MD1810141+9999
0064267020999991929011006004+54733+020567FM-12+000999999V0201801N00101220001CN0100001N9-01611-01781104381ADDAY101999GF102991001001999999031999KA1999N-01891MD1710141+9999
0051267020999991929011012004+54733+020567FM-12+000999999V0201401N00101220001CN0040001N9-01221-01391104161ADDAY101999GF102991999999022501999999MD1810141+9999
0056267020999991929011106004+54733+020567FM-12+000999999V0202501N00101000601CN0005001N9-01221-01391103641ADDAY141999GF108991081051000751999999KA1999N-02001MW1471
0076267020999991929011112004+54733+020567FM-12+000999999V0202501N004619999999N0010001N9-00611-00781103311ADDAY141999GF106991999051001501001001MD1710201+9999MW1101EQDQ01+000042SCOTLC
0064267020999991929011206004+54733+020567FM-12+000999999V0203201N00671220001CN0100001N9+00281+00061102111ADDAY111999GF104991011051002501001999KA1999N-00111MD1810061+9999
0072267020999991929011212004+54733+020567FM-12+000999999V0203201N01231220001CN0200001N9+00281+00061102171ADDAY101999GF104991021051004501001021EQDQ01+000032APCTENQ02+000002APC3  
0064267020999991929011306004+54733+020567FM-12+000999999V0202701N01231001501CN0040001N9+00001-00221100881ADDAY121999GF108991081051001501999999KA1999N+00001MD1810461+9999
0070267020999991929011312004+54733+020567FM-12+000999999V0202901N00931007801CN0100001N9+00221+00001100022ADDAY111999GF107991061051008001031001MD1810461+9999EQDQ01+100023APOSLP
0081267020999991929011406004+54733+020567FM-12+000999999V0200201N00461002401CN0200001N9-00611-00941100521ADDAA199004091AY171999GF108991071061002501021999KA1999N-00611MD1210201+9999MW1231
0057267020999991929011412004+54733+020567FM-12+000999999V0203401N00261000151CN0002001N9-00721-00781100801ADDAY171999GF108991081061000251999999MD1210141+9999MW1711
0081267020999991929011506004+54733+020567FM-12+000999999V0202301N01231002401CN0010001N9-00721-00781100401ADDAA199014091AY171999GF106991061061002501001999KA1999N-00891MD1810201+9999MW1731
0051267020999991929011512004+54733+020567FM-12+000999999V0202301N00931220001CN0100001N9-00781-00941100061ADDAY171999GF104991999999017501999999MD1710201+9999
0075267020999991929011606004+54733+020567FM-12+000999999V0202301N00101220001CN0200001N9-00721-01061098751ADDAA199001091AY171999GF102991011051012501021999KA1999N-01001MD1310201+9999
0051267020999991929011612004+54733+020567FM-12+000999999V0201801N00261220001CN0200001N9-00721-01221099011ADDAY101999GF104991999999017501999999MD1210061+9999
0094267020999991929011706004+54733+020567FM-12+000999999V0202301N009319999999N0040001N9-00721-00891099531ADDAA199000391AY181999GF106991999051002501001001KA1999N-01281MD1310141+9999EQDQ01+000042SCOTLC
0070267020999991929011712004+54733+020567FM-12+000999999V0202301N009319999999N0100001N9-00611-00781099891ADDAY111999GF106991999051004501001001MD1210141+9999EQDQ01+000042SCOTLC
0075267020999991929011806004+54733+020567FM-12+000999999V0202701N00261004501CN0040001N9-00721-00781101001ADDAA199001091AY171999GF106991061051004501001001KA1999N-00891MD1210341+9999
0070267020999991929011812004+54733+020567FM-12+000999999V0202901N006719999999N0200001N9-00391-00891101441ADDAY171999GF106991999051004501001001MD1210141+9999EQDQ01+000042SCOTLC
0070267020999991929011906004+54733+020567FM-12+000999999V0202301N00461001501CN0020001N9-00281-00331100161ADDAY171999GF108991081051001501999999KA1999N-01001MD1710201+9999MW1231
0057267020999991929011912004+54733+020567FM-12+000999999V0203201N00931002401CN0040001N9-00221-00281100301ADDAY171999GF107991071051002501001001MD1210061+9999MW1711
0075267020999991929012006004+54733+020567FM-12+000999999V0203201N00931004501CN0100001N9-00111-00611102471ADDAA199000391AY171999GF107991071051004501001001KA1999N-00891MD1310341+9999
0057267020999991929012012004+54733+020567FM-12+000999999V0209991C00001001501CN0040001N9-00281-00331103031ADDAY171999GF108991081061001501999999MD1310201+9999MW1711
0089267020999991929012106004+54733+020567FM-12+000999999V0209991C000019999999N0010001N9-01501-01671103731ADDAY141999GF106991999051000251001001KA1999N-01781MD1310141+9999MW1101EQDQ01+000042SCOTLC
0051267020999991929012112004+54733+020567FM-12+000999999V0201401N00101030001CN0040001N9-00721-00781103701ADDAY141999GF106991041051012501031001MD1810061+9999
0064267020999991929012206004+54733+020567FM-12+000999999V0202301N00461030001CN0040001N9-00501-00831102991ADDAY111999GF107991041051012501021001KA1999N-00611MD1810141+9999
0051267020999991929012212004+54733+020567FM-12+000999999V0202301N00261012301CN0040001N9-00281-00611102801ADDAY111999GF108991061051012501021001MD1810141+9999
0064267020999991929012306004+54733+020567FM-12+000999999V0201801N00461002401CN0040001N9-00501-00831102261ADDAY121999GF108991081051002501999999KA1999N-00611MD1510061+9999
0081267020999991929012406004+54733+020567FM-12+000999999V0201101N00671001501CN0005001N9-01111-01281101721ADDAA199001091AY171999GF108991081051001501999999KA1999N-01111MD1410001+9999MW1711
0088267020999991929012412004+54733+020567FM-12+000999999V0209991C00001002401CN0020001N9-00781-00941101811ADDAY121999GF108991061051002501021001EQDQ01+001402WODIR Q02+000032APCTENQ03+000002APC3  
0064267020999991929012506004+54733+020567FM-12+000999999V0201401N00671004501CN0040001N9-00891-01061102201ADDAY121999GF108991081051004501999999KA1999N-01111MD1310141+9999
0088267020999991929012512004+54733+020567FM-12+000999999V0201401N006719999999N0100001N9-00221-00281102311ADDAY121999GF108991999051012501001001EQDQ01+000042SCOTLCQ02+000032APCTENQ03+000002APC3  
0085267020999991929012606004+54733+020567FM-12+000999999V0201101N00671007801CN0100001N9-00611-00781102201ADDAY121999GF108991081051008001999999KA1999N-00781EQDQ01+000032APCTENQ02+000002APC3  
0051267020999991929012612004+54733+020567FM-12+000999999V0200901N00931007801CN0100001N9-00391-00561102131ADDAY121999GF108991081051008001999999MD1810061+9999
0064267020999991929012706004+54733+020567FM-12+000999999V0200901N00931007801CN0200001N9-00501-00671101911ADDAY111999GF108991061051008001021999KA1999N-00611MD1610061+9999
0051267020999991929012712004+54733+020567FM-12+000999999V0200901N00931007801CN0100001N9-00501-00561101681ADDAY171999GF108991081051008001999999MD1810061+9999
0064267020999991929012806004+54733+020567FM-12+000999999V0201401N00671004501CN0100001N9-00281-00331101861ADDAY121999GF108991081051004501999999KA1999N-00391MD1310141+9999
0051267020999991929012812004+54733+020567FM-12+000999999V0201101N00461004501CN0100001N9-00221-00391102211ADDAY121999GF108991081051004501999999MD1310141+9999
0081267020999991929012906004+54733+020567FM-12+000999999V0202301N00261002401CN0020001N9-00501-00561103331ADDAA199000591AY171999GF108991081051002501999999KA1999N-00611MD1210201+9999MW1451
0070267020999991929012912004+54733+020567FM-12+000999999V0202501N00261004501CN0040001N9-00391-00561103621ADDAY121999GF108991999051004501001001MD1210141+9999EQDQ01+000062SCOTLC
0091267020999991929013006004+54733+020567FM-12+000999999V0200201N00101002401CN0010001N9-00501-00561104001ADDAY141999GF108991081051002501999999KA1999N-00721MW1451EQDQ01+000032APCTENQ02+000002APC3  
0062267020999991929013012004+54733+020567FM-12+000999999V0200701N00261002401CN0020001N9-00391-00441103951ADDAY171999GF108991081061002501999999MW1701EQDQ01+000002APC3  
0064267020999991929013106004+54733+020567FM-12+000999999V0200901N00461220001CN0100001N9-01611-01781104401ADDAY121999GF102991011051012501021999KA1999N-01721MD1310141+9999
0072267020999991929013112004+54733+020567FM-12+000999999V0200901N00261220001CN0100001N9-01391-01671104461ADDAY101999GF102991001001999999001081EQDQ01+000072APCTENQ02+000002APC3  
0085267020999991929020106004+54733+020567FM-12+000999999V0200901N00101220001CN0100001N9-02111-02281104441ADDAY101999GF100991001001999999001999KA1999N-02391EQDQ01+000082APCTENQ02+000002APC3  
0051267020999991929020112004+54733+020567FM-12+000999999V0201101N00101220001CN0040001N9-01281-01721104371ADDAY101999GF100991001001999999001001MD1810061+9999
0064267020999991929020206004+54733+020567FM-12+000999999V0201801N00101030001CN0040001N9-02001-02171104241ADDAY111999GF106991041051012501031999KA1999N-02391MD1510001+9999
0051267020999991929020212004+54733+020567FM-12+000999999V0202001N001019999999N0200001N9-01281-01721104021ADDAY111999GF106991999999022501999999MD1810061+9999
0064267020999991929020306004+54733+020567FM-12+000999999V0202501N006719999999N0040001N9-01221-01391103011ADDAY121999GF107991999999008001999999KA1999N-01501MD1710201+9999
0070267020999991929020312004+54733+020567FM-12+000999999V0202901N00671220001CN0100001N9-00111-00441102801ADDAY111999GF106991999001999999021001MD1810201+9999EQDQ01+000002SCOTLC
0083267020999991929020406004+54733+020567FM-12+000999999V0203201N004619999999N0200001N9-00111-00281101931ADDAY121999GF108991999051004501001001KA1999N-00391MD1810141+9999EQDQ01+000022SCOTLC
0051267020999991929020412004+54733+020567FM-12+000999999V0203201N00671004501CN0100001N9+00001-00221101831ADDAY121999GF108991081051004501999999MD1810061+9999
0075267020999991929020506004+54733+020567FM-12+000999999V0200501N00671004501CN0100001N9-00721-00891102101ADDAA199000691AY171999GF108991061051004501021001KA1999N-00781MD1210201+9999
0051267020999991929020512004+54733+020567FM-12+000999999V0200501N00461030001CN0100001N9-01501-01941102511ADDAY111999GF106991021051017501031001MD1310141+9999
0064267020999991929020606004+54733+020567FM-12+000999999V0200701N00101220001CN0100001N9-02721-03001103351ADDAY101999GF101991001001999999001081KA1999N-02721MD1310141+9999
0064267020999991929020706004+54733+020567FM-12+000999999V0202301N00461007801CN0040001N9-01781-02221103721ADDAY121999GF108991061051008001021001KA1999N-02501MD1810141+9999
0057267020999991929020712004+54733+020567FM-12+000999999V0202301N00931007801CN0020001N9-01391-01671103231ADDAY171999GF108991081051008001999999MD1810201+9999MW1701
0075267020999991929020806004+54733+020567FM-12+000999999V0201601N00101075001CN0040001N9-01221-01391102351ADDAA199002091AY171999GF107991041051022501001081KA1999N-01281MD1810261+9999
0051267020999991929020812004+54733+020567FM-12+000999999V0202901N00461004501CN0040001N9-00281-00331101931ADDAY171999GF108991081051004501999999MD1810201+9999
0064267020999991929020906004+54733+020567FM-12+000999999V0200501N00261220001CN0100001N9-02781-03061103071ADDAY101999GF101991001001999999001999KA1999N-02891MD1310261+9999
0072267020999991929020912004+54733+020567FM-12+000999999V0200701N00101220001CN0100001N9-02391-02831103301ADDAY111999GF100991001001999999001001EQDQ01+000012APCTENQ02+000002APC3  
0085267020999991929021006004+54733+020567FM-12+000999999V0203601N00261220001CN0100001N9-03391-03671103601ADDAY101999GF100991001001999999001999KA1999N-03391EQDQ01+000042APCTENQ02+000062APC3  
0051267020999991929021012004+54733+020567FM-12+000999999V0200201N00461220001CN0100001N9-02721-03111103551ADDAY101999GF100991001001999999001001MD1810061+9999
0075267020999991929021106004+54733+020567FM-12+000999999V0200501N00461012301CN0100001N9-02281-02561103201ADDAA199000691AY111999GF108991081051012501999999KA1999N-02611MD1610061+9999
0051267020999991929021112004+54733+020567FM-12+000999999V0200501N00461220001CN0100001N9-01721-02171103041ADDAY101999GF101991999999022501999999MD1810141+9999
0085267020999991929021206004+54733+020567FM-12+000999999V0200201N00261220001CN0040001N9-02281-02441103011ADDAY101999GF102991021051012501031001KA1999N-02391EQDQ01+000082APCTENQ02+000002APC3  
0085267020999991929021306004+54733+020567FM-12+000999999V0200701N004619999999N0100001N9-01721-01891102471ADDAY111999GF106991999999022501999999KA1999N-02111EQDQ01+000032APCTENQ02+000002APC3  
0051267020999991929021312004+54733+020567FM-12+000999999V0200701N00931220001CN0100001N9-01281-01611102481ADDAY111999GF104991999999022501999999MD1810061+9999
0094267020999991929021406004+54733+020567FM-12+000999999V0201101N01231220001CN0200001N9-01221+99999102331ADDAA199000591AY171999GF108991999001999999021001KA1999N-01281MD1510001+9999EQDQ01+000002SCOTLC
0051267020999991929021412004+54733+020567FM-12+000999999V0200701N015419999999N0020001N9-01001-01171102241ADDAY111999GF106991999999017501999999MD1810061+9999
0064267020999991929021506004+54733+020567FM-12+000999999V0200701N00931220001CN0040001N9-01001-01061102611ADDAY111999GF100991001001999999001001KA1999N-01111MD1810061+9999
0051267020999991929021512004+54733+020567FM-12+000999999V0200701N00931004501CN0040001N9-00111-00281102501ADDAY121999GF108991081051004501999999MD1810061+9999
0064267020999991929021606004+54733+020567FM-12+000999999V0200901N00671030001CN0100001N9-00781-00941102331ADDAY121999GF108991041051008001021001KA1999N-00891MD1310061+9999
0072267020999991929021612004+54733+020567FM-12+000999999V0200701N00931030001CN0100001N9-00611-00941102391ADDAY111999GF106991041051008001021001EQDQ01+000012APCTENQ02+000002APC3  
0064267020999991929021706004+54733+020567FM-12+000999999V0200701N00461220001CN0100001N9-01391-01561102971ADDAY101999GF104991041051012501001001KA1999N-01611MD1310141+9999
0070267020999991929021712004+54733+020567FM-12+000999999V0200701N00931220001CN0100001N9-00781-01111103191ADDAY101999GF102991999001999999031001MD1110061+9999EQDQ01+000002SCOTLC
0064267020999991929021806004+54733+020567FM-12+000999999V0200701N00461220001CN0100001N9-01781-01941103911ADDAY101999GF102991021051017501001001KA1999N-01891MD1310141+9999
0051267020999991929021812004+54733+020567FM-12+000999999V0200701N00461220001CN0100001N9-01001-01171103971ADDAY101999GF100991001001999999001001MD1810061+9999
0085267020999991929021906004+54733+020567FM-12+000999999V0200501N00101220001CN0100001N9-02001-02171103981ADDAY101999GF101991001001999999001021KA1999N-02221EQDQ01+000032APCTENQ02+000002APC3  
0051267020999991929021912004+54733+020567FM-12+000999999V0200901N00261220001CN0100001N9-01111-01281103941ADDAY101999GF100991001001999999001001MD1810061+9999
0081267020999991929022006004+54733+020567FM-12+000999999V0202701N00101002401CN0010001N9-01111-01171103861ADDAA199000591AY171999GF107991071061002501001001KA1999N-02001MD1510001+9999MW1711
0072267020999991929022012004+54733+020567FM-12+000999999V0200501N00671004501CN0100001N9-00781-00941103911ADDAY171999GF108991081051004501999999EQDQ01+000042APCTENQ02+000062APC3  
0075267020999991929022106004+54733+020567FM-12+000999999V0201801N00101007801CN0200001N9-01001-01331104231ADDAA199000691AY171999GF108991081051008001999999KA1999N-01001MD1810061+9999
0051267020999991929022112004+54733+020567FM-12+000999999V0202301N00671004501CN0200001N9-00721-01221103971ADDAY171999GF108991081051004501999999MD1810141+9999
0057267020999991929022212004+54733+020567FM-12+000999999V0202301N00461002401CN0005001N9-00611-00781101731ADDAY171999GF108991081061002501999999MD1810261+9999MW1711
0081267020999991929022306004+54733+020567FM-12+000999999V0201101N00101001501CN0005001N9-00391-00441100481ADDAA199007091AY171999GF108991081051001501999999KA1999N-00501MD1510001+9999MW1231
0051267020999991929022312004+54733+020567FM-12+000999999V0200201N004619999999N0040001N9-00501-00671100821ADDAY111999GF106991999999012501999999MD1310201+9999
0101267020999991929022406004+54733+020567FM-12+000999999V0200501N00261220001CN0040001N9-01501-01671101431ADDAY101999GF104991999001999999031001KA1999N-01611EQDQ01+000002SCOTLCQ02+000032APCTENQ03+000002APC3  
0078267020999991929022412004+54733+020567FM-12+000999999V0203201N00261030001CN0040001N9-01111-01441101491ADDAY171999GF106991041051008001031001MW1711EQDQ01+000032APCTENQ02+000002APC3  
0081267020999991929022506004+54733+020567FM-12+000999999V0200901N00101004501CN0020001N9-01391-01561101811ADDAA199000691AY171999GF108991081051004501999999KA1999N-02111MD1310061+9999MW1711
0057267020999991929022512004+54733+020567FM-12+000999999V0200701N00261007801CN0020001N9-01001-01171101801ADDAY181999GF106991061051008001001001MD1810061+9999MW1851
0081267020999991929022606004+54733+020567FM-12+000999999V0200501N00101007801CN0020001N9-01221-01391101591ADDAA199000391AY171999GF108991081051008001999999KA1999N-01281MD1610061+9999MW1711
0072267020999991929022612004+54733+020567FM-12+000999999V0203601N00261220001CN0040001N9-01001-01331101511ADDAY171999GF104991999999017501999999EQDQ01+000082APCTENQ02+000002APC3  
0118267020999991929022706004+54733+020567FM-12+000999999V0209991C000019999999N0020001N9-01501-01671101991ADDAA199000391AY111999GF106991999051001501001001KA1999N-01891MW1461EQDQ01+000042SCOTLCQ02+000012APCTENQ03+000002APC3  
0051267020999991929022712004+54733+020567FM-12+000999999V0200201N00461220001CN0200001N9-01221-01561102021ADDAY111999GF104991041051008001001001MD1210141+9999
0070267020999991929022806004+54733+020567FM-12+000999999V0202701N00101000151CN0005001N9-02221-02391102791ADDAY101999GF108991081051000251999999KA1999N-02611MD1310201+9999MW1441
0070267020999991929022812004+54733+020567FM-12+000999999V0202701N00261220001CN0020001N9-00502-00831103011ADDAY101999GF102991021051008001001001MD1310141+9999EQDQ01+026823ATOT  
0064267020999991929080106004+54733+020567FM-12+002099999V0201801N00461012301CN0100001N9+01391+99999100531ADDAY111999GF108991081051012501999999KA1999N+01111MD1810061+9999
0051267020999991929080112004+54733+020567FM-12+002099999V0201801N004619999999N0100001N9+02001+99999100301ADDAY181999GF108991011071008001999999MD1810141+9999
0100267020999991929080118004+54733+020567FM-12+002099999V0201801N00261004501CN0100001N9+02001+99999100061ADDAA199000391AY111999GF106991999031004501011999KA1999M+02111MD1810141+9999MW1161EQDQ01+000072SCOTLC
0096267020999991929080206004+54733+020567FM-12+002099999V0202501N006719999999N0100001N9+01781+99999100341ADDAA199002091AY111999GF106991021051017501031999KA1999N+01281EQDQ01+000042APCTENQ02+000062APC3  
0051267020999991929080212004+54733+020567FM-12+002099999V0202501N006719999999N0100001N9+02001+99999100661ADDAY111999GF107991021071008001999999MD1310141+9999
0064267020999991929080218004+54733+020567FM-12+002099999V0202501N006719999999N0100001N9+01891+99999100931ADDAY111999GF106991041011008001031999KA1999M+02111MD1310141+9999
0075267020999991929080306004+54733+020567FM-12+002099999V0202901N00461220001CN0200001N9+01501+99999101511ADDAA199000691AY181999GF104991041011008001001011KA1999N+01221MD1210061+9999
0051267020999991929080312004+54733+020567FM-12+002099999V0202701N00671220001CN0200001N9+01611+99999101841ADDAY101999GF104991041011008001011999MD1310141+9999
0064267020999991929080318004+54733+020567FM-12+002099999V0202901N00261220001CN0200001N9+01501+99999102101ADDAY101999GF101991011011008001001071KA1999M+01781MD1210261+9999
0064267020999991929080406004+54733+020567FM-12+002099999V0201401N00461220001CN0200001N9+01501+99999102321ADDAY101999GF102991001001999999001071KA1999N+00501MD1310061+9999
0051267020999991929080412004+54733+020567FM-12+002099999V0201401N00461220001CN0500001N9+02111+99999102151ADDAY101999GF102991001001999999031011MD1810141+9999
0064267020999991929080418004+54733+020567FM-12+002099999V0201401N00101015001CN0200001N9+01781+99999101951ADDAY111999GF106991061051017501031999KA1999M+02221MD1810061+9999
0075267020999991929080506004+54733+020567FM-12+002099999V0201101N00461012301CN0500001N9+01611+99999101461ADDAA199001091AY181999GF108991071051012501011999KA1999N+01391MD1810061+9999
0051267020999991929080512004+54733+020567FM-12+002099999V0200901N00261012301CN0500001N9+02111+99999101231ADDAY121999GF107991071051012501001001MD1810061+9999
0064267020999991929080518004+54733+020567FM-12+002099999V0200201N001019999999N0200001N9+02111+99999101131ADDAY111999GF106991041011012501001071KA1999M+02221MD1610061+9999
0056267020999991929080606004+54733+020567FM-12+002099999V0203401N006719999999N0100001N9+01721+99999101421ADDGF106991021051002501031999KA1999N+01111MD1210061+9999
0051267020999991929080612004+54733+020567FM-12+002099999V0203601N00671220001CN0100001N9+01781+99999101721ADDAY101999GF102991011011008001011999MD1310061+9999
0064267020999991929080618004+54733+020567FM-12+002099999V0203401N00261220001CN0100001N9+01391+99999101871ADDAY101999GF102991011011008001001071KA1999M+01891MD1210141+9999
0093267020999991929080706004+54733+020567FM-12+002099999V0200501N00461220001CN0200001N9+01611+99999101781ADDGF101991999001022501011001KA1999N+00781EQDQ01+000002SCOTLCQ02+000082APCTENQ03+000002APC3  
0051267020999991929080712004+54733+020567FM-12+002099999V0200501N00461220001CN0200001N9+02001+99999101711ADDAY101999GF102991001001999999011071MD1610061+9999
0064267020999991929080718004+54733+020567FM-12+002099999V0203601N00261220001CN0200001N9+01611+99999101631ADDAY101999GF104991001001999999011071KA1999M+02001MD1810061+9999
0085267020999991929080806004+54733+020567FM-12+002099999V0200201N00101220001CN0100001N9+01891+99999101421ADDAY141999GF104991001001999999001071KA1999N+01111EQDQ01+000082APCTENQ02+000002APC3  
0051267020999991929080812004+54733+020567FM-12+002099999V0203601N004619999999N0200001N9+02281+99999101261ADDAY111999GF106991041051017501031999MD1810061+9999
0064267020999991929080818004+54733+020567FM-12+002099999V0203601N00101220001CN0100001N9+02001+99999101261ADDAY111999GF102991011011012501001071KA1999M+02391MD1610061+9999
0085267020999991929080906004+54733+020567FM-12+002099999V0201601N00101220001CN0100001N9+02111+99999101171ADDAY141999GF102991001001999999001071KA1999N+01111EQDQ01+000022APCTENQ02+000002APC3  
0072267020999991929080912004+54733+020567FM-12+002099999V0203201N00261220001CN0100001N9+02501+99999101251ADDAY101999GF101991001001999999001071EQDQ01+000032APCTENQ02+000002APC3  
0099267020999991929080918004+54733+020567FM-12+002099999V0203201N004619999999N0040001N9+01611+99999999999ADDAY111999GF107991041051017501011999KA1999M+02721MD1210141+9999EQDQ01+095543APOSLPQ02 095543APOSLP
0102267020999991929081006004+54733+020567FM-12+002099999V0203201N001019999999N0100001N9+01501+99999101701ADDAA199001091AY161999GF108991041061004501999999KA1999N+01391MW1601EQDQ01+000032APCTENQ02+000002APC3  
0072267020999991929081012004+54733+020567FM-12+002099999V0203401N002619999999N0200001N9+01721+99999101781ADDAY111999GF107991021071008001999999EQDQ01+000032APCTENQ02+000002APC3  
0096267020999991929081018004+54733+020567FM-12+002099999V0209991C000019999999N0040001N9+01611+99999101871ADDAA199000691AY111999GF107991011071008001999999KA1999M+01891EQDQ01+000032APCTENQ02+000002APC3  
0085267020999991929081106004+54733+020567FM-12+002099999V0203201N00101220001CN0100001N9+01721+99999102181ADDAY101999GF100991001001999999001001KA1999N+00891EQDQ01+000042APCTENQ02+000062APC3  
0072267020999991929081112004+54733+020567FM-12+002099999V0202701N00101220001CN0100001N9+02221+99999102181ADDAY101999GF101991011011008001001001EQDQ01+000032APCTENQ02+000002APC3  
0064267020999991929081118004+54733+020567FM-12+002099999V0209991C00001220001CN0100001N9+02001+99999102001ADDAY101999GF102991021001017501011001KA1999M+02281MD1810061+9999
0088267020999991929081206004+54733+020567FM-12+002099999V0201801N00261220001CN0200001N9+01891+99999102001ADDAY111999GF102991999001999999031001EQDQ01+000002SCOTLCQ02+000082APCTENQ03+000002APC3  
0051267020999991929081212004+54733+020567FM-12+002099999V0201801N00461220001CN0200001N9+02501+99999101881ADDAY111999GF104991041011012501001001MD1810061+9999
0064267020999991929081218004+54733+020567FM-12+002099999V0201601N00101220001CN0100001N9+01891+99999101761ADDAY111999GF104991021051022501011999KA1999M+02501MD1610061+9999
0075267020999991929081306004+54733+020567FM-12+002099999V0202901N00461220001CN0100001N9+01611+99999101861ADDAA199004091AY161999GF104991011011008001001011KA1999N+01391MD1210061+9999
0057267020999991929081312004+54733+020567FM-12+002099999V0202501N004619999999N0200001N9+01891+99999102121ADDAY111999GF106991041031008001999999MD1310141+9999MW1161
0064267020999991929081318004+54733+020567FM-12+002099999V0202901N00101220001CN0100001N9+01611+99999102261ADDAY101999GF102991021011012501011999KA1999M+02001MD1310061+9999
0064267020999991929081406004+54733+020567FM-12+002099999V0202501N00261220001CN0200001N9+01611+99999102471ADDAY101999GF104991021011012501031999KA1999N+00891MD1410001+9999
0072267020999991929081412004+54733+020567FM-12+002099999V0202701N00261220001CN0200001N9+02221+99999102441ADDAY101999GF104991021031008001999999EQDQ01+000082APCTENQ02+000002APC3  
0064267020999991929081418004+54733+020567FM-12+002099999V0201401N00101220001CN0200001N9+01781+99999102241ADDAY101999GF100991001001999999001001KA1999M+02221MD1810061+9999
0064267020999991929081506004+54733+020567FM-12+002099999V0202001N00461220001CN0100001N9+01781+99999101901ADDAY101999GF102991001001999999031071KA1999N+01221MD1990061+9999
0051267020999991929081512004+54733+020567FM-12+002099999V0202301N00461220001CN0200001N9+02391+99999101781ADDAY101999GF104991001001999999011071MD1810061+9999
0096267020999991929081518004+54733+020567FM-12+002099999V0203401N001019999999N0100001N9+01611+99999101831ADDAA199000691AY191999GF106991041051022501999999KA1999M+02391EQDQ01+000042APCTENQ02+000062APC3  
0056267020999991929081606004+54733+020567FM-12+002099999V0202901N00261220001CN0040001N9+01611+99999999999ADDGF102991021011008001001071KA1999N+01111MD1310061+9999
0072267020999991929081612004+54733+020567FM-12+002099999V0200901N002619999999N0200001N9+02111+99999102101ADDAY111999GF106991041031012501001071EQDQ01+000082APCTENQ02+000002APC3  
0085267020999991929081618004+54733+020567FM-12+002099999V0200501N00101220001CN0200001N9+01721+99999102151ADDAY111999GF104991001001999999011071KA1999M+02111EQDQ01+000032APCTENQ02+000002APC3  
0064267020999991929081706004+54733+020567FM-12+002099999V0200901N00261220001CN0100001N9+01781+99999102081ADDAY121999GF100991001001999999001001KA1999N+01111MD1810061+9999
0051267020999991929081712004+54733+020567FM-12+002099999V0201401N00671220001CN0200001N9+02721+99999101911ADDAY101999GF104991021011012501001011MD1810141+9999
0064267020999991929081718004+54733+020567FM-12+002099999V0201101N00261220001CN0100001N9+02111+99999101631ADDAY101999GF104991001001999999001071KA1999M+02781MD1610061+9999
0088267020999991929081806004+54733+020567FM-12+002099999V0201801N00261220001CN0040001N9+02111+99999101661ADDAY101999GF102991011011999999001011EQDQ01+000992SCOLCBQ02+000022APCTENQ03+000002APC3  
0057267020999991929081812004+54733+020567FM-12+002099999V0200501N00461220001CN0200001N9+02281+99999101631ADDAY101999GF102991001001999999031011MD1710061+9999MW1171
0102267020999991929081818004+54733+020567FM-12+002099999V0202901N002619999999N0100001N9+01781+99999101451ADDAA199014091AY191999GF106991041031012501001071KA1999M+02501MW1291EQDQ01+000072APCTENQ02+000002APC3  
0075267020999991929081906004+54733+020567FM-12+002099999V0202901N001019999999N0100001N9+01721+99999101591ADDAA199001091AY161999GF106991041001017501031011KA1999N+01501MD1310061+9999
0051267020999991929081912004+54733+020567FM-12+002099999V0203201N004619999999N0200001N9+01781+99999101791ADDAY121999GF108991021031008001999999MD1110061+9999
0064267020999991929081918004+54733+020567FM-12+002099999V0202901N00101220001CN0200001N9+01501+99999101871ADDAY111999GF104991041051012501001071KA1999M+02001MD1210141+9999
0064267020999991929082006004+54733+020567FM-12+002099999V0202901N00461220001CN0200001N9+01501+99999102161ADDAY101999GF104991021011008001001071KA1999N+00891MD1310061+9999
0051267020999991929082012004+54733+020567FM-12+002099999V0203401N00461220001CN0200001N9+01781+99999102231ADDAY111999GF104991021011008001001071MD1010001+9999
0085267020999991929082018004+54733+020567FM-12+002099999V0203401N00101220001CN0200001N9+01391+99999102271ADDAY111999GF104991011011012501001071KA1999M+01891EQDQ01+000032APCTENQ02+000002APC3  
0064267020999991929082106004+54733+020567FM-12+002099999V0200701N004619999999N0100001N9+01281+99999102301ADDAY111999GF106991011011008001011999KA1999N+00721MD1010001+9999
0057267020999991929082112004+54733+020567FM-12+002099999V0200201N001019999999N0100001N9+01391+99999102271ADDAY161999GF108991011061008001999999MD1510001+9999MW1631
0102267020999991929082118004+54733+020567FM-12+002099999V0209991C000019999999N0100001N9+01281+99999102221ADDAA199004091AY161999GF108991011071008001999999KA1999M+01501MW1611EQDQ01+000032APCTENQ02+000002APC3  
0096267020999991929082206004+54733+020567FM-12+002099999V0202301N001019999999N0100001N9+01391+99999102081ADDAA199000691AY121999GF107991021071008001999999KA1999N+01111EQDQ01+000032APCTENQ02+000002APC3  
0072267020999991929082212004+54733+020567FM-12+002099999V0203401N00101220001CN0200001N9+01721+99999102031ADDAY111999GF104991021071008001999999EQDQ01+000032APCTENQ02+000002APC3  
0096267020999991929082218004+54733+020567FM-12+002099999V0203601N00101220001CN0500001N9+01501+99999102001ADDAA199000691AY111999GF102991011011012501001071KA1999M+01781EQDQ01+000032APCTENQ02+000002APC3  
0062267020999991929082306004+54733+020567FM-12+002099999V0202301N00101220001CN0020001N9+01391+99999102141ADDGF102991021011008001001001KA1999N+00611MD1310061+9999MW1441
0072267020999991929082312004+54733+020567FM-12+002099999V0203601N002619999999N0500001N9+01781+99999102191ADDAY111999GF106991021071008001999999EQDQ01+000032APCTENQ02+000002APC3  
0085267020999991929082318004+54733+020567FM-12+002099999V0200501N00101220001CN0500001N9+01391+99999102201ADDAY101999GF102991001001999999011071KA1999M+01891EQDQ01+000082APCTENQ02+000002APC3  
0064267020999991929082406004+54733+020567FM-12+002099999V0202001N00261220001CN0100001N9+01501+99999102101ADDAY101999GF106991001001999999011011KA1999N+00611MD1810061+9999
0051267020999991929082412004+54733+020567FM-12+002099999V0202501N006719999999N0200001N9+02281+99999101911ADDAY111999GF106991041001022501071999MD1810141+9999
0064267020999991929082418004+54733+020567FM-12+002099999V0202301N00101012301CN0100001N9+02111+99999101721ADDAY121999GF108991061051012501011999KA1999M+02391MD1810061+9999
0085267020999991929082506004+54733+020567FM-12+002099999V0202501N004619999999N0100001N9+01891+99999101561ADDAY111999GF107991041061008001011999KA1999N+01721EQDQ01+000042APCTENQ02+000062APC3  
0072267020999991929082512004+54733+020567FM-12+002099999V0202501N004619999999N0100001N9+01891+99999101741ADDAY181999GF107991011061008001999999EQDQ01+000012APCTENQ02+000002APC3  
0096267020999991929082518004+54733+020567FM-12+002099999V0202901N004619999999N0200001N9+01391+99999101781ADDAA199001091AY111999GF106991011011012501001071KA1999M+02111EQDQ01+000032APCTENQ02+000002APC3  
0085267020999991929082606004+54733+020567FM-12+002099999V0202701N006719999999N0200001N9+01611+99999101681ADDAY101999GF199999021071012501999999KA1999N+00781EQDQ01+000032APCTENQ02+000002APC3  
0072267020999991929082612004+54733+020567FM-12+002099999V0202701N00931220001CN0200001N9+01611+99999101741ADDAY111999GF104991041011008001001001EQDQ01+000032APCTENQ02+000002APC3  
0075267020999991929082618004+54733+020567FM-12+002099999V0202901N00261220001CN0100001N9+01281+99999101991ADDAA199000591AY181999GF102991021011008001001001KA1999M+01781MD1310141+9999
0075267020999991929082706004+54733+020567FM-12+002099999V0202501N00671220001CN0100001N9+01391+99999102381ADDAA199000691AY101999GF102991021011004501001001KA1999N+01001MD1310061+9999
0051267020999991929082712004+54733+020567FM-12+002099999V0202501N00671220001CN0500001N9+01781+99999102381ADDAY101999GF104991041011012501001001MD1810061+9999
0083267020999991929082718004+54733+020567FM-12+002099999V0203201N00101220001CN0100001N9+01611+99999102181ADDAY101999GF101991999001999999011001KA1999M+01891MD1810141+9999EQDQ01+000002SCOTLC
0085267020999991929082806004+54733+020567FM-12+002099999V0202501N00261220001CN0100001N9+01611+99999102081ADDAY101999GF101991011011012501001001KA1999N+00721EQDQ01+000032APCTENQ02+000002APC3  
0070267020999991929082812004+54733+020567FM-12+002099999V0201601N00461220001CN0500001N9+02391+99999101961ADDAY101999GF101991999001999999011001MD1810141+9999EQDQ01+000002SCOTLC
0064267020999991929082818004+54733+020567FM-12+002099999V0201401N00261220001CN0200001N9+01721+99999101751ADDAY101999GF100991001001999999001001KA1999M+02391MD1810141+9999
0085267020999991929082906004+54733+020567FM-12+002099999V0202501N00261220001CN0040001N9+01721+99999101591ADDAY101999GF102991001001999999071999KA1999N+01001EQDQ01+000032APCTENQ02+000002APC3  
0056267020999991929082912004+54733+020567FM-12+002099999V0202901N00671220001CN0100001N9+02611+99999101591ADDAY101999GF104991021001999999071999EQDQ01+000002APC3  
0064267020999991929082918004+54733+020567FM-12+002099999V0203201N00461220001CN0100001N9+01781+99999101801ADDAY101999GF102991001001999999011071KA1999M+02891MD1310141+9999
0056267020999991929083006004+54733+020567FM-12+002099999V0202501N00261220001CN0040001N9+01721+99999102021ADDGF102991011051012501001071KA1999N+01221MD1310061+9999
0072267020999991929083012004+54733+020567FM-12+002099999V0203201N002619999999N0200001N9+02111+99999102031ADDAY111999GF106991011071012501999999EQDQ01+000082APCTENQ02+000002APC3  
0085267020999991929083018004+54733+020567FM-12+002099999V0203401N00101220001CN0200001N9+01611+99999102041ADDAY111999GF104991021051022501001071KA1999M+02221EQDQ01+000032APCTENQ02+000002APC3  
0085267020999991929083106004+54733+020567FM-12+002099999V0201601N00101220001CN0100001N9+01501+99999102081ADDAY141999GF106991001001999999011011KA1999N+00611EQDQ01+000082APCTENQ02+000002APC3  
0051267020999991929083112004+54733+020567FM-12+002099999V0201101N00101220001CN0200001N9+02281+99999102001ADDAY101999GF102991001001999999001011MD1810061+9999
0064267020999991929083118004+54733+020567FM-12+002099999V0200201N00461220001CN0100001N9+01721+99999101951ADDAY101999GF106991001001999999031081KA1999M+02391MD1610061+9999
0096267020999991929090106004+54733+020567FM-12+002099999V0200701N004619999999N0040001N9+01721+99999101991ADDAA199001091AY191999GF106991021051017501031999KA1999N+01281EQDQ01+000042APCTENQ02+000062APC3  
0072267020999991929090112004+54733+020567FM-12+002099999V0200901N00461220001CN0200001N9+02281+99999101911ADDAY101999GF100991001001999999001001EQDQ01+000062APCTENQ02+000002APC3  
0085267020999991929090118004+54733+020567FM-12+002099999V0209991C00001220001CN0100001N9+01721+99999101911ADDAY101999GF100991001001999999001001KA1999M+02391EQDQ01+000032APCTENQ02+000002APC3  
0064267020999991929090206004+54733+020567FM-12+002099999V0201601N00261220001CN0100001N9+01721+99999101741ADDAY101999GF106991001001999999011081KA1999N+01111MD1810061+9999
0072267020999991929090212004+54733+020567FM-12+002099999V0202901N006719999999N0100001N9+02281+99999101631ADDAY111999GF106991021051008001001081EQDQ01+000032APCTENQ02+000002APC3  
0064267020999991929090218004+54733+020567FM-12+002099999V0202901N00261220001CN0200001N9+01611+99999101721ADDAY101999GF104991021051022501001081KA1999M+02221MD1310061+9999
0085267020999991929090306004+54733+020567FM-12+002099999V0202901N00671220001CN0100001N9+01611+99999101721ADDAY111999GF104991021011012501001081KA1999N+01281EQDQ01+000032APCTENQ02+000002APC3  
0051267020999991929090312004+54733+020567FM-12+002099999V0202901N00461007801CN0100001N9+01611+99999101871ADDAY121999GF108991081051008001999999MD1310061+9999
0096267020999991929090318004+54733+020567FM-12+002099999V0202901N00261007801CN0100001N9+01501+99999101831ADDAA199000691AY181999GF107991061051008001011999KA1999M+01781EQDQ01+000082APCTENQ02+000002APC3  
0064267020999991929090406004+54733+020567FM-12+002099999V0202901N00261220001CN0100001N9+01611+99999101941ADDAY121999GF102991021071012501999999KA1999N+01391MD1310061+9999
0072267020999991929090412004+54733+020567FM-12+002099999V0202901N002619999999N0200001N9+01891+99999102041ADDAY111999GF106991011051012501001081EQDQ01+000032APCTENQ02+000002APC3  
0101267020999991929090418004+54733+020567FM-12+002099999V0200201N00101220001CN0200001N9+01281+99999102041ADDAY101999GF102991999001999999031001KA1999M+01891EQDQ01+000002SCOTLCQ02+000082APCTENQ03+000002APC3  
0064267020999991929090506004+54733+020567FM-12+002099999V0202301N00101220001CN0100001N9+01611+99999101911ADDAY111999GF104991001001999999001081KA1999N+01001MD1810061+9999
0051267020999991929090512004+54733+020567FM-12+002099999V0202001N00261220001CN0100001N9+02611+99999101741ADDAY101999GF101991001001999999001011MD1810141+9999
0064267020999991929090518004+54733+020567FM-12+002099999V0201401N004619999999N0100001N9+02111+99999101371ADDAY111999GF106991041091008001999999KA1999M+02721MD1810201+9999
0075267020999991929090606004+54733+020567FM-12+002099999V0202501N006719999999N0040001N9+01781+99999100611ADDAA199011091AY191999GF106991041001022501071999KA1999N+01611MD1810141+9999
0078267020999991929090612004+54733+020567FM-12+002099999V0202701N00461004501CN0040001N9+01501+99999100551ADDAY161999GF108991061061004501011999MW1611EQDQ01+000032APCTENQ02+000002APC3  
0081267020999991929090618004+54733+020567FM-12+002099999V0202901N004619999999N0200001N9+01221+99999100391ADDAA199005091AY181999GF106991021081004501999999KA1999M+02001MD1510061+9999MW1801
0102267020999991929090706004+54733+020567FM-12+002099999V0202901N006719999999N0100001N9+01111+99999100531ADDAA199004091AY181999GF106991041061008001999999KA1999N+00891MW1811EQDQ01+000032APCTENQ02+000002APC3  
0051267020999991929090712004+54733+020567FM-12+002099999V0202901N006719999999N0200001N9+01001+99999100751ADDAY181999GF106991041031008001999999MD1210141+9999
0081267020999991929090718004+54733+020567FM-12+002099999V0203201N01231004501CN0100001N9+01111+99999100931ADDAA199007091AY181999GF108991061061004501011999KA1999M+01391MD1210141+9999MW1611
0094267020999991929090806004+54733+020567FM-12+002099999V0202901N00671220001CN0500001N9+01221+99999101261ADDAA199002091AY111999GF104991001999999999001081KA1999N+01001MD1310061+9999EQDQ01+000052SCOLCG
0051267020999991929090812004+54733+020567FM-12+002099999V0203201N00931220001CN0500001N9+01391+99999101371ADDAY111999GF104991021031012501001091MD1310061+9999
0085267020999991929090818004+54733+020567FM-12+002099999V0202901N00261012301CN0200001N9+01111+99999101431ADDAY111999GF108991081051012501999999KA1999M+01501EQDQ01+000032APCTENQ02+000002APC3  
0075267020999991929090906004+54733+020567FM-12+002099999V0202701N00671002401CN0100001N9+01501+99999100351ADDAA199004091AY161999GF108991071051002501011999KA1999N+00781MD1810141+9999
0072267020999991929090912004+54733+020567FM-12+002099999V0202901N009319999999N0040001N9+01611+99999100381ADDAY121999GF107991041091008001999999EQDQ01+000042APCTENQ02+000062APC3  
0096267020999991929090918004+54733+020567FM-12+002099999V0202701N004619999999N0100001N9+01501+99999100381ADDAA199005091AY111999GF106991021011004501001011KA1999M+01721EQDQ01+000022APCTENQ02+000002APC3  
0064267020999991929091006004+54733+020567FM-12+002099999V0202901N006719999999N0100001N9+01391+99999100531ADDAY181999GF106991041071004501999999KA1999N+01221MD1310141+9999
0051267020999991929091012004+54733+020567FM-12+002099999V0203201N00671220001CN0500001N9+01611+99999101021ADDAY111999GF104991011031008001999999MD1310201+9999
0064267020999991929091018004+54733+020567FM-12+002099999V0202901N00261220001CN0500001N9+01221+99999101391ADDAY101999GF102991011011012501031999KA1999M+01721MD1210201+9999
0075267020999991929091106004+54733+020567FM-12+002099999V0209991C000019999999N0100001N9+01221+99999102261ADDAA199001091AY181999GF106991011071008001999999KA1999N+00721MD1310201+9999
0051267020999991929091112004+54733+020567FM-12+002099999V0203201N00261220001CN0500001N9+01391+99999102521ADDAY111999GF104991041011012501001011MD1310141+9999
0085267020999991929091118004+54733+020567FM-12+002099999V0209991C00001220001CN0200001N9+01281+99999102601ADDAY111999GF106991001001999999071999KA1999M+01611EQDQ01+000032APCTENQ02+000002APC3  
0101267020999991929091206004+54733+020567FM-12+002099999V0209991C00001220001CN0100001N9+01281+99999102621ADDAY111999GF101991999001999999011001KA1999N+00611EQDQ01+000002SCOTLCQ02+000032APCTENQ03+000002APC3  
0072267020999991929091212004+54733+020567FM-12+002099999V0200201N00261220001CN0200001N9+01721+99999102701ADDAY101999GF104991021031012501999999EQDQ01+000032APCTENQ02+000002APC3  
0064267020999991929091218004+54733+020567FM-12+002099999V0200201N00261220001CN0100001N9+01391+99999102711ADDAY101999GF100991001001999999001001KA1999M+01891MD1410001+9999
0064267020999991929091306004+54733+020567FM-12+002099999V0201401N00461220001CN0100001N9+01221+99999102631ADDAY101999GF102991001001999999001081KA1999N+00611MD1810061+9999
0051267020999991929091312004+54733+020567FM-12+002099999V0201601N00461220001CN0200001N9+02001+99999102441ADDAY101999GF102991021011012501001081MD1810141+9999
0083267020999991929091318004+54733+020567FM-12+002099999V0201101N00261220001CN0100001N9+01281+99999102281ADDAY101999GF101991999001999999011001KA1999M+02111MD1610061+9999EQDQ01+000002SCOTLC
0075267020999991929091406004+54733+020567FM-12+002099999V0201401N00261220001CN0200001N9+01111+99999102221ADDAA199000691AY101999GF104991001001999999071999KA1999N+00611MD1210061+9999
0051267020999991929091412004+54733+020567FM-12+002099999V0201401N00671220001CN0500001N9+01891+99999102161ADDAY101999GF104991011011017501011999MD1810061+9999
0064267020999991929091418004+54733+020567FM-12+002099999V0200901N00261220001CN0200001N9+01221+99999102101ADDAY111999GF106991001001999999011081KA1999M+02001MD1410001+9999
0083267020999991929091506004+54733+020567FM-12+002099999V0201101N00261220001CN0100001N9+01111+99999102441ADDAY101999GF101991999001999999031001KA1999N+00501MD1310141+9999EQDQ01+000002SCOTLC
0072267020999991929091512004+54733+020567FM-12+002099999V0201401N00461220001CN0200001N9+01891+99999102521ADDAY101999GF101991011011012501001081EQDQ01+000012APCTENQ02+000002APC3  
0064267020999991929091518004+54733+020567FM-12+002099999V0200901N00101220001CN0200001N9+01281+99999102601ADDAY101999GF101991011051017501001081KA1999M+02001MD1310061+9999
0083267020999991929091606004+54733+020567FM-12+002099999V0201601N00261220001CN0200001N9+01001+99999102981ADDAY101999GF101991999001999999011001KA1999N+00281MD1310061+9999EQDQ01+000002SCOTLC
0051267020999991929091612004+54733+020567FM-12+002099999V0201801N00261220001CN0200001N9+01781+99999102901ADDAY101999GF100991001001999999001001MD1810141+9999
0083267020999991929091618004+54733+020567FM-12+002099999V0201101N00101220001CN0200001N9+01111+99999102791ADDAY101999GF101991999001999999011001KA1999M+01891MD1510061+9999EQDQ01+000002SCOTLC
0085267020999991929091706004+54733+020567FM-12+002099999V0202501N00101220001CN0040001N9+01001+99999102781ADDAY101999GF102991001001999999011081KA1999N+00221EQDQ01+000032APCTENQ02+000002APC3  
0051267020999991929091712004+54733+020567FM-12+002099999V0201601N00261220001CN0200001N9+01781+99999102641ADDAY101999GF102991001001999999031081MD1810141+9999
0064267020999991929091718004+54733+020567FM-12+002099999V0201401N00101220001CN0100001N9+01281+99999102481ADDAY101999GF101991001001999999001081KA1999M+01891MD1610061+9999
0085267020999991929091806004+54733+020567FM-12+002099999V0201401N00261220001CN0100001N9+01001+99999102381ADDAY101999GF104991001001999999031081KA1999N+00501EQDQ01+000032APCTENQ02+000002APC3  
0051267020999991929091812004+54733+020567FM-12+002099999V0201801N00261220001CN0200001N9+01781+99999102231ADDAY111999GF104991001001999999011011MD1810141+9999
0064267020999991929091818004+54733+020567FM-12+002099999V0200901N00261220001CN0100001N9+01281+99999102061ADDAY111999GF106991001001999999031081KA1999M+01891MD1610061+9999
0083267020999991929091906004+54733+020567FM-12+002099999V0201101N00461220001CN0200001N9+01111+99999101671ADDAY101999GF102991999001999999031001KA1999N+00501MD1810141+9999EQDQ01+000002SCOTLC
0051267020999991929091912004+54733+020567FM-12+002099999V0201801N00461220001CN0100001N9+02001+99999101411ADDAY101999GF104991001001999999001081MD1810061+9999
0064267020999991929091918004+54733+020567FM-12+002099999V0201601N00261220001CN0100001N9+01221+99999101171ADDAY101999GF102991001001999999011081KA1999M+02111MD1610141+9999
0064267020999991929092006004+54733+020567FM-12+002099999V0202001N00261007801CN0040001N9+01391+99999100711ADDAY111999GF107991061051008001999999KA1999N+00781MD1810141+9999
0051267020999991929092012004+54733+020567FM-12+002099999V0202301N004619999999N0040001N9+02001+99999100391ADDAY111999GF107991021051012501031999MD1810141+9999
0075267020999991929092018004+54733+020567FM-12+002099999V0201601N004619999999N0020001N9+01721+99999099991ADDAA199000391AY181999GF108991041061004501999999KA1999M+02111MD1710261+9999
0075267020999991929092106004+54733+020567FM-12+002099999V0202501N006719999999N0200001N9+01221+99999099851ADDAA199009091AY161999GF106991041061004501011999KA1999N+01111MD1310261+9999
0057267020999991929092112004+54733+020567FM-12+002099999V0202501N00671007801CN0200001N9+01281+99999100091ADDAY111999GF107991071051008001001001MD1810141+9999MW1801
0075267020999991929092118004+54733+020567FM-12+002099999V0202701N00461220001CN0200001N9+01221+99999100211ADDAA199000691AY181999GF104991021011012501011999KA1999M+01391MD1210061+9999
0081267020999991929092206004+54733+020567FM-12+002099999V0201801N00931012301CN0040001N9+00781+99999099651ADDAA199000691AY161999GF108991061061012501011999KA1999N+00721MD1810141+9999MW1811
0072267020999991929092212004+54733+020567FM-12+002099999V0202701N002619999999N0200001N9+01281+99999099611ADDAY161999GF106991041011012501001081EQDQ01+000032APCTENQ02+000002APC3  
0081267020999991929092218004+54733+020567FM-12+002099999V0202501N00461004501CN0100001N9+01001+99999099661ADDAA199002091AY181999GF108991081061004501999999KA1999M+01391MD1110061+9999MW1631
0075267020999991929092306004+54733+020567FM-12+002099999V0203601N00101004501CN0100001N9+01001+99999100701ADDAA199001091AY181999GF107991061061004501031001KA1999N+00721MD1310261+9999
0051267020999991929092312004+54733+020567FM-12+002099999V0203601N006719999999N0200001N9+01391+99999101251ADDAY111999GF106991041011004501031999MD1310141+9999
0075267020999991929092318004+54733+020567FM-12+002099999V0203401N00671220001CN0200001N9+01221+99999101671ADDAA199000391AY181999GF104991021031008001999999KA1999M+01501MD1310261+9999
0075267020999991929092406004+54733+020567FM-12+002099999V0200701N00461220001CN0100001N9+01001+99999102241ADDAA199013091AY161999GF104991021051002501031999KA1999N+00781MD1310201+9999
0051267020999991929092412004+54733+020567FM-12+002099999V0200701N00671220001CN0200001N9+01281+99999102511ADDAY111999GF102991021011008001001001MD1310141+9999
0064267020999991929092418004+54733+020567FM-12+002099999V0200501N00101220001CN0200001N9+01001+99999102901ADDAY101999GF101991011011008001001001KA1999M+01391MD1310201+9999
0064267020999991929092506004+54733+020567FM-12+002099999V0209991C00001220001CN0040001N9+00781+99999103461ADDAY101999GF102991011011008001001081KA1999N+00391MD1310141+9999
0056267020999991929092512004+54733+020567FM-12+002099999V0203401N00261220001CN0500001N9+01501+99999103471ADDAY101999GF104991041011008001001081EQDQ01+000002APC3  
0085267020999991929092518004+54733+020567FM-12+002099999V0203401N001019999999N0100001N9+01001+99999103501ADDAY111999GF107991011011008001011999KA1999M+01611EQDQ01+000032APCTENQ02+000002APC3  
0083267020999991929092606004+54733+020567FM-12+002099999V0202701N00261012301CN0010001N9+01111+99999103241ADDGF108991081051012501999999KA1999N+00781MW1421EQDQ01+000082APCTENQ02+000002APC3  
0057267020999991929092612004+54733+020567FM-12+002099999V0202901N002619999999N0040001N9+01281+99999103061ADDAY161999GF108991011071008001999999MD1710141+9999MW1511
0075267020999991929092618004+54733+020567FM-12+002099999V0202901N00101015001CN0040001N9+01281+99999102901ADDAA199000691AY161999GF108991081051017501999999KA1999M+01391MD1610061+9999
0062267020999991929092706004+54733+020567FM-12+002099999V0202701N00461004501CN0020001N9+01281+99999102711ADDGF107991071051004501001001KA1999N+01221MD1510001+9999MW1421
0072267020999991929092712004+54733+020567FM-12+002099999V0202701N00461220001CN0040001N9+01611+99999102681ADDAY111999GF102991021011008001001001EQDQ01+000082APCTENQ02+000002APC3  
0085267020999991929092718004+54733+020567FM-12+002099999V0202501N002619999999N0010001N9+01281+99999102681ADDAY111999GF106991021051022501011999KA1999M+01721EQDQ01+000032APCTENQ02+000002APC3  
0077267020999991929092806004+54733+020567FM-12+002099999V0202501N00461220001CN0020001N9+01001+99999102741ADDGF104991001001999999001081KA1999N+00781EQDQ01+000032APCTENQ02+000002APC3  
0072267020999991929092812004+54733+020567FM-12+002099999V0202501N00461220001CN0100001N9+01781+99999102681ADDAY101999GF101991001001999999001081EQDQ01+000082APCTENQ02+000002APC3  
0083267020999991929092818004+54733+020567FM-12+002099999V0201801N00101220001CN0040001N9+01221+99999102681ADDAY101999GF101991999001999999011001KA1999M+01781MD1410001+9999EQDQ01+000002SCOTLC
0085267020999991929092906004+54733+020567FM-12+002099999V0202301N00101220001CN0100001N9+01001+99999102621ADDAY101999GF104991021001017501011011KA1999N+00501EQDQ01+000032APCTENQ02+000002APC3  
0051267020999991929092912004+54733+020567FM-12+002099999V0202301N00461220001CN0100001N9+01891+99999102441ADDAY101999GF104991001001999999001081MD1810061+9999
0064267020999991929092918004+54733+020567FM-12+002099999V0202501N00461220001CN0100001N9+01221+99999102321ADDAY111999GF101991001001999999001011KA1999M+02001MD1810061+9999
0083267020999991929093006004+54733+020567FM-12+002099999V0202301N00261220001CN0040001N9+00891+99999101991ADDAY101999GF101991999001999999011001KA1999N+00501MD1410001+9999EQDQ01+000002SCOTLC
0072267020999991929093012004+54733+020567FM-12+002099999V0202501N00461220001CN0100001N9+01891+99999101921ADDAY101999GF106991001001999999031081EQDQ01+000082APCTENQ02+000002APC3  
0051267020999991929093018004+54733+020567FM-12+002099999V0201801N00261002401CN0010001N9+01501+99999101841ADDAY111999GF108991081051002501999999MD1810061+9999
0064267020999991929100106004+54733+020567FM-12+002099999V0201801N00261220001CN0040001N9+01221+99999101311ADDAY111999GF104991001001999999031081KA1999N+00781MD1810141+9999
0051267020999991929100112004+54733+020567FM-12+002099999V0202701N004619999999N0100001N9+02111+99999100871ADDAY111999GF107991011011008001031999MD1810261+9999
0081267020999991929100118004+54733+020567FM-12+002099999V0202501N00671002401CN0040001N9+01391+99999100731ADDAA199002091AY161999GF108991081061002501999999KA1999M+02111MD1990061+9999MW1631
0094267020999991929100206004+54733+020567FM-12+002099999V0209991C00001220001CN0040001N9+01001+99999101251ADDAA199002091AY161999GF102991011011999999001081KA1999N+00611MD1110061+9999EQDQ01+000992SCOLCB
0051267020999991929100212004+54733+020567FM-12+002099999V0202301N004619999999N0200001N9+01281+99999101151ADDAY111999GF107991011011008001011999MD1810201+9999
0081267020999991929100218004+54733+020567FM-12+002099999V0201801N00671004501CN0040001N9+01111+99999100511ADDAA199002091AY161999GF108991081061004501999999KA1999M+01501MD1810261+9999MW1611
0075267020999991929100306004+54733+020567FM-12+002099999V0202301N004619999999N0040001N9+01221+99999100671ADDAA199002091AY161999GF106991041001022501011081KA1999N+01111MD1310141+9999
0057267020999991929100312004+54733+020567FM-12+002099999V0202501N00461002401CN0040001N9+01281+99999100381ADDAY161999GF108991081061002501999999MD1810061+9999MW1631
0081267020999991929100318004+54733+020567FM-12+002099999V0202301N004619999999N0040001N9+01221+99999100451ADDAA199003091AY161999GF108991011061002501999999KA1999M+01501MD1610141+9999MW1601
0075267020999991929100406004+54733+020567FM-12+002099999V0202501N004619999999N0100001N9+01221+99999100951ADDAA199002091AY161999GF107991041051002501031001KA1999N+01111MD1310261+9999
0051267020999991929100412004+54733+020567FM-12+002099999V0202501N00461220001CN0100001N9+01501+99999101251ADDAY111999GF104991041011008001031999MD1110141+9999
0085267020999991929100418004+54733+020567FM-12+002099999V0201801N00101007801CN0040001N9+01391+99999101311ADDAY121999GF108991081051008001999999KA1999M+01611EQDQ01+000022APCTENQ02+000002APC3  
0075267020999991929100506004+54733+020567FM-12+002099999V0202501N00671220001CN0100001N9+01781+99999100891ADDAA199000391AY111999GF106991001001999999001081KA1999N+00891MD1210061+9999
0072267020999991929100512004+54733+020567FM-12+002099999V0202701N00461220001CN0100001N9+02221+99999100951ADDAY101999GF104991001001999999001071EQDQ01+000032APCTENQ02+000002APC3  
0064267020999991929100518004+54733+020567FM-12+002099999V0200501N00261220001CN0040001N9+01281+99999100911ADDAY101999GF100991001001999999001001KA1999M+02221MD1410001+9999
0070267020999991929100606004+54733+020567FM-12+002099999V0201801N00101220001CN0010001N9+01001+99999101331ADDAY141999GF100991001001999999001001KA1999N+00781MD1310061+9999MW1421
0070267020999991929100612004+54733+020567FM-12+002099999V0201101N00461220001CN0100001N9+02001+99999101171ADDAY101999GF102991999001999999011001MD1810061+9999EQDQ01+000002SCOTLC
0085267020999991929100618004+54733+020567FM-12+002099999V0200901N00461220001CN0200001N9+01611+99999101111ADDAY101999GF104991041051012501001001KA1999M+02111EQDQ01+000032APCTENQ02+000002APC3  
0085267020999991929100706004+54733+020567FM-12+002099999V0201601N00261220001CN0100001N9+01281+99999101021ADDAY101999GF100991001001999999001001KA1999N+00891EQDQ01+000032APCTENQ02+000002APC3  
0051267020999991929100712004+54733+020567FM-12+002099999V0202901N00461220001CN0100001N9+01781+99999101331ADDAY101999GF102991011011008001031999MD1310141+9999
0064267020999991929100718004+54733+020567FM-12+002099999V0203401N00101220001CN0100001N9+01111+99999101741ADDAY101999GF102991021001017501011081KA1999M+01781MD1310201+9999
0064267020999991929100806004+54733+020567FM-12+002099999V0200201N00261015001CN0100001N9+00891+99999101941ADDAY101999GF109991091051017501999999KA1999N+00611MD1210061+9999
0051267020999991929100812004+54733+020567FM-12+002099999V0200901N004619999999N0100001N9+01501+99999101671ADDAY111999GF107991041001017501071999MD1710141+9999
0081267020999991929100818004+54733+020567FM-12+002099999V0200901N001019999999N0100001N9+01281+99999101381ADDAA199000691AY121999GF108991041061999999011999KA1999M+01611MD1710141+9999MW1611
0075267020999991929100906004+54733+020567FM-12+002099999V0201601N00261220001CN0100001N9+01281+99999100541ADDAA199003091AY161999GF107991001001999999011011KA1999N+01001MD1710061+9999
0051267020999991929100912004+54733+020567FM-12+002099999V0202301N004619999999N0100001N9+01721+99999100331ADDAY111999GF107991041051012501999999MD1610141+9999
0075267020999991929100918004+54733+020567FM-12+002099999V0202501N00461015001CN0100001N9+01391+99999100451ADDAA199000691AY121999GF108991061051017501011999KA1999M+01781MD1210061+9999
0085267020999991929101006004+54733+020567FM-12+002099999V0202301N006719999999N0100001N9+00781+99999100651ADDAY111999GF106991041051008001001081KA1999N+00721EQDQ01+000042APCTENQ02+000062APC3  
0051267020999991929101012004+54733+020567FM-12+002099999V0202301N00671004501CN0100001N9+01001+99999100591ADDAY111999GF108991081051004501999999MD1990061+9999
0064267020999991929101018004+54733+020567FM-12+002099999V0202301N00461004501CN0100001N9+00891+99999100751ADDAY111999GF106991061051004501001001KA1999M+01111MD1210141+9999
0075267020999991929101106004+54733+020567FM-12+002099999V0202501N00671004501CN0100001N9+00891+99999101151ADDAA199003091AY181999GF106991061051004501001001KA1999N+00721MD1110061+9999
0057267020999991929101112004+54733+020567FM-12+002099999V0202301N00931002401CN0040001N9+01111+99999100791ADDAY181999GF108991081061002501999999MD1710261+9999MW1601
0075267020999991929101118004+54733+020567FM-12+002099999V0202301N009319999999N0040001N9+00891+99999100461ADDAA199004091AY161999GF107991041061002501011999KA1999M+01001MD1510001+9999
0081267020999991929101206004+54733+020567FM-12+002099999V0202501N009319999999N0100001N9+00781+99999100301ADDAA199004091AY181999GF107991021091004501999999KA1999N+00721MD1310061+9999MW1801
0051267020999991929101212004+54733+020567FM-12+002099999V0202501N006719999999N0100001N9+01001+99999100491ADDAY181999GF106991041031004501031999MD1310061+9999
0081267020999991929101218004+54733+020567FM-12+002099999V0203201N002619999999N0040001N9+00891+99999100861ADDAA199007091AY181999GF107991041091008001999999KA1999M+01001MD1210201+9999MW1801
0075267020999991929101306004+54733+020567FM-12+002099999V0202501N00461220001CN0100001N9+01001+99999101491ADDAA199002091AY161999GF104991021031008001031999KA1999N+00501MD1310061+9999
0051267020999991929101312004+54733+020567FM-12+002099999V0202701N006719999999N0100001N9+01221+99999101411ADDAY161999GF107991041091001501999999MD1810061+9999
0075267020999991929101318004+54733+020567FM-12+002099999V0202901N00671220001CN0200001N9+01111+99999101671ADDAA199002091AY111999GF101991001001999999011999KA1999M+01281MD1210201+9999
0064267020999991929101406004+54733+020567FM-12+002099999V0202501N00461220001CN0040001N9+00781+99999102481ADDAY101999GF106991001001999999011081KA1999N+00611MD1310141+9999
0072267020999991929101412004+54733+020567FM-12+002099999V0202501N00671004501CN0100001N9+01221+99999102541ADDAY111999GF107991061051004501001081EQDQ01+000082APCTENQ02+000002APC3  
0075267020999991929101418004+54733+020567FM-12+002099999V0202501N00461004501CN0040001N9+01221+99999102481ADDAA199000691AY121999GF108991081051004501999999KA1999M+01281MD1810061+9999
0086267020999991929101506004+54733+020567FM-12+002099999V0202701N015419999999N0100001N9+01281+99999101511ADDAA199000691AY111999GF106991041031004501031999KA1999N+01001MW1161EQDQ01+000002APC3  
0072267020999991929101512004+54733+020567FM-12+002099999V0202901N00931220001CN0100001N9+01221+99999101821ADDAY111999GF104991041051012501031999EQDQ01+000032APCTENQ02+000002APC3  
0085267020999991929101518004+54733+020567FM-12+002099999V0202901N00461220001CN0100001N9+00891+99999101871ADDAY101999GF104991041011008001001001KA1999M+01281EQDQ01+000012APCTENQ02+000002APC3  
0075267020999991929101606004+54733+020567FM-12+002099999V0202901N00461220001CN0040001N9+00611+99999102121ADDAA199000691AY181999GF102991011011008001011999KA1999N+00281MD1310141+9999
0072267020999991929101612004+54733+020567FM-12+002099999V0202901N004619999999N0500001N9+01001+99999102241ADDAY101999GF106991021011012501001081EQDQ01+000012APCTENQ02+000002APC3  
0069267020999991929101618004+54733+020567FM-12+002099999V0202701N00101220001CN0100001N9+00611+99999102151ADDAY121999GF106991001001999999011081KA1999M+01111EQDQ01+000002APC3  
0064267020999991929101706004+54733+020567FM-12+002099999V0201101N00261012301CN0100001N9+00281+99999101641ADDAY101999GF108991081001012501011999KA1999N+00001MD1610141+9999
0051267020999991929101712004+54733+020567FM-12+002099999V0201601N00461021001CN0200001N9+00891+99999101231ADDAY111999GF107991071001022501011001MD1810201+9999
0096267020999991929101718004+54733+020567FM-12+002099999V0202301N00461002401CN0020001N9+00781+99999101071ADDAA199000691AY161999GF108991061061002501999999KA1999M+01001EQDQ01+000082APCTENQ02+000002APC3  
0096267020999991929101806004+54733+020567FM-12+002099999V0202501N004619999999N0100001N9+01111+99999100981ADDAA199001091AY181999GF106991011011004501031999KA1999N+00781EQDQ01+000072APCTENQ02+000002APC3  
0078267020999991929101812004+54733+020567FM-12+002099999V0202501N004619999999N0040001N9+01111+99999101151ADDAY161999GF107991041061004501999999MW1511EQDQ01+000032APCTENQ02+000002APC3  
0102267020999991929101818004+54733+020567FM-12+002099999V0200901N00101001501CN0010001N9+01001+99999101171ADDAA199006091AY161999GF108991081051001501999999KA1999M+01221MW1461EQDQ01+000032APCTENQ02+000002APC3  
0096267020999991929101906004+54733+020567FM-12+002099999V0201401N00101220001CN0040001N9+00611+99999101011ADDAA199002091AY181999GF104991041051017501011999KA1999N+00501EQDQ01+000072APCTENQ02+000002APC3  
0051267020999991929101912004+54733+020567FM-12+002099999V0201601N00461015001CN0040001N9+01281+99999100741ADDAY111999GF106991061051017501999999MD1810201+9999
0085267020999991929101918004+54733+020567FM-12+002099999V0201401N00461220001CN0040001N9+01111+99999100631ADDAY111999GF104991001001999999031081KA1999M+01281EQDQ01+000082APCTENQ02+000002APC3  
0075267020999991929102006004+54733+020567FM-12+002099999V0201401N004619999999N0040001N9+01001+99999099951ADDAA199000591AY181999GF108991021061012501011999KA1999N+00721MD1810141+9999
0057267020999991929102012004+54733+020567FM-12+002099999V0201801N00261002401CN0020001N9+01221+99999099891ADDAY161999GF108991081061002501999999MD1510061+9999MW1611
0102267020999991929102018004+54733+020567FM-12+002099999V0202301N00261004501CN0040001N9+01221+99999099861ADDAA199005091AY161999GF108991081061004501999999KA1999M+01221MW1611EQDQ01+000032APCTENQ02+000002APC3  
0081267020999991929102106004+54733+020567FM-12+002099999V0202901N00671002401CN0040001N9+00891+99999100171ADDAA199003091AY161999GF108991081061002501999999KA1999N+00781MD1310141+9999MW1511
0051267020999991929102112004+54733+020567FM-12+002099999V0202701N00461002401CN0100001N9+00781+99999100701ADDAY161999GF108991081061002501999999MD1310141+9999
0081267020999991929102118004+54733+020567FM-12+002099999V0202701N00461002401CN0040001N9+00781+99999101031ADDAA199002091AY161999GF108991081041002501999999KA1999M+00891MD1310201+9999MW1511
0075267020999991929102206004+54733+020567FM-12+002099999V0202301N00261220001CN0040001N9+00501+99999101381ADDAA199000691AY111999GF102991021051012501001001KA1999N+00501MD1310141+9999
0051267020999991929102212004+54733+020567FM-12+002099999V0202301N00461220001CN0100001N9+01111+99999101391ADDAY101999GF102991021011008001001001MD1810061+9999
0064267020999991929102218004+54733+020567FM-12+002099999V0201601N00101220001CN0200001N9+00391+99999101301ADDAY101999GF101991011051012501999999KA1999M+01221MD1990061+9999
0081267020999991929102306004+54733+020567FM-12+002099999V0209991C00001220001CN0002001N9+00221+99999100941ADDAA199000691AY141999GF100991001001999999001001KA1999N-00111MD1610061+9999MW1441
0051267020999991929102312004+54733+020567FM-12+002099999V0201801N001019999999N0100001N9+00891+99999100751ADDAY141999GF106991041051002501031999MD1810061+9999
0085267020999991929102318004+54733+020567FM-12+002099999V0201801N00101004501CN0040001N9+00611+99999100781ADDAY111999GF107991071051004501999999KA1999M+01001EQDQ01+000042APCTENQ02+000062APC3  
0102267020999991929102406004+54733+020567FM-12+002099999V0201601N00101000151CN0000501N9+00501+99999101031ADDAA199000691AY141999GF109991091999000251999999KA1999N+00281MW1441EQDQ01+000032APCTENQ02+000002APC3  
0043267020999991929102412004+54733+020567FM-12+002099999V0201601N00461220001CN0040001N9+01111+99999101031ADDGF102991021051004501001001MD1810061+9999
0091267020999991929102418004+54733+020567FM-12+002099999V0201801N00671000601CN0010001N9+00721+99999101031ADDAY141999GF108991081051000751001001KA1999M+01111MW1441EQDQ01+000012APCTENQ02+000002APC3  
0081267020999991929102506004+54733+020567FM-12+002099999V0201401N00671000151CN0010001N9+00781+99999100861ADDAA199000691AY141999GF108991081051000251999999KA1999N+00611MD1810061+9999MW1421
0051267020999991929102512004+54733+020567FM-12+002099999V0201401N01231000601CN0100001N9+00891+99999100671ADDAY141999GF108991081051000751999999MD1710061+9999
0064267020999991929102518004+54733+020567FM-12+002099999V0201601N00671002401CN0100001N9+01111+99999100661ADDAY111999GF106991061051002501999999KA1999M+01281MD1710061+9999
0064267020999991929102606004+54733+020567FM-12+002099999V0201401N00931004501CN0100001N9+01001+99999100351ADDAY121999GF108991081051004501999999KA1999N+01001MD1810061+9999
0051267020999991929102612004+54733+020567FM-12+002099999V0201401N00931220001CN0200001N9+01281+99999099971ADDAY101999GF104991041051022501031999MD1810201+9999
0064267020999991929102618004+54733+020567FM-12+002099999V0200901N00461002401CN0100001N9+00891+99999099821ADDAY111999GF108991081051002501999999KA1999M+01281MD1610061+9999
0081267020999991929102706004+54733+020567FM-12+002099999V0201801N00261002401CN0100001N9+00781+99999099861ADDAA199000391AY161999GF108991081061002501999999KA1999N+00781MD1310141+9999MW1611
0051267020999991929102712004+54733+020567FM-12+002099999V0202501N00461002401CN0040001N9+01001+99999100221ADDAY161999GF107991071051002501999999MD1110141+9999
0064267020999991929102718004+54733+020567FM-12+002099999V0202301N00261004501CN0040001N9+00781+99999100531ADDAY121999GF108991081051004501999999KA1999M+01001MD1310061+9999
0081267020999991929102806004+54733+020567FM-12+002099999V0202701N00101004501CN0010001N9+00721+99999100371ADDAA199005091AY161999GF108991081061004501999999KA1999N+00721MD1410001+9999MW1631
0057267020999991929102812004+54733+020567FM-12+002099999V0202701N00461004501CN0040001N9+00781+99999100541ADDAY161999GF108991081061004501999999MD1310061+9999MW1611
0075267020999991929102818004+54733+020567FM-12+002099999V0202701N00461004501CN0040001N9+00611+99999100831ADDAA199006091AY181999GF108991081061004501999999KA1999M+00891MD1310141+9999
0096267020999991929102906004+54733+020567FM-12+002099999V0202301N00261021001CN0040001N9+00281+99999100971ADDAA199000691AY121999GF106991061001022501011081KA1999N+00221EQDQ01+000032APCTENQ02+000002APC3  
0051267020999991929102912004+54733+020567FM-12+002099999V0201601N00671220001CN0200001N9+00781+99999100651ADDAY111999GF104991001001999999071999MD1810201+9999
0081267020999991929102918004+54733+020567FM-12+002099999V0201601N00931007801CN0100001N9+00721+99999100371ADDAA199000691AY121999GF108991081061008001999999KA1999M+00891MD1810141+9999MW1601
0075267020999991929103006004+54733+020567FM-12+002099999V0202301N00261220001CN0100001N9+00721+99999099991ADDAA199003091AY161999GF102991011051012501031999KA1999N+00611MD1310201+9999
0051267020999991929103012004+54733+020567FM-12+002099999V0202001N00461220001CN0200001N9+01221+99999100391ADDAY101999GF102991011011012501011999MD1310061+9999
0064267020999991929103018004+54733+020567FM-12+002099999V0202001N00101015001CN0100001N9+01001+99999100771ADDAY111999GF107991071051017501999999KA1999M+01221MD1310201+9999
0081267020999991929103106004+54733+020567FM-12+002099999V0201601N00261021001CN0005001N9+00221+99999101541ADDAA199000691AY141999GF106991061001022501011081KA1999N+00001MD1310201+9999MW1441
0049267020999991929103112004+54733+020567FM-12+002099999V0203401N00261220001CN0040001N9+01221+99999101751ADDGF100991001001999999001001MD1310061+9999MW1281
0062267020999991929103118004+54733+020567FM-12+002099999V0203601N00101220001CN0020001N9+00391+99999101921ADDGF101991011001022501011999KA1999M+01221MD1310141+9999MW1461
0075267020999991929110106004+54733+020567FM-12+002099999V0200501N00461001501CN0020001N9+00721+99999102401ADDAA199000391AY141999GF108991081041001501999999KA1999N+00281MD1310141+9999
0056267020999991929110112004+54733+020567FM-12+002099999V0200201N00461220001CN0100001N9+00891+99999102461ADDAY121999GF104991021071012501999999EQDQ01+000002APC3  
0085267020999991929110118004+54733+020567FM-12+002099999V0203401N001019999999N0100001N9+00611+99999102401ADDAY121999GF107991041051012501999999KA1999M+00891EQDQ01+000032APCTENQ02+000002APC3  
0075267020999991929110206004+54733+020567FM-12+002099999V0202301N00261220001CN0040001N9+00501+99999102341ADDAA199000391AY181999GF104991021051008001999999KA1999N+00501MD1510001+9999
0056267020999991929110212004+54733+020567FM-12+002099999V0201601N002619999999N0200001N9+00611+99999102221ADDAY101999GF107991011011012501011999EQDQ01+000002APC3  
0081267020999991929110218004+54733+020567FM-12+002099999V0201601N00261015001CN0100001N9+00281+99999102101ADDAA199000391AY161999GF108991081051017501999999KA1999M+00781MD1710061+9999MW1511
0096267020999991929110306004+54733+020567FM-12+002099999V0202501N00671002401CN0100001N9+00391+99999101991ADDAA199002091AY161999GF108991061051002501011999KA1999N+00281EQDQ01+000032APCTENQ02+000002APC3  
0051267020999991929110312004+54733+020567FM-12+002099999V0202701N004619999999N0100001N9+00891+99999102121ADDAY161999GF106991041081002501999999MD1110061+9999
0080267020999991929110318004+54733+020567FM-12+002099999V0202301N00101220001CN0200001N9+99999+99999102111ADDAA199001091AY111999GF102991021051017501001001KA1999M+00891EQDQ01+000002APC3  
0081267020999991929110406004+54733+020567FM-12+002099999V0202301N002619999999N0010001N9+00281+99999102311ADDAA199000591AY181999GF108991041061008001011999KA1999N-00111MD1810061+9999MW1611
0051267020999991929110412004+54733+020567FM-12+002099999V0203201N00931220001CN0200001N9+00891+99999101791ADDAY161999GF102991021011008001001001MD1310141+9999
0075267020999991929110418004+54733+020567FM-12+002099999V0202701N00261220001CN0100001N9+00721+99999102101ADDAA199001091AY101999GF102991011051002501999999KA1999M+00891MD1310141+9999
0075267020999991929110506004+54733+020567FM-12+002099999V0202501N004619999999N0040001N9+00611+99999102401ADDAA199003091AY181999GF106991041051012501001081KA1999N+00281MD1310061+9999
0056267020999991929110512004+54733+020567FM-12+002099999V0202501N006719999999N0100001N9+00721+99999102311ADDAY111999GF107991041051002501031999EQDQ01+000002APC3  
0064267020999991929110518004+54733+020567FM-12+002099999V0202501N006719999999N0040001N9+00611+99999102221ADDAY111999GF108991021051001501011999KA1999M+00721MD1710061+9999
0064267020999991929110606004+54733+020567FM-12+002099999V0202301N00261015001CN0020001N9+00611+99999102141ADDAY121999GF108991081051017501999999KA1999N+00501MD1410001+9999
0070267020999991929110612004+54733+020567FM-12+002099999V0202501N00261220001CN0100001N9+01001+99999102041ADDAY111999GF102991999001999999011001MD1810061+9999EQDQ01+000002SCOTLC
0085267020999991929110618004+54733+020567FM-12+002099999V0201401N00261220001CN0100001N9+00221+99999102071ADDAY101999GF100991001001999999001001KA1999M+01001EQDQ01+000032APCTENQ02+000002APC3  
0085267020999991929110706004+54733+020567FM-12+002099999V0201401N00461220001CN0040001N9-00111+99999101781ADDAY101999GF100991001001999999001001KA1999N-00221EQDQ01+000082APCTENQ02+000002APC3  
0051267020999991929110712004+54733+020567FM-12+002099999V0201601N00461220001CN0100001N9+00721+99999101671ADDAY101999GF104991021061022501031999MD1990061+9999
0064267020999991929110718004+54733+020567FM-12+002099999V0202001N00101012301CN0100001N9+00611+99999101721ADDAY111999GF108991081051012501999999KA1999M+00721MD1410001+9999
0118267020999991929110806004+54733+020567FM-12+002099999V0201801N00101220001CN0005001N9+00221+99999101761ADDAA199000691AY141999GF101991999001999999031001KA1999N-00111MW1421EQDQ01+000002SCOTLCQ02+000032APCTENQ03+000002APC3  
0051267020999991929110812004+54733+020567FM-12+002099999V0202501N002619999999N0020001N9+00781+99999101711ADDAY141999GF106991011011004501031999MD1810061+9999
0081267020999991929110818004+54733+020567FM-12+002099999V0200501N00101000151CN0000001N9+00001+99999101641ADDAA199001091AY141999GF109991091999000251999999KA1999M+00891MD1990061+9999MW1441
0075267020999991929110906004+54733+020567FM-12+002099999V0201801N00671002401CN0010001N9+00611+99999101251ADDAA199000691AY121999GF107991071051002501001001KA1999N+00111MD1610061+9999
0051267020999991929110912004+54733+020567FM-12+002099999V0202501N00461220001CN0040001N9+01001+99999101141ADDAY111999GF106991001001999999011081MD1710061+9999
0081267020999991929110918004+54733+020567FM-12+002099999V0202501N00671001501CN0010001N9+00611+99999101261ADDAA199001091AY161999GF108991081061001501999999KA1999M+01001MD1210141+9999MW1521
0075267020999991929111006004+54733+020567FM-12+002099999V0202301N99999004501CN0100001N9+00391+99999102121ADDAA199000391AY181999GF108991081051004501999999KA1999N+00281MD1310201+9999
0051267020999991929111012004+54733+020567FM-12+002099999V0202301N00461220001CN0100001N9+00721+99999102361ADDAY111999GF100991001001999999001001MD1310061+9999
0069267020999991929111018004+54733+020567FM-12+002099999V0201801N00261002401CN0040001N9+00281+99999102431ADDAY111999GF108991081051002501999999KA1999M+00721EQDQ01+000002APC3  
0064267020999991929111106004+54733+020567FM-12+002099999V0201601N00931002401CN0200001N9+00391+99999101871ADDAY121999GF108991061051002501011999KA1999N+00001MD1610061+9999
0072267020999991929111112004+54733+020567FM-12+002099999V0202301N00461001501CN0040001N9+00611+99999101861ADDAY161999GF108991081061001501999999EQDQ01+000032APCTENQ02+000002APC3  
0075267020999991929111118004+54733+020567FM-12+002099999V0202501N004619999999N0020001N9+00721+99999101861ADDAA199000691AY161999GF108991041051012501011999KA1999M+00721MD1010001+9999
0070267020999991929111206004+54733+020567FM-12+002099999V0201801N00671000151CN0005001N9+00221+99999101391ADDAY141999GF108991081051000251999999KA1999N+00001MD1810261+9999MW1441
0051267020999991929111212004+54733+020567FM-12+002099999V0201801N00931220001CN0100001N9+00611+99999100711ADDAY111999GF104991021051004501001081MD1810261+9999
0075267020999991929111218004+54733+020567FM-12+002099999V0201801N00671220001CN0100001N9+00781+99999100431ADDAA199000691AY111999GF104991011071004501999999KA1999M+00781MD1810141+9999
0081267020999991929111306004+54733+020567FM-12+002099999V0209991C00001000601CN0005001N9+00721+99999100491ADDAA199000391AY161999GF108991081061000751999999KA1999N+00721MD1310061+9999MW1611
0078267020999991929111312004+54733+020567FM-12+002099999V0202701N00261000601CN0020001N9+00721+99999100591ADDAY161999GF108991081061000751999999MW1611EQDQ01+000032APCTENQ02+000002APC3  
0096267020999991929111318004+54733+020567FM-12+002099999V0209991C00001004501CN0040001N9+00611+99999100691ADDAA199002091AY161999GF108991081051004501999999KA1999M+00721EQDQ01+000032APCTENQ02+000002APC3  
0081267020999991929111406004+54733+020567FM-12+002099999V0200701N00461000601CN0010001N9+00611+99999100431ADDAA199005091AY161999GF108991081061000751999999KA1999N+00501MD1810061+9999MW1631
0051267020999991929111412004+54733+020567FM-12+002099999V0201101N00671002401CN0100001N9+01001+99999100181ADDAY161999GF108991081051002501999999MD1810061+9999
0096267020999991929111418004+54733+020567FM-12+002099999V0201401N00671012301CN0100001N9+00891+99999100141ADDAA199000691AY121999GF108991061051012501011999KA1999M+01001EQDQ01+000032APCTENQ02+000002APC3  
0096267020999991929111506004+54733+020567FM-12+002099999V0201401N01231002401CN0200001N9+00781+99999099931ADDAA199000391AY181999GF108991081051002501999999KA1999N+00721EQDQ01+000042APCTENQ02+000062APC3  
0057267020999991929111512004+54733+020567FM-12+002099999V0201401N00671002401CN0040001N9+00611+99999100071ADDAY161999GF108991081061002501999999MD1310061+9999MW1611
0081267020999991929111518004+54733+020567FM-12+002099999V0201401N00461001501CN0040001N9+00391+99999100291ADDAA199007091AY161999GF108991081061001501999999KA1999M+00781MD1310141+9999MW1631
0096267020999991929111606004+54733+020567FM-12+002099999V0209991C00001007801CN0020001N9+00391+99999100581ADDAA199002091AY161999GF108991081051008001999999KA1999N+00221EQDQ01+000012APCTENQ02+000002APC3  
0078267020999991929111612004+54733+020567FM-12+002099999V0201801N004619999999N0020001N9+00391+99999100691ADDAY121999GF108991041061004501999999MW1511EQDQ01+000032APCTENQ02+000002APC3  
0096267020999991929111618004+54733+020567FM-12+002099999V0201401N00101220001CN0040001N9+00111+99999100751ADDAA199000591AY111999GF102991021051012501001001KA1999M+00501EQDQ01+000042APCTENQ02+000202APC3  
0085267020999991929111706004+54733+020567FM-12+002099999V0200901N00261220001CN0020001N9+00001+99999100791ADDAY111999GF107991001001999999071999KA1999N-00281EQDQ01+000032APCTENQ02+000002APC3  
0072267020999991929111712004+54733+020567FM-12+002099999V0200501N004619999999N0100001N9+00281+99999100751ADDAY111999GF108991041051008001011999EQDQ01+000082APCTENQ02+000002APC3  
0096267020999991929111718004+54733+020567FM-12+002099999V0203401N00101004501CN0040001N9+00221+99999100741ADDAA199000691AY111999GF108991081051004501999999KA1999M+00391EQDQ01+000032APCTENQ02+000002APC3  
0081267020999991929111806004+54733+020567FM-12+002099999V0203201N002619999999N0020001N9+00281+99999100861ADDAA199000691AY141999GF108991041061008001999999KA1999N+00001MD1310141+9999MW1801
0051267020999991929111812004+54733+020567FM-12+002099999V0203201N004619999999N0100001N9+00611+99999101111ADDAY161999GF107991021071012501999999MD1310141+9999
0075267020999991929111818004+54733+020567FM-12+002099999V0202901N00261012301CN0040001N9+00391+99999101371ADDAA199006091AY111999GF107991071051012501001001KA1999M+00611MD1310141+9999
0073267020999991929111906004+54733+020567FM-12+002099999V0202501N002619999999N0010001N9+00221+99999101871ADDAA199000691GF107991041061002501999999KA1999N+00221MD1310141+9999MW1801
0072267020999991929111912004+54733+020567FM-12+002099999V0202701N002619999999N0040001N9+00391+99999102031ADDAY161999GF107991041061004501999999EQDQ01+000032APCTENQ02+000002APC3  
0075267020999991929111918004+54733+020567FM-12+002099999V0202901N00261220001CN0100001N9+00221+99999102311ADDAA199001091AY111999GF104991041051012501001001KA1999M+00501MD1310201+9999
0085267020999991929112006004+54733+020567FM-12+002099999V0202001N00101012301CN0040001N9+00111+99999102581ADDAY111999GF107991061051012501031999KA1999N+00001EQDQ01+000032APCTENQ02+000002APC3  
0072267020999991929112012004+54733+020567FM-12+002099999V0202301N00101015001CN0100001N9+00501+99999102601ADDAY111999GF106991061001017501071999EQDQ01+000082APCTENQ02+000002APC3  
0085267020999991929112018004+54733+020567FM-12+002099999V0201401N00261220001CN0100001N9+00281+99999102631ADDAY111999GF104991001001999999071999KA1999M+00501EQDQ01+000032APCTENQ02+000002APC3  
0081267020999991929112106004+54733+020567FM-12+002099999V0201401N00461000151CN0005001N9+00111+99999102831ADDAA199000691AY141999GF109991091999000251999999KA1999N-00111MD1310061+9999MW1441
0051267020999991929112112004+54733+020567FM-12+002099999V0201401N00461220001CN0100001N9+00611+99999102741ADDAY101999GF102991001001999999011011MD1810061+9999
0085267020999991929112118004+54733+020567FM-12+002099999V0201401N00261220001CN0040001N9+00111+99999102701ADDAY101999GF100991001001999999001001KA1999M+00611EQDQ01+000082APCTENQ02+000002APC3  
0064267020999991929112206004+54733+020567FM-12+002099999V0201601N006719999999N0100001N9+00111+99999102721ADDAY121999GF108991041051001501011999KA1999N+00111MD1410001+9999
0051267020999991929112212004+54733+020567FM-12+002099999V0201601N00931002401CN0100001N9+00281+99999102511ADDAY111999GF106991061051002501001001MD1990141+9999
0064267020999991929112218004+54733+020567FM-12+002099999V0201801N00671002401CN0040001N9+00221+99999102461ADDAY111999GF108991081051002501999999KA1999M+00391MD1810061+9999
0064267020999991929112306004+54733+020567FM-12+002099999V0201801N00461002401CN0020001N9+00391+99999102151ADDAY121999GF108991081051002501999999KA1999N+00221MD1810141+9999
0043267020999991929112312004+54733+020567FM-12+002099999V0202501N00261001501CN0040001N9+00611+99999101981ADDGF108991081051001501999999MD1610061+9999
0085267020999991929112318004+54733+020567FM-12+002099999V0201801N00101001501CN0020001N9+00501+99999101981ADDAY111999GF108991081051001501999999KA1999M+00611EQDQ01+000032APCTENQ02+000002APC3  
0085267020999991929112406004+54733+020567FM-12+002099999V0201401N00261000601CN0010001N9+00391+99999102031ADDAY121999GF108991081051000751999999KA1999N+00221EQDQ01+000032APCTENQ02+000002APC3  
0072267020999991929112412004+54733+020567FM-12+002099999V0201801N00461001501CN0020001N9+00611+99999101961ADDAY121999GF108991071051001501011999EQDQ01+000062APCTENQ02+000002APC3  
0085267020999991929112418004+54733+020567FM-12+002099999V0201601N00461001501CN0040001N9+00501+99999101981ADDAY121999GF108991081051001501999999KA1999M+00611EQDQ01+000032APCTENQ02+000002APC3  
0064267020999991929112506004+54733+020567FM-12+002099999V0201401N00461001501CN0020001N9+00391+99999102041ADDAY111999GF108991081051001501999999KA1999N+00281MD1310061+9999
0072267020999991929112512004+54733+020567FM-12+002099999V0201601N00261002401CN0040001N9+00611+99999101991ADDAY121999GF108991081051002501999999EQDQ01+000022APCTENQ02+000002APC3  
0091267020999991929112518004+54733+020567FM-12+002099999V0202501N00261000601CN0005001N9+00501+99999102061ADDAY141999GF108991081051000751999999KA1999M+00501MW1511EQDQ01+000032APCTENQ02+000002APC3  
0064267020999991929112606004+54733+020567FM-12+002099999V0201601N00461220001CN0020001N9+00111+99999102001ADDAY141999GF102991021001001501001081KA1999N+00001MD1510001+9999
0051267020999991929112612004+54733+020567FM-12+002099999V0201601N006719999999N0040001N9+00501+99999101781ADDAY141999GF106991041011002501001011MD1710141+9999
0064267020999991929112618004+54733+020567FM-12+002099999V0201801N00931220001CN0100001N9+00501+99999101701ADDAY111999GF104991041051002501001001KA1999M+00611MD1710141+9999
0085267020999991929112706004+54733+020567FM-12+002099999V0201601N00461001501CN0040001N9+00281+99999101511ADDAY121999GF108991061051001501011999KA1999N+00281EQDQ01+000082APCTENQ02+000002APC3  
0057267020999991929112712004+54733+020567FM-12+002099999V0201401N00261001501CN0040001N9+00391+99999101341ADDAY121999GF108991081051001501999999MD1810141+9999MW1511
0102267020999991929112718004+54733+020567FM-12+002099999V0201401N00261001501CN0020001N9+00281+99999101311ADDAA199000391AY161999GF108991081051001501999999KA1999M+00501MW1551EQDQ01+000032APCTENQ02+000002APC3  
0075267020999991929112806004+54733+020567FM-12+002099999V0202701N00671002401CN0020001N9+00501+99999101551ADDAA199008091AY161999GF108991081061002501999999KA1999N+00221MD1210141+9999
0057267020999991929112812004+54733+020567FM-12+002099999V0202301N00461001501CN0020001N9+00501+99999101711ADDAY181999GF108991081061001501999999MD1310061+9999MW1501
0096267020999991929112818004+54733+020567FM-12+002099999V0202301N00261002401CN0100001N9+00501+99999101761ADDAA199000691AY161999GF108991081051002501999999KA1999M+00721EQDQ01+000042APCTENQ02+000062APC3  
0064267020999991929112906004+54733+020567FM-12+002099999V0201401N00671001501CN0020001N9+00281+99999101521ADDAY121999GF108991081051001501999999KA1999N+00111MD1810141+9999
0051267020999991929112912004+54733+020567FM-12+002099999V0201401N00931004501CN0100001N9+00391+99999101131ADDAY181999GF108991081051004501999999MD1710201+9999
0075267020999991929112918004+54733+020567FM-12+002099999V0201801N00671002401CN0100001N9+00501+99999100821ADDAA199000591AY161999GF108991081061002501999999KA1999M+00501MD1810201+9999
0096267020999991929113006004+54733+020567FM-12+002099999V0202001N00261007801CN0010001N9+00721+99999100631ADDAA199006091AY161999GF108991081051008001999999KA1999N+00391EQDQ01+000082APCTENQ02+000002APC3  
0051267020999991929113012004+54733+020567FM-12+002099999V0202301N00461002401CN0040001N9+00721+99999100501ADDAY181999GF108991081051002501999999MD1810061+9999
0096267020999991929113018004+54733+020567FM-12+002099999V0202301N00461002401CN0100001N9+00781+99999100491ADDAA199000691AY121999GF108991081051002501999999KA1999M+00781EQDQ01+000062APCTENQ02+000002APC3  
0064267020999991929120106004+54733+020567FM-12+002099999V0201801N00261220001CN0040001N9+01221+99999101311ADDAY111999GF104991001001999999031071KA1999N+00781MD1810141+9999
0051267020999991929120112004+54733+020567FM-12+002099999V0201401N004619999999N0100001N9+00501+99999100411ADDAY121999GF108991041051017501011999MD1810061+9999
0096267020999991929120118004+54733+020567FM-12+002099999V0201401N00461012301CN0040001N9+00391+99999100381ADDAA199000691AY161999GF108991061061012501011999KA1999M+00611EQDQ01+000032APCTENQ02+000002APC3  
0081267020999991929120206004+54733+020567FM-12+002099999V0201401N00461000601CN0020001N9+00501+99999100371ADDAA199001091AY161999GF108991081061000751999999KA1999N+00391MD1310061+9999MW1601
0057267020999991929120212004+54733+020567FM-12+002099999V0202501N00461000601CN0020001N9+00721+99999100531ADDAY161999GF108991081061000751999999MD1310061+9999MW1611
0075267020999991929120218004+54733+020567FM-12+002099999V0202501N00461015001CN0020001N9+00781+99999100751ADDAA199001091AY161999GF108991081051017501999999KA1999M+00781MD1310141+9999
0064267020999991929120306004+54733+020567FM-12+002099999V0202301N00261001501CN0020001N9+00611+99999101151ADDAY111999GF108991081051001501999999KA1999N+00611MD1310061+9999
0051267020999991929120312004+54733+020567FM-12+002099999V0202501N002619999999N0200001N9+00721+99999101391ADDAY101999GF106991041051002501001081MD1210061+9999
0083267020999991929120318004+54733+020567FM-12+002099999V0201801N00461220001CN0040001N9+01391+99999101501ADDAY101999GF104991001001999999001081KA1999M+99999MD1410001+9999EQDQ01 +00892ATMX  
0102267020999991929120406004+54733+020567FM-12+002099999V0200901N00101001501CN0010001N9+00281+99999101681ADDAA199000591AY161999GF108991081051001501999999KA1999N+00111MW1611EQDQ01+000032APCTENQ02+000002APC3  
0070267020999991929120412004+54733+020567FM-12+002099999V0209991C00001000151CN0005001N9+00501+99999101841ADDGF109991091999000251999999MW1461EQDQ01+000042APCTENQ02+000062APC3  
0081267020999991929120418004+54733+020567FM-12+002099999V0200901N00101000151CN0000501N9+00391+99999102071ADDAA199001091AY141999GF109991091999000251999999KA1999M+00501MD1210061+9999MW1441
0073267020999991929120506004+54733+020567FM-12+002099999V0201601N00671000601CN0005001N9+00281+99999101841ADDAA199000691GF109991091999000751999999KA1999N+00221MD1990141+9999MW1461
0057267020999991929120512004+54733+020567FM-12+002099999V0202501N00101002401CN0040001N9+00611+99999101501ADDAY161999GF108991081061002501999999MD1810141+9999MW1611
0075267020999991929120518004+54733+020567FM-12+002099999V0201801N00101002401CN0040001N9+00721+99999101331ADDAA199003091AY161999GF108991081051002501999999KA1999M+00721MD1810061+9999
0075267020999991929120606004+54733+020567FM-12+002099999V0201601N00671002401CN0040001N9+00721+99999100781ADDAA199000691AY161999GF108991081051002501999999KA1999N+00611MD1610061+9999
0051267020999991929120612004+54733+020567FM-12+002099999V0201601N00671001501CN0100001N9+00721+99999100831ADDAY121999GF108991081051001501999999MD1810061+9999
0069267020999991929120618004+54733+020567FM-12+002099999V0201801N00461004501CN0100001N9+00721+99999100691ADDAY121999GF108991081051004501999999KA1999M+00781EQDQ01+000002APC3  
0062267020999991929120706004+54733+020567FM-12+002099999V0201801N00261001501CN0010001N9+00501+99999100551ADDGF108991081051001501999999KA1999N+00501MD1510001+9999MW1461
0043267020999991929120712004+54733+020567FM-12+002099999V0201801N002619999999N0040001N9+00611+99999100471ADDGF107991041051001501999999MD1510001+9999
0085267020999991929120718004+54733+020567FM-12+002099999V0202001N002619999999N0040001N9+00501+99999100461ADDAY111999GF107991041051012501031999KA1999M+00721EQDQ01+000072APCTENQ02+000002APC3  
0064267020999991929120806004+54733+020567FM-12+002099999V0202501N009319999999N0100001N9+00721+99999101061ADDAY111999GF107991041051008001011999KA1999N+00501MD1310201+9999
0051267020999991929120812004+54733+020567FM-12+002099999V0202501N00931220001CN0100001N9+00721+99999101501ADDAY111999GF102991021051008001001001MD1210141+9999
0083267020999991929120818004+54733+020567FM-12+002099999V0202301N00261220001CN0100001N9+00281+99999101391ADDAY101999GF102991999001999999031001KA1999M+00781MD1990061+9999EQDQ01+000002SCOTLC
0085267020999991929120906004+54733+020567FM-12+002099999V0202001N00261220001CN0100001N9+00281+99999100911ADDAY101999GF102991001001999999011081KA1999N+00111EQDQ01+000062APCTENQ02+000002APC3  
0072267020999991929120912004+54733+020567FM-12+002099999V0202501N00461220001CN0100001N9+00501+99999100911ADDAY101999GF107991001001999999071999EQDQ01+000032APCTENQ02+000002APC3  
0096267020999991929120918004+54733+020567FM-12+002099999V0202301N00261012301CN0100001N9+00391+99999100911ADDAA199000691AY111999GF107991071051012501001001KA1999M+00611EQDQ01+000082APCTENQ02+000002APC3  
0081267020999991929121006004+54733+020567FM-12+002099999V0202501N00461001501CN0040001N9+00391+99999100021ADDAA199000391AY161999GF108991081061001501999999KA1999N+00111MD1810141+9999MW1611
0072267020999991929121012004+54733+020567FM-12+002099999V0202301N006719999999N0100001N9+00721+99999099981ADDAY181999GF107991041001022501011011EQDQ01+000032APCTENQ02+000002APC3  
0075267020999991929121018004+54733+020567FM-12+002099999V0202301N00461220001CN0100001N9+00391+99999100421ADDAA199006091AY111999GF104991001001999999011081KA1999M+00781MD1210201+9999
0056267020999991929121112004+54733+020567FM-12+002099999V0202301N00461220001CN0100001N9+00391+99999100981ADDAY111999GF102991011011008001011999EQDQ01+000002APC3  
0064267020999991929121118004+54733+020567FM-12+002099999V0201601N00461220001CN0100001N9+00001+99999100771ADDAY101999GF100991001001999999001001KA1999M+00501MD1710141+9999
0081267020999991929121206004+54733+020567FM-12+002099999V0201801N002619999999N0040001N9+00391+99999100011ADDAA199003091AY161999GF108991041061001501999999KA1999N+00001MD1810141+9999MW1611
0051267020999991929121212004+54733+020567FM-12+002099999V0202301N006719999999N0100001N9+00721+99999099811ADDAY161999GF106991041051012501011999MD1710141+9999
0096267020999991929121218004+54733+020567FM-12+002099999V0202301N00931004501CN0040001N9+00501+99999099691ADDAA199006091AY161999GF108991081061004501999999KA1999M+00781EQDQ01+000012APCTENQ02+000002APC3  
0075267020999991929121306004+54733+020567FM-12+002099999V0202301N002619999999N0020001N9+00391+99999100251ADDAA199000591AY181999GF108991041061008001999999KA1999N+00391MD1310261+9999
0051267020999991929121312004+54733+020567FM-12+002099999V0202301N002619999999N0040001N9+00391+99999100631ADDAY121999GF108991041051012501011999MD1310141+9999
0075267020999991929121318004+54733+020567FM-12+002099999V0202901N00261007801CN0040001N9+00501+99999101151ADDAA199002091AY181999GF108991061051008001011999KA1999M+00501MD1310261+9999
0096267020999991929121406004+54733+020567FM-12+002099999V0202301N004619999999N0100001N9+00281+99999102101ADDAA199001091AY181999GF107991041051017501011999KA1999N+00281EQDQ01+000032APCTENQ02+000002APC3  
0057267020999991929121412004+54733+020567FM-12+002099999V0202301N00461004501CN0020001N9+00391+99999101661ADDAY161999GF108991081061004501999999MD1810201+9999MW1631
0081267020999991929121418004+54733+020567FM-12+002099999V0202501N00931002401CN0040001N9+00781+99999101301ADDAA199005091AY161999GF108991081061002501999999KA1999M+00781MD1810201+9999MW1611
0075267020999991929121506004+54733+020567FM-12+002099999V0202701N004619999999N0040001N9+00721+99999101021ADDAA199013091AY161999GF106991041051004501999999KA1999N+00721MD1410001+9999
0051267020999991929121512004+54733+020567FM-12+002099999V0202701N00931004501CN0040001N9+00721+99999101011ADDAY181999GF107991061061004501011999MD1810141+9999
0096267020999991929121518004+54733+020567FM-12+002099999V0202901N009319999999N0100001N9+00611+99999100991ADDAA199000691AY111999GF106991041051004501999999KA1999M+00721EQDQ01+000032APCTENQ02+000002APC3  
0096267020999991929121606004+54733+020567FM-12+002099999V0202901N00461220001CN0040001N9+00281+99999100971ADDAA199001091AY181999GF104991021071008001999999KA1999N+00221EQDQ01+000042APCTENQ02+000062APC3  
0051267020999991929121612004+54733+020567FM-12+002099999V0203201N00931220001CN0200001N9+00391+99999101021ADDAY101999GF102991021011008001001001MD1510001+9999
0064267020999991929121618004+54733+020567FM-12+002099999V0202901N00671220001CN0100001N9+00221+99999101141ADDAY101999GF104991041051008001001001KA1999M+00611MD1110061+9999
0075267020999991929121706004+54733+020567FM-12+002099999V0202901N00261004501CN0020001N9+00221+99999101421ADDAA199000691AY181999GF108991061061004501999999KA1999N+00221MD1310061+9999
0057267020999991929121712004+54733+020567FM-12+002099999V0202901N004619999999N0100001N9+00221+99999101601ADDAY181999GF106991021071008001999999MD1310061+9999MW1831
0075267020999991929121718004+54733+020567FM-12+002099999V0202901N00461001501CN0100001N9+00001+99999101821ADDAA199000391AY181999GF106991061051001501001001KA1999M+00281MD1310141+9999
0064267020999991929121806004+54733+020567FM-12+002099999V0203601N00261220001CN0100001N9-00111+99999103001ADDAY171999GF102991021051008001999999KA1999N-00111MD1310341+9999
0051267020999991929121812004+54733+020567FM-12+002099999V0203601N00261220001CN0200001N9+00221+99999103481ADDAY101999GF104991011011012501001081MD1310061+9999
0064267020999991929121818004+54733+020567FM-12+002099999V0209991C000019999999N0100001N9+00111+99999103621ADDAY111999GF106991021051012501001081KA1999M+00281MD1310141+9999
0085267020999991929121906004+54733+020567FM-12+002099999V0202501N00461002401CN0010001N9+00001+99999103701ADDAY111999GF108991061051002501999999KA1999N-00281EQDQ01+000042APCTENQ02+000062APC3  
0072267020999991929121912004+54733+020567FM-12+002099999V0202501N00671012301CN0100001N9+00111+99999103681ADDAY111999GF107991061051012501011999EQDQ01+000082APCTENQ02+000002APC3  
0085267020999991929121918004+54733+020567FM-12+002099999V0202501N00461007801CN0100001N9+00001+99999103641ADDAY111999GF108991081051008001999999KA1999M+00221EQDQ01+000082APCTENQ02+000002APC3  
0070267020999991929122006004+54733+020567FM-12+002099999V0202301N00461000151CN0005001N9-00391+99999103541ADDAY141999GF109991091999000251999999KA1999N-00501MD1410001+9999MW1441
0051267020999991929122012004+54733+020567FM-12+002099999V0202301N00101001501CN0040001N9-00391+99999103521ADDAY121999GF108991081051001501999999MD1610061+9999
0064267020999991929122018004+54733+020567FM-12+002099999V0209991C00001002401CN0040001N9-00501+99999103381ADDAY121999GF108991081051002501999999KA1999M-00391MD1990061+9999
0064267020999991929122106004+54733+020567FM-12+002099999V0200901N00461220001CN0040001N9-00611+99999103191ADDAY121999GF102991011051000751031999KA1999N-00721MD1810061+9999
0051267020999991929122112004+54733+020567FM-12+002099999V0201101N00461220001CN0100001N9-00221+99999103061ADDAY101999GF102991021001022501011001MD1810061+9999
0085267020999991929122118004+54733+020567FM-12+002099999V0200901N00461220001CN0100001N9-00391+99999102941ADDAY101999GF100991001001999999001001KA1999M-00221EQDQ01+000082APCTENQ02+000002APC3  
0085267020999991929122206004+54733+020567FM-12+002099999V0201401N00461220001CN0100001N9-00221+99999102841ADDAY101999GF104991001001999999011081KA1999N-00391EQDQ01+000042APCTENQ02+000062APC3  
0072267020999991929122212004+54733+020567FM-12+002099999V0201401N012319999999N0200001N9-00111+99999102821ADDAY111999GF107991041051008001999999EQDQ01+000062APCTENQ02+000002APC3  
0064267020999991929122218004+54733+020567FM-12+002099999V0201401N00671220001CN0200001N9-00501+99999102861ADDAY111999GF100991001001999999001001KA1999M+00001MD1410001+9999
0064267020999991929122306004+54733+020567FM-12+002099999V0201101N00671004501CN0200001N9-00611+99999102901ADDAY111999GF108991061051004501999999KA1999N-00721MD1410001+9999
0051267020999991929122312004+54733+020567FM-12+002099999V0201101N00931220001CN0200001N9-00391+99999102791ADDAY121999GF101991011051012501001001MD1810061+9999
0064267020999991929122318004+54733+020567FM-12+002099999V0201101N00931007801CN0200001N9-00721+99999102791ADDAY111999GF106991061051008001001001KA1999M-00391MD1410001+9999
0083267020999991929122406004+54733+020567FM-12+002099999V0200901N00461220001CN0200001N9-01001+99999102391ADDAY111999GF101991999001999999011001KA1999N-01111MD1810201+9999EQDQ01+000002SCOTLC
0057267020999991929122412004+54733+020567FM-12+002099999V0200901N00671007801CN0100001N9-00781+99999101941ADDAY101999GF106991061051008001011999MD1810141+9999MW1851
0096267020999991929122418004+54733+020567FM-12+002099999V0200901N00931007801CN0100001N9-01001+99999101721ADDAA199000691AY111999GF108991081051008001999999KA1999M-00781EQDQ01+000072APCTENQ02+000002APC3  
0075267020999991929122506004+54733+020567FM-12+002099999V0201401N00461012301CN0100001N9-00501+99999101761ADDAA199000691AY181999GF108991061051012501011999KA1999N-01111MD1410001+9999
0072267020999991929122512004+54733+020567FM-12+002099999V0201101N00671012301CN0100001N9+00001+99999101721ADDAY121999GF108991081051012501999999EQDQ01+000072APCTENQ02+000002APC3  
0064267020999991929122518004+54733+020567FM-12+002099999V0201601N00671220001CN0100001N9+00001+99999101841ADDAY121999GF100991001001999999001001KA1999M+00111MD1010001+9999
0064267020999991929122606004+54733+020567FM-12+002099999V0201601N006719999999N0100001N9+00111+99999101981ADDAY101999GF107991041051017501011999KA1999N+00001MD1410001+9999
0051267020999991929122612004+54733+020567FM-12+002099999V0201601N00671015001CN0100001N9+00111+99999101791ADDAY111999GF108991071051017501011999MD1710061+9999
0064267020999991929122618004+54733+020567FM-12+002099999V0201601N00261012301CN0200001N9+00111+99999101641ADDAY111999GF107991071051012501001001KA1999M+00221MD1710061+9999
0081267020999991929122706004+54733+020567FM-12+002099999V0201801N00101000601CN0040001N9+00111+99999101911ADDAA199000391AY181999GF108991081061000751999999KA1999N+00111MD1310061+9999MW1611
0051267020999991929122712004+54733+020567FM-12+002099999V0202501N00101001501CN0020001N9+00221+99999101981ADDAY121999GF108991081051001501999999MD1810061+9999
0086267020999991929122718004+54733+020567FM-12+002099999V0209991C00001000601CN0002001N9+00111+99999101921ADDAA199000691AY141999GF109991091999000751999999KA1999M+00221MW1441EQDQ01+000002APC3  
0075267020999991929122806004+54733+020567FM-12+002099999V0201601N00461004501CN0010001N9+00001+99999101721ADDAA199000391AY181999GF108991081051004501999999KA1999N+00001MD1610061+9999
0051267020999991929122812004+54733+020567FM-12+002099999V0201401N00461001501CN0040001N9-00221+99999101671ADDAY121999GF108991081051001501999999MD1710061+9999
0081267020999991929122818004+54733+020567FM-12+002099999V0201401N00671001501CN0010001N9-00281+99999101681ADDAA199000691AY171999GF108991081061001501999999KA1999M+00001MD1810061+9999MW1711
0096267020999991929122906004+54733+020567FM-12+002099999V0201601N00261001501CN0040001N9+00001+99999101521ADDAA199000691AY171999GF108991081051001501999999KA1999N-00221EQDQ01+000062APCTENQ02+000002APC3  
0043267020999991929122912004+54733+020567FM-12+002099999V0202001N00261001501CN0020001N9+00111+99999101331ADDGF108991081051001501999999MD1710061+9999
0064267020999991929122918004+54733+020567FM-12+002099999V0201801N01231001501CN0100001N9+00221+99999100741ADDAY121999GF107991071051001501001001KA1999M+00221MD1710261+9999
