0088330190999991929080206004+52117+026100FM-12+013799999V0201401N00261220001CN0040001N9+02391+99999100981ADDAA199006091GF104991001001999999999999KA1999N+01501EQDQ01+000032APCTENQ02+000002APC3  
0056330190999991929080606004+52117+026100FM-12+013799999V0200701N00261220001CN0040001N9+02391+99999101131ADDGF102991021011012501999999KA1999N+01721MD1810041+9999
0067330190999991929080618004+52117+026100FM-12+013799999V0203601N00461004501CN9999999N9+01891+99999101471ADDAA199005091GF108991081061004501999999KA1999M+02891MD1310041+9999
0067330190999991929080906004+52117+026100FM-12+013799999V0200501N00261220001CN0200001N9+02391+99999101431ADDAA199002091GF102991001001999999999999KA1999N+01781MD1310041+9999
0049330190999991929081106004+52117+026100FM-12+013799999V0201401N002619999999N9999999N9+01001+99999101871ADDAA199000691EQDQ01+000032APCTENQ02+000002APC3  
0088330190999991929081118004+52117+026100FM-12+013799999V0203601N00101220001CN0100001N9+01781+99999102211ADDAA199000591GF102991001001999999999999KA1999M+02281EQDQ01+000032APCTENQ02+000002APC3  
0067330190999991929081318004+52117+026100FM-12+013799999V0203201N004619999999N0040001N9+01891+99999102021ADDAA199003091GF106991041051012501999999KA1999M+02501MD1310201+9999
0056330190999991929081418004+52117+026100FM-12+013799999V0203601N00101220001CN0040001N9+01721+99999102541ADDGF106991001001999999999999KA1999M+02001MD1810041+9999
0077330190999991929081518004+52117+026100FM-12+013799999V0200701N00101220001CN0100001N9+02001+99999101991ADDGF101991001001999999999999KA1999M+02111EQDQ01+000032APCTENQ02+000002APC3  
0056330190999991929081718004+52117+026100FM-12+013799999V0200701N00101220001CN0200001N9+01281+99999102111ADDGF100991001001999999999999KA1999M+02611MD1810041+9999
0077330190999991929081806004+52117+026100FM-12+013799999V0200701N00101220001CN0200001N9+02281+99999102091ADDGF100991001001999999999999KA1999N+01611EQDQ01+000032APCTENQ02+000002APC3  
0056330190999991929081906004+52117+026100FM-12+013799999V0209991C00001220001CN0040001N9+02781+99999101401ADDGF104991021011012501999999KA1999N+01221MD1310041+9999
0067330190999991929081918004+52117+026100FM-12+013799999V0200701N00101012301CN0040001N9+02111+99999101391ADDAA199004091GF108991081011012501999999KA1999M+03111MD1310041+9999
0056330190999991929082206004+52117+026100FM-12+013799999V0203401N00261012301CN0040001N9+01281+99999101811ADDGF108991081051012501999999KA1999N+01281MD1310101+9999
0088330190999991929082306004+52117+026100FM-12+013799999V0200701N00101002401CN0005001N9+00891+99999101931ADDAA199002091GF108991081051002501999999KA1999N+00891EQDQ01+000032APCTENQ02+000002APC3  
0088330190999991929082318004+52117+026100FM-12+013799999V0203601N00261012301CN0040001N9+01611+99999102051ADDAA199000691GF108991081051012501999999KA1999M+01781EQDQ01+000032APCTENQ02+000002APC3  
0056330190999991929082406004+52117+026100FM-12+013799999V0203601N00261220001CN0100001N9+01781+99999102211ADDGF100991001001999999999999KA1999N+01221MD1310041+9999
0077330190999991929082506004+52117+026100FM-12+013799999V0203201N00101220001CN0100001N9+02001+99999102121ADDGF101991001001999999999999KA1999N+01221EQDQ01+000032APCTENQ02+000002APC3  
0077330190999991929082906004+52117+026100FM-12+013799999V0200901N00101220001CN0040001N9+01891+99999102111ADDGF100991001001999999999999KA1999N+01111EQDQ01+000032APCTENQ02+000002APC3  
0070330190999991929082918004+52117+026100FM-12+013799999V0209991C00001220001CN0010001N9+02111+99999101991ADDGF104991021051012501999999MW1101EQDQ01+000032APCTENQ02+000002APC3  
0088330190999991929090718004+52117+026100FM-12+013799999V0202901N00931220001CN0040001N9+00891+99999100631ADDAA199003091GF102991021051012501999999KA1999M+01611EQDQ01+000032APCTENQ02+000002APC3  
0067330190999991929090818004+52117+026100FM-12+013799999V0202901N00461220001CN0040001N9+00891+99999101221ADDAA199006091GF102991021051012501999999KA1999M+01501MD1310101+9999
0028330190999991929091006004+52117+026100FM-12+013799999V0202901N012319999999N0100001N9+01111+99999101411ADDAA199002091MD1310101+9999
0067330190999991929091018004+52117+026100FM-12+013799999V0202701N00261220001CN0100001N9+01111+99999101291ADDAA199002091GF104991041051012501999999KA1999M+01721MD1310241+9999
0056330190999991929091206004+52117+026100FM-12+013799999V0202901N00261012301CN0040001N9+01001+99999102891ADDGF108991081051012501999999KA1999N+00891MD1310041+9999
0056330190999991929091218004+52117+026100FM-12+013799999V0200501N00101012301CN0100001N9+01221+99999102871ADDGF106991061051012501999999KA1999M+01611MD1310041+9999
0077330190999991929091406004+52117+026100FM-12+013799999V0200701N00101220001CN0040001N9+01111+99999102501ADDGF102991001001999999999999KA1999N+00391EQDQ01+000032APCTENQ02+000002APC3  
0056330190999991929091418004+52117+026100FM-12+013799999V0200701N00101220001CN0040001N9+01281+99999101311ADDGF108991001001999999999999KA1999M+01721MD1310041+9999
0067330190999991929091506004+52117+026100FM-12+013799999V0200701N00261220001CN0040001N9+01221+99999102671ADDAA199000691GF102991001001999999999999KA1999N+00781MD1310161+9999
0077330190999991929091706004+52117+026100FM-12+013799999V0200201N00101012301CN0040001N9+99999+99999102981ADDGF108991081051012501999999KA1999N+00281EQDQ01+000032APCTENQ02+000002APC3  
0056330190999991929091806004+52117+026100FM-12+013799999V0201101N00101220001CN9999999N9+01221+99999102621ADDGF104991001001999999999999KA1999N+00391MD1810041+9999
0077330190999991929091818004+52117+026100FM-12+013799999V0209991C00001220001CN0020001N9+01221+99999102371ADDGF102991001001999999999999KA1999M+01781EQDQ01+000032APCTENQ02+000002APC3  
0056330190999991929092018004+52117+026100FM-12+013799999V0201401N00101012301CN0040001N9+01391+99999101101ADDGF108991081051012501999999KA1999M+02111MD1810161+9999
0067330190999991929092106004+52117+026100FM-12+013799999V0201401N00101220001CN0040001N9+01501+99999100611ADDAA199000691GF106991001001999999999999KA1999N+01221MD1810201+9999
0067330190999991929092118004+52117+026100FM-12+013799999V0203401N00261012301CN0010001N9+00891+99999100651ADDAA199009091GF108991081061012501999999KA1999M+02111MD1310161+9999
0088330190999991929092206004+52117+026100FM-12+013799999V0202901N006719999999N0040001N9+00721+99999100631ADDAA199006091GF106991021051000251999999KA1999N+00611EQDQ01+000032APCTENQ02+000002APC3  
0067330190999991929092218004+52117+026100FM-12+013799999V0202301N00461012301CN0040001N9+01001+99999100311ADDAA199000391GF108991081051012501999999KA1999M+01391MD1810101+9999
0054330190999991929092306004+52117+026100FM-12+013799999V0202701N00461012301CN0040001N9+00781+99999100371ADDAA199001091GF108991081051012501999999MD1310041+9999
0056330190999991929092418004+52117+026100FM-12+013799999V0203601N00461220001CN0040001N9+01001+99999102211ADDGF104991021051012501999999KA1999M+01281MD1310161+9999
0056330190999991929092506004+52117+026100FM-12+013799999V0203601N00461220001CN0040001N9+00891+99999102941ADDGF100991001001999999999999KA1999N+00501MD1310201+9999
0077330190999991929092518004+52117+026100FM-12+013799999V0203601N00101220001CN0040001N9+01111+99999103231ADDGF104991041051012501999999KA1999M+01611EQDQ01+000032APCTENQ02+000002APC3  
0077330190999991929092606004+52117+026100FM-12+013799999V0203601N00461012301CN0040001N9+00781+99999103141ADDGF107991061051012501999999KA1999N+00721EQDQ01+000032APCTENQ02+000002APC3  
0035330190999991929092618004+52117+026100FM-12+013799999V0200501N001019999999N9999999N9+01001+99999103041EQDQ01+000032APCTENQ02+000002APC3  
0056330190999991929092706004+52117+026100FM-12+013799999V0200501N00101220001CN0040001N9+00781+99999103171ADDGF100991001001999999999999KA1999N+00001MD1310101+9999
0077330190999991929092718004+52117+026100FM-12+013799999V0200701N00101220001CN0100001N9+00721+99999103101ADDGF100991001001999999999999KA1999M+01501EQDQ01+000032APCTENQ02+000002APC3  
0056330190999991929092806004+52117+026100FM-12+013799999V0200701N00101220001CN0100001N9+00891+99999103221ADDGF102991001001999999999999KA1999N-00111MD1310041+9999
0077330190999991929092818004+52117+026100FM-12+013799999V0202301N00101220001CN0040001N9+00891+99999103121ADDGF102991021051012501999999KA1999M+01611EQDQ01+000032APCTENQ02+000002APC3  
0077330190999991929093006004+52117+026100FM-12+013799999V0201601N00261220001CN0040001N9+00781+99999102901ADDGF100991001001999999999999KA1999N+00001EQDQ01+000032APCTENQ02+000002APC3  
0056330190999991929100106004+52117+026100FM-12+013799999V0201101N00101220001CN0040001N9+00891+99999102261ADDGF101991001001999999999999KA1999N+00111MD1810161+9999
0064330190999991929100218004+52117+026100FM-12+013799999V0202901N00101220001CN0005001N9+00721+99999101511ADDGF104991001001999999999999EQDQ01+000032APCTENQ02+000002APC3  
0056330190999991929100318004+52117+026100FM-12+013799999V0201801N00461012301CN0020001N9+01501+99999101251ADDGF108991081051012501999999KA1999M+01891MD1810041+9999
0067330190999991929100406004+52117+026100FM-12+013799999V0202501N01231220001CN0100001N9+01891+99999101351ADDAA199000691GF106991001001999999999999KA1999N+01611MD1310041+9999
0056330190999991929100418004+52117+026100FM-12+013799999V0209991C00001220001CN0040001N9+01611+99999101781ADDGF100991001001999999999999KA1999M+02281MD1310041+9999
0077330190999991929100506004+52117+026100FM-12+013799999V0201601N00261220001CN0040001N9+01611+99999101911ADDGF100991001001999999999999KA1999N+00891EQDQ01+000032APCTENQ02+000002APC3  
0056330190999991929100706004+52117+026100FM-12+013799999V0201101N00261220001CN0040001N9+01391+99999101811ADDGF101991001001999999999999KA1999N+00721MD1310041+9999
0056330190999991929100718004+52117+026100FM-12+013799999V0209991C00001220001CN0040001N9+01391+99999101911ADDGF100991001001999999999999KA1999M+02501MD1310041+9999
0083330190999991929100818004+52117+026100FM-12+013799999V0200901N00101000151CN0010001N9+01391+99999101831ADDGF108991081051000251999999KA1999M+02391MW1101EQDQ01+000032APCTENQ02+000002APC3  
0067330190999991929100918004+52117+026100FM-12+013799999V0201401N00261012301CN0020001N9+01611+99999101181ADDAA199001091GF108991081061012501999999KA1999M+02221MD1810041+9999
0077330190999991929101006004+52117+026100FM-12+013799999V0202001N006719999999N0100001N9+00891+99999100381ADDGF108991041011008001999999KA1999N+00781EQDQ01+000032APCTENQ02+000002APC3  
0067330190999991929101018004+52117+026100FM-12+013799999V0202901N00101012301CN0040001N9+00781+99999101551ADDAA199000391GF108991081051012501999999KA1999M+01611MD1310041+9999
0056330190999991929101106004+52117+026100FM-12+013799999V0202301N002619999999N0020001N9+00891+99999101821ADDGF108991081051999999999999KA1999N+00721MD1310101+9999
0067330190999991929101306004+52117+026100FM-12+013799999V0202901N00261000151CN0040001N9+00781+99999101931ADDAA199000691GF108991081051000251999999KA1999N+00221MD1310201+9999
0056330190999991929101318004+52117+026100FM-12+013799999V0202301N00671012301CN0040001N9+00891+99999102111ADDGF108991081051012501999999KA1999M+01281MD1310041+9999
0077330190999991929101418004+52117+026100FM-12+013799999V0202901N00261220001CN0040001N9+00721+99999102891ADDGF104991001001999999999999KA1999M+01391EQDQ01+000032APCTENQ02+000002APC3  
0043330190999991929101506004+52117+026100FM-12+013799999V0202301N004619999999N0040001N9+01001+99999102211ADDGF108991081051999999999999MD1810161+9999
0056330190999991929101618004+52117+026100FM-12+013799999V0203201N00931220001CN0040001N9+00281+99999102261ADDGF104991001001999999999999KA1999M+01001MD1310041+9999
0062330190999991929102006004+52117+026100FM-12+013799999V0201601N009319999999N0010001N9+01001+99999100941ADDGF106991021051012501999999KA1999N+00501MD1810041+9999MW1101
0073330190999991929102306004+52117+026100FM-12+013799999V0201601N00261000151CN0010001N9+00781+99999101111ADDAA199011091GF108991081051000251999999KA1999N+00221MD1810101+9999MW1101
0088330190999991929102518004+52117+026100FM-12+013799999V0200901N00101220001CN0040001N9+00781+99999101331ADDAA199000691GF100991001001999999999999KA1999M+01111EQDQ01+000032APCTENQ02+000002APC3  
0056330190999991929102606004+52117+026100FM-12+013799999V0200501N002619999999N0010001N9+00721+99999100751ADDGF108991081051999999999999KA1999N+00501MD1810101+9999
0077330190999991929102618004+52117+026100FM-12+013799999V0201101N00261220001CN0040001N9+00721+99999100471ADDGF102991021051999999999999KA1999M+00891EQDQ01+000032APCTENQ02+000002APC3  
0056330190999991929102718004+52117+026100FM-12+013799999V0200501N001019999999N0020001N9+00891+99999100501ADDGF108991041051012501999999KA1999M+01501MD1810041+9999
0073330190999991929102818004+52117+026100FM-12+013799999V0202701N00101220001CN0010001N9+00611+99999101531ADDAA199000691GF100991001001999999999999KA1999M+01391MD1310241+9999MW1101
0077330190999991929103006004+52117+026100FM-12+013799999V0201401N006719999999N0020001N9+00781+99999101211ADDGF108991041051012501999999KA1999N+00281EQDQ01+000032APCTENQ02+000002APC3  
0077330190999991929103018004+52117+026100FM-12+013799999V0201401N00101220001CN0005001N9+00781+99999101421ADDGF106991001001999999999999KA1999M+01111EQDQ01+000032APCTENQ02+000002APC3  
0075330190999991929110118004+52117+026100FM-12+013799999V0201101N00261012301CN0005001N9+01001+99999102291ADDGF108991081051012501999999KA1999M+99999MD1310041+9999EQDQ01 +00612ATMX  
0067330190999991929110218004+52117+026100FM-12+013799999V0201401N00261007801CN0020001N9+01001+99999102231ADDAA199003091GF108991081051008001999999KA1999M+01221MD1810161+9999
0056330190999991929110306004+52117+026100FM-12+013799999V0202501N00931220001CN0100001N9+00501+99999102591ADDGF104991041011000251999999KA1999N+00391MD1310041+9999
0075330190999991929110418004+52117+026100FM-12+013799999V0202501N00101012301CN0005001N9+00501+99999102451ADDAA199000691AY161999GF107991071061012501999999KA1999M+01001MD1310201+9999
0056330190999991929110506004+52117+026100FM-12+013799999V0202701N006719999999N0005001N9+00281+99999102821ADDGF108991081051999999999999KA1999N+00221MD1310201+9999
0064330190999991929110518004+52117+026100FM-12+013799999V0202501N00101012301CN0020001N9+00281+99999102771ADDGF108991081051012501999999EQDQ01+000032APCTENQ02+000002APC3  
0077330190999991929110606004+52117+026100FM-12+013799999V0202301N00101012301CN0010001N9+00281+99999102771ADDGF108991081051012501999999KA1999N-00111EQDQ01+000032APCTENQ02+000002APC3  
0077330190999991929110618004+52117+026100FM-12+013799999V0200701N00101220001CN0020001N9+00221+99999102531ADDGF100991001001999999999999KA1999M+00891EQDQ01+000032APCTENQ02+000002APC3  
0077330190999991929110718004+52117+026100FM-12+013799999V0201101N002619999999N0040001N9+00391+99999102391ADDGF107991041051012501999999KA1999M+00781EQDQ01+000032APCTENQ02+000002APC3  
0056330190999991929110806004+52117+026100FM-12+013799999V0201101N00671012301CN0040001N9+00501+99999102341ADDGF108991081051012501999999KA1999N+00221MD1310041+9999
0088330190999991929110818004+52117+026100FM-12+013799999V0201401N004619999999N0020001N9+00721+99999102151ADDAA199026091GF108991041051012501999999KA1999M+00891EQDQ01+000032APCTENQ02+000002APC3  
0062330190999991929110906004+52117+026100FM-12+013799999V0201401N006719999999N0010001N9+00721+99999101931ADDGF108991081051999999999999KA1999N+00611MD1810161+9999MW1101
0067330190999991929111006004+52117+026100FM-12+013799999V0202901N004619999999N0010001N9+00721+99999102391ADDAA199000691GF108991081051999999999999KA1999N+00281MD1310241+9999
0062330190999991929111018004+52117+026100FM-12+013799999V0209991C00001000151CN0010001N9+00221+99999102931ADDGF108991081051000251999999KA1999M+00891MD1310101+9999MW1101
0077330190999991929111106004+52117+026100FM-12+013799999V0200701N00461220001CN0040001N9+00001+99999102941ADDGF102991001001999999999999KA1999N-00391EQDQ01+000032APCTENQ02+000002APC3  
0083330190999991929111118004+52117+026100FM-12+013799999V0201101N01231000151CN0010001N9+00501+99999102151ADDGF108991081051000251999999KA1999M+00781MW1101EQDQ01+000032APCTENQ02+000002APC3  
0067330190999991929111206004+52117+026100FM-12+013799999V0201101N00461000151CN0005001N9+00501+99999102031ADDAA199000691GF108991081051000251999999KA1999N+00281MD1810161+9999
0067330190999991929111218004+52117+026100FM-12+013799999V0201401N009319999999N0020001N9+00721+99999101581ADDAA199000691GF108991081051999999999999KA1999M+00721MD1810161+9999
0102330190999991929111306004+52117+026100FM-12+013799999V0201101N00931000151CN0010001N9+00501+99999101351ADDAA199000691AY161999GF107991071051000251999999KA1999N+00501MW1101EQDQ01+000032APCTENQ02+000002APC3  
0096330190999991929111318004+52117+026100FM-12+013799999V0201401N012319999999N0020001N9+00721+99999101271ADDAA199000691AY161999GF108991081051999999999999KA1999M+00721EQDQ01+000032APCTENQ02+000002APC3  
0088330190999991929111418004+52117+026100FM-12+013799999V0201401N01541012301CN0020001N9+00781+99999101171ADDAA199000691GF108991081051012501999999KA1999M+00891EQDQ01+000032APCTENQ02+000002APC3  
0067330190999991929111506004+52117+026100FM-12+013799999V0201101N01901015001CN0000001N9+00281+99999100871ADDAA199000691GF108991081061017501999999KA1999N+00281MD1810101+9999
0067330190999991929111518004+52117+026100FM-12+013799999V0201401N01231012301CN0005001N9+00111+99999100911ADDAA199005091GF108991081061012501999999KA1999M+00891MD1810101+9999
0067330190999991929111606004+52117+026100FM-12+013799999V0201101N004619999999N0005001N9+00221+99999101141ADDAA199002091GF108991081051999999999999KA1999N+00001MD1310041+9999
0088330190999991929111618004+52117+026100FM-12+013799999V0200701N002619999999N0005001N9+00221+99999100981ADDAA199000691GF108991081051999999999999KA1999M+00281EQDQ01+000032APCTENQ02+000002APC3  
0067330190999991929111706004+52117+026100FM-12+013799999V0200501N00261004501CN0010001N9+00281+99999100411ADDAA199015091GF108991081061004501999999KA1999N+00111MD1810161+9999
0088330190999991929111718004+52117+026100FM-12+013799999V0202501N00931004501CN0005001N9+00111+99999100451ADDAA199009091GF108991081061004501999999KA1999M+00391EQDQ01+000032APCTENQ02+000002APC3  
0043330190999991929111806004+52117+026100FM-12+013799999V0202701N002619999999N0020001N9+00221+99999101111ADDGF108991041051999999999999MD1310241+9999
0056330190999991929111906004+52117+026100FM-12+013799999V0209991C00001001501CN0005001N9+00111+99999102071ADDGF108991081051001501999999KA1999N+00111MD1310101+9999
0056330190999991929111918004+52117+026100FM-12+013799999V0202301N00101000601CN0002001N9+00111+99999102451ADDGF108991081051000751999999KA1999M+00111MD1310101+9999
0077330190999991929112006004+52117+026100FM-12+013799999V0203201N002619999999N0040001N9-00111+99999102971ADDGF108991041051012501999999KA1999N-00281EQDQ01+000032APCTENQ02+000002APC3  
0062330190999991929112106004+52117+026100FM-12+013799999V0203201N00261012301CN0010001N9+00111+99999103271ADDGF108991081051012501999999KA1999N-00111MD1310161+9999MW1101
0075330190999991929112118004+52117+026100FM-12+013799999V0200901N002619999999N0005001N9+00001+99999103381ADDGF108991081051999999999999KA1999M+99999MD1310041+9999EQDQ01 -00112ATMX  
0077330190999991929112206004+52117+026100FM-12+013799999V0201601N001019999999N0005001N9-00281+99999103101ADDGF108991081051999999999999KA1999N-00281EQDQ01+000032APCTENQ02+000002APC3  
0077330190999991929112218004+52117+026100FM-12+013799999V0200701N006719999999N0005001N9-00111+99999103271ADDGF108991081051999999999999KA1999M+00001EQDQ01+000032APCTENQ02+000002APC3  
0067330190999991929112318004+52117+026100FM-12+013799999V0201601N00461000151CN0005001N9+00001+99999102691ADDAA199000691GF108991081051000251999999KA1999M+00111MD1810041+9999
0088330190999991929112406004+52117+026100FM-12+013799999V0201101N00461000151CN0010001N9+00001+99999102691ADDAA199000691GF108991081051000251999999KA1999N-00111EQDQ01+000032APCTENQ02+000002APC3  
0088330190999991929112418004+52117+026100FM-12+013799999V0201101N004619999999N0002001N9+00001+99999102671ADDAA199000691GF108991081051999999999999KA1999M+00111EQDQ01+000032APCTENQ02+000002APC3  
0088330190999991929112506004+52117+026100FM-12+013799999V0201101N002619999999N0005001N9+00001+99999102731ADDAA199000691GF108991081051999999999999KA1999N-00111EQDQ01+000032APCTENQ02+000002APC3  
0064330190999991929112618004+52117+026100FM-12+013799999V0201101N00261000151CN0002001N9+00111+99999102401ADDGF108991081051000251999999EQDQ01+000032APCTENQ02+000002APC3  
0049330190999991929112706004+52117+026100FM-12+013799999V0201101N004619999999N9999999N9-00221+99999102261ADDAA199000691EQDQ01+000032APCTENQ02+000002APC3  
0067330190999991929112718004+52117+026100FM-12+013799999V0201101N004619999999N0005001N9+00001+99999101951ADDAA199000691GF108991081051999999999999KA1999M+00001MD1810041+9999
0067330190999991929112806004+52117+026100FM-12+013799999V0201401N002619999999N0005001N9+00501+99999102131ADDAA199000691GF108991081051999999999999KA1999N+00001MD1310161+9999
0067330190999991929112818004+52117+026100FM-12+013799999V0209991C000019999999N0000501N9+00391+99999102341ADDAA199000691GF109991999051000251999999KA1999M+00611MD1310041+9999
0056330190999991929112918004+52117+026100FM-12+013799999V0201401N00461012301CN0020001N9+00281+99999101991ADDGF108991081051012501999999KA1999M+00391MD1810101+9999
0056330190999991929113006004+52117+026100FM-12+013799999V0201401N00671004501CN0020001N9+00221+99999101771ADDGF108991081051004501999999KA1999N+00111MD1810041+9999
0077330190999991929113018004+52117+026100FM-12+013799999V0201601N012319999999N0005001N9+00111+99999101541ADDGF108991081051999999999999KA1999M+00221EQDQ01+000032APCTENQ02+000002APC3  
0062330190999991929120106004+52117+026100FM-12+013799999V0201101N00671220001CN0010001N9+00111+99999101291ADDGF108991001001999999999999KA1999N+00001MD1810101+9999MW1101
0077330190999991929120118004+52117+026100FM-12+013799999V0201401N00671012301CN0020001N9+00111+99999101171ADDGF108991081051012501999999KA1999M+00111EQDQ01+000032APCTENQ02+000002APC3  
0067330190999991929120206004+52117+026100FM-12+013799999V0201101N00461004501CN0010001N9+00281+99999101071ADDAA199002091GF108991081061004501999999KA1999N+00111MD1810161+9999
0088330190999991929120218004+52117+026100FM-12+013799999V0209991C000019999999N0002001N9+00501+99999102271ADDAA199004091GF108991081051999999999999KA1999M+00611EQDQ01+000032APCTENQ02+000002APC3  
0077330190999991929120318004+52117+026100FM-12+013799999V0209991C00001000151CN0000501N9+00111+99999102501ADDGF108991081051000251999999KA1999M+00611EQDQ01+000032APCTENQ02+000002APC3  
0077330190999991929120406004+52117+026100FM-12+013799999V0201601N00101000151CN0000001N9-00111+99999102311ADDGF108991081051000251999999KA1999N-00111EQDQ01+000032APCTENQ02+000002APC3  
0067330190999991929120418004+52117+026100FM-12+013799999V0200901N001019999999N0010001N9+00281+99999102271ADDAA199000591GF108991081051999999999999KA1999M+00281MD1310041+9999
0067330190999991929120506004+52117+026100FM-12+013799999V0200901N002619999999N0000001N9+00391+99999102471ADDAA199001091GF108991081051999999999999KA1999N+00281MD1310041+9999
0075330190999991929120518004+52117+026100FM-12+013799999V0201401N006719999999N0005001N9+00501+99999102131ADDGF108991081051999999999999KA1999M+99999MD1810041+9999EQDQ01 +00282ATMX  
0056330190999991929120606004+52117+026100FM-12+013799999V0201601N006719999999N0020001N9+00391+99999101771ADDGF108991081051999999999999KA1999N+00391MD1810161+9999
0077330190999991929120618004+52117+026100FM-12+013799999V0201401N00461012301CN0020001N9+00391+99999101391ADDGF108991081051012501999999KA1999M+00501EQDQ01+000032APCTENQ02+000002APC3  
0077330190999991929120718004+52117+026100FM-12+013799999V0201601N00461220001CN0020001N9+00281+99999101351ADDGF102991001001999999999999KA1999M+00611EQDQ01+000032APCTENQ02+000002APC3  
0056330190999991929120806004+52117+026100FM-12+013799999V0201401N00101220001CN0020001N9+00111+99999101831ADDGF104991001001999999999999KA1999N+00001MD1310161+9999
0067330190999991929120818004+52117+026100FM-12+013799999V0202701N00101220001CN0000001N9+00221+99999102191ADDAA199000691GF106991001001999999999999KA1999M+00611MD1310161+9999
0077330190999991929120906004+52117+026100FM-12+013799999V0200901N00261000151CN0000001N9-00111+99999100971ADDGF108991081051000251999999KA1999N-00281EQDQ01+000032APCTENQ02+000002APC3  
0088330190999991929120918004+52117+026100FM-12+013799999V0201801N999999999999N0010001N9+00281+99999101671ADDAA199000691GF108991081051999999999999KA1999M+00281EQDQ01+000032APCTENQ02+000002APC3  
0067330190999991929121018004+52117+026100FM-12+013799999V0201401N002619999999N0020001N9+00221+99999101631ADDAA199000691GF108991081051999999999999KA1999M+00391MD1810041+9999
0067330190999991929121106004+52117+026100FM-12+013799999V0201601N002619999999N0020001N9+00111+99999101671ADDAA199000691GF108991081051999999999999KA1999N-00111MD1310161+9999
0035330190999991929121118004+52117+026100FM-12+013799999V0201601N002619999999N0000501N9+00221+99999101581EQDQ01+000032APCTENQ02+000002APC3  
0075330190999991929121306004+52117+026100FM-12+013799999V0201401N00461220001CN0020001N9+00111+99999101071ADDAA199003091GF104991021011012501999999EQDQ01+000032APCTENQ02+000002APC3  
0017330190999991929121318004+52117+026100FM-12+013799999V0201601N009319999999N0000001N9+00391+99999101421ADDMD1310101+9999
0067330190999991929121406004+52117+026100FM-12+013799999V0209991C00001007801CN0040001N9+00221+99999102541ADDAA199002091GF108991081061008001999999KA1999N+00221MD1310301+9999
0088330190999991929121518004+52117+026100FM-12+013799999V0202701N006719999999N0040001N9+00501+99999101301ADDAA199003091GF106991021011012501999999KA1999M+00781EQDQ01+000032APCTENQ02+000002APC3  
0077330190999991929121606004+52117+026100FM-12+013799999V0202701N00671012301CN0100001N9+00281+99999101181ADDGF108991081011012501999999KA1999N+00001EQDQ01+000032APCTENQ02+000002APC3  
0067330190999991929121618004+52117+026100FM-12+013799999V0202901N00461220001CN0040001N9+00001+99999101251ADDAA199000691GF102991021011012501999999KA1999M+00391MD1310041+9999
0067330190999991929121706004+52117+026100FM-12+013799999V0202901N015419999999N0100001N9+00001+99999101351ADDAA199000391GF108991081051999999999999KA1999N-00111MD1310041+9999
0056330190999991929121806004+52117+026100FM-12+013799999V0202901N00261012301CN0040001N9-00111+99999102651ADDGF108991081051012501999999KA1999N-00221MD1310241+9999
0067330190999991929121818004+52117+026100FM-12+013799999V0203401N002619999999N0040001N9-00111+99999103451ADDAA199000691GF106991021011012501999999KA1999M+00111MD1310201+9999
0056330190999991929121906004+52117+026100FM-12+013799999V0203601N00261012301CN0040001N9-00221+99999104301ADDGF108991081051012501999999KA1999N-00281MD1310161+9999
0077330190999991929121918004+52117+026100FM-12+013799999V0203601N99999000151CN0100001N9+99999+99999104061ADDGF108991081051000251999999KA1999M+00111EQDQ01+000032APCTENQ02+000002APC3  
0062330190999991929122018004+52117+026100FM-12+013799999V0203601N001019999999N0010001N9-00281+99999103541ADDGF106991041051012501999999KA1999M-00111MD1810041+9999MW1101
0088330190999991929122118004+52117+026100FM-12+013799999V0200701N00101004501CN0020001N9+00001+99999103131ADDAA199000691GF108991081061004501999999KA1999M+00001EQDQ01+000032APCTENQ02+000002APC3  
0042330190999991929122206004+52117+026100FM-12+013799999V0209999999999012301CN9999999N9+99999+99999103431ADDGF108991081051012501999999KA1999N-00611
0077330190999991929122318004+52117+026100FM-12+013799999V0200701N01231220001CN0040001N9-01001+99999103231ADDGF100991001001999999999999KA1999M-00611EQDQ01+000032APCTENQ02+000002APC3  
0056330190999991929122718004+52117+026100FM-12+013799999V0201601N00931012301CN0040001N9-00781+99999102851ADDGF108991081051012501999999KA1999M-00611MD1810041+9999
0077330190999991929122818004+52117+026100FM-12+013799999V0201101N01231012301CN0020001N9-00391+99999102381ADDGF108991081051012501999999KA1999M-00281EQDQ01+000032APCTENQ02+000002APC3  
0077330190999991929122906004+52117+026100FM-12+013799999V0201101N006719999999N0020001N9-00391+99999999999ADDGF108991081051999999999999KA1999N-00501EQDQ01+000032APCTENQ02+000002APC3  
0062330190999991929122918004+52117+026100FM-12+013799999V0201101N004619999999N0010001N9-00221+99999102211ADDGF108991081051999999999999KA1999M-00111MD1810101+9999MW1101
0067330190999991929123006004+52117+026100FM-12+013799999V0202001N00261220001CN0040001N9+00001+99999101861ADDAA199003091GF104991021011012501999999KA1999N-00221MD1310041+9999
0093330190999991929123118004+52117+026100FM-12+013799999V0202001N00101012301CN0002001N9+00001+99999101941ADDGF107991071051012501999999KA1999M+99999EQDQ01+000032APCTENQ02+000002APC3  Q03 +03722ATMX  
