0051333930999991929010106004+49817+023950FM-12+033099999V0202701N00461001501CN0020001N9+00001-00061100161ADDAY171999GF108991081051001501999999MD1310261+9999
0068333930999991929010306004+49817+023950FM-12+033099999V0200701N00461001501CN0010001N9-00391-00441102271ADDAA199000691AY171999GF108991081051001501999999MD1310061+9999MW1711
0057333930999991929010406004+49817+023950FM-12+033099999V0200501N00461000601CN0010001N9-00611-00671102741ADDAY171999GF108991081051000751999999MD1310141+9999MW1751
0072333930999991929010606004+49817+023950FM-12+033099999V0203601N01901220001CN0200001N9-04001+99999100581ADDAY141999GF104991999001000251031011EQDQ01+000082SCOTLCQ02+000512PRSWM1
0088333930999991929010706004+49817+023950FM-12+033099999V0201101N00261220001CN0020001N9-01391-01561104341ADDAY101999GF102991999001999999021001EQDQ01+000002SCOTLCQ02+000032APCTENQ03+000002APC3  
0051333930999991929010806004+49817+023950FM-12+033099999V0200201N00261220001CN0020001N9-01111-01441104901ADDAY101999GF104991001001999999021021MD1310061+9999
0070333930999991929011106004+49817+023950FM-12+033099999V0202001N00101220001CN0020001N9-02221-02831104191ADDAY111999GF102991999001999999021001MD1810061+9999EQDQ01+000002SCOTLC
0057333930999991929011806004+49817+023950FM-12+033099999V0203201N00461001501CN0005001N9-01611-01891101641ADDAY171999GF108991081051001501999999MD1310141+9999MW1711
0070333930999991929011906004+49817+023950FM-12+033099999V0202301N00931220001CN0020001N9-01001-01171101681ADDAY121999GF108991999001999999021001MD1810061+9999EQDQ01+000002SCOTLC
0057333930999991929012006004+49817+023950FM-12+033099999V0203201N00261001501CN0010001N9-00391-00441102151ADDAY171999GF108991081051001501999999MD1310261+9999MW1711
0057333930999991929012106004+49817+023950FM-12+033099999V0203201N00101001501CN0005001N9-01001-01171103631ADDAY171999GF108991081051001501999999MD1310461+9999MW1711
0078333930999991929012206004+49817+023950FM-12+033099999V0209991C00001001501CN0020001N9-01221-01281103501ADDAY121999GF108991081051001501999999MW1711EQDQ01+000032APCTENQ02+000002APC3  
0072333930999991929012306004+49817+023950FM-12+033099999V0201801N00101220001CN0040001N9-01721-02171103031ADDAY101999GF100991001001999999001001EQDQ01+000082APCTENQ02+000002APC3  
0072333930999991929012406004+49817+023950FM-12+033099999V0201401N00261002401CN0020001N9-01721-02061102431ADDAY121999GF108991081051002501999999EQDQ01+000032APCTENQ02+000002APC3  
0072333930999991929012506004+49817+023950FM-12+033099999V0201401N00461220001CN0040001N9-01391-01561999999ADDAY111999GF106991001001999999021021EQDQ01+000032APCTENQ02+000002APC3  
0057333930999991929012706004+49817+023950FM-12+033099999V0200901N01541000601CN0005001N9-00111-00171101001ADDAY121999GF108991081051000751999999MD1810141+9999MW1751
0051333930999991929013006004+49817+023950FM-12+033099999V0200501N00261001501CN0010001N9-00891-01061103631ADDAY121999GF108991081051001501999999MD1310061+9999
0070333930999991929013106004+49817+023950FM-12+033099999V0200501N00261220001CN0010001N9-01721-02171104071ADDAY101999GF106991999001999999021001MD1310061+9999EQDQ01+000002SCOTLC
0056333930999991929020106004+49817+023950FM-12+033099999V0200501N00261220001CN0010001N9-01221+99999103931ADDAY111999GF100991001001999999001001EQDQ01+000602PRSWM1
0070333930999991929020306004+49817+023950FM-12+033099999V0200201N00101220001CN0020001N9-02221-02671103391ADDAY111999GF108991999001999999021001MD1810261+9999EQDQ01+000002SCOTLC
0078333930999991929020506004+49817+023950FM-12+033099999V0202701N00461001501CN0005001N9-00891-01061101811ADDAY171999GF108991081051001501999999MW1711EQDQ01+000032APCTENQ02+000002APC3  
0051333930999991929020606004+49817+023950FM-12+033099999V0200201N00261220001CN0020001N9-02221-02281102831ADDAY111999GF104991001001999999021021MD1310201+9999
0057333930999991929020806004+49817+023950FM-12+033099999V0203201N00261001501CN0005001N9-01721-02061102741ADDAY171999GF108991081051001501999999MD1810141+9999MW1771
0072333930999991929021106004+49817+023950FM-12+033099999V0203601N00261220001CN0040001N9-02501-02941103071ADDAY101999GF101991001001999999001081EQDQ01+000032APCTENQ02+000002APC3  
0072333930999991929021906004+49817+023950FM-12+033099999V0200901N00261220001CN0040001N9-01501-01831103671ADDAY101999GF100991001001999999001001EQDQ01+000032APCTENQ02+000002APC3  
0057333930999991929022106004+49817+023950FM-12+033099999V0200501N00101001501CN0010001N9-01391-01561104031ADDAY171999GF108991081051001501999999MD1310141+9999MW1711
0078333930999991929022506004+49817+023950FM-12+033099999V0200901N00101001501CN0010001N9-00611-00671101301ADDAY171999GF108991081051001501999999MW1711EQDQ01+000082APCTENQ02+000002APC3  
0077333930999991929070118004+49817+023950FM-12+033999999V0201601N002619999999N0040001N9+02001+99999100951ADDGF106991041051012501999999KA1999M+02391EQDQ01+000032APCTENQ02+000002APC3  
0067333930999991929070218004+49817+023950FM-12+033999999V0202901N99999002401CN0040001N9+01611+99999101091ADDAA199002091GF108991081061002501999999KA1999M+02281MD1310101+9999
0017333930999991929070306004+49817+023950FM-12+033999999V0202701N002619999999N9999999N9+01391+99999101401ADDMD1310101+9999
0077333930999991929070406004+49817+023950FM-12+033999999V0201801N00461220001CN0040001N9+02221+99999101931ADDGF100991001001999999001001KA1999N+01391EQDQ01+000032APCTENQ02+000002APC3  
0077333930999991929070606004+49817+023950FM-12+033999999V0201801N00101220001CN0040001N9+02281+99999101711ADDGF101991001001999999999999KA1999N+01281EQDQ01+000032APCTENQ02+000002APC3  
0036333930999991929070718004+49817+023950FM-12+033999999V0202701N999999999999N9999999N9+01281+99999999999ADDMD1310101+9999EQDQ01+000001APOSP 
0056333930999991929070818004+49817+023950FM-12+033999999V0203201N00101012301CN0100001N9+01721+99999101341ADDGF107991071051012501999999KA1999M+02111MD1310041+9999
0035333930999991929070918004+49817+023950FM-12+033999999V0203401N001019999999N9999999N9+01221+99999101801EQDQ01+000032APCTENQ02+000002APC3  
0035333930999991929071006004+49817+023950FM-12+033999999V0203201N006719999999N9999999N9+01111+99999102201EQDQ01+000032APCTENQ02+000002APC3  
0000333930999991929071018004+49817+023950FM-12+033999999V02099999002619999999N9999999N9+01391+99999102201
0056333930999991929071106004+49817+023950FM-12+033999999V0203401N006719999999N0040001N9+01501+99999102151ADDGF106991041051004501999999KA1999N+01221MD1810041+9999
0067333930999991929071118004+49817+023950FM-12+033999999V0203401N00261002401CN0010001N9+01391+99999101791ADDAA199002091GF108991081061002501999999KA1999M+01781MD1810101+9999
0067333930999991929071206004+49817+023950FM-12+033999999V0203601N00261000601CN0005001N9+01391+99999101211ADDAA199013091GF108991081051000751999999KA1999N+01281MD1810041+9999
0067333930999991929071218004+49817+023950FM-12+033999999V0203201N00101004501CN0040001N9+01611+99999101011ADDAA199002091GF108991081051004501999999KA1999M+01721MD1810041+9999
0035333930999991929071306004+49817+023950FM-12+033999999V0200701N002619999999N9999999N9+01501+99999100901EQDQ01+000032APCTENQ02+000002APC3  
0017333930999991929071406004+49817+023950FM-12+033999999V0202901N009319999999N9999999N9+01281+99999101101ADDMD1310101+9999
0088333930999991929071418004+49817+023950FM-12+033999999V0202901N00461002401CN0040001N9+01391+99999101311ADDAA199000691GF108991061051002501999999KA1999M+01781EQDQ01+000032APCTENQ02+000002APC3  
0077333930999991929071506004+49817+023950FM-12+033999999V0203201N01231220001CN0040001N9+01281+99999101301ADDGF106991001001999999999999KA1999N+01001EQDQ01+000032APCTENQ02+000002APC3  
0056333930999991929071606004+49817+023950FM-12+033999999V0203201N00671220001CN0040001N9+01501+99999101671ADDGF102991011051017501999999KA1999N+01001MD1310101+9999
0056333930999991929071706004+49817+023950FM-12+033999999V0202301N00461220001CN0100001N9+01721+99999101651ADDGF100991001001999999001001KA1999N+00891MD1810101+9999
0017333930999991929071806004+49817+023950FM-12+033999999V0203401N004619999999N9999999N9+01891+99999101601ADDMD1310101+9999
0077333930999991929071906004+49817+023950FM-12+033999999V0202701N00101220001CN0040001N9+01501+99999102131ADDGF102991011011017501999999KA1999N+00721EQDQ01+000032APCTENQ02+000002APC3  
0077333930999991929072006004+49817+023950FM-12+033999999V0202501N00261220001CN9999999N9+99999+99999101331ADDGF102991011011022501999999KA1999N+00781EQDQ01+000032APCTENQ02+000002APC3  
0056333930999991929072106004+49817+023950FM-12+033999999V0209991C00001220001CN0040001N9+02111+99999102091ADDGF101991001001999999999999KA1999N+01221MD1310041+9999
0077333930999991929072206004+49817+023950FM-12+033999999V0201401N00101220001CN0040001N9+02221+99999102131ADDGF102991021011012501999999KA1999N+01221EQDQ01+000032APCTENQ02+000002APC3  
0017333930999991929072418004+49817+023950FM-12+033999999V0201401N001019999999N9999999N9+02611+99999101101ADDMD1810101+9999
0077333930999991929072506004+49817+023950FM-12+033999999V0202301N00261220001CN0040001N9+02611+99999100971ADDGF102991001001999999999999KA1999N+02001EQDQ01+000032APCTENQ02+000002APC3  
0017333930999991929072518004+49817+023950FM-12+033999999V0202701N015419999999N9999999N9+01611+99999101201ADDMD1310101+9999
0043333930999991929072618004+49817+023950FM-12+033999999V0203401N00261002401CN0020001N9+99999+99999101351ADDGF108991081051002501999999MD1310041+9999
0067333930999991929072806004+49817+023950FM-12+033999999V0202901N00101004501CN0020001N9+01281+99999101781ADDAA199000591GF108991081051004501999999KA1999N+01111MD1310041+9999
0077333930999991929072818004+49817+023950FM-12+033999999V0203201N001019999999N0040001N9+01501+99999999999ADDGF106991041051022501999999KA1999M+01781EQDQ01+000032APCTENQ02+000002APC3  
0077333930999991929072906004+49817+023950FM-12+033999999V0203201N00101220001CN0040001N9+01111+99999101431ADDGF102991001001999999999999KA1999N+00721EQDQ01+000032APCTENQ02+000002APC3  
0017333930999991929072918004+49817+023950FM-12+033999999V0209991C000019999999N9999999N9+99999+99999101161ADDMD1810101+9999
0035333930999991929073006004+49817+023950FM-12+033999999V0202001N002619999999N9999999N9+01611+99999101101EQDQ01+000032APCTENQ02+000002APC3  
0056333930999991929073018004+49817+023950FM-12+033999999V0201601N002619999999N0040001N9+01611+99999100951ADDGF108991081051999999999999KA1999M+01891MD1810101+9999
0088333930999991929073106004+49817+023950FM-12+033999999V0202301N00261220001CN0020001N9+01721+99999101101ADDAA199001091GF107991001001999999999999KA1999N+01221EQDQ01+000032APCTENQ02+000002APC3  
0088333930999991929080106004+49817+023950FM-12+033999999V0209991C00001002401CN0020001N9+01611+99999101091ADDAA199013091GF108991081061002501999999KA1999N+00281EQDQ01+000032APCTENQ02+000002APC3  
0077333930999991929080206004+49817+023950FM-12+033999999V0201801N00671220001CN0040001N9+02611+99999100831ADDGF100991001001999999001001KA1999N+01611EQDQ01+000032APCTENQ02+000002APC3  
0067333930999991929080318004+49817+023950FM-12+033999999V0203401N00461002401CN0020001N9+01721+99999101901ADDAA199007091GF108991081061002501999999KA1999M+02001MD1310161+9999
0075333930999991929080406004+49817+023950FM-12+033999999V0200701N00461002401CN0020001N9+01391+99999101831ADDAA199007091AY161999GF108991081061002501999999KA1999N+01391MD1810041+9999
0094333930999991929080506004+49817+023950FM-12+033999999V0201801N00101220001CN0010001N9+01781+99999101251ADDAA199000391GF100991001001999999001001KA1999N+01501MW1101EQDQ01+000032APCTENQ02+000002APC3  
0067333930999991929080606004+49817+023950FM-12+033999999V0201101N00261002401CN0040001N9+01891+99999101021ADDAA199001091GF108991061061002501999999KA1999N+01721MD1310101+9999
0088333930999991929080618004+49817+023950FM-12+033999999V0203201N00101002401CN0020001N9+01891+99999101171ADDAA199000691GF108991081051002501999999KA1999M+02221EQDQ01+000032APCTENQ02+000002APC3  
0077333930999991929080706004+49817+023950FM-12+033999999V0203601N00101002401CN0000501N9+01721+99999100971ADDGF108991081061002501999999KA1999N+01611EQDQ01+000032APCTENQ02+000002APC3  
0035333930999991929080718004+49817+023950FM-12+033999999V0203201N001019999999N9999999N9+02891+99999100991EQDQ01+000032APCTENQ02+000002APC3  
0077333930999991929080906004+49817+023950FM-12+033999999V0209991C00001004501CN0040001N9+02111+99999101211ADDGF107991071051004501999999KA1999N+01501EQDQ01+000032APCTENQ02+000002APC3  
0017333930999991929080918004+49817+023950FM-12+033999999V0209991C000019999999N9999999N9+02281+99999101301ADDMD1310101+9999
0077333930999991929081006004+49817+023950FM-12+033999999V0200901N00101220001CN0100001N9+02501+99999101421ADDGF100991001001999999001001KA1999N+01721EQDQ01+000032APCTENQ02+000002APC3  
0077333930999991929081018004+49817+023950FM-12+033999999V0201101N99999220001CN0040001N9+02221+99999101291ADDGF104991001001999999999999KA1999M+02501EQDQ01+000032APCTENQ02+000002APC3  
0017333930999991929081106004+49817+023950FM-12+033999999V0203201N001019999999N9999999N9+01611+99999102101ADDMD1310101+9999
0067333930999991929081118004+49817+023950FM-12+033999999V0200201N00101002401CN0020001N9+01781+99999102101ADDAA199002091GF108991081061002501999999KA1999M+02501MD1310041+9999
0077333930999991929081218004+49817+023950FM-12+033999999V0209991C00001220001CN0040001N9+02221+99999101941ADDGF108991001001999999999999KA1999M+02501EQDQ01+000032APCTENQ02+000002APC3  
0035333930999991929081306004+49817+023950FM-12+033999999V0202701N004619999999N9999999N9+01891+99999101901EQDQ01+000032APCTENQ02+000002APC3  
0056333930999991929081318004+49817+023950FM-12+033999999V0203201N00461015001CN0040001N9+01781+99999102131ADDGF108991081051017501999999KA1999M+02611MD1310161+9999
0088333930999991929081418004+49817+023950FM-12+033999999V0200501N00101004501CN0020001N9+01501+99999102351ADDAA199000591GF108991061061004501999999KA1999M+01721EQDQ01+000032APCTENQ02+000002APC3  
0017333930999991929081506004+49817+023950FM-12+033999999V0201601N006719999999N9999999N9+01781+99999101901ADDMD1810101+9999
0077333930999991929081518004+49817+023950FM-12+033999999V0200501N00101220001CN0040001N9+01891+99999101841ADDGF104991041051012501999999KA1999M+02221EQDQ01+000032APCTENQ02+000002APC3  
0064333930999991929081606004+49817+023950FM-12+033999999V0209991C00001220001CN0040001N9+02111+99999101821ADDGF100991001001999999001001EQDQ01+000032APCTENQ02+000002APC3  
0077333930999991929081706004+49817+023950FM-12+033999999V0201401N00101220001CN0040001N9+02221+99999101831ADDGF101991001001999999999999KA1999N+01391EQDQ01+000032APCTENQ02+000002APC3  
0077333930999991929081718004+49817+023950FM-12+033999999V0209999999999220001CN0040001N9+02001+99999101831ADDGF100991001001999999001001KA1999M+02721EQDQ01+000032APCTENQ02+000002APC3  
0077333930999991929081806004+49817+023950FM-12+033999999V0200901N00101220001CN0040001N9+02281+99999101971ADDGF100991001001999999001001KA1999N+01391EQDQ01+000032APCTENQ02+000002APC3  
0017333930999991929081906004+49817+023950FM-12+033999999V0201401N001019999999N9999999N9+02111+99999101401ADDMD1810101+9999
0067333930999991929082006004+49817+023950FM-12+033999999V0203401N00261002401CN0020001N9+01611+99999101621ADDAA199000591GF108991081051002501999999KA1999N+01501MD1310041+9999
0056333930999991929082018004+49817+023950FM-12+033999999V0200501N00101002401CN9999999N9+01781+99999101551ADDGF108991081061002501999999KA1999M+02001MD1810041+9999
0067333930999991929082106004+49817+023950FM-12+033999999V0209991C00001002401CN0020001N9+01781+99999101421ADDAA199007091GF108991081051002501999999KA1999N+01501MD1310041+9999
0056333930999991929082206004+49817+023950FM-12+033999999V0203401N00101004501CN0040001N9+01391+99999101811ADDGF108991081061004501999999KA1999N+01281MD1310041+9999
0075333930999991929082318004+49817+023950FM-12+033999999V0200201N00261001501CN0010001N9+01391+99999101971ADDAA199000591AY161999GF108991081051001501999999KA1999M+01391MD1310041+9999
0077333930999991929082418004+49817+023950FM-12+033999999V0209991C00001220001CN0020001N9+01721+99999102071ADDGF101991001001999999999999KA1999M+02001EQDQ01+000032APCTENQ02+000002APC3  
0077333930999991929082506004+49817+023950FM-12+033999999V0201601N00671220001CN0040001N9+02001+99999102021ADDGF102991021051012501999999KA1999N+01111EQDQ01+000032APCTENQ02+000002APC3  
0075333930999991929082606004+49817+023950FM-12+033999999V0200701N001019999999N0040001N9+01891+99999101571ADDAA199008091AY161999GF106991021051012501999999KA1999N+01501MD1310101+9999
0017333930999991929082618004+49817+023950FM-12+033999999V0203601N001019999999N9999999N9+01891+99999101901ADDMD1310101+9999
0056333930999991929082706004+49817+023950FM-12+033999999V0200501N00461220001CN0040001N9+01391+99999102491ADDGF101991001001999999999999KA1999N+01001MD1310161+9999
0077333930999991929082818004+49817+023950FM-12+033999999V0209991C00001220001CN0040001N9+02111+99999101981ADDGF100991001001999999001001KA1999M+02611EQDQ01+000032APCTENQ02+000002APC3  
0077333930999991929082906004+49817+023950FM-12+033999999V0201601N00101220001CN0040001N9+02111+99999102031ADDGF100991001001999999001001KA1999N+01391EQDQ01+000032APCTENQ02+000002APC3  
0077333930999991929082918004+49817+023950FM-12+033999999V0209991C00001220001CN0040001N9+02221+99999101931ADDGF102991001001999999999999KA1999M+02781EQDQ01+000032APCTENQ02+000002APC3  
0077333930999991929083006004+49817+023950FM-12+033999999V0202001N00101220001CN0020001N9+02111+99999101951ADDGF100991001001999999001001KA1999N+01611EQDQ01+000032APCTENQ02+000002APC3  
0056333930999991929083106004+49817+023950FM-12+033999999V0203401N00101220001CN0040001N9+01891+99999102011ADDGF106991001001999999999999KA1999N+01501MD1310041+9999
0051333930999991929090106004+49817+023950FM-12+033999999V0200701N001019999999N0010001N9+02221+99999101851ADDKA1999N+01501EQDQ01+000032APCTENQ02+000002APC3  
0077333930999991929090118004+49817+023950FM-12+033999999V0209991C00001220001CN0020001N9+02111+99999101821ADDGF100991001001999999001001KA1999M+02721EQDQ01+000032APCTENQ02+000002APC3  
0035333930999991929090606004+49817+023950FM-12+033999999V0202001N001019999999N9999999N9+02001+99999101401EQDQ01+000032APCTENQ02+000002APC3  
0088333930999991929090718004+49817+023950FM-12+033999999V0202701N00461220001CN0040001N9+00721+99999101401ADDAA199004091GF104991041051004501999999KA1999M+01611EQDQ01+000032APCTENQ02+000002APC3  
0035333930999991929090806004+49817+023950FM-12+033999999V0203201N012319999999N9999999N9+01111+99999101401EQDQ01+000032APCTENQ02+000002APC3  
0088333930999991929090818004+49817+023950FM-12+033999999V0202701N009319999999N0020001N9+01001+99999101541ADDAA199012091GF106991041051012501999999KA1999M+01281EQDQ01+000032APCTENQ02+000002APC3  
0067333930999991929090906004+49817+023950FM-12+033999999V0202301N00461004501CN0040001N9+01111+99999101381ADDAA199000691GF108991081061004501999999KA1999N+00891MD1810041+9999
0096333930999991929091006004+49817+023950FM-12+033999999V0209999900461004501CN0040001N9+01391+99999100731ADDAA199009091AY161999GF108991081051004501999999KA1999N+01281EQDQ01+000032APCTENQ02+000002APC3  
0067333930999991929091018004+49817+023950FM-12+033999999V0203201N99999000601CN0040001N9+01221+99999101571ADDAA199007091GF108991081051000751999999KA1999M+01891MD1310201+9999
0077333930999991929091218004+49817+023950FM-12+033999999V0209991C00001220001CN0040001N9+01281+99999102821ADDGF106991001001999999999999KA1999M+01721EQDQ01+000032APCTENQ02+000002APC3  
0036333930999991929091306004+49817+023950FM-12+033999999V0201401N001019999999N9999999N9+02391+99999999999ADDMD1810101+9999EQDQ01 100273APOSLP
0056333930999991929091318004+49817+023950FM-12+033999999V0209991C00001220001CN0040001N9+01111+99999102371ADDGF100991001001999999001001KA1999M+01781MD1810041+9999
0056333930999991929091406004+49817+023950FM-12+033999999V0200901N00261000601CN0040001N9+01221+99999102061ADDGF108991081051000751999999KA1999N+00501MD1810041+9999
0056333930999991929091418004+49817+023950FM-12+033999999V0203201N00101220001CN0200001N9+01281+99999101971ADDGF107991001001999999999999KA1999M+01891MD1310041+9999
0056333930999991929091506004+49817+023950FM-12+033999999V0200501N00101220001CN9999999N9+01221+99999102091ADDGF106991001001999999999999KA1999N+00501MD1310041+9999
0077333930999991929091606004+49817+023950FM-12+033999999V0200701N00101220001CN0040001N9+01001+99999102701ADDGF104991001001999999999999KA1999N+00281EQDQ01+000032APCTENQ02+000002APC3  
0077333930999991929091618004+49817+023950FM-12+033999999V0209991C00001000601CN0040001N9+00781+99999102831ADDGF108991081051000751999999KA1999M+01501EQDQ01+000032APCTENQ02+000002APC3  
0000333930999991929091706004+49817+023950FM-12+033999999V0200501N001019999999N9999999N9+99999+99999102631
0077333930999991929091718004+49817+023950FM-12+033999999V0209991C00001000601CN0040001N9+00891+99999102461ADDGF108991081051000751999999KA1999M+01721EQDQ01+000032APCTENQ02+000002APC3  
0077333930999991929091806004+49817+023950FM-12+033999999V0201101N00261220001CN0040001N9+01281+99999102191ADDGF108991001001999999999999KA1999N+00501EQDQ01+000032APCTENQ02+000002APC3  
0093333930999991929091818004+49817+023950FM-12+033999999V0209991C00001220001CN0040001N9+02001+99999102031ADDGF102991001001999999999999KA1999M+99999EQDQ01+000032APCTENQ02+000002APC3  Q03 +01892ATMX  
0017333930999991929091906004+49817+023950FM-12+033999999V02099999002619999999N9999999N9+01391+99999102201ADDMD1810101+9999
0017333930999991929091918004+49817+023950FM-12+033999999V0201601N001019999999N9999999N9+01721+99999101501ADDMD1810101+9999
0056333930999991929092018004+49817+023950FM-12+033999999V0202001N00261007801CN0040001N9+01281+99999101021ADDGF107991071051008001999999KA1999M+02001MD1810161+9999
0067333930999991929092106004+49817+023950FM-12+033999999V0201801N00671002401CN0040001N9+01611+99999100351ADDAA199000691GF108991061061002501999999KA1999N+00781MD1810101+9999
0067333930999991929092118004+49817+023950FM-12+033999999V0203401N00461002401CN0010001N9+00781+99999100771ADDAA199009091GF108991081061002501999999KA1999M+01721MD1310161+9999
0086333930999991929092206004+49817+023950FM-12+033999999V0202301N004619999999N0040001N9+00781+99999100731ADDAA199005091GF106991041051008001999999KA1999N+99999MD1810041+9999EQDQ01 +01392ATMN  
0075333930999991929092218004+49817+023950FM-12+033999999V0202301N00671002401CN0020001N9+00891+99999100731ADDAA199002091AY161999GF107991071031002501999999KA1999M+01281MD1310041+9999
0046333930999991929092306004+49817+023950FM-12+033999999V02099999012319999999N9999999N9+00611+99999100601ADDAA199009091KA1999N+99999EQDQ01 +01392ATMN  
0054333930999991929092318004+49817+023950FM-12+033999999V0202701N01231002401CN0020001N9+00721+99999101011ADDAA199013091GF108991081061002501999999MD1810041+9999
0055333930999991929092406004+49817+023950FM-12+033999999V0203401N002619999999N9999999N9+00781+99999101501ADDAA199001091MW1101EQDQ01+000032APCTENQ02+000002APC3  
0067333930999991929092418004+49817+023950FM-12+033999999V0200501N00461220001CN0040001N9+00781+99999101951ADDAA199000591GF104991041051004501999999KA1999M+01001MD1310201+9999
0056333930999991929092506004+49817+023950FM-12+033999999V0200201N00261002401CN0020001N9+00611+99999102741ADDGF108991081051002501999999KA1999N+00501MD1310101+9999
0056333930999991929092518004+49817+023950FM-12+033999999V0203601N00261220001CN0040001N9+00891+99999102931ADDGF104991021051008001999999KA1999M+01281MD1310101+9999
0088333930999991929092606004+49817+023950FM-12+033999999V0203601N00261007801CN0040001N9+00781+99999103011ADDAA199000391GF108991081051008001999999KA1999N+00721EQDQ01+000032APCTENQ02+000002APC3  
0056333930999991929092618004+49817+023950FM-12+033999999V0200201N00101220001CN0040001N9+00891+99999102991ADDGF104991041051012501999999KA1999M+01281MD1310041+9999
0056333930999991929092718004+49817+023950FM-12+033999999V0209991C00001220001CN0040001N9+00611+99999102741ADDGF102991021051999999999999KA1999M+01281MD1310101+9999
0077333930999991929092818004+49817+023950FM-12+033999999V0209991C00001220001CN0040001N9+00721+99999103021ADDGF100991001001999999001001KA1999M+01391EQDQ01+000032APCTENQ02+000002APC3  
0077333930999991929092918004+49817+023950FM-12+033999999V0201801N00101220001CN0040001N9+00781+99999102831ADDGF100991001001999999001001KA1999M+01611EQDQ01+000032APCTENQ02+000002APC3  
0056333930999991929093006004+49817+023950FM-12+033999999V0201601N00101220001CN0040001N9+00781+99999102751ADDGF100991001001999999001001KA1999N+00111MD1810041+9999
0056333930999991929093018004+49817+023950FM-12+033999999V0209991C00001220001CN0040001N9+00891+99999102411ADDGF100991001001999999001001KA1999M+01721MD1810041+9999
0056333930999991929100106004+49817+023950FM-12+033999999V0201801N00101220001CN0040001N9+00891+99999102031ADDGF100991001001999999001001KA1999N+00221MD1810041+9999
0056333930999991929100118004+49817+023950FM-12+033999999V0202001N00261220001CN0040001N9+01001+99999101631ADDGF102991001001999999999999KA1999M+01781MD1810041+9999
0088333930999991929100206004+49817+023950FM-12+033999999V0202301N00101007801CN0040001N9+01111+99999101581ADDAA199000591GF107991071061008001999999KA1999N+00781EQDQ01+000032APCTENQ02+000002APC3  
0056333930999991929100318004+49817+023950FM-12+033999999V0202301N00671220001CN0040001N9+01391+99999101561ADDGF100991001001999999001001KA1999M+02111MD1310041+9999
0056333930999991929100406004+49817+023950FM-12+033999999V0202301N00931220001CN0040001N9+01891+99999101791ADDGF108991001001999999999999KA1999N+01221MD1310101+9999
0056333930999991929100418004+49817+023950FM-12+033999999V0202301N00101220001CN0040001N9+01501+99999101951ADDGF100991001001999999001001KA1999M+02391MD1310041+9999
0077333930999991929100506004+49817+023950FM-12+033999999V0201601N00261220001CN0040001N9+01781+99999101771ADDGF100991001001999999001001KA1999N+01001EQDQ01+000032APCTENQ02+000002APC3  
0035333930999991929100518004+49817+023950FM-12+033999999V02099999002619999999N9999999N9+01501+99999101301EQDQ01+000032APCTENQ02+000002APC3  
0017333930999991929100606004+49817+023950FM-12+033999999V0201601N002619999999N9999999N9+01611+99999101601ADDMD1810101+9999
0077333930999991929100706004+49817+023950FM-12+033999999V0201601N00261220001CN0040001N9+01781+99999101711ADDGF101991001001999999999999KA1999N+00891EQDQ01+000032APCTENQ02+000002APC3  
0056333930999991929100718004+49817+023950FM-12+033999999V0209991C00001220001CN0040001N9+01721+99999101821ADDGF100991001001999999001001KA1999M+02781MD1310041+9999
0035333930999991929100806004+49817+023950FM-12+033999999V0209991C000019999999N9999999N9+01611+99999101901EQDQ01+000032APCTENQ02+000002APC3  
0077333930999991929100818004+49817+023950FM-12+033999999V0201601N00101220001CN0040001N9+01611+99999101581ADDGF100991001001999999001001KA1999M+02501EQDQ01+000032APCTENQ02+000002APC3  
0088333930999991929100906004+49817+023950FM-12+033999999V0201401N00461004501CN0040001N9+01391+99999101291ADDAA199000691GF108991081061004501999999KA1999N+01111EQDQ01+000032APCTENQ02+000002APC3  
0067333930999991929100918004+49817+023950FM-12+033999999V0201401N004619999999N0040001N9+01611+99999100871ADDAA199001091GF108991041051008001999999KA1999M+01891MD1810101+9999
0086333930999991929101006004+49817+023950FM-12+033999999V0203201N00671002401CN0010001N9+00781+99999101421ADDAA199009091GF108991081061002501999999KA1999N+99999MD1310201+9999EQDQ01 +00892ATMN  
0088333930999991929101018004+49817+023950FM-12+033999999V0202501N00461004501CN0010001N9+00721+99999101661ADDAA199002091GF108991081061004501999999KA1999M+01721EQDQ01+000032APCTENQ02+000002APC3  
0067333930999991929101106004+49817+023950FM-12+033999999V0203201N00261001501CN0020001N9+00721+99999102061ADDAA199002091GF108991081061001501999999KA1999N+00721MD1310041+9999
0056333930999991929101118004+49817+023950FM-12+033999999V0202001N00101220001CN0040001N9+00611+99999101711ADDGF100991001001999999001001KA1999M+01111MD1810041+9999
0067333930999991929101206004+49817+023950FM-12+033999999V0203201N00261004501CN0200001N9+00721+99999101101ADDAA199001091GF108991081061004501999999KA1999N+00391MD1310041+9999
0017333930999991929101218004+49817+023950FM-12+033999999V0209991C000019999999N9999999N9+00391+99999101501ADDMD1310101+9999
0017333930999991929101306004+49817+023950FM-12+033999999V0203201N002619999999N0020001N9+00721+99999102111ADDMD1310041+9999
0067333930999991929101318004+49817+023950FM-12+033999999V0202501N00261220001CN0040001N9+00611+99999102541ADDAA199000691GF100991001001999999001001KA1999M+01221MD1310161+9999
0056333930999991929101406004+49817+023950FM-12+033999999V0203401N00101004501CN0020001N9+00891+99999102821ADDGF108991081051004501999999KA1999N+00721MD1310101+9999
0056333930999991929101418004+49817+023950FM-12+033999999V0209991C00001007801CN0040001N9+00891+99999102891ADDGF106991061051008001999999KA1999M+01221MD1310041+9999
0056333930999991929101506004+49817+023950FM-12+033999999V0201801N00101007801CN0010001N9+00501+99999102541ADDGF108991081051008001999999KA1999N+00111MD1810041+9999
0056333930999991929101606004+49817+023950FM-12+033999999V0203201N00261220001CN0040001N9+00611+99999102391ADDGF106991001001999999999999KA1999N+00281MD1310041+9999
0077333930999991929101618004+49817+023950FM-12+033999999V0209991C00001220001CN0040001N9+00391+99999102341ADDGF104991001001999999999999KA1999M+01001EQDQ01+000032APCTENQ02+000002APC3  
0017333930999991929101706004+49817+023950FM-12+033999999V0201401N001019999999N9999999N9+00391+99999101811ADDMD1810101+9999
0056333930999991929101718004+49817+023950FM-12+033999999V0202001N00261004501CN0040001N9+01001+99999101591ADDGF107991071051004501999999KA1999M+01391MD1310041+9999
0073333930999991929101806004+49817+023950FM-12+033999999V0202301N00461220001CN0010001N9+00891+99999101861ADDAA199000691GF108991001001999999999999KA1999N+00781MD1310101+9999MW1101
0017333930999991929101906004+49817+023950FM-12+033999999V0201401N002619999999N9999999N9+00891+99999101201ADDMD1810101+9999
0077333930999991929101918004+49817+023950FM-12+033999999V0201801N00261220001CN0040001N9+01111+99999100931ADDGF108991001001999999999999KA1999M+01721EQDQ01+000032APCTENQ02+000002APC3  
0056333930999991929102006004+49817+023950FM-12+033999999V0201601N004619999999N0040001N9+01391+99999100691ADDGF107991041061008001999999KA1999N+00891MD1810101+9999
0036333930999991929102018004+49817+023950FM-12+033999999V0201401N006719999999N9999999N9+01501+99999999999ADDMD1810241+9999EQDQ01 098503APOSLP
0056333930999991929102106004+49817+023950FM-12+033999999V0201801N00461220001CN0100001N9+01001+99999101021ADDGF104991021051012501999999KA1999N+00781MD1310041+9999
0075333930999991929102118004+49817+023950FM-12+033999999V0200501N002619999999N0040001N9+01001+99999101301ADDAA199001091AY161999GF108991041061004501999999KA1999M+01721MD1310101+9999
0056333930999991929102218004+49817+023950FM-12+033999999V0201101N00261007801CN0040001N9+01001+99999101131ADDGF108991081051008001999999KA1999M+01281MD1810041+9999
0083333930999991929102306004+49817+023950FM-12+033999999V0201801N00101007801CN0010001N9+00891+99999101011ADDGF108991081051008001999999KA1999N+00721MW1101EQDQ01+000032APCTENQ02+000002APC3  
0077333930999991929102318004+49817+023950FM-12+033999999V0209991C00001220001CN0040001N9+01001+99999100971ADDGF104991001001999999999999KA1999M+01611EQDQ01+000032APCTENQ02+000002APC3  
0056333930999991929102406004+49817+023950FM-12+033999999V0200901N00101001501CN0005001N9+01221+99999101091ADDGF108991081051001501999999KA1999N+00501MD1310041+9999
0077333930999991929102418004+49817+023950FM-12+033999999V0200901N00101220001CN0040001N9+01111+99999100991ADDGF100991001001999999001001KA1999M+01721EQDQ01+000032APCTENQ02+000002APC3  
0064333930999991929102506004+49817+023950FM-12+033999999V0201401N00461004501CN0040001N9+01111+99999100851ADDGF108991081061004501999999EQDQ01+000032APCTENQ02+000002APC3  
0077333930999991929102518004+49817+023950FM-12+033999999V0209991C00001220001CN0040001N9+00781+99999100731ADDGF100991001001999999001001KA1999M+01391EQDQ01+000032APCTENQ02+000002APC3  
0056333930999991929102606004+49817+023950FM-12+033999999V0201401N002619999999N0040001N9+00781+99999100251ADDGF107991041061004501999999KA1999N+00721MD1810041+9999
0067333930999991929102618004+49817+023950FM-12+033999999V0201401N00261007801CN0040001N9+01111+99999099931ADDAA199001091GF106991061051008001999999KA1999M+01281MD1810041+9999
0067333930999991929102706004+49817+023950FM-12+033999999V0203401N00261004501CN0040001N9+00781+99999100291ADDAA199000691GF108991081061004501999999KA1999N+00781MD1310161+9999
0075333930999991929102718004+49817+023950FM-12+033999999V0209991C00001002401CN0040001N9+00781+99999099981ADDAA199013091AY161999GF106991061061002501999999KA1999M+01001MD1810041+9999
0067333930999991929102818004+49817+023950FM-12+033999999V0209991C00001220001CN0040001N9+00281+99999101551ADDAA199001091GF100991001001999999001001KA1999M+00781MD1310201+9999
0017333930999991929102906004+49817+023950FM-12+033999999V0200901N001019999999N9999999N9+00501+99999101601ADDMD1810101+9999
0017333930999991929102918004+49817+023950FM-12+033999999V0201401N004619999999N9999999N9+00721+99999101001ADDMD1810101+9999
0056333930999991929103006004+49817+023950FM-12+033999999V0201801N00261007801CN0040001N9+00891+99999100911ADDGF108991081061008001999999KA1999N+00611MD1810041+9999
0088333930999991929103018004+49817+023950FM-12+033999999V0200501N00261004501CN0040001N9+01001+99999100971ADDAA199000691GF108991081061004501999999KA1999M+01221EQDQ01+000032APCTENQ02+000002APC3  
0088333930999991929103106004+49817+023950FM-12+033999999V0209991C00001000601CN0000001N9+00781+99999101091ADDAA199006091GF108991081051000751999999KA1999N+00721EQDQ01+000032APCTENQ02+000002APC3  
0067333930999991929103118004+49817+023950FM-12+033999999V0209991C000019999999N9999999N9+01001+99999101251ADDAA199000391GF108991081051999999999999KA1999M+01111MD1310041+9999
0067333930999991929110106004+49817+023950FM-12+033999999V0209991C00001000601CN0000001N9+00891+99999101751ADDAA199001091GF108991081051000751999999KA1999N+00891MD1310101+9999
0077333930999991929110206004+49817+023950FM-12+033999999V0209991C00001001501CN0000001N9+00891+99999102171ADDGF108991081051001501999999KA1999N+00611EQDQ01+000032APCTENQ02+000002APC3  
0056333930999991929110218004+49817+023950FM-12+033999999V0201401N00101220001CN0040001N9+00781+99999102101ADDGF100991001001999999001001KA1999M+01111MD1310041+9999
0043333930999991929110306004+49817+023950FM-12+033999999V0202901N00261004501CN0040001N9+00611+99999102691ADDGF108991061061004501999999MD1310161+9999
0017333930999991929110318004+49817+023950FM-12+033999999V0201401N002619999999N9999999N9+00891+99999102201ADDMD1810101+9999
0049333930999991929110406004+49817+023950FM-12+033999999V0201801N004619999999N9999999N9+01111+99999101701ADDAA199000591EQDQ01+000032APCTENQ02+000002APC3  
0067333930999991929110418004+49817+023950FM-12+033999999V0203401N00671002401CN0040001N9+00611+99999102631ADDAA199000691GF108991081061002501999999KA1999M+01221MD1310201+9999
0077333930999991929110506004+49817+023950FM-12+033999999V0202901N00461002401CN0010001N9+00281+99999102951ADDGF108991081061002501999999KA1999N+00221EQDQ01+000032APCTENQ02+000002APC3  
0077333930999991929110518004+49817+023950FM-12+033999999V0209991C00001220001CN0040001N9+00281+99999102781ADDGF100991001001999999001001KA1999M+00721EQDQ01+000032APCTENQ02+000002APC3  
0056333930999991929110606004+49817+023950FM-12+033999999V0201401N00261220001CN0100001N9+00221+99999102431ADDGF102991001001999999999999KA1999N-00111MD1810041+9999
0017333930999991929110618004+49817+023950FM-12+033999999V0201401N004619999999N9999999N9+00281+99999102021ADDMD1810041+9999
0056333930999991929110718004+49817+023950FM-12+033999999V0201401N00261220001CN0040001N9+00501+99999101821ADDGF102991001001999999999999KA1999M+00721MD1310101+9999
0035333930999991929110806004+49817+023950FM-12+033999999V0201401N001019999999N9999999N9+00721+99999101901EQDQ01+000032APCTENQ02+000002APC3  
0088333930999991929110818004+49817+023950FM-12+033999999V0209991C00001007801CN9999999N9+00721+99999101761ADDAA199000691GF108991061999008001999999KA1999M+00781EQDQ01+000032APCTENQ02+000002APC3  
0035333930999991929110906004+49817+023950FM-12+033999999V0201401N002619999999N9999999N9+00611+99999101701EQDQ01+000032APCTENQ02+000002APC3  
0035333930999991929110918004+49817+023950FM-12+033999999V0202001N001019999999N9999999N9+00611+99999101801EQDQ01+000032APCTENQ02+000002APC3  
0056333930999991929111006004+49817+023950FM-12+033999999V0202301N00261002401CN0040001N9+00721+99999102421ADDGF108991081051002501999999KA1999N+00391MD1310161+9999
0077333930999991929111018004+49817+023950FM-12+033999999V0209991C00001220001CN0040001N9+00611+99999102571ADDGF104991041051008001999999KA1999M+00781EQDQ01+000032APCTENQ02+000002APC3  
0077333930999991929111106004+49817+023950FM-12+033999999V0201101N00261004501CN0040001N9+00611+99999102261ADDGF108991061051004501999999KA1999N+00391EQDQ01+000032APCTENQ02+000002APC3  
0056333930999991929111206004+49817+023950FM-12+033999999V0201401N00101002401CN0020001N9+00721+99999101621ADDGF108991081061002501999999KA1999N+00611MD1810041+9999
0056333930999991929111218004+49817+023950FM-12+033999999V0201401N00461002401CN0040001N9+00721+99999101071ADDGF108991081051002501999999KA1999M+00891MD1810201+9999
0067333930999991929111318004+49817+023950FM-12+033999999V0201401N00671220001CN0200001N9+00781+99999100811ADDAA199000391GF102991001001999999999999KA1999M+01111MD1310101+9999
0056333930999991929111418004+49817+023950FM-12+033999999V0201401N019019999999N0040001N9+00891+99999100071ADDGF107991041051002501999999KA1999M+01111MD1810101+9999
0088333930999991929111506004+49817+023950FM-12+033999999V0201401N00461001501CN0020001N9+00721+99999099941ADDAA199004091GF108991081051001501999999KA1999N+00611EQDQ01+000032APCTENQ02+000002APC3  
0067333930999991929111518004+49817+023950FM-12+033999999V0202701N00261002401CN0040001N9+00501+99999100331ADDAA199009091GF199999061051002501999999KA1999M+00891MD1310161+9999
0088333930999991929111606004+49817+023950FM-12+033999999V0200901N00461001501CN0020001N9+00281+99999100671ADDAA199000691GF108991081051001501999999KA1999N+00221EQDQ01+000032APCTENQ02+000002APC3  
0067333930999991929111618004+49817+023950FM-12+033999999V0209991C00001002401CN0020001N9+00391+99999100231ADDAA199000391GF108991081061002501999999KA1999M+00501MD1810101+9999
0067333930999991929111706004+49817+023950FM-12+033999999V0203601N00931002401CN0040001N9+00281+99999100431ADDAA199006091GF108991081061002501999999KA1999N+00111MD1310041+9999
0056333930999991929111718004+49817+023950FM-12+033999999V0202301N01231015001CN0040001N9+00391+99999100701ADDGF108991081051017501999999KA1999M+00611MD1310101+9999
0056333930999991929111806004+49817+023950FM-12+033999999V0202001N00261007801CN0040001N9+00391+99999101251ADDGF106991061051008001999999KA1999N+00221MD1310101+9999
0056333930999991929111818004+49817+023950FM-12+033999999V0202501N00101012301CN0020001N9+00501+99999101511ADDGF108991061051012501999999KA1999M+01001MD1310101+9999
0067333930999991929111906004+49817+023950FM-12+033999999V0209991C00001001501CN0002001N9+00391+99999101971ADDAA199004091GF108991081061001501999999KA1999N+00391MD1310101+9999
0067333930999991929111918004+49817+023950FM-12+033999999V0202901N00101004501CN0040001N9+00391+99999102471ADDAA199001091GF108991081051004501999999KA1999M+00391MD1310201+9999
0077333930999991929112006004+49817+023950FM-12+033999999V0209991C000019999999N0005001N9+00111+99999102811ADDGF106991021051012501999999KA1999N-00111EQDQ01+000032APCTENQ02+000002APC3  
0035333930999991929112018004+49817+023950FM-12+033999999V0200901N001019999999N9999999N9+00221+99999102801EQDQ01+000032APCTENQ02+000002APC3  
0049333930999991929112106004+49817+023950FM-12+033999999V0200901N001019999999N9999999N9+00221+99999102801ADDAA199000691EQDQ01+000032APCTENQ02+000002APC3  
0056333930999991929112118004+49817+023950FM-12+033999999V0201101N00261220001CN0040001N9+00221+99999102851ADDGF100991001001999999001001KA1999M+00611MD1310041+9999
0056333930999991929112206004+49817+023950FM-12+033999999V0201101N00461002401CN0020001N9+00281+99999102761ADDGF108991081051002501999999KA1999N+00001MD1310101+9999
0056333930999991929112218004+49817+023950FM-12+033999999V0201401N00671002401CN0020001N9+00281+99999102751ADDGF108991081051002501999999KA1999M+00391MD1810041+9999
0088333930999991929112306004+49817+023950FM-12+033999999V0201601N00101000601CN0000501N9+00111+99999102621ADDAA199003091GF108991081051000751999999KA1999N+00001EQDQ01+000032APCTENQ02+000002APC3  
0077333930999991929112406004+49817+023950FM-12+033999999V0201801N00101000601CN0000501N9-00111+99999102441ADDGF108991081051000751999999KA1999N-00111EQDQ01+000032APCTENQ02+000002APC3  
0088333930999991929112418004+49817+023950FM-12+033999999V0209991C00001000601CN0000501N9-00111+99999102351ADDAA199000391GF108991081051000751999999KA1999M+00221EQDQ01+000032APCTENQ02+000002APC3  
0067333930999991929112506004+49817+023950FM-12+033999999V0209991C00001000601CN0000001N9-00111+99999102571ADDAA199000691GF108991081051000751999999KA1999N-00111MD1310041+9999
0094333930999991929112518004+49817+023950FM-12+033999999V0201601N00261002401CN0010001N9+00111+99999102401ADDAA199000691GF108991081061002501999999KA1999M+00281MW1101EQDQ01+000032APCTENQ02+000002APC3  
0077333930999991929112618004+49817+023950FM-12+033999999V0201401N00261000601CN0000501N9-00111+99999102071ADDGF108991081051000751999999KA1999M+00111EQDQ01+000032APCTENQ02+000002APC3  
0049333930999991929112706004+49817+023950FM-12+033999999V0201801N002619999999N9999999N9+00001+99999101781ADDAA199000691EQDQ01+000032APCTENQ02+000002APC3  
0077333930999991929112718004+49817+023950FM-12+033999999V0201801N00261004501CN0040001N9+00281+99999101751ADDGF108991081051004501999999KA1999M+00281EQDQ01+000032APCTENQ02+000002APC3  
0077333930999991929112806004+49817+023950FM-12+033999999V0201801N00101012301CN0020001N9+00221+99999102171ADDGF108991061061012501999999KA1999N+00221EQDQ01+000032APCTENQ02+000002APC3  
0077333930999991929112818004+49817+023950FM-12+033999999V0209991C00001220001CN0020001N9+00281+99999102171ADDGF100991001001999999001001KA1999M+00611EQDQ01+000032APCTENQ02+000002APC3  
0056333930999991929112918004+49817+023950FM-12+033999999V0202001N00261004501CN0040001N9+00111+99999101811ADDGF108991081061004501999999KA1999M+00281MD1810041+9999
0077333930999991929113006004+49817+023950FM-12+033999999V0201401N00261002401CN0010001N9+00001+99999101361ADDGF108991081061002501999999KA1999N-00111EQDQ01+000032APCTENQ02+000002APC3  
0056333930999991929113018004+49817+023950FM-12+033999999V0201401N00261220001CN0040001N9+00221+99999101221ADDGF100991001001999999001001KA1999M+00391MD1810101+9999
0056333930999991929120106004+49817+023950FM-12+033999999V0201401N00461007801CN0040001N9+00111+99999100941ADDGF108991081051008001999999KA1999N+00111MD1810101+9999
0088333930999991929120118004+49817+023950FM-12+033999999V0201101N00261002401CN0040001N9+00221+99999100711ADDAA199000591GF108991081061002501999999KA1999M+00221EQDQ01+000032APCTENQ02+000002APC3  
0054333930999991929120206004+49817+023950FM-12+033999999V0201401N00101220001CN0020001N9+00391+99999100831ADDAA199002091GF108991001001999999999999MD1310101+9999
0056333930999991929120306004+49817+023950FM-12+033999999V0201401N001019999999N0020001N9+00281+99999101701ADDGF106991021051008001999999KA1999N+00221MD1310041+9999
0056333930999991929120318004+49817+023950FM-12+033999999V0201801N00261000601CN0040001N9+00281+99999102101ADDGF108991081051000751999999KA1999M+01001MD1310101+9999
0088333930999991929120406004+49817+023950FM-12+033999999V0201601N001019999999N0040001N9+00501+99999101991ADDAA199000691GF108991041061008001999999KA1999N+00001EQDQ01+000032APCTENQ02+000002APC3  
0067333930999991929120418004+49817+023950FM-12+033999999V0209991C00001002401CN0040001N9+00611+99999102031ADDAA199003091GF108991081061002501999999KA1999M+00721MD1310101+9999
0077333930999991929120506004+49817+023950FM-12+033999999V0201101N00101007801CN0040001N9+00501+99999102151ADDGF108991081051008001999999KA1999N+00501EQDQ01+000032APCTENQ02+000002APC3  
0056333930999991929120518004+49817+023950FM-12+033999999V0201401N00261000601CN0000501N9+00501+99999101611ADDGF108991081051000751999999KA1999M+01221MD1810101+9999
0067333930999991929120606004+49817+023950FM-12+033999999V0201401N00671001501CN0005001N9+00391+99999101071ADDAA199000691GF108991081051001501999999KA1999N+00391MD1810041+9999
0056333930999991929120618004+49817+023950FM-12+033999999V0201401N00261000601CN0002001N9+00391+99999101091ADDGF108991081051000751999999KA1999M+00611MD1310041+9999
0056333930999991929120718004+49817+023950FM-12+033999999V0201401N00261220001CN0040001N9+00281+99999101271ADDGF100991001001999999001001KA1999M+00891MD1310041+9999
0056333930999991929120806004+49817+023950FM-12+033999999V0201801N00261007801CN0040001N9+00281+99999101781ADDGF108991081051008001999999KA1999N+00111MD1310201+9999
0064333930999991929120906004+49817+023950FM-12+033999999V0201401N002619999999N0020001N9+00281+99999101511ADDGF107991041051999999999999EQDQ01+000032APCTENQ02+000002APC3  
0067333930999991929120918004+49817+023950FM-12+033999999V0202301N00101004501CN0010001N9+00391+99999101751ADDAA199002091GF108991081061004501999999KA1999M+00501MD1310161+9999
0017333930999991929121006004+49817+023950FM-12+033999999V0201601N002619999999N9999999N9+00001+99999101501ADDMD1810101+9999
0077333930999991929121018004+49817+023950FM-12+033999999V0201601N002619999999N0040001N9+00111+99999101251ADDGF107991041051999999999999KA1999M+00721EQDQ01+000032APCTENQ02+000002APC3  
0056333930999991929121106004+49817+023950FM-12+033999999V0202001N00101004501CN0040001N9+00001+99999101571ADDGF108991081051004501999999KA1999N-00281MD1310161+9999
0088333930999991929121118004+49817+023950FM-12+033999999V0201801N00101000601CN0002001N9-00111+99999101551ADDAA199001091GF108991081051000751999999KA1999M+00221EQDQ01+000032APCTENQ02+000002APC3  
0049333930999991929121206004+49817+023950FM-12+033999999V0202301N002619999999N9999999N9+00221+99999101401ADDAA199000691EQDQ01+000032APCTENQ02+000002APC3  
0056333930999991929121306004+49817+023950FM-12+033999999V0201801N001019999999N0040001N9+00111+99999101191ADDGF108991021051017501999999KA1999N-00111MD1310041+9999
0067333930999991929121318004+49817+023950FM-12+033999999V0202501N00261002401CN0040001N9+00281+99999101741ADDAA199002091GF108991081061002501999999KA1999M+00391MD1310301+9999
0067333930999991929121406004+49817+023950FM-12+033999999V0202701N00261002401CN0020001N9+00221+99999103151ADDAA199000691GF108991081061002501999999KA1999N+00221MD1310161+9999
0075333930999991929121506004+49817+023950FM-12+033999999V0202301N00261007801CN0010001N9+00281+99999101951ADDAA199001091AY161999GF108991061061008001999999KA1999N-00111MD1810101+9999
0067333930999991929121518004+49817+023950FM-12+033999999V0203201N00671002401CN0010001N9+00501+99999101651ADDAA199001091GF108991081061002501999999KA1999M+00611MD1810041+9999
0075333930999991929121606004+49817+023950FM-12+033999999V0202901N00261002401CN0040001N9+00221+99999101581ADDAA199010091AY161999GF107991071061002501999999KA1999N+00001MD1310041+9999
0067333930999991929121618004+49817+023950FM-12+033999999V0203201N00461002401CN0020001N9+00001+99999101661ADDAA199000691GF108991061061002501999999KA1999M+00501MD1310041+9999
0035333930999991929121718004+49817+023950FM-12+033999999V0203201N002619999999N9999999N9-00221+99999101901EQDQ01+000032APCTENQ02+000002APC3  
0056333930999991929121806004+49817+023950FM-12+033999999V0203201N00101220001CN0040001N9-00391+99999102701ADDGF104991021051004501999999KA1999N-00611MD1310101+9999
0056333930999991929121818004+49817+023950FM-12+033999999V0200201N00261007801CN0040001N9-00281+99999103491ADDGF108991081051008001999999KA1999M-00221MD1310361+9999
0056333930999991929121906004+49817+023950FM-12+033999999V0200501N00261001501CN0002001N9-00391+99999103701ADDGF108991081051001501999999KA1999N-00501MD1310041+9999
0056333930999991929121918004+49817+023950FM-12+033999999V0201101N00101004501CN0040001N9-00281+99999103751ADDGF108991081051004501999999KA1999M-00221MD1310041+9999
0056333930999991929122018004+49817+023950FM-12+033999999V0201101N00261220001CN0100001N9-00721+99999103091ADDGF102991001001999999999999KA1999M-00221MD1810241+9999
0077333930999991929122118004+49817+023950FM-12+033999999V0201101N00671007801CN0040001N9-00221+99999102541ADDGF108991081051008001999999KA1999M+00111EQDQ01+000032APCTENQ02+000002APC3  
0064333930999991929122206004+49817+023950FM-12+033999999V0201101N01231220001CN0100001N9-00501+99999102621ADDGF104991041051008001999999EQDQ01+000032APCTENQ02+000002APC3  
0077333930999991929122718004+49817+023950FM-12+033999999V0201401N004619999999N0040001N9-00781+99999102371ADDGF108991041051012501999999KA1999M-00721EQDQ01+000032APCTENQ02+000002APC3  
0017333930999991929122806004+49817+023950FM-12+033999999V0201401N004619999999N9999999N9-00611+99999102001ADDMD1810101+9999
0083333930999991929122818004+49817+023950FM-12+033999999V0201401N00671002401CN0010001N9-00391+99999101811ADDGF108991081061002501999999KA1999M-00391MW1101EQDQ01+000032APCTENQ02+000002APC3  
0056333930999991929122906004+49817+023950FM-12+033999999V0201401N00261004501CN0040001N9-00391+99999102061ADDGF108991081061004501999999KA1999N-00501MD1310101+9999
0077333930999991929122918004+49817+023950FM-12+033999999V0209991C00001220001CN0040001N9-00391+99999101911ADDGF100991001001999999001001KA1999M-00221EQDQ01+000032APCTENQ02+000002APC3  
0067333930999991929123006004+49817+023950FM-12+033999999V0202301N002619999999N0040001N9+00221+99999102051ADDAA199002091GF108991041051008001999999KA1999N-00611MD1310101+9999
0035333930999991929123018004+49817+023950FM-12+033999999V0202301N002619999999N9999999N9+00001+99999102301EQDQ01+000032APCTENQ02+000002APC3  
0017333930999991929123106004+49817+023950FM-12+033999999V0209991C000019999999N9999999N9-00391+99999102361ADDMD1310101+9999
