0078333930999991928010206004+49817+023950FM-12+033099999V0203401N00101000601CN0000501N9-01891-01941103931ADDAY141999GF108991081051000751999999MW1451EQDQ01+000032APCTENQ02+000002APC3  
0072333930999991928010306004+49817+023950FM-12+033099999V0201801N00261220001CN0010001N9-01281-01441103501ADDAY101999GF100991001001999999001001EQDQ01+000032APCTENQ02+000002APC3  
0051333930999991928010406004+49817+023950FM-12+033099999V0201801N00101220001CN0020001N9-02111-02171103361ADDAY101999GF102991021051012501001001MD1310061+9999
0051333930999991928010606004+49817+023950FM-12+033099999V0202501N00461004501CN0020001N9-00111-00171101301ADDAY121999GF108991081051004501999999MD1810061+9999
0051333930999991928010906004+49817+023950FM-12+033099999V0202701N00461012301CN0020001N9+00111-00111101621ADDAY121999GF108991081051012501999999MD1310061+9999
0051333930999991928011006004+49817+023950FM-12+033099999V0202301N00261012301CN0020001N9+00001-00061102151ADDAY121999GF108991081051012501999999MD1310141+9999
0051333930999991928011106004+49817+023950FM-12+033099999V0202301N00101220001CN0040001N9-00281-00331102401ADDAY101999GF104991001001999999021081MD1310061+9999
0057333930999991928011206004+49817+023950FM-12+033099999V0202501N00101002401CN0010001N9+00221-00331102741ADDAY161999GF108991081051002501999999MD1310061+9999MW1501
0072333930999991928011306004+49817+023950FM-12+033099999V0202001N00261220001CN0020001N9-00281-00331102261ADDAY101999GF102991001001999999001021EQDQ01+000032APCTENQ02+000002APC3  
0062333930999991928011406004+49817+023950FM-12+033099999V0202301N00461002401CN0020001N9+00111+99999101261ADDAY111999GF108991999061002501001001MW1601EQDQ01+000072SCOTLC
0078333930999991928011506004+49817+023950FM-12+033099999V0202701N00261002401CN0020001N9+00111+00061101401ADDAY161999GF108991081051002501999999MW1711EQDQ01+000032APCTENQ02+000002APC3  
0072333930999991928011606004+49817+023950FM-12+033099999V0202301N00261015001CN0020001N9+00281-00111101301ADDAY121999GF108991081051017501999999EQDQ01+000032APCTENQ02+000002APC3  
0037333930999991928011706004+49817+023950FM-12+033099999V0202301N002619999999N0005001N9-00111+99999101471ADDAY111999GF106991999999012501999999
0051333930999991928011806004+49817+023950FM-12+033099999V0201801N00261036001CN0010001N9-00611-00781101791ADDAY121999GF108991041051008001021001MD1310061+9999
0072333930999991928012006004+49817+023950FM-12+033099999V0201801N00261002401CN0005001N9-00391-00441102661ADDAY121999GF108991081051002501001001EQDQ01+000032APCTENQ02+000002APC3  
0057333930999991928012106004+49817+023950FM-12+033099999V0203201N00101001501CN0005001N9-00221-00281103351ADDAY171999GF108991081051001501999999MD1310061+9999MW1731
0051333930999991928012406004+49817+023950FM-12+033099999V0202301N00101015001CN0010001N9-00611-00671103261ADDAY121999GF107991071051017501001001MD1310141+9999
0051333930999991928012606004+49817+023950FM-12+033099999V0202501N00101220001CN0010001N9-00501-00671103871ADDAY101999GF102991021051008001001001MD1310201+9999
0072333930999991928012706004+49817+023950FM-12+033099999V0201801N00101220001CN0020001N9-00611-00781103601ADDAY101999GF100991001001999999001001EQDQ01+000032APCTENQ02+000002APC3  
0072333930999991928012806004+49817+023950FM-12+033099999V0201601N00461015001CN0020001N9-00391-00441103231ADDAY121999GF108991081051017501999999EQDQ01+000032APCTENQ02+000002APC3  
0051333930999991928012906004+49817+023950FM-12+033099999V0201801N00261002401CN0010001N9-00391-00441102871ADDAY121999GF108991081051002501999999MD1810061+9999
0072333930999991928013006004+49817+023950FM-12+033099999V0201801N00261220001CN0010001N9-00611-00671102511ADDAY111999GF104991041051017501001001EQDQ01+000032APCTENQ02+000002APC3  
0072333930999991928013106004+49817+023950FM-12+033099999V0201401N00261001501CN0010001N9-00221-00281101971ADDAY121999GF108991081051001501999999EQDQ01+000032APCTENQ02+000002APC3  
0072333930999991928020206004+49817+023950FM-12+033099999V0201401N00261001501CN0010001N9+00111+00061101281ADDAY121999GF108991081051001501001001EQDQ01+000032APCTENQ02+000002APC3  
0051333930999991928020306004+49817+023950FM-12+033099999V0201101N00461002401CN0010001N9-00721-00781102371ADDAY121999GF108991081051002501999999MD1310061+9999
0072333930999991928020406004+49817+023950FM-12+033099999V0201401N00461000151CN0020001N9-01281-01611103431ADDAY101999GF108991081051000251999999EQDQ01+000032APCTENQ02+000002APC3  
0051333930999991928020506004+49817+023950FM-12+033099999V0201801N00261004501CN0020001N9-01391-01671104171ADDAY121999GF108991081051004501999999MD1310061+9999
0051333930999991928020606004+49817+023950FM-12+033099999V0202301N00261000151CN0020001N9-01501-01941103241ADDAY101999GF108991081051000251999999MD1810141+9999
0057333930999991928020706004+49817+023950FM-12+033099999V0202301N00101001501CN0020001N9-01001-01061103221ADDAY171999GF108991081051001501999999MD1310061+9999MW1711
0051333930999991928021006004+49817+023950FM-12+033099999V0202301N00461012301CN0010001N9+00281+00061101841ADDAY121999GF108991081051012501999999MD1810061+9999
0057333930999991928021106004+49817+023950FM-12+033099999V0202301N00671002401CN0010001N9+00281+00061100271ADDAY121999GF108991081061002501999999MD1810141+9999MW1611
0051333930999991928021306004+49817+023950FM-12+033099999V0202701N00101002401CN0020001N9+00001-00061100421ADDAY121999GF108991081051002501999999MD1310061+9999
0051333930999991928021406004+49817+023950FM-12+033099999V0202001N00101007801CN0020001N9-00111-00171100561ADDAY121999GF108991081051008001999999MD1310141+9999
0057333930999991928021506004+49817+023950FM-12+033099999V0201401N00461001501CN0002001N9-00221-00281100961ADDAY141999GF108991081051001501999999MD1310061+9999MW1711
0078333930999991928021706004+49817+023950FM-12+033099999V0202701N00261002401CN0005001N9+00281+00221100871ADDAY161999GF108991081051002501999999MW1611EQDQ01+000032APCTENQ02+000002APC3  
0078333930999991928021806004+49817+023950FM-12+033099999V0202901N00931002401CN0005001N9+00001-00061100481ADDAY171999GF108991081051002501999999MW1711EQDQ01+000032APCTENQ02+000002APC3  
0057333930999991928022406004+49817+023950FM-12+033099999V0203201N00461002401CN0020001N9-00391-00561103721ADDAY171999GF108991081051002501999999MD1310061+9999MW1231
0072333930999991928022506004+49817+023950FM-12+033099999V0203201N00101002401CN0040001N9-01111-01281104661ADDAY121999GF108991081051002501999999EQDQ01+000032APCTENQ02+000002APC3  
0078333930999991928022706004+49817+023950FM-12+033099999V0200901N00261002401CN0005001N9-00611-00671103311ADDAY171999GF108991081051002501999999MW1731EQDQ01+000032APCTENQ02+000002APC3  
0078333930999991928022806004+49817+023950FM-12+033099999V0202301N00101000151CN0020001N9-01281-01611103941ADDAY141999GF108991081051000251999999MW1441EQDQ01+000032APCTENQ02+000002APC3  
0072333930999991928022906004+49817+023950FM-12+033099999V0209999900101000151CN0005001N9-01111-01281999999ADDAY141999GF108991081051000251999999EQDQ01+000032APCTENQ02+000002APC3  
