0024990061999991929100102004+62000-033000SAO  +00004YA  V02099999999999999999N0000001N1+02521+02301999999ADDMA1999999101321MW1001
0024990061999991929100103004+62000-033000SAO  +00004YA  V02099999999999999999N0000001N1+02461+02181999999ADDMA1999999101251MW1001
0024990061999991929100104004+62000-033000SAO  +00004YA  V02099999999999999999N0000001N1+02571+02181999999ADDMA1999999101151MW1001
0024990061999991929100105004+62000-033000SAO  +00004YA  V02099999999999999999N0000001N1+02571+02131999999ADDMA1999999101191MW1001
0024990061999991929100106004+62000-033000SAO  +00004YA  V02099999999999999999N0000001N1+02571+02131999999ADDMA1999999101191MW1001
0024990061999991929100107004+62000-033000SAO  +00004YA  V02099999999999999999N0000001N1+02571+02131999999ADDMA1999999101221MW1001
0024990061999991929100108004+62000-033000SAO  +00004YA  V02099999999999999999N0000001N1+02571+02131999999ADDMA1999999101291MW1001
0024990061999991929100109004+62000-033000SAO  +00004YA  V02099999999999999999N0000001N1+02631+02131999999ADDMA1999999101321MW1001
0024990061999991929100110004+62000-033000SAO  +00004YA  V02099999999999999999N0000001N1+02741+02181999999ADDMA1999999101391MW1001
0024990061999991929100111004+62000-033000SAO  +00004YA  V02099999999999999999N0000001N1+02681+02181999999ADDMA1999999101421MW1001
0024990061999991929100112004+62000-033000SAO  +00004YA  V02099999999999999999N0000001N1+02801+02131999999ADDMA1999999101421MW1001
0024990061999991929100113004+62000-033000SAO  +00004YA  V02099999999999999999N0000001N1+02801+02241999999ADDMA1999999101351MW1001
0024990061999991929100114004+62000-033000SAO  +00004YA  V02099999999999999999N0000001N1+02741+02181999999ADDMA1999999101321MW1001
0024990061999991929100115004+62000-033000SAO  +00004YA  V02099999999999999999N0000001N1+02741+02131999999ADDMA1999999101221MW1001
0024990061999991929100116004+62000-033000SAO  +00004YA  V02099999999999999999N0000001N1+02741+02131999999ADDMA1999999101191MW1001
0024990061999991929100117004+62000-033000SAO  +00004YA  V02099999999999999999N0000001N1+02681+02131999999ADDMA1999999101191MW1001
0024990061999991929100118004+62000-033000SAO  +00004YA  V02099999999999999999N0000001N1+02681+02131999999ADDMA1999999101191MW1001
0024990061999991929100119004+62000-033000SAO  +00004YA  V02099999999999999999N0000001N1+02631+02131999999ADDMA1999999101191MW1001
0024990061999991929100120004+62000-033000SAO  +00004YA  V02099999999999999999N0000001N1+02631+02071999999ADDMA1999999101221MW1001
0024990061999991929100121004+62000-033000SAO  +00004YA  V02099999999999999999N0000001N1+02631+02071999999ADDMA1999999101251MW1001
0024990061999991929100122004+62000-033000SAO  +00004YA  V02099999999999999999N0000001N1+02631+02131999999ADDMA1999999101321MW1001
0024990061999991929100123004+62000-033000SAO  +00004YA  V02099999999999999999N0000001N1+02631+02131999999ADDMA1999999101351MW1001
0024990061999991929100200004+62000-033000SAO  +00004YA  V02099999999999999999N0000001N1+02631+02131999999ADDMA1999999101321MW1001
0024990061999991929100201004+62000-033000SAO  +00004YA  V02099999999999999999N0000001N1+02631+02131999999ADDMA1999999101321MW1001
0024990061999991929100202004+62000-033000SAO  +00004YA  V02099999999999999999N0000001N1+02631+02181999999ADDMA1999999101291MW1001
0024990061999991929100204004+62000-033000SAO  +00004YA  V02099999999999999999N0000001N1+02631+02181999999ADDMA1999999101191MW1001
0024990061999991929100205004+62000-033000SAO  +00004YA  V02099999999999999999N0000001N1+02521+02241999999ADDMA1999999101151MW1001
0024990061999991929100206004+62000-033000SAO  +00004YA  V02099999999999999999N0000001N1+02521+02181999999ADDMA1999999101151MW1001
0024990061999991929100207004+62000-033000SAO  +00004YA  V02099999999999999999N0000001N1+02521+02131999999ADDMA1999999101191MW1001
0024990061999991929100208004+62000-033000SAO  +00004YA  V02099999999999999999N0000001N1+02521+02071999999ADDMA1999999101251MW1001
0024990061999991929100209004+62000-033000SAO  +00004YA  V02099999999999999999N0000001N1+02631+02131999999ADDMA1999999101321MW1001
0024990061999991929100210004+62000-033000SAO  +00004YA  V02099999999999999999N0000001N1+02741+02131999999ADDMA1999999101351MW1001
0024990061999991929100211004+62000-033000SAO  +00004YA  V02099999999999999999N0000001N1+02681+02071999999ADDMA1999999101391MW1001
0024990061999991929100212004+62000-033000SAO  +00004YA  V02099999999999999999N0000001N1+02741+02071999999ADDMA1999999101421MW1001
0024990061999991929100213004+62000-033000SAO  +00004YA  V02099999999999999999N0000001N1+02741+02071999999ADDMA1999999101351MW1001
0024990061999991929100214004+62000-033000SAO  +00004YA  V02099999999999999999N0000001N1+02741+02071999999ADDMA1999999101251MW1001
0024990061999991929100215004+62000-033000SAO  +00004YA  V02099999999999999999N0000001N1+02741+02071999999ADDMA1999999101221MW1001
0024990061999991929100216004+62000-033000SAO  +00004YA  V02099999999999999999N0000001N1+02741+02021999999ADDMA1999999101151MW1001
0024990061999991929100217004+62000-033000SAO  +00004YA  V02099999999999999999N0000001N1+02681+02071999999ADDMA1999999101121MW1001
0024990061999991929100218004+62000-033000SAO  +00004YA  V02099999999999999999N0000001N1+02681+02071999999ADDMA1999999101151MW1001
0024990061999991929100219004+62000-033000SAO  +00004YA  V02099999999999999999N0000001N1+02631+02071999999ADDMA1999999101151MW1001
0024990061999991929100220004+62000-033000SAO  +00004YA  V02099999999999999999N0000001N1+02631+02131999999ADDMA1999999101191MW1001
0024990061999991929100221004+62000-033000SAO  +00004YA  V02099999999999999999N0000001N1+02571+02181999999ADDMA1999999101251MW1001
0024990061999991929100222004+62000-033000SAO  +00004YA  V02099999999999999999N0000001N1+02571+02181999999ADDMA1999999101291MW1001
0024990061999991929100223004+62000-033000SAO  +00004YA  V02099999999999999999N0000001N1+02571+02181999999ADDMA1999999101321MW1001
0024990061999991929100300004+62000-033000SAO  +00004YA  V02099999999999999999N0000001N1+02571+02181999999ADDMA1999999101321MW1001
0024990061999991929100301004+62000-033000SAO  +00004YA  V02099999999999999999N0000001N1+02631+02181999999ADDMA1999999101321MW1001
0024990061999991929100302004+62000-033000SAO  +00004YA  V02099999999999999999N0000001N1+02631+02241999999ADDMA1999999101251MW1001
0024990061999991929100303004+62000-033000SAO  +00004YA  V02099999999999999999N0000001N1+02631+02181999999ADDMA1999999101221MW1001
0024990061999991929100304004+62000-033000SAO  +00004YA  V02099999999999999999N0000001N1+02631+02181999999ADDMA1999999101191MW1001
0024990061999991929100305004+62000-033000SAO  +00004YA  V02099999999999999999N0000001N1+02571+02181999999ADDMA1999999101151MW1001
0024990061999991929100306004+62000-033000SAO  +00004YA  V02099999999999999999N0000001N1+02571+02131999999ADDMA1999999101191MW1001
0024990061999991929100307004+62000-033000SAO  +00004YA  V02099999999999999999N0000001N1+02571+02131999999ADDMA1999999101251MW1001
0024990061999991929100308004+62000-033000SAO  +00004YA  V02099999999999999999N0000001N1+02571+02181999999ADDMA1999999101291MW1001
0024990061999991929100309004+62000-033000SAO  +00004YA  V02099999999999999999N0000001N1+02681+02181999999ADDMA1999999101321MW1001
0024990061999991929100310004+62000-033000SAO  +00004YA  V02099999999999999999N0000001N1+02681+02181999999ADDMA1999999101391MW1001
0024990061999991929100311004+62000-033000SAO  +00004YA  V02099999999999999999N0000001N1+02801+02241999999ADDMA1999999101391MW1001
0024990061999991929100312004+62000-033000SAO  +00004YA  V02099999999999999999N0000001N1+02851+02131999999ADDMA1999999101351MW1001
0024990061999991929100313004+62000-033000SAO  +00004YA  V02099999999999999999N0000001N1+02851+02071999999ADDMA1999999101291MW1001
0024990061999991929100314004+62000-033000SAO  +00004YA  V02099999999999999999N0000001N1+02911+02181999999ADDMA1999999101151MW1001
0024990061999991929100315004+62000-033000SAO  +00004YA  V02099999999999999999N0000001N1+02911+02181999999ADDMA1999999101081MW1001
0024990061999991929100316004+62000-033000SAO  +00004YA  V02099999999999999999N0000001N1+02911+02181999999ADDMA1999999100981MW1001
0024990061999991929100317004+62000-033000SAO  +00004YA  V02099999999999999999N0000001N1+02851+02241999999ADDMA1999999100951MW1001
0024990061999991929100318004+62000-033000SAO  +00004YA  V02099999999999999999N0000001N1+02851+02181999999ADDMA1999999100951MW1001
0024990061999991929100319004+62000-033000SAO  +00004YA  V02099999999999999999N0000001N1+02741+02181999999ADDMA1999999101021MW1001
0024990061999991929100320004+62000-033000SAO  +00004YA  V02099999999999999999N0000001N1+02681+02181999999ADDMA1999999101081MW1001
0024990061999991929100321004+62000-033000SAO  +00004YA  V02099999999999999999N0000001N1+02631+02241999999ADDMA1999999101151MW1001
0024990061999991929100322004+62000-033000SAO  +00004YA  V02099999999999999999N0000001N1+02681+02301999999ADDMA1999999101251MW1001
0024990061999991929100323004+62000-033000SAO  +00004YA  V02099999999999999999N0000001N1+02681+02301999999ADDMA1999999101291MW1001
0024990061999991929100400004+62000-033000SAO  +00004YA  V02099999999999999999N0000001N1+02631+02351999999ADDMA1999999101291MW1001
0024990061999991929100401004+62000-033000SAO  +00004YA  V02099999999999999999N0000001N1+02631+02301999999ADDMA1999999101251MW1001
0024990061999991929100402004+62000-033000SAO  +00004YA  V02099999999999999999N0000001N1+02631+02181999999ADDMA1999999101191MW1001
0024990061999991929100403004+62000-033000SAO  +00004YA  V02099999999999999999N0000001N1+02631+02241999999ADDMA1999999101151MW1001
0024990061999991929100404004+62000-033000SAO  +00004YA  V02099999999999999999N0000001N1+02631+02301999999ADDMA1999999101121MW1001
0024990061999991929100405004+62000-033000SAO  +00004YA  V02099999999999999999N0000001N1+02631+02241999999ADDMA1999999101081MW1001
0024990061999991929100406004+62000-033000SAO  +00004YA  V02099999999999999999N0000001N1+02631+02241999999ADDMA1999999101121MW1001
0024990061999991929100407004+62000-033000SAO  +00004YA  V02099999999999999999N0000001N1+02571+02241999999ADDMA1999999101151MW1001
0024990061999991929100408004+62000-033000SAO  +00004YA  V02099999999999999999N0000001N1+02631+02131999999ADDMA1999999101191MW1001
0024990061999991929100409004+62000-033000SAO  +00004YA  V02099999999999999999N0000001N1+02681+02131999999ADDMA1999999101221MW1001
0024990061999991929100410004+62000-033000SAO  +00004YA  V02099999999999999999N0000001N1+02741+02131999999ADDMA1999999101251MW1001
0024990061999991929100411004+62000-033000SAO  +00004YA  V02099999999999999999N0000001N1+02801+02071999999ADDMA1999999101291MW1001
0024990061999991929100412004+62000-033000SAO  +00004YA  V02099999999999999999N0000001N1+02801+02071999999ADDMA1999999101291MW1001
0024990061999991929100413004+62000-033000SAO  +00004YA  V02099999999999999999N0000001N1+02801+02071999999ADDMA1999999101221MW1001
0024990061999991929100414004+62000-033000SAO  +00004YA  V02099999999999999999N0000001N1+02801+02071999999ADDMA1999999101151MW1001
0024990061999991929100415004+62000-033000SAO  +00004YA  V02099999999999999999N0000001N1+02801+02071999999ADDMA1999999101051MW1001
0024990061999991929100416004+62000-033000SAO  +00004YA  V02099999999999999999N0000001N1+02801+02181999999ADDMA1999999100981MW1001
0024990061999991929100417004+62000-033000SAO  +00004YA  V02099999999999999999N0000001N1+02801+02181999999ADDMA1999999100951MW1001
0024990061999991929100418004+62000-033000SAO  +00004YA  V02099999999999999999N0000001N1+02741+02181999999ADDMA1999999100951MW1001
0024990061999991929100419004+62000-033000SAO  +00004YA  V02099999999999999999N0000001N1+02741+02181999999ADDMA1999999100951MW1001
0024990061999991929100420004+62000-033000SAO  +00004YA  V02099999999999999999N0000001N1+02681+02241999999ADDMA1999999100981MW1001
0024990061999991929100421004+62000-033000SAO  +00004YA  V02099999999999999999N0000001N1+02681+02241999999ADDMA1999999101021MW1001
0024990061999991929100422004+62000-033000SAO  +00004YA  V02099999999999999999N0000001N1+02681+02241999999ADDMA1999999101081MW1001
0024990061999991929100423004+62000-033000SAO  +00004YA  V02099999999999999999N0000001N1+02681+02301999999ADDMA1999999101121MW1001
0024990061999991929100500004+62000-033000SAO  +00004YA  V02099999999999999999N0000001N1+02631+02301999999ADDMA1999999101121MW1001
0024990061999991929100501004+62000-033000SAO  +00004YA  V02099999999999999999N0000001N1+02631+02241999999ADDMA1999999101051MW1001
0024990061999991929100502004+62000-033000SAO  +00004YA  V02099999999999999999N0000001N1+02631+02241999999ADDMA1999999101021MW1001
0024990061999991929100504004+62000-033000SAO  +00004YA  V02099999999999999999N0000001N1+02631+02181999999ADDMA1999999100951MW1001
0024990061999991929100505004+62000-033000SAO  +00004YA  V02099999999999999999N0000001N1+02571+02181999999ADDMA1999999100911MW1001
0024990061999991929100506004+62000-033000SAO  +00004YA  V02099999999999999999N0000001N1+02571+02181999999ADDMA1999999100951MW1001
0024990061999991929100507004+62000-033000SAO  +00004YA  V02099999999999999999N0000001N1+02571+02181999999ADDMA1999999101021MW1001
0024990061999991929100508004+62000-033000SAO  +00004YA  V02099999999999999999N0000001N1+02571+02181999999ADDMA1999999101051MW1001
0024990061999991929100510004+62000-033000SAO  +00004YA  V02099999999999999999N0000001N1+02681+02241999999ADDMA1999999101221MW1001
0024990061999991929100511004+62000-033000SAO  +00004YA  V02099999999999999999N0000001N1+02741+02181999999ADDMA1999999101191MW1001
0024990061999991929100512004+62000-033000SAO  +00004YA  V02099999999999999999N0000001N1+02801+02071999999ADDMA1999999101151MW1001
0024990061999991929100513004+62000-033000SAO  +00004YA  V02099999999999999999N0000001N1+02851+02071999999ADDMA1999999101081MW1001
0024990061999991929100514004+62000-033000SAO  +00004YA  V02099999999999999999N0000001N1+02851+02021999999ADDMA1999999100981MW1001
0024990061999991929100515004+62000-033000SAO  +00004YA  V02099999999999999999N0000001N1+02851+01961999999ADDMA1999999100881MW1001
0024990061999991929100516004+62000-033000SAO  +00004YA  V02099999999999999999N0000001N1+02801+02071999999ADDMA1999999100811MW1001
0024990061999991929100517004+62000-033000SAO  +00004YA  V02099999999999999999N0000001N1+02801+02071999999ADDMA1999999100811MW1001
0024990061999991929100518004+62000-033000SAO  +00004YA  V02099999999999999999N0000001N1+02741+02131999999ADDMA1999999100811MW1001
0024990061999991929100519004+62000-033000SAO  +00004YA  V02099999999999999999N0000001N1+02681+02131999999ADDMA1999999100811MW1001
0024990061999991929100520004+62000-033000SAO  +00004YA  V02099999999999999999N0000001N1+02631+02181999999ADDMA1999999100881MW1001
0024990061999991929100521004+62000-033000SAO  +00004YA  V02099999999999999999N0000001N1+02681+02181999999ADDMA1999999100911MW1001
0024990061999991929100522004+62000-033000SAO  +00004YA  V02099999999999999999N0000001N1+02681+02181999999ADDMA1999999100951MW1001
0024990061999991929100523004+62000-033000SAO  +00004YA  V02099999999999999999N0000001N1+02681+02131999999ADDMA1999999100951MW1001
0024990061999991929100600004+62000-033000SAO  +00004YA  V02099999999999999999N0000001N1+02631+02131999999ADDMA1999999100951MW1001
0024990061999991929100601004+62000-033000SAO  +00004YA  V02099999999999999999N0000001N1+02631+02181999999ADDMA1999999100951MW1001
0024990061999991929100602004+62000-033000SAO  +00004YA  V02099999999999999999N0000001N1+02631+02241999999ADDMA1999999100911MW1001
0024990061999991929100603004+62000-033000SAO  +00004YA  V02099999999999999999N0000001N1+02631+99999999999ADDMA1999999100851MW1001
0024990061999991929100604004+62000-033000SAO  +00004YA  V02099999999999999999N0000001N1+02571+02241999999ADDMA1999999100851MW1001
0024990061999991929100605004+62000-033000SAO  +00004YA  V02099999999999999999N0000001N1+02631+02241999999ADDMA1999999100811MW1001
0024990061999991929100606004+62000-033000SAO  +00004YA  V02099999999999999999N0000001N1+02631+02241999999ADDMA1999999100851MW1001
0024990061999991929100607004+62000-033000SAO  +00004YA  V02099999999999999999N0000001N1+02631+02241999999ADDMA1999999100881MW1001
0024990061999991929100608004+62000-033000SAO  +00004YA  V02099999999999999999N0000001N1+02631+02241999999ADDMA1999999100951MW1001
0024990061999991929100609004+62000-033000SAO  +00004YA  V02099999999999999999N0000001N1+02681+02241999999ADDMA1999999101021MW1001
0024990061999991929100610004+62000-033000SAO  +00004YA  V02099999999999999999N0000001N1+02681+02241999999ADDMA1999999101051MW1001
0024990061999991929100611004+62000-033000SAO  +00004YA  V02099999999999999999N0000001N1+02741+02241999999ADDMA1999999101051MW1001
0024990061999991929100612004+62000-033000SAO  +00004YA  V02099999999999999999N0000001N1+02801+02181999999ADDMA1999999101051MW1001
0024990061999991929100613004+62000-033000SAO  +00004YA  V02099999999999999999N0000001N1+02801+02181999999ADDMA1999999100951MW1001
0024990061999991929100614004+62000-033000SAO  +00004YA  V02099999999999999999N0000001N1+02801+02071999999ADDMA1999999100911MW1001
0024990061999991929100615004+62000-033000SAO  +00004YA  V02099999999999999999N0000001N1+02801+02131999999ADDMA1999999100811MW1001
0024990061999991929100616004+62000-033000SAO  +00004YA  V02099999999999999999N0000001N1+02801+02131999999ADDMA1999999100751MW1001
0024990061999991929100617004+62000-033000SAO  +00004YA  V02099999999999999999N0000001N1+02741+02131999999ADDMA1999999100711MW1001
0024990061999991929100618004+62000-033000SAO  +00004YA  V02099999999999999999N0000001N1+02741+02181999999ADDMA1999999100681MW1001
0024990061999991929100619004+62000-033000SAO  +00004YA  V02099999999999999999N0000001N1+02631+02181999999ADDMA1999999100711MW1001
0024990061999991929100620004+62000-033000SAO  +00004YA  V02099999999999999999N0000001N1+02631+02241999999ADDMA1999999100811MW1001
0024990061999991929100621004+62000-033000SAO  +00004YA  V02099999999999999999N0000001N1+02631+02241999999ADDMA1999999100911MW1001
0024990061999991929100622004+62000-033000SAO  +00004YA  V02099999999999999999N0000001N1+02631+02241999999ADDMA1999999100951MW1001
0024990061999991929100623004+62000-033000SAO  +00004YA  V02099999999999999999N0000001N1+02631+02241999999ADDMA1999999100981MW1001
0024990061999991929100700004+62000-033000SAO  +00004YA  V02099999999999999999N0000001N1+02631+02241999999ADDMA1999999100981MW1001
0024990061999991929100701004+62000-033000SAO  +00004YA  V02099999999999999999N0000001N1+02571+02241999999ADDMA1999999101021MW1001
0024990061999991929100702004+62000-033000SAO  +00004YA  V02099999999999999999N0000001N1+02631+02241999999ADDMA1999999100981MW1001
0024990061999991929100703004+62000-033000SAO  +00004YA  V02099999999999999999N0000001N1+02631+02241999999ADDMA1999999100911MW1001
0024990061999991929100704004+62000-033000SAO  +00004YA  V02099999999999999999N0000001N1+02631+02241999999ADDMA1999999100881MW1001
0024990061999991929100705004+62000-033000SAO  +00004YA  V02099999999999999999N0000001N1+02631+02241999999ADDMA1999999100911MW1001
0024990061999991929100706004+62000-033000SAO  +00004YA  V02099999999999999999N0000001N1+02571+02241999999ADDMA1999999100881MW1001
0024990061999991929100707004+62000-033000SAO  +00004YA  V02099999999999999999N0000001N1+02571+02241999999ADDMA1999999100911MW1001
0024990061999991929100708004+62000-033000SAO  +00004YA  V02099999999999999999N0000001N1+02631+02241999999ADDMA1999999100981MW1001
0024990061999991929100709004+62000-033000SAO  +00004YA  V02099999999999999999N0000001N1+02681+02241999999ADDMA1999999101021MW1001
0024990061999991929100710004+62000-033000SAO  +00004YA  V02099999999999999999N0000001N1+02741+02241999999ADDMA1999999101081MW1001
0024990061999991929100711004+62000-033000SAO  +00004YA  V02099999999999999999N0000001N1+02801+02241999999ADDMA1999999101081MW1001
0024990061999991929100712004+62000-033000SAO  +00004YA  V02099999999999999999N0000001N1+02911+02301999999ADDMA1999999101051MW1001
0024990061999991929100713004+62000-033000SAO  +00004YA  V02099999999999999999N0000001N1+02911+02301999999ADDMA1999999100981MW1001
0024990061999991929100714004+62000-033000SAO  +00004YA  V02099999999999999999N0000001N1+02911+02241999999ADDMA1999999100881MW1001
0024990061999991929100715004+62000-033000SAO  +00004YA  V02099999999999999999N0000001N1+02961+02301999999ADDMA1999999100811MW1001
0024990061999991929100716004+62000-033000SAO  +00004YA  V02099999999999999999N0000001N1+02851+02301999999ADDMA1999999100751MW1001
0024990061999991929100717004+62000-033000SAO  +00004YA  V02099999999999999999N0000001N1+02911+02351999999ADDMA1999999100781MW1001
0024990061999991929100718004+62000-033000SAO  +00004YA  V02099999999999999999N0000001N1+02801+02301999999ADDMA1999999100811MW1001
0024990061999991929100719004+62000-033000SAO  +00004YA  V02099999999999999999N0000001N1+02851+02021999999ADDMA1999999100881MW1001
0024990061999991929100720004+62000-033000SAO  +00004YA  V02099999999999999999N0000001N1+02801+01911999999ADDMA1999999100951MW1001
0024990061999991929100721004+62000-033000SAO  +00004YA  V02099999999999999999N0000001N1+02681+01851999999ADDMA1999999101051MW1001
0024990061999991929100722004+62000-033000SAO  +00004YA  V02099999999999999999N0000001N1+02571+01961999999ADDMA1999999101121MW1001
0024990061999991929100723004+62000-033000SAO  +00004YA  V02099999999999999999N0000001N1+02631+01851999999ADDMA1999999101121MW1001
0024990061999991929100800004+62000-033000SAO  +00004YA  V02099999999999999999N0000001N1+02411+01911999999ADDMA1999999101121MW1001
0024990061999991929100801004+62000-033000SAO  +00004YA  V02099999999999999999N0000001N1+02351+01851999999ADDMA1999999101121MW1001
0024990061999991929100802004+62000-033000SAO  +00004YA  V02099999999999999999N0000001N1+02411+01801999999ADDMA1999999101081MW1001
0024990061999991929100803004+62000-033000SAO  +00004YA  V02099999999999999999N0000001N1+02411+01801999999ADDMA1999999101021MW1001
0024990061999991929100804004+62000-033000SAO  +00004YA  V02099999999999999999N0000001N1+02411+01741999999ADDMA1999999100981MW1001
0024990061999991929100805004+62000-033000SAO  +00004YA  V02099999999999999999N0000001N1+02411+01741999999ADDMA1999999100981MW1001
0024990061999991929100806004+62000-033000SAO  +00004YA  V02099999999999999999N0000001N1+02411+01741999999ADDMA1999999100981MW1001
0024990061999991929100807004+62000-033000SAO  +00004YA  V02099999999999999999N0000001N1+02351+01691999999ADDMA1999999101021MW1001
0024990061999991929100808004+62000-033000SAO  +00004YA  V02099999999999999999N0000001N1+02411+01741999999ADDMA1999999101081MW1001
0024990061999991929100809004+62000-033000SAO  +00004YA  V02099999999999999999N0000001N1+02411+01801999999ADDMA1999999101151MW1001
0024990061999991929100810004+62000-033000SAO  +00004YA  V02099999999999999999N0000001N1+02631+01911999999ADDMA1999999101151MW1001
0024990061999991929100811004+62000-033000SAO  +00004YA  V02099999999999999999N0000001N1+02681+01961999999ADDMA1999999101151MW1001
0024990061999991929100812004+62000-033000SAO  +00004YA  V02099999999999999999N0000001N1+02681+01851999999ADDMA1999999101121MW1001
0024990061999991929100813004+62000-033000SAO  +00004YA  V02099999999999999999N0000001N1+02681+01911999999ADDMA1999999101051MW1001
0024990061999991929100814004+62000-033000SAO  +00004YA  V02099999999999999999N0000001N1+02741+02021999999ADDMA1999999100981MW1001
0024990061999991929100815004+62000-033000SAO  +00004YA  V02099999999999999999N0000001N1+02801+01961999999ADDMA1999999100911MW1001
0024990061999991929100816004+62000-033000SAO  +00004YA  V02099999999999999999N0000001N1+02741+02021999999ADDMA1999999100881MW1001
0024990061999991929100817004+62000-033000SAO  +00004YA  V02099999999999999999N0000001N1+02681+01911999999ADDMA1999999100881MW1001
0024990061999991929100818004+62000-033000SAO  +00004YA  V02099999999999999999N0000001N1+02681+01851999999ADDMA1999999100881MW1001
0024990061999991929100819004+62000-033000SAO  +00004YA  V02099999999999999999N0000001N1+02631+02021999999ADDMA1999999100881MW1001
0024990061999991929100820004+62000-033000SAO  +00004YA  V02099999999999999999N0000001N1+02571+02071999999ADDMA1999999100911MW1001
0024990061999991929100821004+62000-033000SAO  +00004YA  V02099999999999999999N0000001N1+02571+02021999999ADDMA1999999100981MW1001
0024990061999991929100822004+62000-033000SAO  +00004YA  V02099999999999999999N0000001N1+02571+01911999999ADDMA1999999101051MW1001
0024990061999991929100823004+62000-033000SAO  +00004YA  V02099999999999999999N0000001N1+02571+01911999999ADDMA1999999101051MW1001
0024990061999991929100900004+62000-033000SAO  +00004YA  V02099999999999999999N0000001N1+02571+01911999999ADDMA1999999101051MW1001
0024990061999991929100901004+62000-033000SAO  +00004YA  V02099999999999999999N0000001N1+02571+01961999999ADDMA1999999101021MW1001
0024990061999991929100902004+62000-033000SAO  +00004YA  V02099999999999999999N0000001N1+02521+02021999999ADDMA1999999100911MW1001
0024990061999991929100903004+62000-033000SAO  +00004YA  V02099999999999999999N0000001N1+02521+01961999999ADDMA1999999100881MW1001
0024990061999991929100904004+62000-033000SAO  +00004YA  V02099999999999999999N0000001N1+02521+01911999999ADDMA1999999100811MW1001
0024990061999991929100905004+62000-033000SAO  +00004YA  V02099999999999999999N0000001N1+02521+01961999999ADDMA1999999100781MW1001
0024990061999991929100906004+62000-033000SAO  +00004YA  V02099999999999999999N0000001N1+02461+01961999999ADDMA1999999100811MW1001
0024990061999991929100907004+62000-033000SAO  +00004YA  V02099999999999999999N0000001N1+02461+01961999999ADDMA1999999100881MW1001
0024990061999991929100908004+62000-033000SAO  +00004YA  V02099999999999999999N0000001N1+02461+01961999999ADDMA1999999100911MW1001
0024990061999991929100909004+62000-033000SAO  +00004YA  V02099999999999999999N0000001N1+02571+02021999999ADDMA1999999101021MW1001
0024990061999991929100910004+62000-033000SAO  +00004YA  V02099999999999999999N0000001N1+02681+02021999999ADDMA1999999101081MW1001
0024990061999991929100911004+62000-033000SAO  +00004YA  V02099999999999999999N0000001N1+02631+01961999999ADDMA1999999101051MW1001
0024990061999991929100912004+62000-033000SAO  +00004YA  V02099999999999999999N0000001N1+02681+01741999999ADDMA1999999101021MW1001
0024990061999991929100914004+62000-033000SAO  +00004YA  V02099999999999999999N0000001N1+02741+01961999999ADDMA1999999100811MW1001
0024990061999991929100915004+62000-033000SAO  +00004YA  V02099999999999999999N0000001N1+02681+01911999999ADDMA1999999100751MW1001
0024990061999991929100916004+62000-033000SAO  +00004YA  V02099999999999999999N0000001N1+02631+01911999999ADDMA1999999100681MW1001
0024990061999991929100917004+62000-033000SAO  +00004YA  V02099999999999999999N0000001N1+02631+01911999999ADDMA1999999100641MW1001
0024990061999991929100918004+62000-033000SAO  +00004YA  V02099999999999999999N0000001N1+02571+01911999999ADDMA1999999100641MW1001
0024990061999991929100919004+62000-033000SAO  +00004YA  V02099999999999999999N0000001N1+02521+01851999999ADDMA1999999100681MW1001
0024990061999991929100920004+62000-033000SAO  +00004YA  V02099999999999999999N0000001N1+02461+01961999999ADDMA1999999100711MW1001
0024990061999991929100921004+62000-033000SAO  +00004YA  V02099999999999999999N0000001N1+02461+01961999999ADDMA1999999100811MW1001
0024990061999991929100922004+62000-033000SAO  +00004YA  V02099999999999999999N0000001N1+02461+01961999999ADDMA1999999100881MW1001
0024990061999991929100923004+62000-033000SAO  +00004YA  V02099999999999999999N0000001N1+02461+01961999999ADDMA1999999100881MW1001
0024990061999991929101000004+62000-033000SAO  +00004YA  V02099999999999999999N0000001N1+02461+01961999999ADDMA1999999100911MW1001
0024990061999991929101001004+62000-033000SAO  +00004YA  V02099999999999999999N0000001N1+02411+99999999999ADDMA1999999100851MW1001
0024990061999991929101002004+62000-033000SAO  +00004YA  V02099999999999999999N0000001N1+02411+01961999999ADDMA1999999100781MW1001
0024990061999991929101003004+62000-033000SAO  +00004YA  V02099999999999999999N0000001N1+02411+01961999999ADDMA1999999100751MW1001
0024990061999991929101004004+62000-033000SAO  +00004YA  V02099999999999999999N0000001N1+02301+01961999999ADDMA1999999100681MW1001
0024990061999991929101005004+62000-033000SAO  +00004YA  V02099999999999999999N0000001N1+02301+01911999999ADDMA1999999100681MW1001
0024990061999991929101006004+62000-033000SAO  +00004YA  V02099999999999999999N0000001N1+02241+01911999999ADDMA1999999100681MW1001
0024990061999991929101007004+62000-033000SAO  +00004YA  V02099999999999999999N0000001N1+02241+01911999999ADDMA1999999100751MW1001
0024990061999991929101008004+62000-033000SAO  +00004YA  V02099999999999999999N0000001N1+02301+01571999999ADDMA1999999100781MW1001
0024990061999991929101009004+62000-033000SAO  +00004YA  V02099999999999999999N0000001N1+02411+01411999999ADDMA1999999100881MW1001
0024990061999991929101010004+62000-033000SAO  +00004YA  V02099999999999999999N0000001N1+02571+01461999999ADDMA1999999100951MW1001
0024990061999991929101011004+62000-033000SAO  +00004YA  V02099999999999999999N0000001N1+02681+01521999999ADDMA1999999100951MW1001
0024990061999991929101012004+62000-033000SAO  +00004YA  V02099999999999999999N0000001N1+02741+01631999999ADDMA1999999100911MW1001
0024990061999991929101013004+62000-033000SAO  +00004YA  V02099999999999999999N0000001N1+02801+01631999999ADDMA1999999100851MW1001
0024990061999991929101014004+62000-033000SAO  +00004YA  V02099999999999999999N0000001N1+02741+01851999999ADDMA1999999100751MW1001
0024990061999991929101015004+62000-033000SAO  +00004YA  V02099999999999999999N0000001N1+02741+02571999999ADDMA1999999100641MW1001
0024990061999991929101016004+62000-033000SAO  +00004YA  V02099999999999999999N0000001N1+02741+02571999999ADDMA1999999100581MW1001
0024990061999991929101017004+62000-033000SAO  +00004YA  V02099999999999999999N0000001N1+02681+02521999999ADDMA1999999100611MW1001
0024990061999991929101018004+62000-033000SAO  +00004YA  V02099999999999999999N0000001N1+02631+02521999999ADDMA1999999100611MW1001
0024990061999991929101019004+62000-033000SAO  +00004YA  V02099999999999999999N0000001N1+02571+02521999999ADDMA1999999100611MW1001
0024990061999991929101020004+62000-033000SAO  +00004YA  V02099999999999999999N0000001N1+02521+99999999999ADDMA1999999100711MW1001
0024990061999991929101021004+62000-033000SAO  +00004YA  V02099999999999999999N0000001N1+02461+99999999999ADDMA1999999100811MW1001
0024990061999991929101022004+62000-033000SAO  +00004YA  V02099999999999999999N0000001N1+02461+01851999999ADDMA1999999100911MW1001
0024990061999991929101023004+62000-033000SAO  +00004YA  V02099999999999999999N0000001N1+02461+99999999999ADDMA1999999100951MW1001
0024990061999991929101100004+62000-033000SAO  +00004YA  V02099999999999999999N0000001N1+02461+99999999999ADDMA1999999100911MW1001
0024990061999991929101101004+62000-033000SAO  +00004YA  V02099999999999999999N0000001N1+02411+99999999999ADDMA1999999100881MW1001
0024990061999991929101102004+62000-033000SAO  +00004YA  V02099999999999999999N0000001N1+02411+01911999999ADDMA1999999100851MW1001
0024990061999991929101103004+62000-033000SAO  +00004YA  V02099999999999999999N0000001N1+02411+01911999999ADDMA1999999100851MW1001
0024990061999991929101104004+62000-033000SAO  +00004YA  V02099999999999999999N0000001N1+02461+01961999999ADDMA1999999100811MW1001
0024990061999991929101105004+62000-033000SAO  +00004YA  V02099999999999999999N0000001N1+02461+01961999999ADDMA1999999100851MW1001
0024990061999991929101106004+62000-033000SAO  +00004YA  V02099999999999999999N0000001N1+02411+01961999999ADDMA1999999100851MW1001
0024990061999991929101107004+62000-033000SAO  +00004YA  V02099999999999999999N0000001N1+02411+01961999999ADDMA1999999100881MW1001
0024990061999991929101108004+62000-033000SAO  +00004YA  V02099999999999999999N0000001N1+02411+01911999999ADDMA1999999100951MW1001
0024990061999991929101109004+62000-033000SAO  +00004YA  V02099999999999999999N0000001N1+02461+01961999999ADDMA1999999101051MW1001
0024990061999991929101110004+62000-033000SAO  +00004YA  V02099999999999999999N0000001N1+02571+01911999999ADDMA1999999101081MW1001
0024990061999991929101111004+62000-033000SAO  +00004YA  V02099999999999999999N0000001N1+02631+01961999999ADDMA1999999101081MW1001
0024990061999991929101112004+62000-033000SAO  +00004YA  V02099999999999999999N0000001N1+02681+01961999999ADDMA1999999101081MW1001
0024990061999991929101113004+62000-033000SAO  +00004YA  V02099999999999999999N0000001N1+02741+01911999999ADDMA1999999101021MW1001
0024990061999991929101114004+62000-033000SAO  +00004YA  V02099999999999999999N0000001N1+02681+01911999999ADDMA1999999100911MW1001
0024990061999991929101115004+62000-033000SAO  +00004YA  V02099999999999999999N0000001N1+02681+01851999999ADDMA1999999100781MW1001
0024990061999991929101116004+62000-033000SAO  +00004YA  V02099999999999999999N0000001N1+02631+01851999999ADDMA1999999100711MW1001
0024990061999991929101117004+62000-033000SAO  +00004YA  V02099999999999999999N0000001N1+02631+01801999999ADDMA1999999100681MW1001
0024990061999991929101118004+62000-033000SAO  +00004YA  V02099999999999999999N0000001N1+02571+01851999999ADDMA1999999100711MW1001
0024990061999991929101119004+62000-033000SAO  +00004YA  V02099999999999999999N0000001N1+02521+01911999999ADDMA1999999100781MW1001
0024990061999991929101120004+62000-033000SAO  +00004YA  V02099999999999999999N0000001N1+02461+01911999999ADDMA1999999100811MW1001
0024990061999991929101121004+62000-033000SAO  +00004YA  V02099999999999999999N0000001N1+02461+01911999999ADDMA1999999100881MW1001
0024990061999991929101122004+62000-033000SAO  +00004YA  V02099999999999999999N0000001N1+02461+01911999999ADDMA1999999100911MW1001
0024990061999991929101123004+62000-033000SAO  +00004YA  V02099999999999999999N0000001N1+02461+01911999999ADDMA1999999100951MW1001
0024990061999991929101200004+62000-033000SAO  +00004YA  V02099999999999999999N0000001N1+02461+01911999999ADDMA1999999100981MW1001
0024990061999991929101201004+62000-033000SAO  +00004YA  V02099999999999999999N0000001N1+02461+01961999999ADDMA1999999100981MW1001
0024990061999991929101202004+62000-033000SAO  +00004YA  V02099999999999999999N0000001N1+02461+01961999999ADDMA1999999100951MW1001
0024990061999991929101203004+62000-033000SAO  +00004YA  V02099999999999999999N0000001N1+02461+01961999999ADDMA1999999100911MW1001
0024990061999991929101204004+62000-033000SAO  +00004YA  V02099999999999999999N0000001N1+02411+01961999999ADDMA1999999100881MW1001
0024990061999991929101205004+62000-033000SAO  +00004YA  V02099999999999999999N0000001N1+02461+02021999999ADDMA1999999100881MW1001
0024990061999991929101206004+62000-033000SAO  +00004YA  V02099999999999999999N0000001N1+02411+02021999999ADDMA1999999100911MW1001
0024990061999991929101207004+62000-033000SAO  +00004YA  V02099999999999999999N0000001N1+02411+01961999999ADDMA1999999100951MW1001
0024990061999991929101208004+62000-033000SAO  +00004YA  V02099999999999999999N0000001N1+02411+01961999999ADDMA1999999101051MW1001
0024990061999991929101209004+62000-033000SAO  +00004YA  V02099999999999999999N0000001N1+02461+01961999999ADDMA1999999101121MW1001
0024990061999991929101210004+62000-033000SAO  +00004YA  V02099999999999999999N0000001N1+02461+01911999999ADDMA1999999101191MW1001
0024990061999991929101211004+62000-033000SAO  +00004YA  V02099999999999999999N0000001N1+02521+01961999999ADDMA1999999101221MW1001
0024990061999991929101212004+62000-033000SAO  +00004YA  V02099999999999999999N0000001N1+02571+01801999999ADDMA1999999101191MW1001
0024990061999991929101213004+62000-033000SAO  +00004YA  V02099999999999999999N0000001N1+02631+01911999999ADDMA1999999101121MW1001
0024990061999991929101214004+62000-033000SAO  +00004YA  V02099999999999999999N0000001N1+02631+01851999999ADDMA1999999101021MW1001
0024990061999991929101215004+62000-033000SAO  +00004YA  V02099999999999999999N0000001N1+02681+01571999999ADDMA1999999100951MW1001
0024990061999991929101216004+62000-033000SAO  +00004YA  V02099999999999999999N0000001N1+02681+01631999999ADDMA1999999100881MW1001
0024990061999991929101217004+62000-033000SAO  +00004YA  V02099999999999999999N0000001N1+02631+01631999999ADDMA1999999100881MW1001
0024990061999991929101218004+62000-033000SAO  +00004YA  V02099999999999999999N0000001N1+02631+01631999999ADDMA1999999100881MW1001
0024990061999991929101219004+62000-033000SAO  +00004YA  V02099999999999999999N0000001N1+02571+01741999999ADDMA1999999100911MW1001
0024990061999991929101220004+62000-033000SAO  +00004YA  V02099999999999999999N0000001N1+02521+01851999999ADDMA1999999100981MW1001
0024990061999991929101221004+62000-033000SAO  +00004YA  V02099999999999999999N0000001N1+02461+01961999999ADDMA1999999101081MW1001
0024990061999991929101222004+62000-033000SAO  +00004YA  V02099999999999999999N0000001N1+02461+01911999999ADDMA1999999101151MW1001
0024990061999991929101223004+62000-033000SAO  +00004YA  V02099999999999999999N0000001N1+02461+01911999999ADDMA1999999101151MW1001
0024990061999991929101300004+62000-033000SAO  +00004YA  V02099999999999999999N0000001N1+02461+01911999999ADDMA1999999101151MW1001
0024990061999991929101301004+62000-033000SAO  +00004YA  V02099999999999999999N0000001N1+02461+01911999999ADDMA1999999101151MW1001
0024990061999991929101302004+62000-033000SAO  +00004YA  V02099999999999999999N0000001N1+02461+01911999999ADDMA1999999101121MW1001
0024990061999991929101303004+62000-033000SAO  +00004YA  V02099999999999999999N0000001N1+02461+01911999999ADDMA1999999101081MW1001
0024990061999991929101304004+62000-033000SAO  +00004YA  V02099999999999999999N0000001N1+02411+01911999999ADDMA1999999101051MW1001
0024990061999991929101305004+62000-033000SAO  +00004YA  V02099999999999999999N0000001N1+02411+01911999999ADDMA1999999101051MW1001
0024990061999991929101306004+62000-033000SAO  +00004YA  V02099999999999999999N0000001N1+02411+01851999999ADDMA1999999101051MW1001
0024990061999991929101307004+62000-033000SAO  +00004YA  V02099999999999999999N0000001N1+02351+01851999999ADDMA1999999101121MW1001
0024990061999991929101308004+62000-033000SAO  +00004YA  V02099999999999999999N0000001N1+02351+01851999999ADDMA1999999101191MW1001
0024990061999991929101309004+62000-033000SAO  +00004YA  V02099999999999999999N0000001N1+02411+01851999999ADDMA1999999101251MW1001
0024990061999991929101310004+62000-033000SAO  +00004YA  V02099999999999999999N0000001N1+02461+01851999999ADDMA1999999101291MW1001
0024990061999991929101311004+62000-033000SAO  +00004YA  V02099999999999999999N0000001N1+02571+01691999999ADDMA1999999101291MW1001
0024990061999991929101312004+62000-033000SAO  +00004YA  V02099999999999999999N0000001N1+02681+01631999999ADDMA1999999101251MW1001
0024990061999991929101313004+62000-033000SAO  +00004YA  V02099999999999999999N0000001N1+02741+01571999999ADDMA1999999101191MW1001
0024990061999991929101314004+62000-033000SAO  +00004YA  V02099999999999999999N0000001N1+02741+01571999999ADDMA1999999101151MW1001
0024990061999991929101315004+62000-033000SAO  +00004YA  V02099999999999999999N0000001N1+02631+01741999999ADDMA1999999101081MW1001
0024990061999991929101316004+62000-033000SAO  +00004YA  V02099999999999999999N0000001N1+02571+01741999999ADDMA1999999100981MW1001
0024990061999991929101317004+62000-033000SAO  +00004YA  V02099999999999999999N0000001N1+02571+01801999999ADDMA1999999100981MW1001
0024990061999991929101318004+62000-033000SAO  +00004YA  V02099999999999999999N0000001N1+02521+01851999999ADDMA1999999100981MW1001
0024990061999991929101319004+62000-033000SAO  +00004YA  V02099999999999999999N0000001N1+02461+01851999999ADDMA1999999100981MW1001
0024990061999991929101320004+62000-033000SAO  +00004YA  V02099999999999999999N0000001N1+02461+01911999999ADDMA1999999101051MW1001
0024990061999991929101321004+62000-033000SAO  +00004YA  V02099999999999999999N0000001N1+02461+01961999999ADDMA1999999101151MW1001
0024990061999991929101322004+62000-033000SAO  +00004YA  V02099999999999999999N0000001N1+02461+01961999999ADDMA1999999101191MW1001
0024990061999991929101323004+62000-033000SAO  +00004YA  V02099999999999999999N0000001N1+02461+01961999999ADDMA1999999101221MW1001
0024990061999991929101400004+62000-033000SAO  +00004YA  V02099999999999999999N0000001N1+02461+01961999999ADDMA1999999101221MW1001
0024990061999991929101401004+62000-033000SAO  +00004YA  V02099999999999999999N0000001N1+02461+01961999999ADDMA1999999101221MW1001
0024990061999991929101402004+62000-033000SAO  +00004YA  V02099999999999999999N0000001N1+02521+01961999999ADDMA1999999101191MW1001
0024990061999991929101403004+62000-033000SAO  +00004YA  V02099999999999999999N0000001N1+02521+01911999999ADDMA1999999101121MW1001
0024990061999991929101404004+62000-033000SAO  +00004YA  V02099999999999999999N0000001N1+02521+01911999999ADDMA1999999101081MW1001
0024990061999991929101405004+62000-033000SAO  +00004YA  V02099999999999999999N0000001N1+02461+01961999999ADDMA1999999101051MW1001
0024990061999991929101406004+62000-033000SAO  +00004YA  V02099999999999999999N0000001N1+02411+01911999999ADDMA1999999101081MW1001
0024990061999991929101407004+62000-033000SAO  +00004YA  V02099999999999999999N0000001N1+02351+01851999999ADDMA1999999101151MW1001
0024990061999991929101408004+62000-033000SAO  +00004YA  V02099999999999999999N0000001N1+02411+01741999999ADDMA1999999101221MW1001
0024990061999991929101409004+62000-033000SAO  +00004YA  V02099999999999999999N0000001N1+02521+01741999999ADDMA1999999101251MW1001
0024990061999991929101410004+62000-033000SAO  +00004YA  V02099999999999999999N0000001N1+02631+01851999999ADDMA1999999101221MW1001
0024990061999991929101411004+62000-033000SAO  +00004YA  V02099999999999999999N0000001N1+02631+01851999999ADDMA1999999101321MW1001
0024990061999991929101412004+62000-033000SAO  +00004YA  V02099999999999999999N0000001N1+02631+01911999999ADDMA1999999101291MW1001
0024990061999991929101413004+62000-033000SAO  +00004YA  V02099999999999999999N0000001N1+02681+01911999999ADDMA1999999101191MW1001
0024990061999991929101414004+62000-033000SAO  +00004YA  V02099999999999999999N0000001N1+02741+01851999999ADDMA1999999101081MW1001
0024990061999991929101415004+62000-033000SAO  +00004YA  V02099999999999999999N0000001N1+02801+01851999999ADDMA1999999100981MW1001
0024990061999991929101416004+62000-033000SAO  +00004YA  V02099999999999999999N0000001N1+02741+01911999999ADDMA1999999100951MW1001
0024990061999991929101417004+62000-033000SAO  +00004YA  V02099999999999999999N0000001N1+02681+01851999999ADDMA1999999100911MW1001
0024990061999991929101418004+62000-033000SAO  +00004YA  V02099999999999999999N0000001N1+02631+01801999999ADDMA1999999100951MW1001
0024990061999991929101419004+62000-033000SAO  +00004YA  V02099999999999999999N0000001N1+02521+01911999999ADDMA1999999100951MW1001
0024990061999991929101420004+62000-033000SAO  +00004YA  V02099999999999999999N0000001N1+02521+01961999999ADDMA1999999101021MW1001
0024990061999991929101421004+62000-033000SAO  +00004YA  V02099999999999999999N0000001N1+02461+01961999999ADDMA1999999101121MW1001
0024990061999991929101422004+62000-033000SAO  +00004YA  V02099999999999999999N0000001N1+02461+02021999999ADDMA1999999101151MW1001
0024990061999991929101423004+62000-033000SAO  +00004YA  V02099999999999999999N0000001N1+02521+02071999999ADDMA1999999101191MW1001
0024990061999991929101500004+62000-033000SAO  +00004YA  V02099999999999999999N0000001N1+02521+02131999999ADDMA1999999101151MW1001
0024990061999991929101501004+62000-033000SAO  +00004YA  V02099999999999999999N0000001N1+02521+02131999999ADDMA1999999101151MW1001
0024990061999991929101502004+62000-033000SAO  +00004YA  V02099999999999999999N0000001N1+02461+02131999999ADDMA1999999101081MW1001
0024990061999991929101503004+62000-033000SAO  +00004YA  V02099999999999999999N0000001N1+02461+01961999999ADDMA1999999101081MW1001
0024990061999991929101504004+62000-033000SAO  +00004YA  V02099999999999999999N0000001N1+02411+01911999999ADDMA1999999101051MW1001
0024990061999991929101505004+62000-033000SAO  +00004YA  V02099999999999999999N0000001N1+02411+01911999999ADDMA1999999101021MW1001
0024990061999991929101506004+62000-033000SAO  +00004YA  V02099999999999999999N0000001N1+02351+01961999999ADDMA1999999101021MW1001
0024990061999991929101507004+62000-033000SAO  +00004YA  V02099999999999999999N0000001N1+02351+01851999999ADDMA1999999101051MW1001
0024990061999991929101508004+62000-033000SAO  +00004YA  V02099999999999999999N0000001N1+02411+01851999999ADDMA1999999101121MW1001
0024990061999991929101509004+62000-033000SAO  +00004YA  V02099999999999999999N0000001N1+02571+01911999999ADDMA1999999101191MW1001
0024990061999991929101510004+62000-033000SAO  +00004YA  V02099999999999999999N0000001N1+02681+01851999999ADDMA1999999101221MW1001
0024990061999991929101511004+62000-033000SAO  +00004YA  V02099999999999999999N0000001N1+02681+01911999999ADDMA1999999101251MW1001
0024990061999991929101512004+62000-033000SAO  +00004YA  V02099999999999999999N0000001N1+02741+01911999999ADDMA1999999101221MW1001
0024990061999991929101513004+62000-033000SAO  +00004YA  V02099999999999999999N0000001N1+02741+01961999999ADDMA1999999101081MW1001
0024990061999991929101514004+62000-033000SAO  +00004YA  V02099999999999999999N0000001N1+02741+02021999999ADDMA1999999101021MW1001
0024990061999991929101515004+62000-033000SAO  +00004YA  V02099999999999999999N0000001N1+02741+02021999999ADDMA1999999100951MW1001
0024990061999991929101516004+62000-033000SAO  +00004YA  V02099999999999999999N0000001N1+02681+01961999999ADDMA1999999100881MW1001
0024990061999991929101517004+62000-033000SAO  +00004YA  V02099999999999999999N0000001N1+02681+01961999999ADDMA1999999100881MW1001
0024990061999991929101518004+62000-033000SAO  +00004YA  V02099999999999999999N0000001N1+02631+01961999999ADDMA1999999100911MW1001
0024990061999991929101519004+62000-033000SAO  +00004YA  V02099999999999999999N0000001N1+02571+02021999999ADDMA1999999100951MW1001
0024990061999991929101520004+62000-033000SAO  +00004YA  V02099999999999999999N0000001N1+02521+02021999999ADDMA1999999100981MW1001
0024990061999991929101521004+62000-033000SAO  +00004YA  V02099999999999999999N0000001N1+02521+02071999999ADDMA1999999101021MW1001
0024990061999991929101522004+62000-033000SAO  +00004YA  V02099999999999999999N0000001N1+02461+02131999999ADDMA1999999101081MW1001
0024990061999991929101523004+62000-033000SAO  +00004YA  V02099999999999999999N0000001N1+02461+02131999999ADDMA1999999101121MW1001
0024990061999991929101600004+62000-033000SAO  +00004YA  V02099999999999999999N0000001N1+02461+02131999999ADDMA1999999101121MW1001
0024990061999991929101601004+62000-033000SAO  +00004YA  V02099999999999999999N0000001N1+02461+02131999999ADDMA1999999101051MW1001
0024990061999991929101602004+62000-033000SAO  +00004YA  V02099999999999999999N0000001N1+02461+02131999999ADDMA1999999101021MW1001
0024990061999991929101603004+62000-033000SAO  +00004YA  V02099999999999999999N0000001N1+02461+02181999999ADDMA1999999100981MW1001
0024990061999991929101604004+62000-033000SAO  +00004YA  V02099999999999999999N0000001N1+02461+02131999999ADDMA1999999100981MW1001
0024990061999991929101605004+62000-033000SAO  +00004YA  V02099999999999999999N0000001N1+02461+02131999999ADDMA1999999100981MW1001
0024990061999991929101606004+62000-033000SAO  +00004YA  V02099999999999999999N0000001N1+02461+02071999999ADDMA1999999100981MW1001
0024990061999991929101607004+62000-033000SAO  +00004YA  V02099999999999999999N0000001N1+02301+02071999999ADDMA1999999101021MW1001
0024990061999991929101608004+62000-033000SAO  +00004YA  V02099999999999999999N0000001N1+02301+02071999999ADDMA1999999101081MW1001
0024990061999991929101609004+62000-033000SAO  +00004YA  V02099999999999999999N0000001N1+02521+02021999999ADDMA1999999101151MW1001
0024990061999991929101610004+62000-033000SAO  +00004YA  V02099999999999999999N0000001N1+02631+01851999999ADDMA1999999101191MW1001
0024990061999991929101611004+62000-033000SAO  +00004YA  V02099999999999999999N0000001N1+02741+01801999999ADDMA1999999101191MW1001
0024990061999991929101612004+62000-033000SAO  +00004YA  V02099999999999999999N0000001N1+02851+01851999999ADDMA1999999101121MW1001
0024990061999991929101613004+62000-033000SAO  +00004YA  V02099999999999999999N0000001N1+02911+01741999999ADDMA1999999101051MW1001
0024990061999991929101614004+62000-033000SAO  +00004YA  V02099999999999999999N0000001N1+03021+01911999999ADDMA1999999100951MW1001
0024990061999991929101615004+62000-033000SAO  +00004YA  V02099999999999999999N0000001N1+03021+01801999999ADDMA1999999100881MW1001
0024990061999991929101616004+62000-033000SAO  +00004YA  V02099999999999999999N0000001N1+02911+02071999999ADDMA1999999100811MW1001
0024990061999991929101617004+62000-033000SAO  +00004YA  V02099999999999999999N0000001N1+02911+01961999999ADDMA1999999100811MW1001
0024990061999991929101618004+62000-033000SAO  +00004YA  V02099999999999999999N0000001N1+02801+01961999999ADDMA1999999100851MW1001
0024990061999991929101619004+62000-033000SAO  +00004YA  V02099999999999999999N0000001N1+02801+01911999999ADDMA1999999100881MW1001
0024990061999991929101620004+62000-033000SAO  +00004YA  V02099999999999999999N0000001N1+02681+01961999999ADDMA1999999100911MW1001
0024990061999991929101621004+62000-033000SAO  +00004YA  V02099999999999999999N0000001N1+02681+02021999999ADDMA1999999101021MW1001
0024990061999991929101622004+62000-033000SAO  +00004YA  V02099999999999999999N0000001N1+02571+02131999999ADDMA1999999101151MW1001
0024990061999991929101623004+62000-033000SAO  +00004YA  V02099999999999999999N0000001N1+02631+01911999999ADDMA1999999101191MW1001
0024990061999991929101700004+62000-033000SAO  +00004YA  V02099999999999999999N0000001N1+02571+02071999999ADDMA1999999101191MW1001
0024990061999991929101701004+62000-033000SAO  +00004YA  V02099999999999999999N0000001N1+02521+01741999999ADDMA1999999101151MW1001
0024990061999991929101702004+62000-033000SAO  +00004YA  V02099999999999999999N0000001N1+02461+01691999999ADDMA1999999101121MW1001
0024990061999991929101703004+62000-033000SAO  +00004YA  V02099999999999999999N0000001N1+02461+01571999999ADDMA1999999101081MW1001
0024990061999991929101704004+62000-033000SAO  +00004YA  V02099999999999999999N0000001N1+02411+01521999999ADDMA1999999101081MW1001
0024990061999991929101705004+62000-033000SAO  +00004YA  V02099999999999999999N0000001N1+02411+01461999999ADDMA1999999101081MW1001
0024990061999991929101706004+62000-033000SAO  +00004YA  V02099999999999999999N0000001N1+02411+01411999999ADDMA1999999101121MW1001
0024990061999991929101707004+62000-033000SAO  +00004YA  V02099999999999999999N0000001N1+02351+01411999999ADDMA1999999101221MW1001
0024990061999991929101708004+62000-033000SAO  +00004YA  V02099999999999999999N0000001N1+02351+01411999999ADDMA1999999101291MW1001
0024990061999991929101709004+62000-033000SAO  +00004YA  V02099999999999999999N0000001N1+02411+01461999999ADDMA1999999101351MW1001
0024990061999991929101710004+62000-033000SAO  +00004YA  V02099999999999999999N0000001N1+02571+01571999999ADDMA1999999101421MW1001
0024990061999991929101711004+62000-033000SAO  +00004YA  V02099999999999999999N0000001N1+02681+01571999999ADDMA1999999101391MW1001
0024990061999991929101712004+62000-033000SAO  +00004YA  V02099999999999999999N0000001N1+02681+01571999999ADDMA1999999101391MW1001
0024990061999991929101713004+62000-033000SAO  +00004YA  V02099999999999999999N0000001N1+02801+01691999999ADDMA1999999101291MW1001
0024990061999991929101714004+62000-033000SAO  +00004YA  V02099999999999999999N0000001N1+02851+01691999999ADDMA1999999101221MW1001
0024990061999991929101715004+62000-033000SAO  +00004YA  V02099999999999999999N0000001N1+02851+01801999999ADDMA1999999101151MW1001
0024990061999991929101716004+62000-033000SAO  +00004YA  V02099999999999999999N0000001N1+02681+01851999999ADDMA1999999101151MW1001
0024990061999991929101717004+62000-033000SAO  +00004YA  V02099999999999999999N0000001N1+02631+01911999999ADDMA1999999101151MW1001
0024990061999991929101718004+62000-033000SAO  +00004YA  V02099999999999999999N0000001N1+02571+02071999999ADDMA1999999101191MW1001
0024990061999991929101719004+62000-033000SAO  +00004YA  V02099999999999999999N0000001N1+02521+02021999999ADDMA1999999101221MW1001
0024990061999991929101720004+62000-033000SAO  +00004YA  V02099999999999999999N0000001N1+02521+02021999999ADDMA1999999101291MW1001
0024990061999991929101721004+62000-033000SAO  +00004YA  V02099999999999999999N0000001N1+02521+01961999999ADDMA1999999101351MW1001
0024990061999991929101722004+62000-033000SAO  +00004YA  V02099999999999999999N0000001N1+02521+01961999999ADDMA1999999101351MW1001
0024990061999991929101723004+62000-033000SAO  +00004YA  V02099999999999999999N0000001N1+02461+01961999999ADDMA1999999101421MW1001
0024990061999991929101800004+62000-033000SAO  +00004YA  V02099999999999999999N0000001N1+02461+02021999999ADDMA1999999101391MW1001
0024990061999991929101801004+62000-033000SAO  +00004YA  V02099999999999999999N0000001N1+02461+01961999999ADDMA1999999101351MW1001
0024990061999991929101802004+62000-033000SAO  +00004YA  V02099999999999999999N0000001N1+02461+02021999999ADDMA1999999101351MW1001
0024990061999991929101803004+62000-033000SAO  +00004YA  V02099999999999999999N0000001N1+02411+01961999999ADDMA1999999101291MW1001
0024990061999991929101804004+62000-033000SAO  +00004YA  V02099999999999999999N0000001N1+02411+01851999999ADDMA1999999101251MW1001
0024990061999991929101805004+62000-033000SAO  +00004YA  V02099999999999999999N0000001N1+02411+01911999999ADDMA1999999101251MW1001
0024990061999991929101806004+62000-033000SAO  +00004YA  V02099999999999999999N0000001N1+02351+01851999999ADDMA1999999101251MW1001
0024990061999991929101807004+62000-033000SAO  +00004YA  V02099999999999999999N0000001N1+02301+01851999999ADDMA1999999101321MW1001
0024990061999991929101808004+62000-033000SAO  +00004YA  V02099999999999999999N0000001N1+02301+01851999999ADDMA1999999101421MW1001
0024990061999991929101809004+62000-033000SAO  +00004YA  V02099999999999999999N0000001N1+02351+01851999999ADDMA1999999101461MW1001
0024990061999991929101810004+62000-033000SAO  +00004YA  V02099999999999999999N0000001N1+02461+01851999999ADDMA1999999101521MW1001
0024990061999991929101811004+62000-033000SAO  +00004YA  V02099999999999999999N0000001N1+02411+01911999999ADDMA1999999101591MW1001
0024990061999991929101812004+62000-033000SAO  +00004YA  V02099999999999999999N0000001N1+02461+01851999999ADDMA1999999101591MW1001
0024990061999991929101813004+62000-033000SAO  +00004YA  V02099999999999999999N0000001N1+02521+01691999999ADDMA1999999101491MW1001
0024990061999991929101814004+62000-033000SAO  +00004YA  V02099999999999999999N0000001N1+02521+01571999999ADDMA1999999101351MW1001
0024990061999991929101815004+62000-033000SAO  +00004YA  V02099999999999999999N0000001N1+02521+01571999999ADDMA1999999101291MW1001
0024990061999991929101816004+62000-033000SAO  +00004YA  V02099999999999999999N0000001N1+02521+01571999999ADDMA1999999101221MW1001
0024990061999991929101817004+62000-033000SAO  +00004YA  V02099999999999999999N0000001N1+02461+01631999999ADDMA1999999101191MW1001
0024990061999991929101818004+62000-033000SAO  +00004YA  V02099999999999999999N0000001N1+02461+01571999999ADDMA1999999101191MW1001
0024990061999991929101819004+62000-033000SAO  +00004YA  V02099999999999999999N0000001N1+02411+01691999999ADDMA1999999101221MW1001
0024990061999991929101820004+62000-033000SAO  +00004YA  V02099999999999999999N0000001N1+02411+01801999999ADDMA1999999101291MW1001
0024990061999991929101821004+62000-033000SAO  +00004YA  V02099999999999999999N0000001N1+02411+01801999999ADDMA1999999101321MW1001
0024990061999991929101822004+62000-033000SAO  +00004YA  V02099999999999999999N0000001N1+02411+01801999999ADDMA1999999101421MW1001
0024990061999991929101823004+62000-033000SAO  +00004YA  V02099999999999999999N0000001N1+02411+01801999999ADDMA1999999101421MW1001
0024990061999991929101900004+62000-033000SAO  +00004YA  V02099999999999999999N0000001N1+02411+01851999999ADDMA1999999101391MW1001
0024990061999991929101901004+62000-033000SAO  +00004YA  V02099999999999999999N0000001N1+02411+01851999999ADDMA1999999101391MW1001
0024990061999991929101902004+62000-033000SAO  +00004YA  V02099999999999999999N0000001N1+02411+01851999999ADDMA1999999101391MW1001
0024990061999991929101903004+62000-033000SAO  +00004YA  V02099999999999999999N0000001N1+02351+01851999999ADDMA1999999101351MW1001
0024990061999991929101904004+62000-033000SAO  +00004YA  V02099999999999999999N0000001N1+02301+01801999999ADDMA1999999101321MW1001
0024990061999991929101905004+62000-033000SAO  +00004YA  V02099999999999999999N0000001N1+02301+01801999999ADDMA1999999101321MW1001
0024990061999991929101906004+62000-033000SAO  +00004YA  V02099999999999999999N0000001N1+02301+01801999999ADDMA1999999101321MW1001
0024990061999991929101907004+62000-033000SAO  +00004YA  V02099999999999999999N0000001N1+02241+01801999999ADDMA1999999101391MW1001
0024990061999991929101908004+62000-033000SAO  +00004YA  V02099999999999999999N0000001N1+02301+01691999999ADDMA1999999101461MW1001
0024990061999991929101909004+62000-033000SAO  +00004YA  V02099999999999999999N0000001N1+02411+01741999999ADDMA1999999101521MW1001
0024990061999991929101910004+62000-033000SAO  +00004YA  V02099999999999999999N0000001N1+02411+01741999999ADDMA1999999101591MW1001
0024990061999991929101911004+62000-033000SAO  +00004YA  V02099999999999999999N0000001N1+02521+01801999999ADDMA1999999101591MW1001
0024990061999991929101912004+62000-033000SAO  +00004YA  V02099999999999999999N0000001N1+02521+01691999999ADDMA1999999101561MW1001
0024990061999991929101913004+62000-033000SAO  +00004YA  V02099999999999999999N0000001N1+02571+01571999999ADDMA1999999101461MW1001
0024990061999991929101914004+62000-033000SAO  +00004YA  V02099999999999999999N0000001N1+02571+01571999999ADDMA1999999101391MW1001
0024990061999991929101915004+62000-033000SAO  +00004YA  V02099999999999999999N0000001N1+02521+01631999999ADDMA1999999101321MW1001
0024990061999991929101916004+62000-033000SAO  +00004YA  V02099999999999999999N0000001N1+02461+01691999999ADDMA1999999101221MW1001
0024990061999991929101917004+62000-033000SAO  +00004YA  V02099999999999999999N0000001N1+02461+01691999999ADDMA1999999101151MW1001
0024990061999991929101918004+62000-033000SAO  +00004YA  V02099999999999999999N0000001N1+02411+01631999999ADDMA1999999101221MW1001
0024990061999991929101919004+62000-033000SAO  +00004YA  V02099999999999999999N0000001N1+02351+01631999999ADDMA1999999101221MW1001
0024990061999991929101920004+62000-033000SAO  +00004YA  V02099999999999999999N0000001N1+02351+01691999999ADDMA1999999100951MW1001
0024990061999991929101921004+62000-033000SAO  +00004YA  V02099999999999999999N0000001N1+02351+01741999999ADDMA1999999101021MW1001
0024990061999991929101922004+62000-033000SAO  +00004YA  V02099999999999999999N0000001N1+02351+01741999999ADDMA1999999101051MW1001
0024990061999991929101923004+62000-033000SAO  +00004YA  V02099999999999999999N0000001N1+02351+01741999999ADDMA1999999101081MW1001
0024990061999991929102000004+62000-033000SAO  +00004YA  V02099999999999999999N0000001N1+02351+01741999999ADDMA1999999101081MW1001
0024990061999991929102001004+62000-033000SAO  +00004YA  V02099999999999999999N0000001N1+02351+01741999999ADDMA1999999101051MW1001
0024990061999991929102002004+62000-033000SAO  +00004YA  V02099999999999999999N0000001N1+02301+01801999999ADDMA1999999101351MW1001
0024990061999991929102003004+62000-033000SAO  +00004YA  V02099999999999999999N0000001N1+02301+01801999999ADDMA1999999101321MW1001
0024990061999991929102004004+62000-033000SAO  +00004YA  V02099999999999999999N0000001N1+02301+01801999999ADDMA1999999101321MW1001
0024990061999991929102005004+62000-033000SAO  +00004YA  V02099999999999999999N0000001N1+02301+01801999999ADDMA1999999101291MW1001
0024990061999991929102006004+62000-033000SAO  +00004YA  V02099999999999999999N0000001N1+02301+01911999999ADDMA1999999101321MW1001
0024990061999991929102007004+62000-033000SAO  +00004YA  V02099999999999999999N0000001N1+02301+01911999999ADDMA1999999101321MW1001
0024990061999991929102008004+62000-033000SAO  +00004YA  V02099999999999999999N0000001N1+02301+01851999999ADDMA1999999101351MW1001
0024990061999991929102009004+62000-033000SAO  +00004YA  V02099999999999999999N0000001N1+02411+01851999999ADDMA1999999101391MW1001
0024990061999991929102010004+62000-033000SAO  +00004YA  V02099999999999999999N0000001N1+02461+01851999999ADDMA1999999101461MW1001
0024990061999991929102011004+62000-033000SAO  +00004YA  V02099999999999999999N0000001N1+02571+01801999999ADDMA1999999101491MW1001
0024990061999991929102012004+62000-033000SAO  +00004YA  V02099999999999999999N0000001N1+02571+01851999999ADDMA1999999101491MW1001
0024990061999991929102013004+62000-033000SAO  +00004YA  V02099999999999999999N0000001N1+02631+01801999999ADDMA1999999101421MW1001
0024990061999991929102014004+62000-033000SAO  +00004YA  V02099999999999999999N0000001N1+02631+01801999999ADDMA1999999101351MW1001
0024990061999991929102015004+62000-033000SAO  +00004YA  V02099999999999999999N0000001N1+02631+01801999999ADDMA1999999101251MW1001
0024990061999991929102016004+62000-033000SAO  +00004YA  V02099999999999999999N0000001N1+02571+01741999999ADDMA1999999101221MW1001
0024990061999991929102017004+62000-033000SAO  +00004YA  V02099999999999999999N0000001N1+02571+01801999999ADDMA1999999101221MW1001
0024990061999991929102018004+62000-033000SAO  +00004YA  V02099999999999999999N0000001N1+02521+01801999999ADDMA1999999101251MW1001
0024990061999991929102019004+62000-033000SAO  +00004YA  V02099999999999999999N0000001N1+02351+01801999999ADDMA1999999101291MW1001
0024990061999991929102020004+62000-033000SAO  +00004YA  V02099999999999999999N0000001N1+02351+01741999999ADDMA1999999101321MW1001
0024990061999991929102021004+62000-033000SAO  +00004YA  V02099999999999999999N0000001N1+02351+01851999999ADDMA1999999101391MW1001
0024990061999991929102022004+62000-033000SAO  +00004YA  V02099999999999999999N0000001N1+02351+01851999999ADDMA1999999101461MW1001
0024990061999991929102023004+62000-033000SAO  +00004YA  V02099999999999999999N0000001N1+02301+01851999999ADDMA1999999101461MW1001
0024990061999991929102100004+62000-033000SAO  +00004YA  V02099999999999999999N0000001N1+02351+01851999999ADDMA1999999101461MW1001
0024990061999991929102101004+62000-033000SAO  +00004YA  V02099999999999999999N0000001N1+02351+01851999999ADDMA1999999101421MW1001
0024990061999991929102102004+62000-033000SAO  +00004YA  V02099999999999999999N0000001N1+02351+01851999999ADDMA1999999101391MW1001
0024990061999991929102103004+62000-033000SAO  +00004YA  V02099999999999999999N0000001N1+02351+01851999999ADDMA1999999101321MW1001
0024990061999991929102104004+62000-033000SAO  +00004YA  V02099999999999999999N0000001N1+02351+01801999999ADDMA1999999101291MW1001
0024990061999991929102105004+62000-033000SAO  +00004YA  V02099999999999999999N0000001N1+02301+01691999999ADDMA1999999101291MW1001
0024990061999991929102106004+62000-033000SAO  +00004YA  V02099999999999999999N0000001N1+02301+01691999999ADDMA1999999101291MW1001
0024990061999991929102107004+62000-033000SAO  +00004YA  V02099999999999999999N0000001N1+02301+01631999999ADDMA1999999101321MW1001
0024990061999991929102108004+62000-033000SAO  +00004YA  V02099999999999999999N0000001N1+02301+01741999999ADDMA1999999101351MW1001
0024990061999991929102109004+62000-033000SAO  +00004YA  V02099999999999999999N0000001N1+02411+01801999999ADDMA1999999101421MW1001
0024990061999991929102110004+62000-033000SAO  +00004YA  V02099999999999999999N0000001N1+02461+01851999999ADDMA1999999101421MW1001
0024990061999991929102111004+62000-033000SAO  +00004YA  V02099999999999999999N0000001N1+02521+01691999999ADDMA1999999101421MW1001
0024990061999991929102112004+62000-033000SAO  +00004YA  V02099999999999999999N0000001N1+02571+01571999999ADDMA1999999101391MW1001
0024990061999991929102113004+62000-033000SAO  +00004YA  V02099999999999999999N0000001N1+02571+01631999999ADDMA1999999101321MW1001
0024990061999991929102114004+62000-033000SAO  +00004YA  V02099999999999999999N0000001N1+02521+01741999999ADDMA1999999101221MW1001
0024990061999991929102115004+62000-033000SAO  +00004YA  V02099999999999999999N0000001N1+02461+01691999999ADDMA1999999101191MW1001
0024990061999991929102116004+62000-033000SAO  +00004YA  V02099999999999999999N0000001N1+02411+01691999999ADDMA1999999101151MW1001
0024990061999991929102117004+62000-033000SAO  +00004YA  V02099999999999999999N0000001N1+02411+01631999999ADDMA1999999101151MW1001
0024990061999991929102118004+62000-033000SAO  +00004YA  V02099999999999999999N0000001N1+02411+01521999999ADDMA1999999101191MW1001
0024990061999991929102119004+62000-033000SAO  +00004YA  V02099999999999999999N0000001N1+02351+01571999999ADDMA1999999101221MW1001
0024990061999991929102120004+62000-033000SAO  +00004YA  V02099999999999999999N0000001N1+02351+01571999999ADDMA1999999101221MW1001
0024990061999991929102121004+62000-033000SAO  +00004YA  V02099999999999999999N0000001N1+02301+01691999999ADDMA1999999101251MW1001
0024990061999991929102122004+62000-033000SAO  +00004YA  V02099999999999999999N0000001N1+02301+01691999999ADDMA1999999101321MW1001
0024990061999991929102123004+62000-033000SAO  +00004YA  V02099999999999999999N0000001N1+02301+01741999999ADDMA1999999101321MW1001
0024990061999991929102200004+62000-033000SAO  +00004YA  V02099999999999999999N0000001N1+02301+01801999999ADDMA1999999101291MW1001
0024990061999991929102201004+62000-033000SAO  +00004YA  V02099999999999999999N0000001N1+02301+01801999999ADDMA1999999101251MW1001
0024990061999991929102202004+62000-033000SAO  +00004YA  V02099999999999999999N0000001N1+02301+01801999999ADDMA1999999101251MW1001
0024990061999991929102203004+62000-033000SAO  +00004YA  V02099999999999999999N0000001N1+02301+01801999999ADDMA1999999101191MW1001
0024990061999991929102204004+62000-033000SAO  +00004YA  V02099999999999999999N0000001N1+02301+01801999999ADDMA1999999101121MW1001
0024990061999991929102205004+62000-033000SAO  +00004YA  V02099999999999999999N0000001N1+02301+01741999999ADDMA1999999101121MW1001
0024990061999991929102206004+62000-033000SAO  +00004YA  V02099999999999999999N0000001N1+02181+01801999999ADDMA1999999101121MW1001
0024990061999991929102207004+62000-033000SAO  +00004YA  V02099999999999999999N0000001N1+02181+01741999999ADDMA1999999101151MW1001
0024990061999991929102208004+62000-033000SAO  +00004YA  V02099999999999999999N0000001N1+02181+01801999999ADDMA1999999101221MW1001
0024990061999991929102209004+62000-033000SAO  +00004YA  V02099999999999999999N0000001N1+02351+01851999999ADDMA1999999101251MW1001
0024990061999991929102210004+62000-033000SAO  +00004YA  V02099999999999999999N0000001N1+02461+01631999999ADDMA1999999101291MW1001
0024990061999991929102211004+62000-033000SAO  +00004YA  V02099999999999999999N0000001N1+02521+01461999999ADDMA1999999101291MW1001
0024990061999991929102212004+62000-033000SAO  +00004YA  V02099999999999999999N0000001N1+02631+01411999999ADDMA1999999101251MW1001
0024990061999991929102213004+62000-033000SAO  +00004YA  V02099999999999999999N0000001N1+02681+01241999999ADDMA1999999101191MW1001
0024990061999991929102214004+62000-033000SAO  +00004YA  V02099999999999999999N0000001N1+02741+01301999999ADDMA1999999101081MW1001
0024990061999991929102215004+62000-033000SAO  +00004YA  V02099999999999999999N0000001N1+02741+01301999999ADDMA1999999101021MW1001
0024990061999991929102216004+62000-033000SAO  +00004YA  V02099999999999999999N0000001N1+02571+01691999999ADDMA1999999100981MW1001
0024990061999991929102217004+62000-033000SAO  +00004YA  V02099999999999999999N0000001N1+02521+01691999999ADDMA1999999100981MW1001
0024990061999991929102218004+62000-033000SAO  +00004YA  V02099999999999999999N0000001N1+02411+01691999999ADDMA1999999101051MW1001
0024990061999991929102219004+62000-033000SAO  +00004YA  V02099999999999999999N0000001N1+02351+01631999999ADDMA1999999101081MW1001
0024990061999991929102220004+62000-033000SAO  +00004YA  V02099999999999999999N0000001N1+02411+01631999999ADDMA1999999101121MW1001
0024990061999991929102221004+62000-033000SAO  +00004YA  V02099999999999999999N0000001N1+02411+01631999999ADDMA1999999101151MW1001
0024990061999991929102222004+62000-033000SAO  +00004YA  V02099999999999999999N0000001N1+02411+01631999999ADDMA1999999101221MW1001
0024990061999991929102223004+62000-033000SAO  +00004YA  V02099999999999999999N0000001N1+02411+01631999999ADDMA1999999101251MW1001
0024990061999991929102300004+62000-033000SAO  +00004YA  V02099999999999999999N0000001N1+02351+01741999999ADDMA1999999101221MW1001
0024990061999991929102301004+62000-033000SAO  +00004YA  V02099999999999999999N0000001N1+02351+01741999999ADDMA1999999101221MW1001
0024990061999991929102302004+62000-033000SAO  +00004YA  V02099999999999999999N0000001N1+02301+01691999999ADDMA1999999101191MW1001
0024990061999991929102303004+62000-033000SAO  +00004YA  V02099999999999999999N0000001N1+02301+01801999999ADDMA1999999101151MW1001
0024990061999991929102304004+62000-033000SAO  +00004YA  V02099999999999999999N0000001N1+02181+01851999999ADDMA1999999101151MW1001
0024990061999991929102305004+62000-033000SAO  +00004YA  V02099999999999999999N0000001N1+02131+01851999999ADDMA1999999101121MW1001
0024990061999991929102306004+62000-033000SAO  +00004YA  V02099999999999999999N0000001N1+02131+01801999999ADDMA1999999101121MW1001
0024990061999991929102307004+62000-033000SAO  +00004YA  V02099999999999999999N0000001N1+02181+01851999999ADDMA1999999101151MW1001
0024990061999991929102308004+62000-033000SAO  +00004YA  V02099999999999999999N0000001N1+02181+01801999999ADDMA1999999101191MW1001
0024990061999991929102309004+62000-033000SAO  +00004YA  V02099999999999999999N0000001N1+02181+01851999999ADDMA1999999101221MW1001
0024990061999991929102310004+62000-033000SAO  +00004YA  V02099999999999999999N0000001N1+02241+01801999999ADDMA1999999101251MW1001
0024990061999991929102311004+62000-033000SAO  +00004YA  V02099999999999999999N0000001N1+02301+01801999999ADDMA1999999101251MW1001
0024990061999991929102312004+62000-033000SAO  +00004YA  V02099999999999999999N0000001N1+02351+01851999999ADDMA1999999101221MW1001
0024990061999991929102313004+62000-033000SAO  +00004YA  V02099999999999999999N0000001N1+02351+01801999999ADDMA1999999101191MW1001
0024990061999991929102314004+62000-033000SAO  +00004YA  V02099999999999999999N0000001N1+02411+01801999999ADDMA1999999101121MW1001
0024990061999991929102315004+62000-033000SAO  +00004YA  V02099999999999999999N0000001N1+02461+01801999999ADDMA1999999101051MW1001
0024990061999991929102316004+62000-033000SAO  +00004YA  V02099999999999999999N0000001N1+02411+01691999999ADDMA1999999101021MW1001
0024990061999991929102317004+62000-033000SAO  +00004YA  V02099999999999999999N0000001N1+02461+01691999999ADDMA1999999101021MW1001
0024990061999991929102318004+62000-033000SAO  +00004YA  V02099999999999999999N0000001N1+02411+01801999999ADDMA1999999101051MW1001
0024990061999991929102319004+62000-033000SAO  +00004YA  V02099999999999999999N0000001N1+02351+01741999999ADDMA1999999101051MW1001
0024990061999991929102320004+62000-033000SAO  +00004YA  V02099999999999999999N0000001N1+02301+01741999999ADDMA1999999101081MW1001
0024990061999991929102321004+62000-033000SAO  +00004YA  V02099999999999999999N0000001N1+02241+01741999999ADDMA1999999101151MW1001
0024990061999991929102322004+62000-033000SAO  +00004YA  V02099999999999999999N0000001N1+02301+01691999999ADDMA1999999101221MW1001
0024990061999991929102323004+62000-033000SAO  +00004YA  V02099999999999999999N0000001N1+02301+01691999999ADDMA1999999101251MW1001
0024990061999991929102400004+62000-033000SAO  +00004YA  V02099999999999999999N0000001N1+02301+01691999999ADDMA1999999101251MW1001
0024990061999991929102401004+62000-033000SAO  +00004YA  V02099999999999999999N0000001N1+02301+01691999999ADDMA1999999101221MW1001
0024990061999991929102402004+62000-033000SAO  +00004YA  V02099999999999999999N0000001N1+02301+01691999999ADDMA1999999101151MW1001
0024990061999991929102403004+62000-033000SAO  +00004YA  V02099999999999999999N0000001N1+02301+01691999999ADDMA1999999101151MW1001
0024990061999991929102404004+62000-033000SAO  +00004YA  V02099999999999999999N0000001N1+02241+01691999999ADDMA1999999101121MW1001
0024990061999991929102405004+62000-033000SAO  +00004YA  V02099999999999999999N0000001N1+02241+01741999999ADDMA1999999101081MW1001
0024990061999991929102406004+62000-033000SAO  +00004YA  V02099999999999999999N0000001N1+02241+01741999999ADDMA1999999101121MW1001
0024990061999991929102407004+62000-033000SAO  +00004YA  V02099999999999999999N0000001N1+02241+01801999999ADDMA1999999101151MW1001
0024990061999991929102408004+62000-033000SAO  +00004YA  V02099999999999999999N0000001N1+02241+01801999999ADDMA1999999101191MW1001
0024990061999991929102409004+62000-033000SAO  +00004YA  V02099999999999999999N0000001N1+02411+01801999999ADDMA1999999101191MW1001
0024990061999991929102410004+62000-033000SAO  +00004YA  V02099999999999999999N0000001N1+02521+01851999999ADDMA1999999101251MW1001
0024990061999991929102411004+62000-033000SAO  +00004YA  V02099999999999999999N0000001N1+02631+01851999999ADDMA1999999101251MW1001
0024990061999991929102412004+62000-033000SAO  +00004YA  V02099999999999999999N0000001N1+02681+01801999999ADDMA1999999101191MW1001
0024990061999991929102413004+62000-033000SAO  +00004YA  V02099999999999999999N0000001N1+02571+01851999999ADDMA1999999101121MW1001
0024990061999991929102414004+62000-033000SAO  +00004YA  V02099999999999999999N0000001N1+02571+01851999999ADDMA1999999101051MW1001
0024990061999991929102415004+62000-033000SAO  +00004YA  V02099999999999999999N0000001N1+02521+01851999999ADDMA1999999100981MW1001
0024990061999991929102416004+62000-033000SAO  +00004YA  V02099999999999999999N0000001N1+02631+01851999999ADDMA1999999100951MW1001
0024990061999991929102417004+62000-033000SAO  +00004YA  V02099999999999999999N0000001N1+02571+01851999999ADDMA1999999100911MW1001
0024990061999991929102418004+62000-033000SAO  +00004YA  V02099999999999999999N0000001N1+02521+01851999999ADDMA1999999100911MW1001
0024990061999991929102419004+62000-033000SAO  +00004YA  V02099999999999999999N0000001N1+02411+01851999999ADDMA1999999100981MW1001
0024990061999991929102420004+62000-033000SAO  +00004YA  V02099999999999999999N0000001N1+02411+01911999999ADDMA1999999101051MW1001
0024990061999991929102421004+62000-033000SAO  +00004YA  V02099999999999999999N0000001N1+02411+01911999999ADDMA1999999101121MW1001
0024990061999991929102422004+62000-033000SAO  +00004YA  V02099999999999999999N0000001N1+02351+01911999999ADDMA1999999101191MW1001
0024990061999991929102423004+62000-033000SAO  +00004YA  V02099999999999999999N0000001N1+02351+01961999999ADDMA1999999101221MW1001
0024990061999991929102500004+62000-033000SAO  +00004YA  V02099999999999999999N0000001N1+02351+01961999999ADDMA1999999101251MW1001
0024990061999991929102501004+62000-033000SAO  +00004YA  V02099999999999999999N0000001N1+02351+01741999999ADDMA1999999101251MW1001
0024990061999991929102502004+62000-033000SAO  +00004YA  V02099999999999999999N0000001N1+02351+01801999999ADDMA1999999101251MW1001
0024990061999991929102503004+62000-033000SAO  +00004YA  V02099999999999999999N0000001N1+02301+01801999999ADDMA1999999101251MW1001
0024990061999991929102504004+62000-033000SAO  +00004YA  V02099999999999999999N0000001N1+02301+01801999999ADDMA1999999101221MW1001
0024990061999991929102505004+62000-033000SAO  +00004YA  V02099999999999999999N0000001N1+02301+01801999999ADDMA1999999101221MW1001
0024990061999991929102506004+62000-033000SAO  +00004YA  V02099999999999999999N0000001N1+02301+01851999999ADDMA1999999101251MW1001
0024990061999991929102507004+62000-033000SAO  +00004YA  V02099999999999999999N0000001N1+02241+01851999999ADDMA1999999101351MW1001
0024990061999991929102508004+62000-033000SAO  +00004YA  V02099999999999999999N0000001N1+02301+01851999999ADDMA1999999101421MW1001
0024990061999991929102509004+62000-033000SAO  +00004YA  V02099999999999999999N0000001N1+02351+01851999999ADDMA1999999101491MW1001
0024990061999991929102510004+62000-033000SAO  +00004YA  V02099999999999999999N0000001N1+02411+01911999999ADDMA1999999101521MW1001
0024990061999991929102511004+62000-033000SAO  +00004YA  V02099999999999999999N0000001N1+02461+01961999999ADDMA1999999101561MW1001
0024990061999991929102512004+62000-033000SAO  +00004YA  V02099999999999999999N0000001N1+02521+01801999999ADDMA1999999101491MW1001
0024990061999991929102513004+62000-033000SAO  +00004YA  V02099999999999999999N0000001N1+02631+01801999999ADDMA1999999101421MW1001
0024990061999991929102514004+62000-033000SAO  +00004YA  V02099999999999999999N0000001N1+02681+01851999999ADDMA1999999101321MW1001
0024990061999991929102515004+62000-033000SAO  +00004YA  V02099999999999999999N0000001N1+02571+01851999999ADDMA1999999101291MW1001
0024990061999991929102516004+62000-033000SAO  +00004YA  V02099999999999999999N0000001N1+02571+01851999999ADDMA1999999101251MW1001
0024990061999991929102517004+62000-033000SAO  +00004YA  V02099999999999999999N0000001N1+02631+01851999999ADDMA1999999101221MW1001
0024990061999991929102518004+62000-033000SAO  +00004YA  V02099999999999999999N0000001N1+02571+01851999999ADDMA1999999101291MW1001
0024990061999991929102519004+62000-033000SAO  +00004YA  V02099999999999999999N0000001N1+02411+01851999999ADDMA1999999101291MW1001
0024990061999991929102520004+62000-033000SAO  +00004YA  V02099999999999999999N0000001N1+02351+01851999999ADDMA1999999101351MW1001
0024990061999991929102521004+62000-033000SAO  +00004YA  V02099999999999999999N0000001N1+02351+01851999999ADDMA1999999101461MW1001
0024990061999991929102522004+62000-033000SAO  +00004YA  V02099999999999999999N0000001N1+02301+01801999999ADDMA1999999101491MW1001
0024990061999991929102523004+62000-033000SAO  +00004YA  V02099999999999999999N0000001N1+02301+01851999999ADDMA1999999101561MW1001
0024990061999991929102600004+62000-033000SAO  +00004YA  V02099999999999999999N0000001N1+02301+01801999999ADDMA1999999101561MW1001
0024990061999991929102601004+62000-033000SAO  +00004YA  V02099999999999999999N0000001N1+02301+01801999999ADDMA1999999101591MW1001
0024990061999991929102602004+62000-033000SAO  +00004YA  V02099999999999999999N0000001N1+02301+01801999999ADDMA1999999101561MW1001
0024990061999991929102603004+62000-033000SAO  +00004YA  V02099999999999999999N0000001N1+02241+01801999999ADDMA1999999101521MW1001
0024990061999991929102604004+62000-033000SAO  +00004YA  V02099999999999999999N0000001N1+02241+01801999999ADDMA1999999101521MW1001
0024990061999991929102605004+62000-033000SAO  +00004YA  V02099999999999999999N0000001N1+02241+01801999999ADDMA1999999101521MW1001
0024990061999991929102606004+62000-033000SAO  +00004YA  V02099999999999999999N0000001N1+02241+01801999999ADDMA1999999101561MW1001
0024990061999991929102607004+62000-033000SAO  +00004YA  V02099999999999999999N0000001N1+02181+01801999999ADDMA1999999101631MW1001
0024990061999991929102608004+62000-033000SAO  +00004YA  V02099999999999999999N0000001N1+02241+01741999999ADDMA1999999101691MW1001
0024990061999991929102609004+62000-033000SAO  +00004YA  V02099999999999999999N0000001N1+02351+01801999999ADDMA1999999101761MW1001
0024990061999991929102610004+62000-033000SAO  +00004YA  V02099999999999999999N0000001N1+02461+01741999999ADDMA1999999101791MW1001
0024990061999991929102611004+62000-033000SAO  +00004YA  V02099999999999999999N0000001N1+02571+01461999999ADDMA1999999101791MW1001
0024990061999991929102612004+62000-033000SAO  +00004YA  V02099999999999999999N0000001N1+02681+01411999999ADDMA1999999101791MW1001
0024990061999991929102613004+62000-033000SAO  +00004YA  V02099999999999999999N0000001N1+02681+01571999999ADDMA1999999101691MW1001
0024990061999991929102614004+62000-033000SAO  +00004YA  V02099999999999999999N0000001N1+02681+01461999999ADDMA1999999101591MW1001
0024990061999991929102615004+62000-033000SAO  +00004YA  V02099999999999999999N0000001N1+02631+01631999999ADDMA1999999101521MW1001
0024990061999991929102616004+62000-033000SAO  +00004YA  V02099999999999999999N0000001N1+02571+01521999999ADDMA1999999101461MW1001
0024990061999991929102617004+62000-033000SAO  +00004YA  V02099999999999999999N0000001N1+02521+01521999999ADDMA1999999101461MW1001
0024990061999991929102618004+62000-033000SAO  +00004YA  V02099999999999999999N0000001N1+02461+01691999999ADDMA1999999101461MW1001
0024990061999991929102619004+62000-033000SAO  +00004YA  V02099999999999999999N0000001N1+02351+01741999999ADDMA1999999101521MW1001
0024990061999991929102620004+62000-033000SAO  +00004YA  V02099999999999999999N0000001N1+02301+01801999999ADDMA1999999101591MW1001
0024990061999991929102621004+62000-033000SAO  +00004YA  V02099999999999999999N0000001N1+02301+01851999999ADDMA1999999101661MW1001
0024990061999991929102622004+62000-033000SAO  +00004YA  V02099999999999999999N0000001N1+02301+01851999999ADDMA1999999101691MW1001
0024990061999991929102623004+62000-033000SAO  +00004YA  V02099999999999999999N0000001N1+02301+01851999999ADDMA1999999101731MW1001
0024990061999991929102700004+62000-033000SAO  +00004YA  V02099999999999999999N0000001N1+02301+01851999999ADDMA1999999101731MW1001
0024990061999991929102701004+62000-033000SAO  +00004YA  V02099999999999999999N0000001N1+02301+01801999999ADDMA1999999101731MW1001
0024990061999991929102702004+62000-033000SAO  +00004YA  V02099999999999999999N0000001N1+02301+01851999999ADDMA1999999101691MW1001
0024990061999991929102703004+62000-033000SAO  +00004YA  V02099999999999999999N0000001N1+02301+01801999999ADDMA1999999101661MW1001
0024990061999991929102704004+62000-033000SAO  +00004YA  V02099999999999999999N0000001N1+02301+01741999999ADDMA1999999101631MW1001
0024990061999991929102705004+62000-033000SAO  +00004YA  V02099999999999999999N0000001N1+02241+01741999999ADDMA1999999101631MW1001
0024990061999991929102706004+62000-033000SAO  +00004YA  V02099999999999999999N0000001N1+02181+01741999999ADDMA1999999101661MW1001
0024990061999991929102707004+62000-033000SAO  +00004YA  V02099999999999999999N0000001N1+02181+01741999999ADDMA1999999101731MW1001
0024990061999991929102708004+62000-033000SAO  +00004YA  V02099999999999999999N0000001N1+02181+01741999999ADDMA1999999101791MW1001
0024990061999991929102709004+62000-033000SAO  +00004YA  V02099999999999999999N0000001N1+02241+01691999999ADDMA1999999101861MW1001
0024990061999991929102710004+62000-033000SAO  +00004YA  V02099999999999999999N0000001N1+02351+01631999999ADDMA1999999101901MW1001
0024990061999991929102711004+62000-033000SAO  +00004YA  V02099999999999999999N0000001N1+02461+01571999999ADDMA1999999101901MW1001
0024990061999991929102712004+62000-033000SAO  +00004YA  V02099999999999999999N0000001N1+02521+01631999999ADDMA1999999101831MW1001
0024990061999991929102713004+62000-033000SAO  +00004YA  V02099999999999999999N0000001N1+02521+01631999999ADDMA1999999101761MW1001
0024990061999991929102714004+62000-033000SAO  +00004YA  V02099999999999999999N0000001N1+02461+01521999999ADDMA1999999101661MW1001
0024990061999991929102715004+62000-033000SAO  +00004YA  V02099999999999999999N0000001N1+02411+01521999999ADDMA1999999101591MW1001
0024990061999991929102716004+62000-033000SAO  +00004YA  V02099999999999999999N0000001N1+02411+01411999999ADDMA1999999101521MW1001
0024990061999991929102717004+62000-033000SAO  +00004YA  V02099999999999999999N0000001N1+02351+01461999999ADDMA1999999101521MW1001
0024990061999991929102718004+62000-033000SAO  +00004YA  V02099999999999999999N0000001N1+02351+01571999999ADDMA1999999101561MW1001
0024990061999991929102719004+62000-033000SAO  +00004YA  V02099999999999999999N0000001N1+02301+01631999999ADDMA1999999101631MW1001
0024990061999991929102720004+62000-033000SAO  +00004YA  V02099999999999999999N0000001N1+02241+01691999999ADDMA1999999101691MW1001
0024990061999991929102721004+62000-033000SAO  +00004YA  V02099999999999999999N0000001N1+02301+01631999999ADDMA1999999101761MW1001
0024990061999991929102722004+62000-033000SAO  +00004YA  V02099999999999999999N0000001N1+02301+01571999999ADDMA1999999101791MW1001
0024990061999991929102723004+62000-033000SAO  +00004YA  V02099999999999999999N0000001N1+02301+01691999999ADDMA1999999101831MW1001
0024990061999991929102800004+62000-033000SAO  +00004YA  V02099999999999999999N0000001N1+02301+01741999999ADDMA1999999101831MW1001
0024990061999991929102801004+62000-033000SAO  +00004YA  V02099999999999999999N0000001N1+02301+01631999999ADDMA1999999101791MW1001
0024990061999991929102802004+62000-033000SAO  +00004YA  V02099999999999999999N0000001N1+02241+01691999999ADDMA1999999101761MW1001
0024990061999991929102803004+62000-033000SAO  +00004YA  V02099999999999999999N0000001N1+02241+01741999999ADDMA1999999101691MW1001
0024990061999991929102804004+62000-033000SAO  +00004YA  V02099999999999999999N0000001N1+02181+01741999999ADDMA1999999101661MW1001
0024990061999991929102805004+62000-033000SAO  +00004YA  V02099999999999999999N0000001N1+02181+01741999999ADDMA1999999101661MW1001
0024990061999991929102806004+62000-033000SAO  +00004YA  V02099999999999999999N0000001N1+02181+01691999999ADDMA1999999101691MW1001
0024990061999991929102807004+62000-033000SAO  +00004YA  V02099999999999999999N0000001N1+02131+01631999999ADDMA1999999101761MW1001
0024990061999991929102808004+62000-033000SAO  +00004YA  V02099999999999999999N0000001N1+02131+01691999999ADDMA1999999101831MW1001
0024990061999991929102809004+62000-033000SAO  +00004YA  V02099999999999999999N0000001N1+02301+01691999999ADDMA1999999101861MW1001
0024990061999991929102810004+62000-033000SAO  +00004YA  V02099999999999999999N0000001N1+02351+01691999999ADDMA1999999101931MW1001
0024990061999991929102811004+62000-033000SAO  +00004YA  V02099999999999999999N0000001N1+02411+01691999999ADDMA1999999101931MW1001
0024990061999991929102812004+62000-033000SAO  +00004YA  V02099999999999999999N0000001N1+02411+01631999999ADDMA1999999101861MW1001
0024990061999991929102813004+62000-033000SAO  +00004YA  V02099999999999999999N0000001N1+02411+01571999999ADDMA1999999101791MW1001
0024990061999991929102814004+62000-033000SAO  +00004YA  V02099999999999999999N0000001N1+02461+01631999999ADDMA1999999101691MW1001
0024990061999991929102815004+62000-033000SAO  +00004YA  V02099999999999999999N0000001N1+02461+01521999999ADDMA1999999101591MW1001
0024990061999991929102816004+62000-033000SAO  +00004YA  V02099999999999999999N0000001N1+02411+01631999999ADDMA1999999101521MW1001
0024990061999991929102817004+62000-033000SAO  +00004YA  V02099999999999999999N0000001N1+02351+01691999999ADDMA1999999101491MW1001
0024990061999991929102818004+62000-033000SAO  +00004YA  V02099999999999999999N0000001N1+02351+01691999999ADDMA1999999101521MW1001
0024990061999991929102819004+62000-033000SAO  +00004YA  V02099999999999999999N0000001N1+02241+01741999999ADDMA1999999101561MW1001
0043990061999991929102820004+62000-033000SAO  +00004YA  V02099999999999999999N0000001N1+02241+01741999999ADDMA1999999098242MW1001EQDQ01+098243APOSP 
0024990061999991929102821004+62000-033000SAO  +00004YA  V02099999999999999999N0000001N1+02241+01801999999ADDMA1999999098311MW1001
0024990061999991929102822004+62000-033000SAO  +00004YA  V02099999999999999999N0000001N1+02241+01801999999ADDMA1999999098371MW1001
0024990061999991929102823004+62000-033000SAO  +00004YA  V02099999999999999999N0000001N1+02241+01851999999ADDMA1999999098371MW1001
0024990061999991929102900004+62000-033000SAO  +00004YA  V02099999999999999999N0000001N1+02301+01801999999ADDMA1999999098371MW1001
0024990061999991929102901004+62000-033000SAO  +00004YA  V02099999999999999999N0000001N1+02301+01801999999ADDMA1999999098341MW1001
0043990061999991929102902004+62000-033000SAO  +00004YA  V02099999999999999999N0000001N1+02301+01851999999ADDMA1999999101692MW1001EQDQ01+101693APOSP 
0024990061999991929102903004+62000-033000SAO  +00004YA  V02099999999999999999N0000001N1+02241+01851999999ADDMA1999999101631MW1001
0024990061999991929102904004+62000-033000SAO  +00004YA  V02099999999999999999N0000001N1+02241+01851999999ADDMA1999999101591MW1001
0024990061999991929102905004+62000-033000SAO  +00004YA  V02099999999999999999N0000001N1+02241+01851999999ADDMA1999999101591MW1001
0024990061999991929102906004+62000-033000SAO  +00004YA  V02099999999999999999N0000001N1+02181+01851999999ADDMA1999999101631MW1001
0024990061999991929102907004+62000-033000SAO  +00004YA  V02099999999999999999N0000001N1+02131+01741999999ADDMA1999999101691MW1001
0024990061999991929102908004+62000-033000SAO  +00004YA  V02099999999999999999N0000001N1+02131+01691999999ADDMA1999999101761MW1001
0024990061999991929102909004+62000-033000SAO  +00004YA  V02099999999999999999N0000001N1+01631+99999999999ADDMA1999999101761MW1001
0024990061999991929102910004+62000-033000SAO  +00004YA  V02099999999999999999N0000001N1+01631+99999999999ADDMA1999999101831MW1001
0024990061999991929102911004+62000-033000SAO  +00004YA  V02099999999999999999N0000001N1+01741+99999999999ADDMA1999999101831MW1001
0024990061999991929102912004+62000-033000SAO  +00004YA  V02099999999999999999N0000001N1+01741+99999999999ADDMA1999999101761MW1001
0024990061999991929102913004+62000-033000SAO  +00004YA  V02099999999999999999N0000001N1+01741+99999999999ADDMA1999999101691MW1001
0024990061999991929102914004+62000-033000SAO  +00004YA  V02099999999999999999N0000001N1+01741+99999999999ADDMA1999999101591MW1001
0024990061999991929102915004+62000-033000SAO  +00004YA  V02099999999999999999N0000001N1+02351+01741999999ADDMA1999999101491MW1001
0024990061999991929102916004+62000-033000SAO  +00004YA  V02099999999999999999N0000001N1+01801+99999999999ADDMA1999999101421MW1001
0024990061999991929102917004+62000-033000SAO  +00004YA  V02099999999999999999N0000001N1+01801+99999999999ADDMA1999999101391MW1001
0024990061999991929102918004+62000-033000SAO  +00004YA  V02099999999999999999N0000001N1+01741+99999999999ADDMA1999999101421MW1001
0024990061999991929102919004+62000-033000SAO  +00004YA  V02099999999999999999N0000001N1+01691+99999999999ADDMA1999999101461MW1001
0024990061999991929102920004+62000-033000SAO  +00004YA  V02099999999999999999N0000001N1+01691+99999999999ADDMA1999999101521MW1001
0024990061999991929102921004+62000-033000SAO  +00004YA  V02099999999999999999N0000001N1+01691+99999999999ADDMA1999999101561MW1001
0024990061999991929102922004+62000-033000SAO  +00004YA  V02099999999999999999N0000001N1+02241+01801999999ADDMA1999999101631MW1001
0024990061999991929102923004+62000-033000SAO  +00004YA  V02099999999999999999N0000001N1+01691+99999999999ADDMA1999999101661MW1001
0024990061999991929103000004+62000-033000SAO  +00004YA  V02099999999999999999N0000001N1+01741+99999999999ADDMA1999999101661MW1001
0024990061999991929103001004+62000-033000SAO  +00004YA  V02099999999999999999N0000001N1+01741+99999999999ADDMA1999999101631MW1001
0024990061999991929103002004+62000-033000SAO  +00004YA  V02099999999999999999N0000001N1+02241+01801999999ADDMA1999999101661MW1001
0024990061999991929103003004+62000-033000SAO  +00004YA  V02099999999999999999N0000001N1+02241+01801999999ADDMA1999999101591MW1001
0024990061999991929103004004+62000-033000SAO  +00004YA  V02099999999999999999N0000001N1+02241+01801999999ADDMA1999999101591MW1001
0024990061999991929103005004+62000-033000SAO  +00004YA  V02099999999999999999N0000001N1+02241+01741999999ADDMA1999999101591MW1001
0024990061999991929103006004+62000-033000SAO  +00004YA  V02099999999999999999N0000001N1+02181+01691999999ADDMA1999999101591MW1001
0024990061999991929103007004+62000-033000SAO  +00004YA  V02099999999999999999N0000001N1+02181+01691999999ADDMA1999999101631MW1001
0024990061999991929103008004+62000-033000SAO  +00004YA  V02099999999999999999N0000001N1+02181+01691999999ADDMA1999999101691MW1001
0024990061999991929103009004+62000-033000SAO  +00004YA  V02099999999999999999N0000001N1+02301+01741999999ADDMA1999999101691MW1001
0024990061999991929103010004+62000-033000SAO  +00004YA  V02099999999999999999N0000001N1+02411+01691999999ADDMA1999999101731MW1001
0024990061999991929103011004+62000-033000SAO  +00004YA  V02099999999999999999N0000001N1+02461+01741999999ADDMA1999999101731MW1001
0024990061999991929103012004+62000-033000SAO  +00004YA  V02099999999999999999N0000001N1+02521+01631999999ADDMA1999999101691MW1001
0024990061999991929103013004+62000-033000SAO  +00004YA  V02099999999999999999N0000001N1+02571+01631999999ADDMA1999999101591MW1001
0024990061999991929103014004+62000-033000SAO  +00004YA  V02099999999999999999N0000001N1+02631+01631999999ADDMA1999999101521MW1001
0024990061999991929103015004+62000-033000SAO  +00004YA  V02099999999999999999N0000001N1+02631+01691999999ADDMA1999999101391MW1001
0024990061999991929103016004+62000-033000SAO  +00004YA  V02099999999999999999N0000001N1+02521+01691999999ADDMA1999999101351MW1001
0024990061999991929103017004+62000-033000SAO  +00004YA  V02099999999999999999N0000001N1+02461+01741999999ADDMA1999999101321MW1001
0024990061999991929103018004+62000-033000SAO  +00004YA  V02099999999999999999N0000001N1+02411+01801999999ADDMA1999999101351MW1001
0024990061999991929103019004+62000-033000SAO  +00004YA  V02099999999999999999N0000001N1+02351+01851999999ADDMA1999999101421MW1001
0024990061999991929103020004+62000-033000SAO  +00004YA  V02099999999999999999N0000001N1+02351+01851999999ADDMA1999999101491MW1001
0024990061999991929103021004+62000-033000SAO  +00004YA  V02099999999999999999N0000001N1+02301+01911999999ADDMA1999999101591MW1001
0024990061999991929103022004+62000-033000SAO  +00004YA  V02099999999999999999N0000001N1+02301+01911999999ADDMA1999999101661MW1001
0024990061999991929103023004+62000-033000SAO  +00004YA  V02099999999999999999N0000001N1+02301+01911999999ADDMA1999999101661MW1001
0024990061999991929103100004+62000-033000SAO  +00004YA  V02099999999999999999N0000001N1+02301+01911999999ADDMA1999999101661MW1001
0024990061999991929103101004+62000-033000SAO  +00004YA  V02099999999999999999N0000001N1+02301+01911999999ADDMA1999999101661MW1001
0024990061999991929103102004+62000-033000SAO  +00004YA  V02099999999999999999N0000001N1+02301+01961999999ADDMA1999999101631MW1001
0024990061999991929103103004+62000-033000SAO  +00004YA  V02099999999999999999N0000001N1+02241+01911999999ADDMA1999999101591MW1001
0024990061999991929103104004+62000-033000SAO  +00004YA  V02099999999999999999N0000001N1+02241+01851999999ADDMA1999999101521MW1001
0024990061999991929103105004+62000-033000SAO  +00004YA  V02099999999999999999N0000001N1+02181+01911999999ADDMA1999999101491MW1001
0024990061999991929103106004+62000-033000SAO  +00004YA  V02099999999999999999N0000001N1+02181+01911999999ADDMA1999999101521MW1001
0024990061999991929103107004+62000-033000SAO  +00004YA  V02099999999999999999N0000001N1+02181+01851999999ADDMA1999999101521MW1001
0024990061999991929103108004+62000-033000SAO  +00004YA  V02099999999999999999N0000001N1+02241+01911999999ADDMA1999999101631MW1001
0024990061999991929103109004+62000-033000SAO  +00004YA  V02099999999999999999N0000001N1+02351+01851999999ADDMA1999999101631MW1001
0024990061999991929103110004+62000-033000SAO  +00004YA  V02099999999999999999N0000001N1+02461+01801999999ADDMA1999999101631MW1001
0024990061999991929103111004+62000-033000SAO  +00004YA  V02099999999999999999N0000001N1+02631+01801999999ADDMA1999999101591MW1001
0024990061999991929103112004+62000-033000SAO  +00004YA  V02099999999999999999N0000001N1+02741+01801999999ADDMA1999999101561MW1001
0024990061999991929103113004+62000-033000SAO  +00004YA  V02099999999999999999N0000001N1+02801+01911999999ADDMA1999999101461MW1001
0024990061999991929103114004+62000-033000SAO  +00004YA  V02099999999999999999N0000001N1+02801+01851999999ADDMA1999999101391MW1001
0024990061999991929103115004+62000-033000SAO  +00004YA  V02099999999999999999N0000001N1+02741+01851999999ADDMA1999999101291MW1001
0024990061999991929103116004+62000-033000SAO  +00004YA  V02099999999999999999N0000001N1+02681+01911999999ADDMA1999999101221MW1001
0024990061999991929103117004+62000-033000SAO  +00004YA  V02099999999999999999N0000001N1+02631+01851999999ADDMA1999999101251MW1001
0024990061999991929103118004+62000-033000SAO  +00004YA  V02099999999999999999N0000001N1+02461+01961999999ADDMA1999999101291MW1001
0024990061999991929103119004+62000-033000SAO  +00004YA  V02099999999999999999N0000001N1+02461+01851999999ADDMA1999999101321MW1001
0024990061999991929103120004+62000-033000SAO  +00004YA  V02099999999999999999N0000001N1+02461+01521999999ADDMA1999999101421MW1001
0024990061999991929103121004+62000-033000SAO  +00004YA  V02099999999999999999N0000001N1+02411+01461999999ADDMA1999999101461MW1001
0024990061999991929103122004+62000-033000SAO  +00004YA  V02099999999999999999N0000001N1+02351+01411999999ADDMA1999999101521MW1001
0024990061999991929103123004+62000-033000SAO  +00004YA  V02099999999999999999N0000001N1+02241+01351999999ADDMA1999999101591MW1001
0024990061999991929110100004+62000-033000SAO  +00004YA  V02099999999999999999N0000001N1+02181+01301999999ADDMA1999999101591MW1001
0024990061999991929110101004+62000-033000SAO  +00004YA  V02099999999999999999N0000001N1+02181+01241999999ADDMA1999999101591MW1001
0024990061999991929110102004+62000-033000SAO  +00004YA  V02099999999999999999N0000001N1+02071+01301999999ADDMA1999999101591MW1001
0024990061999991929110103004+62000-033000SAO  +00004YA  V02099999999999999999N0000001N1+02021+01301999999ADDMA1999999101561MW1001
0024990061999991929110104004+62000-033000SAO  +00004YA  V02099999999999999999N0000001N1+02021+01301999999ADDMA1999999101521MW1001
0024990061999991929110105004+62000-033000SAO  +00004YA  V02099999999999999999N0000001N1+01961+01301999999ADDMA1999999101491MW1001
0024990061999991929110106004+62000-033000SAO  +00004YA  V02099999999999999999N0000001N1+01911+01351999999ADDMA1999999101521MW1001
0024990061999991929110107004+62000-033000SAO  +00004YA  V02099999999999999999N0000001N1+01851+01241999999ADDMA1999999101561MW1001
0024990061999991929110108004+62000-033000SAO  +00004YA  V02099999999999999999N0000001N1+01851+01301999999ADDMA1999999101631MW1001
0024990061999991929110109004+62000-033000SAO  +00004YA  V02099999999999999999N0000001N1+02071+01351999999ADDMA1999999101661MW1001
0024990061999991929110110004+62000-033000SAO  +00004YA  V02099999999999999999N0000001N1+02241+01351999999ADDMA1999999101691MW1001
0024990061999991929110111004+62000-033000SAO  +00004YA  V02099999999999999999N0000001N1+02351+01351999999ADDMA1999999101691MW1001
0024990061999991929110112004+62000-033000SAO  +00004YA  V02099999999999999999N0000001N1+02521+01461999999ADDMA1999999101631MW1001
0024990061999991929110113004+62000-033000SAO  +00004YA  V02099999999999999999N0000001N1+02631+01521999999ADDMA1999999101521MW1001
0024990061999991929110114004+62000-033000SAO  +00004YA  V02099999999999999999N0000001N1+02631+01631999999ADDMA1999999101391MW1001
0024990061999991929110115004+62000-033000SAO  +00004YA  V02099999999999999999N0000001N1+02521+01521999999ADDMA1999999101291MW1001
0024990061999991929110116004+62000-033000SAO  +00004YA  V02099999999999999999N0000001N1+02521+01571999999ADDMA1999999101251MW1001
0024990061999991929110117004+62000-033000SAO  +00004YA  V02099999999999999999N0000001N1+02521+01571999999ADDMA1999999101251MW1001
0024990061999991929110118004+62000-033000SAO  +00004YA  V02099999999999999999N0000001N1+02461+01411999999ADDMA1999999101291MW1001
0024990061999991929110119004+62000-033000SAO  +00004YA  V02099999999999999999N0000001N1+02411+01351999999ADDMA1999999101321MW1001
0024990061999991929110120004+62000-033000SAO  +00004YA  V02099999999999999999N0000001N1+02301+01301999999ADDMA1999999101391MW1001
0024990061999991929110121004+62000-033000SAO  +00004YA  V02099999999999999999N0000001N1+02301+01301999999ADDMA1999999101491MW1001
0024990061999991929110122004+62000-033000SAO  +00004YA  V02099999999999999999N0000001N1+02241+01631999999ADDMA1999999101561MW1001
0024990061999991929110200004+62000-033000SAO  +00004YA  V02099999999999999999N0000001N1+02181+01741999999ADDMA1999999101591MW1001
0024990061999991929110201004+62000-033000SAO  +00004YA  V02099999999999999999N0000001N1+02181+01801999999ADDMA1999999101561MW1001
0024990061999991929110202004+62000-033000SAO  +00004YA  V02099999999999999999N0000001N1+02241+01801999999ADDMA1999999101561MW1001
0024990061999991929110203004+62000-033000SAO  +00004YA  V02099999999999999999N0000001N1+02241+01741999999ADDMA1999999101521MW1001
0024990061999991929110204004+62000-033000SAO  +00004YA  V02099999999999999999N0000001N1+02181+01571999999ADDMA1999999101521MW1001
0024990061999991929110205004+62000-033000SAO  +00004YA  V02099999999999999999N0000001N1+02131+01301999999ADDMA1999999101521MW1001
0024990061999991929110206004+62000-033000SAO  +00004YA  V02099999999999999999N0000001N1+02071+01241999999ADDMA1999999101521MW1001
